{
  "address": "0x8d3B5E26e4BF490aD76f5646BfB4f0bAc6A4EBe2",
  "abi": [
    {
      "inputs": [
        {
          "internalType": "string",
          "name": "infoName_",
          "type": "string"
        },
        {
          "internalType": "address",
          "name": "dexPool_",
          "type": "address"
        },
        {
          "internalType": "bool",
          "name": "quoteInToken0_",
          "type": "bool"
        },
        {
          "internalType": "uint256",
          "name": "twapDuration_",
          "type": "uint256"
        },
        {
          "internalType": "contract IFluidOracle",
          "name": "colDebtOracle_",
          "type": "address"
        },
        {
          "internalType": "bool",
          "name": "colDebtInvert_",
          "type": "bool"
        },
        {
          "internalType": "uint8",
          "name": "colDebtDecimals_",
          "type": "uint8"
        },
        {
          "components": [
            {
              "internalType": "address",
              "name": "reservesConversionOracle",
              "type": "address"
            },
            {
              "internalType": "bool",
              "name": "reservesConversionInvert",
              "type": "bool"
            },
            {
              "internalType": "uint256",
              "name": "multiplier",
              "type": "uint256"
            },
            {
              "internalType": "uint256",
              "name": "divisor",
              "type": "uint256"
            }
          ],
          "internalType": "struct DexSmartDebtOracleImpl.ExternalPrice",
          "name": "externalPrice_",
          "type": "tuple"
        }
      ],
      "stateMutability": "nonpayable",
      "type": "constructor"
    },
    {
      "inputs": [
        {
          "internalType": "uint256",
          "name": "errorId_",
          "type": "uint256"
        }
      ],
      "name": "FluidLiquidityCalcsError",
      "type": "error"
    },
    {
      "inputs": [
        {
          "internalType": "uint256",
          "name": "errorId_",
          "type": "uint256"
        }
      ],
      "name": "FluidOracleError",
      "type": "error"
    },
    {
      "inputs": [],
      "name": "dexSmartDebtOracleData",
      "outputs": [
        {
          "internalType": "address",
          "name": "dexPool_",
          "type": "address"
        },
        {
          "internalType": "contract IFluidOracle",
          "name": "reservesConversionOracle_",
          "type": "address"
        },
        {
          "internalType": "bool",
          "name": "reservesConversionInvert_",
          "type": "bool"
        },
        {
          "internalType": "bool",
          "name": "quoteInToken0_",
          "type": "bool"
        },
        {
          "internalType": "uint256",
          "name": "dexTwapDuration_",
          "type": "uint256"
        },
        {
          "internalType": "uint8",
          "name": "dexSharesDecimals_",
          "type": "uint8"
        },
        {
          "internalType": "uint8",
          "name": "dexTokensDecimalsPrecision_",
          "type": "uint8"
        },
        {
          "internalType": "contract IFluidLiquidity",
          "name": "liquidity_",
          "type": "address"
        },
        {
          "internalType": "uint256",
          "name": "token0NumeratorPrecision_",
          "type": "uint256"
        },
        {
          "internalType": "uint256",
          "name": "token0DenominatorPrecision_",
          "type": "uint256"
        },
        {
          "internalType": "uint256",
          "name": "token1NumeratorPrecision_",
          "type": "uint256"
        },
        {
          "internalType": "uint256",
          "name": "token1DenominatorPrecision_",
          "type": "uint256"
        }
      ],
      "stateMutability": "view",
      "type": "function"
    },
    {
      "inputs": [],
      "name": "getDexSmartDebtOracleData",
      "outputs": [
        {
          "internalType": "address",
          "name": "colDebtOracle_",
          "type": "address"
        },
        {
          "internalType": "bool",
          "name": "colDebtInvert_",
          "type": "bool"
        },
        {
          "internalType": "uint8",
          "name": "colDebtDecimals_",
          "type": "uint8"
        }
      ],
      "stateMutability": "view",
      "type": "function"
    },
    {
      "inputs": [],
      "name": "getExchangeRate",
      "outputs": [
        {
          "internalType": "uint256",
          "name": "exchangeRate_",
          "type": "uint256"
        }
      ],
      "stateMutability": "view",
      "type": "function"
    },
    {
      "inputs": [],
      "name": "getExchangeRateLiquidate",
      "outputs": [
        {
          "internalType": "uint256",
          "name": "exchangeRate_",
          "type": "uint256"
        }
      ],
      "stateMutability": "view",
      "type": "function"
    },
    {
      "inputs": [],
      "name": "getExchangeRateOperate",
      "outputs": [
        {
          "internalType": "uint256",
          "name": "exchangeRate_",
          "type": "uint256"
        }
      ],
      "stateMutability": "view",
      "type": "function"
    },
    {
      "inputs": [],
      "name": "infoName",
      "outputs": [
        {
          "internalType": "string",
          "name": "",
          "type": "string"
        }
      ],
      "stateMutability": "view",
      "type": "function"
    }
  ],
  "transactionHash": "0x64b567373017ba9be82d35948b1bf23b08280f95deeecd1637cec0d07cbe148d",
  "args": [
    [
      "USDC/ETH dbtSh. per 1 colSh.",
      "0x2886a01a0645390872a9eb99dAe1283664b0c524",
      true,
      300,
      "0x14288700Dc560a3F26a81FF10AB19C8b75846c2D",
      false,
      18,
      {
        "reservesConversionOracle": "0x5b2860C6D6F888319C752aaCDaf8165C21095E3a",
        "reservesConversionInvert": true,
        "multiplier": 1000000000000,
        "divisor": 1
      }
    ]
  ],
  "numDeployments": 1,
  "linkedData": {
    "nonce": "41"
  },
  "bytecode": "0x6103406040523480156200001257600080fd5b5060405162002eb538038062002eb58339810160408190526200003591620003ee565b868686838b84806001600160a01b03166080816001600160a01b03168152505060006080516001600160a01b031663b7791bf26040518163ffffffff1660e01b815260040161024060405180830381865afa15801562000099573d6000803e3d6000fd5b505050506040513d601f19601f82011682018060405250810190620000bf9190620005ca565b61016081015161012090815261018082015161014090815260e08084015160a0529183015160c0526101008084015190925282015190526080805160408051631595cbd360e01b815290519394506000936001600160a01b0390921692631595cbd3926004808401938290030181865afa15801562000142573d6000803e3d6000fd5b505050506040513d601f19601f82011682018060405250810190620001689190620006c0565b8051610160526020808201516101805260408201516101a0526060909101516101c05284511192508291506200019f905057508051155b15620001c75760405163c82fc46560e01b815261ea6a60048201526024015b60405180910390fd5b602001516102a0526001600160a01b0384161580620001ee575080516001600160a01b0316155b80620001f8575081155b156200021c5760405163c82fc46560e01b815261ebb56004820152602401620001be565b9115156102205281516001600160a01b039081166101e0526020830151151561020052610240919091526040820151610260526060909101516102805285166102c052508215156102e05260ff82166103008190526200027f6012601b6200071f565b6200028b91906200073b565b6200029890600a6200084e565b6103205250620008639650505050505050565b634e487b7160e01b600052604160045260246000fd5b604051608081016001600160401b0381118282101715620002e657620002e6620002ab565b60405290565b6040516101c081016001600160401b0381118282101715620002e657620002e6620002ab565b604051601f8201601f191681016001600160401b03811182821017156200033d576200033d620002ab565b604052919050565b6001600160a01b03811681146200035b57600080fd5b50565b80516200036b8162000345565b919050565b805180151581146200036b57600080fd5b805160ff811681146200036b57600080fd5b600060808284031215620003a657600080fd5b620003b0620002c1565b90508151620003bf8162000345565b8152620003cf6020830162000370565b6020820152604082015160408201526060820151606082015292915050565b600080600080600080600080610160898b0312156200040c57600080fd5b88516001600160401b03808211156200042457600080fd5b818b0191508b601f8301126200043957600080fd5b8151818111156200044e576200044e620002ab565b6020915062000466601f8201601f1916830162000312565b8181528d838386010111156200047b57600080fd5b60005b828110156200049b5784810184015182820185015283016200047e565b506000838383010152809b505050620004b6818c016200035e565b98505050620004c860408a0162000370565b955060608901519450620004df60808a016200035e565b9350620004ef60a08a0162000370565b9250620004ff60c08a0162000381565b9150620005108a60e08b0162000393565b90509295985092959890939650565b600060a082840312156200053257600080fd5b60405160a081016001600160401b0381118282101715620005575762000557620002ab565b806040525080915082516200056c8162000345565b815260208301516200057e8162000345565b60208201526040830151620005938162000345565b60408201526060830151620005a88162000345565b60608201526080830151620005bd8162000345565b6080919091015292915050565b60006102408284031215620005de57600080fd5b620005e8620002ec565b82518152620005fa602084016200035e565b60208201526200060d604084016200035e565b60408201526200062184606085016200051f565b6060820152610100620006368185016200035e565b60808301526101206200064b8186016200035e565b60a0840152610140620006608187016200035e565b60c08501526101608087015160e086015261018080880151858701526101a0945084880151848701526101c0880151838701526101e088015182870152610200880151818701525050505061022084015181830152508091505092915050565b600060808284031215620006d357600080fd5b620006dd620002c1565b825181526020830151602082015260408301516040820152606083015160608201528091505092915050565b634e487b7160e01b600052601160045260246000fd5b8082018082111562000735576200073562000709565b92915050565b8181038181111562000735576200073562000709565b600181815b808511156200079257816000190482111562000776576200077662000709565b808516156200078457918102915b93841c939080029062000756565b509250929050565b600082620007ab5750600162000735565b81620007ba5750600062000735565b8160018114620007d35760028114620007de57620007fe565b600191505062000735565b60ff841115620007f257620007f262000709565b50506001821b62000735565b5060208310610133831016604e8410600b841016171562000823575081810a62000735565b6200082f838362000751565b806000190482111562000846576200084662000709565b029392505050565b60006200085c83836200079a565b9392505050565b60805160a05160c05160e05161010051610120516101405161016051610180516101a0516101c0516101e05161020051610220516102405161026051610280516102a0516102c0516102e051610300516103205161249a62000a1b60003960005050600060bb015260008181609a01526106600152600081816079015281816104e80152818161053b01526105cf015260008181610366015261042b0152600081816106b2015281816107bb01528181610a7e0152610b060152600081816106d3015281816107dc01528181610a5a0152610ae2015260006101f80152600081816101d00152610a110152600081816101a6015261088d01526000818161017f015281816106f401526107fd0152600081816102bb015281816109de0152611d09015260008181610294015281816109bd0152611d2a01526000818161026d0152818161098a0152611d60015260008181610246015281816109690152611d810152600061131001526000611250015260006113e4015260006113b4015260005050600050506000818161015a01528181610bb201528181610d7301528181610e2801528181611726015261183c015261249a6000f3fe608060405234801561001057600080fd5b50600436106100725760003560e01c8063b8a4c0a611610050578063b8a4c0a61461013f578063e6aa216c146102e9578063f3190c89146102f157600080fd5b80638164d9aa146100775780638e7bfbc014610114578063abd5f95d1461012a575b600080fd5b7f00000000000000000000000000000000000000000000000000000000000000007f00000000000000000000000000000000000000000000000000000000000000007f00000000000000000000000000000000000000000000000000000000000000006040805173ffffffffffffffffffffffffffffffffffffffff9094168452911515602084015260ff16908201526060015b60405180910390f35b61011c6102f9565b60405190815260200161010b565b610132610354565b60405161010b919061206c565b6040805173ffffffffffffffffffffffffffffffffffffffff7f0000000000000000000000000000000000000000000000000000000000000000811682527f00000000000000000000000000000000000000000000000000000000000000001660208201527f00000000000000000000000000000000000000000000000000000000000000001515918101919091527f0000000000000000000000000000000000000000000000000000000000000000151560608201527f00000000000000000000000000000000000000000000000000000000000000006080820152601260a0820152600c60c08201527352aa899454998be5b000ad077a46bbe360f4e49760e08201527f00000000000000000000000000000000000000000000000000000000000000006101008201527f00000000000000000000000000000000000000000000000000000000000000006101208201527f00000000000000000000000000000000000000000000000000000000000000006101408201527f00000000000000000000000000000000000000000000000000000000000000006101608201526101800161010b565b61011c6104b9565b61011c6104c3565b60006b033b2e3c9fd0803ce800000061031260016104e4565b61031a6106ad565b61033b90760a70c3c40a64e6c51999090b65f67d9240000000000000612136565b610345919061214a565b61034f9190612136565b905090565b606060005b6020811080156103bf57507f0000000000000000000000000000000000000000000000000000000000000000816020811061039657610396612167565b1a60f81b7fff000000000000000000000000000000000000000000000000000000000000001615155b156103d657806103ce81612196565b915050610359565b60008167ffffffffffffffff8111156103f1576103f16121ce565b6040519080825280601f01601f19166020018201604052801561041b576020820181803683370190505b50905060005b828110156104b2577f0000000000000000000000000000000000000000000000000000000000000000816020811061045b5761045b612167565b1a60f81b82828151811061047157610471612167565b60200101907effffffffffffffffffffffffffffffffffffffffffffffffffffffffffffff1916908160001a905350806104aa81612196565b915050610421565b5092915050565b600061034f6102f9565b60006b033b2e3c9fd0803ce80000006104dc60006104e4565b61031a6107b6565b60007f000000000000000000000000000000000000000000000000000000000000000073ffffffffffffffffffffffffffffffffffffffff1661053457506b033b2e3c9fd0803ce8000000919050565b816105cd577f000000000000000000000000000000000000000000000000000000000000000073ffffffffffffffffffffffffffffffffffffffff1663f3190c896040518163ffffffff1660e01b8152600401602060405180830381865afa1580156105a4573d6000803e3d6000fd5b505050506040513d601f19601f820116820180604052508101906105c891906121fd565b61065c565b7f000000000000000000000000000000000000000000000000000000000000000073ffffffffffffffffffffffffffffffffffffffff16638e7bfbc06040518163ffffffff1660e01b8152600401602060405180830381865afa158015610638573d6000803e3d6000fd5b505050506040513d601f19601f8201168201806040525081019061065c91906121fd565b90507f0000000000000000000000000000000000000000000000000000000000000000156106a8576106a581760a70c3c40a64e6c51999090b65f67d9240000000000000612136565b90505b919050565b6000807f00000000000000000000000000000000000000000000000000000000000000007f00000000000000000000000000000000000000000000000000000000000000007f000000000000000000000000000000000000000000000000000000000000000073ffffffffffffffffffffffffffffffffffffffff16638e7bfbc06040518163ffffffff1660e01b8152600401602060405180830381865afa15801561075d573d6000803e3d6000fd5b505050506040513d601f19601f8201168201806040525081019061078191906121fd565b61078b919061214a565b6107959190612136565b905060006107a4600083610866565b90506107af81610b6d565b9250505090565b6000807f00000000000000000000000000000000000000000000000000000000000000007f00000000000000000000000000000000000000000000000000000000000000007f000000000000000000000000000000000000000000000000000000000000000073ffffffffffffffffffffffffffffffffffffffff1663f3190c896040518163ffffffff1660e01b8152600401602060405180830381865afa15801561075d573d6000803e3d6000fd5b60006108746012601b612216565b61087f90600a612349565b610889908461214a565b92507f0000000000000000000000000000000000000000000000000000000000000000156108d5576108d282760a70c3c40a64e6c51999090b65f67d9240000000000000612136565b91505b60007fffffffffffffffffffffffffffffffffffffffffffffffffffffffffffffffff841415801561090657508284115b6109105782610912565b835b905080600003610957576040517fc82fc46500000000000000000000000000000000000000000000000000000000815261ebb760048201526024015b60405180910390fd5b60008061096383610c9b565b915091507f00000000000000000000000000000000000000000000000000000000000000007f00000000000000000000000000000000000000000000000000000000000000008302816109b8576109b86120d8565b0491507f00000000000000000000000000000000000000000000000000000000000000007f0000000000000000000000000000000000000000000000000000000000000000820281610a0c57610a0c6120d8565b0490507f000000000000000000000000000000000000000000000000000000000000000015610ae057610a5683760a70c3c40a64e6c51999090b65f67d9240000000000000612136565b92507f0000000000000000000000000000000000000000000000000000000000000000610aa37f00000000000000000000000000000000000000000000000000000000000000008561214a565b610aad9190612136565b9250610abb601b600a612349565b610ac5848361214a565b610acf9190612136565b610ad99083612355565b9350610b64565b7f0000000000000000000000000000000000000000000000000000000000000000610b2b7f00000000000000000000000000000000000000000000000000000000000000008561214a565b610b359190612136565b9250610b43601b600a612349565b610b4d848461214a565b610b579190612136565b610b619082612355565b93505b50505092915050565b6040517fb5c736e400000000000000000000000000000000000000000000000000000000815260048082015260009081906fffffffffffffffffffffffffffffffff907f000000000000000000000000000000000000000000000000000000000000000073ffffffffffffffffffffffffffffffffffffffff169063b5c736e490602401602060405180830381865afa158015610c0e573d6000803e3d6000fd5b505050506040513d601f19601f82011682018060405250810190610c3291906121fd565b16905080600003610c73576040517fc82fc46500000000000000000000000000000000000000000000000000000000815261ebb6600482015260240161094e565b80610c8a846b033b2e3c9fd0803ce800000061214a565b610c949190612136565b9392505050565b6000806000610ca8610cf2565b90506000610cce8260800151836040015184606001518560c00151866101000151611374565b90506000610cdd8383886114bc565b80516020909101519097909650945050505050565b610d416040518061012001604052806000815260200160008152602001600081526020016000815260200160008152602001600081526020016000815260200160008152602001600081525090565b6040517fb5c736e4000000000000000000000000000000000000000000000000000000008152600060048201819052907f000000000000000000000000000000000000000000000000000000000000000073ffffffffffffffffffffffffffffffffffffffff169063b5c736e490602401602060405180830381865afa158015610dcf573d6000803e3d6000fd5b505050506040513d601f19601f82011682018060405250810190610df391906121fd565b6040517fb5c736e4000000000000000000000000000000000000000000000000000000008152600160048201529091506000907f000000000000000000000000000000000000000000000000000000000000000073ffffffffffffffffffffffffffffffffffffffff169063b5c736e490602401602060405180830381865afa158015610e84573d6000803e3d6000fd5b505050506040513d601f19601f82011682018060405250810190610ea891906121fd565b9050600060f882901c600116600003610eea57633fffffff607083901c16905080600003610eea575063ffffffff605983901c1660ff605184901c161b610f98565b6040517f08c379a000000000000000000000000000000000000000000000000000000000815260206004820152604d60248201527f507269636573416e6445786368616e67655072696365733a2063656e7465722060448201527f70726963652073686f756c64206e6f742062652070656767656420746f20657860648201527f7465726e616c20736f7572636500000000000000000000000000000000000000608482015260a40161094e565b63ffffffff603184901c1660ff602985901c161b601b83901c620fffff90811690602f85901c166001601a86901c81169003610fe157610fd98282876116c7565b965090925090505b81620f424003620f4240850281610ffa57610ffa6120d8565b049150620f42409081038402046000620fffff604487901c161561110057604486901c6103ff90811690604e88901c16605888901c62ffffff16600160438a901c811690036110565761104e838383611821565b919450925090505b6103e8888703848203020488018711156110ab5760798a901c6401ffffffff1642038181101561109d5781818a89030281611093576110936120d8565b04890198506110a1565b8698505b60019450506110fc565b6103e8858903838203020488038710156110fc5760798a901c6401ffffffff164203818110156110f2578181878b0302816110e8576110e86120d8565b04890398506110f6565b8598505b60019450505b5050505b620fffff60b487901c1660ff60ac88901c161b80861115611127578095506001915061114b565b50620fffff60d087901c1660ff60c888901c161b8086101561114b57809550600191505b81156111b457620fffff601b88901c169350620fffff602f88901c169250601a87901c60011660010361118b576111838484896116c7565b985090945092505b83620f424003620f42408702816111a4576111a46120d8565b049350620f424083810387020492505b8489526020890186905260408901849052606089018390526f4b3b4ca85a86c47a098a2240000000008410156111f9576111ef838502611978565b60808a0152611228565b611218670de0b6b3a76400008404670de0b6b3a7640000860402611978565b670de0b6b3a76400000260808a01525b6040517fb5c736e40000000000000000000000000000000000000000000000000000000081527f000000000000000000000000000000000000000000000000000000000000000060048201526112de907352aa899454998be5b000ad077a46bbe360f4e4979063b5c736e4906024015b602060405180830381865afa1580156112b5573d6000803e3d6000fd5b505050506040513d601f19601f820116820180604052508101906112d991906121fd565b611a2a565b60c08b015260a08a01526040517fb5c736e40000000000000000000000000000000000000000000000000000000081527f0000000000000000000000000000000000000000000000000000000000000000600482015261135c907352aa899454998be5b000ad077a46bbe360f4e4979063b5c736e490602401611298565b6101008b015260e08a01525096979650505050505050565b6113ad6040518060c001604052806000815260200160008152602001600081526020016000815260200160008152602001600081525090565b60006113db7f0000000000000000000000000000000000000000000000000000000000000000856001611c38565b9050600061140b7f0000000000000000000000000000000000000000000000000000000000000000856000611c38565b8284526020840181905290506b033b2e3c9fd0803ce80000008810156114505761143788878484611dba565b60a08701526080860152606085015260408401526114b1565b61149c61147489760a70c3c40a64e6c51999090b65f67d9240000000000000612136565b61149589760a70c3c40a64e6c51999090b65f67d9240000000000000612136565b8385611dba565b608087015260a0860152604085015260608401525b505095945050505050565b6114f56040518060c001604052806000815260200160008152602001600081526020016000815260200160008152602001600081525090565b60008360a00151846080015161150b919061214a565b90506000846040015185608001516115239190612216565b9050600085606001518660a0015161153b9190612216565b90506000808689604001511015611560578391506115598286612136565b9050611616565b868960600151111561157f5750816115788186612136565b9150611616565b74446c3b15f9926687d2c40534fdb5640000000000008510156115cc576115c5876115b6876b033b2e3c9fd0803ce800000061214a565b6115c09190612136565b611978565b91506115f2565b6115ef6115d98887612136565b6115c0906b033b2e3c9fd0803ce800000061214a565b91505b6b033b2e3c9fd0803ce8000000611609838961214a565b6116139190612136565b90505b6116208483612216565b604087015261162f8382612216565b60608701526080860182905260a080870182905288015160408701516000916116579161214a565b9050600087604001518a6080015161166f9190612216565b905061167b8183612136565b602089015260808a01516060890151611694919061214a565b915087606001518a60a001516116aa9190612216565b90506116b68183612136565b885250959998505050505050505050565b6040517fb5c736e4000000000000000000000000000000000000000000000000000000008152600760048201526000908190819081906fffffffffffffffffffffffffffffffff9073ffffffffffffffffffffffffffffffffffffffff7f0000000000000000000000000000000000000000000000000000000000000000169063b5c736e490602401602060405180830381865afa15801561176d573d6000803e3d6000fd5b505050506040513d601f19601f8201168201806040525081019061179191906121fd565b169050620fffff80821690601483901c811690602884901c16603c84901c6401ffffffff16426117c18383612355565b10156117e457630400000019891698508a8a8a9750975097505050505050611818565b60006117f08242612216565b90506117fe8c868386611ff3565b61180a8c868487611ff3565b8b9850985098505050505050505b93509350939050565b6000806000806fffffffffffffffffffffffffffffffff60807f000000000000000000000000000000000000000000000000000000000000000073ffffffffffffffffffffffffffffffffffffffff1663b5c736e4600760001b6040518263ffffffff1660e01b815260040161189991815260200190565b602060405180830381865afa1580156118b6573d6000803e3d6000fd5b505050506040513d601f19601f820116820180604052508101906118da91906121fd565b901c169050620fffff80821690601483901c811690602884901c16603c84901c6401ffffffff16605d85901c62ffffff16426119168484612355565b1015611930578b8b8b985098509850505050505050611818565b600061193c8342612216565b905061194a8d878387611ff3565b6119568d878488611ff3565b6119628d858589611ff3565b9950995099505050505050505093509350939050565b60b58171010000000000000000000000000000000000811061199f5760409190911b9060801c5b690100000000000000000081106119bb5760209190911b9060401c5b6501000000000081106119d35760109190911b9060201c5b630100000081106119e95760089190911b9060101c5b62010000010260121c80820401600190811c80830401811c80830401811c80830401811c80830401811c80830401811c80830401901c908190048111900390565b67ffffffffffffffff605b82901c811690609b83901c16811580611a4c575080155b15611a88576040517fd50d751200000000000000000000000000000000000000000000000000000000815262011171600482015260240161094e565b61ffff8316603a84901c6401ffffffff16428181039160ea87901c617fff16911480611ab2575082155b80611abd5750806001145b15611aca57505050915091565b64496cebb80084840283020484019350617fff60db87901c16925082600103611af557505050915091565b82600116600103611b4a5760019290921c91826c7e37be2022c0914b268000000081611b2357611b236120d8565b049250612710601e87901c613fff166b033b2e3c9fd0803ce8000000850102049250611b77565b60019290921c916305f5e100601e87901c613fff166127108501026b033b2e3c9fd0803ce8000000020492505b80600116600103611bae5760011c61271081016b033b2e3c9fd0803ce8000000820281611ba657611ba66120d8565b049050611be4565b60011c61271081016b033b2e3c9fd0803ce8000000820281611bd257611bd26120d8565b046b033b2e3c9fd0803ce80000000390505b760a70c3c40a64e6c51999090b65f67d92400000000000008382026127100261ffff881691900402601087901c613fff16612710030292506801b5a660ea44b8000085840283020485019450505050915091565b6040517fb5c736e40000000000000000000000000000000000000000000000000000000081526004810184905260009081907352aa899454998be5b000ad077a46bbe360f4e4979063b5c736e490602401602060405180830381865afa158015611ca6573d6000803e3d6000fd5b505050506040513d601f19601f82011682018060405250810190611cca91906121fd565b905067ffffffffffffffff600182901c16915060ff8216600883901c901b915080600116600103611d025764e8d4a510008285020491505b82611d5e577f00000000000000000000000000000000000000000000000000000000000000007f0000000000000000000000000000000000000000000000000000000000000000830281611d5857611d586120d8565b04611db1565b7f00000000000000000000000000000000000000000000000000000000000000007f0000000000000000000000000000000000000000000000000000000000000000830281611daf57611daf6120d8565b045b95945050505050565b6000808080806b06765c793fa10079d0000000611de3876b033b2e3c9fd0803ce800000061214a565b611ded8b8a61214a565b611df79190612368565b611e019190612388565b90506000611e0f878961214a565b905074446c3b15f9926687d2c40534fdb5640000000000008110611e535788611e446b033b2e3c9fd0803ce800000083612136565b611e4e919061214a565b611e74565b6b033b2e3c9fd0803ce8000000611e6a8a8361214a565b611e749190612136565b9050611e8d611e8383806123f0565b6115c09083612355565b611e97908361243c565b9450611ea3898961214a565b611eb9866b033b2e3c9fd0803ce800000061214a565b611ec39190612216565b9250620f4240831015611f32576040517f08c379a000000000000000000000000000000000000000000000000000000000815260206004820152601560248201527f4465627420726573657276657320746f6f206c6f770000000000000000000000604482015260640161094e565b6a084595161401484a000000851015611f775782611f50868061214a565b611f66906b033b2e3c9fd0803ce800000061214a565b611f709190612136565b9250611fa4565b611f8d6b033b2e3c9fd0803ce800000084612136565b611f97868061214a565b611fa19190612136565b92505b8785611fb0828661214a565b611fba9190612136565b611fc49190612216565b9350611fd08784612355565b611fda888661214a565b611fe49190612136565b95505050945094509450949050565b6000838511156120325760006120098587612216565b905082612016858361214a565b6120209190612136565b61202a9086612355565b955050612063565b600061203e8686612216565b90508261204b858361214a565b6120559190612136565b61205f9086612216565b9550505b50929392505050565b600060208083528351808285015260005b818110156120995785810183015185820160400152820161207d565b5060006040828601015260407fffffffffffffffffffffffffffffffffffffffffffffffffffffffffffffffe0601f8301168501019250505092915050565b7f4e487b7100000000000000000000000000000000000000000000000000000000600052601260045260246000fd5b7f4e487b7100000000000000000000000000000000000000000000000000000000600052601160045260246000fd5b600082612145576121456120d8565b500490565b808202811582820484141761216157612161612107565b92915050565b7f4e487b7100000000000000000000000000000000000000000000000000000000600052603260045260246000fd5b60007fffffffffffffffffffffffffffffffffffffffffffffffffffffffffffffffff82036121c7576121c7612107565b5060010190565b7f4e487b7100000000000000000000000000000000000000000000000000000000600052604160045260246000fd5b60006020828403121561220f57600080fd5b5051919050565b8181038181111561216157612161612107565b600181815b8085111561228257817fffffffffffffffffffffffffffffffffffffffffffffffffffffffffffffffff0482111561226857612268612107565b8085161561227557918102915b93841c939080029061222e565b509250929050565b60008261229957506001612161565b816122a657506000612161565b81600181146122bc57600281146122c6576122e2565b6001915050612161565b60ff8411156122d7576122d7612107565b50506001821b612161565b5060208310610133831016604e8410600b8410161715612305575081810a612161565b61230f8383612229565b807fffffffffffffffffffffffffffffffffffffffffffffffffffffffffffffffff0482111561234157612341612107565b029392505050565b6000610c94838361228a565b8082018082111561216157612161612107565b81810360008312801583831316838312821617156104b2576104b2612107565b600082612397576123976120d8565b7fffffffffffffffffffffffffffffffffffffffffffffffffffffffffffffffff83147f8000000000000000000000000000000000000000000000000000000000000000831416156123eb576123eb612107565b500590565b808202600082127f80000000000000000000000000000000000000000000000000000000000000008414161561242857612428612107565b818105831482151761216157612161612107565b808201828112600083128015821682158216171561245c5761245c612107565b50509291505056fea2646970667358221220cb5132171fc22bec255376dff3db4fdc59b98090d94d5a851493ce700757130564736f6c63430008150033"
}