{
  "address": "0xc0aaB32BD6258773b43c0dC8E2049C6a4960c488",
  "abi": [
    {
      "inputs": [
        {
          "components": [
            {
              "internalType": "string",
              "name": "infoName",
              "type": "string"
            },
            {
              "internalType": "address",
              "name": "dexPool",
              "type": "address"
            },
            {
              "internalType": "bool",
              "name": "quoteInToken0",
              "type": "bool"
            },
            {
              "internalType": "uint256",
              "name": "pegBufferPercent",
              "type": "uint256"
            },
            {
              "components": [
                {
                  "internalType": "address",
                  "name": "reservesConversionOracle",
                  "type": "address"
                },
                {
                  "internalType": "bool",
                  "name": "reservesConversionInvert",
                  "type": "bool"
                },
                {
                  "internalType": "uint256",
                  "name": "reservesConversionPriceMultiplier",
                  "type": "uint256"
                },
                {
                  "internalType": "uint256",
                  "name": "reservesConversionPriceDivisor",
                  "type": "uint256"
                }
              ],
              "internalType": "struct DexConversionPriceFluidOracle.DexConversionPriceFluidOracleParams",
              "name": "reservesConversionParams",
              "type": "tuple"
            },
            {
              "internalType": "uint256",
              "name": "resultMultiplier",
              "type": "uint256"
            },
            {
              "internalType": "uint256",
              "name": "resultDivisor",
              "type": "uint256"
            }
          ],
          "internalType": "struct DexSmartT4PegOracle.DexSmartT4PegOracleParams",
          "name": "params_",
          "type": "tuple"
        }
      ],
      "stateMutability": "nonpayable",
      "type": "constructor"
    },
    {
      "inputs": [
        {
          "internalType": "uint256",
          "name": "errorId_",
          "type": "uint256"
        }
      ],
      "name": "FluidLiquidityCalcsError",
      "type": "error"
    },
    {
      "inputs": [
        {
          "internalType": "uint256",
          "name": "errorId_",
          "type": "uint256"
        }
      ],
      "name": "FluidOracleError",
      "type": "error"
    },
    {
      "inputs": [],
      "name": "RESERVES_PEG_BUFFER_PERCENT",
      "outputs": [
        {
          "internalType": "uint256",
          "name": "",
          "type": "uint256"
        }
      ],
      "stateMutability": "view",
      "type": "function"
    },
    {
      "inputs": [],
      "name": "dexOracleData",
      "outputs": [
        {
          "internalType": "address",
          "name": "dexPool_",
          "type": "address"
        },
        {
          "internalType": "bool",
          "name": "quoteInToken0_",
          "type": "bool"
        },
        {
          "internalType": "address",
          "name": "liquidity_",
          "type": "address"
        },
        {
          "internalType": "uint256",
          "name": "resultMultiplier_",
          "type": "uint256"
        },
        {
          "internalType": "uint256",
          "name": "resultDivisor_",
          "type": "uint256"
        }
      ],
      "stateMutability": "view",
      "type": "function"
    },
    {
      "inputs": [],
      "name": "dexSmartColSharesRates",
      "outputs": [
        {
          "internalType": "uint256",
          "name": "operate_",
          "type": "uint256"
        },
        {
          "internalType": "uint256",
          "name": "liquidate_",
          "type": "uint256"
        }
      ],
      "stateMutability": "view",
      "type": "function"
    },
    {
      "inputs": [],
      "name": "dexSmartDebtSharesRates",
      "outputs": [
        {
          "internalType": "uint256",
          "name": "operate_",
          "type": "uint256"
        },
        {
          "internalType": "uint256",
          "name": "liquidate_",
          "type": "uint256"
        }
      ],
      "stateMutability": "view",
      "type": "function"
    },
    {
      "inputs": [],
      "name": "getDexConversionPriceFluidOracleData",
      "outputs": [
        {
          "internalType": "address",
          "name": "reservesConversionOracle_",
          "type": "address"
        },
        {
          "internalType": "bool",
          "name": "reservesConversionInvert_",
          "type": "bool"
        },
        {
          "internalType": "uint256",
          "name": "reservesConversionPriceMultiplier_",
          "type": "uint256"
        },
        {
          "internalType": "uint256",
          "name": "reservesConversionPriceDivisor_",
          "type": "uint256"
        }
      ],
      "stateMutability": "view",
      "type": "function"
    },
    {
      "inputs": [],
      "name": "getExchangeRate",
      "outputs": [
        {
          "internalType": "uint256",
          "name": "exchangeRate_",
          "type": "uint256"
        }
      ],
      "stateMutability": "view",
      "type": "function"
    },
    {
      "inputs": [],
      "name": "getExchangeRateLiquidate",
      "outputs": [
        {
          "internalType": "uint256",
          "name": "exchangeRate_",
          "type": "uint256"
        }
      ],
      "stateMutability": "view",
      "type": "function"
    },
    {
      "inputs": [],
      "name": "getExchangeRateOperate",
      "outputs": [
        {
          "internalType": "uint256",
          "name": "exchangeRate_",
          "type": "uint256"
        }
      ],
      "stateMutability": "view",
      "type": "function"
    },
    {
      "inputs": [],
      "name": "infoName",
      "outputs": [
        {
          "internalType": "string",
          "name": "",
          "type": "string"
        }
      ],
      "stateMutability": "view",
      "type": "function"
    }
  ],
  "transactionHash": "0x706a746cea2c973a6e34925fe9ab984004c898a3a724be742f99780097506d97",
  "args": [
    [
      {
        "dexPool": "0x0B1a513ee24972DAEf112bC777a5610d4325C9e7",
        "quoteInToken0": false,
        "infoName": "WSTETH/ETH dbtSh. per 1 colSh.",
        "pegBufferPercent": 1000,
        "reservesConversionParams": {
          "reservesConversionOracle": "0x2F95631D59F564D5e2dD0c028d4DAF3B876D84Fd",
          "reservesConversionInvert": false,
          "reservesConversionPriceMultiplier": 1,
          "reservesConversionPriceDivisor": 1
        },
        "resultMultiplier": 1,
        "resultDivisor": 1
      }
    ]
  ],
  "numDeployments": 1,
  "linkedData": {
    "nonce": "77"
  },
  "bytecode": "0x6103406040523480156200001257600080fd5b5060405162002053380380620020538339810160408190526200003591620005bd565b80602001518160400151826060015182828560800151828288600001518960a001518a60c00151816000146200006c57816200006f565b60015b608052801562000080578062000083565b60015b60a05250508051602010806200009857508051155b15620000c05760405163c82fc46560e01b815261ea6a60048201526024015b60405180910390fd5b6020015160c0526001600160a01b038216620000f45760405163c82fc46560e01b815261ebdd6004820152602401620000b7565b6001600160a01b03821660e08190528115156101005260408051635bbc8df960e11b815290516000929163b7791bf2916004808301926102409291908290030181865afa1580156200014a573d6000803e3d6000fd5b505050506040513d601f19601f820116820180604052508101906200017091906200072a565b610160808201516101a052610180808301516101c05260e0808401516101209081528401516101409081526101008501519093529183015190525160408051631595cbd360e01b815290519293506000926001600160a01b0390921691631595cbd3916004808201926080929091908290030181865afa158015620001f9573d6000803e3d6000fd5b505050506040513d601f19601f820116820180604052508101906200021f919062000820565b80516101e052602081015161020052604081015161022052606001516102405250506101005191506200028d9050576102205161024051620002679064e8d4a5100062000869565b62000273919062000895565b6200028790670de0b6b3a764000062000895565b620002c6565b6101e05161020051620002a69064e8d4a5100062000869565b620002b2919062000895565b620002c690670de0b6b3a764000062000895565b610260526101005162000312576102205161024051620002ec9064e8d4a5100062000869565b620002f8919062000895565b6200030c90670de0b6b3a764000062000895565b6200034b565b6101e051610200516200032b9064e8d4a5100062000869565b62000337919062000895565b6200034b90670de0b6b3a764000062000895565b61028052604081015115806200036357506060810151155b15620003875760405163c82fc46560e01b815261ebdd6004820152602401620000b7565b80516001600160a01b03166102a052602081015115156102c05260408101516102e052606001516103005250506000819003620003dc5760405163c82fc46560e01b815261ebdd6004820152602401620000b7565b6103205250620008b8915050565b634e487b7160e01b600052604160045260246000fd5b604051608081016001600160401b0381118282101715620004255762000425620003ea565b60405290565b60405160e081016001600160401b0381118282101715620004255762000425620003ea565b6040516101c081016001600160401b0381118282101715620004255762000425620003ea565b604051601f8201601f191681016001600160401b0381118282101715620004a157620004a1620003ea565b604052919050565b600082601f830112620004bb57600080fd5b81516001600160401b03811115620004d757620004d7620003ea565b6020620004ed601f8301601f1916820162000476565b82815285828487010111156200050257600080fd5b60005b838110156200052257858101830151828201840152820162000505565b506000928101909101919091529392505050565b80516001600160a01b03811681146200054e57600080fd5b919050565b805180151581146200054e57600080fd5b6000608082840312156200057757600080fd5b6200058162000400565b90506200058e8262000536565b81526200059e6020830162000553565b6020820152604082015160408201526060820151606082015292915050565b600060208284031215620005d057600080fd5b81516001600160401b0380821115620005e857600080fd5b908301906101408286031215620005fe57600080fd5b620006086200042b565b8251828111156200061857600080fd5b6200062687828601620004a9565b825250620006376020840162000536565b60208201526200064a6040840162000553565b60408201526060830151606082015262000668866080850162000564565b608082015261010083015160a08201526101209092015160c0830152509392505050565b600060a082840312156200069f57600080fd5b60405160a081016001600160401b0381118282101715620006c457620006c4620003ea565b604052905080620006d58362000536565b8152620006e56020840162000536565b6020820152620006f86040840162000536565b60408201526200070b6060840162000536565b60608201526200071e6080840162000536565b60808201525092915050565b600061024082840312156200073e57600080fd5b6200074862000450565b825181526200075a6020840162000536565b60208201526200076d6040840162000536565b60408201526200078184606085016200068c565b60608201526101006200079681850162000536565b6080830152610120620007ab81860162000536565b60a0840152610140620007c081870162000536565b60c08501526101608087015160e086015261018080880151858701526101a0945084880151848701526101c0880151838701526101e088015182870152610200880151818701525050505061022084015181830152508091505092915050565b6000608082840312156200083357600080fd5b6200083d62000400565b825181526020830151602082015260408301516040820152606083015160608201528091505092915050565b80820281158282048414176200088f57634e487b7160e01b600052601160045260246000fd5b92915050565b600082620008b357634e487b7160e01b600052601260045260246000fd5b500490565b60805160a05160c05160e05161010051610120516101405161016051610180516101a0516101c0516101e05161020051610220516102405161026051610280516102a0516102c0516102e05161030051610320516115ef62000a646000396000818161025f01528181610598015281816105dc01528181610a200152610a6401526000818161010d0152818161066b015261095c01526000818160ec0152818161068c015261097d01526000818160cb015261075201526000818160aa0152818161061f015281816106ad01528181610910015261099e01526000610ba3015260006108bb015260008181610da20152610fe1015260008181610d7e0152611002015260008181610d190152611038015260008181610cf50152611059015260008181610c550152610e50015260008181610c070152610e0201526000610e2f01526000610de101526000610c3401526000610be60152600081816101c40152610c7f0152600081816101a0015281816107e00152610ace01526000818161041201526104d701526000818161022e0152610350015260008181610208015261038301526115ef6000f3fe608060405234801561001057600080fd5b50600436106100a35760003560e01c80638e7bfbc011610076578063abd5f95d1161005b578063abd5f95d1461029f578063e6aa216c146102b4578063f3190c89146102bc57600080fd5b80638e7bfbc01461028f57806396aa229c1461029757600080fd5b806304741a5a146100a85780632879605814610168578063585eebbf1461018557806364bba8851461025a575b600080fd5b7f00000000000000000000000000000000000000000000000000000000000000007f00000000000000000000000000000000000000000000000000000000000000007f00000000000000000000000000000000000000000000000000000000000000007f00000000000000000000000000000000000000000000000000000000000000006040805173ffffffffffffffffffffffffffffffffffffffff909516855292151560208501529183015260608201526080015b60405180910390f35b6101706102c4565b6040805192835260208301919091520161015f565b6040805173ffffffffffffffffffffffffffffffffffffffff7f00000000000000000000000000000000000000000000000000000000000000001681527f0000000000000000000000000000000000000000000000000000000000000000151560208201527352aa899454998be5b000ad077a46bbe360f4e497918101919091527f000000000000000000000000000000000000000000000000000000000000000060608201527f0000000000000000000000000000000000000000000000000000000000000000608082015260a00161015f565b6102817f000000000000000000000000000000000000000000000000000000000000000081565b60405190815260200161015f565b610281610304565b6101706103ca565b6102a7610400565b60405161015f91906113c2565b610281610565565b610281610574565b6000806000806102d261057f565b915091506102e86102e161061b565b838361079a565b6102fa6102f361090c565b848461079a565b9350935050509091565b60008061030f61061b565b905060008061031c61057f565b91509150600061032d84848461079a565b9050610337610a07565b90935091506000610349858585610a89565b90506103817f00000000000000000000000000000000000000000000000000000000000000006b033b2e3c9fd0803ce800000061145d565b7f00000000000000000000000000000000000000000000000000000000000000006103ac848461145d565b6103b6919061145d565b6103c091906114a9565b9550505050505090565b6000806000806103d8610a07565b915091506103ee6103e761061b565b8383610a89565b6102fa6103f961090c565b8484610a89565b606060005b60208110801561046b57507f00000000000000000000000000000000000000000000000000000000000000008160208110610442576104426114e4565b1a60f81b7fff000000000000000000000000000000000000000000000000000000000000001615155b15610482578061047a81611513565b915050610405565b60008167ffffffffffffffff81111561049d5761049d61154b565b6040519080825280601f01601f1916602001820160405280156104c7576020820181803683370190505b50905060005b8281101561055e577f00000000000000000000000000000000000000000000000000000000000000008160208110610507576105076114e4565b1a60f81b82828151811061051d5761051d6114e4565b60200101907effffffffffffffffffffffffffffffffffffffffffffffffffffffffffffff1916908160001a9053508061055681611513565b9150506104cd565b5092915050565b600061056f610304565b905090565b60008061030f61090c565b60008061058a610bde565b9092509050620f42406105bd7f00000000000000000000000000000000000000000000000000000000000000008261157a565b6105c7908461145d565b6105d191906114a9565b9150620f42406106017f00000000000000000000000000000000000000000000000000000000000000008261157a565b61060b908361145d565b61061591906114a9565b90509091565b60007f000000000000000000000000000000000000000000000000000000000000000073ffffffffffffffffffffffffffffffffffffffff1661066957506b033b2e3c9fd0803ce800000090565b7f00000000000000000000000000000000000000000000000000000000000000007f00000000000000000000000000000000000000000000000000000000000000007f000000000000000000000000000000000000000000000000000000000000000073ffffffffffffffffffffffffffffffffffffffff16638e7bfbc06040518163ffffffff1660e01b8152600401602060405180830381865afa158015610716573d6000803e3d6000fd5b505050506040513d601f19601f8201168201806040525081019061073a919061158d565b610744919061145d565b61074e91906114a9565b90507f0000000000000000000000000000000000000000000000000000000000000000156107975761056f81760a70c3c40a64e6c51999090b65f67d92400000000000006114a9565b90565b6040517fb5c736e40000000000000000000000000000000000000000000000000000000081526002600482015260009081906fffffffffffffffffffffffffffffffff907f000000000000000000000000000000000000000000000000000000000000000073ffffffffffffffffffffffffffffffffffffffff169063b5c736e490602401602060405180830381865afa15801561083c573d6000803e3d6000fd5b505050506040513d601f19601f82011682018060405250810190610860919061158d565b169050806000036108a6576040517fc82fc46500000000000000000000000000000000000000000000000000000000815261ebac60048201526024015b60405180910390fd5b60006108b3868686610c7b565b9050816108e07f00000000000000000000000000000000000000000000000000000000000000008361145d565b6108f6906b033b2e3c9fd0803ce800000061145d565b61090091906114a9565b925050505b9392505050565b60007f000000000000000000000000000000000000000000000000000000000000000073ffffffffffffffffffffffffffffffffffffffff1661095a57506b033b2e3c9fd0803ce800000090565b7f00000000000000000000000000000000000000000000000000000000000000007f00000000000000000000000000000000000000000000000000000000000000007f000000000000000000000000000000000000000000000000000000000000000073ffffffffffffffffffffffffffffffffffffffff1663f3190c896040518163ffffffff1660e01b8152600401602060405180830381865afa158015610716573d6000803e3d6000fd5b600080610a12610dd9565b9092509050620f4240610a457f0000000000000000000000000000000000000000000000000000000000000000826115a6565b610a4f908461145d565b610a5991906114a9565b9150620f42406106017f0000000000000000000000000000000000000000000000000000000000000000826115a6565b6040517fb5c736e400000000000000000000000000000000000000000000000000000000815260048082015260009081906fffffffffffffffffffffffffffffffff907f000000000000000000000000000000000000000000000000000000000000000073ffffffffffffffffffffffffffffffffffffffff169063b5c736e490602401602060405180830381865afa158015610b2a573d6000803e3d6000fd5b505050506040513d601f19601f82011682018060405250810190610b4e919061158d565b16905080600003610b8f576040517fc82fc46500000000000000000000000000000000000000000000000000000000815261ebb6600482015260240161089d565b6000610b9c868686610c7b565b9050610bc87f00000000000000000000000000000000000000000000000000000000000000008261145d565b6108f6836b033b2e3c9fd0803ce800000061145d565b600080610c2d7f00000000000000000000000000000000000000000000000000000000000000007f00000000000000000000000000000000000000000000000000000000000000006001610e76565b91506106157f00000000000000000000000000000000000000000000000000000000000000007f00000000000000000000000000000000000000000000000000000000000000006000610e76565b60007f000000000000000000000000000000000000000000000000000000000000000015610d4f57610cc484760a70c3c40a64e6c51999090b65f67d92400000000000006114a9565b93506b033b2e3c9fd0803ce8000000610cdd858461145d565b610ce791906114a9565b610cf190846115a6565b90507f0000000000000000000000000000000000000000000000000000000000000000610d3e7f00000000000000000000000000000000000000000000000000000000000000008361145d565b610d4891906114a9565b9050610905565b6b033b2e3c9fd0803ce8000000610d66858561145d565b610d7091906114a9565b610d7a90836115a6565b90507f0000000000000000000000000000000000000000000000000000000000000000610dc77f00000000000000000000000000000000000000000000000000000000000000008361145d565b610dd191906114a9565b949350505050565b600080610e287f00000000000000000000000000000000000000000000000000000000000000007f00000000000000000000000000000000000000000000000000000000000000006001611092565b91506106157f00000000000000000000000000000000000000000000000000000000000000007f00000000000000000000000000000000000000000000000000000000000000006000611092565b6040517fb5c736e40000000000000000000000000000000000000000000000000000000081526004810184905260009081907352aa899454998be5b000ad077a46bbe360f4e4979063b5c736e490602401602060405180830381865afa158015610ee4573d6000803e3d6000fd5b505050506040513d601f19601f82011682018060405250810190610f08919061158d565b6040517fb5c736e400000000000000000000000000000000000000000000000000000000815260048101869052600982901c66ffffffffffffff16600183901c60ff161b9350909150600090610fbe907352aa899454998be5b000ad077a46bbe360f4e4979063b5c736e4906024015b602060405180830381865afa158015610f95573d6000803e3d6000fd5b505050506040513d601f19601f82011682018060405250810190610fb9919061158d565b6111b4565b50905081600116600103610fda5764e8d4a510008382025b0492505b83611036577f00000000000000000000000000000000000000000000000000000000000000007f00000000000000000000000000000000000000000000000000000000000000008402816110305761103061147a565b04610900565b7f00000000000000000000000000000000000000000000000000000000000000007f00000000000000000000000000000000000000000000000000000000000000008402816110875761108761147a565b049695505050505050565b6040517fb5c736e40000000000000000000000000000000000000000000000000000000081526004810184905260009081907352aa899454998be5b000ad077a46bbe360f4e4979063b5c736e490602401602060405180830381865afa158015611100573d6000803e3d6000fd5b505050506040513d601f19601f82011682018060405250810190611124919061158d565b6040517fb5c736e400000000000000000000000000000000000000000000000000000000815260048101869052600982901c66ffffffffffffff16600183901c60ff161b9350909150600090611198907352aa899454998be5b000ad077a46bbe360f4e4979063b5c736e490602401610f78565b91505081600116600103610fda5764e8d4a51000838202610fd6565b67ffffffffffffffff605b82901c811690609b83901c168115806111d6575080155b15611212576040517fd50d751200000000000000000000000000000000000000000000000000000000815262011171600482015260240161089d565b61ffff8316603a84901c6401ffffffff16428181039160ea87901c617fff1691148061123c575082155b806112475750806001145b1561125457505050915091565b64496cebb80084840283020484019350617fff60db87901c1692508260010361127f57505050915091565b826001166001036112d45760019290921c91826c7e37be2022c0914b2680000000816112ad576112ad61147a565b049250612710601e87901c613fff166b033b2e3c9fd0803ce8000000850102049250611301565b60019290921c916305f5e100601e87901c613fff166127108501026b033b2e3c9fd0803ce8000000020492505b806001166001036113385760011c61271081016b033b2e3c9fd0803ce80000008202816113305761133061147a565b04905061136e565b60011c61271081016b033b2e3c9fd0803ce800000082028161135c5761135c61147a565b046b033b2e3c9fd0803ce80000000390505b760a70c3c40a64e6c51999090b65f67d92400000000000008382026127100261ffff881691900402601087901c613fff16612710030292506801b5a660ea44b8000085840283020485019450505050915091565b600060208083528351808285015260005b818110156113ef578581018301518582016040015282016113d3565b5060006040828601015260407fffffffffffffffffffffffffffffffffffffffffffffffffffffffffffffffe0601f8301168501019250505092915050565b7f4e487b7100000000000000000000000000000000000000000000000000000000600052601160045260246000fd5b80820281158282048414176114745761147461142e565b92915050565b7f4e487b7100000000000000000000000000000000000000000000000000000000600052601260045260246000fd5b6000826114df577f4e487b7100000000000000000000000000000000000000000000000000000000600052601260045260246000fd5b500490565b7f4e487b7100000000000000000000000000000000000000000000000000000000600052603260045260246000fd5b60007fffffffffffffffffffffffffffffffffffffffffffffffffffffffffffffffff82036115445761154461142e565b5060010190565b7f4e487b7100000000000000000000000000000000000000000000000000000000600052604160045260246000fd5b818103818111156114745761147461142e565b60006020828403121561159f57600080fd5b5051919050565b808201808211156114745761147461142e56fea26469706673582212208d9733cdd3d555e07f4197a34cdd255d8dcf23dc5da8a15b9f62c26821c2798e64736f6c63430008150033"
}