{
  "address": "0x5a3bE124A6Dbb34Fadce08E6C1EAe7F3843922A0",
  "abi": [
    {
      "inputs": [
        {
          "internalType": "string",
          "name": "infoName_",
          "type": "string"
        },
        {
          "internalType": "uint8",
          "name": "mainSource_",
          "type": "uint8"
        },
        {
          "components": [
            {
              "internalType": "uint8",
              "name": "hops",
              "type": "uint8"
            },
            {
              "components": [
                {
                  "internalType": "contract IChainlinkAggregatorV3",
                  "name": "feed",
                  "type": "address"
                },
                {
                  "internalType": "bool",
                  "name": "invertRate",
                  "type": "bool"
                },
                {
                  "internalType": "uint256",
                  "name": "token0Decimals",
                  "type": "uint256"
                }
              ],
              "internalType": "struct ChainlinkStructs.ChainlinkFeedData",
              "name": "feed1",
              "type": "tuple"
            },
            {
              "components": [
                {
                  "internalType": "contract IChainlinkAggregatorV3",
                  "name": "feed",
                  "type": "address"
                },
                {
                  "internalType": "bool",
                  "name": "invertRate",
                  "type": "bool"
                },
                {
                  "internalType": "uint256",
                  "name": "token0Decimals",
                  "type": "uint256"
                }
              ],
              "internalType": "struct ChainlinkStructs.ChainlinkFeedData",
              "name": "feed2",
              "type": "tuple"
            },
            {
              "components": [
                {
                  "internalType": "contract IChainlinkAggregatorV3",
                  "name": "feed",
                  "type": "address"
                },
                {
                  "internalType": "bool",
                  "name": "invertRate",
                  "type": "bool"
                },
                {
                  "internalType": "uint256",
                  "name": "token0Decimals",
                  "type": "uint256"
                }
              ],
              "internalType": "struct ChainlinkStructs.ChainlinkFeedData",
              "name": "feed3",
              "type": "tuple"
            }
          ],
          "internalType": "struct ChainlinkStructs.ChainlinkConstructorParams",
          "name": "chainlinkParams_",
          "type": "tuple"
        },
        {
          "components": [
            {
              "internalType": "contract IRedstoneOracle",
              "name": "oracle",
              "type": "address"
            },
            {
              "internalType": "bool",
              "name": "invertRate",
              "type": "bool"
            },
            {
              "internalType": "uint256",
              "name": "token0Decimals",
              "type": "uint256"
            }
          ],
          "internalType": "struct RedstoneStructs.RedstoneOracleData",
          "name": "redstoneOracle_",
          "type": "tuple"
        }
      ],
      "stateMutability": "nonpayable",
      "type": "constructor"
    },
    {
      "inputs": [
        {
          "internalType": "uint256",
          "name": "errorId_",
          "type": "uint256"
        }
      ],
      "name": "FluidOracleError",
      "type": "error"
    },
    {
      "inputs": [],
      "name": "FALLBACK_ORACLE_MAIN_SOURCE",
      "outputs": [
        {
          "internalType": "uint8",
          "name": "",
          "type": "uint8"
        }
      ],
      "stateMutability": "view",
      "type": "function"
    },
    {
      "inputs": [],
      "name": "chainlinkOracleData",
      "outputs": [
        {
          "internalType": "uint256",
          "name": "chainlinkExchangeRate_",
          "type": "uint256"
        },
        {
          "internalType": "contract IChainlinkAggregatorV3",
          "name": "chainlinkFeed1_",
          "type": "address"
        },
        {
          "internalType": "bool",
          "name": "chainlinkInvertRate1_",
          "type": "bool"
        },
        {
          "internalType": "uint256",
          "name": "chainlinkExchangeRate1_",
          "type": "uint256"
        },
        {
          "internalType": "contract IChainlinkAggregatorV3",
          "name": "chainlinkFeed2_",
          "type": "address"
        },
        {
          "internalType": "bool",
          "name": "chainlinkInvertRate2_",
          "type": "bool"
        },
        {
          "internalType": "uint256",
          "name": "chainlinkExchangeRate2_",
          "type": "uint256"
        },
        {
          "internalType": "contract IChainlinkAggregatorV3",
          "name": "chainlinkFeed3_",
          "type": "address"
        },
        {
          "internalType": "bool",
          "name": "chainlinkInvertRate3_",
          "type": "bool"
        },
        {
          "internalType": "uint256",
          "name": "chainlinkExchangeRate3_",
          "type": "uint256"
        }
      ],
      "stateMutability": "view",
      "type": "function"
    },
    {
      "inputs": [],
      "name": "getExchangeRate",
      "outputs": [
        {
          "internalType": "uint256",
          "name": "exchangeRate_",
          "type": "uint256"
        }
      ],
      "stateMutability": "view",
      "type": "function"
    },
    {
      "inputs": [],
      "name": "getExchangeRateLiquidate",
      "outputs": [
        {
          "internalType": "uint256",
          "name": "exchangeRate_",
          "type": "uint256"
        }
      ],
      "stateMutability": "view",
      "type": "function"
    },
    {
      "inputs": [],
      "name": "getExchangeRateOperate",
      "outputs": [
        {
          "internalType": "uint256",
          "name": "exchangeRate_",
          "type": "uint256"
        }
      ],
      "stateMutability": "view",
      "type": "function"
    },
    {
      "inputs": [],
      "name": "infoName",
      "outputs": [
        {
          "internalType": "string",
          "name": "",
          "type": "string"
        }
      ],
      "stateMutability": "view",
      "type": "function"
    },
    {
      "inputs": [],
      "name": "redstoneOracleData",
      "outputs": [
        {
          "internalType": "uint256",
          "name": "redstoneExchangeRate_",
          "type": "uint256"
        },
        {
          "internalType": "contract IRedstoneOracle",
          "name": "redstoneOracle_",
          "type": "address"
        },
        {
          "internalType": "bool",
          "name": "redstoneInvertRate_",
          "type": "bool"
        }
      ],
      "stateMutability": "view",
      "type": "function"
    }
  ],
  "transactionHash": "0x5fc9fd696513b2a0f89951695bc3a2e7e3f9c5c3b4e1b1e9ea6fb80824b49e57",
  "args": [
    "USD for 1 ETH",
    1,
    {
      "hops": 1,
      "feed1": {
        "feed": "0x5f4eC3Df9cbd43714FE2740f5E3616155c5b8419",
        "invertRate": false,
        "token0Decimals": 18
      },
      "feed2": {
        "feed": "0x0000000000000000000000000000000000000000",
        "invertRate": false,
        "token0Decimals": 0
      },
      "feed3": {
        "feed": "0x0000000000000000000000000000000000000000",
        "invertRate": false,
        "token0Decimals": 0
      }
    },
    {
      "oracle": "0x0000000000000000000000000000000000000000",
      "invertRate": false,
      "token0Decimals": 0
    }
  ],
  "numDeployments": 1,
  "solcInputHash": "19beb170e1c861af78d776de54ec393b",
  "bytecode": "0x6102e060405261dead610120523480156200001957600080fd5b506040516200195b3803806200195b8339810160408190526200003c91620005d6565b805183908390839082906001600160a01b0316156200005c578162000088565b6040518060600160405280610120516001600160a01b0316815260200160001515815260200160018152505b886020815111806200009957508051155b15620000c15760405163c82fc46560e01b815261ea6a60048201526024015b60405180910390fd5b6020015160805280516001600160a01b03161580620000e257506040810151155b15620001065760405163c82fc46560e01b815261fa016004820152602401620000b8565b80516001600160a01b0390811660a0526020820151151560c0526101205182518216911614620001555760408101516200014290601b620006de565b6200014f90600a620007f7565b62000158565b60015b60e0526101205181516001600160a01b03908116911614620001995760408101516200018690601b6200080c565b6200019390600a620007f7565b6200019c565b60015b61010052508051600160ff9091161080620001be57506003816000015160ff16115b80620001e757506020810151516001600160a01b03161580620001e75750602081015160400151155b806200022257506001816000015160ff161180156200022257506040810151516001600160a01b031615806200022257506040808201510151155b806200025e57506002816000015160ff161180156200025e57506060810151516001600160a01b031615806200025e5750606081015160400151155b15620002825760405163c82fc46560e01b815261ee496004820152602401620000b8565b60208082018051516001600160a01b039081166101405260408085018051518316610160526060860180515190931661018052835185015115156101a0525184015115156101c05290519092015115156101e052510151620002e690601b620006de565b620002f390600a620007f7565b610200526020810151604001516200030d90601b6200080c565b6200031a90600a620007f7565b610220528051600160ff909116116200033557600162000357565b60408082015101516200034a90601b620006de565b6200035790600a620007f7565b610240528051600160ff909116116200037257600162000394565b60408082015101516200038790601b6200080c565b6200039490600a620007f7565b610260528051600260ff90911611620003af576001620003d2565b606081015160400151620003c590601b620006de565b620003d290600a620007f7565b610280528051600260ff90911611620003ed57600162000410565b6060810151604001516200040390601b6200080c565b6200041090600a620007f7565b6102a05250600160ff841610806200042b575060038360ff16115b156200044f5760405163c82fc46560e01b815261fde96004820152602401620000b8565b505060ff166102c052506200082292505050565b634e487b7160e01b600052604160045260246000fd5b604051601f8201601f191681016001600160401b0381118282101715620004a457620004a462000463565b604052919050565b805160ff81168114620004be57600080fd5b919050565b600060608284031215620004d657600080fd5b604051606081016001600160401b0381118282101715620004fb57620004fb62000463565b604052825190915081906001600160a01b03811681146200051b57600080fd5b8152602083015180151581146200053157600080fd5b6020820152604092830151920191909152919050565b600061014082840312156200055b57600080fd5b604051608081016001600160401b038111828210171562000580576200058062000463565b6040529050806200059183620004ac565b8152620005a28460208501620004c3565b6020820152620005b68460808501620004c3565b6040820152620005ca8460e08501620004c3565b60608201525092915050565b6000806000806101e08587031215620005ee57600080fd5b84516001600160401b03808211156200060657600080fd5b818701915087601f8301126200061b57600080fd5b81518181111562000630576200063062000463565b6020915062000648601f8201601f1916830162000479565b81815289838386010111156200065d57600080fd5b60005b828110156200067d57848101840151828201850152830162000660565b506000838383010152809750505062000698818801620004ac565b94505050620006ab866040870162000547565b9150620006bd866101808701620004c3565b905092959194509250565b634e487b7160e01b600052601160045260246000fd5b81810381811115620006f457620006f4620006c8565b92915050565b600181815b808511156200073b5781600019048211156200071f576200071f620006c8565b808516156200072d57918102915b93841c9390800290620006ff565b509250929050565b6000826200075457506001620006f4565b816200076357506000620006f4565b81600181146200077c57600281146200078757620007a7565b6001915050620006f4565b60ff8411156200079b576200079b620006c8565b50506001821b620006f4565b5060208310610133831016604e8410600b8410161715620007cc575081810a620006f4565b620007d88383620006fa565b8060001904821115620007ef57620007ef620006c8565b029392505050565b600062000805838362000743565b9392505050565b80820180821115620006f457620006f4620006c8565b60805160a05160c05160e05161010051610120516101405161016051610180516101a0516101c0516101e05161020051610220516102405161026051610280516102a0516102c051610fa5620009b660003960008181608901528181610b8f0152610bc80152600081816104350152610960015260008181610414015261093f0152600081816103430152610869015260008181610322015261084801526000818161025901526107860152600081816102380152610765015260008181610392015281816103f3015261091e0152600081816102a00152818161030101526108270152600081816101d2015281816102170152610744015260008181610371015281816103d2015281816108ad01526108fd01526000818161027f015281816102e0015281816107b601526108060152600081816101b1015281816101f601526107230152600061048801526000610b3601526000610b6501526000818161052f0152610b0c0152600081816104bf0152818161050c0152610a5d0152600081816105ba015261067f0152610fa56000f3fe608060405234801561001057600080fd5b506004361061007d5760003560e01c80638e7bfbc01161005b5780638e7bfbc014610165578063abd5f95d1461017b578063e6aa216c14610190578063f3190c891461016557600080fd5b80633437eac4146100825780637557ca41146100b857806388c352091461012b575b600080fd5b60405160ff7f00000000000000000000000000000000000000000000000000000000000000001681526020015b60405180910390f35b6100c0610198565b604080519a8b5273ffffffffffffffffffffffffffffffffffffffff998a1660208c0152971515978a01979097526060890195909552928616608088015290151560a087015260c086015290921660e0840152901515610100830152610120820152610140016100af565b610133610481565b6040805193845273ffffffffffffffffffffffffffffffffffffffff90921660208401521515908201526060016100af565b61016d610554565b6040519081526020016100af565b6101836105a8565b6040516100af9190610c2f565b61016d61070d565b6000806000806000806000806000806101af61071c565b7f00000000000000000000000000000000000000000000000000000000000000007f000000000000000000000000000000000000000000000000000000000000000061027d7f00000000000000000000000000000000000000000000000000000000000000007f00000000000000000000000000000000000000000000000000000000000000007f00000000000000000000000000000000000000000000000000000000000000007f0000000000000000000000000000000000000000000000000000000000000000610998565b7f00000000000000000000000000000000000000000000000000000000000000007f000000000000000000000000000000000000000000000000000000000000000073ffffffffffffffffffffffffffffffffffffffff82161561036c576103677f00000000000000000000000000000000000000000000000000000000000000007f00000000000000000000000000000000000000000000000000000000000000007f00000000000000000000000000000000000000000000000000000000000000007f0000000000000000000000000000000000000000000000000000000000000000610998565b61036f565b60005b7f00000000000000000000000000000000000000000000000000000000000000007f000000000000000000000000000000000000000000000000000000000000000073ffffffffffffffffffffffffffffffffffffffff82161561045e576104597f00000000000000000000000000000000000000000000000000000000000000007f00000000000000000000000000000000000000000000000000000000000000007f00000000000000000000000000000000000000000000000000000000000000007f0000000000000000000000000000000000000000000000000000000000000000610998565b610461565b60005b995099509950995099509950995099509950995090919293949596979899565b60008060007f000000000000000000000000000000000000000000000000000000000000000073ffffffffffffffffffffffffffffffffffffffff167f000000000000000000000000000000000000000000000000000000000000000073ffffffffffffffffffffffffffffffffffffffff161461050657610501610a59565b610509565b60005b937f000000000000000000000000000000000000000000000000000000000000000093507f000000000000000000000000000000000000000000000000000000000000000092509050565b600061055e610b8a565b50905060008190036105a5576040517fc82fc465000000000000000000000000000000000000000000000000000000008152620101d1600482015260240160405180910390fd5b90565b606060005b60208110801561061357507f000000000000000000000000000000000000000000000000000000000000000081602081106105ea576105ea610c9b565b1a60f81b7fff000000000000000000000000000000000000000000000000000000000000001615155b1561062a578061062281610cf9565b9150506105ad565b60008167ffffffffffffffff81111561064557610645610d31565b6040519080825280601f01601f19166020018201604052801561066f576020820181803683370190505b50905060005b82811015610706577f000000000000000000000000000000000000000000000000000000000000000081602081106106af576106af610c9b565b1a60f81b8282815181106106c5576106c5610c9b565b60200101907effffffffffffffffffffffffffffffffffffffffffffffffffffffffffffff1916908160001a905350806106fe81610cf9565b915050610675565b5092915050565b6000610717610554565b905090565b60006107aa7f00000000000000000000000000000000000000000000000000000000000000007f00000000000000000000000000000000000000000000000000000000000000007f00000000000000000000000000000000000000000000000000000000000000007f0000000000000000000000000000000000000000000000000000000000000000610998565b90508015806107ed57507f000000000000000000000000000000000000000000000000000000000000000073ffffffffffffffffffffffffffffffffffffffff16155b156107f55790565b610801601b600a610e82565b61088d7f00000000000000000000000000000000000000000000000000000000000000007f00000000000000000000000000000000000000000000000000000000000000007f00000000000000000000000000000000000000000000000000000000000000007f0000000000000000000000000000000000000000000000000000000000000000610998565b6108979083610e95565b6108a19190610eac565b90508015806108e457507f000000000000000000000000000000000000000000000000000000000000000073ffffffffffffffffffffffffffffffffffffffff16155b156108ec5790565b6108f8601b600a610e82565b6109847f00000000000000000000000000000000000000000000000000000000000000007f00000000000000000000000000000000000000000000000000000000000000007f00000000000000000000000000000000000000000000000000000000000000007f0000000000000000000000000000000000000000000000000000000000000000610998565b61098e9083610e95565b6107179190610eac565b60008473ffffffffffffffffffffffffffffffffffffffff1663feaf968c6040518163ffffffff1660e01b815260040160a060405180830381865afa925050508015610a1f575060408051601f3d9081017fffffffffffffffffffffffffffffffffffffffffffffffffffffffffffffffe0168201909252610a1c91810190610f06565b60015b610a2b57506000610a51565b8815610a4757610a3b8488610eac565b95505050505050610a51565b610a3b8885610e95565b949350505050565b60007f000000000000000000000000000000000000000000000000000000000000000073ffffffffffffffffffffffffffffffffffffffff1663e6aa216c6040518163ffffffff1660e01b8152600401602060405180830381865afa925050508015610b00575060408051601f3d9081017fffffffffffffffffffffffffffffffffffffffffffffffffffffffffffffffe0168201909252610afd91810190610f56565b60015b610b0a5750600090565b7f000000000000000000000000000000000000000000000000000000000000000015610b6057610b5a817f0000000000000000000000000000000000000000000000000000000000000000610eac565b91505090565b610b5a7f000000000000000000000000000000000000000000000000000000000000000082610e95565b6000807f000000000000000000000000000000000000000000000000000000000000000060ff16600103610bc657610bc061071c565b91509091565b7f000000000000000000000000000000000000000000000000000000000000000060ff16600203610c1257610bf961071c565b915081600003610c0e57506001610bc0610a59565b9091565b610c1a610a59565b915081600003610c0e57506001610bc061071c565b600060208083528351808285015260005b81811015610c5c57858101830151858201604001528201610c40565b5060006040828601015260407fffffffffffffffffffffffffffffffffffffffffffffffffffffffffffffffe0601f8301168501019250505092915050565b7f4e487b7100000000000000000000000000000000000000000000000000000000600052603260045260246000fd5b7f4e487b7100000000000000000000000000000000000000000000000000000000600052601160045260246000fd5b60007fffffffffffffffffffffffffffffffffffffffffffffffffffffffffffffffff8203610d2a57610d2a610cca565b5060010190565b7f4e487b7100000000000000000000000000000000000000000000000000000000600052604160045260246000fd5b600181815b80851115610db957817fffffffffffffffffffffffffffffffffffffffffffffffffffffffffffffffff04821115610d9f57610d9f610cca565b80851615610dac57918102915b93841c9390800290610d65565b509250929050565b600082610dd057506001610e7c565b81610ddd57506000610e7c565b8160018114610df35760028114610dfd57610e19565b6001915050610e7c565b60ff841115610e0e57610e0e610cca565b50506001821b610e7c565b5060208310610133831016604e8410600b8410161715610e3c575081810a610e7c565b610e468383610d60565b807fffffffffffffffffffffffffffffffffffffffffffffffffffffffffffffffff04821115610e7857610e78610cca565b0290505b92915050565b6000610e8e8383610dc1565b9392505050565b8082028115828204841417610e7c57610e7c610cca565b600082610ee2577f4e487b7100000000000000000000000000000000000000000000000000000000600052601260045260246000fd5b500490565b805169ffffffffffffffffffff81168114610f0157600080fd5b919050565b600080600080600060a08688031215610f1e57600080fd5b610f2786610ee7565b9450602086015193506040860151925060608601519150610f4a60808701610ee7565b90509295509295909350565b600060208284031215610f6857600080fd5b505191905056fea2646970667358221220d6cf80dbe2214d5892daf6dd0149d89e578243f3c065e8695f5437befc453cd964736f6c63430008150033",
  "devdoc": {
    "kind": "dev",
    "methods": {
      "constructor": {
        "params": {
          "chainlinkParams_": "chainlink Oracle constructor params struct.",
          "infoName_": "Oracle identify helper name.",
          "mainSource_": "which oracle to use as main source: 1 = Chainlink, 2 = Redstone (other one is fallback).",
          "redstoneOracle_": "Redstone Oracle data. (address can be set to zero address if using Chainlink only)"
        }
      },
      "getExchangeRate()": {
        "details": "Deprecated. Use `getExchangeRateOperate()` and `getExchangeRateLiquidate()` instead. Only implemented for      backwards compatibility."
      }
    },
    "title": "Chainlink / Redstone Oracle (with fallback)",
    "version": 1
  },
  "userdoc": {
    "kind": "user",
    "methods": {
      "FALLBACK_ORACLE_MAIN_SOURCE()": {
        "notice": "which oracle to use as main source:          - 1 = Chainlink ONLY (no fallback)          - 2 = Chainlink with Redstone Fallback          - 3 = Redstone with Chainlink Fallback"
      },
      "chainlinkOracleData()": {
        "notice": "returns all Chainlink oracle related data as utility for easy off-chain use / block explorer in a single view method"
      },
      "constructor": {
        "notice": "sets the main source, Chainlink Oracle and Redstone Oracle data."
      },
      "getExchangeRateLiquidate()": {
        "notice": "Get the `exchangeRate_` between the underlying asset and the peg asset in 1e27 for liquidations"
      },
      "getExchangeRateOperate()": {
        "notice": "Get the `exchangeRate_` between the underlying asset and the peg asset in 1e27 for operates"
      },
      "infoName()": {
        "notice": "helper string to easily identify the oracle. E.g. token symbols"
      },
      "redstoneOracleData()": {
        "notice": "returns all Redstone oracle related data as utility for easy off-chain use / block explorer in a single view method"
      }
    },
    "notice": "Gets the exchange rate between the underlying asset and the peg asset by using:          the price from a Chainlink price feed or a Redstone Oracle with one of them being used as main source and          the other one acting as a fallback if the main source fails for any reason. Reverts if fetched rate is 0.",
    "version": 1
  },
  "storageLayout": {
    "storage": [],
    "types": null
  }
}