{
  "address": "0x47b6e2c8a0cB072198f17ccC6C7634dCc7126c3E",
  "abi": [
    {
      "inputs": [
        {
          "components": [
            {
              "internalType": "address",
              "name": "liquidity",
              "type": "address"
            },
            {
              "internalType": "address",
              "name": "factory",
              "type": "address"
            },
            {
              "internalType": "address",
              "name": "operateImplementation",
              "type": "address"
            },
            {
              "internalType": "address",
              "name": "adminImplementation",
              "type": "address"
            },
            {
              "internalType": "address",
              "name": "secondaryImplementation",
              "type": "address"
            },
            {
              "internalType": "address",
              "name": "deployer",
              "type": "address"
            },
            {
              "internalType": "address",
              "name": "supply",
              "type": "address"
            },
            {
              "internalType": "address",
              "name": "borrow",
              "type": "address"
            },
            {
              "components": [
                {
                  "internalType": "address",
                  "name": "token0",
                  "type": "address"
                },
                {
                  "internalType": "address",
                  "name": "token1",
                  "type": "address"
                }
              ],
              "internalType": "struct Structs.Tokens",
              "name": "supplyToken",
              "type": "tuple"
            },
            {
              "components": [
                {
                  "internalType": "address",
                  "name": "token0",
                  "type": "address"
                },
                {
                  "internalType": "address",
                  "name": "token1",
                  "type": "address"
                }
              ],
              "internalType": "struct Structs.Tokens",
              "name": "borrowToken",
              "type": "tuple"
            },
            {
              "internalType": "uint256",
              "name": "vaultId",
              "type": "uint256"
            },
            {
              "internalType": "uint256",
              "name": "vaultType",
              "type": "uint256"
            },
            {
              "internalType": "bytes32",
              "name": "supplyExchangePriceSlot",
              "type": "bytes32"
            },
            {
              "internalType": "bytes32",
              "name": "borrowExchangePriceSlot",
              "type": "bytes32"
            },
            {
              "internalType": "bytes32",
              "name": "userSupplySlot",
              "type": "bytes32"
            },
            {
              "internalType": "bytes32",
              "name": "userBorrowSlot",
              "type": "bytes32"
            }
          ],
          "internalType": "struct Structs.ConstantViews",
          "name": "constants_",
          "type": "tuple"
        }
      ],
      "stateMutability": "nonpayable",
      "type": "constructor"
    },
    {
      "inputs": [
        {
          "internalType": "uint256",
          "name": "colLiquidated",
          "type": "uint256"
        },
        {
          "internalType": "uint256",
          "name": "debtLiquidated",
          "type": "uint256"
        }
      ],
      "name": "FluidLiquidateResult",
      "type": "error"
    },
    {
      "inputs": [
        {
          "internalType": "uint256",
          "name": "errorId_",
          "type": "uint256"
        }
      ],
      "name": "FluidLiquidityCalcsError",
      "type": "error"
    },
    {
      "inputs": [
        {
          "internalType": "uint256",
          "name": "errorId_",
          "type": "uint256"
        }
      ],
      "name": "FluidSafeTransferError",
      "type": "error"
    },
    {
      "inputs": [
        {
          "internalType": "uint256",
          "name": "errorId_",
          "type": "uint256"
        }
      ],
      "name": "FluidVaultError",
      "type": "error"
    },
    {
      "anonymous": false,
      "inputs": [
        {
          "indexed": false,
          "internalType": "uint256",
          "name": "colAbsorbedRaw_",
          "type": "uint256"
        },
        {
          "indexed": false,
          "internalType": "uint256",
          "name": "debtAbsorbedRaw_",
          "type": "uint256"
        }
      ],
      "name": "LogAbsorb",
      "type": "event"
    },
    {
      "anonymous": false,
      "inputs": [
        {
          "indexed": false,
          "internalType": "address",
          "name": "liquidator_",
          "type": "address"
        },
        {
          "indexed": false,
          "internalType": "uint256",
          "name": "colAmt_",
          "type": "uint256"
        },
        {
          "indexed": false,
          "internalType": "uint256",
          "name": "debtAmt_",
          "type": "uint256"
        },
        {
          "indexed": false,
          "internalType": "address",
          "name": "to_",
          "type": "address"
        }
      ],
      "name": "LogLiquidate",
      "type": "event"
    },
    {
      "anonymous": false,
      "inputs": [
        {
          "indexed": false,
          "internalType": "address",
          "name": "user_",
          "type": "address"
        },
        {
          "indexed": false,
          "internalType": "uint256",
          "name": "nftId_",
          "type": "uint256"
        },
        {
          "indexed": false,
          "internalType": "int256",
          "name": "colAmt_",
          "type": "int256"
        },
        {
          "indexed": false,
          "internalType": "int256",
          "name": "debtAmt_",
          "type": "int256"
        },
        {
          "indexed": false,
          "internalType": "address",
          "name": "to_",
          "type": "address"
        }
      ],
      "name": "LogOperate",
      "type": "event"
    },
    {
      "anonymous": false,
      "inputs": [
        {
          "indexed": false,
          "internalType": "int256",
          "name": "colAmt_",
          "type": "int256"
        },
        {
          "indexed": false,
          "internalType": "int256",
          "name": "debtAmt_",
          "type": "int256"
        }
      ],
      "name": "LogRebalance",
      "type": "event"
    },
    {
      "anonymous": false,
      "inputs": [
        {
          "indexed": false,
          "internalType": "uint256",
          "name": "supplyExPrice_",
          "type": "uint256"
        },
        {
          "indexed": false,
          "internalType": "uint256",
          "name": "borrowExPrice_",
          "type": "uint256"
        }
      ],
      "name": "LogUpdateExchangePrice",
      "type": "event"
    },
    {
      "stateMutability": "nonpayable",
      "type": "fallback"
    },
    {
      "inputs": [],
      "name": "LIQUIDITY",
      "outputs": [
        {
          "internalType": "contract IFluidLiquidity",
          "name": "",
          "type": "address"
        }
      ],
      "stateMutability": "view",
      "type": "function"
    },
    {
      "inputs": [],
      "name": "TYPE",
      "outputs": [
        {
          "internalType": "uint256",
          "name": "",
          "type": "uint256"
        }
      ],
      "stateMutability": "view",
      "type": "function"
    },
    {
      "inputs": [],
      "name": "VAULT_FACTORY",
      "outputs": [
        {
          "internalType": "contract IFluidVaultFactory",
          "name": "",
          "type": "address"
        }
      ],
      "stateMutability": "view",
      "type": "function"
    },
    {
      "inputs": [],
      "name": "VAULT_ID",
      "outputs": [
        {
          "internalType": "uint256",
          "name": "",
          "type": "uint256"
        }
      ],
      "stateMutability": "view",
      "type": "function"
    },
    {
      "inputs": [],
      "name": "constantsView",
      "outputs": [
        {
          "components": [
            {
              "internalType": "address",
              "name": "liquidity",
              "type": "address"
            },
            {
              "internalType": "address",
              "name": "factory",
              "type": "address"
            },
            {
              "internalType": "address",
              "name": "operateImplementation",
              "type": "address"
            },
            {
              "internalType": "address",
              "name": "adminImplementation",
              "type": "address"
            },
            {
              "internalType": "address",
              "name": "secondaryImplementation",
              "type": "address"
            },
            {
              "internalType": "address",
              "name": "deployer",
              "type": "address"
            },
            {
              "internalType": "address",
              "name": "supply",
              "type": "address"
            },
            {
              "internalType": "address",
              "name": "borrow",
              "type": "address"
            },
            {
              "components": [
                {
                  "internalType": "address",
                  "name": "token0",
                  "type": "address"
                },
                {
                  "internalType": "address",
                  "name": "token1",
                  "type": "address"
                }
              ],
              "internalType": "struct Structs.Tokens",
              "name": "supplyToken",
              "type": "tuple"
            },
            {
              "components": [
                {
                  "internalType": "address",
                  "name": "token0",
                  "type": "address"
                },
                {
                  "internalType": "address",
                  "name": "token1",
                  "type": "address"
                }
              ],
              "internalType": "struct Structs.Tokens",
              "name": "borrowToken",
              "type": "tuple"
            },
            {
              "internalType": "uint256",
              "name": "vaultId",
              "type": "uint256"
            },
            {
              "internalType": "uint256",
              "name": "vaultType",
              "type": "uint256"
            },
            {
              "internalType": "bytes32",
              "name": "supplyExchangePriceSlot",
              "type": "bytes32"
            },
            {
              "internalType": "bytes32",
              "name": "borrowExchangePriceSlot",
              "type": "bytes32"
            },
            {
              "internalType": "bytes32",
              "name": "userSupplySlot",
              "type": "bytes32"
            },
            {
              "internalType": "bytes32",
              "name": "userBorrowSlot",
              "type": "bytes32"
            }
          ],
          "internalType": "struct Structs.ConstantViews",
          "name": "constantsView_",
          "type": "tuple"
        }
      ],
      "stateMutability": "view",
      "type": "function"
    },
    {
      "inputs": [
        {
          "internalType": "address",
          "name": "token_",
          "type": "address"
        },
        {
          "internalType": "uint256",
          "name": "amount_",
          "type": "uint256"
        }
      ],
      "name": "dexCallback",
      "outputs": [],
      "stateMutability": "nonpayable",
      "type": "function"
    },
    {
      "inputs": [
        {
          "internalType": "int256",
          "name": "positionTick_",
          "type": "int256"
        },
        {
          "internalType": "uint256",
          "name": "positionTickId_",
          "type": "uint256"
        },
        {
          "internalType": "uint256",
          "name": "positionRawDebt_",
          "type": "uint256"
        },
        {
          "internalType": "uint256",
          "name": "tickData_",
          "type": "uint256"
        }
      ],
      "name": "fetchLatestPosition",
      "outputs": [
        {
          "internalType": "int256",
          "name": "",
          "type": "int256"
        },
        {
          "internalType": "uint256",
          "name": "",
          "type": "uint256"
        },
        {
          "internalType": "uint256",
          "name": "positionRawCol_",
          "type": "uint256"
        },
        {
          "internalType": "uint256",
          "name": "branchId_",
          "type": "uint256"
        },
        {
          "internalType": "uint256",
          "name": "branchData_",
          "type": "uint256"
        }
      ],
      "stateMutability": "view",
      "type": "function"
    },
    {
      "inputs": [
        {
          "internalType": "uint256",
          "name": "token0DebtAmt_",
          "type": "uint256"
        },
        {
          "internalType": "uint256",
          "name": "token1DebtAmt_",
          "type": "uint256"
        },
        {
          "internalType": "uint256",
          "name": "debtSharesMin_",
          "type": "uint256"
        },
        {
          "internalType": "uint256",
          "name": "colPerUnitDebt_",
          "type": "uint256"
        },
        {
          "internalType": "address",
          "name": "to_",
          "type": "address"
        },
        {
          "internalType": "bool",
          "name": "absorb_",
          "type": "bool"
        }
      ],
      "name": "liquidate",
      "outputs": [
        {
          "internalType": "uint256",
          "name": "actualDebtShares_",
          "type": "uint256"
        },
        {
          "internalType": "uint256",
          "name": "actualCol_",
          "type": "uint256"
        }
      ],
      "stateMutability": "payable",
      "type": "function"
    },
    {
      "inputs": [
        {
          "internalType": "uint256",
          "name": "debtShares_",
          "type": "uint256"
        },
        {
          "internalType": "uint256",
          "name": "token0DebtAmtPerUnitShares_",
          "type": "uint256"
        },
        {
          "internalType": "uint256",
          "name": "token1DebtAmtPerUnitShares_",
          "type": "uint256"
        },
        {
          "internalType": "uint256",
          "name": "colPerUnitDebt_",
          "type": "uint256"
        },
        {
          "internalType": "address",
          "name": "to_",
          "type": "address"
        },
        {
          "internalType": "bool",
          "name": "absorb_",
          "type": "bool"
        }
      ],
      "name": "liquidatePerfect",
      "outputs": [
        {
          "internalType": "uint256",
          "name": "actualDebtShares_",
          "type": "uint256"
        },
        {
          "internalType": "uint256",
          "name": "token0Debt_",
          "type": "uint256"
        },
        {
          "internalType": "uint256",
          "name": "token1Debt_",
          "type": "uint256"
        },
        {
          "internalType": "uint256",
          "name": "actualCol_",
          "type": "uint256"
        }
      ],
      "stateMutability": "payable",
      "type": "function"
    },
    {
      "inputs": [
        {
          "internalType": "address",
          "name": "token_",
          "type": "address"
        },
        {
          "internalType": "uint256",
          "name": "amount_",
          "type": "uint256"
        },
        {
          "internalType": "bytes",
          "name": "data_",
          "type": "bytes"
        }
      ],
      "name": "liquidityCallback",
      "outputs": [],
      "stateMutability": "nonpayable",
      "type": "function"
    },
    {
      "inputs": [
        {
          "internalType": "uint256",
          "name": "nftId_",
          "type": "uint256"
        },
        {
          "internalType": "int256",
          "name": "newCol_",
          "type": "int256"
        },
        {
          "internalType": "int256",
          "name": "newDebtToken0_",
          "type": "int256"
        },
        {
          "internalType": "int256",
          "name": "newDebtToken1_",
          "type": "int256"
        },
        {
          "internalType": "int256",
          "name": "debtSharesMinMax_",
          "type": "int256"
        },
        {
          "internalType": "address",
          "name": "to_",
          "type": "address"
        }
      ],
      "name": "operate",
      "outputs": [
        {
          "internalType": "uint256",
          "name": "",
          "type": "uint256"
        },
        {
          "internalType": "int256",
          "name": "",
          "type": "int256"
        },
        {
          "internalType": "int256",
          "name": "",
          "type": "int256"
        }
      ],
      "stateMutability": "payable",
      "type": "function"
    },
    {
      "inputs": [
        {
          "internalType": "uint256",
          "name": "nftId_",
          "type": "uint256"
        },
        {
          "internalType": "int256",
          "name": "newCol_",
          "type": "int256"
        },
        {
          "internalType": "int256",
          "name": "perfectDebtShares_",
          "type": "int256"
        },
        {
          "internalType": "int256",
          "name": "debtToken0MinMax_",
          "type": "int256"
        },
        {
          "internalType": "int256",
          "name": "debtToken1MinMax_",
          "type": "int256"
        },
        {
          "internalType": "address",
          "name": "to_",
          "type": "address"
        }
      ],
      "name": "operatePerfect",
      "outputs": [
        {
          "internalType": "uint256",
          "name": "",
          "type": "uint256"
        },
        {
          "internalType": "int256[]",
          "name": "r_",
          "type": "int256[]"
        }
      ],
      "stateMutability": "payable",
      "type": "function"
    },
    {
      "inputs": [
        {
          "internalType": "bytes32",
          "name": "slot_",
          "type": "bytes32"
        }
      ],
      "name": "readFromStorage",
      "outputs": [
        {
          "internalType": "uint256",
          "name": "result_",
          "type": "uint256"
        }
      ],
      "stateMutability": "view",
      "type": "function"
    },
    {
      "inputs": [
        {
          "internalType": "int256",
          "name": "",
          "type": "int256"
        },
        {
          "internalType": "int256",
          "name": "",
          "type": "int256"
        },
        {
          "internalType": "int256",
          "name": "",
          "type": "int256"
        },
        {
          "internalType": "int256",
          "name": "",
          "type": "int256"
        }
      ],
      "name": "rebalance",
      "outputs": [
        {
          "internalType": "int256",
          "name": "supplyAmt_",
          "type": "int256"
        },
        {
          "internalType": "int256",
          "name": "borrowAmt_",
          "type": "int256"
        }
      ],
      "stateMutability": "payable",
      "type": "function"
    },
    {
      "inputs": [
        {
          "internalType": "uint256",
          "name": "debtAmt_",
          "type": "uint256"
        },
        {
          "internalType": "bool",
          "name": "absorb_",
          "type": "bool"
        }
      ],
      "name": "simulateLiquidate",
      "outputs": [],
      "stateMutability": "nonpayable",
      "type": "function"
    },
    {
      "inputs": [
        {
          "internalType": "uint256",
          "name": "vaultVariables2_",
          "type": "uint256"
        }
      ],
      "name": "updateExchangePrices",
      "outputs": [
        {
          "internalType": "uint256",
          "name": "liqSupplyExPrice_",
          "type": "uint256"
        },
        {
          "internalType": "uint256",
          "name": "liqBorrowExPrice_",
          "type": "uint256"
        },
        {
          "internalType": "uint256",
          "name": "vaultSupplyExPrice_",
          "type": "uint256"
        },
        {
          "internalType": "uint256",
          "name": "vaultBorrowExPrice_",
          "type": "uint256"
        }
      ],
      "stateMutability": "view",
      "type": "function"
    },
    {
      "inputs": [],
      "name": "updateExchangePricesOnStorage",
      "outputs": [
        {
          "internalType": "uint256",
          "name": "liqSupplyExPrice_",
          "type": "uint256"
        },
        {
          "internalType": "uint256",
          "name": "liqBorrowExPrice_",
          "type": "uint256"
        },
        {
          "internalType": "uint256",
          "name": "vaultSupplyExPrice_",
          "type": "uint256"
        },
        {
          "internalType": "uint256",
          "name": "vaultBorrowExPrice_",
          "type": "uint256"
        }
      ],
      "stateMutability": "nonpayable",
      "type": "function"
    },
    {
      "stateMutability": "payable",
      "type": "receive"
    }
  ],
  "transactionHash": "0xa4c154575d0ef2a38f96a5e2820db3d3ed2daef7f66b5a691c3d4505d9585d6d",
  "args": [
    {
      "liquidity": "0x52Aa899454998Be5b000Ad077a46Bbe360F4e497",
      "factory": "0x324c5Dc1fC42c7a4D43d92df1eBA58a54d13Bf2d",
      "operateImplementation": "TODO SET AFTER EXECUTION",
      "adminImplementation": "0x076a9fe6051d66b6281e8aC26a8278330274C004",
      "secondaryImplementation": "0xf38478d055020bbC173734Dc62d88b749Eb99b59",
      "deployer": "0x4EC7b668BAF70d4A4b0FC7941a7708A07b6d45Be",
      "supply": "0x52Aa899454998Be5b000Ad077a46Bbe360F4e497",
      "borrow": "0x667701e51B4D1Ca244F17C78F7aB8744B4C99F9B",
      "supplyToken": {
        "token0": "0xcbB7C0000aB88B473b1f5aFd9ef808440eed33Bf",
        "token1": "0x0000000000000000000000000000000000000000"
      },
      "borrowToken": {
        "token0": "0xA0b86991c6218b36c1d19D4a2e9Eb0cE3606eB48",
        "token1": "0xdac17f958d2ee523a2206206994597c13d831ec7"
      },
      "vaultId": 49,
      "vaultType": "30000",
      "supplyExchangePriceSlot": "0x65712334a6cd5c4420e4fbfbf777a12bad4b6cb599c88eddb329888a71aba446",
      "borrowExchangePriceSlot": "0x0000000000000000000000000000000000000000000000000000000000000000",
      "userSupplySlot": "0x2fe40b3dbe42b75c7615e3d0dc2319931f1c80d591eb5875df20d65ca72bd4ab",
      "userBorrowSlot": "0x1fc5d6c23243a1443835cda884d5a0aea2a48cfe7fe0a4f7c1d595bc4e770ee5"
    }
  ],
  "numDeployments": 1,
  "bytecode": "0x6103006040523480156200001257600080fd5b5060405162005f4838038062005f48833981016040819052620000359162000594565b808080808080610160015161026081815250506127106102605114158015620000635750614e206102605114155b80156200007557506175306102605114155b8015620000875750619c406102605114155b15620000af576040516330090e6560e11b815261793a60048201526024015b60405180910390fd5b80516001600160a01b0390811661020052602082015181166102205260a0820151811660c0908152820151811660e090815282015181166101005261014082015161024052604082015116156200010b5780604001516200010d565b305b6001600160a01b03166101a05261026051614e201480620001325750619c4061026051145b156200014f5760c08101516001600160a01b031660805262000193565b610100810151516001600160a01b03908116608052815160c0830151821691161462000193576040516330090e6560e11b815261793a6004820152602401620000a6565b617530610260511480620001ab5750619c4061026051145b15620001c85760e08101516001600160a01b031660a0526200020c565b610120810151516001600160a01b0390811660a052815160e083015182169116146200020c576040516330090e6560e11b815261793a6004820152602401620000a6565b61010081018051516001600160a01b03908116610120908152830180515182166101609081529251602090810151831661014052905101518116610180908152830151610280526101a08301516102a0526101c0808401516102c0526101e0808501516102e0526060850151831690915260809093015116909152600080546610000000400000178155600b80546001600160a01b03191661dead17905590840151909250614e2014905080620002c95750619c40826101600151145b62000359576001600160401b03605b60e0516001600160a01b031663b5c736e4610280516040518263ffffffff1660e01b81526004016200030c91815260200190565b602060405180830381865afa1580156200032a573d6000803e3d6000fd5b505050506040513d601f19601f82011682018060405250810190620003509190620006c3565b901c1662000360565b64e8d4a510005b905060006175308361016001511480620003805750619c40836101600151145b62000411576001600160401b03609b610100516001600160a01b031663b5c736e46102a0516040518263ffffffff1660e01b8152600401620003c491815260200190565b602060405180830381865afa158015620003e2573d6000803e3d6000fd5b505050506040513d601f19601f82011682018060405250810190620004089190620006c3565b901c1662000418565b64e8d4a510005b905064e8d4a5100082108062000432575064e8d4a5100081105b1562000456576040516330090e6560e11b81526179246004820152602401620000a6565b60408301516001600160a01b031662000487576040516330090e6560e11b815261793a6004820152602401620000a6565b60401b177ce8d4a51000000000e8d4a51000000000000000000000000000000000001760085550506001805442607a1b6401ffffffff607a1b1990911617905550620006dd565b60405161020081016001600160401b03811182821017156200050057634e487b7160e01b600052604160045260246000fd5b60405290565b80516001600160a01b03811681146200051e57600080fd5b919050565b6000604082840312156200053657600080fd5b604080519081016001600160401b03811182821017156200056757634e487b7160e01b600052604160045260246000fd5b604052905080620005788362000506565b8152620005886020840162000506565b60208201525092915050565b60006102408284031215620005a857600080fd5b620005b2620004ce565b620005bd8362000506565b8152620005cd6020840162000506565b6020820152620005e06040840162000506565b6040820152620005f36060840162000506565b6060820152620006066080840162000506565b60808201526200061960a0840162000506565b60a08201526200062c60c0840162000506565b60c08201526200063f60e0840162000506565b60e0820152610100620006558582860162000523565b908201526101406200066a8585830162000523565b61012083015261018080850151828401526101a09150818501516101608401526101c080860151828501526101e09150818601518385015261020086015181850152506102208501518184015250508091505092915050565b600060208284031215620006d657600080fd5b5051919050565b60805160a05160c05160e05161010051610120516101405161016051610180516101a0516101c0516101e05161020051610220516102405161026051610280516102a0516102c0516102e05161565b620008ed6000396000611a8501526000611a5e015260008181610c8d0152611a37015260008181610a1b0152611a100152600081816105de015281816108f50152818161092001528181610b6d01528181610b98015281816119e9015281816136300152818161365b015281816137e6015261381101526000818161050801526119c20152600081816101540152818161020e015281816103eb01526117fe0152600081816104b401528181610a4501528181610cb70152818161160701528181611648015281816116f8015281816117d9015281816136f00152613838015260008181610f7f0152818161187a01526124fc0152600081816102d2015261185201526000818161082801528181610e46015261182a01526000818161199b01528181613b5901528181613e66015261412b01526000818161197501528181613b1d01528181613e2a0152613fd70152600061194701526000611921015260008181611547015281816118f201528181613ab601528181613dc301528181613f7001526140c401526000818161150801526118ca0152600081816118a201526122c90152600081816136a3015261372d01526000613874015261565b6000f3fe6080604052600436106101125760003560e01c80633202937e116100a5578063ad20750111610074578063b7791bf211610059578063b7791bf2146105aa578063bb24fe8a146105cc578063f4e7bfd11461060057610119565b8063ad2075011461056b578063b5c736e41461058b57610119565b80633202937e146104d6578063540acabc146104f65780637bae3361146105385780639410ae881461054b57610119565b8063103f2907116100e1578063103f2907146103d95780631593a34b1461043257806322348cc71461045a5780632861c7d1146104a257610119565b806302161887146103305780630931bf2d1461036a57806309f0d8cb1461038b57806310259f26146103ab57610119565b3661011957005b34801561012557600080fd5b506040517f4502d0630000000000000000000000000000000000000000000000000000000081523360048201527f000000000000000000000000000000000000000000000000000000000000000073ffffffffffffffffffffffffffffffffffffffff1690634502d06390602401602060405180830381865afa1580156101b0573d6000803e3d6000fd5b505050506040513d601f19601f820116820180604052508101906101d49190614e61565b8061028e57506040517fe04c8e5d0000000000000000000000000000000000000000000000000000000081523060048201523360248201527f000000000000000000000000000000000000000000000000000000000000000073ffffffffffffffffffffffffffffffffffffffff169063e04c8e5d90604401602060405180830381865afa15801561026a573d6000803e3d6000fd5b505050506040513d601f19601f8201168201806040525081019061028e9190614e61565b6102cd576040517f60121cca00000000000000000000000000000000000000000000000000000000815261792560048201526024015b60405180910390fd5b61032e7f00000000000000000000000000000000000000000000000000000000000000006000368080601f01602080910402602001604051908101604052809392919081815260200183838082843760009201919091525061061392505050565b005b34801561033c57600080fd5b5061034561065f565b6040805194855260208501939093529183015260608201526080015b60405180910390f35b61037d610378366004614ea0565b610780565b604051610361929190614ef5565b34801561039757600080fd5b506103456103a6366004614f43565b6108b9565b6103be6103b9366004614ea0565b610d9d565b60408051938452602084019290925290820152606001610361565b3480156103e557600080fd5b5061040d7f000000000000000000000000000000000000000000000000000000000000000081565b60405173ffffffffffffffffffffffffffffffffffffffff9091168152602001610361565b610445610440366004614f5c565b610ed8565b60408051928352602083019190915201610361565b34801561046657600080fd5b5061047a610475366004614f5c565b61100c565b604080519586526020860194909452928401919091526060830152608082015260a001610361565b3480156104ae57600080fd5b5061040d7f000000000000000000000000000000000000000000000000000000000000000081565b3480156104e257600080fd5b5061032e6104f1366004614f8e565b6112cc565b34801561050257600080fd5b5061052a7f000000000000000000000000000000000000000000000000000000000000000081565b604051908152602001610361565b610445610546366004614fbe565b611362565b34801561055757600080fd5b5061032e61056636600461500e565b6114f0565b34801561057757600080fd5b5061032e61058636600461503a565b611630565b34801561059757600080fd5b5061052a6105a6366004614f43565b5490565b3480156105b657600080fd5b506105bf611723565b60405161036191906150c3565b3480156105d857600080fd5b5061052a7f000000000000000000000000000000000000000000000000000000000000000081565b61034561060e366004614fbe565b611aad565b6060600080835160208501865af43d6040519250601f19601f6020830101168301604052808352806000602085013e81156001810361065657816000803e816000fd5b50505092915050565b6000806000806106706001546108b9565b9296509094509250905067ffffffffffffffff841180610697575067ffffffffffffffff83115b806106a9575067ffffffffffffffff82115b806106bb575067ffffffffffffffff81115b156106f6576040517f60121cca00000000000000000000000000000000000000000000000000000000815261792d60048201526024016102c4565b604083811b8517608084901b1760c083901b17600855600180547ffffffffffffffffffffffffff800000003ffffffffffffffffffffffffffffff1642607a1b179055517fcde545703e0372175cadfff811d67c32910c3dcb33199679b3271c4106afdf9a906107729084908490918252602082015260400190565b60405180910390a190919293565b600b5460009060609073ffffffffffffffffffffffffffffffffffffffff1661dead146107dd576040517f60121cca00000000000000000000000000000000000000000000000000000000815261793d60048201526024016102c4565b600b80547fffffffffffffffffffffffff00000000000000000000000000000000000000001633179055604080516020601f36908101829004820283018201909352828252610869927f00000000000000000000000000000000000000000000000000000000000000009291600091908190840183828082843760009201919091525061061392505050565b80602001905181019061087c91906152ea565b91509150600b80547fffffffffffffffffffffffff00000000000000000000000000000000000000001661dead1790559097909650945050505050565b60085460009081908190819067ffffffffffffffff80821690604083901c16836108ee607a8a901c6401ffffffff1642615401565b9050614e207f000000000000000000000000000000000000000000000000000000000000000014806109415750619c407f0000000000000000000000000000000000000000000000000000000000000000145b156109f35764e8d4a51000975067ffffffffffffffff608085901c169550886001166001036109b25761097a6301e13380612710615414565b60018a901c617fff1661098d8389615414565b6109979190615414565b6109a1919061545a565b6109ab9087615495565b9550610b68565b6109c26301e13380612710615414565b60018a901c617fff166109d58389615414565b6109df9190615414565b6109e9919061545a565b6109ab9087615401565b6040517fb5c736e40000000000000000000000000000000000000000000000000000000081527f00000000000000000000000000000000000000000000000000000000000000006004820152610acb907f000000000000000000000000000000000000000000000000000000000000000073ffffffffffffffffffffffffffffffffffffffff169063b5c736e4906024015b602060405180830381865afa158015610aa2573d6000803e3d6000fd5b505050506040513d601f19601f82011682018060405250810190610ac691906154a8565b611c23565b50975082881015610b0c576040517f60121cca00000000000000000000000000000000000000000000000000000000815261793260048201526024016102c4565b61271061ffff8a16670de0b6b3a7640000858b670de0b6b3a76400000281610b3657610b3661542b565b04030281610b4657610b4661542b565b670de0b6b3a7640000919004810167ffffffffffffffff608087901c16020495505b6175307f00000000000000000000000000000000000000000000000000000000000000001480610bb95750619c407f0000000000000000000000000000000000000000000000000000000000000000145b15610c655764e8d4a51000965060c084901c9450600160108a901c81169003610c2457610bec6301e13380612710615414565b60118a901c617fff16610bff8388615414565b610c099190615414565b610c13919061545a565b610c1d9086615495565b9450610d92565b610c346301e13380612710615414565b60118a901c617fff16610c478388615414565b610c519190615414565b610c5b919061545a565b610c1d9086615401565b6040517fb5c736e40000000000000000000000000000000000000000000000000000000081527f00000000000000000000000000000000000000000000000000000000000000006004820152610cfb907f000000000000000000000000000000000000000000000000000000000000000073ffffffffffffffffffffffffffffffffffffffff169063b5c736e490602401610a85565b97505081871015610d3c576040517f60121cca00000000000000000000000000000000000000000000000000000000815261793260048201526024016102c4565b61271061ffff60108b901c16670de0b6b3a7640000848a670de0b6b3a76400000281610d6a57610d6a61542b565b04030281610d7a57610d7a61542b565b670de0b6b3a7640000919004810160c086901c020494505b505050509193509193565b600b546000908190819073ffffffffffffffffffffffffffffffffffffffff1661dead14610dfb576040517f60121cca00000000000000000000000000000000000000000000000000000000815261793d60048201526024016102c4565b600b80547fffffffffffffffffffffffff00000000000000000000000000000000000000001633179055604080516020601f36908101829004820283018201909352828252610e87927f00000000000000000000000000000000000000000000000000000000000000009291600091908190840183828082843760009201919091525061061392505050565b806020019051810190610e9a91906154c1565b600b80547fffffffffffffffffffffffff00000000000000000000000000000000000000001661dead179055919b909a509098509650505050505050565b600b54600090819073ffffffffffffffffffffffffffffffffffffffff1661dead14610f34576040517f60121cca00000000000000000000000000000000000000000000000000000000815261793d60048201526024016102c4565b600b80547fffffffffffffffffffffffff00000000000000000000000000000000000000001633179055604080516020601f36908101829004820283018201909352828252610fc0927f00000000000000000000000000000000000000000000000000000000000000009291600091908190840183828082843760009201919091525061061392505050565b806020019051810190610fd391906154ef565b600b80547fffffffffffffffffffffffff00000000000000000000000000000000000000001661dead1790559097909650945050505050565b600080808080868180600189901c62ffffff168b9003611052575050601a87901c633fffffff169250603887901c6603ffffffffffff166001601989901c8116146110a9565b60008c8152600660205260408120600360028e0181810660550292918491048152602081019190915260400160002054901c600181811c633fffffff169750601f82901c6603ffffffffffff169450908116149150505b600085815260076020526040902054935080156110ec577f80000000000000000000000000000000000000000000000000000000000000009b50600099506112b8565b836003166002036111565761110e82607486901c6603ffffffffffff16611e31565b9150600161111e600f6023615495565b6001901b61112c9190615401565b82146111565760a69390931c633fffffff16600081815260076020526040902054909450926110ec565b836003166003148061118257506001611171600f6023615495565b6001901b61117f9190615401565b82145b156111b3577f80000000000000000000000000000000000000000000000000000000000000009b50600099506112b8565b6111cb8a607486901c6603ffffffffffff1684611ecb565b9950606483048a11156111e85761271061270f8b020499506111ed565b600099505b89156112945783600416600414611210576207ffff600385901c1660000361121b565b6207ffff600385901c165b9b50600061122b8d60020b611f10565b905061271f612710820204633fffffff601687901c811661124c8385615401565b6112569190615414565b611260919061545a565b61126a9082615495565b6112816c010000000000000000000000008e615414565b61128b919061545a565b975050506112b8565b7f80000000000000000000000000000000000000000000000000000000000000009b505b8b8a97509750505050945094509450945094565b60008054906001821690036112e7576001811760005561131d565b6040517f60121cca00000000000000000000000000000000000000000000000000000000815261791960048201526024016102c4565b8215611329578261133b565b6fffffffffffffffffffffffffffffffff5b925061135d6fffffffffffffffffffffffffffffffff600061dead8585612172565b600080fd5b600b54600090819073ffffffffffffffffffffffffffffffffffffffff1661dead146113be576040517f60121cca00000000000000000000000000000000000000000000000000000000815261793d60048201526024016102c4565b600b80547fffffffffffffffffffffffff0000000000000000000000000000000000000000163317905560008054906001821690036112e75760018117600055600061140a3447615401565b905073ffffffffffffffffffffffffffffffffffffffff86161561142e5785611430565b335b9550600061143f8b8b8b613a6b565b905061144e8189898987612172565b80602001905181019061146191906154c1565b91965094509250808510156114a6576040517f60121cca0000000000000000000000000000000000000000000000000000000081526188ba60048201526024016102c4565b60008390556114b482613c4d565b5050600b80547fffffffffffffffffffffffff00000000000000000000000000000000000000001661dead179055509097909650945050505050565b3373ffffffffffffffffffffffffffffffffffffffff7f000000000000000000000000000000000000000000000000000000000000000016148061156957503373ffffffffffffffffffffffffffffffffffffffff7f000000000000000000000000000000000000000000000000000000000000000016145b6115a3576040517f60121cca00000000000000000000000000000000000000000000000000000000815261793c60048201526024016102c4565b6000546001166000036115e6576040517f60121cca00000000000000000000000000000000000000000000000000000000815261792a60048201526024016102c4565b600b5461162c90839073ffffffffffffffffffffffffffffffffffffffff167f000000000000000000000000000000000000000000000000000000000000000084613ca1565b5050565b3373ffffffffffffffffffffffffffffffffffffffff7f000000000000000000000000000000000000000000000000000000000000000016146116a3576040517f60121cca00000000000000000000000000000000000000000000000000000000815261792960048201526024016102c4565b6000546001166000036116e6576040517f60121cca00000000000000000000000000000000000000000000000000000000815261792a60048201526024016102c4565b61171d846116f683850185615513565b7f000000000000000000000000000000000000000000000000000000000000000086613ca1565b50505050565b6117c2604080516102008101825260008082526020808301829052828401829052606083018290526080830182905260a0830182905260c0830182905260e0830182905283518085018552828152808201839052610100840152835180850190945281845283015290610120820190815260006020820181905260408201819052606082018190526080820181905260a0820181905260c09091015290565b73ffffffffffffffffffffffffffffffffffffffff7f0000000000000000000000000000000000000000000000000000000000000000811682527f000000000000000000000000000000000000000000000000000000000000000081166020808401919091527f0000000000000000000000000000000000000000000000000000000000000000821660408401527f0000000000000000000000000000000000000000000000000000000000000000821660608401527f0000000000000000000000000000000000000000000000000000000000000000821660808401527f0000000000000000000000000000000000000000000000000000000000000000821660a08401527f0000000000000000000000000000000000000000000000000000000000000000821660c08401527f0000000000000000000000000000000000000000000000000000000000000000821660e0840152610100830180517f000000000000000000000000000000000000000000000000000000000000000084169052517f0000000000000000000000000000000000000000000000000000000000000000831690820152610120830180517f000000000000000000000000000000000000000000000000000000000000000084169052517f00000000000000000000000000000000000000000000000000000000000000009092169101527f00000000000000000000000000000000000000000000000000000000000000006101408201527f00000000000000000000000000000000000000000000000000000000000000006101608201527f00000000000000000000000000000000000000000000000000000000000000006101808201527f00000000000000000000000000000000000000000000000000000000000000006101a08201527f00000000000000000000000000000000000000000000000000000000000000006101c08201527f00000000000000000000000000000000000000000000000000000000000000006101e082015290565b600b5460009081908190819073ffffffffffffffffffffffffffffffffffffffff1661dead14611b0d576040517f60121cca00000000000000000000000000000000000000000000000000000000815261793d60048201526024016102c4565b600b80547fffffffffffffffffffffffff0000000000000000000000000000000000000000163317905560408051808201909152600080825260208201526000805480835260011690036112e7578051600117600055611b6d3447615401565b602082015273ffffffffffffffffffffffffffffffffffffffff871615611b945786611b96565b335b9650611ba98b8989898560000151612172565b806020019051810190611bbc91906154c1565b83529095509150611bce858b8b613d68565b825160005560208301519195509350611be690613c4d565b50600b80547fffffffffffffffffffffffff00000000000000000000000000000000000000001661dead1790559299919850965090945092505050565b67ffffffffffffffff605b82901c811690609b83901c16811580611c45575080155b15611c81576040517fd50d75120000000000000000000000000000000000000000000000000000000081526201117160048201526024016102c4565b61ffff8316603a84901c6401ffffffff16428181039160ea87901c617fff16911480611cab575082155b80611cb65750806001145b15611cc357505050915091565b64496cebb80084840283020484019350617fff60db87901c16925082600103611cee57505050915091565b82600116600103611d435760019290921c91826c7e37be2022c0914b268000000081611d1c57611d1c61542b565b049250612710601e87901c613fff166b033b2e3c9fd0803ce8000000850102049250611d70565b60019290921c916305f5e100601e87901c613fff166127108501026b033b2e3c9fd0803ce8000000020492505b80600116600103611da75760011c61271081016b033b2e3c9fd0803ce8000000820281611d9f57611d9f61542b565b049050611ddd565b60011c61271081016b033b2e3c9fd0803ce8000000820281611dcb57611dcb61542b565b046b033b2e3c9fd0803ce80000000390505b760a70c3c40a64e6c51999090b65f67d92400000000000008382026127100261ffff881691900402601087901c613fff16612710030292506801b5a660ea44b8000085840283020485019450505050915091565b6000600f83811c9083901c0281681fffffffffffffffff8211611e55576022611e58565b60235b91821c919050617fff858116908516018101614000811015611e7957600080fd5b7fffffffffffffffffffffffffffffffffffffffffffffffffffffffffffffc00001617fff811115611eb857506603ffffffffffff9250611ec5915050565b80600f84901b1793505050505b92915050565b6000617fff838116908316036081811015611f0357600f83811c821b9085901c860281611efa57611efa61542b565b04915050611f09565b60009150505b9392505050565b600060ff82901d80831803617fff811115611f2a57600080fd5b7001000000000000000000000000000000006001821615611f5857506fff9dd7de423466c20352b1246ce4856f5b6002821615611f77576fff3bd55f4488ad277531fa1c725a66d00260801c5b6004821615611f96576ffe78410fd6498b73cb96a6917f8532590260801c5b6008821615611fb5576ffcf2d9987c9be178ad5bfeffaa1232730260801c5b6010821615611fd4576ff9ef02c4529258b057769680fc6601b30260801c5b6020821615611ff3576ff402d288133a85a17784a411f7aba0820260801c5b6040821615612012576fe895615b5beb6386553757b0352bda900260801c5b6080821615612031576fd34f17a00ffa00a8309940a15930391a0260801c5b610100821615612051576fae6b7961714e20548d88ea5123f9a0ff0260801c5b610200821615612071576f76d6461f27082d74e0feed3b388c0ca10260801c5b610400821615612091576f372a3bfe0745d8b6b19d985d9a8b85bb0260801c5b6108008216156120b1576f0be32cbee48979763cf7247dd7bb539d0260801c5b6110008216156120d0576e8d4f70c9ff4924dac37612d1e2921e0260801c5b6120008216156120ee576d4e009ae5519380809a02ca7aec770260801c5b61400082161561210a576b17c45e641b6e95dee056ff100260801c5b600091507f80000000000000000000000000000000000000000000000000000000000000008416612168577fffffffffffffffffffffffffffffffffffffffffffffffffffffffffffffffff0463ffffffff81161561216857600191505b60201c0192915050565b60606121b46040518060e00160405280600081526020016000815260200160008152602001600081526020016000815260200160008152602001600081525090565b6001548152600283901c620fffff16600003612200576040517f60121cca00000000000000000000000000000000000000000000000000000000815261791f60048201526024016102c4565b805161220b906108b9565b909192509091508260600183608001828152508281525050506122886040518061018001604052806000815260200160008152602001600081526020016000815260200160008152602001600081526020016000815260200160008152602001600081526020016000815260200160008152602001600081525090565b6122c16040518060c001604052806000815260200160008152602001600081526020016000815260200160008152602001600081525090565b6000806122fc7f0000000000000000000000000000000000000000000000000000000000000000633fffffff605c8860000151901c16614243565b73ffffffffffffffffffffffffffffffffffffffff1663f3190c896040518163ffffffff1660e01b8152600401602060405180830381865afa158015612346573d6000803e3d6000fd5b505050506040513d601f19601f8201168201806040525081019061236a91906154a8565b9150760a70c3c40a64e6c51999090b65f67d924000000000000082118061238f575081155b156123ca576040517f60121cca00000000000000000000000000000000000000000000000000000000815261793960048201526024016102c4565b846080015185606001518302816123e3576123e361542b565b049150722cd76fe086b93ce2f768a00b22a0000000000082111561241857722cd76fe086b93ce2f768a00b22a0000000000091505b81760a70c3c40a64e6c51999090b65f67d92400000000000008161243e5761243e61542b565b865191900491506127109060481c6103ff16810182020460608501526b033b2e3c9fd0803ce80000006c010000000000000000000000008302865191900492506103e890602a1c6103ff168302049050612497816146ad565b50602086015284516103e89060341c6103ff1683020490506124b8816146ad565b5060408601526004808816146124da576207ffff600388901c166000036124e5565b6207ffff600388901c165b60c085018190526040860151121561263a576125b67f000000000000000000000000000000000000000000000000000000000000000088876040015160405160240161253b929190918252602082015260400190565b604080517fffffffffffffffffffffffffffffffffffffffffffffffffffffffffffffffe08184030181529190526020810180517bffffffffffffffffffffffffffffffffffffffffffffffffffffffff167f9e3e482100000000000000000000000000000000000000000000000000000000179052610613565b8060200190518101906125c991906154a8565b9650866004166004146125e8576207ffff600388901c166000036125f3565b6207ffff600388901c165b60c085015260008b900361263a5760408051600060208201819052918101919091526060810188905260800160405160208183030381529060405295505050505050613a62565b6127108b108061265957506fffffffffffffffffffffffffffffffff8b115b15612694576040517f60121cca00000000000000000000000000000000000000000000000000000000815261792e60048201526024016102c4565b60028716156126a45760026126a7565b60015b60ff16846101000181815250506126f46040518060e00160405280600081526020016000815260200160008152602001600081526020016000815260200160008152602001600081525090565b60c08501518152601688901c633fffffff16808552600090815260076020908152604082205490860181905260741c6603ffffffffffff16606086018190529003612747576603ffffffffc00060608501525b602084015160c41c620fffff169250821561278e5782600116600114612779576207ffff600184901c16600003612784565b6207ffff600184901c165b60808501526127b5565b7f800000000000000000000000000000000000000000000000000000000000000060808501525b856080015164e8d4a510008d02816127cf576127cf61542b565b0480865266ffffffffffffff609a8a901c1660ff60928b901c161b92506127fa633b9aca008461545a565b1115612836576040517f60121cca00000000000000000000000000000000000000000000000000000000815261792e60048201526024016102c4565b88156128c95760025485516fffffffffffffffffffffffffffffffff8216945060809190911c92508311156128ae57845183906128739084615414565b61287d919061545a565b60a0860181905261288e9083615401565b855160808088018290526000885282901b940393841760025591506128c9565b6000600255845183900385526080850183905260a085018290525b85602001518560c00151131561347657845115613476576040805160c081018252600080825260208201819052918101829052606081018290526080810182905260a081018290528190680100000000000000009060008960c0015112612945576101008960c001518161293f5761293f61542b565b05612962565b60016101008a60c001516001018161295f5761295f61542b565b05035b6040820152845161297290611f10565b604086015261010089015160010361299d57604085015160e08a015260c08901516020820152612ac2565b61271f856040015161271002816129b6576129b661542b565b046060860181905260408601510360808601819052602089015160161c633fffffff90811660c0880181905290910260608701519190040160e08a0152845160208b0151600101148015612a0e57508460c001516001145b15612ac2577fffffffffffffffffffffffffffffffffffffffffffffffffffffffffffff215373ffffffffffffffffffffffffffffffffffffffff8f1601612a8c576040517fcc36aa4400000000000000000000000000000000000000000000000000000000815260006004820181905260248201526044016102c4565b6040517f60121cca00000000000000000000000000000000000000000000000000000000815261793560048201526024016102c4565b886101000151600103612b325760c0890180516000908152600560205260408082205460608c01518c5194518452919092206301fffffe8316601a9490941b9390931760389190911b1760011790915566ffffffffffffff602182901c1660ff601983901c161b97509550612b55565b67ffffffffffffffff60348960200151901c16965060ff8716600888901c901b96505b8689602001818151612b679190615495565b90525060e0890151612b866c0100000000000000000000000089615414565b612b90919061545a565b89604001818151612ba19190615495565b90525060c08901516020820151148015612bc057508861010001516001145b80612bcd57506080810151155b15612cfd578060800151600003612bf65760408082015160009081526004602052205460808201525b886101000151600103612c4d57604081015160c08a015160009081036101009283020190910160608301819052608083018051821b90911c908190529003612c4d5760408082015160009081526004602052908120555b608081015115612c7b576001612c668260800151614ac2565b60408301516101000201036020820152612cfd565b89602001518160400151610100021215612cba577f80000000000000000000000000000000000000000000000000000000000000006020820152612cfd565b604080820180517fffffffffffffffffffffffffffffffffffffffffffffffffffffffffffffffff01908190526000908152600460205220546080820152612c4d565b80602001518860800151138015612d1b575089602001518860800151135b15612d385760808801516101208a015260026101608a0152612d74565b896020015181602001511315612d605760208101516101208a015260016101608a0152612d74565b60208a01516101208a015260036101608a01525b612d8589610120015160020b611f10565b6040860152610160890151600203612e195761271f85604001516127100281612db057612db061542b565b046060860181905260408087015191909103608087019081526020808b015160a61c633fffffff908116600090815260079092529290205460a08b0181905260161c821660c0880181905290510260608701519190040160a086018190526101408a0152612e36565b604085015160a086018190526101408a0152633fffffff60c08601525b6c010000000000000000000000008961014001518a60600151612e599190615414565b612e63919061545a565b612e79906b033b2e3c9fd0803ce8000000615401565b8960e001518a602001518b6101400151612e939190615414565b612e9d919061545a565b8a60200151612eac9190615401565b612ec2906b033b2e3c9fd0803ce8000000615414565b612ecc919061545a565b93506b033b2e3c9fd0803ce8000000896060015185612eeb9190615414565b612ef5919061545a565b925083896020015103612f1057612f0d600185615401565b93505b885184101580612f2557508861016001516003145b156132905760808101516040808301516000908152600460205220558851841061310557885160608a01519094506b033b2e3c9fd0803ce800000090612f6b9086615414565b612f75919061545a565b9250828960400151612f879190615401565b6c01000000000000000000000000858b60200151612fa59190615401565b612faf9190615414565b612fb9919061545a565b9650612fc4876146ad565b60608701528086526101208a0151138015612fe65750633fffffff8560c00151145b15612ffe5784516002018552600160c0860152613118565b84516001018552610160890151600214801561301f57506101208901518551145b61302a576000613030565b8460c001515b9550612710856060015161271f028161304b5761304b61542b565b046040860181905260608601519081900360808701819052908803633fffffff02816130795761307961542b565b0460c08601819052156130aa57633fffffff8560c0015110156130a0578460c001516130ad565b633ffffffe6130ad565b60015b60c086015285158015906130c557508460c001518610155b15613100576040517f60121cca00000000000000000000000000000000000000000000000000000000815261793860048201526024016102c4565b613118565b6101208901516001908101865260c08601525b60208901516131278582615401565b6131319084615414565b61313b919061545a565b9150838960800181815161314f9190615495565b905250602089018051859190613166908390615401565b90525060a08901805184919061317d908390615495565b905250604089018051849190613194908390615401565b90525060608801516131a69083614b78565b60608901526020890151606411156131ee576040517f60121cca00000000000000000000000000000000000000000000000000000000815261793060048201526024016102c4565b8451600013613204578451600190811b1761320d565b845160000360011b5b606089015160208b015191975060741b9060349061323090603860086001614c2b565b901b60168760c00151901b600289901b60a6808d60200151901c901b60011717171717600760008a6000015181526020019081526020016000208190555060168860000151901b600287901b6034808f901c901b60021717179b50613471565b8851849003895260208901516132a68582615401565b6132b09084615414565b6132ba919061545a565b915083896080018181516132ce9190615495565b9052506020890180518591906132e5908390615401565b90525060a0890180518491906132fc908390615495565b905250604089018051849190613313908390615401565b90525060608801516133259083614b78565b606089015261016089015168010000000000000000925060020361344a57633fffffff60a68960200151901c1696508760a00151955060006603ffffffffffff607488901c16905060006133868a6060015183614d5490919063ffffffff16565b6020808c0180518d516000908152600790935260409092207fffffffffffffffffffffffc00000000000000000000000000000000000000000909216607484901b17600217909155998b5298889052506060890181905260c487901c620fffff16978815613420578860011660011461340b576207ffff60018a901c16600003613416565b6207ffff60018a901c165b60808b0152613447565b7f800000000000000000000000000000000000000000000000000000000000000060808b01525b50505b61012089015160c08a01526101608901516101008a015261014089015160e08a0152612ac2565b505050505b64e8d4a51000866080015186608001516134909190615414565b61349a919061545a565b8660a001818152505064e8d4a5100086606001518660a001516134bd9190615414565b6134c7919061545a565b60c087015260a08601518c10156135035760a08601516134e7908d61545a565b8660c001516134f69190615414565b60c087015260a086018c90525b8560a00151600003613545576040517f60121cca00000000000000000000000000000000000000000000000000000000815261793560048201526024016102c4565b8a8660a001518760c00151670de0b6b3a76400006135639190615414565b61356d919061545a565b10156135a9576040517f60121cca00000000000000000000000000000000000000000000000000000000815261792160048201526024016102c4565b7fffffffffffffffffffffffffffffffffffffffffffffffffffffffffffff215373ffffffffffffffffffffffffffffffffffffffff8b160161362b5760c086015160a08701516040517fcc36aa44000000000000000000000000000000000000000000000000000000008152600481019290925260248201526044016102c4565b6175307f0000000000000000000000000000000000000000000000000000000000000000148061367c5750619c407f0000000000000000000000000000000000000000000000000000000000000000145b6137e1577fffffffffffffffffffffffff11111111111111111111111111111111111111127f000000000000000000000000000000000000000000000000000000000000000073ffffffffffffffffffffffffffffffffffffffff16016136e9578560a0015192506136ee565b600092505b7f000000000000000000000000000000000000000000000000000000000000000073ffffffffffffffffffffffffffffffffffffffff1663ad967e15847f000000000000000000000000000000000000000000000000000000000000000060008a60a0015161375c90615530565b604080513360208201526000918291016040516020818303038152906040526040518863ffffffff1660e01b815260040161379c969594939291906155cc565b604080518083038185885af11580156137b9573d6000803e3d6000fd5b50505050506040513d601f19601f820116820180604052508101906137de91906154ef565b50505b614e207f000000000000000000000000000000000000000000000000000000000000000014806138325750619c407f0000000000000000000000000000000000000000000000000000000000000000145b61391b577f000000000000000000000000000000000000000000000000000000000000000073ffffffffffffffffffffffffffffffffffffffff1663ad967e157f00000000000000000000000000000000000000000000000000000000000000008860c001516138a190615530565b604080516000808252602082019092528f9082906040518763ffffffff1660e01b81526004016138d6969594939291906155cc565b60408051808303816000875af11580156138f4573d6000803e3d6000fd5b505050506040513d601f19601f8201168201806040525081019061391891906154ef565b50505b67ffffffffffffffff605289901c1692508460a0015160ff8416600885901c901b6139469190615401565b925067ffffffffffffffff609289901c169150846080015160ff8316600884901c901b6139739190615401565b9150609261398683603860086001614c2b565b901b605261399985603860086000614c2b565b60c089015160a08a015160408051338152602081019390935282015273ffffffffffffffffffffffffffffffffffffffff8e1660608201527ffffffffffffc00000000000000000000000000000003ffffffffffffffffffff909b16911b1717977f80fd9cc6b1821f4a510e45ffce6852ea3404807b5d3d833ffa85664408afcb669060800160405180910390a160a086015160c08701516040805160208101939093528201526060810189905260800160405160208183030381529060405296505050505050505b95945050505050565b600083158015613a79575082155b15613ab4576040517f60121cca0000000000000000000000000000000000000000000000000000000081526188b960048201526024016102c4565b7f000000000000000000000000000000000000000000000000000000000000000073ffffffffffffffffffffffffffffffffffffffff16636876698173eeeeeeeeeeeeeeeeeeeeeeeeeeeeeeeeeeeeeeee73ffffffffffffffffffffffffffffffffffffffff167f000000000000000000000000000000000000000000000000000000000000000073ffffffffffffffffffffffffffffffffffffffff1614613bb5577f000000000000000000000000000000000000000000000000000000000000000073ffffffffffffffffffffffffffffffffffffffff1673eeeeeeeeeeeeeeeeeeeeeeeeeeeeeeeeeeeeeeee14613baf576000613bb7565b84613bb7565b855b6040517fffffffff0000000000000000000000000000000000000000000000000000000060e084901b1681526004810188905260248101879052604481018690526000606482015260840160206040518083038185885af1158015613c20573d6000803e3d6000fd5b50505050506040513d601f19601f82011682018060405250810190613c4591906154a8565b949350505050565b303181811115613c635761162c33838303614dff565b8181101561162c576040517f60121cca00000000000000000000000000000000000000000000000000000000815261791b60048201526024016102c4565b60006040517f23b872dd00000000000000000000000000000000000000000000000000000000815273ffffffffffffffffffffffffffffffffffffffff8516600482015273ffffffffffffffffffffffffffffffffffffffff841660248201528260448201526020600060648360008a5af13d15601f3d1160016000511416171691505080613d61576040517fdee51a8a0000000000000000000000000000000000000000000000000000000081526201155960048201526024016102c4565b5050505050565b60008080670de0b6b3a7640000613d7f8787615414565b613d89919061545a565b90506000670de0b6b3a7640000613da08887615414565b613daa919061545a565b9050600082118015613dbc5750600081115b15613f5b577f000000000000000000000000000000000000000000000000000000000000000073ffffffffffffffffffffffffffffffffffffffff16635b3d38d773eeeeeeeeeeeeeeeeeeeeeeeeeeeeeeeeeeeeeeee73ffffffffffffffffffffffffffffffffffffffff167f000000000000000000000000000000000000000000000000000000000000000073ffffffffffffffffffffffffffffffffffffffff1614613ec2577f000000000000000000000000000000000000000000000000000000000000000073ffffffffffffffffffffffffffffffffffffffff1673eeeeeeeeeeeeeeeeeeeeeeeeeeeeeeeeeeeeeeee14613ebc576000613ec4565b82613ec4565b835b6040517fffffffff0000000000000000000000000000000000000000000000000000000060e084901b168152600481018b9052602481018690526044810185905260006064820152608401604080518083038185885af1158015613f2c573d6000803e3d6000fd5b50505050506040513d601f19601f82011682018060405250810190613f5191906154ef565b9094509250614239565b600082118015613f69575080155b156140af577f000000000000000000000000000000000000000000000000000000000000000073ffffffffffffffffffffffffffffffffffffffff166330acd6fd73eeeeeeeeeeeeeeeeeeeeeeeeeeeeeeeeeeeeeeee73ffffffffffffffffffffffffffffffffffffffff167f000000000000000000000000000000000000000000000000000000000000000073ffffffffffffffffffffffffffffffffffffffff161461401857600061401a565b835b6040517fffffffff0000000000000000000000000000000000000000000000000000000060e084901b168152600481018b905260248101869052604481018590526000606482015260840160206040518083038185885af1158015614083573d6000803e3d6000fd5b50505050506040513d601f19601f820116820180604052508101906140a891906154a8565b9350614239565b811580156140bd5750600081115b15614203577f000000000000000000000000000000000000000000000000000000000000000073ffffffffffffffffffffffffffffffffffffffff166330acd6fd73eeeeeeeeeeeeeeeeeeeeeeeeeeeeeeeeeeeeeeee73ffffffffffffffffffffffffffffffffffffffff167f000000000000000000000000000000000000000000000000000000000000000073ffffffffffffffffffffffffffffffffffffffff161461416c57600061416e565b825b6040517fffffffff0000000000000000000000000000000000000000000000000000000060e084901b168152600481018b905260248101869052604481018590526000606482015260840160206040518083038185885af11580156141d7573d6000803e3d6000fd5b50505050506040513d601f19601f820116820180604052508101906141fc91906154a8565b9250614239565b6040517f60121cca0000000000000000000000000000000000000000000000000000000081526188b960048201526024016102c4565b5050935093915050565b6000606082600003614259576000915050611ec5565b607f8311614322576040517fd60000000000000000000000000000000000000000000000000000000000000060208201527f940000000000000000000000000000000000000000000000000000000000000060218201527fffffffffffffffffffffffffffffffffffffffff000000000000000000000000606086901b16602282015260f884901b7fff000000000000000000000000000000000000000000000000000000000000001660368201526037015b604051602081830303815290604052905061469e565b60ff83116143ff576040517fd70000000000000000000000000000000000000000000000000000000000000060208201527f940000000000000000000000000000000000000000000000000000000000000060218201527fffffffffffffffffffffffffffffffffffffffff000000000000000000000000606086901b1660228201527f8100000000000000000000000000000000000000000000000000000000000000603682015260f884901b7fff0000000000000000000000000000000000000000000000000000000000000016603782015260380161430c565b61ffff83116144dd576040517fd80000000000000000000000000000000000000000000000000000000000000060208201527f940000000000000000000000000000000000000000000000000000000000000060218201527fffffffffffffffffffffffffffffffffffffffff000000000000000000000000606086901b1660228201527f820000000000000000000000000000000000000000000000000000000000000060368201527fffff00000000000000000000000000000000000000000000000000000000000060f085901b16603782015260390161430c565b62ffffff83116145bc576040517fd90000000000000000000000000000000000000000000000000000000000000060208201527f940000000000000000000000000000000000000000000000000000000000000060218201527fffffffffffffffffffffffffffffffffffffffff000000000000000000000000606086901b1660228201527f830000000000000000000000000000000000000000000000000000000000000060368201527fffffff000000000000000000000000000000000000000000000000000000000060e885901b166037820152603a0161430c565b6040517fda0000000000000000000000000000000000000000000000000000000000000060208201527f940000000000000000000000000000000000000000000000000000000000000060218201527fffffffffffffffffffffffffffffffffffffffff000000000000000000000000606086901b1660228201527f840000000000000000000000000000000000000000000000000000000000000060368201527fffffffff0000000000000000000000000000000000000000000000000000000060e085901b166037820152603b0160405160208183030381529060405290505b80516020909101209392505050565b600080630235b88083107473d85bca016a2338b31715f8e13054c005f8b995d3841117156146da57600080fd5b6c01000000000000000000000000831060008161471057506c010000000000000000000000006a52b7d2dcc80cd2e40000008502045b811561473357507652b7d2dcc80cd2e40000000000000000000000000000008490045b6f037af932b2affa9738cc6c38ca527831811061477457614000841793506f037af932b2affa9738cc6c38ca5278316a52b7d2dcc80cd2e400000082020490505b6d010f7a088a76f267264caa114f0a81106147b157612000841793506d010f7a088a76f267264caa114f0a6a52b7d2dcc80cd2e400000082020490505b6b95da74f87f839fc2e0dc5bd981106147ea57611000841793506b95da74f87f839fc2e0dc5bd96a52b7d2dcc80cd2e400000082020490505b6b06f55dedafd8491caed5a1b8811061482357610800841793506b06f55dedafd8491caed5a1b86a52b7d2dcc80cd2e400000082020490505b6b017fdd10ee11e624491b4cc1811061485c57610400841793506b017fdd10ee11e624491b4cc16a52b7d2dcc80cd2e400000082020490505b6ab23131bf0c30217b0a2c69811061489357610200841793506ab23131bf0c30217b0a2c696a52b7d2dcc80cd2e400000082020490505b6a79683edcb9280d797aded781106148ca57610100841793506a79683edcb9280d797aded76a52b7d2dcc80cd2e400000082020490505b6a64366e2f9919f0d9b0dc908110614900576080841793506a64366e2f9919f0d9b0dc906a52b7d2dcc80cd2e400000082020490505b6a5b0bcda5a78850646b0a818110614936576040841793506a5b0bcda5a78850646b0a816a52b7d2dcc80cd2e400000082020490505b6a56c840f992c70f959ae810811061496c576020841793506a56c840f992c70f959ae8106a52b7d2dcc80cd2e400000082020490505b6a54b9cd178695194f9be0a081106149a2576010841793506a54b9cd178695194f9be0a06a52b7d2dcc80cd2e400000082020490505b6a53b7458aff204b5e65d68181106149d8576008841793506a53b7458aff204b5e65d6816a52b7d2dcc80cd2e400000082020490505b6a53372a2f38c240d689e4008110614a0e576004841793506a53372a2f38c240d689e4006a52b7d2dcc80cd2e400000082020490505b6a52f76617a04499e66400008110614a44576002841793506a52f76617a04499e66400006a52b7d2dcc80cd2e400000082020490505b6a52d79660f3dec355c000008110614a7a576001841793506a52d79660f3dec355c000006a52b7d2dcc80cd2e400000082020490505b81614a9257806a52b7d2dcc80cd2e400000086020492505b8115614aae579219926a52d79660f3dec355c000008582020492505b505082811115614abd57600080fd5b915091565b6000816fffffffffffffffffffffffffffffffff831115614ae45760809150811c5b67ffffffffffffffff811115614afc576040918201911c5b63ffffffff811115614b10576020918201911c5b61ffff811115614b22576010918201911c5b60ff811115614b33576008918201911c5b600f811115614b44576004918201911c5b6003811115614b55576002918201911c5b6001811115614b65576001820191505b8015614b72576001820191505b50919050565b6000600f83901c8202816c03ffffffffffffffffffffffff8211614bbf576c01ffffffffffffffffffffffff8211614bb857614bb382614ac2565b614bc2565b6062614bc2565b60635b7fffffffffffffffffffffffffffffffffffffffffffffffffffffffffffffffdd617fff87168201810194500191821c919050604083111561135d5750600f1b017fffffffffffffffffffffffffffffffffffffffffffffffffffffffffffffffc00192915050565b600080856fffffffffffffffffffffffffffffffff811115614c4e5760809150811c5b67ffffffffffffffff811115614c66576040918201911c5b63ffffffff811115614c7a576020918201911c5b61ffff811115614c8c576010918201911c5b60ff811115614c9d576008918201911c5b600f811115614cae576004918201911c5b6003811115614cbf576002918201911c5b6001811115614ccf576001820191505b8015614cdc576001820191505b5084811015614ce85750835b848103905085811c60008211841615614d3757600181019050806001871b03614d3757506001908101907fffffffffffffffffffffffffffffffffffffffffffffffffffffffffffffffff86011b5b6001851b8210614d4657600080fd5b90931b909201949350505050565b600080600f83901c7fffffffffffffffffffffffffffffffffffffffffffffffff0000000000000000603186901b1681614d9057614d9061542b565b0490506000604082901c600114614da8576040614dab565b60415b7fffffffffffffffffffffffffffffffffffffffffffffffffffffffffffffffdd81019290921c91617fff8581166040019250613fdd908716909101018181111561135d5703600f9190911b179050611ec5565b60008060008060008587614e20f1905080614e4b576040517fdee51a8a0000000000000000000000000000000000000000000000000000000081526201155a60048201526024016102c4565b505050565b8015158114614e5e57600080fd5b50565b600060208284031215614e7357600080fd5b8151611f0981614e50565b73ffffffffffffffffffffffffffffffffffffffff81168114614e5e57600080fd5b60008060008060008060c08789031215614eb957600080fd5b863595506020870135945060408701359350606087013592506080870135915060a0870135614ee781614e7e565b809150509295509295509295565b6000604082018483526020604081850152818551808452606086019150828701935060005b81811015614f3657845183529383019391830191600101614f1a565b5090979650505050505050565b600060208284031215614f5557600080fd5b5035919050565b60008060008060808587031215614f7257600080fd5b5050823594602084013594506040840135936060013592509050565b60008060408385031215614fa157600080fd5b823591506020830135614fb381614e50565b809150509250929050565b60008060008060008060c08789031215614fd757600080fd5b863595506020870135945060408701359350606087013592506080870135614ffe81614e7e565b915060a0870135614ee781614e50565b6000806040838503121561502157600080fd5b823561502c81614e7e565b946020939093013593505050565b6000806000806060858703121561505057600080fd5b843561505b81614e7e565b935060208501359250604085013567ffffffffffffffff8082111561507f57600080fd5b818701915087601f83011261509357600080fd5b8135818111156150a257600080fd5b8860208285010111156150b457600080fd5b95989497505060200194505050565b815173ffffffffffffffffffffffffffffffffffffffff16815261024081016020830151615109602084018273ffffffffffffffffffffffffffffffffffffffff169052565b506040830151615131604084018273ffffffffffffffffffffffffffffffffffffffff169052565b506060830151615159606084018273ffffffffffffffffffffffffffffffffffffffff169052565b506080830151615181608084018273ffffffffffffffffffffffffffffffffffffffff169052565b5060a08301516151a960a084018273ffffffffffffffffffffffffffffffffffffffff169052565b5060c08301516151d160c084018273ffffffffffffffffffffffffffffffffffffffff169052565b5060e08301516151f960e084018273ffffffffffffffffffffffffffffffffffffffff169052565b5061010083810151805173ffffffffffffffffffffffffffffffffffffffff90811685840152602082015116610120850152505061012083015161014061526581850183805173ffffffffffffffffffffffffffffffffffffffff908116835260209182015116910152565b840151610180848101919091526101608501516101a080860191909152908501516101c080860191909152908501516101e080860191909152908501516102008501529093015161022090920191909152919050565b7f4e487b7100000000000000000000000000000000000000000000000000000000600052604160045260246000fd5b600080604083850312156152fd57600080fd5b8251915060208084015167ffffffffffffffff8082111561531d57600080fd5b818601915086601f83011261533157600080fd5b815181811115615343576153436152bb565b8060051b6040517fffffffffffffffffffffffffffffffffffffffffffffffffffffffffffffffe0603f83011681018181108582111715615386576153866152bb565b6040529182528482019250838101850191898311156153a457600080fd5b938501935b828510156153c2578451845293850193928501926153a9565b8096505050505050509250929050565b7f4e487b7100000000000000000000000000000000000000000000000000000000600052601160045260246000fd5b81810381811115611ec557611ec56153d2565b8082028115828204841417611ec557611ec56153d2565b7f4e487b7100000000000000000000000000000000000000000000000000000000600052601260045260246000fd5b600082615490577f4e487b7100000000000000000000000000000000000000000000000000000000600052601260045260246000fd5b500490565b80820180821115611ec557611ec56153d2565b6000602082840312156154ba57600080fd5b5051919050565b6000806000606084860312156154d657600080fd5b8351925060208401519150604084015190509250925092565b6000806040838503121561550257600080fd5b505080516020909101519092909150565b60006020828403121561552557600080fd5b8135611f0981614e7e565b60007f80000000000000000000000000000000000000000000000000000000000000008203615561576155616153d2565b5060000390565b6000815180845260005b8181101561558e57602081850181015186830182015201615572565b5060006020828601015260207fffffffffffffffffffffffffffffffffffffffffffffffffffffffffffffffe0601f83011685010191505092915050565b600073ffffffffffffffffffffffffffffffffffffffff8089168352876020840152866040840152808616606084015280851660808401525060c060a083015261561960c0830184615568565b9897505050505050505056fea2646970667358221220cca196a2499a1f0d69516bb007898a12b88353fc0b21ec987bc3e3f3279c8fdb64736f6c63430008150033"
}