{
  "address": "0xa357ef93bbF0ba99591558Ecf2399DfB28Ed0618",
  "abi": [
    {
      "inputs": [
        {
          "components": [
            {
              "internalType": "address",
              "name": "liquidity",
              "type": "address"
            },
            {
              "internalType": "address",
              "name": "factory",
              "type": "address"
            },
            {
              "internalType": "address",
              "name": "operateImplementation",
              "type": "address"
            },
            {
              "internalType": "address",
              "name": "adminImplementation",
              "type": "address"
            },
            {
              "internalType": "address",
              "name": "secondaryImplementation",
              "type": "address"
            },
            {
              "internalType": "address",
              "name": "deployer",
              "type": "address"
            },
            {
              "internalType": "address",
              "name": "supply",
              "type": "address"
            },
            {
              "internalType": "address",
              "name": "borrow",
              "type": "address"
            },
            {
              "components": [
                {
                  "internalType": "address",
                  "name": "token0",
                  "type": "address"
                },
                {
                  "internalType": "address",
                  "name": "token1",
                  "type": "address"
                }
              ],
              "internalType": "struct Structs.Tokens",
              "name": "supplyToken",
              "type": "tuple"
            },
            {
              "components": [
                {
                  "internalType": "address",
                  "name": "token0",
                  "type": "address"
                },
                {
                  "internalType": "address",
                  "name": "token1",
                  "type": "address"
                }
              ],
              "internalType": "struct Structs.Tokens",
              "name": "borrowToken",
              "type": "tuple"
            },
            {
              "internalType": "uint256",
              "name": "vaultId",
              "type": "uint256"
            },
            {
              "internalType": "uint256",
              "name": "vaultType",
              "type": "uint256"
            },
            {
              "internalType": "bytes32",
              "name": "supplyExchangePriceSlot",
              "type": "bytes32"
            },
            {
              "internalType": "bytes32",
              "name": "borrowExchangePriceSlot",
              "type": "bytes32"
            },
            {
              "internalType": "bytes32",
              "name": "userSupplySlot",
              "type": "bytes32"
            },
            {
              "internalType": "bytes32",
              "name": "userBorrowSlot",
              "type": "bytes32"
            }
          ],
          "internalType": "struct Structs.ConstantViews",
          "name": "constants_",
          "type": "tuple"
        }
      ],
      "stateMutability": "nonpayable",
      "type": "constructor"
    },
    {
      "inputs": [
        {
          "internalType": "uint256",
          "name": "colLiquidated",
          "type": "uint256"
        },
        {
          "internalType": "uint256",
          "name": "debtLiquidated",
          "type": "uint256"
        }
      ],
      "name": "FluidLiquidateResult",
      "type": "error"
    },
    {
      "inputs": [
        {
          "internalType": "uint256",
          "name": "errorId_",
          "type": "uint256"
        }
      ],
      "name": "FluidLiquidityCalcsError",
      "type": "error"
    },
    {
      "inputs": [
        {
          "internalType": "uint256",
          "name": "errorId_",
          "type": "uint256"
        }
      ],
      "name": "FluidSafeTransferError",
      "type": "error"
    },
    {
      "inputs": [
        {
          "internalType": "uint256",
          "name": "errorId_",
          "type": "uint256"
        }
      ],
      "name": "FluidVaultError",
      "type": "error"
    },
    {
      "anonymous": false,
      "inputs": [
        {
          "indexed": false,
          "internalType": "uint256",
          "name": "colAbsorbedRaw_",
          "type": "uint256"
        },
        {
          "indexed": false,
          "internalType": "uint256",
          "name": "debtAbsorbedRaw_",
          "type": "uint256"
        }
      ],
      "name": "LogAbsorb",
      "type": "event"
    },
    {
      "anonymous": false,
      "inputs": [
        {
          "indexed": false,
          "internalType": "address",
          "name": "liquidator_",
          "type": "address"
        },
        {
          "indexed": false,
          "internalType": "uint256",
          "name": "colAmt_",
          "type": "uint256"
        },
        {
          "indexed": false,
          "internalType": "uint256",
          "name": "debtAmt_",
          "type": "uint256"
        },
        {
          "indexed": false,
          "internalType": "address",
          "name": "to_",
          "type": "address"
        }
      ],
      "name": "LogLiquidate",
      "type": "event"
    },
    {
      "anonymous": false,
      "inputs": [
        {
          "indexed": false,
          "internalType": "address",
          "name": "user_",
          "type": "address"
        },
        {
          "indexed": false,
          "internalType": "uint256",
          "name": "nftId_",
          "type": "uint256"
        },
        {
          "indexed": false,
          "internalType": "int256",
          "name": "colAmt_",
          "type": "int256"
        },
        {
          "indexed": false,
          "internalType": "int256",
          "name": "debtAmt_",
          "type": "int256"
        },
        {
          "indexed": false,
          "internalType": "address",
          "name": "to_",
          "type": "address"
        }
      ],
      "name": "LogOperate",
      "type": "event"
    },
    {
      "anonymous": false,
      "inputs": [
        {
          "indexed": false,
          "internalType": "int256",
          "name": "colAmt_",
          "type": "int256"
        },
        {
          "indexed": false,
          "internalType": "int256",
          "name": "debtAmt_",
          "type": "int256"
        }
      ],
      "name": "LogRebalance",
      "type": "event"
    },
    {
      "anonymous": false,
      "inputs": [
        {
          "indexed": false,
          "internalType": "uint256",
          "name": "supplyExPrice_",
          "type": "uint256"
        },
        {
          "indexed": false,
          "internalType": "uint256",
          "name": "borrowExPrice_",
          "type": "uint256"
        }
      ],
      "name": "LogUpdateExchangePrice",
      "type": "event"
    },
    {
      "inputs": [],
      "name": "LIQUIDITY",
      "outputs": [
        {
          "internalType": "contract IFluidLiquidity",
          "name": "",
          "type": "address"
        }
      ],
      "stateMutability": "view",
      "type": "function"
    },
    {
      "inputs": [],
      "name": "TYPE",
      "outputs": [
        {
          "internalType": "uint256",
          "name": "",
          "type": "uint256"
        }
      ],
      "stateMutability": "view",
      "type": "function"
    },
    {
      "inputs": [],
      "name": "VAULT_FACTORY",
      "outputs": [
        {
          "internalType": "contract IFluidVaultFactory",
          "name": "",
          "type": "address"
        }
      ],
      "stateMutability": "view",
      "type": "function"
    },
    {
      "inputs": [],
      "name": "VAULT_ID",
      "outputs": [
        {
          "internalType": "uint256",
          "name": "",
          "type": "uint256"
        }
      ],
      "stateMutability": "view",
      "type": "function"
    },
    {
      "inputs": [
        {
          "internalType": "int256",
          "name": "positionTick_",
          "type": "int256"
        },
        {
          "internalType": "uint256",
          "name": "positionTickId_",
          "type": "uint256"
        },
        {
          "internalType": "uint256",
          "name": "positionRawDebt_",
          "type": "uint256"
        },
        {
          "internalType": "uint256",
          "name": "tickData_",
          "type": "uint256"
        }
      ],
      "name": "fetchLatestPosition",
      "outputs": [
        {
          "internalType": "int256",
          "name": "",
          "type": "int256"
        },
        {
          "internalType": "uint256",
          "name": "",
          "type": "uint256"
        },
        {
          "internalType": "uint256",
          "name": "positionRawCol_",
          "type": "uint256"
        },
        {
          "internalType": "uint256",
          "name": "branchId_",
          "type": "uint256"
        },
        {
          "internalType": "uint256",
          "name": "branchData_",
          "type": "uint256"
        }
      ],
      "stateMutability": "view",
      "type": "function"
    },
    {
      "inputs": [
        {
          "internalType": "uint256",
          "name": "nftId_",
          "type": "uint256"
        },
        {
          "internalType": "int256",
          "name": "newColToken0_",
          "type": "int256"
        },
        {
          "internalType": "int256",
          "name": "newColToken1_",
          "type": "int256"
        },
        {
          "internalType": "int256",
          "name": "colSharesMinMax_",
          "type": "int256"
        },
        {
          "internalType": "int256",
          "name": "newDebtToken0_",
          "type": "int256"
        },
        {
          "internalType": "int256",
          "name": "newDebtToken1_",
          "type": "int256"
        },
        {
          "internalType": "int256",
          "name": "debtSharesMinMax_",
          "type": "int256"
        },
        {
          "internalType": "address",
          "name": "to_",
          "type": "address"
        }
      ],
      "name": "operate",
      "outputs": [
        {
          "internalType": "uint256",
          "name": "",
          "type": "uint256"
        },
        {
          "internalType": "int256",
          "name": "",
          "type": "int256"
        },
        {
          "internalType": "int256",
          "name": "",
          "type": "int256"
        }
      ],
      "stateMutability": "payable",
      "type": "function"
    },
    {
      "inputs": [
        {
          "internalType": "uint256",
          "name": "nftId_",
          "type": "uint256"
        },
        {
          "internalType": "int256",
          "name": "perfectColShares_",
          "type": "int256"
        },
        {
          "internalType": "int256",
          "name": "colToken0MinMax_",
          "type": "int256"
        },
        {
          "internalType": "int256",
          "name": "colToken1MinMax_",
          "type": "int256"
        },
        {
          "internalType": "int256",
          "name": "perfectDebtShares_",
          "type": "int256"
        },
        {
          "internalType": "int256",
          "name": "debtToken0MinMax_",
          "type": "int256"
        },
        {
          "internalType": "int256",
          "name": "debtToken1MinMax_",
          "type": "int256"
        },
        {
          "internalType": "address",
          "name": "to_",
          "type": "address"
        }
      ],
      "name": "operatePerfect",
      "outputs": [
        {
          "internalType": "uint256",
          "name": "",
          "type": "uint256"
        },
        {
          "internalType": "int256[]",
          "name": "r_",
          "type": "int256[]"
        }
      ],
      "stateMutability": "payable",
      "type": "function"
    },
    {
      "inputs": [
        {
          "internalType": "bytes32",
          "name": "slot_",
          "type": "bytes32"
        }
      ],
      "name": "readFromStorage",
      "outputs": [
        {
          "internalType": "uint256",
          "name": "result_",
          "type": "uint256"
        }
      ],
      "stateMutability": "view",
      "type": "function"
    },
    {
      "inputs": [
        {
          "internalType": "uint256",
          "name": "vaultVariables2_",
          "type": "uint256"
        }
      ],
      "name": "updateExchangePrices",
      "outputs": [
        {
          "internalType": "uint256",
          "name": "liqSupplyExPrice_",
          "type": "uint256"
        },
        {
          "internalType": "uint256",
          "name": "liqBorrowExPrice_",
          "type": "uint256"
        },
        {
          "internalType": "uint256",
          "name": "vaultSupplyExPrice_",
          "type": "uint256"
        },
        {
          "internalType": "uint256",
          "name": "vaultBorrowExPrice_",
          "type": "uint256"
        }
      ],
      "stateMutability": "view",
      "type": "function"
    }
  ],
  "transactionHash": "0x63c574653db1c94eee2a1db2eacea2fe7ce405dd94d56671730c936de7eb88db",
  "args": [
    {
      "liquidity": "0x52Aa899454998Be5b000Ad077a46Bbe360F4e497",
      "factory": "0x324c5Dc1fC42c7a4D43d92df1eBA58a54d13Bf2d",
      "operateImplementation": "0x0000000000000000000000000000000000000000",
      "adminImplementation": "0x644E0b92Ef00847184acB0679D2F116d1fA66659",
      "secondaryImplementation": "0xB6FF36e7d04e6017E0323F1f92A8184370d48907",
      "deployer": "0x4EC7b668BAF70d4A4b0FC7941a7708A07b6d45Be",
      "supply": "0x1DD125C32e4B5086c63CC13B3cA02C4A2a61Fa9b",
      "borrow": "0x667701e51B4D1Ca244F17C78F7aB8744B4C99F9B",
      "supplyToken": {
        "token0": "0x9D39A5DE30e57443BfF2A8307A4256c8797A3497",
        "token1": "0xdac17f958d2ee523a2206206994597c13d831ec7"
      },
      "borrowToken": {
        "token0": "0xA0b86991c6218b36c1d19D4a2e9Eb0cE3606eB48",
        "token1": "0xdac17f958d2ee523a2206206994597c13d831ec7"
      },
      "vaultId": 98,
      "vaultType": "40000",
      "supplyExchangePriceSlot": "0x0000000000000000000000000000000000000000000000000000000000000000",
      "borrowExchangePriceSlot": "0x0000000000000000000000000000000000000000000000000000000000000000",
      "userSupplySlot": "0x6c6837d3229a9a9cc1e100b92004e96318a6f8994ea62d9338d8030c3bfe22d3",
      "userBorrowSlot": "0x49bbf31d28747f53525ce4123a1ece57b32f8f526db420f600dbed6adb64ff37"
    }
  ],
  "numDeployments": 1,
  "bytecode": "0x6103006040523480156200001257600080fd5b5060405162005ea938038062005ea9833981016040819052620000359162000358565b808080808080610160015161026081815250506127106102605114158015620000635750614e206102605114155b80156200007557506175306102605114155b8015620000875750619c406102605114155b15620000af576040516330090e6560e11b815261793a60048201526024015b60405180910390fd5b80516001600160a01b0390811661020052602082015181166102205260a0820151811660c0908152820151811660e090815282015181166101005261014082015161024052604082015116156200010b5780604001516200010d565b305b6001600160a01b03166101a05261026051614e201480620001325750619c4061026051145b156200014f5760c08101516001600160a01b031660805262000193565b610100810151516001600160a01b03908116608052815160c0830151821691161462000193576040516330090e6560e11b815261793a6004820152602401620000a6565b617530610260511480620001ab5750619c4061026051145b15620001c85760e08101516001600160a01b031660a0526200020c565b610120810151516001600160a01b0390811660a052815160e083015182169116146200020c576040516330090e6560e11b815261793a6004820152602401620000a6565b61010081018051516001600160a01b03908116610120908152830180515182166101605291516020908101518216610140529151909101518116610180908152820151610280526101a08201516102a0526101c0808301516102c0526101e0808401516102e0526060840151831690915260809092015116905250620004879350505050565b60405161020081016001600160401b0381118282101715620002c457634e487b7160e01b600052604160045260246000fd5b60405290565b80516001600160a01b0381168114620002e257600080fd5b919050565b600060408284031215620002fa57600080fd5b604080519081016001600160401b03811182821017156200032b57634e487b7160e01b600052604160045260246000fd5b6040529050806200033c83620002ca565b81526200034c60208401620002ca565b60208201525092915050565b600061024082840312156200036c57600080fd5b6200037662000292565b6200038183620002ca565b81526200039160208401620002ca565b6020820152620003a460408401620002ca565b6040820152620003b760608401620002ca565b6060820152620003ca60808401620002ca565b6080820152620003dd60a08401620002ca565b60a0820152620003f060c08401620002ca565b60c08201526200040360e08401620002ca565b60e08201526101006200041985828601620002e7565b908201526101406200042e85858301620002e7565b61012083015261018080850151828401526101a09150818501516101608401526101c080860151828501526101e09150818601518385015261020086015181850152506102208501518184015250508091505092915050565b60805160a05160c05160e05161010051610120516101405161016051610180516101a0516101c0516101e05161020051610220516102405161026051610280516102a0516102c0516102e051615807620006a2600039600050506000612d6801526000610672015260006103fb015260008181610256015281816102d501528181610300015281816105520152818161057d01528181612e4001528181612e6b01528181612f6a01528181612f95015281816131420152818161316d01528181613318015281816133430152818161346f015261349a0152600081816101c70152611d0a01526000818160f201528181611d360152611e3e015260008181610193015281816104250152818161069c01528181612fbf015281816132040152818161338201526134d90152600050506000505060008181610a5d0152610c0c0152600081816119e101528181613db901526140ca0152600081816119a501528181613d7d0152613f540152600081816114ff01526138630152600081816114c3015261382701526000818161186a0152818161193e01528181613d1601528181613eed01528181614063015261428e01526000818161145c0152818161166e01528181612d8e015281816137c00152818161398e01528181613aa40152613bb801526000612a750152600081816131b80152818161324101526135000152600081816130260152818161306b01526133a901526158076000f3fe6080604052600436106100965760003560e01c8063540acabc11610069578063b5c736e41161004e578063b5c736e414610225578063bb24fe8a14610244578063cc31808e1461027857600080fd5b8063540acabc146101b557806358cc871e146101f757600080fd5b806309f0d8cb1461009b578063103f2907146100e057806322348cc7146101395780632861c7d114610181575b600080fd5b3480156100a757600080fd5b506100bb6100b6366004615379565b610299565b6040805194855260208501939093529183015260608201526080015b60405180910390f35b3480156100ec57600080fd5b506101147f000000000000000000000000000000000000000000000000000000000000000081565b60405173ffffffffffffffffffffffffffffffffffffffff90911681526020016100d7565b34801561014557600080fd5b50610159610154366004615392565b610782565b604080519586526020860194909452928401919091526060830152608082015260a0016100d7565b34801561018d57600080fd5b506101147f000000000000000000000000000000000000000000000000000000000000000081565b3480156101c157600080fd5b506101e97f000000000000000000000000000000000000000000000000000000000000000081565b6040519081526020016100d7565b61020a6102053660046153e9565b610a42565b604080519384526020840192909252908201526060016100d7565b34801561023157600080fd5b506101e9610240366004615379565b5490565b34801561025057600080fd5b506101e97f000000000000000000000000000000000000000000000000000000000000000081565b61028b6102863660046153e9565b610bf1565b6040516100d7929190615453565b60085460009081908190819067ffffffffffffffff80821690604083901c16836102ce607a8a901c6401ffffffff16426154d0565b9050614e207f000000000000000000000000000000000000000000000000000000000000000014806103215750619c407f0000000000000000000000000000000000000000000000000000000000000000145b156103d35764e8d4a51000975067ffffffffffffffff608085901c169550886001166001036103925761035a6301e133806127106154e3565b60018a901c617fff1661036d83896154e3565b61037791906154e3565b6103819190615529565b61038b908761553d565b955061054d565b6103a26301e133806127106154e3565b60018a901c617fff166103b583896154e3565b6103bf91906154e3565b6103c99190615529565b61038b90876154d0565b6040517fb5c736e40000000000000000000000000000000000000000000000000000000081527f000000000000000000000000000000000000000000000000000000000000000060048201526104ab907f000000000000000000000000000000000000000000000000000000000000000073ffffffffffffffffffffffffffffffffffffffff169063b5c736e4906024015b602060405180830381865afa158015610482573d6000803e3d6000fd5b505050506040513d601f19601f820116820180604052508101906104a69190615550565b610ea5565b509750828810156104f1576040517f60121cca00000000000000000000000000000000000000000000000000000000815261793260048201526024015b60405180910390fd5b61271061ffff8a16670de0b6b3a7640000858b670de0b6b3a7640000028161051b5761051b6154fa565b0403028161052b5761052b6154fa565b670de0b6b3a7640000919004810167ffffffffffffffff608087901c16020495505b6175307f0000000000000000000000000000000000000000000000000000000000000000148061059e5750619c407f0000000000000000000000000000000000000000000000000000000000000000145b1561064a5764e8d4a51000965060c084901c9450600160108a901c81169003610609576105d16301e133806127106154e3565b60118a901c617fff166105e483886154e3565b6105ee91906154e3565b6105f89190615529565b610602908661553d565b9450610777565b6106196301e133806127106154e3565b60118a901c617fff1661062c83886154e3565b61063691906154e3565b6106409190615529565b61060290866154d0565b6040517fb5c736e40000000000000000000000000000000000000000000000000000000081527f000000000000000000000000000000000000000000000000000000000000000060048201526106e0907f000000000000000000000000000000000000000000000000000000000000000073ffffffffffffffffffffffffffffffffffffffff169063b5c736e490602401610465565b97505081871015610721576040517f60121cca00000000000000000000000000000000000000000000000000000000815261793260048201526024016104e8565b61271061ffff60108b901c16670de0b6b3a7640000848a670de0b6b3a7640000028161074f5761074f6154fa565b0403028161075f5761075f6154fa565b670de0b6b3a7640000919004810160c086901c020494505b505050509193509193565b600080808080868180600189901c62ffffff168b90036107c8575050601a87901c633fffffff169250603887901c6603ffffffffffff166001601989901c81161461081f565b60008c8152600660205260408120600360028e0181810660550292918491048152602081019190915260400160002054901c600181811c633fffffff169750601f82901c6603ffffffffffff169450908116149150505b60008581526007602052604090205493508015610862577f80000000000000000000000000000000000000000000000000000000000000009b5060009950610a2e565b836003166002036108cc5761088482607486901c6603ffffffffffff166110b3565b91506001610894600f602361553d565b6001901b6108a291906154d0565b82146108cc5760a69390931c633fffffff1660008181526007602052604090205490945092610862565b83600316600314806108f8575060016108e7600f602361553d565b6001901b6108f591906154d0565b82145b15610929577f80000000000000000000000000000000000000000000000000000000000000009b5060009950610a2e565b6109418a607486901c6603ffffffffffff168461114d565b9950606483048a111561095e5761271061270f8b02049950610963565b600099505b8915610a0a5783600416600414610986576207ffff600385901c16600003610991565b6207ffff600385901c165b9b5060006109a18d60020b611192565b905061271f612710820204633fffffff601687901c81166109c283856154d0565b6109cc91906154e3565b6109d69190615529565b6109e0908261553d565b6109f76c010000000000000000000000008e6154e3565b610a019190615529565b97505050610a2e565b7f80000000000000000000000000000000000000000000000000000000000000009b505b8b8a97509750505050945094509450945094565b6000808073ffffffffffffffffffffffffffffffffffffffff7f0000000000000000000000000000000000000000000000000000000000000000163003610ab9576040517f60121cca00000000000000000000000000000000000000000000000000000000815261792b60048201526024016104e8565b610ae46040518060800160405280600081526020016000815260200160008152602001600081525090565b60008054606083018190526001169003610b08576060810151600117600055610b3e565b6040517f60121cca00000000000000000000000000000000000000000000000000000000815261791960048201526024016104e8565b610b4834476154d0565b815273ffffffffffffffffffffffffffffffffffffffff851615610b6c5784610b6e565b335b9450610b7c8b8b8b886113f4565b6020820152610b8d888888886117aa565b6040820181905260208201516060830151610bac928f92918990611af7565b60608501819052604085019190915260208401919091526000558151909c50610bd490613714565b60208101516040909101519b9c909b9a5098505050505050505050565b6000606073ffffffffffffffffffffffffffffffffffffffff7f0000000000000000000000000000000000000000000000000000000000000000163003610c68576040517f60121cca00000000000000000000000000000000000000000000000000000000815261792b60048201526024016104e8565b610ca16040518060c001604052806000815260200160008152602001600081526020016000815260200160008152602001600081525090565b60408051600680825260e08201909252906020820160c080368337019050506000805460a0840181905291935060019091169003610b085760a0810151600117600055610cee34476154d0565b815273ffffffffffffffffffffffffffffffffffffffff841615610d125783610d14565b335b935060008a1315610d3557610d2a8a8a8a61376c565b604083015260208201525b610d468b8b89878560a00151611af7565b60a0850152919c509a50965060008a1215610d7257610d678a8a8a8761395c565b604083015260208201525b6000871215610d9557610d86878787613cf9565b60808301526060820152610db5565b6000871315610db557610daa878787876141e0565b608083015260608201525b8982600081518110610dc957610dc9615569565b602002602001018181525050806020015182600181518110610ded57610ded615569565b602002602001018181525050806040015182600281518110610e1157610e11615569565b6020026020010181815250508682600381518110610e3157610e31615569565b602002602001018181525050806060015182600481518110610e5557610e55615569565b602002602001018181525050806080015182600581518110610e7957610e79615569565b602090810291909101015260a08101516000558051610e9790613714565b509899975050505050505050565b67ffffffffffffffff605b82901c811690609b83901c16811580610ec7575080155b15610f03576040517fd50d75120000000000000000000000000000000000000000000000000000000081526201117160048201526024016104e8565b61ffff8316603a84901c6401ffffffff16428181039160ea87901c617fff16911480610f2d575082155b80610f385750806001145b15610f4557505050915091565b64496cebb80084840283020484019350617fff60db87901c16925082600103610f7057505050915091565b82600116600103610fc55760019290921c91826c7e37be2022c0914b268000000081610f9e57610f9e6154fa565b049250612710601e87901c613fff166b033b2e3c9fd0803ce8000000850102049250610ff2565b60019290921c916305f5e100601e87901c613fff166127108501026b033b2e3c9fd0803ce8000000020492505b806001166001036110295760011c61271081016b033b2e3c9fd0803ce8000000820281611021576110216154fa565b04905061105f565b60011c61271081016b033b2e3c9fd0803ce800000082028161104d5761104d6154fa565b046b033b2e3c9fd0803ce80000000390505b760a70c3c40a64e6c51999090b65f67d92400000000000008382026127100261ffff881691900402601087901c613fff16612710030292506801b5a660ea44b8000085840283020485019450505050915091565b6000600f83811c9083901c0281681fffffffffffffffff82116110d75760226110da565b60235b91821c919050617fff8581169085160181016140008110156110fb57600080fd5b7fffffffffffffffffffffffffffffffffffffffffffffffffffffffffffffc00001617fff81111561113a57506603ffffffffffff9250611147915050565b80600f84901b1793505050505b92915050565b6000617fff83811690831603608181101561118557600f83811c821b9085901c86028161117c5761117c6154fa565b0491505061118b565b60009150505b9392505050565b600060ff82901d80831803617fff8111156111ac57600080fd5b70010000000000000000000000000000000060018216156111da57506fff9dd7de423466c20352b1246ce4856f5b60028216156111f9576fff3bd55f4488ad277531fa1c725a66d00260801c5b6004821615611218576ffe78410fd6498b73cb96a6917f8532590260801c5b6008821615611237576ffcf2d9987c9be178ad5bfeffaa1232730260801c5b6010821615611256576ff9ef02c4529258b057769680fc6601b30260801c5b6020821615611275576ff402d288133a85a17784a411f7aba0820260801c5b6040821615611294576fe895615b5beb6386553757b0352bda900260801c5b60808216156112b3576fd34f17a00ffa00a8309940a15930391a0260801c5b6101008216156112d3576fae6b7961714e20548d88ea5123f9a0ff0260801c5b6102008216156112f3576f76d6461f27082d74e0feed3b388c0ca10260801c5b610400821615611313576f372a3bfe0745d8b6b19d985d9a8b85bb0260801c5b610800821615611333576f0be32cbee48979763cf7247dd7bb539d0260801c5b611000821615611352576e8d4f70c9ff4924dac37612d1e2921e0260801c5b612000821615611370576d4e009ae5519380809a02ca7aec770260801c5b61400082161561138c576b17c45e641b6e95dee056ff100260801c5b600091507f800000000000000000000000000000000000000000000000000000000000000084166113ea577fffffffffffffffffffffffffffffffffffffffffffffffffffffffffffffffff0463ffffffff8116156113ea57600191505b60201c0192915050565b6000808313156115f257600085128061140d5750600084125b8061141f57508415801561141f575083155b1561145a576040517f60121cca0000000000000000000000000000000000000000000000000000000081526188b960048201526024016104e8565b7f000000000000000000000000000000000000000000000000000000000000000073ffffffffffffffffffffffffffffffffffffffff1663e980e1eb73eeeeeeeeeeeeeeeeeeeeeeeeeeeeeeeeeeeeeeee73ffffffffffffffffffffffffffffffffffffffff167f000000000000000000000000000000000000000000000000000000000000000073ffffffffffffffffffffffffffffffffffffffff161461155b577f000000000000000000000000000000000000000000000000000000000000000073ffffffffffffffffffffffffffffffffffffffff1673eeeeeeeeeeeeeeeeeeeeeeeeeeeeeeeeeeeeeeee1461155557600061155d565b8561155d565b865b6040517fffffffff0000000000000000000000000000000000000000000000000000000060e084901b1681526004810189905260248101889052604481018790526000606482015260840160206040518083038185885af11580156115c6573d6000803e3d6000fd5b50505050506040513d601f19601f820116820180604052508101906115eb9190615550565b90506117a2565b600083121561175a57600085138061160a5750600084135b8061161c57508415801561161c575083155b15611657576040517f60121cca0000000000000000000000000000000000000000000000000000000081526188b960048201526024016104e8565b73ffffffffffffffffffffffffffffffffffffffff7f00000000000000000000000000000000000000000000000000000000000000001663d331bef761169c87615598565b6116a587615598565b6116ae87615598565b6040517fffffffff0000000000000000000000000000000000000000000000000000000060e086901b16815260048101939093526024830191909152604482015273ffffffffffffffffffffffffffffffffffffffff851660648201526084016020604051808303816000875af115801561172d573d6000803e3d6000fd5b505050506040513d601f19601f820116820180604052508101906117519190615550565b6115eb90615598565b8415158061176757508315155b156117a2576040517f60121cca0000000000000000000000000000000000000000000000000000000081526188b960048201526024016104e8565b949350505050565b6000808313156118d75760008512806117c35750600084125b806117d55750841580156117d5575083155b15611810576040517f60121cca0000000000000000000000000000000000000000000000000000000081526188b960048201526024016104e8565b6040517f242011d500000000000000000000000000000000000000000000000000000000815260048101869052602481018590526044810184905273ffffffffffffffffffffffffffffffffffffffff83811660648301527f0000000000000000000000000000000000000000000000000000000000000000169063242011d5906084016020604051808303816000875af11580156118b3573d6000803e3d6000fd5b505050506040513d601f19601f820116820180604052508101906115eb9190615550565b600083121561175a5760008513806118ef5750600084135b80611901575084158015611901575083155b1561193c576040517f60121cca0000000000000000000000000000000000000000000000000000000081526188b960048201526024016104e8565b7f000000000000000000000000000000000000000000000000000000000000000073ffffffffffffffffffffffffffffffffffffffff16636876698173eeeeeeeeeeeeeeeeeeeeeeeeeeeeeeeeeeeeeeee73ffffffffffffffffffffffffffffffffffffffff167f000000000000000000000000000000000000000000000000000000000000000073ffffffffffffffffffffffffffffffffffffffff1614611a45577f000000000000000000000000000000000000000000000000000000000000000073ffffffffffffffffffffffffffffffffffffffff1673eeeeeeeeeeeeeeeeeeeeeeeeeeeeeeeeeeeeeeee14611a37576000611a4e565b611a4086615598565b611a4e565b611a4e87615598565b611a5788615598565b611a6088615598565b611a6988615598565b6040517fffffffff0000000000000000000000000000000000000000000000000000000060e087901b1681526004810193909352602483019190915260448201526000606482015260840160206040518083038185885af1158015611ad2573d6000803e3d6000fd5b50505050506040513d601f19601f820116820180604052508101906117519190615550565b600080808087158015611b08575086155b80611b4857508715801590611b4857507fffffffffffffffffffffffffffffffffffffffffffffffffffffffffffffd8f088138015611b48575061271088125b80611b8857508615801590611b8857507fffffffffffffffffffffffffffffffffffffffffffffffffffffffffffffd8f087138015611b88575061271087125b15611bc3576040517f60121cca00000000000000000000000000000000000000000000000000000000815261791a60048201526024016104e8565b611c43604051806102000160405280600081526020016000815260200160008152602001600081526020016000815260200160008152602001600081526020016000815260200160008152602001600081526020016000815260200160008152602001600081526020016000815260200160008152602001600081525090565b600154610100820152600286901c620fffff166000808215611c8b5782600116600114611c7c576207ffff600184901c16600003611cad565b6207ffff600184901c16611cad565b7f80000000000000000000000000000000000000000000000000000000000000005b61014085015260008d9003611ddf577f800000000000000000000000000000000000000000000000000000000000000060c08501526040517f94bf804d0000000000000000000000000000000000000000000000000000000081527f000000000000000000000000000000000000000000000000000000000000000060048201523360248201527f000000000000000000000000000000000000000000000000000000000000000073ffffffffffffffffffffffffffffffffffffffff16906394bf804d906044016020604051808303816000875af1158015611d94573d6000803e3d6000fd5b505050506040513d601f19601f82011682018060405250810190611db89190615550565b9c50887a040000000000000000000000000000000000000000000000000000019850612001565b8c925060008c1280611df1575060008b135b8015611ec257506040517f6352211e00000000000000000000000000000000000000000000000000000000815260048101849052339073ffffffffffffffffffffffffffffffffffffffff7f00000000000000000000000000000000000000000000000000000000000000001690636352211e90602401602060405180830381865afa158015611e85573d6000803e3d6000fd5b505050506040513d601f19601f82011682018060405250810190611ea991906155d0565b73ffffffffffffffffffffffffffffffffffffffff1614155b15611efd576040517f60121cca00000000000000000000000000000000000000000000000000000000815261791c60048201526024016104e8565b60008d8152600360205260408120549350839003611f4b576040517f60121cca00000000000000000000000000000000000000000000000000000000815261792360048201526024016104e8565b66ffffffffffffff603584901c811660ff602d86901c81169190911b6060870152607585901c909116606d85901c9182161b60a086015267ffffffffffffffff16915060018084169003611fc4577f800000000000000000000000000000000000000000000000000000000000000060c0850152612001565b82600216600214611fe1576207ffff600284901c16600003611fec565b6207ffff600284901c165b60c0850152601583901c62ffffff1660e08501525b7f80000000000000000000000000000000000000000000000000000000000000008460c0015113156122ef57602d9290921c60ff1691821561204c5760608401516001841b01612055565b83606001516001015b925060608361206a8660c0015160020b611192565b61207491906154e3565b612080911c600161553d565b608085015260c08401516000908152600560205260409020549250600180841614806120b857508360e0015162ffffff600185901c16115b156121e0576120d58460c001518560e00151866080015186610782565b6101c089015260608801919091526080870182905260c087019290925260a086015191935011156121a95767ffffffffffffffff6034856101c00151901c16925060ff8316600884901c901b925083608001518361213391906154d0565b9250606483101561214357606492505b603461215484603860086001614309565b6101c086015160008581526007602052604090207ffffffffffffffffffffffffffffffffffff0000000000000000fffffffffffff9091169190921b17905560a08401516080850180519190910390526122e7565b83608001518460a00151600a546121c0919061553d565b6121ca91906154d0565b600a5560006080850181905260608501526122e7565b67ffffffffffffffff601984901c1691508160000361222f576040517f60121cca00000000000000000000000000000000000000000000000000000000815261791d60048201526024016104e8565b60ff8216600883901c901b91508184608001511061224e576000612256565b836080015182035b915061271082101561229d57600091508361014001518460c001510361228e576122858461014001518a614432565b61014086015298505b61229d8460c001516000614614565b60196122ae83603860086000614309565b60c08601516000908152600560205260409020911b6301ffffff851617905560a08401516080850180516122e39083906154d0565b9052505b600060a08501525b60c08401516040850152606084015184526080840151602085015261010084015161231990610299565b6101a08801526101808701525061016085015260008c13156123bf5761018084015161234a64e8d4a510008e6154e3565b6123549190615529565b84606001818151612365919061553d565b90525060608401516fffffffffffffffffffffffffffffffff10156123ba576040517f60121cca00000000000000000000000000000000000000000000000000000000815261792f60048201526024016104e8565b612516565b60008c1215612516577fffffffffffffffffffffffffffffffff800000000000000000000000000000008c13156124725761018084015160019061240864e8d4a510008f6155ed565b6124129190615639565b61241c91906156a1565b90508360600151816000031115612463576040517f60121cca00000000000000000000000000000000000000000000000000000000815261792660048201526024016104e8565b60608401805182019052612516565b7f80000000000000000000000000000000000000000000000000000000000000008c036124e05764e8d4a5100084610180015185606001516124b491906154e3565b6124be9190615529565b6124c790615598565b6124d29060016156c8565b600060608601529b50612516565b6040517f60121cca00000000000000000000000000000000000000000000000000000000815261792f60048201526024016104e8565b60008b13156125e6576101a084015161253464e8d4a510008d6154e3565b61253e9190615529565b61254990600161553d565b92506127106103ff6052866101000151901c168461256791906154e3565b6125719190615529565b61257b908461553d565b8460800181815161258c919061553d565b90525060808401516fffffffffffffffffffffffffffffffff10156125e1576040517f60121cca00000000000000000000000000000000000000000000000000000000815261792f60048201526024016104e8565b612706565b60008b1215612706577fffffffffffffffffffffffffffffffff800000000000000000000000000000008b131561269b576101a084015161262c64e8d4a510008d6155ed565b6126369190615639565b6126419060016156c8565b9050806000039050836080015181111561268b576040517f60121cca00000000000000000000000000000000000000000000000000000000815261792760048201526024016104e8565b6080840180518290039052612706565b7f80000000000000000000000000000000000000000000000000000000000000008b036124e057600164e8d4a51000856101a0015186608001516126df91906154e3565b6126e99190615529565b6126f290615598565b6126fc91906156a1565b600060808601529a505b8b15801561271257508a155b1561274d576040517f60121cca00000000000000000000000000000000000000000000000000000000815261791a60048201526024016104e8565b6080840151156129c2576127858460600151633b9aca008660800151633b9aca01028161277c5761277c6154fa565b04600101614687565b60a0880152608087015260e086015260c085015260008b12156127f75783602001518460a0015185608001516127bb91906154d0565b11156127f7576040517f60121cca00000000000000000000000000000000000000000000000000000000815261793460048201526024016104e8565b60008c13801561280557508a155b156128aa5783516020850151612829906c01000000000000000000000000906154e3565b6128339190615529565b84606001516c010000000000000000000000008660a00151876080015161285a91906154d0565b61286491906154e3565b61286e9190615529565b11156128aa576040517f60121cca00000000000000000000000000000000000000000000000000000000815261793460048201526024016104e8565b8361014001518460c00151126129bd5760008460c00151126128d75760018460c00151901b6001176128e3565b60c084015160000360011b5b92508860021660000361292057600283901b897fffffffffffffffffffffffffffffffffffffffffffffffffffffffffffc00000161798506129e9565b600160348a811c633fffffff16919091016000818152600760205260409020780fffffffc0000000000000000000000000000000000000000060908d901b167afffff000000000000000000000000000000000000000000000000060c28e901b161790557ffffffffffffffffffffffffffffffffffffffffffffc00000000000000000000909a16600285901b1760168b901b17908a901b179891505b6129e9565b7f800000000000000000000000000000000000000000000000000000000000000060c08501525b60008c12806129f8575060008b135b15612c525773ffffffffffffffffffffffffffffffffffffffff8a16612a1c573399505b60008460800151118015612a6b57508360c001518460400151131580612a6b5750633b9aca008460200151633b9aca010281612a5a57612a5a6154fa565b046001018460a00151856080015103115b15612c5257612aa97f0000000000000000000000000000000000000000000000000000000000000000633fffffff605c876101000151901c16614864565b73ffffffffffffffffffffffffffffffffffffffff16638e7bfbc06040518163ffffffff1660e01b8152600401602060405180830381865afa158015612af3573d6000803e3d6000fd5b505050506040513d601f19601f82011682018060405250810190612b179190615550565b9250760a70c3c40a64e6c51999090b65f67d9240000000000000831180612b415750633b9aca0083105b15612b7c576040517f60121cca00000000000000000000000000000000000000000000000000000000815261793960048201526024016104e8565b836101a00151846101800151840281612b9757612b976154fa565b049250722cd76fe086b93ce2f768a00b22a00000000000831115612bcc57722cd76fe086b93ce2f768a00b22a0000000000092505b6101008401516103e89060201c6103ff1684020491506b033b2e3c9fd0803ce80000006c010000000000000000000000008302049150612c0b82614cce565b5080915050808460c001511315612c52576040517f60121cca00000000000000000000000000000000000000000000000000000000815261791e60048201526024016104e8565b7f80000000000000000000000000000000000000000000000000000000000000008460c001511315612cae5760008460c0015112612c9b5760018460c00151901b600117612ca7565b60c084015160000360011b5b9250612cb3565b600092505b60a0840151606d90612cca90603860086000614309565b6060860151911b90602d90612ce490603860086000614309565b60e0870151911b9060151b600186901b8615612d01576000612d04565b60015b60ff1617171717600360008f81526020019081526020016000208190555060008c1215612f5a57610100840151603e1c6103ff1692508215612f5a576040517fb5c736e40000000000000000000000000000000000000000000000000000000081527f000000000000000000000000000000000000000000000000000000000000000060048201527f000000000000000000000000000000000000000000000000000000000000000073ffffffffffffffffffffffffffffffffffffffff169063b5c736e490602401602060405180830381865afa158015612dea573d6000803e3d6000fd5b505050506040513d601f19601f82011682018060405250810190612e0e9190615550565b6101e0850181905266ffffffffffffff600982901c1660ff600183901c161b9250612e3990836150e3565b9050614e207f00000000000000000000000000000000000000000000000000000000000000001480612e8c5750619c407f0000000000000000000000000000000000000000000000000000000000000000145b15612ee857600081138015612ea85750806103e8848103840205125b15612ee3576040517f60121cca00000000000000000000000000000000000000000000000000000000815261792860048201526024016104e8565b612f5a565b600081138015612f1f575083610160015164e8d4a510008d6000030281612f1157612f116154fa565b05816103e885810385020503125b15612f5a576040517f60121cca00000000000000000000000000000000000000000000000000000000815261792860048201526024016104e8565b60008c138015612fb85750614e207f00000000000000000000000000000000000000000000000000000000000000001480612fb65750619c407f0000000000000000000000000000000000000000000000000000000000000000145b155b15613132577f000000000000000000000000000000000000000000000000000000000000000073ffffffffffffffffffffffffffffffffffffffff1663ad967e1573eeeeeeeeeeeeeeeeeeeeeeeeeeeeeeeeeeeeeeee73ffffffffffffffffffffffffffffffffffffffff167f000000000000000000000000000000000000000000000000000000000000000073ffffffffffffffffffffffffffffffffffffffff1614613067576000613069565b8d5b7f00000000000000000000000000000000000000000000000000000000000000008f6000806000336040516020016130bd919073ffffffffffffffffffffffffffffffffffffffff91909116815260200190565b6040516020818303038152906040526040518863ffffffff1660e01b81526004016130ed96959493929190615754565b604080518083038185885af115801561310a573d6000803e3d6000fd5b50505050506040513d601f19601f8201168201806040525081019061312f91906157ad565b50505b60008b12801561319057506175307f0000000000000000000000000000000000000000000000000000000000000000148061318e5750619c407f0000000000000000000000000000000000000000000000000000000000000000145b155b15613308577fffffffffffffffffffffffff11111111111111111111111111111111111111127f000000000000000000000000000000000000000000000000000000000000000073ffffffffffffffffffffffffffffffffffffffff16016131fd578a6000039250613202565b600092505b7f000000000000000000000000000000000000000000000000000000000000000073ffffffffffffffffffffffffffffffffffffffff1663ad967e15847f000000000000000000000000000000000000000000000000000000000000000060008f60008033604051602001613293919073ffffffffffffffffffffffffffffffffffffffff91909116815260200190565b6040516020818303038152906040526040518863ffffffff1660e01b81526004016132c396959493929190615754565b604080518083038185885af11580156132e0573d6000803e3d6000fd5b50505050506040513d601f19601f8201168201806040525081019061330591906157ad565b50505b60008c1280156133665750614e207f000000000000000000000000000000000000000000000000000000000000000014806133645750619c407f0000000000000000000000000000000000000000000000000000000000000000145b155b1561345f5773ffffffffffffffffffffffffffffffffffffffff7f00000000000000000000000000000000000000000000000000000000000000001663ad967e157f00000000000000000000000000000000000000000000000000000000000000008e60008e81806040519080825280601f01601f1916602001820160405280156133f8576020820181803683370190505b506040518763ffffffff1660e01b815260040161341a96959493929190615754565b60408051808303816000875af1158015613438573d6000803e3d6000fd5b505050506040513d601f19601f8201168201806040525081019061345c91906157ad565b50505b60008b1380156134bd57506175307f000000000000000000000000000000000000000000000000000000000000000014806134bb5750619c407f0000000000000000000000000000000000000000000000000000000000000000145b155b156135b65773ffffffffffffffffffffffffffffffffffffffff7f00000000000000000000000000000000000000000000000000000000000000001663ad967e157f000000000000000000000000000000000000000000000000000000000000000060008e818f816040519080825280601f01601f19166020018201604052801561354f576020820181803683370190505b506040518763ffffffff1660e01b815260040161357196959493929190615754565b60408051808303816000875af115801561358f573d6000803e3d6000fd5b505050506040513d601f19601f820116820180604052508101906135b391906157ad565b50505b67ffffffffffffffff60528a901c1692508360000151846060015160ff8516600886901c901b6135e6919061553d565b6135f091906154d0565b925067ffffffffffffffff60928a901c16915083602001518460a00151856080015161361c91906154d0565b61362f90600885901c60ff86161b61553d565b61363991906154d0565b9150609261364c83603860086001614309565b901b605261365f85603860086000614309565b901b8a7ffffffffffffc00000000000000000000000000000003ffffffffffffffffffff16171798507ffef64760e30a41b9d5ba7dd65ff7236a61d89ed8b44c67a29e84db1a67513a1c338e8e8e8e6040516136f795949392919073ffffffffffffffffffffffffffffffffffffffff9586168152602081019490945260408401929092526060830152909116608082015260a00190565b60405180910390a1509a9b999a5097989597509495505050505050565b30318181111561372e5761372a33838303615177565b5050565b8181101561372a576040517f60121cca00000000000000000000000000000000000000000000000000000000815261791b60048201526024016104e8565b600080600084131580613780575060008413155b156137bb576040517f60121cca0000000000000000000000000000000000000000000000000000000081526188b960048201526024016104e8565b6000807f000000000000000000000000000000000000000000000000000000000000000073ffffffffffffffffffffffffffffffffffffffff16634d9036de73eeeeeeeeeeeeeeeeeeeeeeeeeeeeeeeeeeeeeeee73ffffffffffffffffffffffffffffffffffffffff167f000000000000000000000000000000000000000000000000000000000000000073ffffffffffffffffffffffffffffffffffffffff16146138bf577f000000000000000000000000000000000000000000000000000000000000000073ffffffffffffffffffffffffffffffffffffffff1673eeeeeeeeeeeeeeeeeeeeeeeeeeeeeeeeeeeeeeee146138b95760006138c1565b866138c1565b875b6040517fffffffff0000000000000000000000000000000000000000000000000000000060e084901b168152600481018b9052602481018a90526044810189905260006064820152608401604080518083038185885af1158015613929573d6000803e3d6000fd5b50505050506040513d601f19601f8201168201806040525081019061394e91906157ad565b909890975095505050505050565b6000806000806000871280156139725750600086125b15613a7a5773ffffffffffffffffffffffffffffffffffffffff7f0000000000000000000000000000000000000000000000000000000000000000166335f0df986139bc8a615598565b6139c58a615598565b6139ce8a615598565b6040517fffffffff0000000000000000000000000000000000000000000000000000000060e086901b16815260048101939093526024830191909152604482015273ffffffffffffffffffffffffffffffffffffffff8816606482015260840160408051808303816000875af1158015613a4c573d6000803e3d6000fd5b505050506040513d601f19601f82011682018060405250810190613a7091906157ad565b9092509050613cd8565b600087128015613a88575085155b15613b8e5773ffffffffffffffffffffffffffffffffffffffff7f000000000000000000000000000000000000000000000000000000000000000016634c89bfd4613ad28a615598565b613adb8a615598565b613ae48a615598565b6040517fffffffff0000000000000000000000000000000000000000000000000000000060e086901b16815260048101939093526024830191909152604482015273ffffffffffffffffffffffffffffffffffffffff881660648201526084016020604051808303816000875af1158015613b63573d6000803e3d6000fd5b505050506040513d601f19601f82011682018060405250810190613b879190615550565b9150613cd8565b86158015613b9c5750600086125b15613ca25773ffffffffffffffffffffffffffffffffffffffff7f000000000000000000000000000000000000000000000000000000000000000016634c89bfd4613be68a615598565b613bef8a615598565b613bf88a615598565b6040517fffffffff0000000000000000000000000000000000000000000000000000000060e086901b16815260048101939093526024830191909152604482015273ffffffffffffffffffffffffffffffffffffffff881660648201526084016020604051808303816000875af1158015613c77573d6000803e3d6000fd5b505050506040513d601f19601f82011682018060405250810190613c9b9190615550565b9050613cd8565b6040517f60121cca0000000000000000000000000000000000000000000000000000000081526188b960048201526024016104e8565b613ce182615598565b9350613cec81615598565b9250505094509492505050565b600080600080600086128015613d0f5750600085125b15613ed8577f000000000000000000000000000000000000000000000000000000000000000073ffffffffffffffffffffffffffffffffffffffff16635b3d38d773eeeeeeeeeeeeeeeeeeeeeeeeeeeeeeeeeeeeeeee73ffffffffffffffffffffffffffffffffffffffff167f000000000000000000000000000000000000000000000000000000000000000073ffffffffffffffffffffffffffffffffffffffff1614613e1d577f000000000000000000000000000000000000000000000000000000000000000073ffffffffffffffffffffffffffffffffffffffff1673eeeeeeeeeeeeeeeeeeeeeeeeeeeeeeeeeeeeeeee14613e0f576000613e26565b613e1887615598565b613e26565b613e2688615598565b613e2f8a615598565b613e388a615598565b613e418a615598565b6040517fffffffff0000000000000000000000000000000000000000000000000000000060e087901b16815260048101939093526024830191909152604482015260006064820152608401604080518083038185885af1158015613ea9573d6000803e3d6000fd5b50505050506040513d601f19601f82011682018060405250810190613ece91906157ad565b90925090506141c0565b600086128015613ee6575084155b1561404e577f000000000000000000000000000000000000000000000000000000000000000073ffffffffffffffffffffffffffffffffffffffff166330acd6fd73eeeeeeeeeeeeeeeeeeeeeeeeeeeeeeeeeeeeeeee73ffffffffffffffffffffffffffffffffffffffff167f000000000000000000000000000000000000000000000000000000000000000073ffffffffffffffffffffffffffffffffffffffff1614613f95576000613f9e565b613f9e88615598565b613fa78a615598565b613fb08a615598565b613fb98a615598565b6040517fffffffff0000000000000000000000000000000000000000000000000000000060e087901b1681526004810193909352602483019190915260448201526000606482015260840160206040518083038185885af1158015614022573d6000803e3d6000fd5b50505050506040513d601f19601f820116820180604052508101906140479190615550565b91506141c0565b8515801561405c5750600085125b15613ca2577f000000000000000000000000000000000000000000000000000000000000000073ffffffffffffffffffffffffffffffffffffffff166330acd6fd73eeeeeeeeeeeeeeeeeeeeeeeeeeeeeeeeeeeeeeee73ffffffffffffffffffffffffffffffffffffffff167f000000000000000000000000000000000000000000000000000000000000000073ffffffffffffffffffffffffffffffffffffffff161461410b576000614114565b61411487615598565b61411d8a615598565b6141268a615598565b61412f8a615598565b6040517fffffffff0000000000000000000000000000000000000000000000000000000060e087901b1681526004810193909352602483019190915260448201526000606482015260840160206040518083038185885af1158015614198573d6000803e3d6000fd5b50505050506040513d601f19601f820116820180604052508101906141bd9190615550565b90505b6141c982615598565b93506141d481615598565b92505050935093915050565b6000806000851315806141f4575060008413155b1561422f576040517f60121cca0000000000000000000000000000000000000000000000000000000081526188b960048201526024016104e8565b6040517fe27203cd00000000000000000000000000000000000000000000000000000000815260048101879052602481018690526044810185905273ffffffffffffffffffffffffffffffffffffffff848116606483015260009182917f0000000000000000000000000000000000000000000000000000000000000000169063e27203cd9060840160408051808303816000875af11580156142d6573d6000803e3d6000fd5b505050506040513d601f19601f820116820180604052508101906142fa91906157ad565b90999098509650505050505050565b600080856fffffffffffffffffffffffffffffffff81111561432c5760809150811c5b67ffffffffffffffff811115614344576040918201911c5b63ffffffff811115614358576020918201911c5b61ffff81111561436a576010918201911c5b60ff81111561437b576008918201911c5b600f81111561438c576004918201911c5b600381111561439d576002918201911c5b60018111156143ad576001820191505b80156143ba576001820191505b50848110156143c65750835b848103905085811c6000821184161561441557600181019050806001871b0361441557506001908101907fffffffffffffffffffffffffffffffffffffffffffffffffffffffffffffffff86011b5b6001851b821061442457600080fd5b90931b909201949350505050565b601681901c633fffffff166000818152600760205260408120549091829182600160c483901c81169003614470575060c581901c6207ffff166144a8565b5060c581901c6207ffff166000819003906144a857507f80000000000000000000000000000000000000000000000000000000000000005b60006144b3886151c8565b90508082136144c257806144c4565b815b94507f8000000000000000000000000000000000000000000000000000000000000000850361451757867fffffffffffffffffffffffffffffffffffffffffffffffffffffffffffc00001169650614606565b80850361458d57600085121561455a57600385600003901b877fffffffffffffffffffffffffffffffffffffffffffffffffffffffffffc0000116179650614606565b600385901b877fffffffffffffffffffffffffffffffffffffffffffffffffffffffffffc0000116600417179650614606565b6000848152600760205260408120557ffffffffffffffffffffffffffffffffffffffffffffc00000000000000000001909616623ffffc60c284901c1617660fffffffc00000609084901c16177fffffffffffffffffffffffffffffffffffffffffffffffffffffffffffffffff840160341b17600217955b869550505050509250929050565b6000808312614627576101008305614632565b600161010084820105035b9050610100810283038261465a576000828152600460205260409020546001821b191661466f565b6000828152600460205260409020546001821b175b60009283526004602052604090922091909155505050565b6000806000806127108510156146cd576040517f60121cca00000000000000000000000000000000000000000000000000000000815261793360048201526024016104e8565b6000866146e76c01000000000000000000000000886154e3565b6146f19190615529565b90506146fc81614cce565b60019091019550905061271061271f8202049050606061471c88836154e3565b901c925061472a86846154d0565b600086815260056020526040812054600181901c62ffffff1696509193508515801590614758575060018216155b156147995766ffffffffffffff602183901c1660ff601984901c161b61477e868261553d565b91508060000361479357614793886001614614565b506147ed565b85156147d9576000878152600660209081526040808320600360028b0181810486529190935292208054601986901c929093066055029190911b90911790555b8560010195508490506147ed876001614614565b61271081101561482d576040517f60121cca00000000000000000000000000000000000000000000000000000000815261793160048201526024016104e8565b601961483e82603860086000614309565b6000898152600560205260409020911b600188901b179055509497939650919450925050565b600060608260000361487a576000915050611147565b607f8311614943576040517fd60000000000000000000000000000000000000000000000000000000000000060208201527f940000000000000000000000000000000000000000000000000000000000000060218201527fffffffffffffffffffffffffffffffffffffffff000000000000000000000000606086901b16602282015260f884901b7fff000000000000000000000000000000000000000000000000000000000000001660368201526037015b6040516020818303038152906040529050614cbf565b60ff8311614a20576040517fd70000000000000000000000000000000000000000000000000000000000000060208201527f940000000000000000000000000000000000000000000000000000000000000060218201527fffffffffffffffffffffffffffffffffffffffff000000000000000000000000606086901b1660228201527f8100000000000000000000000000000000000000000000000000000000000000603682015260f884901b7fff0000000000000000000000000000000000000000000000000000000000000016603782015260380161492d565b61ffff8311614afe576040517fd80000000000000000000000000000000000000000000000000000000000000060208201527f940000000000000000000000000000000000000000000000000000000000000060218201527fffffffffffffffffffffffffffffffffffffffff000000000000000000000000606086901b1660228201527f820000000000000000000000000000000000000000000000000000000000000060368201527fffff00000000000000000000000000000000000000000000000000000000000060f085901b16603782015260390161492d565b62ffffff8311614bdd576040517fd90000000000000000000000000000000000000000000000000000000000000060208201527f940000000000000000000000000000000000000000000000000000000000000060218201527fffffffffffffffffffffffffffffffffffffffff000000000000000000000000606086901b1660228201527f830000000000000000000000000000000000000000000000000000000000000060368201527fffffff000000000000000000000000000000000000000000000000000000000060e885901b166037820152603a0161492d565b6040517fda0000000000000000000000000000000000000000000000000000000000000060208201527f940000000000000000000000000000000000000000000000000000000000000060218201527fffffffffffffffffffffffffffffffffffffffff000000000000000000000000606086901b1660228201527f840000000000000000000000000000000000000000000000000000000000000060368201527fffffffff0000000000000000000000000000000000000000000000000000000060e085901b166037820152603b0160405160208183030381529060405290505b80516020909101209392505050565b600080630235b88083107473d85bca016a2338b31715f8e13054c005f8b995d384111715614cfb57600080fd5b6c010000000000000000000000008310600081614d3157506c010000000000000000000000006a52b7d2dcc80cd2e40000008502045b8115614d5457507652b7d2dcc80cd2e40000000000000000000000000000008490045b6f037af932b2affa9738cc6c38ca5278318110614d9557614000841793506f037af932b2affa9738cc6c38ca5278316a52b7d2dcc80cd2e400000082020490505b6d010f7a088a76f267264caa114f0a8110614dd257612000841793506d010f7a088a76f267264caa114f0a6a52b7d2dcc80cd2e400000082020490505b6b95da74f87f839fc2e0dc5bd98110614e0b57611000841793506b95da74f87f839fc2e0dc5bd96a52b7d2dcc80cd2e400000082020490505b6b06f55dedafd8491caed5a1b88110614e4457610800841793506b06f55dedafd8491caed5a1b86a52b7d2dcc80cd2e400000082020490505b6b017fdd10ee11e624491b4cc18110614e7d57610400841793506b017fdd10ee11e624491b4cc16a52b7d2dcc80cd2e400000082020490505b6ab23131bf0c30217b0a2c698110614eb457610200841793506ab23131bf0c30217b0a2c696a52b7d2dcc80cd2e400000082020490505b6a79683edcb9280d797aded78110614eeb57610100841793506a79683edcb9280d797aded76a52b7d2dcc80cd2e400000082020490505b6a64366e2f9919f0d9b0dc908110614f21576080841793506a64366e2f9919f0d9b0dc906a52b7d2dcc80cd2e400000082020490505b6a5b0bcda5a78850646b0a818110614f57576040841793506a5b0bcda5a78850646b0a816a52b7d2dcc80cd2e400000082020490505b6a56c840f992c70f959ae8108110614f8d576020841793506a56c840f992c70f959ae8106a52b7d2dcc80cd2e400000082020490505b6a54b9cd178695194f9be0a08110614fc3576010841793506a54b9cd178695194f9be0a06a52b7d2dcc80cd2e400000082020490505b6a53b7458aff204b5e65d6818110614ff9576008841793506a53b7458aff204b5e65d6816a52b7d2dcc80cd2e400000082020490505b6a53372a2f38c240d689e400811061502f576004841793506a53372a2f38c240d689e4006a52b7d2dcc80cd2e400000082020490505b6a52f76617a04499e66400008110615065576002841793506a52f76617a04499e66400006a52b7d2dcc80cd2e400000082020490505b6a52d79660f3dec355c00000811061509b576001841793506a52d79660f3dec355c000006a52b7d2dcc80cd2e400000082020490505b816150b357806a52b7d2dcc80cd2e400000086020492505b81156150cf579219926a52d79660f3dec355c000008582020492505b5050828111156150de57600080fd5b915091565b600066ffffffffffffff604984901c1660ff604185901c161b80820361510d576000915050611147565b612710613fff60a286901c168402046401ffffffff608186901c16420362ffffff60b087901c1661513e82846154e3565b6151489190615529565b905080831161515857600061515c565b8083035b9350508084038381111561516e578093505b50505092915050565b60008060008060008587614e20f19050806151c3576040517fdee51a8a0000000000000000000000000000000000000000000000000000000081526201155a60048201526024016104e8565b505050565b60008060008084126151de5761010084056151e9565b600161010085820105035b600081815260046020526040812054919350859003610100808502919091010190811b811c91505b8115615230576001615222836152c3565b8461010002010393506152bb565b7fffffffffffffffffffffffffffffffffffffffffffffffffffffffffffffffff8301927fffffffffffffffffffffffffffffffffffffffffffffffffffffffffffffff7f036001016152a5577f800000000000000000000000000000000000000000000000000000000000000093506152bb565b6000838152600460205260409020549150615211565b505050919050565b6000816fffffffffffffffffffffffffffffffff8311156152e55760809150811c5b67ffffffffffffffff8111156152fd576040918201911c5b63ffffffff811115615311576020918201911c5b61ffff811115615323576010918201911c5b60ff811115615334576008918201911c5b600f811115615345576004918201911c5b6003811115615356576002918201911c5b6001811115615366576001820191505b8015615373576001820191505b50919050565b60006020828403121561538b57600080fd5b5035919050565b600080600080608085870312156153a857600080fd5b5050823594602084013594506040840135936060013592509050565b73ffffffffffffffffffffffffffffffffffffffff811681146153e657600080fd5b50565b600080600080600080600080610100898b03121561540657600080fd5b883597506020890135965060408901359550606089013594506080890135935060a0890135925060c0890135915060e0890135615442816153c4565b809150509295985092959890939650565b6000604082018483526020604081850152818551808452606086019150828701935060005b8181101561549457845183529383019391830191600101615478565b5090979650505050505050565b7f4e487b7100000000000000000000000000000000000000000000000000000000600052601160045260246000fd5b81810381811115611147576111476154a1565b8082028115828204841417611147576111476154a1565b7f4e487b7100000000000000000000000000000000000000000000000000000000600052601260045260246000fd5b600082615538576155386154fa565b500490565b80820180821115611147576111476154a1565b60006020828403121561556257600080fd5b5051919050565b7f4e487b7100000000000000000000000000000000000000000000000000000000600052603260045260246000fd5b60007f800000000000000000000000000000000000000000000000000000000000000082036155c9576155c96154a1565b5060000390565b6000602082840312156155e257600080fd5b815161118b816153c4565b808202600082127f800000000000000000000000000000000000000000000000000000000000000084141615615625576156256154a1565b8181058314821517611147576111476154a1565b600082615648576156486154fa565b7fffffffffffffffffffffffffffffffffffffffffffffffffffffffffffffffff83147f80000000000000000000000000000000000000000000000000000000000000008314161561569c5761569c6154a1565b500590565b81810360008312801583831316838312821617156156c1576156c16154a1565b5092915050565b80820182811260008312801582168215821617156156e8576156e86154a1565b505092915050565b6000815180845260005b81811015615716576020818501810151868301820152016156fa565b5060006020828601015260207fffffffffffffffffffffffffffffffffffffffffffffffffffffffffffffffe0601f83011685010191505092915050565b600073ffffffffffffffffffffffffffffffffffffffff8089168352876020840152866040840152808616606084015280851660808401525060c060a08301526157a160c08301846156f0565b98975050505050505050565b600080604083850312156157c057600080fd5b50508051602090910151909290915056fea2646970667358221220bac6882463e3001a51574a5f8a0eacf0f704380d47fc57a7d4f9d7a00136dfa064736f6c63430008150033"
}