{
  "address": "0x028c3E860fB8F7a234a3faaD9f9f31Bcb883903e",
  "abi": [
    {
      "inputs": [
        {
          "components": [
            {
              "internalType": "address",
              "name": "liquidity",
              "type": "address"
            },
            {
              "internalType": "address",
              "name": "factory",
              "type": "address"
            },
            {
              "internalType": "address",
              "name": "operateImplementation",
              "type": "address"
            },
            {
              "internalType": "address",
              "name": "adminImplementation",
              "type": "address"
            },
            {
              "internalType": "address",
              "name": "secondaryImplementation",
              "type": "address"
            },
            {
              "internalType": "address",
              "name": "deployer",
              "type": "address"
            },
            {
              "internalType": "address",
              "name": "supply",
              "type": "address"
            },
            {
              "internalType": "address",
              "name": "borrow",
              "type": "address"
            },
            {
              "components": [
                {
                  "internalType": "address",
                  "name": "token0",
                  "type": "address"
                },
                {
                  "internalType": "address",
                  "name": "token1",
                  "type": "address"
                }
              ],
              "internalType": "struct Structs.Tokens",
              "name": "supplyToken",
              "type": "tuple"
            },
            {
              "components": [
                {
                  "internalType": "address",
                  "name": "token0",
                  "type": "address"
                },
                {
                  "internalType": "address",
                  "name": "token1",
                  "type": "address"
                }
              ],
              "internalType": "struct Structs.Tokens",
              "name": "borrowToken",
              "type": "tuple"
            },
            {
              "internalType": "uint256",
              "name": "vaultId",
              "type": "uint256"
            },
            {
              "internalType": "uint256",
              "name": "vaultType",
              "type": "uint256"
            },
            {
              "internalType": "bytes32",
              "name": "supplyExchangePriceSlot",
              "type": "bytes32"
            },
            {
              "internalType": "bytes32",
              "name": "borrowExchangePriceSlot",
              "type": "bytes32"
            },
            {
              "internalType": "bytes32",
              "name": "userSupplySlot",
              "type": "bytes32"
            },
            {
              "internalType": "bytes32",
              "name": "userBorrowSlot",
              "type": "bytes32"
            }
          ],
          "internalType": "struct Structs.ConstantViews",
          "name": "constants_",
          "type": "tuple"
        }
      ],
      "stateMutability": "nonpayable",
      "type": "constructor"
    },
    {
      "inputs": [
        {
          "internalType": "uint256",
          "name": "colLiquidated",
          "type": "uint256"
        },
        {
          "internalType": "uint256",
          "name": "debtLiquidated",
          "type": "uint256"
        }
      ],
      "name": "FluidLiquidateResult",
      "type": "error"
    },
    {
      "inputs": [
        {
          "internalType": "uint256",
          "name": "errorId_",
          "type": "uint256"
        }
      ],
      "name": "FluidLiquidityCalcsError",
      "type": "error"
    },
    {
      "inputs": [
        {
          "internalType": "uint256",
          "name": "errorId_",
          "type": "uint256"
        }
      ],
      "name": "FluidSafeTransferError",
      "type": "error"
    },
    {
      "inputs": [
        {
          "internalType": "uint256",
          "name": "errorId_",
          "type": "uint256"
        }
      ],
      "name": "FluidVaultError",
      "type": "error"
    },
    {
      "anonymous": false,
      "inputs": [
        {
          "indexed": false,
          "internalType": "uint256",
          "name": "colAbsorbedRaw_",
          "type": "uint256"
        },
        {
          "indexed": false,
          "internalType": "uint256",
          "name": "debtAbsorbedRaw_",
          "type": "uint256"
        }
      ],
      "name": "LogAbsorb",
      "type": "event"
    },
    {
      "anonymous": false,
      "inputs": [
        {
          "indexed": false,
          "internalType": "address",
          "name": "liquidator_",
          "type": "address"
        },
        {
          "indexed": false,
          "internalType": "uint256",
          "name": "colAmt_",
          "type": "uint256"
        },
        {
          "indexed": false,
          "internalType": "uint256",
          "name": "debtAmt_",
          "type": "uint256"
        },
        {
          "indexed": false,
          "internalType": "address",
          "name": "to_",
          "type": "address"
        }
      ],
      "name": "LogLiquidate",
      "type": "event"
    },
    {
      "anonymous": false,
      "inputs": [
        {
          "indexed": false,
          "internalType": "address",
          "name": "user_",
          "type": "address"
        },
        {
          "indexed": false,
          "internalType": "uint256",
          "name": "nftId_",
          "type": "uint256"
        },
        {
          "indexed": false,
          "internalType": "int256",
          "name": "colAmt_",
          "type": "int256"
        },
        {
          "indexed": false,
          "internalType": "int256",
          "name": "debtAmt_",
          "type": "int256"
        },
        {
          "indexed": false,
          "internalType": "address",
          "name": "to_",
          "type": "address"
        }
      ],
      "name": "LogOperate",
      "type": "event"
    },
    {
      "anonymous": false,
      "inputs": [
        {
          "indexed": false,
          "internalType": "int256",
          "name": "colAmt_",
          "type": "int256"
        },
        {
          "indexed": false,
          "internalType": "int256",
          "name": "debtAmt_",
          "type": "int256"
        }
      ],
      "name": "LogRebalance",
      "type": "event"
    },
    {
      "anonymous": false,
      "inputs": [
        {
          "indexed": false,
          "internalType": "uint256",
          "name": "supplyExPrice_",
          "type": "uint256"
        },
        {
          "indexed": false,
          "internalType": "uint256",
          "name": "borrowExPrice_",
          "type": "uint256"
        }
      ],
      "name": "LogUpdateExchangePrice",
      "type": "event"
    },
    {
      "inputs": [],
      "name": "LIQUIDITY",
      "outputs": [
        {
          "internalType": "contract IFluidLiquidity",
          "name": "",
          "type": "address"
        }
      ],
      "stateMutability": "view",
      "type": "function"
    },
    {
      "inputs": [],
      "name": "TYPE",
      "outputs": [
        {
          "internalType": "uint256",
          "name": "",
          "type": "uint256"
        }
      ],
      "stateMutability": "view",
      "type": "function"
    },
    {
      "inputs": [],
      "name": "VAULT_FACTORY",
      "outputs": [
        {
          "internalType": "contract IFluidVaultFactory",
          "name": "",
          "type": "address"
        }
      ],
      "stateMutability": "view",
      "type": "function"
    },
    {
      "inputs": [],
      "name": "VAULT_ID",
      "outputs": [
        {
          "internalType": "uint256",
          "name": "",
          "type": "uint256"
        }
      ],
      "stateMutability": "view",
      "type": "function"
    },
    {
      "inputs": [
        {
          "internalType": "int256",
          "name": "positionTick_",
          "type": "int256"
        },
        {
          "internalType": "uint256",
          "name": "positionTickId_",
          "type": "uint256"
        },
        {
          "internalType": "uint256",
          "name": "positionRawDebt_",
          "type": "uint256"
        },
        {
          "internalType": "uint256",
          "name": "tickData_",
          "type": "uint256"
        }
      ],
      "name": "fetchLatestPosition",
      "outputs": [
        {
          "internalType": "int256",
          "name": "",
          "type": "int256"
        },
        {
          "internalType": "uint256",
          "name": "",
          "type": "uint256"
        },
        {
          "internalType": "uint256",
          "name": "positionRawCol_",
          "type": "uint256"
        },
        {
          "internalType": "uint256",
          "name": "branchId_",
          "type": "uint256"
        },
        {
          "internalType": "uint256",
          "name": "branchData_",
          "type": "uint256"
        }
      ],
      "stateMutability": "view",
      "type": "function"
    },
    {
      "inputs": [
        {
          "internalType": "uint256",
          "name": "nftId_",
          "type": "uint256"
        },
        {
          "internalType": "int256",
          "name": "newColToken0_",
          "type": "int256"
        },
        {
          "internalType": "int256",
          "name": "newColToken1_",
          "type": "int256"
        },
        {
          "internalType": "int256",
          "name": "colSharesMinMax_",
          "type": "int256"
        },
        {
          "internalType": "int256",
          "name": "newDebt_",
          "type": "int256"
        },
        {
          "internalType": "address",
          "name": "to_",
          "type": "address"
        }
      ],
      "name": "operate",
      "outputs": [
        {
          "internalType": "uint256",
          "name": "",
          "type": "uint256"
        },
        {
          "internalType": "int256",
          "name": "",
          "type": "int256"
        },
        {
          "internalType": "int256",
          "name": "",
          "type": "int256"
        }
      ],
      "stateMutability": "payable",
      "type": "function"
    },
    {
      "inputs": [
        {
          "internalType": "uint256",
          "name": "nftId_",
          "type": "uint256"
        },
        {
          "internalType": "int256",
          "name": "perfectColShares_",
          "type": "int256"
        },
        {
          "internalType": "int256",
          "name": "colToken0MinMax_",
          "type": "int256"
        },
        {
          "internalType": "int256",
          "name": "colToken1MinMax_",
          "type": "int256"
        },
        {
          "internalType": "int256",
          "name": "newDebt_",
          "type": "int256"
        },
        {
          "internalType": "address",
          "name": "to_",
          "type": "address"
        }
      ],
      "name": "operatePerfect",
      "outputs": [
        {
          "internalType": "uint256",
          "name": "",
          "type": "uint256"
        },
        {
          "internalType": "int256[]",
          "name": "r_",
          "type": "int256[]"
        }
      ],
      "stateMutability": "payable",
      "type": "function"
    },
    {
      "inputs": [
        {
          "internalType": "bytes32",
          "name": "slot_",
          "type": "bytes32"
        }
      ],
      "name": "readFromStorage",
      "outputs": [
        {
          "internalType": "uint256",
          "name": "result_",
          "type": "uint256"
        }
      ],
      "stateMutability": "view",
      "type": "function"
    },
    {
      "inputs": [
        {
          "internalType": "uint256",
          "name": "vaultVariables2_",
          "type": "uint256"
        }
      ],
      "name": "updateExchangePrices",
      "outputs": [
        {
          "internalType": "uint256",
          "name": "liqSupplyExPrice_",
          "type": "uint256"
        },
        {
          "internalType": "uint256",
          "name": "liqBorrowExPrice_",
          "type": "uint256"
        },
        {
          "internalType": "uint256",
          "name": "vaultSupplyExPrice_",
          "type": "uint256"
        },
        {
          "internalType": "uint256",
          "name": "vaultBorrowExPrice_",
          "type": "uint256"
        }
      ],
      "stateMutability": "view",
      "type": "function"
    }
  ],
  "transactionHash": "0x1791d79cf65a877407b006f8f2ab463dba8731ee7f480026048aeda294dccb0e",
  "args": [
    {
      "liquidity": "0x52Aa899454998Be5b000Ad077a46Bbe360F4e497",
      "factory": "0x324c5Dc1fC42c7a4D43d92df1eBA58a54d13Bf2d",
      "operateImplementation": "0x0000000000000000000000000000000000000000",
      "adminImplementation": "0x148807CFE7C285003A923411C6037eb3Fe0E7f1C",
      "secondaryImplementation": "0xf38478d055020bbC173734Dc62d88b749Eb99b59",
      "deployer": "0x4EC7b668BAF70d4A4b0FC7941a7708A07b6d45Be",
      "supply": "0x276084527B801e00Db8E4410504F9BaF93f72C67",
      "borrow": "0x52Aa899454998Be5b000Ad077a46Bbe360F4e497",
      "supplyToken": {
        "token0": "0xA1290d69c65A6Fe4DF752f95823fae25cB99e5A7",
        "token1": "0xEeeeeEeeeEeEeeEeEeEeeEEEeeeeEeeeeeeeEEeE"
      },
      "borrowToken": {
        "token0": "0x7f39C581F595B53c5cb19bD0b3f8dA6c935E2Ca0",
        "token1": "0x0000000000000000000000000000000000000000"
      },
      "vaultId": 78,
      "vaultType": "20000",
      "supplyExchangePriceSlot": "0x0000000000000000000000000000000000000000000000000000000000000000",
      "borrowExchangePriceSlot": "0xc24eaceff5753c99066a839532d708a8661af7a9b01d44d0cd915c53969eb725",
      "userSupplySlot": "0x8d43728060b5dedee03a1d2375ddb1baf50e4d801a173d4fce9783546b943be2",
      "userBorrowSlot": "0x0775321d9538429b54613c81acad77f313b3277b07f86dd65f181ae6bdec959c"
    }
  ],
  "numDeployments": 1,
  "bytecode": "0x6103006040523480156200001257600080fd5b506040516200544538038062005445833981016040819052620000359162000358565b808080808080610160015161026081815250506127106102605114158015620000635750614e206102605114155b80156200007557506175306102605114155b8015620000875750619c406102605114155b15620000af576040516330090e6560e11b815261793a60048201526024015b60405180910390fd5b80516001600160a01b0390811661020052602082015181166102205260a0820151811660c0908152820151811660e090815282015181166101005261014082015161024052604082015116156200010b5780604001516200010d565b305b6001600160a01b03166101a05261026051614e201480620001325750619c4061026051145b156200014f5760c08101516001600160a01b031660805262000193565b610100810151516001600160a01b03908116608052815160c0830151821691161462000193576040516330090e6560e11b815261793a6004820152602401620000a6565b617530610260511480620001ab5750619c4061026051145b15620001c85760e08101516001600160a01b031660a0526200020c565b610120810151516001600160a01b0390811660a052815160e083015182169116146200020c576040516330090e6560e11b815261793a6004820152602401620000a6565b61010081018051516001600160a01b03908116610120908152830180515182166101605291516020908101518216610140529151909101518116610180908152820151610280526101a08201516102a0526101c0808301516102c0526101e0808401516102e0526060840151831690915260809092015116905250620004879350505050565b60405161020081016001600160401b0381118282101715620002c457634e487b7160e01b600052604160045260246000fd5b60405290565b80516001600160a01b0381168114620002e257600080fd5b919050565b600060408284031215620002fa57600080fd5b604080519081016001600160401b03811182821017156200032b57634e487b7160e01b600052604160045260246000fd5b6040529050806200033c83620002ca565b81526200034c60208401620002ca565b60208201525092915050565b600061024082840312156200036c57600080fd5b6200037662000292565b6200038183620002ca565b81526200039160208401620002ca565b6020820152620003a460408401620002ca565b6040820152620003b760608401620002ca565b6060820152620003ca60808401620002ca565b6080820152620003dd60a08401620002ca565b60a0820152620003f060c08401620002ca565b60c08201526200040360e08401620002ca565b60e08201526101006200041985828601620002e7565b908201526101406200042e85858301620002e7565b61012083015261018080850151828401526101a09150818501516101608401526101c080860151828501526101e09150818601518385015261020086015181850152506102208501518184015250508091505092915050565b60805160a05160c05160e05161010051610120516101405161016051610180516101a0516101c0516101e05161020051610220516102405161026051610280516102a0516102c0516102e051614dea6200065b60003960005050600061225b015260006108d80152600061066601526000818161027b015281816105400152818161056b015281816107b8015281816107e3015281816123330152818161235e0152818161245d0152818161248801528181612635015281816126600152818161280b0152818161283601528181612962015261298d01526000818161021a01526111fd0152600081816101450152818161122901526113310152600081816101e60152818161069001528181610902015281816124b2015281816126f70152818161287501526129cc01526000505060005050600081816102b80152610a030152600050506000505060008181610ef10152613315015260008181610eb501526132d901526000505060008181610e4e0152818161228101528181612c3901528181612d4f01528181612e6301528181613272015261348401526000611f680152600081816126ab0152818161273401526129f30152600081816125190152818161255e015261289c0152614dea6000f3fe6080604052600436106100965760003560e01c806322348cc711610069578063540acabc1161004e578063540acabc14610208578063b5c736e41461024a578063bb24fe8a1461026957600080fd5b806322348cc71461018c5780632861c7d1146101d457600080fd5b80630931bf2d1461009b57806309f0d8cb146100c557806310259f2614610105578063103f290714610133575b600080fd5b6100ae6100a9366004614996565b61029d565b6040516100bc9291906149eb565b60405180910390f35b3480156100d157600080fd5b506100e56100e0366004614a39565b610504565b6040805194855260208501939093529183015260608201526080016100bc565b610118610113366004614996565b6109e8565b604080519384526020840192909252908201526060016100bc565b34801561013f57600080fd5b506101677f000000000000000000000000000000000000000000000000000000000000000081565b60405173ffffffffffffffffffffffffffffffffffffffff90911681526020016100bc565b34801561019857600080fd5b506101ac6101a7366004614a52565b610b3a565b604080519586526020860194909452928401919091526060830152608082015260a0016100bc565b3480156101e057600080fd5b506101677f000000000000000000000000000000000000000000000000000000000000000081565b34801561021457600080fd5b5061023c7f000000000000000000000000000000000000000000000000000000000000000081565b6040519081526020016100bc565b34801561025657600080fd5b5061023c610265366004614a39565b5490565b34801561027557600080fd5b5061023c7f000000000000000000000000000000000000000000000000000000000000000081565b6000606073ffffffffffffffffffffffffffffffffffffffff7f0000000000000000000000000000000000000000000000000000000000000000163003610319576040517f60121cca00000000000000000000000000000000000000000000000000000000815261792b60048201526024015b60405180910390fd5b6103526040518060c001604052806000815260200160008152602001600081526020016000815260200160008152602001600081525090565b60408051600480825260a082019092529060208201608080368337019050506000805460a084018190529193506001909116900361039a5760a08101516001176000556103d0565b6040517f60121cca0000000000000000000000000000000000000000000000000000000081526179196004820152602401610310565b6103da3447614ab3565b815273ffffffffffffffffffffffffffffffffffffffff8416156103fe5783610400565b335b9350600088131561042157610416888888610dfa565b604083015260208201525b610432898987878560a00151610fea565b60a0850152919a5098509450600088121561045e5761045388888887612c07565b604083015260208201525b878260008151811061047257610472614ac6565b60200260200101818152505080602001518260018151811061049657610496614ac6565b6020026020010181815250508060400151826002815181106104ba576104ba614ac6565b60200260200101818152505084826003815181106104da576104da614ac6565b602090810291909101015260a081015160005580516104f890612fa4565b50969795505050505050565b60085460009081908190819067ffffffffffffffff80821690604083901c1683610539607a8a901c6401ffffffff1642614ab3565b9050614e207f0000000000000000000000000000000000000000000000000000000000000000148061058c5750619c407f0000000000000000000000000000000000000000000000000000000000000000145b1561063e5764e8d4a51000975067ffffffffffffffff608085901c169550886001166001036105fd576105c56301e13380612710614af5565b60018a901c617fff166105d88389614af5565b6105e29190614af5565b6105ec9190614b3b565b6105f69087614b4f565b95506107b3565b61060d6301e13380612710614af5565b60018a901c617fff166106208389614af5565b61062a9190614af5565b6106349190614b3b565b6105f69087614ab3565b6040517fb5c736e40000000000000000000000000000000000000000000000000000000081527f00000000000000000000000000000000000000000000000000000000000000006004820152610716907f000000000000000000000000000000000000000000000000000000000000000073ffffffffffffffffffffffffffffffffffffffff169063b5c736e4906024015b602060405180830381865afa1580156106ed573d6000803e3d6000fd5b505050506040513d601f19601f820116820180604052508101906107119190614b62565b612ffc565b50975082881015610757576040517f60121cca0000000000000000000000000000000000000000000000000000000081526179326004820152602401610310565b61271061ffff8a16670de0b6b3a7640000858b670de0b6b3a7640000028161078157610781614b0c565b0403028161079157610791614b0c565b670de0b6b3a7640000919004810167ffffffffffffffff608087901c16020495505b6175307f000000000000000000000000000000000000000000000000000000000000000014806108045750619c407f0000000000000000000000000000000000000000000000000000000000000000145b156108b05764e8d4a51000965060c084901c9450600160108a901c8116900361086f576108376301e13380612710614af5565b60118a901c617fff1661084a8388614af5565b6108549190614af5565b61085e9190614b3b565b6108689086614b4f565b94506109dd565b61087f6301e13380612710614af5565b60118a901c617fff166108928388614af5565b61089c9190614af5565b6108a69190614b3b565b6108689086614ab3565b6040517fb5c736e40000000000000000000000000000000000000000000000000000000081527f00000000000000000000000000000000000000000000000000000000000000006004820152610946907f000000000000000000000000000000000000000000000000000000000000000073ffffffffffffffffffffffffffffffffffffffff169063b5c736e4906024016106d0565b97505081871015610987576040517f60121cca0000000000000000000000000000000000000000000000000000000081526179326004820152602401610310565b61271061ffff60108b901c16670de0b6b3a7640000848a670de0b6b3a764000002816109b5576109b5614b0c565b040302816109c5576109c5614b0c565b670de0b6b3a7640000919004810160c086901c020494505b505050509193509193565b6000808073ffffffffffffffffffffffffffffffffffffffff7f0000000000000000000000000000000000000000000000000000000000000000163003610a5f576040517f60121cca00000000000000000000000000000000000000000000000000000000815261792b6004820152602401610310565b610a8a6040518060800160405280600081526020016000815260200160008152602001600081525090565b6000805460608301819052600116900361039a576060810151600117600055610ab33447614ab3565b815273ffffffffffffffffffffffffffffffffffffffff851615610ad75784610ad9565b335b9450610ae78989898861320a565b602082018190526060820151610b02918c9189908990610fea565b6060850181905260208501929092526000919091558251919b509650610b2790612fa4565b6020015198999497509395505050505050565b600080808080868180600189901c62ffffff168b9003610b80575050601a87901c633fffffff169250603887901c6603ffffffffffff166001601989901c811614610bd7565b60008c8152600660205260408120600360028e0181810660550292918491048152602081019190915260400160002054901c600181811c633fffffff169750601f82901c6603ffffffffffff169450908116149150505b60008581526007602052604090205493508015610c1a577f80000000000000000000000000000000000000000000000000000000000000009b5060009950610de6565b83600316600203610c8457610c3c82607486901c6603ffffffffffff166135c0565b91506001610c4c600f6023614b4f565b6001901b610c5a9190614ab3565b8214610c845760a69390931c633fffffff1660008181526007602052604090205490945092610c1a565b8360031660031480610cb057506001610c9f600f6023614b4f565b6001901b610cad9190614ab3565b82145b15610ce1577f80000000000000000000000000000000000000000000000000000000000000009b5060009950610de6565b610cf98a607486901c6603ffffffffffff168461365a565b9950606483048a1115610d165761271061270f8b02049950610d1b565b600099505b8915610dc25783600416600414610d3e576207ffff600385901c16600003610d49565b6207ffff600385901c165b9b506000610d598d60020b61369f565b905061271f612710820204633fffffff601687901c8116610d7a8385614ab3565b610d849190614af5565b610d8e9190614b3b565b610d989082614b4f565b610daf6c010000000000000000000000008e614af5565b610db99190614b3b565b97505050610de6565b7f80000000000000000000000000000000000000000000000000000000000000009b505b8b8a97509750505050945094509450945094565b600080600084131580610e0e575060008413155b15610e49576040517f60121cca0000000000000000000000000000000000000000000000000000000081526188b96004820152602401610310565b6000807f000000000000000000000000000000000000000000000000000000000000000073ffffffffffffffffffffffffffffffffffffffff16634d9036de73eeeeeeeeeeeeeeeeeeeeeeeeeeeeeeeeeeeeeeee73ffffffffffffffffffffffffffffffffffffffff167f000000000000000000000000000000000000000000000000000000000000000073ffffffffffffffffffffffffffffffffffffffff1614610f4d577f000000000000000000000000000000000000000000000000000000000000000073ffffffffffffffffffffffffffffffffffffffff1673eeeeeeeeeeeeeeeeeeeeeeeeeeeeeeeeeeeeeeee14610f47576000610f4f565b86610f4f565b875b6040517fffffffff0000000000000000000000000000000000000000000000000000000060e084901b168152600481018b9052602481018a90526044810189905260006064820152608401604080518083038185885af1158015610fb7573d6000803e3d6000fd5b50505050506040513d601f19601f82011682018060405250810190610fdc9190614b7b565b909890975095505050505050565b600080808087158015610ffb575086155b8061103b5750871580159061103b57507fffffffffffffffffffffffffffffffffffffffffffffffffffffffffffffd8f08813801561103b575061271088125b8061107b5750861580159061107b57507fffffffffffffffffffffffffffffffffffffffffffffffffffffffffffffd8f08713801561107b575061271087125b156110b6576040517f60121cca00000000000000000000000000000000000000000000000000000000815261791a6004820152602401610310565b611136604051806102000160405280600081526020016000815260200160008152602001600081526020016000815260200160008152602001600081526020016000815260200160008152602001600081526020016000815260200160008152602001600081526020016000815260200160008152602001600081525090565b600154610100820152600286901c620fffff16600080821561117e578260011660011461116f576207ffff600184901c166000036111a0565b6207ffff600184901c166111a0565b7f80000000000000000000000000000000000000000000000000000000000000005b61014085015260008d90036112d2577f800000000000000000000000000000000000000000000000000000000000000060c08501526040517f94bf804d0000000000000000000000000000000000000000000000000000000081527f000000000000000000000000000000000000000000000000000000000000000060048201523360248201527f000000000000000000000000000000000000000000000000000000000000000073ffffffffffffffffffffffffffffffffffffffff16906394bf804d906044016020604051808303816000875af1158015611287573d6000803e3d6000fd5b505050506040513d601f19601f820116820180604052508101906112ab9190614b62565b9c50887a0400000000000000000000000000000000000000000000000000000198506114f4565b8c925060008c12806112e4575060008b135b80156113b557506040517f6352211e00000000000000000000000000000000000000000000000000000000815260048101849052339073ffffffffffffffffffffffffffffffffffffffff7f00000000000000000000000000000000000000000000000000000000000000001690636352211e90602401602060405180830381865afa158015611378573d6000803e3d6000fd5b505050506040513d601f19601f8201168201806040525081019061139c9190614b9f565b73ffffffffffffffffffffffffffffffffffffffff1614155b156113f0576040517f60121cca00000000000000000000000000000000000000000000000000000000815261791c6004820152602401610310565b60008d815260036020526040812054935083900361143e576040517f60121cca0000000000000000000000000000000000000000000000000000000081526179236004820152602401610310565b66ffffffffffffff603584901c811660ff602d86901c81169190911b6060870152607585901c909116606d85901c9182161b60a086015267ffffffffffffffff169150600180841690036114b7577f800000000000000000000000000000000000000000000000000000000000000060c08501526114f4565b826002166002146114d4576207ffff600284901c166000036114df565b6207ffff600284901c165b60c0850152601583901c62ffffff1660e08501525b7f80000000000000000000000000000000000000000000000000000000000000008460c0015113156117e257602d9290921c60ff1691821561153f5760608401516001841b01611548565b83606001516001015b925060608361155d8660c0015160020b61369f565b6115679190614af5565b611573911c6001614b4f565b608085015260c08401516000908152600560205260409020549250600180841614806115ab57508360e0015162ffffff600185901c16115b156116d3576115c88460c001518560e00151866080015186610b3a565b6101c089015260608801919091526080870182905260c087019290925260a0860151919350111561169c5767ffffffffffffffff6034856101c00151901c16925060ff8316600884901c901b92508360800151836116269190614ab3565b9250606483101561163657606492505b603461164784603860086001613901565b6101c086015160008581526007602052604090207ffffffffffffffffffffffffffffffffffff0000000000000000fffffffffffff9091169190921b17905560a08401516080850180519190910390526117da565b83608001518460a00151600a546116b39190614b4f565b6116bd9190614ab3565b600a5560006080850181905260608501526117da565b67ffffffffffffffff601984901c16915081600003611722576040517f60121cca00000000000000000000000000000000000000000000000000000000815261791d6004820152602401610310565b60ff8216600883901c901b915081846080015110611741576000611749565b836080015182035b915061271082101561179057600091508361014001518460c0015103611781576117788461014001518a613a2a565b61014086015298505b6117908460c001516000613c0c565b60196117a183603860086000613901565b60c08601516000908152600560205260409020911b6301ffffff851617905560a08401516080850180516117d6908390614ab3565b9052505b600060a08501525b60c08401516040850152606084015184526080840151602085015261010084015161180c90610504565b6101a08801526101808701525061016085015260008c13156118b25761018084015161183d64e8d4a510008e614af5565b6118479190614b3b565b846060018181516118589190614b4f565b90525060608401516fffffffffffffffffffffffffffffffff10156118ad576040517f60121cca00000000000000000000000000000000000000000000000000000000815261792f6004820152602401610310565b611a09565b60008c1215611a09577fffffffffffffffffffffffffffffffff800000000000000000000000000000008c1315611965576101808401516001906118fb64e8d4a510008f614bbc565b6119059190614c08565b61190f9190614c70565b90508360600151816000031115611956576040517f60121cca0000000000000000000000000000000000000000000000000000000081526179266004820152602401610310565b60608401805182019052611a09565b7f80000000000000000000000000000000000000000000000000000000000000008c036119d35764e8d4a5100084610180015185606001516119a79190614af5565b6119b19190614b3b565b6119ba90614c97565b6119c5906001614ccf565b600060608601529b50611a09565b6040517f60121cca00000000000000000000000000000000000000000000000000000000815261792f6004820152602401610310565b60008b1315611ad9576101a0840151611a2764e8d4a510008d614af5565b611a319190614b3b565b611a3c906001614b4f565b92506127106103ff6052866101000151901c1684611a5a9190614af5565b611a649190614b3b565b611a6e9084614b4f565b84608001818151611a7f9190614b4f565b90525060808401516fffffffffffffffffffffffffffffffff1015611ad4576040517f60121cca00000000000000000000000000000000000000000000000000000000815261792f6004820152602401610310565b611bf9565b60008b1215611bf9577fffffffffffffffffffffffffffffffff800000000000000000000000000000008b1315611b8e576101a0840151611b1f64e8d4a510008d614bbc565b611b299190614c08565b611b34906001614ccf565b90508060000390508360800151811115611b7e576040517f60121cca0000000000000000000000000000000000000000000000000000000081526179276004820152602401610310565b6080840180518290039052611bf9565b7f80000000000000000000000000000000000000000000000000000000000000008b036119d357600164e8d4a51000856101a001518660800151611bd29190614af5565b611bdc9190614b3b565b611be590614c97565b611bef9190614c70565b600060808601529a505b8b158015611c0557508a155b15611c40576040517f60121cca00000000000000000000000000000000000000000000000000000000815261791a6004820152602401610310565b608084015115611eb557611c788460600151633b9aca008660800151633b9aca010281611c6f57611c6f614b0c565b04600101613c7f565b60a0880152608087015260e086015260c085015260008b1215611cea5783602001518460a001518560800151611cae9190614ab3565b1115611cea576040517f60121cca0000000000000000000000000000000000000000000000000000000081526179346004820152602401610310565b60008c138015611cf857508a155b15611d9d5783516020850151611d1c906c0100000000000000000000000090614af5565b611d269190614b3b565b84606001516c010000000000000000000000008660a001518760800151611d4d9190614ab3565b611d579190614af5565b611d619190614b3b565b1115611d9d576040517f60121cca0000000000000000000000000000000000000000000000000000000081526179346004820152602401610310565b8361014001518460c0015112611eb05760008460c0015112611dca5760018460c00151901b600117611dd6565b60c084015160000360011b5b925088600216600003611e1357600283901b897fffffffffffffffffffffffffffffffffffffffffffffffffffffffffffc0000016179850611edc565b600160348a811c633fffffff16919091016000818152600760205260409020780fffffffc0000000000000000000000000000000000000000060908d901b167afffff000000000000000000000000000000000000000000000000060c28e901b161790557ffffffffffffffffffffffffffffffffffffffffffffc00000000000000000000909a16600285901b1760168b901b17908a901b179891505b611edc565b7f800000000000000000000000000000000000000000000000000000000000000060c08501525b60008c1280611eeb575060008b135b156121455773ffffffffffffffffffffffffffffffffffffffff8a16611f0f573399505b60008460800151118015611f5e57508360c001518460400151131580611f5e5750633b9aca008460200151633b9aca010281611f4d57611f4d614b0c565b046001018460a00151856080015103115b1561214557611f9c7f0000000000000000000000000000000000000000000000000000000000000000633fffffff605c876101000151901c16613e5c565b73ffffffffffffffffffffffffffffffffffffffff16638e7bfbc06040518163ffffffff1660e01b8152600401602060405180830381865afa158015611fe6573d6000803e3d6000fd5b505050506040513d601f19601f8201168201806040525081019061200a9190614b62565b9250760a70c3c40a64e6c51999090b65f67d92400000000000008311806120345750633b9aca0083105b1561206f576040517f60121cca0000000000000000000000000000000000000000000000000000000081526179396004820152602401610310565b836101a0015184610180015184028161208a5761208a614b0c565b049250722cd76fe086b93ce2f768a00b22a000000000008311156120bf57722cd76fe086b93ce2f768a00b22a0000000000092505b6101008401516103e89060201c6103ff1684020491506b033b2e3c9fd0803ce80000006c0100000000000000000000000083020491506120fe826142c6565b5080915050808460c001511315612145576040517f60121cca00000000000000000000000000000000000000000000000000000000815261791e6004820152602401610310565b7f80000000000000000000000000000000000000000000000000000000000000008460c0015113156121a15760008460c001511261218e5760018460c00151901b60011761219a565b60c084015160000360011b5b92506121a6565b600092505b60a0840151606d906121bd90603860086000613901565b6060860151911b90602d906121d790603860086000613901565b60e0870151911b9060151b600186901b86156121f45760006121f7565b60015b60ff1617171717600360008f81526020019081526020016000208190555060008c121561244d57610100840151603e1c6103ff169250821561244d576040517fb5c736e40000000000000000000000000000000000000000000000000000000081527f000000000000000000000000000000000000000000000000000000000000000060048201527f000000000000000000000000000000000000000000000000000000000000000073ffffffffffffffffffffffffffffffffffffffff169063b5c736e490602401602060405180830381865afa1580156122dd573d6000803e3d6000fd5b505050506040513d601f19601f820116820180604052508101906123019190614b62565b6101e0850181905266ffffffffffffff600982901c1660ff600183901c161b925061232c90836146db565b9050614e207f0000000000000000000000000000000000000000000000000000000000000000148061237f5750619c407f0000000000000000000000000000000000000000000000000000000000000000145b156123db5760008113801561239b5750806103e8848103840205125b156123d6576040517f60121cca0000000000000000000000000000000000000000000000000000000081526179286004820152602401610310565b61244d565b600081138015612412575083610160015164e8d4a510008d600003028161240457612404614b0c565b05816103e885810385020503125b1561244d576040517f60121cca0000000000000000000000000000000000000000000000000000000081526179286004820152602401610310565b60008c1380156124ab5750614e207f000000000000000000000000000000000000000000000000000000000000000014806124a95750619c407f0000000000000000000000000000000000000000000000000000000000000000145b155b15612625577f000000000000000000000000000000000000000000000000000000000000000073ffffffffffffffffffffffffffffffffffffffff1663ad967e1573eeeeeeeeeeeeeeeeeeeeeeeeeeeeeeeeeeeeeeee73ffffffffffffffffffffffffffffffffffffffff167f000000000000000000000000000000000000000000000000000000000000000073ffffffffffffffffffffffffffffffffffffffff161461255a57600061255c565b8d5b7f00000000000000000000000000000000000000000000000000000000000000008f6000806000336040516020016125b0919073ffffffffffffffffffffffffffffffffffffffff91909116815260200190565b6040516020818303038152906040526040518863ffffffff1660e01b81526004016125e096959493929190614d5b565b604080518083038185885af11580156125fd573d6000803e3d6000fd5b50505050506040513d601f19601f820116820180604052508101906126229190614b7b565b50505b60008b12801561268357506175307f000000000000000000000000000000000000000000000000000000000000000014806126815750619c407f0000000000000000000000000000000000000000000000000000000000000000145b155b156127fb577fffffffffffffffffffffffff11111111111111111111111111111111111111127f000000000000000000000000000000000000000000000000000000000000000073ffffffffffffffffffffffffffffffffffffffff16016126f0578a60000392506126f5565b600092505b7f000000000000000000000000000000000000000000000000000000000000000073ffffffffffffffffffffffffffffffffffffffff1663ad967e15847f000000000000000000000000000000000000000000000000000000000000000060008f60008033604051602001612786919073ffffffffffffffffffffffffffffffffffffffff91909116815260200190565b6040516020818303038152906040526040518863ffffffff1660e01b81526004016127b696959493929190614d5b565b604080518083038185885af11580156127d3573d6000803e3d6000fd5b50505050506040513d601f19601f820116820180604052508101906127f89190614b7b565b50505b60008c1280156128595750614e207f000000000000000000000000000000000000000000000000000000000000000014806128575750619c407f0000000000000000000000000000000000000000000000000000000000000000145b155b156129525773ffffffffffffffffffffffffffffffffffffffff7f00000000000000000000000000000000000000000000000000000000000000001663ad967e157f00000000000000000000000000000000000000000000000000000000000000008e60008e81806040519080825280601f01601f1916602001820160405280156128eb576020820181803683370190505b506040518763ffffffff1660e01b815260040161290d96959493929190614d5b565b60408051808303816000875af115801561292b573d6000803e3d6000fd5b505050506040513d601f19601f8201168201806040525081019061294f9190614b7b565b50505b60008b1380156129b057506175307f000000000000000000000000000000000000000000000000000000000000000014806129ae5750619c407f0000000000000000000000000000000000000000000000000000000000000000145b155b15612aa95773ffffffffffffffffffffffffffffffffffffffff7f00000000000000000000000000000000000000000000000000000000000000001663ad967e157f000000000000000000000000000000000000000000000000000000000000000060008e818f816040519080825280601f01601f191660200182016040528015612a42576020820181803683370190505b506040518763ffffffff1660e01b8152600401612a6496959493929190614d5b565b60408051808303816000875af1158015612a82573d6000803e3d6000fd5b505050506040513d601f19601f82011682018060405250810190612aa69190614b7b565b50505b67ffffffffffffffff60528a901c1692508360000151846060015160ff8516600886901c901b612ad99190614b4f565b612ae39190614ab3565b925067ffffffffffffffff60928a901c16915083602001518460a001518560800151612b0f9190614ab3565b612b2290600885901c60ff86161b614b4f565b612b2c9190614ab3565b91506092612b3f83603860086001613901565b901b6052612b5285603860086000613901565b901b8a7ffffffffffffc00000000000000000000000000000003ffffffffffffffffffff16171798507ffef64760e30a41b9d5ba7dd65ff7236a61d89ed8b44c67a29e84db1a67513a1c338e8e8e8e604051612bea95949392919073ffffffffffffffffffffffffffffffffffffffff9586168152602081019490945260408401929092526060830152909116608082015260a00190565b60405180910390a1509a9b999a5097989597509495505050505050565b600080600080600087128015612c1d5750600086125b15612d255773ffffffffffffffffffffffffffffffffffffffff7f0000000000000000000000000000000000000000000000000000000000000000166335f0df98612c678a614c97565b612c708a614c97565b612c798a614c97565b6040517fffffffff0000000000000000000000000000000000000000000000000000000060e086901b16815260048101939093526024830191909152604482015273ffffffffffffffffffffffffffffffffffffffff8816606482015260840160408051808303816000875af1158015612cf7573d6000803e3d6000fd5b505050506040513d601f19601f82011682018060405250810190612d1b9190614b7b565b9092509050612f83565b600087128015612d33575085155b15612e395773ffffffffffffffffffffffffffffffffffffffff7f000000000000000000000000000000000000000000000000000000000000000016634c89bfd4612d7d8a614c97565b612d868a614c97565b612d8f8a614c97565b6040517fffffffff0000000000000000000000000000000000000000000000000000000060e086901b16815260048101939093526024830191909152604482015273ffffffffffffffffffffffffffffffffffffffff881660648201526084016020604051808303816000875af1158015612e0e573d6000803e3d6000fd5b505050506040513d601f19601f82011682018060405250810190612e329190614b62565b9150612f83565b86158015612e475750600086125b15612f4d5773ffffffffffffffffffffffffffffffffffffffff7f000000000000000000000000000000000000000000000000000000000000000016634c89bfd4612e918a614c97565b612e9a8a614c97565b612ea38a614c97565b6040517fffffffff0000000000000000000000000000000000000000000000000000000060e086901b16815260048101939093526024830191909152604482015273ffffffffffffffffffffffffffffffffffffffff881660648201526084016020604051808303816000875af1158015612f22573d6000803e3d6000fd5b505050506040513d601f19601f82011682018060405250810190612f469190614b62565b9050612f83565b6040517f60121cca0000000000000000000000000000000000000000000000000000000081526188b96004820152602401610310565b612f8c82614c97565b9350612f9781614c97565b9250505094509492505050565b303181811115612fbe57612fba3383830361476f565b5050565b81811015612fba576040517f60121cca00000000000000000000000000000000000000000000000000000000815261791b6004820152602401610310565b67ffffffffffffffff605b82901c811690609b83901c1681158061301e575080155b1561305a576040517fd50d7512000000000000000000000000000000000000000000000000000000008152620111716004820152602401610310565b61ffff8316603a84901c6401ffffffff16428181039160ea87901c617fff16911480613084575082155b8061308f5750806001145b1561309c57505050915091565b64496cebb80084840283020484019350617fff60db87901c169250826001036130c757505050915091565b8260011660010361311c5760019290921c91826c7e37be2022c0914b2680000000816130f5576130f5614b0c565b049250612710601e87901c613fff166b033b2e3c9fd0803ce8000000850102049250613149565b60019290921c916305f5e100601e87901c613fff166127108501026b033b2e3c9fd0803ce8000000020492505b806001166001036131805760011c61271081016b033b2e3c9fd0803ce800000082028161317857613178614b0c565b0490506131b6565b60011c61271081016b033b2e3c9fd0803ce80000008202816131a4576131a4614b0c565b046b033b2e3c9fd0803ce80000000390505b760a70c3c40a64e6c51999090b65f67d92400000000000008382026127100261ffff881691900402601087901c613fff16612710030292506801b5a660ea44b8000085840283020485019450505050915091565b6000808313156134085760008512806132235750600084125b80613235575084158015613235575083155b15613270576040517f60121cca0000000000000000000000000000000000000000000000000000000081526188b96004820152602401610310565b7f000000000000000000000000000000000000000000000000000000000000000073ffffffffffffffffffffffffffffffffffffffff1663e980e1eb73eeeeeeeeeeeeeeeeeeeeeeeeeeeeeeeeeeeeeeee73ffffffffffffffffffffffffffffffffffffffff167f000000000000000000000000000000000000000000000000000000000000000073ffffffffffffffffffffffffffffffffffffffff1614613371577f000000000000000000000000000000000000000000000000000000000000000073ffffffffffffffffffffffffffffffffffffffff1673eeeeeeeeeeeeeeeeeeeeeeeeeeeeeeeeeeeeeeee1461336b576000613373565b85613373565b865b6040517fffffffff0000000000000000000000000000000000000000000000000000000060e084901b1681526004810189905260248101889052604481018790526000606482015260840160206040518083038185885af11580156133dc573d6000803e3d6000fd5b50505050506040513d601f19601f820116820180604052508101906134019190614b62565b90506135b8565b60008312156135705760008513806134205750600084135b80613432575084158015613432575083155b1561346d576040517f60121cca0000000000000000000000000000000000000000000000000000000081526188b96004820152602401610310565b73ffffffffffffffffffffffffffffffffffffffff7f00000000000000000000000000000000000000000000000000000000000000001663d331bef76134b287614c97565b6134bb87614c97565b6134c487614c97565b6040517fffffffff0000000000000000000000000000000000000000000000000000000060e086901b16815260048101939093526024830191909152604482015273ffffffffffffffffffffffffffffffffffffffff851660648201526084016020604051808303816000875af1158015613543573d6000803e3d6000fd5b505050506040513d601f19601f820116820180604052508101906135679190614b62565b61340190614c97565b8415158061357d57508315155b156135b8576040517f60121cca0000000000000000000000000000000000000000000000000000000081526188b96004820152602401610310565b949350505050565b6000600f83811c9083901c0281681fffffffffffffffff82116135e45760226135e7565b60235b91821c919050617fff85811690851601810161400081101561360857600080fd5b7fffffffffffffffffffffffffffffffffffffffffffffffffffffffffffffc00001617fff81111561364757506603ffffffffffff9250613654915050565b80600f84901b1793505050505b92915050565b6000617fff83811690831603608181101561369257600f83811c821b9085901c86028161368957613689614b0c565b04915050613698565b60009150505b9392505050565b600060ff82901d80831803617fff8111156136b957600080fd5b70010000000000000000000000000000000060018216156136e757506fff9dd7de423466c20352b1246ce4856f5b6002821615613706576fff3bd55f4488ad277531fa1c725a66d00260801c5b6004821615613725576ffe78410fd6498b73cb96a6917f8532590260801c5b6008821615613744576ffcf2d9987c9be178ad5bfeffaa1232730260801c5b6010821615613763576ff9ef02c4529258b057769680fc6601b30260801c5b6020821615613782576ff402d288133a85a17784a411f7aba0820260801c5b60408216156137a1576fe895615b5beb6386553757b0352bda900260801c5b60808216156137c0576fd34f17a00ffa00a8309940a15930391a0260801c5b6101008216156137e0576fae6b7961714e20548d88ea5123f9a0ff0260801c5b610200821615613800576f76d6461f27082d74e0feed3b388c0ca10260801c5b610400821615613820576f372a3bfe0745d8b6b19d985d9a8b85bb0260801c5b610800821615613840576f0be32cbee48979763cf7247dd7bb539d0260801c5b61100082161561385f576e8d4f70c9ff4924dac37612d1e2921e0260801c5b61200082161561387d576d4e009ae5519380809a02ca7aec770260801c5b614000821615613899576b17c45e641b6e95dee056ff100260801c5b600091507f800000000000000000000000000000000000000000000000000000000000000084166138f7577fffffffffffffffffffffffffffffffffffffffffffffffffffffffffffffffff0463ffffffff8116156138f757600191505b60201c0192915050565b600080856fffffffffffffffffffffffffffffffff8111156139245760809150811c5b67ffffffffffffffff81111561393c576040918201911c5b63ffffffff811115613950576020918201911c5b61ffff811115613962576010918201911c5b60ff811115613973576008918201911c5b600f811115613984576004918201911c5b6003811115613995576002918201911c5b60018111156139a5576001820191505b80156139b2576001820191505b50848110156139be5750835b848103905085811c60008211841615613a0d57600181019050806001871b03613a0d57506001908101907fffffffffffffffffffffffffffffffffffffffffffffffffffffffffffffffff86011b5b6001851b8210613a1c57600080fd5b90931b909201949350505050565b601681901c633fffffff166000818152600760205260408120549091829182600160c483901c81169003613a68575060c581901c6207ffff16613aa0565b5060c581901c6207ffff16600081900390613aa057507f80000000000000000000000000000000000000000000000000000000000000005b6000613aab886147c0565b9050808213613aba5780613abc565b815b94507f80000000000000000000000000000000000000000000000000000000000000008503613b0f57867fffffffffffffffffffffffffffffffffffffffffffffffffffffffffffc00001169650613bfe565b808503613b85576000851215613b5257600385600003901b877fffffffffffffffffffffffffffffffffffffffffffffffffffffffffffc0000116179650613bfe565b600385901b877fffffffffffffffffffffffffffffffffffffffffffffffffffffffffffc0000116600417179650613bfe565b6000848152600760205260408120557ffffffffffffffffffffffffffffffffffffffffffffc00000000000000000001909616623ffffc60c284901c1617660fffffffc00000609084901c16177fffffffffffffffffffffffffffffffffffffffffffffffffffffffffffffffff840160341b17600217955b869550505050509250929050565b6000808312613c1f576101008305613c2a565b600161010084820105035b90506101008102830382613c52576000828152600460205260409020546001821b1916613c67565b6000828152600460205260409020546001821b175b60009283526004602052604090922091909155505050565b600080600080612710851015613cc5576040517f60121cca0000000000000000000000000000000000000000000000000000000081526179336004820152602401610310565b600086613cdf6c0100000000000000000000000088614af5565b613ce99190614b3b565b9050613cf4816142c6565b60019091019550905061271061271f82020490506060613d148883614af5565b901c9250613d228684614ab3565b600086815260056020526040812054600181901c62ffffff1696509193508515801590613d50575060018216155b15613d915766ffffffffffffff602183901c1660ff601984901c161b613d768682614b4f565b915080600003613d8b57613d8b886001613c0c565b50613de5565b8515613dd1576000878152600660209081526040808320600360028b0181810486529190935292208054601986901c929093066055029190911b90911790555b856001019550849050613de5876001613c0c565b612710811015613e25576040517f60121cca0000000000000000000000000000000000000000000000000000000081526179316004820152602401610310565b6019613e3682603860086000613901565b6000898152600560205260409020911b600188901b179055509497939650919450925050565b6000606082600003613e72576000915050613654565b607f8311613f3b576040517fd60000000000000000000000000000000000000000000000000000000000000060208201527f940000000000000000000000000000000000000000000000000000000000000060218201527fffffffffffffffffffffffffffffffffffffffff000000000000000000000000606086901b16602282015260f884901b7fff000000000000000000000000000000000000000000000000000000000000001660368201526037015b60405160208183030381529060405290506142b7565b60ff8311614018576040517fd70000000000000000000000000000000000000000000000000000000000000060208201527f940000000000000000000000000000000000000000000000000000000000000060218201527fffffffffffffffffffffffffffffffffffffffff000000000000000000000000606086901b1660228201527f8100000000000000000000000000000000000000000000000000000000000000603682015260f884901b7fff00000000000000000000000000000000000000000000000000000000000000166037820152603801613f25565b61ffff83116140f6576040517fd80000000000000000000000000000000000000000000000000000000000000060208201527f940000000000000000000000000000000000000000000000000000000000000060218201527fffffffffffffffffffffffffffffffffffffffff000000000000000000000000606086901b1660228201527f820000000000000000000000000000000000000000000000000000000000000060368201527fffff00000000000000000000000000000000000000000000000000000000000060f085901b166037820152603901613f25565b62ffffff83116141d5576040517fd90000000000000000000000000000000000000000000000000000000000000060208201527f940000000000000000000000000000000000000000000000000000000000000060218201527fffffffffffffffffffffffffffffffffffffffff000000000000000000000000606086901b1660228201527f830000000000000000000000000000000000000000000000000000000000000060368201527fffffff000000000000000000000000000000000000000000000000000000000060e885901b166037820152603a01613f25565b6040517fda0000000000000000000000000000000000000000000000000000000000000060208201527f940000000000000000000000000000000000000000000000000000000000000060218201527fffffffffffffffffffffffffffffffffffffffff000000000000000000000000606086901b1660228201527f840000000000000000000000000000000000000000000000000000000000000060368201527fffffffff0000000000000000000000000000000000000000000000000000000060e085901b166037820152603b0160405160208183030381529060405290505b80516020909101209392505050565b600080630235b88083107473d85bca016a2338b31715f8e13054c005f8b995d3841117156142f357600080fd5b6c01000000000000000000000000831060008161432957506c010000000000000000000000006a52b7d2dcc80cd2e40000008502045b811561434c57507652b7d2dcc80cd2e40000000000000000000000000000008490045b6f037af932b2affa9738cc6c38ca527831811061438d57614000841793506f037af932b2affa9738cc6c38ca5278316a52b7d2dcc80cd2e400000082020490505b6d010f7a088a76f267264caa114f0a81106143ca57612000841793506d010f7a088a76f267264caa114f0a6a52b7d2dcc80cd2e400000082020490505b6b95da74f87f839fc2e0dc5bd9811061440357611000841793506b95da74f87f839fc2e0dc5bd96a52b7d2dcc80cd2e400000082020490505b6b06f55dedafd8491caed5a1b8811061443c57610800841793506b06f55dedafd8491caed5a1b86a52b7d2dcc80cd2e400000082020490505b6b017fdd10ee11e624491b4cc1811061447557610400841793506b017fdd10ee11e624491b4cc16a52b7d2dcc80cd2e400000082020490505b6ab23131bf0c30217b0a2c6981106144ac57610200841793506ab23131bf0c30217b0a2c696a52b7d2dcc80cd2e400000082020490505b6a79683edcb9280d797aded781106144e357610100841793506a79683edcb9280d797aded76a52b7d2dcc80cd2e400000082020490505b6a64366e2f9919f0d9b0dc908110614519576080841793506a64366e2f9919f0d9b0dc906a52b7d2dcc80cd2e400000082020490505b6a5b0bcda5a78850646b0a81811061454f576040841793506a5b0bcda5a78850646b0a816a52b7d2dcc80cd2e400000082020490505b6a56c840f992c70f959ae8108110614585576020841793506a56c840f992c70f959ae8106a52b7d2dcc80cd2e400000082020490505b6a54b9cd178695194f9be0a081106145bb576010841793506a54b9cd178695194f9be0a06a52b7d2dcc80cd2e400000082020490505b6a53b7458aff204b5e65d68181106145f1576008841793506a53b7458aff204b5e65d6816a52b7d2dcc80cd2e400000082020490505b6a53372a2f38c240d689e4008110614627576004841793506a53372a2f38c240d689e4006a52b7d2dcc80cd2e400000082020490505b6a52f76617a04499e6640000811061465d576002841793506a52f76617a04499e66400006a52b7d2dcc80cd2e400000082020490505b6a52d79660f3dec355c000008110614693576001841793506a52d79660f3dec355c000006a52b7d2dcc80cd2e400000082020490505b816146ab57806a52b7d2dcc80cd2e400000086020492505b81156146c7579219926a52d79660f3dec355c000008582020492505b5050828111156146d657600080fd5b915091565b600066ffffffffffffff604984901c1660ff604185901c161b808203614705576000915050613654565b612710613fff60a286901c168402046401ffffffff608186901c16420362ffffff60b087901c166147368284614af5565b6147409190614b3b565b9050808311614750576000614754565b8083035b93505080840383811115614766578093505b50505092915050565b60008060008060008587614e20f19050806147bb576040517fdee51a8a0000000000000000000000000000000000000000000000000000000081526201155a6004820152602401610310565b505050565b60008060008084126147d65761010084056147e1565b600161010085820105035b600081815260046020526040812054919350859003610100808502919091010190811b811c91505b811561482857600161481a836148bb565b8461010002010393506148b3565b7fffffffffffffffffffffffffffffffffffffffffffffffffffffffffffffffff8301927fffffffffffffffffffffffffffffffffffffffffffffffffffffffffffffff7f0360010161489d577f800000000000000000000000000000000000000000000000000000000000000093506148b3565b6000838152600460205260409020549150614809565b505050919050565b6000816fffffffffffffffffffffffffffffffff8311156148dd5760809150811c5b67ffffffffffffffff8111156148f5576040918201911c5b63ffffffff811115614909576020918201911c5b61ffff81111561491b576010918201911c5b60ff81111561492c576008918201911c5b600f81111561493d576004918201911c5b600381111561494e576002918201911c5b600181111561495e576001820191505b801561496b576001820191505b50919050565b73ffffffffffffffffffffffffffffffffffffffff8116811461499357600080fd5b50565b60008060008060008060c087890312156149af57600080fd5b863595506020870135945060408701359350606087013592506080870135915060a08701356149dd81614971565b809150509295509295509295565b6000604082018483526020604081850152818551808452606086019150828701935060005b81811015614a2c57845183529383019391830191600101614a10565b5090979650505050505050565b600060208284031215614a4b57600080fd5b5035919050565b60008060008060808587031215614a6857600080fd5b5050823594602084013594506040840135936060013592509050565b7f4e487b7100000000000000000000000000000000000000000000000000000000600052601160045260246000fd5b8181038181111561365457613654614a84565b7f4e487b7100000000000000000000000000000000000000000000000000000000600052603260045260246000fd5b808202811582820484141761365457613654614a84565b7f4e487b7100000000000000000000000000000000000000000000000000000000600052601260045260246000fd5b600082614b4a57614b4a614b0c565b500490565b8082018082111561365457613654614a84565b600060208284031215614b7457600080fd5b5051919050565b60008060408385031215614b8e57600080fd5b505080516020909101519092909150565b600060208284031215614bb157600080fd5b815161369881614971565b808202600082127f800000000000000000000000000000000000000000000000000000000000000084141615614bf457614bf4614a84565b818105831482151761365457613654614a84565b600082614c1757614c17614b0c565b7fffffffffffffffffffffffffffffffffffffffffffffffffffffffffffffffff83147f800000000000000000000000000000000000000000000000000000000000000083141615614c6b57614c6b614a84565b500590565b8181036000831280158383131683831282161715614c9057614c90614a84565b5092915050565b60007f80000000000000000000000000000000000000000000000000000000000000008203614cc857614cc8614a84565b5060000390565b8082018281126000831280158216821582161715614cef57614cef614a84565b505092915050565b6000815180845260005b81811015614d1d57602081850181015186830182015201614d01565b5060006020828601015260207fffffffffffffffffffffffffffffffffffffffffffffffffffffffffffffffe0601f83011685010191505092915050565b600073ffffffffffffffffffffffffffffffffffffffff8089168352876020840152866040840152808616606084015280851660808401525060c060a0830152614da860c0830184614cf7565b9897505050505050505056fea264697066735822122057223f913e0cfd6954eb4977e7ab994a4e834ab81f8114e00128f0378f54ffd264736f6c63430008150033"
}