{
  "address": "0xb1e243A79a6106B2034D9eD0762b03f7c99A151f",
  "abi": [
    {
      "inputs": [
        {
          "internalType": "string",
          "name": "infoName_",
          "type": "string"
        },
        {
          "internalType": "contract IWstETH",
          "name": "wstETH_",
          "type": "address"
        },
        {
          "internalType": "uint8",
          "name": "mainSource_",
          "type": "uint8"
        },
        {
          "components": [
            {
              "internalType": "uint8",
              "name": "hops",
              "type": "uint8"
            },
            {
              "components": [
                {
                  "internalType": "contract IChainlinkAggregatorV3",
                  "name": "feed",
                  "type": "address"
                },
                {
                  "internalType": "bool",
                  "name": "invertRate",
                  "type": "bool"
                },
                {
                  "internalType": "uint256",
                  "name": "token0Decimals",
                  "type": "uint256"
                }
              ],
              "internalType": "struct ChainlinkStructs.ChainlinkFeedData",
              "name": "feed1",
              "type": "tuple"
            },
            {
              "components": [
                {
                  "internalType": "contract IChainlinkAggregatorV3",
                  "name": "feed",
                  "type": "address"
                },
                {
                  "internalType": "bool",
                  "name": "invertRate",
                  "type": "bool"
                },
                {
                  "internalType": "uint256",
                  "name": "token0Decimals",
                  "type": "uint256"
                }
              ],
              "internalType": "struct ChainlinkStructs.ChainlinkFeedData",
              "name": "feed2",
              "type": "tuple"
            },
            {
              "components": [
                {
                  "internalType": "contract IChainlinkAggregatorV3",
                  "name": "feed",
                  "type": "address"
                },
                {
                  "internalType": "bool",
                  "name": "invertRate",
                  "type": "bool"
                },
                {
                  "internalType": "uint256",
                  "name": "token0Decimals",
                  "type": "uint256"
                }
              ],
              "internalType": "struct ChainlinkStructs.ChainlinkFeedData",
              "name": "feed3",
              "type": "tuple"
            }
          ],
          "internalType": "struct ChainlinkStructs.ChainlinkConstructorParams",
          "name": "chainlinkParams_",
          "type": "tuple"
        },
        {
          "components": [
            {
              "internalType": "contract IRedstoneOracle",
              "name": "oracle",
              "type": "address"
            },
            {
              "internalType": "bool",
              "name": "invertRate",
              "type": "bool"
            },
            {
              "internalType": "uint256",
              "name": "token0Decimals",
              "type": "uint256"
            }
          ],
          "internalType": "struct RedstoneStructs.RedstoneOracleData",
          "name": "redstoneOracle_",
          "type": "tuple"
        }
      ],
      "stateMutability": "nonpayable",
      "type": "constructor"
    },
    {
      "inputs": [
        {
          "internalType": "uint256",
          "name": "errorId_",
          "type": "uint256"
        }
      ],
      "name": "FluidOracleError",
      "type": "error"
    },
    {
      "inputs": [],
      "name": "FALLBACK_ORACLE_MAIN_SOURCE",
      "outputs": [
        {
          "internalType": "uint8",
          "name": "",
          "type": "uint8"
        }
      ],
      "stateMutability": "view",
      "type": "function"
    },
    {
      "inputs": [],
      "name": "chainlinkOracleData",
      "outputs": [
        {
          "internalType": "uint256",
          "name": "chainlinkExchangeRate_",
          "type": "uint256"
        },
        {
          "internalType": "contract IChainlinkAggregatorV3",
          "name": "chainlinkFeed1_",
          "type": "address"
        },
        {
          "internalType": "bool",
          "name": "chainlinkInvertRate1_",
          "type": "bool"
        },
        {
          "internalType": "uint256",
          "name": "chainlinkExchangeRate1_",
          "type": "uint256"
        },
        {
          "internalType": "contract IChainlinkAggregatorV3",
          "name": "chainlinkFeed2_",
          "type": "address"
        },
        {
          "internalType": "bool",
          "name": "chainlinkInvertRate2_",
          "type": "bool"
        },
        {
          "internalType": "uint256",
          "name": "chainlinkExchangeRate2_",
          "type": "uint256"
        },
        {
          "internalType": "contract IChainlinkAggregatorV3",
          "name": "chainlinkFeed3_",
          "type": "address"
        },
        {
          "internalType": "bool",
          "name": "chainlinkInvertRate3_",
          "type": "bool"
        },
        {
          "internalType": "uint256",
          "name": "chainlinkExchangeRate3_",
          "type": "uint256"
        }
      ],
      "stateMutability": "view",
      "type": "function"
    },
    {
      "inputs": [],
      "name": "getExchangeRate",
      "outputs": [
        {
          "internalType": "uint256",
          "name": "exchangeRate_",
          "type": "uint256"
        }
      ],
      "stateMutability": "view",
      "type": "function"
    },
    {
      "inputs": [],
      "name": "getExchangeRateLiquidate",
      "outputs": [
        {
          "internalType": "uint256",
          "name": "exchangeRate_",
          "type": "uint256"
        }
      ],
      "stateMutability": "view",
      "type": "function"
    },
    {
      "inputs": [],
      "name": "getExchangeRateOperate",
      "outputs": [
        {
          "internalType": "uint256",
          "name": "exchangeRate_",
          "type": "uint256"
        }
      ],
      "stateMutability": "view",
      "type": "function"
    },
    {
      "inputs": [],
      "name": "infoName",
      "outputs": [
        {
          "internalType": "string",
          "name": "",
          "type": "string"
        }
      ],
      "stateMutability": "view",
      "type": "function"
    },
    {
      "inputs": [],
      "name": "redstoneOracleData",
      "outputs": [
        {
          "internalType": "uint256",
          "name": "redstoneExchangeRate_",
          "type": "uint256"
        },
        {
          "internalType": "contract IRedstoneOracle",
          "name": "redstoneOracle_",
          "type": "address"
        },
        {
          "internalType": "bool",
          "name": "redstoneInvertRate_",
          "type": "bool"
        }
      ],
      "stateMutability": "view",
      "type": "function"
    },
    {
      "inputs": [],
      "name": "wstETHOracleData",
      "outputs": [
        {
          "internalType": "uint256",
          "name": "wstETHExchangeRate_",
          "type": "uint256"
        },
        {
          "internalType": "contract IWstETH",
          "name": "wstETH_",
          "type": "address"
        }
      ],
      "stateMutability": "view",
      "type": "function"
    }
  ],
  "transactionHash": "0x0f25a0ac0625e89724bae81dfcf778ea5173e723b03e34f462e5fff5680fb32d",
  "args": [
    "USD for 1 WSTETH",
    "0xf1442714E502723D5bB253B806Fd7555BEE0336C",
    1,
    {
      "hops": 1,
      "feed1": {
        "feed": "0xCfE54B5cD566aB89272946F602D76Ea879CAb4a8",
        "invertRate": false,
        "token0Decimals": 18
      },
      "feed2": {
        "feed": "0x0000000000000000000000000000000000000000",
        "invertRate": false,
        "token0Decimals": 0
      },
      "feed3": {
        "feed": "0x0000000000000000000000000000000000000000",
        "invertRate": false,
        "token0Decimals": 0
      }
    },
    {
      "oracle": "0x0000000000000000000000000000000000000000",
      "invertRate": false,
      "token0Decimals": 0
    }
  ],
  "numDeployments": 1,
  "solcInputHash": "19beb170e1c861af78d776de54ec393b",
  "bytecode": "0x61032060405261dead610160523480156200001957600080fd5b5060405162001b4b38038062001b4b8339810160408190526200003c916200064e565b805183908390839082906001600160a01b0316156200005c578162000088565b6040518060600160405280610160516001600160a01b0316815260200160001515815260200160018152505b888a6020815111806200009a57508051155b15620000c25760405163c82fc46560e01b815261ea6a60048201526024015b60405180910390fd5b602001516080526001600160a01b038116620000f65760405163c82fc46560e01b815261f6196004820152602401620000b9565b6001600160a01b03811660c052620001116012601b62000769565b6200011e90600a62000882565b60a0525080516001600160a01b031615806200013c57506040810151155b15620001605760405163c82fc46560e01b815261fa016004820152602401620000b9565b80516001600160a01b0390811660e05260208201511515610100526101605182518216911614620001b05760408101516200019d90601b62000769565b620001aa90600a62000882565b620001b3565b60015b610120526101605181516001600160a01b03908116911614620001f5576040810151620001e290601b62000897565b620001ef90600a62000882565b620001f8565b60015b61014052508051600160ff90911610806200021a57506003816000015160ff16115b806200024357506020810151516001600160a01b03161580620002435750602081015160400151155b806200027e57506001816000015160ff161180156200027e57506040810151516001600160a01b031615806200027e57506040808201510151155b80620002ba57506002816000015160ff16118015620002ba57506060810151516001600160a01b03161580620002ba5750606081015160400151155b15620002de5760405163c82fc46560e01b815261ee496004820152602401620000b9565b60208082018051516001600160a01b0390811661018052604080850180515183166101a052606086018051519093166101c052835185015115156101e052518401511515610200529051909201511515610220525101516200034290601b62000769565b6200034f90600a62000882565b610240526020810151604001516200036990601b62000897565b6200037690600a62000882565b610260528051600160ff9091161162000391576001620003b3565b6040808201510151620003a690601b62000769565b620003b390600a62000882565b610280528051600160ff90911611620003ce576001620003f0565b6040808201510151620003e390601b62000897565b620003f090600a62000882565b6102a0528051600260ff909116116200040b5760016200042e565b6060810151604001516200042190601b62000769565b6200042e90600a62000882565b6102c0528051600260ff90911611620004495760016200046c565b6060810151604001516200045f90601b62000897565b6200046c90600a62000882565b6102e05250600160ff8416108062000487575060038360ff16115b15620004ab5760405163c82fc46560e01b815261fde96004820152602401620000b9565b505060ff166103005250620008ad9350505050565b634e487b7160e01b600052604160045260246000fd5b604051601f8201601f191681016001600160401b0381118282101715620005015762000501620004c0565b604052919050565b6001600160a01b03811681146200051f57600080fd5b50565b80516200052f8162000509565b919050565b805160ff811681146200052f57600080fd5b6000606082840312156200055957600080fd5b604051606081016001600160401b03811182821017156200057e576200057e620004c0565b80604052508091508251620005938162000509565b815260208301518015158114620005a957600080fd5b6020820152604092830151920191909152919050565b60006101408284031215620005d357600080fd5b604051608081016001600160401b0381118282101715620005f857620005f8620004c0565b604052905080620006098362000534565b81526200061a846020850162000546565b60208201526200062e846080850162000546565b6040820152620006428460e0850162000546565b60608201525092915050565b600080600080600061020086880312156200066857600080fd5b85516001600160401b03808211156200068057600080fd5b818801915088601f8301126200069557600080fd5b815181811115620006aa57620006aa620004c0565b60209150620006c2601f8201601f19168301620004d6565b8181528a83838601011115620006d757600080fd5b60005b82811015620006f7578481018401518282018501528301620006da565b50600083838301015280985050506200071281890162000522565b95505050620007246040870162000534565b9250620007358760608801620005bf565b915062000747876101a0880162000546565b90509295509295909350565b634e487b7160e01b600052601160045260246000fd5b818103818111156200077f576200077f62000753565b92915050565b600181815b80851115620007c6578160001904821115620007aa57620007aa62000753565b80851615620007b857918102915b93841c93908002906200078a565b509250929050565b600082620007df575060016200077f565b81620007ee575060006200077f565b8160018114620008075760028114620008125762000832565b60019150506200077f565b60ff84111562000826576200082662000753565b50506001821b6200077f565b5060208310610133831016604e8410600b841016171562000857575081810a6200077f565b62000863838362000785565b80600019048211156200087a576200087a62000753565b029392505050565b6000620008908383620007ce565b9392505050565b808201808211156200077f576200077f62000753565b60805160a05160c05160e05161010051610120516101405161016051610180516101a0516101c0516101e05161020051610220516102405161026051610280516102a0516102c0516102e051610300516110ed62000a5e60003960008181609401528181610c1b0152610c5401526000818161047201526109f601526000818161045101526109d501526000818161038001526108ff01526000818161035f01526108de015260008181610296015261081c01526000818161027501526107fb0152600081816103cf0152818161043001526109b40152600081816102dd0152818161033e01526108bd01526000818161020f0152818161025401526107da0152600081816103ae0152818161040f0152818161094301526109930152600081816102bc0152818161031d0152818161084c015261089c0152600081816101ee0152818161023301526107b9015260006104c501526000610bc201526000610bf101526000818161056c0152610b980152600081816104fc015281816105490152610ae90152600081816107830152610ce001526000610cbf01526000818161062201526106e701526110ed6000f3fe608060405234801561001057600080fd5b50600436106100885760003560e01c8063abd5f95d1161005b578063abd5f95d14610186578063dfaba9b51461019b578063e6aa216c146101cd578063f3190c891461017057600080fd5b80633437eac41461008d5780637557ca41146100c357806388c35209146101365780638e7bfbc014610170575b600080fd5b60405160ff7f00000000000000000000000000000000000000000000000000000000000000001681526020015b60405180910390f35b6100cb6101d5565b604080519a8b5273ffffffffffffffffffffffffffffffffffffffff998a1660208c0152971515978a01979097526060890195909552928616608088015290151560a087015260c086015290921660e0840152901515610100830152610120820152610140016100ba565b61013e6104be565b6040805193845273ffffffffffffffffffffffffffffffffffffffff90921660208401521515908201526060016100ba565b610178610591565b6040519081526020016100ba565b61018e610610565b6040516100ba9190610d77565b6101a3610775565b6040805192835273ffffffffffffffffffffffffffffffffffffffff9091166020830152016100ba565b6101786107a8565b6000806000806000806000806000806101ec6107b2565b7f00000000000000000000000000000000000000000000000000000000000000007f00000000000000000000000000000000000000000000000000000000000000006102ba7f00000000000000000000000000000000000000000000000000000000000000007f00000000000000000000000000000000000000000000000000000000000000007f00000000000000000000000000000000000000000000000000000000000000007f0000000000000000000000000000000000000000000000000000000000000000610a24565b7f00000000000000000000000000000000000000000000000000000000000000007f000000000000000000000000000000000000000000000000000000000000000073ffffffffffffffffffffffffffffffffffffffff8216156103a9576103a47f00000000000000000000000000000000000000000000000000000000000000007f00000000000000000000000000000000000000000000000000000000000000007f00000000000000000000000000000000000000000000000000000000000000007f0000000000000000000000000000000000000000000000000000000000000000610a24565b6103ac565b60005b7f00000000000000000000000000000000000000000000000000000000000000007f000000000000000000000000000000000000000000000000000000000000000073ffffffffffffffffffffffffffffffffffffffff82161561049b576104967f00000000000000000000000000000000000000000000000000000000000000007f00000000000000000000000000000000000000000000000000000000000000007f00000000000000000000000000000000000000000000000000000000000000007f0000000000000000000000000000000000000000000000000000000000000000610a24565b61049e565b60005b995099509950995099509950995099509950995090919293949596979899565b60008060007f000000000000000000000000000000000000000000000000000000000000000073ffffffffffffffffffffffffffffffffffffffff167f000000000000000000000000000000000000000000000000000000000000000073ffffffffffffffffffffffffffffffffffffffff16146105435761053e610ae5565b610546565b60005b937f000000000000000000000000000000000000000000000000000000000000000093507f000000000000000000000000000000000000000000000000000000000000000092509050565b600061059b610c16565b50905060008190036105e2576040517fc82fc465000000000000000000000000000000000000000000000000000000008152620105b9600482015260240160405180910390fd5b6105ee601b600a610f34565b816105f7610cbb565b6106019190610f47565b61060b9190610f5e565b905090565b606060005b60208110801561067b57507f0000000000000000000000000000000000000000000000000000000000000000816020811061065257610652610f99565b1a60f81b7fff000000000000000000000000000000000000000000000000000000000000001615155b15610692578061068a81610fc8565b915050610615565b60008167ffffffffffffffff8111156106ad576106ad611000565b6040519080825280601f01601f1916602001820160405280156106d7576020820181803683370190505b50905060005b8281101561076e577f0000000000000000000000000000000000000000000000000000000000000000816020811061071757610717610f99565b1a60f81b82828151811061072d5761072d610f99565b60200101907effffffffffffffffffffffffffffffffffffffffffffffffffffffffffffff1916908160001a9053508061076681610fc8565b9150506106dd565b5092915050565b600080610780610cbb565b927f000000000000000000000000000000000000000000000000000000000000000092509050565b600061060b610591565b60006108407f00000000000000000000000000000000000000000000000000000000000000007f00000000000000000000000000000000000000000000000000000000000000007f00000000000000000000000000000000000000000000000000000000000000007f0000000000000000000000000000000000000000000000000000000000000000610a24565b905080158061088357507f000000000000000000000000000000000000000000000000000000000000000073ffffffffffffffffffffffffffffffffffffffff16155b1561088b5790565b610897601b600a610f34565b6109237f00000000000000000000000000000000000000000000000000000000000000007f00000000000000000000000000000000000000000000000000000000000000007f00000000000000000000000000000000000000000000000000000000000000007f0000000000000000000000000000000000000000000000000000000000000000610a24565b61092d9083610f47565b6109379190610f5e565b905080158061097a57507f000000000000000000000000000000000000000000000000000000000000000073ffffffffffffffffffffffffffffffffffffffff16155b156109825790565b61098e601b600a610f34565b610a1a7f00000000000000000000000000000000000000000000000000000000000000007f00000000000000000000000000000000000000000000000000000000000000007f00000000000000000000000000000000000000000000000000000000000000007f0000000000000000000000000000000000000000000000000000000000000000610a24565b6106019083610f47565b60008473ffffffffffffffffffffffffffffffffffffffff1663feaf968c6040518163ffffffff1660e01b815260040160a060405180830381865afa925050508015610aab575060408051601f3d9081017fffffffffffffffffffffffffffffffffffffffffffffffffffffffffffffffe0168201909252610aa89181019061104e565b60015b610ab757506000610add565b8815610ad357610ac78488610f5e565b95505050505050610add565b610ac78885610f47565b949350505050565b60007f000000000000000000000000000000000000000000000000000000000000000073ffffffffffffffffffffffffffffffffffffffff1663e6aa216c6040518163ffffffff1660e01b8152600401602060405180830381865afa925050508015610b8c575060408051601f3d9081017fffffffffffffffffffffffffffffffffffffffffffffffffffffffffffffffe0168201909252610b899181019061109e565b60015b610b965750600090565b7f000000000000000000000000000000000000000000000000000000000000000015610bec57610be6817f0000000000000000000000000000000000000000000000000000000000000000610f5e565b91505090565b610be67f000000000000000000000000000000000000000000000000000000000000000082610f47565b6000807f000000000000000000000000000000000000000000000000000000000000000060ff16600103610c5257610c4c6107b2565b91509091565b7f000000000000000000000000000000000000000000000000000000000000000060ff16600203610c9e57610c856107b2565b915081600003610c9a57506001610c4c610ae5565b9091565b610ca6610ae5565b915081600003610c9a57506001610c4c6107b2565b60007f00000000000000000000000000000000000000000000000000000000000000007f000000000000000000000000000000000000000000000000000000000000000073ffffffffffffffffffffffffffffffffffffffff1663035faf826040518163ffffffff1660e01b8152600401602060405180830381865afa158015610d49573d6000803e3d6000fd5b505050506040513d601f19601f82011682018060405250810190610d6d919061109e565b61060b9190610f47565b600060208083528351808285015260005b81811015610da457858101830151858201604001528201610d88565b5060006040828601015260407fffffffffffffffffffffffffffffffffffffffffffffffffffffffffffffffe0601f8301168501019250505092915050565b7f4e487b7100000000000000000000000000000000000000000000000000000000600052601160045260246000fd5b600181815b80851115610e6b57817fffffffffffffffffffffffffffffffffffffffffffffffffffffffffffffffff04821115610e5157610e51610de3565b80851615610e5e57918102915b93841c9390800290610e17565b509250929050565b600082610e8257506001610f2e565b81610e8f57506000610f2e565b8160018114610ea55760028114610eaf57610ecb565b6001915050610f2e565b60ff841115610ec057610ec0610de3565b50506001821b610f2e565b5060208310610133831016604e8410600b8410161715610eee575081810a610f2e565b610ef88383610e12565b807fffffffffffffffffffffffffffffffffffffffffffffffffffffffffffffffff04821115610f2a57610f2a610de3565b0290505b92915050565b6000610f408383610e73565b9392505050565b8082028115828204841417610f2e57610f2e610de3565b600082610f94577f4e487b7100000000000000000000000000000000000000000000000000000000600052601260045260246000fd5b500490565b7f4e487b7100000000000000000000000000000000000000000000000000000000600052603260045260246000fd5b60007fffffffffffffffffffffffffffffffffffffffffffffffffffffffffffffffff8203610ff957610ff9610de3565b5060010190565b7f4e487b7100000000000000000000000000000000000000000000000000000000600052604160045260246000fd5b805169ffffffffffffffffffff8116811461104957600080fd5b919050565b600080600080600060a0868803121561106657600080fd5b61106f8661102f565b94506020860151935060408601519250606086015191506110926080870161102f565b90509295509295909350565b6000602082840312156110b057600080fd5b505191905056fea2646970667358221220f83c83aca4502f0985d6f2e1aa28701e446a2dfa116a7e715692768f376fd15a64736f6c63430008150033",
  "devdoc": {
    "kind": "dev",
    "methods": {
      "constructor": {
        "params": {
          "chainlinkParams_": "chainlink Oracle constructor params struct.",
          "infoName_": "Oracle identify helper name.",
          "mainSource_": "which oracle to use as main source: 1 = Chainlink, 2 = Redstone (other one is fallback).",
          "redstoneOracle_": "Redstone Oracle data. (address can be set to zero address if using Chainlink only)",
          "wstETH_": "address of the wstETH contract"
        }
      },
      "getExchangeRate()": {
        "details": "Deprecated. Use `getExchangeRateOperate()` and `getExchangeRateLiquidate()` instead. Only implemented for      backwards compatibility."
      }
    },
    "title": "WstETH Chainlink / Redstone Oracle (with fallback)",
    "version": 1
  },
  "userdoc": {
    "kind": "user",
    "methods": {
      "FALLBACK_ORACLE_MAIN_SOURCE()": {
        "notice": "which oracle to use as main source:          - 1 = Chainlink ONLY (no fallback)          - 2 = Chainlink with Redstone Fallback          - 3 = Redstone with Chainlink Fallback"
      },
      "chainlinkOracleData()": {
        "notice": "returns all Chainlink oracle related data as utility for easy off-chain use / block explorer in a single view method"
      },
      "constructor": {
        "notice": "sets the wstETH address, main source, Chainlink Oracle and Redstone Oracle data."
      },
      "getExchangeRateLiquidate()": {
        "notice": "Get the `exchangeRate_` between the underlying asset and the peg asset in 1e27 for liquidations"
      },
      "getExchangeRateOperate()": {
        "notice": "Get the `exchangeRate_` between the underlying asset and the peg asset in 1e27 for operates"
      },
      "infoName()": {
        "notice": "helper string to easily identify the oracle. E.g. token symbols"
      },
      "redstoneOracleData()": {
        "notice": "returns all Redstone oracle related data as utility for easy off-chain use / block explorer in a single view method"
      },
      "wstETHOracleData()": {
        "notice": "returns all wWtETH oracle related data as utility for easy off-chain use / block explorer in a single view method"
      }
    },
    "notice": "Gets the exchange rate between the underlying asset and the peg asset by using:          wstETH Oracle price in combination with rate from Chainlink price feeds (or Redstone as fallback),          hopping the 2 rates into 1 rate.          e.g. when going from wstETH to USDT:          wstETH -> stETH wstETH Oracle, stETH -> ETH Chainlink feed, ETH -> USDT Chainlink feed.",
    "version": 1
  },
  "storageLayout": {
    "storage": [],
    "types": null
  }
}