{
  "address": "0x0000000000000000000000000000000000000000",
  "abi": [
    {
      "inputs": [
        {
          "internalType": "uint256",
          "name": "dexId_",
          "type": "uint256"
        },
        {
          "internalType": "address",
          "name": "liquidity_",
          "type": "address"
        },
        {
          "internalType": "address",
          "name": "dexFactory_",
          "type": "address"
        },
        {
          "internalType": "address",
          "name": "smartLendingFactory_",
          "type": "address"
        }
      ],
      "stateMutability": "nonpayable",
      "type": "constructor"
    },
    {
      "inputs": [
        {
          "internalType": "uint256",
          "name": "errorId_",
          "type": "uint256"
        }
      ],
      "name": "FluidDexError",
      "type": "error"
    },
    {
      "inputs": [
        {
          "internalType": "uint256",
          "name": "errorId",
          "type": "uint256"
        }
      ],
      "name": "FluidDexFactoryError",
      "type": "error"
    },
    {
      "inputs": [
        {
          "internalType": "uint256",
          "name": "shares_",
          "type": "uint256"
        }
      ],
      "name": "FluidDexLiquidityOutput",
      "type": "error"
    },
    {
      "inputs": [
        {
          "internalType": "uint256",
          "name": "token0Amt",
          "type": "uint256"
        },
        {
          "internalType": "uint256",
          "name": "token1Amt",
          "type": "uint256"
        }
      ],
      "name": "FluidDexPerfectLiquidityOutput",
      "type": "error"
    },
    {
      "inputs": [
        {
          "components": [
            {
              "internalType": "uint256",
              "name": "lastStoredPrice",
              "type": "uint256"
            },
            {
              "internalType": "uint256",
              "name": "centerPrice",
              "type": "uint256"
            },
            {
              "internalType": "uint256",
              "name": "upperRange",
              "type": "uint256"
            },
            {
              "internalType": "uint256",
              "name": "lowerRange",
              "type": "uint256"
            },
            {
              "internalType": "uint256",
              "name": "geometricMean",
              "type": "uint256"
            },
            {
              "internalType": "uint256",
              "name": "supplyToken0ExchangePrice",
              "type": "uint256"
            },
            {
              "internalType": "uint256",
              "name": "borrowToken0ExchangePrice",
              "type": "uint256"
            },
            {
              "internalType": "uint256",
              "name": "supplyToken1ExchangePrice",
              "type": "uint256"
            },
            {
              "internalType": "uint256",
              "name": "borrowToken1ExchangePrice",
              "type": "uint256"
            }
          ],
          "internalType": "struct Structs.PricesAndExchangePrice",
          "name": "pex_",
          "type": "tuple"
        }
      ],
      "name": "FluidDexPricesAndExchangeRates",
      "type": "error"
    },
    {
      "inputs": [
        {
          "internalType": "uint256",
          "name": "tokenAmt",
          "type": "uint256"
        }
      ],
      "name": "FluidDexSingleTokenOutput",
      "type": "error"
    },
    {
      "inputs": [
        {
          "internalType": "uint256",
          "name": "amountOut",
          "type": "uint256"
        }
      ],
      "name": "FluidDexSwapResult",
      "type": "error"
    },
    {
      "inputs": [
        {
          "internalType": "uint256",
          "name": "errorId_",
          "type": "uint256"
        }
      ],
      "name": "FluidSafeTransferError",
      "type": "error"
    },
    {
      "inputs": [
        {
          "internalType": "uint256",
          "name": "errorId_",
          "type": "uint256"
        }
      ],
      "name": "FluidSmartLendingError",
      "type": "error"
    },
    {
      "inputs": [
        {
          "internalType": "uint256",
          "name": "errorId_",
          "type": "uint256"
        }
      ],
      "name": "FluidSmartLendingFactoryError",
      "type": "error"
    },
    {
      "anonymous": false,
      "inputs": [
        {
          "indexed": true,
          "internalType": "address",
          "name": "owner",
          "type": "address"
        },
        {
          "indexed": true,
          "internalType": "address",
          "name": "spender",
          "type": "address"
        },
        {
          "indexed": false,
          "internalType": "uint256",
          "name": "value",
          "type": "uint256"
        }
      ],
      "name": "Approval",
      "type": "event"
    },
    {
      "anonymous": false,
      "inputs": [
        {
          "indexed": false,
          "internalType": "int256",
          "name": "feeOrReward",
          "type": "int256"
        }
      ],
      "name": "LogFeeOrRewardSet",
      "type": "event"
    },
    {
      "anonymous": false,
      "inputs": [
        {
          "indexed": false,
          "internalType": "uint256",
          "name": "shares_",
          "type": "uint256"
        },
        {
          "indexed": false,
          "internalType": "uint256",
          "name": "token0Amt_",
          "type": "uint256"
        },
        {
          "indexed": false,
          "internalType": "uint256",
          "name": "token1Amt_",
          "type": "uint256"
        },
        {
          "indexed": false,
          "internalType": "bool",
          "name": "isWithdraw_",
          "type": "bool"
        }
      ],
      "name": "LogRebalance",
      "type": "event"
    },
    {
      "anonymous": false,
      "inputs": [
        {
          "indexed": false,
          "internalType": "address",
          "name": "rebalancer",
          "type": "address"
        }
      ],
      "name": "LogRebalancerSet",
      "type": "event"
    },
    {
      "anonymous": false,
      "inputs": [
        {
          "indexed": true,
          "internalType": "address",
          "name": "from",
          "type": "address"
        },
        {
          "indexed": true,
          "internalType": "address",
          "name": "to",
          "type": "address"
        },
        {
          "indexed": false,
          "internalType": "uint256",
          "name": "value",
          "type": "uint256"
        }
      ],
      "name": "Transfer",
      "type": "event"
    },
    {
      "inputs": [],
      "name": "DEX",
      "outputs": [
        {
          "internalType": "contract IFluidDexT1",
          "name": "",
          "type": "address"
        }
      ],
      "stateMutability": "view",
      "type": "function"
    },
    {
      "inputs": [],
      "name": "DEX_FACTORY",
      "outputs": [
        {
          "internalType": "contract FluidDexFactory",
          "name": "",
          "type": "address"
        }
      ],
      "stateMutability": "view",
      "type": "function"
    },
    {
      "inputs": [],
      "name": "IS_NATIVE_PAIR",
      "outputs": [
        {
          "internalType": "bool",
          "name": "",
          "type": "bool"
        }
      ],
      "stateMutability": "view",
      "type": "function"
    },
    {
      "inputs": [],
      "name": "LIQUIDITY",
      "outputs": [
        {
          "internalType": "address",
          "name": "",
          "type": "address"
        }
      ],
      "stateMutability": "view",
      "type": "function"
    },
    {
      "inputs": [],
      "name": "SMART_LENDING_FACTORY",
      "outputs": [
        {
          "internalType": "contract FluidSmartLendingFactory",
          "name": "",
          "type": "address"
        }
      ],
      "stateMutability": "view",
      "type": "function"
    },
    {
      "inputs": [],
      "name": "TOKEN0",
      "outputs": [
        {
          "internalType": "address",
          "name": "",
          "type": "address"
        }
      ],
      "stateMutability": "view",
      "type": "function"
    },
    {
      "inputs": [],
      "name": "TOKEN1",
      "outputs": [
        {
          "internalType": "address",
          "name": "",
          "type": "address"
        }
      ],
      "stateMutability": "view",
      "type": "function"
    },
    {
      "inputs": [
        {
          "internalType": "address",
          "name": "owner",
          "type": "address"
        },
        {
          "internalType": "address",
          "name": "spender",
          "type": "address"
        }
      ],
      "name": "allowance",
      "outputs": [
        {
          "internalType": "uint256",
          "name": "",
          "type": "uint256"
        }
      ],
      "stateMutability": "view",
      "type": "function"
    },
    {
      "inputs": [
        {
          "internalType": "address",
          "name": "spender",
          "type": "address"
        },
        {
          "internalType": "uint256",
          "name": "amount",
          "type": "uint256"
        }
      ],
      "name": "approve",
      "outputs": [
        {
          "internalType": "bool",
          "name": "",
          "type": "bool"
        }
      ],
      "stateMutability": "nonpayable",
      "type": "function"
    },
    {
      "inputs": [
        {
          "internalType": "address",
          "name": "account",
          "type": "address"
        }
      ],
      "name": "balanceOf",
      "outputs": [
        {
          "internalType": "uint256",
          "name": "",
          "type": "uint256"
        }
      ],
      "stateMutability": "view",
      "type": "function"
    },
    {
      "inputs": [],
      "name": "decimals",
      "outputs": [
        {
          "internalType": "uint8",
          "name": "",
          "type": "uint8"
        }
      ],
      "stateMutability": "view",
      "type": "function"
    },
    {
      "inputs": [
        {
          "internalType": "address",
          "name": "spender",
          "type": "address"
        },
        {
          "internalType": "uint256",
          "name": "subtractedValue",
          "type": "uint256"
        }
      ],
      "name": "decreaseAllowance",
      "outputs": [
        {
          "internalType": "bool",
          "name": "",
          "type": "bool"
        }
      ],
      "stateMutability": "nonpayable",
      "type": "function"
    },
    {
      "inputs": [
        {
          "internalType": "uint256",
          "name": "token0Amt_",
          "type": "uint256"
        },
        {
          "internalType": "uint256",
          "name": "token1Amt_",
          "type": "uint256"
        },
        {
          "internalType": "uint256",
          "name": "minSharesAmt_",
          "type": "uint256"
        },
        {
          "internalType": "address",
          "name": "to_",
          "type": "address"
        }
      ],
      "name": "deposit",
      "outputs": [
        {
          "internalType": "uint256",
          "name": "amount_",
          "type": "uint256"
        },
        {
          "internalType": "uint256",
          "name": "shares_",
          "type": "uint256"
        }
      ],
      "stateMutability": "payable",
      "type": "function"
    },
    {
      "inputs": [
        {
          "internalType": "uint256",
          "name": "shares_",
          "type": "uint256"
        },
        {
          "internalType": "uint256",
          "name": "maxToken0Deposit_",
          "type": "uint256"
        },
        {
          "internalType": "uint256",
          "name": "maxToken1Deposit_",
          "type": "uint256"
        },
        {
          "internalType": "address",
          "name": "to_",
          "type": "address"
        }
      ],
      "name": "depositPerfect",
      "outputs": [
        {
          "internalType": "uint256",
          "name": "amount_",
          "type": "uint256"
        },
        {
          "internalType": "uint256",
          "name": "token0Amt_",
          "type": "uint256"
        },
        {
          "internalType": "uint256",
          "name": "token1Amt_",
          "type": "uint256"
        }
      ],
      "stateMutability": "payable",
      "type": "function"
    },
    {
      "inputs": [
        {
          "internalType": "address",
          "name": "token_",
          "type": "address"
        },
        {
          "internalType": "uint256",
          "name": "amount_",
          "type": "uint256"
        }
      ],
      "name": "dexCallback",
      "outputs": [],
      "stateMutability": "nonpayable",
      "type": "function"
    },
    {
      "inputs": [],
      "name": "dexFromAddress",
      "outputs": [
        {
          "internalType": "address",
          "name": "",
          "type": "address"
        }
      ],
      "stateMutability": "view",
      "type": "function"
    },
    {
      "inputs": [],
      "name": "exchangePrice",
      "outputs": [
        {
          "internalType": "uint184",
          "name": "",
          "type": "uint184"
        }
      ],
      "stateMutability": "view",
      "type": "function"
    },
    {
      "inputs": [],
      "name": "feeOrReward",
      "outputs": [
        {
          "internalType": "int32",
          "name": "",
          "type": "int32"
        }
      ],
      "stateMutability": "view",
      "type": "function"
    },
    {
      "inputs": [
        {
          "internalType": "address",
          "name": "spender",
          "type": "address"
        },
        {
          "internalType": "uint256",
          "name": "addedValue",
          "type": "uint256"
        }
      ],
      "name": "increaseAllowance",
      "outputs": [
        {
          "internalType": "bool",
          "name": "",
          "type": "bool"
        }
      ],
      "stateMutability": "nonpayable",
      "type": "function"
    },
    {
      "inputs": [],
      "name": "lastTimestamp",
      "outputs": [
        {
          "internalType": "uint40",
          "name": "",
          "type": "uint40"
        }
      ],
      "stateMutability": "view",
      "type": "function"
    },
    {
      "inputs": [],
      "name": "name",
      "outputs": [
        {
          "internalType": "string",
          "name": "",
          "type": "string"
        }
      ],
      "stateMutability": "view",
      "type": "function"
    },
    {
      "inputs": [
        {
          "internalType": "uint256",
          "name": "minOrMaxToken0_",
          "type": "uint256"
        },
        {
          "internalType": "uint256",
          "name": "minOrMaxToken1_",
          "type": "uint256"
        }
      ],
      "name": "rebalance",
      "outputs": [
        {
          "internalType": "uint256",
          "name": "shares_",
          "type": "uint256"
        },
        {
          "internalType": "uint256",
          "name": "token0Amt_",
          "type": "uint256"
        },
        {
          "internalType": "uint256",
          "name": "token1Amt_",
          "type": "uint256"
        },
        {
          "internalType": "bool",
          "name": "isWithdraw_",
          "type": "bool"
        }
      ],
      "stateMutability": "payable",
      "type": "function"
    },
    {
      "inputs": [],
      "name": "rebalanceDiff",
      "outputs": [
        {
          "internalType": "int256",
          "name": "",
          "type": "int256"
        }
      ],
      "stateMutability": "view",
      "type": "function"
    },
    {
      "inputs": [],
      "name": "rebalancer",
      "outputs": [
        {
          "internalType": "address",
          "name": "",
          "type": "address"
        }
      ],
      "stateMutability": "view",
      "type": "function"
    },
    {
      "inputs": [
        {
          "internalType": "int256",
          "name": "feeOrReward_",
          "type": "int256"
        }
      ],
      "name": "setFeeOrReward",
      "outputs": [],
      "stateMutability": "nonpayable",
      "type": "function"
    },
    {
      "inputs": [
        {
          "internalType": "address",
          "name": "rebalancer_",
          "type": "address"
        }
      ],
      "name": "setRebalancer",
      "outputs": [],
      "stateMutability": "nonpayable",
      "type": "function"
    },
    {
      "inputs": [
        {
          "internalType": "address",
          "name": "target_",
          "type": "address"
        },
        {
          "internalType": "bytes",
          "name": "data_",
          "type": "bytes"
        }
      ],
      "name": "spell",
      "outputs": [
        {
          "internalType": "bytes",
          "name": "response_",
          "type": "bytes"
        }
      ],
      "stateMutability": "nonpayable",
      "type": "function"
    },
    {
      "inputs": [],
      "name": "symbol",
      "outputs": [
        {
          "internalType": "string",
          "name": "",
          "type": "string"
        }
      ],
      "stateMutability": "view",
      "type": "function"
    },
    {
      "inputs": [],
      "name": "totalSupply",
      "outputs": [
        {
          "internalType": "uint256",
          "name": "",
          "type": "uint256"
        }
      ],
      "stateMutability": "view",
      "type": "function"
    },
    {
      "inputs": [
        {
          "internalType": "address",
          "name": "to",
          "type": "address"
        },
        {
          "internalType": "uint256",
          "name": "amount",
          "type": "uint256"
        }
      ],
      "name": "transfer",
      "outputs": [
        {
          "internalType": "bool",
          "name": "",
          "type": "bool"
        }
      ],
      "stateMutability": "nonpayable",
      "type": "function"
    },
    {
      "inputs": [
        {
          "internalType": "address",
          "name": "from",
          "type": "address"
        },
        {
          "internalType": "address",
          "name": "to",
          "type": "address"
        },
        {
          "internalType": "uint256",
          "name": "amount",
          "type": "uint256"
        }
      ],
      "name": "transferFrom",
      "outputs": [
        {
          "internalType": "bool",
          "name": "",
          "type": "bool"
        }
      ],
      "stateMutability": "nonpayable",
      "type": "function"
    },
    {
      "inputs": [],
      "name": "updateExchangePrice",
      "outputs": [],
      "stateMutability": "nonpayable",
      "type": "function"
    },
    {
      "inputs": [
        {
          "internalType": "uint256",
          "name": "token0Amt_",
          "type": "uint256"
        },
        {
          "internalType": "uint256",
          "name": "token1Amt_",
          "type": "uint256"
        },
        {
          "internalType": "uint256",
          "name": "maxSharesAmt_",
          "type": "uint256"
        },
        {
          "internalType": "address",
          "name": "to_",
          "type": "address"
        }
      ],
      "name": "withdraw",
      "outputs": [
        {
          "internalType": "uint256",
          "name": "amount_",
          "type": "uint256"
        },
        {
          "internalType": "uint256",
          "name": "shares_",
          "type": "uint256"
        }
      ],
      "stateMutability": "nonpayable",
      "type": "function"
    },
    {
      "inputs": [
        {
          "internalType": "uint256",
          "name": "shares_",
          "type": "uint256"
        },
        {
          "internalType": "uint256",
          "name": "minToken0Withdraw_",
          "type": "uint256"
        },
        {
          "internalType": "uint256",
          "name": "minToken1Withdraw_",
          "type": "uint256"
        },
        {
          "internalType": "address",
          "name": "to_",
          "type": "address"
        }
      ],
      "name": "withdrawPerfect",
      "outputs": [
        {
          "internalType": "uint256",
          "name": "amount_",
          "type": "uint256"
        },
        {
          "internalType": "uint256",
          "name": "token0Amt_",
          "type": "uint256"
        },
        {
          "internalType": "uint256",
          "name": "token1Amt_",
          "type": "uint256"
        }
      ],
      "stateMutability": "nonpayable",
      "type": "function"
    },
    {
      "stateMutability": "payable",
      "type": "receive"
    }
  ],
  "transactionHash": "TODO_SET_AFTER_EXECUTION",
  "args": [
    19,
    "0x52Aa899454998Be5b000Ad077a46Bbe360F4e497",
    "0x91716C4EDA1Fb55e84Bf8b4c7085f84285c19085",
    "0xD5e549F00207d5F5796867Dad1ad635D903Aa002"
  ],
  "numDeployments": 2,
  "bytecode": "0x6101606040523480156200001257600080fd5b5060405162004b4a38038062004b4a8339810160408190526200003591620004d8565b60408051808201909152601481527f466c75696420536d617274204c656e64696e67200000000000000000000000006020820152620000748562000338565b604051602001620000879291906200055e565b60408051601f1981840301815282820190915260038252621994d360ea1b602083015290620000b68662000338565b604051602001620000c99291906200055e565b60408051601f198184030181529190526003620000e7838262000624565b506004620000f6828262000624565b50506007805460ff60a01b1916600160a01b17905550826001600160a01b0381166200013e57604051633407ab4b60e01b815261d2f160048201526024015b60405180910390fd5b826001600160a01b0381166200016c57604051633407ab4b60e01b815261d2f1600482015260240162000135565b826001600160a01b0381166200019a57604051633407ab4b60e01b815261d2f1600482015260240162000135565b6001600160a01b0386811660e052858116608081905290851660a052604051630971b35560e11b8152600481018990526312e366aa90602401602060405180830381865afa158015620001f1573d6000803e3d6000fd5b505050506040513d601f19601f82011682018060405250810190620002179190620006f0565b6001600160a01b031660c081905260408051635bbc8df960e11b815290516000929163b7791bf2916004808301926102409291908290030181865afa15801562000265573d6000803e3d6000fd5b505050506040513d601f19601f820116820180604052508101906200028b9190620007df565b60a08101516001600160a01b0390811661010081905260c08301519091166101205290915073eeeeeeeeeeeeeeeeeeeeeeeeeeeeeeeeeeeeeeee1480620002f15750610120516001600160a01b031673eeeeeeeeeeeeeeeeeeeeeeeeeeeeeeeeeeeeeeee145b151561014052505050504264ffffffffff16700de0b6b3a7640000000000000000000000176005555050600780546001600160a01b03191661dead17905550620008d59050565b606060006200034783620003d1565b60010190506000816001600160401b038111156200036957620003696200057f565b6040519080825280601f01601f19166020018201604052801562000394576020820181803683370190505b5090508181016020015b600019016f181899199a1a9b1b9c1cb0b131b232b360811b600a86061a8153600a85049450846200039e57509392505050565b6000807a184f03e93ff9f4daa797ed6e38ed64bf6a1f01000000000000000083106200041b577a184f03e93ff9f4daa797ed6e38ed64bf6a1f010000000000000000830492506040015b6d04ee2d6d415b85acef8100000000831062000448576d04ee2d6d415b85acef8100000000830492506020015b662386f26fc1000083106200046757662386f26fc10000830492506010015b6305f5e100831062000480576305f5e100830492506008015b61271083106200049557612710830492506004015b60648310620004a8576064830492506002015b600a8310620004b5576001015b92915050565b80516001600160a01b0381168114620004d357600080fd5b919050565b60008060008060808587031215620004ef57600080fd5b845193506200050160208601620004bb565b92506200051160408601620004bb565b91506200052160608601620004bb565b905092959194509250565b6000815160005b818110156200054f576020818501810151868301520162000533565b50600093019283525090919050565b6000620005776200057083866200052c565b846200052c565b949350505050565b634e487b7160e01b600052604160045260246000fd5b600181811c90821680620005aa57607f821691505b602082108103620005cb57634e487b7160e01b600052602260045260246000fd5b50919050565b601f8211156200061f57600081815260208120601f850160051c81016020861015620005fa5750805b601f850160051c820191505b818110156200061b5782815560010162000606565b5050505b505050565b81516001600160401b038111156200064057620006406200057f565b620006588162000651845462000595565b84620005d1565b602080601f831160018114620006905760008415620006775750858301515b600019600386901b1c1916600185901b1785556200061b565b600085815260208120601f198616915b82811015620006c157888601518255948401946001909101908401620006a0565b5085821015620006e05787850151600019600388901b60f8161c191681555b5050505050600190811b01905550565b6000602082840312156200070357600080fd5b6200070e82620004bb565b9392505050565b6040516101c081016001600160401b03811182821017156200073b576200073b6200057f565b60405290565b600060a082840312156200075457600080fd5b60405160a081016001600160401b03811182821017156200077957620007796200057f565b6040529050806200078a83620004bb565b81526200079a60208401620004bb565b6020820152620007ad60408401620004bb565b6040820152620007c060608401620004bb565b6060820152620007d360808401620004bb565b60808201525092915050565b60006102408284031215620007f357600080fd5b620007fd62000715565b825181526200080f60208401620004bb565b60208201526200082260408401620004bb565b604082015262000836846060850162000741565b60608201526101006200084b818501620004bb565b608083015261012062000860818601620004bb565b60a084015261014062000875818701620004bb565b60c08501526101608087015160e086015261018080880151858701526101a0945084880151848701526101c0880151838701526101e088015182870152610200880151818701525050505061022084015181830152508091505092915050565b60805160a05160c05160e05161010051610120516101405161418e620009bc600039600081816107b801528181610bc501528181612b33015261310a015260006104f50152600081816104a101528181610d0701528181612b5901526131300152600081816103fc0152611f890152600081816102390152818161058c01528181610c3b01528181610dc30152818161149601528181611df701528181611f0d0152818161256f01528181612a9f01528181612c71015261324d015260008181610857015281816117d401528181611c1401526120a40152600061060a015261418e6000f3fe60806040526004361061021c5760003560e01c806380935aa91161011d578063bd4dbda0116100b0578063ddd59b9f1161007f578063e47a882d11610064578063e47a882d1461080f578063f53eddcc14610845578063fad3cc4b1461087957600080fd5b8063ddd59b9f146107a6578063df8879b8146107da57600080fd5b8063bd4dbda0146106d1578063c7acb01f146106fe578063d331bef71461071e578063dd62ed3e1461075357600080fd5b806397b87b4a116100ec57806397b87b4a146105f85780639e65741e1461062c578063a457c2d714610691578063a9059cbb146106b157600080fd5b806380935aa91461057a57806392eb1656146105ae5780639410ae88146105c357806395d89b41146105e357600080fd5b8063313ce567116101b0578063443ec74d1161017f5780635ee04d78116101645780635ee04d78146104e35780636cfd15531461051757806370a082311461053757600080fd5b8063443ec74d1461048f5780634fa1aa8a146104c357600080fd5b8063313ce5671461041e57806335f0df981461043a578063395093511461045a5780633bfaa7e31461047a57600080fd5b806318160ddd116101ec57806318160ddd1461037757806319d8ac611461039657806323b872dd146103ca5780632861c7d1146103ea57600080fd5b8062c3cdae146102a057806301d22ccd146102d357806306fdde0314610325578063095ea7b31461034757600080fd5b3661029b573373ffffffffffffffffffffffffffffffffffffffff7f00000000000000000000000000000000000000000000000000000000000000001614610299576040517f3407ab4b00000000000000000000000000000000000000000000000000000000815261d2f260048201526024015b60405180910390fd5b005b600080fd5b6102b36102ae366004613c55565b61088c565b604080519384526020840192909252908201526060015b60405180910390f35b3480156102df57600080fd5b506006546103009073ffffffffffffffffffffffffffffffffffffffff1681565b60405173ffffffffffffffffffffffffffffffffffffffff90911681526020016102ca565b34801561033157600080fd5b5061033a610f65565b6040516102ca9190613cfa565b34801561035357600080fd5b50610367610362366004613d14565b610ff7565b60405190151581526020016102ca565b34801561038357600080fd5b506002545b6040519081526020016102ca565b3480156103a257600080fd5b506005546103b49064ffffffffff1681565b60405164ffffffffff90911681526020016102ca565b3480156103d657600080fd5b506103676103e5366004613d40565b611011565b3480156103f657600080fd5b506103007f000000000000000000000000000000000000000000000000000000000000000081565b34801561042a57600080fd5b50604051601281526020016102ca565b34801561044657600080fd5b506102b3610455366004613c55565b611035565b34801561046657600080fd5b50610367610475366004613d14565b611553565b34801561048657600080fd5b5061029961159f565b34801561049b57600080fd5b506103007f000000000000000000000000000000000000000000000000000000000000000081565b3480156104cf57600080fd5b506102996104de366004613d81565b6117a0565b3480156104ef57600080fd5b506103007f000000000000000000000000000000000000000000000000000000000000000081565b34801561052357600080fd5b50610299610532366004613d9a565b611be0565b34801561054357600080fd5b50610388610552366004613d9a565b73ffffffffffffffffffffffffffffffffffffffff1660009081526020819052604090205490565b34801561058657600080fd5b506103007f000000000000000000000000000000000000000000000000000000000000000081565b3480156105ba57600080fd5b50610388611d9a565b3480156105cf57600080fd5b506102996105de366004613d14565b611ef5565b3480156105ef57600080fd5b5061033a611fb2565b34801561060457600080fd5b506103007f000000000000000000000000000000000000000000000000000000000000000081565b34801561063857600080fd5b50600554610669906901000000000000000000900476ffffffffffffffffffffffffffffffffffffffffffffff1681565b60405176ffffffffffffffffffffffffffffffffffffffffffffff90911681526020016102ca565b34801561069d57600080fd5b506103676106ac366004613d14565b611fc1565b3480156106bd57600080fd5b506103676106cc366004613d14565b612092565b3480156106dd57600080fd5b506007546103009073ffffffffffffffffffffffffffffffffffffffff1681565b34801561070a57600080fd5b5061033a610719366004613de6565b6120a0565b34801561072a57600080fd5b5061073e610739366004613c55565b6121e3565b604080519283526020830191909152016102ca565b34801561075f57600080fd5b5061038861076e366004613ec8565b73ffffffffffffffffffffffffffffffffffffffff918216600090815260016020908152604080832093909416825291909152205490565b3480156107b257600080fd5b506103677f000000000000000000000000000000000000000000000000000000000000000081565b6107ed6107e8366004613f01565b612687565b60408051948552602085019390935291830152151560608201526080016102ca565b34801561081b57600080fd5b506005546108329065010000000000900460030b81565b60405160039190910b81526020016102ca565b34801561085157600080fd5b506103007f000000000000000000000000000000000000000000000000000000000000000081565b61073e610887366004613c55565b612dd1565b600780547fffffffffffffffffffffffff000000000000000000000000000000000000000016331790556005546000908190819065010000000000900460030b8112156109ee576108e46301e13380620f4240613f52565b6005546108f89064ffffffffff1642613f69565b6005546109379065010000000000810460030b906901000000000000000000900476ffffffffffffffffffffffffffffffffffffffffffffff16613f52565b6109419190613f52565b61094b9190613f7c565b60055461097e91906901000000000000000000900476ffffffffffffffffffffffffffffffffffffffffffffff16613fb7565b6005805468ffffffff000000000016690100000000000000000076ffffffffffffffffffffffffffffffffffffffffffffff93909316929092027fffffffffffffffffffffffffffffffffffffffffffffffffffffff000000000016919091174264ffffffffff16179055610b29565b60055460006501000000000090910460030b1215610b2957610a176301e13380620f4240613f52565b600554610a2b9064ffffffffff1642613f69565b600554610a439065010000000000900460030b613fee565b600554610a7691906901000000000000000000900476ffffffffffffffffffffffffffffffffffffffffffffff16613f52565b610a809190613f52565b610a8a9190613f7c565b600554610abd91906901000000000000000000900476ffffffffffffffffffffffffffffffffffffffffffffff16614026565b6005805468ffffffff000000000016690100000000000000000076ffffffffffffffffffffffffffffffffffffffffffffff93909316929092027fffffffffffffffffffffffffffffffffffffffffffffffffffffff000000000016919091174264ffffffffff161790555b60075474010000000000000000000000000000000000000000900460ff16600114610b84576040517f3407ab4b00000000000000000000000000000000000000000000000000000000815261d2f66004820152602401610290565b600780547fffffffffffffffffffffff00ffffffffffffffffffffffffffffffffffffffff16740200000000000000000000000000000000000000001790557f0000000000000000000000000000000000000000000000000000000000000000610d03573415610c24576040517f3407ab4b00000000000000000000000000000000000000000000000000000000815261d2f36004820152602401610290565b73ffffffffffffffffffffffffffffffffffffffff7f000000000000000000000000000000000000000000000000000000000000000016634d9036de610c6b896001614056565b6040517fffffffff0000000000000000000000000000000000000000000000000000000060e084901b168152600481019190915260248101899052604481018890526000606482015260840160408051808303816000875af1158015610cd5573d6000803e3d6000fd5b505050506040513d601f19601f82011682018060405250810190610cf99190614069565b9092509050610ea1565b60007f000000000000000000000000000000000000000000000000000000000000000073ffffffffffffffffffffffffffffffffffffffff1673eeeeeeeeeeeeeeeeeeeeeeeeeeeeeeeeeeeeeeee14610d5c5785610d5e565b865b905034811115610d9e576040517f3407ab4b00000000000000000000000000000000000000000000000000000000815261d2f36004820152602401610290565b6000610daa3447613f69565b905073ffffffffffffffffffffffffffffffffffffffff7f000000000000000000000000000000000000000000000000000000000000000016634d9036de83610df48c6001614056565b6040517fffffffff0000000000000000000000000000000000000000000000000000000060e085901b1681526004810191909152602481018c9052604481018b905260006064820152608401604080518083038185885af1158015610e5d573d6000803e3d6000fd5b50505050506040513d601f19601f82011682018060405250810190610e829190614069565b9094509250303181811115610e9d57610e9d33838303613368565b5050505b73ffffffffffffffffffffffffffffffffffffffff841615610ec35783610ec5565b335b6005549094506901000000000000000000900476ffffffffffffffffffffffffffffffffffffffffffffff16610f0388670de0b6b3a7640000613f52565b610f0d9190613f7c565b9250610f1984846133b9565b600780547fffffffffffffffffffffff000000000000000000000000000000000000000000167401000000000000000000000000000000000000dead1790559196909550909350915050565b606060038054610f749061408d565b80601f0160208091040260200160405190810160405280929190818152602001828054610fa09061408d565b8015610fed5780601f10610fc257610100808354040283529160200191610fed565b820191906000526020600020905b815481529060010190602001808311610fd057829003601f168201915b5050505050905090565b6000336110058185856134ac565b60019150505b92915050565b60003361101f85828561365f565b61102a858585613736565b506001949350505050565b6005546000908190819065010000000000900460030b81121561116d576110636301e13380620f4240613f52565b6005546110779064ffffffffff1642613f69565b6005546110b69065010000000000810460030b906901000000000000000000900476ffffffffffffffffffffffffffffffffffffffffffffff16613f52565b6110c09190613f52565b6110ca9190613f7c565b6005546110fd91906901000000000000000000900476ffffffffffffffffffffffffffffffffffffffffffffff16613fb7565b6005805468ffffffff000000000016690100000000000000000076ffffffffffffffffffffffffffffffffffffffffffffff93909316929092027fffffffffffffffffffffffffffffffffffffffffffffffffffffff000000000016919091174264ffffffffff161790556112a8565b60055460006501000000000090910460030b12156112a8576111966301e13380620f4240613f52565b6005546111aa9064ffffffffff1642613f69565b6005546111c29065010000000000900460030b613fee565b6005546111f591906901000000000000000000900476ffffffffffffffffffffffffffffffffffffffffffffff16613f52565b6111ff9190613f52565b6112099190613f7c565b60055461123c91906901000000000000000000900476ffffffffffffffffffffffffffffffffffffffffffffff16614026565b6005805468ffffffff000000000016690100000000000000000076ffffffffffffffffffffffffffffffffffffffffffffff93909316929092027fffffffffffffffffffffffffffffffffffffffffffffffffffffff000000000016919091174264ffffffffff161790555b60075474010000000000000000000000000000000000000000900460ff16600114611303576040517f3407ab4b00000000000000000000000000000000000000000000000000000000815261d2f66004820152602401610290565b600780547fffffffffffffffffffffff00ffffffffffffffffffffffffffffffffffffffff1674020000000000000000000000000000000000000000179055600187016113b85733600090815260208190526040902054600554909350600190670de0b6b3a76400009061139d906901000000000000000000900476ffffffffffffffffffffffffffffffffffffffffffffff1686613f52565b6113a79190613f7c565b6113b19190613f69565b965061140b565b6005546901000000000000000000900476ffffffffffffffffffffffffffffffffffffffffffffff166113f388670de0b6b3a7640000613f52565b6113fd9190613f7c565b611408906001614056565b92505b61141533846139a5565b73ffffffffffffffffffffffffffffffffffffffff8416156114375783611439565b335b6040517f35f0df9800000000000000000000000000000000000000000000000000000000815260048101899052602481018890526044810187905273ffffffffffffffffffffffffffffffffffffffff80831660648301529195507f0000000000000000000000000000000000000000000000000000000000000000909116906335f0df989060840160408051808303816000875af11580156114e0573d6000803e3d6000fd5b505050506040513d601f19601f820116820180604052508101906115049190614069565b600780547fffffffffffffffffffffff00ffffffffffffffffffffffffffffffffffffffff16740100000000000000000000000000000000000000001790559398909750929550919350505050565b33600081815260016020908152604080832073ffffffffffffffffffffffffffffffffffffffff87168452909152812054909190611005908290869061159a908790614056565b6134ac565b60055460006501000000000090910460030b13156116cf576115c86301e13380620f4240613f52565b6005546115dc9064ffffffffff1642613f69565b60055461161b9065010000000000810460030b906901000000000000000000900476ffffffffffffffffffffffffffffffffffffffffffffff16613f52565b6116259190613f52565b61162f9190613f7c565b60055461166291906901000000000000000000900476ffffffffffffffffffffffffffffffffffffffffffffff16613fb7565b6005805468ffffffff000000000016690100000000000000000076ffffffffffffffffffffffffffffffffffffffffffffff93909316929092027fffffffffffffffffffffffffffffffffffffffffffffffffffffff000000000016919091174264ffffffffff16179055565b60055460006501000000000090910460030b121561179e576116f86301e13380620f4240613f52565b60055461170c9064ffffffffff1642613f69565b6005546117249065010000000000900460030b613fee565b60055461175791906901000000000000000000900476ffffffffffffffffffffffffffffffffffffffffffffff16613f52565b6117619190613f52565b61176b9190613f7c565b60055461166291906901000000000000000000900476ffffffffffffffffffffffffffffffffffffffffffffff16614026565b565b6040517f73f156420000000000000000000000000000000000000000000000000000000081523060048201523360248201527f000000000000000000000000000000000000000000000000000000000000000073ffffffffffffffffffffffffffffffffffffffff16906373f1564290604401602060405180830381865afa158015611830573d6000803e3d6000fd5b505050506040513d601f19601f8201168201806040525081019061185491906140e0565b61188e576040517f3407ab4b00000000000000000000000000000000000000000000000000000000815261d2f26004820152602401610290565b60055460006501000000000090910460030b13156119c1576118b76301e13380620f4240613f52565b6005546118cb9064ffffffffff1642613f69565b60055461190a9065010000000000810460030b906901000000000000000000900476ffffffffffffffffffffffffffffffffffffffffffffff16613f52565b6119149190613f52565b61191e9190613f7c565b60055461195191906901000000000000000000900476ffffffffffffffffffffffffffffffffffffffffffffff16613fb7565b6005805468ffffffff000000000016690100000000000000000076ffffffffffffffffffffffffffffffffffffffffffffff93909316929092027fffffffffffffffffffffffffffffffffffffffffffffffffffffff000000000016919091174264ffffffffff16179055611afc565b60055460006501000000000090910460030b1215611afc576119ea6301e13380620f4240613f52565b6005546119fe9064ffffffffff1642613f69565b600554611a169065010000000000900460030b613fee565b600554611a4991906901000000000000000000900476ffffffffffffffffffffffffffffffffffffffffffffff16613f52565b611a539190613f52565b611a5d9190613f7c565b600554611a9091906901000000000000000000900476ffffffffffffffffffffffffffffffffffffffffffffff16614026565b6005805468ffffffff000000000016690100000000000000000076ffffffffffffffffffffffffffffffffffffffffffffff93909316929092027fffffffffffffffffffffffffffffffffffffffffffffffffffffff000000000016919091174264ffffffffff161790555b620f4240811380611b2c57507ffffffffffffffffffffffffffffffffffffffffffffffffffffffffffff0bdc081125b15611b67576040517f3407ab4b00000000000000000000000000000000000000000000000000000000815261d2f46004820152602401610290565b600580544264ffffffffff167fffffffffffffffffffffffffffffffffffffffffffffff000000000000000000909116176501000000000063ffffffff8416021790556040518181527f7f11439341687b064c9a44aed86bf97e498b897829329ebebee243a8aeab35bb9060200160405180910390a150565b6040517f73f156420000000000000000000000000000000000000000000000000000000081523060048201523360248201527f000000000000000000000000000000000000000000000000000000000000000073ffffffffffffffffffffffffffffffffffffffff16906373f1564290604401602060405180830381865afa158015611c70573d6000803e3d6000fd5b505050506040513d601f19601f82011682018060405250810190611c9491906140e0565b611cce576040517f3407ab4b00000000000000000000000000000000000000000000000000000000815261d2f26004820152602401610290565b8073ffffffffffffffffffffffffffffffffffffffff8116611d20576040517f3407ab4b00000000000000000000000000000000000000000000000000000000815261d2f16004820152602401610290565b600680547fffffffffffffffffffffffff00000000000000000000000000000000000000001673ffffffffffffffffffffffffffffffffffffffff84169081179091556040519081527f336a7807b53df027467559d6ed5ba292805d0e7df83ec3fd0df46e81675dbc5e9060200160405180910390a15050565b6040805130602080830191909152600382840152825180830384018152606083019384905280519101207fb5c736e400000000000000000000000000000000000000000000000000000000909252606481019190915260009081907f000000000000000000000000000000000000000000000000000000000000000073ffffffffffffffffffffffffffffffffffffffff169063b5c736e490608401602060405180830381865afa158015611e53573d6000803e3d6000fd5b505050506040513d601f19601f82011682018060405250810190611e779190614102565b600554600254600983901c66ffffffffffffff1660019390931c60ff169290921b9250600091670de0b6b3a7640000916901000000000000000000900476ffffffffffffffffffffffffffffffffffffffffffffff1690611ed89190613f52565b611ee29190613f7c565b9050611eee818361411b565b9250505090565b3373ffffffffffffffffffffffffffffffffffffffff7f00000000000000000000000000000000000000000000000000000000000000001614611f68576040517f3407ab4b00000000000000000000000000000000000000000000000000000000815261d2f26004820152602401610290565b600754611fae90839073ffffffffffffffffffffffffffffffffffffffff167f000000000000000000000000000000000000000000000000000000000000000084613b69565b5050565b606060048054610f749061408d565b33600081815260016020908152604080832073ffffffffffffffffffffffffffffffffffffffff8716845290915281205490919083811015612085576040517f08c379a000000000000000000000000000000000000000000000000000000000815260206004820152602560248201527f45524332303a2064656372656173656420616c6c6f77616e63652062656c6f7760448201527f207a65726f0000000000000000000000000000000000000000000000000000006064820152608401610290565b61102a82868684036134ac565b600033611005818585613736565b60607f000000000000000000000000000000000000000000000000000000000000000073ffffffffffffffffffffffffffffffffffffffff16638da5cb5b6040518163ffffffff1660e01b8152600401602060405180830381865afa15801561210d573d6000803e3d6000fd5b505050506040513d601f19601f82011682018060405250810190612131919061413b565b73ffffffffffffffffffffffffffffffffffffffff163373ffffffffffffffffffffffffffffffffffffffff1614612199576040517f3407ab4b00000000000000000000000000000000000000000000000000000000815261d2f26004820152602401610290565b600080835160208501865af43d6040519250601f19601f6020830101168301604052808352806000602085013e8115600181036121da57816000803e816000fd5b50505092915050565b600554600090819065010000000000900460030b8112156123195761220f6301e13380620f4240613f52565b6005546122239064ffffffffff1642613f69565b6005546122629065010000000000810460030b906901000000000000000000900476ffffffffffffffffffffffffffffffffffffffffffffff16613f52565b61226c9190613f52565b6122769190613f7c565b6005546122a991906901000000000000000000900476ffffffffffffffffffffffffffffffffffffffffffffff16613fb7565b6005805468ffffffff000000000016690100000000000000000076ffffffffffffffffffffffffffffffffffffffffffffff93909316929092027fffffffffffffffffffffffffffffffffffffffffffffffffffffff000000000016919091174264ffffffffff16179055612454565b60055460006501000000000090910460030b1215612454576123426301e13380620f4240613f52565b6005546123569064ffffffffff1642613f69565b60055461236e9065010000000000900460030b613fee565b6005546123a191906901000000000000000000900476ffffffffffffffffffffffffffffffffffffffffffffff16613f52565b6123ab9190613f52565b6123b59190613f7c565b6005546123e891906901000000000000000000900476ffffffffffffffffffffffffffffffffffffffffffffff16614026565b6005805468ffffffff000000000016690100000000000000000076ffffffffffffffffffffffffffffffffffffffffffffff93909316929092027fffffffffffffffffffffffffffffffffffffffffffffffffffffff000000000016919091174264ffffffffff161790555b60075474010000000000000000000000000000000000000000900460ff166001146124af576040517f3407ab4b00000000000000000000000000000000000000000000000000000000815261d2f66004820152602401610290565b600780547fffffffffffffffffffffff00ffffffffffffffffffffffffffffffffffffffff167402000000000000000000000000000000000000000017905573ffffffffffffffffffffffffffffffffffffffff8316156125105782612512565b335b6040517fd331bef700000000000000000000000000000000000000000000000000000000815260048101889052602481018790526044810186905273ffffffffffffffffffffffffffffffffffffffff80831660648301529194507f00000000000000000000000000000000000000000000000000000000000000009091169063d331bef7906084016020604051808303816000875af11580156125ba573d6000803e3d6000fd5b505050506040513d601f19601f820116820180604052508101906125de9190614102565b6005549091506901000000000000000000900476ffffffffffffffffffffffffffffffffffffffffffffff1661261c82670de0b6b3a7640000613f52565b6126269190613f7c565b612631906001614056565b915061263d33836139a5565b600780547fffffffffffffffffffffff00ffffffffffffffffffffffffffffffffffffffff1674010000000000000000000000000000000000000000179055909590945092505050565b600080600080600060058054906101000a900460030b60030b13156127c1576126b76301e13380620f4240613f52565b6005546126cb9064ffffffffff1642613f69565b60055461270a9065010000000000810460030b906901000000000000000000900476ffffffffffffffffffffffffffffffffffffffffffffff16613f52565b6127149190613f52565b61271e9190613f7c565b60055461275191906901000000000000000000900476ffffffffffffffffffffffffffffffffffffffffffffff16613fb7565b6005805468ffffffff000000000016690100000000000000000076ffffffffffffffffffffffffffffffffffffffffffffff93909316929092027fffffffffffffffffffffffffffffffffffffffffffffffffffffff000000000016919091174264ffffffffff161790556128fc565b60055460006501000000000090910460030b12156128fc576127ea6301e13380620f4240613f52565b6005546127fe9064ffffffffff1642613f69565b6005546128169065010000000000900460030b613fee565b60055461284991906901000000000000000000900476ffffffffffffffffffffffffffffffffffffffffffffff16613f52565b6128539190613f52565b61285d9190613f7c565b60055461289091906901000000000000000000900476ffffffffffffffffffffffffffffffffffffffffffffff16614026565b6005805468ffffffff000000000016690100000000000000000076ffffffffffffffffffffffffffffffffffffffffffffff93909316929092027fffffffffffffffffffffffffffffffffffffffffffffffffffffff000000000016919091174264ffffffffff161790555b60075474010000000000000000000000000000000000000000900460ff16600114612957576040517f3407ab4b00000000000000000000000000000000000000000000000000000000815261d2f66004820152602401610290565b60078054740200000000000000000000000000000000000000007fffffffffffffffffffffff00ffffffffffffffffffffffffffffffffffffffff90911617905560065473ffffffffffffffffffffffffffffffffffffffff1633146129ed576040517f3407ab4b00000000000000000000000000000000000000000000000000000000815261d2f56004820152602401610290565b60006129f7611d9a565b90506000811315612b1557600191503415612a42576040517f3407ab4b00000000000000000000000000000000000000000000000000000000815261d2f36004820152602401610290565b6040517f35f0df98000000000000000000000000000000000000000000000000000000008152600481018290526024810188905260448101879052336064820152909450849073ffffffffffffffffffffffffffffffffffffffff7f000000000000000000000000000000000000000000000000000000000000000016906335f0df989060840160408051808303816000875af1158015612ae7573d6000803e3d6000fd5b505050506040513d601f19601f82011682018060405250810190612b0b9190614069565b9094509250612d3f565b6000811215612d3f576000915081612b2d3447613f69565b905060007f000000000000000000000000000000000000000000000000000000000000000015612bb4577f000000000000000000000000000000000000000000000000000000000000000073ffffffffffffffffffffffffffffffffffffffff1673eeeeeeeeeeeeeeeeeeeeeeeeeeeeeeeeeeeeeeee14612bae5787612bb7565b88612bb7565b60005b905034811115612bf7576040517f3407ab4b00000000000000000000000000000000000000000000000000000000815261d2f36004820152602401610290565b612c0083613fee565b600780547fffffffffffffffffffffffff000000000000000000000000000000000000000016331790556040517f4d9036de00000000000000000000000000000000000000000000000000000000815260048101829052602481018b9052604481018a9052600060648201529097507f000000000000000000000000000000000000000000000000000000000000000073ffffffffffffffffffffffffffffffffffffffff1690634d9036de908390608401604080518083038185885af1158015612ccf573d6000803e3d6000fd5b50505050506040513d601f19601f82011682018060405250810190612cf49190614069565b600780547fffffffffffffffffffffffff00000000000000000000000000000000000000001661dead1790559096509450303182811115612d3b57612d3b33848303613368565b5050505b604080518681526020810186905290810184905282151560608201527f074a87ec182f91973b93d344745a07f667c7edd70584cb334add5392a31e173a9060800160405180910390a150600780547fffffffffffffffffffffff00ffffffffffffffffffffffffffffffffffffffff167401000000000000000000000000000000000000000017905592959194509250565b600780547fffffffffffffffffffffffff00000000000000000000000000000000000000001633179055600554600090819065010000000000900460030b811215612f3157612e276301e13380620f4240613f52565b600554612e3b9064ffffffffff1642613f69565b600554612e7a9065010000000000810460030b906901000000000000000000900476ffffffffffffffffffffffffffffffffffffffffffffff16613f52565b612e849190613f52565b612e8e9190613f7c565b600554612ec191906901000000000000000000900476ffffffffffffffffffffffffffffffffffffffffffffff16613fb7565b6005805468ffffffff000000000016690100000000000000000076ffffffffffffffffffffffffffffffffffffffffffffff93909316929092027fffffffffffffffffffffffffffffffffffffffffffffffffffffff000000000016919091174264ffffffffff1617905561306c565b60055460006501000000000090910460030b121561306c57612f5a6301e13380620f4240613f52565b600554612f6e9064ffffffffff1642613f69565b600554612f869065010000000000900460030b613fee565b600554612fb991906901000000000000000000900476ffffffffffffffffffffffffffffffffffffffffffffff16613f52565b612fc39190613f52565b612fcd9190613f7c565b60055461300091906901000000000000000000900476ffffffffffffffffffffffffffffffffffffffffffffff16614026565b6005805468ffffffff000000000016690100000000000000000076ffffffffffffffffffffffffffffffffffffffffffffff93909316929092027fffffffffffffffffffffffffffffffffffffffffffffffffffffff000000000016919091174264ffffffffff161790555b60075474010000000000000000000000000000000000000000900460ff166001146130c7576040517f3407ab4b00000000000000000000000000000000000000000000000000000000815261d2f66004820152602401610290565b600780547fffffffffffffffffffffff00ffffffffffffffffffffffffffffffffffffffff167402000000000000000000000000000000000000000017905560007f00000000000000000000000000000000000000000000000000000000000000001561318b577f000000000000000000000000000000000000000000000000000000000000000073ffffffffffffffffffffffffffffffffffffffff1673eeeeeeeeeeeeeeeeeeeeeeeeeeeeeeeeeeeeeeee14613185578561318e565b8661318e565b60005b90503481146131cd576040517f3407ab4b00000000000000000000000000000000000000000000000000000000815261d2f36004820152602401610290565b73ffffffffffffffffffffffffffffffffffffffff8416156131ef57836131f1565b335b6040517fe980e1eb0000000000000000000000000000000000000000000000000000000081526004810189905260248101889052604481018790526000606482015290945073ffffffffffffffffffffffffffffffffffffffff7f0000000000000000000000000000000000000000000000000000000000000000169063e980e1eb90839060840160206040518083038185885af1158015613297573d6000803e3d6000fd5b50505050506040513d601f19601f820116820180604052508101906132bc9190614102565b6005549092506001906901000000000000000000900476ffffffffffffffffffffffffffffffffffffffffffffff166132fd84670de0b6b3a7640000613f52565b6133079190613f7c565b6133119190613f69565b925061331d84846133b9565b50600780547fffffffffffffffffffffff000000000000000000000000000000000000000000167401000000000000000000000000000000000000dead179055909590945092505050565b60008060008060008587614e20f19050806133b4576040517fdee51a8a0000000000000000000000000000000000000000000000000000000081526201155a6004820152602401610290565b505050565b73ffffffffffffffffffffffffffffffffffffffff8216613436576040517f08c379a000000000000000000000000000000000000000000000000000000000815260206004820152601f60248201527f45524332303a206d696e7420746f20746865207a65726f2061646472657373006044820152606401610290565b80600260008282546134489190614056565b909155505073ffffffffffffffffffffffffffffffffffffffff8216600081815260208181526040808320805486019055518481527fddf252ad1be2c89b69c2b068fc378daa952ba7f163c4a11628f55a4df523b3ef910160405180910390a35050565b73ffffffffffffffffffffffffffffffffffffffff831661354e576040517f08c379a0000000000000000000000000000000000000000000000000000000008152602060048201526024808201527f45524332303a20617070726f76652066726f6d20746865207a65726f2061646460448201527f72657373000000000000000000000000000000000000000000000000000000006064820152608401610290565b73ffffffffffffffffffffffffffffffffffffffff82166135f1576040517f08c379a000000000000000000000000000000000000000000000000000000000815260206004820152602260248201527f45524332303a20617070726f766520746f20746865207a65726f20616464726560448201527f73730000000000000000000000000000000000000000000000000000000000006064820152608401610290565b73ffffffffffffffffffffffffffffffffffffffff83811660008181526001602090815260408083209487168084529482529182902085905590518481527f8c5be1e5ebec7d5bd14f71427d1e84f3dd0314c0f7b2291e5b200ac8c7c3b925910160405180910390a3505050565b73ffffffffffffffffffffffffffffffffffffffff8381166000908152600160209081526040808320938616835292905220547fffffffffffffffffffffffffffffffffffffffffffffffffffffffffffffffff81146137305781811015613723576040517f08c379a000000000000000000000000000000000000000000000000000000000815260206004820152601d60248201527f45524332303a20696e73756666696369656e7420616c6c6f77616e63650000006044820152606401610290565b61373084848484036134ac565b50505050565b73ffffffffffffffffffffffffffffffffffffffff83166137d9576040517f08c379a000000000000000000000000000000000000000000000000000000000815260206004820152602560248201527f45524332303a207472616e736665722066726f6d20746865207a65726f20616460448201527f64726573730000000000000000000000000000000000000000000000000000006064820152608401610290565b73ffffffffffffffffffffffffffffffffffffffff821661387c576040517f08c379a000000000000000000000000000000000000000000000000000000000815260206004820152602360248201527f45524332303a207472616e7366657220746f20746865207a65726f206164647260448201527f65737300000000000000000000000000000000000000000000000000000000006064820152608401610290565b73ffffffffffffffffffffffffffffffffffffffff831660009081526020819052604090205481811015613932576040517f08c379a000000000000000000000000000000000000000000000000000000000815260206004820152602660248201527f45524332303a207472616e7366657220616d6f756e742065786365656473206260448201527f616c616e636500000000000000000000000000000000000000000000000000006064820152608401610290565b73ffffffffffffffffffffffffffffffffffffffff848116600081815260208181526040808320878703905593871680835291849020805487019055925185815290927fddf252ad1be2c89b69c2b068fc378daa952ba7f163c4a11628f55a4df523b3ef910160405180910390a3613730565b73ffffffffffffffffffffffffffffffffffffffff8216613a48576040517f08c379a000000000000000000000000000000000000000000000000000000000815260206004820152602160248201527f45524332303a206275726e2066726f6d20746865207a65726f2061646472657360448201527f73000000000000000000000000000000000000000000000000000000000000006064820152608401610290565b73ffffffffffffffffffffffffffffffffffffffff821660009081526020819052604090205481811015613afe576040517f08c379a000000000000000000000000000000000000000000000000000000000815260206004820152602260248201527f45524332303a206275726e20616d6f756e7420657863656564732062616c616e60448201527f63650000000000000000000000000000000000000000000000000000000000006064820152608401610290565b73ffffffffffffffffffffffffffffffffffffffff83166000818152602081815260408083208686039055600280548790039055518581529192917fddf252ad1be2c89b69c2b068fc378daa952ba7f163c4a11628f55a4df523b3ef910160405180910390a3505050565b60006040517f23b872dd00000000000000000000000000000000000000000000000000000000815273ffffffffffffffffffffffffffffffffffffffff8516600482015273ffffffffffffffffffffffffffffffffffffffff841660248201528260448201526020600060648360008a5af13d15601f3d1160016000511416171691505080613c29576040517fdee51a8a000000000000000000000000000000000000000000000000000000008152620115596004820152602401610290565b5050505050565b73ffffffffffffffffffffffffffffffffffffffff81168114613c5257600080fd5b50565b60008060008060808587031215613c6b57600080fd5b8435935060208501359250604085013591506060850135613c8b81613c30565b939692955090935050565b6000815180845260005b81811015613cbc57602081850181015186830182015201613ca0565b5060006020828601015260207fffffffffffffffffffffffffffffffffffffffffffffffffffffffffffffffe0601f83011685010191505092915050565b602081526000613d0d6020830184613c96565b9392505050565b60008060408385031215613d2757600080fd5b8235613d3281613c30565b946020939093013593505050565b600080600060608486031215613d5557600080fd5b8335613d6081613c30565b92506020840135613d7081613c30565b929592945050506040919091013590565b600060208284031215613d9357600080fd5b5035919050565b600060208284031215613dac57600080fd5b8135613d0d81613c30565b7f4e487b7100000000000000000000000000000000000000000000000000000000600052604160045260246000fd5b60008060408385031215613df957600080fd5b8235613e0481613c30565b9150602083013567ffffffffffffffff80821115613e2157600080fd5b818501915085601f830112613e3557600080fd5b813581811115613e4757613e47613db7565b604051601f82017fffffffffffffffffffffffffffffffffffffffffffffffffffffffffffffffe0908116603f01168101908382118183101715613e8d57613e8d613db7565b81604052828152886020848701011115613ea657600080fd5b8260208601602083013760006020848301015280955050505050509250929050565b60008060408385031215613edb57600080fd5b8235613ee681613c30565b91506020830135613ef681613c30565b809150509250929050565b60008060408385031215613f1457600080fd5b50508035926020909101359150565b7f4e487b7100000000000000000000000000000000000000000000000000000000600052601160045260246000fd5b808202811582820484141761100b5761100b613f23565b8181038181111561100b5761100b613f23565b600082613fb2577f4e487b7100000000000000000000000000000000000000000000000000000000600052601260045260246000fd5b500490565b76ffffffffffffffffffffffffffffffffffffffffffffff818116838216019080821115613fe757613fe7613f23565b5092915050565b60007f8000000000000000000000000000000000000000000000000000000000000000820361401f5761401f613f23565b5060000390565b76ffffffffffffffffffffffffffffffffffffffffffffff828116828216039080821115613fe757613fe7613f23565b8082018082111561100b5761100b613f23565b6000806040838503121561407c57600080fd5b505080516020909101519092909150565b600181811c908216806140a157607f821691505b6020821081036140da577f4e487b7100000000000000000000000000000000000000000000000000000000600052602260045260246000fd5b50919050565b6000602082840312156140f257600080fd5b81518015158114613d0d57600080fd5b60006020828403121561411457600080fd5b5051919050565b8181036000831280158383131683831282161715613fe757613fe7613f23565b60006020828403121561414d57600080fd5b8151613d0d81613c3056fea26469706673582212201665e9a088e5ced74ccf168ec2cebc577a96d73f9ff5fba696f51d29ee616b6164736f6c63430008150033"
}