{
  "address": "0x0BaD69C6DD12f3bd53cDCAd18D3526cDD5ed3141",
  "abi": [
    {
      "inputs": [
        {
          "components": [
            {
              "components": [
                {
                  "internalType": "contract IUniswapV3Pool",
                  "name": "pool",
                  "type": "address"
                },
                {
                  "internalType": "bool",
                  "name": "invertRate",
                  "type": "bool"
                },
                {
                  "internalType": "uint256[3]",
                  "name": "tWAPMaxDeltaPercents",
                  "type": "uint256[3]"
                },
                {
                  "internalType": "uint32[5]",
                  "name": "secondsAgos",
                  "type": "uint32[5]"
                }
              ],
              "internalType": "struct UniV3OracleImpl.UniV3ConstructorParams",
              "name": "uniV3Params",
              "type": "tuple"
            },
            {
              "components": [
                {
                  "internalType": "uint8",
                  "name": "hops",
                  "type": "uint8"
                },
                {
                  "components": [
                    {
                      "internalType": "contract IChainlinkAggregatorV3",
                      "name": "feed",
                      "type": "address"
                    },
                    {
                      "internalType": "bool",
                      "name": "invertRate",
                      "type": "bool"
                    },
                    {
                      "internalType": "uint256",
                      "name": "token0Decimals",
                      "type": "uint256"
                    }
                  ],
                  "internalType": "struct ChainlinkStructs.ChainlinkFeedData",
                  "name": "feed1",
                  "type": "tuple"
                },
                {
                  "components": [
                    {
                      "internalType": "contract IChainlinkAggregatorV3",
                      "name": "feed",
                      "type": "address"
                    },
                    {
                      "internalType": "bool",
                      "name": "invertRate",
                      "type": "bool"
                    },
                    {
                      "internalType": "uint256",
                      "name": "token0Decimals",
                      "type": "uint256"
                    }
                  ],
                  "internalType": "struct ChainlinkStructs.ChainlinkFeedData",
                  "name": "feed2",
                  "type": "tuple"
                },
                {
                  "components": [
                    {
                      "internalType": "contract IChainlinkAggregatorV3",
                      "name": "feed",
                      "type": "address"
                    },
                    {
                      "internalType": "bool",
                      "name": "invertRate",
                      "type": "bool"
                    },
                    {
                      "internalType": "uint256",
                      "name": "token0Decimals",
                      "type": "uint256"
                    }
                  ],
                  "internalType": "struct ChainlinkStructs.ChainlinkFeedData",
                  "name": "feed3",
                  "type": "tuple"
                }
              ],
              "internalType": "struct ChainlinkStructs.ChainlinkConstructorParams",
              "name": "chainlinkParams",
              "type": "tuple"
            },
            {
              "components": [
                {
                  "internalType": "contract IRedstoneOracle",
                  "name": "oracle",
                  "type": "address"
                },
                {
                  "internalType": "bool",
                  "name": "invertRate",
                  "type": "bool"
                },
                {
                  "internalType": "uint256",
                  "name": "token0Decimals",
                  "type": "uint256"
                }
              ],
              "internalType": "struct RedstoneStructs.RedstoneOracleData",
              "name": "redstoneOracle",
              "type": "tuple"
            },
            {
              "internalType": "uint8",
              "name": "rateSource",
              "type": "uint8"
            },
            {
              "internalType": "uint8",
              "name": "fallbackMainSource",
              "type": "uint8"
            },
            {
              "internalType": "uint256",
              "name": "rateCheckMaxDeltaPercent",
              "type": "uint256"
            }
          ],
          "internalType": "struct UniV3CheckCLRSOracle.UniV3CheckCLRSConstructorParams",
          "name": "params_",
          "type": "tuple"
        }
      ],
      "stateMutability": "nonpayable",
      "type": "constructor"
    },
    {
      "inputs": [
        {
          "internalType": "uint256",
          "name": "errorId_",
          "type": "uint256"
        }
      ],
      "name": "FluidOracleError",
      "type": "error"
    },
    {
      "inputs": [],
      "name": "chainlinkOracleData",
      "outputs": [
        {
          "internalType": "uint256",
          "name": "chainlinkExchangeRate_",
          "type": "uint256"
        },
        {
          "internalType": "contract IChainlinkAggregatorV3",
          "name": "chainlinkFeed1_",
          "type": "address"
        },
        {
          "internalType": "bool",
          "name": "chainlinkInvertRate1_",
          "type": "bool"
        },
        {
          "internalType": "uint256",
          "name": "chainlinkExchangeRate1_",
          "type": "uint256"
        },
        {
          "internalType": "contract IChainlinkAggregatorV3",
          "name": "chainlinkFeed2_",
          "type": "address"
        },
        {
          "internalType": "bool",
          "name": "chainlinkInvertRate2_",
          "type": "bool"
        },
        {
          "internalType": "uint256",
          "name": "chainlinkExchangeRate2_",
          "type": "uint256"
        },
        {
          "internalType": "contract IChainlinkAggregatorV3",
          "name": "chainlinkFeed3_",
          "type": "address"
        },
        {
          "internalType": "bool",
          "name": "chainlinkInvertRate3_",
          "type": "bool"
        },
        {
          "internalType": "uint256",
          "name": "chainlinkExchangeRate3_",
          "type": "uint256"
        }
      ],
      "stateMutability": "view",
      "type": "function"
    },
    {
      "inputs": [],
      "name": "getExchangeRate",
      "outputs": [
        {
          "internalType": "uint256",
          "name": "exchangeRate_",
          "type": "uint256"
        }
      ],
      "stateMutability": "view",
      "type": "function"
    },
    {
      "inputs": [],
      "name": "redstoneOracleData",
      "outputs": [
        {
          "internalType": "uint256",
          "name": "redstoneExchangeRate_",
          "type": "uint256"
        },
        {
          "internalType": "contract IRedstoneOracle",
          "name": "redstoneOracle_",
          "type": "address"
        },
        {
          "internalType": "bool",
          "name": "redstoneInvertRate_",
          "type": "bool"
        }
      ],
      "stateMutability": "view",
      "type": "function"
    },
    {
      "inputs": [],
      "name": "uniV3CheckOracleData",
      "outputs": [
        {
          "internalType": "uint256",
          "name": "rateCheckMaxDelta_",
          "type": "uint256"
        },
        {
          "internalType": "uint256",
          "name": "rateSource_",
          "type": "uint256"
        },
        {
          "internalType": "uint256",
          "name": "fallbackMainSource_",
          "type": "uint256"
        }
      ],
      "stateMutability": "view",
      "type": "function"
    },
    {
      "inputs": [],
      "name": "uniV3OracleData",
      "outputs": [
        {
          "internalType": "contract IUniswapV3Pool",
          "name": "uniV3Pool_",
          "type": "address"
        },
        {
          "internalType": "bool",
          "name": "uniV3InvertRate_",
          "type": "bool"
        },
        {
          "internalType": "uint32[]",
          "name": "uniV3secondsAgos_",
          "type": "uint32[]"
        },
        {
          "internalType": "uint256[]",
          "name": "uniV3TwapDeltas_",
          "type": "uint256[]"
        },
        {
          "internalType": "uint256",
          "name": "uniV3exchangeRateUnsafe_",
          "type": "uint256"
        },
        {
          "internalType": "uint256",
          "name": "uniV3exchangeRate_",
          "type": "uint256"
        }
      ],
      "stateMutability": "view",
      "type": "function"
    }
  ],
  "transactionHash": "0x7d97b77b4938ff429f4ac0558f860f0d32db84a1f0b3f9a72bb668eb02340707",
  "args": [
    {
      "chainlinkParams": {
        "hops": 1,
        "feed1": {
          "feed": "0x986b5e1e1755e3c2440e960477f25201b0a8bbd4",
          "invertRate": true,
          "token0Decimals": 6
        },
        "feed2": {
          "feed": "0x0000000000000000000000000000000000000000",
          "invertRate": false,
          "token0Decimals": 0
        },
        "feed3": {
          "feed": "0x0000000000000000000000000000000000000000",
          "invertRate": false,
          "token0Decimals": 0
        }
      },
      "uniV3Params": {
        "pool": "0x88e6a0c2ddd26feeb64f039a2c41296fcb3f5640",
        "secondsAgos": [
          240,
          60,
          15,
          1,
          0
        ],
        "tWAPMaxDeltaPercents": [
          200,
          50,
          20
        ],
        "invertRate": true
      },
      "redstoneOracle": {
        "oracle": "0x0000000000000000000000000000000000000000",
        "invertRate": false,
        "token0Decimals": 0
      },
      "rateSource": 2,
      "fallbackMainSource": 1,
      "rateCheckMaxDeltaPercent": 300
    }
  ],
  "numDeployments": 1,
  "solcInputHash": "b73720cc8ffa8a631f5020ecec7e4515",
  "bytecode": "0x61050060405261dead610300523480156200001957600080fd5b506040516200350f3803806200350f8339810160408190526200003c916200094a565b608081015160208201516040830151805182906001600160a01b03161562000065578162000091565b6040518060600160405280610300516001600160a01b0316815260200160001515815260200160018152505b855180516001600160a01b0316620000c55760405163c82fc46560e01b815261f23160048201526024015b60405180910390fd5b60608101516020810151905163ffffffff91821691161115806200010557506060810151604081015163ffffffff16906001602002015163ffffffff1611155b806200012d57506060818101519081015163ffffffff16906002602002015163ffffffff1611155b806200015557506060810151608081015163ffffffff16906003602002015163ffffffff1611155b15620001795760405163c82fc46560e01b815261f2326004820152602401620000bc565b6040810151516127101115806200019a575060408101518051602090910151115b80620001b157506040818101516020810151910151115b15620001d55760405163c82fc46560e01b815261f2336004820152602401620000bc565b606081810180515163ffffffff908116610120528151602090810151821661014052825160400151821661016052825190930151811661018052815160800151166101a052519081015190516200022d919062000a8c565b63ffffffff166101c0526060810151604081015160209091015162000253919062000a8c565b63ffffffff166101e0526060818101519081015160409091015162000279919062000a8c565b63ffffffff166102005260608181015160808101519101516200029d919062000a8c565b63ffffffff1661022052604081810180515160c052805160209081015160e0529051909101516101005281516001600160a01b0316608052810151151560a052620002eb601b600a62000bb2565b61024052620002fd601b600262000bc7565b6200030a90600a62000bb2565b610260525080516001600160a01b031615806200032957506040810151155b156200034d5760405163c82fc46560e01b815261fa016004820152602401620000bc565b80516001600160a01b0390811661028052602082015115156102a05261030051825182169116146200039e5760408101516200038b90601b62000be1565b6200039890600a62000bb2565b620003a1565b60015b6102c0526103005181516001600160a01b03908116911614620003e3576040810151620003d090601b62000bf7565b620003dd90600a62000bb2565b620003e6565b60015b6102e052508051600160ff90911610806200040857506003816000015160ff16115b806200043157506020810151516001600160a01b03161580620004315750602081015160400151155b806200046c57506001816000015160ff161180156200046c57506040810151516001600160a01b031615806200046c57506040808201510151155b80620004a857506002816000015160ff16118015620004a857506060810151516001600160a01b03161580620004a85750606081015160400151155b15620004cc5760405163c82fc46560e01b815261ee496004820152602401620000bc565b60208082018051516001600160a01b03908116610320526040808501805151831661034052606086018051519093166103605283518501511515610380525184015115156103a05290519092015115156103c0525101516200053090601b62000be1565b6200053d90600a62000bb2565b6103e0526020810151604001516200055790601b62000bf7565b6200056490600a62000bb2565b610400528051600160ff909116116200057f576001620005a1565b60408082015101516200059490601b62000be1565b620005a190600a62000bb2565b610420528051600160ff90911611620005bc576001620005de565b6040808201510151620005d190601b62000bf7565b620005de90600a62000bb2565b610440528051600260ff90911611620005f95760016200061c565b6060810151604001516200060f90601b62000be1565b6200061c90600a62000bb2565b610460528051600260ff90911611620006375760016200065a565b6060810151604001516200064d90601b62000bf7565b6200065a90600a62000bb2565b6104805250600160ff8416108062000675575060038360ff16115b15620006995760405163c82fc46560e01b815261fde96004820152602401620000bc565b505060ff9081166104a0526060820151600191161080620006c157506003816060015160ff16115b80620006d257506127108160a00151115b80620006f85750806080015160ff166001148015620006f85750806060015160ff166003145b156200071c5760405163c82fc46560e01b815261ea626004820152602401620000bc565b60a08101516104c0526060015160ff166104e05262000c0d565b634e487b7160e01b600052604160045260246000fd5b604051606081016001600160401b038111828210171562000771576200077162000736565b60405290565b604051608081016001600160401b038111828210171562000771576200077162000736565b60405160c081016001600160401b038111828210171562000771576200077162000736565b6001600160a01b0381168114620007d757600080fd5b50565b80518015158114620007eb57600080fd5b919050565b600082601f8301126200080257600080fd5b60405160a081016001600160401b038111828210171562000827576200082762000736565b6040528060a08401858111156200083d57600080fd5b845b818110156200086d57805163ffffffff811681146200085e5760008081fd5b8352602092830192016200083f565b509195945050505050565b805160ff81168114620007eb57600080fd5b6000606082840312156200089d57600080fd5b620008a76200074c565b90508151620008b681620007c1565b8152620008c660208301620007da565b60208201526040820151604082015292915050565b60006101408284031215620008ef57600080fd5b620008f962000777565b9050620009068262000878565b81526200091783602084016200088a565b60208201526200092b83608084016200088a565b60408201526200093f8360e084016200088a565b606082015292915050565b60008183036103408112156200095f57600080fd5b620009696200079c565b610140808312156200097a57600080fd5b6200098462000777565b925084516200099381620007c1565b83526020620009a4868201620007da565b8185015286605f870112620009b857600080fd5b620009c26200074c565b8060a0880189811115620009d557600080fd5b604089015b81811015620009f35780518452928401928401620009da565b5081604088015262000a068a82620007f0565b606088015250505083835262000a1f87838801620008db565b908301525062000a348561028086016200088a565b604082015262000a486102e0850162000878565b606082015262000a5c610300850162000878565b6080820152610320939093015160a0840152509092915050565b634e487b7160e01b600052601160045260246000fd5b63ffffffff82811682821603908082111562000aac5762000aac62000a76565b5092915050565b600181815b8085111562000af457816000190482111562000ad85762000ad862000a76565b8085161562000ae657918102915b93841c939080029062000ab8565b509250929050565b60008262000b0d5750600162000bac565b8162000b1c5750600062000bac565b816001811462000b35576002811462000b405762000b60565b600191505062000bac565b60ff84111562000b545762000b5462000a76565b50506001821b62000bac565b5060208310610133831016604e8410600b841016171562000b85575081810a62000bac565b62000b91838362000ab3565b806000190482111562000ba85762000ba862000a76565b0290505b92915050565b600062000bc0838362000afc565b9392505050565b808202811582820484141762000bac5762000bac62000a76565b8181038181111562000bac5762000bac62000a76565b8082018082111562000bac5762000bac62000a76565b60805160a05160c05160e05161010051610120516101405161016051610180516101a0516101c0516101e05161020051610220516102405161026051610280516102a0516102c0516102e05161030051610320516103405161036051610380516103a0516103c0516103e05161040051610420516104405161046051610480516104a0516104c0516104e0516125fd62000f126000396000818161010f0152818161088d0152818161090b01528181610a8601528181610b1701528181610b810152610c5301526000818160ea01528181610a2a01528181610bcf0152610c8d01526000818161013701528181610a5b01528181610aec01528181610b48015281816116d801528181611711015261174a01526000818161046d0152610f0801526000818161044c0152610ee701526000818161037b0152610e1101526000818161035a0152610df00152600081816102910152610d2e0152600081816102700152610d0d0152600081816103ca0152818161042b0152610ec60152600081816102d8015281816103390152610dcf01526000818161020a0152818161024f0152610cec0152600081816103a90152818161040a01528181610e550152610ea50152600081816102b70152818161031801528181610d5e0152610dae0152600081816101e90152818161022e0152610ccb015260006104c0015260006110e30152600061111201526000818161056701526110b90152600081816104f701528181610544015261100a0152600061186a0152600061181e01526000818161141c015261145f0152600061166c015260006115d7015260006115420152600081816106fc01526112e80152600081816106ae01526112c2015260008181610660015261129c01526000818161061201526112760152600081816105c401526112500152600081816107e4015261168d0152600081816107a401526115f80152600081816107640152611563015260008181610845015281816111d3015281816114d20152611d900152600081816108240152818161113c015261132b01526125fd6000f3fe608060405234801561001057600080fd5b50600436106100675760003560e01c806388c352091161005057806388c3520914610166578063a6ac9134146101a0578063e6aa216c146101ba57600080fd5b80637557ca411461006c5780637cebd7c5146100e4575b600080fd5b6100746101d0565b604080519a8b5273ffffffffffffffffffffffffffffffffffffffff998a1660208c0152971515978a01979097526060890195909552928616608088015290151560a087015260c086015290921660e0840152901515610100830152610120820152610140015b60405180910390f35b604080517f0000000000000000000000000000000000000000000000000000000000000000815260ff7f0000000000000000000000000000000000000000000000000000000000000000811660208301527f000000000000000000000000000000000000000000000000000000000000000016918101919091526060016100db565b61016e6104b9565b6040805193845273ffffffffffffffffffffffffffffffffffffffff90921660208401521515908201526060016100db565b6101a861058c565b6040516100db96959493929190611ff2565b6101c2610889565b6040519081526020016100db565b6000806000806000806000806000806101e7610cc4565b7f00000000000000000000000000000000000000000000000000000000000000007f00000000000000000000000000000000000000000000000000000000000000006102b57f00000000000000000000000000000000000000000000000000000000000000007f00000000000000000000000000000000000000000000000000000000000000007f00000000000000000000000000000000000000000000000000000000000000007f0000000000000000000000000000000000000000000000000000000000000000610f45565b7f00000000000000000000000000000000000000000000000000000000000000007f000000000000000000000000000000000000000000000000000000000000000073ffffffffffffffffffffffffffffffffffffffff8216156103a45761039f7f00000000000000000000000000000000000000000000000000000000000000007f00000000000000000000000000000000000000000000000000000000000000007f00000000000000000000000000000000000000000000000000000000000000007f0000000000000000000000000000000000000000000000000000000000000000610f45565b6103a7565b60005b7f00000000000000000000000000000000000000000000000000000000000000007f000000000000000000000000000000000000000000000000000000000000000073ffffffffffffffffffffffffffffffffffffffff821615610496576104917f00000000000000000000000000000000000000000000000000000000000000007f00000000000000000000000000000000000000000000000000000000000000007f00000000000000000000000000000000000000000000000000000000000000007f0000000000000000000000000000000000000000000000000000000000000000610f45565b610499565b60005b995099509950995099509950995099509950995090919293949596979899565b60008060007f000000000000000000000000000000000000000000000000000000000000000073ffffffffffffffffffffffffffffffffffffffff167f000000000000000000000000000000000000000000000000000000000000000073ffffffffffffffffffffffffffffffffffffffff161461053e57610539611006565b610541565b60005b937f000000000000000000000000000000000000000000000000000000000000000093507f000000000000000000000000000000000000000000000000000000000000000092509050565b600080606080828060056040519080825280602002602001820160405280156105bf578160200160208202803683370190505b5093507f0000000000000000000000000000000000000000000000000000000000000000846000815181106105f6576105f66120b2565b602002602001019063ffffffff16908163ffffffff16815250507f000000000000000000000000000000000000000000000000000000000000000084600181518110610644576106446120b2565b602002602001019063ffffffff16908163ffffffff16815250507f000000000000000000000000000000000000000000000000000000000000000084600281518110610692576106926120b2565b602002602001019063ffffffff16908163ffffffff16815250507f0000000000000000000000000000000000000000000000000000000000000000846003815181106106e0576106e06120b2565b602002602001019063ffffffff16908163ffffffff16815250507f00000000000000000000000000000000000000000000000000000000000000008460048151811061072e5761072e6120b2565b63ffffffff92909216602092830291909101820152604080516003808252608082019092529182016060803683370190505092507f000000000000000000000000000000000000000000000000000000000000000083600081518110610796576107966120b2565b6020026020010181815250507f0000000000000000000000000000000000000000000000000000000000000000836001815181106107d6576107d66120b2565b6020026020010181815250507f000000000000000000000000000000000000000000000000000000000000000083600281518110610816576108166120b2565b6020026020010181815250507f00000000000000000000000000000000000000000000000000000000000000007f0000000000000000000000000000000000000000000000000000000000000000858561086e611137565b610876611215565b949b939a50919850965094509092509050565b60007f000000000000000000000000000000000000000000000000000000000000000060ff16600103610906576108be611215565b905080600003610903576040517fc82fc46500000000000000000000000000000000000000000000000000000000815261ea6360048201526024015b60405180910390fd5b90565b6000807f000000000000000000000000000000000000000000000000000000000000000060ff166002036109b35761093c611215565b9250826000036109935761094e6116c1565b92508260000361098e576040517fc82fc46500000000000000000000000000000000000000000000000000000000815261ea6360048201526024016108fa565b505090565b61099b61170c565b909250905060008290036109ae57505090565b610a23565b6109bb61170c565b90935090506109c8611215565b915082600003610a165781600003610a10576040517fc82fc46500000000000000000000000000000000000000000000000000000000815261ea6360048201526024016108fa565b50919050565b81600003610a2357505090565b610a4e83837f00000000000000000000000000000000000000000000000000000000000000006117b1565b1561098e578015610aea577f000000000000000000000000000000000000000000000000000000000000000060ff16600303610ab4577f000000000000000000000000000000000000000000000000000000000000000060ff16600214610a1057505090565b6040517fc82fc46500000000000000000000000000000000000000000000000000000000815261ea6160048201526024016108fa565b7f000000000000000000000000000000000000000000000000000000000000000060ff16600103610b46577f000000000000000000000000000000000000000000000000000000000000000060ff1660020361098e5750919050565b7f000000000000000000000000000000000000000000000000000000000000000060ff16600203610c07576000610b7b611006565b905060007f000000000000000000000000000000000000000000000000000000000000000060ff16600203610bb35750918290610bb8565b509283905b81600003610bc857949350505050565b610bf385857f00000000000000000000000000000000000000000000000000000000000000006117b1565b15610c0057949350505050565b5050505090565b6000610c11610cc4565b905080600003610c51576040517fc82fc46500000000000000000000000000000000000000000000000000000000815261ea6160048201526024016108fa565b7f000000000000000000000000000000000000000000000000000000000000000060ff16600303610c83579392505050565b809250610cb184847f00000000000000000000000000000000000000000000000000000000000000006117b1565b15610cbe57509092915050565b50505090565b6000610d527f00000000000000000000000000000000000000000000000000000000000000007f00000000000000000000000000000000000000000000000000000000000000007f00000000000000000000000000000000000000000000000000000000000000007f0000000000000000000000000000000000000000000000000000000000000000610f45565b9050801580610d9557507f000000000000000000000000000000000000000000000000000000000000000073ffffffffffffffffffffffffffffffffffffffff16155b15610d9d5790565b610da9601b600a612230565b610e357f00000000000000000000000000000000000000000000000000000000000000007f00000000000000000000000000000000000000000000000000000000000000007f00000000000000000000000000000000000000000000000000000000000000007f0000000000000000000000000000000000000000000000000000000000000000610f45565b610e3f908361223c565b610e499190612282565b9050801580610e8c57507f000000000000000000000000000000000000000000000000000000000000000073ffffffffffffffffffffffffffffffffffffffff16155b15610e945790565b610ea0601b600a612230565b610f2c7f00000000000000000000000000000000000000000000000000000000000000007f00000000000000000000000000000000000000000000000000000000000000007f00000000000000000000000000000000000000000000000000000000000000007f0000000000000000000000000000000000000000000000000000000000000000610f45565b610f36908361223c565b610f409190612282565b905090565b60008473ffffffffffffffffffffffffffffffffffffffff1663feaf968c6040518163ffffffff1660e01b815260040160a060405180830381865afa925050508015610fcc575060408051601f3d9081017fffffffffffffffffffffffffffffffffffffffffffffffffffffffffffffffe0168201909252610fc9918101906122b5565b60015b610fd857506000610ffe565b8815610ff457610fe88488612282565b95505050505050610ffe565b610fe8888561223c565b949350505050565b60007f000000000000000000000000000000000000000000000000000000000000000073ffffffffffffffffffffffffffffffffffffffff1663e6aa216c6040518163ffffffff1660e01b8152600401602060405180830381865afa9250505080156110ad575060408051601f3d9081017fffffffffffffffffffffffffffffffffffffffffffffffffffffffffffffffe01682019092526110aa91810190612305565b60015b6110b75750600090565b7f00000000000000000000000000000000000000000000000000000000000000001561110d57611107817f0000000000000000000000000000000000000000000000000000000000000000612282565b91505090565b6111077f00000000000000000000000000000000000000000000000000000000000000008261223c565b6000807f000000000000000000000000000000000000000000000000000000000000000073ffffffffffffffffffffffffffffffffffffffff16633850c7bd6040518163ffffffff1660e01b815260040160e060405180830381865afa1580156111a5573d6000803e3d6000fd5b505050506040513d601f19601f820116820180604052508101906111c99190612340565b50505050505090507f0000000000000000000000000000000000000000000000000000000000000000611204576111ff816117f7565b611107565b611107611210826117f7565b611862565b6040517f883bdbfd000000000000000000000000000000000000000000000000000000006020808301919091526024820152600560448201527f000000000000000000000000000000000000000000000000000000000000000060648201527f000000000000000000000000000000000000000000000000000000000000000060848201527f000000000000000000000000000000000000000000000000000000000000000060a48201527f000000000000000000000000000000000000000000000000000000000000000060c48201527f000000000000000000000000000000000000000000000000000000000000000060e482015260009081906101040160405160208183030381529060405290506000807f000000000000000000000000000000000000000000000000000000000000000073ffffffffffffffffffffffffffffffffffffffff168360405161136e91906123f3565b600060405180830381855afa9150503d80600081146113a9576040519150601f19603f3d011682016040523d82523d6000602084013e6113ae565b606091505b5091509150816113c2576000935050505090565b6000818060200190518101906113d89190612434565b90506000816003815181106113ef576113ef6120b2565b60200260200101518260036001018151811061140d5761140d6120b2565b602002602001015103905060007f00000000000000000000000000000000000000000000000000000000000000008260060b8161144c5761144c612253565b05905060008260060b12801561149357507f00000000000000000000000000000000000000000000000000000000000000008260060b8161148f5761148f612253565b0715155b156114bb577fffffffffffffffffffffffffffffffffffffffffffffffffffffffffffffffff015b6114cc6114c78261188e565b6117f7565b965050507f000000000000000000000000000000000000000000000000000000000000000015611502576114ff85611862565b94505b6115878582600081518110611519576115196120b2565b602002602001015183600181518110611534576115346120b2565b60200260200101510360060b7f00000000000000000000000000000000000000000000000000000000000000007f0000000000000000000000000000000000000000000000000000000000000000611d23565b1561159757600094505050505090565b61161c85826001815181106115ae576115ae6120b2565b6020026020010151836002815181106115c9576115c96120b2565b60200260200101510360060b7f00000000000000000000000000000000000000000000000000000000000000007f0000000000000000000000000000000000000000000000000000000000000000611d23565b1561162c57600094505050505090565b6116b18582600281518110611643576116436120b2565b60200260200101518360038151811061165e5761165e6120b2565b60200260200101510360060b7f00000000000000000000000000000000000000000000000000000000000000007f0000000000000000000000000000000000000000000000000000000000000000611d23565b15610c0057600094505050505090565b60006116cb610cc4565b9050801580156116ff57507f000000000000000000000000000000000000000000000000000000000000000060ff16600114155b1561090357610f40611006565b6000807f000000000000000000000000000000000000000000000000000000000000000060ff1660010361174857611742610cc4565b91509091565b7f000000000000000000000000000000000000000000000000000000000000000060ff166002036117945761177b610cc4565b91508160000361179057506001611742611006565b9091565b61179c611006565b91508160000361179057506001611742610cc4565b6000806127106117c1848661223c565b6117cb9190612282565b90506117d78185612517565b8511806117ec57506117e9818561252a565b85105b9150505b9392505050565b600061185c61181c73ffffffffffffffffffffffffffffffffffffffff84168061223c565b7f00000000000000000000000000000000000000000000000000000000000000007801000000000000000000000000000000000000000000000000611df7565b92915050565b600061185c827f0000000000000000000000000000000000000000000000000000000000000000612282565b60008060008360020b126118a5578260020b6118b2565b8260020b6118b29061253d565b90506118dd7ffffffffffffffffffffffffffffffffffffffffffffffffffffffffffff27618612575565b60020b811115611949576040517f08c379a000000000000000000000000000000000000000000000000000000000815260206004820152600160248201527f540000000000000000000000000000000000000000000000000000000000000060448201526064016108fa565b60008160011660000361196d5770010000000000000000000000000000000061197f565b6ffffcb933bd6fad37aa2d162d1a5940015b70ffffffffffffffffffffffffffffffffff16905060028216156119be5760806119b9826ffff97272373d413259a46990580e213a61223c565b901c90505b60048216156119e85760806119e3826ffff2e50f5f656932ef12357cf3c7fdcc61223c565b901c90505b6008821615611a12576080611a0d826fffe5caca7e10e4e61c3624eaa0941cd061223c565b901c90505b6010821615611a3c576080611a37826fffcb9843d60f6159c9db58835c92664461223c565b901c90505b6020821615611a66576080611a61826fff973b41fa98c081472e6896dfb254c061223c565b901c90505b6040821615611a90576080611a8b826fff2ea16466c96a3843ec78b326b5286161223c565b901c90505b6080821615611aba576080611ab5826ffe5dee046a99a2a811c461f1969c305361223c565b901c90505b610100821615611ae5576080611ae0826ffcbe86c7900a88aedcffc83b479aa3a461223c565b901c90505b610200821615611b10576080611b0b826ff987a7253ac413176f2b074cf7815e5461223c565b901c90505b610400821615611b3b576080611b36826ff3392b0822b70005940c7a398e4b70f361223c565b901c90505b610800821615611b66576080611b61826fe7159475a2c29b7443b29c7fa6e889d961223c565b901c90505b611000821615611b91576080611b8c826fd097f3bdfd2022b8845ad8f792aa582561223c565b901c90505b612000821615611bbc576080611bb7826fa9f746462d870fdf8a65dc1f90e061e561223c565b901c90505b614000821615611be7576080611be2826f70d869a156d2a1b890bb3df62baf32f761223c565b901c90505b618000821615611c12576080611c0d826f31be135f97d08fd981231505542fcfa661223c565b901c90505b62010000821615611c3e576080611c39826f09aa508b5b7a84e1c677de54f3e99bc961223c565b901c90505b62020000821615611c69576080611c64826e5d6af8dedb81196699c329225ee60461223c565b901c90505b62040000821615611c93576080611c8e826d2216e584f5fa1ea926041bedfe9861223c565b901c90505b62080000821615611cbb576080611cb6826b048a170391f7dc42444e8fa261223c565b901c90505b60008460020b1315611cf457611cf1817fffffffffffffffffffffffffffffffffffffffffffffffffffffffffffffffff612282565b90505b611d03640100000000826125b3565b15611d0f576001611d12565b60005b610ffe9060ff16602083901c612517565b600080838581611d3557611d35612253565b059050600085128015611d565750838581611d5257611d52612253565b0715155b15611d7e577fffffffffffffffffffffffffffffffffffffffffffffffffffffffffffffffff015b6000611d8c6114c78361188e565b90507f000000000000000000000000000000000000000000000000000000000000000015611dc057611dbd81611862565b90505b612710818502049350838101871180611dda575083810387105b15611dea57600192505050610ffe565b5060009695505050505050565b600080807fffffffffffffffffffffffffffffffffffffffffffffffffffffffffffffffff85870985870292508281108382030391505080600003611e4e5760008411611e4357600080fd5b5082900490506117f0565b808411611e5a57600080fd5b600084868809808403938111909203919050600085611e99817fffffffffffffffffffffffffffffffffffffffffffffffffffffffffffffffff61252a565b611ea4906001612517565b16958690049593849004936000819003046001019050611ec4818461223c565b909317926000611ed587600361223c565b6002189050611ee4818861223c565b611eef90600261252a565b611ef9908261223c565b9050611f05818861223c565b611f1090600261252a565b611f1a908261223c565b9050611f26818861223c565b611f3190600261252a565b611f3b908261223c565b9050611f47818861223c565b611f5290600261252a565b611f5c908261223c565b9050611f68818861223c565b611f7390600261252a565b611f7d908261223c565b9050611f89818861223c565b611f9490600261252a565b611f9e908261223c565b9050611faa818661223c565b9998505050505050505050565b600081518084526020808501945080840160005b83811015611fe757815187529582019590820190600101611fcb565b509495945050505050565b600060c0820173ffffffffffffffffffffffffffffffffffffffff8916835260208815158185015260c0604085015281885180845260e086019150828a01935060005b8181101561205757845163ffffffff1683529383019391830191600101612035565b5050848103606086015261206b8189611fb7565b60808601979097525050505060a00152949350505050565b7f4e487b7100000000000000000000000000000000000000000000000000000000600052604160045260246000fd5b7f4e487b7100000000000000000000000000000000000000000000000000000000600052603260045260246000fd5b7f4e487b7100000000000000000000000000000000000000000000000000000000600052601160045260246000fd5b600181815b8085111561216957817fffffffffffffffffffffffffffffffffffffffffffffffffffffffffffffffff0482111561214f5761214f6120e1565b8085161561215c57918102915b93841c9390800290612115565b509250929050565b6000826121805750600161185c565b8161218d5750600061185c565b81600181146121a357600281146121ad576121c9565b600191505061185c565b60ff8411156121be576121be6120e1565b50506001821b61185c565b5060208310610133831016604e8410600b84101617156121ec575081810a61185c565b6121f68383612110565b807fffffffffffffffffffffffffffffffffffffffffffffffffffffffffffffffff04821115612228576122286120e1565b029392505050565b60006117f08383612171565b808202811582820484141761185c5761185c6120e1565b7f4e487b7100000000000000000000000000000000000000000000000000000000600052601260045260246000fd5b60008261229157612291612253565b500490565b805169ffffffffffffffffffff811681146122b057600080fd5b919050565b600080600080600060a086880312156122cd57600080fd5b6122d686612296565b94506020860151935060408601519250606086015191506122f960808701612296565b90509295509295909350565b60006020828403121561231757600080fd5b5051919050565b805161ffff811681146122b057600080fd5b805180151581146122b057600080fd5b600080600080600080600060e0888a03121561235b57600080fd5b875173ffffffffffffffffffffffffffffffffffffffff8116811461237f57600080fd5b8097505060208801518060020b811461239757600080fd5b95506123a56040890161231e565b94506123b36060890161231e565b93506123c16080890161231e565b925060a088015160ff811681146123d757600080fd5b91506123e560c08901612330565b905092959891949750929550565b6000825160005b8181101561241457602081860181015185830152016123fa565b506000920191825250919050565b8051600681900b81146122b057600080fd5b6000602080838503121561244757600080fd5b825167ffffffffffffffff8082111561245f57600080fd5b818501915085601f83011261247357600080fd5b81518181111561248557612485612083565b8060051b6040517fffffffffffffffffffffffffffffffffffffffffffffffffffffffffffffffe0603f830116810181811085821117156124c8576124c8612083565b6040529182528482019250838101850191888311156124e657600080fd5b938501935b8285101561250b576124fc85612422565b845293850193928501926124eb565b98975050505050505050565b8082018082111561185c5761185c6120e1565b8181038181111561185c5761185c6120e1565b60007f8000000000000000000000000000000000000000000000000000000000000000820361256e5761256e6120e1565b5060000390565b60008160020b7fffffffffffffffffffffffffffffffffffffffffffffffffffffffffff80000081036125aa576125aa6120e1565b60000392915050565b6000826125c2576125c2612253565b50069056fea2646970667358221220cef0f70920d225cdac6b1f853ef56db5f95b87ed1358454933d00e9c084eae8b64736f6c63430008150033",
  "devdoc": {
    "details": "The process for getting the aggregate oracle price is:           1. Fetch the UniV3 TWAPS, the latest interval is used as the current price           2. Verify this price is within an acceptable DELTA from the Uniswap TWAPS e.g.:              a. 240 to 60s              b. 60 to 15s              c. 15 to 1s (last block)              d. 1 to 0s (current)           3. (unless UniV3 only mode): Verify this price is within an acceptable DELTA from the Chainlink / Redstone Oracle           4. If it passes all checks, return the price. Otherwise use fallbacks, usually to Chainlink. In extreme edge-cases revert.For UniV3 with check mode, if fetching the check price fails, the UniV3 rate is used directly.",
    "kind": "dev",
    "methods": {},
    "stateVariables": {
      "_RATE_CHECK_MAX_DELTA_PERCENT": {
        "details": "Rate check oracle delta percent in 1e2 percent. If current uniswap price is out of this delta, current price fetching reverts."
      },
      "_RATE_SOURCE": {
        "details": "which oracle to use as final rate source:      - 1 = UniV3 ONLY (no check),      - 2 = UniV3 with Chainlink / Redstone check      - 3 = Chainlink / Redstone with UniV3 used as check."
      }
    },
    "title": "UniswapV3 checked against Chainlink / Redstone Oracle. Either one reported as exchange rate.",
    "version": 1
  },
  "userdoc": {
    "kind": "user",
    "methods": {
      "chainlinkOracleData()": {
        "notice": "returns all Chainlink oracle related data as utility for easy off-chain use / block explorer in a single view method"
      },
      "getExchangeRate()": {
        "notice": "Get the `exchangeRate_` between the underlying asset and the peg asset in 1e27"
      },
      "redstoneOracleData()": {
        "notice": "returns all Redstone oracle related data as utility for easy off-chain use / block explorer in a single view method"
      },
      "uniV3CheckOracleData()": {
        "notice": "returns all oracle related data as utility for easy off-chain / block explorer use in a single view method"
      },
      "uniV3OracleData()": {
        "notice": "returns all UniV3 oracle related data as utility for easy off-chain use / block explorer in a single view method"
      }
    },
    "notice": "Gets the exchange rate between the underlying asset and the peg asset by using:          the price from a UniV3 pool (compared against 3 TWAPs) and (optionally) comparing it against a Chainlink          or Redstone price (one of Chainlink or Redstone being the main source and the other one the fallback source).          Alternatively it can also use Chainlink / Redstone as main price and use UniV3 as check price.",
    "version": 1
  },
  "storageLayout": {
    "storage": [],
    "types": null
  }
}