{
  "address": "0x0C1b4DB4aC386f535C4A79aAC12157dFBaf58B5e",
  "abi": [
    {
      "inputs": [
        {
          "internalType": "string",
          "name": "infoName_",
          "type": "string"
        },
        {
          "internalType": "address",
          "name": "dexPool_",
          "type": "address"
        },
        {
          "internalType": "bool",
          "name": "quoteInToken0_",
          "type": "bool"
        },
        {
          "internalType": "uint256",
          "name": "twapDuration_",
          "type": "uint256"
        },
        {
          "internalType": "contract IFluidOracle",
          "name": "colDebtOracle_",
          "type": "address"
        },
        {
          "internalType": "bool",
          "name": "colDebtInvert_",
          "type": "bool"
        },
        {
          "internalType": "uint8",
          "name": "colDebtDecimals_",
          "type": "uint8"
        },
        {
          "components": [
            {
              "internalType": "address",
              "name": "reservesConversionOracle",
              "type": "address"
            },
            {
              "internalType": "bool",
              "name": "reservesConversionInvert",
              "type": "bool"
            },
            {
              "internalType": "uint256",
              "name": "multiplier",
              "type": "uint256"
            },
            {
              "internalType": "uint256",
              "name": "divisor",
              "type": "uint256"
            }
          ],
          "internalType": "struct DexSmartDebtOracleImpl.ExternalPrice",
          "name": "externalPrice_",
          "type": "tuple"
        }
      ],
      "stateMutability": "nonpayable",
      "type": "constructor"
    },
    {
      "inputs": [
        {
          "internalType": "uint256",
          "name": "errorId_",
          "type": "uint256"
        }
      ],
      "name": "FluidLiquidityCalcsError",
      "type": "error"
    },
    {
      "inputs": [
        {
          "internalType": "uint256",
          "name": "errorId_",
          "type": "uint256"
        }
      ],
      "name": "FluidOracleError",
      "type": "error"
    },
    {
      "inputs": [],
      "name": "dexSmartDebtOracleData",
      "outputs": [
        {
          "internalType": "address",
          "name": "dexPool_",
          "type": "address"
        },
        {
          "internalType": "contract IFluidOracle",
          "name": "reservesConversionOracle_",
          "type": "address"
        },
        {
          "internalType": "bool",
          "name": "reservesConversionInvert_",
          "type": "bool"
        },
        {
          "internalType": "bool",
          "name": "quoteInToken0_",
          "type": "bool"
        },
        {
          "internalType": "uint256",
          "name": "dexTwapDuration_",
          "type": "uint256"
        },
        {
          "internalType": "uint8",
          "name": "dexSharesDecimals_",
          "type": "uint8"
        },
        {
          "internalType": "uint8",
          "name": "dexTokensDecimalsPrecision_",
          "type": "uint8"
        },
        {
          "internalType": "contract IFluidLiquidity",
          "name": "liquidity_",
          "type": "address"
        },
        {
          "internalType": "uint256",
          "name": "token0NumeratorPrecision_",
          "type": "uint256"
        },
        {
          "internalType": "uint256",
          "name": "token0DenominatorPrecision_",
          "type": "uint256"
        },
        {
          "internalType": "uint256",
          "name": "token1NumeratorPrecision_",
          "type": "uint256"
        },
        {
          "internalType": "uint256",
          "name": "token1DenominatorPrecision_",
          "type": "uint256"
        }
      ],
      "stateMutability": "view",
      "type": "function"
    },
    {
      "inputs": [],
      "name": "getDexSmartColOracleData",
      "outputs": [
        {
          "internalType": "address",
          "name": "colDebtOracle_",
          "type": "address"
        },
        {
          "internalType": "bool",
          "name": "colDebtInvert_",
          "type": "bool"
        },
        {
          "internalType": "uint8",
          "name": "colDebtDecimals_",
          "type": "uint8"
        }
      ],
      "stateMutability": "view",
      "type": "function"
    },
    {
      "inputs": [],
      "name": "getExchangeRate",
      "outputs": [
        {
          "internalType": "uint256",
          "name": "exchangeRate_",
          "type": "uint256"
        }
      ],
      "stateMutability": "view",
      "type": "function"
    },
    {
      "inputs": [],
      "name": "getExchangeRateLiquidate",
      "outputs": [
        {
          "internalType": "uint256",
          "name": "exchangeRate_",
          "type": "uint256"
        }
      ],
      "stateMutability": "view",
      "type": "function"
    },
    {
      "inputs": [],
      "name": "getExchangeRateOperate",
      "outputs": [
        {
          "internalType": "uint256",
          "name": "exchangeRate_",
          "type": "uint256"
        }
      ],
      "stateMutability": "view",
      "type": "function"
    },
    {
      "inputs": [],
      "name": "infoName",
      "outputs": [
        {
          "internalType": "string",
          "name": "",
          "type": "string"
        }
      ],
      "stateMutability": "view",
      "type": "function"
    }
  ],
  "transactionHash": "0xd1f9928d2558751c96129c5fe498d87d383f960de190b2b84e14b96423208e57",
  "args": [
    [
      "USDC/ETH dbtSh. per 1 colSh.",
      "0x2886a01a0645390872a9eb99dAe1283664b0c524",
      true,
      300,
      "0x14288700Dc560a3F26a81FF10AB19C8b75846c2D",
      false,
      18,
      {
        "reservesConversionOracle": "0x5b2860C6D6F888319C752aaCDaf8165C21095E3a",
        "reservesConversionInvert": true,
        "multiplier": 1000000000000,
        "divisor": 1
      }
    ]
  ],
  "numDeployments": 1,
  "linkedData": {
    "nonce": "40"
  },
  "bytecode": "0x6103406040523480156200001257600080fd5b5060405162002ed638038062002ed68339810160408190526200003591620003ee565b868686838b84806001600160a01b03166080816001600160a01b03168152505060006080516001600160a01b031663b7791bf26040518163ffffffff1660e01b815260040161024060405180830381865afa15801562000099573d6000803e3d6000fd5b505050506040513d601f19601f82011682018060405250810190620000bf9190620005ca565b61016081015161012090815261018082015161014090815260e08084015160a0529183015160c0526101008084015190925282015190526080805160408051631595cbd360e01b815290519394506000936001600160a01b0390921692631595cbd3926004808401938290030181865afa15801562000142573d6000803e3d6000fd5b505050506040513d601f19601f82011682018060405250810190620001689190620006c0565b8051610160526020808201516101805260408201516101a0526060909101516101c05284511192508291506200019f905057508051155b15620001c75760405163c82fc46560e01b815261ea6a60048201526024015b60405180910390fd5b602001516102a0526001600160a01b0384161580620001ee575080516001600160a01b0316155b80620001f8575081155b156200021c5760405163c82fc46560e01b815261ebb56004820152602401620001be565b9115156102205281516001600160a01b039081166101e0526020830151151561020052610240919091526040820151610260526060909101516102805285166102c052508215156102e05260ff82166103008190526200027f6012601b6200071f565b6200028b91906200073b565b6200029890600a6200084e565b6103205250620008639650505050505050565b634e487b7160e01b600052604160045260246000fd5b604051608081016001600160401b0381118282101715620002e657620002e6620002ab565b60405290565b6040516101c081016001600160401b0381118282101715620002e657620002e6620002ab565b604051601f8201601f191681016001600160401b03811182821017156200033d576200033d620002ab565b604052919050565b6001600160a01b03811681146200035b57600080fd5b50565b80516200036b8162000345565b919050565b805180151581146200036b57600080fd5b805160ff811681146200036b57600080fd5b600060808284031215620003a657600080fd5b620003b0620002c1565b90508151620003bf8162000345565b8152620003cf6020830162000370565b6020820152604082015160408201526060820151606082015292915050565b600080600080600080600080610160898b0312156200040c57600080fd5b88516001600160401b03808211156200042457600080fd5b818b0191508b601f8301126200043957600080fd5b8151818111156200044e576200044e620002ab565b6020915062000466601f8201601f1916830162000312565b8181528d838386010111156200047b57600080fd5b60005b828110156200049b5784810184015182820185015283016200047e565b506000838383010152809b505050620004b6818c016200035e565b98505050620004c860408a0162000370565b955060608901519450620004df60808a016200035e565b9350620004ef60a08a0162000370565b9250620004ff60c08a0162000381565b9150620005108a60e08b0162000393565b90509295985092959890939650565b600060a082840312156200053257600080fd5b60405160a081016001600160401b0381118282101715620005575762000557620002ab565b806040525080915082516200056c8162000345565b815260208301516200057e8162000345565b60208201526040830151620005938162000345565b60408201526060830151620005a88162000345565b60608201526080830151620005bd8162000345565b6080919091015292915050565b60006102408284031215620005de57600080fd5b620005e8620002ec565b82518152620005fa602084016200035e565b60208201526200060d604084016200035e565b60408201526200062184606085016200051f565b6060820152610100620006368185016200035e565b60808301526101206200064b8186016200035e565b60a0840152610140620006608187016200035e565b60c08501526101608087015160e086015261018080880151858701526101a0945084880151848701526101c0880151838701526101e088015182870152610200880151818701525050505061022084015181830152508091505092915050565b600060808284031215620006d357600080fd5b620006dd620002c1565b825181526020830151602082015260408301516040820152606083015160608201528091505092915050565b634e487b7160e01b600052601160045260246000fd5b8082018082111562000735576200073562000709565b92915050565b8181038181111562000735576200073562000709565b600181815b808511156200079257816000190482111562000776576200077662000709565b808516156200078457918102915b93841c939080029062000756565b509250929050565b600082620007ab5750600162000735565b81620007ba5750600062000735565b8160018114620007d35760028114620007de57620007fe565b600191505062000735565b60ff841115620007f257620007f262000709565b50506001821b62000735565b5060208310610133831016604e8410600b841016171562000823575081810a62000735565b6200082f838362000751565b806000190482111562000846576200084662000709565b029392505050565b60006200085c83836200079a565b9392505050565b60805160a05160c05160e05161010051610120516101405161016051610180516101a0516101c0516101e05161020051610220516102405161026051610280516102a0516102c0516102e05161030051610320516124bb62000a1b60003960005050600060bb015260008181609a01526106810152600081816079015281816105090152818161055c01526105f0015260008181610366015261042b0152600081816106d3015281816107dc01528181610a9f0152610b270152600081816106f4015281816107fd01528181610a7b0152610b03015260006101f80152600081816101d00152610a320152600081816101a601526108ae01526000818161017f01528181610715015261081e0152600081816102bb015281816109ff0152611d2a015260008181610294015281816109de0152611d4b01526000818161026d015281816109ab0152611d810152600081816102460152818161098a0152611da2015260006113310152600061127101526000611405015260006113d5015260005050600050506000818161015a01528181610bd301528181610d9401528181610e4901528181611747015261185d01526124bb6000f3fe608060405234801561001057600080fd5b50600436106100725760003560e01c8063b8a4c0a611610050578063b8a4c0a61461013f578063e6aa216c146102e9578063f3190c89146102f157600080fd5b80631bb2f2a6146100775780638e7bfbc014610114578063abd5f95d1461012a575b600080fd5b7f00000000000000000000000000000000000000000000000000000000000000007f00000000000000000000000000000000000000000000000000000000000000007f00000000000000000000000000000000000000000000000000000000000000006040805173ffffffffffffffffffffffffffffffffffffffff9094168452911515602084015260ff16908201526060015b60405180910390f35b61011c6102f9565b60405190815260200161010b565b610132610354565b60405161010b919061208d565b6040805173ffffffffffffffffffffffffffffffffffffffff7f0000000000000000000000000000000000000000000000000000000000000000811682527f00000000000000000000000000000000000000000000000000000000000000001660208201527f00000000000000000000000000000000000000000000000000000000000000001515918101919091527f0000000000000000000000000000000000000000000000000000000000000000151560608201527f00000000000000000000000000000000000000000000000000000000000000006080820152601260a0820152600c60c08201527352aa899454998be5b000ad077a46bbe360f4e49760e08201527f00000000000000000000000000000000000000000000000000000000000000006101008201527f00000000000000000000000000000000000000000000000000000000000000006101208201527f00000000000000000000000000000000000000000000000000000000000000006101408201527f00000000000000000000000000000000000000000000000000000000000000006101608201526101800161010b565b61011c6104b9565b61011c6104c3565b60006b033b2e3c9fd0803ce80000006103126001610505565b61031a6106ce565b61033b90760a70c3c40a64e6c51999090b65f67d9240000000000000612157565b610345919061216b565b61034f9190612157565b905090565b606060005b6020811080156103bf57507f0000000000000000000000000000000000000000000000000000000000000000816020811061039657610396612188565b1a60f81b7fff000000000000000000000000000000000000000000000000000000000000001615155b156103d657806103ce816121b7565b915050610359565b60008167ffffffffffffffff8111156103f1576103f16121ef565b6040519080825280601f01601f19166020018201604052801561041b576020820181803683370190505b50905060005b828110156104b2577f0000000000000000000000000000000000000000000000000000000000000000816020811061045b5761045b612188565b1a60f81b82828151811061047157610471612188565b60200101907effffffffffffffffffffffffffffffffffffffffffffffffffffffffffffff1916908160001a905350806104aa816121b7565b915050610421565b5092915050565b600061034f6102f9565b60006b033b2e3c9fd0803ce80000006104dc6000610505565b6104fd90760a70c3c40a64e6c51999090b65f67d9240000000000000612157565b61033b6107d7565b60007f000000000000000000000000000000000000000000000000000000000000000073ffffffffffffffffffffffffffffffffffffffff1661055557506b033b2e3c9fd0803ce8000000919050565b816105ee577f000000000000000000000000000000000000000000000000000000000000000073ffffffffffffffffffffffffffffffffffffffff1663f3190c896040518163ffffffff1660e01b8152600401602060405180830381865afa1580156105c5573d6000803e3d6000fd5b505050506040513d601f19601f820116820180604052508101906105e9919061221e565b61067d565b7f000000000000000000000000000000000000000000000000000000000000000073ffffffffffffffffffffffffffffffffffffffff16638e7bfbc06040518163ffffffff1660e01b8152600401602060405180830381865afa158015610659573d6000803e3d6000fd5b505050506040513d601f19601f8201168201806040525081019061067d919061221e565b90507f0000000000000000000000000000000000000000000000000000000000000000156106c9576106c681760a70c3c40a64e6c51999090b65f67d9240000000000000612157565b90505b919050565b6000807f00000000000000000000000000000000000000000000000000000000000000007f00000000000000000000000000000000000000000000000000000000000000007f000000000000000000000000000000000000000000000000000000000000000073ffffffffffffffffffffffffffffffffffffffff16638e7bfbc06040518163ffffffff1660e01b8152600401602060405180830381865afa15801561077e573d6000803e3d6000fd5b505050506040513d601f19601f820116820180604052508101906107a2919061221e565b6107ac919061216b565b6107b69190612157565b905060006107c5600083610887565b90506107d081610b8e565b9250505090565b6000807f00000000000000000000000000000000000000000000000000000000000000007f00000000000000000000000000000000000000000000000000000000000000007f000000000000000000000000000000000000000000000000000000000000000073ffffffffffffffffffffffffffffffffffffffff1663f3190c896040518163ffffffff1660e01b8152600401602060405180830381865afa15801561077e573d6000803e3d6000fd5b60006108956012601b612237565b6108a090600a61236a565b6108aa908461216b565b92507f0000000000000000000000000000000000000000000000000000000000000000156108f6576108f382760a70c3c40a64e6c51999090b65f67d9240000000000000612157565b91505b60007fffffffffffffffffffffffffffffffffffffffffffffffffffffffffffffffff841415801561092757508284115b6109315782610933565b835b905080600003610978576040517fc82fc46500000000000000000000000000000000000000000000000000000000815261ebb760048201526024015b60405180910390fd5b60008061098483610cbc565b915091507f00000000000000000000000000000000000000000000000000000000000000007f00000000000000000000000000000000000000000000000000000000000000008302816109d9576109d96120f9565b0491507f00000000000000000000000000000000000000000000000000000000000000007f0000000000000000000000000000000000000000000000000000000000000000820281610a2d57610a2d6120f9565b0490507f000000000000000000000000000000000000000000000000000000000000000015610b0157610a7783760a70c3c40a64e6c51999090b65f67d9240000000000000612157565b92507f0000000000000000000000000000000000000000000000000000000000000000610ac47f00000000000000000000000000000000000000000000000000000000000000008561216b565b610ace9190612157565b9250610adc601b600a61236a565b610ae6848361216b565b610af09190612157565b610afa9083612376565b9350610b85565b7f0000000000000000000000000000000000000000000000000000000000000000610b4c7f00000000000000000000000000000000000000000000000000000000000000008561216b565b610b569190612157565b9250610b64601b600a61236a565b610b6e848461216b565b610b789190612157565b610b829082612376565b93505b50505092915050565b6040517fb5c736e400000000000000000000000000000000000000000000000000000000815260048082015260009081906fffffffffffffffffffffffffffffffff907f000000000000000000000000000000000000000000000000000000000000000073ffffffffffffffffffffffffffffffffffffffff169063b5c736e490602401602060405180830381865afa158015610c2f573d6000803e3d6000fd5b505050506040513d601f19601f82011682018060405250810190610c53919061221e565b16905080600003610c94576040517fc82fc46500000000000000000000000000000000000000000000000000000000815261ebb6600482015260240161096f565b80610cab846b033b2e3c9fd0803ce800000061216b565b610cb59190612157565b9392505050565b6000806000610cc9610d13565b90506000610cef8260800151836040015184606001518560c00151866101000151611395565b90506000610cfe8383886114dd565b80516020909101519097909650945050505050565b610d626040518061012001604052806000815260200160008152602001600081526020016000815260200160008152602001600081526020016000815260200160008152602001600081525090565b6040517fb5c736e4000000000000000000000000000000000000000000000000000000008152600060048201819052907f000000000000000000000000000000000000000000000000000000000000000073ffffffffffffffffffffffffffffffffffffffff169063b5c736e490602401602060405180830381865afa158015610df0573d6000803e3d6000fd5b505050506040513d601f19601f82011682018060405250810190610e14919061221e565b6040517fb5c736e4000000000000000000000000000000000000000000000000000000008152600160048201529091506000907f000000000000000000000000000000000000000000000000000000000000000073ffffffffffffffffffffffffffffffffffffffff169063b5c736e490602401602060405180830381865afa158015610ea5573d6000803e3d6000fd5b505050506040513d601f19601f82011682018060405250810190610ec9919061221e565b9050600060f882901c600116600003610f0b57633fffffff607083901c16905080600003610f0b575063ffffffff605983901c1660ff605184901c161b610fb9565b6040517f08c379a000000000000000000000000000000000000000000000000000000000815260206004820152604d60248201527f507269636573416e6445786368616e67655072696365733a2063656e7465722060448201527f70726963652073686f756c64206e6f742062652070656767656420746f20657860648201527f7465726e616c20736f7572636500000000000000000000000000000000000000608482015260a40161096f565b63ffffffff603184901c1660ff602985901c161b601b83901c620fffff90811690602f85901c166001601a86901c8116900361100257610ffa8282876116e8565b965090925090505b81620f424003620f424085028161101b5761101b6120f9565b049150620f42409081038402046000620fffff604487901c161561112157604486901c6103ff90811690604e88901c16605888901c62ffffff16600160438a901c811690036110775761106f838383611842565b919450925090505b6103e8888703848203020488018711156110cc5760798a901c6401ffffffff164203818110156110be5781818a890302816110b4576110b46120f9565b04890198506110c2565b8698505b600194505061111d565b6103e88589038382030204880387101561111d5760798a901c6401ffffffff16420381811015611113578181878b030281611109576111096120f9565b0489039850611117565b8598505b60019450505b5050505b620fffff60b487901c1660ff60ac88901c161b80861115611148578095506001915061116c565b50620fffff60d087901c1660ff60c888901c161b8086101561116c57809550600191505b81156111d557620fffff601b88901c169350620fffff602f88901c169250601a87901c6001166001036111ac576111a48484896116e8565b985090945092505b83620f424003620f42408702816111c5576111c56120f9565b049350620f424083810387020492505b8489526020890186905260408901849052606089018390526f4b3b4ca85a86c47a098a22400000000084101561121a57611210838502611999565b60808a0152611249565b611239670de0b6b3a76400008404670de0b6b3a7640000860402611999565b670de0b6b3a76400000260808a01525b6040517fb5c736e40000000000000000000000000000000000000000000000000000000081527f000000000000000000000000000000000000000000000000000000000000000060048201526112ff907352aa899454998be5b000ad077a46bbe360f4e4979063b5c736e4906024015b602060405180830381865afa1580156112d6573d6000803e3d6000fd5b505050506040513d601f19601f820116820180604052508101906112fa919061221e565b611a4b565b60c08b015260a08a01526040517fb5c736e40000000000000000000000000000000000000000000000000000000081527f0000000000000000000000000000000000000000000000000000000000000000600482015261137d907352aa899454998be5b000ad077a46bbe360f4e4979063b5c736e4906024016112b9565b6101008b015260e08a01525096979650505050505050565b6113ce6040518060c001604052806000815260200160008152602001600081526020016000815260200160008152602001600081525090565b60006113fc7f0000000000000000000000000000000000000000000000000000000000000000856001611c59565b9050600061142c7f0000000000000000000000000000000000000000000000000000000000000000856000611c59565b8284526020840181905290506b033b2e3c9fd0803ce80000008810156114715761145888878484611ddb565b60a08701526080860152606085015260408401526114d2565b6114bd61149589760a70c3c40a64e6c51999090b65f67d9240000000000000612157565b6114b689760a70c3c40a64e6c51999090b65f67d9240000000000000612157565b8385611ddb565b608087015260a0860152604085015260608401525b505095945050505050565b6115166040518060c001604052806000815260200160008152602001600081526020016000815260200160008152602001600081525090565b60008360a00151846080015161152c919061216b565b90506000846040015185608001516115449190612237565b9050600085606001518660a0015161155c9190612237565b905060008086896040015110156115815783915061157a8286612157565b9050611637565b86896060015111156115a05750816115998186612157565b9150611637565b74446c3b15f9926687d2c40534fdb5640000000000008510156115ed576115e6876115d7876b033b2e3c9fd0803ce800000061216b565b6115e19190612157565b611999565b9150611613565b6116106115fa8887612157565b6115e1906b033b2e3c9fd0803ce800000061216b565b91505b6b033b2e3c9fd0803ce800000061162a838961216b565b6116349190612157565b90505b6116418483612237565b60408701526116508382612237565b60608701526080860182905260a080870182905288015160408701516000916116789161216b565b9050600087604001518a608001516116909190612237565b905061169c8183612157565b602089015260808a015160608901516116b5919061216b565b915087606001518a60a001516116cb9190612237565b90506116d78183612157565b885250959998505050505050505050565b6040517fb5c736e4000000000000000000000000000000000000000000000000000000008152600760048201526000908190819081906fffffffffffffffffffffffffffffffff9073ffffffffffffffffffffffffffffffffffffffff7f0000000000000000000000000000000000000000000000000000000000000000169063b5c736e490602401602060405180830381865afa15801561178e573d6000803e3d6000fd5b505050506040513d601f19601f820116820180604052508101906117b2919061221e565b169050620fffff80821690601483901c811690602884901c16603c84901c6401ffffffff16426117e28383612376565b101561180557630400000019891698508a8a8a9750975097505050505050611839565b60006118118242612237565b905061181f8c868386612014565b61182b8c868487612014565b8b9850985098505050505050505b93509350939050565b6000806000806fffffffffffffffffffffffffffffffff60807f000000000000000000000000000000000000000000000000000000000000000073ffffffffffffffffffffffffffffffffffffffff1663b5c736e4600760001b6040518263ffffffff1660e01b81526004016118ba91815260200190565b602060405180830381865afa1580156118d7573d6000803e3d6000fd5b505050506040513d601f19601f820116820180604052508101906118fb919061221e565b901c169050620fffff80821690601483901c811690602884901c16603c84901c6401ffffffff16605d85901c62ffffff16426119378484612376565b1015611951578b8b8b985098509850505050505050611839565b600061195d8342612237565b905061196b8d878387612014565b6119778d878488612014565b6119838d858589612014565b9950995099505050505050505093509350939050565b60b5817101000000000000000000000000000000000081106119c05760409190911b9060801c5b690100000000000000000081106119dc5760209190911b9060401c5b6501000000000081106119f45760109190911b9060201c5b63010000008110611a0a5760089190911b9060101c5b62010000010260121c80820401600190811c80830401811c80830401811c80830401811c80830401811c80830401811c80830401901c908190048111900390565b67ffffffffffffffff605b82901c811690609b83901c16811580611a6d575080155b15611aa9576040517fd50d751200000000000000000000000000000000000000000000000000000000815262011171600482015260240161096f565b61ffff8316603a84901c6401ffffffff16428181039160ea87901c617fff16911480611ad3575082155b80611ade5750806001145b15611aeb57505050915091565b64496cebb80084840283020484019350617fff60db87901c16925082600103611b1657505050915091565b82600116600103611b6b5760019290921c91826c7e37be2022c0914b268000000081611b4457611b446120f9565b049250612710601e87901c613fff166b033b2e3c9fd0803ce8000000850102049250611b98565b60019290921c916305f5e100601e87901c613fff166127108501026b033b2e3c9fd0803ce8000000020492505b80600116600103611bcf5760011c61271081016b033b2e3c9fd0803ce8000000820281611bc757611bc76120f9565b049050611c05565b60011c61271081016b033b2e3c9fd0803ce8000000820281611bf357611bf36120f9565b046b033b2e3c9fd0803ce80000000390505b760a70c3c40a64e6c51999090b65f67d92400000000000008382026127100261ffff881691900402601087901c613fff16612710030292506801b5a660ea44b8000085840283020485019450505050915091565b6040517fb5c736e40000000000000000000000000000000000000000000000000000000081526004810184905260009081907352aa899454998be5b000ad077a46bbe360f4e4979063b5c736e490602401602060405180830381865afa158015611cc7573d6000803e3d6000fd5b505050506040513d601f19601f82011682018060405250810190611ceb919061221e565b905067ffffffffffffffff600182901c16915060ff8216600883901c901b915080600116600103611d235764e8d4a510008285020491505b82611d7f577f00000000000000000000000000000000000000000000000000000000000000007f0000000000000000000000000000000000000000000000000000000000000000830281611d7957611d796120f9565b04611dd2565b7f00000000000000000000000000000000000000000000000000000000000000007f0000000000000000000000000000000000000000000000000000000000000000830281611dd057611dd06120f9565b045b95945050505050565b6000808080806b06765c793fa10079d0000000611e04876b033b2e3c9fd0803ce800000061216b565b611e0e8b8a61216b565b611e189190612389565b611e2291906123a9565b90506000611e30878961216b565b905074446c3b15f9926687d2c40534fdb5640000000000008110611e745788611e656b033b2e3c9fd0803ce800000083612157565b611e6f919061216b565b611e95565b6b033b2e3c9fd0803ce8000000611e8b8a8361216b565b611e959190612157565b9050611eae611ea48380612411565b6115e19083612376565b611eb8908361245d565b9450611ec4898961216b565b611eda866b033b2e3c9fd0803ce800000061216b565b611ee49190612237565b9250620f4240831015611f53576040517f08c379a000000000000000000000000000000000000000000000000000000000815260206004820152601560248201527f4465627420726573657276657320746f6f206c6f770000000000000000000000604482015260640161096f565b6a084595161401484a000000851015611f985782611f71868061216b565b611f87906b033b2e3c9fd0803ce800000061216b565b611f919190612157565b9250611fc5565b611fae6b033b2e3c9fd0803ce800000084612157565b611fb8868061216b565b611fc29190612157565b92505b8785611fd1828661216b565b611fdb9190612157565b611fe59190612237565b9350611ff18784612376565b611ffb888661216b565b6120059190612157565b95505050945094509450949050565b60008385111561205357600061202a8587612237565b905082612037858361216b565b6120419190612157565b61204b9086612376565b955050612084565b600061205f8686612237565b90508261206c858361216b565b6120769190612157565b6120809086612237565b9550505b50929392505050565b600060208083528351808285015260005b818110156120ba5785810183015185820160400152820161209e565b5060006040828601015260407fffffffffffffffffffffffffffffffffffffffffffffffffffffffffffffffe0601f8301168501019250505092915050565b7f4e487b7100000000000000000000000000000000000000000000000000000000600052601260045260246000fd5b7f4e487b7100000000000000000000000000000000000000000000000000000000600052601160045260246000fd5b600082612166576121666120f9565b500490565b808202811582820484141761218257612182612128565b92915050565b7f4e487b7100000000000000000000000000000000000000000000000000000000600052603260045260246000fd5b60007fffffffffffffffffffffffffffffffffffffffffffffffffffffffffffffffff82036121e8576121e8612128565b5060010190565b7f4e487b7100000000000000000000000000000000000000000000000000000000600052604160045260246000fd5b60006020828403121561223057600080fd5b5051919050565b8181038181111561218257612182612128565b600181815b808511156122a357817fffffffffffffffffffffffffffffffffffffffffffffffffffffffffffffffff0482111561228957612289612128565b8085161561229657918102915b93841c939080029061224f565b509250929050565b6000826122ba57506001612182565b816122c757506000612182565b81600181146122dd57600281146122e757612303565b6001915050612182565b60ff8411156122f8576122f8612128565b50506001821b612182565b5060208310610133831016604e8410600b8410161715612326575081810a612182565b612330838361224a565b807fffffffffffffffffffffffffffffffffffffffffffffffffffffffffffffffff0482111561236257612362612128565b029392505050565b6000610cb583836122ab565b8082018082111561218257612182612128565b81810360008312801583831316838312821617156104b2576104b2612128565b6000826123b8576123b86120f9565b7fffffffffffffffffffffffffffffffffffffffffffffffffffffffffffffffff83147f80000000000000000000000000000000000000000000000000000000000000008314161561240c5761240c612128565b500590565b808202600082127f80000000000000000000000000000000000000000000000000000000000000008414161561244957612449612128565b818105831482151761218257612182612128565b808201828112600083128015821682158216171561247d5761247d612128565b50509291505056fea26469706673582212202e56fd4a124b345c24aab71ac6f4dc72b7dc4188bcc8d7be44eb469e54edfd4f64736f6c63430008150033"
}