{
  "address": "0x11F329AFe847315001a7f46675FB553a3b334C90",
  "abi": [
    {
      "inputs": [
        {
          "internalType": "address",
          "name": "vaultT1Factory_",
          "type": "address"
        },
        {
          "internalType": "address",
          "name": "fluidWalletFactory_",
          "type": "address"
        }
      ],
      "stateMutability": "nonpayable",
      "type": "constructor"
    },
    {
      "inputs": [],
      "name": "FluidWallet__NotAllowed",
      "type": "error"
    },
    {
      "inputs": [],
      "name": "FluidWallet__ToHexDigit",
      "type": "error"
    },
    {
      "inputs": [],
      "name": "FluidWallet__Unauthorized",
      "type": "error"
    },
    {
      "anonymous": false,
      "inputs": [
        {
          "indexed": true,
          "internalType": "address",
          "name": "owner",
          "type": "address"
        },
        {
          "indexed": true,
          "internalType": "uint256",
          "name": "tokenId",
          "type": "uint256"
        }
      ],
      "name": "Executed",
      "type": "event"
    },
    {
      "anonymous": false,
      "inputs": [
        {
          "indexed": true,
          "internalType": "address",
          "name": "owner",
          "type": "address"
        }
      ],
      "name": "ExecutedCast",
      "type": "event"
    },
    {
      "inputs": [],
      "name": "ETH_ADDRESS",
      "outputs": [
        {
          "internalType": "address",
          "name": "",
          "type": "address"
        }
      ],
      "stateMutability": "view",
      "type": "function"
    },
    {
      "inputs": [],
      "name": "FLUID_WALLET_FACTORY",
      "outputs": [
        {
          "internalType": "address",
          "name": "",
          "type": "address"
        }
      ],
      "stateMutability": "view",
      "type": "function"
    },
    {
      "inputs": [],
      "name": "VAULT_T1_FACTORY",
      "outputs": [
        {
          "internalType": "address",
          "name": "",
          "type": "address"
        }
      ],
      "stateMutability": "view",
      "type": "function"
    },
    {
      "inputs": [],
      "name": "VERSION",
      "outputs": [
        {
          "internalType": "string",
          "name": "",
          "type": "string"
        }
      ],
      "stateMutability": "view",
      "type": "function"
    },
    {
      "inputs": [
        {
          "components": [
            {
              "internalType": "address",
              "name": "target",
              "type": "address"
            },
            {
              "internalType": "bytes",
              "name": "data",
              "type": "bytes"
            },
            {
              "internalType": "uint256",
              "name": "value",
              "type": "uint256"
            },
            {
              "internalType": "uint8",
              "name": "operation",
              "type": "uint8"
            }
          ],
          "internalType": "struct FluidWalletErrorsAndEvents.Action[]",
          "name": "actions_",
          "type": "tuple[]"
        }
      ],
      "name": "cast",
      "outputs": [],
      "stateMutability": "nonpayable",
      "type": "function"
    },
    {
      "inputs": [
        {
          "internalType": "address[]",
          "name": "",
          "type": "address[]"
        },
        {
          "internalType": "uint256[]",
          "name": "",
          "type": "uint256[]"
        },
        {
          "internalType": "uint256[]",
          "name": "",
          "type": "uint256[]"
        },
        {
          "internalType": "address",
          "name": "initiator_",
          "type": "address"
        },
        {
          "internalType": "bytes",
          "name": "data_",
          "type": "bytes"
        }
      ],
      "name": "executeOperation",
      "outputs": [
        {
          "internalType": "bool",
          "name": "",
          "type": "bool"
        }
      ],
      "stateMutability": "nonpayable",
      "type": "function"
    },
    {
      "inputs": [
        {
          "internalType": "address",
          "name": "operator_",
          "type": "address"
        },
        {
          "internalType": "address",
          "name": "from_",
          "type": "address"
        },
        {
          "internalType": "uint256",
          "name": "tokenId_",
          "type": "uint256"
        },
        {
          "internalType": "bytes",
          "name": "data_",
          "type": "bytes"
        }
      ],
      "name": "onERC721Received",
      "outputs": [
        {
          "internalType": "bytes4",
          "name": "",
          "type": "bytes4"
        }
      ],
      "stateMutability": "nonpayable",
      "type": "function"
    },
    {
      "inputs": [],
      "name": "owner",
      "outputs": [
        {
          "internalType": "address",
          "name": "",
          "type": "address"
        }
      ],
      "stateMutability": "view",
      "type": "function"
    }
  ],
  "transactionHash": "0x62024e52a50af98c7f3a2ed7ea9f1c8b8e413f2a4cbc6a4c1649e627b21d5ea2",
  "args": [
    "0x324c5Dc1fC42c7a4D43d92df1eBA58a54d13Bf2d",
    "0xd8Ae986159e350B6535539B8A1e488658452f25E"
  ],
  "numDeployments": 1,
  "solcInputHash": "e914361c7908dd1d4e56080838c86602",
  "bytecode": "0x60c06040523480156200001157600080fd5b50604051620027e9380380620027e9833981016040819052620000349162000069565b6001600160a01b039182166080521660a052620000a1565b80516001600160a01b03811681146200006457600080fd5b919050565b600080604083850312156200007d57600080fd5b62000088836200004c565b915062000098602084016200004c565b90509250929050565b60805160a0516126f2620000f76000396000818160f0015281816102dd015281816105b4015261067a01526000818161013c0152818161021f015281816103e101528181610a840152610b7b01526126f26000f3fe608060405234801561001057600080fd5b50600436106100885760003560e01c80638da5cb5b1161005b5780638da5cb5b1461015e578063920f5c841461017e578063a734f06e146101a1578063ffa1ad74146101bc57600080fd5b8063150b7a021461008d57806357b7bf20146100d65780636ff66e79146100eb5780638a1c736414610137575b600080fd5b6100a061009b366004611b56565b610205565b6040517fffffffff0000000000000000000000000000000000000000000000000000000090911681526020015b60405180910390f35b6100e96100e4366004611e74565b6104b7565b005b6101127f000000000000000000000000000000000000000000000000000000000000000081565b60405173ffffffffffffffffffffffffffffffffffffffff90911681526020016100cd565b6101127f000000000000000000000000000000000000000000000000000000000000000081565b6000546101129073ffffffffffffffffffffffffffffffffffffffff1681565b61019161018c366004611eee565b610501565b60405190151581526020016100cd565b61011273eeeeeeeeeeeeeeeeeeeeeeeeeeeeeeeeeeeeeeee81565b6101f86040518060400160405280600581526020017f312e302e3000000000000000000000000000000000000000000000000000000081525081565b6040516100cd9190612037565b60003373ffffffffffffffffffffffffffffffffffffffff7f00000000000000000000000000000000000000000000000000000000000000001614610276576040517f52df424e00000000000000000000000000000000000000000000000000000000815260040160405180910390fd5b8473ffffffffffffffffffffffffffffffffffffffff168673ffffffffffffffffffffffffffffffffffffffff16146102db576040517f52df424e00000000000000000000000000000000000000000000000000000000815260040160405180910390fd5b7f000000000000000000000000000000000000000000000000000000000000000073ffffffffffffffffffffffffffffffffffffffff168673ffffffffffffffffffffffffffffffffffffffff1614610360576040517f52df424e00000000000000000000000000000000000000000000000000000000815260040160405180910390fd5b60008061036f8486018661204a565b9150915061037c826105ad565b6103858161074a565b61038f6001600255565b6040517f23b872dd00000000000000000000000000000000000000000000000000000000815230600482015273ffffffffffffffffffffffffffffffffffffffff8381166024830152604482018890527f000000000000000000000000000000000000000000000000000000000000000016906323b872dd90606401600060405180830381600087803b15801561042557600080fd5b505af1158015610439573d6000803e3d6000fd5b505050506104478287610a80565b604051869073ffffffffffffffffffffffffffffffffffffffff8416907f6f6c6d78a4851d4c222c8404fc92372ee84b7b81054305ae8ea3c83c2dabd42e90600090a3507f150b7a0200000000000000000000000000000000000000000000000000000000979650505050505050565b6104c0336105ad565b6104c98161074a565b6104d36001600255565b60405133907fd2c4fe7e5a558f9b1b406ce6cd257540e044fe92fa299597ed9656533c6a8c8d90600090a250565b60008282426040516020016105189392919061209a565b60405160208183030381529060405280519060200120600154148015610553575073ffffffffffffffffffffffffffffffffffffffff841630145b610589576040517f38b760c500000000000000000000000000000000000000000000000000000000815260040160405180910390fd5b61059d61059883850185611e74565b61074a565b5060019998505050505050505050565b60006106f57f000000000000000000000000000000000000000000000000000000000000000073ffffffffffffffffffffffffffffffffffffffff1663ba8df43c6040518163ffffffff1660e01b8152600401602060405180830381865afa15801561061d573d6000803e3d6000fd5b505050506040513d601f19601f8201168201806040525081019061064191906120fc565b6040805173ffffffffffffffffffffffffffffffffffffffff8616602082015201604051602081830303815290604052805190602001207f000000000000000000000000000000000000000000000000000000000000000060405160388101919091526f5af43d82803e903d91602b57fd5bf3ff60248201526014810192909252733d602d80600a3d3981f3363d3d373d3d3d363d73825260588201526037600c8201206078820152605560439091012090565b905073ffffffffffffffffffffffffffffffffffffffff81163014610746576040517f52df424e00000000000000000000000000000000000000000000000000000000815260040160405180910390fd5b5050565b805160005b81811015610a7b57600083828151811061076b5761076b612119565b60200260200101519050600060606000836060015160ff1660000361082c5760405a8161079a5761079a612148565b049050836000015173ffffffffffffffffffffffffffffffffffffffff16846040015185602001516040516107cf9190612177565b60006040518083038185875af1925050503d806000811461080c576040519150601f19603f3d011682016040523d82523d6000602084013e610811565b606091505b5090935091508261082757610827818684610eb1565b610a6c565b836060015160ff166001036108db5760405a8161084b5761084b612148565b049050836000015173ffffffffffffffffffffffffffffffffffffffff16846020015160405161087b9190612177565b600060405180830381855af49150503d80600081146108b6576040519150601f19603f3d011682016040523d82523d6000602084013e6108bb565b606091505b5090935091506108cb6001600255565b8261082757610827818684610eb1565b836060015160ff166002036109ec57602084015160048101805190916109099181016024908101910161223e565b506040519094506109239350849250429150602001612356565b6040516020818303038152906040528051906020012060018190555060405a8161094f5761094f612148565b049150846000015173ffffffffffffffffffffffffffffffffffffffff16856040015186602001516040516109849190612177565b60006040518083038185875af1925050503d80600081146109c1576040519150601f19603f3d011682016040523d82523d6000602084013e6109c6565b606091505b509094509250836109dc576109dc828785610eb1565b6109e66001600255565b50610a6c565b6109f585610f3e565b604051602001610a059190612378565b604080517fffffffffffffffffffffffffffffffffffffffffffffffffffffffffffffffe0818403018152908290527f08c379a0000000000000000000000000000000000000000000000000000000008252610a6391600401612037565b60405180910390fd5b8460010194505050505061074f565b505050565b60007f000000000000000000000000000000000000000000000000000000000000000073ffffffffffffffffffffffffffffffffffffffff1663b5c736e4610ac9600385610ffc565b6040518263ffffffff1660e01b8152600401610ae791815260200190565b602060405180830381865afa158015610b04573d6000803e3d6000fd5b505050506040513d601f19601f82011682018060405250810190610b2891906123b9565b6040517fe6bd26a200000000000000000000000000000000000000000000000000000000815260c082901c63ffffffff16600482015290915060009073ffffffffffffffffffffffffffffffffffffffff7f0000000000000000000000000000000000000000000000000000000000000000169063e6bd26a290602401602060405180830381865afa158015610bc2573d6000803e3d6000fd5b505050506040513d601f19601f82011682018060405250810190610be691906120fc565b905060008173ffffffffffffffffffffffffffffffffffffffff1663b7791bf26040518163ffffffff1660e01b81526004016101a060405180830381865afa158015610c36573d6000803e3d6000fd5b505050506040513d601f19601f82011682018060405250810190610c5a91906123dd565b905073eeeeeeeeeeeeeeeeeeeeeeeeeeeeeeeeeeeeeeee73ffffffffffffffffffffffffffffffffffffffff16816080015173ffffffffffffffffffffffffffffffffffffffff1603610cbe57478015610cb857610cb8868261102b565b50610d83565b60808101516040517f70a0823100000000000000000000000000000000000000000000000000000000815230600482015260009173ffffffffffffffffffffffffffffffffffffffff16906370a0823190602401602060405180830381865afa158015610d2f573d6000803e3d6000fd5b505050506040513d601f19601f82011682018060405250810190610d5391906123b9565b90508015610d81576080820151610d819073ffffffffffffffffffffffffffffffffffffffff168783611185565b505b73eeeeeeeeeeeeeeeeeeeeeeeeeeeeeeeeeeeeeeee73ffffffffffffffffffffffffffffffffffffffff168160a0015173ffffffffffffffffffffffffffffffffffffffff1603610de557478015610ddf57610ddf868261102b565b50610eaa565b60a08101516040517f70a0823100000000000000000000000000000000000000000000000000000000815230600482015260009173ffffffffffffffffffffffffffffffffffffffff16906370a0823190602401602060405180830381865afa158015610e56573d6000803e3d6000fd5b505050506040513d601f19601f82011682018060405250810190610e7a91906123b9565b90508015610ea85760a0820151610ea89073ffffffffffffffffffffffffffffffffffffffff168783611185565b505b5050505050565b825a1015610f1b576040517f08c379a000000000000000000000000000000000000000000000000000000000815260206004820152601860248201527f464c5549445f57414c4c45545f5f4f55545f4f465f47415300000000000000006044820152606401610a63565b610f2482610f3e565b610f2d82611212565b604051602001610a059291906124ba565b60606000610f4b83611687565b600101905060008167ffffffffffffffff811115610f6b57610f6b611bc9565b6040519080825280601f01601f191660200182016040528015610f95576020820181803683370190505b5090508181016020015b7fffffffffffffffffffffffffffffffffffffffffffffffffffffffffffffffff017f3031323334353637383961626364656600000000000000000000000000000000600a86061a8153600a8504945084610f9f57509392505050565b604080516020808201849052818301859052825180830384018152606090920190925280519101205b92915050565b80471015611095576040517f08c379a000000000000000000000000000000000000000000000000000000000815260206004820152601d60248201527f416464726573733a20696e73756666696369656e742062616c616e63650000006044820152606401610a63565b60008273ffffffffffffffffffffffffffffffffffffffff168260405160006040518083038185875af1925050503d80600081146110ef576040519150601f19603f3d011682016040523d82523d6000602084013e6110f4565b606091505b5050905080610a7b576040517f08c379a000000000000000000000000000000000000000000000000000000000815260206004820152603a60248201527f416464726573733a20756e61626c6520746f2073656e642076616c75652c207260448201527f6563697069656e74206d617920686176652072657665727465640000000000006064820152608401610a63565b6040805173ffffffffffffffffffffffffffffffffffffffff8416602482015260448082018490528251808303909101815260649091019091526020810180517bffffffffffffffffffffffffffffffffffffffffffffffffffffffff167fa9059cbb00000000000000000000000000000000000000000000000000000000179052610a7b908490611769565b606060048251101561125757505060408051808201909152601381527f5f524541534f4e5f4e4f545f444546494e454400000000000000000000000000602082015290565b60208201517fb1b7848f000000000000000000000000000000000000000000000000000000007fffffffff000000000000000000000000000000000000000000000000000000008216016113e357604080516002808252818301909252600091602082018180368337019050509050611301601085600187516112da9190612518565b815181106112ea576112ea612119565b01602001516112fc919060f81c61252b565b611875565b8160008151811061131457611314612119565b60200101907effffffffffffffffffffffffffffffffffffffffffffffffffffffffffffff1916908160001a905350611379601085600187516113579190612518565b8151811061136757611367612119565b01602001516112fc919060f81c61254d565b8160018151811061138c5761138c612119565b60200101907effffffffffffffffffffffffffffffffffffffffffffffffffffffffffffff1916908160001a905350806040516020016113cc919061256f565b6040516020818303038152906040529250506115a7565b7ff73c8660000000000000000000000000000000000000000000000000000000007fffffffff0000000000000000000000000000000000000000000000000000000082160161146c576004830192508280602001905181019061144691906125b4565b60405160200161145691906125fd565b60405160208183030381529060405291506115a7565b60408051600880825281830190925260009160208201818036833701905050905060005b6004811015611582576114c460108483600481106114b0576114b0612119565b1a816114be576114be612148565b04611875565b8282600202815181106114d9576114d9612119565b60200101907effffffffffffffffffffffffffffffffffffffffffffffffffffffffffffff1916908160001a905350611533601084836004811061151f5761151f612119565b1a8161152d5761152d612148565b06611875565b82826002026001018151811061154b5761154b612119565b60200101907effffffffffffffffffffffffffffffffffffffffffffffffffffffffffffff1916908160001a905350600101611490565b50806040516020016115949190612642565b6040516020818303038152906040529250505b60fa82511115611681578160006115c060fa6001612687565b905060008167ffffffffffffffff8111156115dd576115dd611bc9565b6040519080825280601f01601f191660200182016040528015611607576020820181803683370190505b50905060005b8281101561167b5783818151811061162757611627612119565b602001015160f81c60f81b82828151811061164457611644612119565b60200101907effffffffffffffffffffffffffffffffffffffffffffffffffffffffffffff1916908160001a90535060010161160d565b50935050505b50919050565b6000807a184f03e93ff9f4daa797ed6e38ed64bf6a1f01000000000000000083106116d0577a184f03e93ff9f4daa797ed6e38ed64bf6a1f010000000000000000830492506040015b6d04ee2d6d415b85acef810000000083106116fc576d04ee2d6d415b85acef8100000000830492506020015b662386f26fc10000831061171a57662386f26fc10000830492506010015b6305f5e1008310611732576305f5e100830492506008015b612710831061174657612710830492506004015b60648310611758576064830492506002015b600a83106110255760010192915050565b60006117cb826040518060400160405280602081526020017f5361666545524332303a206c6f772d6c6576656c2063616c6c206661696c65648152508573ffffffffffffffffffffffffffffffffffffffff166118d59092919063ffffffff16565b805190915015610a7b57808060200190518101906117e9919061269a565b610a7b576040517f08c379a000000000000000000000000000000000000000000000000000000000815260206004820152602a60248201527f5361666545524332303a204552433230206f7065726174696f6e20646964206e60448201527f6f742073756363656564000000000000000000000000000000000000000000006064820152608401610a63565b6000600a8260ff16101561188d575060300160f81b90565b60108260ff1610156118a3575060570160f81b90565b6040517fb0b8d61a00000000000000000000000000000000000000000000000000000000815260040160405180910390fd5b60606118e484846000856118ee565b90505b9392505050565b606082471015611980576040517f08c379a000000000000000000000000000000000000000000000000000000000815260206004820152602660248201527f416464726573733a20696e73756666696369656e742062616c616e636520666f60448201527f722063616c6c00000000000000000000000000000000000000000000000000006064820152608401610a63565b6000808673ffffffffffffffffffffffffffffffffffffffff1685876040516119a99190612177565b60006040518083038185875af1925050503d80600081146119e6576040519150601f19603f3d011682016040523d82523d6000602084013e6119eb565b606091505b50915091506119fc87838387611a09565b925050505b949350505050565b60608315611a9f578251600003611a985773ffffffffffffffffffffffffffffffffffffffff85163b611a98576040517f08c379a000000000000000000000000000000000000000000000000000000000815260206004820152601d60248201527f416464726573733a2063616c6c20746f206e6f6e2d636f6e74726163740000006044820152606401610a63565b5081611a01565b611a018383815115611ab45781518083602001fd5b806040517f08c379a0000000000000000000000000000000000000000000000000000000008152600401610a639190612037565b73ffffffffffffffffffffffffffffffffffffffff81168114611b0a57600080fd5b50565b60008083601f840112611b1f57600080fd5b50813567ffffffffffffffff811115611b3757600080fd5b602083019150836020828501011115611b4f57600080fd5b9250929050565b600080600080600060808688031215611b6e57600080fd5b8535611b7981611ae8565b94506020860135611b8981611ae8565b935060408601359250606086013567ffffffffffffffff811115611bac57600080fd5b611bb888828901611b0d565b969995985093965092949392505050565b7f4e487b7100000000000000000000000000000000000000000000000000000000600052604160045260246000fd5b6040516080810167ffffffffffffffff81118282101715611c1b57611c1b611bc9565b60405290565b6040516101a0810167ffffffffffffffff81118282101715611c1b57611c1b611bc9565b604051601f82017fffffffffffffffffffffffffffffffffffffffffffffffffffffffffffffffe016810167ffffffffffffffff81118282101715611c8c57611c8c611bc9565b604052919050565b600067ffffffffffffffff821115611cae57611cae611bc9565b5060051b60200190565b600067ffffffffffffffff821115611cd257611cd2611bc9565b50601f017fffffffffffffffffffffffffffffffffffffffffffffffffffffffffffffffe01660200190565b60ff81168114611b0a57600080fd5b8035611d1881611cfe565b919050565b600082601f830112611d2e57600080fd5b81356020611d43611d3e83611c94565b611c45565b82815260059290921b84018101918181019086841115611d6257600080fd5b8286015b84811015611e6957803567ffffffffffffffff80821115611d875760008081fd5b81890191506080807fffffffffffffffffffffffffffffffffffffffffffffffffffffffffffffffe0848d03011215611dc05760008081fd5b611dc8611bf8565b87840135611dd581611ae8565b815260408481013584811115611deb5760008081fd5b85019350603f84018d13611dff5760008081fd5b88840135611e0f611d3e82611cb8565b8181528e83838801011115611e245760008081fd5b818387018c83013760008b8383010152808b850152505060609350838501358183015250611e53828501611d0d565b9281019290925250845250918301918301611d66565b509695505050505050565b600060208284031215611e8657600080fd5b813567ffffffffffffffff811115611e9d57600080fd5b611a0184828501611d1d565b60008083601f840112611ebb57600080fd5b50813567ffffffffffffffff811115611ed357600080fd5b6020830191508360208260051b8501011115611b4f57600080fd5b600080600080600080600080600060a08a8c031215611f0c57600080fd5b893567ffffffffffffffff80821115611f2457600080fd5b611f308d838e01611ea9565b909b50995060208c0135915080821115611f4957600080fd5b611f558d838e01611ea9565b909950975060408c0135915080821115611f6e57600080fd5b611f7a8d838e01611ea9565b909750955060608c01359150611f8f82611ae8565b90935060808b01359080821115611fa557600080fd5b50611fb28c828d01611b0d565b915080935050809150509295985092959850929598565b60005b83811015611fe4578181015183820152602001611fcc565b50506000910152565b60008151808452612005816020860160208601611fc9565b601f017fffffffffffffffffffffffffffffffffffffffffffffffffffffffffffffffe0169290920160200192915050565b6020815260006118e76020830184611fed565b6000806040838503121561205d57600080fd5b823561206881611ae8565b9150602083013567ffffffffffffffff81111561208457600080fd5b61209085828601611d1d565b9150509250929050565b6040815282604082015282846060830137600060608483010152600060607fffffffffffffffffffffffffffffffffffffffffffffffffffffffffffffffe0601f8601168301019050826020830152949350505050565b8051611d1881611ae8565b60006020828403121561210e57600080fd5b81516118e781611ae8565b7f4e487b7100000000000000000000000000000000000000000000000000000000600052603260045260246000fd5b7f4e487b7100000000000000000000000000000000000000000000000000000000600052601260045260246000fd5b60008251612189818460208701611fc9565b9190910192915050565b600082601f8301126121a457600080fd5b815160206121b4611d3e83611c94565b82815260059290921b840181019181810190868411156121d357600080fd5b8286015b84811015611e6957805183529183019183016121d7565b60006121fc611d3e84611cb8565b905082815283838301111561221057600080fd5b6118e7836020830184611fc9565b600082601f83011261222f57600080fd5b6118e7838351602085016121ee565b600080600080600060a0868803121561225657600080fd5b855167ffffffffffffffff8082111561226e57600080fd5b818801915088601f83011261228257600080fd5b81516020612292611d3e83611c94565b82815260059290921b8401810191818101908c8411156122b157600080fd5b948201945b838610156122d85785516122c981611ae8565b825294820194908201906122b6565b918b01519199509093505050808211156122f157600080fd5b6122fd89838a01612193565b955060408801519450606088015191508082111561231a57600080fd5b61232689838a0161221e565b9350608088015191508082111561233c57600080fd5b506123498882890161221e565b9150509295509295909350565b6040815260006123696040830185611fed565b90508260208301529392505050565b6000825161238a818460208701611fc9565b7f5f464c5549445f5f494e56414c49445f49445f4f525f4f5045524154494f4e00920191825250601f01919050565b6000602082840312156123cb57600080fd5b5051919050565b8051611d1881611cfe565b60006101a082840312156123f057600080fd5b6123f8611c21565b612401836120f1565b815261240f602084016120f1565b6020820152612420604084016120f1565b6040820152612431606084016120f1565b6060820152612442608084016120f1565b608082015261245360a084016120f1565b60a082015261246460c084016123d2565b60c082015261247560e084016123d2565b60e08201526101008381015190820152610120808401519082015261014080840151908201526101608084015190820152610180928301519281019290925250919050565b600083516124cc818460208801611fc9565b8351908301906124e0818360208801611fc9565b01949350505050565b7f4e487b7100000000000000000000000000000000000000000000000000000000600052601160045260246000fd5b81810381811115611025576110256124e9565b600060ff83168061253e5761253e612148565b8060ff84160491505092915050565b600060ff83168061256057612560612148565b8060ff84160691505092915050565b7f5f5441524745545f50414e49434b45443a2030780000000000000000000000008152600082516125a7816014850160208701611fc9565b9190910160140192915050565b6000602082840312156125c657600080fd5b815167ffffffffffffffff8111156125dd57600080fd5b8201601f810184136125ee57600080fd5b611a01848251602084016121ee565b7f5f00000000000000000000000000000000000000000000000000000000000000815260008251612635816001850160208701611fc9565b9190910160010192915050565b7f5f435553544f4d5f4552524f523a20307800000000000000000000000000000081526000825161267a816011850160208701611fc9565b9190910160110192915050565b80820180821115611025576110256124e9565b6000602082840312156126ac57600080fd5b815180151581146118e757600080fdfea2646970667358221220e6c9121fcca52644c46a032d5c8bca7e441fde9a4d9f218d3b69f37b7c1de21764736f6c63430008150033",
  "devdoc": {
    "kind": "dev",
    "methods": {
      "executeOperation(address[],uint256[],uint256[],address,bytes)": {
        "params": {
          "data_": "data bytes containing the `abi.encoded()` actions that are executed like in `CastParams.actions`",
          "initiator_": "flashloan initiator -> must be this contract"
        }
      },
      "onERC721Received(address,address,uint256,bytes)": {
        "details": "ERC721 callback used Fluid Vault Factory and executes actions encoded in `data_`                         Caller should be Fluid Wallet Factory.",
        "params": {
          "data_": "data bytes containing the `abi.encoded()` actions that are executed like in `Action[]` & `owner`",
          "from_": "from_ previous owner of the given token ID",
          "operator_": "operator_ caller to transfer the the given token ID",
          "tokenId_": "tokenId_ id of the ERC721"
        }
      }
    },
    "version": 1
  },
  "userdoc": {
    "kind": "user",
    "methods": {},
    "version": 1
  },
  "storageLayout": {
    "storage": [
      {
        "astId": 2068,
        "contract": "contracts/periphery/wallet/wallet/main.sol:FluidWalletImplementation",
        "label": "owner",
        "offset": 0,
        "slot": "0",
        "type": "t_address"
      },
      {
        "astId": 2071,
        "contract": "contracts/periphery/wallet/wallet/main.sol:FluidWalletImplementation",
        "label": "_transientAllowHash",
        "offset": 0,
        "slot": "1",
        "type": "t_bytes32"
      }
    ],
    "types": {
      "t_address": {
        "encoding": "inplace",
        "label": "address",
        "numberOfBytes": "20"
      },
      "t_bytes32": {
        "encoding": "inplace",
        "label": "bytes32",
        "numberOfBytes": "32"
      }
    }
  }
}