{
  "address": "0x15D12D6ba6962d89c820DF9353219E8cfc9453E0",
  "abi": [
    {
      "inputs": [
        {
          "internalType": "uint256",
          "name": "nativeTokenMaxBorrowLimitCap_",
          "type": "uint256"
        }
      ],
      "stateMutability": "nonpayable",
      "type": "constructor"
    },
    {
      "inputs": [
        {
          "internalType": "uint256",
          "name": "errorId_",
          "type": "uint256"
        }
      ],
      "name": "FluidLiquidityCalcsError",
      "type": "error"
    },
    {
      "inputs": [
        {
          "internalType": "uint256",
          "name": "errorId_",
          "type": "uint256"
        }
      ],
      "name": "FluidLiquidityError",
      "type": "error"
    },
    {
      "anonymous": false,
      "inputs": [],
      "name": "BorrowRateMaxCap",
      "type": "event"
    },
    {
      "anonymous": false,
      "inputs": [
        {
          "indexed": true,
          "internalType": "uint256",
          "name": "newStatus",
          "type": "uint256"
        }
      ],
      "name": "LogChangeStatus",
      "type": "event"
    },
    {
      "anonymous": false,
      "inputs": [
        {
          "indexed": true,
          "internalType": "address",
          "name": "token",
          "type": "address"
        },
        {
          "indexed": true,
          "internalType": "uint256",
          "name": "amount",
          "type": "uint256"
        }
      ],
      "name": "LogCollectRevenue",
      "type": "event"
    },
    {
      "anonymous": false,
      "inputs": [
        {
          "indexed": false,
          "internalType": "address",
          "name": "user",
          "type": "address"
        },
        {
          "indexed": false,
          "internalType": "address[]",
          "name": "supplyTokens",
          "type": "address[]"
        },
        {
          "indexed": false,
          "internalType": "address[]",
          "name": "borrowTokens",
          "type": "address[]"
        }
      ],
      "name": "LogPauseUser",
      "type": "event"
    },
    {
      "anonymous": false,
      "inputs": [
        {
          "indexed": false,
          "internalType": "address",
          "name": "user",
          "type": "address"
        },
        {
          "indexed": false,
          "internalType": "address[]",
          "name": "supplyTokens",
          "type": "address[]"
        },
        {
          "indexed": false,
          "internalType": "address[]",
          "name": "borrowTokens",
          "type": "address[]"
        }
      ],
      "name": "LogUnpauseUser",
      "type": "event"
    },
    {
      "anonymous": false,
      "inputs": [
        {
          "components": [
            {
              "internalType": "address",
              "name": "addr",
              "type": "address"
            },
            {
              "internalType": "bool",
              "name": "value",
              "type": "bool"
            }
          ],
          "indexed": false,
          "internalType": "struct Structs.AddressBool[]",
          "name": "authsStatus",
          "type": "tuple[]"
        }
      ],
      "name": "LogUpdateAuths",
      "type": "event"
    },
    {
      "anonymous": false,
      "inputs": [
        {
          "indexed": true,
          "internalType": "address",
          "name": "token",
          "type": "address"
        },
        {
          "indexed": true,
          "internalType": "uint256",
          "name": "supplyExchangePrice",
          "type": "uint256"
        },
        {
          "indexed": true,
          "internalType": "uint256",
          "name": "borrowExchangePrice",
          "type": "uint256"
        },
        {
          "indexed": false,
          "internalType": "uint256",
          "name": "borrowRate",
          "type": "uint256"
        },
        {
          "indexed": false,
          "internalType": "uint256",
          "name": "utilization",
          "type": "uint256"
        }
      ],
      "name": "LogUpdateExchangePrices",
      "type": "event"
    },
    {
      "anonymous": false,
      "inputs": [
        {
          "components": [
            {
              "internalType": "address",
              "name": "addr",
              "type": "address"
            },
            {
              "internalType": "bool",
              "name": "value",
              "type": "bool"
            }
          ],
          "indexed": false,
          "internalType": "struct Structs.AddressBool[]",
          "name": "guardiansStatus",
          "type": "tuple[]"
        }
      ],
      "name": "LogUpdateGuardians",
      "type": "event"
    },
    {
      "anonymous": false,
      "inputs": [
        {
          "components": [
            {
              "internalType": "address",
              "name": "token",
              "type": "address"
            },
            {
              "internalType": "uint256",
              "name": "kink",
              "type": "uint256"
            },
            {
              "internalType": "uint256",
              "name": "rateAtUtilizationZero",
              "type": "uint256"
            },
            {
              "internalType": "uint256",
              "name": "rateAtUtilizationKink",
              "type": "uint256"
            },
            {
              "internalType": "uint256",
              "name": "rateAtUtilizationMax",
              "type": "uint256"
            }
          ],
          "indexed": false,
          "internalType": "struct Structs.RateDataV1Params[]",
          "name": "tokenRateDatas",
          "type": "tuple[]"
        }
      ],
      "name": "LogUpdateRateDataV1s",
      "type": "event"
    },
    {
      "anonymous": false,
      "inputs": [
        {
          "components": [
            {
              "internalType": "address",
              "name": "token",
              "type": "address"
            },
            {
              "internalType": "uint256",
              "name": "kink1",
              "type": "uint256"
            },
            {
              "internalType": "uint256",
              "name": "kink2",
              "type": "uint256"
            },
            {
              "internalType": "uint256",
              "name": "rateAtUtilizationZero",
              "type": "uint256"
            },
            {
              "internalType": "uint256",
              "name": "rateAtUtilizationKink1",
              "type": "uint256"
            },
            {
              "internalType": "uint256",
              "name": "rateAtUtilizationKink2",
              "type": "uint256"
            },
            {
              "internalType": "uint256",
              "name": "rateAtUtilizationMax",
              "type": "uint256"
            }
          ],
          "indexed": false,
          "internalType": "struct Structs.RateDataV2Params[]",
          "name": "tokenRateDatas",
          "type": "tuple[]"
        }
      ],
      "name": "LogUpdateRateDataV2s",
      "type": "event"
    },
    {
      "anonymous": false,
      "inputs": [
        {
          "indexed": true,
          "internalType": "address",
          "name": "revenueCollector",
          "type": "address"
        }
      ],
      "name": "LogUpdateRevenueCollector",
      "type": "event"
    },
    {
      "anonymous": false,
      "inputs": [
        {
          "components": [
            {
              "internalType": "address",
              "name": "token",
              "type": "address"
            },
            {
              "internalType": "uint256",
              "name": "fee",
              "type": "uint256"
            },
            {
              "internalType": "uint256",
              "name": "threshold",
              "type": "uint256"
            }
          ],
          "indexed": false,
          "internalType": "struct Structs.TokenConfig[]",
          "name": "tokenConfigs",
          "type": "tuple[]"
        }
      ],
      "name": "LogUpdateTokenConfigs",
      "type": "event"
    },
    {
      "anonymous": false,
      "inputs": [
        {
          "components": [
            {
              "internalType": "address",
              "name": "user",
              "type": "address"
            },
            {
              "internalType": "address",
              "name": "token",
              "type": "address"
            },
            {
              "internalType": "uint8",
              "name": "mode",
              "type": "uint8"
            },
            {
              "internalType": "uint256",
              "name": "expandPercent",
              "type": "uint256"
            },
            {
              "internalType": "uint256",
              "name": "expandDuration",
              "type": "uint256"
            },
            {
              "internalType": "uint256",
              "name": "baseDebtCeiling",
              "type": "uint256"
            },
            {
              "internalType": "uint256",
              "name": "maxDebtCeiling",
              "type": "uint256"
            }
          ],
          "indexed": false,
          "internalType": "struct Structs.UserBorrowConfig[]",
          "name": "userBorrowConfigs",
          "type": "tuple[]"
        }
      ],
      "name": "LogUpdateUserBorrowConfigs",
      "type": "event"
    },
    {
      "anonymous": false,
      "inputs": [
        {
          "components": [
            {
              "internalType": "address",
              "name": "addr",
              "type": "address"
            },
            {
              "internalType": "uint256",
              "name": "value",
              "type": "uint256"
            }
          ],
          "indexed": false,
          "internalType": "struct Structs.AddressUint256[]",
          "name": "userClasses",
          "type": "tuple[]"
        }
      ],
      "name": "LogUpdateUserClasses",
      "type": "event"
    },
    {
      "anonymous": false,
      "inputs": [
        {
          "components": [
            {
              "internalType": "address",
              "name": "user",
              "type": "address"
            },
            {
              "internalType": "address",
              "name": "token",
              "type": "address"
            },
            {
              "internalType": "uint8",
              "name": "mode",
              "type": "uint8"
            },
            {
              "internalType": "uint256",
              "name": "expandPercent",
              "type": "uint256"
            },
            {
              "internalType": "uint256",
              "name": "expandDuration",
              "type": "uint256"
            },
            {
              "internalType": "uint256",
              "name": "baseWithdrawalLimit",
              "type": "uint256"
            }
          ],
          "indexed": false,
          "internalType": "struct Structs.UserSupplyConfig[]",
          "name": "userSupplyConfigs",
          "type": "tuple[]"
        }
      ],
      "name": "LogUpdateUserSupplyConfigs",
      "type": "event"
    },
    {
      "inputs": [],
      "name": "NATIVE_TOKEN_MAX_BORROW_LIMIT_CAP",
      "outputs": [
        {
          "internalType": "uint256",
          "name": "",
          "type": "uint256"
        }
      ],
      "stateMutability": "view",
      "type": "function"
    },
    {
      "inputs": [
        {
          "internalType": "uint256",
          "name": "newStatus_",
          "type": "uint256"
        }
      ],
      "name": "changeStatus",
      "outputs": [],
      "stateMutability": "nonpayable",
      "type": "function"
    },
    {
      "inputs": [
        {
          "internalType": "address[]",
          "name": "tokens_",
          "type": "address[]"
        }
      ],
      "name": "collectRevenue",
      "outputs": [],
      "stateMutability": "nonpayable",
      "type": "function"
    },
    {
      "inputs": [
        {
          "internalType": "address",
          "name": "user_",
          "type": "address"
        },
        {
          "internalType": "address[]",
          "name": "supplyTokens_",
          "type": "address[]"
        },
        {
          "internalType": "address[]",
          "name": "borrowTokens_",
          "type": "address[]"
        }
      ],
      "name": "pauseUser",
      "outputs": [],
      "stateMutability": "nonpayable",
      "type": "function"
    },
    {
      "inputs": [
        {
          "internalType": "address",
          "name": "user_",
          "type": "address"
        },
        {
          "internalType": "address[]",
          "name": "supplyTokens_",
          "type": "address[]"
        },
        {
          "internalType": "address[]",
          "name": "borrowTokens_",
          "type": "address[]"
        }
      ],
      "name": "unpauseUser",
      "outputs": [],
      "stateMutability": "nonpayable",
      "type": "function"
    },
    {
      "inputs": [
        {
          "components": [
            {
              "internalType": "address",
              "name": "addr",
              "type": "address"
            },
            {
              "internalType": "bool",
              "name": "value",
              "type": "bool"
            }
          ],
          "internalType": "struct Structs.AddressBool[]",
          "name": "authsStatus_",
          "type": "tuple[]"
        }
      ],
      "name": "updateAuths",
      "outputs": [],
      "stateMutability": "nonpayable",
      "type": "function"
    },
    {
      "inputs": [
        {
          "internalType": "address[]",
          "name": "tokens_",
          "type": "address[]"
        }
      ],
      "name": "updateExchangePrices",
      "outputs": [
        {
          "internalType": "uint256[]",
          "name": "supplyExchangePrices_",
          "type": "uint256[]"
        },
        {
          "internalType": "uint256[]",
          "name": "borrowExchangePrices_",
          "type": "uint256[]"
        }
      ],
      "stateMutability": "nonpayable",
      "type": "function"
    },
    {
      "inputs": [
        {
          "components": [
            {
              "internalType": "address",
              "name": "addr",
              "type": "address"
            },
            {
              "internalType": "bool",
              "name": "value",
              "type": "bool"
            }
          ],
          "internalType": "struct Structs.AddressBool[]",
          "name": "guardiansStatus_",
          "type": "tuple[]"
        }
      ],
      "name": "updateGuardians",
      "outputs": [],
      "stateMutability": "nonpayable",
      "type": "function"
    },
    {
      "inputs": [
        {
          "components": [
            {
              "internalType": "address",
              "name": "token",
              "type": "address"
            },
            {
              "internalType": "uint256",
              "name": "kink",
              "type": "uint256"
            },
            {
              "internalType": "uint256",
              "name": "rateAtUtilizationZero",
              "type": "uint256"
            },
            {
              "internalType": "uint256",
              "name": "rateAtUtilizationKink",
              "type": "uint256"
            },
            {
              "internalType": "uint256",
              "name": "rateAtUtilizationMax",
              "type": "uint256"
            }
          ],
          "internalType": "struct Structs.RateDataV1Params[]",
          "name": "tokensRateData_",
          "type": "tuple[]"
        }
      ],
      "name": "updateRateDataV1s",
      "outputs": [],
      "stateMutability": "nonpayable",
      "type": "function"
    },
    {
      "inputs": [
        {
          "components": [
            {
              "internalType": "address",
              "name": "token",
              "type": "address"
            },
            {
              "internalType": "uint256",
              "name": "kink1",
              "type": "uint256"
            },
            {
              "internalType": "uint256",
              "name": "kink2",
              "type": "uint256"
            },
            {
              "internalType": "uint256",
              "name": "rateAtUtilizationZero",
              "type": "uint256"
            },
            {
              "internalType": "uint256",
              "name": "rateAtUtilizationKink1",
              "type": "uint256"
            },
            {
              "internalType": "uint256",
              "name": "rateAtUtilizationKink2",
              "type": "uint256"
            },
            {
              "internalType": "uint256",
              "name": "rateAtUtilizationMax",
              "type": "uint256"
            }
          ],
          "internalType": "struct Structs.RateDataV2Params[]",
          "name": "tokensRateData_",
          "type": "tuple[]"
        }
      ],
      "name": "updateRateDataV2s",
      "outputs": [],
      "stateMutability": "nonpayable",
      "type": "function"
    },
    {
      "inputs": [
        {
          "internalType": "address",
          "name": "revenueCollector_",
          "type": "address"
        }
      ],
      "name": "updateRevenueCollector",
      "outputs": [],
      "stateMutability": "nonpayable",
      "type": "function"
    },
    {
      "inputs": [
        {
          "components": [
            {
              "internalType": "address",
              "name": "token",
              "type": "address"
            },
            {
              "internalType": "uint256",
              "name": "fee",
              "type": "uint256"
            },
            {
              "internalType": "uint256",
              "name": "threshold",
              "type": "uint256"
            }
          ],
          "internalType": "struct Structs.TokenConfig[]",
          "name": "tokenConfigs_",
          "type": "tuple[]"
        }
      ],
      "name": "updateTokenConfigs",
      "outputs": [],
      "stateMutability": "nonpayable",
      "type": "function"
    },
    {
      "inputs": [
        {
          "components": [
            {
              "internalType": "address",
              "name": "user",
              "type": "address"
            },
            {
              "internalType": "address",
              "name": "token",
              "type": "address"
            },
            {
              "internalType": "uint8",
              "name": "mode",
              "type": "uint8"
            },
            {
              "internalType": "uint256",
              "name": "expandPercent",
              "type": "uint256"
            },
            {
              "internalType": "uint256",
              "name": "expandDuration",
              "type": "uint256"
            },
            {
              "internalType": "uint256",
              "name": "baseDebtCeiling",
              "type": "uint256"
            },
            {
              "internalType": "uint256",
              "name": "maxDebtCeiling",
              "type": "uint256"
            }
          ],
          "internalType": "struct Structs.UserBorrowConfig[]",
          "name": "userBorrowConfigs_",
          "type": "tuple[]"
        }
      ],
      "name": "updateUserBorrowConfigs",
      "outputs": [],
      "stateMutability": "nonpayable",
      "type": "function"
    },
    {
      "inputs": [
        {
          "components": [
            {
              "internalType": "address",
              "name": "addr",
              "type": "address"
            },
            {
              "internalType": "uint256",
              "name": "value",
              "type": "uint256"
            }
          ],
          "internalType": "struct Structs.AddressUint256[]",
          "name": "userClasses_",
          "type": "tuple[]"
        }
      ],
      "name": "updateUserClasses",
      "outputs": [],
      "stateMutability": "nonpayable",
      "type": "function"
    },
    {
      "inputs": [
        {
          "components": [
            {
              "internalType": "address",
              "name": "user",
              "type": "address"
            },
            {
              "internalType": "address",
              "name": "token",
              "type": "address"
            },
            {
              "internalType": "uint8",
              "name": "mode",
              "type": "uint8"
            },
            {
              "internalType": "uint256",
              "name": "expandPercent",
              "type": "uint256"
            },
            {
              "internalType": "uint256",
              "name": "expandDuration",
              "type": "uint256"
            },
            {
              "internalType": "uint256",
              "name": "baseWithdrawalLimit",
              "type": "uint256"
            }
          ],
          "internalType": "struct Structs.UserSupplyConfig[]",
          "name": "userSupplyConfigs_",
          "type": "tuple[]"
        }
      ],
      "name": "updateUserSupplyConfigs",
      "outputs": [],
      "stateMutability": "nonpayable",
      "type": "function"
    }
  ],
  "transactionHash": "0x981c67cd474ccd866071e927f60b7947b6e03b229bccb8e366c243118cdc716c",
  "args": [
    "100000000000000000000000000"
  ],
  "numDeployments": 1,
  "solcInputHash": "d4fa359f3002cd44062d748848196ced",
  "bytecode": "0x60a06040523480156200001157600080fd5b5060405162005a7338038062005a7383398101604081905262000034916200006e565b600180558060008190036200006457604051636e55c17160e11b8152612716600482015260240160405180910390fd5b6080525062000088565b6000602082840312156200008157600080fd5b5051919050565b6080516159c8620000ab600039600081816101e5015261058201526159c86000f3fe608060405234801561001057600080fd5b50600436106100f55760003560e01c8063a5eb43ef11610097578063e8025d7711610066578063e8025d77146101cd578063eae2c8f1146101e0578063ec0484011461021a578063f4bfa0001461022d57600080fd5b8063a5eb43ef14610181578063ac862bfa14610194578063c2da75f0146101a7578063dd4cbf6b146101ba57600080fd5b80633f66feff116100d35780633f66feff146101355780633fad77fc1461014857806354bb0c1d1461015b5780639dde59771461016e57600080fd5b806301b88f86146100fa57806302c6bb6a1461010f57806338b7e8e714610122575b600080fd5b61010d610108366004614d85565b61024e565b005b61010d61011d366004614e85565b610fe5565b61010d610130366004614f6a565b611aaa565b61010d61014336600461502b565b611f8e565b61010d61015636600461506d565b612119565b61010d6101693660046150d0565b61237e565b61010d61017c3660046150f2565b61246e565b61010d61018f36600461502b565b6126bb565b61010d6101a236600461519a565b61281e565b61010d6101b536600461502b565b612bfb565b61010d6101c83660046151d0565b612dd0565b61010d6101db366004615251565b613242565b6102077f000000000000000000000000000000000000000000000000000000000000000081565b6040519081526020015b60405180910390f35b61010d6102283660046151d0565b613358565b61024061023b36600461519a565b613736565b6040516102119291906152a5565b336000908152600260205260409020546001908116148015906102ae5750336102957fb53127684a568b3173ae13b9f8a6016e243e63b6e8ee1178d6a717850b5d61035490565b73ffffffffffffffffffffffffffffffffffffffff1614155b156102ee576040517fdcab82e200000000000000000000000000000000000000000000000000000000815261271360048201526024015b60405180910390fd5b6000806000806000806000805b8851811015610fa35761032a898281518110610319576103196152d3565b602002602001015160000151613859565b61035089828151811061033f5761033f6152d3565b602002602001015160200151613859565b600560008a8381518110610366576103666152d3565b60200260200101516020015173ffffffffffffffffffffffffffffffffffffffff1673ffffffffffffffffffffffffffffffffffffffff168152602001908152602001600020546000036103ea576040517fdcab82e200000000000000000000000000000000000000000000000000000000815261271a60048201526024016102e5565b60018982815181106103fe576103fe6152d3565b60200260200101516040015160ff1611806104525750888181518110610426576104266152d3565b602002602001015160c00151898281518110610444576104446152d3565b602002602001015160a00151115b8061047a575088818151811061046a5761046a6152d3565b6020026020010151608001516000145b806105c2575073eeeeeeeeeeeeeeeeeeeeeeeeeeeeeeeeeeeeeeee73ffffffffffffffffffffffffffffffffffffffff168982815181106104bd576104bd6152d3565b60200260200101516020015173ffffffffffffffffffffffffffffffffffffffff1614610580578881815181106104f6576104f66152d3565b60200260200101516020015173ffffffffffffffffffffffffffffffffffffffff166318160ddd6040518163ffffffff1660e01b8152600401602060405180830381865afa15801561054c573d6000803e3d6000fd5b505050506040513d601f19601f820116820180604052508101906105709190615302565b61057b90600a61534a565b6105a2565b7f00000000000000000000000000000000000000000000000000000000000000005b8982815181106105b4576105b46152d3565b602002602001015160c00151115b156105fd576040517fdcab82e200000000000000000000000000000000000000000000000000000000815261271660048201526024016102e5565b613fff898281518110610612576106126152d3565b602002602001015160600151111561065a576040517fdcab82e200000000000000000000000000000000000000000000000000000000815261272660048201526024016102e5565b62ffffff898281518110610670576106706152d3565b60200260200101516080015111156106b8576040517fdcab82e200000000000000000000000000000000000000000000000000000000815261272760048201526024016102e5565b8881815181106106ca576106ca6152d3565b602002602001015160a001516000148061070157508881815181106106f1576106f16152d3565b602002602001015160c001516000145b1561073c576040517fdcab82e200000000000000000000000000000000000000000000000000000000815261271560048201526024016102e5565b610773600a600860008c8581518110610757576107576152d3565b602002602001015160c001516138e6909392919063ffffffff16565b898281518110610785576107856152d3565b602002602001015160c00181815250506107cc600a600860008c85815181106107b0576107b06152d3565b602002602001015160a001516138e6909392919063ffffffff16565b8982815181106107de576107de6152d3565b602002602001015160a0018181525050600960008a8381518110610804576108046152d3565b60200260200101516000015173ffffffffffffffffffffffffffffffffffffffff1673ffffffffffffffffffffffffffffffffffffffff16815260200190815260200160002060008a838151811061085e5761085e6152d3565b60200260200101516020015173ffffffffffffffffffffffffffffffffffffffff1673ffffffffffffffffffffffffffffffffffffffff16815260200190815260200160002054975087600014806108e25750600188161580156108e257508881815181106108cf576108cf6152d3565b60200260200101516040015160ff166000145b8061091b575087600116600114801561091b5750888181518110610908576109086152d3565b60200260200101516040015160ff166001145b15610ab05760da898281518110610934576109346152d3565b602002602001015160c00151901b60c88a8381518110610956576109566152d3565b602002602001015160a00151901b60b08b8481518110610978576109786152d3565b602002602001015160800151901b60a28c858151811061099a5761099a6152d3565b602002602001015160600151901b8c85815181106109ba576109ba6152d3565b60200260200101516040015160ff168c7ffffff0000000000000000003fffffffffffffffffffffffffffffffffffffffe161717171717600960008b8481518110610a0757610a076152d3565b60200260200101516000015173ffffffffffffffffffffffffffffffffffffffff1673ffffffffffffffffffffffffffffffffffffffff16815260200190815260200160002060008b8481518110610a6157610a616152d3565b60200260200101516020015173ffffffffffffffffffffffffffffffffffffffff1673ffffffffffffffffffffffffffffffffffffffff16815260200190815260200160002081905550610f9b565b610ad6898281518110610ac557610ac56152d3565b602002602001015160200151613a0f565b5050610b3d600560008b8481518110610af157610af16152d3565b60200260200101516020015173ffffffffffffffffffffffffffffffffffffffff1673ffffffffffffffffffffffffffffffffffffffff16815260200190815260200160002054613b51565b905080925050600760008a8381518110610b5957610b596152d3565b60200260200101516020015173ffffffffffffffffffffffffffffffffffffffff1673ffffffffffffffffffffffffffffffffffffffff168152602001908152602001600020549650610bc267ffffffffffffffff608089901c16600860ff9082901c91161b90565b955060c887901c60ff60c089901c161b945067ffffffffffffffff600189901c16935060ff8416600885901c901b935067ffffffffffffffff604189901c16925060ff8316600884901c901b9250876001166000148015610c435750888181518110610c3057610c306152d3565b60200260200101516040015160ff166001145b15610ca157838511610c56576000610c60565b610c608486615367565b9450610c728464e8d4a5100084613d5f565b935081610c8464e8d4a510008561534a565b610c8e91906153a9565b9250610c9a84876153e4565b9550610d2e565b876001166001148015610cd45750888181518110610cc157610cc16152d3565b60200260200101516040015160ff166000145b15610d2e57838611610ce7576000610cf1565b610cf18487615367565b9550610d03848364e8d4a51000613d5f565b935064e8d4a51000610d15838561534a565b610d1f91906153a9565b9250610d2b84866153e4565b94505b610d3d846038600860016138e6565b9350610d4e836038600860006138e6565b925060da898281518110610d6457610d646152d3565b602002602001015160c00151901b60c88a8381518110610d8657610d866152d3565b602002602001015160a00151901b60b08b8481518110610da857610da86152d3565b602002602001015160800151901b60a28c8581518110610dca57610dca6152d3565b602002602001015160600151901b604187901b600189901b8e8781518110610df457610df46152d3565b60200260200101516040015160ff168e7ffffff0000000000000000003fffffffe000000000000000000000000000000001617171717171717600960008b8481518110610e4357610e436152d3565b60200260200101516000015173ffffffffffffffffffffffffffffffffffffffff1673ffffffffffffffffffffffffffffffffffffffff16815260200190815260200160002060008b8481518110610e9d57610e9d6152d3565b60209081029190910181015181015173ffffffffffffffffffffffffffffffffffffffff16825281019190915260400160002055610ee0866038600860016138e6565b9550610ef1856038600860016138e6565b945060c085901b608087901b886fffffffffffffffffffffffffffffffff161717600760008b8481518110610f2857610f286152d3565b60200260200101516020015173ffffffffffffffffffffffffffffffffffffffff1673ffffffffffffffffffffffffffffffffffffffff16815260200190815260200160002081905550610f98898281518110610f8757610f876152d3565b602002602001015160200151613da3565b50505b6001016102fb565b507f4a3d512075def8d38b63e79dacfdab217654f641be2b2f7d638b67b2515df7c088604051610fd391906153f7565b60405180910390a15050505050505050565b3360009081526002602052604090205460019081161480159061104557503361102c7fb53127684a568b3173ae13b9f8a6016e243e63b6e8ee1178d6a717850b5d61035490565b73ffffffffffffffffffffffffffffffffffffffff1614155b15611080576040517fdcab82e200000000000000000000000000000000000000000000000000000000815261271360048201526024016102e5565b6000806000806000806000805b8851811015611a7a576110ab898281518110610319576103196152d3565b6110c089828151811061033f5761033f6152d3565b600560008a83815181106110d6576110d66152d3565b60200260200101516020015173ffffffffffffffffffffffffffffffffffffffff1673ffffffffffffffffffffffffffffffffffffffff1681526020019081526020016000205460000361115a576040517fdcab82e200000000000000000000000000000000000000000000000000000000815261271a60048201526024016102e5565b600189828151811061116e5761116e6152d3565b60200260200101516040015160ff1611806111a65750888181518110611196576111966152d3565b6020026020010151608001516000145b156111e1576040517fdcab82e200000000000000000000000000000000000000000000000000000000815261271660048201526024016102e5565b6127108982815181106111f6576111f66152d3565b602002602001015160600151111561123e576040517fdcab82e200000000000000000000000000000000000000000000000000000000815261272460048201526024016102e5565b62ffffff898281518110611254576112546152d3565b602002602001015160800151111561129c576040517fdcab82e200000000000000000000000000000000000000000000000000000000815261272560048201526024016102e5565b8881815181106112ae576112ae6152d3565b602002602001015160a001516000036112f7576040517fdcab82e200000000000000000000000000000000000000000000000000000000815261271560048201526024016102e5565b611312600a600860008c85815181106107b0576107b06152d3565b898281518110611324576113246152d3565b602002602001015160a0018181525050600860008a838151811061134a5761134a6152d3565b60200260200101516000015173ffffffffffffffffffffffffffffffffffffffff1673ffffffffffffffffffffffffffffffffffffffff16815260200190815260200160002060008a83815181106113a4576113a46152d3565b60200260200101516020015173ffffffffffffffffffffffffffffffffffffffff1673ffffffffffffffffffffffffffffffffffffffff16815260200190815260200160002054975087600014806114285750600188161580156114285750888181518110611415576114156152d3565b60200260200101516040015160ff166000145b806114615750876001166001148015611461575088818151811061144e5761144e6152d3565b60200260200101516040015160ff166001145b156115d35760c889828151811061147a5761147a6152d3565b602002602001015160a00151901b60b08a838151811061149c5761149c6152d3565b602002602001015160800151901b60a28b84815181106114be576114be6152d3565b602002602001015160600151901b8b84815181106114de576114de6152d3565b60200260200101516040015160ff168b7ffffffffffc00000000000003fffffffffffffffffffffffffffffffffffffffe1617171717600860008b848151811061152a5761152a6152d3565b60200260200101516000015173ffffffffffffffffffffffffffffffffffffffff1673ffffffffffffffffffffffffffffffffffffffff16815260200190815260200160002060008b8481518110611584576115846152d3565b60200260200101516020015173ffffffffffffffffffffffffffffffffffffffff1673ffffffffffffffffffffffffffffffffffffffff16815260200190815260200160002081905550611a72565b6115e8898281518110610ac557610ac56152d3565b5050611603600560008b8481518110610af157610af16152d3565b5080925050600760008a838151811061161e5761161e6152d3565b60200260200101516020015173ffffffffffffffffffffffffffffffffffffffff1673ffffffffffffffffffffffffffffffffffffffff16815260200190815260200160002054965061168367ffffffffffffffff8816600860ff9082901c91161b90565b955066ffffffffffffff604888901c1660ff604089901c161b945067ffffffffffffffff600189901c16935060ff8416600885901c901b935067ffffffffffffffff604189901c16925060ff8316600884901c901b925087600116600014801561170d57508881815181106116fa576116fa6152d3565b60200260200101516040015160ff166001145b156117755783851161172057600061172a565b61172a8486615367565b94508161173c64e8d4a510008661534a565b61174691906153a9565b93508161175864e8d4a510008561534a565b61176291906153a9565b925061176e84876153e4565b955061180c565b8760011660011480156117a85750888181518110611795576117956152d3565b60200260200101516040015160ff166000145b1561180c578386116117bb5760006117c5565b6117c58487615367565b955064e8d4a510006117d7838661534a565b6117e191906153a9565b935064e8d4a510006117f3838561534a565b6117fd91906153a9565b925061180984866153e4565b94505b61181b846038600860006138e6565b935061182c836038600860006138e6565b925060c8898281518110611842576118426152d3565b602002602001015160a00151901b60b08a8381518110611864576118646152d3565b602002602001015160800151901b60a28b8481518110611886576118866152d3565b602002602001015160600151901b604186901b600188901b8d86815181106118b0576118b06152d3565b60200260200101516040015160ff168d7ffffffffffc00000000000003fffffffe0000000000000000000000000000000016171717171717600860008b84815181106118fe576118fe6152d3565b60200260200101516000015173ffffffffffffffffffffffffffffffffffffffff1673ffffffffffffffffffffffffffffffffffffffff16815260200190815260200160002060008b8481518110611958576119586152d3565b60200260200101516020015173ffffffffffffffffffffffffffffffffffffffff1673ffffffffffffffffffffffffffffffffffffffff168152602001908152602001600020819055506119bc603860086000896138e6909392919063ffffffff16565b95506119cd856038600860006138e6565b9450604085901b86887fffffffffffffffffffffffffffffffff00000000000000000000000000000000161717600760008b8481518110611a1057611a106152d3565b60200260200101516020015173ffffffffffffffffffffffffffffffffffffffff1673ffffffffffffffffffffffffffffffffffffffff16815260200190815260200160002081905550611a6f898281518110610f8757610f876152d3565b50505b60010161108d565b507f614e3525ec8c152da9319cd9038950346a4a042d3c6810a7f3ffddc34347bdb088604051610fd39190615495565b33600090815260026020526040902054600190811614801590611b0a575033611af17fb53127684a568b3173ae13b9f8a6016e243e63b6e8ee1178d6a717850b5d61035490565b73ffffffffffffffffffffffffffffffffffffffff1614155b15611b45576040517fdcab82e200000000000000000000000000000000000000000000000000000000815261271360048201526024016102e5565b8060008080805b84811015611f4c57611b84878783818110611b6957611b696152d3565b611b7f92602060609092020190810191506150d0565b613859565b60066000888884818110611b9a57611b9a6152d3565b611bb092602060609092020190810191506150d0565b73ffffffffffffffffffffffffffffffffffffffff1673ffffffffffffffffffffffffffffffffffffffff16815260200190815260200160002054600003611c28576040517fdcab82e200000000000000000000000000000000000000000000000000000000815261271a60048201526024016102e5565b612710878783818110611c3d57611c3d6152d3565b905060600201602001351115611c83576040517fdcab82e200000000000000000000000000000000000000000000000000000000815261272260048201526024016102e5565b6101f4878783818110611c9857611c986152d3565b905060600201604001351115611cde576040517fdcab82e200000000000000000000000000000000000000000000000000000000815261272360048201526024016102e5565b60056000888884818110611cf457611cf46152d3565b611d0a92602060609092020190810191506150d0565b73ffffffffffffffffffffffffffffffffffffffff1673ffffffffffffffffffffffffffffffffffffffff16815260200190815260200160002054935067ffffffffffffffff605b85901c16925067ffffffffffffffff609b85901c169150600083118015611d795750600082115b15611de957611d8784613b51565b909350915067ffffffffffffffff831180611da9575067ffffffffffffffff82115b15611de4576040517fdcab82e200000000000000000000000000000000000000000000000000000000815261272860048201526024016102e5565b611e7b565b64e8d4a51000925064e8d4a510009150600a878783818110611e0d57611e0d6152d3565b611e2392602060609092020190810191506150d0565b81546001810183556000928352602090922090910180547fffffffffffffffffffffffff00000000000000000000000000000000000000001673ffffffffffffffffffffffffffffffffffffffff9092169190911790555b609b82901b605b84901b42603a1b602c8a8a86818110611e9d57611e9d6152d3565b90506060020160400135901b60108b8b87818110611ebd57611ebd6152d3565b90506060020160200135901b887ffffffffff80000000000000000000000000000000000000000000fffc000ffff16171717171760056000898985818110611f0757611f076152d3565b611f1d92602060609092020190810191506150d0565b73ffffffffffffffffffffffffffffffffffffffff168152602081019190915260400160002055600101611b4c565b507f935dc52ba6fc3b924e07e0b50ec101774cee19dd16838ba0af3e0428abed3c868686604051611f7e92919061551c565b60405180910390a1505050505050565b33611fb77fb53127684a568b3173ae13b9f8a6016e243e63b6e8ee1178d6a717850b5d61035490565b73ffffffffffffffffffffffffffffffffffffffff1614612008576040517fdcab82e200000000000000000000000000000000000000000000000000000000815261271260048201526024016102e5565b8060005b818110156120da57612044848483818110612029576120296152d3565b61203f92602060409092020190810191506150d0565b614137565b838382818110612056576120566152d3565b905060400201602001602081019061206e9190615598565b61207957600061207c565b60015b60ff1660026000868685818110612095576120956152d3565b6120ab92602060409092020190810191506150d0565b73ffffffffffffffffffffffffffffffffffffffff16815260208101919091526040016000205560010161200c565b507fb694cde8b4bf47e7f5845bb4374f98c5b29bbbaa5208ea679121cecb5d8fd3e0838360405161210c9291906155b5565b60405180910390a1505050565b336000908152600260205260409020546001908116148015906121795750336121607fb53127684a568b3173ae13b9f8a6016e243e63b6e8ee1178d6a717850b5d61035490565b73ffffffffffffffffffffffffffffffffffffffff1614155b156121b4576040517fdcab82e200000000000000000000000000000000000000000000000000000000815261271360048201526024016102e5565b806000805b8281101561233e576121ec8585838181106121d6576121d66152d3565b611b7f92602060a09092020190810191506150d0565b60066000868684818110612202576122026152d3565b61221892602060a09092020190810191506150d0565b73ffffffffffffffffffffffffffffffffffffffff1681526020810191909152604001600020549150811561227a5761227785858381811061225c5761225c6152d3565b61227292602060a09092020190810191506150d0565b613a0f565b50505b6122aa85858381811061228f5761228f6152d3565b905060a002018036038101906122a59190615617565b614188565b600660008787858181106122c0576122c06152d3565b6122d692602060a09092020190810191506150d0565b73ffffffffffffffffffffffffffffffffffffffff168152602081019190915260400160002055811561233657612333858583818110612318576123186152d3565b61232e92602060a09092020190810191506150d0565b613da3565b50505b6001016121b9565b507f1f953465aa7f3f2478d38b6c2a9cfcfbda846398254e278f614d586d527d902c848460405161237092919061568c565b60405180910390a150505050565b336123a77fb53127684a568b3173ae13b9f8a6016e243e63b6e8ee1178d6a717850b5d61035490565b73ffffffffffffffffffffffffffffffffffffffff16146123f8576040517fdcab82e200000000000000000000000000000000000000000000000000000000815261271260048201526024016102e5565b61240181614137565b600080547fffffffffffffffffffffffff00000000000000000000000000000000000000001673ffffffffffffffffffffffffffffffffffffffff8316908117825560405190917fde3dd47a9a762713b4a9813a037ab6f57e36569d8b0ec4ddb285d8a61878b5b491a250565b336000908152600260205260409020546001908116148015906124ce5750336124b57fb53127684a568b3173ae13b9f8a6016e243e63b6e8ee1178d6a717850b5d61035490565b73ffffffffffffffffffffffffffffffffffffffff1614155b15612509576040517fdcab82e200000000000000000000000000000000000000000000000000000000815261271360048201526024016102e5565b806000805b828110156126895761254185858381811061252b5761252b6152d3565b611b7f92602060e09092020190810191506150d0565b60066000868684818110612557576125576152d3565b61256d92602060e09092020190810191506150d0565b73ffffffffffffffffffffffffffffffffffffffff168152602081019190915260400160002054915081156125ca576125c78585838181106125b1576125b16152d3565b61227292602060e09092020190810191506150d0565b50505b6125fa8585838181106125df576125df6152d3565b905060e002018036038101906125f59190615701565b6142fd565b60066000878785818110612610576126106152d3565b61262692602060e09092020190810191506150d0565b73ffffffffffffffffffffffffffffffffffffffff16815260208101919091526040016000205581156126815761267e858583818110612668576126686152d3565b61232e92602060e09092020190810191506150d0565b50505b60010161250e565b507ff96f9120f802331b6220bac68c2ab90cce6c8a8f9fed548d72dd092ad1899bf9848460405161237092919061576c565b336126e47fb53127684a568b3173ae13b9f8a6016e243e63b6e8ee1178d6a717850b5d61035490565b73ffffffffffffffffffffffffffffffffffffffff1614612735576040517fdcab82e200000000000000000000000000000000000000000000000000000000815261271260048201526024016102e5565b8060005b818110156127ec57612756848483818110612029576120296152d3565b838382818110612768576127686152d3565b90506040020160200160208101906127809190615598565b61278b57600061278e565b60015b60ff16600360008686858181106127a7576127a76152d3565b6127bd92602060409092020190810191506150d0565b73ffffffffffffffffffffffffffffffffffffffff168152602081019190915260400160002055600101612739565b507f530db3bf9b4b0c4f296fe1d9e21620b91db0a8bdcaca4cf1e6dc9844739405c1838360405161210c9291906155b5565b3360009081526002602052604090205460019081161480159061287e5750336128657fb53127684a568b3173ae13b9f8a6016e243e63b6e8ee1178d6a717850b5d61035490565b73ffffffffffffffffffffffffffffffffffffffff1614155b156128b9576040517fdcab82e200000000000000000000000000000000000000000000000000000000815261271360048201526024016102e5565b60005473ffffffffffffffffffffffffffffffffffffffff168061290d576040517fdcab82e200000000000000000000000000000000000000000000000000000000815261271b60048201526024016102e5565b8160005b81811015612bf45761294385858381811061292e5761292e6152d3565b9050602002016020810190611b7f91906150d0565b600073eeeeeeeeeeeeeeeeeeeeeeeeeeeeeeeeeeeeeeee86868481811061296c5761296c6152d3565b905060200201602081019061298191906150d0565b73ffffffffffffffffffffffffffffffffffffffff161490506000612b32600760008989878181106129b5576129b56152d3565b90506020020160208101906129ca91906150d0565b73ffffffffffffffffffffffffffffffffffffffff1673ffffffffffffffffffffffffffffffffffffffff16815260200190815260200160002054600560008a8a88818110612a1b57612a1b6152d3565b9050602002016020810190612a3091906150d0565b73ffffffffffffffffffffffffffffffffffffffff1673ffffffffffffffffffffffffffffffffffffffff1681526020019081526020016000205484612b2c57898987818110612a8257612a826152d3565b9050602002016020810190612a9791906150d0565b6040517f70a0823100000000000000000000000000000000000000000000000000000000815230600482015273ffffffffffffffffffffffffffffffffffffffff91909116906370a0823190602401602060405180830381865afa158015612b03573d6000803e3d6000fd5b505050506040513d601f19601f82011682018060405250810190612b279190615302565b614500565b47614500565b90508015612b80578115612b4f57612b4a8582614569565b612b80565b612b80878785818110612b6457612b646152d3565b9050602002016020810190612b7991906150d0565b86836146c8565b80878785818110612b9357612b936152d3565b9050602002016020810190612ba891906150d0565b73ffffffffffffffffffffffffffffffffffffffff167f7ded56fbc1e1a41c85fd5fb3d0ce91eafc72414b7f06ed356c1d921823d4c37c60405160405180910390a35050600101612911565b5050505050565b33600090815260026020526040902054600190811614801590612c5b575033612c427fb53127684a568b3173ae13b9f8a6016e243e63b6e8ee1178d6a717850b5d61035490565b73ffffffffffffffffffffffffffffffffffffffff1614155b15612c96576040517fdcab82e200000000000000000000000000000000000000000000000000000000815261271360048201526024016102e5565b8060005b81811015612d9e576001848483818110612cb657612cb66152d3565b905060400201602001351115612cfc576040517fdcab82e200000000000000000000000000000000000000000000000000000000815261271660048201526024016102e5565b612d27848483818110612d1157612d116152d3565b611b7f92602060409092020190810191506150d0565b838382818110612d3957612d396152d3565b9050604002016020013560046000868685818110612d5957612d596152d3565b612d6f92602060409092020190810191506150d0565b73ffffffffffffffffffffffffffffffffffffffff168152602081019190915260400160002055600101612c9a565b507f9ccbc3483d75ae36da94213ac30ac0a047e1226ef3435d004cd501608e5b388b838360405161210c9291906157f5565b33600090815260036020526040902054600190811614801590612e30575033612e177fb53127684a568b3173ae13b9f8a6016e243e63b6e8ee1178d6a717850b5d61035490565b73ffffffffffffffffffffffffffffffffffffffff1614155b15612e6b576040517fdcab82e200000000000000000000000000000000000000000000000000000000815261271460048201526024016102e5565b612e7485613859565b73ffffffffffffffffffffffffffffffffffffffff8516600090815260046020526040902054600103612ed7576040517fdcab82e200000000000000000000000000000000000000000000000000000000815261271760048201526024016102e5565b60008380156130695760005b8181101561306757612f0087878381811061292e5761292e6152d3565b73ffffffffffffffffffffffffffffffffffffffff8816600090815260086020526040812090888884818110612f3857612f386152d3565b9050602002016020810190612f4d91906150d0565b73ffffffffffffffffffffffffffffffffffffffff1673ffffffffffffffffffffffffffffffffffffffff16815260200190815260200160002054925082600003612fc8576040517fdcab82e200000000000000000000000000000000000000000000000000000000815261271960048201526024016102e5565b73ffffffffffffffffffffffffffffffffffffffff881660009081526008602052604081207f8000000000000000000000000000000000000000000000000000000000000000851791898985818110613023576130236152d3565b905060200201602081019061303891906150d0565b73ffffffffffffffffffffffffffffffffffffffff168152602081019190915260400160002055600101612ee3565b505b508180156131fa5760005b818110156131f85761309185858381811061292e5761292e6152d3565b73ffffffffffffffffffffffffffffffffffffffff88166000908152600960205260408120908686848181106130c9576130c96152d3565b90506020020160208101906130de91906150d0565b73ffffffffffffffffffffffffffffffffffffffff1673ffffffffffffffffffffffffffffffffffffffff16815260200190815260200160002054925082600003613159576040517fdcab82e200000000000000000000000000000000000000000000000000000000815261271960048201526024016102e5565b73ffffffffffffffffffffffffffffffffffffffff881660009081526009602052604081207f80000000000000000000000000000000000000000000000000000000000000008517918787858181106131b4576131b46152d3565b90506020020160208101906131c991906150d0565b73ffffffffffffffffffffffffffffffffffffffff168152602081019190915260400160002055600101613074565b505b7f6686e5bb0cc56cbc9aa2b434eb18009891bf411d6d3f961fdfe70be336ca45288787878787604051613231959493929190615895565b60405180910390a150505050505050565b336000908152600260205260409020546001908116148015906132a25750336132897fb53127684a568b3173ae13b9f8a6016e243e63b6e8ee1178d6a717850b5d61035490565b73ffffffffffffffffffffffffffffffffffffffff1614155b156132dd576040517fdcab82e200000000000000000000000000000000000000000000000000000000815261271360048201526024016102e5565b8015806132ea5750600281115b15613325576040517fdcab82e200000000000000000000000000000000000000000000000000000000815261271660048201526024016102e5565b600181905560405181907fb33384c8a450936b9fba178db857f03fb9865a40d166aa2f9d439a9fdddfbe2290600090a250565b336000908152600360205260409020546001908116148015906133b857503361339f7fb53127684a568b3173ae13b9f8a6016e243e63b6e8ee1178d6a717850b5d61035490565b73ffffffffffffffffffffffffffffffffffffffff1614155b156133f3576040517fdcab82e200000000000000000000000000000000000000000000000000000000815261271460048201526024016102e5565b6133fc85613859565b600083801561357e5760005b8181101561357c5761342587878381811061292e5761292e6152d3565b73ffffffffffffffffffffffffffffffffffffffff881660009081526008602052604081209088888481811061345d5761345d6152d3565b905060200201602081019061347291906150d0565b73ffffffffffffffffffffffffffffffffffffffff1681526020810191909152604001600020549250600160ff84901c146134dd576040517fdcab82e200000000000000000000000000000000000000000000000000000000815261271860048201526024016102e5565b73ffffffffffffffffffffffffffffffffffffffff881660009081526008602052604081207f7fffffffffffffffffffffffffffffffffffffffffffffffffffffffffffffff851691898985818110613538576135386152d3565b905060200201602081019061354d91906150d0565b73ffffffffffffffffffffffffffffffffffffffff168152602081019190915260400160002055600101613408565b505b508180156136ff5760005b818110156136fd576135a685858381811061292e5761292e6152d3565b73ffffffffffffffffffffffffffffffffffffffff88166000908152600960205260408120908686848181106135de576135de6152d3565b90506020020160208101906135f391906150d0565b73ffffffffffffffffffffffffffffffffffffffff1681526020810191909152604001600020549250600160ff84901c1461365e576040517fdcab82e200000000000000000000000000000000000000000000000000000000815261271860048201526024016102e5565b73ffffffffffffffffffffffffffffffffffffffff881660009081526009602052604081207f7fffffffffffffffffffffffffffffffffffffffffffffffffffffffffffffff8516918787858181106136b9576136b96152d3565b90506020020160208101906136ce91906150d0565b73ffffffffffffffffffffffffffffffffffffffff168152602081019190915260400160002055600101613589565b505b7facd30ef49b8fd1b51bbefff95071c5b0257180a7778c9c0fa4eb77a8842e290d8787878787604051613231959493929190615895565b606080828067ffffffffffffffff81111561375357613753614c5d565b60405190808252806020026020018201604052801561377c578160200160208202803683370190505b5092508067ffffffffffffffff81111561379857613798614c5d565b6040519080825280602002602001820160405280156137c1578160200160208202803683370190505b50915060005b81811015613850576137e486868381811061292e5761292e6152d3565b61380e8686838181106137f9576137f96152d3565b905060200201602081019061232e91906150d0565b858381518110613820576138206152d3565b60200260200101858481518110613839576138396152d3565b6020908102919091010191909152526001016137c7565b50509250929050565b73ffffffffffffffffffffffffffffffffffffffff81163b1580156138a8575073ffffffffffffffffffffffffffffffffffffffff811673eeeeeeeeeeeeeeeeeeeeeeeeeeeeeeeeeeeeeeee14155b156138e3576040517fdcab82e200000000000000000000000000000000000000000000000000000000815261272a60048201526024016102e5565b50565b600080856fffffffffffffffffffffffffffffffff8111156139095760809150811c5b67ffffffffffffffff811115613921576040918201911c5b63ffffffff811115613935576020918201911c5b61ffff811115613947576010918201911c5b60ff811115613958576008918201911c5b600f811115613969576004918201911c5b600381111561397a576002918201911c5b600181111561398a576001820191505b8015613997576001820191505b50848110156139a35750835b848103905085811c600082118416156139f257600181019050806001871b036139f257506001908101907fffffffffffffffffffffffffffffffffffffffffffffffffffffffffffffffff86011b5b6001851b8210613a0157600080fd5b90931b909201949350505050565b73ffffffffffffffffffffffffffffffffffffffff81166000908152600560205260408120548190613a4081613b51565b909350915067ffffffffffffffff831180613a62575067ffffffffffffffff82115b15613a9d576040517fdcab82e200000000000000000000000000000000000000000000000000000000815261272860048201526024016102e5565b73ffffffffffffffffffffffffffffffffffffffff8416600081815260056020526040908190207ffffffffff80000000000000000000000000000000000000003ffffffffffffff841642603a1b17605b87901b17609b86901b17905551839185917f96c40bed7fc8d0ac41633a3bd47f254f0b0076e5df70975c51d23514bc49d3b890613b439061ffff871690601e88901c613fff1690918252602082015260400190565b60405180910390a450915091565b67ffffffffffffffff605b82901c811690609b83901c16811580613b73575080155b15613baf576040517fd50d75120000000000000000000000000000000000000000000000000000000081526201117160048201526024016102e5565b61ffff8316603a84901c6401ffffffff16428181039160ea87901c617fff16911480613bd9575082155b80613be45750806001145b15613bf157505050915091565b64496cebb80084840283020484019350617fff60db87901c16925082600103613c1c57505050915091565b82600116600103613c715760019290921c91826c7e37be2022c0914b268000000081613c4a57613c4a61537a565b049250612710601e87901c613fff166b033b2e3c9fd0803ce8000000850102049250613c9e565b60019290921c916305f5e100601e87901c613fff166127108501026b033b2e3c9fd0803ce8000000020492505b80600116600103613cd55760011c61271081016b033b2e3c9fd0803ce8000000820281613ccd57613ccd61537a565b049050613d0b565b60011c61271081016b033b2e3c9fd0803ce8000000820281613cf957613cf961537a565b046b033b2e3c9fd0803ce80000000390505b760a70c3c40a64e6c51999090b65f67d92400000000000008382026127100261ffff881691900402601087901c613fff16612710030292506801b5a660ea44b8000085840283020485019450505050915091565b6000827fffffffffffffffffffffffffffffffffffffffffffffffffffffffffffffffff0484118302158202613d9457600080fd5b50910281810615159190040190565b73ffffffffffffffffffffffffffffffffffffffff81166000908152600560205260408120548190613dd481613b51565b73ffffffffffffffffffffffffffffffffffffffff861660009081526007602052604081205492955090935064e8d4a51000613e2286600885901c66ffffffffffffff1660ff86161b61534a565b613e2c91906153a9565b9050600064e8d4a51000613e5686608886901c66ffffffffffffff16608087901c60ff161b61534a565b613e6091906153a9565b9050600066ffffffffffffff604885901c1660ff604086901c161b9050600060c885901c60ff60c087901c161b9050600080851180613e9f5750600083115b15613ed257613eae83866153e4565b612710613ebb84876153e4565b613ec5919061534a565b613ecf91906153a9565b90505b82851115613efc57600185613ee96127108661534a565b613ef391906153a9565b901b9450613f3e565b82851015613f2957600183613f136127108861534a565b613f1d91906153a9565b901b6001179450613f3e565b8415613f3957614e209450613f3e565b600094505b81841115613f6857600184613f556127108561534a565b613f5f91906153a9565b901b9350613faa565b81841015613f9557600182613f7f6127108761534a565b613f8991906153a9565b901b6001179350613faa565b8315613fa557614e209350613faa565b600093505b73ffffffffffffffffffffffffffffffffffffffff8a16600090815260066020526040812054613fda9083614755565b905067ffffffffffffffff8a1180613ff9575067ffffffffffffffff89115b15614034576040517fdcab82e200000000000000000000000000000000000000000000000000000000815261272860048201526024016102e5565b613fff821115614074576040517fdcab82e200000000000000000000000000000000000000000000000000000000815261272960048201526024016102e5565b73ffffffffffffffffffffffffffffffffffffffff8b16600081815260056020526040908190207ffe000000000000000000000000000000000000000000000003fff0003fff00008b168417601e86901b1742603a1b17605b8e901b17609b8d901b1760db8a901b1760ea89901b179055518a918c917f96c40bed7fc8d0ac41633a3bd47f254f0b0076e5df70975c51d23514bc49d3b8906141229086908890918252602082015260400190565b60405180910390a45050505050505050915091565b73ffffffffffffffffffffffffffffffffffffffff81166138e3576040517fdcab82e200000000000000000000000000000000000000000000000000000000815261271160048201526024016102e5565b600061ffff826040015111156141ce576040517fdcab82e200000000000000000000000000000000000000000000000000000000815261271c60048201526024016102e5565b61ffff82606001511115614212576040517fdcab82e200000000000000000000000000000000000000000000000000000000815261271d60048201526024016102e5565b61ffff82608001511115614256576040517fdcab82e200000000000000000000000000000000000000000000000000000000815261271e60048201526024016102e5565b6020820151158061426d5750612710826020015110155b8061427f575081606001518260400151115b80614291575081608001518260600151115b156142cc576040517fdcab82e200000000000000000000000000000000000000000000000000000000815261271660048201526024016102e5565b60348260800151901b60248360600151901b60148460200151901b60048560400151901b6001171717179050919050565b600061ffff82606001511115614343576040517fdcab82e200000000000000000000000000000000000000000000000000000000815261271c60048201526024016102e5565b61ffff82608001511115614387576040517fdcab82e200000000000000000000000000000000000000000000000000000000815261271f60048201526024016102e5565b61ffff8260a0015111156143cb576040517fdcab82e200000000000000000000000000000000000000000000000000000000815261272060048201526024016102e5565b61ffff8260c00151111561440f576040517fdcab82e200000000000000000000000000000000000000000000000000000000815261272160048201526024016102e5565b602082015115806144265750612710826020015110155b8061443957508160400151826020015110155b8061444a5750612710826040015110155b8061445c575081608001518260600151115b8061446e57508160a001518260800151115b8061448057508160c001518260a00151115b156144bb576040517fdcab82e200000000000000000000000000000000000000000000000000000000815261271660048201526024016102e5565b60548260c00151901b60448360a00151901b60348460400151901b60248560800151901b60148660200151901b60048760600151901b60021717171717179050919050565b600080600061450e85613b51565b91509150600061451e87846147fe565b9050801561455b576145308783614851565b61453a90866153e4565b935080841161454a576000614554565b6145548185615367565b935061455f565b8493505b5050509392505050565b804710156145d3576040517f08c379a000000000000000000000000000000000000000000000000000000000815260206004820152601d60248201527f416464726573733a20696e73756666696369656e742062616c616e636500000060448201526064016102e5565b60008273ffffffffffffffffffffffffffffffffffffffff168260405160006040518083038185875af1925050503d806000811461462d576040519150601f19603f3d011682016040523d82523d6000602084013e614632565b606091505b50509050806146c3576040517f08c379a000000000000000000000000000000000000000000000000000000000815260206004820152603a60248201527f416464726573733a20756e61626c6520746f2073656e642076616c75652c207260448201527f6563697069656e74206d6179206861766520726576657274656400000000000060648201526084016102e5565b505050565b6040805173ffffffffffffffffffffffffffffffffffffffff8416602482015260448082018490528251808303909101815260649091019091526020810180517bffffffffffffffffffffffffffffffffffffffffffffffffffffffff167fa9059cbb000000000000000000000000000000000000000000000000000000001790526146c390849061488b565b6000600f831660018190036147755761476e8484614997565b91506147be565b806002036147875761476e8484614a44565b6040517fd50d75120000000000000000000000000000000000000000000000000000000081526201117260048201526024016102e5565b61ffff8211156147f75760405161ffff92507fe41708b2641eb1f7442f6a1e760ae5098fd7ba9f85e0c101513add0fbb27bcd790600090a15b5092915050565b66ffffffffffffff604883901c811660ff604085901c81169190911b91600885901c169084161b64e8d4a51000614835848361534a565b61483f91906153a9565b61484990836153e4565b949350505050565b60c882901c60ff60c084901c81169190911b9066ffffffffffffff608885901c16608085901c9091161b64e8d4a51000614835848361534a565b60006148ed826040518060400160405280602081526020017f5361666545524332303a206c6f772d6c6576656c2063616c6c206661696c65648152508573ffffffffffffffffffffffffffffffffffffffff16614aec9092919063ffffffff16565b8051909150156146c3578080602001905181019061490b91906158e4565b6146c3576040517f08c379a000000000000000000000000000000000000000000000000000000000815260206004820152602a60248201527f5361666545524332303a204552433230206f7065726174696f6e20646964206e60448201527f6f7420737563636565640000000000000000000000000000000000000000000060648201526084016102e5565b600080808080601487901c61ffff16808710156149d05761ffff600489901c16945061ffff602489901c169350600092508091506149ef565b61ffff602489901c16945061ffff603489901c16935080925061271091505b60008084840364e8d4a510008888030281614a0c57614a0c61537a565b04905084810264e8d4a51000880203915064e8d4a51000828a83020181614a3557614a3561537a565b049a9950505050505050505050565b600080808080601487901c61ffff1680871015614a7d5761ffff600489901c16945061ffff602489901c169350600092508091506149ef565b603488901c61ffff1680881015614aaf5761ffff60248a901c16955061ffff60448a901c169450819350809250614ace565b61ffff60448a901c16955061ffff60548a901c16945080935061271092505b5060008084840364e8d4a510008888030281614a0c57614a0c61537a565b60606148498484600085856000808673ffffffffffffffffffffffffffffffffffffffff168587604051614b209190615925565b60006040518083038185875af1925050503d8060008114614b5d576040519150601f19603f3d011682016040523d82523d6000602084013e614b62565b606091505b5091509150614b7387838387614b7e565b979650505050505050565b60608315614c14578251600003614c0d5773ffffffffffffffffffffffffffffffffffffffff85163b614c0d576040517f08c379a000000000000000000000000000000000000000000000000000000000815260206004820152601d60248201527f416464726573733a2063616c6c20746f206e6f6e2d636f6e747261637400000060448201526064016102e5565b5081614849565b6148498383815115614c295781518083602001fd5b806040517f08c379a00000000000000000000000000000000000000000000000000000000081526004016102e59190615941565b7f4e487b7100000000000000000000000000000000000000000000000000000000600052604160045260246000fd5b60405160e0810167ffffffffffffffff81118282101715614caf57614caf614c5d565b60405290565b60405160c0810167ffffffffffffffff81118282101715614caf57614caf614c5d565b604051601f82017fffffffffffffffffffffffffffffffffffffffffffffffffffffffffffffffe016810167ffffffffffffffff81118282101715614d1f57614d1f614c5d565b604052919050565b600067ffffffffffffffff821115614d4157614d41614c5d565b5060051b60200190565b803573ffffffffffffffffffffffffffffffffffffffff81168114614d6f57600080fd5b919050565b803560ff81168114614d6f57600080fd5b60006020808385031215614d9857600080fd5b823567ffffffffffffffff811115614daf57600080fd5b8301601f81018513614dc057600080fd5b8035614dd3614dce82614d27565b614cd8565b81815260e09182028301840191848201919088841115614df257600080fd5b938501935b83851015614e795780858a031215614e0f5760008081fd5b614e17614c8c565b614e2086614d4b565b8152614e2d878701614d4b565b878201526040614e3e818801614d74565b90820152606086810135908201526080808701359082015260a0808701359082015260c0808701359082015283529384019391850191614df7565b50979650505050505050565b60006020808385031215614e9857600080fd5b823567ffffffffffffffff811115614eaf57600080fd5b8301601f81018513614ec057600080fd5b8035614ece614dce82614d27565b81815260c09182028301840191848201919088841115614eed57600080fd5b938501935b83851015614e795780858a031215614f0a5760008081fd5b614f12614cb5565b614f1b86614d4b565b8152614f28878701614d4b565b878201526040614f39818801614d74565b90820152606086810135908201526080808701359082015260a0808701359082015283529384019391850191614ef2565b60008060208385031215614f7d57600080fd5b823567ffffffffffffffff80821115614f9557600080fd5b818501915085601f830112614fa957600080fd5b813581811115614fb857600080fd5b866020606083028501011115614fcd57600080fd5b60209290920196919550909350505050565b60008083601f840112614ff157600080fd5b50813567ffffffffffffffff81111561500957600080fd5b6020830191508360208260061b850101111561502457600080fd5b9250929050565b6000806020838503121561503e57600080fd5b823567ffffffffffffffff81111561505557600080fd5b61506185828601614fdf565b90969095509350505050565b6000806020838503121561508057600080fd5b823567ffffffffffffffff8082111561509857600080fd5b818501915085601f8301126150ac57600080fd5b8135818111156150bb57600080fd5b86602060a083028501011115614fcd57600080fd5b6000602082840312156150e257600080fd5b6150eb82614d4b565b9392505050565b6000806020838503121561510557600080fd5b823567ffffffffffffffff8082111561511d57600080fd5b818501915085601f83011261513157600080fd5b81358181111561514057600080fd5b86602060e083028501011115614fcd57600080fd5b60008083601f84011261516757600080fd5b50813567ffffffffffffffff81111561517f57600080fd5b6020830191508360208260051b850101111561502457600080fd5b600080602083850312156151ad57600080fd5b823567ffffffffffffffff8111156151c457600080fd5b61506185828601615155565b6000806000806000606086880312156151e857600080fd5b6151f186614d4b565b9450602086013567ffffffffffffffff8082111561520e57600080fd5b61521a89838a01615155565b9096509450604088013591508082111561523357600080fd5b5061524088828901615155565b969995985093965092949392505050565b60006020828403121561526357600080fd5b5035919050565b600081518084526020808501945080840160005b8381101561529a5781518752958201959082019060010161527e565b509495945050505050565b6040815260006152b8604083018561526a565b82810360208401526152ca818561526a565b95945050505050565b7f4e487b7100000000000000000000000000000000000000000000000000000000600052603260045260246000fd5b60006020828403121561531457600080fd5b5051919050565b7f4e487b7100000000000000000000000000000000000000000000000000000000600052601160045260246000fd5b80820281158282048414176153615761536161531b565b92915050565b818103818111156153615761536161531b565b7f4e487b7100000000000000000000000000000000000000000000000000000000600052601260045260246000fd5b6000826153df577f4e487b7100000000000000000000000000000000000000000000000000000000600052601260045260246000fd5b500490565b808201808211156153615761536161531b565b602080825282518282018190526000919060409081850190868401855b82811015615488578151805173ffffffffffffffffffffffffffffffffffffffff90811686528782015116878601528581015160ff1686860152606080820151908601526080808201519086015260a0808201519086015260c0908101519085015260e09093019290850190600101615414565b5091979650505050505050565b602080825282518282018190526000919060409081850190868401855b82811015615488578151805173ffffffffffffffffffffffffffffffffffffffff90811686528782015116878601528581015160ff1686860152606080820151908601526080808201519086015260a0908101519085015260c090930192908501906001016154b2565b6020808252818101839052600090604080840186845b8781101561557d5773ffffffffffffffffffffffffffffffffffffffff61555883614d4b565b1683528185013585840152838201358484015260609283019290910190600101615532565b5090979650505050505050565b80151581146138e357600080fd5b6000602082840312156155aa57600080fd5b81356150eb8161558a565b6020808252818101839052600090604080840186845b8781101561557d5773ffffffffffffffffffffffffffffffffffffffff6155f183614d4b565b168352848201356156018161558a565b15158386015291830191908301906001016155cb565b600060a0828403121561562957600080fd5b60405160a0810181811067ffffffffffffffff8211171561564c5761564c614c5d565b60405261565883614d4b565b8152602083013560208201526040830135604082015260608301356060820152608083013560808201528091505092915050565b6020808252818101839052600090604080840186845b8781101561557d5773ffffffffffffffffffffffffffffffffffffffff6156c883614d4b565b16835281850135858401528382013584840152606080830135908401526080808301359084015260a092830192909101906001016156a2565b600060e0828403121561571357600080fd5b61571b614c8c565b61572483614d4b565b81526020830135602082015260408301356040820152606083013560608201526080830135608082015260a083013560a082015260c083013560c08201528091505092915050565b6020808252818101839052600090604080840186845b8781101561557d5773ffffffffffffffffffffffffffffffffffffffff6157a883614d4b565b16835281850135858401528382013584840152606080830135908401526080808301359084015260a0808301359084015260c0808301359084015260e09283019290910190600101615782565b6020808252818101839052600090604080840186845b8781101561557d5773ffffffffffffffffffffffffffffffffffffffff61583183614d4b565b1683528185013585840152918301919083019060010161580b565b8183526000602080850194508260005b8581101561529a5773ffffffffffffffffffffffffffffffffffffffff61588283614d4b565b168752958201959082019060010161585c565b73ffffffffffffffffffffffffffffffffffffffff861681526060602082015260006158c560608301868861584c565b82810360408401526158d881858761584c565b98975050505050505050565b6000602082840312156158f657600080fd5b81516150eb8161558a565b60005b8381101561591c578181015183820152602001615904565b50506000910152565b60008251615937818460208701615901565b9190910192915050565b6020815260008251806020840152615960816040850160208701615901565b601f017fffffffffffffffffffffffffffffffffffffffffffffffffffffffffffffffe016919091016040019291505056fea2646970667358221220bcdd9c1027d944de97820e868470e33bf2b03600b59489e5bbf9bfdc33b765dc64736f6c63430008150033",
  "devdoc": {
    "kind": "dev",
    "methods": {
      "changeStatus(uint256)": {
        "params": {
          "newStatus_": "new status        status = 2 -> pause, status = 1 -> resume."
        }
      },
      "collectRevenue(address[])": {
        "details": "Note that this can revert if token balance is < revenueAmount (utilization > 100%)",
        "params": {
          "tokens_": "array of tokens to collect revenue for"
        }
      },
      "pauseUser(address,address[],address[])": {
        "params": {
          "borrowTokens_": "token addresses to pause borrowings for",
          "supplyTokens_": "token addresses to pause withdrawals for",
          "user_": "address of user to pause operations for"
        }
      },
      "unpauseUser(address,address[],address[])": {
        "params": {
          "borrowTokens_": "token addresses to unpause borrowings for",
          "supplyTokens_": "token addresses to unpause withdrawals for",
          "user_": "address of user to unpause operations for"
        }
      },
      "updateAuths((address,bool)[])": {
        "params": {
          "authsStatus_": "array of structs setting allowed status for an address.                     status true => add auth, false => remove auth"
        }
      },
      "updateExchangePrices(address[])": {
        "params": {
          "tokens_": "tokens to update exchange prices for"
        },
        "returns": {
          "borrowExchangePrices_": "new borrow rates of overall system for each token",
          "supplyExchangePrices_": "new supply rates of overall system for each token"
        }
      },
      "updateGuardians((address,bool)[])": {
        "params": {
          "guardiansStatus_": "array of structs setting allowed status for an address.                         status true => add guardian, false => remove guardian"
        }
      },
      "updateRateDataV1s((address,uint256,uint256,uint256,uint256)[])": {
        "params": {
          "tokensRateData_": "array of RateDataV1Params with rate data to set for each token"
        }
      },
      "updateRateDataV2s((address,uint256,uint256,uint256,uint256,uint256,uint256)[])": {
        "params": {
          "tokensRateData_": "array of RateDataV2Params with rate data to set for each token"
        }
      },
      "updateRevenueCollector(address)": {
        "params": {
          "revenueCollector_": "new revenue collector address"
        }
      },
      "updateTokenConfigs((address,uint256,uint256)[])": {
        "params": {
          "tokenConfigs_": "contains token address, fee & utilization threshold"
        }
      },
      "updateUserBorrowConfigs((address,address,uint8,uint256,uint256,uint256,uint256)[])": {
        "params": {
          "userBorrowConfigs_": "struct array containing user borrow config, see `UserBorrowConfig` struct for more info"
        }
      },
      "updateUserClasses((address,uint256)[])": {
        "params": {
          "userClasses_": "struct array of uint256 value to assign for each user address"
        }
      },
      "updateUserSupplyConfigs((address,address,uint8,uint256,uint256,uint256)[])": {
        "params": {
          "userSupplyConfigs_": "struct array containing user supply config, see `UserSupplyConfig` struct for more info"
        }
      }
    },
    "title": "Fluid Liquidity AdminModule",
    "version": 1
  },
  "userdoc": {
    "events": {
      "BorrowRateMaxCap()": {
        "notice": "emitted if the calculated borrow rate surpassed max borrow rate (16 bits) and was capped at maximum value 65535"
      },
      "LogChangeStatus(uint256)": {
        "notice": "emitted when status is changed (paused / unpaused)"
      },
      "LogCollectRevenue(address,uint256)": {
        "notice": "emitted when revenue is collected"
      },
      "LogPauseUser(address,address[],address[])": {
        "notice": "emitted when a user gets certain tokens paused"
      },
      "LogUnpauseUser(address,address[],address[])": {
        "notice": "emitted when a user gets certain tokens unpaused"
      },
      "LogUpdateAuths((address,bool)[])": {
        "notice": "emitted when allowed auths are updated"
      },
      "LogUpdateExchangePrices(address,uint256,uint256,uint256,uint256)": {
        "notice": "emitted when exchange prices and borrow rate are updated"
      },
      "LogUpdateGuardians((address,bool)[])": {
        "notice": "emitted when allowed guardians are updated"
      },
      "LogUpdateRateDataV1s((address,uint256,uint256,uint256,uint256)[])": {
        "notice": "emitted when token rate data is updated with rate data v1"
      },
      "LogUpdateRateDataV2s((address,uint256,uint256,uint256,uint256,uint256,uint256)[])": {
        "notice": "emitted when token rate data is updated with rate data v2"
      },
      "LogUpdateRevenueCollector(address)": {
        "notice": "emitted when revenue collector address is updated"
      },
      "LogUpdateTokenConfigs((address,uint256,uint256)[])": {
        "notice": "emitted when token configs are updated"
      },
      "LogUpdateUserBorrowConfigs((address,address,uint8,uint256,uint256,uint256,uint256)[])": {
        "notice": "emitted when user borrow configs are updated"
      },
      "LogUpdateUserClasses((address,uint256)[])": {
        "notice": "emitted when user classes are updated"
      },
      "LogUpdateUserSupplyConfigs((address,address,uint8,uint256,uint256,uint256)[])": {
        "notice": "emitted when user supply configs are updated"
      }
    },
    "kind": "user",
    "methods": {
      "changeStatus(uint256)": {
        "notice": "changes current status, e.g. for pausing or unpausing all user operations. Only callable by Auths."
      },
      "collectRevenue(address[])": {
        "notice": "collects revenue for tokens to configured revenueCollector address."
      },
      "pauseUser(address,address[],address[])": {
        "notice": "pause operations for a particular user in class 0 (class 1 users can't be paused by guardians). Only callable by Guardians."
      },
      "unpauseUser(address,address[],address[])": {
        "notice": "unpause operations for a particular user in class 0 (class 1 users can't be paused by guardians). Only callable by Guardians."
      },
      "updateAuths((address,bool)[])": {
        "notice": "adds/removes auths. Auths generally could be contracts which can have restricted actions defined on contract.         auths can be helpful in reducing governance overhead where it's not needed."
      },
      "updateExchangePrices(address[])": {
        "notice": "gets the current updated exchange prices for n tokens and updates all prices, rates related data in storage."
      },
      "updateGuardians((address,bool)[])": {
        "notice": "adds/removes guardians. Only callable by Governance."
      },
      "updateRateDataV1s((address,uint256,uint256,uint256,uint256)[])": {
        "notice": "update tokens rate data version 1. Only callable by Auths."
      },
      "updateRateDataV2s((address,uint256,uint256,uint256,uint256,uint256,uint256)[])": {
        "notice": "update tokens rate data version 2. Only callable by Auths."
      },
      "updateRevenueCollector(address)": {
        "notice": "changes the revenue collector address (contract that is sent revenue). Only callable by Governance."
      },
      "updateTokenConfigs((address,uint256,uint256)[])": {
        "notice": "updates token configs: fee charge on borrowers interest & storage update utilization threshold.         Only callable by Auths."
      },
      "updateUserBorrowConfigs((address,address,uint8,uint256,uint256,uint256,uint256)[])": {
        "notice": "setting user borrow configs per token basis. Eg: with interest or interest-free and automated limits.         Only callable by Auths."
      },
      "updateUserClasses((address,uint256)[])": {
        "notice": "updates user classes: 0 is for new protocols, 1 is for established protocols.         Only callable by Auths."
      },
      "updateUserSupplyConfigs((address,address,uint8,uint256,uint256,uint256)[])": {
        "notice": "sets user supply configs per token basis. Eg: with interest or interest-free and automated limits.         Only callable by Auths."
      }
    },
    "notice": "Fluid Liquidity auth protected methods to configure things such as: guardians, auths, governance, revenue, token configs, allowances etc. Accessibility of methods is restricted to Governance, Auths or Guardians. Governance is Auth & Governance by default",
    "version": 1
  },
  "storageLayout": {
    "storage": [
      {
        "astId": 13396,
        "contract": "contracts/liquidity/adminModule/main.sol:FluidLiquidityAdminModule",
        "label": "_revenueCollector",
        "offset": 0,
        "slot": "0",
        "type": "t_address"
      },
      {
        "astId": 13399,
        "contract": "contracts/liquidity/adminModule/main.sol:FluidLiquidityAdminModule",
        "label": "_status",
        "offset": 0,
        "slot": "1",
        "type": "t_uint256"
      },
      {
        "astId": 13404,
        "contract": "contracts/liquidity/adminModule/main.sol:FluidLiquidityAdminModule",
        "label": "_isAuth",
        "offset": 0,
        "slot": "2",
        "type": "t_mapping(t_address,t_uint256)"
      },
      {
        "astId": 13409,
        "contract": "contracts/liquidity/adminModule/main.sol:FluidLiquidityAdminModule",
        "label": "_isGuardian",
        "offset": 0,
        "slot": "3",
        "type": "t_mapping(t_address,t_uint256)"
      },
      {
        "astId": 13414,
        "contract": "contracts/liquidity/adminModule/main.sol:FluidLiquidityAdminModule",
        "label": "_userClass",
        "offset": 0,
        "slot": "4",
        "type": "t_mapping(t_address,t_uint256)"
      },
      {
        "astId": 13419,
        "contract": "contracts/liquidity/adminModule/main.sol:FluidLiquidityAdminModule",
        "label": "_exchangePricesAndConfig",
        "offset": 0,
        "slot": "5",
        "type": "t_mapping(t_address,t_uint256)"
      },
      {
        "astId": 13424,
        "contract": "contracts/liquidity/adminModule/main.sol:FluidLiquidityAdminModule",
        "label": "_rateData",
        "offset": 0,
        "slot": "6",
        "type": "t_mapping(t_address,t_uint256)"
      },
      {
        "astId": 13429,
        "contract": "contracts/liquidity/adminModule/main.sol:FluidLiquidityAdminModule",
        "label": "_totalAmounts",
        "offset": 0,
        "slot": "7",
        "type": "t_mapping(t_address,t_uint256)"
      },
      {
        "astId": 13436,
        "contract": "contracts/liquidity/adminModule/main.sol:FluidLiquidityAdminModule",
        "label": "_userSupplyData",
        "offset": 0,
        "slot": "8",
        "type": "t_mapping(t_address,t_mapping(t_address,t_uint256))"
      },
      {
        "astId": 13443,
        "contract": "contracts/liquidity/adminModule/main.sol:FluidLiquidityAdminModule",
        "label": "_userBorrowData",
        "offset": 0,
        "slot": "9",
        "type": "t_mapping(t_address,t_mapping(t_address,t_uint256))"
      },
      {
        "astId": 13447,
        "contract": "contracts/liquidity/adminModule/main.sol:FluidLiquidityAdminModule",
        "label": "_listedTokens",
        "offset": 0,
        "slot": "10",
        "type": "t_array(t_address)dyn_storage"
      }
    ],
    "types": {
      "t_address": {
        "encoding": "inplace",
        "label": "address",
        "numberOfBytes": "20"
      },
      "t_array(t_address)dyn_storage": {
        "base": "t_address",
        "encoding": "dynamic_array",
        "label": "address[]",
        "numberOfBytes": "32"
      },
      "t_mapping(t_address,t_mapping(t_address,t_uint256))": {
        "encoding": "mapping",
        "key": "t_address",
        "label": "mapping(address => mapping(address => uint256))",
        "numberOfBytes": "32",
        "value": "t_mapping(t_address,t_uint256)"
      },
      "t_mapping(t_address,t_uint256)": {
        "encoding": "mapping",
        "key": "t_address",
        "label": "mapping(address => uint256)",
        "numberOfBytes": "32",
        "value": "t_uint256"
      },
      "t_uint256": {
        "encoding": "inplace",
        "label": "uint256",
        "numberOfBytes": "32"
      }
    }
  }
}