{
  "address": "0x1D1130e8C310484ff2C0708b4E7CF1B07B038873",
  "abi": [
    {
      "inputs": [
        {
          "internalType": "string",
          "name": "infoName_",
          "type": "string"
        },
        {
          "internalType": "contract IWstETH",
          "name": "wstETH_",
          "type": "address"
        },
        {
          "internalType": "contract IWeETHsAccountant",
          "name": "weETHsAccountant_",
          "type": "address"
        },
        {
          "internalType": "address",
          "name": "weETHs_",
          "type": "address"
        }
      ],
      "stateMutability": "nonpayable",
      "type": "constructor"
    },
    {
      "inputs": [
        {
          "internalType": "uint256",
          "name": "errorId_",
          "type": "uint256"
        }
      ],
      "name": "FluidOracleError",
      "type": "error"
    },
    {
      "inputs": [],
      "name": "getExchangeRate",
      "outputs": [
        {
          "internalType": "uint256",
          "name": "exchangeRate_",
          "type": "uint256"
        }
      ],
      "stateMutability": "view",
      "type": "function"
    },
    {
      "inputs": [],
      "name": "getExchangeRateLiquidate",
      "outputs": [
        {
          "internalType": "uint256",
          "name": "exchangeRate_",
          "type": "uint256"
        }
      ],
      "stateMutability": "view",
      "type": "function"
    },
    {
      "inputs": [],
      "name": "getExchangeRateOperate",
      "outputs": [
        {
          "internalType": "uint256",
          "name": "exchangeRate_",
          "type": "uint256"
        }
      ],
      "stateMutability": "view",
      "type": "function"
    },
    {
      "inputs": [],
      "name": "infoName",
      "outputs": [
        {
          "internalType": "string",
          "name": "",
          "type": "string"
        }
      ],
      "stateMutability": "view",
      "type": "function"
    },
    {
      "inputs": [],
      "name": "weETHsOracleData",
      "outputs": [
        {
          "internalType": "uint256",
          "name": "weETHsExchangeRateOperate_",
          "type": "uint256"
        },
        {
          "internalType": "bool",
          "name": "operateRateReverts_",
          "type": "bool"
        },
        {
          "internalType": "uint256",
          "name": "weETHsExchangeRateLiquidate_",
          "type": "uint256"
        },
        {
          "internalType": "contract IWeETHsAccountant",
          "name": "weETHsAccountant_",
          "type": "address"
        }
      ],
      "stateMutability": "view",
      "type": "function"
    },
    {
      "inputs": [],
      "name": "wstETHOracleData",
      "outputs": [
        {
          "internalType": "uint256",
          "name": "wstETHExchangeRate_",
          "type": "uint256"
        },
        {
          "internalType": "contract IWstETH",
          "name": "wstETH_",
          "type": "address"
        }
      ],
      "stateMutability": "view",
      "type": "function"
    }
  ],
  "transactionHash": "0xc5664fb74848cb70b169e58f97e6cfa9e935095ceed626a89b103249a86c9bc0",
  "args": [
    "wstETH for 1 weETHs",
    "0x7f39C581F595B53c5cb19bD0b3f8dA6c935E2Ca0",
    "0xbe16605B22a7faCEf247363312121670DFe5afBE",
    "0x917ceE801a67f933F2e6b33fC0cD1ED2d5909D88"
  ],
  "numDeployments": 1,
  "solcInputHash": "90f22bd58fae884fe3a462e92e88f529",
  "bytecode": "0x6101206040523480156200001257600080fd5b5060405162000ffb38038062000ffb833981016040819052620000359162000214565b818184866020815111806200004957508051155b15620000715760405163c82fc46560e01b815261ea6a60048201526024015b60405180910390fd5b602001516080526001600160a01b038116620000a55760405163c82fc46560e01b815261f619600482015260240162000068565b6001600160a01b03811660c052620000c06012601b62000337565b620000cd90600a62000450565b60a052506001600160a01b038216620000fe5760405163c82fc46560e01b815261eba1600482015260240162000068565b806001600160a01b0316826001600160a01b031663fbfa77cf6040518163ffffffff1660e01b8152600401602060405180830381865afa15801562000147573d6000803e3d6000fd5b505050506040513d601f19601f820116820180604052508101906200016d919062000465565b6001600160a01b0316146200019a5760405163c82fc46560e01b815261eba1600482015260240162000068565b6001600160a01b03821661010052620001b66012601b62000337565b620001c390600a62000450565b60e0525062000485945050505050565b634e487b7160e01b600052604160045260246000fd5b6001600160a01b0381168114620001ff57600080fd5b50565b80516200020f81620001e9565b919050565b600080600080608085870312156200022b57600080fd5b84516001600160401b03808211156200024357600080fd5b818701915087601f8301126200025857600080fd5b8151818111156200026d576200026d620001d3565b604051601f8201601f19908116603f01168101908382118183101715620002985762000298620001d3565b81604052828152602093508a84848701011115620002b557600080fd5b600091505b82821015620002d95784820184015181830185015290830190620002ba565b6000848483010152809850505050620002f481880162000202565b94505050620003066040860162000202565b9150620003166060860162000202565b905092959194509250565b634e487b7160e01b600052601160045260246000fd5b818103818111156200034d576200034d62000321565b92915050565b600181815b808511156200039457816000190482111562000378576200037862000321565b808516156200038657918102915b93841c939080029062000358565b509250929050565b600082620003ad575060016200034d565b81620003bc575060006200034d565b8160018114620003d55760028114620003e05762000400565b60019150506200034d565b60ff841115620003f457620003f462000321565b50506001821b6200034d565b5060208310610133831016604e8410600b841016171562000425575081810a6200034d565b62000431838362000353565b806000190482111562000448576200044862000321565b029392505050565b60006200045e83836200039c565b9392505050565b6000602082840312156200047857600080fd5b81516200045e81620001e9565b60805160a05160c05160e05161010051610aeb620005106000396000818161012f015281816101ee015281816102bc015281816105a30152818161063101526106ed01526000818161061001526106cc015260008181610221015281816104d501528181610508015261077b0152600061075a01526000818161037401526104390152610aeb6000f3fe608060405234801561001057600080fd5b50600436106100725760003560e01c8063dfaba9b511610050578063dfaba9b5146100e5578063e6aa216c14610117578063f3190c891461011f57600080fd5b806359ffabbc146100775780638e7bfbc0146100ba578063abd5f95d146100d0575b600080fd5b61007f610127565b6040805194855292151560208501529183015273ffffffffffffffffffffffffffffffffffffffff1660608201526080015b60405180910390f35b6100c261021d565b6040519081526020016100b1565b6100d8610362565b6040516100b191906107e4565b6100ed6104c7565b6040805192835273ffffffffffffffffffffffffffffffffffffffff9091166020830152016100b1565b6100c26104fa565b6100c2610504565b6000806000807f000000000000000000000000000000000000000000000000000000000000000073ffffffffffffffffffffffffffffffffffffffff1663282a87006040518163ffffffff1660e01b8152600401602060405180830381865afa9250505080156101d2575060408051601f3d9081017fffffffffffffffffffffffffffffffffffffffffffffffffffffffffffffffe01682019092526101cf91810190610850565b60015b6101df57600192506101eb565b6101e761060c565b9450505b507f00000000000000000000000000000000000000000000000000000000000000006102156106c8565b915090919293565b60007f000000000000000000000000000000000000000000000000000000000000000073ffffffffffffffffffffffffffffffffffffffff1663035faf826040518163ffffffff1660e01b8152600401602060405180830381865afa15801561028a573d6000803e3d6000fd5b505050506040513d601f19601f820116820180604052508101906102ae9190610850565b6102ba601b600a6109ba565b7f000000000000000000000000000000000000000000000000000000000000000073ffffffffffffffffffffffffffffffffffffffff1663282a87006040518163ffffffff1660e01b8152600401602060405180830381865afa158015610325573d6000803e3d6000fd5b505050506040513d601f19601f820116820180604052508101906103499190610850565b61035391906109cd565b61035d91906109e4565b905090565b606060005b6020811080156103cd57507f000000000000000000000000000000000000000000000000000000000000000081602081106103a4576103a4610a1f565b1a60f81b7fff000000000000000000000000000000000000000000000000000000000000001615155b156103e457806103dc81610a4e565b915050610367565b60008167ffffffffffffffff8111156103ff576103ff610a86565b6040519080825280601f01601f191660200182016040528015610429576020820181803683370190505b50905060005b828110156104c0577f0000000000000000000000000000000000000000000000000000000000000000816020811061046957610469610a1f565b1a60f81b82828151811061047f5761047f610a1f565b60200101907effffffffffffffffffffffffffffffffffffffffffffffffffffffffffffff1916908160001a905350806104b881610a4e565b91505061042f565b5092915050565b6000806104d2610756565b927f000000000000000000000000000000000000000000000000000000000000000092509050565b600061035d61021d565b60007f000000000000000000000000000000000000000000000000000000000000000073ffffffffffffffffffffffffffffffffffffffff1663035faf826040518163ffffffff1660e01b8152600401602060405180830381865afa158015610571573d6000803e3d6000fd5b505050506040513d601f19601f820116820180604052508101906105959190610850565b6105a1601b600a6109ba565b7f000000000000000000000000000000000000000000000000000000000000000073ffffffffffffffffffffffffffffffffffffffff1663679aefce6040518163ffffffff1660e01b8152600401602060405180830381865afa158015610325573d6000803e3d6000fd5b60007f00000000000000000000000000000000000000000000000000000000000000007f000000000000000000000000000000000000000000000000000000000000000073ffffffffffffffffffffffffffffffffffffffff1663282a87006040518163ffffffff1660e01b8152600401602060405180830381865afa15801561069a573d6000803e3d6000fd5b505050506040513d601f19601f820116820180604052508101906106be9190610850565b61035d91906109cd565b60007f00000000000000000000000000000000000000000000000000000000000000007f000000000000000000000000000000000000000000000000000000000000000073ffffffffffffffffffffffffffffffffffffffff1663679aefce6040518163ffffffff1660e01b8152600401602060405180830381865afa15801561069a573d6000803e3d6000fd5b60007f00000000000000000000000000000000000000000000000000000000000000007f000000000000000000000000000000000000000000000000000000000000000073ffffffffffffffffffffffffffffffffffffffff1663035faf826040518163ffffffff1660e01b8152600401602060405180830381865afa15801561069a573d6000803e3d6000fd5b600060208083528351808285015260005b81811015610811578581018301518582016040015282016107f5565b5060006040828601015260407fffffffffffffffffffffffffffffffffffffffffffffffffffffffffffffffe0601f8301168501019250505092915050565b60006020828403121561086257600080fd5b5051919050565b7f4e487b7100000000000000000000000000000000000000000000000000000000600052601160045260246000fd5b600181815b808511156108f157817fffffffffffffffffffffffffffffffffffffffffffffffffffffffffffffffff048211156108d7576108d7610869565b808516156108e457918102915b93841c939080029061089d565b509250929050565b600082610908575060016109b4565b81610915575060006109b4565b816001811461092b576002811461093557610951565b60019150506109b4565b60ff84111561094657610946610869565b50506001821b6109b4565b5060208310610133831016604e8410600b8410161715610974575081810a6109b4565b61097e8383610898565b807fffffffffffffffffffffffffffffffffffffffffffffffffffffffffffffffff048211156109b0576109b0610869565b0290505b92915050565b60006109c683836108f9565b9392505050565b80820281158282048414176109b4576109b4610869565b600082610a1a577f4e487b7100000000000000000000000000000000000000000000000000000000600052601260045260246000fd5b500490565b7f4e487b7100000000000000000000000000000000000000000000000000000000600052603260045260246000fd5b60007fffffffffffffffffffffffffffffffffffffffffffffffffffffffffffffffff8203610a7f57610a7f610869565b5060010190565b7f4e487b7100000000000000000000000000000000000000000000000000000000600052604160045260246000fdfea26469706673582212204fbb267aa6e667334ea45c719e660a973254c9b439ada060ba7661af5f8ec5d864736f6c63430008150033",
  "devdoc": {
    "kind": "dev",
    "methods": {
      "constructor": {
        "params": {
          "infoName_": "Oracle identify helper name.",
          "weETHsAccountant_": "address of the weETHs accountant contract",
          "weETHs_": "address of the weETHs token vault contract",
          "wstETH_": "address of the wstETH contract"
        }
      },
      "getExchangeRate()": {
        "details": "Deprecated. Use `getExchangeRateOperate()` and `getExchangeRateLiquidate()` instead. Only implemented for      backwards compatibility."
      }
    },
    "title": "Oracle for weETHs (Symbiotic Etherfi's wrapped eETH) to wstETH.          wstETH is the debt token here (get amount of wstETH for 1 weETHs)",
    "version": 1
  },
  "userdoc": {
    "kind": "user",
    "methods": {
      "getExchangeRateLiquidate()": {
        "notice": "Get the `exchangeRate_` between the underlying asset and the peg asset in 1e27 for liquidations"
      },
      "getExchangeRateOperate()": {
        "notice": "Get the `exchangeRate_` between the underlying asset and the peg asset in 1e27 for operates"
      },
      "infoName()": {
        "notice": "helper string to easily identify the oracle. E.g. token symbols"
      },
      "weETHsOracleData()": {
        "notice": "returns all weETHs oracle related data as utility for easy off-chain use / block explorer in a single view method"
      },
      "wstETHOracleData()": {
        "notice": "returns all wWtETH oracle related data as utility for easy off-chain use / block explorer in a single view method"
      }
    },
    "version": 1
  },
  "storageLayout": {
    "storage": [],
    "types": null
  }
}