{
  "address": "0x200d3B4323d6a334162484539A1eaF9acF7918bF",
  "abi": [
    {
      "inputs": [
        {
          "components": [
            {
              "internalType": "address",
              "name": "liquidity",
              "type": "address"
            },
            {
              "internalType": "address",
              "name": "factory",
              "type": "address"
            },
            {
              "internalType": "address",
              "name": "operateImplementation",
              "type": "address"
            },
            {
              "internalType": "address",
              "name": "adminImplementation",
              "type": "address"
            },
            {
              "internalType": "address",
              "name": "secondaryImplementation",
              "type": "address"
            },
            {
              "internalType": "address",
              "name": "deployer",
              "type": "address"
            },
            {
              "internalType": "address",
              "name": "supply",
              "type": "address"
            },
            {
              "internalType": "address",
              "name": "borrow",
              "type": "address"
            },
            {
              "components": [
                {
                  "internalType": "address",
                  "name": "token0",
                  "type": "address"
                },
                {
                  "internalType": "address",
                  "name": "token1",
                  "type": "address"
                }
              ],
              "internalType": "struct Structs.Tokens",
              "name": "supplyToken",
              "type": "tuple"
            },
            {
              "components": [
                {
                  "internalType": "address",
                  "name": "token0",
                  "type": "address"
                },
                {
                  "internalType": "address",
                  "name": "token1",
                  "type": "address"
                }
              ],
              "internalType": "struct Structs.Tokens",
              "name": "borrowToken",
              "type": "tuple"
            },
            {
              "internalType": "uint256",
              "name": "vaultId",
              "type": "uint256"
            },
            {
              "internalType": "uint256",
              "name": "vaultType",
              "type": "uint256"
            },
            {
              "internalType": "bytes32",
              "name": "supplyExchangePriceSlot",
              "type": "bytes32"
            },
            {
              "internalType": "bytes32",
              "name": "borrowExchangePriceSlot",
              "type": "bytes32"
            },
            {
              "internalType": "bytes32",
              "name": "userSupplySlot",
              "type": "bytes32"
            },
            {
              "internalType": "bytes32",
              "name": "userBorrowSlot",
              "type": "bytes32"
            }
          ],
          "internalType": "struct Structs.ConstantViews",
          "name": "constants_",
          "type": "tuple"
        }
      ],
      "stateMutability": "nonpayable",
      "type": "constructor"
    },
    {
      "inputs": [
        {
          "internalType": "uint256",
          "name": "colLiquidated",
          "type": "uint256"
        },
        {
          "internalType": "uint256",
          "name": "debtLiquidated",
          "type": "uint256"
        }
      ],
      "name": "FluidLiquidateResult",
      "type": "error"
    },
    {
      "inputs": [
        {
          "internalType": "uint256",
          "name": "errorId_",
          "type": "uint256"
        }
      ],
      "name": "FluidLiquidityCalcsError",
      "type": "error"
    },
    {
      "inputs": [
        {
          "internalType": "uint256",
          "name": "errorId_",
          "type": "uint256"
        }
      ],
      "name": "FluidSafeTransferError",
      "type": "error"
    },
    {
      "inputs": [
        {
          "internalType": "uint256",
          "name": "errorId_",
          "type": "uint256"
        }
      ],
      "name": "FluidVaultError",
      "type": "error"
    },
    {
      "anonymous": false,
      "inputs": [
        {
          "indexed": false,
          "internalType": "uint256",
          "name": "colAbsorbedRaw_",
          "type": "uint256"
        },
        {
          "indexed": false,
          "internalType": "uint256",
          "name": "debtAbsorbedRaw_",
          "type": "uint256"
        }
      ],
      "name": "LogAbsorb",
      "type": "event"
    },
    {
      "anonymous": false,
      "inputs": [
        {
          "indexed": false,
          "internalType": "address",
          "name": "liquidator_",
          "type": "address"
        },
        {
          "indexed": false,
          "internalType": "uint256",
          "name": "colAmt_",
          "type": "uint256"
        },
        {
          "indexed": false,
          "internalType": "uint256",
          "name": "debtAmt_",
          "type": "uint256"
        },
        {
          "indexed": false,
          "internalType": "address",
          "name": "to_",
          "type": "address"
        }
      ],
      "name": "LogLiquidate",
      "type": "event"
    },
    {
      "anonymous": false,
      "inputs": [
        {
          "indexed": false,
          "internalType": "address",
          "name": "user_",
          "type": "address"
        },
        {
          "indexed": false,
          "internalType": "uint256",
          "name": "nftId_",
          "type": "uint256"
        },
        {
          "indexed": false,
          "internalType": "int256",
          "name": "colAmt_",
          "type": "int256"
        },
        {
          "indexed": false,
          "internalType": "int256",
          "name": "debtAmt_",
          "type": "int256"
        },
        {
          "indexed": false,
          "internalType": "address",
          "name": "to_",
          "type": "address"
        }
      ],
      "name": "LogOperate",
      "type": "event"
    },
    {
      "anonymous": false,
      "inputs": [
        {
          "indexed": false,
          "internalType": "int256",
          "name": "colAmt_",
          "type": "int256"
        },
        {
          "indexed": false,
          "internalType": "int256",
          "name": "debtAmt_",
          "type": "int256"
        }
      ],
      "name": "LogRebalance",
      "type": "event"
    },
    {
      "anonymous": false,
      "inputs": [
        {
          "indexed": false,
          "internalType": "uint256",
          "name": "supplyExPrice_",
          "type": "uint256"
        },
        {
          "indexed": false,
          "internalType": "uint256",
          "name": "borrowExPrice_",
          "type": "uint256"
        }
      ],
      "name": "LogUpdateExchangePrice",
      "type": "event"
    },
    {
      "inputs": [],
      "name": "LIQUIDITY",
      "outputs": [
        {
          "internalType": "contract IFluidLiquidity",
          "name": "",
          "type": "address"
        }
      ],
      "stateMutability": "view",
      "type": "function"
    },
    {
      "inputs": [],
      "name": "TYPE",
      "outputs": [
        {
          "internalType": "uint256",
          "name": "",
          "type": "uint256"
        }
      ],
      "stateMutability": "view",
      "type": "function"
    },
    {
      "inputs": [],
      "name": "VAULT_FACTORY",
      "outputs": [
        {
          "internalType": "contract IFluidVaultFactory",
          "name": "",
          "type": "address"
        }
      ],
      "stateMutability": "view",
      "type": "function"
    },
    {
      "inputs": [],
      "name": "VAULT_ID",
      "outputs": [
        {
          "internalType": "uint256",
          "name": "",
          "type": "uint256"
        }
      ],
      "stateMutability": "view",
      "type": "function"
    },
    {
      "inputs": [
        {
          "internalType": "int256",
          "name": "positionTick_",
          "type": "int256"
        },
        {
          "internalType": "uint256",
          "name": "positionTickId_",
          "type": "uint256"
        },
        {
          "internalType": "uint256",
          "name": "positionRawDebt_",
          "type": "uint256"
        },
        {
          "internalType": "uint256",
          "name": "tickData_",
          "type": "uint256"
        }
      ],
      "name": "fetchLatestPosition",
      "outputs": [
        {
          "internalType": "int256",
          "name": "",
          "type": "int256"
        },
        {
          "internalType": "uint256",
          "name": "",
          "type": "uint256"
        },
        {
          "internalType": "uint256",
          "name": "positionRawCol_",
          "type": "uint256"
        },
        {
          "internalType": "uint256",
          "name": "branchId_",
          "type": "uint256"
        },
        {
          "internalType": "uint256",
          "name": "branchData_",
          "type": "uint256"
        }
      ],
      "stateMutability": "view",
      "type": "function"
    },
    {
      "inputs": [
        {
          "internalType": "uint256",
          "name": "nftId_",
          "type": "uint256"
        },
        {
          "internalType": "int256",
          "name": "newCol_",
          "type": "int256"
        },
        {
          "internalType": "int256",
          "name": "newDebtToken0_",
          "type": "int256"
        },
        {
          "internalType": "int256",
          "name": "newDebtToken1_",
          "type": "int256"
        },
        {
          "internalType": "int256",
          "name": "debtSharesMinMax_",
          "type": "int256"
        },
        {
          "internalType": "address",
          "name": "to_",
          "type": "address"
        }
      ],
      "name": "operate",
      "outputs": [
        {
          "internalType": "uint256",
          "name": "",
          "type": "uint256"
        },
        {
          "internalType": "int256",
          "name": "",
          "type": "int256"
        },
        {
          "internalType": "int256",
          "name": "",
          "type": "int256"
        }
      ],
      "stateMutability": "payable",
      "type": "function"
    },
    {
      "inputs": [
        {
          "internalType": "uint256",
          "name": "nftId_",
          "type": "uint256"
        },
        {
          "internalType": "int256",
          "name": "newCol_",
          "type": "int256"
        },
        {
          "internalType": "int256",
          "name": "perfectDebtShares_",
          "type": "int256"
        },
        {
          "internalType": "int256",
          "name": "debtToken0MinMax_",
          "type": "int256"
        },
        {
          "internalType": "int256",
          "name": "debtToken1MinMax_",
          "type": "int256"
        },
        {
          "internalType": "address",
          "name": "to_",
          "type": "address"
        }
      ],
      "name": "operatePerfect",
      "outputs": [
        {
          "internalType": "uint256",
          "name": "",
          "type": "uint256"
        },
        {
          "internalType": "int256[]",
          "name": "r_",
          "type": "int256[]"
        }
      ],
      "stateMutability": "payable",
      "type": "function"
    },
    {
      "inputs": [
        {
          "internalType": "bytes32",
          "name": "slot_",
          "type": "bytes32"
        }
      ],
      "name": "readFromStorage",
      "outputs": [
        {
          "internalType": "uint256",
          "name": "result_",
          "type": "uint256"
        }
      ],
      "stateMutability": "view",
      "type": "function"
    },
    {
      "inputs": [
        {
          "internalType": "uint256",
          "name": "vaultVariables2_",
          "type": "uint256"
        }
      ],
      "name": "updateExchangePrices",
      "outputs": [
        {
          "internalType": "uint256",
          "name": "liqSupplyExPrice_",
          "type": "uint256"
        },
        {
          "internalType": "uint256",
          "name": "liqBorrowExPrice_",
          "type": "uint256"
        },
        {
          "internalType": "uint256",
          "name": "vaultSupplyExPrice_",
          "type": "uint256"
        },
        {
          "internalType": "uint256",
          "name": "vaultBorrowExPrice_",
          "type": "uint256"
        }
      ],
      "stateMutability": "view",
      "type": "function"
    }
  ],
  "transactionHash": "0x89cc2197a41688d1ecf4fa0f1648f884c4457249529a0f637d85fd5c29c02f89",
  "args": [
    {
      "liquidity": "0x52Aa899454998Be5b000Ad077a46Bbe360F4e497",
      "factory": "0x324c5Dc1fC42c7a4D43d92df1eBA58a54d13Bf2d",
      "operateImplementation": "0x0000000000000000000000000000000000000000",
      "adminImplementation": "0x076a9fe6051d66b6281e8aC26a8278330274C004",
      "secondaryImplementation": "0xf38478d055020bbC173734Dc62d88b749Eb99b59",
      "deployer": "0x4EC7b668BAF70d4A4b0FC7941a7708A07b6d45Be",
      "supply": "0x52Aa899454998Be5b000Ad077a46Bbe360F4e497",
      "borrow": "0x085B07A30381F3Cc5A4250e10E4379d465b770ac",
      "supplyToken": {
        "token0": "0x7f39C581F595B53c5cb19bD0b3f8dA6c935E2Ca0",
        "token1": "0x0000000000000000000000000000000000000000"
      },
      "borrowToken": {
        "token0": "0xA0b86991c6218b36c1d19D4a2e9Eb0cE3606eB48",
        "token1": "0xdac17f958d2ee523a2206206994597c13d831ec7"
      },
      "vaultId": 36,
      "vaultType": "30000",
      "supplyExchangePriceSlot": "0xc24eaceff5753c99066a839532d708a8661af7a9b01d44d0cd915c53969eb725",
      "borrowExchangePriceSlot": "0x0000000000000000000000000000000000000000000000000000000000000000",
      "userSupplySlot": "0x8f15b765151a944b62ee1bf076d906183f053bf0dd18b4959a876cfa48610f1d",
      "userBorrowSlot": "0x5c7cc88afeaafe512774420bd4fa64ed65d3571670ea534bce3640674ef7ed3d"
    }
  ],
  "numDeployments": 2,
  "bytecode": "0x6103006040523480156200001257600080fd5b50604051620054f0380380620054f0833981016040819052620000359162000358565b808080808080610160015161026081815250506127106102605114158015620000635750614e206102605114155b80156200007557506175306102605114155b8015620000875750619c406102605114155b15620000af576040516330090e6560e11b815261793a60048201526024015b60405180910390fd5b80516001600160a01b0390811661020052602082015181166102205260a0820151811660c0908152820151811660e090815282015181166101005261014082015161024052604082015116156200010b5780604001516200010d565b305b6001600160a01b03166101a05261026051614e201480620001325750619c4061026051145b156200014f5760c08101516001600160a01b031660805262000193565b610100810151516001600160a01b03908116608052815160c0830151821691161462000193576040516330090e6560e11b815261793a6004820152602401620000a6565b617530610260511480620001ab5750619c4061026051145b15620001c85760e08101516001600160a01b031660a0526200020c565b610120810151516001600160a01b0390811660a052815160e083015182169116146200020c576040516330090e6560e11b815261793a6004820152602401620000a6565b61010081018051516001600160a01b03908116610120908152830180515182166101605291516020908101518216610140529151909101518116610180908152820151610280526101a08201516102a0526101c0808301516102c0526101e0808401516102e0526060840151831690915260809092015116905250620004879350505050565b60405161020081016001600160401b0381118282101715620002c457634e487b7160e01b600052604160045260246000fd5b60405290565b80516001600160a01b0381168114620002e257600080fd5b919050565b600060408284031215620002fa57600080fd5b604080519081016001600160401b03811182821017156200032b57634e487b7160e01b600052604160045260246000fd5b6040529050806200033c83620002ca565b81526200034c60208401620002ca565b60208201525092915050565b600061024082840312156200036c57600080fd5b6200037662000292565b6200038183620002ca565b81526200039160208401620002ca565b6020820152620003a460408401620002ca565b6040820152620003b760608401620002ca565b6060820152620003ca60808401620002ca565b6080820152620003dd60a08401620002ca565b60a0820152620003f060c08401620002ca565b60c08201526200040360e08401620002ca565b60e08201526101006200041985828601620002e7565b908201526101406200042e85858301620002e7565b61012083015261018080850151828401526101a09150818501516101608401526101c080860151828501526101e09150818601518385015261020086015181850152506102208501518184015250508091505092915050565b60805160a05160c05160e05161010051610120516101405161016051610180516101a0516101c0516101e05161020051610220516102405161026051610280516102a0516102c0516102e051614e8b62000665600039600050506000612058015260006108ce0152600061065c01526000818161027b0152818161053601528181610561015281816107ae015281816107d9015281816121300152818161215b0152818161225a01528181612285015281816124320152818161245d01528181612608015281816126330152818161275f015261278a01526000818161021a0152610ffa01526000818161014501528181611026015261112e0152600081816101e601528181610686015281816108f8015281816122af015281816124f40152818161267201526127c901526000505060005050600081816102b801526109f9015260008181612ac401528181612dd501526134f2015260008181612a8801528181612c5f01526134b60152600050506000505060008181612a2101528181612bf801528181612d6e01528181612fd301528181613374015261344f0152600061207e01526000611d650152600081816124a80152818161253101526127f00152600081816123160152818161235b01526126990152614e8b6000f3fe6080604052600436106100965760003560e01c806322348cc711610069578063540acabc1161004e578063540acabc14610208578063b5c736e41461024a578063bb24fe8a1461026957600080fd5b806322348cc71461018c5780632861c7d1146101d457600080fd5b80630931bf2d1461009b57806309f0d8cb146100c557806310259f2614610105578063103f290714610133575b600080fd5b6100ae6100a9366004614a37565b61029d565b6040516100bc929190614a8c565b60405180910390f35b3480156100d157600080fd5b506100e56100e0366004614ada565b6104fa565b6040805194855260208501939093529183015260608201526080016100bc565b610118610113366004614a37565b6109de565b604080519384526020840192909252908201526060016100bc565b34801561013f57600080fd5b506101677f000000000000000000000000000000000000000000000000000000000000000081565b60405173ffffffffffffffffffffffffffffffffffffffff90911681526020016100bc565b34801561019857600080fd5b506101ac6101a7366004614af3565b610b27565b604080519586526020860194909452928401919091526060830152608082015260a0016100bc565b3480156101e057600080fd5b506101677f000000000000000000000000000000000000000000000000000000000000000081565b34801561021457600080fd5b5061023c7f000000000000000000000000000000000000000000000000000000000000000081565b6040519081526020016100bc565b34801561025657600080fd5b5061023c610265366004614ada565b5490565b34801561027557600080fd5b5061023c7f000000000000000000000000000000000000000000000000000000000000000081565b6000606073ffffffffffffffffffffffffffffffffffffffff7f0000000000000000000000000000000000000000000000000000000000000000163003610319576040517f60121cca00000000000000000000000000000000000000000000000000000000815261792b60048201526024015b60405180910390fd5b6103446040518060800160405280600081526020016000815260200160008152602001600081525090565b60408051600480825260a0820190925290602082016080803683370190505060008054606084018190529193506001909116900361038c5760608101516001176000556103c2565b6040517f60121cca0000000000000000000000000000000000000000000000000000000081526179196004820152602401610310565b6103cc3447614b54565b815273ffffffffffffffffffffffffffffffffffffffff8416156103f057836103f2565b335b9350610405898989878560600151610de7565b6060850152919a5098509650600087121561043457610425878787612a04565b60408301526020820152610454565b60008713156104545761044987878787612f25565b604083015260208201525b878260008151811061046857610468614b67565b602002602001018181525050868260018151811061048857610488614b67565b6020026020010181815250508060200151826002815181106104ac576104ac614b67565b6020026020010181815250508060400151826003815181106104d0576104d0614b67565b6020908102919091010152606081015160005580516104ee9061304e565b50969795505050505050565b60085460009081908190819067ffffffffffffffff80821690604083901c168361052f607a8a901c6401ffffffff1642614b54565b9050614e207f000000000000000000000000000000000000000000000000000000000000000014806105825750619c407f0000000000000000000000000000000000000000000000000000000000000000145b156106345764e8d4a51000975067ffffffffffffffff608085901c169550886001166001036105f3576105bb6301e13380612710614b96565b60018a901c617fff166105ce8389614b96565b6105d89190614b96565b6105e29190614bdc565b6105ec9087614bf0565b95506107a9565b6106036301e13380612710614b96565b60018a901c617fff166106168389614b96565b6106209190614b96565b61062a9190614bdc565b6105ec9087614b54565b6040517fb5c736e40000000000000000000000000000000000000000000000000000000081527f0000000000000000000000000000000000000000000000000000000000000000600482015261070c907f000000000000000000000000000000000000000000000000000000000000000073ffffffffffffffffffffffffffffffffffffffff169063b5c736e4906024015b602060405180830381865afa1580156106e3573d6000803e3d6000fd5b505050506040513d601f19601f820116820180604052508101906107079190614c03565b6130a6565b5097508288101561074d576040517f60121cca0000000000000000000000000000000000000000000000000000000081526179326004820152602401610310565b61271061ffff8a16670de0b6b3a7640000858b670de0b6b3a7640000028161077757610777614bad565b0403028161078757610787614bad565b670de0b6b3a7640000919004810167ffffffffffffffff608087901c16020495505b6175307f000000000000000000000000000000000000000000000000000000000000000014806107fa5750619c407f0000000000000000000000000000000000000000000000000000000000000000145b156108a65764e8d4a51000965060c084901c9450600160108a901c811690036108655761082d6301e13380612710614b96565b60118a901c617fff166108408388614b96565b61084a9190614b96565b6108549190614bdc565b61085e9086614bf0565b94506109d3565b6108756301e13380612710614b96565b60118a901c617fff166108888388614b96565b6108929190614b96565b61089c9190614bdc565b61085e9086614b54565b6040517fb5c736e40000000000000000000000000000000000000000000000000000000081527f0000000000000000000000000000000000000000000000000000000000000000600482015261093c907f000000000000000000000000000000000000000000000000000000000000000073ffffffffffffffffffffffffffffffffffffffff169063b5c736e4906024016106c6565b9750508187101561097d576040517f60121cca0000000000000000000000000000000000000000000000000000000081526179326004820152602401610310565b61271061ffff60108b901c16670de0b6b3a7640000848a670de0b6b3a764000002816109ab576109ab614bad565b040302816109bb576109bb614bad565b670de0b6b3a7640000919004810160c086901c020494505b505050509193509193565b6000808073ffffffffffffffffffffffffffffffffffffffff7f0000000000000000000000000000000000000000000000000000000000000000163003610a55576040517f60121cca00000000000000000000000000000000000000000000000000000000815261792b6004820152602401610310565b610a7960405180606001604052806000815260200160008152602001600081525090565b6000805460408301819052600116900361038c576040810151600117600055610aa23447614b54565b815273ffffffffffffffffffffffffffffffffffffffff851615610ac65784610ac8565b335b9450610ad6888888886132b4565b602082018190526040820151610af2918c918c91908990610de7565b6040850181905260208501919091526000558251919b509950610b149061304e565b6020015198999798979650505050505050565b600080808080868180600189901c62ffffff168b9003610b6d575050601a87901c633fffffff169250603887901c6603ffffffffffff166001601989901c811614610bc4565b60008c8152600660205260408120600360028e0181810660550292918491048152602081019190915260400160002054901c600181811c633fffffff169750601f82901c6603ffffffffffff169450908116149150505b60008581526007602052604090205493508015610c07577f80000000000000000000000000000000000000000000000000000000000000009b5060009950610dd3565b83600316600203610c7157610c2982607486901c6603ffffffffffff16613661565b91506001610c39600f6023614bf0565b6001901b610c479190614b54565b8214610c715760a69390931c633fffffff1660008181526007602052604090205490945092610c07565b8360031660031480610c9d57506001610c8c600f6023614bf0565b6001901b610c9a9190614b54565b82145b15610cce577f80000000000000000000000000000000000000000000000000000000000000009b5060009950610dd3565b610ce68a607486901c6603ffffffffffff16846136fb565b9950606483048a1115610d035761271061270f8b02049950610d08565b600099505b8915610daf5783600416600414610d2b576207ffff600385901c16600003610d36565b6207ffff600385901c165b9b506000610d468d60020b613740565b905061271f612710820204633fffffff601687901c8116610d678385614b54565b610d719190614b96565b610d7b9190614bdc565b610d859082614bf0565b610d9c6c010000000000000000000000008e614b96565b610da69190614bdc565b97505050610dd3565b7f80000000000000000000000000000000000000000000000000000000000000009b505b8b8a97509750505050945094509450945094565b600080808087158015610df8575086155b80610e3857508715801590610e3857507fffffffffffffffffffffffffffffffffffffffffffffffffffffffffffffd8f088138015610e38575061271088125b80610e7857508615801590610e7857507fffffffffffffffffffffffffffffffffffffffffffffffffffffffffffffd8f087138015610e78575061271087125b15610eb3576040517f60121cca00000000000000000000000000000000000000000000000000000000815261791a6004820152602401610310565b610f33604051806102000160405280600081526020016000815260200160008152602001600081526020016000815260200160008152602001600081526020016000815260200160008152602001600081526020016000815260200160008152602001600081526020016000815260200160008152602001600081525090565b600154610100820152600286901c620fffff166000808215610f7b5782600116600114610f6c576207ffff600184901c16600003610f9d565b6207ffff600184901c16610f9d565b7f80000000000000000000000000000000000000000000000000000000000000005b61014085015260008d90036110cf577f800000000000000000000000000000000000000000000000000000000000000060c08501526040517f94bf804d0000000000000000000000000000000000000000000000000000000081527f000000000000000000000000000000000000000000000000000000000000000060048201523360248201527f000000000000000000000000000000000000000000000000000000000000000073ffffffffffffffffffffffffffffffffffffffff16906394bf804d906044016020604051808303816000875af1158015611084573d6000803e3d6000fd5b505050506040513d601f19601f820116820180604052508101906110a89190614c03565b9c50887a0400000000000000000000000000000000000000000000000000000198506112f1565b8c925060008c12806110e1575060008b135b80156111b257506040517f6352211e00000000000000000000000000000000000000000000000000000000815260048101849052339073ffffffffffffffffffffffffffffffffffffffff7f00000000000000000000000000000000000000000000000000000000000000001690636352211e90602401602060405180830381865afa158015611175573d6000803e3d6000fd5b505050506040513d601f19601f820116820180604052508101906111999190614c1c565b73ffffffffffffffffffffffffffffffffffffffff1614155b156111ed576040517f60121cca00000000000000000000000000000000000000000000000000000000815261791c6004820152602401610310565b60008d815260036020526040812054935083900361123b576040517f60121cca0000000000000000000000000000000000000000000000000000000081526179236004820152602401610310565b66ffffffffffffff603584901c811660ff602d86901c81169190911b6060870152607585901c909116606d85901c9182161b60a086015267ffffffffffffffff169150600180841690036112b4577f800000000000000000000000000000000000000000000000000000000000000060c08501526112f1565b826002166002146112d1576207ffff600284901c166000036112dc565b6207ffff600284901c165b60c0850152601583901c62ffffff1660e08501525b7f80000000000000000000000000000000000000000000000000000000000000008460c0015113156115df57602d9290921c60ff1691821561133c5760608401516001841b01611345565b83606001516001015b925060608361135a8660c0015160020b613740565b6113649190614b96565b611370911c6001614bf0565b608085015260c08401516000908152600560205260409020549250600180841614806113a857508360e0015162ffffff600185901c16115b156114d0576113c58460c001518560e00151866080015186610b27565b6101c089015260608801919091526080870182905260c087019290925260a086015191935011156114995767ffffffffffffffff6034856101c00151901c16925060ff8316600884901c901b92508360800151836114239190614b54565b9250606483101561143357606492505b6034611444846038600860016139a2565b6101c086015160008581526007602052604090207ffffffffffffffffffffffffffffffffffff0000000000000000fffffffffffff9091169190921b17905560a08401516080850180519190910390526115d7565b83608001518460a00151600a546114b09190614bf0565b6114ba9190614b54565b600a5560006080850181905260608501526115d7565b67ffffffffffffffff601984901c1691508160000361151f576040517f60121cca00000000000000000000000000000000000000000000000000000000815261791d6004820152602401610310565b60ff8216600883901c901b91508184608001511061153e576000611546565b836080015182035b915061271082101561158d57600091508361014001518460c001510361157e576115758461014001518a613acb565b61014086015298505b61158d8460c001516000613cad565b601961159e836038600860006139a2565b60c08601516000908152600560205260409020911b6301ffffff851617905560a08401516080850180516115d3908390614b54565b9052505b600060a08501525b60c084015160408501526060840151845260808401516020850152610100840151611609906104fa565b6101a08801526101808701525061016085015260008c13156116af5761018084015161163a64e8d4a510008e614b96565b6116449190614bdc565b846060018181516116559190614bf0565b90525060608401516fffffffffffffffffffffffffffffffff10156116aa576040517f60121cca00000000000000000000000000000000000000000000000000000000815261792f6004820152602401610310565b611806565b60008c1215611806577fffffffffffffffffffffffffffffffff800000000000000000000000000000008c1315611762576101808401516001906116f864e8d4a510008f614c39565b6117029190614c85565b61170c9190614ced565b90508360600151816000031115611753576040517f60121cca0000000000000000000000000000000000000000000000000000000081526179266004820152602401610310565b60608401805182019052611806565b7f80000000000000000000000000000000000000000000000000000000000000008c036117d05764e8d4a5100084610180015185606001516117a49190614b96565b6117ae9190614bdc565b6117b790614d14565b6117c2906001614d4c565b600060608601529b50611806565b6040517f60121cca00000000000000000000000000000000000000000000000000000000815261792f6004820152602401610310565b60008b13156118d6576101a084015161182464e8d4a510008d614b96565b61182e9190614bdc565b611839906001614bf0565b92506127106103ff6052866101000151901c16846118579190614b96565b6118619190614bdc565b61186b9084614bf0565b8460800181815161187c9190614bf0565b90525060808401516fffffffffffffffffffffffffffffffff10156118d1576040517f60121cca00000000000000000000000000000000000000000000000000000000815261792f6004820152602401610310565b6119f6565b60008b12156119f6577fffffffffffffffffffffffffffffffff800000000000000000000000000000008b131561198b576101a084015161191c64e8d4a510008d614c39565b6119269190614c85565b611931906001614d4c565b9050806000039050836080015181111561197b576040517f60121cca0000000000000000000000000000000000000000000000000000000081526179276004820152602401610310565b60808401805182900390526119f6565b7f80000000000000000000000000000000000000000000000000000000000000008b036117d057600164e8d4a51000856101a0015186608001516119cf9190614b96565b6119d99190614bdc565b6119e290614d14565b6119ec9190614ced565b600060808601529a505b8b158015611a0257508a155b15611a3d576040517f60121cca00000000000000000000000000000000000000000000000000000000815261791a6004820152602401610310565b608084015115611cb257611a758460600151633b9aca008660800151633b9aca010281611a6c57611a6c614bad565b04600101613d20565b60a0880152608087015260e086015260c085015260008b1215611ae75783602001518460a001518560800151611aab9190614b54565b1115611ae7576040517f60121cca0000000000000000000000000000000000000000000000000000000081526179346004820152602401610310565b60008c138015611af557508a155b15611b9a5783516020850151611b19906c0100000000000000000000000090614b96565b611b239190614bdc565b84606001516c010000000000000000000000008660a001518760800151611b4a9190614b54565b611b549190614b96565b611b5e9190614bdc565b1115611b9a576040517f60121cca0000000000000000000000000000000000000000000000000000000081526179346004820152602401610310565b8361014001518460c0015112611cad5760008460c0015112611bc75760018460c00151901b600117611bd3565b60c084015160000360011b5b925088600216600003611c1057600283901b897fffffffffffffffffffffffffffffffffffffffffffffffffffffffffffc0000016179850611cd9565b600160348a811c633fffffff16919091016000818152600760205260409020780fffffffc0000000000000000000000000000000000000000060908d901b167afffff000000000000000000000000000000000000000000000000060c28e901b161790557ffffffffffffffffffffffffffffffffffffffffffffc00000000000000000000909a16600285901b1760168b901b17908a901b179891505b611cd9565b7f800000000000000000000000000000000000000000000000000000000000000060c08501525b60008c1280611ce8575060008b135b15611f425773ffffffffffffffffffffffffffffffffffffffff8a16611d0c573399505b60008460800151118015611d5b57508360c001518460400151131580611d5b5750633b9aca008460200151633b9aca010281611d4a57611d4a614bad565b046001018460a00151856080015103115b15611f4257611d997f0000000000000000000000000000000000000000000000000000000000000000633fffffff605c876101000151901c16613efd565b73ffffffffffffffffffffffffffffffffffffffff16638e7bfbc06040518163ffffffff1660e01b8152600401602060405180830381865afa158015611de3573d6000803e3d6000fd5b505050506040513d601f19601f82011682018060405250810190611e079190614c03565b9250760a70c3c40a64e6c51999090b65f67d9240000000000000831180611e315750633b9aca0083105b15611e6c576040517f60121cca0000000000000000000000000000000000000000000000000000000081526179396004820152602401610310565b836101a00151846101800151840281611e8757611e87614bad565b049250722cd76fe086b93ce2f768a00b22a00000000000831115611ebc57722cd76fe086b93ce2f768a00b22a0000000000092505b6101008401516103e89060201c6103ff1684020491506b033b2e3c9fd0803ce80000006c010000000000000000000000008302049150611efb82614367565b5080915050808460c001511315611f42576040517f60121cca00000000000000000000000000000000000000000000000000000000815261791e6004820152602401610310565b7f80000000000000000000000000000000000000000000000000000000000000008460c001511315611f9e5760008460c0015112611f8b5760018460c00151901b600117611f97565b60c084015160000360011b5b9250611fa3565b600092505b60a0840151606d90611fba906038600860006139a2565b6060860151911b90602d90611fd4906038600860006139a2565b60e0870151911b9060151b600186901b8615611ff1576000611ff4565b60015b60ff1617171717600360008f81526020019081526020016000208190555060008c121561224a57610100840151603e1c6103ff169250821561224a576040517fb5c736e40000000000000000000000000000000000000000000000000000000081527f000000000000000000000000000000000000000000000000000000000000000060048201527f000000000000000000000000000000000000000000000000000000000000000073ffffffffffffffffffffffffffffffffffffffff169063b5c736e490602401602060405180830381865afa1580156120da573d6000803e3d6000fd5b505050506040513d601f19601f820116820180604052508101906120fe9190614c03565b6101e0850181905266ffffffffffffff600982901c1660ff600183901c161b9250612129908361477c565b9050614e207f0000000000000000000000000000000000000000000000000000000000000000148061217c5750619c407f0000000000000000000000000000000000000000000000000000000000000000145b156121d8576000811380156121985750806103e8848103840205125b156121d3576040517f60121cca0000000000000000000000000000000000000000000000000000000081526179286004820152602401610310565b61224a565b60008113801561220f575083610160015164e8d4a510008d600003028161220157612201614bad565b05816103e885810385020503125b1561224a576040517f60121cca0000000000000000000000000000000000000000000000000000000081526179286004820152602401610310565b60008c1380156122a85750614e207f000000000000000000000000000000000000000000000000000000000000000014806122a65750619c407f0000000000000000000000000000000000000000000000000000000000000000145b155b15612422577f000000000000000000000000000000000000000000000000000000000000000073ffffffffffffffffffffffffffffffffffffffff1663ad967e1573eeeeeeeeeeeeeeeeeeeeeeeeeeeeeeeeeeeeeeee73ffffffffffffffffffffffffffffffffffffffff167f000000000000000000000000000000000000000000000000000000000000000073ffffffffffffffffffffffffffffffffffffffff1614612357576000612359565b8d5b7f00000000000000000000000000000000000000000000000000000000000000008f6000806000336040516020016123ad919073ffffffffffffffffffffffffffffffffffffffff91909116815260200190565b6040516020818303038152906040526040518863ffffffff1660e01b81526004016123dd96959493929190614dd8565b604080518083038185885af11580156123fa573d6000803e3d6000fd5b50505050506040513d601f19601f8201168201806040525081019061241f9190614e31565b50505b60008b12801561248057506175307f0000000000000000000000000000000000000000000000000000000000000000148061247e5750619c407f0000000000000000000000000000000000000000000000000000000000000000145b155b156125f8577fffffffffffffffffffffffff11111111111111111111111111111111111111127f000000000000000000000000000000000000000000000000000000000000000073ffffffffffffffffffffffffffffffffffffffff16016124ed578a60000392506124f2565b600092505b7f000000000000000000000000000000000000000000000000000000000000000073ffffffffffffffffffffffffffffffffffffffff1663ad967e15847f000000000000000000000000000000000000000000000000000000000000000060008f60008033604051602001612583919073ffffffffffffffffffffffffffffffffffffffff91909116815260200190565b6040516020818303038152906040526040518863ffffffff1660e01b81526004016125b396959493929190614dd8565b604080518083038185885af11580156125d0573d6000803e3d6000fd5b50505050506040513d601f19601f820116820180604052508101906125f59190614e31565b50505b60008c1280156126565750614e207f000000000000000000000000000000000000000000000000000000000000000014806126545750619c407f0000000000000000000000000000000000000000000000000000000000000000145b155b1561274f5773ffffffffffffffffffffffffffffffffffffffff7f00000000000000000000000000000000000000000000000000000000000000001663ad967e157f00000000000000000000000000000000000000000000000000000000000000008e60008e81806040519080825280601f01601f1916602001820160405280156126e8576020820181803683370190505b506040518763ffffffff1660e01b815260040161270a96959493929190614dd8565b60408051808303816000875af1158015612728573d6000803e3d6000fd5b505050506040513d601f19601f8201168201806040525081019061274c9190614e31565b50505b60008b1380156127ad57506175307f000000000000000000000000000000000000000000000000000000000000000014806127ab5750619c407f0000000000000000000000000000000000000000000000000000000000000000145b155b156128a65773ffffffffffffffffffffffffffffffffffffffff7f00000000000000000000000000000000000000000000000000000000000000001663ad967e157f000000000000000000000000000000000000000000000000000000000000000060008e818f816040519080825280601f01601f19166020018201604052801561283f576020820181803683370190505b506040518763ffffffff1660e01b815260040161286196959493929190614dd8565b60408051808303816000875af115801561287f573d6000803e3d6000fd5b505050506040513d601f19601f820116820180604052508101906128a39190614e31565b50505b67ffffffffffffffff60528a901c1692508360000151846060015160ff8516600886901c901b6128d69190614bf0565b6128e09190614b54565b925067ffffffffffffffff60928a901c16915083602001518460a00151856080015161290c9190614b54565b61291f90600885901c60ff86161b614bf0565b6129299190614b54565b9150609261293c836038600860016139a2565b901b605261294f856038600860006139a2565b901b8a7ffffffffffffc00000000000000000000000000000003ffffffffffffffffffff16171798507ffef64760e30a41b9d5ba7dd65ff7236a61d89ed8b44c67a29e84db1a67513a1c338e8e8e8e6040516129e795949392919073ffffffffffffffffffffffffffffffffffffffff9586168152602081019490945260408401929092526060830152909116608082015260a00190565b60405180910390a1509a9b999a5097989597509495505050505050565b600080600080600086128015612a1a5750600085125b15612be3577f000000000000000000000000000000000000000000000000000000000000000073ffffffffffffffffffffffffffffffffffffffff16635b3d38d773eeeeeeeeeeeeeeeeeeeeeeeeeeeeeeeeeeeeeeee73ffffffffffffffffffffffffffffffffffffffff167f000000000000000000000000000000000000000000000000000000000000000073ffffffffffffffffffffffffffffffffffffffff1614612b28577f000000000000000000000000000000000000000000000000000000000000000073ffffffffffffffffffffffffffffffffffffffff1673eeeeeeeeeeeeeeeeeeeeeeeeeeeeeeeeeeeeeeee14612b1a576000612b31565b612b2387614d14565b612b31565b612b3188614d14565b612b3a8a614d14565b612b438a614d14565b612b4c8a614d14565b6040517fffffffff0000000000000000000000000000000000000000000000000000000060e087901b16815260048101939093526024830191909152604482015260006064820152608401604080518083038185885af1158015612bb4573d6000803e3d6000fd5b50505050506040513d601f19601f82011682018060405250810190612bd99190614e31565b9092509050612f05565b600086128015612bf1575084155b15612d59577f000000000000000000000000000000000000000000000000000000000000000073ffffffffffffffffffffffffffffffffffffffff166330acd6fd73eeeeeeeeeeeeeeeeeeeeeeeeeeeeeeeeeeeeeeee73ffffffffffffffffffffffffffffffffffffffff167f000000000000000000000000000000000000000000000000000000000000000073ffffffffffffffffffffffffffffffffffffffff1614612ca0576000612ca9565b612ca988614d14565b612cb28a614d14565b612cbb8a614d14565b612cc48a614d14565b6040517fffffffff0000000000000000000000000000000000000000000000000000000060e087901b1681526004810193909352602483019190915260448201526000606482015260840160206040518083038185885af1158015612d2d573d6000803e3d6000fd5b50505050506040513d601f19601f82011682018060405250810190612d529190614c03565b9150612f05565b85158015612d675750600085125b15612ecf577f000000000000000000000000000000000000000000000000000000000000000073ffffffffffffffffffffffffffffffffffffffff166330acd6fd73eeeeeeeeeeeeeeeeeeeeeeeeeeeeeeeeeeeeeeee73ffffffffffffffffffffffffffffffffffffffff167f000000000000000000000000000000000000000000000000000000000000000073ffffffffffffffffffffffffffffffffffffffff1614612e16576000612e1f565b612e1f87614d14565b612e288a614d14565b612e318a614d14565b612e3a8a614d14565b6040517fffffffff0000000000000000000000000000000000000000000000000000000060e087901b1681526004810193909352602483019190915260448201526000606482015260840160206040518083038185885af1158015612ea3573d6000803e3d6000fd5b50505050506040513d601f19601f82011682018060405250810190612ec89190614c03565b9050612f05565b6040517f60121cca0000000000000000000000000000000000000000000000000000000081526188b96004820152602401610310565b612f0e82614d14565b9350612f1981614d14565b92505050935093915050565b600080600085131580612f39575060008413155b15612f74576040517f60121cca0000000000000000000000000000000000000000000000000000000081526188b96004820152602401610310565b6040517fe27203cd00000000000000000000000000000000000000000000000000000000815260048101879052602481018690526044810185905273ffffffffffffffffffffffffffffffffffffffff848116606483015260009182917f0000000000000000000000000000000000000000000000000000000000000000169063e27203cd9060840160408051808303816000875af115801561301b573d6000803e3d6000fd5b505050506040513d601f19601f8201168201806040525081019061303f9190614e31565b90999098509650505050505050565b3031818111156130685761306433838303614810565b5050565b81811015613064576040517f60121cca00000000000000000000000000000000000000000000000000000000815261791b6004820152602401610310565b67ffffffffffffffff605b82901c811690609b83901c168115806130c8575080155b15613104576040517fd50d7512000000000000000000000000000000000000000000000000000000008152620111716004820152602401610310565b61ffff8316603a84901c6401ffffffff16428181039160ea87901c617fff1691148061312e575082155b806131395750806001145b1561314657505050915091565b64496cebb80084840283020484019350617fff60db87901c1692508260010361317157505050915091565b826001166001036131c65760019290921c91826c7e37be2022c0914b26800000008161319f5761319f614bad565b049250612710601e87901c613fff166b033b2e3c9fd0803ce80000008501020492506131f3565b60019290921c916305f5e100601e87901c613fff166127108501026b033b2e3c9fd0803ce8000000020492505b8060011660010361322a5760011c61271081016b033b2e3c9fd0803ce800000082028161322257613222614bad565b049050613260565b60011c61271081016b033b2e3c9fd0803ce800000082028161324e5761324e614bad565b046b033b2e3c9fd0803ce80000000390505b760a70c3c40a64e6c51999090b65f67d92400000000000008382026127100261ffff881691900402601087901c613fff16612710030292506801b5a660ea44b8000085840283020485019450505050915091565b6000808313156133e85760008512806132cd5750600084125b806132df5750841580156132df575083155b1561331a576040517f60121cca0000000000000000000000000000000000000000000000000000000081526188b96004820152602401610310565b6040517f242011d500000000000000000000000000000000000000000000000000000000815260048101869052602481018590526044810184905273ffffffffffffffffffffffffffffffffffffffff83811660648301527f0000000000000000000000000000000000000000000000000000000000000000169063242011d5906084016020604051808303816000875af11580156133bd573d6000803e3d6000fd5b505050506040513d601f19601f820116820180604052508101906133e19190614c03565b9050613659565b60008312156136115760008513806134005750600084135b80613412575084158015613412575083155b1561344d576040517f60121cca0000000000000000000000000000000000000000000000000000000081526188b96004820152602401610310565b7f000000000000000000000000000000000000000000000000000000000000000073ffffffffffffffffffffffffffffffffffffffff16636876698173eeeeeeeeeeeeeeeeeeeeeeeeeeeeeeeeeeeeeeee73ffffffffffffffffffffffffffffffffffffffff167f000000000000000000000000000000000000000000000000000000000000000073ffffffffffffffffffffffffffffffffffffffff1614613556577f000000000000000000000000000000000000000000000000000000000000000073ffffffffffffffffffffffffffffffffffffffff1673eeeeeeeeeeeeeeeeeeeeeeeeeeeeeeeeeeeeeeee1461354857600061355f565b61355186614d14565b61355f565b61355f87614d14565b61356888614d14565b61357188614d14565b61357a88614d14565b6040517fffffffff0000000000000000000000000000000000000000000000000000000060e087901b1681526004810193909352602483019190915260448201526000606482015260840160206040518083038185885af11580156135e3573d6000803e3d6000fd5b50505050506040513d601f19601f820116820180604052508101906136089190614c03565b6133e190614d14565b8415158061361e57508315155b15613659576040517f60121cca0000000000000000000000000000000000000000000000000000000081526188b96004820152602401610310565b949350505050565b6000600f83811c9083901c0281681fffffffffffffffff8211613685576022613688565b60235b91821c919050617fff8581169085160181016140008110156136a957600080fd5b7fffffffffffffffffffffffffffffffffffffffffffffffffffffffffffffc00001617fff8111156136e857506603ffffffffffff92506136f5915050565b80600f84901b1793505050505b92915050565b6000617fff83811690831603608181101561373357600f83811c821b9085901c86028161372a5761372a614bad565b04915050613739565b60009150505b9392505050565b600060ff82901d80831803617fff81111561375a57600080fd5b700100000000000000000000000000000000600182161561378857506fff9dd7de423466c20352b1246ce4856f5b60028216156137a7576fff3bd55f4488ad277531fa1c725a66d00260801c5b60048216156137c6576ffe78410fd6498b73cb96a6917f8532590260801c5b60088216156137e5576ffcf2d9987c9be178ad5bfeffaa1232730260801c5b6010821615613804576ff9ef02c4529258b057769680fc6601b30260801c5b6020821615613823576ff402d288133a85a17784a411f7aba0820260801c5b6040821615613842576fe895615b5beb6386553757b0352bda900260801c5b6080821615613861576fd34f17a00ffa00a8309940a15930391a0260801c5b610100821615613881576fae6b7961714e20548d88ea5123f9a0ff0260801c5b6102008216156138a1576f76d6461f27082d74e0feed3b388c0ca10260801c5b6104008216156138c1576f372a3bfe0745d8b6b19d985d9a8b85bb0260801c5b6108008216156138e1576f0be32cbee48979763cf7247dd7bb539d0260801c5b611000821615613900576e8d4f70c9ff4924dac37612d1e2921e0260801c5b61200082161561391e576d4e009ae5519380809a02ca7aec770260801c5b61400082161561393a576b17c45e641b6e95dee056ff100260801c5b600091507f80000000000000000000000000000000000000000000000000000000000000008416613998577fffffffffffffffffffffffffffffffffffffffffffffffffffffffffffffffff0463ffffffff81161561399857600191505b60201c0192915050565b600080856fffffffffffffffffffffffffffffffff8111156139c55760809150811c5b67ffffffffffffffff8111156139dd576040918201911c5b63ffffffff8111156139f1576020918201911c5b61ffff811115613a03576010918201911c5b60ff811115613a14576008918201911c5b600f811115613a25576004918201911c5b6003811115613a36576002918201911c5b6001811115613a46576001820191505b8015613a53576001820191505b5084811015613a5f5750835b848103905085811c60008211841615613aae57600181019050806001871b03613aae57506001908101907fffffffffffffffffffffffffffffffffffffffffffffffffffffffffffffffff86011b5b6001851b8210613abd57600080fd5b90931b909201949350505050565b601681901c633fffffff166000818152600760205260408120549091829182600160c483901c81169003613b09575060c581901c6207ffff16613b41565b5060c581901c6207ffff16600081900390613b4157507f80000000000000000000000000000000000000000000000000000000000000005b6000613b4c88614861565b9050808213613b5b5780613b5d565b815b94507f80000000000000000000000000000000000000000000000000000000000000008503613bb057867fffffffffffffffffffffffffffffffffffffffffffffffffffffffffffc00001169650613c9f565b808503613c26576000851215613bf357600385600003901b877fffffffffffffffffffffffffffffffffffffffffffffffffffffffffffc0000116179650613c9f565b600385901b877fffffffffffffffffffffffffffffffffffffffffffffffffffffffffffc0000116600417179650613c9f565b6000848152600760205260408120557ffffffffffffffffffffffffffffffffffffffffffffc00000000000000000001909616623ffffc60c284901c1617660fffffffc00000609084901c16177fffffffffffffffffffffffffffffffffffffffffffffffffffffffffffffffff840160341b17600217955b869550505050509250929050565b6000808312613cc0576101008305613ccb565b600161010084820105035b90506101008102830382613cf3576000828152600460205260409020546001821b1916613d08565b6000828152600460205260409020546001821b175b60009283526004602052604090922091909155505050565b600080600080612710851015613d66576040517f60121cca0000000000000000000000000000000000000000000000000000000081526179336004820152602401610310565b600086613d806c0100000000000000000000000088614b96565b613d8a9190614bdc565b9050613d9581614367565b60019091019550905061271061271f82020490506060613db58883614b96565b901c9250613dc38684614b54565b600086815260056020526040812054600181901c62ffffff1696509193508515801590613df1575060018216155b15613e325766ffffffffffffff602183901c1660ff601984901c161b613e178682614bf0565b915080600003613e2c57613e2c886001613cad565b50613e86565b8515613e72576000878152600660209081526040808320600360028b0181810486529190935292208054601986901c929093066055029190911b90911790555b856001019550849050613e86876001613cad565b612710811015613ec6576040517f60121cca0000000000000000000000000000000000000000000000000000000081526179316004820152602401610310565b6019613ed7826038600860006139a2565b6000898152600560205260409020911b600188901b179055509497939650919450925050565b6000606082600003613f135760009150506136f5565b607f8311613fdc576040517fd60000000000000000000000000000000000000000000000000000000000000060208201527f940000000000000000000000000000000000000000000000000000000000000060218201527fffffffffffffffffffffffffffffffffffffffff000000000000000000000000606086901b16602282015260f884901b7fff000000000000000000000000000000000000000000000000000000000000001660368201526037015b6040516020818303038152906040529050614358565b60ff83116140b9576040517fd70000000000000000000000000000000000000000000000000000000000000060208201527f940000000000000000000000000000000000000000000000000000000000000060218201527fffffffffffffffffffffffffffffffffffffffff000000000000000000000000606086901b1660228201527f8100000000000000000000000000000000000000000000000000000000000000603682015260f884901b7fff00000000000000000000000000000000000000000000000000000000000000166037820152603801613fc6565b61ffff8311614197576040517fd80000000000000000000000000000000000000000000000000000000000000060208201527f940000000000000000000000000000000000000000000000000000000000000060218201527fffffffffffffffffffffffffffffffffffffffff000000000000000000000000606086901b1660228201527f820000000000000000000000000000000000000000000000000000000000000060368201527fffff00000000000000000000000000000000000000000000000000000000000060f085901b166037820152603901613fc6565b62ffffff8311614276576040517fd90000000000000000000000000000000000000000000000000000000000000060208201527f940000000000000000000000000000000000000000000000000000000000000060218201527fffffffffffffffffffffffffffffffffffffffff000000000000000000000000606086901b1660228201527f830000000000000000000000000000000000000000000000000000000000000060368201527fffffff000000000000000000000000000000000000000000000000000000000060e885901b166037820152603a01613fc6565b6040517fda0000000000000000000000000000000000000000000000000000000000000060208201527f940000000000000000000000000000000000000000000000000000000000000060218201527fffffffffffffffffffffffffffffffffffffffff000000000000000000000000606086901b1660228201527f840000000000000000000000000000000000000000000000000000000000000060368201527fffffffff0000000000000000000000000000000000000000000000000000000060e085901b166037820152603b0160405160208183030381529060405290505b80516020909101209392505050565b600080630235b88083107473d85bca016a2338b31715f8e13054c005f8b995d38411171561439457600080fd5b6c0100000000000000000000000083106000816143ca57506c010000000000000000000000006a52b7d2dcc80cd2e40000008502045b81156143ed57507652b7d2dcc80cd2e40000000000000000000000000000008490045b6f037af932b2affa9738cc6c38ca527831811061442e57614000841793506f037af932b2affa9738cc6c38ca5278316a52b7d2dcc80cd2e400000082020490505b6d010f7a088a76f267264caa114f0a811061446b57612000841793506d010f7a088a76f267264caa114f0a6a52b7d2dcc80cd2e400000082020490505b6b95da74f87f839fc2e0dc5bd981106144a457611000841793506b95da74f87f839fc2e0dc5bd96a52b7d2dcc80cd2e400000082020490505b6b06f55dedafd8491caed5a1b881106144dd57610800841793506b06f55dedafd8491caed5a1b86a52b7d2dcc80cd2e400000082020490505b6b017fdd10ee11e624491b4cc1811061451657610400841793506b017fdd10ee11e624491b4cc16a52b7d2dcc80cd2e400000082020490505b6ab23131bf0c30217b0a2c69811061454d57610200841793506ab23131bf0c30217b0a2c696a52b7d2dcc80cd2e400000082020490505b6a79683edcb9280d797aded7811061458457610100841793506a79683edcb9280d797aded76a52b7d2dcc80cd2e400000082020490505b6a64366e2f9919f0d9b0dc9081106145ba576080841793506a64366e2f9919f0d9b0dc906a52b7d2dcc80cd2e400000082020490505b6a5b0bcda5a78850646b0a8181106145f0576040841793506a5b0bcda5a78850646b0a816a52b7d2dcc80cd2e400000082020490505b6a56c840f992c70f959ae8108110614626576020841793506a56c840f992c70f959ae8106a52b7d2dcc80cd2e400000082020490505b6a54b9cd178695194f9be0a0811061465c576010841793506a54b9cd178695194f9be0a06a52b7d2dcc80cd2e400000082020490505b6a53b7458aff204b5e65d6818110614692576008841793506a53b7458aff204b5e65d6816a52b7d2dcc80cd2e400000082020490505b6a53372a2f38c240d689e40081106146c8576004841793506a53372a2f38c240d689e4006a52b7d2dcc80cd2e400000082020490505b6a52f76617a04499e664000081106146fe576002841793506a52f76617a04499e66400006a52b7d2dcc80cd2e400000082020490505b6a52d79660f3dec355c000008110614734576001841793506a52d79660f3dec355c000006a52b7d2dcc80cd2e400000082020490505b8161474c57806a52b7d2dcc80cd2e400000086020492505b8115614768579219926a52d79660f3dec355c000008582020492505b50508281111561477757600080fd5b915091565b600066ffffffffffffff604984901c1660ff604185901c161b8082036147a65760009150506136f5565b612710613fff60a286901c168402046401ffffffff608186901c16420362ffffff60b087901c166147d78284614b96565b6147e19190614bdc565b90508083116147f15760006147f5565b8083035b93505080840383811115614807578093505b50505092915050565b60008060008060008587614e20f190508061485c576040517fdee51a8a0000000000000000000000000000000000000000000000000000000081526201155a6004820152602401610310565b505050565b6000806000808412614877576101008405614882565b600161010085820105035b600081815260046020526040812054919350859003610100808502919091010190811b811c91505b81156148c95760016148bb8361495c565b846101000201039350614954565b7fffffffffffffffffffffffffffffffffffffffffffffffffffffffffffffffff8301927fffffffffffffffffffffffffffffffffffffffffffffffffffffffffffffff7f0360010161493e577f80000000000000000000000000000000000000000000000000000000000000009350614954565b60008381526004602052604090205491506148aa565b505050919050565b6000816fffffffffffffffffffffffffffffffff83111561497e5760809150811c5b67ffffffffffffffff811115614996576040918201911c5b63ffffffff8111156149aa576020918201911c5b61ffff8111156149bc576010918201911c5b60ff8111156149cd576008918201911c5b600f8111156149de576004918201911c5b60038111156149ef576002918201911c5b60018111156149ff576001820191505b8015614a0c576001820191505b50919050565b73ffffffffffffffffffffffffffffffffffffffff81168114614a3457600080fd5b50565b60008060008060008060c08789031215614a5057600080fd5b863595506020870135945060408701359350606087013592506080870135915060a0870135614a7e81614a12565b809150509295509295509295565b6000604082018483526020604081850152818551808452606086019150828701935060005b81811015614acd57845183529383019391830191600101614ab1565b5090979650505050505050565b600060208284031215614aec57600080fd5b5035919050565b60008060008060808587031215614b0957600080fd5b5050823594602084013594506040840135936060013592509050565b7f4e487b7100000000000000000000000000000000000000000000000000000000600052601160045260246000fd5b818103818111156136f5576136f5614b25565b7f4e487b7100000000000000000000000000000000000000000000000000000000600052603260045260246000fd5b80820281158282048414176136f5576136f5614b25565b7f4e487b7100000000000000000000000000000000000000000000000000000000600052601260045260246000fd5b600082614beb57614beb614bad565b500490565b808201808211156136f5576136f5614b25565b600060208284031215614c1557600080fd5b5051919050565b600060208284031215614c2e57600080fd5b815161373981614a12565b808202600082127f800000000000000000000000000000000000000000000000000000000000000084141615614c7157614c71614b25565b81810583148215176136f5576136f5614b25565b600082614c9457614c94614bad565b7fffffffffffffffffffffffffffffffffffffffffffffffffffffffffffffffff83147f800000000000000000000000000000000000000000000000000000000000000083141615614ce857614ce8614b25565b500590565b8181036000831280158383131683831282161715614d0d57614d0d614b25565b5092915050565b60007f80000000000000000000000000000000000000000000000000000000000000008203614d4557614d45614b25565b5060000390565b8082018281126000831280158216821582161715614d6c57614d6c614b25565b505092915050565b6000815180845260005b81811015614d9a57602081850181015186830182015201614d7e565b5060006020828601015260207fffffffffffffffffffffffffffffffffffffffffffffffffffffffffffffffe0601f83011685010191505092915050565b600073ffffffffffffffffffffffffffffffffffffffff8089168352876020840152866040840152808616606084015280851660808401525060c060a0830152614e2560c0830184614d74565b98975050505050505050565b60008060408385031215614e4457600080fd5b50508051602090910151909290915056fea26469706673582212205d2472a2baaabe4c108427c022327ebed30a6b7603f660b63864922fc454aa4264736f6c63430008150033"
}