{
  "address": "0x2472c29b0a89800C803975cf187ba3A1b280Ac85",
  "abi": [
    {
      "inputs": [
        {
          "internalType": "contract IFluidVaultResolver",
          "name": "vaultResolver_",
          "type": "address"
        }
      ],
      "stateMutability": "nonpayable",
      "type": "constructor"
    },
    {
      "inputs": [],
      "name": "FluidVaultLiquidationsResolver__AddressZero",
      "type": "error"
    },
    {
      "inputs": [],
      "name": "FluidVaultLiquidationsResolver__InvalidParams",
      "type": "error"
    },
    {
      "inputs": [],
      "name": "VAULT_RESOLVER",
      "outputs": [
        {
          "internalType": "contract IFluidVaultResolver",
          "name": "",
          "type": "address"
        }
      ],
      "stateMutability": "view",
      "type": "function"
    },
    {
      "inputs": [
        {
          "internalType": "address",
          "name": "tokenIn_",
          "type": "address"
        },
        {
          "internalType": "address",
          "name": "tokenOut_",
          "type": "address"
        },
        {
          "internalType": "uint256",
          "name": "inAmt_",
          "type": "uint256"
        }
      ],
      "name": "exactInput",
      "outputs": [
        {
          "internalType": "address",
          "name": "vault_",
          "type": "address"
        },
        {
          "internalType": "uint256",
          "name": "actualInAmt_",
          "type": "uint256"
        },
        {
          "internalType": "uint256",
          "name": "outAmt_",
          "type": "uint256"
        },
        {
          "internalType": "bool",
          "name": "withAbsorb_",
          "type": "bool"
        }
      ],
      "stateMutability": "nonpayable",
      "type": "function"
    },
    {
      "inputs": [
        {
          "internalType": "address",
          "name": "tokenIn_",
          "type": "address"
        },
        {
          "internalType": "address",
          "name": "tokenOut_",
          "type": "address"
        },
        {
          "internalType": "uint256",
          "name": "outAmt_",
          "type": "uint256"
        }
      ],
      "name": "exactOutput",
      "outputs": [
        {
          "internalType": "address",
          "name": "vault_",
          "type": "address"
        },
        {
          "internalType": "uint256",
          "name": "inAmt_",
          "type": "uint256"
        },
        {
          "internalType": "uint256",
          "name": "actualOutAmt_",
          "type": "uint256"
        },
        {
          "internalType": "bool",
          "name": "withAbsorb_",
          "type": "bool"
        }
      ],
      "stateMutability": "nonpayable",
      "type": "function"
    },
    {
      "inputs": [],
      "name": "getAllSwapPairs",
      "outputs": [
        {
          "components": [
            {
              "internalType": "address",
              "name": "vault",
              "type": "address"
            },
            {
              "internalType": "address",
              "name": "tokenIn",
              "type": "address"
            },
            {
              "internalType": "address",
              "name": "tokenOut",
              "type": "address"
            }
          ],
          "internalType": "struct Structs.VaultData[]",
          "name": "vaultDatas_",
          "type": "tuple[]"
        }
      ],
      "stateMutability": "view",
      "type": "function"
    },
    {
      "inputs": [
        {
          "internalType": "address",
          "name": "tokenIn_",
          "type": "address"
        },
        {
          "internalType": "address",
          "name": "tokenOut_",
          "type": "address"
        }
      ],
      "name": "getSwapAvailable",
      "outputs": [
        {
          "components": [
            {
              "internalType": "address",
              "name": "vault",
              "type": "address"
            },
            {
              "internalType": "uint256",
              "name": "inAmt",
              "type": "uint256"
            },
            {
              "internalType": "uint256",
              "name": "outAmt",
              "type": "uint256"
            },
            {
              "internalType": "uint256",
              "name": "inAmtWithAbsorb",
              "type": "uint256"
            },
            {
              "internalType": "uint256",
              "name": "outAmtWithAbsorb",
              "type": "uint256"
            }
          ],
          "internalType": "struct Structs.SwapData",
          "name": "swapData_",
          "type": "tuple"
        }
      ],
      "stateMutability": "nonpayable",
      "type": "function"
    },
    {
      "inputs": [
        {
          "internalType": "address",
          "name": "vault_",
          "type": "address"
        },
        {
          "internalType": "address",
          "name": "receiver_",
          "type": "address"
        },
        {
          "internalType": "uint256",
          "name": "tokenInAmt_",
          "type": "uint256"
        },
        {
          "internalType": "uint256",
          "name": "tokenOutAmt_",
          "type": "uint256"
        },
        {
          "internalType": "uint256",
          "name": "slippage_",
          "type": "uint256"
        },
        {
          "internalType": "bool",
          "name": "withAbsorb_",
          "type": "bool"
        }
      ],
      "name": "getSwapCalldata",
      "outputs": [
        {
          "internalType": "bytes",
          "name": "calldata_",
          "type": "bytes"
        }
      ],
      "stateMutability": "pure",
      "type": "function"
    },
    {
      "inputs": [
        {
          "internalType": "address",
          "name": "vault_",
          "type": "address"
        }
      ],
      "name": "getSwapDataForVault",
      "outputs": [
        {
          "components": [
            {
              "internalType": "address",
              "name": "vault",
              "type": "address"
            },
            {
              "internalType": "uint256",
              "name": "inAmt",
              "type": "uint256"
            },
            {
              "internalType": "uint256",
              "name": "outAmt",
              "type": "uint256"
            },
            {
              "internalType": "uint256",
              "name": "inAmtWithAbsorb",
              "type": "uint256"
            },
            {
              "internalType": "uint256",
              "name": "outAmtWithAbsorb",
              "type": "uint256"
            }
          ],
          "internalType": "struct Structs.SwapData",
          "name": "swapData_",
          "type": "tuple"
        }
      ],
      "stateMutability": "nonpayable",
      "type": "function"
    },
    {
      "inputs": [
        {
          "internalType": "address[]",
          "name": "tokensIn_",
          "type": "address[]"
        },
        {
          "internalType": "address[]",
          "name": "tokensOut_",
          "type": "address[]"
        }
      ],
      "name": "getSwapsAvailable",
      "outputs": [
        {
          "components": [
            {
              "internalType": "address",
              "name": "vault",
              "type": "address"
            },
            {
              "internalType": "uint256",
              "name": "inAmt",
              "type": "uint256"
            },
            {
              "internalType": "uint256",
              "name": "outAmt",
              "type": "uint256"
            },
            {
              "internalType": "uint256",
              "name": "inAmtWithAbsorb",
              "type": "uint256"
            },
            {
              "internalType": "uint256",
              "name": "outAmtWithAbsorb",
              "type": "uint256"
            }
          ],
          "internalType": "struct Structs.SwapData[]",
          "name": "swapDatas_",
          "type": "tuple[]"
        }
      ],
      "stateMutability": "nonpayable",
      "type": "function"
    },
    {
      "inputs": [
        {
          "internalType": "address",
          "name": "tokenIn_",
          "type": "address"
        },
        {
          "internalType": "address",
          "name": "tokenOut_",
          "type": "address"
        }
      ],
      "name": "getVaultForSwap",
      "outputs": [
        {
          "internalType": "address",
          "name": "vault_",
          "type": "address"
        }
      ],
      "stateMutability": "view",
      "type": "function"
    },
    {
      "inputs": [
        {
          "internalType": "address[]",
          "name": "tokensIn_",
          "type": "address[]"
        },
        {
          "internalType": "address[]",
          "name": "tokensOut_",
          "type": "address[]"
        }
      ],
      "name": "getVaultsForSwap",
      "outputs": [
        {
          "components": [
            {
              "internalType": "address",
              "name": "vault",
              "type": "address"
            },
            {
              "internalType": "address",
              "name": "tokenIn",
              "type": "address"
            },
            {
              "internalType": "address",
              "name": "tokenOut",
              "type": "address"
            }
          ],
          "internalType": "struct Structs.VaultData[]",
          "name": "vaultDatas_",
          "type": "tuple[]"
        }
      ],
      "stateMutability": "view",
      "type": "function"
    }
  ],
  "transactionHash": "0x70aecd1ae7c88b67965e96f072d8138381f87de6dda578345f7835e4530bec42",
  "args": [
    "0x8DD65DaDb217f73A94Efb903EB2dc7B49D97ECca"
  ],
  "numDeployments": 1,
  "solcInputHash": "b8c8b43989e7e1436bbea395bae67e9e",
  "bytecode": "0x60a060405234801561001057600080fd5b50604051611cb4380380611cb483398101604081905261002f91610061565b6001600160a01b038116608081905261005b576040516303c99f9d60e61b815260040160405180910390fd5b50610091565b60006020828403121561007357600080fd5b81516001600160a01b038116811461008a57600080fd5b9392505050565b608051611bec6100c860003960008181610159015281816104230152818161057a01528181610d6b01526110570152611bec6000f3fe608060405234801561001057600080fd5b50600436106100be5760003560e01c80639842d25711610076578063d7e8af8a1161005b578063d7e8af8a146101db578063ed01d023146101ee578063f1c6b20a1461020157600080fd5b80639842d257146101c057806398499999146101d357600080fd5b80634f91e9a5116100a75780634f91e9a5146101345780637f3e2b481461015457806389456d6f146101a057600080fd5b8063404fcab2146100c35780634edc47c814610114575b600080fd5b6100d66100d136600461144a565b610221565b6040805173ffffffffffffffffffffffffffffffffffffffff9095168552602085019390935291830152151560608201526080015b60405180910390f35b61012761012236600461148b565b61036c565b60405161010b91906114a8565b610147610142366004611543565b6104df565b60405161010b91906115af565b61017b7f000000000000000000000000000000000000000000000000000000000000000081565b60405173ffffffffffffffffffffffffffffffffffffffff909116815260200161010b565b6101b36101ae366004611624565b610a79565b60405161010b9190611690565b6100d66101ce36600461144a565b610c1c565b610147610d65565b61017b6101e93660046116fc565b611052565b6101276101fc3660046116fc565b6112b7565b61021461020f366004611543565b611313565b60405161010b9190611735565b600080600080600061023388886112b7565b9050806000015194508593506000816060015182608001516b033b2e3c9fd0803ce800000061026291906117f3565b61026c919061180a565b9050816020015187118015610288575081602001518260600151115b156102d8576001925081606001518711156102b0578160600151945081608001519350610361565b6b033b2e3c9fd0803ce80000006102c782896117f3565b6102d1919061180a565b9350610361565b6000826020015183604001516b033b2e3c9fd0803ce80000006102fb91906117f3565b610305919061180a565b90508082111561033b57600193506b033b2e3c9fd0803ce800000061032a838a6117f3565b610334919061180a565b945061035f565b6b033b2e3c9fd0803ce8000000610352828a6117f3565b61035c919061180a565b94505b505b505093509350935093565b6103b46040518060a00160405280600073ffffffffffffffffffffffffffffffffffffffff168152602001600081526020016000815260200160008152602001600081525090565b73ffffffffffffffffffffffffffffffffffffffff82166103d457919050565b6040517f1fcd364900000000000000000000000000000000000000000000000000000000815273ffffffffffffffffffffffffffffffffffffffff8381166004830152600060248301819052917f000000000000000000000000000000000000000000000000000000000000000090911690631fcd36499060440160e0604051808303816000875af115801561046e573d6000803e3d6000fd5b505050506040513d601f19601f8201168201806040525081019061049291906118fd565b73ffffffffffffffffffffffffffffffffffffffff9093168252506060808301516020830152608080840151604084015260a08401519183019190915260c0909201519181019190915290565b606060006104ed83866117f3565b905060008167ffffffffffffffff81111561050a5761050a611845565b60405190808252806020026020018201604052801561057357816020015b60408051606081018252600080825260208083018290529282015282527fffffffffffffffffffffffffffffffffffffffffffffffffffffffffffffffff9092019101816105285790505b50905060007f000000000000000000000000000000000000000000000000000000000000000073ffffffffffffffffffffffffffffffffffffffff1663a8d9f4936040518163ffffffff1660e01b8152600401600060405180830381865afa1580156105e3573d6000803e3d6000fd5b505050506040513d6000823e601f3d9081017fffffffffffffffffffffffffffffffffffffffffffffffffffffffffffffffe0168201604052610629919081019061199c565b604080516101a081018252600080825260208201819052918101829052606081018290526080810182905260a0810182905260c0810182905260e081018290526101008101829052610120810182905261014081018290526101608101829052610180810182905291925090819060005b8451811015610930578481815181106106b5576106b5611a4e565b602002602001015173ffffffffffffffffffffffffffffffffffffffff1663b7791bf26040518163ffffffff1660e01b81526004016101a060405180830381865afa158015610708573d6000803e3d6000fd5b505050506040513d601f19601f8201168201806040525081019061072c9190611a8e565b91506000925060005b8b81101561091f5760005b8a81101561090e578d8d8381811061075a5761075a611a4e565b905060200201602081019061076f919061148b565b73ffffffffffffffffffffffffffffffffffffffff168460a0015173ffffffffffffffffffffffffffffffffffffffff1614801561080257508b8b828181106107ba576107ba611a4e565b90506020020160208101906107cf919061148b565b73ffffffffffffffffffffffffffffffffffffffff16846080015173ffffffffffffffffffffffffffffffffffffffff16145b156108f357604051806060016040528088858151811061082457610824611a4e565b602002602001015173ffffffffffffffffffffffffffffffffffffffff1681526020018f8f8581811061085957610859611a4e565b905060200201602081019061086e919061148b565b73ffffffffffffffffffffffffffffffffffffffff1681526020018d8d8481811061089b5761089b611a4e565b90506020020160208101906108b0919061148b565b73ffffffffffffffffffffffffffffffffffffffff168152508886815181106108db576108db611a4e565b6020026020010181905250856108f090611b6b565b95505b6108fc85611b6b565b945061090781611b6b565b9050610740565b5061091881611b6b565b9050610735565b5061092981611b6b565b905061069a565b508267ffffffffffffffff81111561094a5761094a611845565b6040519080825280602002602001820160405280156109b357816020015b60408051606081018252600080825260208083018290529282015282527fffffffffffffffffffffffffffffffffffffffffffffffffffffffffffffffff9092019101816109685790505b5096506000915060005b86811015610a6a57600073ffffffffffffffffffffffffffffffffffffffff168682815181106109ef576109ef611a4e565b60200260200101516000015173ffffffffffffffffffffffffffffffffffffffff1614610a5a57858181518110610a2857610a28611a4e565b6020026020010151888481518110610a4257610a42611a4e565b602002602001018190525082610a5790611b6b565b92505b610a6381611b6b565b90506109bd565b50505050505050949350505050565b606073ffffffffffffffffffffffffffffffffffffffff87161580610ab2575073ffffffffffffffffffffffffffffffffffffffff8616155b15610ae9576040517ff267e74000000000000000000000000000000000000000000000000000000000815260040160405180910390fd5b620f424083101580610af9575084155b80610b02575083155b15610b39576040517fb55de08000000000000000000000000000000000000000000000000000000000815260040160405180910390fd5b600085610b4e86670de0b6b3a76400006117f3565b610b58919061180a565b9050620f4240610b688582611ba3565b610b7290836117f3565b610b7c919061180a565b604080516024810198909852604488019190915273ffffffffffffffffffffffffffffffffffffffff979097166064870152505015156084808501919091528451808503909101815260a4909301909352506020810180517bffffffffffffffffffffffffffffffffffffffffffffffffffffffff167f8433ea220000000000000000000000000000000000000000000000000000000017905292915050565b6000806000806000610c2e88886112b7565b9050806000015194508592506000816080015182606001516b033b2e3c9fd0803ce8000000610c5d91906117f3565b610c67919061180a565b9050816040015187118015610c83575081602001518260600151115b15610cd357600192508160800151871115610cab578160800151935081606001519450610361565b6b033b2e3c9fd0803ce8000000610cc282896117f3565b610ccc919061180a565b9450610361565b6000826040015183602001516b033b2e3c9fd0803ce8000000610cf691906117f3565b610d00919061180a565b905080821015610d3657600193506b033b2e3c9fd0803ce8000000610d25838a6117f3565b610d2f919061180a565b955061035f565b6b033b2e3c9fd0803ce8000000610d4d828a6117f3565b610d57919061180a565b955050505093509350935093565b606060007f000000000000000000000000000000000000000000000000000000000000000073ffffffffffffffffffffffffffffffffffffffff1663a8d9f4936040518163ffffffff1660e01b8152600401600060405180830381865afa158015610dd4573d6000803e3d6000fd5b505050506040513d6000823e601f3d9081017fffffffffffffffffffffffffffffffffffffffffffffffffffffffffffffffe0168201604052610e1a919081019061199c565b9050805167ffffffffffffffff811115610e3657610e36611845565b604051908082528060200260200182016040528015610e9f57816020015b60408051606081018252600080825260208083018290529282015282527fffffffffffffffffffffffffffffffffffffffffffffffffffffffffffffffff909201910181610e545790505b50604080516101a081018252600080825260208201819052918101829052606081018290526080810182905260a0810182905260c0810182905260e08101829052610100810182905261012081018290526101408101829052610160810182905261018081018290529193505b825181101561104c57828181518110610f2757610f27611a4e565b602002602001015173ffffffffffffffffffffffffffffffffffffffff1663b7791bf26040518163ffffffff1660e01b81526004016101a060405180830381865afa158015610f7a573d6000803e3d6000fd5b505050506040513d601f19601f82011682018060405250810190610f9e9190611a8e565b91506040518060600160405280848381518110610fbd57610fbd611a4e565b602002602001015173ffffffffffffffffffffffffffffffffffffffff1681526020018360a0015173ffffffffffffffffffffffffffffffffffffffff168152602001836080015173ffffffffffffffffffffffffffffffffffffffff1681525084828151811061103057611030611a4e565b60200260200101819052508061104590611b6b565b9050610f0c565b50505090565b6000807f000000000000000000000000000000000000000000000000000000000000000073ffffffffffffffffffffffffffffffffffffffff1663a8d9f4936040518163ffffffff1660e01b8152600401600060405180830381865afa1580156110c0573d6000803e3d6000fd5b505050506040513d6000823e601f3d9081017fffffffffffffffffffffffffffffffffffffffffffffffffffffffffffffffe0168201604052611106919081019061199c565b604080516101a081018252600080825260208201819052918101829052606081018290526080810182905260a0810182905260c0810182905260e08101829052610100810182905261012081018290526101408101829052610160810182905261018081018290529192505b82518110156112ad5782818151811061118d5761118d611a4e565b602002602001015173ffffffffffffffffffffffffffffffffffffffff1663b7791bf26040518163ffffffff1660e01b81526004016101a060405180830381865afa1580156111e0573d6000803e3d6000fd5b505050506040513d601f19601f820116820180604052508101906112049190611a8e565b91508573ffffffffffffffffffffffffffffffffffffffff168260a0015173ffffffffffffffffffffffffffffffffffffffff1614801561127457508473ffffffffffffffffffffffffffffffffffffffff16826080015173ffffffffffffffffffffffffffffffffffffffff16145b1561129d5782818151811061128b5761128b611a4e565b602002602001015193505050506112b1565b6112a681611b6b565b9050611172565b5050505b92915050565b6112ff6040518060a00160405280600073ffffffffffffffffffffffffffffffffffffffff168152602001600081526020016000815260200160008152602001600081525090565b61130c6101228484611052565b9392505050565b60606000611323868686866104df565b9050805167ffffffffffffffff81111561133f5761133f611845565b6040519080825280602002602001820160405280156113b857816020015b6113a56040518060a00160405280600073ffffffffffffffffffffffffffffffffffffffff168152602001600081526020016000815260200160008152602001600081525090565b81526020019060019003908161135d5790505b50915060005b815181101561141b576113ed8282815181106113dc576113dc611a4e565b60200260200101516000015161036c565b8382815181106113ff576113ff611a4e565b60200260200101819052508061141490611b6b565b90506113be565b5050949350505050565b73ffffffffffffffffffffffffffffffffffffffff8116811461144757600080fd5b50565b60008060006060848603121561145f57600080fd5b833561146a81611425565b9250602084013561147a81611425565b929592945050506040919091013590565b60006020828403121561149d57600080fd5b813561130c81611425565b60a081016112b1828473ffffffffffffffffffffffffffffffffffffffff8151168252602081015160208301526040810151604083015260608101516060830152608081015160808301525050565b60008083601f84011261150957600080fd5b50813567ffffffffffffffff81111561152157600080fd5b6020830191508360208260051b850101111561153c57600080fd5b9250929050565b6000806000806040858703121561155957600080fd5b843567ffffffffffffffff8082111561157157600080fd5b61157d888389016114f7565b9096509450602087013591508082111561159657600080fd5b506115a3878288016114f7565b95989497509550505050565b602080825282518282018190526000919060409081850190868401855b82811015611617578151805173ffffffffffffffffffffffffffffffffffffffff908116865287820151811688870152908601511685850152606090930192908501906001016115cc565b5091979650505050505050565b60008060008060008060c0878903121561163d57600080fd5b863561164881611425565b9550602087013561165881611425565b945060408701359350606087013592506080870135915060a0870135801515811461168257600080fd5b809150509295509295509295565b600060208083528351808285015260005b818110156116bd578581018301518582016040015282016116a1565b5060006040828601015260407fffffffffffffffffffffffffffffffffffffffffffffffffffffffffffffffe0601f8301168501019250505092915050565b6000806040838503121561170f57600080fd5b823561171a81611425565b9150602083013561172a81611425565b809150509250929050565b6020808252825182820181905260009190848201906040850190845b818110156117b8576117a583855173ffffffffffffffffffffffffffffffffffffffff8151168252602081015160208301526040810151604083015260608101516060830152608081015160808301525050565b9284019260a09290920191600101611751565b50909695505050505050565b7f4e487b7100000000000000000000000000000000000000000000000000000000600052601160045260246000fd5b80820281158282048414176112b1576112b16117c4565b600082611840577f4e487b7100000000000000000000000000000000000000000000000000000000600052601260045260246000fd5b500490565b7f4e487b7100000000000000000000000000000000000000000000000000000000600052604160045260246000fd5b6040516101a0810167ffffffffffffffff8111828210171561189857611898611845565b60405290565b604051601f82017fffffffffffffffffffffffffffffffffffffffffffffffffffffffffffffffe016810167ffffffffffffffff811182821017156118e5576118e5611845565b604052919050565b80516118f881611425565b919050565b600060e0828403121561190f57600080fd5b60405160e0810181811067ffffffffffffffff8211171561193257611932611845565b604052825161194081611425565b8152602083015161195081611425565b6020820152604083015161196381611425565b80604083015250606083015160608201526080830151608082015260a083015160a082015260c083015160c08201528091505092915050565b600060208083850312156119af57600080fd5b825167ffffffffffffffff808211156119c757600080fd5b818501915085601f8301126119db57600080fd5b8151818111156119ed576119ed611845565b8060051b91506119fe84830161189e565b8181529183018401918481019088841115611a1857600080fd5b938501935b83851015611a425784519250611a3283611425565b8282529385019390850190611a1d565b98975050505050505050565b7f4e487b7100000000000000000000000000000000000000000000000000000000600052603260045260246000fd5b805160ff811681146118f857600080fd5b60006101a08284031215611aa157600080fd5b611aa9611874565b611ab2836118ed565b8152611ac0602084016118ed565b6020820152611ad1604084016118ed565b6040820152611ae2606084016118ed565b6060820152611af3608084016118ed565b6080820152611b0460a084016118ed565b60a0820152611b1560c08401611a7d565b60c0820152611b2660e08401611a7d565b60e08201526101008381015190820152610120808401519082015261014080840151908201526101608084015190820152610180928301519281019290925250919050565b60007fffffffffffffffffffffffffffffffffffffffffffffffffffffffffffffffff8203611b9c57611b9c6117c4565b5060010190565b818103818111156112b1576112b16117c456fea2646970667358221220ca894217ae069ee013266c30005e3ff9e1bd0c9cc7f8fe391b986f9f7c18913964736f6c63430008150033",
  "devdoc": {
    "kind": "dev",
    "methods": {
      "exactInput(address,address,uint256)": {
        "details": "returned data can be fed into `getSwapCalldata` to prepare the tx that executes the swap.",
        "params": {
          "inAmt_": "exact input token amount that should be swapped to output token",
          "tokenIn_": "input token (debt token at vault)",
          "tokenOut_": "output token (collateral token at vault)"
        },
        "returns": {
          "actualInAmt_": "actual input token amount. Equals `inAmt_`, but if less then the desired swap amount is                      available, then the available amount is returned instead.",
          "outAmt_": "received output token amount for `actualInAmt_` of input token",
          "vault_": "vault address at which the swap is available.",
          "withAbsorb_": "flag for using mode \"withAbsorb\". Is set to true if a) liquidity without absorb would not                     cover the desired `inAmt_` or if b) the rate of with absorb is better than without absorb."
        }
      },
      "exactOutput(address,address,uint256)": {
        "details": "returned data can be fed into `getSwapCalldata` to prepare the tx that executes the swap.",
        "params": {
          "outAmt_": "exact output token amount that should be received as a result of the swap",
          "tokenIn_": "input token (debt token at vault)",
          "tokenOut_": "output token (collateral token at vault)"
        },
        "returns": {
          "actualOutAmt_": "actual output token amount. Equals `outAmt_`, but if less then the desired swap amount is                      available, then the available amount is returned instead",
          "inAmt_": "required input token amount to receive `actualOutAmt_` of output token",
          "vault_": "vault address at which the swap is available.",
          "withAbsorb_": "flag for using mode \"withAbsorb\". Is set to true if a) liquidity without absorb would not                     cover the desired `outAmt_` or if b) the rate of with absorb is better than without absorb."
        }
      },
      "getSwapAvailable(address,address)": {
        "details": "returned data can be fed into `getSwapCalldata` to prepare the tx that executes the swap.expected to be called with callStatic, although this method does not do any actual state changes anyway.for native token, send 0xEeeeeEeeeEeEeeEeEeEeeEEEeeeeEeeeeeeeEEeE."
      },
      "getSwapCalldata(address,address,uint256,uint256,uint256,bool)": {
        "params": {
          "receiver_": "receiver address that the output token is sent to",
          "slippage_": "maximum allowed slippage for the expected output token amount. Reverts iIf received token out                   amount is lower than this. in 1e4 percentage, e.g. 1% = 10000, 0.3% = 3000, 0.01% = 100, 0.0001% = 1.",
          "tokenInAmt_": "input token amount (debt token at vault)",
          "tokenOutAmt_": "expected output token amount (collateral token at vault)",
          "vault_": "vault address at which the liquidation is executed",
          "withAbsorb_": "set to true to trigger liquidation with executing `absorb()` first. Liquidity is >= when this                    is set to true. Rate can be better with or without, check before via other methods."
        },
        "returns": {
          "calldata_": "the calldata that can be used to trigger the liquidation call, resulting in the desired swap."
        }
      },
      "getSwapDataForVault(address)": {
        "details": "returned data can be fed into `getSwapCalldata` to prepare the tx that executes the swap.expected to be called with callStatic, although this method does not do any actual state changes anyway."
      },
      "getSwapsAvailable(address[],address[])": {
        "details": "returned data can be fed into `getSwapCalldata` to prepare the tx that executes the swap.expected to be called with callStatic, although this method does not do any actual state changes anyway.for native token, send 0xEeeeeEeeeEeEeeEeEeEeeEEEeeeeEeeeeeeeEEeE."
      },
      "getVaultForSwap(address,address)": {
        "details": "for native token, send 0xEeeeeEeeeEeEeeEeEeEeeEEEeeeeEeeeeeeeEEeE."
      },
      "getVaultsForSwap(address[],address[])": {
        "details": "for native token, send 0xEeeeeEeeeEeEeeEeEeEeeEEEeeeeEeeeeeeeEEeE."
      }
    },
    "version": 1
  },
  "userdoc": {
    "errors": {
      "FluidVaultLiquidationsResolver__AddressZero()": [
        {
          "notice": "thrown if an input param address is zero"
        }
      ],
      "FluidVaultLiquidationsResolver__InvalidParams()": [
        {
          "notice": "thrown if an invalid param is given to a method"
        }
      ]
    },
    "kind": "user",
    "methods": {
      "constructor": {
        "notice": "constructor sets the immutable vault resolver address"
      },
      "exactInput(address,address,uint256)": {
        "notice": "finds a swap from `tokenIn_` to `tokenOut_` for an exact input amount `inAmt_`. If available amount is         less then the desired input amount, it returns the available amount. Considers the best rate available         for mode with absorb and mode without absorb."
      },
      "exactOutput(address,address,uint256)": {
        "notice": "finds a swap from `tokenIn_` to `tokenOut_` for an exact output amount `outAmt_`. If available amount is         less then the desired output amount, it returns the available amount. Considers the best rate available         for mode with absorb and mode without absorb."
      },
      "getAllSwapPairs()": {
        "notice": "returns all token swap pairs available through Fluid Vault Liquidations"
      },
      "getSwapAvailable(address,address)": {
        "notice": "finds the total available swappable amount for a `tokenIn_` to `tokenOut_` swap, considering both a swap         that uses liquidation with absorb and without absorb. Sometimes with absorb can provide better swaps,         sometimes without absorb can provide better swaps. But available liquidity for \"withAbsorb\" amounts will         always be >= normal amounts."
      },
      "getSwapCalldata(address,address,uint256,uint256,uint256,bool)": {
        "notice": "returns the calldata to execute a swap as found through this contract by triggering a vault liquidation.         `tokenInAmt_` must come from msg.sender, `tokenOutAmt_` goes to `receiver_`. If the input token is the         native token, msg.value must be sent along when triggering the actual call with the returned calldata."
      },
      "getSwapDataForVault(address)": {
        "notice": "returns the available swap (liquidation) amounts at a certain `vault_`, considering both         a swap that uses liquidation with absorb and without absorb. Sometimes with absorb can provide better swaps,         sometimes without absorb can provide better swaps. But available liquidity for \"withAbsorb\" amounts will         always be >= normal amounts."
      },
      "getSwapsAvailable(address[],address[])": {
        "notice": "finds the total available swappable amount for any `tokensIn_` to any `tokesnOut_` swap, considering both         a swap that uses liquidation with absorb and without absorb. Sometimes with absorb can provide better swaps,         sometimes without absorb can provide better swaps. But available liquidity for \"withAbsorb\" amounts will         always be >= normal amounts. Token pairs that are not available will not be listed in returned SwapData array.         e.g. for tokensIn_: USDC & USDT and tokensOut_: ETH & wstETH, this would return any available token pair incl.         the available swappable amounts, so for USDC -> ETH, USDC -> wstETH, USDT -> ETH, USDT -> wstETH."
      },
      "getVaultForSwap(address,address)": {
        "notice": "returns the vault address for a certain `tokenIn_` swapped to a `tokenOut_`.         returns zero address if no vault is available for a given pair."
      },
      "getVaultsForSwap(address[],address[])": {
        "notice": "returns all available token pair swaps for any `tokensIn_` to any `tokensOut_` with the vault address."
      }
    },
    "notice": "Resolver contract that helps in finding available token swaps through Fluid Vault liquidations.",
    "version": 1
  },
  "storageLayout": {
    "storage": [],
    "types": null
  }
}