{
  "address": "0x32eE0cB3587C6e9f8Ad2a0CF83B6Cf326848b7c6",
  "abi": [
    {
      "inputs": [
        {
          "internalType": "contract IWeETH",
          "name": "weETH_",
          "type": "address"
        },
        {
          "components": [
            {
              "components": [
                {
                  "internalType": "contract IUniswapV3Pool",
                  "name": "pool",
                  "type": "address"
                },
                {
                  "internalType": "bool",
                  "name": "invertRate",
                  "type": "bool"
                },
                {
                  "internalType": "uint256[3]",
                  "name": "tWAPMaxDeltaPercents",
                  "type": "uint256[3]"
                },
                {
                  "internalType": "uint32[5]",
                  "name": "secondsAgos",
                  "type": "uint32[5]"
                }
              ],
              "internalType": "struct UniV3OracleImpl.UniV3ConstructorParams",
              "name": "uniV3Params",
              "type": "tuple"
            },
            {
              "components": [
                {
                  "internalType": "uint8",
                  "name": "hops",
                  "type": "uint8"
                },
                {
                  "components": [
                    {
                      "internalType": "contract IChainlinkAggregatorV3",
                      "name": "feed",
                      "type": "address"
                    },
                    {
                      "internalType": "bool",
                      "name": "invertRate",
                      "type": "bool"
                    },
                    {
                      "internalType": "uint256",
                      "name": "token0Decimals",
                      "type": "uint256"
                    }
                  ],
                  "internalType": "struct ChainlinkStructs.ChainlinkFeedData",
                  "name": "feed1",
                  "type": "tuple"
                },
                {
                  "components": [
                    {
                      "internalType": "contract IChainlinkAggregatorV3",
                      "name": "feed",
                      "type": "address"
                    },
                    {
                      "internalType": "bool",
                      "name": "invertRate",
                      "type": "bool"
                    },
                    {
                      "internalType": "uint256",
                      "name": "token0Decimals",
                      "type": "uint256"
                    }
                  ],
                  "internalType": "struct ChainlinkStructs.ChainlinkFeedData",
                  "name": "feed2",
                  "type": "tuple"
                },
                {
                  "components": [
                    {
                      "internalType": "contract IChainlinkAggregatorV3",
                      "name": "feed",
                      "type": "address"
                    },
                    {
                      "internalType": "bool",
                      "name": "invertRate",
                      "type": "bool"
                    },
                    {
                      "internalType": "uint256",
                      "name": "token0Decimals",
                      "type": "uint256"
                    }
                  ],
                  "internalType": "struct ChainlinkStructs.ChainlinkFeedData",
                  "name": "feed3",
                  "type": "tuple"
                }
              ],
              "internalType": "struct ChainlinkStructs.ChainlinkConstructorParams",
              "name": "chainlinkParams",
              "type": "tuple"
            },
            {
              "components": [
                {
                  "internalType": "contract IRedstoneOracle",
                  "name": "oracle",
                  "type": "address"
                },
                {
                  "internalType": "bool",
                  "name": "invertRate",
                  "type": "bool"
                },
                {
                  "internalType": "uint256",
                  "name": "token0Decimals",
                  "type": "uint256"
                }
              ],
              "internalType": "struct RedstoneStructs.RedstoneOracleData",
              "name": "redstoneOracle",
              "type": "tuple"
            },
            {
              "internalType": "uint8",
              "name": "rateSource",
              "type": "uint8"
            },
            {
              "internalType": "uint8",
              "name": "fallbackMainSource",
              "type": "uint8"
            },
            {
              "internalType": "uint256",
              "name": "rateCheckMaxDeltaPercent",
              "type": "uint256"
            }
          ],
          "internalType": "struct UniV3CheckCLRSOracle.UniV3CheckCLRSConstructorParams",
          "name": "uniV3CheckCLRSParams_",
          "type": "tuple"
        }
      ],
      "stateMutability": "nonpayable",
      "type": "constructor"
    },
    {
      "inputs": [
        {
          "internalType": "uint256",
          "name": "errorId_",
          "type": "uint256"
        }
      ],
      "name": "FluidOracleError",
      "type": "error"
    },
    {
      "inputs": [],
      "name": "chainlinkOracleData",
      "outputs": [
        {
          "internalType": "uint256",
          "name": "chainlinkExchangeRate_",
          "type": "uint256"
        },
        {
          "internalType": "contract IChainlinkAggregatorV3",
          "name": "chainlinkFeed1_",
          "type": "address"
        },
        {
          "internalType": "bool",
          "name": "chainlinkInvertRate1_",
          "type": "bool"
        },
        {
          "internalType": "uint256",
          "name": "chainlinkExchangeRate1_",
          "type": "uint256"
        },
        {
          "internalType": "contract IChainlinkAggregatorV3",
          "name": "chainlinkFeed2_",
          "type": "address"
        },
        {
          "internalType": "bool",
          "name": "chainlinkInvertRate2_",
          "type": "bool"
        },
        {
          "internalType": "uint256",
          "name": "chainlinkExchangeRate2_",
          "type": "uint256"
        },
        {
          "internalType": "contract IChainlinkAggregatorV3",
          "name": "chainlinkFeed3_",
          "type": "address"
        },
        {
          "internalType": "bool",
          "name": "chainlinkInvertRate3_",
          "type": "bool"
        },
        {
          "internalType": "uint256",
          "name": "chainlinkExchangeRate3_",
          "type": "uint256"
        }
      ],
      "stateMutability": "view",
      "type": "function"
    },
    {
      "inputs": [],
      "name": "getExchangeRate",
      "outputs": [
        {
          "internalType": "uint256",
          "name": "exchangeRate_",
          "type": "uint256"
        }
      ],
      "stateMutability": "view",
      "type": "function"
    },
    {
      "inputs": [],
      "name": "getExchangeRateLiquidate",
      "outputs": [
        {
          "internalType": "uint256",
          "name": "exchangeRate_",
          "type": "uint256"
        }
      ],
      "stateMutability": "view",
      "type": "function"
    },
    {
      "inputs": [],
      "name": "getExchangeRateOperate",
      "outputs": [
        {
          "internalType": "uint256",
          "name": "exchangeRate_",
          "type": "uint256"
        }
      ],
      "stateMutability": "view",
      "type": "function"
    },
    {
      "inputs": [],
      "name": "redstoneOracleData",
      "outputs": [
        {
          "internalType": "uint256",
          "name": "redstoneExchangeRate_",
          "type": "uint256"
        },
        {
          "internalType": "contract IRedstoneOracle",
          "name": "redstoneOracle_",
          "type": "address"
        },
        {
          "internalType": "bool",
          "name": "redstoneInvertRate_",
          "type": "bool"
        }
      ],
      "stateMutability": "view",
      "type": "function"
    },
    {
      "inputs": [],
      "name": "uniV3CheckOracleData",
      "outputs": [
        {
          "internalType": "uint256",
          "name": "rateCheckMaxDelta_",
          "type": "uint256"
        },
        {
          "internalType": "uint256",
          "name": "rateSource_",
          "type": "uint256"
        },
        {
          "internalType": "uint256",
          "name": "fallbackMainSource_",
          "type": "uint256"
        }
      ],
      "stateMutability": "view",
      "type": "function"
    },
    {
      "inputs": [],
      "name": "uniV3OracleData",
      "outputs": [
        {
          "internalType": "contract IUniswapV3Pool",
          "name": "uniV3Pool_",
          "type": "address"
        },
        {
          "internalType": "bool",
          "name": "uniV3InvertRate_",
          "type": "bool"
        },
        {
          "internalType": "uint32[]",
          "name": "uniV3secondsAgos_",
          "type": "uint32[]"
        },
        {
          "internalType": "uint256[]",
          "name": "uniV3TwapDeltas_",
          "type": "uint256[]"
        },
        {
          "internalType": "uint256",
          "name": "uniV3exchangeRateUnsafe_",
          "type": "uint256"
        },
        {
          "internalType": "uint256",
          "name": "uniV3exchangeRate_",
          "type": "uint256"
        }
      ],
      "stateMutability": "view",
      "type": "function"
    },
    {
      "inputs": [],
      "name": "weETHOracleData",
      "outputs": [
        {
          "internalType": "uint256",
          "name": "weETHExchangeRate_",
          "type": "uint256"
        },
        {
          "internalType": "contract IWeETH",
          "name": "weETH_",
          "type": "address"
        }
      ],
      "stateMutability": "view",
      "type": "function"
    }
  ],
  "transactionHash": "0xe9e46bc892c68afe39b790b43220e880128e4507c0bd7adc5b2782d91ddcf8d1",
  "args": [
    "0xcd5fe23c85820f7b72d0926fc9b05b43e359b7ee",
    {
      "chainlinkParams": {
        "hops": 1,
        "feed1": {
          "feed": "0xEe9F2375b4bdF6387aa8265dD4FB8F16512A1d46",
          "invertRate": true,
          "token0Decimals": 6
        },
        "feed2": {
          "feed": "0x0000000000000000000000000000000000000000",
          "invertRate": false,
          "token0Decimals": 0
        },
        "feed3": {
          "feed": "0x0000000000000000000000000000000000000000",
          "invertRate": false,
          "token0Decimals": 0
        }
      },
      "uniV3Params": {
        "pool": "0x88e6a0c2ddd26feeb64f039a2c41296fcb3f5640",
        "secondsAgos": [
          240,
          60,
          15,
          1,
          0
        ],
        "tWAPMaxDeltaPercents": [
          200,
          50,
          20
        ],
        "invertRate": true
      },
      "redstoneOracle": {
        "oracle": "0x0000000000000000000000000000000000000000",
        "invertRate": false,
        "token0Decimals": 0
      },
      "rateSource": 2,
      "fallbackMainSource": 1,
      "rateCheckMaxDeltaPercent": 300
    }
  ],
  "numDeployments": 1,
  "solcInputHash": "1989963ad64c4704dbe1170530c79d20",
  "bytecode": "0x61054060405261dead610340523480156200001957600080fd5b5060405162003734380380620037348339810160408190526200003c91620009b8565b808060800151816020015182604001518160006001600160a01b031682600001516001600160a01b0316146200007357816200009f565b6040518060600160405280610340516001600160a01b0316815260200160001515815260200160018152505b8551886001600160a01b038116620000d45760405163c82fc46560e01b81526201117160048201526024015b60405180910390fd5b6001600160a01b03811660a052620000ef6012601b62000b1f565b620000fc90600a62000c38565b6080525080516001600160a01b03166200012e5760405163c82fc46560e01b815261f2316004820152602401620000cb565b60608101516020810151905163ffffffff91821691161115806200016e57506060810151604081015163ffffffff16906001602002015163ffffffff1611155b806200019657506060818101519081015163ffffffff16906002602002015163ffffffff1611155b80620001be57506060810151608081015163ffffffff16906003602002015163ffffffff1611155b15620001e25760405163c82fc46560e01b815261f2326004820152602401620000cb565b60408101515161271011158062000203575060408101518051602090910151115b806200021a57506040818101516020810151910151115b156200023e5760405163c82fc46560e01b815261f2336004820152602401620000cb565b606081810180515163ffffffff90811661016052815160209081015182166101805282516040015182166101a05282519093015181166101c052815160800151166101e0525190810151905162000296919062000c4d565b63ffffffff166102005260608101516040810151602090910151620002bc919062000c4d565b63ffffffff166102205260608181015190810151604090910151620002e2919062000c4d565b63ffffffff1661024052606081810151608081015191015162000306919062000c4d565b63ffffffff16610260526040818101805151610100528051602090810151610120529051909101516101405281516001600160a01b031660c052810151151560e05262000356601b600a62000c38565b6102805262000368601b600262000c74565b6200037590600a62000c38565b6102a0525080516001600160a01b031615806200039457506040810151155b15620003b85760405163c82fc46560e01b815261fa016004820152602401620000cb565b80516001600160a01b039081166102c052602082015115156102e052610340518251821691161462000409576040810151620003f690601b62000b1f565b6200040390600a62000c38565b6200040c565b60015b610300526103405181516001600160a01b039081169116146200044e5760408101516200043b90601b62000c8e565b6200044890600a62000c38565b62000451565b60015b61032052508051600160ff90911610806200047357506003816000015160ff16115b806200049c57506020810151516001600160a01b031615806200049c5750602081015160400151155b80620004d757506001816000015160ff16118015620004d757506040810151516001600160a01b03161580620004d757506040808201510151155b806200051357506002816000015160ff161180156200051357506060810151516001600160a01b03161580620005135750606081015160400151155b15620005375760405163c82fc46560e01b815261ee496004820152602401620000cb565b60208082018051516001600160a01b03908116610360526040808501805151831661038052606086018051519093166103a052835185015115156103c0525184015115156103e0529051909201511515610400525101516200059b90601b62000b1f565b620005a890600a62000c38565b61042052602081015160400151620005c290601b62000c8e565b620005cf90600a62000c38565b610440528051600160ff90911611620005ea5760016200060c565b6040808201510151620005ff90601b62000b1f565b6200060c90600a62000c38565b610460528051600160ff909116116200062757600162000649565b60408082015101516200063c90601b62000c8e565b6200064990600a62000c38565b610480528051600260ff909116116200066457600162000687565b6060810151604001516200067a90601b62000b1f565b6200068790600a62000c38565b6104a0528051600260ff90911611620006a2576001620006c5565b606081015160400151620006b890601b62000c8e565b620006c590600a62000c38565b6104c05250600160ff84161080620006e0575060038360ff16115b15620007045760405163c82fc46560e01b815261fde96004820152602401620000cb565b505060ff9081166104e05260608201516001911610806200072c57506003816060015160ff16115b806200073d57506127108160a00151115b80620007635750806080015160ff166001148015620007635750806060015160ff166003145b15620007875760405163c82fc46560e01b815261ea626004820152602401620000cb565b60a0810151610500526060015160ff16610520525062000ca49050565b6001600160a01b0381168114620007ba57600080fd5b50565b634e487b7160e01b600052604160045260246000fd5b604051606081016001600160401b0381118282101715620007f857620007f8620007bd565b60405290565b604051608081016001600160401b0381118282101715620007f857620007f8620007bd565b60405160c081016001600160401b0381118282101715620007f857620007f8620007bd565b805180151581146200085957600080fd5b919050565b600082601f8301126200087057600080fd5b60405160a081016001600160401b0381118282101715620008955762000895620007bd565b6040528060a0840185811115620008ab57600080fd5b845b81811015620008db57805163ffffffff81168114620008cc5760008081fd5b835260209283019201620008ad565b509195945050505050565b805160ff811681146200085957600080fd5b6000606082840312156200090b57600080fd5b62000915620007d3565b905081516200092481620007a4565b8152620009346020830162000848565b60208201526040820151604082015292915050565b600061014082840312156200095d57600080fd5b62000967620007fe565b90506200097482620008e6565b8152620009858360208401620008f8565b6020820152620009998360808401620008f8565b6040820152620009ad8360e08401620008f8565b606082015292915050565b600080828403610360811215620009ce57600080fd5b8351620009db81620007a4565b9250601f1901602061034080831215620009f457600080fd5b620009fe62000823565b61014084121562000a0e57600080fd5b62000a18620007fe565b93508287015162000a2981620007a4565b845262000a396040880162000848565b8385015287607f88011262000a4d57600080fd5b62000a57620007d3565b8060c089018a81111562000a6a57600080fd5b60608a015b8181101562000a88578051845292860192860162000a6f565b5081604088015262000a9b8b826200085e565b606088015250505083815262000ab688610160890162000949565b8382015262000aca886102a08901620008f8565b604082015262000ade6103008801620008e6565b606082015262000af26103208801620008e6565b608082015295015160a08601525091949293505050565b634e487b7160e01b600052601160045260246000fd5b8181038181111562000b355762000b3562000b09565b92915050565b600181815b8085111562000b7c57816000190482111562000b605762000b6062000b09565b8085161562000b6e57918102915b93841c939080029062000b40565b509250929050565b60008262000b955750600162000b35565b8162000ba45750600062000b35565b816001811462000bbd576002811462000bc85762000be8565b600191505062000b35565b60ff84111562000bdc5762000bdc62000b09565b50506001821b62000b35565b5060208310610133831016604e8410600b841016171562000c0d575081810a62000b35565b62000c19838362000b3b565b806000190482111562000c305762000c3062000b09565b029392505050565b600062000c46838362000b84565b9392505050565b63ffffffff82811682821603908082111562000c6d5762000c6d62000b09565b5092915050565b808202811582820484141762000b355762000b3562000b09565b8082018082111562000b355762000b3562000b09565b60805160a05160c05160e05161010051610120516101405161016051610180516101a0516101c0516101e05161020051610220516102405161026051610280516102a0516102c0516102e05161030051610320516103405161036051610380516103a0516103c0516103e05161040051610420516104405161046051610480516104a0516104c0516104e051610500516105205161277462000fc06000396000818161016201528181611451015281816114cc01528181611647015281816116d801528181611742015261181401526000818161013d015281816115eb01528181611790015261184e01526000818161018a0152818161161c015281816116ad0152818161170901528181611e4f01528181611e880152611ec10152600081816104fb0152610c810152600081816104da0152610c600152600081816104090152610b8a0152600081816103e80152610b6901526000818161031f0152610aa70152600081816102fe0152610a86015260008181610458015281816104b90152610c3f015260008181610366015281816103c70152610b48015260008181610298015281816102dd0152610a650152600081816104370152818161049801528181610bce0152610c1e015260008181610345015281816103a601528181610ad70152610b27015260008181610277015281816102bc0152610a440152600061054e01526000610e4d01526000610e7c0152600081816105f50152610e23015260008181610585015281816105d20152610d74015260006118f8015260006118ac01526000818161119201526111d5015260006113aa01526000611311015260006112780152600081816107c1015261105f015260008181610773015261103901526000818161072501526110130152600081816106d70152610fed0152600081816106890152610fc70152600081816108a901526113cb0152600081816108690152611332015260008181610829015261129901526000818161090a01528181610f4a01526114150152600081816108e901528181610eb301526110a201526000818161023901526109c80152600061099101526127746000f3fe608060405234801561001057600080fd5b50600436106100885760003560e01c80638e7bfbc01161005b5780638e7bfbc0146101f3578063a6ac913414610209578063e6aa216c14610223578063f3190c89146101f357600080fd5b80631b3904f21461008d5780637557ca41146100c45780637cebd7c51461013757806388c35209146101b9575b600080fd5b61009561022b565b6040805192835273ffffffffffffffffffffffffffffffffffffffff9091166020830152015b60405180910390f35b6100cc61025e565b604080519a8b5273ffffffffffffffffffffffffffffffffffffffff998a1660208c0152971515978a01979097526060890195909552928616608088015290151560a087015260c086015290921660e0840152901515610100830152610120820152610140016100bb565b604080517f0000000000000000000000000000000000000000000000000000000000000000815260ff7f0000000000000000000000000000000000000000000000000000000000000000811660208301527f000000000000000000000000000000000000000000000000000000000000000016918101919091526060016100bb565b6101c1610547565b6040805193845273ffffffffffffffffffffffffffffffffffffffff90921660208401521515908201526060016100bb565b6101fb61061a565b6040519081526020016100bb565b610211610651565b6040516100bb96959493929190612169565b6101fb61094e565b600080610236610958565b927f000000000000000000000000000000000000000000000000000000000000000092509050565b600080600080600080600080600080610275610a3d565b7f00000000000000000000000000000000000000000000000000000000000000007f00000000000000000000000000000000000000000000000000000000000000006103437f00000000000000000000000000000000000000000000000000000000000000007f00000000000000000000000000000000000000000000000000000000000000007f00000000000000000000000000000000000000000000000000000000000000007f0000000000000000000000000000000000000000000000000000000000000000610caf565b7f00000000000000000000000000000000000000000000000000000000000000007f000000000000000000000000000000000000000000000000000000000000000073ffffffffffffffffffffffffffffffffffffffff8216156104325761042d7f00000000000000000000000000000000000000000000000000000000000000007f00000000000000000000000000000000000000000000000000000000000000007f00000000000000000000000000000000000000000000000000000000000000007f0000000000000000000000000000000000000000000000000000000000000000610caf565b610435565b60005b7f00000000000000000000000000000000000000000000000000000000000000007f000000000000000000000000000000000000000000000000000000000000000073ffffffffffffffffffffffffffffffffffffffff8216156105245761051f7f00000000000000000000000000000000000000000000000000000000000000007f00000000000000000000000000000000000000000000000000000000000000007f00000000000000000000000000000000000000000000000000000000000000007f0000000000000000000000000000000000000000000000000000000000000000610caf565b610527565b60005b995099509950995099509950995099509950995090919293949596979899565b60008060007f000000000000000000000000000000000000000000000000000000000000000073ffffffffffffffffffffffffffffffffffffffff167f000000000000000000000000000000000000000000000000000000000000000073ffffffffffffffffffffffffffffffffffffffff16146105cc576105c7610d70565b6105cf565b60005b937f000000000000000000000000000000000000000000000000000000000000000093507f000000000000000000000000000000000000000000000000000000000000000092509050565b6000610628601b600a612349565b610630610958565b610638610ea4565b6106429190612355565b61064c919061239b565b905090565b60008060608082806005604051908082528060200260200182016040528015610684578160200160208202803683370190505b5093507f0000000000000000000000000000000000000000000000000000000000000000846000815181106106bb576106bb6123de565b602002602001019063ffffffff16908163ffffffff16815250507f000000000000000000000000000000000000000000000000000000000000000084600181518110610709576107096123de565b602002602001019063ffffffff16908163ffffffff16815250507f000000000000000000000000000000000000000000000000000000000000000084600281518110610757576107576123de565b602002602001019063ffffffff16908163ffffffff16815250507f0000000000000000000000000000000000000000000000000000000000000000846003815181106107a5576107a56123de565b602002602001019063ffffffff16908163ffffffff16815250507f0000000000000000000000000000000000000000000000000000000000000000846004815181106107f3576107f36123de565b63ffffffff92909216602092830291909101820152604080516003808252608082019092529182016060803683370190505092507f00000000000000000000000000000000000000000000000000000000000000008360008151811061085b5761085b6123de565b6020026020010181815250507f00000000000000000000000000000000000000000000000000000000000000008360018151811061089b5761089b6123de565b6020026020010181815250507f0000000000000000000000000000000000000000000000000000000000000000836002815181106108db576108db6123de565b6020026020010181815250507f00000000000000000000000000000000000000000000000000000000000000007f00000000000000000000000000000000000000000000000000000000000000008585610933610eae565b61093b610f8c565b949b939a50919850965094509092509050565b600061064c61061a565b6040517f94626044000000000000000000000000000000000000000000000000000000008152670de0b6b3a764000060048201526000907f00000000000000000000000000000000000000000000000000000000000000009073ffffffffffffffffffffffffffffffffffffffff7f00000000000000000000000000000000000000000000000000000000000000001690639462604490602401602060405180830381865afa158015610a0f573d6000803e3d6000fd5b505050506040513d601f19601f82011682018060405250810190610a33919061240d565b61064c9190612355565b6000610acb7f00000000000000000000000000000000000000000000000000000000000000007f00000000000000000000000000000000000000000000000000000000000000007f00000000000000000000000000000000000000000000000000000000000000007f0000000000000000000000000000000000000000000000000000000000000000610caf565b9050801580610b0e57507f000000000000000000000000000000000000000000000000000000000000000073ffffffffffffffffffffffffffffffffffffffff16155b15610b165790565b610b22601b600a612349565b610bae7f00000000000000000000000000000000000000000000000000000000000000007f00000000000000000000000000000000000000000000000000000000000000007f00000000000000000000000000000000000000000000000000000000000000007f0000000000000000000000000000000000000000000000000000000000000000610caf565b610bb89083612355565b610bc2919061239b565b9050801580610c0557507f000000000000000000000000000000000000000000000000000000000000000073ffffffffffffffffffffffffffffffffffffffff16155b15610c0d5790565b610c19601b600a612349565b610ca57f00000000000000000000000000000000000000000000000000000000000000007f00000000000000000000000000000000000000000000000000000000000000007f00000000000000000000000000000000000000000000000000000000000000007f0000000000000000000000000000000000000000000000000000000000000000610caf565b6106429083612355565b60008473ffffffffffffffffffffffffffffffffffffffff1663feaf968c6040518163ffffffff1660e01b815260040160a060405180830381865afa925050508015610d36575060408051601f3d9081017fffffffffffffffffffffffffffffffffffffffffffffffffffffffffffffffe0168201909252610d3391810190612445565b60015b610d4257506000610d68565b8815610d5e57610d52848861239b565b95505050505050610d68565b610d528885612355565b949350505050565b60007f000000000000000000000000000000000000000000000000000000000000000073ffffffffffffffffffffffffffffffffffffffff1663e6aa216c6040518163ffffffff1660e01b8152600401602060405180830381865afa925050508015610e17575060408051601f3d9081017fffffffffffffffffffffffffffffffffffffffffffffffffffffffffffffffe0168201909252610e149181019061240d565b60015b610e215750600090565b7f000000000000000000000000000000000000000000000000000000000000000015610e7757610e71817f000000000000000000000000000000000000000000000000000000000000000061239b565b91505090565b610e717f000000000000000000000000000000000000000000000000000000000000000082612355565b90565b600061064c61144d565b6000807f000000000000000000000000000000000000000000000000000000000000000073ffffffffffffffffffffffffffffffffffffffff16633850c7bd6040518163ffffffff1660e01b815260040160e060405180830381865afa158015610f1c573d6000803e3d6000fd5b505050506040513d601f19601f82011682018060405250810190610f4091906124b7565b50505050505090507f0000000000000000000000000000000000000000000000000000000000000000610f7b57610f7681611885565b610e71565b610e71610f8782611885565b6118f0565b6040517f883bdbfd000000000000000000000000000000000000000000000000000000006020808301919091526024820152600560448201527f000000000000000000000000000000000000000000000000000000000000000060648201527f000000000000000000000000000000000000000000000000000000000000000060848201527f000000000000000000000000000000000000000000000000000000000000000060a48201527f000000000000000000000000000000000000000000000000000000000000000060c48201527f000000000000000000000000000000000000000000000000000000000000000060e482015260009081906101040160405160208183030381529060405290506000807f000000000000000000000000000000000000000000000000000000000000000073ffffffffffffffffffffffffffffffffffffffff16836040516110e5919061256a565b600060405180830381855afa9150503d8060008114611120576040519150601f19603f3d011682016040523d82523d6000602084013e611125565b606091505b509150915081611139576000935050505090565b60008180602001905181019061114f91906125ab565b905060008082600381518110611167576111676123de565b602002602001015183600360010181518110611185576111856123de565b60200260200101510390507f00000000000000000000000000000000000000000000000000000000000000008160060b816111c2576111c261236c565b05915060008160060b12801561120957507f00000000000000000000000000000000000000000000000000000000000000008160060b816112055761120561236c565b0715155b15611234577fffffffffffffffffffffffffffffffffffffffffffffffffffffffffffffffff909101905b506112bd8160020b8360008151811061124f5761124f6123de565b60200260200101518460018151811061126a5761126a6123de565b60200260200101510360060b7f00000000000000000000000000000000000000000000000000000000000000007f000000000000000000000000000000000000000000000000000000000000000061191c565b156112ce5760009550505050505090565b6113568160020b836001815181106112e8576112e86123de565b602002602001015184600281518110611303576113036123de565b60200260200101510360060b7f00000000000000000000000000000000000000000000000000000000000000007f000000000000000000000000000000000000000000000000000000000000000061191c565b156113675760009550505050505090565b6113ef8160020b83600281518110611381576113816123de565b60200260200101518460038151811061139c5761139c6123de565b60200260200101510360060b7f00000000000000000000000000000000000000000000000000000000000000007f000000000000000000000000000000000000000000000000000000000000000061191c565b156114005760009550505050505090565b61141161140c826119a3565b611885565b95507f00000000000000000000000000000000000000000000000000000000000000001561144557611442866118f0565b95505b505050505090565b60007f000000000000000000000000000000000000000000000000000000000000000060ff166001036114c757611482610f8c565b905080600003610ea1576040517fc82fc46500000000000000000000000000000000000000000000000000000000815261ea6360048201526024015b60405180910390fd5b6000807f000000000000000000000000000000000000000000000000000000000000000060ff16600203611574576114fd610f8c565b9250826000036115545761150f611e38565b92508260000361154f576040517fc82fc46500000000000000000000000000000000000000000000000000000000815261ea6360048201526024016114be565b505090565b61155c611e83565b9092509050600082900361156f57505090565b6115e4565b61157c611e83565b9093509050611589610f8c565b9150826000036115d757816000036115d1576040517fc82fc46500000000000000000000000000000000000000000000000000000000815261ea6360048201526024016114be565b50919050565b816000036115e457505090565b61160f83837f0000000000000000000000000000000000000000000000000000000000000000611f28565b1561154f5780156116ab577f000000000000000000000000000000000000000000000000000000000000000060ff16600303611675577f000000000000000000000000000000000000000000000000000000000000000060ff166002146115d157505090565b6040517fc82fc46500000000000000000000000000000000000000000000000000000000815261ea6160048201526024016114be565b7f000000000000000000000000000000000000000000000000000000000000000060ff16600103611707577f000000000000000000000000000000000000000000000000000000000000000060ff1660020361154f5750919050565b7f000000000000000000000000000000000000000000000000000000000000000060ff166002036117c857600061173c610d70565b905060007f000000000000000000000000000000000000000000000000000000000000000060ff166002036117745750918290611779565b509283905b8160000361178957949350505050565b6117b485857f0000000000000000000000000000000000000000000000000000000000000000611f28565b156117c157949350505050565b5050505090565b60006117d2610a3d565b905080600003611812576040517fc82fc46500000000000000000000000000000000000000000000000000000000815261ea6160048201526024016114be565b7f000000000000000000000000000000000000000000000000000000000000000060ff16600303611844579392505050565b80925061187284847f0000000000000000000000000000000000000000000000000000000000000000611f28565b1561187f57509092915050565b50505090565b60006118ea6118aa73ffffffffffffffffffffffffffffffffffffffff841680612355565b7f00000000000000000000000000000000000000000000000000000000000000007801000000000000000000000000000000000000000000000000611f6e565b92915050565b60006118ea827f000000000000000000000000000000000000000000000000000000000000000061239b565b60008083858161192e5761192e61236c565b05905060008512801561194f575083858161194b5761194b61236c565b0715155b15611977577fffffffffffffffffffffffffffffffffffffffffffffffffffffffffffffffff015b828101861380611988575082810386125b15611997576001915050610d68565b50600095945050505050565b60008060008360020b126119ba578260020b6119c7565b8260020b6119c79061268e565b90506119f27ffffffffffffffffffffffffffffffffffffffffffffffffffffffffffff276186126c6565b60020b811115611a5e576040517f08c379a000000000000000000000000000000000000000000000000000000000815260206004820152600160248201527f540000000000000000000000000000000000000000000000000000000000000060448201526064016114be565b600081600116600003611a8257700100000000000000000000000000000000611a94565b6ffffcb933bd6fad37aa2d162d1a5940015b70ffffffffffffffffffffffffffffffffff1690506002821615611ad3576080611ace826ffff97272373d413259a46990580e213a612355565b901c90505b6004821615611afd576080611af8826ffff2e50f5f656932ef12357cf3c7fdcc612355565b901c90505b6008821615611b27576080611b22826fffe5caca7e10e4e61c3624eaa0941cd0612355565b901c90505b6010821615611b51576080611b4c826fffcb9843d60f6159c9db58835c926644612355565b901c90505b6020821615611b7b576080611b76826fff973b41fa98c081472e6896dfb254c0612355565b901c90505b6040821615611ba5576080611ba0826fff2ea16466c96a3843ec78b326b52861612355565b901c90505b6080821615611bcf576080611bca826ffe5dee046a99a2a811c461f1969c3053612355565b901c90505b610100821615611bfa576080611bf5826ffcbe86c7900a88aedcffc83b479aa3a4612355565b901c90505b610200821615611c25576080611c20826ff987a7253ac413176f2b074cf7815e54612355565b901c90505b610400821615611c50576080611c4b826ff3392b0822b70005940c7a398e4b70f3612355565b901c90505b610800821615611c7b576080611c76826fe7159475a2c29b7443b29c7fa6e889d9612355565b901c90505b611000821615611ca6576080611ca1826fd097f3bdfd2022b8845ad8f792aa5825612355565b901c90505b612000821615611cd1576080611ccc826fa9f746462d870fdf8a65dc1f90e061e5612355565b901c90505b614000821615611cfc576080611cf7826f70d869a156d2a1b890bb3df62baf32f7612355565b901c90505b618000821615611d27576080611d22826f31be135f97d08fd981231505542fcfa6612355565b901c90505b62010000821615611d53576080611d4e826f09aa508b5b7a84e1c677de54f3e99bc9612355565b901c90505b62020000821615611d7e576080611d79826e5d6af8dedb81196699c329225ee604612355565b901c90505b62040000821615611da8576080611da3826d2216e584f5fa1ea926041bedfe98612355565b901c90505b62080000821615611dd0576080611dcb826b048a170391f7dc42444e8fa2612355565b901c90505b60008460020b1315611e0957611e06817fffffffffffffffffffffffffffffffffffffffffffffffffffffffffffffffff61239b565b90505b611e1864010000000082612704565b15611e24576001611e27565b60005b610d689060ff16602083901c612718565b6000611e42610a3d565b905080158015611e7657507f000000000000000000000000000000000000000000000000000000000000000060ff16600114155b15610ea15761064c610d70565b6000807f000000000000000000000000000000000000000000000000000000000000000060ff16600103611ebf57611eb9610a3d565b91509091565b7f000000000000000000000000000000000000000000000000000000000000000060ff16600203611f0b57611ef2610a3d565b915081600003611f0757506001611eb9610d70565b9091565b611f13610d70565b915081600003611f0757506001611eb9610a3d565b600080612710611f388486612355565b611f42919061239b565b9050611f4e8185612718565b851180611f635750611f60818561272b565b85105b9150505b9392505050565b600080807fffffffffffffffffffffffffffffffffffffffffffffffffffffffffffffffff85870985870292508281108382030391505080600003611fc55760008411611fba57600080fd5b508290049050611f67565b808411611fd157600080fd5b600084868809808403938111909203919050600085612010817fffffffffffffffffffffffffffffffffffffffffffffffffffffffffffffffff61272b565b61201b906001612718565b1695869004959384900493600081900304600101905061203b8184612355565b90931792600061204c876003612355565b600218905061205b8188612355565b61206690600261272b565b6120709082612355565b905061207c8188612355565b61208790600261272b565b6120919082612355565b905061209d8188612355565b6120a890600261272b565b6120b29082612355565b90506120be8188612355565b6120c990600261272b565b6120d39082612355565b90506120df8188612355565b6120ea90600261272b565b6120f49082612355565b90506121008188612355565b61210b90600261272b565b6121159082612355565b90506121218186612355565b9998505050505050505050565b600081518084526020808501945080840160005b8381101561215e57815187529582019590820190600101612142565b509495945050505050565b600060c0820173ffffffffffffffffffffffffffffffffffffffff8916835260208815158185015260c0604085015281885180845260e086019150828a01935060005b818110156121ce57845163ffffffff16835293830193918301916001016121ac565b505084810360608601526121e2818961212e565b60808601979097525050505060a00152949350505050565b7f4e487b7100000000000000000000000000000000000000000000000000000000600052601160045260246000fd5b600181815b8085111561228257817fffffffffffffffffffffffffffffffffffffffffffffffffffffffffffffffff04821115612268576122686121fa565b8085161561227557918102915b93841c939080029061222e565b509250929050565b600082612299575060016118ea565b816122a6575060006118ea565b81600181146122bc57600281146122c6576122e2565b60019150506118ea565b60ff8411156122d7576122d76121fa565b50506001821b6118ea565b5060208310610133831016604e8410600b8410161715612305575081810a6118ea565b61230f8383612229565b807fffffffffffffffffffffffffffffffffffffffffffffffffffffffffffffffff04821115612341576123416121fa565b029392505050565b6000611f67838361228a565b80820281158282048414176118ea576118ea6121fa565b7f4e487b7100000000000000000000000000000000000000000000000000000000600052601260045260246000fd5b6000826123aa576123aa61236c565b500490565b7f4e487b7100000000000000000000000000000000000000000000000000000000600052604160045260246000fd5b7f4e487b7100000000000000000000000000000000000000000000000000000000600052603260045260246000fd5b60006020828403121561241f57600080fd5b5051919050565b805169ffffffffffffffffffff8116811461244057600080fd5b919050565b600080600080600060a0868803121561245d57600080fd5b61246686612426565b945060208601519350604086015192506060860151915061248960808701612426565b90509295509295909350565b805161ffff8116811461244057600080fd5b8051801515811461244057600080fd5b600080600080600080600060e0888a0312156124d257600080fd5b875173ffffffffffffffffffffffffffffffffffffffff811681146124f657600080fd5b8097505060208801518060020b811461250e57600080fd5b955061251c60408901612495565b945061252a60608901612495565b935061253860808901612495565b925060a088015160ff8116811461254e57600080fd5b915061255c60c089016124a7565b905092959891949750929550565b6000825160005b8181101561258b5760208186018101518583015201612571565b506000920191825250919050565b8051600681900b811461244057600080fd5b600060208083850312156125be57600080fd5b825167ffffffffffffffff808211156125d657600080fd5b818501915085601f8301126125ea57600080fd5b8151818111156125fc576125fc6123af565b8060051b6040517fffffffffffffffffffffffffffffffffffffffffffffffffffffffffffffffe0603f8301168101818110858211171561263f5761263f6123af565b60405291825284820192508381018501918883111561265d57600080fd5b938501935b828510156126825761267385612599565b84529385019392850192612662565b98975050505050505050565b60007f800000000000000000000000000000000000000000000000000000000000000082036126bf576126bf6121fa565b5060000390565b60008160020b7fffffffffffffffffffffffffffffffffffffffffffffffffffffffffff80000081036126fb576126fb6121fa565b60000392915050565b6000826127135761271361236c565b500690565b808201808211156118ea576118ea6121fa565b818103818111156118ea576118ea6121fa56fea26469706673582212206e4e824f75361a91b28beede42476d17fb3595647c6d9b91736f87f2a709b75464736f6c63430008150033",
  "devdoc": {
    "kind": "dev",
    "methods": {
      "constructor": {
        "params": {
          "uniV3CheckCLRSParams_": "UniV3CheckCLRSOracle constructor params",
          "weETH_": "address of the weETH contract"
        }
      },
      "getExchangeRate()": {
        "details": "Deprecated. Use `getExchangeRateOperate()` and `getExchangeRateLiquidate()` instead. Only implemented for      backwards compatibility."
      }
    },
    "title": "weETHOracle combined with a uniV3CheckCLRSOracle.",
    "version": 1
  },
  "userdoc": {
    "kind": "user",
    "methods": {
      "chainlinkOracleData()": {
        "notice": "returns all Chainlink oracle related data as utility for easy off-chain use / block explorer in a single view method"
      },
      "constructor": {
        "notice": "constructs a WeETHUniV3CheckCLRSOracle with all inherited contracts"
      },
      "getExchangeRateLiquidate()": {
        "notice": "Get the `exchangeRate_` between the underlying asset and the peg asset in 1e27 for liquidations"
      },
      "getExchangeRateOperate()": {
        "notice": "Get the `exchangeRate_` between the underlying asset and the peg asset in 1e27 for operates"
      },
      "redstoneOracleData()": {
        "notice": "returns all Redstone oracle related data as utility for easy off-chain use / block explorer in a single view method"
      },
      "uniV3CheckOracleData()": {
        "notice": "returns all oracle related data as utility for easy off-chain / block explorer use in a single view method"
      },
      "uniV3OracleData()": {
        "notice": "returns all UniV3 oracle related data as utility for easy off-chain use / block explorer in a single view method"
      },
      "weETHOracleData()": {
        "notice": "returns all weETH oracle related data as utility for easy off-chain use / block explorer in a single view method"
      }
    },
    "notice": "Gets the exchange rate between the underlying asset and the peg asset by using:          1. weETH Oracle price for weETH -> eETH = ETH (pegged)          2. result from 1. combined with a uniV3CheckCLRSOracle to get someToken (e.g. ETH) -> someToken2.          e.g. when going from weETH to USDC:          1. weETH -> eETH = ETH via weETH Oracle          2. ETH -> USDC via UniV3 ETH <> USDC pool checked against ETH -> USDC Chainlink feed.",
    "version": 1
  },
  "storageLayout": {
    "storage": [],
    "types": null
  }
}