{
  "address": "0x322F7FCEA001bEBB63413f42B0028E5A81b933EF",
  "abi": [
    {
      "inputs": [
        {
          "internalType": "contract IWstETH",
          "name": "wstETH",
          "type": "address"
        },
        {
          "internalType": "contract IWeETH",
          "name": "weETH",
          "type": "address"
        }
      ],
      "stateMutability": "nonpayable",
      "type": "constructor"
    },
    {
      "inputs": [
        {
          "internalType": "uint256",
          "name": "errorId_",
          "type": "uint256"
        }
      ],
      "name": "FluidOracleError",
      "type": "error"
    },
    {
      "inputs": [],
      "name": "getExchangeRate",
      "outputs": [
        {
          "internalType": "uint256",
          "name": "exchangeRate_",
          "type": "uint256"
        }
      ],
      "stateMutability": "view",
      "type": "function"
    },
    {
      "inputs": [],
      "name": "weETHOracleData",
      "outputs": [
        {
          "internalType": "uint256",
          "name": "weETHExchangeRate_",
          "type": "uint256"
        },
        {
          "internalType": "contract IWeETH",
          "name": "weETH_",
          "type": "address"
        }
      ],
      "stateMutability": "view",
      "type": "function"
    },
    {
      "inputs": [],
      "name": "wstETHOracleData",
      "outputs": [
        {
          "internalType": "uint256",
          "name": "wstETHExchangeRate_",
          "type": "uint256"
        },
        {
          "internalType": "contract IWstETH",
          "name": "wstETH_",
          "type": "address"
        }
      ],
      "stateMutability": "view",
      "type": "function"
    }
  ],
  "transactionHash": "0xd9d2b4a6b0b31346c934e9eb5dfa75b8da9f22b20f9ba5a4522fc69b2f058e31",
  "args": [
    "0x7f39C581F595B53c5cb19bD0b3f8dA6c935E2Ca0",
    "0xcd5fe23c85820f7b72d0926fc9b05b43e359b7ee"
  ],
  "numDeployments": 1,
  "solcInputHash": "a605f185856c2f85f1bc8c8916011745",
  "bytecode": "0x6101006040523480156200001257600080fd5b50604051620008cc380380620008cc833981016040819052620000359162000110565b80826001600160a01b038116620000685760405163c82fc46560e01b815261f61960048201526024015b60405180910390fd5b6001600160a01b03811660a052620000836012601b62000165565b6200009090600a6200027e565b608052506001600160a01b038116620000c25760405163c82fc46560e01b81526201117160048201526024016200005f565b6001600160a01b03811660e052620000dd6012601b62000165565b620000ea90600a6200027e565b60c0525062000293915050565b6001600160a01b03811681146200010d57600080fd5b50565b600080604083850312156200012457600080fd5b82516200013181620000f7565b60208401519092506200014481620000f7565b809150509250929050565b634e487b7160e01b600052601160045260246000fd5b818103818111156200017b576200017b6200014f565b92915050565b600181815b80851115620001c2578160001904821115620001a657620001a66200014f565b80851615620001b457918102915b93841c939080029062000186565b509250929050565b600082620001db575060016200017b565b81620001ea575060006200017b565b81600181146200020357600281146200020e576200022e565b60019150506200017b565b60ff8411156200022257620002226200014f565b50506001821b6200017b565b5060208310610133831016604e8410600b841016171562000253575081810a6200017b565b6200025f838362000181565b80600019048211156200027657620002766200014f565b029392505050565b60006200028c8383620001ca565b9392505050565b60805160a05160c05160e0516105e5620002e76000396000818160a9015281816101d401526102dd015260006102a601526000818160dc0152818161010501526103770152600061035601526105e56000f3fe608060405234801561001057600080fd5b50600436106100415760003560e01c80631b3904f214610046578063dfaba9b51461007d578063e6aa216c14610085575b600080fd5b61004e61009b565b6040805192835273ffffffffffffffffffffffffffffffffffffffff9091166020830152015b60405180910390f35b61004e6100ce565b61008d610101565b604051908152602001610074565b6000806100a661026d565b927f000000000000000000000000000000000000000000000000000000000000000092509050565b6000806100d9610352565b927f000000000000000000000000000000000000000000000000000000000000000092509050565b60007f000000000000000000000000000000000000000000000000000000000000000073ffffffffffffffffffffffffffffffffffffffff1663035faf826040518163ffffffff1660e01b8152600401602060405180830381865afa15801561016e573d6000803e3d6000fd5b505050506040513d601f19601f8201168201806040525081019061019291906103e0565b61019e601b600a61054a565b6040517f94626044000000000000000000000000000000000000000000000000000000008152670de0b6b3a764000060048201527f000000000000000000000000000000000000000000000000000000000000000073ffffffffffffffffffffffffffffffffffffffff1690639462604490602401602060405180830381865afa158015610230573d6000803e3d6000fd5b505050506040513d601f19601f8201168201806040525081019061025491906103e0565b61025e919061055d565b6102689190610574565b905090565b6040517f94626044000000000000000000000000000000000000000000000000000000008152670de0b6b3a764000060048201526000907f00000000000000000000000000000000000000000000000000000000000000009073ffffffffffffffffffffffffffffffffffffffff7f00000000000000000000000000000000000000000000000000000000000000001690639462604490602401602060405180830381865afa158015610324573d6000803e3d6000fd5b505050506040513d601f19601f8201168201806040525081019061034891906103e0565b610268919061055d565b60007f00000000000000000000000000000000000000000000000000000000000000007f000000000000000000000000000000000000000000000000000000000000000073ffffffffffffffffffffffffffffffffffffffff1663035faf826040518163ffffffff1660e01b8152600401602060405180830381865afa158015610324573d6000803e3d6000fd5b6000602082840312156103f257600080fd5b5051919050565b7f4e487b7100000000000000000000000000000000000000000000000000000000600052601160045260246000fd5b600181815b8085111561048157817fffffffffffffffffffffffffffffffffffffffffffffffffffffffffffffffff04821115610467576104676103f9565b8085161561047457918102915b93841c939080029061042d565b509250929050565b60008261049857506001610544565b816104a557506000610544565b81600181146104bb57600281146104c5576104e1565b6001915050610544565b60ff8411156104d6576104d66103f9565b50506001821b610544565b5060208310610133831016604e8410600b8410161715610504575081810a610544565b61050e8383610428565b807fffffffffffffffffffffffffffffffffffffffffffffffffffffffffffffffff04821115610540576105406103f9565b0290505b92915050565b60006105568383610489565b9392505050565b8082028115828204841417610544576105446103f9565b6000826105aa577f4e487b7100000000000000000000000000000000000000000000000000000000600052601260045260246000fd5b50049056fea26469706673582212205b4f7f9a84f9d049b3271e24c8b7fd5cda1696414bb6969adbdf8619ec1dbf3064736f6c63430008150033",
  "devdoc": {
    "kind": "dev",
    "methods": {
      "constructor": {
        "params": {
          "weETH": "address of the weETH contract",
          "wstETH": "address of the wstETH contract"
        }
      }
    },
    "title": "Oracle for weETH (Etherfi's wrapped eETH) to wstETH. wstETH is the debt token here (get amount of wstETH for 1 weETH)",
    "version": 1
  },
  "userdoc": {
    "kind": "user",
    "methods": {
      "getExchangeRate()": {
        "notice": "Get the `exchangeRate_` between the underlying asset and the peg asset in 1e27"
      },
      "weETHOracleData()": {
        "notice": "returns all wWtETH oracle related data as utility for easy off-chain use / block explorer in a single view method"
      },
      "wstETHOracleData()": {
        "notice": "returns all wWtETH oracle related data as utility for easy off-chain use / block explorer in a single view method"
      }
    },
    "version": 1
  },
  "storageLayout": {
    "storage": [],
    "types": null
  }
}