{
  "address": "0x3B38099b79a143038a3935C619B2A3eA70438C60",
  "abi": [
    {
      "inputs": [
        {
          "internalType": "address",
          "name": "owner_",
          "type": "address"
        }
      ],
      "stateMutability": "nonpayable",
      "type": "constructor"
    },
    {
      "inputs": [
        {
          "internalType": "uint256",
          "name": "colLiquidated",
          "type": "uint256"
        },
        {
          "internalType": "uint256",
          "name": "debtLiquidated",
          "type": "uint256"
        }
      ],
      "name": "FluidLiquidateResult",
      "type": "error"
    },
    {
      "inputs": [
        {
          "internalType": "uint256",
          "name": "errorId_",
          "type": "uint256"
        }
      ],
      "name": "FluidVaultError",
      "type": "error"
    },
    {
      "anonymous": false,
      "inputs": [
        {
          "indexed": true,
          "internalType": "address",
          "name": "owner",
          "type": "address"
        },
        {
          "indexed": true,
          "internalType": "address",
          "name": "spender",
          "type": "address"
        },
        {
          "indexed": true,
          "internalType": "uint256",
          "name": "id",
          "type": "uint256"
        }
      ],
      "name": "Approval",
      "type": "event"
    },
    {
      "anonymous": false,
      "inputs": [
        {
          "indexed": true,
          "internalType": "address",
          "name": "owner",
          "type": "address"
        },
        {
          "indexed": true,
          "internalType": "address",
          "name": "operator",
          "type": "address"
        },
        {
          "indexed": false,
          "internalType": "bool",
          "name": "approved",
          "type": "bool"
        }
      ],
      "name": "ApprovalForAll",
      "type": "event"
    },
    {
      "anonymous": false,
      "inputs": [
        {
          "indexed": true,
          "internalType": "address",
          "name": "deployer",
          "type": "address"
        },
        {
          "indexed": true,
          "internalType": "bool",
          "name": "allowed",
          "type": "bool"
        }
      ],
      "name": "LogSetDeployer",
      "type": "event"
    },
    {
      "anonymous": false,
      "inputs": [
        {
          "indexed": true,
          "internalType": "address",
          "name": "globalAuth",
          "type": "address"
        },
        {
          "indexed": true,
          "internalType": "bool",
          "name": "allowed",
          "type": "bool"
        }
      ],
      "name": "LogSetGlobalAuth",
      "type": "event"
    },
    {
      "anonymous": false,
      "inputs": [
        {
          "indexed": true,
          "internalType": "address",
          "name": "vaultAuth",
          "type": "address"
        },
        {
          "indexed": true,
          "internalType": "bool",
          "name": "allowed",
          "type": "bool"
        },
        {
          "indexed": true,
          "internalType": "address",
          "name": "vault",
          "type": "address"
        }
      ],
      "name": "LogSetVaultAuth",
      "type": "event"
    },
    {
      "anonymous": false,
      "inputs": [
        {
          "indexed": true,
          "internalType": "address",
          "name": "vaultDeploymentLogic",
          "type": "address"
        },
        {
          "indexed": true,
          "internalType": "bool",
          "name": "allowed",
          "type": "bool"
        }
      ],
      "name": "LogSetVaultDeploymentLogic",
      "type": "event"
    },
    {
      "anonymous": false,
      "inputs": [
        {
          "indexed": true,
          "internalType": "address",
          "name": "vault",
          "type": "address"
        },
        {
          "indexed": true,
          "internalType": "address",
          "name": "user",
          "type": "address"
        },
        {
          "indexed": true,
          "internalType": "uint256",
          "name": "tokenId",
          "type": "uint256"
        }
      ],
      "name": "NewPositionMinted",
      "type": "event"
    },
    {
      "anonymous": false,
      "inputs": [
        {
          "indexed": true,
          "internalType": "address",
          "name": "user",
          "type": "address"
        },
        {
          "indexed": true,
          "internalType": "address",
          "name": "newOwner",
          "type": "address"
        }
      ],
      "name": "OwnershipTransferred",
      "type": "event"
    },
    {
      "anonymous": false,
      "inputs": [
        {
          "indexed": true,
          "internalType": "address",
          "name": "from",
          "type": "address"
        },
        {
          "indexed": true,
          "internalType": "address",
          "name": "to",
          "type": "address"
        },
        {
          "indexed": true,
          "internalType": "uint256",
          "name": "id",
          "type": "uint256"
        }
      ],
      "name": "Transfer",
      "type": "event"
    },
    {
      "anonymous": false,
      "inputs": [
        {
          "indexed": true,
          "internalType": "address",
          "name": "vault",
          "type": "address"
        },
        {
          "indexed": true,
          "internalType": "uint256",
          "name": "vaultId",
          "type": "uint256"
        }
      ],
      "name": "VaultDeployed",
      "type": "event"
    },
    {
      "inputs": [
        {
          "internalType": "address",
          "name": "spender_",
          "type": "address"
        },
        {
          "internalType": "uint256",
          "name": "id_",
          "type": "uint256"
        }
      ],
      "name": "approve",
      "outputs": [],
      "stateMutability": "nonpayable",
      "type": "function"
    },
    {
      "inputs": [
        {
          "internalType": "address",
          "name": "owner_",
          "type": "address"
        }
      ],
      "name": "balanceOf",
      "outputs": [
        {
          "internalType": "uint256",
          "name": "",
          "type": "uint256"
        }
      ],
      "stateMutability": "view",
      "type": "function"
    },
    {
      "inputs": [
        {
          "internalType": "address",
          "name": "vaultDeploymentLogic_",
          "type": "address"
        },
        {
          "internalType": "bytes",
          "name": "vaultDeploymentData_",
          "type": "bytes"
        }
      ],
      "name": "deployVault",
      "outputs": [
        {
          "internalType": "address",
          "name": "vault_",
          "type": "address"
        }
      ],
      "stateMutability": "nonpayable",
      "type": "function"
    },
    {
      "inputs": [
        {
          "internalType": "uint256",
          "name": "",
          "type": "uint256"
        }
      ],
      "name": "getApproved",
      "outputs": [
        {
          "internalType": "address",
          "name": "",
          "type": "address"
        }
      ],
      "stateMutability": "view",
      "type": "function"
    },
    {
      "inputs": [
        {
          "internalType": "uint256",
          "name": "vaultId_",
          "type": "uint256"
        }
      ],
      "name": "getVaultAddress",
      "outputs": [
        {
          "internalType": "address",
          "name": "vault_",
          "type": "address"
        }
      ],
      "stateMutability": "view",
      "type": "function"
    },
    {
      "inputs": [
        {
          "internalType": "address",
          "name": "",
          "type": "address"
        },
        {
          "internalType": "address",
          "name": "",
          "type": "address"
        }
      ],
      "name": "isApprovedForAll",
      "outputs": [
        {
          "internalType": "bool",
          "name": "",
          "type": "bool"
        }
      ],
      "stateMutability": "view",
      "type": "function"
    },
    {
      "inputs": [
        {
          "internalType": "address",
          "name": "deployer_",
          "type": "address"
        }
      ],
      "name": "isDeployer",
      "outputs": [
        {
          "internalType": "bool",
          "name": "",
          "type": "bool"
        }
      ],
      "stateMutability": "view",
      "type": "function"
    },
    {
      "inputs": [
        {
          "internalType": "address",
          "name": "globalAuth_",
          "type": "address"
        }
      ],
      "name": "isGlobalAuth",
      "outputs": [
        {
          "internalType": "bool",
          "name": "",
          "type": "bool"
        }
      ],
      "stateMutability": "view",
      "type": "function"
    },
    {
      "inputs": [
        {
          "internalType": "address",
          "name": "vault_",
          "type": "address"
        }
      ],
      "name": "isVault",
      "outputs": [
        {
          "internalType": "bool",
          "name": "",
          "type": "bool"
        }
      ],
      "stateMutability": "view",
      "type": "function"
    },
    {
      "inputs": [
        {
          "internalType": "address",
          "name": "vault_",
          "type": "address"
        },
        {
          "internalType": "address",
          "name": "vaultAuth_",
          "type": "address"
        }
      ],
      "name": "isVaultAuth",
      "outputs": [
        {
          "internalType": "bool",
          "name": "",
          "type": "bool"
        }
      ],
      "stateMutability": "view",
      "type": "function"
    },
    {
      "inputs": [
        {
          "internalType": "address",
          "name": "vaultDeploymentLogic_",
          "type": "address"
        }
      ],
      "name": "isVaultDeploymentLogic",
      "outputs": [
        {
          "internalType": "bool",
          "name": "",
          "type": "bool"
        }
      ],
      "stateMutability": "view",
      "type": "function"
    },
    {
      "inputs": [
        {
          "internalType": "uint256",
          "name": "vaultId_",
          "type": "uint256"
        },
        {
          "internalType": "address",
          "name": "user_",
          "type": "address"
        }
      ],
      "name": "mint",
      "outputs": [
        {
          "internalType": "uint256",
          "name": "tokenId_",
          "type": "uint256"
        }
      ],
      "stateMutability": "nonpayable",
      "type": "function"
    },
    {
      "inputs": [],
      "name": "name",
      "outputs": [
        {
          "internalType": "string",
          "name": "",
          "type": "string"
        }
      ],
      "stateMutability": "view",
      "type": "function"
    },
    {
      "inputs": [],
      "name": "owner",
      "outputs": [
        {
          "internalType": "address",
          "name": "",
          "type": "address"
        }
      ],
      "stateMutability": "view",
      "type": "function"
    },
    {
      "inputs": [
        {
          "internalType": "uint256",
          "name": "id_",
          "type": "uint256"
        }
      ],
      "name": "ownerOf",
      "outputs": [
        {
          "internalType": "address",
          "name": "owner_",
          "type": "address"
        }
      ],
      "stateMutability": "view",
      "type": "function"
    },
    {
      "inputs": [
        {
          "internalType": "bytes32",
          "name": "slot_",
          "type": "bytes32"
        }
      ],
      "name": "readFromStorage",
      "outputs": [
        {
          "internalType": "uint256",
          "name": "result_",
          "type": "uint256"
        }
      ],
      "stateMutability": "view",
      "type": "function"
    },
    {
      "inputs": [
        {
          "internalType": "address",
          "name": "from_",
          "type": "address"
        },
        {
          "internalType": "address",
          "name": "to_",
          "type": "address"
        },
        {
          "internalType": "uint256",
          "name": "id_",
          "type": "uint256"
        }
      ],
      "name": "safeTransferFrom",
      "outputs": [],
      "stateMutability": "nonpayable",
      "type": "function"
    },
    {
      "inputs": [
        {
          "internalType": "address",
          "name": "from_",
          "type": "address"
        },
        {
          "internalType": "address",
          "name": "to_",
          "type": "address"
        },
        {
          "internalType": "uint256",
          "name": "id_",
          "type": "uint256"
        },
        {
          "internalType": "bytes",
          "name": "data_",
          "type": "bytes"
        }
      ],
      "name": "safeTransferFrom",
      "outputs": [],
      "stateMutability": "nonpayable",
      "type": "function"
    },
    {
      "inputs": [
        {
          "internalType": "address",
          "name": "operator_",
          "type": "address"
        },
        {
          "internalType": "bool",
          "name": "approved_",
          "type": "bool"
        }
      ],
      "name": "setApprovalForAll",
      "outputs": [],
      "stateMutability": "nonpayable",
      "type": "function"
    },
    {
      "inputs": [
        {
          "internalType": "address",
          "name": "deployer_",
          "type": "address"
        },
        {
          "internalType": "bool",
          "name": "allowed_",
          "type": "bool"
        }
      ],
      "name": "setDeployer",
      "outputs": [],
      "stateMutability": "nonpayable",
      "type": "function"
    },
    {
      "inputs": [
        {
          "internalType": "address",
          "name": "globalAuth_",
          "type": "address"
        },
        {
          "internalType": "bool",
          "name": "allowed_",
          "type": "bool"
        }
      ],
      "name": "setGlobalAuth",
      "outputs": [],
      "stateMutability": "nonpayable",
      "type": "function"
    },
    {
      "inputs": [
        {
          "internalType": "address",
          "name": "vault_",
          "type": "address"
        },
        {
          "internalType": "address",
          "name": "vaultAuth_",
          "type": "address"
        },
        {
          "internalType": "bool",
          "name": "allowed_",
          "type": "bool"
        }
      ],
      "name": "setVaultAuth",
      "outputs": [],
      "stateMutability": "nonpayable",
      "type": "function"
    },
    {
      "inputs": [
        {
          "internalType": "address",
          "name": "deploymentLogic_",
          "type": "address"
        },
        {
          "internalType": "bool",
          "name": "allowed_",
          "type": "bool"
        }
      ],
      "name": "setVaultDeploymentLogic",
      "outputs": [],
      "stateMutability": "nonpayable",
      "type": "function"
    },
    {
      "inputs": [
        {
          "internalType": "bytes4",
          "name": "interfaceId_",
          "type": "bytes4"
        }
      ],
      "name": "supportsInterface",
      "outputs": [
        {
          "internalType": "bool",
          "name": "",
          "type": "bool"
        }
      ],
      "stateMutability": "view",
      "type": "function"
    },
    {
      "inputs": [],
      "name": "symbol",
      "outputs": [
        {
          "internalType": "string",
          "name": "",
          "type": "string"
        }
      ],
      "stateMutability": "view",
      "type": "function"
    },
    {
      "inputs": [
        {
          "internalType": "uint256",
          "name": "index_",
          "type": "uint256"
        }
      ],
      "name": "tokenByIndex",
      "outputs": [
        {
          "internalType": "uint256",
          "name": "",
          "type": "uint256"
        }
      ],
      "stateMutability": "view",
      "type": "function"
    },
    {
      "inputs": [
        {
          "internalType": "address",
          "name": "owner_",
          "type": "address"
        },
        {
          "internalType": "uint256",
          "name": "index_",
          "type": "uint256"
        }
      ],
      "name": "tokenOfOwnerByIndex",
      "outputs": [
        {
          "internalType": "uint256",
          "name": "",
          "type": "uint256"
        }
      ],
      "stateMutability": "view",
      "type": "function"
    },
    {
      "inputs": [
        {
          "internalType": "uint256",
          "name": "id_",
          "type": "uint256"
        }
      ],
      "name": "tokenURI",
      "outputs": [
        {
          "internalType": "string",
          "name": "",
          "type": "string"
        }
      ],
      "stateMutability": "view",
      "type": "function"
    },
    {
      "inputs": [],
      "name": "totalSupply",
      "outputs": [
        {
          "internalType": "uint256",
          "name": "",
          "type": "uint256"
        }
      ],
      "stateMutability": "view",
      "type": "function"
    },
    {
      "inputs": [],
      "name": "totalVaults",
      "outputs": [
        {
          "internalType": "uint256",
          "name": "",
          "type": "uint256"
        }
      ],
      "stateMutability": "view",
      "type": "function"
    },
    {
      "inputs": [
        {
          "internalType": "address",
          "name": "from_",
          "type": "address"
        },
        {
          "internalType": "address",
          "name": "to_",
          "type": "address"
        },
        {
          "internalType": "uint256",
          "name": "id_",
          "type": "uint256"
        }
      ],
      "name": "transferFrom",
      "outputs": [],
      "stateMutability": "nonpayable",
      "type": "function"
    },
    {
      "inputs": [
        {
          "internalType": "address",
          "name": "newOwner",
          "type": "address"
        }
      ],
      "name": "transferOwnership",
      "outputs": [],
      "stateMutability": "nonpayable",
      "type": "function"
    }
  ],
  "transactionHash": "0xd75a989078b653556c63e6d3a4b1848681a412dfea29bd57a26a6feff09324be",
  "args": [
    "0x4F6F977aCDD1177DCD81aB83074855EcB9C2D49e"
  ],
  "numDeployments": 1,
  "solcInputHash": "c36d0262518c8feade0bff1a0372602d",
  "bytecode": "0x60806040523480156200001157600080fd5b5060405162002cce38038062002cce83398101604081905262000034916200011d565b604080518082018252600b81526a119b1d5a590815985d5b1d60aa1b6020808301919091528251808401845260048152631995931560e21b91810191909152600080546001600160a01b0319166001600160a01b0386169081178255935185948594939285927f8be0079c531659141344cd1fd0a4f28419497f9722a3daafe3b4186f6b6457e0908290a3506001620000ce8382620001f4565b506002620000dd8282620001f4565b50839250506001600160a01b038216905062000114576040516330090e6560e11b8152617534600482015260240160405180910390fd5b505050620002c0565b6000602082840312156200013057600080fd5b81516001600160a01b03811681146200014857600080fd5b9392505050565b634e487b7160e01b600052604160045260246000fd5b600181811c908216806200017a57607f821691505b6020821081036200019b57634e487b7160e01b600052602260045260246000fd5b50919050565b601f821115620001ef57600081815260208120601f850160051c81016020861015620001ca5750805b601f850160051c820191505b81811015620001eb57828155600101620001d6565b5050505b505050565b81516001600160401b038111156200021057620002106200014f565b620002288162000221845462000165565b84620001a1565b602080601f831160018114620002605760008415620002475750858301515b600019600386901b1c1916600185901b178555620001eb565b600085815260208120601f198616915b82811015620002915788860151825594840194600190910190840162000270565b5085821015620002b05787850151600019600388901b60f8161c191681555b5050505050600190811b01905550565b6129fe80620002d06000396000f3fe608060405234801561001057600080fd5b50600436106101f05760003560e01c80637faa1d211161010f578063a34b5ee8116100a2578063e04c8e5d11610071578063e04c8e5d14610498578063e6bd26a2146104ab578063e985e9c5146104be578063f2fde38b146104ec57600080fd5b8063a34b5ee81461043f578063b5c736e414610452578063b88d4fde14610464578063c87b56dd1461047757600080fd5b806394bf804d116100de57806394bf804d146103fe57806395d89b4114610411578063968cbade14610419578063a22cb4651461042c57600080fd5b80637faa1d21146103b05780638d654023146103c35780638da5cb5b146103cb5780638f2db95d146103eb57600080fd5b80632f745c591161018757806350c358a41161015657806350c358a4146103645780636352211e14610377578063652b9b411461038a57806370a082311461039d57600080fd5b80632f745c591461031857806342842e0e1461032b5780634502d0631461033e5780634f6ccce71461035157600080fd5b8063095ea7b3116101c3578063095ea7b3146102a257806317e7681c146102b557806318160ddd146102ee57806323b872dd1461030557600080fd5b806301ffc9a7146101f557806306fdde031461021d578063081812fc1461023257806308a892d91461028d575b600080fd5b61020861020336600461238d565b6104ff565b60405190151581526020015b60405180910390f35b610225610630565b60405161021491906123ce565b61026861024036600461241f565b60066020526000908152604090205473ffffffffffffffffffffffffffffffffffffffff1681565b60405173ffffffffffffffffffffffffffffffffffffffff9091168152602001610214565b6102a061029b36600461246c565b6106be565b005b6102a06102b036600461249f565b610816565b6102086102c33660046124c9565b73ffffffffffffffffffffffffffffffffffffffff166000908152600c602052604090205460ff1690565b6102f760055481565b604051908152602001610214565b6102a06103133660046124e4565b610934565b6102f761032636600461249f565b610ae9565b6102a06103393660046124e4565b610ba3565b61020861034c3660046124c9565b610ce1565b6102f761035f36600461241f565b610d32565b6102086103723660046124c9565b610d7e565b61026861038536600461241f565b610dcf565b6102086103983660046124c9565b610e34565b6102f76103ab3660046124c9565b610f42565b6102a06103be366004612520565b610fcf565b600b546102f7565b6000546102689073ffffffffffffffffffffffffffffffffffffffff1681565b6102a06103f936600461246c565b611136565b6102f761040c366004612563565b611289565b610225611354565b6102686104273660046125cf565b611361565b6102a061043a36600461246c565b611584565b6102a061044d36600461246c565b61161b565b6102f761046036600461241f565b5490565b6102a0610472366004612622565b61176e565b61022561048536600461241f565b5060408051602081019091526000815290565b6102086104a6366004612691565b61189c565b6102686104b936600461241f565b611900565b6102086104cc366004612691565b600760209081526000928352604080842090915290825290205460ff1681565b6102a06104fa3660046124c9565b611d63565b60007f01ffc9a7000000000000000000000000000000000000000000000000000000007fffffffff000000000000000000000000000000000000000000000000000000008316148061059257507f80ac58cd000000000000000000000000000000000000000000000000000000007fffffffff000000000000000000000000000000000000000000000000000000008316145b806105de57507f5b5e139f000000000000000000000000000000000000000000000000000000007fffffffff000000000000000000000000000000000000000000000000000000008316145b8061062a57507f780e9d63000000000000000000000000000000000000000000000000000000007fffffffff000000000000000000000000000000000000000000000000000000008316145b92915050565b6001805461063d906126bb565b80601f0160208091040260200160405190810160405280929190818152602001828054610669906126bb565b80156106b65780601f1061068b576101008083540402835291602001916106b6565b820191906000526020600020905b81548152906001019060200180831161069957829003601f168201915b505050505081565b60005473ffffffffffffffffffffffffffffffffffffffff163314610744576040517f08c379a000000000000000000000000000000000000000000000000000000000815260206004820152600c60248201527f554e415554484f52495a4544000000000000000000000000000000000000000060448201526064015b60405180910390fd5b8173ffffffffffffffffffffffffffffffffffffffff8116610796576040517f60121cca000000000000000000000000000000000000000000000000000000008152617534600482015260240161073b565b73ffffffffffffffffffffffffffffffffffffffff83166000818152600c602052604080822080547fffffffffffffffffffffffffffffffffffffffffffffffffffffffffffffff001686151590811790915590519092917f6e71f281df08e5962589123c1ca39a8c9df25c6c9cfa7b6d1525effed3dafd2191a3505050565b6000818152600360205260409020543373ffffffffffffffffffffffffffffffffffffffff82161480610879575073ffffffffffffffffffffffffffffffffffffffff8116600090815260076020908152604080832033845290915290205460ff165b6108b3576040517f60121cca000000000000000000000000000000000000000000000000000000008152617d02600482015260240161073b565b60008281526006602052604080822080547fffffffffffffffffffffffff00000000000000000000000000000000000000001673ffffffffffffffffffffffffffffffffffffffff87811691821790925591518593918516917f8c5be1e5ebec7d5bd14f71427d1e84f3dd0314c0f7b2291e5b200ac8c7c3b92591a4505050565b60008181526003602052604090205473ffffffffffffffffffffffffffffffffffffffff84811690821614610999576040517f60121cca000000000000000000000000000000000000000000000000000000008152617d01600482015260240161073b565b3373ffffffffffffffffffffffffffffffffffffffff851614806109ed575073ffffffffffffffffffffffffffffffffffffffff8416600090815260076020908152604080832033845290915290205460ff165b80610a1b575060008281526006602052604090205473ffffffffffffffffffffffffffffffffffffffff1633145b610a55576040517f60121cca000000000000000000000000000000000000000000000000000000008152617d02600482015260240161073b565b610a6b84848460c085901c63ffffffff16611e54565b60008281526006602052604080822080547fffffffffffffffffffffffff000000000000000000000000000000000000000016905551839173ffffffffffffffffffffffffffffffffffffffff86811692908816917fddf252ad1be2c89b69c2b068fc378daa952ba7f163c4a11628f55a4df523b3ef91a450505050565b6000610af483610f42565b8210610b30576040517f60121cca000000000000000000000000000000000000000000000000000000008152617d05600482015260240161073b565b610b3b82600161273d565b915063ffffffff610b4d60088461277f565b610b58906020612793565b73ffffffffffffffffffffffffffffffffffffffff8516600090815260046020526040812090610b896008876127aa565b815260200190815260200160002054901c16905092915050565b610bae838383610934565b73ffffffffffffffffffffffffffffffffffffffff82163b1580610ca257506040517f150b7a020000000000000000000000000000000000000000000000000000000080825233600483015273ffffffffffffffffffffffffffffffffffffffff858116602484015260448301849052608060648401526000608484015290919084169063150b7a029060a4016020604051808303816000875af1158015610c5a573d6000803e3d6000fd5b505050506040513d601f19601f82011682018060405250810190610c7e91906127be565b7fffffffff0000000000000000000000000000000000000000000000000000000016145b610cdc576040517f60121cca000000000000000000000000000000000000000000000000000000008152617d04600482015260240161073b565b505050565b73ffffffffffffffffffffffffffffffffffffffff811660009081526009602052604081205460ff168061062a57505060005473ffffffffffffffffffffffffffffffffffffffff91821691161490565b60006005548210610d73576040517f60121cca000000000000000000000000000000000000000000000000000000008152617d05600482015260240161073b565b61062a82600161273d565b73ffffffffffffffffffffffffffffffffffffffff811660009081526008602052604081205460ff168061062a57505060005473ffffffffffffffffffffffffffffffffffffffff91821691161490565b60008181526003602052604090205473ffffffffffffffffffffffffffffffffffffffff8116610e2f576040517f60121cca000000000000000000000000000000000000000000000000000000008152617d01600482015260240161073b565b919050565b60008173ffffffffffffffffffffffffffffffffffffffff163b600003610e5d57506000919050565b6000808373ffffffffffffffffffffffffffffffffffffffff16604051610ea7907f540acabc00000000000000000000000000000000000000000000000000000000815260040190565b600060405180830381855afa9150503d8060008114610ee2576040519150601f19603f3d011682016040523d82523d6000602084013e610ee7565b606091505b5091509150818015610f3a5750610f0b818060200190518101906104b991906127db565b73ffffffffffffffffffffffffffffffffffffffff168473ffffffffffffffffffffffffffffffffffffffff16145b949350505050565b600073ffffffffffffffffffffffffffffffffffffffff8216610f95576040517f60121cca000000000000000000000000000000000000000000000000000000008152617d01600482015260240161073b565b5073ffffffffffffffffffffffffffffffffffffffff16600090815260046020908152604080832083805290915290205463ffffffff1690565b60005473ffffffffffffffffffffffffffffffffffffffff163314611050576040517f08c379a000000000000000000000000000000000000000000000000000000000815260206004820152600c60248201527f554e415554484f52495a45440000000000000000000000000000000000000000604482015260640161073b565b8173ffffffffffffffffffffffffffffffffffffffff81166110a2576040517f60121cca000000000000000000000000000000000000000000000000000000008152617534600482015260240161073b565b73ffffffffffffffffffffffffffffffffffffffff8481166000818152600a602090815260408083209488168084529490915280822080547fffffffffffffffffffffffffffffffffffffffffffffffffffffffffffffff001687151590811790915590519293909290917f7aee16d2c366535c2577e873699b458af55a0b0bd4c4fab5e930a780f05669d791a450505050565b60005473ffffffffffffffffffffffffffffffffffffffff1633146111b7576040517f08c379a000000000000000000000000000000000000000000000000000000000815260206004820152600c60248201527f554e415554484f52495a45440000000000000000000000000000000000000000604482015260640161073b565b8173ffffffffffffffffffffffffffffffffffffffff8116611209576040517f60121cca000000000000000000000000000000000000000000000000000000008152617534600482015260240161073b565b73ffffffffffffffffffffffffffffffffffffffff831660008181526009602052604080822080547fffffffffffffffffffffffffffffffffffffffffffffffffffffffffffffff001686151590811790915590519092917f0a1c6cd77aa2e405e482adf6ee6cf190a27682b6dd1234403f7602e5203c83bb91a3505050565b600061129483611900565b73ffffffffffffffffffffffffffffffffffffffff163373ffffffffffffffffffffffffffffffffffffffff16146112fc576040517f60121cca000000000000000000000000000000000000000000000000000000008152617535600482015260240161073b565b611306828461203d565b604051909150819073ffffffffffffffffffffffffffffffffffffffff84169033907ffcc2278353c4cc5d54b742d7eee2d4a7abc22e4dc6213340088293860d502b5190600090a492915050565b6002805461063d906126bb565b600061136c33610d7e565b6113a6576040517f60121cca000000000000000000000000000000000000000000000000000000008152617532600482015260240161073b565b73ffffffffffffffffffffffffffffffffffffffff84166000908152600c602052604090205460ff16611409576040517f60121cca000000000000000000000000000000000000000000000000000000008152617532600482015260240161073b565b6000600b6000815461141a906127f4565b9182905550905061142a81611900565b91506000808673ffffffffffffffffffffffffffffffffffffffff16868660405161145692919061282c565b600060405180830381855af49150503d8060008114611491576040519150601f19603f3d011682016040523d82523d6000602084013e611496565b606091505b50915091508180156114ee57506114bf818060200190518101906114ba919061286b565b6120fb565b73ffffffffffffffffffffffffffffffffffffffff168473ffffffffffffffffffffffffffffffffffffffff16145b80156114fe57506114fe84610e34565b611538576040517f60121cca000000000000000000000000000000000000000000000000000000008152617536600482015260240161073b565b604051839073ffffffffffffffffffffffffffffffffffffffff8616907efa89a51ae01c150bfde909191818194382d30b43b645428ed6a71f1955107390600090a35050509392505050565b33600081815260076020908152604080832073ffffffffffffffffffffffffffffffffffffffff87168085529083529281902080547fffffffffffffffffffffffffffffffffffffffffffffffffffffffffffffff001686151590811790915590519081529192917f17307eab39ab6107e8899845ad3d59bd9653f200f220920489ca2b5937696c31910160405180910390a35050565b60005473ffffffffffffffffffffffffffffffffffffffff16331461169c576040517f08c379a000000000000000000000000000000000000000000000000000000000815260206004820152600c60248201527f554e415554484f52495a45440000000000000000000000000000000000000000604482015260640161073b565b8173ffffffffffffffffffffffffffffffffffffffff81166116ee576040517f60121cca000000000000000000000000000000000000000000000000000000008152617534600482015260240161073b565b73ffffffffffffffffffffffffffffffffffffffff831660008181526008602052604080822080547fffffffffffffffffffffffffffffffffffffffffffffffffffffffffffffff001686151590811790915590519092917f48cc5b4660fae22eabe5e803ee595e63572773d114bcd54ecc118c1efa8d75af91a3505050565b611779858585610934565b73ffffffffffffffffffffffffffffffffffffffff84163b158061185b57506040517f150b7a02000000000000000000000000000000000000000000000000000000008082529073ffffffffffffffffffffffffffffffffffffffff86169063150b7a02906117f49033908a90899089908990600401612936565b6020604051808303816000875af1158015611813573d6000803e3d6000fd5b505050506040513d601f19601f8201168201806040525081019061183791906127be565b7fffffffff0000000000000000000000000000000000000000000000000000000016145b611895576040517f60121cca000000000000000000000000000000000000000000000000000000008152617d04600482015260240161073b565b5050505050565b73ffffffffffffffffffffffffffffffffffffffff8083166000908152600a6020908152604080832093851683529290529081205460ff16806118f9575060005473ffffffffffffffffffffffffffffffffffffffff8381169116145b9392505050565b60006060826000036119155750600092915050565b607f83116119dd576040517fd60000000000000000000000000000000000000000000000000000000000000060208201527f940000000000000000000000000000000000000000000000000000000000000060218201527fffffffffffffffffffffffffffffffffffffffff0000000000000000000000003060601b16602282015260f884901b7fff000000000000000000000000000000000000000000000000000000000000001660368201526037015b6040516020818303038152906040529050611d55565b60ff8311611ab9576040517fd70000000000000000000000000000000000000000000000000000000000000060208201527f940000000000000000000000000000000000000000000000000000000000000060218201527fffffffffffffffffffffffffffffffffffffffff0000000000000000000000003060601b1660228201527f8100000000000000000000000000000000000000000000000000000000000000603682015260f884901b7fff000000000000000000000000000000000000000000000000000000000000001660378201526038016119c7565b61ffff8311611b96576040517fd80000000000000000000000000000000000000000000000000000000000000060208201527f940000000000000000000000000000000000000000000000000000000000000060218201527fffffffffffffffffffffffffffffffffffffffff0000000000000000000000003060601b1660228201527f820000000000000000000000000000000000000000000000000000000000000060368201527fffff00000000000000000000000000000000000000000000000000000000000060f085901b1660378201526039016119c7565b62ffffff8311611c74576040517fd90000000000000000000000000000000000000000000000000000000000000060208201527f940000000000000000000000000000000000000000000000000000000000000060218201527fffffffffffffffffffffffffffffffffffffffff0000000000000000000000003060601b1660228201527f830000000000000000000000000000000000000000000000000000000000000060368201527fffffff000000000000000000000000000000000000000000000000000000000060e885901b166037820152603a016119c7565b6040517fda0000000000000000000000000000000000000000000000000000000000000060208201527f940000000000000000000000000000000000000000000000000000000000000060218201527fffffffffffffffffffffffffffffffffffffffff0000000000000000000000003060601b1660228201527f840000000000000000000000000000000000000000000000000000000000000060368201527fffffffff0000000000000000000000000000000000000000000000000000000060e085901b166037820152603b0160405160208183030381529060405290505b805160209091012092915050565b60005473ffffffffffffffffffffffffffffffffffffffff163314611de4576040517f08c379a000000000000000000000000000000000000000000000000000000000815260206004820152600c60248201527f554e415554484f52495a45440000000000000000000000000000000000000000604482015260640161073b565b600080547fffffffffffffffffffffffff00000000000000000000000000000000000000001673ffffffffffffffffffffffffffffffffffffffff83169081178255604051909133917f8be0079c531659141344cd1fd0a4f28419497f9722a3daafe3b4186f6b6457e09190a350565b73ffffffffffffffffffffffffffffffffffffffff8316611ea5576040517f60121cca000000000000000000000000000000000000000000000000000000008152617d03600482015260240161073b565b73ffffffffffffffffffffffffffffffffffffffff8416611f5f5773ffffffffffffffffffffffffffffffffffffffff83166000818152600460209081526040808320838052808352818420805488865260038552838620600163ffffffff83160160a081901b90981760c08a901b1790557fffffffffffffffffffffffffffffffffffffffffffffffffffffffff00000000168617905560088504845282529091208054600790931690910284901b9091179055612037565b8373ffffffffffffffffffffffffffffffffffffffff168373ffffffffffffffffffffffffffffffffffffffff161461203757611f9c8483612198565b73ffffffffffffffffffffffffffffffffffffffff83166000818152600460209081526040808320838052808352818420805488865260038552838620600163ffffffff83160160a081901b90981760c08a901b1790557fffffffffffffffffffffffffffffffffffffffffffffffffffffffff00000000168617905560088504845282529091208054600790931690910284901b90911790555b50505050565b600580546001019081905563ffffffff81101580612068575060008181526003602052604090205415155b156120a3576040517f60121cca000000000000000000000000000000000000000000000000000000008152617d01600482015260240161073b565b6120b06000848385611e54565b604051819073ffffffffffffffffffffffffffffffffffffffff8516906000907fddf252ad1be2c89b69c2b068fc378daa952ba7f163c4a11628f55a4df523b3ef908290a492915050565b6000815160000361213c576040517f60121cca000000000000000000000000000000000000000000000000000000008152617531600482015260240161073b565b8151602083016000f0905073ffffffffffffffffffffffffffffffffffffffff8116610e2f576040517f60121cca000000000000000000000000000000000000000000000000000000008152617531600482015260240161073b565b600081815260036020908152604080832080549084905573ffffffffffffffffffffffffffffffffffffffff8616845260048352818420848052909252909120549060a01c63ffffffff9081169082166121f36001826129b5565b73ffffffffffffffffffffffffffffffffffffffff8616600090815260046020908152604080832083805282528083207fffffffffffffffffffffffffffffffffffffffffffffffffffffffff000000009790971693909317909555600883048082529190205493600783160283831461231757600884046020600786160286831c63ffffffff168483036122985763ffffffff821b199790971687821b17966122da565b73ffffffffffffffffffffffffffffffffffffffff8a1660009081526004602090815260408083208684529091529020805463ffffffff841b191682841b1790555b600090815260036020526040902080547fffffffffffffffff00000000ffffffffffffffffffffffffffffffffffffffff1660a088901b17905550505b73ffffffffffffffffffffffffffffffffffffffff90961660009081526004602090815260408083209383529290522063ffffffff90951b1992909216909355505050565b7fffffffff000000000000000000000000000000000000000000000000000000008116811461238a57600080fd5b50565b60006020828403121561239f57600080fd5b81356118f98161235c565b60005b838110156123c55781810151838201526020016123ad565b50506000910152565b60208152600082518060208401526123ed8160408501602087016123aa565b601f017fffffffffffffffffffffffffffffffffffffffffffffffffffffffffffffffe0169190910160400192915050565b60006020828403121561243157600080fd5b5035919050565b803573ffffffffffffffffffffffffffffffffffffffff81168114610e2f57600080fd5b80358015158114610e2f57600080fd5b6000806040838503121561247f57600080fd5b61248883612438565b91506124966020840161245c565b90509250929050565b600080604083850312156124b257600080fd5b6124bb83612438565b946020939093013593505050565b6000602082840312156124db57600080fd5b6118f982612438565b6000806000606084860312156124f957600080fd5b61250284612438565b925061251060208501612438565b9150604084013590509250925092565b60008060006060848603121561253557600080fd5b61253e84612438565b925061254c60208501612438565b915061255a6040850161245c565b90509250925092565b6000806040838503121561257657600080fd5b8235915061249660208401612438565b60008083601f84011261259857600080fd5b50813567ffffffffffffffff8111156125b057600080fd5b6020830191508360208285010111156125c857600080fd5b9250929050565b6000806000604084860312156125e457600080fd5b6125ed84612438565b9250602084013567ffffffffffffffff81111561260957600080fd5b61261586828701612586565b9497909650939450505050565b60008060008060006080868803121561263a57600080fd5b61264386612438565b945061265160208701612438565b935060408601359250606086013567ffffffffffffffff81111561267457600080fd5b61268088828901612586565b969995985093965092949392505050565b600080604083850312156126a457600080fd5b6126ad83612438565b915061249660208401612438565b600181811c908216806126cf57607f821691505b602082108103612708577f4e487b7100000000000000000000000000000000000000000000000000000000600052602260045260246000fd5b50919050565b7f4e487b7100000000000000000000000000000000000000000000000000000000600052601160045260246000fd5b8082018082111561062a5761062a61270e565b7f4e487b7100000000000000000000000000000000000000000000000000000000600052601260045260246000fd5b60008261278e5761278e612750565b500690565b808202811582820484141761062a5761062a61270e565b6000826127b9576127b9612750565b500490565b6000602082840312156127d057600080fd5b81516118f98161235c565b6000602082840312156127ed57600080fd5b5051919050565b60007fffffffffffffffffffffffffffffffffffffffffffffffffffffffffffffffff82036128255761282561270e565b5060010190565b8183823760009101908152919050565b7f4e487b7100000000000000000000000000000000000000000000000000000000600052604160045260246000fd5b60006020828403121561287d57600080fd5b815167ffffffffffffffff8082111561289557600080fd5b818401915084601f8301126128a957600080fd5b8151818111156128bb576128bb61283c565b604051601f82017fffffffffffffffffffffffffffffffffffffffffffffffffffffffffffffffe0908116603f011681019083821181831017156129015761290161283c565b8160405282815287602084870101111561291a57600080fd5b61292b8360208301602088016123aa565b979650505050505050565b600073ffffffffffffffffffffffffffffffffffffffff808816835280871660208401525084604083015260806060830152826080830152828460a0840137600060a0848401015260a07fffffffffffffffffffffffffffffffffffffffffffffffffffffffffffffffe0601f85011683010190509695505050505050565b8181038181111561062a5761062a61270e56fea26469706673582212200d4cdcde81be0a68e93227413d1bbcf7c556db4d4ab4fba51544ff36fbb590c964736f6c63430008150033",
  "devdoc": {
    "details": "Note the deployed vaults start out with no config at Liquidity contract. This must be done by Liquidity auths in a separate step, otherwise no deposits will be possible. This contract is not upgradeable. It supports adding new vault deployment logic contracts for new, future vaults.",
    "events": {
      "LogSetDeployer(address,bool)": {
        "details": "Emitted when the deployer is modified by owner.",
        "params": {
          "allowed": "Indicates whether the address is authorized as a deployer or not.",
          "deployer": "Address whose deployer status is updated."
        }
      },
      "LogSetGlobalAuth(address,bool)": {
        "details": "Emitted when the globalAuth is modified by owner.",
        "params": {
          "allowed": "Indicates whether the address is authorized as a deployer or not.",
          "globalAuth": "Address whose globalAuth status is updated."
        }
      },
      "LogSetVaultAuth(address,bool,address)": {
        "details": "Emitted when the vaultAuth is modified by owner.",
        "params": {
          "allowed": "Indicates whether the address is authorized as a deployer or not.",
          "vault": "Address of the specific vault related to the authorization change.",
          "vaultAuth": "Address whose vaultAuth status is updated."
        }
      },
      "LogSetVaultDeploymentLogic(address,bool)": {
        "details": "Emitted when the vault deployment logic is modified by owner.",
        "params": {
          "allowed": "Indicates whether the address is authorized as a deployer or not.",
          "vaultDeploymentLogic": "The address of the vault deployment logic contract."
        }
      },
      "NewPositionMinted(address,address,uint256)": {
        "details": "Emitted when a new token/position is minted by a vault.",
        "params": {
          "tokenId": "The ID of the newly minted token.",
          "user": "The address of the user who received the minted token.",
          "vault": "The address of the vault that minted the token."
        }
      },
      "VaultDeployed(address,uint256)": {
        "details": "Emitted when a new vault is deployed.",
        "params": {
          "vault": "The address of the newly deployed vault.",
          "vaultId": "The id of the newly deployed vault."
        }
      }
    },
    "kind": "dev",
    "methods": {
      "deployVault(address,bytes)": {
        "params": {
          "vaultDeploymentData_": "The data to be used for vault deployment.",
          "vaultDeploymentLogic_": "The address of the vault deployment logic contract."
        },
        "returns": {
          "vault_": "                 Returns the address of the newly deployed vault."
        }
      },
      "getVaultAddress(uint256)": {
        "params": {
          "vaultId_": "The ID of the vault."
        },
        "returns": {
          "vault_": "                 Returns the computed address of the vault."
        }
      },
      "isDeployer(address)": {
        "params": {
          "deployer_": "The address to be checked for deployer authorization."
        },
        "returns": {
          "_0": "Returns `true` if the address is a deployer, otherwise `false`."
        }
      },
      "isGlobalAuth(address)": {
        "params": {
          "globalAuth_": "The address to be checked for global authorization privileges."
        },
        "returns": {
          "_0": "Returns `true` if the given address has global authorization privileges, otherwise `false`."
        }
      },
      "isVault(address)": {
        "params": {
          "vault_": "The vault address to check."
        },
        "returns": {
          "_0": "Returns `true` if the given address corresponds to a valid vault, otherwise `false`."
        }
      },
      "isVaultAuth(address,address)": {
        "params": {
          "vaultAuth_": "The address to be checked for vault authorization privileges.",
          "vault_": "The address of the vault to check."
        },
        "returns": {
          "_0": "Returns `true` if the given address has vault authorization privileges for the specified vault, otherwise `false`."
        }
      },
      "isVaultDeploymentLogic(address)": {
        "params": {
          "vaultDeploymentLogic_": "The address of the vault deploy logic to check for authorization privileges."
        },
        "returns": {
          "_0": "Returns `true` if the given address has authorization privileges for vault deployment, otherwise `false`."
        }
      },
      "mint(uint256,address)": {
        "params": {
          "user_": "The address receiving the minted token.",
          "vaultId_": "The ID of the vault that's minting the token."
        },
        "returns": {
          "tokenId_": "         The ID of the newly minted token."
        }
      },
      "setDeployer(address,bool)": {
        "params": {
          "allowed_": "A boolean indicating whether the specified address is allowed to deploy vaults.",
          "deployer_": "The address to be set as deployer."
        }
      },
      "setGlobalAuth(address,bool)": {
        "params": {
          "allowed_": "A boolean indicating whether the specified address is allowed to update any vault config.",
          "globalAuth_": "The address to be set as global authorization."
        }
      },
      "setVaultAuth(address,address,bool)": {
        "params": {
          "allowed_": "A boolean indicating whether the specified address is allowed to update the specific vault config.",
          "vaultAuth_": "The address to be set as vault authorization.",
          "vault_": "The address of the vault for which the authorization is being set."
        }
      },
      "setVaultDeploymentLogic(address,bool)": {
        "params": {
          "allowed_": "A boolean indicating whether the specified address is allowed to deploy new type of vault.",
          "deploymentLogic_": "The address of the vault deployment logic contract to be set."
        }
      },
      "tokenURI(uint256)": {
        "params": {
          "id_": "The ID of the token to query."
        },
        "returns": {
          "_0": "An empty string since no specific URI is defined in this implementation."
        }
      },
      "totalVaults()": {
        "returns": {
          "_0": "Returns the total number of vaults."
        }
      }
    },
    "title": "Fluid VaultFactory",
    "version": 1
  },
  "userdoc": {
    "errors": {
      "FluidLiquidateResult(uint256,uint256)": [
        {
          "notice": "used to simulate liquidation to find the maximum liquidatable amounts"
        }
      ]
    },
    "kind": "user",
    "methods": {
      "approve(address,uint256)": {
        "notice": "approves an NFT with `id_` to be spent (transferred) by `spender_`"
      },
      "balanceOf(address)": {
        "notice": "returns total count of NFTs owned by `owner_`"
      },
      "deployVault(address,bytes)": {
        "notice": "Deploys a new vault using the specified deployment logic `vaultDeploymentLogic_` and data `vaultDeploymentData_`.                                 Only accounts with deployer access or the owner can deploy a new vault."
      },
      "getApproved(uint256)": {
        "notice": "trackes if a NFT id is approved for a certain address."
      },
      "getVaultAddress(uint256)": {
        "notice": "Computes the address of a vault based on its given ID (`vaultId_`)."
      },
      "isApprovedForAll(address,address)": {
        "notice": "trackes if all the NFTs of an owner are approved for a certain other address."
      },
      "isDeployer(address)": {
        "notice": "Checks if the provided address (`deployer_`) is authorized as a deployer."
      },
      "isGlobalAuth(address)": {
        "notice": "Checks if the provided address (`globalAuth_`) has global vault authorization privileges."
      },
      "isVault(address)": {
        "notice": "Checks if a given address (`vault_`) corresponds to a valid vault."
      },
      "isVaultAuth(address,address)": {
        "notice": "Checks if the provided address (`vaultAuth_`) has vault authorization privileges for the specified vault (`vault_`)."
      },
      "isVaultDeploymentLogic(address)": {
        "notice": "Checks if the provided (`vaultDeploymentLogic_`) address has authorization for vault deployment."
      },
      "mint(uint256,address)": {
        "notice": "Mints a new ERC721 token for a specific vault (`vaultId_`) to a specified user (`user_`).                           Only the corresponding vault is authorized to mint a token."
      },
      "ownerOf(uint256)": {
        "notice": "returns `owner_` of NFT with `id_`"
      },
      "safeTransferFrom(address,address,uint256)": {
        "notice": "transfers an NFT with `id_` `from_` address `to_` address"
      },
      "safeTransferFrom(address,address,uint256,bytes)": {
        "notice": "transfers an NFT with `id_` `from_` address `to_` address, passing `data_` to `onERC721Received` callback"
      },
      "setApprovalForAll(address,bool)": {
        "notice": "approves all NFTs owned by msg.sender to be spent (transferred) by `operator_`"
      },
      "setDeployer(address,bool)": {
        "notice": "Sets an address (`deployer_`) as allowed deployer or not.                                 This function can only be called by the owner."
      },
      "setGlobalAuth(address,bool)": {
        "notice": "Sets an address (`globalAuth_`) as a global authorization or not.                                 This function can only be called by the owner."
      },
      "setVaultAuth(address,address,bool)": {
        "notice": "Sets an address (`vaultAuth_`) as allowed vault authorization or not for a specific vault (`vault_`).                                 This function can only be called by the owner."
      },
      "setVaultDeploymentLogic(address,bool)": {
        "notice": "Sets an address as allowed vault deployment logic (`deploymentLogic_`) contract or not.                                 This function can only be called by the owner."
      },
      "tokenByIndex(uint256)": {
        "notice": "Returns a token ID at a given `index_` of all the tokens stored by the contract. Use along with {totalSupply} to enumerate all tokens."
      },
      "tokenOfOwnerByIndex(address,uint256)": {
        "notice": "Returns a token ID owned by `owner_` at a given `index_` of its token list. Use along with {balanceOf} to enumerate all of `owner_`'s tokens."
      },
      "tokenURI(uint256)": {
        "notice": "Returns the URI of the specified token ID (`id_`).                           In this implementation, an empty string is returned as no specific URI is defined."
      },
      "totalSupply()": {
        "notice": "total amount of tokens stored by the contract."
      },
      "totalVaults()": {
        "notice": "Returns the total number of vaults deployed by the factory."
      },
      "transferFrom(address,address,uint256)": {
        "notice": "transfers an NFT with `id_` `from_` address `to_` address without safe check"
      }
    },
    "notice": "creates Fluid vault protocol vaults, which are interacting with Fluid Liquidity to deposit / borrow funds. Vaults are created at a deterministic address, given an incrementing `vaultId` (see `getVaultAddress()`). Vaults can only be deployed by allow-listed deployer addresses. This factory also implements ERC721-Enumerable, the NFTs are used to represent created user positions. Only vaults can mint new NFTs.",
    "version": 1
  },
  "storageLayout": {
    "storage": [
      {
        "astId": 1984,
        "contract": "contracts/protocols/vault/factory/main.sol:FluidVaultFactory",
        "label": "owner",
        "offset": 0,
        "slot": "0",
        "type": "t_address"
      },
      {
        "astId": 269,
        "contract": "contracts/protocols/vault/factory/main.sol:FluidVaultFactory",
        "label": "name",
        "offset": 0,
        "slot": "1",
        "type": "t_string_storage"
      },
      {
        "astId": 271,
        "contract": "contracts/protocols/vault/factory/main.sol:FluidVaultFactory",
        "label": "symbol",
        "offset": 0,
        "slot": "2",
        "type": "t_string_storage"
      },
      {
        "astId": 282,
        "contract": "contracts/protocols/vault/factory/main.sol:FluidVaultFactory",
        "label": "_tokenConfig",
        "offset": 0,
        "slot": "3",
        "type": "t_mapping(t_uint256,t_uint256)"
      },
      {
        "astId": 288,
        "contract": "contracts/protocols/vault/factory/main.sol:FluidVaultFactory",
        "label": "_ownerConfig",
        "offset": 0,
        "slot": "4",
        "type": "t_mapping(t_address,t_mapping(t_uint256,t_uint256))"
      },
      {
        "astId": 356,
        "contract": "contracts/protocols/vault/factory/main.sol:FluidVaultFactory",
        "label": "totalSupply",
        "offset": 0,
        "slot": "5",
        "type": "t_uint256"
      },
      {
        "astId": 361,
        "contract": "contracts/protocols/vault/factory/main.sol:FluidVaultFactory",
        "label": "getApproved",
        "offset": 0,
        "slot": "6",
        "type": "t_mapping(t_uint256,t_address)"
      },
      {
        "astId": 368,
        "contract": "contracts/protocols/vault/factory/main.sol:FluidVaultFactory",
        "label": "isApprovedForAll",
        "offset": 0,
        "slot": "7",
        "type": "t_mapping(t_address,t_mapping(t_address,t_bool))"
      },
      {
        "astId": 1249,
        "contract": "contracts/protocols/vault/factory/main.sol:FluidVaultFactory",
        "label": "_deployers",
        "offset": 0,
        "slot": "8",
        "type": "t_mapping(t_address,t_bool)"
      },
      {
        "astId": 1254,
        "contract": "contracts/protocols/vault/factory/main.sol:FluidVaultFactory",
        "label": "_globalAuths",
        "offset": 0,
        "slot": "9",
        "type": "t_mapping(t_address,t_bool)"
      },
      {
        "astId": 1261,
        "contract": "contracts/protocols/vault/factory/main.sol:FluidVaultFactory",
        "label": "_vaultAuths",
        "offset": 0,
        "slot": "10",
        "type": "t_mapping(t_address,t_mapping(t_address,t_bool))"
      },
      {
        "astId": 1264,
        "contract": "contracts/protocols/vault/factory/main.sol:FluidVaultFactory",
        "label": "_totalVaults",
        "offset": 0,
        "slot": "11",
        "type": "t_uint256"
      },
      {
        "astId": 1269,
        "contract": "contracts/protocols/vault/factory/main.sol:FluidVaultFactory",
        "label": "_vaultDeploymentLogics",
        "offset": 0,
        "slot": "12",
        "type": "t_mapping(t_address,t_bool)"
      }
    ],
    "types": {
      "t_address": {
        "encoding": "inplace",
        "label": "address",
        "numberOfBytes": "20"
      },
      "t_bool": {
        "encoding": "inplace",
        "label": "bool",
        "numberOfBytes": "1"
      },
      "t_mapping(t_address,t_bool)": {
        "encoding": "mapping",
        "key": "t_address",
        "label": "mapping(address => bool)",
        "numberOfBytes": "32",
        "value": "t_bool"
      },
      "t_mapping(t_address,t_mapping(t_address,t_bool))": {
        "encoding": "mapping",
        "key": "t_address",
        "label": "mapping(address => mapping(address => bool))",
        "numberOfBytes": "32",
        "value": "t_mapping(t_address,t_bool)"
      },
      "t_mapping(t_address,t_mapping(t_uint256,t_uint256))": {
        "encoding": "mapping",
        "key": "t_address",
        "label": "mapping(address => mapping(uint256 => uint256))",
        "numberOfBytes": "32",
        "value": "t_mapping(t_uint256,t_uint256)"
      },
      "t_mapping(t_uint256,t_address)": {
        "encoding": "mapping",
        "key": "t_uint256",
        "label": "mapping(uint256 => address)",
        "numberOfBytes": "32",
        "value": "t_address"
      },
      "t_mapping(t_uint256,t_uint256)": {
        "encoding": "mapping",
        "key": "t_uint256",
        "label": "mapping(uint256 => uint256)",
        "numberOfBytes": "32",
        "value": "t_uint256"
      },
      "t_string_storage": {
        "encoding": "bytes",
        "label": "string",
        "numberOfBytes": "32"
      },
      "t_uint256": {
        "encoding": "inplace",
        "label": "uint256",
        "numberOfBytes": "32"
      }
    }
  }
}