{
  "address": "0x490681095ed277B45377d28cA15Ac41d64583048",
  "abi": [
    {
      "inputs": [
        {
          "internalType": "address",
          "name": "_owner",
          "type": "address"
        },
        {
          "internalType": "contract IERC20",
          "name": "_rewardsToken",
          "type": "address"
        },
        {
          "internalType": "contract IERC20",
          "name": "_stakingToken",
          "type": "address"
        },
        {
          "internalType": "uint256",
          "name": "_rewardsDuration",
          "type": "uint256"
        }
      ],
      "stateMutability": "nonpayable",
      "type": "constructor"
    },
    {
      "anonymous": false,
      "inputs": [
        {
          "indexed": true,
          "internalType": "address",
          "name": "user",
          "type": "address"
        },
        {
          "indexed": true,
          "internalType": "address",
          "name": "newOwner",
          "type": "address"
        }
      ],
      "name": "OwnershipTransferred",
      "type": "event"
    },
    {
      "anonymous": false,
      "inputs": [
        {
          "indexed": false,
          "internalType": "uint256",
          "name": "reward",
          "type": "uint256"
        }
      ],
      "name": "RewardAdded",
      "type": "event"
    },
    {
      "anonymous": false,
      "inputs": [
        {
          "indexed": true,
          "internalType": "address",
          "name": "user",
          "type": "address"
        },
        {
          "indexed": false,
          "internalType": "uint256",
          "name": "reward",
          "type": "uint256"
        }
      ],
      "name": "RewardPaid",
      "type": "event"
    },
    {
      "anonymous": false,
      "inputs": [
        {
          "indexed": true,
          "internalType": "address",
          "name": "user",
          "type": "address"
        },
        {
          "indexed": false,
          "internalType": "uint256",
          "name": "amount",
          "type": "uint256"
        }
      ],
      "name": "Staked",
      "type": "event"
    },
    {
      "anonymous": false,
      "inputs": [
        {
          "indexed": true,
          "internalType": "address",
          "name": "user",
          "type": "address"
        },
        {
          "indexed": false,
          "internalType": "uint256",
          "name": "amount",
          "type": "uint256"
        }
      ],
      "name": "Withdrawn",
      "type": "event"
    },
    {
      "inputs": [
        {
          "internalType": "address",
          "name": "account",
          "type": "address"
        }
      ],
      "name": "balanceOf",
      "outputs": [
        {
          "internalType": "uint256",
          "name": "",
          "type": "uint256"
        }
      ],
      "stateMutability": "view",
      "type": "function"
    },
    {
      "inputs": [
        {
          "internalType": "address",
          "name": "account",
          "type": "address"
        }
      ],
      "name": "earned",
      "outputs": [
        {
          "internalType": "uint256",
          "name": "",
          "type": "uint256"
        }
      ],
      "stateMutability": "view",
      "type": "function"
    },
    {
      "inputs": [],
      "name": "exit",
      "outputs": [],
      "stateMutability": "nonpayable",
      "type": "function"
    },
    {
      "inputs": [],
      "name": "getReward",
      "outputs": [],
      "stateMutability": "nonpayable",
      "type": "function"
    },
    {
      "inputs": [],
      "name": "getRewardForDuration",
      "outputs": [
        {
          "internalType": "uint256",
          "name": "",
          "type": "uint256"
        }
      ],
      "stateMutability": "view",
      "type": "function"
    },
    {
      "inputs": [],
      "name": "lastTimeRewardApplicable",
      "outputs": [
        {
          "internalType": "uint256",
          "name": "",
          "type": "uint256"
        }
      ],
      "stateMutability": "view",
      "type": "function"
    },
    {
      "inputs": [],
      "name": "lastUpdateTime",
      "outputs": [
        {
          "internalType": "uint256",
          "name": "",
          "type": "uint256"
        }
      ],
      "stateMutability": "view",
      "type": "function"
    },
    {
      "inputs": [
        {
          "internalType": "uint256",
          "name": "reward",
          "type": "uint256"
        }
      ],
      "name": "notifyRewardAmount",
      "outputs": [],
      "stateMutability": "nonpayable",
      "type": "function"
    },
    {
      "inputs": [],
      "name": "owner",
      "outputs": [
        {
          "internalType": "address",
          "name": "",
          "type": "address"
        }
      ],
      "stateMutability": "view",
      "type": "function"
    },
    {
      "inputs": [],
      "name": "periodFinish",
      "outputs": [
        {
          "internalType": "uint256",
          "name": "",
          "type": "uint256"
        }
      ],
      "stateMutability": "view",
      "type": "function"
    },
    {
      "inputs": [],
      "name": "rewardPerToken",
      "outputs": [
        {
          "internalType": "uint256",
          "name": "",
          "type": "uint256"
        }
      ],
      "stateMutability": "view",
      "type": "function"
    },
    {
      "inputs": [],
      "name": "rewardPerTokenStored",
      "outputs": [
        {
          "internalType": "uint256",
          "name": "",
          "type": "uint256"
        }
      ],
      "stateMutability": "view",
      "type": "function"
    },
    {
      "inputs": [],
      "name": "rewardRate",
      "outputs": [
        {
          "internalType": "uint256",
          "name": "",
          "type": "uint256"
        }
      ],
      "stateMutability": "view",
      "type": "function"
    },
    {
      "inputs": [
        {
          "internalType": "address",
          "name": "",
          "type": "address"
        }
      ],
      "name": "rewards",
      "outputs": [
        {
          "internalType": "uint256",
          "name": "",
          "type": "uint256"
        }
      ],
      "stateMutability": "view",
      "type": "function"
    },
    {
      "inputs": [],
      "name": "rewardsDuration",
      "outputs": [
        {
          "internalType": "uint256",
          "name": "",
          "type": "uint256"
        }
      ],
      "stateMutability": "view",
      "type": "function"
    },
    {
      "inputs": [],
      "name": "rewardsToken",
      "outputs": [
        {
          "internalType": "contract IERC20",
          "name": "",
          "type": "address"
        }
      ],
      "stateMutability": "view",
      "type": "function"
    },
    {
      "inputs": [
        {
          "internalType": "uint256",
          "name": "amount",
          "type": "uint256"
        }
      ],
      "name": "stake",
      "outputs": [],
      "stateMutability": "nonpayable",
      "type": "function"
    },
    {
      "inputs": [
        {
          "internalType": "uint256",
          "name": "amount",
          "type": "uint256"
        },
        {
          "internalType": "uint256",
          "name": "deadline",
          "type": "uint256"
        },
        {
          "internalType": "uint8",
          "name": "v",
          "type": "uint8"
        },
        {
          "internalType": "bytes32",
          "name": "r",
          "type": "bytes32"
        },
        {
          "internalType": "bytes32",
          "name": "s",
          "type": "bytes32"
        }
      ],
      "name": "stakeWithPermit",
      "outputs": [],
      "stateMutability": "nonpayable",
      "type": "function"
    },
    {
      "inputs": [],
      "name": "stakingToken",
      "outputs": [
        {
          "internalType": "contract IERC20",
          "name": "",
          "type": "address"
        }
      ],
      "stateMutability": "view",
      "type": "function"
    },
    {
      "inputs": [],
      "name": "totalSupply",
      "outputs": [
        {
          "internalType": "uint256",
          "name": "",
          "type": "uint256"
        }
      ],
      "stateMutability": "view",
      "type": "function"
    },
    {
      "inputs": [
        {
          "internalType": "address",
          "name": "newOwner",
          "type": "address"
        }
      ],
      "name": "transferOwnership",
      "outputs": [],
      "stateMutability": "nonpayable",
      "type": "function"
    },
    {
      "inputs": [
        {
          "internalType": "address",
          "name": "",
          "type": "address"
        }
      ],
      "name": "userRewardPerTokenPaid",
      "outputs": [
        {
          "internalType": "uint256",
          "name": "",
          "type": "uint256"
        }
      ],
      "stateMutability": "view",
      "type": "function"
    },
    {
      "inputs": [
        {
          "internalType": "uint256",
          "name": "amount",
          "type": "uint256"
        }
      ],
      "name": "withdraw",
      "outputs": [],
      "stateMutability": "nonpayable",
      "type": "function"
    }
  ],
  "transactionHash": "0x8973ae7ceb6d3d1027dcafb98774798e07c65b7432e29bf8735f20a567f8ce8f",
  "args": [
    "0x4F6F977aCDD1177DCD81aB83074855EcB9C2D49e",
    "0x6f40d4A6237C257fff2dB00FA0510DeEECd303eb",
    "0x5C20B550819128074FD538Edf79791733ccEdd18",
    7776000
  ],
  "numDeployments": 1,
  "solcInputHash": "d4fa359f3002cd44062d748848196ced",
  "bytecode": "0x60e06040523480156200001157600080fd5b50604051620019f3380380620019f38339810160408190526200003491620001d9565b600080546001600160a01b0319166001600160a01b03861690811782556040518692907f8be0079c531659141344cd1fd0a4f28419497f9722a3daafe3b4186f6b6457e0908290a350600180556001600160a01b038316620000ce5760405162461bcd60e51b815260206004820152600e60248201526d496e76616c696420706172616d7360901b60448201526064015b60405180910390fd5b6001600160a01b038216620001175760405162461bcd60e51b815260206004820152600e60248201526d496e76616c696420706172616d7360901b6044820152606401620000c5565b6001600160a01b038416620001605760405162461bcd60e51b815260206004820152600e60248201526d496e76616c696420706172616d7360901b6044820152606401620000c5565b60008111620001a35760405162461bcd60e51b815260206004820152600e60248201526d496e76616c696420706172616d7360901b6044820152606401620000c5565b6001600160a01b03928316608052911660a05260c0525062000233565b6001600160a01b0381168114620001d657600080fd5b50565b60008060008060808587031215620001f057600080fd5b8451620001fd81620001c0565b60208601519094506200021081620001c0565b60408601519093506200022381620001c0565b6060959095015193969295505050565b60805160a05160c051611743620002b060003960008181610201015281816104370152818161071d015281816107700152818161086101526108fd0152600081816102790152818161059901528181610b9d01528181610df90152610e8401526000818161033a015281816107da0152610a0601526117436000f3fe608060405234801561001057600080fd5b506004361061018c5760003560e01c806380faa57d116100e3578063d1af0c7d1161008c578063ebe2b12b11610066578063ebe2b12b1461036d578063ecd9ba8214610376578063f2fde38b1461038957600080fd5b8063d1af0c7d14610335578063df136d651461035c578063e9fad8ee1461036557600080fd5b8063a694fc3a116100bd578063a694fc3a14610311578063c8f33c9114610324578063cd3daf9d1461032d57600080fd5b806380faa57d146102c95780638b876347146102d15780638da5cb5b146102f157600080fd5b8063386a95251161014557806370a082311161011f57806370a082311461023e57806372f702f3146102745780637b0a47ee146102c057600080fd5b8063386a9525146101fc5780633c6b16ab146102235780633d18b9121461023657600080fd5b806318160ddd1161017657806318160ddd146101d75780631c1f78eb146101df5780632e1a7d4d146101e757600080fd5b80628cc262146101915780630700037d146101b7575b600080fd5b6101a461019f3660046114f5565b61039c565b6040519081526020015b60405180910390f35b6101a46101c53660046114f5565b60076020526000908152604090205481565b6008546101a4565b6101a4610433565b6101fa6101f5366004611532565b610468565b005b6101a47f000000000000000000000000000000000000000000000000000000000000000081565b6101fa610231366004611532565b610618565b6101fa61095d565b6101a461024c3660046114f5565b73ffffffffffffffffffffffffffffffffffffffff1660009081526009602052604090205490565b61029b7f000000000000000000000000000000000000000000000000000000000000000081565b60405173ffffffffffffffffffffffffffffffffffffffff90911681526020016101ae565b6101a460035481565b6101a4610a85565b6101a46102df3660046114f5565b60066020526000908152604090205481565b60005461029b9073ffffffffffffffffffffffffffffffffffffffff1681565b6101fa61031f366004611532565b610a9c565b6101a460045481565b6101a4610c37565b61029b7f000000000000000000000000000000000000000000000000000000000000000081565b6101a460055481565b6101fa610c98565b6101a460025481565b6101fa61038436600461154b565b610cb9565b6101fa6103973660046114f5565b610f39565b73ffffffffffffffffffffffffffffffffffffffff81166000908152600760209081526040808320546006909252822054670de0b6b3a7640000906103df610c37565b6103e991906115c9565b73ffffffffffffffffffffffffffffffffffffffff851660009081526009602052604090205461041991906115dc565b61042391906115f3565b61042d919061162e565b92915050565b60007f000000000000000000000000000000000000000000000000000000000000000060035461046391906115dc565b905090565b61047061102a565b33610479610c37565b600555610484610a85565b60045573ffffffffffffffffffffffffffffffffffffffff8116156104e5576104ac8161039c565b73ffffffffffffffffffffffffffffffffffffffff82166000908152600760209081526040808320939093556005546006909152919020555b60008211610554576040517f08c379a000000000000000000000000000000000000000000000000000000000815260206004820152601160248201527f43616e6e6f74207769746864726177203000000000000000000000000000000060448201526064015b60405180910390fd5b8160085461056291906115c9565b600855336000908152600960205260409020546105809083906115c9565b336000818152600960205260409020919091556105d5907f000000000000000000000000000000000000000000000000000000000000000073ffffffffffffffffffffffffffffffffffffffff16908461109d565b60405182815233907f7084f5476618d8e60b11ef0d7d3f06914655adb8793e28ff7f018d4c76d505d5906020015b60405180910390a25061061560018055565b50565b60005473ffffffffffffffffffffffffffffffffffffffff163314610699576040517f08c379a000000000000000000000000000000000000000000000000000000000815260206004820152600c60248201527f554e415554484f52495a45440000000000000000000000000000000000000000604482015260640161054b565b60006106a3610c37565b6005556106ae610a85565b60045573ffffffffffffffffffffffffffffffffffffffff81161561070f576106d68161039c565b73ffffffffffffffffffffffffffffffffffffffff82166000908152600760209081526040808320939093556005546006909152919020555b600254421061074a576107427f0000000000000000000000000000000000000000000000000000000000000000836115f3565b6003556107a9565b60004260025461075a91906115c9565b905060006003548261076c91906115dc565b90507f0000000000000000000000000000000000000000000000000000000000000000610799828661162e565b6107a391906115f3565b60035550505b6040517f70a082310000000000000000000000000000000000000000000000000000000081523060048201526000907f000000000000000000000000000000000000000000000000000000000000000073ffffffffffffffffffffffffffffffffffffffff16906370a0823190602401602060405180830381865afa158015610836573d6000803e3d6000fd5b505050506040513d601f19601f8201168201806040525081019061085a9190611641565b90506108867f0000000000000000000000000000000000000000000000000000000000000000826115f3565b60035411156108f1576040517f08c379a000000000000000000000000000000000000000000000000000000000815260206004820152601860248201527f50726f76696465642072657761726420746f6f20686967680000000000000000604482015260640161054b565b426004819055610922907f00000000000000000000000000000000000000000000000000000000000000009061162e565b6002556040518381527fde88a922e0d3b88b24e9623efeb464919c6bf9f66857a65e2bfcf2ce87a9433d9060200160405180910390a1505050565b61096561102a565b3361096e610c37565b600555610979610a85565b60045573ffffffffffffffffffffffffffffffffffffffff8116156109da576109a18161039c565b73ffffffffffffffffffffffffffffffffffffffff82166000908152600760209081526040808320939093556005546006909152919020555b336000908152600760205260409020548015610a785733600081815260076020526040812055610a42907f000000000000000000000000000000000000000000000000000000000000000073ffffffffffffffffffffffffffffffffffffffff16908361109d565b60405181815233907fe2403640ba68fed3a2f88b7557551d1993f84b99bb10ff833f0cf8db0c5e04869060200160405180910390a25b5050610a8360018055565b565b60006002544210610a97575060025490565b504290565b610aa461102a565b33610aad610c37565b600555610ab8610a85565b60045573ffffffffffffffffffffffffffffffffffffffff811615610b1957610ae08161039c565b73ffffffffffffffffffffffffffffffffffffffff82166000908152600760209081526040808320939093556005546006909152919020555b60008211610b83576040517f08c379a000000000000000000000000000000000000000000000000000000000815260206004820152600e60248201527f43616e6e6f74207374616b652030000000000000000000000000000000000000604482015260640161054b565b610bc573ffffffffffffffffffffffffffffffffffffffff7f000000000000000000000000000000000000000000000000000000000000000016333085611176565b81600854610bd3919061162e565b60085533600090815260096020526040902054610bf190839061162e565b33600081815260096020526040908190209290925590517f9e71bc8eea02a63969f509818f2dafb9254532904319f9dbda79b67bd34a5f3d906106039085815260200190565b6000600854600003610c4a575060055490565b600854600354600454610c5b610a85565b610c6591906115c9565b610c6f91906115dc565b610c8190670de0b6b3a76400006115dc565b610c8b91906115f3565b600554610463919061162e565b33600090815260096020526040902054610cb190610468565b610a8361095d565b610cc161102a565b33610cca610c37565b600555610cd5610a85565b60045573ffffffffffffffffffffffffffffffffffffffff811615610d3657610cfd8161039c565b73ffffffffffffffffffffffffffffffffffffffff82166000908152600760209081526040808320939093556005546006909152919020555b60008611610da0576040517f08c379a000000000000000000000000000000000000000000000000000000000815260206004820152600e60248201527f43616e6e6f74207374616b652030000000000000000000000000000000000000604482015260640161054b565b6040517fd505accf000000000000000000000000000000000000000000000000000000008152336004820152306024820152604481018790526064810186905260ff8516608482015260a4810184905260c481018390527f000000000000000000000000000000000000000000000000000000000000000073ffffffffffffffffffffffffffffffffffffffff169063d505accf9060e401600060405180830381600087803b158015610e5257600080fd5b505af1158015610e66573d6000803e3d6000fd5b50610eae92505073ffffffffffffffffffffffffffffffffffffffff7f0000000000000000000000000000000000000000000000000000000000000000169050333089611176565b85600854610ebc919061162e565b60085533600090815260096020526040902054610eda90879061162e565b33600081815260096020526040908190209290925590517f9e71bc8eea02a63969f509818f2dafb9254532904319f9dbda79b67bd34a5f3d90610f209089815260200190565b60405180910390a250610f3260018055565b5050505050565b60005473ffffffffffffffffffffffffffffffffffffffff163314610fba576040517f08c379a000000000000000000000000000000000000000000000000000000000815260206004820152600c60248201527f554e415554484f52495a45440000000000000000000000000000000000000000604482015260640161054b565b600080547fffffffffffffffffffffffff00000000000000000000000000000000000000001673ffffffffffffffffffffffffffffffffffffffff83169081178255604051909133917f8be0079c531659141344cd1fd0a4f28419497f9722a3daafe3b4186f6b6457e09190a350565b600260015403611096576040517f08c379a000000000000000000000000000000000000000000000000000000000815260206004820152601f60248201527f5265656e7472616e637947756172643a207265656e7472616e742063616c6c00604482015260640161054b565b6002600155565b60405173ffffffffffffffffffffffffffffffffffffffff83166024820152604481018290526111719084907fa9059cbb00000000000000000000000000000000000000000000000000000000906064015b604080517fffffffffffffffffffffffffffffffffffffffffffffffffffffffffffffffe08184030181529190526020810180517bffffffffffffffffffffffffffffffffffffffffffffffffffffffff167fffffffff00000000000000000000000000000000000000000000000000000000909316929092179091526111da565b505050565b60405173ffffffffffffffffffffffffffffffffffffffff808516602483015283166044820152606481018290526111d49085907f23b872dd00000000000000000000000000000000000000000000000000000000906084016110ef565b50505050565b600061123c826040518060400160405280602081526020017f5361666545524332303a206c6f772d6c6576656c2063616c6c206661696c65648152508573ffffffffffffffffffffffffffffffffffffffff166112e69092919063ffffffff16565b805190915015611171578080602001905181019061125a919061165a565b611171576040517f08c379a000000000000000000000000000000000000000000000000000000000815260206004820152602a60248201527f5361666545524332303a204552433230206f7065726174696f6e20646964206e60448201527f6f74207375636365656400000000000000000000000000000000000000000000606482015260840161054b565b60606112f584846000856112fd565b949350505050565b60608247101561138f576040517f08c379a000000000000000000000000000000000000000000000000000000000815260206004820152602660248201527f416464726573733a20696e73756666696369656e742062616c616e636520666f60448201527f722063616c6c0000000000000000000000000000000000000000000000000000606482015260840161054b565b6000808673ffffffffffffffffffffffffffffffffffffffff1685876040516113b891906116a0565b60006040518083038185875af1925050503d80600081146113f5576040519150601f19603f3d011682016040523d82523d6000602084013e6113fa565b606091505b509150915061140b87838387611416565b979650505050505050565b606083156114ac5782516000036114a55773ffffffffffffffffffffffffffffffffffffffff85163b6114a5576040517f08c379a000000000000000000000000000000000000000000000000000000000815260206004820152601d60248201527f416464726573733a2063616c6c20746f206e6f6e2d636f6e7472616374000000604482015260640161054b565b50816112f5565b6112f583838151156114c15781518083602001fd5b806040517f08c379a000000000000000000000000000000000000000000000000000000000815260040161054b91906116bc565b60006020828403121561150757600080fd5b813573ffffffffffffffffffffffffffffffffffffffff8116811461152b57600080fd5b9392505050565b60006020828403121561154457600080fd5b5035919050565b600080600080600060a0868803121561156357600080fd5b8535945060208601359350604086013560ff8116811461158257600080fd5b94979396509394606081013594506080013592915050565b7f4e487b7100000000000000000000000000000000000000000000000000000000600052601160045260246000fd5b8181038181111561042d5761042d61159a565b808202811582820484141761042d5761042d61159a565b600082611629577f4e487b7100000000000000000000000000000000000000000000000000000000600052601260045260246000fd5b500490565b8082018082111561042d5761042d61159a565b60006020828403121561165357600080fd5b5051919050565b60006020828403121561166c57600080fd5b8151801515811461152b57600080fd5b60005b8381101561169757818101518382015260200161167f565b50506000910152565b600082516116b281846020870161167c565b9190910192915050565b60208152600082518060208401526116db81604085016020870161167c565b601f017fffffffffffffffffffffffffffffffffffffffffffffffffffffffffffffffe016919091016040019291505056fea2646970667358221220eaa132d7cbc2d6f41d7681b7b33a495ee7b17feb7eedc4fae8091b2602a52d5064736f6c63430008150033",
  "devdoc": {
    "kind": "dev",
    "methods": {},
    "version": 1
  },
  "userdoc": {
    "kind": "user",
    "methods": {},
    "version": 1
  },
  "storageLayout": {
    "storage": [
      {
        "astId": 39976,
        "contract": "contracts/protocols/lending/stakingRewards/main.sol:FluidLendingStakingRewards",
        "label": "owner",
        "offset": 0,
        "slot": "0",
        "type": "t_address"
      },
      {
        "astId": 1262,
        "contract": "contracts/protocols/lending/stakingRewards/main.sol:FluidLendingStakingRewards",
        "label": "_status",
        "offset": 0,
        "slot": "1",
        "type": "t_uint256"
      },
      {
        "astId": 28705,
        "contract": "contracts/protocols/lending/stakingRewards/main.sol:FluidLendingStakingRewards",
        "label": "periodFinish",
        "offset": 0,
        "slot": "2",
        "type": "t_uint256"
      },
      {
        "astId": 28707,
        "contract": "contracts/protocols/lending/stakingRewards/main.sol:FluidLendingStakingRewards",
        "label": "rewardRate",
        "offset": 0,
        "slot": "3",
        "type": "t_uint256"
      },
      {
        "astId": 28709,
        "contract": "contracts/protocols/lending/stakingRewards/main.sol:FluidLendingStakingRewards",
        "label": "lastUpdateTime",
        "offset": 0,
        "slot": "4",
        "type": "t_uint256"
      },
      {
        "astId": 28711,
        "contract": "contracts/protocols/lending/stakingRewards/main.sol:FluidLendingStakingRewards",
        "label": "rewardPerTokenStored",
        "offset": 0,
        "slot": "5",
        "type": "t_uint256"
      },
      {
        "astId": 28715,
        "contract": "contracts/protocols/lending/stakingRewards/main.sol:FluidLendingStakingRewards",
        "label": "userRewardPerTokenPaid",
        "offset": 0,
        "slot": "6",
        "type": "t_mapping(t_address,t_uint256)"
      },
      {
        "astId": 28719,
        "contract": "contracts/protocols/lending/stakingRewards/main.sol:FluidLendingStakingRewards",
        "label": "rewards",
        "offset": 0,
        "slot": "7",
        "type": "t_mapping(t_address,t_uint256)"
      },
      {
        "astId": 28721,
        "contract": "contracts/protocols/lending/stakingRewards/main.sol:FluidLendingStakingRewards",
        "label": "_totalSupply",
        "offset": 0,
        "slot": "8",
        "type": "t_uint256"
      },
      {
        "astId": 28725,
        "contract": "contracts/protocols/lending/stakingRewards/main.sol:FluidLendingStakingRewards",
        "label": "_balances",
        "offset": 0,
        "slot": "9",
        "type": "t_mapping(t_address,t_uint256)"
      }
    ],
    "types": {
      "t_address": {
        "encoding": "inplace",
        "label": "address",
        "numberOfBytes": "20"
      },
      "t_mapping(t_address,t_uint256)": {
        "encoding": "mapping",
        "key": "t_address",
        "label": "mapping(address => uint256)",
        "numberOfBytes": "32",
        "value": "t_uint256"
      },
      "t_uint256": {
        "encoding": "inplace",
        "label": "uint256",
        "numberOfBytes": "32"
      }
    }
  }
}