{
  "address": "0x49290f778faAD125f2FBCDE6F09600e73bf4bBd9",
  "abi": [
    {
      "inputs": [
        {
          "internalType": "address",
          "name": "factory_",
          "type": "address"
        },
        {
          "internalType": "address",
          "name": "liquidityResolver_",
          "type": "address"
        }
      ],
      "stateMutability": "nonpayable",
      "type": "constructor"
    },
    {
      "inputs": [],
      "name": "FACTORY",
      "outputs": [
        {
          "internalType": "contract IFluidVaultFactory",
          "name": "",
          "type": "address"
        }
      ],
      "stateMutability": "view",
      "type": "function"
    },
    {
      "inputs": [],
      "name": "LIQUIDITY_RESOLVER",
      "outputs": [
        {
          "internalType": "contract IFluidLiquidityResolver",
          "name": "",
          "type": "address"
        }
      ],
      "stateMutability": "view",
      "type": "function"
    },
    {
      "inputs": [
        {
          "internalType": "uint256",
          "name": "slot_",
          "type": "uint256"
        },
        {
          "internalType": "int256",
          "name": "key1_",
          "type": "int256"
        },
        {
          "internalType": "uint256",
          "name": "key2_",
          "type": "uint256"
        }
      ],
      "name": "calculateDoubleIntUintMapping",
      "outputs": [
        {
          "internalType": "bytes32",
          "name": "",
          "type": "bytes32"
        }
      ],
      "stateMutability": "pure",
      "type": "function"
    },
    {
      "inputs": [
        {
          "internalType": "uint256",
          "name": "slot_",
          "type": "uint256"
        },
        {
          "internalType": "int256",
          "name": "key_",
          "type": "int256"
        }
      ],
      "name": "calculateStorageSlotIntMapping",
      "outputs": [
        {
          "internalType": "bytes32",
          "name": "",
          "type": "bytes32"
        }
      ],
      "stateMutability": "pure",
      "type": "function"
    },
    {
      "inputs": [
        {
          "internalType": "uint256",
          "name": "slot_",
          "type": "uint256"
        },
        {
          "internalType": "uint256",
          "name": "key_",
          "type": "uint256"
        }
      ],
      "name": "calculateStorageSlotUintMapping",
      "outputs": [
        {
          "internalType": "bytes32",
          "name": "",
          "type": "bytes32"
        }
      ],
      "stateMutability": "pure",
      "type": "function"
    },
    {
      "inputs": [
        {
          "internalType": "address",
          "name": "vault_",
          "type": "address"
        }
      ],
      "name": "getAbsorbedDustDebt",
      "outputs": [
        {
          "internalType": "uint256",
          "name": "",
          "type": "uint256"
        }
      ],
      "stateMutability": "view",
      "type": "function"
    },
    {
      "inputs": [
        {
          "internalType": "address",
          "name": "vault_",
          "type": "address"
        }
      ],
      "name": "getAbsorbedLiquidityRaw",
      "outputs": [
        {
          "internalType": "uint256",
          "name": "",
          "type": "uint256"
        }
      ],
      "stateMutability": "view",
      "type": "function"
    },
    {
      "inputs": [],
      "name": "getAllVaultsAddresses",
      "outputs": [
        {
          "internalType": "address[]",
          "name": "vaults_",
          "type": "address[]"
        }
      ],
      "stateMutability": "view",
      "type": "function"
    },
    {
      "inputs": [],
      "name": "getAllVaultsLiquidation",
      "outputs": [
        {
          "components": [
            {
              "internalType": "address",
              "name": "vault",
              "type": "address"
            },
            {
              "internalType": "address",
              "name": "token0In",
              "type": "address"
            },
            {
              "internalType": "address",
              "name": "token0Out",
              "type": "address"
            },
            {
              "internalType": "address",
              "name": "token1In",
              "type": "address"
            },
            {
              "internalType": "address",
              "name": "token1Out",
              "type": "address"
            },
            {
              "internalType": "uint256",
              "name": "inAmt",
              "type": "uint256"
            },
            {
              "internalType": "uint256",
              "name": "outAmt",
              "type": "uint256"
            },
            {
              "internalType": "uint256",
              "name": "inAmtWithAbsorb",
              "type": "uint256"
            },
            {
              "internalType": "uint256",
              "name": "outAmtWithAbsorb",
              "type": "uint256"
            },
            {
              "internalType": "bool",
              "name": "absorbAvailable",
              "type": "bool"
            }
          ],
          "internalType": "struct Structs.LiquidationStruct[]",
          "name": "liquidationsData_",
          "type": "tuple[]"
        }
      ],
      "stateMutability": "nonpayable",
      "type": "function"
    },
    {
      "inputs": [
        {
          "internalType": "address",
          "name": "vault_",
          "type": "address"
        },
        {
          "internalType": "uint256",
          "name": "branch_",
          "type": "uint256"
        }
      ],
      "name": "getBranchDataRaw",
      "outputs": [
        {
          "internalType": "uint256",
          "name": "",
          "type": "uint256"
        }
      ],
      "stateMutability": "view",
      "type": "function"
    },
    {
      "inputs": [
        {
          "internalType": "address",
          "name": "vault_",
          "type": "address"
        },
        {
          "internalType": "uint256",
          "name": "index_",
          "type": "uint256"
        }
      ],
      "name": "getContractForDeployerIndex",
      "outputs": [
        {
          "internalType": "address",
          "name": "",
          "type": "address"
        }
      ],
      "stateMutability": "view",
      "type": "function"
    },
    {
      "inputs": [
        {
          "internalType": "address",
          "name": "vault_",
          "type": "address"
        }
      ],
      "name": "getDexFromAddress",
      "outputs": [
        {
          "internalType": "address",
          "name": "",
          "type": "address"
        }
      ],
      "stateMutability": "view",
      "type": "function"
    },
    {
      "inputs": [
        {
          "internalType": "address[]",
          "name": "vaults_",
          "type": "address[]"
        },
        {
          "internalType": "uint256[]",
          "name": "tokensInAmt_",
          "type": "uint256[]"
        }
      ],
      "name": "getMultipleVaultsLiquidation",
      "outputs": [
        {
          "components": [
            {
              "internalType": "address",
              "name": "vault",
              "type": "address"
            },
            {
              "internalType": "address",
              "name": "token0In",
              "type": "address"
            },
            {
              "internalType": "address",
              "name": "token0Out",
              "type": "address"
            },
            {
              "internalType": "address",
              "name": "token1In",
              "type": "address"
            },
            {
              "internalType": "address",
              "name": "token1Out",
              "type": "address"
            },
            {
              "internalType": "uint256",
              "name": "inAmt",
              "type": "uint256"
            },
            {
              "internalType": "uint256",
              "name": "outAmt",
              "type": "uint256"
            },
            {
              "internalType": "uint256",
              "name": "inAmtWithAbsorb",
              "type": "uint256"
            },
            {
              "internalType": "uint256",
              "name": "outAmtWithAbsorb",
              "type": "uint256"
            },
            {
              "internalType": "bool",
              "name": "absorbAvailable",
              "type": "bool"
            }
          ],
          "internalType": "struct Structs.LiquidationStruct[]",
          "name": "liquidationsData_",
          "type": "tuple[]"
        }
      ],
      "stateMutability": "nonpayable",
      "type": "function"
    },
    {
      "inputs": [
        {
          "internalType": "address",
          "name": "vault_",
          "type": "address"
        },
        {
          "internalType": "uint256",
          "name": "positionId_",
          "type": "uint256"
        }
      ],
      "name": "getPositionDataRaw",
      "outputs": [
        {
          "internalType": "uint256",
          "name": "",
          "type": "uint256"
        }
      ],
      "stateMutability": "view",
      "type": "function"
    },
    {
      "inputs": [
        {
          "internalType": "address",
          "name": "vault_",
          "type": "address"
        }
      ],
      "name": "getRateRaw",
      "outputs": [
        {
          "internalType": "uint256",
          "name": "",
          "type": "uint256"
        }
      ],
      "stateMutability": "view",
      "type": "function"
    },
    {
      "inputs": [
        {
          "internalType": "address",
          "name": "vault_",
          "type": "address"
        }
      ],
      "name": "getRebalancer",
      "outputs": [
        {
          "internalType": "address",
          "name": "",
          "type": "address"
        }
      ],
      "stateMutability": "view",
      "type": "function"
    },
    {
      "inputs": [
        {
          "internalType": "address",
          "name": "vault_",
          "type": "address"
        },
        {
          "internalType": "int256",
          "name": "tick_",
          "type": "int256"
        }
      ],
      "name": "getTickDataRaw",
      "outputs": [
        {
          "internalType": "uint256",
          "name": "",
          "type": "uint256"
        }
      ],
      "stateMutability": "view",
      "type": "function"
    },
    {
      "inputs": [
        {
          "internalType": "address",
          "name": "vault_",
          "type": "address"
        },
        {
          "internalType": "int256",
          "name": "key_",
          "type": "int256"
        }
      ],
      "name": "getTickHasDebtRaw",
      "outputs": [
        {
          "internalType": "uint256",
          "name": "",
          "type": "uint256"
        }
      ],
      "stateMutability": "view",
      "type": "function"
    },
    {
      "inputs": [
        {
          "internalType": "address",
          "name": "vault_",
          "type": "address"
        },
        {
          "internalType": "int256",
          "name": "tick_",
          "type": "int256"
        },
        {
          "internalType": "uint256",
          "name": "id_",
          "type": "uint256"
        }
      ],
      "name": "getTickIdDataRaw",
      "outputs": [
        {
          "internalType": "uint256",
          "name": "",
          "type": "uint256"
        }
      ],
      "stateMutability": "view",
      "type": "function"
    },
    {
      "inputs": [
        {
          "internalType": "uint256",
          "name": "nftId_",
          "type": "uint256"
        }
      ],
      "name": "getTokenConfig",
      "outputs": [
        {
          "internalType": "uint256",
          "name": "",
          "type": "uint256"
        }
      ],
      "stateMutability": "view",
      "type": "function"
    },
    {
      "inputs": [],
      "name": "getTotalVaults",
      "outputs": [
        {
          "internalType": "uint256",
          "name": "",
          "type": "uint256"
        }
      ],
      "stateMutability": "view",
      "type": "function"
    },
    {
      "inputs": [
        {
          "internalType": "address",
          "name": "vault_",
          "type": "address"
        }
      ],
      "name": "getVaultAbsorb",
      "outputs": [
        {
          "components": [
            {
              "internalType": "address",
              "name": "vault",
              "type": "address"
            },
            {
              "internalType": "bool",
              "name": "absorbAvailable",
              "type": "bool"
            }
          ],
          "internalType": "struct Structs.AbsorbStruct",
          "name": "absorbData_",
          "type": "tuple"
        }
      ],
      "stateMutability": "nonpayable",
      "type": "function"
    },
    {
      "inputs": [
        {
          "internalType": "uint256",
          "name": "vaultId_",
          "type": "uint256"
        }
      ],
      "name": "getVaultAddress",
      "outputs": [
        {
          "internalType": "address",
          "name": "vault_",
          "type": "address"
        }
      ],
      "stateMutability": "view",
      "type": "function"
    },
    {
      "inputs": [
        {
          "internalType": "address",
          "name": "vault_",
          "type": "address"
        }
      ],
      "name": "getVaultEntireData",
      "outputs": [
        {
          "components": [
            {
              "internalType": "address",
              "name": "vault",
              "type": "address"
            },
            {
              "internalType": "bool",
              "name": "isSmartCol",
              "type": "bool"
            },
            {
              "internalType": "bool",
              "name": "isSmartDebt",
              "type": "bool"
            },
            {
              "components": [
                {
                  "internalType": "address",
                  "name": "liquidity",
                  "type": "address"
                },
                {
                  "internalType": "address",
                  "name": "factory",
                  "type": "address"
                },
                {
                  "internalType": "address",
                  "name": "operateImplementation",
                  "type": "address"
                },
                {
                  "internalType": "address",
                  "name": "adminImplementation",
                  "type": "address"
                },
                {
                  "internalType": "address",
                  "name": "secondaryImplementation",
                  "type": "address"
                },
                {
                  "internalType": "address",
                  "name": "deployer",
                  "type": "address"
                },
                {
                  "internalType": "address",
                  "name": "supply",
                  "type": "address"
                },
                {
                  "internalType": "address",
                  "name": "borrow",
                  "type": "address"
                },
                {
                  "components": [
                    {
                      "internalType": "address",
                      "name": "token0",
                      "type": "address"
                    },
                    {
                      "internalType": "address",
                      "name": "token1",
                      "type": "address"
                    }
                  ],
                  "internalType": "struct IFluidVault.Tokens",
                  "name": "supplyToken",
                  "type": "tuple"
                },
                {
                  "components": [
                    {
                      "internalType": "address",
                      "name": "token0",
                      "type": "address"
                    },
                    {
                      "internalType": "address",
                      "name": "token1",
                      "type": "address"
                    }
                  ],
                  "internalType": "struct IFluidVault.Tokens",
                  "name": "borrowToken",
                  "type": "tuple"
                },
                {
                  "internalType": "uint256",
                  "name": "vaultId",
                  "type": "uint256"
                },
                {
                  "internalType": "uint256",
                  "name": "vaultType",
                  "type": "uint256"
                },
                {
                  "internalType": "bytes32",
                  "name": "supplyExchangePriceSlot",
                  "type": "bytes32"
                },
                {
                  "internalType": "bytes32",
                  "name": "borrowExchangePriceSlot",
                  "type": "bytes32"
                },
                {
                  "internalType": "bytes32",
                  "name": "userSupplySlot",
                  "type": "bytes32"
                },
                {
                  "internalType": "bytes32",
                  "name": "userBorrowSlot",
                  "type": "bytes32"
                }
              ],
              "internalType": "struct IFluidVault.ConstantViews",
              "name": "constantVariables",
              "type": "tuple"
            },
            {
              "components": [
                {
                  "internalType": "uint16",
                  "name": "supplyRateMagnifier",
                  "type": "uint16"
                },
                {
                  "internalType": "uint16",
                  "name": "borrowRateMagnifier",
                  "type": "uint16"
                },
                {
                  "internalType": "uint16",
                  "name": "collateralFactor",
                  "type": "uint16"
                },
                {
                  "internalType": "uint16",
                  "name": "liquidationThreshold",
                  "type": "uint16"
                },
                {
                  "internalType": "uint16",
                  "name": "liquidationMaxLimit",
                  "type": "uint16"
                },
                {
                  "internalType": "uint16",
                  "name": "withdrawalGap",
                  "type": "uint16"
                },
                {
                  "internalType": "uint16",
                  "name": "liquidationPenalty",
                  "type": "uint16"
                },
                {
                  "internalType": "uint16",
                  "name": "borrowFee",
                  "type": "uint16"
                },
                {
                  "internalType": "address",
                  "name": "oracle",
                  "type": "address"
                },
                {
                  "internalType": "uint256",
                  "name": "oraclePriceOperate",
                  "type": "uint256"
                },
                {
                  "internalType": "uint256",
                  "name": "oraclePriceLiquidate",
                  "type": "uint256"
                },
                {
                  "internalType": "address",
                  "name": "rebalancer",
                  "type": "address"
                },
                {
                  "internalType": "uint256",
                  "name": "lastUpdateTimestamp",
                  "type": "uint256"
                }
              ],
              "internalType": "struct Structs.Configs",
              "name": "configs",
              "type": "tuple"
            },
            {
              "components": [
                {
                  "internalType": "uint256",
                  "name": "lastStoredLiquiditySupplyExchangePrice",
                  "type": "uint256"
                },
                {
                  "internalType": "uint256",
                  "name": "lastStoredLiquidityBorrowExchangePrice",
                  "type": "uint256"
                },
                {
                  "internalType": "uint256",
                  "name": "lastStoredVaultSupplyExchangePrice",
                  "type": "uint256"
                },
                {
                  "internalType": "uint256",
                  "name": "lastStoredVaultBorrowExchangePrice",
                  "type": "uint256"
                },
                {
                  "internalType": "uint256",
                  "name": "liquiditySupplyExchangePrice",
                  "type": "uint256"
                },
                {
                  "internalType": "uint256",
                  "name": "liquidityBorrowExchangePrice",
                  "type": "uint256"
                },
                {
                  "internalType": "uint256",
                  "name": "vaultSupplyExchangePrice",
                  "type": "uint256"
                },
                {
                  "internalType": "uint256",
                  "name": "vaultBorrowExchangePrice",
                  "type": "uint256"
                },
                {
                  "internalType": "uint256",
                  "name": "supplyRateLiquidity",
                  "type": "uint256"
                },
                {
                  "internalType": "uint256",
                  "name": "borrowRateLiquidity",
                  "type": "uint256"
                },
                {
                  "internalType": "int256",
                  "name": "supplyRateVault",
                  "type": "int256"
                },
                {
                  "internalType": "int256",
                  "name": "borrowRateVault",
                  "type": "int256"
                },
                {
                  "internalType": "int256",
                  "name": "rewardsOrFeeRateSupply",
                  "type": "int256"
                },
                {
                  "internalType": "int256",
                  "name": "rewardsOrFeeRateBorrow",
                  "type": "int256"
                }
              ],
              "internalType": "struct Structs.ExchangePricesAndRates",
              "name": "exchangePricesAndRates",
              "type": "tuple"
            },
            {
              "components": [
                {
                  "internalType": "uint256",
                  "name": "totalSupplyVault",
                  "type": "uint256"
                },
                {
                  "internalType": "uint256",
                  "name": "totalBorrowVault",
                  "type": "uint256"
                },
                {
                  "internalType": "uint256",
                  "name": "totalSupplyLiquidityOrDex",
                  "type": "uint256"
                },
                {
                  "internalType": "uint256",
                  "name": "totalBorrowLiquidityOrDex",
                  "type": "uint256"
                },
                {
                  "internalType": "uint256",
                  "name": "absorbedSupply",
                  "type": "uint256"
                },
                {
                  "internalType": "uint256",
                  "name": "absorbedBorrow",
                  "type": "uint256"
                }
              ],
              "internalType": "struct Structs.TotalSupplyAndBorrow",
              "name": "totalSupplyAndBorrow",
              "type": "tuple"
            },
            {
              "components": [
                {
                  "internalType": "uint256",
                  "name": "withdrawLimit",
                  "type": "uint256"
                },
                {
                  "internalType": "uint256",
                  "name": "withdrawableUntilLimit",
                  "type": "uint256"
                },
                {
                  "internalType": "uint256",
                  "name": "withdrawable",
                  "type": "uint256"
                },
                {
                  "internalType": "uint256",
                  "name": "borrowLimit",
                  "type": "uint256"
                },
                {
                  "internalType": "uint256",
                  "name": "borrowableUntilLimit",
                  "type": "uint256"
                },
                {
                  "internalType": "uint256",
                  "name": "borrowable",
                  "type": "uint256"
                },
                {
                  "internalType": "uint256",
                  "name": "borrowLimitUtilization",
                  "type": "uint256"
                },
                {
                  "internalType": "uint256",
                  "name": "minimumBorrowing",
                  "type": "uint256"
                }
              ],
              "internalType": "struct Structs.LimitsAndAvailability",
              "name": "limitsAndAvailability",
              "type": "tuple"
            },
            {
              "components": [
                {
                  "internalType": "uint256",
                  "name": "totalPositions",
                  "type": "uint256"
                },
                {
                  "internalType": "int256",
                  "name": "topTick",
                  "type": "int256"
                },
                {
                  "internalType": "uint256",
                  "name": "currentBranch",
                  "type": "uint256"
                },
                {
                  "internalType": "uint256",
                  "name": "totalBranch",
                  "type": "uint256"
                },
                {
                  "internalType": "uint256",
                  "name": "totalBorrow",
                  "type": "uint256"
                },
                {
                  "internalType": "uint256",
                  "name": "totalSupply",
                  "type": "uint256"
                },
                {
                  "components": [
                    {
                      "internalType": "uint256",
                      "name": "status",
                      "type": "uint256"
                    },
                    {
                      "internalType": "int256",
                      "name": "minimaTick",
                      "type": "int256"
                    },
                    {
                      "internalType": "uint256",
                      "name": "debtFactor",
                      "type": "uint256"
                    },
                    {
                      "internalType": "uint256",
                      "name": "partials",
                      "type": "uint256"
                    },
                    {
                      "internalType": "uint256",
                      "name": "debtLiquidity",
                      "type": "uint256"
                    },
                    {
                      "internalType": "uint256",
                      "name": "baseBranchId",
                      "type": "uint256"
                    },
                    {
                      "internalType": "int256",
                      "name": "baseBranchMinima",
                      "type": "int256"
                    }
                  ],
                  "internalType": "struct Structs.CurrentBranchState",
                  "name": "currentBranchState",
                  "type": "tuple"
                }
              ],
              "internalType": "struct Structs.VaultState",
              "name": "vaultState",
              "type": "tuple"
            },
            {
              "components": [
                {
                  "internalType": "bool",
                  "name": "modeWithInterest",
                  "type": "bool"
                },
                {
                  "internalType": "uint256",
                  "name": "supply",
                  "type": "uint256"
                },
                {
                  "internalType": "uint256",
                  "name": "withdrawalLimit",
                  "type": "uint256"
                },
                {
                  "internalType": "uint256",
                  "name": "lastUpdateTimestamp",
                  "type": "uint256"
                },
                {
                  "internalType": "uint256",
                  "name": "expandPercent",
                  "type": "uint256"
                },
                {
                  "internalType": "uint256",
                  "name": "expandDuration",
                  "type": "uint256"
                },
                {
                  "internalType": "uint256",
                  "name": "baseWithdrawalLimit",
                  "type": "uint256"
                },
                {
                  "internalType": "uint256",
                  "name": "withdrawableUntilLimit",
                  "type": "uint256"
                },
                {
                  "internalType": "uint256",
                  "name": "withdrawable",
                  "type": "uint256"
                }
              ],
              "internalType": "struct Structs.UserSupplyData",
              "name": "liquidityUserSupplyData",
              "type": "tuple"
            },
            {
              "components": [
                {
                  "internalType": "bool",
                  "name": "modeWithInterest",
                  "type": "bool"
                },
                {
                  "internalType": "uint256",
                  "name": "borrow",
                  "type": "uint256"
                },
                {
                  "internalType": "uint256",
                  "name": "borrowLimit",
                  "type": "uint256"
                },
                {
                  "internalType": "uint256",
                  "name": "lastUpdateTimestamp",
                  "type": "uint256"
                },
                {
                  "internalType": "uint256",
                  "name": "expandPercent",
                  "type": "uint256"
                },
                {
                  "internalType": "uint256",
                  "name": "expandDuration",
                  "type": "uint256"
                },
                {
                  "internalType": "uint256",
                  "name": "baseBorrowLimit",
                  "type": "uint256"
                },
                {
                  "internalType": "uint256",
                  "name": "maxBorrowLimit",
                  "type": "uint256"
                },
                {
                  "internalType": "uint256",
                  "name": "borrowableUntilLimit",
                  "type": "uint256"
                },
                {
                  "internalType": "uint256",
                  "name": "borrowable",
                  "type": "uint256"
                },
                {
                  "internalType": "uint256",
                  "name": "borrowLimitUtilization",
                  "type": "uint256"
                }
              ],
              "internalType": "struct Structs.UserBorrowData",
              "name": "liquidityUserBorrowData",
              "type": "tuple"
            }
          ],
          "internalType": "struct Structs.VaultEntireData",
          "name": "vaultData_",
          "type": "tuple"
        }
      ],
      "stateMutability": "view",
      "type": "function"
    },
    {
      "inputs": [
        {
          "internalType": "address",
          "name": "vault_",
          "type": "address"
        }
      ],
      "name": "getVaultId",
      "outputs": [
        {
          "internalType": "uint256",
          "name": "id_",
          "type": "uint256"
        }
      ],
      "stateMutability": "view",
      "type": "function"
    },
    {
      "inputs": [
        {
          "internalType": "address",
          "name": "vault_",
          "type": "address"
        },
        {
          "internalType": "uint256",
          "name": "tokenInAmt_",
          "type": "uint256"
        }
      ],
      "name": "getVaultLiquidation",
      "outputs": [
        {
          "components": [
            {
              "internalType": "address",
              "name": "vault",
              "type": "address"
            },
            {
              "internalType": "address",
              "name": "token0In",
              "type": "address"
            },
            {
              "internalType": "address",
              "name": "token0Out",
              "type": "address"
            },
            {
              "internalType": "address",
              "name": "token1In",
              "type": "address"
            },
            {
              "internalType": "address",
              "name": "token1Out",
              "type": "address"
            },
            {
              "internalType": "uint256",
              "name": "inAmt",
              "type": "uint256"
            },
            {
              "internalType": "uint256",
              "name": "outAmt",
              "type": "uint256"
            },
            {
              "internalType": "uint256",
              "name": "inAmtWithAbsorb",
              "type": "uint256"
            },
            {
              "internalType": "uint256",
              "name": "outAmtWithAbsorb",
              "type": "uint256"
            },
            {
              "internalType": "bool",
              "name": "absorbAvailable",
              "type": "bool"
            }
          ],
          "internalType": "struct Structs.LiquidationStruct",
          "name": "liquidationData_",
          "type": "tuple"
        }
      ],
      "stateMutability": "nonpayable",
      "type": "function"
    },
    {
      "inputs": [
        {
          "internalType": "address",
          "name": "vault_",
          "type": "address"
        }
      ],
      "name": "getVaultState",
      "outputs": [
        {
          "components": [
            {
              "internalType": "uint256",
              "name": "totalPositions",
              "type": "uint256"
            },
            {
              "internalType": "int256",
              "name": "topTick",
              "type": "int256"
            },
            {
              "internalType": "uint256",
              "name": "currentBranch",
              "type": "uint256"
            },
            {
              "internalType": "uint256",
              "name": "totalBranch",
              "type": "uint256"
            },
            {
              "internalType": "uint256",
              "name": "totalBorrow",
              "type": "uint256"
            },
            {
              "internalType": "uint256",
              "name": "totalSupply",
              "type": "uint256"
            },
            {
              "components": [
                {
                  "internalType": "uint256",
                  "name": "status",
                  "type": "uint256"
                },
                {
                  "internalType": "int256",
                  "name": "minimaTick",
                  "type": "int256"
                },
                {
                  "internalType": "uint256",
                  "name": "debtFactor",
                  "type": "uint256"
                },
                {
                  "internalType": "uint256",
                  "name": "partials",
                  "type": "uint256"
                },
                {
                  "internalType": "uint256",
                  "name": "debtLiquidity",
                  "type": "uint256"
                },
                {
                  "internalType": "uint256",
                  "name": "baseBranchId",
                  "type": "uint256"
                },
                {
                  "internalType": "int256",
                  "name": "baseBranchMinima",
                  "type": "int256"
                }
              ],
              "internalType": "struct Structs.CurrentBranchState",
              "name": "currentBranchState",
              "type": "tuple"
            }
          ],
          "internalType": "struct Structs.VaultState",
          "name": "vaultState_",
          "type": "tuple"
        }
      ],
      "stateMutability": "view",
      "type": "function"
    },
    {
      "inputs": [
        {
          "internalType": "address",
          "name": "vault_",
          "type": "address"
        }
      ],
      "name": "getVaultType",
      "outputs": [
        {
          "internalType": "uint256",
          "name": "vaultType_",
          "type": "uint256"
        }
      ],
      "stateMutability": "view",
      "type": "function"
    },
    {
      "inputs": [
        {
          "internalType": "address",
          "name": "vault_",
          "type": "address"
        }
      ],
      "name": "getVaultVariables2Raw",
      "outputs": [
        {
          "internalType": "uint256",
          "name": "",
          "type": "uint256"
        }
      ],
      "stateMutability": "view",
      "type": "function"
    },
    {
      "inputs": [
        {
          "internalType": "address",
          "name": "vault_",
          "type": "address"
        }
      ],
      "name": "getVaultVariablesRaw",
      "outputs": [
        {
          "internalType": "uint256",
          "name": "",
          "type": "uint256"
        }
      ],
      "stateMutability": "view",
      "type": "function"
    },
    {
      "inputs": [],
      "name": "getVaultsAbsorb",
      "outputs": [
        {
          "components": [
            {
              "internalType": "address",
              "name": "vault",
              "type": "address"
            },
            {
              "internalType": "bool",
              "name": "absorbAvailable",
              "type": "bool"
            }
          ],
          "internalType": "struct Structs.AbsorbStruct[]",
          "name": "absorbData_",
          "type": "tuple[]"
        }
      ],
      "stateMutability": "nonpayable",
      "type": "function"
    },
    {
      "inputs": [
        {
          "internalType": "address[]",
          "name": "vaults_",
          "type": "address[]"
        }
      ],
      "name": "getVaultsAbsorb",
      "outputs": [
        {
          "components": [
            {
              "internalType": "address",
              "name": "vault",
              "type": "address"
            },
            {
              "internalType": "bool",
              "name": "absorbAvailable",
              "type": "bool"
            }
          ],
          "internalType": "struct Structs.AbsorbStruct[]",
          "name": "absorbData_",
          "type": "tuple[]"
        }
      ],
      "stateMutability": "nonpayable",
      "type": "function"
    },
    {
      "inputs": [
        {
          "internalType": "address[]",
          "name": "vaults_",
          "type": "address[]"
        }
      ],
      "name": "getVaultsEntireData",
      "outputs": [
        {
          "components": [
            {
              "internalType": "address",
              "name": "vault",
              "type": "address"
            },
            {
              "internalType": "bool",
              "name": "isSmartCol",
              "type": "bool"
            },
            {
              "internalType": "bool",
              "name": "isSmartDebt",
              "type": "bool"
            },
            {
              "components": [
                {
                  "internalType": "address",
                  "name": "liquidity",
                  "type": "address"
                },
                {
                  "internalType": "address",
                  "name": "factory",
                  "type": "address"
                },
                {
                  "internalType": "address",
                  "name": "operateImplementation",
                  "type": "address"
                },
                {
                  "internalType": "address",
                  "name": "adminImplementation",
                  "type": "address"
                },
                {
                  "internalType": "address",
                  "name": "secondaryImplementation",
                  "type": "address"
                },
                {
                  "internalType": "address",
                  "name": "deployer",
                  "type": "address"
                },
                {
                  "internalType": "address",
                  "name": "supply",
                  "type": "address"
                },
                {
                  "internalType": "address",
                  "name": "borrow",
                  "type": "address"
                },
                {
                  "components": [
                    {
                      "internalType": "address",
                      "name": "token0",
                      "type": "address"
                    },
                    {
                      "internalType": "address",
                      "name": "token1",
                      "type": "address"
                    }
                  ],
                  "internalType": "struct IFluidVault.Tokens",
                  "name": "supplyToken",
                  "type": "tuple"
                },
                {
                  "components": [
                    {
                      "internalType": "address",
                      "name": "token0",
                      "type": "address"
                    },
                    {
                      "internalType": "address",
                      "name": "token1",
                      "type": "address"
                    }
                  ],
                  "internalType": "struct IFluidVault.Tokens",
                  "name": "borrowToken",
                  "type": "tuple"
                },
                {
                  "internalType": "uint256",
                  "name": "vaultId",
                  "type": "uint256"
                },
                {
                  "internalType": "uint256",
                  "name": "vaultType",
                  "type": "uint256"
                },
                {
                  "internalType": "bytes32",
                  "name": "supplyExchangePriceSlot",
                  "type": "bytes32"
                },
                {
                  "internalType": "bytes32",
                  "name": "borrowExchangePriceSlot",
                  "type": "bytes32"
                },
                {
                  "internalType": "bytes32",
                  "name": "userSupplySlot",
                  "type": "bytes32"
                },
                {
                  "internalType": "bytes32",
                  "name": "userBorrowSlot",
                  "type": "bytes32"
                }
              ],
              "internalType": "struct IFluidVault.ConstantViews",
              "name": "constantVariables",
              "type": "tuple"
            },
            {
              "components": [
                {
                  "internalType": "uint16",
                  "name": "supplyRateMagnifier",
                  "type": "uint16"
                },
                {
                  "internalType": "uint16",
                  "name": "borrowRateMagnifier",
                  "type": "uint16"
                },
                {
                  "internalType": "uint16",
                  "name": "collateralFactor",
                  "type": "uint16"
                },
                {
                  "internalType": "uint16",
                  "name": "liquidationThreshold",
                  "type": "uint16"
                },
                {
                  "internalType": "uint16",
                  "name": "liquidationMaxLimit",
                  "type": "uint16"
                },
                {
                  "internalType": "uint16",
                  "name": "withdrawalGap",
                  "type": "uint16"
                },
                {
                  "internalType": "uint16",
                  "name": "liquidationPenalty",
                  "type": "uint16"
                },
                {
                  "internalType": "uint16",
                  "name": "borrowFee",
                  "type": "uint16"
                },
                {
                  "internalType": "address",
                  "name": "oracle",
                  "type": "address"
                },
                {
                  "internalType": "uint256",
                  "name": "oraclePriceOperate",
                  "type": "uint256"
                },
                {
                  "internalType": "uint256",
                  "name": "oraclePriceLiquidate",
                  "type": "uint256"
                },
                {
                  "internalType": "address",
                  "name": "rebalancer",
                  "type": "address"
                },
                {
                  "internalType": "uint256",
                  "name": "lastUpdateTimestamp",
                  "type": "uint256"
                }
              ],
              "internalType": "struct Structs.Configs",
              "name": "configs",
              "type": "tuple"
            },
            {
              "components": [
                {
                  "internalType": "uint256",
                  "name": "lastStoredLiquiditySupplyExchangePrice",
                  "type": "uint256"
                },
                {
                  "internalType": "uint256",
                  "name": "lastStoredLiquidityBorrowExchangePrice",
                  "type": "uint256"
                },
                {
                  "internalType": "uint256",
                  "name": "lastStoredVaultSupplyExchangePrice",
                  "type": "uint256"
                },
                {
                  "internalType": "uint256",
                  "name": "lastStoredVaultBorrowExchangePrice",
                  "type": "uint256"
                },
                {
                  "internalType": "uint256",
                  "name": "liquiditySupplyExchangePrice",
                  "type": "uint256"
                },
                {
                  "internalType": "uint256",
                  "name": "liquidityBorrowExchangePrice",
                  "type": "uint256"
                },
                {
                  "internalType": "uint256",
                  "name": "vaultSupplyExchangePrice",
                  "type": "uint256"
                },
                {
                  "internalType": "uint256",
                  "name": "vaultBorrowExchangePrice",
                  "type": "uint256"
                },
                {
                  "internalType": "uint256",
                  "name": "supplyRateLiquidity",
                  "type": "uint256"
                },
                {
                  "internalType": "uint256",
                  "name": "borrowRateLiquidity",
                  "type": "uint256"
                },
                {
                  "internalType": "int256",
                  "name": "supplyRateVault",
                  "type": "int256"
                },
                {
                  "internalType": "int256",
                  "name": "borrowRateVault",
                  "type": "int256"
                },
                {
                  "internalType": "int256",
                  "name": "rewardsOrFeeRateSupply",
                  "type": "int256"
                },
                {
                  "internalType": "int256",
                  "name": "rewardsOrFeeRateBorrow",
                  "type": "int256"
                }
              ],
              "internalType": "struct Structs.ExchangePricesAndRates",
              "name": "exchangePricesAndRates",
              "type": "tuple"
            },
            {
              "components": [
                {
                  "internalType": "uint256",
                  "name": "totalSupplyVault",
                  "type": "uint256"
                },
                {
                  "internalType": "uint256",
                  "name": "totalBorrowVault",
                  "type": "uint256"
                },
                {
                  "internalType": "uint256",
                  "name": "totalSupplyLiquidityOrDex",
                  "type": "uint256"
                },
                {
                  "internalType": "uint256",
                  "name": "totalBorrowLiquidityOrDex",
                  "type": "uint256"
                },
                {
                  "internalType": "uint256",
                  "name": "absorbedSupply",
                  "type": "uint256"
                },
                {
                  "internalType": "uint256",
                  "name": "absorbedBorrow",
                  "type": "uint256"
                }
              ],
              "internalType": "struct Structs.TotalSupplyAndBorrow",
              "name": "totalSupplyAndBorrow",
              "type": "tuple"
            },
            {
              "components": [
                {
                  "internalType": "uint256",
                  "name": "withdrawLimit",
                  "type": "uint256"
                },
                {
                  "internalType": "uint256",
                  "name": "withdrawableUntilLimit",
                  "type": "uint256"
                },
                {
                  "internalType": "uint256",
                  "name": "withdrawable",
                  "type": "uint256"
                },
                {
                  "internalType": "uint256",
                  "name": "borrowLimit",
                  "type": "uint256"
                },
                {
                  "internalType": "uint256",
                  "name": "borrowableUntilLimit",
                  "type": "uint256"
                },
                {
                  "internalType": "uint256",
                  "name": "borrowable",
                  "type": "uint256"
                },
                {
                  "internalType": "uint256",
                  "name": "borrowLimitUtilization",
                  "type": "uint256"
                },
                {
                  "internalType": "uint256",
                  "name": "minimumBorrowing",
                  "type": "uint256"
                }
              ],
              "internalType": "struct Structs.LimitsAndAvailability",
              "name": "limitsAndAvailability",
              "type": "tuple"
            },
            {
              "components": [
                {
                  "internalType": "uint256",
                  "name": "totalPositions",
                  "type": "uint256"
                },
                {
                  "internalType": "int256",
                  "name": "topTick",
                  "type": "int256"
                },
                {
                  "internalType": "uint256",
                  "name": "currentBranch",
                  "type": "uint256"
                },
                {
                  "internalType": "uint256",
                  "name": "totalBranch",
                  "type": "uint256"
                },
                {
                  "internalType": "uint256",
                  "name": "totalBorrow",
                  "type": "uint256"
                },
                {
                  "internalType": "uint256",
                  "name": "totalSupply",
                  "type": "uint256"
                },
                {
                  "components": [
                    {
                      "internalType": "uint256",
                      "name": "status",
                      "type": "uint256"
                    },
                    {
                      "internalType": "int256",
                      "name": "minimaTick",
                      "type": "int256"
                    },
                    {
                      "internalType": "uint256",
                      "name": "debtFactor",
                      "type": "uint256"
                    },
                    {
                      "internalType": "uint256",
                      "name": "partials",
                      "type": "uint256"
                    },
                    {
                      "internalType": "uint256",
                      "name": "debtLiquidity",
                      "type": "uint256"
                    },
                    {
                      "internalType": "uint256",
                      "name": "baseBranchId",
                      "type": "uint256"
                    },
                    {
                      "internalType": "int256",
                      "name": "baseBranchMinima",
                      "type": "int256"
                    }
                  ],
                  "internalType": "struct Structs.CurrentBranchState",
                  "name": "currentBranchState",
                  "type": "tuple"
                }
              ],
              "internalType": "struct Structs.VaultState",
              "name": "vaultState",
              "type": "tuple"
            },
            {
              "components": [
                {
                  "internalType": "bool",
                  "name": "modeWithInterest",
                  "type": "bool"
                },
                {
                  "internalType": "uint256",
                  "name": "supply",
                  "type": "uint256"
                },
                {
                  "internalType": "uint256",
                  "name": "withdrawalLimit",
                  "type": "uint256"
                },
                {
                  "internalType": "uint256",
                  "name": "lastUpdateTimestamp",
                  "type": "uint256"
                },
                {
                  "internalType": "uint256",
                  "name": "expandPercent",
                  "type": "uint256"
                },
                {
                  "internalType": "uint256",
                  "name": "expandDuration",
                  "type": "uint256"
                },
                {
                  "internalType": "uint256",
                  "name": "baseWithdrawalLimit",
                  "type": "uint256"
                },
                {
                  "internalType": "uint256",
                  "name": "withdrawableUntilLimit",
                  "type": "uint256"
                },
                {
                  "internalType": "uint256",
                  "name": "withdrawable",
                  "type": "uint256"
                }
              ],
              "internalType": "struct Structs.UserSupplyData",
              "name": "liquidityUserSupplyData",
              "type": "tuple"
            },
            {
              "components": [
                {
                  "internalType": "bool",
                  "name": "modeWithInterest",
                  "type": "bool"
                },
                {
                  "internalType": "uint256",
                  "name": "borrow",
                  "type": "uint256"
                },
                {
                  "internalType": "uint256",
                  "name": "borrowLimit",
                  "type": "uint256"
                },
                {
                  "internalType": "uint256",
                  "name": "lastUpdateTimestamp",
                  "type": "uint256"
                },
                {
                  "internalType": "uint256",
                  "name": "expandPercent",
                  "type": "uint256"
                },
                {
                  "internalType": "uint256",
                  "name": "expandDuration",
                  "type": "uint256"
                },
                {
                  "internalType": "uint256",
                  "name": "baseBorrowLimit",
                  "type": "uint256"
                },
                {
                  "internalType": "uint256",
                  "name": "maxBorrowLimit",
                  "type": "uint256"
                },
                {
                  "internalType": "uint256",
                  "name": "borrowableUntilLimit",
                  "type": "uint256"
                },
                {
                  "internalType": "uint256",
                  "name": "borrowable",
                  "type": "uint256"
                },
                {
                  "internalType": "uint256",
                  "name": "borrowLimitUtilization",
                  "type": "uint256"
                }
              ],
              "internalType": "struct Structs.UserBorrowData",
              "name": "liquidityUserBorrowData",
              "type": "tuple"
            }
          ],
          "internalType": "struct Structs.VaultEntireData[]",
          "name": "vaultsData_",
          "type": "tuple[]"
        }
      ],
      "stateMutability": "view",
      "type": "function"
    },
    {
      "inputs": [],
      "name": "getVaultsEntireData",
      "outputs": [
        {
          "components": [
            {
              "internalType": "address",
              "name": "vault",
              "type": "address"
            },
            {
              "internalType": "bool",
              "name": "isSmartCol",
              "type": "bool"
            },
            {
              "internalType": "bool",
              "name": "isSmartDebt",
              "type": "bool"
            },
            {
              "components": [
                {
                  "internalType": "address",
                  "name": "liquidity",
                  "type": "address"
                },
                {
                  "internalType": "address",
                  "name": "factory",
                  "type": "address"
                },
                {
                  "internalType": "address",
                  "name": "operateImplementation",
                  "type": "address"
                },
                {
                  "internalType": "address",
                  "name": "adminImplementation",
                  "type": "address"
                },
                {
                  "internalType": "address",
                  "name": "secondaryImplementation",
                  "type": "address"
                },
                {
                  "internalType": "address",
                  "name": "deployer",
                  "type": "address"
                },
                {
                  "internalType": "address",
                  "name": "supply",
                  "type": "address"
                },
                {
                  "internalType": "address",
                  "name": "borrow",
                  "type": "address"
                },
                {
                  "components": [
                    {
                      "internalType": "address",
                      "name": "token0",
                      "type": "address"
                    },
                    {
                      "internalType": "address",
                      "name": "token1",
                      "type": "address"
                    }
                  ],
                  "internalType": "struct IFluidVault.Tokens",
                  "name": "supplyToken",
                  "type": "tuple"
                },
                {
                  "components": [
                    {
                      "internalType": "address",
                      "name": "token0",
                      "type": "address"
                    },
                    {
                      "internalType": "address",
                      "name": "token1",
                      "type": "address"
                    }
                  ],
                  "internalType": "struct IFluidVault.Tokens",
                  "name": "borrowToken",
                  "type": "tuple"
                },
                {
                  "internalType": "uint256",
                  "name": "vaultId",
                  "type": "uint256"
                },
                {
                  "internalType": "uint256",
                  "name": "vaultType",
                  "type": "uint256"
                },
                {
                  "internalType": "bytes32",
                  "name": "supplyExchangePriceSlot",
                  "type": "bytes32"
                },
                {
                  "internalType": "bytes32",
                  "name": "borrowExchangePriceSlot",
                  "type": "bytes32"
                },
                {
                  "internalType": "bytes32",
                  "name": "userSupplySlot",
                  "type": "bytes32"
                },
                {
                  "internalType": "bytes32",
                  "name": "userBorrowSlot",
                  "type": "bytes32"
                }
              ],
              "internalType": "struct IFluidVault.ConstantViews",
              "name": "constantVariables",
              "type": "tuple"
            },
            {
              "components": [
                {
                  "internalType": "uint16",
                  "name": "supplyRateMagnifier",
                  "type": "uint16"
                },
                {
                  "internalType": "uint16",
                  "name": "borrowRateMagnifier",
                  "type": "uint16"
                },
                {
                  "internalType": "uint16",
                  "name": "collateralFactor",
                  "type": "uint16"
                },
                {
                  "internalType": "uint16",
                  "name": "liquidationThreshold",
                  "type": "uint16"
                },
                {
                  "internalType": "uint16",
                  "name": "liquidationMaxLimit",
                  "type": "uint16"
                },
                {
                  "internalType": "uint16",
                  "name": "withdrawalGap",
                  "type": "uint16"
                },
                {
                  "internalType": "uint16",
                  "name": "liquidationPenalty",
                  "type": "uint16"
                },
                {
                  "internalType": "uint16",
                  "name": "borrowFee",
                  "type": "uint16"
                },
                {
                  "internalType": "address",
                  "name": "oracle",
                  "type": "address"
                },
                {
                  "internalType": "uint256",
                  "name": "oraclePriceOperate",
                  "type": "uint256"
                },
                {
                  "internalType": "uint256",
                  "name": "oraclePriceLiquidate",
                  "type": "uint256"
                },
                {
                  "internalType": "address",
                  "name": "rebalancer",
                  "type": "address"
                },
                {
                  "internalType": "uint256",
                  "name": "lastUpdateTimestamp",
                  "type": "uint256"
                }
              ],
              "internalType": "struct Structs.Configs",
              "name": "configs",
              "type": "tuple"
            },
            {
              "components": [
                {
                  "internalType": "uint256",
                  "name": "lastStoredLiquiditySupplyExchangePrice",
                  "type": "uint256"
                },
                {
                  "internalType": "uint256",
                  "name": "lastStoredLiquidityBorrowExchangePrice",
                  "type": "uint256"
                },
                {
                  "internalType": "uint256",
                  "name": "lastStoredVaultSupplyExchangePrice",
                  "type": "uint256"
                },
                {
                  "internalType": "uint256",
                  "name": "lastStoredVaultBorrowExchangePrice",
                  "type": "uint256"
                },
                {
                  "internalType": "uint256",
                  "name": "liquiditySupplyExchangePrice",
                  "type": "uint256"
                },
                {
                  "internalType": "uint256",
                  "name": "liquidityBorrowExchangePrice",
                  "type": "uint256"
                },
                {
                  "internalType": "uint256",
                  "name": "vaultSupplyExchangePrice",
                  "type": "uint256"
                },
                {
                  "internalType": "uint256",
                  "name": "vaultBorrowExchangePrice",
                  "type": "uint256"
                },
                {
                  "internalType": "uint256",
                  "name": "supplyRateLiquidity",
                  "type": "uint256"
                },
                {
                  "internalType": "uint256",
                  "name": "borrowRateLiquidity",
                  "type": "uint256"
                },
                {
                  "internalType": "int256",
                  "name": "supplyRateVault",
                  "type": "int256"
                },
                {
                  "internalType": "int256",
                  "name": "borrowRateVault",
                  "type": "int256"
                },
                {
                  "internalType": "int256",
                  "name": "rewardsOrFeeRateSupply",
                  "type": "int256"
                },
                {
                  "internalType": "int256",
                  "name": "rewardsOrFeeRateBorrow",
                  "type": "int256"
                }
              ],
              "internalType": "struct Structs.ExchangePricesAndRates",
              "name": "exchangePricesAndRates",
              "type": "tuple"
            },
            {
              "components": [
                {
                  "internalType": "uint256",
                  "name": "totalSupplyVault",
                  "type": "uint256"
                },
                {
                  "internalType": "uint256",
                  "name": "totalBorrowVault",
                  "type": "uint256"
                },
                {
                  "internalType": "uint256",
                  "name": "totalSupplyLiquidityOrDex",
                  "type": "uint256"
                },
                {
                  "internalType": "uint256",
                  "name": "totalBorrowLiquidityOrDex",
                  "type": "uint256"
                },
                {
                  "internalType": "uint256",
                  "name": "absorbedSupply",
                  "type": "uint256"
                },
                {
                  "internalType": "uint256",
                  "name": "absorbedBorrow",
                  "type": "uint256"
                }
              ],
              "internalType": "struct Structs.TotalSupplyAndBorrow",
              "name": "totalSupplyAndBorrow",
              "type": "tuple"
            },
            {
              "components": [
                {
                  "internalType": "uint256",
                  "name": "withdrawLimit",
                  "type": "uint256"
                },
                {
                  "internalType": "uint256",
                  "name": "withdrawableUntilLimit",
                  "type": "uint256"
                },
                {
                  "internalType": "uint256",
                  "name": "withdrawable",
                  "type": "uint256"
                },
                {
                  "internalType": "uint256",
                  "name": "borrowLimit",
                  "type": "uint256"
                },
                {
                  "internalType": "uint256",
                  "name": "borrowableUntilLimit",
                  "type": "uint256"
                },
                {
                  "internalType": "uint256",
                  "name": "borrowable",
                  "type": "uint256"
                },
                {
                  "internalType": "uint256",
                  "name": "borrowLimitUtilization",
                  "type": "uint256"
                },
                {
                  "internalType": "uint256",
                  "name": "minimumBorrowing",
                  "type": "uint256"
                }
              ],
              "internalType": "struct Structs.LimitsAndAvailability",
              "name": "limitsAndAvailability",
              "type": "tuple"
            },
            {
              "components": [
                {
                  "internalType": "uint256",
                  "name": "totalPositions",
                  "type": "uint256"
                },
                {
                  "internalType": "int256",
                  "name": "topTick",
                  "type": "int256"
                },
                {
                  "internalType": "uint256",
                  "name": "currentBranch",
                  "type": "uint256"
                },
                {
                  "internalType": "uint256",
                  "name": "totalBranch",
                  "type": "uint256"
                },
                {
                  "internalType": "uint256",
                  "name": "totalBorrow",
                  "type": "uint256"
                },
                {
                  "internalType": "uint256",
                  "name": "totalSupply",
                  "type": "uint256"
                },
                {
                  "components": [
                    {
                      "internalType": "uint256",
                      "name": "status",
                      "type": "uint256"
                    },
                    {
                      "internalType": "int256",
                      "name": "minimaTick",
                      "type": "int256"
                    },
                    {
                      "internalType": "uint256",
                      "name": "debtFactor",
                      "type": "uint256"
                    },
                    {
                      "internalType": "uint256",
                      "name": "partials",
                      "type": "uint256"
                    },
                    {
                      "internalType": "uint256",
                      "name": "debtLiquidity",
                      "type": "uint256"
                    },
                    {
                      "internalType": "uint256",
                      "name": "baseBranchId",
                      "type": "uint256"
                    },
                    {
                      "internalType": "int256",
                      "name": "baseBranchMinima",
                      "type": "int256"
                    }
                  ],
                  "internalType": "struct Structs.CurrentBranchState",
                  "name": "currentBranchState",
                  "type": "tuple"
                }
              ],
              "internalType": "struct Structs.VaultState",
              "name": "vaultState",
              "type": "tuple"
            },
            {
              "components": [
                {
                  "internalType": "bool",
                  "name": "modeWithInterest",
                  "type": "bool"
                },
                {
                  "internalType": "uint256",
                  "name": "supply",
                  "type": "uint256"
                },
                {
                  "internalType": "uint256",
                  "name": "withdrawalLimit",
                  "type": "uint256"
                },
                {
                  "internalType": "uint256",
                  "name": "lastUpdateTimestamp",
                  "type": "uint256"
                },
                {
                  "internalType": "uint256",
                  "name": "expandPercent",
                  "type": "uint256"
                },
                {
                  "internalType": "uint256",
                  "name": "expandDuration",
                  "type": "uint256"
                },
                {
                  "internalType": "uint256",
                  "name": "baseWithdrawalLimit",
                  "type": "uint256"
                },
                {
                  "internalType": "uint256",
                  "name": "withdrawableUntilLimit",
                  "type": "uint256"
                },
                {
                  "internalType": "uint256",
                  "name": "withdrawable",
                  "type": "uint256"
                }
              ],
              "internalType": "struct Structs.UserSupplyData",
              "name": "liquidityUserSupplyData",
              "type": "tuple"
            },
            {
              "components": [
                {
                  "internalType": "bool",
                  "name": "modeWithInterest",
                  "type": "bool"
                },
                {
                  "internalType": "uint256",
                  "name": "borrow",
                  "type": "uint256"
                },
                {
                  "internalType": "uint256",
                  "name": "borrowLimit",
                  "type": "uint256"
                },
                {
                  "internalType": "uint256",
                  "name": "lastUpdateTimestamp",
                  "type": "uint256"
                },
                {
                  "internalType": "uint256",
                  "name": "expandPercent",
                  "type": "uint256"
                },
                {
                  "internalType": "uint256",
                  "name": "expandDuration",
                  "type": "uint256"
                },
                {
                  "internalType": "uint256",
                  "name": "baseBorrowLimit",
                  "type": "uint256"
                },
                {
                  "internalType": "uint256",
                  "name": "maxBorrowLimit",
                  "type": "uint256"
                },
                {
                  "internalType": "uint256",
                  "name": "borrowableUntilLimit",
                  "type": "uint256"
                },
                {
                  "internalType": "uint256",
                  "name": "borrowable",
                  "type": "uint256"
                },
                {
                  "internalType": "uint256",
                  "name": "borrowLimitUtilization",
                  "type": "uint256"
                }
              ],
              "internalType": "struct Structs.UserBorrowData",
              "name": "liquidityUserBorrowData",
              "type": "tuple"
            }
          ],
          "internalType": "struct Structs.VaultEntireData[]",
          "name": "vaultsData_",
          "type": "tuple[]"
        }
      ],
      "stateMutability": "view",
      "type": "function"
    },
    {
      "inputs": [
        {
          "internalType": "uint256",
          "name": "slot_",
          "type": "uint256"
        }
      ],
      "name": "normalSlot",
      "outputs": [
        {
          "internalType": "bytes32",
          "name": "",
          "type": "bytes32"
        }
      ],
      "stateMutability": "pure",
      "type": "function"
    },
    {
      "inputs": [
        {
          "internalType": "uint256",
          "name": "nftId_",
          "type": "uint256"
        }
      ],
      "name": "positionByNftId",
      "outputs": [
        {
          "components": [
            {
              "internalType": "uint256",
              "name": "nftId",
              "type": "uint256"
            },
            {
              "internalType": "address",
              "name": "owner",
              "type": "address"
            },
            {
              "internalType": "bool",
              "name": "isLiquidated",
              "type": "bool"
            },
            {
              "internalType": "bool",
              "name": "isSupplyPosition",
              "type": "bool"
            },
            {
              "internalType": "int256",
              "name": "tick",
              "type": "int256"
            },
            {
              "internalType": "uint256",
              "name": "tickId",
              "type": "uint256"
            },
            {
              "internalType": "uint256",
              "name": "beforeSupply",
              "type": "uint256"
            },
            {
              "internalType": "uint256",
              "name": "beforeBorrow",
              "type": "uint256"
            },
            {
              "internalType": "uint256",
              "name": "beforeDustBorrow",
              "type": "uint256"
            },
            {
              "internalType": "uint256",
              "name": "supply",
              "type": "uint256"
            },
            {
              "internalType": "uint256",
              "name": "borrow",
              "type": "uint256"
            },
            {
              "internalType": "uint256",
              "name": "dustBorrow",
              "type": "uint256"
            }
          ],
          "internalType": "struct Structs.UserPosition",
          "name": "userPosition_",
          "type": "tuple"
        },
        {
          "components": [
            {
              "internalType": "address",
              "name": "vault",
              "type": "address"
            },
            {
              "internalType": "bool",
              "name": "isSmartCol",
              "type": "bool"
            },
            {
              "internalType": "bool",
              "name": "isSmartDebt",
              "type": "bool"
            },
            {
              "components": [
                {
                  "internalType": "address",
                  "name": "liquidity",
                  "type": "address"
                },
                {
                  "internalType": "address",
                  "name": "factory",
                  "type": "address"
                },
                {
                  "internalType": "address",
                  "name": "operateImplementation",
                  "type": "address"
                },
                {
                  "internalType": "address",
                  "name": "adminImplementation",
                  "type": "address"
                },
                {
                  "internalType": "address",
                  "name": "secondaryImplementation",
                  "type": "address"
                },
                {
                  "internalType": "address",
                  "name": "deployer",
                  "type": "address"
                },
                {
                  "internalType": "address",
                  "name": "supply",
                  "type": "address"
                },
                {
                  "internalType": "address",
                  "name": "borrow",
                  "type": "address"
                },
                {
                  "components": [
                    {
                      "internalType": "address",
                      "name": "token0",
                      "type": "address"
                    },
                    {
                      "internalType": "address",
                      "name": "token1",
                      "type": "address"
                    }
                  ],
                  "internalType": "struct IFluidVault.Tokens",
                  "name": "supplyToken",
                  "type": "tuple"
                },
                {
                  "components": [
                    {
                      "internalType": "address",
                      "name": "token0",
                      "type": "address"
                    },
                    {
                      "internalType": "address",
                      "name": "token1",
                      "type": "address"
                    }
                  ],
                  "internalType": "struct IFluidVault.Tokens",
                  "name": "borrowToken",
                  "type": "tuple"
                },
                {
                  "internalType": "uint256",
                  "name": "vaultId",
                  "type": "uint256"
                },
                {
                  "internalType": "uint256",
                  "name": "vaultType",
                  "type": "uint256"
                },
                {
                  "internalType": "bytes32",
                  "name": "supplyExchangePriceSlot",
                  "type": "bytes32"
                },
                {
                  "internalType": "bytes32",
                  "name": "borrowExchangePriceSlot",
                  "type": "bytes32"
                },
                {
                  "internalType": "bytes32",
                  "name": "userSupplySlot",
                  "type": "bytes32"
                },
                {
                  "internalType": "bytes32",
                  "name": "userBorrowSlot",
                  "type": "bytes32"
                }
              ],
              "internalType": "struct IFluidVault.ConstantViews",
              "name": "constantVariables",
              "type": "tuple"
            },
            {
              "components": [
                {
                  "internalType": "uint16",
                  "name": "supplyRateMagnifier",
                  "type": "uint16"
                },
                {
                  "internalType": "uint16",
                  "name": "borrowRateMagnifier",
                  "type": "uint16"
                },
                {
                  "internalType": "uint16",
                  "name": "collateralFactor",
                  "type": "uint16"
                },
                {
                  "internalType": "uint16",
                  "name": "liquidationThreshold",
                  "type": "uint16"
                },
                {
                  "internalType": "uint16",
                  "name": "liquidationMaxLimit",
                  "type": "uint16"
                },
                {
                  "internalType": "uint16",
                  "name": "withdrawalGap",
                  "type": "uint16"
                },
                {
                  "internalType": "uint16",
                  "name": "liquidationPenalty",
                  "type": "uint16"
                },
                {
                  "internalType": "uint16",
                  "name": "borrowFee",
                  "type": "uint16"
                },
                {
                  "internalType": "address",
                  "name": "oracle",
                  "type": "address"
                },
                {
                  "internalType": "uint256",
                  "name": "oraclePriceOperate",
                  "type": "uint256"
                },
                {
                  "internalType": "uint256",
                  "name": "oraclePriceLiquidate",
                  "type": "uint256"
                },
                {
                  "internalType": "address",
                  "name": "rebalancer",
                  "type": "address"
                },
                {
                  "internalType": "uint256",
                  "name": "lastUpdateTimestamp",
                  "type": "uint256"
                }
              ],
              "internalType": "struct Structs.Configs",
              "name": "configs",
              "type": "tuple"
            },
            {
              "components": [
                {
                  "internalType": "uint256",
                  "name": "lastStoredLiquiditySupplyExchangePrice",
                  "type": "uint256"
                },
                {
                  "internalType": "uint256",
                  "name": "lastStoredLiquidityBorrowExchangePrice",
                  "type": "uint256"
                },
                {
                  "internalType": "uint256",
                  "name": "lastStoredVaultSupplyExchangePrice",
                  "type": "uint256"
                },
                {
                  "internalType": "uint256",
                  "name": "lastStoredVaultBorrowExchangePrice",
                  "type": "uint256"
                },
                {
                  "internalType": "uint256",
                  "name": "liquiditySupplyExchangePrice",
                  "type": "uint256"
                },
                {
                  "internalType": "uint256",
                  "name": "liquidityBorrowExchangePrice",
                  "type": "uint256"
                },
                {
                  "internalType": "uint256",
                  "name": "vaultSupplyExchangePrice",
                  "type": "uint256"
                },
                {
                  "internalType": "uint256",
                  "name": "vaultBorrowExchangePrice",
                  "type": "uint256"
                },
                {
                  "internalType": "uint256",
                  "name": "supplyRateLiquidity",
                  "type": "uint256"
                },
                {
                  "internalType": "uint256",
                  "name": "borrowRateLiquidity",
                  "type": "uint256"
                },
                {
                  "internalType": "int256",
                  "name": "supplyRateVault",
                  "type": "int256"
                },
                {
                  "internalType": "int256",
                  "name": "borrowRateVault",
                  "type": "int256"
                },
                {
                  "internalType": "int256",
                  "name": "rewardsOrFeeRateSupply",
                  "type": "int256"
                },
                {
                  "internalType": "int256",
                  "name": "rewardsOrFeeRateBorrow",
                  "type": "int256"
                }
              ],
              "internalType": "struct Structs.ExchangePricesAndRates",
              "name": "exchangePricesAndRates",
              "type": "tuple"
            },
            {
              "components": [
                {
                  "internalType": "uint256",
                  "name": "totalSupplyVault",
                  "type": "uint256"
                },
                {
                  "internalType": "uint256",
                  "name": "totalBorrowVault",
                  "type": "uint256"
                },
                {
                  "internalType": "uint256",
                  "name": "totalSupplyLiquidityOrDex",
                  "type": "uint256"
                },
                {
                  "internalType": "uint256",
                  "name": "totalBorrowLiquidityOrDex",
                  "type": "uint256"
                },
                {
                  "internalType": "uint256",
                  "name": "absorbedSupply",
                  "type": "uint256"
                },
                {
                  "internalType": "uint256",
                  "name": "absorbedBorrow",
                  "type": "uint256"
                }
              ],
              "internalType": "struct Structs.TotalSupplyAndBorrow",
              "name": "totalSupplyAndBorrow",
              "type": "tuple"
            },
            {
              "components": [
                {
                  "internalType": "uint256",
                  "name": "withdrawLimit",
                  "type": "uint256"
                },
                {
                  "internalType": "uint256",
                  "name": "withdrawableUntilLimit",
                  "type": "uint256"
                },
                {
                  "internalType": "uint256",
                  "name": "withdrawable",
                  "type": "uint256"
                },
                {
                  "internalType": "uint256",
                  "name": "borrowLimit",
                  "type": "uint256"
                },
                {
                  "internalType": "uint256",
                  "name": "borrowableUntilLimit",
                  "type": "uint256"
                },
                {
                  "internalType": "uint256",
                  "name": "borrowable",
                  "type": "uint256"
                },
                {
                  "internalType": "uint256",
                  "name": "borrowLimitUtilization",
                  "type": "uint256"
                },
                {
                  "internalType": "uint256",
                  "name": "minimumBorrowing",
                  "type": "uint256"
                }
              ],
              "internalType": "struct Structs.LimitsAndAvailability",
              "name": "limitsAndAvailability",
              "type": "tuple"
            },
            {
              "components": [
                {
                  "internalType": "uint256",
                  "name": "totalPositions",
                  "type": "uint256"
                },
                {
                  "internalType": "int256",
                  "name": "topTick",
                  "type": "int256"
                },
                {
                  "internalType": "uint256",
                  "name": "currentBranch",
                  "type": "uint256"
                },
                {
                  "internalType": "uint256",
                  "name": "totalBranch",
                  "type": "uint256"
                },
                {
                  "internalType": "uint256",
                  "name": "totalBorrow",
                  "type": "uint256"
                },
                {
                  "internalType": "uint256",
                  "name": "totalSupply",
                  "type": "uint256"
                },
                {
                  "components": [
                    {
                      "internalType": "uint256",
                      "name": "status",
                      "type": "uint256"
                    },
                    {
                      "internalType": "int256",
                      "name": "minimaTick",
                      "type": "int256"
                    },
                    {
                      "internalType": "uint256",
                      "name": "debtFactor",
                      "type": "uint256"
                    },
                    {
                      "internalType": "uint256",
                      "name": "partials",
                      "type": "uint256"
                    },
                    {
                      "internalType": "uint256",
                      "name": "debtLiquidity",
                      "type": "uint256"
                    },
                    {
                      "internalType": "uint256",
                      "name": "baseBranchId",
                      "type": "uint256"
                    },
                    {
                      "internalType": "int256",
                      "name": "baseBranchMinima",
                      "type": "int256"
                    }
                  ],
                  "internalType": "struct Structs.CurrentBranchState",
                  "name": "currentBranchState",
                  "type": "tuple"
                }
              ],
              "internalType": "struct Structs.VaultState",
              "name": "vaultState",
              "type": "tuple"
            },
            {
              "components": [
                {
                  "internalType": "bool",
                  "name": "modeWithInterest",
                  "type": "bool"
                },
                {
                  "internalType": "uint256",
                  "name": "supply",
                  "type": "uint256"
                },
                {
                  "internalType": "uint256",
                  "name": "withdrawalLimit",
                  "type": "uint256"
                },
                {
                  "internalType": "uint256",
                  "name": "lastUpdateTimestamp",
                  "type": "uint256"
                },
                {
                  "internalType": "uint256",
                  "name": "expandPercent",
                  "type": "uint256"
                },
                {
                  "internalType": "uint256",
                  "name": "expandDuration",
                  "type": "uint256"
                },
                {
                  "internalType": "uint256",
                  "name": "baseWithdrawalLimit",
                  "type": "uint256"
                },
                {
                  "internalType": "uint256",
                  "name": "withdrawableUntilLimit",
                  "type": "uint256"
                },
                {
                  "internalType": "uint256",
                  "name": "withdrawable",
                  "type": "uint256"
                }
              ],
              "internalType": "struct Structs.UserSupplyData",
              "name": "liquidityUserSupplyData",
              "type": "tuple"
            },
            {
              "components": [
                {
                  "internalType": "bool",
                  "name": "modeWithInterest",
                  "type": "bool"
                },
                {
                  "internalType": "uint256",
                  "name": "borrow",
                  "type": "uint256"
                },
                {
                  "internalType": "uint256",
                  "name": "borrowLimit",
                  "type": "uint256"
                },
                {
                  "internalType": "uint256",
                  "name": "lastUpdateTimestamp",
                  "type": "uint256"
                },
                {
                  "internalType": "uint256",
                  "name": "expandPercent",
                  "type": "uint256"
                },
                {
                  "internalType": "uint256",
                  "name": "expandDuration",
                  "type": "uint256"
                },
                {
                  "internalType": "uint256",
                  "name": "baseBorrowLimit",
                  "type": "uint256"
                },
                {
                  "internalType": "uint256",
                  "name": "maxBorrowLimit",
                  "type": "uint256"
                },
                {
                  "internalType": "uint256",
                  "name": "borrowableUntilLimit",
                  "type": "uint256"
                },
                {
                  "internalType": "uint256",
                  "name": "borrowable",
                  "type": "uint256"
                },
                {
                  "internalType": "uint256",
                  "name": "borrowLimitUtilization",
                  "type": "uint256"
                }
              ],
              "internalType": "struct Structs.UserBorrowData",
              "name": "liquidityUserBorrowData",
              "type": "tuple"
            }
          ],
          "internalType": "struct Structs.VaultEntireData",
          "name": "vaultData_",
          "type": "tuple"
        }
      ],
      "stateMutability": "view",
      "type": "function"
    },
    {
      "inputs": [
        {
          "internalType": "address",
          "name": "user_",
          "type": "address"
        }
      ],
      "name": "positionsByUser",
      "outputs": [
        {
          "components": [
            {
              "internalType": "uint256",
              "name": "nftId",
              "type": "uint256"
            },
            {
              "internalType": "address",
              "name": "owner",
              "type": "address"
            },
            {
              "internalType": "bool",
              "name": "isLiquidated",
              "type": "bool"
            },
            {
              "internalType": "bool",
              "name": "isSupplyPosition",
              "type": "bool"
            },
            {
              "internalType": "int256",
              "name": "tick",
              "type": "int256"
            },
            {
              "internalType": "uint256",
              "name": "tickId",
              "type": "uint256"
            },
            {
              "internalType": "uint256",
              "name": "beforeSupply",
              "type": "uint256"
            },
            {
              "internalType": "uint256",
              "name": "beforeBorrow",
              "type": "uint256"
            },
            {
              "internalType": "uint256",
              "name": "beforeDustBorrow",
              "type": "uint256"
            },
            {
              "internalType": "uint256",
              "name": "supply",
              "type": "uint256"
            },
            {
              "internalType": "uint256",
              "name": "borrow",
              "type": "uint256"
            },
            {
              "internalType": "uint256",
              "name": "dustBorrow",
              "type": "uint256"
            }
          ],
          "internalType": "struct Structs.UserPosition[]",
          "name": "userPositions_",
          "type": "tuple[]"
        },
        {
          "components": [
            {
              "internalType": "address",
              "name": "vault",
              "type": "address"
            },
            {
              "internalType": "bool",
              "name": "isSmartCol",
              "type": "bool"
            },
            {
              "internalType": "bool",
              "name": "isSmartDebt",
              "type": "bool"
            },
            {
              "components": [
                {
                  "internalType": "address",
                  "name": "liquidity",
                  "type": "address"
                },
                {
                  "internalType": "address",
                  "name": "factory",
                  "type": "address"
                },
                {
                  "internalType": "address",
                  "name": "operateImplementation",
                  "type": "address"
                },
                {
                  "internalType": "address",
                  "name": "adminImplementation",
                  "type": "address"
                },
                {
                  "internalType": "address",
                  "name": "secondaryImplementation",
                  "type": "address"
                },
                {
                  "internalType": "address",
                  "name": "deployer",
                  "type": "address"
                },
                {
                  "internalType": "address",
                  "name": "supply",
                  "type": "address"
                },
                {
                  "internalType": "address",
                  "name": "borrow",
                  "type": "address"
                },
                {
                  "components": [
                    {
                      "internalType": "address",
                      "name": "token0",
                      "type": "address"
                    },
                    {
                      "internalType": "address",
                      "name": "token1",
                      "type": "address"
                    }
                  ],
                  "internalType": "struct IFluidVault.Tokens",
                  "name": "supplyToken",
                  "type": "tuple"
                },
                {
                  "components": [
                    {
                      "internalType": "address",
                      "name": "token0",
                      "type": "address"
                    },
                    {
                      "internalType": "address",
                      "name": "token1",
                      "type": "address"
                    }
                  ],
                  "internalType": "struct IFluidVault.Tokens",
                  "name": "borrowToken",
                  "type": "tuple"
                },
                {
                  "internalType": "uint256",
                  "name": "vaultId",
                  "type": "uint256"
                },
                {
                  "internalType": "uint256",
                  "name": "vaultType",
                  "type": "uint256"
                },
                {
                  "internalType": "bytes32",
                  "name": "supplyExchangePriceSlot",
                  "type": "bytes32"
                },
                {
                  "internalType": "bytes32",
                  "name": "borrowExchangePriceSlot",
                  "type": "bytes32"
                },
                {
                  "internalType": "bytes32",
                  "name": "userSupplySlot",
                  "type": "bytes32"
                },
                {
                  "internalType": "bytes32",
                  "name": "userBorrowSlot",
                  "type": "bytes32"
                }
              ],
              "internalType": "struct IFluidVault.ConstantViews",
              "name": "constantVariables",
              "type": "tuple"
            },
            {
              "components": [
                {
                  "internalType": "uint16",
                  "name": "supplyRateMagnifier",
                  "type": "uint16"
                },
                {
                  "internalType": "uint16",
                  "name": "borrowRateMagnifier",
                  "type": "uint16"
                },
                {
                  "internalType": "uint16",
                  "name": "collateralFactor",
                  "type": "uint16"
                },
                {
                  "internalType": "uint16",
                  "name": "liquidationThreshold",
                  "type": "uint16"
                },
                {
                  "internalType": "uint16",
                  "name": "liquidationMaxLimit",
                  "type": "uint16"
                },
                {
                  "internalType": "uint16",
                  "name": "withdrawalGap",
                  "type": "uint16"
                },
                {
                  "internalType": "uint16",
                  "name": "liquidationPenalty",
                  "type": "uint16"
                },
                {
                  "internalType": "uint16",
                  "name": "borrowFee",
                  "type": "uint16"
                },
                {
                  "internalType": "address",
                  "name": "oracle",
                  "type": "address"
                },
                {
                  "internalType": "uint256",
                  "name": "oraclePriceOperate",
                  "type": "uint256"
                },
                {
                  "internalType": "uint256",
                  "name": "oraclePriceLiquidate",
                  "type": "uint256"
                },
                {
                  "internalType": "address",
                  "name": "rebalancer",
                  "type": "address"
                },
                {
                  "internalType": "uint256",
                  "name": "lastUpdateTimestamp",
                  "type": "uint256"
                }
              ],
              "internalType": "struct Structs.Configs",
              "name": "configs",
              "type": "tuple"
            },
            {
              "components": [
                {
                  "internalType": "uint256",
                  "name": "lastStoredLiquiditySupplyExchangePrice",
                  "type": "uint256"
                },
                {
                  "internalType": "uint256",
                  "name": "lastStoredLiquidityBorrowExchangePrice",
                  "type": "uint256"
                },
                {
                  "internalType": "uint256",
                  "name": "lastStoredVaultSupplyExchangePrice",
                  "type": "uint256"
                },
                {
                  "internalType": "uint256",
                  "name": "lastStoredVaultBorrowExchangePrice",
                  "type": "uint256"
                },
                {
                  "internalType": "uint256",
                  "name": "liquiditySupplyExchangePrice",
                  "type": "uint256"
                },
                {
                  "internalType": "uint256",
                  "name": "liquidityBorrowExchangePrice",
                  "type": "uint256"
                },
                {
                  "internalType": "uint256",
                  "name": "vaultSupplyExchangePrice",
                  "type": "uint256"
                },
                {
                  "internalType": "uint256",
                  "name": "vaultBorrowExchangePrice",
                  "type": "uint256"
                },
                {
                  "internalType": "uint256",
                  "name": "supplyRateLiquidity",
                  "type": "uint256"
                },
                {
                  "internalType": "uint256",
                  "name": "borrowRateLiquidity",
                  "type": "uint256"
                },
                {
                  "internalType": "int256",
                  "name": "supplyRateVault",
                  "type": "int256"
                },
                {
                  "internalType": "int256",
                  "name": "borrowRateVault",
                  "type": "int256"
                },
                {
                  "internalType": "int256",
                  "name": "rewardsOrFeeRateSupply",
                  "type": "int256"
                },
                {
                  "internalType": "int256",
                  "name": "rewardsOrFeeRateBorrow",
                  "type": "int256"
                }
              ],
              "internalType": "struct Structs.ExchangePricesAndRates",
              "name": "exchangePricesAndRates",
              "type": "tuple"
            },
            {
              "components": [
                {
                  "internalType": "uint256",
                  "name": "totalSupplyVault",
                  "type": "uint256"
                },
                {
                  "internalType": "uint256",
                  "name": "totalBorrowVault",
                  "type": "uint256"
                },
                {
                  "internalType": "uint256",
                  "name": "totalSupplyLiquidityOrDex",
                  "type": "uint256"
                },
                {
                  "internalType": "uint256",
                  "name": "totalBorrowLiquidityOrDex",
                  "type": "uint256"
                },
                {
                  "internalType": "uint256",
                  "name": "absorbedSupply",
                  "type": "uint256"
                },
                {
                  "internalType": "uint256",
                  "name": "absorbedBorrow",
                  "type": "uint256"
                }
              ],
              "internalType": "struct Structs.TotalSupplyAndBorrow",
              "name": "totalSupplyAndBorrow",
              "type": "tuple"
            },
            {
              "components": [
                {
                  "internalType": "uint256",
                  "name": "withdrawLimit",
                  "type": "uint256"
                },
                {
                  "internalType": "uint256",
                  "name": "withdrawableUntilLimit",
                  "type": "uint256"
                },
                {
                  "internalType": "uint256",
                  "name": "withdrawable",
                  "type": "uint256"
                },
                {
                  "internalType": "uint256",
                  "name": "borrowLimit",
                  "type": "uint256"
                },
                {
                  "internalType": "uint256",
                  "name": "borrowableUntilLimit",
                  "type": "uint256"
                },
                {
                  "internalType": "uint256",
                  "name": "borrowable",
                  "type": "uint256"
                },
                {
                  "internalType": "uint256",
                  "name": "borrowLimitUtilization",
                  "type": "uint256"
                },
                {
                  "internalType": "uint256",
                  "name": "minimumBorrowing",
                  "type": "uint256"
                }
              ],
              "internalType": "struct Structs.LimitsAndAvailability",
              "name": "limitsAndAvailability",
              "type": "tuple"
            },
            {
              "components": [
                {
                  "internalType": "uint256",
                  "name": "totalPositions",
                  "type": "uint256"
                },
                {
                  "internalType": "int256",
                  "name": "topTick",
                  "type": "int256"
                },
                {
                  "internalType": "uint256",
                  "name": "currentBranch",
                  "type": "uint256"
                },
                {
                  "internalType": "uint256",
                  "name": "totalBranch",
                  "type": "uint256"
                },
                {
                  "internalType": "uint256",
                  "name": "totalBorrow",
                  "type": "uint256"
                },
                {
                  "internalType": "uint256",
                  "name": "totalSupply",
                  "type": "uint256"
                },
                {
                  "components": [
                    {
                      "internalType": "uint256",
                      "name": "status",
                      "type": "uint256"
                    },
                    {
                      "internalType": "int256",
                      "name": "minimaTick",
                      "type": "int256"
                    },
                    {
                      "internalType": "uint256",
                      "name": "debtFactor",
                      "type": "uint256"
                    },
                    {
                      "internalType": "uint256",
                      "name": "partials",
                      "type": "uint256"
                    },
                    {
                      "internalType": "uint256",
                      "name": "debtLiquidity",
                      "type": "uint256"
                    },
                    {
                      "internalType": "uint256",
                      "name": "baseBranchId",
                      "type": "uint256"
                    },
                    {
                      "internalType": "int256",
                      "name": "baseBranchMinima",
                      "type": "int256"
                    }
                  ],
                  "internalType": "struct Structs.CurrentBranchState",
                  "name": "currentBranchState",
                  "type": "tuple"
                }
              ],
              "internalType": "struct Structs.VaultState",
              "name": "vaultState",
              "type": "tuple"
            },
            {
              "components": [
                {
                  "internalType": "bool",
                  "name": "modeWithInterest",
                  "type": "bool"
                },
                {
                  "internalType": "uint256",
                  "name": "supply",
                  "type": "uint256"
                },
                {
                  "internalType": "uint256",
                  "name": "withdrawalLimit",
                  "type": "uint256"
                },
                {
                  "internalType": "uint256",
                  "name": "lastUpdateTimestamp",
                  "type": "uint256"
                },
                {
                  "internalType": "uint256",
                  "name": "expandPercent",
                  "type": "uint256"
                },
                {
                  "internalType": "uint256",
                  "name": "expandDuration",
                  "type": "uint256"
                },
                {
                  "internalType": "uint256",
                  "name": "baseWithdrawalLimit",
                  "type": "uint256"
                },
                {
                  "internalType": "uint256",
                  "name": "withdrawableUntilLimit",
                  "type": "uint256"
                },
                {
                  "internalType": "uint256",
                  "name": "withdrawable",
                  "type": "uint256"
                }
              ],
              "internalType": "struct Structs.UserSupplyData",
              "name": "liquidityUserSupplyData",
              "type": "tuple"
            },
            {
              "components": [
                {
                  "internalType": "bool",
                  "name": "modeWithInterest",
                  "type": "bool"
                },
                {
                  "internalType": "uint256",
                  "name": "borrow",
                  "type": "uint256"
                },
                {
                  "internalType": "uint256",
                  "name": "borrowLimit",
                  "type": "uint256"
                },
                {
                  "internalType": "uint256",
                  "name": "lastUpdateTimestamp",
                  "type": "uint256"
                },
                {
                  "internalType": "uint256",
                  "name": "expandPercent",
                  "type": "uint256"
                },
                {
                  "internalType": "uint256",
                  "name": "expandDuration",
                  "type": "uint256"
                },
                {
                  "internalType": "uint256",
                  "name": "baseBorrowLimit",
                  "type": "uint256"
                },
                {
                  "internalType": "uint256",
                  "name": "maxBorrowLimit",
                  "type": "uint256"
                },
                {
                  "internalType": "uint256",
                  "name": "borrowableUntilLimit",
                  "type": "uint256"
                },
                {
                  "internalType": "uint256",
                  "name": "borrowable",
                  "type": "uint256"
                },
                {
                  "internalType": "uint256",
                  "name": "borrowLimitUtilization",
                  "type": "uint256"
                }
              ],
              "internalType": "struct Structs.UserBorrowData",
              "name": "liquidityUserBorrowData",
              "type": "tuple"
            }
          ],
          "internalType": "struct Structs.VaultEntireData[]",
          "name": "vaultsData_",
          "type": "tuple[]"
        }
      ],
      "stateMutability": "view",
      "type": "function"
    },
    {
      "inputs": [
        {
          "internalType": "address",
          "name": "user_",
          "type": "address"
        }
      ],
      "name": "positionsNftIdOfUser",
      "outputs": [
        {
          "internalType": "uint256[]",
          "name": "nftIds_",
          "type": "uint256[]"
        }
      ],
      "stateMutability": "view",
      "type": "function"
    },
    {
      "inputs": [
        {
          "internalType": "uint256",
          "name": "tickRaw_",
          "type": "uint256"
        }
      ],
      "name": "tickHelper",
      "outputs": [
        {
          "internalType": "int256",
          "name": "tick",
          "type": "int256"
        }
      ],
      "stateMutability": "pure",
      "type": "function"
    },
    {
      "inputs": [],
      "name": "totalPositions",
      "outputs": [
        {
          "internalType": "uint256",
          "name": "",
          "type": "uint256"
        }
      ],
      "stateMutability": "view",
      "type": "function"
    },
    {
      "inputs": [
        {
          "internalType": "uint256",
          "name": "nftId_",
          "type": "uint256"
        }
      ],
      "name": "vaultByNftId",
      "outputs": [
        {
          "internalType": "address",
          "name": "vault_",
          "type": "address"
        }
      ],
      "stateMutability": "view",
      "type": "function"
    }
  ],
  "transactionHash": "0xa272ca9c388b2c3e7ad9abb3703e8cef1540b5175cab69a963c405625f8f9a2a",
  "args": [
    "0x324c5Dc1fC42c7a4D43d92df1eBA58a54d13Bf2d",
    "0xF82111c4354622AB12b9803cD3F6164FCE52e847"
  ],
  "numDeployments": 10,
  "solcInputHash": "867ed2f7cfa6069390adb6b7b9a479a4",
  "bytecode": "0x60c06040523480156200001157600080fd5b506040516200610638038062006106833981016040819052620000349162000069565b6001600160a01b039182166080521660a052620000a1565b80516001600160a01b03811681146200006457600080fd5b919050565b600080604083850312156200007d57600080fd5b62000088836200004c565b915062000098602084016200004c565b90509250929050565b60805160a051615ff96200010d6000396000818161050d0152818161081901526108ff01526000818161044a01528181610b1a0152818161101b01528181611c8a01528181611fa9015281816122c9015281816123d2015281816126a601526127dc0152615ff96000f3fe608060405234801561001057600080fd5b50600436106102d35760003560e01c80637955fffd11610186578063a8d9f493116100e3578063e06a7b7111610097578063eb1db01811610071578063eb1db01814610676578063f70b198c14610689578063fda1fa5f1461069c57600080fd5b8063e06a7b7114610648578063e6bd26a214610650578063ea19ba111461066357600080fd5b8063c67b5093116100c8578063c67b50931461060d578063cbc7be651461062d578063dd19c0fe1461064057600080fd5b8063a8d9f493146105e5578063bf518f5f146105fa57600080fd5b80638a0038881161013a5780638f8b81f01161011f5780638f8b81f0146105ae5780639d7aeeb4146105c1578063a8bc0693146105d257600080fd5b80638a003888146105885780638bfbeda61461059b57600080fd5b8063816022b81161016b578063816022b8146105425780638530330414610555578063890a13911461056857600080fd5b80637955fffd1461052f5780637bbede431461046c57600080fd5b80632404a3f911610234578063347ca8bb116101e85780635486f100116101cd5780635486f100146104ed5780636463e94c146104f55780636902f79f1461050857600080fd5b8063347ca8bb146104b957806351971bf7146104da57600080fd5b80632dd31000116102195780632dd31000146104455780632f2612cf1461046c578063344bd722146104a657600080fd5b80632404a3f9146104105780632c44e1d11461042557600080fd5b80631949138e1161028b5780631f51fd93116102705780631f51fd93146103bd5780631fcd3649146103d057806320ee1e44146103f057600080fd5b80631949138e146103655780631ef8986d1461039d57600080fd5b8063144128e8116102bc578063144128e81461031e5780631579a46c1461033f578063168a11c21461035257600080fd5b806303e883e0146102d857806309c062e2146102fe575b600080fd5b6102eb6102e6366004614819565b6106a4565b6040519081526020015b60405180910390f35b61031161030c366004614819565b610729565b6040516102f59190614e2a565b61033161032c366004614e39565b610a1f565b6040516102f5929190614efb565b6102eb61034d366004614819565b610eff565b6102eb610360366004614f18565b610f24565b610378610373366004614e39565b610fd4565b60405173ffffffffffffffffffffffffffffffffffffffff90911681526020016102f5565b6103b06103ab36600461515c565b61109b565b6040516102f591906151d7565b6102eb6103cb366004614819565b611159565b6103e36103de366004614f18565b61125f565b6040516102f591906152e8565b6104036103fe366004614819565b6117c4565b6040516102f591906152f7565b610418611910565b6040516102f5919061537a565b6104386104333660046153e9565b611922565b6040516102f591906154af565b6103787f000000000000000000000000000000000000000000000000000000000000000081565b6102eb61047a3660046154fe565b604080516020808201939093528082019390935280518084038201815260609093019052815191012090565b6102eb6104b4366004614819565b611a5f565b6104cc6104c7366004614819565b611aac565b6040516102f5929190615520565b6102eb6104e8366004614819565b611c61565b6102eb611c86565b610378610503366004614819565b611d17565b6103787f000000000000000000000000000000000000000000000000000000000000000081565b61037861053d366004614819565b611d3c565b610378610550366004614f18565b611d61565b6102eb610563366004615582565b611dc3565b61057b610576366004614819565b611e4c565b6040516102f591906155b7565b6102eb610596366004614e39565b611f67565b6102eb6105a93660046155e6565b611fd5565b6102eb6105bc366004614e39565b61205b565b6102eb6105cf366004614e39565b90565b6102eb6105e0366004614f18565b612128565b6105ed612176565b6040516102f59190615612565b6102eb610608366004614f18565b612230565b61062061061b366004614819565b61227e565b6040516102f59190615660565b6102eb61063b366004614f18565b61246c565b6104386124ba565b6103b06125e9565b61037861065e366004614e39565b61269f565b61041861067136600461515c565b6126cb565b6102eb610684366004614819565b61278e565b6102eb610697366004614819565b6127b3565b6102eb6127d8565b600073ffffffffffffffffffffffffffffffffffffffff821663b5c736e4825b6040518263ffffffff1660e01b81526004016106e291815260200190565b602060405180830381865afa1580156106ff573d6000803e3d6000fd5b505050506040513d601f19601f820116820180604052508101906107239190615698565b92915050565b610731614484565b73ffffffffffffffffffffffffffffffffffffffff82168152600061075583611159565b90508015610a19576107678382612845565b6060830181905261010081015160209081015173ffffffffffffffffffffffffffffffffffffffff90811615158286018190526101209093015190910151161515604084015260009081908190819081906108995760608701516101000151516040517fe72ef91b00000000000000000000000000000000000000000000000000000000815273ffffffffffffffffffffffffffffffffffffffff8a81166004830152918216602482015260009182917f00000000000000000000000000000000000000000000000000000000000000009091169063e72ef91b906044016104c060405180830381865afa158015610863573d6000803e3d6000fd5b505050506040513d601f19601f8201168201806040525081019061088791906158f2565b6101208b019190915260200151935050505b86604001516109955760608701516101200151516040517f967915d600000000000000000000000000000000000000000000000000000000815273ffffffffffffffffffffffffffffffffffffffff8a81166004830152918216602482015260009182917f00000000000000000000000000000000000000000000000000000000000000009091169063967915d69060440161050060405180830381865afa158015610949573d6000803e3d6000fd5b505050506040513d601f19601f8201168201806040525081019061096d9190615998565b610140808c018390529051604083015191830151610100909301519199509197509550925050505b6109a88888606001516101600151612ad2565b608088018190526109be90899088908585612e53565b60a0880181905260608801516109d793508992506130fe565b8560c00181905250610a018560a001518660600151876080015160a0015161ffff168686866133ff565b60e0860152610a0f866117c4565b6101008601525050505b50919050565b610a9d60405180610180016040528060008152602001600073ffffffffffffffffffffffffffffffffffffffff16815260200160001515815260200160001515815260200160008152602001600081526020016000815260200160008152602001600081526020016000815260200160008152602001600081525090565b610aa5614484565b8282526000610ab384610fd4565b905073ffffffffffffffffffffffffffffffffffffffff811615610ef9576000610add828661246c565b9050610ae882610729565b6040517f6352211e000000000000000000000000000000000000000000000000000000008152600481018790529093507f000000000000000000000000000000000000000000000000000000000000000073ffffffffffffffffffffffffffffffffffffffff1690636352211e90602401602060405180830381865afa158015610b76573d6000803e3d6000fd5b505050506040513d601f19601f82011682018060405250810190610b9a9190615a4b565b73ffffffffffffffffffffffffffffffffffffffff1660208501526001808216146060850181905266ffffffffffffff603583901c811660ff602d85901c81169190911b610120880181905260c0880152607584901c909116606d84901c9091161b6101608601819052610100860152610dde5780600216600214610c3057610c2b600282901c6207ffff16615a97565b610c3b565b6207ffff600282901c165b60808501819052601582901c62ffffff1660a0860152610120850151606091610c669060020b613bfe565b610c709190615acf565b901c6101408501819052610100850151610c8991615ae6565b60e08501526080840151600090610ca1908490610f24565b90508060011660011480610cc157508460a0015162ffffff600183901c16115b15610d98576001604086810191909152608086015160a087015161014088015192517f22348cc70000000000000000000000000000000000000000000000000000000081526004810192909252602482015260448101919091526064810182905273ffffffffffffffffffffffffffffffffffffffff8416906322348cc79060840160a060405180830381865afa158015610d60573d6000803e3d6000fd5b505050506040513d601f19601f82011682018060405250810190610d849190615af9565b505061012088015261014087015260808601525b8461016001518561014001511115610dcb57846101600151856101400151610dc09190615ae6565b610140860152610ddc565b600061014086018190526101608601525b505b64e8d4a510008360a0015160c001518560c00151610dfc9190615acf565b610e069190615b68565b60c085015260a083015160e0908101519085015164e8d4a5100091610e2a91615acf565b610e349190615b68565b60e08086019190915260a0840151015161010085015164e8d4a5100091610e5a91615acf565b610e649190615b68565b61010085015260a083015160c0015161012085015164e8d4a5100091610e8991615acf565b610e939190615b68565b61012085015260a083015160e0015161014085015164e8d4a5100091610eb891615acf565b610ec29190615b68565b61014085015260a083015160e0015161016085015164e8d4a5100091610ee791615acf565b610ef19190615b68565b610160850152505b50915091565b600073ffffffffffffffffffffffffffffffffffffffff821663b5c736e460086106c4565b6040805160208082018490526005828401528251808303840181526060909201909252805191012060009073ffffffffffffffffffffffffffffffffffffffff84169063b5c736e4905b6040518263ffffffff1660e01b8152600401610f8c91815260200190565b602060405180830381865afa158015610fa9573d6000803e3d6000fd5b505050506040513d601f19601f82011682018060405250810190610fcd9190615698565b9392505050565b600080610fe083611f67565b6040517fe6bd26a200000000000000000000000000000000000000000000000000000000815263ffffffff60c083901c1660048201529091507f000000000000000000000000000000000000000000000000000000000000000073ffffffffffffffffffffffffffffffffffffffff169063e6bd26a290602401602060405180830381865afa158015611077573d6000803e3d6000fd5b505050506040513d601f19601f82011682018060405250810190610fcd9190615a4b565b80516060908067ffffffffffffffff8111156110b9576110b9614f44565b6040519080825280602002602001820160405280156110f257816020015b6110df614484565b8152602001906001900390816110d75790505b50915060005b818110156111525761112284828151811061111557611115615ba3565b6020026020010151610729565b83828151811061113457611134615ba3565b6020026020010181905250808061114a90615bd2565b9150506110f8565b5050919050565b60008173ffffffffffffffffffffffffffffffffffffffff163b60000361118257506000919050565b8173ffffffffffffffffffffffffffffffffffffffff1663bb24fe8a6040518163ffffffff1660e01b8152600401602060405180830381865afa925050508015611207575060408051601f3d9081017fffffffffffffffffffffffffffffffffffffffffffffffffffffffffffffffe016820190925261120491810190615698565b60015b610723578173ffffffffffffffffffffffffffffffffffffffff1661122e61065e84611a5f565b73ffffffffffffffffffffffffffffffffffffffff161461125157506000919050565b50612710919050565b919050565b6040805161014081018252600080825260208201819052918101829052606081018290526080810182905260a0810182905260c0810182905260e08101829052610100810182905261012081019190915281156112bc57816112ce565b6fffffffffffffffffffffffffffffffff5b915060006112db84611159565b905080156117bd5773ffffffffffffffffffffffffffffffffffffffff8416825260006113088583612845565b9050612710816101600151036115b3576101208101515173ffffffffffffffffffffffffffffffffffffffff9081166020850152610100820151518116604080860191909152517f8433ea220000000000000000000000000000000000000000000000000000000081526004810186905260006024820181905261dead6044830152606482015290861690638433ea229060840160408051808303816000875af19250505080156113f4575060408051601f3d9081017fffffffffffffffffffffffffffffffffffffffffffffffffffffffffffffffe01682019092526113f191810190615c0a565b60015b61147057611400615c2e565b806308c379a0036114255750611414615c49565b8061141f5750611427565b50611473565b505b3d808015611451576040519150601f19603f3d011682016040523d82523d6000602084013e611456565b606091505b5061146081613e60565b60c086015260a085015250611473565b50505b6040517f8433ea22000000000000000000000000000000000000000000000000000000008152600481018590526000602482015261dead60448201526001606482015273ffffffffffffffffffffffffffffffffffffffff861690638433ea229060840160408051808303816000875af192505050801561152f575060408051601f3d9081017fffffffffffffffffffffffffffffffffffffffffffffffffffffffffffffffe016820190925261152c91810190615c0a565b60015b6115ac5761153b615c2e565b806308c379a003611560575061154f615c49565b8061155a5750611562565b50611795565b505b3d80801561158c576040519150601f19603f3d011682016040523d82523d6000602084013e611591565b606091505b5061159b81613e60565b61010086015260e085015250611795565b5050611795565b610120810180515173ffffffffffffffffffffffffffffffffffffffff908116602086810191909152610100840180515183166040808901919091529351820151831660608801525101518116608086015290517f3202937e000000000000000000000000000000000000000000000000000000008152600060048201819052602482015290861690633202937e90604401600060405180830381600087803b15801561165f57600080fd5b505af1925050508015611670575060015b6116e85761167c615c2e565b806308c379a0036116a15750611690615c49565b8061169b57506116a3565b506116e8565b505b3d8080156116cd576040519150601f19603f3d011682016040523d82523d6000602084013e6116d2565b606091505b506116dc81613e60565b60c086015260a0850152505b6040517f3202937e000000000000000000000000000000000000000000000000000000008152600060048201526001602482015273ffffffffffffffffffffffffffffffffffffffff861690633202937e90604401600060405180830381600087803b15801561175757600080fd5b505af1925050508015611768575060015b61179557611774615c2e565b806308c379a0036115605750611788615c49565b806117935750611562565b505b8260a001518360e0015111806117b357508260c00151836101000151115b1515610120840152505b5092915050565b6117cc61477f565b60006117d7836106a4565b90506117eb620fffff600283901c1661205b565b6020830152633fffffff601682901c81166040840152603482901c16606083015266ffffffffffffff605a82901c1660ff605283901c161b60a083015266ffffffffffffff609a82901c1660ff609283901c161b608083015260d281901c63ffffffff1682526040820151600090611864908590612230565b60c08401516003821690529050611883600282901c620fffff1661205b565b60c0840180516020019190915280516603ffffffffffff607484901c1660409091015251633fffffff601683901c1660609091015266ffffffffffffff603c82901c1660ff603483901c161b60c084018051608001919091525160a682901c633fffffff1660a09091015261190060c482901c620fffff1661205b565b60c0808501510152509092915050565b606061191d610671612176565b905090565b81516060908067ffffffffffffffff81111561194057611940614f44565b6040519080825280602002602001820160405280156119dd57816020015b604080516101408101825260008082526020808301829052928201819052606082018190526080820181905260a0820181905260c0820181905260e08201819052610100820181905261012082015282527fffffffffffffffffffffffffffffffffffffffffffffffffffffffffffffffff90920191018161195e5790505b50915060005b81811015611a5757611a27858281518110611a0057611a00615ba3565b6020026020010151858381518110611a1a57611a1a615ba3565b602002602001015161125f565b838281518110611a3957611a39615ba3565b60200260200101819052508080611a4f90615bd2565b9150506119e3565b505092915050565b60008173ffffffffffffffffffffffffffffffffffffffff1663540acabc6040518163ffffffff1660e01b8152600401602060405180830381865afa1580156106ff573d6000803e3d6000fd5b6060806000611aba8461227e565b80519091508067ffffffffffffffff811115611ad857611ad8614f44565b604051908082528060200260200182016040528015611b8757816020015b611b7460405180610180016040528060008152602001600073ffffffffffffffffffffffffffffffffffffffff16815260200160001515815260200160001515815260200160008152602001600081526020016000815260200160008152602001600081526020016000815260200160008152602001600081525090565b815260200190600190039081611af65790505b5093508067ffffffffffffffff811115611ba357611ba3614f44565b604051908082528060200260200182016040528015611bdc57816020015b611bc9614484565b815260200190600190039081611bc15790505b50925060005b81811015611c5957611c0c838281518110611bff57611bff615ba3565b6020026020010151610a1f565b868381518110611c1e57611c1e615ba3565b60200260200101868481518110611c3757611c37615ba3565b6020026020010182905282905250508080611c5190615bd2565b915050611be2565b505050915091565b600073ffffffffffffffffffffffffffffffffffffffff821663b5c736e4600a6106c4565b60007f000000000000000000000000000000000000000000000000000000000000000073ffffffffffffffffffffffffffffffffffffffff16638d6540236040518163ffffffff1660e01b8152600401602060405180830381865afa158015611cf3573d6000803e3d6000fd5b505050506040513d601f19601f8201168201806040525081019061191d9190615698565b600073ffffffffffffffffffffffffffffffffffffffff821663b5c736e460096106c4565b600073ffffffffffffffffffffffffffffffffffffffff821663b5c736e4600b6106c4565b600080611d7684611d7186611159565b612845565b60a081015190915073ffffffffffffffffffffffffffffffffffffffff161580611d9e575082155b15611dad576000915050610723565b611dbb8160a0015184613ece565b949350505050565b60008373ffffffffffffffffffffffffffffffffffffffff1663b5c736e4611ded60068686611fd5565b6040518263ffffffff1660e01b8152600401611e0b91815260200190565b602060405180830381865afa158015611e28573d6000803e3d6000fd5b505050506040513d601f19601f82011682018060405250810190611dbb9190615698565b6040805180820190915260006020820181905273ffffffffffffffffffffffffffffffffffffffff83168252611e81836127b3565b90508273ffffffffffffffffffffffffffffffffffffffff1663ebd93ac66040518163ffffffff1660e01b8152600401600060405180830381600087803b158015611ecb57600080fd5b505af1925050508015611edc575060015b611f4557611ee8615c2e565b806308c379a003611f0d5750611efc615c49565b80611f075750611f0f565b50610a19565b505b3d808015611f39576040519150601f19603f3d011682016040523d82523d6000602084013e611f3e565b606091505b5050610a19565b6000611f50846127b3565b905081811461115257600160208401525050919050565b6040805160208082018490526003828401528251808303840181526060909201909252805191012060009073ffffffffffffffffffffffffffffffffffffffff7f0000000000000000000000000000000000000000000000000000000000000000169063b5c736e4906106c4565b6000808385604051602001611ff4929190918252602082015260400190565b604080517fffffffffffffffffffffffffffffffffffffffffffffffffffffffffffffffe081840301815282825280516020918201209083018690529082018190529150606001604051602081830303815290604052805190602001209150509392505050565b6000620fffff82106120cd576040517f08c379a000000000000000000000000000000000000000000000000000000000815260206004820152600e60248201527f696e76616c69642d6e756d626572000000000000000000000000000000000000604482015260640160405180910390fd5b811561210157816001166001146120f5576120f0600183901c6207ffff16615a97565b610723565b5060011c6207ffff1690565b507f8000000000000000000000000000000000000000000000000000000000000000919050565b6040805160208082018490526004828401528251808303840181526060909201909252805191012060009073ffffffffffffffffffffffffffffffffffffffff84169063b5c736e490610f6e565b60606000612182611c86565b90508067ffffffffffffffff81111561219d5761219d614f44565b6040519080825280602002602001820160405280156121c6578160200160208202803683370190505b50915060005b8181101561222b576121e261065e826001615cf1565b8382815181106121f4576121f4615ba3565b73ffffffffffffffffffffffffffffffffffffffff909216602092830291909101909101528061222381615bd2565b9150506121cc565b505090565b6040805160208082018490526007828401528251808303840181526060909201909252805191012060009073ffffffffffffffffffffffffffffffffffffffff84169063b5c736e490610f6e565b6040517f70a0823100000000000000000000000000000000000000000000000000000000815273ffffffffffffffffffffffffffffffffffffffff82811660048301526060916000917f000000000000000000000000000000000000000000000000000000000000000016906370a0823190602401602060405180830381865afa158015612310573d6000803e3d6000fd5b505050506040513d601f19601f820116820180604052508101906123349190615698565b90508067ffffffffffffffff81111561234f5761234f614f44565b604051908082528060200260200182016040528015612378578160200160208202803683370190505b50915060005b81811015611152576040517f2f745c5900000000000000000000000000000000000000000000000000000000815273ffffffffffffffffffffffffffffffffffffffff8581166004830152602482018390527f00000000000000000000000000000000000000000000000000000000000000001690632f745c5990604401602060405180830381865afa158015612419573d6000803e3d6000fd5b505050506040513d601f19601f8201168201806040525081019061243d9190615698565b83828151811061244f5761244f615ba3565b60209081029190910101528061246481615bd2565b91505061237e565b6040805160208082018490526003828401528251808303840181526060909201909252805191012060009073ffffffffffffffffffffffffffffffffffffffff84169063b5c736e490610f6e565b606060006124c6612176565b80519091508067ffffffffffffffff8111156124e4576124e4614f44565b60405190808252806020026020018201604052801561258157816020015b604080516101408101825260008082526020808301829052928201819052606082018190526080820181905260a0820181905260c0820181905260e08201819052610100820181905261012082015282527fffffffffffffffffffffffffffffffffffffffffffffffffffffffffffffffff9092019101816125025790505b50925060005b818110156125e3576125b38382815181106125a4576125a4615ba3565b6020026020010151600061125f565b8482815181106125c5576125c5615ba3565b602002602001018190525080806125db90615bd2565b915050612587565b50505090565b606060006125f5612176565b80519091508067ffffffffffffffff81111561261357612613614f44565b60405190808252806020026020018201604052801561264c57816020015b612639614484565b8152602001906001900390816126315790505b50925060005b818110156125e35761266f83828151811061111557611115615ba3565b84828151811061268157612681615ba3565b6020026020010181905250808061269790615bd2565b915050612652565b60006107237f000000000000000000000000000000000000000000000000000000000000000083613ece565b80516060908067ffffffffffffffff8111156126e9576126e9614f44565b60405190808252806020026020018201604052801561272e57816020015b60408051808201909152600080825260208201528152602001906001900390816127075790505b50915060005b818110156111525761275e84828151811061275157612751615ba3565b6020026020010151611e4c565b83828151811061277057612770615ba3565b6020026020010181905250808061278690615bd2565b915050612734565b600073ffffffffffffffffffffffffffffffffffffffff821663b5c736e460016106c4565b600073ffffffffffffffffffffffffffffffffffffffff821663b5c736e460026106c4565b60007f000000000000000000000000000000000000000000000000000000000000000073ffffffffffffffffffffffffffffffffffffffff166318160ddd6040518163ffffffff1660e01b8152600401602060405180830381865afa158015611cf3573d6000803e3d6000fd5b6128e4604080516102008101825260008082526020808301829052828401829052606083018290526080830182905260a0830182905260c0830182905260e0830182905283518085018552828152808201839052610100840152835180850190945281845283015290610120820190815260006020820181905260408201819052606082018190526080820181905260a0820181905260c09091015290565b6127108203612a62578273ffffffffffffffffffffffffffffffffffffffff1663b7791bf26040518163ffffffff1660e01b81526004016101a060405180830381865afa925050508015612973575060408051601f3d9081017fffffffffffffffffffffffffffffffffffffffffffffffffffffffffffffffe016820190925261297091810190615d15565b60015b1561072357805173ffffffffffffffffffffffffffffffffffffffff908116835260208083015182168185015285821660408086019190915283015182166060808601919091528301518216608080860191909152600060a08087018290528551851660c08801528551851660e0880152918501516101008088018051928716909252905184018290529185015161012080880180519290961690915293519092019190915282015161014080850191909152612710610160808601919091529183015161018080860191909152908301516101a0850152908201516101c084015201516101e0820152610723565b8273ffffffffffffffffffffffffffffffffffffffff1663b7791bf26040518163ffffffff1660e01b815260040161024060405180830381865afa158015612aae573d6000803e3d6000fd5b505050506040513d601f19601f82011682018060405250810190610fcd9190615e57565b604080516101a081018252600080825260208201819052918101829052606081018290526080810182905260a0810182905260c0810182905260e081018290526101008101829052610120810182905261014081018290526101608101829052610180810182905290612b448461278e565b61ffff8082168452601082901c16602080850191909152909150612b709082901c6103ff16600a615f6f565b61ffff166040830152612b8c602a82901c6103ff16600a615f6f565b61ffff166060830152612ba8603482901c6103ff16600a615f6f565b61ffff166080830152612bc4603e82901c6103ff16600a615f6f565b61ffff1660a08301526103ff604882901c811660c0840152605282901c1660e08301527fffffffffffffffffffffffffffffffffffffffffffffffffffffffffffffd8f08301612c1e57606081901c610100830152612c6a565b605c81901c633fffffff168015612c5657612c398582611d61565b73ffffffffffffffffffffffffffffffffffffffff166101008401525b50607a81901c6401ffffffff166101808301525b61010082015173ffffffffffffffffffffffffffffffffffffffff1615612e275781610100015173ffffffffffffffffffffffffffffffffffffffff16638e7bfbc06040518163ffffffff1660e01b8152600401602060405180830381865afa925050508015612d15575060408051601f3d9081017fffffffffffffffffffffffffffffffffffffffffffffffffffffffffffffffe0168201909252612d1291810190615698565b60015b612da05781610100015173ffffffffffffffffffffffffffffffffffffffff1663e6aa216c6040518163ffffffff1660e01b8152600401602060405180830381865afa158015612d69573d6000803e3d6000fd5b505050506040513d601f19601f82011682018060405250810190612d8d9190615698565b6101208301819052610140830152612e27565b808361012001818152505082610100015173ffffffffffffffffffffffffffffffffffffffff1663f3190c896040518163ffffffff1660e01b8152600401602060405180830381865afa158015612dfb573d6000803e3d6000fd5b505050506040513d601f19601f82011682018060405250810190612e1f9190615698565b610140840152505b612e3084611d17565b73ffffffffffffffffffffffffffffffffffffffff166101608301525092915050565b612ec5604051806101c0016040528060008152602001600081526020016000815260200160008152602001600081526020016000815260200160008152602001600081526020016000815260200160008152602001600081526020016000815260200160008152602001600081525090565b6000612ed087610eff565b67ffffffffffffffff8082168452604082811c82166020860152608083901c9091169084015260c081901c6060840152905073ffffffffffffffffffffffffffffffffffffffff87166309f0d8cb612f278961278e565b6040518263ffffffff1660e01b8152600401612f4591815260200190565b608060405180830381865afa158015612f62573d6000803e3d6000fd5b505050506040513d601f19601f82011682018060405250810190612f869190615f8d565b60e086015260c085015260a0840152608083015261010082018490526101208201839052614e20861480612fbb5750619c4086145b15613002578451600190811c617fff16610140840152855116600003612ff157816101400151612fea90615a97565b6101408301525b610140820151610180830152613044565b84516127109061ffff16850204610140830152845161ffff167fffffffffffffffffffffffffffffffffffffffffffffffffffffffffffffd8f0016101808301525b6175308614806130555750619c4086145b156130a057602085018051600190811c617fff1661016085015290511660000361308f5781610160015161308890615a97565b6101608301525b6101608201516101a08301526130f4565b612710856020015161ffff168402816130bb576130bb615b39565b04610160830152602085015161ffff167fffffffffffffffffffffffffffffffffffffffffffffffffffffffffffffd8f0016101a08301525b5095945050505050565b6131376040518060c001604052806000815260200160008152602001600081526020016000815260200160008152602001600081525090565b6000613142856106a4565b9050600061314f866127b3565b905060008460c0015173ffffffffffffffffffffffffffffffffffffffff1663b5c736e4866101c001516040518263ffffffff1660e01b815260040161319791815260200190565b602060405180830381865afa1580156131b4573d6000803e3d6000fd5b505050506040513d601f19601f820116820180604052508101906131d89190615698565b6101008601516020015190915073ffffffffffffffffffffffffffffffffffffffff166132115760011c67ffffffffffffffff1661321f565b60011c67ffffffffffffffff165b60ff8116600882901c901b905060008560e0015173ffffffffffffffffffffffffffffffffffffffff1663b5c736e4876101e001516040518263ffffffff1660e01b815260040161327291815260200190565b602060405180830381865afa15801561328f573d6000803e3d6000fd5b505050506040513d601f19601f820116820180604052508101906132b39190615698565b6101208701516020015190915073ffffffffffffffffffffffffffffffffffffffff166132ec5760011c67ffffffffffffffff166132fa565b60011c67ffffffffffffffff165b66ffffffffffffff605a85901c8116605286901c60ff9081169190911b808852609a87901c909216609287901c82161b602088015260408701849052600883901c92169190911b606086018190526fffffffffffffffffffffffffffffffff841660a0870152608084811c9087015260c0880151909164e8d4a51000910204855260e0870151602086015164e8d4a5100091020460208601526080870151604086015164e8d4a51000910204604086015260a0870151606086015164e8d4a51000910204606086015260c0870151608086015164e8d4a51000910204608086015260e087015160a086015164e8d4a5100091020460a086015250929695505050505050565b61344760405180610100016040528060008152602001600081526020016000815260200160008152602001600081526020016000815260200160008152602001600081525090565b60c08601516101c08701516040517fb5c736e4000000000000000000000000000000000000000000000000000000008152600481019190915260009173ffffffffffffffffffffffffffffffffffffffff169063b5c736e490602401602060405180830381865afa1580156134c0573d6000803e3d6000fd5b505050506040513d601f19601f820116820180604052508101906134e49190615698565b9050801561396957600080886000015173ffffffffffffffffffffffffffffffffffffffff168960c0015173ffffffffffffffffffffffffffffffffffffffff16036135545766ffffffffffffff600984901c1660ff600185901c161b915061354d8383614338565b905061357a565b66ffffffffffffff600984901c1660ff600185901c161b91506135778383614338565b90505b64e8d4a510008a6080015182028161359457613594615b39565b0480855282116135a55760006135aa565b835182035b60208501528351600090156135c557612710838a02046135c8565b60005b9050808560200151116135dc5760006135fb565b620f424081866020015103620f423f02816135f9576135f9615b39565b045b602080870182905260408701919091526101008b0151015173ffffffffffffffffffffffffffffffffffffffff16905061396657600073eeeeeeeeeeeeeeeeeeeeeeeeeeeeeeeeeeeeeeee73ffffffffffffffffffffffffffffffffffffffff168a61010001516000015173ffffffffffffffffffffffffffffffffffffffff16036136a05750885173ffffffffffffffffffffffffffffffffffffffff1631613950565b6101008a0151518a516040517f70a0823100000000000000000000000000000000000000000000000000000000815273ffffffffffffffffffffffffffffffffffffffff91821660048201529116906370a0823190602401602060405180830381865afa158015613715573d6000803e3d6000fd5b505050506040513d601f19601f820116820180604052508101906137399190615698565b905073cd5fe23c85820f7b72d0926fc9b05b43e359b7ee73ffffffffffffffffffffffffffffffffffffffff168a61010001516000015173ffffffffffffffffffffffffffffffffffffffff160361384c5789516040517fb203bb9900000000000000000000000000000000000000000000000000000000815273cd5fe23c85820f7b72d0926fc9b05b43e359b7ee600482015273ffffffffffffffffffffffffffffffffffffffff909116602482015273f047ab4c75cebf0eb9ed34ae2c186f3611aeafa69063b203bb9990604401602060405180830381865afa158015613826573d6000803e3d6000fd5b505050506040513d601f19601f8201168201806040525081019061384a9190615698565b015b6101008a01515173ffffffffffffffffffffffffffffffffffffffff167fffffffffffffffffffffffff6e83117fe59806cc0d194cc03f32e12d2a6f6278016139505789516040517fb203bb9900000000000000000000000000000000000000000000000000000000815273917cee801a67f933f2e6b33fc0cd1ed2d5909d88600482015273ffffffffffffffffffffffffffffffffffffffff909116602482015273f047ab4c75cebf0eb9ed34ae2c186f3611aeafa69063b203bb9990604401602060405180830381865afa15801561392a573d6000803e3d6000fd5b505050506040513d601f19601f8201168201806040525081019061394e9190615698565b015b846020015181101561396457604085018190525b505b50505b60e08701516101e08801516040517fb5c736e4000000000000000000000000000000000000000000000000000000008152600481019190915260009173ffffffffffffffffffffffffffffffffffffffff169063b5c736e490602401602060405180830381865afa1580156139e2573d6000803e3d6000fd5b505050506040513d601f19601f82011682018060405250810190613a069190615698565b90508015613bca576101208801516020015173ffffffffffffffffffffffffffffffffffffffff16613b73576060830186905260c08301859052620f4240620f423f85020460808401526101208801515160009073ffffffffffffffffffffffffffffffffffffffff167fffffffffffffffffffffffff111111111111111111111111111111111111111201613ab55750875173ffffffffffffffffffffffffffffffffffffffff1631613b51565b6101208901515189516040517f70a0823100000000000000000000000000000000000000000000000000000000815273ffffffffffffffffffffffffffffffffffffffff91821660048201529116906370a0823190602401602060405180830381865afa158015613b2a573d6000803e3d6000fd5b505050506040513d601f19601f82011682018060405250810190613b4e9190615698565b90505b83608001518111613b625780613b68565b83608001515b60a085015250613bca565b66ffffffffffffff600982901c1660ff600183901c161b613b9482826143cc565b606085018190528110613ba8576000613bb0565b808460600151035b620f4240620f423f909102046080850181905260a0850152505b64e8d4a510008960e00151612711613be29190615acf565b613bec9190615b68565b60e08401525090979650505050505050565b600060ff82901d80831803617fff811115613c1857600080fd5b7001000000000000000000000000000000006001821615613c4657506fff9dd7de423466c20352b1246ce4856f5b6002821615613c65576fff3bd55f4488ad277531fa1c725a66d00260801c5b6004821615613c84576ffe78410fd6498b73cb96a6917f8532590260801c5b6008821615613ca3576ffcf2d9987c9be178ad5bfeffaa1232730260801c5b6010821615613cc2576ff9ef02c4529258b057769680fc6601b30260801c5b6020821615613ce1576ff402d288133a85a17784a411f7aba0820260801c5b6040821615613d00576fe895615b5beb6386553757b0352bda900260801c5b6080821615613d1f576fd34f17a00ffa00a8309940a15930391a0260801c5b610100821615613d3f576fae6b7961714e20548d88ea5123f9a0ff0260801c5b610200821615613d5f576f76d6461f27082d74e0feed3b388c0ca10260801c5b610400821615613d7f576f372a3bfe0745d8b6b19d985d9a8b85bb0260801c5b610800821615613d9f576f0be32cbee48979763cf7247dd7bb539d0260801c5b611000821615613dbe576e8d4f70c9ff4924dac37612d1e2921e0260801c5b612000821615613ddc576d4e009ae5519380809a02ca7aec770260801c5b614000821615613df8576b17c45e641b6e95dee056ff100260801c5b600091507f80000000000000000000000000000000000000000000000000000000000000008416613e56577fffffffffffffffffffffffffffffffffffffffffffffffffffffffffffffffff0463ffffffff811615613e5657600191505b60201c0192915050565b6000806044835110613ec95760208301517f33c955bc000000000000000000000000000000000000000000000000000000007fffffffff00000000000000000000000000000000000000000000000000000000821601610ef95750505060248101516044820151905b915091565b6000606082600003613ee4576000915050610723565b607f8311613fad576040517fd60000000000000000000000000000000000000000000000000000000000000060208201527f940000000000000000000000000000000000000000000000000000000000000060218201527fffffffffffffffffffffffffffffffffffffffff000000000000000000000000606086901b16602282015260f884901b7fff000000000000000000000000000000000000000000000000000000000000001660368201526037015b6040516020818303038152906040529050614329565b60ff831161408a576040517fd70000000000000000000000000000000000000000000000000000000000000060208201527f940000000000000000000000000000000000000000000000000000000000000060218201527fffffffffffffffffffffffffffffffffffffffff000000000000000000000000606086901b1660228201527f8100000000000000000000000000000000000000000000000000000000000000603682015260f884901b7fff00000000000000000000000000000000000000000000000000000000000000166037820152603801613f97565b61ffff8311614168576040517fd80000000000000000000000000000000000000000000000000000000000000060208201527f940000000000000000000000000000000000000000000000000000000000000060218201527fffffffffffffffffffffffffffffffffffffffff000000000000000000000000606086901b1660228201527f820000000000000000000000000000000000000000000000000000000000000060368201527fffff00000000000000000000000000000000000000000000000000000000000060f085901b166037820152603901613f97565b62ffffff8311614247576040517fd90000000000000000000000000000000000000000000000000000000000000060208201527f940000000000000000000000000000000000000000000000000000000000000060218201527fffffffffffffffffffffffffffffffffffffffff000000000000000000000000606086901b1660228201527f830000000000000000000000000000000000000000000000000000000000000060368201527fffffff000000000000000000000000000000000000000000000000000000000060e885901b166037820152603a01613f97565b6040517fda0000000000000000000000000000000000000000000000000000000000000060208201527f940000000000000000000000000000000000000000000000000000000000000060218201527fffffffffffffffffffffffffffffffffffffffff000000000000000000000000606086901b1660228201527f840000000000000000000000000000000000000000000000000000000000000060368201527fffffffff0000000000000000000000000000000000000000000000000000000060e085901b166037820152603b0160405160208183030381529060405290505b80516020909101209392505050565b600066ffffffffffffff604984901c1660ff604185901c161b808203614362576000915050610723565b612710613fff60a286901c168402046401ffffffff608186901c16420362ffffff60b087901c166143938284615acf565b61439d9190615b68565b90508083116143ad5760006143b1565b8083035b935050808403838111156143c3578093505b50505092915050565b60d082901c6103ff1660c883901c60ff161b613fff60a284901c16612710838202048084018381101561440157505050610723565b608186901c6401ffffffff164203925066ffffffffffffff604987901c1660ff604188901c161b60b087901c62ffffff1661443c8585615acf565b6144469190615b68565b6144509190615cf1565b93508084111561445e578093505b6103ff60e287901c1660ff60da88901c161b9250828411156143c3575090949350505050565b60408051610160810182526000808252602082018190529181019190915260608101614545604080516102008101825260008082526020808301829052828401829052606083018290526080830182905260a0830182905260c0830182905260e0830182905283518085018552828152808201839052610100840152835180850190945281845283015290610120820190815260006020820181905260408201819052606082018190526080820181905260a0820181905260c09091015290565b8152604080516101a08101825260008082526020828101829052928201819052606082018190526080820181905260a0820181905260c0820181905260e0820181905261010082018190526101208201819052610140820181905261016082018190526101808201529101908152602001614628604051806101c0016040528060008152602001600081526020016000815260200160008152602001600081526020016000815260200160008152602001600081526020016000815260200160008152602001600081526020016000815260200160008152602001600081525090565b81526020016146666040518060c001604052806000815260200160008152602001600081526020016000815260200160008152602001600081525090565b81526020016146b360405180610100016040528060008152602001600081526020016000815260200160008152602001600081526020016000815260200160008152602001600081525090565b81526020016146c061477f565b815260200161471660405180610120016040528060001515815260200160008152602001600081526020016000815260200160008152602001600081526020016000815260200160008152602001600081525090565b815260200161477a604051806101600160405280600015158152602001600081526020016000815260200160008152602001600081526020016000815260200160008152602001600081526020016000815260200160008152602001600081525090565b905290565b6040518060e0016040528060008152602001600081526020016000815260200160008152602001600081526020016000815260200161477a6040518060e00160405280600081526020016000815260200160008152602001600081526020016000815260200160008152602001600081525090565b73ffffffffffffffffffffffffffffffffffffffff8116811461481657600080fd5b50565b60006020828403121561482b57600080fd5b8135610fcd816147f4565b805173ffffffffffffffffffffffffffffffffffffffff1682526020810151614877602084018273ffffffffffffffffffffffffffffffffffffffff169052565b50604081015161489f604084018273ffffffffffffffffffffffffffffffffffffffff169052565b5060608101516148c7606084018273ffffffffffffffffffffffffffffffffffffffff169052565b5060808101516148ef608084018273ffffffffffffffffffffffffffffffffffffffff169052565b5060a081015161491760a084018273ffffffffffffffffffffffffffffffffffffffff169052565b5060c081015161493f60c084018273ffffffffffffffffffffffffffffffffffffffff169052565b5060e081015161496760e084018273ffffffffffffffffffffffffffffffffffffffff169052565b5061010081810151805173ffffffffffffffffffffffffffffffffffffffff9081168584015260208201511661012085015250506101208101516101406149d381850183805173ffffffffffffffffffffffffffffffffffffffff908116835260209182015116910152565b820151610180848101919091526101608301516101a080860191909152908301516101c080860191909152908301516101e08086019190915290830151610200850152909101516102209092019190915250565b805161ffff1682526020810151614a44602084018261ffff169052565b506040810151614a5a604084018261ffff169052565b506060810151614a70606084018261ffff169052565b506080810151614a86608084018261ffff169052565b5060a0810151614a9c60a084018261ffff169052565b5060c0810151614ab260c084018261ffff169052565b5060e0810151614ac860e084018261ffff169052565b506101008181015173ffffffffffffffffffffffffffffffffffffffff8116848301525050610120818101519083015261014080820151908301526101608082015173ffffffffffffffffffffffffffffffffffffffff811682850152505061018090810151910152565b805173ffffffffffffffffffffffffffffffffffffffff1682526020810151614b60602084018215159052565b506040810151614b74604084018215159052565b506060810151614b876060840182614836565b506080810151614b9b6102a0840182614a27565b5060a08181015180516104408501526020808201516104608601526040808301516104808701526060808401516104a08801526080808501516104c0890152848601516104e089015260c0808601516105008a015260e0808701516105208b0152610100808801516105408c0152610120808901516105608d0152610140808a01516105808e01526101608a01516105a08e01526101808a01516105c08e01526101a0909901516105e08d0152838b015180516106008e0152808901516106208e0152808801516106408e0152808701516106608e0152808601516106808e01528a01516106a08d0152828b015180516106c08e0152808901516106e08e0152808801516107008e0152808701516107208e0152808601516107408e0152808b01516107608e0152808501516107808e01528301516107a08d0152818b015180516107c08e0152808901516107e08e0152808801516108008e0152808701516108208e0152808601516108408e0152808b01516108608e015284015180516108808e0152808901516108a08e0152808801516108c08e0152808701516108e08e0152808601516109008e0152808b01516109208e01528401516109408d0152808b0151805115156109608e0152808901516109808e0152808801516109a08e0152808701516109c08e0152808601516109e08e0152808b0151610a008e015280850151610a208e015280840151610a408e0152820151610a608d01529988015180511515610a808d015296870151610aa08c015294860151610ac08b015292850151610ae08a015290840151610b0089015294830151610b2088015293820151610b4087015292810151610b6086015291820151610b8085015291810151610ba08401520151610bc090910152565b610be081016107238284614b33565b600060208284031215614e4b57600080fd5b5035919050565b805182526020810151614e7d602084018273ffffffffffffffffffffffffffffffffffffffff169052565b506040810151614e91604084018215159052565b506060810151614ea5606084018215159052565b506080818101519083015260a0808201519083015260c0808201519083015260e0808201519083015261010080820151908301526101208082015190830152610140808201519083015261016090810151910152565b610d608101614f0a8285614e52565b610fcd610180830184614b33565b60008060408385031215614f2b57600080fd5b8235614f36816147f4565b946020939093013593505050565b7f4e487b7100000000000000000000000000000000000000000000000000000000600052604160045260246000fd5b6060810181811067ffffffffffffffff82111715614f9357614f93614f44565b60405250565b60a0810181811067ffffffffffffffff82111715614f9357614f93614f44565b7fffffffffffffffffffffffffffffffffffffffffffffffffffffffffffffffe0601f830116810181811067ffffffffffffffff82111715614ffd57614ffd614f44565b6040525050565b604051610220810167ffffffffffffffff8111828210171561502857615028614f44565b60405290565b604051610120810167ffffffffffffffff8111828210171561502857615028614f44565b604051610160810167ffffffffffffffff8111828210171561502857615028614f44565b6040516101a0810167ffffffffffffffff8111828210171561502857615028614f44565b604051610200810167ffffffffffffffff8111828210171561502857615028614f44565b600067ffffffffffffffff8211156150d8576150d8614f44565b5060051b60200190565b600082601f8301126150f357600080fd5b81356020615100826150be565b60405161510d8282614fb9565b83815260059390931b850182019282810191508684111561512d57600080fd5b8286015b84811015615151578035615144816147f4565b8352918301918301615131565b509695505050505050565b60006020828403121561516e57600080fd5b813567ffffffffffffffff81111561518557600080fd5b611dbb848285016150e2565b600081518084526020808501945080840160005b838110156151cc576151b8878351614b33565b610be09690960195908201906001016151a5565b509495945050505050565b602081526000610fcd6020830184615191565b805173ffffffffffffffffffffffffffffffffffffffff168252602081015161522b602084018273ffffffffffffffffffffffffffffffffffffffff169052565b506040810151615253604084018273ffffffffffffffffffffffffffffffffffffffff169052565b50606081015161527b606084018273ffffffffffffffffffffffffffffffffffffffff169052565b5060808101516152a3608084018273ffffffffffffffffffffffffffffffffffffffff169052565b5060a081015160a083015260c081015160c083015260e081015160e0830152610100808201518184015250610120808201516152e28285018215159052565b50505050565b610140810161072382846151ea565b815181526020808301518183015260408084015181840152606080850151818501526080808601518186015260a0808701518187015260c0808801518051828901529586015160e0880152938501516101008701529184015161012086015283015161014085015282015161016084015201516101808201526101a08101610723565b602080825282518282018190526000919060409081850190868401855b828110156153dc576153cc848351805173ffffffffffffffffffffffffffffffffffffffff1682526020908101511515910152565b9284019290850190600101615397565b5091979650505050505050565b600080604083850312156153fc57600080fd5b823567ffffffffffffffff8082111561541457600080fd5b615420868387016150e2565b935060209150818501358181111561543757600080fd5b85019050601f8101861361544a57600080fd5b8035615455816150be565b6040516154628282614fb9565b82815260059290921b830184019184810191508883111561548257600080fd5b928401925b828410156154a057833582529284019290840190615487565b80955050505050509250929050565b6020808252825182820181905260009190848201906040850190845b818110156154f2576154de8385516151ea565b9284019261014092909201916001016154cb565b50909695505050505050565b6000806040838503121561551157600080fd5b50508035926020909101359150565b604080825283519082018190526000906020906060840190828701845b8281101561556457615550848351614e52565b61018093909301929084019060010161553d565b505050838103828501526155788186615191565b9695505050505050565b60008060006060848603121561559757600080fd5b83356155a2816147f4565b95602085013595506040909401359392505050565b815173ffffffffffffffffffffffffffffffffffffffff16815260208083015115159082015260408101610723565b6000806000606084860312156155fb57600080fd5b505081359360208301359350604090920135919050565b6020808252825182820181905260009190848201906040850190845b818110156154f257835173ffffffffffffffffffffffffffffffffffffffff168352928401929184019160010161562e565b6020808252825182820181905260009190848201906040850190845b818110156154f25783518352928401929184019160010161567c565b6000602082840312156156aa57600080fd5b5051919050565b8051801515811461125a57600080fd5b805161125a816147f4565b600060e082840312156156de57600080fd5b60405160e0810181811067ffffffffffffffff8211171561570157615701614f44565b80604052508091508251615714816147f4565b808252506020830151602082015260408301516040820152606083015160608201526080830151608082015260a083015160a082015260c083015160c08201525092915050565b60008183036101a081121561576f57600080fd5b60405161577b81614f73565b8092508351815260a07fffffffffffffffffffffffffffffffffffffffffffffffffffffffffffffffe0830112156157b257600080fd5b60405191506157c082614f99565b60208401516157ce816147f4565b8083525060408401516020830152606084015160408301526080840151606083015260a0840151608083015281602082015261580d8560c086016156cc565b6040820152505092915050565b60006103a0828403121561582d57600080fd5b615835615004565b825181526020808401519082015260408084015190820152606080840151908201526080808401519082015260a0808401519082015260c0808401519082015260e08084015190820152610100808401519082015261012080840151908201526101408084015190820152610160808401519082015261018080840151908201526101a080840151908201526101c080840151908201526101e0808401519082015290506102006158e88482850161575b565b9082015292915050565b6000808284036104c081121561590757600080fd5b6101208082121561591757600080fd5b61591f61502e565b915061592a856156b1565b82526020850151602083015260408501516040830152606085015160608301526080850151608083015260a085015160a083015260c085015160c083015260e085015160e083015261010080860151818401525081935061598d8682870161581a565b925050509250929050565b6000808284036105008112156159ad57600080fd5b610160808212156159bd57600080fd5b6159c5615052565b91506159d0856156b1565b82526020850151602083015260408501516040830152606085015160608301526080850151608083015260a085015160a083015260c085015160c083015260e085015160e083015261010080860151818401525061012080860151818401525061014080860151818401525081935061598d8682870161581a565b600060208284031215615a5d57600080fd5b8151610fcd816147f4565b7f4e487b7100000000000000000000000000000000000000000000000000000000600052601160045260246000fd5b60007f80000000000000000000000000000000000000000000000000000000000000008203615ac857615ac8615a68565b5060000390565b808202811582820484141761072357610723615a68565b8181038181111561072357610723615a68565b600080600080600060a08688031215615b1157600080fd5b5050835160208501516040860151606087015160809097015192989197509594509092509050565b7f4e487b7100000000000000000000000000000000000000000000000000000000600052601260045260246000fd5b600082615b9e577f4e487b7100000000000000000000000000000000000000000000000000000000600052601260045260246000fd5b500490565b7f4e487b7100000000000000000000000000000000000000000000000000000000600052603260045260246000fd5b60007fffffffffffffffffffffffffffffffffffffffffffffffffffffffffffffffff8203615c0357615c03615a68565b5060010190565b60008060408385031215615c1d57600080fd5b505080516020909101519092909150565b600060033d11156105cf5760046000803e5060005160e01c90565b600060443d1015615c575790565b6040517ffffffffffffffffffffffffffffffffffffffffffffffffffffffffffffffffc803d016004833e81513d67ffffffffffffffff8160248401118184111715615ca557505050505090565b8285019150815181811115615cbd5750505050505090565b843d8701016020828501011115615cd75750505050505090565b615ce660208286010187614fb9565b509095945050505050565b8082018082111561072357610723615a68565b805160ff8116811461125a57600080fd5b60006101a08284031215615d2857600080fd5b615d30615076565b615d39836156c1565b8152615d47602084016156c1565b6020820152615d58604084016156c1565b6040820152615d69606084016156c1565b6060820152615d7a608084016156c1565b6080820152615d8b60a084016156c1565b60a0820152615d9c60c08401615d04565b60c0820152615dad60e08401615d04565b60e08201526101008381015190820152610120808401519082015261014080840151908201526101608084015190820152610180928301519281019290925250919050565b600060408284031215615e0457600080fd5b6040516040810181811067ffffffffffffffff82111715615e2757615e27614f44565b80604052508091508251615e3a816147f4565b81526020830151615e4a816147f4565b6020919091015292915050565b60006102408284031215615e6a57600080fd5b615e7261509a565b615e7b836156c1565b8152615e89602084016156c1565b6020820152615e9a604084016156c1565b6040820152615eab606084016156c1565b6060820152615ebc608084016156c1565b6080820152615ecd60a084016156c1565b60a0820152615ede60c084016156c1565b60c0820152615eef60e084016156c1565b60e0820152610100615f0385828601615df2565b90820152610140615f1685858301615df2565b61012083015261018080850151828401526101a09150818501516101608401526101c080860151828501526101e09150818601518385015261020086015181850152506102208501518184015250508091505092915050565b61ffff818116838216028082169190828114611a5757611a57615a68565b60008060008060808587031215615fa357600080fd5b50508251602084015160408501516060909501519196909550909250905056fea2646970667358221220b83e57137779932c96248744f23d82391dfe32b0a7febefb61ffdbc363a95f2e64736f6c63430008150033",
  "devdoc": {
    "kind": "dev",
    "methods": {
      "getAbsorbedDustDebt(address)": {
        "params": {
          "vault_": "The address of the vault."
        },
        "returns": {
          "_0": "The absorbed dust debt of the vault."
        }
      },
      "getAbsorbedLiquidityRaw(address)": {
        "params": {
          "vault_": "The address of the vault."
        },
        "returns": {
          "_0": "The absorbed liquidity of the vault."
        }
      },
      "getAllVaultsAddresses()": {
        "returns": {
          "vaults_": "The addresses of all the vaults."
        }
      },
      "getAllVaultsLiquidation()": {
        "returns": {
          "liquidationsData_": "An array of LiquidationStruct containing the liquidation data for all vaults."
        }
      },
      "getBranchDataRaw(address,uint256)": {
        "params": {
          "branch_": "The branch value.",
          "vault_": "The address of the vault."
        },
        "returns": {
          "_0": "The raw branch data of the vault."
        }
      },
      "getContractForDeployerIndex(address,uint256)": {
        "params": {
          "index_": "The index of the deployer.",
          "vault_": "The address of the vault."
        },
        "returns": {
          "_0": "The contract for deployer index of the vault."
        }
      },
      "getDexFromAddress(address)": {
        "params": {
          "vault_": "The address of the vault."
        },
        "returns": {
          "_0": "The DEX from address of the vault."
        }
      },
      "getMultipleVaultsLiquidation(address[],uint256[])": {
        "params": {
          "tokensInAmt_": "The array of token amounts to liquidate.",
          "vaults_": "The array of vault addresses."
        },
        "returns": {
          "liquidationsData_": "An array of LiquidationStruct containing the liquidation data for each vault."
        }
      },
      "getPositionDataRaw(address,uint256)": {
        "params": {
          "positionId_": "The ID of the position.",
          "vault_": "The address of the vault."
        },
        "returns": {
          "_0": "The position data of the vault."
        }
      },
      "getRateRaw(address)": {
        "params": {
          "vault_": "The address of the vault."
        },
        "returns": {
          "_0": "The raw rate of the vault."
        }
      },
      "getRebalancer(address)": {
        "params": {
          "vault_": "The address of the vault."
        },
        "returns": {
          "_0": "The rebalancer of the vault."
        }
      },
      "getTickDataRaw(address,int256)": {
        "params": {
          "tick_": "The tick value.",
          "vault_": "The address of the vault."
        },
        "returns": {
          "_0": "The raw tick data of the vault."
        }
      },
      "getTickHasDebtRaw(address,int256)": {
        "params": {
          "key_": "The tick key.",
          "vault_": "The address of the vault."
        },
        "returns": {
          "_0": "The raw tick data of the vault."
        }
      },
      "getTickIdDataRaw(address,int256,uint256)": {
        "params": {
          "id_": "The ID of the tick.",
          "tick_": "The tick value.",
          "vault_": "The address of the vault."
        },
        "returns": {
          "_0": "The raw tick data of the vault."
        }
      },
      "getTokenConfig(uint256)": {
        "params": {
          "nftId_": "The ID of the NFT."
        },
        "returns": {
          "_0": "The token configuration."
        }
      },
      "getTotalVaults()": {
        "returns": {
          "_0": "The total number of vaults."
        }
      },
      "getVaultAbsorb(address)": {
        "params": {
          "vault_": "The address of the vault."
        },
        "returns": {
          "absorbData_": "The AbsorbStruct containing the absorb data for the vault."
        }
      },
      "getVaultAddress(uint256)": {
        "params": {
          "vaultId_": "The ID of the vault."
        },
        "returns": {
          "vault_": "The address of the vault."
        }
      },
      "getVaultEntireData(address)": {
        "params": {
          "vault_": "The address of the vault to retrieve the data for."
        },
        "returns": {
          "vaultData_": "The entire data of the vault."
        }
      },
      "getVaultId(address)": {
        "params": {
          "vault_": "The address of the vault."
        },
        "returns": {
          "id_": "The ID of the vault."
        }
      },
      "getVaultLiquidation(address,uint256)": {
        "params": {
          "tokenInAmt_": "token in aka debt to payback, leave 0 to get max",
          "vault_": "address of vault for which to fetch"
        },
        "returns": {
          "liquidationData_": "liquidation related data. Check out structs.sol"
        }
      },
      "getVaultState(address)": {
        "params": {
          "vault_": "The address of the vault to retrieve the state for."
        },
        "returns": {
          "vaultState_": "The state of the vault, including top tick, current and total branches,                     total supply and borrow, total positions, and current branch state."
        }
      },
      "getVaultType(address)": {
        "params": {
          "vault_": "The address of the vault."
        },
        "returns": {
          "vaultType_": "The type of the vault. 0 if not a Fluid vault."
        }
      },
      "getVaultVariables2Raw(address)": {
        "params": {
          "vault_": "The address of the vault."
        },
        "returns": {
          "_0": "The raw variables of the vault."
        }
      },
      "getVaultVariablesRaw(address)": {
        "params": {
          "vault_": "The address of the vault."
        },
        "returns": {
          "_0": "The raw variables of the vault."
        }
      },
      "getVaultsAbsorb()": {
        "returns": {
          "absorbData_": "An array of AbsorbStruct containing the absorb data for all vaults."
        }
      },
      "getVaultsAbsorb(address[])": {
        "params": {
          "vaults_": "The array of vault addresses."
        },
        "returns": {
          "absorbData_": "An array of AbsorbStruct containing the absorb data for each vault."
        }
      },
      "getVaultsEntireData()": {
        "returns": {
          "vaultsData_": "An array of VaultEntireData structures containing the data for each vault."
        }
      },
      "getVaultsEntireData(address[])": {
        "params": {
          "vaults_": "The list of vault addresses."
        },
        "returns": {
          "vaultsData_": "An array of VaultEntireData structures containing the data for each vault."
        }
      },
      "positionByNftId(uint256)": {
        "params": {
          "nftId_": "The NFT ID for which to retrieve the position data."
        },
        "returns": {
          "userPosition_": "The UserPosition structure containing the position data.",
          "vaultData_": "The VaultEntireData structure containing the vault data."
        }
      },
      "positionsByUser(address)": {
        "params": {
          "user_": "The address of the user for whom to fetch positions and vault data."
        },
        "returns": {
          "userPositions_": "An array of UserPosition structs representing the user's positions.",
          "vaultsData_": "An array of VaultEntireData structs representing the vault data for each position."
        }
      },
      "positionsNftIdOfUser(address)": {
        "params": {
          "user_": "The address of the user for whom to fetch positions."
        },
        "returns": {
          "nftIds_": "An array of NFT IDs representing the user's positions."
        }
      },
      "totalPositions()": {
        "returns": {
          "_0": "The total number of positions."
        }
      },
      "vaultByNftId(uint256)": {
        "params": {
          "nftId_": "The NFT ID for which to fetch the vault address."
        },
        "returns": {
          "vault_": "The address of the vault associated with the NFT ID."
        }
      }
    },
    "version": 1
  },
  "userdoc": {
    "kind": "user",
    "methods": {
      "calculateDoubleIntUintMapping(uint256,int256,uint256)": {
        "notice": "Calculating the slot ID for Liquidity contract for double mapping"
      },
      "calculateStorageSlotIntMapping(uint256,int256)": {
        "notice": "Calculating the slot ID for Liquidity contract for single mapping"
      },
      "calculateStorageSlotUintMapping(uint256,uint256)": {
        "notice": "Calculating the slot ID for Liquidity contract for single mapping"
      },
      "getAbsorbedDustDebt(address)": {
        "notice": "Get the absorbed dust debt of a vault."
      },
      "getAbsorbedLiquidityRaw(address)": {
        "notice": "Get the absorbed liquidity of a vault."
      },
      "getAllVaultsAddresses()": {
        "notice": "Get the addresses of all the vaults."
      },
      "getAllVaultsLiquidation()": {
        "notice": "Retrieves liquidation data for all vaults."
      },
      "getBranchDataRaw(address,uint256)": {
        "notice": "Get the raw branch data of a vault."
      },
      "getContractForDeployerIndex(address,uint256)": {
        "notice": "Get the contract for deployer index of a vault."
      },
      "getDexFromAddress(address)": {
        "notice": "Get the DEX from address of a vault."
      },
      "getMultipleVaultsLiquidation(address[],uint256[])": {
        "notice": "Retrieves liquidation data for multiple vaults."
      },
      "getPositionDataRaw(address,uint256)": {
        "notice": "Get the position data of a vault."
      },
      "getRateRaw(address)": {
        "notice": "Get the raw rate of a vault."
      },
      "getRebalancer(address)": {
        "notice": "Get the rebalancer of a vault."
      },
      "getTickDataRaw(address,int256)": {
        "notice": "Get the raw tick data of a vault."
      },
      "getTickHasDebtRaw(address,int256)": {
        "notice": "Get the raw tick data of a vault."
      },
      "getTickIdDataRaw(address,int256,uint256)": {
        "notice": "Get the raw tick data of a vault."
      },
      "getTokenConfig(uint256)": {
        "notice": "Get the token configuration."
      },
      "getTotalVaults()": {
        "notice": "Get the total number of vaults."
      },
      "getVaultAbsorb(address)": {
        "notice": "DEPRECATED, only works for vaults v1.0.0: Retrieves absorb data for a single vault."
      },
      "getVaultAddress(uint256)": {
        "notice": "Get the address of a vault."
      },
      "getVaultEntireData(address)": {
        "notice": "Retrieves the entire data for a given vault."
      },
      "getVaultId(address)": {
        "notice": "Get the ID of a vault."
      },
      "getVaultLiquidation(address,uint256)": {
        "notice": "fetches available liquidations"
      },
      "getVaultState(address)": {
        "notice": "Retrieves the state of a given vault."
      },
      "getVaultType(address)": {
        "notice": "Get the type of a vault."
      },
      "getVaultVariables2Raw(address)": {
        "notice": "Get the raw variables of a vault."
      },
      "getVaultVariablesRaw(address)": {
        "notice": "Get the raw variables of a vault."
      },
      "getVaultsAbsorb()": {
        "notice": "DEPRECATED, only works for vaults v1.0.0: Retrieves absorb data for all vaults."
      },
      "getVaultsAbsorb(address[])": {
        "notice": "DEPRECATED, only works for vaults v1.0.0: Retrieves absorb data for multiple vaults."
      },
      "getVaultsEntireData()": {
        "notice": "Retrieves the entire data for all vaults."
      },
      "getVaultsEntireData(address[])": {
        "notice": "Retrieves the entire data for a list of vaults."
      },
      "positionByNftId(uint256)": {
        "notice": "Retrieves the position data for a given NFT ID and the corresponding vault data."
      },
      "positionsByUser(address)": {
        "notice": "Fetches all positions and their corresponding vault data for a given user."
      },
      "positionsNftIdOfUser(address)": {
        "notice": "Returns an array of NFT IDs for all positions of a given user."
      },
      "totalPositions()": {
        "notice": "Returns the total number of positions across all users."
      },
      "vaultByNftId(uint256)": {
        "notice": "Returns the vault address associated with a given NFT ID."
      }
    },
    "notice": "Fluid Vault protocol resolver Implements various view-only methods to give easy access to Vault protocol data. For vaults with Smart Col / Smart Debt from the Dex protocol, combine this data with Data fetched from the DexResolver e.g. via MultiCall to fetch Vault limits, shares exchange rates etc. at the Dex.",
    "version": 1
  },
  "storageLayout": {
    "storage": [],
    "types": null
  }
}