{
  "address": "0x4f379F61812Ea0957e8b7631c996602e12fCfDB8",
  "abi": [
    {
      "inputs": [
        {
          "internalType": "contract IFluidLiquidity",
          "name": "liquidity_",
          "type": "address"
        }
      ],
      "stateMutability": "nonpayable",
      "type": "constructor"
    },
    {
      "inputs": [],
      "name": "FluidCalcRevenueSimulatedTimeInvalidTimestamp",
      "type": "error"
    },
    {
      "inputs": [
        {
          "internalType": "uint256",
          "name": "errorId_",
          "type": "uint256"
        }
      ],
      "name": "FluidLiquidityCalcsError",
      "type": "error"
    },
    {
      "inputs": [
        {
          "internalType": "uint256",
          "name": "errorId_",
          "type": "uint256"
        }
      ],
      "name": "FluidLiquidityCalcsError",
      "type": "error"
    },
    {
      "inputs": [],
      "name": "LIQUIDITY",
      "outputs": [
        {
          "internalType": "contract IFluidLiquidity",
          "name": "",
          "type": "address"
        }
      ],
      "stateMutability": "view",
      "type": "function"
    },
    {
      "inputs": [
        {
          "internalType": "uint256",
          "name": "totalAmounts_",
          "type": "uint256"
        },
        {
          "internalType": "uint256",
          "name": "exchangePricesAndConfig_",
          "type": "uint256"
        },
        {
          "internalType": "uint256",
          "name": "liquidityTokenBalance_",
          "type": "uint256"
        }
      ],
      "name": "calcRevenue",
      "outputs": [
        {
          "internalType": "uint256",
          "name": "revenueAmount_",
          "type": "uint256"
        }
      ],
      "stateMutability": "view",
      "type": "function"
    },
    {
      "inputs": [
        {
          "internalType": "uint256",
          "name": "totalAmounts_",
          "type": "uint256"
        },
        {
          "internalType": "uint256",
          "name": "exchangePricesAndConfig_",
          "type": "uint256"
        },
        {
          "internalType": "uint256",
          "name": "liquidityTokenBalance_",
          "type": "uint256"
        },
        {
          "internalType": "uint256",
          "name": "simulatedTimestamp_",
          "type": "uint256"
        }
      ],
      "name": "calcRevenueSimulatedTime",
      "outputs": [
        {
          "internalType": "uint256",
          "name": "revenueAmount_",
          "type": "uint256"
        }
      ],
      "stateMutability": "pure",
      "type": "function"
    },
    {
      "inputs": [
        {
          "internalType": "address",
          "name": "token_",
          "type": "address"
        }
      ],
      "name": "getRevenue",
      "outputs": [
        {
          "internalType": "uint256",
          "name": "revenueAmount_",
          "type": "uint256"
        }
      ],
      "stateMutability": "view",
      "type": "function"
    },
    {
      "inputs": [],
      "name": "getRevenueCollector",
      "outputs": [
        {
          "internalType": "address",
          "name": "",
          "type": "address"
        }
      ],
      "stateMutability": "view",
      "type": "function"
    },
    {
      "inputs": [],
      "name": "getRevenues",
      "outputs": [
        {
          "components": [
            {
              "internalType": "address",
              "name": "token",
              "type": "address"
            },
            {
              "internalType": "uint256",
              "name": "revenueAmount",
              "type": "uint256"
            }
          ],
          "internalType": "struct FluidRevenueResolver.TokenRevenue[]",
          "name": "tokenRevenues_",
          "type": "tuple[]"
        }
      ],
      "stateMutability": "view",
      "type": "function"
    }
  ],
  "transactionHash": "0xe41214b279bcb39c3bea974f0f8a2c03e99a3546efd83ecc3692a5089e3fb47b",
  "args": [
    "0x52Aa899454998Be5b000Ad077a46Bbe360F4e497"
  ],
  "numDeployments": 3,
  "solcInputHash": "033d84042c3fe6a1afa58a71e8e52d69",
  "bytecode": "0x60a060405234801561001057600080fd5b5060405161110938038061110983398101604081905261002f91610040565b6001600160a01b0316608052610070565b60006020828403121561005257600080fd5b81516001600160a01b038116811461006957600080fd5b9392505050565b60805161104e6100bb6000396000818160a2015281816101850152818161020f01528181610336015281816103b0015281816103ed015281816104dc0152610612015261104e6000f3fe608060405234801561001057600080fd5b50600436106100725760003560e01c806385b670951161005057806385b67095146100f1578063ab89217514610104578063f7fdd1391461011957600080fd5b80631170e219146100775780632861c7d11461009d57806334a2e659146100e9575b600080fd5b61008a610085366004610d9a565b61012c565b6040519081526020015b60405180910390f35b6100c47f000000000000000000000000000000000000000000000000000000000000000081565b60405173ffffffffffffffffffffffffffffffffffffffff9091168152602001610094565b6100c4610153565b61008a6100ff366004610dc6565b61020a565b61010c6104a7565b6040516100949190610dfc565b61008a610127366004610e61565b610767565b60008260000361013e5750600061014c565b610149848484610790565b90505b9392505050565b6040517fb5c736e4000000000000000000000000000000000000000000000000000000008152600060048201819052907f000000000000000000000000000000000000000000000000000000000000000073ffffffffffffffffffffffffffffffffffffffff169063b5c736e490602401602060405180830381865afa1580156101e1573d6000803e3d6000fd5b505050506040513d601f19601f820116820180604052508101906102059190610e93565b905090565b6000807f000000000000000000000000000000000000000000000000000000000000000073ffffffffffffffffffffffffffffffffffffffff1663b5c736e46102546005866107f9565b6040518263ffffffff1660e01b815260040161027291815260200190565b602060405180830381865afa15801561028f573d6000803e3d6000fd5b505050506040513d601f19601f820116820180604052508101906102b39190610e93565b9050806000036102c65750600092915050565b600073ffffffffffffffffffffffffffffffffffffffff841673eeeeeeeeeeeeeeeeeeeeeeeeeeeeeeeeeeeeeeee146103ae576040517f70a0823100000000000000000000000000000000000000000000000000000000815273ffffffffffffffffffffffffffffffffffffffff7f0000000000000000000000000000000000000000000000000000000000000000811660048301528516906370a0823190602401602060405180830381865afa158015610385573d6000803e3d6000fd5b505050506040513d601f19601f820116820180604052508101906103a99190610e93565b6103e7565b7f000000000000000000000000000000000000000000000000000000000000000073ffffffffffffffffffffffffffffffffffffffff16315b905060007f000000000000000000000000000000000000000000000000000000000000000073ffffffffffffffffffffffffffffffffffffffff1663b5c736e46104326007886107f9565b6040518263ffffffff1660e01b815260040161045091815260200190565b602060405180830381865afa15801561046d573d6000803e3d6000fd5b505050506040513d601f19601f820116820180604052508101906104919190610e93565b905061049e818484610790565b95945050505050565b6040517fb5c736e4000000000000000000000000000000000000000000000000000000008152600a60048201526060906000907f000000000000000000000000000000000000000000000000000000000000000073ffffffffffffffffffffffffffffffffffffffff169063b5c736e490602401602060405180830381865afa158015610538573d6000803e3d6000fd5b505050506040513d601f19601f8201168201806040525081019061055c9190610e93565b90508067ffffffffffffffff81111561057757610577610eac565b6040519080825280602002602001820160405280156105bc57816020015b60408051808201909152600080825260208201528152602001906001900390816105955790505b5091506000600a6040516020016105d591815260200190565b6040516020818303038152906040528051906020012060001c905060005b828110156107615773ffffffffffffffffffffffffffffffffffffffff7f00000000000000000000000000000000000000000000000000000000000000001663b5c736e46106418385610f0a565b60405160e083901b7fffffffff000000000000000000000000000000000000000000000000000000001681526004810191909152602401602060405180830381865afa158015610695573d6000803e3d6000fd5b505050506040513d601f19601f820116820180604052508101906106b99190610e93565b8482815181106106cb576106cb610f1d565b60200260200101516000019073ffffffffffffffffffffffffffffffffffffffff16908173ffffffffffffffffffffffffffffffffffffffff168152505061072f84828151811061071e5761071e610f1d565b60200260200101516000015161020a565b84828151811061074157610741610f1d565b60209081029190910181015101528061075981610f4c565b9150506105f3565b50505090565b60008360000361077957506000610788565b61078585858585610844565b90505b949350505050565b600080600061079e856108af565b9150915060006107ae8784610ac2565b905080156107eb576107c08783610b0d565b6107ca9086610f0a565b93508084116107da5760006107e4565b6107e48185610f84565b93506107ef565b8493505b5050509392505050565b6040805173ffffffffffffffffffffffffffffffffffffffff831660208201529081018390526000906060016040516020818303038152906040528051906020012090505b92915050565b60008060006108538685610b47565b9150915060006108638884610ac2565b905080156108a0576108758883610b0d565b61087f9087610f0a565b935080841161088f576000610899565b6108998185610f84565b93506108a4565b8593505b505050949350505050565b67ffffffffffffffff605b82901c811690609b83901c168115806108d1575080155b15610912576040517fd50d75120000000000000000000000000000000000000000000000000000000081526201117160048201526024015b60405180910390fd5b61ffff8316603a84901c6401ffffffff16428181039160ea87901c617fff1691148061093c575082155b806109475750806001145b1561095457505050915091565b64496cebb80084840283020484019350617fff60db87901c1692508260010361097f57505050915091565b826001166001036109d45760019290921c91826c7e37be2022c0914b2680000000816109ad576109ad610f97565b049250612710601e87901c613fff166b033b2e3c9fd0803ce8000000850102049250610a01565b60019290921c916305f5e100601e87901c613fff166127108501026b033b2e3c9fd0803ce8000000020492505b80600116600103610a385760011c61271081016b033b2e3c9fd0803ce8000000820281610a3057610a30610f97565b049050610a6e565b60011c61271081016b033b2e3c9fd0803ce8000000820281610a5c57610a5c610f97565b046b033b2e3c9fd0803ce80000000390505b760a70c3c40a64e6c51999090b65f67d92400000000000008382026127100261ffff881691900402601087901c613fff16612710030292506801b5a660ea44b8000085840283020485019450505050915091565b66ffffffffffffff604883901c811660ff604085901c81169190911b91600885901c169084161b64e8d4a51000610af98483610fc6565b610b039190610fdd565b6107889083610f0a565b60c882901c60ff60c084901c81169190911b9066ffffffffffffff608885901c16608085901c9091161b64e8d4a51000610af98483610fc6565b67ffffffffffffffff605b83901c811690609b84901c16811580610b69575080155b15610ba5576040517fd50d7512000000000000000000000000000000000000000000000000000000008152620111716004820152602401610909565b61ffff8416603a85901c6401ffffffff16841015610bef576040517fcfeb15e200000000000000000000000000000000000000000000000000000000815260040160405180910390fd5b603a85901c6401ffffffff168085039060ea87901c617fff1690861480610c14575082155b80610c1f5750806001145b15610c2c57505050610d93565b64496cebb80084840283020484019350617fff60db88901c16925082600103610c5757505050610d93565b82600116600103610cac5760019290921c91826c7e37be2022c0914b268000000081610c8557610c85610f97565b049250612710601e88901c613fff166b033b2e3c9fd0803ce8000000850102049250610cd9565b60019290921c916305f5e100601e88901c613fff166127108501026b033b2e3c9fd0803ce8000000020492505b80600116600103610d105760011c61271081016b033b2e3c9fd0803ce8000000820281610d0857610d08610f97565b049050610d46565b60011c61271081016b033b2e3c9fd0803ce8000000820281610d3457610d34610f97565b046b033b2e3c9fd0803ce80000000390505b6801b5a660ea44b80000613fff601089901c16612710908103760a70c3c40a64e6c51999090b65f67d924000000000000093909502029190910461ffff8816029290920284020204909101905b9250929050565b600080600060608486031215610daf57600080fd5b505081359360208301359350604090920135919050565b600060208284031215610dd857600080fd5b813573ffffffffffffffffffffffffffffffffffffffff8116811461014c57600080fd5b602080825282518282018190526000919060409081850190868401855b82811015610e54578151805173ffffffffffffffffffffffffffffffffffffffff168552860151868501529284019290850190600101610e19565b5091979650505050505050565b60008060008060808587031215610e7757600080fd5b5050823594602084013594506040840135936060013592509050565b600060208284031215610ea557600080fd5b5051919050565b7f4e487b7100000000000000000000000000000000000000000000000000000000600052604160045260246000fd5b7f4e487b7100000000000000000000000000000000000000000000000000000000600052601160045260246000fd5b8082018082111561083e5761083e610edb565b7f4e487b7100000000000000000000000000000000000000000000000000000000600052603260045260246000fd5b60007fffffffffffffffffffffffffffffffffffffffffffffffffffffffffffffffff8203610f7d57610f7d610edb565b5060010190565b8181038181111561083e5761083e610edb565b7f4e487b7100000000000000000000000000000000000000000000000000000000600052601260045260246000fd5b808202811582820484141761083e5761083e610edb565b600082611013577f4e487b7100000000000000000000000000000000000000000000000000000000600052601260045260246000fd5b50049056fea264697066735822122066876d3c296a2b5c0b4f7fa8c2f48aa8ed5802362615be80aaced67dca36bea064736f6c63430008150033",
  "devdoc": {
    "kind": "dev",
    "methods": {
      "calcRevenue(uint256,uint256,uint256)": {
        "details": "exposed for advanced revenue calculations",
        "params": {
          "exchangePricesAndConfig_": "exchange prices and config packed uint256 read from storage",
          "liquidityTokenBalance_": "current balance of Liquidity contract (IERC20(token_).balanceOf(address(this)))",
          "totalAmounts_": "total amounts packed uint256 read from storage"
        },
        "returns": {
          "revenueAmount_": "collectable revenue amount"
        }
      }
    },
    "stateVariables": {
      "_NATIVE_TOKEN_ADDRESS": {
        "details": "address that is mapped to the chain native token"
      }
    },
    "version": 1
  },
  "userdoc": {
    "kind": "user",
    "methods": {
      "LIQUIDITY()": {
        "notice": "address of the liquidity contract"
      },
      "calcRevenue(uint256,uint256,uint256)": {
        "notice": "gets the `revenueAmount_` for a token given its' totalAmounts and exchangePricesAndConfig from stacked uint256 storage slots and the balance of the Fluid liquidity contract for the token."
      },
      "calcRevenueSimulatedTime(uint256,uint256,uint256,uint256)": {
        "notice": "same as `calcRevenue`, but for a simulated `block.timestamp` set via `simulatedTimestamp_`."
      },
      "getRevenue(address)": {
        "notice": "gets the currently uncollected `revenueAmount_` for a `token_`."
      },
      "getRevenueCollector()": {
        "notice": "address of contract that gets sent the revenue. Configurable by governance"
      },
      "getRevenues()": {
        "notice": "gets the currently uncollected revenues for all listed tokens at Liquidity"
      }
    },
    "notice": "Fluid Revenue resolver",
    "version": 1
  },
  "storageLayout": {
    "storage": [],
    "types": null
  }
}