{
  "address": "0x53b5eD9572071038513386A80deb99AFD8FFC7e9",
  "abi": [
    {
      "inputs": [
        {
          "internalType": "address",
          "name": "liquidity_",
          "type": "address"
        },
        {
          "internalType": "address",
          "name": "deployerContract_",
          "type": "address"
        }
      ],
      "stateMutability": "nonpayable",
      "type": "constructor"
    },
    {
      "inputs": [
        {
          "internalType": "uint256",
          "name": "errorId_",
          "type": "uint256"
        }
      ],
      "name": "FluidSafeTransferError",
      "type": "error"
    },
    {
      "anonymous": false,
      "inputs": [
        {
          "indexed": false,
          "internalType": "address[]",
          "name": "tokens",
          "type": "address[]"
        },
        {
          "indexed": false,
          "internalType": "uint256[]",
          "name": "amounts",
          "type": "uint256[]"
        },
        {
          "indexed": false,
          "internalType": "address",
          "name": "to",
          "type": "address"
        }
      ],
      "name": "LogCollectRevenue",
      "type": "event"
    },
    {
      "anonymous": false,
      "inputs": [
        {
          "components": [
            {
              "internalType": "address",
              "name": "token0",
              "type": "address"
            },
            {
              "internalType": "address",
              "name": "token1",
              "type": "address"
            },
            {
              "internalType": "bytes32",
              "name": "salt",
              "type": "bytes32"
            }
          ],
          "indexed": false,
          "internalType": "struct DexKey",
          "name": "dexKey",
          "type": "tuple"
        },
        {
          "indexed": false,
          "internalType": "uint256",
          "name": "token0Amount",
          "type": "uint256"
        },
        {
          "indexed": false,
          "internalType": "uint256",
          "name": "token1Amount",
          "type": "uint256"
        }
      ],
      "name": "LogDeposit",
      "type": "event"
    },
    {
      "anonymous": false,
      "inputs": [
        {
          "components": [
            {
              "components": [
                {
                  "internalType": "address",
                  "name": "token0",
                  "type": "address"
                },
                {
                  "internalType": "address",
                  "name": "token1",
                  "type": "address"
                },
                {
                  "internalType": "bytes32",
                  "name": "salt",
                  "type": "bytes32"
                }
              ],
              "internalType": "struct DexKey",
              "name": "dexKey",
              "type": "tuple"
            },
            {
              "internalType": "uint256",
              "name": "fee",
              "type": "uint256"
            },
            {
              "internalType": "uint256",
              "name": "revenueCut",
              "type": "uint256"
            },
            {
              "internalType": "bool",
              "name": "rebalancingStatus",
              "type": "bool"
            },
            {
              "internalType": "uint256",
              "name": "centerPrice",
              "type": "uint256"
            },
            {
              "internalType": "uint256",
              "name": "centerPriceContract",
              "type": "uint256"
            },
            {
              "internalType": "uint256",
              "name": "upperPercent",
              "type": "uint256"
            },
            {
              "internalType": "uint256",
              "name": "lowerPercent",
              "type": "uint256"
            },
            {
              "internalType": "uint256",
              "name": "upperShiftThreshold",
              "type": "uint256"
            },
            {
              "internalType": "uint256",
              "name": "lowerShiftThreshold",
              "type": "uint256"
            },
            {
              "internalType": "uint256",
              "name": "shiftTime",
              "type": "uint256"
            },
            {
              "internalType": "uint256",
              "name": "minCenterPrice",
              "type": "uint256"
            },
            {
              "internalType": "uint256",
              "name": "maxCenterPrice",
              "type": "uint256"
            },
            {
              "internalType": "uint256",
              "name": "token0Amount",
              "type": "uint256"
            },
            {
              "internalType": "uint256",
              "name": "token1Amount",
              "type": "uint256"
            }
          ],
          "indexed": false,
          "internalType": "struct InitializeParams",
          "name": "i",
          "type": "tuple"
        }
      ],
      "name": "LogInitialize",
      "type": "event"
    },
    {
      "anonymous": false,
      "inputs": [
        {
          "indexed": false,
          "internalType": "address",
          "name": "auth",
          "type": "address"
        },
        {
          "indexed": false,
          "internalType": "bool",
          "name": "isAuth",
          "type": "bool"
        }
      ],
      "name": "LogUpdateAuth",
      "type": "event"
    },
    {
      "anonymous": false,
      "inputs": [
        {
          "components": [
            {
              "internalType": "address",
              "name": "token0",
              "type": "address"
            },
            {
              "internalType": "address",
              "name": "token1",
              "type": "address"
            },
            {
              "internalType": "bytes32",
              "name": "salt",
              "type": "bytes32"
            }
          ],
          "indexed": false,
          "internalType": "struct DexKey",
          "name": "dexKey",
          "type": "tuple"
        },
        {
          "indexed": false,
          "internalType": "uint256",
          "name": "centerPriceAddress",
          "type": "uint256"
        },
        {
          "indexed": false,
          "internalType": "uint256",
          "name": "percent",
          "type": "uint256"
        },
        {
          "indexed": false,
          "internalType": "uint256",
          "name": "time",
          "type": "uint256"
        }
      ],
      "name": "LogUpdateCenterPriceAddress",
      "type": "event"
    },
    {
      "anonymous": false,
      "inputs": [
        {
          "components": [
            {
              "internalType": "address",
              "name": "token0",
              "type": "address"
            },
            {
              "internalType": "address",
              "name": "token1",
              "type": "address"
            },
            {
              "internalType": "bytes32",
              "name": "salt",
              "type": "bytes32"
            }
          ],
          "indexed": false,
          "internalType": "struct DexKey",
          "name": "dexKey",
          "type": "tuple"
        },
        {
          "indexed": false,
          "internalType": "uint256",
          "name": "maxCenterPrice",
          "type": "uint256"
        },
        {
          "indexed": false,
          "internalType": "uint256",
          "name": "minCenterPrice",
          "type": "uint256"
        }
      ],
      "name": "LogUpdateCenterPriceLimits",
      "type": "event"
    },
    {
      "anonymous": false,
      "inputs": [
        {
          "indexed": false,
          "internalType": "address",
          "name": "extraDataAddress",
          "type": "address"
        }
      ],
      "name": "LogUpdateExtraDataAddress",
      "type": "event"
    },
    {
      "anonymous": false,
      "inputs": [
        {
          "components": [
            {
              "internalType": "address",
              "name": "token0",
              "type": "address"
            },
            {
              "internalType": "address",
              "name": "token1",
              "type": "address"
            },
            {
              "internalType": "bytes32",
              "name": "salt",
              "type": "bytes32"
            }
          ],
          "indexed": false,
          "internalType": "struct DexKey",
          "name": "dexKey",
          "type": "tuple"
        },
        {
          "indexed": false,
          "internalType": "uint256",
          "name": "fee",
          "type": "uint256"
        },
        {
          "indexed": false,
          "internalType": "uint256",
          "name": "revenueCut",
          "type": "uint256"
        }
      ],
      "name": "LogUpdateFeeAndRevenueCut",
      "type": "event"
    },
    {
      "anonymous": false,
      "inputs": [
        {
          "components": [
            {
              "internalType": "address",
              "name": "token0",
              "type": "address"
            },
            {
              "internalType": "address",
              "name": "token1",
              "type": "address"
            },
            {
              "internalType": "bytes32",
              "name": "salt",
              "type": "bytes32"
            }
          ],
          "indexed": false,
          "internalType": "struct DexKey",
          "name": "dexKey",
          "type": "tuple"
        },
        {
          "indexed": false,
          "internalType": "uint256",
          "name": "upperPercent",
          "type": "uint256"
        },
        {
          "indexed": false,
          "internalType": "uint256",
          "name": "lowerPercent",
          "type": "uint256"
        },
        {
          "indexed": false,
          "internalType": "uint256",
          "name": "shiftTime",
          "type": "uint256"
        }
      ],
      "name": "LogUpdateRangePercents",
      "type": "event"
    },
    {
      "anonymous": false,
      "inputs": [
        {
          "components": [
            {
              "internalType": "address",
              "name": "token0",
              "type": "address"
            },
            {
              "internalType": "address",
              "name": "token1",
              "type": "address"
            },
            {
              "internalType": "bytes32",
              "name": "salt",
              "type": "bytes32"
            }
          ],
          "indexed": false,
          "internalType": "struct DexKey",
          "name": "dexKey",
          "type": "tuple"
        },
        {
          "indexed": false,
          "internalType": "bool",
          "name": "rebalancingStatus",
          "type": "bool"
        }
      ],
      "name": "LogUpdateRebalancingStatus",
      "type": "event"
    },
    {
      "anonymous": false,
      "inputs": [
        {
          "components": [
            {
              "internalType": "address",
              "name": "token0",
              "type": "address"
            },
            {
              "internalType": "address",
              "name": "token1",
              "type": "address"
            },
            {
              "internalType": "bytes32",
              "name": "salt",
              "type": "bytes32"
            }
          ],
          "indexed": false,
          "internalType": "struct DexKey",
          "name": "dexKey",
          "type": "tuple"
        },
        {
          "indexed": false,
          "internalType": "uint256",
          "name": "shiftTime",
          "type": "uint256"
        }
      ],
      "name": "LogUpdateShiftTime",
      "type": "event"
    },
    {
      "anonymous": false,
      "inputs": [
        {
          "components": [
            {
              "internalType": "address",
              "name": "token0",
              "type": "address"
            },
            {
              "internalType": "address",
              "name": "token1",
              "type": "address"
            },
            {
              "internalType": "bytes32",
              "name": "salt",
              "type": "bytes32"
            }
          ],
          "indexed": false,
          "internalType": "struct DexKey",
          "name": "dexKey",
          "type": "tuple"
        },
        {
          "indexed": false,
          "internalType": "uint256",
          "name": "upperThresholdPercent",
          "type": "uint256"
        },
        {
          "indexed": false,
          "internalType": "uint256",
          "name": "lowerThresholdPercent",
          "type": "uint256"
        },
        {
          "indexed": false,
          "internalType": "uint256",
          "name": "shiftTime",
          "type": "uint256"
        }
      ],
      "name": "LogUpdateThresholdPercent",
      "type": "event"
    },
    {
      "anonymous": false,
      "inputs": [
        {
          "components": [
            {
              "internalType": "address",
              "name": "token0",
              "type": "address"
            },
            {
              "internalType": "address",
              "name": "token1",
              "type": "address"
            },
            {
              "internalType": "bytes32",
              "name": "salt",
              "type": "bytes32"
            }
          ],
          "indexed": false,
          "internalType": "struct DexKey",
          "name": "dexKey",
          "type": "tuple"
        },
        {
          "indexed": false,
          "internalType": "uint256",
          "name": "token0Amount",
          "type": "uint256"
        },
        {
          "indexed": false,
          "internalType": "uint256",
          "name": "token1Amount",
          "type": "uint256"
        }
      ],
      "name": "LogWithdraw",
      "type": "event"
    },
    {
      "inputs": [
        {
          "internalType": "address[]",
          "name": "tokens_",
          "type": "address[]"
        },
        {
          "internalType": "uint256[]",
          "name": "amounts_",
          "type": "uint256[]"
        },
        {
          "internalType": "address",
          "name": "to_",
          "type": "address"
        }
      ],
      "name": "collectRevenue",
      "outputs": [],
      "stateMutability": "nonpayable",
      "type": "function"
    },
    {
      "inputs": [
        {
          "components": [
            {
              "internalType": "address",
              "name": "token0",
              "type": "address"
            },
            {
              "internalType": "address",
              "name": "token1",
              "type": "address"
            },
            {
              "internalType": "bytes32",
              "name": "salt",
              "type": "bytes32"
            }
          ],
          "internalType": "struct DexKey",
          "name": "dexKey_",
          "type": "tuple"
        },
        {
          "internalType": "uint256",
          "name": "token0Amount_",
          "type": "uint256"
        },
        {
          "internalType": "uint256",
          "name": "token1Amount_",
          "type": "uint256"
        }
      ],
      "name": "deposit",
      "outputs": [],
      "stateMutability": "nonpayable",
      "type": "function"
    },
    {
      "inputs": [
        {
          "components": [
            {
              "components": [
                {
                  "internalType": "address",
                  "name": "token0",
                  "type": "address"
                },
                {
                  "internalType": "address",
                  "name": "token1",
                  "type": "address"
                },
                {
                  "internalType": "bytes32",
                  "name": "salt",
                  "type": "bytes32"
                }
              ],
              "internalType": "struct DexKey",
              "name": "dexKey",
              "type": "tuple"
            },
            {
              "internalType": "uint256",
              "name": "fee",
              "type": "uint256"
            },
            {
              "internalType": "uint256",
              "name": "revenueCut",
              "type": "uint256"
            },
            {
              "internalType": "bool",
              "name": "rebalancingStatus",
              "type": "bool"
            },
            {
              "internalType": "uint256",
              "name": "centerPrice",
              "type": "uint256"
            },
            {
              "internalType": "uint256",
              "name": "centerPriceContract",
              "type": "uint256"
            },
            {
              "internalType": "uint256",
              "name": "upperPercent",
              "type": "uint256"
            },
            {
              "internalType": "uint256",
              "name": "lowerPercent",
              "type": "uint256"
            },
            {
              "internalType": "uint256",
              "name": "upperShiftThreshold",
              "type": "uint256"
            },
            {
              "internalType": "uint256",
              "name": "lowerShiftThreshold",
              "type": "uint256"
            },
            {
              "internalType": "uint256",
              "name": "shiftTime",
              "type": "uint256"
            },
            {
              "internalType": "uint256",
              "name": "minCenterPrice",
              "type": "uint256"
            },
            {
              "internalType": "uint256",
              "name": "maxCenterPrice",
              "type": "uint256"
            },
            {
              "internalType": "uint256",
              "name": "token0Amount",
              "type": "uint256"
            },
            {
              "internalType": "uint256",
              "name": "token1Amount",
              "type": "uint256"
            }
          ],
          "internalType": "struct InitializeParams",
          "name": "i_",
          "type": "tuple"
        }
      ],
      "name": "initialize",
      "outputs": [],
      "stateMutability": "payable",
      "type": "function"
    },
    {
      "inputs": [
        {
          "internalType": "address",
          "name": "auth_",
          "type": "address"
        },
        {
          "internalType": "bool",
          "name": "isAuth_",
          "type": "bool"
        }
      ],
      "name": "updateAuth",
      "outputs": [],
      "stateMutability": "nonpayable",
      "type": "function"
    },
    {
      "inputs": [
        {
          "components": [
            {
              "internalType": "address",
              "name": "token0",
              "type": "address"
            },
            {
              "internalType": "address",
              "name": "token1",
              "type": "address"
            },
            {
              "internalType": "bytes32",
              "name": "salt",
              "type": "bytes32"
            }
          ],
          "internalType": "struct DexKey",
          "name": "dexKey_",
          "type": "tuple"
        },
        {
          "internalType": "uint256",
          "name": "centerPriceAddress_",
          "type": "uint256"
        },
        {
          "internalType": "uint256",
          "name": "percent_",
          "type": "uint256"
        },
        {
          "internalType": "uint256",
          "name": "time_",
          "type": "uint256"
        }
      ],
      "name": "updateCenterPriceAddress",
      "outputs": [],
      "stateMutability": "nonpayable",
      "type": "function"
    },
    {
      "inputs": [
        {
          "components": [
            {
              "internalType": "address",
              "name": "token0",
              "type": "address"
            },
            {
              "internalType": "address",
              "name": "token1",
              "type": "address"
            },
            {
              "internalType": "bytes32",
              "name": "salt",
              "type": "bytes32"
            }
          ],
          "internalType": "struct DexKey",
          "name": "dexKey_",
          "type": "tuple"
        },
        {
          "internalType": "uint256",
          "name": "maxCenterPrice_",
          "type": "uint256"
        },
        {
          "internalType": "uint256",
          "name": "minCenterPrice_",
          "type": "uint256"
        }
      ],
      "name": "updateCenterPriceLimits",
      "outputs": [],
      "stateMutability": "nonpayable",
      "type": "function"
    },
    {
      "inputs": [
        {
          "internalType": "address",
          "name": "extraDataAddress_",
          "type": "address"
        }
      ],
      "name": "updateExtraDataAddress",
      "outputs": [],
      "stateMutability": "nonpayable",
      "type": "function"
    },
    {
      "inputs": [
        {
          "components": [
            {
              "internalType": "address",
              "name": "token0",
              "type": "address"
            },
            {
              "internalType": "address",
              "name": "token1",
              "type": "address"
            },
            {
              "internalType": "bytes32",
              "name": "salt",
              "type": "bytes32"
            }
          ],
          "internalType": "struct DexKey",
          "name": "dexKey_",
          "type": "tuple"
        },
        {
          "internalType": "uint256",
          "name": "fee_",
          "type": "uint256"
        },
        {
          "internalType": "uint256",
          "name": "revenueCut_",
          "type": "uint256"
        }
      ],
      "name": "updateFeeAndRevenueCut",
      "outputs": [],
      "stateMutability": "nonpayable",
      "type": "function"
    },
    {
      "inputs": [
        {
          "components": [
            {
              "internalType": "address",
              "name": "token0",
              "type": "address"
            },
            {
              "internalType": "address",
              "name": "token1",
              "type": "address"
            },
            {
              "internalType": "bytes32",
              "name": "salt",
              "type": "bytes32"
            }
          ],
          "internalType": "struct DexKey",
          "name": "dexKey_",
          "type": "tuple"
        },
        {
          "internalType": "uint256",
          "name": "upperPercent_",
          "type": "uint256"
        },
        {
          "internalType": "uint256",
          "name": "lowerPercent_",
          "type": "uint256"
        },
        {
          "internalType": "uint256",
          "name": "shiftTime_",
          "type": "uint256"
        }
      ],
      "name": "updateRangePercents",
      "outputs": [],
      "stateMutability": "nonpayable",
      "type": "function"
    },
    {
      "inputs": [
        {
          "components": [
            {
              "internalType": "address",
              "name": "token0",
              "type": "address"
            },
            {
              "internalType": "address",
              "name": "token1",
              "type": "address"
            },
            {
              "internalType": "bytes32",
              "name": "salt",
              "type": "bytes32"
            }
          ],
          "internalType": "struct DexKey",
          "name": "dexKey_",
          "type": "tuple"
        },
        {
          "internalType": "bool",
          "name": "rebalancingStatus_",
          "type": "bool"
        }
      ],
      "name": "updateRebalancingStatus",
      "outputs": [],
      "stateMutability": "nonpayable",
      "type": "function"
    },
    {
      "inputs": [
        {
          "components": [
            {
              "internalType": "address",
              "name": "token0",
              "type": "address"
            },
            {
              "internalType": "address",
              "name": "token1",
              "type": "address"
            },
            {
              "internalType": "bytes32",
              "name": "salt",
              "type": "bytes32"
            }
          ],
          "internalType": "struct DexKey",
          "name": "dexKey_",
          "type": "tuple"
        },
        {
          "internalType": "uint256",
          "name": "shiftTime_",
          "type": "uint256"
        }
      ],
      "name": "updateShiftTime",
      "outputs": [],
      "stateMutability": "nonpayable",
      "type": "function"
    },
    {
      "inputs": [
        {
          "components": [
            {
              "internalType": "address",
              "name": "token0",
              "type": "address"
            },
            {
              "internalType": "address",
              "name": "token1",
              "type": "address"
            },
            {
              "internalType": "bytes32",
              "name": "salt",
              "type": "bytes32"
            }
          ],
          "internalType": "struct DexKey",
          "name": "dexKey_",
          "type": "tuple"
        },
        {
          "internalType": "uint256",
          "name": "upperThresholdPercent_",
          "type": "uint256"
        },
        {
          "internalType": "uint256",
          "name": "lowerThresholdPercent_",
          "type": "uint256"
        },
        {
          "internalType": "uint256",
          "name": "shiftTime_",
          "type": "uint256"
        }
      ],
      "name": "updateThresholdPercent",
      "outputs": [],
      "stateMutability": "nonpayable",
      "type": "function"
    },
    {
      "inputs": [
        {
          "components": [
            {
              "internalType": "address",
              "name": "token0",
              "type": "address"
            },
            {
              "internalType": "address",
              "name": "token1",
              "type": "address"
            },
            {
              "internalType": "bytes32",
              "name": "salt",
              "type": "bytes32"
            }
          ],
          "internalType": "struct DexKey",
          "name": "dexKey_",
          "type": "tuple"
        },
        {
          "internalType": "uint256",
          "name": "token0Amount_",
          "type": "uint256"
        },
        {
          "internalType": "uint256",
          "name": "token1Amount_",
          "type": "uint256"
        },
        {
          "internalType": "address",
          "name": "to_",
          "type": "address"
        }
      ],
      "name": "withdraw",
      "outputs": [],
      "stateMutability": "nonpayable",
      "type": "function"
    }
  ],
  "transactionHash": "0x7b1407573bf2aec2f1eef7922d4e80f90797495f3a5039d4437fc2dabb03a697",
  "args": [
    "0x52Aa899454998Be5b000Ad077a46Bbe360F4e497",
    "0x4EC7b668BAF70d4A4b0FC7941a7708A07b6d45Be"
  ],
  "numDeployments": 2,
  "solcInputHash": "5e2d60838925224bb948db51e68799eb",
  "bytecode": "0x60e060405234801561000f575f5ffd5b5060405161308238038061308283398101604081905261002e91610064565b3060c0526001600160a01b039182166080521660a052610095565b80516001600160a01b038116811461005f575f5ffd5b919050565b5f5f60408385031215610075575f5ffd5b61007e83610049565b915061008c60208401610049565b90509250929050565b60805160a05160c051612f796101095f395f8181610272015281816103230152818161049501528181610603015281816107b201528181610a1601528181610cc801528181610ee1015281816111440152818161188b0152818161195f0152611be901525f610b0e01525f5050612f795ff3fe6080604052600436106100ce575f3560e01c8063a2656f731161007c578063cb710d4511610057578063cb710d45146101df578063e462f211146101fe578063e9c771b21461021d578063fe0595a31461023c575f5ffd5b8063a2656f731461018e578063b2408530146101ad578063ba53454c146101cc575f5ffd5b80634f8db1ea116100ac5780634f8db1ea1461013157806354614325146101505780636f25de781461016f575f5ffd5b8063013405c1146100d25780630a3d95e5146100f3578063179bdf9c14610112575b5f5ffd5b3480156100dd575f5ffd5b506100f16100ec366004612654565b61025b565b005b3480156100fe575f5ffd5b506100f161010d366004612699565b61030c565b34801561011d575f5ffd5b506100f161012c3660046126cb565b61047e565b34801561013c575f5ffd5b506100f161014b3660046126f4565b6105ec565b34801561015b575f5ffd5b506100f161016a366004612725565b61079b565b34801561017a575f5ffd5b506100f1610189366004612725565b6109ff565b348015610199575f5ffd5b506100f16101a836600461275c565b610cb1565b3480156101b8575f5ffd5b506100f16101c7366004612725565b610eca565b6100f16101da36600461287a565b61112d565b3480156101ea575f5ffd5b506100f16101f93660046129a4565b611874565b348015610209575f5ffd5b506100f16102183660046126f4565b611948565b348015610228575f5ffd5b506100f1610237366004612a24565b611b5e565b348015610247575f5ffd5b506100f16102563660046126f4565b611bd2565b73ffffffffffffffffffffffffffffffffffffffff7f000000000000000000000000000000000000000000000000000000000000000016300361029c575f5ffd5b7f7e8134afb5ed35d36cb65e24b9a4712a52bb77d952806c1acf50970d2107797f81905560405173ffffffffffffffffffffffffffffffffffffffff821681527f116a7728df267da3fd3e4d5a3943585553ba46e2416287dbc49e275ac20f3c269060200160405180910390a150565b73ffffffffffffffffffffffffffffffffffffffff7f000000000000000000000000000000000000000000000000000000000000000016300361034d575f5ffd5b5f8260405160200161035f9190612a9f565b604080517fffffffffffffffffffffffffffffffffffffffffffffffffffffffffffffffe081840301815291815281516020928301207fffffffffffffffff00000000000000000000000000000000000000000000000081165f908152600190935290822054909250908190036103d4575f5ffd5b6014836103e1575f6103e4565b60015b7fffffffffffffffff00000000000000000000000000000000000000000000000084165f90815260016020526040908190209190921b7fffffffffffffffffffffffffffffffffffffffffffffffffffffffffffcfffff8416179055517fb7acf1bec3f8086d74bea56e970157007f40221730e07e54998f93bce4cd59fe906104709086908690612aad565b60405180910390a150505050565b73ffffffffffffffffffffffffffffffffffffffff7f00000000000000000000000000000000000000000000000000000000000000001630036104bf575f5ffd5b5f826040516020016104d19190612a9f565b604080517fffffffffffffffffffffffffffffffffffffffffffffffffffffffffffffffe081840301815291815281516020928301207fffffffffffffffff00000000000000000000000000000000000000000000000081165f90815260019093529082205490925090819003610546575f5ffd5b821580610555575062ffffff83115b1561055e575f5ffd5b7fffffffffffffffff00000000000000000000000000000000000000000000000082165f908152600260205260409081902080547fffffffffffffffffffffffffffffffffffffffffffffffffffe00001ffffffff16602186901b179055517f92bebbbb8fe9dbc4a787680198fca5ebaf16c8f721881efa14070b42157b10f9906104709086908690612aca565b73ffffffffffffffffffffffffffffffffffffffff7f000000000000000000000000000000000000000000000000000000000000000016300361062d575f5ffd5b5f8360405160200161063f9190612a9f565b604080517fffffffffffffffffffffffffffffffffffffffffffffffffffffffffffffffe081840301815291815281516020928301207fffffffffffffffff00000000000000000000000000000000000000000000000081165f908152600190935291205490915080156106b1575f5ffd5b82158015906106c1575061271083105b156106ca575f5ffd5b6106d661271084612b12565b9250611fff8411806106e85750606483115b156106f1575f5ffd5b7fffffffffffffffff00000000000000000000000000000000000000000000000082165f9081526001602052604090207ffffffffffffffffffffffffffffffffffffffffffffffffffffffffffff0000082168517600d85901b1790557fd706efc260dc24de0e5c10e90ff4541185bad312aa114c0cb500ed6fe06828f5858561077d61271087612b4a565b60405161078c93929190612b61565b60405180910390a15050505050565b73ffffffffffffffffffffffffffffffffffffffff7f00000000000000000000000000000000000000000000000000000000000000001630036107dc575f5ffd5b5f846040516020016107ee9190612a9f565b604080517fffffffffffffffffffffffffffffffffffffffffffffffffffffffffffffffe081840301815291815281516020928301207fffffffffffffffff00000000000000000000000000000000000000000000000081165f90815260019093529082205490925090819003610863575f5ffd5b61086e600a86612b12565b945061087b600a85612b12565b935061088c6103e8620186a0612b80565b8511806108a657506108a36103e8620186a0612b80565b84115b806108af575084155b806108b8575083155b806108c55750620fffff83115b806108d757506001605282901c166001145b156108e0575f5ffd5b606184901b605386901b60525f86116108f9575f6108fc565b60015b7fffffffffffffffff00000000000000000000000000000000000000000000000086165f908152600160205260409020911b7fffffffffffffffffffffffffffffffffffff80000007ffffffffffffffffffff85161791909117919091179055613fff605382901c811690606183901c1684156109b8577fffffffffffffffff00000000000000000000000000000000000000000000000084165f908152600360205260409020600e82901b8317601c87901b174260301b1790555b7f81b2e6a314a716da4f9d7b055eb77f3631ef9b606ee131e0735d4ac55625bc57888888886040516109ed9493929190612b93565b60405180910390a15050505050505050565b73ffffffffffffffffffffffffffffffffffffffff7f0000000000000000000000000000000000000000000000000000000000000000163003610a40575f5ffd5b5f84604051602001610a529190612a9f565b604080517fffffffffffffffffffffffffffffffffffffffffffffffffffffffffffffffe081840301815291815281516020928301207fffffffffffffffff00000000000000000000000000000000000000000000000081165f90815260019093529082205490925090819003610ac7575f5ffd5b6207ffff851180610ad6575083155b80610ae35750620fffff84115b80610aec575082155b80610af95750620fffff83115b15610b02575f5ffd5b8415610be5575f610b337f000000000000000000000000000000000000000000000000000000000000000087611d93565b9050610b3e816121fc565b507fffffffffffffffff00000000000000000000000000000000000000000000000082165f9081526001602090815260408083207ffffffffffffffffffffffffffffffffffffffffffffc00007fffffffffffffff8516603f8a901b17624000001790556002909152902080547ffffffffffffffffffc000000000000000001ffffffffffffffffffffffffffff16607186901b17608585901b174260991b179055610c6c565b7fffffffffffffffff00000000000000000000000000000000000000000000000082165f90815260016020908152604080832080547ffffffffffffffffffffffffffffffffffffffffffffc00007fffffffffffffff1690556002909152902080547ffffffffffffffffffc000000000000000001ffffffffffffffffffffffffffff1690555b7f20e36ad6a8bd92e4099726493cd199acd97a118144d24b4f32130b755f96583886868686604051610ca19493929190612b93565b60405180910390a1505050505050565b73ffffffffffffffffffffffffffffffffffffffff7f0000000000000000000000000000000000000000000000000000000000000000163003610cf2575f5ffd5b5f84604051602001610d049190612a9f565b604080517fffffffffffffffffffffffffffffffffffffffffffffffffffffffffffffffe081840301815291815281516020928301207fffffffffffffffff00000000000000000000000000000000000000000000000081165f90815260019093529082205490925090819003610d79575f5ffd5b610d90610d896020880188612654565b8685612221565b610daa610da36040880160208901612654565b8585612221565b5f5f610dbc601f607e85901c16612284565b915091505f5f610dd2601f608387901c16612284565b90925090505f83610de3868c612b4a565b610ded9190612b12565b610e0590608888901c670fffffffffffffff16612b80565b90505f82610e13858c612b4a565b610e1d9190612b12565b610e2b9060c489901c612b80565b7fffffffffffffffff00000000000000000000000000000000000000000000000089165f908152600160205260409081902070ffffffffffffffffffffffffffffffffff8a16608886901b1760c484901b179055519091507fac3f5d8180a6e6b14ec66bccf0984880cc08ec22c38ac0f40b5b426019bf11c990610eb4908e908e908e90612b61565b60405180910390a1505050505050505050505050565b73ffffffffffffffffffffffffffffffffffffffff7f0000000000000000000000000000000000000000000000000000000000000000163003610f0b575f5ffd5b5f84604051602001610f1d9190612a9f565b604080517fffffffffffffffffffffffffffffffffffffffffffffffffffffffffffffffe081840301815291815281516020928301207fffffffffffffffff00000000000000000000000000000000000000000000000081165f90815260019093529082205490925090819003610f92575f5ffd5b610f9e61271086612b12565b9450610fac61271085612b12565b93506064851180610fbd5750606484115b80610fd0575084158015610fd057505f84115b80610fe357505f85118015610fe3575083155b80610ff05750620fffff83115b8061100257506001606f82901c166001145b1561100b575f5ffd5b607784901b607086901b606f5f8611611024575f611027565b60015b7fffffffffffffffff00000000000000000000000000000000000000000000000086165f908152600160205260409020911b7fffffffffffffffffffffffffffffffffc000ffffffffffffffffffffffffffff85161791909117919091179055607f607082901c811690607783901c1684156110e2577fffffffffffffffff00000000000000000000000000000000000000000000000084165f908152600460205260409020600782901b8317600e87901b174260221b1790555b7f9a82ab90950777597b4fbeda75d4e4d689dc7471853a11602f1c263d2520d462886111106127108a612b4a565b61111c6127108a612b4a565b886040516109ed9493929190612b93565b73ffffffffffffffffffffffffffffffffffffffff7f000000000000000000000000000000000000000000000000000000000000000016300361116e575f5ffd5b80515173ffffffffffffffffffffffffffffffffffffffff1615806111ac575080516020015173ffffffffffffffffffffffffffffffffffffffff16155b806111d8575080516020810151905173ffffffffffffffffffffffffffffffffffffffff918216911610155b156111e1575f5ffd5b6112356040518060e001604052805f77ffffffffffffffffffffffffffffffffffffffffffffffff191681526020015f81526020015f81526020015f81526020015f81526020015f81526020015f81525090565b81516040516112479190602001612bbc565b604080517fffffffffffffffffffffffffffffffffffffffffffffffffffffffffffffffe081840301815291815281516020928301207fffffffffffffffff000000000000000000000000000000000000000000000000168084525f9081526001909252902054156112b7575f5ffd5b81515173ffffffffffffffffffffffffffffffffffffffff1673eeeeeeeeeeeeeeeeeeeeeeeeeeeeeeeeeeeeeeee1461136557815f01515f015173ffffffffffffffffffffffffffffffffffffffff1663313ce5676040518163ffffffff1660e01b8152600401602060405180830381865afa158015611339573d5f5f3e3d5ffd5b505050506040513d601f19601f8201168201806040525081019061135d9190612c0d565b60ff16611368565b60125b6020808301919091528251015173ffffffffffffffffffffffffffffffffffffffff1673eeeeeeeeeeeeeeeeeeeeeeeeeeeeeeeeeeeeeeee1461142157815f01516020015173ffffffffffffffffffffffffffffffffffffffff1663313ce5676040518163ffffffff1660e01b8152600401602060405180830381865afa1580156113f5573d5f5f3e3d5ffd5b505050506040513d601f19601f820116820180604052508101906114199190612c0d565b60ff16611424565b60125b6040808301919091528201511580159061144357506127108260400151105b1561144c575f5ffd5b612710826040015161145e9190612b12565b604083015260c082015161147490600a90612b12565b60c083015260e082015161148a90600a90612b12565b60e08301526101008201516114a29061271090612b12565b6101008301526101208201516114bb9061271090612b12565b6101208301526020820151611fff10806114d9575060648260400151115b806114ed5750816101600151826080015111155b806115015750816101800151826080015110155b8061151257506207ffff8260a00151115b8061152e57506115276103e8620186a0612b80565b8260c00151115b8061154a57506115436103e8620186a0612b80565b8260e00151115b80611557575060c0820151155b80611564575060e0820151155b8061157457506064826101000151115b8061158457506064826101200151115b806115a157506101008201511580156115a157505f826101200151115b806115be57505f8261010001511180156115be5750610120820151155b806115cc5750610140820151155b806115de575062ffffff826101400151115b806115ec5750610160820151155b806115fb575060208101516006115b8061160a575060208101516012105b80611619575060408101516006115b80611628575060408101516012105b15611631575f5ffd5b8151516101a083015161164491906122d0565b61165a825f015160200151836101c001516122d0565b6116678160200151612284565b60808301526060820152604081015161167f90612284565b60c0830181905260a083018290526101c084015160c49261169f91612b4a565b6116a99190612b12565b901b608882608001518360600151856101a001516116c79190612b4a565b6116d19190612b12565b901b60838360400151901b607e8460200151901b6077866101200151901b6070876101000151901b60618860e00151901b60538960c00151901b603f8a60a00151901b60176117288c60800151602060085f61234f565b901b60148c6060015161173b575f61173e565b60015b901b600d8d60400151901b5f8e60200151901b17171717171717171717171760015f835f015177ffffffffffffffffffffffffffffffffffffffffffffffff191677ffffffffffffffffffffffffffffffffffffffffffffffff191681526020019081526020015f208190555060556117c0836101600151601460085f61234f565b901b60396117d884610180015160146008600161234f565b901b6021846101400151901b5f42901b17171760025f835f015177ffffffffffffffffffffffffffffffffffffffffffffffff191677ffffffffffffffffffffffffffffffffffffffffffffffff191681526020019081526020015f20819055507f083abadc594d8d389117d33215bf13ad0c1c7d453617f99653d1842f92a971f9826040516118689190612c2d565b60405180910390a15050565b73ffffffffffffffffffffffffffffffffffffffff7f00000000000000000000000000000000000000000000000000000000000000001630036118b5575f5ffd5b5f5b84811015611910576119088686838181106118d4576118d4612d13565b90506020020160208101906118e99190612654565b8585848181106118fb576118fb612d13565b9050602002013584612221565b6001016118b7565b507f1d5b4b04795ebb3901db9b61da375220c34f0661b7f6068a43831ce89d14df10858585858560405161078c959493929190612d40565b73ffffffffffffffffffffffffffffffffffffffff7f0000000000000000000000000000000000000000000000000000000000000000163003611989575f5ffd5b5f8360405160200161199b9190612a9f565b604080517fffffffffffffffffffffffffffffffffffffffffffffffffffffffffffffffe081840301815291815281516020928301207fffffffffffffffff00000000000000000000000000000000000000000000000081165f90815260019093529082205490925090819003611a10575f5ffd5b611a26611a206020870187612654565b856122d0565b611a3f611a396040870160208801612654565b846122d0565b5f5f611a51601f607e85901c16612284565b915091505f5f611a67601f608387901c16612284565b90925090505f83611a78868b612b4a565b611a829190612b12565b611a9a90608888901c670fffffffffffffff16612e04565b90505f82611aa8858b612b4a565b611ab29190612b12565b611ac09060c489901c612e04565b7fffffffffffffffff00000000000000000000000000000000000000000000000089165f908152600160205260409081902070ffffffffffffffffffffffffffffffffff8a16608886901b1760c484901b179055519091507fe1a74ddf3da2989e73b9cc7d5e6689947964216c6b1b903ebc555180eceee95890611b49908d908d908d90612b61565b60405180910390a15050505050505050505050565b80611b69575f611b6c565b60015b73ffffffffffffffffffffffffffffffffffffffff83165f818152602081815260409182902060ff949094169093558051918252831515928201929092527fb873643b3104ddd26927dec7f9a08aa22d03ac20ada0295a2de7e1a6c60f2a519101611868565b73ffffffffffffffffffffffffffffffffffffffff7f0000000000000000000000000000000000000000000000000000000000000000163003611c13575f5ffd5b5f83604051602001611c259190612a9f565b604080517fffffffffffffffffffffffffffffffffffffffffffffffffffffffffffffffe081840301815291815281516020928301207fffffffffffffffff00000000000000000000000000000000000000000000000081165f90815260019093529082205490925090819003611c9a575f5ffd5b63ffffffff601f82901c1660ff601783901c161b8385111580611cbd5750838111155b80611cc85750848110155b80611cd1575083155b15611cda575f5ffd5b6055611cea85601460085f61234f565b901b6039611cfd8760146008600161234f565b7fffffffffffffffff00000000000000000000000000000000000000000000000086165f908152600260205260409081902080547ffffffffffffffffffffffffffffffffffffe00000000000001ffffffffffffff169290931b91909117929092179055517f8b187f9eca4bc1a8d4ad5ecd867ebf561f9b32e1a872169700dac1a79d12dad590610ca190889088908890612b61565b5f6060825f03611da6575f9150506121f6565b607f8311611e6f576040517fd60000000000000000000000000000000000000000000000000000000000000060208201527f940000000000000000000000000000000000000000000000000000000000000060218201527fffffffffffffffffffffffffffffffffffffffff000000000000000000000000606086901b16602282015260f884901b7fff000000000000000000000000000000000000000000000000000000000000001660368201526037015b60405160208183030381529060405290506121eb565b60ff8311611f4c576040517fd70000000000000000000000000000000000000000000000000000000000000060208201527f940000000000000000000000000000000000000000000000000000000000000060218201527fffffffffffffffffffffffffffffffffffffffff000000000000000000000000606086901b1660228201527f8100000000000000000000000000000000000000000000000000000000000000603682015260f884901b7fff00000000000000000000000000000000000000000000000000000000000000166037820152603801611e59565b61ffff831161202a576040517fd80000000000000000000000000000000000000000000000000000000000000060208201527f940000000000000000000000000000000000000000000000000000000000000060218201527fffffffffffffffffffffffffffffffffffffffff000000000000000000000000606086901b1660228201527f820000000000000000000000000000000000000000000000000000000000000060368201527fffff00000000000000000000000000000000000000000000000000000000000060f085901b166037820152603901611e59565b62ffffff8311612109576040517fd90000000000000000000000000000000000000000000000000000000000000060208201527f940000000000000000000000000000000000000000000000000000000000000060218201527fffffffffffffffffffffffffffffffffffffffff000000000000000000000000606086901b1660228201527f830000000000000000000000000000000000000000000000000000000000000060368201527fffffff000000000000000000000000000000000000000000000000000000000060e885901b166037820152603a01611e59565b6040517fda0000000000000000000000000000000000000000000000000000000000000060208201527f940000000000000000000000000000000000000000000000000000000000000060218201527fffffffffffffffffffffffffffffffffffffffff000000000000000000000000606086901b1660228201527f840000000000000000000000000000000000000000000000000000000000000060368201527fffffffff0000000000000000000000000000000000000000000000000000000060e085901b166037820152603b0160405160208183030381529060405290505b805160209091012090505b92915050565b8073ffffffffffffffffffffffffffffffffffffffff163b5f0361221e575f5ffd5b50565b815f0361222d57505050565b7fffffffffffffffffffffffff111111111111111111111111111111111111111273ffffffffffffffffffffffffffffffffffffffff841601612279576122748183612475565b505050565b6122748382846124c3565b5f5f60098311156122b0576001915061229e600984612b80565b6122a990600a612f38565b9050915091565b6122bb836009612b80565b6122c690600a612f38565b9360019350915050565b805f036122db575050565b7fffffffffffffffffffffffff111111111111111111111111111111111111111273ffffffffffffffffffffffffffffffffffffffff8316016123435780341015612324575f5ffd5b8034111561233f5761233f3361233a8334612b80565b612475565b5050565b61233f82333084612569565b5f5f856fffffffffffffffffffffffffffffffff8111156123715760809150811c5b67ffffffffffffffff811115612389576040918201911c5b63ffffffff81111561239d576020918201911c5b61ffff8111156123af576010918201911c5b60ff8111156123c0576008918201911c5b600f8111156123d1576004918201911c5b60038111156123e2576002918201911c5b60018111156123f2576001820191505b80156123ff576001820191505b508481101561240b5750835b848103905085811c5f821184161561245957600181019050806001871b0361245957506001908101907fffffffffffffffffffffffffffffffffffffffffffffffffffffffffffffffff86011b5b6001851b8210612467575f5ffd5b90931b909201949350505050565b5f5f5f5f5f8587614e20f1905080612274576040517fdee51a8a0000000000000000000000000000000000000000000000000000000081526201155a60048201526024015b60405180910390fd5b5f6040517fa9059cbb00000000000000000000000000000000000000000000000000000000815273ffffffffffffffffffffffffffffffffffffffff8416600482015282602482015260205f6044835f895af13d15601f3d1160015f511416171691505080612563576040517fdee51a8a0000000000000000000000000000000000000000000000000000000081526201155a60048201526024016124ba565b50505050565b5f6040517f23b872dd00000000000000000000000000000000000000000000000000000000815273ffffffffffffffffffffffffffffffffffffffff8516600482015273ffffffffffffffffffffffffffffffffffffffff8416602482015282604482015260205f6064835f8a5af13d15601f3d1160015f511416171691505080612625576040517fdee51a8a0000000000000000000000000000000000000000000000000000000081526201155960048201526024016124ba565b5050505050565b803573ffffffffffffffffffffffffffffffffffffffff8116811461264f575f5ffd5b919050565b5f60208284031215612664575f5ffd5b61266d8261262c565b9392505050565b5f60608284031215612684575f5ffd5b50919050565b8035801515811461264f575f5ffd5b5f5f608083850312156126aa575f5ffd5b6126b48484612674565b91506126c26060840161268a565b90509250929050565b5f5f608083850312156126dc575f5ffd5b6126e68484612674565b946060939093013593505050565b5f5f5f60a08486031215612706575f5ffd5b6127108585612674565b95606085013595506080909401359392505050565b5f5f5f5f60c08587031215612738575f5ffd5b6127428686612674565b966060860135965060808601359560a00135945092505050565b5f5f5f5f60c0858703121561276f575f5ffd5b6127798686612674565b9350606085013592506080850135915061279560a0860161262c565b905092959194509250565b6040516101e0810167ffffffffffffffff811182821017156127e9577f4e487b71000000000000000000000000000000000000000000000000000000005f52604160045260245ffd5b60405290565b5f606082840312156127ff575f5ffd5b6040516060810167ffffffffffffffff81118282101715612847577f4e487b71000000000000000000000000000000000000000000000000000000005f52604160045260245ffd5b6040529050806128568361262c565b81526128646020840161262c565b6020820152604092830135920191909152919050565b5f61022082840312801561288c575f5ffd5b506128956127a0565b61289f84846127ef565b815260608301356020820152608083013560408201526128c160a0840161268a565b606082015260c083810135608083015260e08085013560a0840152610100808601359284019290925261012080860135918401919091526101408086013592840192909252610160808601359184019190915261018080860135928401929092526101a080860135918401919091526101c080860135928401929092526101e085013590830152610200909301359281019290925250919050565b5f5f83601f84011261296c575f5ffd5b50813567ffffffffffffffff811115612983575f5ffd5b6020830191508360208260051b850101111561299d575f5ffd5b9250929050565b5f5f5f5f5f606086880312156129b8575f5ffd5b853567ffffffffffffffff8111156129ce575f5ffd5b6129da8882890161295c565b909650945050602086013567ffffffffffffffff8111156129f9575f5ffd5b612a058882890161295c565b9094509250612a1890506040870161262c565b90509295509295909350565b5f5f60408385031215612a35575f5ffd5b612a3e8361262c565b91506126c26020840161268a565b73ffffffffffffffffffffffffffffffffffffffff612a6a8261262c565b16825273ffffffffffffffffffffffffffffffffffffffff612a8e6020830161262c565b166020830152604090810135910152565b606081016121f68284612a4c565b60808101612abb8285612a4c565b82151560608301529392505050565b60808101612ad88285612a4c565b8260608301529392505050565b7f4e487b71000000000000000000000000000000000000000000000000000000005f52601160045260245ffd5b5f82612b45577f4e487b71000000000000000000000000000000000000000000000000000000005f52601260045260245ffd5b500490565b80820281158282048414176121f6576121f6612ae5565b60a08101612b6f8286612a4c565b606082019390935260800152919050565b818103818111156121f6576121f6612ae5565b60c08101612ba18287612a4c565b8460608301528360808301528260a083015295945050505050565b606081016121f6828473ffffffffffffffffffffffffffffffffffffffff815116825273ffffffffffffffffffffffffffffffffffffffff6020820151166020830152604081015160408301525050565b5f60208284031215612c1d575f5ffd5b815160ff8116811461266d575f5ffd5b8151805173ffffffffffffffffffffffffffffffffffffffff90811683526020808301519091169083015260409081015190820152610220810160208301516060830152604083015160808301526060830151612c8e60a084018215159052565b50608083015160c083015260a083015160e083015260c083015161010083015260e08301516101208301526101008301516101408301526101208301516101608301526101408301516101808301526101608301516101a08301526101808301516101c08301526101a08301516101e08301526101c083015161020083015292915050565b7f4e487b71000000000000000000000000000000000000000000000000000000005f52603260045260245ffd5b606080825281018590525f8660808301825b88811015612d8d5773ffffffffffffffffffffffffffffffffffffffff612d788461262c565b16825260209283019290910190600101612d52565b5083810360208501528581527f07ffffffffffffffffffffffffffffffffffffffffffffffffffffffffffffff861115612dc5575f5ffd5b8560051b915081876020830137016020019050612dfa604083018473ffffffffffffffffffffffffffffffffffffffff169052565b9695505050505050565b808201808211156121f6576121f6612ae5565b6001815b6001841115612e5257808504811115612e3657612e36612ae5565b6001841615612e4457908102905b60019390931c928002612e1b565b935093915050565b5f82612e68575060016121f6565b81612e7457505f6121f6565b8160018114612e8a5760028114612e9457612eb0565b60019150506121f6565b60ff841115612ea557612ea5612ae5565b50506001821b6121f6565b5060208310610133831016604e8410600b8410161715612ed3575081810a6121f6565b612efe7fffffffffffffffffffffffffffffffffffffffffffffffffffffffffffffffff8484612e17565b807fffffffffffffffffffffffffffffffffffffffffffffffffffffffffffffffff04821115612f3057612f30612ae5565b029392505050565b5f61266d8383612e5a56fea264697066735822122008342af69c5346006c6d6e85a231ff2ec74e32a214ea892307ac244ff760efdc64736f6c634300081d0033",
  "devdoc": {
    "kind": "dev",
    "methods": {
      "collectRevenue(address[],uint256[],address)": {
        "details": "collect revenue from the dex",
        "params": {
          "amounts_": "the amounts of tokens to collect revenue from",
          "to_": "the address to send the tokens to",
          "tokens_": "the tokens to collect revenue from"
        }
      },
      "deposit((address,address,bytes32),uint256,uint256)": {
        "details": "deposit tokens into the dex",
        "params": {
          "dexKey_": "the dex key",
          "token0Amount_": "the token0 amount",
          "token1Amount_": "the token1 amount"
        }
      },
      "initialize(((address,address,bytes32),uint256,uint256,bool,uint256,uint256,uint256,uint256,uint256,uint256,uint256,uint256,uint256,uint256,uint256))": {
        "details": "initialize the dex",
        "params": {
          "i_": "the initialize params"
        }
      },
      "updateAuth(address,bool)": {
        "details": "update the auth for the dex",
        "params": {
          "auth_": "the address to update auth for",
          "isAuth_": "the auth status"
        }
      },
      "updateCenterPriceAddress((address,address,bytes32),uint256,uint256,uint256)": {
        "details": "update the center price address (nonce) for the dex",
        "params": {
          "centerPriceAddress_": "nonce < X19, this nonce will be used to calculate contract address",
          "dexKey_": "the dex key",
          "percent_": "in 4 decimals, 10000 = 1%",
          "time_": "in secs, in how much time the center price should be fully shifted."
        }
      },
      "updateCenterPriceLimits((address,address,bytes32),uint256,uint256)": {
        "details": "update the center price limits for the dex",
        "params": {
          "dexKey_": "the dex key",
          "maxCenterPrice_": "1:1 means 1e27 ",
          "minCenterPrice_": "1:1 means 1e27"
        }
      },
      "updateExtraDataAddress(address)": {
        "details": "update the extra data address in storage slot",
        "params": {
          "extraDataAddress_": "the address to set in the extra data slot"
        }
      },
      "updateFeeAndRevenueCut((address,address,bytes32),uint256,uint256)": {
        "details": "update the fee and revenue cut for the dex",
        "params": {
          "dexKey_": "the dex key",
          "fee_": "in 4 decimals, 10000 = 1%",
          "revenueCut_": "in 4 decimals, 10000 = 1%"
        }
      },
      "updateRangePercents((address,address,bytes32),uint256,uint256,uint256)": {
        "details": "update the range percents for the dex",
        "params": {
          "dexKey_": "the dex key",
          "lowerPercent_": "in 4 decimals, 10000 = 1%",
          "shiftTime_": "in secs, in how much time the upper percent configs change should be fully done",
          "upperPercent_": "in 4 decimals, 10000 = 1%"
        }
      },
      "updateRebalancingStatus((address,address,bytes32),bool)": {
        "details": "update the rebalancing status for the dex",
        "params": {
          "dexKey_": "the dex key",
          "rebalancingStatus_": "the rebalancing status (true = on, false = off)"
        }
      },
      "updateShiftTime((address,address,bytes32),uint256)": {
        "details": "update the shift time for the dex for rebalancing",
        "params": {
          "dexKey_": "the dex key",
          "shiftTime_": "in secs, in how much time rebalancing should be fully done."
        }
      },
      "updateThresholdPercent((address,address,bytes32),uint256,uint256,uint256)": {
        "details": "update the threshold percent for the dex",
        "params": {
          "dexKey_": "the dex key",
          "lowerThresholdPercent_": "in 4 decimals, 10000 = 1%",
          "shiftTime_": "in secs, in how much time the upper config changes should be fully done.",
          "upperThresholdPercent_": "in 4 decimals, 10000 = 1%"
        }
      },
      "withdraw((address,address,bytes32),uint256,uint256,address)": {
        "details": "withdraw tokens from the dex",
        "params": {
          "dexKey_": "the dex key",
          "to_": "the address to send the tokens to",
          "token0Amount_": "the token0 amount",
          "token1Amount_": "the token1 amount"
        }
      }
    },
    "version": 1
  },
  "userdoc": {
    "kind": "user",
    "methods": {},
    "version": 1
  },
  "storageLayout": {
    "storage": [
      {
        "astId": 6859,
        "contract": "contracts/protocols/dexLite/adminModule/main.sol:FluidDexLiteAdminModule",
        "label": "_isAuth",
        "offset": 0,
        "slot": "0",
        "type": "t_mapping(t_address,t_uint256)"
      },
      {
        "astId": 6864,
        "contract": "contracts/protocols/dexLite/adminModule/main.sol:FluidDexLiteAdminModule",
        "label": "_dexVariables",
        "offset": 0,
        "slot": "1",
        "type": "t_mapping(t_bytes8,t_uint256)"
      },
      {
        "astId": 6869,
        "contract": "contracts/protocols/dexLite/adminModule/main.sol:FluidDexLiteAdminModule",
        "label": "_centerPriceShift",
        "offset": 0,
        "slot": "2",
        "type": "t_mapping(t_bytes8,t_uint256)"
      },
      {
        "astId": 6874,
        "contract": "contracts/protocols/dexLite/adminModule/main.sol:FluidDexLiteAdminModule",
        "label": "_rangeShift",
        "offset": 0,
        "slot": "3",
        "type": "t_mapping(t_bytes8,t_uint256)"
      },
      {
        "astId": 6879,
        "contract": "contracts/protocols/dexLite/adminModule/main.sol:FluidDexLiteAdminModule",
        "label": "_thresholdShift",
        "offset": 0,
        "slot": "4",
        "type": "t_mapping(t_bytes8,t_uint256)"
      }
    ],
    "types": {
      "t_address": {
        "encoding": "inplace",
        "label": "address",
        "numberOfBytes": "20"
      },
      "t_bytes8": {
        "encoding": "inplace",
        "label": "bytes8",
        "numberOfBytes": "8"
      },
      "t_mapping(t_address,t_uint256)": {
        "encoding": "mapping",
        "key": "t_address",
        "label": "mapping(address => uint256)",
        "numberOfBytes": "32",
        "value": "t_uint256"
      },
      "t_mapping(t_bytes8,t_uint256)": {
        "encoding": "mapping",
        "key": "t_bytes8",
        "label": "mapping(bytes8 => uint256)",
        "numberOfBytes": "32",
        "value": "t_uint256"
      },
      "t_uint256": {
        "encoding": "inplace",
        "label": "uint256",
        "numberOfBytes": "32"
      }
    }
  }
}