{
  "address": "0x54B91A0D94cb471F37f949c60F7Fa7935b551D03",
  "abi": [
    {
      "inputs": [
        {
          "internalType": "contract IFluidLiquidity",
          "name": "liquidity_",
          "type": "address"
        },
        {
          "internalType": "address",
          "name": "owner_",
          "type": "address"
        }
      ],
      "stateMutability": "nonpayable",
      "type": "constructor"
    },
    {
      "inputs": [
        {
          "internalType": "uint256",
          "name": "errorId_",
          "type": "uint256"
        }
      ],
      "name": "FluidLendingError",
      "type": "error"
    },
    {
      "anonymous": false,
      "inputs": [
        {
          "indexed": true,
          "internalType": "address",
          "name": "auth",
          "type": "address"
        },
        {
          "indexed": true,
          "internalType": "bool",
          "name": "allowed",
          "type": "bool"
        }
      ],
      "name": "LogSetAuth",
      "type": "event"
    },
    {
      "anonymous": false,
      "inputs": [
        {
          "indexed": true,
          "internalType": "address",
          "name": "deployer",
          "type": "address"
        },
        {
          "indexed": true,
          "internalType": "bool",
          "name": "allowed",
          "type": "bool"
        }
      ],
      "name": "LogSetDeployer",
      "type": "event"
    },
    {
      "anonymous": false,
      "inputs": [
        {
          "indexed": true,
          "internalType": "string",
          "name": "fTokenType",
          "type": "string"
        },
        {
          "indexed": true,
          "internalType": "address",
          "name": "creationCodePointer",
          "type": "address"
        }
      ],
      "name": "LogSetFTokenCreationCode",
      "type": "event"
    },
    {
      "anonymous": false,
      "inputs": [
        {
          "indexed": true,
          "internalType": "address",
          "name": "token",
          "type": "address"
        },
        {
          "indexed": true,
          "internalType": "address",
          "name": "asset",
          "type": "address"
        },
        {
          "indexed": true,
          "internalType": "uint256",
          "name": "count",
          "type": "uint256"
        },
        {
          "indexed": false,
          "internalType": "string",
          "name": "fTokenType",
          "type": "string"
        }
      ],
      "name": "LogTokenCreated",
      "type": "event"
    },
    {
      "anonymous": false,
      "inputs": [
        {
          "indexed": true,
          "internalType": "address",
          "name": "user",
          "type": "address"
        },
        {
          "indexed": true,
          "internalType": "address",
          "name": "newOwner",
          "type": "address"
        }
      ],
      "name": "OwnershipTransferred",
      "type": "event"
    },
    {
      "inputs": [],
      "name": "LIQUIDITY",
      "outputs": [
        {
          "internalType": "contract IFluidLiquidity",
          "name": "",
          "type": "address"
        }
      ],
      "stateMutability": "view",
      "type": "function"
    },
    {
      "inputs": [],
      "name": "allTokens",
      "outputs": [
        {
          "internalType": "address[]",
          "name": "",
          "type": "address[]"
        }
      ],
      "stateMutability": "view",
      "type": "function"
    },
    {
      "inputs": [
        {
          "internalType": "address",
          "name": "asset_",
          "type": "address"
        },
        {
          "internalType": "string",
          "name": "fTokenType_",
          "type": "string"
        }
      ],
      "name": "computeToken",
      "outputs": [
        {
          "internalType": "address",
          "name": "token_",
          "type": "address"
        }
      ],
      "stateMutability": "view",
      "type": "function"
    },
    {
      "inputs": [
        {
          "internalType": "address",
          "name": "asset_",
          "type": "address"
        },
        {
          "internalType": "string",
          "name": "fTokenType_",
          "type": "string"
        },
        {
          "internalType": "bool",
          "name": "isNativeUnderlying_",
          "type": "bool"
        }
      ],
      "name": "createToken",
      "outputs": [
        {
          "internalType": "address",
          "name": "token_",
          "type": "address"
        }
      ],
      "stateMutability": "nonpayable",
      "type": "function"
    },
    {
      "inputs": [
        {
          "internalType": "string",
          "name": "fTokenType_",
          "type": "string"
        }
      ],
      "name": "fTokenCreationCode",
      "outputs": [
        {
          "internalType": "bytes",
          "name": "",
          "type": "bytes"
        }
      ],
      "stateMutability": "view",
      "type": "function"
    },
    {
      "inputs": [],
      "name": "fTokenTypes",
      "outputs": [
        {
          "internalType": "string[]",
          "name": "",
          "type": "string[]"
        }
      ],
      "stateMutability": "view",
      "type": "function"
    },
    {
      "inputs": [
        {
          "internalType": "address",
          "name": "auth_",
          "type": "address"
        }
      ],
      "name": "isAuth",
      "outputs": [
        {
          "internalType": "bool",
          "name": "",
          "type": "bool"
        }
      ],
      "stateMutability": "view",
      "type": "function"
    },
    {
      "inputs": [
        {
          "internalType": "address",
          "name": "deployer_",
          "type": "address"
        }
      ],
      "name": "isDeployer",
      "outputs": [
        {
          "internalType": "bool",
          "name": "",
          "type": "bool"
        }
      ],
      "stateMutability": "view",
      "type": "function"
    },
    {
      "inputs": [],
      "name": "owner",
      "outputs": [
        {
          "internalType": "address",
          "name": "",
          "type": "address"
        }
      ],
      "stateMutability": "view",
      "type": "function"
    },
    {
      "inputs": [
        {
          "internalType": "address",
          "name": "auth_",
          "type": "address"
        },
        {
          "internalType": "bool",
          "name": "allowed_",
          "type": "bool"
        }
      ],
      "name": "setAuth",
      "outputs": [],
      "stateMutability": "nonpayable",
      "type": "function"
    },
    {
      "inputs": [
        {
          "internalType": "address",
          "name": "deployer_",
          "type": "address"
        },
        {
          "internalType": "bool",
          "name": "allowed_",
          "type": "bool"
        }
      ],
      "name": "setDeployer",
      "outputs": [],
      "stateMutability": "nonpayable",
      "type": "function"
    },
    {
      "inputs": [
        {
          "internalType": "string",
          "name": "fTokenType_",
          "type": "string"
        },
        {
          "internalType": "bytes",
          "name": "creationCode_",
          "type": "bytes"
        }
      ],
      "name": "setFTokenCreationCode",
      "outputs": [],
      "stateMutability": "nonpayable",
      "type": "function"
    },
    {
      "inputs": [
        {
          "internalType": "address",
          "name": "newOwner",
          "type": "address"
        }
      ],
      "name": "transferOwnership",
      "outputs": [],
      "stateMutability": "nonpayable",
      "type": "function"
    }
  ],
  "transactionHash": "0x1e8de8090fc65fc3e491c6069151b7be23dddf7e211ff9bacc8c1cfcf33082dd",
  "args": [
    "0x52Aa899454998Be5b000Ad077a46Bbe360F4e497",
    "0x4F6F977aCDD1177DCD81aB83074855EcB9C2D49e"
  ],
  "numDeployments": 1,
  "solcInputHash": "1f22fdbe9105b3785c386ffdea0d074f",
  "bytecode": "0x60a06040523480156200001157600080fd5b50604051620022173803806200221783398101604081905262000034916200013d565b600080546001600160a01b0319166001600160a01b03831690811782556040518492849283929091907f8be0079c531659141344cd1fd0a4f28419497f9722a3daafe3b4186f6b6457e0908290a3506001600160a01b038116620000b45760405163694bda1d60e01b81526155f260048201526024015b60405180910390fd5b506001600160a01b0390811660805282908116620000ea5760405163694bda1d60e01b81526155f26004820152602401620000ab565b6000546001600160a01b0316806200011a5760405163694bda1d60e01b81526155f26004820152602401620000ab565b505050506200017c565b6001600160a01b03811681146200013a57600080fd5b50565b600080604083850312156200015157600080fd5b82516200015e8162000124565b6020840151909250620001718162000124565b809150509250929050565b608051612071620001a660003960008181610126015281816109f50152610ada01526120716000f3fe608060405234801561001057600080fd5b50600436106100df5760003560e01c8063a34b5ee81161008c578063dd179e3b11610066578063dd179e3b146101fb578063e78e049a14610210578063f2fde38b14610223578063f60150791461023657600080fd5b8063a34b5ee8146101b5578063bb4a64d3146101c8578063c949aea6146101db57600080fd5b806350c358a4116100bd57806350c358a41461016d5780636ff97f1d146101805780638da5cb5b1461019557600080fd5b80630b44a218146100e45780632520e7ff146100f95780632861c7d114610121575b600080fd5b6100f76100f2366004611655565b610249565b005b61010c610107366004611688565b61038d565b60405190151581526020015b60405180910390f35b6101487f000000000000000000000000000000000000000000000000000000000000000081565b60405173ffffffffffffffffffffffffffffffffffffffff9091168152602001610118565b61010c61017b366004611688565b6103e3565b610188610434565b60405161011891906116a3565b6000546101489073ffffffffffffffffffffffffffffffffffffffff1681565b6100f76101c3366004611655565b6104a3565b6101486101d6366004611746565b6105e2565b6101ee6101e9366004611873565b6105ff565b6040516101189190611916565b61020361069f565b6040516101189190611929565b61014861021e3660046119a9565b610778565b6100f7610231366004611688565b610c29565b6100f7610244366004611a0e565b610d1a565b60005473ffffffffffffffffffffffffffffffffffffffff1633146102cf576040517f08c379a000000000000000000000000000000000000000000000000000000000815260206004820152600c60248201527f554e415554484f52495a4544000000000000000000000000000000000000000060448201526064015b60405180910390fd5b8173ffffffffffffffffffffffffffffffffffffffff8116610321576040517f694bda1d0000000000000000000000000000000000000000000000000000000081526155f260048201526024016102c6565b8161032d576000610330565b60015b73ffffffffffffffffffffffffffffffffffffffff841660008181526001602052604080822060ff949094169093559151841515927f014b54fa6d2080e9aacd1c598c7689a625610d7d684dd41d10407e48aa8b120091a3505050565b6000805473ffffffffffffffffffffffffffffffffffffffff838116911614806103dd575073ffffffffffffffffffffffffffffffffffffffff8216600090815260016020819052604090912054145b92915050565b6000805473ffffffffffffffffffffffffffffffffffffffff838116911614806103dd57505073ffffffffffffffffffffffffffffffffffffffff1660009081526002602052604090205460011490565b6060600380548060200260200160405190810160405280929190818152602001828054801561049957602002820191906000526020600020905b815473ffffffffffffffffffffffffffffffffffffffff16815260019091019060200180831161046e575b5050505050905090565b60005473ffffffffffffffffffffffffffffffffffffffff163314610524576040517f08c379a000000000000000000000000000000000000000000000000000000000815260206004820152600c60248201527f554e415554484f52495a4544000000000000000000000000000000000000000060448201526064016102c6565b8173ffffffffffffffffffffffffffffffffffffffff8116610576576040517f694bda1d0000000000000000000000000000000000000000000000000000000081526155f260048201526024016102c6565b81610582576000610585565b60015b73ffffffffffffffffffffffffffffffffffffffff841660008181526002602052604080822060ff949094169093559151841515927f48cc5b4660fae22eabe5e803ee595e63572773d114bcd54ecc118c1efa8d75af91a3505050565b60006105f76105f2858585611111565b611147565b949350505050565b6060600060056000846040516020016106189190611916565b604080517fffffffffffffffffffffffffffffffffffffffffffffffffffffffffffffffe08184030181529181528151602092830120835290820192909252016000205473ffffffffffffffffffffffffffffffffffffffff169050801561068857610683816112ad565b610698565b6040805160008152602081019091525b9392505050565b60606004805480602002602001604051908101604052809291908181526020016000905b8282101561076f5783829060005260206000200180546106e290611a6a565b80601f016020809104026020016040519081016040528092919081815260200182805461070e90611a6a565b801561075b5780601f106107305761010080835404028352916020019161075b565b820191906000526020600020905b81548152906001019060200180831161073e57829003601f168201915b5050505050815260200190600101906106c3565b50505050905090565b60008473ffffffffffffffffffffffffffffffffffffffff81166107cc576040517f694bda1d0000000000000000000000000000000000000000000000000000000081526155f260048201526024016102c6565b6107d5336103e3565b61080f576040517f694bda1d0000000000000000000000000000000000000000000000000000000081526155f560048201526024016102c6565b6000600560008787604051602001610828929190611b06565b604080517fffffffffffffffffffffffffffffffffffffffffffffffffffffffffffffffe08184030181529181528151602092830120835290820192909252016000205473ffffffffffffffffffffffffffffffffffffffff169050806108bf576040517f694bda1d0000000000000000000000000000000000000000000000000000000081526155f160048201526024016102c6565b60006108cc888888611111565b90506108f66108da82611147565b73ffffffffffffffffffffffffffffffffffffffff163b151590565b15610931576040517f694bda1d0000000000000000000000000000000000000000000000000000000081526155f360048201526024016102c6565b60006109c3600587610981576040805173ffffffffffffffffffffffffffffffffffffffff8d16602080830191909152818301939093528151808203830181526060909101909152805191012090565b6040805173eeeeeeeeeeeeeeeeeeeeeeeeeeeeeeeeeeeeeeee602080830191909152818301939093528151808203830181526060909101909152805191012090565b6040517fb5c736e4000000000000000000000000000000000000000000000000000000008152600481018290529091507f000000000000000000000000000000000000000000000000000000000000000073ffffffffffffffffffffffffffffffffffffffff169063b5c736e490602401602060405180830381865afa158015610a51573d6000803e3d6000fd5b505050506040513d601f19601f82011682018060405250810190610a759190611b1a565b600003610ab2576040517f694bda1d0000000000000000000000000000000000000000000000000000000081526155f460048201526024016102c6565b610b6582610abf856112ad565b6040805173ffffffffffffffffffffffffffffffffffffffff7f0000000000000000000000000000000000000000000000000000000000000000811660208301523092820192909252908d166060820152608001604080517fffffffffffffffffffffffffffffffffffffffffffffffffffffffffffffffe081840301815290829052610b4f9291602001611b33565b60405160208183030381529060405260006112db565b6003805460018101825560008290527fc2575a0e9e593c00f959f8c92f12db2869c3395a3b0502d05e2516446f71f85b0180547fffffffffffffffffffffffff00000000000000000000000000000000000000001673ffffffffffffffffffffffffffffffffffffffff848116918217909255915460405193985092908c1691907f60c8487fc242a40cc8d2722cf9b3b5a14b316a50bf4ed30c9f0f1b0126728a3690610c15908d908d90611b06565b60405180910390a450505050949350505050565b60005473ffffffffffffffffffffffffffffffffffffffff163314610caa576040517f08c379a000000000000000000000000000000000000000000000000000000000815260206004820152600c60248201527f554e415554484f52495a4544000000000000000000000000000000000000000060448201526064016102c6565b600080547fffffffffffffffffffffffff00000000000000000000000000000000000000001673ffffffffffffffffffffffffffffffffffffffff83169081178255604051909133917f8be0079c531659141344cd1fd0a4f28419497f9722a3daafe3b4186f6b6457e09190a350565b610d233361038d565b610d5d576040517f694bda1d0000000000000000000000000000000000000000000000000000000081526155f560048201526024016102c6565b600454604051600090610d74908690602001611916565b60405160208183030381529060405280519060200120905083839050600003610f45576005600086604051602001610dac9190611916565b604080517fffffffffffffffffffffffffffffffffffffffffffffffffffffffffffffffe0818403018152918152815160209283012083529082019290925201600090812080547fffffffffffffffffffffffff00000000000000000000000000000000000000001690555b82811015610efe578160048281548110610e3457610e34611b62565b90600052602060002001604051602001610e4e9190611b91565b6040516020818303038152906040528051906020012003610eee576004610e76600185611c69565b81548110610e8657610e86611b62565b9060005260206000200160048281548110610ea357610ea3611b62565b906000526020600020019081610eb99190611ccb565b506004805480610ecb57610ecb611e02565b600190038181906000526020600020016000610ee791906115c6565b9055610efe565b610ef781611e31565b9050610e18565b50604051600090610f10908790611e69565b604051908190038120907f93dad940f342b3cd95007806ae0cb0c162dbbfba54d55223bc6d055c62e608e090600090a361110a565b6000610f8685858080601f0160208091040260200160405190810160405280939291908181526020018383808284376000920191909152506114ad92505050565b9050806005600088604051602001610f9e9190611916565b60405160208183030381529060405280519060200120815260200190815260200160002060006101000a81548173ffffffffffffffffffffffffffffffffffffffff021916908373ffffffffffffffffffffffffffffffffffffffff1602179055506000805b8481101561106e57836004828154811061102057611020611b62565b9060005260206000200160405160200161103a9190611b91565b604051602081830303815290604052805190602001200361105e576001915061106e565b61106781611e31565b9050611004565b50806110b257600480546001810182556000919091527f8a35acfbc15ff81a39ae7d344fd709f28e8600b4aa8c65c6b64bfe7fe36bd19b016110b08882611e85565b505b8173ffffffffffffffffffffffffffffffffffffffff16876040516110d79190611e69565b604051908190038120907f93dad940f342b3cd95007806ae0cb0c162dbbfba54d55223bc6d055c62e608e090600090a350505b5050505050565b600083838360405160200161112893929190611f97565b6040516020818303038152906040528051906020012090509392505050565b604080518082018252601081527f67363d3d37363d34f03d5260086018f30000000000000000000000000000000060209182015290517fff00000000000000000000000000000000000000000000000000000000000000918101919091527fffffffffffffffffffffffffffffffffffffffff0000000000000000000000003060601b166021820152603581018290527f21c35dbe1b344a2488cf3321d6ce542f8e9f305544ff09e4993a62319a497c1f60558201526000908190611223906075015b6040516020818303038152906040528051906020012090565b6040517fd69400000000000000000000000000000000000000000000000000000000000060208201527fffffffffffffffffffffffffffffffffffffffff000000000000000000000000606083901b1660228201527f010000000000000000000000000000000000000000000000000000000000000060368201529091506106989060370161120a565b60606103dd8260016112d68173ffffffffffffffffffffffffffffffffffffffff84163b611c69565b611585565b6000806040518060400160405280601081526020017f67363d3d37363d34f03d5260086018f30000000000000000000000000000000081525090506000858251602084016000f5905073ffffffffffffffffffffffffffffffffffffffff81166113a1576040517f08c379a000000000000000000000000000000000000000000000000000000000815260206004820152601160248201527f4445504c4f594d454e545f4641494c454400000000000000000000000000000060448201526064016102c6565b6113aa86611147565b925060008173ffffffffffffffffffffffffffffffffffffffff1685876040516113d49190611e69565b60006040518083038185875af1925050503d8060008114611411576040519150601f19603f3d011682016040523d82523d6000602084013e611416565b606091505b5050905080801561143d575073ffffffffffffffffffffffffffffffffffffffff84163b15155b6114a3576040517f08c379a000000000000000000000000000000000000000000000000000000000815260206004820152601560248201527f494e495449414c495a4154494f4e5f4641494c4544000000000000000000000060448201526064016102c6565b5050509392505050565b600080826040516020016114c19190611fd0565b60405160208183030381529060405290506000816040516020016114e59190611ff6565b60405160208183030381529060405290508051602082016000f0925073ffffffffffffffffffffffffffffffffffffffff831661157e576040517f08c379a000000000000000000000000000000000000000000000000000000000815260206004820152601160248201527f4445504c4f594d454e545f4641494c454400000000000000000000000000000060448201526064016102c6565b5050919050565b60408051603f83017fffffffffffffffffffffffffffffffffffffffffffffffffffffffffffffffe0168101909152818152818360208301863c9392505050565b5080546115d290611a6a565b6000825580601f106115e2575050565b601f0160209004906000526020600020908101906116009190611603565b50565b5b808211156116185760008155600101611604565b5090565b803573ffffffffffffffffffffffffffffffffffffffff8116811461164057600080fd5b919050565b8035801515811461164057600080fd5b6000806040838503121561166857600080fd5b6116718361161c565b915061167f60208401611645565b90509250929050565b60006020828403121561169a57600080fd5b6106988261161c565b6020808252825182820181905260009190848201906040850190845b818110156116f157835173ffffffffffffffffffffffffffffffffffffffff16835292840192918401916001016116bf565b50909695505050505050565b60008083601f84011261170f57600080fd5b50813567ffffffffffffffff81111561172757600080fd5b60208301915083602082850101111561173f57600080fd5b9250929050565b60008060006040848603121561175b57600080fd5b6117648461161c565b9250602084013567ffffffffffffffff81111561178057600080fd5b61178c868287016116fd565b9497909650939450505050565b7f4e487b7100000000000000000000000000000000000000000000000000000000600052604160045260246000fd5b600082601f8301126117d957600080fd5b813567ffffffffffffffff808211156117f4576117f4611799565b604051601f83017fffffffffffffffffffffffffffffffffffffffffffffffffffffffffffffffe0908116603f0116810190828211818310171561183a5761183a611799565b8160405283815286602085880101111561185357600080fd5b836020870160208301376000602085830101528094505050505092915050565b60006020828403121561188557600080fd5b813567ffffffffffffffff81111561189c57600080fd5b6105f7848285016117c8565b60005b838110156118c35781810151838201526020016118ab565b50506000910152565b600081518084526118e48160208601602086016118a8565b601f017fffffffffffffffffffffffffffffffffffffffffffffffffffffffffffffffe0169290920160200192915050565b60208152600061069860208301846118cc565b6000602080830181845280855180835260408601915060408160051b870101925083870160005b8281101561199c577fffffffffffffffffffffffffffffffffffffffffffffffffffffffffffffffc088860301845261198a8583516118cc565b94509285019290850190600101611950565b5092979650505050505050565b600080600080606085870312156119bf57600080fd5b6119c88561161c565b9350602085013567ffffffffffffffff8111156119e457600080fd5b6119f0878288016116fd565b9094509250611a03905060408601611645565b905092959194509250565b600080600060408486031215611a2357600080fd5b833567ffffffffffffffff80821115611a3b57600080fd5b611a47878388016117c8565b94506020860135915080821115611a5d57600080fd5b5061178c868287016116fd565b600181811c90821680611a7e57607f821691505b602082108103611ab7577f4e487b7100000000000000000000000000000000000000000000000000000000600052602260045260246000fd5b50919050565b8183528181602085013750600060208284010152600060207fffffffffffffffffffffffffffffffffffffffffffffffffffffffffffffffe0601f840116840101905092915050565b6020815260006105f7602083018486611abd565b600060208284031215611b2c57600080fd5b5051919050565b60008351611b458184602088016118a8565b835190830190611b598183602088016118a8565b01949350505050565b7f4e487b7100000000000000000000000000000000000000000000000000000000600052603260045260246000fd5b6000602080835260008454611ba581611a6a565b80848701526040600180841660008114611bc65760018114611bfe57611c2c565b7fffffffffffffffffffffffffffffffffffffffffffffffffffffffffffffff008516838a01528284151560051b8a01019550611c2c565b896000528660002060005b85811015611c245781548b8201860152908301908801611c09565b8a0184019650505b509398975050505050505050565b7f4e487b7100000000000000000000000000000000000000000000000000000000600052601160045260246000fd5b818103818111156103dd576103dd611c3a565b601f821115611cc657600081815260208120601f850160051c81016020861015611ca35750805b601f850160051c820191505b81811015611cc257828155600101611caf565b5050505b505050565b818103611cd6575050565b611ce08254611a6a565b67ffffffffffffffff811115611cf857611cf8611799565b611d0c81611d068454611a6a565b84611c7c565b6000601f821160018114611d5e5760008315611d285750848201545b7fffffffffffffffffffffffffffffffffffffffffffffffffffffffffffffffff600385901b1c1916600184901b17845561110a565b6000858152602090207fffffffffffffffffffffffffffffffffffffffffffffffffffffffffffffffe0841690600086815260209020845b83811015611db65782860154825560019586019590910190602001611d96565b5085831015611df257818501547fffffffffffffffffffffffffffffffffffffffffffffffffffffffffffffffff600388901b60f8161c191681555b5050505050600190811b01905550565b7f4e487b7100000000000000000000000000000000000000000000000000000000600052603160045260246000fd5b60007fffffffffffffffffffffffffffffffffffffffffffffffffffffffffffffffff8203611e6257611e62611c3a565b5060010190565b60008251611e7b8184602087016118a8565b9190910192915050565b815167ffffffffffffffff811115611e9f57611e9f611799565b611ead81611d068454611a6a565b602080601f831160018114611f005760008415611eca5750858301515b7fffffffffffffffffffffffffffffffffffffffffffffffffffffffffffffffff600386901b1c1916600185901b178555611cc2565b6000858152602081207fffffffffffffffffffffffffffffffffffffffffffffffffffffffffffffffe08616915b82811015611f4d57888601518255948401946001909101908401611f2e565b5085821015611df25793909601517fffffffffffffffffffffffffffffffffffffffffffffffffffffffffffffffff60f8600387901b161c19169092555050600190811b01905550565b73ffffffffffffffffffffffffffffffffffffffff84168152604060208201526000611fc7604083018486611abd565b95945050505050565b6000815260008251611fe98160018501602087016118a8565b9190910160010192915050565b7f600b5981380380925939f300000000000000000000000000000000000000000081526000825161202e81600b8501602087016118a8565b91909101600b019291505056fea2646970667358221220829aaace410b5d4c5716d8dcea71dfcc8c5c561c651a6548ba8b8d3990f3589364736f6c63430008150033",
  "devdoc": {
    "details": "Note the deployed token starts out with no config at Liquidity contract. This must be done by Liquidity auths in a separate step, otherwise no deposits will be possible. This contract is not upgradeable. It supports adding new fToken creation codes for future new fToken types.",
    "kind": "dev",
    "methods": {
      "computeToken(address,string)": {
        "params": {
          "asset_": "address of the asset",
          "fTokenType_": "type of fToken: - if it's the native token, it should use `NativeUnderlying` - otherwise it should use `fToken` - could be more types available, check `fTokenTypes()`"
        },
        "returns": {
          "token_": "     detemrinistic address of the computed token"
        }
      },
      "createToken(address,string,bool)": {
        "params": {
          "asset_": "address of the asset",
          "fTokenType_": "type of fToken: - if it's the native token, it should use `NativeUnderlying` - otherwise it should use `fToken` - could be more types available, check `fTokenTypes()`",
          "isNativeUnderlying_": "flag to signal fToken type that uses native underlying at Liquidity"
        },
        "returns": {
          "token_": "             address of the created token"
        }
      },
      "setAuth(address,bool)": {
        "params": {
          "allowed_": "bool flag for whether address is allowed as auth or not",
          "auth_": "address to set auth value for"
        }
      },
      "setDeployer(address,bool)": {
        "params": {
          "allowed_": "bool flag for whether address is allowed as deployer or not",
          "deployer_": "address to set deployer value for"
        }
      },
      "setFTokenCreationCode(string,bytes)": {
        "params": {
          "creationCode_": "contract creation code. can be set to bytes(0) to remove a previously available `fTokenType_`",
          "fTokenType_": "the fToken Type used to refer the creation code"
        }
      }
    },
    "title": "Fluid LendingFactory",
    "version": 1
  },
  "userdoc": {
    "events": {
      "LogSetAuth(address,bool)": {
        "notice": "emitted when an auth is modified by owner"
      },
      "LogSetDeployer(address,bool)": {
        "notice": "emitted when a deployer is modified by owner"
      },
      "LogSetFTokenCreationCode(string,address)": {
        "notice": "emitted when the creation code for an fTokenType is set"
      },
      "LogTokenCreated(address,address,uint256,string)": {
        "notice": "emitted when a new fToken is created"
      }
    },
    "kind": "user",
    "methods": {
      "LIQUIDITY()": {
        "notice": "address of the Liquidity contract."
      },
      "allTokens()": {
        "notice": "list of all created tokens"
      },
      "computeToken(address,string)": {
        "notice": "computes deterministic token address for `asset_` for a lending protocol"
      },
      "constructor": {
        "notice": "initialize liquidity contract address & owner"
      },
      "createToken(address,string,bool)": {
        "notice": "creates token for `asset_` for a lending protocol with interest. Only callable by deployers."
      },
      "fTokenCreationCode(string)": {
        "notice": "returns the creation code for a certain `fTokenType_`"
      },
      "fTokenTypes()": {
        "notice": "list of all fToken types that can be deployed"
      },
      "isAuth(address)": {
        "notice": "reads if a certain `auth_` address is an allowed auth or not. Owner is auth by default."
      },
      "isDeployer(address)": {
        "notice": "reads if a certain `deployer_` address is an allowed deployer or not. Owner is deployer by default."
      },
      "setAuth(address,bool)": {
        "notice": "Sets an address as allowed auth or not. Only callable by owner."
      },
      "setDeployer(address,bool)": {
        "notice": "Sets an address as allowed deployer or not. Only callable by owner."
      },
      "setFTokenCreationCode(string,bytes)": {
        "notice": "Sets the `creationCode_` bytecode for a certain `fTokenType_`. Only callable by auths."
      }
    },
    "notice": "creates Fluid lending protocol fTokens, which are interacting with Fluid Liquidity. fTokens are ERC20 & ERC4626 compatible tokens that allow to deposit to Fluid Liquidity to earn interest. Tokens are created at a deterministic address (see `computeToken()`), only executable by allow-listed auths.",
    "version": 1
  },
  "storageLayout": {
    "storage": [
      {
        "astId": 23163,
        "contract": "contracts/protocols/lending/lendingFactory/main.sol:FluidLendingFactory",
        "label": "owner",
        "offset": 0,
        "slot": "0",
        "type": "t_address"
      },
      {
        "astId": 19356,
        "contract": "contracts/protocols/lending/lendingFactory/main.sol:FluidLendingFactory",
        "label": "_auths",
        "offset": 0,
        "slot": "1",
        "type": "t_mapping(t_address,t_uint256)"
      },
      {
        "astId": 19361,
        "contract": "contracts/protocols/lending/lendingFactory/main.sol:FluidLendingFactory",
        "label": "_deployers",
        "offset": 0,
        "slot": "2",
        "type": "t_mapping(t_address,t_uint256)"
      },
      {
        "astId": 19365,
        "contract": "contracts/protocols/lending/lendingFactory/main.sol:FluidLendingFactory",
        "label": "_allTokens",
        "offset": 0,
        "slot": "3",
        "type": "t_array(t_address)dyn_storage"
      },
      {
        "astId": 19369,
        "contract": "contracts/protocols/lending/lendingFactory/main.sol:FluidLendingFactory",
        "label": "_fTokenTypes",
        "offset": 0,
        "slot": "4",
        "type": "t_array(t_string_storage)dyn_storage"
      },
      {
        "astId": 19374,
        "contract": "contracts/protocols/lending/lendingFactory/main.sol:FluidLendingFactory",
        "label": "_fTokenCreationCodePointers",
        "offset": 0,
        "slot": "5",
        "type": "t_mapping(t_bytes32,t_address)"
      }
    ],
    "types": {
      "t_address": {
        "encoding": "inplace",
        "label": "address",
        "numberOfBytes": "20"
      },
      "t_array(t_address)dyn_storage": {
        "base": "t_address",
        "encoding": "dynamic_array",
        "label": "address[]",
        "numberOfBytes": "32"
      },
      "t_array(t_string_storage)dyn_storage": {
        "base": "t_string_storage",
        "encoding": "dynamic_array",
        "label": "string[]",
        "numberOfBytes": "32"
      },
      "t_bytes32": {
        "encoding": "inplace",
        "label": "bytes32",
        "numberOfBytes": "32"
      },
      "t_mapping(t_address,t_uint256)": {
        "encoding": "mapping",
        "key": "t_address",
        "label": "mapping(address => uint256)",
        "numberOfBytes": "32",
        "value": "t_uint256"
      },
      "t_mapping(t_bytes32,t_address)": {
        "encoding": "mapping",
        "key": "t_bytes32",
        "label": "mapping(bytes32 => address)",
        "numberOfBytes": "32",
        "value": "t_address"
      },
      "t_string_storage": {
        "encoding": "bytes",
        "label": "string",
        "numberOfBytes": "32"
      },
      "t_uint256": {
        "encoding": "inplace",
        "label": "uint256",
        "numberOfBytes": "32"
      }
    }
  }
}