{
  "address": "0x5b43e84855246384F6FeAE85ce2a9E3637bdDA3c",
  "abi": [
    {
      "inputs": [
        {
          "components": [
            {
              "internalType": "string",
              "name": "infoName",
              "type": "string"
            },
            {
              "internalType": "address",
              "name": "dexPool",
              "type": "address"
            },
            {
              "internalType": "bool",
              "name": "quoteInToken0",
              "type": "bool"
            },
            {
              "internalType": "contract IFluidOracle",
              "name": "colDebtOracle",
              "type": "address"
            },
            {
              "internalType": "bool",
              "name": "colDebtInvert",
              "type": "bool"
            },
            {
              "internalType": "uint256",
              "name": "pegBufferPercent",
              "type": "uint256"
            },
            {
              "components": [
                {
                  "internalType": "address",
                  "name": "reservesConversionOracle",
                  "type": "address"
                },
                {
                  "internalType": "bool",
                  "name": "reservesConversionInvert",
                  "type": "bool"
                },
                {
                  "internalType": "uint256",
                  "name": "reservesConversionPriceMultiplier",
                  "type": "uint256"
                },
                {
                  "internalType": "uint256",
                  "name": "reservesConversionPriceDivisor",
                  "type": "uint256"
                }
              ],
              "internalType": "struct DexConversionPriceFluidOracle.DexConversionPriceFluidOracleParams",
              "name": "reservesConversionParams",
              "type": "tuple"
            },
            {
              "internalType": "uint256",
              "name": "resultMultiplier",
              "type": "uint256"
            },
            {
              "internalType": "uint256",
              "name": "resultDivisor",
              "type": "uint256"
            }
          ],
          "internalType": "struct DexSmartColPegOracle.DexSmartColPegOracleParams",
          "name": "params_",
          "type": "tuple"
        }
      ],
      "stateMutability": "nonpayable",
      "type": "constructor"
    },
    {
      "inputs": [
        {
          "internalType": "uint256",
          "name": "errorId_",
          "type": "uint256"
        }
      ],
      "name": "FluidLiquidityCalcsError",
      "type": "error"
    },
    {
      "inputs": [
        {
          "internalType": "uint256",
          "name": "errorId_",
          "type": "uint256"
        }
      ],
      "name": "FluidOracleError",
      "type": "error"
    },
    {
      "inputs": [],
      "name": "RESERVES_PEG_BUFFER_PERCENT",
      "outputs": [
        {
          "internalType": "uint256",
          "name": "",
          "type": "uint256"
        }
      ],
      "stateMutability": "view",
      "type": "function"
    },
    {
      "inputs": [],
      "name": "dexOracleData",
      "outputs": [
        {
          "internalType": "address",
          "name": "dexPool_",
          "type": "address"
        },
        {
          "internalType": "bool",
          "name": "quoteInToken0_",
          "type": "bool"
        },
        {
          "internalType": "address",
          "name": "liquidity_",
          "type": "address"
        },
        {
          "internalType": "uint256",
          "name": "resultMultiplier_",
          "type": "uint256"
        },
        {
          "internalType": "uint256",
          "name": "resultDivisor_",
          "type": "uint256"
        }
      ],
      "stateMutability": "view",
      "type": "function"
    },
    {
      "inputs": [],
      "name": "dexSmartColSharesRates",
      "outputs": [
        {
          "internalType": "uint256",
          "name": "operate_",
          "type": "uint256"
        },
        {
          "internalType": "uint256",
          "name": "liquidate_",
          "type": "uint256"
        }
      ],
      "stateMutability": "view",
      "type": "function"
    },
    {
      "inputs": [],
      "name": "getDexColDebtOracleData",
      "outputs": [
        {
          "internalType": "address",
          "name": "colDebtOracle_",
          "type": "address"
        },
        {
          "internalType": "bool",
          "name": "colDebtInvert_",
          "type": "bool"
        }
      ],
      "stateMutability": "view",
      "type": "function"
    },
    {
      "inputs": [],
      "name": "getDexConversionPriceFluidOracleData",
      "outputs": [
        {
          "internalType": "address",
          "name": "reservesConversionOracle_",
          "type": "address"
        },
        {
          "internalType": "bool",
          "name": "reservesConversionInvert_",
          "type": "bool"
        },
        {
          "internalType": "uint256",
          "name": "reservesConversionPriceMultiplier_",
          "type": "uint256"
        },
        {
          "internalType": "uint256",
          "name": "reservesConversionPriceDivisor_",
          "type": "uint256"
        }
      ],
      "stateMutability": "view",
      "type": "function"
    },
    {
      "inputs": [],
      "name": "getExchangeRate",
      "outputs": [
        {
          "internalType": "uint256",
          "name": "exchangeRate_",
          "type": "uint256"
        }
      ],
      "stateMutability": "view",
      "type": "function"
    },
    {
      "inputs": [],
      "name": "getExchangeRateLiquidate",
      "outputs": [
        {
          "internalType": "uint256",
          "name": "exchangeRate_",
          "type": "uint256"
        }
      ],
      "stateMutability": "view",
      "type": "function"
    },
    {
      "inputs": [],
      "name": "getExchangeRateOperate",
      "outputs": [
        {
          "internalType": "uint256",
          "name": "exchangeRate_",
          "type": "uint256"
        }
      ],
      "stateMutability": "view",
      "type": "function"
    },
    {
      "inputs": [],
      "name": "infoName",
      "outputs": [
        {
          "internalType": "string",
          "name": "",
          "type": "string"
        }
      ],
      "stateMutability": "view",
      "type": "function"
    }
  ],
  "transactionHash": "0x2f7530bdc20f8311066b87153ae5eb779c35579214c5d5c1c30923d644f30e7d",
  "args": [
    [
      {
        "dexPool": "0x5D538aE12f9539Ac457CD5FdbDEC02d5779F0971",
        "quoteInToken0": false,
        "infoName": "WBTC per 1 EBTC/CBBTC colShare",
        "pegBufferPercent": 5000,
        "reservesConversionParams": {
          "reservesConversionOracle": "0xdaC1f22098f157920a8A34Aa6dBcD01e37f467c8",
          "reservesConversionInvert": false,
          "reservesConversionPriceMultiplier": 1,
          "reservesConversionPriceDivisor": 1
        },
        "resultMultiplier": 1,
        "resultDivisor": 10000000000,
        "colDebtOracle": "0x0000000000000000000000000000000000000000",
        "colDebtInvert": false
      }
    ]
  ],
  "numDeployments": 1,
  "linkedData": {
    "nonce": "96"
  },
  "bytecode": "0x6103606040523480156200001257600080fd5b5060405162001f0d38038062001f0d833981016040819052620000359162000569565b806020015181604001518260a0015182828560c001518660600151876080015184848a600001518b60e001518c6101000151816000146200007757816200007a565b60015b60805280156200008b57806200008e565b60015b60a0525050805160201080620000a357508051155b15620000cb5760405163c82fc46560e01b815261ea6a60048201526024015b60405180910390fd5b6020015160c0526001600160a01b038216620000ff5760405163c82fc46560e01b815261ebdd6004820152602401620000c2565b6001600160a01b03821660e08190528115156101005260408051635bbc8df960e11b815290516000929163b7791bf2916004808301926102409291908290030181865afa15801562000155573d6000803e3d6000fd5b505050506040513d601f19601f820116820180604052508101906200017b91906200070a565b610160808201516101a052610180808301516101c05260e0808401516101209081528401516101409081526101008501519093529183015190525160408051631595cbd360e01b815290519293506000926001600160a01b0390921691631595cbd3916004808201926080929091908290030181865afa15801562000204573d6000803e3d6000fd5b505050506040513d601f19601f820116820180604052508101906200022a919062000800565b80516101e05260208101516102005260408101516102205260600151610240525050610100519150620002989050576102205161024051620002729064e8d4a5100062000849565b6200027e919062000875565b6200029290670de0b6b3a764000062000875565b620002d1565b6101e05161020051620002b19064e8d4a5100062000849565b620002bd919062000875565b620002d190670de0b6b3a764000062000875565b610260526001600160a01b039091166102805215156102a05260408101511580620002fe57506060810151155b15620003225760405163c82fc46560e01b815261ebdd6004820152602401620000c2565b80516001600160a01b03166102c052602081015115156102e052604081015161030052606001516103205250506000819003620003775760405163c82fc46560e01b815261ebdd6004820152602401620000c2565b610340525062000898915050565b634e487b7160e01b600052604160045260246000fd5b604051608081016001600160401b0381118282101715620003c057620003c062000385565b60405290565b60405161012081016001600160401b0381118282101715620003c057620003c062000385565b6040516101c081016001600160401b0381118282101715620003c057620003c062000385565b604051601f8201601f191681016001600160401b03811182821017156200043d576200043d62000385565b604052919050565b600082601f8301126200045757600080fd5b81516001600160401b0381111562000473576200047362000385565b602062000489601f8301601f1916820162000412565b82815285828487010111156200049e57600080fd5b60005b83811015620004be578581018301518282018401528201620004a1565b506000928101909101919091529392505050565b6001600160a01b0381168114620004e857600080fd5b50565b8051620004f881620004d2565b919050565b80518015158114620004f857600080fd5b6000608082840312156200052157600080fd5b6200052b6200039b565b905081516200053a81620004d2565b81526200054a60208301620004fd565b6020820152604082015160408201526060820151606082015292915050565b6000602082840312156200057c57600080fd5b81516001600160401b03808211156200059457600080fd5b908301906101808286031215620005aa57600080fd5b620005b4620003c6565b825182811115620005c457600080fd5b620005d28782860162000445565b825250620005e360208401620004eb565b6020820152620005f660408401620004fd565b60408201526200060960608401620004eb565b60608201526200061c60808401620004fd565b608082015260a083015160a08201526200063a8660c085016200050e565b60c082015261014083015160e082015261016090920151610100830152509392505050565b600060a082840312156200067257600080fd5b60405160a081016001600160401b038111828210171562000697576200069762000385565b80604052508091508251620006ac81620004d2565b81526020830151620006be81620004d2565b60208201526040830151620006d381620004d2565b60408201526060830151620006e881620004d2565b60608201526080830151620006fd81620004d2565b6080919091015292915050565b600061024082840312156200071e57600080fd5b62000728620003ec565b825181526200073a60208401620004eb565b60208201526200074d60408401620004eb565b60408201526200076184606085016200065f565b606082015261010062000776818501620004eb565b60808301526101206200078b818601620004eb565b60a0840152610140620007a0818701620004eb565b60c08501526101608087015160e086015261018080880151858701526101a0945084880151848701526101c0880151838701526101e088015182870152610200880151818701525050505061022084015181830152508091505092915050565b6000608082840312156200081357600080fd5b6200081d6200039b565b825181526020830151602082015260408301516040820152606083015160608201528091505092915050565b80820281158282048414176200086f57634e487b7160e01b600052601160045260246000fd5b92915050565b6000826200089357634e487b7160e01b600052601260045260246000fd5b500490565b60805160a05160c05160e05161010051610120516101405161016051610180516101a0516101c0516101e05161020051610220516102405161026051610280516102a0516102c0516102e0516103005161032051610340516114b662000a576000396000818161025f01528181610618015261065c01526000818161010d015281816106eb01526109dc01526000818160ec0152818161070c01526109fd01526000818160cb01526107d201526000818160aa0152818161069f0152818161072d015281816109900152610a1e0152600081816102fb0152610b680152600081816102d701528181610a8b01528181610ad701528181610bb10152610bfd0152600061093b015260008181610e2a0152610fca015260008181610e060152610feb015260008181610da10152611021015260008181610d7d015261104201526000610cdd01526000610c8f015260005050600050506000610cbc01526000610c6e0152600081816101c40152610d070152600081816101a0015261086001526000818161041e01526104e301526000818161022e0152818161038c01526105a5015260008181610208015281816103bf01526105d801526114b66000f3fe608060405234801561001057600080fd5b50600436106100a35760003560e01c80638e7bfbc011610076578063e6aa216c1161005b578063e6aa216c146102ac578063f3190c89146102b4578063fa9a98e6146102bc57600080fd5b80638e7bfbc01461028f578063abd5f95d1461029757600080fd5b806304741a5a146100a85780632879605814610168578063585eebbf1461018557806364bba8851461025a575b600080fd5b7f00000000000000000000000000000000000000000000000000000000000000007f00000000000000000000000000000000000000000000000000000000000000007f00000000000000000000000000000000000000000000000000000000000000007f00000000000000000000000000000000000000000000000000000000000000006040805173ffffffffffffffffffffffffffffffffffffffff909516855292151560208501529183015260608201526080015b60405180910390f35b610170610327565b6040805192835260208301919091520161015f565b6040805173ffffffffffffffffffffffffffffffffffffffff7f00000000000000000000000000000000000000000000000000000000000000001681527f0000000000000000000000000000000000000000000000000000000000000000151560208201527352aa899454998be5b000ad077a46bbe360f4e497918101919091527f000000000000000000000000000000000000000000000000000000000000000060608201527f0000000000000000000000000000000000000000000000000000000000000000608082015260a00161015f565b6102817f000000000000000000000000000000000000000000000000000000000000000081565b60405190815260200161015f565b610281610367565b61029f61040c565b60405161015f9190611289565b610281610571565b610281610580565b6040805173ffffffffffffffffffffffffffffffffffffffff7f00000000000000000000000000000000000000000000000000000000000000001681527f0000000000000000000000000000000000000000000000000000000000000000151560208201520161015f565b6000806000806103356105ff565b9150915061034b61034461069b565b838361081a565b61035d61035661098c565b848461081a565b9350935050509091565b60008060006103746105ff565b91509150600061038561035661069b565b90506103bd7f00000000000000000000000000000000000000000000000000000000000000006b033b2e3c9fd0803ce8000000611324565b7f00000000000000000000000000000000000000000000000000000000000000006103e6610a87565b6103f09084611324565b6103fa9190611324565b6104049190611370565b935050505090565b606060005b60208110801561047757507f0000000000000000000000000000000000000000000000000000000000000000816020811061044e5761044e6113ab565b1a60f81b7fff000000000000000000000000000000000000000000000000000000000000001615155b1561048e5780610486816113da565b915050610411565b60008167ffffffffffffffff8111156104a9576104a9611412565b6040519080825280601f01601f1916602001820160405280156104d3576020820181803683370190505b50905060005b8281101561056a577f00000000000000000000000000000000000000000000000000000000000000008160208110610513576105136113ab565b1a60f81b828281518110610529576105296113ab565b60200101907effffffffffffffffffffffffffffffffffffffffffffffffffffffffffffff1916908160001a90535080610562816113da565b9150506104d9565b5092915050565b600061057b610367565b905090565b600080600061058d6105ff565b91509150600061059e61035661098c565b90506105d67f00000000000000000000000000000000000000000000000000000000000000006b033b2e3c9fd0803ce8000000611324565b7f00000000000000000000000000000000000000000000000000000000000000006103e6610bad565b60008061060a610c66565b9092509050620f424061063d7f000000000000000000000000000000000000000000000000000000000000000082611441565b6106479084611324565b6106519190611370565b9150620f42406106817f000000000000000000000000000000000000000000000000000000000000000082611441565b61068b9083611324565b6106959190611370565b90509091565b60007f000000000000000000000000000000000000000000000000000000000000000073ffffffffffffffffffffffffffffffffffffffff166106e957506b033b2e3c9fd0803ce800000090565b7f00000000000000000000000000000000000000000000000000000000000000007f00000000000000000000000000000000000000000000000000000000000000007f000000000000000000000000000000000000000000000000000000000000000073ffffffffffffffffffffffffffffffffffffffff16638e7bfbc06040518163ffffffff1660e01b8152600401602060405180830381865afa158015610796573d6000803e3d6000fd5b505050506040513d601f19601f820116820180604052508101906107ba9190611454565b6107c49190611324565b6107ce9190611370565b90507f0000000000000000000000000000000000000000000000000000000000000000156108175761057b81760a70c3c40a64e6c51999090b65f67d9240000000000000611370565b90565b6040517fb5c736e40000000000000000000000000000000000000000000000000000000081526002600482015260009081906fffffffffffffffffffffffffffffffff907f000000000000000000000000000000000000000000000000000000000000000073ffffffffffffffffffffffffffffffffffffffff169063b5c736e490602401602060405180830381865afa1580156108bc573d6000803e3d6000fd5b505050506040513d601f19601f820116820180604052508101906108e09190611454565b16905080600003610926576040517fc82fc46500000000000000000000000000000000000000000000000000000000815261ebac60048201526024015b60405180910390fd5b6000610933868686610d03565b9050816109607f000000000000000000000000000000000000000000000000000000000000000083611324565b610976906b033b2e3c9fd0803ce8000000611324565b6109809190611370565b925050505b9392505050565b60007f000000000000000000000000000000000000000000000000000000000000000073ffffffffffffffffffffffffffffffffffffffff166109da57506b033b2e3c9fd0803ce800000090565b7f00000000000000000000000000000000000000000000000000000000000000007f00000000000000000000000000000000000000000000000000000000000000007f000000000000000000000000000000000000000000000000000000000000000073ffffffffffffffffffffffffffffffffffffffff1663f3190c896040518163ffffffff1660e01b8152600401602060405180830381865afa158015610796573d6000803e3d6000fd5b60007f000000000000000000000000000000000000000000000000000000000000000073ffffffffffffffffffffffffffffffffffffffff16610ad557506b033b2e3c9fd0803ce800000090565b7f000000000000000000000000000000000000000000000000000000000000000073ffffffffffffffffffffffffffffffffffffffff16638e7bfbc06040518163ffffffff1660e01b8152600401602060405180830381865afa158015610b40573d6000803e3d6000fd5b505050506040513d601f19601f82011682018060405250810190610b649190611454565b90507f0000000000000000000000000000000000000000000000000000000000000000156108175761057b81760a70c3c40a64e6c51999090b65f67d9240000000000000611370565b60007f000000000000000000000000000000000000000000000000000000000000000073ffffffffffffffffffffffffffffffffffffffff16610bfb57506b033b2e3c9fd0803ce800000090565b7f000000000000000000000000000000000000000000000000000000000000000073ffffffffffffffffffffffffffffffffffffffff1663f3190c896040518163ffffffff1660e01b8152600401602060405180830381865afa158015610b40573d6000803e3d6000fd5b600080610cb57f00000000000000000000000000000000000000000000000000000000000000007f00000000000000000000000000000000000000000000000000000000000000006001610e61565b91506106957f00000000000000000000000000000000000000000000000000000000000000007f00000000000000000000000000000000000000000000000000000000000000006000610e61565b60007f000000000000000000000000000000000000000000000000000000000000000015610dd757610d4c84760a70c3c40a64e6c51999090b65f67d9240000000000000611370565b93506b033b2e3c9fd0803ce8000000610d658584611324565b610d6f9190611370565b610d79908461146d565b90507f0000000000000000000000000000000000000000000000000000000000000000610dc67f000000000000000000000000000000000000000000000000000000000000000083611324565b610dd09190611370565b9050610985565b6b033b2e3c9fd0803ce8000000610dee8585611324565b610df89190611370565b610e02908361146d565b90507f0000000000000000000000000000000000000000000000000000000000000000610e4f7f000000000000000000000000000000000000000000000000000000000000000083611324565b610e599190611370565b949350505050565b6040517fb5c736e40000000000000000000000000000000000000000000000000000000081526004810184905260009081907352aa899454998be5b000ad077a46bbe360f4e4979063b5c736e490602401602060405180830381865afa158015610ecf573d6000803e3d6000fd5b505050506040513d601f19601f82011682018060405250810190610ef39190611454565b6040517fb5c736e400000000000000000000000000000000000000000000000000000000815260048101869052600982901c66ffffffffffffff16600183901c60ff161b9350909150600090610fa8907352aa899454998be5b000ad077a46bbe360f4e4979063b5c736e490602401602060405180830381865afa158015610f7f573d6000803e3d6000fd5b505050506040513d601f19601f82011682018060405250810190610fa39190611454565b61107b565b50905081600116600103610fc35764e8d4a510008382020492505b8361101f577f00000000000000000000000000000000000000000000000000000000000000007f000000000000000000000000000000000000000000000000000000000000000084028161101957611019611341565b04610980565b7f00000000000000000000000000000000000000000000000000000000000000007f000000000000000000000000000000000000000000000000000000000000000084028161107057611070611341565b049695505050505050565b67ffffffffffffffff605b82901c811690609b83901c1681158061109d575080155b156110d9576040517fd50d751200000000000000000000000000000000000000000000000000000000815262011171600482015260240161091d565b61ffff8316603a84901c6401ffffffff16428181039160ea87901c617fff16911480611103575082155b8061110e5750806001145b1561111b57505050915091565b64496cebb80084840283020484019350617fff60db87901c1692508260010361114657505050915091565b8260011660010361119b5760019290921c91826c7e37be2022c0914b26800000008161117457611174611341565b049250612710601e87901c613fff166b033b2e3c9fd0803ce80000008501020492506111c8565b60019290921c916305f5e100601e87901c613fff166127108501026b033b2e3c9fd0803ce8000000020492505b806001166001036111ff5760011c61271081016b033b2e3c9fd0803ce80000008202816111f7576111f7611341565b049050611235565b60011c61271081016b033b2e3c9fd0803ce800000082028161122357611223611341565b046b033b2e3c9fd0803ce80000000390505b760a70c3c40a64e6c51999090b65f67d92400000000000008382026127100261ffff881691900402601087901c613fff16612710030292506801b5a660ea44b8000085840283020485019450505050915091565b600060208083528351808285015260005b818110156112b65785810183015185820160400152820161129a565b5060006040828601015260407fffffffffffffffffffffffffffffffffffffffffffffffffffffffffffffffe0601f8301168501019250505092915050565b7f4e487b7100000000000000000000000000000000000000000000000000000000600052601160045260246000fd5b808202811582820484141761133b5761133b6112f5565b92915050565b7f4e487b7100000000000000000000000000000000000000000000000000000000600052601260045260246000fd5b6000826113a6577f4e487b7100000000000000000000000000000000000000000000000000000000600052601260045260246000fd5b500490565b7f4e487b7100000000000000000000000000000000000000000000000000000000600052603260045260246000fd5b60007fffffffffffffffffffffffffffffffffffffffffffffffffffffffffffffffff820361140b5761140b6112f5565b5060010190565b7f4e487b7100000000000000000000000000000000000000000000000000000000600052604160045260246000fd5b8181038181111561133b5761133b6112f5565b60006020828403121561146657600080fd5b5051919050565b8082018082111561133b5761133b6112f556fea2646970667358221220d21f73f0da582eccef0a421b31c616d523b6b732919dd0da6ebf162494b05c3364736f6c63430008150033"
}