{
  "address": "0x612d2e3198A5Ce0c25094DdBA59c95b770d5Da86",
  "abi": [
    {
      "inputs": [
        {
          "components": [
            {
              "internalType": "string",
              "name": "infoName",
              "type": "string"
            },
            {
              "internalType": "address",
              "name": "dexPool",
              "type": "address"
            },
            {
              "internalType": "bool",
              "name": "quoteInToken0",
              "type": "bool"
            },
            {
              "components": [
                {
                  "internalType": "uint8",
                  "name": "hops",
                  "type": "uint8"
                },
                {
                  "components": [
                    {
                      "internalType": "contract IChainlinkAggregatorV3",
                      "name": "feed",
                      "type": "address"
                    },
                    {
                      "internalType": "bool",
                      "name": "invertRate",
                      "type": "bool"
                    },
                    {
                      "internalType": "uint256",
                      "name": "token0Decimals",
                      "type": "uint256"
                    }
                  ],
                  "internalType": "struct ChainlinkStructs.ChainlinkFeedData",
                  "name": "feed1",
                  "type": "tuple"
                },
                {
                  "components": [
                    {
                      "internalType": "contract IChainlinkAggregatorV3",
                      "name": "feed",
                      "type": "address"
                    },
                    {
                      "internalType": "bool",
                      "name": "invertRate",
                      "type": "bool"
                    },
                    {
                      "internalType": "uint256",
                      "name": "token0Decimals",
                      "type": "uint256"
                    }
                  ],
                  "internalType": "struct ChainlinkStructs.ChainlinkFeedData",
                  "name": "feed2",
                  "type": "tuple"
                },
                {
                  "components": [
                    {
                      "internalType": "contract IChainlinkAggregatorV3",
                      "name": "feed",
                      "type": "address"
                    },
                    {
                      "internalType": "bool",
                      "name": "invertRate",
                      "type": "bool"
                    },
                    {
                      "internalType": "uint256",
                      "name": "token0Decimals",
                      "type": "uint256"
                    }
                  ],
                  "internalType": "struct ChainlinkStructs.ChainlinkFeedData",
                  "name": "feed3",
                  "type": "tuple"
                }
              ],
              "internalType": "struct ChainlinkStructs.ChainlinkConstructorParams",
              "name": "reservesConversion",
              "type": "tuple"
            },
            {
              "internalType": "uint256",
              "name": "reservesConversionPriceMultiplier",
              "type": "uint256"
            },
            {
              "internalType": "uint256",
              "name": "reservesConversionPriceDivisor",
              "type": "uint256"
            },
            {
              "internalType": "uint256",
              "name": "resultMultiplier",
              "type": "uint256"
            },
            {
              "internalType": "uint256",
              "name": "resultDivisor",
              "type": "uint256"
            }
          ],
          "internalType": "struct DexSmartT4CLOracle.DexSmartT4CLOracleParams",
          "name": "params_",
          "type": "tuple"
        }
      ],
      "stateMutability": "nonpayable",
      "type": "constructor"
    },
    {
      "inputs": [
        {
          "internalType": "uint256",
          "name": "errorId_",
          "type": "uint256"
        }
      ],
      "name": "FluidLiquidityCalcsError",
      "type": "error"
    },
    {
      "inputs": [
        {
          "internalType": "uint256",
          "name": "errorId_",
          "type": "uint256"
        }
      ],
      "name": "FluidOracleError",
      "type": "error"
    },
    {
      "inputs": [],
      "name": "chainlinkOracleData",
      "outputs": [
        {
          "internalType": "uint256",
          "name": "chainlinkExchangeRate_",
          "type": "uint256"
        },
        {
          "internalType": "contract IChainlinkAggregatorV3",
          "name": "chainlinkFeed1_",
          "type": "address"
        },
        {
          "internalType": "bool",
          "name": "chainlinkInvertRate1_",
          "type": "bool"
        },
        {
          "internalType": "uint256",
          "name": "chainlinkExchangeRate1_",
          "type": "uint256"
        },
        {
          "internalType": "contract IChainlinkAggregatorV3",
          "name": "chainlinkFeed2_",
          "type": "address"
        },
        {
          "internalType": "bool",
          "name": "chainlinkInvertRate2_",
          "type": "bool"
        },
        {
          "internalType": "uint256",
          "name": "chainlinkExchangeRate2_",
          "type": "uint256"
        },
        {
          "internalType": "contract IChainlinkAggregatorV3",
          "name": "chainlinkFeed3_",
          "type": "address"
        },
        {
          "internalType": "bool",
          "name": "chainlinkInvertRate3_",
          "type": "bool"
        },
        {
          "internalType": "uint256",
          "name": "chainlinkExchangeRate3_",
          "type": "uint256"
        }
      ],
      "stateMutability": "view",
      "type": "function"
    },
    {
      "inputs": [],
      "name": "dexOracleData",
      "outputs": [
        {
          "internalType": "address",
          "name": "dexPool_",
          "type": "address"
        },
        {
          "internalType": "bool",
          "name": "quoteInToken0_",
          "type": "bool"
        },
        {
          "internalType": "address",
          "name": "liquidity_",
          "type": "address"
        },
        {
          "internalType": "uint256",
          "name": "resultMultiplier_",
          "type": "uint256"
        },
        {
          "internalType": "uint256",
          "name": "resultDivisor_",
          "type": "uint256"
        }
      ],
      "stateMutability": "view",
      "type": "function"
    },
    {
      "inputs": [],
      "name": "dexSmartColSharesRates",
      "outputs": [
        {
          "internalType": "uint256",
          "name": "operate_",
          "type": "uint256"
        },
        {
          "internalType": "uint256",
          "name": "liquidate_",
          "type": "uint256"
        }
      ],
      "stateMutability": "view",
      "type": "function"
    },
    {
      "inputs": [],
      "name": "dexSmartDebtSharesRates",
      "outputs": [
        {
          "internalType": "uint256",
          "name": "operate_",
          "type": "uint256"
        },
        {
          "internalType": "uint256",
          "name": "liquidate_",
          "type": "uint256"
        }
      ],
      "stateMutability": "view",
      "type": "function"
    },
    {
      "inputs": [],
      "name": "getDexConversionPriceFluidOracleData",
      "outputs": [
        {
          "internalType": "uint256",
          "name": "reservesConversionPriceMultiplier_",
          "type": "uint256"
        },
        {
          "internalType": "uint256",
          "name": "reservesConversionPriceDivisor_",
          "type": "uint256"
        }
      ],
      "stateMutability": "view",
      "type": "function"
    },
    {
      "inputs": [],
      "name": "getExchangeRate",
      "outputs": [
        {
          "internalType": "uint256",
          "name": "exchangeRate_",
          "type": "uint256"
        }
      ],
      "stateMutability": "view",
      "type": "function"
    },
    {
      "inputs": [],
      "name": "getExchangeRateLiquidate",
      "outputs": [
        {
          "internalType": "uint256",
          "name": "exchangeRate_",
          "type": "uint256"
        }
      ],
      "stateMutability": "view",
      "type": "function"
    },
    {
      "inputs": [],
      "name": "getExchangeRateOperate",
      "outputs": [
        {
          "internalType": "uint256",
          "name": "exchangeRate_",
          "type": "uint256"
        }
      ],
      "stateMutability": "view",
      "type": "function"
    },
    {
      "inputs": [],
      "name": "infoName",
      "outputs": [
        {
          "internalType": "string",
          "name": "",
          "type": "string"
        }
      ],
      "stateMutability": "view",
      "type": "function"
    }
  ],
  "transactionHash": "0x93f4b896266bc214df97ff0b9caaece74d98059a6b3f49828b4f88b60f12bb0d",
  "args": [
    [
      {
        "dexPool": "0xD0810e5CF08dCDe266ecEBEf40caD806c7768D72",
        "quoteInToken0": false,
        "infoName": "CBBTC/USDT dbtSh. per 1 colSh.",
        "reservesConversion": {
          "hops": 2,
          "feed1": {
            "feed": "0xF4030086522a5bEEa4988F8cA5B36dbC97BeE88c",
            "invertRate": false,
            "token0Decimals": 8
          },
          "feed2": {
            "feed": "0x3E7d1eAB13ad0104d2750B8863b489D65364e32D",
            "invertRate": true,
            "token0Decimals": 6
          },
          "feed3": {
            "feed": "0x0000000000000000000000000000000000000000",
            "invertRate": false,
            "token0Decimals": 0
          }
        },
        "reservesConversionPriceMultiplier": 100,
        "reservesConversionPriceDivisor": 1,
        "resultMultiplier": 1,
        "resultDivisor": 1
      }
    ]
  ],
  "numDeployments": 1,
  "linkedData": {
    "nonce": "111"
  },
  "bytecode": "0x6104606040523480156200001257600080fd5b5060405162003bfd38038062003bfd83398101604081905262000035916200087f565b80602001518160400151826060015183608001518460a0015182858588600001518960c001518a60e001518160001462000070578162000073565b60015b608052801562000084578062000087565b60015b60a05250508051602010806200009c57508051155b15620000c45760405163c82fc46560e01b815261ea6a60048201526024015b60405180910390fd5b6020015160c0526001600160a01b038216620000f85760405163c82fc46560e01b815261ebdd6004820152602401620000bb565b6001600160a01b03821660e08190528115156101005260408051635bbc8df960e11b815290516000929163b7791bf2916004808301926102409291908290030181865afa1580156200014e573d6000803e3d6000fd5b505050506040513d601f19601f8201168201806040525081019062000174919062000a05565b610160808201516101a052610180808301516101c05260e0808401516101209081528401516101409081526101008501519093529183015190525160408051631595cbd360e01b815290519293506000926001600160a01b0390921691631595cbd3916004808201926080929091908290030181865afa158015620001fd573d6000803e3d6000fd5b505050506040513d601f19601f8201168201806040525081019062000223919062000afb565b80516101e052602081015161020052604081015161022052606001516102405250506101005191506200029190505761022051610240516200026b9064e8d4a5100062000b5a565b62000277919062000b7a565b6200028b90670de0b6b3a764000062000b7a565b620002ca565b6101e05161020051620002aa9064e8d4a5100062000b5a565b620002b6919062000b7a565b620002ca90670de0b6b3a764000062000b7a565b610260526101005162000316576102205161024051620002f09064e8d4a5100062000b5a565b620002fc919062000b7a565b6200031090670de0b6b3a764000062000b7a565b6200034f565b6101e051610200516200032f9064e8d4a5100062000b5a565b6200033b919062000b7a565b6200034f90670de0b6b3a764000062000b7a565b610280528051600160ff90911610806200037057506003816000015160ff16115b806200039957506020810151516001600160a01b03161580620003995750602081015160400151155b80620003d457506001816000015160ff16118015620003d457506040810151516001600160a01b03161580620003d457506040808201510151155b806200041057506002816000015160ff161180156200041057506060810151516001600160a01b03161580620004105750606081015160400151155b15620004345760405163c82fc46560e01b815261ee496004820152602401620000bb565b60208082018051516001600160a01b039081166102a052604080850180515183166102c052606086018051519093166102e0528351850151151561030052518401511515610320529051909201511515610340525101516200049890601b62000b9d565b620004a590600a62000cb0565b61036052602081015160400151620004bf90601b62000cc5565b620004cc90600a62000cb0565b610380528051600160ff90911611620004e757600162000509565b6040808201510151620004fc90601b62000b9d565b6200050990600a62000cb0565b6103a0528051600160ff909116116200052457600162000546565b60408082015101516200053990601b62000cc5565b6200054690600a62000cb0565b6103c0528051600260ff909116116200056157600162000584565b6060810151604001516200057790601b62000b9d565b6200058490600a62000cb0565b6103e0528051600260ff909116116200059f576001620005c2565b606081015160400151620005b590601b62000cc5565b620005c290600a62000cb0565b6104005250811580620005d3575080155b15620005f75760405163c82fc46560e01b815261ebdd6004820152602401620000bb565b61042091909152610440525062000cdb92505050565b634e487b7160e01b600052604160045260246000fd5b604051608081016001600160401b03811182821017156200064857620006486200060d565b60405290565b60405161010081016001600160401b03811182821017156200064857620006486200060d565b6040516101c081016001600160401b03811182821017156200064857620006486200060d565b604051601f8201601f191681016001600160401b0381118282101715620006c557620006c56200060d565b604052919050565b600082601f830112620006df57600080fd5b81516001600160401b03811115620006fb57620006fb6200060d565b602062000711601f8301601f191682016200069a565b82815285828487010111156200072657600080fd5b60005b838110156200074657858101830151828201840152820162000729565b506000928101909101919091529392505050565b6001600160a01b03811681146200077057600080fd5b50565b805162000780816200075a565b919050565b805180151581146200078057600080fd5b600060608284031215620007a957600080fd5b604051606081016001600160401b0381118282101715620007ce57620007ce6200060d565b80604052508091508251620007e3816200075a565b8152620007f36020840162000785565b6020820152604083015160408201525092915050565b600061014082840312156200081d57600080fd5b6200082762000623565b9050815160ff811681146200083b57600080fd5b81526200084c836020840162000796565b602082015262000860836080840162000796565b6040820152620008748360e0840162000796565b606082015292915050565b6000602082840312156200089257600080fd5b81516001600160401b0380821115620008aa57600080fd5b908301906102208286031215620008c057600080fd5b620008ca6200064e565b825182811115620008da57600080fd5b620008e887828601620006cd565b825250620008f96020840162000773565b60208201526200090c6040840162000785565b604082015262000920866060850162000809565b60608201526101a083015160808201526101c083015160a08201526101e083015160c08201526102009092015160e0830152509392505050565b600060a082840312156200096d57600080fd5b60405160a081016001600160401b03811182821017156200099257620009926200060d565b80604052508091508251620009a7816200075a565b81526020830151620009b9816200075a565b60208201526040830151620009ce816200075a565b60408201526060830151620009e3816200075a565b60608201526080830151620009f8816200075a565b6080919091015292915050565b6000610240828403121562000a1957600080fd5b62000a2362000674565b8251815262000a356020840162000773565b602082015262000a486040840162000773565b604082015262000a5c84606085016200095a565b606082015261010062000a7181850162000773565b608083015261012062000a8681860162000773565b60a084015261014062000a9b81870162000773565b60c08501526101608087015160e086015261018080880151858701526101a0945084880151848701526101c0880151838701526101e088015182870152610200880151818701525050505061022084015181830152508091505092915050565b60006080828403121562000b0e57600080fd5b62000b1862000623565b825181526020830151602082015260408301516040820152606083015160608201528091505092915050565b634e487b7160e01b600052601160045260246000fd5b808202811582820484141762000b745762000b7462000b44565b92915050565b60008262000b9857634e487b7160e01b600052601260045260246000fd5b500490565b8181038181111562000b745762000b7462000b44565b600181815b8085111562000bf457816000190482111562000bd85762000bd862000b44565b8085161562000be657918102915b93841c939080029062000bb8565b509250929050565b60008262000c0d5750600162000b74565b8162000c1c5750600062000b74565b816001811462000c35576002811462000c405762000c60565b600191505062000b74565b60ff84111562000c545762000c5462000b44565b50506001821b62000b74565b5060208310610133831016604e8410600b841016171562000c85575081810a62000b74565b62000c91838362000bb3565b806000190482111562000ca85762000ca862000b44565b029392505050565b600062000cbe838362000bfc565b9392505050565b8082018082111562000b745762000b7462000b44565b60805160a05160c05160e05161010051610120516101405161016051610180516101a0516101c0516101e05161020051610220516102405161026051610280516102a0516102c0516102e05161030051610320516103405161036051610380516103a0516103c0516103e051610400516104205161044051612cc562000f386000396000818160cb015261089301526000818160aa01526108b401526000818161059701526113b401526000818161057601526113930152600081816104a501526112bd015260008181610484015261129c0152600081816103bb01526111da01526000818161039a01526111b90152600081816104f401528181610555015261137201526000818161040201528181610463015261127b0152600081816103340152818161037901526111980152600081816104d3015281816105340152818161130101526113510152600081816103e1015281816104420152818161120a015261125a015260008181610313015281816103580152611177015260006115fd0152600061111f015260008181611f8a0152612431015260008181611f660152612452015260008181611f010152612488015260008181611edd01526124a901526000610f5501526000610e950152600061202901526000611ff901526000611c0b01526000611bdb01526000818161014c0152611e67015260008181610128015281816109b801528181610a6d01528181611049015281816115280152818161169701526117ad01526000818161072d01526107f20152600081816101b6015261063f01526000818161019001526106720152612cc56000f3fe608060405234801561001057600080fd5b50600436106100a35760003560e01c80638e7bfbc011610076578063abd5f95d1161005b578063abd5f95d14610273578063e6aa216c14610288578063f3190c891461025557600080fd5b80638e7bfbc01461025557806396aa229c1461026b57600080fd5b806304741a5a146100a85780632879605814610105578063585eebbf1461010d5780637557ca41146101e2575b600080fd5b7f00000000000000000000000000000000000000000000000000000000000000007f00000000000000000000000000000000000000000000000000000000000000005b604080519283526020830191909152015b60405180910390f35b6100eb610290565b6040805173ffffffffffffffffffffffffffffffffffffffff7f00000000000000000000000000000000000000000000000000000000000000001681527f0000000000000000000000000000000000000000000000000000000000000000151560208201527352aa899454998be5b000ad077a46bbe360f4e497918101919091527f000000000000000000000000000000000000000000000000000000000000000060608201527f0000000000000000000000000000000000000000000000000000000000000000608082015260a0016100fc565b6101ea6102fa565b604080519a8b5273ffffffffffffffffffffffffffffffffffffffff998a1660208c0152971515978a01979097526060890195909552928616608088015290151560a087015260c086015290921660e0840152901515610100830152610120820152610140016100fc565b61025d6105e3565b6040519081526020016100fc565b6100eb6106ba565b61027b61071b565b6040516100fc9190612828565b61025d610880565b600080600061029d61088f565b90506000806102b3836102ae610937565b610fb9565b915091506102c2838383611003565b945050505060006102d161088f565b90506000806102e2836102ae610937565b915091506102f1838383611003565b93505050509091565b600080600080600080600080600080610311611170565b7f00000000000000000000000000000000000000000000000000000000000000007f00000000000000000000000000000000000000000000000000000000000000006103df7f00000000000000000000000000000000000000000000000000000000000000007f00000000000000000000000000000000000000000000000000000000000000007f00000000000000000000000000000000000000000000000000000000000000007f00000000000000000000000000000000000000000000000000000000000000006113ec565b7f00000000000000000000000000000000000000000000000000000000000000007f000000000000000000000000000000000000000000000000000000000000000073ffffffffffffffffffffffffffffffffffffffff8216156104ce576104c97f00000000000000000000000000000000000000000000000000000000000000007f00000000000000000000000000000000000000000000000000000000000000007f00000000000000000000000000000000000000000000000000000000000000007f00000000000000000000000000000000000000000000000000000000000000006113ec565b6104d1565b60005b7f00000000000000000000000000000000000000000000000000000000000000007f000000000000000000000000000000000000000000000000000000000000000073ffffffffffffffffffffffffffffffffffffffff8216156105c0576105bb7f00000000000000000000000000000000000000000000000000000000000000007f00000000000000000000000000000000000000000000000000000000000000007f00000000000000000000000000000000000000000000000000000000000000007f00000000000000000000000000000000000000000000000000000000000000006113ec565b6105c3565b60005b995099509950995099509950995099509950995090919293949596979899565b6000806105ee61088f565b905060006105fa610937565b90506000806106098484610fb9565b91509150600061061a858484611003565b905061062685856114ad565b909350915060006106388685856114e3565b90506106707f00000000000000000000000000000000000000000000000000000000000000006b033b2e3c9fd0803ce80000006128c3565b7f000000000000000000000000000000000000000000000000000000000000000061069b84846128c3565b6106a591906128c3565b6106af919061290f565b965050505050505090565b60008060006106c761088f565b90506000806106dd836106d8610937565b6114ad565b915091506106ec8383836114e3565b945050505060006106fb61088f565b905060008061070c836106d8610937565b915091506102f18383836114e3565b606060005b60208110801561078657507f0000000000000000000000000000000000000000000000000000000000000000816020811061075d5761075d612923565b1a60f81b7fff000000000000000000000000000000000000000000000000000000000000001615155b1561079d578061079581612952565b915050610720565b60008167ffffffffffffffff8111156107b8576107b861298a565b6040519080825280601f01601f1916602001820160405280156107e2576020820181803683370190505b50905060005b82811015610879577f0000000000000000000000000000000000000000000000000000000000000000816020811061082257610822612923565b1a60f81b82828151811061083857610838612923565b60200101907effffffffffffffffffffffffffffffffffffffffffffffffffffffffffffff1916908160001a9053508061087181612952565b9150506107e8565b5092915050565b600061088a6105e3565b905090565b60007f00000000000000000000000000000000000000000000000000000000000000007f00000000000000000000000000000000000000000000000000000000000000006108db611170565b6108e591906128c3565b6108ef919061290f565b905080600003610934576040517fc82fc46500000000000000000000000000000000000000000000000000000000815261ebde60048201526024015b60405180910390fd5b90565b6109866040518061012001604052806000815260200160008152602001600081526020016000815260200160008152602001600081526020016000815260200160008152602001600081525090565b6040517fb5c736e4000000000000000000000000000000000000000000000000000000008152600060048201819052907f000000000000000000000000000000000000000000000000000000000000000073ffffffffffffffffffffffffffffffffffffffff169063b5c736e490602401602060405180830381865afa158015610a14573d6000803e3d6000fd5b505050506040513d601f19601f82011682018060405250810190610a3891906129b9565b6040517fb5c736e4000000000000000000000000000000000000000000000000000000008152600160048201529091506000907f000000000000000000000000000000000000000000000000000000000000000073ffffffffffffffffffffffffffffffffffffffff169063b5c736e490602401602060405180830381865afa158015610ac9573d6000803e3d6000fd5b505050506040513d601f19601f82011682018060405250810190610aed91906129b9565b9050600060f882901c600116600003610b2f57633fffffff607083901c16905080600003610b2f575063ffffffff605983901c1660ff605184901c161b610bdd565b6040517f08c379a000000000000000000000000000000000000000000000000000000000815260206004820152604d60248201527f507269636573416e6445786368616e67655072696365733a2063656e7465722060448201527f70726963652073686f756c64206e6f742062652070656767656420746f20657860648201527f7465726e616c20736f7572636500000000000000000000000000000000000000608482015260a40161092b565b63ffffffff603184901c1660ff602985901c161b601b83901c620fffff90811690602f85901c166001601a86901c81169003610c2657610c1e828287611638565b965090925090505b81620f424003620f4240850281610c3f57610c3f6128e0565b049150620f42409081038402046000620fffff604487901c1615610d4557604486901c6103ff90811690604e88901c16605888901c62ffffff16600160438a901c81169003610c9b57610c93838383611792565b919450925090505b6103e888870384820302048801871115610cf05760798a901c6401ffffffff16420381811015610ce25781818a89030281610cd857610cd86128e0565b0489019850610ce6565b8698505b6001945050610d41565b6103e885890383820302048803871015610d415760798a901c6401ffffffff16420381811015610d37578181878b030281610d2d57610d2d6128e0565b0489039850610d3b565b8598505b60019450505b5050505b620fffff60b487901c1660ff60ac88901c161b80861115610d6c5780955060019150610d90565b50620fffff60d087901c1660ff60c888901c161b80861015610d9057809550600191505b8115610df957620fffff601b88901c169350620fffff602f88901c169250601a87901c600116600103610dd057610dc8848489611638565b985090945092505b83620f424003620f4240870281610de957610de96128e0565b049350620f424083810387020492505b8489526020890186905260408901849052606089018390526f4b3b4ca85a86c47a098a224000000000841015610e3e57610e348385026118e9565b60808a0152610e6d565b610e5d670de0b6b3a76400008404670de0b6b3a76400008604026118e9565b670de0b6b3a76400000260808a01525b6040517fb5c736e40000000000000000000000000000000000000000000000000000000081527f00000000000000000000000000000000000000000000000000000000000000006004820152610f23907352aa899454998be5b000ad077a46bbe360f4e4979063b5c736e4906024015b602060405180830381865afa158015610efa573d6000803e3d6000fd5b505050506040513d601f19601f82011682018060405250810190610f1e91906129b9565b61199b565b60c08b015260a08a01526040517fb5c736e40000000000000000000000000000000000000000000000000000000081527f00000000000000000000000000000000000000000000000000000000000000006004820152610fa1907352aa899454998be5b000ad077a46bbe360f4e4979063b5c736e490602401610edd565b6101008b015260e08a01525096979650505050505050565b6000806000610fdf8460800151856040015186606001518760a001518860e00151611ba9565b90506000610fee858388611ce4565b80516020909101519097909650945050505050565b6040517fb5c736e40000000000000000000000000000000000000000000000000000000081526002600482015260009081906fffffffffffffffffffffffffffffffff907f000000000000000000000000000000000000000000000000000000000000000073ffffffffffffffffffffffffffffffffffffffff169063b5c736e490602401602060405180830381865afa1580156110a5573d6000803e3d6000fd5b505050506040513d601f19601f820116820180604052508101906110c991906129b9565b1690508060000361110a576040517fc82fc46500000000000000000000000000000000000000000000000000000000815261ebac600482015260240161092b565b6000611117868686611e63565b9050816111447f0000000000000000000000000000000000000000000000000000000000000000836128c3565b61115a906b033b2e3c9fd0803ce80000006128c3565b611164919061290f565b925050505b9392505050565b60006111fe7f00000000000000000000000000000000000000000000000000000000000000007f00000000000000000000000000000000000000000000000000000000000000007f00000000000000000000000000000000000000000000000000000000000000007f00000000000000000000000000000000000000000000000000000000000000006113ec565b905080158061124157507f000000000000000000000000000000000000000000000000000000000000000073ffffffffffffffffffffffffffffffffffffffff16155b156112495790565b611255601b600a612af2565b6112e17f00000000000000000000000000000000000000000000000000000000000000007f00000000000000000000000000000000000000000000000000000000000000007f00000000000000000000000000000000000000000000000000000000000000007f00000000000000000000000000000000000000000000000000000000000000006113ec565b6112eb90836128c3565b6112f5919061290f565b905080158061133857507f000000000000000000000000000000000000000000000000000000000000000073ffffffffffffffffffffffffffffffffffffffff16155b156113405790565b61134c601b600a612af2565b6113d87f00000000000000000000000000000000000000000000000000000000000000007f00000000000000000000000000000000000000000000000000000000000000007f00000000000000000000000000000000000000000000000000000000000000007f00000000000000000000000000000000000000000000000000000000000000006113ec565b6113e290836128c3565b61088a919061290f565b60008473ffffffffffffffffffffffffffffffffffffffff1663feaf968c6040518163ffffffff1660e01b815260040160a060405180830381865afa925050508015611473575060408051601f3d9081017fffffffffffffffffffffffffffffffffffffffffffffffffffffffffffffffe016820190925261147091810190612b1d565b60015b61147f575060006114a5565b881561149b5761148f848861290f565b955050505050506114a5565b61148f88856128c3565b949350505050565b60008060006114d48460800151856040015186606001518760c00151886101000151611fb9565b90506000610fee858388612101565b6040517fb5c736e400000000000000000000000000000000000000000000000000000000815260048082015260009081906fffffffffffffffffffffffffffffffff907f000000000000000000000000000000000000000000000000000000000000000073ffffffffffffffffffffffffffffffffffffffff169063b5c736e490602401602060405180830381865afa158015611584573d6000803e3d6000fd5b505050506040513d601f19601f820116820180604052508101906115a891906129b9565b169050806000036115e9576040517fc82fc46500000000000000000000000000000000000000000000000000000000815261ebb6600482015260240161092b565b60006115f6868686611e63565b90506116227f0000000000000000000000000000000000000000000000000000000000000000826128c3565b61115a836b033b2e3c9fd0803ce80000006128c3565b6040517fb5c736e4000000000000000000000000000000000000000000000000000000008152600760048201526000908190819081906fffffffffffffffffffffffffffffffff9073ffffffffffffffffffffffffffffffffffffffff7f0000000000000000000000000000000000000000000000000000000000000000169063b5c736e490602401602060405180830381865afa1580156116de573d6000803e3d6000fd5b505050506040513d601f19601f8201168201806040525081019061170291906129b9565b169050620fffff80821690601483901c811690602884901c16603c84901c6401ffffffff16426117328383612b6d565b101561175557630400000019891698508a8a8a9750975097505050505050611789565b60006117618242612b80565b905061176f8c8683866122e7565b61177b8c8684876122e7565b8b9850985098505050505050505b93509350939050565b6000806000806fffffffffffffffffffffffffffffffff60807f000000000000000000000000000000000000000000000000000000000000000073ffffffffffffffffffffffffffffffffffffffff1663b5c736e4600760001b6040518263ffffffff1660e01b815260040161180a91815260200190565b602060405180830381865afa158015611827573d6000803e3d6000fd5b505050506040513d601f19601f8201168201806040525081019061184b91906129b9565b901c169050620fffff80821690601483901c811690602884901c16603c84901c6401ffffffff16605d85901c62ffffff16426118878484612b6d565b10156118a1578b8b8b985098509850505050505050611789565b60006118ad8342612b80565b90506118bb8d8783876122e7565b6118c78d8784886122e7565b6118d38d8585896122e7565b9950995099505050505050505093509350939050565b60b5817101000000000000000000000000000000000081106119105760409190911b9060801c5b6901000000000000000000811061192c5760209190911b9060401c5b6501000000000081106119445760109190911b9060201c5b6301000000811061195a5760089190911b9060101c5b62010000010260121c80820401600190811c80830401811c80830401811c80830401811c80830401811c80830401811c80830401901c908190048111900390565b67ffffffffffffffff605b82901c811690609b83901c168115806119bd575080155b156119f9576040517fd50d751200000000000000000000000000000000000000000000000000000000815262011171600482015260240161092b565b61ffff8316603a84901c6401ffffffff16428181039160ea87901c617fff16911480611a23575082155b80611a2e5750806001145b15611a3b57505050915091565b64496cebb80084840283020484019350617fff60db87901c16925082600103611a6657505050915091565b82600116600103611abb5760019290921c91826c7e37be2022c0914b268000000081611a9457611a946128e0565b049250612710601e87901c613fff166b033b2e3c9fd0803ce8000000850102049250611ae8565b60019290921c916305f5e100601e87901c613fff166127108501026b033b2e3c9fd0803ce8000000020492505b80600116600103611b1f5760011c61271081016b033b2e3c9fd0803ce8000000820281611b1757611b176128e0565b049050611b55565b60011c61271081016b033b2e3c9fd0803ce8000000820281611b4357611b436128e0565b046b033b2e3c9fd0803ce80000000390505b760a70c3c40a64e6c51999090b65f67d92400000000000008382026127100261ffff881691900402601087901c613fff16612710030292506801b5a660ea44b8000085840283020485019450505050915091565b611bd46040518060800160405280600081526020016000815260200160008152602001600081525090565b6000611c027f0000000000000000000000000000000000000000000000000000000000000000856001612360565b90506000611c327f0000000000000000000000000000000000000000000000000000000000000000856000612360565b90506b033b2e3c9fd0803ce8000000881015611c6357611c54888884846124e2565b60608501526040840152611cba565b611caf611c8789760a70c3c40a64e6c51999090b65f67d924000000000000061290f565b611ca888760a70c3c40a64e6c51999090b65f67d924000000000000061290f565b83856124e2565b604085015260608401525b81835260208301819052604083018051909201909152606082018051909101905295945050505050565b611d0f6040518060800160405280600081526020016000815260200160008152602001600081525090565b600083606001518460400151611d2591906128c3565b9050600084600001518560400151611d3d9190612b80565b9050600085602001518660600151611d559190612b80565b90506000808689604001511015611d7a57839150611d73828661290f565b9050611e30565b8689606001511115611d99575081611d92818661290f565b9150611e30565b74446c3b15f9926687d2c40534fdb564000000000000851015611de657611ddf87611dd0876b033b2e3c9fd0803ce80000006128c3565b611dda919061290f565b6118e9565b9150611e0c565b611e09611df3888761290f565b611dda906b033b2e3c9fd0803ce80000006128c3565b91505b6b033b2e3c9fd0803ce8000000611e2383896128c3565b611e2d919061290f565b90505b611e3a8483612b80565b8652611e468382612b80565b602087015260408601919091526060850152509195945050505050565b60007f000000000000000000000000000000000000000000000000000000000000000015611f3757611eac84760a70c3c40a64e6c51999090b65f67d924000000000000061290f565b93506b033b2e3c9fd0803ce8000000611ec585846128c3565b611ecf919061290f565b611ed99084612b6d565b90507f0000000000000000000000000000000000000000000000000000000000000000611f267f0000000000000000000000000000000000000000000000000000000000000000836128c3565b611f30919061290f565b9050611169565b6b033b2e3c9fd0803ce8000000611f4e85856128c3565b611f58919061290f565b611f629083612b6d565b90507f0000000000000000000000000000000000000000000000000000000000000000611faf7f0000000000000000000000000000000000000000000000000000000000000000836128c3565b6114a5919061290f565b611ff26040518060c001604052806000815260200160008152602001600081526020016000815260200160008152602001600081525090565b60006120207f0000000000000000000000000000000000000000000000000000000000000000856001612360565b905060006120507f0000000000000000000000000000000000000000000000000000000000000000856000612360565b8284526020840181905290506b033b2e3c9fd0803ce80000008810156120955761207c888784846125f9565b60a08701526080860152606085015260408401526120f6565b6120e16120b989760a70c3c40a64e6c51999090b65f67d924000000000000061290f565b6120da89760a70c3c40a64e6c51999090b65f67d924000000000000061290f565b83856125f9565b608087015260a0860152604085015260608401525b505095945050505050565b61213a6040518060c001604052806000815260200160008152602001600081526020016000815260200160008152602001600081525090565b60008360a00151846080015161215091906128c3565b90506000846040015185608001516121689190612b80565b9050600085606001518660a001516121809190612b80565b905060008086896040015110156121a55783915061219e828661290f565b9050612236565b86896060015111156121c45750816121bd818661290f565b9150612236565b74446c3b15f9926687d2c40534fdb564000000000000851015612202576121fb87611dd0876b033b2e3c9fd0803ce80000006128c3565b9150612212565b61220f611df3888761290f565b91505b6b033b2e3c9fd0803ce800000061222983896128c3565b612233919061290f565b90505b6122408483612b80565b604087015261224f8382612b80565b60608701526080860182905260a08087018290528801516040870151600091612277916128c3565b9050600087604001518a6080015161228f9190612b80565b905061229b818361290f565b602089015260808a015160608901516122b491906128c3565b915087606001518a60a001516122ca9190612b80565b90506122d6818361290f565b885250959998505050505050505050565b6000838511156123265760006122fd8587612b80565b90508261230a85836128c3565b612314919061290f565b61231e9086612b6d565b955050612357565b60006123328686612b80565b90508261233f85836128c3565b612349919061290f565b6123539086612b80565b9550505b50929392505050565b6040517fb5c736e40000000000000000000000000000000000000000000000000000000081526004810184905260009081907352aa899454998be5b000ad077a46bbe360f4e4979063b5c736e490602401602060405180830381865afa1580156123ce573d6000803e3d6000fd5b505050506040513d601f19601f820116820180604052508101906123f291906129b9565b905067ffffffffffffffff600182901c16915060ff8216600883901c901b91508060011660010361242a5764e8d4a510008285020491505b82612486577f00000000000000000000000000000000000000000000000000000000000000007f0000000000000000000000000000000000000000000000000000000000000000830281612480576124806128e0565b046124d9565b7f00000000000000000000000000000000000000000000000000000000000000007f00000000000000000000000000000000000000000000000000000000000000008302816124d7576124d76128e0565b045b95945050505050565b600080806124f08787612b80565b905060006124ff8260026128c3565b612515866b033b2e3c9fd0803ce80000006128c3565b61251f888b6128c3565b6125299190612b6d565b612533919061290f565b9050600061254186886128c3565b905074446c3b15f9926687d2c40534fdb564000000000000811061258457612569838261290f565b61257f906b033b2e3c9fd0803ce80000006128c3565b6125a5565b8261259b826b033b2e3c9fd0803ce80000006128c3565b6125a5919061290f565b90506125be6125b483806128c3565b611dda9083612b6d565b6125c89083612b6d565b94506b033b2e3c9fd0803ce80000006125e18a876128c3565b6125eb919061290f565b935050505094509492505050565b6000808080806b06765c793fa10079d0000000612622876b033b2e3c9fd0803ce80000006128c3565b61262c8b8a6128c3565b6126369190612b93565b6126409190612bb3565b9050600061264e87896128c3565b905074446c3b15f9926687d2c40534fdb564000000000000811061269257886126836b033b2e3c9fd0803ce80000008361290f565b61268d91906128c3565b6126b3565b6b033b2e3c9fd0803ce80000006126a98a836128c3565b6126b3919061290f565b90506126c26125b48380612c1b565b6126cc9083612c67565b94506126d889896128c3565b6126ee866b033b2e3c9fd0803ce80000006128c3565b6126f89190612b80565b9250620f4240831015612767576040517f08c379a000000000000000000000000000000000000000000000000000000000815260206004820152601560248201527f4465627420726573657276657320746f6f206c6f770000000000000000000000604482015260640161092b565b6a084595161401484a0000008510156127ac578261278586806128c3565b61279b906b033b2e3c9fd0803ce80000006128c3565b6127a5919061290f565b92506127d9565b6127c26b033b2e3c9fd0803ce80000008461290f565b6127cc86806128c3565b6127d6919061290f565b92505b87856127e582866128c3565b6127ef919061290f565b6127f99190612b80565b93506128058784612b6d565b61280f88866128c3565b612819919061290f565b95505050945094509450949050565b600060208083528351808285015260005b8181101561285557858101830151858201604001528201612839565b5060006040828601015260407fffffffffffffffffffffffffffffffffffffffffffffffffffffffffffffffe0601f8301168501019250505092915050565b7f4e487b7100000000000000000000000000000000000000000000000000000000600052601160045260246000fd5b80820281158282048414176128da576128da612894565b92915050565b7f4e487b7100000000000000000000000000000000000000000000000000000000600052601260045260246000fd5b60008261291e5761291e6128e0565b500490565b7f4e487b7100000000000000000000000000000000000000000000000000000000600052603260045260246000fd5b60007fffffffffffffffffffffffffffffffffffffffffffffffffffffffffffffffff820361298357612983612894565b5060010190565b7f4e487b7100000000000000000000000000000000000000000000000000000000600052604160045260246000fd5b6000602082840312156129cb57600080fd5b5051919050565b600181815b80851115612a2b57817fffffffffffffffffffffffffffffffffffffffffffffffffffffffffffffffff04821115612a1157612a11612894565b80851615612a1e57918102915b93841c93908002906129d7565b509250929050565b600082612a42575060016128da565b81612a4f575060006128da565b8160018114612a655760028114612a6f57612a8b565b60019150506128da565b60ff841115612a8057612a80612894565b50506001821b6128da565b5060208310610133831016604e8410600b8410161715612aae575081810a6128da565b612ab883836129d2565b807fffffffffffffffffffffffffffffffffffffffffffffffffffffffffffffffff04821115612aea57612aea612894565b029392505050565b60006111698383612a33565b805169ffffffffffffffffffff81168114612b1857600080fd5b919050565b600080600080600060a08688031215612b3557600080fd5b612b3e86612afe565b9450602086015193506040860151925060608601519150612b6160808701612afe565b90509295509295909350565b808201808211156128da576128da612894565b818103818111156128da576128da612894565b818103600083128015838313168383128216171561087957610879612894565b600082612bc257612bc26128e0565b7fffffffffffffffffffffffffffffffffffffffffffffffffffffffffffffffff83147f800000000000000000000000000000000000000000000000000000000000000083141615612c1657612c16612894565b500590565b808202600082127f800000000000000000000000000000000000000000000000000000000000000084141615612c5357612c53612894565b81810583148215176128da576128da612894565b8082018281126000831280158216821582161715612c8757612c87612894565b50509291505056fea2646970667358221220d3d15465b7f6069dccdf6cb38e92fd9a317ee0b995f17a34dcf6e06271e0135164736f6c63430008150033"
}