{
  "address": "0x674d013BDdeaC692e285B7988283dAB79590A698",
  "abi": [
    {
      "inputs": [
        {
          "internalType": "string",
          "name": "infoName_",
          "type": "string"
        },
        {
          "internalType": "address",
          "name": "dexPool_",
          "type": "address"
        },
        {
          "internalType": "address",
          "name": "reservesConversionOracle_",
          "type": "address"
        },
        {
          "internalType": "bool",
          "name": "quoteInToken0_",
          "type": "bool"
        },
        {
          "internalType": "bool",
          "name": "reservesConversionInvert_",
          "type": "bool"
        },
        {
          "internalType": "uint256",
          "name": "reservesPegBufferPercent_",
          "type": "uint256"
        },
        {
          "internalType": "contract IFluidOracle",
          "name": "colDebtOracle_",
          "type": "address"
        },
        {
          "internalType": "bool",
          "name": "colDebtInvert_",
          "type": "bool"
        },
        {
          "internalType": "uint8",
          "name": "colDebtDecimals_",
          "type": "uint8"
        }
      ],
      "stateMutability": "nonpayable",
      "type": "constructor"
    },
    {
      "inputs": [
        {
          "internalType": "uint256",
          "name": "errorId_",
          "type": "uint256"
        }
      ],
      "name": "FluidLiquidityCalcsError",
      "type": "error"
    },
    {
      "inputs": [
        {
          "internalType": "uint256",
          "name": "errorId_",
          "type": "uint256"
        }
      ],
      "name": "FluidOracleError",
      "type": "error"
    },
    {
      "inputs": [],
      "name": "dexSmartDebtOracleData",
      "outputs": [
        {
          "internalType": "address",
          "name": "dexPool_",
          "type": "address"
        },
        {
          "internalType": "uint256",
          "name": "reservesPegBufferPercent_",
          "type": "uint256"
        },
        {
          "internalType": "contract IFluidLiquidity",
          "name": "liquidity_",
          "type": "address"
        },
        {
          "internalType": "uint256",
          "name": "token0NumeratorPrecision_",
          "type": "uint256"
        },
        {
          "internalType": "uint256",
          "name": "token0DenominatorPrecision_",
          "type": "uint256"
        },
        {
          "internalType": "uint256",
          "name": "token1NumeratorPrecision_",
          "type": "uint256"
        },
        {
          "internalType": "uint256",
          "name": "token1DenominatorPrecision_",
          "type": "uint256"
        },
        {
          "internalType": "contract IFluidOracle",
          "name": "reservesConversionOracle_",
          "type": "address"
        },
        {
          "internalType": "bool",
          "name": "reservesConversionInvert_",
          "type": "bool"
        },
        {
          "internalType": "bool",
          "name": "quoteInToken0_",
          "type": "bool"
        }
      ],
      "stateMutability": "view",
      "type": "function"
    },
    {
      "inputs": [],
      "name": "dexSmartDebtSharesRates",
      "outputs": [
        {
          "internalType": "uint256",
          "name": "operate_",
          "type": "uint256"
        },
        {
          "internalType": "uint256",
          "name": "liquidate_",
          "type": "uint256"
        }
      ],
      "stateMutability": "view",
      "type": "function"
    },
    {
      "inputs": [],
      "name": "getDexSmartDebtOracleData",
      "outputs": [
        {
          "internalType": "address",
          "name": "colDebtOracle_",
          "type": "address"
        },
        {
          "internalType": "bool",
          "name": "colDebtInvert_",
          "type": "bool"
        },
        {
          "internalType": "uint8",
          "name": "colDebtDecimals_",
          "type": "uint8"
        }
      ],
      "stateMutability": "view",
      "type": "function"
    },
    {
      "inputs": [],
      "name": "getExchangeRate",
      "outputs": [
        {
          "internalType": "uint256",
          "name": "exchangeRate_",
          "type": "uint256"
        }
      ],
      "stateMutability": "view",
      "type": "function"
    },
    {
      "inputs": [],
      "name": "getExchangeRateLiquidate",
      "outputs": [
        {
          "internalType": "uint256",
          "name": "exchangeRate_",
          "type": "uint256"
        }
      ],
      "stateMutability": "view",
      "type": "function"
    },
    {
      "inputs": [],
      "name": "getExchangeRateOperate",
      "outputs": [
        {
          "internalType": "uint256",
          "name": "exchangeRate_",
          "type": "uint256"
        }
      ],
      "stateMutability": "view",
      "type": "function"
    },
    {
      "inputs": [],
      "name": "infoName",
      "outputs": [
        {
          "internalType": "string",
          "name": "",
          "type": "string"
        }
      ],
      "stateMutability": "view",
      "type": "function"
    }
  ],
  "transactionHash": "0x39b1dc3d8bb8a2ac7134ed509399cca6a89379c5a765fd7afc721644ed39b405",
  "args": [
    [
      "USDC/USDT debtShares per 1WSTETH",
      "0x667701e51B4D1Ca244F17C78F7aB8744B4C99F9B",
      "0x0000000000000000000000000000000000000000",
      false,
      false,
      1000,
      "0xb1e243A79a6106B2034D9eD0762b03f7c99A151f",
      false,
      8
    ]
  ],
  "numDeployments": 1,
  "linkedData": {
    "nonce": "26"
  },
  "bytecode": "0x6103006040523480156200001257600080fd5b5060405162001cf638038062001cf683398101604081905262000035916200035d565b87878787878d6020815111806200004b57508051155b15620000735760405163c82fc46560e01b815261ea6a60048201526024015b60405180910390fd5b60200151610260526001600160a01b038516158062000090575080155b15620000b45760405163c82fc46560e01b815261ebb560048201526024016200006a565b6001600160a01b03808616608081905284151560e05290851660a05282151560c05261010082905260408051635bbc8df960e11b815290516000929163b7791bf2916004808301926102409291908290030181865afa1580156200011c573d6000803e3d6000fd5b505050506040513d601f19601f820116820180604052508101906200014291906200054b565b60208101516001600160a01b03908116610120526101008201516101409081528201516101609081528201516101809081528201516101a05260408051631595cbd360e01b8152905192935060009291891691631595cbd3916004808201926080929091908290030181865afa158015620001c1573d6000803e3d6000fd5b505050506040513d601f19601f82011682018060405250810190620001e7919062000641565b80516101c05260208101516101e0526040810151610200526060810151610220529050600c6200021a6012601b620006c0565b620002269190620006dc565b6200023390600a620007ef565b610240525050506001600160a01b03871661028052505050508115156102a05260ff81166102c08190526012906200026d90601b620006c0565b620002799190620006dc565b6200028690600a620007ef565b6102e0525062000804975050505050505050565b634e487b7160e01b600052604160045260246000fd5b6040516101c081016001600160401b0381118282101715620002d657620002d66200029a565b60405290565b604051601f8201601f191681016001600160401b03811182821017156200030757620003076200029a565b604052919050565b6001600160a01b03811681146200032557600080fd5b50565b805162000335816200030f565b919050565b805180151581146200033557600080fd5b805160ff811681146200033557600080fd5b60008060008060008060008060006101208a8c0312156200037d57600080fd5b89516001600160401b03808211156200039557600080fd5b818c0191508c601f830112620003aa57600080fd5b815181811115620003bf57620003bf6200029a565b60209150620003d7601f8201601f19168301620002dc565b8181528e83838601011115620003ec57600080fd5b60005b828110156200040c578481018401518282018501528301620003ef565b506000838383010152809c50505062000427818d0162000328565b995050506200043960408b0162000328565b96506200044960608b016200033a565b95506200045960808b016200033a565b945060a08a015193506200047060c08b0162000328565b92506200048060e08b016200033a565b9150620004916101008b016200034b565b90509295985092959850929598565b600060a08284031215620004b357600080fd5b60405160a081016001600160401b0381118282101715620004d857620004d86200029a565b80604052508091508251620004ed816200030f565b81526020830151620004ff816200030f565b6020820152604083015162000514816200030f565b6040820152606083015162000529816200030f565b606082015260808301516200053e816200030f565b6080919091015292915050565b600061024082840312156200055f57600080fd5b62000569620002b0565b825181526200057b6020840162000328565b60208201526200058e6040840162000328565b6040820152620005a28460608501620004a0565b6060820152610100620005b781850162000328565b6080830152610120620005cc81860162000328565b60a0840152610140620005e181870162000328565b60c08501526101608087015160e086015261018080880151858701526101a0945084880151848701526101c0880151838701526101e088015182870152610200880151818701525050505061022084015181830152508091505092915050565b6000608082840312156200065457600080fd5b604051608081016001600160401b03811182821017156200067957620006796200029a565b8060405250825181526020830151602082015260408301516040820152606083015160608201528091505092915050565b634e487b7160e01b600052601160045260246000fd5b80820180821115620006d657620006d6620006aa565b92915050565b81810381811115620006d657620006d6620006aa565b600181815b8085111562000733578160001904821115620007175762000717620006aa565b808516156200072557918102915b93841c9390800290620006f7565b509250929050565b6000826200074c57506001620006d6565b816200075b57506000620006d6565b81600181146200077457600281146200077f576200079f565b6001915050620006d6565b60ff841115620007935762000793620006aa565b50506001821b620006d6565b5060208310610133831016604e8410600b8410161715620007c4575081810a620006d6565b620007d08383620006f2565b8060001904821115620007e757620007e7620006aa565b029392505050565b6000620007fd83836200073b565b9392505050565b60805160a05160c05160e05161010051610120516101405161016051610180516101a0516101c0516101e05161020051610220516102405161026051610280516102a0516102c0516102e0516113866200097060003960008181610326015261051f0152600060c601526000818160a501526106cc015260008181608401528181610554015281816105a7015261063b0152600081816103be0152610483015260006107800152600081816102690152610d800152600081816102430152610da101526000818161021d0152610dd70152600081816101f70152610df801526000610ba701526000610b5901526000610b8601526000610b380152600081816101cd01528181610c1c0152610cd90152600081816101a70152610aef0152600081816102e20152610a620152600081816102b90152610a1801526000818161028f015281816108a0015281816108f30152610987015260008181610182015261080601526113866000f3fe608060405234801561001057600080fd5b506004361061007d5760003560e01c8063abd5f95d1161005b578063abd5f95d14610152578063b8a4c0a614610167578063e6aa216c14610312578063f3190c891461031a57600080fd5b80638164d9aa146100825780638e7bfbc01461011f57806396aa229c14610135575b600080fd5b7f00000000000000000000000000000000000000000000000000000000000000007f00000000000000000000000000000000000000000000000000000000000000007f00000000000000000000000000000000000000000000000000000000000000006040805173ffffffffffffffffffffffffffffffffffffffff9094168452911515602084015260ff16908201526060015b60405180910390f35b610127610322565b604051908152602001610116565b61013d610391565b60408051928352602083019190915201610116565b61015a6103ac565b6040516101169190611040565b6040805173ffffffffffffffffffffffffffffffffffffffff7f0000000000000000000000000000000000000000000000000000000000000000811682527f000000000000000000000000000000000000000000000000000000000000000060208301527f00000000000000000000000000000000000000000000000000000000000000008116928201929092527f000000000000000000000000000000000000000000000000000000000000000060608201527f000000000000000000000000000000000000000000000000000000000000000060808201527f000000000000000000000000000000000000000000000000000000000000000060a08201527f000000000000000000000000000000000000000000000000000000000000000060c08201527f00000000000000000000000000000000000000000000000000000000000000009190911660e08201527f000000000000000000000000000000000000000000000000000000000000000015156101008201527f0000000000000000000000000000000000000000000000000000000000000000151561012082015261014001610116565b610127610511565b61012761051b565b60007f000000000000000000000000000000000000000000000000000000000000000061034f6001610550565b610357610719565b61037890760a70c3c40a64e6c51999090b65f67d924000000000000061110a565b6103829190611145565b61038c919061110a565b905090565b60008061039c610719565b6103a4610725565b915091509091565b606060005b60208110801561041757507f000000000000000000000000000000000000000000000000000000000000000081602081106103ee576103ee611162565b1a60f81b7fff000000000000000000000000000000000000000000000000000000000000001615155b1561042e578061042681611191565b9150506103b1565b60008167ffffffffffffffff811115610449576104496111c9565b6040519080825280601f01601f191660200182016040528015610473576020820181803683370190505b50905060005b8281101561050a577f000000000000000000000000000000000000000000000000000000000000000081602081106104b3576104b3611162565b1a60f81b8282815181106104c9576104c9611162565b60200101907effffffffffffffffffffffffffffffffffffffffffffffffffffffffffffff1916908160001a9053508061050281611191565b915050610479565b5092915050565b600061038c610322565b60007f00000000000000000000000000000000000000000000000000000000000000006105486000610550565b610357610725565b60007f000000000000000000000000000000000000000000000000000000000000000073ffffffffffffffffffffffffffffffffffffffff166105a057506b033b2e3c9fd0803ce8000000919050565b81610639577f000000000000000000000000000000000000000000000000000000000000000073ffffffffffffffffffffffffffffffffffffffff1663f3190c896040518163ffffffff1660e01b8152600401602060405180830381865afa158015610610573d6000803e3d6000fd5b505050506040513d601f19601f8201168201806040525081019061063491906111f8565b6106c8565b7f000000000000000000000000000000000000000000000000000000000000000073ffffffffffffffffffffffffffffffffffffffff16638e7bfbc06040518163ffffffff1660e01b8152600401602060405180830381865afa1580156106a4573d6000803e3d6000fd5b505050506040513d601f19601f820116820180604052508101906106c891906111f8565b90507f0000000000000000000000000000000000000000000000000000000000000000156107145761071181760a70c3c40a64e6c51999090b65f67d924000000000000061110a565b90505b919050565b600061038c600161072d565b600061038c60005b6000806107386107c3565b90508060000361077d576040517fc82fc46500000000000000000000000000000000000000000000000000000000815261ebb660048201526024015b60405180910390fd5b807f00000000000000000000000000000000000000000000000000000000000000006107a88561088c565b6107b29190611145565b6107bc919061110a565b9392505050565b6040517fb5c736e40000000000000000000000000000000000000000000000000000000081526004808201526000906fffffffffffffffffffffffffffffffff907f000000000000000000000000000000000000000000000000000000000000000073ffffffffffffffffffffffffffffffffffffffff169063b5c736e490602401602060405180830381865afa158015610862573d6000803e3d6000fd5b505050506040513d601f19601f8201168201806040525081019061088691906111f8565b16905090565b6000806000610899610b30565b90925090507f000000000000000000000000000000000000000000000000000000000000000073ffffffffffffffffffffffffffffffffffffffff166108ea576108e38183611211565b9250610ae6565b600084610985577f000000000000000000000000000000000000000000000000000000000000000073ffffffffffffffffffffffffffffffffffffffff1663f3190c896040518163ffffffff1660e01b8152600401602060405180830381865afa15801561095c573d6000803e3d6000fd5b505050506040513d601f19601f8201168201806040525081019061098091906111f8565b610a14565b7f000000000000000000000000000000000000000000000000000000000000000073ffffffffffffffffffffffffffffffffffffffff16638e7bfbc06040518163ffffffff1660e01b8152600401602060405180830381865afa1580156109f0573d6000803e3d6000fd5b505050506040513d601f19601f82011682018060405250810190610a1491906111f8565b90507f000000000000000000000000000000000000000000000000000000000000000015610a6057610a5d81760a70c3c40a64e6c51999090b65f67d924000000000000061110a565b90505b7f000000000000000000000000000000000000000000000000000000000000000015610ab757610a92601b600a611344565b610a9c8284611145565b610aa6919061110a565b610ab09084611211565b9350610ae4565b610ac3601b600a611344565b610acd8285611145565b610ad7919061110a565b610ae19083611211565b93505b505b620f4240610b147f000000000000000000000000000000000000000000000000000000000000000082611211565b610b1e9085611145565b610b28919061110a565b949350505050565b600080610b7f7f00000000000000000000000000000000000000000000000000000000000000007f00000000000000000000000000000000000000000000000000000000000000006001610bd3565b9150610bcd7f00000000000000000000000000000000000000000000000000000000000000007f00000000000000000000000000000000000000000000000000000000000000006000610bd3565b90509091565b6040517fb5c736e400000000000000000000000000000000000000000000000000000000815260048101849052600090819073ffffffffffffffffffffffffffffffffffffffff7f0000000000000000000000000000000000000000000000000000000000000000169063b5c736e490602401602060405180830381865afa158015610c63573d6000803e3d6000fd5b505050506040513d601f19601f82011682018060405250810190610c8791906111f8565b6040517fb5c736e400000000000000000000000000000000000000000000000000000000815260048101869052600982901c66ffffffffffffff16600183901c60ff161b9350909150600090610d5e907f000000000000000000000000000000000000000000000000000000000000000073ffffffffffffffffffffffffffffffffffffffff169063b5c736e490602401602060405180830381865afa158015610d35573d6000803e3d6000fd5b505050506040513d601f19601f82011682018060405250810190610d5991906111f8565b610e32565b91505081600116600103610d795764e8d4a510008382020492505b83610dd5577f00000000000000000000000000000000000000000000000000000000000000007f0000000000000000000000000000000000000000000000000000000000000000840281610dcf57610dcf6110ac565b04610e28565b7f00000000000000000000000000000000000000000000000000000000000000007f0000000000000000000000000000000000000000000000000000000000000000840281610e2657610e266110ac565b045b9695505050505050565b67ffffffffffffffff605b82901c811690609b83901c16811580610e54575080155b15610e90576040517fd50d7512000000000000000000000000000000000000000000000000000000008152620111716004820152602401610774565b61ffff8316603a84901c6401ffffffff16428181039160ea87901c617fff16911480610eba575082155b80610ec55750806001145b15610ed257505050915091565b64496cebb80084840283020484019350617fff60db87901c16925082600103610efd57505050915091565b82600116600103610f525760019290921c91826c7e37be2022c0914b268000000081610f2b57610f2b6110ac565b049250612710601e87901c613fff166b033b2e3c9fd0803ce8000000850102049250610f7f565b60019290921c916305f5e100601e87901c613fff166127108501026b033b2e3c9fd0803ce8000000020492505b80600116600103610fb65760011c61271081016b033b2e3c9fd0803ce8000000820281610fae57610fae6110ac565b049050610fec565b60011c61271081016b033b2e3c9fd0803ce8000000820281610fda57610fda6110ac565b046b033b2e3c9fd0803ce80000000390505b760a70c3c40a64e6c51999090b65f67d92400000000000008382026127100261ffff881691900402601087901c613fff16612710030292506801b5a660ea44b8000085840283020485019450505050915091565b600060208083528351808285015260005b8181101561106d57858101830151858201604001528201611051565b5060006040828601015260407fffffffffffffffffffffffffffffffffffffffffffffffffffffffffffffffe0601f8301168501019250505092915050565b7f4e487b7100000000000000000000000000000000000000000000000000000000600052601260045260246000fd5b7f4e487b7100000000000000000000000000000000000000000000000000000000600052601160045260246000fd5b600082611140577f4e487b7100000000000000000000000000000000000000000000000000000000600052601260045260246000fd5b500490565b808202811582820484141761115c5761115c6110db565b92915050565b7f4e487b7100000000000000000000000000000000000000000000000000000000600052603260045260246000fd5b60007fffffffffffffffffffffffffffffffffffffffffffffffffffffffffffffffff82036111c2576111c26110db565b5060010190565b7f4e487b7100000000000000000000000000000000000000000000000000000000600052604160045260246000fd5b60006020828403121561120a57600080fd5b5051919050565b8082018082111561115c5761115c6110db565b600181815b8085111561127d57817fffffffffffffffffffffffffffffffffffffffffffffffffffffffffffffffff04821115611263576112636110db565b8085161561127057918102915b93841c9390800290611229565b509250929050565b6000826112945750600161115c565b816112a15750600061115c565b81600181146112b757600281146112c1576112dd565b600191505061115c565b60ff8411156112d2576112d26110db565b50506001821b61115c565b5060208310610133831016604e8410600b8410161715611300575081810a61115c565b61130a8383611224565b807fffffffffffffffffffffffffffffffffffffffffffffffffffffffffffffffff0482111561133c5761133c6110db565b029392505050565b60006107bc838361128556fea264697066735822122000e0d0197c1f8d0a797ab412cf2f890dbcef23c08af1c7128ae1b6577428208c64736f6c63430008150033"
}