{
  "address": "0x6E09F5E75FF59A35237DeE49078d07f316F90Ad9",
  "abi": [
    {
      "inputs": [
        {
          "internalType": "string",
          "name": "infoName_",
          "type": "string"
        },
        {
          "internalType": "address",
          "name": "dexPool_",
          "type": "address"
        },
        {
          "internalType": "address",
          "name": "reservesConversionOracle_",
          "type": "address"
        },
        {
          "internalType": "bool",
          "name": "quoteInToken0_",
          "type": "bool"
        },
        {
          "internalType": "bool",
          "name": "reservesConversionInvert_",
          "type": "bool"
        },
        {
          "internalType": "uint256",
          "name": "reservesPegBufferPercent_",
          "type": "uint256"
        },
        {
          "internalType": "contract IFluidOracle",
          "name": "colDebtOracle_",
          "type": "address"
        },
        {
          "internalType": "bool",
          "name": "colDebtInvert_",
          "type": "bool"
        },
        {
          "internalType": "uint8",
          "name": "colDebtDecimals_",
          "type": "uint8"
        }
      ],
      "stateMutability": "nonpayable",
      "type": "constructor"
    },
    {
      "inputs": [
        {
          "internalType": "uint256",
          "name": "errorId_",
          "type": "uint256"
        }
      ],
      "name": "FluidLiquidityCalcsError",
      "type": "error"
    },
    {
      "inputs": [
        {
          "internalType": "uint256",
          "name": "errorId_",
          "type": "uint256"
        }
      ],
      "name": "FluidOracleError",
      "type": "error"
    },
    {
      "inputs": [],
      "name": "dexSmartColOracleData",
      "outputs": [
        {
          "internalType": "address",
          "name": "dexPool_",
          "type": "address"
        },
        {
          "internalType": "uint256",
          "name": "reservesPegBufferPercent_",
          "type": "uint256"
        },
        {
          "internalType": "contract IFluidLiquidity",
          "name": "liquidity_",
          "type": "address"
        },
        {
          "internalType": "uint256",
          "name": "token0NumeratorPrecision_",
          "type": "uint256"
        },
        {
          "internalType": "uint256",
          "name": "token0DenominatorPrecision_",
          "type": "uint256"
        },
        {
          "internalType": "uint256",
          "name": "token1NumeratorPrecision_",
          "type": "uint256"
        },
        {
          "internalType": "uint256",
          "name": "token1DenominatorPrecision_",
          "type": "uint256"
        },
        {
          "internalType": "contract IFluidOracle",
          "name": "reservesConversionOracle_",
          "type": "address"
        },
        {
          "internalType": "bool",
          "name": "reservesConversionInvert_",
          "type": "bool"
        },
        {
          "internalType": "bool",
          "name": "quoteInToken0_",
          "type": "bool"
        }
      ],
      "stateMutability": "view",
      "type": "function"
    },
    {
      "inputs": [],
      "name": "dexSmartColSharesRates",
      "outputs": [
        {
          "internalType": "uint256",
          "name": "operate_",
          "type": "uint256"
        },
        {
          "internalType": "uint256",
          "name": "liquidate_",
          "type": "uint256"
        }
      ],
      "stateMutability": "view",
      "type": "function"
    },
    {
      "inputs": [],
      "name": "getDexSmartColOracleData",
      "outputs": [
        {
          "internalType": "address",
          "name": "colDebtOracle_",
          "type": "address"
        },
        {
          "internalType": "bool",
          "name": "colDebtInvert_",
          "type": "bool"
        },
        {
          "internalType": "uint8",
          "name": "colDebtDecimals_",
          "type": "uint8"
        }
      ],
      "stateMutability": "view",
      "type": "function"
    },
    {
      "inputs": [],
      "name": "getExchangeRate",
      "outputs": [
        {
          "internalType": "uint256",
          "name": "exchangeRate_",
          "type": "uint256"
        }
      ],
      "stateMutability": "view",
      "type": "function"
    },
    {
      "inputs": [],
      "name": "getExchangeRateLiquidate",
      "outputs": [
        {
          "internalType": "uint256",
          "name": "exchangeRate_",
          "type": "uint256"
        }
      ],
      "stateMutability": "view",
      "type": "function"
    },
    {
      "inputs": [],
      "name": "getExchangeRateOperate",
      "outputs": [
        {
          "internalType": "uint256",
          "name": "exchangeRate_",
          "type": "uint256"
        }
      ],
      "stateMutability": "view",
      "type": "function"
    },
    {
      "inputs": [],
      "name": "infoName",
      "outputs": [
        {
          "internalType": "string",
          "name": "",
          "type": "string"
        }
      ],
      "stateMutability": "view",
      "type": "function"
    }
  ],
  "transactionHash": "0xe5337b4f81f089573443a5a01942f00dce72a3d4906f11e280942e6b8351f23e",
  "args": [
    [
      "USDT per 1 WBTC/CBBTC col share",
      "0x1d3e52a11B98Ed2AAB7eB0Bfe1cbB6525233204d",
      "0x0000000000000000000000000000000000000000",
      false,
      false,
      5000,
      "0xF38776BfEf1E2c395f80733045E4D2BCFE98f97a",
      false,
      8
    ]
  ],
  "numDeployments": 1,
  "linkedData": {
    "nonce": "9"
  },
  "bytecode": "0x6103006040523480156200001257600080fd5b5060405162001cea38038062001cea83398101604081905262000035916200035a565b87878787878d6020815111806200004b57508051155b15620000735760405163c82fc46560e01b815261ea6a60048201526024015b60405180910390fd5b60200151610260526001600160a01b038516158062000090575080155b15620000b45760405163c82fc46560e01b815261ebab60048201526024016200006a565b6001600160a01b03808616608081905284151560e05290851660a05282151560c05261010082905260408051635bbc8df960e11b815290516000929163b7791bf2916004808301926102409291908290030181865afa1580156200011c573d6000803e3d6000fd5b505050506040513d601f19601f8201168201806040525081019062000142919062000548565b60208101516001600160a01b0390811661012090815260e0830151610140528201516101609081528201516101809081528201516101a05260408051631595cbd360e01b8152905192935060009291891691631595cbd3916004808201926080929091908290030181865afa158015620001c0573d6000803e3d6000fd5b505050506040513d601f19601f82011682018060405250810190620001e691906200063e565b80516101c05260208101516101e0526040810151610200526060810151610220529050600c620002196012601b620006bd565b620002259190620006d9565b6200023290600a620007ec565b610240525050506001600160a01b03871661028052505050508115156102a05260ff81166102c08190526200026a6012601b620006bd565b620002769190620006d9565b6200028390600a620007ec565b6102e0525062000801975050505050505050565b634e487b7160e01b600052604160045260246000fd5b6040516101c081016001600160401b0381118282101715620002d357620002d362000297565b60405290565b604051601f8201601f191681016001600160401b038111828210171562000304576200030462000297565b604052919050565b6001600160a01b03811681146200032257600080fd5b50565b805162000332816200030c565b919050565b805180151581146200033257600080fd5b805160ff811681146200033257600080fd5b60008060008060008060008060006101208a8c0312156200037a57600080fd5b89516001600160401b03808211156200039257600080fd5b818c0191508c601f830112620003a757600080fd5b815181811115620003bc57620003bc62000297565b60209150620003d4601f8201601f19168301620002d9565b8181528e83838601011115620003e957600080fd5b60005b8281101562000409578481018401518282018501528301620003ec565b506000838383010152809c50505062000424818d0162000325565b995050506200043660408b0162000325565b96506200044660608b0162000337565b95506200045660808b0162000337565b945060a08a015193506200046d60c08b0162000325565b92506200047d60e08b0162000337565b91506200048e6101008b0162000348565b90509295985092959850929598565b600060a08284031215620004b057600080fd5b60405160a081016001600160401b0381118282101715620004d557620004d562000297565b80604052508091508251620004ea816200030c565b81526020830151620004fc816200030c565b6020820152604083015162000511816200030c565b6040820152606083015162000526816200030c565b606082015260808301516200053b816200030c565b6080919091015292915050565b600061024082840312156200055c57600080fd5b62000566620002ad565b82518152620005786020840162000325565b60208201526200058b6040840162000325565b60408201526200059f84606085016200049d565b6060820152610100620005b481850162000325565b6080830152610120620005c981860162000325565b60a0840152610140620005de81870162000325565b60c08501526101608087015160e086015261018080880151858701526101a0945084880151848701526101c0880151838701526101e088015182870152610200880151818701525050505061022084015181830152508091505092915050565b6000608082840312156200065157600080fd5b604051608081016001600160401b038111828210171562000676576200067662000297565b8060405250825181526020830151602082015260408301516040820152606083015160608201528091505092915050565b634e487b7160e01b600052601160045260246000fd5b80820180821115620006d357620006d3620006a7565b92915050565b81810381811115620006d357620006d3620006a7565b600181815b8085111562000730578160001904821115620007145762000714620006a7565b808516156200072257918102915b93841c9390800290620006f4565b509250929050565b6000826200074957506001620006d3565b816200075857506000620006d3565b81600181146200077157600281146200077c576200079c565b6001915050620006d3565b60ff841115620007905762000790620006a7565b50506001821b620006d3565b5060208310610133831016604e8410600b8410161715620007c1575081810a620006d3565b620007cd8383620006ef565b8060001904821115620007e457620007e4620006a7565b029392505050565b6000620007fa838362000738565b9392505050565b60805160a05160c05160e05161010051610120516101405161016051610180516101a0516101c0516101e05161020051610220516102405161026051610280516102a0516102c0516102e05161137d6200096d6000396000818161034101526104fe0152600060c601526000818160a501526106c301526000818160840152818161054b0152818161059e015261063201526000818161039d0152610462015260006107630152600081816102690152610d640152600081816102430152610d8501526000818161021d0152610dbb0152600081816101f70152610ddc01526000610b8b01526000610b3d01526000610b6a01526000610b1c0152600081816101cd01528181610c000152610cbd0152600081816101a70152610ad30152600081816102e20152610a460152600081816102b901526109fc01526000818161028f01528181610884015281816108d7015261096b01526000818161018201526107ea015261137d6000f3fe608060405234801561001057600080fd5b506004361061007d5760003560e01c8063abd5f95d1161005b578063abd5f95d14610152578063d223f01714610167578063e6aa216c14610312578063f3190c891461031a57600080fd5b80631bb2f2a614610082578063287960581461011f5780638e7bfbc01461013c575b600080fd5b7f00000000000000000000000000000000000000000000000000000000000000007f00000000000000000000000000000000000000000000000000000000000000007f00000000000000000000000000000000000000000000000000000000000000006040805173ffffffffffffffffffffffffffffffffffffffff9094168452911515602084015260ff16908201526060015b60405180910390f35b610127610322565b60408051928352602083019190915201610116565b61014461033d565b604051908152602001610116565b61015a61038b565b6040516101169190611024565b6040805173ffffffffffffffffffffffffffffffffffffffff7f0000000000000000000000000000000000000000000000000000000000000000811682527f000000000000000000000000000000000000000000000000000000000000000060208301527f00000000000000000000000000000000000000000000000000000000000000008116928201929092527f000000000000000000000000000000000000000000000000000000000000000060608201527f000000000000000000000000000000000000000000000000000000000000000060808201527f000000000000000000000000000000000000000000000000000000000000000060a08201527f000000000000000000000000000000000000000000000000000000000000000060c08201527f00000000000000000000000000000000000000000000000000000000000000009190911660e08201527f000000000000000000000000000000000000000000000000000000000000000015156101008201527f0000000000000000000000000000000000000000000000000000000000000000151561012082015261014001610116565b6101446104f0565b6101446104fa565b60008061032d61052f565b61033561053b565b915091509091565b60007f000000000000000000000000000000000000000000000000000000000000000061036a6001610547565b61037261052f565b61037c91906110bf565b610386919061110b565b905090565b606060005b6020811080156103f657507f000000000000000000000000000000000000000000000000000000000000000081602081106103cd576103cd611146565b1a60f81b7fff000000000000000000000000000000000000000000000000000000000000001615155b1561040d578061040581611175565b915050610390565b60008167ffffffffffffffff811115610428576104286111ad565b6040519080825280601f01601f191660200182016040528015610452576020820181803683370190505b50905060005b828110156104e9577f0000000000000000000000000000000000000000000000000000000000000000816020811061049257610492611146565b1a60f81b8282815181106104a8576104a8611146565b60200101907effffffffffffffffffffffffffffffffffffffffffffffffffffffffffffff1916908160001a905350806104e181611175565b915050610458565b5092915050565b600061038661033d565b60007f00000000000000000000000000000000000000000000000000000000000000006105276000610547565b61037261053b565b60006103866001610710565b60006103866000610710565b60007f000000000000000000000000000000000000000000000000000000000000000073ffffffffffffffffffffffffffffffffffffffff1661059757506b033b2e3c9fd0803ce8000000919050565b81610630577f000000000000000000000000000000000000000000000000000000000000000073ffffffffffffffffffffffffffffffffffffffff1663f3190c896040518163ffffffff1660e01b8152600401602060405180830381865afa158015610607573d6000803e3d6000fd5b505050506040513d601f19601f8201168201806040525081019061062b91906111dc565b6106bf565b7f000000000000000000000000000000000000000000000000000000000000000073ffffffffffffffffffffffffffffffffffffffff16638e7bfbc06040518163ffffffff1660e01b8152600401602060405180830381865afa15801561069b573d6000803e3d6000fd5b505050506040513d601f19601f820116820180604052508101906106bf91906111dc565b90507f00000000000000000000000000000000000000000000000000000000000000001561070b5761070881760a70c3c40a64e6c51999090b65f67d924000000000000061110b565b90505b919050565b60008061071b6107a6565b905080600003610760576040517fc82fc46500000000000000000000000000000000000000000000000000000000815261ebac60048201526024015b60405180910390fd5b807f000000000000000000000000000000000000000000000000000000000000000061078b85610870565b61079591906110bf565b61079f919061110b565b9392505050565b6040517fb5c736e4000000000000000000000000000000000000000000000000000000008152600260048201526000906fffffffffffffffffffffffffffffffff907f000000000000000000000000000000000000000000000000000000000000000073ffffffffffffffffffffffffffffffffffffffff169063b5c736e490602401602060405180830381865afa158015610846573d6000803e3d6000fd5b505050506040513d601f19601f8201168201806040525081019061086a91906111dc565b16905090565b600080600061087d610b14565b90925090507f000000000000000000000000000000000000000000000000000000000000000073ffffffffffffffffffffffffffffffffffffffff166108ce576108c781836111f5565b9250610aca565b600084610969577f000000000000000000000000000000000000000000000000000000000000000073ffffffffffffffffffffffffffffffffffffffff1663f3190c896040518163ffffffff1660e01b8152600401602060405180830381865afa158015610940573d6000803e3d6000fd5b505050506040513d601f19601f8201168201806040525081019061096491906111dc565b6109f8565b7f000000000000000000000000000000000000000000000000000000000000000073ffffffffffffffffffffffffffffffffffffffff16638e7bfbc06040518163ffffffff1660e01b8152600401602060405180830381865afa1580156109d4573d6000803e3d6000fd5b505050506040513d601f19601f820116820180604052508101906109f891906111dc565b90507f000000000000000000000000000000000000000000000000000000000000000015610a4457610a4181760a70c3c40a64e6c51999090b65f67d924000000000000061110b565b90505b7f000000000000000000000000000000000000000000000000000000000000000015610a9b57610a76601b600a611328565b610a8082846110bf565b610a8a919061110b565b610a9490846111f5565b9350610ac8565b610aa7601b600a611328565b610ab182856110bf565b610abb919061110b565b610ac590836111f5565b93505b505b620f4240610af87f000000000000000000000000000000000000000000000000000000000000000082611334565b610b0290856110bf565b610b0c919061110b565b949350505050565b600080610b637f00000000000000000000000000000000000000000000000000000000000000007f00000000000000000000000000000000000000000000000000000000000000006001610bb7565b9150610bb17f00000000000000000000000000000000000000000000000000000000000000007f00000000000000000000000000000000000000000000000000000000000000006000610bb7565b90509091565b6040517fb5c736e400000000000000000000000000000000000000000000000000000000815260048101849052600090819073ffffffffffffffffffffffffffffffffffffffff7f0000000000000000000000000000000000000000000000000000000000000000169063b5c736e490602401602060405180830381865afa158015610c47573d6000803e3d6000fd5b505050506040513d601f19601f82011682018060405250810190610c6b91906111dc565b6040517fb5c736e400000000000000000000000000000000000000000000000000000000815260048101869052600982901c66ffffffffffffff16600183901c60ff161b9350909150600090610d42907f000000000000000000000000000000000000000000000000000000000000000073ffffffffffffffffffffffffffffffffffffffff169063b5c736e490602401602060405180830381865afa158015610d19573d6000803e3d6000fd5b505050506040513d601f19601f82011682018060405250810190610d3d91906111dc565b610e16565b50905081600116600103610d5d5764e8d4a510008382020492505b83610db9577f00000000000000000000000000000000000000000000000000000000000000007f0000000000000000000000000000000000000000000000000000000000000000840281610db357610db36110dc565b04610e0c565b7f00000000000000000000000000000000000000000000000000000000000000007f0000000000000000000000000000000000000000000000000000000000000000840281610e0a57610e0a6110dc565b045b9695505050505050565b67ffffffffffffffff605b82901c811690609b83901c16811580610e38575080155b15610e74576040517fd50d7512000000000000000000000000000000000000000000000000000000008152620111716004820152602401610757565b61ffff8316603a84901c6401ffffffff16428181039160ea87901c617fff16911480610e9e575082155b80610ea95750806001145b15610eb657505050915091565b64496cebb80084840283020484019350617fff60db87901c16925082600103610ee157505050915091565b82600116600103610f365760019290921c91826c7e37be2022c0914b268000000081610f0f57610f0f6110dc565b049250612710601e87901c613fff166b033b2e3c9fd0803ce8000000850102049250610f63565b60019290921c916305f5e100601e87901c613fff166127108501026b033b2e3c9fd0803ce8000000020492505b80600116600103610f9a5760011c61271081016b033b2e3c9fd0803ce8000000820281610f9257610f926110dc565b049050610fd0565b60011c61271081016b033b2e3c9fd0803ce8000000820281610fbe57610fbe6110dc565b046b033b2e3c9fd0803ce80000000390505b760a70c3c40a64e6c51999090b65f67d92400000000000008382026127100261ffff881691900402601087901c613fff16612710030292506801b5a660ea44b8000085840283020485019450505050915091565b600060208083528351808285015260005b8181101561105157858101830151858201604001528201611035565b5060006040828601015260407fffffffffffffffffffffffffffffffffffffffffffffffffffffffffffffffe0601f8301168501019250505092915050565b7f4e487b7100000000000000000000000000000000000000000000000000000000600052601160045260246000fd5b80820281158282048414176110d6576110d6611090565b92915050565b7f4e487b7100000000000000000000000000000000000000000000000000000000600052601260045260246000fd5b600082611141577f4e487b7100000000000000000000000000000000000000000000000000000000600052601260045260246000fd5b500490565b7f4e487b7100000000000000000000000000000000000000000000000000000000600052603260045260246000fd5b60007fffffffffffffffffffffffffffffffffffffffffffffffffffffffffffffffff82036111a6576111a6611090565b5060010190565b7f4e487b7100000000000000000000000000000000000000000000000000000000600052604160045260246000fd5b6000602082840312156111ee57600080fd5b5051919050565b808201808211156110d6576110d6611090565b600181815b8085111561126157817fffffffffffffffffffffffffffffffffffffffffffffffffffffffffffffffff0482111561124757611247611090565b8085161561125457918102915b93841c939080029061120d565b509250929050565b600082611278575060016110d6565b81611285575060006110d6565b816001811461129b57600281146112a5576112c1565b60019150506110d6565b60ff8411156112b6576112b6611090565b50506001821b6110d6565b5060208310610133831016604e8410600b84101617156112e4575081810a6110d6565b6112ee8383611208565b807fffffffffffffffffffffffffffffffffffffffffffffffffffffffffffffffff0482111561132057611320611090565b029392505050565b600061079f8383611269565b818103818111156110d6576110d661109056fea2646970667358221220a63abbcef10ba44d1a4d2925f3c2eb37aaec180b87003649c185dd54778ed86f64736f6c63430008150033"
}