{
  "address": "0x6E09C6B27FBe673f61f6bca4e277B49bBB5A6AF7",
  "abi": [
    {
      "inputs": [
        {
          "internalType": "address",
          "name": "vaultAddress_",
          "type": "address"
        },
        {
          "internalType": "address",
          "name": "weth_",
          "type": "address"
        }
      ],
      "stateMutability": "nonpayable",
      "type": "constructor"
    },
    {
      "inputs": [
        {
          "internalType": "uint256",
          "name": "errorId_",
          "type": "uint256"
        }
      ],
      "name": "FluidSafeApproveError",
      "type": "error"
    },
    {
      "inputs": [
        {
          "internalType": "uint256",
          "name": "errorId_",
          "type": "uint256"
        }
      ],
      "name": "FluidSafeTransferError",
      "type": "error"
    },
    {
      "inputs": [
        {
          "internalType": "uint256",
          "name": "errorId_",
          "type": "uint256"
        }
      ],
      "name": "FluidWethWrapperError",
      "type": "error"
    },
    {
      "anonymous": false,
      "inputs": [
        {
          "indexed": false,
          "internalType": "address",
          "name": "previousAdmin",
          "type": "address"
        },
        {
          "indexed": false,
          "internalType": "address",
          "name": "newAdmin",
          "type": "address"
        }
      ],
      "name": "AdminChanged",
      "type": "event"
    },
    {
      "anonymous": false,
      "inputs": [
        {
          "indexed": true,
          "internalType": "address",
          "name": "beacon",
          "type": "address"
        }
      ],
      "name": "BeaconUpgraded",
      "type": "event"
    },
    {
      "anonymous": false,
      "inputs": [
        {
          "indexed": false,
          "internalType": "uint8",
          "name": "version",
          "type": "uint8"
        }
      ],
      "name": "Initialized",
      "type": "event"
    },
    {
      "anonymous": false,
      "inputs": [
        {
          "indexed": true,
          "internalType": "address",
          "name": "user",
          "type": "address"
        },
        {
          "indexed": true,
          "internalType": "uint256",
          "name": "nftId",
          "type": "uint256"
        },
        {
          "indexed": false,
          "internalType": "uint256",
          "name": "amount",
          "type": "uint256"
        }
      ],
      "name": "LogBorrow",
      "type": "event"
    },
    {
      "anonymous": false,
      "inputs": [
        {
          "indexed": true,
          "internalType": "address",
          "name": "user",
          "type": "address"
        },
        {
          "indexed": true,
          "internalType": "uint256",
          "name": "nftId",
          "type": "uint256"
        },
        {
          "indexed": false,
          "internalType": "uint256",
          "name": "amount",
          "type": "uint256"
        }
      ],
      "name": "LogDeposit",
      "type": "event"
    },
    {
      "anonymous": false,
      "inputs": [
        {
          "indexed": true,
          "internalType": "address",
          "name": "user",
          "type": "address"
        },
        {
          "indexed": true,
          "internalType": "uint256",
          "name": "nftId",
          "type": "uint256"
        },
        {
          "indexed": false,
          "internalType": "uint256",
          "name": "amount",
          "type": "uint256"
        }
      ],
      "name": "LogPayback",
      "type": "event"
    },
    {
      "anonymous": false,
      "inputs": [
        {
          "indexed": true,
          "internalType": "address",
          "name": "user",
          "type": "address"
        },
        {
          "indexed": true,
          "internalType": "uint256",
          "name": "nftId",
          "type": "uint256"
        },
        {
          "indexed": false,
          "internalType": "uint256",
          "name": "amount",
          "type": "uint256"
        }
      ],
      "name": "LogWithdraw",
      "type": "event"
    },
    {
      "anonymous": false,
      "inputs": [
        {
          "indexed": true,
          "internalType": "address",
          "name": "previousOwner",
          "type": "address"
        },
        {
          "indexed": true,
          "internalType": "address",
          "name": "newOwner",
          "type": "address"
        }
      ],
      "name": "OwnershipTransferred",
      "type": "event"
    },
    {
      "anonymous": false,
      "inputs": [
        {
          "indexed": true,
          "internalType": "address",
          "name": "implementation",
          "type": "address"
        }
      ],
      "name": "Upgraded",
      "type": "event"
    },
    {
      "inputs": [],
      "name": "BORROW_TOKEN",
      "outputs": [
        {
          "internalType": "address",
          "name": "",
          "type": "address"
        }
      ],
      "stateMutability": "view",
      "type": "function"
    },
    {
      "inputs": [],
      "name": "LIQUIDITY",
      "outputs": [
        {
          "internalType": "address",
          "name": "",
          "type": "address"
        }
      ],
      "stateMutability": "view",
      "type": "function"
    },
    {
      "inputs": [],
      "name": "VAULT",
      "outputs": [
        {
          "internalType": "contract IFluidVaultT1",
          "name": "",
          "type": "address"
        }
      ],
      "stateMutability": "view",
      "type": "function"
    },
    {
      "inputs": [],
      "name": "VAULT_FACTORY",
      "outputs": [
        {
          "internalType": "address",
          "name": "",
          "type": "address"
        }
      ],
      "stateMutability": "view",
      "type": "function"
    },
    {
      "inputs": [],
      "name": "VAULT_ID",
      "outputs": [
        {
          "internalType": "uint256",
          "name": "",
          "type": "uint256"
        }
      ],
      "stateMutability": "view",
      "type": "function"
    },
    {
      "inputs": [],
      "name": "WETH",
      "outputs": [
        {
          "internalType": "contract IWETH9",
          "name": "",
          "type": "address"
        }
      ],
      "stateMutability": "view",
      "type": "function"
    },
    {
      "inputs": [
        {
          "internalType": "address",
          "name": "asset",
          "type": "address"
        },
        {
          "internalType": "uint256",
          "name": "amount",
          "type": "uint256"
        },
        {
          "internalType": "uint256",
          "name": "interestRateMode",
          "type": "uint256"
        },
        {
          "internalType": "uint16",
          "name": "referralCode",
          "type": "uint16"
        },
        {
          "internalType": "address",
          "name": "onBehalfOf",
          "type": "address"
        }
      ],
      "name": "borrow",
      "outputs": [],
      "stateMutability": "nonpayable",
      "type": "function"
    },
    {
      "inputs": [],
      "name": "getPosition",
      "outputs": [
        {
          "internalType": "uint256",
          "name": "",
          "type": "uint256"
        },
        {
          "internalType": "uint256",
          "name": "",
          "type": "uint256"
        }
      ],
      "stateMutability": "view",
      "type": "function"
    },
    {
      "inputs": [],
      "name": "initialize",
      "outputs": [],
      "stateMutability": "nonpayable",
      "type": "function"
    },
    {
      "inputs": [],
      "name": "nftId",
      "outputs": [
        {
          "internalType": "uint64",
          "name": "",
          "type": "uint64"
        }
      ],
      "stateMutability": "view",
      "type": "function"
    },
    {
      "inputs": [
        {
          "internalType": "address",
          "name": "",
          "type": "address"
        },
        {
          "internalType": "address",
          "name": "",
          "type": "address"
        },
        {
          "internalType": "uint256",
          "name": "tokenId_",
          "type": "uint256"
        },
        {
          "internalType": "bytes",
          "name": "",
          "type": "bytes"
        }
      ],
      "name": "onERC721Received",
      "outputs": [
        {
          "internalType": "bytes4",
          "name": "",
          "type": "bytes4"
        }
      ],
      "stateMutability": "nonpayable",
      "type": "function"
    },
    {
      "inputs": [],
      "name": "owner",
      "outputs": [
        {
          "internalType": "address",
          "name": "",
          "type": "address"
        }
      ],
      "stateMutability": "view",
      "type": "function"
    },
    {
      "inputs": [],
      "name": "proxiableUUID",
      "outputs": [
        {
          "internalType": "bytes32",
          "name": "",
          "type": "bytes32"
        }
      ],
      "stateMutability": "view",
      "type": "function"
    },
    {
      "inputs": [
        {
          "internalType": "address",
          "name": "asset",
          "type": "address"
        },
        {
          "internalType": "uint256",
          "name": "amount",
          "type": "uint256"
        },
        {
          "internalType": "uint256",
          "name": "interestRateMode",
          "type": "uint256"
        },
        {
          "internalType": "address",
          "name": "onBehalfOf",
          "type": "address"
        }
      ],
      "name": "repay",
      "outputs": [],
      "stateMutability": "nonpayable",
      "type": "function"
    },
    {
      "inputs": [
        {
          "internalType": "address",
          "name": "target_",
          "type": "address"
        },
        {
          "internalType": "bytes",
          "name": "data_",
          "type": "bytes"
        }
      ],
      "name": "spell",
      "outputs": [
        {
          "internalType": "bytes",
          "name": "response_",
          "type": "bytes"
        }
      ],
      "stateMutability": "nonpayable",
      "type": "function"
    },
    {
      "inputs": [
        {
          "internalType": "address",
          "name": "asset",
          "type": "address"
        },
        {
          "internalType": "uint256",
          "name": "amount",
          "type": "uint256"
        },
        {
          "internalType": "address",
          "name": "onBehalfOf",
          "type": "address"
        },
        {
          "internalType": "uint16",
          "name": "referralCode",
          "type": "uint16"
        }
      ],
      "name": "supply",
      "outputs": [],
      "stateMutability": "nonpayable",
      "type": "function"
    },
    {
      "inputs": [
        {
          "internalType": "address",
          "name": "newOwner",
          "type": "address"
        }
      ],
      "name": "transferOwnership",
      "outputs": [],
      "stateMutability": "nonpayable",
      "type": "function"
    },
    {
      "inputs": [
        {
          "internalType": "address",
          "name": "newImplementation",
          "type": "address"
        }
      ],
      "name": "upgradeTo",
      "outputs": [],
      "stateMutability": "nonpayable",
      "type": "function"
    },
    {
      "inputs": [
        {
          "internalType": "address",
          "name": "newImplementation",
          "type": "address"
        },
        {
          "internalType": "bytes",
          "name": "data",
          "type": "bytes"
        }
      ],
      "name": "upgradeToAndCall",
      "outputs": [],
      "stateMutability": "payable",
      "type": "function"
    },
    {
      "inputs": [
        {
          "internalType": "address",
          "name": "asset",
          "type": "address"
        },
        {
          "internalType": "uint256",
          "name": "amount",
          "type": "uint256"
        },
        {
          "internalType": "address",
          "name": "to",
          "type": "address"
        }
      ],
      "name": "withdraw",
      "outputs": [],
      "stateMutability": "nonpayable",
      "type": "function"
    },
    {
      "stateMutability": "payable",
      "type": "receive"
    }
  ],
  "transactionHash": "0x18b320b417bf553090cd0afd0a10b32c280bca69fcbdb23ea5adbb38bad8705b",
  "args": [
    "0x0C8C77B7FF4c2aF7F6CEBbe67350A490E3DD6cB3",
    "0xC02aaA39b223FE8D0A0e5C4F27eAD9083C756Cc2"
  ],
  "numDeployments": 1,
  "solcInputHash": "7ded33794b695102c601d6aba03eb026",
  "bytecode": "0x610160604052306080523480156200001657600080fd5b5060405162003e2e38038062003e2e833981016040819052620000399162000368565b620000436200028c565b6001600160a01b03821615806200006157506001600160a01b038116155b156200008a5760405163e375724360e01b81526201adb360048201526024015b60405180910390fd5b6001600160a01b0380821660a052821660c081905260408051631502b2af60e21b8152905163540acabc916004808201926020929091908290030181865afa158015620000db573d6000803e3d6000fd5b505050506040513d601f19601f82011682018060405250810190620001019190620003a0565b610140818152505060c0516001600160a01b0316632861c7d16040518163ffffffff1660e01b8152600401602060405180830381865afa1580156200014a573d6000803e3d6000fd5b505050506040513d601f19601f82011682018060405250810190620001709190620003ba565b6001600160a01b0316610120816001600160a01b03168152505060c0516001600160a01b031663103f29076040518163ffffffff1660e01b8152600401602060405180830381865afa158015620001cb573d6000803e3d6000fd5b505050506040513d601f19601f82011682018060405250810190620001f19190620003ba565b6001600160a01b0316610100816001600160a01b03168152505060c0516001600160a01b031663b7791bf26040518163ffffffff1660e01b81526004016101a060405180830381865afa1580156200024d573d6000803e3d6000fd5b505050506040513d601f19601f8201168201806040525081019062000273919062000429565b60a001516001600160a01b031660e05250620005199050565b600054610100900460ff1615620002f65760405162461bcd60e51b815260206004820152602760248201527f496e697469616c697a61626c653a20636f6e747261637420697320696e697469604482015266616c697a696e6760c81b606482015260840162000081565b60005460ff908116101562000349576000805460ff191660ff9081179091556040519081527f7f26b83ff96e1f2b6a682f133852f6798a09c465da95921460cefb38474024989060200160405180910390a15b565b80516001600160a01b03811681146200036357600080fd5b919050565b600080604083850312156200037c57600080fd5b62000387836200034b565b915062000397602084016200034b565b90509250929050565b600060208284031215620003b357600080fd5b5051919050565b600060208284031215620003cd57600080fd5b620003d8826200034b565b9392505050565b6040516101a081016001600160401b03811182821017156200041157634e487b7160e01b600052604160045260246000fd5b60405290565b805160ff811681146200036357600080fd5b60006101a082840312156200043d57600080fd5b62000447620003df565b62000452836200034b565b815262000462602084016200034b565b602082015262000475604084016200034b565b604082015262000488606084016200034b565b60608201526200049b608084016200034b565b6080820152620004ae60a084016200034b565b60a0820152620004c160c0840162000417565b60c0820152620004d460e0840162000417565b60e08201526101008381015190820152610120808401519082015261014080840151908201526101608084015190820152610180928301519281019290925250919050565b60805160a05160c05160e0516101005161012051610140516137f66200063860003960006103df01526000818161018001526102ed01526000818161023e01526105e101526000818161037501528181610c9b01528181610e1901528181610e450152611bca01526000818161034101528181610e6601528181610e8d015281816113480152818161162101528181611d28015281816122f6015281816123bc015281816127cc0152818161285f01528181612bef01528181612f300152612fe80152600081816101c101528181610503015281816111a80152818161126b015281816115930152818161178901526118000152600081816106e301528181610793015281816108e8015281816109980152610ae101526137f66000f3fe6080604052600436106101635760003560e01c8063617ba037116100c0578063a415bcad11610074578063c6bc518211610059578063c6bc518214610525578063c7acb01f1461057a578063f2fde38b146105a757600080fd5b8063a415bcad146104d1578063ad5c4648146104f157600080fd5b80637398ab18116100a55780637398ab18146104615780638129fc1c1461048b5780638da5cb5b146104a057600080fd5b8063617ba0371461042157806369328dec1461044157600080fd5b80634c90f25c1161011757806352d1902d116100fc57806352d1902d146103aa578063540acabc146103cd578063573ade811461040157600080fd5b80634c90f25c146103635780634f1ef2861461039757600080fd5b80632861c7d1116101485780632861c7d1146102db5780633659cfe61461030f578063411557d11461032f57600080fd5b8063103f29071461022c578063150b7a021461028a57600080fd5b36610227573373ffffffffffffffffffffffffffffffffffffffff7f000000000000000000000000000000000000000000000000000000000000000016148015906101e457503373ffffffffffffffffffffffffffffffffffffffff7f00000000000000000000000000000000000000000000000000000000000000001614155b15610225576040517fe37572430000000000000000000000000000000000000000000000000000000081526201adb860048201526024015b60405180910390fd5b005b600080fd5b34801561023857600080fd5b506102607f000000000000000000000000000000000000000000000000000000000000000081565b60405173ffffffffffffffffffffffffffffffffffffffff90911681526020015b60405180910390f35b34801561029657600080fd5b506102aa6102a536600461323f565b6105c7565b6040517fffffffff000000000000000000000000000000000000000000000000000000009091168152602001610281565b3480156102e757600080fd5b506102607f000000000000000000000000000000000000000000000000000000000000000081565b34801561031b57600080fd5b5061022561032a3660046132da565b6106cc565b34801561033b57600080fd5b506102607f000000000000000000000000000000000000000000000000000000000000000081565b34801561036f57600080fd5b506102607f000000000000000000000000000000000000000000000000000000000000000081565b6102256103a5366004613324565b6108d1565b3480156103b657600080fd5b506103bf610ac7565b604051908152602001610281565b3480156103d957600080fd5b506103bf7f000000000000000000000000000000000000000000000000000000000000000081565b34801561040d57600080fd5b5061022561041c366004613404565b610bb3565b34801561042d57600080fd5b5061022561043c36600461345c565b61106c565b34801561044d57600080fd5b5061022561045c36600461349e565b6114ab565b34801561046d57600080fd5b506104766118f0565b60408051928352602083019190915201610281565b34801561049757600080fd5b5061022561190b565b3480156104ac57600080fd5b5060005462010000900473ffffffffffffffffffffffffffffffffffffffff16610260565b3480156104dd57600080fd5b506102256104ec3660046134da565b611ae2565b3480156104fd57600080fd5b506102607f000000000000000000000000000000000000000000000000000000000000000081565b34801561053157600080fd5b506000546105619077010000000000000000000000000000000000000000000000900467ffffffffffffffff1681565b60405167ffffffffffffffff9091168152602001610281565b34801561058657600080fd5b5061059a610595366004613324565b611e57565b604051610281919061359f565b3480156105b357600080fd5b506102256105c23660046132da565b611eab565b60003373ffffffffffffffffffffffffffffffffffffffff7f0000000000000000000000000000000000000000000000000000000000000000161461063d576040517fe37572430000000000000000000000000000000000000000000000000000000081526201adb4600482015260240161021c565b60005477010000000000000000000000000000000000000000000000900467ffffffffffffffff16156106a1576040517fe37572430000000000000000000000000000000000000000000000000000000081526201adb6600482015260240161021c565b507f150b7a020000000000000000000000000000000000000000000000000000000095945050505050565b73ffffffffffffffffffffffffffffffffffffffff7f0000000000000000000000000000000000000000000000000000000000000000163003610791576040517f08c379a000000000000000000000000000000000000000000000000000000000815260206004820152602c60248201527f46756e6374696f6e206d7573742062652063616c6c6564207468726f7567682060448201527f64656c656761746563616c6c0000000000000000000000000000000000000000606482015260840161021c565b7f000000000000000000000000000000000000000000000000000000000000000073ffffffffffffffffffffffffffffffffffffffff166108067f360894a13ba1a3210667c828492db98dca3e2076cc3735a920a3ca505d382bbc5473ffffffffffffffffffffffffffffffffffffffff1690565b73ffffffffffffffffffffffffffffffffffffffff16146108a9576040517f08c379a000000000000000000000000000000000000000000000000000000000815260206004820152602c60248201527f46756e6374696f6e206d7573742062652063616c6c6564207468726f7567682060448201527f6163746976652070726f78790000000000000000000000000000000000000000606482015260840161021c565b6108b281611f5f565b604080516000808252602082019092526108ce91839190611f67565b50565b73ffffffffffffffffffffffffffffffffffffffff7f0000000000000000000000000000000000000000000000000000000000000000163003610996576040517f08c379a000000000000000000000000000000000000000000000000000000000815260206004820152602c60248201527f46756e6374696f6e206d7573742062652063616c6c6564207468726f7567682060448201527f64656c656761746563616c6c0000000000000000000000000000000000000000606482015260840161021c565b7f000000000000000000000000000000000000000000000000000000000000000073ffffffffffffffffffffffffffffffffffffffff16610a0b7f360894a13ba1a3210667c828492db98dca3e2076cc3735a920a3ca505d382bbc5473ffffffffffffffffffffffffffffffffffffffff1690565b73ffffffffffffffffffffffffffffffffffffffff1614610aae576040517f08c379a000000000000000000000000000000000000000000000000000000000815260206004820152602c60248201527f46756e6374696f6e206d7573742062652063616c6c6564207468726f7567682060448201527f6163746976652070726f78790000000000000000000000000000000000000000606482015260840161021c565b610ab782611f5f565b610ac382826001611f67565b5050565b60003073ffffffffffffffffffffffffffffffffffffffff7f00000000000000000000000000000000000000000000000000000000000000001614610b8e576040517f08c379a000000000000000000000000000000000000000000000000000000000815260206004820152603860248201527f555550535570677261646561626c653a206d757374206e6f742062652063616c60448201527f6c6564207468726f7567682064656c656761746563616c6c0000000000000000606482015260840161021c565b507f360894a13ba1a3210667c828492db98dca3e2076cc3735a920a3ca505d382bbc90565b600054760100000000000000000000000000000000000000000000900460ff16600114610c11576040517fe37572430000000000000000000000000000000000000000000000000000000081526201adb2600482015260240161021c565b600080547fffffffffffffffffff00ffffffffffffffffffffffffffffffffffffffffffff16760200000000000000000000000000000000000000000000179055610c5a61216b565b82600003610c99576040517fe37572430000000000000000000000000000000000000000000000000000000081526201adb1600482015260240161021c565b7f000000000000000000000000000000000000000000000000000000000000000073ffffffffffffffffffffffffffffffffffffffff168473ffffffffffffffffffffffffffffffffffffffff1614610d23576040517fe37572430000000000000000000000000000000000000000000000000000000081526201adb5600482015260240161021c565b73ffffffffffffffffffffffffffffffffffffffff81163314610d77576040517fe37572430000000000000000000000000000000000000000000000000000000081526201adb7600482015260240161021c565b7fffffffffffffffffffffffffffffffffffffffffffffffffffffffffffffffff83148015610e145760408051600180825281830190925260009160208083019080368337505060008054835193945077010000000000000000000000000000000000000000000000900467ffffffffffffffff1692849250610dfc57610dfc6135b2565b602002602001018181525050610e106121f5565b9450505b610e407f00000000000000000000000000000000000000000000000000000000000000008330876124b0565b610e8b7f00000000000000000000000000000000000000000000000000000000000000007f000000000000000000000000000000000000000000000000000000000000000086612577565b7f000000000000000000000000000000000000000000000000000000000000000073ffffffffffffffffffffffffffffffffffffffff1663032d2276600060179054906101000a900467ffffffffffffffff16600084610ef357610eee88613610565b610f15565b7f80000000000000000000000000000000000000000000000000000000000000005b6040517fffffffff0000000000000000000000000000000000000000000000000000000060e086901b16815267ffffffffffffffff9093166004840152602483019190915260448201523060648201526084016060604051808303816000875af1158015610f87573d6000803e3d6000fd5b505050506040513d601f19601f82011682018060405250810190610fab9190613648565b50506000546040518681527701000000000000000000000000000000000000000000000090910467ffffffffffffffff16915073ffffffffffffffffffffffffffffffffffffffff8416907f078fa6b3e9efb70cad8546f6f21c6cbc4c8e8b8caf73c92a252d9be03a45ec1c906020015b60405180910390a35050600080547fffffffffffffffffff00ffffffffffffffffffffffffffffffffffffffffffff16760100000000000000000000000000000000000000000000179055505050565b600054760100000000000000000000000000000000000000000000900460ff166001146110ca576040517fe37572430000000000000000000000000000000000000000000000000000000081526201adb2600482015260240161021c565b600080547fffffffffffffffffff00ffffffffffffffffffffffffffffffffffffffffffff1676020000000000000000000000000000000000000000000017905561111361216b565b82600003611152576040517fe37572430000000000000000000000000000000000000000000000000000000081526201adb1600482015260240161021c565b73ffffffffffffffffffffffffffffffffffffffff821633146111a6576040517fe37572430000000000000000000000000000000000000000000000000000000081526201adb7600482015260240161021c565b7f000000000000000000000000000000000000000000000000000000000000000073ffffffffffffffffffffffffffffffffffffffff168473ffffffffffffffffffffffffffffffffffffffff1614611230576040517fe37572430000000000000000000000000000000000000000000000000000000081526201adb5600482015260240161021c565b61123c843330866124b0565b6040517f2e1a7d4d000000000000000000000000000000000000000000000000000000008152600481018490527f000000000000000000000000000000000000000000000000000000000000000073ffffffffffffffffffffffffffffffffffffffff1690632e1a7d4d90602401600060405180830381600087803b1580156112c457600080fd5b505af11580156112d8573d6000803e3d6000fd5b5050600080546040517f032d22760000000000000000000000000000000000000000000000000000000081527701000000000000000000000000000000000000000000000090910467ffffffffffffffff16600482015260248101879052604481018290523060648201529092507f000000000000000000000000000000000000000000000000000000000000000073ffffffffffffffffffffffffffffffffffffffff16915063032d227690869060840160606040518083038185885af11580156113a8573d6000803e3d6000fd5b50505050506040513d601f19601f820116820180604052508101906113cd9190613648565b505060005490915077010000000000000000000000000000000000000000000000900467ffffffffffffffff16811461144f57600080547fff0000000000000000ffffffffffffffffffffffffffffffffffffffffffffff167701000000000000000000000000000000000000000000000067ffffffffffffffff8416021790555b6000546040518581527701000000000000000000000000000000000000000000000090910467ffffffffffffffff169033907f9dbb0e7dda3e09710ce75b801addc87cf9d9c6c581641b3275fca409ad086c629060200161101c565b600054760100000000000000000000000000000000000000000000900460ff16600114611509576040517fe37572430000000000000000000000000000000000000000000000000000000081526201adb2600482015260240161021c565b600080547fffffffffffffffffff00ffffffffffffffffffffffffffffffffffffffffffff1676020000000000000000000000000000000000000000000017905561155261216b565b81600003611591576040517fe37572430000000000000000000000000000000000000000000000000000000081526201adb1600482015260240161021c565b7f000000000000000000000000000000000000000000000000000000000000000073ffffffffffffffffffffffffffffffffffffffff168373ffffffffffffffffffffffffffffffffffffffff161461161b576040517fe37572430000000000000000000000000000000000000000000000000000000081526201adb5600482015260240161021c565b600080547f000000000000000000000000000000000000000000000000000000000000000073ffffffffffffffffffffffffffffffffffffffff169063032d22769077010000000000000000000000000000000000000000000000900467ffffffffffffffff167fffffffffffffffffffffffffffffffffffffffffffffffffffffffffffffffff86146116b7576116b286613610565b6116d9565b7f80000000000000000000000000000000000000000000000000000000000000005b6040517fffffffff0000000000000000000000000000000000000000000000000000000060e085901b16815267ffffffffffffffff90921660048301526024820152600060448201523060648201526084016060604051808303816000875af115801561174a573d6000803e3d6000fd5b505050506040513d601f19601f8201168201806040525081019061176e9190613648565b5091505073ffffffffffffffffffffffffffffffffffffffff7f00000000000000000000000000000000000000000000000000000000000000001663d0e30db06117b783613610565b6040518263ffffffff1660e01b81526004016000604051808303818588803b1580156117e257600080fd5b505af11580156117f6573d6000803e3d6000fd5b505050505061182f7f0000000000000000000000000000000000000000000000000000000000000000838361182a90613610565b61262d565b60005477010000000000000000000000000000000000000000000000900467ffffffffffffffff1673ffffffffffffffffffffffffffffffffffffffff83167fda9a10d7b992511ddadbfc7ff712c1424ce2058bbcdac8c9876d6f8de590d43f61189884613610565b60405190815260200160405180910390a35050600080547fffffffffffffffffff00ffffffffffffffffffffffffffffffffffffffffffff167601000000000000000000000000000000000000000000001790555050565b6000806118fb6126d1565b6119036121f5565b915091509091565b600054610100900460ff161580801561192b5750600054600160ff909116105b806119455750303b158015611945575060005460ff166001145b6119d1576040517f08c379a000000000000000000000000000000000000000000000000000000000815260206004820152602e60248201527f496e697469616c697a61626c653a20636f6e747261637420697320616c72656160448201527f647920696e697469616c697a6564000000000000000000000000000000000000606482015260840161021c565b600080547fffffffffffffffffffffffffffffffffffffffffffffffffffffffffffffff001660011790558015611a2f57600080547fffffffffffffffffffffffffffffffffffffffffffffffffffffffffffff00ff166101001790555b611a75600080547fffffffffffffffffff00ffffffffffffffffffffffffffffffffffffffffffff16760100000000000000000000000000000000000000000000179055565b611a7d612928565b80156108ce57600080547fffffffffffffffffffffffffffffffffffffffffffffffffffffffffffff00ff169055604051600181527f7f26b83ff96e1f2b6a682f133852f6798a09c465da95921460cefb38474024989060200160405180910390a150565b600054760100000000000000000000000000000000000000000000900460ff16600114611b40576040517fe37572430000000000000000000000000000000000000000000000000000000081526201adb2600482015260240161021c565b600080547fffffffffffffffffff00ffffffffffffffffffffffffffffffffffffffffffff16760200000000000000000000000000000000000000000000179055611b8961216b565b83600003611bc8576040517fe37572430000000000000000000000000000000000000000000000000000000081526201adb1600482015260240161021c565b7f000000000000000000000000000000000000000000000000000000000000000073ffffffffffffffffffffffffffffffffffffffff168573ffffffffffffffffffffffffffffffffffffffff1614611c52576040517fe37572430000000000000000000000000000000000000000000000000000000081526201adb5600482015260240161021c565b73ffffffffffffffffffffffffffffffffffffffff81163314611ca6576040517fe37572430000000000000000000000000000000000000000000000000000000081526201adb9600482015260240161021c565b600080546040517f032d22760000000000000000000000000000000000000000000000000000000081527701000000000000000000000000000000000000000000000090910467ffffffffffffffff166004820152602481018290526044810186905273ffffffffffffffffffffffffffffffffffffffff83811660648301527f0000000000000000000000000000000000000000000000000000000000000000169063032d2276906084016060604051808303816000875af1158015611d71573d6000803e3d6000fd5b505050506040513d601f19601f82011682018060405250810190611d959190613648565b60005460405182815291945077010000000000000000000000000000000000000000000000900467ffffffffffffffff16925073ffffffffffffffffffffffffffffffffffffffff851691507fe1b17d743be0011d9bba06fe70f26f50edb5da84de0c4db5fcaf609549db70369060200160405180910390a35050600080547fffffffffffffffffff00ffffffffffffffffffffffffffffffffffffffffffff1676010000000000000000000000000000000000000000000017905550505050565b6060611e6161216b565b600080835160208501865af43d6040519250601f19601f6020830101168301604052808352806000602085013e811560018103611ea257816000803e816000fd5b50505092915050565b611eb361216b565b73ffffffffffffffffffffffffffffffffffffffff8116611f56576040517f08c379a000000000000000000000000000000000000000000000000000000000815260206004820152602660248201527f4f776e61626c653a206e6577206f776e657220697320746865207a65726f206160448201527f6464726573730000000000000000000000000000000000000000000000000000606482015260840161021c565b6108ce816129c4565b6108ce61216b565b7f4910fdfa16fed3260ed0e7147f7cc6da11a60208b5b9406d12a635614ffd91435460ff1615611f9f57611f9a83612a42565b505050565b8273ffffffffffffffffffffffffffffffffffffffff166352d1902d6040518163ffffffff1660e01b8152600401602060405180830381865afa925050508015612024575060408051601f3d9081017fffffffffffffffffffffffffffffffffffffffffffffffffffffffffffffffe016820190925261202191810190613676565b60015b6120b0576040517f08c379a000000000000000000000000000000000000000000000000000000000815260206004820152602e60248201527f45524331393637557067726164653a206e657720696d706c656d656e7461746960448201527f6f6e206973206e6f742055555053000000000000000000000000000000000000606482015260840161021c565b7f360894a13ba1a3210667c828492db98dca3e2076cc3735a920a3ca505d382bbc811461215f576040517f08c379a000000000000000000000000000000000000000000000000000000000815260206004820152602960248201527f45524331393637557067726164653a20756e737570706f727465642070726f7860448201527f6961626c65555549440000000000000000000000000000000000000000000000606482015260840161021c565b50611f9a838383612b4c565b60005473ffffffffffffffffffffffffffffffffffffffff620100009091041633146121f3576040517f08c379a000000000000000000000000000000000000000000000000000000000815260206004820181905260248201527f4f776e61626c653a2063616c6c6572206973206e6f7420746865206f776e6572604482015260640161021c565b565b600080612200612b71565b905066ffffffffffffff603582901c1660ff602d83901c161b6001808316900361222d5760009250505090565b6000826002166002146122515761224c600284901c6207ffff16613610565b61225c565b6207ffff600284901c165b9050601583901c62ffffff16606083612278600285900b612c75565b612282919061368f565b901c9450600061229183612ed7565b905080600116600114806122ad57508162ffffff600183901c16115b15612381576040517f22348cc7000000000000000000000000000000000000000000000000000000008152600481018490526024810183905260448101879052606481018290527f000000000000000000000000000000000000000000000000000000000000000073ffffffffffffffffffffffffffffffffffffffff16906322348cc79060840160a060405180830381865afa158015612352573d6000803e3d6000fd5b505050506040513d601f19601f8201168201806040525081019061237691906136a6565b509198509550909350505b66ffffffffffffff607586901c1660ff606d87901c161b808711156123b1576123aa81886136e6565b96506123b8565b5060009550855b60007f000000000000000000000000000000000000000000000000000000000000000073ffffffffffffffffffffffffffffffffffffffff166309f0d8cb6123fe612fb6565b6040518263ffffffff1660e01b815260040161241c91815260200190565b608060405180830381865afa158015612439573d6000803e3d6000fd5b505050506040513d601f19601f8201168201806040525081019061245d91906136f9565b935050505064e8d4a510006001828a612476919061368f565b6124859064e8d4a5100061372f565b61248f91906136e6565b6124999190613742565b6124a490600161372f565b97505050505050505090565b60006040517f23b872dd00000000000000000000000000000000000000000000000000000000815273ffffffffffffffffffffffffffffffffffffffff8516600482015273ffffffffffffffffffffffffffffffffffffffff841660248201528260448201526020600060648360008a5af13d15601f3d1160016000511416171691505080612570576040517fdee51a8a00000000000000000000000000000000000000000000000000000000815262011559600482015260240161021c565b5050505050565b60006040517f095ea7b300000000000000000000000000000000000000000000000000000000815273ffffffffffffffffffffffffffffffffffffffff84166004820152826024820152602060006044836000895af191505080601f3d11600160005114161516156125eb5750823b153d17155b80612627576040517fffd1fc0700000000000000000000000000000000000000000000000000000000815262013c69600482015260240161021c565b50505050565b60006040517fa9059cbb00000000000000000000000000000000000000000000000000000000815273ffffffffffffffffffffffffffffffffffffffff84166004820152826024820152602060006044836000895af13d15601f3d1160016000511416171691505080612627576040517fdee51a8a0000000000000000000000000000000000000000000000000000000081526201155a600482015260240161021c565b6000806126dc612b71565b66ffffffffffffff603582901c1660ff602d83901c161b925090506001811660000361285b5760008160021660021461272657612721600283901c6207ffff16613610565b612731565b6207ffff600283901c165b9050601582901c62ffffff16600061274883612ed7565b9050806001166001148061276457508162ffffff600183901c16115b1561285757600060608661277a8660020b612c75565b612784919061368f565b6040517f22348cc70000000000000000000000000000000000000000000000000000000081526004810187905260248101869052911c604482018190526064820184905291507f000000000000000000000000000000000000000000000000000000000000000073ffffffffffffffffffffffffffffffffffffffff16906322348cc79060840160a060405180830381865afa158015612828573d6000803e3d6000fd5b505050506040513d601f19601f8201168201806040525081019061284c91906136a6565b509098509195505050505b5050505b60007f000000000000000000000000000000000000000000000000000000000000000073ffffffffffffffffffffffffffffffffffffffff166309f0d8cb6128a1612fb6565b6040518263ffffffff1660e01b81526004016128bf91815260200190565b608060405180830381865afa1580156128dc573d6000803e3d6000fd5b505050506040513d601f19601f8201168201806040525081019061290091906136f9565b509250505064e8d4a510008184612917919061368f565b6129219190613742565b9250505090565b600054610100900460ff166129bf576040517f08c379a000000000000000000000000000000000000000000000000000000000815260206004820152602b60248201527f496e697469616c697a61626c653a20636f6e7472616374206973206e6f74206960448201527f6e697469616c697a696e67000000000000000000000000000000000000000000606482015260840161021c565b6121f3335b6000805473ffffffffffffffffffffffffffffffffffffffff838116620100008181027fffffffffffffffffffff0000000000000000000000000000000000000000ffff851617855560405193049190911692909183917f8be0079c531659141344cd1fd0a4f28419497f9722a3daafe3b4186f6b6457e091a35050565b73ffffffffffffffffffffffffffffffffffffffff81163b612ae6576040517f08c379a000000000000000000000000000000000000000000000000000000000815260206004820152602d60248201527f455243313936373a206e657720696d706c656d656e746174696f6e206973206e60448201527f6f74206120636f6e747261637400000000000000000000000000000000000000606482015260840161021c565b7f360894a13ba1a3210667c828492db98dca3e2076cc3735a920a3ca505d382bbc80547fffffffffffffffffffffffff00000000000000000000000000000000000000001673ffffffffffffffffffffffffffffffffffffffff92909216919091179055565b612b558361302c565b600082511180612b625750805b15611f9a576126278383613079565b60008054604080517701000000000000000000000000000000000000000000000090920467ffffffffffffffff16602080840191909152600383830152815180840383018152606084019283905280519101207fb5c736e40000000000000000000000000000000000000000000000000000000090915260648201527f000000000000000000000000000000000000000000000000000000000000000073ffffffffffffffffffffffffffffffffffffffff169063b5c736e4906084015b602060405180830381865afa158015612c4c573d6000803e3d6000fd5b505050506040513d601f19601f82011682018060405250810190612c709190613676565b905090565b600060ff82901d80831803617fff811115612c8f57600080fd5b7001000000000000000000000000000000006001821615612cbd57506fff9dd7de423466c20352b1246ce4856f5b6002821615612cdc576fff3bd55f4488ad277531fa1c725a66d00260801c5b6004821615612cfb576ffe78410fd6498b73cb96a6917f8532590260801c5b6008821615612d1a576ffcf2d9987c9be178ad5bfeffaa1232730260801c5b6010821615612d39576ff9ef02c4529258b057769680fc6601b30260801c5b6020821615612d58576ff402d288133a85a17784a411f7aba0820260801c5b6040821615612d77576fe895615b5beb6386553757b0352bda900260801c5b6080821615612d96576fd34f17a00ffa00a8309940a15930391a0260801c5b610100821615612db6576fae6b7961714e20548d88ea5123f9a0ff0260801c5b610200821615612dd6576f76d6461f27082d74e0feed3b388c0ca10260801c5b610400821615612df6576f372a3bfe0745d8b6b19d985d9a8b85bb0260801c5b610800821615612e16576f0be32cbee48979763cf7247dd7bb539d0260801c5b611000821615612e35576e8d4f70c9ff4924dac37612d1e2921e0260801c5b612000821615612e53576d4e009ae5519380809a02ca7aec770260801c5b614000821615612e6f576b17c45e641b6e95dee056ff100260801c5b600091507f80000000000000000000000000000000000000000000000000000000000000008416612ecd577fffffffffffffffffffffffffffffffffffffffffffffffffffffffffffffffff0463ffffffff811615612ecd57600191505b60201c0192915050565b604080516020808201849052600582840152825180830384018152606083019384905280519101207fb5c736e40000000000000000000000000000000000000000000000000000000090925260648101919091526000907f000000000000000000000000000000000000000000000000000000000000000073ffffffffffffffffffffffffffffffffffffffff169063b5c736e490608401602060405180830381865afa158015612f8c573d6000803e3d6000fd5b505050506040513d601f19601f82011682018060405250810190612fb09190613676565b92915050565b6040517fb5c736e4000000000000000000000000000000000000000000000000000000008152600160048201526000907f000000000000000000000000000000000000000000000000000000000000000073ffffffffffffffffffffffffffffffffffffffff169063b5c736e490602401612c2f565b61303581612a42565b60405173ffffffffffffffffffffffffffffffffffffffff8216907fbc7cd75a20ee27fd9adebab32041f755214dbc6bffa90cc0225b39da2e5c2d3b90600090a250565b606061309e838360405180606001604052806027815260200161379a602791396130a5565b9392505050565b60606000808573ffffffffffffffffffffffffffffffffffffffff16856040516130cf919061377d565b600060405180830381855af49150503d806000811461310a576040519150601f19603f3d011682016040523d82523d6000602084013e61310f565b606091505b50915091506131208683838761312a565b9695505050505050565b606083156131c05782516000036131b95773ffffffffffffffffffffffffffffffffffffffff85163b6131b9576040517f08c379a000000000000000000000000000000000000000000000000000000000815260206004820152601d60248201527f416464726573733a2063616c6c20746f206e6f6e2d636f6e7472616374000000604482015260640161021c565b50816131ca565b6131ca83836131d2565b949350505050565b8151156131e25781518083602001fd5b806040517f08c379a000000000000000000000000000000000000000000000000000000000815260040161021c919061359f565b803573ffffffffffffffffffffffffffffffffffffffff8116811461323a57600080fd5b919050565b60008060008060006080868803121561325757600080fd5b61326086613216565b945061326e60208701613216565b935060408601359250606086013567ffffffffffffffff8082111561329257600080fd5b818801915088601f8301126132a657600080fd5b8135818111156132b557600080fd5b8960208285010111156132c757600080fd5b9699959850939650602001949392505050565b6000602082840312156132ec57600080fd5b61309e82613216565b7f4e487b7100000000000000000000000000000000000000000000000000000000600052604160045260246000fd5b6000806040838503121561333757600080fd5b61334083613216565b9150602083013567ffffffffffffffff8082111561335d57600080fd5b818501915085601f83011261337157600080fd5b813581811115613383576133836132f5565b604051601f82017fffffffffffffffffffffffffffffffffffffffffffffffffffffffffffffffe0908116603f011681019083821181831017156133c9576133c96132f5565b816040528281528860208487010111156133e257600080fd5b8260208601602083013760006020848301015280955050505050509250929050565b6000806000806080858703121561341a57600080fd5b61342385613216565b9350602085013592506040850135915061343f60608601613216565b905092959194509250565b803561ffff8116811461323a57600080fd5b6000806000806080858703121561347257600080fd5b61347b85613216565b93506020850135925061349060408601613216565b915061343f6060860161344a565b6000806000606084860312156134b357600080fd5b6134bc84613216565b9250602084013591506134d160408501613216565b90509250925092565b600080600080600060a086880312156134f257600080fd5b6134fb86613216565b945060208601359350604086013592506135176060870161344a565b915061352560808701613216565b90509295509295909350565b60005b8381101561354c578181015183820152602001613534565b50506000910152565b6000815180845261356d816020860160208601613531565b601f017fffffffffffffffffffffffffffffffffffffffffffffffffffffffffffffffe0169290920160200192915050565b60208152600061309e6020830184613555565b7f4e487b7100000000000000000000000000000000000000000000000000000000600052603260045260246000fd5b7f4e487b7100000000000000000000000000000000000000000000000000000000600052601160045260246000fd5b60007f80000000000000000000000000000000000000000000000000000000000000008203613641576136416135e1565b5060000390565b60008060006060848603121561365d57600080fd5b8351925060208401519150604084015190509250925092565b60006020828403121561368857600080fd5b5051919050565b8082028115828204841417612fb057612fb06135e1565b600080600080600060a086880312156136be57600080fd5b5050835160208501516040860151606087015160809097015192989197509594509092509050565b81810381811115612fb057612fb06135e1565b6000806000806080858703121561370f57600080fd5b505082516020840151604085015160609095015191969095509092509050565b80820180821115612fb057612fb06135e1565b600082613778577f4e487b7100000000000000000000000000000000000000000000000000000000600052601260045260246000fd5b500490565b6000825161378f818460208701613531565b919091019291505056fe416464726573733a206c6f772d6c6576656c2064656c65676174652063616c6c206661696c6564a26469706673582212205c8da8ca7e5abee5ee41effd71ce80e1603e7109b3047608789e290dfb71492664736f6c63430008150033",
  "devdoc": {
    "details": "wrapping/unwrapping to ETH under the hood for vault T1",
    "events": {
      "AdminChanged(address,address)": {
        "details": "Emitted when the admin account has changed."
      },
      "BeaconUpgraded(address)": {
        "details": "Emitted when the beacon is upgraded."
      },
      "Initialized(uint8)": {
        "details": "Triggered when the contract has been initialized or reinitialized."
      },
      "LogBorrow(address,uint256,uint256)": {
        "params": {
          "amount": "Amount borrowed",
          "nftId": "The vault NFT ID",
          "user": "The user performing the borrow"
        }
      },
      "LogDeposit(address,uint256,uint256)": {
        "params": {
          "amount": "Amount of WETH deposited",
          "nftId": "The vault NFT ID",
          "user": "The user performing the deposit"
        }
      },
      "LogPayback(address,uint256,uint256)": {
        "params": {
          "amount": "Amount repaid",
          "nftId": "The vault NFT ID",
          "user": "The user performing the payback"
        }
      },
      "LogWithdraw(address,uint256,uint256)": {
        "params": {
          "amount": "Amount of WETH withdrawn",
          "nftId": "The vault NFT ID",
          "user": "The user performing the withdrawal"
        }
      },
      "Upgraded(address)": {
        "details": "Emitted when the implementation is upgraded."
      }
    },
    "kind": "dev",
    "methods": {
      "borrow(address,uint256,uint256,uint16,address)": {
        "params": {
          "amount": "Amount of asset to borrow",
          "asset": "The asset to borrow",
          "interestRateMode": "The interest rate mode at which the user wants to borrow, Not used",
          "onBehalfOf": "The address of the user who will receive the debt.",
          "referralCode": "The code used to register the integrator originating the operation, for potential rewards.NA"
        }
      },
      "constructor": {
        "params": {
          "vaultAddress_": "Fluid Vault address",
          "weth_": "WETH token address"
        }
      },
      "getPosition()": {
        "returns": {
          "_0": "supply amount",
          "_1": "borrow amount"
        }
      },
      "owner()": {
        "details": "Returns the address of the current owner."
      },
      "proxiableUUID()": {
        "details": "Implementation of the ERC1822 {proxiableUUID} function. This returns the storage slot used by the implementation. It is used to validate the implementation's compatibility when performing an upgrade. IMPORTANT: A proxy pointing at a proxiable contract should not be considered proxiable itself, because this risks bricking a proxy that upgrades to it, by delegating to itself until out of gas. Thus it is critical that this function revert if invoked through a proxy. This is guaranteed by the `notDelegated` modifier."
      },
      "repay(address,uint256,uint256,address)": {
        "params": {
          "amount": "Amount of asset to repay",
          "asset": "The asset to repay (USDC)",
          "interestRateMode": "The interest rate mode at which the user wants to borrow, Not used",
          "onBehalfOf": "should be equal to msg.sender"
        }
      },
      "spell(address,bytes)": {
        "params": {
          "data_": "Data to execute at the delegated address",
          "target_": "Address to which the call needs to be delegated"
        }
      },
      "supply(address,uint256,address,uint16)": {
        "params": {
          "amount": "Amount of asset to deposit as collateral",
          "asset": "The asset to deposit in contract (weth)",
          "onBehalfOf": "Deposit on behalf of, should be same as msg.sender",
          "referralCode": "Un-used param"
        }
      },
      "transferOwnership(address)": {
        "details": "Transfers ownership of the contract to a new account (`newOwner`). Can only be called by the current owner."
      },
      "upgradeTo(address)": {
        "details": "Upgrade the implementation of the proxy to `newImplementation`. Calls {_authorizeUpgrade}. Emits an {Upgraded} event."
      },
      "upgradeToAndCall(address,bytes)": {
        "details": "Upgrade the implementation of the proxy to `newImplementation`, and subsequently execute the function call encoded in `data`. Calls {_authorizeUpgrade}. Emits an {Upgraded} event."
      },
      "withdraw(address,uint256,address)": {
        "details": "The vault sends us ETH, which we wrap into WETH and transfer to the user.",
        "params": {
          "amount": "Amount of asset to borrow as collateral",
          "asset": "The asset to deposit in contract (weth)",
          "to": "withdraw should go to this address"
        }
      }
    },
    "stateVariables": {
      "BORROW_TOKEN": {
        "details": "below variables can be derived directly or indirectly using vault address"
      }
    },
    "title": "WETH Wrapper for Fluid Vault T1",
    "version": 1
  },
  "userdoc": {
    "events": {
      "LogBorrow(address,uint256,uint256)": {
        "notice": "Emitted when user borrows"
      },
      "LogDeposit(address,uint256,uint256)": {
        "notice": "Emitted when user deposits collateral in WETH"
      },
      "LogPayback(address,uint256,uint256)": {
        "notice": "Emitted when user pays back debt"
      },
      "LogWithdraw(address,uint256,uint256)": {
        "notice": "Emitted when user withdraws collateral (receives WETH)"
      }
    },
    "kind": "user",
    "methods": {
      "borrow(address,uint256,uint256,uint16,address)": {
        "notice": "Borrow in USDC from vault, the vault will send ETH to this contract."
      },
      "getPosition()": {
        "notice": "get the vault nft position on vault"
      },
      "onERC721Received(address,address,uint256,bytes)": {
        "notice": "Accepts NFT transfers only from the configured VAULT.         Records the `from_` address as the NFT's owner in our mapping,         so that `from_` can have ownership for withdraw and borrow."
      },
      "repay(address,uint256,uint256,address)": {
        "notice": "Repay debt in USDC to VAULT."
      },
      "spell(address,bytes)": {
        "notice": "Spell allows owner aka governance to do any arbitrary call on factory"
      },
      "supply(address,uint256,address,uint16)": {
        "notice": "Deposit WETH as collateral to a T1 VAULT.         - If `nftId` == 0, new vault position gets created (NFT mint to this)"
      },
      "withdraw(address,uint256,address)": {
        "notice": "Withdraw WETH collateral from a T1 vault"
      }
    },
    "notice": "Allows depositing, withdrawal, borrowing and repaying of assets from vaults using WETH following aave interface",
    "version": 1
  },
  "storageLayout": {
    "storage": [
      {
        "astId": 138,
        "contract": "contracts/periphery/wethWrapper/main.sol:FluidWETHWrapper",
        "label": "_initialized",
        "offset": 0,
        "slot": "0",
        "type": "t_uint8"
      },
      {
        "astId": 141,
        "contract": "contracts/periphery/wethWrapper/main.sol:FluidWETHWrapper",
        "label": "_initializing",
        "offset": 1,
        "slot": "0",
        "type": "t_bool"
      },
      {
        "astId": 69170,
        "contract": "contracts/periphery/wethWrapper/main.sol:FluidWETHWrapper",
        "label": "_owner",
        "offset": 2,
        "slot": "0",
        "type": "t_address"
      },
      {
        "astId": 69302,
        "contract": "contracts/periphery/wethWrapper/main.sol:FluidWETHWrapper",
        "label": "_status",
        "offset": 22,
        "slot": "0",
        "type": "t_uint8"
      },
      {
        "astId": 69378,
        "contract": "contracts/periphery/wethWrapper/main.sol:FluidWETHWrapper",
        "label": "nftId",
        "offset": 23,
        "slot": "0",
        "type": "t_uint64"
      }
    ],
    "types": {
      "t_address": {
        "encoding": "inplace",
        "label": "address",
        "numberOfBytes": "20"
      },
      "t_bool": {
        "encoding": "inplace",
        "label": "bool",
        "numberOfBytes": "1"
      },
      "t_uint64": {
        "encoding": "inplace",
        "label": "uint64",
        "numberOfBytes": "8"
      },
      "t_uint8": {
        "encoding": "inplace",
        "label": "uint8",
        "numberOfBytes": "1"
      }
    }
  }
}