{
  "address": "0x71E1E7b2561a3F8edcC22C7B3446E0b01E062d37",
  "abi": [
    {
      "inputs": [
        {
          "internalType": "string",
          "name": "infoName_",
          "type": "string"
        },
        {
          "internalType": "contract IWstETH",
          "name": "wstETH_",
          "type": "address"
        },
        {
          "internalType": "uint256",
          "name": "minUpdateDiffPercent_",
          "type": "uint256"
        }
      ],
      "stateMutability": "nonpayable",
      "type": "constructor"
    },
    {
      "inputs": [
        {
          "internalType": "uint256",
          "name": "errorId_",
          "type": "uint256"
        }
      ],
      "name": "FluidOracleError",
      "type": "error"
    },
    {
      "anonymous": false,
      "inputs": [
        {
          "indexed": false,
          "internalType": "uint256",
          "name": "oldRate",
          "type": "uint256"
        },
        {
          "indexed": false,
          "internalType": "uint256",
          "name": "newRate",
          "type": "uint256"
        }
      ],
      "name": "LogRebalanceRate",
      "type": "event"
    },
    {
      "inputs": [],
      "name": "centerPrice",
      "outputs": [
        {
          "internalType": "uint256",
          "name": "price_",
          "type": "uint256"
        }
      ],
      "stateMutability": "view",
      "type": "function"
    },
    {
      "inputs": [],
      "name": "getExchangeRate",
      "outputs": [
        {
          "internalType": "uint256",
          "name": "exchangeRate_",
          "type": "uint256"
        }
      ],
      "stateMutability": "view",
      "type": "function"
    },
    {
      "inputs": [],
      "name": "getExchangeRateLiquidate",
      "outputs": [
        {
          "internalType": "uint256",
          "name": "exchangeRate_",
          "type": "uint256"
        }
      ],
      "stateMutability": "view",
      "type": "function"
    },
    {
      "inputs": [],
      "name": "getExchangeRateOperate",
      "outputs": [
        {
          "internalType": "uint256",
          "name": "exchangeRate_",
          "type": "uint256"
        }
      ],
      "stateMutability": "view",
      "type": "function"
    },
    {
      "inputs": [],
      "name": "infoName",
      "outputs": [
        {
          "internalType": "string",
          "name": "",
          "type": "string"
        }
      ],
      "stateMutability": "view",
      "type": "function"
    },
    {
      "inputs": [],
      "name": "rebalance",
      "outputs": [],
      "stateMutability": "nonpayable",
      "type": "function"
    },
    {
      "inputs": [],
      "name": "stEthPerToken",
      "outputs": [
        {
          "internalType": "uint256",
          "name": "",
          "type": "uint256"
        }
      ],
      "stateMutability": "view",
      "type": "function"
    },
    {
      "inputs": [],
      "name": "tokensPerStEth",
      "outputs": [
        {
          "internalType": "uint256",
          "name": "",
          "type": "uint256"
        }
      ],
      "stateMutability": "view",
      "type": "function"
    }
  ],
  "transactionHash": "0x706e1707255cdbf9c751553e780865eab87283315d8044cd72ac8a08aac4f016",
  "args": [
    [
      "wstETH <> stETH exchange rate",
      "0x7f39C581F595B53c5cb19bD0b3f8dA6c935E2Ca0",
      1
    ]
  ],
  "numDeployments": 1,
  "linkedData": {
    "nonce": "4"
  },
  "bytecode": "0x60e060405234801561001057600080fd5b5060405161084238038061084283398101604081905261002f91610114565b8260208151118061003f57508051155b156100665760405163c82fc46560e01b815261ea6a60048201526024015b60405180910390fd5b60200151608052816001600160a01b0381166100995760405163c82fc46560e01b815261ebbf600482015260240161005d565b8115806100a85750620186a082115b156100ca5760405163c82fc46560e01b815261ebbf600482015260240161005d565b506001600160a01b0390911660a05260c052506101f7565b634e487b7160e01b600052604160045260246000fd5b80516001600160a01b038116811461010f57600080fd5b919050565b60008060006060848603121561012957600080fd5b83516001600160401b038082111561014057600080fd5b818601915086601f83011261015457600080fd5b815181811115610166576101666100e2565b604051601f8201601f19908116603f0116810190838211818310171561018e5761018e6100e2565b816040528281526020935089848487010111156101aa57600080fd5b600091505b828210156101cc57848201840151818301850152908301906101af565b60008484830101528097505050506101e58187016100f8565b93505050604084015190509250925092565b60805160a05160c05161061661022c60003960006101e10152600060fa0152600081816102bc015261038101526106166000f3fe608060405234801561001057600080fd5b50600436106100885760003560e01c8063abd5f95d1161005b578063abd5f95d146100c2578063e6aa216c146100b2578063f3190c89146100b2578063f763f7a6146100b257600080fd5b8063035faf821461008d5780637d7c2a1c146100a85780638e7bfbc0146100b25780639576a0c8146100ba575b600080fd5b6100956100d7565b6040519081526020015b60405180910390f35b6100b06100f0565b005b600054610095565b610095610284565b6100ca6102a5565b60405161009f919061040f565b6000633b9aca006000546100eb91906104d9565b905090565b60008054905060007f000000000000000000000000000000000000000000000000000000000000000073ffffffffffffffffffffffffffffffffffffffff1663035faf826040518163ffffffff1660e01b8152600401602060405180830381865afa158015610163573d6000803e3d6000fd5b505050506040513d601f19601f820116820180604052508101906101879190610514565b61019590633b9aca0061052d565b90506000818311156101be578282840361271002816101b6576101b661047b565b0490506101df565b828211156101df578283830361271002816101db576101db61047b565b0490505b7f0000000000000000000000000000000000000000000000000000000000000000811015610241576040517fc82fc46500000000000000000000000000000000000000000000000000000000815261ebc1600482015260240160405180910390fd5b600082905560408051848152602081018490527f95f03a932c8aced8238058ac39deeaf30f8ddcbf42ade5ad3ada32f0d1338a08910160405180910390a1505050565b600080546100eb90722cd76fe086b93ce2f768a00b22a000000000006104d9565b60606100eb606060005b60208110801561031557507f000000000000000000000000000000000000000000000000000000000000000081602081106102ec576102ec61054a565b1a60f81b7fff000000000000000000000000000000000000000000000000000000000000001615155b1561032c578061032481610579565b9150506102af565b60008167ffffffffffffffff811115610347576103476105b1565b6040519080825280601f01601f191660200182016040528015610371576020820181803683370190505b50905060005b82811015610408577f000000000000000000000000000000000000000000000000000000000000000081602081106103b1576103b161054a565b1a60f81b8282815181106103c7576103c761054a565b60200101907effffffffffffffffffffffffffffffffffffffffffffffffffffffffffffff1916908160001a9053508061040081610579565b915050610377565b5092915050565b600060208083528351808285015260005b8181101561043c57858101830151858201604001528201610420565b5060006040828601015260407fffffffffffffffffffffffffffffffffffffffffffffffffffffffffffffffe0601f8301168501019250505092915050565b7f4e487b7100000000000000000000000000000000000000000000000000000000600052601260045260246000fd5b7f4e487b7100000000000000000000000000000000000000000000000000000000600052601160045260246000fd5b60008261050f577f4e487b7100000000000000000000000000000000000000000000000000000000600052601260045260246000fd5b500490565b60006020828403121561052657600080fd5b5051919050565b8082028115828204841417610544576105446104aa565b92915050565b7f4e487b7100000000000000000000000000000000000000000000000000000000600052603260045260246000fd5b60007fffffffffffffffffffffffffffffffffffffffffffffffffffffffffffffffff82036105aa576105aa6104aa565b5060010190565b7f4e487b7100000000000000000000000000000000000000000000000000000000600052604160045260246000fdfea2646970667358221220199335bc3d0f4331c7d5033c65d61a86de480d12179e17e62b7956dc29e0f27864736f6c63430008150033"
}