{
  "address": "0x733EAC95e17f72aE5b92596eCF7a3af4281AE3be",
  "abi": [
    {
      "inputs": [
        {
          "internalType": "string",
          "name": "infoName_",
          "type": "string"
        },
        {
          "internalType": "contract IFluidOracle",
          "name": "colFluidOracle_",
          "type": "address"
        },
        {
          "internalType": "contract IFluidOracle",
          "name": "debtFluidOracle_",
          "type": "address"
        }
      ],
      "stateMutability": "nonpayable",
      "type": "constructor"
    },
    {
      "inputs": [
        {
          "internalType": "uint256",
          "name": "errorId_",
          "type": "uint256"
        }
      ],
      "name": "FluidOracleError",
      "type": "error"
    },
    {
      "inputs": [],
      "name": "getExchangeRate",
      "outputs": [
        {
          "internalType": "uint256",
          "name": "exchangeRate_",
          "type": "uint256"
        }
      ],
      "stateMutability": "view",
      "type": "function"
    },
    {
      "inputs": [],
      "name": "getExchangeRateLiquidate",
      "outputs": [
        {
          "internalType": "uint256",
          "name": "exchangeRate_",
          "type": "uint256"
        }
      ],
      "stateMutability": "view",
      "type": "function"
    },
    {
      "inputs": [],
      "name": "getExchangeRateOperate",
      "outputs": [
        {
          "internalType": "uint256",
          "name": "exchangeRate_",
          "type": "uint256"
        }
      ],
      "stateMutability": "view",
      "type": "function"
    },
    {
      "inputs": [],
      "name": "infoName",
      "outputs": [
        {
          "internalType": "string",
          "name": "",
          "type": "string"
        }
      ],
      "stateMutability": "view",
      "type": "function"
    },
    {
      "inputs": [],
      "name": "pegFluidOracleData",
      "outputs": [
        {
          "internalType": "contract IFluidOracle",
          "name": "colFluidOracle_",
          "type": "address"
        },
        {
          "internalType": "contract IFluidOracle",
          "name": "debtFluidOracle_",
          "type": "address"
        }
      ],
      "stateMutability": "view",
      "type": "function"
    }
  ],
  "transactionHash": "0x5ed40df807462021a78e9fb20e8b45e2693dd12b7989f10cb9306efbe3f4f121",
  "args": [
    [
      "WSTETH for 1 RSETH",
      "0xBeaEEa6ec8eE5bDfdaA4b4337bb9e120CE6a0330",
      "0x2F95631D59F564D5e2dD0c028d4DAF3B876D84Fd"
    ]
  ],
  "numDeployments": 1,
  "linkedData": {
    "nonce": "67"
  },
  "bytecode": "0x60e060405234801561001057600080fd5b50604051610a0a380380610a0a83398101604081905261002f916100f6565b8260208151118061003f57508051155b156100665760405163c82fc46560e01b815261ea6a60048201526024015b60405180910390fd5b602001516080526001600160a01b038216158061008a57506001600160a01b038116155b156100ac5760405163c82fc46560e01b815261ebd3600482015260240161005d565b6001600160a01b0391821660a0521660c052506101e0565b634e487b7160e01b600052604160045260246000fd5b80516001600160a01b03811681146100f157600080fd5b919050565b60008060006060848603121561010b57600080fd5b83516001600160401b038082111561012257600080fd5b818601915086601f83011261013657600080fd5b815181811115610148576101486100c4565b604051601f8201601f19908116603f01168101908382118183101715610170576101706100c4565b8160405282815260209350898484870101111561018c57600080fd5b600091505b828210156101ae5784820184015181830185015290830190610191565b60008484830101528097505050506101c78187016100da565b935050506101d7604085016100da565b90509250925092565b60805160a05160c0516107da6102306000396000818160c70152818161011b01526103cf01526000818160a2015281816101b6015261046a01526000818161026e015261033301526107da6000f3fe608060405234801561001057600080fd5b50600436106100675760003560e01c8063abd5f95d11610050578063abd5f95d146100f2578063e6aa216c14610107578063f3190c891461010f57600080fd5b80638e7bfbc01461006c578063abd5e80314610087575b600080fd5b610074610117565b6040519081526020015b60405180910390f35b6040805173ffffffffffffffffffffffffffffffffffffffff7f0000000000000000000000000000000000000000000000000000000000000000811682527f00000000000000000000000000000000000000000000000000000000000000001660208201520161007e565b6100fa61025c565b60405161007e91906104d3565b6100746103c1565b6100746103cb565b60007f000000000000000000000000000000000000000000000000000000000000000073ffffffffffffffffffffffffffffffffffffffff16638e7bfbc06040518163ffffffff1660e01b8152600401602060405180830381865afa158015610184573d6000803e3d6000fd5b505050506040513d601f19601f820116820180604052508101906101a8919061053f565b6101b4601b600a6106a9565b7f000000000000000000000000000000000000000000000000000000000000000073ffffffffffffffffffffffffffffffffffffffff16638e7bfbc06040518163ffffffff1660e01b8152600401602060405180830381865afa15801561021f573d6000803e3d6000fd5b505050506040513d601f19601f82011682018060405250810190610243919061053f565b61024d91906106bc565b61025791906106d3565b905090565b606060005b6020811080156102c757507f0000000000000000000000000000000000000000000000000000000000000000816020811061029e5761029e61070e565b1a60f81b7fff000000000000000000000000000000000000000000000000000000000000001615155b156102de57806102d68161073d565b915050610261565b60008167ffffffffffffffff8111156102f9576102f9610775565b6040519080825280601f01601f191660200182016040528015610323576020820181803683370190505b50905060005b828110156103ba577f000000000000000000000000000000000000000000000000000000000000000081602081106103635761036361070e565b1a60f81b8282815181106103795761037961070e565b60200101907effffffffffffffffffffffffffffffffffffffffffffffffffffffffffffff1916908160001a905350806103b28161073d565b915050610329565b5092915050565b6000610257610117565b60007f000000000000000000000000000000000000000000000000000000000000000073ffffffffffffffffffffffffffffffffffffffff1663f3190c896040518163ffffffff1660e01b8152600401602060405180830381865afa158015610438573d6000803e3d6000fd5b505050506040513d601f19601f8201168201806040525081019061045c919061053f565b610468601b600a6106a9565b7f000000000000000000000000000000000000000000000000000000000000000073ffffffffffffffffffffffffffffffffffffffff1663f3190c896040518163ffffffff1660e01b8152600401602060405180830381865afa15801561021f573d6000803e3d6000fd5b600060208083528351808285015260005b81811015610500578581018301518582016040015282016104e4565b5060006040828601015260407fffffffffffffffffffffffffffffffffffffffffffffffffffffffffffffffe0601f8301168501019250505092915050565b60006020828403121561055157600080fd5b5051919050565b7f4e487b7100000000000000000000000000000000000000000000000000000000600052601160045260246000fd5b600181815b808511156105e057817fffffffffffffffffffffffffffffffffffffffffffffffffffffffffffffffff048211156105c6576105c6610558565b808516156105d357918102915b93841c939080029061058c565b509250929050565b6000826105f7575060016106a3565b81610604575060006106a3565b816001811461061a576002811461062457610640565b60019150506106a3565b60ff84111561063557610635610558565b50506001821b6106a3565b5060208310610133831016604e8410600b8410161715610663575081810a6106a3565b61066d8383610587565b807fffffffffffffffffffffffffffffffffffffffffffffffffffffffffffffffff0482111561069f5761069f610558565b0290505b92915050565b60006106b583836105e8565b9392505050565b80820281158282048414176106a3576106a3610558565b600082610709577f4e487b7100000000000000000000000000000000000000000000000000000000600052601260045260246000fd5b500490565b7f4e487b7100000000000000000000000000000000000000000000000000000000600052603260045260246000fd5b60007fffffffffffffffffffffffffffffffffffffffffffffffffffffffffffffffff820361076e5761076e610558565b5060010190565b7f4e487b7100000000000000000000000000000000000000000000000000000000600052604160045260246000fdfea2646970667358221220507dab24563d3ed25d5da26218ae235564545b04e4f5221dd25f2a06b04588f164736f6c63430008150033"
}