{
  "address": "0x741c2Cd25f053a55fd94afF1afAEf146523E1249",
  "abi": [
    {
      "inputs": [
        {
          "internalType": "contract IFluidLiquidity",
          "name": "liquidity_",
          "type": "address"
        }
      ],
      "stateMutability": "nonpayable",
      "type": "constructor"
    },
    {
      "inputs": [
        {
          "internalType": "uint256",
          "name": "errorId_",
          "type": "uint256"
        }
      ],
      "name": "FluidLiquidityCalcsError",
      "type": "error"
    },
    {
      "inputs": [],
      "name": "FluidLiquidityResolver__AddressZero",
      "type": "error"
    },
    {
      "inputs": [],
      "name": "LIQUIDITY",
      "outputs": [
        {
          "internalType": "contract IFluidLiquidity",
          "name": "",
          "type": "address"
        }
      ],
      "stateMutability": "view",
      "type": "function"
    },
    {
      "inputs": [
        {
          "internalType": "address",
          "name": "token_",
          "type": "address"
        }
      ],
      "name": "getExchangePricesAndConfig",
      "outputs": [
        {
          "internalType": "uint256",
          "name": "",
          "type": "uint256"
        }
      ],
      "stateMutability": "view",
      "type": "function"
    },
    {
      "inputs": [
        {
          "internalType": "address",
          "name": "token_",
          "type": "address"
        }
      ],
      "name": "getOverallTokenData",
      "outputs": [
        {
          "components": [
            {
              "internalType": "uint256",
              "name": "borrowRate",
              "type": "uint256"
            },
            {
              "internalType": "uint256",
              "name": "supplyRate",
              "type": "uint256"
            },
            {
              "internalType": "uint256",
              "name": "fee",
              "type": "uint256"
            },
            {
              "internalType": "uint256",
              "name": "lastStoredUtilization",
              "type": "uint256"
            },
            {
              "internalType": "uint256",
              "name": "storageUpdateThreshold",
              "type": "uint256"
            },
            {
              "internalType": "uint256",
              "name": "lastUpdateTimestamp",
              "type": "uint256"
            },
            {
              "internalType": "uint256",
              "name": "supplyExchangePrice",
              "type": "uint256"
            },
            {
              "internalType": "uint256",
              "name": "borrowExchangePrice",
              "type": "uint256"
            },
            {
              "internalType": "uint256",
              "name": "supplyRawInterest",
              "type": "uint256"
            },
            {
              "internalType": "uint256",
              "name": "supplyInterestFree",
              "type": "uint256"
            },
            {
              "internalType": "uint256",
              "name": "borrowRawInterest",
              "type": "uint256"
            },
            {
              "internalType": "uint256",
              "name": "borrowInterestFree",
              "type": "uint256"
            },
            {
              "internalType": "uint256",
              "name": "totalSupply",
              "type": "uint256"
            },
            {
              "internalType": "uint256",
              "name": "totalBorrow",
              "type": "uint256"
            },
            {
              "internalType": "uint256",
              "name": "revenue",
              "type": "uint256"
            },
            {
              "components": [
                {
                  "internalType": "uint256",
                  "name": "version",
                  "type": "uint256"
                },
                {
                  "components": [
                    {
                      "internalType": "address",
                      "name": "token",
                      "type": "address"
                    },
                    {
                      "internalType": "uint256",
                      "name": "kink",
                      "type": "uint256"
                    },
                    {
                      "internalType": "uint256",
                      "name": "rateAtUtilizationZero",
                      "type": "uint256"
                    },
                    {
                      "internalType": "uint256",
                      "name": "rateAtUtilizationKink",
                      "type": "uint256"
                    },
                    {
                      "internalType": "uint256",
                      "name": "rateAtUtilizationMax",
                      "type": "uint256"
                    }
                  ],
                  "internalType": "struct Structs.RateDataV1Params",
                  "name": "rateDataV1",
                  "type": "tuple"
                },
                {
                  "components": [
                    {
                      "internalType": "address",
                      "name": "token",
                      "type": "address"
                    },
                    {
                      "internalType": "uint256",
                      "name": "kink1",
                      "type": "uint256"
                    },
                    {
                      "internalType": "uint256",
                      "name": "kink2",
                      "type": "uint256"
                    },
                    {
                      "internalType": "uint256",
                      "name": "rateAtUtilizationZero",
                      "type": "uint256"
                    },
                    {
                      "internalType": "uint256",
                      "name": "rateAtUtilizationKink1",
                      "type": "uint256"
                    },
                    {
                      "internalType": "uint256",
                      "name": "rateAtUtilizationKink2",
                      "type": "uint256"
                    },
                    {
                      "internalType": "uint256",
                      "name": "rateAtUtilizationMax",
                      "type": "uint256"
                    }
                  ],
                  "internalType": "struct Structs.RateDataV2Params",
                  "name": "rateDataV2",
                  "type": "tuple"
                }
              ],
              "internalType": "struct Structs.RateData",
              "name": "rateData",
              "type": "tuple"
            }
          ],
          "internalType": "struct Structs.OverallTokenData",
          "name": "overallTokenData_",
          "type": "tuple"
        }
      ],
      "stateMutability": "view",
      "type": "function"
    },
    {
      "inputs": [
        {
          "internalType": "address[]",
          "name": "tokens_",
          "type": "address[]"
        }
      ],
      "name": "getOverallTokensData",
      "outputs": [
        {
          "components": [
            {
              "internalType": "uint256",
              "name": "borrowRate",
              "type": "uint256"
            },
            {
              "internalType": "uint256",
              "name": "supplyRate",
              "type": "uint256"
            },
            {
              "internalType": "uint256",
              "name": "fee",
              "type": "uint256"
            },
            {
              "internalType": "uint256",
              "name": "lastStoredUtilization",
              "type": "uint256"
            },
            {
              "internalType": "uint256",
              "name": "storageUpdateThreshold",
              "type": "uint256"
            },
            {
              "internalType": "uint256",
              "name": "lastUpdateTimestamp",
              "type": "uint256"
            },
            {
              "internalType": "uint256",
              "name": "supplyExchangePrice",
              "type": "uint256"
            },
            {
              "internalType": "uint256",
              "name": "borrowExchangePrice",
              "type": "uint256"
            },
            {
              "internalType": "uint256",
              "name": "supplyRawInterest",
              "type": "uint256"
            },
            {
              "internalType": "uint256",
              "name": "supplyInterestFree",
              "type": "uint256"
            },
            {
              "internalType": "uint256",
              "name": "borrowRawInterest",
              "type": "uint256"
            },
            {
              "internalType": "uint256",
              "name": "borrowInterestFree",
              "type": "uint256"
            },
            {
              "internalType": "uint256",
              "name": "totalSupply",
              "type": "uint256"
            },
            {
              "internalType": "uint256",
              "name": "totalBorrow",
              "type": "uint256"
            },
            {
              "internalType": "uint256",
              "name": "revenue",
              "type": "uint256"
            },
            {
              "components": [
                {
                  "internalType": "uint256",
                  "name": "version",
                  "type": "uint256"
                },
                {
                  "components": [
                    {
                      "internalType": "address",
                      "name": "token",
                      "type": "address"
                    },
                    {
                      "internalType": "uint256",
                      "name": "kink",
                      "type": "uint256"
                    },
                    {
                      "internalType": "uint256",
                      "name": "rateAtUtilizationZero",
                      "type": "uint256"
                    },
                    {
                      "internalType": "uint256",
                      "name": "rateAtUtilizationKink",
                      "type": "uint256"
                    },
                    {
                      "internalType": "uint256",
                      "name": "rateAtUtilizationMax",
                      "type": "uint256"
                    }
                  ],
                  "internalType": "struct Structs.RateDataV1Params",
                  "name": "rateDataV1",
                  "type": "tuple"
                },
                {
                  "components": [
                    {
                      "internalType": "address",
                      "name": "token",
                      "type": "address"
                    },
                    {
                      "internalType": "uint256",
                      "name": "kink1",
                      "type": "uint256"
                    },
                    {
                      "internalType": "uint256",
                      "name": "kink2",
                      "type": "uint256"
                    },
                    {
                      "internalType": "uint256",
                      "name": "rateAtUtilizationZero",
                      "type": "uint256"
                    },
                    {
                      "internalType": "uint256",
                      "name": "rateAtUtilizationKink1",
                      "type": "uint256"
                    },
                    {
                      "internalType": "uint256",
                      "name": "rateAtUtilizationKink2",
                      "type": "uint256"
                    },
                    {
                      "internalType": "uint256",
                      "name": "rateAtUtilizationMax",
                      "type": "uint256"
                    }
                  ],
                  "internalType": "struct Structs.RateDataV2Params",
                  "name": "rateDataV2",
                  "type": "tuple"
                }
              ],
              "internalType": "struct Structs.RateData",
              "name": "rateData",
              "type": "tuple"
            }
          ],
          "internalType": "struct Structs.OverallTokenData[]",
          "name": "overallTokensData_",
          "type": "tuple[]"
        }
      ],
      "stateMutability": "view",
      "type": "function"
    },
    {
      "inputs": [
        {
          "internalType": "address",
          "name": "token_",
          "type": "address"
        }
      ],
      "name": "getRateConfig",
      "outputs": [
        {
          "internalType": "uint256",
          "name": "",
          "type": "uint256"
        }
      ],
      "stateMutability": "view",
      "type": "function"
    },
    {
      "inputs": [
        {
          "internalType": "address",
          "name": "token_",
          "type": "address"
        }
      ],
      "name": "getRevenue",
      "outputs": [
        {
          "internalType": "uint256",
          "name": "revenueAmount_",
          "type": "uint256"
        }
      ],
      "stateMutability": "view",
      "type": "function"
    },
    {
      "inputs": [],
      "name": "getRevenueCollector",
      "outputs": [
        {
          "internalType": "address",
          "name": "",
          "type": "address"
        }
      ],
      "stateMutability": "view",
      "type": "function"
    },
    {
      "inputs": [],
      "name": "getStatus",
      "outputs": [
        {
          "internalType": "uint256",
          "name": "",
          "type": "uint256"
        }
      ],
      "stateMutability": "view",
      "type": "function"
    },
    {
      "inputs": [
        {
          "internalType": "address",
          "name": "token_",
          "type": "address"
        }
      ],
      "name": "getTokenRateData",
      "outputs": [
        {
          "components": [
            {
              "internalType": "uint256",
              "name": "version",
              "type": "uint256"
            },
            {
              "components": [
                {
                  "internalType": "address",
                  "name": "token",
                  "type": "address"
                },
                {
                  "internalType": "uint256",
                  "name": "kink",
                  "type": "uint256"
                },
                {
                  "internalType": "uint256",
                  "name": "rateAtUtilizationZero",
                  "type": "uint256"
                },
                {
                  "internalType": "uint256",
                  "name": "rateAtUtilizationKink",
                  "type": "uint256"
                },
                {
                  "internalType": "uint256",
                  "name": "rateAtUtilizationMax",
                  "type": "uint256"
                }
              ],
              "internalType": "struct Structs.RateDataV1Params",
              "name": "rateDataV1",
              "type": "tuple"
            },
            {
              "components": [
                {
                  "internalType": "address",
                  "name": "token",
                  "type": "address"
                },
                {
                  "internalType": "uint256",
                  "name": "kink1",
                  "type": "uint256"
                },
                {
                  "internalType": "uint256",
                  "name": "kink2",
                  "type": "uint256"
                },
                {
                  "internalType": "uint256",
                  "name": "rateAtUtilizationZero",
                  "type": "uint256"
                },
                {
                  "internalType": "uint256",
                  "name": "rateAtUtilizationKink1",
                  "type": "uint256"
                },
                {
                  "internalType": "uint256",
                  "name": "rateAtUtilizationKink2",
                  "type": "uint256"
                },
                {
                  "internalType": "uint256",
                  "name": "rateAtUtilizationMax",
                  "type": "uint256"
                }
              ],
              "internalType": "struct Structs.RateDataV2Params",
              "name": "rateDataV2",
              "type": "tuple"
            }
          ],
          "internalType": "struct Structs.RateData",
          "name": "rateData_",
          "type": "tuple"
        }
      ],
      "stateMutability": "view",
      "type": "function"
    },
    {
      "inputs": [
        {
          "internalType": "address[]",
          "name": "tokens_",
          "type": "address[]"
        }
      ],
      "name": "getTokensRateData",
      "outputs": [
        {
          "components": [
            {
              "internalType": "uint256",
              "name": "version",
              "type": "uint256"
            },
            {
              "components": [
                {
                  "internalType": "address",
                  "name": "token",
                  "type": "address"
                },
                {
                  "internalType": "uint256",
                  "name": "kink",
                  "type": "uint256"
                },
                {
                  "internalType": "uint256",
                  "name": "rateAtUtilizationZero",
                  "type": "uint256"
                },
                {
                  "internalType": "uint256",
                  "name": "rateAtUtilizationKink",
                  "type": "uint256"
                },
                {
                  "internalType": "uint256",
                  "name": "rateAtUtilizationMax",
                  "type": "uint256"
                }
              ],
              "internalType": "struct Structs.RateDataV1Params",
              "name": "rateDataV1",
              "type": "tuple"
            },
            {
              "components": [
                {
                  "internalType": "address",
                  "name": "token",
                  "type": "address"
                },
                {
                  "internalType": "uint256",
                  "name": "kink1",
                  "type": "uint256"
                },
                {
                  "internalType": "uint256",
                  "name": "kink2",
                  "type": "uint256"
                },
                {
                  "internalType": "uint256",
                  "name": "rateAtUtilizationZero",
                  "type": "uint256"
                },
                {
                  "internalType": "uint256",
                  "name": "rateAtUtilizationKink1",
                  "type": "uint256"
                },
                {
                  "internalType": "uint256",
                  "name": "rateAtUtilizationKink2",
                  "type": "uint256"
                },
                {
                  "internalType": "uint256",
                  "name": "rateAtUtilizationMax",
                  "type": "uint256"
                }
              ],
              "internalType": "struct Structs.RateDataV2Params",
              "name": "rateDataV2",
              "type": "tuple"
            }
          ],
          "internalType": "struct Structs.RateData[]",
          "name": "rateDatas_",
          "type": "tuple[]"
        }
      ],
      "stateMutability": "view",
      "type": "function"
    },
    {
      "inputs": [
        {
          "internalType": "address",
          "name": "token_",
          "type": "address"
        }
      ],
      "name": "getTotalAmounts",
      "outputs": [
        {
          "internalType": "uint256",
          "name": "",
          "type": "uint256"
        }
      ],
      "stateMutability": "view",
      "type": "function"
    },
    {
      "inputs": [
        {
          "internalType": "address",
          "name": "user_",
          "type": "address"
        },
        {
          "internalType": "address",
          "name": "token_",
          "type": "address"
        }
      ],
      "name": "getUserBorrow",
      "outputs": [
        {
          "internalType": "uint256",
          "name": "",
          "type": "uint256"
        }
      ],
      "stateMutability": "view",
      "type": "function"
    },
    {
      "inputs": [
        {
          "internalType": "address",
          "name": "user_",
          "type": "address"
        },
        {
          "internalType": "address",
          "name": "token_",
          "type": "address"
        }
      ],
      "name": "getUserBorrowData",
      "outputs": [
        {
          "components": [
            {
              "internalType": "bool",
              "name": "modeWithInterest",
              "type": "bool"
            },
            {
              "internalType": "uint256",
              "name": "borrow",
              "type": "uint256"
            },
            {
              "internalType": "uint256",
              "name": "borrowLimit",
              "type": "uint256"
            },
            {
              "internalType": "uint256",
              "name": "lastUpdateTimestamp",
              "type": "uint256"
            },
            {
              "internalType": "uint256",
              "name": "expandPercent",
              "type": "uint256"
            },
            {
              "internalType": "uint256",
              "name": "expandDuration",
              "type": "uint256"
            },
            {
              "internalType": "uint256",
              "name": "baseBorrowLimit",
              "type": "uint256"
            },
            {
              "internalType": "uint256",
              "name": "maxBorrowLimit",
              "type": "uint256"
            },
            {
              "internalType": "uint256",
              "name": "borrowableUntilLimit",
              "type": "uint256"
            },
            {
              "internalType": "uint256",
              "name": "borrowable",
              "type": "uint256"
            }
          ],
          "internalType": "struct Structs.UserBorrowData",
          "name": "userBorrowData_",
          "type": "tuple"
        },
        {
          "components": [
            {
              "internalType": "uint256",
              "name": "borrowRate",
              "type": "uint256"
            },
            {
              "internalType": "uint256",
              "name": "supplyRate",
              "type": "uint256"
            },
            {
              "internalType": "uint256",
              "name": "fee",
              "type": "uint256"
            },
            {
              "internalType": "uint256",
              "name": "lastStoredUtilization",
              "type": "uint256"
            },
            {
              "internalType": "uint256",
              "name": "storageUpdateThreshold",
              "type": "uint256"
            },
            {
              "internalType": "uint256",
              "name": "lastUpdateTimestamp",
              "type": "uint256"
            },
            {
              "internalType": "uint256",
              "name": "supplyExchangePrice",
              "type": "uint256"
            },
            {
              "internalType": "uint256",
              "name": "borrowExchangePrice",
              "type": "uint256"
            },
            {
              "internalType": "uint256",
              "name": "supplyRawInterest",
              "type": "uint256"
            },
            {
              "internalType": "uint256",
              "name": "supplyInterestFree",
              "type": "uint256"
            },
            {
              "internalType": "uint256",
              "name": "borrowRawInterest",
              "type": "uint256"
            },
            {
              "internalType": "uint256",
              "name": "borrowInterestFree",
              "type": "uint256"
            },
            {
              "internalType": "uint256",
              "name": "totalSupply",
              "type": "uint256"
            },
            {
              "internalType": "uint256",
              "name": "totalBorrow",
              "type": "uint256"
            },
            {
              "internalType": "uint256",
              "name": "revenue",
              "type": "uint256"
            },
            {
              "components": [
                {
                  "internalType": "uint256",
                  "name": "version",
                  "type": "uint256"
                },
                {
                  "components": [
                    {
                      "internalType": "address",
                      "name": "token",
                      "type": "address"
                    },
                    {
                      "internalType": "uint256",
                      "name": "kink",
                      "type": "uint256"
                    },
                    {
                      "internalType": "uint256",
                      "name": "rateAtUtilizationZero",
                      "type": "uint256"
                    },
                    {
                      "internalType": "uint256",
                      "name": "rateAtUtilizationKink",
                      "type": "uint256"
                    },
                    {
                      "internalType": "uint256",
                      "name": "rateAtUtilizationMax",
                      "type": "uint256"
                    }
                  ],
                  "internalType": "struct Structs.RateDataV1Params",
                  "name": "rateDataV1",
                  "type": "tuple"
                },
                {
                  "components": [
                    {
                      "internalType": "address",
                      "name": "token",
                      "type": "address"
                    },
                    {
                      "internalType": "uint256",
                      "name": "kink1",
                      "type": "uint256"
                    },
                    {
                      "internalType": "uint256",
                      "name": "kink2",
                      "type": "uint256"
                    },
                    {
                      "internalType": "uint256",
                      "name": "rateAtUtilizationZero",
                      "type": "uint256"
                    },
                    {
                      "internalType": "uint256",
                      "name": "rateAtUtilizationKink1",
                      "type": "uint256"
                    },
                    {
                      "internalType": "uint256",
                      "name": "rateAtUtilizationKink2",
                      "type": "uint256"
                    },
                    {
                      "internalType": "uint256",
                      "name": "rateAtUtilizationMax",
                      "type": "uint256"
                    }
                  ],
                  "internalType": "struct Structs.RateDataV2Params",
                  "name": "rateDataV2",
                  "type": "tuple"
                }
              ],
              "internalType": "struct Structs.RateData",
              "name": "rateData",
              "type": "tuple"
            }
          ],
          "internalType": "struct Structs.OverallTokenData",
          "name": "overallTokenData_",
          "type": "tuple"
        }
      ],
      "stateMutability": "view",
      "type": "function"
    },
    {
      "inputs": [
        {
          "internalType": "address",
          "name": "user_",
          "type": "address"
        }
      ],
      "name": "getUserClass",
      "outputs": [
        {
          "internalType": "uint256",
          "name": "",
          "type": "uint256"
        }
      ],
      "stateMutability": "view",
      "type": "function"
    },
    {
      "inputs": [
        {
          "internalType": "address",
          "name": "user_",
          "type": "address"
        },
        {
          "internalType": "address[]",
          "name": "tokens_",
          "type": "address[]"
        }
      ],
      "name": "getUserMultipleBorrowData",
      "outputs": [
        {
          "components": [
            {
              "internalType": "bool",
              "name": "modeWithInterest",
              "type": "bool"
            },
            {
              "internalType": "uint256",
              "name": "borrow",
              "type": "uint256"
            },
            {
              "internalType": "uint256",
              "name": "borrowLimit",
              "type": "uint256"
            },
            {
              "internalType": "uint256",
              "name": "lastUpdateTimestamp",
              "type": "uint256"
            },
            {
              "internalType": "uint256",
              "name": "expandPercent",
              "type": "uint256"
            },
            {
              "internalType": "uint256",
              "name": "expandDuration",
              "type": "uint256"
            },
            {
              "internalType": "uint256",
              "name": "baseBorrowLimit",
              "type": "uint256"
            },
            {
              "internalType": "uint256",
              "name": "maxBorrowLimit",
              "type": "uint256"
            },
            {
              "internalType": "uint256",
              "name": "borrowableUntilLimit",
              "type": "uint256"
            },
            {
              "internalType": "uint256",
              "name": "borrowable",
              "type": "uint256"
            }
          ],
          "internalType": "struct Structs.UserBorrowData[]",
          "name": "userBorrowingsData_",
          "type": "tuple[]"
        },
        {
          "components": [
            {
              "internalType": "uint256",
              "name": "borrowRate",
              "type": "uint256"
            },
            {
              "internalType": "uint256",
              "name": "supplyRate",
              "type": "uint256"
            },
            {
              "internalType": "uint256",
              "name": "fee",
              "type": "uint256"
            },
            {
              "internalType": "uint256",
              "name": "lastStoredUtilization",
              "type": "uint256"
            },
            {
              "internalType": "uint256",
              "name": "storageUpdateThreshold",
              "type": "uint256"
            },
            {
              "internalType": "uint256",
              "name": "lastUpdateTimestamp",
              "type": "uint256"
            },
            {
              "internalType": "uint256",
              "name": "supplyExchangePrice",
              "type": "uint256"
            },
            {
              "internalType": "uint256",
              "name": "borrowExchangePrice",
              "type": "uint256"
            },
            {
              "internalType": "uint256",
              "name": "supplyRawInterest",
              "type": "uint256"
            },
            {
              "internalType": "uint256",
              "name": "supplyInterestFree",
              "type": "uint256"
            },
            {
              "internalType": "uint256",
              "name": "borrowRawInterest",
              "type": "uint256"
            },
            {
              "internalType": "uint256",
              "name": "borrowInterestFree",
              "type": "uint256"
            },
            {
              "internalType": "uint256",
              "name": "totalSupply",
              "type": "uint256"
            },
            {
              "internalType": "uint256",
              "name": "totalBorrow",
              "type": "uint256"
            },
            {
              "internalType": "uint256",
              "name": "revenue",
              "type": "uint256"
            },
            {
              "components": [
                {
                  "internalType": "uint256",
                  "name": "version",
                  "type": "uint256"
                },
                {
                  "components": [
                    {
                      "internalType": "address",
                      "name": "token",
                      "type": "address"
                    },
                    {
                      "internalType": "uint256",
                      "name": "kink",
                      "type": "uint256"
                    },
                    {
                      "internalType": "uint256",
                      "name": "rateAtUtilizationZero",
                      "type": "uint256"
                    },
                    {
                      "internalType": "uint256",
                      "name": "rateAtUtilizationKink",
                      "type": "uint256"
                    },
                    {
                      "internalType": "uint256",
                      "name": "rateAtUtilizationMax",
                      "type": "uint256"
                    }
                  ],
                  "internalType": "struct Structs.RateDataV1Params",
                  "name": "rateDataV1",
                  "type": "tuple"
                },
                {
                  "components": [
                    {
                      "internalType": "address",
                      "name": "token",
                      "type": "address"
                    },
                    {
                      "internalType": "uint256",
                      "name": "kink1",
                      "type": "uint256"
                    },
                    {
                      "internalType": "uint256",
                      "name": "kink2",
                      "type": "uint256"
                    },
                    {
                      "internalType": "uint256",
                      "name": "rateAtUtilizationZero",
                      "type": "uint256"
                    },
                    {
                      "internalType": "uint256",
                      "name": "rateAtUtilizationKink1",
                      "type": "uint256"
                    },
                    {
                      "internalType": "uint256",
                      "name": "rateAtUtilizationKink2",
                      "type": "uint256"
                    },
                    {
                      "internalType": "uint256",
                      "name": "rateAtUtilizationMax",
                      "type": "uint256"
                    }
                  ],
                  "internalType": "struct Structs.RateDataV2Params",
                  "name": "rateDataV2",
                  "type": "tuple"
                }
              ],
              "internalType": "struct Structs.RateData",
              "name": "rateData",
              "type": "tuple"
            }
          ],
          "internalType": "struct Structs.OverallTokenData[]",
          "name": "overallTokensData_",
          "type": "tuple[]"
        }
      ],
      "stateMutability": "view",
      "type": "function"
    },
    {
      "inputs": [
        {
          "internalType": "address",
          "name": "user_",
          "type": "address"
        },
        {
          "internalType": "address[]",
          "name": "supplyTokens_",
          "type": "address[]"
        },
        {
          "internalType": "address[]",
          "name": "borrowTokens_",
          "type": "address[]"
        }
      ],
      "name": "getUserMultipleBorrowSupplyData",
      "outputs": [
        {
          "components": [
            {
              "internalType": "bool",
              "name": "modeWithInterest",
              "type": "bool"
            },
            {
              "internalType": "uint256",
              "name": "supply",
              "type": "uint256"
            },
            {
              "internalType": "uint256",
              "name": "withdrawalLimit",
              "type": "uint256"
            },
            {
              "internalType": "uint256",
              "name": "lastUpdateTimestamp",
              "type": "uint256"
            },
            {
              "internalType": "uint256",
              "name": "expandPercent",
              "type": "uint256"
            },
            {
              "internalType": "uint256",
              "name": "expandDuration",
              "type": "uint256"
            },
            {
              "internalType": "uint256",
              "name": "baseWithdrawalLimit",
              "type": "uint256"
            },
            {
              "internalType": "uint256",
              "name": "withdrawableUntilLimit",
              "type": "uint256"
            },
            {
              "internalType": "uint256",
              "name": "withdrawable",
              "type": "uint256"
            }
          ],
          "internalType": "struct Structs.UserSupplyData[]",
          "name": "userSuppliesData_",
          "type": "tuple[]"
        },
        {
          "components": [
            {
              "internalType": "uint256",
              "name": "borrowRate",
              "type": "uint256"
            },
            {
              "internalType": "uint256",
              "name": "supplyRate",
              "type": "uint256"
            },
            {
              "internalType": "uint256",
              "name": "fee",
              "type": "uint256"
            },
            {
              "internalType": "uint256",
              "name": "lastStoredUtilization",
              "type": "uint256"
            },
            {
              "internalType": "uint256",
              "name": "storageUpdateThreshold",
              "type": "uint256"
            },
            {
              "internalType": "uint256",
              "name": "lastUpdateTimestamp",
              "type": "uint256"
            },
            {
              "internalType": "uint256",
              "name": "supplyExchangePrice",
              "type": "uint256"
            },
            {
              "internalType": "uint256",
              "name": "borrowExchangePrice",
              "type": "uint256"
            },
            {
              "internalType": "uint256",
              "name": "supplyRawInterest",
              "type": "uint256"
            },
            {
              "internalType": "uint256",
              "name": "supplyInterestFree",
              "type": "uint256"
            },
            {
              "internalType": "uint256",
              "name": "borrowRawInterest",
              "type": "uint256"
            },
            {
              "internalType": "uint256",
              "name": "borrowInterestFree",
              "type": "uint256"
            },
            {
              "internalType": "uint256",
              "name": "totalSupply",
              "type": "uint256"
            },
            {
              "internalType": "uint256",
              "name": "totalBorrow",
              "type": "uint256"
            },
            {
              "internalType": "uint256",
              "name": "revenue",
              "type": "uint256"
            },
            {
              "components": [
                {
                  "internalType": "uint256",
                  "name": "version",
                  "type": "uint256"
                },
                {
                  "components": [
                    {
                      "internalType": "address",
                      "name": "token",
                      "type": "address"
                    },
                    {
                      "internalType": "uint256",
                      "name": "kink",
                      "type": "uint256"
                    },
                    {
                      "internalType": "uint256",
                      "name": "rateAtUtilizationZero",
                      "type": "uint256"
                    },
                    {
                      "internalType": "uint256",
                      "name": "rateAtUtilizationKink",
                      "type": "uint256"
                    },
                    {
                      "internalType": "uint256",
                      "name": "rateAtUtilizationMax",
                      "type": "uint256"
                    }
                  ],
                  "internalType": "struct Structs.RateDataV1Params",
                  "name": "rateDataV1",
                  "type": "tuple"
                },
                {
                  "components": [
                    {
                      "internalType": "address",
                      "name": "token",
                      "type": "address"
                    },
                    {
                      "internalType": "uint256",
                      "name": "kink1",
                      "type": "uint256"
                    },
                    {
                      "internalType": "uint256",
                      "name": "kink2",
                      "type": "uint256"
                    },
                    {
                      "internalType": "uint256",
                      "name": "rateAtUtilizationZero",
                      "type": "uint256"
                    },
                    {
                      "internalType": "uint256",
                      "name": "rateAtUtilizationKink1",
                      "type": "uint256"
                    },
                    {
                      "internalType": "uint256",
                      "name": "rateAtUtilizationKink2",
                      "type": "uint256"
                    },
                    {
                      "internalType": "uint256",
                      "name": "rateAtUtilizationMax",
                      "type": "uint256"
                    }
                  ],
                  "internalType": "struct Structs.RateDataV2Params",
                  "name": "rateDataV2",
                  "type": "tuple"
                }
              ],
              "internalType": "struct Structs.RateData",
              "name": "rateData",
              "type": "tuple"
            }
          ],
          "internalType": "struct Structs.OverallTokenData[]",
          "name": "overallSupplyTokensData_",
          "type": "tuple[]"
        },
        {
          "components": [
            {
              "internalType": "bool",
              "name": "modeWithInterest",
              "type": "bool"
            },
            {
              "internalType": "uint256",
              "name": "borrow",
              "type": "uint256"
            },
            {
              "internalType": "uint256",
              "name": "borrowLimit",
              "type": "uint256"
            },
            {
              "internalType": "uint256",
              "name": "lastUpdateTimestamp",
              "type": "uint256"
            },
            {
              "internalType": "uint256",
              "name": "expandPercent",
              "type": "uint256"
            },
            {
              "internalType": "uint256",
              "name": "expandDuration",
              "type": "uint256"
            },
            {
              "internalType": "uint256",
              "name": "baseBorrowLimit",
              "type": "uint256"
            },
            {
              "internalType": "uint256",
              "name": "maxBorrowLimit",
              "type": "uint256"
            },
            {
              "internalType": "uint256",
              "name": "borrowableUntilLimit",
              "type": "uint256"
            },
            {
              "internalType": "uint256",
              "name": "borrowable",
              "type": "uint256"
            }
          ],
          "internalType": "struct Structs.UserBorrowData[]",
          "name": "userBorrowingsData_",
          "type": "tuple[]"
        },
        {
          "components": [
            {
              "internalType": "uint256",
              "name": "borrowRate",
              "type": "uint256"
            },
            {
              "internalType": "uint256",
              "name": "supplyRate",
              "type": "uint256"
            },
            {
              "internalType": "uint256",
              "name": "fee",
              "type": "uint256"
            },
            {
              "internalType": "uint256",
              "name": "lastStoredUtilization",
              "type": "uint256"
            },
            {
              "internalType": "uint256",
              "name": "storageUpdateThreshold",
              "type": "uint256"
            },
            {
              "internalType": "uint256",
              "name": "lastUpdateTimestamp",
              "type": "uint256"
            },
            {
              "internalType": "uint256",
              "name": "supplyExchangePrice",
              "type": "uint256"
            },
            {
              "internalType": "uint256",
              "name": "borrowExchangePrice",
              "type": "uint256"
            },
            {
              "internalType": "uint256",
              "name": "supplyRawInterest",
              "type": "uint256"
            },
            {
              "internalType": "uint256",
              "name": "supplyInterestFree",
              "type": "uint256"
            },
            {
              "internalType": "uint256",
              "name": "borrowRawInterest",
              "type": "uint256"
            },
            {
              "internalType": "uint256",
              "name": "borrowInterestFree",
              "type": "uint256"
            },
            {
              "internalType": "uint256",
              "name": "totalSupply",
              "type": "uint256"
            },
            {
              "internalType": "uint256",
              "name": "totalBorrow",
              "type": "uint256"
            },
            {
              "internalType": "uint256",
              "name": "revenue",
              "type": "uint256"
            },
            {
              "components": [
                {
                  "internalType": "uint256",
                  "name": "version",
                  "type": "uint256"
                },
                {
                  "components": [
                    {
                      "internalType": "address",
                      "name": "token",
                      "type": "address"
                    },
                    {
                      "internalType": "uint256",
                      "name": "kink",
                      "type": "uint256"
                    },
                    {
                      "internalType": "uint256",
                      "name": "rateAtUtilizationZero",
                      "type": "uint256"
                    },
                    {
                      "internalType": "uint256",
                      "name": "rateAtUtilizationKink",
                      "type": "uint256"
                    },
                    {
                      "internalType": "uint256",
                      "name": "rateAtUtilizationMax",
                      "type": "uint256"
                    }
                  ],
                  "internalType": "struct Structs.RateDataV1Params",
                  "name": "rateDataV1",
                  "type": "tuple"
                },
                {
                  "components": [
                    {
                      "internalType": "address",
                      "name": "token",
                      "type": "address"
                    },
                    {
                      "internalType": "uint256",
                      "name": "kink1",
                      "type": "uint256"
                    },
                    {
                      "internalType": "uint256",
                      "name": "kink2",
                      "type": "uint256"
                    },
                    {
                      "internalType": "uint256",
                      "name": "rateAtUtilizationZero",
                      "type": "uint256"
                    },
                    {
                      "internalType": "uint256",
                      "name": "rateAtUtilizationKink1",
                      "type": "uint256"
                    },
                    {
                      "internalType": "uint256",
                      "name": "rateAtUtilizationKink2",
                      "type": "uint256"
                    },
                    {
                      "internalType": "uint256",
                      "name": "rateAtUtilizationMax",
                      "type": "uint256"
                    }
                  ],
                  "internalType": "struct Structs.RateDataV2Params",
                  "name": "rateDataV2",
                  "type": "tuple"
                }
              ],
              "internalType": "struct Structs.RateData",
              "name": "rateData",
              "type": "tuple"
            }
          ],
          "internalType": "struct Structs.OverallTokenData[]",
          "name": "overallBorrowTokensData_",
          "type": "tuple[]"
        }
      ],
      "stateMutability": "view",
      "type": "function"
    },
    {
      "inputs": [
        {
          "internalType": "address",
          "name": "user_",
          "type": "address"
        },
        {
          "internalType": "address[]",
          "name": "tokens_",
          "type": "address[]"
        }
      ],
      "name": "getUserMultipleSupplyData",
      "outputs": [
        {
          "components": [
            {
              "internalType": "bool",
              "name": "modeWithInterest",
              "type": "bool"
            },
            {
              "internalType": "uint256",
              "name": "supply",
              "type": "uint256"
            },
            {
              "internalType": "uint256",
              "name": "withdrawalLimit",
              "type": "uint256"
            },
            {
              "internalType": "uint256",
              "name": "lastUpdateTimestamp",
              "type": "uint256"
            },
            {
              "internalType": "uint256",
              "name": "expandPercent",
              "type": "uint256"
            },
            {
              "internalType": "uint256",
              "name": "expandDuration",
              "type": "uint256"
            },
            {
              "internalType": "uint256",
              "name": "baseWithdrawalLimit",
              "type": "uint256"
            },
            {
              "internalType": "uint256",
              "name": "withdrawableUntilLimit",
              "type": "uint256"
            },
            {
              "internalType": "uint256",
              "name": "withdrawable",
              "type": "uint256"
            }
          ],
          "internalType": "struct Structs.UserSupplyData[]",
          "name": "userSuppliesData_",
          "type": "tuple[]"
        },
        {
          "components": [
            {
              "internalType": "uint256",
              "name": "borrowRate",
              "type": "uint256"
            },
            {
              "internalType": "uint256",
              "name": "supplyRate",
              "type": "uint256"
            },
            {
              "internalType": "uint256",
              "name": "fee",
              "type": "uint256"
            },
            {
              "internalType": "uint256",
              "name": "lastStoredUtilization",
              "type": "uint256"
            },
            {
              "internalType": "uint256",
              "name": "storageUpdateThreshold",
              "type": "uint256"
            },
            {
              "internalType": "uint256",
              "name": "lastUpdateTimestamp",
              "type": "uint256"
            },
            {
              "internalType": "uint256",
              "name": "supplyExchangePrice",
              "type": "uint256"
            },
            {
              "internalType": "uint256",
              "name": "borrowExchangePrice",
              "type": "uint256"
            },
            {
              "internalType": "uint256",
              "name": "supplyRawInterest",
              "type": "uint256"
            },
            {
              "internalType": "uint256",
              "name": "supplyInterestFree",
              "type": "uint256"
            },
            {
              "internalType": "uint256",
              "name": "borrowRawInterest",
              "type": "uint256"
            },
            {
              "internalType": "uint256",
              "name": "borrowInterestFree",
              "type": "uint256"
            },
            {
              "internalType": "uint256",
              "name": "totalSupply",
              "type": "uint256"
            },
            {
              "internalType": "uint256",
              "name": "totalBorrow",
              "type": "uint256"
            },
            {
              "internalType": "uint256",
              "name": "revenue",
              "type": "uint256"
            },
            {
              "components": [
                {
                  "internalType": "uint256",
                  "name": "version",
                  "type": "uint256"
                },
                {
                  "components": [
                    {
                      "internalType": "address",
                      "name": "token",
                      "type": "address"
                    },
                    {
                      "internalType": "uint256",
                      "name": "kink",
                      "type": "uint256"
                    },
                    {
                      "internalType": "uint256",
                      "name": "rateAtUtilizationZero",
                      "type": "uint256"
                    },
                    {
                      "internalType": "uint256",
                      "name": "rateAtUtilizationKink",
                      "type": "uint256"
                    },
                    {
                      "internalType": "uint256",
                      "name": "rateAtUtilizationMax",
                      "type": "uint256"
                    }
                  ],
                  "internalType": "struct Structs.RateDataV1Params",
                  "name": "rateDataV1",
                  "type": "tuple"
                },
                {
                  "components": [
                    {
                      "internalType": "address",
                      "name": "token",
                      "type": "address"
                    },
                    {
                      "internalType": "uint256",
                      "name": "kink1",
                      "type": "uint256"
                    },
                    {
                      "internalType": "uint256",
                      "name": "kink2",
                      "type": "uint256"
                    },
                    {
                      "internalType": "uint256",
                      "name": "rateAtUtilizationZero",
                      "type": "uint256"
                    },
                    {
                      "internalType": "uint256",
                      "name": "rateAtUtilizationKink1",
                      "type": "uint256"
                    },
                    {
                      "internalType": "uint256",
                      "name": "rateAtUtilizationKink2",
                      "type": "uint256"
                    },
                    {
                      "internalType": "uint256",
                      "name": "rateAtUtilizationMax",
                      "type": "uint256"
                    }
                  ],
                  "internalType": "struct Structs.RateDataV2Params",
                  "name": "rateDataV2",
                  "type": "tuple"
                }
              ],
              "internalType": "struct Structs.RateData",
              "name": "rateData",
              "type": "tuple"
            }
          ],
          "internalType": "struct Structs.OverallTokenData[]",
          "name": "overallTokensData_",
          "type": "tuple[]"
        }
      ],
      "stateMutability": "view",
      "type": "function"
    },
    {
      "inputs": [
        {
          "internalType": "address",
          "name": "user_",
          "type": "address"
        },
        {
          "internalType": "address",
          "name": "token_",
          "type": "address"
        }
      ],
      "name": "getUserSupply",
      "outputs": [
        {
          "internalType": "uint256",
          "name": "",
          "type": "uint256"
        }
      ],
      "stateMutability": "view",
      "type": "function"
    },
    {
      "inputs": [
        {
          "internalType": "address",
          "name": "user_",
          "type": "address"
        },
        {
          "internalType": "address",
          "name": "token_",
          "type": "address"
        }
      ],
      "name": "getUserSupplyData",
      "outputs": [
        {
          "components": [
            {
              "internalType": "bool",
              "name": "modeWithInterest",
              "type": "bool"
            },
            {
              "internalType": "uint256",
              "name": "supply",
              "type": "uint256"
            },
            {
              "internalType": "uint256",
              "name": "withdrawalLimit",
              "type": "uint256"
            },
            {
              "internalType": "uint256",
              "name": "lastUpdateTimestamp",
              "type": "uint256"
            },
            {
              "internalType": "uint256",
              "name": "expandPercent",
              "type": "uint256"
            },
            {
              "internalType": "uint256",
              "name": "expandDuration",
              "type": "uint256"
            },
            {
              "internalType": "uint256",
              "name": "baseWithdrawalLimit",
              "type": "uint256"
            },
            {
              "internalType": "uint256",
              "name": "withdrawableUntilLimit",
              "type": "uint256"
            },
            {
              "internalType": "uint256",
              "name": "withdrawable",
              "type": "uint256"
            }
          ],
          "internalType": "struct Structs.UserSupplyData",
          "name": "userSupplyData_",
          "type": "tuple"
        },
        {
          "components": [
            {
              "internalType": "uint256",
              "name": "borrowRate",
              "type": "uint256"
            },
            {
              "internalType": "uint256",
              "name": "supplyRate",
              "type": "uint256"
            },
            {
              "internalType": "uint256",
              "name": "fee",
              "type": "uint256"
            },
            {
              "internalType": "uint256",
              "name": "lastStoredUtilization",
              "type": "uint256"
            },
            {
              "internalType": "uint256",
              "name": "storageUpdateThreshold",
              "type": "uint256"
            },
            {
              "internalType": "uint256",
              "name": "lastUpdateTimestamp",
              "type": "uint256"
            },
            {
              "internalType": "uint256",
              "name": "supplyExchangePrice",
              "type": "uint256"
            },
            {
              "internalType": "uint256",
              "name": "borrowExchangePrice",
              "type": "uint256"
            },
            {
              "internalType": "uint256",
              "name": "supplyRawInterest",
              "type": "uint256"
            },
            {
              "internalType": "uint256",
              "name": "supplyInterestFree",
              "type": "uint256"
            },
            {
              "internalType": "uint256",
              "name": "borrowRawInterest",
              "type": "uint256"
            },
            {
              "internalType": "uint256",
              "name": "borrowInterestFree",
              "type": "uint256"
            },
            {
              "internalType": "uint256",
              "name": "totalSupply",
              "type": "uint256"
            },
            {
              "internalType": "uint256",
              "name": "totalBorrow",
              "type": "uint256"
            },
            {
              "internalType": "uint256",
              "name": "revenue",
              "type": "uint256"
            },
            {
              "components": [
                {
                  "internalType": "uint256",
                  "name": "version",
                  "type": "uint256"
                },
                {
                  "components": [
                    {
                      "internalType": "address",
                      "name": "token",
                      "type": "address"
                    },
                    {
                      "internalType": "uint256",
                      "name": "kink",
                      "type": "uint256"
                    },
                    {
                      "internalType": "uint256",
                      "name": "rateAtUtilizationZero",
                      "type": "uint256"
                    },
                    {
                      "internalType": "uint256",
                      "name": "rateAtUtilizationKink",
                      "type": "uint256"
                    },
                    {
                      "internalType": "uint256",
                      "name": "rateAtUtilizationMax",
                      "type": "uint256"
                    }
                  ],
                  "internalType": "struct Structs.RateDataV1Params",
                  "name": "rateDataV1",
                  "type": "tuple"
                },
                {
                  "components": [
                    {
                      "internalType": "address",
                      "name": "token",
                      "type": "address"
                    },
                    {
                      "internalType": "uint256",
                      "name": "kink1",
                      "type": "uint256"
                    },
                    {
                      "internalType": "uint256",
                      "name": "kink2",
                      "type": "uint256"
                    },
                    {
                      "internalType": "uint256",
                      "name": "rateAtUtilizationZero",
                      "type": "uint256"
                    },
                    {
                      "internalType": "uint256",
                      "name": "rateAtUtilizationKink1",
                      "type": "uint256"
                    },
                    {
                      "internalType": "uint256",
                      "name": "rateAtUtilizationKink2",
                      "type": "uint256"
                    },
                    {
                      "internalType": "uint256",
                      "name": "rateAtUtilizationMax",
                      "type": "uint256"
                    }
                  ],
                  "internalType": "struct Structs.RateDataV2Params",
                  "name": "rateDataV2",
                  "type": "tuple"
                }
              ],
              "internalType": "struct Structs.RateData",
              "name": "rateData",
              "type": "tuple"
            }
          ],
          "internalType": "struct Structs.OverallTokenData",
          "name": "overallTokenData_",
          "type": "tuple"
        }
      ],
      "stateMutability": "view",
      "type": "function"
    },
    {
      "inputs": [
        {
          "internalType": "address",
          "name": "auth_",
          "type": "address"
        }
      ],
      "name": "isAuth",
      "outputs": [
        {
          "internalType": "uint256",
          "name": "",
          "type": "uint256"
        }
      ],
      "stateMutability": "view",
      "type": "function"
    },
    {
      "inputs": [
        {
          "internalType": "address",
          "name": "guardian_",
          "type": "address"
        }
      ],
      "name": "isGuardian",
      "outputs": [
        {
          "internalType": "uint256",
          "name": "",
          "type": "uint256"
        }
      ],
      "stateMutability": "view",
      "type": "function"
    },
    {
      "inputs": [],
      "name": "listedTokens",
      "outputs": [
        {
          "internalType": "address[]",
          "name": "listedTokens_",
          "type": "address[]"
        }
      ],
      "stateMutability": "view",
      "type": "function"
    }
  ],
  "transactionHash": "0xba5b43d9eb83da5c1a8d4d6a4a360389f026e66e60d9d067b060aaf66f3a3a48",
  "args": [
    "0x52Aa899454998Be5b000Ad077a46Bbe360F4e497"
  ],
  "numDeployments": 1,
  "solcInputHash": "d4fa359f3002cd44062d748848196ced",
  "bytecode": "0x60a06040523480156200001157600080fd5b506040516200325038038062003250833981016040819052620000349162000068565b6001600160a01b03811660808190526200006157604051630dd6e9eb60e41b815260040160405180910390fd5b506200009a565b6000602082840312156200007b57600080fd5b81516001600160a01b03811681146200009357600080fd5b9392505050565b60805161311c620001346000396000818161021901528181610425015281816107ce0152818161084201528181610af301528181610c1601528181610cd101528181610deb01528181610f1301528181610f9f01528181611013015281816110b00152818161112a015281816113e601528181611460015281816119fc01528181611c9c01528181611d160152611de6015261311c6000f3fe608060405234801561001057600080fd5b50600436106101825760003560e01c80634e69d560116100d8578063b3fc48bc1161008c578063cdb5964411610066578063cdb5964414610396578063e72ef91b146103a9578063ee9e836d146103ca57600080fd5b8063b3fc48bc14610332578063b505b75014610355578063cd4a7e141461037657600080fd5b80636e938406116100bd5780636e938406146102eb57806385b67095146102fe578063967915d61461031157600080fd5b80634e69d560146102d057806360fed05f146102d857600080fd5b80632861c7d11161013a5780632b66fc05116101145780632b66fc051461029357806334a2e659146102b35780634a3d6bda146102bb57600080fd5b80632861c7d11461021457806329e04fbf146102605780632b0018331461028057600080fd5b80631dacf0371161016b5780631dacf037146101ce5780631f735227146101ee5780632520e7ff1461020157600080fd5b80630c68ba211461018757806314c0ac36146101ad575b600080fd5b61019a6101953660046123c1565b6103dd565b6040519081526020015b60405180910390f35b6101c06101bb366004612428565b6104b2565b6040516101a492919061268b565b6101e16101dc3660046123c1565b610636565b6040516101a491906126b9565b61019a6101fc3660046123c1565b610786565b61019a61020f3660046123c1565b6107fa565b61023b7f000000000000000000000000000000000000000000000000000000000000000081565b60405173ffffffffffffffffffffffffffffffffffffffff90911681526020016101a4565b61027361026e3660046123c1565b61086e565b6040516101a49190612769565b61019a61028e3660046123c1565b610aab565b6102a66102a13660046128ad565b610b1f565b6040516101a491906128ef565b61023b610be4565b6102c3610c9c565b6040516101a491906129df565b61019a610ee1565b61019a6102e63660046123c1565b610f57565b61019a6102f93660046123c1565b610fcb565b61019a61030c3660046123c1565b61103f565b61032461031f366004612a2d565b611185565b6040516101a4929190612a60565b610345610340366004612c18565b6114c3565b6040516101a49493929190612d37565b610368610363366004612428565b6117b9565b6040516101a4929190612d8f565b6103896103843660046128ad565b6118d0565b6040516101a49190612da2565b61019a6103a4366004612a2d565b61198d565b6103bc6103b7366004612a2d565b611a83565b6040516101a4929190612db5565b61019a6103d8366004612a2d565b611d77565b6040805173ffffffffffffffffffffffffffffffffffffffff8381166020808401919091526003838501528351808403850181526060909301909352815191909201206000917f0000000000000000000000000000000000000000000000000000000000000000169063b5c736e4905b6040518263ffffffff1660e01b815260040161046b91815260200190565b602060405180830381865afa158015610488573d6000803e3d6000fd5b505050506040513d601f19601f820116820180604052508101906104ac9190612f61565b92915050565b606080828067ffffffffffffffff8111156104cf576104cf612f7a565b60405190808252806020026020018201604052801561055157816020015b61053e60405180610120016040528060001515815260200160008152602001600081526020016000815260200160008152602001600081526020016000815260200160008152602001600081525090565b8152602001906001900390816104ed5790505b5092508067ffffffffffffffff81111561056d5761056d612f7a565b6040519080825280602002602001820160405280156105a657816020015b610593612261565b81526020019060019003908161058b5790505b50915060005b8181101561062c576105df878787848181106105ca576105ca612fa9565b90506020020160208101906103b791906123c1565b8583815181106105f1576105f1612fa9565b6020026020010185848151811061060a5761060a612fa9565b602002602001018290528290525050808061062490613007565b9150506105ac565b5050935093915050565b61063e6122e3565b600061064983610f57565b600f81168084529091506001036106a6576020828101805161ffff600485901c81166040909201919091528151601485901c82169301929092528051602484901c831660609091015251603483901c909116608090910152610780565b8151600203610719576040828101805161ffff600485901c81166060909201919091528151601485901c82166020909101528151602485901c82166080909101528151603485901c82169301929092528051604484901c831660a09091015251605483901c90911660c090910152610780565b6040517f08c379a000000000000000000000000000000000000000000000000000000000815260206004820152601660248201527f6e6f742d76616c69642d726174652d76657273696f6e0000000000000000000060448201526064015b60405180910390fd5b50919050565b6040805173ffffffffffffffffffffffffffffffffffffffff8381166020808401919091526004838501528351808403850181526060909301909352815191909201206000917f0000000000000000000000000000000000000000000000000000000000000000169063b5c736e49061044d565b6040805173ffffffffffffffffffffffffffffffffffffffff8381166020808401919091526002838501528351808403850181526060909301909352815191909201206000917f0000000000000000000000000000000000000000000000000000000000000000169063b5c736e49061044d565b610876612261565b600061088183610aab565b9050600061088e84610fcb565b905061089982611e12565b60e085015260c08085019190915261ffff83168452601083901c613fff908116604080870191909152601e85901c82166060870152602c85901c909116608080870191909152603a85901c6401ffffffff1660a087015266ffffffffffffff600885901c811660ff8087169190911b6101008901819052604887901c83169487901c82169490941b610120890152608886901c9091169185901c81169190911b61014087015260c884901c9284901c9081169290921b610160860152600090819015610a065764e8d4a5100067ffffffffffffffff605b87901c16876101000151610984919061303f565b61098e9190613085565b915064e8d4a5100067ffffffffffffffff609b87901c168761014001516109b5919061303f565b6109bf9190613085565b90506109cd6127108361303f565b8187604001516127106109e091906130c0565b88516109ec919061303f565b6109f6919061303f565b610a009190613085565b60208701525b64e8d4a510008660c00151876101000151610a21919061303f565b610a2b9190613085565b915085610120015182610a3e91906130d3565b61018087015260e086015161014087015164e8d4a5100091610a5f9161303f565b610a699190613085565b905085610160015181610a7c91906130d3565b6101a0870152610a8b8761103f565b6101c0870152610a9a87610636565b6101e0870152509395945050505050565b6040805173ffffffffffffffffffffffffffffffffffffffff8381166020808401919091526005838501528351808403850181526060909301909352815191909201206000917f0000000000000000000000000000000000000000000000000000000000000000169063b5c736e49061044d565b6060818067ffffffffffffffff811115610b3b57610b3b612f7a565b604051908082528060200260200182016040528015610b7457816020015b610b616122e3565b815260200190600190039081610b595790505b50915060005b81811015610bdc57610bac858583818110610b9757610b97612fa9565b90506020020160208101906101dc91906123c1565b838281518110610bbe57610bbe612fa9565b60200260200101819052508080610bd490613007565b915050610b7a565b505092915050565b6040517fb5c736e4000000000000000000000000000000000000000000000000000000008152600060048201819052907f000000000000000000000000000000000000000000000000000000000000000073ffffffffffffffffffffffffffffffffffffffff169063b5c736e4906024015b602060405180830381865afa158015610c73573d6000803e3d6000fd5b505050506040513d601f19601f82011682018060405250810190610c979190612f61565b905090565b6040517fb5c736e4000000000000000000000000000000000000000000000000000000008152600a60048201526060906000907f000000000000000000000000000000000000000000000000000000000000000073ffffffffffffffffffffffffffffffffffffffff169063b5c736e490602401602060405180830381865afa158015610d2d573d6000803e3d6000fd5b505050506040513d601f19601f82011682018060405250810190610d519190612f61565b90508067ffffffffffffffff811115610d6c57610d6c612f7a565b604051908082528060200260200182016040528015610d95578160200160208202803683370190505b5091506000600a604051602001610dae91815260200190565b6040516020818303038152906040528051906020012060001c905060005b82811015610edb5773ffffffffffffffffffffffffffffffffffffffff7f00000000000000000000000000000000000000000000000000000000000000001663b5c736e4610e1a83856130d3565b60405160e083901b7fffffffff000000000000000000000000000000000000000000000000000000001681526004810191909152602401602060405180830381865afa158015610e6e573d6000803e3d6000fd5b505050506040513d601f19601f82011682018060405250810190610e929190612f61565b848281518110610ea457610ea4612fa9565b73ffffffffffffffffffffffffffffffffffffffff9092166020928302919091019091015280610ed381613007565b915050610dcc565b50505090565b6040517fb5c736e4000000000000000000000000000000000000000000000000000000008152600160048201526000907f000000000000000000000000000000000000000000000000000000000000000073ffffffffffffffffffffffffffffffffffffffff169063b5c736e490602401610c56565b6040805173ffffffffffffffffffffffffffffffffffffffff8381166020808401919091526006838501528351808403850181526060909301909352815191909201206000917f0000000000000000000000000000000000000000000000000000000000000000169063b5c736e49061044d565b6040805173ffffffffffffffffffffffffffffffffffffffff8381166020808401919091526007838501528351808403850181526060909301909352815191909201206000917f0000000000000000000000000000000000000000000000000000000000000000169063b5c736e49061044d565b60008073ffffffffffffffffffffffffffffffffffffffff831673eeeeeeeeeeeeeeeeeeeeeeeeeeeeeeeeeeeeeeee14611128576040517f70a0823100000000000000000000000000000000000000000000000000000000815273ffffffffffffffffffffffffffffffffffffffff7f0000000000000000000000000000000000000000000000000000000000000000811660048301528416906370a0823190602401602060405180830381865afa1580156110ff573d6000803e3d6000fd5b505050506040513d601f19601f820116820180604052508101906111239190612f61565b611161565b7f000000000000000000000000000000000000000000000000000000000000000073ffffffffffffffffffffffffffffffffffffffff16315b905061117e61116f84610fcb565b61117885610aab565b83612020565b9392505050565b6111dd6040518061014001604052806000151581526020016000815260200160008152602001600081526020016000815260200160008152602001600081526020016000815260200160008152602001600081525090565b6111e5612261565b6111ee8361086e565b905060006111fc858561198d565b6001808216811485529091506112279082901c67ffffffffffffffff16600860ff9082901c91161b90565b60208401819052611239908290612089565b60408401526401ffffffff608182901c166060840152613fff60a282901c16608084015262ffffff60b082901c1660a08401526103ff60d082901c1660ff60c883901c161b60c08401526103ff60e282901c1660ff60da83901c161b60e08401528251156113465764e8d4a510008260e0015184602001516112bb919061303f565b6112c59190613085565b602084015260e0820151604084015164e8d4a51000916112e49161303f565b6112ee9190613085565b604084015260e082015160c084015164e8d4a510009161130d9161303f565b6113179190613085565b60c084015260e0808301519084015164e8d4a51000916113369161303f565b6113409190613085565b60e08401525b826020015183604001511161135c576000611370565b8260200151836040015161137091906130c0565b610100840152600073ffffffffffffffffffffffffffffffffffffffff851673eeeeeeeeeeeeeeeeeeeeeeeeeeeeeeeeeeeeeeee1461145e576040517f70a0823100000000000000000000000000000000000000000000000000000000815273ffffffffffffffffffffffffffffffffffffffff7f0000000000000000000000000000000000000000000000000000000000000000811660048301528616906370a0823190602401602060405180830381865afa158015611435573d6000803e3d6000fd5b505050506040513d601f19601f820116820180604052508101906114599190612f61565b611497565b7f000000000000000000000000000000000000000000000000000000000000000073ffffffffffffffffffffffffffffffffffffffff16315b905083610100015181116114ab57806114b2565b8361010001515b610120850152509194909350915050565b6060808080868067ffffffffffffffff8111156114e2576114e2612f7a565b60405190808252806020026020018201604052801561156457816020015b61155160405180610120016040528060001515815260200160008152602001600081526020016000815260200160008152602001600081526020016000815260200160008152602001600081525090565b8152602001906001900390816115005790505b5094508067ffffffffffffffff81111561158057611580612f7a565b6040519080825280602002602001820160405280156115b957816020015b6115a6612261565b81526020019060019003908161159e5790505b50935060005b8181101561162a576115dd8b8b8b848181106105ca576105ca612fa9565b8783815181106115ef576115ef612fa9565b6020026020010187848151811061160857611608612fa9565b602002602001018290528290525050808061162290613007565b9150506115bf565b508590508067ffffffffffffffff81111561164757611647612f7a565b6040519080825280602002602001820160405280156116d057816020015b6116bd6040518061014001604052806000151581526020016000815260200160008152602001600081526020016000815260200160008152602001600081526020016000815260200160008152602001600081525090565b8152602001906001900390816116655790505b5092508067ffffffffffffffff8111156116ec576116ec612f7a565b60405190808252806020026020018201604052801561172557816020015b611712612261565b81526020019060019003908161170a5790505b50915060005b818110156117ab5761175e8b89898481811061174957611749612fa9565b905060200201602081019061031f91906123c1565b85838151811061177057611770612fa9565b6020026020010185848151811061178957611789612fa9565b60200260200101829052829052505080806117a390613007565b91505061172b565b505095509550955095915050565b606080828067ffffffffffffffff8111156117d6576117d6612f7a565b60405190808252806020026020018201604052801561185f57816020015b61184c6040518061014001604052806000151581526020016000815260200160008152602001600081526020016000815260200160008152602001600081526020016000815260200160008152602001600081525090565b8152602001906001900390816117f45790505b50925060005b8181101561062c576118838787878481811061174957611749612fa9565b85838151811061189557611895612fa9565b602002602001018584815181106118ae576118ae612fa9565b60200260200101829052829052505080806118c890613007565b915050611865565b6060818067ffffffffffffffff8111156118ec576118ec612f7a565b60405190808252806020026020018201604052801561192557816020015b611912612261565b81526020019060019003908161190a5790505b50915060005b81811015610bdc5761195d85858381811061194857611948612fa9565b905060200201602081019061026e91906123c1565b83828151811061196f5761196f612fa9565b6020026020010181905250808061198590613007565b91505061192b565b6040805173ffffffffffffffffffffffffffffffffffffffff848116602080840191909152600983850152835180840385018152606084018552805190820120858316608085015260a0808501919091528451808503909101815260c0909301909352815191909201206000917f0000000000000000000000000000000000000000000000000000000000000000169063b5c736e4905b6040518263ffffffff1660e01b8152600401611a4291815260200190565b602060405180830381865afa158015611a5f573d6000803e3d6000fd5b505050506040513d601f19601f8201168201806040525081019061117e9190612f61565b611ad460405180610120016040528060001515815260200160008152602001600081526020016000815260200160008152602001600081526020016000815260200160008152602001600081525090565b611adc612261565b611ae58361086e565b90506000611af38585611d77565b600180821681148552909150611b1e9082901c67ffffffffffffffff16600860ff9082901c91161b90565b60208401819052611b30908290612144565b60408401526401ffffffff608182901c166060840152613fff60a282901c16608084015262ffffff60b082901c1660a08401526103ff60d082901c1660ff60c883901c161b60c0840152825115611bfd5764e8d4a510008260c001518460200151611b9b919061303f565b611ba59190613085565b602084015260c0820151604084015164e8d4a5100091611bc49161303f565b611bce9190613085565b604084015260c0808301519084015164e8d4a5100091611bed9161303f565b611bf79190613085565b60c08401525b8260400151836020015111611c13576000611c27565b82604001518360200151611c2791906130c0565b60e0840152600073ffffffffffffffffffffffffffffffffffffffff851673eeeeeeeeeeeeeeeeeeeeeeeeeeeeeeeeeeeeeeee14611d14576040517f70a0823100000000000000000000000000000000000000000000000000000000815273ffffffffffffffffffffffffffffffffffffffff7f0000000000000000000000000000000000000000000000000000000000000000811660048301528616906370a0823190602401602060405180830381865afa158015611ceb573d6000803e3d6000fd5b505050506040513d601f19601f82011682018060405250810190611d0f9190612f61565b611d4d565b7f000000000000000000000000000000000000000000000000000000000000000073ffffffffffffffffffffffffffffffffffffffff16315b90508360e001518111611d605780611d66565b8360e001515b610100850152509194909350915050565b6040805173ffffffffffffffffffffffffffffffffffffffff848116602080840191909152600883850152835180840385018152606084018552805190820120858316608085015260a0808501919091528451808503909101815260c0909301909352815191909201206000917f0000000000000000000000000000000000000000000000000000000000000000169063b5c736e490611a24565b67ffffffffffffffff605b82901c811690609b83901c16811580611e34575080155b15611e70576040517fd50d7512000000000000000000000000000000000000000000000000000000008152620111716004820152602401610777565b61ffff8316603a84901c6401ffffffff16428181039160ea87901c617fff16911480611e9a575082155b80611ea55750806001145b15611eb257505050915091565b64496cebb80084840283020484019350617fff60db87901c16925082600103611edd57505050915091565b82600116600103611f325760019290921c91826c7e37be2022c0914b268000000081611f0b57611f0b613056565b049250612710601e87901c613fff166b033b2e3c9fd0803ce8000000850102049250611f5f565b60019290921c916305f5e100601e87901c613fff166127108501026b033b2e3c9fd0803ce8000000020492505b80600116600103611f965760011c61271081016b033b2e3c9fd0803ce8000000820281611f8e57611f8e613056565b049050611fcc565b60011c61271081016b033b2e3c9fd0803ce8000000820281611fba57611fba613056565b046b033b2e3c9fd0803ce80000000390505b760a70c3c40a64e6c51999090b65f67d92400000000000008382026127100261ffff881691900402601087901c613fff16612710030292506801b5a660ea44b8000085840283020485019450505050915091565b600080600061202e85611e12565b91509150600061203e87846121d4565b9050801561207b576120508783612227565b61205a90866130d3565b935080841161206a576000612074565b61207481856130c0565b935061207f565b8493505b5050509392505050565b60d082901c6103ff1660c883901c60ff161b613fff60a284901c1661271083820204808401838110156120be575050506104ac565b608186901c6401ffffffff164203925066ffffffffffffff604987901c1660ff604188901c161b60b087901c62ffffff166120f9858561303f565b6121039190613085565b61210d91906130d3565b93508084111561211b578093505b6103ff60e287901c1660ff60da88901c161b92508284111561213b578293505b50505092915050565b600066ffffffffffffff604984901c1660ff604185901c161b80820361216e5760009150506104ac565b612710613fff60a286901c168402046401ffffffff608186901c16420362ffffff60b087901c1661219f828461303f565b6121a99190613085565b90508083116121b95760006121bd565b8083035b9350508084038381111561213b5795945050505050565b66ffffffffffffff604883901c811660ff604085901c81169190911b91600885901c169084161b64e8d4a5100061220b848361303f565b6122159190613085565b61221f90836130d3565b949350505050565b60c882901c60ff60c084901c81169190911b9066ffffffffffffff608885901c16608085901c9091161b64e8d4a5100061220b848361303f565b6040518061020001604052806000815260200160008152602001600081526020016000815260200160008152602001600081526020016000815260200160008152602001600081526020016000815260200160008152602001600081526020016000815260200160008152602001600081526020016122de6122e3565b905290565b60405180606001604052806000815260200161233d6040518060a00160405280600073ffffffffffffffffffffffffffffffffffffffff168152602001600081526020016000815260200160008152602001600081525090565b81526020016122de6040518060e00160405280600073ffffffffffffffffffffffffffffffffffffffff1681526020016000815260200160008152602001600081526020016000815260200160008152602001600081525090565b803573ffffffffffffffffffffffffffffffffffffffff811681146123bc57600080fd5b919050565b6000602082840312156123d357600080fd5b61117e82612398565b60008083601f8401126123ee57600080fd5b50813567ffffffffffffffff81111561240657600080fd5b6020830191508360208260051b850101111561242157600080fd5b9250929050565b60008060006040848603121561243d57600080fd5b61244684612398565b9250602084013567ffffffffffffffff81111561246257600080fd5b61246e868287016123dc565b9497909650939450505050565b600081518084526020808501945080840160005b8381101561250d576124f98783518051151582526020810151602083015260408101516040830152606081015160608301526080810151608083015260a081015160a083015260c081015160c083015260e081015160e08301526101008082015181840152505050565b61012096909601959082019060010161248f565b509495945050505050565b600081518084526020808501945080840160005b8381101561250d57612677878351805182526020808201518184015260408083015181850152606080840151818601526080808501518187015260a0808601518188015260c0808701518189015260e08088015190890152610100808801519089015261012080880151908901526101408088015190890152610160808801519089015261018080880151908901526101a080880151908901526101c080880151908901526101e09687015180519789019790975286860151805173ffffffffffffffffffffffffffffffffffffffff9081166102008b0152818801516102208b0152818701516102408b0152818601516102608b0152908401516102808a01529685015180519097166102a0890152948601516102c0880152928501516102e087015290840151610300860152830151610320850152820151610340840152015161036090910152565b61038096909601959082019060010161252c565b60408152600061269e604083018561247b565b82810360208401526126b08185612518565b95945050505050565b6101a081016104ac828480518252602081015173ffffffffffffffffffffffffffffffffffffffff808251166020850152602082015160408501526040820151606085015260608201516080850152608082015160a0850152604083015191508082511660c085015250602081015160e084015260408101516101008401526060810151610120840152608081015161014084015260a081015161016084015260c0810151610180840152505050565b815181526020808301518183015260408084015181840152606080850151818501526080808601518186015260a0808701518187015260c0808801518188015260e08089015190880152610100808901519088015261012080890151908801526101408089015190880152610160808901519088015261018080890151908801526101a080890151908801526101c080890151908801526101e08089015180519189019190915280870151805173ffffffffffffffffffffffffffffffffffffffff9081166102008b0152818901516102208b0152818801516102408b0152818701516102608b0152908501516102808a01529086015180519091166102a0890152958601516102c0880152938501516102e087015291840151610300860152830151610320850152820151610340840152015161036082015261038081016104ac565b600080602083850312156128c057600080fd5b823567ffffffffffffffff8111156128d757600080fd5b6128e3858286016123dc565b90969095509350505050565b6020808252825182820181905260009190848201906040850190845b818110156129d3576129bf83855180518252602081015173ffffffffffffffffffffffffffffffffffffffff808251166020850152602082015160408501526040820151606085015260608201516080850152608082015160a0850152604083015191508082511660c085015250602081015160e084015260408101516101008401526060810151610120840152608081015161014084015260a081015161016084015260c0810151610180840152505050565b928401926101a0929092019160010161290b565b50909695505050505050565b6020808252825182820181905260009190848201906040850190845b818110156129d357835173ffffffffffffffffffffffffffffffffffffffff16835292840192918401916001016129fb565b60008060408385031215612a4057600080fd5b612a4983612398565b9150612a5760208401612398565b90509250929050565b6104c08101612ad282858051151582526020810151602083015260408101516040830152606081015160608301526080810151608083015260a081015160a083015260c081015160c083015260e081015160e08301526101008082015181840152506101208082015181840152505050565b61117e610140830184805182526020808201518184015260408083015181850152606080840151818601526080808501518187015260a0808601518188015260c0808701518189015260e08088015190890152610100808801519089015261012080880151908901526101408088015190890152610160808801519089015261018080880151908901526101a080880151908901526101c080880151908901526101e09687015180519789019790975286860151805173ffffffffffffffffffffffffffffffffffffffff9081166102008b0152818801516102208b0152818701516102408b0152818601516102608b0152908401516102808a01529685015180519097166102a0890152948601516102c0880152928501516102e087015290840151610300860152830151610320850152820151610340840152015161036090910152565b600080600080600060608688031215612c3057600080fd5b612c3986612398565b9450602086013567ffffffffffffffff80821115612c5657600080fd5b612c6289838a016123dc565b90965094506040880135915080821115612c7b57600080fd5b50612c88888289016123dc565b969995985093965092949392505050565b600081518084526020808501945080840160005b8381101561250d57612d238783518051151582526020810151602083015260408101516040830152606081015160608301526080810151608083015260a081015160a083015260c081015160c083015260e081015160e08301526101008082015181840152506101208082015181840152505050565b610140969096019590820190600101612cad565b608081526000612d4a608083018761247b565b8281036020840152612d5c8187612518565b90508281036040840152612d708186612c99565b90508281036060840152612d848185612518565b979650505050505050565b60408152600061269e6040830185612c99565b60208152600061117e6020830184612518565b6104a08101612e1b82858051151582526020810151602083015260408101516040830152606081015160608301526080810151608083015260a081015160a083015260c081015160c083015260e081015160e08301526101008082015181840152505050565b61117e610120830184805182526020808201518184015260408083015181850152606080840151818601526080808501518187015260a0808601518188015260c0808701518189015260e08088015190890152610100808801519089015261012080880151908901526101408088015190890152610160808801519089015261018080880151908901526101a080880151908901526101c080880151908901526101e09687015180519789019790975286860151805173ffffffffffffffffffffffffffffffffffffffff9081166102008b0152818801516102208b0152818701516102408b0152818601516102608b0152908401516102808a01529685015180519097166102a0890152948601516102c0880152928501516102e087015290840151610300860152830151610320850152820151610340840152015161036090910152565b600060208284031215612f7357600080fd5b5051919050565b7f4e487b7100000000000000000000000000000000000000000000000000000000600052604160045260246000fd5b7f4e487b7100000000000000000000000000000000000000000000000000000000600052603260045260246000fd5b7f4e487b7100000000000000000000000000000000000000000000000000000000600052601160045260246000fd5b60007fffffffffffffffffffffffffffffffffffffffffffffffffffffffffffffffff820361303857613038612fd8565b5060010190565b80820281158282048414176104ac576104ac612fd8565b7f4e487b7100000000000000000000000000000000000000000000000000000000600052601260045260246000fd5b6000826130bb577f4e487b7100000000000000000000000000000000000000000000000000000000600052601260045260246000fd5b500490565b818103818111156104ac576104ac612fd8565b808201808211156104ac576104ac612fd856fea26469706673582212206cc300bcc299294a3e85e18a074727d1519efefcab17531049299b239da34c8864736f6c63430008150033",
  "devdoc": {
    "kind": "dev",
    "methods": {},
    "stateVariables": {
      "_NATIVE_TOKEN_ADDRESS": {
        "details": "address that is mapped to the chain native token"
      }
    },
    "version": 1
  },
  "userdoc": {
    "errors": {
      "FluidLiquidityResolver__AddressZero()": [
        {
          "notice": "thrown if an input param address is zero"
        }
      ]
    },
    "kind": "user",
    "methods": {
      "LIQUIDITY()": {
        "notice": "address of the liquidity contract"
      },
      "getExchangePricesAndConfig(address)": {
        "notice": "gets exchangePricesAndConfig packed uint256 storage slot for `token_`."
      },
      "getOverallTokenData(address)": {
        "notice": "returns general data for `token_` such as rates, exchange prices, utilization, fee, total amounts etc."
      },
      "getOverallTokensData(address[])": {
        "notice": "returns general data for multiple `tokens_` such as rates, exchange prices, utilization, fee, total amounts etc."
      },
      "getRateConfig(address)": {
        "notice": "gets rateConfig packed uint256 storage slot for `token_`."
      },
      "getRevenue(address)": {
        "notice": "gets the `revenueAmount_` for a `token_`."
      },
      "getRevenueCollector()": {
        "notice": "address of contract that gets sent the revenue. Configurable by governance"
      },
      "getStatus()": {
        "notice": "Liquidity contract paused status: status = 1 -> normal. status = 2 -> paused."
      },
      "getTokenRateData(address)": {
        "notice": "get the Rate config data `rateData_` for a `token_` compiled from the packed uint256 rateConfig storage slot"
      },
      "getTokensRateData(address[])": {
        "notice": "get the Rate config datas `rateDatas_` for multiple `tokens_` compiled from the packed uint256 rateConfig storage slot"
      },
      "getTotalAmounts(address)": {
        "notice": "gets totalAmounts packed uint256 storage slot for `token_`."
      },
      "getUserBorrow(address,address)": {
        "notice": "gets userBorrow data packed uint256 storage slot for `user_` and `token_`."
      },
      "getUserBorrowData(address,address)": {
        "notice": "returns `user_` borrow data and general data (such as rates, exchange prices, utilization, fee, total amounts etc.) for `token_`"
      },
      "getUserClass(address)": {
        "notice": "gets user class for `user_`. Class defines which protocols can be paused by guardians. Currently there are 2 classes: 0 can be paused by guardians. 1 cannot be paused by guardians. New protocols are added as class 0 and will be upgraded to 1 over time."
      },
      "getUserMultipleBorrowData(address,address[])": {
        "notice": "returns `user_` borrow data and general data (such as rates, exchange prices, utilization, fee, total amounts etc.) for multiple `tokens_`"
      },
      "getUserMultipleBorrowSupplyData(address,address[],address[])": {
        "notice": "returns `user_` supply data and general data (such as rates, exchange prices, utilization, fee, total amounts etc.) for multiple `supplyTokens_`     and returns `user_` borrow data and general data (such as rates, exchange prices, utilization, fee, total amounts etc.) for multiple `borrowTokens_`"
      },
      "getUserMultipleSupplyData(address,address[])": {
        "notice": "returns `user_` supply data and general data (such as rates, exchange prices, utilization, fee, total amounts etc.) for multiple `tokens_`"
      },
      "getUserSupply(address,address)": {
        "notice": "gets userSupply data packed uint256 storage slot for `user_` and `token_`."
      },
      "getUserSupplyData(address,address)": {
        "notice": "returns `user_` supply data and general data (such as rates, exchange prices, utilization, fee, total amounts etc.) for `token_`"
      },
      "isAuth(address)": {
        "notice": "checks if `auth_` is an allowed auth on Liquidity. Auths can set most config values. E.g. contracts that automate certain flows like e.g. adding a new fToken. Governance can add/remove auths. Governance is auth by default."
      },
      "isGuardian(address)": {
        "notice": "checks if `guardian_` is an allowed Guardian on Liquidity. Guardians can pause lower class users. Governance can add/remove guardians. Governance is guardian by default."
      },
      "listedTokens()": {
        "notice": "returns all `listedTokens_` at the Liquidity contract. Once configured, a token can never be removed."
      }
    },
    "notice": "Fluid Liquidity resolver Implements various view-only methods to give easy access to Liquidity data.",
    "version": 1
  },
  "storageLayout": {
    "storage": [],
    "types": null
  }
}