{
  "address": "0x74b3C8ab23f922B8EE9a41BF487a6A6Aca0Dc411",
  "abi": [
    {
      "inputs": [
        {
          "internalType": "string",
          "name": "infoName_",
          "type": "string"
        },
        {
          "internalType": "uint8",
          "name": "colTokenDecimals_",
          "type": "uint8"
        },
        {
          "internalType": "uint8",
          "name": "debtTokenDecimals_",
          "type": "uint8"
        },
        {
          "internalType": "contract IERC4626",
          "name": "erc4626Feed_",
          "type": "address"
        }
      ],
      "stateMutability": "nonpayable",
      "type": "constructor"
    },
    {
      "inputs": [
        {
          "internalType": "uint256",
          "name": "errorId_",
          "type": "uint256"
        }
      ],
      "name": "FluidOracleError",
      "type": "error"
    },
    {
      "inputs": [],
      "name": "getExchangeRate",
      "outputs": [
        {
          "internalType": "uint256",
          "name": "exchangeRate_",
          "type": "uint256"
        }
      ],
      "stateMutability": "view",
      "type": "function"
    },
    {
      "inputs": [],
      "name": "getExchangeRateLiquidate",
      "outputs": [
        {
          "internalType": "uint256",
          "name": "exchangeRate_",
          "type": "uint256"
        }
      ],
      "stateMutability": "view",
      "type": "function"
    },
    {
      "inputs": [],
      "name": "getExchangeRateOperate",
      "outputs": [
        {
          "internalType": "uint256",
          "name": "exchangeRate_",
          "type": "uint256"
        }
      ],
      "stateMutability": "view",
      "type": "function"
    },
    {
      "inputs": [],
      "name": "infoName",
      "outputs": [
        {
          "internalType": "string",
          "name": "",
          "type": "string"
        }
      ],
      "stateMutability": "view",
      "type": "function"
    },
    {
      "inputs": [],
      "name": "pegOracleData",
      "outputs": [
        {
          "internalType": "uint256",
          "name": "pegExchangeRate_",
          "type": "uint256"
        },
        {
          "internalType": "contract IERC4626",
          "name": "erc4626Feed_",
          "type": "address"
        },
        {
          "internalType": "uint256",
          "name": "colTokenDecimals_",
          "type": "uint256"
        },
        {
          "internalType": "uint256",
          "name": "debtTokenDecimals_",
          "type": "uint256"
        }
      ],
      "stateMutability": "view",
      "type": "function"
    }
  ],
  "transactionHash": "0xff7df15182693b0fa44a4ed1652f1bf0f2592f51d1689efa4b976a4883f25657",
  "args": [
    [
      "Token6 per 1 Token18",
      18,
      6,
      "0x0000000000000000000000000000000000000000"
    ]
  ],
  "numDeployments": 1,
  "linkedData": {
    "nonce": "36"
  },
  "bytecode": "0x6101206040523480156200001257600080fd5b50604051620009be380380620009be833981016040819052620000359162000180565b828282866020815111806200004957508051155b15620000715760405163c82fc46560e01b815261ea6a60048201526024015b60405180910390fd5b60200151608052600660ff841610806200008e575060068260ff16105b806200009d575060128360ff16115b80620000ac575060128260ff16115b15620000d05760405163c82fc46560e01b815261ebd3600482015260240162000068565b6001600160a01b03811660c05260ff80841660e0819052908316610100819052600091620000ff9190620002a3565b90508062000110600f601b620002cd565b6200011c9190620002a3565b6200012990600a620003e6565b60a05250620003fb9650505050505050565b634e487b7160e01b600052604160045260246000fd5b805160ff811681146200016357600080fd5b919050565b80516001600160a01b03811681146200016357600080fd5b600080600080608085870312156200019757600080fd5b84516001600160401b0380821115620001af57600080fd5b818701915087601f830112620001c457600080fd5b815181811115620001d957620001d96200013b565b604051601f8201601f19908116603f011681019083821181831017156200020457620002046200013b565b81604052828152602093508a848487010111156200022157600080fd5b600091505b8282101562000245578482018401518183018501529083019062000226565b60008484830101528098505050506200026081880162000151565b94505050620002726040860162000151565b9150620002826060860162000168565b905092959194509250565b634e487b7160e01b600052601160045260246000fd5b8181036000831280158383131683831282161715620002c657620002c66200028d565b5092915050565b81810381811115620002e357620002e36200028d565b92915050565b600181815b808511156200032a5781600019048211156200030e576200030e6200028d565b808516156200031c57918102915b93841c9390800290620002ee565b509250929050565b6000826200034357506001620002e3565b816200035257506000620002e3565b81600181146200036b5760028114620003765762000396565b6001915050620002e3565b60ff8411156200038a576200038a6200028d565b50506001821b620002e3565b5060208310610133831016604e8410600b8410161715620003bb575081810a620002e3565b620003c78383620002e9565b8060001904821115620003de57620003de6200028d565b029392505050565b6000620003f4838362000332565b9392505050565b60805160a05160c05160e0516101005161056d6200045160003960006102850152600050506000818161025e015281816102b40152610323015260006103ab01526000818160fa01526101bf015261056d6000f3fe608060405234801561001057600080fd5b50600436106100675760003560e01c8063ba66a14711610050578063ba66a1471461009c578063e6aa216c1461006c578063f3190c891461006c57600080fd5b80638e7bfbc01461006c578063abd5f95d14610087575b600080fd5b6100746100d9565b6040519081526020015b60405180910390f35b61008f6100e8565b60405161007e91906103d0565b6100a461024d565b6040805194855273ffffffffffffffffffffffffffffffffffffffff909316602085015291830152606082015260800161007e565b60006100e36102aa565b905090565b606060005b60208110801561015357507f0000000000000000000000000000000000000000000000000000000000000000816020811061012a5761012a61043c565b1a60f81b7fff000000000000000000000000000000000000000000000000000000000000001615155b1561016a57806101628161049a565b9150506100ed565b60008167ffffffffffffffff811115610185576101856104d2565b6040519080825280601f01601f1916602001820160405280156101af576020820181803683370190505b50905060005b82811015610246577f000000000000000000000000000000000000000000000000000000000000000081602081106101ef576101ef61043c565b1a60f81b8282815181106102055761020561043c565b60200101907effffffffffffffffffffffffffffffffffffffffffffffffffffffffffffff1916908160001a9053508061023e8161049a565b9150506101b5565b5092915050565b60008060008061025b6102aa565b947f00000000000000000000000000000000000000000000000000000000000000009450919250507f000000000000000000000000000000000000000000000000000000000000000060ff1690565b66038d7ea4c680007f000000000000000000000000000000000000000000000000000000000000000073ffffffffffffffffffffffffffffffffffffffff16156103a6576040517f07a2d13a00000000000000000000000000000000000000000000000000000000815266038d7ea4c6800060048201527f000000000000000000000000000000000000000000000000000000000000000073ffffffffffffffffffffffffffffffffffffffff16906307a2d13a90602401602060405180830381865afa15801561037f573d6000803e3d6000fd5b505050506040513d601f19601f820116820180604052508101906103a39190610501565b90505b6100e37f00000000000000000000000000000000000000000000000000000000000000008261051a565b600060208083528351808285015260005b818110156103fd578581018301518582016040015282016103e1565b5060006040828601015260407fffffffffffffffffffffffffffffffffffffffffffffffffffffffffffffffe0601f8301168501019250505092915050565b7f4e487b7100000000000000000000000000000000000000000000000000000000600052603260045260246000fd5b7f4e487b7100000000000000000000000000000000000000000000000000000000600052601160045260246000fd5b60007fffffffffffffffffffffffffffffffffffffffffffffffffffffffffffffffff82036104cb576104cb61046b565b5060010190565b7f4e487b7100000000000000000000000000000000000000000000000000000000600052604160045260246000fd5b60006020828403121561051357600080fd5b5051919050565b80820281158282048414176105315761053161046b565b9291505056fea264697066735822122068c6a277c242b50de3fc987c87fb33bbd4d2602522810a6bf1b0400f522085e964736f6c63430008150033"
}