{
  "address": "0x813b6995703c106813c4172501691416e6038048",
  "abi": [
    {
      "inputs": [
        {
          "internalType": "string",
          "name": "name_",
          "type": "string"
        },
        {
          "internalType": "address",
          "name": "owner_",
          "type": "address"
        },
        {
          "internalType": "address",
          "name": "proposer_",
          "type": "address"
        },
        {
          "internalType": "address",
          "name": "approver_",
          "type": "address"
        },
        {
          "internalType": "address",
          "name": "rewardToken_",
          "type": "address"
        },
        {
          "internalType": "uint256",
          "name": "distributionInHours_",
          "type": "uint256"
        },
        {
          "internalType": "uint256",
          "name": "cycleInHours_",
          "type": "uint256"
        },
        {
          "internalType": "uint256",
          "name": "startBlock_",
          "type": "uint256"
        },
        {
          "internalType": "bool",
          "name": "pullFromDistributor_",
          "type": "bool"
        }
      ],
      "stateMutability": "nonpayable",
      "type": "constructor"
    },
    {
      "inputs": [],
      "name": "InvalidCycle",
      "type": "error"
    },
    {
      "inputs": [],
      "name": "InvalidParams",
      "type": "error"
    },
    {
      "inputs": [],
      "name": "InvalidProof",
      "type": "error"
    },
    {
      "inputs": [],
      "name": "MsgSenderNotRecipient",
      "type": "error"
    },
    {
      "inputs": [],
      "name": "NothingToClaim",
      "type": "error"
    },
    {
      "inputs": [],
      "name": "Unauthorized",
      "type": "error"
    },
    {
      "anonymous": false,
      "inputs": [
        {
          "indexed": false,
          "internalType": "address",
          "name": "user",
          "type": "address"
        },
        {
          "indexed": false,
          "internalType": "uint256",
          "name": "amount",
          "type": "uint256"
        },
        {
          "indexed": false,
          "internalType": "uint256",
          "name": "cycle",
          "type": "uint256"
        },
        {
          "indexed": false,
          "internalType": "uint8",
          "name": "positionType",
          "type": "uint8"
        },
        {
          "indexed": false,
          "internalType": "bytes32",
          "name": "positionId",
          "type": "bytes32"
        },
        {
          "indexed": false,
          "internalType": "uint256",
          "name": "timestamp",
          "type": "uint256"
        },
        {
          "indexed": false,
          "internalType": "uint256",
          "name": "blockNumber",
          "type": "uint256"
        }
      ],
      "name": "LogClaimed",
      "type": "event"
    },
    {
      "anonymous": false,
      "inputs": [
        {
          "indexed": true,
          "internalType": "uint256",
          "name": "epoch",
          "type": "uint256"
        },
        {
          "indexed": true,
          "internalType": "address",
          "name": "initiator",
          "type": "address"
        },
        {
          "indexed": false,
          "internalType": "uint256",
          "name": "amount",
          "type": "uint256"
        },
        {
          "indexed": false,
          "internalType": "uint256",
          "name": "startCycle",
          "type": "uint256"
        },
        {
          "indexed": false,
          "internalType": "uint256",
          "name": "endCycle",
          "type": "uint256"
        },
        {
          "indexed": false,
          "internalType": "uint256",
          "name": "registrationBlock",
          "type": "uint256"
        },
        {
          "indexed": false,
          "internalType": "uint256",
          "name": "registrationTimestamp",
          "type": "uint256"
        }
      ],
      "name": "LogDistribution",
      "type": "event"
    },
    {
      "anonymous": false,
      "inputs": [
        {
          "indexed": false,
          "internalType": "bool",
          "name": "pullFromSender",
          "type": "bool"
        },
        {
          "indexed": false,
          "internalType": "uint256",
          "name": "blocksPerDistribution",
          "type": "uint256"
        },
        {
          "indexed": false,
          "internalType": "uint256",
          "name": "cyclesPerDistribution",
          "type": "uint256"
        }
      ],
      "name": "LogDistributionConfigUpdated",
      "type": "event"
    },
    {
      "anonymous": false,
      "inputs": [
        {
          "indexed": true,
          "internalType": "uint256",
          "name": "cycle",
          "type": "uint256"
        },
        {
          "indexed": true,
          "internalType": "uint256",
          "name": "epoch",
          "type": "uint256"
        },
        {
          "indexed": false,
          "internalType": "uint256",
          "name": "amount",
          "type": "uint256"
        },
        {
          "indexed": false,
          "internalType": "uint256",
          "name": "startBlock",
          "type": "uint256"
        },
        {
          "indexed": false,
          "internalType": "uint256",
          "name": "endBlock",
          "type": "uint256"
        }
      ],
      "name": "LogRewardCycle",
      "type": "event"
    },
    {
      "anonymous": false,
      "inputs": [
        {
          "indexed": false,
          "internalType": "address",
          "name": "distributor",
          "type": "address"
        },
        {
          "indexed": false,
          "internalType": "bool",
          "name": "isDistributor",
          "type": "bool"
        }
      ],
      "name": "LogRewardsDistributorToggled",
      "type": "event"
    },
    {
      "anonymous": false,
      "inputs": [
        {
          "indexed": false,
          "internalType": "uint256",
          "name": "cycle",
          "type": "uint256"
        },
        {
          "indexed": false,
          "internalType": "bytes32",
          "name": "root",
          "type": "bytes32"
        },
        {
          "indexed": false,
          "internalType": "bytes32",
          "name": "contentHash",
          "type": "bytes32"
        },
        {
          "indexed": false,
          "internalType": "uint256",
          "name": "timestamp",
          "type": "uint256"
        },
        {
          "indexed": false,
          "internalType": "uint256",
          "name": "blockNumber",
          "type": "uint256"
        }
      ],
      "name": "LogRootProposed",
      "type": "event"
    },
    {
      "anonymous": false,
      "inputs": [
        {
          "indexed": false,
          "internalType": "uint256",
          "name": "cycle",
          "type": "uint256"
        },
        {
          "indexed": false,
          "internalType": "bytes32",
          "name": "root",
          "type": "bytes32"
        },
        {
          "indexed": false,
          "internalType": "bytes32",
          "name": "contentHash",
          "type": "bytes32"
        },
        {
          "indexed": false,
          "internalType": "uint256",
          "name": "timestamp",
          "type": "uint256"
        },
        {
          "indexed": false,
          "internalType": "uint256",
          "name": "blockNumber",
          "type": "uint256"
        }
      ],
      "name": "LogRootUpdated",
      "type": "event"
    },
    {
      "anonymous": false,
      "inputs": [
        {
          "indexed": false,
          "internalType": "uint256",
          "name": "startBlockOfNextCycle",
          "type": "uint256"
        }
      ],
      "name": "LogStartBlockOfNextCycleUpdated",
      "type": "event"
    },
    {
      "anonymous": false,
      "inputs": [
        {
          "indexed": false,
          "internalType": "address",
          "name": "approver",
          "type": "address"
        },
        {
          "indexed": false,
          "internalType": "bool",
          "name": "isApprover",
          "type": "bool"
        }
      ],
      "name": "LogUpdateApprover",
      "type": "event"
    },
    {
      "anonymous": false,
      "inputs": [
        {
          "indexed": false,
          "internalType": "address",
          "name": "proposer",
          "type": "address"
        },
        {
          "indexed": false,
          "internalType": "bool",
          "name": "isProposer",
          "type": "bool"
        }
      ],
      "name": "LogUpdateProposer",
      "type": "event"
    },
    {
      "anonymous": false,
      "inputs": [
        {
          "indexed": true,
          "internalType": "address",
          "name": "user",
          "type": "address"
        },
        {
          "indexed": true,
          "internalType": "address",
          "name": "newOwner",
          "type": "address"
        }
      ],
      "name": "OwnershipTransferred",
      "type": "event"
    },
    {
      "anonymous": false,
      "inputs": [
        {
          "indexed": false,
          "internalType": "address",
          "name": "account",
          "type": "address"
        }
      ],
      "name": "Paused",
      "type": "event"
    },
    {
      "anonymous": false,
      "inputs": [
        {
          "indexed": false,
          "internalType": "address",
          "name": "account",
          "type": "address"
        }
      ],
      "name": "Unpaused",
      "type": "event"
    },
    {
      "inputs": [],
      "name": "TOKEN",
      "outputs": [
        {
          "internalType": "contract IERC20",
          "name": "",
          "type": "address"
        }
      ],
      "stateMutability": "view",
      "type": "function"
    },
    {
      "inputs": [
        {
          "internalType": "bytes32",
          "name": "root_",
          "type": "bytes32"
        },
        {
          "internalType": "bytes32",
          "name": "contentHash_",
          "type": "bytes32"
        },
        {
          "internalType": "uint40",
          "name": "cycle_",
          "type": "uint40"
        },
        {
          "internalType": "uint40",
          "name": "startBlock_",
          "type": "uint40"
        },
        {
          "internalType": "uint40",
          "name": "endBlock_",
          "type": "uint40"
        }
      ],
      "name": "approveRoot",
      "outputs": [],
      "stateMutability": "nonpayable",
      "type": "function"
    },
    {
      "inputs": [],
      "name": "blocksPerDistribution",
      "outputs": [
        {
          "internalType": "uint40",
          "name": "",
          "type": "uint40"
        }
      ],
      "stateMutability": "view",
      "type": "function"
    },
    {
      "inputs": [
        {
          "components": [
            {
              "internalType": "address",
              "name": "recipient",
              "type": "address"
            },
            {
              "internalType": "uint256",
              "name": "cumulativeAmount",
              "type": "uint256"
            },
            {
              "internalType": "uint8",
              "name": "positionType",
              "type": "uint8"
            },
            {
              "internalType": "bytes32",
              "name": "positionId",
              "type": "bytes32"
            },
            {
              "internalType": "uint256",
              "name": "cycle",
              "type": "uint256"
            },
            {
              "internalType": "bytes32[]",
              "name": "merkleProof",
              "type": "bytes32[]"
            },
            {
              "internalType": "bytes",
              "name": "metadata",
              "type": "bytes"
            }
          ],
          "internalType": "struct FluidMerkleDistributor.Claim[]",
          "name": "claims_",
          "type": "tuple[]"
        }
      ],
      "name": "bulkClaim",
      "outputs": [],
      "stateMutability": "nonpayable",
      "type": "function"
    },
    {
      "inputs": [
        {
          "internalType": "address",
          "name": "recipient_",
          "type": "address"
        },
        {
          "internalType": "uint256",
          "name": "cumulativeAmount_",
          "type": "uint256"
        },
        {
          "internalType": "uint8",
          "name": "positionType_",
          "type": "uint8"
        },
        {
          "internalType": "bytes32",
          "name": "positionId_",
          "type": "bytes32"
        },
        {
          "internalType": "uint256",
          "name": "cycle_",
          "type": "uint256"
        },
        {
          "internalType": "bytes32[]",
          "name": "merkleProof_",
          "type": "bytes32[]"
        },
        {
          "internalType": "bytes",
          "name": "metadata_",
          "type": "bytes"
        }
      ],
      "name": "claim",
      "outputs": [],
      "stateMutability": "nonpayable",
      "type": "function"
    },
    {
      "inputs": [
        {
          "internalType": "address",
          "name": "",
          "type": "address"
        },
        {
          "internalType": "bytes32",
          "name": "",
          "type": "bytes32"
        }
      ],
      "name": "claimed",
      "outputs": [
        {
          "internalType": "uint256",
          "name": "",
          "type": "uint256"
        }
      ],
      "stateMutability": "view",
      "type": "function"
    },
    {
      "inputs": [],
      "name": "currentMerkleCycle",
      "outputs": [
        {
          "components": [
            {
              "internalType": "bytes32",
              "name": "merkleRoot",
              "type": "bytes32"
            },
            {
              "internalType": "bytes32",
              "name": "merkleContentHash",
              "type": "bytes32"
            },
            {
              "internalType": "uint40",
              "name": "cycle",
              "type": "uint40"
            },
            {
              "internalType": "uint40",
              "name": "timestamp",
              "type": "uint40"
            },
            {
              "internalType": "uint40",
              "name": "publishBlock",
              "type": "uint40"
            },
            {
              "internalType": "uint40",
              "name": "startBlock",
              "type": "uint40"
            },
            {
              "internalType": "uint40",
              "name": "endBlock",
              "type": "uint40"
            }
          ],
          "internalType": "struct Structs.MerkleCycle",
          "name": "",
          "type": "tuple"
        }
      ],
      "stateMutability": "view",
      "type": "function"
    },
    {
      "inputs": [],
      "name": "cyclesPerDistribution",
      "outputs": [
        {
          "internalType": "uint40",
          "name": "",
          "type": "uint40"
        }
      ],
      "stateMutability": "view",
      "type": "function"
    },
    {
      "inputs": [
        {
          "internalType": "uint256",
          "name": "amount_",
          "type": "uint256"
        }
      ],
      "name": "distributeRewards",
      "outputs": [],
      "stateMutability": "nonpayable",
      "type": "function"
    },
    {
      "inputs": [
        {
          "internalType": "address",
          "name": "recipient_",
          "type": "address"
        },
        {
          "internalType": "uint256",
          "name": "cumulativeAmount_",
          "type": "uint256"
        },
        {
          "internalType": "uint8",
          "name": "positionType_",
          "type": "uint8"
        },
        {
          "internalType": "bytes32",
          "name": "positionId_",
          "type": "bytes32"
        },
        {
          "internalType": "uint256",
          "name": "cycle_",
          "type": "uint256"
        },
        {
          "internalType": "bytes",
          "name": "metadata_",
          "type": "bytes"
        }
      ],
      "name": "encodeClaim",
      "outputs": [
        {
          "internalType": "bytes",
          "name": "encoded_",
          "type": "bytes"
        },
        {
          "internalType": "bytes32",
          "name": "hash_",
          "type": "bytes32"
        }
      ],
      "stateMutability": "pure",
      "type": "function"
    },
    {
      "inputs": [
        {
          "internalType": "uint256",
          "name": "cycle_",
          "type": "uint256"
        }
      ],
      "name": "getCycleReward",
      "outputs": [
        {
          "components": [
            {
              "internalType": "uint256",
              "name": "amount",
              "type": "uint256"
            },
            {
              "internalType": "uint40",
              "name": "cycle",
              "type": "uint40"
            },
            {
              "internalType": "uint40",
              "name": "startBlock",
              "type": "uint40"
            },
            {
              "internalType": "uint40",
              "name": "endBlock",
              "type": "uint40"
            },
            {
              "internalType": "uint40",
              "name": "epoch",
              "type": "uint40"
            }
          ],
          "internalType": "struct Structs.Reward",
          "name": "",
          "type": "tuple"
        }
      ],
      "stateMutability": "view",
      "type": "function"
    },
    {
      "inputs": [],
      "name": "getCycleRewards",
      "outputs": [
        {
          "components": [
            {
              "internalType": "uint256",
              "name": "amount",
              "type": "uint256"
            },
            {
              "internalType": "uint40",
              "name": "cycle",
              "type": "uint40"
            },
            {
              "internalType": "uint40",
              "name": "startBlock",
              "type": "uint40"
            },
            {
              "internalType": "uint40",
              "name": "endBlock",
              "type": "uint40"
            },
            {
              "internalType": "uint40",
              "name": "epoch",
              "type": "uint40"
            }
          ],
          "internalType": "struct Structs.Reward[]",
          "name": "",
          "type": "tuple[]"
        }
      ],
      "stateMutability": "view",
      "type": "function"
    },
    {
      "inputs": [
        {
          "internalType": "uint256",
          "name": "epoch_",
          "type": "uint256"
        }
      ],
      "name": "getDistributionForEpoch",
      "outputs": [
        {
          "components": [
            {
              "internalType": "uint256",
              "name": "amount",
              "type": "uint256"
            },
            {
              "internalType": "uint40",
              "name": "epoch",
              "type": "uint40"
            },
            {
              "internalType": "uint40",
              "name": "startCycle",
              "type": "uint40"
            },
            {
              "internalType": "uint40",
              "name": "endCycle",
              "type": "uint40"
            },
            {
              "internalType": "uint40",
              "name": "registrationBlock",
              "type": "uint40"
            },
            {
              "internalType": "uint40",
              "name": "registrationTimestamp",
              "type": "uint40"
            }
          ],
          "internalType": "struct Structs.Distribution",
          "name": "",
          "type": "tuple"
        }
      ],
      "stateMutability": "view",
      "type": "function"
    },
    {
      "inputs": [],
      "name": "getDistributions",
      "outputs": [
        {
          "components": [
            {
              "internalType": "uint256",
              "name": "amount",
              "type": "uint256"
            },
            {
              "internalType": "uint40",
              "name": "epoch",
              "type": "uint40"
            },
            {
              "internalType": "uint40",
              "name": "startCycle",
              "type": "uint40"
            },
            {
              "internalType": "uint40",
              "name": "endCycle",
              "type": "uint40"
            },
            {
              "internalType": "uint40",
              "name": "registrationBlock",
              "type": "uint40"
            },
            {
              "internalType": "uint40",
              "name": "registrationTimestamp",
              "type": "uint40"
            }
          ],
          "internalType": "struct Structs.Distribution[]",
          "name": "",
          "type": "tuple[]"
        }
      ],
      "stateMutability": "view",
      "type": "function"
    },
    {
      "inputs": [],
      "name": "hasPendingRoot",
      "outputs": [
        {
          "internalType": "bool",
          "name": "",
          "type": "bool"
        }
      ],
      "stateMutability": "view",
      "type": "function"
    },
    {
      "inputs": [
        {
          "internalType": "address",
          "name": "approver_",
          "type": "address"
        }
      ],
      "name": "isApprover",
      "outputs": [
        {
          "internalType": "bool",
          "name": "",
          "type": "bool"
        }
      ],
      "stateMutability": "view",
      "type": "function"
    },
    {
      "inputs": [
        {
          "internalType": "address",
          "name": "proposer_",
          "type": "address"
        }
      ],
      "name": "isProposer",
      "outputs": [
        {
          "internalType": "bool",
          "name": "",
          "type": "bool"
        }
      ],
      "stateMutability": "view",
      "type": "function"
    },
    {
      "inputs": [],
      "name": "name",
      "outputs": [
        {
          "internalType": "string",
          "name": "",
          "type": "string"
        }
      ],
      "stateMutability": "view",
      "type": "function"
    },
    {
      "inputs": [],
      "name": "owner",
      "outputs": [
        {
          "internalType": "address",
          "name": "",
          "type": "address"
        }
      ],
      "stateMutability": "view",
      "type": "function"
    },
    {
      "inputs": [],
      "name": "pause",
      "outputs": [],
      "stateMutability": "nonpayable",
      "type": "function"
    },
    {
      "inputs": [],
      "name": "paused",
      "outputs": [
        {
          "internalType": "bool",
          "name": "",
          "type": "bool"
        }
      ],
      "stateMutability": "view",
      "type": "function"
    },
    {
      "inputs": [],
      "name": "pendingMerkleCycle",
      "outputs": [
        {
          "components": [
            {
              "internalType": "bytes32",
              "name": "merkleRoot",
              "type": "bytes32"
            },
            {
              "internalType": "bytes32",
              "name": "merkleContentHash",
              "type": "bytes32"
            },
            {
              "internalType": "uint40",
              "name": "cycle",
              "type": "uint40"
            },
            {
              "internalType": "uint40",
              "name": "timestamp",
              "type": "uint40"
            },
            {
              "internalType": "uint40",
              "name": "publishBlock",
              "type": "uint40"
            },
            {
              "internalType": "uint40",
              "name": "startBlock",
              "type": "uint40"
            },
            {
              "internalType": "uint40",
              "name": "endBlock",
              "type": "uint40"
            }
          ],
          "internalType": "struct Structs.MerkleCycle",
          "name": "",
          "type": "tuple"
        }
      ],
      "stateMutability": "view",
      "type": "function"
    },
    {
      "inputs": [],
      "name": "previousMerkleRoot",
      "outputs": [
        {
          "internalType": "bytes32",
          "name": "",
          "type": "bytes32"
        }
      ],
      "stateMutability": "view",
      "type": "function"
    },
    {
      "inputs": [
        {
          "internalType": "bytes32",
          "name": "root_",
          "type": "bytes32"
        },
        {
          "internalType": "bytes32",
          "name": "contentHash_",
          "type": "bytes32"
        },
        {
          "internalType": "uint40",
          "name": "cycle_",
          "type": "uint40"
        },
        {
          "internalType": "uint40",
          "name": "startBlock_",
          "type": "uint40"
        },
        {
          "internalType": "uint40",
          "name": "endBlock_",
          "type": "uint40"
        }
      ],
      "name": "proposeRoot",
      "outputs": [],
      "stateMutability": "nonpayable",
      "type": "function"
    },
    {
      "inputs": [],
      "name": "pullFromDistributor",
      "outputs": [
        {
          "internalType": "bool",
          "name": "",
          "type": "bool"
        }
      ],
      "stateMutability": "view",
      "type": "function"
    },
    {
      "inputs": [
        {
          "internalType": "address",
          "name": "",
          "type": "address"
        }
      ],
      "name": "rewardsDistributor",
      "outputs": [
        {
          "internalType": "bool",
          "name": "",
          "type": "bool"
        }
      ],
      "stateMutability": "view",
      "type": "function"
    },
    {
      "inputs": [
        {
          "internalType": "uint40",
          "name": "startBlockOfNextCycle_",
          "type": "uint40"
        }
      ],
      "name": "setStartBlockOfNextCycle",
      "outputs": [],
      "stateMutability": "nonpayable",
      "type": "function"
    },
    {
      "inputs": [
        {
          "internalType": "address[]",
          "name": "targets_",
          "type": "address[]"
        },
        {
          "internalType": "bytes[]",
          "name": "calldatas_",
          "type": "bytes[]"
        }
      ],
      "name": "spell",
      "outputs": [],
      "stateMutability": "nonpayable",
      "type": "function"
    },
    {
      "inputs": [],
      "name": "startBlockOfNextCycle",
      "outputs": [
        {
          "internalType": "uint40",
          "name": "",
          "type": "uint40"
        }
      ],
      "stateMutability": "view",
      "type": "function"
    },
    {
      "inputs": [
        {
          "internalType": "address",
          "name": "distributor_",
          "type": "address"
        }
      ],
      "name": "toggleRewardsDistributor",
      "outputs": [],
      "stateMutability": "nonpayable",
      "type": "function"
    },
    {
      "inputs": [],
      "name": "totalCycleRewards",
      "outputs": [
        {
          "internalType": "uint256",
          "name": "",
          "type": "uint256"
        }
      ],
      "stateMutability": "view",
      "type": "function"
    },
    {
      "inputs": [],
      "name": "totalDistributions",
      "outputs": [
        {
          "internalType": "uint256",
          "name": "",
          "type": "uint256"
        }
      ],
      "stateMutability": "view",
      "type": "function"
    },
    {
      "inputs": [
        {
          "internalType": "address",
          "name": "newOwner",
          "type": "address"
        }
      ],
      "name": "transferOwnership",
      "outputs": [],
      "stateMutability": "nonpayable",
      "type": "function"
    },
    {
      "inputs": [],
      "name": "unpause",
      "outputs": [],
      "stateMutability": "nonpayable",
      "type": "function"
    },
    {
      "inputs": [
        {
          "internalType": "address",
          "name": "approver_",
          "type": "address"
        },
        {
          "internalType": "bool",
          "name": "isApprover_",
          "type": "bool"
        }
      ],
      "name": "updateApprover",
      "outputs": [],
      "stateMutability": "nonpayable",
      "type": "function"
    },
    {
      "inputs": [
        {
          "internalType": "bool",
          "name": "pullFromDistributor_",
          "type": "bool"
        },
        {
          "internalType": "uint40",
          "name": "blocksPerDistribution_",
          "type": "uint40"
        },
        {
          "internalType": "uint40",
          "name": "cyclesPerDistribution_",
          "type": "uint40"
        }
      ],
      "name": "updateDistributionConfig",
      "outputs": [],
      "stateMutability": "nonpayable",
      "type": "function"
    },
    {
      "inputs": [
        {
          "internalType": "address",
          "name": "proposer_",
          "type": "address"
        },
        {
          "internalType": "bool",
          "name": "isProposer_",
          "type": "bool"
        }
      ],
      "name": "updateProposer",
      "outputs": [],
      "stateMutability": "nonpayable",
      "type": "function"
    }
  ],
  "transactionHash": "0x3881c803aa2d950aea8f47eb021bdbbab44d6c2dd56273ad5a17cb460ecd7672",
  "args": [
    "fxUSD-USDC Smart Lending $FXN Rewards - Mar 2025",
    "0x9800020b610194dBa52CF606E8Aa142F9F256166",
    "0x4f104710f8d9F6EFB28c4b2f057554928Daa3a83",
    "0x85dC44E0c3AfdFedCa52678bD4C000917C6597B2",
    "0x365AccFCa291e7D3914637ABf1F7635dB165Bb09",
    336,
    8,
    0,
    true
  ],
  "numDeployments": 1,
  "solcInputHash": "458170c2d60b2ef642f8ca4931cb21c7",
  "bytecode": "0x60a06040523480156200001157600080fd5b50604051620043253803806200432583398101604081905262000034916200044a565b600080546001600160a01b0319166001600160a01b038a1690811782556040518a92889283928592907f8be0079c531659141344cd1fd0a4f28419497f9722a3daafe3b4186f6b6457e0908290a3506000805460ff60a01b191690556001600160a01b039081166080528a925082169050620000c357604051635435b28960e11b815260040160405180910390fd5b876001600160a01b038116620000ec57604051635435b28960e11b815260040160405180910390fd5b876001600160a01b0381166200011557604051635435b28960e11b815260040160405180910390fd5b876001600160a01b0381166200013e57604051635435b28960e11b815260040160405180910390fd5b8715806200014a575086155b156200016957604051635435b28960e11b815260040160405180910390fd5b6001620001778e8262000629565b506001600160a01b038b16600081815260026020908152604091829020805460ff191660019081179091558251938452908301527f780d738f356a91be5dfe8ffb87990c655a36b3430a233c71a209eb1e9a1a1a75910160405180910390a16001600160a01b038a16600081815260036020908152604091829020805460ff191660019081179091558251938452908301527feeeb06b5605b72367788db09c5284b141487cdc2ab0925fcf8880d30ea584376910160405180910390a160006200024489610e106200070b565b9050600062000254898b62000741565b90504660010362000274576200026c600c8362000758565b9150620002ef565b4661a4b1036200028b576200026c8260046200077f565b4661210514806200029c5750466089145b15620002af576200026c60028362000758565b60405162461bcd60e51b81526020600482015260116024820152702ab739bab83837b93a32b21031b430b4b760791b604482015260640160405180910390fd5b600f80546aff0000000000ffffffffff60281b1916600160781b89151590810264ffffffffff60281b1916919091176501000000000064ffffffffff8681169182029290921764ffffffffff1916918516918217909355604080519283526020830193909352918101919091527f7ec0e33f381405196f961b48c778f62e8184d357d894aa02af2444db07a09fd89060600160405180910390a18715620003f157600f805464ffffffffff60501b19166a010000000000000000000064ffffffffff8b16908102919091179091556040519081527f9d04c34d16567c8a1806a7cbaff030caed3589501bd3e0e3f282193a9b3afe619060200160405180910390a15b505050505050505050505050505050620007ab565b634e487b7160e01b600052604160045260246000fd5b80516001600160a01b03811681146200043457600080fd5b919050565b805180151581146200043457600080fd5b60008060008060008060008060006101208a8c0312156200046a57600080fd5b89516001600160401b03808211156200048257600080fd5b818c0191508c601f8301126200049757600080fd5b815181811115620004ac57620004ac62000406565b604051601f8201601f19908116603f01168101908382118183101715620004d757620004d762000406565b81604052828152602093508f84848701011115620004f457600080fd5b600091505b82821015620005185784820184015181830185015290830190620004f9565b6000848483010152809d5050505062000533818d016200041c565b995050506200054560408b016200041c565b96506200055560608b016200041c565b95506200056560808b016200041c565b945060a08a0151935060c08a0151925060e08a015191506200058b6101008b0162000439565b90509295985092959850929598565b600181811c90821680620005af57607f821691505b602082108103620005d057634e487b7160e01b600052602260045260246000fd5b50919050565b601f8211156200062457600081815260208120601f850160051c81016020861015620005ff5750805b601f850160051c820191505b8181101562000620578281556001016200060b565b5050505b505050565b81516001600160401b0381111562000645576200064562000406565b6200065d816200065684546200059a565b84620005d6565b602080601f8311600181146200069557600084156200067c5750858301515b600019600386901b1c1916600185901b17855562000620565b600085815260208120601f198616915b82811015620006c657888601518255948401946001909101908401620006a5565b5085821015620006e55787850151600019600388901b60f8161c191681555b5050505050600190811b01905550565b634e487b7160e01b600052601160045260246000fd5b8082028115828204841417620007255762000725620006f5565b92915050565b634e487b7160e01b600052601260045260246000fd5b6000826200075357620007536200072b565b500490565b600064ffffffffff808416806200077357620007736200072b565b92169190910492915050565b64ffffffffff818116838216028082169190828114620007a357620007a3620006f5565b505092915050565b608051613b50620007d560003960008181610597015281816117f601526124fb0152613b506000f3fe608060405234801561001057600080fd5b50600436106102775760003560e01c806374ec29a011610160578063a7e7344a116100d8578063da528f3e1161008c578063f2fde38b11610071578063f2fde38b1461079c578063f3bd53bf146107af578063fc5e231e146107d057600080fd5b8063da528f3e1461075d578063dcf6de811461077c57600080fd5b8063be5013dc116100bd578063be5013dc14610678578063c81eec661461068b578063caf3791e1461075457600080fd5b8063a7e7344a14610650578063a8a9bbfd1461066557600080fd5b8063864683d41161012f5780638da5cb5b116101145780638da5cb5b1461060c5780639cfc7e831461062c5780639d01a27d1461063d57600080fd5b8063864683d4146105e65780638a1e6bba146105f957600080fd5b806374ec29a01461056c57806382bc4aaf1461057f57806382bfefc8146105925780638456cb59146105de57600080fd5b80632f37a774116101f357806357593651116101c25780635c975abb116101a75780635c975abb146105235780636d218e481461054657806370feb52a1461055957600080fd5b806357593651146104e057806359974e381461051057600080fd5b80632f37a774146104aa57806335c1dd99146104b25780633f4ba83a146104c55780634617c06a146104cd57600080fd5b80630f2d940b1161024a5780631563461b1161022f5780631563461b1461035b578063163db71b146103705780632274c5cd1461037857600080fd5b80630f2d940b146103025780630fc1bf681461033b57600080fd5b806302aa63181461027c57806304585ac71461029a578063059527bf146102ba57806306fdde03146102ed575b600080fd5b6102846107d8565b6040516102919190612f6d565b60405180910390f35b6102ad6102a8366004613003565b6108ae565b604051610291919061301c565b6102dd6102c836600461308f565b600e6020526000908152604090205460ff1681565b6040519015158152602001610291565b6102f56109b8565b6040516102919190613118565b61032d61031036600461312b565b600b60209081526000928352604080842090915290825290205481565b604051908152602001610291565b600f546102dd906f01000000000000000000000000000000900460ff1681565b61036e610369366004613166565b610a46565b005b600d5461032d565b6104416040805160e081018252600080825260208201819052918101829052606081018290526080810182905260a0810182905260c0810191909152506040805160e0810182526007548152600854602082015260095464ffffffffff80821693830193909352650100000000008104831660608301526a01000000000000000000008104831660808301526f010000000000000000000000000000008104831660a083015274010000000000000000000000000000000000000000900490911660c082015290565b6040516102919190600060e0820190508251825260208301516020830152604083015164ffffffffff80821660408501528060608601511660608501528060808601511660808501528060a08601511660a08501528060c08601511660c0850152505092915050565b6102dd610baa565b61036e6104c03660046131b2565b610bd6565b61036e610ec9565b61036e6104db3660046131b2565b610f54565b600f546104fa9065010000000000900464ffffffffff1681565b60405164ffffffffff9091168152602001610291565b61036e61051e366004613003565b6111c5565b60005474010000000000000000000000000000000000000000900460ff166102dd565b6102dd61055436600461308f565b611892565b61036e61056736600461308f565b6118e6565b6102dd61057a36600461308f565b611a45565b61036e61058d3660046133c9565b611a96565b6105b97f000000000000000000000000000000000000000000000000000000000000000081565b60405173ffffffffffffffffffffffffffffffffffffffff9091168152602001610291565b61036e611b77565b61036e6105f4366004613489565b611c00565b61036e6106073660046134f0565b611d46565b6000546105b99073ffffffffffffffffffffffffffffffffffffffff1681565b600f546104fa9064ffffffffff1681565b61036e61064b366004613166565b611ee3565b610658612039565b6040516102919190613532565b61036e6106733660046135b0565b6120e7565b61036e610686366004613606565b61229d565b6104416040805160e081018252600080825260208201819052918101829052606081018290526080810182905260a0810182905260c0810191909152506040805160e0810182526004548152600554602082015260065464ffffffffff80821693830193909352650100000000008104831660608301526a01000000000000000000008104831660808301526f010000000000000000000000000000008104831660a083015274010000000000000000000000000000000000000000900490911660c082015290565b61032d600a5481565b600f546104fa906a0100000000000000000000900464ffffffffff1681565b61078f61078a366004613003565b6125a1565b60405161029191906136ad565b61036e6107aa36600461308f565b6126d1565b6107c26107bd366004613703565b6127c2565b60405161029192919061377d565b600c5461032d565b6060600d805480602002602001604051908101604052809291908181526020016000905b828210156108a55760008481526020908190206040805160c081018252600286029092018054835260019081015464ffffffffff808216858701526501000000000082048116938501939093526a01000000000000000000008104831660608501526f0100000000000000000000000000000081048316608085015274010000000000000000000000000000000000000000900490911660a083015290835290920191016107fc565b50505050905090565b6040805160a081018252600080825260208201819052918101829052606081018290526080810191909152600c548211806108e7575081155b1561091e576040517fa86b651200000000000000000000000000000000000000000000000000000000815260040160405180910390fd5b600c61092b6001846137ce565b8154811061093b5761093b6137e1565b60009182526020918290206040805160a0810182526002909302909101805483526001015464ffffffffff808216948401949094526501000000000081048416918301919091526a01000000000000000000008104831660608301526f010000000000000000000000000000009004909116608082015292915050565b600180546109c590613810565b80601f01602080910402602001604051908101604052809291908181526020018280546109f190613810565b8015610a3e5780601f10610a1357610100808354040283529160200191610a3e565b820191906000526020600020905b815481529060010190602001808311610a2157829003601f168201915b505050505081565b60005473ffffffffffffffffffffffffffffffffffffffff163314610acc576040517f08c379a000000000000000000000000000000000000000000000000000000000815260206004820152600c60248201527f554e415554484f52495a4544000000000000000000000000000000000000000060448201526064015b60405180910390fd5b8173ffffffffffffffffffffffffffffffffffffffff8116610b1a576040517fa86b651200000000000000000000000000000000000000000000000000000000815260040160405180910390fd5b73ffffffffffffffffffffffffffffffffffffffff831660008181526003602090815260409182902080547fffffffffffffffffffffffffffffffffffffffffffffffffffffffffffffff00168615159081179091558251938452908301527feeeb06b5605b72367788db09c5284b141487cdc2ab0925fcf8880d30ea58437691015b60405180910390a1505050565b600654600090610bc29064ffffffffff166001613863565b60095464ffffffffff908116911614919050565b610bdf33611892565b610c15576040517f82b4290000000000000000000000000000000000000000000000000000000000815260040160405180910390fd5b6040805160e081018252600754808252600854602083015260095464ffffffffff80821694840194909452650100000000008104841660608401526a01000000000000000000008104841660808401526f010000000000000000000000000000008104841660a084015274010000000000000000000000000000000000000000900490921660c08201529086141580610cb2575080602001518514155b80610ccf5750806040015164ffffffffff168464ffffffffff1614155b80610cec57508060a0015164ffffffffff168364ffffffffff1614155b80610d0957508060c0015164ffffffffff168264ffffffffff1614155b15610d40576040517fa86b651200000000000000000000000000000000000000000000000000000000815260040160405180910390fd5b60048054600a554264ffffffffff818116606085810182905243808416608080890182905288519097556020808901516005556040808a01516006805460a0808e015160c08f0151948c167fffffffffffffffffffffffffffffffffffffffffffff000000000000000000009093169290921765010000000000909a02999099177fffffffffffffffffffffffff00000000000000000000ffffffffffffffffffff166a01000000000000000000009096027fffffffffffffffffffffffff0000000000ffffffffffffffffffffffffffffff16959095176f01000000000000000000000000000000958a1695909502949094177fffffffffffffff0000000000ffffffffffffffffffffffffffffffffffffffff167401000000000000000000000000000000000000000091891691909102179092558151958c16865285018d905284018b905290830193909352928101919091527fcc3c3071340d91a4fd687f9ad48d1ee5689f8083136feb3594807d0f7481f7cf910160405180910390a1505050505050565b60005473ffffffffffffffffffffffffffffffffffffffff163314610f4a576040517f08c379a000000000000000000000000000000000000000000000000000000000815260206004820152600c60248201527f554e415554484f52495a454400000000000000000000000000000000000000006044820152606401610ac3565b610f52612844565b565b610f5c6128c1565b610f6533611a45565b610f9b576040517f82b4290000000000000000000000000000000000000000000000000000000000815260040160405180910390fd5b600654610fb09064ffffffffff166001613863565b64ffffffffff168364ffffffffff16141580610fd957508064ffffffffff168264ffffffffff16115b15611010576040517fa86b651200000000000000000000000000000000000000000000000000000000815260040160405180910390fd5b6040805160e0810182528681526020810186905264ffffffffff8086168284018190524280831660608501819052438085166080870181905289861660a0880181905295891660c090970187905260078d905560088c905560098054740100000000000000000000000000000000000000009098027fffffffffffffff0000000000ffffffffffffffffffffffffffffffffffffffff6f010000000000000000000000000000009098027fffffffffffffffffffffffff0000000000ffffffffffffffffffffffffffffff6a0100000000000000000000909402939093167fffffffffffffffffffffffff00000000000000000000ffffffffffffffffffff650100000000009096027fffffffffffffffffffffffffffffffffffffffffffff00000000000000000000909a1690971798909817939093169490941793909317939093169390931790915591517fb38026cc978f6c2642a5108ee558571a1b01a939b056abcc065b7eabacaf2d9d926111b69287928a928a929164ffffffffff959095168552602085019390935260408401919091526060830152608082015260a00190565b60405180910390a15050505050565b336000908152600e602052604090205460ff161580156111fd575060005473ffffffffffffffffffffffffffffffffffffffff163314155b15611234576040517f82b4290000000000000000000000000000000000000000000000000000000000815260040160405180910390fd5b8060000361126e576040517fa86b651200000000000000000000000000000000000000000000000000000000815260040160405180910390fd5b600f546000906112859064ffffffffff16836138b7565b600f549091506000906112ab9064ffffffffff80821691650100000000009004166138cb565b600c5464ffffffffff9190911691506000811561136b576000600c6112d16001856137ce565b815481106112e1576112e16137e1565b9060005260206000209060020201600101600a9054906101000a900464ffffffffff1660016113109190613863565b600f5464ffffffffff91821692506a010000000000000000000090041681101561135357600f546a0100000000000000000000900464ffffffffff169150611365565b4381116113605743611362565b805b91505b506113a9565b600f546a0100000000000000000000900464ffffffffff1661138d57436113a6565b600f546a0100000000000000000000900464ffffffffff165b90505b806000036113e3576040517fa86b651200000000000000000000000000000000000000000000000000000000815260040160405180910390fd5b600d546000906113f49060016138ef565b9050600d6040518060c001604052808881526020018364ffffffffff16815260200185600161142391906138ef565b64ffffffffff9081168252600f546020909201916114429116876138ef565b64ffffffffff9081168252438116602080840191909152428216604093840152845460018181018755600096875282872086516002909302019182559185015191018054938501516060860151608087015160a090970151851674010000000000000000000000000000000000000000027fffffffffffffff0000000000ffffffffffffffffffffffffffffffffffffffff9786166f01000000000000000000000000000000027fffffffffffffffffffffffff0000000000ffffffffffffffffffffffffffffff9287166a010000000000000000000002929092167fffffffffffffffffffffffff00000000000000000000ffffffffffffffffffff93871665010000000000027fffffffffffffffffffffffffffffffffffffffffffff00000000000000000000909816959096169490941795909517169290921792909217929092161790555b600f5464ffffffffff168110156117d257600060016115aa87866138ef565b6115b491906137ce565b90506000826115c48760016138ef565b6115ce91906138ef565b600f5490915088906115e99060019064ffffffffff16613902565b64ffffffffff16840361160d57611600848a613920565b61160a908b6137ce565b90505b6040805160a08101825282815264ffffffffff80851660208301908152898216838501908152878316606085019081528a841660808601908152600c8054600181018255600091909152955160029096027fdf6966c971051c3d54ec59162606531493a51404a002842f56009d7e5cf4a8c781019690965592517fdf6966c971051c3d54ec59162606531493a51404a002842f56009d7e5cf4a8c8909501805492519151935185166f01000000000000000000000000000000027fffffffffffffffffffffffff0000000000ffffffffffffffffffffffffffffff9486166a010000000000000000000002949094167fffffffffffffffffffffffff00000000000000000000ffffffffffffffffffff92861665010000000000027fffffffffffffffffffffffffffffffffffffffffffff00000000000000000000909416969095169590951791909117169190911717905551859083907f9d1578529527d7ca977e6e95da5e7302299dfa7894fea3a1992ce68741ff5a0a906117a79085908b9089909283526020830191909152604082015260600190565b60405180910390a36117ba8360016138ef565b955050505080806117ca90613937565b91505061158b565b50600f546f01000000000000000000000000000000900460ff161561181d5761181d7f0000000000000000000000000000000000000000000000000000000000000000333089612946565b33817fd3aec04e72c75d4a42792ce6fe015d1ec10b07a8a621c9df2a89bd3644cf7ca88861184c8760016138ef565b600f546118609064ffffffffff16896138ef565b6040805193845260208401929092529082015243606082015242608082015260a00160405180910390a3505050505050565b73ffffffffffffffffffffffffffffffffffffffff811660009081526003602052604081205460ff16806118e0575060005473ffffffffffffffffffffffffffffffffffffffff8381169116145b92915050565b60005473ffffffffffffffffffffffffffffffffffffffff163314611967576040517f08c379a000000000000000000000000000000000000000000000000000000000815260206004820152600c60248201527f554e415554484f52495a454400000000000000000000000000000000000000006044820152606401610ac3565b73ffffffffffffffffffffffffffffffffffffffff81166119b4576040517fa86b651200000000000000000000000000000000000000000000000000000000815260040160405180910390fd5b73ffffffffffffffffffffffffffffffffffffffff81166000818152600e6020908152604091829020805460ff8116157fffffffffffffffffffffffffffffffffffffffffffffffffffffffffffffff0090911681179091558251938452908301527f7070b1fa79059dab7359a2e5b3be557471a19c213ba384d17144bc86d149672391015b60405180910390a150565b73ffffffffffffffffffffffffffffffffffffffff811660009081526002602052604081205460ff16806118e057505060005473ffffffffffffffffffffffffffffffffffffffff91821691161490565b60005473ffffffffffffffffffffffffffffffffffffffff163314611b17576040517f08c379a000000000000000000000000000000000000000000000000000000000815260206004820152600c60248201527f554e415554484f52495a454400000000000000000000000000000000000000006044820152606401610ac3565b60005b8251811015611b7257611b5f838281518110611b3857611b386137e1565b6020026020010151838381518110611b5257611b526137e1565b6020026020010151612a28565b5080611b6a81613937565b915050611b1a565b505050565b60005473ffffffffffffffffffffffffffffffffffffffff163314611bf8576040517f08c379a000000000000000000000000000000000000000000000000000000000815260206004820152600c60248201527f554e415554484f52495a454400000000000000000000000000000000000000006044820152606401610ac3565b610f52612a74565b60005473ffffffffffffffffffffffffffffffffffffffff163314611c81576040517f08c379a000000000000000000000000000000000000000000000000000000000815260206004820152600c60248201527f554e415554484f52495a454400000000000000000000000000000000000000006044820152606401610ac3565b438164ffffffffff161080611c9b575064ffffffffff8116155b15611cd2576040517fa86b651200000000000000000000000000000000000000000000000000000000815260040160405180910390fd5b600f80547fffffffffffffffffffffffffffffffffff0000000000ffffffffffffffffffff166a010000000000000000000064ffffffffff8416908102919091179091556040519081527f9d04c34d16567c8a1806a7cbaff030caed3589501bd3e0e3f282193a9b3afe6190602001611a3a565b60005b81811015611b7257611ed1838383818110611d6657611d666137e1565b9050602002810190611d78919061396f565b611d8690602081019061308f565b848484818110611d9857611d986137e1565b9050602002810190611daa919061396f565b60200135858585818110611dc057611dc06137e1565b9050602002810190611dd2919061396f565b611de39060608101906040016139ad565b868686818110611df557611df56137e1565b9050602002810190611e07919061396f565b60600135878787818110611e1d57611e1d6137e1565b9050602002810190611e2f919061396f565b60800135888888818110611e4557611e456137e1565b9050602002810190611e57919061396f565b611e659060a08101906139c8565b8a8a8a818110611e7757611e776137e1565b9050602002810190611e89919061396f565b611e979060c0810190613a30565b8080601f01602080910402602001604051908101604052809392919081815260200183838082843760009201919091525061229d92505050565b80611edb81613937565b915050611d49565b60005473ffffffffffffffffffffffffffffffffffffffff163314611f64576040517f08c379a000000000000000000000000000000000000000000000000000000000815260206004820152600c60248201527f554e415554484f52495a454400000000000000000000000000000000000000006044820152606401610ac3565b8173ffffffffffffffffffffffffffffffffffffffff8116611fb2576040517fa86b651200000000000000000000000000000000000000000000000000000000815260040160405180910390fd5b73ffffffffffffffffffffffffffffffffffffffff831660008181526002602090815260409182902080547fffffffffffffffffffffffffffffffffffffffffffffffffffffffffffffff00168615159081179091558251938452908301527f780d738f356a91be5dfe8ffb87990c655a36b3430a233c71a209eb1e9a1a1a759101610b9d565b6060600c805480602002602001604051908101604052809291908181526020016000905b828210156108a55760008481526020908190206040805160a081018252600286029092018054835260019081015464ffffffffff808216858701526501000000000082048116938501939093526a01000000000000000000008104831660608501526f0100000000000000000000000000000090049091166080830152908352909201910161205d565b60005473ffffffffffffffffffffffffffffffffffffffff163314612168576040517f08c379a000000000000000000000000000000000000000000000000000000000815260206004820152600c60248201527f554e415554484f52495a454400000000000000000000000000000000000000006044820152606401610ac3565b64ffffffffff82161580612181575064ffffffffff8116155b156121b8576040517fa86b651200000000000000000000000000000000000000000000000000000000815260040160405180910390fd5b600f80547fffffffffffffffffffffffffffffffff00ffffffffff0000000000ffffffffff166f010000000000000000000000000000008515159081027fffffffffffffffffffffffffffffffffffffffffffff0000000000ffffffffff16919091176501000000000064ffffffffff868116918202929092177fffffffffffffffffffffffffffffffffffffffffffffffffffffff000000000016918516918217909355604080519283526020830193909352918101919091527f7ec0e33f381405196f961b48c778f62e8184d357d894aa02af2444db07a09fd890606001610b9d565b6122a56128c1565b3373ffffffffffffffffffffffffffffffffffffffff8916146122f4576040517fbd79de5800000000000000000000000000000000000000000000000000000000815260040160405180910390fd5b60065464ffffffffff16848114806123205750600081118015612320575061231d6001826137ce565b85145b612356576040517f9b8febfe00000000000000000000000000000000000000000000000000000000815260040160405180910390fd5b600087878b888c8760405160200161237396959493929190613a95565b604080517fffffffffffffffffffffffffffffffffffffffffffffffffffffffffffffffe0818403018152828252805160209182012090830152016040516020818303038152906040528051906020012090506124168585808060200260200160405190810160405280939291908181526020018383602002808284376000920191909152505050888514905061240c57600a54612410565b6004545b83612ae3565b61244c576040517f09bde33900000000000000000000000000000000000000000000000000000000815260040160405180910390fd5b73ffffffffffffffffffffffffffffffffffffffff8a166000908152600b602090815260408083208a8452909152812054612487908b6137ce565b9050806000036124c3576040517f969bf72800000000000000000000000000000000000000000000000000000000815260040160405180910390fd5b73ffffffffffffffffffffffffffffffffffffffff8b166000908152600b602090815260408083208b845290915290208a90556125217f00000000000000000000000000000000000000000000000000000000000000008c83612af9565b6040805173ffffffffffffffffffffffffffffffffffffffff8d1681526020810183905290810188905260ff8a166060820152608081018990524260a08201524360c08201527f309cb1c0dc6ce0f02c0c35cc1f46bbe61ec9deb311d101b87e7d25bd0b647fd79060e00160405180910390a15050505050505050505050565b6040805160c081018252600080825260208201819052918101829052606081018290526080810182905260a0810191909152600d548211806125e1575081155b15612618576040517fa86b651200000000000000000000000000000000000000000000000000000000815260040160405180910390fd5b600d6126256001846137ce565b81548110612635576126356137e1565b60009182526020918290206040805160c0810182526002909302909101805483526001015464ffffffffff808216948401949094526501000000000081048416918301919091526a01000000000000000000008104831660608301526f0100000000000000000000000000000081048316608083015274010000000000000000000000000000000000000000900490911660a082015292915050565b60005473ffffffffffffffffffffffffffffffffffffffff163314612752576040517f08c379a000000000000000000000000000000000000000000000000000000000815260206004820152600c60248201527f554e415554484f52495a454400000000000000000000000000000000000000006044820152606401610ac3565b600080547fffffffffffffffffffffffff00000000000000000000000000000000000000001673ffffffffffffffffffffffffffffffffffffffff83169081178255604051909133917f8be0079c531659141344cd1fd0a4f28419497f9722a3daafe3b4186f6b6457e09190a350565b60606000858589868a876040516020016127e196959493929190613a95565b604080517fffffffffffffffffffffffffffffffffffffffffffffffffffffffffffffffe0818403018152828252805160208083019190912090840152935001604051602081830303815290604052805190602001209050965096945050505050565b61284c612b4f565b600080547fffffffffffffffffffffff00ffffffffffffffffffffffffffffffffffffffff1690557f5db9ee0a495bf2e6ff9c91a7834c1ba4fdd244a5e8aa4e537bd38aeae4b073aa335b60405173ffffffffffffffffffffffffffffffffffffffff909116815260200160405180910390a1565b60005474010000000000000000000000000000000000000000900460ff1615610f52576040517f08c379a000000000000000000000000000000000000000000000000000000000815260206004820152601060248201527f5061757361626c653a20706175736564000000000000000000000000000000006044820152606401610ac3565b60405173ffffffffffffffffffffffffffffffffffffffff80851660248301528316604482015260648101829052612a229085907f23b872dd00000000000000000000000000000000000000000000000000000000906084015b604080517fffffffffffffffffffffffffffffffffffffffffffffffffffffffffffffffe08184030181529190526020810180517bffffffffffffffffffffffffffffffffffffffffffffffffffffffff167fffffffff0000000000000000000000000000000000000000000000000000000090931692909217909152612bd3565b50505050565b6060600080835160208501865af43d6040519250601f19601f6020830101168301604052808352806000602085013e811560018103612a6b57816000803e816000fd5b50505092915050565b612a7c6128c1565b600080547fffffffffffffffffffffff00ffffffffffffffffffffffffffffffffffffffff16740100000000000000000000000000000000000000001790557f62e78cea01bee320cd4e420270b5ea74000d11b0c9f74754ebdbfc544b05a2586128973390565b600082612af08584612cdf565b14949350505050565b60405173ffffffffffffffffffffffffffffffffffffffff8316602482015260448101829052611b729084907fa9059cbb00000000000000000000000000000000000000000000000000000000906064016129a0565b60005474010000000000000000000000000000000000000000900460ff16610f52576040517f08c379a000000000000000000000000000000000000000000000000000000000815260206004820152601460248201527f5061757361626c653a206e6f74207061757365640000000000000000000000006044820152606401610ac3565b6000612c35826040518060400160405280602081526020017f5361666545524332303a206c6f772d6c6576656c2063616c6c206661696c65648152508573ffffffffffffffffffffffffffffffffffffffff16612d2c9092919063ffffffff16565b805190915015611b725780806020019051810190612c539190613aeb565b611b72576040517f08c379a000000000000000000000000000000000000000000000000000000000815260206004820152602a60248201527f5361666545524332303a204552433230206f7065726174696f6e20646964206e60448201527f6f742073756363656564000000000000000000000000000000000000000000006064820152608401610ac3565b600081815b8451811015612d2457612d1082868381518110612d0357612d036137e1565b6020026020010151612d43565b915080612d1c81613937565b915050612ce4565b509392505050565b6060612d3b8484600085612d75565b949350505050565b6000818310612d5f576000828152602084905260409020612d6e565b60008381526020839052604090205b9392505050565b606082471015612e07576040517f08c379a000000000000000000000000000000000000000000000000000000000815260206004820152602660248201527f416464726573733a20696e73756666696369656e742062616c616e636520666f60448201527f722063616c6c00000000000000000000000000000000000000000000000000006064820152608401610ac3565b6000808673ffffffffffffffffffffffffffffffffffffffff168587604051612e309190613b08565b60006040518083038185875af1925050503d8060008114612e6d576040519150601f19603f3d011682016040523d82523d6000602084013e612e72565b606091505b5091509150612e8387838387612e8e565b979650505050505050565b60608315612f24578251600003612f1d5773ffffffffffffffffffffffffffffffffffffffff85163b612f1d576040517f08c379a000000000000000000000000000000000000000000000000000000000815260206004820152601d60248201527f416464726573733a2063616c6c20746f206e6f6e2d636f6e74726163740000006044820152606401610ac3565b5081612d3b565b612d3b8383815115612f395781518083602001fd5b806040517f08c379a0000000000000000000000000000000000000000000000000000000008152600401610ac39190613118565b6020808252825182820181905260009190848201906040850190845b81811015612ff757612fe483855180518252602081015164ffffffffff80821660208501528060408401511660408501528060608401511660608501528060808401511660808501528060a08401511660a085015250505050565b9284019260c09290920191600101612f89565b50909695505050505050565b60006020828403121561301557600080fd5b5035919050565b60a081016118e0828480518252602081015164ffffffffff808216602085015280604084015116604085015280606084015116606085015280608084015116608085015250505050565b803573ffffffffffffffffffffffffffffffffffffffff8116811461308a57600080fd5b919050565b6000602082840312156130a157600080fd5b612d6e82613066565b60005b838110156130c55781810151838201526020016130ad565b50506000910152565b600081518084526130e68160208601602086016130aa565b601f017fffffffffffffffffffffffffffffffffffffffffffffffffffffffffffffffe0169290920160200192915050565b602081526000612d6e60208301846130ce565b6000806040838503121561313e57600080fd5b61314783613066565b946020939093013593505050565b801515811461316357600080fd5b50565b6000806040838503121561317957600080fd5b61318283613066565b9150602083013561319281613155565b809150509250929050565b803564ffffffffff8116811461308a57600080fd5b600080600080600060a086880312156131ca57600080fd5b85359450602086013593506131e16040870161319d565b92506131ef6060870161319d565b91506131fd6080870161319d565b90509295509295909350565b7f4e487b7100000000000000000000000000000000000000000000000000000000600052604160045260246000fd5b604051601f82017fffffffffffffffffffffffffffffffffffffffffffffffffffffffffffffffe016810167ffffffffffffffff8111828210171561327f5761327f613209565b604052919050565b600067ffffffffffffffff8211156132a1576132a1613209565b5060051b60200190565b600082601f8301126132bc57600080fd5b813567ffffffffffffffff8111156132d6576132d6613209565b61330760207fffffffffffffffffffffffffffffffffffffffffffffffffffffffffffffffe0601f84011601613238565b81815284602083860101111561331c57600080fd5b816020850160208301376000918101602001919091529392505050565b600082601f83011261334a57600080fd5b8135602061335f61335a83613287565b613238565b82815260059290921b8401810191818101908684111561337e57600080fd5b8286015b848110156133be57803567ffffffffffffffff8111156133a25760008081fd5b6133b08986838b01016132ab565b845250918301918301613382565b509695505050505050565b600080604083850312156133dc57600080fd5b823567ffffffffffffffff808211156133f457600080fd5b818501915085601f83011261340857600080fd5b8135602061341861335a83613287565b82815260059290921b8401810191818101908984111561343757600080fd5b948201945b8386101561345c5761344d86613066565b8252948201949082019061343c565b9650508601359250508082111561347257600080fd5b5061347f85828601613339565b9150509250929050565b60006020828403121561349b57600080fd5b612d6e8261319d565b60008083601f8401126134b657600080fd5b50813567ffffffffffffffff8111156134ce57600080fd5b6020830191508360208260051b85010111156134e957600080fd5b9250929050565b6000806020838503121561350357600080fd5b823567ffffffffffffffff81111561351a57600080fd5b613526858286016134a4565b90969095509350505050565b6020808252825182820181905260009190848201906040850190845b81811015612ff75761359d83855180518252602081015164ffffffffff808216602085015280604084015116604085015280606084015116606085015280608084015116608085015250505050565b9284019260a0929092019160010161354e565b6000806000606084860312156135c557600080fd5b83356135d081613155565b92506135de6020850161319d565b91506135ec6040850161319d565b90509250925092565b803560ff8116811461308a57600080fd5b60008060008060008060008060e0898b03121561362257600080fd5b61362b89613066565b97506020890135965061364060408a016135f5565b9550606089013594506080890135935060a089013567ffffffffffffffff8082111561366b57600080fd5b6136778c838d016134a4565b909550935060c08b013591508082111561369057600080fd5b5061369d8b828c016132ab565b9150509295985092959890939650565b60c081016118e0828480518252602081015164ffffffffff80821660208501528060408401511660408501528060608401511660608501528060808401511660808501528060a08401511660a085015250505050565b60008060008060008060c0878903121561371c57600080fd5b61372587613066565b95506020870135945061373a604088016135f5565b9350606087013592506080870135915060a087013567ffffffffffffffff81111561376457600080fd5b61377089828a016132ab565b9150509295509295509295565b60408152600061379060408301856130ce565b90508260208301529392505050565b7f4e487b7100000000000000000000000000000000000000000000000000000000600052601160045260246000fd5b818103818111156118e0576118e061379f565b7f4e487b7100000000000000000000000000000000000000000000000000000000600052603260045260246000fd5b600181811c9082168061382457607f821691505b60208210810361385d577f4e487b7100000000000000000000000000000000000000000000000000000000600052602260045260246000fd5b50919050565b64ffffffffff8181168382160190808211156138815761388161379f565b5092915050565b7f4e487b7100000000000000000000000000000000000000000000000000000000600052601260045260246000fd5b6000826138c6576138c6613888565b500490565b600064ffffffffff808416806138e3576138e3613888565b92169190910492915050565b808201808211156118e0576118e061379f565b64ffffffffff8281168282160390808211156138815761388161379f565b80820281158282048414176118e0576118e061379f565b60007fffffffffffffffffffffffffffffffffffffffffffffffffffffffffffffffff82036139685761396861379f565b5060010190565b600082357fffffffffffffffffffffffffffffffffffffffffffffffffffffffffffffff218336030181126139a357600080fd5b9190910192915050565b6000602082840312156139bf57600080fd5b612d6e826135f5565b60008083357fffffffffffffffffffffffffffffffffffffffffffffffffffffffffffffffe18436030181126139fd57600080fd5b83018035915067ffffffffffffffff821115613a1857600080fd5b6020019150600581901b36038213156134e957600080fd5b60008083357fffffffffffffffffffffffffffffffffffffffffffffffffffffffffffffffe1843603018112613a6557600080fd5b83018035915067ffffffffffffffff821115613a8057600080fd5b6020019150368190038213156134e957600080fd5b60ff8716815285602082015273ffffffffffffffffffffffffffffffffffffffff8516604082015283606082015282608082015260c060a08201526000613adf60c08301846130ce565b98975050505050505050565b600060208284031215613afd57600080fd5b8151612d6e81613155565b600082516139a38184602087016130aa56fea26469706673582212207609cbca8b50d2f1c7cef306a92b5918509b2d83165cbbd062d38e1577d46e2364736f6c63430008150033",
  "devdoc": {
    "events": {
      "Paused(address)": {
        "details": "Emitted when the pause is triggered by `account`."
      },
      "Unpaused(address)": {
        "details": "Emitted when the pause is lifted by `account`."
      }
    },
    "kind": "dev",
    "methods": {
      "claim(address,uint256,uint8,bytes32,uint256,bytes32[],bytes)": {
        "params": {
          "cumulativeAmount_": "- cumulative amount of rewards to claim",
          "cycle_": "- cycle of the rewards",
          "merkleProof_": "- merkle proof of the rewards",
          "positionId_": "- id of the position, fToken address for lending and vaultId for vaults",
          "positionType_": "- type of position, 1 for lending, 2 for vaults, 3 for smart lending, etc",
          "recipient_": "- address of the recipient"
        }
      },
      "distributeRewards(uint256)": {
        "params": {
          "amount_": "- amount of tokens to distribute rewards for"
        }
      },
      "getCycleReward(uint256)": {
        "params": {
          "cycle_": "- cycle of the reward"
        },
        "returns": {
          "_0": "reward_ - reward"
        }
      },
      "getCycleRewards()": {
        "returns": {
          "_0": "rewards_ - rewards"
        }
      },
      "getDistributionForEpoch(uint256)": {
        "params": {
          "epoch_": "- epoch of the distribution"
        },
        "returns": {
          "_0": "distribution_ - distribution"
        }
      },
      "getDistributions()": {
        "returns": {
          "_0": "distributions_ - all distributions"
        }
      },
      "paused()": {
        "details": "Returns true if the contract is paused, and false otherwise."
      },
      "setStartBlockOfNextCycle(uint40)": {
        "params": {
          "startBlockOfNextCycle_": "The start block of the next cycle"
        }
      },
      "spell(address[],bytes[])": {
        "details": "open payload method for admin to resolve emergency cases"
      },
      "toggleRewardsDistributor(address)": {
        "params": {
          "distributor_": "- address of the rewards distributor"
        }
      },
      "totalCycleRewards()": {
        "returns": {
          "_0": "totalCycles_ - total number of cycles"
        }
      },
      "totalDistributions()": {
        "returns": {
          "_0": "totalDistributions_ - total number of distributions"
        }
      },
      "updateApprover(address,bool)": {
        "params": {
          "approver_": "The address to update",
          "isApprover_": "Whether or not the address should be an allowed approver"
        }
      },
      "updateDistributionConfig(bool,uint40,uint40)": {
        "params": {
          "blocksPerDistribution_": "- duration of distribution in blocks",
          "cyclesPerDistribution_": "- number of cycles to distribute rewards, if 0 then means paused",
          "pullFromDistributor_": "- whether to pull rewards from distributor or not"
        }
      },
      "updateProposer(address,bool)": {
        "params": {
          "isProposer_": "Whether or not the address should be an allowed proposer",
          "proposer_": "The address to update"
        }
      }
    },
    "version": 1
  },
  "userdoc": {
    "events": {
      "LogClaimed(address,uint256,uint256,uint8,bytes32,uint256,uint256)": {
        "notice": "Emitted when a `user` claims `amount` via a valid merkle proof"
      },
      "LogDistribution(uint256,address,uint256,uint256,uint256,uint256,uint256)": {
        "notice": "Emitted when a new distribution is created"
      },
      "LogDistributionConfigUpdated(bool,uint256,uint256)": {
        "notice": "Emitted when the distribution configuration is updated"
      },
      "LogRewardCycle(uint256,uint256,uint256,uint256,uint256)": {
        "notice": "Emitted when a new reward cycle is created"
      },
      "LogRewardsDistributorToggled(address,bool)": {
        "notice": "Emitted when a rewards distributor is toggled"
      },
      "LogRootProposed(uint256,bytes32,bytes32,uint256,uint256)": {
        "notice": "Emitted when a new cycle root hash is proposed"
      },
      "LogRootUpdated(uint256,bytes32,bytes32,uint256,uint256)": {
        "notice": "Emitted when a new cycle root hash is approved by the owner and becomes the new active root"
      },
      "LogStartBlockOfNextCycleUpdated(uint256)": {
        "notice": "Emitted when the start block of the next cycle is updated"
      },
      "LogUpdateApprover(address,bool)": {
        "notice": "Emitted when an address is added or removed from the allowed approvers"
      },
      "LogUpdateProposer(address,bool)": {
        "notice": "Emitted when an address is added or removed from the allowed proposers"
      }
    },
    "kind": "user",
    "methods": {
      "approveRoot(bytes32,bytes32,uint40,uint40,uint40)": {
        "notice": "Approve the current pending root and content hash"
      },
      "blocksPerDistribution()": {
        "notice": "Duration of each distribution in blocks"
      },
      "claim(address,uint256,uint8,bytes32,uint256,bytes32[],bytes)": {
        "notice": "Claims rewards for a given recipient"
      },
      "claimed(address,bytes32)": {
        "notice": "total claimed amount per user address and fToken. user => positionId => claimed amount"
      },
      "currentMerkleCycle()": {
        "notice": "merkle root data related to current cycle (proposed and approved)."
      },
      "cyclesPerDistribution()": {
        "notice": "Number of cycles to distribute rewards"
      },
      "distributeRewards(uint256)": {
        "notice": "Distributes rewards for a given token"
      },
      "getCycleReward(uint256)": {
        "notice": "Returns the cycle reward for a given cycle"
      },
      "getCycleRewards()": {
        "notice": "Returns the cycle rewards"
      },
      "getDistributionForEpoch(uint256)": {
        "notice": "Returns the distribution for a given epoch"
      },
      "getDistributions()": {
        "notice": "Returns all distributions"
      },
      "hasPendingRoot()": {
        "notice": "checks if there is a proposed root waiting to be approved"
      },
      "isApprover(address)": {
        "notice": "checks if the `approver_` is an allowed root approver"
      },
      "isProposer(address)": {
        "notice": "checks if the `proposer_` is an allowed root proposer"
      },
      "pause()": {
        "notice": "Pause contract functionality of new roots and claiming"
      },
      "pendingMerkleCycle()": {
        "notice": "merkle root data related to pending cycle (proposed but not yet approved)."
      },
      "previousMerkleRoot()": {
        "notice": "merkle root of the previous cycle"
      },
      "proposeRoot(bytes32,bytes32,uint40,uint40,uint40)": {
        "notice": "Propose a new root and content hash, which will be stored as pending until approved"
      },
      "pullFromDistributor()": {
        "notice": "Whether to pull tokens from distributor or not"
      },
      "rewardsDistributor(address)": {
        "notice": "allow list for rewards distributors"
      },
      "setStartBlockOfNextCycle(uint40)": {
        "notice": "Sets the start block of the next cycle"
      },
      "startBlockOfNextCycle()": {
        "notice": "Start block of the next cycle"
      },
      "toggleRewardsDistributor(address)": {
        "notice": "Toggles a rewards distributor"
      },
      "totalCycleRewards()": {
        "notice": "Returns the total number of cycles"
      },
      "totalDistributions()": {
        "notice": "Returns the total number of distributions"
      },
      "unpause()": {
        "notice": "Unpause contract functionality of new roots and claiming"
      },
      "updateApprover(address,bool)": {
        "notice": "Updates an address status as a root approver"
      },
      "updateDistributionConfig(bool,uint40,uint40)": {
        "notice": "Updates the distribution configuration"
      },
      "updateProposer(address,bool)": {
        "notice": "Updates an address status as a root proposer"
      }
    },
    "version": 1
  },
  "storageLayout": {
    "storage": [
      {
        "astId": 3073,
        "contract": "contracts/protocols/lending/merkleDistributor/main.sol:FluidMerkleDistributor",
        "label": "owner",
        "offset": 0,
        "slot": "0",
        "type": "t_address"
      },
      {
        "astId": 17,
        "contract": "contracts/protocols/lending/merkleDistributor/main.sol:FluidMerkleDistributor",
        "label": "_paused",
        "offset": 20,
        "slot": "0",
        "type": "t_bool"
      },
      {
        "astId": 2992,
        "contract": "contracts/protocols/lending/merkleDistributor/main.sol:FluidMerkleDistributor",
        "label": "name",
        "offset": 0,
        "slot": "1",
        "type": "t_string_storage"
      },
      {
        "astId": 2997,
        "contract": "contracts/protocols/lending/merkleDistributor/main.sol:FluidMerkleDistributor",
        "label": "_proposers",
        "offset": 0,
        "slot": "2",
        "type": "t_mapping(t_address,t_bool)"
      },
      {
        "astId": 3002,
        "contract": "contracts/protocols/lending/merkleDistributor/main.sol:FluidMerkleDistributor",
        "label": "_approvers",
        "offset": 0,
        "slot": "3",
        "type": "t_mapping(t_address,t_bool)"
      },
      {
        "astId": 3006,
        "contract": "contracts/protocols/lending/merkleDistributor/main.sol:FluidMerkleDistributor",
        "label": "_currentMerkleCycle",
        "offset": 0,
        "slot": "4",
        "type": "t_struct(MerkleCycle)2930_storage"
      },
      {
        "astId": 3010,
        "contract": "contracts/protocols/lending/merkleDistributor/main.sol:FluidMerkleDistributor",
        "label": "_pendingMerkleCycle",
        "offset": 0,
        "slot": "7",
        "type": "t_struct(MerkleCycle)2930_storage"
      },
      {
        "astId": 3013,
        "contract": "contracts/protocols/lending/merkleDistributor/main.sol:FluidMerkleDistributor",
        "label": "previousMerkleRoot",
        "offset": 0,
        "slot": "10",
        "type": "t_bytes32"
      },
      {
        "astId": 3020,
        "contract": "contracts/protocols/lending/merkleDistributor/main.sol:FluidMerkleDistributor",
        "label": "claimed",
        "offset": 0,
        "slot": "11",
        "type": "t_mapping(t_address,t_mapping(t_bytes32,t_uint256))"
      },
      {
        "astId": 3025,
        "contract": "contracts/protocols/lending/merkleDistributor/main.sol:FluidMerkleDistributor",
        "label": "rewards",
        "offset": 0,
        "slot": "12",
        "type": "t_array(t_struct(Reward)2941_storage)dyn_storage"
      },
      {
        "astId": 3030,
        "contract": "contracts/protocols/lending/merkleDistributor/main.sol:FluidMerkleDistributor",
        "label": "distributions",
        "offset": 0,
        "slot": "13",
        "type": "t_array(t_struct(Distribution)2954_storage)dyn_storage"
      },
      {
        "astId": 3035,
        "contract": "contracts/protocols/lending/merkleDistributor/main.sol:FluidMerkleDistributor",
        "label": "rewardsDistributor",
        "offset": 0,
        "slot": "14",
        "type": "t_mapping(t_address,t_bool)"
      },
      {
        "astId": 3038,
        "contract": "contracts/protocols/lending/merkleDistributor/main.sol:FluidMerkleDistributor",
        "label": "cyclesPerDistribution",
        "offset": 0,
        "slot": "15",
        "type": "t_uint40"
      },
      {
        "astId": 3041,
        "contract": "contracts/protocols/lending/merkleDistributor/main.sol:FluidMerkleDistributor",
        "label": "blocksPerDistribution",
        "offset": 5,
        "slot": "15",
        "type": "t_uint40"
      },
      {
        "astId": 3044,
        "contract": "contracts/protocols/lending/merkleDistributor/main.sol:FluidMerkleDistributor",
        "label": "startBlockOfNextCycle",
        "offset": 10,
        "slot": "15",
        "type": "t_uint40"
      },
      {
        "astId": 3047,
        "contract": "contracts/protocols/lending/merkleDistributor/main.sol:FluidMerkleDistributor",
        "label": "pullFromDistributor",
        "offset": 15,
        "slot": "15",
        "type": "t_bool"
      }
    ],
    "types": {
      "t_address": {
        "encoding": "inplace",
        "label": "address",
        "numberOfBytes": "20"
      },
      "t_array(t_struct(Distribution)2954_storage)dyn_storage": {
        "base": "t_struct(Distribution)2954_storage",
        "encoding": "dynamic_array",
        "label": "struct Structs.Distribution[]",
        "numberOfBytes": "32"
      },
      "t_array(t_struct(Reward)2941_storage)dyn_storage": {
        "base": "t_struct(Reward)2941_storage",
        "encoding": "dynamic_array",
        "label": "struct Structs.Reward[]",
        "numberOfBytes": "32"
      },
      "t_bool": {
        "encoding": "inplace",
        "label": "bool",
        "numberOfBytes": "1"
      },
      "t_bytes32": {
        "encoding": "inplace",
        "label": "bytes32",
        "numberOfBytes": "32"
      },
      "t_mapping(t_address,t_bool)": {
        "encoding": "mapping",
        "key": "t_address",
        "label": "mapping(address => bool)",
        "numberOfBytes": "32",
        "value": "t_bool"
      },
      "t_mapping(t_address,t_mapping(t_bytes32,t_uint256))": {
        "encoding": "mapping",
        "key": "t_address",
        "label": "mapping(address => mapping(bytes32 => uint256))",
        "numberOfBytes": "32",
        "value": "t_mapping(t_bytes32,t_uint256)"
      },
      "t_mapping(t_bytes32,t_uint256)": {
        "encoding": "mapping",
        "key": "t_bytes32",
        "label": "mapping(bytes32 => uint256)",
        "numberOfBytes": "32",
        "value": "t_uint256"
      },
      "t_string_storage": {
        "encoding": "bytes",
        "label": "string",
        "numberOfBytes": "32"
      },
      "t_struct(Distribution)2954_storage": {
        "encoding": "inplace",
        "label": "struct Structs.Distribution",
        "members": [
          {
            "astId": 2943,
            "contract": "contracts/protocols/lending/merkleDistributor/main.sol:FluidMerkleDistributor",
            "label": "amount",
            "offset": 0,
            "slot": "0",
            "type": "t_uint256"
          },
          {
            "astId": 2945,
            "contract": "contracts/protocols/lending/merkleDistributor/main.sol:FluidMerkleDistributor",
            "label": "epoch",
            "offset": 0,
            "slot": "1",
            "type": "t_uint40"
          },
          {
            "astId": 2947,
            "contract": "contracts/protocols/lending/merkleDistributor/main.sol:FluidMerkleDistributor",
            "label": "startCycle",
            "offset": 5,
            "slot": "1",
            "type": "t_uint40"
          },
          {
            "astId": 2949,
            "contract": "contracts/protocols/lending/merkleDistributor/main.sol:FluidMerkleDistributor",
            "label": "endCycle",
            "offset": 10,
            "slot": "1",
            "type": "t_uint40"
          },
          {
            "astId": 2951,
            "contract": "contracts/protocols/lending/merkleDistributor/main.sol:FluidMerkleDistributor",
            "label": "registrationBlock",
            "offset": 15,
            "slot": "1",
            "type": "t_uint40"
          },
          {
            "astId": 2953,
            "contract": "contracts/protocols/lending/merkleDistributor/main.sol:FluidMerkleDistributor",
            "label": "registrationTimestamp",
            "offset": 20,
            "slot": "1",
            "type": "t_uint40"
          }
        ],
        "numberOfBytes": "64"
      },
      "t_struct(MerkleCycle)2930_storage": {
        "encoding": "inplace",
        "label": "struct Structs.MerkleCycle",
        "members": [
          {
            "astId": 2917,
            "contract": "contracts/protocols/lending/merkleDistributor/main.sol:FluidMerkleDistributor",
            "label": "merkleRoot",
            "offset": 0,
            "slot": "0",
            "type": "t_bytes32"
          },
          {
            "astId": 2919,
            "contract": "contracts/protocols/lending/merkleDistributor/main.sol:FluidMerkleDistributor",
            "label": "merkleContentHash",
            "offset": 0,
            "slot": "1",
            "type": "t_bytes32"
          },
          {
            "astId": 2921,
            "contract": "contracts/protocols/lending/merkleDistributor/main.sol:FluidMerkleDistributor",
            "label": "cycle",
            "offset": 0,
            "slot": "2",
            "type": "t_uint40"
          },
          {
            "astId": 2923,
            "contract": "contracts/protocols/lending/merkleDistributor/main.sol:FluidMerkleDistributor",
            "label": "timestamp",
            "offset": 5,
            "slot": "2",
            "type": "t_uint40"
          },
          {
            "astId": 2925,
            "contract": "contracts/protocols/lending/merkleDistributor/main.sol:FluidMerkleDistributor",
            "label": "publishBlock",
            "offset": 10,
            "slot": "2",
            "type": "t_uint40"
          },
          {
            "astId": 2927,
            "contract": "contracts/protocols/lending/merkleDistributor/main.sol:FluidMerkleDistributor",
            "label": "startBlock",
            "offset": 15,
            "slot": "2",
            "type": "t_uint40"
          },
          {
            "astId": 2929,
            "contract": "contracts/protocols/lending/merkleDistributor/main.sol:FluidMerkleDistributor",
            "label": "endBlock",
            "offset": 20,
            "slot": "2",
            "type": "t_uint40"
          }
        ],
        "numberOfBytes": "96"
      },
      "t_struct(Reward)2941_storage": {
        "encoding": "inplace",
        "label": "struct Structs.Reward",
        "members": [
          {
            "astId": 2932,
            "contract": "contracts/protocols/lending/merkleDistributor/main.sol:FluidMerkleDistributor",
            "label": "amount",
            "offset": 0,
            "slot": "0",
            "type": "t_uint256"
          },
          {
            "astId": 2934,
            "contract": "contracts/protocols/lending/merkleDistributor/main.sol:FluidMerkleDistributor",
            "label": "cycle",
            "offset": 0,
            "slot": "1",
            "type": "t_uint40"
          },
          {
            "astId": 2936,
            "contract": "contracts/protocols/lending/merkleDistributor/main.sol:FluidMerkleDistributor",
            "label": "startBlock",
            "offset": 5,
            "slot": "1",
            "type": "t_uint40"
          },
          {
            "astId": 2938,
            "contract": "contracts/protocols/lending/merkleDistributor/main.sol:FluidMerkleDistributor",
            "label": "endBlock",
            "offset": 10,
            "slot": "1",
            "type": "t_uint40"
          },
          {
            "astId": 2940,
            "contract": "contracts/protocols/lending/merkleDistributor/main.sol:FluidMerkleDistributor",
            "label": "epoch",
            "offset": 15,
            "slot": "1",
            "type": "t_uint40"
          }
        ],
        "numberOfBytes": "64"
      },
      "t_uint256": {
        "encoding": "inplace",
        "label": "uint256",
        "numberOfBytes": "32"
      },
      "t_uint40": {
        "encoding": "inplace",
        "label": "uint40",
        "numberOfBytes": "5"
      }
    }
  }
}