{
  "address": "0x82e4c5Bac88207235DD939b97D8F8CD120A4DA5a",
  "abi": [
    {
      "inputs": [
        {
          "internalType": "address",
          "name": "auth_",
          "type": "address"
        },
        {
          "internalType": "address",
          "name": "liquidity_",
          "type": "address"
        },
        {
          "internalType": "address",
          "name": "deployerContract_",
          "type": "address"
        }
      ],
      "stateMutability": "nonpayable",
      "type": "constructor"
    },
    {
      "inputs": [
        {
          "internalType": "bytes32",
          "name": "dexId",
          "type": "bytes32"
        },
        {
          "internalType": "uint256",
          "name": "token0AdjustedSupply",
          "type": "uint256"
        },
        {
          "internalType": "uint256",
          "name": "token1AdjustedSupply",
          "type": "uint256"
        }
      ],
      "name": "AdjustedSupplyOverflow",
      "type": "error"
    },
    {
      "inputs": [
        {
          "internalType": "bytes32",
          "name": "dexId",
          "type": "bytes32"
        }
      ],
      "name": "DexNotInitialized",
      "type": "error"
    },
    {
      "inputs": [],
      "name": "ExcessiveSwapAmount",
      "type": "error"
    },
    {
      "inputs": [
        {
          "internalType": "uint256",
          "name": "errorId_",
          "type": "uint256"
        }
      ],
      "name": "FluidSafeTransferError",
      "type": "error"
    },
    {
      "inputs": [],
      "name": "InsufficientERC20",
      "type": "error"
    },
    {
      "inputs": [],
      "name": "InsufficientNativeToken",
      "type": "error"
    },
    {
      "inputs": [],
      "name": "InvalidMsgValue",
      "type": "error"
    },
    {
      "inputs": [],
      "name": "InvalidSwapAmounts",
      "type": "error"
    },
    {
      "inputs": [],
      "name": "TokenReservesTooLow",
      "type": "error"
    },
    {
      "inputs": [],
      "name": "ZeroAddress",
      "type": "error"
    },
    {
      "anonymous": false,
      "inputs": [
        {
          "indexed": false,
          "internalType": "bytes32",
          "name": "dexId",
          "type": "bytes32"
        },
        {
          "indexed": false,
          "internalType": "uint256",
          "name": "swapData",
          "type": "uint256"
        }
      ],
      "name": "LogSwap",
      "type": "event"
    },
    {
      "stateMutability": "payable",
      "type": "fallback"
    },
    {
      "inputs": [
        {
          "internalType": "bytes32",
          "name": "slot_",
          "type": "bytes32"
        }
      ],
      "name": "readFromStorage",
      "outputs": [
        {
          "internalType": "uint256",
          "name": "result_",
          "type": "uint256"
        }
      ],
      "stateMutability": "view",
      "type": "function"
    },
    {
      "inputs": [
        {
          "internalType": "address[]",
          "name": "path_",
          "type": "address[]"
        },
        {
          "components": [
            {
              "internalType": "address",
              "name": "token0",
              "type": "address"
            },
            {
              "internalType": "address",
              "name": "token1",
              "type": "address"
            },
            {
              "internalType": "bytes32",
              "name": "salt",
              "type": "bytes32"
            }
          ],
          "internalType": "struct DexKey[]",
          "name": "dexKeys_",
          "type": "tuple[]"
        },
        {
          "internalType": "int256",
          "name": "amountSpecified_",
          "type": "int256"
        },
        {
          "internalType": "uint256",
          "name": "amountLimit_",
          "type": "uint256"
        },
        {
          "internalType": "address",
          "name": "to_",
          "type": "address"
        },
        {
          "internalType": "bool",
          "name": "isCallback_",
          "type": "bool"
        },
        {
          "internalType": "bytes",
          "name": "callbackData_",
          "type": "bytes"
        },
        {
          "internalType": "bytes",
          "name": "extraData_",
          "type": "bytes"
        }
      ],
      "name": "swapMultihop",
      "outputs": [
        {
          "internalType": "uint256",
          "name": "amountUnspecified_",
          "type": "uint256"
        }
      ],
      "stateMutability": "payable",
      "type": "function"
    },
    {
      "inputs": [
        {
          "components": [
            {
              "internalType": "address",
              "name": "token0",
              "type": "address"
            },
            {
              "internalType": "address",
              "name": "token1",
              "type": "address"
            },
            {
              "internalType": "bytes32",
              "name": "salt",
              "type": "bytes32"
            }
          ],
          "internalType": "struct DexKey",
          "name": "dexKey_",
          "type": "tuple"
        },
        {
          "internalType": "bool",
          "name": "swap0To1_",
          "type": "bool"
        },
        {
          "internalType": "int256",
          "name": "amountSpecified_",
          "type": "int256"
        },
        {
          "internalType": "uint256",
          "name": "amountLimit_",
          "type": "uint256"
        },
        {
          "internalType": "address",
          "name": "to_",
          "type": "address"
        },
        {
          "internalType": "bool",
          "name": "isCallback_",
          "type": "bool"
        },
        {
          "internalType": "bytes",
          "name": "callbackData_",
          "type": "bytes"
        },
        {
          "internalType": "bytes",
          "name": "extraData_",
          "type": "bytes"
        }
      ],
      "name": "swapSingle",
      "outputs": [
        {
          "internalType": "uint256",
          "name": "amountUnspecified_",
          "type": "uint256"
        }
      ],
      "stateMutability": "payable",
      "type": "function"
    },
    {
      "stateMutability": "payable",
      "type": "receive"
    }
  ],
  "transactionHash": "0xcf78a936e28fbc7f6c4b14a40801a5ab26f9970303141a3947f1486944c7fc55",
  "args": [
    "0x4F6F977aCDD1177DCD81aB83074855EcB9C2D49e",
    "0x52Aa899454998Be5b000Ad077a46Bbe360F4e497",
    "0x4EC7b668BAF70d4A4b0FC7941a7708A07b6d45Be"
  ],
  "numDeployments": 1,
  "solcInputHash": "3ba7edb9f7e9f389c1c6909f6f8c9c8f",
  "bytecode": "0x60c060405234801561000f575f5ffd5b5060405161348138038061348183398101604081905261002e91610074565b6001600160a01b039283165f908152602081905260409020600190559082166080521660a0526100b4565b80516001600160a01b038116811461006f575f5ffd5b919050565b5f5f5f60608486031215610086575f5ffd5b61008f84610059565b925061009d60208501610059565b91506100ab60408501610059565b90509250925092565b60805160a0516133a56100dc5f395f818161199601526126c501525f6101b901526133a55ff3fe608060405260043610610037575f3560e01c80637fc9d4ad146100c2578063b592f8a6146100e7578063b5c736e4146100fa5761003e565b3661003e57005b5f36606061004a610118565b335f9081526020819052604090205460011480159061008657503361006d610169565b73ffffffffffffffffffffffffffffffffffffffff1614155b1561008f575f5ffd5b5f8061009d84860186612c4b565b915091506100ab828261023c565b925050506100b761027e565b915050805190602001f35b6100d56100d0366004612db2565b6102a3565b60405190815260200160405180910390f35b6100d56100f5366004612f03565b610455565b348015610105575f5ffd5b506100d561011436600461300a565b5490565b7fb9cde754d19acfff2b3ccabc66f256d3563a0bc5805da4205f01a9bda38a2df75c15610143575f5ffd5b60017fb9cde754d19acfff2b3ccabc66f256d3563a0bc5805da4205f01a9bda38a2df75d565b6040517fb5c736e40000000000000000000000000000000000000000000000000000000081527fb53127684a568b3173ae13b9f8a6016e243e63b6e8ee1178d6a717850b5d610360048201525f907f000000000000000000000000000000000000000000000000000000000000000073ffffffffffffffffffffffffffffffffffffffff169063b5c736e490602401602060405180830381865afa158015610213573d5f5f3e3d5ffd5b505050506040513d601f19601f820116820180604052508101906102379190613021565b905090565b60605f5f835160208501865af43d6040519250601f19601f6020830101168301604052808352805f602085013e8161027657805f5f3e805ffd5b505092915050565b5f7fb9cde754d19acfff2b3ccabc66f256d3563a0bc5805da4205f01a9bda38a2df75d565b5f6102ac610118565b5f89131561039c576102bf8b8b8b610aa8565b90508781116102cc575f5ffd5b81156103475761034260018c8c8c8588886040516020016102f2969594939291906130d6565b604080517fffffffffffffffffffffffffffffffffffffffffffffffffffffffffffffffe08184030181529082905261032e9291602001613116565b604051602081830303815290604052610fbe565b61043f565b891561037b5761034261035d60208d018d613172565b8a8d60200160208101906103719190613172565b848b8b8b8b611045565b61034261038e60408d0160208e01613172565b8a61037160208f018f613172565b6103af8b8b6103aa8c6131c1565b611444565b90508781106103bc575f5ffd5b81156103e25761034260018c8c8c8588886040516020016102f2969594939291906130d6565b891561041e576103426103f860208d018d613172565b828d602001602081019061040c9190613172565b6104158d6131c1565b8b8b8b8b611045565b61043f61043160408d0160208e01613172565b8261040c60208f018f613172565b61044761027e565b9a9950505050505050505050565b5f61045e610118565b5f8a900361046a575f5ffd5b8961047660018e6131f7565b1461047f575f5ffd5b5f8913156107745750875f5b8a8110156106e8575f8c8c838181106104a6576104a661320a565b6104bc9260206060909202019081019150613172565b73ffffffffffffffffffffffffffffffffffffffff168f8f848181106104e4576104e461320a565b90506020020160208101906104f99190613172565b73ffffffffffffffffffffffffffffffffffffffff1614801561059957508c8c838181106105295761052961320a565b90506060020160200160208101906105419190613172565b73ffffffffffffffffffffffffffffffffffffffff168f8f8460010181811061056c5761056c61320a565b90506020020160208101906105819190613172565b73ffffffffffffffffffffffffffffffffffffffff16145b156105a6575060016106bb565b8c8c838181106105b8576105b861320a565b90506060020160200160208101906105d09190613172565b73ffffffffffffffffffffffffffffffffffffffff168f8f848181106105f8576105f861320a565b905060200201602081019061060d9190613172565b73ffffffffffffffffffffffffffffffffffffffff161480156106ab57508c8c8381811061063d5761063d61320a565b6106539260206060909202019081019150613172565b73ffffffffffffffffffffffffffffffffffffffff168f8f8460010181811061067e5761067e61320a565b90506020020160208101906106939190613172565b73ffffffffffffffffffffffffffffffffffffffff16145b156106b757505f6106bb565b5f5ffd5b6106dd8d8d848181106106d0576106d061320a565b9050606002018285610aa8565b92505060010161048b565b508781116106f4575f5ffd5b81156107225761071d5f8e8e8e8e8e878a8a6040516020016102f2989796959493929190613237565b610a90565b61071d8d8d5f8181106107375761073761320a565b905060200201602081019061074c9190613172565b8a8f8f8e81811061075f5761075f61320a565b90506020020160208101906103719190613172565b61077d896131c1565b9050895b8015610a09575f8c8c6001840381811061079d5761079d61320a565b6107b39260206060909202019081019150613172565b73ffffffffffffffffffffffffffffffffffffffff168f8f600185038181106107de576107de61320a565b90506020020160208101906107f39190613172565b73ffffffffffffffffffffffffffffffffffffffff1614801561089357508c8c600184038181106108265761082661320a565b905060600201602001602081019061083e9190613172565b73ffffffffffffffffffffffffffffffffffffffff168f8f848181106108665761086661320a565b905060200201602081019061087b9190613172565b73ffffffffffffffffffffffffffffffffffffffff16145b156108a0575060016109b3565b8c8c600184038181106108b5576108b561320a565b90506060020160200160208101906108cd9190613172565b73ffffffffffffffffffffffffffffffffffffffff168f8f600185038181106108f8576108f861320a565b905060200201602081019061090d9190613172565b73ffffffffffffffffffffffffffffffffffffffff161480156109ab57508c8c600184038181106109405761094061320a565b6109569260206060909202019081019150613172565b73ffffffffffffffffffffffffffffffffffffffff168f8f8481811061097e5761097e61320a565b90506020020160208101906109939190613172565b73ffffffffffffffffffffffffffffffffffffffff16145b156106b757505f5b6109df8d8d6109c36001866131f7565b8181106109d2576109d261320a565b9050606002018285611444565b9250507fffffffffffffffffffffffffffffffffffffffffffffffffffffffffffffffff01610781565b50878110610a15575f5ffd5b8115610a3e5761071d5f8e8e8e8e8e878a8a6040516020016102f2989796959493929190613237565b610a908d8d5f818110610a5357610a5361320a565b9050602002016020810190610a689190613172565b828f8f8e818110610a7b57610a7b61320a565b905060200201602081019061040c9190613172565b610a9861027e565b9c9b505050505050505050505050565b5f5f84604051602001610abb91906132f5565b604080517fffffffffffffffffffffffffffffffffffffffffffffffffffffffffffffffe081840301815291815281516020928301205f81815260019093529082205490925090819003610b43576040517f72294811000000000000000000000000000000000000000000000000000000008152600481018390526024015b60405180910390fd5b608881901c670fffffffffffffff1660c482901c5f8080610b678b87898888611952565b9250925092508915610c44575f80607e88901c601f166009811115610ba35760098103600a0a8c81610b9b57610b9b613303565b049250610baf565b80600903600a0a8c0292505b50610bbb828c86611d24565b620f4240611fff8916830204610bd48184038686611dd5565b91506064600d8a901c607f168202048303979097019650610bf581876131f7565b9550610c02878787611df2565b608388901c601f166009811115610c235760098103600a0a82029a50610c3c565b80600903600a0a8281610c3857610c38613303565b049a505b505050610d11565b5f80608388901c601f166009811115610c745760098103600a0a8c81610c6c57610c6c613303565b049250610c80565b80600903600a0a8c0292505b50610c8c828c85611d24565b620f4240611fff8916830204610ca58184038587611dd5565b91506064600d8a901c607f168202048303969096019550610cc681886131f7565b9650610cd3878787611e3d565b607e88901c601f166009811115610cf45760098103600a0a82029a50610d0d565b80600903600a0a8281610d0957610d09613303565b049a505b5050505b601486901c6003168015610e67575f601f607e89901c81169060838a901c168d15610dc7575f5f6009841115610d5e5760098403600a0a8f81610d5657610d56613303565b049150610d6a565b83600903600a0a8f0291505b6009831115610d905760098303600a0a8e81610d8857610d88613303565b049050610d9c565b82600903600a0a8e0290505b8188016b033b2e3c9fd0803ce80000008289030281610dbd57610dbd613303565b0494505050610e54565b5f5f6009831115610def5760098303600a0a8f81610de757610de7613303565b049150610dfb565b82600903600a0a8f0291505b6009841115610e215760098403600a0a8e81610e1957610e19613303565b049050610e2d565b83600903600a0a8e0290505b8088036b033b2e3c9fd0803ce80000008389010281610e4e57610e4e613303565b04945050505b5050610e63888a848489611e98565b9150505b6001811180610e7d57506001601688901c166001145b15610eb8575f88815260026020526040902080547ffffffffffffffffffffffffffffffffffffffffffffffffffffffffe0000000016421790555b50670fffffffffffffff851180610ed65750670fffffffffffffff84115b15610f1e576040517f9e0db878000000000000000000000000000000000000000000000000000000008152600481018890526024810186905260448101859052606401610b3a565b5f8781526001602081905260408220805470ffffffffffffffffffffffffffffffffff16608889901b1760c488901b1790557fa2babd1c089bb9a4c9c6dc3859310edeabaeffa193c671b52a0c806d4bfa0d33918991603d8c901b91908d901b908e610f8b576001610f8d565b5f5b901b1717604051610fa8929190918252602082015260400190565b60405180910390a1505050505050509392505050565b5f610fe77f7e8134afb5ed35d36cb65e24b9a4712a52bb77d952806c1acf50970d2107797f5490565b905073ffffffffffffffffffffffffffffffffffffffff8116611036576040517fd92e233d00000000000000000000000000000000000000000000000000000000815260040160405180910390fd5b611040818361023c565b505050565b73ffffffffffffffffffffffffffffffffffffffff8416611064573393505b7fffffffffffffffffffffffff111111111111111111111111111111111111111273ffffffffffffffffffffffffffffffffffffffff8716016110b0576110ab848661204d565b6110bb565b6110bb868587612096565b7fffffffffffffffffffffffff111111111111111111111111111111111111111273ffffffffffffffffffffffffffffffffffffffff89160161121e57828015611103575034155b156111c4576040517fb6a545480000000000000000000000000000000000000000000000000000000081524790339063b6a545489061114c908c908c9088908890600401613330565b5f604051808303815f87803b158015611163575f5ffd5b505af1158015611175573d5f5f3e3d5ffd5b5050505087814761118691906131f7565b10156111be576040517f64403ed200000000000000000000000000000000000000000000000000000000815260040160405180910390fd5b5061143a565b863410156111fe576040517f64403ed200000000000000000000000000000000000000000000000000000000815260040160405180910390fd5b86341115611219576112193361121489346131f7565b61204d565b61143a565b3415611256576040517f1841b4e100000000000000000000000000000000000000000000000000000000815260040160405180910390fd5b821561142e576040517f70a082310000000000000000000000000000000000000000000000000000000081523060048201525f9073ffffffffffffffffffffffffffffffffffffffff8a16906370a0823190602401602060405180830381865afa1580156112c6573d5f5f3e3d5ffd5b505050506040513d601f19601f820116820180604052508101906112ea9190613021565b6040517fb6a54548000000000000000000000000000000000000000000000000000000008152909150339063b6a545489061132f908c908c9088908890600401613330565b5f604051808303815f87803b158015611346575f5ffd5b505af1158015611358573d5f5f3e3d5ffd5b50506040517f70a082310000000000000000000000000000000000000000000000000000000081523060048201528a925083915073ffffffffffffffffffffffffffffffffffffffff8c16906370a0823190602401602060405180830381865afa1580156113c8573d5f5f3e3d5ffd5b505050506040513d601f19601f820116820180604052508101906113ec9190613021565b6113f691906131f7565b10156111be576040517f5d052a9300000000000000000000000000000000000000000000000000000000815260040160405180910390fd5b61143a8833308a61213c565b5050505050505050565b5f5f8460405160200161145791906132f5565b604080517fffffffffffffffffffffffffffffffffffffffffffffffffffffffffffffffe081840301815291815281516020928301205f818152600190935290822054909250908190036114da576040517f7229481100000000000000000000000000000000000000000000000000000000815260048101839052602401610b3a565b608881901c670fffffffffffffff1660c482901c5f80806114fe8b87898888611952565b92509250925089156115f3575f80608388901c601f16600981111561153a5760098103600a0a8c8161153257611532613303565b049150611546565b80600903600a0a8c0291505b50611552818c85611d24565b61155d8185856121ff565b91505f82611fff8a16620f42409081039082028161157d5761157d613303565b04039283019290506064600d8a901c607f1682020483039790970196506115a481876131f7565b95506115b1878787611df2565b607e88901c601f1660098111156115d25760098103600a0a83029a506115eb565b80600903600a0a83816115e7576115e7613303565b049a505b5050506116d8565b5f80607e88901c601f1660098111156116235760098103600a0a8c8161161b5761161b613303565b04915061162f565b80600903600a0a8c0291505b5061163b818c86611d24565b6116468184866121ff565b91505f82611fff8a16620f42409081039082028161166657611666613303565b04039283019290506064600d8a901c607f16820204830396909601955061168d81886131f7565b965061169a878787611e3d565b608388901c601f1660098111156116bb5760098103600a0a83029a506116d4565b80600903600a0a83816116d0576116d0613303565b049a505b5050505b601486901c600316801561182e575f601f607e89901c81169060838a901c168d1561178e575f5f60098411156117255760098403600a0a8e8161171d5761171d613303565b049150611731565b83600903600a0a8e0291505b60098311156117575760098303600a0a8f8161174f5761174f613303565b049050611763565b82600903600a0a8f0290505b8188016b033b2e3c9fd0803ce8000000828903028161178457611784613303565b049450505061181b565b5f5f60098311156117b65760098303600a0a8e816117ae576117ae613303565b0491506117c2565b82600903600a0a8e0291505b60098411156117e85760098403600a0a8f816117e0576117e0613303565b0490506117f4565b83600903600a0a8f0290505b8088036b033b2e3c9fd0803ce8000000838901028161181557611815613303565b04945050505b505061182a888a848489611e98565b9150505b600181118061184457506001601688901c166001145b1561187f575f88815260026020526040902080547ffffffffffffffffffffffffffffffffffffffffffffffffffffffffe0000000016421790555b50670fffffffffffffff85118061189d5750670fffffffffffffff84115b156118e5576040517f9e0db878000000000000000000000000000000000000000000000000000000008152600481018890526024810186905260448101859052606401610b3a565b5f8781526001602081905260408220805470ffffffffffffffffffffffffffffffffff16608889901b1760c488901b1790557fa2babd1c089bb9a4c9c6dc3859310edeabaeffa193c671b52a0c806d4bfa0d33918991603d8d901b91908c901b908e610f8b576001610f8d565b5f5f5f6001601688901c165f03611a8d576207ffff603f88901c169250825f036119915763ffffffff601f88901c1660ff601789901c161b9250611a9b565b6119bb7f000000000000000000000000000000000000000000000000000000000000000084612213565b73ffffffffffffffffffffffffffffffffffffffff166302c59a686119e360208b018b613172565b6119f360408c0160208d01613172565b6040517fffffffff0000000000000000000000000000000000000000000000000000000060e085901b16815273ffffffffffffffffffffffffffffffffffffffff9283166004820152911660248201526044016020604051808303815f875af1158015611a62573d5f5f3e3d5ffd5b505050506040513d601f19601f82011682018060405250810190611a869190613021565b9250611a9b565b611a9888888861267c565b92505b613fff605388901c811690606189901c16600160528a901c81169003611acf57611ac782828b8b612907565b9a5090925090505b5f5f83620186a003620186a0880281611aea57611aea613303565b04915050620186a0828103870204600360148c901c165f6001821115611c315781600203611b6557505f8b815260026020526040902054602181901c62ffffff166401ffffffff8216420381811015611b5a5781818c88030281611b5057611b50613303565b048b019a50611b5e565b859a505b5050611bbc565b81600303611bbc57505f8b815260026020526040902054602181901c62ffffff166401ffffffff8216420381811015611bb5578181868d030281611bab57611bab613303565b048b039a50611bb9565b849a505b50505b8015611c3157620fffff604182901c1660ff603983901c161b915081891115611be757819850611c08565b620fffff605d82901c1660ff605583901c161b915081891015611c08578198505b85620186a003620186a08a0281611c2157611c21613303565b049350620186a08581038a020492505b6f4b3b4ca85a86c47a098a224000000000841015611c5b57611c548385026129d0565b9150611c87565b611c7a670de0b6b3a76400008404670de0b6b3a76400008604026129d0565b670de0b6b3a76400000291505b6b033b2e3c9fd0803ce8000000821015611cb157611ca782858d8d612a82565b9098509650611d0e565b611d0982760a70c3c40a64e6c51999090b65f67d924000000000000081611cda57611cda613303565b0484760a70c3c40a64e6c51999090b65f67d924000000000000081611d0157611d01613303565b048c8e612a82565b985096505b50969c959098019a505050930195509350505050565b612710831080611d3b5750670fffffffffffffff83115b80611d47575061271082105b80611d6157506fffffffffffffffffffffffffffffffff82115b15611d98576040517fdc01ad3300000000000000000000000000000000000000000000000000000000815260040160405180910390fd5b60028104831115611040576040517f9df50ff000000000000000000000000000000000000000000000000000000000815260040160405180910390fd5b5f83830182850281611de957611de9613303565b04949350505050565b6c7e37be2022c0914b268000000083820204821015611040576040517fbeb0d9c000000000000000000000000000000000000000000000000000000000815260040160405180910390fd5b61271081026b033b2e3c9fd0803ce8000000830281611e5e57611e5e613303565b04831015611040576040517fbeb0d9c000000000000000000000000000000000000000000000000000000000815260040160405180910390fd5b5f613fff605387901c811690606188901c166001605289901c81169003611ecd57611ec582828a8a612907565b995090925090505b81620186a003620186a0850281611ee657611ee6613303565b049150620186a08181038502049050607f607089901c81169060778a901c166001606f8b901c81169003611f2557611f1f82828b612afb565b90925090505b6064918203868503028290048601919081038387030204850381871115611f985787600214611f93575050505f86815260016020526040902080547fffffffffffffffffffffffffffffffffffffffffffffffffffffffffffcfffff16622000001790555060029050612044565b61203c565b80871015611fed5787600314611f93575050505f86815260016020526040902080547fffffffffffffffffffffffffffffffffffffffffffffffffffffffffffcfffff16623000001790555060039050612044565b8760011461203c575050505f86815260016020819052604090912080547fffffffffffffffffffffffffffffffffffffffffffffffffffffffffffcfffff166210000017905591506120449050565b879450505050505b95945050505050565b5f5f5f5f5f8587614e20f1905080611040576040517fdee51a8a0000000000000000000000000000000000000000000000000000000081526201155a6004820152602401610b3a565b5f6040517fa9059cbb00000000000000000000000000000000000000000000000000000000815273ffffffffffffffffffffffffffffffffffffffff8416600482015282602482015260205f6044835f895af13d15601f3d1160015f511416171691505080612136576040517fdee51a8a0000000000000000000000000000000000000000000000000000000081526201155a6004820152602401610b3a565b50505050565b5f6040517f23b872dd00000000000000000000000000000000000000000000000000000000815273ffffffffffffffffffffffffffffffffffffffff8516600482015273ffffffffffffffffffffffffffffffffffffffff8416602482015282604482015260205f6064835f8a5af13d15601f3d1160015f5114161716915050806121f8576040517fdee51a8a000000000000000000000000000000000000000000000000000000008152620115596004820152602401610b3a565b5050505050565b5f83820383850281611de957611de9613303565b5f6060825f03612226575f915050612676565b607f83116122ef576040517fd60000000000000000000000000000000000000000000000000000000000000060208201527f940000000000000000000000000000000000000000000000000000000000000060218201527fffffffffffffffffffffffffffffffffffffffff000000000000000000000000606086901b16602282015260f884901b7fff000000000000000000000000000000000000000000000000000000000000001660368201526037015b604051602081830303815290604052905061266b565b60ff83116123cc576040517fd70000000000000000000000000000000000000000000000000000000000000060208201527f940000000000000000000000000000000000000000000000000000000000000060218201527fffffffffffffffffffffffffffffffffffffffff000000000000000000000000606086901b1660228201527f8100000000000000000000000000000000000000000000000000000000000000603682015260f884901b7fff000000000000000000000000000000000000000000000000000000000000001660378201526038016122d9565b61ffff83116124aa576040517fd80000000000000000000000000000000000000000000000000000000000000060208201527f940000000000000000000000000000000000000000000000000000000000000060218201527fffffffffffffffffffffffffffffffffffffffff000000000000000000000000606086901b1660228201527f820000000000000000000000000000000000000000000000000000000000000060368201527fffff00000000000000000000000000000000000000000000000000000000000060f085901b1660378201526039016122d9565b62ffffff8311612589576040517fd90000000000000000000000000000000000000000000000000000000000000060208201527f940000000000000000000000000000000000000000000000000000000000000060218201527fffffffffffffffffffffffffffffffffffffffff000000000000000000000000606086901b1660228201527f830000000000000000000000000000000000000000000000000000000000000060368201527fffffff000000000000000000000000000000000000000000000000000000000060e885901b166037820152603a016122d9565b6040517fda0000000000000000000000000000000000000000000000000000000000000060208201527f940000000000000000000000000000000000000000000000000000000000000060218201527fffffffffffffffffffffffffffffffffffffffff000000000000000000000000606086901b1660228201527f840000000000000000000000000000000000000000000000000000000000000060368201527fffffffff0000000000000000000000000000000000000000000000000000000060e085901b166037820152603b0160405160208183030381529060405290505b805160209091012090505b92915050565b5f81815260026020526040812054601f84901c63ffffffff16601785901c60ff161b906401ffffffff609982901c81169082168181116126bc57816126be565b805b90506126f37f00000000000000000000000000000000000000000000000000000000000000006207ffff603f8a901c16612213565b73ffffffffffffffffffffffffffffffffffffffff166302c59a6861271b60208b018b613172565b61272b60408c0160208d01613172565b6040517fffffffff0000000000000000000000000000000000000000000000000000000060e085901b16815273ffffffffffffffffffffffffffffffffffffffff9283166004820152911660248201526044016020604051808303815f875af115801561279a573d5f5f3e3d5ffd5b505050506040513d601f19601f820116820180604052508101906127be9190613021565b94505f620f4240620fffff608586901c1602824203620fffff607187901c16870202816127ed576127ed613303565b0490508486111561287457938401938486111561280c578495506128fb565b5f87815260026020908152604080832080547ffffffffffffffffffc000000000000000001ffffffffffffffffffffffffffff1690556001909152902080547fffffffffffffffffffffffffffffffffffffffffffffffffffffffffffbfffff1690556128fb565b808511612881575f612885565b8085035b945084861015612897578495506128fb565b5f87815260026020908152604080832080547ffffffffffffffffffc000000000000000001ffffffffffffffffffffffffffff1690556001909152902080547fffffffffffffffffffffffffffffffffffffffffffffffffffffffffffbfffff1690555b50505050509392505050565b5f8181526003602052604081205481908190601c81901c620fffff16603082901c6401ffffffff1683428284011015612991575050505f8581526003602090815260408083208390556001909152902080547ffffffffffffffffffffffffffffffffffffffffffffbffffffffffffffffffff169081905595508793508692508591506129c69050565b50428190036129a68b613fff86168386612bb3565b6129ba8b613fff600e88901c168487612bb3565b8a965096509650505050505b9450945094915050565b60b5817101000000000000000000000000000000000081106129f75760409190911b9060801c5b69010000000000000000008110612a135760209190911b9060401c5b650100000000008110612a2b5760109190911b9060201c5b63010000008110612a415760089190911b9060101c5b62010000010260121c80820401600190811c80830401811c80830401811c80830401811c80830401811c80830401811c80830401901c908190048111900390565b5f8085850381600282028689026b033b2e3c9fd0803ce800000087020181612aac57612aac613303565b049050612adb818202836b033b2e3c9fd0803ce8000000888a020281612ad457612ad4613303565b04016129d0565b01976b033b2e3c9fd0803ce8000000978902979097049695505050505050565b5f818152600460205260408120548190600e81901c620fffff16602282901c6401ffffffff1683428284011015612b7b575050505f8481526004602090815260408083208390556001909152902080547fffffffffffffffffffffffffffffffffffff7fffffffffffffffffffffffffff16905550849150839050612bab565b5042819003612b8f89607f86168386612bb3565b612ba289607f600788901c168487612bb3565b95509550505050505b935093915050565b5f83851115612bd95781838587030281612bcf57612bcf613303565b0484019050612bf2565b81838686030281612bec57612bec613303565b04840390505b949350505050565b73ffffffffffffffffffffffffffffffffffffffff81168114612c1b575f5ffd5b50565b7f4e487b71000000000000000000000000000000000000000000000000000000005f52604160045260245ffd5b5f5f60408385031215612c5c575f5ffd5b8235612c6781612bfa565b9150602083013567ffffffffffffffff811115612c82575f5ffd5b8301601f81018513612c92575f5ffd5b803567ffffffffffffffff811115612cac57612cac612c1e565b6040517fffffffffffffffffffffffffffffffffffffffffffffffffffffffffffffffe0603f7fffffffffffffffffffffffffffffffffffffffffffffffffffffffffffffffe0601f8501160116810181811067ffffffffffffffff82111715612d1857612d18612c1e565b604052818152828201602001871015612d2f575f5ffd5b816020840160208301375f602083830101528093505050509250929050565b80358015158114612d5d575f5ffd5b919050565b8035612d5d81612bfa565b5f5f83601f840112612d7d575f5ffd5b50813567ffffffffffffffff811115612d94575f5ffd5b602083019150836020828501011115612dab575f5ffd5b9250929050565b5f5f5f5f5f5f5f5f5f5f8a8c03610140811215612dcd575f5ffd5b6060811215612dda575f5ffd5b508a9950612dea60608c01612d4e565b985060808b0135975060a08b01359650612e0660c08c01612d62565b9550612e1460e08c01612d4e565b94506101008b013567ffffffffffffffff811115612e30575f5ffd5b612e3c8d828e01612d6d565b9095509350506101208b013567ffffffffffffffff811115612e5c575f5ffd5b612e688d828e01612d6d565b915080935050809150509295989b9194979a5092959850565b5f5f83601f840112612e91575f5ffd5b50813567ffffffffffffffff811115612ea8575f5ffd5b6020830191508360208260051b8501011115612dab575f5ffd5b5f5f83601f840112612ed2575f5ffd5b50813567ffffffffffffffff811115612ee9575f5ffd5b602083019150836020606083028501011115612dab575f5ffd5b5f5f5f5f5f5f5f5f5f5f5f5f6101008d8f031215612f1f575f5ffd5b67ffffffffffffffff8d351115612f34575f5ffd5b612f418e8e358f01612e81565b909c509a5067ffffffffffffffff60208e01351115612f5e575f5ffd5b612f6e8e60208f01358f01612ec2565b909a50985060408d0135975060608d01359650612f8d60808e01612d62565b9550612f9b60a08e01612d4e565b945067ffffffffffffffff60c08e01351115612fb5575f5ffd5b612fc58e60c08f01358f01612d6d565b909450925067ffffffffffffffff60e08e01351115612fe2575f5ffd5b612ff28e60e08f01358f01612d6d565b81935080925050509295989b509295989b509295989b565b5f6020828403121561301a575f5ffd5b5035919050565b5f60208284031215613031575f5ffd5b5051919050565b803561304381612bfa565b73ffffffffffffffffffffffffffffffffffffffff168252602081013561306981612bfa565b73ffffffffffffffffffffffffffffffffffffffff166020830152604090810135910152565b81835281816020850137505f602082840101525f60207fffffffffffffffffffffffffffffffffffffffffffffffffffffffffffffffe0601f840116840101905092915050565b6130e08188613038565b85151560608201528460808201528360a082015260e060c08201525f61310a60e08301848661308f565b98975050505050505050565b8215158152604060208201525f82518060408401528060208501606085015e5f6060828501015260607fffffffffffffffffffffffffffffffffffffffffffffffffffffffffffffffe0601f8301168401019150509392505050565b5f60208284031215613182575f5ffd5b813561318d81612bfa565b9392505050565b7f4e487b71000000000000000000000000000000000000000000000000000000005f52601160045260245ffd5b5f7f800000000000000000000000000000000000000000000000000000000000000082036131f1576131f1613194565b505f0390565b8181038181111561267657612676613194565b7f4e487b71000000000000000000000000000000000000000000000000000000005f52603260045260245ffd5b60a080825281018890525f8960c08301825b8b81101561328657823561325c81612bfa565b73ffffffffffffffffffffffffffffffffffffffff16825260209283019290910190600101613249565b50838103602080860191909152898252019050885f805b8a8110156132c2576132af8484613038565b606093840193929092019160010161329d565b505050604083018790526060830186905282810360808401526132e681858761308f565b9b9a5050505050505050505050565b606081016126768284613038565b7f4e487b71000000000000000000000000000000000000000000000000000000005f52601260045260245ffd5b73ffffffffffffffffffffffffffffffffffffffff85168152836020820152606060408201525f61336560608301848661308f565b969550505050505056fea2646970667358221220602bd8c7361de01d318dbc104d5f5b06fa171e7d62506e7d5b3fba6c65d1741664736f6c634300081d0033",
  "devdoc": {
    "kind": "dev",
    "methods": {
      "swapMultihop(address[],(address,address,bytes32)[],int256,uint256,address,bool,bytes,bytes)": {
        "details": "Uses _swapIn for positive amountSpecified_ (user provides input), _swapOut for negative (user receives output).",
        "params": {
          "amountLimit_": "The minimum/maximum amount for the unspecified side.",
          "amountSpecified_": "The amount to swap (positive for exact input, negative for exact output).",
          "callbackData_": "Data to pass to the callback.",
          "dexKeys_": "The dex pools to swap through.",
          "isCallback_": "Whether to invoke a callback for transfering the input token.",
          "path_": "The path of the swap.",
          "to_": "The recipient address."
        },
        "returns": {
          "amountUnspecified_": "The amount of the unspecified token."
        }
      },
      "swapSingle((address,address,bytes32),bool,int256,uint256,address,bool,bytes,bytes)": {
        "details": "Uses _swapIn for positive amountSpecified_ (user provides input), _swapOut for negative (user receives output).",
        "params": {
          "amountLimit_": "The minimum/maximum amount for the unspecified side.",
          "amountSpecified_": "The amount to swap (positive for exact input, negative for exact output).",
          "dexKey_": "The dex pool to swap through.",
          "swap0To1_": "Whether to swap from token0 to token1 or vice versa.",
          "to_": "The recipient address."
        }
      }
    },
    "title": "FluidDexLite",
    "version": 1
  },
  "userdoc": {
    "kind": "user",
    "methods": {
      "swapMultihop(address[],(address,address,bytes32)[],int256,uint256,address,bool,bytes,bytes)": {
        "notice": "Swap through a path of dex pools"
      },
      "swapSingle((address,address,bytes32),bool,int256,uint256,address,bool,bytes,bytes)": {
        "notice": "Swap through a single dex pool"
      }
    },
    "version": 1
  },
  "storageLayout": {
    "storage": [
      {
        "astId": 7078,
        "contract": "contracts/protocols/dexLite/core/main.sol:FluidDexLite",
        "label": "_isAuth",
        "offset": 0,
        "slot": "0",
        "type": "t_mapping(t_address,t_uint256)"
      },
      {
        "astId": 7083,
        "contract": "contracts/protocols/dexLite/core/main.sol:FluidDexLite",
        "label": "_dexVariables",
        "offset": 0,
        "slot": "1",
        "type": "t_mapping(t_bytes32,t_uint256)"
      },
      {
        "astId": 7088,
        "contract": "contracts/protocols/dexLite/core/main.sol:FluidDexLite",
        "label": "_centerPriceShift",
        "offset": 0,
        "slot": "2",
        "type": "t_mapping(t_bytes32,t_uint256)"
      },
      {
        "astId": 7093,
        "contract": "contracts/protocols/dexLite/core/main.sol:FluidDexLite",
        "label": "_rangeShift",
        "offset": 0,
        "slot": "3",
        "type": "t_mapping(t_bytes32,t_uint256)"
      },
      {
        "astId": 7098,
        "contract": "contracts/protocols/dexLite/core/main.sol:FluidDexLite",
        "label": "_thresholdShift",
        "offset": 0,
        "slot": "4",
        "type": "t_mapping(t_bytes32,t_uint256)"
      }
    ],
    "types": {
      "t_address": {
        "encoding": "inplace",
        "label": "address",
        "numberOfBytes": "20"
      },
      "t_bytes32": {
        "encoding": "inplace",
        "label": "bytes32",
        "numberOfBytes": "32"
      },
      "t_mapping(t_address,t_uint256)": {
        "encoding": "mapping",
        "key": "t_address",
        "label": "mapping(address => uint256)",
        "numberOfBytes": "32",
        "value": "t_uint256"
      },
      "t_mapping(t_bytes32,t_uint256)": {
        "encoding": "mapping",
        "key": "t_bytes32",
        "label": "mapping(bytes32 => uint256)",
        "numberOfBytes": "32",
        "value": "t_uint256"
      },
      "t_uint256": {
        "encoding": "inplace",
        "label": "uint256",
        "numberOfBytes": "32"
      }
    }
  }
}