{
  "address": "0x86118f08B92D083123c45618af6009FcF0D580F4",
  "abi": [
    {
      "inputs": [
        {
          "components": [
            {
              "internalType": "string",
              "name": "infoName",
              "type": "string"
            },
            {
              "internalType": "address",
              "name": "dexPool",
              "type": "address"
            },
            {
              "internalType": "bool",
              "name": "quoteInToken0",
              "type": "bool"
            },
            {
              "internalType": "contract IFluidOracle",
              "name": "colDebtOracle",
              "type": "address"
            },
            {
              "internalType": "bool",
              "name": "colDebtInvert",
              "type": "bool"
            },
            {
              "internalType": "uint256",
              "name": "pegBufferPercent",
              "type": "uint256"
            },
            {
              "components": [
                {
                  "internalType": "address",
                  "name": "reservesConversionOracle",
                  "type": "address"
                },
                {
                  "internalType": "bool",
                  "name": "reservesConversionInvert",
                  "type": "bool"
                },
                {
                  "internalType": "uint256",
                  "name": "reservesConversionPriceMultiplier",
                  "type": "uint256"
                },
                {
                  "internalType": "uint256",
                  "name": "reservesConversionPriceDivisor",
                  "type": "uint256"
                }
              ],
              "internalType": "struct DexConversionPriceFluidOracle.DexConversionPriceFluidOracleParams",
              "name": "reservesConversionParams",
              "type": "tuple"
            },
            {
              "internalType": "uint256",
              "name": "resultMultiplier",
              "type": "uint256"
            },
            {
              "internalType": "uint256",
              "name": "resultDivisor",
              "type": "uint256"
            }
          ],
          "internalType": "struct DexSmartColPegOracle.DexSmartColPegOracleParams",
          "name": "params_",
          "type": "tuple"
        }
      ],
      "stateMutability": "nonpayable",
      "type": "constructor"
    },
    {
      "inputs": [
        {
          "internalType": "uint256",
          "name": "errorId_",
          "type": "uint256"
        }
      ],
      "name": "FluidLiquidityCalcsError",
      "type": "error"
    },
    {
      "inputs": [
        {
          "internalType": "uint256",
          "name": "errorId_",
          "type": "uint256"
        }
      ],
      "name": "FluidOracleError",
      "type": "error"
    },
    {
      "inputs": [],
      "name": "RESERVES_PEG_BUFFER_PERCENT",
      "outputs": [
        {
          "internalType": "uint256",
          "name": "",
          "type": "uint256"
        }
      ],
      "stateMutability": "view",
      "type": "function"
    },
    {
      "inputs": [],
      "name": "dexOracleData",
      "outputs": [
        {
          "internalType": "address",
          "name": "dexPool_",
          "type": "address"
        },
        {
          "internalType": "bool",
          "name": "quoteInToken0_",
          "type": "bool"
        },
        {
          "internalType": "address",
          "name": "liquidity_",
          "type": "address"
        },
        {
          "internalType": "uint256",
          "name": "resultMultiplier_",
          "type": "uint256"
        },
        {
          "internalType": "uint256",
          "name": "resultDivisor_",
          "type": "uint256"
        }
      ],
      "stateMutability": "view",
      "type": "function"
    },
    {
      "inputs": [],
      "name": "dexSmartColSharesRates",
      "outputs": [
        {
          "internalType": "uint256",
          "name": "operate_",
          "type": "uint256"
        },
        {
          "internalType": "uint256",
          "name": "liquidate_",
          "type": "uint256"
        }
      ],
      "stateMutability": "view",
      "type": "function"
    },
    {
      "inputs": [],
      "name": "getDexColDebtOracleData",
      "outputs": [
        {
          "internalType": "address",
          "name": "colDebtOracle_",
          "type": "address"
        },
        {
          "internalType": "bool",
          "name": "colDebtInvert_",
          "type": "bool"
        }
      ],
      "stateMutability": "view",
      "type": "function"
    },
    {
      "inputs": [],
      "name": "getDexConversionPriceFluidOracleData",
      "outputs": [
        {
          "internalType": "address",
          "name": "reservesConversionOracle_",
          "type": "address"
        },
        {
          "internalType": "bool",
          "name": "reservesConversionInvert_",
          "type": "bool"
        },
        {
          "internalType": "uint256",
          "name": "reservesConversionPriceMultiplier_",
          "type": "uint256"
        },
        {
          "internalType": "uint256",
          "name": "reservesConversionPriceDivisor_",
          "type": "uint256"
        }
      ],
      "stateMutability": "view",
      "type": "function"
    },
    {
      "inputs": [],
      "name": "getExchangeRate",
      "outputs": [
        {
          "internalType": "uint256",
          "name": "exchangeRate_",
          "type": "uint256"
        }
      ],
      "stateMutability": "view",
      "type": "function"
    },
    {
      "inputs": [],
      "name": "getExchangeRateLiquidate",
      "outputs": [
        {
          "internalType": "uint256",
          "name": "exchangeRate_",
          "type": "uint256"
        }
      ],
      "stateMutability": "view",
      "type": "function"
    },
    {
      "inputs": [],
      "name": "getExchangeRateOperate",
      "outputs": [
        {
          "internalType": "uint256",
          "name": "exchangeRate_",
          "type": "uint256"
        }
      ],
      "stateMutability": "view",
      "type": "function"
    },
    {
      "inputs": [],
      "name": "infoName",
      "outputs": [
        {
          "internalType": "string",
          "name": "",
          "type": "string"
        }
      ],
      "stateMutability": "view",
      "type": "function"
    }
  ],
  "transactionHash": "0xa79feda16fde33f2d2e33fcbe45030c2f0b485a65a0e6829964e99489f5bcc5c",
  "args": [
    [
      {
        "dexPool": "0x276084527B801e00Db8E4410504F9BaF93f72C67",
        "quoteInToken0": false,
        "infoName": "WSTETH per 1 RSETH/ETH colSh.",
        "pegBufferPercent": 1000,
        "reservesConversionParams": {
          "reservesConversionOracle": "0xBeaEEa6ec8eE5bDfdaA4b4337bb9e120CE6a0330",
          "reservesConversionInvert": false,
          "reservesConversionPriceMultiplier": 1,
          "reservesConversionPriceDivisor": 1
        },
        "resultMultiplier": 1,
        "resultDivisor": 1,
        "colDebtOracle": "0x2F95631D59F564D5e2dD0c028d4DAF3B876D84Fd",
        "colDebtInvert": true
      }
    ]
  ],
  "numDeployments": 1,
  "linkedData": {
    "nonce": "65"
  },
  "bytecode": "0x6103406040523480156200001257600080fd5b5060405162001e0338038062001e038339810160408190526200003591620004e3565b806020015181604001518260a0015182828560c001518660600151876080015184848a600001518b60e001518c6101000151816000146200007757816200007a565b60015b60805280156200008b57806200008e565b60015b60a0525050805160201080620000a357508051155b15620000cb5760405163c82fc46560e01b815261ea6a60048201526024015b60405180910390fd5b6020015160c0526001600160a01b038216620000ff5760405163c82fc46560e01b815261ebdd6004820152602401620000c2565b6001600160a01b03821660e08190528115156101005260408051635bbc8df960e11b815290516000929163b7791bf2916004808301926102409291908290030181865afa15801562000155573d6000803e3d6000fd5b505050506040513d601f19601f820116820180604052508101906200017b919062000684565b610160808201516101a052610180808301516101c05260e0808401516101209081528401516101409081526101008501519093529183015190525160408051631595cbd360e01b815290519293506000926001600160a01b0390921691631595cbd3916004808201926080929091908290030181865afa15801562000204573d6000803e3d6000fd5b505050506040513d601f19601f820116820180604052508101906200022a91906200077a565b80516101e05260208101516102005260408082015161022052606090910151610240526001600160a01b03909616610260525050505015156102805281015115806200027857506060810151155b156200029c5760405163c82fc46560e01b815261ebdd6004820152602401620000c2565b80516001600160a01b03166102a052602081015115156102c05260408101516102e052606001516103005250506000819003620002f15760405163c82fc46560e01b815261ebdd6004820152602401620000c2565b6103205250620007c3915050565b634e487b7160e01b600052604160045260246000fd5b604051608081016001600160401b03811182821017156200033a576200033a620002ff565b60405290565b60405161012081016001600160401b03811182821017156200033a576200033a620002ff565b6040516101c081016001600160401b03811182821017156200033a576200033a620002ff565b604051601f8201601f191681016001600160401b0381118282101715620003b757620003b7620002ff565b604052919050565b600082601f830112620003d157600080fd5b81516001600160401b03811115620003ed57620003ed620002ff565b602062000403601f8301601f191682016200038c565b82815285828487010111156200041857600080fd5b60005b83811015620004385785810183015182820184015282016200041b565b506000928101909101919091529392505050565b6001600160a01b03811681146200046257600080fd5b50565b805162000472816200044c565b919050565b805180151581146200047257600080fd5b6000608082840312156200049b57600080fd5b620004a562000315565b90508151620004b4816200044c565b8152620004c46020830162000477565b6020820152604082015160408201526060820151606082015292915050565b600060208284031215620004f657600080fd5b81516001600160401b03808211156200050e57600080fd5b9083019061018082860312156200052457600080fd5b6200052e62000340565b8251828111156200053e57600080fd5b6200054c87828601620003bf565b8252506200055d6020840162000465565b6020820152620005706040840162000477565b6040820152620005836060840162000465565b6060820152620005966080840162000477565b608082015260a083015160a0820152620005b48660c0850162000488565b60c082015261014083015160e082015261016090920151610100830152509392505050565b600060a08284031215620005ec57600080fd5b60405160a081016001600160401b0381118282101715620006115762000611620002ff565b8060405250809150825162000626816200044c565b8152602083015162000638816200044c565b602082015260408301516200064d816200044c565b6040820152606083015162000662816200044c565b6060820152608083015162000677816200044c565b6080919091015292915050565b600061024082840312156200069857600080fd5b620006a262000366565b82518152620006b46020840162000465565b6020820152620006c76040840162000465565b6040820152620006db8460608501620005d9565b6060820152610100620006f081850162000465565b60808301526101206200070581860162000465565b60a08401526101406200071a81870162000465565b60c08501526101608087015160e086015261018080880151858701526101a0945084880151848701526101c0880151838701526101e088015182870152610200880151818701525050505061022084015181830152508091505092915050565b6000608082840312156200078d57600080fd5b6200079762000315565b825181526020830151602082015260408301516040820152606083015160608201528091505092915050565b60805160a05160c05160e05161010051610120516101405161016051610180516101a0516101c0516101e05161020051610220516102405161026051610280516102a0516102c0516102e051610300516103205161148c620009776000396000818161025f01528181610618015261065c01526000818161010d015281816106eb01526109b201526000818160ec0152818161070c01526109d301526000818160cb01526107d201526000818160aa0152818161069f0152818161072d0152818161096601526109f40152600081816102fb0152610b3e0152600081816102d701528181610a6101528181610aad01528181610b870152610bd3015260008181610e000152610fa0015260008181610ddc0152610fc1015260008181610d770152610ff7015260008181610d53015261101801526000610cb301526000610c65015260005050600050506000610c9201526000610c440152600081816101c40152610cdd0152600081816101a0015261086001526000818161041e01526104e301526000818161022e0152818161038c01526105a5015260008181610208015281816103bf01526105d8015261148c6000f3fe608060405234801561001057600080fd5b50600436106100a35760003560e01c80638e7bfbc011610076578063e6aa216c1161005b578063e6aa216c146102ac578063f3190c89146102b4578063fa9a98e6146102bc57600080fd5b80638e7bfbc01461028f578063abd5f95d1461029757600080fd5b806304741a5a146100a85780632879605814610168578063585eebbf1461018557806364bba8851461025a575b600080fd5b7f00000000000000000000000000000000000000000000000000000000000000007f00000000000000000000000000000000000000000000000000000000000000007f00000000000000000000000000000000000000000000000000000000000000007f00000000000000000000000000000000000000000000000000000000000000006040805173ffffffffffffffffffffffffffffffffffffffff909516855292151560208501529183015260608201526080015b60405180910390f35b610170610327565b6040805192835260208301919091520161015f565b6040805173ffffffffffffffffffffffffffffffffffffffff7f00000000000000000000000000000000000000000000000000000000000000001681527f0000000000000000000000000000000000000000000000000000000000000000151560208201527352aa899454998be5b000ad077a46bbe360f4e497918101919091527f000000000000000000000000000000000000000000000000000000000000000060608201527f0000000000000000000000000000000000000000000000000000000000000000608082015260a00161015f565b6102817f000000000000000000000000000000000000000000000000000000000000000081565b60405190815260200161015f565b610281610367565b61029f61040c565b60405161015f919061125f565b610281610571565b610281610580565b6040805173ffffffffffffffffffffffffffffffffffffffff7f00000000000000000000000000000000000000000000000000000000000000001681527f0000000000000000000000000000000000000000000000000000000000000000151560208201520161015f565b6000806000806103356105ff565b9150915061034b61034461069b565b838361081a565b61035d610356610962565b848461081a565b9350935050509091565b60008060006103746105ff565b91509150600061038561035661069b565b90506103bd7f00000000000000000000000000000000000000000000000000000000000000006b033b2e3c9fd0803ce80000006112fa565b7f00000000000000000000000000000000000000000000000000000000000000006103e6610a5d565b6103f090846112fa565b6103fa91906112fa565b6104049190611346565b935050505090565b606060005b60208110801561047757507f0000000000000000000000000000000000000000000000000000000000000000816020811061044e5761044e611381565b1a60f81b7fff000000000000000000000000000000000000000000000000000000000000001615155b1561048e5780610486816113b0565b915050610411565b60008167ffffffffffffffff8111156104a9576104a96113e8565b6040519080825280601f01601f1916602001820160405280156104d3576020820181803683370190505b50905060005b8281101561056a577f0000000000000000000000000000000000000000000000000000000000000000816020811061051357610513611381565b1a60f81b82828151811061052957610529611381565b60200101907effffffffffffffffffffffffffffffffffffffffffffffffffffffffffffff1916908160001a90535080610562816113b0565b9150506104d9565b5092915050565b600061057b610367565b905090565b600080600061058d6105ff565b91509150600061059e610356610962565b90506105d67f00000000000000000000000000000000000000000000000000000000000000006b033b2e3c9fd0803ce80000006112fa565b7f00000000000000000000000000000000000000000000000000000000000000006103e6610b83565b60008061060a610c3c565b9092509050620f424061063d7f000000000000000000000000000000000000000000000000000000000000000082611417565b61064790846112fa565b6106519190611346565b9150620f42406106817f000000000000000000000000000000000000000000000000000000000000000082611417565b61068b90836112fa565b6106959190611346565b90509091565b60007f000000000000000000000000000000000000000000000000000000000000000073ffffffffffffffffffffffffffffffffffffffff166106e957506b033b2e3c9fd0803ce800000090565b7f00000000000000000000000000000000000000000000000000000000000000007f00000000000000000000000000000000000000000000000000000000000000007f000000000000000000000000000000000000000000000000000000000000000073ffffffffffffffffffffffffffffffffffffffff16638e7bfbc06040518163ffffffff1660e01b8152600401602060405180830381865afa158015610796573d6000803e3d6000fd5b505050506040513d601f19601f820116820180604052508101906107ba919061142a565b6107c491906112fa565b6107ce9190611346565b90507f0000000000000000000000000000000000000000000000000000000000000000156108175761057b81760a70c3c40a64e6c51999090b65f67d9240000000000000611346565b90565b6040517fb5c736e40000000000000000000000000000000000000000000000000000000081526002600482015260009081906fffffffffffffffffffffffffffffffff907f000000000000000000000000000000000000000000000000000000000000000073ffffffffffffffffffffffffffffffffffffffff169063b5c736e490602401602060405180830381865afa1580156108bc573d6000803e3d6000fd5b505050506040513d601f19601f820116820180604052508101906108e0919061142a565b16905080600003610926576040517fc82fc46500000000000000000000000000000000000000000000000000000000815261ebac60048201526024015b60405180910390fd5b6000610933868686610cd9565b90508161094c826b033b2e3c9fd0803ce80000006112fa565b6109569190611346565b925050505b9392505050565b60007f000000000000000000000000000000000000000000000000000000000000000073ffffffffffffffffffffffffffffffffffffffff166109b057506b033b2e3c9fd0803ce800000090565b7f00000000000000000000000000000000000000000000000000000000000000007f00000000000000000000000000000000000000000000000000000000000000007f000000000000000000000000000000000000000000000000000000000000000073ffffffffffffffffffffffffffffffffffffffff1663f3190c896040518163ffffffff1660e01b8152600401602060405180830381865afa158015610796573d6000803e3d6000fd5b60007f000000000000000000000000000000000000000000000000000000000000000073ffffffffffffffffffffffffffffffffffffffff16610aab57506b033b2e3c9fd0803ce800000090565b7f000000000000000000000000000000000000000000000000000000000000000073ffffffffffffffffffffffffffffffffffffffff16638e7bfbc06040518163ffffffff1660e01b8152600401602060405180830381865afa158015610b16573d6000803e3d6000fd5b505050506040513d601f19601f82011682018060405250810190610b3a919061142a565b90507f0000000000000000000000000000000000000000000000000000000000000000156108175761057b81760a70c3c40a64e6c51999090b65f67d9240000000000000611346565b60007f000000000000000000000000000000000000000000000000000000000000000073ffffffffffffffffffffffffffffffffffffffff16610bd157506b033b2e3c9fd0803ce800000090565b7f000000000000000000000000000000000000000000000000000000000000000073ffffffffffffffffffffffffffffffffffffffff1663f3190c896040518163ffffffff1660e01b8152600401602060405180830381865afa158015610b16573d6000803e3d6000fd5b600080610c8b7f00000000000000000000000000000000000000000000000000000000000000007f00000000000000000000000000000000000000000000000000000000000000006001610e37565b91506106957f00000000000000000000000000000000000000000000000000000000000000007f00000000000000000000000000000000000000000000000000000000000000006000610e37565b60007f000000000000000000000000000000000000000000000000000000000000000015610dad57610d2284760a70c3c40a64e6c51999090b65f67d9240000000000000611346565b93506b033b2e3c9fd0803ce8000000610d3b85846112fa565b610d459190611346565b610d4f9084611443565b90507f0000000000000000000000000000000000000000000000000000000000000000610d9c7f0000000000000000000000000000000000000000000000000000000000000000836112fa565b610da69190611346565b905061095b565b6b033b2e3c9fd0803ce8000000610dc485856112fa565b610dce9190611346565b610dd89083611443565b90507f0000000000000000000000000000000000000000000000000000000000000000610e257f0000000000000000000000000000000000000000000000000000000000000000836112fa565b610e2f9190611346565b949350505050565b6040517fb5c736e40000000000000000000000000000000000000000000000000000000081526004810184905260009081907352aa899454998be5b000ad077a46bbe360f4e4979063b5c736e490602401602060405180830381865afa158015610ea5573d6000803e3d6000fd5b505050506040513d601f19601f82011682018060405250810190610ec9919061142a565b6040517fb5c736e400000000000000000000000000000000000000000000000000000000815260048101869052600982901c66ffffffffffffff16600183901c60ff161b9350909150600090610f7e907352aa899454998be5b000ad077a46bbe360f4e4979063b5c736e490602401602060405180830381865afa158015610f55573d6000803e3d6000fd5b505050506040513d601f19601f82011682018060405250810190610f79919061142a565b611051565b50905081600116600103610f995764e8d4a510008382020492505b83610ff5577f00000000000000000000000000000000000000000000000000000000000000007f0000000000000000000000000000000000000000000000000000000000000000840281610fef57610fef611317565b04610956565b7f00000000000000000000000000000000000000000000000000000000000000007f000000000000000000000000000000000000000000000000000000000000000084028161104657611046611317565b049695505050505050565b67ffffffffffffffff605b82901c811690609b83901c16811580611073575080155b156110af576040517fd50d751200000000000000000000000000000000000000000000000000000000815262011171600482015260240161091d565b61ffff8316603a84901c6401ffffffff16428181039160ea87901c617fff169114806110d9575082155b806110e45750806001145b156110f157505050915091565b64496cebb80084840283020484019350617fff60db87901c1692508260010361111c57505050915091565b826001166001036111715760019290921c91826c7e37be2022c0914b26800000008161114a5761114a611317565b049250612710601e87901c613fff166b033b2e3c9fd0803ce800000085010204925061119e565b60019290921c916305f5e100601e87901c613fff166127108501026b033b2e3c9fd0803ce8000000020492505b806001166001036111d55760011c61271081016b033b2e3c9fd0803ce80000008202816111cd576111cd611317565b04905061120b565b60011c61271081016b033b2e3c9fd0803ce80000008202816111f9576111f9611317565b046b033b2e3c9fd0803ce80000000390505b760a70c3c40a64e6c51999090b65f67d92400000000000008382026127100261ffff881691900402601087901c613fff16612710030292506801b5a660ea44b8000085840283020485019450505050915091565b600060208083528351808285015260005b8181101561128c57858101830151858201604001528201611270565b5060006040828601015260407fffffffffffffffffffffffffffffffffffffffffffffffffffffffffffffffe0601f8301168501019250505092915050565b7f4e487b7100000000000000000000000000000000000000000000000000000000600052601160045260246000fd5b8082028115828204841417611311576113116112cb565b92915050565b7f4e487b7100000000000000000000000000000000000000000000000000000000600052601260045260246000fd5b60008261137c577f4e487b7100000000000000000000000000000000000000000000000000000000600052601260045260246000fd5b500490565b7f4e487b7100000000000000000000000000000000000000000000000000000000600052603260045260246000fd5b60007fffffffffffffffffffffffffffffffffffffffffffffffffffffffffffffffff82036113e1576113e16112cb565b5060010190565b7f4e487b7100000000000000000000000000000000000000000000000000000000600052604160045260246000fd5b81810381811115611311576113116112cb565b60006020828403121561143c57600080fd5b5051919050565b80820180821115611311576113116112cb56fea2646970667358221220054e85bc28711bb2e5c23ba0fdfbddabe4fcf5b9646844137fcbb007fa542e0264736f6c63430008150033"
}