{
  "address": "0x8620487DD447A0D4930191f917d886cBb0664D7C",
  "abi": [
    {
      "inputs": [
        {
          "internalType": "address",
          "name": "factory_",
          "type": "address"
        },
        {
          "internalType": "address",
          "name": "liquidity_",
          "type": "address"
        },
        {
          "internalType": "address",
          "name": "liquidityResolver_",
          "type": "address"
        },
        {
          "internalType": "address",
          "name": "deployer_",
          "type": "address"
        }
      ],
      "stateMutability": "nonpayable",
      "type": "constructor"
    },
    {
      "inputs": [],
      "name": "DEPLOYER_CONTRACT",
      "outputs": [
        {
          "internalType": "address",
          "name": "",
          "type": "address"
        }
      ],
      "stateMutability": "view",
      "type": "function"
    },
    {
      "inputs": [],
      "name": "FACTORY",
      "outputs": [
        {
          "internalType": "contract IFluidDexFactory",
          "name": "",
          "type": "address"
        }
      ],
      "stateMutability": "view",
      "type": "function"
    },
    {
      "inputs": [],
      "name": "LIQUIDITY",
      "outputs": [
        {
          "internalType": "contract IFluidLiquidity",
          "name": "",
          "type": "address"
        }
      ],
      "stateMutability": "view",
      "type": "function"
    },
    {
      "inputs": [],
      "name": "LIQUIDITY_RESOLVER",
      "outputs": [
        {
          "internalType": "contract IFluidLiquidityResolver",
          "name": "",
          "type": "address"
        }
      ],
      "stateMutability": "view",
      "type": "function"
    },
    {
      "inputs": [
        {
          "internalType": "address",
          "name": "dex_",
          "type": "address"
        },
        {
          "internalType": "uint256",
          "name": "token0Amt_",
          "type": "uint256"
        },
        {
          "internalType": "uint256",
          "name": "token1Amt_",
          "type": "uint256"
        },
        {
          "internalType": "uint256",
          "name": "maxSharesAmt_",
          "type": "uint256"
        }
      ],
      "name": "estimateBorrow",
      "outputs": [
        {
          "internalType": "uint256",
          "name": "shares_",
          "type": "uint256"
        }
      ],
      "stateMutability": "nonpayable",
      "type": "function"
    },
    {
      "inputs": [
        {
          "internalType": "address",
          "name": "dex_",
          "type": "address"
        },
        {
          "internalType": "uint256",
          "name": "shares_",
          "type": "uint256"
        },
        {
          "internalType": "uint256",
          "name": "minToken0Borrow_",
          "type": "uint256"
        },
        {
          "internalType": "uint256",
          "name": "minToken1Borrow_",
          "type": "uint256"
        }
      ],
      "name": "estimateBorrowPerfect",
      "outputs": [
        {
          "internalType": "uint256",
          "name": "token0Amt_",
          "type": "uint256"
        },
        {
          "internalType": "uint256",
          "name": "token1Amt_",
          "type": "uint256"
        }
      ],
      "stateMutability": "nonpayable",
      "type": "function"
    },
    {
      "inputs": [
        {
          "internalType": "address",
          "name": "dex_",
          "type": "address"
        },
        {
          "internalType": "uint256",
          "name": "token0Amt_",
          "type": "uint256"
        },
        {
          "internalType": "uint256",
          "name": "token1Amt_",
          "type": "uint256"
        },
        {
          "internalType": "uint256",
          "name": "minSharesAmt_",
          "type": "uint256"
        }
      ],
      "name": "estimateDeposit",
      "outputs": [
        {
          "internalType": "uint256",
          "name": "shares_",
          "type": "uint256"
        }
      ],
      "stateMutability": "payable",
      "type": "function"
    },
    {
      "inputs": [
        {
          "internalType": "address",
          "name": "dex_",
          "type": "address"
        },
        {
          "internalType": "uint256",
          "name": "shares_",
          "type": "uint256"
        },
        {
          "internalType": "uint256",
          "name": "maxToken0Deposit_",
          "type": "uint256"
        },
        {
          "internalType": "uint256",
          "name": "maxToken1Deposit_",
          "type": "uint256"
        }
      ],
      "name": "estimateDepositPerfect",
      "outputs": [
        {
          "internalType": "uint256",
          "name": "token0Amt_",
          "type": "uint256"
        },
        {
          "internalType": "uint256",
          "name": "token1Amt_",
          "type": "uint256"
        }
      ],
      "stateMutability": "payable",
      "type": "function"
    },
    {
      "inputs": [
        {
          "internalType": "address",
          "name": "dex_",
          "type": "address"
        },
        {
          "internalType": "uint256",
          "name": "token0Amt_",
          "type": "uint256"
        },
        {
          "internalType": "uint256",
          "name": "token1Amt_",
          "type": "uint256"
        },
        {
          "internalType": "uint256",
          "name": "minSharesAmt_",
          "type": "uint256"
        }
      ],
      "name": "estimatePayback",
      "outputs": [
        {
          "internalType": "uint256",
          "name": "shares_",
          "type": "uint256"
        }
      ],
      "stateMutability": "payable",
      "type": "function"
    },
    {
      "inputs": [
        {
          "internalType": "address",
          "name": "dex_",
          "type": "address"
        },
        {
          "internalType": "uint256",
          "name": "shares_",
          "type": "uint256"
        },
        {
          "internalType": "uint256",
          "name": "maxToken0Payback_",
          "type": "uint256"
        },
        {
          "internalType": "uint256",
          "name": "maxToken1Payback_",
          "type": "uint256"
        }
      ],
      "name": "estimatePaybackPerfect",
      "outputs": [
        {
          "internalType": "uint256",
          "name": "token0Amt_",
          "type": "uint256"
        },
        {
          "internalType": "uint256",
          "name": "token1Amt_",
          "type": "uint256"
        }
      ],
      "stateMutability": "payable",
      "type": "function"
    },
    {
      "inputs": [
        {
          "internalType": "address",
          "name": "dex_",
          "type": "address"
        },
        {
          "internalType": "uint256",
          "name": "shares_",
          "type": "uint256"
        },
        {
          "internalType": "uint256",
          "name": "maxToken0_",
          "type": "uint256"
        },
        {
          "internalType": "uint256",
          "name": "maxToken1_",
          "type": "uint256"
        }
      ],
      "name": "estimatePaybackPerfectInOneToken",
      "outputs": [
        {
          "internalType": "uint256",
          "name": "paybackAmt_",
          "type": "uint256"
        }
      ],
      "stateMutability": "payable",
      "type": "function"
    },
    {
      "inputs": [
        {
          "internalType": "address",
          "name": "dex_",
          "type": "address"
        },
        {
          "internalType": "bool",
          "name": "swap0to1_",
          "type": "bool"
        },
        {
          "internalType": "uint256",
          "name": "amountIn_",
          "type": "uint256"
        },
        {
          "internalType": "uint256",
          "name": "amountOutMin_",
          "type": "uint256"
        }
      ],
      "name": "estimateSwapIn",
      "outputs": [
        {
          "internalType": "uint256",
          "name": "amountOut_",
          "type": "uint256"
        }
      ],
      "stateMutability": "payable",
      "type": "function"
    },
    {
      "inputs": [
        {
          "internalType": "address",
          "name": "dex_",
          "type": "address"
        },
        {
          "internalType": "bool",
          "name": "swap0to1_",
          "type": "bool"
        },
        {
          "internalType": "uint256",
          "name": "amountOut_",
          "type": "uint256"
        },
        {
          "internalType": "uint256",
          "name": "amountInMax_",
          "type": "uint256"
        }
      ],
      "name": "estimateSwapOut",
      "outputs": [
        {
          "internalType": "uint256",
          "name": "amountIn_",
          "type": "uint256"
        }
      ],
      "stateMutability": "payable",
      "type": "function"
    },
    {
      "inputs": [
        {
          "internalType": "address",
          "name": "dex_",
          "type": "address"
        },
        {
          "internalType": "uint256",
          "name": "token0Amt_",
          "type": "uint256"
        },
        {
          "internalType": "uint256",
          "name": "token1Amt_",
          "type": "uint256"
        },
        {
          "internalType": "uint256",
          "name": "maxSharesAmt_",
          "type": "uint256"
        }
      ],
      "name": "estimateWithdraw",
      "outputs": [
        {
          "internalType": "uint256",
          "name": "shares_",
          "type": "uint256"
        }
      ],
      "stateMutability": "nonpayable",
      "type": "function"
    },
    {
      "inputs": [
        {
          "internalType": "address",
          "name": "dex_",
          "type": "address"
        },
        {
          "internalType": "uint256",
          "name": "shares_",
          "type": "uint256"
        },
        {
          "internalType": "uint256",
          "name": "minToken0Withdraw_",
          "type": "uint256"
        },
        {
          "internalType": "uint256",
          "name": "minToken1Withdraw_",
          "type": "uint256"
        }
      ],
      "name": "estimateWithdrawPerfect",
      "outputs": [
        {
          "internalType": "uint256",
          "name": "token0Amt_",
          "type": "uint256"
        },
        {
          "internalType": "uint256",
          "name": "token1Amt_",
          "type": "uint256"
        }
      ],
      "stateMutability": "nonpayable",
      "type": "function"
    },
    {
      "inputs": [
        {
          "internalType": "address",
          "name": "dex_",
          "type": "address"
        },
        {
          "internalType": "uint256",
          "name": "shares_",
          "type": "uint256"
        },
        {
          "internalType": "uint256",
          "name": "minToken0_",
          "type": "uint256"
        },
        {
          "internalType": "uint256",
          "name": "minToken1_",
          "type": "uint256"
        }
      ],
      "name": "estimateWithdrawPerfectInOneToken",
      "outputs": [
        {
          "internalType": "uint256",
          "name": "withdrawAmt_",
          "type": "uint256"
        }
      ],
      "stateMutability": "nonpayable",
      "type": "function"
    },
    {
      "inputs": [],
      "name": "getAllDexAddresses",
      "outputs": [
        {
          "internalType": "address[]",
          "name": "dexes_",
          "type": "address[]"
        }
      ],
      "stateMutability": "view",
      "type": "function"
    },
    {
      "inputs": [],
      "name": "getAllDexEntireDatas",
      "outputs": [
        {
          "components": [
            {
              "internalType": "address",
              "name": "dex",
              "type": "address"
            },
            {
              "components": [
                {
                  "internalType": "uint256",
                  "name": "dexId",
                  "type": "uint256"
                },
                {
                  "internalType": "address",
                  "name": "liquidity",
                  "type": "address"
                },
                {
                  "internalType": "address",
                  "name": "factory",
                  "type": "address"
                },
                {
                  "components": [
                    {
                      "internalType": "address",
                      "name": "shift",
                      "type": "address"
                    },
                    {
                      "internalType": "address",
                      "name": "admin",
                      "type": "address"
                    },
                    {
                      "internalType": "address",
                      "name": "colOperations",
                      "type": "address"
                    },
                    {
                      "internalType": "address",
                      "name": "debtOperations",
                      "type": "address"
                    },
                    {
                      "internalType": "address",
                      "name": "perfectOperationsAndOracle",
                      "type": "address"
                    }
                  ],
                  "internalType": "struct IFluidDexT1.Implementations",
                  "name": "implementations",
                  "type": "tuple"
                },
                {
                  "internalType": "address",
                  "name": "deployerContract",
                  "type": "address"
                },
                {
                  "internalType": "address",
                  "name": "token0",
                  "type": "address"
                },
                {
                  "internalType": "address",
                  "name": "token1",
                  "type": "address"
                },
                {
                  "internalType": "bytes32",
                  "name": "supplyToken0Slot",
                  "type": "bytes32"
                },
                {
                  "internalType": "bytes32",
                  "name": "borrowToken0Slot",
                  "type": "bytes32"
                },
                {
                  "internalType": "bytes32",
                  "name": "supplyToken1Slot",
                  "type": "bytes32"
                },
                {
                  "internalType": "bytes32",
                  "name": "borrowToken1Slot",
                  "type": "bytes32"
                },
                {
                  "internalType": "bytes32",
                  "name": "exchangePriceToken0Slot",
                  "type": "bytes32"
                },
                {
                  "internalType": "bytes32",
                  "name": "exchangePriceToken1Slot",
                  "type": "bytes32"
                },
                {
                  "internalType": "uint256",
                  "name": "oracleMapping",
                  "type": "uint256"
                }
              ],
              "internalType": "struct IFluidDexT1.ConstantViews",
              "name": "constantViews",
              "type": "tuple"
            },
            {
              "components": [
                {
                  "internalType": "uint256",
                  "name": "token0NumeratorPrecision",
                  "type": "uint256"
                },
                {
                  "internalType": "uint256",
                  "name": "token0DenominatorPrecision",
                  "type": "uint256"
                },
                {
                  "internalType": "uint256",
                  "name": "token1NumeratorPrecision",
                  "type": "uint256"
                },
                {
                  "internalType": "uint256",
                  "name": "token1DenominatorPrecision",
                  "type": "uint256"
                }
              ],
              "internalType": "struct IFluidDexT1.ConstantViews2",
              "name": "constantViews2",
              "type": "tuple"
            },
            {
              "components": [
                {
                  "internalType": "bool",
                  "name": "isSmartCollateralEnabled",
                  "type": "bool"
                },
                {
                  "internalType": "bool",
                  "name": "isSmartDebtEnabled",
                  "type": "bool"
                },
                {
                  "internalType": "uint256",
                  "name": "fee",
                  "type": "uint256"
                },
                {
                  "internalType": "uint256",
                  "name": "revenueCut",
                  "type": "uint256"
                },
                {
                  "internalType": "uint256",
                  "name": "upperRange",
                  "type": "uint256"
                },
                {
                  "internalType": "uint256",
                  "name": "lowerRange",
                  "type": "uint256"
                },
                {
                  "internalType": "uint256",
                  "name": "upperShiftThreshold",
                  "type": "uint256"
                },
                {
                  "internalType": "uint256",
                  "name": "lowerShiftThreshold",
                  "type": "uint256"
                },
                {
                  "internalType": "uint256",
                  "name": "shiftingTime",
                  "type": "uint256"
                },
                {
                  "internalType": "address",
                  "name": "centerPriceAddress",
                  "type": "address"
                },
                {
                  "internalType": "address",
                  "name": "hookAddress",
                  "type": "address"
                },
                {
                  "internalType": "uint256",
                  "name": "maxCenterPrice",
                  "type": "uint256"
                },
                {
                  "internalType": "uint256",
                  "name": "minCenterPrice",
                  "type": "uint256"
                },
                {
                  "internalType": "uint256",
                  "name": "utilizationLimitToken0",
                  "type": "uint256"
                },
                {
                  "internalType": "uint256",
                  "name": "utilizationLimitToken1",
                  "type": "uint256"
                }
              ],
              "internalType": "struct Structs.Configs",
              "name": "configs",
              "type": "tuple"
            },
            {
              "components": [
                {
                  "internalType": "uint256",
                  "name": "lastStoredPrice",
                  "type": "uint256"
                },
                {
                  "internalType": "uint256",
                  "name": "centerPrice",
                  "type": "uint256"
                },
                {
                  "internalType": "uint256",
                  "name": "upperRange",
                  "type": "uint256"
                },
                {
                  "internalType": "uint256",
                  "name": "lowerRange",
                  "type": "uint256"
                },
                {
                  "internalType": "uint256",
                  "name": "geometricMean",
                  "type": "uint256"
                },
                {
                  "internalType": "uint256",
                  "name": "supplyToken0ExchangePrice",
                  "type": "uint256"
                },
                {
                  "internalType": "uint256",
                  "name": "borrowToken0ExchangePrice",
                  "type": "uint256"
                },
                {
                  "internalType": "uint256",
                  "name": "supplyToken1ExchangePrice",
                  "type": "uint256"
                },
                {
                  "internalType": "uint256",
                  "name": "borrowToken1ExchangePrice",
                  "type": "uint256"
                }
              ],
              "internalType": "struct IFluidDexT1.PricesAndExchangePrice",
              "name": "pex",
              "type": "tuple"
            },
            {
              "components": [
                {
                  "internalType": "uint256",
                  "name": "token0RealReserves",
                  "type": "uint256"
                },
                {
                  "internalType": "uint256",
                  "name": "token1RealReserves",
                  "type": "uint256"
                },
                {
                  "internalType": "uint256",
                  "name": "token0ImaginaryReserves",
                  "type": "uint256"
                },
                {
                  "internalType": "uint256",
                  "name": "token1ImaginaryReserves",
                  "type": "uint256"
                }
              ],
              "internalType": "struct IFluidDexT1.CollateralReserves",
              "name": "colReserves",
              "type": "tuple"
            },
            {
              "components": [
                {
                  "internalType": "uint256",
                  "name": "token0Debt",
                  "type": "uint256"
                },
                {
                  "internalType": "uint256",
                  "name": "token1Debt",
                  "type": "uint256"
                },
                {
                  "internalType": "uint256",
                  "name": "token0RealReserves",
                  "type": "uint256"
                },
                {
                  "internalType": "uint256",
                  "name": "token1RealReserves",
                  "type": "uint256"
                },
                {
                  "internalType": "uint256",
                  "name": "token0ImaginaryReserves",
                  "type": "uint256"
                },
                {
                  "internalType": "uint256",
                  "name": "token1ImaginaryReserves",
                  "type": "uint256"
                }
              ],
              "internalType": "struct IFluidDexT1.DebtReserves",
              "name": "debtReserves",
              "type": "tuple"
            },
            {
              "components": [
                {
                  "internalType": "uint256",
                  "name": "lastToLastStoredPrice",
                  "type": "uint256"
                },
                {
                  "internalType": "uint256",
                  "name": "lastStoredPrice",
                  "type": "uint256"
                },
                {
                  "internalType": "uint256",
                  "name": "centerPrice",
                  "type": "uint256"
                },
                {
                  "internalType": "uint256",
                  "name": "lastUpdateTimestamp",
                  "type": "uint256"
                },
                {
                  "internalType": "uint256",
                  "name": "lastPricesTimeDiff",
                  "type": "uint256"
                },
                {
                  "internalType": "uint256",
                  "name": "oracleCheckPoint",
                  "type": "uint256"
                },
                {
                  "internalType": "uint256",
                  "name": "oracleMapping",
                  "type": "uint256"
                },
                {
                  "internalType": "uint256",
                  "name": "totalSupplyShares",
                  "type": "uint256"
                },
                {
                  "internalType": "uint256",
                  "name": "totalBorrowShares",
                  "type": "uint256"
                },
                {
                  "internalType": "bool",
                  "name": "isSwapAndArbitragePaused",
                  "type": "bool"
                },
                {
                  "components": [
                    {
                      "internalType": "bool",
                      "name": "isRangeChangeActive",
                      "type": "bool"
                    },
                    {
                      "internalType": "bool",
                      "name": "isThresholdChangeActive",
                      "type": "bool"
                    },
                    {
                      "internalType": "bool",
                      "name": "isCenterPriceShiftActive",
                      "type": "bool"
                    },
                    {
                      "components": [
                        {
                          "internalType": "uint256",
                          "name": "oldUpper",
                          "type": "uint256"
                        },
                        {
                          "internalType": "uint256",
                          "name": "oldLower",
                          "type": "uint256"
                        },
                        {
                          "internalType": "uint256",
                          "name": "duration",
                          "type": "uint256"
                        },
                        {
                          "internalType": "uint256",
                          "name": "startTimestamp",
                          "type": "uint256"
                        },
                        {
                          "internalType": "uint256",
                          "name": "oldTime",
                          "type": "uint256"
                        }
                      ],
                      "internalType": "struct Structs.ShiftData",
                      "name": "rangeShift",
                      "type": "tuple"
                    },
                    {
                      "components": [
                        {
                          "internalType": "uint256",
                          "name": "oldUpper",
                          "type": "uint256"
                        },
                        {
                          "internalType": "uint256",
                          "name": "oldLower",
                          "type": "uint256"
                        },
                        {
                          "internalType": "uint256",
                          "name": "duration",
                          "type": "uint256"
                        },
                        {
                          "internalType": "uint256",
                          "name": "startTimestamp",
                          "type": "uint256"
                        },
                        {
                          "internalType": "uint256",
                          "name": "oldTime",
                          "type": "uint256"
                        }
                      ],
                      "internalType": "struct Structs.ShiftData",
                      "name": "thresholdShift",
                      "type": "tuple"
                    },
                    {
                      "components": [
                        {
                          "internalType": "uint256",
                          "name": "shiftPercentage",
                          "type": "uint256"
                        },
                        {
                          "internalType": "uint256",
                          "name": "duration",
                          "type": "uint256"
                        },
                        {
                          "internalType": "uint256",
                          "name": "startTimestamp",
                          "type": "uint256"
                        }
                      ],
                      "internalType": "struct Structs.CenterPriceShift",
                      "name": "centerPriceShift",
                      "type": "tuple"
                    }
                  ],
                  "internalType": "struct Structs.ShiftChanges",
                  "name": "shifts",
                  "type": "tuple"
                }
              ],
              "internalType": "struct Structs.DexState",
              "name": "dexState",
              "type": "tuple"
            },
            {
              "components": [
                {
                  "internalType": "uint256",
                  "name": "liquiditySupplyToken0",
                  "type": "uint256"
                },
                {
                  "internalType": "uint256",
                  "name": "liquiditySupplyToken1",
                  "type": "uint256"
                },
                {
                  "internalType": "uint256",
                  "name": "liquidityBorrowToken0",
                  "type": "uint256"
                },
                {
                  "internalType": "uint256",
                  "name": "liquidityBorrowToken1",
                  "type": "uint256"
                },
                {
                  "internalType": "uint256",
                  "name": "liquidityWithdrawableToken0",
                  "type": "uint256"
                },
                {
                  "internalType": "uint256",
                  "name": "liquidityWithdrawableToken1",
                  "type": "uint256"
                },
                {
                  "internalType": "uint256",
                  "name": "liquidityBorrowableToken0",
                  "type": "uint256"
                },
                {
                  "internalType": "uint256",
                  "name": "liquidityBorrowableToken1",
                  "type": "uint256"
                },
                {
                  "internalType": "uint256",
                  "name": "utilizationLimitToken0",
                  "type": "uint256"
                },
                {
                  "internalType": "uint256",
                  "name": "utilizationLimitToken1",
                  "type": "uint256"
                },
                {
                  "internalType": "uint256",
                  "name": "withdrawableUntilUtilizationLimitToken0",
                  "type": "uint256"
                },
                {
                  "internalType": "uint256",
                  "name": "withdrawableUntilUtilizationLimitToken1",
                  "type": "uint256"
                },
                {
                  "internalType": "uint256",
                  "name": "borrowableUntilUtilizationLimitToken0",
                  "type": "uint256"
                },
                {
                  "internalType": "uint256",
                  "name": "borrowableUntilUtilizationLimitToken1",
                  "type": "uint256"
                },
                {
                  "components": [
                    {
                      "internalType": "bool",
                      "name": "modeWithInterest",
                      "type": "bool"
                    },
                    {
                      "internalType": "uint256",
                      "name": "supply",
                      "type": "uint256"
                    },
                    {
                      "internalType": "uint256",
                      "name": "withdrawalLimit",
                      "type": "uint256"
                    },
                    {
                      "internalType": "uint256",
                      "name": "lastUpdateTimestamp",
                      "type": "uint256"
                    },
                    {
                      "internalType": "uint256",
                      "name": "expandPercent",
                      "type": "uint256"
                    },
                    {
                      "internalType": "uint256",
                      "name": "expandDuration",
                      "type": "uint256"
                    },
                    {
                      "internalType": "uint256",
                      "name": "baseWithdrawalLimit",
                      "type": "uint256"
                    },
                    {
                      "internalType": "uint256",
                      "name": "withdrawableUntilLimit",
                      "type": "uint256"
                    },
                    {
                      "internalType": "uint256",
                      "name": "withdrawable",
                      "type": "uint256"
                    }
                  ],
                  "internalType": "struct Structs.UserSupplyData",
                  "name": "liquidityUserSupplyDataToken0",
                  "type": "tuple"
                },
                {
                  "components": [
                    {
                      "internalType": "bool",
                      "name": "modeWithInterest",
                      "type": "bool"
                    },
                    {
                      "internalType": "uint256",
                      "name": "supply",
                      "type": "uint256"
                    },
                    {
                      "internalType": "uint256",
                      "name": "withdrawalLimit",
                      "type": "uint256"
                    },
                    {
                      "internalType": "uint256",
                      "name": "lastUpdateTimestamp",
                      "type": "uint256"
                    },
                    {
                      "internalType": "uint256",
                      "name": "expandPercent",
                      "type": "uint256"
                    },
                    {
                      "internalType": "uint256",
                      "name": "expandDuration",
                      "type": "uint256"
                    },
                    {
                      "internalType": "uint256",
                      "name": "baseWithdrawalLimit",
                      "type": "uint256"
                    },
                    {
                      "internalType": "uint256",
                      "name": "withdrawableUntilLimit",
                      "type": "uint256"
                    },
                    {
                      "internalType": "uint256",
                      "name": "withdrawable",
                      "type": "uint256"
                    }
                  ],
                  "internalType": "struct Structs.UserSupplyData",
                  "name": "liquidityUserSupplyDataToken1",
                  "type": "tuple"
                },
                {
                  "components": [
                    {
                      "internalType": "bool",
                      "name": "modeWithInterest",
                      "type": "bool"
                    },
                    {
                      "internalType": "uint256",
                      "name": "borrow",
                      "type": "uint256"
                    },
                    {
                      "internalType": "uint256",
                      "name": "borrowLimit",
                      "type": "uint256"
                    },
                    {
                      "internalType": "uint256",
                      "name": "lastUpdateTimestamp",
                      "type": "uint256"
                    },
                    {
                      "internalType": "uint256",
                      "name": "expandPercent",
                      "type": "uint256"
                    },
                    {
                      "internalType": "uint256",
                      "name": "expandDuration",
                      "type": "uint256"
                    },
                    {
                      "internalType": "uint256",
                      "name": "baseBorrowLimit",
                      "type": "uint256"
                    },
                    {
                      "internalType": "uint256",
                      "name": "maxBorrowLimit",
                      "type": "uint256"
                    },
                    {
                      "internalType": "uint256",
                      "name": "borrowableUntilLimit",
                      "type": "uint256"
                    },
                    {
                      "internalType": "uint256",
                      "name": "borrowable",
                      "type": "uint256"
                    },
                    {
                      "internalType": "uint256",
                      "name": "borrowLimitUtilization",
                      "type": "uint256"
                    }
                  ],
                  "internalType": "struct Structs.UserBorrowData",
                  "name": "liquidityUserBorrowDataToken0",
                  "type": "tuple"
                },
                {
                  "components": [
                    {
                      "internalType": "bool",
                      "name": "modeWithInterest",
                      "type": "bool"
                    },
                    {
                      "internalType": "uint256",
                      "name": "borrow",
                      "type": "uint256"
                    },
                    {
                      "internalType": "uint256",
                      "name": "borrowLimit",
                      "type": "uint256"
                    },
                    {
                      "internalType": "uint256",
                      "name": "lastUpdateTimestamp",
                      "type": "uint256"
                    },
                    {
                      "internalType": "uint256",
                      "name": "expandPercent",
                      "type": "uint256"
                    },
                    {
                      "internalType": "uint256",
                      "name": "expandDuration",
                      "type": "uint256"
                    },
                    {
                      "internalType": "uint256",
                      "name": "baseBorrowLimit",
                      "type": "uint256"
                    },
                    {
                      "internalType": "uint256",
                      "name": "maxBorrowLimit",
                      "type": "uint256"
                    },
                    {
                      "internalType": "uint256",
                      "name": "borrowableUntilLimit",
                      "type": "uint256"
                    },
                    {
                      "internalType": "uint256",
                      "name": "borrowable",
                      "type": "uint256"
                    },
                    {
                      "internalType": "uint256",
                      "name": "borrowLimitUtilization",
                      "type": "uint256"
                    }
                  ],
                  "internalType": "struct Structs.UserBorrowData",
                  "name": "liquidityUserBorrowDataToken1",
                  "type": "tuple"
                }
              ],
              "internalType": "struct Structs.SwapLimitsAndAvailability",
              "name": "limitsAndAvailability",
              "type": "tuple"
            }
          ],
          "internalType": "struct Structs.DexEntireData[]",
          "name": "datas_",
          "type": "tuple[]"
        }
      ],
      "stateMutability": "nonpayable",
      "type": "function"
    },
    {
      "inputs": [
        {
          "internalType": "address",
          "name": "dex_",
          "type": "address"
        }
      ],
      "name": "getCenterPriceShiftRaw",
      "outputs": [
        {
          "internalType": "uint256",
          "name": "",
          "type": "uint256"
        }
      ],
      "stateMutability": "view",
      "type": "function"
    },
    {
      "inputs": [
        {
          "internalType": "uint256",
          "name": "dexId_",
          "type": "uint256"
        }
      ],
      "name": "getDexAddress",
      "outputs": [
        {
          "internalType": "address",
          "name": "dex_",
          "type": "address"
        }
      ],
      "stateMutability": "view",
      "type": "function"
    },
    {
      "inputs": [
        {
          "internalType": "address",
          "name": "dex_",
          "type": "address"
        }
      ],
      "name": "getDexCollateralReserves",
      "outputs": [
        {
          "components": [
            {
              "internalType": "uint256",
              "name": "token0RealReserves",
              "type": "uint256"
            },
            {
              "internalType": "uint256",
              "name": "token1RealReserves",
              "type": "uint256"
            },
            {
              "internalType": "uint256",
              "name": "token0ImaginaryReserves",
              "type": "uint256"
            },
            {
              "internalType": "uint256",
              "name": "token1ImaginaryReserves",
              "type": "uint256"
            }
          ],
          "internalType": "struct IFluidDexT1.CollateralReserves",
          "name": "reserves_",
          "type": "tuple"
        }
      ],
      "stateMutability": "nonpayable",
      "type": "function"
    },
    {
      "inputs": [
        {
          "internalType": "address",
          "name": "dex_",
          "type": "address"
        }
      ],
      "name": "getDexConfigs",
      "outputs": [
        {
          "components": [
            {
              "internalType": "bool",
              "name": "isSmartCollateralEnabled",
              "type": "bool"
            },
            {
              "internalType": "bool",
              "name": "isSmartDebtEnabled",
              "type": "bool"
            },
            {
              "internalType": "uint256",
              "name": "fee",
              "type": "uint256"
            },
            {
              "internalType": "uint256",
              "name": "revenueCut",
              "type": "uint256"
            },
            {
              "internalType": "uint256",
              "name": "upperRange",
              "type": "uint256"
            },
            {
              "internalType": "uint256",
              "name": "lowerRange",
              "type": "uint256"
            },
            {
              "internalType": "uint256",
              "name": "upperShiftThreshold",
              "type": "uint256"
            },
            {
              "internalType": "uint256",
              "name": "lowerShiftThreshold",
              "type": "uint256"
            },
            {
              "internalType": "uint256",
              "name": "shiftingTime",
              "type": "uint256"
            },
            {
              "internalType": "address",
              "name": "centerPriceAddress",
              "type": "address"
            },
            {
              "internalType": "address",
              "name": "hookAddress",
              "type": "address"
            },
            {
              "internalType": "uint256",
              "name": "maxCenterPrice",
              "type": "uint256"
            },
            {
              "internalType": "uint256",
              "name": "minCenterPrice",
              "type": "uint256"
            },
            {
              "internalType": "uint256",
              "name": "utilizationLimitToken0",
              "type": "uint256"
            },
            {
              "internalType": "uint256",
              "name": "utilizationLimitToken1",
              "type": "uint256"
            }
          ],
          "internalType": "struct Structs.Configs",
          "name": "configs_",
          "type": "tuple"
        }
      ],
      "stateMutability": "view",
      "type": "function"
    },
    {
      "inputs": [
        {
          "internalType": "address",
          "name": "dex_",
          "type": "address"
        }
      ],
      "name": "getDexConstantsView",
      "outputs": [
        {
          "components": [
            {
              "internalType": "uint256",
              "name": "dexId",
              "type": "uint256"
            },
            {
              "internalType": "address",
              "name": "liquidity",
              "type": "address"
            },
            {
              "internalType": "address",
              "name": "factory",
              "type": "address"
            },
            {
              "components": [
                {
                  "internalType": "address",
                  "name": "shift",
                  "type": "address"
                },
                {
                  "internalType": "address",
                  "name": "admin",
                  "type": "address"
                },
                {
                  "internalType": "address",
                  "name": "colOperations",
                  "type": "address"
                },
                {
                  "internalType": "address",
                  "name": "debtOperations",
                  "type": "address"
                },
                {
                  "internalType": "address",
                  "name": "perfectOperationsAndOracle",
                  "type": "address"
                }
              ],
              "internalType": "struct IFluidDexT1.Implementations",
              "name": "implementations",
              "type": "tuple"
            },
            {
              "internalType": "address",
              "name": "deployerContract",
              "type": "address"
            },
            {
              "internalType": "address",
              "name": "token0",
              "type": "address"
            },
            {
              "internalType": "address",
              "name": "token1",
              "type": "address"
            },
            {
              "internalType": "bytes32",
              "name": "supplyToken0Slot",
              "type": "bytes32"
            },
            {
              "internalType": "bytes32",
              "name": "borrowToken0Slot",
              "type": "bytes32"
            },
            {
              "internalType": "bytes32",
              "name": "supplyToken1Slot",
              "type": "bytes32"
            },
            {
              "internalType": "bytes32",
              "name": "borrowToken1Slot",
              "type": "bytes32"
            },
            {
              "internalType": "bytes32",
              "name": "exchangePriceToken0Slot",
              "type": "bytes32"
            },
            {
              "internalType": "bytes32",
              "name": "exchangePriceToken1Slot",
              "type": "bytes32"
            },
            {
              "internalType": "uint256",
              "name": "oracleMapping",
              "type": "uint256"
            }
          ],
          "internalType": "struct IFluidDexT1.ConstantViews",
          "name": "constantsView_",
          "type": "tuple"
        }
      ],
      "stateMutability": "view",
      "type": "function"
    },
    {
      "inputs": [
        {
          "internalType": "address",
          "name": "dex_",
          "type": "address"
        }
      ],
      "name": "getDexConstantsView2",
      "outputs": [
        {
          "components": [
            {
              "internalType": "uint256",
              "name": "token0NumeratorPrecision",
              "type": "uint256"
            },
            {
              "internalType": "uint256",
              "name": "token0DenominatorPrecision",
              "type": "uint256"
            },
            {
              "internalType": "uint256",
              "name": "token1NumeratorPrecision",
              "type": "uint256"
            },
            {
              "internalType": "uint256",
              "name": "token1DenominatorPrecision",
              "type": "uint256"
            }
          ],
          "internalType": "struct IFluidDexT1.ConstantViews2",
          "name": "constantsView2_",
          "type": "tuple"
        }
      ],
      "stateMutability": "view",
      "type": "function"
    },
    {
      "inputs": [
        {
          "internalType": "address",
          "name": "dex_",
          "type": "address"
        }
      ],
      "name": "getDexDebtReserves",
      "outputs": [
        {
          "components": [
            {
              "internalType": "uint256",
              "name": "token0Debt",
              "type": "uint256"
            },
            {
              "internalType": "uint256",
              "name": "token1Debt",
              "type": "uint256"
            },
            {
              "internalType": "uint256",
              "name": "token0RealReserves",
              "type": "uint256"
            },
            {
              "internalType": "uint256",
              "name": "token1RealReserves",
              "type": "uint256"
            },
            {
              "internalType": "uint256",
              "name": "token0ImaginaryReserves",
              "type": "uint256"
            },
            {
              "internalType": "uint256",
              "name": "token1ImaginaryReserves",
              "type": "uint256"
            }
          ],
          "internalType": "struct IFluidDexT1.DebtReserves",
          "name": "reserves_",
          "type": "tuple"
        }
      ],
      "stateMutability": "nonpayable",
      "type": "function"
    },
    {
      "inputs": [
        {
          "internalType": "address",
          "name": "dex_",
          "type": "address"
        }
      ],
      "name": "getDexEntireData",
      "outputs": [
        {
          "components": [
            {
              "internalType": "address",
              "name": "dex",
              "type": "address"
            },
            {
              "components": [
                {
                  "internalType": "uint256",
                  "name": "dexId",
                  "type": "uint256"
                },
                {
                  "internalType": "address",
                  "name": "liquidity",
                  "type": "address"
                },
                {
                  "internalType": "address",
                  "name": "factory",
                  "type": "address"
                },
                {
                  "components": [
                    {
                      "internalType": "address",
                      "name": "shift",
                      "type": "address"
                    },
                    {
                      "internalType": "address",
                      "name": "admin",
                      "type": "address"
                    },
                    {
                      "internalType": "address",
                      "name": "colOperations",
                      "type": "address"
                    },
                    {
                      "internalType": "address",
                      "name": "debtOperations",
                      "type": "address"
                    },
                    {
                      "internalType": "address",
                      "name": "perfectOperationsAndOracle",
                      "type": "address"
                    }
                  ],
                  "internalType": "struct IFluidDexT1.Implementations",
                  "name": "implementations",
                  "type": "tuple"
                },
                {
                  "internalType": "address",
                  "name": "deployerContract",
                  "type": "address"
                },
                {
                  "internalType": "address",
                  "name": "token0",
                  "type": "address"
                },
                {
                  "internalType": "address",
                  "name": "token1",
                  "type": "address"
                },
                {
                  "internalType": "bytes32",
                  "name": "supplyToken0Slot",
                  "type": "bytes32"
                },
                {
                  "internalType": "bytes32",
                  "name": "borrowToken0Slot",
                  "type": "bytes32"
                },
                {
                  "internalType": "bytes32",
                  "name": "supplyToken1Slot",
                  "type": "bytes32"
                },
                {
                  "internalType": "bytes32",
                  "name": "borrowToken1Slot",
                  "type": "bytes32"
                },
                {
                  "internalType": "bytes32",
                  "name": "exchangePriceToken0Slot",
                  "type": "bytes32"
                },
                {
                  "internalType": "bytes32",
                  "name": "exchangePriceToken1Slot",
                  "type": "bytes32"
                },
                {
                  "internalType": "uint256",
                  "name": "oracleMapping",
                  "type": "uint256"
                }
              ],
              "internalType": "struct IFluidDexT1.ConstantViews",
              "name": "constantViews",
              "type": "tuple"
            },
            {
              "components": [
                {
                  "internalType": "uint256",
                  "name": "token0NumeratorPrecision",
                  "type": "uint256"
                },
                {
                  "internalType": "uint256",
                  "name": "token0DenominatorPrecision",
                  "type": "uint256"
                },
                {
                  "internalType": "uint256",
                  "name": "token1NumeratorPrecision",
                  "type": "uint256"
                },
                {
                  "internalType": "uint256",
                  "name": "token1DenominatorPrecision",
                  "type": "uint256"
                }
              ],
              "internalType": "struct IFluidDexT1.ConstantViews2",
              "name": "constantViews2",
              "type": "tuple"
            },
            {
              "components": [
                {
                  "internalType": "bool",
                  "name": "isSmartCollateralEnabled",
                  "type": "bool"
                },
                {
                  "internalType": "bool",
                  "name": "isSmartDebtEnabled",
                  "type": "bool"
                },
                {
                  "internalType": "uint256",
                  "name": "fee",
                  "type": "uint256"
                },
                {
                  "internalType": "uint256",
                  "name": "revenueCut",
                  "type": "uint256"
                },
                {
                  "internalType": "uint256",
                  "name": "upperRange",
                  "type": "uint256"
                },
                {
                  "internalType": "uint256",
                  "name": "lowerRange",
                  "type": "uint256"
                },
                {
                  "internalType": "uint256",
                  "name": "upperShiftThreshold",
                  "type": "uint256"
                },
                {
                  "internalType": "uint256",
                  "name": "lowerShiftThreshold",
                  "type": "uint256"
                },
                {
                  "internalType": "uint256",
                  "name": "shiftingTime",
                  "type": "uint256"
                },
                {
                  "internalType": "address",
                  "name": "centerPriceAddress",
                  "type": "address"
                },
                {
                  "internalType": "address",
                  "name": "hookAddress",
                  "type": "address"
                },
                {
                  "internalType": "uint256",
                  "name": "maxCenterPrice",
                  "type": "uint256"
                },
                {
                  "internalType": "uint256",
                  "name": "minCenterPrice",
                  "type": "uint256"
                },
                {
                  "internalType": "uint256",
                  "name": "utilizationLimitToken0",
                  "type": "uint256"
                },
                {
                  "internalType": "uint256",
                  "name": "utilizationLimitToken1",
                  "type": "uint256"
                }
              ],
              "internalType": "struct Structs.Configs",
              "name": "configs",
              "type": "tuple"
            },
            {
              "components": [
                {
                  "internalType": "uint256",
                  "name": "lastStoredPrice",
                  "type": "uint256"
                },
                {
                  "internalType": "uint256",
                  "name": "centerPrice",
                  "type": "uint256"
                },
                {
                  "internalType": "uint256",
                  "name": "upperRange",
                  "type": "uint256"
                },
                {
                  "internalType": "uint256",
                  "name": "lowerRange",
                  "type": "uint256"
                },
                {
                  "internalType": "uint256",
                  "name": "geometricMean",
                  "type": "uint256"
                },
                {
                  "internalType": "uint256",
                  "name": "supplyToken0ExchangePrice",
                  "type": "uint256"
                },
                {
                  "internalType": "uint256",
                  "name": "borrowToken0ExchangePrice",
                  "type": "uint256"
                },
                {
                  "internalType": "uint256",
                  "name": "supplyToken1ExchangePrice",
                  "type": "uint256"
                },
                {
                  "internalType": "uint256",
                  "name": "borrowToken1ExchangePrice",
                  "type": "uint256"
                }
              ],
              "internalType": "struct IFluidDexT1.PricesAndExchangePrice",
              "name": "pex",
              "type": "tuple"
            },
            {
              "components": [
                {
                  "internalType": "uint256",
                  "name": "token0RealReserves",
                  "type": "uint256"
                },
                {
                  "internalType": "uint256",
                  "name": "token1RealReserves",
                  "type": "uint256"
                },
                {
                  "internalType": "uint256",
                  "name": "token0ImaginaryReserves",
                  "type": "uint256"
                },
                {
                  "internalType": "uint256",
                  "name": "token1ImaginaryReserves",
                  "type": "uint256"
                }
              ],
              "internalType": "struct IFluidDexT1.CollateralReserves",
              "name": "colReserves",
              "type": "tuple"
            },
            {
              "components": [
                {
                  "internalType": "uint256",
                  "name": "token0Debt",
                  "type": "uint256"
                },
                {
                  "internalType": "uint256",
                  "name": "token1Debt",
                  "type": "uint256"
                },
                {
                  "internalType": "uint256",
                  "name": "token0RealReserves",
                  "type": "uint256"
                },
                {
                  "internalType": "uint256",
                  "name": "token1RealReserves",
                  "type": "uint256"
                },
                {
                  "internalType": "uint256",
                  "name": "token0ImaginaryReserves",
                  "type": "uint256"
                },
                {
                  "internalType": "uint256",
                  "name": "token1ImaginaryReserves",
                  "type": "uint256"
                }
              ],
              "internalType": "struct IFluidDexT1.DebtReserves",
              "name": "debtReserves",
              "type": "tuple"
            },
            {
              "components": [
                {
                  "internalType": "uint256",
                  "name": "lastToLastStoredPrice",
                  "type": "uint256"
                },
                {
                  "internalType": "uint256",
                  "name": "lastStoredPrice",
                  "type": "uint256"
                },
                {
                  "internalType": "uint256",
                  "name": "centerPrice",
                  "type": "uint256"
                },
                {
                  "internalType": "uint256",
                  "name": "lastUpdateTimestamp",
                  "type": "uint256"
                },
                {
                  "internalType": "uint256",
                  "name": "lastPricesTimeDiff",
                  "type": "uint256"
                },
                {
                  "internalType": "uint256",
                  "name": "oracleCheckPoint",
                  "type": "uint256"
                },
                {
                  "internalType": "uint256",
                  "name": "oracleMapping",
                  "type": "uint256"
                },
                {
                  "internalType": "uint256",
                  "name": "totalSupplyShares",
                  "type": "uint256"
                },
                {
                  "internalType": "uint256",
                  "name": "totalBorrowShares",
                  "type": "uint256"
                },
                {
                  "internalType": "bool",
                  "name": "isSwapAndArbitragePaused",
                  "type": "bool"
                },
                {
                  "components": [
                    {
                      "internalType": "bool",
                      "name": "isRangeChangeActive",
                      "type": "bool"
                    },
                    {
                      "internalType": "bool",
                      "name": "isThresholdChangeActive",
                      "type": "bool"
                    },
                    {
                      "internalType": "bool",
                      "name": "isCenterPriceShiftActive",
                      "type": "bool"
                    },
                    {
                      "components": [
                        {
                          "internalType": "uint256",
                          "name": "oldUpper",
                          "type": "uint256"
                        },
                        {
                          "internalType": "uint256",
                          "name": "oldLower",
                          "type": "uint256"
                        },
                        {
                          "internalType": "uint256",
                          "name": "duration",
                          "type": "uint256"
                        },
                        {
                          "internalType": "uint256",
                          "name": "startTimestamp",
                          "type": "uint256"
                        },
                        {
                          "internalType": "uint256",
                          "name": "oldTime",
                          "type": "uint256"
                        }
                      ],
                      "internalType": "struct Structs.ShiftData",
                      "name": "rangeShift",
                      "type": "tuple"
                    },
                    {
                      "components": [
                        {
                          "internalType": "uint256",
                          "name": "oldUpper",
                          "type": "uint256"
                        },
                        {
                          "internalType": "uint256",
                          "name": "oldLower",
                          "type": "uint256"
                        },
                        {
                          "internalType": "uint256",
                          "name": "duration",
                          "type": "uint256"
                        },
                        {
                          "internalType": "uint256",
                          "name": "startTimestamp",
                          "type": "uint256"
                        },
                        {
                          "internalType": "uint256",
                          "name": "oldTime",
                          "type": "uint256"
                        }
                      ],
                      "internalType": "struct Structs.ShiftData",
                      "name": "thresholdShift",
                      "type": "tuple"
                    },
                    {
                      "components": [
                        {
                          "internalType": "uint256",
                          "name": "shiftPercentage",
                          "type": "uint256"
                        },
                        {
                          "internalType": "uint256",
                          "name": "duration",
                          "type": "uint256"
                        },
                        {
                          "internalType": "uint256",
                          "name": "startTimestamp",
                          "type": "uint256"
                        }
                      ],
                      "internalType": "struct Structs.CenterPriceShift",
                      "name": "centerPriceShift",
                      "type": "tuple"
                    }
                  ],
                  "internalType": "struct Structs.ShiftChanges",
                  "name": "shifts",
                  "type": "tuple"
                }
              ],
              "internalType": "struct Structs.DexState",
              "name": "dexState",
              "type": "tuple"
            },
            {
              "components": [
                {
                  "internalType": "uint256",
                  "name": "liquiditySupplyToken0",
                  "type": "uint256"
                },
                {
                  "internalType": "uint256",
                  "name": "liquiditySupplyToken1",
                  "type": "uint256"
                },
                {
                  "internalType": "uint256",
                  "name": "liquidityBorrowToken0",
                  "type": "uint256"
                },
                {
                  "internalType": "uint256",
                  "name": "liquidityBorrowToken1",
                  "type": "uint256"
                },
                {
                  "internalType": "uint256",
                  "name": "liquidityWithdrawableToken0",
                  "type": "uint256"
                },
                {
                  "internalType": "uint256",
                  "name": "liquidityWithdrawableToken1",
                  "type": "uint256"
                },
                {
                  "internalType": "uint256",
                  "name": "liquidityBorrowableToken0",
                  "type": "uint256"
                },
                {
                  "internalType": "uint256",
                  "name": "liquidityBorrowableToken1",
                  "type": "uint256"
                },
                {
                  "internalType": "uint256",
                  "name": "utilizationLimitToken0",
                  "type": "uint256"
                },
                {
                  "internalType": "uint256",
                  "name": "utilizationLimitToken1",
                  "type": "uint256"
                },
                {
                  "internalType": "uint256",
                  "name": "withdrawableUntilUtilizationLimitToken0",
                  "type": "uint256"
                },
                {
                  "internalType": "uint256",
                  "name": "withdrawableUntilUtilizationLimitToken1",
                  "type": "uint256"
                },
                {
                  "internalType": "uint256",
                  "name": "borrowableUntilUtilizationLimitToken0",
                  "type": "uint256"
                },
                {
                  "internalType": "uint256",
                  "name": "borrowableUntilUtilizationLimitToken1",
                  "type": "uint256"
                },
                {
                  "components": [
                    {
                      "internalType": "bool",
                      "name": "modeWithInterest",
                      "type": "bool"
                    },
                    {
                      "internalType": "uint256",
                      "name": "supply",
                      "type": "uint256"
                    },
                    {
                      "internalType": "uint256",
                      "name": "withdrawalLimit",
                      "type": "uint256"
                    },
                    {
                      "internalType": "uint256",
                      "name": "lastUpdateTimestamp",
                      "type": "uint256"
                    },
                    {
                      "internalType": "uint256",
                      "name": "expandPercent",
                      "type": "uint256"
                    },
                    {
                      "internalType": "uint256",
                      "name": "expandDuration",
                      "type": "uint256"
                    },
                    {
                      "internalType": "uint256",
                      "name": "baseWithdrawalLimit",
                      "type": "uint256"
                    },
                    {
                      "internalType": "uint256",
                      "name": "withdrawableUntilLimit",
                      "type": "uint256"
                    },
                    {
                      "internalType": "uint256",
                      "name": "withdrawable",
                      "type": "uint256"
                    }
                  ],
                  "internalType": "struct Structs.UserSupplyData",
                  "name": "liquidityUserSupplyDataToken0",
                  "type": "tuple"
                },
                {
                  "components": [
                    {
                      "internalType": "bool",
                      "name": "modeWithInterest",
                      "type": "bool"
                    },
                    {
                      "internalType": "uint256",
                      "name": "supply",
                      "type": "uint256"
                    },
                    {
                      "internalType": "uint256",
                      "name": "withdrawalLimit",
                      "type": "uint256"
                    },
                    {
                      "internalType": "uint256",
                      "name": "lastUpdateTimestamp",
                      "type": "uint256"
                    },
                    {
                      "internalType": "uint256",
                      "name": "expandPercent",
                      "type": "uint256"
                    },
                    {
                      "internalType": "uint256",
                      "name": "expandDuration",
                      "type": "uint256"
                    },
                    {
                      "internalType": "uint256",
                      "name": "baseWithdrawalLimit",
                      "type": "uint256"
                    },
                    {
                      "internalType": "uint256",
                      "name": "withdrawableUntilLimit",
                      "type": "uint256"
                    },
                    {
                      "internalType": "uint256",
                      "name": "withdrawable",
                      "type": "uint256"
                    }
                  ],
                  "internalType": "struct Structs.UserSupplyData",
                  "name": "liquidityUserSupplyDataToken1",
                  "type": "tuple"
                },
                {
                  "components": [
                    {
                      "internalType": "bool",
                      "name": "modeWithInterest",
                      "type": "bool"
                    },
                    {
                      "internalType": "uint256",
                      "name": "borrow",
                      "type": "uint256"
                    },
                    {
                      "internalType": "uint256",
                      "name": "borrowLimit",
                      "type": "uint256"
                    },
                    {
                      "internalType": "uint256",
                      "name": "lastUpdateTimestamp",
                      "type": "uint256"
                    },
                    {
                      "internalType": "uint256",
                      "name": "expandPercent",
                      "type": "uint256"
                    },
                    {
                      "internalType": "uint256",
                      "name": "expandDuration",
                      "type": "uint256"
                    },
                    {
                      "internalType": "uint256",
                      "name": "baseBorrowLimit",
                      "type": "uint256"
                    },
                    {
                      "internalType": "uint256",
                      "name": "maxBorrowLimit",
                      "type": "uint256"
                    },
                    {
                      "internalType": "uint256",
                      "name": "borrowableUntilLimit",
                      "type": "uint256"
                    },
                    {
                      "internalType": "uint256",
                      "name": "borrowable",
                      "type": "uint256"
                    },
                    {
                      "internalType": "uint256",
                      "name": "borrowLimitUtilization",
                      "type": "uint256"
                    }
                  ],
                  "internalType": "struct Structs.UserBorrowData",
                  "name": "liquidityUserBorrowDataToken0",
                  "type": "tuple"
                },
                {
                  "components": [
                    {
                      "internalType": "bool",
                      "name": "modeWithInterest",
                      "type": "bool"
                    },
                    {
                      "internalType": "uint256",
                      "name": "borrow",
                      "type": "uint256"
                    },
                    {
                      "internalType": "uint256",
                      "name": "borrowLimit",
                      "type": "uint256"
                    },
                    {
                      "internalType": "uint256",
                      "name": "lastUpdateTimestamp",
                      "type": "uint256"
                    },
                    {
                      "internalType": "uint256",
                      "name": "expandPercent",
                      "type": "uint256"
                    },
                    {
                      "internalType": "uint256",
                      "name": "expandDuration",
                      "type": "uint256"
                    },
                    {
                      "internalType": "uint256",
                      "name": "baseBorrowLimit",
                      "type": "uint256"
                    },
                    {
                      "internalType": "uint256",
                      "name": "maxBorrowLimit",
                      "type": "uint256"
                    },
                    {
                      "internalType": "uint256",
                      "name": "borrowableUntilLimit",
                      "type": "uint256"
                    },
                    {
                      "internalType": "uint256",
                      "name": "borrowable",
                      "type": "uint256"
                    },
                    {
                      "internalType": "uint256",
                      "name": "borrowLimitUtilization",
                      "type": "uint256"
                    }
                  ],
                  "internalType": "struct Structs.UserBorrowData",
                  "name": "liquidityUserBorrowDataToken1",
                  "type": "tuple"
                }
              ],
              "internalType": "struct Structs.SwapLimitsAndAvailability",
              "name": "limitsAndAvailability",
              "type": "tuple"
            }
          ],
          "internalType": "struct Structs.DexEntireData",
          "name": "data_",
          "type": "tuple"
        }
      ],
      "stateMutability": "nonpayable",
      "type": "function"
    },
    {
      "inputs": [
        {
          "internalType": "address[]",
          "name": "dexes_",
          "type": "address[]"
        }
      ],
      "name": "getDexEntireDatas",
      "outputs": [
        {
          "components": [
            {
              "internalType": "address",
              "name": "dex",
              "type": "address"
            },
            {
              "components": [
                {
                  "internalType": "uint256",
                  "name": "dexId",
                  "type": "uint256"
                },
                {
                  "internalType": "address",
                  "name": "liquidity",
                  "type": "address"
                },
                {
                  "internalType": "address",
                  "name": "factory",
                  "type": "address"
                },
                {
                  "components": [
                    {
                      "internalType": "address",
                      "name": "shift",
                      "type": "address"
                    },
                    {
                      "internalType": "address",
                      "name": "admin",
                      "type": "address"
                    },
                    {
                      "internalType": "address",
                      "name": "colOperations",
                      "type": "address"
                    },
                    {
                      "internalType": "address",
                      "name": "debtOperations",
                      "type": "address"
                    },
                    {
                      "internalType": "address",
                      "name": "perfectOperationsAndOracle",
                      "type": "address"
                    }
                  ],
                  "internalType": "struct IFluidDexT1.Implementations",
                  "name": "implementations",
                  "type": "tuple"
                },
                {
                  "internalType": "address",
                  "name": "deployerContract",
                  "type": "address"
                },
                {
                  "internalType": "address",
                  "name": "token0",
                  "type": "address"
                },
                {
                  "internalType": "address",
                  "name": "token1",
                  "type": "address"
                },
                {
                  "internalType": "bytes32",
                  "name": "supplyToken0Slot",
                  "type": "bytes32"
                },
                {
                  "internalType": "bytes32",
                  "name": "borrowToken0Slot",
                  "type": "bytes32"
                },
                {
                  "internalType": "bytes32",
                  "name": "supplyToken1Slot",
                  "type": "bytes32"
                },
                {
                  "internalType": "bytes32",
                  "name": "borrowToken1Slot",
                  "type": "bytes32"
                },
                {
                  "internalType": "bytes32",
                  "name": "exchangePriceToken0Slot",
                  "type": "bytes32"
                },
                {
                  "internalType": "bytes32",
                  "name": "exchangePriceToken1Slot",
                  "type": "bytes32"
                },
                {
                  "internalType": "uint256",
                  "name": "oracleMapping",
                  "type": "uint256"
                }
              ],
              "internalType": "struct IFluidDexT1.ConstantViews",
              "name": "constantViews",
              "type": "tuple"
            },
            {
              "components": [
                {
                  "internalType": "uint256",
                  "name": "token0NumeratorPrecision",
                  "type": "uint256"
                },
                {
                  "internalType": "uint256",
                  "name": "token0DenominatorPrecision",
                  "type": "uint256"
                },
                {
                  "internalType": "uint256",
                  "name": "token1NumeratorPrecision",
                  "type": "uint256"
                },
                {
                  "internalType": "uint256",
                  "name": "token1DenominatorPrecision",
                  "type": "uint256"
                }
              ],
              "internalType": "struct IFluidDexT1.ConstantViews2",
              "name": "constantViews2",
              "type": "tuple"
            },
            {
              "components": [
                {
                  "internalType": "bool",
                  "name": "isSmartCollateralEnabled",
                  "type": "bool"
                },
                {
                  "internalType": "bool",
                  "name": "isSmartDebtEnabled",
                  "type": "bool"
                },
                {
                  "internalType": "uint256",
                  "name": "fee",
                  "type": "uint256"
                },
                {
                  "internalType": "uint256",
                  "name": "revenueCut",
                  "type": "uint256"
                },
                {
                  "internalType": "uint256",
                  "name": "upperRange",
                  "type": "uint256"
                },
                {
                  "internalType": "uint256",
                  "name": "lowerRange",
                  "type": "uint256"
                },
                {
                  "internalType": "uint256",
                  "name": "upperShiftThreshold",
                  "type": "uint256"
                },
                {
                  "internalType": "uint256",
                  "name": "lowerShiftThreshold",
                  "type": "uint256"
                },
                {
                  "internalType": "uint256",
                  "name": "shiftingTime",
                  "type": "uint256"
                },
                {
                  "internalType": "address",
                  "name": "centerPriceAddress",
                  "type": "address"
                },
                {
                  "internalType": "address",
                  "name": "hookAddress",
                  "type": "address"
                },
                {
                  "internalType": "uint256",
                  "name": "maxCenterPrice",
                  "type": "uint256"
                },
                {
                  "internalType": "uint256",
                  "name": "minCenterPrice",
                  "type": "uint256"
                },
                {
                  "internalType": "uint256",
                  "name": "utilizationLimitToken0",
                  "type": "uint256"
                },
                {
                  "internalType": "uint256",
                  "name": "utilizationLimitToken1",
                  "type": "uint256"
                }
              ],
              "internalType": "struct Structs.Configs",
              "name": "configs",
              "type": "tuple"
            },
            {
              "components": [
                {
                  "internalType": "uint256",
                  "name": "lastStoredPrice",
                  "type": "uint256"
                },
                {
                  "internalType": "uint256",
                  "name": "centerPrice",
                  "type": "uint256"
                },
                {
                  "internalType": "uint256",
                  "name": "upperRange",
                  "type": "uint256"
                },
                {
                  "internalType": "uint256",
                  "name": "lowerRange",
                  "type": "uint256"
                },
                {
                  "internalType": "uint256",
                  "name": "geometricMean",
                  "type": "uint256"
                },
                {
                  "internalType": "uint256",
                  "name": "supplyToken0ExchangePrice",
                  "type": "uint256"
                },
                {
                  "internalType": "uint256",
                  "name": "borrowToken0ExchangePrice",
                  "type": "uint256"
                },
                {
                  "internalType": "uint256",
                  "name": "supplyToken1ExchangePrice",
                  "type": "uint256"
                },
                {
                  "internalType": "uint256",
                  "name": "borrowToken1ExchangePrice",
                  "type": "uint256"
                }
              ],
              "internalType": "struct IFluidDexT1.PricesAndExchangePrice",
              "name": "pex",
              "type": "tuple"
            },
            {
              "components": [
                {
                  "internalType": "uint256",
                  "name": "token0RealReserves",
                  "type": "uint256"
                },
                {
                  "internalType": "uint256",
                  "name": "token1RealReserves",
                  "type": "uint256"
                },
                {
                  "internalType": "uint256",
                  "name": "token0ImaginaryReserves",
                  "type": "uint256"
                },
                {
                  "internalType": "uint256",
                  "name": "token1ImaginaryReserves",
                  "type": "uint256"
                }
              ],
              "internalType": "struct IFluidDexT1.CollateralReserves",
              "name": "colReserves",
              "type": "tuple"
            },
            {
              "components": [
                {
                  "internalType": "uint256",
                  "name": "token0Debt",
                  "type": "uint256"
                },
                {
                  "internalType": "uint256",
                  "name": "token1Debt",
                  "type": "uint256"
                },
                {
                  "internalType": "uint256",
                  "name": "token0RealReserves",
                  "type": "uint256"
                },
                {
                  "internalType": "uint256",
                  "name": "token1RealReserves",
                  "type": "uint256"
                },
                {
                  "internalType": "uint256",
                  "name": "token0ImaginaryReserves",
                  "type": "uint256"
                },
                {
                  "internalType": "uint256",
                  "name": "token1ImaginaryReserves",
                  "type": "uint256"
                }
              ],
              "internalType": "struct IFluidDexT1.DebtReserves",
              "name": "debtReserves",
              "type": "tuple"
            },
            {
              "components": [
                {
                  "internalType": "uint256",
                  "name": "lastToLastStoredPrice",
                  "type": "uint256"
                },
                {
                  "internalType": "uint256",
                  "name": "lastStoredPrice",
                  "type": "uint256"
                },
                {
                  "internalType": "uint256",
                  "name": "centerPrice",
                  "type": "uint256"
                },
                {
                  "internalType": "uint256",
                  "name": "lastUpdateTimestamp",
                  "type": "uint256"
                },
                {
                  "internalType": "uint256",
                  "name": "lastPricesTimeDiff",
                  "type": "uint256"
                },
                {
                  "internalType": "uint256",
                  "name": "oracleCheckPoint",
                  "type": "uint256"
                },
                {
                  "internalType": "uint256",
                  "name": "oracleMapping",
                  "type": "uint256"
                },
                {
                  "internalType": "uint256",
                  "name": "totalSupplyShares",
                  "type": "uint256"
                },
                {
                  "internalType": "uint256",
                  "name": "totalBorrowShares",
                  "type": "uint256"
                },
                {
                  "internalType": "bool",
                  "name": "isSwapAndArbitragePaused",
                  "type": "bool"
                },
                {
                  "components": [
                    {
                      "internalType": "bool",
                      "name": "isRangeChangeActive",
                      "type": "bool"
                    },
                    {
                      "internalType": "bool",
                      "name": "isThresholdChangeActive",
                      "type": "bool"
                    },
                    {
                      "internalType": "bool",
                      "name": "isCenterPriceShiftActive",
                      "type": "bool"
                    },
                    {
                      "components": [
                        {
                          "internalType": "uint256",
                          "name": "oldUpper",
                          "type": "uint256"
                        },
                        {
                          "internalType": "uint256",
                          "name": "oldLower",
                          "type": "uint256"
                        },
                        {
                          "internalType": "uint256",
                          "name": "duration",
                          "type": "uint256"
                        },
                        {
                          "internalType": "uint256",
                          "name": "startTimestamp",
                          "type": "uint256"
                        },
                        {
                          "internalType": "uint256",
                          "name": "oldTime",
                          "type": "uint256"
                        }
                      ],
                      "internalType": "struct Structs.ShiftData",
                      "name": "rangeShift",
                      "type": "tuple"
                    },
                    {
                      "components": [
                        {
                          "internalType": "uint256",
                          "name": "oldUpper",
                          "type": "uint256"
                        },
                        {
                          "internalType": "uint256",
                          "name": "oldLower",
                          "type": "uint256"
                        },
                        {
                          "internalType": "uint256",
                          "name": "duration",
                          "type": "uint256"
                        },
                        {
                          "internalType": "uint256",
                          "name": "startTimestamp",
                          "type": "uint256"
                        },
                        {
                          "internalType": "uint256",
                          "name": "oldTime",
                          "type": "uint256"
                        }
                      ],
                      "internalType": "struct Structs.ShiftData",
                      "name": "thresholdShift",
                      "type": "tuple"
                    },
                    {
                      "components": [
                        {
                          "internalType": "uint256",
                          "name": "shiftPercentage",
                          "type": "uint256"
                        },
                        {
                          "internalType": "uint256",
                          "name": "duration",
                          "type": "uint256"
                        },
                        {
                          "internalType": "uint256",
                          "name": "startTimestamp",
                          "type": "uint256"
                        }
                      ],
                      "internalType": "struct Structs.CenterPriceShift",
                      "name": "centerPriceShift",
                      "type": "tuple"
                    }
                  ],
                  "internalType": "struct Structs.ShiftChanges",
                  "name": "shifts",
                  "type": "tuple"
                }
              ],
              "internalType": "struct Structs.DexState",
              "name": "dexState",
              "type": "tuple"
            },
            {
              "components": [
                {
                  "internalType": "uint256",
                  "name": "liquiditySupplyToken0",
                  "type": "uint256"
                },
                {
                  "internalType": "uint256",
                  "name": "liquiditySupplyToken1",
                  "type": "uint256"
                },
                {
                  "internalType": "uint256",
                  "name": "liquidityBorrowToken0",
                  "type": "uint256"
                },
                {
                  "internalType": "uint256",
                  "name": "liquidityBorrowToken1",
                  "type": "uint256"
                },
                {
                  "internalType": "uint256",
                  "name": "liquidityWithdrawableToken0",
                  "type": "uint256"
                },
                {
                  "internalType": "uint256",
                  "name": "liquidityWithdrawableToken1",
                  "type": "uint256"
                },
                {
                  "internalType": "uint256",
                  "name": "liquidityBorrowableToken0",
                  "type": "uint256"
                },
                {
                  "internalType": "uint256",
                  "name": "liquidityBorrowableToken1",
                  "type": "uint256"
                },
                {
                  "internalType": "uint256",
                  "name": "utilizationLimitToken0",
                  "type": "uint256"
                },
                {
                  "internalType": "uint256",
                  "name": "utilizationLimitToken1",
                  "type": "uint256"
                },
                {
                  "internalType": "uint256",
                  "name": "withdrawableUntilUtilizationLimitToken0",
                  "type": "uint256"
                },
                {
                  "internalType": "uint256",
                  "name": "withdrawableUntilUtilizationLimitToken1",
                  "type": "uint256"
                },
                {
                  "internalType": "uint256",
                  "name": "borrowableUntilUtilizationLimitToken0",
                  "type": "uint256"
                },
                {
                  "internalType": "uint256",
                  "name": "borrowableUntilUtilizationLimitToken1",
                  "type": "uint256"
                },
                {
                  "components": [
                    {
                      "internalType": "bool",
                      "name": "modeWithInterest",
                      "type": "bool"
                    },
                    {
                      "internalType": "uint256",
                      "name": "supply",
                      "type": "uint256"
                    },
                    {
                      "internalType": "uint256",
                      "name": "withdrawalLimit",
                      "type": "uint256"
                    },
                    {
                      "internalType": "uint256",
                      "name": "lastUpdateTimestamp",
                      "type": "uint256"
                    },
                    {
                      "internalType": "uint256",
                      "name": "expandPercent",
                      "type": "uint256"
                    },
                    {
                      "internalType": "uint256",
                      "name": "expandDuration",
                      "type": "uint256"
                    },
                    {
                      "internalType": "uint256",
                      "name": "baseWithdrawalLimit",
                      "type": "uint256"
                    },
                    {
                      "internalType": "uint256",
                      "name": "withdrawableUntilLimit",
                      "type": "uint256"
                    },
                    {
                      "internalType": "uint256",
                      "name": "withdrawable",
                      "type": "uint256"
                    }
                  ],
                  "internalType": "struct Structs.UserSupplyData",
                  "name": "liquidityUserSupplyDataToken0",
                  "type": "tuple"
                },
                {
                  "components": [
                    {
                      "internalType": "bool",
                      "name": "modeWithInterest",
                      "type": "bool"
                    },
                    {
                      "internalType": "uint256",
                      "name": "supply",
                      "type": "uint256"
                    },
                    {
                      "internalType": "uint256",
                      "name": "withdrawalLimit",
                      "type": "uint256"
                    },
                    {
                      "internalType": "uint256",
                      "name": "lastUpdateTimestamp",
                      "type": "uint256"
                    },
                    {
                      "internalType": "uint256",
                      "name": "expandPercent",
                      "type": "uint256"
                    },
                    {
                      "internalType": "uint256",
                      "name": "expandDuration",
                      "type": "uint256"
                    },
                    {
                      "internalType": "uint256",
                      "name": "baseWithdrawalLimit",
                      "type": "uint256"
                    },
                    {
                      "internalType": "uint256",
                      "name": "withdrawableUntilLimit",
                      "type": "uint256"
                    },
                    {
                      "internalType": "uint256",
                      "name": "withdrawable",
                      "type": "uint256"
                    }
                  ],
                  "internalType": "struct Structs.UserSupplyData",
                  "name": "liquidityUserSupplyDataToken1",
                  "type": "tuple"
                },
                {
                  "components": [
                    {
                      "internalType": "bool",
                      "name": "modeWithInterest",
                      "type": "bool"
                    },
                    {
                      "internalType": "uint256",
                      "name": "borrow",
                      "type": "uint256"
                    },
                    {
                      "internalType": "uint256",
                      "name": "borrowLimit",
                      "type": "uint256"
                    },
                    {
                      "internalType": "uint256",
                      "name": "lastUpdateTimestamp",
                      "type": "uint256"
                    },
                    {
                      "internalType": "uint256",
                      "name": "expandPercent",
                      "type": "uint256"
                    },
                    {
                      "internalType": "uint256",
                      "name": "expandDuration",
                      "type": "uint256"
                    },
                    {
                      "internalType": "uint256",
                      "name": "baseBorrowLimit",
                      "type": "uint256"
                    },
                    {
                      "internalType": "uint256",
                      "name": "maxBorrowLimit",
                      "type": "uint256"
                    },
                    {
                      "internalType": "uint256",
                      "name": "borrowableUntilLimit",
                      "type": "uint256"
                    },
                    {
                      "internalType": "uint256",
                      "name": "borrowable",
                      "type": "uint256"
                    },
                    {
                      "internalType": "uint256",
                      "name": "borrowLimitUtilization",
                      "type": "uint256"
                    }
                  ],
                  "internalType": "struct Structs.UserBorrowData",
                  "name": "liquidityUserBorrowDataToken0",
                  "type": "tuple"
                },
                {
                  "components": [
                    {
                      "internalType": "bool",
                      "name": "modeWithInterest",
                      "type": "bool"
                    },
                    {
                      "internalType": "uint256",
                      "name": "borrow",
                      "type": "uint256"
                    },
                    {
                      "internalType": "uint256",
                      "name": "borrowLimit",
                      "type": "uint256"
                    },
                    {
                      "internalType": "uint256",
                      "name": "lastUpdateTimestamp",
                      "type": "uint256"
                    },
                    {
                      "internalType": "uint256",
                      "name": "expandPercent",
                      "type": "uint256"
                    },
                    {
                      "internalType": "uint256",
                      "name": "expandDuration",
                      "type": "uint256"
                    },
                    {
                      "internalType": "uint256",
                      "name": "baseBorrowLimit",
                      "type": "uint256"
                    },
                    {
                      "internalType": "uint256",
                      "name": "maxBorrowLimit",
                      "type": "uint256"
                    },
                    {
                      "internalType": "uint256",
                      "name": "borrowableUntilLimit",
                      "type": "uint256"
                    },
                    {
                      "internalType": "uint256",
                      "name": "borrowable",
                      "type": "uint256"
                    },
                    {
                      "internalType": "uint256",
                      "name": "borrowLimitUtilization",
                      "type": "uint256"
                    }
                  ],
                  "internalType": "struct Structs.UserBorrowData",
                  "name": "liquidityUserBorrowDataToken1",
                  "type": "tuple"
                }
              ],
              "internalType": "struct Structs.SwapLimitsAndAvailability",
              "name": "limitsAndAvailability",
              "type": "tuple"
            }
          ],
          "internalType": "struct Structs.DexEntireData[]",
          "name": "datas_",
          "type": "tuple[]"
        }
      ],
      "stateMutability": "nonpayable",
      "type": "function"
    },
    {
      "inputs": [
        {
          "internalType": "address",
          "name": "dex_",
          "type": "address"
        }
      ],
      "name": "getDexId",
      "outputs": [
        {
          "internalType": "uint256",
          "name": "id_",
          "type": "uint256"
        }
      ],
      "stateMutability": "view",
      "type": "function"
    },
    {
      "inputs": [
        {
          "internalType": "address",
          "name": "dex_",
          "type": "address"
        },
        {
          "internalType": "uint256[]",
          "name": "secondsAgos_",
          "type": "uint256[]"
        }
      ],
      "name": "getDexOraclePrice",
      "outputs": [
        {
          "components": [
            {
              "internalType": "uint256",
              "name": "twap1by0",
              "type": "uint256"
            },
            {
              "internalType": "uint256",
              "name": "lowestPrice1by0",
              "type": "uint256"
            },
            {
              "internalType": "uint256",
              "name": "highestPrice1by0",
              "type": "uint256"
            },
            {
              "internalType": "uint256",
              "name": "twap0by1",
              "type": "uint256"
            },
            {
              "internalType": "uint256",
              "name": "lowestPrice0by1",
              "type": "uint256"
            },
            {
              "internalType": "uint256",
              "name": "highestPrice0by1",
              "type": "uint256"
            }
          ],
          "internalType": "struct IFluidDexT1.Oracle[]",
          "name": "twaps_",
          "type": "tuple[]"
        },
        {
          "internalType": "uint256",
          "name": "currentPrice_",
          "type": "uint256"
        }
      ],
      "stateMutability": "view",
      "type": "function"
    },
    {
      "inputs": [
        {
          "internalType": "address",
          "name": "dex_",
          "type": "address"
        }
      ],
      "name": "getDexPricesAndExchangePrices",
      "outputs": [
        {
          "components": [
            {
              "internalType": "uint256",
              "name": "lastStoredPrice",
              "type": "uint256"
            },
            {
              "internalType": "uint256",
              "name": "centerPrice",
              "type": "uint256"
            },
            {
              "internalType": "uint256",
              "name": "upperRange",
              "type": "uint256"
            },
            {
              "internalType": "uint256",
              "name": "lowerRange",
              "type": "uint256"
            },
            {
              "internalType": "uint256",
              "name": "geometricMean",
              "type": "uint256"
            },
            {
              "internalType": "uint256",
              "name": "supplyToken0ExchangePrice",
              "type": "uint256"
            },
            {
              "internalType": "uint256",
              "name": "borrowToken0ExchangePrice",
              "type": "uint256"
            },
            {
              "internalType": "uint256",
              "name": "supplyToken1ExchangePrice",
              "type": "uint256"
            },
            {
              "internalType": "uint256",
              "name": "borrowToken1ExchangePrice",
              "type": "uint256"
            }
          ],
          "internalType": "struct IFluidDexT1.PricesAndExchangePrice",
          "name": "pex_",
          "type": "tuple"
        }
      ],
      "stateMutability": "nonpayable",
      "type": "function"
    },
    {
      "inputs": [
        {
          "internalType": "address",
          "name": "dex_",
          "type": "address"
        }
      ],
      "name": "getDexState",
      "outputs": [
        {
          "components": [
            {
              "internalType": "uint256",
              "name": "lastToLastStoredPrice",
              "type": "uint256"
            },
            {
              "internalType": "uint256",
              "name": "lastStoredPrice",
              "type": "uint256"
            },
            {
              "internalType": "uint256",
              "name": "centerPrice",
              "type": "uint256"
            },
            {
              "internalType": "uint256",
              "name": "lastUpdateTimestamp",
              "type": "uint256"
            },
            {
              "internalType": "uint256",
              "name": "lastPricesTimeDiff",
              "type": "uint256"
            },
            {
              "internalType": "uint256",
              "name": "oracleCheckPoint",
              "type": "uint256"
            },
            {
              "internalType": "uint256",
              "name": "oracleMapping",
              "type": "uint256"
            },
            {
              "internalType": "uint256",
              "name": "totalSupplyShares",
              "type": "uint256"
            },
            {
              "internalType": "uint256",
              "name": "totalBorrowShares",
              "type": "uint256"
            },
            {
              "internalType": "bool",
              "name": "isSwapAndArbitragePaused",
              "type": "bool"
            },
            {
              "components": [
                {
                  "internalType": "bool",
                  "name": "isRangeChangeActive",
                  "type": "bool"
                },
                {
                  "internalType": "bool",
                  "name": "isThresholdChangeActive",
                  "type": "bool"
                },
                {
                  "internalType": "bool",
                  "name": "isCenterPriceShiftActive",
                  "type": "bool"
                },
                {
                  "components": [
                    {
                      "internalType": "uint256",
                      "name": "oldUpper",
                      "type": "uint256"
                    },
                    {
                      "internalType": "uint256",
                      "name": "oldLower",
                      "type": "uint256"
                    },
                    {
                      "internalType": "uint256",
                      "name": "duration",
                      "type": "uint256"
                    },
                    {
                      "internalType": "uint256",
                      "name": "startTimestamp",
                      "type": "uint256"
                    },
                    {
                      "internalType": "uint256",
                      "name": "oldTime",
                      "type": "uint256"
                    }
                  ],
                  "internalType": "struct Structs.ShiftData",
                  "name": "rangeShift",
                  "type": "tuple"
                },
                {
                  "components": [
                    {
                      "internalType": "uint256",
                      "name": "oldUpper",
                      "type": "uint256"
                    },
                    {
                      "internalType": "uint256",
                      "name": "oldLower",
                      "type": "uint256"
                    },
                    {
                      "internalType": "uint256",
                      "name": "duration",
                      "type": "uint256"
                    },
                    {
                      "internalType": "uint256",
                      "name": "startTimestamp",
                      "type": "uint256"
                    },
                    {
                      "internalType": "uint256",
                      "name": "oldTime",
                      "type": "uint256"
                    }
                  ],
                  "internalType": "struct Structs.ShiftData",
                  "name": "thresholdShift",
                  "type": "tuple"
                },
                {
                  "components": [
                    {
                      "internalType": "uint256",
                      "name": "shiftPercentage",
                      "type": "uint256"
                    },
                    {
                      "internalType": "uint256",
                      "name": "duration",
                      "type": "uint256"
                    },
                    {
                      "internalType": "uint256",
                      "name": "startTimestamp",
                      "type": "uint256"
                    }
                  ],
                  "internalType": "struct Structs.CenterPriceShift",
                  "name": "centerPriceShift",
                  "type": "tuple"
                }
              ],
              "internalType": "struct Structs.ShiftChanges",
              "name": "shifts",
              "type": "tuple"
            }
          ],
          "internalType": "struct Structs.DexState",
          "name": "state_",
          "type": "tuple"
        }
      ],
      "stateMutability": "view",
      "type": "function"
    },
    {
      "inputs": [
        {
          "internalType": "address",
          "name": "dex_",
          "type": "address"
        }
      ],
      "name": "getDexSwapLimitsAndAvailability",
      "outputs": [
        {
          "components": [
            {
              "internalType": "uint256",
              "name": "liquiditySupplyToken0",
              "type": "uint256"
            },
            {
              "internalType": "uint256",
              "name": "liquiditySupplyToken1",
              "type": "uint256"
            },
            {
              "internalType": "uint256",
              "name": "liquidityBorrowToken0",
              "type": "uint256"
            },
            {
              "internalType": "uint256",
              "name": "liquidityBorrowToken1",
              "type": "uint256"
            },
            {
              "internalType": "uint256",
              "name": "liquidityWithdrawableToken0",
              "type": "uint256"
            },
            {
              "internalType": "uint256",
              "name": "liquidityWithdrawableToken1",
              "type": "uint256"
            },
            {
              "internalType": "uint256",
              "name": "liquidityBorrowableToken0",
              "type": "uint256"
            },
            {
              "internalType": "uint256",
              "name": "liquidityBorrowableToken1",
              "type": "uint256"
            },
            {
              "internalType": "uint256",
              "name": "utilizationLimitToken0",
              "type": "uint256"
            },
            {
              "internalType": "uint256",
              "name": "utilizationLimitToken1",
              "type": "uint256"
            },
            {
              "internalType": "uint256",
              "name": "withdrawableUntilUtilizationLimitToken0",
              "type": "uint256"
            },
            {
              "internalType": "uint256",
              "name": "withdrawableUntilUtilizationLimitToken1",
              "type": "uint256"
            },
            {
              "internalType": "uint256",
              "name": "borrowableUntilUtilizationLimitToken0",
              "type": "uint256"
            },
            {
              "internalType": "uint256",
              "name": "borrowableUntilUtilizationLimitToken1",
              "type": "uint256"
            },
            {
              "components": [
                {
                  "internalType": "bool",
                  "name": "modeWithInterest",
                  "type": "bool"
                },
                {
                  "internalType": "uint256",
                  "name": "supply",
                  "type": "uint256"
                },
                {
                  "internalType": "uint256",
                  "name": "withdrawalLimit",
                  "type": "uint256"
                },
                {
                  "internalType": "uint256",
                  "name": "lastUpdateTimestamp",
                  "type": "uint256"
                },
                {
                  "internalType": "uint256",
                  "name": "expandPercent",
                  "type": "uint256"
                },
                {
                  "internalType": "uint256",
                  "name": "expandDuration",
                  "type": "uint256"
                },
                {
                  "internalType": "uint256",
                  "name": "baseWithdrawalLimit",
                  "type": "uint256"
                },
                {
                  "internalType": "uint256",
                  "name": "withdrawableUntilLimit",
                  "type": "uint256"
                },
                {
                  "internalType": "uint256",
                  "name": "withdrawable",
                  "type": "uint256"
                }
              ],
              "internalType": "struct Structs.UserSupplyData",
              "name": "liquidityUserSupplyDataToken0",
              "type": "tuple"
            },
            {
              "components": [
                {
                  "internalType": "bool",
                  "name": "modeWithInterest",
                  "type": "bool"
                },
                {
                  "internalType": "uint256",
                  "name": "supply",
                  "type": "uint256"
                },
                {
                  "internalType": "uint256",
                  "name": "withdrawalLimit",
                  "type": "uint256"
                },
                {
                  "internalType": "uint256",
                  "name": "lastUpdateTimestamp",
                  "type": "uint256"
                },
                {
                  "internalType": "uint256",
                  "name": "expandPercent",
                  "type": "uint256"
                },
                {
                  "internalType": "uint256",
                  "name": "expandDuration",
                  "type": "uint256"
                },
                {
                  "internalType": "uint256",
                  "name": "baseWithdrawalLimit",
                  "type": "uint256"
                },
                {
                  "internalType": "uint256",
                  "name": "withdrawableUntilLimit",
                  "type": "uint256"
                },
                {
                  "internalType": "uint256",
                  "name": "withdrawable",
                  "type": "uint256"
                }
              ],
              "internalType": "struct Structs.UserSupplyData",
              "name": "liquidityUserSupplyDataToken1",
              "type": "tuple"
            },
            {
              "components": [
                {
                  "internalType": "bool",
                  "name": "modeWithInterest",
                  "type": "bool"
                },
                {
                  "internalType": "uint256",
                  "name": "borrow",
                  "type": "uint256"
                },
                {
                  "internalType": "uint256",
                  "name": "borrowLimit",
                  "type": "uint256"
                },
                {
                  "internalType": "uint256",
                  "name": "lastUpdateTimestamp",
                  "type": "uint256"
                },
                {
                  "internalType": "uint256",
                  "name": "expandPercent",
                  "type": "uint256"
                },
                {
                  "internalType": "uint256",
                  "name": "expandDuration",
                  "type": "uint256"
                },
                {
                  "internalType": "uint256",
                  "name": "baseBorrowLimit",
                  "type": "uint256"
                },
                {
                  "internalType": "uint256",
                  "name": "maxBorrowLimit",
                  "type": "uint256"
                },
                {
                  "internalType": "uint256",
                  "name": "borrowableUntilLimit",
                  "type": "uint256"
                },
                {
                  "internalType": "uint256",
                  "name": "borrowable",
                  "type": "uint256"
                },
                {
                  "internalType": "uint256",
                  "name": "borrowLimitUtilization",
                  "type": "uint256"
                }
              ],
              "internalType": "struct Structs.UserBorrowData",
              "name": "liquidityUserBorrowDataToken0",
              "type": "tuple"
            },
            {
              "components": [
                {
                  "internalType": "bool",
                  "name": "modeWithInterest",
                  "type": "bool"
                },
                {
                  "internalType": "uint256",
                  "name": "borrow",
                  "type": "uint256"
                },
                {
                  "internalType": "uint256",
                  "name": "borrowLimit",
                  "type": "uint256"
                },
                {
                  "internalType": "uint256",
                  "name": "lastUpdateTimestamp",
                  "type": "uint256"
                },
                {
                  "internalType": "uint256",
                  "name": "expandPercent",
                  "type": "uint256"
                },
                {
                  "internalType": "uint256",
                  "name": "expandDuration",
                  "type": "uint256"
                },
                {
                  "internalType": "uint256",
                  "name": "baseBorrowLimit",
                  "type": "uint256"
                },
                {
                  "internalType": "uint256",
                  "name": "maxBorrowLimit",
                  "type": "uint256"
                },
                {
                  "internalType": "uint256",
                  "name": "borrowableUntilLimit",
                  "type": "uint256"
                },
                {
                  "internalType": "uint256",
                  "name": "borrowable",
                  "type": "uint256"
                },
                {
                  "internalType": "uint256",
                  "name": "borrowLimitUtilization",
                  "type": "uint256"
                }
              ],
              "internalType": "struct Structs.UserBorrowData",
              "name": "liquidityUserBorrowDataToken1",
              "type": "tuple"
            }
          ],
          "internalType": "struct Structs.SwapLimitsAndAvailability",
          "name": "limitsAndAvailability_",
          "type": "tuple"
        }
      ],
      "stateMutability": "view",
      "type": "function"
    },
    {
      "inputs": [
        {
          "internalType": "address",
          "name": "dex_",
          "type": "address"
        }
      ],
      "name": "getDexTokens",
      "outputs": [
        {
          "internalType": "address",
          "name": "token0_",
          "type": "address"
        },
        {
          "internalType": "address",
          "name": "token1_",
          "type": "address"
        }
      ],
      "stateMutability": "view",
      "type": "function"
    },
    {
      "inputs": [
        {
          "internalType": "address",
          "name": "dex_",
          "type": "address"
        }
      ],
      "name": "getDexVariables2Raw",
      "outputs": [
        {
          "internalType": "uint256",
          "name": "",
          "type": "uint256"
        }
      ],
      "stateMutability": "view",
      "type": "function"
    },
    {
      "inputs": [
        {
          "internalType": "address",
          "name": "dex_",
          "type": "address"
        }
      ],
      "name": "getDexVariablesRaw",
      "outputs": [
        {
          "internalType": "uint256",
          "name": "",
          "type": "uint256"
        }
      ],
      "stateMutability": "view",
      "type": "function"
    },
    {
      "inputs": [
        {
          "internalType": "address",
          "name": "dex_",
          "type": "address"
        },
        {
          "internalType": "uint256",
          "name": "index_",
          "type": "uint256"
        }
      ],
      "name": "getOracleRaw",
      "outputs": [
        {
          "internalType": "uint256",
          "name": "",
          "type": "uint256"
        }
      ],
      "stateMutability": "view",
      "type": "function"
    },
    {
      "inputs": [
        {
          "internalType": "address",
          "name": "dex_",
          "type": "address"
        }
      ],
      "name": "getRangeShiftRaw",
      "outputs": [
        {
          "internalType": "uint256",
          "name": "",
          "type": "uint256"
        }
      ],
      "stateMutability": "view",
      "type": "function"
    },
    {
      "inputs": [
        {
          "internalType": "address",
          "name": "dex_",
          "type": "address"
        }
      ],
      "name": "getThresholdShiftRaw",
      "outputs": [
        {
          "internalType": "uint256",
          "name": "",
          "type": "uint256"
        }
      ],
      "stateMutability": "view",
      "type": "function"
    },
    {
      "inputs": [
        {
          "internalType": "address",
          "name": "dex_",
          "type": "address"
        }
      ],
      "name": "getTotalBorrowShares",
      "outputs": [
        {
          "internalType": "uint256",
          "name": "",
          "type": "uint256"
        }
      ],
      "stateMutability": "view",
      "type": "function"
    },
    {
      "inputs": [],
      "name": "getTotalDexes",
      "outputs": [
        {
          "internalType": "uint256",
          "name": "",
          "type": "uint256"
        }
      ],
      "stateMutability": "view",
      "type": "function"
    },
    {
      "inputs": [
        {
          "internalType": "address",
          "name": "dex_",
          "type": "address"
        }
      ],
      "name": "getTotalSupplyShares",
      "outputs": [
        {
          "internalType": "uint256",
          "name": "",
          "type": "uint256"
        }
      ],
      "stateMutability": "view",
      "type": "function"
    },
    {
      "inputs": [
        {
          "internalType": "address",
          "name": "dex_",
          "type": "address"
        },
        {
          "internalType": "address",
          "name": "user_",
          "type": "address"
        }
      ],
      "name": "getUserBorrowData",
      "outputs": [
        {
          "components": [
            {
              "internalType": "bool",
              "name": "isAllowed",
              "type": "bool"
            },
            {
              "internalType": "uint256",
              "name": "borrow",
              "type": "uint256"
            },
            {
              "internalType": "uint256",
              "name": "borrowLimit",
              "type": "uint256"
            },
            {
              "internalType": "uint256",
              "name": "lastUpdateTimestamp",
              "type": "uint256"
            },
            {
              "internalType": "uint256",
              "name": "expandPercent",
              "type": "uint256"
            },
            {
              "internalType": "uint256",
              "name": "expandDuration",
              "type": "uint256"
            },
            {
              "internalType": "uint256",
              "name": "baseBorrowLimit",
              "type": "uint256"
            },
            {
              "internalType": "uint256",
              "name": "maxBorrowLimit",
              "type": "uint256"
            },
            {
              "internalType": "uint256",
              "name": "borrowableUntilLimit",
              "type": "uint256"
            },
            {
              "internalType": "uint256",
              "name": "borrowable",
              "type": "uint256"
            },
            {
              "components": [
                {
                  "internalType": "bool",
                  "name": "modeWithInterest",
                  "type": "bool"
                },
                {
                  "internalType": "uint256",
                  "name": "borrow",
                  "type": "uint256"
                },
                {
                  "internalType": "uint256",
                  "name": "borrowLimit",
                  "type": "uint256"
                },
                {
                  "internalType": "uint256",
                  "name": "lastUpdateTimestamp",
                  "type": "uint256"
                },
                {
                  "internalType": "uint256",
                  "name": "expandPercent",
                  "type": "uint256"
                },
                {
                  "internalType": "uint256",
                  "name": "expandDuration",
                  "type": "uint256"
                },
                {
                  "internalType": "uint256",
                  "name": "baseBorrowLimit",
                  "type": "uint256"
                },
                {
                  "internalType": "uint256",
                  "name": "maxBorrowLimit",
                  "type": "uint256"
                },
                {
                  "internalType": "uint256",
                  "name": "borrowableUntilLimit",
                  "type": "uint256"
                },
                {
                  "internalType": "uint256",
                  "name": "borrowable",
                  "type": "uint256"
                },
                {
                  "internalType": "uint256",
                  "name": "borrowLimitUtilization",
                  "type": "uint256"
                }
              ],
              "internalType": "struct Structs.UserBorrowData",
              "name": "liquidityUserBorrowDataToken0",
              "type": "tuple"
            },
            {
              "components": [
                {
                  "internalType": "bool",
                  "name": "modeWithInterest",
                  "type": "bool"
                },
                {
                  "internalType": "uint256",
                  "name": "borrow",
                  "type": "uint256"
                },
                {
                  "internalType": "uint256",
                  "name": "borrowLimit",
                  "type": "uint256"
                },
                {
                  "internalType": "uint256",
                  "name": "lastUpdateTimestamp",
                  "type": "uint256"
                },
                {
                  "internalType": "uint256",
                  "name": "expandPercent",
                  "type": "uint256"
                },
                {
                  "internalType": "uint256",
                  "name": "expandDuration",
                  "type": "uint256"
                },
                {
                  "internalType": "uint256",
                  "name": "baseBorrowLimit",
                  "type": "uint256"
                },
                {
                  "internalType": "uint256",
                  "name": "maxBorrowLimit",
                  "type": "uint256"
                },
                {
                  "internalType": "uint256",
                  "name": "borrowableUntilLimit",
                  "type": "uint256"
                },
                {
                  "internalType": "uint256",
                  "name": "borrowable",
                  "type": "uint256"
                },
                {
                  "internalType": "uint256",
                  "name": "borrowLimitUtilization",
                  "type": "uint256"
                }
              ],
              "internalType": "struct Structs.UserBorrowData",
              "name": "liquidityUserBorrowDataToken1",
              "type": "tuple"
            }
          ],
          "internalType": "struct Structs.UserBorrowData",
          "name": "userBorrowData_",
          "type": "tuple"
        }
      ],
      "stateMutability": "view",
      "type": "function"
    },
    {
      "inputs": [
        {
          "internalType": "address",
          "name": "dex_",
          "type": "address"
        },
        {
          "internalType": "address",
          "name": "user_",
          "type": "address"
        }
      ],
      "name": "getUserBorrowDataRaw",
      "outputs": [
        {
          "internalType": "uint256",
          "name": "",
          "type": "uint256"
        }
      ],
      "stateMutability": "view",
      "type": "function"
    },
    {
      "inputs": [
        {
          "internalType": "address",
          "name": "dex_",
          "type": "address"
        },
        {
          "internalType": "address[]",
          "name": "users_",
          "type": "address[]"
        }
      ],
      "name": "getUserBorrowDatas",
      "outputs": [
        {
          "components": [
            {
              "internalType": "bool",
              "name": "isAllowed",
              "type": "bool"
            },
            {
              "internalType": "uint256",
              "name": "borrow",
              "type": "uint256"
            },
            {
              "internalType": "uint256",
              "name": "borrowLimit",
              "type": "uint256"
            },
            {
              "internalType": "uint256",
              "name": "lastUpdateTimestamp",
              "type": "uint256"
            },
            {
              "internalType": "uint256",
              "name": "expandPercent",
              "type": "uint256"
            },
            {
              "internalType": "uint256",
              "name": "expandDuration",
              "type": "uint256"
            },
            {
              "internalType": "uint256",
              "name": "baseBorrowLimit",
              "type": "uint256"
            },
            {
              "internalType": "uint256",
              "name": "maxBorrowLimit",
              "type": "uint256"
            },
            {
              "internalType": "uint256",
              "name": "borrowableUntilLimit",
              "type": "uint256"
            },
            {
              "internalType": "uint256",
              "name": "borrowable",
              "type": "uint256"
            },
            {
              "components": [
                {
                  "internalType": "bool",
                  "name": "modeWithInterest",
                  "type": "bool"
                },
                {
                  "internalType": "uint256",
                  "name": "borrow",
                  "type": "uint256"
                },
                {
                  "internalType": "uint256",
                  "name": "borrowLimit",
                  "type": "uint256"
                },
                {
                  "internalType": "uint256",
                  "name": "lastUpdateTimestamp",
                  "type": "uint256"
                },
                {
                  "internalType": "uint256",
                  "name": "expandPercent",
                  "type": "uint256"
                },
                {
                  "internalType": "uint256",
                  "name": "expandDuration",
                  "type": "uint256"
                },
                {
                  "internalType": "uint256",
                  "name": "baseBorrowLimit",
                  "type": "uint256"
                },
                {
                  "internalType": "uint256",
                  "name": "maxBorrowLimit",
                  "type": "uint256"
                },
                {
                  "internalType": "uint256",
                  "name": "borrowableUntilLimit",
                  "type": "uint256"
                },
                {
                  "internalType": "uint256",
                  "name": "borrowable",
                  "type": "uint256"
                },
                {
                  "internalType": "uint256",
                  "name": "borrowLimitUtilization",
                  "type": "uint256"
                }
              ],
              "internalType": "struct Structs.UserBorrowData",
              "name": "liquidityUserBorrowDataToken0",
              "type": "tuple"
            },
            {
              "components": [
                {
                  "internalType": "bool",
                  "name": "modeWithInterest",
                  "type": "bool"
                },
                {
                  "internalType": "uint256",
                  "name": "borrow",
                  "type": "uint256"
                },
                {
                  "internalType": "uint256",
                  "name": "borrowLimit",
                  "type": "uint256"
                },
                {
                  "internalType": "uint256",
                  "name": "lastUpdateTimestamp",
                  "type": "uint256"
                },
                {
                  "internalType": "uint256",
                  "name": "expandPercent",
                  "type": "uint256"
                },
                {
                  "internalType": "uint256",
                  "name": "expandDuration",
                  "type": "uint256"
                },
                {
                  "internalType": "uint256",
                  "name": "baseBorrowLimit",
                  "type": "uint256"
                },
                {
                  "internalType": "uint256",
                  "name": "maxBorrowLimit",
                  "type": "uint256"
                },
                {
                  "internalType": "uint256",
                  "name": "borrowableUntilLimit",
                  "type": "uint256"
                },
                {
                  "internalType": "uint256",
                  "name": "borrowable",
                  "type": "uint256"
                },
                {
                  "internalType": "uint256",
                  "name": "borrowLimitUtilization",
                  "type": "uint256"
                }
              ],
              "internalType": "struct Structs.UserBorrowData",
              "name": "liquidityUserBorrowDataToken1",
              "type": "tuple"
            }
          ],
          "internalType": "struct Structs.UserBorrowData[]",
          "name": "userBorrowingsData_",
          "type": "tuple[]"
        }
      ],
      "stateMutability": "view",
      "type": "function"
    },
    {
      "inputs": [
        {
          "internalType": "address",
          "name": "dex_",
          "type": "address"
        },
        {
          "internalType": "address[]",
          "name": "users_",
          "type": "address[]"
        }
      ],
      "name": "getUserBorrowSupplyDatas",
      "outputs": [
        {
          "components": [
            {
              "internalType": "bool",
              "name": "isAllowed",
              "type": "bool"
            },
            {
              "internalType": "uint256",
              "name": "supply",
              "type": "uint256"
            },
            {
              "internalType": "uint256",
              "name": "withdrawalLimit",
              "type": "uint256"
            },
            {
              "internalType": "uint256",
              "name": "lastUpdateTimestamp",
              "type": "uint256"
            },
            {
              "internalType": "uint256",
              "name": "expandPercent",
              "type": "uint256"
            },
            {
              "internalType": "uint256",
              "name": "expandDuration",
              "type": "uint256"
            },
            {
              "internalType": "uint256",
              "name": "baseWithdrawalLimit",
              "type": "uint256"
            },
            {
              "internalType": "uint256",
              "name": "withdrawableUntilLimit",
              "type": "uint256"
            },
            {
              "internalType": "uint256",
              "name": "withdrawable",
              "type": "uint256"
            },
            {
              "components": [
                {
                  "internalType": "bool",
                  "name": "modeWithInterest",
                  "type": "bool"
                },
                {
                  "internalType": "uint256",
                  "name": "supply",
                  "type": "uint256"
                },
                {
                  "internalType": "uint256",
                  "name": "withdrawalLimit",
                  "type": "uint256"
                },
                {
                  "internalType": "uint256",
                  "name": "lastUpdateTimestamp",
                  "type": "uint256"
                },
                {
                  "internalType": "uint256",
                  "name": "expandPercent",
                  "type": "uint256"
                },
                {
                  "internalType": "uint256",
                  "name": "expandDuration",
                  "type": "uint256"
                },
                {
                  "internalType": "uint256",
                  "name": "baseWithdrawalLimit",
                  "type": "uint256"
                },
                {
                  "internalType": "uint256",
                  "name": "withdrawableUntilLimit",
                  "type": "uint256"
                },
                {
                  "internalType": "uint256",
                  "name": "withdrawable",
                  "type": "uint256"
                }
              ],
              "internalType": "struct Structs.UserSupplyData",
              "name": "liquidityUserSupplyDataToken0",
              "type": "tuple"
            },
            {
              "components": [
                {
                  "internalType": "bool",
                  "name": "modeWithInterest",
                  "type": "bool"
                },
                {
                  "internalType": "uint256",
                  "name": "supply",
                  "type": "uint256"
                },
                {
                  "internalType": "uint256",
                  "name": "withdrawalLimit",
                  "type": "uint256"
                },
                {
                  "internalType": "uint256",
                  "name": "lastUpdateTimestamp",
                  "type": "uint256"
                },
                {
                  "internalType": "uint256",
                  "name": "expandPercent",
                  "type": "uint256"
                },
                {
                  "internalType": "uint256",
                  "name": "expandDuration",
                  "type": "uint256"
                },
                {
                  "internalType": "uint256",
                  "name": "baseWithdrawalLimit",
                  "type": "uint256"
                },
                {
                  "internalType": "uint256",
                  "name": "withdrawableUntilLimit",
                  "type": "uint256"
                },
                {
                  "internalType": "uint256",
                  "name": "withdrawable",
                  "type": "uint256"
                }
              ],
              "internalType": "struct Structs.UserSupplyData",
              "name": "liquidityUserSupplyDataToken1",
              "type": "tuple"
            }
          ],
          "internalType": "struct Structs.UserSupplyData[]",
          "name": "userSuppliesData_",
          "type": "tuple[]"
        },
        {
          "components": [
            {
              "internalType": "bool",
              "name": "isAllowed",
              "type": "bool"
            },
            {
              "internalType": "uint256",
              "name": "borrow",
              "type": "uint256"
            },
            {
              "internalType": "uint256",
              "name": "borrowLimit",
              "type": "uint256"
            },
            {
              "internalType": "uint256",
              "name": "lastUpdateTimestamp",
              "type": "uint256"
            },
            {
              "internalType": "uint256",
              "name": "expandPercent",
              "type": "uint256"
            },
            {
              "internalType": "uint256",
              "name": "expandDuration",
              "type": "uint256"
            },
            {
              "internalType": "uint256",
              "name": "baseBorrowLimit",
              "type": "uint256"
            },
            {
              "internalType": "uint256",
              "name": "maxBorrowLimit",
              "type": "uint256"
            },
            {
              "internalType": "uint256",
              "name": "borrowableUntilLimit",
              "type": "uint256"
            },
            {
              "internalType": "uint256",
              "name": "borrowable",
              "type": "uint256"
            },
            {
              "components": [
                {
                  "internalType": "bool",
                  "name": "modeWithInterest",
                  "type": "bool"
                },
                {
                  "internalType": "uint256",
                  "name": "borrow",
                  "type": "uint256"
                },
                {
                  "internalType": "uint256",
                  "name": "borrowLimit",
                  "type": "uint256"
                },
                {
                  "internalType": "uint256",
                  "name": "lastUpdateTimestamp",
                  "type": "uint256"
                },
                {
                  "internalType": "uint256",
                  "name": "expandPercent",
                  "type": "uint256"
                },
                {
                  "internalType": "uint256",
                  "name": "expandDuration",
                  "type": "uint256"
                },
                {
                  "internalType": "uint256",
                  "name": "baseBorrowLimit",
                  "type": "uint256"
                },
                {
                  "internalType": "uint256",
                  "name": "maxBorrowLimit",
                  "type": "uint256"
                },
                {
                  "internalType": "uint256",
                  "name": "borrowableUntilLimit",
                  "type": "uint256"
                },
                {
                  "internalType": "uint256",
                  "name": "borrowable",
                  "type": "uint256"
                },
                {
                  "internalType": "uint256",
                  "name": "borrowLimitUtilization",
                  "type": "uint256"
                }
              ],
              "internalType": "struct Structs.UserBorrowData",
              "name": "liquidityUserBorrowDataToken0",
              "type": "tuple"
            },
            {
              "components": [
                {
                  "internalType": "bool",
                  "name": "modeWithInterest",
                  "type": "bool"
                },
                {
                  "internalType": "uint256",
                  "name": "borrow",
                  "type": "uint256"
                },
                {
                  "internalType": "uint256",
                  "name": "borrowLimit",
                  "type": "uint256"
                },
                {
                  "internalType": "uint256",
                  "name": "lastUpdateTimestamp",
                  "type": "uint256"
                },
                {
                  "internalType": "uint256",
                  "name": "expandPercent",
                  "type": "uint256"
                },
                {
                  "internalType": "uint256",
                  "name": "expandDuration",
                  "type": "uint256"
                },
                {
                  "internalType": "uint256",
                  "name": "baseBorrowLimit",
                  "type": "uint256"
                },
                {
                  "internalType": "uint256",
                  "name": "maxBorrowLimit",
                  "type": "uint256"
                },
                {
                  "internalType": "uint256",
                  "name": "borrowableUntilLimit",
                  "type": "uint256"
                },
                {
                  "internalType": "uint256",
                  "name": "borrowable",
                  "type": "uint256"
                },
                {
                  "internalType": "uint256",
                  "name": "borrowLimitUtilization",
                  "type": "uint256"
                }
              ],
              "internalType": "struct Structs.UserBorrowData",
              "name": "liquidityUserBorrowDataToken1",
              "type": "tuple"
            }
          ],
          "internalType": "struct Structs.UserBorrowData[]",
          "name": "userBorrowingsData_",
          "type": "tuple[]"
        }
      ],
      "stateMutability": "view",
      "type": "function"
    },
    {
      "inputs": [
        {
          "internalType": "address",
          "name": "dex_",
          "type": "address"
        },
        {
          "internalType": "address",
          "name": "user_",
          "type": "address"
        }
      ],
      "name": "getUserSupplyData",
      "outputs": [
        {
          "components": [
            {
              "internalType": "bool",
              "name": "isAllowed",
              "type": "bool"
            },
            {
              "internalType": "uint256",
              "name": "supply",
              "type": "uint256"
            },
            {
              "internalType": "uint256",
              "name": "withdrawalLimit",
              "type": "uint256"
            },
            {
              "internalType": "uint256",
              "name": "lastUpdateTimestamp",
              "type": "uint256"
            },
            {
              "internalType": "uint256",
              "name": "expandPercent",
              "type": "uint256"
            },
            {
              "internalType": "uint256",
              "name": "expandDuration",
              "type": "uint256"
            },
            {
              "internalType": "uint256",
              "name": "baseWithdrawalLimit",
              "type": "uint256"
            },
            {
              "internalType": "uint256",
              "name": "withdrawableUntilLimit",
              "type": "uint256"
            },
            {
              "internalType": "uint256",
              "name": "withdrawable",
              "type": "uint256"
            },
            {
              "components": [
                {
                  "internalType": "bool",
                  "name": "modeWithInterest",
                  "type": "bool"
                },
                {
                  "internalType": "uint256",
                  "name": "supply",
                  "type": "uint256"
                },
                {
                  "internalType": "uint256",
                  "name": "withdrawalLimit",
                  "type": "uint256"
                },
                {
                  "internalType": "uint256",
                  "name": "lastUpdateTimestamp",
                  "type": "uint256"
                },
                {
                  "internalType": "uint256",
                  "name": "expandPercent",
                  "type": "uint256"
                },
                {
                  "internalType": "uint256",
                  "name": "expandDuration",
                  "type": "uint256"
                },
                {
                  "internalType": "uint256",
                  "name": "baseWithdrawalLimit",
                  "type": "uint256"
                },
                {
                  "internalType": "uint256",
                  "name": "withdrawableUntilLimit",
                  "type": "uint256"
                },
                {
                  "internalType": "uint256",
                  "name": "withdrawable",
                  "type": "uint256"
                }
              ],
              "internalType": "struct Structs.UserSupplyData",
              "name": "liquidityUserSupplyDataToken0",
              "type": "tuple"
            },
            {
              "components": [
                {
                  "internalType": "bool",
                  "name": "modeWithInterest",
                  "type": "bool"
                },
                {
                  "internalType": "uint256",
                  "name": "supply",
                  "type": "uint256"
                },
                {
                  "internalType": "uint256",
                  "name": "withdrawalLimit",
                  "type": "uint256"
                },
                {
                  "internalType": "uint256",
                  "name": "lastUpdateTimestamp",
                  "type": "uint256"
                },
                {
                  "internalType": "uint256",
                  "name": "expandPercent",
                  "type": "uint256"
                },
                {
                  "internalType": "uint256",
                  "name": "expandDuration",
                  "type": "uint256"
                },
                {
                  "internalType": "uint256",
                  "name": "baseWithdrawalLimit",
                  "type": "uint256"
                },
                {
                  "internalType": "uint256",
                  "name": "withdrawableUntilLimit",
                  "type": "uint256"
                },
                {
                  "internalType": "uint256",
                  "name": "withdrawable",
                  "type": "uint256"
                }
              ],
              "internalType": "struct Structs.UserSupplyData",
              "name": "liquidityUserSupplyDataToken1",
              "type": "tuple"
            }
          ],
          "internalType": "struct Structs.UserSupplyData",
          "name": "userSupplyData_",
          "type": "tuple"
        }
      ],
      "stateMutability": "view",
      "type": "function"
    },
    {
      "inputs": [
        {
          "internalType": "address",
          "name": "dex_",
          "type": "address"
        },
        {
          "internalType": "address",
          "name": "user_",
          "type": "address"
        }
      ],
      "name": "getUserSupplyDataRaw",
      "outputs": [
        {
          "internalType": "uint256",
          "name": "",
          "type": "uint256"
        }
      ],
      "stateMutability": "view",
      "type": "function"
    },
    {
      "inputs": [
        {
          "internalType": "address",
          "name": "dex_",
          "type": "address"
        },
        {
          "internalType": "address[]",
          "name": "users_",
          "type": "address[]"
        }
      ],
      "name": "getUserSupplyDatas",
      "outputs": [
        {
          "components": [
            {
              "internalType": "bool",
              "name": "isAllowed",
              "type": "bool"
            },
            {
              "internalType": "uint256",
              "name": "supply",
              "type": "uint256"
            },
            {
              "internalType": "uint256",
              "name": "withdrawalLimit",
              "type": "uint256"
            },
            {
              "internalType": "uint256",
              "name": "lastUpdateTimestamp",
              "type": "uint256"
            },
            {
              "internalType": "uint256",
              "name": "expandPercent",
              "type": "uint256"
            },
            {
              "internalType": "uint256",
              "name": "expandDuration",
              "type": "uint256"
            },
            {
              "internalType": "uint256",
              "name": "baseWithdrawalLimit",
              "type": "uint256"
            },
            {
              "internalType": "uint256",
              "name": "withdrawableUntilLimit",
              "type": "uint256"
            },
            {
              "internalType": "uint256",
              "name": "withdrawable",
              "type": "uint256"
            },
            {
              "components": [
                {
                  "internalType": "bool",
                  "name": "modeWithInterest",
                  "type": "bool"
                },
                {
                  "internalType": "uint256",
                  "name": "supply",
                  "type": "uint256"
                },
                {
                  "internalType": "uint256",
                  "name": "withdrawalLimit",
                  "type": "uint256"
                },
                {
                  "internalType": "uint256",
                  "name": "lastUpdateTimestamp",
                  "type": "uint256"
                },
                {
                  "internalType": "uint256",
                  "name": "expandPercent",
                  "type": "uint256"
                },
                {
                  "internalType": "uint256",
                  "name": "expandDuration",
                  "type": "uint256"
                },
                {
                  "internalType": "uint256",
                  "name": "baseWithdrawalLimit",
                  "type": "uint256"
                },
                {
                  "internalType": "uint256",
                  "name": "withdrawableUntilLimit",
                  "type": "uint256"
                },
                {
                  "internalType": "uint256",
                  "name": "withdrawable",
                  "type": "uint256"
                }
              ],
              "internalType": "struct Structs.UserSupplyData",
              "name": "liquidityUserSupplyDataToken0",
              "type": "tuple"
            },
            {
              "components": [
                {
                  "internalType": "bool",
                  "name": "modeWithInterest",
                  "type": "bool"
                },
                {
                  "internalType": "uint256",
                  "name": "supply",
                  "type": "uint256"
                },
                {
                  "internalType": "uint256",
                  "name": "withdrawalLimit",
                  "type": "uint256"
                },
                {
                  "internalType": "uint256",
                  "name": "lastUpdateTimestamp",
                  "type": "uint256"
                },
                {
                  "internalType": "uint256",
                  "name": "expandPercent",
                  "type": "uint256"
                },
                {
                  "internalType": "uint256",
                  "name": "expandDuration",
                  "type": "uint256"
                },
                {
                  "internalType": "uint256",
                  "name": "baseWithdrawalLimit",
                  "type": "uint256"
                },
                {
                  "internalType": "uint256",
                  "name": "withdrawableUntilLimit",
                  "type": "uint256"
                },
                {
                  "internalType": "uint256",
                  "name": "withdrawable",
                  "type": "uint256"
                }
              ],
              "internalType": "struct Structs.UserSupplyData",
              "name": "liquidityUserSupplyDataToken1",
              "type": "tuple"
            }
          ],
          "internalType": "struct Structs.UserSupplyData[]",
          "name": "userSuppliesData_",
          "type": "tuple[]"
        }
      ],
      "stateMutability": "view",
      "type": "function"
    }
  ],
  "transactionHash": "0xa09522a5ed21d66b7ce87abee173f109534601d2c32aaa2d2ae7c71a14949089",
  "args": [
    "0x93DD426446B5370F094a1e31f19991AAA6Ac0bE0",
    "0x52Aa899454998Be5b000Ad077a46Bbe360F4e497",
    "0xF82111c4354622AB12b9803cD3F6164FCE52e847",
    "0x4EC7b668BAF70d4A4b0FC7941a7708A07b6d45Be"
  ],
  "numDeployments": 3,
  "solcInputHash": "61ecbe598f88ccf057b3815ccc3132e7",
  "bytecode": "0x6101006040523480156200001257600080fd5b5060405162005e6a38038062005e6a833981016040819052620000359162000075565b6001600160a01b0393841660805291831660a052821660c0521660e052620000d2565b80516001600160a01b03811681146200007057600080fd5b919050565b600080600080608085870312156200008c57600080fd5b620000978562000058565b9350620000a76020860162000058565b9250620000b76040860162000058565b9150620000c76060860162000058565b905092959194509250565b60805160a05160c05160e051615d0a62000160600039600081816108be0152818161277c01526127c801526000818161068d015281816120eb015281816121a00152818161297801528181612a2d01528181612dff01528181612eb701528181612f710152613026015260006104c20152600081816104f601528181610e400152612aad0152615d0a6000f3fe6080604052600436106103135760003560e01c80637b05c2001161019a578063cdaf7f22116100e1578063e72ef91b1161008a578063eeb9baeb11610064578063eeb9baeb146109cf578063eee99670146109ef578063f44dfe5014610a0f57600080fd5b8063e72ef91b1461096d578063ebf11ce41461099a578063ee221c08146109af57600080fd5b8063d91a0633116100bb578063d91a0633146108f3578063e1a25ab914610913578063e5c458431461094057600080fd5b8063cdaf7f221461088c578063d1d32444146108ac578063d82ae0fa146108e057600080fd5b8063957755e6116101435780639bb65fc71161011d5780639bb65fc7146108465780639c1b042314610866578063bb39e3a11461087957600080fd5b8063957755e6146107d9578063967915d6146107f957806396cc6dbf1461082657600080fd5b80638ad1fe82116101745780638ad1fe82146107695780638bfe3db21461079757806395430c41146107ac57600080fd5b80637b05c200146106ef5780637f51d07f1461070f57806384502d951461073c57600080fd5b80633cb84b111161025e5780634f8666a0116102075780636902f79f116101e15780636902f79f1461067b5780636dd5fd85146106af578063741c0b5c146106cf57600080fd5b80634f8666a01461060e578063546b08cd1461062e57806355181f111461064e57600080fd5b8063425711371161023857806342571137146105bb578063472f2d09146105ce5780634dd3a4e0146105ee57600080fd5b80633cb84b11146105455780633f7256611461057357806340ee5d731461059b57600080fd5b80631cba0023116102c05780632861c7d11161029a5780632861c7d1146104b05780632dd31000146104e4578063345df8df1461051857600080fd5b80631cba0023146104345780632516d94014610461578063266398ef1461048e57600080fd5b806310af7715116102f157806310af7715146103bb5780631272e9ac146103e957806312e366aa146103fc57600080fd5b8063015f6cfa146103185780630208dbb01461034e578063030a68101461037b575b600080fd5b34801561032457600080fd5b50610338610333366004614116565b610a22565b6040516103459190614133565b60405180910390f35b34801561035a57600080fd5b5061036e610369366004614116565b610b75565b6040516103459190614896565b34801561038757600080fd5b5061039b610396366004614116565b610c28565b604080516001600160a01b03938416815292909116602083015201610345565b3480156103c757600080fd5b506103db6103d6366004614116565b610ca6565b604051908152602001610345565b6103db6103f73660046148a5565b610d32565b34801561040857600080fd5b5061041c6104173660046148e0565b610e39565b6040516001600160a01b039091168152602001610345565b34801561044057600080fd5b5061045461044f366004614116565b610e65565b60405161034591906148f9565b34801561046d57600080fd5b5061048161047c366004614116565b611063565b6040516103459190614908565b34801561049a57600080fd5b506104a36110b1565b6040516103459190614917565b3480156104bc57600080fd5b5061041c7f000000000000000000000000000000000000000000000000000000000000000081565b3480156104f057600080fd5b5061041c7f000000000000000000000000000000000000000000000000000000000000000081565b34801561052457600080fd5b50610538610533366004614ac4565b61115e565b6040516103459190614b58565b34801561055157600080fd5b50610565610560366004614b9b565b611215565b604051610345929190614f10565b6105866105813660046148a5565b61137b565b60408051928352602083019190915201610345565b3480156105a757600080fd5b506103db6105b6366004614116565b611489565b6103db6105c9366004614f4c565b6114d1565b3480156105da57600080fd5b506103db6105e9366004614f92565b6115c8565b3480156105fa57600080fd5b506103db610609366004614fbe565b61164a565b34801561061a57600080fd5b506103db610629366004614116565b611666565b34801561063a57600080fd5b506103db610649366004614116565b6116f6565b34801561065a57600080fd5b5061066e610669366004614116565b611794565b6040516103459190614ff7565b34801561068757600080fd5b5061041c7f000000000000000000000000000000000000000000000000000000000000000081565b3480156106bb57600080fd5b506103db6106ca366004614116565b6119ca565b3480156106db57600080fd5b506103db6106ea3660046148a5565b611a13565b3480156106fb57600080fd5b5061058661070a3660046148a5565b611aa5565b34801561071b57600080fd5b5061072f61072a366004614116565b611b38565b604051610345919061503a565b34801561074857600080fd5b5061075c610757366004614b9b565b611bc5565b6040516103459190615065565b34801561077557600080fd5b50610789610784366004615078565b611c77565b60405161034592919061511e565b3480156107a357600080fd5b50610538611cf8565b3480156107b857600080fd5b506107cc6107c7366004614b9b565b611d0a565b60405161034591906151a5565b3480156107e557600080fd5b5061072f6107f4366004614116565b611db3565b34801561080557600080fd5b50610819610814366004614fbe565b611faa565b60405161034591906151b8565b34801561083257600080fd5b506105866108413660046148a5565b61221d565b34801561085257600080fd5b506103db6108613660046148a5565b61227d565b6103db6108743660046148a5565b61236f565b6103db610887366004614f4c565b612402565b34801561089857600080fd5b506103db6108a7366004614116565b612464565b3480156108b857600080fd5b5061041c7f000000000000000000000000000000000000000000000000000000000000000081565b6103db6108ee3660046148a5565b6124ad565b3480156108ff57600080fd5b506103db61090e366004614116565b61250d565b34801561091f57600080fd5b5061093361092e366004614116565b612556565b6040516103459190615306565b34801561094c57600080fd5b5061096061095b366004614116565b612656565b6040516103459190615315565b34801561097957600080fd5b5061098d610988366004614fbe565b612852565b6040516103459190615324565b3480156109a657600080fd5b506103db612aa9565b3480156109bb57600080fd5b506103db6109ca366004614fbe565b612b2d565b3480156109db57600080fd5b506103db6109ea366004614116565b612b49565b3480156109fb57600080fd5b506103db610a0a3660046148a5565b612b89565b610586610a1d3660046148a5565b612be7565b610a716040518061012001604052806000815260200160008152602001600081526020016000815260200160008152602001600081526020016000815260200160008152602001600081525090565b816001600160a01b031663916cef4e6040518163ffffffff1660e01b8152600401600060405180830381600087803b158015610aac57600080fd5b505af1925050508015610abd575060015b610b70573d808015610aeb576040519150601f19603f3d011682016040523d82523d6000602084013e610af0565b606091505b5060208101517fdc4022c5000000000000000000000000000000000000000000000000000000007fffffffff00000000000000000000000000000000000000000000000000000000821601610b6d57610b57826004808551610b52919061547d565b612c49565b806020019051810190610b6a9190615490565b92505b50505b919050565b610b7d6138fe565b6001600160a01b0382168152610b9282612556565b6020820152610ba082611b38565b6040820152610bae82612656565b6060820152610bbc82610a22565b6080820152610bca82611db3565b60a0820152610bd882611794565b60c0820152610be682610e65565b8160e00181905250610c1d82826020015160a00151836020015160c0015184606001516101a0015185606001516101c00151612da7565b610100820152919050565b6000806000836001600160a01b031663b7791bf26040518163ffffffff1660e01b815260040161024060405180830381865afa158015610c6c573d6000803e3d6000fd5b505050506040513d601f19601f82011682018060405250810190610c909190615591565b90508060a001518160c001519250925050915091565b6040517fb5c736e4000000000000000000000000000000000000000000000000000000008152600260048201526000906001600160a01b0383169063b5c736e4906024015b602060405180830381865afa158015610d08573d6000803e3d6000fd5b505050506040513d601f19601f82011682018060405250810190610d2c9190615678565b92915050565b6040517fe980e1eb000000000000000000000000000000000000000000000000000000008152600481018490526024810183905260448101829052600160648201526000906001600160a01b0386169063e980e1eb9034906084015b60206040518083038185885af193505050508015610dc9575060408051601f3d908101601f19168201909252610dc691810190615678565b60015b610e2f573d808015610df7576040519150601f19603f3d011682016040523d82523d6000602084013e610dfc565b606091505b50610e27817fe8d35d0600000000000000000000000000000000000000000000000000000000613240565b915050610e31565b505b949350505050565b6000610d2c7f00000000000000000000000000000000000000000000000000000000000000008361328f565b610e6d613b47565b6000610e7883612464565b64ffffffffff600182901c81168452602982901c81166020850152605182901c1660408401526401ffffffff607982901c166060840152623fffff609a82901c166080840152600760b082901c1660a084015261ffff60b382901c1660c08401529050610ee483610ca6565b60e0830152610ef283611489565b610100830152610f01836119ca565b600160ff82901c811461012085015261014084018051601a84901c8316831490528051604384901c831683146020909101525160f883901c82169091146040909101529050610f4f836116f6565b61014083018051606090810151620fffff8085169091528251820151601485901c82166020909101528251820151602885901c909116604091909101529051810151603c83901c6401ffffffff169101529050610fab83611666565b610140830180516080908101516103ff8085169091528251820151601485901c9091166020909101528151810151602884901c620fffff166040909101528151810151603c84901c6401ffffffff16606091909101529051810151605d83901c62ffffff16910152905061101e8361250d565b6101408301805160a0908101516401ffffffff84166040909101528151810151620fffff602185901c81169091529151015160359290921c1660209091015250919050565b61106b613ba3565b60008061107784610c28565b915091506000611086856119ca565b90506103ff60e482901c81169060ee83901c166110a68786868585612da7565b979650505050505050565b606060006110bd612aa9565b90508067ffffffffffffffff8111156110d8576110d8614964565b604051908082528060200260200182016040528015611101578160200160208202803683370190505b50915060005b818110156111595761111d610417826001615691565b83828151811061112f5761112f6156a4565b6001600160a01b039092166020928302919091019091015280611151816156d3565b915050611107565b505090565b80516060908067ffffffffffffffff81111561117c5761117c614964565b6040519080825280602002602001820160405280156111b557816020015b6111a26138fe565b81526020019060019003908161119a5790505b50915060005b81811015610b6d576111e58482815181106111d8576111d86156a4565b6020026020010151610b75565b8382815181106111f7576111f76156a4565b6020026020010181905250808061120d906156d3565b9150506111bb565b606080828067ffffffffffffffff81111561123257611232614964565b60405190808252806020026020018201604052801561126b57816020015b611258613d80565b8152602001906001900390816112505790505b5092508067ffffffffffffffff81111561128757611287614964565b6040519080825280602002602001820160405280156112c057816020015b6112ad613e74565b8152602001906001900390816112a55790505b50915060005b81811015611371576112f9878787848181106112e4576112e46156a4565b90506020020160208101906109889190614116565b84828151811061130b5761130b6156a4565b60200260200101819052506113418787878481811061132c5761132c6156a4565b90506020020160208101906108149190614116565b838281518110611353576113536156a4565b60200260200101819052508080611369906156d3565b9150506112c6565b5050935093915050565b6040517f4d9036de0000000000000000000000000000000000000000000000000000000081526004810184905260248101839052604481018290526001606482015260009081906001600160a01b03871690634d9036de9034906084015b604080518083038185885af193505050508015611413575060408051601f3d908101601f191682019092526114109181019061570b565b60015b61147d573d808015611441576040519150601f19603f3d011682016040523d82523d6000602084013e611446565b606091505b50611471817f1458577f000000000000000000000000000000000000000000000000000000006136f9565b90935091506114809050565b50505b94509492505050565b6040517fb5c736e40000000000000000000000000000000000000000000000000000000081526004808201526000906001600160a01b0383169063b5c736e490602401610ceb565b6040517f286f0e610000000000000000000000000000000000000000000000000000000081528315156004820152602481018390526044810182905261dead60648201526000906001600160a01b0386169063286f0e619034906084015b60206040518083038185885af19350505050801561156a575060408051601f3d908101601f1916820190925261156791810190615678565b60015b610e2f573d808015611598576040519150601f19603f3d011682016040523d82523d6000602084013e61159d565b606091505b50610e27817fb3bfda9900000000000000000000000000000000000000000000000000000000613240565b6000826001600160a01b031663b5c736e46115e4600685613759565b6040518263ffffffff1660e01b815260040161160291815260200190565b602060405180830381865afa15801561161f573d6000803e3d6000fd5b505050506040513d601f19601f820116820180604052508101906116439190615678565b9392505050565b6000826001600160a01b031663b5c736e46115e460058561378f565b6040517fb5c736e4000000000000000000000000000000000000000000000000000000008152600760048201526000906080906001600160a01b0384169063b5c736e490602401602060405180830381865afa1580156116ca573d6000803e3d6000fd5b505050506040513d601f19601f820116820180604052508101906116ee9190615678565b901c92915050565b6040517fb5c736e4000000000000000000000000000000000000000000000000000000008152600760048201526000906fffffffffffffffffffffffffffffffff906001600160a01b0384169063b5c736e490602401602060405180830381865afa158015611769573d6000803e3d6000fd5b505050506040513d601f19601f8201168201806040525081019061178d9190615678565b1692915050565b6117cd6040518060c001604052806000815260200160008152602001600081526020016000815260200160008152602001600081525090565b60006117d8836119ca565b905080600216600214611820576040518060c0016040528060008152602001600081526020016000815260200160008152602001600081526020016000815250915050919050565b6040517f015f6cfa0000000000000000000000000000000000000000000000000000000081526001600160a01b0384166004820152309063015f6cfa90602401610120604051808303816000875af192505050801561189c575060408051601f3d908101601f1916820190925261189991810190615490565b60015b6118da576040518060c001604052806000815260200160008152602001600081526020016000815260200160008152602001600081525091506119c4565b6080810151604080830151606084015160c085015161010086015193517f05d455a9000000000000000000000000000000000000000000000000000000008152600481019590955260248501929092526044840152606483015260848201526001600160a01b038516906305d455a99060a40160c060405180830381865afa925050508015611986575060408051601f3d908101601f19168201909252611983918101906157a9565b60015b610b6a576040518060c00160405280600081526020016000815260200160008152602001600081526020016000815260200160008152509250610b6d565b50919050565b6040517fb5c736e4000000000000000000000000000000000000000000000000000000008152600160048201526000906001600160a01b0383169063b5c736e490602401610ceb565b6040517f15f7718c000000000000000000000000000000000000000000000000000000008152600481018490526024810183905260448101829052600160648201526000906001600160a01b038616906315f7718c906084015b6020604051808303816000875af1925050508015610dc9575060408051601f3d908101601f19168201909252610dc691810190615678565b6040517fb5488b5e0000000000000000000000000000000000000000000000000000000081526004810184905260248101839052604481018290526001606482015260009081906001600160a01b0387169063b5488b5e906084015b60408051808303816000875af1925050508015611413575060408051601f3d908101601f191682019092526114109181019061570b565b611b636040518060800160405280600081526020016000815260200160008152602001600081525090565b816001600160a01b0316631595cbd36040518163ffffffff1660e01b8152600401608060405180830381865afa158015611ba1573d6000803e3d6000fd5b505050506040513d601f19601f82011682018060405250810190610d2c919061582b565b6060818067ffffffffffffffff811115611be157611be1614964565b604051908082528060200260200182016040528015611c1a57816020015b611c07613d80565b815260200190600190039081611bff5790505b50915060005b81811015611c6e57611c3e868686848181106112e4576112e46156a4565b838281518110611c5057611c506156a4565b60200260200101819052508080611c66906156d3565b915050611c20565b50509392505050565b60606000836001600160a01b031663d811b2ce846040518263ffffffff1660e01b8152600401611ca79190615847565b600060405180830381865afa158015611cc4573d6000803e3d6000fd5b505050506040513d6000823e601f3d908101601f19168201604052611cec919081019061587f565b915091505b9250929050565b6060611d056105336110b1565b905090565b6060818067ffffffffffffffff811115611d2657611d26614964565b604051908082528060200260200182016040528015611d5f57816020015b611d4c613e74565b815260200190600190039081611d445790505b50915060005b81811015611c6e57611d838686868481811061132c5761132c6156a4565b838281518110611d9557611d956156a4565b60200260200101819052508080611dab906156d3565b915050611d65565b611dde6040518060800160405280600081526020016000815260200160008152602001600081525090565b6000611de9836119ca565b905080600116600114611e235760405180608001604052806000815260200160008152602001600081526020016000815250915050919050565b6040517f015f6cfa0000000000000000000000000000000000000000000000000000000081526001600160a01b0384166004820152309063015f6cfa90602401610120604051808303816000875af1925050508015611e9f575060408051601f3d908101601f19168201909252611e9c91810190615490565b60015b611ecf576040518060800160405280600081526020016000815260200160008152602001600081525091506119c4565b6080810151604080830151606084015160a085015160e086015193517f6560abaa000000000000000000000000000000000000000000000000000000008152600481019590955260248501929092526044840152606483015260848201526001600160a01b03851690636560abaa9060a401608060405180830381865afa925050508015611f7a575060408051601f3d908101601f19168201909252611f779181019061582b565b60015b610b6a57604051806080016040528060008152602001600081526020016000815260200160008152509250610b6d565b611fb2613e74565b6000611fbe848461164a565b9050801561221657600180821681148352611fee9082901c67ffffffffffffffff16600860ff9082901c91161b90565b602083018190526120009082906137b3565b60408301526401ffffffff608182901c166060830152613fff60a282901c16608083015262ffffff60b082901c1660a08301526103ff60d082901c1660ff60c883901c161b60c08301526103ff60e282901c1660ff60da83901c161b60e0830152602082015160408301511161207757600061208b565b8160200151826040015161208b919061547d565b61010083018190526101208301526000806120a586610c28565b6040517f967915d60000000000000000000000000000000000000000000000000000000081526001600160a01b03898116600483015280841660248301529294509092507f00000000000000000000000000000000000000000000000000000000000000009091169063967915d69060440161050060405180830381865afa158015612135573d6000803e3d6000fd5b505050506040513d601f19601f820116820180604052508101906121599190615b29565b506101408501526040517f967915d60000000000000000000000000000000000000000000000000000000081526001600160a01b03878116600483015282811660248301527f0000000000000000000000000000000000000000000000000000000000000000169063967915d69060440161050060405180830381865afa1580156121e8573d6000803e3d6000fd5b505050506040513d601f19601f8201168201806040525081019061220c9190615b29565b5061016085015250505b5092915050565b6040517f8924b76d0000000000000000000000000000000000000000000000000000000081526004810184905260248101839052604481018290526001606482015260009081906001600160a01b03871690638924b76d90608401611b01565b6040517f57e52f6f000000000000000000000000000000000000000000000000000000008152600481018490526024810183905260448101829052600160648201526000906001600160a01b038616906357e52f6f906084016020604051808303816000875af1925050508015612311575060408051601f3d908101601f1916820190925261230e91810190615678565b60015b610e2f573d80801561233f576040519150601f19603f3d011682016040523d82523d6000602084013e612344565b606091505b50610e27817f7399950600000000000000000000000000000000000000000000000000000000613240565b6040517f30acd6fd000000000000000000000000000000000000000000000000000000008152600481018490526024810183905260448101829052600160648201526000906001600160a01b038616906330acd6fd90349060840160206040518083038185885af193505050508015612311575060408051601f3d908101601f1916820190925261230e91810190615678565b6040517f2668dfaa0000000000000000000000000000000000000000000000000000000081528315156004820152602481018390526044810182905261dead60648201526000906001600160a01b03861690632668dfaa90349060840161152f565b6040517fb5c736e4000000000000000000000000000000000000000000000000000000008152600060048201819052906001600160a01b0383169063b5c736e490602401610ceb565b6040517f68766981000000000000000000000000000000000000000000000000000000008152600481018490526024810183905260448101829052600160648201526000906001600160a01b038616906368766981903490608401610d8e565b6040517fb5c736e4000000000000000000000000000000000000000000000000000000008152600860048201526000906001600160a01b0383169063b5c736e490602401610ceb565b6125f3604080516101c08101825260008082526020808301829052828401829052835160a08101855282815290810182905292830181905260608381018290526080840191909152909190820190815260006020820181905260408201819052606082018190526080820181905260a0820181905260c0820181905260e08201819052610100820181905261012082018190526101409091015290565b816001600160a01b031663b7791bf26040518163ffffffff1660e01b815260040161024060405180830381865afa158015612632573d6000803e3d6000fd5b505050506040513d601f19601f82011682018060405250810190610d2c9190615591565b6126e5604051806101e001604052806000151581526020016000151581526020016000815260200160008152602001600081526020016000815260200160008152602001600081526020016000815260200160006001600160a01b0316815260200160006001600160a01b03168152602001600081526020016000815260200160008152602001600081525090565b60006126f0836119ca565b60018181161483526002808216811460208501526201ffff9082901c166040840152607f601382901c166060840152620fffff601b82901c81166080850152602f82901c1660a08401526103ff604482901c811660c0850152604e82901c1660e084015262ffffff605882901c166101008401529050633fffffff607082901c1680156127b1576127a17f00000000000000000000000000000000000000000000000000000000000000008261328f565b6001600160a01b03166101208401525b50608e81901c633fffffff1680156127fd576127ed7f00000000000000000000000000000000000000000000000000000000000000008261328f565b6001600160a01b03166101408401525b620fffff60b483901c1660ff60ac84901c161b610160840152620fffff60d083901c1660ff60c884901c161b610180840152506103ff60e482901c81166101a084015260ee9190911c166101c0820152919050565b61285a613d80565b60006128668484612b2d565b90508015612216576001808216811483526128969082901c67ffffffffffffffff16600860ff9082901c91161b90565b602083018190526128a890829061386e565b60408301819052608182901c6401ffffffff16606084015260a282901c613fff16608084015260b082901c62ffffff1660a084015260d082901c6103ff1660c883901c60ff161b60c0840152602083015111612905576000612919565b81604001518260200151612919919061547d565b60e0830181905261010083015260008061293286610c28565b6040517fe72ef91b0000000000000000000000000000000000000000000000000000000081526001600160a01b03898116600483015280841660248301529294509092507f00000000000000000000000000000000000000000000000000000000000000009091169063e72ef91b906044016104c060405180830381865afa1580156129c2573d6000803e3d6000fd5b505050506040513d601f19601f820116820180604052508101906129e69190615be7565b506101208501526040517fe72ef91b0000000000000000000000000000000000000000000000000000000081526001600160a01b03878116600483015282811660248301527f0000000000000000000000000000000000000000000000000000000000000000169063e72ef91b906044016104c060405180830381865afa158015612a75573d6000803e3d6000fd5b505050506040513d601f19601f82011682018060405250810190612a999190615be7565b5061014085015250505092915050565b60007f00000000000000000000000000000000000000000000000000000000000000006001600160a01b03166393656c176040518163ffffffff1660e01b8152600401602060405180830381865afa158015612b09573d6000803e3d6000fd5b505050506040513d601f19601f82011682018060405250810190611d059190615678565b6000826001600160a01b031663b5c736e46115e460038561378f565b6000816001600160a01b031663f4b9a3fb6040518163ffffffff1660e01b8152600401602060405180830381865afa158015610d08573d6000803e3d6000fd5b6040517feeaff8ef000000000000000000000000000000000000000000000000000000008152600481018490526024810183905260448101829052600160648201526000906001600160a01b0386169063eeaff8ef90608401611a6d565b6040517f5b3d38d70000000000000000000000000000000000000000000000000000000081526004810184905260248101839052604481018290526001606482015260009081906001600160a01b03871690635b3d38d79034906084016113d9565b606081612c5781601f615691565b1015612cc4576040517f08c379a000000000000000000000000000000000000000000000000000000000815260206004820152600e60248201527f736c6963655f6f766572666c6f7700000000000000000000000000000000000060448201526064015b60405180910390fd5b612cce8284615691565b84511015612d38576040517f08c379a000000000000000000000000000000000000000000000000000000000815260206004820152601160248201527f736c6963655f6f75744f66426f756e64730000000000000000000000000000006044820152606401612cbb565b81158015612d555760405191506000825260208201604052612d9f565b6040519150601f8316801560200281840101848101868315602002848a0101015b81831015612d8e578051835260209283019201612d76565b5050848452601f01601f1916604052505b509392505050565b612daf613ba3565b612db7613f27565b612dbf613f27565b6040517fe72ef91b0000000000000000000000000000000000000000000000000000000081526001600160a01b03898116600483015288811660248301527f0000000000000000000000000000000000000000000000000000000000000000169063e72ef91b906044016104c060405180830381865afa158015612e47573d6000803e3d6000fd5b505050506040513d601f19601f82011682018060405250810190612e6b9190615be7565b6101c08501919091526040517fe72ef91b0000000000000000000000000000000000000000000000000000000081526001600160a01b038a8116600483015288811660248301529193507f00000000000000000000000000000000000000000000000000000000000000009091169063e72ef91b906044016104c060405180830381865afa158015612f01573d6000803e3d6000fd5b505050506040513d601f19601f82011682018060405250810190612f259190615be7565b6101e08501919091526040517f967915d60000000000000000000000000000000000000000000000000000000081526001600160a01b038a8116600483015289811660248301529192507f00000000000000000000000000000000000000000000000000000000000000009091169063967915d69060440161050060405180830381865afa158015612fbb573d6000803e3d6000fd5b505050506040513d601f19601f82011682018060405250810190612fdf9190615b29565b506102008401526040517f967915d60000000000000000000000000000000000000000000000000000000081526001600160a01b03898116600483015287811660248301527f0000000000000000000000000000000000000000000000000000000000000000169063967915d69060440161050060405180830381865afa15801561306e573d6000803e3d6000fd5b505050506040513d601f19601f820116820180604052508101906130929190615b29565b506102208401819052610180808401518086529083015160208601526101a080850151604087015283015160608601526101c08501516101009081015160808701526101e0860151015160a08601526102008501516101209081015160c08701529091015160e08501526103e89061310b908790615c82565b6131159190615c99565b61010084015260208301516103e89061312f908690615c82565b6131399190615c99565b610120840152610100830151604084015110156131b7578483604001516103e86131639190615c82565b61316d9190615c99565b6101408401819052835111613183576000613195565b6101408301518351613195919061547d565b61014084015260408301516101008401516131b0919061547d565b6101808401525b82610120015183606001511015613235578383606001516103e86131db9190615c82565b6131e59190615c99565b61016084018190526020840151116131fe576000613213565b8261016001518360200151613213919061547d565b610160840152606083015161012084015161322e919061547d565b6101a08401525b505095945050505050565b600060248351101561325457506000610d2c565b60208301517fffffffff0000000000000000000000000000000000000000000000000000000080841690821603612216575050506024015190565b60006060826000036132a5576000915050610d2c565b607f831161336e576040517fd60000000000000000000000000000000000000000000000000000000000000060208201527f940000000000000000000000000000000000000000000000000000000000000060218201527fffffffffffffffffffffffffffffffffffffffff000000000000000000000000606086901b16602282015260f884901b7fff000000000000000000000000000000000000000000000000000000000000001660368201526037015b60405160208183030381529060405290506136ea565b60ff831161344b576040517fd70000000000000000000000000000000000000000000000000000000000000060208201527f940000000000000000000000000000000000000000000000000000000000000060218201527fffffffffffffffffffffffffffffffffffffffff000000000000000000000000606086901b1660228201527f8100000000000000000000000000000000000000000000000000000000000000603682015260f884901b7fff00000000000000000000000000000000000000000000000000000000000000166037820152603801613358565b61ffff8311613529576040517fd80000000000000000000000000000000000000000000000000000000000000060208201527f940000000000000000000000000000000000000000000000000000000000000060218201527fffffffffffffffffffffffffffffffffffffffff000000000000000000000000606086901b1660228201527f820000000000000000000000000000000000000000000000000000000000000060368201527fffff00000000000000000000000000000000000000000000000000000000000060f085901b166037820152603901613358565b62ffffff8311613608576040517fd90000000000000000000000000000000000000000000000000000000000000060208201527f940000000000000000000000000000000000000000000000000000000000000060218201527fffffffffffffffffffffffffffffffffffffffff000000000000000000000000606086901b1660228201527f830000000000000000000000000000000000000000000000000000000000000060368201527fffffff000000000000000000000000000000000000000000000000000000000060e885901b166037820152603a01613358565b6040517fda0000000000000000000000000000000000000000000000000000000000000060208201527f940000000000000000000000000000000000000000000000000000000000000060218201527fffffffffffffffffffffffffffffffffffffffff000000000000000000000000606086901b1660228201527f840000000000000000000000000000000000000000000000000000000000000060368201527fffffffff0000000000000000000000000000000000000000000000000000000060e085901b166037820152603b0160405160208183030381529060405290505b80516020909101209392505050565b60008060448451101561371157506000905080611cf1565b60208401517fffffffff00000000000000000000000000000000000000000000000000000000808516908216036137515760248501519250604485015191505b509250929050565b60408051602081018390529081018390526000906060015b60405160208183030381529060405280519060200120905092915050565b604080516001600160a01b0383166020820152908101839052600090606001613771565b60d082901c6103ff1660c883901c60ff161b613fff60a284901c1661271083820204808401838110156137e857505050610d2c565b608186901c6401ffffffff164203925066ffffffffffffff604987901c1660ff604188901c161b60b087901c62ffffff166138238585615c82565b61382d9190615c99565b6138379190615691565b935080841115613845578093505b6103ff60e287901c1660ff60da88901c161b925082841115613865578293505b50505092915050565b600066ffffffffffffff604984901c1660ff604185901c161b808203613898576000915050610d2c565b612710613fff60a286901c168402046401ffffffff608186901c16420362ffffff60b087901c166138c98284615c82565b6138d39190615c99565b90508083116138e35760006138e7565b8083035b935050808403838111156138655795945050505050565b604080516101208082018352600080835283516101c0810185528181526020818101839052818601839052855160a080820188528482528183018590529681018490526060808201859052608080830186905290840191909152820183905294810182905260c0810182905260e0810182905261010081018290529182018190526101408201819052610160820181905261018082018190526101a0820152909182019081526020016139d26040518060800160405280600081526020016000815260200160008152602001600081525090565b8152602001613a66604051806101e001604052806000151581526020016000151581526020016000815260200160008152602001600081526020016000815260200160008152602001600081526020016000815260200160006001600160a01b0316815260200160006001600160a01b03168152602001600081526020016000815260200160008152602001600081525090565b8152602001613aba6040518061012001604052806000815260200160008152602001600081526020016000815260200160008152602001600081526020016000815260200160008152602001600081525090565b8152602001613aea6040518060800160405280600081526020016000815260200160008152602001600081525090565b8152602001613b286040518060c001604052806000815260200160008152602001600081526020016000815260200160008152602001600081525090565b8152602001613b35613b47565b8152602001613b42613ba3565b905290565b604051806101600160405280600081526020016000815260200160008152602001600081526020016000815260200160008152602001600081526020016000815260200160008152602001600015158152602001613b42613fab565b6040518061024001604052806000815260200160008152602001600081526020016000815260200160008152602001600081526020016000815260200160008152602001600081526020016000815260200160008152602001600081526020016000815260200160008152602001613c6260405180610120016040528060001515815260200160008152602001600081526020016000815260200160008152602001600081526020016000815260200160008152602001600081525090565b8152602001613cb860405180610120016040528060001515815260200160008152602001600081526020016000815260200160008152602001600081526020016000815260200160008152602001600081525090565b8152602001613d1c604051806101600160405280600015158152602001600081526020016000815260200160008152602001600081526020016000815260200160008152602001600081526020016000815260200160008152602001600081525090565b8152602001613b42604051806101600160405280600015158152602001600081526020016000815260200160008152602001600081526020016000815260200160008152602001600081526020016000815260200160008152602001600081525090565b6040518061016001604052806000151581526020016000815260200160008152602001600081526020016000815260200160008152602001600081526020016000815260200160008152602001613e1e60405180610120016040528060001515815260200160008152602001600081526020016000815260200160008152602001600081526020016000815260200160008152602001600081525090565b8152602001613b4260405180610120016040528060001515815260200160008152602001600081526020016000815260200160008152602001600081526020016000815260200160008152602001600081525090565b604051806101800160405280600015158152602001600081526020016000815260200160008152602001600081526020016000815260200160008152602001600081526020016000815260200160008152602001613d1c604051806101600160405280600015158152602001600081526020016000815260200160008152602001600081526020016000815260200160008152602001600081526020016000815260200160008152602001600081525090565b60405180610220016040528060008152602001600081526020016000815260200160008152602001600081526020016000815260200160008152602001600081526020016000815260200160008152602001600081526020016000815260200160008152602001600081526020016000815260200160008152602001613b42614063565b6040518060c001604052806000151581526020016000151581526020016000151581526020016140036040518060a0016040528060008152602001600081526020016000815260200160008152602001600081525090565b815260200161403a6040518060a0016040528060008152602001600081526020016000815260200160008152602001600081525090565b8152602001613b4260405180606001604052806000815260200160008152602001600081525090565b6040518060600160405280600081526020016140b06040518060a0016040528060006001600160a01b03168152602001600081526020016000815260200160008152602001600081525090565b8152602001613b426040518060e0016040528060006001600160a01b031681526020016000815260200160008152602001600081526020016000815260200160008152602001600081525090565b6001600160a01b038116811461411357600080fd5b50565b60006020828403121561412857600080fd5b8135611643816140fe565b6101208101610d2c8284805182526020810151602083015260408101516040830152606081015160608301526080810151608083015260a081015160a083015260c081015160c083015260e081015160e08301526101008082015181840152505050565b8051825260208101516141b560208401826001600160a01b03169052565b5060408101516141d060408401826001600160a01b03169052565b50606081015161422160608401826001600160a01b03808251168352806020830151166020840152806040830151166040840152806060830151166060840152806080830151166080840152505050565b50608081015161010061423e818501836001600160a01b03169052565b60a0830151915061012061425c818601846001600160a01b03169052565b60c0840151925061014061427a818701856001600160a01b03169052565b60e0850151610160878101919091529285015161018080880191909152918501516101a080880191909152908501516101c0870152918401516101e0860152830151610200850152909101516102209092019190915250565b80511515825260208101516142ec602084018215159052565b5060408101516040830152606081015160608301526080810151608083015260a081015160a083015260c081015160c083015260e081015160e083015261010080820151818401525061012080820151614350828501826001600160a01b03169052565b5050610140818101516001600160a01b031690830152610160808201519083015261018080820151908301526101a080820151908301526101c090810151910152565b80511515825260208101511515602083015260408101511515604083015260608101516143ee606084018280518252602081015160208301526040810151604083015260608101516060830152608081015160808301525050565b506080818101518051610100850152602081015161012085015260408101516101408501526060810151610160850152908101516101808401525060a0015180516101a083015260208101516101c0830152604001516101e090910152565b805182526020810151602083015260408101516040830152606081015160608301526080810151608083015260a081015160a083015260c081015160c083015260e081015160e0830152610100808201518184015250610120808201516144b78285018215159052565b5050610140808201516144cc82850182614393565b50505050565b805182526020808201518184015260408083015181850152606080840151818601526080808501518187015260a0808601518188015260c0808701518189015260e080880151818a015261010080890151818b0152610120808a0151908b0152610140808a0151908b0152610160808a0151908b0152610180808a0151908b01526101a0808a0151908b01526101c0808a015180511515828d0152988901516101e08c0152968801516102008b0152948701516102208a015292860151610240890152908501516102608801528401516102808701528301516102a08601528201516102c08501529050506101e0810151805115156102e0840152602081015161030084015260408101516103208401526060810151610340840152608081015161036084015260a081015161038084015260c08101516103a084015260e08101516103c08401526101008101516103e0840152506102008101516146aa6104008401828051151582526020810151602083015260408101516040830152606081015160608301526080810151608083015260a081015160a083015260c081015160c083015260e081015160e08301526101008082015181840152506101208082015181840152506101408082015181840152505050565b50610220015180511515610560830152602081015161058083015260408101516105a083015260608101516105c083015260808101516105e083015260a081015161060083015260c081015161062083015260e081015161064083015261010081015161066083015261012081015161068083015261014001516106a090910152565b505050565b80516001600160a01b0316825260208101516147516020840182614197565b5060408181015180516102608501526020810151610280850152908101516102a08401526060908101516102c08401528101516147926102e08401826142d3565b5060808181015180516104c085015260208101516104e0850152604081015161050085015260608101516105208501529081015161054084015260a081015161056084015260c081015161058084015260e08101516105a08401526101008101516105c08401525060a081015180516105e08401526020810151610600840152604081015161062084015260608101516106408401525060c08101518051610660840152602081015161068084015260408101516106a084015260608101516106c084015260808101516106e084015260a08101516107008401525060e081015161488161072084018261444d565b5061010081015161472d610a608401826144d2565b6111208101610d2c8284614732565b600080600080608085870312156148bb57600080fd5b84356148c6816140fe565b966020860135965060408601359560600135945092505050565b6000602082840312156148f257600080fd5b5035919050565b6103408101610d2c828461444d565b6106c08101610d2c82846144d2565b6020808252825182820181905260009190848201906040850190845b818110156149585783516001600160a01b031683529284019291840191600101614933565b50909695505050505050565b7f4e487b7100000000000000000000000000000000000000000000000000000000600052604160045260246000fd5b604051610120810167ffffffffffffffff811182821017156149b7576149b7614964565b60405290565b60405160a0810167ffffffffffffffff811182821017156149b7576149b7614964565b6040516101c0810167ffffffffffffffff811182821017156149b7576149b7614964565b6040516060810167ffffffffffffffff811182821017156149b7576149b7614964565b604051610220810167ffffffffffffffff811182821017156149b7576149b7614964565b604051610160810167ffffffffffffffff811182821017156149b7576149b7614964565b604051601f8201601f1916810167ffffffffffffffff81118282101715614a9857614a98614964565b604052919050565b600067ffffffffffffffff821115614aba57614aba614964565b5060051b60200190565b60006020808385031215614ad757600080fd5b823567ffffffffffffffff811115614aee57600080fd5b8301601f81018513614aff57600080fd5b8035614b12614b0d82614aa0565b614a6f565b81815260059190911b82018301908381019087831115614b3157600080fd5b928401925b828410156110a6578335614b49816140fe565b82529284019290840190614b36565b6020808252825182820181905260009190848201906040850190845b8181101561495857614b87838551614732565b928401926111209290920191600101614b74565b600080600060408486031215614bb057600080fd5b8335614bbb816140fe565b9250602084013567ffffffffffffffff80821115614bd857600080fd5b818601915086601f830112614bec57600080fd5b813581811115614bfb57600080fd5b8760208260051b8501011115614c1057600080fd5b6020830194508093505050509250925092565b600081518084526020808501945080840160005b83811015614d7957614d658783518051151582526020818101518382015260408083015181850152606080840151818601526080808501518187015260a0808601518188015260c0808701518189015260e080880151818a015261010080890151818b0152610120808a015180511515828d0152988901516101408c0152968801516101608b0152948701516101808a0152928601516101a0890152908501516101c08801528401516101e08701528301516102008601528201516102208501529050506101400151805115156102408301526020810151610260830152604081015161028083015260608101516102a083015260808101516102c083015260a08101516102e083015260c081015161030083015260e0810151610320830152610100015161034090910152565b610360969096019590820190600101614c37565b509495945050505050565b600081518084526020808501945080840160005b83811015614d7957614efc8783518051151582526020808201518184015260408083015181850152606080840151818601526080808501518187015260a0808601518188015260c0808701518189015260e080880151818a015261010080890151818b0152610120808a0151818c0152610140808b015180511515828e0152998a01516101608d0152978901516101808c0152958801516101a08b0152938701516101c08a0152918601516101e0890152850151610200880152840151610220870152830151610240860152820151610260850152818101516102808501529050506101600151805115156102a083015260208101516102c083015260408101516102e08301526060810151610300830152608081015161032083015260a081015161034083015260c081015161036083015260e08101516103808301526101008101516103a08301526101208101516103c083015261014001516103e090910152565b610400969096019590820190600101614d98565b604081526000614f236040830185614c23565b8281036020840152614f358185614d84565b95945050505050565b801515811461411357600080fd5b60008060008060808587031215614f6257600080fd5b8435614f6d816140fe565b93506020850135614f7d81614f3e565b93969395505050506040820135916060013590565b60008060408385031215614fa557600080fd5b8235614fb0816140fe565b946020939093013593505050565b60008060408385031215614fd157600080fd5b8235614fdc816140fe565b91506020830135614fec816140fe565b809150509250929050565b60c08101610d2c8284805182526020810151602083015260408101516040830152606081015160608301526080810151608083015260a081015160a08301525050565b8151815260208083015190820152604080830151908201526060808301519082015260808101610d2c565b6020815260006116436020830184614c23565b6000806040838503121561508b57600080fd5b8235615096816140fe565b915060208381013567ffffffffffffffff8111156150b357600080fd5b8401601f810186136150c457600080fd5b80356150d2614b0d82614aa0565b81815260059190911b820183019083810190888311156150f157600080fd5b928401925b8284101561510f578335825292840192908401906150f6565b80955050505050509250929050565b604080825283519082018190526000906020906060840190828701845b8281101561519657615183848351805182526020810151602083015260408101516040830152606081015160608301526080810151608083015260a081015160a08301525050565b60c093909301929084019060010161513b565b50505092019290925292915050565b6020815260006116436020830184614d84565b8151151581526020808301518183015260408084015181840152606080850151818501526080808601518186015260a0808701518187015260c0808801518188015260e08089015181890152610100808a0151818a0152610120808b0151818b0152610140808c015180511515828d0152808b0151610160808e0191909152818b01516101808e0152818a01516101a08e0152818901516101c08e0152818801516101e08e0152818701516102008e0152818601516102208e0152818501516102408e0152818401516102608e0152908201516102808d01528c0151805115156102a08d0152998a01516102c08c0152978901516102e08b0152958801516103008a015293870151610320890152918601516103408801528501516103608701528401516103808601528301516103a08501528201516103c084015201516103e08201526104008101610d2c565b6102408101610d2c8284614197565b6101e08101610d2c82846142d3565b6103608101610d2c82848051151582526020818101518382015260408083015181850152606080840151818601526080808501518187015260a0808601518188015260c0808701518189015260e080880151818a015261010080890151818b0152610120808a015180511515828d0152988901516101408c0152968801516101608b0152948701516101808a0152928601516101a0890152908501516101c08801528401516101e08701528301516102008601528201516102208501529050506101400151805115156102408301526020810151610260830152604081015161028083015260608101516102a083015260808101516102c083015260a08101516102e083015260c081015161030083015260e0810151610320830152610100015161034090910152565b7f4e487b7100000000000000000000000000000000000000000000000000000000600052601160045260246000fd5b81810381811115610d2c57610d2c61544e565b600061012082840312156154a357600080fd5b6154ab614993565b825181526020830151602082015260408301516040820152606083015160608201526080830151608082015260a083015160a082015260c083015160c082015260e083015160e08201526101008084015181830152508091505092915050565b8051610b70816140fe565b600060a0828403121561552857600080fd5b6155306149bd565b9050815161553d816140fe565b8152602082015161554d816140fe565b60208201526040820151615560816140fe565b60408201526060820151615573816140fe565b60608201526080820151615586816140fe565b608082015292915050565b600061024082840312156155a457600080fd5b6155ac6149e0565b825181526155bc6020840161550b565b60208201526155cd6040840161550b565b60408201526155df8460608501615516565b60608201526101006155f281850161550b565b608083015261012061560581860161550b565b60a084015261014061561881870161550b565b60c08501526101608087015160e086015261018080880151858701526101a0945084880151848701526101c0880151838701526101e088015182870152610200880151818701525050505061022084015181830152508091505092915050565b60006020828403121561568a57600080fd5b5051919050565b80820180821115610d2c57610d2c61544e565b7f4e487b7100000000000000000000000000000000000000000000000000000000600052603260045260246000fd5b60007fffffffffffffffffffffffffffffffffffffffffffffffffffffffffffffffff82036157045761570461544e565b5060010190565b6000806040838503121561571e57600080fd5b505080516020909101519092909150565b600060c0828403121561574157600080fd5b60405160c0810181811067ffffffffffffffff8211171561576457615764614964565b8060405250809150825181526020830151602082015260408301516040820152606083015160608201526080830151608082015260a083015160a08201525092915050565b600060c082840312156157bb57600080fd5b611643838361572f565b6000608082840312156157d757600080fd5b6040516080810181811067ffffffffffffffff821117156157fa576157fa614964565b8060405250809150825181526020830151602082015260408301516040820152606083015160608201525092915050565b60006080828403121561583d57600080fd5b61164383836157c5565b6020808252825182820181905260009190848201906040850190845b8181101561495857835183529284019291840191600101615863565b6000806040838503121561589257600080fd5b825167ffffffffffffffff8111156158a957600080fd5b8301601f810185136158ba57600080fd5b805160206158ca614b0d83614aa0565b82815260c092830284018201928282019190898511156158e957600080fd5b948301945b8486101561590f576159008a8761572f565b835294850194918301916158ee565b50969091015195979596505050505050565b8051610b7081614f3e565b600060e0828403121561593e57600080fd5b60405160e0810181811067ffffffffffffffff8211171561596157615961614964565b80604052508091508251615974816140fe565b808252506020830151602082015260408301516040820152606083015160608201526080830151608082015260a083015160a082015260c083015160c08201525092915050565b60008183036101a08112156159cf57600080fd5b6159d7614a04565b91508251825260a0601f19820112156159ef57600080fd5b506159f86149bd565b6020830151615a06816140fe565b8082525060408301516020820152606083015160408201526080830151606082015260a0830151608082015280602083015250615a468360c0840161592c565b604082015292915050565b60006103a08284031215615a6457600080fd5b615a6c614a27565b825181526020808401519082015260408084015190820152606080840151908201526080808401519082015260a0808401519082015260c0808401519082015260e08084015190820152610100808401519082015261012080840151908201526101408084015190820152610160808401519082015261018080840151908201526101a080840151908201526101c080840151908201526101e080840151908201529050610200615b1f848285016159bb565b9082015292915050565b600080828403610500811215615b3e57600080fd5b61016080821215615b4e57600080fd5b615b56614a4b565b9150615b6185615921565b82526020850151602083015260408501516040830152606085015160608301526080850151608083015260a085015160a083015260c085015160c083015260e085015160e0830152610100808601518184015250610120808601518184015250610140808601518184015250819350615bdc86828701615a51565b925050509250929050565b6000808284036104c0811215615bfc57600080fd5b61012080821215615c0c57600080fd5b615c14614993565b9150615c1f85615921565b82526020850151602083015260408501516040830152606085015160608301526080850151608083015260a085015160a083015260c085015160c083015260e085015160e0830152610100808601518184015250819350615bdc86828701615a51565b8082028115828204841417610d2c57610d2c61544e565b600082615ccf577f4e487b7100000000000000000000000000000000000000000000000000000000600052601260045260246000fd5b50049056fea2646970667358221220f15301783ffa8ff4bf60fab009a919e0cd53407b2ce2d11e019ebb4d17adcba164736f6c63430008150033"
}