{
  "address": "0x8eb7dB4e6a239758e4c83AfaDA7FAe2489ed989B",
  "abi": [
    {
      "inputs": [
        {
          "internalType": "string",
          "name": "infoName_",
          "type": "string"
        },
        {
          "internalType": "contract IWeETHsAccountant",
          "name": "weETHsAccountant_",
          "type": "address"
        },
        {
          "internalType": "uint256",
          "name": "minUpdateDiffPercent_",
          "type": "uint256"
        },
        {
          "internalType": "uint256",
          "name": "minHeartBeat_",
          "type": "uint256"
        }
      ],
      "stateMutability": "nonpayable",
      "type": "constructor"
    },
    {
      "inputs": [
        {
          "internalType": "uint256",
          "name": "errorId_",
          "type": "uint256"
        }
      ],
      "name": "FluidOracleError",
      "type": "error"
    },
    {
      "anonymous": false,
      "inputs": [
        {
          "indexed": false,
          "internalType": "uint256",
          "name": "oldRate",
          "type": "uint256"
        },
        {
          "indexed": false,
          "internalType": "uint256",
          "name": "newRate",
          "type": "uint256"
        }
      ],
      "name": "LogRebalanceRate",
      "type": "event"
    },
    {
      "inputs": [],
      "name": "centerPrice",
      "outputs": [
        {
          "internalType": "uint256",
          "name": "price_",
          "type": "uint256"
        }
      ],
      "stateMutability": "nonpayable",
      "type": "function"
    },
    {
      "inputs": [],
      "name": "configData",
      "outputs": [
        {
          "internalType": "uint256",
          "name": "minUpdateDiffPercent_",
          "type": "uint256"
        },
        {
          "internalType": "uint256",
          "name": "minHeartBeat_",
          "type": "uint256"
        },
        {
          "internalType": "uint40",
          "name": "lastUpdateTime_",
          "type": "uint40"
        },
        {
          "internalType": "address",
          "name": "weETHsAccountant_",
          "type": "address"
        }
      ],
      "stateMutability": "view",
      "type": "function"
    },
    {
      "inputs": [],
      "name": "configPercentDiff",
      "outputs": [
        {
          "internalType": "uint256",
          "name": "configPercentDiff_",
          "type": "uint256"
        }
      ],
      "stateMutability": "view",
      "type": "function"
    },
    {
      "inputs": [],
      "name": "getExchangeRate",
      "outputs": [
        {
          "internalType": "uint256",
          "name": "exchangeRate_",
          "type": "uint256"
        }
      ],
      "stateMutability": "view",
      "type": "function"
    },
    {
      "inputs": [],
      "name": "getExchangeRateLiquidate",
      "outputs": [
        {
          "internalType": "uint256",
          "name": "exchangeRate_",
          "type": "uint256"
        }
      ],
      "stateMutability": "view",
      "type": "function"
    },
    {
      "inputs": [],
      "name": "getExchangeRateOperate",
      "outputs": [
        {
          "internalType": "uint256",
          "name": "exchangeRate_",
          "type": "uint256"
        }
      ],
      "stateMutability": "view",
      "type": "function"
    },
    {
      "inputs": [],
      "name": "getRate",
      "outputs": [
        {
          "internalType": "uint256",
          "name": "",
          "type": "uint256"
        }
      ],
      "stateMutability": "view",
      "type": "function"
    },
    {
      "inputs": [],
      "name": "getRateSafe",
      "outputs": [
        {
          "internalType": "uint256",
          "name": "",
          "type": "uint256"
        }
      ],
      "stateMutability": "view",
      "type": "function"
    },
    {
      "inputs": [],
      "name": "infoName",
      "outputs": [
        {
          "internalType": "string",
          "name": "",
          "type": "string"
        }
      ],
      "stateMutability": "view",
      "type": "function"
    },
    {
      "inputs": [],
      "name": "rebalance",
      "outputs": [],
      "stateMutability": "nonpayable",
      "type": "function"
    },
    {
      "inputs": [],
      "name": "vault",
      "outputs": [
        {
          "internalType": "address",
          "name": "",
          "type": "address"
        }
      ],
      "stateMutability": "view",
      "type": "function"
    }
  ],
  "transactionHash": "0x4399c56df7d0d63e3e9ba493f0731b785eee07082d6a525550ecdc9ff9d18544",
  "args": [
    [
      "weETHs <> ETH exchange rate",
      "0xbe16605B22a7faCEf247363312121670DFe5afBE",
      10,
      90000
    ]
  ],
  "numDeployments": 1,
  "linkedData": {
    "nonce": "63"
  },
  "bytecode": "0x6101006040523480156200001257600080fd5b5060405162000f9e38038062000f9e8339810160408190526200003591620001c6565b836020815111806200004657508051155b156200006e5760405163c82fc46560e01b815261ea6a60048201526024015b60405180910390fd5b60200151608052826001600160a01b038116620000a35760405163c82fc46560e01b815261ebbf600482015260240162000065565b821580620000b35750620186a083115b80620000bd575081155b15620000e15760405163c82fc46560e01b815261ebbf600482015260240162000065565b6001600160a01b03841660a081905260c084905260e0839052604080516333cd77e760e11b8152905163679aefce916004808201926020929091908290030181865afa15801562000136573d6000803e3d6000fd5b505050506040513d601f19601f820116820180604052508101906200015c9190620002be565b6200016c90633b9aca00620002d8565b6001600160d81b0316600160d81b4264ffffffffff16021760005550620003049350505050565b634e487b7160e01b600052604160045260246000fd5b80516001600160a01b0381168114620001c157600080fd5b919050565b60008060008060808587031215620001dd57600080fd5b84516001600160401b0380821115620001f557600080fd5b818701915087601f8301126200020a57600080fd5b8151818111156200021f576200021f62000193565b604051601f8201601f19908116603f011681019083821181831017156200024a576200024a62000193565b81604052828152602093508a848487010111156200026757600080fd5b600091505b828210156200028b57848201840151818301850152908301906200026c565b6000848483010152809850505050620002a6818801620001a9565b60408801516060909801519699909850945050505050565b600060208284031215620002d157600080fd5b5051919050565b8082028115828204841417620002fe57634e487b7160e01b600052601160045260246000fd5b92915050565b60805160a05160c05160e051610c316200036d6000396000818160fa01526105e001526000818160d701526103ab01526000818161014b015281816102e0015281816104df0152818161069601526107c201526000818161086101526109260152610c316000f3fe608060405234801561001057600080fd5b50600436106100c95760003560e01c80639dc1056611610081578063f3190c891161005b578063f3190c89146101b2578063f763f7a6146101f4578063fbfa77cf146101fc57600080fd5b80639dc10566146101d7578063abd5f95d146101df578063e6aa216c146101b257600080fd5b8063679aefce116100b2578063679aefce146101925780637d7c2a1c146101a85780638e7bfbc0146101b257600080fd5b806320e44e43146100ce578063282a870014610192575b600080fd5b600054604080517f000000000000000000000000000000000000000000000000000000000000000081527f000000000000000000000000000000000000000000000000000000000000000060208201527b0100000000000000000000000000000000000000000000000000000090920464ffffffffff16908201527f000000000000000000000000000000000000000000000000000000000000000073ffffffffffffffffffffffffffffffffffffffff1660608201526080015b60405180910390f35b61019a610229565b604051908152602001610189565b6101b061027b565b005b6000547affffffffffffffffffffffffffffffffffffffffffffffffffffff1661019a565b61019a610491565b6101e76105c5565b60405161018991906109b4565b61019a6105d4565b6102046107be565b60405173ffffffffffffffffffffffffffffffffffffffff9091168152602001610189565b6000805461025990633b9aca00907affffffffffffffffffffffffffffffffffffffffffffffffffffff16610a7e565b7affffffffffffffffffffffffffffffffffffffffffffffffffffff16905090565b60008054604080517f282a870000000000000000000000000000000000000000000000000000000000815290517affffffffffffffffffffffffffffffffffffffffffffffffffffff909216929173ffffffffffffffffffffffffffffffffffffffff7f0000000000000000000000000000000000000000000000000000000000000000169163282a87009160048083019260209291908290030181865afa15801561032b573d6000803e3d6000fd5b505050506040513d601f19601f8201168201806040525081019061034f9190610adf565b61035d90633b9aca00610af8565b90506000818311156103875782828403620f4240028161037f5761037f610a20565b0490506103a9565b828211156103a95782838303620f424002816103a5576103a5610a20565b0490505b7f000000000000000000000000000000000000000000000000000000000000000081101561040b576040517fc82fc46500000000000000000000000000000000000000000000000000000000815261ebc1600482015260240160405180910390fd5b7affffffffffffffffffffffffffffffffffffffffffffffffffffff82167b010000000000000000000000000000000000000000000000000000004264ffffffffff16021760005560408051848152602081018490527f95f03a932c8aced8238058ac39deeaf30f8ddcbf42ade5ad3ada32f0d1338a08910160405180910390a1505050565b60008060008054906101000a90047affffffffffffffffffffffffffffffffffffffffffffffffffffff167affffffffffffffffffffffffffffffffffffffffffffffffffffff16905060007f000000000000000000000000000000000000000000000000000000000000000073ffffffffffffffffffffffffffffffffffffffff1663282a87006040518163ffffffff1660e01b8152600401602060405180830381865afa158015610548573d6000803e3d6000fd5b505050506040513d601f19601f8201168201806040525081019061056c9190610adf565b61057a90633b9aca00610af8565b9050808211156105a25781818303620f4240028161059a5761059a610a20565b049250505090565b818111156105c05781828203620f4240028161059a5761059a610a20565b505090565b60606105cf61084f565b905090565b60008054429061062b907f0000000000000000000000000000000000000000000000000000000000000000907b01000000000000000000000000000000000000000000000000000000900464ffffffffff16610b15565b101561079a5760008054604080517f679aefce00000000000000000000000000000000000000000000000000000000815290517affffffffffffffffffffffffffffffffffffffffffffffffffffff909216929173ffffffffffffffffffffffffffffffffffffffff7f0000000000000000000000000000000000000000000000000000000000000000169163679aefce9160048083019260209291908290030181865afa1580156106e1573d6000803e3d6000fd5b505050506040513d601f19601f820116820180604052508101906107059190610adf565b61071390633b9aca00610af8565b7affffffffffffffffffffffffffffffffffffffffffffffffffffff81167b010000000000000000000000000000000000000000000000000000004264ffffffffff16021760005560408051848152602081018390529192507f95f03a932c8aced8238058ac39deeaf30f8ddcbf42ade5ad3ada32f0d1338a08910160405180910390a150505b506000547affffffffffffffffffffffffffffffffffffffffffffffffffffff1690565b60007f000000000000000000000000000000000000000000000000000000000000000073ffffffffffffffffffffffffffffffffffffffff1663fbfa77cf6040518163ffffffff1660e01b8152600401602060405180830381865afa15801561082b573d6000803e3d6000fd5b505050506040513d601f19601f820116820180604052508101906105cf9190610b28565b606060005b6020811080156108ba57507f0000000000000000000000000000000000000000000000000000000000000000816020811061089157610891610b65565b1a60f81b7fff000000000000000000000000000000000000000000000000000000000000001615155b156108d157806108c981610b94565b915050610854565b60008167ffffffffffffffff8111156108ec576108ec610bcc565b6040519080825280601f01601f191660200182016040528015610916576020820181803683370190505b50905060005b828110156109ad577f0000000000000000000000000000000000000000000000000000000000000000816020811061095657610956610b65565b1a60f81b82828151811061096c5761096c610b65565b60200101907effffffffffffffffffffffffffffffffffffffffffffffffffffffffffffff1916908160001a905350806109a581610b94565b91505061091c565b5092915050565b600060208083528351808285015260005b818110156109e1578581018301518582016040015282016109c5565b5060006040828601015260407fffffffffffffffffffffffffffffffffffffffffffffffffffffffffffffffe0601f8301168501019250505092915050565b7f4e487b7100000000000000000000000000000000000000000000000000000000600052601260045260246000fd5b7f4e487b7100000000000000000000000000000000000000000000000000000000600052601160045260246000fd5b60007affffffffffffffffffffffffffffffffffffffffffffffffffffff80841680610ad3577f4e487b7100000000000000000000000000000000000000000000000000000000600052601260045260246000fd5b92169190910492915050565b600060208284031215610af157600080fd5b5051919050565b8082028115828204841417610b0f57610b0f610a4f565b92915050565b80820180821115610b0f57610b0f610a4f565b600060208284031215610b3a57600080fd5b815173ffffffffffffffffffffffffffffffffffffffff81168114610b5e57600080fd5b9392505050565b7f4e487b7100000000000000000000000000000000000000000000000000000000600052603260045260246000fd5b60007fffffffffffffffffffffffffffffffffffffffffffffffffffffffffffffffff8203610bc557610bc5610a4f565b5060010190565b7f4e487b7100000000000000000000000000000000000000000000000000000000600052604160045260246000fdfea2646970667358221220c48a5c30f6be639a80a998104c7329a03ade18312869aafc707661225129f50b64736f6c63430008150033"
}