{
  "address": "0x90551c1795392094FE6D29B758EcCD233cFAa260",
  "abi": [
    {
      "inputs": [
        {
          "internalType": "contract IFluidLiquidity",
          "name": "liquidity_",
          "type": "address"
        },
        {
          "internalType": "contract IFluidLendingFactory",
          "name": "lendingFactory_",
          "type": "address"
        },
        {
          "internalType": "contract IWETH9",
          "name": "weth_",
          "type": "address"
        }
      ],
      "stateMutability": "nonpayable",
      "type": "constructor"
    },
    {
      "inputs": [
        {
          "internalType": "uint256",
          "name": "errorId_",
          "type": "uint256"
        }
      ],
      "name": "FluidLendingError",
      "type": "error"
    },
    {
      "inputs": [
        {
          "internalType": "uint256",
          "name": "errorId_",
          "type": "uint256"
        }
      ],
      "name": "FluidLiquidityCalcsError",
      "type": "error"
    },
    {
      "inputs": [
        {
          "internalType": "uint256",
          "name": "errorId_",
          "type": "uint256"
        }
      ],
      "name": "FluidSafeTransferError",
      "type": "error"
    },
    {
      "anonymous": false,
      "inputs": [
        {
          "indexed": true,
          "internalType": "address",
          "name": "owner",
          "type": "address"
        },
        {
          "indexed": true,
          "internalType": "address",
          "name": "spender",
          "type": "address"
        },
        {
          "indexed": false,
          "internalType": "uint256",
          "name": "value",
          "type": "uint256"
        }
      ],
      "name": "Approval",
      "type": "event"
    },
    {
      "anonymous": false,
      "inputs": [
        {
          "indexed": true,
          "internalType": "address",
          "name": "sender",
          "type": "address"
        },
        {
          "indexed": true,
          "internalType": "address",
          "name": "owner",
          "type": "address"
        },
        {
          "indexed": false,
          "internalType": "uint256",
          "name": "assets",
          "type": "uint256"
        },
        {
          "indexed": false,
          "internalType": "uint256",
          "name": "shares",
          "type": "uint256"
        }
      ],
      "name": "Deposit",
      "type": "event"
    },
    {
      "anonymous": false,
      "inputs": [
        {
          "indexed": false,
          "internalType": "uint256",
          "name": "assets",
          "type": "uint256"
        }
      ],
      "name": "LogRebalance",
      "type": "event"
    },
    {
      "anonymous": false,
      "inputs": [
        {
          "indexed": true,
          "internalType": "address",
          "name": "token",
          "type": "address"
        }
      ],
      "name": "LogRescueFunds",
      "type": "event"
    },
    {
      "anonymous": false,
      "inputs": [
        {
          "indexed": false,
          "internalType": "uint256",
          "name": "tokenExchangePrice",
          "type": "uint256"
        },
        {
          "indexed": false,
          "internalType": "uint256",
          "name": "liquidityExchangePrice",
          "type": "uint256"
        }
      ],
      "name": "LogUpdateRates",
      "type": "event"
    },
    {
      "anonymous": false,
      "inputs": [
        {
          "indexed": true,
          "internalType": "address",
          "name": "rebalancer",
          "type": "address"
        }
      ],
      "name": "LogUpdateRebalancer",
      "type": "event"
    },
    {
      "anonymous": false,
      "inputs": [
        {
          "indexed": true,
          "internalType": "contract IFluidLendingRewardsRateModel",
          "name": "rewardsRateModel",
          "type": "address"
        }
      ],
      "name": "LogUpdateRewards",
      "type": "event"
    },
    {
      "anonymous": false,
      "inputs": [
        {
          "indexed": true,
          "internalType": "address",
          "name": "from",
          "type": "address"
        },
        {
          "indexed": true,
          "internalType": "address",
          "name": "to",
          "type": "address"
        },
        {
          "indexed": false,
          "internalType": "uint256",
          "name": "value",
          "type": "uint256"
        }
      ],
      "name": "Transfer",
      "type": "event"
    },
    {
      "anonymous": false,
      "inputs": [
        {
          "indexed": true,
          "internalType": "address",
          "name": "sender",
          "type": "address"
        },
        {
          "indexed": true,
          "internalType": "address",
          "name": "receiver",
          "type": "address"
        },
        {
          "indexed": true,
          "internalType": "address",
          "name": "owner",
          "type": "address"
        },
        {
          "indexed": false,
          "internalType": "uint256",
          "name": "assets",
          "type": "uint256"
        },
        {
          "indexed": false,
          "internalType": "uint256",
          "name": "shares",
          "type": "uint256"
        }
      ],
      "name": "Withdraw",
      "type": "event"
    },
    {
      "inputs": [],
      "name": "DOMAIN_SEPARATOR",
      "outputs": [
        {
          "internalType": "bytes32",
          "name": "",
          "type": "bytes32"
        }
      ],
      "stateMutability": "view",
      "type": "function"
    },
    {
      "inputs": [],
      "name": "NATIVE_TOKEN_ADDRESS",
      "outputs": [
        {
          "internalType": "address",
          "name": "",
          "type": "address"
        }
      ],
      "stateMutability": "view",
      "type": "function"
    },
    {
      "inputs": [
        {
          "internalType": "address",
          "name": "owner",
          "type": "address"
        },
        {
          "internalType": "address",
          "name": "spender",
          "type": "address"
        }
      ],
      "name": "allowance",
      "outputs": [
        {
          "internalType": "uint256",
          "name": "",
          "type": "uint256"
        }
      ],
      "stateMutability": "view",
      "type": "function"
    },
    {
      "inputs": [
        {
          "internalType": "address",
          "name": "spender",
          "type": "address"
        },
        {
          "internalType": "uint256",
          "name": "amount",
          "type": "uint256"
        }
      ],
      "name": "approve",
      "outputs": [
        {
          "internalType": "bool",
          "name": "",
          "type": "bool"
        }
      ],
      "stateMutability": "nonpayable",
      "type": "function"
    },
    {
      "inputs": [],
      "name": "asset",
      "outputs": [
        {
          "internalType": "address",
          "name": "",
          "type": "address"
        }
      ],
      "stateMutability": "view",
      "type": "function"
    },
    {
      "inputs": [
        {
          "internalType": "address",
          "name": "account",
          "type": "address"
        }
      ],
      "name": "balanceOf",
      "outputs": [
        {
          "internalType": "uint256",
          "name": "",
          "type": "uint256"
        }
      ],
      "stateMutability": "view",
      "type": "function"
    },
    {
      "inputs": [
        {
          "internalType": "uint256",
          "name": "shares_",
          "type": "uint256"
        }
      ],
      "name": "convertToAssets",
      "outputs": [
        {
          "internalType": "uint256",
          "name": "",
          "type": "uint256"
        }
      ],
      "stateMutability": "view",
      "type": "function"
    },
    {
      "inputs": [
        {
          "internalType": "uint256",
          "name": "assets_",
          "type": "uint256"
        }
      ],
      "name": "convertToShares",
      "outputs": [
        {
          "internalType": "uint256",
          "name": "",
          "type": "uint256"
        }
      ],
      "stateMutability": "view",
      "type": "function"
    },
    {
      "inputs": [],
      "name": "decimals",
      "outputs": [
        {
          "internalType": "uint8",
          "name": "",
          "type": "uint8"
        }
      ],
      "stateMutability": "view",
      "type": "function"
    },
    {
      "inputs": [
        {
          "internalType": "address",
          "name": "spender",
          "type": "address"
        },
        {
          "internalType": "uint256",
          "name": "subtractedValue",
          "type": "uint256"
        }
      ],
      "name": "decreaseAllowance",
      "outputs": [
        {
          "internalType": "bool",
          "name": "",
          "type": "bool"
        }
      ],
      "stateMutability": "nonpayable",
      "type": "function"
    },
    {
      "inputs": [
        {
          "internalType": "uint256",
          "name": "assets_",
          "type": "uint256"
        },
        {
          "internalType": "address",
          "name": "receiver_",
          "type": "address"
        }
      ],
      "name": "deposit",
      "outputs": [
        {
          "internalType": "uint256",
          "name": "shares_",
          "type": "uint256"
        }
      ],
      "stateMutability": "nonpayable",
      "type": "function"
    },
    {
      "inputs": [
        {
          "internalType": "uint256",
          "name": "assets_",
          "type": "uint256"
        },
        {
          "internalType": "address",
          "name": "receiver_",
          "type": "address"
        },
        {
          "internalType": "uint256",
          "name": "minAmountOut_",
          "type": "uint256"
        }
      ],
      "name": "deposit",
      "outputs": [
        {
          "internalType": "uint256",
          "name": "shares_",
          "type": "uint256"
        }
      ],
      "stateMutability": "nonpayable",
      "type": "function"
    },
    {
      "inputs": [
        {
          "internalType": "address",
          "name": "receiver_",
          "type": "address"
        },
        {
          "internalType": "uint256",
          "name": "minAmountOut_",
          "type": "uint256"
        }
      ],
      "name": "depositNative",
      "outputs": [
        {
          "internalType": "uint256",
          "name": "shares_",
          "type": "uint256"
        }
      ],
      "stateMutability": "payable",
      "type": "function"
    },
    {
      "inputs": [
        {
          "internalType": "address",
          "name": "receiver_",
          "type": "address"
        }
      ],
      "name": "depositNative",
      "outputs": [
        {
          "internalType": "uint256",
          "name": "shares_",
          "type": "uint256"
        }
      ],
      "stateMutability": "payable",
      "type": "function"
    },
    {
      "inputs": [
        {
          "internalType": "uint256",
          "name": "assets_",
          "type": "uint256"
        },
        {
          "internalType": "address",
          "name": "receiver_",
          "type": "address"
        },
        {
          "internalType": "uint256",
          "name": "minAmountOut_",
          "type": "uint256"
        },
        {
          "components": [
            {
              "components": [
                {
                  "internalType": "address",
                  "name": "token",
                  "type": "address"
                },
                {
                  "internalType": "uint160",
                  "name": "amount",
                  "type": "uint160"
                },
                {
                  "internalType": "uint48",
                  "name": "expiration",
                  "type": "uint48"
                },
                {
                  "internalType": "uint48",
                  "name": "nonce",
                  "type": "uint48"
                }
              ],
              "internalType": "struct IAllowanceTransfer.PermitDetails",
              "name": "details",
              "type": "tuple"
            },
            {
              "internalType": "address",
              "name": "spender",
              "type": "address"
            },
            {
              "internalType": "uint256",
              "name": "sigDeadline",
              "type": "uint256"
            }
          ],
          "internalType": "struct IAllowanceTransfer.PermitSingle",
          "name": "permit_",
          "type": "tuple"
        },
        {
          "internalType": "bytes",
          "name": "signature_",
          "type": "bytes"
        }
      ],
      "name": "depositWithSignature",
      "outputs": [
        {
          "internalType": "uint256",
          "name": "shares_",
          "type": "uint256"
        }
      ],
      "stateMutability": "nonpayable",
      "type": "function"
    },
    {
      "inputs": [
        {
          "internalType": "uint256",
          "name": "assets_",
          "type": "uint256"
        },
        {
          "internalType": "address",
          "name": "receiver_",
          "type": "address"
        },
        {
          "internalType": "uint256",
          "name": "minAmountOut_",
          "type": "uint256"
        },
        {
          "internalType": "uint256",
          "name": "deadline_",
          "type": "uint256"
        },
        {
          "internalType": "bytes",
          "name": "signature_",
          "type": "bytes"
        }
      ],
      "name": "depositWithSignatureEIP2612",
      "outputs": [
        {
          "internalType": "uint256",
          "name": "shares_",
          "type": "uint256"
        }
      ],
      "stateMutability": "nonpayable",
      "type": "function"
    },
    {
      "inputs": [],
      "name": "getData",
      "outputs": [
        {
          "internalType": "contract IFluidLiquidity",
          "name": "liquidity_",
          "type": "address"
        },
        {
          "internalType": "contract IFluidLendingFactory",
          "name": "lendingFactory_",
          "type": "address"
        },
        {
          "internalType": "contract IFluidLendingRewardsRateModel",
          "name": "lendingRewardsRateModel_",
          "type": "address"
        },
        {
          "internalType": "contract IAllowanceTransfer",
          "name": "permit2_",
          "type": "address"
        },
        {
          "internalType": "address",
          "name": "rebalancer_",
          "type": "address"
        },
        {
          "internalType": "bool",
          "name": "rewardsActive_",
          "type": "bool"
        },
        {
          "internalType": "uint256",
          "name": "liquidityBalance_",
          "type": "uint256"
        },
        {
          "internalType": "uint256",
          "name": "liquidityExchangePrice_",
          "type": "uint256"
        },
        {
          "internalType": "uint256",
          "name": "tokenExchangePrice_",
          "type": "uint256"
        }
      ],
      "stateMutability": "view",
      "type": "function"
    },
    {
      "inputs": [
        {
          "internalType": "address",
          "name": "spender",
          "type": "address"
        },
        {
          "internalType": "uint256",
          "name": "addedValue",
          "type": "uint256"
        }
      ],
      "name": "increaseAllowance",
      "outputs": [
        {
          "internalType": "bool",
          "name": "",
          "type": "bool"
        }
      ],
      "stateMutability": "nonpayable",
      "type": "function"
    },
    {
      "inputs": [
        {
          "internalType": "address",
          "name": "",
          "type": "address"
        },
        {
          "internalType": "uint256",
          "name": "",
          "type": "uint256"
        },
        {
          "internalType": "bytes",
          "name": "",
          "type": "bytes"
        }
      ],
      "name": "liquidityCallback",
      "outputs": [],
      "stateMutability": "nonpayable",
      "type": "function"
    },
    {
      "inputs": [
        {
          "internalType": "address",
          "name": "",
          "type": "address"
        }
      ],
      "name": "maxDeposit",
      "outputs": [
        {
          "internalType": "uint256",
          "name": "",
          "type": "uint256"
        }
      ],
      "stateMutability": "view",
      "type": "function"
    },
    {
      "inputs": [
        {
          "internalType": "address",
          "name": "",
          "type": "address"
        }
      ],
      "name": "maxMint",
      "outputs": [
        {
          "internalType": "uint256",
          "name": "",
          "type": "uint256"
        }
      ],
      "stateMutability": "view",
      "type": "function"
    },
    {
      "inputs": [
        {
          "internalType": "address",
          "name": "owner_",
          "type": "address"
        }
      ],
      "name": "maxRedeem",
      "outputs": [
        {
          "internalType": "uint256",
          "name": "",
          "type": "uint256"
        }
      ],
      "stateMutability": "view",
      "type": "function"
    },
    {
      "inputs": [
        {
          "internalType": "address",
          "name": "owner_",
          "type": "address"
        }
      ],
      "name": "maxWithdraw",
      "outputs": [
        {
          "internalType": "uint256",
          "name": "",
          "type": "uint256"
        }
      ],
      "stateMutability": "view",
      "type": "function"
    },
    {
      "inputs": [],
      "name": "minDeposit",
      "outputs": [
        {
          "internalType": "uint256",
          "name": "",
          "type": "uint256"
        }
      ],
      "stateMutability": "view",
      "type": "function"
    },
    {
      "inputs": [
        {
          "internalType": "uint256",
          "name": "shares_",
          "type": "uint256"
        },
        {
          "internalType": "address",
          "name": "receiver_",
          "type": "address"
        },
        {
          "internalType": "uint256",
          "name": "maxAssets_",
          "type": "uint256"
        }
      ],
      "name": "mint",
      "outputs": [
        {
          "internalType": "uint256",
          "name": "assets_",
          "type": "uint256"
        }
      ],
      "stateMutability": "nonpayable",
      "type": "function"
    },
    {
      "inputs": [
        {
          "internalType": "uint256",
          "name": "shares_",
          "type": "uint256"
        },
        {
          "internalType": "address",
          "name": "receiver_",
          "type": "address"
        }
      ],
      "name": "mint",
      "outputs": [
        {
          "internalType": "uint256",
          "name": "assets_",
          "type": "uint256"
        }
      ],
      "stateMutability": "nonpayable",
      "type": "function"
    },
    {
      "inputs": [
        {
          "internalType": "uint256",
          "name": "shares_",
          "type": "uint256"
        },
        {
          "internalType": "address",
          "name": "receiver_",
          "type": "address"
        }
      ],
      "name": "mintNative",
      "outputs": [
        {
          "internalType": "uint256",
          "name": "assets_",
          "type": "uint256"
        }
      ],
      "stateMutability": "payable",
      "type": "function"
    },
    {
      "inputs": [
        {
          "internalType": "uint256",
          "name": "shares_",
          "type": "uint256"
        },
        {
          "internalType": "address",
          "name": "receiver_",
          "type": "address"
        },
        {
          "internalType": "uint256",
          "name": "maxAssets_",
          "type": "uint256"
        }
      ],
      "name": "mintNative",
      "outputs": [
        {
          "internalType": "uint256",
          "name": "assets_",
          "type": "uint256"
        }
      ],
      "stateMutability": "payable",
      "type": "function"
    },
    {
      "inputs": [
        {
          "internalType": "uint256",
          "name": "shares_",
          "type": "uint256"
        },
        {
          "internalType": "address",
          "name": "receiver_",
          "type": "address"
        },
        {
          "internalType": "uint256",
          "name": "maxAssets_",
          "type": "uint256"
        },
        {
          "components": [
            {
              "components": [
                {
                  "internalType": "address",
                  "name": "token",
                  "type": "address"
                },
                {
                  "internalType": "uint160",
                  "name": "amount",
                  "type": "uint160"
                },
                {
                  "internalType": "uint48",
                  "name": "expiration",
                  "type": "uint48"
                },
                {
                  "internalType": "uint48",
                  "name": "nonce",
                  "type": "uint48"
                }
              ],
              "internalType": "struct IAllowanceTransfer.PermitDetails",
              "name": "details",
              "type": "tuple"
            },
            {
              "internalType": "address",
              "name": "spender",
              "type": "address"
            },
            {
              "internalType": "uint256",
              "name": "sigDeadline",
              "type": "uint256"
            }
          ],
          "internalType": "struct IAllowanceTransfer.PermitSingle",
          "name": "permit_",
          "type": "tuple"
        },
        {
          "internalType": "bytes",
          "name": "signature_",
          "type": "bytes"
        }
      ],
      "name": "mintWithSignature",
      "outputs": [
        {
          "internalType": "uint256",
          "name": "assets_",
          "type": "uint256"
        }
      ],
      "stateMutability": "nonpayable",
      "type": "function"
    },
    {
      "inputs": [
        {
          "internalType": "uint256",
          "name": "shares_",
          "type": "uint256"
        },
        {
          "internalType": "address",
          "name": "receiver_",
          "type": "address"
        },
        {
          "internalType": "uint256",
          "name": "maxAssets_",
          "type": "uint256"
        },
        {
          "internalType": "uint256",
          "name": "deadline_",
          "type": "uint256"
        },
        {
          "internalType": "bytes",
          "name": "signature_",
          "type": "bytes"
        }
      ],
      "name": "mintWithSignatureEIP2612",
      "outputs": [
        {
          "internalType": "uint256",
          "name": "assets_",
          "type": "uint256"
        }
      ],
      "stateMutability": "nonpayable",
      "type": "function"
    },
    {
      "inputs": [],
      "name": "name",
      "outputs": [
        {
          "internalType": "string",
          "name": "",
          "type": "string"
        }
      ],
      "stateMutability": "view",
      "type": "function"
    },
    {
      "inputs": [
        {
          "internalType": "address",
          "name": "owner",
          "type": "address"
        }
      ],
      "name": "nonces",
      "outputs": [
        {
          "internalType": "uint256",
          "name": "",
          "type": "uint256"
        }
      ],
      "stateMutability": "view",
      "type": "function"
    },
    {
      "inputs": [
        {
          "internalType": "address",
          "name": "owner",
          "type": "address"
        },
        {
          "internalType": "address",
          "name": "spender",
          "type": "address"
        },
        {
          "internalType": "uint256",
          "name": "value",
          "type": "uint256"
        },
        {
          "internalType": "uint256",
          "name": "deadline",
          "type": "uint256"
        },
        {
          "internalType": "uint8",
          "name": "v",
          "type": "uint8"
        },
        {
          "internalType": "bytes32",
          "name": "r",
          "type": "bytes32"
        },
        {
          "internalType": "bytes32",
          "name": "s",
          "type": "bytes32"
        }
      ],
      "name": "permit",
      "outputs": [],
      "stateMutability": "nonpayable",
      "type": "function"
    },
    {
      "inputs": [
        {
          "internalType": "uint256",
          "name": "assets_",
          "type": "uint256"
        }
      ],
      "name": "previewDeposit",
      "outputs": [
        {
          "internalType": "uint256",
          "name": "",
          "type": "uint256"
        }
      ],
      "stateMutability": "view",
      "type": "function"
    },
    {
      "inputs": [
        {
          "internalType": "uint256",
          "name": "shares_",
          "type": "uint256"
        }
      ],
      "name": "previewMint",
      "outputs": [
        {
          "internalType": "uint256",
          "name": "",
          "type": "uint256"
        }
      ],
      "stateMutability": "view",
      "type": "function"
    },
    {
      "inputs": [
        {
          "internalType": "uint256",
          "name": "shares_",
          "type": "uint256"
        }
      ],
      "name": "previewRedeem",
      "outputs": [
        {
          "internalType": "uint256",
          "name": "",
          "type": "uint256"
        }
      ],
      "stateMutability": "view",
      "type": "function"
    },
    {
      "inputs": [
        {
          "internalType": "uint256",
          "name": "assets_",
          "type": "uint256"
        }
      ],
      "name": "previewWithdraw",
      "outputs": [
        {
          "internalType": "uint256",
          "name": "",
          "type": "uint256"
        }
      ],
      "stateMutability": "view",
      "type": "function"
    },
    {
      "inputs": [],
      "name": "rebalance",
      "outputs": [
        {
          "internalType": "uint256",
          "name": "assets_",
          "type": "uint256"
        }
      ],
      "stateMutability": "payable",
      "type": "function"
    },
    {
      "inputs": [
        {
          "internalType": "uint256",
          "name": "shares_",
          "type": "uint256"
        },
        {
          "internalType": "address",
          "name": "receiver_",
          "type": "address"
        },
        {
          "internalType": "address",
          "name": "owner_",
          "type": "address"
        },
        {
          "internalType": "uint256",
          "name": "minAmountOut_",
          "type": "uint256"
        }
      ],
      "name": "redeem",
      "outputs": [
        {
          "internalType": "uint256",
          "name": "assets_",
          "type": "uint256"
        }
      ],
      "stateMutability": "nonpayable",
      "type": "function"
    },
    {
      "inputs": [
        {
          "internalType": "uint256",
          "name": "shares_",
          "type": "uint256"
        },
        {
          "internalType": "address",
          "name": "receiver_",
          "type": "address"
        },
        {
          "internalType": "address",
          "name": "owner_",
          "type": "address"
        }
      ],
      "name": "redeem",
      "outputs": [
        {
          "internalType": "uint256",
          "name": "assets_",
          "type": "uint256"
        }
      ],
      "stateMutability": "nonpayable",
      "type": "function"
    },
    {
      "inputs": [
        {
          "internalType": "uint256",
          "name": "shares_",
          "type": "uint256"
        },
        {
          "internalType": "address",
          "name": "receiver_",
          "type": "address"
        },
        {
          "internalType": "address",
          "name": "owner_",
          "type": "address"
        },
        {
          "internalType": "uint256",
          "name": "minAmountOut_",
          "type": "uint256"
        }
      ],
      "name": "redeemNative",
      "outputs": [
        {
          "internalType": "uint256",
          "name": "assets_",
          "type": "uint256"
        }
      ],
      "stateMutability": "nonpayable",
      "type": "function"
    },
    {
      "inputs": [
        {
          "internalType": "uint256",
          "name": "shares_",
          "type": "uint256"
        },
        {
          "internalType": "address",
          "name": "receiver_",
          "type": "address"
        },
        {
          "internalType": "address",
          "name": "owner_",
          "type": "address"
        }
      ],
      "name": "redeemNative",
      "outputs": [
        {
          "internalType": "uint256",
          "name": "assets_",
          "type": "uint256"
        }
      ],
      "stateMutability": "nonpayable",
      "type": "function"
    },
    {
      "inputs": [
        {
          "internalType": "uint256",
          "name": "shares_",
          "type": "uint256"
        },
        {
          "internalType": "address",
          "name": "receiver_",
          "type": "address"
        },
        {
          "internalType": "address",
          "name": "owner_",
          "type": "address"
        },
        {
          "internalType": "uint256",
          "name": "minAmountOut_",
          "type": "uint256"
        },
        {
          "internalType": "uint256",
          "name": "deadline_",
          "type": "uint256"
        },
        {
          "internalType": "bytes",
          "name": "signature_",
          "type": "bytes"
        }
      ],
      "name": "redeemWithSignature",
      "outputs": [
        {
          "internalType": "uint256",
          "name": "assets_",
          "type": "uint256"
        }
      ],
      "stateMutability": "nonpayable",
      "type": "function"
    },
    {
      "inputs": [
        {
          "internalType": "uint256",
          "name": "shares_",
          "type": "uint256"
        },
        {
          "internalType": "address",
          "name": "receiver_",
          "type": "address"
        },
        {
          "internalType": "address",
          "name": "owner_",
          "type": "address"
        },
        {
          "internalType": "uint256",
          "name": "minAmountOut_",
          "type": "uint256"
        },
        {
          "internalType": "uint256",
          "name": "deadline_",
          "type": "uint256"
        },
        {
          "internalType": "bytes",
          "name": "signature_",
          "type": "bytes"
        }
      ],
      "name": "redeemWithSignatureNative",
      "outputs": [
        {
          "internalType": "uint256",
          "name": "assets_",
          "type": "uint256"
        }
      ],
      "stateMutability": "nonpayable",
      "type": "function"
    },
    {
      "inputs": [
        {
          "internalType": "address",
          "name": "token_",
          "type": "address"
        }
      ],
      "name": "rescueFunds",
      "outputs": [],
      "stateMutability": "nonpayable",
      "type": "function"
    },
    {
      "inputs": [],
      "name": "symbol",
      "outputs": [
        {
          "internalType": "string",
          "name": "",
          "type": "string"
        }
      ],
      "stateMutability": "view",
      "type": "function"
    },
    {
      "inputs": [],
      "name": "totalAssets",
      "outputs": [
        {
          "internalType": "uint256",
          "name": "",
          "type": "uint256"
        }
      ],
      "stateMutability": "view",
      "type": "function"
    },
    {
      "inputs": [],
      "name": "totalSupply",
      "outputs": [
        {
          "internalType": "uint256",
          "name": "",
          "type": "uint256"
        }
      ],
      "stateMutability": "view",
      "type": "function"
    },
    {
      "inputs": [
        {
          "internalType": "address",
          "name": "to",
          "type": "address"
        },
        {
          "internalType": "uint256",
          "name": "amount",
          "type": "uint256"
        }
      ],
      "name": "transfer",
      "outputs": [
        {
          "internalType": "bool",
          "name": "",
          "type": "bool"
        }
      ],
      "stateMutability": "nonpayable",
      "type": "function"
    },
    {
      "inputs": [
        {
          "internalType": "address",
          "name": "from",
          "type": "address"
        },
        {
          "internalType": "address",
          "name": "to",
          "type": "address"
        },
        {
          "internalType": "uint256",
          "name": "amount",
          "type": "uint256"
        }
      ],
      "name": "transferFrom",
      "outputs": [
        {
          "internalType": "bool",
          "name": "",
          "type": "bool"
        }
      ],
      "stateMutability": "nonpayable",
      "type": "function"
    },
    {
      "inputs": [],
      "name": "updateRates",
      "outputs": [
        {
          "internalType": "uint256",
          "name": "tokenExchangePrice_",
          "type": "uint256"
        },
        {
          "internalType": "uint256",
          "name": "liquidityExchangePrice_",
          "type": "uint256"
        }
      ],
      "stateMutability": "nonpayable",
      "type": "function"
    },
    {
      "inputs": [
        {
          "internalType": "address",
          "name": "newRebalancer_",
          "type": "address"
        }
      ],
      "name": "updateRebalancer",
      "outputs": [],
      "stateMutability": "nonpayable",
      "type": "function"
    },
    {
      "inputs": [
        {
          "internalType": "contract IFluidLendingRewardsRateModel",
          "name": "rewardsRateModel_",
          "type": "address"
        }
      ],
      "name": "updateRewards",
      "outputs": [],
      "stateMutability": "nonpayable",
      "type": "function"
    },
    {
      "inputs": [
        {
          "internalType": "uint256",
          "name": "assets_",
          "type": "uint256"
        },
        {
          "internalType": "address",
          "name": "receiver_",
          "type": "address"
        },
        {
          "internalType": "address",
          "name": "owner_",
          "type": "address"
        },
        {
          "internalType": "uint256",
          "name": "maxSharesBurn_",
          "type": "uint256"
        }
      ],
      "name": "withdraw",
      "outputs": [
        {
          "internalType": "uint256",
          "name": "shares_",
          "type": "uint256"
        }
      ],
      "stateMutability": "nonpayable",
      "type": "function"
    },
    {
      "inputs": [
        {
          "internalType": "uint256",
          "name": "assets_",
          "type": "uint256"
        },
        {
          "internalType": "address",
          "name": "receiver_",
          "type": "address"
        },
        {
          "internalType": "address",
          "name": "owner_",
          "type": "address"
        }
      ],
      "name": "withdraw",
      "outputs": [
        {
          "internalType": "uint256",
          "name": "shares_",
          "type": "uint256"
        }
      ],
      "stateMutability": "nonpayable",
      "type": "function"
    },
    {
      "inputs": [
        {
          "internalType": "uint256",
          "name": "assets_",
          "type": "uint256"
        },
        {
          "internalType": "address",
          "name": "receiver_",
          "type": "address"
        },
        {
          "internalType": "address",
          "name": "owner_",
          "type": "address"
        }
      ],
      "name": "withdrawNative",
      "outputs": [
        {
          "internalType": "uint256",
          "name": "shares_",
          "type": "uint256"
        }
      ],
      "stateMutability": "nonpayable",
      "type": "function"
    },
    {
      "inputs": [
        {
          "internalType": "uint256",
          "name": "assets_",
          "type": "uint256"
        },
        {
          "internalType": "address",
          "name": "receiver_",
          "type": "address"
        },
        {
          "internalType": "address",
          "name": "owner_",
          "type": "address"
        },
        {
          "internalType": "uint256",
          "name": "maxSharesBurn_",
          "type": "uint256"
        }
      ],
      "name": "withdrawNative",
      "outputs": [
        {
          "internalType": "uint256",
          "name": "shares_",
          "type": "uint256"
        }
      ],
      "stateMutability": "nonpayable",
      "type": "function"
    },
    {
      "inputs": [
        {
          "internalType": "uint256",
          "name": "sharesToPermit_",
          "type": "uint256"
        },
        {
          "internalType": "uint256",
          "name": "assets_",
          "type": "uint256"
        },
        {
          "internalType": "address",
          "name": "receiver_",
          "type": "address"
        },
        {
          "internalType": "address",
          "name": "owner_",
          "type": "address"
        },
        {
          "internalType": "uint256",
          "name": "maxSharesBurn_",
          "type": "uint256"
        },
        {
          "internalType": "uint256",
          "name": "deadline_",
          "type": "uint256"
        },
        {
          "internalType": "bytes",
          "name": "signature_",
          "type": "bytes"
        }
      ],
      "name": "withdrawWithSignature",
      "outputs": [
        {
          "internalType": "uint256",
          "name": "shares_",
          "type": "uint256"
        }
      ],
      "stateMutability": "nonpayable",
      "type": "function"
    },
    {
      "inputs": [
        {
          "internalType": "uint256",
          "name": "sharesToPermit_",
          "type": "uint256"
        },
        {
          "internalType": "uint256",
          "name": "assets_",
          "type": "uint256"
        },
        {
          "internalType": "address",
          "name": "receiver_",
          "type": "address"
        },
        {
          "internalType": "address",
          "name": "owner_",
          "type": "address"
        },
        {
          "internalType": "uint256",
          "name": "maxSharesBurn_",
          "type": "uint256"
        },
        {
          "internalType": "uint256",
          "name": "deadline_",
          "type": "uint256"
        },
        {
          "internalType": "bytes",
          "name": "signature_",
          "type": "bytes"
        }
      ],
      "name": "withdrawWithSignatureNative",
      "outputs": [
        {
          "internalType": "uint256",
          "name": "shares_",
          "type": "uint256"
        }
      ],
      "stateMutability": "nonpayable",
      "type": "function"
    },
    {
      "stateMutability": "payable",
      "type": "receive"
    }
  ],
  "transactionHash": "0x358601c161d9c3e22dd2abf1e97fbeec088ccc3ad8a17e44142a9ec2c5bc19a7",
  "args": [
    "0x52Aa899454998Be5b000Ad077a46Bbe360F4e497",
    "0x54B91A0D94cb471F37f949c60F7Fa7935b551D03",
    "0xC02aaA39b223FE8D0A0e5C4F27eAD9083C756Cc2"
  ],
  "numDeployments": 1,
  "bytecode": "0x6102206040523480156200001257600080fd5b5060405162005e9f38038062005e9f8339810160408190526200003591620007d2565b82828282828282828260405180604001604052806006815260200165023363ab4b2160d51b815250846001600160a01b03166306fdde036040518163ffffffff1660e01b8152600401600060405180830381865afa1580156200009c573d6000803e3d6000fd5b505050506040513d6000823e601f3d908101601f19168201604052620000c6919081019062000862565b604051602001620000d99291906200091a565b60405160208183030381529060405280604051806040016040528060018152602001603160f81b81525060405180604001604052806006815260200165023363ab4b2160d51b815250876001600160a01b03166306fdde036040518163ffffffff1660e01b8152600401600060405180830381865afa15801562000161573d6000803e3d6000fd5b505050506040513d6000823e601f3d908101601f191682016040526200018b919081019062000862565b6040516020016200019e9291906200091a565b604051602081830303815290604052604051806040016040528060018152602001603360f91b815250886001600160a01b03166395d89b416040518163ffffffff1660e01b8152600401600060405180830381865afa15801562000206573d6000803e3d6000fd5b505050506040513d6000823e601f3d908101601f1916820160405262000230919081019062000862565b604051602001620002439291906200091a565b60408051601f198184030181529190526003620002618382620009d6565b506004620002708282620009d6565b5050825160208085019190912083518483012060e08290526101008190524660a0818152604080517f8b73c3c69bb8fe3d512ecc4cf759cc79239f7b179b0ffacaa9a75d522b39400f81880181905281830187905260608201869052608082019490945230818401528151808203909301835260c0019052805194019390932091935091906080523060c0526101205250506040805163313ce56760e01b815290516001600160a01b038616945063313ce5679350600480830193506020928290030181865afa15801562000349573d6000803e3d6000fd5b505050506040513d601f19601f820116820180604052508101906200036f919062000aa2565b60ff166101a0526001600160a01b0390811661018090815292811661014090815291166101609081526040805173eeeeeeeeeeeeeeeeeeeeeeeeeeeeeeeeeeeeeeee60208281018290526005838501528351808403850181526060840185528051908201206101c05260808301829052600760a0808501919091528451808503909101815260c0840185528051908201206101e0523060e08401526008610100808501919091528451808503909101815261012084018552805190820120958301919091528184019490945281518082039093018352909301909252815191012061020052826200046081620004f5565b826200046c81620004f5565b826200047881620004f5565b50506008805460ff60a81b1916600160a81b179055506200049d925050620005299050565b600880546001600160401b03929092166001600160801b0319909216919091176ce8d4a5100000000000000000001764ffffffffff60801b1916600160801b4264ffffffffff16021790555062000afe945050505050565b6001600160a01b038116620005265760405163694bda1d60e01b8152614e2460048201526024015b60405180910390fd5b50565b6000620005ae610140516001600160a01b031663b5c736e46101c0516040518263ffffffff1660e01b81526004016200056491815260200190565b602060405180830381865afa15801562000582573d6000803e3d6000fd5b505050506040513d601f19601f82011682018060405250810190620005a8919062000ace565b620005b4565b50919050565b6001600160401b03605b82901c811690609b83901c16811580620005d6575080155b15620005fb57604051636a86ba8960e11b81526201117160048201526024016200051d565b61ffff8316603a84901c6401ffffffff16428181039160ea87901c617fff1691148062000626575082155b80620006325750806001145b156200064057505050915091565b64496cebb80084840283020484019350617fff60db87901c169250826001036200066c57505050915091565b82600116600103620006c65760019290921c91826c7e37be2022c0914b2680000000816200069e576200069e62000ae8565b049250612710601e87901c613fff166b033b2e3c9fd0803ce8000000850102049250620006f3565b60019290921c916305f5e100601e87901c613fff166127108501026b033b2e3c9fd0803ce8000000020492505b806001166001036200072f5760011c61271081016b033b2e3c9fd0803ce800000082028162000726576200072662000ae8565b04905062000768565b60011c61271081016b033b2e3c9fd0803ce800000082028162000756576200075662000ae8565b046b033b2e3c9fd0803ce80000000390505b760a70c3c40a64e6c51999090b65f67d92400000000000008382026127100261ffff881691900402601087901c613fff16612710030292506801b5a660ea44b8000085840283020485019450505050915091565b6001600160a01b03811681146200052657600080fd5b600080600060608486031215620007e857600080fd5b8351620007f581620007bc565b60208501519093506200080881620007bc565b60408501519092506200081b81620007bc565b809150509250925092565b634e487b7160e01b600052604160045260246000fd5b60005b83811015620008595781810151838201526020016200083f565b50506000910152565b6000602082840312156200087557600080fd5b81516001600160401b03808211156200088d57600080fd5b818401915084601f830112620008a257600080fd5b815181811115620008b757620008b762000826565b604051601f8201601f19908116603f01168101908382118183101715620008e257620008e262000826565b81604052828152876020848701011115620008fc57600080fd5b6200090f8360208301602088016200083c565b979650505050505050565b600083516200092e8184602088016200083c565b835190830190620009448183602088016200083c565b01949350505050565b600181811c908216806200096257607f821691505b602082108103620005ae57634e487b7160e01b600052602260045260246000fd5b601f821115620009d157600081815260208120601f850160051c81016020861015620009ac5750805b601f850160051c820191505b81811015620009cd57828155600101620009b8565b5050505b505050565b81516001600160401b03811115620009f257620009f262000826565b62000a0a8162000a0384546200094d565b8462000983565b602080601f83116001811462000a42576000841562000a295750858301515b600019600386901b1c1916600185901b178555620009cd565b600085815260208120601f198616915b8281101562000a735788860151825594840194600190910190840162000a52565b508582101562000a925787850151600019600388901b60f8161c191681555b5050505050600190811b01905550565b60006020828403121562000ab557600080fd5b815160ff8116811462000ac757600080fd5b9392505050565b60006020828403121562000ae157600080fd5b5051919050565b634e487b7160e01b600052601260045260246000fd5b60805160a05160c05160e05161010051610120516101405161016051610180516101a0516101c0516101e0516102005161526a62000c35600039600081816131690152613a640152600081816112b701526113fb015260006127860152600061050401526000818161056501528181611210015281816117f201528181611c750152818161234101528181613479015281816134fd0152818161366a015281816136e5015261373b0152600081816110950152613551015260008181611073015281816113010152818161143e01528181612491015281816124ef015281816127c80152818161312d0152818161391e01528181613aa401528181613b84015261482d0152600061307d015260006130cc015260006130a7015260006130000152600061302a01526000613054015261526a6000f3fe60806040526004361061038f5760003560e01c80637d7c2a1c116101dc578063ba08765211610102578063dd62ed3e116100a0578063e53b20171161006f578063e53b201714610b38578063eb26620c14610b58578063ef8b30f714610b78578063f5a35aaa14610b9857600080fd5b8063dd62ed3e14610a7d578063df2ebdbb14610ad0578063e083be2214610af8578063e359754814610b1857600080fd5b8063c6e6f592116100dc578063c6e6f592146109fd578063ce96cb7714610a1d578063d505accf14610a3d578063d905777e14610a5d57600080fd5b8063ba0876521461099d578063bc157ac1146109bd578063c63d75b6146109dd57600080fd5b80639f40a7b31161017a578063ad20750111610149578063ad2075011461091d578063b046a4491461093d578063b3d7f6b91461095d578063b460af941461097d57600080fd5b80639f40a7b31461089d578063a318c1a4146108bd578063a457c2d7146108dd578063a9059cbb146108fd57600080fd5b8063836a1040116101b6578063836a1040146108285780638c87483a1461084857806394bf804d1461086857806395d89b411461088857600080fd5b80637d7c2a1c146107ed5780637ecebe00146107f5578063805411871461081557600080fd5b806338d52e0f116102c157806341b3d1851161025f578063635c31c21161022e578063635c31c21461074a5780636e553f651461076a57806370a082311461078a578063740c955e146107cd57600080fd5b806341b3d185146106d35780634cdad506146106e857806350cc0f8f146107085780635fd619651461072857600080fd5b80633bc5de301161029b5780633bc5de30146105ea5780633c3821f4146106695780633f4c093014610693578063402d267d146106b357600080fd5b806338d52e0f1461055657806339509351146105aa5780633badef91146105ca57600080fd5b806318160ddd1161032e5780632ae06214116103085780632ae06214146104d0578063313ce567146104f057806333bb7f911461052e5780633644e5151461054157600080fd5b806318160ddd1461047b5780632126e91e1461049057806323b872dd146104b057600080fd5b806306fdde031161036a57806306fdde03146103e957806307a2d13a1461040b578063095ea7b31461042b5780630a28a4771461045b57600080fd5b8062acb7361461039b57806301e1d114146103c157806302279b4a146103d657600080fd5b3661039657005b600080fd5b6103ae6103a9366004614941565b610bb8565b6040519081526020015b60405180910390f35b3480156103cd57600080fd5b506103ae610c60565b6103ae6103e4366004614971565b610c9f565b3480156103f557600080fd5b506103fe610cbc565b6040516103b89190614a01565b34801561041757600080fd5b506103ae610426366004614a14565b610d4e565b34801561043757600080fd5b5061044b610446366004614971565b610d76565b60405190151581526020016103b8565b34801561046757600080fd5b506103ae610476366004614a14565b610d8e565b34801561048757600080fd5b506002546103ae565b34801561049c57600080fd5b506103ae6104ab366004614a2d565b610daf565b3480156104bc57600080fd5b5061044b6104cb366004614a6f565b610e78565b3480156104dc57600080fd5b506103ae6104eb366004614ab0565b610e9c565b3480156104fc57600080fd5b5060405160ff7f00000000000000000000000000000000000000000000000000000000000000001681526020016103b8565b6103ae61053c366004614af8565b610ebd565b34801561054d57600080fd5b506103ae610f16565b34801561056257600080fd5b507f00000000000000000000000000000000000000000000000000000000000000005b60405173ffffffffffffffffffffffffffffffffffffffff90911681526020016103b8565b3480156105b657600080fd5b5061044b6105c5366004614971565b610f25565b3480156105d657600080fd5b506103ae6105e5366004614a2d565b610f71565b3480156105f657600080fd5b506105ff61103f565b6040805173ffffffffffffffffffffffffffffffffffffffff9a8b168152988a1660208a0152968916968801969096529387166060870152959091166080850152151560a084015260c083019390935260e0820192909252610100810191909152610120016103b8565b34801561067557600080fd5b5061067e61112b565b604080519283526020830191909152016103b8565b34801561069f57600080fd5b506103ae6106ae366004614b5e565b611149565b3480156106bf57600080fd5b506103ae6106ce366004614af8565b61128f565b3480156106df57600080fd5b506103ae6113d3565b3480156106f457600080fd5b506103ae610703366004614a14565b6114d4565b34801561071457600080fd5b506103ae610723366004614bd1565b6114df565b34801561073457600080fd5b50610748610743366004614af8565b6115b7565b005b34801561075657600080fd5b506103ae610765366004614c60565b61167d565b34801561077657600080fd5b506103ae610785366004614941565b611793565b34801561079657600080fd5b506103ae6107a5366004614af8565b73ffffffffffffffffffffffffffffffffffffffff1660009081526020819052604090205490565b3480156107d957600080fd5b506103ae6107e8366004614ce8565b61188d565b6103ae611972565b34801561080157600080fd5b506103ae610810366004614af8565b611ab7565b6103ae610823366004614d6e565b611ae2565b34801561083457600080fd5b506103ae610843366004614d6e565b611afa565b34801561085457600080fd5b506103ae610863366004614c60565b611b06565b34801561087457600080fd5b506103ae610883366004614941565b611c16565b34801561089457600080fd5b506103fe611d20565b3480156108a957600080fd5b506103ae6108b8366004614ab0565b611d2f565b3480156108c957600080fd5b506103ae6108d8366004614ab0565b611d3c565b3480156108e957600080fd5b5061044b6108f8366004614971565b611d55565b34801561090957600080fd5b5061044b610918366004614971565b611e26565b34801561092957600080fd5b50610748610938366004614d95565b611e34565b34801561094957600080fd5b50610748610958366004614af8565b611e6a565b34801561096957600080fd5b506103ae610978366004614a14565b611eec565b34801561098957600080fd5b506103ae610998366004614a2d565b611f0d565b3480156109a957600080fd5b506103ae6109b8366004614a2d565b611f7b565b3480156109c957600080fd5b506103ae6109d8366004614d6e565b611fed565b3480156109e957600080fd5b506103ae6109f8366004614af8565b612005565b348015610a0957600080fd5b506103ae610a18366004614a14565b612014565b348015610a2957600080fd5b506103ae610a38366004614af8565b612035565b348015610a4957600080fd5b50610748610a58366004614df1565b612089565b348015610a6957600080fd5b506103ae610a78366004614af8565b612248565b348015610a8957600080fd5b506103ae610a98366004614e68565b73ffffffffffffffffffffffffffffffffffffffff918216600090815260016020908152604080832093909416825291909152205490565b348015610adc57600080fd5b5061058573eeeeeeeeeeeeeeeeeeeeeeeeeeeeeeeeeeeeeeee81565b348015610b0457600080fd5b506103ae610b13366004614b5e565b612286565b348015610b2457600080fd5b506103ae610b33366004614ce8565b6123b3565b348015610b4457600080fd5b50610748610b53366004614af8565b61243f565b348015610b6457600080fd5b506103ae610b73366004614ab0565b6125fa565b348015610b8457600080fd5b506103ae610b93366004614a14565b612607565b348015610ba457600080fd5b506103ae610bb3366004614bd1565b612612565b6000610bc2612687565b610bcb83611eec565b905080341015610c10576040517f694bda1d00000000000000000000000000000000000000000000000000000000815261520960048201526024015b60405180910390fd5b610c1982612725565b50600880547fffffffffffffffffffff00ffffffffffffffffffffffffffffffffffffffffff16750100000000000000000000000000000000000000000017905592915050565b600080610c73610c6e61275e565b61283e565b50905064e8d4a51000610c8560025490565b610c8f9083614ec5565b610c999190614f0b565b91505090565b6000610caa83610ebd565b9050610cb68183612a1e565b92915050565b606060038054610ccb90614f46565b80601f0160208091040260200160405190810160405280929190818152602001828054610cf790614f46565b8015610d445780601f10610d1957610100808354040283529160200191610d44565b820191906000526020600020905b815481529060010190602001808311610d2757829003601f168201915b5050505050905090565b600080610d5c610c6e61275e565b509050610d6f838264e8d4a51000612a60565b9392505050565b600033610d84818585612a9c565b5060019392505050565b600080610d9c610c6e61275e565b509050610d6f8364e8d4a5100083612c4f565b6000610db9612687565b7fffffffffffffffffffffffffffffffffffffffffffffffffffffffffffffffff8403610dfc5733600090815260208190526040902054610df9906114d4565b93505b610e07848484612c93565b90503373ffffffffffffffffffffffffffffffffffffffff831614610e3157610e31823383612ca0565b600880547fffffffffffffffffffff00ffffffffffffffffffffffffffffffffffffffffff1675010000000000000000000000000000000000000000001790559392505050565b600033610e86858285612ca0565b610e91858585612d77565b506001949350505050565b6000610ea9858585610f71565b9050610eb58183612a1e565b949350505050565b6000610ec7612687565b610ed082612725565b600880547fffffffffffffffffffff00ffffffffffffffffffffffffffffffffffffffffff16750100000000000000000000000000000000000000000017905592915050565b6000610f20612fe6565b905090565b33600081815260016020908152604080832073ffffffffffffffffffffffffffffffffffffffff87168452909152812054909190610d849082908690610f6c908790614f93565b612a9c565b6000610f7b612687565b7fffffffffffffffffffffffffffffffffffffffffffffffffffffffffffffffff8403610fb5573360009081526020819052604090205493505b610fbe846114d4565b90506000610fcd828585612c93565b90503373ffffffffffffffffffffffffffffffffffffffff841614610ff757610ff7833383612ca0565b50600880547fffffffffffffffffffff00ffffffffffffffffffffffffffffffffffffffffff1675010000000000000000000000000000000000000000001790559392505050565b600080600080600080600080600061105561275e565b915060006110628361283e565b6007546009546008549395509193507f0000000000000000000000000000000000000000000000000000000000000000927f00000000000000000000000000000000000000000000000000000000000000009273ffffffffffffffffffffffffffffffffffffffff928316926e22d473030f116ddee9f6b43ac78ba392911690760100000000000000000000000000000000000000000000900460ff168015611109575085155b61111161311a565b995099509950995099509950995050909192939495969798565b60008061113661275e565b905061114381600161321e565b91509091565b600061115487611eec565b9050600080600061119a86868080601f01602080910402602001604051908101604052809392919081815260200183838082843760009201919091525061339892505050565b6040517fd505accf00000000000000000000000000000000000000000000000000000000815233600482015230602482015260448101889052606481018b905260ff8416608482015260a4810183905260c48101829052929550909350915073ffffffffffffffffffffffffffffffffffffffff7f0000000000000000000000000000000000000000000000000000000000000000169063d505accf9060e401600060405180830381600087803b15801561125457600080fd5b505af1158015611268573d6000803e3d6000fd5b505050506112768a8a611c16565b935061128284896133c7565b5050509695505050505050565b6040517fb5c736e40000000000000000000000000000000000000000000000000000000081527f00000000000000000000000000000000000000000000000000000000000000006004820152600090819067ffffffffffffffff9073ffffffffffffffffffffffffffffffffffffffff7f0000000000000000000000000000000000000000000000000000000000000000169063b5c736e490602401602060405180830381865afa158015611348573d6000803e3d6000fd5b505050506040513d601f19601f8201168201806040525081019061136c9190614fa6565b16600881901c60ff9091161b905064e8d4a5100061138861275e565b82028161139757611397614edc565b0490506f7fffffffffffff7fffffffffffffffff8111156113bb5750600092915050565b6f7fffffffffffffffffffffffffffffff0392915050565b6040517fb5c736e40000000000000000000000000000000000000000000000000000000081527f00000000000000000000000000000000000000000000000000000000000000006004820152600090819060ff9073ffffffffffffffffffffffffffffffffffffffff7f0000000000000000000000000000000000000000000000000000000000000000169063b5c736e490602401602060405180830381865afa158015611485573d6000803e3d6000fd5b505050506040513d601f19601f820116820180604052508101906114a99190614fa6565b166001901b905060006114bc6001611eec565b90508082116114cb57806114cd565b815b9250505090565b6000610cb682610d4e565b60006114e9612687565b73ffffffffffffffffffffffffffffffffffffffff8616330361153c576040517f694bda1d000000000000000000000000000000000000000000000000000000008152614e266004820152602401610c07565b611549868a868686613405565b611554888888613468565b905061156081866133c7565b61156b863383612ca0565b600880547fffffffffffffffffffff00ffffffffffffffffffffffffffffffffffffffffff16750100000000000000000000000000000000000000000017905598975050505050505050565b6115bf613523565b6115c761112b565b5050600780547fffffffffffffffffffffffff00000000000000000000000000000000000000001673ffffffffffffffffffffffffffffffffffffffff8316908117909155600880547fffffffffffffffffff00ffffffffffffffffffffffffffffffffffffffffffff16821515760100000000000000000000000000000000000000000000021790556040517fd14b198a72267efb36b8bbc193eb6d52a00d1f61799029250f6a520ad47be82d90600090a250565b6000611687612687565b6040517f2b67b5700000000000000000000000000000000000000000000000000000000081526e22d473030f116ddee9f6b43ac78ba390632b67b570906116d8903390889088908890600401615023565b600060405180830381600087803b1580156116f257600080fd5b505af1158015611706573d6000803e3d6000fd5b50506040805160016020820152339181019190915261173d925089915088906060015b60405160208183030381529060405261360d565b90506117498186612a1e565b600880547fffffffffffffffffffff00ffffffffffffffffffffffffffffffffffffffffff1675010000000000000000000000000000000000000000001790559695505050505050565b600061179d612687565b7fffffffffffffffffffffffffffffffffffffffffffffffffffffffffffffffff8303611875576040517f70a082310000000000000000000000000000000000000000000000000000000081523360048201527f000000000000000000000000000000000000000000000000000000000000000073ffffffffffffffffffffffffffffffffffffffff16906370a0823190602401602060405180830381865afa15801561184e573d6000803e3d6000fd5b505050506040513d601f19601f820116820180604052508101906118729190614fa6565b92505b60408051336020820152610e31918591859101611729565b6000611897612687565b73ffffffffffffffffffffffffffffffffffffffff861633036118ea576040517f694bda1d000000000000000000000000000000000000000000000000000000008152614e266004820152602401610c07565b6118f3886114d4565b90506118ff8186612a1e565b61190c8689868686613405565b6000611919828989613468565b9050611926873383612ca0565b50600880547fffffffffffffffffffff00ffffffffffffffffffffffffffffffffffffffffff167501000000000000000000000000000000000000000000179055979650505050505050565b600061197c612687565b60095473ffffffffffffffffffffffffffffffffffffffff1633146119d1576040517f694bda1d000000000000000000000000000000000000000000000000000000008152614e296004820152602401610c07565b6119d961311a565b6119e1610c60565b6119eb91906150dd565b9050803410156119fc575034611a17565b80341115611a1757611a1733611a1283346150dd565b6137bb565b60408051600080825260208201909252611a3290839061391a565b9050611a3f81600161321e565b506040518281527fe97ad8b810ae9d9e29aa69dc04d4ac2e3e71d65307830ccb97c8f876dfc439319060200160405180910390a150600880547fffffffffffffffffffff00ffffffffffffffffffffffffffffffffffffffffff16750100000000000000000000000000000000000000000017905590565b73ffffffffffffffffffffffffffffffffffffffff8116600090815260056020526040812054610cb6565b6000611aee8484610bb8565b9050610d6f81836133c7565b6000611aee8484611c16565b6000611b10612687565b611b1987611eec565b9050611b2581866133c7565b6040517f2b67b5700000000000000000000000000000000000000000000000000000000081526e22d473030f116ddee9f6b43ac78ba390632b67b57090611b76903390889088908890600401615023565b600060405180830381600087803b158015611b9057600080fd5b505af1158015611ba4573d6000803e3d6000fd5b505060408051600160208201523391810191909152611bcb92508391508890606001611729565b50600880547fffffffffffffffffffff00ffffffffffffffffffffffffffffffffffffffffff1675010000000000000000000000000000000000000000001790559695505050505050565b6000611c20612687565b7fffffffffffffffffffffffffffffffffffffffffffffffffffffffffffffffff8303611cfc576040517f70a082310000000000000000000000000000000000000000000000000000000081523360048201527f000000000000000000000000000000000000000000000000000000000000000073ffffffffffffffffffffffffffffffffffffffff16906370a0823190602401602060405180830381865afa158015611cd1573d6000803e3d6000fd5b505050506040513d601f19601f82011682018060405250810190611cf59190614fa6565b9050611d08565b611d0583611eec565b90505b60408051336020820152610c19918391859101611729565b606060048054610ccb90614f46565b6000610ea9858585611f7b565b6000611d49858585611f0d565b9050610eb581836133c7565b33600081815260016020908152604080832073ffffffffffffffffffffffffffffffffffffffff8716845290915281205490919083811015611e19576040517f08c379a000000000000000000000000000000000000000000000000000000000815260206004820152602560248201527f45524332303a2064656372656173656420616c6c6f77616e63652062656c6f7760448201527f207a65726f0000000000000000000000000000000000000000000000000000006064820152608401610c07565b610e918286868403612a9c565b600033610d84818585612d77565b6040517f694bda1d00000000000000000000000000000000000000000000000000000000815261520a6004820152602401610c07565b80611e74816139e8565b611e7c613523565b600980547fffffffffffffffffffffffff00000000000000000000000000000000000000001673ffffffffffffffffffffffffffffffffffffffff84169081179091556040517fdb94ee7fd8b5bbf8f6d59e76731ff4b4f5a02ab3af1d3e0c774862cf96ff613b90600090a25050565b600080611efa610c6e61275e565b509050610d6f838264e8d4a51000612c4f565b6000611f17612687565b7fffffffffffffffffffffffffffffffffffffffffffffffffffffffffffffffff8403611f7057611f6d6107038373ffffffffffffffffffffffffffffffffffffffff1660009081526020819052604090205490565b93505b610e07848484613468565b6000611f85612687565b7fffffffffffffffffffffffffffffffffffffffffffffffffffffffffffffffff8403611fd55773ffffffffffffffffffffffffffffffffffffffff821660009081526020819052604090205493505b611fde846114d4565b90506000610fcd828585613468565b6000611ff98484611793565b9050610d6f8183612a1e565b6000610cb6610a18600061128f565b600080612022610c6e61275e565b509050610d6f8364e8d4a5100083612a60565b600080612040613a3c565b905060006120736104268573ffffffffffffffffffffffffffffffffffffffff1660009081526020819052604090205490565b90508082106120825780610eb5565b5092915050565b834211156120f3576040517f08c379a000000000000000000000000000000000000000000000000000000000815260206004820152601d60248201527f45524332305065726d69743a206578706972656420646561646c696e650000006044820152606401610c07565b60007f6e71edae12b1b97f4d1f60370fef10105fa2faae0126114a169c64845d6126c98888886121228c613bbc565b60408051602081019690965273ffffffffffffffffffffffffffffffffffffffff94851690860152929091166060840152608083015260a082015260c0810186905260e001604051602081830303815290604052805190602001209050600061218a82613bef565b9050600061219a82878787613c58565b90508973ffffffffffffffffffffffffffffffffffffffff168173ffffffffffffffffffffffffffffffffffffffff1614612231576040517f08c379a000000000000000000000000000000000000000000000000000000000815260206004820152601e60248201527f45524332305065726d69743a20696e76616c6964207369676e617475726500006044820152606401610c07565b61223c8a8a8a612a9c565b50505050505050505050565b600080612256610a18613a3c565b905060006120738473ffffffffffffffffffffffffffffffffffffffff1660009081526020819052604090205490565b6000806000806122cb86868080601f01602080910402602001604051908101604052809392919081815260200183838082843760009201919091525061339892505050565b6040517fd505accf000000000000000000000000000000000000000000000000000000008152336004820152306024820152604481018e9052606481018b905260ff8416608482015260a4810183905260c48101829052929550909350915073ffffffffffffffffffffffffffffffffffffffff7f0000000000000000000000000000000000000000000000000000000000000000169063d505accf9060e401600060405180830381600087803b15801561238557600080fd5b505af1158015612399573d6000803e3d6000fd5b505050506123a78a8a611793565b93506112828489612a1e565b60006123bd612687565b73ffffffffffffffffffffffffffffffffffffffff86163303612410576040517f694bda1d000000000000000000000000000000000000000000000000000000008152614e266004820152602401610c07565b612419886114d4565b90506124258186612a1e565b6124328689868686613405565b6000611919828989612c93565b612447612687565b61244f613523565b7fffffffffffffffffffffffff111111111111111111111111111111111111111273ffffffffffffffffffffffffffffffffffffffff8216016124bb576124b67f0000000000000000000000000000000000000000000000000000000000000000476137bb565b612576565b6040517f70a082310000000000000000000000000000000000000000000000000000000081523060048201526125769082907f00000000000000000000000000000000000000000000000000000000000000009073ffffffffffffffffffffffffffffffffffffffff8316906370a0823190602401602060405180830381865afa15801561254d573d6000803e3d6000fd5b505050506040513d601f19601f820116820180604052508101906125719190614fa6565b613c80565b60405173ffffffffffffffffffffffffffffffffffffffff8216907fdff2a3947bcf9fc0807b142e7c8497066db9183428b7bdbfb1fcd0f55c27a3df90600090a250600880547fffffffffffffffffffff00ffffffffffffffffffffffffffffffffffffffffff167501000000000000000000000000000000000000000000179055565b6000611d49858585610daf565b6000610cb682612014565b600061261c612687565b73ffffffffffffffffffffffffffffffffffffffff8616330361266f576040517f694bda1d000000000000000000000000000000000000000000000000000000008152614e266004820152602401610c07565b61267c868a868686613405565b611554888888612c93565b6008547501000000000000000000000000000000000000000000900460ff166001146126e3576040517f694bda1d000000000000000000000000000000000000000000000000000000008152614e276004820152602401610c07565b600880547fffffffffffffffffffff00ffffffffffffffffffffffffffffffffffffffffff167502000000000000000000000000000000000000000000179055565b6000610cb63483835b6040519080825280601f01601f191660200182016040528015612758576020820181803683370190505b50613d24565b6040517fb5c736e40000000000000000000000000000000000000000000000000000000081527f000000000000000000000000000000000000000000000000000000000000000060048201526000906128389073ffffffffffffffffffffffffffffffffffffffff7f0000000000000000000000000000000000000000000000000000000000000000169063b5c736e490602401602060405180830381865afa15801561280f573d6000803e3d6000fd5b505050506040513d601f19601f820116820180604052508101906128339190614fa6565b613e0b565b50919050565b600854600090819067ffffffffffffffff680100000000000000008204811691168085101561289d576040517f694bda1d000000000000000000000000000000000000000000000000000000008152614e2b6004820152602401610c07565b600854600090760100000000000000000000000000000000000000000000900460ff16156129d457600754600090819073ffffffffffffffffffffffffffffffffffffffff16635776409464e8d4a510006128f760025490565b6129019089614ec5565b61290b9190614f0b565b6040518263ffffffff1660e01b815260040161292991815260200190565b606060405180830381865afa158015612946573d6000803e3d6000fd5b505050506040513d601f19601f8201168201806040525081019061296a9190615100565b9097509092509050652d79883d20008211806129835750855b1561298d57600091505b600854700100000000000000000000000000000000900464ffffffffff16818110156129b65750805b6301e133808142038402816129cd576129cd614edc565b0493505050505b81828703655af3107a400002816129ed576129ed614edc565b0401655af3107a4000612a008285614ec5565b612a0a9190614f0b565b612a149084614f93565b9450505050915091565b80821015612a5c576040517f694bda1d000000000000000000000000000000000000000000000000000000008152614e226004820152602401610c07565b5050565b6000827fffffffffffffffffffffffffffffffffffffffffffffffffffffffffffffffff0484118302158202612a9557600080fd5b5091020490565b73ffffffffffffffffffffffffffffffffffffffff8316612b3e576040517f08c379a0000000000000000000000000000000000000000000000000000000008152602060048201526024808201527f45524332303a20617070726f76652066726f6d20746865207a65726f2061646460448201527f72657373000000000000000000000000000000000000000000000000000000006064820152608401610c07565b73ffffffffffffffffffffffffffffffffffffffff8216612be1576040517f08c379a000000000000000000000000000000000000000000000000000000000815260206004820152602260248201527f45524332303a20617070726f766520746f20746865207a65726f20616464726560448201527f73730000000000000000000000000000000000000000000000000000000000006064820152608401610c07565b73ffffffffffffffffffffffffffffffffffffffff83811660008181526001602090815260408083209487168084529482529182902085905590518481527f8c5be1e5ebec7d5bd14f71427d1e84f3dd0314c0f7b2291e5b200ac8c7c3b925910160405180910390a3505050565b6000827fffffffffffffffffffffffffffffffffffffffffffffffffffffffffffffffff0484118302158202612c8457600080fd5b50910281810615159190040190565b6000610eb5848484614019565b73ffffffffffffffffffffffffffffffffffffffff8381166000908152600160209081526040808320938616835292905220547fffffffffffffffffffffffffffffffffffffffffffffffffffffffffffffffff8114612d715781811015612d64576040517f08c379a000000000000000000000000000000000000000000000000000000000815260206004820152601d60248201527f45524332303a20696e73756666696369656e7420616c6c6f77616e63650000006044820152606401610c07565b612d718484848403612a9c565b50505050565b73ffffffffffffffffffffffffffffffffffffffff8316612e1a576040517f08c379a000000000000000000000000000000000000000000000000000000000815260206004820152602560248201527f45524332303a207472616e736665722066726f6d20746865207a65726f20616460448201527f64726573730000000000000000000000000000000000000000000000000000006064820152608401610c07565b73ffffffffffffffffffffffffffffffffffffffff8216612ebd576040517f08c379a000000000000000000000000000000000000000000000000000000000815260206004820152602360248201527f45524332303a207472616e7366657220746f20746865207a65726f206164647260448201527f65737300000000000000000000000000000000000000000000000000000000006064820152608401610c07565b73ffffffffffffffffffffffffffffffffffffffff831660009081526020819052604090205481811015612f73576040517f08c379a000000000000000000000000000000000000000000000000000000000815260206004820152602660248201527f45524332303a207472616e7366657220616d6f756e742065786365656473206260448201527f616c616e636500000000000000000000000000000000000000000000000000006064820152608401610c07565b73ffffffffffffffffffffffffffffffffffffffff848116600081815260208181526040808320878703905593871680835291849020805487019055925185815290927fddf252ad1be2c89b69c2b068fc378daa952ba7f163c4a11628f55a4df523b3ef910160405180910390a3612d71565b60003073ffffffffffffffffffffffffffffffffffffffff7f00000000000000000000000000000000000000000000000000000000000000001614801561304c57507f000000000000000000000000000000000000000000000000000000000000000046145b1561307657507f000000000000000000000000000000000000000000000000000000000000000090565b50604080517f00000000000000000000000000000000000000000000000000000000000000006020808301919091527f0000000000000000000000000000000000000000000000000000000000000000828401527f000000000000000000000000000000000000000000000000000000000000000060608301524660808301523060a0808401919091528351808403909101815260c0909201909252805191012090565b6000806131f867ffffffffffffffff60017f000000000000000000000000000000000000000000000000000000000000000073ffffffffffffffffffffffffffffffffffffffff1663b5c736e47f00000000000000000000000000000000000000000000000000000000000000006040518263ffffffff1660e01b81526004016131a691815260200190565b602060405180830381865afa1580156131c3573d6000803e3d6000fd5b505050506040513d601f19601f820116820180604052508101906131e79190614fa6565b901c16600860ff9082901c91161b90565b905064e8d4a5100061320861275e565b82028161321757613217614edc565b0491505090565b60008061322a8461283e565b6008549193509150760100000000000000000000000000000000000000000000900460ff16806132575750825b156133635767ffffffffffffffff8211156132a2576040517f694bda1d000000000000000000000000000000000000000000000000000000008152614e286004820152602401610c07565b6008805467ffffffffffffffff8681167fffffffffffffffffffffff00000000000000000000000000000000000000000090921668010000000000000000918616919091027fffffffffffffffffffffff0000000000ffffffffffffffff00000000000000001617177001000000000000000000000000000000004264ffffffffff160217905560408051838152602081018690527f9dd85e9767d796973b86c6ccf3a294429cfd5e3e93fa23ac388b9277bb8283fd910160405180910390a15b801561208257600880547fffffffffffffffffff00ffffffffffffffffffffffffffffffffffffffffffff1690555092915050565b600080600083516041146133ab57600080fd5b5050506020810151604082015160609092015160001a92909190565b80821115612a5c576040517f694bda1d000000000000000000000000000000000000000000000000000000008152614e236004820152602401610c07565b600080600061344985858080601f01602080910402602001604051908101604052809392919081815260200183838082843760009201919091525061339892505050565b92509250925061345e88338989878787612089565b5050505050505050565b6000613475843084614019565b90507f000000000000000000000000000000000000000000000000000000000000000073ffffffffffffffffffffffffffffffffffffffff1663d0e30db0856040518263ffffffff1660e01b81526004016000604051808303818588803b1580156134df57600080fd5b505af11580156134f3573d6000803e3d6000fd5b5050505050610d6f7f00000000000000000000000000000000000000000000000000000000000000008486613c80565b6040517f2520e7ff0000000000000000000000000000000000000000000000000000000081523360048201527f000000000000000000000000000000000000000000000000000000000000000073ffffffffffffffffffffffffffffffffffffffff1690632520e7ff90602401602060405180830381865afa1580156135ad573d6000803e3d6000fd5b505050506040513d601f19601f820116820180604052508101906135d19190615135565b61360b576040517f694bda1d000000000000000000000000000000000000000000000000000000008152614e256004820152602401610c07565b565b60006020825111156136e0576040517f36c7851600000000000000000000000000000000000000000000000000000000815233600482015230602482015273ffffffffffffffffffffffffffffffffffffffff80861660448301527f00000000000000000000000000000000000000000000000000000000000000001660648201526e22d473030f116ddee9f6b43ac78ba3906336c7851690608401600060405180830381600087803b1580156136c357600080fd5b505af11580156136d7573d6000803e3d6000fd5b5050505061370c565b61370c7f00000000000000000000000000000000000000000000000000000000000000003330876140bf565b6040517f2e1a7d4d000000000000000000000000000000000000000000000000000000008152600481018590527f000000000000000000000000000000000000000000000000000000000000000073ffffffffffffffffffffffffffffffffffffffff1690632e1a7d4d90602401600060405180830381600087803b15801561379457600080fd5b505af11580156137a8573d6000803e3d6000fd5b50610eb59250869150859050600061272e565b80471015613825576040517f08c379a000000000000000000000000000000000000000000000000000000000815260206004820152601d60248201527f416464726573733a20696e73756666696369656e742062616c616e63650000006044820152606401610c07565b60008273ffffffffffffffffffffffffffffffffffffffff168260405160006040518083038185875af1925050503d806000811461387f576040519150601f19603f3d011682016040523d82523d6000602084013e613884565b606091505b5050905080613915576040517f08c379a000000000000000000000000000000000000000000000000000000000815260206004820152603a60248201527f416464726573733a20756e61626c6520746f2073656e642076616c75652c207260448201527f6563697069656e74206d617920686176652072657665727465640000000000006064820152608401610c07565b505050565b60007f000000000000000000000000000000000000000000000000000000000000000073ffffffffffffffffffffffffffffffffffffffff1663ad967e158473eeeeeeeeeeeeeeeeeeeeeeeeeeeeeeeeeeeeeeee61397787614186565b6000806000896040518863ffffffff1660e01b815260040161399e96959493929190615150565b604080518083038185885af11580156139bb573d6000803e3d6000fd5b50505050506040513d601f19601f820116820180604052508101906139e091906151a9565b509392505050565b73ffffffffffffffffffffffffffffffffffffffff8116613a39576040517f694bda1d000000000000000000000000000000000000000000000000000000008152614e246004820152602401610c07565b50565b6040517fb5c736e40000000000000000000000000000000000000000000000000000000081527f00000000000000000000000000000000000000000000000000000000000000006004820152600090819073ffffffffffffffffffffffffffffffffffffffff7f0000000000000000000000000000000000000000000000000000000000000000169063b5c736e490602401602060405180830381865afa158015613aeb573d6000803e3d6000fd5b505050506040513d601f19601f82011682018060405250810190613b0f9190614fa6565b9050600981901c66ffffffffffffff16600182901c60ff161b613b32828261423c565b92506000613b3e61275e565b64e8d4a51000948102859004949202919091049050828111613b61576000613b6b565b613b6b83826150dd565b925073ffffffffffffffffffffffffffffffffffffffff7f00000000000000000000000000000000000000000000000000000000000000001631838111613bb25780613bb4565b835b935050505090565b73ffffffffffffffffffffffffffffffffffffffff81166000908152600560205260409020805460018101825590612838565b6000610cb6613bfc612fe6565b836040517f19010000000000000000000000000000000000000000000000000000000000006020820152602281018390526042810182905260009060620160405160208183030381529060405280519060200120905092915050565b6000806000613c69878787876142d0565b91509150613c76816143bf565b5095945050505050565b60006040517fa9059cbb00000000000000000000000000000000000000000000000000000000815273ffffffffffffffffffffffffffffffffffffffff84166004820152826024820152602060006044836000895af13d15601f3d1160016000511416171691505080612d71576040517fdee51a8a0000000000000000000000000000000000000000000000000000000081526201155a6004820152602401610c07565b600082613d30816139e8565b6000613d3c868561391a565b9050613d4981600061321e565b905080613d5b64e8d4a5100088614ec5565b613d659190614f0b565b925082600003613da5576040517f694bda1d000000000000000000000000000000000000000000000000000000008152614e216004820152602401610c07565b613daf8584614572565b604080518781526020810185905273ffffffffffffffffffffffffffffffffffffffff87169133917fdcbc1c05240f31ff3ad067ef1ee35ce4997762752e3a095284754544f4c709d7910160405180910390a350509392505050565b67ffffffffffffffff605b82901c811690609b83901c16811580613e2d575080155b15613e69576040517fd50d7512000000000000000000000000000000000000000000000000000000008152620111716004820152602401610c07565b61ffff8316603a84901c6401ffffffff16428181039160ea87901c617fff16911480613e93575082155b80613e9e5750806001145b15613eab57505050915091565b64496cebb80084840283020484019350617fff60db87901c16925082600103613ed657505050915091565b82600116600103613f2b5760019290921c91826c7e37be2022c0914b268000000081613f0457613f04614edc565b049250612710601e87901c613fff166b033b2e3c9fd0803ce8000000850102049250613f58565b60019290921c916305f5e100601e87901c613fff166127108501026b033b2e3c9fd0803ce8000000020492505b80600116600103613f8f5760011c61271081016b033b2e3c9fd0803ce8000000820281613f8757613f87614edc565b049050613fc5565b60011c61271081016b033b2e3c9fd0803ce8000000820281613fb357613fb3614edc565b046b033b2e3c9fd0803ce80000000390505b760a70c3c40a64e6c51999090b65f67d92400000000000008382026127100261ffff881691900402601087901c613fff16612710030292506801b5a660ea44b8000085840283020485019450505050915091565b600082614025816139e8565b61404864e8d4a5100061404061403961275e565b600061321e565b879190612c4f565b91506140548383614665565b61405e8585614829565b50604080518681526020810184905273ffffffffffffffffffffffffffffffffffffffff808616929087169133917ffbde797d201c681b91056529119e0b02407c7bb96a4a2c75c01fc9667232c8db910160405180910390a4509392505050565b60006040517f23b872dd00000000000000000000000000000000000000000000000000000000815273ffffffffffffffffffffffffffffffffffffffff8516600482015273ffffffffffffffffffffffffffffffffffffffff841660248201528260448201526020600060648360008a5af13d15601f3d116001600051141617169150508061417f576040517fdee51a8a000000000000000000000000000000000000000000000000000000008152620115596004820152602401610c07565b5050505050565b60007f7fffffffffffffffffffffffffffffffffffffffffffffffffffffffffffffff821115614238576040517f08c379a000000000000000000000000000000000000000000000000000000000815260206004820152602860248201527f53616665436173743a2076616c756520646f65736e27742066697420696e206160448201527f6e20696e743235360000000000000000000000000000000000000000000000006064820152608401610c07565b5090565b600066ffffffffffffff604984901c1660ff604185901c161b808203614266576000915050610cb6565b612710613fff60a286901c168402046401ffffffff608186901c16420362ffffff60b087901c166142978284614ec5565b6142a19190614f0b565b90508083116142b15760006142b5565b8083035b935050808403838111156142c7578093505b50505092915050565b6000807f7fffffffffffffffffffffffffffffff5d576e7357a4501ddfe92f46681b20a083111561430757506000905060036143b6565b6040805160008082526020820180845289905260ff881692820192909252606081018690526080810185905260019060a0016020604051602081039080840390855afa15801561435b573d6000803e3d6000fd5b50506040517fffffffffffffffffffffffffffffffffffffffffffffffffffffffffffffffe0015191505073ffffffffffffffffffffffffffffffffffffffff81166143af576000600192509250506143b6565b9150600090505b94509492505050565b60008160048111156143d3576143d36151cd565b036143db5750565b60018160048111156143ef576143ef6151cd565b03614456576040517f08c379a000000000000000000000000000000000000000000000000000000000815260206004820152601860248201527f45434453413a20696e76616c6964207369676e617475726500000000000000006044820152606401610c07565b600281600481111561446a5761446a6151cd565b036144d1576040517f08c379a000000000000000000000000000000000000000000000000000000000815260206004820152601f60248201527f45434453413a20696e76616c6964207369676e6174757265206c656e677468006044820152606401610c07565b60038160048111156144e5576144e56151cd565b03613a39576040517f08c379a000000000000000000000000000000000000000000000000000000000815260206004820152602260248201527f45434453413a20696e76616c6964207369676e6174757265202773272076616c60448201527f75650000000000000000000000000000000000000000000000000000000000006064820152608401610c07565b73ffffffffffffffffffffffffffffffffffffffff82166145ef576040517f08c379a000000000000000000000000000000000000000000000000000000000815260206004820152601f60248201527f45524332303a206d696e7420746f20746865207a65726f2061646472657373006044820152606401610c07565b80600260008282546146019190614f93565b909155505073ffffffffffffffffffffffffffffffffffffffff8216600081815260208181526040808320805486019055518481527fddf252ad1be2c89b69c2b068fc378daa952ba7f163c4a11628f55a4df523b3ef910160405180910390a35050565b73ffffffffffffffffffffffffffffffffffffffff8216614708576040517f08c379a000000000000000000000000000000000000000000000000000000000815260206004820152602160248201527f45524332303a206275726e2066726f6d20746865207a65726f2061646472657360448201527f73000000000000000000000000000000000000000000000000000000000000006064820152608401610c07565b73ffffffffffffffffffffffffffffffffffffffff8216600090815260208190526040902054818110156147be576040517f08c379a000000000000000000000000000000000000000000000000000000000815260206004820152602260248201527f45524332303a206275726e20616d6f756e7420657863656564732062616c616e60448201527f63650000000000000000000000000000000000000000000000000000000000006064820152608401610c07565b73ffffffffffffffffffffffffffffffffffffffff83166000818152602081815260408083208686039055600280548790039055518581529192917fddf252ad1be2c89b69c2b068fc378daa952ba7f163c4a11628f55a4df523b3ef910160405180910390a3505050565b60007f000000000000000000000000000000000000000000000000000000000000000073ffffffffffffffffffffffffffffffffffffffff1663ad967e1573eeeeeeeeeeeeeeeeeeeeeeeeeeeeeeeeeeeeeeee61488586614186565b61488e906151fc565b60408051600080825260208201928390527fffffffff0000000000000000000000000000000000000000000000000000000060e087901b169092526148dd939291908890829060248101615150565b60408051808303816000875af11580156148fb573d6000803e3d6000fd5b505050506040513d601f19601f820116820180604052508101906139e091906151a9565b73ffffffffffffffffffffffffffffffffffffffff81168114613a3957600080fd5b6000806040838503121561495457600080fd5b8235915060208301356149668161491f565b809150509250929050565b6000806040838503121561498457600080fd5b823561498f8161491f565b946020939093013593505050565b6000815180845260005b818110156149c3576020818501810151868301820152016149a7565b5060006020828601015260207fffffffffffffffffffffffffffffffffffffffffffffffffffffffffffffffe0601f83011685010191505092915050565b602081526000610d6f602083018461499d565b600060208284031215614a2657600080fd5b5035919050565b600080600060608486031215614a4257600080fd5b833592506020840135614a548161491f565b91506040840135614a648161491f565b809150509250925092565b600080600060608486031215614a8457600080fd5b8335614a8f8161491f565b92506020840135614a9f8161491f565b929592945050506040919091013590565b60008060008060808587031215614ac657600080fd5b843593506020850135614ad88161491f565b92506040850135614ae88161491f565b9396929550929360600135925050565b600060208284031215614b0a57600080fd5b8135610d6f8161491f565b60008083601f840112614b2757600080fd5b50813567ffffffffffffffff811115614b3f57600080fd5b602083019150836020828501011115614b5757600080fd5b9250929050565b60008060008060008060a08789031215614b7757600080fd5b863595506020870135614b898161491f565b94506040870135935060608701359250608087013567ffffffffffffffff811115614bb357600080fd5b614bbf89828a01614b15565b979a9699509497509295939492505050565b60008060008060008060008060e0898b031215614bed57600080fd5b88359750602089013596506040890135614c068161491f565b95506060890135614c168161491f565b94506080890135935060a0890135925060c089013567ffffffffffffffff811115614c4057600080fd5b614c4c8b828c01614b15565b999c989b5096995094979396929594505050565b600080600080600080868803610140811215614c7b57600080fd5b873596506020880135614c8d8161491f565b95506040880135945060c07fffffffffffffffffffffffffffffffffffffffffffffffffffffffffffffffa082011215614cc657600080fd5b5060608701925061012087013567ffffffffffffffff811115614bb357600080fd5b600080600080600080600060c0888a031215614d0357600080fd5b873596506020880135614d158161491f565b95506040880135614d258161491f565b9450606088013593506080880135925060a088013567ffffffffffffffff811115614d4f57600080fd5b614d5b8a828b01614b15565b989b979a50959850939692959293505050565b600080600060608486031215614d8357600080fd5b833592506020840135614a9f8161491f565b60008060008060608587031215614dab57600080fd5b8435614db68161491f565b935060208501359250604085013567ffffffffffffffff811115614dd957600080fd5b614de587828801614b15565b95989497509550505050565b600080600080600080600060e0888a031215614e0c57600080fd5b8735614e178161491f565b96506020880135614e278161491f565b95506040880135945060608801359350608088013560ff81168114614e4b57600080fd5b9699959850939692959460a0840135945060c09093013592915050565b60008060408385031215614e7b57600080fd5b8235614e868161491f565b915060208301356149668161491f565b7f4e487b7100000000000000000000000000000000000000000000000000000000600052601160045260246000fd5b8082028115828204841417610cb657610cb6614e96565b7f4e487b7100000000000000000000000000000000000000000000000000000000600052601260045260246000fd5b600082614f41577f4e487b7100000000000000000000000000000000000000000000000000000000600052601260045260246000fd5b500490565b600181811c90821680614f5a57607f821691505b602082108103612838577f4e487b7100000000000000000000000000000000000000000000000000000000600052602260045260246000fd5b80820180821115610cb657610cb6614e96565b600060208284031215614fb857600080fd5b5051919050565b803565ffffffffffff81168114614fd557600080fd5b919050565b8183528181602085013750600060208284010152600060207fffffffffffffffffffffffffffffffffffffffffffffffffffffffffffffffe0601f840116840101905092915050565b600061010073ffffffffffffffffffffffffffffffffffffffff8088168452863561504d8161491f565b81811660208601525060208701356150648161491f565b81811660408601525061507960408801614fbf565b65ffffffffffff80821660608701528061509560608b01614fbf565b166080870152505060808701356150ab8161491f565b81811660a0860152505060a086013560c08401528060e08401526150d28184018587614fda565b979650505050505050565b81810381811115610cb657610cb6614e96565b80518015158114614fd557600080fd5b60008060006060848603121561511557600080fd5b83519250615125602085016150f0565b9150604084015190509250925092565b60006020828403121561514757600080fd5b610d6f826150f0565b600073ffffffffffffffffffffffffffffffffffffffff8089168352876020840152866040840152808616606084015280851660808401525060c060a083015261519d60c083018461499d565b98975050505050505050565b600080604083850312156151bc57600080fd5b505080516020909101519092909150565b7f4e487b7100000000000000000000000000000000000000000000000000000000600052602160045260246000fd5b60007f8000000000000000000000000000000000000000000000000000000000000000820361522d5761522d614e96565b506000039056fea264697066735822122053470c3a57c2695b006bac4e3ad1eff7585b42a4b2e35348024fb3de22fcb9a264736f6c63430008150033"
}