{
  "address": "0x92409761ff07429A03a51158Be5D0d2E7A2C1c12",
  "abi": [
    {
      "inputs": [
        {
          "internalType": "address",
          "name": "owner_",
          "type": "address"
        },
        {
          "internalType": "address",
          "name": "fla_",
          "type": "address"
        },
        {
          "internalType": "address",
          "name": "weth_",
          "type": "address"
        },
        {
          "internalType": "address[]",
          "name": "rebalancers_",
          "type": "address[]"
        }
      ],
      "stateMutability": "nonpayable",
      "type": "constructor"
    },
    {
      "inputs": [],
      "name": "FluidVaultT1Liquidator__InvalidOperation",
      "type": "error"
    },
    {
      "anonymous": false,
      "inputs": [
        {
          "indexed": true,
          "internalType": "address",
          "name": "vault",
          "type": "address"
        },
        {
          "indexed": false,
          "internalType": "uint256",
          "name": "collateral",
          "type": "uint256"
        },
        {
          "indexed": false,
          "internalType": "uint256",
          "name": "debt",
          "type": "uint256"
        }
      ],
      "name": "Liquidated",
      "type": "event"
    },
    {
      "anonymous": false,
      "inputs": [
        {
          "indexed": true,
          "internalType": "address",
          "name": "user",
          "type": "address"
        },
        {
          "indexed": true,
          "internalType": "address",
          "name": "newOwner",
          "type": "address"
        }
      ],
      "name": "OwnershipTransferred",
      "type": "event"
    },
    {
      "anonymous": false,
      "inputs": [
        {
          "indexed": true,
          "internalType": "address",
          "name": "rebalancer",
          "type": "address"
        },
        {
          "indexed": true,
          "internalType": "bool",
          "name": "status",
          "type": "bool"
        }
      ],
      "name": "ToggleRebalancer",
      "type": "event"
    },
    {
      "anonymous": false,
      "inputs": [
        {
          "indexed": true,
          "internalType": "address",
          "name": "to",
          "type": "address"
        },
        {
          "indexed": true,
          "internalType": "address",
          "name": "token",
          "type": "address"
        },
        {
          "indexed": false,
          "internalType": "uint256",
          "name": "amount",
          "type": "uint256"
        }
      ],
      "name": "Withdraw",
      "type": "event"
    },
    {
      "inputs": [],
      "name": "ETH_ADDRESS",
      "outputs": [
        {
          "internalType": "address",
          "name": "",
          "type": "address"
        }
      ],
      "stateMutability": "view",
      "type": "function"
    },
    {
      "inputs": [],
      "name": "FLA",
      "outputs": [
        {
          "internalType": "contract InstaFlashInterface",
          "name": "",
          "type": "address"
        }
      ],
      "stateMutability": "view",
      "type": "function"
    },
    {
      "inputs": [],
      "name": "WETH",
      "outputs": [
        {
          "internalType": "contract IWETH9",
          "name": "",
          "type": "address"
        }
      ],
      "stateMutability": "view",
      "type": "function"
    },
    {
      "inputs": [
        {
          "internalType": "address[]",
          "name": "assets",
          "type": "address[]"
        },
        {
          "internalType": "uint256[]",
          "name": "amounts",
          "type": "uint256[]"
        },
        {
          "internalType": "uint256[]",
          "name": "premiums",
          "type": "uint256[]"
        },
        {
          "internalType": "address",
          "name": "initiator",
          "type": "address"
        },
        {
          "internalType": "bytes",
          "name": "_data",
          "type": "bytes"
        }
      ],
      "name": "executeOperation",
      "outputs": [
        {
          "internalType": "bool",
          "name": "",
          "type": "bool"
        }
      ],
      "stateMutability": "nonpayable",
      "type": "function"
    },
    {
      "inputs": [
        {
          "components": [
            {
              "internalType": "address",
              "name": "vault",
              "type": "address"
            },
            {
              "internalType": "address",
              "name": "supply",
              "type": "address"
            },
            {
              "internalType": "address",
              "name": "borrow",
              "type": "address"
            },
            {
              "internalType": "uint256",
              "name": "borrowAmount",
              "type": "uint256"
            },
            {
              "internalType": "uint256",
              "name": "colPerUnitDebt",
              "type": "uint256"
            },
            {
              "internalType": "bool",
              "name": "absorb",
              "type": "bool"
            },
            {
              "internalType": "address",
              "name": "swapRouter",
              "type": "address"
            },
            {
              "internalType": "address",
              "name": "swapApproval",
              "type": "address"
            },
            {
              "internalType": "bytes",
              "name": "swapData",
              "type": "bytes"
            },
            {
              "internalType": "uint256",
              "name": "route",
              "type": "uint256"
            }
          ],
          "internalType": "struct VaultT1Liquidator.LiquidationParams",
          "name": "params_",
          "type": "tuple"
        }
      ],
      "name": "liquidation",
      "outputs": [],
      "stateMutability": "nonpayable",
      "type": "function"
    },
    {
      "inputs": [],
      "name": "owner",
      "outputs": [
        {
          "internalType": "address",
          "name": "",
          "type": "address"
        }
      ],
      "stateMutability": "view",
      "type": "function"
    },
    {
      "inputs": [
        {
          "internalType": "address",
          "name": "",
          "type": "address"
        }
      ],
      "name": "rebalancer",
      "outputs": [
        {
          "internalType": "bool",
          "name": "",
          "type": "bool"
        }
      ],
      "stateMutability": "view",
      "type": "function"
    },
    {
      "inputs": [
        {
          "internalType": "address[]",
          "name": "targets_",
          "type": "address[]"
        },
        {
          "internalType": "bytes[]",
          "name": "calldatas_",
          "type": "bytes[]"
        }
      ],
      "name": "spell",
      "outputs": [],
      "stateMutability": "nonpayable",
      "type": "function"
    },
    {
      "inputs": [
        {
          "internalType": "address",
          "name": "rebalancer_",
          "type": "address"
        },
        {
          "internalType": "bool",
          "name": "status_",
          "type": "bool"
        }
      ],
      "name": "toggleRebalancer",
      "outputs": [],
      "stateMutability": "nonpayable",
      "type": "function"
    },
    {
      "inputs": [
        {
          "internalType": "address",
          "name": "newOwner",
          "type": "address"
        }
      ],
      "name": "transferOwnership",
      "outputs": [],
      "stateMutability": "nonpayable",
      "type": "function"
    },
    {
      "inputs": [
        {
          "internalType": "address",
          "name": "to_",
          "type": "address"
        },
        {
          "internalType": "address[]",
          "name": "tokens_",
          "type": "address[]"
        },
        {
          "internalType": "uint256[]",
          "name": "amounts_",
          "type": "uint256[]"
        }
      ],
      "name": "withdraw",
      "outputs": [],
      "stateMutability": "nonpayable",
      "type": "function"
    },
    {
      "stateMutability": "payable",
      "type": "receive"
    }
  ],
  "transactionHash": "0xfe62baa6706fa8833ec752536596d16bb3f1859e5baaee4cb4f19c18933df73b",
  "args": [
    "0x9800020b610194dBa52CF606E8Aa142F9F256166",
    "0xAB50Dd1C57938218627Df2311ef65b4e2e84aF48",
    "0xC02aaA39b223FE8D0A0e5C4F27eAD9083C756Cc2",
    [
      "0x3BE5C671b20649DCA5D916b5698328D54BdAAf88",
      "0xb287f8A01a9538656c72Fa6aE1EE0117A187Be0C"
    ]
  ],
  "numDeployments": 1,
  "solcInputHash": "ccdaae20343501c61bda498819423fe2",
  "bytecode": "0x60c06040523480156200001157600080fd5b506040516200259c3803806200259c83398101604081905262000034916200019f565b600080546001600160a01b0319166001600160a01b03861690811782556040518692907f8be0079c531659141344cd1fd0a4f28419497f9722a3daafe3b4186f6b6457e0908290a3506001600160a01b03808416608052821660a05260005b815181101562000161576001806000848481518110620000b757620000b7620002aa565b60200260200101516001600160a01b03166001600160a01b0316815260200190815260200160002060006101000a81548160ff021916908315150217905550600115158282815181106200010f576200010f620002aa565b60200260200101516001600160a01b03167fd74bdcde9b66b7d08a366a43b11a78f3c8307dfeeb0a7741005200bfedfe933f60405160405180910390a3806200015881620002c0565b91505062000093565b5050505050620002e8565b80516001600160a01b03811681146200018457600080fd5b919050565b634e487b7160e01b600052604160045260246000fd5b60008060008060808587031215620001b657600080fd5b620001c1856200016c565b93506020620001d28187016200016c565b9350620001e2604087016200016c565b60608701519093506001600160401b03808211156200020057600080fd5b818801915088601f8301126200021557600080fd5b8151818111156200022a576200022a62000189565b8060051b604051601f19603f8301168101818110858211171562000252576200025262000189565b60405291825284820192508381018501918b8311156200027157600080fd5b938501935b828510156200029a576200028a856200016c565b8452938501939285019262000276565b989b979a50959850505050505050565b634e487b7160e01b600052603260045260246000fd5b600060018201620002e157634e487b7160e01b600052601160045260246000fd5b5060010190565b60805160a0516122646200033860003960008181610253015281816104b0015281816108d701528181610c280152610cc9015260008181610165015281816105d1015261073e01526122646000f3fe6080604052600436106100c05760003560e01c80638da5cb5b11610074578063ad5c46481161004e578063ad5c464814610241578063edbd766814610275578063f2fde38b1461029557600080fd5b80638da5cb5b146101cc578063920f5c84146101f9578063a734f06e1461021957600080fd5b80637678bfaf116100a55780637678bfaf1461013357806376ca658a1461015357806382bc4aaf146101ac57600080fd5b806329e31bdd146100cc5780633f221521146100ee57600080fd5b366100c757005b600080fd5b3480156100d857600080fd5b506100ec6100e7366004611871565b6102b5565b005b3480156100fa57600080fd5b5061011e6101093660046118a8565b60016020526000908152604090205460ff1681565b60405190151581526020015b60405180910390f35b34801561013f57600080fd5b506100ec61014e3660046119f9565b6103ba565b34801561015f57600080fd5b506101877f000000000000000000000000000000000000000000000000000000000000000081565b60405173ffffffffffffffffffffffffffffffffffffffff909116815260200161012a565b3480156101b857600080fd5b506100ec6101c7366004611b88565b610643565b3480156101d857600080fd5b506000546101879073ffffffffffffffffffffffffffffffffffffffff1681565b34801561020557600080fd5b5061011e610214366004611ca9565b610724565b34801561022557600080fd5b5061018773eeeeeeeeeeeeeeeeeeeeeeeeeeeeeeeeeeeeeeee81565b34801561024d57600080fd5b506101877f000000000000000000000000000000000000000000000000000000000000000081565b34801561028157600080fd5b506100ec610290366004611dad565b610d9b565b3480156102a157600080fd5b506100ec6102b03660046118a8565b610fbe565b60005473ffffffffffffffffffffffffffffffffffffffff16331461033b576040517f08c379a000000000000000000000000000000000000000000000000000000000815260206004820152600c60248201527f554e415554484f52495a4544000000000000000000000000000000000000000060448201526064015b60405180910390fd5b73ffffffffffffffffffffffffffffffffffffffff821660008181526001602052604080822080547fffffffffffffffffffffffffffffffffffffffffffffffffffffffffffffff001685151590811790915590519092917fd74bdcde9b66b7d08a366a43b11a78f3c8307dfeeb0a7741005200bfedfe933f91a35050565b3360009081526001602052604090205460ff161580156103f2575060005473ffffffffffffffffffffffffffffffffffffffff163314155b15610429576040517f74bf188c00000000000000000000000000000000000000000000000000000000815260040160405180910390fd5b60408051600180825281830190925260009160208083019080368337505060408051600180825281830190925292935060009291506020808301908036833701905050604084015190915073ffffffffffffffffffffffffffffffffffffffff1673eeeeeeeeeeeeeeeeeeeeeeeeeeeeeeeeeeeeeeee146104ae5782604001516104d0565b7f00000000000000000000000000000000000000000000000000000000000000005b826000815181106104e3576104e3611e77565b602002602001019073ffffffffffffffffffffffffffffffffffffffff16908173ffffffffffffffffffffffffffffffffffffffff168152505082606001518160008151811061053557610535611e77565b6020026020010181815250506000836040516020016105549190611f14565b604080517fffffffffffffffffffffffffffffffffffffffffffffffffffffffffffffffe08184030181528282526101208701516000845260208401928390527f095627e900000000000000000000000000000000000000000000000000000000909252925073ffffffffffffffffffffffffffffffffffffffff7f0000000000000000000000000000000000000000000000000000000000000000169163095627e99161060b918791879187906024810161202a565b600060405180830381600087803b15801561062557600080fd5b505af1158015610639573d6000803e3d6000fd5b5050505050505050565b60005473ffffffffffffffffffffffffffffffffffffffff1633146106c4576040517f08c379a000000000000000000000000000000000000000000000000000000000815260206004820152600c60248201527f554e415554484f52495a454400000000000000000000000000000000000000006044820152606401610332565b60005b825181101561071f5761070c8382815181106106e5576106e5611e77565b60200260200101518383815181106106ff576106ff611e77565b60200260200101516110af565b508061071781612119565b9150506106c7565b505050565b60003373ffffffffffffffffffffffffffffffffffffffff7f00000000000000000000000000000000000000000000000000000000000000001614610795576040517f74bf188c00000000000000000000000000000000000000000000000000000000815260040160405180910390fd5b73ffffffffffffffffffffffffffffffffffffffff841630146107e4576040517f74bf188c00000000000000000000000000000000000000000000000000000000815260040160405180910390fd5b60006107f2838501856119f9565b9050600073eeeeeeeeeeeeeeeeeeeeeeeeeeeeeeeeeeeeeeee73ffffffffffffffffffffffffffffffffffffffff16826040015173ffffffffffffffffffffffffffffffffffffffff16146108a2578151604083015161086c9173ffffffffffffffffffffffffffffffffffffffff9091169060006110dd565b81516060830151604084015161089a9273ffffffffffffffffffffffffffffffffffffffff909116916110dd565b506000610950565b60608201516040517f2e1a7d4d00000000000000000000000000000000000000000000000000000000815260048101919091527f000000000000000000000000000000000000000000000000000000000000000073ffffffffffffffffffffffffffffffffffffffff1690632e1a7d4d90602401600060405180830381600087803b15801561093057600080fd5b505af1158015610944573d6000803e3d6000fd5b50505050816060015190505b81516060830151608084015160a08501516040517f8433ea220000000000000000000000000000000000000000000000000000000081526004810193909352602483019190915230604483015215156064820152600091829173ffffffffffffffffffffffffffffffffffffffff90911690638433ea22908590608401604080518083038185885af11580156109ea573d6000803e3d6000fd5b50505050506040513d601f19601f82011682018060405250810190610a0f9190612151565b6020860151919350915073ffffffffffffffffffffffffffffffffffffffff1673eeeeeeeeeeeeeeeeeeeeeeeeeeeeeeeeeeeeeeee14610ab957610a7d8460e001516000866020015173ffffffffffffffffffffffffffffffffffffffff166110dd9092919063ffffffff16565b610ab08460e0015182866020015173ffffffffffffffffffffffffffffffffffffffff166110dd9092919063ffffffff16565b60009250610abd565b8092505b610b078460c00151856101000151856040518060400160405280600c81526020017f537761703a206661696c656400000000000000000000000000000000000000008152506112dd565b508351604080518381526020810185905273ffffffffffffffffffffffffffffffffffffffff909216917f09c223cfcd8c93e245f558f5f8de755fc0930fd9bc257441155ef5d54a170e0f910160405180910390a2505050600087876000818110610b7457610b74611e77565b905060200201358a8a6000818110610b8e57610b8e611e77565b90506020020135610b9f9190612175565b610baa90600a612175565b905073eeeeeeeeeeeeeeeeeeeeeeeeeeeeeeeeeeeeeeee73ffffffffffffffffffffffffffffffffffffffff16826040015173ffffffffffffffffffffffffffffffffffffffff1603610d3f576040517f70a082310000000000000000000000000000000000000000000000000000000081523060048201526000907f000000000000000000000000000000000000000000000000000000000000000073ffffffffffffffffffffffffffffffffffffffff16906370a0823190602401602060405180830381865afa158015610c84573d6000803e3d6000fd5b505050506040513d601f19601f82011682018060405250810190610ca89190612188565b905081811015610d3d5773ffffffffffffffffffffffffffffffffffffffff7f00000000000000000000000000000000000000000000000000000000000000001663d0e30db0610cf883856121a1565b6040518263ffffffff1660e01b81526004016000604051808303818588803b158015610d2357600080fd5b505af1158015610d37573d6000803e3d6000fd5b50505050505b505b610d8933828e8e6000818110610d5757610d57611e77565b9050602002016020810190610d6c91906118a8565b73ffffffffffffffffffffffffffffffffffffffff1691906113f8565b5060019b9a5050505050505050505050565b60005473ffffffffffffffffffffffffffffffffffffffff163314610e1c576040517f08c379a000000000000000000000000000000000000000000000000000000000815260206004820152600c60248201527f554e415554484f52495a454400000000000000000000000000000000000000006044820152606401610332565b60005b8251811015610fb85773eeeeeeeeeeeeeeeeeeeeeeeeeeeeeeeeeeeeeeee73ffffffffffffffffffffffffffffffffffffffff16838281518110610e6557610e65611e77565b602002602001015173ffffffffffffffffffffffffffffffffffffffff1603610eb057610eab84838381518110610e9e57610e9e611e77565b602002602001015161144e565b610f0d565b610f0d84838381518110610ec657610ec6611e77565b6020026020010151858481518110610ee057610ee0611e77565b602002602001015173ffffffffffffffffffffffffffffffffffffffff166113f89092919063ffffffff16565b828181518110610f1f57610f1f611e77565b602002602001015173ffffffffffffffffffffffffffffffffffffffff168473ffffffffffffffffffffffffffffffffffffffff167f9b1bfa7fa9ee420a16e124f794c35ac9f90472acc99140eb2f6447c714cad8eb848481518110610f8757610f87611e77565b6020026020010151604051610f9e91815260200190565b60405180910390a380610fb081612119565b915050610e1f565b50505050565b60005473ffffffffffffffffffffffffffffffffffffffff16331461103f576040517f08c379a000000000000000000000000000000000000000000000000000000000815260206004820152600c60248201527f554e415554484f52495a454400000000000000000000000000000000000000006044820152606401610332565b600080547fffffffffffffffffffffffff00000000000000000000000000000000000000001673ffffffffffffffffffffffffffffffffffffffff83169081178255604051909133917f8be0079c531659141344cd1fd0a4f28419497f9722a3daafe3b4186f6b6457e09190a350565b60606110d48383604051806060016040528060278152602001612208602791396115a8565b90505b92915050565b80158061117d57506040517fdd62ed3e00000000000000000000000000000000000000000000000000000000815230600482015273ffffffffffffffffffffffffffffffffffffffff838116602483015284169063dd62ed3e90604401602060405180830381865afa158015611157573d6000803e3d6000fd5b505050506040513d601f19601f8201168201806040525081019061117b9190612188565b155b611209576040517f08c379a000000000000000000000000000000000000000000000000000000000815260206004820152603660248201527f5361666545524332303a20617070726f76652066726f6d206e6f6e2d7a65726f60448201527f20746f206e6f6e2d7a65726f20616c6c6f77616e6365000000000000000000006064820152608401610332565b60405173ffffffffffffffffffffffffffffffffffffffff831660248201526044810182905261071f9084907f095ea7b300000000000000000000000000000000000000000000000000000000906064015b604080517fffffffffffffffffffffffffffffffffffffffffffffffffffffffffffffffe08184030181529190526020810180517bffffffffffffffffffffffffffffffffffffffffffffffffffffffff167fffffffff000000000000000000000000000000000000000000000000000000009093169290921790915261162d565b60608247101561136f576040517f08c379a000000000000000000000000000000000000000000000000000000000815260206004820152602660248201527f416464726573733a20696e73756666696369656e742062616c616e636520666f60448201527f722063616c6c00000000000000000000000000000000000000000000000000006064820152608401610332565b6000808673ffffffffffffffffffffffffffffffffffffffff16858760405161139891906121b4565b60006040518083038185875af1925050503d80600081146113d5576040519150601f19603f3d011682016040523d82523d6000602084013e6113da565b606091505b50915091506113eb87838387611739565b925050505b949350505050565b60405173ffffffffffffffffffffffffffffffffffffffff831660248201526044810182905261071f9084907fa9059cbb000000000000000000000000000000000000000000000000000000009060640161125b565b804710156114b8576040517f08c379a000000000000000000000000000000000000000000000000000000000815260206004820152601d60248201527f416464726573733a20696e73756666696369656e742062616c616e63650000006044820152606401610332565b60008273ffffffffffffffffffffffffffffffffffffffff168260405160006040518083038185875af1925050503d8060008114611512576040519150601f19603f3d011682016040523d82523d6000602084013e611517565b606091505b505090508061071f576040517f08c379a000000000000000000000000000000000000000000000000000000000815260206004820152603a60248201527f416464726573733a20756e61626c6520746f2073656e642076616c75652c207260448201527f6563697069656e74206d617920686176652072657665727465640000000000006064820152608401610332565b60606000808573ffffffffffffffffffffffffffffffffffffffff16856040516115d291906121b4565b600060405180830381855af49150503d806000811461160d576040519150601f19603f3d011682016040523d82523d6000602084013e611612565b606091505b509150915061162386838387611739565b9695505050505050565b600061168f826040518060400160405280602081526020017f5361666545524332303a206c6f772d6c6576656c2063616c6c206661696c65648152508573ffffffffffffffffffffffffffffffffffffffff166117d99092919063ffffffff16565b80519091501561071f57808060200190518101906116ad91906121d0565b61071f576040517f08c379a000000000000000000000000000000000000000000000000000000000815260206004820152602a60248201527f5361666545524332303a204552433230206f7065726174696f6e20646964206e60448201527f6f742073756363656564000000000000000000000000000000000000000000006064820152608401610332565b606083156117cf5782516000036117c85773ffffffffffffffffffffffffffffffffffffffff85163b6117c8576040517f08c379a000000000000000000000000000000000000000000000000000000000815260206004820152601d60248201527f416464726573733a2063616c6c20746f206e6f6e2d636f6e74726163740000006044820152606401610332565b50816113f0565b6113f083836117e8565b60606113f084846000856112dd565b8151156117f85781518083602001fd5b806040517f08c379a000000000000000000000000000000000000000000000000000000000815260040161033291906121f4565b803573ffffffffffffffffffffffffffffffffffffffff8116811461185057600080fd5b919050565b801515811461186357600080fd5b50565b803561185081611855565b6000806040838503121561188457600080fd5b61188d8361182c565b9150602083013561189d81611855565b809150509250929050565b6000602082840312156118ba57600080fd5b6110d48261182c565b7f4e487b7100000000000000000000000000000000000000000000000000000000600052604160045260246000fd5b604051610140810167ffffffffffffffff81118282101715611916576119166118c3565b60405290565b604051601f82017fffffffffffffffffffffffffffffffffffffffffffffffffffffffffffffffe016810167ffffffffffffffff81118282101715611963576119636118c3565b604052919050565b600082601f83011261197c57600080fd5b813567ffffffffffffffff811115611996576119966118c3565b6119c760207fffffffffffffffffffffffffffffffffffffffffffffffffffffffffffffffe0601f8401160161191c565b8181528460208386010111156119dc57600080fd5b816020850160208301376000918101602001919091529392505050565b600060208284031215611a0b57600080fd5b813567ffffffffffffffff80821115611a2357600080fd5b908301906101408286031215611a3857600080fd5b611a406118f2565b611a498361182c565b8152611a576020840161182c565b6020820152611a686040840161182c565b60408201526060830135606082015260808301356080820152611a8d60a08401611866565b60a0820152611a9e60c0840161182c565b60c0820152611aaf60e0840161182c565b60e08201526101008084013583811115611ac857600080fd5b611ad48882870161196b565b91830191909152506101209283013592810192909252509392505050565b600067ffffffffffffffff821115611b0c57611b0c6118c3565b5060051b60200190565b600082601f830112611b2757600080fd5b81356020611b3c611b3783611af2565b61191c565b82815260059290921b84018101918181019086841115611b5b57600080fd5b8286015b84811015611b7d57611b708161182c565b8352918301918301611b5f565b509695505050505050565b60008060408385031215611b9b57600080fd5b823567ffffffffffffffff80821115611bb357600080fd5b611bbf86838701611b16565b9350602091508185013581811115611bd657600080fd5b8501601f81018713611be757600080fd5b8035611bf5611b3782611af2565b81815260059190911b82018401908481019089831115611c1457600080fd5b8584015b83811015611c4c57803586811115611c305760008081fd5b611c3e8c898389010161196b565b845250918601918601611c18565b508096505050505050509250929050565b60008083601f840112611c6f57600080fd5b50813567ffffffffffffffff811115611c8757600080fd5b6020830191508360208260051b8501011115611ca257600080fd5b9250929050565b600080600080600080600080600060a08a8c031215611cc757600080fd5b893567ffffffffffffffff80821115611cdf57600080fd5b611ceb8d838e01611c5d565b909b50995060208c0135915080821115611d0457600080fd5b611d108d838e01611c5d565b909950975060408c0135915080821115611d2957600080fd5b611d358d838e01611c5d565b9097509550859150611d4960608d0161182c565b945060808c0135915080821115611d5f57600080fd5b818c0191508c601f830112611d7357600080fd5b813581811115611d8257600080fd5b8d6020828501011115611d9457600080fd5b6020830194508093505050509295985092959850929598565b600080600060608486031215611dc257600080fd5b611dcb8461182c565b925060208085013567ffffffffffffffff80821115611de957600080fd5b611df588838901611b16565b94506040870135915080821115611e0b57600080fd5b508501601f81018713611e1d57600080fd5b8035611e2b611b3782611af2565b81815260059190911b82018301908381019089831115611e4a57600080fd5b928401925b82841015611e6857833582529284019290840190611e4f565b80955050505050509250925092565b7f4e487b7100000000000000000000000000000000000000000000000000000000600052603260045260246000fd5b60005b83811015611ec1578181015183820152602001611ea9565b50506000910152565b60008151808452611ee2816020860160208601611ea6565b601f017fffffffffffffffffffffffffffffffffffffffffffffffffffffffffffffffe0169290920160200192915050565b60208152611f3b60208201835173ffffffffffffffffffffffffffffffffffffffff169052565b60006020830151611f64604084018273ffffffffffffffffffffffffffffffffffffffff169052565b50604083015173ffffffffffffffffffffffffffffffffffffffff811660608401525060608301516080830152608083015160a083015260a0830151611fae60c084018215159052565b5060c083015173ffffffffffffffffffffffffffffffffffffffff811660e08401525060e0830151610100611ffa8185018373ffffffffffffffffffffffffffffffffffffffff169052565b80850151915050610140610120818186015261201a610160860184611eca565b9501519301929092525090919050565b60a0808252865190820181905260009060209060c0840190828a01845b8281101561207957815173ffffffffffffffffffffffffffffffffffffffff1684529284019290840190600101612047565b5050508381038285015287518082528883019183019060005b818110156120ae57835183529284019291840191600101612092565b505087604086015284810360608601526120c88188611eca565b9250505082810360808401526120de8185611eca565b98975050505050505050565b7f4e487b7100000000000000000000000000000000000000000000000000000000600052601160045260246000fd5b60007fffffffffffffffffffffffffffffffffffffffffffffffffffffffffffffffff820361214a5761214a6120ea565b5060010190565b6000806040838503121561216457600080fd5b505080516020909101519092909150565b808201808211156110d7576110d76120ea565b60006020828403121561219a57600080fd5b5051919050565b818103818111156110d7576110d76120ea565b600082516121c6818460208701611ea6565b9190910192915050565b6000602082840312156121e257600080fd5b81516121ed81611855565b9392505050565b6020815260006110d46020830184611eca56fe416464726573733a206c6f772d6c6576656c2064656c65676174652063616c6c206661696c6564a2646970667358221220a3f64cd524a28f5936c521335f604debfe3d9872d9b0bfe25515c6018776bc8764736f6c63430008150033",
  "devdoc": {
    "kind": "dev",
    "methods": {},
    "version": 1
  },
  "userdoc": {
    "kind": "user",
    "methods": {},
    "version": 1
  },
  "storageLayout": {
    "storage": [
      {
        "astId": 51208,
        "contract": "contracts/periphery/liquidation/main.sol:VaultT1Liquidator",
        "label": "owner",
        "offset": 0,
        "slot": "0",
        "type": "t_address"
      },
      {
        "astId": 22720,
        "contract": "contracts/periphery/liquidation/main.sol:VaultT1Liquidator",
        "label": "rebalancer",
        "offset": 0,
        "slot": "1",
        "type": "t_mapping(t_address,t_bool)"
      }
    ],
    "types": {
      "t_address": {
        "encoding": "inplace",
        "label": "address",
        "numberOfBytes": "20"
      },
      "t_bool": {
        "encoding": "inplace",
        "label": "bool",
        "numberOfBytes": "1"
      },
      "t_mapping(t_address,t_bool)": {
        "encoding": "mapping",
        "key": "t_address",
        "label": "mapping(address => bool)",
        "numberOfBytes": "32",
        "value": "t_bool"
      }
    }
  }
}