{
  "address": "0x93197b8a30699B2b0AF8837daB98912b98704bF0",
  "abi": [
    {
      "inputs": [
        {
          "internalType": "contract IFluidReserveContract",
          "name": "reserveContract_",
          "type": "address"
        },
        {
          "internalType": "address",
          "name": "multisig_",
          "type": "address"
        }
      ],
      "stateMutability": "nonpayable",
      "type": "constructor"
    },
    {
      "inputs": [
        {
          "internalType": "uint256",
          "name": "errorId_",
          "type": "uint256"
        }
      ],
      "name": "FluidConfigError",
      "type": "error"
    },
    {
      "anonymous": false,
      "inputs": [
        {
          "indexed": false,
          "internalType": "address",
          "name": "dex",
          "type": "address"
        },
        {
          "indexed": false,
          "internalType": "address",
          "name": "user",
          "type": "address"
        },
        {
          "indexed": false,
          "internalType": "uint256",
          "name": "newLimit",
          "type": "uint256"
        }
      ],
      "name": "LogRebalanceWithdrawalLimit",
      "type": "event"
    },
    {
      "anonymous": false,
      "inputs": [
        {
          "indexed": false,
          "internalType": "address",
          "name": "dex",
          "type": "address"
        },
        {
          "indexed": false,
          "internalType": "address",
          "name": "user",
          "type": "address"
        },
        {
          "indexed": false,
          "internalType": "uint256",
          "name": "newLimit",
          "type": "uint256"
        }
      ],
      "name": "LogSetWithdrawalLimit",
      "type": "event"
    },
    {
      "inputs": [],
      "name": "RESERVE_CONTRACT",
      "outputs": [
        {
          "internalType": "contract IFluidReserveContract",
          "name": "",
          "type": "address"
        }
      ],
      "stateMutability": "view",
      "type": "function"
    },
    {
      "inputs": [],
      "name": "TEAM_MULTISIG",
      "outputs": [
        {
          "internalType": "address",
          "name": "",
          "type": "address"
        }
      ],
      "stateMutability": "view",
      "type": "function"
    },
    {
      "inputs": [
        {
          "internalType": "address",
          "name": "dex_",
          "type": "address"
        },
        {
          "internalType": "address[]",
          "name": "users_",
          "type": "address[]"
        }
      ],
      "name": "getUsersData",
      "outputs": [
        {
          "internalType": "uint256[]",
          "name": "initialUsersSupply_",
          "type": "uint256[]"
        },
        {
          "internalType": "uint256[]",
          "name": "initialWithdrawLimit_",
          "type": "uint256[]"
        }
      ],
      "stateMutability": "view",
      "type": "function"
    },
    {
      "inputs": [
        {
          "internalType": "address",
          "name": "dex_",
          "type": "address"
        },
        {
          "internalType": "address",
          "name": "user_",
          "type": "address"
        },
        {
          "internalType": "uint256",
          "name": "newLimit_",
          "type": "uint256"
        }
      ],
      "name": "rebalanceWithdrawalLimit",
      "outputs": [],
      "stateMutability": "nonpayable",
      "type": "function"
    },
    {
      "inputs": [
        {
          "internalType": "address",
          "name": "dex_",
          "type": "address"
        },
        {
          "internalType": "address",
          "name": "user_",
          "type": "address"
        },
        {
          "internalType": "uint256",
          "name": "newLimit_",
          "type": "uint256"
        }
      ],
      "name": "setWithdrawalLimit",
      "outputs": [],
      "stateMutability": "nonpayable",
      "type": "function"
    },
    {
      "inputs": [
        {
          "internalType": "address",
          "name": "",
          "type": "address"
        }
      ],
      "name": "userData",
      "outputs": [
        {
          "internalType": "uint40",
          "name": "initialDailyTimestamp",
          "type": "uint40"
        },
        {
          "internalType": "uint40",
          "name": "initialHourlyTimestamp",
          "type": "uint40"
        },
        {
          "internalType": "uint8",
          "name": "rebalancesIn1Hour",
          "type": "uint8"
        },
        {
          "internalType": "uint8",
          "name": "rebalancesIn24Hours",
          "type": "uint8"
        },
        {
          "internalType": "uint160",
          "name": "leastDailyUserSupply",
          "type": "uint160"
        }
      ],
      "stateMutability": "view",
      "type": "function"
    }
  ],
  "transactionHash": "0x2e0039fb0658c5a1c7a65d4e3be64aff50e69e9590e1b117131fac4863057f5a",
  "args": [
    "0x264786EF916af64a1DB19F513F24a3681734ce92",
    "0x4F6F977aCDD1177DCD81aB83074855EcB9C2D49e"
  ],
  "numDeployments": 1,
  "solcInputHash": "cb8e15ed6e919a7ade86c169dda2769e",
  "bytecode": "0x60c060405234801561001057600080fd5b5060405161113438038061113483398101604081905261002f916100bf565b816001600160a01b03811661006157604051636801712d60e11b8152620186e960048201526024015b60405180910390fd5b816001600160a01b03811661008e57604051636801712d60e11b8152620186e96004820152602401610058565b50506001600160a01b0391821660a052166080526100f9565b6001600160a01b03811681146100bc57600080fd5b50565b600080604083850312156100d257600080fd5b82516100dd816100a7565b60208401519092506100ee816100a7565b809150509250929050565b60805160a05161100961012b6000396000818160ce015261056801526000818161011a015261022501526110096000f3fe608060405234801561001057600080fd5b50600436106100725760003560e01c80636449b8d7116100505780636449b8d7146100c9578063b788f3a114610115578063c89109131461013c57600080fd5b806335b0b5021461007757806339b942e81461008c5780634d6ccf2c146100b6575b600080fd5b61008a610085366004610c98565b61020d565b005b61009f61009a366004610d03565b61036c565b6040516100ad929190610e34565b60405180910390f35b61008a6100c4366004610c98565b61053a565b6100f07f000000000000000000000000000000000000000000000000000000000000000081565b60405173ffffffffffffffffffffffffffffffffffffffff90911681526020016100ad565b6100f07f000000000000000000000000000000000000000000000000000000000000000081565b6101c061014a366004610e62565b60006020819052908152604090205464ffffffffff808216916501000000000081049091169060ff6a010000000000000000000082048116916b01000000000000000000000081049091169073ffffffffffffffffffffffffffffffffffffffff6c010000000000000000000000009091041685565b6040805164ffffffffff968716815295909416602086015260ff9283169385019390935216606083015273ffffffffffffffffffffffffffffffffffffffff16608082015260a0016100ad565b3373ffffffffffffffffffffffffffffffffffffffff7f00000000000000000000000000000000000000000000000000000000000000001614610286576040517fd002e25a000000000000000000000000000000000000000000000000000000008152620186e860048201526024015b60405180910390fd5b6040517fa71e495800000000000000000000000000000000000000000000000000000000815273ffffffffffffffffffffffffffffffffffffffff83811660048301526024820183905284169063a71e495890604401600060405180830381600087803b1580156102f657600080fd5b505af115801561030a573d6000803e3d6000fd5b50506040805173ffffffffffffffffffffffffffffffffffffffff8088168252861660208201529081018490527f627d8790671c69ca7f016ebefbb435d3078c4b06334dc1869b1f9747cc1966689250606001905060405180910390a1505050565b606080825167ffffffffffffffff81111561038957610389610cd4565b6040519080825280602002602001820160405280156103b2578160200160208202803683370190505b509150825167ffffffffffffffff8111156103cf576103cf610cd4565b6040519080825280602002602001820160405280156103f8578160200160208202803683370190505b50905060005b83518110156105325760008573ffffffffffffffffffffffffffffffffffffffff1663b5c736e4610449600388868151811061043c5761043c610e84565b6020026020010151610b90565b6040518263ffffffff1660e01b815260040161046791815260200190565b602060405180830381865afa158015610484573d6000803e3d6000fd5b505050506040513d601f19601f820116820180604052508101906104a89190610eb3565b905066ffffffffffffff600982901c1660ff600183901c161b8483815181106104d3576104d3610e84565b602002602001018181525050610502818584815181106104f5576104f5610e84565b6020026020010151610bdb565b83838151811061051457610514610e84565b6020908102919091010152508061052a81610efb565b9150506103fe565b509250929050565b6040517f467c9eff0000000000000000000000000000000000000000000000000000000081523360048201527f000000000000000000000000000000000000000000000000000000000000000073ffffffffffffffffffffffffffffffffffffffff169063467c9eff906024016020604051808303816000875af11580156105c6573d6000803e3d6000fd5b505050506040513d601f19601f820116820180604052508101906105ea9190610f33565b610625576040517fd002e25a000000000000000000000000000000000000000000000000000000008152620186e8600482015260240161027d565b60008373ffffffffffffffffffffffffffffffffffffffff1663b5c736e461064e600386610b90565b6040518263ffffffff1660e01b815260040161066c91815260200190565b602060405180830381865afa158015610689573d6000803e3d6000fd5b505050506040513d601f19601f820116820180604052508101906106ad9190610eb3565b9050600981901c66ffffffffffffff16600182901c60ff161b60006106d28383610bdb565b905081600003610713576040517fd002e25a000000000000000000000000000000000000000000000000000000008152620186e7600482015260240161027d565b6000606461072283605f610f55565b61072c9190610f6c565b90508085101561076d576040517fd002e25a000000000000000000000000000000000000000000000000000000008152620186ec600482015260240161027d565b73ffffffffffffffffffffffffffffffffffffffff80871660009081526020818152604091829020825160a081018452905464ffffffffff8082168084526501000000000083049091169383019390935260ff6a010000000000000000000082048116948301949094526b010000000000000000000000810490931660608201526c0100000000000000000000000090920490921660808201529062015180906108179042610fa7565b1115610858576fffffffffffffffffffffffffffffffff86166080820152600160608201819052604082015264ffffffffff421680825260208201526109a6565b806080015173ffffffffffffffffffffffffffffffffffffffff168610156109a657806060015160ff166004036108c0576040517fd002e25a000000000000000000000000000000000000000000000000000000008152620186ea600482015260240161027d565b610e10816020015164ffffffffff16426108da9190610fa7565b1115610912576001604082018190526060820180516108fa908390610fba565b60ff1690525064ffffffffff4216602082015261098d565b806040015160ff16600203610958576040517fd002e25a000000000000000000000000000000000000000000000000000000008152620186eb600482015260240161027d565b60018160400181815161096b9190610fba565b60ff1690525060608101805160019190610986908390610fba565b60ff169052505b6fffffffffffffffffffffffffffffffff861660808201525b73ffffffffffffffffffffffffffffffffffffffff87811660008181526020818152604091829020855181549287015187850151606089015160808a015164ffffffffff9485167fffffffffffffffffffffffffffffffffffffffffffff0000000000000000000090971696909617650100000000009490931693909302919091177fffffffffffffffffffffffffffffffffffffffff0000ffffffffffffffffffff166a010000000000000000000060ff928316027fffffffffffffffffffffffffffffffffffffffff00ffffffffffffffffffffff16176b0100000000000000000000009190921602176bffffffffffffffffffffffff166c0100000000000000000000000092861692909202919091179055517fa71e49580000000000000000000000000000000000000000000000000000000081526004810191909152602481018890529089169063a71e495890604401600060405180830381600087803b158015610b1557600080fd5b505af1158015610b29573d6000803e3d6000fd5b50506040805173ffffffffffffffffffffffffffffffffffffffff808d1682528b1660208201529081018990527f5b106a5ad98a3fe93cd5a08693a3344f2cec3af1f793a03e133d4bd9f5fecf919250606001905060405180910390a15050505050505050565b6040805173ffffffffffffffffffffffffffffffffffffffff831660208201529081018390526000906060016040516020818303038152906040528051906020012090505b92915050565b600066ffffffffffffff604984901c1660ff604185901c161b808203610c05576000915050610bd5565b612710613fff60a286901c168402046401ffffffff608186901c16420362ffffff60b087901c16610c368284610f55565b610c409190610f6c565b9050808311610c50576000610c54565b8083035b93505080840383811115610c66578093505b50505092915050565b803573ffffffffffffffffffffffffffffffffffffffff81168114610c9357600080fd5b919050565b600080600060608486031215610cad57600080fd5b610cb684610c6f565b9250610cc460208501610c6f565b9150604084013590509250925092565b7f4e487b7100000000000000000000000000000000000000000000000000000000600052604160045260246000fd5b60008060408385031215610d1657600080fd5b610d1f83610c6f565b915060208084013567ffffffffffffffff80821115610d3d57600080fd5b818601915086601f830112610d5157600080fd5b813581811115610d6357610d63610cd4565b8060051b6040517fffffffffffffffffffffffffffffffffffffffffffffffffffffffffffffffe0603f83011681018181108582111715610da657610da6610cd4565b604052918252848201925083810185019189831115610dc457600080fd5b938501935b82851015610de957610dda85610c6f565b84529385019392850192610dc9565b8096505050505050509250929050565b600081518084526020808501945080840160005b83811015610e2957815187529582019590820190600101610e0d565b509495945050505050565b604081526000610e476040830185610df9565b8281036020840152610e598185610df9565b95945050505050565b600060208284031215610e7457600080fd5b610e7d82610c6f565b9392505050565b7f4e487b7100000000000000000000000000000000000000000000000000000000600052603260045260246000fd5b600060208284031215610ec557600080fd5b5051919050565b7f4e487b7100000000000000000000000000000000000000000000000000000000600052601160045260246000fd5b60007fffffffffffffffffffffffffffffffffffffffffffffffffffffffffffffffff8203610f2c57610f2c610ecc565b5060010190565b600060208284031215610f4557600080fd5b81518015158114610e7d57600080fd5b8082028115828204841417610bd557610bd5610ecc565b600082610fa2577f4e487b7100000000000000000000000000000000000000000000000000000000600052601260045260246000fd5b500490565b81810381811115610bd557610bd5610ecc565b60ff8181168382160190811115610bd557610bd5610ecc56fea2646970667358221220ad0dbfd030d0afc6fd6fcd7041fe749a80e323932914a80ee554e97d1236d0fe64736f6c63430008150033",
  "devdoc": {
    "kind": "dev",
    "methods": {
      "rebalanceWithdrawalLimit(address,address,uint256)": {
        "details": "This function can only be called by the rebalancer",
        "params": {
          "dex_": "The address of the dex",
          "newLimit_": "The new withdrawal limit to be set",
          "user_": "The address of the user for which to set the withdrawal limit"
        }
      },
      "setWithdrawalLimit(address,address,uint256)": {
        "details": "This function can only be called by team multisig",
        "params": {
          "dex_": "The address of the dex",
          "newLimit_": "The new withdrawal limit to be set",
          "user_": "The address of the user for which to set the withdrawal limit"
        }
      }
    },
    "version": 1
  },
  "userdoc": {
    "events": {
      "LogRebalanceWithdrawalLimit(address,address,uint256)": {
        "notice": "emitted when rebalancer successfully changes the withdrawal limit"
      },
      "LogSetWithdrawalLimit(address,address,uint256)": {
        "notice": "emitted when multisig successfully changes the withdrawal limit"
      }
    },
    "kind": "user",
    "methods": {
      "rebalanceWithdrawalLimit(address,address,uint256)": {
        "notice": "updates the withdrawal limit for a specific user at a dex"
      },
      "setWithdrawalLimit(address,address,uint256)": {
        "notice": "Sets the withdrawal limit for a specific user at a dex"
      }
    },
    "version": 1
  },
  "storageLayout": {
    "storage": [
      {
        "astId": 384,
        "contract": "contracts/config/withdrawLimitAuthDex/main.sol:FluidWithdrawLimitAuthDex",
        "label": "userData",
        "offset": 0,
        "slot": "0",
        "type": "t_mapping(t_address,t_struct(UserSupplyHistory)340_storage)"
      }
    ],
    "types": {
      "t_address": {
        "encoding": "inplace",
        "label": "address",
        "numberOfBytes": "20"
      },
      "t_mapping(t_address,t_struct(UserSupplyHistory)340_storage)": {
        "encoding": "mapping",
        "key": "t_address",
        "label": "mapping(address => struct Structs.UserSupplyHistory)",
        "numberOfBytes": "32",
        "value": "t_struct(UserSupplyHistory)340_storage"
      },
      "t_struct(UserSupplyHistory)340_storage": {
        "encoding": "inplace",
        "label": "struct Structs.UserSupplyHistory",
        "members": [
          {
            "astId": 331,
            "contract": "contracts/config/withdrawLimitAuthDex/main.sol:FluidWithdrawLimitAuthDex",
            "label": "initialDailyTimestamp",
            "offset": 0,
            "slot": "0",
            "type": "t_uint40"
          },
          {
            "astId": 333,
            "contract": "contracts/config/withdrawLimitAuthDex/main.sol:FluidWithdrawLimitAuthDex",
            "label": "initialHourlyTimestamp",
            "offset": 5,
            "slot": "0",
            "type": "t_uint40"
          },
          {
            "astId": 335,
            "contract": "contracts/config/withdrawLimitAuthDex/main.sol:FluidWithdrawLimitAuthDex",
            "label": "rebalancesIn1Hour",
            "offset": 10,
            "slot": "0",
            "type": "t_uint8"
          },
          {
            "astId": 337,
            "contract": "contracts/config/withdrawLimitAuthDex/main.sol:FluidWithdrawLimitAuthDex",
            "label": "rebalancesIn24Hours",
            "offset": 11,
            "slot": "0",
            "type": "t_uint8"
          },
          {
            "astId": 339,
            "contract": "contracts/config/withdrawLimitAuthDex/main.sol:FluidWithdrawLimitAuthDex",
            "label": "leastDailyUserSupply",
            "offset": 12,
            "slot": "0",
            "type": "t_uint160"
          }
        ],
        "numberOfBytes": "32"
      },
      "t_uint160": {
        "encoding": "inplace",
        "label": "uint160",
        "numberOfBytes": "20"
      },
      "t_uint40": {
        "encoding": "inplace",
        "label": "uint40",
        "numberOfBytes": "5"
      },
      "t_uint8": {
        "encoding": "inplace",
        "label": "uint8",
        "numberOfBytes": "1"
      }
    }
  }
}