{
  "address": "0x94c1F4512Ff5746f75A620576c1ADD6772e6e314",
  "abi": [
    {
      "inputs": [
        {
          "internalType": "address",
          "name": "factory_",
          "type": "address"
        },
        {
          "internalType": "address",
          "name": "liquidity_",
          "type": "address"
        },
        {
          "internalType": "address",
          "name": "liquidityResolver_",
          "type": "address"
        }
      ],
      "stateMutability": "nonpayable",
      "type": "constructor"
    },
    {
      "inputs": [],
      "name": "FACTORY",
      "outputs": [
        {
          "internalType": "contract IFluidVaultFactory",
          "name": "",
          "type": "address"
        }
      ],
      "stateMutability": "view",
      "type": "function"
    },
    {
      "inputs": [],
      "name": "LIQUIDITY",
      "outputs": [
        {
          "internalType": "contract IFluidLiquidity",
          "name": "",
          "type": "address"
        }
      ],
      "stateMutability": "view",
      "type": "function"
    },
    {
      "inputs": [],
      "name": "LIQUIDITY_RESOLVER",
      "outputs": [
        {
          "internalType": "contract IFluidLiquidityResolver",
          "name": "",
          "type": "address"
        }
      ],
      "stateMutability": "view",
      "type": "function"
    },
    {
      "inputs": [
        {
          "internalType": "uint256",
          "name": "slot_",
          "type": "uint256"
        },
        {
          "internalType": "int256",
          "name": "key1_",
          "type": "int256"
        },
        {
          "internalType": "uint256",
          "name": "key2_",
          "type": "uint256"
        }
      ],
      "name": "calculateDoubleIntUintMapping",
      "outputs": [
        {
          "internalType": "bytes32",
          "name": "",
          "type": "bytes32"
        }
      ],
      "stateMutability": "pure",
      "type": "function"
    },
    {
      "inputs": [
        {
          "internalType": "uint256",
          "name": "slot_",
          "type": "uint256"
        },
        {
          "internalType": "int256",
          "name": "key_",
          "type": "int256"
        }
      ],
      "name": "calculateStorageSlotIntMapping",
      "outputs": [
        {
          "internalType": "bytes32",
          "name": "",
          "type": "bytes32"
        }
      ],
      "stateMutability": "pure",
      "type": "function"
    },
    {
      "inputs": [
        {
          "internalType": "uint256",
          "name": "slot_",
          "type": "uint256"
        },
        {
          "internalType": "uint256",
          "name": "key_",
          "type": "uint256"
        }
      ],
      "name": "calculateStorageSlotUintMapping",
      "outputs": [
        {
          "internalType": "bytes32",
          "name": "",
          "type": "bytes32"
        }
      ],
      "stateMutability": "pure",
      "type": "function"
    },
    {
      "inputs": [
        {
          "internalType": "address",
          "name": "vault_",
          "type": "address"
        }
      ],
      "name": "getAbsorbedLiquidityRaw",
      "outputs": [
        {
          "internalType": "uint256",
          "name": "",
          "type": "uint256"
        }
      ],
      "stateMutability": "view",
      "type": "function"
    },
    {
      "inputs": [],
      "name": "getAllVaultsAddresses",
      "outputs": [
        {
          "internalType": "address[]",
          "name": "vaults_",
          "type": "address[]"
        }
      ],
      "stateMutability": "view",
      "type": "function"
    },
    {
      "inputs": [],
      "name": "getAllVaultsLiquidation",
      "outputs": [
        {
          "components": [
            {
              "internalType": "address",
              "name": "vault",
              "type": "address"
            },
            {
              "internalType": "address",
              "name": "tokenIn",
              "type": "address"
            },
            {
              "internalType": "address",
              "name": "tokenOut",
              "type": "address"
            },
            {
              "internalType": "uint256",
              "name": "tokenInAmtOne",
              "type": "uint256"
            },
            {
              "internalType": "uint256",
              "name": "tokenOutAmtOne",
              "type": "uint256"
            },
            {
              "internalType": "uint256",
              "name": "tokenInAmtTwo",
              "type": "uint256"
            },
            {
              "internalType": "uint256",
              "name": "tokenOutAmtTwo",
              "type": "uint256"
            }
          ],
          "internalType": "struct Structs.LiquidationStruct[]",
          "name": "liquidationsData_",
          "type": "tuple[]"
        }
      ],
      "stateMutability": "nonpayable",
      "type": "function"
    },
    {
      "inputs": [
        {
          "internalType": "address",
          "name": "vault_",
          "type": "address"
        },
        {
          "internalType": "uint256",
          "name": "branch_",
          "type": "uint256"
        }
      ],
      "name": "getBranchDataRaw",
      "outputs": [
        {
          "internalType": "uint256",
          "name": "",
          "type": "uint256"
        }
      ],
      "stateMutability": "view",
      "type": "function"
    },
    {
      "inputs": [
        {
          "internalType": "address[]",
          "name": "vaults_",
          "type": "address[]"
        },
        {
          "internalType": "uint256[]",
          "name": "tokensInAmt_",
          "type": "uint256[]"
        }
      ],
      "name": "getMultipleVaultsLiquidation",
      "outputs": [
        {
          "components": [
            {
              "internalType": "address",
              "name": "vault",
              "type": "address"
            },
            {
              "internalType": "address",
              "name": "tokenIn",
              "type": "address"
            },
            {
              "internalType": "address",
              "name": "tokenOut",
              "type": "address"
            },
            {
              "internalType": "uint256",
              "name": "tokenInAmtOne",
              "type": "uint256"
            },
            {
              "internalType": "uint256",
              "name": "tokenOutAmtOne",
              "type": "uint256"
            },
            {
              "internalType": "uint256",
              "name": "tokenInAmtTwo",
              "type": "uint256"
            },
            {
              "internalType": "uint256",
              "name": "tokenOutAmtTwo",
              "type": "uint256"
            }
          ],
          "internalType": "struct Structs.LiquidationStruct[]",
          "name": "liquidationsData_",
          "type": "tuple[]"
        }
      ],
      "stateMutability": "nonpayable",
      "type": "function"
    },
    {
      "inputs": [
        {
          "internalType": "address",
          "name": "vault_",
          "type": "address"
        },
        {
          "internalType": "uint256",
          "name": "positionId_",
          "type": "uint256"
        }
      ],
      "name": "getPositionDataRaw",
      "outputs": [
        {
          "internalType": "uint256",
          "name": "",
          "type": "uint256"
        }
      ],
      "stateMutability": "view",
      "type": "function"
    },
    {
      "inputs": [
        {
          "internalType": "address",
          "name": "vault_",
          "type": "address"
        }
      ],
      "name": "getRateRaw",
      "outputs": [
        {
          "internalType": "uint256",
          "name": "",
          "type": "uint256"
        }
      ],
      "stateMutability": "view",
      "type": "function"
    },
    {
      "inputs": [
        {
          "internalType": "address",
          "name": "vault_",
          "type": "address"
        }
      ],
      "name": "getRebalancer",
      "outputs": [
        {
          "internalType": "address",
          "name": "",
          "type": "address"
        }
      ],
      "stateMutability": "view",
      "type": "function"
    },
    {
      "inputs": [
        {
          "internalType": "address",
          "name": "vault_",
          "type": "address"
        },
        {
          "internalType": "int256",
          "name": "tick_",
          "type": "int256"
        }
      ],
      "name": "getTickDataRaw",
      "outputs": [
        {
          "internalType": "uint256",
          "name": "",
          "type": "uint256"
        }
      ],
      "stateMutability": "view",
      "type": "function"
    },
    {
      "inputs": [
        {
          "internalType": "address",
          "name": "vault_",
          "type": "address"
        },
        {
          "internalType": "int256",
          "name": "key_",
          "type": "int256"
        }
      ],
      "name": "getTickHasDebtRaw",
      "outputs": [
        {
          "internalType": "uint256",
          "name": "",
          "type": "uint256"
        }
      ],
      "stateMutability": "view",
      "type": "function"
    },
    {
      "inputs": [
        {
          "internalType": "address",
          "name": "vault_",
          "type": "address"
        },
        {
          "internalType": "int256",
          "name": "tick_",
          "type": "int256"
        },
        {
          "internalType": "uint256",
          "name": "id_",
          "type": "uint256"
        }
      ],
      "name": "getTickIdDataRaw",
      "outputs": [
        {
          "internalType": "uint256",
          "name": "",
          "type": "uint256"
        }
      ],
      "stateMutability": "view",
      "type": "function"
    },
    {
      "inputs": [
        {
          "internalType": "uint256",
          "name": "nftId_",
          "type": "uint256"
        }
      ],
      "name": "getTokenConfig",
      "outputs": [
        {
          "internalType": "uint256",
          "name": "",
          "type": "uint256"
        }
      ],
      "stateMutability": "view",
      "type": "function"
    },
    {
      "inputs": [],
      "name": "getTotalVaults",
      "outputs": [
        {
          "internalType": "uint256",
          "name": "",
          "type": "uint256"
        }
      ],
      "stateMutability": "view",
      "type": "function"
    },
    {
      "inputs": [
        {
          "internalType": "uint256",
          "name": "vaultId_",
          "type": "uint256"
        }
      ],
      "name": "getVaultAddress",
      "outputs": [
        {
          "internalType": "address",
          "name": "vault_",
          "type": "address"
        }
      ],
      "stateMutability": "view",
      "type": "function"
    },
    {
      "inputs": [
        {
          "internalType": "address",
          "name": "vault_",
          "type": "address"
        }
      ],
      "name": "getVaultEntireData",
      "outputs": [
        {
          "components": [
            {
              "internalType": "address",
              "name": "vault",
              "type": "address"
            },
            {
              "components": [
                {
                  "internalType": "address",
                  "name": "liquidity",
                  "type": "address"
                },
                {
                  "internalType": "address",
                  "name": "factory",
                  "type": "address"
                },
                {
                  "internalType": "address",
                  "name": "adminImplementation",
                  "type": "address"
                },
                {
                  "internalType": "address",
                  "name": "secondaryImplementation",
                  "type": "address"
                },
                {
                  "internalType": "address",
                  "name": "supplyToken",
                  "type": "address"
                },
                {
                  "internalType": "address",
                  "name": "borrowToken",
                  "type": "address"
                },
                {
                  "internalType": "uint8",
                  "name": "supplyDecimals",
                  "type": "uint8"
                },
                {
                  "internalType": "uint8",
                  "name": "borrowDecimals",
                  "type": "uint8"
                },
                {
                  "internalType": "uint256",
                  "name": "vaultId",
                  "type": "uint256"
                },
                {
                  "internalType": "bytes32",
                  "name": "liquidityTotalSupplySlot",
                  "type": "bytes32"
                },
                {
                  "internalType": "bytes32",
                  "name": "liquidityTotalBorrowSlot",
                  "type": "bytes32"
                },
                {
                  "internalType": "bytes32",
                  "name": "liquiditySupplyExchangePriceSlot",
                  "type": "bytes32"
                },
                {
                  "internalType": "bytes32",
                  "name": "liquidityBorrowExchangePriceSlot",
                  "type": "bytes32"
                },
                {
                  "internalType": "bytes32",
                  "name": "liquidityUserSupplySlot",
                  "type": "bytes32"
                },
                {
                  "internalType": "bytes32",
                  "name": "liquidityUserBorrowSlot",
                  "type": "bytes32"
                }
              ],
              "internalType": "struct IFluidVaultT1.ConstantViews",
              "name": "constantVariables",
              "type": "tuple"
            },
            {
              "components": [
                {
                  "internalType": "uint16",
                  "name": "supplyRateMagnifier",
                  "type": "uint16"
                },
                {
                  "internalType": "uint16",
                  "name": "borrowRateMagnifier",
                  "type": "uint16"
                },
                {
                  "internalType": "uint16",
                  "name": "collateralFactor",
                  "type": "uint16"
                },
                {
                  "internalType": "uint16",
                  "name": "liquidationThreshold",
                  "type": "uint16"
                },
                {
                  "internalType": "uint16",
                  "name": "liquidationMaxLimit",
                  "type": "uint16"
                },
                {
                  "internalType": "uint16",
                  "name": "withdrawalGap",
                  "type": "uint16"
                },
                {
                  "internalType": "uint16",
                  "name": "liquidationPenalty",
                  "type": "uint16"
                },
                {
                  "internalType": "uint16",
                  "name": "borrowFee",
                  "type": "uint16"
                },
                {
                  "internalType": "address",
                  "name": "oracle",
                  "type": "address"
                },
                {
                  "internalType": "uint256",
                  "name": "oraclePrice",
                  "type": "uint256"
                },
                {
                  "internalType": "address",
                  "name": "rebalancer",
                  "type": "address"
                }
              ],
              "internalType": "struct Structs.Configs",
              "name": "configs",
              "type": "tuple"
            },
            {
              "components": [
                {
                  "internalType": "uint256",
                  "name": "lastStoredLiquiditySupplyExchangePrice",
                  "type": "uint256"
                },
                {
                  "internalType": "uint256",
                  "name": "lastStoredLiquidityBorrowExchangePrice",
                  "type": "uint256"
                },
                {
                  "internalType": "uint256",
                  "name": "lastStoredVaultSupplyExchangePrice",
                  "type": "uint256"
                },
                {
                  "internalType": "uint256",
                  "name": "lastStoredVaultBorrowExchangePrice",
                  "type": "uint256"
                },
                {
                  "internalType": "uint256",
                  "name": "liquiditySupplyExchangePrice",
                  "type": "uint256"
                },
                {
                  "internalType": "uint256",
                  "name": "liquidityBorrowExchangePrice",
                  "type": "uint256"
                },
                {
                  "internalType": "uint256",
                  "name": "vaultSupplyExchangePrice",
                  "type": "uint256"
                },
                {
                  "internalType": "uint256",
                  "name": "vaultBorrowExchangePrice",
                  "type": "uint256"
                },
                {
                  "internalType": "uint256",
                  "name": "supplyRateVault",
                  "type": "uint256"
                },
                {
                  "internalType": "uint256",
                  "name": "borrowRateVault",
                  "type": "uint256"
                },
                {
                  "internalType": "uint256",
                  "name": "supplyRateLiquidity",
                  "type": "uint256"
                },
                {
                  "internalType": "uint256",
                  "name": "borrowRateLiquidity",
                  "type": "uint256"
                },
                {
                  "internalType": "uint256",
                  "name": "rewardsRate",
                  "type": "uint256"
                }
              ],
              "internalType": "struct Structs.ExchangePricesAndRates",
              "name": "exchangePricesAndRates",
              "type": "tuple"
            },
            {
              "components": [
                {
                  "internalType": "uint256",
                  "name": "totalSupplyVault",
                  "type": "uint256"
                },
                {
                  "internalType": "uint256",
                  "name": "totalBorrowVault",
                  "type": "uint256"
                },
                {
                  "internalType": "uint256",
                  "name": "totalSupplyLiquidity",
                  "type": "uint256"
                },
                {
                  "internalType": "uint256",
                  "name": "totalBorrowLiquidity",
                  "type": "uint256"
                },
                {
                  "internalType": "uint256",
                  "name": "absorbedSupply",
                  "type": "uint256"
                },
                {
                  "internalType": "uint256",
                  "name": "absorbedBorrow",
                  "type": "uint256"
                }
              ],
              "internalType": "struct Structs.TotalSupplyAndBorrow",
              "name": "totalSupplyAndBorrow",
              "type": "tuple"
            },
            {
              "components": [
                {
                  "internalType": "uint256",
                  "name": "withdrawLimit",
                  "type": "uint256"
                },
                {
                  "internalType": "uint256",
                  "name": "withdrawableUntilLimit",
                  "type": "uint256"
                },
                {
                  "internalType": "uint256",
                  "name": "withdrawable",
                  "type": "uint256"
                },
                {
                  "internalType": "uint256",
                  "name": "borrowLimit",
                  "type": "uint256"
                },
                {
                  "internalType": "uint256",
                  "name": "borrowableUntilLimit",
                  "type": "uint256"
                },
                {
                  "internalType": "uint256",
                  "name": "borrowable",
                  "type": "uint256"
                },
                {
                  "internalType": "uint256",
                  "name": "minimumBorrowing",
                  "type": "uint256"
                }
              ],
              "internalType": "struct Structs.LimitsAndAvailability",
              "name": "limitsAndAvailability",
              "type": "tuple"
            },
            {
              "components": [
                {
                  "internalType": "uint256",
                  "name": "totalPositions",
                  "type": "uint256"
                },
                {
                  "internalType": "int256",
                  "name": "topTick",
                  "type": "int256"
                },
                {
                  "internalType": "uint256",
                  "name": "currentBranch",
                  "type": "uint256"
                },
                {
                  "internalType": "uint256",
                  "name": "totalBranch",
                  "type": "uint256"
                },
                {
                  "internalType": "uint256",
                  "name": "totalBorrow",
                  "type": "uint256"
                },
                {
                  "internalType": "uint256",
                  "name": "totalSupply",
                  "type": "uint256"
                },
                {
                  "components": [
                    {
                      "internalType": "uint256",
                      "name": "status",
                      "type": "uint256"
                    },
                    {
                      "internalType": "int256",
                      "name": "minimaTick",
                      "type": "int256"
                    },
                    {
                      "internalType": "uint256",
                      "name": "debtFactor",
                      "type": "uint256"
                    },
                    {
                      "internalType": "uint256",
                      "name": "partials",
                      "type": "uint256"
                    },
                    {
                      "internalType": "uint256",
                      "name": "debtLiquidity",
                      "type": "uint256"
                    },
                    {
                      "internalType": "uint256",
                      "name": "baseBranchId",
                      "type": "uint256"
                    },
                    {
                      "internalType": "int256",
                      "name": "baseBranchMinima",
                      "type": "int256"
                    }
                  ],
                  "internalType": "struct Structs.CurrentBranchState",
                  "name": "currentBranchState",
                  "type": "tuple"
                }
              ],
              "internalType": "struct Structs.VaultState",
              "name": "vaultState",
              "type": "tuple"
            },
            {
              "components": [
                {
                  "internalType": "bool",
                  "name": "modeWithInterest",
                  "type": "bool"
                },
                {
                  "internalType": "uint256",
                  "name": "supply",
                  "type": "uint256"
                },
                {
                  "internalType": "uint256",
                  "name": "withdrawalLimit",
                  "type": "uint256"
                },
                {
                  "internalType": "uint256",
                  "name": "lastUpdateTimestamp",
                  "type": "uint256"
                },
                {
                  "internalType": "uint256",
                  "name": "expandPercent",
                  "type": "uint256"
                },
                {
                  "internalType": "uint256",
                  "name": "expandDuration",
                  "type": "uint256"
                },
                {
                  "internalType": "uint256",
                  "name": "baseWithdrawalLimit",
                  "type": "uint256"
                },
                {
                  "internalType": "uint256",
                  "name": "withdrawableUntilLimit",
                  "type": "uint256"
                },
                {
                  "internalType": "uint256",
                  "name": "withdrawable",
                  "type": "uint256"
                }
              ],
              "internalType": "struct Structs.UserSupplyData",
              "name": "liquidityUserSupplyData",
              "type": "tuple"
            },
            {
              "components": [
                {
                  "internalType": "bool",
                  "name": "modeWithInterest",
                  "type": "bool"
                },
                {
                  "internalType": "uint256",
                  "name": "borrow",
                  "type": "uint256"
                },
                {
                  "internalType": "uint256",
                  "name": "borrowLimit",
                  "type": "uint256"
                },
                {
                  "internalType": "uint256",
                  "name": "lastUpdateTimestamp",
                  "type": "uint256"
                },
                {
                  "internalType": "uint256",
                  "name": "expandPercent",
                  "type": "uint256"
                },
                {
                  "internalType": "uint256",
                  "name": "expandDuration",
                  "type": "uint256"
                },
                {
                  "internalType": "uint256",
                  "name": "baseBorrowLimit",
                  "type": "uint256"
                },
                {
                  "internalType": "uint256",
                  "name": "maxBorrowLimit",
                  "type": "uint256"
                },
                {
                  "internalType": "uint256",
                  "name": "borrowableUntilLimit",
                  "type": "uint256"
                },
                {
                  "internalType": "uint256",
                  "name": "borrowable",
                  "type": "uint256"
                }
              ],
              "internalType": "struct Structs.UserBorrowData",
              "name": "liquidityUserBorrowData",
              "type": "tuple"
            }
          ],
          "internalType": "struct Structs.VaultEntireData",
          "name": "vaultData_",
          "type": "tuple"
        }
      ],
      "stateMutability": "view",
      "type": "function"
    },
    {
      "inputs": [
        {
          "internalType": "address",
          "name": "vault_",
          "type": "address"
        }
      ],
      "name": "getVaultId",
      "outputs": [
        {
          "internalType": "uint256",
          "name": "id_",
          "type": "uint256"
        }
      ],
      "stateMutability": "view",
      "type": "function"
    },
    {
      "inputs": [
        {
          "internalType": "address",
          "name": "vault_",
          "type": "address"
        },
        {
          "internalType": "uint256",
          "name": "tokenInAmt_",
          "type": "uint256"
        }
      ],
      "name": "getVaultLiquidation",
      "outputs": [
        {
          "components": [
            {
              "internalType": "address",
              "name": "vault",
              "type": "address"
            },
            {
              "internalType": "address",
              "name": "tokenIn",
              "type": "address"
            },
            {
              "internalType": "address",
              "name": "tokenOut",
              "type": "address"
            },
            {
              "internalType": "uint256",
              "name": "tokenInAmtOne",
              "type": "uint256"
            },
            {
              "internalType": "uint256",
              "name": "tokenOutAmtOne",
              "type": "uint256"
            },
            {
              "internalType": "uint256",
              "name": "tokenInAmtTwo",
              "type": "uint256"
            },
            {
              "internalType": "uint256",
              "name": "tokenOutAmtTwo",
              "type": "uint256"
            }
          ],
          "internalType": "struct Structs.LiquidationStruct",
          "name": "liquidationData_",
          "type": "tuple"
        }
      ],
      "stateMutability": "nonpayable",
      "type": "function"
    },
    {
      "inputs": [
        {
          "internalType": "address",
          "name": "vault_",
          "type": "address"
        }
      ],
      "name": "getVaultState",
      "outputs": [
        {
          "components": [
            {
              "internalType": "uint256",
              "name": "totalPositions",
              "type": "uint256"
            },
            {
              "internalType": "int256",
              "name": "topTick",
              "type": "int256"
            },
            {
              "internalType": "uint256",
              "name": "currentBranch",
              "type": "uint256"
            },
            {
              "internalType": "uint256",
              "name": "totalBranch",
              "type": "uint256"
            },
            {
              "internalType": "uint256",
              "name": "totalBorrow",
              "type": "uint256"
            },
            {
              "internalType": "uint256",
              "name": "totalSupply",
              "type": "uint256"
            },
            {
              "components": [
                {
                  "internalType": "uint256",
                  "name": "status",
                  "type": "uint256"
                },
                {
                  "internalType": "int256",
                  "name": "minimaTick",
                  "type": "int256"
                },
                {
                  "internalType": "uint256",
                  "name": "debtFactor",
                  "type": "uint256"
                },
                {
                  "internalType": "uint256",
                  "name": "partials",
                  "type": "uint256"
                },
                {
                  "internalType": "uint256",
                  "name": "debtLiquidity",
                  "type": "uint256"
                },
                {
                  "internalType": "uint256",
                  "name": "baseBranchId",
                  "type": "uint256"
                },
                {
                  "internalType": "int256",
                  "name": "baseBranchMinima",
                  "type": "int256"
                }
              ],
              "internalType": "struct Structs.CurrentBranchState",
              "name": "currentBranchState",
              "type": "tuple"
            }
          ],
          "internalType": "struct Structs.VaultState",
          "name": "vaultState_",
          "type": "tuple"
        }
      ],
      "stateMutability": "view",
      "type": "function"
    },
    {
      "inputs": [
        {
          "internalType": "address",
          "name": "vault_",
          "type": "address"
        }
      ],
      "name": "getVaultVariables2Raw",
      "outputs": [
        {
          "internalType": "uint256",
          "name": "",
          "type": "uint256"
        }
      ],
      "stateMutability": "view",
      "type": "function"
    },
    {
      "inputs": [
        {
          "internalType": "address",
          "name": "vault_",
          "type": "address"
        }
      ],
      "name": "getVaultVariablesRaw",
      "outputs": [
        {
          "internalType": "uint256",
          "name": "",
          "type": "uint256"
        }
      ],
      "stateMutability": "view",
      "type": "function"
    },
    {
      "inputs": [
        {
          "internalType": "address[]",
          "name": "vaults_",
          "type": "address[]"
        }
      ],
      "name": "getVaultsEntireData",
      "outputs": [
        {
          "components": [
            {
              "internalType": "address",
              "name": "vault",
              "type": "address"
            },
            {
              "components": [
                {
                  "internalType": "address",
                  "name": "liquidity",
                  "type": "address"
                },
                {
                  "internalType": "address",
                  "name": "factory",
                  "type": "address"
                },
                {
                  "internalType": "address",
                  "name": "adminImplementation",
                  "type": "address"
                },
                {
                  "internalType": "address",
                  "name": "secondaryImplementation",
                  "type": "address"
                },
                {
                  "internalType": "address",
                  "name": "supplyToken",
                  "type": "address"
                },
                {
                  "internalType": "address",
                  "name": "borrowToken",
                  "type": "address"
                },
                {
                  "internalType": "uint8",
                  "name": "supplyDecimals",
                  "type": "uint8"
                },
                {
                  "internalType": "uint8",
                  "name": "borrowDecimals",
                  "type": "uint8"
                },
                {
                  "internalType": "uint256",
                  "name": "vaultId",
                  "type": "uint256"
                },
                {
                  "internalType": "bytes32",
                  "name": "liquidityTotalSupplySlot",
                  "type": "bytes32"
                },
                {
                  "internalType": "bytes32",
                  "name": "liquidityTotalBorrowSlot",
                  "type": "bytes32"
                },
                {
                  "internalType": "bytes32",
                  "name": "liquiditySupplyExchangePriceSlot",
                  "type": "bytes32"
                },
                {
                  "internalType": "bytes32",
                  "name": "liquidityBorrowExchangePriceSlot",
                  "type": "bytes32"
                },
                {
                  "internalType": "bytes32",
                  "name": "liquidityUserSupplySlot",
                  "type": "bytes32"
                },
                {
                  "internalType": "bytes32",
                  "name": "liquidityUserBorrowSlot",
                  "type": "bytes32"
                }
              ],
              "internalType": "struct IFluidVaultT1.ConstantViews",
              "name": "constantVariables",
              "type": "tuple"
            },
            {
              "components": [
                {
                  "internalType": "uint16",
                  "name": "supplyRateMagnifier",
                  "type": "uint16"
                },
                {
                  "internalType": "uint16",
                  "name": "borrowRateMagnifier",
                  "type": "uint16"
                },
                {
                  "internalType": "uint16",
                  "name": "collateralFactor",
                  "type": "uint16"
                },
                {
                  "internalType": "uint16",
                  "name": "liquidationThreshold",
                  "type": "uint16"
                },
                {
                  "internalType": "uint16",
                  "name": "liquidationMaxLimit",
                  "type": "uint16"
                },
                {
                  "internalType": "uint16",
                  "name": "withdrawalGap",
                  "type": "uint16"
                },
                {
                  "internalType": "uint16",
                  "name": "liquidationPenalty",
                  "type": "uint16"
                },
                {
                  "internalType": "uint16",
                  "name": "borrowFee",
                  "type": "uint16"
                },
                {
                  "internalType": "address",
                  "name": "oracle",
                  "type": "address"
                },
                {
                  "internalType": "uint256",
                  "name": "oraclePrice",
                  "type": "uint256"
                },
                {
                  "internalType": "address",
                  "name": "rebalancer",
                  "type": "address"
                }
              ],
              "internalType": "struct Structs.Configs",
              "name": "configs",
              "type": "tuple"
            },
            {
              "components": [
                {
                  "internalType": "uint256",
                  "name": "lastStoredLiquiditySupplyExchangePrice",
                  "type": "uint256"
                },
                {
                  "internalType": "uint256",
                  "name": "lastStoredLiquidityBorrowExchangePrice",
                  "type": "uint256"
                },
                {
                  "internalType": "uint256",
                  "name": "lastStoredVaultSupplyExchangePrice",
                  "type": "uint256"
                },
                {
                  "internalType": "uint256",
                  "name": "lastStoredVaultBorrowExchangePrice",
                  "type": "uint256"
                },
                {
                  "internalType": "uint256",
                  "name": "liquiditySupplyExchangePrice",
                  "type": "uint256"
                },
                {
                  "internalType": "uint256",
                  "name": "liquidityBorrowExchangePrice",
                  "type": "uint256"
                },
                {
                  "internalType": "uint256",
                  "name": "vaultSupplyExchangePrice",
                  "type": "uint256"
                },
                {
                  "internalType": "uint256",
                  "name": "vaultBorrowExchangePrice",
                  "type": "uint256"
                },
                {
                  "internalType": "uint256",
                  "name": "supplyRateVault",
                  "type": "uint256"
                },
                {
                  "internalType": "uint256",
                  "name": "borrowRateVault",
                  "type": "uint256"
                },
                {
                  "internalType": "uint256",
                  "name": "supplyRateLiquidity",
                  "type": "uint256"
                },
                {
                  "internalType": "uint256",
                  "name": "borrowRateLiquidity",
                  "type": "uint256"
                },
                {
                  "internalType": "uint256",
                  "name": "rewardsRate",
                  "type": "uint256"
                }
              ],
              "internalType": "struct Structs.ExchangePricesAndRates",
              "name": "exchangePricesAndRates",
              "type": "tuple"
            },
            {
              "components": [
                {
                  "internalType": "uint256",
                  "name": "totalSupplyVault",
                  "type": "uint256"
                },
                {
                  "internalType": "uint256",
                  "name": "totalBorrowVault",
                  "type": "uint256"
                },
                {
                  "internalType": "uint256",
                  "name": "totalSupplyLiquidity",
                  "type": "uint256"
                },
                {
                  "internalType": "uint256",
                  "name": "totalBorrowLiquidity",
                  "type": "uint256"
                },
                {
                  "internalType": "uint256",
                  "name": "absorbedSupply",
                  "type": "uint256"
                },
                {
                  "internalType": "uint256",
                  "name": "absorbedBorrow",
                  "type": "uint256"
                }
              ],
              "internalType": "struct Structs.TotalSupplyAndBorrow",
              "name": "totalSupplyAndBorrow",
              "type": "tuple"
            },
            {
              "components": [
                {
                  "internalType": "uint256",
                  "name": "withdrawLimit",
                  "type": "uint256"
                },
                {
                  "internalType": "uint256",
                  "name": "withdrawableUntilLimit",
                  "type": "uint256"
                },
                {
                  "internalType": "uint256",
                  "name": "withdrawable",
                  "type": "uint256"
                },
                {
                  "internalType": "uint256",
                  "name": "borrowLimit",
                  "type": "uint256"
                },
                {
                  "internalType": "uint256",
                  "name": "borrowableUntilLimit",
                  "type": "uint256"
                },
                {
                  "internalType": "uint256",
                  "name": "borrowable",
                  "type": "uint256"
                },
                {
                  "internalType": "uint256",
                  "name": "minimumBorrowing",
                  "type": "uint256"
                }
              ],
              "internalType": "struct Structs.LimitsAndAvailability",
              "name": "limitsAndAvailability",
              "type": "tuple"
            },
            {
              "components": [
                {
                  "internalType": "uint256",
                  "name": "totalPositions",
                  "type": "uint256"
                },
                {
                  "internalType": "int256",
                  "name": "topTick",
                  "type": "int256"
                },
                {
                  "internalType": "uint256",
                  "name": "currentBranch",
                  "type": "uint256"
                },
                {
                  "internalType": "uint256",
                  "name": "totalBranch",
                  "type": "uint256"
                },
                {
                  "internalType": "uint256",
                  "name": "totalBorrow",
                  "type": "uint256"
                },
                {
                  "internalType": "uint256",
                  "name": "totalSupply",
                  "type": "uint256"
                },
                {
                  "components": [
                    {
                      "internalType": "uint256",
                      "name": "status",
                      "type": "uint256"
                    },
                    {
                      "internalType": "int256",
                      "name": "minimaTick",
                      "type": "int256"
                    },
                    {
                      "internalType": "uint256",
                      "name": "debtFactor",
                      "type": "uint256"
                    },
                    {
                      "internalType": "uint256",
                      "name": "partials",
                      "type": "uint256"
                    },
                    {
                      "internalType": "uint256",
                      "name": "debtLiquidity",
                      "type": "uint256"
                    },
                    {
                      "internalType": "uint256",
                      "name": "baseBranchId",
                      "type": "uint256"
                    },
                    {
                      "internalType": "int256",
                      "name": "baseBranchMinima",
                      "type": "int256"
                    }
                  ],
                  "internalType": "struct Structs.CurrentBranchState",
                  "name": "currentBranchState",
                  "type": "tuple"
                }
              ],
              "internalType": "struct Structs.VaultState",
              "name": "vaultState",
              "type": "tuple"
            },
            {
              "components": [
                {
                  "internalType": "bool",
                  "name": "modeWithInterest",
                  "type": "bool"
                },
                {
                  "internalType": "uint256",
                  "name": "supply",
                  "type": "uint256"
                },
                {
                  "internalType": "uint256",
                  "name": "withdrawalLimit",
                  "type": "uint256"
                },
                {
                  "internalType": "uint256",
                  "name": "lastUpdateTimestamp",
                  "type": "uint256"
                },
                {
                  "internalType": "uint256",
                  "name": "expandPercent",
                  "type": "uint256"
                },
                {
                  "internalType": "uint256",
                  "name": "expandDuration",
                  "type": "uint256"
                },
                {
                  "internalType": "uint256",
                  "name": "baseWithdrawalLimit",
                  "type": "uint256"
                },
                {
                  "internalType": "uint256",
                  "name": "withdrawableUntilLimit",
                  "type": "uint256"
                },
                {
                  "internalType": "uint256",
                  "name": "withdrawable",
                  "type": "uint256"
                }
              ],
              "internalType": "struct Structs.UserSupplyData",
              "name": "liquidityUserSupplyData",
              "type": "tuple"
            },
            {
              "components": [
                {
                  "internalType": "bool",
                  "name": "modeWithInterest",
                  "type": "bool"
                },
                {
                  "internalType": "uint256",
                  "name": "borrow",
                  "type": "uint256"
                },
                {
                  "internalType": "uint256",
                  "name": "borrowLimit",
                  "type": "uint256"
                },
                {
                  "internalType": "uint256",
                  "name": "lastUpdateTimestamp",
                  "type": "uint256"
                },
                {
                  "internalType": "uint256",
                  "name": "expandPercent",
                  "type": "uint256"
                },
                {
                  "internalType": "uint256",
                  "name": "expandDuration",
                  "type": "uint256"
                },
                {
                  "internalType": "uint256",
                  "name": "baseBorrowLimit",
                  "type": "uint256"
                },
                {
                  "internalType": "uint256",
                  "name": "maxBorrowLimit",
                  "type": "uint256"
                },
                {
                  "internalType": "uint256",
                  "name": "borrowableUntilLimit",
                  "type": "uint256"
                },
                {
                  "internalType": "uint256",
                  "name": "borrowable",
                  "type": "uint256"
                }
              ],
              "internalType": "struct Structs.UserBorrowData",
              "name": "liquidityUserBorrowData",
              "type": "tuple"
            }
          ],
          "internalType": "struct Structs.VaultEntireData[]",
          "name": "vaultsData_",
          "type": "tuple[]"
        }
      ],
      "stateMutability": "view",
      "type": "function"
    },
    {
      "inputs": [],
      "name": "getVaultsEntireData",
      "outputs": [
        {
          "components": [
            {
              "internalType": "address",
              "name": "vault",
              "type": "address"
            },
            {
              "components": [
                {
                  "internalType": "address",
                  "name": "liquidity",
                  "type": "address"
                },
                {
                  "internalType": "address",
                  "name": "factory",
                  "type": "address"
                },
                {
                  "internalType": "address",
                  "name": "adminImplementation",
                  "type": "address"
                },
                {
                  "internalType": "address",
                  "name": "secondaryImplementation",
                  "type": "address"
                },
                {
                  "internalType": "address",
                  "name": "supplyToken",
                  "type": "address"
                },
                {
                  "internalType": "address",
                  "name": "borrowToken",
                  "type": "address"
                },
                {
                  "internalType": "uint8",
                  "name": "supplyDecimals",
                  "type": "uint8"
                },
                {
                  "internalType": "uint8",
                  "name": "borrowDecimals",
                  "type": "uint8"
                },
                {
                  "internalType": "uint256",
                  "name": "vaultId",
                  "type": "uint256"
                },
                {
                  "internalType": "bytes32",
                  "name": "liquidityTotalSupplySlot",
                  "type": "bytes32"
                },
                {
                  "internalType": "bytes32",
                  "name": "liquidityTotalBorrowSlot",
                  "type": "bytes32"
                },
                {
                  "internalType": "bytes32",
                  "name": "liquiditySupplyExchangePriceSlot",
                  "type": "bytes32"
                },
                {
                  "internalType": "bytes32",
                  "name": "liquidityBorrowExchangePriceSlot",
                  "type": "bytes32"
                },
                {
                  "internalType": "bytes32",
                  "name": "liquidityUserSupplySlot",
                  "type": "bytes32"
                },
                {
                  "internalType": "bytes32",
                  "name": "liquidityUserBorrowSlot",
                  "type": "bytes32"
                }
              ],
              "internalType": "struct IFluidVaultT1.ConstantViews",
              "name": "constantVariables",
              "type": "tuple"
            },
            {
              "components": [
                {
                  "internalType": "uint16",
                  "name": "supplyRateMagnifier",
                  "type": "uint16"
                },
                {
                  "internalType": "uint16",
                  "name": "borrowRateMagnifier",
                  "type": "uint16"
                },
                {
                  "internalType": "uint16",
                  "name": "collateralFactor",
                  "type": "uint16"
                },
                {
                  "internalType": "uint16",
                  "name": "liquidationThreshold",
                  "type": "uint16"
                },
                {
                  "internalType": "uint16",
                  "name": "liquidationMaxLimit",
                  "type": "uint16"
                },
                {
                  "internalType": "uint16",
                  "name": "withdrawalGap",
                  "type": "uint16"
                },
                {
                  "internalType": "uint16",
                  "name": "liquidationPenalty",
                  "type": "uint16"
                },
                {
                  "internalType": "uint16",
                  "name": "borrowFee",
                  "type": "uint16"
                },
                {
                  "internalType": "address",
                  "name": "oracle",
                  "type": "address"
                },
                {
                  "internalType": "uint256",
                  "name": "oraclePrice",
                  "type": "uint256"
                },
                {
                  "internalType": "address",
                  "name": "rebalancer",
                  "type": "address"
                }
              ],
              "internalType": "struct Structs.Configs",
              "name": "configs",
              "type": "tuple"
            },
            {
              "components": [
                {
                  "internalType": "uint256",
                  "name": "lastStoredLiquiditySupplyExchangePrice",
                  "type": "uint256"
                },
                {
                  "internalType": "uint256",
                  "name": "lastStoredLiquidityBorrowExchangePrice",
                  "type": "uint256"
                },
                {
                  "internalType": "uint256",
                  "name": "lastStoredVaultSupplyExchangePrice",
                  "type": "uint256"
                },
                {
                  "internalType": "uint256",
                  "name": "lastStoredVaultBorrowExchangePrice",
                  "type": "uint256"
                },
                {
                  "internalType": "uint256",
                  "name": "liquiditySupplyExchangePrice",
                  "type": "uint256"
                },
                {
                  "internalType": "uint256",
                  "name": "liquidityBorrowExchangePrice",
                  "type": "uint256"
                },
                {
                  "internalType": "uint256",
                  "name": "vaultSupplyExchangePrice",
                  "type": "uint256"
                },
                {
                  "internalType": "uint256",
                  "name": "vaultBorrowExchangePrice",
                  "type": "uint256"
                },
                {
                  "internalType": "uint256",
                  "name": "supplyRateVault",
                  "type": "uint256"
                },
                {
                  "internalType": "uint256",
                  "name": "borrowRateVault",
                  "type": "uint256"
                },
                {
                  "internalType": "uint256",
                  "name": "supplyRateLiquidity",
                  "type": "uint256"
                },
                {
                  "internalType": "uint256",
                  "name": "borrowRateLiquidity",
                  "type": "uint256"
                },
                {
                  "internalType": "uint256",
                  "name": "rewardsRate",
                  "type": "uint256"
                }
              ],
              "internalType": "struct Structs.ExchangePricesAndRates",
              "name": "exchangePricesAndRates",
              "type": "tuple"
            },
            {
              "components": [
                {
                  "internalType": "uint256",
                  "name": "totalSupplyVault",
                  "type": "uint256"
                },
                {
                  "internalType": "uint256",
                  "name": "totalBorrowVault",
                  "type": "uint256"
                },
                {
                  "internalType": "uint256",
                  "name": "totalSupplyLiquidity",
                  "type": "uint256"
                },
                {
                  "internalType": "uint256",
                  "name": "totalBorrowLiquidity",
                  "type": "uint256"
                },
                {
                  "internalType": "uint256",
                  "name": "absorbedSupply",
                  "type": "uint256"
                },
                {
                  "internalType": "uint256",
                  "name": "absorbedBorrow",
                  "type": "uint256"
                }
              ],
              "internalType": "struct Structs.TotalSupplyAndBorrow",
              "name": "totalSupplyAndBorrow",
              "type": "tuple"
            },
            {
              "components": [
                {
                  "internalType": "uint256",
                  "name": "withdrawLimit",
                  "type": "uint256"
                },
                {
                  "internalType": "uint256",
                  "name": "withdrawableUntilLimit",
                  "type": "uint256"
                },
                {
                  "internalType": "uint256",
                  "name": "withdrawable",
                  "type": "uint256"
                },
                {
                  "internalType": "uint256",
                  "name": "borrowLimit",
                  "type": "uint256"
                },
                {
                  "internalType": "uint256",
                  "name": "borrowableUntilLimit",
                  "type": "uint256"
                },
                {
                  "internalType": "uint256",
                  "name": "borrowable",
                  "type": "uint256"
                },
                {
                  "internalType": "uint256",
                  "name": "minimumBorrowing",
                  "type": "uint256"
                }
              ],
              "internalType": "struct Structs.LimitsAndAvailability",
              "name": "limitsAndAvailability",
              "type": "tuple"
            },
            {
              "components": [
                {
                  "internalType": "uint256",
                  "name": "totalPositions",
                  "type": "uint256"
                },
                {
                  "internalType": "int256",
                  "name": "topTick",
                  "type": "int256"
                },
                {
                  "internalType": "uint256",
                  "name": "currentBranch",
                  "type": "uint256"
                },
                {
                  "internalType": "uint256",
                  "name": "totalBranch",
                  "type": "uint256"
                },
                {
                  "internalType": "uint256",
                  "name": "totalBorrow",
                  "type": "uint256"
                },
                {
                  "internalType": "uint256",
                  "name": "totalSupply",
                  "type": "uint256"
                },
                {
                  "components": [
                    {
                      "internalType": "uint256",
                      "name": "status",
                      "type": "uint256"
                    },
                    {
                      "internalType": "int256",
                      "name": "minimaTick",
                      "type": "int256"
                    },
                    {
                      "internalType": "uint256",
                      "name": "debtFactor",
                      "type": "uint256"
                    },
                    {
                      "internalType": "uint256",
                      "name": "partials",
                      "type": "uint256"
                    },
                    {
                      "internalType": "uint256",
                      "name": "debtLiquidity",
                      "type": "uint256"
                    },
                    {
                      "internalType": "uint256",
                      "name": "baseBranchId",
                      "type": "uint256"
                    },
                    {
                      "internalType": "int256",
                      "name": "baseBranchMinima",
                      "type": "int256"
                    }
                  ],
                  "internalType": "struct Structs.CurrentBranchState",
                  "name": "currentBranchState",
                  "type": "tuple"
                }
              ],
              "internalType": "struct Structs.VaultState",
              "name": "vaultState",
              "type": "tuple"
            },
            {
              "components": [
                {
                  "internalType": "bool",
                  "name": "modeWithInterest",
                  "type": "bool"
                },
                {
                  "internalType": "uint256",
                  "name": "supply",
                  "type": "uint256"
                },
                {
                  "internalType": "uint256",
                  "name": "withdrawalLimit",
                  "type": "uint256"
                },
                {
                  "internalType": "uint256",
                  "name": "lastUpdateTimestamp",
                  "type": "uint256"
                },
                {
                  "internalType": "uint256",
                  "name": "expandPercent",
                  "type": "uint256"
                },
                {
                  "internalType": "uint256",
                  "name": "expandDuration",
                  "type": "uint256"
                },
                {
                  "internalType": "uint256",
                  "name": "baseWithdrawalLimit",
                  "type": "uint256"
                },
                {
                  "internalType": "uint256",
                  "name": "withdrawableUntilLimit",
                  "type": "uint256"
                },
                {
                  "internalType": "uint256",
                  "name": "withdrawable",
                  "type": "uint256"
                }
              ],
              "internalType": "struct Structs.UserSupplyData",
              "name": "liquidityUserSupplyData",
              "type": "tuple"
            },
            {
              "components": [
                {
                  "internalType": "bool",
                  "name": "modeWithInterest",
                  "type": "bool"
                },
                {
                  "internalType": "uint256",
                  "name": "borrow",
                  "type": "uint256"
                },
                {
                  "internalType": "uint256",
                  "name": "borrowLimit",
                  "type": "uint256"
                },
                {
                  "internalType": "uint256",
                  "name": "lastUpdateTimestamp",
                  "type": "uint256"
                },
                {
                  "internalType": "uint256",
                  "name": "expandPercent",
                  "type": "uint256"
                },
                {
                  "internalType": "uint256",
                  "name": "expandDuration",
                  "type": "uint256"
                },
                {
                  "internalType": "uint256",
                  "name": "baseBorrowLimit",
                  "type": "uint256"
                },
                {
                  "internalType": "uint256",
                  "name": "maxBorrowLimit",
                  "type": "uint256"
                },
                {
                  "internalType": "uint256",
                  "name": "borrowableUntilLimit",
                  "type": "uint256"
                },
                {
                  "internalType": "uint256",
                  "name": "borrowable",
                  "type": "uint256"
                }
              ],
              "internalType": "struct Structs.UserBorrowData",
              "name": "liquidityUserBorrowData",
              "type": "tuple"
            }
          ],
          "internalType": "struct Structs.VaultEntireData[]",
          "name": "vaultsData_",
          "type": "tuple[]"
        }
      ],
      "stateMutability": "view",
      "type": "function"
    },
    {
      "inputs": [
        {
          "internalType": "uint256",
          "name": "slot_",
          "type": "uint256"
        }
      ],
      "name": "normalSlot",
      "outputs": [
        {
          "internalType": "bytes32",
          "name": "",
          "type": "bytes32"
        }
      ],
      "stateMutability": "pure",
      "type": "function"
    },
    {
      "inputs": [
        {
          "internalType": "uint256",
          "name": "nftId_",
          "type": "uint256"
        }
      ],
      "name": "positionByNftId",
      "outputs": [
        {
          "components": [
            {
              "internalType": "uint256",
              "name": "nftId",
              "type": "uint256"
            },
            {
              "internalType": "address",
              "name": "owner",
              "type": "address"
            },
            {
              "internalType": "bool",
              "name": "isLiquidated",
              "type": "bool"
            },
            {
              "internalType": "bool",
              "name": "isSupplyPosition",
              "type": "bool"
            },
            {
              "internalType": "int256",
              "name": "tick",
              "type": "int256"
            },
            {
              "internalType": "uint256",
              "name": "tickId",
              "type": "uint256"
            },
            {
              "internalType": "uint256",
              "name": "beforeSupply",
              "type": "uint256"
            },
            {
              "internalType": "uint256",
              "name": "beforeBorrow",
              "type": "uint256"
            },
            {
              "internalType": "uint256",
              "name": "beforeDustBorrow",
              "type": "uint256"
            },
            {
              "internalType": "uint256",
              "name": "supply",
              "type": "uint256"
            },
            {
              "internalType": "uint256",
              "name": "borrow",
              "type": "uint256"
            },
            {
              "internalType": "uint256",
              "name": "dustBorrow",
              "type": "uint256"
            }
          ],
          "internalType": "struct Structs.UserPosition",
          "name": "userPosition_",
          "type": "tuple"
        },
        {
          "components": [
            {
              "internalType": "address",
              "name": "vault",
              "type": "address"
            },
            {
              "components": [
                {
                  "internalType": "address",
                  "name": "liquidity",
                  "type": "address"
                },
                {
                  "internalType": "address",
                  "name": "factory",
                  "type": "address"
                },
                {
                  "internalType": "address",
                  "name": "adminImplementation",
                  "type": "address"
                },
                {
                  "internalType": "address",
                  "name": "secondaryImplementation",
                  "type": "address"
                },
                {
                  "internalType": "address",
                  "name": "supplyToken",
                  "type": "address"
                },
                {
                  "internalType": "address",
                  "name": "borrowToken",
                  "type": "address"
                },
                {
                  "internalType": "uint8",
                  "name": "supplyDecimals",
                  "type": "uint8"
                },
                {
                  "internalType": "uint8",
                  "name": "borrowDecimals",
                  "type": "uint8"
                },
                {
                  "internalType": "uint256",
                  "name": "vaultId",
                  "type": "uint256"
                },
                {
                  "internalType": "bytes32",
                  "name": "liquidityTotalSupplySlot",
                  "type": "bytes32"
                },
                {
                  "internalType": "bytes32",
                  "name": "liquidityTotalBorrowSlot",
                  "type": "bytes32"
                },
                {
                  "internalType": "bytes32",
                  "name": "liquiditySupplyExchangePriceSlot",
                  "type": "bytes32"
                },
                {
                  "internalType": "bytes32",
                  "name": "liquidityBorrowExchangePriceSlot",
                  "type": "bytes32"
                },
                {
                  "internalType": "bytes32",
                  "name": "liquidityUserSupplySlot",
                  "type": "bytes32"
                },
                {
                  "internalType": "bytes32",
                  "name": "liquidityUserBorrowSlot",
                  "type": "bytes32"
                }
              ],
              "internalType": "struct IFluidVaultT1.ConstantViews",
              "name": "constantVariables",
              "type": "tuple"
            },
            {
              "components": [
                {
                  "internalType": "uint16",
                  "name": "supplyRateMagnifier",
                  "type": "uint16"
                },
                {
                  "internalType": "uint16",
                  "name": "borrowRateMagnifier",
                  "type": "uint16"
                },
                {
                  "internalType": "uint16",
                  "name": "collateralFactor",
                  "type": "uint16"
                },
                {
                  "internalType": "uint16",
                  "name": "liquidationThreshold",
                  "type": "uint16"
                },
                {
                  "internalType": "uint16",
                  "name": "liquidationMaxLimit",
                  "type": "uint16"
                },
                {
                  "internalType": "uint16",
                  "name": "withdrawalGap",
                  "type": "uint16"
                },
                {
                  "internalType": "uint16",
                  "name": "liquidationPenalty",
                  "type": "uint16"
                },
                {
                  "internalType": "uint16",
                  "name": "borrowFee",
                  "type": "uint16"
                },
                {
                  "internalType": "address",
                  "name": "oracle",
                  "type": "address"
                },
                {
                  "internalType": "uint256",
                  "name": "oraclePrice",
                  "type": "uint256"
                },
                {
                  "internalType": "address",
                  "name": "rebalancer",
                  "type": "address"
                }
              ],
              "internalType": "struct Structs.Configs",
              "name": "configs",
              "type": "tuple"
            },
            {
              "components": [
                {
                  "internalType": "uint256",
                  "name": "lastStoredLiquiditySupplyExchangePrice",
                  "type": "uint256"
                },
                {
                  "internalType": "uint256",
                  "name": "lastStoredLiquidityBorrowExchangePrice",
                  "type": "uint256"
                },
                {
                  "internalType": "uint256",
                  "name": "lastStoredVaultSupplyExchangePrice",
                  "type": "uint256"
                },
                {
                  "internalType": "uint256",
                  "name": "lastStoredVaultBorrowExchangePrice",
                  "type": "uint256"
                },
                {
                  "internalType": "uint256",
                  "name": "liquiditySupplyExchangePrice",
                  "type": "uint256"
                },
                {
                  "internalType": "uint256",
                  "name": "liquidityBorrowExchangePrice",
                  "type": "uint256"
                },
                {
                  "internalType": "uint256",
                  "name": "vaultSupplyExchangePrice",
                  "type": "uint256"
                },
                {
                  "internalType": "uint256",
                  "name": "vaultBorrowExchangePrice",
                  "type": "uint256"
                },
                {
                  "internalType": "uint256",
                  "name": "supplyRateVault",
                  "type": "uint256"
                },
                {
                  "internalType": "uint256",
                  "name": "borrowRateVault",
                  "type": "uint256"
                },
                {
                  "internalType": "uint256",
                  "name": "supplyRateLiquidity",
                  "type": "uint256"
                },
                {
                  "internalType": "uint256",
                  "name": "borrowRateLiquidity",
                  "type": "uint256"
                },
                {
                  "internalType": "uint256",
                  "name": "rewardsRate",
                  "type": "uint256"
                }
              ],
              "internalType": "struct Structs.ExchangePricesAndRates",
              "name": "exchangePricesAndRates",
              "type": "tuple"
            },
            {
              "components": [
                {
                  "internalType": "uint256",
                  "name": "totalSupplyVault",
                  "type": "uint256"
                },
                {
                  "internalType": "uint256",
                  "name": "totalBorrowVault",
                  "type": "uint256"
                },
                {
                  "internalType": "uint256",
                  "name": "totalSupplyLiquidity",
                  "type": "uint256"
                },
                {
                  "internalType": "uint256",
                  "name": "totalBorrowLiquidity",
                  "type": "uint256"
                },
                {
                  "internalType": "uint256",
                  "name": "absorbedSupply",
                  "type": "uint256"
                },
                {
                  "internalType": "uint256",
                  "name": "absorbedBorrow",
                  "type": "uint256"
                }
              ],
              "internalType": "struct Structs.TotalSupplyAndBorrow",
              "name": "totalSupplyAndBorrow",
              "type": "tuple"
            },
            {
              "components": [
                {
                  "internalType": "uint256",
                  "name": "withdrawLimit",
                  "type": "uint256"
                },
                {
                  "internalType": "uint256",
                  "name": "withdrawableUntilLimit",
                  "type": "uint256"
                },
                {
                  "internalType": "uint256",
                  "name": "withdrawable",
                  "type": "uint256"
                },
                {
                  "internalType": "uint256",
                  "name": "borrowLimit",
                  "type": "uint256"
                },
                {
                  "internalType": "uint256",
                  "name": "borrowableUntilLimit",
                  "type": "uint256"
                },
                {
                  "internalType": "uint256",
                  "name": "borrowable",
                  "type": "uint256"
                },
                {
                  "internalType": "uint256",
                  "name": "minimumBorrowing",
                  "type": "uint256"
                }
              ],
              "internalType": "struct Structs.LimitsAndAvailability",
              "name": "limitsAndAvailability",
              "type": "tuple"
            },
            {
              "components": [
                {
                  "internalType": "uint256",
                  "name": "totalPositions",
                  "type": "uint256"
                },
                {
                  "internalType": "int256",
                  "name": "topTick",
                  "type": "int256"
                },
                {
                  "internalType": "uint256",
                  "name": "currentBranch",
                  "type": "uint256"
                },
                {
                  "internalType": "uint256",
                  "name": "totalBranch",
                  "type": "uint256"
                },
                {
                  "internalType": "uint256",
                  "name": "totalBorrow",
                  "type": "uint256"
                },
                {
                  "internalType": "uint256",
                  "name": "totalSupply",
                  "type": "uint256"
                },
                {
                  "components": [
                    {
                      "internalType": "uint256",
                      "name": "status",
                      "type": "uint256"
                    },
                    {
                      "internalType": "int256",
                      "name": "minimaTick",
                      "type": "int256"
                    },
                    {
                      "internalType": "uint256",
                      "name": "debtFactor",
                      "type": "uint256"
                    },
                    {
                      "internalType": "uint256",
                      "name": "partials",
                      "type": "uint256"
                    },
                    {
                      "internalType": "uint256",
                      "name": "debtLiquidity",
                      "type": "uint256"
                    },
                    {
                      "internalType": "uint256",
                      "name": "baseBranchId",
                      "type": "uint256"
                    },
                    {
                      "internalType": "int256",
                      "name": "baseBranchMinima",
                      "type": "int256"
                    }
                  ],
                  "internalType": "struct Structs.CurrentBranchState",
                  "name": "currentBranchState",
                  "type": "tuple"
                }
              ],
              "internalType": "struct Structs.VaultState",
              "name": "vaultState",
              "type": "tuple"
            },
            {
              "components": [
                {
                  "internalType": "bool",
                  "name": "modeWithInterest",
                  "type": "bool"
                },
                {
                  "internalType": "uint256",
                  "name": "supply",
                  "type": "uint256"
                },
                {
                  "internalType": "uint256",
                  "name": "withdrawalLimit",
                  "type": "uint256"
                },
                {
                  "internalType": "uint256",
                  "name": "lastUpdateTimestamp",
                  "type": "uint256"
                },
                {
                  "internalType": "uint256",
                  "name": "expandPercent",
                  "type": "uint256"
                },
                {
                  "internalType": "uint256",
                  "name": "expandDuration",
                  "type": "uint256"
                },
                {
                  "internalType": "uint256",
                  "name": "baseWithdrawalLimit",
                  "type": "uint256"
                },
                {
                  "internalType": "uint256",
                  "name": "withdrawableUntilLimit",
                  "type": "uint256"
                },
                {
                  "internalType": "uint256",
                  "name": "withdrawable",
                  "type": "uint256"
                }
              ],
              "internalType": "struct Structs.UserSupplyData",
              "name": "liquidityUserSupplyData",
              "type": "tuple"
            },
            {
              "components": [
                {
                  "internalType": "bool",
                  "name": "modeWithInterest",
                  "type": "bool"
                },
                {
                  "internalType": "uint256",
                  "name": "borrow",
                  "type": "uint256"
                },
                {
                  "internalType": "uint256",
                  "name": "borrowLimit",
                  "type": "uint256"
                },
                {
                  "internalType": "uint256",
                  "name": "lastUpdateTimestamp",
                  "type": "uint256"
                },
                {
                  "internalType": "uint256",
                  "name": "expandPercent",
                  "type": "uint256"
                },
                {
                  "internalType": "uint256",
                  "name": "expandDuration",
                  "type": "uint256"
                },
                {
                  "internalType": "uint256",
                  "name": "baseBorrowLimit",
                  "type": "uint256"
                },
                {
                  "internalType": "uint256",
                  "name": "maxBorrowLimit",
                  "type": "uint256"
                },
                {
                  "internalType": "uint256",
                  "name": "borrowableUntilLimit",
                  "type": "uint256"
                },
                {
                  "internalType": "uint256",
                  "name": "borrowable",
                  "type": "uint256"
                }
              ],
              "internalType": "struct Structs.UserBorrowData",
              "name": "liquidityUserBorrowData",
              "type": "tuple"
            }
          ],
          "internalType": "struct Structs.VaultEntireData",
          "name": "vaultData_",
          "type": "tuple"
        }
      ],
      "stateMutability": "view",
      "type": "function"
    },
    {
      "inputs": [
        {
          "internalType": "address",
          "name": "user_",
          "type": "address"
        }
      ],
      "name": "positionsByUser",
      "outputs": [
        {
          "components": [
            {
              "internalType": "uint256",
              "name": "nftId",
              "type": "uint256"
            },
            {
              "internalType": "address",
              "name": "owner",
              "type": "address"
            },
            {
              "internalType": "bool",
              "name": "isLiquidated",
              "type": "bool"
            },
            {
              "internalType": "bool",
              "name": "isSupplyPosition",
              "type": "bool"
            },
            {
              "internalType": "int256",
              "name": "tick",
              "type": "int256"
            },
            {
              "internalType": "uint256",
              "name": "tickId",
              "type": "uint256"
            },
            {
              "internalType": "uint256",
              "name": "beforeSupply",
              "type": "uint256"
            },
            {
              "internalType": "uint256",
              "name": "beforeBorrow",
              "type": "uint256"
            },
            {
              "internalType": "uint256",
              "name": "beforeDustBorrow",
              "type": "uint256"
            },
            {
              "internalType": "uint256",
              "name": "supply",
              "type": "uint256"
            },
            {
              "internalType": "uint256",
              "name": "borrow",
              "type": "uint256"
            },
            {
              "internalType": "uint256",
              "name": "dustBorrow",
              "type": "uint256"
            }
          ],
          "internalType": "struct Structs.UserPosition[]",
          "name": "userPositions_",
          "type": "tuple[]"
        },
        {
          "components": [
            {
              "internalType": "address",
              "name": "vault",
              "type": "address"
            },
            {
              "components": [
                {
                  "internalType": "address",
                  "name": "liquidity",
                  "type": "address"
                },
                {
                  "internalType": "address",
                  "name": "factory",
                  "type": "address"
                },
                {
                  "internalType": "address",
                  "name": "adminImplementation",
                  "type": "address"
                },
                {
                  "internalType": "address",
                  "name": "secondaryImplementation",
                  "type": "address"
                },
                {
                  "internalType": "address",
                  "name": "supplyToken",
                  "type": "address"
                },
                {
                  "internalType": "address",
                  "name": "borrowToken",
                  "type": "address"
                },
                {
                  "internalType": "uint8",
                  "name": "supplyDecimals",
                  "type": "uint8"
                },
                {
                  "internalType": "uint8",
                  "name": "borrowDecimals",
                  "type": "uint8"
                },
                {
                  "internalType": "uint256",
                  "name": "vaultId",
                  "type": "uint256"
                },
                {
                  "internalType": "bytes32",
                  "name": "liquidityTotalSupplySlot",
                  "type": "bytes32"
                },
                {
                  "internalType": "bytes32",
                  "name": "liquidityTotalBorrowSlot",
                  "type": "bytes32"
                },
                {
                  "internalType": "bytes32",
                  "name": "liquiditySupplyExchangePriceSlot",
                  "type": "bytes32"
                },
                {
                  "internalType": "bytes32",
                  "name": "liquidityBorrowExchangePriceSlot",
                  "type": "bytes32"
                },
                {
                  "internalType": "bytes32",
                  "name": "liquidityUserSupplySlot",
                  "type": "bytes32"
                },
                {
                  "internalType": "bytes32",
                  "name": "liquidityUserBorrowSlot",
                  "type": "bytes32"
                }
              ],
              "internalType": "struct IFluidVaultT1.ConstantViews",
              "name": "constantVariables",
              "type": "tuple"
            },
            {
              "components": [
                {
                  "internalType": "uint16",
                  "name": "supplyRateMagnifier",
                  "type": "uint16"
                },
                {
                  "internalType": "uint16",
                  "name": "borrowRateMagnifier",
                  "type": "uint16"
                },
                {
                  "internalType": "uint16",
                  "name": "collateralFactor",
                  "type": "uint16"
                },
                {
                  "internalType": "uint16",
                  "name": "liquidationThreshold",
                  "type": "uint16"
                },
                {
                  "internalType": "uint16",
                  "name": "liquidationMaxLimit",
                  "type": "uint16"
                },
                {
                  "internalType": "uint16",
                  "name": "withdrawalGap",
                  "type": "uint16"
                },
                {
                  "internalType": "uint16",
                  "name": "liquidationPenalty",
                  "type": "uint16"
                },
                {
                  "internalType": "uint16",
                  "name": "borrowFee",
                  "type": "uint16"
                },
                {
                  "internalType": "address",
                  "name": "oracle",
                  "type": "address"
                },
                {
                  "internalType": "uint256",
                  "name": "oraclePrice",
                  "type": "uint256"
                },
                {
                  "internalType": "address",
                  "name": "rebalancer",
                  "type": "address"
                }
              ],
              "internalType": "struct Structs.Configs",
              "name": "configs",
              "type": "tuple"
            },
            {
              "components": [
                {
                  "internalType": "uint256",
                  "name": "lastStoredLiquiditySupplyExchangePrice",
                  "type": "uint256"
                },
                {
                  "internalType": "uint256",
                  "name": "lastStoredLiquidityBorrowExchangePrice",
                  "type": "uint256"
                },
                {
                  "internalType": "uint256",
                  "name": "lastStoredVaultSupplyExchangePrice",
                  "type": "uint256"
                },
                {
                  "internalType": "uint256",
                  "name": "lastStoredVaultBorrowExchangePrice",
                  "type": "uint256"
                },
                {
                  "internalType": "uint256",
                  "name": "liquiditySupplyExchangePrice",
                  "type": "uint256"
                },
                {
                  "internalType": "uint256",
                  "name": "liquidityBorrowExchangePrice",
                  "type": "uint256"
                },
                {
                  "internalType": "uint256",
                  "name": "vaultSupplyExchangePrice",
                  "type": "uint256"
                },
                {
                  "internalType": "uint256",
                  "name": "vaultBorrowExchangePrice",
                  "type": "uint256"
                },
                {
                  "internalType": "uint256",
                  "name": "supplyRateVault",
                  "type": "uint256"
                },
                {
                  "internalType": "uint256",
                  "name": "borrowRateVault",
                  "type": "uint256"
                },
                {
                  "internalType": "uint256",
                  "name": "supplyRateLiquidity",
                  "type": "uint256"
                },
                {
                  "internalType": "uint256",
                  "name": "borrowRateLiquidity",
                  "type": "uint256"
                },
                {
                  "internalType": "uint256",
                  "name": "rewardsRate",
                  "type": "uint256"
                }
              ],
              "internalType": "struct Structs.ExchangePricesAndRates",
              "name": "exchangePricesAndRates",
              "type": "tuple"
            },
            {
              "components": [
                {
                  "internalType": "uint256",
                  "name": "totalSupplyVault",
                  "type": "uint256"
                },
                {
                  "internalType": "uint256",
                  "name": "totalBorrowVault",
                  "type": "uint256"
                },
                {
                  "internalType": "uint256",
                  "name": "totalSupplyLiquidity",
                  "type": "uint256"
                },
                {
                  "internalType": "uint256",
                  "name": "totalBorrowLiquidity",
                  "type": "uint256"
                },
                {
                  "internalType": "uint256",
                  "name": "absorbedSupply",
                  "type": "uint256"
                },
                {
                  "internalType": "uint256",
                  "name": "absorbedBorrow",
                  "type": "uint256"
                }
              ],
              "internalType": "struct Structs.TotalSupplyAndBorrow",
              "name": "totalSupplyAndBorrow",
              "type": "tuple"
            },
            {
              "components": [
                {
                  "internalType": "uint256",
                  "name": "withdrawLimit",
                  "type": "uint256"
                },
                {
                  "internalType": "uint256",
                  "name": "withdrawableUntilLimit",
                  "type": "uint256"
                },
                {
                  "internalType": "uint256",
                  "name": "withdrawable",
                  "type": "uint256"
                },
                {
                  "internalType": "uint256",
                  "name": "borrowLimit",
                  "type": "uint256"
                },
                {
                  "internalType": "uint256",
                  "name": "borrowableUntilLimit",
                  "type": "uint256"
                },
                {
                  "internalType": "uint256",
                  "name": "borrowable",
                  "type": "uint256"
                },
                {
                  "internalType": "uint256",
                  "name": "minimumBorrowing",
                  "type": "uint256"
                }
              ],
              "internalType": "struct Structs.LimitsAndAvailability",
              "name": "limitsAndAvailability",
              "type": "tuple"
            },
            {
              "components": [
                {
                  "internalType": "uint256",
                  "name": "totalPositions",
                  "type": "uint256"
                },
                {
                  "internalType": "int256",
                  "name": "topTick",
                  "type": "int256"
                },
                {
                  "internalType": "uint256",
                  "name": "currentBranch",
                  "type": "uint256"
                },
                {
                  "internalType": "uint256",
                  "name": "totalBranch",
                  "type": "uint256"
                },
                {
                  "internalType": "uint256",
                  "name": "totalBorrow",
                  "type": "uint256"
                },
                {
                  "internalType": "uint256",
                  "name": "totalSupply",
                  "type": "uint256"
                },
                {
                  "components": [
                    {
                      "internalType": "uint256",
                      "name": "status",
                      "type": "uint256"
                    },
                    {
                      "internalType": "int256",
                      "name": "minimaTick",
                      "type": "int256"
                    },
                    {
                      "internalType": "uint256",
                      "name": "debtFactor",
                      "type": "uint256"
                    },
                    {
                      "internalType": "uint256",
                      "name": "partials",
                      "type": "uint256"
                    },
                    {
                      "internalType": "uint256",
                      "name": "debtLiquidity",
                      "type": "uint256"
                    },
                    {
                      "internalType": "uint256",
                      "name": "baseBranchId",
                      "type": "uint256"
                    },
                    {
                      "internalType": "int256",
                      "name": "baseBranchMinima",
                      "type": "int256"
                    }
                  ],
                  "internalType": "struct Structs.CurrentBranchState",
                  "name": "currentBranchState",
                  "type": "tuple"
                }
              ],
              "internalType": "struct Structs.VaultState",
              "name": "vaultState",
              "type": "tuple"
            },
            {
              "components": [
                {
                  "internalType": "bool",
                  "name": "modeWithInterest",
                  "type": "bool"
                },
                {
                  "internalType": "uint256",
                  "name": "supply",
                  "type": "uint256"
                },
                {
                  "internalType": "uint256",
                  "name": "withdrawalLimit",
                  "type": "uint256"
                },
                {
                  "internalType": "uint256",
                  "name": "lastUpdateTimestamp",
                  "type": "uint256"
                },
                {
                  "internalType": "uint256",
                  "name": "expandPercent",
                  "type": "uint256"
                },
                {
                  "internalType": "uint256",
                  "name": "expandDuration",
                  "type": "uint256"
                },
                {
                  "internalType": "uint256",
                  "name": "baseWithdrawalLimit",
                  "type": "uint256"
                },
                {
                  "internalType": "uint256",
                  "name": "withdrawableUntilLimit",
                  "type": "uint256"
                },
                {
                  "internalType": "uint256",
                  "name": "withdrawable",
                  "type": "uint256"
                }
              ],
              "internalType": "struct Structs.UserSupplyData",
              "name": "liquidityUserSupplyData",
              "type": "tuple"
            },
            {
              "components": [
                {
                  "internalType": "bool",
                  "name": "modeWithInterest",
                  "type": "bool"
                },
                {
                  "internalType": "uint256",
                  "name": "borrow",
                  "type": "uint256"
                },
                {
                  "internalType": "uint256",
                  "name": "borrowLimit",
                  "type": "uint256"
                },
                {
                  "internalType": "uint256",
                  "name": "lastUpdateTimestamp",
                  "type": "uint256"
                },
                {
                  "internalType": "uint256",
                  "name": "expandPercent",
                  "type": "uint256"
                },
                {
                  "internalType": "uint256",
                  "name": "expandDuration",
                  "type": "uint256"
                },
                {
                  "internalType": "uint256",
                  "name": "baseBorrowLimit",
                  "type": "uint256"
                },
                {
                  "internalType": "uint256",
                  "name": "maxBorrowLimit",
                  "type": "uint256"
                },
                {
                  "internalType": "uint256",
                  "name": "borrowableUntilLimit",
                  "type": "uint256"
                },
                {
                  "internalType": "uint256",
                  "name": "borrowable",
                  "type": "uint256"
                }
              ],
              "internalType": "struct Structs.UserBorrowData",
              "name": "liquidityUserBorrowData",
              "type": "tuple"
            }
          ],
          "internalType": "struct Structs.VaultEntireData[]",
          "name": "vaultsData_",
          "type": "tuple[]"
        }
      ],
      "stateMutability": "view",
      "type": "function"
    },
    {
      "inputs": [
        {
          "internalType": "address",
          "name": "user_",
          "type": "address"
        }
      ],
      "name": "positionsNftIdOfUser",
      "outputs": [
        {
          "internalType": "uint256[]",
          "name": "nftIds_",
          "type": "uint256[]"
        }
      ],
      "stateMutability": "view",
      "type": "function"
    },
    {
      "inputs": [
        {
          "internalType": "uint256",
          "name": "tickRaw_",
          "type": "uint256"
        }
      ],
      "name": "tickHelper",
      "outputs": [
        {
          "internalType": "int256",
          "name": "tick",
          "type": "int256"
        }
      ],
      "stateMutability": "pure",
      "type": "function"
    },
    {
      "inputs": [],
      "name": "totalPositions",
      "outputs": [
        {
          "internalType": "uint256",
          "name": "",
          "type": "uint256"
        }
      ],
      "stateMutability": "view",
      "type": "function"
    },
    {
      "inputs": [
        {
          "internalType": "uint256",
          "name": "nftId_",
          "type": "uint256"
        }
      ],
      "name": "vaultByNftId",
      "outputs": [
        {
          "internalType": "address",
          "name": "vault_",
          "type": "address"
        }
      ],
      "stateMutability": "view",
      "type": "function"
    }
  ],
  "transactionHash": "0x6bf4b19fb325098d448a111dcd281097fcb4d0e385af21536a21d9c18f7b8afd",
  "args": [
    "0x3B38099b79a143038a3935C619B2A3eA70438C60",
    "0x52Aa899454998Be5b000Ad077a46Bbe360F4e497",
    "0x741c2Cd25f053a55fd94afF1afAEf146523E1249"
  ],
  "numDeployments": 1,
  "solcInputHash": "d4fa359f3002cd44062d748848196ced",
  "bytecode": "0x60e06040523480156200001157600080fd5b506040516200510f3803806200510f83398101604081905262000034916200006f565b6001600160a01b0392831660805290821660a0521660c052620000b9565b80516001600160a01b03811681146200006a57600080fd5b919050565b6000806000606084860312156200008557600080fd5b620000908462000052565b9250620000a06020850162000052565b9150620000b06040850162000052565b90509250925092565b60805160a05160c051614f8c6200018360003960008181610467015281816106b1015261078001526000818161037001528181612be801528181612cab01528181612ef101528181612f6f0152818161314c015281816131b401528181613320015261339f0152600081816103b70152818161094d01528181610e50015281816118bc01528181611a4601528181611d6701528181611e70015281816121e2015281816122ca015281816123c7015281816124c5015281816125b901526126a40152614f8c6000f3fe608060405234801561001057600080fd5b50600436106102415760003560e01c80636902f79f11610145578063bf518f5f116100bd578063e06a7b711161008c578063eb1db01811610071578063eb1db01814610577578063f70b198c1461058a578063fda1fa5f1461059d57600080fd5b8063e06a7b711461055c578063e6bd26a21461056457600080fd5b8063bf518f5f1461050e578063c67b509314610521578063cbc7be6514610541578063dd19c0fe1461055457600080fd5b80638bfbeda6116101145780639d7aeeb4116100f95780639d7aeeb4146104d5578063a8bc0693146104e6578063a8d9f493146104f957600080fd5b80638bfbeda6146104af5780638f8b81f0146104c257600080fd5b80636902f79f146104625780637bbede43146103d957806385303304146104895780638a0038881461049c57600080fd5b806320ee1e44116101d85780632f2612cf116101a7578063347ca8bb1161018c578063347ca8bb146104265780635486f100146104475780636463e94c1461044f57600080fd5b80632f2612cf146103d9578063344bd7221461041357600080fd5b806320ee1e441461034b5780632861c7d11461036b5780632c44e1d1146103925780632dd31000146103b257600080fd5b8063168a11c211610214578063168a11c2146102c05780631949138e146102d35780631ef8986d1461030b5780631fcd36491461032b57600080fd5b806303e883e01461024657806309c062e21461026c578063144128e81461028c5780631579a46c146102ad575b600080fd5b610259610254366004613b49565b6105a5565b6040519081526020015b60405180910390f35b61027f61027a366004613b49565b61062a565b604051610263919061404d565b61029f61029a36600461405c565b61086e565b60405161026392919061411e565b6102596102bb366004613b49565b610d34565b6102596102ce36600461413b565b610d59565b6102e66102e136600461405c565b610e09565b60405173ffffffffffffffffffffffffffffffffffffffff9091168152602001610263565b61031e61031936600461435b565b610ed0565b60405161026391906143d6565b61033e61033936600461413b565b610f8e565b60405161026391906143e9565b61035e610359366004613b49565b6113cf565b6040516102639190614452565b6102e67f000000000000000000000000000000000000000000000000000000000000000081565b6103a56103a03660046144d5565b61151b565b604051610263919061459b565b6102e67f000000000000000000000000000000000000000000000000000000000000000081565b6102596103e7366004614644565b604080516020808201939093528082019390935280518084038201815260609093019052815191012090565b610259610421366004613b49565b61166e565b610439610434366004613b49565b6116bb565b604051610263929190614666565b6102596118b8565b6102e661045d366004613b49565b61194e565b6102e67f000000000000000000000000000000000000000000000000000000000000000081565b6102596104973660046146c8565b611973565b6102596104aa36600461405c565b611a04565b6102596104bd3660046146fd565b611a72565b6102596104d036600461405c565b611af8565b6102596104e336600461405c565b90565b6102596104f436600461413b565b611bc6565b610501611c14565b6040516102639190614729565b61025961051c36600461413b565b611cce565b61053461052f366004613b49565b611d1c565b6040516102639190614777565b61025961054f36600461413b565b611f0a565b6103a5611f58565b61031e61209d565b6102e661057236600461405c565b612153565b610259610585366004613b49565b612656565b610259610598366004613b49565b61267b565b6102596126a0565b600073ffffffffffffffffffffffffffffffffffffffff821663b5c736e4825b6040518263ffffffff1660e01b81526004016105e391815260200190565b602060405180830381865afa158015610600573d6000803e3d6000fd5b505050506040513d601f19601f8201168201806040525081019061062491906147af565b92915050565b610632613814565b73ffffffffffffffffffffffffffffffffffffffff821681526106548261270d565b60208201819052608001516040517fe72ef91b00000000000000000000000000000000000000000000000000000000815273ffffffffffffffffffffffffffffffffffffffff8481166004830152918216602482015260009182917f00000000000000000000000000000000000000000000000000000000000000009091169063e72ef91b906044016104a060405180830381865afa1580156106fb573d6000803e3d6000fd5b505050506040513d601f19601f8201168201806040525081019061071f9190614a05565b602085015160a001516040517f967915d600000000000000000000000000000000000000000000000000000000815273ffffffffffffffffffffffffffffffffffffffff8881166004830152918216602482015292945090925060009182917f0000000000000000000000000000000000000000000000000000000000000000169063967915d6906044016104c060405180830381865afa1580156107c8573d6000803e3d6000fd5b505050506040513d601f19601f820116820180604052508101906107ec9190614aab565b915091506107f9866127f6565b6040860181905261080d90879085846129b1565b606086018190526020860151610824918891612b91565b6080860181905260608601516020870151604088015161084693929190612e6b565b60a0860152610854866113cf565b60c08601525060e084019290925250610100820152919050565b6108ec60405180610180016040528060008152602001600073ffffffffffffffffffffffffffffffffffffffff16815260200160001515815260200160001515815260200160008152602001600081526020016000815260200160008152602001600081526020016000815260200160008152602001600081525090565b6108f4613814565b828252600061090284610e09565b905060006109108286611f0a565b905061091b8261062a565b6040517f6352211e000000000000000000000000000000000000000000000000000000008152600481018790529093507f000000000000000000000000000000000000000000000000000000000000000073ffffffffffffffffffffffffffffffffffffffff1690636352211e90602401602060405180830381865afa1580156109a9573d6000803e3d6000fd5b505050506040513d601f19601f820116820180604052508101906109cd9190614b52565b73ffffffffffffffffffffffffffffffffffffffff1660208501526001808216146060850181905266ffffffffffffff603583901c811660ff602d85901c81169190911b610120880181905260c0880152607584901c909116606d84901c9091161b6101608601819052610100860152610c115780600216600214610a6357610a5e600282901c6207ffff16614b9e565b610a6e565b6207ffff600282901c165b60808501819052601582901c62ffffff1660a0860152610120850151606091610a999060020b61346a565b610aa39190614bd6565b901c6101408501819052610100850151610abc91614bed565b60e08501526080840151600090610ad4908490610d59565b90508060011660011480610af457508460a0015162ffffff600183901c16115b15610bcb576001604086810191909152608086015160a087015161014088015192517f22348cc70000000000000000000000000000000000000000000000000000000081526004810192909252602482015260448101919091526064810182905273ffffffffffffffffffffffffffffffffffffffff8416906322348cc79060840160a060405180830381865afa158015610b93573d6000803e3d6000fd5b505050506040513d601f19601f82011682018060405250810190610bb79190614c00565b505061012088015261014087015260808601525b8461016001518561014001511115610bfe57846101600151856101400151610bf39190614bed565b610140860152610c0f565b600061014086018190526101608601525b505b64e8d4a51000836060015160c001518560c00151610c2f9190614bd6565b610c399190614c40565b60c0850152606083015160e0908101519085015164e8d4a5100091610c5d91614bd6565b610c679190614c40565b60e0808601919091526060840151015161010085015164e8d4a5100091610c8d91614bd6565b610c979190614c40565b610100850152606083015160c0015161012085015164e8d4a5100091610cbc91614bd6565b610cc69190614c40565b610120850152606083015160e0015161014085015164e8d4a5100091610ceb91614bd6565b610cf59190614c40565b610140850152606083015160e0015161016085015164e8d4a5100091610d1a91614bd6565b610d249190614c40565b6101608501525091939092509050565b600073ffffffffffffffffffffffffffffffffffffffff821663b5c736e460086105c5565b6040805160208082018490526005828401528251808303840181526060909201909252805191012060009073ffffffffffffffffffffffffffffffffffffffff84169063b5c736e4905b6040518263ffffffff1660e01b8152600401610dc191815260200190565b602060405180830381865afa158015610dde573d6000803e3d6000fd5b505050506040513d601f19601f82011682018060405250810190610e0291906147af565b9392505050565b600080610e1583611a04565b6040517fe6bd26a200000000000000000000000000000000000000000000000000000000815263ffffffff60c083901c1660048201529091507f000000000000000000000000000000000000000000000000000000000000000073ffffffffffffffffffffffffffffffffffffffff169063e6bd26a290602401602060405180830381865afa158015610eac573d6000803e3d6000fd5b505050506040513d601f19601f82011682018060405250810190610e029190614b52565b80516060908067ffffffffffffffff811115610eee57610eee614167565b604051908082528060200260200182016040528015610f2757816020015b610f14613814565b815260200190600190039081610f0c5790505b50915060005b81811015610f8757610f57848281518110610f4a57610f4a614c7b565b602002602001015161062a565b838281518110610f6957610f69614c7b565b60200260200101819052508080610f7f90614caa565b915050610f2d565b5050919050565b6110106040518060e00160405280600073ffffffffffffffffffffffffffffffffffffffff168152602001600073ffffffffffffffffffffffffffffffffffffffff168152602001600073ffffffffffffffffffffffffffffffffffffffff168152602001600081526020016000815260200160008152602001600081525090565b73ffffffffffffffffffffffffffffffffffffffff8316815260006110348461270d565b60a081015173ffffffffffffffffffffffffffffffffffffffff90811660208501526080820151166040840152905060008084156110725784611084565b6fffffffffffffffffffffffffffffffff5b6040517f8433ea220000000000000000000000000000000000000000000000000000000081526004810182905260006024820181905261dead6044830152606482015290955073ffffffffffffffffffffffffffffffffffffffff871690638433ea229060840160408051808303816000875af1925050508015611143575060408051601f3d9081017fffffffffffffffffffffffffffffffffffffffffffffffffffffffffffffffe016820190925261114091810190614ce2565b60015b6112225761114f614d06565b806308c379a0036111745750611163614d21565b8061116e5750611176565b50611225565b505b3d8080156111a0576040519150601f19603f3d011682016040523d82523d6000602084013e6111a5565b606091505b50604481511061116e5760208101517f33c955bc000000000000000000000000000000000000000000000000000000007fffffffff0000000000000000000000000000000000000000000000000000000082160161121b5760248201516044830151608088018290526060880181905290945092505b5050611225565b50505b6040517f8433ea22000000000000000000000000000000000000000000000000000000008152600481018690526000602482015261dead60448201526001606482015273ffffffffffffffffffffffffffffffffffffffff871690638433ea229060840160408051808303816000875af19250505080156112e1575060408051601f3d9081017fffffffffffffffffffffffffffffffffffffffffffffffffffffffffffffffe01682019092526112de91810190614ce2565b60015b6113c3576112ed614d06565b806308c379a0036113125750611301614d21565b8061130c5750611314565b506113c6565b505b3d80801561133e576040519150601f19603f3d011682016040523d82523d6000602084013e611343565b606091505b50604481511061130c57602081015160607f33c955bc000000000000000000000000000000000000000000000000000000007fffffffff000000000000000000000000000000000000000000000000000000008316016113bb576024830151604484015160c0890182905260a0890181905290955093505b5050506113c6565b50505b50505092915050565b6113d7613aaf565b60006113e2836105a5565b90506113f6620fffff600283901c16611af8565b6020830152633fffffff601682901c81166040840152603482901c16606083015266ffffffffffffff605a82901c1660ff605283901c161b60a083015266ffffffffffffff609a82901c1660ff609283901c161b608083015260d281901c63ffffffff168252604082015160009061146f908590611cce565b60c0840151600382169052905061148e600282901c620fffff16611af8565b60c0840180516020019190915280516603ffffffffffff607484901c1660409091015251633fffffff601683901c1660609091015266ffffffffffffff603c82901c1660ff603483901c161b60c084018051608001919091525160a682901c633fffffff1660a09091015261150b60c482901c620fffff16611af8565b60c0808501510152509092915050565b81516060908067ffffffffffffffff81111561153957611539614167565b6040519080825280602002602001820160405280156115ec57816020015b6115d96040518060e00160405280600073ffffffffffffffffffffffffffffffffffffffff168152602001600073ffffffffffffffffffffffffffffffffffffffff168152602001600073ffffffffffffffffffffffffffffffffffffffff168152602001600081526020016000815260200160008152602001600081525090565b8152602001906001900390816115575790505b50915060005b818110156116665761163685828151811061160f5761160f614c7b565b602002602001015185838151811061162957611629614c7b565b6020026020010151610f8e565b83828151811061164857611648614c7b565b6020026020010181905250808061165e90614caa565b9150506115f2565b505092915050565b60008173ffffffffffffffffffffffffffffffffffffffff1663540acabc6040518163ffffffff1660e01b8152600401602060405180830381865afa158015610600573d6000803e3d6000fd5b60608060006116c984611d1c565b80519091508067ffffffffffffffff8111156116e7576116e7614167565b60405190808252806020026020018201604052801561179657816020015b61178360405180610180016040528060008152602001600073ffffffffffffffffffffffffffffffffffffffff16815260200160001515815260200160001515815260200160008152602001600081526020016000815260200160008152602001600081526020016000815260200160008152602001600081525090565b8152602001906001900390816117055790505b5093508067ffffffffffffffff8111156117b2576117b2614167565b6040519080825280602002602001820160405280156117eb57816020015b6117d8613814565b8152602001906001900390816117d05790505b50925060008167ffffffffffffffff81111561180957611809614167565b604051908082528060200260200182016040528015611832578160200160208202803683370190505b50905060005b828110156118af5761186284828151811061185557611855614c7b565b602002602001015161086e565b87838151811061187457611874614c7b565b6020026020010187848151811061188d5761188d614c7b565b60200260200101829052829052505080806118a790614caa565b915050611838565b50505050915091565b60007f000000000000000000000000000000000000000000000000000000000000000073ffffffffffffffffffffffffffffffffffffffff16638d6540236040518163ffffffff1660e01b8152600401602060405180830381865afa158015611925573d6000803e3d6000fd5b505050506040513d601f19601f8201168201806040525081019061194991906147af565b905090565b600073ffffffffffffffffffffffffffffffffffffffff821663b5c736e460096105c5565b60008373ffffffffffffffffffffffffffffffffffffffff1663b5c736e461199d60068686611a72565b6040518263ffffffff1660e01b81526004016119bb91815260200190565b602060405180830381865afa1580156119d8573d6000803e3d6000fd5b505050506040513d601f19601f820116820180604052508101906119fc91906147af565b949350505050565b6040805160208082018490526003828401528251808303840181526060909201909252805191012060009073ffffffffffffffffffffffffffffffffffffffff7f0000000000000000000000000000000000000000000000000000000000000000169063b5c736e4906105c5565b6000808385604051602001611a91929190918252602082015260400190565b604080517fffffffffffffffffffffffffffffffffffffffffffffffffffffffffffffffe081840301815282825280516020918201209083018690529082018190529150606001604051602081830303815290604052805190602001209150509392505050565b6000620fffff8210611b6a576040517f08c379a000000000000000000000000000000000000000000000000000000000815260206004820152600e60248201527f696e76616c69642d6e756d626572000000000000000000000000000000000000604482015260640160405180910390fd5b8115611b9e5781600116600114611b9257611b8d600183901c6207ffff16614b9e565b610624565b5060011c6207ffff1690565b507f80000000000000000000000000000000000000000000000000000000000000005b919050565b6040805160208082018490526004828401528251808303840181526060909201909252805191012060009073ffffffffffffffffffffffffffffffffffffffff84169063b5c736e490610da3565b60606000611c206118b8565b90508067ffffffffffffffff811115611c3b57611c3b614167565b604051908082528060200260200182016040528015611c64578160200160208202803683370190505b50915060005b81811015611cc957611c80610572826001614dc9565b838281518110611c9257611c92614c7b565b73ffffffffffffffffffffffffffffffffffffffff9092166020928302919091019091015280611cc181614caa565b915050611c6a565b505090565b6040805160208082018490526007828401528251808303840181526060909201909252805191012060009073ffffffffffffffffffffffffffffffffffffffff84169063b5c736e490610da3565b6040517f70a0823100000000000000000000000000000000000000000000000000000000815273ffffffffffffffffffffffffffffffffffffffff82811660048301526060916000917f000000000000000000000000000000000000000000000000000000000000000016906370a0823190602401602060405180830381865afa158015611dae573d6000803e3d6000fd5b505050506040513d601f19601f82011682018060405250810190611dd291906147af565b90508067ffffffffffffffff811115611ded57611ded614167565b604051908082528060200260200182016040528015611e16578160200160208202803683370190505b50915060005b81811015610f87576040517f2f745c5900000000000000000000000000000000000000000000000000000000815273ffffffffffffffffffffffffffffffffffffffff8581166004830152602482018390527f00000000000000000000000000000000000000000000000000000000000000001690632f745c5990604401602060405180830381865afa158015611eb7573d6000803e3d6000fd5b505050506040513d601f19601f82011682018060405250810190611edb91906147af565b838281518110611eed57611eed614c7b565b602090810291909101015280611f0281614caa565b915050611e1c565b6040805160208082018490526003828401528251808303840181526060909201909252805191012060009073ffffffffffffffffffffffffffffffffffffffff84169063b5c736e490610da3565b60606000611f64611c14565b80519091508067ffffffffffffffff811115611f8257611f82614167565b60405190808252806020026020018201604052801561203557816020015b6120226040518060e00160405280600073ffffffffffffffffffffffffffffffffffffffff168152602001600073ffffffffffffffffffffffffffffffffffffffff168152602001600073ffffffffffffffffffffffffffffffffffffffff168152602001600081526020016000815260200160008152602001600081525090565b815260200190600190039081611fa05790505b50925060005b818110156120975761206783828151811061205857612058614c7b565b60200260200101516000610f8e565b84828151811061207957612079614c7b565b6020026020010181905250808061208f90614caa565b91505061203b565b50505090565b606060006120a9611c14565b80519091508067ffffffffffffffff8111156120c7576120c7614167565b60405190808252806020026020018201604052801561210057816020015b6120ed613814565b8152602001906001900390816120e55790505b50925060005b8181101561209757612123838281518110610f4a57610f4a614c7b565b84828151811061213557612135614c7b565b6020026020010181905250808061214b90614caa565b915050612106565b60006060826000036121685750600092915050565b607f8311612250576040517fd60000000000000000000000000000000000000000000000000000000000000060208201527f940000000000000000000000000000000000000000000000000000000000000060218201527fffffffffffffffffffffffffffffffffffffffff0000000000000000000000007f000000000000000000000000000000000000000000000000000000000000000060601b16602282015260f884901b7fff000000000000000000000000000000000000000000000000000000000000001660368201526037015b6040516020818303038152906040529050612648565b60ff831161234c576040517fd70000000000000000000000000000000000000000000000000000000000000060208201527f940000000000000000000000000000000000000000000000000000000000000060218201527fffffffffffffffffffffffffffffffffffffffff0000000000000000000000007f000000000000000000000000000000000000000000000000000000000000000060601b1660228201527f8100000000000000000000000000000000000000000000000000000000000000603682015260f884901b7fff0000000000000000000000000000000000000000000000000000000000000016603782015260380161223a565b61ffff8311612449576040517fd80000000000000000000000000000000000000000000000000000000000000060208201527f940000000000000000000000000000000000000000000000000000000000000060218201527fffffffffffffffffffffffffffffffffffffffff0000000000000000000000007f000000000000000000000000000000000000000000000000000000000000000060601b1660228201527f820000000000000000000000000000000000000000000000000000000000000060368201527fffff00000000000000000000000000000000000000000000000000000000000060f085901b16603782015260390161223a565b62ffffff8311612547576040517fd90000000000000000000000000000000000000000000000000000000000000060208201527f940000000000000000000000000000000000000000000000000000000000000060218201527fffffffffffffffffffffffffffffffffffffffff0000000000000000000000007f000000000000000000000000000000000000000000000000000000000000000060601b1660228201527f830000000000000000000000000000000000000000000000000000000000000060368201527fffffff000000000000000000000000000000000000000000000000000000000060e885901b166037820152603a0161223a565b6040517fda0000000000000000000000000000000000000000000000000000000000000060208201527f940000000000000000000000000000000000000000000000000000000000000060218201527fffffffffffffffffffffffffffffffffffffffff0000000000000000000000007f000000000000000000000000000000000000000000000000000000000000000060601b1660228201527f840000000000000000000000000000000000000000000000000000000000000060368201527fffffffff0000000000000000000000000000000000000000000000000000000060e085901b166037820152603b0160405160208183030381529060405290505b805160209091012092915050565b600073ffffffffffffffffffffffffffffffffffffffff821663b5c736e460016105c5565b600073ffffffffffffffffffffffffffffffffffffffff821663b5c736e460026105c5565b60007f000000000000000000000000000000000000000000000000000000000000000073ffffffffffffffffffffffffffffffffffffffff166318160ddd6040518163ffffffff1660e01b8152600401602060405180830381865afa158015611925573d6000803e3d6000fd5b604080516101e081018252600080825260208201819052918101829052606081018290526080810182905260a0810182905260c0810182905260e08101829052610100810182905261012081018290526101408101829052610160810182905261018081018290526101a081018290526101c08101919091528173ffffffffffffffffffffffffffffffffffffffff1663b7791bf26040518163ffffffff1660e01b81526004016101e060405180830381865afa1580156127d2573d6000803e3d6000fd5b505050506040513d601f19601f820116820180604052508101906106249190614ded565b6040805161016081018252600080825260208201819052918101829052606081018290526080810182905260a0810182905260c0810182905260e081018290526101008101829052610120810182905261014081018290529061285883612656565b61ffff8082168452601082901c166020808501919091529091506128849082901c6103ff16600a614ee0565b61ffff1660408301526128a0602a82901c6103ff16600a614ee0565b61ffff1660608301526128bc603482901c6103ff16600a614ee0565b61ffff1660808301526128d8603e82901c6103ff16600a614ee0565b61ffff1660a08301526103ff604882901c811660c0840152605282901c1660e0830152606081901c6101008301819052604080517fe6aa216c000000000000000000000000000000000000000000000000000000008152905163e6aa216c916004808201926020929091908290030181865afa15801561295c573d6000803e3d6000fd5b505050506040513d601f19601f8201168201806040525081019061298091906147af565b61012083015261298f8361194e565b73ffffffffffffffffffffffffffffffffffffffff1661014083015250919050565b612a1c604051806101a00160405280600081526020016000815260200160008152602001600081526020016000815260200160008152602001600081526020016000815260200160008152602001600081526020016000815260200160008152602001600081525090565b6000612a2786610d34565b67ffffffffffffffff8082168452604082811c82166020860152608083901c9091169084015260c081901c6060840152905073ffffffffffffffffffffffffffffffffffffffff86166309f0d8cb612a7e88612656565b6040518263ffffffff1660e01b8152600401612a9c91815260200190565b608060405180830381865afa158015612ab9573d6000803e3d6000fd5b505050506040513d601f19601f82011682018060405250810190612add9190614efe565b60e086015260c085015260a0840152608083015260208401805161014084015283516101608401528551905161271091612b1d9161ffff90911690614bd6565b612b279190614c40565b6101008301526020850151835161271091612b489161ffff90911690614bd6565b612b529190614c40565b610120830152845161271061ffff90911611612b6f576000612b7e565b8451612b7e9061271090614f34565b61ffff1661018083015250949350505050565b612bca6040518060c001604052806000815260200160008152602001600081526020016000815260200160008152602001600081525090565b6000612bd5856105a5565b90506000612be28661267b565b905060007f000000000000000000000000000000000000000000000000000000000000000073ffffffffffffffffffffffffffffffffffffffff1663b5c736e4866101a001516040518263ffffffff1660e01b8152600401612c4691815260200190565b602060405180830381865afa158015612c63573d6000803e3d6000fd5b505050506040513d601f19601f82011682018060405250810190612c8791906147af565b905067ffffffffffffffff600182901c16905060ff8116600882901c901b905060007f000000000000000000000000000000000000000000000000000000000000000073ffffffffffffffffffffffffffffffffffffffff1663b5c736e4876101c001516040518263ffffffff1660e01b8152600401612d0991815260200190565b602060405180830381865afa158015612d26573d6000803e3d6000fd5b505050506040513d601f19601f82011682018060405250810190612d4a91906147af565b66ffffffffffffff605a86901c811660ff605288901c81169190911b808952609a88901c8316609289901c83161b60208a015260408901869052600984901c90921660019390931c169190911b606087018190526fffffffffffffffffffffffffffffffff851660a0880152608085811c9088015260c089015190925064e8d4a5100091612dd89190614bd6565b612de29190614c40565b855260e0870151602086015164e8d4a5100091612dfe91614bd6565b612e089190614c40565b60208601526080870151604086015164e8d4a5100091612e2791614bd6565b612e319190614c40565b604086015260a0870151606086015164e8d4a5100091612e5091614bd6565b612e5a9190614c40565b606086015250929695505050505050565b612eab6040518060e00160405280600081526020016000815260200160008152602001600081526020016000815260200160008152602001600081525090565b6101a08301516040517fb5c736e400000000000000000000000000000000000000000000000000000000815260009173ffffffffffffffffffffffffffffffffffffffff7f0000000000000000000000000000000000000000000000000000000000000000169163b5c736e491612f289160040190815260200190565b602060405180830381865afa158015612f45573d6000803e3d6000fd5b505050506040513d601f19601f82011682018060405250810190612f6991906147af565b905060007f000000000000000000000000000000000000000000000000000000000000000073ffffffffffffffffffffffffffffffffffffffff1663b5c736e4866101c001516040518263ffffffff1660e01b8152600401612fcd91815260200190565b602060405180830381865afa158015612fea573d6000803e3d6000fd5b505050506040513d601f19601f8201168201806040525081019061300e91906147af565b905066ffffffffffffff600983901c1660ff600184901c161b600061303384836136cc565b905066ffffffffffffff600984901c1660ff600185901c161b6000613058858361375c565b905064e8d4a510008a60800151846130709190614bd6565b61307a9190614c40565b875260a08a015164e8d4a51000906130929083614bd6565b61309c9190614c40565b60608801819052620f4240906130b590620f423f614bd6565b6130bf9190614c40565b6080880181905260608c0151106130d75760006130eb565b8a6060015187608001516130eb9190614bed565b608088015260a089015160009073ffffffffffffffffffffffffffffffffffffffff167fffffffffffffffffffffffff111111111111111111111111111111111111111201613172575073ffffffffffffffffffffffffffffffffffffffff7f0000000000000000000000000000000000000000000000000000000000000000163161322b565b60a08a01516040517f70a0823100000000000000000000000000000000000000000000000000000000815273ffffffffffffffffffffffffffffffffffffffff7f000000000000000000000000000000000000000000000000000000000000000081166004830152909116906370a0823190602401602060405180830381865afa158015613204573d6000803e3d6000fd5b505050506040513d601f19601f8201168201806040525081019061322891906147af565b90505b8760800151811161323c5780613242565b87608001515b60a0890152875160408d01511161325a57600061326b565b875160408d015161326b9190614bed565b602089015260a089015160408d01516000916127109161328f9161ffff1690614bd6565b6132999190614c40565b9050808960200151116132ad5760006132d8565b620f4240818a602001516132c19190614bed565b6132ce90620f423f614bd6565b6132d89190614c40565b60208a015260808b015173ffffffffffffffffffffffffffffffffffffffff167fffffffffffffffffffffffff11111111111111111111111111111111111111120161335d577f000000000000000000000000000000000000000000000000000000000000000073ffffffffffffffffffffffffffffffffffffffff16319150613416565b60808b01516040517f70a0823100000000000000000000000000000000000000000000000000000000815273ffffffffffffffffffffffffffffffffffffffff7f000000000000000000000000000000000000000000000000000000000000000081166004830152909116906370a0823190602401602060405180830381865afa1580156133ef573d6000803e3d6000fd5b505050506040513d601f19601f8201168201806040525081019061341391906147af565b91505b88602001518211613427578161342d565b88602001515b60408a015260e08c015164e8d4a510009061344a90612711614bd6565b6134549190614c40565b60c08a015250969b9a5050505050505050505050565b600060ff82901d80831803617fff81111561348457600080fd5b70010000000000000000000000000000000060018216156134b257506fff9dd7de423466c20352b1246ce4856f5b60028216156134d1576fff3bd55f4488ad277531fa1c725a66d00260801c5b60048216156134f0576ffe78410fd6498b73cb96a6917f8532590260801c5b600882161561350f576ffcf2d9987c9be178ad5bfeffaa1232730260801c5b601082161561352e576ff9ef02c4529258b057769680fc6601b30260801c5b602082161561354d576ff402d288133a85a17784a411f7aba0820260801c5b604082161561356c576fe895615b5beb6386553757b0352bda900260801c5b608082161561358b576fd34f17a00ffa00a8309940a15930391a0260801c5b6101008216156135ab576fae6b7961714e20548d88ea5123f9a0ff0260801c5b6102008216156135cb576f76d6461f27082d74e0feed3b388c0ca10260801c5b6104008216156135eb576f372a3bfe0745d8b6b19d985d9a8b85bb0260801c5b61080082161561360b576f0be32cbee48979763cf7247dd7bb539d0260801c5b61100082161561362a576e8d4f70c9ff4924dac37612d1e2921e0260801c5b612000821615613648576d4e009ae5519380809a02ca7aec770260801c5b614000821615613664576b17c45e641b6e95dee056ff100260801c5b600091507f800000000000000000000000000000000000000000000000000000000000000084166136c2577fffffffffffffffffffffffffffffffffffffffffffffffffffffffffffffffff0463ffffffff8116156136c257600191505b60201c0192915050565b600066ffffffffffffff604984901c1660ff604185901c161b8082036136f6576000915050610624565b612710613fff60a286901c168402046401ffffffff608186901c16420362ffffff60b087901c166137278284614bd6565b6137319190614c40565b9050808311613741576000613745565b8083035b935050808403838111156113c65795945050505050565b60d082901c6103ff1660c883901c60ff161b613fff60a284901c16612710838202048084018381101561379157505050610624565b608186901c6401ffffffff164203925066ffffffffffffff604987901c1660ff604188901c161b60b087901c62ffffff166137cc8585614bd6565b6137d69190614c40565b6137e09190614dc9565b9350808411156137ee578093505b6103ff60e287901c1660ff60da88901c161b9250828411156113c6575090949350505050565b604080516101208082018352600080835283516101e0810185528181526020818101839052948101829052606081018290526080810182905260a0810182905260c0810182905260e0810182905261010081018290529182018190526101408201819052610160820181905261018082018190526101a082018190526101c082015290918201908152604080516101608101825260008082526020828101829052928201819052606082018190526080820181905260a0820181905260c0820181905260e08201819052610100820181905261012082018190526101408201529101908152602001613967604051806101a00160405280600081526020016000815260200160008152602001600081526020016000815260200160008152602001600081526020016000815260200160008152602001600081526020016000815260200160008152602001600081525090565b81526020016139a56040518060c001604052806000815260200160008152602001600081526020016000815260200160008152602001600081525090565b81526020016139ea6040518060e00160405280600081526020016000815260200160008152602001600081526020016000815260200160008152602001600081525090565b81526020016139f7613aaf565b8152602001613a4d60405180610120016040528060001515815260200160008152602001600081526020016000815260200160008152602001600081526020016000815260200160008152602001600081525090565b8152602001613aaa6040518061014001604052806000151581526020016000815260200160008152602001600081526020016000815260200160008152602001600081526020016000815260200160008152602001600081525090565b905290565b6040518060e00160405280600081526020016000815260200160008152602001600081526020016000815260200160008152602001613aaa6040518060e00160405280600081526020016000815260200160008152602001600081526020016000815260200160008152602001600081525090565b73ffffffffffffffffffffffffffffffffffffffff81168114613b4657600080fd5b50565b600060208284031215613b5b57600080fd5b8135610e0281613b24565b805173ffffffffffffffffffffffffffffffffffffffff1682526020810151613ba7602084018273ffffffffffffffffffffffffffffffffffffffff169052565b506040810151613bcf604084018273ffffffffffffffffffffffffffffffffffffffff169052565b506060810151613bf7606084018273ffffffffffffffffffffffffffffffffffffffff169052565b506080810151613c1f608084018273ffffffffffffffffffffffffffffffffffffffff169052565b5060a0810151613c4760a084018273ffffffffffffffffffffffffffffffffffffffff169052565b5060c0810151613c5c60c084018260ff169052565b5060e0810151613c7160e084018260ff169052565b50610100818101519083015261012080820151908301526101408082015190830152610160808201519083015261018080820151908301526101a080820151908301526101c090810151910152565b805161ffff1682526020810151613cdd602084018261ffff169052565b506040810151613cf3604084018261ffff169052565b506060810151613d09606084018261ffff169052565b506080810151613d1f608084018261ffff169052565b5060a0810151613d3560a084018261ffff169052565b5060c0810151613d4b60c084018261ffff169052565b5060e0810151613d6160e084018261ffff169052565b506101008181015173ffffffffffffffffffffffffffffffffffffffff9081169184019190915261012080830151908401526101409182015116910152565b805173ffffffffffffffffffffffffffffffffffffffff1682526020810151613dcc6020840182613b66565b506040810151613de0610200840182613cc0565b5060608181015180516103608501526020808201516103808601526040808301516103a0870152828401516103c08701526080808401516103e088015260a08085015161040089015260c0808601516104208a015260e0808701516104408b0152610100808801516104608c0152610120808901516104808d01526101408901516104a08d01526101608901516104c08d0152610180909801516104e08c0152848a015180516105008d0152808801516105208d0152808701516105408d0152808a01516105608d0152808601516105808d01528401516105a08c0152838a015180516105c08d0152808801516105e08d0152808701516106008d0152808a01516106208d0152808601516106408d0152808501516106608d01528301516106808c0152828a015180516106a08d0152808801516106c08d0152808701516106e08d0152808a01516107008d0152808601516107208d0152808501516107408d015283015180516107608d0152808801516107808d0152808701516107a08d0152808a01516107c08d0152808601516107e08d0152808501516108008d01528301516108208c0152818a0151805115156108408d0152808801516108608d0152808701516108808d0152808a01516108a08d0152808601516108c08d0152808501516108e08d0152808401516109008d0152808301516109208d01528101516109408c015298890151805115156109608c0152958601516109808b0152938501516109a08a0152958401516109c0890152908301516109e0880152820151610a0087015292810151610a2086015291820151610a4085015291810151610a608401520151610a8090910152565b610aa081016106248284613da0565b60006020828403121561406e57600080fd5b5035919050565b8051825260208101516140a0602084018273ffffffffffffffffffffffffffffffffffffffff169052565b5060408101516140b4604084018215159052565b5060608101516140c8606084018215159052565b506080818101519083015260a0808201519083015260c0808201519083015260e0808201519083015261010080820151908301526101208082015190830152610140808201519083015261016090810151910152565b610c20810161412d8285614075565b610e02610180830184613da0565b6000806040838503121561414e57600080fd5b823561415981613b24565b946020939093013593505050565b7f4e487b7100000000000000000000000000000000000000000000000000000000600052604160045260246000fd5b6060810181811067ffffffffffffffff821117156141b6576141b6614167565b60405250565b60a0810181811067ffffffffffffffff821117156141b6576141b6614167565b7fffffffffffffffffffffffffffffffffffffffffffffffffffffffffffffffe0601f830116810181811067ffffffffffffffff8211171561422057614220614167565b6040525050565b604051610200810167ffffffffffffffff8111828210171561424b5761424b614167565b60405290565b604051610120810167ffffffffffffffff8111828210171561424b5761424b614167565b604051610140810167ffffffffffffffff8111828210171561424b5761424b614167565b6040516101e0810167ffffffffffffffff8111828210171561424b5761424b614167565b600067ffffffffffffffff8211156142d7576142d7614167565b5060051b60200190565b600082601f8301126142f257600080fd5b813560206142ff826142bd565b60405161430c82826141dc565b83815260059390931b850182019282810191508684111561432c57600080fd5b8286015b8481101561435057803561434381613b24565b8352918301918301614330565b509695505050505050565b60006020828403121561436d57600080fd5b813567ffffffffffffffff81111561438457600080fd5b6119fc848285016142e1565b600081518084526020808501945080840160005b838110156143cb576143b7878351613da0565b610aa09690960195908201906001016143a4565b509495945050505050565b602081526000610e026020830184614390565b60e08101610624828473ffffffffffffffffffffffffffffffffffffffff80825116835280602083015116602084015280604083015116604084015250606081015160608301526080810151608083015260a081015160a083015260c081015160c08301525050565b815181526020808301518183015260408084015181840152606080850151818501526080808601518186015260a0808701518187015260c0808801518051828901529586015160e0880152938501516101008701529184015161012086015283015161014085015282015161016084015201516101808201526101a08101610624565b600080604083850312156144e857600080fd5b823567ffffffffffffffff8082111561450057600080fd5b61450c868387016142e1565b935060209150818501358181111561452357600080fd5b85019050601f8101861361453657600080fd5b8035614541816142bd565b60405161454e82826141dc565b82815260059290921b830184019184810191508883111561456e57600080fd5b928401925b8284101561458c57833582529284019290840190614573565b80955050505050509250929050565b6020808252825182820181905260009190848201906040850190845b818110156146385761462583855173ffffffffffffffffffffffffffffffffffffffff80825116835280602083015116602084015280604083015116604084015250606081015160608301526080810151608083015260a081015160a083015260c081015160c08301525050565b9284019260e092909201916001016145b7565b50909695505050505050565b6000806040838503121561465757600080fd5b50508035926020909101359150565b604080825283519082018190526000906020906060840190828701845b828110156146aa57614696848351614075565b610180939093019290840190600101614683565b505050838103828501526146be8186614390565b9695505050505050565b6000806000606084860312156146dd57600080fd5b83356146e881613b24565b95602085013595506040909401359392505050565b60008060006060848603121561471257600080fd5b505081359360208301359350604090920135919050565b6020808252825182820181905260009190848201906040850190845b8181101561463857835173ffffffffffffffffffffffffffffffffffffffff1683529284019291840191600101614745565b6020808252825182820181905260009190848201906040850190845b8181101561463857835183529284019291840191600101614793565b6000602082840312156147c157600080fd5b5051919050565b80518015158114611bc157600080fd5b8051611bc181613b24565b600060e082840312156147f557600080fd5b60405160e0810181811067ffffffffffffffff8211171561481857614818614167565b8060405250809150825161482b81613b24565b808252506020830151602082015260408301516040820152606083015160608201526080830151608082015260a083015160a082015260c083015160c08201525092915050565b60008183036101a081121561488657600080fd5b60405161489281614196565b8092508351815260a07fffffffffffffffffffffffffffffffffffffffffffffffffffffffffffffffe0830112156148c957600080fd5b60405191506148d7826141bc565b60208401516148e581613b24565b8083525060408401516020830152606084015160408301526080840151606083015260a084015160808301528160208201526149248560c086016147e3565b6040820152505092915050565b6000610380828403121561494457600080fd5b61494c614227565b9050815181526020820151602082015260408201516040820152606082015160608201526080820151608082015260a082015160a082015260c082015160c082015260e082015160e08201526101008083015181830152506101208083015181830152506101408083015181830152506101608083015181830152506101808083015181830152506101a08083015181830152506101c08083015181830152506101e06149fb84828501614872565b9082015292915050565b6000808284036104a0811215614a1a57600080fd5b61012080821215614a2a57600080fd5b614a32614251565b9150614a3d856147c8565b82526020850151602083015260408501516040830152606085015160608301526080850151608083015260a085015160a083015260c085015160c083015260e085015160e0830152610100808601518184015250819350614aa086828701614931565b925050509250929050565b6000808284036104c0811215614ac057600080fd5b61014080821215614ad057600080fd5b614ad8614275565b9150614ae3856147c8565b82526020850151602083015260408501516040830152606085015160608301526080850151608083015260a085015160a083015260c085015160c083015260e085015160e0830152610100808601518184015250610120808601518184015250819350614aa086828701614931565b600060208284031215614b6457600080fd5b8151610e0281613b24565b7f4e487b7100000000000000000000000000000000000000000000000000000000600052601160045260246000fd5b60007f80000000000000000000000000000000000000000000000000000000000000008203614bcf57614bcf614b6f565b5060000390565b808202811582820484141761062457610624614b6f565b8181038181111561062457610624614b6f565b600080600080600060a08688031215614c1857600080fd5b5050835160208501516040860151606087015160809097015192989197509594509092509050565b600082614c76577f4e487b7100000000000000000000000000000000000000000000000000000000600052601260045260246000fd5b500490565b7f4e487b7100000000000000000000000000000000000000000000000000000000600052603260045260246000fd5b60007fffffffffffffffffffffffffffffffffffffffffffffffffffffffffffffffff8203614cdb57614cdb614b6f565b5060010190565b60008060408385031215614cf557600080fd5b505080516020909101519092909150565b600060033d11156104e35760046000803e5060005160e01c90565b600060443d1015614d2f5790565b6040517ffffffffffffffffffffffffffffffffffffffffffffffffffffffffffffffffc803d016004833e81513d67ffffffffffffffff8160248401118184111715614d7d57505050505090565b8285019150815181811115614d955750505050505090565b843d8701016020828501011115614daf5750505050505090565b614dbe602082860101876141dc565b509095945050505050565b8082018082111561062457610624614b6f565b805160ff81168114611bc157600080fd5b60006101e08284031215614e0057600080fd5b614e08614299565b614e11836147d8565b8152614e1f602084016147d8565b6020820152614e30604084016147d8565b6040820152614e41606084016147d8565b6060820152614e52608084016147d8565b6080820152614e6360a084016147d8565b60a0820152614e7460c08401614ddc565b60c0820152614e8560e08401614ddc565b60e0820152610100838101519082015261012080840151908201526101408084015190820152610160808401519082015261018080840151908201526101a080840151908201526101c0928301519281019290925250919050565b61ffff81811683821602808216919082811461166657611666614b6f565b60008060008060808587031215614f1457600080fd5b505082516020840151604085015160609095015191969095509092509050565b61ffff828116828216039080821115614f4f57614f4f614b6f565b509291505056fea26469706673582212206cfd2a0a599eadc7c2d356f6621755e8b8b21bbed023b5fb5edf2f20bbbfc1a264736f6c63430008150033",
  "devdoc": {
    "kind": "dev",
    "methods": {
      "getVaultLiquidation(address,uint256)": {
        "details": "fetches available liquidations",
        "params": {
          "tokenInAmt_": "token in aka debt to payback, leave 0 to get max",
          "vault_": "address of vault for which to fetch"
        },
        "returns": {
          "liquidationData_": "liquidation related data. Check out structs.sol"
        }
      }
    },
    "version": 1
  },
  "userdoc": {
    "kind": "user",
    "methods": {
      "calculateDoubleIntUintMapping(uint256,int256,uint256)": {
        "notice": "Calculating the slot ID for Liquidity contract for double mapping"
      },
      "calculateStorageSlotIntMapping(uint256,int256)": {
        "notice": "Calculating the slot ID for Liquidity contract for single mapping"
      },
      "calculateStorageSlotUintMapping(uint256,uint256)": {
        "notice": "Calculating the slot ID for Liquidity contract for single mapping"
      }
    },
    "notice": "Fluid Vault protocol resolver Implements various view-only methods to give easy access to Vault protocol data.",
    "version": 1
  },
  "storageLayout": {
    "storage": [],
    "types": null
  }
}