{
  "address": "0x96B7F148d86048688AA8414f9D01e3B4C41786aB",
  "abi": [
    {
      "inputs": [
        {
          "internalType": "contract IPendlePYLpOracle",
          "name": "pendleOracle_",
          "type": "address"
        },
        {
          "internalType": "contract IPendleMarketV3",
          "name": "pendleMarket_",
          "type": "address"
        },
        {
          "internalType": "uint32",
          "name": "twapDuration_",
          "type": "uint32"
        },
        {
          "internalType": "uint256",
          "name": "maxExpectedBorrowRate_",
          "type": "uint256"
        },
        {
          "internalType": "uint256",
          "name": "minYieldRate_",
          "type": "uint256"
        },
        {
          "internalType": "uint256",
          "name": "maxYieldRate_",
          "type": "uint256"
        },
        {
          "internalType": "uint8",
          "name": "debtTokenDecimals_",
          "type": "uint8"
        }
      ],
      "stateMutability": "nonpayable",
      "type": "constructor"
    },
    {
      "inputs": [
        {
          "internalType": "uint256",
          "name": "errorId_",
          "type": "uint256"
        }
      ],
      "name": "FluidOracleError",
      "type": "error"
    },
    {
      "inputs": [],
      "name": "getExchangeRate",
      "outputs": [
        {
          "internalType": "uint256",
          "name": "exchangeRate_",
          "type": "uint256"
        }
      ],
      "stateMutability": "view",
      "type": "function"
    },
    {
      "inputs": [],
      "name": "getExchangeRateLiquidate",
      "outputs": [
        {
          "internalType": "uint256",
          "name": "exchangeRate_",
          "type": "uint256"
        }
      ],
      "stateMutability": "view",
      "type": "function"
    },
    {
      "inputs": [],
      "name": "getExchangeRateOperate",
      "outputs": [
        {
          "internalType": "uint256",
          "name": "exchangeRate_",
          "type": "uint256"
        }
      ],
      "stateMutability": "view",
      "type": "function"
    },
    {
      "inputs": [],
      "name": "pendleOracleData",
      "outputs": [
        {
          "internalType": "contract IPendlePYLpOracle",
          "name": "pendleOracle_",
          "type": "address"
        },
        {
          "internalType": "contract IPendleMarketV3",
          "name": "pendleMarket_",
          "type": "address"
        },
        {
          "internalType": "uint256",
          "name": "expiry_",
          "type": "uint256"
        },
        {
          "internalType": "uint32",
          "name": "twapDuration_",
          "type": "uint32"
        },
        {
          "internalType": "uint256",
          "name": "maxExpectedBorrowRate_",
          "type": "uint256"
        },
        {
          "internalType": "uint256",
          "name": "minYieldRate_",
          "type": "uint256"
        },
        {
          "internalType": "uint256",
          "name": "maxYieldRate_",
          "type": "uint256"
        },
        {
          "internalType": "uint8",
          "name": "debtTokenDecimals_",
          "type": "uint8"
        },
        {
          "internalType": "uint256",
          "name": "exchangeRateOperate_",
          "type": "uint256"
        },
        {
          "internalType": "uint256",
          "name": "exchangeRateLiquidate_",
          "type": "uint256"
        },
        {
          "internalType": "uint256",
          "name": "ptToAssetRateTWAP_",
          "type": "uint256"
        }
      ],
      "stateMutability": "view",
      "type": "function"
    }
  ],
  "transactionHash": "0x7592e9551ada3f7f345b99349294f410e1c1d8b6a20875ba061998fed4e6b3cf",
  "args": [
    "0x9a9Fa8338dd5E5B2188006f1Cd2Ef26d921650C2",
    "0xd1D7D99764f8a52Aff007b7831cc02748b2013b5",
    900,
    4000,
    860,
    7180,
    6
  ],
  "numDeployments": 1,
  "solcInputHash": "fc72f80b97f3c794d054ad22f251b291",
  "bytecode": "0x6101806040523480156200001257600080fd5b5060405162000f1c38038062000f1c83398101604081905262000035916200039e565b868686868686866001600160a01b03871615806200005a57506001600160a01b038616155b806200006a575063ffffffff8516155b8062000074575083155b8062000081575061753084115b806200008b575082155b8062000098575061271083115b80620000a2575081155b80620000af575061753082115b80620000ba57508183115b80620000c9575060068160ff16105b15620000f15760405163c82fc46560e01b815261eb2960048201526024015b60405180910390fd5b60405162439f4b60e91b81526001600160a01b03878116600483015263ffffffff8716602483015260009182918a169063873e960090604401606060405180830381865afa15801562000148573d6000803e3d6000fd5b505050506040513d601f19601f820116820180604052508101906200016e91906200043b565b925050915081806200017e575080155b15620001a25760405163c82fc46560e01b815261eb2a6004820152602401620000e8565b5050601260ff16866001600160a01b031663313ce5676040518163ffffffff1660e01b8152600401602060405180830381865afa158015620001e8573d6000803e3d6000fd5b505050506040513d601f19601f820116820180604052508101906200020e91906200048d565b60ff161415806200029f575060405163abca0eab60e01b81526001600160a01b03878116600483015263ffffffff8716602483015266038d7ea4c68000919089169063abca0eab90604401602060405180830381865afa15801562000277573d6000803e3d6000fd5b505050506040513d601f19601f820116820180604052508101906200029d9190620004b2565b105b15620002c35760405163c82fc46560e01b815261eb2b6004820152602401620000e8565b6001600160a01b03808816608052861660a0819052604080516370c264df60e11b8152905163e184c9be916004808201926020929091908290030181865afa15801562000314573d6000803e3d6000fd5b505050506040513d601f19601f820116820180604052508101906200033a9190620004b2565b60c05263ffffffff90941660e05261010092909252610120526101405260ff166101605250620004cc975050505050505050565b6001600160a01b03811681146200038457600080fd5b50565b805160ff811681146200039957600080fd5b919050565b600080600080600080600060e0888a031215620003ba57600080fd5b8751620003c7816200036e565b6020890151909750620003da816200036e565b604089015190965063ffffffff81168114620003f557600080fd5b80955050606088015193506080880151925060a088015191506200041c60c0890162000387565b905092959891949750929550565b805180151581146200039957600080fd5b6000806000606084860312156200045157600080fd5b6200045c846200042a565b9250602084015161ffff811681146200047457600080fd5b915062000484604085016200042a565b90509250925092565b600060208284031215620004a057600080fd5b620004ab8262000387565b9392505050565b600060208284031215620004c557600080fd5b5051919050565b60805160a05160c05160e0516101005161012051610140516101605161098862000594600039600081816101f8015281816103c20152818161065201526106a90152600081816101d701526105780152600081816101b601526105a6015260008181610195015261061a0152600081816101740152818161028c0152610480015260008181610153015281816103560152610384015260008181610132015281816102640152610458015260008181610111015281816102b801526104ac01526109886000f3fe608060405234801561001057600080fd5b506004361061004c5760003560e01c80638e7bfbc014610051578063aafc82701461006c578063e6aa216c14610051578063f3190c89146100e7575b600080fd5b6100596100ef565b6040519081526020015b60405180910390f35b6100746100fe565b6040805173ffffffffffffffffffffffffffffffffffffffff9c8d1681529b909a1660208c0152988a019790975263ffffffff9095166060890152608088019390935260a087019190915260c086015260ff1660e085015261010084015261012083015261014082015261016001610063565b610059610346565b60006100f9610350565b905090565b60008060008060008060008060008060007f00000000000000000000000000000000000000000000000000000000000000007f00000000000000000000000000000000000000000000000000000000000000007f00000000000000000000000000000000000000000000000000000000000000007f00000000000000000000000000000000000000000000000000000000000000007f00000000000000000000000000000000000000000000000000000000000000007f00000000000000000000000000000000000000000000000000000000000000007f00000000000000000000000000000000000000000000000000000000000000007f000000000000000000000000000000000000000000000000000000000000000061021f610350565b610227610694565b6040517fabca0eab00000000000000000000000000000000000000000000000000000000815273ffffffffffffffffffffffffffffffffffffffff7f0000000000000000000000000000000000000000000000000000000000000000811660048301527f000000000000000000000000000000000000000000000000000000000000000063ffffffff1660248301527f0000000000000000000000000000000000000000000000000000000000000000169063abca0eab90604401602060405180830381865afa1580156102ff573d6000803e3d6000fd5b505050506040513d601f19601f820116820180604052508101906103239190610757565b9a509a509a509a509a509a509a509a509a509a509a50909192939495969798999a565b60006100f9610694565b600080427f0000000000000000000000000000000000000000000000000000000000000000116103815760006103a5565b427f0000000000000000000000000000000000000000000000000000000000000000035b905080600003610404576103bb6012600a6108bf565b6103e960ff7f000000000000000000000000000000000000000000000000000000000000000016601b6108ce565b6103f490600a6108e1565b6103fe91906108ed565b91505090565b6104106012601b610928565b61041b90600a6108e1565b6040517fabca0eab00000000000000000000000000000000000000000000000000000000815273ffffffffffffffffffffffffffffffffffffffff7f0000000000000000000000000000000000000000000000000000000000000000811660048301527f000000000000000000000000000000000000000000000000000000000000000063ffffffff1660248301527f0000000000000000000000000000000000000000000000000000000000000000169063abca0eab90604401602060405180830381865afa1580156104f3573d6000803e3d6000fd5b505050506040513d601f19601f820116820180604052508101906105179190610757565b610521919061093b565b915061052f601b600a6108e1565b821115610571576040517fc82fc46500000000000000000000000000000000000000000000000000000000815261eb2c60048201526024015b60405180910390fd5b600061059d7f0000000000000000000000000000000000000000000000000000000000000000836106e5565b905060006105cb7f0000000000000000000000000000000000000000000000000000000000000000846106e5565b9050818410806105da57508084115b15610615576040517fc82fc46500000000000000000000000000000000000000000000000000000000815261eb2c6004820152602401610568565b61063f7f0000000000000000000000000000000000000000000000000000000000000000846106e5565b935061064d6012600a6108bf565b6106787f0000000000000000000000000000000000000000000000000000000000000000600a6108bf565b610682908661093b565b61068c91906108ed565b935050505090565b60006106a26012600a6108bf565b6106d060ff7f000000000000000000000000000000000000000000000000000000000000000016601b6108ce565b6106db90600a6108e1565b6100f991906108ed565b60006301e13380826106fe85662386f26fc1000061093b565b610708919061093b565b61071291906108ed565b6107259068056bc75e2d631000006108ce565b610731601b600a6108e1565b6107449068056bc75e2d6310000061093b565b61074e91906108ed565b90505b92915050565b60006020828403121561076957600080fd5b5051919050565b7f4e487b7100000000000000000000000000000000000000000000000000000000600052601160045260246000fd5b600181815b808511156107f857817fffffffffffffffffffffffffffffffffffffffffffffffffffffffffffffffff048211156107de576107de610770565b808516156107eb57918102915b93841c93908002906107a4565b509250929050565b60008261080f57506001610751565b8161081c57506000610751565b8160018114610832576002811461083c57610858565b6001915050610751565b60ff84111561084d5761084d610770565b50506001821b610751565b5060208310610133831016604e8410600b841016171561087b575081810a610751565b610885838361079f565b807fffffffffffffffffffffffffffffffffffffffffffffffffffffffffffffffff048211156108b7576108b7610770565b029392505050565b600061074e60ff841683610800565b8082018082111561075157610751610770565b600061074e8383610800565b600082610923577f4e487b7100000000000000000000000000000000000000000000000000000000600052601260045260246000fd5b500490565b8181038181111561075157610751610770565b80820281158282048414176107515761075161077056fea26469706673582212209757c3b74d3ea6ebd21f360d93a8371db9cff77add4036af1fb953b08b5dd5d264736f6c63430008150033",
  "devdoc": {
    "kind": "dev",
    "methods": {
      "getExchangeRate()": {
        "details": "Deprecated. Use `getExchangeRateOperate()` and `getExchangeRateLiquidate()` instead. Only implemented for      backwards compatibility."
      }
    },
    "title": "PendleOracle",
    "version": 1
  },
  "userdoc": {
    "kind": "user",
    "methods": {
      "getExchangeRateLiquidate()": {
        "notice": "Get the `exchangeRate_` between the underlying asset and the peg asset in 1e27 for liquidations"
      },
      "getExchangeRateOperate()": {
        "notice": "Get the `exchangeRate_` between the underlying asset and the peg asset in 1e27 for operates"
      },
      "pendleOracleData()": {
        "notice": "returns all Pendle oracle related data as utility for easy off-chain use / block explorer in a single view method"
      }
    },
    "notice": "Gets the exchange rate between Pendle and the underlying asset for the Pendle Market.",
    "version": 1
  },
  "storageLayout": {
    "storage": [],
    "types": null
  }
}