{
  "address": "0x98612EE747EeDF29D1399C8D0a3ebb008EE6E7A5",
  "abi": [
    {
      "inputs": [
        {
          "internalType": "string",
          "name": "infoName_",
          "type": "string"
        },
        {
          "internalType": "contract IWstETH",
          "name": "wstETH_",
          "type": "address"
        },
        {
          "internalType": "uint256",
          "name": "minUpdateDiffPercent_",
          "type": "uint256"
        },
        {
          "internalType": "uint256",
          "name": "minHeartBeat_",
          "type": "uint256"
        }
      ],
      "stateMutability": "nonpayable",
      "type": "constructor"
    },
    {
      "inputs": [
        {
          "internalType": "uint256",
          "name": "errorId_",
          "type": "uint256"
        }
      ],
      "name": "FluidOracleError",
      "type": "error"
    },
    {
      "anonymous": false,
      "inputs": [
        {
          "indexed": false,
          "internalType": "uint256",
          "name": "oldRate",
          "type": "uint256"
        },
        {
          "indexed": false,
          "internalType": "uint256",
          "name": "newRate",
          "type": "uint256"
        }
      ],
      "name": "LogRebalanceRate",
      "type": "event"
    },
    {
      "inputs": [],
      "name": "centerPrice",
      "outputs": [
        {
          "internalType": "uint256",
          "name": "price_",
          "type": "uint256"
        }
      ],
      "stateMutability": "nonpayable",
      "type": "function"
    },
    {
      "inputs": [],
      "name": "configData",
      "outputs": [
        {
          "internalType": "uint256",
          "name": "minUpdateDiffPercent_",
          "type": "uint256"
        },
        {
          "internalType": "uint256",
          "name": "minHeartBeat_",
          "type": "uint256"
        },
        {
          "internalType": "uint40",
          "name": "lastUpdateTime_",
          "type": "uint40"
        },
        {
          "internalType": "address",
          "name": "wsteth_",
          "type": "address"
        }
      ],
      "stateMutability": "view",
      "type": "function"
    },
    {
      "inputs": [],
      "name": "configPercentDiff",
      "outputs": [
        {
          "internalType": "uint256",
          "name": "configPercentDiff_",
          "type": "uint256"
        }
      ],
      "stateMutability": "view",
      "type": "function"
    },
    {
      "inputs": [],
      "name": "getExchangeRate",
      "outputs": [
        {
          "internalType": "uint256",
          "name": "exchangeRate_",
          "type": "uint256"
        }
      ],
      "stateMutability": "view",
      "type": "function"
    },
    {
      "inputs": [],
      "name": "getExchangeRateLiquidate",
      "outputs": [
        {
          "internalType": "uint256",
          "name": "exchangeRate_",
          "type": "uint256"
        }
      ],
      "stateMutability": "view",
      "type": "function"
    },
    {
      "inputs": [],
      "name": "getExchangeRateOperate",
      "outputs": [
        {
          "internalType": "uint256",
          "name": "exchangeRate_",
          "type": "uint256"
        }
      ],
      "stateMutability": "view",
      "type": "function"
    },
    {
      "inputs": [],
      "name": "infoName",
      "outputs": [
        {
          "internalType": "string",
          "name": "",
          "type": "string"
        }
      ],
      "stateMutability": "view",
      "type": "function"
    },
    {
      "inputs": [],
      "name": "rebalance",
      "outputs": [],
      "stateMutability": "nonpayable",
      "type": "function"
    },
    {
      "inputs": [],
      "name": "stEthPerToken",
      "outputs": [
        {
          "internalType": "uint256",
          "name": "",
          "type": "uint256"
        }
      ],
      "stateMutability": "view",
      "type": "function"
    },
    {
      "inputs": [],
      "name": "tokensPerStEth",
      "outputs": [
        {
          "internalType": "uint256",
          "name": "",
          "type": "uint256"
        }
      ],
      "stateMutability": "view",
      "type": "function"
    }
  ],
  "transactionHash": "0xa2467b2771fe55ad3fbb357ee59dbdcdd8e6cb149ef43335c3533da3bb22c14b",
  "args": [
    [
      "wstETH <> stETH exchange rate",
      "0x7f39C581F595B53c5cb19bD0b3f8dA6c935E2Ca0",
      10,
      90000
    ]
  ],
  "numDeployments": 1,
  "linkedData": {
    "nonce": "43"
  },
  "bytecode": "0x6101006040523480156200001257600080fd5b5060405162000d2238038062000d228339810160408190526200003591620001ae565b836020815111806200004657508051155b156200006e5760405163c82fc46560e01b815261ea6a60048201526024015b60405180910390fd5b60200151608052826001600160a01b038116620000a35760405163c82fc46560e01b815261ebbf600482015260240162000065565b821580620000b35750620186a083115b80620000bd575081155b15620000e15760405163c82fc46560e01b815261ebbf600482015260240162000065565b6001600160a01b03841660a081905260c084905260e0839052604080516301afd7c160e11b8152905163035faf82916004808201926020929091908290030181865afa15801562000136573d6000803e3d6000fd5b505050506040513d601f19601f820116820180604052508101906200015c9190620002a6565b6200016c90633b9aca00620002c0565b60005550620002ec9350505050565b634e487b7160e01b600052604160045260246000fd5b80516001600160a01b0381168114620001a957600080fd5b919050565b60008060008060808587031215620001c557600080fd5b84516001600160401b0380821115620001dd57600080fd5b818701915087601f830112620001f257600080fd5b8151818111156200020757620002076200017b565b604051601f8201601f19908116603f011681019083821181831017156200023257620002326200017b565b81604052828152602093508a848487010111156200024f57600080fd5b600091505b8282101562000273578482018401518183018501529083019062000254565b60008484830101528098505050506200028e81880162000191565b60408801516060909801519699909850945050505050565b600060208284031215620002b957600080fd5b5051919050565b8082028115828204841417620002e657634e487b7160e01b600052601160045260246000fd5b92915050565b60805160a05160c05160e0516109d36200034f6000396000818161010a01526104e501526000818160e701526102ca015260008181610152015281816101e1015281816103e70152610521015260008181610666015261072b01526109d36000f3fe608060405234801561001057600080fd5b50600436106100be5760003560e01c80639dc1056611610076578063e6aa216c1161005b578063e6aa216c14610189578063f3190c8914610189578063f763f7a6146101b657600080fd5b80639dc1056614610199578063abd5f95d146101a157600080fd5b80637d7c2a1c116100a75780637d7c2a1c1461017f5780638e7bfbc0146101895780639576a0c81461019157600080fd5b8063035faf82146100c357806320e44e43146100de575b600080fd5b6100cb6101be565b6040519081526020015b60405180910390f35b600154604080517f000000000000000000000000000000000000000000000000000000000000000081527f0000000000000000000000000000000000000000000000000000000000000000602082015264ffffffffff9092169082015273ffffffffffffffffffffffffffffffffffffffff7f00000000000000000000000000000000000000000000000000000000000000001660608201526080016100d5565b6101876101d7565b005b6000546100cb565b6100cb6103ba565b6100cb6103db565b6101a96104cd565b6040516100d591906107b9565b6100cb6104d7565b6000633b9aca006000546101d29190610883565b905090565b60008054905060007f000000000000000000000000000000000000000000000000000000000000000073ffffffffffffffffffffffffffffffffffffffff1663035faf826040518163ffffffff1660e01b8152600401602060405180830381865afa15801561024a573d6000803e3d6000fd5b505050506040513d601f19601f8201168201806040525081019061026e91906108be565b61027c90633b9aca006108d7565b90506000818311156102a65782828403620f4240028161029e5761029e610825565b0490506102c8565b828211156102c85782838303620f424002816102c4576102c4610825565b0490505b7f000000000000000000000000000000000000000000000000000000000000000081101561032a576040517fc82fc46500000000000000000000000000000000000000000000000000000000815261ebc1600482015260240160405180910390fd5b7affffffffffffffffffffffffffffffffffffffffffffffffffffff8216600055600180547fffffffffffffffffffffffffffffffffffffffffffffffffffffff0000000000164264ffffffffff1617905560408051848152602081018490527f95f03a932c8aced8238058ac39deeaf30f8ddcbf42ade5ad3ada32f0d1338a08910160405180910390a1505050565b600080546101d290722cd76fe086b93ce2f768a00b22a00000000000610883565b600080600054905060007f000000000000000000000000000000000000000000000000000000000000000073ffffffffffffffffffffffffffffffffffffffff1663035faf826040518163ffffffff1660e01b8152600401602060405180830381865afa158015610450573d6000803e3d6000fd5b505050506040513d601f19601f8201168201806040525081019061047491906108be565b61048290633b9aca006108d7565b9050808211156104aa5781818303620f424002816104a2576104a2610825565b049250505090565b818111156104c85781828203620f424002816104a2576104a2610825565b505090565b60606101d2610654565b6001546000904290610511907f00000000000000000000000000000000000000000000000000000000000000009064ffffffffff166108f4565b101561064d5760008054905060007f000000000000000000000000000000000000000000000000000000000000000073ffffffffffffffffffffffffffffffffffffffff1663035faf826040518163ffffffff1660e01b8152600401602060405180830381865afa15801561058a573d6000803e3d6000fd5b505050506040513d601f19601f820116820180604052508101906105ae91906108be565b6105bc90633b9aca006108d7565b7affffffffffffffffffffffffffffffffffffffffffffffffffffff8116600055600180547fffffffffffffffffffffffffffffffffffffffffffffffffffffff0000000000164264ffffffffff1617905560408051848152602081018390529192507f95f03a932c8aced8238058ac39deeaf30f8ddcbf42ade5ad3ada32f0d1338a08910160405180910390a150505b5060005490565b606060005b6020811080156106bf57507f0000000000000000000000000000000000000000000000000000000000000000816020811061069657610696610907565b1a60f81b7fff000000000000000000000000000000000000000000000000000000000000001615155b156106d657806106ce81610936565b915050610659565b60008167ffffffffffffffff8111156106f1576106f161096e565b6040519080825280601f01601f19166020018201604052801561071b576020820181803683370190505b50905060005b828110156107b2577f0000000000000000000000000000000000000000000000000000000000000000816020811061075b5761075b610907565b1a60f81b82828151811061077157610771610907565b60200101907effffffffffffffffffffffffffffffffffffffffffffffffffffffffffffff1916908160001a905350806107aa81610936565b915050610721565b5092915050565b600060208083528351808285015260005b818110156107e6578581018301518582016040015282016107ca565b5060006040828601015260407fffffffffffffffffffffffffffffffffffffffffffffffffffffffffffffffe0601f8301168501019250505092915050565b7f4e487b7100000000000000000000000000000000000000000000000000000000600052601260045260246000fd5b7f4e487b7100000000000000000000000000000000000000000000000000000000600052601160045260246000fd5b6000826108b9577f4e487b7100000000000000000000000000000000000000000000000000000000600052601260045260246000fd5b500490565b6000602082840312156108d057600080fd5b5051919050565b80820281158282048414176108ee576108ee610854565b92915050565b808201808211156108ee576108ee610854565b7f4e487b7100000000000000000000000000000000000000000000000000000000600052603260045260246000fd5b60007fffffffffffffffffffffffffffffffffffffffffffffffffffffffffffffffff820361096757610967610854565b5060010190565b7f4e487b7100000000000000000000000000000000000000000000000000000000600052604160045260246000fdfea2646970667358221220d4b4f96e4d492088a35b259e6fb6263f142f7d9548f1072d4715509f86cb381264736f6c63430008150033"
}