{
  "address": "0x99caa9B892AC13A58721171542ebd9F83c5B4386",
  "abi": [
    {
      "inputs": [
        {
          "components": [
            {
              "internalType": "string",
              "name": "infoName",
              "type": "string"
            },
            {
              "internalType": "address",
              "name": "liquidity",
              "type": "address"
            },
            {
              "internalType": "address",
              "name": "rateSource",
              "type": "address"
            },
            {
              "internalType": "uint256",
              "name": "rateMultiplier",
              "type": "uint256"
            },
            {
              "internalType": "bool",
              "name": "invertRate",
              "type": "bool"
            },
            {
              "internalType": "uint256",
              "name": "minUpdateDiffPercent",
              "type": "uint256"
            },
            {
              "internalType": "uint256",
              "name": "minHeartbeat",
              "type": "uint256"
            },
            {
              "internalType": "bool",
              "name": "avoidForcedLiquidationsCol",
              "type": "bool"
            },
            {
              "internalType": "bool",
              "name": "avoidForcedLiquidationsDebt",
              "type": "bool"
            },
            {
              "internalType": "uint256",
              "name": "maxAPRPercent",
              "type": "uint256"
            },
            {
              "internalType": "uint256",
              "name": "maxDownFromMaxReachedPercentCol",
              "type": "uint256"
            },
            {
              "internalType": "uint256",
              "name": "maxDownFromMaxReachedPercentDebt",
              "type": "uint256"
            },
            {
              "internalType": "uint256",
              "name": "maxDebtUpCapPercent",
              "type": "uint256"
            }
          ],
          "internalType": "struct FluidCappedRateBase.CappedRateConstructorParams",
          "name": "params_",
          "type": "tuple"
        }
      ],
      "stateMutability": "nonpayable",
      "type": "constructor"
    },
    {
      "inputs": [
        {
          "internalType": "uint256",
          "name": "errorId_",
          "type": "uint256"
        }
      ],
      "name": "FluidOracleError",
      "type": "error"
    },
    {
      "anonymous": false,
      "inputs": [
        {
          "indexed": false,
          "internalType": "uint256",
          "name": "oldMaxRate",
          "type": "uint256"
        },
        {
          "indexed": false,
          "internalType": "uint256",
          "name": "newMaxRate",
          "type": "uint256"
        }
      ],
      "name": "LogForceResetMaxRate",
      "type": "event"
    },
    {
      "anonymous": false,
      "inputs": [],
      "name": "LogRateBelowMaxReached",
      "type": "event"
    },
    {
      "anonymous": false,
      "inputs": [],
      "name": "LogRateMaxAPRCapped",
      "type": "event"
    },
    {
      "anonymous": false,
      "inputs": [
        {
          "indexed": false,
          "internalType": "uint256",
          "name": "oldRate",
          "type": "uint256"
        },
        {
          "indexed": false,
          "internalType": "uint256",
          "name": "newRate",
          "type": "uint256"
        },
        {
          "indexed": false,
          "internalType": "uint256",
          "name": "oldMaxRate",
          "type": "uint256"
        },
        {
          "indexed": false,
          "internalType": "uint256",
          "name": "newMaxRate",
          "type": "uint256"
        }
      ],
      "name": "LogRebalanceRate",
      "type": "event"
    },
    {
      "anonymous": false,
      "inputs": [
        {
          "indexed": false,
          "internalType": "bool",
          "name": "oldAvoidForcedLiquidations",
          "type": "bool"
        },
        {
          "indexed": false,
          "internalType": "bool",
          "name": "newAvoidForcedLiquidations",
          "type": "bool"
        }
      ],
      "name": "LogUpdateAvoidForcedLiquidationsCol",
      "type": "event"
    },
    {
      "anonymous": false,
      "inputs": [
        {
          "indexed": false,
          "internalType": "bool",
          "name": "oldAvoidForcedLiquidations",
          "type": "bool"
        },
        {
          "indexed": false,
          "internalType": "bool",
          "name": "newAvoidForcedLiquidations",
          "type": "bool"
        }
      ],
      "name": "LogUpdateAvoidForcedLiquidationsDebt",
      "type": "event"
    },
    {
      "anonymous": false,
      "inputs": [
        {
          "indexed": false,
          "internalType": "uint256",
          "name": "oldMaxAPRPercent",
          "type": "uint256"
        },
        {
          "indexed": false,
          "internalType": "uint256",
          "name": "newMaxAPRPercent",
          "type": "uint256"
        }
      ],
      "name": "LogUpdateMaxAPRPercent",
      "type": "event"
    },
    {
      "anonymous": false,
      "inputs": [
        {
          "indexed": false,
          "internalType": "uint256",
          "name": "oldMaxDebtUpCapPercent",
          "type": "uint256"
        },
        {
          "indexed": false,
          "internalType": "uint256",
          "name": "newMaxDebtUpCapPercent",
          "type": "uint256"
        }
      ],
      "name": "LogUpdateMaxDebtUpCapPercent",
      "type": "event"
    },
    {
      "anonymous": false,
      "inputs": [
        {
          "indexed": false,
          "internalType": "uint256",
          "name": "oldMaxDownFromMaxReachedPercent",
          "type": "uint256"
        },
        {
          "indexed": false,
          "internalType": "uint256",
          "name": "newMaxDownFromMaxReachedPercent",
          "type": "uint256"
        }
      ],
      "name": "LogUpdateMaxDownFromMaxReachedPercentCol",
      "type": "event"
    },
    {
      "anonymous": false,
      "inputs": [
        {
          "indexed": false,
          "internalType": "uint256",
          "name": "oldMaxDownFromMaxReachedPercent",
          "type": "uint256"
        },
        {
          "indexed": false,
          "internalType": "uint256",
          "name": "newMaxDownFromMaxReachedPercent",
          "type": "uint256"
        }
      ],
      "name": "LogUpdateMaxDownFromMaxReachedPercentDebt",
      "type": "event"
    },
    {
      "anonymous": false,
      "inputs": [
        {
          "indexed": false,
          "internalType": "uint256",
          "name": "oldMinHeartbeat",
          "type": "uint256"
        },
        {
          "indexed": false,
          "internalType": "uint256",
          "name": "newMinHeartbeat",
          "type": "uint256"
        }
      ],
      "name": "LogUpdateMinHeartbeat",
      "type": "event"
    },
    {
      "anonymous": false,
      "inputs": [
        {
          "indexed": false,
          "internalType": "uint256",
          "name": "oldMinUpdateDiffPercent",
          "type": "uint256"
        },
        {
          "indexed": false,
          "internalType": "uint256",
          "name": "newMinUpdateDiffPercent",
          "type": "uint256"
        }
      ],
      "name": "LogUpdateMinUpdateDiffPercent",
      "type": "event"
    },
    {
      "inputs": [],
      "name": "centerPrice",
      "outputs": [
        {
          "internalType": "uint256",
          "name": "price_",
          "type": "uint256"
        }
      ],
      "stateMutability": "nonpayable",
      "type": "function"
    },
    {
      "inputs": [],
      "name": "configData",
      "outputs": [
        {
          "internalType": "address",
          "name": "liquidity_",
          "type": "address"
        },
        {
          "internalType": "uint16",
          "name": "minUpdateDiffPercent_",
          "type": "uint16"
        },
        {
          "internalType": "uint24",
          "name": "minHeartbeat_",
          "type": "uint24"
        },
        {
          "internalType": "uint40",
          "name": "lastUpdateTime_",
          "type": "uint40"
        },
        {
          "internalType": "address",
          "name": "rateSource_",
          "type": "address"
        },
        {
          "internalType": "bool",
          "name": "invertRate_",
          "type": "bool"
        },
        {
          "internalType": "bool",
          "name": "avoidForcedLiquidationsCol_",
          "type": "bool"
        },
        {
          "internalType": "bool",
          "name": "avoidForcedLiquidationsDebt_",
          "type": "bool"
        },
        {
          "internalType": "uint256",
          "name": "maxAPRPercent_",
          "type": "uint256"
        },
        {
          "internalType": "uint24",
          "name": "maxDownFromMaxReachedPercentCol_",
          "type": "uint24"
        },
        {
          "internalType": "uint24",
          "name": "maxDownFromMaxReachedPercentDebt_",
          "type": "uint24"
        },
        {
          "internalType": "uint256",
          "name": "maxDebtUpCapPercent_",
          "type": "uint256"
        }
      ],
      "stateMutability": "view",
      "type": "function"
    },
    {
      "inputs": [],
      "name": "configPercentDiff",
      "outputs": [
        {
          "internalType": "uint256",
          "name": "configPercentDiff_",
          "type": "uint256"
        }
      ],
      "stateMutability": "view",
      "type": "function"
    },
    {
      "inputs": [
        {
          "internalType": "uint256",
          "name": "shares",
          "type": "uint256"
        }
      ],
      "name": "convertToAssets",
      "outputs": [
        {
          "internalType": "uint256",
          "name": "assets",
          "type": "uint256"
        }
      ],
      "stateMutability": "view",
      "type": "function"
    },
    {
      "inputs": [
        {
          "internalType": "uint256",
          "name": "assets",
          "type": "uint256"
        }
      ],
      "name": "convertToShares",
      "outputs": [
        {
          "internalType": "uint256",
          "name": "shares",
          "type": "uint256"
        }
      ],
      "stateMutability": "view",
      "type": "function"
    },
    {
      "inputs": [],
      "name": "forceResetMaxRate",
      "outputs": [],
      "stateMutability": "nonpayable",
      "type": "function"
    },
    {
      "inputs": [],
      "name": "getExchangeRate",
      "outputs": [
        {
          "internalType": "uint256",
          "name": "exchangeRate_",
          "type": "uint256"
        }
      ],
      "stateMutability": "view",
      "type": "function"
    },
    {
      "inputs": [],
      "name": "getExchangeRateLiquidate",
      "outputs": [
        {
          "internalType": "uint256",
          "name": "exchangeRate_",
          "type": "uint256"
        }
      ],
      "stateMutability": "view",
      "type": "function"
    },
    {
      "inputs": [],
      "name": "getExchangeRateLiquidateDebt",
      "outputs": [
        {
          "internalType": "uint256",
          "name": "exchangeRate_",
          "type": "uint256"
        }
      ],
      "stateMutability": "view",
      "type": "function"
    },
    {
      "inputs": [],
      "name": "getExchangeRateOperate",
      "outputs": [
        {
          "internalType": "uint256",
          "name": "exchangeRate_",
          "type": "uint256"
        }
      ],
      "stateMutability": "view",
      "type": "function"
    },
    {
      "inputs": [],
      "name": "getExchangeRateOperateDebt",
      "outputs": [
        {
          "internalType": "uint256",
          "name": "exchangeRate_",
          "type": "uint256"
        }
      ],
      "stateMutability": "view",
      "type": "function"
    },
    {
      "inputs": [],
      "name": "getRatesAndCaps",
      "outputs": [
        {
          "internalType": "uint256",
          "name": "rate_",
          "type": "uint256"
        },
        {
          "internalType": "uint256",
          "name": "maxReachedRate_",
          "type": "uint256"
        },
        {
          "internalType": "uint256",
          "name": "maxUpCappedRateDebt_",
          "type": "uint256"
        },
        {
          "internalType": "bool",
          "name": "isRateBelowMaxReached_",
          "type": "bool"
        },
        {
          "internalType": "bool",
          "name": "isUpMaxAPRCapped_",
          "type": "bool"
        },
        {
          "internalType": "uint256",
          "name": "downCappedRateCol_",
          "type": "uint256"
        },
        {
          "internalType": "uint256",
          "name": "downCappedRateDebt_",
          "type": "uint256"
        },
        {
          "internalType": "bool",
          "name": "isDownCappedCol_",
          "type": "bool"
        },
        {
          "internalType": "bool",
          "name": "isDownCappedDebt_",
          "type": "bool"
        },
        {
          "internalType": "bool",
          "name": "isUpCapped_",
          "type": "bool"
        }
      ],
      "stateMutability": "view",
      "type": "function"
    },
    {
      "inputs": [],
      "name": "infoName",
      "outputs": [
        {
          "internalType": "string",
          "name": "",
          "type": "string"
        }
      ],
      "stateMutability": "view",
      "type": "function"
    },
    {
      "inputs": [],
      "name": "isHeartbeatTrigger",
      "outputs": [
        {
          "internalType": "bool",
          "name": "",
          "type": "bool"
        }
      ],
      "stateMutability": "view",
      "type": "function"
    },
    {
      "inputs": [],
      "name": "rebalance",
      "outputs": [],
      "stateMutability": "nonpayable",
      "type": "function"
    },
    {
      "inputs": [],
      "name": "targetDecimals",
      "outputs": [
        {
          "internalType": "uint8",
          "name": "",
          "type": "uint8"
        }
      ],
      "stateMutability": "pure",
      "type": "function"
    },
    {
      "inputs": [
        {
          "internalType": "bool",
          "name": "avoid_",
          "type": "bool"
        }
      ],
      "name": "updateAvoidForcedLiquidationsCol",
      "outputs": [],
      "stateMutability": "nonpayable",
      "type": "function"
    },
    {
      "inputs": [
        {
          "internalType": "bool",
          "name": "avoid_",
          "type": "bool"
        }
      ],
      "name": "updateAvoidForcedLiquidationsDebt",
      "outputs": [],
      "stateMutability": "nonpayable",
      "type": "function"
    },
    {
      "inputs": [
        {
          "internalType": "uint256",
          "name": "newMaxAPRPercent_",
          "type": "uint256"
        }
      ],
      "name": "updateMaxAPRPercent",
      "outputs": [],
      "stateMutability": "nonpayable",
      "type": "function"
    },
    {
      "inputs": [
        {
          "internalType": "uint256",
          "name": "newMaxDebtUpCapPercent_",
          "type": "uint256"
        }
      ],
      "name": "updateMaxDebtUpCapPercent",
      "outputs": [],
      "stateMutability": "nonpayable",
      "type": "function"
    },
    {
      "inputs": [
        {
          "internalType": "uint256",
          "name": "newMaxDownFromMaxReachedPercent_",
          "type": "uint256"
        }
      ],
      "name": "updateMaxDownFromMaxReachedPercentCol",
      "outputs": [],
      "stateMutability": "nonpayable",
      "type": "function"
    },
    {
      "inputs": [
        {
          "internalType": "uint256",
          "name": "newMaxDownFromMaxReachedPercent_",
          "type": "uint256"
        }
      ],
      "name": "updateMaxDownFromMaxReachedPercentDebt",
      "outputs": [],
      "stateMutability": "nonpayable",
      "type": "function"
    },
    {
      "inputs": [
        {
          "internalType": "uint256",
          "name": "newMinHeartbeat_",
          "type": "uint256"
        }
      ],
      "name": "updateMinHeartbeat",
      "outputs": [],
      "stateMutability": "nonpayable",
      "type": "function"
    },
    {
      "inputs": [
        {
          "internalType": "uint256",
          "name": "newMinUpdateDiffPercent_",
          "type": "uint256"
        }
      ],
      "name": "updateMinUpdateDiffPercent",
      "outputs": [],
      "stateMutability": "nonpayable",
      "type": "function"
    }
  ],
  "transactionHash": "0x075e65d64cac89c8d96e2e110ec5895e44419335f7df1d2e6bd2e8b45f78bebc",
  "args": [
    [
      {
        "infoName": "USR per 1 WSTUSR",
        "rateSource": "0x1202F5C7b4B9E47a1A484E8B270be34dbbC75055",
        "rateMultiplier": 1,
        "maxAPRPercent": 900000,
        "maxDownFromMaxReachedPercentDebt": 50000,
        "invertRate": false,
        "minUpdateDiffPercent": 10,
        "minHeartbeat": 90000,
        "avoidForcedLiquidationsCol": false,
        "maxDownFromMaxReachedPercentCol": 0,
        "avoidForcedLiquidationsDebt": false,
        "maxDebtUpCapPercent": 0,
        "liquidity": "0x52Aa899454998Be5b000Ad077a46Bbe360F4e497"
      }
    ]
  ],
  "numDeployments": 1,
  "linkedData": {
    "nonce": "125"
  },
  "bytecode": "0x6101206040523480156200001257600080fd5b5060405162004a6038038062004a60833981016040819052620000359162000576565b8051602082015182919082906001600160a01b038116620000725760405163c82fc46560e01b815261ebbf60048201526024015b60405180910390fd5b60408201516001600160a01b038116620000a45760405163c82fc46560e01b815261ebbf600482015260240162000069565b60608301511580620000c25750683635c9adc5dea000008360600151115b80620000d0575060a0830151155b80620000e1575060a083015161ffff105b80620000ef575060c0830151155b8062000101575060c083015162ffffff105b80620001145750620f4240836101400151115b80620001275750620f4240836101600151115b806200014657506200013e606462ffffff6200069b565b836101200151115b806200016457506200015c606461ffff6200069b565b836101800151115b15620001885760405163c82fc46560e01b815261ebbf600482015260240162000069565b60208301516001600160a01b039081166080908152604085015190911660a052606084015160e081905290840151151560c052620001c5620003c5565b620001d191906200069b565b6000805460a086015160c08701516001600160a81b03949094166001600160d01b031990921691909117600160a81b4264ffffffffff1602176001600160d81b0316600160f01b61ffff9092169190910262ffffff60d81b191617600160d81b62ffffff909316929092029190911790556101008301516200025557600062000258565b60085b8360e001516200026a5760006200026d565b60045b6000805460ff9390921792909216600160d01b0260ff60d01b19909116179055610120830151620002a190606490620006c7565b6001805461014086015161016087015165ffffffffffff60a81b19909216600160a81b62ffffff9586160262ffffff60c01b191617600160c01b918516919091021762ffffff60d81b1916600160d81b93909116929092029190911790556101808301516200031390606490620006c7565b600180546000546001600160a81b031961ffff94909416600160f01b0293909316600160a81b600160f01b03909116176001600160a81b03909216919091179055505081516020109050806200036857508051155b156200038c5760405163c82fc46560e01b815261ea6a600482015260240162000069565b60200151610100525060e051600114620003be5760405163c82fc46560e01b815261ebbf600482015260240162000069565b5062000704565b60a0516040516303d1689d60e11b81526b033b2e3c9fd0803ce800000060048201526000916001600160a01b0316906307a2d13a90602401602060405180830381865afa1580156200041b573d6000803e3d6000fd5b505050506040513d601f19601f82011682018060405250810190620004419190620006ea565b905090565b634e487b7160e01b600052604160045260246000fd5b6040516101a081016001600160401b038111828210171562000482576200048262000446565b60405290565b604051601f8201601f191681016001600160401b0381118282101715620004b357620004b362000446565b604052919050565b600082601f830112620004cd57600080fd5b81516001600160401b03811115620004e957620004e962000446565b6020620004ff601f8301601f1916820162000488565b82815285828487010111156200051457600080fd5b60005b838110156200053457858101830151828201840152820162000517565b506000928101909101919091529392505050565b80516001600160a01b03811681146200056057600080fd5b919050565b805180151581146200056057600080fd5b6000602082840312156200058957600080fd5b81516001600160401b0380821115620005a157600080fd5b908301906101a08286031215620005b757600080fd5b620005c16200045c565b825182811115620005d157600080fd5b620005df87828601620004bb565b825250620005f06020840162000548565b6020820152620006036040840162000548565b604082015260608301516060820152620006206080840162000565565b608082015260a083015160a082015260c083015160c08201526200064760e0840162000565565b60e082015261010091506200065e82840162000565565b9181019190915261012082810151908201526101408083015190820152610160808301519082015261018091820151918101919091529392505050565b8082028115828204841417620006c157634e487b7160e01b600052601160045260246000fd5b92915050565b600082620006e557634e487b7160e01b600052601260045260246000fd5b500490565b600060208284031215620006fd57600080fd5b5051919050565b60805160a05160c05160e05161010051614292620007ce60003960008181613d3b0152613e000152600061366e015260008181610efa0152613713015260008181610ed90152613ecb015260008181610ea901528181610ff3015281816110e5015281816112e4015281816113d6015281816115c6015281816116b8015281816118f7015281816119e9015281816120ac0152818161219e015281816126ab015281816128ab01528181612c9001528181612d82015281816133da01526134cc01526142926000f3fe608060405234801561001057600080fd5b50600436106101985760003560e01c80639dc10566116100e3578063dd7a29f21161008c578063f3190c8911610066578063f3190c8914610410578063f763f7a614610418578063fe51171d1461042057600080fd5b8063dd7a29f2146103ed578063e6aa216c14610400578063f14fe7641461040857600080fd5b8063b20faf9d116100bd578063b20faf9d1461036f578063c6e6f592146103c7578063d1e482f3146103da57600080fd5b80639dc105661461033f578063a000106914610347578063abd5f95d1461035a57600080fd5b806371dbff561161014557806379557e681161011f57806379557e68146102505780637d7c2a1c1461032f5780638e7bfbc01461033757600080fd5b806371dbff561461021757806373e98a681461022a578063767ceebb1461023d57600080fd5b806320e44e431161017657806320e44e43146101d357806336c1387e146101f3578063691e581a1461020257600080fd5b8063046646241461019d57806307a2d13a146101b857806313d368a7146101cb575b600080fd5b6101a5610433565b6040519081526020015b60405180910390f35b6101a56101c6366004613f96565b6108f5565b6101a5610936565b6101db610cb0565b6040516101af9c9b9a99989796959493929190613faf565b604051601b81526020016101af565b610215610210366004614049565b610f98565b005b610215610225366004614049565b611289565b610215610238366004613f96565b61156b565b61021561024b366004613f96565b61189c565b6040805160a08101825260005474ffffffffffffffffffffffffffffffffffffffffff811682527501000000000000000000000000000000000000000000810464ffffffffff1660208084018290527a010000000000000000000000000000000000000000000000000000830460ff16848601527b01000000000000000000000000000000000000000000000000000000830462ffffff16606085018190527e0100000000000000000000000000000000000000000000000000000000000090930461ffff1660809094019390935292514291909301108252016101af565b610215611b85565b6101a5611c66565b6101a5611e96565b610215610355366004613f96565b612051565b610362612375565b6040516101af919061406b565b61037761237f565b604080519a8b5260208b0199909952978901969096529315156060880152911515608087015260a086015260c0850152151560e084015215156101008301521515610120820152610140016101af565b6101a56103d5366004613f96565b612612565b6102156103e8366004613f96565b612646565b6102156103fb366004613f96565b612846565b6101a5612a3f565b610215612c35565b6101a5612edd565b6101a5613299565b61021561042e366004613f96565b61337f565b6040805160a080820183526000805474ffffffffffffffffffffffffffffffffffffffffff811684527501000000000000000000000000000000000000000000810464ffffffffff166020808601919091527a010000000000000000000000000000000000000000000000000000820460ff16858701527b01000000000000000000000000000000000000000000000000000000820462ffffff166060808701919091527e0100000000000000000000000000000000000000000000000000000000000090920461ffff16608080870191909152865194850187528385529084018390529483018290528201819052928101839052600080600061055385600042826060015162ffffff16836020015164ffffffffff1601109050919050565b15610649576040805160a08101825260015474ffffffffffffffffffffffffffffffffffffffffff81168083527501000000000000000000000000000000000000000000820462ffffff9081166020808601829052780100000000000000000000000000000000000000000000000085048316968601969096527b01000000000000000000000000000000000000000000000000000000840490911660608501527e0100000000000000000000000000000000000000000000000000000000000090920461ffff16608084015292880151919650610639929164ffffffffff1690613666565b929850909450909250905061067b565b50508251604084015174ffffffffffffffffffffffffffffffffffffffffff9091169450600181811614906002908116145b80801561068f575060408501516008908116145b156107c25782600003610765576040805160a08101825260015474ffffffffffffffffffffffffffffffffffffffffff811680835262ffffff7501000000000000000000000000000000000000000000830481166020850152780100000000000000000000000000000000000000000000000083048116948401949094527b010000000000000000000000000000000000000000000000000000008204909316606083015261ffff7e01000000000000000000000000000000000000000000000000000000000000909104166080820152945092505b620f42406064856080015161ffff1661077e9190614106565b61078b90620f424061411d565b6107959085614106565b61079f919061415f565b92506107b88387116107b157866136ff565b835b6136ff565b9550505050505090565b816107d0576107b8866136ff565b835174ffffffffffffffffffffffffffffffffffffffffff166000036108b7576040805160a08101825260015474ffffffffffffffffffffffffffffffffffffffffff811682527501000000000000000000000000000000000000000000810462ffffff9081166020840152780100000000000000000000000000000000000000000000000082048116938301939093527b01000000000000000000000000000000000000000000000000000000810490921660608201527e0100000000000000000000000000000000000000000000000000000000000090910461ffff16608082015293505b6107b86107b387600086116108e457865174ffffffffffffffffffffffffffffffffffffffffff166108e6565b855b876060015162ffffff16613769565b6000805474ffffffffffffffffffffffffffffffffffffffffff16610926836b033b2e3c9fd0803ce8000000614106565b610930919061415f565b92915050565b6040805160a080820183526000805474ffffffffffffffffffffffffffffffffffffffffff811684527501000000000000000000000000000000000000000000810464ffffffffff166020808601919091527a010000000000000000000000000000000000000000000000000000820460ff16858701527b01000000000000000000000000000000000000000000000000000000820462ffffff166060808701919091527e0100000000000000000000000000000000000000000000000000000000000090920461ffff16608080870191909152865194850187528385529084018390529483018290528201819052928101839052600080610a5484600042826060015162ffffff16836020015164ffffffffff1601109050919050565b15610b4a576040805160a08101825260015474ffffffffffffffffffffffffffffffffffffffffff81168083527501000000000000000000000000000000000000000000820462ffffff9081166020808601829052780100000000000000000000000000000000000000000000000085048316968601969096527b01000000000000000000000000000000000000000000000000000000840490911660608501527e0100000000000000000000000000000000000000000000000000000000000090920461ffff16608084015292870151919550610b3a929164ffffffffff1690613666565b929750909350909150610b749050565b508251604084015174ffffffffffffffffffffffffffffffffffffffffff90911694506001908116145b80610b8b57610b82856136ff565b94505050505090565b825174ffffffffffffffffffffffffffffffffffffffffff16600003610c72576040805160a08101825260015474ffffffffffffffffffffffffffffffffffffffffff811682527501000000000000000000000000000000000000000000810462ffffff9081166020840152780100000000000000000000000000000000000000000000000082048116938301939093527b01000000000000000000000000000000000000000000000000000000810490921660608201527e0100000000000000000000000000000000000000000000000000000000000090910461ffff16608082015292505b610b826107b38660008511610c9f57855174ffffffffffffffffffffffffffffffffffffffffff16610ca1565b845b866060015162ffffff16613769565b6000806000806000806000806000806000806000806040518060a00160405290816000820160009054906101000a900474ffffffffffffffffffffffffffffffffffffffffff1674ffffffffffffffffffffffffffffffffffffffffff1674ffffffffffffffffffffffffffffffffffffffffff1681526020016000820160159054906101000a900464ffffffffff1664ffffffffff1664ffffffffff16815260200160008201601a9054906101000a900460ff1660ff1660ff16815260200160008201601b9054906101000a900462ffffff1662ffffff1662ffffff16815260200160008201601e9054906101000a900461ffff1661ffff1661ffff16815250509050600060016040518060a00160405290816000820160009054906101000a900474ffffffffffffffffffffffffffffffffffffffffff1674ffffffffffffffffffffffffffffffffffffffffff1674ffffffffffffffffffffffffffffffffffffffffff1681526020016000820160159054906101000a900462ffffff1662ffffff1662ffffff1681526020016000820160189054906101000a900462ffffff1662ffffff1662ffffff16815260200160008201601b9054906101000a900462ffffff1662ffffff1662ffffff16815260200160008201601e9054906101000a900461ffff1661ffff1661ffff168152505090507f00000000000000000000000000000000000000000000000000000000000000008260800151836060015184602001517f00000000000000000000000000000000000000000000000000000000000000007f0000000000000000000000000000000000000000000000000000000000000000600460ff16600489604001511660ff1614600860ff1660088a604001511660ff16146064896020015162ffffff16610f519190614106565b89604001518a6060015160648c6080015161ffff16610f709190614106565b9d509d509d509d509d509d509d509d509d509d509d509d505050909192939495969798999a9b565b6040805133602080830191909152600382840152825180830384018152606083019384905280519101207fb5c736e40000000000000000000000000000000000000000000000000000000090925260648101919091526000907f000000000000000000000000000000000000000000000000000000000000000073ffffffffffffffffffffffffffffffffffffffff169063b5c736e490608401602060405180830381865afa15801561104f573d6000803e3d6000fd5b505050506040513d601f19601f82011682018060405250810190611073919061419a565b6040517fb5c736e40000000000000000000000000000000000000000000000000000000081527fb53127684a568b3173ae13b9f8a6016e243e63b6e8ee1178d6a717850b5d6103600482015260019182169091149150600090339073ffffffffffffffffffffffffffffffffffffffff7f0000000000000000000000000000000000000000000000000000000000000000169063b5c736e490602401602060405180830381865afa15801561112c573d6000803e3d6000fd5b505050506040513d601f19601f82011682018060405250810190611150919061419a565b73ffffffffffffffffffffffffffffffffffffffff1614905081158015611175575080155b156111b5576040517fc82fc46500000000000000000000000000000000000000000000000000000000815261ebc060048201526024015b60405180910390fd5b6000547a0100000000000000000000000000000000000000000000000000009004600890811614836111e85760006111eb565b60085b600080547fffffffffff00ffffffffffffffffffffffffffffffffffffffffffffffffffff81167a0100000000000000000000000000000000000000000000000000009182900460f71660ff94909416939093170291909117905560408051821515815285151560208201527ff26e4209c91ee7e9b517c3dd9c5aac7081ac9f14a3c501969bfc3e7ff133adf891015b60405180910390a150505050565b6040805133602080830191909152600382840152825180830384018152606083019384905280519101207fb5c736e40000000000000000000000000000000000000000000000000000000090925260648101919091526000907f000000000000000000000000000000000000000000000000000000000000000073ffffffffffffffffffffffffffffffffffffffff169063b5c736e490608401602060405180830381865afa158015611340573d6000803e3d6000fd5b505050506040513d601f19601f82011682018060405250810190611364919061419a565b6040517fb5c736e40000000000000000000000000000000000000000000000000000000081527fb53127684a568b3173ae13b9f8a6016e243e63b6e8ee1178d6a717850b5d6103600482015260019182169091149150600090339073ffffffffffffffffffffffffffffffffffffffff7f0000000000000000000000000000000000000000000000000000000000000000169063b5c736e490602401602060405180830381865afa15801561141d573d6000803e3d6000fd5b505050506040513d601f19601f82011682018060405250810190611441919061419a565b73ffffffffffffffffffffffffffffffffffffffff1614905081158015611466575080155b156114a1576040517fc82fc46500000000000000000000000000000000000000000000000000000000815261ebc060048201526024016111ac565b6000547a0100000000000000000000000000000000000000000000000000009004600490811614836114d45760006114d7565b60045b600080547fffffffffff00ffffffffffffffffffffffffffffffffffffffffffffffffffff81167a0100000000000000000000000000000000000000000000000000009182900460fb1660ff94909416939093170291909117905560408051821515815285151560208201527f85a585c4b90f71caba3c97aa85dfa2b36993024b9e1900e505364f47bbcff8ec910161127b565b6040805133602080830191909152600382840152825180830384018152606083019384905280519101207fb5c736e40000000000000000000000000000000000000000000000000000000090925260648101919091526000907f000000000000000000000000000000000000000000000000000000000000000073ffffffffffffffffffffffffffffffffffffffff169063b5c736e490608401602060405180830381865afa158015611622573d6000803e3d6000fd5b505050506040513d601f19601f82011682018060405250810190611646919061419a565b6040517fb5c736e40000000000000000000000000000000000000000000000000000000081527fb53127684a568b3173ae13b9f8a6016e243e63b6e8ee1178d6a717850b5d6103600482015260019182169091149150600090339073ffffffffffffffffffffffffffffffffffffffff7f0000000000000000000000000000000000000000000000000000000000000000169063b5c736e490602401602060405180830381865afa1580156116ff573d6000803e3d6000fd5b505050506040513d601f19601f82011682018060405250810190611723919061419a565b73ffffffffffffffffffffffffffffffffffffffff1614905081158015611748575080155b15611783576040517fc82fc46500000000000000000000000000000000000000000000000000000000815261ebc060048201526024016111ac565b611790606461ffff614106565b8311156117cd576040517fc82fc46500000000000000000000000000000000000000000000000000000000815261ebbf60048201526024016111ac565b600154600090611805906064907e01000000000000000000000000000000000000000000000000000000000000900461ffff16614106565b905061181260648561415f565b6001805461ffff929092167e01000000000000000000000000000000000000000000000000000000000000027dffffffffffffffffffffffffffffffffffffffffffffffffffffffffffff90921691909117905560408051828152602081018690527fde99abbfc304a53cbdfa0db8c0fa93869f92defdfb9926c7c346c1fcb18cf049910161127b565b6040805133602080830191909152600382840152825180830384018152606083019384905280519101207fb5c736e40000000000000000000000000000000000000000000000000000000090925260648101919091526000907f000000000000000000000000000000000000000000000000000000000000000073ffffffffffffffffffffffffffffffffffffffff169063b5c736e490608401602060405180830381865afa158015611953573d6000803e3d6000fd5b505050506040513d601f19601f82011682018060405250810190611977919061419a565b6040517fb5c736e40000000000000000000000000000000000000000000000000000000081527fb53127684a568b3173ae13b9f8a6016e243e63b6e8ee1178d6a717850b5d6103600482015260019182169091149150600090339073ffffffffffffffffffffffffffffffffffffffff7f0000000000000000000000000000000000000000000000000000000000000000169063b5c736e490602401602060405180830381865afa158015611a30573d6000803e3d6000fd5b505050506040513d601f19601f82011682018060405250810190611a54919061419a565b73ffffffffffffffffffffffffffffffffffffffff1614905081158015611a79575080155b15611ab4576040517fc82fc46500000000000000000000000000000000000000000000000000000000815261ebc060048201526024016111ac565b620f4240831115611af5576040517fc82fc46500000000000000000000000000000000000000000000000000000000815261ebbf60048201526024016111ac565b6001805462ffffff85811678010000000000000000000000000000000000000000000000009081027fffffffffff000000ffffffffffffffffffffffffffffffffffffffffffffffff84161790935560408051939092041680835260208301869052917ff228de6bd894d485e2abff17a7e1801febe7c7d377cbc09ea6b105afdec3e697910161127b565b905090565b6040805160a08101825260005474ffffffffffffffffffffffffffffffffffffffffff811682527501000000000000000000000000000000000000000000810464ffffffffff16602083018190527a010000000000000000000000000000000000000000000000000000820460ff16938301939093527b01000000000000000000000000000000000000000000000000000000810462ffffff16606083018190527e0100000000000000000000000000000000000000000000000000000000000090910461ffff16608090920191909152611c639142910110613785565b50565b6040805160a0810182526000805474ffffffffffffffffffffffffffffffffffffffffff811683527501000000000000000000000000000000000000000000810464ffffffffff16602084018190527a010000000000000000000000000000000000000000000000000000820460ff16948401949094527b01000000000000000000000000000000000000000000000000000000810462ffffff16606084018190527e0100000000000000000000000000000000000000000000000000000000000090910461ffff16608084015290924291011015611e40576040805160a08101825260015474ffffffffffffffffffffffffffffffffffffffffff81168083527501000000000000000000000000000000000000000000820462ffffff9081166020808601829052780100000000000000000000000000000000000000000000000085048316968601969096527b01000000000000000000000000000000000000000000000000000000840490911660608501527e0100000000000000000000000000000000000000000000000000000000000090920461ffff1660808401529284015191926000928392611e24929164ffffffffff1690613666565b5091965092509050610b8281611e3a57856136ff565b826136ff565b6040810151611e9090600290811614611e7157815174ffffffffffffffffffffffffffffffffffffffffff166136ff565b60015474ffffffffffffffffffffffffffffffffffffffffff166136ff565b91505090565b6040805160a080820183526000805474ffffffffffffffffffffffffffffffffffffffffff808216855264ffffffffff75010000000000000000000000000000000000000000008084048216602080890191825260ff7a010000000000000000000000000000000000000000000000000000870416898b015262ffffff7b0100000000000000000000000000000000000000000000000000000080880482166060808d019190915261ffff7e01000000000000000000000000000000000000000000000000000000000000998a900481166080808f01919091528e519c8d018f52600154998a16808e52978a048516958d0186905278010000000000000000000000000000000000000000000000008a0485169e8d019e909e52918804909216918a019190915295909404909416978601979097529151929586938493611fdf93911690613666565b505091509150600061200c856000015174ffffffffffffffffffffffffffffffffffffffffff1684613cdb565b90506000612035856000015174ffffffffffffffffffffffffffffffffffffffffff1684613cdb565b90508082116120445780612046565b815b965050505050505090565b6040805133602080830191909152600382840152825180830384018152606083019384905280519101207fb5c736e40000000000000000000000000000000000000000000000000000000090925260648101919091526000907f000000000000000000000000000000000000000000000000000000000000000073ffffffffffffffffffffffffffffffffffffffff169063b5c736e490608401602060405180830381865afa158015612108573d6000803e3d6000fd5b505050506040513d601f19601f8201168201806040525081019061212c919061419a565b6040517fb5c736e40000000000000000000000000000000000000000000000000000000081527fb53127684a568b3173ae13b9f8a6016e243e63b6e8ee1178d6a717850b5d6103600482015260019182169091149150600090339073ffffffffffffffffffffffffffffffffffffffff7f0000000000000000000000000000000000000000000000000000000000000000169063b5c736e490602401602060405180830381865afa1580156121e5573d6000803e3d6000fd5b505050506040513d601f19601f82011682018060405250810190612209919061419a565b73ffffffffffffffffffffffffffffffffffffffff161490508115801561222e575080155b15612269576040517fc82fc46500000000000000000000000000000000000000000000000000000000815261ebc060048201526024016111ac565b612277606462ffffff614106565b8311156122b4576040517fc82fc46500000000000000000000000000000000000000000000000000000000815261ebbf60048201526024016111ac565b6001546000906122e4906064907501000000000000000000000000000000000000000000900462ffffff16614106565b90506122f160648561415f565b6001805462ffffff929092167501000000000000000000000000000000000000000000027fffffffffffffffff000000ffffffffffffffffffffffffffffffffffffffffff90921691909117905560408051828152602081018690527f5a860511811f4b9bff28b459bb3b23dd57c9b6708cfd9d94ba1420bef5dc4cf9910161127b565b6060611b80613d29565b6040805160a080820183526000805474ffffffffffffffffffffffffffffffffffffffffff808216855264ffffffffff75010000000000000000000000000000000000000000008084049190911660208088019190915260ff7a0100000000000000000000000000000000000000000000000000008504168789015262ffffff7b0100000000000000000000000000000000000000000000000000000080860482166060808b019190915261ffff7e010000000000000000000000000000000000000000000000000000000000009788900481166080808d01919091528c519a8b018d526001549788168b529587048416948a01949094527801000000000000000000000000000000000000000000000000860483169a89019a909a528404169786019790975291900490941693820193909352829182918291829182918291829182918291906124ec82600042826060015162ffffff16836020015164ffffffffff1601109050919050565b1561253b5761252b816000015174ffffffffffffffffffffffffffffffffffffffffff16836020015164ffffffffff16836020015162ffffff16613666565b929e50909c509099509750612574565b81518151604084015174ffffffffffffffffffffffffffffffffffffffffff9283169e5091169b50600181811614995060029081161497505b61258960008c836040015162ffffff16613769565b96506125a060008c836060015162ffffff16613769565b9550620f42406064826080015161ffff166125bb9190614106565b6125c890620f424061411d565b6125d2908d614106565b6125dc919061415f565b99508a8c1180156125ec5750898c105b156125f5578b99505b868c109450858c1093508a8c119250505090919293949596979899565b600080546b033b2e3c9fd0803ce80000009061092690849074ffffffffffffffffffffffffffffffffffffffffff16614106565b6040517fb5c736e40000000000000000000000000000000000000000000000000000000081527fb53127684a568b3173ae13b9f8a6016e243e63b6e8ee1178d6a717850b5d61036004820152339073ffffffffffffffffffffffffffffffffffffffff7f0000000000000000000000000000000000000000000000000000000000000000169063b5c736e490602401602060405180830381865afa1580156126f2573d6000803e3d6000fd5b505050506040513d601f19601f82011682018060405250810190612716919061419a565b73ffffffffffffffffffffffffffffffffffffffff1614612767576040517fc82fc46500000000000000000000000000000000000000000000000000000000815261ebc060048201526024016111ac565b61ffff811180612775575080155b156127b0576040517fc82fc46500000000000000000000000000000000000000000000000000000000815261ebbf60048201526024016111ac565b6000805461ffff8381167e010000000000000000000000000000000000000000000000000000000000009081027dffffffffffffffffffffffffffffffffffffffffffffffffffffffffffff84161790935560408051939092041680835260208301849052917f0d85068d514b7dcaffeac0819f83d2c909ca9f783d39b2c9e7e717c446b4ce6791015b60405180910390a15050565b6040517fb5c736e40000000000000000000000000000000000000000000000000000000081527fb53127684a568b3173ae13b9f8a6016e243e63b6e8ee1178d6a717850b5d61036004820152339073ffffffffffffffffffffffffffffffffffffffff7f0000000000000000000000000000000000000000000000000000000000000000169063b5c736e490602401602060405180830381865afa1580156128f2573d6000803e3d6000fd5b505050506040513d601f19601f82011682018060405250810190612916919061419a565b73ffffffffffffffffffffffffffffffffffffffff1614612967576040517fc82fc46500000000000000000000000000000000000000000000000000000000815261ebc060048201526024016111ac565b62ffffff811180612976575080155b156129b1576040517fc82fc46500000000000000000000000000000000000000000000000000000000815261ebbf60048201526024016111ac565b6000805462ffffff8381167b010000000000000000000000000000000000000000000000000000009081027fffff000000ffffffffffffffffffffffffffffffffffffffffffffffffffffff84161790935560408051939092041680835260208301849052917fe20dfd2ce7e052628278a16997f363cfa124066a6e4f5e60162f1ece7d597980910161283a565b6040805160a0810182526000805474ffffffffffffffffffffffffffffffffffffffffff811683527501000000000000000000000000000000000000000000810464ffffffffff16602084018190527a010000000000000000000000000000000000000000000000000000820460ff16948401949094527b01000000000000000000000000000000000000000000000000000000810462ffffff16606084018190527e0100000000000000000000000000000000000000000000000000000000000090910461ffff16608084015290924291011015612c13576040805160a08101825260015474ffffffffffffffffffffffffffffffffffffffffff81168083527501000000000000000000000000000000000000000000820462ffffff9081166020808601829052780100000000000000000000000000000000000000000000000085048316968601969096527b01000000000000000000000000000000000000000000000000000000840490911660608501527e0100000000000000000000000000000000000000000000000000000000000090920461ffff166080840152928401519192612bfb92909164ffffffffff90911690613666565b50919450612c0c91508490506136ff565b9250505090565b8051611e909074ffffffffffffffffffffffffffffffffffffffffff166136ff565b6040805133602080830191909152600382840152825180830384018152606083019384905280519101207fb5c736e40000000000000000000000000000000000000000000000000000000090925260648101919091526000907f000000000000000000000000000000000000000000000000000000000000000073ffffffffffffffffffffffffffffffffffffffff169063b5c736e490608401602060405180830381865afa158015612cec573d6000803e3d6000fd5b505050506040513d601f19601f82011682018060405250810190612d10919061419a565b6040517fb5c736e40000000000000000000000000000000000000000000000000000000081527fb53127684a568b3173ae13b9f8a6016e243e63b6e8ee1178d6a717850b5d6103600482015260019182169091149150600090339073ffffffffffffffffffffffffffffffffffffffff7f0000000000000000000000000000000000000000000000000000000000000000169063b5c736e490602401602060405180830381865afa158015612dc9573d6000803e3d6000fd5b505050506040513d601f19601f82011682018060405250810190612ded919061419a565b73ffffffffffffffffffffffffffffffffffffffff1614905081158015612e12575080155b15612e4d576040517fc82fc46500000000000000000000000000000000000000000000000000000000815261ebc060048201526024016111ac565b600180546000547fffffffffffffffffffffff000000000000000000000000000000000000000000821674ffffffffffffffffffffffffffffffffffffffffff9182169081179093556040519116917f48ed0deba5df6794da28946c33455c1898c767d82e7ab2080e5586c329c6830a91612ed091848252602082015260400190565b60405180910390a1505050565b6040805160a080820183526000805474ffffffffffffffffffffffffffffffffffffffffff811684527501000000000000000000000000000000000000000000810464ffffffffff166020808601919091527a010000000000000000000000000000000000000000000000000000820460ff16858701527b01000000000000000000000000000000000000000000000000000000820462ffffff166060808701919091527e0100000000000000000000000000000000000000000000000000000000000090920461ffff166080808701919091528651948501875283855290840183905294830182905282018190529281018390526000806000612ffd85600042826060015162ffffff16836020015164ffffffffff1601109050919050565b156130f2576040805160a08101825260015474ffffffffffffffffffffffffffffffffffffffffff81168083527501000000000000000000000000000000000000000000820462ffffff9081166020808601829052780100000000000000000000000000000000000000000000000085048316968601969096527b01000000000000000000000000000000000000000000000000000000840490911660608501527e0100000000000000000000000000000000000000000000000000000000000090920461ffff166080840152928801519196506130e3929164ffffffffff1690613666565b92985090945092509050613122565b50506040830151835174ffffffffffffffffffffffffffffffffffffffffff169450600281811614906001908116145b8115613152576107b8600084116107b15760015474ffffffffffffffffffffffffffffffffffffffffff166136ff565b808015613166575060408501516004908116145b1561329057835174ffffffffffffffffffffffffffffffffffffffffff16600003613252576040805160a08101825260015474ffffffffffffffffffffffffffffffffffffffffff811682527501000000000000000000000000000000000000000000810462ffffff9081166020840152780100000000000000000000000000000000000000000000000082048116938301939093527b01000000000000000000000000000000000000000000000000000000810490921660608201527e0100000000000000000000000000000000000000000000000000000000000090910461ffff16608082015293505b6107b86107b3876000861161327f57865174ffffffffffffffffffffffffffffffffffffffffff16613281565b855b876040015162ffffff16613769565b6107b8866136ff565b6040805160a0810182526000805474ffffffffffffffffffffffffffffffffffffffffff811683527501000000000000000000000000000000000000000000810464ffffffffff16602084018190527a010000000000000000000000000000000000000000000000000000820460ff16948401949094527b01000000000000000000000000000000000000000000000000000000810462ffffff16606084018190527e0100000000000000000000000000000000000000000000000000000000000090910461ffff16608084015290924291011015612c1357611e906107b36001613785565b6040805133602080830191909152600382840152825180830384018152606083019384905280519101207fb5c736e40000000000000000000000000000000000000000000000000000000090925260648101919091526000907f000000000000000000000000000000000000000000000000000000000000000073ffffffffffffffffffffffffffffffffffffffff169063b5c736e490608401602060405180830381865afa158015613436573d6000803e3d6000fd5b505050506040513d601f19601f8201168201806040525081019061345a919061419a565b6040517fb5c736e40000000000000000000000000000000000000000000000000000000081527fb53127684a568b3173ae13b9f8a6016e243e63b6e8ee1178d6a717850b5d6103600482015260019182169091149150600090339073ffffffffffffffffffffffffffffffffffffffff7f0000000000000000000000000000000000000000000000000000000000000000169063b5c736e490602401602060405180830381865afa158015613513573d6000803e3d6000fd5b505050506040513d601f19601f82011682018060405250810190613537919061419a565b73ffffffffffffffffffffffffffffffffffffffff161490508115801561355c575080155b15613597576040517fc82fc46500000000000000000000000000000000000000000000000000000000815261ebc060048201526024016111ac565b620f42408311156135d8576040517fc82fc46500000000000000000000000000000000000000000000000000000000815261ebbf60048201526024016111ac565b6001805462ffffff8581167b010000000000000000000000000000000000000000000000000000009081027fffff000000ffffffffffffffffffffffffffffffffffffffffffffffffffffff84161790935560408051939092041680835260208301869052917ffe51ba8fc52e850f07aab61020c1f751e1fd8a5afbbbc922416e7c39fb56a101910161127b565b6000806000807f0000000000000000000000000000000000000000000000000000000000000000613695613e8e565b61369f9190614106565b9350836000036136df576040517fc82fc46500000000000000000000000000000000000000000000000000000000815261ebc260048201526024016111ac565b6136eb84888888613f4b565b939793965050508486119350508385109150565b60008160000361371157506000919050565b7f000000000000000000000000000000000000000000000000000000000000000061373c5781610930565b81760a70c3c40a64e6c51999090b65f67d92400000000000008161376257613762614130565b0492915050565b620f42408181038302048084111561377e5750825b9392505050565b6040805160a080820183526000805474ffffffffffffffffffffffffffffffffffffffffff808216855264ffffffffff75010000000000000000000000000000000000000000008084048216602080890191825260ff7a010000000000000000000000000000000000000000000000000000870416898b015262ffffff7b0100000000000000000000000000000000000000000000000000000080880482166060808d019190915261ffff7e01000000000000000000000000000000000000000000000000000000000000998a900481166080808f01919091528e519c8d018f52600154998a16808e52978a048516958d0186905278010000000000000000000000000000000000000000000000008a0485169e8d019e909e52918804909216918a01919091529590940490941697860197909752915192958693849384936138d19284921690613666565b9299509095509350915074ffffffffffffffffffffffffffffffffffffffffff871180613912575074ffffffffffffffffffffffffffffffffffffffffff84115b1561394d576040517fc82fc46500000000000000000000000000000000000000000000000000000000815261ebc360048201526024016111ac565b8551608087015174ffffffffffffffffffffffffffffffffffffffffff9091169061ffff1689158015613988575080613986838b613cdb565b105b801561399c57508061399a8488613cdb565b105b156139d7576040517fc82fc46500000000000000000000000000000000000000000000000000000000815261ebc160048201526024016111ac565b8415613a07576040517fc563dbff0ec97fb0e0d8866b34100ce38af7fea1274967ce2211982755a29c9590600090a15b8315613a8457600086620f4240613a1e8c836141b3565b613a289190614106565b613a32919061415f565b9050876040015162ffffff16811180613a535750876060015162ffffff1681115b15613a82576040517f01ebab6ce2fe9f982f6eef886119aad8adbd80d7c749b21283693d529521802190600090a15b505b64ffffffffff4216602089015274ffffffffffffffffffffffffffffffffffffffffff8916885284613ab7576000613aba565b60025b84613ac6576000613ac9565b60015b60408a01805160fc16919091179190911760ff169081905288516000805460208c015160608d015160808e015174ffffffffffffffffffffffffffffffffffffffffff9095167fffffffffffff000000000000000000000000000000000000000000000000000090931692909217750100000000000000000000000000000000000000000064ffffffffff90921691909102177fffff00000000ffffffffffffffffffffffffffffffffffffffffffffffffffff167a0100000000000000000000000000000000000000000000000000009094027fffff000000ffffffffffffffffffffffffffffffffffffffffffffffffffffff16939093177b0100000000000000000000000000000000000000000000000000000062ffffff90941693909302929092177dffffffffffffffffffffffffffffffffffffffffffffffffffffffffffff167e0100000000000000000000000000000000000000000000000000000000000061ffff9092169190910217905585831015613c8657600180547fffffffffffffffffffffff0000000000000000000000000000000000000000001674ffffffffffffffffffffffffffffffffffffffffff88161790555b60408051838152602081018b9052908101849052606081018790527fa1d5e40f5a547f5719e968be1b8da9984c1d3e2c08737e31f4bacc9640c4ea359060800160405180910390a15050505050505050919050565b600081831115613d035782620f42408385030281613cfb57613cfb614130565b049050610930565b828211156109305782620f42408484030281613d2157613d21614130565b049392505050565b606060005b602081108015613d9457507f00000000000000000000000000000000000000000000000000000000000000008160208110613d6b57613d6b6141c6565b1a60f81b7fff000000000000000000000000000000000000000000000000000000000000001615155b15613dab5780613da3816141f5565b915050613d2e565b60008167ffffffffffffffff811115613dc657613dc661422d565b6040519080825280601f01601f191660200182016040528015613df0576020820181803683370190505b50905060005b82811015613e87577f00000000000000000000000000000000000000000000000000000000000000008160208110613e3057613e306141c6565b1a60f81b828281518110613e4657613e466141c6565b60200101907effffffffffffffffffffffffffffffffffffffffffffffffffffffffffffff1916908160001a90535080613e7f816141f5565b915050613df6565b5092915050565b6040517f07a2d13a0000000000000000000000000000000000000000000000000000000081526b033b2e3c9fd0803ce800000060048201526000907f000000000000000000000000000000000000000000000000000000000000000073ffffffffffffffffffffffffffffffffffffffff16906307a2d13a90602401602060405180830381865afa158015613f27573d6000803e3d6000fd5b505050506040513d601f19601f82011682018060405250810190611b80919061419a565b60006301e13380834203606484020281613f6757613f67614130565b620f424091900481018502049050808511613f8e5783851015613f8b575082613f8e565b50835b949350505050565b600060208284031215613fa857600080fd5b5035919050565b73ffffffffffffffffffffffffffffffffffffffff8d8116825261ffff8d16602083015262ffffff8c16604083015264ffffffffff8b1660608301528916608082015287151560a082015286151560c0820152610180810186151560e08301528561010083015261402861012083018662ffffff169052565b62ffffff9390931661014082015261016001529a9950505050505050505050565b60006020828403121561405b57600080fd5b8135801515811461377e57600080fd5b600060208083528351808285015260005b818110156140985785810183015185820160400152820161407c565b5060006040828601015260407fffffffffffffffffffffffffffffffffffffffffffffffffffffffffffffffe0601f8301168501019250505092915050565b7f4e487b7100000000000000000000000000000000000000000000000000000000600052601160045260246000fd5b8082028115828204841417610930576109306140d7565b80820180821115610930576109306140d7565b7f4e487b7100000000000000000000000000000000000000000000000000000000600052601260045260246000fd5b600082614195577f4e487b7100000000000000000000000000000000000000000000000000000000600052601260045260246000fd5b500490565b6000602082840312156141ac57600080fd5b5051919050565b81810381811115610930576109306140d7565b7f4e487b7100000000000000000000000000000000000000000000000000000000600052603260045260246000fd5b60007fffffffffffffffffffffffffffffffffffffffffffffffffffffffffffffffff8203614226576142266140d7565b5060010190565b7f4e487b7100000000000000000000000000000000000000000000000000000000600052604160045260246000fdfea26469706673582212209b39e406573f6c4fa7aee4da33618e50f6de85a7f8ad2a5a9c4d3516d791ccec64736f6c63430008150033"
}