{
  "address": "0x99e83869417bDEa4E526Af50430e5082aB386bEB",
  "abi": [
    {
      "inputs": [
        {
          "internalType": "contract IFluidVaultResolver",
          "name": "vaultResolver_",
          "type": "address"
        },
        {
          "internalType": "contract IFluidVaultFactory",
          "name": "vaultFactory_",
          "type": "address"
        }
      ],
      "stateMutability": "nonpayable",
      "type": "constructor"
    },
    {
      "inputs": [],
      "name": "FluidVaultPositionsResolver__AddressZero",
      "type": "error"
    },
    {
      "inputs": [],
      "name": "FACTORY",
      "outputs": [
        {
          "internalType": "contract IFluidVaultFactory",
          "name": "",
          "type": "address"
        }
      ],
      "stateMutability": "view",
      "type": "function"
    },
    {
      "inputs": [],
      "name": "VAULT_RESOLVER",
      "outputs": [
        {
          "internalType": "contract IFluidVaultResolver",
          "name": "",
          "type": "address"
        }
      ],
      "stateMutability": "view",
      "type": "function"
    },
    {
      "inputs": [
        {
          "internalType": "address",
          "name": "vault_",
          "type": "address"
        }
      ],
      "name": "getAllVaultNftIds",
      "outputs": [
        {
          "internalType": "uint256[]",
          "name": "nftIds_",
          "type": "uint256[]"
        }
      ],
      "stateMutability": "view",
      "type": "function"
    },
    {
      "inputs": [
        {
          "internalType": "address",
          "name": "vault_",
          "type": "address"
        }
      ],
      "name": "getAllVaultPositions",
      "outputs": [
        {
          "components": [
            {
              "internalType": "uint256",
              "name": "nftId",
              "type": "uint256"
            },
            {
              "internalType": "address",
              "name": "owner",
              "type": "address"
            },
            {
              "internalType": "uint256",
              "name": "supply",
              "type": "uint256"
            },
            {
              "internalType": "uint256",
              "name": "borrow",
              "type": "uint256"
            }
          ],
          "internalType": "struct Structs.UserPosition[]",
          "name": "positions_",
          "type": "tuple[]"
        }
      ],
      "stateMutability": "view",
      "type": "function"
    },
    {
      "inputs": [
        {
          "internalType": "uint256[]",
          "name": "nftIds_",
          "type": "uint256[]"
        }
      ],
      "name": "getPositionsForNftIds",
      "outputs": [
        {
          "components": [
            {
              "internalType": "uint256",
              "name": "nftId",
              "type": "uint256"
            },
            {
              "internalType": "address",
              "name": "owner",
              "type": "address"
            },
            {
              "internalType": "uint256",
              "name": "supply",
              "type": "uint256"
            },
            {
              "internalType": "uint256",
              "name": "borrow",
              "type": "uint256"
            }
          ],
          "internalType": "struct Structs.UserPosition[]",
          "name": "positions_",
          "type": "tuple[]"
        }
      ],
      "stateMutability": "view",
      "type": "function"
    }
  ],
  "transactionHash": "0x620d1e26f50e732b4f7bfc4a8b95d79a5d3f373cc1b7514b6189b256eee8558a",
  "args": [
    "0x8DD65DaDb217f73A94Efb903EB2dc7B49D97ECca",
    "0x324c5Dc1fC42c7a4D43d92df1eBA58a54d13Bf2d"
  ],
  "numDeployments": 1,
  "solcInputHash": "4776568ac4455d56dee327975606836b",
  "bytecode": "0x60c060405234801561001057600080fd5b50604051620013a6380380620013a683398101604081905261003191610097565b6001600160a01b03808316608081905290821660a052158061005a57506001600160a01b038116155b15610078576040516302fdcc4f60e31b815260040160405180910390fd5b50506100d1565b6001600160a01b038116811461009457600080fd5b50565b600080604083850312156100aa57600080fd5b82516100b58161007f565b60208401519092506100c68161007f565b809150509250929050565b60805160a05161128e620001186000396000818160710152818161040a01526105de01526000818160e201528181610254015281816104e50152610679015261128e6000f3fe608060405234801561001057600080fd5b50600436106100675760003560e01c80637f3e2b48116100505780637f3e2b48146100dd578063bd7b630d14610104578063f752d7571461012457600080fd5b80632dd310001461006c5780635bbf0e14146100bd575b600080fd5b6100937f000000000000000000000000000000000000000000000000000000000000000081565b60405173ffffffffffffffffffffffffffffffffffffffff90911681526020015b60405180910390f35b6100d06100cb3660046108e1565b610137565b6040516100b49190610987565b6100937f000000000000000000000000000000000000000000000000000000000000000081565b610117610112366004610a26565b610404565b6040516100b49190610a4a565b6100d0610132366004610a26565b610772565b6060815167ffffffffffffffff81111561015357610153610786565b6040519080825280602002602001820160405280156101c557816020015b6101b2604051806080016040528060008152602001600073ffffffffffffffffffffffffffffffffffffffff16815260200160008152602001600081525090565b8152602001906001900390816101715790505b50905061024660405180610180016040528060008152602001600073ffffffffffffffffffffffffffffffffffffffff16815260200160001515815260200160001515815260200160008152602001600081526020016000815260200160008152602001600081526020016000815260200160008152602001600081525090565b60005b83518110156103fd577f000000000000000000000000000000000000000000000000000000000000000073ffffffffffffffffffffffffffffffffffffffff1663144128e88583815181106102a0576102a0610a8e565b60200260200101516040518263ffffffff1660e01b81526004016102c691815260200190565b610be060405180830381865afa1580156102e4573d6000803e3d6000fd5b505050506040513d601f19601f8201168201806040525081019061030891906110eb565b508092505083818151811061031f5761031f610a8e565b602002602001015183828151811061033957610339610a8e565b60200260200101516000018181525050816020015183828151811061036057610360610a8e565b60200260200101516020019073ffffffffffffffffffffffffffffffffffffffff16908173ffffffffffffffffffffffffffffffffffffffff16815250508161012001518382815181106103b6576103b6610a8e565b602002602001015160400181815250508161014001518382815181106103de576103de610a8e565b6020908102919091010151606001526103f6816111c3565b9050610249565b5050919050565b606060007f000000000000000000000000000000000000000000000000000000000000000073ffffffffffffffffffffffffffffffffffffffff166318160ddd6040518163ffffffff1660e01b8152600401602060405180830381865afa158015610473573d6000803e3d6000fd5b505050506040513d601f19601f820116820180604052508101906104979190611222565b6040517f03e883e000000000000000000000000000000000000000000000000000000000815273ffffffffffffffffffffffffffffffffffffffff858116600483015291925060009160d2917f0000000000000000000000000000000000000000000000000000000000000000909116906303e883e090602401602060405180830381865afa15801561052e573d6000803e3d6000fd5b505050506040513d601f19601f820116820180604052508101906105529190611222565b901c63ffffffff1690508067ffffffffffffffff81111561057557610575610786565b60405190808252806020026020018201604052801561059e578160200160208202803683370190505b50925060008060005b84811015610768576040517f4f6ccce7000000000000000000000000000000000000000000000000000000008152600481018290527f000000000000000000000000000000000000000000000000000000000000000073ffffffffffffffffffffffffffffffffffffffff1690634f6ccce790602401602060405180830381865afa15801561063a573d6000803e3d6000fd5b505050506040513d601f19601f8201168201806040525081019061065e9190611222565b92508673ffffffffffffffffffffffffffffffffffffffff167f000000000000000000000000000000000000000000000000000000000000000073ffffffffffffffffffffffffffffffffffffffff16631949138e856040518263ffffffff1660e01b81526004016106d291815260200190565b602060405180830381865afa1580156106ef573d6000803e3d6000fd5b505050506040513d601f19601f82011682018060405250810190610713919061123b565b73ffffffffffffffffffffffffffffffffffffffff1603610758578286838151811061074157610741610a8e565b6020908102919091010152610755826111c3565b91505b610761816111c3565b90506105a7565b5050505050919050565b60606107806100cb83610404565b92915050565b7f4e487b7100000000000000000000000000000000000000000000000000000000600052604160045260246000fd5b6040516101a0810167ffffffffffffffff811182821017156107d9576107d9610786565b60405290565b604051610160810167ffffffffffffffff811182821017156107d9576107d9610786565b60405160e0810167ffffffffffffffff811182821017156107d9576107d9610786565b604051610120810167ffffffffffffffff811182821017156107d9576107d9610786565b604051610140810167ffffffffffffffff811182821017156107d9576107d9610786565b604051610180810167ffffffffffffffff811182821017156107d9576107d9610786565b604051601f82017fffffffffffffffffffffffffffffffffffffffffffffffffffffffffffffffe016810167ffffffffffffffff811182821017156108d9576108d9610786565b604052919050565b600060208083850312156108f457600080fd5b823567ffffffffffffffff8082111561090c57600080fd5b818501915085601f83011261092057600080fd5b81358181111561093257610932610786565b8060051b9150610943848301610892565b818152918301840191848101908884111561095d57600080fd5b938501935b8385101561097b57843582529385019390850190610962565b98975050505050505050565b602080825282518282018190526000919060409081850190868401855b828110156109f4578151805185528681015173ffffffffffffffffffffffffffffffffffffffff1687860152858101518686015260609081015190850152608090930192908501906001016109a4565b5091979650505050505050565b73ffffffffffffffffffffffffffffffffffffffff81168114610a2357600080fd5b50565b600060208284031215610a3857600080fd5b8135610a4381610a01565b9392505050565b6020808252825182820181905260009190848201906040850190845b81811015610a8257835183529284019291840191600101610a66565b50909695505050505050565b7f4e487b7100000000000000000000000000000000000000000000000000000000600052603260045260246000fd5b8051610ac881610a01565b919050565b80518015158114610ac857600080fd5b805160ff81168114610ac857600080fd5b60006101a08284031215610b0157600080fd5b610b096107b5565b9050610b1482610abd565b8152610b2260208301610abd565b6020820152610b3360408301610abd565b6040820152610b4460608301610abd565b6060820152610b5560808301610abd565b6080820152610b6660a08301610abd565b60a0820152610b7760c08301610add565b60c0820152610b8860e08301610add565b60e082015261010082810151908201526101208083015190820152610140808301519082015261016080830151908201526101809182015191810191909152919050565b805161ffff81168114610ac857600080fd5b60006101608284031215610bf157600080fd5b610bf96107df565b9050610c0482610bcc565b8152610c1260208301610bcc565b6020820152610c2360408301610bcc565b6040820152610c3460608301610bcc565b6060820152610c4560808301610bcc565b6080820152610c5660a08301610bcc565b60a0820152610c6760c08301610bcc565b60c0820152610c7860e08301610bcc565b60e0820152610100610c8b818401610abd565b908201526101208281015190820152610140610ca8818401610abd565b9082015292915050565b60006101a08284031215610cc557600080fd5b610ccd6107b5565b9050815181526020820151602082015260408201516040820152606082015160608201526080820151608082015260a082015160a082015260c082015160c082015260e082015160e082015261010080830151818301525061012080830151818301525061014080830151818301525061016080830151818301525061018080830151818301525092915050565b600060c08284031215610d6d57600080fd5b60405160c0810181811067ffffffffffffffff82111715610d9057610d90610786565b8060405250809150825181526020830151602082015260408301516040820152606083015160608201526080830151608082015260a083015160a08201525092915050565b600060e08284031215610de757600080fd5b610def610803565b9050815181526020820151602082015260408201516040820152606082015160608201526080820151608082015260a082015160a082015260c082015160c082015292915050565b60008183036101a0811215610e4b57600080fd5b610e53610803565b9150825182526020830151602083015260408301516040830152606083015160608301526080830151608083015260a083015160a083015260e07fffffffffffffffffffffffffffffffffffffffffffffffffffffffffffffff4082011215610ebb57600080fd5b50610ec4610803565b60c0830151815260e0830151602082015261010083015160408201526101208301516060820152610140830151608082015261016083015160a082015261018083015160c08201528060c08301525092915050565b60006101208284031215610f2c57600080fd5b610f34610826565b9050610f3f82610acd565b81526020820151602082015260408201516040820152606082015160608201526080820151608082015260a082015160a082015260c082015160c082015260e082015160e082015261010080830151818301525092915050565b60006101408284031215610fac57600080fd5b610fb461084a565b9050610fbf82610acd565b81526020820151602082015260408201516040820152606082015160608201526080820151608082015260a082015160a082015260c082015160c082015260e082015160e082015261010080830151818301525061012080830151818301525092915050565b6000610a60828403121561103857600080fd5b611040610826565b905061104b82610abd565b815261105a8360208401610aee565b602082015261106d836101c08401610bde565b6040820152611080836103208401610cb2565b6060820152611093836104c08401610d5b565b60808201526110a6836105808401610dd5565b60a08201526110b9836106608401610e37565b60c08201526110cc836108008401610f19565b60e08201526110df836109208401610f99565b61010082015292915050565b600080828403610be081121561110057600080fd5b6101808082121561111057600080fd5b61111861086e565b91508451825261112a60208601610abd565b602083015261113b60408601610acd565b604083015261114c60608601610acd565b60608301526080850151608083015260a085015160a083015260c085015160c083015260e085015160e08301526101008086015181840152506101208086015181840152506101408086015181840152506101608086015181840152508193506111b886828701611025565b925050509250929050565b60007fffffffffffffffffffffffffffffffffffffffffffffffffffffffffffffffff820361121b577f4e487b7100000000000000000000000000000000000000000000000000000000600052601160045260246000fd5b5060010190565b60006020828403121561123457600080fd5b5051919050565b60006020828403121561124d57600080fd5b8151610a4381610a0156fea26469706673582212205150a679993c29a8ddddcf3b81f3050257bf8ab9236654b65f42cb50eef8d07664736f6c63430008150033",
  "devdoc": {
    "kind": "dev",
    "methods": {},
    "version": 1
  },
  "userdoc": {
    "errors": {
      "FluidVaultPositionsResolver__AddressZero()": [
        {
          "notice": "thrown if an input param address is zero"
        }
      ]
    },
    "kind": "user",
    "methods": {
      "constructor": {
        "notice": "constructor sets the immutable vault resolver and vault factory address"
      }
    },
    "version": 1
  },
  "storageLayout": {
    "storage": [],
    "types": null
  }
}