{
  "address": "0x9eC721a12b6005aF8c6E8CFa9c86B5f12ff473E4",
  "abi": [
    {
      "inputs": [
        {
          "internalType": "contract IWstETH",
          "name": "wstETH",
          "type": "address"
        },
        {
          "internalType": "contract IWeETH",
          "name": "weETH",
          "type": "address"
        }
      ],
      "stateMutability": "nonpayable",
      "type": "constructor"
    },
    {
      "inputs": [
        {
          "internalType": "uint256",
          "name": "errorId_",
          "type": "uint256"
        }
      ],
      "name": "FluidOracleError",
      "type": "error"
    },
    {
      "inputs": [],
      "name": "getExchangeRate",
      "outputs": [
        {
          "internalType": "uint256",
          "name": "exchangeRate_",
          "type": "uint256"
        }
      ],
      "stateMutability": "view",
      "type": "function"
    },
    {
      "inputs": [],
      "name": "weETHOracleData",
      "outputs": [
        {
          "internalType": "uint256",
          "name": "weETHExchangeRate_",
          "type": "uint256"
        },
        {
          "internalType": "contract IWeETH",
          "name": "weETH_",
          "type": "address"
        }
      ],
      "stateMutability": "view",
      "type": "function"
    },
    {
      "inputs": [],
      "name": "wstETHOracleData",
      "outputs": [
        {
          "internalType": "uint256",
          "name": "wstETHExchangeRate_",
          "type": "uint256"
        },
        {
          "internalType": "contract IWstETH",
          "name": "wstETH_",
          "type": "address"
        }
      ],
      "stateMutability": "view",
      "type": "function"
    }
  ],
  "transactionHash": "0xd9d67a175b31df2b8e76ca6acd49435f331fad59e30b3b9abc13d3b1b2fc506b",
  "args": [
    "0x7f39C581F595B53c5cb19bD0b3f8dA6c935E2Ca0",
    "0xcd5fe23c85820f7b72d0926fc9b05b43e359b7ee"
  ],
  "numDeployments": 1,
  "solcInputHash": "d810b8a613c293d088c2c0634fe4ac8f",
  "bytecode": "0x6101006040523480156200001257600080fd5b50604051620008cd380380620008cd833981016040819052620000359162000110565b80826001600160a01b038116620000685760405163c82fc46560e01b815261f61960048201526024015b60405180910390fd5b6001600160a01b03811660a052620000836012601b62000165565b6200009090600a6200027e565b608052506001600160a01b038116620000c25760405163c82fc46560e01b81526201117160048201526024016200005f565b6001600160a01b03811660e052620000dd6012601b62000165565b620000ea90600a6200027e565b60c0525062000293915050565b6001600160a01b03811681146200010d57600080fd5b50565b600080604083850312156200012457600080fd5b82516200013181620000f7565b60208401519092506200014481620000f7565b809150509250929050565b634e487b7160e01b600052601160045260246000fd5b818103818111156200017b576200017b6200014f565b92915050565b600181815b80851115620001c2578160001904821115620001a657620001a66200014f565b80851615620001b457918102915b93841c939080029062000186565b509250929050565b600082620001db575060016200017b565b81620001ea575060006200017b565b81600181146200020357600281146200020e576200022e565b60019150506200017b565b60ff8411156200022257620002226200014f565b50506001821b6200017b565b5060208310610133831016604e8410600b841016171562000253575081810a6200017b565b6200025f838362000181565b80600019048211156200027657620002766200014f565b029392505050565b60006200028c8383620001ca565b9392505050565b60805160a05160c05160e0516105e6620002e76000396000818160a90152818161013a01526102de015260006102a701526000818160dc015281816101c801526103780152600061035701526105e66000f3fe608060405234801561001057600080fd5b50600436106100415760003560e01c80631b3904f214610046578063dfaba9b51461007d578063e6aa216c14610085575b600080fd5b61004e61009b565b6040805192835273ffffffffffffffffffffffffffffffffffffffff9091166020830152015b60405180910390f35b61004e6100ce565b61008d610101565b604051908152602001610074565b6000806100a661026e565b927f000000000000000000000000000000000000000000000000000000000000000092509050565b6000806100d9610353565b927f000000000000000000000000000000000000000000000000000000000000000092509050565b6040517f94626044000000000000000000000000000000000000000000000000000000008152670de0b6b3a764000060048201526000907f000000000000000000000000000000000000000000000000000000000000000073ffffffffffffffffffffffffffffffffffffffff1690639462604490602401602060405180830381865afa158015610196573d6000803e3d6000fd5b505050506040513d601f19601f820116820180604052508101906101ba91906103e1565b6101c6601b600a61054b565b7f000000000000000000000000000000000000000000000000000000000000000073ffffffffffffffffffffffffffffffffffffffff1663035faf826040518163ffffffff1660e01b8152600401602060405180830381865afa158015610231573d6000803e3d6000fd5b505050506040513d601f19601f8201168201806040525081019061025591906103e1565b61025f919061055e565b6102699190610575565b905090565b6040517f94626044000000000000000000000000000000000000000000000000000000008152670de0b6b3a764000060048201526000907f00000000000000000000000000000000000000000000000000000000000000009073ffffffffffffffffffffffffffffffffffffffff7f00000000000000000000000000000000000000000000000000000000000000001690639462604490602401602060405180830381865afa158015610325573d6000803e3d6000fd5b505050506040513d601f19601f8201168201806040525081019061034991906103e1565b610269919061055e565b60007f00000000000000000000000000000000000000000000000000000000000000007f000000000000000000000000000000000000000000000000000000000000000073ffffffffffffffffffffffffffffffffffffffff1663035faf826040518163ffffffff1660e01b8152600401602060405180830381865afa158015610325573d6000803e3d6000fd5b6000602082840312156103f357600080fd5b5051919050565b7f4e487b7100000000000000000000000000000000000000000000000000000000600052601160045260246000fd5b600181815b8085111561048257817fffffffffffffffffffffffffffffffffffffffffffffffffffffffffffffffff04821115610468576104686103fa565b8085161561047557918102915b93841c939080029061042e565b509250929050565b60008261049957506001610545565b816104a657506000610545565b81600181146104bc57600281146104c6576104e2565b6001915050610545565b60ff8411156104d7576104d76103fa565b50506001821b610545565b5060208310610133831016604e8410600b8410161715610505575081810a610545565b61050f8383610429565b807fffffffffffffffffffffffffffffffffffffffffffffffffffffffffffffffff04821115610541576105416103fa565b0290505b92915050565b6000610557838361048a565b9392505050565b8082028115828204841417610545576105456103fa565b6000826105ab577f4e487b7100000000000000000000000000000000000000000000000000000000600052601260045260246000fd5b50049056fea2646970667358221220eb7866800cd65d11cd3d53bac5f84d64d000b9978508286e8c5a211f4229f5dc64736f6c63430008150033",
  "devdoc": {
    "kind": "dev",
    "methods": {
      "constructor": {
        "params": {
          "weETH": "address of the weETH contract",
          "wstETH": "address of the wstETH contract"
        }
      }
    },
    "title": "Oracle for weETH (Etherfi's wrapped eETH) to wstETH. wstETH is the debt token here.",
    "version": 1
  },
  "userdoc": {
    "kind": "user",
    "methods": {
      "getExchangeRate()": {
        "notice": "Get the `exchangeRate_` between the underlying asset and the peg asset in 1e27"
      },
      "weETHOracleData()": {
        "notice": "returns all wWtETH oracle related data as utility for easy off-chain use / block explorer in a single view method"
      },
      "wstETHOracleData()": {
        "notice": "returns all wWtETH oracle related data as utility for easy off-chain use / block explorer in a single view method"
      }
    },
    "version": 1
  },
  "storageLayout": {
    "storage": [],
    "types": null
  }
}