{
  "address": "0xadE0948e2431DEFB87e75760e94f190cbF35E95b",
  "abi": [
    {
      "inputs": [
        {
          "internalType": "contract IWstETH",
          "name": "wstETH_",
          "type": "address"
        }
      ],
      "stateMutability": "nonpayable",
      "type": "constructor"
    },
    {
      "inputs": [
        {
          "internalType": "uint256",
          "name": "errorId_",
          "type": "uint256"
        }
      ],
      "name": "FluidOracleError",
      "type": "error"
    },
    {
      "inputs": [],
      "name": "getExchangeRate",
      "outputs": [
        {
          "internalType": "uint256",
          "name": "exchangeRate_",
          "type": "uint256"
        }
      ],
      "stateMutability": "view",
      "type": "function"
    },
    {
      "inputs": [],
      "name": "getExchangeRateLiquidate",
      "outputs": [
        {
          "internalType": "uint256",
          "name": "exchangeRate_",
          "type": "uint256"
        }
      ],
      "stateMutability": "view",
      "type": "function"
    },
    {
      "inputs": [],
      "name": "getExchangeRateOperate",
      "outputs": [
        {
          "internalType": "uint256",
          "name": "exchangeRate_",
          "type": "uint256"
        }
      ],
      "stateMutability": "view",
      "type": "function"
    },
    {
      "inputs": [],
      "name": "wstETHOracleData",
      "outputs": [
        {
          "internalType": "uint256",
          "name": "wstETHExchangeRate_",
          "type": "uint256"
        },
        {
          "internalType": "contract IWstETH",
          "name": "wstETH_",
          "type": "address"
        }
      ],
      "stateMutability": "view",
      "type": "function"
    }
  ],
  "transactionHash": "0x2932d2b80cd9a7ba463e5553c1e73652082297850de3b81e3f96bf4107aa5084",
  "args": [
    "0x7f39C581F595B53c5cb19bD0b3f8dA6c935E2Ca0"
  ],
  "numDeployments": 1,
  "solcInputHash": "1989963ad64c4704dbe1170530c79d20",
  "bytecode": "0x60c060405234801561001057600080fd5b5060405161044838038061044883398101604081905261002f9161008e565b806001600160a01b03811661005f5760405163c82fc46560e01b815261f619600482015260240160405180910390fd5b6001600160a01b03811660a0526100786012601b6100d4565b61008390600a6101d1565b608052506101dd9050565b6000602082840312156100a057600080fd5b81516001600160a01b03811681146100b757600080fd5b9392505050565b634e487b7160e01b600052601160045260246000fd5b818103818111156100e7576100e76100be565b92915050565b600181815b8085111561012857816000190482111561010e5761010e6100be565b8085161561011b57918102915b93841c93908002906100f2565b509250929050565b60008261013f575060016100e7565b8161014c575060006100e7565b8160018114610162576002811461016c57610188565b60019150506100e7565b60ff84111561017d5761017d6100be565b50506001821b6100e7565b5060208310610133831016604e8410600b84101617156101ab575081810a6100e7565b6101b583836100ed565b80600019048211156101c9576101c96100be565b029392505050565b60006100b78383610130565b60805160a0516102416102076000396000818160c301526101170152600060f601526102416000f3fe608060405234801561001057600080fd5b506004361061004c5760003560e01c80638e7bfbc014610051578063dfaba9b51461006c578063e6aa216c1461009e578063f3190c891461009e575b600080fd5b6100596100a6565b6040519081526020015b60405180910390f35b6100746100b5565b6040805192835273ffffffffffffffffffffffffffffffffffffffff909116602083015201610063565b6100596100e8565b60006100b06100f2565b905090565b6000806100c06100f2565b927f000000000000000000000000000000000000000000000000000000000000000092509050565b60006100b06100a6565b60007f00000000000000000000000000000000000000000000000000000000000000007f000000000000000000000000000000000000000000000000000000000000000073ffffffffffffffffffffffffffffffffffffffff1663035faf826040518163ffffffff1660e01b8152600401602060405180830381865afa158015610180573d6000803e3d6000fd5b505050506040513d601f19601f820116820180604052508101906101a491906101ae565b6100b091906101c7565b6000602082840312156101c057600080fd5b5051919050565b8082028115828204841417610205577f4e487b7100000000000000000000000000000000000000000000000000000000600052601160045260246000fd5b9291505056fea2646970667358221220261f04ca68b7102209a8ef0b4010728f9fd7ecf7a682430dbb5de94c72d4dedd64736f6c63430008150033",
  "devdoc": {
    "kind": "dev",
    "methods": {
      "getExchangeRate()": {
        "details": "Deprecated. Use `getExchangeRateOperate()` and `getExchangeRateLiquidate()` instead. Only implemented for      backwards compatibility."
      }
    },
    "title": "WstETHOracle",
    "version": 1
  },
  "userdoc": {
    "kind": "user",
    "methods": {
      "constructor": {
        "notice": "constructor sets the wstETH `wstETH_` token address."
      },
      "getExchangeRateLiquidate()": {
        "notice": "Get the `exchangeRate_` between the underlying asset and the peg asset in 1e27 for liquidations"
      },
      "getExchangeRateOperate()": {
        "notice": "Get the `exchangeRate_` between the underlying asset and the peg asset in 1e27 for operates"
      },
      "wstETHOracleData()": {
        "notice": "returns all wWtETH oracle related data as utility for easy off-chain use / block explorer in a single view method"
      }
    },
    "notice": "Gets the exchange rate between wstETH and stETH directly from the wstETH contract.",
    "version": 1
  },
  "storageLayout": {
    "storage": [],
    "types": null
  }
}