{
  "address": "0xAd3fEaE8c608681E989D393b48FaEE71e664050A",
  "abi": [
    {
      "inputs": [
        {
          "internalType": "string",
          "name": "infoName_",
          "type": "string"
        },
        {
          "internalType": "uint8",
          "name": "colTokenDecimals_",
          "type": "uint8"
        },
        {
          "internalType": "uint8",
          "name": "debtTokenDecimals_",
          "type": "uint8"
        },
        {
          "internalType": "contract IERC4626",
          "name": "erc4626Feed_",
          "type": "address"
        }
      ],
      "stateMutability": "nonpayable",
      "type": "constructor"
    },
    {
      "inputs": [
        {
          "internalType": "uint256",
          "name": "errorId_",
          "type": "uint256"
        }
      ],
      "name": "FluidOracleError",
      "type": "error"
    },
    {
      "inputs": [],
      "name": "getExchangeRate",
      "outputs": [
        {
          "internalType": "uint256",
          "name": "exchangeRate_",
          "type": "uint256"
        }
      ],
      "stateMutability": "view",
      "type": "function"
    },
    {
      "inputs": [],
      "name": "getExchangeRateLiquidate",
      "outputs": [
        {
          "internalType": "uint256",
          "name": "exchangeRate_",
          "type": "uint256"
        }
      ],
      "stateMutability": "view",
      "type": "function"
    },
    {
      "inputs": [],
      "name": "getExchangeRateOperate",
      "outputs": [
        {
          "internalType": "uint256",
          "name": "exchangeRate_",
          "type": "uint256"
        }
      ],
      "stateMutability": "view",
      "type": "function"
    },
    {
      "inputs": [],
      "name": "infoName",
      "outputs": [
        {
          "internalType": "string",
          "name": "",
          "type": "string"
        }
      ],
      "stateMutability": "view",
      "type": "function"
    },
    {
      "inputs": [],
      "name": "pegOracleData",
      "outputs": [
        {
          "internalType": "uint256",
          "name": "pegExchangeRate_",
          "type": "uint256"
        },
        {
          "internalType": "contract IERC4626",
          "name": "erc4626Feed_",
          "type": "address"
        },
        {
          "internalType": "uint256",
          "name": "colTokenDecimals_",
          "type": "uint256"
        },
        {
          "internalType": "uint256",
          "name": "debtTokenDecimals_",
          "type": "uint256"
        }
      ],
      "stateMutability": "view",
      "type": "function"
    }
  ],
  "transactionHash": "0xce519281aa210121d902429af98fd3d6f5a69793bb8899b8d4a25266cf712d74",
  "args": [
    [
      "Token18 per 1 Token18",
      18,
      18,
      "0x0000000000000000000000000000000000000000"
    ]
  ],
  "numDeployments": 1,
  "linkedData": {
    "nonce": "38"
  },
  "bytecode": "0x6101206040523480156200001257600080fd5b50604051620009e5380380620009e5833981016040819052620000359162000180565b828282866020815111806200004957508051155b15620000715760405163c82fc46560e01b815261ea6a60048201526024015b60405180910390fd5b60200151608052600660ff841610806200008e575060068260ff16105b806200009d575060128360ff16115b80620000ac575060128260ff16115b15620000d05760405163c82fc46560e01b815261ebd3600482015260240162000068565b6001600160a01b03811660c05260ff80841660e0819052908316610100819052600091620000ff9190620002a3565b90508062000110600f601b620002cd565b6200011c9190620002a3565b6200012990600a620003e6565b60a05250620003fb9650505050505050565b634e487b7160e01b600052604160045260246000fd5b805160ff811681146200016357600080fd5b919050565b80516001600160a01b03811681146200016357600080fd5b600080600080608085870312156200019757600080fd5b84516001600160401b0380821115620001af57600080fd5b818701915087601f830112620001c457600080fd5b815181811115620001d957620001d96200013b565b604051601f8201601f19908116603f011681019083821181831017156200020457620002046200013b565b81604052828152602093508a848487010111156200022157600080fd5b600091505b8282101562000245578482018401518183018501529083019062000226565b60008484830101528098505050506200026081880162000151565b94505050620002726040860162000151565b9150620002826060860162000168565b905092959194509250565b634e487b7160e01b600052601160045260246000fd5b8181036000831280158383131683831282161715620002c657620002c66200028d565b5092915050565b81810381811115620002e357620002e36200028d565b92915050565b600181815b808511156200032a5781600019048211156200030e576200030e6200028d565b808516156200031c57918102915b93841c9390800290620002ee565b509250929050565b6000826200034357506001620002e3565b816200035257506000620002e3565b81600181146200036b5760028114620003765762000396565b6001915050620002e3565b60ff8411156200038a576200038a6200028d565b50506001821b620002e3565b5060208310610133831016604e8410600b8410161715620003bb575081810a620002e3565b620003c78383620002e9565b8060001904821115620003de57620003de6200028d565b029392505050565b6000620003f4838362000332565b9392505050565b60805160a05160c05160e051610100516105916200045460003960006102a80152600061028301526000818161025e015281816102d80152610347015260006103cf01526000818160fa01526101bf01526105916000f3fe608060405234801561001057600080fd5b50600436106100675760003560e01c8063ba66a14711610050578063ba66a1471461009c578063e6aa216c1461006c578063f3190c891461006c57600080fd5b80638e7bfbc01461006c578063abd5f95d14610087575b600080fd5b6100746100d9565b6040519081526020015b60405180910390f35b61008f6100e8565b60405161007e91906103f4565b6100a461024d565b6040805194855273ffffffffffffffffffffffffffffffffffffffff909316602085015291830152606082015260800161007e565b60006100e36102ce565b905090565b606060005b60208110801561015357507f0000000000000000000000000000000000000000000000000000000000000000816020811061012a5761012a610460565b1a60f81b7fff000000000000000000000000000000000000000000000000000000000000001615155b1561016a5780610162816104be565b9150506100ed565b60008167ffffffffffffffff811115610185576101856104f6565b6040519080825280601f01601f1916602001820160405280156101af576020820181803683370190505b50905060005b82811015610246577f000000000000000000000000000000000000000000000000000000000000000081602081106101ef576101ef610460565b1a60f81b82828151811061020557610205610460565b60200101907effffffffffffffffffffffffffffffffffffffffffffffffffffffffffffff1916908160001a9053508061023e816104be565b9150506101b5565b5092915050565b60008060008061025b6102ce565b947f0000000000000000000000000000000000000000000000000000000000000000945060ff7f0000000000000000000000000000000000000000000000000000000000000000811694507f00000000000000000000000000000000000000000000000000000000000000001692509050565b66038d7ea4c680007f000000000000000000000000000000000000000000000000000000000000000073ffffffffffffffffffffffffffffffffffffffff16156103ca576040517f07a2d13a00000000000000000000000000000000000000000000000000000000815266038d7ea4c6800060048201527f000000000000000000000000000000000000000000000000000000000000000073ffffffffffffffffffffffffffffffffffffffff16906307a2d13a90602401602060405180830381865afa1580156103a3573d6000803e3d6000fd5b505050506040513d601f19601f820116820180604052508101906103c79190610525565b90505b6100e37f00000000000000000000000000000000000000000000000000000000000000008261053e565b600060208083528351808285015260005b8181101561042157858101830151858201604001528201610405565b5060006040828601015260407fffffffffffffffffffffffffffffffffffffffffffffffffffffffffffffffe0601f8301168501019250505092915050565b7f4e487b7100000000000000000000000000000000000000000000000000000000600052603260045260246000fd5b7f4e487b7100000000000000000000000000000000000000000000000000000000600052601160045260246000fd5b60007fffffffffffffffffffffffffffffffffffffffffffffffffffffffffffffffff82036104ef576104ef61048f565b5060010190565b7f4e487b7100000000000000000000000000000000000000000000000000000000600052604160045260246000fd5b60006020828403121561053757600080fd5b5051919050565b80820281158282048414176105555761055561048f565b9291505056fea2646970667358221220bc78758dcd123211807c55524ef0594d7e98480a707ced2da62e87338545c2cb64736f6c63430008150033"
}