{
  "address": "0xb0335b5443e19676bA973411C5A18571eB7Cd4B3",
  "abi": [
    {
      "inputs": [
        {
          "internalType": "string",
          "name": "infoName_",
          "type": "string"
        },
        {
          "internalType": "address",
          "name": "fluidCappedRate_",
          "type": "address"
        }
      ],
      "stateMutability": "nonpayable",
      "type": "constructor"
    },
    {
      "inputs": [
        {
          "internalType": "uint256",
          "name": "errorId_",
          "type": "uint256"
        }
      ],
      "name": "FluidOracleError",
      "type": "error"
    },
    {
      "inputs": [],
      "name": "FLUID_CAPPED_RATE",
      "outputs": [
        {
          "internalType": "address",
          "name": "",
          "type": "address"
        }
      ],
      "stateMutability": "view",
      "type": "function"
    },
    {
      "inputs": [],
      "name": "centerPrice",
      "outputs": [
        {
          "internalType": "uint256",
          "name": "price_",
          "type": "uint256"
        }
      ],
      "stateMutability": "nonpayable",
      "type": "function"
    },
    {
      "inputs": [],
      "name": "infoName",
      "outputs": [
        {
          "internalType": "string",
          "name": "",
          "type": "string"
        }
      ],
      "stateMutability": "view",
      "type": "function"
    },
    {
      "inputs": [],
      "name": "targetDecimals",
      "outputs": [
        {
          "internalType": "uint8",
          "name": "",
          "type": "uint8"
        }
      ],
      "stateMutability": "pure",
      "type": "function"
    }
  ],
  "transactionHash": "0x85fc3ef3f7d82d7f30f05d03edfea4a04ffe06d8bb4190cab9bd24f001b78d70",
  "args": [
    [
      "LBTC per 1 BTC",
      "0x503Ef5B869b3f32D407c7816710f87b1D686C103"
    ]
  ],
  "numDeployments": 1,
  "linkedData": {
    "nonce": "171"
  },
  "bytecode": "0x60c060405234801561001057600080fd5b5060405161069438038061069483398101604081905261002f916100dc565b8160208151118061003f57508051155b156100665760405163c82fc46560e01b815261ea6a60048201526024015b60405180910390fd5b602001516080526001600160a01b0381166100985760405163c82fc46560e01b815261ec05600482015260240161005d565b6001600160a01b031660a052506101b6565b634e487b7160e01b600052604160045260246000fd5b80516001600160a01b03811681146100d757600080fd5b919050565b600080604083850312156100ef57600080fd5b82516001600160401b038082111561010657600080fd5b818501915085601f83011261011a57600080fd5b81518181111561012c5761012c6100aa565b604051601f8201601f19908116603f01168101908382118183101715610154576101546100aa565b8160405282815260209350888484870101111561017057600080fd5b600091505b828210156101925784820184015181830185015290830190610175565b60008484830101528096505050506101ab8186016100c0565b925050509250929050565b60805160a0516104ad6101e7600039600081816056015261024501526000818160ee01526101b301526104ad6000f3fe608060405234801561001057600080fd5b506004361061004c5760003560e01c806323115a541461005157806336c1387e146100a2578063abd5f95d146100b1578063f763f7a6146100c6575b600080fd5b6100787f000000000000000000000000000000000000000000000000000000000000000081565b60405173ffffffffffffffffffffffffffffffffffffffff90911681526020015b60405180910390f35b604051601b8152602001610099565b6100b96100dc565b60405161009991906102fa565b6100ce610241565b604051908152602001610099565b606060005b60208110801561014757507f0000000000000000000000000000000000000000000000000000000000000000816020811061011e5761011e610366565b1a60f81b7fff000000000000000000000000000000000000000000000000000000000000001615155b1561015e578061015681610395565b9150506100e1565b60008167ffffffffffffffff811115610179576101796103f4565b6040519080825280601f01601f1916602001820160405280156101a3576020820181803683370190505b50905060005b8281101561023a577f000000000000000000000000000000000000000000000000000000000000000081602081106101e3576101e3610366565b1a60f81b8282815181106101f9576101f9610366565b60200101907effffffffffffffffffffffffffffffffffffffffffffffffffffffffffffff1916908160001a9053508061023281610395565b9150506101a9565b5092915050565b60007f000000000000000000000000000000000000000000000000000000000000000073ffffffffffffffffffffffffffffffffffffffff1663f763f7a66040518163ffffffff1660e01b81526004016020604051808303816000875af11580156102b0573d6000803e3d6000fd5b505050506040513d601f19601f820116820180604052508101906102d49190610423565b6102f590760a70c3c40a64e6c51999090b65f67d924000000000000061043c565b905090565b600060208083528351808285015260005b818110156103275785810183015185820160400152820161030b565b5060006040828601015260407fffffffffffffffffffffffffffffffffffffffffffffffffffffffffffffffe0601f8301168501019250505092915050565b7f4e487b7100000000000000000000000000000000000000000000000000000000600052603260045260246000fd5b60007fffffffffffffffffffffffffffffffffffffffffffffffffffffffffffffffff82036103ed577f4e487b7100000000000000000000000000000000000000000000000000000000600052601160045260246000fd5b5060010190565b7f4e487b7100000000000000000000000000000000000000000000000000000000600052604160045260246000fd5b60006020828403121561043557600080fd5b5051919050565b600082610472577f4e487b7100000000000000000000000000000000000000000000000000000000600052601260045260246000fd5b50049056fea2646970667358221220307aebe8c9a26c1e928fcf378a3169497102181125bff08a39b4cc8a3c2baf9664736f6c63430008150033"
}