{
  "address": "0xb0e428f2c760758F68E1DC27573FfEBAD1629A8C",
  "abi": [
    {
      "inputs": [],
      "stateMutability": "nonpayable",
      "type": "constructor"
    },
    {
      "inputs": [
        {
          "internalType": "uint256",
          "name": "errorId_",
          "type": "uint256"
        }
      ],
      "name": "FluidDexError",
      "type": "error"
    },
    {
      "inputs": [
        {
          "internalType": "uint256",
          "name": "errorId_",
          "type": "uint256"
        }
      ],
      "name": "FluidDexFactoryError",
      "type": "error"
    },
    {
      "inputs": [
        {
          "internalType": "uint256",
          "name": "shares_",
          "type": "uint256"
        }
      ],
      "name": "FluidDexLiquidityOutput",
      "type": "error"
    },
    {
      "inputs": [
        {
          "internalType": "uint256",
          "name": "token0Amt",
          "type": "uint256"
        },
        {
          "internalType": "uint256",
          "name": "token1Amt",
          "type": "uint256"
        }
      ],
      "name": "FluidDexPerfectLiquidityOutput",
      "type": "error"
    },
    {
      "inputs": [
        {
          "components": [
            {
              "internalType": "uint256",
              "name": "lastStoredPrice",
              "type": "uint256"
            },
            {
              "internalType": "uint256",
              "name": "centerPrice",
              "type": "uint256"
            },
            {
              "internalType": "uint256",
              "name": "upperRange",
              "type": "uint256"
            },
            {
              "internalType": "uint256",
              "name": "lowerRange",
              "type": "uint256"
            },
            {
              "internalType": "uint256",
              "name": "geometricMean",
              "type": "uint256"
            },
            {
              "internalType": "uint256",
              "name": "supplyToken0ExchangePrice",
              "type": "uint256"
            },
            {
              "internalType": "uint256",
              "name": "borrowToken0ExchangePrice",
              "type": "uint256"
            },
            {
              "internalType": "uint256",
              "name": "supplyToken1ExchangePrice",
              "type": "uint256"
            },
            {
              "internalType": "uint256",
              "name": "borrowToken1ExchangePrice",
              "type": "uint256"
            }
          ],
          "internalType": "struct Structs.PricesAndExchangePrice",
          "name": "pex_",
          "type": "tuple"
        }
      ],
      "name": "FluidDexPricesAndExchangeRates",
      "type": "error"
    },
    {
      "inputs": [
        {
          "internalType": "uint256",
          "name": "tokenAmt",
          "type": "uint256"
        }
      ],
      "name": "FluidDexSingleTokenOutput",
      "type": "error"
    },
    {
      "inputs": [
        {
          "internalType": "uint256",
          "name": "amountOut",
          "type": "uint256"
        }
      ],
      "name": "FluidDexSwapResult",
      "type": "error"
    },
    {
      "inputs": [
        {
          "internalType": "uint256",
          "name": "errorId_",
          "type": "uint256"
        }
      ],
      "name": "FluidSafeTransferError",
      "type": "error"
    },
    {
      "anonymous": false,
      "inputs": [
        {
          "indexed": false,
          "internalType": "bool",
          "name": "smartCol",
          "type": "bool"
        },
        {
          "indexed": false,
          "internalType": "bool",
          "name": "smartDebt",
          "type": "bool"
        },
        {
          "indexed": false,
          "internalType": "uint256",
          "name": "token0ColAmt",
          "type": "uint256"
        },
        {
          "indexed": false,
          "internalType": "uint256",
          "name": "token0DebtAmt",
          "type": "uint256"
        },
        {
          "indexed": false,
          "internalType": "uint256",
          "name": "fee",
          "type": "uint256"
        },
        {
          "indexed": false,
          "internalType": "uint256",
          "name": "revenueCut",
          "type": "uint256"
        },
        {
          "indexed": false,
          "internalType": "uint256",
          "name": "centerPriceAddress",
          "type": "uint256"
        },
        {
          "indexed": false,
          "internalType": "uint256",
          "name": "hookAddress",
          "type": "uint256"
        }
      ],
      "name": "LogInitializePoolConfig",
      "type": "event"
    },
    {
      "anonymous": false,
      "inputs": [
        {
          "indexed": false,
          "internalType": "uint256",
          "name": "upperPercent",
          "type": "uint256"
        },
        {
          "indexed": false,
          "internalType": "uint256",
          "name": "lowerPercent",
          "type": "uint256"
        },
        {
          "indexed": false,
          "internalType": "uint256",
          "name": "upperShiftThreshold",
          "type": "uint256"
        },
        {
          "indexed": false,
          "internalType": "uint256",
          "name": "lowerShiftThreshold",
          "type": "uint256"
        },
        {
          "indexed": false,
          "internalType": "uint256",
          "name": "thresholdShiftTime",
          "type": "uint256"
        },
        {
          "indexed": false,
          "internalType": "uint256",
          "name": "maxCenterPrice",
          "type": "uint256"
        },
        {
          "indexed": false,
          "internalType": "uint256",
          "name": "minCenterPrice",
          "type": "uint256"
        }
      ],
      "name": "LogInitializePriceParams",
      "type": "event"
    },
    {
      "anonymous": false,
      "inputs": [],
      "name": "LogPauseSwapAndArbitrage",
      "type": "event"
    },
    {
      "anonymous": false,
      "inputs": [
        {
          "indexed": false,
          "internalType": "address",
          "name": "user",
          "type": "address"
        },
        {
          "indexed": false,
          "internalType": "bool",
          "name": "pauseSupply",
          "type": "bool"
        },
        {
          "indexed": false,
          "internalType": "bool",
          "name": "pauseBorrow",
          "type": "bool"
        }
      ],
      "name": "LogPauseUser",
      "type": "event"
    },
    {
      "anonymous": false,
      "inputs": [
        {
          "indexed": false,
          "internalType": "address",
          "name": "token",
          "type": "address"
        }
      ],
      "name": "LogRescueFunds",
      "type": "event"
    },
    {
      "anonymous": false,
      "inputs": [
        {
          "indexed": false,
          "internalType": "uint256",
          "name": "token0Amt",
          "type": "uint256"
        }
      ],
      "name": "LogTurnOnSmartCol",
      "type": "event"
    },
    {
      "anonymous": false,
      "inputs": [
        {
          "indexed": false,
          "internalType": "uint256",
          "name": "token0Amt",
          "type": "uint256"
        }
      ],
      "name": "LogTurnOnSmartDebt",
      "type": "event"
    },
    {
      "anonymous": false,
      "inputs": [],
      "name": "LogUnpauseSwapAndArbitrage",
      "type": "event"
    },
    {
      "anonymous": false,
      "inputs": [
        {
          "indexed": false,
          "internalType": "address",
          "name": "user",
          "type": "address"
        },
        {
          "indexed": false,
          "internalType": "bool",
          "name": "unpauseSupply",
          "type": "bool"
        },
        {
          "indexed": false,
          "internalType": "bool",
          "name": "unpauseBorrow",
          "type": "bool"
        }
      ],
      "name": "LogUnpauseUser",
      "type": "event"
    },
    {
      "anonymous": false,
      "inputs": [
        {
          "indexed": false,
          "internalType": "uint256",
          "name": "centerPriceAddress",
          "type": "uint256"
        },
        {
          "indexed": false,
          "internalType": "uint256",
          "name": "percent",
          "type": "uint256"
        },
        {
          "indexed": false,
          "internalType": "uint256",
          "name": "time",
          "type": "uint256"
        }
      ],
      "name": "LogUpdateCenterPriceAddress",
      "type": "event"
    },
    {
      "anonymous": false,
      "inputs": [
        {
          "indexed": false,
          "internalType": "uint256",
          "name": "maxCenterPrice",
          "type": "uint256"
        },
        {
          "indexed": false,
          "internalType": "uint256",
          "name": "minCenterPrice",
          "type": "uint256"
        }
      ],
      "name": "LogUpdateCenterPriceLimits",
      "type": "event"
    },
    {
      "anonymous": false,
      "inputs": [
        {
          "indexed": false,
          "internalType": "uint256",
          "name": "fee",
          "type": "uint256"
        },
        {
          "indexed": false,
          "internalType": "uint256",
          "name": "revenueCut",
          "type": "uint256"
        }
      ],
      "name": "LogUpdateFeeAndRevenueCut",
      "type": "event"
    },
    {
      "anonymous": false,
      "inputs": [
        {
          "indexed": false,
          "internalType": "uint256",
          "name": "hookAddress",
          "type": "uint256"
        }
      ],
      "name": "LogUpdateHookAddress",
      "type": "event"
    },
    {
      "anonymous": false,
      "inputs": [
        {
          "indexed": false,
          "internalType": "uint256",
          "name": "upperPercent",
          "type": "uint256"
        },
        {
          "indexed": false,
          "internalType": "uint256",
          "name": "lowerPercent",
          "type": "uint256"
        },
        {
          "indexed": false,
          "internalType": "uint256",
          "name": "shiftTime",
          "type": "uint256"
        }
      ],
      "name": "LogUpdateRangePercents",
      "type": "event"
    },
    {
      "anonymous": false,
      "inputs": [
        {
          "indexed": false,
          "internalType": "uint256",
          "name": "upperThresholdPercent",
          "type": "uint256"
        },
        {
          "indexed": false,
          "internalType": "uint256",
          "name": "lowerThresholdPercent",
          "type": "uint256"
        },
        {
          "indexed": false,
          "internalType": "uint256",
          "name": "thresholdShiftTime",
          "type": "uint256"
        },
        {
          "indexed": false,
          "internalType": "uint256",
          "name": "shiftTime",
          "type": "uint256"
        }
      ],
      "name": "LogUpdateThresholdPercent",
      "type": "event"
    },
    {
      "anonymous": false,
      "inputs": [
        {
          "components": [
            {
              "internalType": "address",
              "name": "user",
              "type": "address"
            },
            {
              "internalType": "uint256",
              "name": "expandPercent",
              "type": "uint256"
            },
            {
              "internalType": "uint256",
              "name": "expandDuration",
              "type": "uint256"
            },
            {
              "internalType": "uint256",
              "name": "baseDebtCeiling",
              "type": "uint256"
            },
            {
              "internalType": "uint256",
              "name": "maxDebtCeiling",
              "type": "uint256"
            }
          ],
          "indexed": false,
          "internalType": "struct Structs.UserBorrowConfig[]",
          "name": "userBorrowConfigs",
          "type": "tuple[]"
        }
      ],
      "name": "LogUpdateUserBorrowConfigs",
      "type": "event"
    },
    {
      "anonymous": false,
      "inputs": [
        {
          "components": [
            {
              "internalType": "address",
              "name": "user",
              "type": "address"
            },
            {
              "internalType": "uint256",
              "name": "expandPercent",
              "type": "uint256"
            },
            {
              "internalType": "uint256",
              "name": "expandDuration",
              "type": "uint256"
            },
            {
              "internalType": "uint256",
              "name": "baseWithdrawalLimit",
              "type": "uint256"
            }
          ],
          "indexed": false,
          "internalType": "struct Structs.UserSupplyConfig[]",
          "name": "userSupplyConfigs",
          "type": "tuple[]"
        }
      ],
      "name": "LogUpdateUserSupplyConfigs",
      "type": "event"
    },
    {
      "anonymous": false,
      "inputs": [
        {
          "indexed": false,
          "internalType": "address",
          "name": "user",
          "type": "address"
        },
        {
          "indexed": false,
          "internalType": "uint256",
          "name": "newLimit",
          "type": "uint256"
        }
      ],
      "name": "LogUpdateUserWithdrawalLimit",
      "type": "event"
    },
    {
      "anonymous": false,
      "inputs": [
        {
          "indexed": false,
          "internalType": "uint256",
          "name": "token0UtilizationLimit",
          "type": "uint256"
        },
        {
          "indexed": false,
          "internalType": "uint256",
          "name": "token1UtilizationLimit",
          "type": "uint256"
        }
      ],
      "name": "LogUpdateUtilizationLimit",
      "type": "event"
    },
    {
      "inputs": [
        {
          "components": [
            {
              "internalType": "bool",
              "name": "smartCol",
              "type": "bool"
            },
            {
              "internalType": "uint256",
              "name": "token0ColAmt",
              "type": "uint256"
            },
            {
              "internalType": "bool",
              "name": "smartDebt",
              "type": "bool"
            },
            {
              "internalType": "uint256",
              "name": "token0DebtAmt",
              "type": "uint256"
            },
            {
              "internalType": "uint256",
              "name": "centerPrice",
              "type": "uint256"
            },
            {
              "internalType": "uint256",
              "name": "fee",
              "type": "uint256"
            },
            {
              "internalType": "uint256",
              "name": "revenueCut",
              "type": "uint256"
            },
            {
              "internalType": "uint256",
              "name": "upperPercent",
              "type": "uint256"
            },
            {
              "internalType": "uint256",
              "name": "lowerPercent",
              "type": "uint256"
            },
            {
              "internalType": "uint256",
              "name": "upperShiftThreshold",
              "type": "uint256"
            },
            {
              "internalType": "uint256",
              "name": "lowerShiftThreshold",
              "type": "uint256"
            },
            {
              "internalType": "uint256",
              "name": "thresholdShiftTime",
              "type": "uint256"
            },
            {
              "internalType": "uint256",
              "name": "centerPriceAddress",
              "type": "uint256"
            },
            {
              "internalType": "uint256",
              "name": "hookAddress",
              "type": "uint256"
            },
            {
              "internalType": "uint256",
              "name": "maxCenterPrice",
              "type": "uint256"
            },
            {
              "internalType": "uint256",
              "name": "minCenterPrice",
              "type": "uint256"
            }
          ],
          "internalType": "struct Structs.InitializeVariables",
          "name": "i_",
          "type": "tuple"
        }
      ],
      "name": "initialize",
      "outputs": [],
      "stateMutability": "payable",
      "type": "function"
    },
    {
      "inputs": [],
      "name": "pauseSwapAndArbitrage",
      "outputs": [],
      "stateMutability": "nonpayable",
      "type": "function"
    },
    {
      "inputs": [
        {
          "internalType": "address",
          "name": "user_",
          "type": "address"
        },
        {
          "internalType": "bool",
          "name": "pauseSupply_",
          "type": "bool"
        },
        {
          "internalType": "bool",
          "name": "pauseBorrow_",
          "type": "bool"
        }
      ],
      "name": "pauseUser",
      "outputs": [],
      "stateMutability": "nonpayable",
      "type": "function"
    },
    {
      "inputs": [
        {
          "internalType": "bytes32",
          "name": "slot_",
          "type": "bytes32"
        }
      ],
      "name": "readFromStorage",
      "outputs": [
        {
          "internalType": "uint256",
          "name": "result_",
          "type": "uint256"
        }
      ],
      "stateMutability": "view",
      "type": "function"
    },
    {
      "inputs": [
        {
          "internalType": "address",
          "name": "token_",
          "type": "address"
        }
      ],
      "name": "rescueFunds",
      "outputs": [],
      "stateMutability": "nonpayable",
      "type": "function"
    },
    {
      "inputs": [
        {
          "internalType": "uint256",
          "name": "token0Amt_",
          "type": "uint256"
        }
      ],
      "name": "turnOnSmartCol",
      "outputs": [],
      "stateMutability": "payable",
      "type": "function"
    },
    {
      "inputs": [
        {
          "internalType": "uint256",
          "name": "token0Amt_",
          "type": "uint256"
        }
      ],
      "name": "turnOnSmartDebt",
      "outputs": [],
      "stateMutability": "nonpayable",
      "type": "function"
    },
    {
      "inputs": [],
      "name": "unpauseSwapAndArbitrage",
      "outputs": [],
      "stateMutability": "nonpayable",
      "type": "function"
    },
    {
      "inputs": [
        {
          "internalType": "address",
          "name": "user_",
          "type": "address"
        },
        {
          "internalType": "bool",
          "name": "unpauseSupply_",
          "type": "bool"
        },
        {
          "internalType": "bool",
          "name": "unpauseBorrow_",
          "type": "bool"
        }
      ],
      "name": "unpauseUser",
      "outputs": [],
      "stateMutability": "nonpayable",
      "type": "function"
    },
    {
      "inputs": [
        {
          "internalType": "uint256",
          "name": "centerPriceAddress_",
          "type": "uint256"
        },
        {
          "internalType": "uint256",
          "name": "percent_",
          "type": "uint256"
        },
        {
          "internalType": "uint256",
          "name": "time_",
          "type": "uint256"
        }
      ],
      "name": "updateCenterPriceAddress",
      "outputs": [],
      "stateMutability": "nonpayable",
      "type": "function"
    },
    {
      "inputs": [
        {
          "internalType": "uint256",
          "name": "maxCenterPrice_",
          "type": "uint256"
        },
        {
          "internalType": "uint256",
          "name": "minCenterPrice_",
          "type": "uint256"
        }
      ],
      "name": "updateCenterPriceLimits",
      "outputs": [],
      "stateMutability": "nonpayable",
      "type": "function"
    },
    {
      "inputs": [
        {
          "internalType": "uint256",
          "name": "fee_",
          "type": "uint256"
        },
        {
          "internalType": "uint256",
          "name": "revenueCut_",
          "type": "uint256"
        }
      ],
      "name": "updateFeeAndRevenueCut",
      "outputs": [],
      "stateMutability": "nonpayable",
      "type": "function"
    },
    {
      "inputs": [
        {
          "internalType": "uint256",
          "name": "hookAddress_",
          "type": "uint256"
        }
      ],
      "name": "updateHookAddress",
      "outputs": [],
      "stateMutability": "nonpayable",
      "type": "function"
    },
    {
      "inputs": [
        {
          "internalType": "uint256",
          "name": "upperPercent_",
          "type": "uint256"
        },
        {
          "internalType": "uint256",
          "name": "lowerPercent_",
          "type": "uint256"
        },
        {
          "internalType": "uint256",
          "name": "shiftTime_",
          "type": "uint256"
        }
      ],
      "name": "updateRangePercents",
      "outputs": [],
      "stateMutability": "nonpayable",
      "type": "function"
    },
    {
      "inputs": [
        {
          "internalType": "uint256",
          "name": "upperThresholdPercent_",
          "type": "uint256"
        },
        {
          "internalType": "uint256",
          "name": "lowerThresholdPercent_",
          "type": "uint256"
        },
        {
          "internalType": "uint256",
          "name": "thresholdShiftTime_",
          "type": "uint256"
        },
        {
          "internalType": "uint256",
          "name": "shiftTime_",
          "type": "uint256"
        }
      ],
      "name": "updateThresholdPercent",
      "outputs": [],
      "stateMutability": "nonpayable",
      "type": "function"
    },
    {
      "inputs": [
        {
          "components": [
            {
              "internalType": "address",
              "name": "user",
              "type": "address"
            },
            {
              "internalType": "uint256",
              "name": "expandPercent",
              "type": "uint256"
            },
            {
              "internalType": "uint256",
              "name": "expandDuration",
              "type": "uint256"
            },
            {
              "internalType": "uint256",
              "name": "baseDebtCeiling",
              "type": "uint256"
            },
            {
              "internalType": "uint256",
              "name": "maxDebtCeiling",
              "type": "uint256"
            }
          ],
          "internalType": "struct Structs.UserBorrowConfig[]",
          "name": "userBorrowConfigs_",
          "type": "tuple[]"
        }
      ],
      "name": "updateUserBorrowConfigs",
      "outputs": [],
      "stateMutability": "nonpayable",
      "type": "function"
    },
    {
      "inputs": [
        {
          "components": [
            {
              "internalType": "address",
              "name": "user",
              "type": "address"
            },
            {
              "internalType": "uint256",
              "name": "expandPercent",
              "type": "uint256"
            },
            {
              "internalType": "uint256",
              "name": "expandDuration",
              "type": "uint256"
            },
            {
              "internalType": "uint256",
              "name": "baseWithdrawalLimit",
              "type": "uint256"
            }
          ],
          "internalType": "struct Structs.UserSupplyConfig[]",
          "name": "userSupplyConfigs_",
          "type": "tuple[]"
        }
      ],
      "name": "updateUserSupplyConfigs",
      "outputs": [],
      "stateMutability": "nonpayable",
      "type": "function"
    },
    {
      "inputs": [
        {
          "internalType": "address",
          "name": "user_",
          "type": "address"
        },
        {
          "internalType": "uint256",
          "name": "newLimit_",
          "type": "uint256"
        }
      ],
      "name": "updateUserWithdrawalLimit",
      "outputs": [],
      "stateMutability": "nonpayable",
      "type": "function"
    },
    {
      "inputs": [
        {
          "internalType": "uint256",
          "name": "token0UtilizationLimit_",
          "type": "uint256"
        },
        {
          "internalType": "uint256",
          "name": "token1UtilizationLimit_",
          "type": "uint256"
        }
      ],
      "name": "updateUtilizationLimit",
      "outputs": [],
      "stateMutability": "nonpayable",
      "type": "function"
    }
  ],
  "transactionHash": "0xf6650920eec15364e34211b78d58600e1175b6d31948274f936c32509aa87e9f",
  "args": [
    "0x4EC7b668BAF70d4A4b0FC7941a7708A07b6d45Be"
  ],
  "numDeployments": 1,
  "bytecode": "0x60a060405234801561001057600080fd5b50306080526080516149636100a7600039600081816103eb015281816105e6015281816109d301528181610b6201528181610e3601528181611088015281816116040152818161175101528181611861015281816119af01528181611b9b01528181611e27015281816120a7015281816121fb015281816123b4015281816127cf01528181612a2a0152612c2501526149636000f3fe6080604052600436106101445760003560e01c8063999c1446116100c0578063b5c736e411610074578063e53b201711610059578063e53b20171461032c578063e552a1e31461034c578063fbfe2dac1461036c57600080fd5b8063b5c736e4146102db578063ba9af1e31461030c57600080fd5b8063a71e4958116100a5578063a71e49581461027b578063a9a362da1461029b578063b4e1e032146102bb57600080fd5b8063999c14461461023b578063a295521c1461025b57600080fd5b806353a97b41116101175780636552d966116100fc5780636552d966146101fe57806374f04a361461021357806382df16521461022657600080fd5b806353a97b41146101cb5780635cbbba28146101eb57600080fd5b8063021f4f451461014957806326fda0b61461016b5780632af693771461018b57806346887549146101ab575b600080fd5b34801561015557600080fd5b50610169610164366004613e46565b61038c565b005b34801561017757600080fd5b50610169610186366004613fb7565b61058c565b34801561019757600080fd5b506101696101a636600461408f565b610979565b3480156101b757600080fd5b506101696101c63660046140c6565b610b4b565b3480156101d757600080fd5b506101696101e636600461410b565b610ddc565b6101696101f9366004614137565b611071565b34801561020a57600080fd5b506101696115ed565b610169610221366004613e46565b6116f7565b34801561023257600080fd5b5061016961184a565b34801561024757600080fd5b5061016961025636600461408f565b611955565b34801561026757600080fd5b5061016961027636600461420b565b611b41565b34801561028757600080fd5b5061016961029636600461423d565b611dcd565b3480156102a757600080fd5b506101696102b6366004613e46565b61204d565b3480156102c757600080fd5b506101696102d636600461408f565b6121a1565b3480156102e757600080fd5b506102fa6102f6366004613e46565b5490565b60405190815260200160405180910390f35b34801561031857600080fd5b50610169610327366004614269565b61235a565b34801561033857600080fd5b50610169610347366004614344565b6127b8565b34801561035857600080fd5b5061016961036736600461410b565b6129d0565b34801561037857600080fd5b506101696103873660046140c6565b612c0e565b6007600154166000036103d4576040517f2fee3e0e00000000000000000000000000000000000000000000000000000000815261cb2160048201526024015b60405180910390fd5b73ffffffffffffffffffffffffffffffffffffffff7f0000000000000000000000000000000000000000000000000000000000000000163003610447576040517f2fee3e0e00000000000000000000000000000000000000000000000000000000815261cb2860048201526024016103cb565b633fffffff811115610489576040517f2fee3e0e00000000000000000000000000000000000000000000000000000000815261cb2460048201526024016103cb565b80156105215760003073ffffffffffffffffffffffffffffffffffffffff1663b7791bf26040518163ffffffff1660e01b815260040161024060405180830381865afa1580156104dd573d6000803e3d6000fd5b505050506040513d601f19601f8201168201806040525081019061050191906143ee565b90506000610513826080015184612ed3565b905061051e8161333f565b50505b600180547ffffffffffffffffffffff00000003fffffffffffffffffffffffffffffffffff16608e83901b1790556040517f94102a9d6162476c3137d9fd67d61facaaa3948cf6bf84ee18357a1d5b8c8d67906105819083815260200190565b60405180910390a150565b6007600154166000036105cf576040517f2fee3e0e00000000000000000000000000000000000000000000000000000000815261cb2160048201526024016103cb565b73ffffffffffffffffffffffffffffffffffffffff7f0000000000000000000000000000000000000000000000000000000000000000163003610642576040517f2fee3e0e00000000000000000000000000000000000000000000000000000000815261cb2860048201526024016103cb565b6000805b825181101561093d57610675838281518110610664576106646144d5565b60200260200101516000015161333f565b828181518110610687576106876144d5565b6020026020010151604001516000036106d0576040517f2fee3e0e00000000000000000000000000000000000000000000000000000000815261cb2660048201526024016103cb565b6127108382815181106106e5576106e56144d5565b602002602001015160200151111561072d576040517f2fee3e0e00000000000000000000000000000000000000000000000000000000815261cb2460048201526024016103cb565b62ffffff838281518110610743576107436144d5565b602002602001015160400151111561078b576040517f2fee3e0e00000000000000000000000000000000000000000000000000000000815261cb2460048201526024016103cb565b82818151811061079d5761079d6144d5565b6020026020010151606001516000036107e6576040517f2fee3e0e00000000000000000000000000000000000000000000000000000000815261cb2660048201526024016103cb565b600360008483815181106107fc576107fc6144d5565b60200260200101516000015173ffffffffffffffffffffffffffffffffffffffff1673ffffffffffffffffffffffffffffffffffffffff16815260200190815260200160002054915060c861087e600a60086000878681518110610862576108626144d5565b602002602001015160600151613397909392919063ffffffff16565b901b60b0848381518110610894576108946144d5565b602002602001015160400151901b60a28584815181106108b6576108b66144d5565b602002602001015160200151901b847ffffffffffc00000000000003ffffffffffffffffffffffffffffffffffffffff1660011717171760036000858481518110610903576109036144d5565b6020908102919091018101515173ffffffffffffffffffffffffffffffffffffffff16825281019190915260400160002055600101610646565b507fd680117828f16ca739150617fc61e326f97e4d9581d61b58992153b92c74fc738260405161096d9190614504565b60405180910390a15050565b6007600154166000036109bc576040517f2fee3e0e00000000000000000000000000000000000000000000000000000000815261cb2160048201526024016103cb565b73ffffffffffffffffffffffffffffffffffffffff7f0000000000000000000000000000000000000000000000000000000000000000163003610a2f576040517f2fee3e0e00000000000000000000000000000000000000000000000000000000815261cb2860048201526024016103cb565b8015801590610a3f575061271081105b15610a7a576040517f2fee3e0e00000000000000000000000000000000000000000000000000000000815261cb2660048201526024016103cb565b610a86612710826145ad565b9050620186a0821180610a995750606481115b15610ad4576040517f2fee3e0e00000000000000000000000000000000000000000000000000000000815261cb2460048201526024016103cb565b600180547ffffffffffffffffffffffffffffffffffffffffffffffffffffffffffc00000316600284901b17601383901b1790557f8708c2a2bbba04e8e9c7448cd64dc109b367341f5504a9835ffb5e7d9ae08ef682610b36612710846145e8565b6040805192835260208301919091520161096d565b73ffffffffffffffffffffffffffffffffffffffff7f0000000000000000000000000000000000000000000000000000000000000000163003610bbe576040517f2fee3e0e00000000000000000000000000000000000000000000000000000000815261cb2860048201526024016103cb565b610bc78361333f565b60008215610ca1575073ffffffffffffffffffffffffffffffffffffffff831660009081526003602052604081205490819003610c34576040517f2fee3e0e00000000000000000000000000000000000000000000000000000000815261cb2760048201526024016103cb565b80600116600103610c75576040517f2fee3e0e00000000000000000000000000000000000000000000000000000000815261cb2960048201526024016103cb565b73ffffffffffffffffffffffffffffffffffffffff841660009081526003602052604090206001821790555b8115610d79575073ffffffffffffffffffffffffffffffffffffffff831660009081526005602052604081205490819003610d0c576040517f2fee3e0e00000000000000000000000000000000000000000000000000000000815261cb2760048201526024016103cb565b80600116600103610d4d576040517f2fee3e0e00000000000000000000000000000000000000000000000000000000815261cb2960048201526024016103cb565b73ffffffffffffffffffffffffffffffffffffffff841660009081526005602052604090206001821790555b6040805173ffffffffffffffffffffffffffffffffffffffff861681528415156020820152831515918101919091527faf3eea5162d915eca532881ca41e1a5292bda2947fe94711cad3b4bb260b57f0906060015b60405180910390a150505050565b600760015416600003610e1f576040517f2fee3e0e00000000000000000000000000000000000000000000000000000000815261cb2160048201526024016103cb565b73ffffffffffffffffffffffffffffffffffffffff7f0000000000000000000000000000000000000000000000000000000000000000163003610e92576040517f2fee3e0e00000000000000000000000000000000000000000000000000000000815261cb2860048201526024016103cb565b633fffffff831180610ea2575081155b80610eaf5750620fffff82115b80610eb8575080155b80610ec55750620fffff81115b15610f00576040517f2fee3e0e00000000000000000000000000000000000000000000000000000000815261cb2460048201526024016103cb565b8215610ffc5760003073ffffffffffffffffffffffffffffffffffffffff1663b7791bf26040518163ffffffff1660e01b815260040161024060405180830381865afa158015610f54573d6000803e3d6000fd5b505050506040513d601f19601f82011682018060405250810190610f7891906143ee565b90506000610f8a826080015186612ed3565b9050610f958161333f565b5050600180547ffeffffffffffffffffffffffffffc0000000ffffffffffffffffffffffffffff16607085901b177f010000000000000000000000000000000000000000000000000000000000000017905542602183901b17603582901b1760085561102a565b600180547ffeffffffffffffffffffffffffffc0000000ffffffffffffffffffffffffffff16905560006008555b60408051848152602081018490529081018290527f06020920d3b0c76370853b723475139901039a0e0d8a2b442b2fc50587a80475906060015b60405180910390a1505050565b73ffffffffffffffffffffffffffffffffffffffff7f00000000000000000000000000000000000000000000000000000000000000001630036110e4576040517f2fee3e0e00000000000000000000000000000000000000000000000000000000815261cb2860048201526024016103cb565b611101734f6f977acdd1177dcd81ab83074855ecb9c2d49e61333f565b80518061110f575080604001515b611149576040517f2fee3e0e00000000000000000000000000000000000000000000000000000000815261cb2660048201526024016103cb565b60c08101511580159061116157506127108160c00151105b1561119c576040517f2fee3e0e00000000000000000000000000000000000000000000000000000000815261cb2660048201526024016103cb565b6127108160c001516111ae91906145ad565b60c08201526101208101516111c6906103e8906145ad565b6101208201526101408101516111df906103e8906145ad565b61014082015260a0810151620186a010806111fe575060648160c00151115b8061121a5750611213612710620f42406145ff565b8160e00151115b80611237575061122f612710620f42406145ff565b816101000151115b80611244575060e0810151155b806112525750610100810151155b8061126357506103e8816101200151115b8061127457506103e8816101400151115b806112825750610120810151155b806112905750610140810151155b8061129e5750610160810151155b806112b0575062ffffff816101600151115b806112c35750633fffffff816101800151115b806112d65750633fffffff816101a00151115b806112ea5750806101e00151816080015111155b806112fe5750806101c00151816080015110155b8061130c57506101e0810151155b15611347576040517f2fee3e0e00000000000000000000000000000000000000000000000000000000815261cb2460048201526024016103cb565b80516000901561136757611363826020015183608001516134c0565b6001175b81604001511561138757611383826060015183608001516139ce565b6002175b608082015161139b90602060086000613397565b6080830181905276070000f000000000000000000000000000000000000000600182901b602983901b1760519290921b919091174260791b171760009081556101e08301517efa000000000000000000000000000000000000000000000000000000000000917d3e80000000000000000000000000000000000000000000000000000000009160c8916114349190601490600890613397565b6101c0860151911b9060ac9061144f90601460086001613397565b901b608e866101a00151901b6070876101800151901b6058886101600151901b604e896101400151901b60448a6101200151901b602f8b6101000151901b601b8c60e00151901b60138d60c00151901b60028e60a00151901b8d171717171717171717171717176001819055507fa2bd88124c6cef5f905c8de83ae31b7495469be7a44f0a14ec766e4f2926b9e482600001518360400151846020015185606001518660a001516127108860c0015161150891906145e8565b6101808901516101a08a01516040805198151589529615156020890152958701949094526060860192909252608085015260a084015260c083015260e08201526101000160405180910390a17f4df8f1fe60aa37610aa9a5f2958b11c634c2b231797213ea15069cd214bfb7888260e001518361010001516103e885610120015161159391906145e8565b6103e88661014001516115a691906145e8565b6101608701516101c08801516101e0890151604080519788526020880196909652948601939093526060850191909152608084015260a083015260c082015260e00161096d565b73ffffffffffffffffffffffffffffffffffffffff7f0000000000000000000000000000000000000000000000000000000000000000163003611660576040517f2fee3e0e00000000000000000000000000000000000000000000000000000000815261cb2860048201526024016103cb565b60015460ff81901c6000036116a5576040517f2fee3e0e00000000000000000000000000000000000000000000000000000000815261cb2660048201526024016103cb565b7f7fffffffffffffffffffffffffffffffffffffffffffffffffffffffffffffff81166001556040517f665227fdef5dd5aac81086c2301f0e50676c351cf8da0f456de2c2c3e16409de90600090a150565b60076001541660000361173a576040517f2fee3e0e00000000000000000000000000000000000000000000000000000000815261cb2160048201526024016103cb565b73ffffffffffffffffffffffffffffffffffffffff7f00000000000000000000000000000000000000000000000000000000000000001630036117ad576040517f2fee3e0e00000000000000000000000000000000000000000000000000000000815261cb2860048201526024016103cb565b6001546001166001036117f0576040517f2fee3e0e00000000000000000000000000000000000000000000000000000000815261cb2260048201526024016103cb565b600054605981901c63ffffffff1660519190911c60ff161b61181282826134c0565b60018054811790556040518281527fa56b37b3edf9e1379ca408e58c1d4d85d03aa751c1dd8b76fa9813bfb2f9793d9060200161096d565b73ffffffffffffffffffffffffffffffffffffffff7f00000000000000000000000000000000000000000000000000000000000000001630036118bd576040517f2fee3e0e00000000000000000000000000000000000000000000000000000000815261cb2860048201526024016103cb565b600180549060ff82901c9003611903576040517f2fee3e0e00000000000000000000000000000000000000000000000000000000815261cb2660048201526024016103cb565b7f800000000000000000000000000000000000000000000000000000000000000081176001556040517f84039da4130b96ef0fa0fffa1bb1306c814913702f63ede2d1cbcdfa43fc67d690600090a150565b600760015416600003611998576040517f2fee3e0e00000000000000000000000000000000000000000000000000000000815261cb2160048201526024016103cb565b73ffffffffffffffffffffffffffffffffffffffff7f0000000000000000000000000000000000000000000000000000000000000000163003611a0b576040517f2fee3e0e00000000000000000000000000000000000000000000000000000000815261cb2860048201526024016103cb565b8115801590611a1b57506103e882105b80611a3157508015801590611a3157506103e881105b15611a6c576040517f2fee3e0e00000000000000000000000000000000000000000000000000000000815261cb2660048201526024016103cb565b611a786103e8836145ad565b9150611a866103e8826145ad565b90506103e8821180611a9957506103e881115b15611ad4576040517f2fee3e0e00000000000000000000000000000000000000000000000000000000815261cb2460048201526024016103cb565b600180547fff00000fffffffffffffffffffffffffffffffffffffffffffffffffffffffff1660e484901b1760ee83901b1790557f6d66190870f5a401bd2f24056c4f721a7a9e522501ea222a140bbc2debd302cd611b356103e8846145e8565b610b366103e8846145e8565b600760015416600003611b84576040517f2fee3e0e00000000000000000000000000000000000000000000000000000000815261cb2160048201526024016103cb565b73ffffffffffffffffffffffffffffffffffffffff7f0000000000000000000000000000000000000000000000000000000000000000163003611bf7576040517f2fee3e0e00000000000000000000000000000000000000000000000000000000815261cb2860048201526024016103cb565b600154611c066103e8866145ad565b9450611c146103e8856145ad565b93506103e8851180611c2757506103e884115b80611c30575082155b80611c3d575062ffffff83115b80611c46575084155b80611c4f575083155b80611c5c5750620fffff82115b80611c6e5750604381901c6001166001145b15611ca9576040517f2fee3e0e00000000000000000000000000000000000000000000000000000000815261cb2460048201526024016103cb565b605883901b604e85901b604487901b604360008611611cc9576000611ccc565b60015b60ff16901b7fffffffffffffffffffffffffffffffffffff000000000007ffffffffffffffff8516171717176001556103ff604482901c811690604e83901c1662ffffff605884901c168415611d6457600780546fffffffffffffffffffffffffffffffff601485901b8617602889901b1742603c1b17605d85901b1781167001000000000000000000000000000000000291161790555b7fdb32664896dae5696540e472ef73d084b10faf79a5560470bd88d34daee92401611d916103e88a6145e8565b611d9d6103e88a6145e8565b60408051928352602083019190915281018890526060810187905260800160405180910390a15050505050505050565b600760015416600003611e10576040517f2fee3e0e00000000000000000000000000000000000000000000000000000000815261cb2160048201526024016103cb565b73ffffffffffffffffffffffffffffffffffffffff7f0000000000000000000000000000000000000000000000000000000000000000163003611e83576040517f2fee3e0e00000000000000000000000000000000000000000000000000000000815261cb2860048201526024016103cb565b611e8c8261333f565b73ffffffffffffffffffffffffffffffffffffffff821660009081526003602052604081205490819003611ef0576040517f2fee3e0e00000000000000000000000000000000000000000000000000000000815261cb2760048201526024016103cb565b66ffffffffffffff600982901c1660ff600183901c161b60a282901c613fff16612710611f1d82846145e8565b611f2791906145ad565b611f3190836145ff565b9050831580611f3f57508084105b15611f4c57809350611f82565b7fffffffffffffffffffffffffffffffffffffffffffffffffffffffffffffffff841480611f7957508184115b15611f82578193505b6103ff60d084901c1660ff60c885901c161b80831015611fa157600094505b4260811b6041611fb687603860086000613397565b73ffffffffffffffffffffffffffffffffffffffff89166000818152600360209081526040918290209390941b7ffffffffffffffffffffffffc000000000000000000000001ffffffffffffffff8a16179490941790915582519081529081018790527fa0174ec7e13de1c5954dd270d67dafceaddc2e7c685d5dada0015b8bb51fb2d891015b60405180910390a1505050505050565b600760015416600003612090576040517f2fee3e0e00000000000000000000000000000000000000000000000000000000815261cb2160048201526024016103cb565b73ffffffffffffffffffffffffffffffffffffffff7f0000000000000000000000000000000000000000000000000000000000000000163003612103576040517f2fee3e0e00000000000000000000000000000000000000000000000000000000815261cb2860048201526024016103cb565b600154600216600203612146576040517f2fee3e0e00000000000000000000000000000000000000000000000000000000815261cb2360048201526024016103cb565b600054605981901c63ffffffff1660519190911c60ff161b61216882826139ce565b6001805460021790556040518281527f171ddc092d7f435025cb4835ca5827641260e8f2d37ffc48aca4836509b79d509060200161096d565b6007600154166000036121e4576040517f2fee3e0e00000000000000000000000000000000000000000000000000000000815261cb2160048201526024016103cb565b73ffffffffffffffffffffffffffffffffffffffff7f0000000000000000000000000000000000000000000000000000000000000000163003612257576040517f2fee3e0e00000000000000000000000000000000000000000000000000000000815261cb2860048201526024016103cb565b600054605981901c63ffffffff1660519190911c60ff161b818311158061227e5750818111155b806122895750828110155b80612292575081155b156122cd576040517f2fee3e0e00000000000000000000000000000000000000000000000000000000815261cb2660048201526024016103cb565b60c86122de83601460086000613397565b901b60ac6122f185601460086001613397565b901b6001547ffffffff00000000000000fffffffffffffffffffffffffffffffffffffffffff1617176001819055507fd4436251a5b52c21c680a58a0c189dad238e3150aaa2848762b76807e000d0d68383604051611064929190918252602082015260400190565b60076001541660000361239d576040517f2fee3e0e00000000000000000000000000000000000000000000000000000000815261cb2160048201526024016103cb565b73ffffffffffffffffffffffffffffffffffffffff7f0000000000000000000000000000000000000000000000000000000000000000163003612410576040517f2fee3e0e00000000000000000000000000000000000000000000000000000000815261cb2860048201526024016103cb565b6000805b825181101561278857612432838281518110610664576106646144d5565b828181518110612444576124446144d5565b602002602001015160800151838281518110612462576124626144d5565b60200260200101516060015111806124975750828181518110612487576124876144d5565b6020026020010151604001516000145b156124d2576040517f2fee3e0e00000000000000000000000000000000000000000000000000000000815261cb2660048201526024016103cb565b613fff8382815181106124e7576124e76144d5565b602002602001015160200151111561252f576040517f2fee3e0e00000000000000000000000000000000000000000000000000000000815261cb2460048201526024016103cb565b62ffffff838281518110612545576125456144d5565b602002602001015160400151111561258d576040517f2fee3e0e00000000000000000000000000000000000000000000000000000000815261cb2460048201526024016103cb565b82818151811061259f5761259f6144d5565b602002602001015160600151600014806125d657508281815181106125c6576125c66144d5565b6020026020010151608001516000145b15612611576040517f2fee3e0e00000000000000000000000000000000000000000000000000000000815261cb2660048201526024016103cb565b60056000848381518110612627576126276144d5565b60200260200101516000015173ffffffffffffffffffffffffffffffffffffffff1673ffffffffffffffffffffffffffffffffffffffff16815260200190815260200160002054915060da6126a9600a6008600087868151811061268d5761268d6144d5565b602002602001015160800151613397909392919063ffffffff16565b901b60c86126c8600a60086000888781518110610862576108626144d5565b901b60b08584815181106126de576126de6144d5565b602002602001015160400151901b60a2868581518110612700576127006144d5565b602002602001015160200151901b857ffffff0000000000000000003ffffffffffffffffffffffffffffffffffffffff16600117171717176005600085848151811061274e5761274e6144d5565b6020908102919091018101515173ffffffffffffffffffffffffffffffffffffffff16825281019190915260400160002055600101612414565b507fce933896f6e8c2a05b92cd7f854cd82e69ada9e533cf438643d5d3a7ac9cba9d8260405161096d9190614612565b73ffffffffffffffffffffffffffffffffffffffff7f000000000000000000000000000000000000000000000000000000000000000016300361282b576040517f2fee3e0e00000000000000000000000000000000000000000000000000000000815261cb2860048201526024016103cb565b60003073ffffffffffffffffffffffffffffffffffffffff1663b7791bf26040518163ffffffff1660e01b815260040161024060405180830381865afa158015612879573d6000803e3d6000fd5b505050506040513d601f19601f8201168201806040525081019061289d91906143ee565b6020015190507fffffffffffffffffffffffff111111111111111111111111111111111111111273ffffffffffffffffffffffffffffffffffffffff8316016128ef576128ea8147613d4d565b61298a565b6040517f70a0823100000000000000000000000000000000000000000000000000000000815230600482015261298a908390839073ffffffffffffffffffffffffffffffffffffffff8316906370a0823190602401602060405180830381865afa158015612961573d6000803e3d6000fd5b505050506040513d601f19601f820116820180604052508101906129859190614689565b613d9c565b60405173ffffffffffffffffffffffffffffffffffffffff831681527fdff2a3947bcf9fc0807b142e7c8497066db9183428b7bdbfb1fcd0f55c27a3df9060200161096d565b600760015416600003612a13576040517f2fee3e0e00000000000000000000000000000000000000000000000000000000815261cb2160048201526024016103cb565b73ffffffffffffffffffffffffffffffffffffffff7f0000000000000000000000000000000000000000000000000000000000000000163003612a86576040517f2fee3e0e00000000000000000000000000000000000000000000000000000000815261cb2860048201526024016103cb565b600154612a98612710620f42406145ff565b841180612ab25750612aaf612710620f42406145ff565b83115b80612abb575083155b80612ac4575082155b80612ad15750620fffff82115b80612ae35750601a81901c6001166001145b15612b1e576040517f2fee3e0e00000000000000000000000000000000000000000000000000000000815261cb2460048201526024016103cb565b602f83901b601b85901b601a60008511612b39576000612b3c565b60015b60ff16901b7ffffffffffffffffffffffffffffffffffffffffffffffff80000000003ffffff8416171717600155620fffff601b82901c811690602f83901c168315612bd057600780547fffffffffffffffffffffffffffffffff000000000000000000000000000000001642603c1b602887901b601485901b861717176fffffffffffffffffffffffffffffffff161790555b60408051878152602081018790529081018590527f4eb847e2909fd5c725b018d79e18739badfb33ba8aa65926fba2c644c3cc5a8e9060600161203d565b73ffffffffffffffffffffffffffffffffffffffff7f0000000000000000000000000000000000000000000000000000000000000000163003612c81576040517f2fee3e0e00000000000000000000000000000000000000000000000000000000815261cb2860048201526024016103cb565b612c8a8361333f565b60008215612d83575073ffffffffffffffffffffffffffffffffffffffff831660009081526003602052604081205490819003612cf7576040517f2fee3e0e00000000000000000000000000000000000000000000000000000000815261cb2760048201526024016103cb565b80600116600003612d38576040517f2fee3e0e00000000000000000000000000000000000000000000000000000000815261cb2960048201526024016103cb565b73ffffffffffffffffffffffffffffffffffffffff841660009081526003602052604090207ffffffffffffffffffffffffffffffffffffffffffffffffffffffffffffffffe821690555b8115612e7a575073ffffffffffffffffffffffffffffffffffffffff831660009081526005602052604081205490819003612dee576040517f2fee3e0e00000000000000000000000000000000000000000000000000000000815261cb2760048201526024016103cb565b80600116600003612e2f576040517f2fee3e0e00000000000000000000000000000000000000000000000000000000815261cb2960048201526024016103cb565b73ffffffffffffffffffffffffffffffffffffffff841660009081526005602052604090207ffffffffffffffffffffffffffffffffffffffffffffffffffffffffffffffffe821690555b6040805173ffffffffffffffffffffffffffffffffffffffff861681528415156020820152831515918101919091527fe785e6d4f9f1321c6c8d597385ff4ebcff4a597d59ac3911b5052fbf805eb6c990606001610dce565b6000606082600003612ee9576000915050613339565b607f8311612fb2576040517fd60000000000000000000000000000000000000000000000000000000000000060208201527f940000000000000000000000000000000000000000000000000000000000000060218201527fffffffffffffffffffffffffffffffffffffffff000000000000000000000000606086901b16602282015260f884901b7fff000000000000000000000000000000000000000000000000000000000000001660368201526037015b604051602081830303815290604052905061332e565b60ff831161308f576040517fd70000000000000000000000000000000000000000000000000000000000000060208201527f940000000000000000000000000000000000000000000000000000000000000060218201527fffffffffffffffffffffffffffffffffffffffff000000000000000000000000606086901b1660228201527f8100000000000000000000000000000000000000000000000000000000000000603682015260f884901b7fff00000000000000000000000000000000000000000000000000000000000000166037820152603801612f9c565b61ffff831161316d576040517fd80000000000000000000000000000000000000000000000000000000000000060208201527f940000000000000000000000000000000000000000000000000000000000000060218201527fffffffffffffffffffffffffffffffffffffffff000000000000000000000000606086901b1660228201527f820000000000000000000000000000000000000000000000000000000000000060368201527fffff00000000000000000000000000000000000000000000000000000000000060f085901b166037820152603901612f9c565b62ffffff831161324c576040517fd90000000000000000000000000000000000000000000000000000000000000060208201527f940000000000000000000000000000000000000000000000000000000000000060218201527fffffffffffffffffffffffffffffffffffffffff000000000000000000000000606086901b1660228201527f830000000000000000000000000000000000000000000000000000000000000060368201527fffffff000000000000000000000000000000000000000000000000000000000060e885901b166037820152603a01612f9c565b6040517fda0000000000000000000000000000000000000000000000000000000000000060208201527f940000000000000000000000000000000000000000000000000000000000000060218201527fffffffffffffffffffffffffffffffffffffffff000000000000000000000000606086901b1660228201527f840000000000000000000000000000000000000000000000000000000000000060368201527fffffffff0000000000000000000000000000000000000000000000000000000060e085901b166037820152603b0160405160208183030381529060405290505b805160209091012090505b92915050565b8073ffffffffffffffffffffffffffffffffffffffff163b600003613394576040517f2fee3e0e00000000000000000000000000000000000000000000000000000000815261cb2560048201526024016103cb565b50565b600080856fffffffffffffffffffffffffffffffff8111156133ba5760809150811c5b67ffffffffffffffff8111156133d2576040918201911c5b63ffffffff8111156133e6576020918201911c5b61ffff8111156133f8576010918201911c5b60ff811115613409576008918201911c5b600f81111561341a576004918201911c5b600381111561342b576002918201911c5b600181111561343b576001820191505b8015613448576001820191505b50848110156134545750835b848103905085811c600082118416156134a357600181019050806001871b036134a357506001908101907fffffffffffffffffffffffffffffffffffffffffffffffffffffffffffffffff86011b5b6001851b82106134b257600080fd5b90931b909201949350505050565b60003073ffffffffffffffffffffffffffffffffffffffff1663b7791bf26040518163ffffffff1660e01b815260040161024060405180830381865afa15801561350e573d6000803e3d6000fd5b505050506040513d601f19601f8201168201806040525081019061353291906143ee565b905060003073ffffffffffffffffffffffffffffffffffffffff16631595cbd36040518163ffffffff1660e01b8152600401608060405180830381865afa158015613581573d6000803e3d6000fd5b505050506040513d601f19601f820116820180604052508101906135a591906146a2565b602081015181519192506000916135bc90876145e8565b6135c691906145ad565b905060006b033b2e3c9fd0803ce80000006135e183876145e8565b6135eb91906145ad565b90506000836040015184606001518361360491906145e8565b61360e91906145ad565b60208601519091503415801590613653575060a086015173ffffffffffffffffffffffffffffffffffffffff1673eeeeeeeeeeeeeeeeeeeeeeeeeeeeeeeeeeeeeeee14155b801561368d575060c086015173ffffffffffffffffffffffffffffffffffffffff1673eeeeeeeeeeeeeeeeeeeeeeeeeeeeeeeeeeeeeeee14155b156136c8576040517f2fee3e0e00000000000000000000000000000000000000000000000000000000815261cb2660048201526024016103cb565b60008060005b600281101561392d57806000036136ee578860a0015192508a91506136f9565b8860c0015192508491505b7fffffffffffffffffffffffff111111111111111111111111111111111111111273ffffffffffffffffffffffffffffffffffffffff84160161385e5781341115613756576137513361374c84346145ff565b613d4d565b613794565b81341015613794576040517f2fee3e0e00000000000000000000000000000000000000000000000000000000815261cb2660048201526024016103cb565b8373ffffffffffffffffffffffffffffffffffffffff1663ad967e158385856000806000336040516020016137e5919073ffffffffffffffffffffffffffffffffffffffff91909116815260200190565b6040516020818303038152906040526040518863ffffffff1660e01b81526004016138159695949392919061474c565b604080518083038185885af1158015613832573d6000803e3d6000fd5b50505050506040513d601f19601f8201168201806040525081019061385791906147a5565b505061391b565b604080513360208083019190915282518083039091018152818301928390527fad967e150000000000000000000000000000000000000000000000000000000090925273ffffffffffffffffffffffffffffffffffffffff86169163ad967e15916138d691879187916000918291829160440161474c565b60408051808303816000875af11580156138f4573d6000803e3d6000fd5b505050506040513d601f19601f8201168201806040525081019061391891906147a5565b50505b80613925816147c9565b9150506136ce565b5084861161395b57613941600c60126145ff565b61394c90600a614921565b61395690866145e8565b61397c565b613967600c60126145ff565b61397290600a614921565b61397c90876145e8565b6002819055633b9aca0011156139c2576040517f2fee3e0e00000000000000000000000000000000000000000000000000000000815261cb2960048201526024016103cb565b50505050505050505050565b60003073ffffffffffffffffffffffffffffffffffffffff1663b7791bf26040518163ffffffff1660e01b815260040161024060405180830381865afa158015613a1c573d6000803e3d6000fd5b505050506040513d601f19601f82011682018060405250810190613a4091906143ee565b905060003073ffffffffffffffffffffffffffffffffffffffff16631595cbd36040518163ffffffff1660e01b8152600401608060405180830381865afa158015613a8f573d6000803e3d6000fd5b505050506040513d601f19601f82011682018060405250810190613ab391906146a2565b60208101518151919250600091613aca90876145e8565b613ad491906145ad565b905060006b033b2e3c9fd0803ce8000000613aef83876145e8565b613af991906145ad565b905060008360400151846060015183613b1291906145e8565b613b1c91906145ad565b60208681015160a0880151604080516000808252948101918290527fad967e1500000000000000000000000000000000000000000000000000000000909152939450909273ffffffffffffffffffffffffffffffffffffffff84169263ad967e1592613ba8929091908d908290734f6f977acdd1177dcd81ab83074855ecb9c2d49e906024810161474c565b60408051808303816000875af1158015613bc6573d6000803e3d6000fd5b505050506040513d601f19601f82011682018060405250810190613bea91906147a5565b505060c086015160408051600080825260208201928390527fad967e150000000000000000000000000000000000000000000000000000000090925273ffffffffffffffffffffffffffffffffffffffff84169263ad967e1592613c6b9287908290734f6f977acdd1177dcd81ab83074855ecb9c2d49e906024810161474c565b60408051808303816000875af1158015613c89573d6000803e3d6000fd5b505050506040513d601f19601f82011682018060405250810190613cad91906147a5565b5050828411613cdc57613cc2600c60126145ff565b613ccd90600a614921565b613cd790846145e8565b613cfd565b613ce8600c60126145ff565b613cf390600a614921565b613cfd90856145e8565b6004819055633b9aca001115613d43576040517f2fee3e0e00000000000000000000000000000000000000000000000000000000815261cb2960048201526024016103cb565b5050505050505050565b600080600080600085875af1905080613d97576040517fdee51a8a0000000000000000000000000000000000000000000000000000000081526201155a60048201526024016103cb565b505050565b60006040517fa9059cbb00000000000000000000000000000000000000000000000000000000815273ffffffffffffffffffffffffffffffffffffffff84166004820152826024820152602060006044836000895af13d15601f3d1160016000511416171691505080613e40576040517fdee51a8a0000000000000000000000000000000000000000000000000000000081526201155a60048201526024016103cb565b50505050565b600060208284031215613e5857600080fd5b5035919050565b7f4e487b7100000000000000000000000000000000000000000000000000000000600052604160045260246000fd5b6040516080810167ffffffffffffffff81118282101715613eb157613eb1613e5f565b60405290565b604051610200810167ffffffffffffffff81118282101715613eb157613eb1613e5f565b60405160a0810167ffffffffffffffff81118282101715613eb157613eb1613e5f565b6040516101c0810167ffffffffffffffff81118282101715613eb157613eb1613e5f565b604051601f82017fffffffffffffffffffffffffffffffffffffffffffffffffffffffffffffffe016810167ffffffffffffffff81118282101715613f6957613f69613e5f565b604052919050565b600067ffffffffffffffff821115613f8b57613f8b613e5f565b5060051b60200190565b73ffffffffffffffffffffffffffffffffffffffff8116811461339457600080fd5b60006020808385031215613fca57600080fd5b823567ffffffffffffffff811115613fe157600080fd5b8301601f81018513613ff257600080fd5b803561400561400082613f71565b613f22565b81815260079190911b8201830190838101908783111561402457600080fd5b928401925b8284101561408457608084890312156140425760008081fd5b61404a613e8e565b843561405581613f95565b815284860135868201526040808601359082015260608086013590820152825260809093019290840190614029565b979650505050505050565b600080604083850312156140a257600080fd5b50508035926020909101359150565b803580151581146140c157600080fd5b919050565b6000806000606084860312156140db57600080fd5b83356140e681613f95565b92506140f4602085016140b1565b9150614102604085016140b1565b90509250925092565b60008060006060848603121561412057600080fd5b505081359360208301359350604090920135919050565b6000610200828403121561414a57600080fd5b614152613eb7565b61415b836140b1565b815260208301356020820152614173604084016140b1565b6040820152606083810135908201526080808401359082015260a0808401359082015260c0808401359082015260e08084013590820152610100808401359082015261012080840135908201526101408084013590820152610160808401359082015261018080840135908201526101a080840135908201526101c080840135908201526101e0928301359281019290925250919050565b6000806000806080858703121561422157600080fd5b5050823594602084013594506040840135936060013592509050565b6000806040838503121561425057600080fd5b823561425b81613f95565b946020939093013593505050565b6000602080838503121561427c57600080fd5b823567ffffffffffffffff81111561429357600080fd5b8301601f810185136142a457600080fd5b80356142b261400082613f71565b81815260a091820283018401918482019190888411156142d157600080fd5b938501935b838510156143385780858a0312156142ee5760008081fd5b6142f6613edb565b853561430181613f95565b81528587013587820152604080870135908201526060808701359082015260808087013590820152835293840193918501916142d6565b50979650505050505050565b60006020828403121561435657600080fd5b813561436181613f95565b9392505050565b80516140c181613f95565b600060a0828403121561438557600080fd5b61438d613edb565b9050815161439a81613f95565b815260208201516143aa81613f95565b602082015260408201516143bd81613f95565b604082015260608201516143d081613f95565b606082015260808201516143e381613f95565b608082015292915050565b6000610240828403121561440157600080fd5b614409613efe565b8251815261441960208401614368565b602082015261442a60408401614368565b604082015261443c8460608501614373565b606082015261010061444f818501614368565b6080830152610120614462818601614368565b60a0840152610140614475818701614368565b60c08501526101608087015160e086015261018080880151858701526101a0945084880151848701526101c0880151838701526101e088015182870152610200880151818701525050505061022084015181830152508091505092915050565b7f4e487b7100000000000000000000000000000000000000000000000000000000600052603260045260246000fd5b602080825282518282018190526000919060409081850190868401855b82811015614571578151805173ffffffffffffffffffffffffffffffffffffffff168552868101518786015285810151868601526060908101519085015260809093019290850190600101614521565b5091979650505050505050565b7f4e487b7100000000000000000000000000000000000000000000000000000000600052601160045260246000fd5b6000826145e3577f4e487b7100000000000000000000000000000000000000000000000000000000600052601260045260246000fd5b500490565b80820281158282048414176133395761333961457e565b818103818111156133395761333961457e565b602080825282518282018190526000919060409081850190868401855b82811015614571578151805173ffffffffffffffffffffffffffffffffffffffff16855286810151878601528581015186860152606080820151908601526080908101519085015260a0909301929085019060010161462f565b60006020828403121561469b57600080fd5b5051919050565b6000608082840312156146b457600080fd5b6146bc613e8e565b825181526020830151602082015260408301516040820152606083015160608201528091505092915050565b6000815180845260005b8181101561470e576020818501810151868301820152016146f2565b5060006020828601015260207fffffffffffffffffffffffffffffffffffffffffffffffffffffffffffffffe0601f83011685010191505092915050565b600073ffffffffffffffffffffffffffffffffffffffff8089168352876020840152866040840152808616606084015280851660808401525060c060a083015261479960c08301846146e8565b98975050505050505050565b600080604083850312156147b857600080fd5b505080516020909101519092909150565b60007fffffffffffffffffffffffffffffffffffffffffffffffffffffffffffffffff82036147fa576147fa61457e565b5060010190565b600181815b8085111561485a57817fffffffffffffffffffffffffffffffffffffffffffffffffffffffffffffffff048211156148405761484061457e565b8085161561484d57918102915b93841c9390800290614806565b509250929050565b60008261487157506001613339565b8161487e57506000613339565b8160018114614894576002811461489e576148ba565b6001915050613339565b60ff8411156148af576148af61457e565b50506001821b613339565b5060208310610133831016604e8410600b84101617156148dd575081810a613339565b6148e78383614801565b807fffffffffffffffffffffffffffffffffffffffffffffffffffffffffffffffff048211156149195761491961457e565b029392505050565b6000614361838361486256fea2646970667358221220768fa7518f0269693474f5970a831f878e41adea025f7db6225d828bbc99186e64736f6c63430008150033"
}