{
  "address": "0xb5ac87745A14B71dDC418fd5A2A2596D7f80E49D",
  "abi": [
    {
      "inputs": [
        {
          "internalType": "contract IFluidLiquidity",
          "name": "liquidity_",
          "type": "address"
        }
      ],
      "stateMutability": "nonpayable",
      "type": "constructor"
    },
    {
      "inputs": [
        {
          "internalType": "uint256",
          "name": "errorId_",
          "type": "uint256"
        }
      ],
      "name": "FluidReserveContractError",
      "type": "error"
    },
    {
      "inputs": [
        {
          "internalType": "uint256",
          "name": "errorId_",
          "type": "uint256"
        }
      ],
      "name": "FluidSafeTransferError",
      "type": "error"
    },
    {
      "anonymous": false,
      "inputs": [
        {
          "indexed": false,
          "internalType": "address",
          "name": "previousAdmin",
          "type": "address"
        },
        {
          "indexed": false,
          "internalType": "address",
          "name": "newAdmin",
          "type": "address"
        }
      ],
      "name": "AdminChanged",
      "type": "event"
    },
    {
      "anonymous": false,
      "inputs": [
        {
          "indexed": true,
          "internalType": "address",
          "name": "beacon",
          "type": "address"
        }
      ],
      "name": "BeaconUpgraded",
      "type": "event"
    },
    {
      "anonymous": false,
      "inputs": [
        {
          "indexed": false,
          "internalType": "uint8",
          "name": "version",
          "type": "uint8"
        }
      ],
      "name": "Initialized",
      "type": "event"
    },
    {
      "anonymous": false,
      "inputs": [
        {
          "indexed": true,
          "internalType": "address",
          "name": "protocol",
          "type": "address"
        },
        {
          "indexed": true,
          "internalType": "address",
          "name": "token",
          "type": "address"
        },
        {
          "indexed": false,
          "internalType": "uint256",
          "name": "newAllowance",
          "type": "uint256"
        },
        {
          "indexed": false,
          "internalType": "uint256",
          "name": "existingAllowance",
          "type": "uint256"
        }
      ],
      "name": "LogAllow",
      "type": "event"
    },
    {
      "anonymous": false,
      "inputs": [
        {
          "indexed": true,
          "internalType": "address",
          "name": "protocol",
          "type": "address"
        },
        {
          "indexed": false,
          "internalType": "uint256",
          "name": "amount",
          "type": "uint256"
        }
      ],
      "name": "LogRebalanceFToken",
      "type": "event"
    },
    {
      "anonymous": false,
      "inputs": [
        {
          "indexed": true,
          "internalType": "address",
          "name": "protocol",
          "type": "address"
        },
        {
          "indexed": false,
          "internalType": "int256",
          "name": "colAmount",
          "type": "int256"
        },
        {
          "indexed": false,
          "internalType": "int256",
          "name": "debtAmount",
          "type": "int256"
        }
      ],
      "name": "LogRebalanceVault",
      "type": "event"
    },
    {
      "anonymous": false,
      "inputs": [
        {
          "indexed": true,
          "internalType": "address",
          "name": "protocol",
          "type": "address"
        },
        {
          "indexed": true,
          "internalType": "address",
          "name": "token",
          "type": "address"
        }
      ],
      "name": "LogRevoke",
      "type": "event"
    },
    {
      "anonymous": false,
      "inputs": [
        {
          "indexed": true,
          "internalType": "address",
          "name": "token",
          "type": "address"
        }
      ],
      "name": "LogTransferFunds",
      "type": "event"
    },
    {
      "anonymous": false,
      "inputs": [
        {
          "indexed": true,
          "internalType": "address",
          "name": "auth",
          "type": "address"
        },
        {
          "indexed": false,
          "internalType": "bool",
          "name": "isAuth",
          "type": "bool"
        }
      ],
      "name": "LogUpdateAuth",
      "type": "event"
    },
    {
      "anonymous": false,
      "inputs": [
        {
          "indexed": true,
          "internalType": "address",
          "name": "rebalancer",
          "type": "address"
        },
        {
          "indexed": false,
          "internalType": "bool",
          "name": "isRebalancer",
          "type": "bool"
        }
      ],
      "name": "LogUpdateRebalancer",
      "type": "event"
    },
    {
      "anonymous": false,
      "inputs": [
        {
          "indexed": true,
          "internalType": "address",
          "name": "previousOwner",
          "type": "address"
        },
        {
          "indexed": true,
          "internalType": "address",
          "name": "newOwner",
          "type": "address"
        }
      ],
      "name": "OwnershipTransferred",
      "type": "event"
    },
    {
      "anonymous": false,
      "inputs": [
        {
          "indexed": true,
          "internalType": "address",
          "name": "implementation",
          "type": "address"
        }
      ],
      "name": "Upgraded",
      "type": "event"
    },
    {
      "inputs": [],
      "name": "LIQUIDITY",
      "outputs": [
        {
          "internalType": "contract IFluidLiquidity",
          "name": "",
          "type": "address"
        }
      ],
      "stateMutability": "view",
      "type": "function"
    },
    {
      "inputs": [
        {
          "internalType": "address[]",
          "name": "protocols_",
          "type": "address[]"
        },
        {
          "internalType": "address[]",
          "name": "tokens_",
          "type": "address[]"
        },
        {
          "internalType": "uint256[]",
          "name": "amounts_",
          "type": "uint256[]"
        }
      ],
      "name": "approve",
      "outputs": [],
      "stateMutability": "nonpayable",
      "type": "function"
    },
    {
      "inputs": [
        {
          "internalType": "address",
          "name": "protocol_",
          "type": "address"
        }
      ],
      "name": "getProtocolTokens",
      "outputs": [
        {
          "internalType": "address[]",
          "name": "result_",
          "type": "address[]"
        }
      ],
      "stateMutability": "view",
      "type": "function"
    },
    {
      "inputs": [
        {
          "internalType": "address[]",
          "name": "_auths",
          "type": "address[]"
        },
        {
          "internalType": "address[]",
          "name": "_rebalancers",
          "type": "address[]"
        },
        {
          "internalType": "address",
          "name": "owner_",
          "type": "address"
        }
      ],
      "name": "initialize",
      "outputs": [],
      "stateMutability": "nonpayable",
      "type": "function"
    },
    {
      "inputs": [
        {
          "internalType": "address",
          "name": "",
          "type": "address"
        }
      ],
      "name": "isAuth",
      "outputs": [
        {
          "internalType": "bool",
          "name": "",
          "type": "bool"
        }
      ],
      "stateMutability": "view",
      "type": "function"
    },
    {
      "inputs": [
        {
          "internalType": "address",
          "name": "",
          "type": "address"
        }
      ],
      "name": "isRebalancer",
      "outputs": [
        {
          "internalType": "bool",
          "name": "",
          "type": "bool"
        }
      ],
      "stateMutability": "view",
      "type": "function"
    },
    {
      "inputs": [],
      "name": "owner",
      "outputs": [
        {
          "internalType": "address",
          "name": "",
          "type": "address"
        }
      ],
      "stateMutability": "view",
      "type": "function"
    },
    {
      "inputs": [],
      "name": "proxiableUUID",
      "outputs": [
        {
          "internalType": "bytes32",
          "name": "",
          "type": "bytes32"
        }
      ],
      "stateMutability": "view",
      "type": "function"
    },
    {
      "inputs": [
        {
          "internalType": "address",
          "name": "protocol_",
          "type": "address"
        },
        {
          "internalType": "uint256",
          "name": "value_",
          "type": "uint256"
        }
      ],
      "name": "rebalanceFToken",
      "outputs": [],
      "stateMutability": "payable",
      "type": "function"
    },
    {
      "inputs": [
        {
          "internalType": "address",
          "name": "protocol_",
          "type": "address"
        },
        {
          "internalType": "uint256",
          "name": "value_",
          "type": "uint256"
        }
      ],
      "name": "rebalanceVault",
      "outputs": [],
      "stateMutability": "payable",
      "type": "function"
    },
    {
      "inputs": [],
      "name": "renounceOwnership",
      "outputs": [],
      "stateMutability": "view",
      "type": "function"
    },
    {
      "inputs": [
        {
          "internalType": "address[]",
          "name": "protocols_",
          "type": "address[]"
        },
        {
          "internalType": "address[]",
          "name": "tokens_",
          "type": "address[]"
        }
      ],
      "name": "revoke",
      "outputs": [],
      "stateMutability": "nonpayable",
      "type": "function"
    },
    {
      "inputs": [
        {
          "internalType": "address[]",
          "name": "tokens_",
          "type": "address[]"
        }
      ],
      "name": "transferFunds",
      "outputs": [],
      "stateMutability": "nonpayable",
      "type": "function"
    },
    {
      "inputs": [
        {
          "internalType": "address",
          "name": "newOwner",
          "type": "address"
        }
      ],
      "name": "transferOwnership",
      "outputs": [],
      "stateMutability": "nonpayable",
      "type": "function"
    },
    {
      "inputs": [
        {
          "internalType": "address",
          "name": "auth_",
          "type": "address"
        },
        {
          "internalType": "bool",
          "name": "isAuth_",
          "type": "bool"
        }
      ],
      "name": "updateAuth",
      "outputs": [],
      "stateMutability": "nonpayable",
      "type": "function"
    },
    {
      "inputs": [
        {
          "internalType": "address",
          "name": "rebalancer_",
          "type": "address"
        },
        {
          "internalType": "bool",
          "name": "isRebalancer_",
          "type": "bool"
        }
      ],
      "name": "updateRebalancer",
      "outputs": [],
      "stateMutability": "nonpayable",
      "type": "function"
    },
    {
      "inputs": [
        {
          "internalType": "address",
          "name": "newImplementation",
          "type": "address"
        }
      ],
      "name": "upgradeTo",
      "outputs": [],
      "stateMutability": "nonpayable",
      "type": "function"
    },
    {
      "inputs": [
        {
          "internalType": "address",
          "name": "newImplementation",
          "type": "address"
        },
        {
          "internalType": "bytes",
          "name": "data",
          "type": "bytes"
        }
      ],
      "name": "upgradeToAndCall",
      "outputs": [],
      "stateMutability": "payable",
      "type": "function"
    },
    {
      "stateMutability": "payable",
      "type": "receive"
    }
  ],
  "transactionHash": "0x2dfdbb958fe5c8bbd64e36f42b263623ff29346fd8ba3a67757b4f27110a3309",
  "args": [
    "0x52Aa899454998Be5b000Ad077a46Bbe360F4e497"
  ],
  "numDeployments": 4,
  "solcInputHash": "0d3d9b6fb2c5a83ef78cb6d542656b82",
  "bytecode": "0x60c06040523060a0523480156200001557600080fd5b506040516200326d3803806200326d833981016040819052620000389162000142565b6001600160a01b0381166080819052819062000071576040516306129a4760e51b815262015f9260048201526024015b60405180910390fd5b6200007b62000083565b505062000174565b600054610100900460ff1615620000ed5760405162461bcd60e51b815260206004820152602760248201527f496e697469616c697a61626c653a20636f6e747261637420697320696e697469604482015266616c697a696e6760c81b606482015260840162000068565b60005460ff908116101562000140576000805460ff191660ff9081179091556040519081527f7f26b83ff96e1f2b6a682f133852f6798a09c465da95921460cefb38474024989060200160405180910390a15b565b6000602082840312156200015557600080fd5b81516001600160a01b03811681146200016d57600080fd5b9392505050565b60805160a0516130b0620001bd60003960008181610c9301528181610d4301528181610e9801528181610f4801526114720152600081816101f801526118f401526130b06000f3fe60806040526004361061012d5760003560e01c80635274ac3f116100a5578063801ca14411610074578063dde008b911610059578063dde008b914610372578063e9c771b214610392578063f2fde38b146103b257600080fd5b8063801ca1441461031a5780638da5cb5b1461034757600080fd5b80635274ac3f146102a257806352d1902d146102c2578063702b5175146102e5578063715018a61461030557600080fd5b80632520e7ff116100fc5780633659cfe6116100e15780633659cfe61461023f578063467c9eff1461025f5780634f1ef2861461028f57600080fd5b80632520e7ff146101a15780632861c7d1146101e657600080fd5b806303e80461146101395780630de308361461015b578063111a399b1461017b57806313b14ebb1461018e57600080fd5b3661013457005b600080fd5b34801561014557600080fd5b506101596101543660046129ac565b6103d2565b005b34801561016757600080fd5b50610159610176366004612a98565b61068f565b610159610189366004612ad1565b6107fe565b61015961019c366004612ad1565b610b70565b3480156101ad57600080fd5b506101d16101bc366004612afd565b60656020526000908152604090205460ff1681565b60405190151581526020015b60405180910390f35b3480156101f257600080fd5b5061021a7f000000000000000000000000000000000000000000000000000000000000000081565b60405173ffffffffffffffffffffffffffffffffffffffff90911681526020016101dd565b34801561024b57600080fd5b5061015961025a366004612afd565b610c7c565b34801561026b57600080fd5b506101d161027a366004612afd565b60666020526000908152604090205460ff1681565b61015961029d366004612b21565b610e81565b3480156102ae57600080fd5b506101596102bd366004612be7565b611077565b3480156102ce57600080fd5b506102d7611458565b6040519081526020016101dd565b3480156102f157600080fd5b50610159610300366004612c5f565b611544565b34801561031157600080fd5b5061015961170c565b34801561032657600080fd5b5061033a610335366004612afd565b61174b565b6040516101dd9190612cc3565b34801561035357600080fd5b5060335473ffffffffffffffffffffffffffffffffffffffff1661021a565b34801561037e57600080fd5b5061015961038d366004612d1d565b61182d565b34801561039e57600080fd5b506101596103ad366004612a98565b611a4a565b3480156103be57600080fd5b506101596103cd366004612afd565b611b28565b3360009081526065602052604090205460ff1615801561042657503361040d60335473ffffffffffffffffffffffffffffffffffffffff1690565b73ffffffffffffffffffffffffffffffffffffffff1614155b15610467576040517fc25348e000000000000000000000000000000000000000000000000000000000815262015f9160048201526024015b60405180910390fd5b8151835114158061047a57508051825114155b156104b6576040517fc25348e000000000000000000000000000000000000000000000000000000000815262015f93600482015260240161045e565b60005b83518110156106895760008482815181106104d6576104d6612d92565b6020026020010151905060008483815181106104f4576104f4612d92565b60200260200101519050600084848151811061051257610512612d92565b60209081029190910101516040517fdd62ed3e00000000000000000000000000000000000000000000000000000000815230600482015273ffffffffffffffffffffffffffffffffffffffff858116602483015291925060009184169063dd62ed3e90604401602060405180830381865afa158015610595573d6000803e3d6000fd5b505050506040513d601f19601f820116820180604052508101906105b99190612dc1565b90506105c783856000611bdc565b6105d2838584611bdc565b73ffffffffffffffffffffffffffffffffffffffff841660009081526067602052604090206106019084611d95565b508273ffffffffffffffffffffffffffffffffffffffff168473ffffffffffffffffffffffffffffffffffffffff167ff07829fca7213317a8d0869b30e579887a8d2a7bfd3a28f25075bd01b370d756848460405161066a929190918252602082015260400190565b60405180910390a350505050808061068190612e09565b9150506104b9565b50505050565b3360009081526065602052604090205460ff161580156106e35750336106ca60335473ffffffffffffffffffffffffffffffffffffffff1690565b73ffffffffffffffffffffffffffffffffffffffff1614155b1561071f576040517fc25348e000000000000000000000000000000000000000000000000000000000815262015f91600482015260240161045e565b8173ffffffffffffffffffffffffffffffffffffffff8116610772576040517fc25348e000000000000000000000000000000000000000000000000000000000815262015f92600482015260240161045e565b73ffffffffffffffffffffffffffffffffffffffff831660008181526066602090815260409182902080547fffffffffffffffffffffffffffffffffffffffffffffffffffffffffffffff001686151590811790915591519182527fad476fc62f6b1b5d25b35bd756cfbfcd299b581b8dfb25d5492c4305a0969bd291015b60405180910390a2505050565b3360009081526066602052604090205460ff1661084c576040517fc25348e000000000000000000000000000000000000000000000000000000000815262015f91600482015260240161045e565b6000808373ffffffffffffffffffffffffffffffffffffffff16637d7c2a1c846040518263ffffffff1660e01b8152600401604080518083038185885af115801561089b573d6000803e3d6000fd5b50505050506040513d601f19601f820116820180604052508101906108c09190612e41565b9150915060008473ffffffffffffffffffffffffffffffffffffffff1663b7791bf26040518163ffffffff1660e01b81526004016101a060405180830381865afa158015610912573d6000803e3d6000fd5b505050506040513d601f19601f820116820180604052508101906109369190612e86565b905073eeeeeeeeeeeeeeeeeeeeeeeeeeeeeeeeeeeeeeee73ffffffffffffffffffffffffffffffffffffffff16816080015173ffffffffffffffffffffffffffffffffffffffff16036109cf576000841180156109935750600083125b156109cf576040517fc25348e000000000000000000000000000000000000000000000000000000000815262015f95600482015260240161045e565b73eeeeeeeeeeeeeeeeeeeeeeeeeeeeeeeeeeeeeeee73ffffffffffffffffffffffffffffffffffffffff168160a0015173ffffffffffffffffffffffffffffffffffffffff1603610a6657600084118015610a2a5750600082135b15610a66576040517fc25348e000000000000000000000000000000000000000000000000000000000815262015f95600482015260240161045e565b600084118015610adc5750608081015173ffffffffffffffffffffffffffffffffffffffff1673eeeeeeeeeeeeeeeeeeeeeeeeeeeeeeeeeeeeeeee1480610ada575060a081015173ffffffffffffffffffffffffffffffffffffffff1673eeeeeeeeeeeeeeeeeeeeeeeeeeeeeeeeeeeeeeee145b155b15610b18576040517fc25348e000000000000000000000000000000000000000000000000000000000815262015f95600482015260240161045e565b604080518481526020810184905273ffffffffffffffffffffffffffffffffffffffff8716917f1b5a6c038413ee85baaa108b9e0f353fc1fb6dba5c500211baef62b0761e4d88910160405180910390a25050505050565b3360009081526066602052604090205460ff16610bbe576040517fc25348e000000000000000000000000000000000000000000000000000000000815262015f91600482015260240161045e565b60008273ffffffffffffffffffffffffffffffffffffffff16637d7c2a1c836040518263ffffffff1660e01b815260040160206040518083038185885af1158015610c0d573d6000803e3d6000fd5b50505050506040513d601f19601f82011682018060405250810190610c329190612dc1565b90508273ffffffffffffffffffffffffffffffffffffffff167f2ce777e59f0be485fcc70a4790aa17e9aca8e9e6704e6ab690fc2018c92cca3f826040516107f191815260200190565b73ffffffffffffffffffffffffffffffffffffffff7f0000000000000000000000000000000000000000000000000000000000000000163003610d41576040517f08c379a000000000000000000000000000000000000000000000000000000000815260206004820152602c60248201527f46756e6374696f6e206d7573742062652063616c6c6564207468726f7567682060448201527f64656c656761746563616c6c0000000000000000000000000000000000000000606482015260840161045e565b7f000000000000000000000000000000000000000000000000000000000000000073ffffffffffffffffffffffffffffffffffffffff16610db67f360894a13ba1a3210667c828492db98dca3e2076cc3735a920a3ca505d382bbc5473ffffffffffffffffffffffffffffffffffffffff1690565b73ffffffffffffffffffffffffffffffffffffffff1614610e59576040517f08c379a000000000000000000000000000000000000000000000000000000000815260206004820152602c60248201527f46756e6374696f6e206d7573742062652063616c6c6564207468726f7567682060448201527f6163746976652070726f78790000000000000000000000000000000000000000606482015260840161045e565b610e6281611dc0565b60408051600080825260208201909252610e7e91839190611dc8565b50565b73ffffffffffffffffffffffffffffffffffffffff7f0000000000000000000000000000000000000000000000000000000000000000163003610f46576040517f08c379a000000000000000000000000000000000000000000000000000000000815260206004820152602c60248201527f46756e6374696f6e206d7573742062652063616c6c6564207468726f7567682060448201527f64656c656761746563616c6c0000000000000000000000000000000000000000606482015260840161045e565b7f000000000000000000000000000000000000000000000000000000000000000073ffffffffffffffffffffffffffffffffffffffff16610fbb7f360894a13ba1a3210667c828492db98dca3e2076cc3735a920a3ca505d382bbc5473ffffffffffffffffffffffffffffffffffffffff1690565b73ffffffffffffffffffffffffffffffffffffffff161461105e576040517f08c379a000000000000000000000000000000000000000000000000000000000815260206004820152602c60248201527f46756e6374696f6e206d7573742062652063616c6c6564207468726f7567682060448201527f6163746976652070726f78790000000000000000000000000000000000000000606482015260840161045e565b61106782611dc0565b61107382826001611dc8565b5050565b600054610100900460ff16158080156110975750600054600160ff909116105b806110b15750303b1580156110b1575060005460ff166001145b61113d576040517f08c379a000000000000000000000000000000000000000000000000000000000815260206004820152602e60248201527f496e697469616c697a61626c653a20636f6e747261637420697320616c72656160448201527f647920696e697469616c697a6564000000000000000000000000000000000000606482015260840161045e565b600080547fffffffffffffffffffffffffffffffffffffffffffffffffffffffffffffff00166001179055801561119b57600080547fffffffffffffffffffffffffffffffffffffffffffffffffffffffffffff00ff166101001790555b8173ffffffffffffffffffffffffffffffffffffffff81166111ee576040517fc25348e000000000000000000000000000000000000000000000000000000000815262015f92600482015260240161045e565b60005b85518110156112e95760016065600088848151811061121257611212612d92565b602002602001015173ffffffffffffffffffffffffffffffffffffffff1673ffffffffffffffffffffffffffffffffffffffff16815260200190815260200160002060006101000a81548160ff02191690831515021790555085818151811061127d5761127d612d92565b602002602001015173ffffffffffffffffffffffffffffffffffffffff167fb873643b3104ddd26927dec7f9a08aa22d03ac20ada0295a2de7e1a6c60f2a5160016040516112cf911515815260200190565b60405180910390a2806112e181612e09565b9150506111f1565b5060005b84518110156113e55760016066600087848151811061130e5761130e612d92565b602002602001015173ffffffffffffffffffffffffffffffffffffffff1673ffffffffffffffffffffffffffffffffffffffff16815260200190815260200160002060006101000a81548160ff02191690831515021790555084818151811061137957611379612d92565b602002602001015173ffffffffffffffffffffffffffffffffffffffff167fad476fc62f6b1b5d25b35bd756cfbfcd299b581b8dfb25d5492c4305a0969bd260016040516113cb911515815260200190565b60405180910390a2806113dd81612e09565b9150506112ed565b506113ef83611fc7565b50801561068957600080547fffffffffffffffffffffffffffffffffffffffffffffffffffffffffffff00ff169055604051600181527f7f26b83ff96e1f2b6a682f133852f6798a09c465da95921460cefb38474024989060200160405180910390a150505050565b60003073ffffffffffffffffffffffffffffffffffffffff7f0000000000000000000000000000000000000000000000000000000000000000161461151f576040517f08c379a000000000000000000000000000000000000000000000000000000000815260206004820152603860248201527f555550535570677261646561626c653a206d757374206e6f742062652063616c60448201527f6c6564207468726f7567682064656c656761746563616c6c0000000000000000606482015260840161045e565b507f360894a13ba1a3210667c828492db98dca3e2076cc3735a920a3ca505d382bbc90565b3360009081526065602052604090205460ff1615801561159857503361157f60335473ffffffffffffffffffffffffffffffffffffffff1690565b73ffffffffffffffffffffffffffffffffffffffff1614155b156115d4576040517fc25348e000000000000000000000000000000000000000000000000000000000815262015f91600482015260240161045e565b8051825114611614576040517fc25348e000000000000000000000000000000000000000000000000000000000815262015f93600482015260240161045e565b60005b825181101561170757600083828151811061163457611634612d92565b60200260200101519050600083838151811061165257611652612d92565b6020026020010151905061166881836000611bdc565b73ffffffffffffffffffffffffffffffffffffffff82166000908152606760205260409020611697908261203e565b508073ffffffffffffffffffffffffffffffffffffffff168273ffffffffffffffffffffffffffffffffffffffff167fd54cf739d89b84837b7ca6e1402410c3497b29b0a5fbe452e57008b3abd8874d60405160405180910390a3505080806116ff90612e09565b915050611617565b505050565b611714612060565b6040517fc25348e000000000000000000000000000000000000000000000000000000000815262015f94600482015260240161045e565b73ffffffffffffffffffffffffffffffffffffffff8116600090815260676020526040902060609061177c816120e3565b67ffffffffffffffff8111156117945761179461284a565b6040519080825280602002602001820160405280156117bd578160200160208202803683370190505b50915060005b6117cc826120e3565b811015611826576117dd82826120ed565b8382815181106117ef576117ef612d92565b73ffffffffffffffffffffffffffffffffffffffff909216602092830291909101909101528061181e81612e09565b9150506117c3565b5050919050565b3360009081526065602052604090205460ff1615801561188157503361186860335473ffffffffffffffffffffffffffffffffffffffff1690565b73ffffffffffffffffffffffffffffffffffffffff1614155b156118bd576040517fc25348e000000000000000000000000000000000000000000000000000000000815262015f91600482015260240161045e565b60005b81811015611707576119cf8383838181106118dd576118dd612d92565b90506020020160208101906118f29190612afd565b7f000000000000000000000000000000000000000000000000000000000000000085858581811061192557611925612d92565b905060200201602081019061193a9190612afd565b6040517f70a0823100000000000000000000000000000000000000000000000000000000815230600482015273ffffffffffffffffffffffffffffffffffffffff91909116906370a0823190602401602060405180830381865afa1580156119a6573d6000803e3d6000fd5b505050506040513d601f19601f820116820180604052508101906119ca9190612dc1565b6120f9565b8282828181106119e1576119e1612d92565b90506020020160208101906119f69190612afd565b73ffffffffffffffffffffffffffffffffffffffff167f6dabf43ad9cf7a90569c3049d97bfd369c6fafd6630f6aa3f01b577913ba256f60405160405180910390a280611a4281612e09565b9150506118c0565b611a52612060565b8173ffffffffffffffffffffffffffffffffffffffff8116611aa5576040517fc25348e000000000000000000000000000000000000000000000000000000000815262015f92600482015260240161045e565b73ffffffffffffffffffffffffffffffffffffffff831660008181526065602090815260409182902080547fffffffffffffffffffffffffffffffffffffffffffffffffffffffffffffff001686151590811790915591519182527fb873643b3104ddd26927dec7f9a08aa22d03ac20ada0295a2de7e1a6c60f2a5191016107f1565b611b30612060565b73ffffffffffffffffffffffffffffffffffffffff8116611bd3576040517f08c379a000000000000000000000000000000000000000000000000000000000815260206004820152602660248201527f4f776e61626c653a206e6577206f776e657220697320746865207a65726f206160448201527f6464726573730000000000000000000000000000000000000000000000000000606482015260840161045e565b610e7e81611fc7565b801580611c7c57506040517fdd62ed3e00000000000000000000000000000000000000000000000000000000815230600482015273ffffffffffffffffffffffffffffffffffffffff838116602483015284169063dd62ed3e90604401602060405180830381865afa158015611c56573d6000803e3d6000fd5b505050506040513d601f19601f82011682018060405250810190611c7a9190612dc1565b155b611d08576040517f08c379a000000000000000000000000000000000000000000000000000000000815260206004820152603660248201527f5361666545524332303a20617070726f76652066726f6d206e6f6e2d7a65726f60448201527f20746f206e6f6e2d7a65726f20616c6c6f77616e636500000000000000000000606482015260840161045e565b6040805173ffffffffffffffffffffffffffffffffffffffff8416602482015260448082018490528251808303909101815260649091019091526020810180517bffffffffffffffffffffffffffffffffffffffffffffffffffffffff167f095ea7b30000000000000000000000000000000000000000000000000000000017905261170790849061219d565b6000611db78373ffffffffffffffffffffffffffffffffffffffff84166122a9565b90505b92915050565b610e7e612060565b7f4910fdfa16fed3260ed0e7147f7cc6da11a60208b5b9406d12a635614ffd91435460ff1615611dfb57611707836122f8565b8273ffffffffffffffffffffffffffffffffffffffff166352d1902d6040518163ffffffff1660e01b8152600401602060405180830381865afa925050508015611e80575060408051601f3d9081017fffffffffffffffffffffffffffffffffffffffffffffffffffffffffffffffe0168201909252611e7d91810190612dc1565b60015b611f0c576040517f08c379a000000000000000000000000000000000000000000000000000000000815260206004820152602e60248201527f45524331393637557067726164653a206e657720696d706c656d656e7461746960448201527f6f6e206973206e6f742055555053000000000000000000000000000000000000606482015260840161045e565b7f360894a13ba1a3210667c828492db98dca3e2076cc3735a920a3ca505d382bbc8114611fbb576040517f08c379a000000000000000000000000000000000000000000000000000000000815260206004820152602960248201527f45524331393637557067726164653a20756e737570706f727465642070726f7860448201527f6961626c65555549440000000000000000000000000000000000000000000000606482015260840161045e565b50611707838383612402565b6033805473ffffffffffffffffffffffffffffffffffffffff8381167fffffffffffffffffffffffff0000000000000000000000000000000000000000831681179093556040519116919082907f8be0079c531659141344cd1fd0a4f28419497f9722a3daafe3b4186f6b6457e090600090a35050565b6000611db78373ffffffffffffffffffffffffffffffffffffffff8416612427565b60335473ffffffffffffffffffffffffffffffffffffffff1633146120e1576040517f08c379a000000000000000000000000000000000000000000000000000000000815260206004820181905260248201527f4f776e61626c653a2063616c6c6572206973206e6f7420746865206f776e6572604482015260640161045e565b565b6000611dba825490565b6000611db7838361251a565b60006040517fa9059cbb00000000000000000000000000000000000000000000000000000000815273ffffffffffffffffffffffffffffffffffffffff84166004820152826024820152602060006044836000895af13d15601f3d1160016000511416171691505080610689576040517fdee51a8a0000000000000000000000000000000000000000000000000000000081526201155a600482015260240161045e565b60006121ff826040518060400160405280602081526020017f5361666545524332303a206c6f772d6c6576656c2063616c6c206661696c65648152508573ffffffffffffffffffffffffffffffffffffffff166125449092919063ffffffff16565b805190915015611707578080602001905181019061221d9190612f63565b611707576040517f08c379a000000000000000000000000000000000000000000000000000000000815260206004820152602a60248201527f5361666545524332303a204552433230206f7065726174696f6e20646964206e60448201527f6f74207375636365656400000000000000000000000000000000000000000000606482015260840161045e565b60008181526001830160205260408120546122f057508154600181810184556000848152602080822090930184905584548482528286019093526040902091909155611dba565b506000611dba565b73ffffffffffffffffffffffffffffffffffffffff81163b61239c576040517f08c379a000000000000000000000000000000000000000000000000000000000815260206004820152602d60248201527f455243313936373a206e657720696d706c656d656e746174696f6e206973206e60448201527f6f74206120636f6e747261637400000000000000000000000000000000000000606482015260840161045e565b7f360894a13ba1a3210667c828492db98dca3e2076cc3735a920a3ca505d382bbc80547fffffffffffffffffffffffff00000000000000000000000000000000000000001673ffffffffffffffffffffffffffffffffffffffff92909216919091179055565b61240b8361255b565b6000825111806124185750805b156117075761068983836125a8565b6000818152600183016020526040812054801561251057600061244b600183612f80565b855490915060009061245f90600190612f80565b90508181146124c457600086600001828154811061247f5761247f612d92565b90600052602060002001549050808760000184815481106124a2576124a2612d92565b6000918252602080832090910192909255918252600188019052604090208390555b85548690806124d5576124d5612f93565b600190038181906000526020600020016000905590558560010160008681526020019081526020016000206000905560019350505050611dba565b6000915050611dba565b600082600001828154811061253157612531612d92565b9060005260206000200154905092915050565b606061255384846000856125cd565b949350505050565b612564816122f8565b60405173ffffffffffffffffffffffffffffffffffffffff8216907fbc7cd75a20ee27fd9adebab32041f755214dbc6bffa90cc0225b39da2e5c2d3b90600090a250565b6060611db78383604051806060016040528060278152602001613054602791396126e6565b60608247101561265f576040517f08c379a000000000000000000000000000000000000000000000000000000000815260206004820152602660248201527f416464726573733a20696e73756666696369656e742062616c616e636520666f60448201527f722063616c6c0000000000000000000000000000000000000000000000000000606482015260840161045e565b6000808673ffffffffffffffffffffffffffffffffffffffff1685876040516126889190612fe6565b60006040518083038185875af1925050503d80600081146126c5576040519150601f19603f3d011682016040523d82523d6000602084013e6126ca565b606091505b50915091506126db8783838761276b565b979650505050505050565b60606000808573ffffffffffffffffffffffffffffffffffffffff16856040516127109190612fe6565b600060405180830381855af49150503d806000811461274b576040519150601f19603f3d011682016040523d82523d6000602084013e612750565b606091505b50915091506127618683838761276b565b9695505050505050565b606083156128015782516000036127fa5773ffffffffffffffffffffffffffffffffffffffff85163b6127fa576040517f08c379a000000000000000000000000000000000000000000000000000000000815260206004820152601d60248201527f416464726573733a2063616c6c20746f206e6f6e2d636f6e7472616374000000604482015260640161045e565b5081612553565b61255383838151156128165781518083602001fd5b806040517f08c379a000000000000000000000000000000000000000000000000000000000815260040161045e9190613002565b7f4e487b7100000000000000000000000000000000000000000000000000000000600052604160045260246000fd5b6040516101a0810167ffffffffffffffff8111828210171561289d5761289d61284a565b60405290565b604051601f82017fffffffffffffffffffffffffffffffffffffffffffffffffffffffffffffffe016810167ffffffffffffffff811182821017156128ea576128ea61284a565b604052919050565b600067ffffffffffffffff82111561290c5761290c61284a565b5060051b60200190565b73ffffffffffffffffffffffffffffffffffffffff81168114610e7e57600080fd5b600082601f83011261294957600080fd5b8135602061295e612959836128f2565b6128a3565b82815260059290921b8401810191818101908684111561297d57600080fd5b8286015b848110156129a157803561299481612916565b8352918301918301612981565b509695505050505050565b6000806000606084860312156129c157600080fd5b833567ffffffffffffffff808211156129d957600080fd5b6129e587838801612938565b94506020915081860135818111156129fc57600080fd5b612a0888828901612938565b945050604086013581811115612a1d57600080fd5b86019050601f81018713612a3057600080fd5b8035612a3e612959826128f2565b81815260059190911b82018301908381019089831115612a5d57600080fd5b928401925b82841015612a7b57833582529284019290840190612a62565b80955050505050509250925092565b8015158114610e7e57600080fd5b60008060408385031215612aab57600080fd5b8235612ab681612916565b91506020830135612ac681612a8a565b809150509250929050565b60008060408385031215612ae457600080fd5b8235612aef81612916565b946020939093013593505050565b600060208284031215612b0f57600080fd5b8135612b1a81612916565b9392505050565b60008060408385031215612b3457600080fd5b8235612b3f81612916565b915060208381013567ffffffffffffffff80821115612b5d57600080fd5b818601915086601f830112612b7157600080fd5b813581811115612b8357612b8361284a565b612bb3847fffffffffffffffffffffffffffffffffffffffffffffffffffffffffffffffe0601f840116016128a3565b91508082528784828501011115612bc957600080fd5b80848401858401376000848284010152508093505050509250929050565b600080600060608486031215612bfc57600080fd5b833567ffffffffffffffff80821115612c1457600080fd5b612c2087838801612938565b94506020860135915080821115612c3657600080fd5b50612c4386828701612938565b9250506040840135612c5481612916565b809150509250925092565b60008060408385031215612c7257600080fd5b823567ffffffffffffffff80821115612c8a57600080fd5b612c9686838701612938565b93506020850135915080821115612cac57600080fd5b50612cb985828601612938565b9150509250929050565b6020808252825182820181905260009190848201906040850190845b81811015612d1157835173ffffffffffffffffffffffffffffffffffffffff1683529284019291840191600101612cdf565b50909695505050505050565b60008060208385031215612d3057600080fd5b823567ffffffffffffffff80821115612d4857600080fd5b818501915085601f830112612d5c57600080fd5b813581811115612d6b57600080fd5b8660208260051b8501011115612d8057600080fd5b60209290920196919550909350505050565b7f4e487b7100000000000000000000000000000000000000000000000000000000600052603260045260246000fd5b600060208284031215612dd357600080fd5b5051919050565b7f4e487b7100000000000000000000000000000000000000000000000000000000600052601160045260246000fd5b60007fffffffffffffffffffffffffffffffffffffffffffffffffffffffffffffffff8203612e3a57612e3a612dda565b5060010190565b60008060408385031215612e5457600080fd5b505080516020909101519092909150565b8051612e7081612916565b919050565b805160ff81168114612e7057600080fd5b60006101a08284031215612e9957600080fd5b612ea1612879565b612eaa83612e65565b8152612eb860208401612e65565b6020820152612ec960408401612e65565b6040820152612eda60608401612e65565b6060820152612eeb60808401612e65565b6080820152612efc60a08401612e65565b60a0820152612f0d60c08401612e75565b60c0820152612f1e60e08401612e75565b60e08201526101008381015190820152610120808401519082015261014080840151908201526101608084015190820152610180928301519281019290925250919050565b600060208284031215612f7557600080fd5b8151612b1a81612a8a565b81810381811115611dba57611dba612dda565b7f4e487b7100000000000000000000000000000000000000000000000000000000600052603160045260246000fd5b60005b83811015612fdd578181015183820152602001612fc5565b50506000910152565b60008251612ff8818460208701612fc2565b9190910192915050565b6020815260008251806020840152613021816040850160208701612fc2565b601f017fffffffffffffffffffffffffffffffffffffffffffffffffffffffffffffffe016919091016040019291505056fe416464726573733a206c6f772d6c6576656c2064656c65676174652063616c6c206661696c6564a26469706673582212200459328990843d12ab6420567d7e4aa95e9c03d6b6fd9a5de889f69cf22e16c464736f6c63430008150033",
  "devdoc": {
    "events": {
      "AdminChanged(address,address)": {
        "details": "Emitted when the admin account has changed."
      },
      "BeaconUpgraded(address)": {
        "details": "Emitted when the beacon is upgraded."
      },
      "Initialized(uint8)": {
        "details": "Triggered when the contract has been initialized or reinitialized."
      },
      "Upgraded(address)": {
        "details": "Emitted when the implementation is upgraded."
      }
    },
    "kind": "dev",
    "methods": {
      "approve(address[],address[],uint256[])": {
        "details": "The parameters are parallel arrays",
        "params": {
          "amounts_": "The amounts to approve",
          "protocols_": "The protocols that will be spending reserve tokens",
          "tokens_": "The tokens to approve"
        }
      },
      "getProtocolTokens(address)": {
        "params": {
          "protocol_": "The protocol to get the tokens for"
        },
        "returns": {
          "result_": "     The tokens that are approved for use by the protocol"
        }
      },
      "initialize(address[],address[],address)": {
        "params": {
          "_auths": "The addresses that have the auth to approve and revoke protocol token allowances",
          "_rebalancers": "The addresses that can execute a rebalance on a protocol",
          "owner_": "owner address is able to upgrade contract and update auth users"
        }
      },
      "owner()": {
        "details": "Returns the address of the current owner."
      },
      "proxiableUUID()": {
        "details": "Implementation of the ERC1822 {proxiableUUID} function. This returns the storage slot used by the implementation. It is used to validate the implementation's compatibility when performing an upgrade. IMPORTANT: A proxy pointing at a proxiable contract should not be considered proxiable itself, because this risks bricking a proxy that upgrades to it, by delegating to itself until out of gas. Thus it is critical that this function revert if invoked through a proxy. This is guaranteed by the `notDelegated` modifier."
      },
      "rebalanceFToken(address,uint256)": {
        "params": {
          "protocol_": "The protocol to rebalance",
          "value_": "any msg.value to send along (as fetched from resolver!)"
        }
      },
      "rebalanceVault(address,uint256)": {
        "params": {
          "protocol_": "The protocol to rebalance",
          "value_": "any msg.value to send along (as fetched from resolver!)"
        }
      },
      "revoke(address[],address[])": {
        "details": "The parameters are parallel arrays",
        "params": {
          "protocols_": "The protocols that will no longer be spending reserve tokens",
          "tokens_": "The tokens to revoke"
        }
      },
      "transferOwnership(address)": {
        "details": "Transfers ownership of the contract to a new account (`newOwner`). Can only be called by the current owner."
      },
      "updateAuth(address,bool)": {
        "params": {
          "auth_": "The address to update",
          "isAuth_": "Whether or not the address should be an auth"
        }
      },
      "updateRebalancer(address,bool)": {
        "params": {
          "isRebalancer_": "Whether or not the address should be a rebalancer",
          "rebalancer_": "The address to update"
        }
      },
      "upgradeTo(address)": {
        "details": "Upgrade the implementation of the proxy to `newImplementation`. Calls {_authorizeUpgrade}. Emits an {Upgraded} event."
      },
      "upgradeToAndCall(address,bytes)": {
        "details": "Upgrade the implementation of the proxy to `newImplementation`, and subsequently execute the function call encoded in `data`. Calls {_authorizeUpgrade}. Emits an {Upgraded} event."
      }
    },
    "title": "Reserve Contract",
    "version": 1
  },
  "userdoc": {
    "events": {
      "LogAllow(address,address,uint256,uint256)": {
        "notice": "Emitted when a token is approved for use by a protocol"
      },
      "LogRebalanceFToken(address,uint256)": {
        "notice": "Emitted when fToken is rebalanced"
      },
      "LogRebalanceVault(address,int256,int256)": {
        "notice": "Emitted when vault is rebalanced"
      },
      "LogRevoke(address,address)": {
        "notice": "Emitted when a token is revoked for use by a protocol"
      },
      "LogTransferFunds(address)": {
        "notice": "Emitted whenever funds for a certain `token` are transfered to Liquidity"
      },
      "LogUpdateAuth(address,bool)": {
        "notice": "Emitted when an address is added or removed from the auths"
      },
      "LogUpdateRebalancer(address,bool)": {
        "notice": "Emitted when an address is added or removed from the rebalancers"
      }
    },
    "kind": "user",
    "methods": {
      "LIQUIDITY()": {
        "notice": "address of the liquidity contract"
      },
      "approve(address[],address[],uint256[])": {
        "notice": "Approves protocols to spend the reserves tokens"
      },
      "getProtocolTokens(address)": {
        "notice": "Gets the tokens that are approved for use by a protocol"
      },
      "initialize(address[],address[],address)": {
        "notice": "initializes the contract"
      },
      "isAuth(address)": {
        "notice": "Maps address to there status as an Auth"
      },
      "isRebalancer(address)": {
        "notice": "Maps address to there status as a Rebalancer"
      },
      "rebalanceFToken(address,uint256)": {
        "notice": "Executes a rebalance on a protocol by calling that protocol's `rebalance` function"
      },
      "rebalanceVault(address,uint256)": {
        "notice": "Executes a rebalance on a protocol by calling that protocol's `rebalance` function"
      },
      "renounceOwnership()": {
        "notice": "override renounce ownership as it could leave the contract in an unwanted state if called by mistake."
      },
      "revoke(address[],address[])": {
        "notice": "Revokes protocols' ability to spend the reserves tokens"
      },
      "updateAuth(address,bool)": {
        "notice": "Updates an auth's status as an auth"
      },
      "updateRebalancer(address,bool)": {
        "notice": "Updates a rebalancer's status as a rebalancer"
      }
    },
    "notice": "This contract manages the approval of tokens for use by protocols and           the execution of rebalances on protocols",
    "version": 1
  },
  "storageLayout": {
    "storage": [
      {
        "astId": 138,
        "contract": "contracts/reserve/main.sol:FluidReserveContract",
        "label": "_initialized",
        "offset": 0,
        "slot": "0",
        "type": "t_uint8"
      },
      {
        "astId": 141,
        "contract": "contracts/reserve/main.sol:FluidReserveContract",
        "label": "_initializing",
        "offset": 1,
        "slot": "0",
        "type": "t_bool"
      },
      {
        "astId": 625,
        "contract": "contracts/reserve/main.sol:FluidReserveContract",
        "label": "__gap",
        "offset": 0,
        "slot": "1",
        "type": "t_array(t_uint256)50_storage"
      },
      {
        "astId": 10,
        "contract": "contracts/reserve/main.sol:FluidReserveContract",
        "label": "_owner",
        "offset": 0,
        "slot": "51",
        "type": "t_address"
      },
      {
        "astId": 130,
        "contract": "contracts/reserve/main.sol:FluidReserveContract",
        "label": "__gap",
        "offset": 0,
        "slot": "52",
        "type": "t_array(t_uint256)49_storage"
      },
      {
        "astId": 35908,
        "contract": "contracts/reserve/main.sol:FluidReserveContract",
        "label": "isAuth",
        "offset": 0,
        "slot": "101",
        "type": "t_mapping(t_address,t_bool)"
      },
      {
        "astId": 35913,
        "contract": "contracts/reserve/main.sol:FluidReserveContract",
        "label": "isRebalancer",
        "offset": 0,
        "slot": "102",
        "type": "t_mapping(t_address,t_bool)"
      },
      {
        "astId": 35919,
        "contract": "contracts/reserve/main.sol:FluidReserveContract",
        "label": "_protocolTokens",
        "offset": 0,
        "slot": "103",
        "type": "t_mapping(t_address,t_struct(AddressSet)4087_storage)"
      }
    ],
    "types": {
      "t_address": {
        "encoding": "inplace",
        "label": "address",
        "numberOfBytes": "20"
      },
      "t_array(t_bytes32)dyn_storage": {
        "base": "t_bytes32",
        "encoding": "dynamic_array",
        "label": "bytes32[]",
        "numberOfBytes": "32"
      },
      "t_array(t_uint256)49_storage": {
        "base": "t_uint256",
        "encoding": "inplace",
        "label": "uint256[49]",
        "numberOfBytes": "1568"
      },
      "t_array(t_uint256)50_storage": {
        "base": "t_uint256",
        "encoding": "inplace",
        "label": "uint256[50]",
        "numberOfBytes": "1600"
      },
      "t_bool": {
        "encoding": "inplace",
        "label": "bool",
        "numberOfBytes": "1"
      },
      "t_bytes32": {
        "encoding": "inplace",
        "label": "bytes32",
        "numberOfBytes": "32"
      },
      "t_mapping(t_address,t_bool)": {
        "encoding": "mapping",
        "key": "t_address",
        "label": "mapping(address => bool)",
        "numberOfBytes": "32",
        "value": "t_bool"
      },
      "t_mapping(t_address,t_struct(AddressSet)4087_storage)": {
        "encoding": "mapping",
        "key": "t_address",
        "label": "mapping(address => struct EnumerableSet.AddressSet)",
        "numberOfBytes": "32",
        "value": "t_struct(AddressSet)4087_storage"
      },
      "t_mapping(t_bytes32,t_uint256)": {
        "encoding": "mapping",
        "key": "t_bytes32",
        "label": "mapping(bytes32 => uint256)",
        "numberOfBytes": "32",
        "value": "t_uint256"
      },
      "t_struct(AddressSet)4087_storage": {
        "encoding": "inplace",
        "label": "struct EnumerableSet.AddressSet",
        "members": [
          {
            "astId": 4086,
            "contract": "contracts/reserve/main.sol:FluidReserveContract",
            "label": "_inner",
            "offset": 0,
            "slot": "0",
            "type": "t_struct(Set)3772_storage"
          }
        ],
        "numberOfBytes": "64"
      },
      "t_struct(Set)3772_storage": {
        "encoding": "inplace",
        "label": "struct EnumerableSet.Set",
        "members": [
          {
            "astId": 3767,
            "contract": "contracts/reserve/main.sol:FluidReserveContract",
            "label": "_values",
            "offset": 0,
            "slot": "0",
            "type": "t_array(t_bytes32)dyn_storage"
          },
          {
            "astId": 3771,
            "contract": "contracts/reserve/main.sol:FluidReserveContract",
            "label": "_indexes",
            "offset": 0,
            "slot": "1",
            "type": "t_mapping(t_bytes32,t_uint256)"
          }
        ],
        "numberOfBytes": "64"
      },
      "t_uint256": {
        "encoding": "inplace",
        "label": "uint256",
        "numberOfBytes": "32"
      },
      "t_uint8": {
        "encoding": "inplace",
        "label": "uint8",
        "numberOfBytes": "1"
      }
    }
  }
}