{
  "address": "0xb9009B76C9BFC7601D9C9753317192E2e6B1837B",
  "abi": [
    {
      "inputs": [
        {
          "internalType": "address",
          "name": "fla_",
          "type": "address"
        },
        {
          "internalType": "address",
          "name": "weth_",
          "type": "address"
        }
      ],
      "stateMutability": "nonpayable",
      "type": "constructor"
    },
    {
      "inputs": [
        {
          "internalType": "uint256",
          "name": "errorId_",
          "type": "uint256"
        }
      ],
      "name": "FluidSafeApproveError",
      "type": "error"
    },
    {
      "inputs": [
        {
          "internalType": "uint256",
          "name": "errorId_",
          "type": "uint256"
        }
      ],
      "name": "FluidSafeTransferError",
      "type": "error"
    },
    {
      "inputs": [],
      "name": "FluidVaultLiquidator__InvalidOperation",
      "type": "error"
    },
    {
      "inputs": [],
      "name": "FluidVaultLiquidator__InvalidTimestamp",
      "type": "error"
    },
    {
      "inputs": [],
      "name": "FluidVaultLiquidator__InvalidTopTick",
      "type": "error"
    },
    {
      "anonymous": false,
      "inputs": [
        {
          "indexed": true,
          "internalType": "address",
          "name": "vault",
          "type": "address"
        },
        {
          "indexed": false,
          "internalType": "uint256",
          "name": "collateral",
          "type": "uint256"
        },
        {
          "indexed": false,
          "internalType": "uint256",
          "name": "debt",
          "type": "uint256"
        }
      ],
      "name": "Liquidated",
      "type": "event"
    },
    {
      "inputs": [],
      "name": "ETH_ADDRESS",
      "outputs": [
        {
          "internalType": "address",
          "name": "",
          "type": "address"
        }
      ],
      "stateMutability": "view",
      "type": "function"
    },
    {
      "inputs": [],
      "name": "FLA",
      "outputs": [
        {
          "internalType": "contract InstaFlashInterface",
          "name": "",
          "type": "address"
        }
      ],
      "stateMutability": "view",
      "type": "function"
    },
    {
      "inputs": [],
      "name": "WETH",
      "outputs": [
        {
          "internalType": "contract IWETH9",
          "name": "",
          "type": "address"
        }
      ],
      "stateMutability": "view",
      "type": "function"
    },
    {
      "inputs": [
        {
          "internalType": "address[]",
          "name": "assets",
          "type": "address[]"
        },
        {
          "internalType": "uint256[]",
          "name": "amounts",
          "type": "uint256[]"
        },
        {
          "internalType": "uint256[]",
          "name": "premiums",
          "type": "uint256[]"
        },
        {
          "internalType": "address",
          "name": "initiator",
          "type": "address"
        },
        {
          "internalType": "bytes",
          "name": "_data",
          "type": "bytes"
        }
      ],
      "name": "executeOperation",
      "outputs": [
        {
          "internalType": "bool",
          "name": "",
          "type": "bool"
        }
      ],
      "stateMutability": "nonpayable",
      "type": "function"
    },
    {
      "inputs": [
        {
          "components": [
            {
              "internalType": "address",
              "name": "vault",
              "type": "address"
            },
            {
              "internalType": "uint256",
              "name": "vaultType",
              "type": "uint256"
            },
            {
              "internalType": "uint256",
              "name": "expiration",
              "type": "uint256"
            },
            {
              "internalType": "int256",
              "name": "topTick",
              "type": "int256"
            },
            {
              "internalType": "uint256",
              "name": "route",
              "type": "uint256"
            },
            {
              "internalType": "address",
              "name": "flashloanToken",
              "type": "address"
            },
            {
              "internalType": "uint256",
              "name": "flashloanAmount",
              "type": "uint256"
            },
            {
              "internalType": "uint256",
              "name": "token0DebtAmt",
              "type": "uint256"
            },
            {
              "internalType": "uint256",
              "name": "token1DebtAmt",
              "type": "uint256"
            },
            {
              "internalType": "uint256",
              "name": "debtSharesMin",
              "type": "uint256"
            },
            {
              "internalType": "uint256",
              "name": "colPerUnitDebt",
              "type": "uint256"
            },
            {
              "internalType": "uint256",
              "name": "token0ColAmtPerUnitShares",
              "type": "uint256"
            },
            {
              "internalType": "uint256",
              "name": "token1ColAmtPerUnitShares",
              "type": "uint256"
            },
            {
              "internalType": "bool",
              "name": "absorb",
              "type": "bool"
            },
            {
              "internalType": "address",
              "name": "swapToken",
              "type": "address"
            },
            {
              "internalType": "uint256",
              "name": "swapAmount",
              "type": "uint256"
            },
            {
              "internalType": "address",
              "name": "swapRouter",
              "type": "address"
            },
            {
              "internalType": "address",
              "name": "swapApproval",
              "type": "address"
            },
            {
              "internalType": "bytes",
              "name": "swapData",
              "type": "bytes"
            }
          ],
          "internalType": "struct VaultLiquidatorImplementationV1.LiquidationParams",
          "name": "params_",
          "type": "tuple"
        }
      ],
      "name": "liquidation",
      "outputs": [],
      "stateMutability": "nonpayable",
      "type": "function"
    },
    {
      "stateMutability": "payable",
      "type": "receive"
    }
  ],
  "transactionHash": "0xc040c05dd07a37f7a9afb0afa501ce8ad7fa44a360fb4bf7f7124f2f098c15c4",
  "args": [
    "0x352423e2fA5D5c99343d371C9e3bC56C87723Cc7",
    "0x352423e2fA5D5c99343d371C9e3bC56C87723Cc7"
  ],
  "numDeployments": 1,
  "solcInputHash": "9b7b216e64a148616bf79d70f4f4919f",
  "bytecode": "0x60e06040523060c0523480156200001557600080fd5b5060405162001bd538038062001bd583398101604081905262000038916200006d565b6001600160a01b039182166080521660a052620000a5565b80516001600160a01b03811681146200006857600080fd5b919050565b600080604083850312156200008157600080fd5b6200008c8362000050565b91506200009c6020840162000050565b90509250929050565b60805160a05160c051611ad7620000fe6000396000610a74015260008181610132015281816102fb01528181610902015281816109a30152610b5c015260008181607c015281816101900152610c7c0152611ad76000f3fe60806040526004361061005e5760003560e01c8063a734f06e11610043578063a734f06e146100f8578063ad5c464814610120578063cf50d4501461015457600080fd5b806376ca658a1461006a578063920f5c84146100c857600080fd5b3661006557005b600080fd5b34801561007657600080fd5b5061009e7f000000000000000000000000000000000000000000000000000000000000000081565b60405173ffffffffffffffffffffffffffffffffffffffff90911681526020015b60405180910390f35b3480156100d457600080fd5b506100e86100e33660046112f7565b610176565b60405190151581526020016100bf565b34801561010457600080fd5b5061009e73eeeeeeeeeeeeeeeeeeeeeeeeeeeeeeeeeeeeeeee81565b34801561012c57600080fd5b5061009e7f000000000000000000000000000000000000000000000000000000000000000081565b34801561016057600080fd5b5061017461016f36600461150f565b610a5d565b005b60003373ffffffffffffffffffffffffffffffffffffffff7f000000000000000000000000000000000000000000000000000000000000000016146101e7576040517f97f5318b00000000000000000000000000000000000000000000000000000000815260040160405180910390fd5b73ffffffffffffffffffffffffffffffffffffffff84163014610236576040517f97f5318b00000000000000000000000000000000000000000000000000000000815260040160405180910390fd5b60006102448385018561150f565b9050600073eeeeeeeeeeeeeeeeeeeeeeeeeeeeeeeeeeeeeeee73ffffffffffffffffffffffffffffffffffffffff168260a0015173ffffffffffffffffffffffffffffffffffffffff16146102c6576102a78260a0015183600001516000610cee565b6102be8260a0015183600001518460c00151610cee565b506000610374565b60c08201516040517f2e1a7d4d00000000000000000000000000000000000000000000000000000000815260048101919091527f000000000000000000000000000000000000000000000000000000000000000073ffffffffffffffffffffffffffffffffffffffff1690632e1a7d4d90602401600060405180830381600087803b15801561035457600080fd5b505af1158015610368573d6000803e3d6000fd5b505050508160c0015190505b600080836020015160010361044a57835160e08501516101408601516101a08701516040517f8433ea22000000000000000000000000000000000000000000000000000000008152600481019390935260248301919091523060448301521515606482015273ffffffffffffffffffffffffffffffffffffffff90911690638433ea229085906084015b604080518083038185885af115801561041b573d6000803e3d6000fd5b50505050506040513d601f19601f820116820180604052508101906104409190611669565b90925090506106e1565b836020015160020361053957835160e08501516101408601516101608701516101808801516101a08901516040517f7bae33610000000000000000000000000000000000000000000000000000000081526004810195909552602485019390935260448401919091526064830152306084830152151560a482015273ffffffffffffffffffffffffffffffffffffffff90911690637bae336190859060c40160806040518083038185885af1158015610507573d6000803e3d6000fd5b50505050506040513d601f19601f8201168201806040525081019061052c919061168d565b5091935091506106e19050565b83602001516003036105dd57835160e08501516101008601516101208701516101408801516101a08901516040517f7bae33610000000000000000000000000000000000000000000000000000000081526004810195909552602485019390935260448401919091526064830152306084830152151560a482015273ffffffffffffffffffffffffffffffffffffffff90911690637bae336190859060c4016103fe565b83602001516004036106e157835160e08501516101008601516101208701516101408801516101608901516101808a01516101a08b01516040517f27fa2b530000000000000000000000000000000000000000000000000000000081526004810197909752602487019590955260448601939093526064850191909152608484015260a48301523060c4830152151560e482015273ffffffffffffffffffffffffffffffffffffffff909116906327fa2b539085906101040160806040518083038185885af11580156106b4573d6000803e3d6000fd5b50505050506040513d601f19601f820116820180604052508101906106d9919061168d565b509193509150505b836101c0015173ffffffffffffffffffffffffffffffffffffffff168460a0015173ffffffffffffffffffffffffffffffffffffffff16146107e2576101c084015173ffffffffffffffffffffffffffffffffffffffff1673eeeeeeeeeeeeeeeeeeeeeeeeeeeeeeeeeeeeeeee1461078c57610769846101c001518561022001516000610cee565b610783846101c00151856102200151866101e00151610cee565b60009250610795565b836101e0015192505b6107e0846102000151856102400151856040518060400160405280600c81526020017f537761703a206661696c65640000000000000000000000000000000000000000815250610da9565b505b8351604080518381526020810185905273ffffffffffffffffffffffffffffffffffffffff909216917f09c223cfcd8c93e245f558f5f8de755fc0930fd9bc257441155ef5d54a170e0f910160405180910390a250505060008787600081811061084e5761084e6116c3565b905060200201358a8a6000818110610868576108686116c3565b905060200201356108799190611721565b61088490600a611721565b905073eeeeeeeeeeeeeeeeeeeeeeeeeeeeeeeeeeeeeeee73ffffffffffffffffffffffffffffffffffffffff168260a0015173ffffffffffffffffffffffffffffffffffffffff1603610a19576040517f70a082310000000000000000000000000000000000000000000000000000000081523060048201526000907f000000000000000000000000000000000000000000000000000000000000000073ffffffffffffffffffffffffffffffffffffffff16906370a0823190602401602060405180830381865afa15801561095e573d6000803e3d6000fd5b505050506040513d601f19601f820116820180604052508101906109829190611734565b905081811015610a175773ffffffffffffffffffffffffffffffffffffffff7f00000000000000000000000000000000000000000000000000000000000000001663d0e30db06109d2838561174d565b6040518263ffffffff1660e01b81526004016000604051808303818588803b1580156109fd57600080fd5b505af1158015610a11573d6000803e3d6000fd5b50505050505b505b610a4b8c8c6000818110610a2f57610a2f6116c3565b9050602002016020810190610a449190611760565b3383610ec4565b5060019b9a5050505050505050505050565b73ffffffffffffffffffffffffffffffffffffffff7f0000000000000000000000000000000000000000000000000000000000000000163003610acc576040517f97f5318b00000000000000000000000000000000000000000000000000000000815260040160405180910390fd5b610ad581610f68565b6040805160018082528183019092526000916020808301908036833750506040805160018082528183019092529293506000929150602080830190803683370190505060a084015190915073ffffffffffffffffffffffffffffffffffffffff1673eeeeeeeeeeeeeeeeeeeeeeeeeeeeeeeeeeeeeeee14610b5a578260a00151610b7c565b7f00000000000000000000000000000000000000000000000000000000000000005b82600081518110610b8f57610b8f6116c3565b602002602001019073ffffffffffffffffffffffffffffffffffffffff16908173ffffffffffffffffffffffffffffffffffffffff16815250508260c0015181600081518110610be157610be16116c3565b602002602001018181525050600083604051602001610c0091906117f0565b604080517fffffffffffffffffffffffffffffffffffffffffffffffffffffffffffffffe081840301815282825260808701516000845260208401928390527f095627e900000000000000000000000000000000000000000000000000000000909252925073ffffffffffffffffffffffffffffffffffffffff7f0000000000000000000000000000000000000000000000000000000000000000169163095627e991610cb6918791879187906024810161197a565b600060405180830381600087803b158015610cd057600080fd5b505af1158015610ce4573d6000803e3d6000fd5b5050505050505050565b60006040517f095ea7b300000000000000000000000000000000000000000000000000000000815273ffffffffffffffffffffffffffffffffffffffff84166004820152826024820152602060006044836000895af191505080601f3d1160016000511416151615610d625750823b153d17155b80610da3576040517fffd1fc0700000000000000000000000000000000000000000000000000000000815262013c6960048201526024015b60405180910390fd5b50505050565b606082471015610e3b576040517f08c379a000000000000000000000000000000000000000000000000000000000815260206004820152602660248201527f416464726573733a20696e73756666696369656e742062616c616e636520666f60448201527f722063616c6c00000000000000000000000000000000000000000000000000006064820152608401610d9a565b6000808673ffffffffffffffffffffffffffffffffffffffff168587604051610e649190611a3a565b60006040518083038185875af1925050503d8060008114610ea1576040519150601f19603f3d011682016040523d82523d6000602084013e610ea6565b606091505b5091509150610eb7878383876110d4565b925050505b949350505050565b60006040517fa9059cbb00000000000000000000000000000000000000000000000000000000815273ffffffffffffffffffffffffffffffffffffffff84166004820152826024820152602060006044836000895af13d15601f3d1160016000511416171691505080610da3576040517fdee51a8a0000000000000000000000000000000000000000000000000000000081526201155a6004820152602401610d9a565b60008160400151118015610f7f5750428160400151105b15610fb6576040517f2fad55ba00000000000000000000000000000000000000000000000000000000815260040160405180910390fd5b80516040517fb5c736e40000000000000000000000000000000000000000000000000000000081526000600482018190529173ffffffffffffffffffffffffffffffffffffffff169063b5c736e490602401602060405180830381865afa158015611025573d6000803e3d6000fd5b505050506040513d601f19601f820116820180604052508101906110499190611734565b9050600061105f620fffff600284901c16611174565b905080836060015113801561109857507f8000000000000000000000000000000000000000000000000000000000000000836060015114155b156110cf576040517ff64eca4900000000000000000000000000000000000000000000000000000000815260040160405180910390fd5b505050565b6060831561116a5782516000036111635773ffffffffffffffffffffffffffffffffffffffff85163b611163576040517f08c379a000000000000000000000000000000000000000000000000000000000815260206004820152601d60248201527f416464726573733a2063616c6c20746f206e6f6e2d636f6e74726163740000006044820152606401610d9a565b5081610ebc565b610ebc8383611243565b6000620fffff82106111e2576040517f08c379a000000000000000000000000000000000000000000000000000000000815260206004820152600e60248201527f696e76616c69642d6e756d6265720000000000000000000000000000000000006044820152606401610d9a565b811561121b578160011660011461120a57611205600183901c6207ffff16611a56565b611215565b6207ffff600183901c165b92915050565b507f80000000000000000000000000000000000000000000000000000000000000005b919050565b8151156112535781518083602001fd5b806040517f08c379a0000000000000000000000000000000000000000000000000000000008152600401610d9a9190611a8e565b60008083601f84011261129957600080fd5b50813567ffffffffffffffff8111156112b157600080fd5b6020830191508360208260051b85010111156112cc57600080fd5b9250929050565b803573ffffffffffffffffffffffffffffffffffffffff8116811461123e57600080fd5b600080600080600080600080600060a08a8c03121561131557600080fd5b893567ffffffffffffffff8082111561132d57600080fd5b6113398d838e01611287565b909b50995060208c013591508082111561135257600080fd5b61135e8d838e01611287565b909950975060408c013591508082111561137757600080fd5b6113838d838e01611287565b909750955085915061139760608d016112d3565b945060808c01359150808211156113ad57600080fd5b818c0191508c601f8301126113c157600080fd5b8135818111156113d057600080fd5b8d60208285010111156113e257600080fd5b6020830194508093505050509295985092959850929598565b7f4e487b7100000000000000000000000000000000000000000000000000000000600052604160045260246000fd5b604051610260810167ffffffffffffffff8111828210171561144e5761144e6113fb565b60405290565b8035801515811461123e57600080fd5b600082601f83011261147557600080fd5b813567ffffffffffffffff80821115611490576114906113fb565b604051601f83017fffffffffffffffffffffffffffffffffffffffffffffffffffffffffffffffe0908116603f011681019082821181831017156114d6576114d66113fb565b816040528381528660208588010111156114ef57600080fd5b836020870160208301376000602085830101528094505050505092915050565b60006020828403121561152157600080fd5b813567ffffffffffffffff8082111561153957600080fd5b90830190610260828603121561154e57600080fd5b61155661142a565b61155f836112d3565b81526020830135602082015260408301356040820152606083013560608201526080830135608082015261159560a084016112d3565b60a082015260c0838101359082015260e08084013590820152610100808401359082015261012080840135908201526101408084013590820152610160808401359082015261018080840135908201526101a06115f3818501611454565b908201526101c06116058482016112d3565b908201526101e083810135908201526102006116228185016112d3565b908201526102206116348482016112d3565b90820152610240838101358381111561164c57600080fd5b61165888828701611464565b918301919091525095945050505050565b6000806040838503121561167c57600080fd5b505080516020909101519092909150565b600080600080608085870312156116a357600080fd5b505082516020840151604085015160609095015191969095509092509050565b7f4e487b7100000000000000000000000000000000000000000000000000000000600052603260045260246000fd5b7f4e487b7100000000000000000000000000000000000000000000000000000000600052601160045260246000fd5b80820180821115611215576112156116f2565b60006020828403121561174657600080fd5b5051919050565b81810381811115611215576112156116f2565b60006020828403121561177257600080fd5b61177b826112d3565b9392505050565b60005b8381101561179d578181015183820152602001611785565b50506000910152565b600081518084526117be816020860160208601611782565b601f017fffffffffffffffffffffffffffffffffffffffffffffffffffffffffffffffe0169290920160200192915050565b6020815261181760208201835173ffffffffffffffffffffffffffffffffffffffff169052565b602082015160408201526040820151606082015260608201516080820152608082015160a0820152600060a083015161186860c084018273ffffffffffffffffffffffffffffffffffffffff169052565b5060c083015160e08381019190915283015161010080840191909152830151610120808401919091528301516101408084019190915283015161016080840191909152830151610180808401919091528301516101a0808401919091528301516101c06118d88185018315159052565b84015190506101e06119018482018373ffffffffffffffffffffffffffffffffffffffff169052565b8401516102008481019190915284015190506102206119378185018373ffffffffffffffffffffffffffffffffffffffff169052565b84015190506102406119608482018373ffffffffffffffffffffffffffffffffffffffff169052565b840151610260848101529050610ebc6102808401826117a6565b60a0808252865190820181905260009060209060c0840190828a01845b828110156119c957815173ffffffffffffffffffffffffffffffffffffffff1684529284019290840190600101611997565b5050508381038285015287518082528883019183019060005b818110156119fe578351835292840192918401916001016119e2565b50508760408601528481036060860152611a1881886117a6565b925050508281036080840152611a2e81856117a6565b98975050505050505050565b60008251611a4c818460208701611782565b9190910192915050565b60007f80000000000000000000000000000000000000000000000000000000000000008203611a8757611a876116f2565b5060000390565b60208152600061177b60208301846117a656fea2646970667358221220b7098f995c698c2379ac9849ad12523fc56c41748d6936a3178f73031d06571164736f6c63430008150033",
  "devdoc": {
    "kind": "dev",
    "methods": {},
    "version": 1
  },
  "userdoc": {
    "kind": "user",
    "methods": {},
    "version": 1
  },
  "storageLayout": {
    "storage": [],
    "types": null
  }
}