{
  "address": "0xBbcb91440523216e2b87052A99F69c604A7b6e00",
  "abi": [
    {
      "inputs": [
        {
          "internalType": "address",
          "name": "auth_",
          "type": "address"
        },
        {
          "internalType": "address",
          "name": "liquidity_",
          "type": "address"
        },
        {
          "internalType": "address",
          "name": "deployerContract_",
          "type": "address"
        }
      ],
      "stateMutability": "nonpayable",
      "type": "constructor"
    },
    {
      "inputs": [
        {
          "internalType": "bytes32",
          "name": "dexId",
          "type": "bytes32"
        },
        {
          "internalType": "uint256",
          "name": "token0AdjustedSupply",
          "type": "uint256"
        },
        {
          "internalType": "uint256",
          "name": "token1AdjustedSupply",
          "type": "uint256"
        }
      ],
      "name": "AdjustedSupplyOverflow",
      "type": "error"
    },
    {
      "inputs": [
        {
          "internalType": "uint256",
          "name": "amountUnspecified",
          "type": "uint256"
        },
        {
          "internalType": "uint256",
          "name": "amountLimit",
          "type": "uint256"
        }
      ],
      "name": "AmountLimitExceeded",
      "type": "error"
    },
    {
      "inputs": [
        {
          "internalType": "uint256",
          "name": "amountUnspecified",
          "type": "uint256"
        },
        {
          "internalType": "uint256",
          "name": "amountLimit",
          "type": "uint256"
        }
      ],
      "name": "AmountLimitNotMet",
      "type": "error"
    },
    {
      "inputs": [
        {
          "internalType": "bytes32",
          "name": "dexId",
          "type": "bytes32"
        }
      ],
      "name": "DexNotInitialized",
      "type": "error"
    },
    {
      "inputs": [],
      "name": "EmptyDexKeysArray",
      "type": "error"
    },
    {
      "inputs": [
        {
          "internalType": "uint256",
          "name": "amountUnspecified",
          "type": "uint256"
        }
      ],
      "name": "EstimateSwap",
      "type": "error"
    },
    {
      "inputs": [
        {
          "internalType": "uint256",
          "name": "adjustedAmount",
          "type": "uint256"
        },
        {
          "internalType": "uint256",
          "name": "imaginaryReserve",
          "type": "uint256"
        }
      ],
      "name": "ExcessiveSwapAmount",
      "type": "error"
    },
    {
      "inputs": [
        {
          "internalType": "uint256",
          "name": "errorId_",
          "type": "uint256"
        }
      ],
      "name": "FluidSafeTransferError",
      "type": "error"
    },
    {
      "inputs": [
        {
          "internalType": "uint256",
          "name": "receivedAmount",
          "type": "uint256"
        },
        {
          "internalType": "uint256",
          "name": "requiredAmount",
          "type": "uint256"
        }
      ],
      "name": "InsufficientERC20Received",
      "type": "error"
    },
    {
      "inputs": [
        {
          "internalType": "uint256",
          "name": "receivedAmount",
          "type": "uint256"
        },
        {
          "internalType": "uint256",
          "name": "requiredAmount",
          "type": "uint256"
        }
      ],
      "name": "InsufficientNativeTokenReceived",
      "type": "error"
    },
    {
      "inputs": [
        {
          "internalType": "uint256",
          "name": "dexKeysLength",
          "type": "uint256"
        },
        {
          "internalType": "uint256",
          "name": "amountLimitsLength",
          "type": "uint256"
        }
      ],
      "name": "InvalidAmountLimitsLength",
      "type": "error"
    },
    {
      "inputs": [],
      "name": "InvalidMsgValue",
      "type": "error"
    },
    {
      "inputs": [
        {
          "internalType": "uint256",
          "name": "pathLength",
          "type": "uint256"
        },
        {
          "internalType": "uint256",
          "name": "dexKeysLength",
          "type": "uint256"
        }
      ],
      "name": "InvalidPathLength",
      "type": "error"
    },
    {
      "inputs": [],
      "name": "InvalidPathTokenOrder",
      "type": "error"
    },
    {
      "inputs": [
        {
          "internalType": "uint256",
          "name": "power",
          "type": "uint256"
        }
      ],
      "name": "InvalidPower",
      "type": "error"
    },
    {
      "inputs": [
        {
          "internalType": "uint256",
          "name": "adjustedAmount",
          "type": "uint256"
        }
      ],
      "name": "InvalidSwapAmounts",
      "type": "error"
    },
    {
      "inputs": [
        {
          "internalType": "uint256",
          "name": "token0RealReserve",
          "type": "uint256"
        },
        {
          "internalType": "uint256",
          "name": "token1RealReserve",
          "type": "uint256"
        }
      ],
      "name": "TokenReservesRatioTooHigh",
      "type": "error"
    },
    {
      "inputs": [
        {
          "internalType": "uint256",
          "name": "adjustedAmount",
          "type": "uint256"
        },
        {
          "internalType": "uint256",
          "name": "realReserve",
          "type": "uint256"
        }
      ],
      "name": "TokenReservesTooLow",
      "type": "error"
    },
    {
      "inputs": [
        {
          "internalType": "address",
          "name": "caller",
          "type": "address"
        }
      ],
      "name": "UnauthorizedCaller",
      "type": "error"
    },
    {
      "inputs": [],
      "name": "ZeroAddress",
      "type": "error"
    },
    {
      "anonymous": false,
      "inputs": [
        {
          "indexed": false,
          "internalType": "uint256",
          "name": "swapData",
          "type": "uint256"
        },
        {
          "indexed": false,
          "internalType": "uint256",
          "name": "dexVariables",
          "type": "uint256"
        }
      ],
      "name": "LogSwap",
      "type": "event"
    },
    {
      "stateMutability": "payable",
      "type": "fallback"
    },
    {
      "inputs": [
        {
          "internalType": "bytes32",
          "name": "slot_",
          "type": "bytes32"
        }
      ],
      "name": "readFromStorage",
      "outputs": [
        {
          "internalType": "uint256",
          "name": "result_",
          "type": "uint256"
        }
      ],
      "stateMutability": "view",
      "type": "function"
    },
    {
      "inputs": [
        {
          "internalType": "address[]",
          "name": "path_",
          "type": "address[]"
        },
        {
          "components": [
            {
              "internalType": "address",
              "name": "token0",
              "type": "address"
            },
            {
              "internalType": "address",
              "name": "token1",
              "type": "address"
            },
            {
              "internalType": "bytes32",
              "name": "salt",
              "type": "bytes32"
            }
          ],
          "internalType": "struct DexKey[]",
          "name": "dexKeys_",
          "type": "tuple[]"
        },
        {
          "internalType": "int256",
          "name": "amountSpecified_",
          "type": "int256"
        },
        {
          "internalType": "uint256[]",
          "name": "amountLimits_",
          "type": "uint256[]"
        },
        {
          "components": [
            {
              "internalType": "address",
              "name": "to",
              "type": "address"
            },
            {
              "internalType": "bool",
              "name": "isCallback",
              "type": "bool"
            },
            {
              "internalType": "bytes",
              "name": "callbackData",
              "type": "bytes"
            },
            {
              "internalType": "bytes",
              "name": "extraData",
              "type": "bytes"
            }
          ],
          "internalType": "struct TransferParams",
          "name": "transferParams_",
          "type": "tuple"
        }
      ],
      "name": "swapHop",
      "outputs": [
        {
          "internalType": "uint256",
          "name": "amountUnspecified_",
          "type": "uint256"
        }
      ],
      "stateMutability": "payable",
      "type": "function"
    },
    {
      "inputs": [
        {
          "components": [
            {
              "internalType": "address",
              "name": "token0",
              "type": "address"
            },
            {
              "internalType": "address",
              "name": "token1",
              "type": "address"
            },
            {
              "internalType": "bytes32",
              "name": "salt",
              "type": "bytes32"
            }
          ],
          "internalType": "struct DexKey",
          "name": "dexKey_",
          "type": "tuple"
        },
        {
          "internalType": "bool",
          "name": "swap0To1_",
          "type": "bool"
        },
        {
          "internalType": "int256",
          "name": "amountSpecified_",
          "type": "int256"
        },
        {
          "internalType": "uint256",
          "name": "amountLimit_",
          "type": "uint256"
        },
        {
          "internalType": "address",
          "name": "to_",
          "type": "address"
        },
        {
          "internalType": "bool",
          "name": "isCallback_",
          "type": "bool"
        },
        {
          "internalType": "bytes",
          "name": "callbackData_",
          "type": "bytes"
        },
        {
          "internalType": "bytes",
          "name": "extraData_",
          "type": "bytes"
        }
      ],
      "name": "swapSingle",
      "outputs": [
        {
          "internalType": "uint256",
          "name": "amountUnspecified_",
          "type": "uint256"
        }
      ],
      "stateMutability": "payable",
      "type": "function"
    },
    {
      "stateMutability": "payable",
      "type": "receive"
    }
  ],
  "transactionHash": "0xb6af3d776f38b90d99dc0831b13c9843bc1fee495dd3d7709494559830b185a6",
  "args": [
    "0x8a5B57d047D284A2A6ec774A8BCA2BeaB2A6C955",
    "0x52Aa899454998Be5b000Ad077a46Bbe360F4e497",
    "0x4EC7b668BAF70d4A4b0FC7941a7708A07b6d45Be"
  ],
  "numDeployments": 3,
  "solcInputHash": "050ab2b87d73c9c3290cf8273ff2402d",
  "bytecode": "0x60c060405234801561000f575f5ffd5b506040516140f83803806140f883398101604081905261002e91610074565b6001600160a01b039283165f908152602081905260409020600190559082166080521660a0526100b4565b80516001600160a01b038116811461006f575f5ffd5b919050565b5f5f5f60608486031215610086575f5ffd5b61008f84610059565b925061009d60208501610059565b91506100ab60408501610059565b90509250925092565b60805160a05161401c6100dc5f395f818161247901526131c601525f6101ee015261401c5ff3fe608060405260043610610037575f3560e01c80637fc9d4ad146100f7578063a3c779fd1461011c578063b5c736e41461012f5761003e565b3661003e57005b5f36606061004a61014d565b335f9081526020819052604090205460011480159061008657503361006d61019e565b73ffffffffffffffffffffffffffffffffffffffff1614155b156100c4576040517fd86ad9cf0000000000000000000000000000000000000000000000000000000081523360048201526024015b60405180910390fd5b5f806100d2848601866137f8565b915091506100e08282610271565b925050506100ec6102b3565b915050805190602001f35b61010a61010536600461395f565b6102d8565b60405190815260200160405180910390f35b61010a61012a366004613a85565b610634565b34801561013a575f5ffd5b5061010a610149366004613b88565b5490565b7fb9cde754d19acfff2b3ccabc66f256d3563a0bc5805da4205f01a9bda38a2df75c15610178575f5ffd5b60017fb9cde754d19acfff2b3ccabc66f256d3563a0bc5805da4205f01a9bda38a2df75d565b6040517fb5c736e40000000000000000000000000000000000000000000000000000000081527fb53127684a568b3173ae13b9f8a6016e243e63b6e8ee1178d6a717850b5d610360048201525f907f000000000000000000000000000000000000000000000000000000000000000073ffffffffffffffffffffffffffffffffffffffff169063b5c736e490602401602060405180830381865afa158015610248573d5f5f3e3d5ffd5b505050506040513d601f19601f8201168201806040525081019061026c9190613b9f565b905090565b60605f5f835160208501865af43d6040519250601f19601f6020830101168301604052808352805f602085013e816102ab57805f5f3e805ffd5b505092915050565b5f7fb9cde754d19acfff2b3ccabc66f256d3563a0bc5805da4205f01a9bda38a2df75d565b5f6102e161014d565b5f8913156104a6576102f48b8b8b610ff5565b90508781101561033a576040517f552ac31300000000000000000000000000000000000000000000000000000000815260048101829052602481018990526044016100bb565b5f82900361039c57891561037b5761037661035860208d018d613bb6565b8a8d602001602081019061036c9190613bb6565b848b8b8b8b611794565b61061e565b61037661038e60408d0160208e01613bb6565b8a61036c60208f018f613bb6565b60408051808201909152600d81527f455354494d4154455f53574150000000000000000000000000000000000000006020909101527f9fbe8fb0ae8f68c4e90aaac8dee895c5ba9596470c68a601101c9d65a103a9436103fc8385613bd8565b03610436576040517f5fea03c9000000000000000000000000000000000000000000000000000000008152600481018290526024016100bb565b61037660018c8c8c85888860405160200161045696959493929190613cb2565b604080517fffffffffffffffffffffffffffffffffffffffffffffffffffffffffffffffe0818403018152908290526104929291602001613ce6565b604051602081830303815290604052611c54565b6104b98b8b6104b48c613d6f565b611cdb565b9050878111156104ff576040517f97121c2100000000000000000000000000000000000000000000000000000000815260048101829052602481018990526044016100bb565b5f8290036105645789156105435761037661051d60208d018d613bb6565b828d60200160208101906105319190613bb6565b61053a8d613d6f565b8b8b8b8b611794565b61037661055660408d0160208e01613bb6565b8261053160208f018f613bb6565b60408051808201909152600d81527f455354494d4154455f53574150000000000000000000000000000000000000006020909101527f9fbe8fb0ae8f68c4e90aaac8dee895c5ba9596470c68a601101c9d65a103a9436105c48385613bd8565b036105fe576040517f5fea03c9000000000000000000000000000000000000000000000000000000008152600481018290526024016100bb565b61061e60018c8c8c85888860405160200161045696959493929190613cb2565b6106266102b3565b9a9950505050505050505050565b5f61063d61014d565b5f869003610677576040517fd15d5eeb00000000000000000000000000000000000000000000000000000000815260040160405180910390fd5b8561068360018a613da5565b146106c4576040517f88b3170e00000000000000000000000000000000000000000000000000000000815260048101899052602481018790526044016100bb565b828614610707576040517fb932f13700000000000000000000000000000000000000000000000000000000815260048101849052602481018790526044016100bb565b5f851315610b865750835f5b86811015610a15575f88888381811061072e5761072e613db8565b6107449260206060909202019081019150613bb6565b73ffffffffffffffffffffffffffffffffffffffff168b8b8481811061076c5761076c613db8565b90506020020160208101906107819190613bb6565b73ffffffffffffffffffffffffffffffffffffffff1614801561082157508888838181106107b1576107b1613db8565b90506060020160200160208101906107c99190613bb6565b73ffffffffffffffffffffffffffffffffffffffff168b8b846001018181106107f4576107f4613db8565b90506020020160208101906108099190613bb6565b73ffffffffffffffffffffffffffffffffffffffff16145b1561082e57506001610971565b88888381811061084057610840613db8565b90506060020160200160208101906108589190613bb6565b73ffffffffffffffffffffffffffffffffffffffff168b8b8481811061088057610880613db8565b90506020020160208101906108959190613bb6565b73ffffffffffffffffffffffffffffffffffffffff1614801561093357508888838181106108c5576108c5613db8565b6108db9260206060909202019081019150613bb6565b73ffffffffffffffffffffffffffffffffffffffff168b8b8460010181811061090657610906613db8565b905060200201602081019061091b9190613bb6565b73ffffffffffffffffffffffffffffffffffffffff16145b1561093f57505f610971565b6040517f0a33bc9500000000000000000000000000000000000000000000000000000000815260040160405180910390fd5b61099389898481811061098657610986613db8565b9050606002018285610ff5565b92508585838181106109a7576109a7613db8565b90506020020135831015610a0c57828686848181106109c8576109c8613db8565b905060200201356040517f552ac3130000000000000000000000000000000000000000000000000000000081526004016100bb929190918252602082015260400190565b50600101610713565b50610a236060830183613de5565b90505f03610ab257610aad89895f818110610a4057610a40613db8565b9050602002016020810190610a559190613bb6565b868b8b8a818110610a6857610a68613db8565b9050602002016020810190610a7d9190613bb6565b84610a8b6020880188613bb6565b610a9b6040890160208a01613e46565b610aa860408a018a613de5565b611794565b610fe1565b60408051808201909152600d81527f455354494d4154455f53574150000000000000000000000000000000000000006020909101527f9fbe8fb0ae8f68c4e90aaac8dee895c5ba9596470c68a601101c9d65a103a943610b156060840184613de5565b610b1e91613bd8565b03610b58576040517f5fea03c9000000000000000000000000000000000000000000000000000000008152600481018290526024016100bb565b610aad5f8a8a8a8a8a87610b6f60608b018b613de5565b604051602001610456989796959493929190613e5f565b610b8f85613d6f565b9050855b8015610ea6575f888860018403818110610baf57610baf613db8565b610bc59260206060909202019081019150613bb6565b73ffffffffffffffffffffffffffffffffffffffff168b8b60018503818110610bf057610bf0613db8565b9050602002016020810190610c059190613bb6565b73ffffffffffffffffffffffffffffffffffffffff16148015610ca55750888860018403818110610c3857610c38613db8565b9050606002016020016020810190610c509190613bb6565b73ffffffffffffffffffffffffffffffffffffffff168b8b84818110610c7857610c78613db8565b9050602002016020810190610c8d9190613bb6565b73ffffffffffffffffffffffffffffffffffffffff16145b15610cb257506001610dc5565b888860018403818110610cc757610cc7613db8565b9050606002016020016020810190610cdf9190613bb6565b73ffffffffffffffffffffffffffffffffffffffff168b8b60018503818110610d0a57610d0a613db8565b9050602002016020810190610d1f9190613bb6565b73ffffffffffffffffffffffffffffffffffffffff16148015610dbd5750888860018403818110610d5257610d52613db8565b610d689260206060909202019081019150613bb6565b73ffffffffffffffffffffffffffffffffffffffff168b8b84818110610d9057610d90613db8565b9050602002016020810190610da59190613bb6565b73ffffffffffffffffffffffffffffffffffffffff16145b1561093f57505f5b610df18989610dd5600186613da5565b818110610de457610de4613db8565b9050606002018285611cdb565b92508585610e00600185613da5565b818110610e0f57610e0f613db8565b90506020020135831115610e7e57828686610e2b600186613da5565b818110610e3a57610e3a613db8565b905060200201356040517f97121c210000000000000000000000000000000000000000000000000000000081526004016100bb929190918252602082015260400190565b507fffffffffffffffffffffffffffffffffffffffffffffffffffffffffffffffff01610b93565b50610eb46060830183613de5565b90505f03610f2457610aad89895f818110610ed157610ed1613db8565b9050602002016020810190610ee69190613bb6565b828b8b8a818110610ef957610ef9613db8565b9050602002016020810190610f0e9190613bb6565b610f1789613d6f565b610a8b6020880188613bb6565b60408051808201909152600d81527f455354494d4154455f53574150000000000000000000000000000000000000006020909101527f9fbe8fb0ae8f68c4e90aaac8dee895c5ba9596470c68a601101c9d65a103a943610f876060840184613de5565b610f9091613bd8565b03610fca576040517f5fea03c9000000000000000000000000000000000000000000000000000000008152600481018290526024016100bb565b610fe15f8a8a8a8a8a87610b6f60608b018b613de5565b610fe96102b3565b98975050505050505050565b5f5f846040516020016110089190613f1d565b604080517fffffffffffffffffffffffffffffffffffffffffffffffffffffffffffffffe081840301815291815281516020928301207fffffffffffffffff00000000000000000000000000000000000000000000000081165f908152600290935290822054909250908190036110cf576040517f722948110000000000000000000000000000000000000000000000000000000081527fffffffffffffffff000000000000000000000000000000000000000000000000831660048201526024016100bb565b608881901c670fffffffffffffff1660c482901c5f80806110f38b87898888612435565b92509250925089156112b857607e86901c601f1660098111156111325761111c60098203612844565b8a8161112a5761112a613f2b565b049950611143565b61113e81600903612844565b8a0299505b6127108a108061115a5750670fffffffffffffff8a115b15611194576040517f17d5c4d2000000000000000000000000000000000000000000000000000000008152600481018b90526024016100bb565b600283048a11156111db576040517ffecbb38c000000000000000000000000000000000000000000000000000000008152600481018b9052602481018490526044016100bb565b620f4240611fff88168b0204808b03848101908402816111fd576111fd613f2b565b0499506064600d89901c607f168202048b038701965089861015611257576040517f473f499f000000000000000000000000000000000000000000000000000000008152600481018b9052602481018790526044016100bb565b94899003946c7e37be2022c0914b2680000000878602048610156112b1576040517fb499466c00000000000000000000000000000000000000000000000000000000815260048101889052602481018790526044016100bb565b505061147d565b608386901c601f1660098111156112eb576112d560098203612844565b8a816112e3576112e3613f2b565b0499506112fc565b6112f781600903612844565b8a0299505b6127108a10806113135750670fffffffffffffff8a115b1561134d576040517f17d5c4d2000000000000000000000000000000000000000000000000000000008152600481018b90526024016100bb565b600282048a1115611394576040517ffecbb38c000000000000000000000000000000000000000000000000000000008152600481018b9052602481018390526044016100bb565b620f4240611fff88168b0204808b03838101908502816113b6576113b6613f2b565b0499506064600d89901c607f168202048b038601955089871015611410576040517f473f499f000000000000000000000000000000000000000000000000000000008152600481018b9052602481018890526044016100bb565b898703965061271085026b033b2e3c9fd0803ce800000087028161143657611436613f2b565b0487101561147a576040517fb499466c00000000000000000000000000000000000000000000000000000000815260048101889052602481018790526044016100bb565b50505b601486901c60031680156114ee575f8b6114b8578984036b033b2e3c9fd0803ce80000008c850102816114b2576114b2613f2b565b046114db565b8a84016b033b2e3c9fd0803ce80000008b850302816114d9576114d9613f2b565b045b90506114ea888a848489612927565b9150505b600181118061150457506001601688901c166001145b15611562577fffffffffffffffff00000000000000000000000000000000000000000000000088165f90815260036020526040902080547ffffffffffffffffffffffffffffffffffffffffffffffffffffffffe0000000016421790555b50670fffffffffffffff8511806115805750670fffffffffffffff84115b156115e9576040517f9e0db8780000000000000000000000000000000000000000000000000000000081527fffffffffffffffff0000000000000000000000000000000000000000000000008816600482015260248101869052604481018590526064016100bb565b7fffffffffffffffff00000000000000000000000000000000000000000000000087165f908152600260205260409020805470ffffffffffffffffffffffffffffffffff16608887901b1760c486901b1790819055955089156116f0576040805168010000000000000000607d8b901b60418d901b60c08c901c1717178152602081018890527ffbce846c23a724e6e61161894819ec46c90a8d3dd96e90e7342c6ef49ffb539c910160405180910390a1608386901c601f1660098111156116cf576116be6116b9600983613da5565b612844565b6116c8908a613f58565b98506116ea565b6116dd6116b9826009613da5565b6116e7908a613f6f565b98505b50611786565b60408051607d8a901b60418c901b60c08b901c17178152602081018890527ffbce846c23a724e6e61161894819ec46c90a8d3dd96e90e7342c6ef49ffb539c910160405180910390a1607e86901c601f166009811115611769576117586116b9600983613da5565b611762908a613f58565b9850611784565b6117776116b9826009613da5565b611781908a613f6f565b98505b505b505050505050509392505050565b73ffffffffffffffffffffffffffffffffffffffff84166117b3573393505b7fffffffffffffffffffffffff111111111111111111111111111111111111111273ffffffffffffffffffffffffffffffffffffffff8716016117ff576117fa8486612b3f565b61180a565b61180a868587612b88565b7fffffffffffffffffffffffff111111111111111111111111111111111111111273ffffffffffffffffffffffffffffffffffffffff89160161198b57828015611852575034155b15611928576040517fb6a545480000000000000000000000000000000000000000000000000000000081524790339063b6a545489061189b908c908c9088908890600401613fa7565b5f604051808303815f87803b1580156118b2575f5ffd5b505af11580156118c4573d5f5f3e3d5ffd5b505050508781476118d59190613da5565b1015611922576118e58147613da5565b6040517fbdd289ca0000000000000000000000000000000000000000000000000000000081526004810191909152602481018990526044016100bb565b50611c4a565b8634101561196b576040517fbdd289ca000000000000000000000000000000000000000000000000000000008152346004820152602481018890526044016100bb565b8634111561198657611986336119818934613da5565b612b3f565b611c4a565b34156119c3576040517f1841b4e100000000000000000000000000000000000000000000000000000000815260040160405180910390fd5b8215611c3e576040517f70a082310000000000000000000000000000000000000000000000000000000081523060048201525f9073ffffffffffffffffffffffffffffffffffffffff8a16906370a0823190602401602060405180830381865afa158015611a33573d5f5f3e3d5ffd5b505050506040513d601f19601f82011682018060405250810190611a579190613b9f565b6040517fb6a54548000000000000000000000000000000000000000000000000000000008152909150339063b6a5454890611a9c908c908c9088908890600401613fa7565b5f604051808303815f87803b158015611ab3575f5ffd5b505af1158015611ac5573d5f5f3e3d5ffd5b50506040517f70a082310000000000000000000000000000000000000000000000000000000081523060048201528a925083915073ffffffffffffffffffffffffffffffffffffffff8c16906370a0823190602401602060405180830381865afa158015611b35573d5f5f3e3d5ffd5b505050506040513d601f19601f82011682018060405250810190611b599190613b9f565b611b639190613da5565b1015611922576040517f70a08231000000000000000000000000000000000000000000000000000000008152306004820152819073ffffffffffffffffffffffffffffffffffffffff8b16906370a0823190602401602060405180830381865afa158015611bd3573d5f5f3e3d5ffd5b505050506040513d601f19601f82011682018060405250810190611bf79190613b9f565b611c019190613da5565b6040517faf35ea9e0000000000000000000000000000000000000000000000000000000081526004810191909152602481018990526044016100bb565b611c4a8833308a612c2e565b5050505050505050565b5f611c7d7f7e8134afb5ed35d36cb65e24b9a4712a52bb77d952806c1acf50970d2107797f5490565b905073ffffffffffffffffffffffffffffffffffffffff8116611ccc576040517fd92e233d00000000000000000000000000000000000000000000000000000000815260040160405180910390fd5b611cd68183610271565b505050565b5f5f84604051602001611cee9190613f1d565b604080517fffffffffffffffffffffffffffffffffffffffffffffffffffffffffffffffe081840301815291815281516020928301207fffffffffffffffff00000000000000000000000000000000000000000000000081165f90815260029093529082205490925090819003611db5576040517f722948110000000000000000000000000000000000000000000000000000000081527fffffffffffffffff000000000000000000000000000000000000000000000000831660048201526024016100bb565b608881901c670fffffffffffffff1660c482901c5f8080611dd98b87898888612435565b9250925092508915611fb557608386901c601f166009811115611e1857611e0260098203612844565b8a81611e1057611e10613f2b565b049950611e29565b611e2481600903612844565b8a0299505b6127108a1080611e405750670fffffffffffffff8a115b15611e7a576040517f17d5c4d2000000000000000000000000000000000000000000000000000000008152600481018b90526024016100bb565b600282048a1115611ec1576040517ffecbb38c000000000000000000000000000000000000000000000000000000008152600481018b9052602481018390526044016100bb565b898203838b0281611ed457611ed4613f2b565b0498505f89611fff8916620f424090810390820281611ef557611ef5613f2b565b0403998a019990506064600d89901c607f168202048a03870196508a861015611f54576040517f473f499f000000000000000000000000000000000000000000000000000000008152600481018c9052602481018790526044016100bb565b948a9003946c7e37be2022c0914b268000000087860204861015611fae576040517fb499466c00000000000000000000000000000000000000000000000000000000815260048101889052602481018790526044016100bb565b5050612191565b607e86901c601f166009811115611fe857611fd260098203612844565b8a81611fe057611fe0613f2b565b049950611ff9565b611ff481600903612844565b8a0299505b6127108a10806120105750670fffffffffffffff8a115b1561204a576040517f17d5c4d2000000000000000000000000000000000000000000000000000000008152600481018b90526024016100bb565b600283048a1115612091576040517ffecbb38c000000000000000000000000000000000000000000000000000000008152600481018b9052602481018490526044016100bb565b898303828b02816120a4576120a4613f2b565b0498505f89611fff8916620f4240908103908202816120c5576120c5613f2b565b0403998a019990506064600d89901c607f168202048a03860195508a871015612124576040517f473f499f000000000000000000000000000000000000000000000000000000008152600481018c9052602481018890526044016100bb565b8a8703965061271085026b033b2e3c9fd0803ce800000087028161214a5761214a613f2b565b0487101561218e576040517fb499466c00000000000000000000000000000000000000000000000000000000815260048101889052602481018790526044016100bb565b50505b601486901c6003168015612202575f8b6121cc578a84036b033b2e3c9fd0803ce80000008b850102816121c6576121c6613f2b565b046121ef565b8984016b033b2e3c9fd0803ce80000008c850302816121ed576121ed613f2b565b045b90506121fe888a848489612927565b9150505b600181118061221857506001601688901c166001145b15612276577fffffffffffffffff00000000000000000000000000000000000000000000000088165f90815260036020526040902080547ffffffffffffffffffffffffffffffffffffffffffffffffffffffffe0000000016421790555b50670fffffffffffffff8511806122945750670fffffffffffffff84115b156122fd576040517f9e0db8780000000000000000000000000000000000000000000000000000000081527fffffffffffffffff0000000000000000000000000000000000000000000000008816600482015260248101869052604481018590526064016100bb565b7fffffffffffffffff00000000000000000000000000000000000000000000000087165f908152600260205260409020805470ffffffffffffffffffffffffffffffffff16608887901b1760c486901b1790819055955089156123cd576040805168010000000000000000607d8c901b60418c901b60c08c901c1717178152602081018890527ffbce846c23a724e6e61161894819ec46c90a8d3dd96e90e7342c6ef49ffb539c910160405180910390a1607e86901c601f1660098111156116cf576116be6116b9600983613da5565b60408051607d8b901b60418b901b60c08b901c17178152602081018890527ffbce846c23a724e6e61161894819ec46c90a8d3dd96e90e7342c6ef49ffb539c910160405180910390a1608386901c601f166009811115611769576117586116b9600983613da5565b5f5f5f6001601688901c165f03612570576207ffff603f88901c169250825f036124745763ffffffff601f88901c1660ff601789901c161b925061257e565b61249e7f000000000000000000000000000000000000000000000000000000000000000084612cf1565b73ffffffffffffffffffffffffffffffffffffffff166302c59a686124c660208b018b613bb6565b6124d660408c0160208d01613bb6565b6040517fffffffff0000000000000000000000000000000000000000000000000000000060e085901b16815273ffffffffffffffffffffffffffffffffffffffff9283166004820152911660248201526044016020604051808303815f875af1158015612545573d5f5f3e3d5ffd5b505050506040513d601f19601f820116820180604052508101906125699190613b9f565b925061257e565b61257b88888861315a565b92505b613fff605388901c811690606189901c16600160528a901c811690036125af576125a982828a61344e565b90925090505b5f5f83612710036127108802816125c8576125c8613f2b565b04915050612710828103870204600360148c901c165f6001821115612751578160020361266557507fffffffffffffffff0000000000000000000000000000000000000000000000008b165f90815260036020526040902054602181901c62ffffff166401ffffffff821642038181101561265a5781818c8803028161265057612650613f2b565b048b019a5061265e565b859a505b50506126df565b816003036126df57507fffffffffffffffff0000000000000000000000000000000000000000000000008b165f90815260036020526040902054602181901c62ffffff166401ffffffff82164203818110156126d8578181868d0302816126ce576126ce613f2b565b048b039a506126dc565b849a505b50505b801561275157620fffff604182901c1660ff603983901c161b91508189111561270a5781985061272b565b620fffff605d82901c1660ff605583901c161b91508189101561272b578198505b85612710036127108a028161274257612742613f2b565b0493506127108581038a020492505b6f4b3b4ca85a86c47a098a22400000000084101561277b5761277483850261354d565b91506127a7565b61279a670de0b6b3a76400008404670de0b6b3a764000086040261354d565b670de0b6b3a76400000291505b6b033b2e3c9fd0803ce80000008210156127d1576127c782858d8d6135ff565b909850965061282e565b61282982760a70c3c40a64e6c51999090b65f67d9240000000000000816127fa576127fa613f2b565b0484760a70c3c40a64e6c51999090b65f67d92400000000000008161282157612821613f2b565b048c8e6135ff565b985096505b50969c959098019a505050930195509350505050565b5f8160030361285657506103e8919050565b816009036128695750633b9aca00919050565b816001036128795750600a919050565b815f0361288857506001919050565b8160020361289857506064919050565b816004036128a95750612710919050565b816005036128bb5750620186a0919050565b816006036128cd5750620f4240919050565b816007036128df575062989680919050565b816008036128f257506305f5e100919050565b6040517f42cfde25000000000000000000000000000000000000000000000000000000008152600481018390526024016100bb565b5f613fff605387901c811690606188901c166001605289901c811690036129595761295382828961344e565b90925090505b816127100361271085028161297057612970613f2b565b0491506127108181038502049050607f607089901c81169060778a901c166001606f8b901c811690036129ae576129a882828b613678565b90925090505b6064918203868503028290048601919081038387030204850381871115612a465787600214612a41575050507fffffffffffffffff00000000000000000000000000000000000000000000000086165f90815260026020819052604090912080547fffffffffffffffffffffffffffffffffffffffffffffffffffffffffffcfffff16622000001790559150612b369050565b612b2e565b80871015612abe5787600314612a41575050507fffffffffffffffff00000000000000000000000000000000000000000000000086165f90815260026020526040902080547fffffffffffffffffffffffffffffffffffffffffffffffffffffffffffcfffff16623000001790555060039050612b36565b87600114612b2e575050507fffffffffffffffff00000000000000000000000000000000000000000000000086165f90815260026020526040902080547fffffffffffffffffffffffffffffffffffffffffffffffffffffffffffcfffff16621000001790555060019050612b36565b879450505050505b95945050505050565b5f5f5f5f5f8587614e20f1905080611cd6576040517fdee51a8a0000000000000000000000000000000000000000000000000000000081526201155a60048201526024016100bb565b5f6040517fa9059cbb00000000000000000000000000000000000000000000000000000000815273ffffffffffffffffffffffffffffffffffffffff8416600482015282602482015260205f6044835f895af13d15601f3d1160015f511416171691505080612c28576040517fdee51a8a0000000000000000000000000000000000000000000000000000000081526201155a60048201526024016100bb565b50505050565b5f6040517f23b872dd00000000000000000000000000000000000000000000000000000000815273ffffffffffffffffffffffffffffffffffffffff8516600482015273ffffffffffffffffffffffffffffffffffffffff8416602482015282604482015260205f6064835f8a5af13d15601f3d1160015f511416171691505080612cea576040517fdee51a8a0000000000000000000000000000000000000000000000000000000081526201155960048201526024016100bb565b5050505050565b5f6060825f03612d04575f915050613154565b607f8311612dcd576040517fd60000000000000000000000000000000000000000000000000000000000000060208201527f940000000000000000000000000000000000000000000000000000000000000060218201527fffffffffffffffffffffffffffffffffffffffff000000000000000000000000606086901b16602282015260f884901b7fff000000000000000000000000000000000000000000000000000000000000001660368201526037015b6040516020818303038152906040529050613149565b60ff8311612eaa576040517fd70000000000000000000000000000000000000000000000000000000000000060208201527f940000000000000000000000000000000000000000000000000000000000000060218201527fffffffffffffffffffffffffffffffffffffffff000000000000000000000000606086901b1660228201527f8100000000000000000000000000000000000000000000000000000000000000603682015260f884901b7fff00000000000000000000000000000000000000000000000000000000000000166037820152603801612db7565b61ffff8311612f88576040517fd80000000000000000000000000000000000000000000000000000000000000060208201527f940000000000000000000000000000000000000000000000000000000000000060218201527fffffffffffffffffffffffffffffffffffffffff000000000000000000000000606086901b1660228201527f820000000000000000000000000000000000000000000000000000000000000060368201527fffff00000000000000000000000000000000000000000000000000000000000060f085901b166037820152603901612db7565b62ffffff8311613067576040517fd90000000000000000000000000000000000000000000000000000000000000060208201527f940000000000000000000000000000000000000000000000000000000000000060218201527fffffffffffffffffffffffffffffffffffffffff000000000000000000000000606086901b1660228201527f830000000000000000000000000000000000000000000000000000000000000060368201527fffffff000000000000000000000000000000000000000000000000000000000060e885901b166037820152603a01612db7565b6040517fda0000000000000000000000000000000000000000000000000000000000000060208201527f940000000000000000000000000000000000000000000000000000000000000060218201527fffffffffffffffffffffffffffffffffffffffff000000000000000000000000606086901b1660228201527f840000000000000000000000000000000000000000000000000000000000000060368201527fffffffff0000000000000000000000000000000000000000000000000000000060e085901b166037820152603b0160405160208183030381529060405290505b805160209091012090505b92915050565b7fffffffffffffffff00000000000000000000000000000000000000000000000081165f90815260036020526040812054601f84901c63ffffffff16601785901c60ff161b906401ffffffff609982901c81169082168181116131bd57816131bf565b805b90506131f47f00000000000000000000000000000000000000000000000000000000000000006207ffff603f8a901c16612cf1565b73ffffffffffffffffffffffffffffffffffffffff166302c59a6861321c60208b018b613bb6565b61322c60408c0160208d01613bb6565b6040517fffffffff0000000000000000000000000000000000000000000000000000000060e085901b16815273ffffffffffffffffffffffffffffffffffffffff9283166004820152911660248201526044016020604051808303815f875af115801561329b573d5f5f3e3d5ffd5b505050506040513d601f19601f820116820180604052508101906132bf9190613b9f565b94505f620f4240620fffff608586901c1602824203620fffff607187901c16870202816132ee576132ee613f2b565b0490508486111561339857938401938486111561330d57849550613442565b7fffffffffffffffff00000000000000000000000000000000000000000000000087165f90815260036020908152604080832080547ffffffffffffffffffc000000000000000001ffffffffffffffffffffffffffff1690556002909152902080547fffffffffffffffffffffffffffffffffffffffffffffffffffffffffffbfffff169055613442565b8085116133a5575f6133a9565b8085035b9450848610156133bb57849550613442565b7fffffffffffffffff00000000000000000000000000000000000000000000000087165f90815260036020908152604080832080547ffffffffffffffffffc000000000000000001ffffffffffffffffffffffffffff1690556002909152902080547fffffffffffffffffffffffffffffffffffffffffffffffffffffffffffbfffff1690555b50505050509392505050565b7fffffffffffffffff00000000000000000000000000000000000000000000000081165f908152600460205260408120548190601c81901c620fffff16603082901c6401ffffffff168342828401101561351357505050507fffffffffffffffff00000000000000000000000000000000000000000000000083165f9081526004602090815260408083208390556002909152902080547ffffffffffffffffffffffffffffffffffffffffffffbffffffffffffffffffff1690555083905082613545565b504281900361352889613fff86168386613760565b61353c89613fff600e88901c168487613760565b95509550505050505b935093915050565b60b5817101000000000000000000000000000000000081106135745760409190911b9060801c5b690100000000000000000081106135905760209190911b9060401c5b6501000000000081106135a85760109190911b9060201c5b630100000081106135be5760089190911b9060101c5b62010000010260121c80820401600190811c80830401811c80830401811c80830401811c80830401811c80830401811c80830401901c908190048111900390565b5f8085850381600282028689026b033b2e3c9fd0803ce80000008702018161362957613629613f2b565b049050613658818202836b033b2e3c9fd0803ce8000000888a02028161365157613651613f2b565b040161354d565b01976b033b2e3c9fd0803ce8000000978902979097049695505050505050565b7fffffffffffffffff00000000000000000000000000000000000000000000000081165f908152600560205260408120548190600e81901c620fffff16602282901c6401ffffffff168342828401101561373d57505050507fffffffffffffffff00000000000000000000000000000000000000000000000083165f9081526005602090815260408083208390556002909152902080547fffffffffffffffffffffffffffffffffffff7fffffffffffffffffffffffffff1690555083905082613545565b504281900361375189607f86168386613760565b61353c89607f600788901c1684875b5f83851115613786578183858703028161377c5761377c613f2b565b048401905061379f565b8183868603028161379957613799613f2b565b04840390505b949350505050565b73ffffffffffffffffffffffffffffffffffffffff811681146137c8575f5ffd5b50565b7f4e487b71000000000000000000000000000000000000000000000000000000005f52604160045260245ffd5b5f5f60408385031215613809575f5ffd5b8235613814816137a7565b9150602083013567ffffffffffffffff81111561382f575f5ffd5b8301601f8101851361383f575f5ffd5b803567ffffffffffffffff811115613859576138596137cb565b6040517fffffffffffffffffffffffffffffffffffffffffffffffffffffffffffffffe0603f7fffffffffffffffffffffffffffffffffffffffffffffffffffffffffffffffe0601f8501160116810181811067ffffffffffffffff821117156138c5576138c56137cb565b6040528181528282016020018710156138dc575f5ffd5b816020840160208301375f602083830101528093505050509250929050565b8035801515811461390a575f5ffd5b919050565b803561390a816137a7565b5f5f83601f84011261392a575f5ffd5b50813567ffffffffffffffff811115613941575f5ffd5b602083019150836020828501011115613958575f5ffd5b9250929050565b5f5f5f5f5f5f5f5f5f5f8a8c0361014081121561397a575f5ffd5b6060811215613987575f5ffd5b508a995061399760608c016138fb565b985060808b0135975060a08b013596506139b360c08c0161390f565b95506139c160e08c016138fb565b94506101008b013567ffffffffffffffff8111156139dd575f5ffd5b6139e98d828e0161391a565b9095509350506101208b013567ffffffffffffffff811115613a09575f5ffd5b613a158d828e0161391a565b915080935050809150509295989b9194979a5092959850565b5f5f83601f840112613a3e575f5ffd5b50813567ffffffffffffffff811115613a55575f5ffd5b6020830191508360208260051b8501011115613958575f5ffd5b5f60808284031215613a7f575f5ffd5b50919050565b5f5f5f5f5f5f5f5f60a0898b031215613a9c575f5ffd5b883567ffffffffffffffff811115613ab2575f5ffd5b613abe8b828c01613a2e565b909950975050602089013567ffffffffffffffff811115613add575f5ffd5b8901601f81018b13613aed575f5ffd5b803567ffffffffffffffff811115613b03575f5ffd5b8b6020606083028401011115613b17575f5ffd5b6020919091019650945060408901359350606089013567ffffffffffffffff811115613b41575f5ffd5b613b4d8b828c01613a2e565b909450925050608089013567ffffffffffffffff811115613b6c575f5ffd5b613b788b828c01613a6f565b9150509295985092959890939650565b5f60208284031215613b98575f5ffd5b5035919050565b5f60208284031215613baf575f5ffd5b5051919050565b5f60208284031215613bc6575f5ffd5b8135613bd1816137a7565b9392505050565b80356020831015613154577fffffffffffffffffffffffffffffffffffffffffffffffffffffffffffffffff602084900360031b1b1692915050565b8035613c1f816137a7565b73ffffffffffffffffffffffffffffffffffffffff1682526020810135613c45816137a7565b73ffffffffffffffffffffffffffffffffffffffff166020830152604090810135910152565b81835281816020850137505f602082840101525f60207fffffffffffffffffffffffffffffffffffffffffffffffffffffffffffffffe0601f840116840101905092915050565b613cbc8188613c14565b85151560608201528460808201528360a082015260e060c08201525f610fe960e083018486613c6b565b8215158152604060208201525f82518060408401528060208501606085015e5f6060828501015260607fffffffffffffffffffffffffffffffffffffffffffffffffffffffffffffffe0601f8301168401019150509392505050565b7f4e487b71000000000000000000000000000000000000000000000000000000005f52601160045260245ffd5b5f7f80000000000000000000000000000000000000000000000000000000000000008203613d9f57613d9f613d42565b505f0390565b8181038181111561315457613154613d42565b7f4e487b71000000000000000000000000000000000000000000000000000000005f52603260045260245ffd5b5f5f83357fffffffffffffffffffffffffffffffffffffffffffffffffffffffffffffffe1843603018112613e18575f5ffd5b83018035915067ffffffffffffffff821115613e32575f5ffd5b602001915036819003821315613958575f5ffd5b5f60208284031215613e56575f5ffd5b613bd1826138fb565b60a080825281018890525f8960c08301825b8b811015613eae578235613e84816137a7565b73ffffffffffffffffffffffffffffffffffffffff16825260209283019290910190600101613e71565b50838103602080860191909152898252019050885f805b8a811015613eea57613ed78484613c14565b6060938401939290920191600101613ec5565b50505060408301879052606083018690528281036080840152613f0e818587613c6b565b9b9a5050505050505050505050565b606081016131548284613c14565b7f4e487b71000000000000000000000000000000000000000000000000000000005f52601260045260245ffd5b808202811582820484141761315457613154613d42565b5f82613fa2577f4e487b71000000000000000000000000000000000000000000000000000000005f52601260045260245ffd5b500490565b73ffffffffffffffffffffffffffffffffffffffff85168152836020820152606060408201525f613fdc606083018486613c6b565b969550505050505056fea264697066735822122048314b8dec15e796decf36eb636ff0c09330021781b58dfce741aa70a3f264ab64736f6c634300081d0033",
  "devdoc": {
    "kind": "dev",
    "methods": {
      "swapHop(address[],(address,address,bytes32)[],int256,uint256[],(address,bool,bytes,bytes))": {
        "details": "Uses _swapIn for positive amountSpecified_ (user provides input), _swapOut for negative (user receives output).",
        "params": {
          "amountLimits_": "The minimum/maximum amount for the unspecified side for all swaps.",
          "amountSpecified_": "The amount to swap (positive for exact input, negative for exact output).",
          "dexKeys_": "The dex pools to swap through.",
          "path_": "The path of the swap.",
          "transferParams_": "The parameters for the transfer."
        },
        "returns": {
          "amountUnspecified_": "The amount of the unspecified token."
        }
      },
      "swapSingle((address,address,bytes32),bool,int256,uint256,address,bool,bytes,bytes)": {
        "details": "Uses _swapIn for positive amountSpecified_ (user provides input), _swapOut for negative (user receives output).",
        "params": {
          "amountLimit_": "The minimum/maximum amount for the unspecified side.",
          "amountSpecified_": "The amount to swap (positive for exact input, negative for exact output).",
          "dexKey_": "The dex pool to swap through.",
          "swap0To1_": "Whether to swap from token0 to token1 or vice versa.",
          "to_": "The recipient address."
        }
      }
    },
    "title": "FluidDexLite",
    "version": 1
  },
  "userdoc": {
    "kind": "user",
    "methods": {
      "swapHop(address[],(address,address,bytes32)[],int256,uint256[],(address,bool,bytes,bytes))": {
        "notice": "Swap through a path of dex pools"
      },
      "swapSingle((address,address,bytes32),bool,int256,uint256,address,bool,bytes,bytes)": {
        "notice": "Swap through a single dex pool"
      }
    },
    "version": 1
  },
  "storageLayout": {
    "storage": [
      {
        "astId": 4884,
        "contract": "contracts/protocols/dexLite/core/main.sol:FluidDexLite",
        "label": "_isAuth",
        "offset": 0,
        "slot": "0",
        "type": "t_mapping(t_address,t_uint256)"
      },
      {
        "astId": 4889,
        "contract": "contracts/protocols/dexLite/core/main.sol:FluidDexLite",
        "label": "_dexesList",
        "offset": 0,
        "slot": "1",
        "type": "t_array(t_struct(DexKey)4865_storage)dyn_storage"
      },
      {
        "astId": 4894,
        "contract": "contracts/protocols/dexLite/core/main.sol:FluidDexLite",
        "label": "_dexVariables",
        "offset": 0,
        "slot": "2",
        "type": "t_mapping(t_bytes8,t_uint256)"
      },
      {
        "astId": 4899,
        "contract": "contracts/protocols/dexLite/core/main.sol:FluidDexLite",
        "label": "_centerPriceShift",
        "offset": 0,
        "slot": "3",
        "type": "t_mapping(t_bytes8,t_uint256)"
      },
      {
        "astId": 4904,
        "contract": "contracts/protocols/dexLite/core/main.sol:FluidDexLite",
        "label": "_rangeShift",
        "offset": 0,
        "slot": "4",
        "type": "t_mapping(t_bytes8,t_uint256)"
      },
      {
        "astId": 4909,
        "contract": "contracts/protocols/dexLite/core/main.sol:FluidDexLite",
        "label": "_thresholdShift",
        "offset": 0,
        "slot": "5",
        "type": "t_mapping(t_bytes8,t_uint256)"
      }
    ],
    "types": {
      "t_address": {
        "encoding": "inplace",
        "label": "address",
        "numberOfBytes": "20"
      },
      "t_array(t_struct(DexKey)4865_storage)dyn_storage": {
        "base": "t_struct(DexKey)4865_storage",
        "encoding": "dynamic_array",
        "label": "struct DexKey[]",
        "numberOfBytes": "32"
      },
      "t_bytes32": {
        "encoding": "inplace",
        "label": "bytes32",
        "numberOfBytes": "32"
      },
      "t_bytes8": {
        "encoding": "inplace",
        "label": "bytes8",
        "numberOfBytes": "8"
      },
      "t_mapping(t_address,t_uint256)": {
        "encoding": "mapping",
        "key": "t_address",
        "label": "mapping(address => uint256)",
        "numberOfBytes": "32",
        "value": "t_uint256"
      },
      "t_mapping(t_bytes8,t_uint256)": {
        "encoding": "mapping",
        "key": "t_bytes8",
        "label": "mapping(bytes8 => uint256)",
        "numberOfBytes": "32",
        "value": "t_uint256"
      },
      "t_struct(DexKey)4865_storage": {
        "encoding": "inplace",
        "label": "struct DexKey",
        "members": [
          {
            "astId": 4860,
            "contract": "contracts/protocols/dexLite/core/main.sol:FluidDexLite",
            "label": "token0",
            "offset": 0,
            "slot": "0",
            "type": "t_address"
          },
          {
            "astId": 4862,
            "contract": "contracts/protocols/dexLite/core/main.sol:FluidDexLite",
            "label": "token1",
            "offset": 0,
            "slot": "1",
            "type": "t_address"
          },
          {
            "astId": 4864,
            "contract": "contracts/protocols/dexLite/core/main.sol:FluidDexLite",
            "label": "salt",
            "offset": 0,
            "slot": "2",
            "type": "t_bytes32"
          }
        ],
        "numberOfBytes": "96"
      },
      "t_uint256": {
        "encoding": "inplace",
        "label": "uint256",
        "numberOfBytes": "32"
      }
    }
  }
}