{
  "address": "0xbd6C8ee7CB9a13333e043C4d5fCf3ac125f7f890",
  "abi": [
    {
      "inputs": [],
      "stateMutability": "nonpayable",
      "type": "constructor"
    },
    {
      "inputs": [
        {
          "internalType": "uint256",
          "name": "colLiquidated",
          "type": "uint256"
        },
        {
          "internalType": "uint256",
          "name": "debtLiquidated",
          "type": "uint256"
        }
      ],
      "name": "FluidLiquidateResult",
      "type": "error"
    },
    {
      "inputs": [
        {
          "internalType": "uint256",
          "name": "errorId_",
          "type": "uint256"
        }
      ],
      "name": "FluidSafeTransferError",
      "type": "error"
    },
    {
      "inputs": [
        {
          "internalType": "uint256",
          "name": "errorId_",
          "type": "uint256"
        }
      ],
      "name": "FluidVaultError",
      "type": "error"
    },
    {
      "anonymous": false,
      "inputs": [
        {
          "indexed": false,
          "internalType": "uint256",
          "name": "colAbsorbedRaw_",
          "type": "uint256"
        },
        {
          "indexed": false,
          "internalType": "uint256",
          "name": "debtAbsorbedRaw_",
          "type": "uint256"
        }
      ],
      "name": "LogAbsorb",
      "type": "event"
    },
    {
      "anonymous": false,
      "inputs": [
        {
          "indexed": false,
          "internalType": "address",
          "name": "liquidator_",
          "type": "address"
        },
        {
          "indexed": false,
          "internalType": "uint256",
          "name": "colAmt_",
          "type": "uint256"
        },
        {
          "indexed": false,
          "internalType": "uint256",
          "name": "debtAmt_",
          "type": "uint256"
        },
        {
          "indexed": false,
          "internalType": "address",
          "name": "to_",
          "type": "address"
        }
      ],
      "name": "LogLiquidate",
      "type": "event"
    },
    {
      "anonymous": false,
      "inputs": [
        {
          "indexed": false,
          "internalType": "address",
          "name": "user_",
          "type": "address"
        },
        {
          "indexed": false,
          "internalType": "uint256",
          "name": "nftId_",
          "type": "uint256"
        },
        {
          "indexed": false,
          "internalType": "int256",
          "name": "colAmt_",
          "type": "int256"
        },
        {
          "indexed": false,
          "internalType": "int256",
          "name": "debtAmt_",
          "type": "int256"
        },
        {
          "indexed": false,
          "internalType": "address",
          "name": "to_",
          "type": "address"
        }
      ],
      "name": "LogOperate",
      "type": "event"
    },
    {
      "anonymous": false,
      "inputs": [
        {
          "indexed": false,
          "internalType": "int256",
          "name": "colAmt_",
          "type": "int256"
        },
        {
          "indexed": false,
          "internalType": "int256",
          "name": "debtAmt_",
          "type": "int256"
        }
      ],
      "name": "LogRebalance",
      "type": "event"
    },
    {
      "anonymous": false,
      "inputs": [
        {
          "indexed": false,
          "internalType": "uint256",
          "name": "supplyExPrice_",
          "type": "uint256"
        },
        {
          "indexed": false,
          "internalType": "uint256",
          "name": "borrowExPrice_",
          "type": "uint256"
        }
      ],
      "name": "LogUpdateExchangePrice",
      "type": "event"
    },
    {
      "inputs": [
        {
          "internalType": "uint256",
          "name": "vaultVariables_",
          "type": "uint256"
        },
        {
          "internalType": "int256",
          "name": "maxTick_",
          "type": "int256"
        }
      ],
      "name": "absorb",
      "outputs": [
        {
          "internalType": "uint256",
          "name": "",
          "type": "uint256"
        }
      ],
      "stateMutability": "nonpayable",
      "type": "function"
    },
    {
      "inputs": [],
      "name": "rebalance",
      "outputs": [
        {
          "internalType": "int256",
          "name": "supplyAmt_",
          "type": "int256"
        },
        {
          "internalType": "int256",
          "name": "borrowAmt_",
          "type": "int256"
        }
      ],
      "stateMutability": "payable",
      "type": "function"
    }
  ],
  "transactionHash": "0x3362b659bc43fbf7c5b74f9fba1a74358e321bf5e2866a57085702e60c59fa6c",
  "args": [],
  "numDeployments": 3,
  "solcInputHash": "033d84042c3fe6a1afa58a71e8e52d69",
  "bytecode": "0x60a060405234801561001057600080fd5b5030608052608051611e386100366000396000818160980152610c6d0152611e386000f3fe6080604052600436106100295760003560e01c80637d7c2a1c1461002e5780639e3e482114610050575b600080fd5b61003661007e565b604080519283526020830191909152015b60405180910390f35b34801561005c57600080fd5b5061007061006b366004611907565b610c54565b604051908152602001610047565b60008073ffffffffffffffffffffffffffffffffffffffff7f00000000000000000000000000000000000000000000000000000000000000001630036100f9576040517f60121cca00000000000000000000000000000000000000000000000000000000815261792b60048201526024015b60405180910390fd5b60095473ffffffffffffffffffffffffffffffffffffffff16331461014e576040517f60121cca00000000000000000000000000000000000000000000000000000000815261792260048201526024016100f0565b6000805490600182169003610169576001811760005561019f565b6040517f60121cca00000000000000000000000000000000000000000000000000000000815261791960048201526024016100f0565b60003073ffffffffffffffffffffffffffffffffffffffff1663b7791bf26040518163ffffffff1660e01b81526004016101a060405180830381865afa1580156101ed573d6000803e3d6000fd5b505050506040513d601f19601f8201168201806040525081019061021191906119b4565b90506000341180156102895750608081015173ffffffffffffffffffffffffffffffffffffffff1673eeeeeeeeeeeeeeeeeeeeeeeeeeeeeeeeeeeeeeee1480610287575060a081015173ffffffffffffffffffffffffffffffffffffffff1673eeeeeeeeeeeeeeeeeeeeeeeeeeeeeeeeeeeeeeee145b155b156102c4576040517f60121cca00000000000000000000000000000000000000000000000000000000815261793660048201526024016100f0565b805160408051608081018252600080825260208201819052818301819052606082015260015491517f09f0d8cb00000000000000000000000000000000000000000000000000000000815260048101929092529030906309f0d8cb90602401608060405180830381865afa158015610340573d6000803e3d6000fd5b505050506040513d601f19601f820116820180604052508101906103649190611a91565b6060850152604080850191909152602084019190915290825261016084015190517fb5c736e400000000000000000000000000000000000000000000000000000000815260009167ffffffffffffffff9160019173ffffffffffffffffffffffffffffffffffffffff87169163b5c736e4916103e69160040190815260200190565b602060405180830381865afa158015610403573d6000803e3d6000fd5b505050506040513d601f19601f820116820180604052508101906104279190611ac7565b8451911c91909116600881901c60ff9091161b915064e8d4a510009061044d9083611b0f565b6104579190611b55565b9050600067ffffffffffffffff60018573ffffffffffffffffffffffffffffffffffffffff1663b5c736e48861018001516040518263ffffffff1660e01b81526004016104a691815260200190565b602060405180830381865afa1580156104c3573d6000803e3d6000fd5b505050506040513d601f19601f820116820180604052508101906104e79190611ac7565b901c16905060ff8116600882901c901b905064e8d4a5100083602001518261050f9190611b0f565b6105199190611b55565b604084015190915066ffffffffffffff605a88901c1660ff605289901c161b9064e8d4a510009061054a9083611b0f565b6105549190611b55565b606085015190915066ffffffffffffff609a89901c1660ff60928a901c161b9064e8d4a51000906105859083611b0f565b61058f9190611b55565b9050600084831115610736576105a58584611b69565b9a5073eeeeeeeeeeeeeeeeeeeeeeeeeeeeeeeeeeeeeeee73ffffffffffffffffffffffffffffffffffffffff16886080015173ffffffffffffffffffffffffffffffffffffffff160361061f578a34111561061457508961060f3361060a8334611b90565b6115a0565b610617565b50345b809a50610623565b5060005b8673ffffffffffffffffffffffffffffffffffffffff1663ad967e15828a608001518e6000806000600960009054906101000a900473ffffffffffffffffffffffffffffffffffffffff1660405160200161069a919073ffffffffffffffffffffffffffffffffffffffff91909116815260200190565b6040516020818303038152906040526040518863ffffffff1660e01b81526004016106ca96959493929190611c07565b604080518083038185885af193505050508015610722575060408051601f3d9081017fffffffffffffffffffffffffffffffffffffffffffffffffffffffffffffffe016820190925261071f91810190611c60565b60015b61072f5760009a506108a7565b50506108a7565b828511156108a757608088015173ffffffffffffffffffffffffffffffffffffffff1673eeeeeeeeeeeeeeeeeeeeeeeeeeeeeeeeeeeeeeee14801561077b5750600034115b156107b6576040517f60121cca00000000000000000000000000000000000000000000000000000000815261793660048201526024016100f0565b6107c08584611b69565b6080890151600954919c5073ffffffffffffffffffffffffffffffffffffffff808a169263ad967e1592918f916000911681806040519080825280601f01601f19166020018201604052801561081d576020820181803683370190505b506040518763ffffffff1660e01b815260040161083f96959493929190611c07565b60408051808303816000875af1925050508015610897575060408051601f3d9081017fffffffffffffffffffffffffffffffffffffffffffffffffffffffffffffffe016820190925261089491810190611c60565b60015b6108a45760009a506108a7565b50505b83821115610a1d5760a088015173ffffffffffffffffffffffffffffffffffffffff1673eeeeeeeeeeeeeeeeeeeeeeeeeeeeeeeeeeeeeeee1480156108ec5750600034115b15610927576040517f60121cca00000000000000000000000000000000000000000000000000000000815261793660048201526024016100f0565b6109318483611b69565b60a0890151600954919b5073ffffffffffffffffffffffffffffffffffffffff808a169263ad967e1592916000918f91839116816040519080825280601f01601f19166020018201604052801561098f576020820181803683370190505b506040518763ffffffff1660e01b81526004016109b196959493929190611c07565b60408051808303816000875af1925050508015610a09575060408051601f3d9081017fffffffffffffffffffffffffffffffffffffffffffffffffffffffffffffffe0168201909252610a0691810190611c60565b60015b610a165760009950610bc2565b5050610bc2565b81841115610bc257610a2f8285611b69565b995073eeeeeeeeeeeeeeeeeeeeeeeeeeeeeeeeeeeeeeee73ffffffffffffffffffffffffffffffffffffffff168860a0015173ffffffffffffffffffffffffffffffffffffffff1603610aa45789341115610a99575088610a943361060a8334611b90565b610a9c565b50345b809950610aa8565b5060005b610ab18a611c84565b99508673ffffffffffffffffffffffffffffffffffffffff1663ad967e15828a60a0015160008e600080600960009054906101000a900473ffffffffffffffffffffffffffffffffffffffff16604051602001610b2a919073ffffffffffffffffffffffffffffffffffffffff91909116815260200190565b6040516020818303038152906040526040518863ffffffff1660e01b8152600401610b5a96959493929190611c07565b604080518083038185885af193505050508015610bb2575060408051601f3d9081017fffffffffffffffffffffffffffffffffffffffffffffffffffffffffffffffe0168201909252610baf91810190611c60565b60015b610bbf5760009950610bc2565b50505b8a158015610bce575089155b15610c09576040517f60121cca00000000000000000000000000000000000000000000000000000000815261793760048201526024016100f0565b6000899055604080518c8152602081018c90527f9a85dfb89c634cdc63db5d8cedaf8f9cfa4926df888bad563d70b7314a33a0ae910160405180910390a15050505050505050509091565b600073ffffffffffffffffffffffffffffffffffffffff7f0000000000000000000000000000000000000000000000000000000000000000163003610cc9576040517f60121cca00000000000000000000000000000000000000000000000000000000815261792b60048201526024016100f0565b610cf46040518060800160405280600081526020016000815260200160008152602001600081525090565b600080610d306040518060c001604052806000815260200160008152602001600081526020016000815260200160008152602001600081525090565b620fffff600288901c16925082600116600114610d6457610d54600184901c611c84565b610d5f906001611cbc565b610d72565b610d72600184811c90611cbc565b60408501819052600013610d97576101008460400151610d929190611ce4565b610dc1565b600161010085604001516001610dad9190611cbc565b610db79190611ce4565b610dc19190611b69565b60408083018290526000918252600460209081529120546080830152617fff908201525b608081015115610f7257610dfc81608001516115ef565b60608501819052604082015160019190610e1890610100611d4c565b610e229190611cbc565b610e2c9190611b69565b60208201525b8581602001511315610f5a57602080820151600090815260059091526040902054845190935066ffffffffffffff602185901c1660ff601986901c161b925082908590610e80908390611d98565b9052506020810151610e949060020b6116a5565b610eab6c0100000000000000000000000084611b0f565b610eb59190611b55565b84602001818151610ec69190611d98565b905250602080820151600090815260059091526040902063020000016301fffffe85161790556060840151610efd90610101611b90565b608082018051821b821c9081905290935015610f5a57610f2081608001516115ef565b60608501819052604082015160019190610f3c90610100611d4c565b610f469190611cbc565b610f509190611b69565b6020820152610e32565b60808101516040808301516000908152600460205220555b8581602001511315611007577fffffffffffffffffffffffffffffffffffffffffffffffffffffffffffffff7f81604001511215610fd5577f80000000000000000000000000000000000000000000000000000000000000006020820152611007565b60046000826040018051610fe890611dab565b9081905281526020810191909152604001600020546080820152610de5565b6110476040518060e00160405280600081526020016000815260200160008152602001600081526020016000815260200160008152602001600081525090565b6110806040518060c001604052806000815260200160008152602001600081526020016000815260200160008152602001600081525090565b601689901c633fffffff1680825260009081526007602090815260408220549083015260028a16810361114b57508051602082015160c41c620fffff1695508515611116576020808301805160a61c633fffffff1680855260009081526007909252604090912054905260018087161461110657611101600187901c611c84565b61110c565b600186901c5b6080830152611184565b600080835260208301527f80000000000000000000000000000000000000000000000000000000000000006080830152611184565b620fffff60028360200151901c1695508560011660011461117857611173600187901c611c84565b61117e565b600186901c5b60808301525b8882608001511315611301576111a0826080015160020b6116a5565b6040840181905261271f906111b790612710611b0f565b6111c19190611b55565b6060840181905260408401516111d79190611b90565b60808401819052602083015160161c633fffffff90811660c0860181905290916112019190611b0f565b61120b9190611b55565b836060015161121a9190611d98565b8360a001818152505067ffffffffffffffff60348360200151901c16945060ff8516600886901c901b945084876000018181516112579190611d98565b90525060a08301516112766c0100000000000000000000000087611b0f565b6112809190611b55565b876020018181516112919190611d98565b90525060208083018051845160009081526007909352604090922060039092179091555160c41c620fffff1695508515611116576020808301805160a61c633fffffff1680855260009081526007909252604090912054905260018087161461110657611101600187901c611c84565b8160800151846020015112611472577f8000000000000000000000000000000000000000000000000000000000000000846020015113156113735760008460200151126113595760018460200151901b60011761136c565b6001846020015161136990611c84565b901b5b9450611378565b600094505b806000036113b157633fffffff60348b901c166001019050603481901b601682901b600287901b6052808e901c901b17171799506113dd565b7fffffffffffffffffffffffffffffffffffffffffffffffffffffffffffc00000909916600285901b17985b7f80000000000000000000000000000000000000000000000000000000000000008260800151131561145e5760008260800151126114265760018260800151901b600117611439565b6001826080015161143690611c84565b901b5b8251600083815260076020526040902060a69190911b60c483901b1790559450611529565b600081815260076020526040812055611529565b600082608001511261148f5760018260800151901b6001176114a2565b6001826080015161149f90611c84565b901b5b9450806000036114ce5760168260000151901b600286901b6034808d901c901b60021717179950611529565b60346114db600183611b90565b8351600084815260076020526040812055911b60169190911b600287811b7ffffffffffffffffffffffffffffffffffffffffffffc000000000000000000009d909d169c909c171717909917985b50505060808460200151901b84600001516002546115479190611d98565b6115519190611d98565b600255602084810151855160408051928352928201527f115609402b8e0707cb9654c5da38e5c0790ccad443a92f71160fe645aa342d04910160405180910390a1869450505050505b92915050565b600080600080600085875af19050806115ea576040517fdee51a8a0000000000000000000000000000000000000000000000000000000081526201155a60048201526024016100f0565b505050565b6000816fffffffffffffffffffffffffffffffff8311156116115760809150811c5b67ffffffffffffffff811115611629576040918201911c5b63ffffffff81111561163d576020918201911c5b61ffff81111561164f576010918201911c5b60ff811115611660576008918201911c5b600f811115611671576004918201911c5b6003811115611682576002918201911c5b6001811115611692576001820191505b801561169f576001820191505b50919050565b600060ff82901d80831803617fff8111156116bf57600080fd5b70010000000000000000000000000000000060018216156116ed57506fff9dd7de423466c20352b1246ce4856f5b600282161561170c576fff3bd55f4488ad277531fa1c725a66d00260801c5b600482161561172b576ffe78410fd6498b73cb96a6917f8532590260801c5b600882161561174a576ffcf2d9987c9be178ad5bfeffaa1232730260801c5b6010821615611769576ff9ef02c4529258b057769680fc6601b30260801c5b6020821615611788576ff402d288133a85a17784a411f7aba0820260801c5b60408216156117a7576fe895615b5beb6386553757b0352bda900260801c5b60808216156117c6576fd34f17a00ffa00a8309940a15930391a0260801c5b6101008216156117e6576fae6b7961714e20548d88ea5123f9a0ff0260801c5b610200821615611806576f76d6461f27082d74e0feed3b388c0ca10260801c5b610400821615611826576f372a3bfe0745d8b6b19d985d9a8b85bb0260801c5b610800821615611846576f0be32cbee48979763cf7247dd7bb539d0260801c5b611000821615611865576e8d4f70c9ff4924dac37612d1e2921e0260801c5b612000821615611883576d4e009ae5519380809a02ca7aec770260801c5b61400082161561189f576b17c45e641b6e95dee056ff100260801c5b600091507f800000000000000000000000000000000000000000000000000000000000000084166118fd577fffffffffffffffffffffffffffffffffffffffffffffffffffffffffffffffff0463ffffffff8116156118fd57600191505b60201c0192915050565b6000806040838503121561191a57600080fd5b50508035926020909101359150565b6040516101a0810167ffffffffffffffff81118282101715611974577f4e487b7100000000000000000000000000000000000000000000000000000000600052604160045260246000fd5b60405290565b805173ffffffffffffffffffffffffffffffffffffffff8116811461199e57600080fd5b919050565b805160ff8116811461199e57600080fd5b60006101a082840312156119c757600080fd5b6119cf611929565b6119d88361197a565b81526119e66020840161197a565b60208201526119f76040840161197a565b6040820152611a086060840161197a565b6060820152611a196080840161197a565b6080820152611a2a60a0840161197a565b60a0820152611a3b60c084016119a3565b60c0820152611a4c60e084016119a3565b60e08201526101008381015190820152610120808401519082015261014080840151908201526101608084015190820152610180928301519281019290925250919050565b60008060008060808587031215611aa757600080fd5b505082516020840151604085015160609095015191969095509092509050565b600060208284031215611ad957600080fd5b5051919050565b7f4e487b7100000000000000000000000000000000000000000000000000000000600052601160045260246000fd5b808202811582820484141761159a5761159a611ae0565b7f4e487b7100000000000000000000000000000000000000000000000000000000600052601260045260246000fd5b600082611b6457611b64611b26565b500490565b8181036000831280158383131683831282161715611b8957611b89611ae0565b5092915050565b8181038181111561159a5761159a611ae0565b6000815180845260005b81811015611bc957602081850181015186830182015201611bad565b5060006020828601015260207fffffffffffffffffffffffffffffffffffffffffffffffffffffffffffffffe0601f83011685010191505092915050565b600073ffffffffffffffffffffffffffffffffffffffff8089168352876020840152866040840152808616606084015280851660808401525060c060a0830152611c5460c0830184611ba3565b98975050505050505050565b60008060408385031215611c7357600080fd5b505080516020909101519092909150565b60007f80000000000000000000000000000000000000000000000000000000000000008203611cb557611cb5611ae0565b5060000390565b8082018281126000831280158216821582161715611cdc57611cdc611ae0565b505092915050565b600082611cf357611cf3611b26565b7fffffffffffffffffffffffffffffffffffffffffffffffffffffffffffffffff83147f800000000000000000000000000000000000000000000000000000000000000083141615611d4757611d47611ae0565b500590565b808202600082127f800000000000000000000000000000000000000000000000000000000000000084141615611d8457611d84611ae0565b818105831482151761159a5761159a611ae0565b8082018082111561159a5761159a611ae0565b60007f80000000000000000000000000000000000000000000000000000000000000008203611ddc57611ddc611ae0565b507fffffffffffffffffffffffffffffffffffffffffffffffffffffffffffffffff019056fea26469706673582212205bfa6f9e9c8e95098eb9a71545e1912e65d0f19cdfead469872641bc8940b13364736f6c63430008150033",
  "devdoc": {
    "kind": "dev",
    "methods": {
      "absorb(uint256,int256)": {
        "details": "absorb function absorbs the bad debt if the bad debt is above max limit. The main use of it is if the bad debt didn't got liquidated in time maybe due to sudden price drop or bad debt was extremely small to liquidate and the bad debt goes above 100% ratio then there's no incentive for anyone to liquidate now hence absorb functions absorbs that bad debt to allow newer bad debt to liquidate seamlessly. if absorbing were to happen after this it's on governance on how to deal with it although it can still be removed through liquidate via liquidator if the price goes back up and liquidation becomes beneficial upon absorbed user position gets 100% liquidated."
      },
      "rebalance()": {
        "details": "Checks total supply of vault's in Liquidity Layer & Vault contract and rebalance it accordingly if vault supply is more than Liquidity Layer then deposit difference through reserve/rebalance contract if vault supply is less than Liquidity Layer then withdraw difference to reserve/rebalance contract if vault borrow is more than Liquidity Layer then borrow difference to reserve/rebalance contract if vault borrow is less than Liquidity Layer then payback difference through reserve/rebalance contract"
      }
    },
    "version": 1
  },
  "userdoc": {
    "errors": {
      "FluidLiquidateResult(uint256,uint256)": [
        {
          "notice": "used to simulate liquidation to find the maximum liquidatable amounts"
        }
      ]
    },
    "events": {
      "LogAbsorb(uint256,uint256)": {
        "notice": "emitted when `absorb()` was executed to absorb bad debt."
      },
      "LogLiquidate(address,uint256,uint256,address)": {
        "notice": "emitted when a liquidation has been executed."
      },
      "LogOperate(address,uint256,int256,int256,address)": {
        "notice": "emitted when an operate() method is executed that changes collateral (`colAmt_`) / debt (debtAmt_`) amount for a `user_` position with `nftId_`. Receiver of any funds is the address `to_`."
      },
      "LogRebalance(int256,int256)": {
        "notice": "emitted when a `rebalance()` has been executed, balancing out total supply / borrow between Vault and Fluid Liquidity pools. if `colAmt_` is positive then loss, meaning transfer from rebalancer address to vault and deposit. if `colAmt_` is negative then profit, meaning withdrawn from vault and sent to rebalancer address. if `debtAmt_` is positive then profit, meaning borrow from vault and sent to rebalancer address. if `debtAmt_` is negative then loss, meaning transfer from rebalancer address to vault and payback."
      },
      "LogUpdateExchangePrice(uint256,uint256)": {
        "notice": "emitted when the exchange prices are updated in storage."
      }
    },
    "kind": "user",
    "methods": {},
    "notice": "Fluid Vault protocol secondary methods contract.         Implements `absorb()` and `rebalance()` methods, extracted from main contract due to contract size limits.         Methods are limited to be called via delegateCall only (as done by Vault CoreModule \"VaultT1\" contract).",
    "version": 1
  },
  "storageLayout": {
    "storage": [
      {
        "astId": 48984,
        "contract": "contracts/protocols/vault/vaultT1/coreModule/main2.sol:FluidVaultT1Secondary",
        "label": "vaultVariables",
        "offset": 0,
        "slot": "0",
        "type": "t_uint256"
      },
      {
        "astId": 48987,
        "contract": "contracts/protocols/vault/vaultT1/coreModule/main2.sol:FluidVaultT1Secondary",
        "label": "vaultVariables2",
        "offset": 0,
        "slot": "1",
        "type": "t_uint256"
      },
      {
        "astId": 48990,
        "contract": "contracts/protocols/vault/vaultT1/coreModule/main2.sol:FluidVaultT1Secondary",
        "label": "absorbedLiquidity",
        "offset": 0,
        "slot": "2",
        "type": "t_uint256"
      },
      {
        "astId": 48995,
        "contract": "contracts/protocols/vault/vaultT1/coreModule/main2.sol:FluidVaultT1Secondary",
        "label": "positionData",
        "offset": 0,
        "slot": "3",
        "type": "t_mapping(t_uint256,t_uint256)"
      },
      {
        "astId": 49000,
        "contract": "contracts/protocols/vault/vaultT1/coreModule/main2.sol:FluidVaultT1Secondary",
        "label": "tickHasDebt",
        "offset": 0,
        "slot": "4",
        "type": "t_mapping(t_int256,t_uint256)"
      },
      {
        "astId": 49005,
        "contract": "contracts/protocols/vault/vaultT1/coreModule/main2.sol:FluidVaultT1Secondary",
        "label": "tickData",
        "offset": 0,
        "slot": "5",
        "type": "t_mapping(t_int256,t_uint256)"
      },
      {
        "astId": 49012,
        "contract": "contracts/protocols/vault/vaultT1/coreModule/main2.sol:FluidVaultT1Secondary",
        "label": "tickId",
        "offset": 0,
        "slot": "6",
        "type": "t_mapping(t_int256,t_mapping(t_uint256,t_uint256))"
      },
      {
        "astId": 49017,
        "contract": "contracts/protocols/vault/vaultT1/coreModule/main2.sol:FluidVaultT1Secondary",
        "label": "branchData",
        "offset": 0,
        "slot": "7",
        "type": "t_mapping(t_uint256,t_uint256)"
      },
      {
        "astId": 49020,
        "contract": "contracts/protocols/vault/vaultT1/coreModule/main2.sol:FluidVaultT1Secondary",
        "label": "rates",
        "offset": 0,
        "slot": "8",
        "type": "t_uint256"
      },
      {
        "astId": 49023,
        "contract": "contracts/protocols/vault/vaultT1/coreModule/main2.sol:FluidVaultT1Secondary",
        "label": "rebalancer",
        "offset": 0,
        "slot": "9",
        "type": "t_address"
      },
      {
        "astId": 49025,
        "contract": "contracts/protocols/vault/vaultT1/coreModule/main2.sol:FluidVaultT1Secondary",
        "label": "absorbedDustDebt",
        "offset": 0,
        "slot": "10",
        "type": "t_uint256"
      }
    ],
    "types": {
      "t_address": {
        "encoding": "inplace",
        "label": "address",
        "numberOfBytes": "20"
      },
      "t_int256": {
        "encoding": "inplace",
        "label": "int256",
        "numberOfBytes": "32"
      },
      "t_mapping(t_int256,t_mapping(t_uint256,t_uint256))": {
        "encoding": "mapping",
        "key": "t_int256",
        "label": "mapping(int256 => mapping(uint256 => uint256))",
        "numberOfBytes": "32",
        "value": "t_mapping(t_uint256,t_uint256)"
      },
      "t_mapping(t_int256,t_uint256)": {
        "encoding": "mapping",
        "key": "t_int256",
        "label": "mapping(int256 => uint256)",
        "numberOfBytes": "32",
        "value": "t_uint256"
      },
      "t_mapping(t_uint256,t_uint256)": {
        "encoding": "mapping",
        "key": "t_uint256",
        "label": "mapping(uint256 => uint256)",
        "numberOfBytes": "32",
        "value": "t_uint256"
      },
      "t_uint256": {
        "encoding": "inplace",
        "label": "uint256",
        "numberOfBytes": "32"
      }
    }
  }
}