{
  "address": "0xBf70e5982Ca299d0f34fDB0192eb6b2693D784F2",
  "abi": [
    {
      "inputs": [
        {
          "internalType": "address",
          "name": "fla_",
          "type": "address"
        },
        {
          "internalType": "address",
          "name": "weth_",
          "type": "address"
        }
      ],
      "stateMutability": "nonpayable",
      "type": "constructor"
    },
    {
      "inputs": [
        {
          "internalType": "uint256",
          "name": "errorId_",
          "type": "uint256"
        }
      ],
      "name": "FluidSafeApproveError",
      "type": "error"
    },
    {
      "inputs": [
        {
          "internalType": "uint256",
          "name": "errorId_",
          "type": "uint256"
        }
      ],
      "name": "FluidSafeTransferError",
      "type": "error"
    },
    {
      "inputs": [],
      "name": "FluidVaultLiquidator__InvalidOperation",
      "type": "error"
    },
    {
      "inputs": [],
      "name": "FluidVaultLiquidator__InvalidTimestamp",
      "type": "error"
    },
    {
      "inputs": [],
      "name": "FluidVaultLiquidator__InvalidTopTick",
      "type": "error"
    },
    {
      "anonymous": false,
      "inputs": [
        {
          "indexed": true,
          "internalType": "address",
          "name": "vault",
          "type": "address"
        },
        {
          "indexed": false,
          "internalType": "uint256",
          "name": "collateral",
          "type": "uint256"
        },
        {
          "indexed": false,
          "internalType": "uint256",
          "name": "debt",
          "type": "uint256"
        }
      ],
      "name": "Liquidated",
      "type": "event"
    },
    {
      "inputs": [],
      "name": "ETH_ADDRESS",
      "outputs": [
        {
          "internalType": "address",
          "name": "",
          "type": "address"
        }
      ],
      "stateMutability": "view",
      "type": "function"
    },
    {
      "inputs": [],
      "name": "FLA",
      "outputs": [
        {
          "internalType": "contract InstaFlashInterface",
          "name": "",
          "type": "address"
        }
      ],
      "stateMutability": "view",
      "type": "function"
    },
    {
      "inputs": [],
      "name": "WETH",
      "outputs": [
        {
          "internalType": "contract IWETH9",
          "name": "",
          "type": "address"
        }
      ],
      "stateMutability": "view",
      "type": "function"
    },
    {
      "inputs": [
        {
          "internalType": "address[]",
          "name": "assets",
          "type": "address[]"
        },
        {
          "internalType": "uint256[]",
          "name": "amounts",
          "type": "uint256[]"
        },
        {
          "internalType": "uint256[]",
          "name": "premiums",
          "type": "uint256[]"
        },
        {
          "internalType": "address",
          "name": "initiator",
          "type": "address"
        },
        {
          "internalType": "bytes",
          "name": "_data",
          "type": "bytes"
        }
      ],
      "name": "executeOperation",
      "outputs": [
        {
          "internalType": "bool",
          "name": "",
          "type": "bool"
        }
      ],
      "stateMutability": "nonpayable",
      "type": "function"
    },
    {
      "inputs": [
        {
          "components": [
            {
              "internalType": "address",
              "name": "vault",
              "type": "address"
            },
            {
              "internalType": "uint256",
              "name": "vaultType",
              "type": "uint256"
            },
            {
              "internalType": "uint256",
              "name": "expiration",
              "type": "uint256"
            },
            {
              "internalType": "int256",
              "name": "topTick",
              "type": "int256"
            },
            {
              "internalType": "uint256",
              "name": "route",
              "type": "uint256"
            },
            {
              "internalType": "address",
              "name": "flashloanToken",
              "type": "address"
            },
            {
              "internalType": "uint256",
              "name": "flashloanAmount",
              "type": "uint256"
            },
            {
              "internalType": "uint256",
              "name": "token0DebtAmt",
              "type": "uint256"
            },
            {
              "internalType": "uint256",
              "name": "token1DebtAmt",
              "type": "uint256"
            },
            {
              "internalType": "uint256",
              "name": "debtSharesMin",
              "type": "uint256"
            },
            {
              "internalType": "uint256",
              "name": "colPerUnitDebt",
              "type": "uint256"
            },
            {
              "internalType": "uint256",
              "name": "token0ColAmtPerUnitShares",
              "type": "uint256"
            },
            {
              "internalType": "uint256",
              "name": "token1ColAmtPerUnitShares",
              "type": "uint256"
            },
            {
              "internalType": "bool",
              "name": "absorb",
              "type": "bool"
            },
            {
              "internalType": "address",
              "name": "swapToken",
              "type": "address"
            },
            {
              "internalType": "uint256",
              "name": "swapAmount",
              "type": "uint256"
            },
            {
              "internalType": "address",
              "name": "swapRouter",
              "type": "address"
            },
            {
              "internalType": "address",
              "name": "swapApproval",
              "type": "address"
            },
            {
              "internalType": "bytes",
              "name": "swapData",
              "type": "bytes"
            }
          ],
          "internalType": "struct VaultLiquidatorImplementationV1.LiquidationParams",
          "name": "params_",
          "type": "tuple"
        }
      ],
      "name": "liquidation",
      "outputs": [],
      "stateMutability": "nonpayable",
      "type": "function"
    },
    {
      "stateMutability": "payable",
      "type": "receive"
    }
  ],
  "transactionHash": "0x309b190fdab7ae425ed179c4b28249a059e71928904d7e32a2a6a234084e563f",
  "args": [
    "0x352423e2fA5D5c99343d371C9e3bC56C87723Cc7",
    "0x352423e2fA5D5c99343d371C9e3bC56C87723Cc7"
  ],
  "numDeployments": 1,
  "solcInputHash": "24ffd74afb47da7fb90af0d31f3c97a1",
  "bytecode": "0x60e06040523060c0523480156200001557600080fd5b5060405162001b9838038062001b9883398101604081905262000038916200006d565b6001600160a01b039182166080521660a052620000a5565b80516001600160a01b03811681146200006857600080fd5b919050565b600080604083850312156200008157600080fd5b6200008c8362000050565b91506200009c6020840162000050565b90509250929050565b60805160a05160c051611a9a620000fe6000396000610a37015260008181610132015281816102fb015281816108c5015281816109660152610b1f015260008181607c015281816101900152610c3f0152611a9a6000f3fe60806040526004361061005e5760003560e01c8063a734f06e11610043578063a734f06e146100f8578063ad5c464814610120578063cf50d4501461015457600080fd5b806376ca658a1461006a578063920f5c84146100c857600080fd5b3661006557005b600080fd5b34801561007657600080fd5b5061009e7f000000000000000000000000000000000000000000000000000000000000000081565b60405173ffffffffffffffffffffffffffffffffffffffff90911681526020015b60405180910390f35b3480156100d457600080fd5b506100e86100e33660046112ba565b610176565b60405190151581526020016100bf565b34801561010457600080fd5b5061009e73eeeeeeeeeeeeeeeeeeeeeeeeeeeeeeeeeeeeeeee81565b34801561012c57600080fd5b5061009e7f000000000000000000000000000000000000000000000000000000000000000081565b34801561016057600080fd5b5061017461016f3660046114d2565b610a20565b005b60003373ffffffffffffffffffffffffffffffffffffffff7f000000000000000000000000000000000000000000000000000000000000000016146101e7576040517f97f5318b00000000000000000000000000000000000000000000000000000000815260040160405180910390fd5b73ffffffffffffffffffffffffffffffffffffffff84163014610236576040517f97f5318b00000000000000000000000000000000000000000000000000000000815260040160405180910390fd5b6000610244838501856114d2565b9050600073eeeeeeeeeeeeeeeeeeeeeeeeeeeeeeeeeeeeeeee73ffffffffffffffffffffffffffffffffffffffff168260a0015173ffffffffffffffffffffffffffffffffffffffff16146102c6576102a78260a0015183600001516000610cb1565b6102be8260a0015183600001518460c00151610cb1565b506000610374565b60c08201516040517f2e1a7d4d00000000000000000000000000000000000000000000000000000000815260048101919091527f000000000000000000000000000000000000000000000000000000000000000073ffffffffffffffffffffffffffffffffffffffff1690632e1a7d4d90602401600060405180830381600087803b15801561035457600080fd5b505af1158015610368573d6000803e3d6000fd5b505050508160c0015190505b600080836020015160010361044a57835160e08501516101408601516101a08701516040517f8433ea22000000000000000000000000000000000000000000000000000000008152600481019390935260248301919091523060448301521515606482015273ffffffffffffffffffffffffffffffffffffffff90911690638433ea229085906084015b604080518083038185885af115801561041b573d6000803e3d6000fd5b50505050506040513d601f19601f82011682018060405250810190610440919061162c565b90925090506106e1565b836020015160020361053957835160e08501516101408601516101608701516101808801516101a08901516040517f7bae33610000000000000000000000000000000000000000000000000000000081526004810195909552602485019390935260448401919091526064830152306084830152151560a482015273ffffffffffffffffffffffffffffffffffffffff90911690637bae336190859060c40160806040518083038185885af1158015610507573d6000803e3d6000fd5b50505050506040513d601f19601f8201168201806040525081019061052c9190611650565b5091935091506106e19050565b83602001516003036105dd57835160e08501516101008601516101208701516101408801516101a08901516040517f7bae33610000000000000000000000000000000000000000000000000000000081526004810195909552602485019390935260448401919091526064830152306084830152151560a482015273ffffffffffffffffffffffffffffffffffffffff90911690637bae336190859060c4016103fe565b83602001516004036106e157835160e08501516101008601516101208701516101408801516101608901516101808a01516101a08b01516040517f27fa2b530000000000000000000000000000000000000000000000000000000081526004810197909752602487019590955260448601939093526064850191909152608484015260a48301523060c4830152151560e482015273ffffffffffffffffffffffffffffffffffffffff909116906327fa2b539085906101040160806040518083038185885af11580156106b4573d6000803e3d6000fd5b50505050506040513d601f19601f820116820180604052508101906106d99190611650565b509193509150505b6101c084015173ffffffffffffffffffffffffffffffffffffffff1673eeeeeeeeeeeeeeeeeeeeeeeeeeeeeeeeeeeeeeee146107505761072d846101c001518561022001516000610cb1565b610747846101c00151856102200151866101e00151610cb1565b60009250610759565b836101e0015192505b6107a4846102000151856102400151856040518060400160405280600c81526020017f537761703a206661696c65640000000000000000000000000000000000000000815250610d6c565b508351604080518381526020810185905273ffffffffffffffffffffffffffffffffffffffff909216917f09c223cfcd8c93e245f558f5f8de755fc0930fd9bc257441155ef5d54a170e0f910160405180910390a250505060008787600081811061081157610811611686565b905060200201358a8a600081811061082b5761082b611686565b9050602002013561083c91906116e4565b61084790600a6116e4565b905073eeeeeeeeeeeeeeeeeeeeeeeeeeeeeeeeeeeeeeee73ffffffffffffffffffffffffffffffffffffffff168260a0015173ffffffffffffffffffffffffffffffffffffffff16036109dc576040517f70a082310000000000000000000000000000000000000000000000000000000081523060048201526000907f000000000000000000000000000000000000000000000000000000000000000073ffffffffffffffffffffffffffffffffffffffff16906370a0823190602401602060405180830381865afa158015610921573d6000803e3d6000fd5b505050506040513d601f19601f8201168201806040525081019061094591906116f7565b9050818110156109da5773ffffffffffffffffffffffffffffffffffffffff7f00000000000000000000000000000000000000000000000000000000000000001663d0e30db06109958385611710565b6040518263ffffffff1660e01b81526004016000604051808303818588803b1580156109c057600080fd5b505af11580156109d4573d6000803e3d6000fd5b50505050505b505b610a0e8c8c60008181106109f2576109f2611686565b9050602002016020810190610a079190611723565b3383610e87565b5060019b9a5050505050505050505050565b73ffffffffffffffffffffffffffffffffffffffff7f0000000000000000000000000000000000000000000000000000000000000000163003610a8f576040517f97f5318b00000000000000000000000000000000000000000000000000000000815260040160405180910390fd5b610a9881610f2b565b6040805160018082528183019092526000916020808301908036833750506040805160018082528183019092529293506000929150602080830190803683370190505060a084015190915073ffffffffffffffffffffffffffffffffffffffff1673eeeeeeeeeeeeeeeeeeeeeeeeeeeeeeeeeeeeeeee14610b1d578260a00151610b3f565b7f00000000000000000000000000000000000000000000000000000000000000005b82600081518110610b5257610b52611686565b602002602001019073ffffffffffffffffffffffffffffffffffffffff16908173ffffffffffffffffffffffffffffffffffffffff16815250508260c0015181600081518110610ba457610ba4611686565b602002602001018181525050600083604051602001610bc391906117b3565b604080517fffffffffffffffffffffffffffffffffffffffffffffffffffffffffffffffe081840301815282825260808701516000845260208401928390527f095627e900000000000000000000000000000000000000000000000000000000909252925073ffffffffffffffffffffffffffffffffffffffff7f0000000000000000000000000000000000000000000000000000000000000000169163095627e991610c79918791879187906024810161193d565b600060405180830381600087803b158015610c9357600080fd5b505af1158015610ca7573d6000803e3d6000fd5b5050505050505050565b60006040517f095ea7b300000000000000000000000000000000000000000000000000000000815273ffffffffffffffffffffffffffffffffffffffff84166004820152826024820152602060006044836000895af191505080601f3d1160016000511416151615610d255750823b153d17155b80610d66576040517fffd1fc0700000000000000000000000000000000000000000000000000000000815262013c6960048201526024015b60405180910390fd5b50505050565b606082471015610dfe576040517f08c379a000000000000000000000000000000000000000000000000000000000815260206004820152602660248201527f416464726573733a20696e73756666696369656e742062616c616e636520666f60448201527f722063616c6c00000000000000000000000000000000000000000000000000006064820152608401610d5d565b6000808673ffffffffffffffffffffffffffffffffffffffff168587604051610e2791906119fd565b60006040518083038185875af1925050503d8060008114610e64576040519150601f19603f3d011682016040523d82523d6000602084013e610e69565b606091505b5091509150610e7a87838387611097565b925050505b949350505050565b60006040517fa9059cbb00000000000000000000000000000000000000000000000000000000815273ffffffffffffffffffffffffffffffffffffffff84166004820152826024820152602060006044836000895af13d15601f3d1160016000511416171691505080610d66576040517fdee51a8a0000000000000000000000000000000000000000000000000000000081526201155a6004820152602401610d5d565b60008160400151118015610f425750428160400151105b15610f79576040517f2fad55ba00000000000000000000000000000000000000000000000000000000815260040160405180910390fd5b80516040517fb5c736e40000000000000000000000000000000000000000000000000000000081526000600482018190529173ffffffffffffffffffffffffffffffffffffffff169063b5c736e490602401602060405180830381865afa158015610fe8573d6000803e3d6000fd5b505050506040513d601f19601f8201168201806040525081019061100c91906116f7565b90506000611022620fffff600284901c16611137565b905080836060015113801561105b57507f8000000000000000000000000000000000000000000000000000000000000000836060015114155b15611092576040517ff64eca4900000000000000000000000000000000000000000000000000000000815260040160405180910390fd5b505050565b6060831561112d5782516000036111265773ffffffffffffffffffffffffffffffffffffffff85163b611126576040517f08c379a000000000000000000000000000000000000000000000000000000000815260206004820152601d60248201527f416464726573733a2063616c6c20746f206e6f6e2d636f6e74726163740000006044820152606401610d5d565b5081610e7f565b610e7f8383611206565b6000620fffff82106111a5576040517f08c379a000000000000000000000000000000000000000000000000000000000815260206004820152600e60248201527f696e76616c69642d6e756d6265720000000000000000000000000000000000006044820152606401610d5d565b81156111de57816001166001146111cd576111c8600183901c6207ffff16611a19565b6111d8565b6207ffff600183901c165b92915050565b507f80000000000000000000000000000000000000000000000000000000000000005b919050565b8151156112165781518083602001fd5b806040517f08c379a0000000000000000000000000000000000000000000000000000000008152600401610d5d9190611a51565b60008083601f84011261125c57600080fd5b50813567ffffffffffffffff81111561127457600080fd5b6020830191508360208260051b850101111561128f57600080fd5b9250929050565b803573ffffffffffffffffffffffffffffffffffffffff8116811461120157600080fd5b600080600080600080600080600060a08a8c0312156112d857600080fd5b893567ffffffffffffffff808211156112f057600080fd5b6112fc8d838e0161124a565b909b50995060208c013591508082111561131557600080fd5b6113218d838e0161124a565b909950975060408c013591508082111561133a57600080fd5b6113468d838e0161124a565b909750955085915061135a60608d01611296565b945060808c013591508082111561137057600080fd5b818c0191508c601f83011261138457600080fd5b81358181111561139357600080fd5b8d60208285010111156113a557600080fd5b6020830194508093505050509295985092959850929598565b7f4e487b7100000000000000000000000000000000000000000000000000000000600052604160045260246000fd5b604051610260810167ffffffffffffffff81118282101715611411576114116113be565b60405290565b8035801515811461120157600080fd5b600082601f83011261143857600080fd5b813567ffffffffffffffff80821115611453576114536113be565b604051601f83017fffffffffffffffffffffffffffffffffffffffffffffffffffffffffffffffe0908116603f01168101908282118183101715611499576114996113be565b816040528381528660208588010111156114b257600080fd5b836020870160208301376000602085830101528094505050505092915050565b6000602082840312156114e457600080fd5b813567ffffffffffffffff808211156114fc57600080fd5b90830190610260828603121561151157600080fd5b6115196113ed565b61152283611296565b81526020830135602082015260408301356040820152606083013560608201526080830135608082015261155860a08401611296565b60a082015260c0838101359082015260e08084013590820152610100808401359082015261012080840135908201526101408084013590820152610160808401359082015261018080840135908201526101a06115b6818501611417565b908201526101c06115c8848201611296565b908201526101e083810135908201526102006115e5818501611296565b908201526102206115f7848201611296565b90820152610240838101358381111561160f57600080fd5b61161b88828701611427565b918301919091525095945050505050565b6000806040838503121561163f57600080fd5b505080516020909101519092909150565b6000806000806080858703121561166657600080fd5b505082516020840151604085015160609095015191969095509092509050565b7f4e487b7100000000000000000000000000000000000000000000000000000000600052603260045260246000fd5b7f4e487b7100000000000000000000000000000000000000000000000000000000600052601160045260246000fd5b808201808211156111d8576111d86116b5565b60006020828403121561170957600080fd5b5051919050565b818103818111156111d8576111d86116b5565b60006020828403121561173557600080fd5b61173e82611296565b9392505050565b60005b83811015611760578181015183820152602001611748565b50506000910152565b60008151808452611781816020860160208601611745565b601f017fffffffffffffffffffffffffffffffffffffffffffffffffffffffffffffffe0169290920160200192915050565b602081526117da60208201835173ffffffffffffffffffffffffffffffffffffffff169052565b602082015160408201526040820151606082015260608201516080820152608082015160a0820152600060a083015161182b60c084018273ffffffffffffffffffffffffffffffffffffffff169052565b5060c083015160e08381019190915283015161010080840191909152830151610120808401919091528301516101408084019190915283015161016080840191909152830151610180808401919091528301516101a0808401919091528301516101c061189b8185018315159052565b84015190506101e06118c48482018373ffffffffffffffffffffffffffffffffffffffff169052565b8401516102008481019190915284015190506102206118fa8185018373ffffffffffffffffffffffffffffffffffffffff169052565b84015190506102406119238482018373ffffffffffffffffffffffffffffffffffffffff169052565b840151610260848101529050610e7f610280840182611769565b60a0808252865190820181905260009060209060c0840190828a01845b8281101561198c57815173ffffffffffffffffffffffffffffffffffffffff168452928401929084019060010161195a565b5050508381038285015287518082528883019183019060005b818110156119c1578351835292840192918401916001016119a5565b505087604086015284810360608601526119db8188611769565b9250505082810360808401526119f18185611769565b98975050505050505050565b60008251611a0f818460208701611745565b9190910192915050565b60007f80000000000000000000000000000000000000000000000000000000000000008203611a4a57611a4a6116b5565b5060000390565b60208152600061173e602083018461176956fea264697066735822122053b91b5e425b596cb1e296ffe0b41c50c8b19114ee2706a4b6aee44634b7b63864736f6c63430008150033",
  "devdoc": {
    "kind": "dev",
    "methods": {},
    "version": 1
  },
  "userdoc": {
    "kind": "user",
    "methods": {},
    "version": 1
  },
  "storageLayout": {
    "storage": [],
    "types": null
  }
}