{
  "address": "0xc753DDd570A88905A97B1b4B0A10AfE5b6AFAd06",
  "abi": [
    {
      "inputs": [
        {
          "internalType": "address",
          "name": "liquidity_",
          "type": "address"
        },
        {
          "internalType": "address",
          "name": "deployerContract_",
          "type": "address"
        }
      ],
      "stateMutability": "nonpayable",
      "type": "constructor"
    },
    {
      "inputs": [
        {
          "internalType": "uint256",
          "name": "errorId_",
          "type": "uint256"
        }
      ],
      "name": "FluidSafeTransferError",
      "type": "error"
    },
    {
      "anonymous": false,
      "inputs": [
        {
          "indexed": false,
          "internalType": "address[]",
          "name": "tokens",
          "type": "address[]"
        },
        {
          "indexed": false,
          "internalType": "uint256[]",
          "name": "amounts",
          "type": "uint256[]"
        },
        {
          "indexed": false,
          "internalType": "address",
          "name": "to",
          "type": "address"
        }
      ],
      "name": "LogCollectRevenue",
      "type": "event"
    },
    {
      "anonymous": false,
      "inputs": [
        {
          "components": [
            {
              "internalType": "address",
              "name": "token0",
              "type": "address"
            },
            {
              "internalType": "address",
              "name": "token1",
              "type": "address"
            },
            {
              "internalType": "bytes32",
              "name": "salt",
              "type": "bytes32"
            }
          ],
          "indexed": false,
          "internalType": "struct DexKey",
          "name": "dexKey",
          "type": "tuple"
        },
        {
          "indexed": false,
          "internalType": "uint256",
          "name": "token0Amount",
          "type": "uint256"
        },
        {
          "indexed": false,
          "internalType": "uint256",
          "name": "token1Amount",
          "type": "uint256"
        }
      ],
      "name": "LogDeposit",
      "type": "event"
    },
    {
      "anonymous": false,
      "inputs": [
        {
          "components": [
            {
              "components": [
                {
                  "internalType": "address",
                  "name": "token0",
                  "type": "address"
                },
                {
                  "internalType": "address",
                  "name": "token1",
                  "type": "address"
                },
                {
                  "internalType": "bytes32",
                  "name": "salt",
                  "type": "bytes32"
                }
              ],
              "internalType": "struct DexKey",
              "name": "dexKey",
              "type": "tuple"
            },
            {
              "internalType": "uint256",
              "name": "fee",
              "type": "uint256"
            },
            {
              "internalType": "uint256",
              "name": "revenueCut",
              "type": "uint256"
            },
            {
              "internalType": "bool",
              "name": "rebalancingStatus",
              "type": "bool"
            },
            {
              "internalType": "uint256",
              "name": "centerPrice",
              "type": "uint256"
            },
            {
              "internalType": "uint256",
              "name": "centerPriceContract",
              "type": "uint256"
            },
            {
              "internalType": "uint256",
              "name": "upperPercent",
              "type": "uint256"
            },
            {
              "internalType": "uint256",
              "name": "lowerPercent",
              "type": "uint256"
            },
            {
              "internalType": "uint256",
              "name": "upperShiftThreshold",
              "type": "uint256"
            },
            {
              "internalType": "uint256",
              "name": "lowerShiftThreshold",
              "type": "uint256"
            },
            {
              "internalType": "uint256",
              "name": "shiftTime",
              "type": "uint256"
            },
            {
              "internalType": "uint256",
              "name": "minCenterPrice",
              "type": "uint256"
            },
            {
              "internalType": "uint256",
              "name": "maxCenterPrice",
              "type": "uint256"
            },
            {
              "internalType": "uint256",
              "name": "token0Amount",
              "type": "uint256"
            },
            {
              "internalType": "uint256",
              "name": "token1Amount",
              "type": "uint256"
            }
          ],
          "indexed": false,
          "internalType": "struct InitializeParams",
          "name": "i",
          "type": "tuple"
        }
      ],
      "name": "LogInitialize",
      "type": "event"
    },
    {
      "anonymous": false,
      "inputs": [
        {
          "indexed": false,
          "internalType": "address",
          "name": "auth",
          "type": "address"
        },
        {
          "indexed": false,
          "internalType": "bool",
          "name": "isAuth",
          "type": "bool"
        }
      ],
      "name": "LogUpdateAuth",
      "type": "event"
    },
    {
      "anonymous": false,
      "inputs": [
        {
          "components": [
            {
              "internalType": "address",
              "name": "token0",
              "type": "address"
            },
            {
              "internalType": "address",
              "name": "token1",
              "type": "address"
            },
            {
              "internalType": "bytes32",
              "name": "salt",
              "type": "bytes32"
            }
          ],
          "indexed": false,
          "internalType": "struct DexKey",
          "name": "dexKey",
          "type": "tuple"
        },
        {
          "indexed": false,
          "internalType": "uint256",
          "name": "centerPriceAddress",
          "type": "uint256"
        },
        {
          "indexed": false,
          "internalType": "uint256",
          "name": "percent",
          "type": "uint256"
        },
        {
          "indexed": false,
          "internalType": "uint256",
          "name": "time",
          "type": "uint256"
        }
      ],
      "name": "LogUpdateCenterPriceAddress",
      "type": "event"
    },
    {
      "anonymous": false,
      "inputs": [
        {
          "components": [
            {
              "internalType": "address",
              "name": "token0",
              "type": "address"
            },
            {
              "internalType": "address",
              "name": "token1",
              "type": "address"
            },
            {
              "internalType": "bytes32",
              "name": "salt",
              "type": "bytes32"
            }
          ],
          "indexed": false,
          "internalType": "struct DexKey",
          "name": "dexKey",
          "type": "tuple"
        },
        {
          "indexed": false,
          "internalType": "uint256",
          "name": "maxCenterPrice",
          "type": "uint256"
        },
        {
          "indexed": false,
          "internalType": "uint256",
          "name": "minCenterPrice",
          "type": "uint256"
        }
      ],
      "name": "LogUpdateCenterPriceLimits",
      "type": "event"
    },
    {
      "anonymous": false,
      "inputs": [
        {
          "indexed": false,
          "internalType": "address",
          "name": "extraDataAddress",
          "type": "address"
        }
      ],
      "name": "LogUpdateExtraDataAddress",
      "type": "event"
    },
    {
      "anonymous": false,
      "inputs": [
        {
          "components": [
            {
              "internalType": "address",
              "name": "token0",
              "type": "address"
            },
            {
              "internalType": "address",
              "name": "token1",
              "type": "address"
            },
            {
              "internalType": "bytes32",
              "name": "salt",
              "type": "bytes32"
            }
          ],
          "indexed": false,
          "internalType": "struct DexKey",
          "name": "dexKey",
          "type": "tuple"
        },
        {
          "indexed": false,
          "internalType": "uint256",
          "name": "fee",
          "type": "uint256"
        },
        {
          "indexed": false,
          "internalType": "uint256",
          "name": "revenueCut",
          "type": "uint256"
        }
      ],
      "name": "LogUpdateFeeAndRevenueCut",
      "type": "event"
    },
    {
      "anonymous": false,
      "inputs": [
        {
          "components": [
            {
              "internalType": "address",
              "name": "token0",
              "type": "address"
            },
            {
              "internalType": "address",
              "name": "token1",
              "type": "address"
            },
            {
              "internalType": "bytes32",
              "name": "salt",
              "type": "bytes32"
            }
          ],
          "indexed": false,
          "internalType": "struct DexKey",
          "name": "dexKey",
          "type": "tuple"
        },
        {
          "indexed": false,
          "internalType": "uint256",
          "name": "upperPercent",
          "type": "uint256"
        },
        {
          "indexed": false,
          "internalType": "uint256",
          "name": "lowerPercent",
          "type": "uint256"
        },
        {
          "indexed": false,
          "internalType": "uint256",
          "name": "shiftTime",
          "type": "uint256"
        }
      ],
      "name": "LogUpdateRangePercents",
      "type": "event"
    },
    {
      "anonymous": false,
      "inputs": [
        {
          "components": [
            {
              "internalType": "address",
              "name": "token0",
              "type": "address"
            },
            {
              "internalType": "address",
              "name": "token1",
              "type": "address"
            },
            {
              "internalType": "bytes32",
              "name": "salt",
              "type": "bytes32"
            }
          ],
          "indexed": false,
          "internalType": "struct DexKey",
          "name": "dexKey",
          "type": "tuple"
        },
        {
          "indexed": false,
          "internalType": "bool",
          "name": "rebalancingStatus",
          "type": "bool"
        }
      ],
      "name": "LogUpdateRebalancingStatus",
      "type": "event"
    },
    {
      "anonymous": false,
      "inputs": [
        {
          "components": [
            {
              "internalType": "address",
              "name": "token0",
              "type": "address"
            },
            {
              "internalType": "address",
              "name": "token1",
              "type": "address"
            },
            {
              "internalType": "bytes32",
              "name": "salt",
              "type": "bytes32"
            }
          ],
          "indexed": false,
          "internalType": "struct DexKey",
          "name": "dexKey",
          "type": "tuple"
        },
        {
          "indexed": false,
          "internalType": "uint256",
          "name": "shiftTime",
          "type": "uint256"
        }
      ],
      "name": "LogUpdateShiftTime",
      "type": "event"
    },
    {
      "anonymous": false,
      "inputs": [
        {
          "components": [
            {
              "internalType": "address",
              "name": "token0",
              "type": "address"
            },
            {
              "internalType": "address",
              "name": "token1",
              "type": "address"
            },
            {
              "internalType": "bytes32",
              "name": "salt",
              "type": "bytes32"
            }
          ],
          "indexed": false,
          "internalType": "struct DexKey",
          "name": "dexKey",
          "type": "tuple"
        },
        {
          "indexed": false,
          "internalType": "uint256",
          "name": "upperThresholdPercent",
          "type": "uint256"
        },
        {
          "indexed": false,
          "internalType": "uint256",
          "name": "lowerThresholdPercent",
          "type": "uint256"
        },
        {
          "indexed": false,
          "internalType": "uint256",
          "name": "shiftTime",
          "type": "uint256"
        }
      ],
      "name": "LogUpdateThresholdPercent",
      "type": "event"
    },
    {
      "anonymous": false,
      "inputs": [
        {
          "components": [
            {
              "internalType": "address",
              "name": "token0",
              "type": "address"
            },
            {
              "internalType": "address",
              "name": "token1",
              "type": "address"
            },
            {
              "internalType": "bytes32",
              "name": "salt",
              "type": "bytes32"
            }
          ],
          "indexed": false,
          "internalType": "struct DexKey",
          "name": "dexKey",
          "type": "tuple"
        },
        {
          "indexed": false,
          "internalType": "uint256",
          "name": "token0Amount",
          "type": "uint256"
        },
        {
          "indexed": false,
          "internalType": "uint256",
          "name": "token1Amount",
          "type": "uint256"
        }
      ],
      "name": "LogWithdraw",
      "type": "event"
    },
    {
      "inputs": [
        {
          "internalType": "address[]",
          "name": "tokens_",
          "type": "address[]"
        },
        {
          "internalType": "uint256[]",
          "name": "amounts_",
          "type": "uint256[]"
        },
        {
          "internalType": "address",
          "name": "to_",
          "type": "address"
        }
      ],
      "name": "collectRevenue",
      "outputs": [],
      "stateMutability": "nonpayable",
      "type": "function"
    },
    {
      "inputs": [
        {
          "components": [
            {
              "internalType": "address",
              "name": "token0",
              "type": "address"
            },
            {
              "internalType": "address",
              "name": "token1",
              "type": "address"
            },
            {
              "internalType": "bytes32",
              "name": "salt",
              "type": "bytes32"
            }
          ],
          "internalType": "struct DexKey",
          "name": "dexKey_",
          "type": "tuple"
        },
        {
          "internalType": "uint256",
          "name": "token0Amount_",
          "type": "uint256"
        },
        {
          "internalType": "uint256",
          "name": "token1Amount_",
          "type": "uint256"
        }
      ],
      "name": "deposit",
      "outputs": [],
      "stateMutability": "nonpayable",
      "type": "function"
    },
    {
      "inputs": [
        {
          "components": [
            {
              "components": [
                {
                  "internalType": "address",
                  "name": "token0",
                  "type": "address"
                },
                {
                  "internalType": "address",
                  "name": "token1",
                  "type": "address"
                },
                {
                  "internalType": "bytes32",
                  "name": "salt",
                  "type": "bytes32"
                }
              ],
              "internalType": "struct DexKey",
              "name": "dexKey",
              "type": "tuple"
            },
            {
              "internalType": "uint256",
              "name": "fee",
              "type": "uint256"
            },
            {
              "internalType": "uint256",
              "name": "revenueCut",
              "type": "uint256"
            },
            {
              "internalType": "bool",
              "name": "rebalancingStatus",
              "type": "bool"
            },
            {
              "internalType": "uint256",
              "name": "centerPrice",
              "type": "uint256"
            },
            {
              "internalType": "uint256",
              "name": "centerPriceContract",
              "type": "uint256"
            },
            {
              "internalType": "uint256",
              "name": "upperPercent",
              "type": "uint256"
            },
            {
              "internalType": "uint256",
              "name": "lowerPercent",
              "type": "uint256"
            },
            {
              "internalType": "uint256",
              "name": "upperShiftThreshold",
              "type": "uint256"
            },
            {
              "internalType": "uint256",
              "name": "lowerShiftThreshold",
              "type": "uint256"
            },
            {
              "internalType": "uint256",
              "name": "shiftTime",
              "type": "uint256"
            },
            {
              "internalType": "uint256",
              "name": "minCenterPrice",
              "type": "uint256"
            },
            {
              "internalType": "uint256",
              "name": "maxCenterPrice",
              "type": "uint256"
            },
            {
              "internalType": "uint256",
              "name": "token0Amount",
              "type": "uint256"
            },
            {
              "internalType": "uint256",
              "name": "token1Amount",
              "type": "uint256"
            }
          ],
          "internalType": "struct InitializeParams",
          "name": "i_",
          "type": "tuple"
        }
      ],
      "name": "initialize",
      "outputs": [],
      "stateMutability": "payable",
      "type": "function"
    },
    {
      "inputs": [
        {
          "internalType": "address",
          "name": "auth_",
          "type": "address"
        },
        {
          "internalType": "bool",
          "name": "isAuth_",
          "type": "bool"
        }
      ],
      "name": "updateAuth",
      "outputs": [],
      "stateMutability": "nonpayable",
      "type": "function"
    },
    {
      "inputs": [
        {
          "components": [
            {
              "internalType": "address",
              "name": "token0",
              "type": "address"
            },
            {
              "internalType": "address",
              "name": "token1",
              "type": "address"
            },
            {
              "internalType": "bytes32",
              "name": "salt",
              "type": "bytes32"
            }
          ],
          "internalType": "struct DexKey",
          "name": "dexKey_",
          "type": "tuple"
        },
        {
          "internalType": "uint256",
          "name": "centerPriceAddress_",
          "type": "uint256"
        },
        {
          "internalType": "uint256",
          "name": "percent_",
          "type": "uint256"
        },
        {
          "internalType": "uint256",
          "name": "time_",
          "type": "uint256"
        }
      ],
      "name": "updateCenterPriceAddress",
      "outputs": [],
      "stateMutability": "nonpayable",
      "type": "function"
    },
    {
      "inputs": [
        {
          "components": [
            {
              "internalType": "address",
              "name": "token0",
              "type": "address"
            },
            {
              "internalType": "address",
              "name": "token1",
              "type": "address"
            },
            {
              "internalType": "bytes32",
              "name": "salt",
              "type": "bytes32"
            }
          ],
          "internalType": "struct DexKey",
          "name": "dexKey_",
          "type": "tuple"
        },
        {
          "internalType": "uint256",
          "name": "maxCenterPrice_",
          "type": "uint256"
        },
        {
          "internalType": "uint256",
          "name": "minCenterPrice_",
          "type": "uint256"
        }
      ],
      "name": "updateCenterPriceLimits",
      "outputs": [],
      "stateMutability": "nonpayable",
      "type": "function"
    },
    {
      "inputs": [
        {
          "internalType": "address",
          "name": "extraDataAddress_",
          "type": "address"
        }
      ],
      "name": "updateExtraDataAddress",
      "outputs": [],
      "stateMutability": "nonpayable",
      "type": "function"
    },
    {
      "inputs": [
        {
          "components": [
            {
              "internalType": "address",
              "name": "token0",
              "type": "address"
            },
            {
              "internalType": "address",
              "name": "token1",
              "type": "address"
            },
            {
              "internalType": "bytes32",
              "name": "salt",
              "type": "bytes32"
            }
          ],
          "internalType": "struct DexKey",
          "name": "dexKey_",
          "type": "tuple"
        },
        {
          "internalType": "uint256",
          "name": "fee_",
          "type": "uint256"
        },
        {
          "internalType": "uint256",
          "name": "revenueCut_",
          "type": "uint256"
        }
      ],
      "name": "updateFeeAndRevenueCut",
      "outputs": [],
      "stateMutability": "nonpayable",
      "type": "function"
    },
    {
      "inputs": [
        {
          "components": [
            {
              "internalType": "address",
              "name": "token0",
              "type": "address"
            },
            {
              "internalType": "address",
              "name": "token1",
              "type": "address"
            },
            {
              "internalType": "bytes32",
              "name": "salt",
              "type": "bytes32"
            }
          ],
          "internalType": "struct DexKey",
          "name": "dexKey_",
          "type": "tuple"
        },
        {
          "internalType": "uint256",
          "name": "upperPercent_",
          "type": "uint256"
        },
        {
          "internalType": "uint256",
          "name": "lowerPercent_",
          "type": "uint256"
        },
        {
          "internalType": "uint256",
          "name": "shiftTime_",
          "type": "uint256"
        }
      ],
      "name": "updateRangePercents",
      "outputs": [],
      "stateMutability": "nonpayable",
      "type": "function"
    },
    {
      "inputs": [
        {
          "components": [
            {
              "internalType": "address",
              "name": "token0",
              "type": "address"
            },
            {
              "internalType": "address",
              "name": "token1",
              "type": "address"
            },
            {
              "internalType": "bytes32",
              "name": "salt",
              "type": "bytes32"
            }
          ],
          "internalType": "struct DexKey",
          "name": "dexKey_",
          "type": "tuple"
        },
        {
          "internalType": "bool",
          "name": "rebalancingStatus_",
          "type": "bool"
        }
      ],
      "name": "updateRebalancingStatus",
      "outputs": [],
      "stateMutability": "nonpayable",
      "type": "function"
    },
    {
      "inputs": [
        {
          "components": [
            {
              "internalType": "address",
              "name": "token0",
              "type": "address"
            },
            {
              "internalType": "address",
              "name": "token1",
              "type": "address"
            },
            {
              "internalType": "bytes32",
              "name": "salt",
              "type": "bytes32"
            }
          ],
          "internalType": "struct DexKey",
          "name": "dexKey_",
          "type": "tuple"
        },
        {
          "internalType": "uint256",
          "name": "shiftTime_",
          "type": "uint256"
        }
      ],
      "name": "updateShiftTime",
      "outputs": [],
      "stateMutability": "nonpayable",
      "type": "function"
    },
    {
      "inputs": [
        {
          "components": [
            {
              "internalType": "address",
              "name": "token0",
              "type": "address"
            },
            {
              "internalType": "address",
              "name": "token1",
              "type": "address"
            },
            {
              "internalType": "bytes32",
              "name": "salt",
              "type": "bytes32"
            }
          ],
          "internalType": "struct DexKey",
          "name": "dexKey_",
          "type": "tuple"
        },
        {
          "internalType": "uint256",
          "name": "upperThresholdPercent_",
          "type": "uint256"
        },
        {
          "internalType": "uint256",
          "name": "lowerThresholdPercent_",
          "type": "uint256"
        },
        {
          "internalType": "uint256",
          "name": "shiftTime_",
          "type": "uint256"
        }
      ],
      "name": "updateThresholdPercent",
      "outputs": [],
      "stateMutability": "nonpayable",
      "type": "function"
    },
    {
      "inputs": [
        {
          "components": [
            {
              "internalType": "address",
              "name": "token0",
              "type": "address"
            },
            {
              "internalType": "address",
              "name": "token1",
              "type": "address"
            },
            {
              "internalType": "bytes32",
              "name": "salt",
              "type": "bytes32"
            }
          ],
          "internalType": "struct DexKey",
          "name": "dexKey_",
          "type": "tuple"
        },
        {
          "internalType": "uint256",
          "name": "token0Amount_",
          "type": "uint256"
        },
        {
          "internalType": "uint256",
          "name": "token1Amount_",
          "type": "uint256"
        },
        {
          "internalType": "address",
          "name": "to_",
          "type": "address"
        }
      ],
      "name": "withdraw",
      "outputs": [],
      "stateMutability": "nonpayable",
      "type": "function"
    }
  ],
  "transactionHash": "0x63404609df2d1b5e699177757247d8dd9abe98d833106c8649d645f7106f5a8d",
  "args": [
    "0x52Aa899454998Be5b000Ad077a46Bbe360F4e497",
    "0x4EC7b668BAF70d4A4b0FC7941a7708A07b6d45Be"
  ],
  "numDeployments": 1,
  "solcInputHash": "3ba7edb9f7e9f389c1c6909f6f8c9c8f",
  "bytecode": "0x60e060405234801561000f575f5ffd5b50604051612cfa380380612cfa83398101604081905261002e91610064565b3060c0526001600160a01b039182166080521660a052610095565b80516001600160a01b038116811461005f575f5ffd5b919050565b5f5f60408385031215610075575f5ffd5b61007e83610049565b915061008c60208401610049565b90509250929050565b60805160a05160c051612bf16101095f395f8181610272015281816103230152818161044f01528181610577015281816106e0015281816108db01528181610b2401528181610cf701528181610ef10152818161158f0152818161166301526118a701525f6109b001525f5050612bf15ff3fe6080604052600436106100ce575f3560e01c8063a2656f731161007c578063cb710d4511610057578063cb710d45146101df578063e462f211146101fe578063e9c771b21461021d578063fe0595a31461023c575f5ffd5b8063a2656f731461018e578063b2408530146101ad578063ba53454c146101cc575f5ffd5b80634f8db1ea116100ac5780634f8db1ea1461013157806354614325146101505780636f25de781461016f575f5ffd5b8063013405c1146100d25780630a3d95e5146100f3578063179bdf9c14610112575b5f5ffd5b3480156100dd575f5ffd5b506100f16100ec3660046122cc565b61025b565b005b3480156100fe575f5ffd5b506100f161010d366004612311565b61030c565b34801561011d575f5ffd5b506100f161012c366004612343565b610438565b34801561013c575f5ffd5b506100f161014b36600461236c565b610560565b34801561015b575f5ffd5b506100f161016a36600461239d565b6106c9565b34801561017a575f5ffd5b506100f161018936600461239d565b6108c4565b348015610199575f5ffd5b506100f16101a83660046123d4565b610b0d565b3480156101b8575f5ffd5b506100f16101c736600461239d565b610ce0565b6100f16101da3660046124f2565b610eda565b3480156101ea575f5ffd5b506100f16101f936600461261c565b611578565b348015610209575f5ffd5b506100f161021836600461236c565b61164c565b348015610228575f5ffd5b506100f161023736600461269c565b61181c565b348015610247575f5ffd5b506100f161025636600461236c565b611890565b73ffffffffffffffffffffffffffffffffffffffff7f000000000000000000000000000000000000000000000000000000000000000016300361029c575f5ffd5b7f7e8134afb5ed35d36cb65e24b9a4712a52bb77d952806c1acf50970d2107797f81905560405173ffffffffffffffffffffffffffffffffffffffff821681527f116a7728df267da3fd3e4d5a3943585553ba46e2416287dbc49e275ac20f3c269060200160405180910390a150565b73ffffffffffffffffffffffffffffffffffffffff7f000000000000000000000000000000000000000000000000000000000000000016300361034d575f5ffd5b5f8260405160200161035f9190612717565b604080517fffffffffffffffffffffffffffffffffffffffffffffffffffffffffffffffe081840301815291815281516020928301205f818152600190935290822054909250908190036103b1575f5ffd5b6014836103be575f6103c1565b60015b5f84815260016020526040908190209190921b7fffffffffffffffffffffffffffffffffffffffffffffffffffffffffffcfffff8416179055517fb7acf1bec3f8086d74bea56e970157007f40221730e07e54998f93bce4cd59fe9061042a9086908690612725565b60405180910390a150505050565b73ffffffffffffffffffffffffffffffffffffffff7f0000000000000000000000000000000000000000000000000000000000000000163003610479575f5ffd5b5f8260405160200161048b9190612717565b604080517fffffffffffffffffffffffffffffffffffffffffffffffffffffffffffffffe081840301815291815281516020928301205f818152600190935290822054909250908190036104dd575f5ffd5b8215806104ec575062ffffff83115b156104f5575f5ffd5b5f828152600260205260409081902080547fffffffffffffffffffffffffffffffffffffffffffffffffffe00001ffffffff16602186901b179055517f92bebbbb8fe9dbc4a787680198fca5ebaf16c8f721881efa14070b42157b10f99061042a9086908690612742565b73ffffffffffffffffffffffffffffffffffffffff7f00000000000000000000000000000000000000000000000000000000000000001630036105a1575f5ffd5b5f836040516020016105b39190612717565b604080517fffffffffffffffffffffffffffffffffffffffffffffffffffffffffffffffe081840301815291815281516020928301205f81815260019093529120549091508015610602575f5ffd5b8215801590610612575061271083105b1561061b575f5ffd5b6106276127108461278a565b9250611fff8411806106395750606483115b15610642575f5ffd5b5f8281526001602052604090207ffffffffffffffffffffffffffffffffffffffffffffffffffffffffffff0000082168517600d85901b1790557fd706efc260dc24de0e5c10e90ff4541185bad312aa114c0cb500ed6fe06828f585856106ab612710876127c2565b6040516106ba939291906127d9565b60405180910390a15050505050565b73ffffffffffffffffffffffffffffffffffffffff7f000000000000000000000000000000000000000000000000000000000000000016300361070a575f5ffd5b5f8460405160200161071c9190612717565b604080517fffffffffffffffffffffffffffffffffffffffffffffffffffffffffffffffe081840301815291815281516020928301205f8181526001909352908220549092509081900361076e575f5ffd5b610779600a8661278a565b9450610786600a8561278a565b93506107976103e8620186a06127f8565b8511806107b157506107ae6103e8620186a06127f8565b84115b806107ba575084155b806107c3575083155b806107d05750620fffff83115b806107e257506001605282901c166001145b156107eb575f5ffd5b606184901b605386901b60525f8611610804575f610807565b60015b5f868152600160205260409020911b7fffffffffffffffffffffffffffffffffffff80000007ffffffffffffffffffff85161791909117919091179055613fff605382901c811690606183901c16841561087d575f848152600360205260409020600e82901b8317601c87901b174260301b1790555b7f81b2e6a314a716da4f9d7b055eb77f3631ef9b606ee131e0735d4ac55625bc57888888886040516108b2949392919061280b565b60405180910390a15050505050505050565b73ffffffffffffffffffffffffffffffffffffffff7f0000000000000000000000000000000000000000000000000000000000000000163003610905575f5ffd5b5f846040516020016109179190612717565b604080517fffffffffffffffffffffffffffffffffffffffffffffffffffffffffffffffe081840301815291815281516020928301205f81815260019093529082205490925090819003610969575f5ffd5b6207ffff851180610978575083155b806109855750620fffff84115b8061098e575082155b8061099b5750620fffff83115b156109a4575f5ffd5b8415610a64575f6109d57f000000000000000000000000000000000000000000000000000000000000000087611a0b565b90506109e081611e74565b505f8281526001602090815260408083207ffffffffffffffffffffffffffffffffffffffffffffc00007fffffffffffffff8516603f8a901b17624000001790556002909152902080547ffffffffffffffffffc000000000000000001ffffffffffffffffffffffffffff16607186901b17608585901b174260991b179055610ac8565b5f82815260016020908152604080832080547ffffffffffffffffffffffffffffffffffffffffffffc00007fffffffffffffff1690556002909152902080547ffffffffffffffffffc000000000000000001ffffffffffffffffffffffffffff1690555b7f20e36ad6a8bd92e4099726493cd199acd97a118144d24b4f32130b755f96583886868686604051610afd949392919061280b565b60405180910390a1505050505050565b73ffffffffffffffffffffffffffffffffffffffff7f0000000000000000000000000000000000000000000000000000000000000000163003610b4e575f5ffd5b5f84604051602001610b609190612717565b604080517fffffffffffffffffffffffffffffffffffffffffffffffffffffffffffffffe081840301815291815281516020928301205f81815260019093529082205490925090819003610bb2575f5ffd5b610bc9610bc260208801886122cc565b8685611e99565b610be3610bdc60408801602089016122cc565b8585611e99565b5f5f610bf5601f607e85901c16611efc565b915091505f5f610c0b601f608387901c16611efc565b90925090505f83610c1c868c6127c2565b610c26919061278a565b610c3e90608888901c670fffffffffffffff166127f8565b90505f82610c4c858c6127c2565b610c56919061278a565b610c649060c489901c6127f8565b5f898152600160205260409081902070ffffffffffffffffffffffffffffffffff8a16608886901b1760c484901b179055519091507fac3f5d8180a6e6b14ec66bccf0984880cc08ec22c38ac0f40b5b426019bf11c990610cca908e908e908e906127d9565b60405180910390a1505050505050505050505050565b73ffffffffffffffffffffffffffffffffffffffff7f0000000000000000000000000000000000000000000000000000000000000000163003610d21575f5ffd5b5f84604051602001610d339190612717565b604080517fffffffffffffffffffffffffffffffffffffffffffffffffffffffffffffffe081840301815291815281516020928301205f81815260019093529082205490925090819003610d85575f5ffd5b610d916127108661278a565b9450610d9f6127108561278a565b93506064851180610db05750606484115b80610dc3575084158015610dc357505f84115b80610dd657505f85118015610dd6575083155b80610de35750620fffff83115b80610df557506001606f82901c166001145b15610dfe575f5ffd5b607784901b607086901b606f5f8611610e17575f610e1a565b60015b5f868152600160205260409020911b7fffffffffffffffffffffffffffffffffc000ffffffffffffffffffffffffffff85161791909117919091179055607f607082901c811690607783901c168415610e8f575f848152600460205260409020600782901b8317600e87901b174260221b1790555b7f9a82ab90950777597b4fbeda75d4e4d689dc7471853a11602f1c263d2520d46288610ebd6127108a6127c2565b610ec96127108a6127c2565b886040516108b2949392919061280b565b73ffffffffffffffffffffffffffffffffffffffff7f0000000000000000000000000000000000000000000000000000000000000000163003610f1b575f5ffd5b80515173ffffffffffffffffffffffffffffffffffffffff161580610f59575080516020015173ffffffffffffffffffffffffffffffffffffffff16155b80610f85575080516020810151905173ffffffffffffffffffffffffffffffffffffffff918216911610155b15610f8e575f5ffd5b610fc76040518060e001604052805f81526020015f81526020015f81526020015f81526020015f81526020015f81526020015f81525090565b8151604051610fd99190602001612834565b604080517fffffffffffffffffffffffffffffffffffffffffffffffffffffffffffffffe081840301815291815281516020928301208084525f908152600190925290205415611027575f5ffd5b81515173ffffffffffffffffffffffffffffffffffffffff1673eeeeeeeeeeeeeeeeeeeeeeeeeeeeeeeeeeeeeeee146110d557815f01515f015173ffffffffffffffffffffffffffffffffffffffff1663313ce5676040518163ffffffff1660e01b8152600401602060405180830381865afa1580156110a9573d5f5f3e3d5ffd5b505050506040513d601f19601f820116820180604052508101906110cd9190612885565b60ff166110d8565b60125b6020808301919091528251015173ffffffffffffffffffffffffffffffffffffffff1673eeeeeeeeeeeeeeeeeeeeeeeeeeeeeeeeeeeeeeee1461119157815f01516020015173ffffffffffffffffffffffffffffffffffffffff1663313ce5676040518163ffffffff1660e01b8152600401602060405180830381865afa158015611165573d5f5f3e3d5ffd5b505050506040513d601f19601f820116820180604052508101906111899190612885565b60ff16611194565b60125b604080830191909152820151158015906111b357506127108260400151105b156111bc575f5ffd5b61271082604001516111ce919061278a565b604083015260c08201516111e490600a9061278a565b60c083015260e08201516111fa90600a9061278a565b60e0830152610100820151611212906127109061278a565b61010083015261012082015161122b906127109061278a565b6101208301526020820151611fff1080611249575060648260400151115b8061125d5750816101600151826080015111155b806112715750816101800151826080015110155b8061128257506207ffff8260a00151115b8061129e57506112976103e8620186a06127f8565b8260c00151115b806112ba57506112b36103e8620186a06127f8565b8260e00151115b806112c7575060c0820151155b806112d4575060e0820151155b806112e457506064826101000151115b806112f457506064826101200151115b80611311575061010082015115801561131157505f826101200151115b8061132e57505f82610100015111801561132e5750610120820151155b8061133c5750610140820151155b8061134e575062ffffff826101400151115b8061135c5750610160820151155b8061136b575060208101516006115b8061137a575060208101516012105b80611389575060408101516006115b80611398575060408101516012105b156113a1575f5ffd5b8151516101a08301516113b49190611f48565b6113ca825f015160200151836101c00151611f48565b6113d78160200151611efc565b6080830152606082015260408101516113ef90611efc565b60c0830181905260a083018290526101c084015160c49261140f916127c2565b611419919061278a565b901b608882608001518360600151856101a0015161143791906127c2565b611441919061278a565b901b60838360400151901b607e8460200151901b6077866101200151901b6070876101000151901b60618860e00151901b60538960c00151901b603f8a60a00151901b60176114988c60800151602060085f611fc7565b901b60148c606001516114ab575f6114ae565b60015b901b600d8d60400151901b5f8e60200151901b17171717171717171717171760015f835f015181526020019081526020015f208190555060556114fa836101600151601460085f611fc7565b901b6039611512846101800151601460086001611fc7565b901b6021846101400151901b5f42901b17171760025f835f015181526020019081526020015f20819055507f083abadc594d8d389117d33215bf13ad0c1c7d453617f99653d1842f92a971f98260405161156c91906128a5565b60405180910390a15050565b73ffffffffffffffffffffffffffffffffffffffff7f00000000000000000000000000000000000000000000000000000000000000001630036115b9575f5ffd5b5f5b848110156116145761160c8686838181106115d8576115d861298b565b90506020020160208101906115ed91906122cc565b8585848181106115ff576115ff61298b565b9050602002013584611e99565b6001016115bb565b507f1d5b4b04795ebb3901db9b61da375220c34f0661b7f6068a43831ce89d14df1085858585856040516106ba9594939291906129b8565b73ffffffffffffffffffffffffffffffffffffffff7f000000000000000000000000000000000000000000000000000000000000000016300361168d575f5ffd5b5f8360405160200161169f9190612717565b604080517fffffffffffffffffffffffffffffffffffffffffffffffffffffffffffffffe081840301815291815281516020928301205f818152600190935290822054909250908190036116f1575f5ffd5b61170761170160208701876122cc565b85611f48565b61172061171a60408701602088016122cc565b84611f48565b5f5f611732601f607e85901c16611efc565b915091505f5f611748601f608387901c16611efc565b90925090505f83611759868b6127c2565b611763919061278a565b61177b90608888901c670fffffffffffffff16612a7c565b90505f82611789858b6127c2565b611793919061278a565b6117a19060c489901c612a7c565b5f898152600160205260409081902070ffffffffffffffffffffffffffffffffff8a16608886901b1760c484901b179055519091507fe1a74ddf3da2989e73b9cc7d5e6689947964216c6b1b903ebc555180eceee95890611807908d908d908d906127d9565b60405180910390a15050505050505050505050565b80611827575f61182a565b60015b73ffffffffffffffffffffffffffffffffffffffff83165f818152602081815260409182902060ff949094169093558051918252831515928201929092527fb873643b3104ddd26927dec7f9a08aa22d03ac20ada0295a2de7e1a6c60f2a51910161156c565b73ffffffffffffffffffffffffffffffffffffffff7f00000000000000000000000000000000000000000000000000000000000000001630036118d1575f5ffd5b5f836040516020016118e39190612717565b604080517fffffffffffffffffffffffffffffffffffffffffffffffffffffffffffffffe081840301815291815281516020928301205f81815260019093529082205490925090819003611935575f5ffd5b63ffffffff601f82901c1660ff601783901c161b83851115806119585750838111155b806119635750848110155b8061196c575083155b15611975575f5ffd5b605561198585601460085f611fc7565b901b603961199887601460086001611fc7565b5f868152600260205260409081902080547ffffffffffffffffffffffffffffffffffffe00000000000001ffffffffffffff169290931b91909117929092179055517f8b187f9eca4bc1a8d4ad5ecd867ebf561f9b32e1a872169700dac1a79d12dad590610afd908890889088906127d9565b5f6060825f03611a1e575f915050611e6e565b607f8311611ae7576040517fd60000000000000000000000000000000000000000000000000000000000000060208201527f940000000000000000000000000000000000000000000000000000000000000060218201527fffffffffffffffffffffffffffffffffffffffff000000000000000000000000606086901b16602282015260f884901b7fff000000000000000000000000000000000000000000000000000000000000001660368201526037015b6040516020818303038152906040529050611e63565b60ff8311611bc4576040517fd70000000000000000000000000000000000000000000000000000000000000060208201527f940000000000000000000000000000000000000000000000000000000000000060218201527fffffffffffffffffffffffffffffffffffffffff000000000000000000000000606086901b1660228201527f8100000000000000000000000000000000000000000000000000000000000000603682015260f884901b7fff00000000000000000000000000000000000000000000000000000000000000166037820152603801611ad1565b61ffff8311611ca2576040517fd80000000000000000000000000000000000000000000000000000000000000060208201527f940000000000000000000000000000000000000000000000000000000000000060218201527fffffffffffffffffffffffffffffffffffffffff000000000000000000000000606086901b1660228201527f820000000000000000000000000000000000000000000000000000000000000060368201527fffff00000000000000000000000000000000000000000000000000000000000060f085901b166037820152603901611ad1565b62ffffff8311611d81576040517fd90000000000000000000000000000000000000000000000000000000000000060208201527f940000000000000000000000000000000000000000000000000000000000000060218201527fffffffffffffffffffffffffffffffffffffffff000000000000000000000000606086901b1660228201527f830000000000000000000000000000000000000000000000000000000000000060368201527fffffff000000000000000000000000000000000000000000000000000000000060e885901b166037820152603a01611ad1565b6040517fda0000000000000000000000000000000000000000000000000000000000000060208201527f940000000000000000000000000000000000000000000000000000000000000060218201527fffffffffffffffffffffffffffffffffffffffff000000000000000000000000606086901b1660228201527f840000000000000000000000000000000000000000000000000000000000000060368201527fffffffff0000000000000000000000000000000000000000000000000000000060e085901b166037820152603b0160405160208183030381529060405290505b805160209091012090505b92915050565b8073ffffffffffffffffffffffffffffffffffffffff163b5f03611e96575f5ffd5b50565b815f03611ea557505050565b7fffffffffffffffffffffffff111111111111111111111111111111111111111273ffffffffffffffffffffffffffffffffffffffff841601611ef157611eec81836120ed565b505050565b611eec83828461213b565b5f5f6009831115611f285760019150611f166009846127f8565b611f2190600a612bb0565b9050915091565b611f338360096127f8565b611f3e90600a612bb0565b9360019350915050565b805f03611f53575050565b7fffffffffffffffffffffffff111111111111111111111111111111111111111273ffffffffffffffffffffffffffffffffffffffff831601611fbb5780341015611f9c575f5ffd5b80341115611fb757611fb733611fb283346127f8565b6120ed565b5050565b611fb7823330846121e1565b5f5f856fffffffffffffffffffffffffffffffff811115611fe95760809150811c5b67ffffffffffffffff811115612001576040918201911c5b63ffffffff811115612015576020918201911c5b61ffff811115612027576010918201911c5b60ff811115612038576008918201911c5b600f811115612049576004918201911c5b600381111561205a576002918201911c5b600181111561206a576001820191505b8015612077576001820191505b50848110156120835750835b848103905085811c5f82118416156120d157600181019050806001871b036120d157506001908101907fffffffffffffffffffffffffffffffffffffffffffffffffffffffffffffffff86011b5b6001851b82106120df575f5ffd5b90931b909201949350505050565b5f5f5f5f5f8587614e20f1905080611eec576040517fdee51a8a0000000000000000000000000000000000000000000000000000000081526201155a60048201526024015b60405180910390fd5b5f6040517fa9059cbb00000000000000000000000000000000000000000000000000000000815273ffffffffffffffffffffffffffffffffffffffff8416600482015282602482015260205f6044835f895af13d15601f3d1160015f5114161716915050806121db576040517fdee51a8a0000000000000000000000000000000000000000000000000000000081526201155a6004820152602401612132565b50505050565b5f6040517f23b872dd00000000000000000000000000000000000000000000000000000000815273ffffffffffffffffffffffffffffffffffffffff8516600482015273ffffffffffffffffffffffffffffffffffffffff8416602482015282604482015260205f6064835f8a5af13d15601f3d1160015f51141617169150508061229d576040517fdee51a8a000000000000000000000000000000000000000000000000000000008152620115596004820152602401612132565b5050505050565b803573ffffffffffffffffffffffffffffffffffffffff811681146122c7575f5ffd5b919050565b5f602082840312156122dc575f5ffd5b6122e5826122a4565b9392505050565b5f606082840312156122fc575f5ffd5b50919050565b803580151581146122c7575f5ffd5b5f5f60808385031215612322575f5ffd5b61232c84846122ec565b915061233a60608401612302565b90509250929050565b5f5f60808385031215612354575f5ffd5b61235e84846122ec565b946060939093013593505050565b5f5f5f60a0848603121561237e575f5ffd5b61238885856122ec565b95606085013595506080909401359392505050565b5f5f5f5f60c085870312156123b0575f5ffd5b6123ba86866122ec565b966060860135965060808601359560a00135945092505050565b5f5f5f5f60c085870312156123e7575f5ffd5b6123f186866122ec565b9350606085013592506080850135915061240d60a086016122a4565b905092959194509250565b6040516101e0810167ffffffffffffffff81118282101715612461577f4e487b71000000000000000000000000000000000000000000000000000000005f52604160045260245ffd5b60405290565b5f60608284031215612477575f5ffd5b6040516060810167ffffffffffffffff811182821017156124bf577f4e487b71000000000000000000000000000000000000000000000000000000005f52604160045260245ffd5b6040529050806124ce836122a4565b81526124dc602084016122a4565b6020820152604092830135920191909152919050565b5f610220828403128015612504575f5ffd5b5061250d612418565b6125178484612467565b8152606083013560208201526080830135604082015261253960a08401612302565b606082015260c083810135608083015260e08085013560a0840152610100808601359284019290925261012080860135918401919091526101408086013592840192909252610160808601359184019190915261018080860135928401929092526101a080860135918401919091526101c080860135928401929092526101e085013590830152610200909301359281019290925250919050565b5f5f83601f8401126125e4575f5ffd5b50813567ffffffffffffffff8111156125fb575f5ffd5b6020830191508360208260051b8501011115612615575f5ffd5b9250929050565b5f5f5f5f5f60608688031215612630575f5ffd5b853567ffffffffffffffff811115612646575f5ffd5b612652888289016125d4565b909650945050602086013567ffffffffffffffff811115612671575f5ffd5b61267d888289016125d4565b90945092506126909050604087016122a4565b90509295509295909350565b5f5f604083850312156126ad575f5ffd5b6126b6836122a4565b915061233a60208401612302565b73ffffffffffffffffffffffffffffffffffffffff6126e2826122a4565b16825273ffffffffffffffffffffffffffffffffffffffff612706602083016122a4565b166020830152604090810135910152565b60608101611e6e82846126c4565b6080810161273382856126c4565b82151560608301529392505050565b6080810161275082856126c4565b8260608301529392505050565b7f4e487b71000000000000000000000000000000000000000000000000000000005f52601160045260245ffd5b5f826127bd577f4e487b71000000000000000000000000000000000000000000000000000000005f52601260045260245ffd5b500490565b8082028115828204841417611e6e57611e6e61275d565b60a081016127e782866126c4565b606082019390935260800152919050565b81810381811115611e6e57611e6e61275d565b60c0810161281982876126c4565b8460608301528360808301528260a083015295945050505050565b60608101611e6e828473ffffffffffffffffffffffffffffffffffffffff815116825273ffffffffffffffffffffffffffffffffffffffff6020820151166020830152604081015160408301525050565b5f60208284031215612895575f5ffd5b815160ff811681146122e5575f5ffd5b8151805173ffffffffffffffffffffffffffffffffffffffff9081168352602080830151909116908301526040908101519082015261022081016020830151606083015260408301516080830152606083015161290660a084018215159052565b50608083015160c083015260a083015160e083015260c083015161010083015260e08301516101208301526101008301516101408301526101208301516101608301526101408301516101808301526101608301516101a08301526101808301516101c08301526101a08301516101e08301526101c083015161020083015292915050565b7f4e487b71000000000000000000000000000000000000000000000000000000005f52603260045260245ffd5b606080825281018590525f8660808301825b88811015612a055773ffffffffffffffffffffffffffffffffffffffff6129f0846122a4565b168252602092830192909101906001016129ca565b5083810360208501528581527f07ffffffffffffffffffffffffffffffffffffffffffffffffffffffffffffff861115612a3d575f5ffd5b8560051b915081876020830137016020019050612a72604083018473ffffffffffffffffffffffffffffffffffffffff169052565b9695505050505050565b80820180821115611e6e57611e6e61275d565b6001815b6001841115612aca57808504811115612aae57612aae61275d565b6001841615612abc57908102905b60019390931c928002612a93565b935093915050565b5f82612ae057506001611e6e565b81612aec57505f611e6e565b8160018114612b025760028114612b0c57612b28565b6001915050611e6e565b60ff841115612b1d57612b1d61275d565b50506001821b611e6e565b5060208310610133831016604e8410600b8410161715612b4b575081810a611e6e565b612b767fffffffffffffffffffffffffffffffffffffffffffffffffffffffffffffffff8484612a8f565b807fffffffffffffffffffffffffffffffffffffffffffffffffffffffffffffffff04821115612ba857612ba861275d565b029392505050565b5f6122e58383612ad256fea2646970667358221220eef08b5d404537db188ef7db207eb5934ab09702fa290d0119832bb188ae080d64736f6c634300081d0033",
  "devdoc": {
    "kind": "dev",
    "methods": {
      "collectRevenue(address[],uint256[],address)": {
        "details": "collect revenue from the dex",
        "params": {
          "amounts_": "the amounts of tokens to collect revenue from",
          "to_": "the address to send the tokens to",
          "tokens_": "the tokens to collect revenue from"
        }
      },
      "deposit((address,address,bytes32),uint256,uint256)": {
        "details": "deposit tokens into the dex",
        "params": {
          "dexKey_": "the dex key",
          "token0Amount_": "the token0 amount",
          "token1Amount_": "the token1 amount"
        }
      },
      "initialize(((address,address,bytes32),uint256,uint256,bool,uint256,uint256,uint256,uint256,uint256,uint256,uint256,uint256,uint256,uint256,uint256))": {
        "details": "initialize the dex",
        "params": {
          "i_": "the initialize params"
        }
      },
      "updateAuth(address,bool)": {
        "details": "update the auth for the dex",
        "params": {
          "auth_": "the address to update auth for",
          "isAuth_": "the auth status"
        }
      },
      "updateCenterPriceAddress((address,address,bytes32),uint256,uint256,uint256)": {
        "details": "update the center price address (nonce) for the dex",
        "params": {
          "centerPriceAddress_": "nonce < X19, this nonce will be used to calculate contract address",
          "dexKey_": "the dex key",
          "percent_": "in 4 decimals, 10000 = 1%",
          "time_": "in secs, in how much time the center price should be fully shifted."
        }
      },
      "updateCenterPriceLimits((address,address,bytes32),uint256,uint256)": {
        "details": "update the center price limits for the dex",
        "params": {
          "dexKey_": "the dex key",
          "maxCenterPrice_": "1:1 means 1e27 ",
          "minCenterPrice_": "1:1 means 1e27"
        }
      },
      "updateExtraDataAddress(address)": {
        "details": "update the extra data address in storage slot",
        "params": {
          "extraDataAddress_": "the address to set in the extra data slot"
        }
      },
      "updateFeeAndRevenueCut((address,address,bytes32),uint256,uint256)": {
        "details": "update the fee and revenue cut for the dex",
        "params": {
          "dexKey_": "the dex key",
          "fee_": "in 4 decimals, 10000 = 1%",
          "revenueCut_": "in 4 decimals, 10000 = 1%"
        }
      },
      "updateRangePercents((address,address,bytes32),uint256,uint256,uint256)": {
        "details": "update the range percents for the dex",
        "params": {
          "dexKey_": "the dex key",
          "lowerPercent_": "in 4 decimals, 10000 = 1%",
          "shiftTime_": "in secs, in how much time the upper percent configs change should be fully done",
          "upperPercent_": "in 4 decimals, 10000 = 1%"
        }
      },
      "updateRebalancingStatus((address,address,bytes32),bool)": {
        "details": "update the rebalancing status for the dex",
        "params": {
          "dexKey_": "the dex key",
          "rebalancingStatus_": "the rebalancing status (true = on, false = off)"
        }
      },
      "updateShiftTime((address,address,bytes32),uint256)": {
        "details": "update the shift time for the dex for rebalancing",
        "params": {
          "dexKey_": "the dex key",
          "shiftTime_": "in secs, in how much time rebalancing should be fully done."
        }
      },
      "updateThresholdPercent((address,address,bytes32),uint256,uint256,uint256)": {
        "details": "update the threshold percent for the dex",
        "params": {
          "dexKey_": "the dex key",
          "lowerThresholdPercent_": "in 4 decimals, 10000 = 1%",
          "shiftTime_": "in secs, in how much time the upper config changes should be fully done.",
          "upperThresholdPercent_": "in 4 decimals, 10000 = 1%"
        }
      },
      "withdraw((address,address,bytes32),uint256,uint256,address)": {
        "details": "withdraw tokens from the dex",
        "params": {
          "dexKey_": "the dex key",
          "to_": "the address to send the tokens to",
          "token0Amount_": "the token0 amount",
          "token1Amount_": "the token1 amount"
        }
      }
    },
    "version": 1
  },
  "userdoc": {
    "kind": "user",
    "methods": {},
    "version": 1
  },
  "storageLayout": {
    "storage": [
      {
        "astId": 7078,
        "contract": "contracts/protocols/dexLite/adminModule/main.sol:FluidDexLiteAdminModule",
        "label": "_isAuth",
        "offset": 0,
        "slot": "0",
        "type": "t_mapping(t_address,t_uint256)"
      },
      {
        "astId": 7083,
        "contract": "contracts/protocols/dexLite/adminModule/main.sol:FluidDexLiteAdminModule",
        "label": "_dexVariables",
        "offset": 0,
        "slot": "1",
        "type": "t_mapping(t_bytes32,t_uint256)"
      },
      {
        "astId": 7088,
        "contract": "contracts/protocols/dexLite/adminModule/main.sol:FluidDexLiteAdminModule",
        "label": "_centerPriceShift",
        "offset": 0,
        "slot": "2",
        "type": "t_mapping(t_bytes32,t_uint256)"
      },
      {
        "astId": 7093,
        "contract": "contracts/protocols/dexLite/adminModule/main.sol:FluidDexLiteAdminModule",
        "label": "_rangeShift",
        "offset": 0,
        "slot": "3",
        "type": "t_mapping(t_bytes32,t_uint256)"
      },
      {
        "astId": 7098,
        "contract": "contracts/protocols/dexLite/adminModule/main.sol:FluidDexLiteAdminModule",
        "label": "_thresholdShift",
        "offset": 0,
        "slot": "4",
        "type": "t_mapping(t_bytes32,t_uint256)"
      }
    ],
    "types": {
      "t_address": {
        "encoding": "inplace",
        "label": "address",
        "numberOfBytes": "20"
      },
      "t_bytes32": {
        "encoding": "inplace",
        "label": "bytes32",
        "numberOfBytes": "32"
      },
      "t_mapping(t_address,t_uint256)": {
        "encoding": "mapping",
        "key": "t_address",
        "label": "mapping(address => uint256)",
        "numberOfBytes": "32",
        "value": "t_uint256"
      },
      "t_mapping(t_bytes32,t_uint256)": {
        "encoding": "mapping",
        "key": "t_bytes32",
        "label": "mapping(bytes32 => uint256)",
        "numberOfBytes": "32",
        "value": "t_uint256"
      },
      "t_uint256": {
        "encoding": "inplace",
        "label": "uint256",
        "numberOfBytes": "32"
      }
    }
  }
}