{
  "address": "0xd1dDbc77E3394A50D642FB0510d199154e6BD493",
  "abi": [
    {
      "inputs": [
        {
          "internalType": "address",
          "name": "liquidity_",
          "type": "address"
        },
        {
          "internalType": "address",
          "name": "dexFactory_",
          "type": "address"
        },
        {
          "internalType": "address",
          "name": "contractDeployer_",
          "type": "address"
        },
        {
          "internalType": "address",
          "name": "colOperations_",
          "type": "address"
        },
        {
          "internalType": "address",
          "name": "debtOperations_",
          "type": "address"
        },
        {
          "internalType": "address",
          "name": "perfectOperationsAndSwapOut_",
          "type": "address"
        },
        {
          "internalType": "address",
          "name": "mainAddress1_",
          "type": "address"
        },
        {
          "internalType": "address",
          "name": "mainAddress2_",
          "type": "address"
        }
      ],
      "stateMutability": "nonpayable",
      "type": "constructor"
    },
    {
      "inputs": [
        {
          "internalType": "uint256",
          "name": "errorId_",
          "type": "uint256"
        }
      ],
      "name": "FluidDexError",
      "type": "error"
    },
    {
      "inputs": [
        {
          "internalType": "uint256",
          "name": "errorId_",
          "type": "uint256"
        }
      ],
      "name": "FluidDexFactoryError",
      "type": "error"
    },
    {
      "inputs": [
        {
          "internalType": "uint256",
          "name": "shares_",
          "type": "uint256"
        }
      ],
      "name": "FluidDexLiquidityOutput",
      "type": "error"
    },
    {
      "inputs": [
        {
          "internalType": "uint256",
          "name": "token0Amt",
          "type": "uint256"
        },
        {
          "internalType": "uint256",
          "name": "token1Amt",
          "type": "uint256"
        }
      ],
      "name": "FluidDexPerfectLiquidityOutput",
      "type": "error"
    },
    {
      "inputs": [
        {
          "components": [
            {
              "internalType": "uint256",
              "name": "lastStoredPrice",
              "type": "uint256"
            },
            {
              "internalType": "uint256",
              "name": "centerPrice",
              "type": "uint256"
            },
            {
              "internalType": "uint256",
              "name": "upperRange",
              "type": "uint256"
            },
            {
              "internalType": "uint256",
              "name": "lowerRange",
              "type": "uint256"
            },
            {
              "internalType": "uint256",
              "name": "geometricMean",
              "type": "uint256"
            },
            {
              "internalType": "uint256",
              "name": "supplyToken0ExchangePrice",
              "type": "uint256"
            },
            {
              "internalType": "uint256",
              "name": "borrowToken0ExchangePrice",
              "type": "uint256"
            },
            {
              "internalType": "uint256",
              "name": "supplyToken1ExchangePrice",
              "type": "uint256"
            },
            {
              "internalType": "uint256",
              "name": "borrowToken1ExchangePrice",
              "type": "uint256"
            }
          ],
          "internalType": "struct Structs.PricesAndExchangePrice",
          "name": "pex_",
          "type": "tuple"
        }
      ],
      "name": "FluidDexPricesAndExchangeRates",
      "type": "error"
    },
    {
      "inputs": [
        {
          "internalType": "uint256",
          "name": "tokenAmt",
          "type": "uint256"
        }
      ],
      "name": "FluidDexSingleTokenOutput",
      "type": "error"
    },
    {
      "inputs": [
        {
          "internalType": "uint256",
          "name": "amountOut",
          "type": "uint256"
        }
      ],
      "name": "FluidDexSwapResult",
      "type": "error"
    },
    {
      "anonymous": false,
      "inputs": [
        {
          "indexed": true,
          "internalType": "address",
          "name": "dex",
          "type": "address"
        },
        {
          "indexed": false,
          "internalType": "uint256",
          "name": "dexId",
          "type": "uint256"
        },
        {
          "indexed": true,
          "internalType": "address",
          "name": "supplyToken",
          "type": "address"
        },
        {
          "indexed": true,
          "internalType": "address",
          "name": "borrowToken",
          "type": "address"
        }
      ],
      "name": "DexT1Deployed",
      "type": "event"
    },
    {
      "inputs": [],
      "name": "ADDRESS_THIS",
      "outputs": [
        {
          "internalType": "address",
          "name": "",
          "type": "address"
        }
      ],
      "stateMutability": "view",
      "type": "function"
    },
    {
      "inputs": [],
      "name": "ADMIN_IMPLEMENTATION",
      "outputs": [
        {
          "internalType": "address",
          "name": "",
          "type": "address"
        }
      ],
      "stateMutability": "view",
      "type": "function"
    },
    {
      "inputs": [],
      "name": "CONTRACT_DEPLOYER",
      "outputs": [
        {
          "internalType": "address",
          "name": "",
          "type": "address"
        }
      ],
      "stateMutability": "view",
      "type": "function"
    },
    {
      "inputs": [],
      "name": "DEX_FACTORY",
      "outputs": [
        {
          "internalType": "address",
          "name": "",
          "type": "address"
        }
      ],
      "stateMutability": "view",
      "type": "function"
    },
    {
      "inputs": [],
      "name": "LIQUIDITY",
      "outputs": [
        {
          "internalType": "address",
          "name": "",
          "type": "address"
        }
      ],
      "stateMutability": "view",
      "type": "function"
    },
    {
      "inputs": [],
      "name": "MINI_DEPLOYER",
      "outputs": [
        {
          "internalType": "contract MiniDeployer",
          "name": "",
          "type": "address"
        }
      ],
      "stateMutability": "view",
      "type": "function"
    },
    {
      "inputs": [],
      "name": "SHIFT_IMPLEMENTATION",
      "outputs": [
        {
          "internalType": "address",
          "name": "",
          "type": "address"
        }
      ],
      "stateMutability": "view",
      "type": "function"
    },
    {
      "inputs": [],
      "name": "colOperationsCreationCode",
      "outputs": [
        {
          "internalType": "bytes",
          "name": "",
          "type": "bytes"
        }
      ],
      "stateMutability": "view",
      "type": "function"
    },
    {
      "inputs": [],
      "name": "debtOperationsCreationCode",
      "outputs": [
        {
          "internalType": "bytes",
          "name": "",
          "type": "bytes"
        }
      ],
      "stateMutability": "view",
      "type": "function"
    },
    {
      "inputs": [
        {
          "internalType": "address",
          "name": "token0_",
          "type": "address"
        },
        {
          "internalType": "address",
          "name": "token1_",
          "type": "address"
        },
        {
          "internalType": "uint256",
          "name": "oracleMapping_",
          "type": "uint256"
        }
      ],
      "name": "dexT1",
      "outputs": [
        {
          "internalType": "bytes",
          "name": "dexCreationBytecode_",
          "type": "bytes"
        }
      ],
      "stateMutability": "nonpayable",
      "type": "function"
    },
    {
      "inputs": [],
      "name": "dexT1CreationBytecode",
      "outputs": [
        {
          "internalType": "bytes",
          "name": "",
          "type": "bytes"
        }
      ],
      "stateMutability": "view",
      "type": "function"
    },
    {
      "inputs": [],
      "name": "perfectOperationsCreationCode",
      "outputs": [
        {
          "internalType": "bytes",
          "name": "",
          "type": "bytes"
        }
      ],
      "stateMutability": "view",
      "type": "function"
    }
  ],
  "transactionHash": "0xf6650920eec15364e34211b78d58600e1175b6d31948274f936c32509aa87e9f",
  "args": [
    "0x52Aa899454998Be5b000Ad077a46Bbe360F4e497",
    "0x93DD426446B5370F094a1e31f19991AAA6Ac0bE0",
    "0x4EC7b668BAF70d4A4b0FC7941a7708A07b6d45Be",
    "0x4a5a27901DBb1D6A976ad60692BF030d10435e08",
    "0x5aB54297FbAf4d0f00538ef53b28c12A1F9CC470",
    "0xA5bddbf162E813486191e80bF0214E33d3309E93",
    "0x09D499DF1Ac683C797c0ca84E6B73B8684d637d7",
    "0xD029B6d3fe0d45cdcda2Bc1aB7095a0457EBFf5D"
  ],
  "numDeployments": 1,
  "solcInputHash": "1a08335383273de1f427bde4902bf5fa",
  "bytecode": "0x6102006040523480156200001257600080fd5b50604051620070e0380380620070e08339810160408190526200003591620001a6565b6001600160a01b03808916610120528781166101408190528782166101a05283821660805290821660a052306101e05260405162000073906200015f565b6001600160a01b039091168152602001604051809103906000f080158015620000a0573d6000803e3d6000fd5b506001600160a01b03166101c052604051600090620000bf906200016d565b604051809103906000f080158015620000dc573d6000803e3d6000fd5b506001600160a01b038116610160526101a05160405191925060009162000103906200017b565b6001600160a01b039091168152602001604051809103906000f08015801562000130573d6000803e3d6000fd5b506001600160a01b039081166101805296871660c0525050505090821660e0521661010052506200024e915050565b6104f480620014f583390190565b614a0a80620019e983390190565b610ced80620063f383390190565b80516001600160a01b0381168114620001a157600080fd5b919050565b600080600080600080600080610100898b031215620001c457600080fd5b620001cf8962000189565b9750620001df60208a0162000189565b9650620001ef60408a0162000189565b9550620001ff60608a0162000189565b94506200020f60808a0162000189565b93506200021f60a08a0162000189565b92506200022f60c08a0162000189565b91506200023f60e08a0162000189565b90509295985092959890939650565b60805160a05160c05160e05161010051610120516101405161016051610180516101a0516101c0516101e0516111de62000317600039600081816101f0015261034f01526000818161016b015281816106df015281816107e201526108e5015260008181610192015261059601526000818161014401526105710152600081816102170152610a00015260006101b901526000818160de0152610537015260006102e701526000610312015260006102bc015260006102870152600061025e01526111de6000f3fe608060405234801561001057600080fd5b50600436106100d45760003560e01c8063c758ec5611610081578063cc2fe94b1161005b578063cc2fe94b14610212578063d71f047014610239578063da3d57cb1461024157600080fd5b8063c758ec56146101db578063c995fa7a146101e3578063cc025f7c146101eb57600080fd5b80638cb1b071116100b25780638cb1b071146101665780639603fd271461018d57806397b87b4a146101b457600080fd5b80632861c7d1146100d95780635d5b87e01461012a5780637f2f809e1461013f575b600080fd5b6101007f000000000000000000000000000000000000000000000000000000000000000081565b60405173ffffffffffffffffffffffffffffffffffffffff90911681526020015b60405180910390f35b610132610254565b6040516101219190610eb9565b6101007f000000000000000000000000000000000000000000000000000000000000000081565b6101007f000000000000000000000000000000000000000000000000000000000000000081565b6101007f000000000000000000000000000000000000000000000000000000000000000081565b6101007f000000000000000000000000000000000000000000000000000000000000000081565b6101326102b5565b6101326102e0565b6101007f000000000000000000000000000000000000000000000000000000000000000081565b6101007f000000000000000000000000000000000000000000000000000000000000000081565b61013261030b565b61013261024f366004610f2f565b610336565b60606102b06102827f0000000000000000000000000000000000000000000000000000000000000000610b3f565b6102ab7f0000000000000000000000000000000000000000000000000000000000000000610b3f565b610b73565b905090565b60606102b07f0000000000000000000000000000000000000000000000000000000000000000610b3f565b60606102b07f0000000000000000000000000000000000000000000000000000000000000000610b3f565b60606102b07f0000000000000000000000000000000000000000000000000000000000000000610b3f565b606073ffffffffffffffffffffffffffffffffffffffff7f00000000000000000000000000000000000000000000000000000000000000001630036103b0576040517f2fee3e0e00000000000000000000000000000000000000000000000000000000815261c35660048201526024015b60405180910390fd5b8273ffffffffffffffffffffffffffffffffffffffff168473ffffffffffffffffffffffffffffffffffffffff1603610419576040517f2fee3e0e00000000000000000000000000000000000000000000000000000000815261c35360048201526024016103a7565b8273ffffffffffffffffffffffffffffffffffffffff168473ffffffffffffffffffffffffffffffffffffffff161115610483576040517f2fee3e0e00000000000000000000000000000000000000000000000000000000815261c35460048201526024016103a7565b610520604080516101c08101825260008082526020808301829052828401829052835160a08101855282815290810182905292830181905260608381018290526080840191909152909190820190815260006020820181905260408201819052606082018190526080820181905260a0820181905260c0820181905260e08201819052610100820181905261012082018190526101409091015290565b73ffffffffffffffffffffffffffffffffffffffff7f0000000000000000000000000000000000000000000000000000000000000000811660208084019190915230604080850182905260608501517f0000000000000000000000000000000000000000000000000000000000000000851690527f00000000000000000000000000000000000000000000000000000000000000008416608086015288841660a086015292871660c085015282517f93656c17000000000000000000000000000000000000000000000000000000008152925190926393656c179260048083019391928290030181865afa15801561061c573d6000803e3d6000fd5b505050506040513d601f19601f820116820180604052508101906106409190610f70565b8082526101a082018490526040517f12e366aa00000000000000000000000000000000000000000000000000000000815260009130916312e366aa9161068c9160040190815260200190565b602060405180830381865afa1580156106a9573d6000803e3d6000fd5b505050506040513d601f19601f820116820180604052508101906106cd9190610f89565b90506106d98282610beb565b915060007f000000000000000000000000000000000000000000000000000000000000000073ffffffffffffffffffffffffffffffffffffffff1663798133dd6107216102e0565b856040516020016107329190610fad565b604080517fffffffffffffffffffffffffffffffffffffffffffffffffffffffffffffffe08184030181529082905261076e929160200161113f565b6040516020818303038152906040526040518263ffffffff1660e01b81526004016107999190610eb9565b6020604051808303816000875af11580156107b8573d6000803e3d6000fd5b505050506040513d601f19601f820116820180604052508101906107dc9190610f89565b905060007f000000000000000000000000000000000000000000000000000000000000000073ffffffffffffffffffffffffffffffffffffffff1663798133dd6108246102b5565b866040516020016108359190610fad565b604080517fffffffffffffffffffffffffffffffffffffffffffffffffffffffffffffffe081840301815290829052610871929160200161113f565b6040516020818303038152906040526040518263ffffffff1660e01b815260040161089c9190610eb9565b6020604051808303816000875af11580156108bb573d6000803e3d6000fd5b505050506040513d601f19601f820116820180604052508101906108df9190610f89565b905060007f000000000000000000000000000000000000000000000000000000000000000073ffffffffffffffffffffffffffffffffffffffff1663798133dd61092761030b565b876040516020016109389190610fad565b604080517fffffffffffffffffffffffffffffffffffffffffffffffffffffffffffffffe081840301815290829052610974929160200161113f565b6040516020818303038152906040526040518263ffffffff1660e01b815260040161099f9190610eb9565b6020604051808303816000875af11580156109be573d6000803e3d6000fd5b505050506040513d601f19601f820116820180604052508101906109e29190610f89565b6060808701805173ffffffffffffffffffffffffffffffffffffffff7f00000000000000000000000000000000000000000000000000000000000000008116602090920191909152815187821660809091015281518682166040919091015290519083169101529050610a53610254565b85604051602001610a649190610fad565b604080517fffffffffffffffffffffffffffffffffffffffffffffffffffffffffffffffe081840301815290829052610aa0929160200161113f565b60405160208183030381529060405295508773ffffffffffffffffffffffffffffffffffffffff168973ffffffffffffffffffffffffffffffffffffffff168573ffffffffffffffffffffffffffffffffffffffff167f3fecd5f7aca6136a20a999e7d11ff5dcea4bd675cb125f93ccd7d53f98ec57e48860000151604051610b2b91815260200190565b60405180910390a450505050509392505050565b6060610b6d826001610b688173ffffffffffffffffffffffffffffffffffffffff84163b61116e565b610e54565b92915050565b60606040519050825180825260208201818101602086015b81831015610ba3578051835260209283019201610b8b565b50845184518101855292509050808201602085015b81831015610bd0578051835260209283019201610bb8565b50601f19601f87518501158301011660405250505092915050565b610c88604080516101c08101825260008082526020808301829052828401829052835160a08101855282815290810182905292830181905260608381018290526080840191909152909190820190815260006020820181905260408201819052606082018190526080820181905260a0820181905260c0820181905260e08201819052610100820181905261012082018190526101409091015290565b5060a082810180516040805173ffffffffffffffffffffffffffffffffffffffff9586166020808301829052600883850181905284518085038601815260608086018752815191840191909120968a16608080870191909152858a019790975285518086038a01815260c0958601875280519084012060e08c015287518651808501869052600981890181905288518083038a0181528285018a52805190870120928d16828b0152818c019290925287518082038c01815290870188528051908501206101008d0152858c0180518851808701889052808a019590955288518086038a0181528585018a52805190870120908d16858b0152848c015287518085038c01815293870188528351938501939093206101208d01528251875180860196909652858801919091528651808603880181528583018852805190850120908b1697850197909752838901969096528451808403909801885291909201835285519582019590952061014088015292518151908616818501526005818301819052825180830384018152918401835281519185019190912061016088015293518151951685840152848101939093528251808503840181529301909152815191012061018082015290565b60408051603f83017fffffffffffffffffffffffffffffffffffffffffffffffffffffffffffffffe0168101909152818152818360208301863c9392505050565b60005b83811015610eb0578181015183820152602001610e98565b50506000910152565b6020815260008251806020840152610ed8816040850160208701610e95565b601f017fffffffffffffffffffffffffffffffffffffffffffffffffffffffffffffffe0169190910160400192915050565b73ffffffffffffffffffffffffffffffffffffffff81168114610f2c57600080fd5b50565b600080600060608486031215610f4457600080fd5b8335610f4f81610f0a565b92506020840135610f5f81610f0a565b929592945050506040919091013590565b600060208284031215610f8257600080fd5b5051919050565b600060208284031215610f9b57600080fd5b8151610fa681610f0a565b9392505050565b81518152602080830151610240830191610fde9084018273ffffffffffffffffffffffffffffffffffffffff169052565b506040830151611006604084018273ffffffffffffffffffffffffffffffffffffffff169052565b506060830151611064606084018273ffffffffffffffffffffffffffffffffffffffff808251168352806020830151166020840152806040830151166040840152806060830151166060840152806080830151166080840152505050565b50608083015161010061108e8185018373ffffffffffffffffffffffffffffffffffffffff169052565b60a085015191506101206110b98186018473ffffffffffffffffffffffffffffffffffffffff169052565b60c086015192506101406110e48187018573ffffffffffffffffffffffffffffffffffffffff169052565b60e0870151610160878101919091529287015161018080880191909152918701516101a080880191909152908701516101c0870152918601516101e08601528501516102008501529093015161022090920191909152919050565b60008351611151818460208801610e95565b835190830190611165818360208801610e95565b01949350505050565b81810381811115610b6d577f4e487b7100000000000000000000000000000000000000000000000000000000600052601160045260246000fdfea2646970667358221220585da3d1c1bfc1dc58ae9a7d6d0e76c6c15e66fa855fdb0162a767e80c46d33d64736f6c63430008150033608060405234801561001057600080fd5b506040516104f43803806104f483398101604081905261002f9161007e565b600080546001600160a01b0319166001600160a01b03831690811782556040518392907f8be0079c531659141344cd1fd0a4f28419497f9722a3daafe3b4186f6b6457e0908290a350506100ae565b60006020828403121561009057600080fd5b81516001600160a01b03811681146100a757600080fd5b9392505050565b610437806100bd6000396000f3fe608060405234801561001057600080fd5b50600436106100415760003560e01c8063798133dd146100465780638da5cb5b14610082578063f2fde38b146100a2575b600080fd5b610059610054366004610352565b6100b7565b60405173ffffffffffffffffffffffffffffffffffffffff909116815260200160405180910390f35b6000546100599073ffffffffffffffffffffffffffffffffffffffff1681565b6100b56100b03660046103c4565b6101c7565b005b6000805473ffffffffffffffffffffffffffffffffffffffff16331461013e576040517f08c379a000000000000000000000000000000000000000000000000000000000815260206004820152600c60248201527f554e415554484f52495a4544000000000000000000000000000000000000000060448201526064015b60405180910390fd5b61017d83838080601f0160208091040260200160405190810160405280939291908181526020018383808284376000920191909152506102b892505050565b60405190915073ffffffffffffffffffffffffffffffffffffffff8216907ff40020e78c6e173ba88aa2c344ed520fab87fe67b9e5aa34626af9d86a3cd47b90600090a292915050565b60005473ffffffffffffffffffffffffffffffffffffffff163314610248576040517f08c379a000000000000000000000000000000000000000000000000000000000815260206004820152600c60248201527f554e415554484f52495a454400000000000000000000000000000000000000006044820152606401610135565b600080547fffffffffffffffffffffffff00000000000000000000000000000000000000001673ffffffffffffffffffffffffffffffffffffffff83169081178255604051909133917f8be0079c531659141344cd1fd0a4f28419497f9722a3daafe3b4186f6b6457e09190a350565b600081516000036102f5576040517f830297c900000000000000000000000000000000000000000000000000000000815260040160405180910390fd5b8151602083016000f0905073ffffffffffffffffffffffffffffffffffffffff811661034d576040517f830297c900000000000000000000000000000000000000000000000000000000815260040160405180910390fd5b919050565b6000806020838503121561036557600080fd5b823567ffffffffffffffff8082111561037d57600080fd5b818501915085601f83011261039157600080fd5b8135818111156103a057600080fd5b8660208285010111156103b257600080fd5b60209290920196919550909350505050565b6000602082840312156103d657600080fd5b813573ffffffffffffffffffffffffffffffffffffffff811681146103fa57600080fd5b939250505056fea2646970667358221220af536c9afad3ba8d61e4562d1c33e55496e94a329eeae2c137be91332db73f0164736f6c6343000815003360a060405234801561001057600080fd5b50306080526080516149636100a7600039600081816103eb015281816105e6015281816109d301528181610b6201528181610e3601528181611088015281816116040152818161175101528181611861015281816119af01528181611b9b01528181611e27015281816120a7015281816121fb015281816123b4015281816127cf01528181612a2a0152612c2501526149636000f3fe6080604052600436106101445760003560e01c8063999c1446116100c0578063b5c736e411610074578063e53b201711610059578063e53b20171461032c578063e552a1e31461034c578063fbfe2dac1461036c57600080fd5b8063b5c736e4146102db578063ba9af1e31461030c57600080fd5b8063a71e4958116100a5578063a71e49581461027b578063a9a362da1461029b578063b4e1e032146102bb57600080fd5b8063999c14461461023b578063a295521c1461025b57600080fd5b806353a97b41116101175780636552d966116100fc5780636552d966146101fe57806374f04a361461021357806382df16521461022657600080fd5b806353a97b41146101cb5780635cbbba28146101eb57600080fd5b8063021f4f451461014957806326fda0b61461016b5780632af693771461018b57806346887549146101ab575b600080fd5b34801561015557600080fd5b50610169610164366004613e46565b61038c565b005b34801561017757600080fd5b50610169610186366004613fb7565b61058c565b34801561019757600080fd5b506101696101a636600461408f565b610979565b3480156101b757600080fd5b506101696101c63660046140c6565b610b4b565b3480156101d757600080fd5b506101696101e636600461410b565b610ddc565b6101696101f9366004614137565b611071565b34801561020a57600080fd5b506101696115ed565b610169610221366004613e46565b6116f7565b34801561023257600080fd5b5061016961184a565b34801561024757600080fd5b5061016961025636600461408f565b611955565b34801561026757600080fd5b5061016961027636600461420b565b611b41565b34801561028757600080fd5b5061016961029636600461423d565b611dcd565b3480156102a757600080fd5b506101696102b6366004613e46565b61204d565b3480156102c757600080fd5b506101696102d636600461408f565b6121a1565b3480156102e757600080fd5b506102fa6102f6366004613e46565b5490565b60405190815260200160405180910390f35b34801561031857600080fd5b50610169610327366004614269565b61235a565b34801561033857600080fd5b50610169610347366004614344565b6127b8565b34801561035857600080fd5b5061016961036736600461410b565b6129d0565b34801561037857600080fd5b506101696103873660046140c6565b612c0e565b6007600154166000036103d4576040517f2fee3e0e00000000000000000000000000000000000000000000000000000000815261cb2160048201526024015b60405180910390fd5b73ffffffffffffffffffffffffffffffffffffffff7f0000000000000000000000000000000000000000000000000000000000000000163003610447576040517f2fee3e0e00000000000000000000000000000000000000000000000000000000815261cb2860048201526024016103cb565b633fffffff811115610489576040517f2fee3e0e00000000000000000000000000000000000000000000000000000000815261cb2460048201526024016103cb565b80156105215760003073ffffffffffffffffffffffffffffffffffffffff1663b7791bf26040518163ffffffff1660e01b815260040161024060405180830381865afa1580156104dd573d6000803e3d6000fd5b505050506040513d601f19601f8201168201806040525081019061050191906143ee565b90506000610513826080015184612ed3565b905061051e8161333f565b50505b600180547ffffffffffffffffffffff00000003fffffffffffffffffffffffffffffffffff16608e83901b1790556040517f94102a9d6162476c3137d9fd67d61facaaa3948cf6bf84ee18357a1d5b8c8d67906105819083815260200190565b60405180910390a150565b6007600154166000036105cf576040517f2fee3e0e00000000000000000000000000000000000000000000000000000000815261cb2160048201526024016103cb565b73ffffffffffffffffffffffffffffffffffffffff7f0000000000000000000000000000000000000000000000000000000000000000163003610642576040517f2fee3e0e00000000000000000000000000000000000000000000000000000000815261cb2860048201526024016103cb565b6000805b825181101561093d57610675838281518110610664576106646144d5565b60200260200101516000015161333f565b828181518110610687576106876144d5565b6020026020010151604001516000036106d0576040517f2fee3e0e00000000000000000000000000000000000000000000000000000000815261cb2660048201526024016103cb565b6127108382815181106106e5576106e56144d5565b602002602001015160200151111561072d576040517f2fee3e0e00000000000000000000000000000000000000000000000000000000815261cb2460048201526024016103cb565b62ffffff838281518110610743576107436144d5565b602002602001015160400151111561078b576040517f2fee3e0e00000000000000000000000000000000000000000000000000000000815261cb2460048201526024016103cb565b82818151811061079d5761079d6144d5565b6020026020010151606001516000036107e6576040517f2fee3e0e00000000000000000000000000000000000000000000000000000000815261cb2660048201526024016103cb565b600360008483815181106107fc576107fc6144d5565b60200260200101516000015173ffffffffffffffffffffffffffffffffffffffff1673ffffffffffffffffffffffffffffffffffffffff16815260200190815260200160002054915060c861087e600a60086000878681518110610862576108626144d5565b602002602001015160600151613397909392919063ffffffff16565b901b60b0848381518110610894576108946144d5565b602002602001015160400151901b60a28584815181106108b6576108b66144d5565b602002602001015160200151901b847ffffffffffc00000000000003ffffffffffffffffffffffffffffffffffffffff1660011717171760036000858481518110610903576109036144d5565b6020908102919091018101515173ffffffffffffffffffffffffffffffffffffffff16825281019190915260400160002055600101610646565b507fd680117828f16ca739150617fc61e326f97e4d9581d61b58992153b92c74fc738260405161096d9190614504565b60405180910390a15050565b6007600154166000036109bc576040517f2fee3e0e00000000000000000000000000000000000000000000000000000000815261cb2160048201526024016103cb565b73ffffffffffffffffffffffffffffffffffffffff7f0000000000000000000000000000000000000000000000000000000000000000163003610a2f576040517f2fee3e0e00000000000000000000000000000000000000000000000000000000815261cb2860048201526024016103cb565b8015801590610a3f575061271081105b15610a7a576040517f2fee3e0e00000000000000000000000000000000000000000000000000000000815261cb2660048201526024016103cb565b610a86612710826145ad565b9050620186a0821180610a995750606481115b15610ad4576040517f2fee3e0e00000000000000000000000000000000000000000000000000000000815261cb2460048201526024016103cb565b600180547ffffffffffffffffffffffffffffffffffffffffffffffffffffffffffc00000316600284901b17601383901b1790557f8708c2a2bbba04e8e9c7448cd64dc109b367341f5504a9835ffb5e7d9ae08ef682610b36612710846145e8565b6040805192835260208301919091520161096d565b73ffffffffffffffffffffffffffffffffffffffff7f0000000000000000000000000000000000000000000000000000000000000000163003610bbe576040517f2fee3e0e00000000000000000000000000000000000000000000000000000000815261cb2860048201526024016103cb565b610bc78361333f565b60008215610ca1575073ffffffffffffffffffffffffffffffffffffffff831660009081526003602052604081205490819003610c34576040517f2fee3e0e00000000000000000000000000000000000000000000000000000000815261cb2760048201526024016103cb565b80600116600103610c75576040517f2fee3e0e00000000000000000000000000000000000000000000000000000000815261cb2960048201526024016103cb565b73ffffffffffffffffffffffffffffffffffffffff841660009081526003602052604090206001821790555b8115610d79575073ffffffffffffffffffffffffffffffffffffffff831660009081526005602052604081205490819003610d0c576040517f2fee3e0e00000000000000000000000000000000000000000000000000000000815261cb2760048201526024016103cb565b80600116600103610d4d576040517f2fee3e0e00000000000000000000000000000000000000000000000000000000815261cb2960048201526024016103cb565b73ffffffffffffffffffffffffffffffffffffffff841660009081526005602052604090206001821790555b6040805173ffffffffffffffffffffffffffffffffffffffff861681528415156020820152831515918101919091527faf3eea5162d915eca532881ca41e1a5292bda2947fe94711cad3b4bb260b57f0906060015b60405180910390a150505050565b600760015416600003610e1f576040517f2fee3e0e00000000000000000000000000000000000000000000000000000000815261cb2160048201526024016103cb565b73ffffffffffffffffffffffffffffffffffffffff7f0000000000000000000000000000000000000000000000000000000000000000163003610e92576040517f2fee3e0e00000000000000000000000000000000000000000000000000000000815261cb2860048201526024016103cb565b633fffffff831180610ea2575081155b80610eaf5750620fffff82115b80610eb8575080155b80610ec55750620fffff81115b15610f00576040517f2fee3e0e00000000000000000000000000000000000000000000000000000000815261cb2460048201526024016103cb565b8215610ffc5760003073ffffffffffffffffffffffffffffffffffffffff1663b7791bf26040518163ffffffff1660e01b815260040161024060405180830381865afa158015610f54573d6000803e3d6000fd5b505050506040513d601f19601f82011682018060405250810190610f7891906143ee565b90506000610f8a826080015186612ed3565b9050610f958161333f565b5050600180547ffeffffffffffffffffffffffffffc0000000ffffffffffffffffffffffffffff16607085901b177f010000000000000000000000000000000000000000000000000000000000000017905542602183901b17603582901b1760085561102a565b600180547ffeffffffffffffffffffffffffffc0000000ffffffffffffffffffffffffffff16905560006008555b60408051848152602081018490529081018290527f06020920d3b0c76370853b723475139901039a0e0d8a2b442b2fc50587a80475906060015b60405180910390a1505050565b73ffffffffffffffffffffffffffffffffffffffff7f00000000000000000000000000000000000000000000000000000000000000001630036110e4576040517f2fee3e0e00000000000000000000000000000000000000000000000000000000815261cb2860048201526024016103cb565b611101734f6f977acdd1177dcd81ab83074855ecb9c2d49e61333f565b80518061110f575080604001515b611149576040517f2fee3e0e00000000000000000000000000000000000000000000000000000000815261cb2660048201526024016103cb565b60c08101511580159061116157506127108160c00151105b1561119c576040517f2fee3e0e00000000000000000000000000000000000000000000000000000000815261cb2660048201526024016103cb565b6127108160c001516111ae91906145ad565b60c08201526101208101516111c6906103e8906145ad565b6101208201526101408101516111df906103e8906145ad565b61014082015260a0810151620186a010806111fe575060648160c00151115b8061121a5750611213612710620f42406145ff565b8160e00151115b80611237575061122f612710620f42406145ff565b816101000151115b80611244575060e0810151155b806112525750610100810151155b8061126357506103e8816101200151115b8061127457506103e8816101400151115b806112825750610120810151155b806112905750610140810151155b8061129e5750610160810151155b806112b0575062ffffff816101600151115b806112c35750633fffffff816101800151115b806112d65750633fffffff816101a00151115b806112ea5750806101e00151816080015111155b806112fe5750806101c00151816080015110155b8061130c57506101e0810151155b15611347576040517f2fee3e0e00000000000000000000000000000000000000000000000000000000815261cb2460048201526024016103cb565b80516000901561136757611363826020015183608001516134c0565b6001175b81604001511561138757611383826060015183608001516139ce565b6002175b608082015161139b90602060086000613397565b6080830181905276070000f000000000000000000000000000000000000000600182901b602983901b1760519290921b919091174260791b171760009081556101e08301517efa000000000000000000000000000000000000000000000000000000000000917d3e80000000000000000000000000000000000000000000000000000000009160c8916114349190601490600890613397565b6101c0860151911b9060ac9061144f90601460086001613397565b901b608e866101a00151901b6070876101800151901b6058886101600151901b604e896101400151901b60448a6101200151901b602f8b6101000151901b601b8c60e00151901b60138d60c00151901b60028e60a00151901b8d171717171717171717171717176001819055507fa2bd88124c6cef5f905c8de83ae31b7495469be7a44f0a14ec766e4f2926b9e482600001518360400151846020015185606001518660a001516127108860c0015161150891906145e8565b6101808901516101a08a01516040805198151589529615156020890152958701949094526060860192909252608085015260a084015260c083015260e08201526101000160405180910390a17f4df8f1fe60aa37610aa9a5f2958b11c634c2b231797213ea15069cd214bfb7888260e001518361010001516103e885610120015161159391906145e8565b6103e88661014001516115a691906145e8565b6101608701516101c08801516101e0890151604080519788526020880196909652948601939093526060850191909152608084015260a083015260c082015260e00161096d565b73ffffffffffffffffffffffffffffffffffffffff7f0000000000000000000000000000000000000000000000000000000000000000163003611660576040517f2fee3e0e00000000000000000000000000000000000000000000000000000000815261cb2860048201526024016103cb565b60015460ff81901c6000036116a5576040517f2fee3e0e00000000000000000000000000000000000000000000000000000000815261cb2660048201526024016103cb565b7f7fffffffffffffffffffffffffffffffffffffffffffffffffffffffffffffff81166001556040517f665227fdef5dd5aac81086c2301f0e50676c351cf8da0f456de2c2c3e16409de90600090a150565b60076001541660000361173a576040517f2fee3e0e00000000000000000000000000000000000000000000000000000000815261cb2160048201526024016103cb565b73ffffffffffffffffffffffffffffffffffffffff7f00000000000000000000000000000000000000000000000000000000000000001630036117ad576040517f2fee3e0e00000000000000000000000000000000000000000000000000000000815261cb2860048201526024016103cb565b6001546001166001036117f0576040517f2fee3e0e00000000000000000000000000000000000000000000000000000000815261cb2260048201526024016103cb565b600054605981901c63ffffffff1660519190911c60ff161b61181282826134c0565b60018054811790556040518281527fa56b37b3edf9e1379ca408e58c1d4d85d03aa751c1dd8b76fa9813bfb2f9793d9060200161096d565b73ffffffffffffffffffffffffffffffffffffffff7f00000000000000000000000000000000000000000000000000000000000000001630036118bd576040517f2fee3e0e00000000000000000000000000000000000000000000000000000000815261cb2860048201526024016103cb565b600180549060ff82901c9003611903576040517f2fee3e0e00000000000000000000000000000000000000000000000000000000815261cb2660048201526024016103cb565b7f800000000000000000000000000000000000000000000000000000000000000081176001556040517f84039da4130b96ef0fa0fffa1bb1306c814913702f63ede2d1cbcdfa43fc67d690600090a150565b600760015416600003611998576040517f2fee3e0e00000000000000000000000000000000000000000000000000000000815261cb2160048201526024016103cb565b73ffffffffffffffffffffffffffffffffffffffff7f0000000000000000000000000000000000000000000000000000000000000000163003611a0b576040517f2fee3e0e00000000000000000000000000000000000000000000000000000000815261cb2860048201526024016103cb565b8115801590611a1b57506103e882105b80611a3157508015801590611a3157506103e881105b15611a6c576040517f2fee3e0e00000000000000000000000000000000000000000000000000000000815261cb2660048201526024016103cb565b611a786103e8836145ad565b9150611a866103e8826145ad565b90506103e8821180611a9957506103e881115b15611ad4576040517f2fee3e0e00000000000000000000000000000000000000000000000000000000815261cb2460048201526024016103cb565b600180547fff00000fffffffffffffffffffffffffffffffffffffffffffffffffffffffff1660e484901b1760ee83901b1790557f6d66190870f5a401bd2f24056c4f721a7a9e522501ea222a140bbc2debd302cd611b356103e8846145e8565b610b366103e8846145e8565b600760015416600003611b84576040517f2fee3e0e00000000000000000000000000000000000000000000000000000000815261cb2160048201526024016103cb565b73ffffffffffffffffffffffffffffffffffffffff7f0000000000000000000000000000000000000000000000000000000000000000163003611bf7576040517f2fee3e0e00000000000000000000000000000000000000000000000000000000815261cb2860048201526024016103cb565b600154611c066103e8866145ad565b9450611c146103e8856145ad565b93506103e8851180611c2757506103e884115b80611c30575082155b80611c3d575062ffffff83115b80611c46575084155b80611c4f575083155b80611c5c5750620fffff82115b80611c6e5750604381901c6001166001145b15611ca9576040517f2fee3e0e00000000000000000000000000000000000000000000000000000000815261cb2460048201526024016103cb565b605883901b604e85901b604487901b604360008611611cc9576000611ccc565b60015b60ff16901b7fffffffffffffffffffffffffffffffffffff000000000007ffffffffffffffff8516171717176001556103ff604482901c811690604e83901c1662ffffff605884901c168415611d6457600780546fffffffffffffffffffffffffffffffff601485901b8617602889901b1742603c1b17605d85901b1781167001000000000000000000000000000000000291161790555b7fdb32664896dae5696540e472ef73d084b10faf79a5560470bd88d34daee92401611d916103e88a6145e8565b611d9d6103e88a6145e8565b60408051928352602083019190915281018890526060810187905260800160405180910390a15050505050505050565b600760015416600003611e10576040517f2fee3e0e00000000000000000000000000000000000000000000000000000000815261cb2160048201526024016103cb565b73ffffffffffffffffffffffffffffffffffffffff7f0000000000000000000000000000000000000000000000000000000000000000163003611e83576040517f2fee3e0e00000000000000000000000000000000000000000000000000000000815261cb2860048201526024016103cb565b611e8c8261333f565b73ffffffffffffffffffffffffffffffffffffffff821660009081526003602052604081205490819003611ef0576040517f2fee3e0e00000000000000000000000000000000000000000000000000000000815261cb2760048201526024016103cb565b66ffffffffffffff600982901c1660ff600183901c161b60a282901c613fff16612710611f1d82846145e8565b611f2791906145ad565b611f3190836145ff565b9050831580611f3f57508084105b15611f4c57809350611f82565b7fffffffffffffffffffffffffffffffffffffffffffffffffffffffffffffffff841480611f7957508184115b15611f82578193505b6103ff60d084901c1660ff60c885901c161b80831015611fa157600094505b4260811b6041611fb687603860086000613397565b73ffffffffffffffffffffffffffffffffffffffff89166000818152600360209081526040918290209390941b7ffffffffffffffffffffffffc000000000000000000000001ffffffffffffffff8a16179490941790915582519081529081018790527fa0174ec7e13de1c5954dd270d67dafceaddc2e7c685d5dada0015b8bb51fb2d891015b60405180910390a1505050505050565b600760015416600003612090576040517f2fee3e0e00000000000000000000000000000000000000000000000000000000815261cb2160048201526024016103cb565b73ffffffffffffffffffffffffffffffffffffffff7f0000000000000000000000000000000000000000000000000000000000000000163003612103576040517f2fee3e0e00000000000000000000000000000000000000000000000000000000815261cb2860048201526024016103cb565b600154600216600203612146576040517f2fee3e0e00000000000000000000000000000000000000000000000000000000815261cb2360048201526024016103cb565b600054605981901c63ffffffff1660519190911c60ff161b61216882826139ce565b6001805460021790556040518281527f171ddc092d7f435025cb4835ca5827641260e8f2d37ffc48aca4836509b79d509060200161096d565b6007600154166000036121e4576040517f2fee3e0e00000000000000000000000000000000000000000000000000000000815261cb2160048201526024016103cb565b73ffffffffffffffffffffffffffffffffffffffff7f0000000000000000000000000000000000000000000000000000000000000000163003612257576040517f2fee3e0e00000000000000000000000000000000000000000000000000000000815261cb2860048201526024016103cb565b600054605981901c63ffffffff1660519190911c60ff161b818311158061227e5750818111155b806122895750828110155b80612292575081155b156122cd576040517f2fee3e0e00000000000000000000000000000000000000000000000000000000815261cb2660048201526024016103cb565b60c86122de83601460086000613397565b901b60ac6122f185601460086001613397565b901b6001547ffffffff00000000000000fffffffffffffffffffffffffffffffffffffffffff1617176001819055507fd4436251a5b52c21c680a58a0c189dad238e3150aaa2848762b76807e000d0d68383604051611064929190918252602082015260400190565b60076001541660000361239d576040517f2fee3e0e00000000000000000000000000000000000000000000000000000000815261cb2160048201526024016103cb565b73ffffffffffffffffffffffffffffffffffffffff7f0000000000000000000000000000000000000000000000000000000000000000163003612410576040517f2fee3e0e00000000000000000000000000000000000000000000000000000000815261cb2860048201526024016103cb565b6000805b825181101561278857612432838281518110610664576106646144d5565b828181518110612444576124446144d5565b602002602001015160800151838281518110612462576124626144d5565b60200260200101516060015111806124975750828181518110612487576124876144d5565b6020026020010151604001516000145b156124d2576040517f2fee3e0e00000000000000000000000000000000000000000000000000000000815261cb2660048201526024016103cb565b613fff8382815181106124e7576124e76144d5565b602002602001015160200151111561252f576040517f2fee3e0e00000000000000000000000000000000000000000000000000000000815261cb2460048201526024016103cb565b62ffffff838281518110612545576125456144d5565b602002602001015160400151111561258d576040517f2fee3e0e00000000000000000000000000000000000000000000000000000000815261cb2460048201526024016103cb565b82818151811061259f5761259f6144d5565b602002602001015160600151600014806125d657508281815181106125c6576125c66144d5565b6020026020010151608001516000145b15612611576040517f2fee3e0e00000000000000000000000000000000000000000000000000000000815261cb2660048201526024016103cb565b60056000848381518110612627576126276144d5565b60200260200101516000015173ffffffffffffffffffffffffffffffffffffffff1673ffffffffffffffffffffffffffffffffffffffff16815260200190815260200160002054915060da6126a9600a6008600087868151811061268d5761268d6144d5565b602002602001015160800151613397909392919063ffffffff16565b901b60c86126c8600a60086000888781518110610862576108626144d5565b901b60b08584815181106126de576126de6144d5565b602002602001015160400151901b60a2868581518110612700576127006144d5565b602002602001015160200151901b857ffffff0000000000000000003ffffffffffffffffffffffffffffffffffffffff16600117171717176005600085848151811061274e5761274e6144d5565b6020908102919091018101515173ffffffffffffffffffffffffffffffffffffffff16825281019190915260400160002055600101612414565b507fce933896f6e8c2a05b92cd7f854cd82e69ada9e533cf438643d5d3a7ac9cba9d8260405161096d9190614612565b73ffffffffffffffffffffffffffffffffffffffff7f000000000000000000000000000000000000000000000000000000000000000016300361282b576040517f2fee3e0e00000000000000000000000000000000000000000000000000000000815261cb2860048201526024016103cb565b60003073ffffffffffffffffffffffffffffffffffffffff1663b7791bf26040518163ffffffff1660e01b815260040161024060405180830381865afa158015612879573d6000803e3d6000fd5b505050506040513d601f19601f8201168201806040525081019061289d91906143ee565b6020015190507fffffffffffffffffffffffff111111111111111111111111111111111111111273ffffffffffffffffffffffffffffffffffffffff8316016128ef576128ea8147613d4d565b61298a565b6040517f70a0823100000000000000000000000000000000000000000000000000000000815230600482015261298a908390839073ffffffffffffffffffffffffffffffffffffffff8316906370a0823190602401602060405180830381865afa158015612961573d6000803e3d6000fd5b505050506040513d601f19601f820116820180604052508101906129859190614689565b613d9c565b60405173ffffffffffffffffffffffffffffffffffffffff831681527fdff2a3947bcf9fc0807b142e7c8497066db9183428b7bdbfb1fcd0f55c27a3df9060200161096d565b600760015416600003612a13576040517f2fee3e0e00000000000000000000000000000000000000000000000000000000815261cb2160048201526024016103cb565b73ffffffffffffffffffffffffffffffffffffffff7f0000000000000000000000000000000000000000000000000000000000000000163003612a86576040517f2fee3e0e00000000000000000000000000000000000000000000000000000000815261cb2860048201526024016103cb565b600154612a98612710620f42406145ff565b841180612ab25750612aaf612710620f42406145ff565b83115b80612abb575083155b80612ac4575082155b80612ad15750620fffff82115b80612ae35750601a81901c6001166001145b15612b1e576040517f2fee3e0e00000000000000000000000000000000000000000000000000000000815261cb2460048201526024016103cb565b602f83901b601b85901b601a60008511612b39576000612b3c565b60015b60ff16901b7ffffffffffffffffffffffffffffffffffffffffffffffff80000000003ffffff8416171717600155620fffff601b82901c811690602f83901c168315612bd057600780547fffffffffffffffffffffffffffffffff000000000000000000000000000000001642603c1b602887901b601485901b861717176fffffffffffffffffffffffffffffffff161790555b60408051878152602081018790529081018590527f4eb847e2909fd5c725b018d79e18739badfb33ba8aa65926fba2c644c3cc5a8e9060600161203d565b73ffffffffffffffffffffffffffffffffffffffff7f0000000000000000000000000000000000000000000000000000000000000000163003612c81576040517f2fee3e0e00000000000000000000000000000000000000000000000000000000815261cb2860048201526024016103cb565b612c8a8361333f565b60008215612d83575073ffffffffffffffffffffffffffffffffffffffff831660009081526003602052604081205490819003612cf7576040517f2fee3e0e00000000000000000000000000000000000000000000000000000000815261cb2760048201526024016103cb565b80600116600003612d38576040517f2fee3e0e00000000000000000000000000000000000000000000000000000000815261cb2960048201526024016103cb565b73ffffffffffffffffffffffffffffffffffffffff841660009081526003602052604090207ffffffffffffffffffffffffffffffffffffffffffffffffffffffffffffffffe821690555b8115612e7a575073ffffffffffffffffffffffffffffffffffffffff831660009081526005602052604081205490819003612dee576040517f2fee3e0e00000000000000000000000000000000000000000000000000000000815261cb2760048201526024016103cb565b80600116600003612e2f576040517f2fee3e0e00000000000000000000000000000000000000000000000000000000815261cb2960048201526024016103cb565b73ffffffffffffffffffffffffffffffffffffffff841660009081526005602052604090207ffffffffffffffffffffffffffffffffffffffffffffffffffffffffffffffffe821690555b6040805173ffffffffffffffffffffffffffffffffffffffff861681528415156020820152831515918101919091527fe785e6d4f9f1321c6c8d597385ff4ebcff4a597d59ac3911b5052fbf805eb6c990606001610dce565b6000606082600003612ee9576000915050613339565b607f8311612fb2576040517fd60000000000000000000000000000000000000000000000000000000000000060208201527f940000000000000000000000000000000000000000000000000000000000000060218201527fffffffffffffffffffffffffffffffffffffffff000000000000000000000000606086901b16602282015260f884901b7fff000000000000000000000000000000000000000000000000000000000000001660368201526037015b604051602081830303815290604052905061332e565b60ff831161308f576040517fd70000000000000000000000000000000000000000000000000000000000000060208201527f940000000000000000000000000000000000000000000000000000000000000060218201527fffffffffffffffffffffffffffffffffffffffff000000000000000000000000606086901b1660228201527f8100000000000000000000000000000000000000000000000000000000000000603682015260f884901b7fff00000000000000000000000000000000000000000000000000000000000000166037820152603801612f9c565b61ffff831161316d576040517fd80000000000000000000000000000000000000000000000000000000000000060208201527f940000000000000000000000000000000000000000000000000000000000000060218201527fffffffffffffffffffffffffffffffffffffffff000000000000000000000000606086901b1660228201527f820000000000000000000000000000000000000000000000000000000000000060368201527fffff00000000000000000000000000000000000000000000000000000000000060f085901b166037820152603901612f9c565b62ffffff831161324c576040517fd90000000000000000000000000000000000000000000000000000000000000060208201527f940000000000000000000000000000000000000000000000000000000000000060218201527fffffffffffffffffffffffffffffffffffffffff000000000000000000000000606086901b1660228201527f830000000000000000000000000000000000000000000000000000000000000060368201527fffffff000000000000000000000000000000000000000000000000000000000060e885901b166037820152603a01612f9c565b6040517fda0000000000000000000000000000000000000000000000000000000000000060208201527f940000000000000000000000000000000000000000000000000000000000000060218201527fffffffffffffffffffffffffffffffffffffffff000000000000000000000000606086901b1660228201527f840000000000000000000000000000000000000000000000000000000000000060368201527fffffffff0000000000000000000000000000000000000000000000000000000060e085901b166037820152603b0160405160208183030381529060405290505b805160209091012090505b92915050565b8073ffffffffffffffffffffffffffffffffffffffff163b600003613394576040517f2fee3e0e00000000000000000000000000000000000000000000000000000000815261cb2560048201526024016103cb565b50565b600080856fffffffffffffffffffffffffffffffff8111156133ba5760809150811c5b67ffffffffffffffff8111156133d2576040918201911c5b63ffffffff8111156133e6576020918201911c5b61ffff8111156133f8576010918201911c5b60ff811115613409576008918201911c5b600f81111561341a576004918201911c5b600381111561342b576002918201911c5b600181111561343b576001820191505b8015613448576001820191505b50848110156134545750835b848103905085811c600082118416156134a357600181019050806001871b036134a357506001908101907fffffffffffffffffffffffffffffffffffffffffffffffffffffffffffffffff86011b5b6001851b82106134b257600080fd5b90931b909201949350505050565b60003073ffffffffffffffffffffffffffffffffffffffff1663b7791bf26040518163ffffffff1660e01b815260040161024060405180830381865afa15801561350e573d6000803e3d6000fd5b505050506040513d601f19601f8201168201806040525081019061353291906143ee565b905060003073ffffffffffffffffffffffffffffffffffffffff16631595cbd36040518163ffffffff1660e01b8152600401608060405180830381865afa158015613581573d6000803e3d6000fd5b505050506040513d601f19601f820116820180604052508101906135a591906146a2565b602081015181519192506000916135bc90876145e8565b6135c691906145ad565b905060006b033b2e3c9fd0803ce80000006135e183876145e8565b6135eb91906145ad565b90506000836040015184606001518361360491906145e8565b61360e91906145ad565b60208601519091503415801590613653575060a086015173ffffffffffffffffffffffffffffffffffffffff1673eeeeeeeeeeeeeeeeeeeeeeeeeeeeeeeeeeeeeeee14155b801561368d575060c086015173ffffffffffffffffffffffffffffffffffffffff1673eeeeeeeeeeeeeeeeeeeeeeeeeeeeeeeeeeeeeeee14155b156136c8576040517f2fee3e0e00000000000000000000000000000000000000000000000000000000815261cb2660048201526024016103cb565b60008060005b600281101561392d57806000036136ee578860a0015192508a91506136f9565b8860c0015192508491505b7fffffffffffffffffffffffff111111111111111111111111111111111111111273ffffffffffffffffffffffffffffffffffffffff84160161385e5781341115613756576137513361374c84346145ff565b613d4d565b613794565b81341015613794576040517f2fee3e0e00000000000000000000000000000000000000000000000000000000815261cb2660048201526024016103cb565b8373ffffffffffffffffffffffffffffffffffffffff1663ad967e158385856000806000336040516020016137e5919073ffffffffffffffffffffffffffffffffffffffff91909116815260200190565b6040516020818303038152906040526040518863ffffffff1660e01b81526004016138159695949392919061474c565b604080518083038185885af1158015613832573d6000803e3d6000fd5b50505050506040513d601f19601f8201168201806040525081019061385791906147a5565b505061391b565b604080513360208083019190915282518083039091018152818301928390527fad967e150000000000000000000000000000000000000000000000000000000090925273ffffffffffffffffffffffffffffffffffffffff86169163ad967e15916138d691879187916000918291829160440161474c565b60408051808303816000875af11580156138f4573d6000803e3d6000fd5b505050506040513d601f19601f8201168201806040525081019061391891906147a5565b50505b80613925816147c9565b9150506136ce565b5084861161395b57613941600c60126145ff565b61394c90600a614921565b61395690866145e8565b61397c565b613967600c60126145ff565b61397290600a614921565b61397c90876145e8565b6002819055633b9aca0011156139c2576040517f2fee3e0e00000000000000000000000000000000000000000000000000000000815261cb2960048201526024016103cb565b50505050505050505050565b60003073ffffffffffffffffffffffffffffffffffffffff1663b7791bf26040518163ffffffff1660e01b815260040161024060405180830381865afa158015613a1c573d6000803e3d6000fd5b505050506040513d601f19601f82011682018060405250810190613a4091906143ee565b905060003073ffffffffffffffffffffffffffffffffffffffff16631595cbd36040518163ffffffff1660e01b8152600401608060405180830381865afa158015613a8f573d6000803e3d6000fd5b505050506040513d601f19601f82011682018060405250810190613ab391906146a2565b60208101518151919250600091613aca90876145e8565b613ad491906145ad565b905060006b033b2e3c9fd0803ce8000000613aef83876145e8565b613af991906145ad565b905060008360400151846060015183613b1291906145e8565b613b1c91906145ad565b60208681015160a0880151604080516000808252948101918290527fad967e1500000000000000000000000000000000000000000000000000000000909152939450909273ffffffffffffffffffffffffffffffffffffffff84169263ad967e1592613ba8929091908d908290734f6f977acdd1177dcd81ab83074855ecb9c2d49e906024810161474c565b60408051808303816000875af1158015613bc6573d6000803e3d6000fd5b505050506040513d601f19601f82011682018060405250810190613bea91906147a5565b505060c086015160408051600080825260208201928390527fad967e150000000000000000000000000000000000000000000000000000000090925273ffffffffffffffffffffffffffffffffffffffff84169263ad967e1592613c6b9287908290734f6f977acdd1177dcd81ab83074855ecb9c2d49e906024810161474c565b60408051808303816000875af1158015613c89573d6000803e3d6000fd5b505050506040513d601f19601f82011682018060405250810190613cad91906147a5565b5050828411613cdc57613cc2600c60126145ff565b613ccd90600a614921565b613cd790846145e8565b613cfd565b613ce8600c60126145ff565b613cf390600a614921565b613cfd90856145e8565b6004819055633b9aca001115613d43576040517f2fee3e0e00000000000000000000000000000000000000000000000000000000815261cb2960048201526024016103cb565b5050505050505050565b600080600080600085875af1905080613d97576040517fdee51a8a0000000000000000000000000000000000000000000000000000000081526201155a60048201526024016103cb565b505050565b60006040517fa9059cbb00000000000000000000000000000000000000000000000000000000815273ffffffffffffffffffffffffffffffffffffffff84166004820152826024820152602060006044836000895af13d15601f3d1160016000511416171691505080613e40576040517fdee51a8a0000000000000000000000000000000000000000000000000000000081526201155a60048201526024016103cb565b50505050565b600060208284031215613e5857600080fd5b5035919050565b7f4e487b7100000000000000000000000000000000000000000000000000000000600052604160045260246000fd5b6040516080810167ffffffffffffffff81118282101715613eb157613eb1613e5f565b60405290565b604051610200810167ffffffffffffffff81118282101715613eb157613eb1613e5f565b60405160a0810167ffffffffffffffff81118282101715613eb157613eb1613e5f565b6040516101c0810167ffffffffffffffff81118282101715613eb157613eb1613e5f565b604051601f82017fffffffffffffffffffffffffffffffffffffffffffffffffffffffffffffffe016810167ffffffffffffffff81118282101715613f6957613f69613e5f565b604052919050565b600067ffffffffffffffff821115613f8b57613f8b613e5f565b5060051b60200190565b73ffffffffffffffffffffffffffffffffffffffff8116811461339457600080fd5b60006020808385031215613fca57600080fd5b823567ffffffffffffffff811115613fe157600080fd5b8301601f81018513613ff257600080fd5b803561400561400082613f71565b613f22565b81815260079190911b8201830190838101908783111561402457600080fd5b928401925b8284101561408457608084890312156140425760008081fd5b61404a613e8e565b843561405581613f95565b815284860135868201526040808601359082015260608086013590820152825260809093019290840190614029565b979650505050505050565b600080604083850312156140a257600080fd5b50508035926020909101359150565b803580151581146140c157600080fd5b919050565b6000806000606084860312156140db57600080fd5b83356140e681613f95565b92506140f4602085016140b1565b9150614102604085016140b1565b90509250925092565b60008060006060848603121561412057600080fd5b505081359360208301359350604090920135919050565b6000610200828403121561414a57600080fd5b614152613eb7565b61415b836140b1565b815260208301356020820152614173604084016140b1565b6040820152606083810135908201526080808401359082015260a0808401359082015260c0808401359082015260e08084013590820152610100808401359082015261012080840135908201526101408084013590820152610160808401359082015261018080840135908201526101a080840135908201526101c080840135908201526101e0928301359281019290925250919050565b6000806000806080858703121561422157600080fd5b5050823594602084013594506040840135936060013592509050565b6000806040838503121561425057600080fd5b823561425b81613f95565b946020939093013593505050565b6000602080838503121561427c57600080fd5b823567ffffffffffffffff81111561429357600080fd5b8301601f810185136142a457600080fd5b80356142b261400082613f71565b81815260a091820283018401918482019190888411156142d157600080fd5b938501935b838510156143385780858a0312156142ee5760008081fd5b6142f6613edb565b853561430181613f95565b81528587013587820152604080870135908201526060808701359082015260808087013590820152835293840193918501916142d6565b50979650505050505050565b60006020828403121561435657600080fd5b813561436181613f95565b9392505050565b80516140c181613f95565b600060a0828403121561438557600080fd5b61438d613edb565b9050815161439a81613f95565b815260208201516143aa81613f95565b602082015260408201516143bd81613f95565b604082015260608201516143d081613f95565b606082015260808201516143e381613f95565b608082015292915050565b6000610240828403121561440157600080fd5b614409613efe565b8251815261441960208401614368565b602082015261442a60408401614368565b604082015261443c8460608501614373565b606082015261010061444f818501614368565b6080830152610120614462818601614368565b60a0840152610140614475818701614368565b60c08501526101608087015160e086015261018080880151858701526101a0945084880151848701526101c0880151838701526101e088015182870152610200880151818701525050505061022084015181830152508091505092915050565b7f4e487b7100000000000000000000000000000000000000000000000000000000600052603260045260246000fd5b602080825282518282018190526000919060409081850190868401855b82811015614571578151805173ffffffffffffffffffffffffffffffffffffffff168552868101518786015285810151868601526060908101519085015260809093019290850190600101614521565b5091979650505050505050565b7f4e487b7100000000000000000000000000000000000000000000000000000000600052601160045260246000fd5b6000826145e3577f4e487b7100000000000000000000000000000000000000000000000000000000600052601260045260246000fd5b500490565b80820281158282048414176133395761333961457e565b818103818111156133395761333961457e565b602080825282518282018190526000919060409081850190868401855b82811015614571578151805173ffffffffffffffffffffffffffffffffffffffff16855286810151878601528581015186860152606080820151908601526080908101519085015260a0909301929085019060010161462f565b60006020828403121561469b57600080fd5b5051919050565b6000608082840312156146b457600080fd5b6146bc613e8e565b825181526020830151602082015260408301516040820152606083015160608201528091505092915050565b6000815180845260005b8181101561470e576020818501810151868301820152016146f2565b5060006020828601015260207fffffffffffffffffffffffffffffffffffffffffffffffffffffffffffffffe0601f83011685010191505092915050565b600073ffffffffffffffffffffffffffffffffffffffff8089168352876020840152866040840152808616606084015280851660808401525060c060a083015261479960c08301846146e8565b98975050505050505050565b600080604083850312156147b857600080fd5b505080516020909101519092909150565b60007fffffffffffffffffffffffffffffffffffffffffffffffffffffffffffffffff82036147fa576147fa61457e565b5060010190565b600181815b8085111561485a57817fffffffffffffffffffffffffffffffffffffffffffffffffffffffffffffffff048211156148405761484061457e565b8085161561484d57918102915b93841c9390800290614806565b509250929050565b60008261487157506001613339565b8161487e57506000613339565b8160018114614894576002811461489e576148ba565b6001915050613339565b60ff8411156148af576148af61457e565b50506001821b613339565b5060208310610133831016604e8410600b84101617156148dd575081810a613339565b6148e78383614801565b807fffffffffffffffffffffffffffffffffffffffffffffffffffffffffffffffff048211156149195761491961457e565b029392505050565b6000614361838361486256fea2646970667358221220768fa7518f0269693474f5970a831f878e41adea025f7db6225d828bbc99186e64736f6c6343000815003360c060405234801561001057600080fd5b50604051610ced380380610ced83398101604081905261002f91610044565b6001600160a01b03166080523060a052610074565b60006020828403121561005657600080fd5b81516001600160a01b038116811461006d57600080fd5b9392505050565b60805160a051610c476100a66000396000818160e50152818161024901526104a2015260006102f80152610c476000f3fe608060405234801561001057600080fd5b506004361061004c5760003560e01c80630d7cf0ab146100515780632f850fb314610084578063b5c736e4146100a5578063e8518a66146100b7575b600080fd5b61006461005f366004610aea565b6100ca565b604080519384526020840192909252908201526060015b60405180910390f35b610097610092366004610b16565b610230565b60405190815260200161007b565b6100976100b3366004610b38565b5490565b6100646100c5366004610aea565b610487565b6000808073ffffffffffffffffffffffffffffffffffffffff7f0000000000000000000000000000000000000000000000000000000000000000163003610146576040517f2fee3e0e00000000000000000000000000000000000000000000000000000000815261c77360048201526024015b60405180910390fd5b6007546fffffffffffffffffffffffffffffffff811690620fffff80821691601481901c821691602882901c1690603c1c6401ffffffff16426101898383610b80565b10156101f3575050600780547fffffffffffffffffffffffffffffffff00000000000000000000000000000000169055505050507ffffffffffffffffffffffffffffffffffffffffffffffffffffffffffbffffff92909216600181905591508390508282610227565b60006101ff8242610b93565b905061020d8c868386610605565b6102198c868487610605565b8b9850985098505050505050505b93509350939050565b600073ffffffffffffffffffffffffffffffffffffffff7f00000000000000000000000000000000000000000000000000000000000000001630036102a5576040517f2fee3e0e00000000000000000000000000000000000000000000000000000000815261c773600482015260240161013d565b600854605984901c63ffffffff16605185901c60ff161b906401ffffffff80821690620fffff602184901c811691603585901c90911690607989901c168381116102ef57836102f1565b805b90506103277f0000000000000000000000000000000000000000000000000000000000000000633fffffff60708b901c1661067e565b73ffffffffffffffffffffffffffffffffffffffff1663f763f7a66040518163ffffffff1660e01b81526004016020604051808303816000875af1158015610373573d6000803e3d6000fd5b505050506040513d601f19601f820116820180604052508101906103979190610ba6565b965060006103a8620f424084610bbf565b6103b28342610b93565b6103bc868a610bbf565b6103c69190610bbf565b6103d09190610bd6565b905086881115610428576103e48188610b80565b9650868811156103f65786975061047a565b6000600855600180547ffeffffffffffffffffffffffffffffffffffffffffffffffffffffffffffffff16905561047a565b80871161043657600061043a565b8087035b96508688101561044c5786975061047a565b6000600855600180547ffeffffffffffffffffffffffffffffffffffffffffffffffffffffffffffffff1690555b5050505050505092915050565b6000808073ffffffffffffffffffffffffffffffffffffffff7f00000000000000000000000000000000000000000000000000000000000000001630036104fe576040517f2fee3e0e00000000000000000000000000000000000000000000000000000000815261c773600482015260240161013d565b6007546fffffffffffffffffffffffffffffffff70010000000000000000000000000000000090910490811690620fffff80821691601481901c821691602882901c1690603c81901c6401ffffffff1690605d1c62ffffff16426105628484610b80565b10156105bd575050600780546fffffffffffffffffffffffffffffffff1690555050600180547ffffffffffffffffffffffffffffffffffffffffffffffff7ffffffffffffffff169055508693508592508491506102279050565b60006105c98342610b93565b90506105d78d878387610605565b6105e38d878488610605565b6105ef8d858589610605565b9950995099505050505050505093509350939050565b60008385111561064457600061061b8587610b93565b9050826106288583610bbf565b6106329190610bd6565b61063c9086610b80565b955050610675565b60006106508686610b93565b90508261065d8583610bbf565b6106679190610bd6565b6106719086610b93565b9550505b50929392505050565b6000606082600003610694576000915050610ae4565b607f831161075d576040517fd60000000000000000000000000000000000000000000000000000000000000060208201527f940000000000000000000000000000000000000000000000000000000000000060218201527fffffffffffffffffffffffffffffffffffffffff000000000000000000000000606086901b16602282015260f884901b7fff000000000000000000000000000000000000000000000000000000000000001660368201526037015b6040516020818303038152906040529050610ad9565b60ff831161083a576040517fd70000000000000000000000000000000000000000000000000000000000000060208201527f940000000000000000000000000000000000000000000000000000000000000060218201527fffffffffffffffffffffffffffffffffffffffff000000000000000000000000606086901b1660228201527f8100000000000000000000000000000000000000000000000000000000000000603682015260f884901b7fff00000000000000000000000000000000000000000000000000000000000000166037820152603801610747565b61ffff8311610918576040517fd80000000000000000000000000000000000000000000000000000000000000060208201527f940000000000000000000000000000000000000000000000000000000000000060218201527fffffffffffffffffffffffffffffffffffffffff000000000000000000000000606086901b1660228201527f820000000000000000000000000000000000000000000000000000000000000060368201527fffff00000000000000000000000000000000000000000000000000000000000060f085901b166037820152603901610747565b62ffffff83116109f7576040517fd90000000000000000000000000000000000000000000000000000000000000060208201527f940000000000000000000000000000000000000000000000000000000000000060218201527fffffffffffffffffffffffffffffffffffffffff000000000000000000000000606086901b1660228201527f830000000000000000000000000000000000000000000000000000000000000060368201527fffffff000000000000000000000000000000000000000000000000000000000060e885901b166037820152603a01610747565b6040517fda0000000000000000000000000000000000000000000000000000000000000060208201527f940000000000000000000000000000000000000000000000000000000000000060218201527fffffffffffffffffffffffffffffffffffffffff000000000000000000000000606086901b1660228201527f840000000000000000000000000000000000000000000000000000000000000060368201527fffffffff0000000000000000000000000000000000000000000000000000000060e085901b166037820152603b0160405160208183030381529060405290505b805160209091012090505b92915050565b600080600060608486031215610aff57600080fd5b505081359360208301359350604090920135919050565b60008060408385031215610b2957600080fd5b50508035926020909101359150565b600060208284031215610b4a57600080fd5b5035919050565b7f4e487b7100000000000000000000000000000000000000000000000000000000600052601160045260246000fd5b80820180821115610ae457610ae4610b51565b81810381811115610ae457610ae4610b51565b600060208284031215610bb857600080fd5b5051919050565b8082028115828204841417610ae457610ae4610b51565b600082610c0c577f4e487b7100000000000000000000000000000000000000000000000000000000600052601260045260246000fd5b50049056fea26469706673582212207bbd86704f31cc2190b9c491cdeea583a55ffb7ce53de73eb1ec77a53f34eab264736f6c63430008150033",
  "devdoc": {
    "events": {
      "DexT1Deployed(address,uint256,address,address)": {
        "params": {
          "borrowToken": "The address of the borrow token.",
          "dex": "The address of the newly deployed dex.",
          "dexId": "The id of the newly deployed dex.",
          "supplyToken": "The address of the supply token."
        }
      }
    },
    "kind": "dev",
    "methods": {
      "colOperationsCreationCode()": {
        "details": "Retrieves the creation code for the FluidDexT1OperationsCol contract"
      },
      "debtOperationsCreationCode()": {
        "details": "Retrieves the creation code for the FluidDexT1OperationsDebt contract"
      },
      "perfectOperationsCreationCode()": {
        "details": "Retrieves the creation code for the FluidDexT1PerfectOperations contract"
      }
    },
    "stateVariables": {
      "COL_OPERATIONS_CREATIONCODE_ADDRESS": {
        "details": "SSTORE2 pointers for the creation code of various operations contracts"
      },
      "POOL_T1_CREATIONCODE_ADDRESS_1": {
        "details": "SSTORE2 pointer for the PoolT1 creation code. Stored externally to reduce factory bytecode (in 2 parts)"
      }
    },
    "version": 1
  },
  "userdoc": {
    "errors": {
      "FluidDexSwapResult(uint256)": [
        {
          "notice": "used to simulate swap to find the output amount"
        }
      ]
    },
    "events": {
      "DexT1Deployed(address,uint256,address,address)": {
        "notice": "Emitted when a new dexT1 is deployed."
      }
    },
    "kind": "user",
    "methods": {
      "ADDRESS_THIS()": {
        "notice": "address of this contract"
      },
      "ADMIN_IMPLEMENTATION()": {
        "notice": "address of Admin implementation"
      },
      "CONTRACT_DEPLOYER()": {
        "notice": "address of Deployer Contract"
      },
      "DEX_FACTORY()": {
        "notice": "address of dexfactory contract"
      },
      "LIQUIDITY()": {
        "notice": "address of liquidity contract"
      },
      "MINI_DEPLOYER()": {
        "notice": "address of MiniDeployer Contract"
      },
      "SHIFT_IMPLEMENTATION()": {
        "notice": "address of Shift implementation"
      },
      "dexT1CreationBytecode()": {
        "notice": "returns the stored DexT1 creation bytecode"
      }
    },
    "version": 1
  },
  "storageLayout": {
    "storage": [],
    "types": null
  }
}