{
  "address": "0xd4549E1F58f37445EC3c50f975B9454f8Bb21AB8",
  "abi": [
    {
      "inputs": [
        {
          "internalType": "contract IWstETH",
          "name": "wstETH_",
          "type": "address"
        }
      ],
      "stateMutability": "nonpayable",
      "type": "constructor"
    },
    {
      "inputs": [
        {
          "internalType": "uint256",
          "name": "errorId_",
          "type": "uint256"
        }
      ],
      "name": "FluidOracleError",
      "type": "error"
    },
    {
      "inputs": [],
      "name": "getExchangeRate",
      "outputs": [
        {
          "internalType": "uint256",
          "name": "exchangeRate_",
          "type": "uint256"
        }
      ],
      "stateMutability": "view",
      "type": "function"
    },
    {
      "inputs": [],
      "name": "wstETHOracleData",
      "outputs": [
        {
          "internalType": "uint256",
          "name": "wstETHExchangeRate_",
          "type": "uint256"
        },
        {
          "internalType": "contract IWstETH",
          "name": "wstETH_",
          "type": "address"
        }
      ],
      "stateMutability": "view",
      "type": "function"
    }
  ],
  "transactionHash": "0x730e759a503900b13e925d21e4c0bc8d62ffaa48068841b0afad0b7fc4cf3130",
  "args": [
    "0x7f39C581F595B53c5cb19bD0b3f8dA6c935E2Ca0"
  ],
  "numDeployments": 1,
  "solcInputHash": "b73720cc8ffa8a631f5020ecec7e4515",
  "bytecode": "0x60c060405234801561001057600080fd5b5060405161041f38038061041f83398101604081905261002f9161008e565b806001600160a01b03811661005f5760405163c82fc46560e01b815261f619600482015260240160405180910390fd5b6001600160a01b03811660a0526100786012601b6100d4565b61008390600a6101d1565b608052506101dd9050565b6000602082840312156100a057600080fd5b81516001600160a01b03811681146100b757600080fd5b9392505050565b634e487b7160e01b600052601160045260246000fd5b818103818111156100e7576100e76100be565b92915050565b600181815b8085111561012857816000190482111561010e5761010e6100be565b8085161561011b57918102915b93841c93908002906100f2565b509250929050565b60008261013f575060016100e7565b8161014c575060006100e7565b8160018114610162576002811461016c57610188565b60019150506100e7565b60ff84111561017d5761017d6100be565b50506001821b6100e7565b5060208310610133831016604e8410600b84101617156101ab575081810a6100e7565b6101b583836100ed565b80600019048211156101c9576101c96100be565b029392505050565b60006100b78383610130565b60805160a051610219610206600039600081816096015260ef0152600060ce01526102196000f3fe608060405234801561001057600080fd5b50600436106100365760003560e01c8063dfaba9b51461003b578063e6aa216c14610072575b600080fd5b610043610088565b6040805192835273ffffffffffffffffffffffffffffffffffffffff9091166020830152015b60405180910390f35b61007a6100bb565b604051908152602001610069565b6000806100936100ca565b927f000000000000000000000000000000000000000000000000000000000000000092509050565b60006100c56100ca565b905090565b60007f00000000000000000000000000000000000000000000000000000000000000007f000000000000000000000000000000000000000000000000000000000000000073ffffffffffffffffffffffffffffffffffffffff1663035faf826040518163ffffffff1660e01b8152600401602060405180830381865afa158015610158573d6000803e3d6000fd5b505050506040513d601f19601f8201168201806040525081019061017c9190610186565b6100c5919061019f565b60006020828403121561019857600080fd5b5051919050565b80820281158282048414176101dd577f4e487b7100000000000000000000000000000000000000000000000000000000600052601160045260246000fd5b9291505056fea264697066735822122029a00ed6758d0414e6b9eda51c437954d6d211b8dbd4592da39592dc659fce7464736f6c63430008150033",
  "devdoc": {
    "kind": "dev",
    "methods": {},
    "title": "WstETHOracle",
    "version": 1
  },
  "userdoc": {
    "kind": "user",
    "methods": {
      "constructor": {
        "notice": "constructor sets the wstETH `wstETH_` token address."
      },
      "getExchangeRate()": {
        "notice": "Get the `exchangeRate_` between the underlying asset and the peg asset in 1e27"
      },
      "wstETHOracleData()": {
        "notice": "returns all wWtETH oracle related data as utility for easy off-chain use / block explorer in a single view method"
      }
    },
    "notice": "Gets the exchange rate between wstETH and stETH directly from the wstETH contract.",
    "version": 1
  },
  "storageLayout": {
    "storage": [],
    "types": null
  }
}