{
  "address": "0xdaC1f22098f157920a8A34Aa6dBcD01e37f467c8",
  "abi": [
    {
      "inputs": [
        {
          "internalType": "string",
          "name": "infoName_",
          "type": "string"
        },
        {
          "internalType": "address",
          "name": "rateSource_",
          "type": "address"
        },
        {
          "internalType": "uint256",
          "name": "minUpdateDiffPercent_",
          "type": "uint256"
        },
        {
          "internalType": "uint256",
          "name": "minHeartBeat_",
          "type": "uint256"
        }
      ],
      "stateMutability": "nonpayable",
      "type": "constructor"
    },
    {
      "inputs": [
        {
          "internalType": "uint256",
          "name": "errorId_",
          "type": "uint256"
        }
      ],
      "name": "FluidOracleError",
      "type": "error"
    },
    {
      "anonymous": false,
      "inputs": [
        {
          "indexed": false,
          "internalType": "uint256",
          "name": "oldRate",
          "type": "uint256"
        },
        {
          "indexed": false,
          "internalType": "uint256",
          "name": "newRate",
          "type": "uint256"
        }
      ],
      "name": "LogRebalanceRate",
      "type": "event"
    },
    {
      "inputs": [],
      "name": "centerPrice",
      "outputs": [
        {
          "internalType": "uint256",
          "name": "price_",
          "type": "uint256"
        }
      ],
      "stateMutability": "nonpayable",
      "type": "function"
    },
    {
      "inputs": [],
      "name": "configData",
      "outputs": [
        {
          "internalType": "uint256",
          "name": "minUpdateDiffPercent_",
          "type": "uint256"
        },
        {
          "internalType": "uint256",
          "name": "minHeartBeat_",
          "type": "uint256"
        },
        {
          "internalType": "uint40",
          "name": "lastUpdateTime_",
          "type": "uint40"
        },
        {
          "internalType": "address",
          "name": "rateSource_",
          "type": "address"
        }
      ],
      "stateMutability": "view",
      "type": "function"
    },
    {
      "inputs": [],
      "name": "configPercentDiff",
      "outputs": [
        {
          "internalType": "uint256",
          "name": "configPercentDiff_",
          "type": "uint256"
        }
      ],
      "stateMutability": "view",
      "type": "function"
    },
    {
      "inputs": [],
      "name": "getExchangeRate",
      "outputs": [
        {
          "internalType": "uint256",
          "name": "exchangeRate_",
          "type": "uint256"
        }
      ],
      "stateMutability": "view",
      "type": "function"
    },
    {
      "inputs": [],
      "name": "getExchangeRateLiquidate",
      "outputs": [
        {
          "internalType": "uint256",
          "name": "exchangeRate_",
          "type": "uint256"
        }
      ],
      "stateMutability": "view",
      "type": "function"
    },
    {
      "inputs": [],
      "name": "getExchangeRateOperate",
      "outputs": [
        {
          "internalType": "uint256",
          "name": "exchangeRate_",
          "type": "uint256"
        }
      ],
      "stateMutability": "view",
      "type": "function"
    },
    {
      "inputs": [],
      "name": "getRate",
      "outputs": [
        {
          "internalType": "uint256",
          "name": "",
          "type": "uint256"
        }
      ],
      "stateMutability": "view",
      "type": "function"
    },
    {
      "inputs": [],
      "name": "getRateSafe",
      "outputs": [
        {
          "internalType": "uint256",
          "name": "",
          "type": "uint256"
        }
      ],
      "stateMutability": "view",
      "type": "function"
    },
    {
      "inputs": [],
      "name": "infoName",
      "outputs": [
        {
          "internalType": "string",
          "name": "",
          "type": "string"
        }
      ],
      "stateMutability": "view",
      "type": "function"
    },
    {
      "inputs": [],
      "name": "rebalance",
      "outputs": [],
      "stateMutability": "nonpayable",
      "type": "function"
    },
    {
      "inputs": [],
      "name": "vault",
      "outputs": [
        {
          "internalType": "address",
          "name": "",
          "type": "address"
        }
      ],
      "stateMutability": "view",
      "type": "function"
    }
  ],
  "transactionHash": "0x1955512cbdc30d8616a103ffe7c353aa0700484425afe254452fc3505716c091",
  "args": [
    [
      "EBTC <> BTC exchange rate",
      "0x1b293DC39F94157fA0D1D36d7e0090C8B8B8c13F",
      10,
      90000
    ]
  ],
  "numDeployments": 1,
  "linkedData": {
    "nonce": "81"
  },
  "bytecode": "0x6101006040523480156200001257600080fd5b5060405162000f7838038062000f788339810160408190526200003591620001e6565b83838383836020815111806200004a57508051155b15620000725760405163c82fc46560e01b815261ea6a60048201526024015b60405180910390fd5b60200151608052826001600160a01b038116620000a75760405163c82fc46560e01b815261ebbf600482015260240162000069565b821580620000b75750620186a083115b80620000c1575081155b15620000e55760405163c82fc46560e01b815261ebbf600482015260240162000069565b6001600160a01b03841660a05260c083905260e08290526200010662000131565b6001600160d81b0316600160d81b4264ffffffffff1602176000555062000324975050505050505050565b600060a0516001600160a01b031663679aefce6040518163ffffffff1660e01b8152600401602060405180830381865afa15801562000174573d6000803e3d6000fd5b505050506040513d601f19601f820116820180604052508101906200019a9190620002de565b620001ae90678ac7230489e80000620002f8565b905090565b634e487b7160e01b600052604160045260246000fd5b80516001600160a01b0381168114620001e157600080fd5b919050565b60008060008060808587031215620001fd57600080fd5b84516001600160401b03808211156200021557600080fd5b818701915087601f8301126200022a57600080fd5b8151818111156200023f576200023f620001b3565b604051601f8201601f19908116603f011681019083821181831017156200026a576200026a620001b3565b81604052828152602093508a848487010111156200028757600080fd5b600091505b82821015620002ab57848201840151818301850152908301906200028c565b6000848483010152809850505050620002c6818801620001c9565b60408801516060909801519699909850945050505050565b600060208284031215620002f157600080fd5b5051919050565b80820281158282048414176200031e57634e487b7160e01b600052601160045260246000fd5b92915050565b60805160a05160c05160e051610bf2620003866000396000818160fa015261057901526000818160d7015261040701526000818161014b01528181610235015281816106e0015261077101526000818161082201526108e70152610bf26000f3fe608060405234801561001057600080fd5b50600436106100c95760003560e01c80639dc1056611610081578063f3190c891161005b578063f3190c89146101ba578063f763f7a6146101fc578063fbfa77cf1461020457600080fd5b80639dc10566146101df578063abd5f95d146101e7578063e6aa216c146101ba57600080fd5b8063679aefce116100b2578063679aefce146101a85780637d7c2a1c146101b05780638e7bfbc0146101ba57600080fd5b806320e44e43146100ce578063282a870014610192575b600080fd5b600054604080517f000000000000000000000000000000000000000000000000000000000000000081527f000000000000000000000000000000000000000000000000000000000000000060208201527b0100000000000000000000000000000000000000000000000000000090920464ffffffffff16908201527f000000000000000000000000000000000000000000000000000000000000000073ffffffffffffffffffffffffffffffffffffffff1660608201526080015b60405180910390f35b61019a610231565b604051908152602001610189565b61019a610318565b6101b861034c565b005b6000547affffffffffffffffffffffffffffffffffffffffffffffffffffff1661019a565b61019a6104e9565b6101ef61055e565b6040516101899190610975565b61019a61056d565b61020c6106dc565b60405173ffffffffffffffffffffffffffffffffffffffff9091168152602001610189565b60007f000000000000000000000000000000000000000000000000000000000000000073ffffffffffffffffffffffffffffffffffffffff1663282a87006040518163ffffffff1660e01b8152600401602060405180830381865afa15801561029e573d6000803e3d6000fd5b505050506040513d601f19601f820116820180604052508101906102c291906109e1565b506000546102f690678ac7230489e80000907affffffffffffffffffffffffffffffffffffffffffffffffffffff16610a58565b7affffffffffffffffffffffffffffffffffffffffffffffffffffff16905090565b600080546102f690678ac7230489e80000907affffffffffffffffffffffffffffffffffffffffffffffffffffff16610a58565b600080547affffffffffffffffffffffffffffffffffffffffffffffffffffff169061037661076d565b9050806000036103bb576040517fc82fc46500000000000000000000000000000000000000000000000000000000815261ebc260048201526024015b60405180910390fd5b6000818311156103e35782828403620f424002816103db576103db6109fa565b049050610405565b828211156104055782838303620f42400281610401576104016109fa565b0490505b7f0000000000000000000000000000000000000000000000000000000000000000811015610463576040517fc82fc46500000000000000000000000000000000000000000000000000000000815261ebc160048201526024016103b2565b7affffffffffffffffffffffffffffffffffffffffffffffffffffff82167b010000000000000000000000000000000000000000000000000000004264ffffffffff16021760005560408051848152602081018490527f95f03a932c8aced8238058ac39deeaf30f8ddcbf42ade5ad3ada32f0d1338a08910160405180910390a1505050565b600080547affffffffffffffffffffffffffffffffffffffffffffffffffffff168161051361076d565b90508082111561053b5781818303620f42400281610533576105336109fa565b049250505090565b818111156105595781828203620f42400281610533576105336109fa565b505090565b6060610568610810565b905090565b6000805442906105c4907f0000000000000000000000000000000000000000000000000000000000000000907b01000000000000000000000000000000000000000000000000000000900464ffffffffff16610ab9565b10156106b857600080547affffffffffffffffffffffffffffffffffffffffffffffffffffff16906105f461076d565b905080600003610634576040517fc82fc46500000000000000000000000000000000000000000000000000000000815261ebc260048201526024016103b2565b7affffffffffffffffffffffffffffffffffffffffffffffffffffff81167b010000000000000000000000000000000000000000000000000000004264ffffffffff16021760005560408051838152602081018390527f95f03a932c8aced8238058ac39deeaf30f8ddcbf42ade5ad3ada32f0d1338a08910160405180910390a150505b506000547affffffffffffffffffffffffffffffffffffffffffffffffffffff1690565b60007f000000000000000000000000000000000000000000000000000000000000000073ffffffffffffffffffffffffffffffffffffffff1663fbfa77cf6040518163ffffffff1660e01b8152600401602060405180830381865afa158015610749573d6000803e3d6000fd5b505050506040513d601f19601f820116820180604052508101906105689190610ad2565b60007f000000000000000000000000000000000000000000000000000000000000000073ffffffffffffffffffffffffffffffffffffffff1663679aefce6040518163ffffffff1660e01b8152600401602060405180830381865afa1580156107da573d6000803e3d6000fd5b505050506040513d601f19601f820116820180604052508101906107fe91906109e1565b61056890678ac7230489e80000610b0f565b606060005b60208110801561087b57507f0000000000000000000000000000000000000000000000000000000000000000816020811061085257610852610b26565b1a60f81b7fff000000000000000000000000000000000000000000000000000000000000001615155b15610892578061088a81610b55565b915050610815565b60008167ffffffffffffffff8111156108ad576108ad610b8d565b6040519080825280601f01601f1916602001820160405280156108d7576020820181803683370190505b50905060005b8281101561096e577f0000000000000000000000000000000000000000000000000000000000000000816020811061091757610917610b26565b1a60f81b82828151811061092d5761092d610b26565b60200101907effffffffffffffffffffffffffffffffffffffffffffffffffffffffffffff1916908160001a9053508061096681610b55565b9150506108dd565b5092915050565b600060208083528351808285015260005b818110156109a257858101830151858201604001528201610986565b5060006040828601015260407fffffffffffffffffffffffffffffffffffffffffffffffffffffffffffffffe0601f8301168501019250505092915050565b6000602082840312156109f357600080fd5b5051919050565b7f4e487b7100000000000000000000000000000000000000000000000000000000600052601260045260246000fd5b7f4e487b7100000000000000000000000000000000000000000000000000000000600052601160045260246000fd5b60007affffffffffffffffffffffffffffffffffffffffffffffffffffff80841680610aad577f4e487b7100000000000000000000000000000000000000000000000000000000600052601260045260246000fd5b92169190910492915050565b80820180821115610acc57610acc610a29565b92915050565b600060208284031215610ae457600080fd5b815173ffffffffffffffffffffffffffffffffffffffff81168114610b0857600080fd5b9392505050565b8082028115828204841417610acc57610acc610a29565b7f4e487b7100000000000000000000000000000000000000000000000000000000600052603260045260246000fd5b60007fffffffffffffffffffffffffffffffffffffffffffffffffffffffffffffffff8203610b8657610b86610a29565b5060010190565b7f4e487b7100000000000000000000000000000000000000000000000000000000600052604160045260246000fdfea26469706673582212201a7cec05651ae279673d606a12eeb82b9e74d9307494c2731d9e93afc7ebd03964736f6c63430008150033"
}