{
  "address": "0xDf79EE3Ab9ae7631A9b109D7345136274119fc72",
  "abi": [
    {
      "inputs": [
        {
          "internalType": "string",
          "name": "infoName_",
          "type": "string"
        },
        {
          "internalType": "contract IWeETH",
          "name": "wEETH_",
          "type": "address"
        },
        {
          "internalType": "uint256",
          "name": "minUpdateDiffPercent_",
          "type": "uint256"
        }
      ],
      "stateMutability": "nonpayable",
      "type": "constructor"
    },
    {
      "inputs": [
        {
          "internalType": "uint256",
          "name": "errorId_",
          "type": "uint256"
        }
      ],
      "name": "FluidOracleError",
      "type": "error"
    },
    {
      "anonymous": false,
      "inputs": [
        {
          "indexed": false,
          "internalType": "uint256",
          "name": "oldRate",
          "type": "uint256"
        },
        {
          "indexed": false,
          "internalType": "uint256",
          "name": "newRate",
          "type": "uint256"
        }
      ],
      "name": "LogRebalanceRate",
      "type": "event"
    },
    {
      "inputs": [],
      "name": "centerPrice",
      "outputs": [
        {
          "internalType": "uint256",
          "name": "price_",
          "type": "uint256"
        }
      ],
      "stateMutability": "view",
      "type": "function"
    },
    {
      "inputs": [
        {
          "internalType": "uint256",
          "name": "_weETHAmount",
          "type": "uint256"
        }
      ],
      "name": "getEETHByWeETH",
      "outputs": [
        {
          "internalType": "uint256",
          "name": "",
          "type": "uint256"
        }
      ],
      "stateMutability": "view",
      "type": "function"
    },
    {
      "inputs": [],
      "name": "getExchangeRate",
      "outputs": [
        {
          "internalType": "uint256",
          "name": "exchangeRate_",
          "type": "uint256"
        }
      ],
      "stateMutability": "view",
      "type": "function"
    },
    {
      "inputs": [],
      "name": "getExchangeRateLiquidate",
      "outputs": [
        {
          "internalType": "uint256",
          "name": "exchangeRate_",
          "type": "uint256"
        }
      ],
      "stateMutability": "view",
      "type": "function"
    },
    {
      "inputs": [],
      "name": "getExchangeRateOperate",
      "outputs": [
        {
          "internalType": "uint256",
          "name": "exchangeRate_",
          "type": "uint256"
        }
      ],
      "stateMutability": "view",
      "type": "function"
    },
    {
      "inputs": [
        {
          "internalType": "uint256",
          "name": "_eETHAmount",
          "type": "uint256"
        }
      ],
      "name": "getWeETHByeETH",
      "outputs": [
        {
          "internalType": "uint256",
          "name": "",
          "type": "uint256"
        }
      ],
      "stateMutability": "view",
      "type": "function"
    },
    {
      "inputs": [],
      "name": "infoName",
      "outputs": [
        {
          "internalType": "string",
          "name": "",
          "type": "string"
        }
      ],
      "stateMutability": "view",
      "type": "function"
    },
    {
      "inputs": [],
      "name": "rebalance",
      "outputs": [],
      "stateMutability": "nonpayable",
      "type": "function"
    }
  ],
  "transactionHash": "0x6f82ff0128ef7a65b06a6d80295124cb5677ad4869b37651b11b9b4d4e8a69dc",
  "args": [
    [
      "weETH <> eETH exchange rate",
      "0xcd5fe23c85820f7b72d0926fc9b05b43e359b7ee",
      1
    ]
  ],
  "numDeployments": 1,
  "linkedData": {
    "nonce": "42"
  },
  "bytecode": "0x60e060405234801561001057600080fd5b5060405161092638038061092683398101604081905261002f91610186565b8260208151118061003f57508051155b156100665760405163c82fc46560e01b815261ea6a60048201526024015b60405180910390fd5b60200151608052816001600160a01b0381166100995760405163c82fc46560e01b815261ebbf600482015260240161005d565b8115806100a85750620186a082115b156100ca5760405163c82fc46560e01b815261ebbf600482015260240161005d565b6001600160a01b03831660a081905260c0839052604051632518981160e21b81526b033b2e3c9fd0803ce80000006004820152639462604490602401602060405180830381865afa158015610123573d6000803e3d6000fd5b505050506040513d601f19601f820116820180604052508101906101479190610269565b6000555061028292505050565b634e487b7160e01b600052604160045260246000fd5b80516001600160a01b038116811461018157600080fd5b919050565b60008060006060848603121561019b57600080fd5b83516001600160401b03808211156101b257600080fd5b818601915086601f8301126101c657600080fd5b8151818111156101d8576101d8610154565b604051601f8201601f19908116603f0116810190838211818310171561020057610200610154565b8160405282815260209350898484870101111561021c57600080fd5b600091505b8282101561023e5784820184015181830185015290830190610221565b600084848301015280975050505061025781870161016a565b93505050604084015190509250925092565b60006020828403121561027b57600080fd5b5051919050565b60805160a05160c05161066e6102b860003960006101f60152600061012a01526000818161030101526103c6015261066e6000f3fe608060405234801561001057600080fd5b50600436106100885760003560e01c8063d044fe9b1161005b578063d044fe9b146100d6578063e6aa216c14610097578063f3190c8914610097578063f763f7a61461009757600080fd5b80637d7c2a1c1461008d5780638e7bfbc01461009757806394626044146100ae578063abd5f95d146100c1575b600080fd5b6100956100e9565b005b6000545b6040519081526020015b60405180910390f35b61009b6100bc366004610454565b610299565b6100c96102c6565b6040516100a5919061046d565b61009b6100e4366004610454565b6102d5565b600080546040517f946260440000000000000000000000000000000000000000000000000000000081526b033b2e3c9fd0803ce800000060048201529091907f000000000000000000000000000000000000000000000000000000000000000073ffffffffffffffffffffffffffffffffffffffff1690639462604490602401602060405180830381865afa158015610186573d6000803e3d6000fd5b505050506040513d601f19601f820116820180604052508101906101aa91906104d9565b90506000818311156101d3578282840361271002816101cb576101cb6104f2565b0490506101f4565b828211156101f4578283830361271002816101f0576101f06104f2565b0490505b7f0000000000000000000000000000000000000000000000000000000000000000811015610256576040517fc82fc46500000000000000000000000000000000000000000000000000000000815261ebc1600482015260240160405180910390fd5b600082905560408051848152602081018490527f95f03a932c8aced8238058ac39deeaf30f8ddcbf42ade5ad3ada32f0d1338a08910160405180910390a1505050565b60006b033b2e3c9fd0803ce8000000826000546102b69190610550565b6102c09190610567565b92915050565b60606102d06102ef565b905090565b600080546102b6836b033b2e3c9fd0803ce8000000610550565b606060005b60208110801561035a57507f00000000000000000000000000000000000000000000000000000000000000008160208110610331576103316105a2565b1a60f81b7fff000000000000000000000000000000000000000000000000000000000000001615155b156103715780610369816105d1565b9150506102f4565b60008167ffffffffffffffff81111561038c5761038c610609565b6040519080825280601f01601f1916602001820160405280156103b6576020820181803683370190505b50905060005b8281101561044d577f000000000000000000000000000000000000000000000000000000000000000081602081106103f6576103f66105a2565b1a60f81b82828151811061040c5761040c6105a2565b60200101907effffffffffffffffffffffffffffffffffffffffffffffffffffffffffffff1916908160001a90535080610445816105d1565b9150506103bc565b5092915050565b60006020828403121561046657600080fd5b5035919050565b600060208083528351808285015260005b8181101561049a5785810183015185820160400152820161047e565b5060006040828601015260407fffffffffffffffffffffffffffffffffffffffffffffffffffffffffffffffe0601f8301168501019250505092915050565b6000602082840312156104eb57600080fd5b5051919050565b7f4e487b7100000000000000000000000000000000000000000000000000000000600052601260045260246000fd5b7f4e487b7100000000000000000000000000000000000000000000000000000000600052601160045260246000fd5b80820281158282048414176102c0576102c0610521565b60008261059d577f4e487b7100000000000000000000000000000000000000000000000000000000600052601260045260246000fd5b500490565b7f4e487b7100000000000000000000000000000000000000000000000000000000600052603260045260246000fd5b60007fffffffffffffffffffffffffffffffffffffffffffffffffffffffffffffffff820361060257610602610521565b5060010190565b7f4e487b7100000000000000000000000000000000000000000000000000000000600052604160045260246000fdfea26469706673582212200f70b17ce67ce8c0b3a5de459bf1395fca9d41b0b733dc4be268fcd85fc38f4f64736f6c63430008150033"
}