{
  "address": "0xE83d8b0A5FF31c14bBAD2FcaFD325E7cD8E06963",
  "abi": [
    {
      "inputs": [
        {
          "internalType": "uint8",
          "name": "mainSource_",
          "type": "uint8"
        },
        {
          "components": [
            {
              "internalType": "uint8",
              "name": "hops",
              "type": "uint8"
            },
            {
              "components": [
                {
                  "internalType": "contract IChainlinkAggregatorV3",
                  "name": "feed",
                  "type": "address"
                },
                {
                  "internalType": "bool",
                  "name": "invertRate",
                  "type": "bool"
                },
                {
                  "internalType": "uint256",
                  "name": "token0Decimals",
                  "type": "uint256"
                }
              ],
              "internalType": "struct ChainlinkStructs.ChainlinkFeedData",
              "name": "feed1",
              "type": "tuple"
            },
            {
              "components": [
                {
                  "internalType": "contract IChainlinkAggregatorV3",
                  "name": "feed",
                  "type": "address"
                },
                {
                  "internalType": "bool",
                  "name": "invertRate",
                  "type": "bool"
                },
                {
                  "internalType": "uint256",
                  "name": "token0Decimals",
                  "type": "uint256"
                }
              ],
              "internalType": "struct ChainlinkStructs.ChainlinkFeedData",
              "name": "feed2",
              "type": "tuple"
            },
            {
              "components": [
                {
                  "internalType": "contract IChainlinkAggregatorV3",
                  "name": "feed",
                  "type": "address"
                },
                {
                  "internalType": "bool",
                  "name": "invertRate",
                  "type": "bool"
                },
                {
                  "internalType": "uint256",
                  "name": "token0Decimals",
                  "type": "uint256"
                }
              ],
              "internalType": "struct ChainlinkStructs.ChainlinkFeedData",
              "name": "feed3",
              "type": "tuple"
            }
          ],
          "internalType": "struct ChainlinkStructs.ChainlinkConstructorParams",
          "name": "chainlinkParams_",
          "type": "tuple"
        },
        {
          "components": [
            {
              "internalType": "contract IRedstoneOracle",
              "name": "oracle",
              "type": "address"
            },
            {
              "internalType": "bool",
              "name": "invertRate",
              "type": "bool"
            },
            {
              "internalType": "uint256",
              "name": "token0Decimals",
              "type": "uint256"
            }
          ],
          "internalType": "struct RedstoneStructs.RedstoneOracleData",
          "name": "redstoneOracle_",
          "type": "tuple"
        }
      ],
      "stateMutability": "nonpayable",
      "type": "constructor"
    },
    {
      "inputs": [
        {
          "internalType": "uint256",
          "name": "errorId_",
          "type": "uint256"
        }
      ],
      "name": "FluidOracleError",
      "type": "error"
    },
    {
      "inputs": [],
      "name": "FALLBACK_ORACLE_MAIN_SOURCE",
      "outputs": [
        {
          "internalType": "uint8",
          "name": "",
          "type": "uint8"
        }
      ],
      "stateMutability": "view",
      "type": "function"
    },
    {
      "inputs": [],
      "name": "chainlinkOracleData",
      "outputs": [
        {
          "internalType": "uint256",
          "name": "chainlinkExchangeRate_",
          "type": "uint256"
        },
        {
          "internalType": "contract IChainlinkAggregatorV3",
          "name": "chainlinkFeed1_",
          "type": "address"
        },
        {
          "internalType": "bool",
          "name": "chainlinkInvertRate1_",
          "type": "bool"
        },
        {
          "internalType": "uint256",
          "name": "chainlinkExchangeRate1_",
          "type": "uint256"
        },
        {
          "internalType": "contract IChainlinkAggregatorV3",
          "name": "chainlinkFeed2_",
          "type": "address"
        },
        {
          "internalType": "bool",
          "name": "chainlinkInvertRate2_",
          "type": "bool"
        },
        {
          "internalType": "uint256",
          "name": "chainlinkExchangeRate2_",
          "type": "uint256"
        },
        {
          "internalType": "contract IChainlinkAggregatorV3",
          "name": "chainlinkFeed3_",
          "type": "address"
        },
        {
          "internalType": "bool",
          "name": "chainlinkInvertRate3_",
          "type": "bool"
        },
        {
          "internalType": "uint256",
          "name": "chainlinkExchangeRate3_",
          "type": "uint256"
        }
      ],
      "stateMutability": "view",
      "type": "function"
    },
    {
      "inputs": [],
      "name": "getExchangeRate",
      "outputs": [
        {
          "internalType": "uint256",
          "name": "exchangeRate_",
          "type": "uint256"
        }
      ],
      "stateMutability": "view",
      "type": "function"
    },
    {
      "inputs": [],
      "name": "getExchangeRateLiquidate",
      "outputs": [
        {
          "internalType": "uint256",
          "name": "exchangeRate_",
          "type": "uint256"
        }
      ],
      "stateMutability": "view",
      "type": "function"
    },
    {
      "inputs": [],
      "name": "getExchangeRateOperate",
      "outputs": [
        {
          "internalType": "uint256",
          "name": "exchangeRate_",
          "type": "uint256"
        }
      ],
      "stateMutability": "view",
      "type": "function"
    },
    {
      "inputs": [],
      "name": "redstoneOracleData",
      "outputs": [
        {
          "internalType": "uint256",
          "name": "redstoneExchangeRate_",
          "type": "uint256"
        },
        {
          "internalType": "contract IRedstoneOracle",
          "name": "redstoneOracle_",
          "type": "address"
        },
        {
          "internalType": "bool",
          "name": "redstoneInvertRate_",
          "type": "bool"
        }
      ],
      "stateMutability": "view",
      "type": "function"
    }
  ],
  "transactionHash": "0xf6dc385e4a9ba7d65de4911c57041fe35699640a39b7f9898678555411bea15a",
  "args": [
    1,
    {
      "hops": 2,
      "feed1": {
        "feed": "0xF4030086522a5bEEa4988F8cA5B36dbC97BeE88c",
        "invertRate": false,
        "token0Decimals": 8
      },
      "feed2": {
        "feed": "0x3E7d1eAB13ad0104d2750B8863b489D65364e32D",
        "invertRate": true,
        "token0Decimals": 6
      },
      "feed3": {
        "feed": "0x0000000000000000000000000000000000000000",
        "invertRate": false,
        "token0Decimals": 0
      }
    },
    {
      "oracle": "0x0000000000000000000000000000000000000000",
      "invertRate": false,
      "token0Decimals": 0
    }
  ],
  "numDeployments": 1,
  "solcInputHash": "7ea6a03437971b2bd8979b983d3f0850",
  "bytecode": "0x6102c060405261dead610100523480156200001957600080fd5b5060405162001608380380620016088339810160408190526200003c916200051f565b805183908390839082906001600160a01b0316156200005c578162000088565b6040518060600160405280610100516001600160a01b0316815260200160001515815260200160018152505b80516001600160a01b03161580620000a257506040810151155b15620000ca5760405163c82fc46560e01b815261fa0160048201526024015b60405180910390fd5b80516001600160a01b039081166080526020820151151560a0526101005182518216911614620001195760408101516200010690601b62000624565b6200011390600a6200073d565b6200011c565b60015b60c0526101005181516001600160a01b039081169116146200015d5760408101516200014a90601b62000752565b6200015790600a6200073d565b62000160565b60015b60e052508051600160ff90911610806200018157506003816000015160ff16115b80620001aa57506020810151516001600160a01b03161580620001aa5750602081015160400151155b80620001e557506001816000015160ff16118015620001e557506040810151516001600160a01b03161580620001e557506040808201510151155b806200022157506002816000015160ff161180156200022157506060810151516001600160a01b03161580620002215750606081015160400151155b15620002455760405163c82fc46560e01b815261ee496004820152602401620000c1565b60208082018051516001600160a01b03908116610120526040808501805151831661014052606086018051519093166101605283518501511515610180525184015115156101a05290519092015115156101c052510151620002a990601b62000624565b620002b690600a6200073d565b6101e052602081015160400151620002d090601b62000752565b620002dd90600a6200073d565b610200528051600160ff90911611620002f85760016200031a565b60408082015101516200030d90601b62000624565b6200031a90600a6200073d565b610220528051600160ff909116116200033557600162000357565b60408082015101516200034a90601b62000752565b6200035790600a6200073d565b610240528051600260ff909116116200037257600162000395565b6060810151604001516200038890601b62000624565b6200039590600a6200073d565b610260528051600260ff90911611620003b0576001620003d3565b606081015160400151620003c690601b62000752565b620003d390600a6200073d565b6102805250600160ff84161080620003ee575060038360ff16115b15620004125760405163c82fc46560e01b815261fde96004820152602401620000c1565b505060ff166102a0525062000768915050565b805160ff811681146200043757600080fd5b919050565b604051606081016001600160401b03811182821017156200046d57634e487b7160e01b600052604160045260246000fd5b60405290565b604051608081016001600160401b03811182821017156200046d57634e487b7160e01b600052604160045260246000fd5b6001600160a01b0381168114620004ba57600080fd5b50565b805180151581146200043757600080fd5b600060608284031215620004e157600080fd5b620004eb6200043c565b90508151620004fa81620004a4565b81526200050a60208301620004bd565b60208201526040820151604082015292915050565b60008060008385036101c08112156200053757600080fd5b620005428562000425565b9350610140601f19820112156200055857600080fd5b6200056262000473565b620005706020870162000425565b8152620005818760408801620004ce565b6020820152620005958760a08801620004ce565b6040820152620005aa876101008801620004ce565b606082015280935050606061015f1982011215620005c757600080fd5b50620005d26200043c565b610160850151620005e381620004a4565b8152620005f46101808601620004bd565b60208201526101a094909401516040850152509093909250565b634e487b7160e01b600052601160045260246000fd5b818103818111156200063a576200063a6200060e565b92915050565b600181815b80851115620006815781600019048211156200066557620006656200060e565b808516156200067357918102915b93841c939080029062000645565b509250929050565b6000826200069a575060016200063a565b81620006a9575060006200063a565b8160018114620006c25760028114620006cd57620006ed565b60019150506200063a565b60ff841115620006e157620006e16200060e565b50506001821b6200063a565b5060208310610133831016604e8410600b841016171562000712575081810a6200063a565b6200071e838362000640565b80600019048211156200073557620007356200060e565b029392505050565b60006200074b838362000689565b9392505050565b808201808211156200063a576200063a6200060e565b60805160a05160c05160e05161010051610120516101405161016051610180516101a0516101c0516101e05161020051610220516102405161026051610280516102a051610d1e620008ea60003960008181607e01528181610a0a0152610a4301526000818161041501526107db0152600081816103f401526107ba01526000818161032301526106e401526000818161030201526106c3015260008181610239015261060101526000818161021801526105e0015260008181610372015281816103d30152610799015260008181610280015281816102e101526106a20152600081816101b2015281816101f701526105bf015260008181610351015281816103b201528181610728015261077801526000818161025f015281816102c0015281816106310152610681015260008181610191015281816101d6015261059e01526000610468015260006109b1015260006109e001526000818161050f015261098701526000818161049f015281816104ec01526108d80152610d1e6000f3fe608060405234801561001057600080fd5b50600436106100725760003560e01c80638e7bfbc0116100505780638e7bfbc01461015a578063e6aa216c14610170578063f3190c891461017057600080fd5b80633437eac4146100775780637557ca41146100ad57806388c3520914610120575b600080fd5b60405160ff7f00000000000000000000000000000000000000000000000000000000000000001681526020015b60405180910390f35b6100b5610178565b604080519a8b5273ffffffffffffffffffffffffffffffffffffffff998a1660208c0152971515978a01979097526060890195909552928616608088015290151560a087015260c086015290921660e0840152901515610100830152610120820152610140016100a4565b610128610461565b6040805193845273ffffffffffffffffffffffffffffffffffffffff90921660208401521515908201526060016100a4565b610162610534565b6040519081526020016100a4565b610162610588565b60008060008060008060008060008061018f610597565b7f00000000000000000000000000000000000000000000000000000000000000007f000000000000000000000000000000000000000000000000000000000000000061025d7f00000000000000000000000000000000000000000000000000000000000000007f00000000000000000000000000000000000000000000000000000000000000007f00000000000000000000000000000000000000000000000000000000000000007f0000000000000000000000000000000000000000000000000000000000000000610813565b7f00000000000000000000000000000000000000000000000000000000000000007f000000000000000000000000000000000000000000000000000000000000000073ffffffffffffffffffffffffffffffffffffffff82161561034c576103477f00000000000000000000000000000000000000000000000000000000000000007f00000000000000000000000000000000000000000000000000000000000000007f00000000000000000000000000000000000000000000000000000000000000007f0000000000000000000000000000000000000000000000000000000000000000610813565b61034f565b60005b7f00000000000000000000000000000000000000000000000000000000000000007f000000000000000000000000000000000000000000000000000000000000000073ffffffffffffffffffffffffffffffffffffffff82161561043e576104397f00000000000000000000000000000000000000000000000000000000000000007f00000000000000000000000000000000000000000000000000000000000000007f00000000000000000000000000000000000000000000000000000000000000007f0000000000000000000000000000000000000000000000000000000000000000610813565b610441565b60005b995099509950995099509950995099509950995090919293949596979899565b60008060007f000000000000000000000000000000000000000000000000000000000000000073ffffffffffffffffffffffffffffffffffffffff167f000000000000000000000000000000000000000000000000000000000000000073ffffffffffffffffffffffffffffffffffffffff16146104e6576104e16108d4565b6104e9565b60005b937f000000000000000000000000000000000000000000000000000000000000000093507f000000000000000000000000000000000000000000000000000000000000000092509050565b600061053e610a05565b5090506000819003610585576040517fc82fc465000000000000000000000000000000000000000000000000000000008152620101d1600482015260240160405180910390fd5b90565b6000610592610534565b905090565b60006106257f00000000000000000000000000000000000000000000000000000000000000007f00000000000000000000000000000000000000000000000000000000000000007f00000000000000000000000000000000000000000000000000000000000000007f0000000000000000000000000000000000000000000000000000000000000000610813565b905080158061066857507f000000000000000000000000000000000000000000000000000000000000000073ffffffffffffffffffffffffffffffffffffffff16155b156106705790565b61067c601b600a610bfb565b6107087f00000000000000000000000000000000000000000000000000000000000000007f00000000000000000000000000000000000000000000000000000000000000007f00000000000000000000000000000000000000000000000000000000000000007f0000000000000000000000000000000000000000000000000000000000000000610813565b6107129083610c0e565b61071c9190610c25565b905080158061075f57507f000000000000000000000000000000000000000000000000000000000000000073ffffffffffffffffffffffffffffffffffffffff16155b156107675790565b610773601b600a610bfb565b6107ff7f00000000000000000000000000000000000000000000000000000000000000007f00000000000000000000000000000000000000000000000000000000000000007f00000000000000000000000000000000000000000000000000000000000000007f0000000000000000000000000000000000000000000000000000000000000000610813565b6108099083610c0e565b6105929190610c25565b60008473ffffffffffffffffffffffffffffffffffffffff1663feaf968c6040518163ffffffff1660e01b815260040160a060405180830381865afa92505050801561089a575060408051601f3d9081017fffffffffffffffffffffffffffffffffffffffffffffffffffffffffffffffe016820190925261089791810190610c7f565b60015b6108a6575060006108cc565b88156108c2576108b68488610c25565b955050505050506108cc565b6108b68885610c0e565b949350505050565b60007f000000000000000000000000000000000000000000000000000000000000000073ffffffffffffffffffffffffffffffffffffffff1663e6aa216c6040518163ffffffff1660e01b8152600401602060405180830381865afa92505050801561097b575060408051601f3d9081017fffffffffffffffffffffffffffffffffffffffffffffffffffffffffffffffe016820190925261097891810190610ccf565b60015b6109855750600090565b7f0000000000000000000000000000000000000000000000000000000000000000156109db576109d5817f0000000000000000000000000000000000000000000000000000000000000000610c25565b91505090565b6109d57f000000000000000000000000000000000000000000000000000000000000000082610c0e565b6000807f000000000000000000000000000000000000000000000000000000000000000060ff16600103610a4157610a3b610597565b91509091565b7f000000000000000000000000000000000000000000000000000000000000000060ff16600203610a8d57610a74610597565b915081600003610a8957506001610a3b6108d4565b9091565b610a956108d4565b915081600003610a8957506001610a3b610597565b7f4e487b7100000000000000000000000000000000000000000000000000000000600052601160045260246000fd5b600181815b80851115610b3257817fffffffffffffffffffffffffffffffffffffffffffffffffffffffffffffffff04821115610b1857610b18610aaa565b80851615610b2557918102915b93841c9390800290610ade565b509250929050565b600082610b4957506001610bf5565b81610b5657506000610bf5565b8160018114610b6c5760028114610b7657610b92565b6001915050610bf5565b60ff841115610b8757610b87610aaa565b50506001821b610bf5565b5060208310610133831016604e8410600b8410161715610bb5575081810a610bf5565b610bbf8383610ad9565b807fffffffffffffffffffffffffffffffffffffffffffffffffffffffffffffffff04821115610bf157610bf1610aaa565b0290505b92915050565b6000610c078383610b3a565b9392505050565b8082028115828204841417610bf557610bf5610aaa565b600082610c5b577f4e487b7100000000000000000000000000000000000000000000000000000000600052601260045260246000fd5b500490565b805169ffffffffffffffffffff81168114610c7a57600080fd5b919050565b600080600080600060a08688031215610c9757600080fd5b610ca086610c60565b9450602086015193506040860151925060608601519150610cc360808701610c60565b90509295509295909350565b600060208284031215610ce157600080fd5b505191905056fea2646970667358221220df4f61c2f3cd2c38026ffacfa6a4c345e7e4aa719b40753c847527f1b22253d364736f6c63430008150033",
  "devdoc": {
    "kind": "dev",
    "methods": {
      "constructor": {
        "params": {
          "chainlinkParams_": "chainlink Oracle constructor params struct.",
          "mainSource_": "which oracle to use as main source: 1 = Chainlink, 2 = Redstone (other one is fallback).",
          "redstoneOracle_": "Redstone Oracle data. (address can be set to zero address if using Chainlink only)"
        }
      },
      "getExchangeRate()": {
        "details": "Deprecated. Use `getExchangeRateOperate()` and `getExchangeRateLiquidate()` instead. Only implemented for      backwards compatibility."
      }
    },
    "title": "Chainlink / Redstone Oracle (with fallback)",
    "version": 1
  },
  "userdoc": {
    "kind": "user",
    "methods": {
      "FALLBACK_ORACLE_MAIN_SOURCE()": {
        "notice": "which oracle to use as main source:          - 1 = Chainlink ONLY (no fallback)          - 2 = Chainlink with Redstone Fallback          - 3 = Redstone with Chainlink Fallback"
      },
      "chainlinkOracleData()": {
        "notice": "returns all Chainlink oracle related data as utility for easy off-chain use / block explorer in a single view method"
      },
      "constructor": {
        "notice": "sets the main source, Chainlink Oracle and Redstone Oracle data."
      },
      "getExchangeRateLiquidate()": {
        "notice": "Get the `exchangeRate_` between the underlying asset and the peg asset in 1e27 for liquidations"
      },
      "getExchangeRateOperate()": {
        "notice": "Get the `exchangeRate_` between the underlying asset and the peg asset in 1e27 for operates"
      },
      "redstoneOracleData()": {
        "notice": "returns all Redstone oracle related data as utility for easy off-chain use / block explorer in a single view method"
      }
    },
    "notice": "Gets the exchange rate between the underlying asset and the peg asset by using:          the price from a Chainlink price feed or a Redstone Oracle with one of them being used as main source and          the other one acting as a fallback if the main source fails for any reason. Reverts if fetched rate is 0.",
    "version": 1
  },
  "storageLayout": {
    "storage": [],
    "types": null
  }
}