{
  "address": "0xEA0C58bE3133Cb7f035faCF45cb1d4F84CF178B4",
  "abi": [
    {
      "inputs": [
        {
          "internalType": "contract IWstETH",
          "name": "wstETH",
          "type": "address"
        },
        {
          "internalType": "contract IWeETH",
          "name": "weETH",
          "type": "address"
        }
      ],
      "stateMutability": "nonpayable",
      "type": "constructor"
    },
    {
      "inputs": [
        {
          "internalType": "uint256",
          "name": "errorId_",
          "type": "uint256"
        }
      ],
      "name": "FluidOracleError",
      "type": "error"
    },
    {
      "inputs": [],
      "name": "getExchangeRate",
      "outputs": [
        {
          "internalType": "uint256",
          "name": "exchangeRate_",
          "type": "uint256"
        }
      ],
      "stateMutability": "view",
      "type": "function"
    },
    {
      "inputs": [],
      "name": "getExchangeRateLiquidate",
      "outputs": [
        {
          "internalType": "uint256",
          "name": "exchangeRate_",
          "type": "uint256"
        }
      ],
      "stateMutability": "view",
      "type": "function"
    },
    {
      "inputs": [],
      "name": "getExchangeRateOperate",
      "outputs": [
        {
          "internalType": "uint256",
          "name": "exchangeRate_",
          "type": "uint256"
        }
      ],
      "stateMutability": "view",
      "type": "function"
    },
    {
      "inputs": [],
      "name": "weETHOracleData",
      "outputs": [
        {
          "internalType": "uint256",
          "name": "weETHExchangeRate_",
          "type": "uint256"
        },
        {
          "internalType": "contract IWeETH",
          "name": "weETH_",
          "type": "address"
        }
      ],
      "stateMutability": "view",
      "type": "function"
    },
    {
      "inputs": [],
      "name": "wstETHOracleData",
      "outputs": [
        {
          "internalType": "uint256",
          "name": "wstETHExchangeRate_",
          "type": "uint256"
        },
        {
          "internalType": "contract IWstETH",
          "name": "wstETH_",
          "type": "address"
        }
      ],
      "stateMutability": "view",
      "type": "function"
    }
  ],
  "transactionHash": "0xdd9a4260e8ab7cbffbb964eb13a28d84efefaa0f64a10564a276a8055b736808",
  "args": [
    "0x7f39C581F595B53c5cb19bD0b3f8dA6c935E2Ca0",
    "0xcd5fe23c85820f7b72d0926fc9b05b43e359b7ee"
  ],
  "numDeployments": 1,
  "solcInputHash": "1989963ad64c4704dbe1170530c79d20",
  "bytecode": "0x6101006040523480156200001257600080fd5b506040516200090538038062000905833981016040819052620000359162000110565b80826001600160a01b038116620000685760405163c82fc46560e01b815261f61960048201526024015b60405180910390fd5b6001600160a01b03811660a052620000836012601b62000165565b6200009090600a6200027e565b608052506001600160a01b038116620000c25760405163c82fc46560e01b81526201117160048201526024016200005f565b6001600160a01b03811660e052620000dd6012601b62000165565b620000ea90600a6200027e565b60c0525062000293915050565b6001600160a01b03811681146200010d57600080fd5b50565b600080604083850312156200012457600080fd5b82516200013181620000f7565b60208401519092506200014481620000f7565b809150509250929050565b634e487b7160e01b600052601160045260246000fd5b818103818111156200017b576200017b6200014f565b92915050565b600181815b80851115620001c2578160001904821115620001a657620001a66200014f565b80851615620001b457918102915b93841c939080029062000186565b509250929050565b600082620001db575060016200017b565b81620001ea575060006200017b565b81600181146200020357600281146200020e576200022e565b60019150506200017b565b60ff8411156200022257620002226200014f565b50506001821b6200017b565b5060208310610133831016604e8410600b841016171562000253575081810a6200017b565b6200025f838362000181565b80600019048211156200027657620002766200014f565b029392505050565b60006200028c8383620001ca565b9392505050565b60805160a05160c05160e05161061d620002e86000396000818160d7015281816101cf0152610315015260006102de0152600081816101000152818161027601526103af0152600061038e015261061d6000f3fe608060405234801561001057600080fd5b50600436106100675760003560e01c8063dfaba9b511610050578063dfaba9b5146100b9578063e6aa216c146100c1578063f3190c89146100c157600080fd5b80631b3904f21461006c5780638e7bfbc0146100a3575b600080fd5b6100746100c9565b6040805192835273ffffffffffffffffffffffffffffffffffffffff9091166020830152015b60405180910390f35b6100ab6100fc565b60405190815260200161009a565b610074610268565b6100ab61029b565b6000806100d46102a5565b927f000000000000000000000000000000000000000000000000000000000000000092509050565b60007f000000000000000000000000000000000000000000000000000000000000000073ffffffffffffffffffffffffffffffffffffffff1663035faf826040518163ffffffff1660e01b8152600401602060405180830381865afa158015610169573d6000803e3d6000fd5b505050506040513d601f19601f8201168201806040525081019061018d9190610418565b610199601b600a610582565b6040517f94626044000000000000000000000000000000000000000000000000000000008152670de0b6b3a764000060048201527f000000000000000000000000000000000000000000000000000000000000000073ffffffffffffffffffffffffffffffffffffffff1690639462604490602401602060405180830381865afa15801561022b573d6000803e3d6000fd5b505050506040513d601f19601f8201168201806040525081019061024f9190610418565b6102599190610595565b61026391906105ac565b905090565b60008061027361038a565b927f000000000000000000000000000000000000000000000000000000000000000092509050565b60006102636100fc565b6040517f94626044000000000000000000000000000000000000000000000000000000008152670de0b6b3a764000060048201526000907f00000000000000000000000000000000000000000000000000000000000000009073ffffffffffffffffffffffffffffffffffffffff7f00000000000000000000000000000000000000000000000000000000000000001690639462604490602401602060405180830381865afa15801561035c573d6000803e3d6000fd5b505050506040513d601f19601f820116820180604052508101906103809190610418565b6102639190610595565b60007f00000000000000000000000000000000000000000000000000000000000000007f000000000000000000000000000000000000000000000000000000000000000073ffffffffffffffffffffffffffffffffffffffff1663035faf826040518163ffffffff1660e01b8152600401602060405180830381865afa15801561035c573d6000803e3d6000fd5b60006020828403121561042a57600080fd5b5051919050565b7f4e487b7100000000000000000000000000000000000000000000000000000000600052601160045260246000fd5b600181815b808511156104b957817fffffffffffffffffffffffffffffffffffffffffffffffffffffffffffffffff0482111561049f5761049f610431565b808516156104ac57918102915b93841c9390800290610465565b509250929050565b6000826104d05750600161057c565b816104dd5750600061057c565b81600181146104f357600281146104fd57610519565b600191505061057c565b60ff84111561050e5761050e610431565b50506001821b61057c565b5060208310610133831016604e8410600b841016171561053c575081810a61057c565b6105468383610460565b807fffffffffffffffffffffffffffffffffffffffffffffffffffffffffffffffff0482111561057857610578610431565b0290505b92915050565b600061058e83836104c1565b9392505050565b808202811582820484141761057c5761057c610431565b6000826105e2577f4e487b7100000000000000000000000000000000000000000000000000000000600052601260045260246000fd5b50049056fea2646970667358221220443b43615811dec1c8493be8af14df2045b7032acf9a531a0319d7f3df79b46e64736f6c63430008150033",
  "devdoc": {
    "kind": "dev",
    "methods": {
      "constructor": {
        "params": {
          "weETH": "address of the weETH contract",
          "wstETH": "address of the wstETH contract"
        }
      },
      "getExchangeRate()": {
        "details": "Deprecated. Use `getExchangeRateOperate()` and `getExchangeRateLiquidate()` instead. Only implemented for      backwards compatibility."
      }
    },
    "title": "Oracle for weETH (Etherfi's wrapped eETH) to wstETH. wstETH is the debt token here (get amount of wstETH for 1 weETH)",
    "version": 1
  },
  "userdoc": {
    "kind": "user",
    "methods": {
      "getExchangeRateLiquidate()": {
        "notice": "Get the `exchangeRate_` between the underlying asset and the peg asset in 1e27 for liquidations"
      },
      "getExchangeRateOperate()": {
        "notice": "Get the `exchangeRate_` between the underlying asset and the peg asset in 1e27 for operates"
      },
      "weETHOracleData()": {
        "notice": "returns all weETH oracle related data as utility for easy off-chain use / block explorer in a single view method"
      },
      "wstETHOracleData()": {
        "notice": "returns all wWtETH oracle related data as utility for easy off-chain use / block explorer in a single view method"
      }
    },
    "version": 1
  },
  "storageLayout": {
    "storage": [],
    "types": null
  }
}