{
  "address": "0xf19920EcfBb9DaA45cE9b1B03636d63EE78896C0",
  "abi": [
    {
      "inputs": [
        {
          "internalType": "string",
          "name": "infoName_",
          "type": "string"
        },
        {
          "internalType": "contract IWstETH",
          "name": "wstETH_",
          "type": "address"
        }
      ],
      "stateMutability": "nonpayable",
      "type": "constructor"
    },
    {
      "inputs": [
        {
          "internalType": "uint256",
          "name": "errorId_",
          "type": "uint256"
        }
      ],
      "name": "FluidOracleError",
      "type": "error"
    },
    {
      "inputs": [],
      "name": "centerPrice",
      "outputs": [
        {
          "internalType": "uint256",
          "name": "price_",
          "type": "uint256"
        }
      ],
      "stateMutability": "view",
      "type": "function"
    },
    {
      "inputs": [],
      "name": "infoName",
      "outputs": [
        {
          "internalType": "string",
          "name": "",
          "type": "string"
        }
      ],
      "stateMutability": "view",
      "type": "function"
    },
    {
      "inputs": [],
      "name": "wstETHOracleData",
      "outputs": [
        {
          "internalType": "uint256",
          "name": "wstETHExchangeRate_",
          "type": "uint256"
        },
        {
          "internalType": "contract IWstETH",
          "name": "wstETH_",
          "type": "address"
        }
      ],
      "stateMutability": "view",
      "type": "function"
    }
  ],
  "transactionHash": "0x97e197bbdf8e4d14b45af488fb6a16fc9681068a6c4fed5fb4aca7a232129d2c",
  "args": [
    [
      "WSTETH for 1 STETH",
      "0x7f39C581F595B53c5cb19bD0b3f8dA6c935E2Ca0"
    ]
  ],
  "numDeployments": 1,
  "linkedData": {
    "nonce": "1"
  },
  "bytecode": "0x60e06040523480156200001157600080fd5b506040516200081f3803806200081f83398101604081905262000034916200010a565b80826020815111806200004657508051155b156200006e5760405163c82fc46560e01b815261ea6a60048201526024015b60405180910390fd5b602001516080526001600160a01b038116620000a25760405163c82fc46560e01b815261f619600482015260240162000065565b6001600160a01b03811660c052620000bd6012601b62000208565b620000ca90600a62000321565b60a0525062000336915050565b634e487b7160e01b600052604160045260246000fd5b80516001600160a01b03811681146200010557600080fd5b919050565b600080604083850312156200011e57600080fd5b82516001600160401b03808211156200013657600080fd5b818501915085601f8301126200014b57600080fd5b815181811115620001605762000160620000d7565b604051601f8201601f19908116603f011681019083821181831017156200018b576200018b620000d7565b81604052828152602093508884848701011115620001a857600080fd5b600091505b82821015620001cc5784820184015181830185015290830190620001ad565b6000848483010152809650505050620001e7818601620000ed565b925050509250929050565b634e487b7160e01b600052601160045260246000fd5b818103818111156200021e576200021e620001f2565b92915050565b600181815b8085111562000265578160001904821115620002495762000249620001f2565b808516156200025757918102915b93841c939080029062000229565b509250929050565b6000826200027e575060016200021e565b816200028d575060006200021e565b8160018114620002a65760028114620002b157620002d1565b60019150506200021e565b60ff841115620002c557620002c5620001f2565b50506001821b6200021e565b5060208310610133831016604e8410600b8410161715620002f6575081810a6200021e565b62000302838362000224565b8060001904821115620003195762000319620001f2565b029392505050565b60006200032f83836200026d565b9392505050565b60805160a05160c0516104ac620003736000396000818161021f01526102780152600061025701526000818160be015261018301526104ac6000f3fe608060405234801561001057600080fd5b50600436106100415760003560e01c8063abd5f95d14610046578063dfaba9b514610064578063f763f7a614610096575b600080fd5b61004e6100ac565b60405161005b919061030f565b60405180910390f35b61006c610211565b6040805192835273ffffffffffffffffffffffffffffffffffffffff90911660208301520161005b565b61009e610244565b60405190815260200161005b565b606060005b60208110801561011757507f000000000000000000000000000000000000000000000000000000000000000081602081106100ee576100ee61037b565b1a60f81b7fff000000000000000000000000000000000000000000000000000000000000001615155b1561012e5780610126816103d9565b9150506100b1565b60008167ffffffffffffffff81111561014957610149610411565b6040519080825280601f01601f191660200182016040528015610173576020820181803683370190505b50905060005b8281101561020a577f000000000000000000000000000000000000000000000000000000000000000081602081106101b3576101b361037b565b1a60f81b8282815181106101c9576101c961037b565b60200101907effffffffffffffffffffffffffffffffffffffffffffffffffffffffffffff1916908160001a90535080610202816103d9565b915050610179565b5092915050565b60008061021c610253565b927f000000000000000000000000000000000000000000000000000000000000000092509050565b600061024e610253565b905090565b60007f00000000000000000000000000000000000000000000000000000000000000007f000000000000000000000000000000000000000000000000000000000000000073ffffffffffffffffffffffffffffffffffffffff16639576a0c86040518163ffffffff1660e01b8152600401602060405180830381865afa1580156102e1573d6000803e3d6000fd5b505050506040513d601f19601f820116820180604052508101906103059190610440565b61024e9190610459565b600060208083528351808285015260005b8181101561033c57858101830151858201604001528201610320565b5060006040828601015260407fffffffffffffffffffffffffffffffffffffffffffffffffffffffffffffffe0601f8301168501019250505092915050565b7f4e487b7100000000000000000000000000000000000000000000000000000000600052603260045260246000fd5b7f4e487b7100000000000000000000000000000000000000000000000000000000600052601160045260246000fd5b60007fffffffffffffffffffffffffffffffffffffffffffffffffffffffffffffffff820361040a5761040a6103aa565b5060010190565b7f4e487b7100000000000000000000000000000000000000000000000000000000600052604160045260246000fd5b60006020828403121561045257600080fd5b5051919050565b8082028115828204841417610470576104706103aa565b9291505056fea264697066735822122073e3c8758e9aaabb3138fa006220b7418ce2d5d83a39a7bc6c1a746433106d5964736f6c63430008150033"
}