{
  "address": "0xf1442714E502723D5bB253B806Fd7555BEE0336C",
  "abi": [
    {
      "inputs": [
        {
          "internalType": "string",
          "name": "infoName_",
          "type": "string"
        },
        {
          "internalType": "contract IWstETH",
          "name": "wstETH_",
          "type": "address"
        },
        {
          "internalType": "uint256",
          "name": "minUpdateDiffPercent_",
          "type": "uint256"
        }
      ],
      "stateMutability": "nonpayable",
      "type": "constructor"
    },
    {
      "inputs": [
        {
          "internalType": "uint256",
          "name": "errorId_",
          "type": "uint256"
        }
      ],
      "name": "FluidOracleError",
      "type": "error"
    },
    {
      "anonymous": false,
      "inputs": [
        {
          "indexed": false,
          "internalType": "uint256",
          "name": "oldRate",
          "type": "uint256"
        },
        {
          "indexed": false,
          "internalType": "uint256",
          "name": "newRate",
          "type": "uint256"
        }
      ],
      "name": "LogRebalanceRate",
      "type": "event"
    },
    {
      "inputs": [],
      "name": "centerPrice",
      "outputs": [
        {
          "internalType": "uint256",
          "name": "price_",
          "type": "uint256"
        }
      ],
      "stateMutability": "view",
      "type": "function"
    },
    {
      "inputs": [],
      "name": "getExchangeRate",
      "outputs": [
        {
          "internalType": "uint256",
          "name": "exchangeRate_",
          "type": "uint256"
        }
      ],
      "stateMutability": "view",
      "type": "function"
    },
    {
      "inputs": [],
      "name": "getExchangeRateLiquidate",
      "outputs": [
        {
          "internalType": "uint256",
          "name": "exchangeRate_",
          "type": "uint256"
        }
      ],
      "stateMutability": "view",
      "type": "function"
    },
    {
      "inputs": [],
      "name": "getExchangeRateOperate",
      "outputs": [
        {
          "internalType": "uint256",
          "name": "exchangeRate_",
          "type": "uint256"
        }
      ],
      "stateMutability": "view",
      "type": "function"
    },
    {
      "inputs": [],
      "name": "infoName",
      "outputs": [
        {
          "internalType": "string",
          "name": "",
          "type": "string"
        }
      ],
      "stateMutability": "view",
      "type": "function"
    },
    {
      "inputs": [],
      "name": "rebalance",
      "outputs": [],
      "stateMutability": "nonpayable",
      "type": "function"
    },
    {
      "inputs": [],
      "name": "stEthPerToken",
      "outputs": [
        {
          "internalType": "uint256",
          "name": "",
          "type": "uint256"
        }
      ],
      "stateMutability": "view",
      "type": "function"
    },
    {
      "inputs": [],
      "name": "tokensPerStEth",
      "outputs": [
        {
          "internalType": "uint256",
          "name": "",
          "type": "uint256"
        }
      ],
      "stateMutability": "view",
      "type": "function"
    }
  ],
  "transactionHash": "0x47520c4825dbbdac2c9671addd7387445d318f8206d6da6d6fc31bca84b181d6",
  "args": [
    [
      "wstETH <> stETH exchange rate",
      "0x7f39C581F595B53c5cb19bD0b3f8dA6c935E2Ca0",
      1
    ]
  ],
  "numDeployments": 1,
  "linkedData": {
    "nonce": "5"
  },
  "bytecode": "0x60e060405234801561001057600080fd5b506040516108fc3803806108fc83398101604081905261002f9161018a565b8260208151118061003f57508051155b156100665760405163c82fc46560e01b815261ea6a60048201526024015b60405180910390fd5b60200151608052816001600160a01b0381166100995760405163c82fc46560e01b815261ebbf600482015260240161005d565b8115806100a85750620186a082115b156100ca5760405163c82fc46560e01b815261ebbf600482015260240161005d565b6001600160a01b03831660a081905260c0839052604080516301afd7c160e11b8152905163035faf82916004808201926020929091908290030181865afa158015610119573d6000803e3d6000fd5b505050506040513d601f19601f8201168201806040525081019061013d919061026d565b61014b90633b9aca00610286565b600055506102b192505050565b634e487b7160e01b600052604160045260246000fd5b80516001600160a01b038116811461018557600080fd5b919050565b60008060006060848603121561019f57600080fd5b83516001600160401b03808211156101b657600080fd5b818601915086601f8301126101ca57600080fd5b8151818111156101dc576101dc610158565b604051601f8201601f19908116603f0116810190838211818310171561020457610204610158565b8160405282815260209350898484870101111561022057600080fd5b600091505b828210156102425784820184015181830185015290830190610225565b600084848301015280975050505061025b81870161016e565b93505050604084015190509250925092565b60006020828403121561027f57600080fd5b5051919050565b80820281158282048414176102ab57634e487b7160e01b600052601160045260246000fd5b92915050565b60805160a05160c0516106166102e660003960006101e10152600060fa0152600081816102bc015261038101526106166000f3fe608060405234801561001057600080fd5b50600436106100885760003560e01c8063abd5f95d1161005b578063abd5f95d146100c2578063e6aa216c146100b2578063f3190c89146100b2578063f763f7a6146100b257600080fd5b8063035faf821461008d5780637d7c2a1c146100a85780638e7bfbc0146100b25780639576a0c8146100ba575b600080fd5b6100956100d7565b6040519081526020015b60405180910390f35b6100b06100f0565b005b600054610095565b610095610284565b6100ca6102a5565b60405161009f919061040f565b6000633b9aca006000546100eb91906104d9565b905090565b60008054905060007f000000000000000000000000000000000000000000000000000000000000000073ffffffffffffffffffffffffffffffffffffffff1663035faf826040518163ffffffff1660e01b8152600401602060405180830381865afa158015610163573d6000803e3d6000fd5b505050506040513d601f19601f820116820180604052508101906101879190610514565b61019590633b9aca0061052d565b90506000818311156101be578282840361271002816101b6576101b661047b565b0490506101df565b828211156101df578283830361271002816101db576101db61047b565b0490505b7f0000000000000000000000000000000000000000000000000000000000000000811015610241576040517fc82fc46500000000000000000000000000000000000000000000000000000000815261ebc1600482015260240160405180910390fd5b600082905560408051848152602081018490527f95f03a932c8aced8238058ac39deeaf30f8ddcbf42ade5ad3ada32f0d1338a08910160405180910390a1505050565b600080546100eb90722cd76fe086b93ce2f768a00b22a000000000006104d9565b60606100eb606060005b60208110801561031557507f000000000000000000000000000000000000000000000000000000000000000081602081106102ec576102ec61054a565b1a60f81b7fff000000000000000000000000000000000000000000000000000000000000001615155b1561032c578061032481610579565b9150506102af565b60008167ffffffffffffffff811115610347576103476105b1565b6040519080825280601f01601f191660200182016040528015610371576020820181803683370190505b50905060005b82811015610408577f000000000000000000000000000000000000000000000000000000000000000081602081106103b1576103b161054a565b1a60f81b8282815181106103c7576103c761054a565b60200101907effffffffffffffffffffffffffffffffffffffffffffffffffffffffffffff1916908160001a9053508061040081610579565b915050610377565b5092915050565b600060208083528351808285015260005b8181101561043c57858101830151858201604001528201610420565b5060006040828601015260407fffffffffffffffffffffffffffffffffffffffffffffffffffffffffffffffe0601f8301168501019250505092915050565b7f4e487b7100000000000000000000000000000000000000000000000000000000600052601260045260246000fd5b7f4e487b7100000000000000000000000000000000000000000000000000000000600052601160045260246000fd5b60008261050f577f4e487b7100000000000000000000000000000000000000000000000000000000600052601260045260246000fd5b500490565b60006020828403121561052657600080fd5b5051919050565b8082028115828204841417610544576105446104aa565b92915050565b7f4e487b7100000000000000000000000000000000000000000000000000000000600052603260045260246000fd5b60007fffffffffffffffffffffffffffffffffffffffffffffffffffffffffffffffff82036105aa576105aa6104aa565b5060010190565b7f4e487b7100000000000000000000000000000000000000000000000000000000600052604160045260246000fdfea26469706673582212202360be25236f60012acdc6e9fa8eed291282862953853cf78849e79b9973641864736f6c63430008150033"
}