{
  "address": "0xf5fD6c6f936689018215CB10d7a5b99A43a39D28",
  "abi": [
    {
      "inputs": [
        {
          "internalType": "contract IFluidReserveContract",
          "name": "reserveContract_",
          "type": "address"
        },
        {
          "internalType": "contract IFluidVaultT1",
          "name": "vault_",
          "type": "address"
        },
        {
          "internalType": "contract IFluidLiquidity",
          "name": "liquidity_",
          "type": "address"
        },
        {
          "internalType": "uint256",
          "name": "rewardsAmt_",
          "type": "uint256"
        },
        {
          "internalType": "uint256",
          "name": "duration_",
          "type": "uint256"
        },
        {
          "internalType": "address",
          "name": "initiator_",
          "type": "address"
        },
        {
          "internalType": "address",
          "name": "debtToken_",
          "type": "address"
        },
        {
          "internalType": "address",
          "name": "governance_",
          "type": "address"
        }
      ],
      "stateMutability": "nonpayable",
      "type": "constructor"
    },
    {
      "inputs": [
        {
          "internalType": "uint256",
          "name": "colLiquidated",
          "type": "uint256"
        },
        {
          "internalType": "uint256",
          "name": "debtLiquidated",
          "type": "uint256"
        }
      ],
      "name": "FluidLiquidateResult",
      "type": "error"
    },
    {
      "inputs": [
        {
          "internalType": "uint256",
          "name": "errorId_",
          "type": "uint256"
        }
      ],
      "name": "FluidVaultError",
      "type": "error"
    },
    {
      "anonymous": false,
      "inputs": [
        {
          "indexed": false,
          "internalType": "uint256",
          "name": "rewardsAmount",
          "type": "uint256"
        },
        {
          "indexed": false,
          "internalType": "uint256",
          "name": "duration",
          "type": "uint256"
        }
      ],
      "name": "LogNextRewardsQueued",
      "type": "event"
    },
    {
      "anonymous": false,
      "inputs": [
        {
          "indexed": false,
          "internalType": "uint256",
          "name": "startTime",
          "type": "uint256"
        },
        {
          "indexed": false,
          "internalType": "uint256",
          "name": "endTime",
          "type": "uint256"
        }
      ],
      "name": "LogRewardsStarted",
      "type": "event"
    },
    {
      "anonymous": false,
      "inputs": [
        {
          "indexed": true,
          "internalType": "address",
          "name": "vault",
          "type": "address"
        },
        {
          "indexed": false,
          "internalType": "uint256",
          "name": "newMagnifier",
          "type": "uint256"
        }
      ],
      "name": "LogUpdateMagnifier",
      "type": "event"
    },
    {
      "inputs": [],
      "name": "GOVERNANCE",
      "outputs": [
        {
          "internalType": "address",
          "name": "",
          "type": "address"
        }
      ],
      "stateMutability": "view",
      "type": "function"
    },
    {
      "inputs": [],
      "name": "INITIATOR",
      "outputs": [
        {
          "internalType": "address",
          "name": "",
          "type": "address"
        }
      ],
      "stateMutability": "view",
      "type": "function"
    },
    {
      "inputs": [],
      "name": "LIQUIDITY",
      "outputs": [
        {
          "internalType": "contract IFluidLiquidity",
          "name": "",
          "type": "address"
        }
      ],
      "stateMutability": "view",
      "type": "function"
    },
    {
      "inputs": [],
      "name": "RESERVE_CONTRACT",
      "outputs": [
        {
          "internalType": "contract IFluidReserveContract",
          "name": "",
          "type": "address"
        }
      ],
      "stateMutability": "view",
      "type": "function"
    },
    {
      "inputs": [],
      "name": "VAULT",
      "outputs": [
        {
          "internalType": "contract IFluidVaultT1",
          "name": "",
          "type": "address"
        }
      ],
      "stateMutability": "view",
      "type": "function"
    },
    {
      "inputs": [],
      "name": "VAULT_DEBT_TOKEN",
      "outputs": [
        {
          "internalType": "address",
          "name": "",
          "type": "address"
        }
      ],
      "stateMutability": "view",
      "type": "function"
    },
    {
      "inputs": [],
      "name": "calculateBorrowMagnifier",
      "outputs": [
        {
          "internalType": "uint256",
          "name": "magnifier_",
          "type": "uint256"
        },
        {
          "internalType": "bool",
          "name": "ended_",
          "type": "bool"
        }
      ],
      "stateMutability": "view",
      "type": "function"
    },
    {
      "inputs": [],
      "name": "currentBorrowMagnifier",
      "outputs": [
        {
          "internalType": "uint256",
          "name": "",
          "type": "uint256"
        }
      ],
      "stateMutability": "view",
      "type": "function"
    },
    {
      "inputs": [],
      "name": "duration",
      "outputs": [
        {
          "internalType": "uint40",
          "name": "",
          "type": "uint40"
        }
      ],
      "stateMutability": "view",
      "type": "function"
    },
    {
      "inputs": [],
      "name": "endTime",
      "outputs": [
        {
          "internalType": "uint40",
          "name": "",
          "type": "uint40"
        }
      ],
      "stateMutability": "view",
      "type": "function"
    },
    {
      "inputs": [],
      "name": "ended",
      "outputs": [
        {
          "internalType": "bool",
          "name": "",
          "type": "bool"
        }
      ],
      "stateMutability": "view",
      "type": "function"
    },
    {
      "inputs": [],
      "name": "getBorrowRate",
      "outputs": [
        {
          "internalType": "uint256",
          "name": "",
          "type": "uint256"
        }
      ],
      "stateMutability": "view",
      "type": "function"
    },
    {
      "inputs": [],
      "name": "nextDuration",
      "outputs": [
        {
          "internalType": "uint40",
          "name": "",
          "type": "uint40"
        }
      ],
      "stateMutability": "view",
      "type": "function"
    },
    {
      "inputs": [],
      "name": "nextRewardsAmount",
      "outputs": [
        {
          "internalType": "uint128",
          "name": "",
          "type": "uint128"
        }
      ],
      "stateMutability": "view",
      "type": "function"
    },
    {
      "inputs": [
        {
          "internalType": "uint256",
          "name": "rewardsAmount_",
          "type": "uint256"
        },
        {
          "internalType": "uint256",
          "name": "duration_",
          "type": "uint256"
        }
      ],
      "name": "queueNextRewards",
      "outputs": [],
      "stateMutability": "nonpayable",
      "type": "function"
    },
    {
      "inputs": [],
      "name": "rebalance",
      "outputs": [],
      "stateMutability": "nonpayable",
      "type": "function"
    },
    {
      "inputs": [],
      "name": "rewardsAmount",
      "outputs": [
        {
          "internalType": "uint128",
          "name": "",
          "type": "uint128"
        }
      ],
      "stateMutability": "view",
      "type": "function"
    },
    {
      "inputs": [],
      "name": "rewardsAmountPerYear",
      "outputs": [
        {
          "internalType": "uint256",
          "name": "",
          "type": "uint256"
        }
      ],
      "stateMutability": "view",
      "type": "function"
    },
    {
      "inputs": [],
      "name": "start",
      "outputs": [],
      "stateMutability": "nonpayable",
      "type": "function"
    },
    {
      "inputs": [
        {
          "internalType": "uint256",
          "name": "startTime_",
          "type": "uint256"
        }
      ],
      "name": "startAt",
      "outputs": [],
      "stateMutability": "nonpayable",
      "type": "function"
    },
    {
      "inputs": [],
      "name": "startTime",
      "outputs": [
        {
          "internalType": "uint40",
          "name": "",
          "type": "uint40"
        }
      ],
      "stateMutability": "view",
      "type": "function"
    },
    {
      "inputs": [],
      "name": "vaultBorrowTVL",
      "outputs": [
        {
          "internalType": "uint256",
          "name": "tvl_",
          "type": "uint256"
        }
      ],
      "stateMutability": "view",
      "type": "function"
    }
  ],
  "transactionHash": "0x05ac65e2d7172611fca8063355b2866070f0902569e35d266f27e124a5bda33f",
  "args": [
    "0x264786EF916af64a1DB19F513F24a3681734ce92",
    "0xE6b5D1CdC4935295c84772C4700932b4BFC93274",
    "0x52Aa899454998Be5b000Ad077a46Bbe360F4e497",
    "25000000000",
    2592000,
    "0x4F6F977aCDD1177DCD81aB83074855EcB9C2D49e",
    "0xdac17f958d2ee523a2206206994597c13d831ec7",
    "0x2386DC45AdDed673317eF068992F19421B481F4c"
  ],
  "numDeployments": 1,
  "solcInputHash": "b85f577b4ce931244d4435eca82b8227",
  "bytecode": "0x6101806040523480156200001257600080fd5b50604051620016fa380380620016fa83398101604081905262000035916200029d565b876001600160a01b03811662000067576040516330090e6560e11b8152618ca260048201526024015b60405180910390fd5b866001600160a01b03811662000095576040516330090e6560e11b8152618ca260048201526024016200005e565b886001600160a01b038116620000c3576040516330090e6560e11b8152618ca260048201526024016200005e565b856001600160a01b038116620000f1576040516330090e6560e11b8152618ca260048201526024016200005e565b856001600160a01b0381166200011f576040516330090e6560e11b8152618ca260048201526024016200005e565b856001600160a01b0381166200014d576040516330090e6560e11b8152618ca260048201526024016200005e565b8a158062000159575089155b156200017d576040516330090e6560e11b8152618ca360048201526024016200005e565b6001600160a01b038e811660a0528d1660c052600180546001600160801b0319166001600160801b038d1617905589620001bc6301e133808d62000347565b620001c891906200036d565b6002556000805464ffffffffff60301b1916660100000000000064ffffffffff8d16021790556001600160a01b0389811660e0528c8116608052888116610100528716610120526200021c60078962000246565b610140526200022d60058962000246565b6101605250620003909c50505050505050505050505050565b604080516001600160a01b03831660208201529081018390526000906060016040516020818303038152906040528051906020012090505b92915050565b6001600160a01b03811681146200029a57600080fd5b50565b600080600080600080600080610100898b031215620002bb57600080fd5b8851620002c88162000284565b60208a0151909850620002db8162000284565b60408a0151909750620002ee8162000284565b80965050606089015194506080890151935060a0890151620003108162000284565b60c08a0151909350620003238162000284565b60e08a0151909250620003368162000284565b809150509295985092959890939650565b80820281158282048414176200027e57634e487b7160e01b600052601160045260246000fd5b6000826200038b57634e487b7160e01b600052601260045260246000fd5b500490565b60805160a05160c05160e051610100516101205161014051610160516112c8620004326000396000610d4a015260005050600081816101f4015261044d015260006102d30152600081816103f70152610f3601526000818161028701528181610632015281816106fc01528181610b7b01528181610bee0152610c9a01526000818161034b01526108380152600081816102400152610d8a01526112c86000f3fe608060405234801561001057600080fd5b50600436106101825760003560e01c806368cdf77c116100d8578063bb1f3dbe1161008c578063e601fcfb11610066578063e601fcfb146103f2578063ed9db77414610419578063f691877e1461042257600080fd5b8063bb1f3dbe146103b1578063be9a6555146103ce578063c13d995c146103d657600080fd5b80637d7c2a1c116100bd5780637d7c2a1c14610399578063a3d3aa99146103a1578063ba1c5e80146103a957600080fd5b806368cdf77c1461036d57806378e979251461038357600080fd5b80633197cbb61161013a57806360c28bf91161011457806360c28bf9146102ce57806362c9f131146102f55780636449b8d71461034657600080fd5b80633197cbb614610262578063411557d1146102825780635e5c2a5f146102a957600080fd5b806312fa6feb1161016b57806312fa6feb146101d257806314627834146101ef5780632861c7d11461023b57600080fd5b806306786dd1146101875780630fb5a6b41461019c575b600080fd5b61019a610195366004611132565b610435565b005b6000546101b7906601000000000000900464ffffffffff1681565b60405164ffffffffff90911681526020015b60405180910390f35b6000546101df9060ff1681565b60405190151581526020016101c9565b6102167f000000000000000000000000000000000000000000000000000000000000000081565b60405173ffffffffffffffffffffffffffffffffffffffff90911681526020016101c9565b6102167f000000000000000000000000000000000000000000000000000000000000000081565b6000546101b7906b010000000000000000000000900464ffffffffff1681565b6102167f000000000000000000000000000000000000000000000000000000000000000081565b6000546101b790700100000000000000000000000000000000900464ffffffffff1681565b6102167f000000000000000000000000000000000000000000000000000000000000000081565b6001546103259070010000000000000000000000000000000090046fffffffffffffffffffffffffffffffff1681565b6040516fffffffffffffffffffffffffffffffff90911681526020016101c9565b6102167f000000000000000000000000000000000000000000000000000000000000000081565b6103756105fd565b6040519081526020016101c9565b6000546101b790610100900464ffffffffff1681565b61019a61080a565b610375610c61565b610375610d22565b6103b9610dff565b604080519283529015156020830152016101c9565b61019a610f19565b600154610325906fffffffffffffffffffffffffffffffff1681565b6102167f000000000000000000000000000000000000000000000000000000000000000081565b61037560025481565b61019a610430366004611154565b610f1e565b3373ffffffffffffffffffffffffffffffffffffffff7f000000000000000000000000000000000000000000000000000000000000000016146104ad576040517f60121cca000000000000000000000000000000000000000000000000000000008152618ca660048201526024015b60405180910390fd5b8115806104b8575080155b156104f3576040517f60121cca000000000000000000000000000000000000000000000000000000008152618ca360048201526024016104a4565b6000546b010000000000000000000000900464ffffffffff1642118061051b575060005460ff165b15610556576040517f60121cca000000000000000000000000000000000000000000000000000000008152618caa60048201526024016104a4565b600180546fffffffffffffffffffffffffffffffff908116700100000000000000000000000000000000918516820217909155600080547fffffffffffffffffffffff0000000000ffffffffffffffffffffffffffffffff1664ffffffffff841690920291909117905560408051838152602081018390527fc89c42b6214562420bb4037a7bd9d1eca184d112b08c89cd95fb1817a7c10c16910160405180910390a15050565b6040517fb5c736e4000000000000000000000000000000000000000000000000000000008152600060048201819052906092907f000000000000000000000000000000000000000000000000000000000000000073ffffffffffffffffffffffffffffffffffffffff169063b5c736e490602401602060405180830381865afa15801561068e573d6000803e3d6000fd5b505050506040513d601f19601f820116820180604052508101906106b2919061116d565b6040517fb5c736e400000000000000000000000000000000000000000000000000000000815260016004820152911c600881901c66ffffffffffffff1660ff9091161b91506000907f000000000000000000000000000000000000000000000000000000000000000073ffffffffffffffffffffffffffffffffffffffff16906309f0d8cb90829063b5c736e490602401602060405180830381865afa158015610760573d6000803e3d6000fd5b505050506040513d601f19601f82011682018060405250810190610784919061116d565b6040518263ffffffff1660e01b81526004016107a291815260200190565b608060405180830381865afa1580156107bf573d6000803e3d6000fd5b505050506040513d601f19601f820116820180604052508101906107e39190611186565b935050505064e8d4a5100081836107fa91906111eb565b6108049190611208565b91505090565b6040517f467c9eff0000000000000000000000000000000000000000000000000000000081523360048201527f000000000000000000000000000000000000000000000000000000000000000073ffffffffffffffffffffffffffffffffffffffff169063467c9eff906024016020604051808303816000875af1158015610896573d6000803e3d6000fd5b505050506040513d601f19601f820116820180604052508101906108ba9190611243565b6108f4576040517f60121cca000000000000000000000000000000000000000000000000000000008152618ca160048201526024016104a4565b6000806108ff610dff565b91509150808015610911575061271082145b15610afe57600054700100000000000000000000000000000000900464ffffffffff161580610966575060015470010000000000000000000000000000000090046fffffffffffffffffffffffffffffffff16155b1561099b57600080547fffffffffffffffffffffffffffffffffffffffffffffffffffffffffffffff00166001179055610afe565b600180547fffffffffffffffffffffffffffffffff0000000000000000000000000000000081166fffffffffffffffffffffffffffffffff700100000000000000000000000000000000928390048116919091179283905560005464ffffffffff908390041692610a14926301e13380929104166111eb565b610a1e9190611208565b60025560008054600180546fffffffffffffffffffffffffffffffff1690554264ffffffffff818116610100027fffffffffffffffffffffff0000000000ffffffffffffffffffff0000000000ff6601000000000000700100000000000000000000000000000000860484168102919091167fffffffffffffffffffffff0000000000ffffffffff00000000000000000000ff909516949094171793849055610ace93929092049091169061126c565b6000600b6101000a81548164ffffffffff021916908364ffffffffff160217905550610af8610dff565b90925090505b610b06610c61565b8203610b4c578015610b16575050565b6040517f60121cca000000000000000000000000000000000000000000000000000000008152618ca460048201526024016104a4565b6040517ff7a0a7e0000000000000000000000000000000000000000000000000000000008152600481018390527f000000000000000000000000000000000000000000000000000000000000000073ffffffffffffffffffffffffffffffffffffffff169063f7a0a7e090602401600060405180830381600087803b158015610bd457600080fd5b505af1158015610be8573d6000803e3d6000fd5b505050507f000000000000000000000000000000000000000000000000000000000000000073ffffffffffffffffffffffffffffffffffffffff167ffeb3b5c7ae5acdfc2e3abb4ed84d56c4da29799e1913895763c4c135aceacb4f83604051610c5491815260200190565b60405180910390a250505b565b6040517fb5c736e40000000000000000000000000000000000000000000000000000000081526001600482015260009061ffff906010907f000000000000000000000000000000000000000000000000000000000000000073ffffffffffffffffffffffffffffffffffffffff169063b5c736e490602401602060405180830381865afa158015610cf6573d6000803e3d6000fd5b505050506040513d601f19601f82011682018060405250810190610d1a919061116d565b901c16905090565b6040517fb5c736e40000000000000000000000000000000000000000000000000000000081527f00000000000000000000000000000000000000000000000000000000000000006004820152600090819073ffffffffffffffffffffffffffffffffffffffff7f0000000000000000000000000000000000000000000000000000000000000000169063b5c736e490602401602060405180830381865afa158015610dd1573d6000803e3d6000fd5b505050506040513d601f19601f82011682018060405250810190610df5919061116d565b61ffff1692915050565b6000806000610e0c6105fd565b60005490915064ffffffffff61010082048116916b010000000000000000000000900416811580610e3b575080155b80610e48575060005460ff165b15610e83576040517f60121cca000000000000000000000000000000000000000000000000000000008152618ca860048201526024016104a4565b80421115610e9a5750612710946001945092505050565b6000610ea4610d22565b9050600084612710600254610eb991906111eb565b610ec39190611208565b90508115610f0a57600082610eda612710846111eb565b610ee49190611208565b90506127108110610ef6576000610f02565b610f028161271061127f565b975050610f10565b61271096505b50505050509091565b610c5f425b3373ffffffffffffffffffffffffffffffffffffffff7f00000000000000000000000000000000000000000000000000000000000000001614610f91576040517f60121cca000000000000000000000000000000000000000000000000000000008152618ca560048201526024016104a4565b600054610100900464ffffffffff16151580610fc457506000546b010000000000000000000000900464ffffffffff1615155b15610fff576040517f60121cca000000000000000000000000000000000000000000000000000000008152618ca760048201526024016104a4565b428110806110185750611015426212750061126c565b81115b15611053576040517f60121cca000000000000000000000000000000000000000000000000000000008152618ca960048201526024016104a4565b6000805464ffffffffff808416610100027fffffffffffffffffffffffffffffffffffffffffffffffffffff0000000000ff90921691909117918290556110a59166010000000000009004168261126c565b600080547fffffffffffffffffffffffffffffffff0000000000ffffffffffffffffffffff166b01000000000000000000000064ffffffffff93841681029190911791829055604080516101008404851681529190920490921660208301527fc46a00a5f8de6e404178aaf0795f118716058fca1012ad21f1e0253a05188c44910160405180910390a150565b6000806040838503121561114557600080fd5b50508035926020909101359150565b60006020828403121561116657600080fd5b5035919050565b60006020828403121561117f57600080fd5b5051919050565b6000806000806080858703121561119c57600080fd5b505082516020840151604085015160609095015191969095509092509050565b7f4e487b7100000000000000000000000000000000000000000000000000000000600052601160045260246000fd5b8082028115828204841417611202576112026111bc565b92915050565b60008261123e577f4e487b7100000000000000000000000000000000000000000000000000000000600052601260045260246000fd5b500490565b60006020828403121561125557600080fd5b8151801515811461126557600080fd5b9392505050565b80820180821115611202576112026111bc565b81810381811115611202576112026111bc56fea264697066735822122018d94a3255b16ecb55055022040b9b2599a0c1f7df3e0a6429e13877b910590664736f6c63430008150033",
  "devdoc": {
    "kind": "dev",
    "methods": {
      "calculateBorrowMagnifier()": {
        "returns": {
          "magnifier_": "The calculated magnifier value."
        }
      },
      "constructor": {
        "params": {
          "debtToken_": "vault debt token address",
          "duration_": "rewards duration",
          "governance_": "governance address",
          "initiator_": "address that can start rewards with `start()`",
          "liquidity_": "Fluid liquidity address",
          "reserveContract_": "The address of the reserve contract where rebalancers are defined.",
          "rewardsAmt_": "Amounts of rewards to distribute",
          "vault_": "The vault to which this contract will apply new magnifier parameter."
        }
      },
      "getBorrowRate()": {
        "returns": {
          "_0": "The borrow rate as a uint256."
        }
      },
      "queueNextRewards(uint256,uint256)": {
        "details": "This function can only be called by the governance address.Reverts if the current rewards period has already ended.",
        "params": {
          "duration_": "The duration of the rewards program.",
          "rewardsAmount_": "The amount of rewards to be distributed."
        }
      },
      "startAt(uint256)": {
        "params": {
          "startTime_": "The timestamp at which to start the rewards."
        }
      }
    },
    "title": "VaultRewards",
    "version": 1
  },
  "userdoc": {
    "errors": {
      "FluidLiquidateResult(uint256,uint256)": [
        {
          "notice": "used to simulate liquidation to find the maximum liquidatable amounts"
        }
      ]
    },
    "events": {
      "LogNextRewardsQueued(uint256,uint256)": {
        "notice": "Emitted when next rewards are set"
      },
      "LogRewardsStarted(uint256,uint256)": {
        "notice": "Emitted when rewards are started"
      },
      "LogUpdateMagnifier(address,uint256)": {
        "notice": "Emitted when magnifier is updated"
      }
    },
    "kind": "user",
    "methods": {
      "calculateBorrowMagnifier()": {
        "notice": "Calculates the new borrow rate magnifier based on the current debt borrow (`vaultTVL()`)."
      },
      "constructor": {
        "notice": "Constructs the FluidVaultBorrowRewards contract."
      },
      "currentBorrowMagnifier()": {
        "notice": "returns the currently configured borrow magnifier at the `VAULT`."
      },
      "getBorrowRate()": {
        "notice": "Returns the current borrow rate from the liquidity contract."
      },
      "queueNextRewards(uint256,uint256)": {
        "notice": "Queues the next rewards with specified amount and duration."
      },
      "rebalance()": {
        "notice": "Rebalances the borrow rate magnifier based on the current debt borrow. Can only be called by an authorized rebalancer."
      },
      "start()": {
        "notice": "Starts the rewards at the current block timestamp."
      },
      "startAt(uint256)": {
        "notice": "Starts the rewards at a specified timestamp."
      },
      "vaultBorrowTVL()": {
        "notice": "returns the current total value locked as debt (TVL) in the `VAULT`."
      }
    },
    "notice": "This contract is designed to adjust the borrow rate magnifier for a vault based on the current debt borrow & borrow rate. The adjustment aims to dynamically scale the rewards given to lenders as the TVL in the vault changes The magnifier is adjusted based on a regular most used reward type where rewardRate = totalRewardsAnnually / totalborrow. Reward rate is applied by adjusting the borrow magnifier on vault. Adjustments are made via the rebalance function, which is restricted to be called by designated rebalancers only.",
    "version": 1
  },
  "storageLayout": {
    "storage": [
      {
        "astId": 5719,
        "contract": "contracts/protocols/vault/borrowRewards/main.sol:FluidVaultBorrowRewards",
        "label": "ended",
        "offset": 0,
        "slot": "0",
        "type": "t_bool"
      },
      {
        "astId": 5721,
        "contract": "contracts/protocols/vault/borrowRewards/main.sol:FluidVaultBorrowRewards",
        "label": "startTime",
        "offset": 1,
        "slot": "0",
        "type": "t_uint40"
      },
      {
        "astId": 5723,
        "contract": "contracts/protocols/vault/borrowRewards/main.sol:FluidVaultBorrowRewards",
        "label": "duration",
        "offset": 6,
        "slot": "0",
        "type": "t_uint40"
      },
      {
        "astId": 5725,
        "contract": "contracts/protocols/vault/borrowRewards/main.sol:FluidVaultBorrowRewards",
        "label": "endTime",
        "offset": 11,
        "slot": "0",
        "type": "t_uint40"
      },
      {
        "astId": 5727,
        "contract": "contracts/protocols/vault/borrowRewards/main.sol:FluidVaultBorrowRewards",
        "label": "nextDuration",
        "offset": 16,
        "slot": "0",
        "type": "t_uint40"
      },
      {
        "astId": 5729,
        "contract": "contracts/protocols/vault/borrowRewards/main.sol:FluidVaultBorrowRewards",
        "label": "rewardsAmount",
        "offset": 0,
        "slot": "1",
        "type": "t_uint128"
      },
      {
        "astId": 5731,
        "contract": "contracts/protocols/vault/borrowRewards/main.sol:FluidVaultBorrowRewards",
        "label": "nextRewardsAmount",
        "offset": 16,
        "slot": "1",
        "type": "t_uint128"
      },
      {
        "astId": 5733,
        "contract": "contracts/protocols/vault/borrowRewards/main.sol:FluidVaultBorrowRewards",
        "label": "rewardsAmountPerYear",
        "offset": 0,
        "slot": "2",
        "type": "t_uint256"
      }
    ],
    "types": {
      "t_bool": {
        "encoding": "inplace",
        "label": "bool",
        "numberOfBytes": "1"
      },
      "t_uint128": {
        "encoding": "inplace",
        "label": "uint128",
        "numberOfBytes": "16"
      },
      "t_uint256": {
        "encoding": "inplace",
        "label": "uint256",
        "numberOfBytes": "32"
      },
      "t_uint40": {
        "encoding": "inplace",
        "label": "uint40",
        "numberOfBytes": "5"
      }
    }
  }
}