{
  "address": "0xF794a0a4Ffc9021bA8e59a005633965b967fC9fa",
  "abi": [
    {
      "inputs": [
        {
          "internalType": "address",
          "name": "factory_",
          "type": "address"
        },
        {
          "internalType": "address",
          "name": "liquidity_",
          "type": "address"
        },
        {
          "internalType": "address",
          "name": "liquidityResolver_",
          "type": "address"
        },
        {
          "internalType": "address",
          "name": "deployer_",
          "type": "address"
        }
      ],
      "stateMutability": "nonpayable",
      "type": "constructor"
    },
    {
      "inputs": [],
      "name": "DEPLOYER_CONTRACT",
      "outputs": [
        {
          "internalType": "address",
          "name": "",
          "type": "address"
        }
      ],
      "stateMutability": "view",
      "type": "function"
    },
    {
      "inputs": [],
      "name": "FACTORY",
      "outputs": [
        {
          "internalType": "contract IFluidDexFactory",
          "name": "",
          "type": "address"
        }
      ],
      "stateMutability": "view",
      "type": "function"
    },
    {
      "inputs": [],
      "name": "LIQUIDITY",
      "outputs": [
        {
          "internalType": "contract IFluidLiquidity",
          "name": "",
          "type": "address"
        }
      ],
      "stateMutability": "view",
      "type": "function"
    },
    {
      "inputs": [],
      "name": "LIQUIDITY_RESOLVER",
      "outputs": [
        {
          "internalType": "contract IFluidLiquidityResolver",
          "name": "",
          "type": "address"
        }
      ],
      "stateMutability": "view",
      "type": "function"
    },
    {
      "inputs": [
        {
          "internalType": "address",
          "name": "dex_",
          "type": "address"
        },
        {
          "internalType": "uint256",
          "name": "token0Amt_",
          "type": "uint256"
        },
        {
          "internalType": "uint256",
          "name": "token1Amt_",
          "type": "uint256"
        },
        {
          "internalType": "uint256",
          "name": "maxSharesAmt_",
          "type": "uint256"
        }
      ],
      "name": "estimateBorrow",
      "outputs": [
        {
          "internalType": "uint256",
          "name": "shares_",
          "type": "uint256"
        }
      ],
      "stateMutability": "nonpayable",
      "type": "function"
    },
    {
      "inputs": [
        {
          "internalType": "address",
          "name": "dex_",
          "type": "address"
        },
        {
          "internalType": "uint256",
          "name": "shares_",
          "type": "uint256"
        },
        {
          "internalType": "uint256",
          "name": "minToken0Borrow_",
          "type": "uint256"
        },
        {
          "internalType": "uint256",
          "name": "minToken1Borrow_",
          "type": "uint256"
        }
      ],
      "name": "estimateBorrowPerfect",
      "outputs": [
        {
          "internalType": "uint256",
          "name": "token0Amt_",
          "type": "uint256"
        },
        {
          "internalType": "uint256",
          "name": "token1Amt_",
          "type": "uint256"
        }
      ],
      "stateMutability": "nonpayable",
      "type": "function"
    },
    {
      "inputs": [
        {
          "internalType": "address",
          "name": "dex_",
          "type": "address"
        },
        {
          "internalType": "uint256",
          "name": "token0Amt_",
          "type": "uint256"
        },
        {
          "internalType": "uint256",
          "name": "token1Amt_",
          "type": "uint256"
        },
        {
          "internalType": "uint256",
          "name": "minSharesAmt_",
          "type": "uint256"
        }
      ],
      "name": "estimateDeposit",
      "outputs": [
        {
          "internalType": "uint256",
          "name": "shares_",
          "type": "uint256"
        }
      ],
      "stateMutability": "payable",
      "type": "function"
    },
    {
      "inputs": [
        {
          "internalType": "address",
          "name": "dex_",
          "type": "address"
        },
        {
          "internalType": "uint256",
          "name": "shares_",
          "type": "uint256"
        },
        {
          "internalType": "uint256",
          "name": "maxToken0Deposit_",
          "type": "uint256"
        },
        {
          "internalType": "uint256",
          "name": "maxToken1Deposit_",
          "type": "uint256"
        }
      ],
      "name": "estimateDepositPerfect",
      "outputs": [
        {
          "internalType": "uint256",
          "name": "token0Amt_",
          "type": "uint256"
        },
        {
          "internalType": "uint256",
          "name": "token1Amt_",
          "type": "uint256"
        }
      ],
      "stateMutability": "payable",
      "type": "function"
    },
    {
      "inputs": [
        {
          "internalType": "address",
          "name": "dex_",
          "type": "address"
        },
        {
          "internalType": "uint256",
          "name": "token0Amt_",
          "type": "uint256"
        },
        {
          "internalType": "uint256",
          "name": "token1Amt_",
          "type": "uint256"
        },
        {
          "internalType": "uint256",
          "name": "minSharesAmt_",
          "type": "uint256"
        }
      ],
      "name": "estimatePayback",
      "outputs": [
        {
          "internalType": "uint256",
          "name": "shares_",
          "type": "uint256"
        }
      ],
      "stateMutability": "payable",
      "type": "function"
    },
    {
      "inputs": [
        {
          "internalType": "address",
          "name": "dex_",
          "type": "address"
        },
        {
          "internalType": "uint256",
          "name": "shares_",
          "type": "uint256"
        },
        {
          "internalType": "uint256",
          "name": "maxToken0Payback_",
          "type": "uint256"
        },
        {
          "internalType": "uint256",
          "name": "maxToken1Payback_",
          "type": "uint256"
        }
      ],
      "name": "estimatePaybackPerfect",
      "outputs": [
        {
          "internalType": "uint256",
          "name": "token0Amt_",
          "type": "uint256"
        },
        {
          "internalType": "uint256",
          "name": "token1Amt_",
          "type": "uint256"
        }
      ],
      "stateMutability": "payable",
      "type": "function"
    },
    {
      "inputs": [
        {
          "internalType": "address",
          "name": "dex_",
          "type": "address"
        },
        {
          "internalType": "uint256",
          "name": "shares_",
          "type": "uint256"
        },
        {
          "internalType": "uint256",
          "name": "maxToken0_",
          "type": "uint256"
        },
        {
          "internalType": "uint256",
          "name": "maxToken1_",
          "type": "uint256"
        }
      ],
      "name": "estimatePaybackPerfectInOneToken",
      "outputs": [
        {
          "internalType": "uint256",
          "name": "paybackAmt_",
          "type": "uint256"
        }
      ],
      "stateMutability": "payable",
      "type": "function"
    },
    {
      "inputs": [
        {
          "internalType": "address",
          "name": "dex_",
          "type": "address"
        },
        {
          "internalType": "bool",
          "name": "swap0to1_",
          "type": "bool"
        },
        {
          "internalType": "uint256",
          "name": "amountIn_",
          "type": "uint256"
        },
        {
          "internalType": "uint256",
          "name": "amountOutMin_",
          "type": "uint256"
        }
      ],
      "name": "estimateSwapIn",
      "outputs": [
        {
          "internalType": "uint256",
          "name": "amountOut_",
          "type": "uint256"
        }
      ],
      "stateMutability": "payable",
      "type": "function"
    },
    {
      "inputs": [
        {
          "internalType": "address",
          "name": "dex_",
          "type": "address"
        },
        {
          "internalType": "bool",
          "name": "swap0to1_",
          "type": "bool"
        },
        {
          "internalType": "uint256",
          "name": "amountOut_",
          "type": "uint256"
        },
        {
          "internalType": "uint256",
          "name": "amountInMax_",
          "type": "uint256"
        }
      ],
      "name": "estimateSwapOut",
      "outputs": [
        {
          "internalType": "uint256",
          "name": "amountIn_",
          "type": "uint256"
        }
      ],
      "stateMutability": "payable",
      "type": "function"
    },
    {
      "inputs": [
        {
          "internalType": "address",
          "name": "dex_",
          "type": "address"
        },
        {
          "internalType": "uint256",
          "name": "token0Amt_",
          "type": "uint256"
        },
        {
          "internalType": "uint256",
          "name": "token1Amt_",
          "type": "uint256"
        },
        {
          "internalType": "uint256",
          "name": "maxSharesAmt_",
          "type": "uint256"
        }
      ],
      "name": "estimateWithdraw",
      "outputs": [
        {
          "internalType": "uint256",
          "name": "shares_",
          "type": "uint256"
        }
      ],
      "stateMutability": "nonpayable",
      "type": "function"
    },
    {
      "inputs": [
        {
          "internalType": "address",
          "name": "dex_",
          "type": "address"
        },
        {
          "internalType": "uint256",
          "name": "shares_",
          "type": "uint256"
        },
        {
          "internalType": "uint256",
          "name": "minToken0Withdraw_",
          "type": "uint256"
        },
        {
          "internalType": "uint256",
          "name": "minToken1Withdraw_",
          "type": "uint256"
        }
      ],
      "name": "estimateWithdrawPerfect",
      "outputs": [
        {
          "internalType": "uint256",
          "name": "token0Amt_",
          "type": "uint256"
        },
        {
          "internalType": "uint256",
          "name": "token1Amt_",
          "type": "uint256"
        }
      ],
      "stateMutability": "nonpayable",
      "type": "function"
    },
    {
      "inputs": [
        {
          "internalType": "address",
          "name": "dex_",
          "type": "address"
        },
        {
          "internalType": "uint256",
          "name": "shares_",
          "type": "uint256"
        },
        {
          "internalType": "uint256",
          "name": "minToken0_",
          "type": "uint256"
        },
        {
          "internalType": "uint256",
          "name": "minToken1_",
          "type": "uint256"
        }
      ],
      "name": "estimateWithdrawPerfectInOneToken",
      "outputs": [
        {
          "internalType": "uint256",
          "name": "withdrawAmt_",
          "type": "uint256"
        }
      ],
      "stateMutability": "nonpayable",
      "type": "function"
    },
    {
      "inputs": [],
      "name": "getAllDexAddresses",
      "outputs": [
        {
          "internalType": "address[]",
          "name": "dexes_",
          "type": "address[]"
        }
      ],
      "stateMutability": "view",
      "type": "function"
    },
    {
      "inputs": [],
      "name": "getAllDexEntireDatas",
      "outputs": [
        {
          "components": [
            {
              "internalType": "address",
              "name": "dex",
              "type": "address"
            },
            {
              "components": [
                {
                  "internalType": "uint256",
                  "name": "dexId",
                  "type": "uint256"
                },
                {
                  "internalType": "address",
                  "name": "liquidity",
                  "type": "address"
                },
                {
                  "internalType": "address",
                  "name": "factory",
                  "type": "address"
                },
                {
                  "components": [
                    {
                      "internalType": "address",
                      "name": "shift",
                      "type": "address"
                    },
                    {
                      "internalType": "address",
                      "name": "admin",
                      "type": "address"
                    },
                    {
                      "internalType": "address",
                      "name": "colOperations",
                      "type": "address"
                    },
                    {
                      "internalType": "address",
                      "name": "debtOperations",
                      "type": "address"
                    },
                    {
                      "internalType": "address",
                      "name": "perfectOperationsAndOracle",
                      "type": "address"
                    }
                  ],
                  "internalType": "struct IFluidDexT1.Implementations",
                  "name": "implementations",
                  "type": "tuple"
                },
                {
                  "internalType": "address",
                  "name": "deployerContract",
                  "type": "address"
                },
                {
                  "internalType": "address",
                  "name": "token0",
                  "type": "address"
                },
                {
                  "internalType": "address",
                  "name": "token1",
                  "type": "address"
                },
                {
                  "internalType": "bytes32",
                  "name": "supplyToken0Slot",
                  "type": "bytes32"
                },
                {
                  "internalType": "bytes32",
                  "name": "borrowToken0Slot",
                  "type": "bytes32"
                },
                {
                  "internalType": "bytes32",
                  "name": "supplyToken1Slot",
                  "type": "bytes32"
                },
                {
                  "internalType": "bytes32",
                  "name": "borrowToken1Slot",
                  "type": "bytes32"
                },
                {
                  "internalType": "bytes32",
                  "name": "exchangePriceToken0Slot",
                  "type": "bytes32"
                },
                {
                  "internalType": "bytes32",
                  "name": "exchangePriceToken1Slot",
                  "type": "bytes32"
                },
                {
                  "internalType": "uint256",
                  "name": "oracleMapping",
                  "type": "uint256"
                }
              ],
              "internalType": "struct IFluidDexT1.ConstantViews",
              "name": "constantViews",
              "type": "tuple"
            },
            {
              "components": [
                {
                  "internalType": "uint256",
                  "name": "token0NumeratorPrecision",
                  "type": "uint256"
                },
                {
                  "internalType": "uint256",
                  "name": "token0DenominatorPrecision",
                  "type": "uint256"
                },
                {
                  "internalType": "uint256",
                  "name": "token1NumeratorPrecision",
                  "type": "uint256"
                },
                {
                  "internalType": "uint256",
                  "name": "token1DenominatorPrecision",
                  "type": "uint256"
                }
              ],
              "internalType": "struct IFluidDexT1.ConstantViews2",
              "name": "constantViews2",
              "type": "tuple"
            },
            {
              "components": [
                {
                  "internalType": "bool",
                  "name": "isSmartCollateralEnabled",
                  "type": "bool"
                },
                {
                  "internalType": "bool",
                  "name": "isSmartDebtEnabled",
                  "type": "bool"
                },
                {
                  "internalType": "uint256",
                  "name": "fee",
                  "type": "uint256"
                },
                {
                  "internalType": "uint256",
                  "name": "revenueCut",
                  "type": "uint256"
                },
                {
                  "internalType": "uint256",
                  "name": "upperRange",
                  "type": "uint256"
                },
                {
                  "internalType": "uint256",
                  "name": "lowerRange",
                  "type": "uint256"
                },
                {
                  "internalType": "uint256",
                  "name": "upperShiftThreshold",
                  "type": "uint256"
                },
                {
                  "internalType": "uint256",
                  "name": "lowerShiftThreshold",
                  "type": "uint256"
                },
                {
                  "internalType": "uint256",
                  "name": "shiftingTime",
                  "type": "uint256"
                },
                {
                  "internalType": "address",
                  "name": "centerPriceAddress",
                  "type": "address"
                },
                {
                  "internalType": "address",
                  "name": "hookAddress",
                  "type": "address"
                },
                {
                  "internalType": "uint256",
                  "name": "maxCenterPrice",
                  "type": "uint256"
                },
                {
                  "internalType": "uint256",
                  "name": "minCenterPrice",
                  "type": "uint256"
                },
                {
                  "internalType": "uint256",
                  "name": "utilizationLimitToken0",
                  "type": "uint256"
                },
                {
                  "internalType": "uint256",
                  "name": "utilizationLimitToken1",
                  "type": "uint256"
                }
              ],
              "internalType": "struct Structs.Configs",
              "name": "configs",
              "type": "tuple"
            },
            {
              "components": [
                {
                  "internalType": "uint256",
                  "name": "lastStoredPrice",
                  "type": "uint256"
                },
                {
                  "internalType": "uint256",
                  "name": "centerPrice",
                  "type": "uint256"
                },
                {
                  "internalType": "uint256",
                  "name": "upperRange",
                  "type": "uint256"
                },
                {
                  "internalType": "uint256",
                  "name": "lowerRange",
                  "type": "uint256"
                },
                {
                  "internalType": "uint256",
                  "name": "geometricMean",
                  "type": "uint256"
                },
                {
                  "internalType": "uint256",
                  "name": "supplyToken0ExchangePrice",
                  "type": "uint256"
                },
                {
                  "internalType": "uint256",
                  "name": "borrowToken0ExchangePrice",
                  "type": "uint256"
                },
                {
                  "internalType": "uint256",
                  "name": "supplyToken1ExchangePrice",
                  "type": "uint256"
                },
                {
                  "internalType": "uint256",
                  "name": "borrowToken1ExchangePrice",
                  "type": "uint256"
                }
              ],
              "internalType": "struct IFluidDexT1.PricesAndExchangePrice",
              "name": "pex",
              "type": "tuple"
            },
            {
              "components": [
                {
                  "internalType": "uint256",
                  "name": "token0RealReserves",
                  "type": "uint256"
                },
                {
                  "internalType": "uint256",
                  "name": "token1RealReserves",
                  "type": "uint256"
                },
                {
                  "internalType": "uint256",
                  "name": "token0ImaginaryReserves",
                  "type": "uint256"
                },
                {
                  "internalType": "uint256",
                  "name": "token1ImaginaryReserves",
                  "type": "uint256"
                }
              ],
              "internalType": "struct IFluidDexT1.CollateralReserves",
              "name": "colReserves",
              "type": "tuple"
            },
            {
              "components": [
                {
                  "internalType": "uint256",
                  "name": "token0Debt",
                  "type": "uint256"
                },
                {
                  "internalType": "uint256",
                  "name": "token1Debt",
                  "type": "uint256"
                },
                {
                  "internalType": "uint256",
                  "name": "token0RealReserves",
                  "type": "uint256"
                },
                {
                  "internalType": "uint256",
                  "name": "token1RealReserves",
                  "type": "uint256"
                },
                {
                  "internalType": "uint256",
                  "name": "token0ImaginaryReserves",
                  "type": "uint256"
                },
                {
                  "internalType": "uint256",
                  "name": "token1ImaginaryReserves",
                  "type": "uint256"
                }
              ],
              "internalType": "struct IFluidDexT1.DebtReserves",
              "name": "debtReserves",
              "type": "tuple"
            },
            {
              "components": [
                {
                  "internalType": "uint256",
                  "name": "lastToLastStoredPrice",
                  "type": "uint256"
                },
                {
                  "internalType": "uint256",
                  "name": "lastStoredPrice",
                  "type": "uint256"
                },
                {
                  "internalType": "uint256",
                  "name": "centerPrice",
                  "type": "uint256"
                },
                {
                  "internalType": "uint256",
                  "name": "lastUpdateTimestamp",
                  "type": "uint256"
                },
                {
                  "internalType": "uint256",
                  "name": "lastPricesTimeDiff",
                  "type": "uint256"
                },
                {
                  "internalType": "uint256",
                  "name": "oracleCheckPoint",
                  "type": "uint256"
                },
                {
                  "internalType": "uint256",
                  "name": "oracleMapping",
                  "type": "uint256"
                },
                {
                  "internalType": "uint256",
                  "name": "totalSupplyShares",
                  "type": "uint256"
                },
                {
                  "internalType": "uint256",
                  "name": "totalBorrowShares",
                  "type": "uint256"
                },
                {
                  "internalType": "bool",
                  "name": "isSwapAndArbitragePaused",
                  "type": "bool"
                },
                {
                  "components": [
                    {
                      "internalType": "bool",
                      "name": "isRangeChangeActive",
                      "type": "bool"
                    },
                    {
                      "internalType": "bool",
                      "name": "isThresholdChangeActive",
                      "type": "bool"
                    },
                    {
                      "internalType": "bool",
                      "name": "isCenterPriceShiftActive",
                      "type": "bool"
                    },
                    {
                      "components": [
                        {
                          "internalType": "uint256",
                          "name": "oldUpper",
                          "type": "uint256"
                        },
                        {
                          "internalType": "uint256",
                          "name": "oldLower",
                          "type": "uint256"
                        },
                        {
                          "internalType": "uint256",
                          "name": "duration",
                          "type": "uint256"
                        },
                        {
                          "internalType": "uint256",
                          "name": "startTimestamp",
                          "type": "uint256"
                        },
                        {
                          "internalType": "uint256",
                          "name": "oldTime",
                          "type": "uint256"
                        }
                      ],
                      "internalType": "struct Structs.ShiftData",
                      "name": "rangeShift",
                      "type": "tuple"
                    },
                    {
                      "components": [
                        {
                          "internalType": "uint256",
                          "name": "oldUpper",
                          "type": "uint256"
                        },
                        {
                          "internalType": "uint256",
                          "name": "oldLower",
                          "type": "uint256"
                        },
                        {
                          "internalType": "uint256",
                          "name": "duration",
                          "type": "uint256"
                        },
                        {
                          "internalType": "uint256",
                          "name": "startTimestamp",
                          "type": "uint256"
                        },
                        {
                          "internalType": "uint256",
                          "name": "oldTime",
                          "type": "uint256"
                        }
                      ],
                      "internalType": "struct Structs.ShiftData",
                      "name": "thresholdShift",
                      "type": "tuple"
                    },
                    {
                      "components": [
                        {
                          "internalType": "uint256",
                          "name": "shiftPercentage",
                          "type": "uint256"
                        },
                        {
                          "internalType": "uint256",
                          "name": "duration",
                          "type": "uint256"
                        },
                        {
                          "internalType": "uint256",
                          "name": "startTimestamp",
                          "type": "uint256"
                        }
                      ],
                      "internalType": "struct Structs.CenterPriceShift",
                      "name": "centerPriceShift",
                      "type": "tuple"
                    }
                  ],
                  "internalType": "struct Structs.ShiftChanges",
                  "name": "shifts",
                  "type": "tuple"
                }
              ],
              "internalType": "struct Structs.DexState",
              "name": "dexState",
              "type": "tuple"
            },
            {
              "components": [
                {
                  "internalType": "uint256",
                  "name": "liquiditySupplyToken0",
                  "type": "uint256"
                },
                {
                  "internalType": "uint256",
                  "name": "liquiditySupplyToken1",
                  "type": "uint256"
                },
                {
                  "internalType": "uint256",
                  "name": "liquidityBorrowToken0",
                  "type": "uint256"
                },
                {
                  "internalType": "uint256",
                  "name": "liquidityBorrowToken1",
                  "type": "uint256"
                },
                {
                  "internalType": "uint256",
                  "name": "liquidityWithdrawableToken0",
                  "type": "uint256"
                },
                {
                  "internalType": "uint256",
                  "name": "liquidityWithdrawableToken1",
                  "type": "uint256"
                },
                {
                  "internalType": "uint256",
                  "name": "liquidityBorrowableToken0",
                  "type": "uint256"
                },
                {
                  "internalType": "uint256",
                  "name": "liquidityBorrowableToken1",
                  "type": "uint256"
                },
                {
                  "internalType": "uint256",
                  "name": "utilizationLimitToken0",
                  "type": "uint256"
                },
                {
                  "internalType": "uint256",
                  "name": "utilizationLimitToken1",
                  "type": "uint256"
                },
                {
                  "internalType": "uint256",
                  "name": "withdrawableUntilUtilizationLimitToken0",
                  "type": "uint256"
                },
                {
                  "internalType": "uint256",
                  "name": "withdrawableUntilUtilizationLimitToken1",
                  "type": "uint256"
                },
                {
                  "internalType": "uint256",
                  "name": "borrowableUntilUtilizationLimitToken0",
                  "type": "uint256"
                },
                {
                  "internalType": "uint256",
                  "name": "borrowableUntilUtilizationLimitToken1",
                  "type": "uint256"
                },
                {
                  "components": [
                    {
                      "internalType": "bool",
                      "name": "modeWithInterest",
                      "type": "bool"
                    },
                    {
                      "internalType": "uint256",
                      "name": "supply",
                      "type": "uint256"
                    },
                    {
                      "internalType": "uint256",
                      "name": "withdrawalLimit",
                      "type": "uint256"
                    },
                    {
                      "internalType": "uint256",
                      "name": "lastUpdateTimestamp",
                      "type": "uint256"
                    },
                    {
                      "internalType": "uint256",
                      "name": "expandPercent",
                      "type": "uint256"
                    },
                    {
                      "internalType": "uint256",
                      "name": "expandDuration",
                      "type": "uint256"
                    },
                    {
                      "internalType": "uint256",
                      "name": "baseWithdrawalLimit",
                      "type": "uint256"
                    },
                    {
                      "internalType": "uint256",
                      "name": "withdrawableUntilLimit",
                      "type": "uint256"
                    },
                    {
                      "internalType": "uint256",
                      "name": "withdrawable",
                      "type": "uint256"
                    }
                  ],
                  "internalType": "struct Structs.UserSupplyData",
                  "name": "liquidityUserSupplyDataToken0",
                  "type": "tuple"
                },
                {
                  "components": [
                    {
                      "internalType": "bool",
                      "name": "modeWithInterest",
                      "type": "bool"
                    },
                    {
                      "internalType": "uint256",
                      "name": "supply",
                      "type": "uint256"
                    },
                    {
                      "internalType": "uint256",
                      "name": "withdrawalLimit",
                      "type": "uint256"
                    },
                    {
                      "internalType": "uint256",
                      "name": "lastUpdateTimestamp",
                      "type": "uint256"
                    },
                    {
                      "internalType": "uint256",
                      "name": "expandPercent",
                      "type": "uint256"
                    },
                    {
                      "internalType": "uint256",
                      "name": "expandDuration",
                      "type": "uint256"
                    },
                    {
                      "internalType": "uint256",
                      "name": "baseWithdrawalLimit",
                      "type": "uint256"
                    },
                    {
                      "internalType": "uint256",
                      "name": "withdrawableUntilLimit",
                      "type": "uint256"
                    },
                    {
                      "internalType": "uint256",
                      "name": "withdrawable",
                      "type": "uint256"
                    }
                  ],
                  "internalType": "struct Structs.UserSupplyData",
                  "name": "liquidityUserSupplyDataToken1",
                  "type": "tuple"
                },
                {
                  "components": [
                    {
                      "internalType": "bool",
                      "name": "modeWithInterest",
                      "type": "bool"
                    },
                    {
                      "internalType": "uint256",
                      "name": "borrow",
                      "type": "uint256"
                    },
                    {
                      "internalType": "uint256",
                      "name": "borrowLimit",
                      "type": "uint256"
                    },
                    {
                      "internalType": "uint256",
                      "name": "lastUpdateTimestamp",
                      "type": "uint256"
                    },
                    {
                      "internalType": "uint256",
                      "name": "expandPercent",
                      "type": "uint256"
                    },
                    {
                      "internalType": "uint256",
                      "name": "expandDuration",
                      "type": "uint256"
                    },
                    {
                      "internalType": "uint256",
                      "name": "baseBorrowLimit",
                      "type": "uint256"
                    },
                    {
                      "internalType": "uint256",
                      "name": "maxBorrowLimit",
                      "type": "uint256"
                    },
                    {
                      "internalType": "uint256",
                      "name": "borrowableUntilLimit",
                      "type": "uint256"
                    },
                    {
                      "internalType": "uint256",
                      "name": "borrowable",
                      "type": "uint256"
                    },
                    {
                      "internalType": "uint256",
                      "name": "borrowLimitUtilization",
                      "type": "uint256"
                    }
                  ],
                  "internalType": "struct Structs.UserBorrowData",
                  "name": "liquidityUserBorrowDataToken0",
                  "type": "tuple"
                },
                {
                  "components": [
                    {
                      "internalType": "bool",
                      "name": "modeWithInterest",
                      "type": "bool"
                    },
                    {
                      "internalType": "uint256",
                      "name": "borrow",
                      "type": "uint256"
                    },
                    {
                      "internalType": "uint256",
                      "name": "borrowLimit",
                      "type": "uint256"
                    },
                    {
                      "internalType": "uint256",
                      "name": "lastUpdateTimestamp",
                      "type": "uint256"
                    },
                    {
                      "internalType": "uint256",
                      "name": "expandPercent",
                      "type": "uint256"
                    },
                    {
                      "internalType": "uint256",
                      "name": "expandDuration",
                      "type": "uint256"
                    },
                    {
                      "internalType": "uint256",
                      "name": "baseBorrowLimit",
                      "type": "uint256"
                    },
                    {
                      "internalType": "uint256",
                      "name": "maxBorrowLimit",
                      "type": "uint256"
                    },
                    {
                      "internalType": "uint256",
                      "name": "borrowableUntilLimit",
                      "type": "uint256"
                    },
                    {
                      "internalType": "uint256",
                      "name": "borrowable",
                      "type": "uint256"
                    },
                    {
                      "internalType": "uint256",
                      "name": "borrowLimitUtilization",
                      "type": "uint256"
                    }
                  ],
                  "internalType": "struct Structs.UserBorrowData",
                  "name": "liquidityUserBorrowDataToken1",
                  "type": "tuple"
                }
              ],
              "internalType": "struct Structs.SwapLimitsAndAvailability",
              "name": "limitsAndAvailability",
              "type": "tuple"
            }
          ],
          "internalType": "struct Structs.DexEntireData[]",
          "name": "datas_",
          "type": "tuple[]"
        }
      ],
      "stateMutability": "nonpayable",
      "type": "function"
    },
    {
      "inputs": [
        {
          "internalType": "address",
          "name": "dex_",
          "type": "address"
        }
      ],
      "name": "getCenterPriceShiftRaw",
      "outputs": [
        {
          "internalType": "uint256",
          "name": "",
          "type": "uint256"
        }
      ],
      "stateMutability": "view",
      "type": "function"
    },
    {
      "inputs": [
        {
          "internalType": "uint256",
          "name": "dexId_",
          "type": "uint256"
        }
      ],
      "name": "getDexAddress",
      "outputs": [
        {
          "internalType": "address",
          "name": "dex_",
          "type": "address"
        }
      ],
      "stateMutability": "view",
      "type": "function"
    },
    {
      "inputs": [
        {
          "internalType": "address",
          "name": "dex_",
          "type": "address"
        }
      ],
      "name": "getDexCollateralReserves",
      "outputs": [
        {
          "components": [
            {
              "internalType": "uint256",
              "name": "token0RealReserves",
              "type": "uint256"
            },
            {
              "internalType": "uint256",
              "name": "token1RealReserves",
              "type": "uint256"
            },
            {
              "internalType": "uint256",
              "name": "token0ImaginaryReserves",
              "type": "uint256"
            },
            {
              "internalType": "uint256",
              "name": "token1ImaginaryReserves",
              "type": "uint256"
            }
          ],
          "internalType": "struct IFluidDexT1.CollateralReserves",
          "name": "reserves_",
          "type": "tuple"
        }
      ],
      "stateMutability": "nonpayable",
      "type": "function"
    },
    {
      "inputs": [
        {
          "internalType": "address",
          "name": "dex_",
          "type": "address"
        }
      ],
      "name": "getDexConfigs",
      "outputs": [
        {
          "components": [
            {
              "internalType": "bool",
              "name": "isSmartCollateralEnabled",
              "type": "bool"
            },
            {
              "internalType": "bool",
              "name": "isSmartDebtEnabled",
              "type": "bool"
            },
            {
              "internalType": "uint256",
              "name": "fee",
              "type": "uint256"
            },
            {
              "internalType": "uint256",
              "name": "revenueCut",
              "type": "uint256"
            },
            {
              "internalType": "uint256",
              "name": "upperRange",
              "type": "uint256"
            },
            {
              "internalType": "uint256",
              "name": "lowerRange",
              "type": "uint256"
            },
            {
              "internalType": "uint256",
              "name": "upperShiftThreshold",
              "type": "uint256"
            },
            {
              "internalType": "uint256",
              "name": "lowerShiftThreshold",
              "type": "uint256"
            },
            {
              "internalType": "uint256",
              "name": "shiftingTime",
              "type": "uint256"
            },
            {
              "internalType": "address",
              "name": "centerPriceAddress",
              "type": "address"
            },
            {
              "internalType": "address",
              "name": "hookAddress",
              "type": "address"
            },
            {
              "internalType": "uint256",
              "name": "maxCenterPrice",
              "type": "uint256"
            },
            {
              "internalType": "uint256",
              "name": "minCenterPrice",
              "type": "uint256"
            },
            {
              "internalType": "uint256",
              "name": "utilizationLimitToken0",
              "type": "uint256"
            },
            {
              "internalType": "uint256",
              "name": "utilizationLimitToken1",
              "type": "uint256"
            }
          ],
          "internalType": "struct Structs.Configs",
          "name": "configs_",
          "type": "tuple"
        }
      ],
      "stateMutability": "view",
      "type": "function"
    },
    {
      "inputs": [
        {
          "internalType": "address",
          "name": "dex_",
          "type": "address"
        }
      ],
      "name": "getDexConstantsView",
      "outputs": [
        {
          "components": [
            {
              "internalType": "uint256",
              "name": "dexId",
              "type": "uint256"
            },
            {
              "internalType": "address",
              "name": "liquidity",
              "type": "address"
            },
            {
              "internalType": "address",
              "name": "factory",
              "type": "address"
            },
            {
              "components": [
                {
                  "internalType": "address",
                  "name": "shift",
                  "type": "address"
                },
                {
                  "internalType": "address",
                  "name": "admin",
                  "type": "address"
                },
                {
                  "internalType": "address",
                  "name": "colOperations",
                  "type": "address"
                },
                {
                  "internalType": "address",
                  "name": "debtOperations",
                  "type": "address"
                },
                {
                  "internalType": "address",
                  "name": "perfectOperationsAndOracle",
                  "type": "address"
                }
              ],
              "internalType": "struct IFluidDexT1.Implementations",
              "name": "implementations",
              "type": "tuple"
            },
            {
              "internalType": "address",
              "name": "deployerContract",
              "type": "address"
            },
            {
              "internalType": "address",
              "name": "token0",
              "type": "address"
            },
            {
              "internalType": "address",
              "name": "token1",
              "type": "address"
            },
            {
              "internalType": "bytes32",
              "name": "supplyToken0Slot",
              "type": "bytes32"
            },
            {
              "internalType": "bytes32",
              "name": "borrowToken0Slot",
              "type": "bytes32"
            },
            {
              "internalType": "bytes32",
              "name": "supplyToken1Slot",
              "type": "bytes32"
            },
            {
              "internalType": "bytes32",
              "name": "borrowToken1Slot",
              "type": "bytes32"
            },
            {
              "internalType": "bytes32",
              "name": "exchangePriceToken0Slot",
              "type": "bytes32"
            },
            {
              "internalType": "bytes32",
              "name": "exchangePriceToken1Slot",
              "type": "bytes32"
            },
            {
              "internalType": "uint256",
              "name": "oracleMapping",
              "type": "uint256"
            }
          ],
          "internalType": "struct IFluidDexT1.ConstantViews",
          "name": "constantsView_",
          "type": "tuple"
        }
      ],
      "stateMutability": "view",
      "type": "function"
    },
    {
      "inputs": [
        {
          "internalType": "address",
          "name": "dex_",
          "type": "address"
        }
      ],
      "name": "getDexConstantsView2",
      "outputs": [
        {
          "components": [
            {
              "internalType": "uint256",
              "name": "token0NumeratorPrecision",
              "type": "uint256"
            },
            {
              "internalType": "uint256",
              "name": "token0DenominatorPrecision",
              "type": "uint256"
            },
            {
              "internalType": "uint256",
              "name": "token1NumeratorPrecision",
              "type": "uint256"
            },
            {
              "internalType": "uint256",
              "name": "token1DenominatorPrecision",
              "type": "uint256"
            }
          ],
          "internalType": "struct IFluidDexT1.ConstantViews2",
          "name": "constantsView2_",
          "type": "tuple"
        }
      ],
      "stateMutability": "view",
      "type": "function"
    },
    {
      "inputs": [
        {
          "internalType": "address",
          "name": "dex_",
          "type": "address"
        }
      ],
      "name": "getDexDebtReserves",
      "outputs": [
        {
          "components": [
            {
              "internalType": "uint256",
              "name": "token0Debt",
              "type": "uint256"
            },
            {
              "internalType": "uint256",
              "name": "token1Debt",
              "type": "uint256"
            },
            {
              "internalType": "uint256",
              "name": "token0RealReserves",
              "type": "uint256"
            },
            {
              "internalType": "uint256",
              "name": "token1RealReserves",
              "type": "uint256"
            },
            {
              "internalType": "uint256",
              "name": "token0ImaginaryReserves",
              "type": "uint256"
            },
            {
              "internalType": "uint256",
              "name": "token1ImaginaryReserves",
              "type": "uint256"
            }
          ],
          "internalType": "struct IFluidDexT1.DebtReserves",
          "name": "reserves_",
          "type": "tuple"
        }
      ],
      "stateMutability": "nonpayable",
      "type": "function"
    },
    {
      "inputs": [
        {
          "internalType": "address",
          "name": "dex_",
          "type": "address"
        }
      ],
      "name": "getDexEntireData",
      "outputs": [
        {
          "components": [
            {
              "internalType": "address",
              "name": "dex",
              "type": "address"
            },
            {
              "components": [
                {
                  "internalType": "uint256",
                  "name": "dexId",
                  "type": "uint256"
                },
                {
                  "internalType": "address",
                  "name": "liquidity",
                  "type": "address"
                },
                {
                  "internalType": "address",
                  "name": "factory",
                  "type": "address"
                },
                {
                  "components": [
                    {
                      "internalType": "address",
                      "name": "shift",
                      "type": "address"
                    },
                    {
                      "internalType": "address",
                      "name": "admin",
                      "type": "address"
                    },
                    {
                      "internalType": "address",
                      "name": "colOperations",
                      "type": "address"
                    },
                    {
                      "internalType": "address",
                      "name": "debtOperations",
                      "type": "address"
                    },
                    {
                      "internalType": "address",
                      "name": "perfectOperationsAndOracle",
                      "type": "address"
                    }
                  ],
                  "internalType": "struct IFluidDexT1.Implementations",
                  "name": "implementations",
                  "type": "tuple"
                },
                {
                  "internalType": "address",
                  "name": "deployerContract",
                  "type": "address"
                },
                {
                  "internalType": "address",
                  "name": "token0",
                  "type": "address"
                },
                {
                  "internalType": "address",
                  "name": "token1",
                  "type": "address"
                },
                {
                  "internalType": "bytes32",
                  "name": "supplyToken0Slot",
                  "type": "bytes32"
                },
                {
                  "internalType": "bytes32",
                  "name": "borrowToken0Slot",
                  "type": "bytes32"
                },
                {
                  "internalType": "bytes32",
                  "name": "supplyToken1Slot",
                  "type": "bytes32"
                },
                {
                  "internalType": "bytes32",
                  "name": "borrowToken1Slot",
                  "type": "bytes32"
                },
                {
                  "internalType": "bytes32",
                  "name": "exchangePriceToken0Slot",
                  "type": "bytes32"
                },
                {
                  "internalType": "bytes32",
                  "name": "exchangePriceToken1Slot",
                  "type": "bytes32"
                },
                {
                  "internalType": "uint256",
                  "name": "oracleMapping",
                  "type": "uint256"
                }
              ],
              "internalType": "struct IFluidDexT1.ConstantViews",
              "name": "constantViews",
              "type": "tuple"
            },
            {
              "components": [
                {
                  "internalType": "uint256",
                  "name": "token0NumeratorPrecision",
                  "type": "uint256"
                },
                {
                  "internalType": "uint256",
                  "name": "token0DenominatorPrecision",
                  "type": "uint256"
                },
                {
                  "internalType": "uint256",
                  "name": "token1NumeratorPrecision",
                  "type": "uint256"
                },
                {
                  "internalType": "uint256",
                  "name": "token1DenominatorPrecision",
                  "type": "uint256"
                }
              ],
              "internalType": "struct IFluidDexT1.ConstantViews2",
              "name": "constantViews2",
              "type": "tuple"
            },
            {
              "components": [
                {
                  "internalType": "bool",
                  "name": "isSmartCollateralEnabled",
                  "type": "bool"
                },
                {
                  "internalType": "bool",
                  "name": "isSmartDebtEnabled",
                  "type": "bool"
                },
                {
                  "internalType": "uint256",
                  "name": "fee",
                  "type": "uint256"
                },
                {
                  "internalType": "uint256",
                  "name": "revenueCut",
                  "type": "uint256"
                },
                {
                  "internalType": "uint256",
                  "name": "upperRange",
                  "type": "uint256"
                },
                {
                  "internalType": "uint256",
                  "name": "lowerRange",
                  "type": "uint256"
                },
                {
                  "internalType": "uint256",
                  "name": "upperShiftThreshold",
                  "type": "uint256"
                },
                {
                  "internalType": "uint256",
                  "name": "lowerShiftThreshold",
                  "type": "uint256"
                },
                {
                  "internalType": "uint256",
                  "name": "shiftingTime",
                  "type": "uint256"
                },
                {
                  "internalType": "address",
                  "name": "centerPriceAddress",
                  "type": "address"
                },
                {
                  "internalType": "address",
                  "name": "hookAddress",
                  "type": "address"
                },
                {
                  "internalType": "uint256",
                  "name": "maxCenterPrice",
                  "type": "uint256"
                },
                {
                  "internalType": "uint256",
                  "name": "minCenterPrice",
                  "type": "uint256"
                },
                {
                  "internalType": "uint256",
                  "name": "utilizationLimitToken0",
                  "type": "uint256"
                },
                {
                  "internalType": "uint256",
                  "name": "utilizationLimitToken1",
                  "type": "uint256"
                }
              ],
              "internalType": "struct Structs.Configs",
              "name": "configs",
              "type": "tuple"
            },
            {
              "components": [
                {
                  "internalType": "uint256",
                  "name": "lastStoredPrice",
                  "type": "uint256"
                },
                {
                  "internalType": "uint256",
                  "name": "centerPrice",
                  "type": "uint256"
                },
                {
                  "internalType": "uint256",
                  "name": "upperRange",
                  "type": "uint256"
                },
                {
                  "internalType": "uint256",
                  "name": "lowerRange",
                  "type": "uint256"
                },
                {
                  "internalType": "uint256",
                  "name": "geometricMean",
                  "type": "uint256"
                },
                {
                  "internalType": "uint256",
                  "name": "supplyToken0ExchangePrice",
                  "type": "uint256"
                },
                {
                  "internalType": "uint256",
                  "name": "borrowToken0ExchangePrice",
                  "type": "uint256"
                },
                {
                  "internalType": "uint256",
                  "name": "supplyToken1ExchangePrice",
                  "type": "uint256"
                },
                {
                  "internalType": "uint256",
                  "name": "borrowToken1ExchangePrice",
                  "type": "uint256"
                }
              ],
              "internalType": "struct IFluidDexT1.PricesAndExchangePrice",
              "name": "pex",
              "type": "tuple"
            },
            {
              "components": [
                {
                  "internalType": "uint256",
                  "name": "token0RealReserves",
                  "type": "uint256"
                },
                {
                  "internalType": "uint256",
                  "name": "token1RealReserves",
                  "type": "uint256"
                },
                {
                  "internalType": "uint256",
                  "name": "token0ImaginaryReserves",
                  "type": "uint256"
                },
                {
                  "internalType": "uint256",
                  "name": "token1ImaginaryReserves",
                  "type": "uint256"
                }
              ],
              "internalType": "struct IFluidDexT1.CollateralReserves",
              "name": "colReserves",
              "type": "tuple"
            },
            {
              "components": [
                {
                  "internalType": "uint256",
                  "name": "token0Debt",
                  "type": "uint256"
                },
                {
                  "internalType": "uint256",
                  "name": "token1Debt",
                  "type": "uint256"
                },
                {
                  "internalType": "uint256",
                  "name": "token0RealReserves",
                  "type": "uint256"
                },
                {
                  "internalType": "uint256",
                  "name": "token1RealReserves",
                  "type": "uint256"
                },
                {
                  "internalType": "uint256",
                  "name": "token0ImaginaryReserves",
                  "type": "uint256"
                },
                {
                  "internalType": "uint256",
                  "name": "token1ImaginaryReserves",
                  "type": "uint256"
                }
              ],
              "internalType": "struct IFluidDexT1.DebtReserves",
              "name": "debtReserves",
              "type": "tuple"
            },
            {
              "components": [
                {
                  "internalType": "uint256",
                  "name": "lastToLastStoredPrice",
                  "type": "uint256"
                },
                {
                  "internalType": "uint256",
                  "name": "lastStoredPrice",
                  "type": "uint256"
                },
                {
                  "internalType": "uint256",
                  "name": "centerPrice",
                  "type": "uint256"
                },
                {
                  "internalType": "uint256",
                  "name": "lastUpdateTimestamp",
                  "type": "uint256"
                },
                {
                  "internalType": "uint256",
                  "name": "lastPricesTimeDiff",
                  "type": "uint256"
                },
                {
                  "internalType": "uint256",
                  "name": "oracleCheckPoint",
                  "type": "uint256"
                },
                {
                  "internalType": "uint256",
                  "name": "oracleMapping",
                  "type": "uint256"
                },
                {
                  "internalType": "uint256",
                  "name": "totalSupplyShares",
                  "type": "uint256"
                },
                {
                  "internalType": "uint256",
                  "name": "totalBorrowShares",
                  "type": "uint256"
                },
                {
                  "internalType": "bool",
                  "name": "isSwapAndArbitragePaused",
                  "type": "bool"
                },
                {
                  "components": [
                    {
                      "internalType": "bool",
                      "name": "isRangeChangeActive",
                      "type": "bool"
                    },
                    {
                      "internalType": "bool",
                      "name": "isThresholdChangeActive",
                      "type": "bool"
                    },
                    {
                      "internalType": "bool",
                      "name": "isCenterPriceShiftActive",
                      "type": "bool"
                    },
                    {
                      "components": [
                        {
                          "internalType": "uint256",
                          "name": "oldUpper",
                          "type": "uint256"
                        },
                        {
                          "internalType": "uint256",
                          "name": "oldLower",
                          "type": "uint256"
                        },
                        {
                          "internalType": "uint256",
                          "name": "duration",
                          "type": "uint256"
                        },
                        {
                          "internalType": "uint256",
                          "name": "startTimestamp",
                          "type": "uint256"
                        },
                        {
                          "internalType": "uint256",
                          "name": "oldTime",
                          "type": "uint256"
                        }
                      ],
                      "internalType": "struct Structs.ShiftData",
                      "name": "rangeShift",
                      "type": "tuple"
                    },
                    {
                      "components": [
                        {
                          "internalType": "uint256",
                          "name": "oldUpper",
                          "type": "uint256"
                        },
                        {
                          "internalType": "uint256",
                          "name": "oldLower",
                          "type": "uint256"
                        },
                        {
                          "internalType": "uint256",
                          "name": "duration",
                          "type": "uint256"
                        },
                        {
                          "internalType": "uint256",
                          "name": "startTimestamp",
                          "type": "uint256"
                        },
                        {
                          "internalType": "uint256",
                          "name": "oldTime",
                          "type": "uint256"
                        }
                      ],
                      "internalType": "struct Structs.ShiftData",
                      "name": "thresholdShift",
                      "type": "tuple"
                    },
                    {
                      "components": [
                        {
                          "internalType": "uint256",
                          "name": "shiftPercentage",
                          "type": "uint256"
                        },
                        {
                          "internalType": "uint256",
                          "name": "duration",
                          "type": "uint256"
                        },
                        {
                          "internalType": "uint256",
                          "name": "startTimestamp",
                          "type": "uint256"
                        }
                      ],
                      "internalType": "struct Structs.CenterPriceShift",
                      "name": "centerPriceShift",
                      "type": "tuple"
                    }
                  ],
                  "internalType": "struct Structs.ShiftChanges",
                  "name": "shifts",
                  "type": "tuple"
                }
              ],
              "internalType": "struct Structs.DexState",
              "name": "dexState",
              "type": "tuple"
            },
            {
              "components": [
                {
                  "internalType": "uint256",
                  "name": "liquiditySupplyToken0",
                  "type": "uint256"
                },
                {
                  "internalType": "uint256",
                  "name": "liquiditySupplyToken1",
                  "type": "uint256"
                },
                {
                  "internalType": "uint256",
                  "name": "liquidityBorrowToken0",
                  "type": "uint256"
                },
                {
                  "internalType": "uint256",
                  "name": "liquidityBorrowToken1",
                  "type": "uint256"
                },
                {
                  "internalType": "uint256",
                  "name": "liquidityWithdrawableToken0",
                  "type": "uint256"
                },
                {
                  "internalType": "uint256",
                  "name": "liquidityWithdrawableToken1",
                  "type": "uint256"
                },
                {
                  "internalType": "uint256",
                  "name": "liquidityBorrowableToken0",
                  "type": "uint256"
                },
                {
                  "internalType": "uint256",
                  "name": "liquidityBorrowableToken1",
                  "type": "uint256"
                },
                {
                  "internalType": "uint256",
                  "name": "utilizationLimitToken0",
                  "type": "uint256"
                },
                {
                  "internalType": "uint256",
                  "name": "utilizationLimitToken1",
                  "type": "uint256"
                },
                {
                  "internalType": "uint256",
                  "name": "withdrawableUntilUtilizationLimitToken0",
                  "type": "uint256"
                },
                {
                  "internalType": "uint256",
                  "name": "withdrawableUntilUtilizationLimitToken1",
                  "type": "uint256"
                },
                {
                  "internalType": "uint256",
                  "name": "borrowableUntilUtilizationLimitToken0",
                  "type": "uint256"
                },
                {
                  "internalType": "uint256",
                  "name": "borrowableUntilUtilizationLimitToken1",
                  "type": "uint256"
                },
                {
                  "components": [
                    {
                      "internalType": "bool",
                      "name": "modeWithInterest",
                      "type": "bool"
                    },
                    {
                      "internalType": "uint256",
                      "name": "supply",
                      "type": "uint256"
                    },
                    {
                      "internalType": "uint256",
                      "name": "withdrawalLimit",
                      "type": "uint256"
                    },
                    {
                      "internalType": "uint256",
                      "name": "lastUpdateTimestamp",
                      "type": "uint256"
                    },
                    {
                      "internalType": "uint256",
                      "name": "expandPercent",
                      "type": "uint256"
                    },
                    {
                      "internalType": "uint256",
                      "name": "expandDuration",
                      "type": "uint256"
                    },
                    {
                      "internalType": "uint256",
                      "name": "baseWithdrawalLimit",
                      "type": "uint256"
                    },
                    {
                      "internalType": "uint256",
                      "name": "withdrawableUntilLimit",
                      "type": "uint256"
                    },
                    {
                      "internalType": "uint256",
                      "name": "withdrawable",
                      "type": "uint256"
                    }
                  ],
                  "internalType": "struct Structs.UserSupplyData",
                  "name": "liquidityUserSupplyDataToken0",
                  "type": "tuple"
                },
                {
                  "components": [
                    {
                      "internalType": "bool",
                      "name": "modeWithInterest",
                      "type": "bool"
                    },
                    {
                      "internalType": "uint256",
                      "name": "supply",
                      "type": "uint256"
                    },
                    {
                      "internalType": "uint256",
                      "name": "withdrawalLimit",
                      "type": "uint256"
                    },
                    {
                      "internalType": "uint256",
                      "name": "lastUpdateTimestamp",
                      "type": "uint256"
                    },
                    {
                      "internalType": "uint256",
                      "name": "expandPercent",
                      "type": "uint256"
                    },
                    {
                      "internalType": "uint256",
                      "name": "expandDuration",
                      "type": "uint256"
                    },
                    {
                      "internalType": "uint256",
                      "name": "baseWithdrawalLimit",
                      "type": "uint256"
                    },
                    {
                      "internalType": "uint256",
                      "name": "withdrawableUntilLimit",
                      "type": "uint256"
                    },
                    {
                      "internalType": "uint256",
                      "name": "withdrawable",
                      "type": "uint256"
                    }
                  ],
                  "internalType": "struct Structs.UserSupplyData",
                  "name": "liquidityUserSupplyDataToken1",
                  "type": "tuple"
                },
                {
                  "components": [
                    {
                      "internalType": "bool",
                      "name": "modeWithInterest",
                      "type": "bool"
                    },
                    {
                      "internalType": "uint256",
                      "name": "borrow",
                      "type": "uint256"
                    },
                    {
                      "internalType": "uint256",
                      "name": "borrowLimit",
                      "type": "uint256"
                    },
                    {
                      "internalType": "uint256",
                      "name": "lastUpdateTimestamp",
                      "type": "uint256"
                    },
                    {
                      "internalType": "uint256",
                      "name": "expandPercent",
                      "type": "uint256"
                    },
                    {
                      "internalType": "uint256",
                      "name": "expandDuration",
                      "type": "uint256"
                    },
                    {
                      "internalType": "uint256",
                      "name": "baseBorrowLimit",
                      "type": "uint256"
                    },
                    {
                      "internalType": "uint256",
                      "name": "maxBorrowLimit",
                      "type": "uint256"
                    },
                    {
                      "internalType": "uint256",
                      "name": "borrowableUntilLimit",
                      "type": "uint256"
                    },
                    {
                      "internalType": "uint256",
                      "name": "borrowable",
                      "type": "uint256"
                    },
                    {
                      "internalType": "uint256",
                      "name": "borrowLimitUtilization",
                      "type": "uint256"
                    }
                  ],
                  "internalType": "struct Structs.UserBorrowData",
                  "name": "liquidityUserBorrowDataToken0",
                  "type": "tuple"
                },
                {
                  "components": [
                    {
                      "internalType": "bool",
                      "name": "modeWithInterest",
                      "type": "bool"
                    },
                    {
                      "internalType": "uint256",
                      "name": "borrow",
                      "type": "uint256"
                    },
                    {
                      "internalType": "uint256",
                      "name": "borrowLimit",
                      "type": "uint256"
                    },
                    {
                      "internalType": "uint256",
                      "name": "lastUpdateTimestamp",
                      "type": "uint256"
                    },
                    {
                      "internalType": "uint256",
                      "name": "expandPercent",
                      "type": "uint256"
                    },
                    {
                      "internalType": "uint256",
                      "name": "expandDuration",
                      "type": "uint256"
                    },
                    {
                      "internalType": "uint256",
                      "name": "baseBorrowLimit",
                      "type": "uint256"
                    },
                    {
                      "internalType": "uint256",
                      "name": "maxBorrowLimit",
                      "type": "uint256"
                    },
                    {
                      "internalType": "uint256",
                      "name": "borrowableUntilLimit",
                      "type": "uint256"
                    },
                    {
                      "internalType": "uint256",
                      "name": "borrowable",
                      "type": "uint256"
                    },
                    {
                      "internalType": "uint256",
                      "name": "borrowLimitUtilization",
                      "type": "uint256"
                    }
                  ],
                  "internalType": "struct Structs.UserBorrowData",
                  "name": "liquidityUserBorrowDataToken1",
                  "type": "tuple"
                }
              ],
              "internalType": "struct Structs.SwapLimitsAndAvailability",
              "name": "limitsAndAvailability",
              "type": "tuple"
            }
          ],
          "internalType": "struct Structs.DexEntireData",
          "name": "data_",
          "type": "tuple"
        }
      ],
      "stateMutability": "nonpayable",
      "type": "function"
    },
    {
      "inputs": [
        {
          "internalType": "address[]",
          "name": "dexes_",
          "type": "address[]"
        }
      ],
      "name": "getDexEntireDatas",
      "outputs": [
        {
          "components": [
            {
              "internalType": "address",
              "name": "dex",
              "type": "address"
            },
            {
              "components": [
                {
                  "internalType": "uint256",
                  "name": "dexId",
                  "type": "uint256"
                },
                {
                  "internalType": "address",
                  "name": "liquidity",
                  "type": "address"
                },
                {
                  "internalType": "address",
                  "name": "factory",
                  "type": "address"
                },
                {
                  "components": [
                    {
                      "internalType": "address",
                      "name": "shift",
                      "type": "address"
                    },
                    {
                      "internalType": "address",
                      "name": "admin",
                      "type": "address"
                    },
                    {
                      "internalType": "address",
                      "name": "colOperations",
                      "type": "address"
                    },
                    {
                      "internalType": "address",
                      "name": "debtOperations",
                      "type": "address"
                    },
                    {
                      "internalType": "address",
                      "name": "perfectOperationsAndOracle",
                      "type": "address"
                    }
                  ],
                  "internalType": "struct IFluidDexT1.Implementations",
                  "name": "implementations",
                  "type": "tuple"
                },
                {
                  "internalType": "address",
                  "name": "deployerContract",
                  "type": "address"
                },
                {
                  "internalType": "address",
                  "name": "token0",
                  "type": "address"
                },
                {
                  "internalType": "address",
                  "name": "token1",
                  "type": "address"
                },
                {
                  "internalType": "bytes32",
                  "name": "supplyToken0Slot",
                  "type": "bytes32"
                },
                {
                  "internalType": "bytes32",
                  "name": "borrowToken0Slot",
                  "type": "bytes32"
                },
                {
                  "internalType": "bytes32",
                  "name": "supplyToken1Slot",
                  "type": "bytes32"
                },
                {
                  "internalType": "bytes32",
                  "name": "borrowToken1Slot",
                  "type": "bytes32"
                },
                {
                  "internalType": "bytes32",
                  "name": "exchangePriceToken0Slot",
                  "type": "bytes32"
                },
                {
                  "internalType": "bytes32",
                  "name": "exchangePriceToken1Slot",
                  "type": "bytes32"
                },
                {
                  "internalType": "uint256",
                  "name": "oracleMapping",
                  "type": "uint256"
                }
              ],
              "internalType": "struct IFluidDexT1.ConstantViews",
              "name": "constantViews",
              "type": "tuple"
            },
            {
              "components": [
                {
                  "internalType": "uint256",
                  "name": "token0NumeratorPrecision",
                  "type": "uint256"
                },
                {
                  "internalType": "uint256",
                  "name": "token0DenominatorPrecision",
                  "type": "uint256"
                },
                {
                  "internalType": "uint256",
                  "name": "token1NumeratorPrecision",
                  "type": "uint256"
                },
                {
                  "internalType": "uint256",
                  "name": "token1DenominatorPrecision",
                  "type": "uint256"
                }
              ],
              "internalType": "struct IFluidDexT1.ConstantViews2",
              "name": "constantViews2",
              "type": "tuple"
            },
            {
              "components": [
                {
                  "internalType": "bool",
                  "name": "isSmartCollateralEnabled",
                  "type": "bool"
                },
                {
                  "internalType": "bool",
                  "name": "isSmartDebtEnabled",
                  "type": "bool"
                },
                {
                  "internalType": "uint256",
                  "name": "fee",
                  "type": "uint256"
                },
                {
                  "internalType": "uint256",
                  "name": "revenueCut",
                  "type": "uint256"
                },
                {
                  "internalType": "uint256",
                  "name": "upperRange",
                  "type": "uint256"
                },
                {
                  "internalType": "uint256",
                  "name": "lowerRange",
                  "type": "uint256"
                },
                {
                  "internalType": "uint256",
                  "name": "upperShiftThreshold",
                  "type": "uint256"
                },
                {
                  "internalType": "uint256",
                  "name": "lowerShiftThreshold",
                  "type": "uint256"
                },
                {
                  "internalType": "uint256",
                  "name": "shiftingTime",
                  "type": "uint256"
                },
                {
                  "internalType": "address",
                  "name": "centerPriceAddress",
                  "type": "address"
                },
                {
                  "internalType": "address",
                  "name": "hookAddress",
                  "type": "address"
                },
                {
                  "internalType": "uint256",
                  "name": "maxCenterPrice",
                  "type": "uint256"
                },
                {
                  "internalType": "uint256",
                  "name": "minCenterPrice",
                  "type": "uint256"
                },
                {
                  "internalType": "uint256",
                  "name": "utilizationLimitToken0",
                  "type": "uint256"
                },
                {
                  "internalType": "uint256",
                  "name": "utilizationLimitToken1",
                  "type": "uint256"
                }
              ],
              "internalType": "struct Structs.Configs",
              "name": "configs",
              "type": "tuple"
            },
            {
              "components": [
                {
                  "internalType": "uint256",
                  "name": "lastStoredPrice",
                  "type": "uint256"
                },
                {
                  "internalType": "uint256",
                  "name": "centerPrice",
                  "type": "uint256"
                },
                {
                  "internalType": "uint256",
                  "name": "upperRange",
                  "type": "uint256"
                },
                {
                  "internalType": "uint256",
                  "name": "lowerRange",
                  "type": "uint256"
                },
                {
                  "internalType": "uint256",
                  "name": "geometricMean",
                  "type": "uint256"
                },
                {
                  "internalType": "uint256",
                  "name": "supplyToken0ExchangePrice",
                  "type": "uint256"
                },
                {
                  "internalType": "uint256",
                  "name": "borrowToken0ExchangePrice",
                  "type": "uint256"
                },
                {
                  "internalType": "uint256",
                  "name": "supplyToken1ExchangePrice",
                  "type": "uint256"
                },
                {
                  "internalType": "uint256",
                  "name": "borrowToken1ExchangePrice",
                  "type": "uint256"
                }
              ],
              "internalType": "struct IFluidDexT1.PricesAndExchangePrice",
              "name": "pex",
              "type": "tuple"
            },
            {
              "components": [
                {
                  "internalType": "uint256",
                  "name": "token0RealReserves",
                  "type": "uint256"
                },
                {
                  "internalType": "uint256",
                  "name": "token1RealReserves",
                  "type": "uint256"
                },
                {
                  "internalType": "uint256",
                  "name": "token0ImaginaryReserves",
                  "type": "uint256"
                },
                {
                  "internalType": "uint256",
                  "name": "token1ImaginaryReserves",
                  "type": "uint256"
                }
              ],
              "internalType": "struct IFluidDexT1.CollateralReserves",
              "name": "colReserves",
              "type": "tuple"
            },
            {
              "components": [
                {
                  "internalType": "uint256",
                  "name": "token0Debt",
                  "type": "uint256"
                },
                {
                  "internalType": "uint256",
                  "name": "token1Debt",
                  "type": "uint256"
                },
                {
                  "internalType": "uint256",
                  "name": "token0RealReserves",
                  "type": "uint256"
                },
                {
                  "internalType": "uint256",
                  "name": "token1RealReserves",
                  "type": "uint256"
                },
                {
                  "internalType": "uint256",
                  "name": "token0ImaginaryReserves",
                  "type": "uint256"
                },
                {
                  "internalType": "uint256",
                  "name": "token1ImaginaryReserves",
                  "type": "uint256"
                }
              ],
              "internalType": "struct IFluidDexT1.DebtReserves",
              "name": "debtReserves",
              "type": "tuple"
            },
            {
              "components": [
                {
                  "internalType": "uint256",
                  "name": "lastToLastStoredPrice",
                  "type": "uint256"
                },
                {
                  "internalType": "uint256",
                  "name": "lastStoredPrice",
                  "type": "uint256"
                },
                {
                  "internalType": "uint256",
                  "name": "centerPrice",
                  "type": "uint256"
                },
                {
                  "internalType": "uint256",
                  "name": "lastUpdateTimestamp",
                  "type": "uint256"
                },
                {
                  "internalType": "uint256",
                  "name": "lastPricesTimeDiff",
                  "type": "uint256"
                },
                {
                  "internalType": "uint256",
                  "name": "oracleCheckPoint",
                  "type": "uint256"
                },
                {
                  "internalType": "uint256",
                  "name": "oracleMapping",
                  "type": "uint256"
                },
                {
                  "internalType": "uint256",
                  "name": "totalSupplyShares",
                  "type": "uint256"
                },
                {
                  "internalType": "uint256",
                  "name": "totalBorrowShares",
                  "type": "uint256"
                },
                {
                  "internalType": "bool",
                  "name": "isSwapAndArbitragePaused",
                  "type": "bool"
                },
                {
                  "components": [
                    {
                      "internalType": "bool",
                      "name": "isRangeChangeActive",
                      "type": "bool"
                    },
                    {
                      "internalType": "bool",
                      "name": "isThresholdChangeActive",
                      "type": "bool"
                    },
                    {
                      "internalType": "bool",
                      "name": "isCenterPriceShiftActive",
                      "type": "bool"
                    },
                    {
                      "components": [
                        {
                          "internalType": "uint256",
                          "name": "oldUpper",
                          "type": "uint256"
                        },
                        {
                          "internalType": "uint256",
                          "name": "oldLower",
                          "type": "uint256"
                        },
                        {
                          "internalType": "uint256",
                          "name": "duration",
                          "type": "uint256"
                        },
                        {
                          "internalType": "uint256",
                          "name": "startTimestamp",
                          "type": "uint256"
                        },
                        {
                          "internalType": "uint256",
                          "name": "oldTime",
                          "type": "uint256"
                        }
                      ],
                      "internalType": "struct Structs.ShiftData",
                      "name": "rangeShift",
                      "type": "tuple"
                    },
                    {
                      "components": [
                        {
                          "internalType": "uint256",
                          "name": "oldUpper",
                          "type": "uint256"
                        },
                        {
                          "internalType": "uint256",
                          "name": "oldLower",
                          "type": "uint256"
                        },
                        {
                          "internalType": "uint256",
                          "name": "duration",
                          "type": "uint256"
                        },
                        {
                          "internalType": "uint256",
                          "name": "startTimestamp",
                          "type": "uint256"
                        },
                        {
                          "internalType": "uint256",
                          "name": "oldTime",
                          "type": "uint256"
                        }
                      ],
                      "internalType": "struct Structs.ShiftData",
                      "name": "thresholdShift",
                      "type": "tuple"
                    },
                    {
                      "components": [
                        {
                          "internalType": "uint256",
                          "name": "shiftPercentage",
                          "type": "uint256"
                        },
                        {
                          "internalType": "uint256",
                          "name": "duration",
                          "type": "uint256"
                        },
                        {
                          "internalType": "uint256",
                          "name": "startTimestamp",
                          "type": "uint256"
                        }
                      ],
                      "internalType": "struct Structs.CenterPriceShift",
                      "name": "centerPriceShift",
                      "type": "tuple"
                    }
                  ],
                  "internalType": "struct Structs.ShiftChanges",
                  "name": "shifts",
                  "type": "tuple"
                }
              ],
              "internalType": "struct Structs.DexState",
              "name": "dexState",
              "type": "tuple"
            },
            {
              "components": [
                {
                  "internalType": "uint256",
                  "name": "liquiditySupplyToken0",
                  "type": "uint256"
                },
                {
                  "internalType": "uint256",
                  "name": "liquiditySupplyToken1",
                  "type": "uint256"
                },
                {
                  "internalType": "uint256",
                  "name": "liquidityBorrowToken0",
                  "type": "uint256"
                },
                {
                  "internalType": "uint256",
                  "name": "liquidityBorrowToken1",
                  "type": "uint256"
                },
                {
                  "internalType": "uint256",
                  "name": "liquidityWithdrawableToken0",
                  "type": "uint256"
                },
                {
                  "internalType": "uint256",
                  "name": "liquidityWithdrawableToken1",
                  "type": "uint256"
                },
                {
                  "internalType": "uint256",
                  "name": "liquidityBorrowableToken0",
                  "type": "uint256"
                },
                {
                  "internalType": "uint256",
                  "name": "liquidityBorrowableToken1",
                  "type": "uint256"
                },
                {
                  "internalType": "uint256",
                  "name": "utilizationLimitToken0",
                  "type": "uint256"
                },
                {
                  "internalType": "uint256",
                  "name": "utilizationLimitToken1",
                  "type": "uint256"
                },
                {
                  "internalType": "uint256",
                  "name": "withdrawableUntilUtilizationLimitToken0",
                  "type": "uint256"
                },
                {
                  "internalType": "uint256",
                  "name": "withdrawableUntilUtilizationLimitToken1",
                  "type": "uint256"
                },
                {
                  "internalType": "uint256",
                  "name": "borrowableUntilUtilizationLimitToken0",
                  "type": "uint256"
                },
                {
                  "internalType": "uint256",
                  "name": "borrowableUntilUtilizationLimitToken1",
                  "type": "uint256"
                },
                {
                  "components": [
                    {
                      "internalType": "bool",
                      "name": "modeWithInterest",
                      "type": "bool"
                    },
                    {
                      "internalType": "uint256",
                      "name": "supply",
                      "type": "uint256"
                    },
                    {
                      "internalType": "uint256",
                      "name": "withdrawalLimit",
                      "type": "uint256"
                    },
                    {
                      "internalType": "uint256",
                      "name": "lastUpdateTimestamp",
                      "type": "uint256"
                    },
                    {
                      "internalType": "uint256",
                      "name": "expandPercent",
                      "type": "uint256"
                    },
                    {
                      "internalType": "uint256",
                      "name": "expandDuration",
                      "type": "uint256"
                    },
                    {
                      "internalType": "uint256",
                      "name": "baseWithdrawalLimit",
                      "type": "uint256"
                    },
                    {
                      "internalType": "uint256",
                      "name": "withdrawableUntilLimit",
                      "type": "uint256"
                    },
                    {
                      "internalType": "uint256",
                      "name": "withdrawable",
                      "type": "uint256"
                    }
                  ],
                  "internalType": "struct Structs.UserSupplyData",
                  "name": "liquidityUserSupplyDataToken0",
                  "type": "tuple"
                },
                {
                  "components": [
                    {
                      "internalType": "bool",
                      "name": "modeWithInterest",
                      "type": "bool"
                    },
                    {
                      "internalType": "uint256",
                      "name": "supply",
                      "type": "uint256"
                    },
                    {
                      "internalType": "uint256",
                      "name": "withdrawalLimit",
                      "type": "uint256"
                    },
                    {
                      "internalType": "uint256",
                      "name": "lastUpdateTimestamp",
                      "type": "uint256"
                    },
                    {
                      "internalType": "uint256",
                      "name": "expandPercent",
                      "type": "uint256"
                    },
                    {
                      "internalType": "uint256",
                      "name": "expandDuration",
                      "type": "uint256"
                    },
                    {
                      "internalType": "uint256",
                      "name": "baseWithdrawalLimit",
                      "type": "uint256"
                    },
                    {
                      "internalType": "uint256",
                      "name": "withdrawableUntilLimit",
                      "type": "uint256"
                    },
                    {
                      "internalType": "uint256",
                      "name": "withdrawable",
                      "type": "uint256"
                    }
                  ],
                  "internalType": "struct Structs.UserSupplyData",
                  "name": "liquidityUserSupplyDataToken1",
                  "type": "tuple"
                },
                {
                  "components": [
                    {
                      "internalType": "bool",
                      "name": "modeWithInterest",
                      "type": "bool"
                    },
                    {
                      "internalType": "uint256",
                      "name": "borrow",
                      "type": "uint256"
                    },
                    {
                      "internalType": "uint256",
                      "name": "borrowLimit",
                      "type": "uint256"
                    },
                    {
                      "internalType": "uint256",
                      "name": "lastUpdateTimestamp",
                      "type": "uint256"
                    },
                    {
                      "internalType": "uint256",
                      "name": "expandPercent",
                      "type": "uint256"
                    },
                    {
                      "internalType": "uint256",
                      "name": "expandDuration",
                      "type": "uint256"
                    },
                    {
                      "internalType": "uint256",
                      "name": "baseBorrowLimit",
                      "type": "uint256"
                    },
                    {
                      "internalType": "uint256",
                      "name": "maxBorrowLimit",
                      "type": "uint256"
                    },
                    {
                      "internalType": "uint256",
                      "name": "borrowableUntilLimit",
                      "type": "uint256"
                    },
                    {
                      "internalType": "uint256",
                      "name": "borrowable",
                      "type": "uint256"
                    },
                    {
                      "internalType": "uint256",
                      "name": "borrowLimitUtilization",
                      "type": "uint256"
                    }
                  ],
                  "internalType": "struct Structs.UserBorrowData",
                  "name": "liquidityUserBorrowDataToken0",
                  "type": "tuple"
                },
                {
                  "components": [
                    {
                      "internalType": "bool",
                      "name": "modeWithInterest",
                      "type": "bool"
                    },
                    {
                      "internalType": "uint256",
                      "name": "borrow",
                      "type": "uint256"
                    },
                    {
                      "internalType": "uint256",
                      "name": "borrowLimit",
                      "type": "uint256"
                    },
                    {
                      "internalType": "uint256",
                      "name": "lastUpdateTimestamp",
                      "type": "uint256"
                    },
                    {
                      "internalType": "uint256",
                      "name": "expandPercent",
                      "type": "uint256"
                    },
                    {
                      "internalType": "uint256",
                      "name": "expandDuration",
                      "type": "uint256"
                    },
                    {
                      "internalType": "uint256",
                      "name": "baseBorrowLimit",
                      "type": "uint256"
                    },
                    {
                      "internalType": "uint256",
                      "name": "maxBorrowLimit",
                      "type": "uint256"
                    },
                    {
                      "internalType": "uint256",
                      "name": "borrowableUntilLimit",
                      "type": "uint256"
                    },
                    {
                      "internalType": "uint256",
                      "name": "borrowable",
                      "type": "uint256"
                    },
                    {
                      "internalType": "uint256",
                      "name": "borrowLimitUtilization",
                      "type": "uint256"
                    }
                  ],
                  "internalType": "struct Structs.UserBorrowData",
                  "name": "liquidityUserBorrowDataToken1",
                  "type": "tuple"
                }
              ],
              "internalType": "struct Structs.SwapLimitsAndAvailability",
              "name": "limitsAndAvailability",
              "type": "tuple"
            }
          ],
          "internalType": "struct Structs.DexEntireData[]",
          "name": "datas_",
          "type": "tuple[]"
        }
      ],
      "stateMutability": "nonpayable",
      "type": "function"
    },
    {
      "inputs": [
        {
          "internalType": "address",
          "name": "dex_",
          "type": "address"
        }
      ],
      "name": "getDexId",
      "outputs": [
        {
          "internalType": "uint256",
          "name": "id_",
          "type": "uint256"
        }
      ],
      "stateMutability": "view",
      "type": "function"
    },
    {
      "inputs": [
        {
          "internalType": "address",
          "name": "dex_",
          "type": "address"
        },
        {
          "internalType": "uint256[]",
          "name": "secondsAgos_",
          "type": "uint256[]"
        }
      ],
      "name": "getDexOraclePrice",
      "outputs": [
        {
          "components": [
            {
              "internalType": "uint256",
              "name": "twap1by0",
              "type": "uint256"
            },
            {
              "internalType": "uint256",
              "name": "lowestPrice1by0",
              "type": "uint256"
            },
            {
              "internalType": "uint256",
              "name": "highestPrice1by0",
              "type": "uint256"
            },
            {
              "internalType": "uint256",
              "name": "twap0by1",
              "type": "uint256"
            },
            {
              "internalType": "uint256",
              "name": "lowestPrice0by1",
              "type": "uint256"
            },
            {
              "internalType": "uint256",
              "name": "highestPrice0by1",
              "type": "uint256"
            }
          ],
          "internalType": "struct IFluidDexT1.Oracle[]",
          "name": "twaps_",
          "type": "tuple[]"
        },
        {
          "internalType": "uint256",
          "name": "currentPrice_",
          "type": "uint256"
        }
      ],
      "stateMutability": "view",
      "type": "function"
    },
    {
      "inputs": [
        {
          "internalType": "address",
          "name": "dex_",
          "type": "address"
        }
      ],
      "name": "getDexPricesAndExchangePrices",
      "outputs": [
        {
          "components": [
            {
              "internalType": "uint256",
              "name": "lastStoredPrice",
              "type": "uint256"
            },
            {
              "internalType": "uint256",
              "name": "centerPrice",
              "type": "uint256"
            },
            {
              "internalType": "uint256",
              "name": "upperRange",
              "type": "uint256"
            },
            {
              "internalType": "uint256",
              "name": "lowerRange",
              "type": "uint256"
            },
            {
              "internalType": "uint256",
              "name": "geometricMean",
              "type": "uint256"
            },
            {
              "internalType": "uint256",
              "name": "supplyToken0ExchangePrice",
              "type": "uint256"
            },
            {
              "internalType": "uint256",
              "name": "borrowToken0ExchangePrice",
              "type": "uint256"
            },
            {
              "internalType": "uint256",
              "name": "supplyToken1ExchangePrice",
              "type": "uint256"
            },
            {
              "internalType": "uint256",
              "name": "borrowToken1ExchangePrice",
              "type": "uint256"
            }
          ],
          "internalType": "struct IFluidDexT1.PricesAndExchangePrice",
          "name": "pex_",
          "type": "tuple"
        }
      ],
      "stateMutability": "nonpayable",
      "type": "function"
    },
    {
      "inputs": [
        {
          "internalType": "address",
          "name": "dex_",
          "type": "address"
        }
      ],
      "name": "getDexState",
      "outputs": [
        {
          "components": [
            {
              "internalType": "uint256",
              "name": "lastToLastStoredPrice",
              "type": "uint256"
            },
            {
              "internalType": "uint256",
              "name": "lastStoredPrice",
              "type": "uint256"
            },
            {
              "internalType": "uint256",
              "name": "centerPrice",
              "type": "uint256"
            },
            {
              "internalType": "uint256",
              "name": "lastUpdateTimestamp",
              "type": "uint256"
            },
            {
              "internalType": "uint256",
              "name": "lastPricesTimeDiff",
              "type": "uint256"
            },
            {
              "internalType": "uint256",
              "name": "oracleCheckPoint",
              "type": "uint256"
            },
            {
              "internalType": "uint256",
              "name": "oracleMapping",
              "type": "uint256"
            },
            {
              "internalType": "uint256",
              "name": "totalSupplyShares",
              "type": "uint256"
            },
            {
              "internalType": "uint256",
              "name": "totalBorrowShares",
              "type": "uint256"
            },
            {
              "internalType": "bool",
              "name": "isSwapAndArbitragePaused",
              "type": "bool"
            },
            {
              "components": [
                {
                  "internalType": "bool",
                  "name": "isRangeChangeActive",
                  "type": "bool"
                },
                {
                  "internalType": "bool",
                  "name": "isThresholdChangeActive",
                  "type": "bool"
                },
                {
                  "internalType": "bool",
                  "name": "isCenterPriceShiftActive",
                  "type": "bool"
                },
                {
                  "components": [
                    {
                      "internalType": "uint256",
                      "name": "oldUpper",
                      "type": "uint256"
                    },
                    {
                      "internalType": "uint256",
                      "name": "oldLower",
                      "type": "uint256"
                    },
                    {
                      "internalType": "uint256",
                      "name": "duration",
                      "type": "uint256"
                    },
                    {
                      "internalType": "uint256",
                      "name": "startTimestamp",
                      "type": "uint256"
                    },
                    {
                      "internalType": "uint256",
                      "name": "oldTime",
                      "type": "uint256"
                    }
                  ],
                  "internalType": "struct Structs.ShiftData",
                  "name": "rangeShift",
                  "type": "tuple"
                },
                {
                  "components": [
                    {
                      "internalType": "uint256",
                      "name": "oldUpper",
                      "type": "uint256"
                    },
                    {
                      "internalType": "uint256",
                      "name": "oldLower",
                      "type": "uint256"
                    },
                    {
                      "internalType": "uint256",
                      "name": "duration",
                      "type": "uint256"
                    },
                    {
                      "internalType": "uint256",
                      "name": "startTimestamp",
                      "type": "uint256"
                    },
                    {
                      "internalType": "uint256",
                      "name": "oldTime",
                      "type": "uint256"
                    }
                  ],
                  "internalType": "struct Structs.ShiftData",
                  "name": "thresholdShift",
                  "type": "tuple"
                },
                {
                  "components": [
                    {
                      "internalType": "uint256",
                      "name": "shiftPercentage",
                      "type": "uint256"
                    },
                    {
                      "internalType": "uint256",
                      "name": "duration",
                      "type": "uint256"
                    },
                    {
                      "internalType": "uint256",
                      "name": "startTimestamp",
                      "type": "uint256"
                    }
                  ],
                  "internalType": "struct Structs.CenterPriceShift",
                  "name": "centerPriceShift",
                  "type": "tuple"
                }
              ],
              "internalType": "struct Structs.ShiftChanges",
              "name": "shifts",
              "type": "tuple"
            }
          ],
          "internalType": "struct Structs.DexState",
          "name": "state_",
          "type": "tuple"
        }
      ],
      "stateMutability": "view",
      "type": "function"
    },
    {
      "inputs": [
        {
          "internalType": "address",
          "name": "dex_",
          "type": "address"
        }
      ],
      "name": "getDexSwapLimitsAndAvailability",
      "outputs": [
        {
          "components": [
            {
              "internalType": "uint256",
              "name": "liquiditySupplyToken0",
              "type": "uint256"
            },
            {
              "internalType": "uint256",
              "name": "liquiditySupplyToken1",
              "type": "uint256"
            },
            {
              "internalType": "uint256",
              "name": "liquidityBorrowToken0",
              "type": "uint256"
            },
            {
              "internalType": "uint256",
              "name": "liquidityBorrowToken1",
              "type": "uint256"
            },
            {
              "internalType": "uint256",
              "name": "liquidityWithdrawableToken0",
              "type": "uint256"
            },
            {
              "internalType": "uint256",
              "name": "liquidityWithdrawableToken1",
              "type": "uint256"
            },
            {
              "internalType": "uint256",
              "name": "liquidityBorrowableToken0",
              "type": "uint256"
            },
            {
              "internalType": "uint256",
              "name": "liquidityBorrowableToken1",
              "type": "uint256"
            },
            {
              "internalType": "uint256",
              "name": "utilizationLimitToken0",
              "type": "uint256"
            },
            {
              "internalType": "uint256",
              "name": "utilizationLimitToken1",
              "type": "uint256"
            },
            {
              "internalType": "uint256",
              "name": "withdrawableUntilUtilizationLimitToken0",
              "type": "uint256"
            },
            {
              "internalType": "uint256",
              "name": "withdrawableUntilUtilizationLimitToken1",
              "type": "uint256"
            },
            {
              "internalType": "uint256",
              "name": "borrowableUntilUtilizationLimitToken0",
              "type": "uint256"
            },
            {
              "internalType": "uint256",
              "name": "borrowableUntilUtilizationLimitToken1",
              "type": "uint256"
            },
            {
              "components": [
                {
                  "internalType": "bool",
                  "name": "modeWithInterest",
                  "type": "bool"
                },
                {
                  "internalType": "uint256",
                  "name": "supply",
                  "type": "uint256"
                },
                {
                  "internalType": "uint256",
                  "name": "withdrawalLimit",
                  "type": "uint256"
                },
                {
                  "internalType": "uint256",
                  "name": "lastUpdateTimestamp",
                  "type": "uint256"
                },
                {
                  "internalType": "uint256",
                  "name": "expandPercent",
                  "type": "uint256"
                },
                {
                  "internalType": "uint256",
                  "name": "expandDuration",
                  "type": "uint256"
                },
                {
                  "internalType": "uint256",
                  "name": "baseWithdrawalLimit",
                  "type": "uint256"
                },
                {
                  "internalType": "uint256",
                  "name": "withdrawableUntilLimit",
                  "type": "uint256"
                },
                {
                  "internalType": "uint256",
                  "name": "withdrawable",
                  "type": "uint256"
                }
              ],
              "internalType": "struct Structs.UserSupplyData",
              "name": "liquidityUserSupplyDataToken0",
              "type": "tuple"
            },
            {
              "components": [
                {
                  "internalType": "bool",
                  "name": "modeWithInterest",
                  "type": "bool"
                },
                {
                  "internalType": "uint256",
                  "name": "supply",
                  "type": "uint256"
                },
                {
                  "internalType": "uint256",
                  "name": "withdrawalLimit",
                  "type": "uint256"
                },
                {
                  "internalType": "uint256",
                  "name": "lastUpdateTimestamp",
                  "type": "uint256"
                },
                {
                  "internalType": "uint256",
                  "name": "expandPercent",
                  "type": "uint256"
                },
                {
                  "internalType": "uint256",
                  "name": "expandDuration",
                  "type": "uint256"
                },
                {
                  "internalType": "uint256",
                  "name": "baseWithdrawalLimit",
                  "type": "uint256"
                },
                {
                  "internalType": "uint256",
                  "name": "withdrawableUntilLimit",
                  "type": "uint256"
                },
                {
                  "internalType": "uint256",
                  "name": "withdrawable",
                  "type": "uint256"
                }
              ],
              "internalType": "struct Structs.UserSupplyData",
              "name": "liquidityUserSupplyDataToken1",
              "type": "tuple"
            },
            {
              "components": [
                {
                  "internalType": "bool",
                  "name": "modeWithInterest",
                  "type": "bool"
                },
                {
                  "internalType": "uint256",
                  "name": "borrow",
                  "type": "uint256"
                },
                {
                  "internalType": "uint256",
                  "name": "borrowLimit",
                  "type": "uint256"
                },
                {
                  "internalType": "uint256",
                  "name": "lastUpdateTimestamp",
                  "type": "uint256"
                },
                {
                  "internalType": "uint256",
                  "name": "expandPercent",
                  "type": "uint256"
                },
                {
                  "internalType": "uint256",
                  "name": "expandDuration",
                  "type": "uint256"
                },
                {
                  "internalType": "uint256",
                  "name": "baseBorrowLimit",
                  "type": "uint256"
                },
                {
                  "internalType": "uint256",
                  "name": "maxBorrowLimit",
                  "type": "uint256"
                },
                {
                  "internalType": "uint256",
                  "name": "borrowableUntilLimit",
                  "type": "uint256"
                },
                {
                  "internalType": "uint256",
                  "name": "borrowable",
                  "type": "uint256"
                },
                {
                  "internalType": "uint256",
                  "name": "borrowLimitUtilization",
                  "type": "uint256"
                }
              ],
              "internalType": "struct Structs.UserBorrowData",
              "name": "liquidityUserBorrowDataToken0",
              "type": "tuple"
            },
            {
              "components": [
                {
                  "internalType": "bool",
                  "name": "modeWithInterest",
                  "type": "bool"
                },
                {
                  "internalType": "uint256",
                  "name": "borrow",
                  "type": "uint256"
                },
                {
                  "internalType": "uint256",
                  "name": "borrowLimit",
                  "type": "uint256"
                },
                {
                  "internalType": "uint256",
                  "name": "lastUpdateTimestamp",
                  "type": "uint256"
                },
                {
                  "internalType": "uint256",
                  "name": "expandPercent",
                  "type": "uint256"
                },
                {
                  "internalType": "uint256",
                  "name": "expandDuration",
                  "type": "uint256"
                },
                {
                  "internalType": "uint256",
                  "name": "baseBorrowLimit",
                  "type": "uint256"
                },
                {
                  "internalType": "uint256",
                  "name": "maxBorrowLimit",
                  "type": "uint256"
                },
                {
                  "internalType": "uint256",
                  "name": "borrowableUntilLimit",
                  "type": "uint256"
                },
                {
                  "internalType": "uint256",
                  "name": "borrowable",
                  "type": "uint256"
                },
                {
                  "internalType": "uint256",
                  "name": "borrowLimitUtilization",
                  "type": "uint256"
                }
              ],
              "internalType": "struct Structs.UserBorrowData",
              "name": "liquidityUserBorrowDataToken1",
              "type": "tuple"
            }
          ],
          "internalType": "struct Structs.SwapLimitsAndAvailability",
          "name": "limitsAndAvailability_",
          "type": "tuple"
        }
      ],
      "stateMutability": "view",
      "type": "function"
    },
    {
      "inputs": [
        {
          "internalType": "address",
          "name": "dex_",
          "type": "address"
        }
      ],
      "name": "getDexTokens",
      "outputs": [
        {
          "internalType": "address",
          "name": "token0_",
          "type": "address"
        },
        {
          "internalType": "address",
          "name": "token1_",
          "type": "address"
        }
      ],
      "stateMutability": "view",
      "type": "function"
    },
    {
      "inputs": [
        {
          "internalType": "address",
          "name": "dex_",
          "type": "address"
        }
      ],
      "name": "getDexVariables2Raw",
      "outputs": [
        {
          "internalType": "uint256",
          "name": "",
          "type": "uint256"
        }
      ],
      "stateMutability": "view",
      "type": "function"
    },
    {
      "inputs": [
        {
          "internalType": "address",
          "name": "dex_",
          "type": "address"
        }
      ],
      "name": "getDexVariablesRaw",
      "outputs": [
        {
          "internalType": "uint256",
          "name": "",
          "type": "uint256"
        }
      ],
      "stateMutability": "view",
      "type": "function"
    },
    {
      "inputs": [
        {
          "internalType": "address",
          "name": "dex_",
          "type": "address"
        },
        {
          "internalType": "uint256",
          "name": "index_",
          "type": "uint256"
        }
      ],
      "name": "getOracleRaw",
      "outputs": [
        {
          "internalType": "uint256",
          "name": "",
          "type": "uint256"
        }
      ],
      "stateMutability": "view",
      "type": "function"
    },
    {
      "inputs": [
        {
          "internalType": "address",
          "name": "dex_",
          "type": "address"
        }
      ],
      "name": "getRangeShiftRaw",
      "outputs": [
        {
          "internalType": "uint256",
          "name": "",
          "type": "uint256"
        }
      ],
      "stateMutability": "view",
      "type": "function"
    },
    {
      "inputs": [
        {
          "internalType": "address",
          "name": "dex_",
          "type": "address"
        }
      ],
      "name": "getThresholdShiftRaw",
      "outputs": [
        {
          "internalType": "uint256",
          "name": "",
          "type": "uint256"
        }
      ],
      "stateMutability": "view",
      "type": "function"
    },
    {
      "inputs": [
        {
          "internalType": "address",
          "name": "dex_",
          "type": "address"
        }
      ],
      "name": "getTotalBorrowShares",
      "outputs": [
        {
          "internalType": "uint256",
          "name": "",
          "type": "uint256"
        }
      ],
      "stateMutability": "view",
      "type": "function"
    },
    {
      "inputs": [],
      "name": "getTotalDexes",
      "outputs": [
        {
          "internalType": "uint256",
          "name": "",
          "type": "uint256"
        }
      ],
      "stateMutability": "view",
      "type": "function"
    },
    {
      "inputs": [
        {
          "internalType": "address",
          "name": "dex_",
          "type": "address"
        }
      ],
      "name": "getTotalSupplyShares",
      "outputs": [
        {
          "internalType": "uint256",
          "name": "",
          "type": "uint256"
        }
      ],
      "stateMutability": "view",
      "type": "function"
    },
    {
      "inputs": [
        {
          "internalType": "address",
          "name": "dex_",
          "type": "address"
        },
        {
          "internalType": "address",
          "name": "user_",
          "type": "address"
        }
      ],
      "name": "getUserBorrowData",
      "outputs": [
        {
          "components": [
            {
              "internalType": "bool",
              "name": "isAllowed",
              "type": "bool"
            },
            {
              "internalType": "uint256",
              "name": "borrow",
              "type": "uint256"
            },
            {
              "internalType": "uint256",
              "name": "borrowLimit",
              "type": "uint256"
            },
            {
              "internalType": "uint256",
              "name": "lastUpdateTimestamp",
              "type": "uint256"
            },
            {
              "internalType": "uint256",
              "name": "expandPercent",
              "type": "uint256"
            },
            {
              "internalType": "uint256",
              "name": "expandDuration",
              "type": "uint256"
            },
            {
              "internalType": "uint256",
              "name": "baseBorrowLimit",
              "type": "uint256"
            },
            {
              "internalType": "uint256",
              "name": "maxBorrowLimit",
              "type": "uint256"
            },
            {
              "internalType": "uint256",
              "name": "borrowableUntilLimit",
              "type": "uint256"
            },
            {
              "internalType": "uint256",
              "name": "borrowable",
              "type": "uint256"
            },
            {
              "components": [
                {
                  "internalType": "bool",
                  "name": "modeWithInterest",
                  "type": "bool"
                },
                {
                  "internalType": "uint256",
                  "name": "borrow",
                  "type": "uint256"
                },
                {
                  "internalType": "uint256",
                  "name": "borrowLimit",
                  "type": "uint256"
                },
                {
                  "internalType": "uint256",
                  "name": "lastUpdateTimestamp",
                  "type": "uint256"
                },
                {
                  "internalType": "uint256",
                  "name": "expandPercent",
                  "type": "uint256"
                },
                {
                  "internalType": "uint256",
                  "name": "expandDuration",
                  "type": "uint256"
                },
                {
                  "internalType": "uint256",
                  "name": "baseBorrowLimit",
                  "type": "uint256"
                },
                {
                  "internalType": "uint256",
                  "name": "maxBorrowLimit",
                  "type": "uint256"
                },
                {
                  "internalType": "uint256",
                  "name": "borrowableUntilLimit",
                  "type": "uint256"
                },
                {
                  "internalType": "uint256",
                  "name": "borrowable",
                  "type": "uint256"
                },
                {
                  "internalType": "uint256",
                  "name": "borrowLimitUtilization",
                  "type": "uint256"
                }
              ],
              "internalType": "struct Structs.UserBorrowData",
              "name": "liquidityUserBorrowDataToken0",
              "type": "tuple"
            },
            {
              "components": [
                {
                  "internalType": "bool",
                  "name": "modeWithInterest",
                  "type": "bool"
                },
                {
                  "internalType": "uint256",
                  "name": "borrow",
                  "type": "uint256"
                },
                {
                  "internalType": "uint256",
                  "name": "borrowLimit",
                  "type": "uint256"
                },
                {
                  "internalType": "uint256",
                  "name": "lastUpdateTimestamp",
                  "type": "uint256"
                },
                {
                  "internalType": "uint256",
                  "name": "expandPercent",
                  "type": "uint256"
                },
                {
                  "internalType": "uint256",
                  "name": "expandDuration",
                  "type": "uint256"
                },
                {
                  "internalType": "uint256",
                  "name": "baseBorrowLimit",
                  "type": "uint256"
                },
                {
                  "internalType": "uint256",
                  "name": "maxBorrowLimit",
                  "type": "uint256"
                },
                {
                  "internalType": "uint256",
                  "name": "borrowableUntilLimit",
                  "type": "uint256"
                },
                {
                  "internalType": "uint256",
                  "name": "borrowable",
                  "type": "uint256"
                },
                {
                  "internalType": "uint256",
                  "name": "borrowLimitUtilization",
                  "type": "uint256"
                }
              ],
              "internalType": "struct Structs.UserBorrowData",
              "name": "liquidityUserBorrowDataToken1",
              "type": "tuple"
            }
          ],
          "internalType": "struct Structs.UserBorrowData",
          "name": "userBorrowData_",
          "type": "tuple"
        }
      ],
      "stateMutability": "view",
      "type": "function"
    },
    {
      "inputs": [
        {
          "internalType": "address",
          "name": "dex_",
          "type": "address"
        },
        {
          "internalType": "address",
          "name": "user_",
          "type": "address"
        }
      ],
      "name": "getUserBorrowDataRaw",
      "outputs": [
        {
          "internalType": "uint256",
          "name": "",
          "type": "uint256"
        }
      ],
      "stateMutability": "view",
      "type": "function"
    },
    {
      "inputs": [
        {
          "internalType": "address",
          "name": "dex_",
          "type": "address"
        },
        {
          "internalType": "address[]",
          "name": "users_",
          "type": "address[]"
        }
      ],
      "name": "getUserBorrowDatas",
      "outputs": [
        {
          "components": [
            {
              "internalType": "bool",
              "name": "isAllowed",
              "type": "bool"
            },
            {
              "internalType": "uint256",
              "name": "borrow",
              "type": "uint256"
            },
            {
              "internalType": "uint256",
              "name": "borrowLimit",
              "type": "uint256"
            },
            {
              "internalType": "uint256",
              "name": "lastUpdateTimestamp",
              "type": "uint256"
            },
            {
              "internalType": "uint256",
              "name": "expandPercent",
              "type": "uint256"
            },
            {
              "internalType": "uint256",
              "name": "expandDuration",
              "type": "uint256"
            },
            {
              "internalType": "uint256",
              "name": "baseBorrowLimit",
              "type": "uint256"
            },
            {
              "internalType": "uint256",
              "name": "maxBorrowLimit",
              "type": "uint256"
            },
            {
              "internalType": "uint256",
              "name": "borrowableUntilLimit",
              "type": "uint256"
            },
            {
              "internalType": "uint256",
              "name": "borrowable",
              "type": "uint256"
            },
            {
              "components": [
                {
                  "internalType": "bool",
                  "name": "modeWithInterest",
                  "type": "bool"
                },
                {
                  "internalType": "uint256",
                  "name": "borrow",
                  "type": "uint256"
                },
                {
                  "internalType": "uint256",
                  "name": "borrowLimit",
                  "type": "uint256"
                },
                {
                  "internalType": "uint256",
                  "name": "lastUpdateTimestamp",
                  "type": "uint256"
                },
                {
                  "internalType": "uint256",
                  "name": "expandPercent",
                  "type": "uint256"
                },
                {
                  "internalType": "uint256",
                  "name": "expandDuration",
                  "type": "uint256"
                },
                {
                  "internalType": "uint256",
                  "name": "baseBorrowLimit",
                  "type": "uint256"
                },
                {
                  "internalType": "uint256",
                  "name": "maxBorrowLimit",
                  "type": "uint256"
                },
                {
                  "internalType": "uint256",
                  "name": "borrowableUntilLimit",
                  "type": "uint256"
                },
                {
                  "internalType": "uint256",
                  "name": "borrowable",
                  "type": "uint256"
                },
                {
                  "internalType": "uint256",
                  "name": "borrowLimitUtilization",
                  "type": "uint256"
                }
              ],
              "internalType": "struct Structs.UserBorrowData",
              "name": "liquidityUserBorrowDataToken0",
              "type": "tuple"
            },
            {
              "components": [
                {
                  "internalType": "bool",
                  "name": "modeWithInterest",
                  "type": "bool"
                },
                {
                  "internalType": "uint256",
                  "name": "borrow",
                  "type": "uint256"
                },
                {
                  "internalType": "uint256",
                  "name": "borrowLimit",
                  "type": "uint256"
                },
                {
                  "internalType": "uint256",
                  "name": "lastUpdateTimestamp",
                  "type": "uint256"
                },
                {
                  "internalType": "uint256",
                  "name": "expandPercent",
                  "type": "uint256"
                },
                {
                  "internalType": "uint256",
                  "name": "expandDuration",
                  "type": "uint256"
                },
                {
                  "internalType": "uint256",
                  "name": "baseBorrowLimit",
                  "type": "uint256"
                },
                {
                  "internalType": "uint256",
                  "name": "maxBorrowLimit",
                  "type": "uint256"
                },
                {
                  "internalType": "uint256",
                  "name": "borrowableUntilLimit",
                  "type": "uint256"
                },
                {
                  "internalType": "uint256",
                  "name": "borrowable",
                  "type": "uint256"
                },
                {
                  "internalType": "uint256",
                  "name": "borrowLimitUtilization",
                  "type": "uint256"
                }
              ],
              "internalType": "struct Structs.UserBorrowData",
              "name": "liquidityUserBorrowDataToken1",
              "type": "tuple"
            }
          ],
          "internalType": "struct Structs.UserBorrowData[]",
          "name": "userBorrowingsData_",
          "type": "tuple[]"
        }
      ],
      "stateMutability": "view",
      "type": "function"
    },
    {
      "inputs": [
        {
          "internalType": "address",
          "name": "dex_",
          "type": "address"
        },
        {
          "internalType": "address[]",
          "name": "users_",
          "type": "address[]"
        }
      ],
      "name": "getUserBorrowSupplyDatas",
      "outputs": [
        {
          "components": [
            {
              "internalType": "bool",
              "name": "isAllowed",
              "type": "bool"
            },
            {
              "internalType": "uint256",
              "name": "supply",
              "type": "uint256"
            },
            {
              "internalType": "uint256",
              "name": "withdrawalLimit",
              "type": "uint256"
            },
            {
              "internalType": "uint256",
              "name": "lastUpdateTimestamp",
              "type": "uint256"
            },
            {
              "internalType": "uint256",
              "name": "expandPercent",
              "type": "uint256"
            },
            {
              "internalType": "uint256",
              "name": "expandDuration",
              "type": "uint256"
            },
            {
              "internalType": "uint256",
              "name": "baseWithdrawalLimit",
              "type": "uint256"
            },
            {
              "internalType": "uint256",
              "name": "withdrawableUntilLimit",
              "type": "uint256"
            },
            {
              "internalType": "uint256",
              "name": "withdrawable",
              "type": "uint256"
            },
            {
              "components": [
                {
                  "internalType": "bool",
                  "name": "modeWithInterest",
                  "type": "bool"
                },
                {
                  "internalType": "uint256",
                  "name": "supply",
                  "type": "uint256"
                },
                {
                  "internalType": "uint256",
                  "name": "withdrawalLimit",
                  "type": "uint256"
                },
                {
                  "internalType": "uint256",
                  "name": "lastUpdateTimestamp",
                  "type": "uint256"
                },
                {
                  "internalType": "uint256",
                  "name": "expandPercent",
                  "type": "uint256"
                },
                {
                  "internalType": "uint256",
                  "name": "expandDuration",
                  "type": "uint256"
                },
                {
                  "internalType": "uint256",
                  "name": "baseWithdrawalLimit",
                  "type": "uint256"
                },
                {
                  "internalType": "uint256",
                  "name": "withdrawableUntilLimit",
                  "type": "uint256"
                },
                {
                  "internalType": "uint256",
                  "name": "withdrawable",
                  "type": "uint256"
                }
              ],
              "internalType": "struct Structs.UserSupplyData",
              "name": "liquidityUserSupplyDataToken0",
              "type": "tuple"
            },
            {
              "components": [
                {
                  "internalType": "bool",
                  "name": "modeWithInterest",
                  "type": "bool"
                },
                {
                  "internalType": "uint256",
                  "name": "supply",
                  "type": "uint256"
                },
                {
                  "internalType": "uint256",
                  "name": "withdrawalLimit",
                  "type": "uint256"
                },
                {
                  "internalType": "uint256",
                  "name": "lastUpdateTimestamp",
                  "type": "uint256"
                },
                {
                  "internalType": "uint256",
                  "name": "expandPercent",
                  "type": "uint256"
                },
                {
                  "internalType": "uint256",
                  "name": "expandDuration",
                  "type": "uint256"
                },
                {
                  "internalType": "uint256",
                  "name": "baseWithdrawalLimit",
                  "type": "uint256"
                },
                {
                  "internalType": "uint256",
                  "name": "withdrawableUntilLimit",
                  "type": "uint256"
                },
                {
                  "internalType": "uint256",
                  "name": "withdrawable",
                  "type": "uint256"
                }
              ],
              "internalType": "struct Structs.UserSupplyData",
              "name": "liquidityUserSupplyDataToken1",
              "type": "tuple"
            }
          ],
          "internalType": "struct Structs.UserSupplyData[]",
          "name": "userSuppliesData_",
          "type": "tuple[]"
        },
        {
          "components": [
            {
              "internalType": "bool",
              "name": "isAllowed",
              "type": "bool"
            },
            {
              "internalType": "uint256",
              "name": "borrow",
              "type": "uint256"
            },
            {
              "internalType": "uint256",
              "name": "borrowLimit",
              "type": "uint256"
            },
            {
              "internalType": "uint256",
              "name": "lastUpdateTimestamp",
              "type": "uint256"
            },
            {
              "internalType": "uint256",
              "name": "expandPercent",
              "type": "uint256"
            },
            {
              "internalType": "uint256",
              "name": "expandDuration",
              "type": "uint256"
            },
            {
              "internalType": "uint256",
              "name": "baseBorrowLimit",
              "type": "uint256"
            },
            {
              "internalType": "uint256",
              "name": "maxBorrowLimit",
              "type": "uint256"
            },
            {
              "internalType": "uint256",
              "name": "borrowableUntilLimit",
              "type": "uint256"
            },
            {
              "internalType": "uint256",
              "name": "borrowable",
              "type": "uint256"
            },
            {
              "components": [
                {
                  "internalType": "bool",
                  "name": "modeWithInterest",
                  "type": "bool"
                },
                {
                  "internalType": "uint256",
                  "name": "borrow",
                  "type": "uint256"
                },
                {
                  "internalType": "uint256",
                  "name": "borrowLimit",
                  "type": "uint256"
                },
                {
                  "internalType": "uint256",
                  "name": "lastUpdateTimestamp",
                  "type": "uint256"
                },
                {
                  "internalType": "uint256",
                  "name": "expandPercent",
                  "type": "uint256"
                },
                {
                  "internalType": "uint256",
                  "name": "expandDuration",
                  "type": "uint256"
                },
                {
                  "internalType": "uint256",
                  "name": "baseBorrowLimit",
                  "type": "uint256"
                },
                {
                  "internalType": "uint256",
                  "name": "maxBorrowLimit",
                  "type": "uint256"
                },
                {
                  "internalType": "uint256",
                  "name": "borrowableUntilLimit",
                  "type": "uint256"
                },
                {
                  "internalType": "uint256",
                  "name": "borrowable",
                  "type": "uint256"
                },
                {
                  "internalType": "uint256",
                  "name": "borrowLimitUtilization",
                  "type": "uint256"
                }
              ],
              "internalType": "struct Structs.UserBorrowData",
              "name": "liquidityUserBorrowDataToken0",
              "type": "tuple"
            },
            {
              "components": [
                {
                  "internalType": "bool",
                  "name": "modeWithInterest",
                  "type": "bool"
                },
                {
                  "internalType": "uint256",
                  "name": "borrow",
                  "type": "uint256"
                },
                {
                  "internalType": "uint256",
                  "name": "borrowLimit",
                  "type": "uint256"
                },
                {
                  "internalType": "uint256",
                  "name": "lastUpdateTimestamp",
                  "type": "uint256"
                },
                {
                  "internalType": "uint256",
                  "name": "expandPercent",
                  "type": "uint256"
                },
                {
                  "internalType": "uint256",
                  "name": "expandDuration",
                  "type": "uint256"
                },
                {
                  "internalType": "uint256",
                  "name": "baseBorrowLimit",
                  "type": "uint256"
                },
                {
                  "internalType": "uint256",
                  "name": "maxBorrowLimit",
                  "type": "uint256"
                },
                {
                  "internalType": "uint256",
                  "name": "borrowableUntilLimit",
                  "type": "uint256"
                },
                {
                  "internalType": "uint256",
                  "name": "borrowable",
                  "type": "uint256"
                },
                {
                  "internalType": "uint256",
                  "name": "borrowLimitUtilization",
                  "type": "uint256"
                }
              ],
              "internalType": "struct Structs.UserBorrowData",
              "name": "liquidityUserBorrowDataToken1",
              "type": "tuple"
            }
          ],
          "internalType": "struct Structs.UserBorrowData[]",
          "name": "userBorrowingsData_",
          "type": "tuple[]"
        }
      ],
      "stateMutability": "view",
      "type": "function"
    },
    {
      "inputs": [
        {
          "internalType": "address",
          "name": "dex_",
          "type": "address"
        },
        {
          "internalType": "address",
          "name": "user_",
          "type": "address"
        }
      ],
      "name": "getUserSupplyData",
      "outputs": [
        {
          "components": [
            {
              "internalType": "bool",
              "name": "isAllowed",
              "type": "bool"
            },
            {
              "internalType": "uint256",
              "name": "supply",
              "type": "uint256"
            },
            {
              "internalType": "uint256",
              "name": "withdrawalLimit",
              "type": "uint256"
            },
            {
              "internalType": "uint256",
              "name": "lastUpdateTimestamp",
              "type": "uint256"
            },
            {
              "internalType": "uint256",
              "name": "expandPercent",
              "type": "uint256"
            },
            {
              "internalType": "uint256",
              "name": "expandDuration",
              "type": "uint256"
            },
            {
              "internalType": "uint256",
              "name": "baseWithdrawalLimit",
              "type": "uint256"
            },
            {
              "internalType": "uint256",
              "name": "withdrawableUntilLimit",
              "type": "uint256"
            },
            {
              "internalType": "uint256",
              "name": "withdrawable",
              "type": "uint256"
            },
            {
              "components": [
                {
                  "internalType": "bool",
                  "name": "modeWithInterest",
                  "type": "bool"
                },
                {
                  "internalType": "uint256",
                  "name": "supply",
                  "type": "uint256"
                },
                {
                  "internalType": "uint256",
                  "name": "withdrawalLimit",
                  "type": "uint256"
                },
                {
                  "internalType": "uint256",
                  "name": "lastUpdateTimestamp",
                  "type": "uint256"
                },
                {
                  "internalType": "uint256",
                  "name": "expandPercent",
                  "type": "uint256"
                },
                {
                  "internalType": "uint256",
                  "name": "expandDuration",
                  "type": "uint256"
                },
                {
                  "internalType": "uint256",
                  "name": "baseWithdrawalLimit",
                  "type": "uint256"
                },
                {
                  "internalType": "uint256",
                  "name": "withdrawableUntilLimit",
                  "type": "uint256"
                },
                {
                  "internalType": "uint256",
                  "name": "withdrawable",
                  "type": "uint256"
                }
              ],
              "internalType": "struct Structs.UserSupplyData",
              "name": "liquidityUserSupplyDataToken0",
              "type": "tuple"
            },
            {
              "components": [
                {
                  "internalType": "bool",
                  "name": "modeWithInterest",
                  "type": "bool"
                },
                {
                  "internalType": "uint256",
                  "name": "supply",
                  "type": "uint256"
                },
                {
                  "internalType": "uint256",
                  "name": "withdrawalLimit",
                  "type": "uint256"
                },
                {
                  "internalType": "uint256",
                  "name": "lastUpdateTimestamp",
                  "type": "uint256"
                },
                {
                  "internalType": "uint256",
                  "name": "expandPercent",
                  "type": "uint256"
                },
                {
                  "internalType": "uint256",
                  "name": "expandDuration",
                  "type": "uint256"
                },
                {
                  "internalType": "uint256",
                  "name": "baseWithdrawalLimit",
                  "type": "uint256"
                },
                {
                  "internalType": "uint256",
                  "name": "withdrawableUntilLimit",
                  "type": "uint256"
                },
                {
                  "internalType": "uint256",
                  "name": "withdrawable",
                  "type": "uint256"
                }
              ],
              "internalType": "struct Structs.UserSupplyData",
              "name": "liquidityUserSupplyDataToken1",
              "type": "tuple"
            }
          ],
          "internalType": "struct Structs.UserSupplyData",
          "name": "userSupplyData_",
          "type": "tuple"
        }
      ],
      "stateMutability": "view",
      "type": "function"
    },
    {
      "inputs": [
        {
          "internalType": "address",
          "name": "dex_",
          "type": "address"
        },
        {
          "internalType": "address",
          "name": "user_",
          "type": "address"
        }
      ],
      "name": "getUserSupplyDataRaw",
      "outputs": [
        {
          "internalType": "uint256",
          "name": "",
          "type": "uint256"
        }
      ],
      "stateMutability": "view",
      "type": "function"
    },
    {
      "inputs": [
        {
          "internalType": "address",
          "name": "dex_",
          "type": "address"
        },
        {
          "internalType": "address[]",
          "name": "users_",
          "type": "address[]"
        }
      ],
      "name": "getUserSupplyDatas",
      "outputs": [
        {
          "components": [
            {
              "internalType": "bool",
              "name": "isAllowed",
              "type": "bool"
            },
            {
              "internalType": "uint256",
              "name": "supply",
              "type": "uint256"
            },
            {
              "internalType": "uint256",
              "name": "withdrawalLimit",
              "type": "uint256"
            },
            {
              "internalType": "uint256",
              "name": "lastUpdateTimestamp",
              "type": "uint256"
            },
            {
              "internalType": "uint256",
              "name": "expandPercent",
              "type": "uint256"
            },
            {
              "internalType": "uint256",
              "name": "expandDuration",
              "type": "uint256"
            },
            {
              "internalType": "uint256",
              "name": "baseWithdrawalLimit",
              "type": "uint256"
            },
            {
              "internalType": "uint256",
              "name": "withdrawableUntilLimit",
              "type": "uint256"
            },
            {
              "internalType": "uint256",
              "name": "withdrawable",
              "type": "uint256"
            },
            {
              "components": [
                {
                  "internalType": "bool",
                  "name": "modeWithInterest",
                  "type": "bool"
                },
                {
                  "internalType": "uint256",
                  "name": "supply",
                  "type": "uint256"
                },
                {
                  "internalType": "uint256",
                  "name": "withdrawalLimit",
                  "type": "uint256"
                },
                {
                  "internalType": "uint256",
                  "name": "lastUpdateTimestamp",
                  "type": "uint256"
                },
                {
                  "internalType": "uint256",
                  "name": "expandPercent",
                  "type": "uint256"
                },
                {
                  "internalType": "uint256",
                  "name": "expandDuration",
                  "type": "uint256"
                },
                {
                  "internalType": "uint256",
                  "name": "baseWithdrawalLimit",
                  "type": "uint256"
                },
                {
                  "internalType": "uint256",
                  "name": "withdrawableUntilLimit",
                  "type": "uint256"
                },
                {
                  "internalType": "uint256",
                  "name": "withdrawable",
                  "type": "uint256"
                }
              ],
              "internalType": "struct Structs.UserSupplyData",
              "name": "liquidityUserSupplyDataToken0",
              "type": "tuple"
            },
            {
              "components": [
                {
                  "internalType": "bool",
                  "name": "modeWithInterest",
                  "type": "bool"
                },
                {
                  "internalType": "uint256",
                  "name": "supply",
                  "type": "uint256"
                },
                {
                  "internalType": "uint256",
                  "name": "withdrawalLimit",
                  "type": "uint256"
                },
                {
                  "internalType": "uint256",
                  "name": "lastUpdateTimestamp",
                  "type": "uint256"
                },
                {
                  "internalType": "uint256",
                  "name": "expandPercent",
                  "type": "uint256"
                },
                {
                  "internalType": "uint256",
                  "name": "expandDuration",
                  "type": "uint256"
                },
                {
                  "internalType": "uint256",
                  "name": "baseWithdrawalLimit",
                  "type": "uint256"
                },
                {
                  "internalType": "uint256",
                  "name": "withdrawableUntilLimit",
                  "type": "uint256"
                },
                {
                  "internalType": "uint256",
                  "name": "withdrawable",
                  "type": "uint256"
                }
              ],
              "internalType": "struct Structs.UserSupplyData",
              "name": "liquidityUserSupplyDataToken1",
              "type": "tuple"
            }
          ],
          "internalType": "struct Structs.UserSupplyData[]",
          "name": "userSuppliesData_",
          "type": "tuple[]"
        }
      ],
      "stateMutability": "view",
      "type": "function"
    }
  ],
  "transactionHash": "0xf9a119cea33363d35940317e87d09dc58ae9b011f18862ab3362c990c9637c78",
  "args": [
    "0xF9b539Cd37Fc81bBEA1F078240d16b988BBae073",
    "0x52Aa899454998Be5b000Ad077a46Bbe360F4e497",
    "0xF82111c4354622AB12b9803cD3F6164FCE52e847",
    "0x4EC7b668BAF70d4A4b0FC7941a7708A07b6d45Be"
  ],
  "numDeployments": 4,
  "solcInputHash": "bf5b89ef1d3a0ffa5ab095aef610bd02",
  "bytecode": "0x6101006040523480156200001257600080fd5b5060405162005e9438038062005e94833981016040819052620000359162000075565b6001600160a01b0393841660805291831660a052821660c0521660e052620000d2565b80516001600160a01b03811681146200007057600080fd5b919050565b600080600080608085870312156200008c57600080fd5b620000978562000058565b9350620000a76020860162000058565b9250620000b76040860162000058565b9150620000c76060860162000058565b905092959194509250565b60805160a05160c05160e051615d3462000160600039600081816108be015281816127a501526127f101526000818161068d01528181612112015281816121c7015281816129a101528181612a5601528181612e2901528181612ee101528181612f9b0152613050015260006104c20152600081816104f601528181610e530152612ad60152615d346000f3fe6080604052600436106103135760003560e01c80637b05c2001161019a578063cdaf7f22116100e1578063e72ef91b1161008a578063eeb9baeb11610064578063eeb9baeb146109cf578063eee99670146109ef578063f44dfe5014610a0f57600080fd5b8063e72ef91b1461096d578063ebf11ce41461099a578063ee221c08146109af57600080fd5b8063d91a0633116100bb578063d91a0633146108f3578063e1a25ab914610913578063e5c458431461094057600080fd5b8063cdaf7f221461088c578063d1d32444146108ac578063d82ae0fa146108e057600080fd5b8063957755e6116101435780639bb65fc71161011d5780639bb65fc7146108465780639c1b042314610866578063bb39e3a11461087957600080fd5b8063957755e6146107d9578063967915d6146107f957806396cc6dbf1461082657600080fd5b80638ad1fe82116101745780638ad1fe82146107695780638bfe3db21461079757806395430c41146107ac57600080fd5b80637b05c200146106ef5780637f51d07f1461070f57806384502d951461073c57600080fd5b80633cb84b111161025e5780634f8666a0116102075780636902f79f116101e15780636902f79f1461067b5780636dd5fd85146106af578063741c0b5c146106cf57600080fd5b80634f8666a01461060e578063546b08cd1461062e57806355181f111461064e57600080fd5b8063425711371161023857806342571137146105bb578063472f2d09146105ce5780634dd3a4e0146105ee57600080fd5b80633cb84b11146105455780633f7256611461057357806340ee5d731461059b57600080fd5b80631cba0023116102c05780632861c7d11161029a5780632861c7d1146104b05780632dd31000146104e4578063345df8df1461051857600080fd5b80631cba0023146104345780632516d94014610461578063266398ef1461048e57600080fd5b806310af7715116102f157806310af7715146103bb5780631272e9ac146103e957806312e366aa146103fc57600080fd5b8063015f6cfa146103185780630208dbb01461034e578063030a68101461037b575b600080fd5b34801561032457600080fd5b50610338610333366004614140565b610a22565b604051610345919061415d565b60405180910390f35b34801561035a57600080fd5b5061036e610369366004614140565b610b75565b60405161034591906148c0565b34801561038757600080fd5b5061039b610396366004614140565b610c28565b604080516001600160a01b03938416815292909116602083015201610345565b3480156103c757600080fd5b506103db6103d6366004614140565b610ca6565b604051908152602001610345565b6103db6103f73660046148cf565b610d45565b34801561040857600080fd5b5061041c61041736600461490a565b610e4c565b6040516001600160a01b039091168152602001610345565b34801561044057600080fd5b5061045461044f366004614140565b610e7e565b6040516103459190614923565b34801561046d57600080fd5b5061048161047c366004614140565b61107c565b6040516103459190614932565b34801561049a57600080fd5b506104a36110ca565b6040516103459190614941565b3480156104bc57600080fd5b5061041c7f000000000000000000000000000000000000000000000000000000000000000081565b3480156104f057600080fd5b5061041c7f000000000000000000000000000000000000000000000000000000000000000081565b34801561052457600080fd5b50610538610533366004614aee565b611177565b6040516103459190614b82565b34801561055157600080fd5b50610565610560366004614bc5565b61122e565b604051610345929190614f3a565b6105866105813660046148cf565b611394565b60408051928352602083019190915201610345565b3480156105a757600080fd5b506103db6105b6366004614140565b6114a2565b6103db6105c9366004614f76565b6114fc565b3480156105da57600080fd5b506103db6105e9366004614fbc565b6115f3565b3480156105fa57600080fd5b506103db610609366004614fe8565b611675565b34801561061a57600080fd5b506103db610629366004614140565b611691565b34801561063a57600080fd5b506103db610649366004614140565b611721565b34801561065a57600080fd5b5061066e610669366004614140565b61177c565b6040516103459190615021565b34801561068757600080fd5b5061041c7f000000000000000000000000000000000000000000000000000000000000000081565b3480156106bb57600080fd5b506103db6106ca366004614140565b6119b2565b3480156106db57600080fd5b506103db6106ea3660046148cf565b611a38565b3480156106fb57600080fd5b5061058661070a3660046148cf565b611acb565b34801561071b57600080fd5b5061072f61072a366004614140565b611b5f565b6040516103459190615064565b34801561074857600080fd5b5061075c610757366004614bc5565b611bec565b604051610345919061508f565b34801561077557600080fd5b506107896107843660046150a2565b611c9e565b604051610345929190615148565b3480156107a357600080fd5b50610538611d1f565b3480156107b857600080fd5b506107cc6107c7366004614bc5565b611d31565b60405161034591906151cf565b3480156107e557600080fd5b5061072f6107f4366004614140565b611dda565b34801561080557600080fd5b50610819610814366004614fe8565b611fd1565b60405161034591906151e2565b34801561083257600080fd5b506105866108413660046148cf565b612244565b34801561085257600080fd5b506103db6108613660046148cf565b6122a5565b6103db6108743660046148cf565b612398565b6103db610887366004614f76565b61242b565b34801561089857600080fd5b506103db6108a7366004614140565b61248d565b3480156108b857600080fd5b5061041c7f000000000000000000000000000000000000000000000000000000000000000081565b6103db6108ee3660046148cf565b6124d6565b3480156108ff57600080fd5b506103db61090e366004614140565b612536565b34801561091f57600080fd5b5061093361092e366004614140565b61257f565b6040516103459190615330565b34801561094c57600080fd5b5061096061095b366004614140565b61267f565b604051610345919061533f565b34801561097957600080fd5b5061098d610988366004614fe8565b61287b565b604051610345919061534e565b3480156109a657600080fd5b506103db612ad2565b3480156109bb57600080fd5b506103db6109ca366004614fe8565b612b56565b3480156109db57600080fd5b506103db6109ea366004614140565b612b72565b3480156109fb57600080fd5b506103db610a0a3660046148cf565b612bb2565b610586610a1d3660046148cf565b612c11565b610a716040518061012001604052806000815260200160008152602001600081526020016000815260200160008152602001600081526020016000815260200160008152602001600081525090565b816001600160a01b031663916cef4e6040518163ffffffff1660e01b8152600401600060405180830381600087803b158015610aac57600080fd5b505af1925050508015610abd575060015b610b70573d808015610aeb576040519150601f19603f3d011682016040523d82523d6000602084013e610af0565b606091505b5060208101517fdc4022c5000000000000000000000000000000000000000000000000000000007fffffffff00000000000000000000000000000000000000000000000000000000821601610b6d57610b57826004808551610b5291906154a7565b612c73565b806020019051810190610b6a91906154ba565b92505b50505b919050565b610b7d613928565b6001600160a01b0382168152610b928261257f565b6020820152610ba082611b5f565b6040820152610bae8261267f565b6060820152610bbc82610a22565b6080820152610bca82611dda565b60a0820152610bd88261177c565b60c0820152610be682610e7e565b8160e00181905250610c1d82826020015160a00151836020015160c0015184606001516101a0015185606001516101c00151612dd1565b610100820152919050565b6000806000836001600160a01b031663b7791bf26040518163ffffffff1660e01b815260040161024060405180830381865afa158015610c6c573d6000803e3d6000fd5b505050506040513d601f19601f82011682018060405250810190610c9091906155bb565b90508060a001518160c001519250925050915091565b6040517fb5c736e4000000000000000000000000000000000000000000000000000000008152600260048201526000906fffffffffffffffffffffffffffffffff906001600160a01b0384169063b5c736e4906024015b602060405180830381865afa158015610d1a573d6000803e3d6000fd5b505050506040513d601f19601f82011682018060405250810190610d3e91906156a2565b1692915050565b6040517fe980e1eb000000000000000000000000000000000000000000000000000000008152600481018490526024810183905260448101829052600160648201526000906001600160a01b0386169063e980e1eb9034906084015b60206040518083038185885af193505050508015610ddc575060408051601f3d908101601f19168201909252610dd9918101906156a2565b60015b610e42573d808015610e0a576040519150601f19603f3d011682016040523d82523d6000602084013e610e0f565b606091505b50610e3a817fe8d35d060000000000000000000000000000000000000000000000000000000061326a565b915050610e44565b505b949350505050565b6000610e787f0000000000000000000000000000000000000000000000000000000000000000836132b9565b92915050565b610e86613b71565b6000610e918361248d565b64ffffffffff600182901c81168452602982901c81166020850152605182901c1660408401526401ffffffff607982901c166060840152623fffff609a82901c166080840152600760b082901c1660a084015261ffff60b382901c1660c08401529050610efd83610ca6565b60e0830152610f0b836114a2565b610100830152610f1a836119b2565b600160ff82901c811461012085015261014084018051601a84901c8316831490528051604384901c831683146020909101525160f883901c82169091146040909101529050610f6883611721565b61014083018051606090810151620fffff8085169091528251820151601485901c82166020909101528251820151602885901c909116604091909101529051810151603c83901c6401ffffffff169101529050610fc483611691565b610140830180516080908101516103ff8085169091528251820151601485901c9091166020909101528151810151602884901c620fffff166040909101528151810151603c84901c6401ffffffff16606091909101529051810151605d83901c62ffffff16910152905061103783612536565b6101408301805160a0908101516401ffffffff84166040909101528151810151620fffff602185901c81169091529151015160359290921c1660209091015250919050565b611084613bcd565b60008061109084610c28565b91509150600061109f856119b2565b90506103ff60e482901c81169060ee83901c166110bf8786868585612dd1565b979650505050505050565b606060006110d6612ad2565b90508067ffffffffffffffff8111156110f1576110f161498e565b60405190808252806020026020018201604052801561111a578160200160208202803683370190505b50915060005b81811015611172576111366104178260016156bb565b838281518110611148576111486156ce565b6001600160a01b03909216602092830291909101909101528061116a816156fd565b915050611120565b505090565b80516060908067ffffffffffffffff8111156111955761119561498e565b6040519080825280602002602001820160405280156111ce57816020015b6111bb613928565b8152602001906001900390816111b35790505b50915060005b81811015610b6d576111fe8482815181106111f1576111f16156ce565b6020026020010151610b75565b838281518110611210576112106156ce565b60200260200101819052508080611226906156fd565b9150506111d4565b606080828067ffffffffffffffff81111561124b5761124b61498e565b60405190808252806020026020018201604052801561128457816020015b611271613daa565b8152602001906001900390816112695790505b5092508067ffffffffffffffff8111156112a0576112a061498e565b6040519080825280602002602001820160405280156112d957816020015b6112c6613e9e565b8152602001906001900390816112be5790505b50915060005b8181101561138a57611312878787848181106112fd576112fd6156ce565b90506020020160208101906109889190614140565b848281518110611324576113246156ce565b602002602001018190525061135a87878784818110611345576113456156ce565b90506020020160208101906108149190614140565b83828151811061136c5761136c6156ce565b60200260200101819052508080611382906156fd565b9150506112df565b5050935093915050565b6040517f4d9036de0000000000000000000000000000000000000000000000000000000081526004810184905260248101839052604481018290526001606482015260009081906001600160a01b03871690634d9036de9034906084015b604080518083038185885af19350505050801561142c575060408051601f3d908101601f1916820190925261142991810190615735565b60015b611496573d80801561145a576040519150601f19603f3d011682016040523d82523d6000602084013e61145f565b606091505b5061148a817f1458577f00000000000000000000000000000000000000000000000000000000613723565b90935091506114999050565b50505b94509492505050565b6040517fb5c736e40000000000000000000000000000000000000000000000000000000081526004808201526000906fffffffffffffffffffffffffffffffff906001600160a01b0384169063b5c736e490602401610cfd565b6040517f286f0e610000000000000000000000000000000000000000000000000000000081528315156004820152602481018390526044810182905261dead60648201526000906001600160a01b0386169063286f0e619034906084015b60206040518083038185885af193505050508015611595575060408051601f3d908101601f19168201909252611592918101906156a2565b60015b610e42573d8080156115c3576040519150601f19603f3d011682016040523d82523d6000602084013e6115c8565b606091505b50610e3a817fb3bfda990000000000000000000000000000000000000000000000000000000061326a565b6000826001600160a01b031663b5c736e461160f600685613783565b6040518263ffffffff1660e01b815260040161162d91815260200190565b602060405180830381865afa15801561164a573d6000803e3d6000fd5b505050506040513d601f19601f8201168201806040525081019061166e91906156a2565b9392505050565b6000826001600160a01b031663b5c736e461160f6005856137b9565b6040517fb5c736e4000000000000000000000000000000000000000000000000000000008152600760048201526000906080906001600160a01b0384169063b5c736e490602401602060405180830381865afa1580156116f5573d6000803e3d6000fd5b505050506040513d601f19601f8201168201806040525081019061171991906156a2565b901c92915050565b6040517fb5c736e4000000000000000000000000000000000000000000000000000000008152600760048201526000906fffffffffffffffffffffffffffffffff906001600160a01b0384169063b5c736e490602401610cfd565b6117b56040518060c001604052806000815260200160008152602001600081526020016000815260200160008152602001600081525090565b60006117c0836119b2565b905080600216600214611808576040518060c0016040528060008152602001600081526020016000815260200160008152602001600081526020016000815250915050919050565b6040517f015f6cfa0000000000000000000000000000000000000000000000000000000081526001600160a01b0384166004820152309063015f6cfa90602401610120604051808303816000875af1925050508015611884575060408051601f3d908101601f19168201909252611881918101906154ba565b60015b6118c2576040518060c001604052806000815260200160008152602001600081526020016000815260200160008152602001600081525091506119ac565b6080810151604080830151606084015160c085015161010086015193517f05d455a9000000000000000000000000000000000000000000000000000000008152600481019590955260248501929092526044840152606483015260848201526001600160a01b038516906305d455a99060a40160c060405180830381865afa92505050801561196e575060408051601f3d908101601f1916820190925261196b918101906157d3565b60015b610b6a576040518060c00160405280600081526020016000815260200160008152602001600081526020016000815260200160008152509250610b6d565b50919050565b6040517fb5c736e4000000000000000000000000000000000000000000000000000000008152600160048201526000906001600160a01b0383169063b5c736e4906024015b602060405180830381865afa158015611a14573d6000803e3d6000fd5b505050506040513d601f19601f82011682018060405250810190610e7891906156a2565b6040517fd331bef700000000000000000000000000000000000000000000000000000000815260048101849052602481018390526044810182905261dead60648201526000906001600160a01b0386169063d331bef7906084015b6020604051808303816000875af1925050508015610ddc575060408051601f3d908101601f19168201909252610dd9918101906156a2565b6040517fe27203cd00000000000000000000000000000000000000000000000000000000815260048101849052602481018390526044810182905261dead606482015260009081906001600160a01b0387169063e27203cd906084015b60408051808303816000875af192505050801561142c575060408051601f3d908101601f1916820190925261142991810190615735565b611b8a6040518060800160405280600081526020016000815260200160008152602001600081525090565b816001600160a01b0316631595cbd36040518163ffffffff1660e01b8152600401608060405180830381865afa158015611bc8573d6000803e3d6000fd5b505050506040513d601f19601f82011682018060405250810190610e789190615855565b6060818067ffffffffffffffff811115611c0857611c0861498e565b604051908082528060200260200182016040528015611c4157816020015b611c2e613daa565b815260200190600190039081611c265790505b50915060005b81811015611c9557611c65868686848181106112fd576112fd6156ce565b838281518110611c7757611c776156ce565b60200260200101819052508080611c8d906156fd565b915050611c47565b50509392505050565b60606000836001600160a01b031663d811b2ce846040518263ffffffff1660e01b8152600401611cce9190615871565b600060405180830381865afa158015611ceb573d6000803e3d6000fd5b505050506040513d6000823e601f3d908101601f19168201604052611d1391908101906158a9565b915091505b9250929050565b6060611d2c6105336110ca565b905090565b6060818067ffffffffffffffff811115611d4d57611d4d61498e565b604051908082528060200260200182016040528015611d8657816020015b611d73613e9e565b815260200190600190039081611d6b5790505b50915060005b81811015611c9557611daa86868684818110611345576113456156ce565b838281518110611dbc57611dbc6156ce565b60200260200101819052508080611dd2906156fd565b915050611d8c565b611e056040518060800160405280600081526020016000815260200160008152602001600081525090565b6000611e10836119b2565b905080600116600114611e4a5760405180608001604052806000815260200160008152602001600081526020016000815250915050919050565b6040517f015f6cfa0000000000000000000000000000000000000000000000000000000081526001600160a01b0384166004820152309063015f6cfa90602401610120604051808303816000875af1925050508015611ec6575060408051601f3d908101601f19168201909252611ec3918101906154ba565b60015b611ef6576040518060800160405280600081526020016000815260200160008152602001600081525091506119ac565b6080810151604080830151606084015160a085015160e086015193517f6560abaa000000000000000000000000000000000000000000000000000000008152600481019590955260248501929092526044840152606483015260848201526001600160a01b03851690636560abaa9060a401608060405180830381865afa925050508015611fa1575060408051601f3d908101601f19168201909252611f9e91810190615855565b60015b610b6a57604051806080016040528060008152602001600081526020016000815260200160008152509250610b6d565b611fd9613e9e565b6000611fe58484611675565b9050801561223d576001808216811483526120159082901c67ffffffffffffffff16600860ff9082901c91161b90565b602083018190526120279082906137dd565b60408301526401ffffffff608182901c166060830152613fff60a282901c16608083015262ffffff60b082901c1660a08301526103ff60d082901c1660ff60c883901c161b60c08301526103ff60e282901c1660ff60da83901c161b60e0830152602082015160408301511161209e5760006120b2565b816020015182604001516120b291906154a7565b61010083018190526101208301526000806120cc86610c28565b6040517f967915d60000000000000000000000000000000000000000000000000000000081526001600160a01b03898116600483015280841660248301529294509092507f00000000000000000000000000000000000000000000000000000000000000009091169063967915d69060440161050060405180830381865afa15801561215c573d6000803e3d6000fd5b505050506040513d601f19601f820116820180604052508101906121809190615b53565b506101408501526040517f967915d60000000000000000000000000000000000000000000000000000000081526001600160a01b03878116600483015282811660248301527f0000000000000000000000000000000000000000000000000000000000000000169063967915d69060440161050060405180830381865afa15801561220f573d6000803e3d6000fd5b505050506040513d601f19601f820116820180604052508101906122339190615b53565b5061016085015250505b5092915050565b6040517f35f0df9800000000000000000000000000000000000000000000000000000000815260048101849052602481018390526044810182905261dead606482015260009081906001600160a01b038716906335f0df9890608401611b28565b6040517f4c89bfd400000000000000000000000000000000000000000000000000000000815260048101849052602481018390526044810182905261dead60648201526000906001600160a01b03861690634c89bfd4906084016020604051808303816000875af192505050801561233a575060408051601f3d908101601f19168201909252612337918101906156a2565b60015b610e42573d808015612368576040519150601f19603f3d011682016040523d82523d6000602084013e61236d565b606091505b50610e3a817f739995060000000000000000000000000000000000000000000000000000000061326a565b6040517f30acd6fd000000000000000000000000000000000000000000000000000000008152600481018490526024810183905260448101829052600160648201526000906001600160a01b038616906330acd6fd90349060840160206040518083038185885af19350505050801561233a575060408051601f3d908101601f19168201909252612337918101906156a2565b6040517f2668dfaa0000000000000000000000000000000000000000000000000000000081528315156004820152602481018390526044810182905261dead60648201526000906001600160a01b03861690632668dfaa90349060840161155a565b6040517fb5c736e4000000000000000000000000000000000000000000000000000000008152600060048201819052906001600160a01b0383169063b5c736e4906024016119f7565b6040517f68766981000000000000000000000000000000000000000000000000000000008152600481018490526024810183905260448101829052600160648201526000906001600160a01b038616906368766981903490608401610da1565b6040517fb5c736e4000000000000000000000000000000000000000000000000000000008152600860048201526000906001600160a01b0383169063b5c736e4906024016119f7565b61261c604080516101c08101825260008082526020808301829052828401829052835160a08101855282815290810182905292830181905260608381018290526080840191909152909190820190815260006020820181905260408201819052606082018190526080820181905260a0820181905260c0820181905260e08201819052610100820181905261012082018190526101409091015290565b816001600160a01b031663b7791bf26040518163ffffffff1660e01b815260040161024060405180830381865afa15801561265b573d6000803e3d6000fd5b505050506040513d601f19601f82011682018060405250810190610e7891906155bb565b61270e604051806101e001604052806000151581526020016000151581526020016000815260200160008152602001600081526020016000815260200160008152602001600081526020016000815260200160006001600160a01b0316815260200160006001600160a01b03168152602001600081526020016000815260200160008152602001600081525090565b6000612719836119b2565b60018181161483526002808216811460208501526201ffff9082901c166040840152607f601382901c166060840152620fffff601b82901c81166080850152602f82901c1660a08401526103ff604482901c811660c0850152604e82901c1660e084015262ffffff605882901c166101008401529050633fffffff607082901c1680156127da576127ca7f0000000000000000000000000000000000000000000000000000000000000000826132b9565b6001600160a01b03166101208401525b50608e81901c633fffffff168015612826576128167f0000000000000000000000000000000000000000000000000000000000000000826132b9565b6001600160a01b03166101408401525b620fffff60b483901c1660ff60ac84901c161b610160840152620fffff60d083901c1660ff60c884901c161b610180840152506103ff60e482901c81166101a084015260ee9190911c166101c0820152919050565b612883613daa565b600061288f8484612b56565b9050801561223d576001808216811483526128bf9082901c67ffffffffffffffff16600860ff9082901c91161b90565b602083018190526128d1908290613898565b60408301819052608182901c6401ffffffff16606084015260a282901c613fff16608084015260b082901c62ffffff1660a084015260d082901c6103ff1660c883901c60ff161b60c084015260208301511161292e576000612942565b8160400151826020015161294291906154a7565b60e0830181905261010083015260008061295b86610c28565b6040517fe72ef91b0000000000000000000000000000000000000000000000000000000081526001600160a01b03898116600483015280841660248301529294509092507f00000000000000000000000000000000000000000000000000000000000000009091169063e72ef91b906044016104c060405180830381865afa1580156129eb573d6000803e3d6000fd5b505050506040513d601f19601f82011682018060405250810190612a0f9190615c11565b506101208501526040517fe72ef91b0000000000000000000000000000000000000000000000000000000081526001600160a01b03878116600483015282811660248301527f0000000000000000000000000000000000000000000000000000000000000000169063e72ef91b906044016104c060405180830381865afa158015612a9e573d6000803e3d6000fd5b505050506040513d601f19601f82011682018060405250810190612ac29190615c11565b5061014085015250505092915050565b60007f00000000000000000000000000000000000000000000000000000000000000006001600160a01b03166393656c176040518163ffffffff1660e01b8152600401602060405180830381865afa158015612b32573d6000803e3d6000fd5b505050506040513d601f19601f82011682018060405250810190611d2c91906156a2565b6000826001600160a01b031663b5c736e461160f6003856137b9565b6000816001600160a01b031663f4b9a3fb6040518163ffffffff1660e01b8152600401602060405180830381865afa158015611a14573d6000803e3d6000fd5b6040517f242011d500000000000000000000000000000000000000000000000000000000815260048101849052602481018390526044810182905261dead60648201526000906001600160a01b0386169063242011d590608401611a93565b6040517f5b3d38d70000000000000000000000000000000000000000000000000000000081526004810184905260248101839052604481018290526001606482015260009081906001600160a01b03871690635b3d38d79034906084016113f2565b606081612c8181601f6156bb565b1015612cee576040517f08c379a000000000000000000000000000000000000000000000000000000000815260206004820152600e60248201527f736c6963655f6f766572666c6f7700000000000000000000000000000000000060448201526064015b60405180910390fd5b612cf882846156bb565b84511015612d62576040517f08c379a000000000000000000000000000000000000000000000000000000000815260206004820152601160248201527f736c6963655f6f75744f66426f756e64730000000000000000000000000000006044820152606401612ce5565b81158015612d7f5760405191506000825260208201604052612dc9565b6040519150601f8316801560200281840101848101868315602002848a0101015b81831015612db8578051835260209283019201612da0565b5050848452601f01601f1916604052505b509392505050565b612dd9613bcd565b612de1613f51565b612de9613f51565b6040517fe72ef91b0000000000000000000000000000000000000000000000000000000081526001600160a01b03898116600483015288811660248301527f0000000000000000000000000000000000000000000000000000000000000000169063e72ef91b906044016104c060405180830381865afa158015612e71573d6000803e3d6000fd5b505050506040513d601f19601f82011682018060405250810190612e959190615c11565b6101c08501919091526040517fe72ef91b0000000000000000000000000000000000000000000000000000000081526001600160a01b038a8116600483015288811660248301529193507f00000000000000000000000000000000000000000000000000000000000000009091169063e72ef91b906044016104c060405180830381865afa158015612f2b573d6000803e3d6000fd5b505050506040513d601f19601f82011682018060405250810190612f4f9190615c11565b6101e08501919091526040517f967915d60000000000000000000000000000000000000000000000000000000081526001600160a01b038a8116600483015289811660248301529192507f00000000000000000000000000000000000000000000000000000000000000009091169063967915d69060440161050060405180830381865afa158015612fe5573d6000803e3d6000fd5b505050506040513d601f19601f820116820180604052508101906130099190615b53565b506102008401526040517f967915d60000000000000000000000000000000000000000000000000000000081526001600160a01b03898116600483015287811660248301527f0000000000000000000000000000000000000000000000000000000000000000169063967915d69060440161050060405180830381865afa158015613098573d6000803e3d6000fd5b505050506040513d601f19601f820116820180604052508101906130bc9190615b53565b506102208401819052610180808401518086529083015160208601526101a080850151604087015283015160608601526101c08501516101009081015160808701526101e0860151015160a08601526102008501516101209081015160c08701529091015160e08501526103e890613135908790615cac565b61313f9190615cc3565b61010084015260208301516103e890613159908690615cac565b6131639190615cc3565b610120840152610100830151604084015110156131e1578483604001516103e861318d9190615cac565b6131979190615cc3565b61014084018190528351116131ad5760006131bf565b61014083015183516131bf91906154a7565b61014084015260408301516101008401516131da91906154a7565b6101808401525b8261012001518360600151101561325f578383606001516103e86132059190615cac565b61320f9190615cc3565b610160840181905260208401511161322857600061323d565b826101600151836020015161323d91906154a7565b610160840152606083015161012084015161325891906154a7565b6101a08401525b505095945050505050565b600060248351101561327e57506000610e78565b60208301517fffffffff000000000000000000000000000000000000000000000000000000008084169082160361223d575050506024015190565b60006060826000036132cf576000915050610e78565b607f8311613398576040517fd60000000000000000000000000000000000000000000000000000000000000060208201527f940000000000000000000000000000000000000000000000000000000000000060218201527fffffffffffffffffffffffffffffffffffffffff000000000000000000000000606086901b16602282015260f884901b7fff000000000000000000000000000000000000000000000000000000000000001660368201526037015b6040516020818303038152906040529050613714565b60ff8311613475576040517fd70000000000000000000000000000000000000000000000000000000000000060208201527f940000000000000000000000000000000000000000000000000000000000000060218201527fffffffffffffffffffffffffffffffffffffffff000000000000000000000000606086901b1660228201527f8100000000000000000000000000000000000000000000000000000000000000603682015260f884901b7fff00000000000000000000000000000000000000000000000000000000000000166037820152603801613382565b61ffff8311613553576040517fd80000000000000000000000000000000000000000000000000000000000000060208201527f940000000000000000000000000000000000000000000000000000000000000060218201527fffffffffffffffffffffffffffffffffffffffff000000000000000000000000606086901b1660228201527f820000000000000000000000000000000000000000000000000000000000000060368201527fffff00000000000000000000000000000000000000000000000000000000000060f085901b166037820152603901613382565b62ffffff8311613632576040517fd90000000000000000000000000000000000000000000000000000000000000060208201527f940000000000000000000000000000000000000000000000000000000000000060218201527fffffffffffffffffffffffffffffffffffffffff000000000000000000000000606086901b1660228201527f830000000000000000000000000000000000000000000000000000000000000060368201527fffffff000000000000000000000000000000000000000000000000000000000060e885901b166037820152603a01613382565b6040517fda0000000000000000000000000000000000000000000000000000000000000060208201527f940000000000000000000000000000000000000000000000000000000000000060218201527fffffffffffffffffffffffffffffffffffffffff000000000000000000000000606086901b1660228201527f840000000000000000000000000000000000000000000000000000000000000060368201527fffffffff0000000000000000000000000000000000000000000000000000000060e085901b166037820152603b0160405160208183030381529060405290505b80516020909101209392505050565b60008060448451101561373b57506000905080611d18565b60208401517fffffffff000000000000000000000000000000000000000000000000000000008085169082160361377b5760248501519250604485015191505b509250929050565b60408051602081018390529081018390526000906060015b60405160208183030381529060405280519060200120905092915050565b604080516001600160a01b038316602082015290810183905260009060600161379b565b60d082901c6103ff1660c883901c60ff161b613fff60a284901c16612710838202048084018381101561381257505050610e78565b608186901c6401ffffffff164203925066ffffffffffffff604987901c1660ff604188901c161b60b087901c62ffffff1661384d8585615cac565b6138579190615cc3565b61386191906156bb565b93508084111561386f578093505b6103ff60e287901c1660ff60da88901c161b92508284111561388f578293505b50505092915050565b600066ffffffffffffff604984901c1660ff604185901c161b8082036138c2576000915050610e78565b612710613fff60a286901c168402046401ffffffff608186901c16420362ffffff60b087901c166138f38284615cac565b6138fd9190615cc3565b905080831161390d576000613911565b8083035b9350508084038381111561388f5795945050505050565b604080516101208082018352600080835283516101c0810185528181526020818101839052818601839052855160a080820188528482528183018590529681018490526060808201859052608080830186905290840191909152820183905294810182905260c0810182905260e0810182905261010081018290529182018190526101408201819052610160820181905261018082018190526101a0820152909182019081526020016139fc6040518060800160405280600081526020016000815260200160008152602001600081525090565b8152602001613a90604051806101e001604052806000151581526020016000151581526020016000815260200160008152602001600081526020016000815260200160008152602001600081526020016000815260200160006001600160a01b0316815260200160006001600160a01b03168152602001600081526020016000815260200160008152602001600081525090565b8152602001613ae46040518061012001604052806000815260200160008152602001600081526020016000815260200160008152602001600081526020016000815260200160008152602001600081525090565b8152602001613b146040518060800160405280600081526020016000815260200160008152602001600081525090565b8152602001613b526040518060c001604052806000815260200160008152602001600081526020016000815260200160008152602001600081525090565b8152602001613b5f613b71565b8152602001613b6c613bcd565b905290565b604051806101600160405280600081526020016000815260200160008152602001600081526020016000815260200160008152602001600081526020016000815260200160008152602001600015158152602001613b6c613fd5565b6040518061024001604052806000815260200160008152602001600081526020016000815260200160008152602001600081526020016000815260200160008152602001600081526020016000815260200160008152602001600081526020016000815260200160008152602001613c8c60405180610120016040528060001515815260200160008152602001600081526020016000815260200160008152602001600081526020016000815260200160008152602001600081525090565b8152602001613ce260405180610120016040528060001515815260200160008152602001600081526020016000815260200160008152602001600081526020016000815260200160008152602001600081525090565b8152602001613d46604051806101600160405280600015158152602001600081526020016000815260200160008152602001600081526020016000815260200160008152602001600081526020016000815260200160008152602001600081525090565b8152602001613b6c604051806101600160405280600015158152602001600081526020016000815260200160008152602001600081526020016000815260200160008152602001600081526020016000815260200160008152602001600081525090565b6040518061016001604052806000151581526020016000815260200160008152602001600081526020016000815260200160008152602001600081526020016000815260200160008152602001613e4860405180610120016040528060001515815260200160008152602001600081526020016000815260200160008152602001600081526020016000815260200160008152602001600081525090565b8152602001613b6c60405180610120016040528060001515815260200160008152602001600081526020016000815260200160008152602001600081526020016000815260200160008152602001600081525090565b604051806101800160405280600015158152602001600081526020016000815260200160008152602001600081526020016000815260200160008152602001600081526020016000815260200160008152602001613d46604051806101600160405280600015158152602001600081526020016000815260200160008152602001600081526020016000815260200160008152602001600081526020016000815260200160008152602001600081525090565b60405180610220016040528060008152602001600081526020016000815260200160008152602001600081526020016000815260200160008152602001600081526020016000815260200160008152602001600081526020016000815260200160008152602001600081526020016000815260200160008152602001613b6c61408d565b6040518060c0016040528060001515815260200160001515815260200160001515815260200161402d6040518060a0016040528060008152602001600081526020016000815260200160008152602001600081525090565b81526020016140646040518060a0016040528060008152602001600081526020016000815260200160008152602001600081525090565b8152602001613b6c60405180606001604052806000815260200160008152602001600081525090565b6040518060600160405280600081526020016140da6040518060a0016040528060006001600160a01b03168152602001600081526020016000815260200160008152602001600081525090565b8152602001613b6c6040518060e0016040528060006001600160a01b031681526020016000815260200160008152602001600081526020016000815260200160008152602001600081525090565b6001600160a01b038116811461413d57600080fd5b50565b60006020828403121561415257600080fd5b813561166e81614128565b6101208101610e788284805182526020810151602083015260408101516040830152606081015160608301526080810151608083015260a081015160a083015260c081015160c083015260e081015160e08301526101008082015181840152505050565b8051825260208101516141df60208401826001600160a01b03169052565b5060408101516141fa60408401826001600160a01b03169052565b50606081015161424b60608401826001600160a01b03808251168352806020830151166020840152806040830151166040840152806060830151166060840152806080830151166080840152505050565b506080810151610100614268818501836001600160a01b03169052565b60a08301519150610120614286818601846001600160a01b03169052565b60c084015192506101406142a4818701856001600160a01b03169052565b60e0850151610160878101919091529285015161018080880191909152918501516101a080880191909152908501516101c0870152918401516101e0860152830151610200850152909101516102209092019190915250565b8051151582526020810151614316602084018215159052565b5060408101516040830152606081015160608301526080810151608083015260a081015160a083015260c081015160c083015260e081015160e08301526101008082015181840152506101208082015161437a828501826001600160a01b03169052565b5050610140818101516001600160a01b031690830152610160808201519083015261018080820151908301526101a080820151908301526101c090810151910152565b8051151582526020810151151560208301526040810151151560408301526060810151614418606084018280518252602081015160208301526040810151604083015260608101516060830152608081015160808301525050565b506080818101518051610100850152602081015161012085015260408101516101408501526060810151610160850152908101516101808401525060a0015180516101a083015260208101516101c0830152604001516101e090910152565b805182526020810151602083015260408101516040830152606081015160608301526080810151608083015260a081015160a083015260c081015160c083015260e081015160e0830152610100808201518184015250610120808201516144e18285018215159052565b5050610140808201516144f6828501826143bd565b50505050565b805182526020808201518184015260408083015181850152606080840151818601526080808501518187015260a0808601518188015260c0808701518189015260e080880151818a015261010080890151818b0152610120808a0151908b0152610140808a0151908b0152610160808a0151908b0152610180808a0151908b01526101a0808a0151908b01526101c0808a015180511515828d0152988901516101e08c0152968801516102008b0152948701516102208a015292860151610240890152908501516102608801528401516102808701528301516102a08601528201516102c08501529050506101e0810151805115156102e0840152602081015161030084015260408101516103208401526060810151610340840152608081015161036084015260a081015161038084015260c08101516103a084015260e08101516103c08401526101008101516103e0840152506102008101516146d46104008401828051151582526020810151602083015260408101516040830152606081015160608301526080810151608083015260a081015160a083015260c081015160c083015260e081015160e08301526101008082015181840152506101208082015181840152506101408082015181840152505050565b50610220015180511515610560830152602081015161058083015260408101516105a083015260608101516105c083015260808101516105e083015260a081015161060083015260c081015161062083015260e081015161064083015261010081015161066083015261012081015161068083015261014001516106a090910152565b505050565b80516001600160a01b03168252602081015161477b60208401826141c1565b5060408181015180516102608501526020810151610280850152908101516102a08401526060908101516102c08401528101516147bc6102e08401826142fd565b5060808181015180516104c085015260208101516104e0850152604081015161050085015260608101516105208501529081015161054084015260a081015161056084015260c081015161058084015260e08101516105a08401526101008101516105c08401525060a081015180516105e08401526020810151610600840152604081015161062084015260608101516106408401525060c08101518051610660840152602081015161068084015260408101516106a084015260608101516106c084015260808101516106e084015260a08101516107008401525060e08101516148ab610720840182614477565b50610100810151614757610a608401826144fc565b6111208101610e78828461475c565b600080600080608085870312156148e557600080fd5b84356148f081614128565b966020860135965060408601359560600135945092505050565b60006020828403121561491c57600080fd5b5035919050565b6103408101610e788284614477565b6106c08101610e7882846144fc565b6020808252825182820181905260009190848201906040850190845b818110156149825783516001600160a01b03168352928401929184019160010161495d565b50909695505050505050565b7f4e487b7100000000000000000000000000000000000000000000000000000000600052604160045260246000fd5b604051610120810167ffffffffffffffff811182821017156149e1576149e161498e565b60405290565b60405160a0810167ffffffffffffffff811182821017156149e1576149e161498e565b6040516101c0810167ffffffffffffffff811182821017156149e1576149e161498e565b6040516060810167ffffffffffffffff811182821017156149e1576149e161498e565b604051610220810167ffffffffffffffff811182821017156149e1576149e161498e565b604051610160810167ffffffffffffffff811182821017156149e1576149e161498e565b604051601f8201601f1916810167ffffffffffffffff81118282101715614ac257614ac261498e565b604052919050565b600067ffffffffffffffff821115614ae457614ae461498e565b5060051b60200190565b60006020808385031215614b0157600080fd5b823567ffffffffffffffff811115614b1857600080fd5b8301601f81018513614b2957600080fd5b8035614b3c614b3782614aca565b614a99565b81815260059190911b82018301908381019087831115614b5b57600080fd5b928401925b828410156110bf578335614b7381614128565b82529284019290840190614b60565b6020808252825182820181905260009190848201906040850190845b8181101561498257614bb183855161475c565b928401926111209290920191600101614b9e565b600080600060408486031215614bda57600080fd5b8335614be581614128565b9250602084013567ffffffffffffffff80821115614c0257600080fd5b818601915086601f830112614c1657600080fd5b813581811115614c2557600080fd5b8760208260051b8501011115614c3a57600080fd5b6020830194508093505050509250925092565b600081518084526020808501945080840160005b83811015614da357614d8f8783518051151582526020818101518382015260408083015181850152606080840151818601526080808501518187015260a0808601518188015260c0808701518189015260e080880151818a015261010080890151818b0152610120808a015180511515828d0152988901516101408c0152968801516101608b0152948701516101808a0152928601516101a0890152908501516101c08801528401516101e08701528301516102008601528201516102208501529050506101400151805115156102408301526020810151610260830152604081015161028083015260608101516102a083015260808101516102c083015260a08101516102e083015260c081015161030083015260e0810151610320830152610100015161034090910152565b610360969096019590820190600101614c61565b509495945050505050565b600081518084526020808501945080840160005b83811015614da357614f268783518051151582526020808201518184015260408083015181850152606080840151818601526080808501518187015260a0808601518188015260c0808701518189015260e080880151818a015261010080890151818b0152610120808a0151818c0152610140808b015180511515828e0152998a01516101608d0152978901516101808c0152958801516101a08b0152938701516101c08a0152918601516101e0890152850151610200880152840151610220870152830151610240860152820151610260850152818101516102808501529050506101600151805115156102a083015260208101516102c083015260408101516102e08301526060810151610300830152608081015161032083015260a081015161034083015260c081015161036083015260e08101516103808301526101008101516103a08301526101208101516103c083015261014001516103e090910152565b610400969096019590820190600101614dc2565b604081526000614f4d6040830185614c4d565b8281036020840152614f5f8185614dae565b95945050505050565b801515811461413d57600080fd5b60008060008060808587031215614f8c57600080fd5b8435614f9781614128565b93506020850135614fa781614f68565b93969395505050506040820135916060013590565b60008060408385031215614fcf57600080fd5b8235614fda81614128565b946020939093013593505050565b60008060408385031215614ffb57600080fd5b823561500681614128565b9150602083013561501681614128565b809150509250929050565b60c08101610e788284805182526020810151602083015260408101516040830152606081015160608301526080810151608083015260a081015160a08301525050565b8151815260208083015190820152604080830151908201526060808301519082015260808101610e78565b60208152600061166e6020830184614c4d565b600080604083850312156150b557600080fd5b82356150c081614128565b915060208381013567ffffffffffffffff8111156150dd57600080fd5b8401601f810186136150ee57600080fd5b80356150fc614b3782614aca565b81815260059190911b8201830190838101908883111561511b57600080fd5b928401925b8284101561513957833582529284019290840190615120565b80955050505050509250929050565b604080825283519082018190526000906020906060840190828701845b828110156151c0576151ad848351805182526020810151602083015260408101516040830152606081015160608301526080810151608083015260a081015160a08301525050565b60c0939093019290840190600101615165565b50505092019290925292915050565b60208152600061166e6020830184614dae565b8151151581526020808301518183015260408084015181840152606080850151818501526080808601518186015260a0808701518187015260c0808801518188015260e08089015181890152610100808a0151818a0152610120808b0151818b0152610140808c015180511515828d0152808b0151610160808e0191909152818b01516101808e0152818a01516101a08e0152818901516101c08e0152818801516101e08e0152818701516102008e0152818601516102208e0152818501516102408e0152818401516102608e0152908201516102808d01528c0151805115156102a08d0152998a01516102c08c0152978901516102e08b0152958801516103008a015293870151610320890152918601516103408801528501516103608701528401516103808601528301516103a08501528201516103c084015201516103e08201526104008101610e78565b6102408101610e7882846141c1565b6101e08101610e7882846142fd565b6103608101610e7882848051151582526020818101518382015260408083015181850152606080840151818601526080808501518187015260a0808601518188015260c0808701518189015260e080880151818a015261010080890151818b0152610120808a015180511515828d0152988901516101408c0152968801516101608b0152948701516101808a0152928601516101a0890152908501516101c08801528401516101e08701528301516102008601528201516102208501529050506101400151805115156102408301526020810151610260830152604081015161028083015260608101516102a083015260808101516102c083015260a08101516102e083015260c081015161030083015260e0810151610320830152610100015161034090910152565b7f4e487b7100000000000000000000000000000000000000000000000000000000600052601160045260246000fd5b81810381811115610e7857610e78615478565b600061012082840312156154cd57600080fd5b6154d56149bd565b825181526020830151602082015260408301516040820152606083015160608201526080830151608082015260a083015160a082015260c083015160c082015260e083015160e08201526101008084015181830152508091505092915050565b8051610b7081614128565b600060a0828403121561555257600080fd5b61555a6149e7565b9050815161556781614128565b8152602082015161557781614128565b6020820152604082015161558a81614128565b6040820152606082015161559d81614128565b606082015260808201516155b081614128565b608082015292915050565b600061024082840312156155ce57600080fd5b6155d6614a0a565b825181526155e660208401615535565b60208201526155f760408401615535565b60408201526156098460608501615540565b606082015261010061561c818501615535565b608083015261012061562f818601615535565b60a0840152610140615642818701615535565b60c08501526101608087015160e086015261018080880151858701526101a0945084880151848701526101c0880151838701526101e088015182870152610200880151818701525050505061022084015181830152508091505092915050565b6000602082840312156156b457600080fd5b5051919050565b80820180821115610e7857610e78615478565b7f4e487b7100000000000000000000000000000000000000000000000000000000600052603260045260246000fd5b60007fffffffffffffffffffffffffffffffffffffffffffffffffffffffffffffffff820361572e5761572e615478565b5060010190565b6000806040838503121561574857600080fd5b505080516020909101519092909150565b600060c0828403121561576b57600080fd5b60405160c0810181811067ffffffffffffffff8211171561578e5761578e61498e565b8060405250809150825181526020830151602082015260408301516040820152606083015160608201526080830151608082015260a083015160a08201525092915050565b600060c082840312156157e557600080fd5b61166e8383615759565b60006080828403121561580157600080fd5b6040516080810181811067ffffffffffffffff821117156158245761582461498e565b8060405250809150825181526020830151602082015260408301516040820152606083015160608201525092915050565b60006080828403121561586757600080fd5b61166e83836157ef565b6020808252825182820181905260009190848201906040850190845b818110156149825783518352928401929184019160010161588d565b600080604083850312156158bc57600080fd5b825167ffffffffffffffff8111156158d357600080fd5b8301601f810185136158e457600080fd5b805160206158f4614b3783614aca565b82815260c0928302840182019282820191908985111561591357600080fd5b948301945b848610156159395761592a8a87615759565b83529485019491830191615918565b50969091015195979596505050505050565b8051610b7081614f68565b600060e0828403121561596857600080fd5b60405160e0810181811067ffffffffffffffff8211171561598b5761598b61498e565b8060405250809150825161599e81614128565b808252506020830151602082015260408301516040820152606083015160608201526080830151608082015260a083015160a082015260c083015160c08201525092915050565b60008183036101a08112156159f957600080fd5b615a01614a2e565b91508251825260a0601f1982011215615a1957600080fd5b50615a226149e7565b6020830151615a3081614128565b8082525060408301516020820152606083015160408201526080830151606082015260a0830151608082015280602083015250615a708360c08401615956565b604082015292915050565b60006103a08284031215615a8e57600080fd5b615a96614a51565b825181526020808401519082015260408084015190820152606080840151908201526080808401519082015260a0808401519082015260c0808401519082015260e08084015190820152610100808401519082015261012080840151908201526101408084015190820152610160808401519082015261018080840151908201526101a080840151908201526101c080840151908201526101e080840151908201529050610200615b49848285016159e5565b9082015292915050565b600080828403610500811215615b6857600080fd5b61016080821215615b7857600080fd5b615b80614a75565b9150615b8b8561594b565b82526020850151602083015260408501516040830152606085015160608301526080850151608083015260a085015160a083015260c085015160c083015260e085015160e0830152610100808601518184015250610120808601518184015250610140808601518184015250819350615c0686828701615a7b565b925050509250929050565b6000808284036104c0811215615c2657600080fd5b61012080821215615c3657600080fd5b615c3e6149bd565b9150615c498561594b565b82526020850151602083015260408501516040830152606085015160608301526080850151608083015260a085015160a083015260c085015160c083015260e085015160e0830152610100808601518184015250819350615c0686828701615a7b565b8082028115828204841417610e7857610e78615478565b600082615cf9577f4e487b7100000000000000000000000000000000000000000000000000000000600052601260045260246000fd5b50049056fea2646970667358221220db0b3daa8ed1844c510f45aef22dd7cbadce2a7abcab4ddbc37f47768f719af764736f6c63430008150033"
}