{
  "address": "0xF82111c4354622AB12b9803cD3F6164FCE52e847",
  "abi": [
    {
      "inputs": [
        {
          "internalType": "contract IFluidLiquidity",
          "name": "liquidity_",
          "type": "address"
        }
      ],
      "stateMutability": "nonpayable",
      "type": "constructor"
    },
    {
      "inputs": [
        {
          "internalType": "uint256",
          "name": "errorId_",
          "type": "uint256"
        }
      ],
      "name": "FluidLiquidityCalcsError",
      "type": "error"
    },
    {
      "inputs": [],
      "name": "FluidLiquidityResolver__AddressZero",
      "type": "error"
    },
    {
      "inputs": [],
      "name": "LIQUIDITY",
      "outputs": [
        {
          "internalType": "contract IFluidLiquidity",
          "name": "",
          "type": "address"
        }
      ],
      "stateMutability": "view",
      "type": "function"
    },
    {
      "inputs": [],
      "name": "getAllOverallTokensData",
      "outputs": [
        {
          "components": [
            {
              "internalType": "uint256",
              "name": "borrowRate",
              "type": "uint256"
            },
            {
              "internalType": "uint256",
              "name": "supplyRate",
              "type": "uint256"
            },
            {
              "internalType": "uint256",
              "name": "fee",
              "type": "uint256"
            },
            {
              "internalType": "uint256",
              "name": "lastStoredUtilization",
              "type": "uint256"
            },
            {
              "internalType": "uint256",
              "name": "storageUpdateThreshold",
              "type": "uint256"
            },
            {
              "internalType": "uint256",
              "name": "lastUpdateTimestamp",
              "type": "uint256"
            },
            {
              "internalType": "uint256",
              "name": "supplyExchangePrice",
              "type": "uint256"
            },
            {
              "internalType": "uint256",
              "name": "borrowExchangePrice",
              "type": "uint256"
            },
            {
              "internalType": "uint256",
              "name": "supplyRawInterest",
              "type": "uint256"
            },
            {
              "internalType": "uint256",
              "name": "supplyInterestFree",
              "type": "uint256"
            },
            {
              "internalType": "uint256",
              "name": "borrowRawInterest",
              "type": "uint256"
            },
            {
              "internalType": "uint256",
              "name": "borrowInterestFree",
              "type": "uint256"
            },
            {
              "internalType": "uint256",
              "name": "totalSupply",
              "type": "uint256"
            },
            {
              "internalType": "uint256",
              "name": "totalBorrow",
              "type": "uint256"
            },
            {
              "internalType": "uint256",
              "name": "revenue",
              "type": "uint256"
            },
            {
              "internalType": "uint256",
              "name": "maxUtilization",
              "type": "uint256"
            },
            {
              "components": [
                {
                  "internalType": "uint256",
                  "name": "version",
                  "type": "uint256"
                },
                {
                  "components": [
                    {
                      "internalType": "address",
                      "name": "token",
                      "type": "address"
                    },
                    {
                      "internalType": "uint256",
                      "name": "kink",
                      "type": "uint256"
                    },
                    {
                      "internalType": "uint256",
                      "name": "rateAtUtilizationZero",
                      "type": "uint256"
                    },
                    {
                      "internalType": "uint256",
                      "name": "rateAtUtilizationKink",
                      "type": "uint256"
                    },
                    {
                      "internalType": "uint256",
                      "name": "rateAtUtilizationMax",
                      "type": "uint256"
                    }
                  ],
                  "internalType": "struct Structs.RateDataV1Params",
                  "name": "rateDataV1",
                  "type": "tuple"
                },
                {
                  "components": [
                    {
                      "internalType": "address",
                      "name": "token",
                      "type": "address"
                    },
                    {
                      "internalType": "uint256",
                      "name": "kink1",
                      "type": "uint256"
                    },
                    {
                      "internalType": "uint256",
                      "name": "kink2",
                      "type": "uint256"
                    },
                    {
                      "internalType": "uint256",
                      "name": "rateAtUtilizationZero",
                      "type": "uint256"
                    },
                    {
                      "internalType": "uint256",
                      "name": "rateAtUtilizationKink1",
                      "type": "uint256"
                    },
                    {
                      "internalType": "uint256",
                      "name": "rateAtUtilizationKink2",
                      "type": "uint256"
                    },
                    {
                      "internalType": "uint256",
                      "name": "rateAtUtilizationMax",
                      "type": "uint256"
                    }
                  ],
                  "internalType": "struct Structs.RateDataV2Params",
                  "name": "rateDataV2",
                  "type": "tuple"
                }
              ],
              "internalType": "struct Structs.RateData",
              "name": "rateData",
              "type": "tuple"
            }
          ],
          "internalType": "struct Structs.OverallTokenData[]",
          "name": "overallTokensData_",
          "type": "tuple[]"
        }
      ],
      "stateMutability": "view",
      "type": "function"
    },
    {
      "inputs": [
        {
          "internalType": "address",
          "name": "token_",
          "type": "address"
        }
      ],
      "name": "getConfigs2",
      "outputs": [
        {
          "internalType": "uint256",
          "name": "",
          "type": "uint256"
        }
      ],
      "stateMutability": "view",
      "type": "function"
    },
    {
      "inputs": [
        {
          "internalType": "address",
          "name": "token_",
          "type": "address"
        }
      ],
      "name": "getExchangePricesAndConfig",
      "outputs": [
        {
          "internalType": "uint256",
          "name": "",
          "type": "uint256"
        }
      ],
      "stateMutability": "view",
      "type": "function"
    },
    {
      "inputs": [
        {
          "internalType": "address",
          "name": "token_",
          "type": "address"
        }
      ],
      "name": "getOverallTokenData",
      "outputs": [
        {
          "components": [
            {
              "internalType": "uint256",
              "name": "borrowRate",
              "type": "uint256"
            },
            {
              "internalType": "uint256",
              "name": "supplyRate",
              "type": "uint256"
            },
            {
              "internalType": "uint256",
              "name": "fee",
              "type": "uint256"
            },
            {
              "internalType": "uint256",
              "name": "lastStoredUtilization",
              "type": "uint256"
            },
            {
              "internalType": "uint256",
              "name": "storageUpdateThreshold",
              "type": "uint256"
            },
            {
              "internalType": "uint256",
              "name": "lastUpdateTimestamp",
              "type": "uint256"
            },
            {
              "internalType": "uint256",
              "name": "supplyExchangePrice",
              "type": "uint256"
            },
            {
              "internalType": "uint256",
              "name": "borrowExchangePrice",
              "type": "uint256"
            },
            {
              "internalType": "uint256",
              "name": "supplyRawInterest",
              "type": "uint256"
            },
            {
              "internalType": "uint256",
              "name": "supplyInterestFree",
              "type": "uint256"
            },
            {
              "internalType": "uint256",
              "name": "borrowRawInterest",
              "type": "uint256"
            },
            {
              "internalType": "uint256",
              "name": "borrowInterestFree",
              "type": "uint256"
            },
            {
              "internalType": "uint256",
              "name": "totalSupply",
              "type": "uint256"
            },
            {
              "internalType": "uint256",
              "name": "totalBorrow",
              "type": "uint256"
            },
            {
              "internalType": "uint256",
              "name": "revenue",
              "type": "uint256"
            },
            {
              "internalType": "uint256",
              "name": "maxUtilization",
              "type": "uint256"
            },
            {
              "components": [
                {
                  "internalType": "uint256",
                  "name": "version",
                  "type": "uint256"
                },
                {
                  "components": [
                    {
                      "internalType": "address",
                      "name": "token",
                      "type": "address"
                    },
                    {
                      "internalType": "uint256",
                      "name": "kink",
                      "type": "uint256"
                    },
                    {
                      "internalType": "uint256",
                      "name": "rateAtUtilizationZero",
                      "type": "uint256"
                    },
                    {
                      "internalType": "uint256",
                      "name": "rateAtUtilizationKink",
                      "type": "uint256"
                    },
                    {
                      "internalType": "uint256",
                      "name": "rateAtUtilizationMax",
                      "type": "uint256"
                    }
                  ],
                  "internalType": "struct Structs.RateDataV1Params",
                  "name": "rateDataV1",
                  "type": "tuple"
                },
                {
                  "components": [
                    {
                      "internalType": "address",
                      "name": "token",
                      "type": "address"
                    },
                    {
                      "internalType": "uint256",
                      "name": "kink1",
                      "type": "uint256"
                    },
                    {
                      "internalType": "uint256",
                      "name": "kink2",
                      "type": "uint256"
                    },
                    {
                      "internalType": "uint256",
                      "name": "rateAtUtilizationZero",
                      "type": "uint256"
                    },
                    {
                      "internalType": "uint256",
                      "name": "rateAtUtilizationKink1",
                      "type": "uint256"
                    },
                    {
                      "internalType": "uint256",
                      "name": "rateAtUtilizationKink2",
                      "type": "uint256"
                    },
                    {
                      "internalType": "uint256",
                      "name": "rateAtUtilizationMax",
                      "type": "uint256"
                    }
                  ],
                  "internalType": "struct Structs.RateDataV2Params",
                  "name": "rateDataV2",
                  "type": "tuple"
                }
              ],
              "internalType": "struct Structs.RateData",
              "name": "rateData",
              "type": "tuple"
            }
          ],
          "internalType": "struct Structs.OverallTokenData",
          "name": "overallTokenData_",
          "type": "tuple"
        }
      ],
      "stateMutability": "view",
      "type": "function"
    },
    {
      "inputs": [
        {
          "internalType": "address[]",
          "name": "tokens_",
          "type": "address[]"
        }
      ],
      "name": "getOverallTokensData",
      "outputs": [
        {
          "components": [
            {
              "internalType": "uint256",
              "name": "borrowRate",
              "type": "uint256"
            },
            {
              "internalType": "uint256",
              "name": "supplyRate",
              "type": "uint256"
            },
            {
              "internalType": "uint256",
              "name": "fee",
              "type": "uint256"
            },
            {
              "internalType": "uint256",
              "name": "lastStoredUtilization",
              "type": "uint256"
            },
            {
              "internalType": "uint256",
              "name": "storageUpdateThreshold",
              "type": "uint256"
            },
            {
              "internalType": "uint256",
              "name": "lastUpdateTimestamp",
              "type": "uint256"
            },
            {
              "internalType": "uint256",
              "name": "supplyExchangePrice",
              "type": "uint256"
            },
            {
              "internalType": "uint256",
              "name": "borrowExchangePrice",
              "type": "uint256"
            },
            {
              "internalType": "uint256",
              "name": "supplyRawInterest",
              "type": "uint256"
            },
            {
              "internalType": "uint256",
              "name": "supplyInterestFree",
              "type": "uint256"
            },
            {
              "internalType": "uint256",
              "name": "borrowRawInterest",
              "type": "uint256"
            },
            {
              "internalType": "uint256",
              "name": "borrowInterestFree",
              "type": "uint256"
            },
            {
              "internalType": "uint256",
              "name": "totalSupply",
              "type": "uint256"
            },
            {
              "internalType": "uint256",
              "name": "totalBorrow",
              "type": "uint256"
            },
            {
              "internalType": "uint256",
              "name": "revenue",
              "type": "uint256"
            },
            {
              "internalType": "uint256",
              "name": "maxUtilization",
              "type": "uint256"
            },
            {
              "components": [
                {
                  "internalType": "uint256",
                  "name": "version",
                  "type": "uint256"
                },
                {
                  "components": [
                    {
                      "internalType": "address",
                      "name": "token",
                      "type": "address"
                    },
                    {
                      "internalType": "uint256",
                      "name": "kink",
                      "type": "uint256"
                    },
                    {
                      "internalType": "uint256",
                      "name": "rateAtUtilizationZero",
                      "type": "uint256"
                    },
                    {
                      "internalType": "uint256",
                      "name": "rateAtUtilizationKink",
                      "type": "uint256"
                    },
                    {
                      "internalType": "uint256",
                      "name": "rateAtUtilizationMax",
                      "type": "uint256"
                    }
                  ],
                  "internalType": "struct Structs.RateDataV1Params",
                  "name": "rateDataV1",
                  "type": "tuple"
                },
                {
                  "components": [
                    {
                      "internalType": "address",
                      "name": "token",
                      "type": "address"
                    },
                    {
                      "internalType": "uint256",
                      "name": "kink1",
                      "type": "uint256"
                    },
                    {
                      "internalType": "uint256",
                      "name": "kink2",
                      "type": "uint256"
                    },
                    {
                      "internalType": "uint256",
                      "name": "rateAtUtilizationZero",
                      "type": "uint256"
                    },
                    {
                      "internalType": "uint256",
                      "name": "rateAtUtilizationKink1",
                      "type": "uint256"
                    },
                    {
                      "internalType": "uint256",
                      "name": "rateAtUtilizationKink2",
                      "type": "uint256"
                    },
                    {
                      "internalType": "uint256",
                      "name": "rateAtUtilizationMax",
                      "type": "uint256"
                    }
                  ],
                  "internalType": "struct Structs.RateDataV2Params",
                  "name": "rateDataV2",
                  "type": "tuple"
                }
              ],
              "internalType": "struct Structs.RateData",
              "name": "rateData",
              "type": "tuple"
            }
          ],
          "internalType": "struct Structs.OverallTokenData[]",
          "name": "overallTokensData_",
          "type": "tuple[]"
        }
      ],
      "stateMutability": "view",
      "type": "function"
    },
    {
      "inputs": [
        {
          "internalType": "address",
          "name": "token_",
          "type": "address"
        }
      ],
      "name": "getRateConfig",
      "outputs": [
        {
          "internalType": "uint256",
          "name": "",
          "type": "uint256"
        }
      ],
      "stateMutability": "view",
      "type": "function"
    },
    {
      "inputs": [
        {
          "internalType": "address",
          "name": "token_",
          "type": "address"
        }
      ],
      "name": "getRevenue",
      "outputs": [
        {
          "internalType": "uint256",
          "name": "revenueAmount_",
          "type": "uint256"
        }
      ],
      "stateMutability": "view",
      "type": "function"
    },
    {
      "inputs": [],
      "name": "getRevenueCollector",
      "outputs": [
        {
          "internalType": "address",
          "name": "",
          "type": "address"
        }
      ],
      "stateMutability": "view",
      "type": "function"
    },
    {
      "inputs": [],
      "name": "getStatus",
      "outputs": [
        {
          "internalType": "uint256",
          "name": "",
          "type": "uint256"
        }
      ],
      "stateMutability": "view",
      "type": "function"
    },
    {
      "inputs": [
        {
          "internalType": "address",
          "name": "token_",
          "type": "address"
        }
      ],
      "name": "getTokenRateData",
      "outputs": [
        {
          "components": [
            {
              "internalType": "uint256",
              "name": "version",
              "type": "uint256"
            },
            {
              "components": [
                {
                  "internalType": "address",
                  "name": "token",
                  "type": "address"
                },
                {
                  "internalType": "uint256",
                  "name": "kink",
                  "type": "uint256"
                },
                {
                  "internalType": "uint256",
                  "name": "rateAtUtilizationZero",
                  "type": "uint256"
                },
                {
                  "internalType": "uint256",
                  "name": "rateAtUtilizationKink",
                  "type": "uint256"
                },
                {
                  "internalType": "uint256",
                  "name": "rateAtUtilizationMax",
                  "type": "uint256"
                }
              ],
              "internalType": "struct Structs.RateDataV1Params",
              "name": "rateDataV1",
              "type": "tuple"
            },
            {
              "components": [
                {
                  "internalType": "address",
                  "name": "token",
                  "type": "address"
                },
                {
                  "internalType": "uint256",
                  "name": "kink1",
                  "type": "uint256"
                },
                {
                  "internalType": "uint256",
                  "name": "kink2",
                  "type": "uint256"
                },
                {
                  "internalType": "uint256",
                  "name": "rateAtUtilizationZero",
                  "type": "uint256"
                },
                {
                  "internalType": "uint256",
                  "name": "rateAtUtilizationKink1",
                  "type": "uint256"
                },
                {
                  "internalType": "uint256",
                  "name": "rateAtUtilizationKink2",
                  "type": "uint256"
                },
                {
                  "internalType": "uint256",
                  "name": "rateAtUtilizationMax",
                  "type": "uint256"
                }
              ],
              "internalType": "struct Structs.RateDataV2Params",
              "name": "rateDataV2",
              "type": "tuple"
            }
          ],
          "internalType": "struct Structs.RateData",
          "name": "rateData_",
          "type": "tuple"
        }
      ],
      "stateMutability": "view",
      "type": "function"
    },
    {
      "inputs": [
        {
          "internalType": "address[]",
          "name": "tokens_",
          "type": "address[]"
        }
      ],
      "name": "getTokensRateData",
      "outputs": [
        {
          "components": [
            {
              "internalType": "uint256",
              "name": "version",
              "type": "uint256"
            },
            {
              "components": [
                {
                  "internalType": "address",
                  "name": "token",
                  "type": "address"
                },
                {
                  "internalType": "uint256",
                  "name": "kink",
                  "type": "uint256"
                },
                {
                  "internalType": "uint256",
                  "name": "rateAtUtilizationZero",
                  "type": "uint256"
                },
                {
                  "internalType": "uint256",
                  "name": "rateAtUtilizationKink",
                  "type": "uint256"
                },
                {
                  "internalType": "uint256",
                  "name": "rateAtUtilizationMax",
                  "type": "uint256"
                }
              ],
              "internalType": "struct Structs.RateDataV1Params",
              "name": "rateDataV1",
              "type": "tuple"
            },
            {
              "components": [
                {
                  "internalType": "address",
                  "name": "token",
                  "type": "address"
                },
                {
                  "internalType": "uint256",
                  "name": "kink1",
                  "type": "uint256"
                },
                {
                  "internalType": "uint256",
                  "name": "kink2",
                  "type": "uint256"
                },
                {
                  "internalType": "uint256",
                  "name": "rateAtUtilizationZero",
                  "type": "uint256"
                },
                {
                  "internalType": "uint256",
                  "name": "rateAtUtilizationKink1",
                  "type": "uint256"
                },
                {
                  "internalType": "uint256",
                  "name": "rateAtUtilizationKink2",
                  "type": "uint256"
                },
                {
                  "internalType": "uint256",
                  "name": "rateAtUtilizationMax",
                  "type": "uint256"
                }
              ],
              "internalType": "struct Structs.RateDataV2Params",
              "name": "rateDataV2",
              "type": "tuple"
            }
          ],
          "internalType": "struct Structs.RateData[]",
          "name": "rateDatas_",
          "type": "tuple[]"
        }
      ],
      "stateMutability": "view",
      "type": "function"
    },
    {
      "inputs": [
        {
          "internalType": "address",
          "name": "token_",
          "type": "address"
        }
      ],
      "name": "getTotalAmounts",
      "outputs": [
        {
          "internalType": "uint256",
          "name": "",
          "type": "uint256"
        }
      ],
      "stateMutability": "view",
      "type": "function"
    },
    {
      "inputs": [
        {
          "internalType": "address",
          "name": "user_",
          "type": "address"
        },
        {
          "internalType": "address",
          "name": "token_",
          "type": "address"
        }
      ],
      "name": "getUserBorrow",
      "outputs": [
        {
          "internalType": "uint256",
          "name": "",
          "type": "uint256"
        }
      ],
      "stateMutability": "view",
      "type": "function"
    },
    {
      "inputs": [
        {
          "internalType": "address",
          "name": "user_",
          "type": "address"
        },
        {
          "internalType": "address",
          "name": "token_",
          "type": "address"
        }
      ],
      "name": "getUserBorrowData",
      "outputs": [
        {
          "components": [
            {
              "internalType": "bool",
              "name": "modeWithInterest",
              "type": "bool"
            },
            {
              "internalType": "uint256",
              "name": "borrow",
              "type": "uint256"
            },
            {
              "internalType": "uint256",
              "name": "borrowLimit",
              "type": "uint256"
            },
            {
              "internalType": "uint256",
              "name": "lastUpdateTimestamp",
              "type": "uint256"
            },
            {
              "internalType": "uint256",
              "name": "expandPercent",
              "type": "uint256"
            },
            {
              "internalType": "uint256",
              "name": "expandDuration",
              "type": "uint256"
            },
            {
              "internalType": "uint256",
              "name": "baseBorrowLimit",
              "type": "uint256"
            },
            {
              "internalType": "uint256",
              "name": "maxBorrowLimit",
              "type": "uint256"
            },
            {
              "internalType": "uint256",
              "name": "borrowableUntilLimit",
              "type": "uint256"
            },
            {
              "internalType": "uint256",
              "name": "borrowable",
              "type": "uint256"
            },
            {
              "internalType": "uint256",
              "name": "borrowLimitUtilization",
              "type": "uint256"
            }
          ],
          "internalType": "struct Structs.UserBorrowData",
          "name": "userBorrowData_",
          "type": "tuple"
        },
        {
          "components": [
            {
              "internalType": "uint256",
              "name": "borrowRate",
              "type": "uint256"
            },
            {
              "internalType": "uint256",
              "name": "supplyRate",
              "type": "uint256"
            },
            {
              "internalType": "uint256",
              "name": "fee",
              "type": "uint256"
            },
            {
              "internalType": "uint256",
              "name": "lastStoredUtilization",
              "type": "uint256"
            },
            {
              "internalType": "uint256",
              "name": "storageUpdateThreshold",
              "type": "uint256"
            },
            {
              "internalType": "uint256",
              "name": "lastUpdateTimestamp",
              "type": "uint256"
            },
            {
              "internalType": "uint256",
              "name": "supplyExchangePrice",
              "type": "uint256"
            },
            {
              "internalType": "uint256",
              "name": "borrowExchangePrice",
              "type": "uint256"
            },
            {
              "internalType": "uint256",
              "name": "supplyRawInterest",
              "type": "uint256"
            },
            {
              "internalType": "uint256",
              "name": "supplyInterestFree",
              "type": "uint256"
            },
            {
              "internalType": "uint256",
              "name": "borrowRawInterest",
              "type": "uint256"
            },
            {
              "internalType": "uint256",
              "name": "borrowInterestFree",
              "type": "uint256"
            },
            {
              "internalType": "uint256",
              "name": "totalSupply",
              "type": "uint256"
            },
            {
              "internalType": "uint256",
              "name": "totalBorrow",
              "type": "uint256"
            },
            {
              "internalType": "uint256",
              "name": "revenue",
              "type": "uint256"
            },
            {
              "internalType": "uint256",
              "name": "maxUtilization",
              "type": "uint256"
            },
            {
              "components": [
                {
                  "internalType": "uint256",
                  "name": "version",
                  "type": "uint256"
                },
                {
                  "components": [
                    {
                      "internalType": "address",
                      "name": "token",
                      "type": "address"
                    },
                    {
                      "internalType": "uint256",
                      "name": "kink",
                      "type": "uint256"
                    },
                    {
                      "internalType": "uint256",
                      "name": "rateAtUtilizationZero",
                      "type": "uint256"
                    },
                    {
                      "internalType": "uint256",
                      "name": "rateAtUtilizationKink",
                      "type": "uint256"
                    },
                    {
                      "internalType": "uint256",
                      "name": "rateAtUtilizationMax",
                      "type": "uint256"
                    }
                  ],
                  "internalType": "struct Structs.RateDataV1Params",
                  "name": "rateDataV1",
                  "type": "tuple"
                },
                {
                  "components": [
                    {
                      "internalType": "address",
                      "name": "token",
                      "type": "address"
                    },
                    {
                      "internalType": "uint256",
                      "name": "kink1",
                      "type": "uint256"
                    },
                    {
                      "internalType": "uint256",
                      "name": "kink2",
                      "type": "uint256"
                    },
                    {
                      "internalType": "uint256",
                      "name": "rateAtUtilizationZero",
                      "type": "uint256"
                    },
                    {
                      "internalType": "uint256",
                      "name": "rateAtUtilizationKink1",
                      "type": "uint256"
                    },
                    {
                      "internalType": "uint256",
                      "name": "rateAtUtilizationKink2",
                      "type": "uint256"
                    },
                    {
                      "internalType": "uint256",
                      "name": "rateAtUtilizationMax",
                      "type": "uint256"
                    }
                  ],
                  "internalType": "struct Structs.RateDataV2Params",
                  "name": "rateDataV2",
                  "type": "tuple"
                }
              ],
              "internalType": "struct Structs.RateData",
              "name": "rateData",
              "type": "tuple"
            }
          ],
          "internalType": "struct Structs.OverallTokenData",
          "name": "overallTokenData_",
          "type": "tuple"
        }
      ],
      "stateMutability": "view",
      "type": "function"
    },
    {
      "inputs": [
        {
          "internalType": "address",
          "name": "user_",
          "type": "address"
        }
      ],
      "name": "getUserClass",
      "outputs": [
        {
          "internalType": "uint256",
          "name": "",
          "type": "uint256"
        }
      ],
      "stateMutability": "view",
      "type": "function"
    },
    {
      "inputs": [
        {
          "internalType": "address",
          "name": "user_",
          "type": "address"
        },
        {
          "internalType": "address[]",
          "name": "tokens_",
          "type": "address[]"
        }
      ],
      "name": "getUserMultipleBorrowData",
      "outputs": [
        {
          "components": [
            {
              "internalType": "bool",
              "name": "modeWithInterest",
              "type": "bool"
            },
            {
              "internalType": "uint256",
              "name": "borrow",
              "type": "uint256"
            },
            {
              "internalType": "uint256",
              "name": "borrowLimit",
              "type": "uint256"
            },
            {
              "internalType": "uint256",
              "name": "lastUpdateTimestamp",
              "type": "uint256"
            },
            {
              "internalType": "uint256",
              "name": "expandPercent",
              "type": "uint256"
            },
            {
              "internalType": "uint256",
              "name": "expandDuration",
              "type": "uint256"
            },
            {
              "internalType": "uint256",
              "name": "baseBorrowLimit",
              "type": "uint256"
            },
            {
              "internalType": "uint256",
              "name": "maxBorrowLimit",
              "type": "uint256"
            },
            {
              "internalType": "uint256",
              "name": "borrowableUntilLimit",
              "type": "uint256"
            },
            {
              "internalType": "uint256",
              "name": "borrowable",
              "type": "uint256"
            },
            {
              "internalType": "uint256",
              "name": "borrowLimitUtilization",
              "type": "uint256"
            }
          ],
          "internalType": "struct Structs.UserBorrowData[]",
          "name": "userBorrowingsData_",
          "type": "tuple[]"
        },
        {
          "components": [
            {
              "internalType": "uint256",
              "name": "borrowRate",
              "type": "uint256"
            },
            {
              "internalType": "uint256",
              "name": "supplyRate",
              "type": "uint256"
            },
            {
              "internalType": "uint256",
              "name": "fee",
              "type": "uint256"
            },
            {
              "internalType": "uint256",
              "name": "lastStoredUtilization",
              "type": "uint256"
            },
            {
              "internalType": "uint256",
              "name": "storageUpdateThreshold",
              "type": "uint256"
            },
            {
              "internalType": "uint256",
              "name": "lastUpdateTimestamp",
              "type": "uint256"
            },
            {
              "internalType": "uint256",
              "name": "supplyExchangePrice",
              "type": "uint256"
            },
            {
              "internalType": "uint256",
              "name": "borrowExchangePrice",
              "type": "uint256"
            },
            {
              "internalType": "uint256",
              "name": "supplyRawInterest",
              "type": "uint256"
            },
            {
              "internalType": "uint256",
              "name": "supplyInterestFree",
              "type": "uint256"
            },
            {
              "internalType": "uint256",
              "name": "borrowRawInterest",
              "type": "uint256"
            },
            {
              "internalType": "uint256",
              "name": "borrowInterestFree",
              "type": "uint256"
            },
            {
              "internalType": "uint256",
              "name": "totalSupply",
              "type": "uint256"
            },
            {
              "internalType": "uint256",
              "name": "totalBorrow",
              "type": "uint256"
            },
            {
              "internalType": "uint256",
              "name": "revenue",
              "type": "uint256"
            },
            {
              "internalType": "uint256",
              "name": "maxUtilization",
              "type": "uint256"
            },
            {
              "components": [
                {
                  "internalType": "uint256",
                  "name": "version",
                  "type": "uint256"
                },
                {
                  "components": [
                    {
                      "internalType": "address",
                      "name": "token",
                      "type": "address"
                    },
                    {
                      "internalType": "uint256",
                      "name": "kink",
                      "type": "uint256"
                    },
                    {
                      "internalType": "uint256",
                      "name": "rateAtUtilizationZero",
                      "type": "uint256"
                    },
                    {
                      "internalType": "uint256",
                      "name": "rateAtUtilizationKink",
                      "type": "uint256"
                    },
                    {
                      "internalType": "uint256",
                      "name": "rateAtUtilizationMax",
                      "type": "uint256"
                    }
                  ],
                  "internalType": "struct Structs.RateDataV1Params",
                  "name": "rateDataV1",
                  "type": "tuple"
                },
                {
                  "components": [
                    {
                      "internalType": "address",
                      "name": "token",
                      "type": "address"
                    },
                    {
                      "internalType": "uint256",
                      "name": "kink1",
                      "type": "uint256"
                    },
                    {
                      "internalType": "uint256",
                      "name": "kink2",
                      "type": "uint256"
                    },
                    {
                      "internalType": "uint256",
                      "name": "rateAtUtilizationZero",
                      "type": "uint256"
                    },
                    {
                      "internalType": "uint256",
                      "name": "rateAtUtilizationKink1",
                      "type": "uint256"
                    },
                    {
                      "internalType": "uint256",
                      "name": "rateAtUtilizationKink2",
                      "type": "uint256"
                    },
                    {
                      "internalType": "uint256",
                      "name": "rateAtUtilizationMax",
                      "type": "uint256"
                    }
                  ],
                  "internalType": "struct Structs.RateDataV2Params",
                  "name": "rateDataV2",
                  "type": "tuple"
                }
              ],
              "internalType": "struct Structs.RateData",
              "name": "rateData",
              "type": "tuple"
            }
          ],
          "internalType": "struct Structs.OverallTokenData[]",
          "name": "overallTokensData_",
          "type": "tuple[]"
        }
      ],
      "stateMutability": "view",
      "type": "function"
    },
    {
      "inputs": [
        {
          "internalType": "address",
          "name": "user_",
          "type": "address"
        },
        {
          "internalType": "address[]",
          "name": "supplyTokens_",
          "type": "address[]"
        },
        {
          "internalType": "address[]",
          "name": "borrowTokens_",
          "type": "address[]"
        }
      ],
      "name": "getUserMultipleBorrowSupplyData",
      "outputs": [
        {
          "components": [
            {
              "internalType": "bool",
              "name": "modeWithInterest",
              "type": "bool"
            },
            {
              "internalType": "uint256",
              "name": "supply",
              "type": "uint256"
            },
            {
              "internalType": "uint256",
              "name": "withdrawalLimit",
              "type": "uint256"
            },
            {
              "internalType": "uint256",
              "name": "lastUpdateTimestamp",
              "type": "uint256"
            },
            {
              "internalType": "uint256",
              "name": "expandPercent",
              "type": "uint256"
            },
            {
              "internalType": "uint256",
              "name": "expandDuration",
              "type": "uint256"
            },
            {
              "internalType": "uint256",
              "name": "baseWithdrawalLimit",
              "type": "uint256"
            },
            {
              "internalType": "uint256",
              "name": "withdrawableUntilLimit",
              "type": "uint256"
            },
            {
              "internalType": "uint256",
              "name": "withdrawable",
              "type": "uint256"
            }
          ],
          "internalType": "struct Structs.UserSupplyData[]",
          "name": "userSuppliesData_",
          "type": "tuple[]"
        },
        {
          "components": [
            {
              "internalType": "uint256",
              "name": "borrowRate",
              "type": "uint256"
            },
            {
              "internalType": "uint256",
              "name": "supplyRate",
              "type": "uint256"
            },
            {
              "internalType": "uint256",
              "name": "fee",
              "type": "uint256"
            },
            {
              "internalType": "uint256",
              "name": "lastStoredUtilization",
              "type": "uint256"
            },
            {
              "internalType": "uint256",
              "name": "storageUpdateThreshold",
              "type": "uint256"
            },
            {
              "internalType": "uint256",
              "name": "lastUpdateTimestamp",
              "type": "uint256"
            },
            {
              "internalType": "uint256",
              "name": "supplyExchangePrice",
              "type": "uint256"
            },
            {
              "internalType": "uint256",
              "name": "borrowExchangePrice",
              "type": "uint256"
            },
            {
              "internalType": "uint256",
              "name": "supplyRawInterest",
              "type": "uint256"
            },
            {
              "internalType": "uint256",
              "name": "supplyInterestFree",
              "type": "uint256"
            },
            {
              "internalType": "uint256",
              "name": "borrowRawInterest",
              "type": "uint256"
            },
            {
              "internalType": "uint256",
              "name": "borrowInterestFree",
              "type": "uint256"
            },
            {
              "internalType": "uint256",
              "name": "totalSupply",
              "type": "uint256"
            },
            {
              "internalType": "uint256",
              "name": "totalBorrow",
              "type": "uint256"
            },
            {
              "internalType": "uint256",
              "name": "revenue",
              "type": "uint256"
            },
            {
              "internalType": "uint256",
              "name": "maxUtilization",
              "type": "uint256"
            },
            {
              "components": [
                {
                  "internalType": "uint256",
                  "name": "version",
                  "type": "uint256"
                },
                {
                  "components": [
                    {
                      "internalType": "address",
                      "name": "token",
                      "type": "address"
                    },
                    {
                      "internalType": "uint256",
                      "name": "kink",
                      "type": "uint256"
                    },
                    {
                      "internalType": "uint256",
                      "name": "rateAtUtilizationZero",
                      "type": "uint256"
                    },
                    {
                      "internalType": "uint256",
                      "name": "rateAtUtilizationKink",
                      "type": "uint256"
                    },
                    {
                      "internalType": "uint256",
                      "name": "rateAtUtilizationMax",
                      "type": "uint256"
                    }
                  ],
                  "internalType": "struct Structs.RateDataV1Params",
                  "name": "rateDataV1",
                  "type": "tuple"
                },
                {
                  "components": [
                    {
                      "internalType": "address",
                      "name": "token",
                      "type": "address"
                    },
                    {
                      "internalType": "uint256",
                      "name": "kink1",
                      "type": "uint256"
                    },
                    {
                      "internalType": "uint256",
                      "name": "kink2",
                      "type": "uint256"
                    },
                    {
                      "internalType": "uint256",
                      "name": "rateAtUtilizationZero",
                      "type": "uint256"
                    },
                    {
                      "internalType": "uint256",
                      "name": "rateAtUtilizationKink1",
                      "type": "uint256"
                    },
                    {
                      "internalType": "uint256",
                      "name": "rateAtUtilizationKink2",
                      "type": "uint256"
                    },
                    {
                      "internalType": "uint256",
                      "name": "rateAtUtilizationMax",
                      "type": "uint256"
                    }
                  ],
                  "internalType": "struct Structs.RateDataV2Params",
                  "name": "rateDataV2",
                  "type": "tuple"
                }
              ],
              "internalType": "struct Structs.RateData",
              "name": "rateData",
              "type": "tuple"
            }
          ],
          "internalType": "struct Structs.OverallTokenData[]",
          "name": "overallSupplyTokensData_",
          "type": "tuple[]"
        },
        {
          "components": [
            {
              "internalType": "bool",
              "name": "modeWithInterest",
              "type": "bool"
            },
            {
              "internalType": "uint256",
              "name": "borrow",
              "type": "uint256"
            },
            {
              "internalType": "uint256",
              "name": "borrowLimit",
              "type": "uint256"
            },
            {
              "internalType": "uint256",
              "name": "lastUpdateTimestamp",
              "type": "uint256"
            },
            {
              "internalType": "uint256",
              "name": "expandPercent",
              "type": "uint256"
            },
            {
              "internalType": "uint256",
              "name": "expandDuration",
              "type": "uint256"
            },
            {
              "internalType": "uint256",
              "name": "baseBorrowLimit",
              "type": "uint256"
            },
            {
              "internalType": "uint256",
              "name": "maxBorrowLimit",
              "type": "uint256"
            },
            {
              "internalType": "uint256",
              "name": "borrowableUntilLimit",
              "type": "uint256"
            },
            {
              "internalType": "uint256",
              "name": "borrowable",
              "type": "uint256"
            },
            {
              "internalType": "uint256",
              "name": "borrowLimitUtilization",
              "type": "uint256"
            }
          ],
          "internalType": "struct Structs.UserBorrowData[]",
          "name": "userBorrowingsData_",
          "type": "tuple[]"
        },
        {
          "components": [
            {
              "internalType": "uint256",
              "name": "borrowRate",
              "type": "uint256"
            },
            {
              "internalType": "uint256",
              "name": "supplyRate",
              "type": "uint256"
            },
            {
              "internalType": "uint256",
              "name": "fee",
              "type": "uint256"
            },
            {
              "internalType": "uint256",
              "name": "lastStoredUtilization",
              "type": "uint256"
            },
            {
              "internalType": "uint256",
              "name": "storageUpdateThreshold",
              "type": "uint256"
            },
            {
              "internalType": "uint256",
              "name": "lastUpdateTimestamp",
              "type": "uint256"
            },
            {
              "internalType": "uint256",
              "name": "supplyExchangePrice",
              "type": "uint256"
            },
            {
              "internalType": "uint256",
              "name": "borrowExchangePrice",
              "type": "uint256"
            },
            {
              "internalType": "uint256",
              "name": "supplyRawInterest",
              "type": "uint256"
            },
            {
              "internalType": "uint256",
              "name": "supplyInterestFree",
              "type": "uint256"
            },
            {
              "internalType": "uint256",
              "name": "borrowRawInterest",
              "type": "uint256"
            },
            {
              "internalType": "uint256",
              "name": "borrowInterestFree",
              "type": "uint256"
            },
            {
              "internalType": "uint256",
              "name": "totalSupply",
              "type": "uint256"
            },
            {
              "internalType": "uint256",
              "name": "totalBorrow",
              "type": "uint256"
            },
            {
              "internalType": "uint256",
              "name": "revenue",
              "type": "uint256"
            },
            {
              "internalType": "uint256",
              "name": "maxUtilization",
              "type": "uint256"
            },
            {
              "components": [
                {
                  "internalType": "uint256",
                  "name": "version",
                  "type": "uint256"
                },
                {
                  "components": [
                    {
                      "internalType": "address",
                      "name": "token",
                      "type": "address"
                    },
                    {
                      "internalType": "uint256",
                      "name": "kink",
                      "type": "uint256"
                    },
                    {
                      "internalType": "uint256",
                      "name": "rateAtUtilizationZero",
                      "type": "uint256"
                    },
                    {
                      "internalType": "uint256",
                      "name": "rateAtUtilizationKink",
                      "type": "uint256"
                    },
                    {
                      "internalType": "uint256",
                      "name": "rateAtUtilizationMax",
                      "type": "uint256"
                    }
                  ],
                  "internalType": "struct Structs.RateDataV1Params",
                  "name": "rateDataV1",
                  "type": "tuple"
                },
                {
                  "components": [
                    {
                      "internalType": "address",
                      "name": "token",
                      "type": "address"
                    },
                    {
                      "internalType": "uint256",
                      "name": "kink1",
                      "type": "uint256"
                    },
                    {
                      "internalType": "uint256",
                      "name": "kink2",
                      "type": "uint256"
                    },
                    {
                      "internalType": "uint256",
                      "name": "rateAtUtilizationZero",
                      "type": "uint256"
                    },
                    {
                      "internalType": "uint256",
                      "name": "rateAtUtilizationKink1",
                      "type": "uint256"
                    },
                    {
                      "internalType": "uint256",
                      "name": "rateAtUtilizationKink2",
                      "type": "uint256"
                    },
                    {
                      "internalType": "uint256",
                      "name": "rateAtUtilizationMax",
                      "type": "uint256"
                    }
                  ],
                  "internalType": "struct Structs.RateDataV2Params",
                  "name": "rateDataV2",
                  "type": "tuple"
                }
              ],
              "internalType": "struct Structs.RateData",
              "name": "rateData",
              "type": "tuple"
            }
          ],
          "internalType": "struct Structs.OverallTokenData[]",
          "name": "overallBorrowTokensData_",
          "type": "tuple[]"
        }
      ],
      "stateMutability": "view",
      "type": "function"
    },
    {
      "inputs": [
        {
          "internalType": "address",
          "name": "user_",
          "type": "address"
        },
        {
          "internalType": "address[]",
          "name": "tokens_",
          "type": "address[]"
        }
      ],
      "name": "getUserMultipleSupplyData",
      "outputs": [
        {
          "components": [
            {
              "internalType": "bool",
              "name": "modeWithInterest",
              "type": "bool"
            },
            {
              "internalType": "uint256",
              "name": "supply",
              "type": "uint256"
            },
            {
              "internalType": "uint256",
              "name": "withdrawalLimit",
              "type": "uint256"
            },
            {
              "internalType": "uint256",
              "name": "lastUpdateTimestamp",
              "type": "uint256"
            },
            {
              "internalType": "uint256",
              "name": "expandPercent",
              "type": "uint256"
            },
            {
              "internalType": "uint256",
              "name": "expandDuration",
              "type": "uint256"
            },
            {
              "internalType": "uint256",
              "name": "baseWithdrawalLimit",
              "type": "uint256"
            },
            {
              "internalType": "uint256",
              "name": "withdrawableUntilLimit",
              "type": "uint256"
            },
            {
              "internalType": "uint256",
              "name": "withdrawable",
              "type": "uint256"
            }
          ],
          "internalType": "struct Structs.UserSupplyData[]",
          "name": "userSuppliesData_",
          "type": "tuple[]"
        },
        {
          "components": [
            {
              "internalType": "uint256",
              "name": "borrowRate",
              "type": "uint256"
            },
            {
              "internalType": "uint256",
              "name": "supplyRate",
              "type": "uint256"
            },
            {
              "internalType": "uint256",
              "name": "fee",
              "type": "uint256"
            },
            {
              "internalType": "uint256",
              "name": "lastStoredUtilization",
              "type": "uint256"
            },
            {
              "internalType": "uint256",
              "name": "storageUpdateThreshold",
              "type": "uint256"
            },
            {
              "internalType": "uint256",
              "name": "lastUpdateTimestamp",
              "type": "uint256"
            },
            {
              "internalType": "uint256",
              "name": "supplyExchangePrice",
              "type": "uint256"
            },
            {
              "internalType": "uint256",
              "name": "borrowExchangePrice",
              "type": "uint256"
            },
            {
              "internalType": "uint256",
              "name": "supplyRawInterest",
              "type": "uint256"
            },
            {
              "internalType": "uint256",
              "name": "supplyInterestFree",
              "type": "uint256"
            },
            {
              "internalType": "uint256",
              "name": "borrowRawInterest",
              "type": "uint256"
            },
            {
              "internalType": "uint256",
              "name": "borrowInterestFree",
              "type": "uint256"
            },
            {
              "internalType": "uint256",
              "name": "totalSupply",
              "type": "uint256"
            },
            {
              "internalType": "uint256",
              "name": "totalBorrow",
              "type": "uint256"
            },
            {
              "internalType": "uint256",
              "name": "revenue",
              "type": "uint256"
            },
            {
              "internalType": "uint256",
              "name": "maxUtilization",
              "type": "uint256"
            },
            {
              "components": [
                {
                  "internalType": "uint256",
                  "name": "version",
                  "type": "uint256"
                },
                {
                  "components": [
                    {
                      "internalType": "address",
                      "name": "token",
                      "type": "address"
                    },
                    {
                      "internalType": "uint256",
                      "name": "kink",
                      "type": "uint256"
                    },
                    {
                      "internalType": "uint256",
                      "name": "rateAtUtilizationZero",
                      "type": "uint256"
                    },
                    {
                      "internalType": "uint256",
                      "name": "rateAtUtilizationKink",
                      "type": "uint256"
                    },
                    {
                      "internalType": "uint256",
                      "name": "rateAtUtilizationMax",
                      "type": "uint256"
                    }
                  ],
                  "internalType": "struct Structs.RateDataV1Params",
                  "name": "rateDataV1",
                  "type": "tuple"
                },
                {
                  "components": [
                    {
                      "internalType": "address",
                      "name": "token",
                      "type": "address"
                    },
                    {
                      "internalType": "uint256",
                      "name": "kink1",
                      "type": "uint256"
                    },
                    {
                      "internalType": "uint256",
                      "name": "kink2",
                      "type": "uint256"
                    },
                    {
                      "internalType": "uint256",
                      "name": "rateAtUtilizationZero",
                      "type": "uint256"
                    },
                    {
                      "internalType": "uint256",
                      "name": "rateAtUtilizationKink1",
                      "type": "uint256"
                    },
                    {
                      "internalType": "uint256",
                      "name": "rateAtUtilizationKink2",
                      "type": "uint256"
                    },
                    {
                      "internalType": "uint256",
                      "name": "rateAtUtilizationMax",
                      "type": "uint256"
                    }
                  ],
                  "internalType": "struct Structs.RateDataV2Params",
                  "name": "rateDataV2",
                  "type": "tuple"
                }
              ],
              "internalType": "struct Structs.RateData",
              "name": "rateData",
              "type": "tuple"
            }
          ],
          "internalType": "struct Structs.OverallTokenData[]",
          "name": "overallTokensData_",
          "type": "tuple[]"
        }
      ],
      "stateMutability": "view",
      "type": "function"
    },
    {
      "inputs": [
        {
          "internalType": "address",
          "name": "user_",
          "type": "address"
        },
        {
          "internalType": "address",
          "name": "token_",
          "type": "address"
        }
      ],
      "name": "getUserSupply",
      "outputs": [
        {
          "internalType": "uint256",
          "name": "",
          "type": "uint256"
        }
      ],
      "stateMutability": "view",
      "type": "function"
    },
    {
      "inputs": [
        {
          "internalType": "address",
          "name": "user_",
          "type": "address"
        },
        {
          "internalType": "address",
          "name": "token_",
          "type": "address"
        }
      ],
      "name": "getUserSupplyData",
      "outputs": [
        {
          "components": [
            {
              "internalType": "bool",
              "name": "modeWithInterest",
              "type": "bool"
            },
            {
              "internalType": "uint256",
              "name": "supply",
              "type": "uint256"
            },
            {
              "internalType": "uint256",
              "name": "withdrawalLimit",
              "type": "uint256"
            },
            {
              "internalType": "uint256",
              "name": "lastUpdateTimestamp",
              "type": "uint256"
            },
            {
              "internalType": "uint256",
              "name": "expandPercent",
              "type": "uint256"
            },
            {
              "internalType": "uint256",
              "name": "expandDuration",
              "type": "uint256"
            },
            {
              "internalType": "uint256",
              "name": "baseWithdrawalLimit",
              "type": "uint256"
            },
            {
              "internalType": "uint256",
              "name": "withdrawableUntilLimit",
              "type": "uint256"
            },
            {
              "internalType": "uint256",
              "name": "withdrawable",
              "type": "uint256"
            }
          ],
          "internalType": "struct Structs.UserSupplyData",
          "name": "userSupplyData_",
          "type": "tuple"
        },
        {
          "components": [
            {
              "internalType": "uint256",
              "name": "borrowRate",
              "type": "uint256"
            },
            {
              "internalType": "uint256",
              "name": "supplyRate",
              "type": "uint256"
            },
            {
              "internalType": "uint256",
              "name": "fee",
              "type": "uint256"
            },
            {
              "internalType": "uint256",
              "name": "lastStoredUtilization",
              "type": "uint256"
            },
            {
              "internalType": "uint256",
              "name": "storageUpdateThreshold",
              "type": "uint256"
            },
            {
              "internalType": "uint256",
              "name": "lastUpdateTimestamp",
              "type": "uint256"
            },
            {
              "internalType": "uint256",
              "name": "supplyExchangePrice",
              "type": "uint256"
            },
            {
              "internalType": "uint256",
              "name": "borrowExchangePrice",
              "type": "uint256"
            },
            {
              "internalType": "uint256",
              "name": "supplyRawInterest",
              "type": "uint256"
            },
            {
              "internalType": "uint256",
              "name": "supplyInterestFree",
              "type": "uint256"
            },
            {
              "internalType": "uint256",
              "name": "borrowRawInterest",
              "type": "uint256"
            },
            {
              "internalType": "uint256",
              "name": "borrowInterestFree",
              "type": "uint256"
            },
            {
              "internalType": "uint256",
              "name": "totalSupply",
              "type": "uint256"
            },
            {
              "internalType": "uint256",
              "name": "totalBorrow",
              "type": "uint256"
            },
            {
              "internalType": "uint256",
              "name": "revenue",
              "type": "uint256"
            },
            {
              "internalType": "uint256",
              "name": "maxUtilization",
              "type": "uint256"
            },
            {
              "components": [
                {
                  "internalType": "uint256",
                  "name": "version",
                  "type": "uint256"
                },
                {
                  "components": [
                    {
                      "internalType": "address",
                      "name": "token",
                      "type": "address"
                    },
                    {
                      "internalType": "uint256",
                      "name": "kink",
                      "type": "uint256"
                    },
                    {
                      "internalType": "uint256",
                      "name": "rateAtUtilizationZero",
                      "type": "uint256"
                    },
                    {
                      "internalType": "uint256",
                      "name": "rateAtUtilizationKink",
                      "type": "uint256"
                    },
                    {
                      "internalType": "uint256",
                      "name": "rateAtUtilizationMax",
                      "type": "uint256"
                    }
                  ],
                  "internalType": "struct Structs.RateDataV1Params",
                  "name": "rateDataV1",
                  "type": "tuple"
                },
                {
                  "components": [
                    {
                      "internalType": "address",
                      "name": "token",
                      "type": "address"
                    },
                    {
                      "internalType": "uint256",
                      "name": "kink1",
                      "type": "uint256"
                    },
                    {
                      "internalType": "uint256",
                      "name": "kink2",
                      "type": "uint256"
                    },
                    {
                      "internalType": "uint256",
                      "name": "rateAtUtilizationZero",
                      "type": "uint256"
                    },
                    {
                      "internalType": "uint256",
                      "name": "rateAtUtilizationKink1",
                      "type": "uint256"
                    },
                    {
                      "internalType": "uint256",
                      "name": "rateAtUtilizationKink2",
                      "type": "uint256"
                    },
                    {
                      "internalType": "uint256",
                      "name": "rateAtUtilizationMax",
                      "type": "uint256"
                    }
                  ],
                  "internalType": "struct Structs.RateDataV2Params",
                  "name": "rateDataV2",
                  "type": "tuple"
                }
              ],
              "internalType": "struct Structs.RateData",
              "name": "rateData",
              "type": "tuple"
            }
          ],
          "internalType": "struct Structs.OverallTokenData",
          "name": "overallTokenData_",
          "type": "tuple"
        }
      ],
      "stateMutability": "view",
      "type": "function"
    },
    {
      "inputs": [
        {
          "internalType": "address",
          "name": "auth_",
          "type": "address"
        }
      ],
      "name": "isAuth",
      "outputs": [
        {
          "internalType": "uint256",
          "name": "",
          "type": "uint256"
        }
      ],
      "stateMutability": "view",
      "type": "function"
    },
    {
      "inputs": [
        {
          "internalType": "address",
          "name": "guardian_",
          "type": "address"
        }
      ],
      "name": "isGuardian",
      "outputs": [
        {
          "internalType": "uint256",
          "name": "",
          "type": "uint256"
        }
      ],
      "stateMutability": "view",
      "type": "function"
    },
    {
      "inputs": [],
      "name": "listedTokens",
      "outputs": [
        {
          "internalType": "address[]",
          "name": "listedTokens_",
          "type": "address[]"
        }
      ],
      "stateMutability": "view",
      "type": "function"
    }
  ],
  "transactionHash": "0x2c73e2f4b0509bab83f5447c2efe465252dc230fa87e9eb3a19849545529750f",
  "args": [
    "0x52Aa899454998Be5b000Ad077a46Bbe360F4e497"
  ],
  "numDeployments": 5,
  "solcInputHash": "5082da1b3913f11837947aa32410fe01",
  "bytecode": "0x60a06040523480156200001157600080fd5b50604051620037ec380380620037ec833981016040819052620000349162000068565b6001600160a01b03811660808190526200006157604051630dd6e9eb60e41b815260040160405180910390fd5b506200009a565b6000602082840312156200007b57600080fd5b81516001600160a01b03811681146200009357600080fd5b9392505050565b6080516136a3620001496000396000818161022f015281816104560152818161083c015281816108b001528181610b8d01528181610cb001528181610d7401528181610e8e01528181610fb601528181611042015281816110b60152818161112a015281816111c7015281816112410152818161158c0152818161160601528181611c0701528181611eb301528181611f2d01528181611ffa01528181612120015261224701526136a36000f3fe608060405234801561001057600080fd5b50600436106101985760003560e01c80634e69d560116100e3578063b3fc48bc1161008c578063cdb5964411610066578063cdb59644146103c7578063e72ef91b146103da578063ee9e836d146103fb57600080fd5b8063b3fc48bc14610370578063b505b75014610393578063cd4a7e14146103b457600080fd5b80636e938406116100bd5780636e9384061461032957806385b670951461033c578063967915d61461034f57600080fd5b80634e69d560146102fb57806360fed05f14610303578063672694891461031657600080fd5b806329e04fbf1161014557806334a2e6591161011f57806334a2e659146102c957806336ebf76c146102d15780634a3d6bda146102e657600080fd5b806329e04fbf146102765780632b001833146102965780632b66fc05146102a957600080fd5b80631f735227116101765780631f735227146102045780632520e7ff146102175780632861c7d11461022a57600080fd5b80630c68ba211461019d57806314c0ac36146101c35780631dacf037146101e4575b600080fd5b6101b06101ab366004612821565b61040e565b6040519081526020015b60405180910390f35b6101d66101d1366004612888565b6104e3565b6040516101ba929190612af6565b6101f76101f2366004612821565b610667565b6040516101ba9190612b24565b6101b0610212366004612821565b6107f4565b6101b0610225366004612821565b610868565b6102517f000000000000000000000000000000000000000000000000000000000000000081565b60405173ffffffffffffffffffffffffffffffffffffffff90911681526020016101ba565b610289610284366004612821565b6108dc565b6040516101ba9190612bd4565b6101b06102a4366004612821565b610b45565b6102bc6102b7366004612d23565b610bb9565b6040516101ba9190612d65565b610251610c7e565b6102d9610d36565b6040516101ba9190612e55565b6102ee610d3f565b6040516101ba9190612e68565b6101b0610f84565b6101b0610311366004612821565b610ffa565b6101b0610324366004612821565b61106e565b6101b0610337366004612821565b6110e2565b6101b061034a366004612821565b611156565b61036261035d366004612eb6565b6112b4565b6040516101ba929190612ee9565b61038361037e3660046130b8565b61166a565b6040516101ba94939291906131e3565b6103a66103a1366004612888565b611967565b6040516101ba92919061323b565b6102d96103c236600461327d565b611ada565b6101b06103d5366004612eb6565b611b98565b6103ed6103e8366004612eb6565b611c95565b6040516101ba929190613360565b6101b0610409366004612eb6565b6121d8565b6040805173ffffffffffffffffffffffffffffffffffffffff8381166020808401919091526003838501528351808403850181526060909301909352815191909201206000917f0000000000000000000000000000000000000000000000000000000000000000169063b5c736e4905b6040518263ffffffff1660e01b815260040161049c91815260200190565b602060405180830381865afa1580156104b9573d6000803e3d6000fd5b505050506040513d601f19601f820116820180604052508101906104dd9190613517565b92915050565b606080828067ffffffffffffffff8111156105005761050061324e565b60405190808252806020026020018201604052801561058257816020015b61056f60405180610120016040528060001515815260200160008152602001600081526020016000815260200160008152602001600081526020016000815260200160008152602001600081525090565b81526020019060019003908161051e5790505b5092508067ffffffffffffffff81111561059e5761059e61324e565b6040519080825280602002602001820160405280156105d757816020015b6105c46126ba565b8152602001906001900390816105bc5790505b50915060005b8181101561065d57610610878787848181106105fb576105fb613530565b90506020020160208101906103e89190612821565b85838151811061062257610622613530565b6020026020010185848151811061063b5761063b613530565b60200260200101829052829052505080806106559061358e565b9150506105dd565b5050935093915050565b61066f612743565b600061067a83610ffa565b600f81168084529091506001036106f2576020828101805173ffffffffffffffffffffffffffffffffffffffff86169052805161ffff600485901c81166040909201919091528151601485901c82169301929092528051602484901c831660609091015251603483901c9091166080909101526107ee565b8151600203610780576040828101805173ffffffffffffffffffffffffffffffffffffffff86169052805161ffff600485901c81166060909201919091528151601485901c82166020909101528151602485901c82166080909101528151603485901c82169301929092528051604484901c831660a09091015251605483901c90911660c0909101526107ee565b8151156107ee576040517f08c379a000000000000000000000000000000000000000000000000000000000815260206004820152601660248201527f6e6f742d76616c69642d726174652d76657273696f6e0000000000000000000060448201526064015b60405180910390fd5b50919050565b6040805173ffffffffffffffffffffffffffffffffffffffff8381166020808401919091526004838501528351808403850181526060909301909352815191909201206000917f0000000000000000000000000000000000000000000000000000000000000000169063b5c736e49061047e565b6040805173ffffffffffffffffffffffffffffffffffffffff8381166020808401919091526002838501528351808403850181526060909301909352815191909201206000917f0000000000000000000000000000000000000000000000000000000000000000169063b5c736e49061047e565b6108e46126ba565b6108ed82610667565b61020082015260006108fe83610b45565b905080156107ee576000610911846110e2565b905061091c82612273565b60e085015260c084015261ffff82168352601082901c613fff9081166040850152601e83901c81166060850152602c83901c166080840152603a82901c6401ffffffff1660a08401526127106101e0840152600160f983901c8116900361099157613fff6109898561106e565b166101e08401525b66ffffffffffffff600882901c811660ff8084169190911b6101008601819052604884901c8316604085901c83161b610120870152608884901c909216608084901c82161b61014086015260c883901c60c084901c9182161b61016086015290600090819015610ab05764e8d4a5100067ffffffffffffffff605b87901c16876101000151610a2091906135c6565b610a2a919061360c565b915064e8d4a5100067ffffffffffffffff609b87901c16876101400151610a5191906135c6565b610a5b919061360c565b90508115610aa757610a6f612710836135c6565b818760400151612710610a829190613647565b8851610a8e91906135c6565b610a9891906135c6565b610aa2919061360c565b610aaa565b60005b60208701525b64e8d4a510008660c00151876101000151610acb91906135c6565b610ad5919061360c565b915085610120015182610ae8919061365a565b61018087015260e086015161014087015164e8d4a5100091610b09916135c6565b610b13919061360c565b905085610160015181610b26919061365a565b6101a0870152610b3587611156565b6101c08701525050505050919050565b6040805173ffffffffffffffffffffffffffffffffffffffff8381166020808401919091526005838501528351808403850181526060909301909352815191909201206000917f0000000000000000000000000000000000000000000000000000000000000000169063b5c736e49061047e565b6060818067ffffffffffffffff811115610bd557610bd561324e565b604051908082528060200260200182016040528015610c0e57816020015b610bfb612743565b815260200190600190039081610bf35790505b50915060005b81811015610c7657610c46858583818110610c3157610c31613530565b90506020020160208101906101f29190612821565b838281518110610c5857610c58613530565b60200260200101819052508080610c6e9061358e565b915050610c14565b505092915050565b6040517fb5c736e4000000000000000000000000000000000000000000000000000000008152600060048201819052907f000000000000000000000000000000000000000000000000000000000000000073ffffffffffffffffffffffffffffffffffffffff169063b5c736e4906024015b602060405180830381865afa158015610d0d573d6000803e3d6000fd5b505050506040513d601f19601f82011682018060405250810190610d319190613517565b905090565b6060610d316103c25b6040517fb5c736e4000000000000000000000000000000000000000000000000000000008152600a60048201526060906000907f000000000000000000000000000000000000000000000000000000000000000073ffffffffffffffffffffffffffffffffffffffff169063b5c736e490602401602060405180830381865afa158015610dd0573d6000803e3d6000fd5b505050506040513d601f19601f82011682018060405250810190610df49190613517565b90508067ffffffffffffffff811115610e0f57610e0f61324e565b604051908082528060200260200182016040528015610e38578160200160208202803683370190505b5091506000600a604051602001610e5191815260200190565b6040516020818303038152906040528051906020012060001c905060005b82811015610f7e5773ffffffffffffffffffffffffffffffffffffffff7f00000000000000000000000000000000000000000000000000000000000000001663b5c736e4610ebd838561365a565b60405160e083901b7fffffffff000000000000000000000000000000000000000000000000000000001681526004810191909152602401602060405180830381865afa158015610f11573d6000803e3d6000fd5b505050506040513d601f19601f82011682018060405250810190610f359190613517565b848281518110610f4757610f47613530565b73ffffffffffffffffffffffffffffffffffffffff9092166020928302919091019091015280610f768161358e565b915050610e6f565b50505090565b6040517fb5c736e4000000000000000000000000000000000000000000000000000000008152600160048201526000907f000000000000000000000000000000000000000000000000000000000000000073ffffffffffffffffffffffffffffffffffffffff169063b5c736e490602401610cf0565b6040805173ffffffffffffffffffffffffffffffffffffffff8381166020808401919091526006838501528351808403850181526060909301909352815191909201206000917f0000000000000000000000000000000000000000000000000000000000000000169063b5c736e49061047e565b6040805173ffffffffffffffffffffffffffffffffffffffff838116602080840191909152600b838501528351808403850181526060909301909352815191909201206000917f0000000000000000000000000000000000000000000000000000000000000000169063b5c736e49061047e565b6040805173ffffffffffffffffffffffffffffffffffffffff8381166020808401919091526007838501528351808403850181526060909301909352815191909201206000917f0000000000000000000000000000000000000000000000000000000000000000169063b5c736e49061047e565b60008073ffffffffffffffffffffffffffffffffffffffff831673eeeeeeeeeeeeeeeeeeeeeeeeeeeeeeeeeeeeeeee1461123f576040517f70a0823100000000000000000000000000000000000000000000000000000000815273ffffffffffffffffffffffffffffffffffffffff7f0000000000000000000000000000000000000000000000000000000000000000811660048301528416906370a0823190602401602060405180830381865afa158015611216573d6000803e3d6000fd5b505050506040513d601f19601f8201168201806040525081019061123a9190613517565b611278565b7f000000000000000000000000000000000000000000000000000000000000000073ffffffffffffffffffffffffffffffffffffffff16315b9050600061128584610b45565b905080600003611299575060009392505050565b6112ac6112a5856110e2565b8284612481565b949350505050565b611313604051806101600160405280600015158152602001600081526020016000815260200160008152602001600081526020016000815260200160008152602001600081526020016000815260200160008152602001600081525090565b61131b6126ba565b611324836108dc565b905060006113328585611b98565b90508015611662576001808216811484526113629082901c67ffffffffffffffff16600860ff9082901c91161b90565b602084018190526113749082906124ea565b60408401526401ffffffff608182901c166060840152613fff60a282901c16608084015262ffffff60b082901c1660a08401526103ff60d082901c1660ff60c883901c161b60c08401526103ff60e282901c1660ff60da83901c161b60e08401528251156114815764e8d4a510008260e0015184602001516113f691906135c6565b611400919061360c565b602084015260e0820151604084015164e8d4a510009161141f916135c6565b611429919061360c565b604084015260e082015160c084015164e8d4a5100091611448916135c6565b611452919061360c565b60c084015260e0808301519084015164e8d4a5100091611471916135c6565b61147b919061360c565b60e08401525b612710826101800151836101e0015161149a91906135c6565b6114a4919061360c565b61014084018190526101a0830151600091116114c15760006114d7565b826101a001518461014001516114d79190613647565b9050600084602001518560400151116114f1576000611505565b846020015185604001516115059190613647565b90508181116115145780611516565b815b610100860152600073ffffffffffffffffffffffffffffffffffffffff871673eeeeeeeeeeeeeeeeeeeeeeeeeeeeeeeeeeeeeeee14611604576040517f70a0823100000000000000000000000000000000000000000000000000000000815273ffffffffffffffffffffffffffffffffffffffff7f0000000000000000000000000000000000000000000000000000000000000000811660048301528816906370a0823190602401602060405180830381865afa1580156115db573d6000803e3d6000fd5b505050506040513d601f19601f820116820180604052508101906115ff9190613517565b61163d565b7f000000000000000000000000000000000000000000000000000000000000000073ffffffffffffffffffffffffffffffffffffffff16315b905085610100015181116116515780611658565b8561010001515b6101208701525050505b509250929050565b6060808080868067ffffffffffffffff8111156116895761168961324e565b60405190808252806020026020018201604052801561170b57816020015b6116f860405180610120016040528060001515815260200160008152602001600081526020016000815260200160008152602001600081526020016000815260200160008152602001600081525090565b8152602001906001900390816116a75790505b5094508067ffffffffffffffff8111156117275761172761324e565b60405190808252806020026020018201604052801561176057816020015b61174d6126ba565b8152602001906001900390816117455790505b50935060005b818110156117d1576117848b8b8b848181106105fb576105fb613530565b87838151811061179657611796613530565b602002602001018784815181106117af576117af613530565b60200260200101829052829052505080806117c99061358e565b915050611766565b508590508067ffffffffffffffff8111156117ee576117ee61324e565b60405190808252806020026020018201604052801561187e57816020015b61186b604051806101600160405280600015158152602001600081526020016000815260200160008152602001600081526020016000815260200160008152602001600081526020016000815260200160008152602001600081525090565b81526020019060019003908161180c5790505b5092508067ffffffffffffffff81111561189a5761189a61324e565b6040519080825280602002602001820160405280156118d357816020015b6118c06126ba565b8152602001906001900390816118b85790505b50915060005b818110156119595761190c8b8989848181106118f7576118f7613530565b905060200201602081019061035d9190612821565b85838151811061191e5761191e613530565b6020026020010185848151811061193757611937613530565b60200260200101829052829052505080806119519061358e565b9150506118d9565b505095509550955095915050565b606080828067ffffffffffffffff8111156119845761198461324e565b604051908082528060200260200182016040528015611a1457816020015b611a01604051806101600160405280600015158152602001600081526020016000815260200160008152602001600081526020016000815260200160008152602001600081526020016000815260200160008152602001600081525090565b8152602001906001900390816119a25790505b5092508067ffffffffffffffff811115611a3057611a3061324e565b604051908082528060200260200182016040528015611a6957816020015b611a566126ba565b815260200190600190039081611a4e5790505b50915060005b8181101561065d57611a8d878787848181106118f7576118f7613530565b858381518110611a9f57611a9f613530565b60200260200101858481518110611ab857611ab8613530565b6020026020010182905282905250508080611ad29061358e565b915050611a6f565b80516060908067ffffffffffffffff811115611af857611af861324e565b604051908082528060200260200182016040528015611b3157816020015b611b1e6126ba565b815260200190600190039081611b165790505b50915060005b81811015611b9157611b61848281518110611b5457611b54613530565b60200260200101516108dc565b838281518110611b7357611b73613530565b60200260200101819052508080611b899061358e565b915050611b37565b5050919050565b6040805173ffffffffffffffffffffffffffffffffffffffff848116602080840191909152600983850152835180840385018152606084018552805190820120858316608085015260a0808501919091528451808503909101815260c0909301909352815191909201206000917f0000000000000000000000000000000000000000000000000000000000000000169063b5c736e4905b6040518263ffffffff1660e01b8152600401611c4d91815260200190565b602060405180830381865afa158015611c6a573d6000803e3d6000fd5b505050506040513d601f19601f82011682018060405250810190611c8e9190613517565b9392505050565b611ce660405180610120016040528060001515815260200160008152602001600081526020016000815260200160008152602001600081526020016000815260200160008152602001600081525090565b611cee6126ba565b611cf7836108dc565b90506000611d0585856121d8565b9050801561166257600180821681148452611d359082901c67ffffffffffffffff16600860ff9082901c91161b90565b60208401819052611d479082906125a5565b60408401526401ffffffff608182901c166060840152613fff60a282901c16608084015262ffffff60b082901c1660a08401526103ff60d082901c1660ff60c883901c161b60c0840152825115611e145764e8d4a510008260c001518460200151611db291906135c6565b611dbc919061360c565b602084015260c0820151604084015164e8d4a5100091611ddb916135c6565b611de5919061360c565b604084015260c0808301519084015164e8d4a5100091611e04916135c6565b611e0e919061360c565b60c08401525b8260400151836020015111611e2a576000611e3e565b82604001518360200151611e3e9190613647565b60e0840152600073ffffffffffffffffffffffffffffffffffffffff851673eeeeeeeeeeeeeeeeeeeeeeeeeeeeeeeeeeeeeeee14611f2b576040517f70a0823100000000000000000000000000000000000000000000000000000000815273ffffffffffffffffffffffffffffffffffffffff7f0000000000000000000000000000000000000000000000000000000000000000811660048301528616906370a0823190602401602060405180830381865afa158015611f02573d6000803e3d6000fd5b505050506040513d601f19601f82011682018060405250810190611f269190613517565b611f64565b7f000000000000000000000000000000000000000000000000000000000000000073ffffffffffffffffffffffffffffffffffffffff16315b90507fffffffffffffffffffffffff32a01dc37a7df0848d2f6d90364fa4bc1ca6481273ffffffffffffffffffffffffffffffffffffffff86160161208c576040517fb203bb9900000000000000000000000000000000000000000000000000000000815273cd5fe23c85820f7b72d0926fc9b05b43e359b7ee600482015273ffffffffffffffffffffffffffffffffffffffff7f000000000000000000000000000000000000000000000000000000000000000016602482015273f047ab4c75cebf0eb9ed34ae2c186f3611aeafa69063b203bb9990604401602060405180830381865afa15801561205b573d6000803e3d6000fd5b505050506040513d601f19601f8201168201806040525081019061207f9190613517565b612089908261365a565b90505b7fffffffffffffffffffffffff6e83117fe59806cc0d194cc03f32e12d2a6f627873ffffffffffffffffffffffffffffffffffffffff8616016121b2576040517fb203bb9900000000000000000000000000000000000000000000000000000000815273917cee801a67f933f2e6b33fc0cd1ed2d5909d88600482015273ffffffffffffffffffffffffffffffffffffffff7f000000000000000000000000000000000000000000000000000000000000000016602482015273f047ab4c75cebf0eb9ed34ae2c186f3611aeafa69063b203bb9990604401602060405180830381865afa158015612181573d6000803e3d6000fd5b505050506040513d601f19601f820116820180604052508101906121a59190613517565b6121af908261365a565b90505b8360e0015181116121c357806121c9565b8360e001515b61010085015250509250929050565b6040805173ffffffffffffffffffffffffffffffffffffffff848116602080840191909152600883850152835180840385018152606084018552805190820120858316608085015260a0808501919091528451808503909101815260c0909301909352815191909201206000917f0000000000000000000000000000000000000000000000000000000000000000169063b5c736e490611c2f565b67ffffffffffffffff605b82901c811690609b83901c16811580612295575080155b156122d1576040517fd50d75120000000000000000000000000000000000000000000000000000000081526201117160048201526024016107e5565b61ffff8316603a84901c6401ffffffff16428181039160ea87901c617fff169114806122fb575082155b806123065750806001145b1561231357505050915091565b64496cebb80084840283020484019350617fff60db87901c1692508260010361233e57505050915091565b826001166001036123935760019290921c91826c7e37be2022c0914b26800000008161236c5761236c6135dd565b049250612710601e87901c613fff166b033b2e3c9fd0803ce80000008501020492506123c0565b60019290921c916305f5e100601e87901c613fff166127108501026b033b2e3c9fd0803ce8000000020492505b806001166001036123f75760011c61271081016b033b2e3c9fd0803ce80000008202816123ef576123ef6135dd565b04905061242d565b60011c61271081016b033b2e3c9fd0803ce800000082028161241b5761241b6135dd565b046b033b2e3c9fd0803ce80000000390505b760a70c3c40a64e6c51999090b65f67d92400000000000008382026127100261ffff881691900402601087901c613fff16612710030292506801b5a660ea44b8000085840283020485019450505050915091565b600080600061248f85612273565b91509150600061249f8784612635565b905080156124dc576124b18783612680565b6124bb908661365a565b93508084116124cb5760006124d5565b6124d58185613647565b93506124e0565b8493505b5050509392505050565b60d082901c6103ff1660c883901c60ff161b613fff60a284901c16612710838202048084018381101561251f575050506104dd565b608186901c6401ffffffff164203925066ffffffffffffff604987901c1660ff604188901c161b60b087901c62ffffff1661255a85856135c6565b612564919061360c565b61256e919061365a565b93508084111561257c578093505b6103ff60e287901c1660ff60da88901c161b92508284111561259c578293505b50505092915050565b600066ffffffffffffff604984901c1660ff604185901c161b8082036125cf5760009150506104dd565b612710613fff60a286901c168402046401ffffffff608186901c16420362ffffff60b087901c1661260082846135c6565b61260a919061360c565b905080831161261a57600061261e565b8083035b9350508084038381111561259c5795945050505050565b66ffffffffffffff604883901c811660ff604085901c81169190911b91600885901c169084161b64e8d4a5100061266c84836135c6565b612676919061360c565b6112ac908361365a565b60c882901c60ff60c084901c81169190911b9066ffffffffffffff608885901c16608085901c9091161b64e8d4a5100061266c84836135c6565b6040518061022001604052806000815260200160008152602001600081526020016000815260200160008152602001600081526020016000815260200160008152602001600081526020016000815260200160008152602001600081526020016000815260200160008152602001600081526020016000815260200161273e612743565b905290565b60405180606001604052806000815260200161279d6040518060a00160405280600073ffffffffffffffffffffffffffffffffffffffff168152602001600081526020016000815260200160008152602001600081525090565b815260200161273e6040518060e00160405280600073ffffffffffffffffffffffffffffffffffffffff1681526020016000815260200160008152602001600081526020016000815260200160008152602001600081525090565b803573ffffffffffffffffffffffffffffffffffffffff8116811461281c57600080fd5b919050565b60006020828403121561283357600080fd5b611c8e826127f8565b60008083601f84011261284e57600080fd5b50813567ffffffffffffffff81111561286657600080fd5b6020830191508360208260051b850101111561288157600080fd5b9250929050565b60008060006040848603121561289d57600080fd5b6128a6846127f8565b9250602084013567ffffffffffffffff8111156128c257600080fd5b6128ce8682870161283c565b9497909650939450505050565b600081518084526020808501945080840160005b8381101561296d576129598783518051151582526020810151602083015260408101516040830152606081015160608301526080810151608083015260a081015160a083015260c081015160c083015260e081015160e08301526101008082015181840152505050565b6101209690960195908201906001016128ef565b509495945050505050565b600081518084526020808501945080840160005b8381101561296d57612ae2878351805182526020808201518184015260408083015181850152606080840151818601526080808501518187015260a0808601518188015260c0808701518189015260e08088015190890152610100808801519089015261012080880151908901526101408088015190890152610160808801519089015261018080880151908901526101a080880151908901526101c080880151908901526101e080880151908901526102009687015180519789019790975286860151805173ffffffffffffffffffffffffffffffffffffffff9081166102208b0152818801516102408b0152818701516102608b0152818601516102808b0152908401516102a08a01529685015180519097166102c0890152948601516102e08801529285015161030087015290840151610320860152830151610340850152820151610360840152015161038090910152565b6103a096909601959082019060010161298c565b604081526000612b0960408301856128db565b8281036020840152612b1b8185612978565b95945050505050565b6101a081016104dd828480518252602081015173ffffffffffffffffffffffffffffffffffffffff808251166020850152602082015160408501526040820151606085015260608201516080850152608082015160a0850152604083015191508082511660c085015250602081015160e084015260408101516101008401526060810151610120840152608081015161014084015260a081015161016084015260c0810151610180840152505050565b815181526020808301518183015260408084015181840152606080850151818501526080808601518186015260a0808701518187015260c0808801518188015260e08089015190880152610100808901519088015261012080890151908801526101408089015190880152610160808901519088015261018080890151908801526101a080890151908801526101c080890151908801526101e080890151908801526102008089015180519189019190915280870151805173ffffffffffffffffffffffffffffffffffffffff9081166102208b0152818901516102408b0152818801516102608b0152818701516102808b0152908501516102a08a01529086015180519091166102c0890152958601516102e0880152938501516103008701529184015161032086015283015161034085015282015161036084015201516103808201526103a081016104dd565b60008060208385031215612d3657600080fd5b823567ffffffffffffffff811115612d4d57600080fd5b612d598582860161283c565b90969095509350505050565b6020808252825182820181905260009190848201906040850190845b81811015612e4957612e3583855180518252602081015173ffffffffffffffffffffffffffffffffffffffff808251166020850152602082015160408501526040820151606085015260608201516080850152608082015160a0850152604083015191508082511660c085015250602081015160e084015260408101516101008401526060810151610120840152608081015161014084015260a081015161016084015260c0810151610180840152505050565b928401926101a09290920191600101612d81565b50909695505050505050565b602081526000611c8e6020830184612978565b6020808252825182820181905260009190848201906040850190845b81811015612e4957835173ffffffffffffffffffffffffffffffffffffffff1683529284019291840191600101612e84565b60008060408385031215612ec957600080fd5b612ed2836127f8565b9150612ee0602084016127f8565b90509250929050565b6105008101612f6782858051151582526020810151602083015260408101516040830152606081015160608301526080810151608083015260a081015160a083015260c081015160c083015260e081015160e08301526101008082015181840152506101208082015181840152506101408082015181840152505050565b611c8e610160830184805182526020808201518184015260408083015181850152606080840151818601526080808501518187015260a0808601518188015260c0808701518189015260e08088015190890152610100808801519089015261012080880151908901526101408088015190890152610160808801519089015261018080880151908901526101a080880151908901526101c080880151908901526101e080880151908901526102009687015180519789019790975286860151805173ffffffffffffffffffffffffffffffffffffffff9081166102208b0152818801516102408b0152818701516102608b0152818601516102808b0152908401516102a08a01529685015180519097166102c0890152948601516102e08801529285015161030087015290840151610320860152830151610340850152820151610360840152015161038090910152565b6000806000806000606086880312156130d057600080fd5b6130d9866127f8565b9450602086013567ffffffffffffffff808211156130f657600080fd5b61310289838a0161283c565b9096509450604088013591508082111561311b57600080fd5b506131288882890161283c565b969995985093965092949392505050565b600081518084526020808501945080840160005b8381101561296d576131cf8783518051151582526020810151602083015260408101516040830152606081015160608301526080810151608083015260a081015160a083015260c081015160c083015260e081015160e08301526101008082015181840152506101208082015181840152506101408082015181840152505050565b61016096909601959082019060010161314d565b6080815260006131f660808301876128db565b82810360208401526132088187612978565b9050828103604084015261321c8186613139565b905082810360608401526132308185612978565b979650505050505050565b604081526000612b096040830185613139565b7f4e487b7100000000000000000000000000000000000000000000000000000000600052604160045260246000fd5b6000602080838503121561329057600080fd5b823567ffffffffffffffff808211156132a857600080fd5b818501915085601f8301126132bc57600080fd5b8135818111156132ce576132ce61324e565b8060051b6040517fffffffffffffffffffffffffffffffffffffffffffffffffffffffffffffffe0603f830116810181811085821117156133115761331161324e565b60405291825284820192508381018501918883111561332f57600080fd5b938501935b8285101561335457613345856127f8565b84529385019392850192613334565b98975050505050505050565b6104c081016133c682858051151582526020810151602083015260408101516040830152606081015160608301526080810151608083015260a081015160a083015260c081015160c083015260e081015160e08301526101008082015181840152505050565b611c8e610120830184805182526020808201518184015260408083015181850152606080840151818601526080808501518187015260a0808601518188015260c0808701518189015260e08088015190890152610100808801519089015261012080880151908901526101408088015190890152610160808801519089015261018080880151908901526101a080880151908901526101c080880151908901526101e080880151908901526102009687015180519789019790975286860151805173ffffffffffffffffffffffffffffffffffffffff9081166102208b0152818801516102408b0152818701516102608b0152818601516102808b0152908401516102a08a01529685015180519097166102c0890152948601516102e08801529285015161030087015290840151610320860152830151610340850152820151610360840152015161038090910152565b60006020828403121561352957600080fd5b5051919050565b7f4e487b7100000000000000000000000000000000000000000000000000000000600052603260045260246000fd5b7f4e487b7100000000000000000000000000000000000000000000000000000000600052601160045260246000fd5b60007fffffffffffffffffffffffffffffffffffffffffffffffffffffffffffffffff82036135bf576135bf61355f565b5060010190565b80820281158282048414176104dd576104dd61355f565b7f4e487b7100000000000000000000000000000000000000000000000000000000600052601260045260246000fd5b600082613642577f4e487b7100000000000000000000000000000000000000000000000000000000600052601260045260246000fd5b500490565b818103818111156104dd576104dd61355f565b808201808211156104dd576104dd61355f56fea2646970667358221220d89c8ef616d698abf473cd4bb80ba09e82c699a7835988b991741f85c8e4629d64736f6c63430008150033",
  "devdoc": {
    "kind": "dev",
    "methods": {},
    "stateVariables": {
      "_NATIVE_TOKEN_ADDRESS": {
        "details": "address that is mapped to the chain native token"
      }
    },
    "version": 1
  },
  "userdoc": {
    "errors": {
      "FluidLiquidityResolver__AddressZero()": [
        {
          "notice": "thrown if an input param address is zero"
        }
      ]
    },
    "kind": "user",
    "methods": {
      "LIQUIDITY()": {
        "notice": "address of the liquidity contract"
      },
      "getAllOverallTokensData()": {
        "notice": "returns general data for all `listedTokens()` such as rates, exchange prices, utilization, fee, total amounts etc."
      },
      "getConfigs2(address)": {
        "notice": "gets configs2 packed uint256 storage slot for `token_`."
      },
      "getExchangePricesAndConfig(address)": {
        "notice": "gets exchangePricesAndConfig packed uint256 storage slot for `token_`."
      },
      "getOverallTokenData(address)": {
        "notice": "returns general data for `token_` such as rates, exchange prices, utilization, fee, total amounts etc."
      },
      "getOverallTokensData(address[])": {
        "notice": "returns general data for multiple `tokens_` such as rates, exchange prices, utilization, fee, total amounts etc."
      },
      "getRateConfig(address)": {
        "notice": "gets rateConfig packed uint256 storage slot for `token_`."
      },
      "getRevenue(address)": {
        "notice": "gets the `revenueAmount_` for a `token_`."
      },
      "getRevenueCollector()": {
        "notice": "address of contract that gets sent the revenue. Configurable by governance"
      },
      "getStatus()": {
        "notice": "Liquidity contract paused status: status = 1 -> normal. status = 2 -> paused."
      },
      "getTokenRateData(address)": {
        "notice": "get the Rate config data `rateData_` for a `token_` compiled from the packed uint256 rateConfig storage slot"
      },
      "getTokensRateData(address[])": {
        "notice": "get the Rate config datas `rateDatas_` for multiple `tokens_` compiled from the packed uint256 rateConfig storage slot"
      },
      "getTotalAmounts(address)": {
        "notice": "gets totalAmounts packed uint256 storage slot for `token_`."
      },
      "getUserBorrow(address,address)": {
        "notice": "gets userBorrow data packed uint256 storage slot for `user_` and `token_`."
      },
      "getUserBorrowData(address,address)": {
        "notice": "returns `user_` borrow data and general data (such as rates, exchange prices, utilization, fee, total amounts etc.) for `token_`"
      },
      "getUserClass(address)": {
        "notice": "gets user class for `user_`. Class defines which protocols can be paused by guardians. Currently there are 2 classes: 0 can be paused by guardians. 1 cannot be paused by guardians. New protocols are added as class 0 and will be upgraded to 1 over time."
      },
      "getUserMultipleBorrowData(address,address[])": {
        "notice": "returns `user_` borrow data and general data (such as rates, exchange prices, utilization, fee, total amounts etc.) for multiple `tokens_`"
      },
      "getUserMultipleBorrowSupplyData(address,address[],address[])": {
        "notice": "returns `user_` supply data and general data (such as rates, exchange prices, utilization, fee, total amounts etc.) for multiple `supplyTokens_`     and returns `user_` borrow data and general data (such as rates, exchange prices, utilization, fee, total amounts etc.) for multiple `borrowTokens_`"
      },
      "getUserMultipleSupplyData(address,address[])": {
        "notice": "returns `user_` supply data and general data (such as rates, exchange prices, utilization, fee, total amounts etc.) for multiple `tokens_`"
      },
      "getUserSupply(address,address)": {
        "notice": "gets userSupply data packed uint256 storage slot for `user_` and `token_`."
      },
      "getUserSupplyData(address,address)": {
        "notice": "returns `user_` supply data and general data (such as rates, exchange prices, utilization, fee, total amounts etc.) for `token_`"
      },
      "isAuth(address)": {
        "notice": "checks if `auth_` is an allowed auth on Liquidity. Auths can set most config values. E.g. contracts that automate certain flows like e.g. adding a new fToken. Governance can add/remove auths. Governance is auth by default."
      },
      "isGuardian(address)": {
        "notice": "checks if `guardian_` is an allowed Guardian on Liquidity. Guardians can pause lower class users. Governance can add/remove guardians. Governance is guardian by default."
      },
      "listedTokens()": {
        "notice": "returns all `listedTokens_` at the Liquidity contract. Once configured, a token can never be removed."
      }
    },
    "notice": "Fluid Liquidity resolver Implements various view-only methods to give easy access to Liquidity data.",
    "version": 1
  },
  "storageLayout": {
    "storage": [],
    "types": null
  }
}