{
  "address": "0xf84B4f36aD0808704ee01301Eb6D965F955fae87",
  "abi": [
    {
      "inputs": [
        {
          "internalType": "address",
          "name": "liquidity_",
          "type": "address"
        },
        {
          "internalType": "address",
          "name": "vaultAdminImplementation_",
          "type": "address"
        },
        {
          "internalType": "address",
          "name": "vaultSecondaryImplementation_",
          "type": "address"
        }
      ],
      "stateMutability": "nonpayable",
      "type": "constructor"
    },
    {
      "inputs": [
        {
          "internalType": "uint256",
          "name": "colLiquidated",
          "type": "uint256"
        },
        {
          "internalType": "uint256",
          "name": "debtLiquidated",
          "type": "uint256"
        }
      ],
      "name": "FluidLiquidateResult",
      "type": "error"
    },
    {
      "inputs": [
        {
          "internalType": "uint256",
          "name": "errorId_",
          "type": "uint256"
        }
      ],
      "name": "FluidVaultError",
      "type": "error"
    },
    {
      "anonymous": false,
      "inputs": [
        {
          "indexed": true,
          "internalType": "address",
          "name": "vault",
          "type": "address"
        },
        {
          "indexed": false,
          "internalType": "uint256",
          "name": "vaultId",
          "type": "uint256"
        },
        {
          "indexed": true,
          "internalType": "address",
          "name": "supplyToken",
          "type": "address"
        },
        {
          "indexed": true,
          "internalType": "address",
          "name": "borrowToken",
          "type": "address"
        }
      ],
      "name": "VaultT1Deployed",
      "type": "event"
    },
    {
      "inputs": [],
      "name": "ADDRESS_THIS",
      "outputs": [
        {
          "internalType": "address",
          "name": "",
          "type": "address"
        }
      ],
      "stateMutability": "view",
      "type": "function"
    },
    {
      "inputs": [],
      "name": "ADMIN_IMPLEMENTATION",
      "outputs": [
        {
          "internalType": "address",
          "name": "",
          "type": "address"
        }
      ],
      "stateMutability": "view",
      "type": "function"
    },
    {
      "inputs": [],
      "name": "LIQUIDITY",
      "outputs": [
        {
          "internalType": "address",
          "name": "",
          "type": "address"
        }
      ],
      "stateMutability": "view",
      "type": "function"
    },
    {
      "inputs": [],
      "name": "SECONDARY_IMPLEMENTATION",
      "outputs": [
        {
          "internalType": "address",
          "name": "",
          "type": "address"
        }
      ],
      "stateMutability": "view",
      "type": "function"
    },
    {
      "inputs": [],
      "name": "VAULT_T1_CREATIONCODE_ADDRESS",
      "outputs": [
        {
          "internalType": "address",
          "name": "",
          "type": "address"
        }
      ],
      "stateMutability": "view",
      "type": "function"
    },
    {
      "inputs": [
        {
          "internalType": "address",
          "name": "supplyToken_",
          "type": "address"
        },
        {
          "internalType": "address",
          "name": "borrowToken_",
          "type": "address"
        }
      ],
      "name": "vaultT1",
      "outputs": [
        {
          "internalType": "bytes",
          "name": "vaultCreationBytecode_",
          "type": "bytes"
        }
      ],
      "stateMutability": "nonpayable",
      "type": "function"
    }
  ],
  "transactionHash": "0x88c921a0e777ea1179325833989f732796677c2ec90c59b7996e9d14e51751e1",
  "args": [
    "0x52Aa899454998Be5b000Ad077a46Bbe360F4e497",
    "0x8730d7a5aF435678b2686289eEB6A74A042081e6",
    "0x7726A2Da967c695531CEe326d081B72ec0F115DD"
  ],
  "numDeployments": 1,
  "solcInputHash": "6ff448bf0b904b077a435571280e696d",
  "bytecode": "0x6101206040523480156200001257600080fd5b5060405162006f6638038062006f66833981016040819052620000359162000170565b6001600160a01b0380841660a05282811660c052811660e0526040516200007d90620000646020820162000145565b601f1982820381018352601f9091011660405262000097565b6001600160a01b031660805250503061010052506200022a565b60008082604051602001620000ad9190620001ec565b6040516020818303038152906040529050600081604051602001620000d3919062000208565b60405160208183030381529060405290508051602082016000f092506001600160a01b0383166200013e5760405162461bcd60e51b81526020600482015260116024820152701111541313d65351539517d19052531151607a1b604482015260640160405180910390fd5b5050919050565b615fca8062000f9c83390190565b80516001600160a01b03811681146200016b57600080fd5b919050565b6000806000606084860312156200018657600080fd5b620001918462000153565b9250620001a16020850162000153565b9150620001b16040850162000153565b90509250925092565b6000815160005b81811015620001dd5760208185018101518683015201620001c1565b50600093019283525090919050565b600081526000620002016001830184620001ba565b9392505050565b6a600b5981380380925939f360a81b8152600062000201600b830184620001ba565b60805160a05160c05160e05161010051610d0d6200028f6000396000818161011b015261019d01526000818160cd015261032b0152600081816101420152610301015260008181607c01526102d601526000818160f4015261085e0152610d0d6000f3fe608060405234801561001057600080fd5b50600436106100725760003560e01c8063cc025f7c11610050578063cc025f7c14610116578063cc2fe94b1461013d578063f9f872f51461016457600080fd5b80632861c7d114610077578063a07ddc17146100c8578063af290973146100ef575b600080fd5b61009e7f000000000000000000000000000000000000000000000000000000000000000081565b60405173ffffffffffffffffffffffffffffffffffffffff90911681526020015b60405180910390f35b61009e7f000000000000000000000000000000000000000000000000000000000000000081565b61009e7f000000000000000000000000000000000000000000000000000000000000000081565b61009e7f000000000000000000000000000000000000000000000000000000000000000081565b61009e7f000000000000000000000000000000000000000000000000000000000000000081565b6101776101723660046109fb565b610184565b6040516100bf9190610a58565b606073ffffffffffffffffffffffffffffffffffffffff7f00000000000000000000000000000000000000000000000000000000000000001630036101fe576040517f60121cca00000000000000000000000000000000000000000000000000000000815261753760048201526024015b60405180910390fd5b8173ffffffffffffffffffffffffffffffffffffffff168373ffffffffffffffffffffffffffffffffffffffff1603610267576040517f60121cca00000000000000000000000000000000000000000000000000000000815261753360048201526024016101f5565b604080516101e081018252600060a0820181905260c0820181905260e08201819052610100820181905261012082018190526101408201819052610160820181905261018082018190526101a082018190526101c082015273ffffffffffffffffffffffffffffffffffffffff7f0000000000000000000000000000000000000000000000000000000000000000811682523060208301527f00000000000000000000000000000000000000000000000000000000000000008116928201929092527f000000000000000000000000000000000000000000000000000000000000000082166060820152908416608082018190527fffffffffffffffffffffffff1111111111111111111111111111111111111112016103885760126103f7565b8373ffffffffffffffffffffffffffffffffffffffff1663313ce5676040518163ffffffff1660e01b8152600401602060405180830381865afa1580156103d3573d6000803e3d6000fd5b505050506040513d601f19601f820116820180604052508101906103f79190610aa9565b60ff1660c082015273ffffffffffffffffffffffffffffffffffffffff831660a082018190527fffffffffffffffffffffffff11111111111111111111111111111111111111120161044a5760126104b9565b8273ffffffffffffffffffffffffffffffffffffffff1663313ce5676040518163ffffffff1660e01b8152600401602060405180830381865afa158015610495573d6000803e3d6000fd5b505050506040513d601f19601f820116820180604052508101906104b99190610aa9565b60ff1660e0820152604080517f8d65402300000000000000000000000000000000000000000000000000000000815290513091638d6540239160048083019260209291908290030181865afa158015610516573d6000803e3d6000fd5b505050506040513d601f19601f8201168201806040525081019061053a9190610ad3565b61010082018190526040517fe6bd26a2000000000000000000000000000000000000000000000000000000008152600091309163e6bd26a2916105839160040190815260200190565b602060405180830381865afa1580156105a0573d6000803e3d6000fd5b505050506040513d601f19601f820116820180604052508101906105c49190610aec565b90506108578282604080516101e081018252600080825260208083018290528284018290526060808401839052608080850184905260a0850184905260c0850184905260e08501849052610100850184905261012085018490526101408501849052610160850184905261018085018490526101a085018490526101c085019390935291860151845173ffffffffffffffffffffffffffffffffffffffff909116818301526007818601528451808203860181529201909352805192019190912061012084015260a08301516040805173ffffffffffffffffffffffffffffffffffffffff9092166020808401919091526007838301528151808403830181526060909301909152815191012061014084015260808301516040805173ffffffffffffffffffffffffffffffffffffffff9092166020808401919091526005838301528151808403830181526060909301909152815191012061016084015260a08301516040805173ffffffffffffffffffffffffffffffffffffffff909216602080840191909152600583830152815180840383018152606090930190915281519101206101808401526080808401516040805173ffffffffffffffffffffffffffffffffffffffff808716602080840191909152600883850152835180840385018152606084018552805190820120919094169482019490945260a0808201949094528151808203909401845260c001905281519101206101a084015260a0808401516040805173ffffffffffffffffffffffffffffffffffffffff808716602080840191909152600983850152835180840385018152606084018552805190820120919094166080830152818501528151808203909401845260c001905281519101206101c08401525090919050565b91506108827f000000000000000000000000000000000000000000000000000000000000000061096c565b826040516020016108939190610b09565b604080517fffffffffffffffffffffffffffffffffffffffffffffffffffffffffffffffe0818403018152908290526108cf9291602001610c6e565b60405160208183030381529060405292508373ffffffffffffffffffffffffffffffffffffffff168573ffffffffffffffffffffffffffffffffffffffff168273ffffffffffffffffffffffffffffffffffffffff167f4960ed60da9bf499a0841c5bb40e134da1b7a55ec0436c1ca8e19848e78031a385610100015160405161095b91815260200190565b60405180910390a450505b92915050565b60606109668260016109958173ffffffffffffffffffffffffffffffffffffffff84163b610c9d565b60408051603f83017fffffffffffffffffffffffffffffffffffffffffffffffffffffffffffffffe0168101909152818152818360208301863c9392505050565b73ffffffffffffffffffffffffffffffffffffffff811681146109f857600080fd5b50565b60008060408385031215610a0e57600080fd5b8235610a19816109d6565b91506020830135610a29816109d6565b809150509250929050565b60005b83811015610a4f578181015183820152602001610a37565b50506000910152565b6020815260008251806020840152610a77816040850160208701610a34565b601f017fffffffffffffffffffffffffffffffffffffffffffffffffffffffffffffffe0169190910160400192915050565b600060208284031215610abb57600080fd5b815160ff81168114610acc57600080fd5b9392505050565b600060208284031215610ae557600080fd5b5051919050565b600060208284031215610afe57600080fd5b8151610acc816109d6565b815173ffffffffffffffffffffffffffffffffffffffff1681526101e081016020830151610b4f602084018273ffffffffffffffffffffffffffffffffffffffff169052565b506040830151610b77604084018273ffffffffffffffffffffffffffffffffffffffff169052565b506060830151610b9f606084018273ffffffffffffffffffffffffffffffffffffffff169052565b506080830151610bc7608084018273ffffffffffffffffffffffffffffffffffffffff169052565b5060a0830151610bef60a084018273ffffffffffffffffffffffffffffffffffffffff169052565b5060c0830151610c0460c084018260ff169052565b5060e0830151610c1960e084018260ff169052565b50610100838101519083015261012080840151908301526101408084015190830152610160808401519083015261018080840151908301526101a080840151908301526101c092830151929091019190915290565b60008351610c80818460208801610a34565b835190830190610c94818360208801610a34565b01949350505050565b81810381811115610966577f4e487b7100000000000000000000000000000000000000000000000000000000600052601160045260246000fdfea264697066735822122038fd76c67798cf61135ca4ddf914672a527e167e582a7458c9f10442361902cf64736f6c634300081500336102606040523480156200001257600080fd5b5060405162005fca38038062005fca8339810160408190526200003591620002bc565b80516001600160a01b0390811661014081815260208401518316610160908152610100808601516101809081526080808801518716905260a0808801518716905260c08088015160ff90811690915260e0808901519091169052610120808801516101a0908152948801516101c0908152938801516101e0819052918801516102005293870151610220529186015161024052604080870151861690915260608601519094169091526000805466100000004000001781559251632d71cdb960e21b815260048101919091526001600160401b0391605b9163b5c736e490602401602060405180830381865afa15801562000134573d6000803e3d6000fd5b505050506040513d601f19601f820116820180604052508101906200015a9190620003c2565b901c16905060006001600160401b03609b610140516001600160a01b031663b5c736e4610200516040518263ffffffff1660e01b8152600401620001a091815260200190565b602060405180830381865afa158015620001be573d6000803e3d6000fd5b505050506040513d601f19601f82011682018060405250810190620001e49190620003c2565b901c16905064e8d4a5100082108062000201575064e8d4a5100081105b1562000228576040516330090e6560e11b8152617924600482015260240160405180910390fd5b60401b177ce8d4a51000000000e8d4a51000000000000000000000000000000000001760085550620003dc565b6040516101e081016001600160401b03811182821017156200028757634e487b7160e01b600052604160045260246000fd5b60405290565b80516001600160a01b0381168114620002a557600080fd5b919050565b805160ff81168114620002a557600080fd5b60006101e08284031215620002d057600080fd5b620002da62000255565b620002e5836200028d565b8152620002f5602084016200028d565b602082015262000308604084016200028d565b60408201526200031b606084016200028d565b60608201526200032e608084016200028d565b60808201526200034160a084016200028d565b60a08201526200035460c08401620002aa565b60c08201526200036760e08401620002aa565b60e0820152610100838101519082015261012080840151908201526101408084015190820152610160808401519082015261018080840151908201526101a080840151908201526101c0928301519281019290925250919050565b600060208284031215620003d557600080fd5b5051919050565b60805160a05160c05160e05161010051610120516101405161016051610180516101a0516101c0516101e051610200516102205161024051615a3862000592600039600061074c0152600081816107250152611c720152600081816106fe01526125240152600081816106d70152612442015260006106b001526000610689015260008181610458015281816106620152610c6d01526000818161010d015281816101c7015281816103830152818161054b01528181610c990152610d890152600081816104240152818161052601528181611c9801528181611dc201528181611fff0152818161211e015281816122030152818161248a0152818161255101528181613c2601528181613d4301528181613f4f0152613fff01526000818161059a01528181612977015261402f01526000818161028b01526105730152600061063b015260006106130152600081816105ea01528181610a9501528181611f610152818161203c0152818161224101528181612ab701528181613bc90152613c630152600081816105c2015281816109ef01528181611e2901528181611e6e0152818161215c0152613d6a0152615a386000f3fe6080604052600436106100d25760003560e01c8063540acabc1161007f578063ad20750111610059578063ad207501146104b8578063b5c736e4146104d8578063b7791bf2146104f7578063ebd93ac61461077d576100d2565b8063540acabc146104465780637d7c2a1c146104885780638433ea22146104a5576100d2565b8063103f2907116100b0578063103f29071461037157806322348cc7146103ca5780632861c7d114610412576100d2565b806302161887146102e9578063032d22761461032357806309f0d8cb14610351575b3480156100de57600080fd5b506040517f4502d0630000000000000000000000000000000000000000000000000000000081523360048201527f000000000000000000000000000000000000000000000000000000000000000073ffffffffffffffffffffffffffffffffffffffff1690634502d06390602401602060405180830381865afa158015610169573d6000803e3d6000fd5b505050506040513d601f19601f8201168201806040525081019061018d91906153f4565b8061024757506040517fe04c8e5d0000000000000000000000000000000000000000000000000000000081523360048201523060248201527f000000000000000000000000000000000000000000000000000000000000000073ffffffffffffffffffffffffffffffffffffffff169063e04c8e5d90604401602060405180830381865afa158015610223573d6000803e3d6000fd5b505050506040513d601f19601f8201168201806040525081019061024791906153f4565b610286576040517f60121cca00000000000000000000000000000000000000000000000000000000815261792560048201526024015b60405180910390fd5b6102e77f00000000000000000000000000000000000000000000000000000000000000006000368080601f01602080910402602001604051908101604052809392919081815260200183838082843760009201919091525061079292505050565b005b3480156102f557600080fd5b506102fe6107de565b6040805194855260208501939093529183015260608201526080015b60405180910390f35b610336610331366004615433565b6108d2565b6040805193845260208401929092529082015260600161031a565b34801561035d57600080fd5b506102fe61036c366004615474565b612417565b34801561037d57600080fd5b506103a57f000000000000000000000000000000000000000000000000000000000000000081565b60405173ffffffffffffffffffffffffffffffffffffffff909116815260200161031a565b3480156103d657600080fd5b506103ea6103e536600461548d565b6126af565b604080519586526020860194909452928401919091526060830152608082015260a00161031a565b34801561041e57600080fd5b506103a57f000000000000000000000000000000000000000000000000000000000000000081565b34801561045257600080fd5b5061047a7f000000000000000000000000000000000000000000000000000000000000000081565b60405190815260200161031a565b61049061296f565b6040805192835260208301919091520161031a565b6104906104b33660046154bf565b6129ef565b3480156104c457600080fd5b506102e76104d33660046154fe565b613f37565b3480156104e457600080fd5b5061047a6104f3366004615474565b5490565b34801561050357600080fd5b50604080516101e08101825273ffffffffffffffffffffffffffffffffffffffff7f0000000000000000000000000000000000000000000000000000000000000000811682527f0000000000000000000000000000000000000000000000000000000000000000811660208301527f00000000000000000000000000000000000000000000000000000000000000008116828401527f0000000000000000000000000000000000000000000000000000000000000000811660608301527f0000000000000000000000000000000000000000000000000000000000000000811660808301527f00000000000000000000000000000000000000000000000000000000000000001660a082015260ff7f0000000000000000000000000000000000000000000000000000000000000000811660c08301527f00000000000000000000000000000000000000000000000000000000000000001660e08201527f00000000000000000000000000000000000000000000000000000000000000006101008201527f00000000000000000000000000000000000000000000000000000000000000006101208201527f00000000000000000000000000000000000000000000000000000000000000006101408201527f00000000000000000000000000000000000000000000000000000000000000006101608201527f00000000000000000000000000000000000000000000000000000000000000006101808201527f00000000000000000000000000000000000000000000000000000000000000006101a08201527f00000000000000000000000000000000000000000000000000000000000000006101c0820152905161031a9190615587565b34801561078957600080fd5b506102e761402a565b6060600080835160208501865af43d6040519250601f19601f6020830101168301604052808352806000602085013e8115600181036107d557816000803e816000fd5b50505092915050565b6000806000806107ef600154612417565b9296509094509250905067ffffffffffffffff841180610816575067ffffffffffffffff83115b80610828575067ffffffffffffffff82115b8061083a575067ffffffffffffffff81115b15610875576040517f60121cca00000000000000000000000000000000000000000000000000000000815261792d600482015260240161027d565b604083811b8517608084901b1760c083901b17600855517fcde545703e0372175cadfff811d67c32910c3dcb33199679b3271c4106afdf9a906108c49084908490918252602082015260400190565b60405180910390a190919293565b60008054819081906001811682036108f05760018117600055610926565b6040517f60121cca000000000000000000000000000000000000000000000000000000008152617919600482015260240161027d565b86158015610932575085155b806109725750861580159061097257507fffffffffffffffffffffffffffffffffffffffffffffffffffffffffffffd8f087138015610972575061271087125b806109b2575085158015906109b257507fffffffffffffffffffffffffffffffffffffffffffffffffffffffffffffd8f0861380156109b2575061271086125b156109ed576040517f60121cca00000000000000000000000000000000000000000000000000000000815261791a600482015260240161027d565b7f000000000000000000000000000000000000000000000000000000000000000073ffffffffffffffffffffffffffffffffffffffff1673eeeeeeeeeeeeeeeeeeeeeeeeeeeeeeeeeeeeeeee148015610a465750600087135b15610a8d57348714610a88576040517f60121cca00000000000000000000000000000000000000000000000000000000815261791b600482015260240161027d565b610b26565b3415610b26577f000000000000000000000000000000000000000000000000000000000000000073ffffffffffffffffffffffffffffffffffffffff1673eeeeeeeeeeeeeeeeeeeeeeeeeeeeeeeeeeeeeeee148015610aec5750600086125b610b26576040517f60121cca00000000000000000000000000000000000000000000000000000000815261791b600482015260240161027d565b610ba6604051806102000160405280600081526020016000815260200160008152602001600081526020016000815260200160008152602001600081526020016000815260200160008152602001600081526020016000815260200160008152602001600081526020016000815260200160008152602001600081525090565b600154610100820152600282901c620fffff166000808215610bee5782600116600114610bdf576207ffff600184901c16600003610c10565b6207ffff600184901c16610c10565b7f80000000000000000000000000000000000000000000000000000000000000005b61014085015260008c9003610d42577f800000000000000000000000000000000000000000000000000000000000000060c08501526040517f94bf804d0000000000000000000000000000000000000000000000000000000081527f000000000000000000000000000000000000000000000000000000000000000060048201523360248201527f000000000000000000000000000000000000000000000000000000000000000073ffffffffffffffffffffffffffffffffffffffff16906394bf804d906044016020604051808303816000875af1158015610cf7573d6000803e3d6000fd5b505050506040513d601f19601f82011682018060405250810190610d1b91906156ec565b9b50847a040000000000000000000000000000000000000000000000000000019450610f61565b60008b1280610d51575060008a135b8015610e2257506040517f6352211e000000000000000000000000000000000000000000000000000000008152600481018d905233907f000000000000000000000000000000000000000000000000000000000000000073ffffffffffffffffffffffffffffffffffffffff1690636352211e90602401602060405180830381865afa158015610de5573d6000803e3d6000fd5b505050506040513d601f19601f82011682018060405250810190610e099190615705565b73ffffffffffffffffffffffffffffffffffffffff1614155b15610e5d576040517f60121cca00000000000000000000000000000000000000000000000000000000815261791c600482015260240161027d565b60008c8152600360205260408120549350839003610eab576040517f60121cca000000000000000000000000000000000000000000000000000000008152617923600482015260240161027d565b66ffffffffffffff603584901c811660ff602d86901c81169190911b6060870152607585901c909116606d85901c9182161b60a086015267ffffffffffffffff16915060018084169003610f24577f800000000000000000000000000000000000000000000000000000000000000060c0850152610f61565b82600216600214610f41576207ffff600284901c16600003610f4c565b6207ffff600284901c165b60c0850152601583901c62ffffff1660e08501525b7f80000000000000000000000000000000000000000000000000000000000000008460c00151131561124f57602d9290921c60ff16918215610fac5760608401516001841b01610fb5565b83606001516001015b9250606083610fca8660c0015160020b61408e565b610fd49190615751565b610fe0911c6001615768565b608085015260c084015160009081526005602052604090205492506001808416148061101857508360e0015162ffffff600185901c16115b15611140576110358460c001518560e001518660800151866126af565b6101c089015260608801919091526080870182905260c087019290925260a086015191935011156111095767ffffffffffffffff6034856101c00151901c16925060ff8316600884901c901b9250836080015183611093919061577b565b925060648310156110a357606492505b60346110b4846038600860016142f0565b6101c086015160008581526007602052604090207ffffffffffffffffffffffffffffffffffff0000000000000000fffffffffffff9091169190921b17905560a0840151608085018051919091039052611247565b83608001518460a00151600a546111209190615768565b61112a919061577b565b600a556000608085018190526060850152611247565b67ffffffffffffffff601984901c1691508160000361118f576040517f60121cca00000000000000000000000000000000000000000000000000000000815261791d600482015260240161027d565b60ff8216600883901c901b9150818460800151106111ae5760006111b6565b836080015182035b91506127108210156111fd57600091508361014001518460c00151036111ee576111e584610140015186614419565b61014086015294505b6111fd8460c0015160006145fb565b601961120e836038600860006142f0565b60c08601516000908152600560205260409020911b6301ffffff851617905560a084015160808501805161124390839061577b565b9052505b600060a08501525b60c08401516040850152606084015184526080840151602085015261010084015161127990612417565b6101a08801526101808701525061016085015260008b131561131f576101808401516112aa64e8d4a510008d615751565b6112b491906157bd565b846060018181516112c59190615768565b90525060608401516fffffffffffffffffffffffffffffffff101561131a576040517f60121cca00000000000000000000000000000000000000000000000000000000815261792f600482015260240161027d565b611476565b60008b1215611476577fffffffffffffffffffffffffffffffff800000000000000000000000000000008b13156113d25761018084015160019061136864e8d4a510008e6157d1565b611372919061581d565b61137c9190615885565b905083606001518160000311156113c3576040517f60121cca000000000000000000000000000000000000000000000000000000008152617926600482015260240161027d565b60608401805182019052611476565b7f80000000000000000000000000000000000000000000000000000000000000008b036114405764e8d4a5100084610180015185606001516114149190615751565b61141e91906157bd565b611427906158ac565b6114329060016158e4565b600060608601529a50611476565b6040517f60121cca00000000000000000000000000000000000000000000000000000000815261792f600482015260240161027d565b60008a1315611546576101a084015161149464e8d4a510008c615751565b61149e91906157bd565b6114a9906001615768565b92506127106103ff6052866101000151901c16846114c79190615751565b6114d191906157bd565b6114db9084615768565b846080018181516114ec9190615768565b90525060808401516fffffffffffffffffffffffffffffffff1015611541576040517f60121cca00000000000000000000000000000000000000000000000000000000815261792f600482015260240161027d565b611666565b60008a1215611666577fffffffffffffffffffffffffffffffff800000000000000000000000000000008a13156115fb576101a084015161158c64e8d4a510008c6157d1565b611596919061581d565b6115a19060016158e4565b905080600003905083608001518111156115eb576040517f60121cca000000000000000000000000000000000000000000000000000000008152617927600482015260240161027d565b6080840180518290039052611666565b7f80000000000000000000000000000000000000000000000000000000000000008a0361144057600164e8d4a51000856101a00151866080015161163f9190615751565b61164991906157bd565b611652906158ac565b61165c9190615885565b6000608086015299505b8a158015611672575089155b156116ad576040517f60121cca00000000000000000000000000000000000000000000000000000000815261791a600482015260240161027d565b608084015115611922576116e58460600151633b9aca008660800151633b9aca0102816116dc576116dc61578e565b0460010161466e565b60a0880152608087015260e086015260c085015260008a12156117575783602001518460a00151856080015161171b919061577b565b1115611757576040517f60121cca000000000000000000000000000000000000000000000000000000008152617934600482015260240161027d565b60008b138015611765575089155b1561180a5783516020850151611789906c0100000000000000000000000090615751565b61179391906157bd565b84606001516c010000000000000000000000008660a0015187608001516117ba919061577b565b6117c49190615751565b6117ce91906157bd565b111561180a576040517f60121cca000000000000000000000000000000000000000000000000000000008152617934600482015260240161027d565b8361014001518460c001511261191d5760008460c00151126118375760018460c00151901b600117611843565b60c084015160000360011b5b92508460021660000361188057600283901b857fffffffffffffffffffffffffffffffffffffffffffffffffffffffffffc0000016179450611949565b6001603486811c633fffffff16919091016000818152600760205260409020780fffffffc00000000000000000000000000000000000000000609089901b167afffff000000000000000000000000000000000000000000000000060c28a901b161790557ffffffffffffffffffffffffffffffffffffffffffffc00000000000000000000909616600285901b17601687901b179086901b179491505b611949565b7f800000000000000000000000000000000000000000000000000000000000000060c08501525b60008b1280611958575060008a135b15611b5c5773ffffffffffffffffffffffffffffffffffffffff891661197c573398505b608084015115611b5c576060846101000151901c73ffffffffffffffffffffffffffffffffffffffff1663e6aa216c6040518163ffffffff1660e01b8152600401602060405180830381865afa1580156119da573d6000803e3d6000fd5b505050506040513d601f19601f820116820180604052508101906119fe91906156ec565b9250836101a0015184610180015184611a179190615751565b611a2191906157bd565b92506103e86103ff6020866101000151901c1684611a3f9190615751565b611a4991906157bd565b9150722cd76fe086b93ce2f768a00b22a000000000008210611a98576c01000000000000000000000000611a896b033b2e3c9fd0803ce8000000846157bd565b611a939190615751565b611ac6565b6b033b2e3c9fd0803ce8000000611abc6c0100000000000000000000000084615751565b611ac691906157bd565b9150611ad18261484b565b5080915050808460c001511315611b5c578360c0015184604001511280611b215750633b9aca008460200151633b9aca010281611b1057611b1061578e565b046001018460a00151856080015103115b15611b5c576040517f60121cca00000000000000000000000000000000000000000000000000000000815261791e600482015260240161027d565b7f80000000000000000000000000000000000000000000000000000000000000008460c001511315611bb85760008460c0015112611ba55760018460c00151901b600117611bb1565b60c084015160000360011b5b9250611bbd565b600092505b60a0840151606d90611bd4906038600860006142f0565b6060860151911b90602d90611bee906038600860006142f0565b60e0870151911b9060151b600186901b8615611c0b576000611c0e565b60015b60ff1617171717600360008e81526020019081526020016000208190555060008b1215611db757610100840151603e1c6103ff1692508215611db7576040517fb5c736e40000000000000000000000000000000000000000000000000000000081527f000000000000000000000000000000000000000000000000000000000000000060048201527f000000000000000000000000000000000000000000000000000000000000000073ffffffffffffffffffffffffffffffffffffffff169063b5c736e490602401602060405180830381865afa158015611cf4573d6000803e3d6000fd5b505050506040513d601f19601f82011682018060405250810190611d1891906156ec565b6101e0850181905266ffffffffffffff600982901c1660ff600183901c161b9250611d439083614c53565b9050600081138015611d7c575083610160015164e8d4a510008c6000030281611d6e57611d6e61578e565b05816103e885810385020503125b15611db7576040517f60121cca000000000000000000000000000000000000000000000000000000008152617928600482015260240161027d565b60008b1315611f35577f000000000000000000000000000000000000000000000000000000000000000073ffffffffffffffffffffffffffffffffffffffff1663ad967e1573eeeeeeeeeeeeeeeeeeeeeeeeeeeeeeeeeeeeeeee73ffffffffffffffffffffffffffffffffffffffff167f000000000000000000000000000000000000000000000000000000000000000073ffffffffffffffffffffffffffffffffffffffff1614611e6a576000611e6c565b345b7f00000000000000000000000000000000000000000000000000000000000000008e600080600033604051602001611ec0919073ffffffffffffffffffffffffffffffffffffffff91909116815260200190565b6040516020818303038152906040526040518863ffffffff1660e01b8152600401611ef096959493929190615968565b604080518083038185885af1158015611f0d573d6000803e3d6000fd5b50505050506040513d601f19601f82011682018060405250810190611f3291906159c1565b50505b60008a1215612103577fffffffffffffffffffffffff11111111111111111111111111111111111111127f000000000000000000000000000000000000000000000000000000000000000073ffffffffffffffffffffffffffffffffffffffff1601611ff85789600003925082341115611fba57611fb533843403614ce5565b611ffd565b82341015611fb5576040517f60121cca00000000000000000000000000000000000000000000000000000000815261791b600482015260240161027d565b600092505b7f000000000000000000000000000000000000000000000000000000000000000073ffffffffffffffffffffffffffffffffffffffff1663ad967e15847f000000000000000000000000000000000000000000000000000000000000000060008e6000803360405160200161208e919073ffffffffffffffffffffffffffffffffffffffff91909116815260200190565b6040516020818303038152906040526040518863ffffffff1660e01b81526004016120be96959493929190615968565b604080518083038185885af11580156120db573d6000803e3d6000fd5b50505050506040513d601f19601f8201168201806040525081019061210091906159c1565b50505b60008b12156121e857604080516000808252602082019092527f000000000000000000000000000000000000000000000000000000000000000073ffffffffffffffffffffffffffffffffffffffff169163ad967e15917f0000000000000000000000000000000000000000000000000000000000000000918f918e9082906040518763ffffffff1660e01b81526004016121a396959493929190615968565b60408051808303816000875af11580156121c1573d6000803e3d6000fd5b505050506040513d601f19601f820116820180604052508101906121e591906159c1565b50505b60008a13156122ce57604080516000808252602082019092527f000000000000000000000000000000000000000000000000000000000000000073ffffffffffffffffffffffffffffffffffffffff169163ad967e15917f000000000000000000000000000000000000000000000000000000000000000091908e9082908f906040518763ffffffff1660e01b815260040161228996959493929190615968565b60408051808303816000875af11580156122a7573d6000803e3d6000fd5b505050506040513d601f19601f820116820180604052508101906122cb91906159c1565b50505b67ffffffffffffffff605286901c1692508360000151846060015160ff8516600886901c901b6122fe9190615768565b612308919061577b565b925067ffffffffffffffff609286901c16915083602001518460a001518560800151612334919061577b565b61234790600885901c60ff86161b615768565b612351919061577b565b91506092612364836038600860016142f0565b901b6052612377856038600860006142f0565b901b7ffffffffffffc00000000000000000000000000000003ffffffffffffffffffff8716171760005560408051338152602081018e90529081018c9052606081018b905273ffffffffffffffffffffffffffffffffffffffff8a1660808201527ffef64760e30a41b9d5ba7dd65ff7236a61d89ed8b44c67a29e84db1a67513a1c9060a00160405180910390a150999a98995096979650505050505050565b6008546040517fb5c736e40000000000000000000000000000000000000000000000000000000081527f000000000000000000000000000000000000000000000000000000000000000060048201526000918291829182916124fb9073ffffffffffffffffffffffffffffffffffffffff7f0000000000000000000000000000000000000000000000000000000000000000169063b5c736e4906024015b602060405180830381865afa1580156124d2573d6000803e3d6000fd5b505050506040513d601f19601f820116820180604052508101906124f691906156ec565b614d34565b506040517fb5c736e40000000000000000000000000000000000000000000000000000000081527f00000000000000000000000000000000000000000000000000000000000000006004820152909550612595907f000000000000000000000000000000000000000000000000000000000000000073ffffffffffffffffffffffffffffffffffffffff169063b5c736e4906024016124b5565b94505067ffffffffffffffff81811690604083901c16818710806125b857508086105b156125f3576040517f60121cca000000000000000000000000000000000000000000000000000000008152617932600482015260240161027d565b61271061ffff8916670de0b6b3a7640000848a670de0b6b3a7640000028161261d5761261d61578e565b0403028161262d5761262d61578e565b04945061271061ffff60108a901c16670de0b6b3a76400008389670de0b6b3a7640000028161265e5761265e61578e565b0403028161266e5761266e61578e565b049350670de0b6b3a7640000608084901c67ffffffffffffffff1686820102049450670de0b6b3a764000060c084901c858201020493505050509193509193565b600080808080868180600189901c62ffffff168b90036126f5575050601a87901c633fffffff169250603887901c6603ffffffffffff166001601989901c81161461274c565b60008c8152600660205260408120600360028e0181810660550292918491048152602081019190915260400160002054901c600181811c633fffffff169750601f82901c6603ffffffffffff169450908116149150505b6000858152600760205260409020549350801561278f577f80000000000000000000000000000000000000000000000000000000000000009b506000995061295b565b836003166002036127f9576127b182607486901c6603ffffffffffff16614f42565b915060016127c1600f6023615768565b6001901b6127cf919061577b565b82146127f95760a69390931c633fffffff166000818152600760205260409020549094509261278f565b836003166003148061282557506001612814600f6023615768565b6001901b612822919061577b565b82145b15612856577f80000000000000000000000000000000000000000000000000000000000000009b506000995061295b565b61286e8a607486901c6603ffffffffffff1684614fda565b9950606483048a111561288b5761271061270f8b02049950612890565b600099505b891561293757836004166004146128b3576207ffff600385901c166000036128be565b6207ffff600385901c165b9b5060006128ce8d60020b61408e565b905061271f612710820204633fffffff601687901c81166128ef838561577b565b6128f99190615751565b61290391906157bd565b61290d9082615768565b6129246c010000000000000000000000008e615751565b61292e91906157bd565b9750505061295b565b7f80000000000000000000000000000000000000000000000000000000000000009b505b8b8a97509750505050945094509450945094565b6000806129d37f00000000000000000000000000000000000000000000000000000000000000006000368080601f01602080910402602001604051908101604052809392919081815260200183838082843760009201919091525061079292505050565b8060200190518101906129e691906159c1565b90939092509050565b600080612a246040518060a0016040528060008152602001600081526020016000815260200160008152602001600081525090565b60008054906001821690036108f05760018117600055612710881080612a5957506fffffffffffffffffffffffffffffffff88115b15612a94576040517f60121cca00000000000000000000000000000000000000000000000000000000815261792e600482015260240161027d565b7fffffffffffffffffffffffff11111111111111111111111111111111111111127f000000000000000000000000000000000000000000000000000000000000000073ffffffffffffffffffffffffffffffffffffffff1601612b3357873414612b2e576040517f60121cca000000000000000000000000000000000000000000000000000000008152617920600482015260240161027d565b612b6f565b3415612b6f576040517f60121cca000000000000000000000000000000000000000000000000000000008152617920600482015260240161027d565b6001548252600281901c620fffff16600003612bbb576040517f60121cca00000000000000000000000000000000000000000000000000000000815261791f600482015260240161027d565b8151612bc690612417565b90919250909150836060018460800182815250828152505050612c436040518061018001604052806000815260200160008152602001600081526020016000815260200160008152602001600081526020016000815260200160008152602001600081526020016000815260200160008152602001600081525090565b612c7c6040518060c001604052806000815260200160008152602001600081526020016000815260200160008152602001600081525090565b601683901c633fffffff16808252600090815260076020908152604082205490830181905260741c6603ffffffffffff166060830181905281908103612cca576603ffffffffc00060608401525b602083015160c41c620fffff1691508115612d115781600116600114612cfc576207ffff600183901c16600003612d07565b6207ffff600183901c165b6080840152612d38565b7f800000000000000000000000000000000000000000000000000000000000000060808401525b84600416600414612d55576207ffff600386901c16600003612d60565b6207ffff600386901c165b60c08501526002851615612d75576002612d78565b60015b60ff1684610100018181525050612dc56040518060e00160405280600081526020016000815260200160008152602001600081526020016000815260200160008152602001600081525090565b60c085015181528651604080517fe6aa216c000000000000000000000000000000000000000000000000000000008152905160609290921c9163e6aa216c916004808201926020929091908290030181865afa158015612e29573d6000803e3d6000fd5b505050506040513d601f19601f82011682018060405250810190612e4d91906156ec565b92508660800151876060015184612e649190615751565b612e6e91906157bd565b9250612e9183760a70c3c40a64e6c51999090b65f67d92400000000000006157bd565b875190925061271090612eab9060481c6103ff1682615768565b612eb59084615751565b612ebf91906157bd565b6060860152722cd76fe086b93ce2f768a00b22a000000000008310612f11576c01000000000000000000000000612f026b033b2e3c9fd0803ce8000000856157bd565b612f0c9190615751565b612f3f565b6b033b2e3c9fd0803ce8000000612f356c0100000000000000000000000085615751565b612f3f91906157bd565b87519093506103e890612f5990602a1c6103ff1685615751565b612f6391906157bd565b9150612f6e8261484b565b50602088015286516103e890612f8b9060341c6103ff1685615751565b612f9591906157bd565b9150612fa08261484b565b5060408801526080870151612fba64e8d4a510008f615751565b612fc491906157bd565b855289156130595760025485516fffffffffffffffffffffffffffffffff8216945060809190911c925083111561303e57845183906130039084615751565b61300d91906157bd565b60a0860181905261301e908361577b565b855160808088018290526000885282901b94039384176002559150613059565b6000600255845183900385526080850183905260a085018290525b86602001518560c00151138015613078575086604001518560c0015113155b15613a8357845115613a83576040805160c081018252600080825260208201819052918101829052606081018290526080810182905260a081018290528190680100000000000000009060008960c00151126130e9576101008960c00151816130e3576130e361578e565b05613106565b60016101008a60c00151600101816131035761310361578e565b05035b604082015284516131169061408e565b604086015261010089015160010361314157604085015160e08a015260c08901516020820152613193565b61271f8560400151612710028161315a5761315a61578e565b046060860181905260408601518190036080870181905260208a015160161c633fffffff90811660c08901819052909102040160e08a01525b8861010001516001036132035760c0890180516000908152600560205260408082205460608c01518c5194518452919092206301fffffe8316601a9490941b9390931760389190911b1760011790915566ffffffffffffff602182901c1660ff601983901c161b97509550613226565b67ffffffffffffffff60348960200151901c16965060ff8716600888901c901b96505b86896020018181516132389190615768565b90525060e08901516132576c0100000000000000000000000089615751565b61326191906157bd565b896040018181516132729190615768565b90525060c0890151602082015114801561329157508861010001516001145b8061329e57506080810151155b156133ce5780608001516000036132c75760408082015160009081526004602052205460808201525b88610100015160010361331e57604081015160c08a015160009081036101009283020190910160608301819052608083018051821b90911c90819052900361331e5760408082015160009081526004602052908120555b60808101511561334c576001613337826080015161501f565b604083015161010002010360208201526133ce565b8a60200151816040015161010002121561338b577f800000000000000000000000000000000000000000000000000000000000000060208201526133ce565b604080820180517fffffffffffffffffffffffffffffffffffffffffffffffffffffffffffffffff0190819052600090815260046020522054608082015261331e565b806020015188608001511380156133ec57508a602001518860800151135b156134095760808801516101208a015260026101608a0152613445565b8a60200151816020015113156134315760208101516101208a015260016101608a0152613445565b60208b01516101208a015260036101608a01525b61345689610120015160020b61408e565b60408601526101608901516002036134ea5761271f856040015161271002816134815761348161578e565b046060860181905260408087015191909103608087019081526020808b015160a61c633fffffff908116600090815260079092529290205460a08b0181905260161c821660c0880181905290510260608701519190040160a086018190526101408a0152613507565b604085015160a086018190526101408a0152633fffffff60c08601525b6c010000000000000000000000008961014001518a6060015161352a9190615751565b61353491906157bd565b61354a906b033b2e3c9fd0803ce800000061577b565b8960e001518a602001518b61014001516135649190615751565b61356e91906157bd565b8a6020015161357d919061577b565b613593906b033b2e3c9fd0803ce8000000615751565b61359d91906157bd565b93506b033b2e3c9fd0803ce80000008960600151856135bc9190615751565b6135c691906157bd565b9250838960200151036135e1576135de60018561577b565b93505b8851841015806135f657508861016001516003145b1561389d5760808101516040808301516000908152600460205220558851841061371257885160608a01519094506b033b2e3c9fd0803ce80000009061363c9086615751565b61364691906157bd565b9250828960400151613658919061577b565b6c01000000000000000000000000858b60200151613676919061577b565b6136809190615751565b61368a91906157bd565b96506136958761484b565b60608701819052600191909101865261271061271f8202046040870181905281900360808701819052908803633fffffff02816136d4576136d461578e565b0460c086018190521561370557633fffffff8560c0015110156136fb578460c00151613708565b633ffffffe613708565b60015b60c0860152613725565b6101208901516001908101865260c08601525b6020890151613734858261577b565b61373e9084615751565b61374891906157bd565b9150838960800181815161375c9190615768565b90525060208901805185919061377390839061577b565b90525060a08901805184919061378a908390615768565b9052506040890180518491906137a190839061577b565b90525060608801516137b390836150d5565b60608901526020890151606411156137fb576040517f60121cca000000000000000000000000000000000000000000000000000000008152617930600482015260240161027d565b8451600013613811578451600190811b1761381a565b845160000360011b5b606089015160208b015191975060741b9060349061383d906038600860016142f0565b901b60168760c00151901b600289901b60a6808d60200151901c901b60011717171717600760008a6000015181526020019081526020016000208190555060168860000151901b600287901b6034808d901c901b60021717179950613a7e565b8851849003895260208901516138b3858261577b565b6138bd9084615751565b6138c791906157bd565b915083896080018181516138db9190615768565b9052506020890180518591906138f290839061577b565b90525060a089018051849190613909908390615768565b90525060408901805184919061392090839061577b565b905250606088015161393290836150d5565b6060890152610160890151680100000000000000009250600203613a5757633fffffff60a68960200151901c1696508760a00151955060006603ffffffffffff607488901c16905060006139938a606001518361517990919063ffffffff16565b6020808c0180518d516000908152600790935260409092207fffffffffffffffffffffffc00000000000000000000000000000000000000000909216607484901b17600217909155998b5298889052506060890181905260c487901c620fffff16978815613a2d5788600116600114613a18576207ffff60018a901c16600003613a23565b6207ffff60018a901c165b60808b0152613a54565b7f800000000000000000000000000000000000000000000000000000000000000060808b01525b50505b61012089015160c08a01526101608901516101008a015261014089015160e08a0152613193565b505050505b64e8d4a5100087608001518660800151613a9d9190615751565b613aa791906157bd565b985064e8d4a5100087606001518660a00151613ac39190615751565b613acd91906157bd565b97508c891115613af157613ae1898e6157bd565b613aeb9089615751565b97508c98505b8b89613b058a670de0b6b3a7640000615751565b613b0f91906157bd565b1015613b4b576040517f60121cca000000000000000000000000000000000000000000000000000000008152617921600482015260240161027d565b73ffffffffffffffffffffffffffffffffffffffff8b1661dead03613ba6576040517fcc36aa4400000000000000000000000000000000000000000000000000000000815260048101899052602481018a905260440161027d565b7fffffffffffffffffffffffff11111111111111111111111111111111111111127f000000000000000000000000000000000000000000000000000000000000000073ffffffffffffffffffffffffffffffffffffffff1601613c1f5788925034891015613c1a57613c1a338a3403614ce5565b613c24565b600092505b7f000000000000000000000000000000000000000000000000000000000000000073ffffffffffffffffffffffffffffffffffffffff1663ad967e15847f000000000000000000000000000000000000000000000000000000000000000060008d60000360008033604051602001613cb8919073ffffffffffffffffffffffffffffffffffffffff91909116815260200190565b6040516020818303038152906040526040518863ffffffff1660e01b8152600401613ce896959493929190615968565b604080518083038185885af1158015613d05573d6000803e3d6000fd5b50505050506040513d601f19601f82011682018060405250810190613d2a91906159c1565b505073ffffffffffffffffffffffffffffffffffffffff7f00000000000000000000000000000000000000000000000000000000000000001663ad967e157f000000000000000000000000000000000000000000000000000000000000000060008b8103908f81806040519080825280601f01601f191660200182016040528015613dbc576020820181803683370190505b506040518763ffffffff1660e01b8152600401613dde96959493929190615968565b60408051808303816000875af1158015613dfc573d6000803e3d6000fd5b505050506040513d601f19601f82011682018060405250810190613e2091906159c1565b505067ffffffffffffffff605287901c1692508460a0015160ff8416600885901c901b613e4d919061577b565b925067ffffffffffffffff609287901c169150846080015160ff8316600884901c901b613e7a919061577b565b91506092613e8d836038600860016142f0565b901b6052613ea0856038600860006142f0565b7ffffffffffffc00000000000000000000000000000003ffffffffffffffffffff8916911b171760005560408051338152602081018a90529081018a905273ffffffffffffffffffffffffffffffffffffffff8c1660608201527f80fd9cc6b1821f4a510e45ffce6852ea3404807b5d3d833ffa85664408afcb669060800160405180910390a15050505050505094509492505050565b3373ffffffffffffffffffffffffffffffffffffffff7f00000000000000000000000000000000000000000000000000000000000000001614613faa576040517f60121cca000000000000000000000000000000000000000000000000000000008152617929600482015260240161027d565b600054600116600003613fed576040517f60121cca00000000000000000000000000000000000000000000000000000000815261792a600482015260240161027d565b61402484613ffd838501856159e5565b7f000000000000000000000000000000000000000000000000000000000000000086615224565b50505050565b61408b7f00000000000000000000000000000000000000000000000000000000000000006000368080601f01602080910402602001604051908101604052809392919081815260200183838082843760009201919091525061079292505050565b50565b600060ff82901d80831803617fff8111156140a857600080fd5b70010000000000000000000000000000000060018216156140d657506fff9dd7de423466c20352b1246ce4856f5b60028216156140f5576fff3bd55f4488ad277531fa1c725a66d00260801c5b6004821615614114576ffe78410fd6498b73cb96a6917f8532590260801c5b6008821615614133576ffcf2d9987c9be178ad5bfeffaa1232730260801c5b6010821615614152576ff9ef02c4529258b057769680fc6601b30260801c5b6020821615614171576ff402d288133a85a17784a411f7aba0820260801c5b6040821615614190576fe895615b5beb6386553757b0352bda900260801c5b60808216156141af576fd34f17a00ffa00a8309940a15930391a0260801c5b6101008216156141cf576fae6b7961714e20548d88ea5123f9a0ff0260801c5b6102008216156141ef576f76d6461f27082d74e0feed3b388c0ca10260801c5b61040082161561420f576f372a3bfe0745d8b6b19d985d9a8b85bb0260801c5b61080082161561422f576f0be32cbee48979763cf7247dd7bb539d0260801c5b61100082161561424e576e8d4f70c9ff4924dac37612d1e2921e0260801c5b61200082161561426c576d4e009ae5519380809a02ca7aec770260801c5b614000821615614288576b17c45e641b6e95dee056ff100260801c5b600091507f800000000000000000000000000000000000000000000000000000000000000084166142e6577fffffffffffffffffffffffffffffffffffffffffffffffffffffffffffffffff0463ffffffff8116156142e657600191505b60201c0192915050565b600080856fffffffffffffffffffffffffffffffff8111156143135760809150811c5b67ffffffffffffffff81111561432b576040918201911c5b63ffffffff81111561433f576020918201911c5b61ffff811115614351576010918201911c5b60ff811115614362576008918201911c5b600f811115614373576004918201911c5b6003811115614384576002918201911c5b6001811115614394576001820191505b80156143a1576001820191505b50848110156143ad5750835b848103905085811c600082118416156143fc57600181019050806001871b036143fc57506001908101907fffffffffffffffffffffffffffffffffffffffffffffffffffffffffffffffff86011b5b6001851b821061440b57600080fd5b90931b909201949350505050565b601681901c633fffffff166000818152600760205260408120549091829182600160c483901c81169003614457575060c581901c6207ffff1661448f565b5060c581901c6207ffff1660008190039061448f57507f80000000000000000000000000000000000000000000000000000000000000005b600061449a886152eb565b90508082136144a957806144ab565b815b94507f800000000000000000000000000000000000000000000000000000000000000085036144fe57867fffffffffffffffffffffffffffffffffffffffffffffffffffffffffffc000011696506145ed565b80850361457457600085121561454157600385600003901b877fffffffffffffffffffffffffffffffffffffffffffffffffffffffffffc00001161796506145ed565b600385901b877fffffffffffffffffffffffffffffffffffffffffffffffffffffffffffc00001166004171796506145ed565b6000848152600760205260408120557ffffffffffffffffffffffffffffffffffffffffffffc00000000000000000001909616623ffffc60c284901c1617660fffffffc00000609084901c16177fffffffffffffffffffffffffffffffffffffffffffffffffffffffffffffffff840160341b17600217955b869550505050509250929050565b600080831261460e576101008305614619565b600161010084820105035b90506101008102830382614641576000828152600460205260409020546001821b1916614656565b6000828152600460205260409020546001821b175b60009283526004602052604090922091909155505050565b6000806000806127108510156146b4576040517f60121cca000000000000000000000000000000000000000000000000000000008152617933600482015260240161027d565b6000866146ce6c0100000000000000000000000088615751565b6146d891906157bd565b90506146e38161484b565b60019091019550905061271061271f820204905060606147038883615751565b901c9250614711868461577b565b600086815260056020526040812054600181901c62ffffff169650919350851580159061473f575060018216155b156147805766ffffffffffffff602183901c1660ff601984901c161b6147658682615768565b91508060000361477a5761477a8860016145fb565b506147d4565b85156147c0576000878152600660209081526040808320600360028b0181810486529190935292208054601986901c929093066055029190911b90911790555b8560010195508490506147d48760016145fb565b612710811015614814576040517f60121cca000000000000000000000000000000000000000000000000000000008152617931600482015260240161027d565b6019614825826038600860006142f0565b6000898152600560205260409020911b600188901b179055509497939650919450925050565b600080630235b88083107473d85bca016a2338b31715f8e13054c005f8b995d38411171561487857600080fd5b6c0100000000000000000000000083106000816148ae57506c010000000000000000000000006a52b7d2dcc80cd2e40000008502045b81156148d157507652b7d2dcc80cd2e40000000000000000000000000000008490045b6f037af932b2affa9738cc6c38ca527831811061491257614000841793506f037af932b2affa9738cc6c38ca5278316a52b7d2dcc80cd2e400000082020490505b6d010f7a088a76f267264caa114f0a811061494f57612000841793506d010f7a088a76f267264caa114f0a6a52b7d2dcc80cd2e400000082020490505b6b95da74f87f839fc2e0dc5bd9811061498857611000841793506b95da74f87f839fc2e0dc5bd96a52b7d2dcc80cd2e400000082020490505b6b06f55dedafd8491caed5a1b881106149c157610800841793506b06f55dedafd8491caed5a1b86a52b7d2dcc80cd2e400000082020490505b6b017fdd10ee11e624491b4cc181106149fa57610400841793506b017fdd10ee11e624491b4cc16a52b7d2dcc80cd2e400000082020490505b6ab23131bf0c30217b0a2c698110614a3157610200841793506ab23131bf0c30217b0a2c696a52b7d2dcc80cd2e400000082020490505b6a79683edcb9280d797aded78110614a6857610100841793506a79683edcb9280d797aded76a52b7d2dcc80cd2e400000082020490505b6a64366e2f9919f0d9b0dc908110614a9e576080841793506a64366e2f9919f0d9b0dc906a52b7d2dcc80cd2e400000082020490505b6a5b0bcda5a78850646b0a818110614ad4576040841793506a5b0bcda5a78850646b0a816a52b7d2dcc80cd2e400000082020490505b6a56c840f992c70f959ae8108110614b0a576020841793506a56c840f992c70f959ae8106a52b7d2dcc80cd2e400000082020490505b6a54b9cd178695194f9be0a08110614b40576010841793506a54b9cd178695194f9be0a06a52b7d2dcc80cd2e400000082020490505b6a53b7458aff204b5e65d6818110614b76576008841793506a53b7458aff204b5e65d6816a52b7d2dcc80cd2e400000082020490505b6a53372a2f38c240d689e4008110614bac576004841793506a53372a2f38c240d689e4006a52b7d2dcc80cd2e400000082020490505b6a52f76617a04499e66400008110614be2576002841793506a52f76617a04499e66400006a52b7d2dcc80cd2e400000082020490505b6a52d79660f3dec355c000008110614c18576001841793506a52d79660f3dec355c000006a52b7d2dcc80cd2e400000082020490505b81614c3057806a52b7d2dcc80cd2e400000086020492505b8115614c4c579219926a52d79660f3dec355c000008582020492505b5050915091565b600066ffffffffffffff604984901c1660ff604185901c161b808203614c7d576000915050614cdf565b612710613fff60a286901c168402046401ffffffff608186901c16420362ffffff60b087901c16614cae8284615751565b614cb891906157bd565b9050808311614cc8576000614ccc565b8083035b935050808403838111156107d557925050505b92915050565b600080600080600085875af1905080614d2f576040517fdee51a8a0000000000000000000000000000000000000000000000000000000081526201155a600482015260240161027d565b505050565b67ffffffffffffffff605b82901c811690609b83901c16811580614d56575080155b15614d92576040517fd50d751200000000000000000000000000000000000000000000000000000000815262011171600482015260240161027d565b61ffff8316603a84901c6401ffffffff16428181039160ea87901c617fff16911480614dbc575082155b80614dc75750806001145b15614dd457505050915091565b64496cebb80084840283020484019350617fff60db87901c16925082600103614dff57505050915091565b82600116600103614e545760019290921c91826c7e37be2022c0914b268000000081614e2d57614e2d61578e565b049250612710601e87901c613fff166b033b2e3c9fd0803ce8000000850102049250614e81565b60019290921c916305f5e100601e87901c613fff166127108501026b033b2e3c9fd0803ce8000000020492505b80600116600103614eb85760011c61271081016b033b2e3c9fd0803ce8000000820281614eb057614eb061578e565b049050614eee565b60011c61271081016b033b2e3c9fd0803ce8000000820281614edc57614edc61578e565b046b033b2e3c9fd0803ce80000000390505b760a70c3c40a64e6c51999090b65f67d92400000000000008382026127100261ffff881691900402601087901c613fff16612710030292506801b5a660ea44b8000085840283020485019450505050915091565b6000600f83811c9083901c0281681fffffffffffffffff8211614f66576022614f69565b60235b91821c919050617fff858116908516018101614000811015614f8a57600080fd5b7fffffffffffffffffffffffffffffffffffffffffffffffffffffffffffffc00001617fff811115614fc957506603ffffffffffff9250614cdf915050565b600f9290921b909117949350505050565b6000617fff83811690831603608181101561501257600f83811c821b9085901c8602816150095761500961578e565b04915050615018565b60009150505b9392505050565b6000816fffffffffffffffffffffffffffffffff8311156150415760809150811c5b67ffffffffffffffff811115615059576040918201911c5b63ffffffff81111561506d576020918201911c5b61ffff81111561507f576010918201911c5b60ff811115615090576008918201911c5b600f8111156150a1576004918201911c5b60038111156150b2576002918201911c5b60018111156150c2576001820191505b80156150cf576001820191505b50919050565b6000600f83901c8202816c03ffffffffffffffffffffffff821161511c576c01ffffffffffffffffffffffff8211615115576151108261501f565b61511f565b606261511f565b60635b7fffffffffffffffffffffffffffffffffffffffffffffffffffffffffffffffdd617fff87168201810194500191821c919050604083111561516c57604083600f84901b01039250615171565b600080fd5b505092915050565b600080600f83901c7fffffffffffffffffffffffffffffffffffffffffffffffff0000000000000000603186901b16816151b5576151b561578e565b0490506000604082901c6001146151cd5760406151d0565b60415b7fffffffffffffffffffffffffffffffffffffffffffffffffffffffffffffffdd81019290921c91617fff8581166040019250613fdd908716909101018181111561516c5703600f9190911b179050614cdf565b60006040517f23b872dd00000000000000000000000000000000000000000000000000000000815273ffffffffffffffffffffffffffffffffffffffff8516600482015273ffffffffffffffffffffffffffffffffffffffff841660248201528260448201526020600060648360008a5af13d15601f3d11600160005114161716915050806152e4576040517fdee51a8a00000000000000000000000000000000000000000000000000000000815262011559600482015260240161027d565b5050505050565b600080600080841261530157610100840561530c565b600161010085820105035b600081815260046020526040812054919350859003610100808502919091010190811b811c91505b81156153535760016153458361501f565b8461010002010393506153de565b7fffffffffffffffffffffffffffffffffffffffffffffffffffffffffffffffff8301927fffffffffffffffffffffffffffffffffffffffffffffffffffffffffffffff7f036001016153c8577f800000000000000000000000000000000000000000000000000000000000000093506153de565b6000838152600460205260409020549150615334565b505050919050565b801515811461408b57600080fd5b60006020828403121561540657600080fd5b8151615018816153e6565b73ffffffffffffffffffffffffffffffffffffffff8116811461408b57600080fd5b6000806000806080858703121561544957600080fd5b843593506020850135925060408501359150606085013561546981615411565b939692955090935050565b60006020828403121561548657600080fd5b5035919050565b600080600080608085870312156154a357600080fd5b5050823594602084013594506040840135936060013592509050565b600080600080608085870312156154d557600080fd5b843593506020850135925060408501356154ee81615411565b91506060850135615469816153e6565b6000806000806060858703121561551457600080fd5b843561551f81615411565b935060208501359250604085013567ffffffffffffffff8082111561554357600080fd5b818701915087601f83011261555757600080fd5b81358181111561556657600080fd5b88602082850101111561557857600080fd5b95989497505060200194505050565b815173ffffffffffffffffffffffffffffffffffffffff1681526101e0810160208301516155cd602084018273ffffffffffffffffffffffffffffffffffffffff169052565b5060408301516155f5604084018273ffffffffffffffffffffffffffffffffffffffff169052565b50606083015161561d606084018273ffffffffffffffffffffffffffffffffffffffff169052565b506080830151615645608084018273ffffffffffffffffffffffffffffffffffffffff169052565b5060a083015161566d60a084018273ffffffffffffffffffffffffffffffffffffffff169052565b5060c083015161568260c084018260ff169052565b5060e083015161569760e084018260ff169052565b50610100838101519083015261012080840151908301526101408084015190830152610160808401519083015261018080840151908301526101a080840151908301526101c092830151929091019190915290565b6000602082840312156156fe57600080fd5b5051919050565b60006020828403121561571757600080fd5b815161501881615411565b7f4e487b7100000000000000000000000000000000000000000000000000000000600052601160045260246000fd5b8082028115828204841417614cdf57614cdf615722565b80820180821115614cdf57614cdf615722565b81810381811115614cdf57614cdf615722565b7f4e487b7100000000000000000000000000000000000000000000000000000000600052601260045260246000fd5b6000826157cc576157cc61578e565b500490565b808202600082127f80000000000000000000000000000000000000000000000000000000000000008414161561580957615809615722565b8181058314821517614cdf57614cdf615722565b60008261582c5761582c61578e565b7fffffffffffffffffffffffffffffffffffffffffffffffffffffffffffffffff83147f80000000000000000000000000000000000000000000000000000000000000008314161561588057615880615722565b500590565b81810360008312801583831316838312821617156158a5576158a5615722565b5092915050565b60007f800000000000000000000000000000000000000000000000000000000000000082036158dd576158dd615722565b5060000390565b808201828112600083128015821682158216171561517157615171615722565b6000815180845260005b8181101561592a5760208185018101518683018201520161590e565b5060006020828601015260207fffffffffffffffffffffffffffffffffffffffffffffffffffffffffffffffe0601f83011685010191505092915050565b600073ffffffffffffffffffffffffffffffffffffffff8089168352876020840152866040840152808616606084015280851660808401525060c060a08301526159b560c0830184615904565b98975050505050505050565b600080604083850312156159d457600080fd5b505080516020909101519092909150565b6000602082840312156159f757600080fd5b81356150188161541156fea26469706673582212206c370907ba93f170c42afd52cfe22d5e27cee574099cec882c0e32804d5bb6b464736f6c63430008150033",
  "devdoc": {
    "events": {
      "VaultT1Deployed(address,uint256,address,address)": {
        "params": {
          "borrowToken": "The address of the borrow token.",
          "supplyToken": "The address of the supply token.",
          "vault": "The address of the newly deployed vault.",
          "vaultId": "The id of the newly deployed vault."
        }
      }
    },
    "kind": "dev",
    "methods": {
      "vaultT1(address,address)": {
        "params": {
          "borrowToken_": "The address of the borrow token.",
          "supplyToken_": "The address of the supply token."
        },
        "returns": {
          "vaultCreationBytecode_": " Returns the bytecode of the new vault to deploy."
        }
      }
    },
    "version": 1
  },
  "userdoc": {
    "errors": {
      "FluidLiquidateResult(uint256,uint256)": [
        {
          "notice": "used to simulate liquidation to find the maximum liquidatable amounts"
        }
      ]
    },
    "events": {
      "VaultT1Deployed(address,uint256,address,address)": {
        "notice": "Emitted when a new vaultT1 is deployed."
      }
    },
    "kind": "user",
    "methods": {
      "ADDRESS_THIS()": {
        "notice": "address of this contract"
      },
      "ADMIN_IMPLEMENTATION()": {
        "notice": "address of Admin implementation"
      },
      "LIQUIDITY()": {
        "notice": "address of liquidity contract"
      },
      "SECONDARY_IMPLEMENTATION()": {
        "notice": "address of Secondary implementation"
      },
      "VAULT_T1_CREATIONCODE_ADDRESS()": {
        "notice": "SSTORE2 pointer for the VaultT1 creation code. Stored externally to reduce factory bytecode"
      },
      "vaultT1(address,address)": {
        "notice": "Computes vaultT1 bytecode for the given supply token (`supplyToken_`) and borrow token (`borrowToken_`).                                 This will be called by the VaultFactory via .delegateCall"
      }
    },
    "version": 1
  },
  "storageLayout": {
    "storage": [],
    "types": null
  }
}