{
  "address": "0xfB45BC79e01b4e92706412A54e011db251104C74",
  "abi": [
    {
      "inputs": [
        {
          "internalType": "uint256",
          "name": "errorId_",
          "type": "uint256"
        }
      ],
      "name": "FluidLiquidityCalcsError",
      "type": "error"
    },
    {
      "inputs": [
        {
          "internalType": "uint256",
          "name": "errorId_",
          "type": "uint256"
        }
      ],
      "name": "FluidLiquidityError",
      "type": "error"
    },
    {
      "anonymous": false,
      "inputs": [],
      "name": "BorrowRateMaxCap",
      "type": "event"
    },
    {
      "anonymous": false,
      "inputs": [
        {
          "indexed": true,
          "internalType": "address",
          "name": "user",
          "type": "address"
        },
        {
          "indexed": true,
          "internalType": "address",
          "name": "token",
          "type": "address"
        },
        {
          "indexed": false,
          "internalType": "int256",
          "name": "supplyAmount",
          "type": "int256"
        },
        {
          "indexed": false,
          "internalType": "int256",
          "name": "borrowAmount",
          "type": "int256"
        },
        {
          "indexed": false,
          "internalType": "address",
          "name": "withdrawTo",
          "type": "address"
        },
        {
          "indexed": false,
          "internalType": "address",
          "name": "borrowTo",
          "type": "address"
        },
        {
          "indexed": false,
          "internalType": "uint256",
          "name": "totalAmounts",
          "type": "uint256"
        },
        {
          "indexed": false,
          "internalType": "uint256",
          "name": "exchangePricesAndConfig",
          "type": "uint256"
        }
      ],
      "name": "LogOperate",
      "type": "event"
    },
    {
      "inputs": [
        {
          "internalType": "address",
          "name": "token_",
          "type": "address"
        },
        {
          "internalType": "int256",
          "name": "supplyAmount_",
          "type": "int256"
        },
        {
          "internalType": "int256",
          "name": "borrowAmount_",
          "type": "int256"
        },
        {
          "internalType": "address",
          "name": "withdrawTo_",
          "type": "address"
        },
        {
          "internalType": "address",
          "name": "borrowTo_",
          "type": "address"
        },
        {
          "internalType": "bytes",
          "name": "callbackData_",
          "type": "bytes"
        }
      ],
      "name": "operate",
      "outputs": [
        {
          "internalType": "uint256",
          "name": "memVar3_",
          "type": "uint256"
        },
        {
          "internalType": "uint256",
          "name": "memVar4_",
          "type": "uint256"
        }
      ],
      "stateMutability": "payable",
      "type": "function"
    }
  ],
  "transactionHash": "0x1b3d45d41a742b11930525575a3ba944c4c04adcd0d14a4961aee233c75242bd",
  "args": [],
  "numDeployments": 1,
  "solcInputHash": "d4fa359f3002cd44062d748848196ced",
  "bytecode": "0x608060405234801561001057600080fd5b50600180556128db806100246000396000f3fe60806040526004361061001e5760003560e01c8063ad967e1514610023575b600080fd5b610036610031366004612515565b61004f565b6040805192835260208301919091520160405180910390f35b600080600260ff166001540361009a576040517fdcab82e2000000000000000000000000000000000000000000000000000000008152612ee160048201526024015b60405180910390fd5b6002600155871580156100ab575086155b156100e6576040517fdcab82e2000000000000000000000000000000000000000000000000000000008152612afd6004820152602401610091565b7fffffffffffffffffffffffffffffffff8000000000000000000000000000000088128061012357506f7fffffffffffffffffffffffffffffff88135b8061014d57507fffffffffffffffffffffffffffffffff8000000000000000000000000000000087125b8061016757506f7fffffffffffffffffffffffffffffff87135b156101a2576040517fdcab82e2000000000000000000000000000000000000000000000000000000008152612afe6004820152602401610091565b6000881280156101c6575073ffffffffffffffffffffffffffffffffffffffff8616155b806101f057506000871380156101f0575073ffffffffffffffffffffffffffffffffffffffff8516155b1561022b576040517fdcab82e2000000000000000000000000000000000000000000000000000000008152612b006004820152602401610091565b73ffffffffffffffffffffffffffffffffffffffff891673eeeeeeeeeeeeeeeeeeeeeeeeeeeeeeeeeeeeeeee148015906102655750600034115b156102a0576040517fdcab82e2000000000000000000000000000000000000000000000000000000008152612b026004820152602401610091565b6102f160405180610120016040528060001515815260200160008152602001600081526020016000815260200160008152602001600081526020016000815260200160008152602001600081525090565b60008060008a1261030357600061030c565b61030c8a6125fc565b60008c1361031b57600061031d565b8b5b6103279190612634565b9050898b148015610336575034155b801561037f575061037f8b8a8a8a8a8080601f0160208091040260200160405190810160405280939291908181526020018383808284376000920191909152506112c792505050565b1561038c57506001825260005b7fffffffffffffffffffffffff111111111111111111111111111111111111111273ffffffffffffffffffffffffffffffffffffffff8d160161041b57348111806103dc5750633b9aca00810134115b15610417576040517fdcab82e2000000000000000000000000000000000000000000000000000000008152612b016004820152602401610091565b5060005b801561060d576040517f70a0823100000000000000000000000000000000000000000000000000000000815230600482015273ffffffffffffffffffffffffffffffffffffffff8d16906370a0823190602401602060405180830381865afa15801561048b573d6000803e3d6000fd5b505050506040513d601f19601f820116820180604052508101906104af9190612647565b6040517fad207501000000000000000000000000000000000000000000000000000000008152909250339063ad207501906104f4908f9085908c908c90600401612660565b600060405180830381600087803b15801561050e57600080fd5b505af1158015610522573d6000803e3d6000fd5b50506040517f70a0823100000000000000000000000000000000000000000000000000000000815230600482015284925073ffffffffffffffffffffffffffffffffffffffff8f1691506370a0823190602401602060405180830381865afa158015610592573d6000803e3d6000fd5b505050506040513d601f19601f820116820180604052508101906105b69190612647565b6105c091906126d1565b9150808210806105d2575080600a0182115b1561060d576040517fdcab82e2000000000000000000000000000000000000000000000000000000008152612b016004820152602401610091565b73ffffffffffffffffffffffffffffffffffffffff8c166000908152600560205260409020546101008401819052610644906113aa565b60408086019190915260208086019290925273ffffffffffffffffffffffffffffffffffffffff8e1660009081526007909252908190205460e0850181905266ffffffffffffff600882901c811660ff8084169190911b6060880152604883901c82169383901c81169390931b608080880191909152608883901c9091169082901c83161b60a086015260c881901c60c091821c9283161b9085015291508a156108c05760008360e0015190506000806107038f8f88602001516115b8565b915091508060000361079c57600082131561073257818660600181815161072a9190612634565b905250610755565b8160000386606001511161074757600061074f565b606086015182015b60608701525b606086015161076990603860086000611871565b60e0870180517fffffffffffffffffffffffffffffffffffffffffffffffff00000000000000001682179052945061087b565b60008113156107bf5780866080018181516107b79190612634565b9052506107e2565b806000038660800151116107d45760006107dc565b608086015181015b60808701525b60808601516f7fffffffffffffffffffffffffffffff1015610834576040517fdcab82e2000000000000000000000000000000000000000000000000000000008152612b066004820152602401610091565b608086015161084890603860086000611871565b60e0870180517fffffffffffffffffffffffffffffffff0000000000000000ffffffffffffffff16604083901b17905294505b8560e0015183036108bc576040517fdcab82e2000000000000000000000000000000000000000000000000000000008152612aff6004820152602401610091565b5050505b8915610a9a5760008360e0015190506000806108e18f8e886040015161199a565b915091508060000361097e57600082131561091057818660a0018181516109089190612634565b905250610933565b816000038660a001511161092557600061092d565b60a086015182015b60a08701525b60a086015161094790603860086001611871565b60e0870180517fffffffffffffffff0000000000000000ffffffffffffffffffffffffffffffff16608083901b1790529450610a55565b60008113156109a157808660c0018181516109999190612634565b9052506109c4565b806000038660c00151116109b65760006109be565b60c086015181015b60c08701525b60c08601516f7fffffffffffffffffffffffffffffff1015610a16576040517fdcab82e2000000000000000000000000000000000000000000000000000000008152612b076004820152602401610091565b60c0860151610a2a90603860086001611871565b60e08701805177ffffffffffffffffffffffffffffffffffffffffffffffff1660c083901b17905294505b8560e001518303610a96576040517fdcab82e2000000000000000000000000000000000000000000000000000000008152612aff6004820152602401610091565b5050505b60e083015173ffffffffffffffffffffffffffffffffffffffff8d16600090815260076020908152604090912091909155830151606084015164e8d4a5100091610ae3916126e4565b610aed919061272a565b94506f7fffffffffffffffffffffffffffffff85118015610b0e575060008b135b15610b49576040517fdcab82e2000000000000000000000000000000000000000000000000000000008152612b066004820152602401610091565b848360800151610b599190612634565b91508260800151851115610b8f576001856127108560800151610b7c91906126e4565b610b86919061272a565b901b9450610bd1565b8260800151851015610bc5576080830151600190610baf612710886126e4565b610bb9919061272a565b901b6001179450610bd1565b8115610bd157614e2094505b64e8d4a5100083604001518460a00151610beb91906126e4565b610bf5919061272a565b93506f7fffffffffffffffffffffffffffffff84118015610c16575060008a135b15610c51576040517fdcab82e2000000000000000000000000000000000000000000000000000000008152612b076004820152602401610091565b838360c00151610c619190612634565b90508260c00151841115610c97576001846127108560c00151610c8491906126e4565b610c8e919061272a565b901b9350610cd9565b8260c00151841015610ccd5760c0830151600190610cb7612710876126e4565b610cc1919061272a565b901b6001179350610cd9565b8015610cd957614e2093505b60008215610d465782610cee612710846126e4565b610cf8919061272a565b905061271081118015610d0b575060008b135b15610d46576040517fdcab82e2000000000000000000000000000000000000000000000000000000008152612b036004820152602401610091565b610100840151603a1c6401ffffffff166201518001421115610d6b5760019250610d70565b600092505b82600003610e9457613fff601e856101000151901c169250613fff602c856101000151901c16915081838211610da857818403610dac565b8382035b11610db8576000610dbb565b60015b60ff16925082600003610e9457617fff60db856101000151901c169250856001168360011603610e2557600183901c92508183600188901c11610e0457600187901c8403610e0c565b83600188901c035b11610e18576000610e1b565b60015b60ff169250610e2a565b600192505b82600003610e9457617fff60ea856101000151901c169250846001168360011603610e8f57600183901c92508183600187901c11610e6e57600186901c8403610e76565b83600187901c035b11610e82576000610e85565b60015b60ff169250610e94565b600192505b8260010361101c5773ffffffffffffffffffffffffffffffffffffffff8d16600090815260066020526040902054610ecc9082611c42565b925067ffffffffffffffff84602001511180610ef3575067ffffffffffffffff8460400151115b15610f2e576040517fdcab82e2000000000000000000000000000000000000000000000000000000008152612b046004820152602401610091565b613fff811115610f6e576040517fdcab82e2000000000000000000000000000000000000000000000000000000008152612b056004820152602401610091565b60ea85901b60db87901b609b8660400151901b605b8760200151901b603a42901b601e86901b888a61010001517ffe000000000000000000000000000000000000000000000003fff0003fff0000161717171717171784610100018181525050836101000151600560008f73ffffffffffffffffffffffffffffffffffffffff1673ffffffffffffffffffffffffffffffffffffffff16815260200190815260200160002081905550611063565b609b8460400151901b605b8560200151901b8561010001517ffffffffffc00000000000000000000000000000007ffffffffffffffffffffff161717846101000181815250505b5060008b1280611073575060008a135b801561107e57508251155b156112275760008a13611092576000611094565b895b905060008b12156110aa578a60000391506110af565b600091505b6000821180156110bf5750600081115b80156110f657508773ffffffffffffffffffffffffffffffffffffffff168973ffffffffffffffffffffffffffffffffffffffff16145b1561117c577fffffffffffffffffffffffff111111111111111111111111111111111111111273ffffffffffffffffffffffffffffffffffffffff8d16016111505761114b896111468385612634565b611ceb565b611227565b61114b8961115e8385612634565b73ffffffffffffffffffffffffffffffffffffffff8f169190611e4a565b7fffffffffffffffffffffffff111111111111111111111111111111111111111273ffffffffffffffffffffffffffffffffffffffff8d16016111d95781156111c9576111c98983611ceb565b801561114b5761114b8882611ceb565b81156112005761120073ffffffffffffffffffffffffffffffffffffffff8d168a84611e4a565b80156112275761122773ffffffffffffffffffffffffffffffffffffffff8d168983611e4a565b60e0830151610100840151604080518e8152602081018e905273ffffffffffffffffffffffffffffffffffffffff8d8116828401528c81166060830152608082019490945260a081019290925251918e169133917f4d93b232a24e82b284ced7461bf4deacffe66759d5c24513e6f29e571ad78d15919081900360c00190a35050602081015160409091015160018055909a909950975050505050505050565b60006014825110156112db575060006113a2565b815182015160008613801561131b57508373ffffffffffffffffffffffffffffffffffffffff168173ffffffffffffffffffffffffffffffffffffffff16145b801561133c575073ffffffffffffffffffffffffffffffffffffffff811633145b8061139e575060008612801561137d57508473ffffffffffffffffffffffffffffffffffffffff168173ffffffffffffffffffffffffffffffffffffffff16145b801561139e575073ffffffffffffffffffffffffffffffffffffffff811633145b9150505b949350505050565b67ffffffffffffffff605b82901c811690609b83901c168115806113cc575080155b15611408576040517fd50d7512000000000000000000000000000000000000000000000000000000008152620111716004820152602401610091565b61ffff8316603a84901c6401ffffffff16428181039160ea87901c617fff16911480611432575082155b8061143d5750806001145b1561144a57505050915091565b64496cebb80084840283020484019350617fff60db87901c1692508260010361147557505050915091565b826001166001036114ca5760019290921c91826c7e37be2022c0914b2680000000816114a3576114a36126fb565b049250612710601e87901c613fff166b033b2e3c9fd0803ce80000008501020492506114f7565b60019290921c916305f5e100601e87901c613fff166127108501026b033b2e3c9fd0803ce8000000020492505b8060011660010361152e5760011c61271081016b033b2e3c9fd0803ce8000000820281611526576115266126fb565b049050611564565b60011c61271081016b033b2e3c9fd0803ce8000000820281611552576115526126fb565b046b033b2e3c9fd0803ce80000000390505b760a70c3c40a64e6c51999090b65f67d92400000000000008382026127100261ffff881691900402601087901c613fff16612710030292506801b5a660ea44b8000085840283020485019450505050915091565b33600090815260086020908152604080832073ffffffffffffffffffffffffffffffffffffffff871684529091528120548190808203611628576040517fdcab82e2000000000000000000000000000000000000000000000000000000008152612af96004820152602401610091565b60ff81901c60010361166a576040517fdcab82e2000000000000000000000000000000000000000000000000000000008152612afa6004820152602401610091565b66ffffffffffffff600982901c1660ff600183901c161b600061168d8383611ed7565b9050826001166001036117065760008713156116d057856116b364e8d4a510008961273e565b6116bd919061278a565b94506116c98583612634565b9150611732565b6116e86116dc886125fc565b64e8d4a5100088611f6c565b6116f1906125fc565b94506116fc856125fc565b6116c990836126d1565b869350600084131561171c576116c98483612634565b611725846125fc565b61172f90836126d1565b91505b60008712801561174157508082105b1561177c576040517fdcab82e2000000000000000000000000000000000000000000000000000000008152612afb6004820152602401610091565b611787838383611fb0565b905061179882603860086000611871565b91508167ffffffffffffffff600185901c16036117e5576040517fdcab82e2000000000000000000000000000000000000000000000000000000008152612aff6004820152602401610091565b6117f481603860086000611871565b33600090815260086020908152604080832073ffffffffffffffffffffffffffffffffffffffff9c909c1683529a9052989098207ffffffffffffffffffffffffc000000000000000000000000000000000000000190931660019290921b9190911760419790971b969096174260811b1790559094909350915050565b600080856fffffffffffffffffffffffffffffffff8111156118945760809150811c5b67ffffffffffffffff8111156118ac576040918201911c5b63ffffffff8111156118c0576020918201911c5b61ffff8111156118d2576010918201911c5b60ff8111156118e3576008918201911c5b600f8111156118f4576004918201911c5b6003811115611905576002918201911c5b6001811115611915576001820191505b8015611922576001820191505b508481101561192e5750835b848103905085811c6000821184161561197d57600181019050806001871b0361197d57506001908101907fffffffffffffffffffffffffffffffffffffffffffffffffffffffffffffffff86011b5b6001851b821061198c57600080fd5b90931b909201949350505050565b33600090815260096020908152604080832073ffffffffffffffffffffffffffffffffffffffff871684529091528120548190808203611a0a576040517fdcab82e2000000000000000000000000000000000000000000000000000000008152612af96004820152602401610091565b60ff81901c600103611a4c576040517fdcab82e2000000000000000000000000000000000000000000000000000000008152612afa6004820152602401610091565b66ffffffffffffff600982901c1660ff600183901c161b6000611a6f8383612003565b905082600116600103611ad7576000871315611aa857611a958764e8d4a5100088611f6c565b9450611aa18583612634565b9150611b03565b85611ab864e8d4a510008961273e565b611ac2919061278a565b9450611acd856125fc565b611aa190836126d1565b8693506000841315611aed57611aa18483612634565b611af6846125fc565b611b0090836126d1565b91505b600087138015611b1257508082115b15611b4d576040517fdcab82e2000000000000000000000000000000000000000000000000000000008152612afc6004820152602401610091565b611b588383836120bb565b9050611b6982603860086001611871565b91508167ffffffffffffffff600185901c1603611bb6576040517fdcab82e2000000000000000000000000000000000000000000000000000000008152612aff6004820152602401610091565b611bc581603860086000611871565b33600090815260096020908152604080832073ffffffffffffffffffffffffffffffffffffffff9c909c1683529a9052989098207ffffffffffffffffffffffffc000000000000000000000000000000000000000190931660019290921b9190911760419790971b969096174260811b1790559094909350915050565b6000600f83166001819003611c6257611c5b848461211a565b9150611cab565b80600203611c7457611c5b84846121c7565b6040517fd50d7512000000000000000000000000000000000000000000000000000000008152620111726004820152602401610091565b61ffff821115611ce45760405161ffff92507fe41708b2641eb1f7442f6a1e760ae5098fd7ba9f85e0c101513add0fbb27bcd790600090a15b5092915050565b80471015611d55576040517f08c379a000000000000000000000000000000000000000000000000000000000815260206004820152601d60248201527f416464726573733a20696e73756666696369656e742062616c616e63650000006044820152606401610091565b60008273ffffffffffffffffffffffffffffffffffffffff168260405160006040518083038185875af1925050503d8060008114611daf576040519150601f19603f3d011682016040523d82523d6000602084013e611db4565b606091505b5050905080611e45576040517f08c379a000000000000000000000000000000000000000000000000000000000815260206004820152603a60248201527f416464726573733a20756e61626c6520746f2073656e642076616c75652c207260448201527f6563697069656e74206d617920686176652072657665727465640000000000006064820152608401610091565b505050565b6040805173ffffffffffffffffffffffffffffffffffffffff8416602482015260448082018490528251808303909101815260649091019091526020810180517bffffffffffffffffffffffffffffffffffffffffffffffffffffffff167fa9059cbb00000000000000000000000000000000000000000000000000000000179052611e4590849061226f565b600066ffffffffffffff604984901c1660ff604185901c161b808203611f01576000915050611f66565b612710613fff60a286901c168402046401ffffffff608186901c16420362ffffff60b087901c16611f3282846126e4565b611f3c919061272a565b9050808311611f4c576000611f50565b8083035b93505080840383811115611f62578093505b5050505b92915050565b6000827fffffffffffffffffffffffffffffffffffffffffffffffffffffffffffffffff0484118302158202611fa157600080fd5b50910281810615159190040190565b60006103ff60d085901c1660ff60c886901c161b80841015611fd6576000915050611ffc565b50612710613fff60a286901c16840204830382811115611ff7579050611ffc565b829150505b9392505050565b60d082901c6103ff1660c883901c60ff161b613fff60a284901c16612710838202048084018381101561203857505050611f66565b608186901c6401ffffffff164203925066ffffffffffffff604987901c1660ff604188901c161b60b087901c62ffffff1661207385856126e4565b61207d919061272a565b6120879190612634565b935080841115612095578093505b6103ff60e287901c1660ff60da88901c161b925082841115611f62575090949350505050565b612710613fff60a285901c16830204820160d084901c6103ff1660c885901c60ff161b808210156120ed579050611ffc565b506103ff60e285901c1660ff60da86901c161b8082111561210c578091505b81831115611ff75750611ffc565b600080808080601487901c61ffff16808710156121535761ffff600489901c16945061ffff602489901c16935060009250809150612172565b61ffff602489901c16945061ffff603489901c16935080925061271091505b60008084840364e8d4a51000888803028161218f5761218f6126fb565b04905084810264e8d4a51000880203915064e8d4a51000828a830201816121b8576121b86126fb565b049a9950505050505050505050565b600080808080601487901c61ffff16808710156122005761ffff600489901c16945061ffff602489901c16935060009250809150612172565b603488901c61ffff16808810156122325761ffff60248a901c16955061ffff60448a901c169450819350809250612251565b61ffff60448a901c16955061ffff60548a901c16945080935061271092505b5060008084840364e8d4a51000888803028161218f5761218f6126fb565b60006122d1826040518060400160405280602081526020017f5361666545524332303a206c6f772d6c6576656c2063616c6c206661696c65648152508573ffffffffffffffffffffffffffffffffffffffff1661237b9092919063ffffffff16565b805190915015611e4557808060200190518101906122ef91906127f2565b611e45576040517f08c379a000000000000000000000000000000000000000000000000000000000815260206004820152602a60248201527f5361666545524332303a204552433230206f7065726174696f6e20646964206e60448201527f6f742073756363656564000000000000000000000000000000000000000000006064820152608401610091565b60606113a28484600085856000808673ffffffffffffffffffffffffffffffffffffffff1685876040516123af9190612838565b60006040518083038185875af1925050503d80600081146123ec576040519150601f19603f3d011682016040523d82523d6000602084013e6123f1565b606091505b50915091506124028783838761240d565b979650505050505050565b606083156124a357825160000361249c5773ffffffffffffffffffffffffffffffffffffffff85163b61249c576040517f08c379a000000000000000000000000000000000000000000000000000000000815260206004820152601d60248201527f416464726573733a2063616c6c20746f206e6f6e2d636f6e74726163740000006044820152606401610091565b50816113a2565b6113a283838151156124b85781518083602001fd5b806040517f08c379a00000000000000000000000000000000000000000000000000000000081526004016100919190612854565b803573ffffffffffffffffffffffffffffffffffffffff8116811461251057600080fd5b919050565b600080600080600080600060c0888a03121561253057600080fd5b612539886124ec565b96506020880135955060408801359450612555606089016124ec565b9350612563608089016124ec565b925060a088013567ffffffffffffffff8082111561258057600080fd5b818a0191508a601f83011261259457600080fd5b8135818111156125a357600080fd5b8b60208285010111156125b557600080fd5b60208301945080935050505092959891949750929550565b7f4e487b7100000000000000000000000000000000000000000000000000000000600052601160045260246000fd5b60007f8000000000000000000000000000000000000000000000000000000000000000820361262d5761262d6125cd565b5060000390565b80820180821115611f6657611f666125cd565b60006020828403121561265957600080fd5b5051919050565b73ffffffffffffffffffffffffffffffffffffffff8516815283602082015260606040820152816060820152818360808301376000818301608090810191909152601f9092017fffffffffffffffffffffffffffffffffffffffffffffffffffffffffffffffe01601019392505050565b81810381811115611f6657611f666125cd565b8082028115828204841417611f6657611f666125cd565b7f4e487b7100000000000000000000000000000000000000000000000000000000600052601260045260246000fd5b600082612739576127396126fb565b500490565b808202600082127f800000000000000000000000000000000000000000000000000000000000000084141615612776576127766125cd565b8181058314821517611f6657611f666125cd565b600082612799576127996126fb565b7fffffffffffffffffffffffffffffffffffffffffffffffffffffffffffffffff83147f8000000000000000000000000000000000000000000000000000000000000000831416156127ed576127ed6125cd565b500590565b60006020828403121561280457600080fd5b81518015158114611ffc57600080fd5b60005b8381101561282f578181015183820152602001612817565b50506000910152565b6000825161284a818460208701612814565b9190910192915050565b6020815260008251806020840152612873816040850160208701612814565b601f017fffffffffffffffffffffffffffffffffffffffffffffffffffffffffffffffe016919091016040019291505056fea2646970667358221220917f36c284cba90847c35a224fb5c01c3fa43418fd24aeaf8de8904db1bb887c64736f6c63430008150033",
  "devdoc": {
    "details": "For view methods / accessing data, use the \"LiquidityResolver\" periphery contract.",
    "events": {
      "LogOperate(address,address,int256,int256,address,address,uint256,uint256)": {
        "params": {
          "borrowAmount": "borrow amount for the operation. if >0 then a borrow happened, if <0 then a payback happened.                     if 0 then nothing.",
          "borrowTo": "address that funds where borrowed to (if borrowAmount >0)",
          "exchangePricesAndConfig": "updated exchange prices and configs storage slot. Contains updated supply & borrow exchange price: First 16 bits =>   0- 15 => borrow rate (in 1e2: 100% = 10_000; 1% = 100 -> max value 65535) Next  14 bits =>  16- 29 => fee on interest from borrowers to lenders (in 1e2: 100% = 10_000; 1% = 100 -> max value 16_383). configurable. Next  14 bits =>  30- 43 => last stored utilization (in 1e2: 100% = 10_000; 1% = 100 -> max value 16_383) Next  14 bits =>  44- 57 => update on storage threshold (in 1e2: 100% = 10_000; 1% = 100 -> max value 16_383). configurable. Next  33 bits =>  58- 90 => last update timestamp (enough until 16 March 2242 -> max value 8589934591) Next  64 bits =>  91-154 => supply exchange price (1e12 -> max value 18_446_744,073709551615) Next  64 bits => 155-218 => borrow exchange price (1e12 -> max value 18_446_744,073709551615) Next   1 bit  => 219-219 => if 0 then ratio is supplyInterestFree / supplyWithInterest else ratio is supplyWithInterest / supplyInterestFree Next  14 bits => 220-233 => supplyRatio: supplyInterestFree / supplyWithInterest (in 1e2: 100% = 10_000; 1% = 100 -> max value 16_383) Next   1 bit  => 234-234 => if 0 then ratio is borrowInterestFree / borrowWithInterest else ratio is borrowWithInterest / borrowInterestFree Next  14 bits => 235-248 => borrowRatio: borrowInterestFree / borrowWithInterest (in 1e2: 100% = 10_000; 1% = 100 -> max value 16_383)",
          "supplyAmount": "supply amount for the operation. if >0 then a deposit happened, if <0 then a withdrawal happened.                     if 0 then nothing.",
          "token": "token address for which this operation was executed",
          "totalAmounts": "updated total amounts, stacked uint256 as written to storage: First  64 bits =>   0- 63 => total supply with interest in raw (totalSupply = totalSupplyRaw * supplyExchangePrice); BigMath: 56 | 8 Next   64 bits =>  64-127 => total interest free supply in normal token amount (totalSupply = totalSupply); BigMath: 56 | 8 Next   64 bits => 128-191 => total borrow with interest in raw (totalBorrow = totalBorrowRaw * borrowExchangePrice); BigMath: 56 | 8 Next   64 bits => 192-255 => total interest free borrow in normal token amount (totalBorrow = totalBorrow); BigMath: 56 | 8",
          "user": "protocol that triggered this operation (e.g. via an fToken or via Vault protocol)",
          "withdrawTo": "address that funds where withdrawn to (if supplyAmount <0)"
        }
      }
    },
    "kind": "dev",
    "methods": {},
    "title": "Fluid Liquidity UserModule",
    "version": 1
  },
  "userdoc": {
    "events": {
      "BorrowRateMaxCap()": {
        "notice": "emitted if the calculated borrow rate surpassed max borrow rate (16 bits) and was capped at maximum value 65535"
      },
      "LogOperate(address,address,int256,int256,address,address,uint256,uint256)": {
        "notice": "emitted on any `operate()` execution: deposit / supply / withdraw / borrow. includes info related to the executed operation, new total amounts (packed uint256 of BigMath numbers as in storage) and exchange prices (packed uint256 as in storage)."
      }
    },
    "kind": "user",
    "methods": {
      "operate(address,int256,int256,address,address,bytes)": {
        "notice": "inheritdoc IFluidLiquidity"
      }
    },
    "notice": "Fluid Liquidity public facing endpoint logic contract that implements the `operate()` method.         operate can be used to deposit, withdraw, borrow & payback funds, given that they have the necessary         user config allowance. Interacting users must be allowed via the Fluid Liquidity AdminModule first.         Intended users are thus allow-listed protocols, e.g. the Lending protocol (fTokens), Vault protocol etc.",
    "version": 1
  },
  "storageLayout": {
    "storage": [
      {
        "astId": 13396,
        "contract": "contracts/liquidity/userModule/main.sol:FluidLiquidityUserModule",
        "label": "_revenueCollector",
        "offset": 0,
        "slot": "0",
        "type": "t_address"
      },
      {
        "astId": 13399,
        "contract": "contracts/liquidity/userModule/main.sol:FluidLiquidityUserModule",
        "label": "_status",
        "offset": 0,
        "slot": "1",
        "type": "t_uint256"
      },
      {
        "astId": 13404,
        "contract": "contracts/liquidity/userModule/main.sol:FluidLiquidityUserModule",
        "label": "_isAuth",
        "offset": 0,
        "slot": "2",
        "type": "t_mapping(t_address,t_uint256)"
      },
      {
        "astId": 13409,
        "contract": "contracts/liquidity/userModule/main.sol:FluidLiquidityUserModule",
        "label": "_isGuardian",
        "offset": 0,
        "slot": "3",
        "type": "t_mapping(t_address,t_uint256)"
      },
      {
        "astId": 13414,
        "contract": "contracts/liquidity/userModule/main.sol:FluidLiquidityUserModule",
        "label": "_userClass",
        "offset": 0,
        "slot": "4",
        "type": "t_mapping(t_address,t_uint256)"
      },
      {
        "astId": 13419,
        "contract": "contracts/liquidity/userModule/main.sol:FluidLiquidityUserModule",
        "label": "_exchangePricesAndConfig",
        "offset": 0,
        "slot": "5",
        "type": "t_mapping(t_address,t_uint256)"
      },
      {
        "astId": 13424,
        "contract": "contracts/liquidity/userModule/main.sol:FluidLiquidityUserModule",
        "label": "_rateData",
        "offset": 0,
        "slot": "6",
        "type": "t_mapping(t_address,t_uint256)"
      },
      {
        "astId": 13429,
        "contract": "contracts/liquidity/userModule/main.sol:FluidLiquidityUserModule",
        "label": "_totalAmounts",
        "offset": 0,
        "slot": "7",
        "type": "t_mapping(t_address,t_uint256)"
      },
      {
        "astId": 13436,
        "contract": "contracts/liquidity/userModule/main.sol:FluidLiquidityUserModule",
        "label": "_userSupplyData",
        "offset": 0,
        "slot": "8",
        "type": "t_mapping(t_address,t_mapping(t_address,t_uint256))"
      },
      {
        "astId": 13443,
        "contract": "contracts/liquidity/userModule/main.sol:FluidLiquidityUserModule",
        "label": "_userBorrowData",
        "offset": 0,
        "slot": "9",
        "type": "t_mapping(t_address,t_mapping(t_address,t_uint256))"
      },
      {
        "astId": 13447,
        "contract": "contracts/liquidity/userModule/main.sol:FluidLiquidityUserModule",
        "label": "_listedTokens",
        "offset": 0,
        "slot": "10",
        "type": "t_array(t_address)dyn_storage"
      }
    ],
    "types": {
      "t_address": {
        "encoding": "inplace",
        "label": "address",
        "numberOfBytes": "20"
      },
      "t_array(t_address)dyn_storage": {
        "base": "t_address",
        "encoding": "dynamic_array",
        "label": "address[]",
        "numberOfBytes": "32"
      },
      "t_mapping(t_address,t_mapping(t_address,t_uint256))": {
        "encoding": "mapping",
        "key": "t_address",
        "label": "mapping(address => mapping(address => uint256))",
        "numberOfBytes": "32",
        "value": "t_mapping(t_address,t_uint256)"
      },
      "t_mapping(t_address,t_uint256)": {
        "encoding": "mapping",
        "key": "t_address",
        "label": "mapping(address => uint256)",
        "numberOfBytes": "32",
        "value": "t_uint256"
      },
      "t_uint256": {
        "encoding": "inplace",
        "label": "uint256",
        "numberOfBytes": "32"
      }
    }
  }
}