{
  "address": "0xfE1CBE632855e279601EaAF58D3cB552271BfDF5",
  "abi": [
    {
      "inputs": [
        {
          "internalType": "address",
          "name": "factory_",
          "type": "address"
        }
      ],
      "stateMutability": "nonpayable",
      "type": "constructor"
    },
    {
      "inputs": [],
      "name": "FACTORY",
      "outputs": [
        {
          "internalType": "contract IFluidDexFactory",
          "name": "",
          "type": "address"
        }
      ],
      "stateMutability": "view",
      "type": "function"
    },
    {
      "inputs": [
        {
          "internalType": "address",
          "name": "dex_",
          "type": "address"
        },
        {
          "internalType": "bool",
          "name": "swap0to1_",
          "type": "bool"
        },
        {
          "internalType": "uint256",
          "name": "amountIn_",
          "type": "uint256"
        },
        {
          "internalType": "uint256",
          "name": "amountOutMin_",
          "type": "uint256"
        }
      ],
      "name": "estimateSwapIn",
      "outputs": [
        {
          "internalType": "uint256",
          "name": "amountOut_",
          "type": "uint256"
        }
      ],
      "stateMutability": "payable",
      "type": "function"
    },
    {
      "inputs": [
        {
          "internalType": "address",
          "name": "dex_",
          "type": "address"
        },
        {
          "internalType": "bool",
          "name": "swap0to1_",
          "type": "bool"
        },
        {
          "internalType": "uint256",
          "name": "amountOut_",
          "type": "uint256"
        },
        {
          "internalType": "uint256",
          "name": "amountInMax_",
          "type": "uint256"
        }
      ],
      "name": "estimateSwapOut",
      "outputs": [
        {
          "internalType": "uint256",
          "name": "amountIn_",
          "type": "uint256"
        }
      ],
      "stateMutability": "payable",
      "type": "function"
    },
    {
      "inputs": [],
      "name": "getAllPoolAddresses",
      "outputs": [
        {
          "internalType": "address[]",
          "name": "pools_",
          "type": "address[]"
        }
      ],
      "stateMutability": "view",
      "type": "function"
    },
    {
      "inputs": [],
      "name": "getAllPools",
      "outputs": [
        {
          "components": [
            {
              "internalType": "address",
              "name": "pool",
              "type": "address"
            },
            {
              "internalType": "address",
              "name": "token0_",
              "type": "address"
            },
            {
              "internalType": "address",
              "name": "token1_",
              "type": "address"
            }
          ],
          "internalType": "struct Structs.Pool[]",
          "name": "pools_",
          "type": "tuple[]"
        }
      ],
      "stateMutability": "view",
      "type": "function"
    },
    {
      "inputs": [],
      "name": "getAllPoolsReserves",
      "outputs": [
        {
          "components": [
            {
              "internalType": "address",
              "name": "pool",
              "type": "address"
            },
            {
              "internalType": "address",
              "name": "token0_",
              "type": "address"
            },
            {
              "internalType": "address",
              "name": "token1_",
              "type": "address"
            },
            {
              "components": [
                {
                  "internalType": "uint256",
                  "name": "token0RealReserves",
                  "type": "uint256"
                },
                {
                  "internalType": "uint256",
                  "name": "token1RealReserves",
                  "type": "uint256"
                },
                {
                  "internalType": "uint256",
                  "name": "token0ImaginaryReserves",
                  "type": "uint256"
                },
                {
                  "internalType": "uint256",
                  "name": "token1ImaginaryReserves",
                  "type": "uint256"
                }
              ],
              "internalType": "struct IFluidDexT1.CollateralReserves",
              "name": "collateralReserves",
              "type": "tuple"
            },
            {
              "components": [
                {
                  "internalType": "uint256",
                  "name": "token0Debt",
                  "type": "uint256"
                },
                {
                  "internalType": "uint256",
                  "name": "token1Debt",
                  "type": "uint256"
                },
                {
                  "internalType": "uint256",
                  "name": "token0RealReserves",
                  "type": "uint256"
                },
                {
                  "internalType": "uint256",
                  "name": "token1RealReserves",
                  "type": "uint256"
                },
                {
                  "internalType": "uint256",
                  "name": "token0ImaginaryReserves",
                  "type": "uint256"
                },
                {
                  "internalType": "uint256",
                  "name": "token1ImaginaryReserves",
                  "type": "uint256"
                }
              ],
              "internalType": "struct IFluidDexT1.DebtReserves",
              "name": "debtReserves",
              "type": "tuple"
            }
          ],
          "internalType": "struct Structs.PoolWithReserves[]",
          "name": "poolsReserves_",
          "type": "tuple[]"
        }
      ],
      "stateMutability": "nonpayable",
      "type": "function"
    },
    {
      "inputs": [
        {
          "internalType": "address",
          "name": "dex_",
          "type": "address"
        }
      ],
      "name": "getDexCollateralReserves",
      "outputs": [
        {
          "components": [
            {
              "internalType": "uint256",
              "name": "token0RealReserves",
              "type": "uint256"
            },
            {
              "internalType": "uint256",
              "name": "token1RealReserves",
              "type": "uint256"
            },
            {
              "internalType": "uint256",
              "name": "token0ImaginaryReserves",
              "type": "uint256"
            },
            {
              "internalType": "uint256",
              "name": "token1ImaginaryReserves",
              "type": "uint256"
            }
          ],
          "internalType": "struct IFluidDexT1.CollateralReserves",
          "name": "reserves_",
          "type": "tuple"
        }
      ],
      "stateMutability": "nonpayable",
      "type": "function"
    },
    {
      "inputs": [
        {
          "internalType": "address",
          "name": "dex_",
          "type": "address"
        }
      ],
      "name": "getDexDebtReserves",
      "outputs": [
        {
          "components": [
            {
              "internalType": "uint256",
              "name": "token0Debt",
              "type": "uint256"
            },
            {
              "internalType": "uint256",
              "name": "token1Debt",
              "type": "uint256"
            },
            {
              "internalType": "uint256",
              "name": "token0RealReserves",
              "type": "uint256"
            },
            {
              "internalType": "uint256",
              "name": "token1RealReserves",
              "type": "uint256"
            },
            {
              "internalType": "uint256",
              "name": "token0ImaginaryReserves",
              "type": "uint256"
            },
            {
              "internalType": "uint256",
              "name": "token1ImaginaryReserves",
              "type": "uint256"
            }
          ],
          "internalType": "struct IFluidDexT1.DebtReserves",
          "name": "reserves_",
          "type": "tuple"
        }
      ],
      "stateMutability": "nonpayable",
      "type": "function"
    },
    {
      "inputs": [
        {
          "internalType": "address",
          "name": "dex_",
          "type": "address"
        }
      ],
      "name": "getDexPricesAndExchangePrices",
      "outputs": [
        {
          "components": [
            {
              "internalType": "uint256",
              "name": "lastStoredPrice",
              "type": "uint256"
            },
            {
              "internalType": "uint256",
              "name": "centerPrice",
              "type": "uint256"
            },
            {
              "internalType": "uint256",
              "name": "upperRange",
              "type": "uint256"
            },
            {
              "internalType": "uint256",
              "name": "lowerRange",
              "type": "uint256"
            },
            {
              "internalType": "uint256",
              "name": "geometricMean",
              "type": "uint256"
            },
            {
              "internalType": "uint256",
              "name": "supplyToken0ExchangePrice",
              "type": "uint256"
            },
            {
              "internalType": "uint256",
              "name": "borrowToken0ExchangePrice",
              "type": "uint256"
            },
            {
              "internalType": "uint256",
              "name": "supplyToken1ExchangePrice",
              "type": "uint256"
            },
            {
              "internalType": "uint256",
              "name": "borrowToken1ExchangePrice",
              "type": "uint256"
            }
          ],
          "internalType": "struct IFluidDexT1.PricesAndExchangePrice",
          "name": "pex_",
          "type": "tuple"
        }
      ],
      "stateMutability": "nonpayable",
      "type": "function"
    },
    {
      "inputs": [
        {
          "internalType": "uint256",
          "name": "poolId_",
          "type": "uint256"
        }
      ],
      "name": "getPool",
      "outputs": [
        {
          "components": [
            {
              "internalType": "address",
              "name": "pool",
              "type": "address"
            },
            {
              "internalType": "address",
              "name": "token0_",
              "type": "address"
            },
            {
              "internalType": "address",
              "name": "token1_",
              "type": "address"
            }
          ],
          "internalType": "struct Structs.Pool",
          "name": "pool_",
          "type": "tuple"
        }
      ],
      "stateMutability": "view",
      "type": "function"
    },
    {
      "inputs": [
        {
          "internalType": "uint256",
          "name": "poolId_",
          "type": "uint256"
        }
      ],
      "name": "getPoolAddress",
      "outputs": [
        {
          "internalType": "address",
          "name": "pool_",
          "type": "address"
        }
      ],
      "stateMutability": "view",
      "type": "function"
    },
    {
      "inputs": [
        {
          "internalType": "address",
          "name": "pool_",
          "type": "address"
        }
      ],
      "name": "getPoolConstantsView",
      "outputs": [
        {
          "components": [
            {
              "internalType": "uint256",
              "name": "dexId",
              "type": "uint256"
            },
            {
              "internalType": "address",
              "name": "liquidity",
              "type": "address"
            },
            {
              "internalType": "address",
              "name": "factory",
              "type": "address"
            },
            {
              "components": [
                {
                  "internalType": "address",
                  "name": "shift",
                  "type": "address"
                },
                {
                  "internalType": "address",
                  "name": "admin",
                  "type": "address"
                },
                {
                  "internalType": "address",
                  "name": "colOperations",
                  "type": "address"
                },
                {
                  "internalType": "address",
                  "name": "debtOperations",
                  "type": "address"
                },
                {
                  "internalType": "address",
                  "name": "perfectOperationsAndOracle",
                  "type": "address"
                }
              ],
              "internalType": "struct IFluidDexT1.Implementations",
              "name": "implementations",
              "type": "tuple"
            },
            {
              "internalType": "address",
              "name": "deployerContract",
              "type": "address"
            },
            {
              "internalType": "address",
              "name": "token0",
              "type": "address"
            },
            {
              "internalType": "address",
              "name": "token1",
              "type": "address"
            },
            {
              "internalType": "bytes32",
              "name": "supplyToken0Slot",
              "type": "bytes32"
            },
            {
              "internalType": "bytes32",
              "name": "borrowToken0Slot",
              "type": "bytes32"
            },
            {
              "internalType": "bytes32",
              "name": "supplyToken1Slot",
              "type": "bytes32"
            },
            {
              "internalType": "bytes32",
              "name": "borrowToken1Slot",
              "type": "bytes32"
            },
            {
              "internalType": "bytes32",
              "name": "exchangePriceToken0Slot",
              "type": "bytes32"
            },
            {
              "internalType": "bytes32",
              "name": "exchangePriceToken1Slot",
              "type": "bytes32"
            },
            {
              "internalType": "uint256",
              "name": "oracleMapping",
              "type": "uint256"
            }
          ],
          "internalType": "struct IFluidDexT1.ConstantViews",
          "name": "constantsView_",
          "type": "tuple"
        }
      ],
      "stateMutability": "view",
      "type": "function"
    },
    {
      "inputs": [
        {
          "internalType": "address",
          "name": "pool_",
          "type": "address"
        }
      ],
      "name": "getPoolConstantsView2",
      "outputs": [
        {
          "components": [
            {
              "internalType": "uint256",
              "name": "token0NumeratorPrecision",
              "type": "uint256"
            },
            {
              "internalType": "uint256",
              "name": "token0DenominatorPrecision",
              "type": "uint256"
            },
            {
              "internalType": "uint256",
              "name": "token1NumeratorPrecision",
              "type": "uint256"
            },
            {
              "internalType": "uint256",
              "name": "token1DenominatorPrecision",
              "type": "uint256"
            }
          ],
          "internalType": "struct IFluidDexT1.ConstantViews2",
          "name": "constantsView2_",
          "type": "tuple"
        }
      ],
      "stateMutability": "view",
      "type": "function"
    },
    {
      "inputs": [
        {
          "internalType": "address",
          "name": "pool_",
          "type": "address"
        }
      ],
      "name": "getPoolReserves",
      "outputs": [
        {
          "components": [
            {
              "internalType": "address",
              "name": "pool",
              "type": "address"
            },
            {
              "internalType": "address",
              "name": "token0_",
              "type": "address"
            },
            {
              "internalType": "address",
              "name": "token1_",
              "type": "address"
            },
            {
              "components": [
                {
                  "internalType": "uint256",
                  "name": "token0RealReserves",
                  "type": "uint256"
                },
                {
                  "internalType": "uint256",
                  "name": "token1RealReserves",
                  "type": "uint256"
                },
                {
                  "internalType": "uint256",
                  "name": "token0ImaginaryReserves",
                  "type": "uint256"
                },
                {
                  "internalType": "uint256",
                  "name": "token1ImaginaryReserves",
                  "type": "uint256"
                }
              ],
              "internalType": "struct IFluidDexT1.CollateralReserves",
              "name": "collateralReserves",
              "type": "tuple"
            },
            {
              "components": [
                {
                  "internalType": "uint256",
                  "name": "token0Debt",
                  "type": "uint256"
                },
                {
                  "internalType": "uint256",
                  "name": "token1Debt",
                  "type": "uint256"
                },
                {
                  "internalType": "uint256",
                  "name": "token0RealReserves",
                  "type": "uint256"
                },
                {
                  "internalType": "uint256",
                  "name": "token1RealReserves",
                  "type": "uint256"
                },
                {
                  "internalType": "uint256",
                  "name": "token0ImaginaryReserves",
                  "type": "uint256"
                },
                {
                  "internalType": "uint256",
                  "name": "token1ImaginaryReserves",
                  "type": "uint256"
                }
              ],
              "internalType": "struct IFluidDexT1.DebtReserves",
              "name": "debtReserves",
              "type": "tuple"
            }
          ],
          "internalType": "struct Structs.PoolWithReserves",
          "name": "poolReserves_",
          "type": "tuple"
        }
      ],
      "stateMutability": "nonpayable",
      "type": "function"
    },
    {
      "inputs": [
        {
          "internalType": "address",
          "name": "pool_",
          "type": "address"
        }
      ],
      "name": "getPoolTokens",
      "outputs": [
        {
          "internalType": "address",
          "name": "token0_",
          "type": "address"
        },
        {
          "internalType": "address",
          "name": "token1_",
          "type": "address"
        }
      ],
      "stateMutability": "view",
      "type": "function"
    },
    {
      "inputs": [
        {
          "internalType": "address[]",
          "name": "pools_",
          "type": "address[]"
        }
      ],
      "name": "getPoolsReserves",
      "outputs": [
        {
          "components": [
            {
              "internalType": "address",
              "name": "pool",
              "type": "address"
            },
            {
              "internalType": "address",
              "name": "token0_",
              "type": "address"
            },
            {
              "internalType": "address",
              "name": "token1_",
              "type": "address"
            },
            {
              "components": [
                {
                  "internalType": "uint256",
                  "name": "token0RealReserves",
                  "type": "uint256"
                },
                {
                  "internalType": "uint256",
                  "name": "token1RealReserves",
                  "type": "uint256"
                },
                {
                  "internalType": "uint256",
                  "name": "token0ImaginaryReserves",
                  "type": "uint256"
                },
                {
                  "internalType": "uint256",
                  "name": "token1ImaginaryReserves",
                  "type": "uint256"
                }
              ],
              "internalType": "struct IFluidDexT1.CollateralReserves",
              "name": "collateralReserves",
              "type": "tuple"
            },
            {
              "components": [
                {
                  "internalType": "uint256",
                  "name": "token0Debt",
                  "type": "uint256"
                },
                {
                  "internalType": "uint256",
                  "name": "token1Debt",
                  "type": "uint256"
                },
                {
                  "internalType": "uint256",
                  "name": "token0RealReserves",
                  "type": "uint256"
                },
                {
                  "internalType": "uint256",
                  "name": "token1RealReserves",
                  "type": "uint256"
                },
                {
                  "internalType": "uint256",
                  "name": "token0ImaginaryReserves",
                  "type": "uint256"
                },
                {
                  "internalType": "uint256",
                  "name": "token1ImaginaryReserves",
                  "type": "uint256"
                }
              ],
              "internalType": "struct IFluidDexT1.DebtReserves",
              "name": "debtReserves",
              "type": "tuple"
            }
          ],
          "internalType": "struct Structs.PoolWithReserves[]",
          "name": "poolsReserves_",
          "type": "tuple[]"
        }
      ],
      "stateMutability": "nonpayable",
      "type": "function"
    },
    {
      "inputs": [],
      "name": "getTotalPools",
      "outputs": [
        {
          "internalType": "uint256",
          "name": "",
          "type": "uint256"
        }
      ],
      "stateMutability": "view",
      "type": "function"
    }
  ],
  "transactionHash": "0x2dcf6745fdb1d32a884ec8e4aa7007e6f749a5f3111ecb979ec331add60fb297",
  "args": [
    "0x93DD426446B5370F094a1e31f19991AAA6Ac0bE0"
  ],
  "numDeployments": 2,
  "solcInputHash": "c9202e70634b5da796ab11d7427507e3",
  "bytecode": "0x60a060405234801561001057600080fd5b506040516200254c3803806200254c83398101604081905261003191610042565b6001600160a01b0316608052610072565b60006020828403121561005457600080fd5b81516001600160a01b038116811461006b57600080fd5b9392505050565b6080516124b06200009c600039600081816102280152818161044101526111f901526124b06000f3fe60806040526004361061010d5760003560e01c806355181f11116100a5578063bb39e3a111610074578063ca4f280311610059578063ca4f2803146103b6578063d3ffe67a14610403578063d88ff1f41461041857600080fd5b8063bb39e3a114610381578063c56f1b441461039457600080fd5b806355181f11146102f25780636e38c0231461031f578063957755e614610341578063a59737631461036157600080fd5b80633973a11b116100e15780633973a11b1461024a5780633ec841e41461027757806342571137146102a45780634bee9395146102c557600080fd5b8062a5ae2114610112578063015f6cfa1461015c578063068bcd8d146101e95780632dd3100014610216575b600080fd5b34801561011e57600080fd5b5061013261012d366004611a6c565b61043a565b60405173ffffffffffffffffffffffffffffffffffffffff90911681526020015b60405180910390f35b34801561016857600080fd5b5061017c610177366004611aaa565b61046c565b6040516101539190600061012082019050825182526020830151602083015260408301516040830152606083015160608301526080830151608083015260a083015160a083015260c083015160c083015260e083015160e083015261010080840151818401525092915050565b3480156101f557600080fd5b50610209610204366004611a6c565b6105cc565b6040516101539190611ace565b34801561022257600080fd5b506101327f000000000000000000000000000000000000000000000000000000000000000081565b34801561025657600080fd5b5061026a610265366004611aaa565b61063e565b6040516101539190611b0b565b34801561028357600080fd5b50610297610292366004611aaa565b61074b565b6040516101539190611c9d565b6102b76102b2366004611cc8565b6107e5565b604051908152602001610153565b3480156102d157600080fd5b506102e56102e0366004611aaa565b610919565b6040516101539190611dc0565b3480156102fe57600080fd5b5061031261030d366004611aaa565b610992565b6040516101539190611dcf565b34801561032b57600080fd5b50610334610ca5565b6040516101539190611e12565b34801561034d57600080fd5b5061029761035c366004611aaa565b610cb7565b34801561036d57600080fd5b5061033461037c366004611f2d565b610f8b565b6102b761038f366004611cc8565b611041565b3480156103a057600080fd5b506103a96110b0565b6040516101539190611fdf565b3480156103c257600080fd5b506103d66103d1366004611aaa565b61116a565b6040805173ffffffffffffffffffffffffffffffffffffffff938416815292909116602083015201610153565b34801561040f57600080fd5b506102b76111f5565b34801561042457600080fd5b5061042d611286565b604051610153919061202d565b60006104667f000000000000000000000000000000000000000000000000000000000000000083611362565b92915050565b6104bb6040518061012001604052806000815260200160008152602001600081526020016000815260200160008152602001600081526020016000815260200160008152602001600081525090565b8173ffffffffffffffffffffffffffffffffffffffff1663916cef4e6040518163ffffffff1660e01b8152600401600060405180830381600087803b15801561050357600080fd5b505af1925050508015610514575060015b6105c7573d808015610542576040519150601f19603f3d011682016040523d82523d6000602084013e610547565b606091505b5060208101517fdc4022c5000000000000000000000000000000000000000000000000000000007fffffffff000000000000000000000000000000000000000000000000000000008216016105c4576105ae8260048085516105a991906120cd565b6117cc565b8060200190518101906105c191906120e0565b92505b50505b919050565b60408051606081018252600080825260208201819052918101829052906105f28361043a565b90506000806106008361116a565b6040805160608101825273ffffffffffffffffffffffffffffffffffffffff9687168152928616602084015294169381019390935250909392505050565b6106db604080516101c08101825260008082526020808301829052828401829052835160a08101855282815290810182905292830181905260608381018290526080840191909152909190820190815260006020820181905260408201819052606082018190526080820181905260a0820181905260c0820181905260e08201819052610100820181905261012082018190526101409091015290565b8173ffffffffffffffffffffffffffffffffffffffff1663b7791bf26040518163ffffffff1660e01b815260040161024060405180830381865afa158015610727573d6000803e3d6000fd5b505050506040513d601f19601f820116820180604052508101906104669190612204565b6107766040518060800160405280600081526020016000815260200160008152602001600081525090565b8173ffffffffffffffffffffffffffffffffffffffff16631595cbd36040518163ffffffff1660e01b8152600401608060405180830381865afa1580156107c1573d6000803e3d6000fd5b505050506040513d601f19601f820116820180604052508101906104669190612351565b6040517f286f0e610000000000000000000000000000000000000000000000000000000081528315156004820152602481018390526044810182905261dead606482015260009073ffffffffffffffffffffffffffffffffffffffff86169063286f0e619034906084015b60206040518083038185885af1935050505080156108a9575060408051601f3d9081017fffffffffffffffffffffffffffffffffffffffffffffffffffffffffffffffe01682019092526108a69181019061236d565b60015b61090f573d8080156108d7576040519150601f19603f3d011682016040523d82523d6000602084013e6108dc565b606091505b50610907817fb3bfda9900000000000000000000000000000000000000000000000000000000611948565b915050610911565b505b949350505050565b61092161199c565b60008061092d8461116a565b91509150600061093c85610cb7565b9050600061094986610992565b6040805160a08101825273ffffffffffffffffffffffffffffffffffffffff98891681529588166020870152939096169284019290925260608301525060808101929092525090565b6109cb6040518060c001604052806000815260200160008152602001600081526020016000815260200160008152602001600081525090565b6040517fb5c736e40000000000000000000000000000000000000000000000000000000081526001600482015260009073ffffffffffffffffffffffffffffffffffffffff84169063b5c736e490602401602060405180830381865afa158015610a39573d6000803e3d6000fd5b505050506040513d601f19601f82011682018060405250810190610a5d919061236d565b905080600216600214610aa5576040518060c0016040528060008152602001600081526020016000815260200160008152602001600081526020016000815250915050919050565b6040517f015f6cfa00000000000000000000000000000000000000000000000000000000815273ffffffffffffffffffffffffffffffffffffffff84166004820152309063015f6cfa90602401610120604051808303816000875af1925050508015610b4c575060408051601f3d9081017fffffffffffffffffffffffffffffffffffffffffffffffffffffffffffffffe0168201909252610b49918101906120e0565b60015b610b8a576040518060c00160405280600081526020016000815260200160008152602001600081526020016000815260200160008152509150610c9f565b6080810151604080830151606084015160c085015161010086015193517f05d455a90000000000000000000000000000000000000000000000000000000081526004810195909552602485019290925260448401526064830152608482015273ffffffffffffffffffffffffffffffffffffffff8516906305d455a99060a40160c060405180830381865afa925050508015610c61575060408051601f3d9081017fffffffffffffffffffffffffffffffffffffffffffffffffffffffffffffffe0168201909252610c5e91810190612386565b60015b6105c1576040518060c001604052806000815260200160008152602001600081526020016000815260200160008152602001600081525092506105c4565b50919050565b6060610cb261037c6110b0565b905090565b610ce26040518060800160405280600081526020016000815260200160008152602001600081525090565b6040517fb5c736e40000000000000000000000000000000000000000000000000000000081526001600482015260009073ffffffffffffffffffffffffffffffffffffffff84169063b5c736e490602401602060405180830381865afa158015610d50573d6000803e3d6000fd5b505050506040513d601f19601f82011682018060405250810190610d74919061236d565b905080600116600114610dae5760405180608001604052806000815260200160008152602001600081526020016000815250915050919050565b6040517f015f6cfa00000000000000000000000000000000000000000000000000000000815273ffffffffffffffffffffffffffffffffffffffff84166004820152309063015f6cfa90602401610120604051808303816000875af1925050508015610e55575060408051601f3d9081017fffffffffffffffffffffffffffffffffffffffffffffffffffffffffffffffe0168201909252610e52918101906120e0565b60015b610e8557604051806080016040528060008152602001600081526020016000815260200160008152509150610c9f565b6080810151604080830151606084015160a085015160e086015193517f6560abaa0000000000000000000000000000000000000000000000000000000081526004810195909552602485019290925260448401526064830152608482015273ffffffffffffffffffffffffffffffffffffffff851690636560abaa9060a401608060405180830381865afa925050508015610f5b575060408051601f3d9081017fffffffffffffffffffffffffffffffffffffffffffffffffffffffffffffffe0168201909252610f5891810190612351565b60015b6105c1576040518060800160405280600081526020016000815260200160008152602001600081525092506105c4565b6060815167ffffffffffffffff811115610fa757610fa7611e61565b604051908082528060200260200182016040528015610fe057816020015b610fcd61199c565b815260200190600190039081610fc55790505b50905060005b8251811015610c9f5761101183828151811061100457611004612400565b6020026020010151610919565b82828151811061102357611023612400565b602002602001018190525080806110399061242f565b915050610fe6565b6040517f2668dfaa0000000000000000000000000000000000000000000000000000000081528315156004820152602481018390526044810182905261dead606482015260009073ffffffffffffffffffffffffffffffffffffffff861690632668dfaa903490608401610850565b606060006110bc6111f5565b90508067ffffffffffffffff8111156110d7576110d7611e61565b604051908082528060200260200182016040528015611100578160200160208202803683370190505b50915060005b818110156111655761111c61012d826001612467565b83828151811061112e5761112e612400565b73ffffffffffffffffffffffffffffffffffffffff909216602092830291909101909101528061115d8161242f565b915050611106565b505090565b60008060008373ffffffffffffffffffffffffffffffffffffffff1663b7791bf26040518163ffffffff1660e01b815260040161024060405180830381865afa1580156111bb573d6000803e3d6000fd5b505050506040513d601f19601f820116820180604052508101906111df9190612204565b90508060a001518160c001519250925050915091565b60007f000000000000000000000000000000000000000000000000000000000000000073ffffffffffffffffffffffffffffffffffffffff166393656c176040518163ffffffff1660e01b8152600401602060405180830381865afa158015611262573d6000803e3d6000fd5b505050506040513d601f19601f82011682018060405250810190610cb2919061236d565b606060006112926111f5565b90508067ffffffffffffffff8111156112ad576112ad611e61565b60405190808252806020026020018201604052801561131657816020015b60408051606081018252600080825260208083018290529282015282527fffffffffffffffffffffffffffffffffffffffffffffffffffffffffffffffff9092019101816112cb5790505b50915060005b8181101561116557611332610204826001612467565b83828151811061134457611344612400565b6020026020010181905250808061135a9061242f565b91505061131c565b6000606082600003611378576000915050610466565b607f8311611441576040517fd60000000000000000000000000000000000000000000000000000000000000060208201527f940000000000000000000000000000000000000000000000000000000000000060218201527fffffffffffffffffffffffffffffffffffffffff000000000000000000000000606086901b16602282015260f884901b7fff000000000000000000000000000000000000000000000000000000000000001660368201526037015b60405160208183030381529060405290506117bd565b60ff831161151e576040517fd70000000000000000000000000000000000000000000000000000000000000060208201527f940000000000000000000000000000000000000000000000000000000000000060218201527fffffffffffffffffffffffffffffffffffffffff000000000000000000000000606086901b1660228201527f8100000000000000000000000000000000000000000000000000000000000000603682015260f884901b7fff0000000000000000000000000000000000000000000000000000000000000016603782015260380161142b565b61ffff83116115fc576040517fd80000000000000000000000000000000000000000000000000000000000000060208201527f940000000000000000000000000000000000000000000000000000000000000060218201527fffffffffffffffffffffffffffffffffffffffff000000000000000000000000606086901b1660228201527f820000000000000000000000000000000000000000000000000000000000000060368201527fffff00000000000000000000000000000000000000000000000000000000000060f085901b16603782015260390161142b565b62ffffff83116116db576040517fd90000000000000000000000000000000000000000000000000000000000000060208201527f940000000000000000000000000000000000000000000000000000000000000060218201527fffffffffffffffffffffffffffffffffffffffff000000000000000000000000606086901b1660228201527f830000000000000000000000000000000000000000000000000000000000000060368201527fffffff000000000000000000000000000000000000000000000000000000000060e885901b166037820152603a0161142b565b6040517fda0000000000000000000000000000000000000000000000000000000000000060208201527f940000000000000000000000000000000000000000000000000000000000000060218201527fffffffffffffffffffffffffffffffffffffffff000000000000000000000000606086901b1660228201527f840000000000000000000000000000000000000000000000000000000000000060368201527fffffffff0000000000000000000000000000000000000000000000000000000060e085901b166037820152603b0160405160208183030381529060405290505b80516020909101209392505050565b6060816117da81601f612467565b1015611847576040517f08c379a000000000000000000000000000000000000000000000000000000000815260206004820152600e60248201527f736c6963655f6f766572666c6f7700000000000000000000000000000000000060448201526064015b60405180910390fd5b6118518284612467565b845110156118bb576040517f08c379a000000000000000000000000000000000000000000000000000000000815260206004820152601160248201527f736c6963655f6f75744f66426f756e6473000000000000000000000000000000604482015260640161183e565b811580156118d85760405191506000825260208201604052611940565b6040519150601f8316801560200281840101848101868315602002848a0101015b818310156119115780518352602092830192016118f9565b5050848452601f017fffffffffffffffffffffffffffffffffffffffffffffffffffffffffffffffe016604052505b509392505050565b600060248351101561195c57506000610466565b60208301517fffffffff000000000000000000000000000000000000000000000000000000008084169082160361199557602484015191505b5092915050565b6040518060a00160405280600073ffffffffffffffffffffffffffffffffffffffff168152602001600073ffffffffffffffffffffffffffffffffffffffff168152602001600073ffffffffffffffffffffffffffffffffffffffff168152602001611a296040518060800160405280600081526020016000815260200160008152602001600081525090565b8152602001611a676040518060c001604052806000815260200160008152602001600081526020016000815260200160008152602001600081525090565b905290565b600060208284031215611a7e57600080fd5b5035919050565b73ffffffffffffffffffffffffffffffffffffffff81168114611aa757600080fd5b50565b600060208284031215611abc57600080fd5b8135611ac781611a85565b9392505050565b606081016104668284805173ffffffffffffffffffffffffffffffffffffffff908116835260208083015182169084015260409182015116910152565b81518152602080830151610240830191611b3c9084018273ffffffffffffffffffffffffffffffffffffffff169052565b506040830151611b64604084018273ffffffffffffffffffffffffffffffffffffffff169052565b506060830151611bc2606084018273ffffffffffffffffffffffffffffffffffffffff808251168352806020830151166020840152806040830151166040840152806060830151166060840152806080830151166080840152505050565b506080830151610100611bec8185018373ffffffffffffffffffffffffffffffffffffffff169052565b60a08501519150610120611c178186018473ffffffffffffffffffffffffffffffffffffffff169052565b60c08601519250610140611c428187018573ffffffffffffffffffffffffffffffffffffffff169052565b60e0870151610160878101919091529287015161018080880191909152918701516101a080880191909152908701516101c0870152918601516101e08601528501516102008501529093015161022090920191909152919050565b8151815260208083015190820152604080830151908201526060808301519082015260808101610466565b60008060008060808587031215611cde57600080fd5b8435611ce981611a85565b935060208501358015158114611cfe57600080fd5b93969395505050506040820135916060013590565b73ffffffffffffffffffffffffffffffffffffffff808251168352806020830151166020840152806040830151166040840152506060810151611d7a6060840182805182526020810151602083015260408101516040830152606081015160608301525050565b50608090810151805160e08401526020810151610100840152604081015161012084015260608101516101408401529081015161016083015260a0015161018090910152565b6101a081016104668284611d13565b60c081016104668284805182526020810151602083015260408101516040830152606081015160608301526080810151608083015260a081015160a08301525050565b6020808252825182820181905260009190848201906040850190845b81811015611e5557611e41838551611d13565b928401926101a09290920191600101611e2e565b50909695505050505050565b7f4e487b7100000000000000000000000000000000000000000000000000000000600052604160045260246000fd5b604051610120810167ffffffffffffffff81118282101715611eb457611eb4611e61565b60405290565b6040516101c0810167ffffffffffffffff81118282101715611eb457611eb4611e61565b604051601f82017fffffffffffffffffffffffffffffffffffffffffffffffffffffffffffffffe016810167ffffffffffffffff81118282101715611f2557611f25611e61565b604052919050565b60006020808385031215611f4057600080fd5b823567ffffffffffffffff80821115611f5857600080fd5b818501915085601f830112611f6c57600080fd5b813581811115611f7e57611f7e611e61565b8060051b9150611f8f848301611ede565b8181529183018401918481019088841115611fa957600080fd5b938501935b83851015611fd35784359250611fc383611a85565b8282529385019390850190611fae565b98975050505050505050565b6020808252825182820181905260009190848201906040850190845b81811015611e5557835173ffffffffffffffffffffffffffffffffffffffff1683529284019291840191600101611ffb565b6020808252825182820181905260009190848201906040850190845b81811015611e555761208b838551805173ffffffffffffffffffffffffffffffffffffffff908116835260208083015182169084015260409182015116910152565b9284019260609290920191600101612049565b7f4e487b7100000000000000000000000000000000000000000000000000000000600052601160045260246000fd5b818103818111156104665761046661209e565b600061012082840312156120f357600080fd5b6120fb611e90565b825181526020830151602082015260408301516040820152606083015160608201526080830151608082015260a083015160a082015260c083015160c082015260e083015160e08201526101008084015181830152508091505092915050565b80516105c781611a85565b600060a0828403121561217857600080fd5b60405160a0810181811067ffffffffffffffff8211171561219b5761219b611e61565b806040525080915082516121ae81611a85565b815260208301516121be81611a85565b602082015260408301516121d181611a85565b604082015260608301516121e481611a85565b606082015260808301516121f781611a85565b6080919091015292915050565b6000610240828403121561221757600080fd5b61221f611eba565b8251815261222f6020840161215b565b60208201526122406040840161215b565b60408201526122528460608501612166565b606082015261010061226581850161215b565b608083015261012061227881860161215b565b60a084015261014061228b81870161215b565b60c08501526101608087015160e086015261018080880151858701526101a0945084880151848701526101c0880151838701526101e088015182870152610200880151818701525050505061022084015181830152508091505092915050565b6000608082840312156122fd57600080fd5b6040516080810181811067ffffffffffffffff8211171561232057612320611e61565b8060405250809150825181526020830151602082015260408301516040820152606083015160608201525092915050565b60006080828403121561236357600080fd5b611ac783836122eb565b60006020828403121561237f57600080fd5b5051919050565b600060c0828403121561239857600080fd5b60405160c0810181811067ffffffffffffffff821117156123bb576123bb611e61565b8060405250825181526020830151602082015260408301516040820152606083015160608201526080830151608082015260a083015160a08201528091505092915050565b7f4e487b7100000000000000000000000000000000000000000000000000000000600052603260045260246000fd5b60007fffffffffffffffffffffffffffffffffffffffffffffffffffffffffffffffff82036124605761246061209e565b5060010190565b808201808211156104665761046661209e56fea26469706673582212203b2cb3d12c10df610eab48ac25bcdaa84c1a69c7caf39838404872d25b48bf4364736f6c63430008150033",
  "devdoc": {
    "kind": "dev",
    "methods": {
      "estimateSwapIn(address,bool,uint256,uint256)": {
        "params": {
          "amountIn_": "The exact amount of input tokens to swap",
          "amountOutMin_": "The minimum amount of output tokens the user is willing to accept",
          "dex_": "Dex pool",
          "swap0to1_": "Direction of swap. If true, swaps token0 for token1; if false, swaps token1 for token0"
        },
        "returns": {
          "amountOut_": "The amount of output tokens received from the swap"
        }
      },
      "estimateSwapOut(address,bool,uint256,uint256)": {
        "params": {
          "amountInMax_": "Maximum amount of tokens to swap in",
          "amountOut_": "The exact amount of tokens to receive after swap",
          "dex_": "Dex pool",
          "swap0to1_": "Direction of swap. If true, swaps token0 for token1; if false, swaps token1 for token0"
        },
        "returns": {
          "amountIn_": "The amount of input tokens used for the swap"
        }
      },
      "getAllPoolAddresses()": {
        "returns": {
          "pools_": "An array containing all Pool addresses"
        }
      },
      "getAllPools()": {
        "returns": {
          "pools_": "An array containing all Pool data"
        }
      },
      "getAllPoolsReserves()": {
        "details": "expected to be called via callStatic",
        "returns": {
          "poolsReserves_": "An array containing all Pool data with reserves"
        }
      },
      "getDexCollateralReserves(address)": {
        "details": "expected to be called via callStatic",
        "params": {
          "dex_": "The address of the DEX"
        },
        "returns": {
          "reserves_": "A struct containing collateral reserve information"
        }
      },
      "getDexDebtReserves(address)": {
        "details": "expected to be called via callStatic",
        "params": {
          "dex_": "The address of the DEX"
        },
        "returns": {
          "reserves_": "A struct containing debt reserve information"
        }
      },
      "getDexPricesAndExchangePrices(address)": {
        "details": "expected to be called via callStatic",
        "params": {
          "dex_": "The address of the DEX"
        },
        "returns": {
          "pex_": "A struct containing prices and exchange prices"
        }
      },
      "getPool(uint256)": {
        "params": {
          "poolId_": "The ID of the Pool"
        },
        "returns": {
          "pool_": "The Pool data"
        }
      },
      "getPoolAddress(uint256)": {
        "params": {
          "poolId_": "The ID of the Pool"
        },
        "returns": {
          "pool_": "The address of the Pool"
        }
      },
      "getPoolReserves(address)": {
        "details": "expected to be called via callStatic",
        "params": {
          "pool_": "The Pool address"
        },
        "returns": {
          "poolReserves_": "The Pool data with reserves"
        }
      },
      "getPoolTokens(address)": {
        "params": {
          "pool_": "The address of the Pool"
        },
        "returns": {
          "token0_": "The address of token0 in the Pool",
          "token1_": "The address of token1 in the Pool"
        }
      },
      "getPoolsReserves(address[])": {
        "details": "expected to be called via callStatic",
        "params": {
          "pools_": "The array of Pool addresses"
        },
        "returns": {
          "poolsReserves_": "An array containing all Pool data with reserves"
        }
      },
      "getTotalPools()": {
        "returns": {
          "_0": "The total number of Pools"
        }
      }
    },
    "version": 1
  },
  "userdoc": {
    "kind": "user",
    "methods": {
      "estimateSwapIn(address,bool,uint256,uint256)": {
        "notice": "estimates swap IN tokens execution"
      },
      "estimateSwapOut(address,bool,uint256,uint256)": {
        "notice": "estimates swap OUT tokens execution"
      },
      "getAllPoolAddresses()": {
        "notice": "Get an array of all Pool addresses"
      },
      "getAllPools()": {
        "notice": "Get an array of all Pool addresses and their token addresses"
      },
      "getAllPoolsReserves()": {
        "notice": "Get an array of all Pool addresses, their token addresses, collateral reserves, and debt reserves"
      },
      "getDexCollateralReserves(address)": {
        "notice": "Get the collateral reserves for a DEX"
      },
      "getDexDebtReserves(address)": {
        "notice": "Get the debt reserves for a DEX"
      },
      "getDexPricesAndExchangePrices(address)": {
        "notice": "Get the prices and exchange prices for a DEX"
      },
      "getPool(uint256)": {
        "notice": "Get a Pool's address and its token addresses"
      },
      "getPoolAddress(uint256)": {
        "notice": "Get the address of a Pool given its ID"
      },
      "getPoolConstantsView(address)": {
        "notice": "returns all Pool constants"
      },
      "getPoolConstantsView2(address)": {
        "notice": "returns all Pool constants 2"
      },
      "getPoolReserves(address)": {
        "notice": "Get the token addresses, collateral reserves, and debt reserves for a given Pool address"
      },
      "getPoolTokens(address)": {
        "notice": "Get the addresses of the tokens in a Pool"
      },
      "getPoolsReserves(address[])": {
        "notice": "Get an array of Pool addresses, their token addresses, collateral reserves, and debt reserves for a given array of Pool addresses"
      },
      "getTotalPools()": {
        "notice": "Get the total number of Pools"
      }
    },
    "notice": "Fluid Dex Reserves resolver Implements various view-only methods to give easy access to Dex protocol reserves data.",
    "version": 1
  },
  "storageLayout": {
    "storage": [],
    "types": null
  }
}