{
  "address": "0xFe4affaD55c7AeC012346195654634F7C786fA2c",
  "abi": [
    {
      "inputs": [
        {
          "internalType": "contract IFluidLiquidity",
          "name": "liquidity_",
          "type": "address"
        }
      ],
      "stateMutability": "nonpayable",
      "type": "constructor"
    },
    {
      "inputs": [
        {
          "internalType": "uint256",
          "name": "errorId_",
          "type": "uint256"
        }
      ],
      "name": "FluidCalcsSimulatedTimeError",
      "type": "error"
    },
    {
      "inputs": [],
      "name": "FluidCalcsSimulatedTimeInvalidTimestamp",
      "type": "error"
    },
    {
      "inputs": [],
      "name": "FluidCalcsVaultSimulatedTimeError",
      "type": "error"
    },
    {
      "inputs": [
        {
          "internalType": "uint256",
          "name": "errorId_",
          "type": "uint256"
        }
      ],
      "name": "FluidLiquidityCalcsError",
      "type": "error"
    },
    {
      "inputs": [],
      "name": "LIQUIDITY",
      "outputs": [
        {
          "internalType": "contract IFluidLiquidity",
          "name": "",
          "type": "address"
        }
      ],
      "stateMutability": "view",
      "type": "function"
    },
    {
      "inputs": [
        {
          "internalType": "uint256",
          "name": "exchangePricesAndConfig_",
          "type": "uint256"
        },
        {
          "internalType": "uint256",
          "name": "simulatedTimestamp_",
          "type": "uint256"
        }
      ],
      "name": "calcLiquidityExchangePricesSimulatedTime",
      "outputs": [
        {
          "internalType": "uint256",
          "name": "supplyExchangePrice_",
          "type": "uint256"
        },
        {
          "internalType": "uint256",
          "name": "borrowExchangePrice_",
          "type": "uint256"
        }
      ],
      "stateMutability": "pure",
      "type": "function"
    },
    {
      "inputs": [
        {
          "internalType": "uint256",
          "name": "totalAmounts_",
          "type": "uint256"
        },
        {
          "internalType": "uint256",
          "name": "exchangePricesAndConfig_",
          "type": "uint256"
        },
        {
          "internalType": "uint256",
          "name": "simulatedTimestamp_",
          "type": "uint256"
        }
      ],
      "name": "calcLiquidityTotalAmountsSimulatedTime",
      "outputs": [
        {
          "internalType": "uint256",
          "name": "totalSupply_",
          "type": "uint256"
        },
        {
          "internalType": "uint256",
          "name": "totalBorrow_",
          "type": "uint256"
        },
        {
          "internalType": "uint256",
          "name": "supplyExchangePrice_",
          "type": "uint256"
        },
        {
          "internalType": "uint256",
          "name": "borrowExchangePrice_",
          "type": "uint256"
        }
      ],
      "stateMutability": "pure",
      "type": "function"
    },
    {
      "inputs": [
        {
          "internalType": "uint256",
          "name": "userSupplyData_",
          "type": "uint256"
        },
        {
          "internalType": "uint256",
          "name": "userBorrowData_",
          "type": "uint256"
        },
        {
          "internalType": "uint256",
          "name": "liquiditySupplyExchangePricesAndConfig_",
          "type": "uint256"
        },
        {
          "internalType": "uint256",
          "name": "liquidityBorrowExchangePricesAndConfig_",
          "type": "uint256"
        },
        {
          "internalType": "uint256",
          "name": "simulatedTimestamp_",
          "type": "uint256"
        }
      ],
      "name": "calcLiquidityUserAmountsSimulatedTime",
      "outputs": [
        {
          "internalType": "uint256",
          "name": "supply_",
          "type": "uint256"
        },
        {
          "internalType": "uint256",
          "name": "borrow_",
          "type": "uint256"
        },
        {
          "internalType": "uint256",
          "name": "supplyExchangePrice_",
          "type": "uint256"
        },
        {
          "internalType": "uint256",
          "name": "borrowExchangePrice_",
          "type": "uint256"
        }
      ],
      "stateMutability": "pure",
      "type": "function"
    },
    {
      "inputs": [
        {
          "internalType": "uint256",
          "name": "totalAmounts_",
          "type": "uint256"
        },
        {
          "internalType": "uint256",
          "name": "exchangePricesAndConfig_",
          "type": "uint256"
        },
        {
          "internalType": "uint256",
          "name": "liquidityTokenBalance_",
          "type": "uint256"
        }
      ],
      "name": "calcRevenue",
      "outputs": [
        {
          "internalType": "uint256",
          "name": "revenueAmount_",
          "type": "uint256"
        }
      ],
      "stateMutability": "view",
      "type": "function"
    },
    {
      "inputs": [
        {
          "internalType": "uint256",
          "name": "totalAmounts_",
          "type": "uint256"
        },
        {
          "internalType": "uint256",
          "name": "exchangePricesAndConfig_",
          "type": "uint256"
        },
        {
          "internalType": "uint256",
          "name": "liquidityTokenBalance_",
          "type": "uint256"
        },
        {
          "internalType": "uint256",
          "name": "simulatedTimestamp_",
          "type": "uint256"
        }
      ],
      "name": "calcRevenueSimulatedTime",
      "outputs": [
        {
          "internalType": "uint256",
          "name": "revenueAmount_",
          "type": "uint256"
        }
      ],
      "stateMutability": "pure",
      "type": "function"
    },
    {
      "inputs": [
        {
          "internalType": "uint256",
          "name": "vaultVariables2_",
          "type": "uint256"
        },
        {
          "internalType": "uint256",
          "name": "vaultRates_",
          "type": "uint256"
        },
        {
          "internalType": "uint256",
          "name": "liquiditySupplyExchangePricesAndConfig_",
          "type": "uint256"
        },
        {
          "internalType": "uint256",
          "name": "liquidityBorrowExchangePricesAndConfig_",
          "type": "uint256"
        },
        {
          "internalType": "uint256",
          "name": "simulatedTimestamp_",
          "type": "uint256"
        }
      ],
      "name": "calcVaultExchangePricesSimulatedTime",
      "outputs": [
        {
          "internalType": "uint256",
          "name": "liqSupplyExPrice_",
          "type": "uint256"
        },
        {
          "internalType": "uint256",
          "name": "liqBorrowExPrice_",
          "type": "uint256"
        },
        {
          "internalType": "uint256",
          "name": "vaultSupplyExPrice_",
          "type": "uint256"
        },
        {
          "internalType": "uint256",
          "name": "vaultBorrowExPrice_",
          "type": "uint256"
        }
      ],
      "stateMutability": "pure",
      "type": "function"
    },
    {
      "inputs": [
        {
          "internalType": "address",
          "name": "token_",
          "type": "address"
        }
      ],
      "name": "getRevenue",
      "outputs": [
        {
          "internalType": "uint256",
          "name": "revenueAmount_",
          "type": "uint256"
        }
      ],
      "stateMutability": "view",
      "type": "function"
    },
    {
      "inputs": [],
      "name": "getRevenueCollector",
      "outputs": [
        {
          "internalType": "address",
          "name": "",
          "type": "address"
        }
      ],
      "stateMutability": "view",
      "type": "function"
    },
    {
      "inputs": [],
      "name": "getRevenues",
      "outputs": [
        {
          "components": [
            {
              "internalType": "address",
              "name": "token",
              "type": "address"
            },
            {
              "internalType": "uint256",
              "name": "revenueAmount",
              "type": "uint256"
            }
          ],
          "internalType": "struct FluidRevenueResolver.TokenRevenue[]",
          "name": "tokenRevenues_",
          "type": "tuple[]"
        }
      ],
      "stateMutability": "view",
      "type": "function"
    }
  ],
  "transactionHash": "0x02e06fd338a4d605860edf02f7d75b54be88ceec060a576e5d299b2f8dc3ba66",
  "args": [
    "0x52Aa899454998Be5b000Ad077a46Bbe360F4e497"
  ],
  "numDeployments": 4,
  "solcInputHash": "f6f3d8595285c546bf6893e3c3875fae",
  "bytecode": "0x60a060405234801561001057600080fd5b5060405161152238038061152283398101604081905261002f91610040565b6001600160a01b0316608052610070565b60006020828403121561005257600080fd5b81516001600160a01b038116811461006957600080fd5b9392505050565b6080516114676100bb6000396000818160ee015281816102a20152818161044c01528181610573015281816105ed0152818161062a01528181610719015261084f01526114676000f3fe608060405234801561001057600080fd5b50600436106100be5760003560e01c806380f971cc11610076578063ab8921751161005b578063ab892175146101be578063f3bd3c89146101d3578063f7fdd139146101e657600080fd5b806380f971cc1461018357806385b67095146101ab57600080fd5b8063318a5b80116100a7578063318a5b801461013557806334a2e659146101685780636bc6f5801461017057600080fd5b80631170e219146100c35780632861c7d1146100e9575b600080fd5b6100d66100d1366004611156565b6101f9565b6040519081526020015b60405180910390f35b6101107f000000000000000000000000000000000000000000000000000000000000000081565b60405173ffffffffffffffffffffffffffffffffffffffff90911681526020016100e0565b610148610143366004611156565b610220565b6040805194855260208501939093529183015260608201526080016100e0565b610110610270565b61014861017e366004611182565b610327565b6101966101913660046111bd565b61041b565b604080519283526020830191909152016100e0565b6100d66101b93660046111df565b610447565b6101c66106e4565b6040516100e09190611215565b6101486101e1366004611182565b6109a4565b6100d66101f436600461127a565b6109ea565b60008260000361020b57506000610219565b610216848484610a13565b90505b9392505050565b6000806000808560000361023f57506000925082915081905080610267565b6102498686610a7c565b90925090506102588783610cd6565b93506102648782610d21565b92505b93509350935093565b6040517fb5c736e4000000000000000000000000000000000000000000000000000000008152600060048201819052907f000000000000000000000000000000000000000000000000000000000000000073ffffffffffffffffffffffffffffffffffffffff169063b5c736e490602401602060405180830381865afa1580156102fe573d6000803e3d6000fd5b505050506040513d601f19601f8201168201806040525081019061032291906112ac565b905090565b6000808080861580610337575085155b1561034d5750600092508291508190508061040f565b6103578786610a7c565b5091506103648686610a7c565b91505088156103bb576001808a16811490610394908b901c67ffffffffffffffff16600860ff9082901c91161b90565b945080156103b95764e8d4a510006103ac84876112f4565b6103b6919061133a565b94505b505b871561040f5760018089168114906103e8908a901c67ffffffffffffffff16600860ff9082901c91161b90565b9350801561040d5764e8d4a5100061040083866112f4565b61040a919061133a565b93505b505b95509550955095915050565b6000808360000361043157506000905080610440565b61043b8484610a7c565b915091505b9250929050565b6000807f000000000000000000000000000000000000000000000000000000000000000073ffffffffffffffffffffffffffffffffffffffff1663b5c736e4610491600586610d5b565b6040518263ffffffff1660e01b81526004016104af91815260200190565b602060405180830381865afa1580156104cc573d6000803e3d6000fd5b505050506040513d601f19601f820116820180604052508101906104f091906112ac565b9050806000036105035750600092915050565b600073ffffffffffffffffffffffffffffffffffffffff841673eeeeeeeeeeeeeeeeeeeeeeeeeeeeeeeeeeeeeeee146105eb576040517f70a0823100000000000000000000000000000000000000000000000000000000815273ffffffffffffffffffffffffffffffffffffffff7f0000000000000000000000000000000000000000000000000000000000000000811660048301528516906370a0823190602401602060405180830381865afa1580156105c2573d6000803e3d6000fd5b505050506040513d601f19601f820116820180604052508101906105e691906112ac565b610624565b7f000000000000000000000000000000000000000000000000000000000000000073ffffffffffffffffffffffffffffffffffffffff16315b905060007f000000000000000000000000000000000000000000000000000000000000000073ffffffffffffffffffffffffffffffffffffffff1663b5c736e461066f600788610d5b565b6040518263ffffffff1660e01b815260040161068d91815260200190565b602060405180830381865afa1580156106aa573d6000803e3d6000fd5b505050506040513d601f19601f820116820180604052508101906106ce91906112ac565b90506106db818484610a13565b95945050505050565b6040517fb5c736e4000000000000000000000000000000000000000000000000000000008152600a60048201526060906000907f000000000000000000000000000000000000000000000000000000000000000073ffffffffffffffffffffffffffffffffffffffff169063b5c736e490602401602060405180830381865afa158015610775573d6000803e3d6000fd5b505050506040513d601f19601f8201168201806040525081019061079991906112ac565b90508067ffffffffffffffff8111156107b4576107b4611375565b6040519080825280602002602001820160405280156107f957816020015b60408051808201909152600080825260208201528152602001906001900390816107d25790505b5091506000600a60405160200161081291815260200190565b6040516020818303038152906040528051906020012060001c905060005b8281101561099e5773ffffffffffffffffffffffffffffffffffffffff7f00000000000000000000000000000000000000000000000000000000000000001663b5c736e461087e83856113a4565b60405160e083901b7fffffffff000000000000000000000000000000000000000000000000000000001681526004810191909152602401602060405180830381865afa1580156108d2573d6000803e3d6000fd5b505050506040513d601f19601f820116820180604052508101906108f691906112ac565b848281518110610908576109086113b7565b60200260200101516000019073ffffffffffffffffffffffffffffffffffffffff16908173ffffffffffffffffffffffffffffffffffffffff168152505061096c84828151811061095b5761095b6113b7565b602002602001015160000151610447565b84828151811061097e5761097e6113b7565b602090810291909101810151015280610996816113e6565b915050610830565b50505090565b60008080808615806109b4575085155b156109ca5750600092508291508190508061040f565b6109d78989898989610da6565b929c919b50995090975095505050505050565b6000836000036109fc57506000610a0b565b610a0885858585610edd565b90505b949350505050565b6000806000610a2185610f48565b915091506000610a318784610cd6565b90508015610a6e57610a438783610d21565b610a4d90866113a4565b9350808411610a5d576000610a67565b610a67818561141e565b9350610a72565b8493505b5050509392505050565b67ffffffffffffffff605b83901c811690609b84901c16811580610a9e575080155b15610adf576040517fb838681e0000000000000000000000000000000000000000000000000000000081526201117160048201526024015b60405180910390fd5b61ffff8416603a85901c6401ffffffff16841015610b29576040517faba77fab00000000000000000000000000000000000000000000000000000000815260040160405180910390fd5b603a85901c6401ffffffff168085039060ea87901c617fff1690861480610b4e575082155b80610b595750806001145b15610b6657505050610440565b64496cebb80084840283020484019350617fff60db88901c16925082600103610b9157505050610440565b82600116600103610be65760019290921c91826c7e37be2022c0914b268000000081610bbf57610bbf61130b565b049250612710601e88901c613fff166b033b2e3c9fd0803ce8000000850102049250610c13565b60019290921c916305f5e100601e88901c613fff166127108501026b033b2e3c9fd0803ce8000000020492505b80600116600103610c4a5760011c61271081016b033b2e3c9fd0803ce8000000820281610c4257610c4261130b565b049050610c80565b60011c61271081016b033b2e3c9fd0803ce8000000820281610c6e57610c6e61130b565b046b033b2e3c9fd0803ce80000000390505b760a70c3c40a64e6c51999090b65f67d92400000000000008382026127100261ffff891691900402601088901c613fff16612710030292506801b5a660ea44b80000858402830204850194505050509250929050565b66ffffffffffffff604883901c811660ff604085901c81169190911b91600885901c169084161b64e8d4a51000610d0d84836112f4565b610d17919061133a565b610a0b90836113a4565b60c882901c60ff60c084901c81169190911b9066ffffffffffffff608885901c16608085901c9091161b64e8d4a51000610d0d84836112f4565b6040805173ffffffffffffffffffffffffffffffffffffffff831660208201529081018390526000906060016040516020818303038152906040528051906020012090505b92915050565b600080600080610db68786610a7c565b509350610dc38686610a7c565b93505067ffffffffffffffff8881169060408a901c1681861080610de657508085105b15610e1d576040517fea77fd6f00000000000000000000000000000000000000000000000000000000815260040160405180910390fd5b61271061ffff8c16670de0b6b3a76400008489670de0b6b3a76400000281610e4757610e4761130b565b04030281610e5757610e5761130b565b04935061271061ffff60108d901c16670de0b6b3a76400008388670de0b6b3a76400000281610e8857610e8861130b565b04030281610e9857610e9861130b565b049250670de0b6b3a764000060808b901c67ffffffffffffffff1685820102049350670de0b6b3a764000060c08b901c84820102049250505095509550955095915050565b6000806000610eec8685610a7c565b915091506000610efc8884610cd6565b90508015610f3957610f0e8883610d21565b610f1890876113a4565b9350808411610f28576000610f32565b610f32818561141e565b9350610f3d565b8593505b505050949350505050565b67ffffffffffffffff605b82901c811690609b83901c16811580610f6a575080155b15610fa6576040517fd50d7512000000000000000000000000000000000000000000000000000000008152620111716004820152602401610ad6565b61ffff8316603a84901c6401ffffffff16428181039160ea87901c617fff16911480610fd0575082155b80610fdb5750806001145b15610fe857505050915091565b64496cebb80084840283020484019350617fff60db87901c1692508260010361101357505050915091565b826001166001036110685760019290921c91826c7e37be2022c0914b2680000000816110415761104161130b565b049250612710601e87901c613fff166b033b2e3c9fd0803ce8000000850102049250611095565b60019290921c916305f5e100601e87901c613fff166127108501026b033b2e3c9fd0803ce8000000020492505b806001166001036110cc5760011c61271081016b033b2e3c9fd0803ce80000008202816110c4576110c461130b565b049050611102565b60011c61271081016b033b2e3c9fd0803ce80000008202816110f0576110f061130b565b046b033b2e3c9fd0803ce80000000390505b760a70c3c40a64e6c51999090b65f67d92400000000000008382026127100261ffff881691900402601087901c613fff16612710030292506801b5a660ea44b8000085840283020485019450505050915091565b60008060006060848603121561116b57600080fd5b505081359360208301359350604090920135919050565b600080600080600060a0868803121561119a57600080fd5b505083359560208501359550604085013594606081013594506080013592509050565b600080604083850312156111d057600080fd5b50508035926020909101359150565b6000602082840312156111f157600080fd5b813573ffffffffffffffffffffffffffffffffffffffff8116811461021957600080fd5b602080825282518282018190526000919060409081850190868401855b8281101561126d578151805173ffffffffffffffffffffffffffffffffffffffff168552860151868501529284019290850190600101611232565b5091979650505050505050565b6000806000806080858703121561129057600080fd5b5050823594602084013594506040840135936060013592509050565b6000602082840312156112be57600080fd5b5051919050565b7f4e487b7100000000000000000000000000000000000000000000000000000000600052601160045260246000fd5b8082028115828204841417610da057610da06112c5565b7f4e487b7100000000000000000000000000000000000000000000000000000000600052601260045260246000fd5b600082611370577f4e487b7100000000000000000000000000000000000000000000000000000000600052601260045260246000fd5b500490565b7f4e487b7100000000000000000000000000000000000000000000000000000000600052604160045260246000fd5b80820180821115610da057610da06112c5565b7f4e487b7100000000000000000000000000000000000000000000000000000000600052603260045260246000fd5b60007fffffffffffffffffffffffffffffffffffffffffffffffffffffffffffffffff8203611417576114176112c5565b5060010190565b81810381811115610da057610da06112c556fea2646970667358221220fdcdad644e5fc82687901bb9deff5f23ab1d4bbf2cbb669082942a15c8ec226964736f6c63430008150033",
  "devdoc": {
    "kind": "dev",
    "methods": {
      "calcLiquidityExchangePricesSimulatedTime(uint256,uint256)": {
        "params": {
          "exchangePricesAndConfig_": "exchange prices and config packed uint256 read from storage",
          "simulatedTimestamp_": "simulated block.timestamp"
        },
        "returns": {
          "borrowExchangePrice_": "updated borrowExchangePrice",
          "supplyExchangePrice_": "updated supplyExchangePrice"
        }
      },
      "calcRevenue(uint256,uint256,uint256)": {
        "details": "exposed for advanced revenue calculations",
        "params": {
          "exchangePricesAndConfig_": "exchange prices and config packed uint256 read from storage",
          "liquidityTokenBalance_": "current balance of Liquidity contract (IERC20(token_).balanceOf(address(this)))",
          "totalAmounts_": "total amounts packed uint256 read from storage"
        },
        "returns": {
          "revenueAmount_": "collectable revenue amount"
        }
      },
      "calcVaultExchangePricesSimulatedTime(uint256,uint256,uint256,uint256,uint256)": {
        "params": {
          "liquidityBorrowExchangePricesAndConfig_": "exchange prices and config packed uint256 read from storage for borrow token",
          "liquiditySupplyExchangePricesAndConfig_": "exchange prices and config packed uint256 read from storage for supply token",
          "simulatedTimestamp_": "simulated block.timestamp",
          "vaultRates_": "rates read from storage for the vault (VaultResolver.getVaultVariables2Raw)",
          "vaultVariables2_": "vaultVariables2 read from storage for the vault (VaultResolver.getRateRaw)"
        },
        "returns": {
          "liqBorrowExPrice_": "latest liquidity's borrow token borrow exchange price",
          "liqSupplyExPrice_": "latest liquidity's supply token supply exchange price",
          "vaultBorrowExPrice_": "latest vault's borrow token exchange price",
          "vaultSupplyExPrice_": "latest vault's supply token exchange price"
        }
      }
    },
    "stateVariables": {
      "_NATIVE_TOKEN_ADDRESS": {
        "details": "address that is mapped to the chain native token"
      }
    },
    "version": 1
  },
  "userdoc": {
    "kind": "user",
    "methods": {
      "LIQUIDITY()": {
        "notice": "address of the liquidity contract"
      },
      "calcLiquidityExchangePricesSimulatedTime(uint256,uint256)": {
        "notice": "calculates interest (exchange prices) at Liquidity for a token given its' exchangePricesAndConfig from storage         for a simulated `block.timestamp` set via `simulatedTimestamp_`."
      },
      "calcLiquidityTotalAmountsSimulatedTime(uint256,uint256,uint256)": {
        "notice": "returns the `totalSupply_` and `totalBorrow_` at Liquidity at a certain point in time given the stacked uint256         storage data for total amounts and exchange prices and config."
      },
      "calcLiquidityUserAmountsSimulatedTime(uint256,uint256,uint256,uint256,uint256)": {
        "notice": "returns the `supply_` and `borrow_` for a user (protocol) at Liquidity at a certain point in time          given the stacked uint256 storage data for total amounts and exchange prices and config."
      },
      "calcRevenue(uint256,uint256,uint256)": {
        "notice": "gets the `revenueAmount_` for a token given its' totalAmounts and exchangePricesAndConfig from stacked uint256 storage slots and the balance of the Fluid liquidity contract for the token."
      },
      "calcRevenueSimulatedTime(uint256,uint256,uint256,uint256)": {
        "notice": "same as `calcRevenue`, but for a simulated `block.timestamp` set via `simulatedTimestamp_`."
      },
      "calcVaultExchangePricesSimulatedTime(uint256,uint256,uint256,uint256,uint256)": {
        "notice": "Calculates new vault exchange prices based on storage data for a simulated `block.timestamp` set via `simulatedTimestamp_`."
      },
      "getRevenue(address)": {
        "notice": "gets the currently uncollected `revenueAmount_` for a `token_`."
      },
      "getRevenueCollector()": {
        "notice": "address of contract that gets sent the revenue. Configurable by governance"
      },
      "getRevenues()": {
        "notice": "gets the currently uncollected revenues for all listed tokens at Liquidity"
      }
    },
    "notice": "Fluid Revenue resolver",
    "version": 1
  },
  "storageLayout": {
    "storage": [],
    "types": null
  }
}