{
  "address": "0xB07175600Bf990ab397Ce57048BB5B7498d306b8",
  "abi": [
    {
      "inputs": [
        {
          "internalType": "string",
          "name": "infoName_",
          "type": "string"
        },
        {
          "components": [
            {
              "internalType": "address",
              "name": "source",
              "type": "address"
            },
            {
              "internalType": "bool",
              "name": "invertRate",
              "type": "bool"
            },
            {
              "internalType": "uint256",
              "name": "multiplier",
              "type": "uint256"
            },
            {
              "internalType": "uint256",
              "name": "divisor",
              "type": "uint256"
            },
            {
              "internalType": "enum GenericOracleStructs.SourceType",
              "name": "sourceType",
              "type": "uint8"
            }
          ],
          "internalType": "struct GenericOracleStructs.OracleHopSource[]",
          "name": "sources_",
          "type": "tuple[]"
        }
      ],
      "stateMutability": "nonpayable",
      "type": "constructor"
    },
    {
      "inputs": [
        {
          "internalType": "uint256",
          "name": "errorId_",
          "type": "uint256"
        }
      ],
      "name": "FluidOracleError",
      "type": "error"
    },
    {
      "inputs": [],
      "name": "centerPrice",
      "outputs": [
        {
          "internalType": "uint256",
          "name": "price_",
          "type": "uint256"
        }
      ],
      "stateMutability": "view",
      "type": "function"
    },
    {
      "inputs": [],
      "name": "getExchangeRate",
      "outputs": [
        {
          "internalType": "uint256",
          "name": "exchangeRate_",
          "type": "uint256"
        }
      ],
      "stateMutability": "view",
      "type": "function"
    },
    {
      "inputs": [],
      "name": "getExchangeRateLiquidate",
      "outputs": [
        {
          "internalType": "uint256",
          "name": "exchangeRate_",
          "type": "uint256"
        }
      ],
      "stateMutability": "view",
      "type": "function"
    },
    {
      "inputs": [],
      "name": "getExchangeRateOperate",
      "outputs": [
        {
          "internalType": "uint256",
          "name": "exchangeRate_",
          "type": "uint256"
        }
      ],
      "stateMutability": "view",
      "type": "function"
    },
    {
      "inputs": [],
      "name": "getHopExchangeRates",
      "outputs": [
        {
          "internalType": "uint256",
          "name": "rateSource1Operate_",
          "type": "uint256"
        },
        {
          "internalType": "uint256",
          "name": "rateSource1Liquidate_",
          "type": "uint256"
        },
        {
          "internalType": "uint256",
          "name": "rateSource2Operate_",
          "type": "uint256"
        },
        {
          "internalType": "uint256",
          "name": "rateSource2Liquidate_",
          "type": "uint256"
        },
        {
          "internalType": "uint256",
          "name": "rateSource3Operate_",
          "type": "uint256"
        },
        {
          "internalType": "uint256",
          "name": "rateSource3Liquidate_",
          "type": "uint256"
        },
        {
          "internalType": "uint256",
          "name": "rateSource4Operate_",
          "type": "uint256"
        },
        {
          "internalType": "uint256",
          "name": "rateSource4Liquidate_",
          "type": "uint256"
        },
        {
          "internalType": "uint256",
          "name": "rateSource5Operate_",
          "type": "uint256"
        },
        {
          "internalType": "uint256",
          "name": "rateSource5Liquidate_",
          "type": "uint256"
        }
      ],
      "stateMutability": "view",
      "type": "function"
    },
    {
      "inputs": [],
      "name": "getOracleHopSources",
      "outputs": [
        {
          "components": [
            {
              "internalType": "address",
              "name": "source",
              "type": "address"
            },
            {
              "internalType": "bool",
              "name": "invertRate",
              "type": "bool"
            },
            {
              "internalType": "uint256",
              "name": "multiplier",
              "type": "uint256"
            },
            {
              "internalType": "uint256",
              "name": "divisor",
              "type": "uint256"
            },
            {
              "internalType": "enum GenericOracleStructs.SourceType",
              "name": "sourceType",
              "type": "uint8"
            }
          ],
          "internalType": "struct GenericOracleStructs.OracleHopSource[]",
          "name": "sources_",
          "type": "tuple[]"
        }
      ],
      "stateMutability": "view",
      "type": "function"
    },
    {
      "inputs": [],
      "name": "infoName",
      "outputs": [
        {
          "internalType": "string",
          "name": "",
          "type": "string"
        }
      ],
      "stateMutability": "view",
      "type": "function"
    },
    {
      "inputs": [],
      "name": "targetDecimals",
      "outputs": [
        {
          "internalType": "uint8",
          "name": "",
          "type": "uint8"
        }
      ],
      "stateMutability": "pure",
      "type": "function"
    }
  ],
  "transactionHash": "0x2871381a7a918313d2a2f02261fb80e73e39e34727b5d9907c8c4c1cea82109b",
  "args": [
    [
      "MATICX for 1 POL",
      [
        {
          "sourceType": 2,
          "source": "0xAB594600376Ec9fD91F8e885dADF0CE036862dE0",
          "invertRate": false,
          "multiplier": "1000000000",
          "divisor": 1
        },
        {
          "sourceType": 2,
          "source": "0x5d37E4b374E6907de8Fc7fb33EE3b0af403C7403",
          "invertRate": true,
          "multiplier": "1000000000",
          "divisor": 1
        }
      ]
    ]
  ],
  "numDeployments": 1,
  "linkedData": {
    "nonce": "53"
  },
  "bytecode": "0x6103c06040523480156200001257600080fd5b506040516200320a3803806200320a8339810160408190526200003591620008b4565b80826020815111806200004757508051155b156200006f5760405163c82fc46560e01b815261ea6a60048201526024015b60405180910390fd5b602001516080528051158062000086575060058151115b15620000aa5760405163c82fc46560e01b815261ebf1600482015260240162000066565b620000d881600081518110620000c457620000c462000990565b60200260200101516200068960201b60201c565b80600081518110620000ee57620000ee62000990565b6020908102919091010151516001600160a01b031660a052805181906000906200011c576200011c62000990565b602002602001015160200151151560c0811515815250508060008151811062000149576200014962000990565b60200260200101516040015160e081815250508060008151811062000172576200017262000990565b6020026020010151606001516101008181525050806000815181106200019c576200019c62000990565b6020026020010151608001516004811115620001bc57620001bc620009a6565b610120816004811115620001d457620001d4620009a6565b815250506001815111156200030257620001fd81600181518110620000c457620000c462000990565b8060018151811062000213576200021362000990565b6020908102919091010151516001600160a01b03166101405280518190600190811062000244576200024462000990565b6020026020010151602001511515610160811515815250508060018151811062000272576200027262000990565b6020026020010151604001516101808181525050806001815181106200029c576200029c62000990565b6020026020010151606001516101a0818152505080600181518110620002c657620002c662000990565b6020026020010151608001516004811115620002e657620002e6620009a6565b6101c0816004811115620002fe57620002fe620009a6565b9052505b6002815111156200042c576200032781600281518110620000c457620000c462000990565b806002815181106200033d576200033d62000990565b6020908102919091010151516001600160a01b03166101e0528051819060029081106200036e576200036e62000990565b602002602001015160200151151561020081151581525050806002815181106200039c576200039c62000990565b602002602001015160400151610220818152505080600281518110620003c657620003c662000990565b602002602001015160600151610240818152505080600281518110620003f057620003f062000990565b6020026020010151608001516004811115620004105762000410620009a6565b610260816004811115620004285762000428620009a6565b9052505b60038151111562000556576200045181600381518110620000c457620000c462000990565b8060038151811062000467576200046762000990565b6020908102919091010151516001600160a01b03166102805280518190600390811062000498576200049862000990565b60200260200101516020015115156102a08115158152505080600381518110620004c657620004c662000990565b6020026020010151604001516102c0818152505080600381518110620004f057620004f062000990565b6020026020010151606001516102e08181525050806003815181106200051a576200051a62000990565b60200260200101516080015160048111156200053a576200053a620009a6565b610300816004811115620005525762000552620009a6565b9052505b60048151111562000680576200057b81600481518110620000c457620000c462000990565b8060048151811062000591576200059162000990565b6020908102919091010151516001600160a01b031661032052805181906004908110620005c257620005c262000990565b60200260200101516020015115156103408115158152505080600481518110620005f057620005f062000990565b6020026020010151604001516103608181525050806004815181106200061a576200061a62000990565b60200260200101516060015161038081815250508060048151811062000644576200064462000990565b6020026020010151608001516004811115620006645762000664620009a6565b6103a08160048111156200067c576200067c620009a6565b9052505b505050620009bc565b80516001600160a01b03161580620006b95750600381608001516004811115620006b757620006b7620009a6565b145b80620006c757506060810151155b80620006d557506040810151155b80620006f55750701d6329f1c35ca4bfabb9f56100000000008160600151115b80620007155750701d6329f1c35ca4bfabb9f56100000000008160400151115b15620007395760405163c82fc46560e01b815261ebf1600482015260240162000066565b50565b634e487b7160e01b600052604160045260246000fd5b60405160a081016001600160401b03811182821017156200077757620007776200073c565b60405290565b604051601f8201601f191681016001600160401b0381118282101715620007a857620007a86200073c565b604052919050565b600082601f830112620007c257600080fd5b815160206001600160401b03821115620007e057620007e06200073c565b6005620007f18284831b016200077d565b83815260a093840286018301938382019190888611156200081157600080fd5b8488015b86811015620008a65781818b0312156200082f5760008081fd5b6200083962000752565b81516001600160a01b0381168114620008525760008081fd5b8152818701518015158114620008685760008081fd5b818801526040828101519082015260608083015190820152608080830151878110620008945760008081fd5b90820152845292850192810162000815565b509098975050505050505050565b60008060408385031215620008c857600080fd5b82516001600160401b0380821115620008e057600080fd5b818501915085601f830112620008f557600080fd5b8151818111156200090a576200090a6200073c565b602062000920601f8301601f191682016200077d565b82815288828487010111156200093557600080fd5b60005b838110156200095557858101830151828201840152820162000938565b5060009281018201929092528601519094509150808211156200097757600080fd5b506200098685828601620007b0565b9150509250929050565b634e487b7160e01b600052603260045260246000fd5b634e487b7160e01b600052602160045260246000fd5b60805160a05160c05160e05161010051610120516101405161016051610180516101a0516101c0516101e05161020051610220516102405161026051610280516102a0516102c0516102e05161030051610320516103405161036051610380516103a05161249e62000d6c6000396000818161069d015281816110c1015281816111c6015281816112c6015281816119aa0152611aa9015260008181610677015281816111a0015281816112a00152611a830152600081816106510152818161117a0152818161127a0152611a5d01526000818161062901528181611152015281816112520152611a350152600081816105ed0152818161108001528181611116015281816112160152818161196901526119f901526000818161058f01528181610e4601528181610f4b0152818161104b015281816117f801526118f701526000818161056901528181610f250152818161102501526118d101526000818161054301528181610eff01528181610fff01526118ab01526000818161051b01528181610ed701528181610fd701526118830152600081816104df01528181610e0501528181610e9b01528181610f9b015281816117b7015261184701526000818161048101528181610bcb01528181610cd001528181610dd001528181611646015261174501526000818161045b01528181610caa01528181610daa015261171f01526000818161043501528181610c8401528181610d8401526116f901526000818161040d01528181610c5c01528181610d5c01526116d10152600081816103d101528181610b8a01528181610c2001528181610d200152818161160501526116950152600081816103730152818161095001528181610a5501528181610b5501528181611494015261159301526000818161034d01528181610a2f01528181610b2f015261156d01526000818161032701528181610a0901528181610b0901526115470152600081816102ff015281816109e101528181610ae1015261151f0152600081816102c30152818161090f015281816109a501528181610aa50152818161145301526114e3015260008181610265015281816107d4015281816108db01526113dc01526000818161023f015281816107ae015281816108b501526113b6015260008181610219015281816107880152818161088f01526113900152600081816101f1015281816107600152818161086701526113680152600081816101b5015281816107240152818161082b015261132c015260008181611b300152611bf5015261249e6000f3fe608060405234801561001057600080fd5b50600436106100885760003560e01c8063d643a8cf1161005b578063d643a8cf146100e1578063e6aa216c14610133578063f3190c8914610133578063f763f7a6146100a157600080fd5b806336c1387e1461008d5780638e7bfbc0146100a157806394f253ef146100b7578063abd5f95d146100cc575b600080fd5b604051601b81526020015b60405180910390f35b6100a9610140565b604051908152602001610098565b6100bf61014c565b6040516100989190612079565b6100d46106f1565b6040516100989190612136565b6100e96106fb565b604080519a8b5260208b0199909952978901969096526060880194909452608087019290925260a086015260c085015260e084015261010083015261012082015261014001610098565b6100a9611305565b905090565b600061013b600161130d565b60408051600580825260c08201909252606091816020015b6101936040805160a0810182526000808252602082018190529181018290526060810182905290608082015290565b8152602001906001900390816101645790505090506040518060a001604052807f000000000000000000000000000000000000000000000000000000000000000073ffffffffffffffffffffffffffffffffffffffff1681526020017f0000000000000000000000000000000000000000000000000000000000000000151581526020017f000000000000000000000000000000000000000000000000000000000000000081526020017f000000000000000000000000000000000000000000000000000000000000000081526020017f000000000000000000000000000000000000000000000000000000000000000060048111156102955761029561204a565b815250816000815181106102ab576102ab6121d1565b60200260200101819052506040518060a001604052807f000000000000000000000000000000000000000000000000000000000000000073ffffffffffffffffffffffffffffffffffffffff1681526020017f0000000000000000000000000000000000000000000000000000000000000000151581526020017f000000000000000000000000000000000000000000000000000000000000000081526020017f000000000000000000000000000000000000000000000000000000000000000081526020017f000000000000000000000000000000000000000000000000000000000000000060048111156103a3576103a361204a565b815250816001815181106103b9576103b96121d1565b60200260200101819052506040518060a001604052807f000000000000000000000000000000000000000000000000000000000000000073ffffffffffffffffffffffffffffffffffffffff1681526020017f0000000000000000000000000000000000000000000000000000000000000000151581526020017f000000000000000000000000000000000000000000000000000000000000000081526020017f000000000000000000000000000000000000000000000000000000000000000081526020017f000000000000000000000000000000000000000000000000000000000000000060048111156104b1576104b161204a565b815250816002815181106104c7576104c76121d1565b60200260200101819052506040518060a001604052807f000000000000000000000000000000000000000000000000000000000000000073ffffffffffffffffffffffffffffffffffffffff1681526020017f0000000000000000000000000000000000000000000000000000000000000000151581526020017f000000000000000000000000000000000000000000000000000000000000000081526020017f000000000000000000000000000000000000000000000000000000000000000081526020017f000000000000000000000000000000000000000000000000000000000000000060048111156105bf576105bf61204a565b815250816003815181106105d5576105d56121d1565b60200260200101819052506040518060a001604052807f000000000000000000000000000000000000000000000000000000000000000073ffffffffffffffffffffffffffffffffffffffff1681526020017f0000000000000000000000000000000000000000000000000000000000000000151581526020017f000000000000000000000000000000000000000000000000000000000000000081526020017f000000000000000000000000000000000000000000000000000000000000000081526020017f000000000000000000000000000000000000000000000000000000000000000060048111156106cd576106cd61204a565b815250816004815181106106e3576106e36121d1565b602002602001018190525090565b606061013b611b1e565b600080808080808080808061080b610715601b600a61234f565b60016040518060a001604052807f000000000000000000000000000000000000000000000000000000000000000073ffffffffffffffffffffffffffffffffffffffff1681526020017f0000000000000000000000000000000000000000000000000000000000000000151581526020017f000000000000000000000000000000000000000000000000000000000000000081526020017f000000000000000000000000000000000000000000000000000000000000000081526020017f000000000000000000000000000000000000000000000000000000000000000060048111156108045761080461204a565b9052611c83565b995061090b61081c601b600a61234f565b60006040518060a001604052807f000000000000000000000000000000000000000000000000000000000000000073ffffffffffffffffffffffffffffffffffffffff1681526020017f0000000000000000000000000000000000000000000000000000000000000000151581526020017f000000000000000000000000000000000000000000000000000000000000000081526020017f000000000000000000000000000000000000000000000000000000000000000081526020017f000000000000000000000000000000000000000000000000000000000000000060048111156108045761080461204a565b98507f000000000000000000000000000000000000000000000000000000000000000073ffffffffffffffffffffffffffffffffffffffff16151580610982575060037f000000000000000000000000000000000000000000000000000000000000000060048111156109805761098061204a565b145b15610b8857610a85610996601b600a61234f565b60016040518060a001604052807f000000000000000000000000000000000000000000000000000000000000000073ffffffffffffffffffffffffffffffffffffffff1681526020017f0000000000000000000000000000000000000000000000000000000000000000151581526020017f000000000000000000000000000000000000000000000000000000000000000081526020017f000000000000000000000000000000000000000000000000000000000000000081526020017f000000000000000000000000000000000000000000000000000000000000000060048111156108045761080461204a565b9750610b85610a96601b600a61234f565b60006040518060a001604052807f000000000000000000000000000000000000000000000000000000000000000073ffffffffffffffffffffffffffffffffffffffff1681526020017f0000000000000000000000000000000000000000000000000000000000000000151581526020017f000000000000000000000000000000000000000000000000000000000000000081526020017f000000000000000000000000000000000000000000000000000000000000000081526020017f000000000000000000000000000000000000000000000000000000000000000060048111156108045761080461204a565b96505b7f000000000000000000000000000000000000000000000000000000000000000073ffffffffffffffffffffffffffffffffffffffff16151580610bfd575060037f00000000000000000000000000000000000000000000000000000000000000006004811115610bfb57610bfb61204a565b145b15610e0357610d00610c11601b600a61234f565b60016040518060a001604052807f000000000000000000000000000000000000000000000000000000000000000073ffffffffffffffffffffffffffffffffffffffff1681526020017f0000000000000000000000000000000000000000000000000000000000000000151581526020017f000000000000000000000000000000000000000000000000000000000000000081526020017f000000000000000000000000000000000000000000000000000000000000000081526020017f000000000000000000000000000000000000000000000000000000000000000060048111156108045761080461204a565b9550610e00610d11601b600a61234f565b60006040518060a001604052807f000000000000000000000000000000000000000000000000000000000000000073ffffffffffffffffffffffffffffffffffffffff1681526020017f0000000000000000000000000000000000000000000000000000000000000000151581526020017f000000000000000000000000000000000000000000000000000000000000000081526020017f000000000000000000000000000000000000000000000000000000000000000081526020017f000000000000000000000000000000000000000000000000000000000000000060048111156108045761080461204a565b94505b7f000000000000000000000000000000000000000000000000000000000000000073ffffffffffffffffffffffffffffffffffffffff16151580610e78575060037f00000000000000000000000000000000000000000000000000000000000000006004811115610e7657610e7661204a565b145b1561107e57610f7b610e8c601b600a61234f565b60016040518060a001604052807f000000000000000000000000000000000000000000000000000000000000000073ffffffffffffffffffffffffffffffffffffffff1681526020017f0000000000000000000000000000000000000000000000000000000000000000151581526020017f000000000000000000000000000000000000000000000000000000000000000081526020017f000000000000000000000000000000000000000000000000000000000000000081526020017f000000000000000000000000000000000000000000000000000000000000000060048111156108045761080461204a565b935061107b610f8c601b600a61234f565b60006040518060a001604052807f000000000000000000000000000000000000000000000000000000000000000073ffffffffffffffffffffffffffffffffffffffff1681526020017f0000000000000000000000000000000000000000000000000000000000000000151581526020017f000000000000000000000000000000000000000000000000000000000000000081526020017f000000000000000000000000000000000000000000000000000000000000000081526020017f000000000000000000000000000000000000000000000000000000000000000060048111156108045761080461204a565b92505b7f000000000000000000000000000000000000000000000000000000000000000073ffffffffffffffffffffffffffffffffffffffff161515806110f3575060037f000000000000000000000000000000000000000000000000000000000000000060048111156110f1576110f161204a565b145b156112f9576111f6611107601b600a61234f565b60016040518060a001604052807f000000000000000000000000000000000000000000000000000000000000000073ffffffffffffffffffffffffffffffffffffffff1681526020017f0000000000000000000000000000000000000000000000000000000000000000151581526020017f000000000000000000000000000000000000000000000000000000000000000081526020017f000000000000000000000000000000000000000000000000000000000000000081526020017f000000000000000000000000000000000000000000000000000000000000000060048111156108045761080461204a565b91506112f6611207601b600a61234f565b60006040518060a001604052807f000000000000000000000000000000000000000000000000000000000000000073ffffffffffffffffffffffffffffffffffffffff1681526020017f0000000000000000000000000000000000000000000000000000000000000000151581526020017f000000000000000000000000000000000000000000000000000000000000000081526020017f000000000000000000000000000000000000000000000000000000000000000081526020017f000000000000000000000000000000000000000000000000000000000000000060048111156108045761080461204a565b90505b90919293949596979899565b600061013b60005b600061140c61131e601b600a61234f565b836040518060a001604052807f000000000000000000000000000000000000000000000000000000000000000073ffffffffffffffffffffffffffffffffffffffff1681526020017f0000000000000000000000000000000000000000000000000000000000000000151581526020017f000000000000000000000000000000000000000000000000000000000000000081526020017f000000000000000000000000000000000000000000000000000000000000000081526020017f000000000000000000000000000000000000000000000000000000000000000060048111156108045761080461204a565b905080600003611451576040517fc82fc46500000000000000000000000000000000000000000000000000000000815261ebf360048201526024015b60405180910390fd5b7f000000000000000000000000000000000000000000000000000000000000000073ffffffffffffffffffffffffffffffffffffffff161580156114c7575060037f000000000000000000000000000000000000000000000000000000000000000060048111156114c4576114c461204a565b14155b156114d157919050565b6115c381836040518060a001604052807f000000000000000000000000000000000000000000000000000000000000000073ffffffffffffffffffffffffffffffffffffffff1681526020017f0000000000000000000000000000000000000000000000000000000000000000151581526020017f000000000000000000000000000000000000000000000000000000000000000081526020017f000000000000000000000000000000000000000000000000000000000000000081526020017f000000000000000000000000000000000000000000000000000000000000000060048111156108045761080461204a565b905080600003611603576040517fc82fc46500000000000000000000000000000000000000000000000000000000815261ebf36004820152602401611448565b7f000000000000000000000000000000000000000000000000000000000000000073ffffffffffffffffffffffffffffffffffffffff16158015611679575060037f000000000000000000000000000000000000000000000000000000000000000060048111156116765761167661204a565b14155b1561168357919050565b61177581836040518060a001604052807f000000000000000000000000000000000000000000000000000000000000000073ffffffffffffffffffffffffffffffffffffffff1681526020017f0000000000000000000000000000000000000000000000000000000000000000151581526020017f000000000000000000000000000000000000000000000000000000000000000081526020017f000000000000000000000000000000000000000000000000000000000000000081526020017f000000000000000000000000000000000000000000000000000000000000000060048111156108045761080461204a565b9050806000036117b5576040517fc82fc46500000000000000000000000000000000000000000000000000000000815261ebf36004820152602401611448565b7f000000000000000000000000000000000000000000000000000000000000000073ffffffffffffffffffffffffffffffffffffffff1615801561182b575060037f000000000000000000000000000000000000000000000000000000000000000060048111156118285761182861204a565b14155b1561183557919050565b61192781836040518060a001604052807f000000000000000000000000000000000000000000000000000000000000000073ffffffffffffffffffffffffffffffffffffffff1681526020017f0000000000000000000000000000000000000000000000000000000000000000151581526020017f000000000000000000000000000000000000000000000000000000000000000081526020017f000000000000000000000000000000000000000000000000000000000000000081526020017f000000000000000000000000000000000000000000000000000000000000000060048111156108045761080461204a565b905080600003611967576040517fc82fc46500000000000000000000000000000000000000000000000000000000815261ebf36004820152602401611448565b7f000000000000000000000000000000000000000000000000000000000000000073ffffffffffffffffffffffffffffffffffffffff161580156119dd575060037f000000000000000000000000000000000000000000000000000000000000000060048111156119da576119da61204a565b14155b156119e757919050565b611ad981836040518060a001604052807f000000000000000000000000000000000000000000000000000000000000000073ffffffffffffffffffffffffffffffffffffffff1681526020017f0000000000000000000000000000000000000000000000000000000000000000151581526020017f000000000000000000000000000000000000000000000000000000000000000081526020017f000000000000000000000000000000000000000000000000000000000000000081526020017f000000000000000000000000000000000000000000000000000000000000000060048111156108045761080461204a565b905080600003611b19576040517fc82fc46500000000000000000000000000000000000000000000000000000000815261ebf36004820152602401611448565b919050565b606060005b602081108015611b8957507f00000000000000000000000000000000000000000000000000000000000000008160208110611b6057611b606121d1565b1a60f81b7fff000000000000000000000000000000000000000000000000000000000000001615155b15611ba05780611b988161235b565b915050611b23565b60008167ffffffffffffffff811115611bbb57611bbb6121a2565b6040519080825280601f01601f191660200182016040528015611be5576020820181803683370190505b50905060005b82811015611c7c577f00000000000000000000000000000000000000000000000000000000000000008160208110611c2557611c256121d1565b1a60f81b828281518110611c3b57611c3b6121d1565b60200101907effffffffffffffffffffffffffffffffffffffffffffffffffffffffffffff1916908160001a90535080611c748161235b565b915050611beb565b5092915050565b6000611c988260000151836080015185611d1e565b90508160600151826040015182611caf9190612393565b611cb991906123aa565b905081602001518015611ccc5750600081115b15611cf65780611cde601b6002612393565b611ce990600a61234f565b611cf391906123aa565b90505b611d02601b600a61234f565b611d0c8286612393565b611d1691906123aa565b949350505050565b60006001836004811115611d3457611d3461204a565b1480611d5157506002836004811115611d4f57611d4f61204a565b145b15611d6657611d5f84611de8565b9050611de1565b6000836004811115611d7a57611d7a61204a565b03611d8957611d5f8483611e7f565b6004836004811115611d9d57611d9d61204a565b03611dab57611d5f84611fa0565b6040517fc82fc46500000000000000000000000000000000000000000000000000000000815261ebf26004820152602401611448565b9392505050565b60008173ffffffffffffffffffffffffffffffffffffffff1663feaf968c6040518163ffffffff1660e01b815260040160a060405180830381865afa925050508015611e6f575060408051601f3d9081017fffffffffffffffffffffffffffffffffffffffffffffffffffffffffffffffe0168201909252611e6c918101906123ff565b60015b15611b1957509195945050505050565b60008115611f18578273ffffffffffffffffffffffffffffffffffffffff16638e7bfbc06040518163ffffffff1660e01b8152600401602060405180830381865afa925050508015611f0c575060408051601f3d9081017fffffffffffffffffffffffffffffffffffffffffffffffffffffffffffffffe0168201909252611f099181019061244f565b60015b15611f9a579050611f9a565b8273ffffffffffffffffffffffffffffffffffffffff1663f3190c896040518163ffffffff1660e01b8152600401602060405180830381865afa925050508015611f0c575060408051601f3d9081017fffffffffffffffffffffffffffffffffffffffffffffffffffffffffffffffe0168201909252611f099181019061244f565b92915050565b600073ffffffffffffffffffffffffffffffffffffffff82166307a2d13a611fca601b600a61234f565b6040518263ffffffff1660e01b8152600401611fe891815260200190565b602060405180830381865afa92505050801561203f575060408051601f3d9081017fffffffffffffffffffffffffffffffffffffffffffffffffffffffffffffffe016820190925261203c9181019061244f565b60015b15611b195792915050565b7f4e487b7100000000000000000000000000000000000000000000000000000000600052602160045260246000fd5b60208082528251828201819052600091906040908185019086840185805b83811015612128578251805173ffffffffffffffffffffffffffffffffffffffff168652878101511515888701528681015187870152606080820151908701526080908101519060058210612113577f4e487b710000000000000000000000000000000000000000000000000000000084526021600452602484fd5b86015260a09094019391860191600101612097565b509298975050505050505050565b600060208083528351808285015260005b8181101561216357858101830151858201604001528201612147565b5060006040828601015260407fffffffffffffffffffffffffffffffffffffffffffffffffffffffffffffffe0601f8301168501019250505092915050565b7f4e487b7100000000000000000000000000000000000000000000000000000000600052604160045260246000fd5b7f4e487b7100000000000000000000000000000000000000000000000000000000600052603260045260246000fd5b7f4e487b7100000000000000000000000000000000000000000000000000000000600052601160045260246000fd5b600181815b8085111561228857817fffffffffffffffffffffffffffffffffffffffffffffffffffffffffffffffff0482111561226e5761226e612200565b8085161561227b57918102915b93841c9390800290612234565b509250929050565b60008261229f57506001611f9a565b816122ac57506000611f9a565b81600181146122c257600281146122cc576122e8565b6001915050611f9a565b60ff8411156122dd576122dd612200565b50506001821b611f9a565b5060208310610133831016604e8410600b841016171561230b575081810a611f9a565b612315838361222f565b807fffffffffffffffffffffffffffffffffffffffffffffffffffffffffffffffff0482111561234757612347612200565b029392505050565b6000611de18383612290565b60007fffffffffffffffffffffffffffffffffffffffffffffffffffffffffffffffff820361238c5761238c612200565b5060010190565b8082028115828204841417611f9a57611f9a612200565b6000826123e0577f4e487b7100000000000000000000000000000000000000000000000000000000600052601260045260246000fd5b500490565b805169ffffffffffffffffffff81168114611b1957600080fd5b600080600080600060a0868803121561241757600080fd5b612420866123e5565b9450602086015193506040860151925060608601519150612443608087016123e5565b90509295509295909350565b60006020828403121561246157600080fd5b505191905056fea2646970667358221220b84c41aea4056b75f45f5375e3b72cc3f4fa4afcd3ab96b4979eadeaa198e32a64736f6c63430008150033"
}