{
  "address": "0x71d8B000488BA04DFCf45b2b282E9EF355595B39",
  "abi": [
    {
      "inputs": [
        {
          "internalType": "address",
          "name": "liquidity_",
          "type": "address"
        },
        {
          "internalType": "uint256",
          "name": "percentRateChangeAllowed_",
          "type": "uint256"
        },
        {
          "internalType": "uint256",
          "name": "cooldown_",
          "type": "uint256"
        }
      ],
      "stateMutability": "nonpayable",
      "type": "constructor"
    },
    {
      "inputs": [
        {
          "internalType": "uint256",
          "name": "errorId_",
          "type": "uint256"
        }
      ],
      "name": "FluidConfigError",
      "type": "error"
    },
    {
      "anonymous": false,
      "inputs": [
        {
          "indexed": false,
          "internalType": "address",
          "name": "borrowToken",
          "type": "address"
        },
        {
          "indexed": false,
          "internalType": "uint256",
          "name": "oldRateKink1",
          "type": "uint256"
        },
        {
          "indexed": false,
          "internalType": "uint256",
          "name": "newRateKink1",
          "type": "uint256"
        },
        {
          "indexed": false,
          "internalType": "uint256",
          "name": "oldRateKink2",
          "type": "uint256"
        },
        {
          "indexed": false,
          "internalType": "uint256",
          "name": "newRateKink2",
          "type": "uint256"
        }
      ],
      "name": "LogUpdateRateAtKink",
      "type": "event"
    },
    {
      "inputs": [],
      "name": "COOLDOWN",
      "outputs": [
        {
          "internalType": "uint256",
          "name": "",
          "type": "uint256"
        }
      ],
      "stateMutability": "view",
      "type": "function"
    },
    {
      "inputs": [],
      "name": "LIQUIDITY",
      "outputs": [
        {
          "internalType": "contract IFluidLiquidity",
          "name": "",
          "type": "address"
        }
      ],
      "stateMutability": "view",
      "type": "function"
    },
    {
      "inputs": [],
      "name": "PERCENT_RATE_CHANGE_ALLOWED",
      "outputs": [
        {
          "internalType": "uint256",
          "name": "",
          "type": "uint256"
        }
      ],
      "stateMutability": "view",
      "type": "function"
    },
    {
      "inputs": [],
      "name": "TEAM_MULTISIG",
      "outputs": [
        {
          "internalType": "address",
          "name": "",
          "type": "address"
        }
      ],
      "stateMutability": "view",
      "type": "function"
    },
    {
      "inputs": [],
      "name": "TEAM_MULTISIG2",
      "outputs": [
        {
          "internalType": "address",
          "name": "",
          "type": "address"
        }
      ],
      "stateMutability": "view",
      "type": "function"
    },
    {
      "inputs": [
        {
          "internalType": "address",
          "name": "",
          "type": "address"
        }
      ],
      "name": "tokenLastUpdateTimestamp",
      "outputs": [
        {
          "internalType": "uint256",
          "name": "",
          "type": "uint256"
        }
      ],
      "stateMutability": "view",
      "type": "function"
    },
    {
      "inputs": [
        {
          "components": [
            {
              "internalType": "address",
              "name": "token",
              "type": "address"
            },
            {
              "internalType": "uint256",
              "name": "rateAtUtilizationKink",
              "type": "uint256"
            }
          ],
          "internalType": "struct Structs.RateAtKinkV1",
          "name": "rateStruct_",
          "type": "tuple"
        }
      ],
      "name": "updateRateDataV1",
      "outputs": [],
      "stateMutability": "nonpayable",
      "type": "function"
    },
    {
      "inputs": [
        {
          "components": [
            {
              "internalType": "address",
              "name": "token",
              "type": "address"
            },
            {
              "internalType": "uint256",
              "name": "rateAtUtilizationKink1",
              "type": "uint256"
            },
            {
              "internalType": "uint256",
              "name": "rateAtUtilizationKink2",
              "type": "uint256"
            }
          ],
          "internalType": "struct Structs.RateAtKinkV2",
          "name": "rateStruct_",
          "type": "tuple"
        }
      ],
      "name": "updateRateDataV2",
      "outputs": [],
      "stateMutability": "nonpayable",
      "type": "function"
    }
  ],
  "transactionHash": "0xc90f5a29126162875e0f9f3d9c7840d49d73fc54d3e7c67e489cc74560956dcd",
  "args": [
    "0x52Aa899454998Be5b000Ad077a46Bbe360F4e497",
    2000,
    1
  ],
  "numDeployments": 1,
  "solcInputHash": "5228629dba1e4b693c7dacd40c0694f4",
  "bytecode": "0x60e060405234801561001057600080fd5b5060405161112038038061112083398101604081905261002f916100cf565b6001600160a01b03831661006057604051636801712d60e11b8152620186cb60048201526024015b60405180910390fd5b81158061006b575080155b1561008e57604051636801712d60e11b8152620186cb6004820152602401610057565b6127108211156100b657604051636801712d60e11b8152620186cb6004820152602401610057565b6001600160a01b0390921660805260a05260c052610112565b6000806000606084860312156100e457600080fd5b83516001600160a01b03811681146100fb57600080fd5b602085015160409095015190969495509392505050565b60805160a05160c051610fa161017f600039600081816101410152818161034501526108e30152600081816101960152818161044b0152818161048101526109f80152600081816092015281816102940152818161063c015281816108320152610b950152610fa16000f3fe608060405234801561001057600080fd5b50600436106100885760003560e01c8063a2724a4d1161005b578063a2724a4d1461013c578063ae46749314610163578063b788f3a114610176578063cdcb13391461019157600080fd5b80632861c7d11461008d57806363baa025146100de578063958b65351461010c57806395ae47e114610121575b600080fd5b6100b47f000000000000000000000000000000000000000000000000000000000000000081565b60405173ffffffffffffffffffffffffffffffffffffffff90911681526020015b60405180910390f35b6100fe6100ec366004610d20565b60006020819052908152604090205481565b6040519081526020016100d5565b61011f61011a366004610d56565b6101b8565b005b6100b4731e2e1aed876f67fe4fd54090fd7b8f57ce23421981565b6100fe7f000000000000000000000000000000000000000000000000000000000000000081565b61011f610171366004610d6e565b610760565b6100b4734f6f977acdd1177dcd81ab83074855ecb9c2d49e81565b6100fe7f000000000000000000000000000000000000000000000000000000000000000081565b734f6f977acdd1177dcd81ab83074855ecb9c2d49e33148015906101f05750731e2e1aed876f67fe4fd54090fd7b8f57ce2342193314155b15610231576040517fd002e25a000000000000000000000000000000000000000000000000000000008152620186ca60048201526024015b60405180910390fd5b600061024a60066102456020850185610d20565b610c80565b6040517fb5c736e40000000000000000000000000000000000000000000000000000000081526004810182905290915060009073ffffffffffffffffffffffffffffffffffffffff7f0000000000000000000000000000000000000000000000000000000000000000169063b5c736e490602401602060405180830381865afa1580156102db573d6000803e3d6000fd5b505050506040513d601f19601f820116820180604052508101906102ff9190610d80565b905080600f16600214610343576040517fd002e25a000000000000000000000000000000000000000000000000000000008152620186cd6004820152602401610228565b7f00000000000000000000000000000000000000000000000000000000000000006000806103746020870187610d20565b73ffffffffffffffffffffffffffffffffffffffff1681526020810191909152604001600020546103a59042610dc8565b10156103e2576040517fd002e25a000000000000000000000000000000000000000000000000000000008152620186cc6004820152602401610228565b6104386040518060e00160405280600073ffffffffffffffffffffffffffffffffffffffff1681526020016000815260200160008152602001600081526020016000815260200160008152602001600081525090565b61ffff602483901c811690604484901c167f0000000000000000000000000000000000000000000000000000000000000000610478836020890135610ccb565b11806104b057507f00000000000000000000000000000000000000000000000000000000000000006104ae828860400135610ccb565b115b156104ec576040517fd002e25a000000000000000000000000000000000000000000000000000000008152620186c96004820152602401610228565b6104f96020870187610d20565b73ffffffffffffffffffffffffffffffffffffffff168352601484901c61ffff908116602080860191909152603486901c8216604080870191909152600487901c831660608701529088013560808601528781013560a0860152605486901c90911660c085015280516001808252818301909252600091816020015b6105cb6040518060e00160405280600073ffffffffffffffffffffffffffffffffffffffff1681526020016000815260200160008152602001600081526020016000815260200160008152602001600081525090565b81526020019060019003908161057557905050905083816000815181106105f4576105f4610ddb565b60209081029190910101526040517f9dde597700000000000000000000000000000000000000000000000000000000815273ffffffffffffffffffffffffffffffffffffffff7f00000000000000000000000000000000000000000000000000000000000000001690639dde597790610671908490600401610e0a565b600060405180830381600087803b15801561068b57600080fd5b505af115801561069f573d6000803e3d6000fd5b50429250600091508190506106b760208b018b610d20565b73ffffffffffffffffffffffffffffffffffffffff168152602080820192909252604001600020919091557f6dcaede9edba49e006cd7e84dd7d6efb7c552d258fc90525c171a47ad5adbb4c9061071090890189610d20565b6040805173ffffffffffffffffffffffffffffffffffffffff909216825260208281018790528a01358282015260608201859052890135608082015260a00160405180910390a150505050505050565b734f6f977acdd1177dcd81ab83074855ecb9c2d49e33148015906107985750731e2e1aed876f67fe4fd54090fd7b8f57ce2342193314155b156107d4576040517fd002e25a000000000000000000000000000000000000000000000000000000008152620186ca6004820152602401610228565b60006107e860066102456020850185610d20565b6040517fb5c736e40000000000000000000000000000000000000000000000000000000081526004810182905290915060009073ffffffffffffffffffffffffffffffffffffffff7f0000000000000000000000000000000000000000000000000000000000000000169063b5c736e490602401602060405180830381865afa158015610879573d6000803e3d6000fd5b505050506040513d601f19601f8201168201806040525081019061089d9190610d80565b905080600f166001146108e1576040517fd002e25a000000000000000000000000000000000000000000000000000000008152620186cd6004820152602401610228565b7f00000000000000000000000000000000000000000000000000000000000000006000806109126020870187610d20565b73ffffffffffffffffffffffffffffffffffffffff1681526020810191909152604001600020546109439042610dc8565b1015610980576040517fd002e25a000000000000000000000000000000000000000000000000000000008152620186cc6004820152602401610228565b6109c86040518060a00160405280600073ffffffffffffffffffffffffffffffffffffffff168152602001600081526020016000815260200160008152602001600081525090565b6109d56020850185610d20565b73ffffffffffffffffffffffffffffffffffffffff168152602482901c61ffff167f0000000000000000000000000000000000000000000000000000000000000000610a25826020880135610ccb565b1115610a62576040517fd002e25a000000000000000000000000000000000000000000000000000000008152620186c96004820152602401610228565b610a6f6020860186610d20565b73ffffffffffffffffffffffffffffffffffffffff16825261ffff601484901c8116602080850191909152600485901c821660408501528601356060840152603484901c16608083015260006001604051908082528060200260200182016040528015610b3657816020015b610b236040518060a00160405280600073ffffffffffffffffffffffffffffffffffffffff168152602001600081526020016000815260200160008152602001600081525090565b815260200190600190039081610adb5790505b5090508281600081518110610b4d57610b4d610ddb565b60209081029190910101526040517f3fad77fc00000000000000000000000000000000000000000000000000000000815273ffffffffffffffffffffffffffffffffffffffff7f00000000000000000000000000000000000000000000000000000000000000001690633fad77fc90610bca908490600401610ea2565b600060405180830381600087803b158015610be457600080fd5b505af1158015610bf8573d6000803e3d6000fd5b5050845173ffffffffffffffffffffffffffffffffffffffff9081166000908152602081815260408083204290558851815194168452838201889052908b0135908301526060820181905260808201527f6dcaede9edba49e006cd7e84dd7d6efb7c552d258fc90525c171a47ad5adbb4c925060a001905060405180910390a1505050505050565b6040805173ffffffffffffffffffffffffffffffffffffffff831660208201529081018390526000906060016040516020818303038152906040528051906020012090505b92915050565b6000818303610cdc57506000610cc5565b81831115610cf557610cee8284610dc8565b9050610d02565b610cff8383610dc8565b90505b82610d0f82612710610f19565b610d199190610f30565b9392505050565b600060208284031215610d3257600080fd5b813573ffffffffffffffffffffffffffffffffffffffff81168114610d1957600080fd5b600060608284031215610d6857600080fd5b50919050565b600060408284031215610d6857600080fd5b600060208284031215610d9257600080fd5b5051919050565b7f4e487b7100000000000000000000000000000000000000000000000000000000600052601160045260246000fd5b81810381811115610cc557610cc5610d99565b7f4e487b7100000000000000000000000000000000000000000000000000000000600052603260045260246000fd5b602080825282518282018190526000919060409081850190868401855b82811015610e95578151805173ffffffffffffffffffffffffffffffffffffffff16855286810151878601528581015186860152606080820151908601526080808201519086015260a0808201519086015260c0908101519085015260e09093019290850190600101610e27565b5091979650505050505050565b602080825282518282018190526000919060409081850190868401855b82811015610e95578151805173ffffffffffffffffffffffffffffffffffffffff16855286810151878601528581015186860152606080820151908601526080908101519085015260a09093019290850190600101610ebf565b8082028115828204841417610cc557610cc5610d99565b600082610f66577f4e487b7100000000000000000000000000000000000000000000000000000000600052601260045260246000fd5b50049056fea26469706673582212204d9f9eb141a06cf4ffe2b2bf19f469ef4e096c82c400b91e42ec5cbe6ba6dcff64736f6c63430008150033",
  "devdoc": {
    "kind": "dev",
    "methods": {},
    "version": 1
  },
  "userdoc": {
    "events": {
      "LogUpdateRateAtKink(address,uint256,uint256,uint256,uint256)": {
        "notice": "emitted when borrow rate for specified borrow token is updated based on         team multisig input of rate at kinks"
      }
    },
    "kind": "user",
    "methods": {
      "TEAM_MULTISIG()": {
        "notice": "Team multisigs allowed to trigger methods"
      },
      "tokenLastUpdateTimestamp(address)": {
        "notice": "last timestamp when a token's rate was updated"
      }
    },
    "notice": "Sets borrow rate for specified borrow token at Liquidity based on team multisig input.",
    "version": 1
  },
  "storageLayout": {
    "storage": [
      {
        "astId": 7854,
        "contract": "contracts/config/ratesAuth/main.sol:FluidRatesAuth",
        "label": "tokenLastUpdateTimestamp",
        "offset": 0,
        "slot": "0",
        "type": "t_mapping(t_address,t_uint256)"
      }
    ],
    "types": {
      "t_address": {
        "encoding": "inplace",
        "label": "address",
        "numberOfBytes": "20"
      },
      "t_mapping(t_address,t_uint256)": {
        "encoding": "mapping",
        "key": "t_address",
        "label": "mapping(address => uint256)",
        "numberOfBytes": "32",
        "value": "t_uint256"
      },
      "t_uint256": {
        "encoding": "inplace",
        "label": "uint256",
        "numberOfBytes": "32"
      }
    }
  }
}