{
  "address": "0x83fB87c8E85AD854f1B2D030f925211C6ae71D6d",
  "abi": [
    {
      "inputs": [
        {
          "internalType": "address",
          "name": "lendingResolver_",
          "type": "address"
        }
      ],
      "stateMutability": "nonpayable",
      "type": "constructor"
    },
    {
      "inputs": [],
      "name": "FluidStakingRewardsResolver__AddressZero",
      "type": "error"
    },
    {
      "inputs": [],
      "name": "LENDING_RESOLVER",
      "outputs": [
        {
          "internalType": "contract IFluidLendingResolver",
          "name": "",
          "type": "address"
        }
      ],
      "stateMutability": "view",
      "type": "function"
    },
    {
      "inputs": [
        {
          "internalType": "address",
          "name": "reward_",
          "type": "address"
        }
      ],
      "name": "getFTokenStakingRewardsEntireData",
      "outputs": [
        {
          "components": [
            {
              "internalType": "uint256",
              "name": "rewardPerToken",
              "type": "uint256"
            },
            {
              "internalType": "uint256",
              "name": "getRewardForDuration",
              "type": "uint256"
            },
            {
              "internalType": "uint256",
              "name": "totalSupply",
              "type": "uint256"
            },
            {
              "internalType": "uint256",
              "name": "periodFinish",
              "type": "uint256"
            },
            {
              "internalType": "uint256",
              "name": "rewardRate",
              "type": "uint256"
            },
            {
              "internalType": "uint256",
              "name": "rewardsDuration",
              "type": "uint256"
            },
            {
              "internalType": "address",
              "name": "rewardsToken",
              "type": "address"
            },
            {
              "internalType": "address",
              "name": "fToken",
              "type": "address"
            }
          ],
          "internalType": "struct Structs.FTokenStakingRewardsDetails",
          "name": "r_",
          "type": "tuple"
        }
      ],
      "stateMutability": "view",
      "type": "function"
    },
    {
      "inputs": [
        {
          "internalType": "address[]",
          "name": "rewards_",
          "type": "address[]"
        }
      ],
      "name": "getFTokensStakingRewardsEntireData",
      "outputs": [
        {
          "components": [
            {
              "internalType": "uint256",
              "name": "rewardPerToken",
              "type": "uint256"
            },
            {
              "internalType": "uint256",
              "name": "getRewardForDuration",
              "type": "uint256"
            },
            {
              "internalType": "uint256",
              "name": "totalSupply",
              "type": "uint256"
            },
            {
              "internalType": "uint256",
              "name": "periodFinish",
              "type": "uint256"
            },
            {
              "internalType": "uint256",
              "name": "rewardRate",
              "type": "uint256"
            },
            {
              "internalType": "uint256",
              "name": "rewardsDuration",
              "type": "uint256"
            },
            {
              "internalType": "address",
              "name": "rewardsToken",
              "type": "address"
            },
            {
              "internalType": "address",
              "name": "fToken",
              "type": "address"
            }
          ],
          "internalType": "struct Structs.FTokenStakingRewardsDetails[]",
          "name": "r_",
          "type": "tuple[]"
        }
      ],
      "stateMutability": "view",
      "type": "function"
    },
    {
      "inputs": [
        {
          "internalType": "address",
          "name": "user_",
          "type": "address"
        },
        {
          "internalType": "address[]",
          "name": "rewards_",
          "type": "address[]"
        },
        {
          "components": [
            {
              "internalType": "address",
              "name": "tokenAddress",
              "type": "address"
            },
            {
              "internalType": "bool",
              "name": "eip2612Deposits",
              "type": "bool"
            },
            {
              "internalType": "bool",
              "name": "isNativeUnderlying",
              "type": "bool"
            },
            {
              "internalType": "string",
              "name": "name",
              "type": "string"
            },
            {
              "internalType": "string",
              "name": "symbol",
              "type": "string"
            },
            {
              "internalType": "uint256",
              "name": "decimals",
              "type": "uint256"
            },
            {
              "internalType": "address",
              "name": "asset",
              "type": "address"
            },
            {
              "internalType": "uint256",
              "name": "totalAssets",
              "type": "uint256"
            },
            {
              "internalType": "uint256",
              "name": "totalSupply",
              "type": "uint256"
            },
            {
              "internalType": "uint256",
              "name": "convertToShares",
              "type": "uint256"
            },
            {
              "internalType": "uint256",
              "name": "convertToAssets",
              "type": "uint256"
            },
            {
              "internalType": "uint256",
              "name": "rewardsRate",
              "type": "uint256"
            },
            {
              "internalType": "uint256",
              "name": "supplyRate",
              "type": "uint256"
            },
            {
              "internalType": "int256",
              "name": "rebalanceDifference",
              "type": "int256"
            },
            {
              "components": [
                {
                  "internalType": "bool",
                  "name": "modeWithInterest",
                  "type": "bool"
                },
                {
                  "internalType": "uint256",
                  "name": "supply",
                  "type": "uint256"
                },
                {
                  "internalType": "uint256",
                  "name": "withdrawalLimit",
                  "type": "uint256"
                },
                {
                  "internalType": "uint256",
                  "name": "lastUpdateTimestamp",
                  "type": "uint256"
                },
                {
                  "internalType": "uint256",
                  "name": "expandPercent",
                  "type": "uint256"
                },
                {
                  "internalType": "uint256",
                  "name": "expandDuration",
                  "type": "uint256"
                },
                {
                  "internalType": "uint256",
                  "name": "baseWithdrawalLimit",
                  "type": "uint256"
                },
                {
                  "internalType": "uint256",
                  "name": "withdrawableUntilLimit",
                  "type": "uint256"
                },
                {
                  "internalType": "uint256",
                  "name": "withdrawable",
                  "type": "uint256"
                }
              ],
              "internalType": "struct Structs.UserSupplyData",
              "name": "liquidityUserSupplyData",
              "type": "tuple"
            }
          ],
          "internalType": "struct Structs.FTokenDetails[]",
          "name": "fTokensDetails_",
          "type": "tuple[]"
        }
      ],
      "name": "getUserAllRewardsData",
      "outputs": [
        {
          "components": [
            {
              "internalType": "uint256",
              "name": "earned",
              "type": "uint256"
            },
            {
              "internalType": "uint256",
              "name": "fTokenShares",
              "type": "uint256"
            },
            {
              "internalType": "uint256",
              "name": "underlyingAssets",
              "type": "uint256"
            },
            {
              "internalType": "uint256",
              "name": "ftokenAllowance",
              "type": "uint256"
            }
          ],
          "internalType": "struct Structs.UserRewardDetails[]",
          "name": "u_",
          "type": "tuple[]"
        }
      ],
      "stateMutability": "view",
      "type": "function"
    },
    {
      "inputs": [
        {
          "internalType": "address",
          "name": "user_",
          "type": "address"
        },
        {
          "components": [
            {
              "internalType": "address",
              "name": "underlyingToken",
              "type": "address"
            },
            {
              "internalType": "address",
              "name": "rewardContract",
              "type": "address"
            }
          ],
          "internalType": "struct FluidStakingRewardsResolver.underlyingTokenToRewardsMap[]",
          "name": "rewardsMap_",
          "type": "tuple[]"
        }
      ],
      "name": "getUserPositions",
      "outputs": [
        {
          "components": [
            {
              "components": [
                {
                  "internalType": "address",
                  "name": "tokenAddress",
                  "type": "address"
                },
                {
                  "internalType": "bool",
                  "name": "eip2612Deposits",
                  "type": "bool"
                },
                {
                  "internalType": "bool",
                  "name": "isNativeUnderlying",
                  "type": "bool"
                },
                {
                  "internalType": "string",
                  "name": "name",
                  "type": "string"
                },
                {
                  "internalType": "string",
                  "name": "symbol",
                  "type": "string"
                },
                {
                  "internalType": "uint256",
                  "name": "decimals",
                  "type": "uint256"
                },
                {
                  "internalType": "address",
                  "name": "asset",
                  "type": "address"
                },
                {
                  "internalType": "uint256",
                  "name": "totalAssets",
                  "type": "uint256"
                },
                {
                  "internalType": "uint256",
                  "name": "totalSupply",
                  "type": "uint256"
                },
                {
                  "internalType": "uint256",
                  "name": "convertToShares",
                  "type": "uint256"
                },
                {
                  "internalType": "uint256",
                  "name": "convertToAssets",
                  "type": "uint256"
                },
                {
                  "internalType": "uint256",
                  "name": "rewardsRate",
                  "type": "uint256"
                },
                {
                  "internalType": "uint256",
                  "name": "supplyRate",
                  "type": "uint256"
                },
                {
                  "internalType": "int256",
                  "name": "rebalanceDifference",
                  "type": "int256"
                },
                {
                  "components": [
                    {
                      "internalType": "bool",
                      "name": "modeWithInterest",
                      "type": "bool"
                    },
                    {
                      "internalType": "uint256",
                      "name": "supply",
                      "type": "uint256"
                    },
                    {
                      "internalType": "uint256",
                      "name": "withdrawalLimit",
                      "type": "uint256"
                    },
                    {
                      "internalType": "uint256",
                      "name": "lastUpdateTimestamp",
                      "type": "uint256"
                    },
                    {
                      "internalType": "uint256",
                      "name": "expandPercent",
                      "type": "uint256"
                    },
                    {
                      "internalType": "uint256",
                      "name": "expandDuration",
                      "type": "uint256"
                    },
                    {
                      "internalType": "uint256",
                      "name": "baseWithdrawalLimit",
                      "type": "uint256"
                    },
                    {
                      "internalType": "uint256",
                      "name": "withdrawableUntilLimit",
                      "type": "uint256"
                    },
                    {
                      "internalType": "uint256",
                      "name": "withdrawable",
                      "type": "uint256"
                    }
                  ],
                  "internalType": "struct Structs.UserSupplyData",
                  "name": "liquidityUserSupplyData",
                  "type": "tuple"
                }
              ],
              "internalType": "struct Structs.FTokenDetails",
              "name": "fTokenDetails",
              "type": "tuple"
            },
            {
              "components": [
                {
                  "internalType": "uint256",
                  "name": "fTokenShares",
                  "type": "uint256"
                },
                {
                  "internalType": "uint256",
                  "name": "underlyingAssets",
                  "type": "uint256"
                },
                {
                  "internalType": "uint256",
                  "name": "underlyingBalance",
                  "type": "uint256"
                },
                {
                  "internalType": "uint256",
                  "name": "allowance",
                  "type": "uint256"
                }
              ],
              "internalType": "struct Structs.UserPosition",
              "name": "userPosition",
              "type": "tuple"
            },
            {
              "components": [
                {
                  "internalType": "uint256",
                  "name": "rewardPerToken",
                  "type": "uint256"
                },
                {
                  "internalType": "uint256",
                  "name": "getRewardForDuration",
                  "type": "uint256"
                },
                {
                  "internalType": "uint256",
                  "name": "totalSupply",
                  "type": "uint256"
                },
                {
                  "internalType": "uint256",
                  "name": "periodFinish",
                  "type": "uint256"
                },
                {
                  "internalType": "uint256",
                  "name": "rewardRate",
                  "type": "uint256"
                },
                {
                  "internalType": "uint256",
                  "name": "rewardsDuration",
                  "type": "uint256"
                },
                {
                  "internalType": "address",
                  "name": "rewardsToken",
                  "type": "address"
                },
                {
                  "internalType": "address",
                  "name": "fToken",
                  "type": "address"
                }
              ],
              "internalType": "struct Structs.FTokenStakingRewardsDetails",
              "name": "fTokenRewardsDetails",
              "type": "tuple"
            },
            {
              "components": [
                {
                  "internalType": "uint256",
                  "name": "earned",
                  "type": "uint256"
                },
                {
                  "internalType": "uint256",
                  "name": "fTokenShares",
                  "type": "uint256"
                },
                {
                  "internalType": "uint256",
                  "name": "underlyingAssets",
                  "type": "uint256"
                },
                {
                  "internalType": "uint256",
                  "name": "ftokenAllowance",
                  "type": "uint256"
                }
              ],
              "internalType": "struct Structs.UserRewardDetails",
              "name": "userRewardsDetails",
              "type": "tuple"
            }
          ],
          "internalType": "struct Structs.UserFTokenRewardsEntireData[]",
          "name": "u_",
          "type": "tuple[]"
        }
      ],
      "stateMutability": "view",
      "type": "function"
    },
    {
      "inputs": [
        {
          "internalType": "address",
          "name": "user_",
          "type": "address"
        },
        {
          "internalType": "address",
          "name": "reward_",
          "type": "address"
        },
        {
          "components": [
            {
              "internalType": "address",
              "name": "tokenAddress",
              "type": "address"
            },
            {
              "internalType": "bool",
              "name": "eip2612Deposits",
              "type": "bool"
            },
            {
              "internalType": "bool",
              "name": "isNativeUnderlying",
              "type": "bool"
            },
            {
              "internalType": "string",
              "name": "name",
              "type": "string"
            },
            {
              "internalType": "string",
              "name": "symbol",
              "type": "string"
            },
            {
              "internalType": "uint256",
              "name": "decimals",
              "type": "uint256"
            },
            {
              "internalType": "address",
              "name": "asset",
              "type": "address"
            },
            {
              "internalType": "uint256",
              "name": "totalAssets",
              "type": "uint256"
            },
            {
              "internalType": "uint256",
              "name": "totalSupply",
              "type": "uint256"
            },
            {
              "internalType": "uint256",
              "name": "convertToShares",
              "type": "uint256"
            },
            {
              "internalType": "uint256",
              "name": "convertToAssets",
              "type": "uint256"
            },
            {
              "internalType": "uint256",
              "name": "rewardsRate",
              "type": "uint256"
            },
            {
              "internalType": "uint256",
              "name": "supplyRate",
              "type": "uint256"
            },
            {
              "internalType": "int256",
              "name": "rebalanceDifference",
              "type": "int256"
            },
            {
              "components": [
                {
                  "internalType": "bool",
                  "name": "modeWithInterest",
                  "type": "bool"
                },
                {
                  "internalType": "uint256",
                  "name": "supply",
                  "type": "uint256"
                },
                {
                  "internalType": "uint256",
                  "name": "withdrawalLimit",
                  "type": "uint256"
                },
                {
                  "internalType": "uint256",
                  "name": "lastUpdateTimestamp",
                  "type": "uint256"
                },
                {
                  "internalType": "uint256",
                  "name": "expandPercent",
                  "type": "uint256"
                },
                {
                  "internalType": "uint256",
                  "name": "expandDuration",
                  "type": "uint256"
                },
                {
                  "internalType": "uint256",
                  "name": "baseWithdrawalLimit",
                  "type": "uint256"
                },
                {
                  "internalType": "uint256",
                  "name": "withdrawableUntilLimit",
                  "type": "uint256"
                },
                {
                  "internalType": "uint256",
                  "name": "withdrawable",
                  "type": "uint256"
                }
              ],
              "internalType": "struct Structs.UserSupplyData",
              "name": "liquidityUserSupplyData",
              "type": "tuple"
            }
          ],
          "internalType": "struct Structs.FTokenDetails",
          "name": "fTokenDetails_",
          "type": "tuple"
        }
      ],
      "name": "getUserRewardsData",
      "outputs": [
        {
          "components": [
            {
              "internalType": "uint256",
              "name": "earned",
              "type": "uint256"
            },
            {
              "internalType": "uint256",
              "name": "fTokenShares",
              "type": "uint256"
            },
            {
              "internalType": "uint256",
              "name": "underlyingAssets",
              "type": "uint256"
            },
            {
              "internalType": "uint256",
              "name": "ftokenAllowance",
              "type": "uint256"
            }
          ],
          "internalType": "struct Structs.UserRewardDetails",
          "name": "u_",
          "type": "tuple"
        }
      ],
      "stateMutability": "view",
      "type": "function"
    }
  ],
  "transactionHash": "0xa2484640f93056d7d2cbfacfdd4aff8133535b8c64652ea822ab87ec35287427",
  "args": [
    "0x8e72291D5e6f4AAB552cc827fB857a931Fc5CAC1"
  ],
  "numDeployments": 1,
  "solcInputHash": "4f63da12d66a256eeca1b26617ce10fe",
  "bytecode": "0x60a06040523480156200001157600080fd5b50604051620021b0380380620021b083398101604081905262000034916200006e565b6001600160a01b0381166200005c5760405163f3b8782960e01b815260040160405180910390fd5b6001600160a01b0316608052620000a0565b6000602082840312156200008157600080fd5b81516001600160a01b03811681146200009957600080fd5b9392505050565b6080516120ed620000c3600039600081816101250152610ac601526120ed6000f3fe608060405234801561001057600080fd5b50600436106100725760003560e01c8063da5f9a0b11610050578063da5f9a0b146100e0578063e2467bb814610100578063e6d355041461012057600080fd5b806328012427146100775780636e20931a146100a0578063ad2fa26d146100c0575b600080fd5b61008a610085366004611364565b61016c565b604051610097919061144e565b60405180910390f35b6100b36100ae3660046114bd565b610268565b604051610097919061151f565b6100d36100ce36600461154c565b6104b7565b6040516100979190611589565b6100f36100ee366004611631565b6105df565b604051610097919061164e565b61011361010e3660046116c2565b610a7b565b604051610097919061180c565b6101477f000000000000000000000000000000000000000000000000000000000000000081565b60405173ffffffffffffffffffffffffffffffffffffffff9091168152602001610097565b6060825167ffffffffffffffff81111561018857610188610f90565b6040519080825280602002602001820160405280156101e457816020015b6101d16040518060800160405280600081526020016000815260200160008152602001600081525090565b8152602001906001900390816101a65790505b50905060005b8351811015610260576102308585838151811061020957610209611afb565b602002602001015185848151811061022357610223611afb565b6020026020010151610268565b82828151811061024257610242611afb565b6020026020010181905250808061025890611b59565b9150506101ea565b509392505050565b6102936040518060800160405280600081526020016000815260200160008152602001600081525090565b73ffffffffffffffffffffffffffffffffffffffff8316156104b0576040517e8cc26200000000000000000000000000000000000000000000000000000000815273ffffffffffffffffffffffffffffffffffffffff8581166004830152849190821690628cc26290602401602060405180830381865afa15801561031c573d6000803e3d6000fd5b505050506040513d601f19601f820116820180604052508101906103409190611b91565b82526040517f70a0823100000000000000000000000000000000000000000000000000000000815273ffffffffffffffffffffffffffffffffffffffff86811660048301528216906370a0823190602401602060405180830381865afa1580156103ae573d6000803e3d6000fd5b505050506040513d601f19601f820116820180604052508101906103d29190611b91565b602083015260a08301516103e790600a611cca565b83610140015183602001516103fc9190611cd6565b6104069190611ced565b604083810191909152835190517fdd62ed3e00000000000000000000000000000000000000000000000000000000815273ffffffffffffffffffffffffffffffffffffffff878116600483015286811660248301529091169063dd62ed3e90604401602060405180830381865afa158015610485573d6000803e3d6000fd5b505050506040513d601f19601f820116820180604052508101906104a99190611b91565b6060830152505b9392505050565b6060815167ffffffffffffffff8111156104d3576104d3610f90565b60405190808252806020026020018201604052801561057857816020015b610565604051806101000160405280600081526020016000815260200160008152602001600081526020016000815260200160008152602001600073ffffffffffffffffffffffffffffffffffffffff168152602001600073ffffffffffffffffffffffffffffffffffffffff1681525090565b8152602001906001900390816104f15790505b50905060005b82518110156105d9576105a983828151811061059c5761059c611afb565b60200260200101516105df565b8282815181106105bb576105bb611afb565b602002602001018190525080806105d190611b59565b91505061057e565b50919050565b610653604051806101000160405280600081526020016000815260200160008152602001600081526020016000815260200160008152602001600073ffffffffffffffffffffffffffffffffffffffff168152602001600073ffffffffffffffffffffffffffffffffffffffff1681525090565b73ffffffffffffffffffffffffffffffffffffffff821615610a765760008290508073ffffffffffffffffffffffffffffffffffffffff1663cd3daf9d6040518163ffffffff1660e01b8152600401602060405180830381865afa1580156106bf573d6000803e3d6000fd5b505050506040513d601f19601f820116820180604052508101906106e39190611b91565b8260000181815250508073ffffffffffffffffffffffffffffffffffffffff16631c1f78eb6040518163ffffffff1660e01b8152600401602060405180830381865afa158015610737573d6000803e3d6000fd5b505050506040513d601f19601f8201168201806040525081019061075b9190611b91565b8260200181815250508073ffffffffffffffffffffffffffffffffffffffff166318160ddd6040518163ffffffff1660e01b8152600401602060405180830381865afa1580156107af573d6000803e3d6000fd5b505050506040513d601f19601f820116820180604052508101906107d39190611b91565b8260400181815250508073ffffffffffffffffffffffffffffffffffffffff1663ebe2b12b6040518163ffffffff1660e01b8152600401602060405180830381865afa158015610827573d6000803e3d6000fd5b505050506040513d601f19601f8201168201806040525081019061084b9190611b91565b8260600181815250508073ffffffffffffffffffffffffffffffffffffffff16637b0a47ee6040518163ffffffff1660e01b8152600401602060405180830381865afa15801561089f573d6000803e3d6000fd5b505050506040513d601f19601f820116820180604052508101906108c39190611b91565b8260800181815250508073ffffffffffffffffffffffffffffffffffffffff1663386a95256040518163ffffffff1660e01b8152600401602060405180830381865afa158015610917573d6000803e3d6000fd5b505050506040513d601f19601f8201168201806040525081019061093b9190611b91565b8260a00181815250508073ffffffffffffffffffffffffffffffffffffffff1663d1af0c7d6040518163ffffffff1660e01b8152600401602060405180830381865afa15801561098f573d6000803e3d6000fd5b505050506040513d601f19601f820116820180604052508101906109b39190611d28565b8260c0019073ffffffffffffffffffffffffffffffffffffffff16908173ffffffffffffffffffffffffffffffffffffffff16815250508073ffffffffffffffffffffffffffffffffffffffff166372f702f36040518163ffffffff1660e01b8152600401602060405180830381865afa158015610a35573d6000803e3d6000fd5b505050506040513d601f19601f82011682018060405250810190610a599190611d28565b73ffffffffffffffffffffffffffffffffffffffff1660e0830152505b919050565b6040517f2a6bc2dd00000000000000000000000000000000000000000000000000000000815273ffffffffffffffffffffffffffffffffffffffff83811660048301526060916000917f00000000000000000000000000000000000000000000000000000000000000001690632a6bc2dd90602401600060405180830381865afa158015610b0d573d6000803e3d6000fd5b505050506040513d6000823e601f3d9081017fffffffffffffffffffffffffffffffffffffffffffffffffffffffffffffffe0168201604052610b539190810190611e86565b80519091508067ffffffffffffffff811115610b7157610b71610f90565b604051908082528060200260200182016040528015610baa57816020015b610b97610d80565b815260200190600190039081610b8f5790505b5092506000805b82811015610d7657838181518110610bcb57610bcb611afb565b602002602001015160000151858281518110610be957610be9611afb565b602002602001015160000181905250838181518110610c0a57610c0a611afb565b602002602001015160200151858281518110610c2857610c28611afb565b60200260200101516020018190525060005b8651811015610ceb57868181518110610c5557610c55611afb565b60200260200101516000015173ffffffffffffffffffffffffffffffffffffffff16868381518110610c8957610c89611afb565b60200260200101516000015160c0015173ffffffffffffffffffffffffffffffffffffffff1603610cd957868181518110610cc657610cc6611afb565b6020026020010151602001519250610ceb565b80610ce381611b59565b915050610c3a565b50610cf5826105df565b858281518110610d0757610d07611afb565b602002602001015160400181905250610d3e8783878481518110610d2d57610d2d611afb565b602002602001015160000151610268565b858281518110610d5057610d50611afb565b602002602001015160600181905250600091508080610d6e90611b59565b915050610bb1565b5050505092915050565b6040518060800160405280610d93610e71565b8152602001610dc36040518060800160405280600081526020016000815260200160008152602001600081525090565b8152602001610e3c604051806101000160405280600081526020016000815260200160008152602001600081526020016000815260200160008152602001600073ffffffffffffffffffffffffffffffffffffffff168152602001600073ffffffffffffffffffffffffffffffffffffffff1681525090565b8152602001610e6c6040518060800160405280600081526020016000815260200160008152602001600081525090565b905290565b604051806101e00160405280600073ffffffffffffffffffffffffffffffffffffffff168152602001600015158152602001600015158152602001606081526020016060815260200160008152602001600073ffffffffffffffffffffffffffffffffffffffff16815260200160008152602001600081526020016000815260200160008152602001600081526020016000815260200160008152602001610e6c60405180610120016040528060001515815260200160008152602001600081526020016000815260200160008152602001600081526020016000815260200160008152602001600081525090565b73ffffffffffffffffffffffffffffffffffffffff81168114610f8257600080fd5b50565b8035610a7681610f60565b7f4e487b7100000000000000000000000000000000000000000000000000000000600052604160045260246000fd5b604051610120810167ffffffffffffffff81118282101715610fe357610fe3610f90565b60405290565b6040516101e0810167ffffffffffffffff81118282101715610fe357610fe3610f90565b6040805190810167ffffffffffffffff81118282101715610fe357610fe3610f90565b604051601f82017fffffffffffffffffffffffffffffffffffffffffffffffffffffffffffffffe016810167ffffffffffffffff8111828210171561107757611077610f90565b604052919050565b600067ffffffffffffffff82111561109957611099610f90565b5060051b60200190565b600082601f8301126110b457600080fd5b813560206110c96110c48361107f565b611030565b82815260059290921b840181019181810190868411156110e857600080fd5b8286015b8481101561110c5780356110ff81610f60565b83529183019183016110ec565b509695505050505050565b8015158114610f8257600080fd5b8035610a7681611117565b600067ffffffffffffffff82111561114a5761114a610f90565b50601f017fffffffffffffffffffffffffffffffffffffffffffffffffffffffffffffffe01660200190565b600082601f83011261118757600080fd5b81356111956110c482611130565b8181528460208386010111156111aa57600080fd5b816020850160208301376000918101602001919091529392505050565b600061012082840312156111da57600080fd5b6111e2610fbf565b90506111ed82611125565b81526020820135602082015260408201356040820152606082013560608201526080820135608082015260a082013560a082015260c082013560c082015260e082013560e082015261010080830135818301525092915050565b60006102e0828403121561125a57600080fd5b611262610fe9565b905061126d82610f85565b815261127b60208301611125565b602082015261128c60408301611125565b6040820152606082013567ffffffffffffffff808211156112ac57600080fd5b6112b885838601611176565b606084015260808401359150808211156112d157600080fd5b506112de84828501611176565b60808301525060a082013560a08201526112fa60c08301610f85565b60c082015260e08281013590820152610100808301359082015261012080830135908201526101408083013590820152610160808301359082015261018080830135908201526101a080830135908201526101c061135a848285016111c7565b9082015292915050565b60008060006060848603121561137957600080fd5b833561138481610f60565b925060208481013567ffffffffffffffff808211156113a257600080fd5b6113ae888389016110a3565b945060408701359150808211156113c457600080fd5b818701915087601f8301126113d857600080fd5b81356113e66110c48261107f565b81815260059190911b8301840190848101908a83111561140557600080fd5b8585015b8381101561143d578035858111156114215760008081fd5b61142f8d89838a0101611247565b845250918601918601611409565b508096505050505050509250925092565b6020808252825182820181905260009190848201906040850190845b818110156114b15761149e838551805182526020810151602083015260408101516040830152606081015160608301525050565b928401926080929092019160010161146a565b50909695505050505050565b6000806000606084860312156114d257600080fd5b83356114dd81610f60565b925060208401356114ed81610f60565b9150604084013567ffffffffffffffff81111561150957600080fd5b61151586828701611247565b9150509250925092565b81518152602080830151908201526040808301519082015260608083015190820152608081015b92915050565b60006020828403121561155e57600080fd5b813567ffffffffffffffff81111561157557600080fd5b611581848285016110a3565b949350505050565b6020808252825182820181905260009190848201906040850190845b818110156114b15761161d838551805182526020810151602083015260408101516040830152606081015160608301526080810151608083015260a081015160a083015260c081015173ffffffffffffffffffffffffffffffffffffffff80821660c08501528060e08401511660e085015250505050565b9284019261010092909201916001016115a5565b60006020828403121561164357600080fd5b81356104b081610f60565b61010081016115468284805182526020810151602083015260408101516040830152606081015160608301526080810151608083015260a081015160a083015260c081015173ffffffffffffffffffffffffffffffffffffffff80821660c08501528060e08401511660e085015250505050565b60008060408084860312156116d657600080fd5b83356116e181610f60565b925060208481013567ffffffffffffffff8111156116fe57600080fd5b8501601f8101871361170f57600080fd5b803561171d6110c48261107f565b81815260069190911b8201830190838101908983111561173c57600080fd5b928401925b8284101561178e5785848b0312156117595760008081fd5b61176161100d565b843561176c81610f60565b81528486013561177b81610f60565b8187015282529285019290840190611741565b8096505050505050509250929050565b60005b838110156117b95781810151838201526020016117a1565b50506000910152565b600081518084526117da81602086016020860161179e565b601f017fffffffffffffffffffffffffffffffffffffffffffffffffffffffffffffffe0169290920160200192915050565b60006020808301818452808551808352604092508286019150828160051b87010184880160005b83811015611aed577fffffffffffffffffffffffffffffffffffffffffffffffffffffffffffffffc08984030185528151610220815181865261188e828701825173ffffffffffffffffffffffffffffffffffffffff169052565b8981015115156102408701528881015115156102608701526060808201516102e06102808901819052919350906118c96105008901836117c2565b915060808301517ffffffffffffffffffffffffffffffffffffffffffffffffffffffffffffffde0898403016102a08a015261190583826117c2565b92505060a0808401516102c08a015260c084015161193a838b018273ffffffffffffffffffffffffffffffffffffffff169052565b5060e0848101516103008b0152610100808601516103208c01526101208601516103408c01526101408601516103608c01526101608601516103808c01526101808601516103a08c01526101a0808701516103c08d01526101c090960151805115156103e08d015260208101516104008d015260408101516104208d015260608101516104408d015260808101516104608d015260a08101516104808d015260c08101516104a08d0152918201516104c08c01528101516104e08b01529391508c8601519350611a2d8d8a0185805182526020810151602083015260408101516040830152606081015160608301525050565b8b8601519350611aa4818a0185805182526020810151602083015260408101516040830152606081015160608301526080810151608083015260a081015160a083015260c081015173ffffffffffffffffffffffffffffffffffffffff80821660c08501528060e08401511660e085015250505050565b509383015193611ad788820186805182526020810151602083015260408101516040830152606081015160608301525050565b50978a0197955050509187019150600101611833565b509098975050505050505050565b7f4e487b7100000000000000000000000000000000000000000000000000000000600052603260045260246000fd5b7f4e487b7100000000000000000000000000000000000000000000000000000000600052601160045260246000fd5b60007fffffffffffffffffffffffffffffffffffffffffffffffffffffffffffffffff8203611b8a57611b8a611b2a565b5060010190565b600060208284031215611ba357600080fd5b5051919050565b600181815b80851115611c0357817fffffffffffffffffffffffffffffffffffffffffffffffffffffffffffffffff04821115611be957611be9611b2a565b80851615611bf657918102915b93841c9390800290611baf565b509250929050565b600082611c1a57506001611546565b81611c2757506000611546565b8160018114611c3d5760028114611c4757611c63565b6001915050611546565b60ff841115611c5857611c58611b2a565b50506001821b611546565b5060208310610133831016604e8410600b8410161715611c86575081810a611546565b611c908383611baa565b807fffffffffffffffffffffffffffffffffffffffffffffffffffffffffffffffff04821115611cc257611cc2611b2a565b029392505050565b60006104b08383611c0b565b808202811582820484141761154657611546611b2a565b600082611d23577f4e487b7100000000000000000000000000000000000000000000000000000000600052601260045260246000fd5b500490565b600060208284031215611d3a57600080fd5b81516104b081610f60565b8051610a7681610f60565b8051610a7681611117565b600082601f830112611d6c57600080fd5b8151611d7a6110c482611130565b818152846020838601011115611d8f57600080fd5b61158182602083016020870161179e565b60006101208284031215611db357600080fd5b611dbb610fbf565b9050611dc682611d50565b81526020820151602082015260408201516040820152606082015160608201526080820151608082015260a082015160a082015260c082015160c082015260e082015160e082015261010080830151818301525092915050565b600060808284031215611e3257600080fd5b6040516080810181811067ffffffffffffffff82111715611e5557611e55610f90565b8060405250809150825181526020830151602082015260408301516040820152606083015160608201525092915050565b600060208284031215611e9857600080fd5b815167ffffffffffffffff80821115611eb057600080fd5b818401915084601f830112611ec457600080fd5b8151611ed26110c48261107f565b8082825260208201915060208360051b860101925087831115611ef457600080fd5b602085015b838110156120ab57805185811115611f1057600080fd5b86017fffffffffffffffffffffffffffffffffffffffffffffffffffffffffffffffe060a0828c0382011215611f4557600080fd5b611f4d61100d565b602083015188811115611f5f57600080fd5b83016102e0818e0384011215611f7457600080fd5b611f7c610fe9565b9250611f8a60208201611d45565b8352611f9860408201611d50565b6020840152611fa960608201611d50565b6040840152608081015189811115611fc057600080fd5b611fcf8e602083850101611d5b565b60608501525060a081015189811115611fe757600080fd5b611ff68e602083850101611d5b565b60808501525060c081015160a084015261201260e08201611d45565b60c084015261010081015160e08401526101208101516101008401526101408101516101208401526101608101516101408401526101808101516101608401526101a08101516101808401526101c08101516101a08401526120788d6101e08301611da0565b6101c08401525081815261208f8c60408501611e20565b6020820152808652505050602083019250602081019050611ef9565b5097965050505050505056fea2646970667358221220e8e75fed585dee05a617fe42774174b690077bc45effd6c56f54296ff558858164736f6c63430008150033",
  "devdoc": {
    "kind": "dev",
    "methods": {},
    "version": 1
  },
  "userdoc": {
    "errors": {
      "FluidStakingRewardsResolver__AddressZero()": [
        {
          "notice": "thrown if an input param address is zero"
        }
      ]
    },
    "kind": "user",
    "methods": {},
    "notice": "Fluid Lending protocol Staking Rewards (for fTokens) resolver Implements various view-only methods to give easy access to Lending protocol staked fToken rewards data.",
    "version": 1
  },
  "storageLayout": {
    "storage": [],
    "types": null
  }
}