{
  "address": "0xcf1D44ecdFfa9Cd070758c15Cfd3B8633c3429C5",
  "abi": [
    {
      "inputs": [
        {
          "internalType": "contract IFluidVaultResolver",
          "name": "vaultResolver_",
          "type": "address"
        },
        {
          "internalType": "contract IFluidLiquidity",
          "name": "liquidity_",
          "type": "address"
        }
      ],
      "stateMutability": "nonpayable",
      "type": "constructor"
    },
    {
      "inputs": [
        {
          "internalType": "uint256",
          "name": "errorId_",
          "type": "uint256"
        }
      ],
      "name": "FluidLiquidityCalcsError",
      "type": "error"
    },
    {
      "inputs": [],
      "name": "FluidVaultLiquidationsResolver__AddressZero",
      "type": "error"
    },
    {
      "inputs": [],
      "name": "FluidVaultLiquidationsResolver__InvalidParams",
      "type": "error"
    },
    {
      "inputs": [],
      "name": "LIQUIDITY",
      "outputs": [
        {
          "internalType": "contract IFluidLiquidity",
          "name": "",
          "type": "address"
        }
      ],
      "stateMutability": "view",
      "type": "function"
    },
    {
      "inputs": [],
      "name": "VAULT_RESOLVER",
      "outputs": [
        {
          "internalType": "contract IFluidVaultResolver",
          "name": "",
          "type": "address"
        }
      ],
      "stateMutability": "view",
      "type": "function"
    },
    {
      "inputs": [
        {
          "internalType": "address",
          "name": "tokenIn_",
          "type": "address"
        },
        {
          "internalType": "address",
          "name": "tokenOut_",
          "type": "address"
        },
        {
          "internalType": "uint256",
          "name": "outAmt_",
          "type": "uint256"
        }
      ],
      "name": "approxOutput",
      "outputs": [
        {
          "components": [
            {
              "components": [
                {
                  "internalType": "address",
                  "name": "protocol",
                  "type": "address"
                },
                {
                  "internalType": "address",
                  "name": "tokenIn",
                  "type": "address"
                },
                {
                  "internalType": "address",
                  "name": "tokenOut",
                  "type": "address"
                }
              ],
              "internalType": "struct Structs.SwapPath",
              "name": "path",
              "type": "tuple"
            },
            {
              "components": [
                {
                  "internalType": "uint256",
                  "name": "inAmt",
                  "type": "uint256"
                },
                {
                  "internalType": "uint256",
                  "name": "outAmt",
                  "type": "uint256"
                },
                {
                  "internalType": "bool",
                  "name": "withAbsorb",
                  "type": "bool"
                },
                {
                  "internalType": "uint256",
                  "name": "ratio",
                  "type": "uint256"
                }
              ],
              "internalType": "struct Structs.SwapData",
              "name": "data",
              "type": "tuple"
            }
          ],
          "internalType": "struct Structs.Swap[]",
          "name": "swaps_",
          "type": "tuple[]"
        },
        {
          "internalType": "uint256",
          "name": "inAmt_",
          "type": "uint256"
        },
        {
          "internalType": "uint256",
          "name": "approxOutAmt_",
          "type": "uint256"
        }
      ],
      "stateMutability": "nonpayable",
      "type": "function"
    },
    {
      "inputs": [
        {
          "internalType": "address",
          "name": "tokenIn_",
          "type": "address"
        },
        {
          "internalType": "address",
          "name": "tokenOut_",
          "type": "address"
        },
        {
          "internalType": "uint256",
          "name": "inAmt_",
          "type": "uint256"
        }
      ],
      "name": "exactInput",
      "outputs": [
        {
          "components": [
            {
              "components": [
                {
                  "internalType": "address",
                  "name": "protocol",
                  "type": "address"
                },
                {
                  "internalType": "address",
                  "name": "tokenIn",
                  "type": "address"
                },
                {
                  "internalType": "address",
                  "name": "tokenOut",
                  "type": "address"
                }
              ],
              "internalType": "struct Structs.SwapPath",
              "name": "path",
              "type": "tuple"
            },
            {
              "components": [
                {
                  "internalType": "uint256",
                  "name": "inAmt",
                  "type": "uint256"
                },
                {
                  "internalType": "uint256",
                  "name": "outAmt",
                  "type": "uint256"
                },
                {
                  "internalType": "bool",
                  "name": "withAbsorb",
                  "type": "bool"
                },
                {
                  "internalType": "uint256",
                  "name": "ratio",
                  "type": "uint256"
                }
              ],
              "internalType": "struct Structs.SwapData",
              "name": "data",
              "type": "tuple"
            }
          ],
          "internalType": "struct Structs.Swap[]",
          "name": "swaps_",
          "type": "tuple[]"
        },
        {
          "internalType": "uint256",
          "name": "actualInAmt_",
          "type": "uint256"
        },
        {
          "internalType": "uint256",
          "name": "outAmt_",
          "type": "uint256"
        }
      ],
      "stateMutability": "nonpayable",
      "type": "function"
    },
    {
      "inputs": [
        {
          "components": [
            {
              "components": [
                {
                  "internalType": "address",
                  "name": "protocol",
                  "type": "address"
                },
                {
                  "internalType": "address",
                  "name": "tokenIn",
                  "type": "address"
                },
                {
                  "internalType": "address",
                  "name": "tokenOut",
                  "type": "address"
                }
              ],
              "internalType": "struct Structs.SwapPath",
              "name": "path",
              "type": "tuple"
            },
            {
              "components": [
                {
                  "internalType": "uint256",
                  "name": "inAmt",
                  "type": "uint256"
                },
                {
                  "internalType": "uint256",
                  "name": "outAmt",
                  "type": "uint256"
                },
                {
                  "internalType": "bool",
                  "name": "withAbsorb",
                  "type": "bool"
                },
                {
                  "internalType": "uint256",
                  "name": "ratio",
                  "type": "uint256"
                }
              ],
              "internalType": "struct Structs.SwapData",
              "name": "data",
              "type": "tuple"
            }
          ],
          "internalType": "struct Structs.Swap[]",
          "name": "swaps_",
          "type": "tuple[]"
        },
        {
          "internalType": "uint256",
          "name": "targetApproxOutAmt_",
          "type": "uint256"
        }
      ],
      "name": "filterToApproxOutAmt",
      "outputs": [
        {
          "components": [
            {
              "components": [
                {
                  "internalType": "address",
                  "name": "protocol",
                  "type": "address"
                },
                {
                  "internalType": "address",
                  "name": "tokenIn",
                  "type": "address"
                },
                {
                  "internalType": "address",
                  "name": "tokenOut",
                  "type": "address"
                }
              ],
              "internalType": "struct Structs.SwapPath",
              "name": "path",
              "type": "tuple"
            },
            {
              "components": [
                {
                  "internalType": "uint256",
                  "name": "inAmt",
                  "type": "uint256"
                },
                {
                  "internalType": "uint256",
                  "name": "outAmt",
                  "type": "uint256"
                },
                {
                  "internalType": "bool",
                  "name": "withAbsorb",
                  "type": "bool"
                },
                {
                  "internalType": "uint256",
                  "name": "ratio",
                  "type": "uint256"
                }
              ],
              "internalType": "struct Structs.SwapData",
              "name": "data",
              "type": "tuple"
            }
          ],
          "internalType": "struct Structs.Swap[]",
          "name": "filteredSwaps_",
          "type": "tuple[]"
        },
        {
          "internalType": "uint256",
          "name": "actualInAmt_",
          "type": "uint256"
        },
        {
          "internalType": "uint256",
          "name": "approxOutAmt_",
          "type": "uint256"
        }
      ],
      "stateMutability": "nonpayable",
      "type": "function"
    },
    {
      "inputs": [
        {
          "components": [
            {
              "components": [
                {
                  "internalType": "address",
                  "name": "protocol",
                  "type": "address"
                },
                {
                  "internalType": "address",
                  "name": "tokenIn",
                  "type": "address"
                },
                {
                  "internalType": "address",
                  "name": "tokenOut",
                  "type": "address"
                }
              ],
              "internalType": "struct Structs.SwapPath",
              "name": "path",
              "type": "tuple"
            },
            {
              "components": [
                {
                  "internalType": "uint256",
                  "name": "inAmt",
                  "type": "uint256"
                },
                {
                  "internalType": "uint256",
                  "name": "outAmt",
                  "type": "uint256"
                },
                {
                  "internalType": "bool",
                  "name": "withAbsorb",
                  "type": "bool"
                },
                {
                  "internalType": "uint256",
                  "name": "ratio",
                  "type": "uint256"
                }
              ],
              "internalType": "struct Structs.SwapData",
              "name": "data",
              "type": "tuple"
            }
          ],
          "internalType": "struct Structs.Swap[]",
          "name": "swaps_",
          "type": "tuple[]"
        },
        {
          "internalType": "uint256",
          "name": "targetInAmt_",
          "type": "uint256"
        }
      ],
      "name": "filterToTargetInAmt",
      "outputs": [
        {
          "components": [
            {
              "components": [
                {
                  "internalType": "address",
                  "name": "protocol",
                  "type": "address"
                },
                {
                  "internalType": "address",
                  "name": "tokenIn",
                  "type": "address"
                },
                {
                  "internalType": "address",
                  "name": "tokenOut",
                  "type": "address"
                }
              ],
              "internalType": "struct Structs.SwapPath",
              "name": "path",
              "type": "tuple"
            },
            {
              "components": [
                {
                  "internalType": "uint256",
                  "name": "inAmt",
                  "type": "uint256"
                },
                {
                  "internalType": "uint256",
                  "name": "outAmt",
                  "type": "uint256"
                },
                {
                  "internalType": "bool",
                  "name": "withAbsorb",
                  "type": "bool"
                },
                {
                  "internalType": "uint256",
                  "name": "ratio",
                  "type": "uint256"
                }
              ],
              "internalType": "struct Structs.SwapData",
              "name": "data",
              "type": "tuple"
            }
          ],
          "internalType": "struct Structs.Swap[]",
          "name": "filteredSwaps_",
          "type": "tuple[]"
        },
        {
          "internalType": "uint256",
          "name": "actualInAmt_",
          "type": "uint256"
        },
        {
          "internalType": "uint256",
          "name": "approxOutAmt_",
          "type": "uint256"
        }
      ],
      "stateMutability": "nonpayable",
      "type": "function"
    },
    {
      "inputs": [],
      "name": "getAllSwapPaths",
      "outputs": [
        {
          "components": [
            {
              "internalType": "address",
              "name": "protocol",
              "type": "address"
            },
            {
              "internalType": "address",
              "name": "tokenIn",
              "type": "address"
            },
            {
              "internalType": "address",
              "name": "tokenOut",
              "type": "address"
            }
          ],
          "internalType": "struct Structs.SwapPath[]",
          "name": "paths_",
          "type": "tuple[]"
        }
      ],
      "stateMutability": "view",
      "type": "function"
    },
    {
      "inputs": [],
      "name": "getAllVaultsSwap",
      "outputs": [
        {
          "components": [
            {
              "components": [
                {
                  "internalType": "address",
                  "name": "protocol",
                  "type": "address"
                },
                {
                  "internalType": "address",
                  "name": "tokenIn",
                  "type": "address"
                },
                {
                  "internalType": "address",
                  "name": "tokenOut",
                  "type": "address"
                }
              ],
              "internalType": "struct Structs.SwapPath",
              "name": "path",
              "type": "tuple"
            },
            {
              "components": [
                {
                  "internalType": "uint256",
                  "name": "inAmt",
                  "type": "uint256"
                },
                {
                  "internalType": "uint256",
                  "name": "outAmt",
                  "type": "uint256"
                },
                {
                  "internalType": "bool",
                  "name": "withAbsorb",
                  "type": "bool"
                },
                {
                  "internalType": "uint256",
                  "name": "ratio",
                  "type": "uint256"
                }
              ],
              "internalType": "struct Structs.SwapData",
              "name": "data",
              "type": "tuple"
            }
          ],
          "internalType": "struct Structs.Swap[]",
          "name": "swaps_",
          "type": "tuple[]"
        }
      ],
      "stateMutability": "nonpayable",
      "type": "function"
    },
    {
      "inputs": [],
      "name": "getAllVaultsSwapData",
      "outputs": [
        {
          "components": [
            {
              "internalType": "uint256",
              "name": "inAmt",
              "type": "uint256"
            },
            {
              "internalType": "uint256",
              "name": "outAmt",
              "type": "uint256"
            },
            {
              "internalType": "bool",
              "name": "withAbsorb",
              "type": "bool"
            },
            {
              "internalType": "uint256",
              "name": "ratio",
              "type": "uint256"
            }
          ],
          "internalType": "struct Structs.SwapData[]",
          "name": "withoutAbsorb_",
          "type": "tuple[]"
        },
        {
          "components": [
            {
              "internalType": "uint256",
              "name": "inAmt",
              "type": "uint256"
            },
            {
              "internalType": "uint256",
              "name": "outAmt",
              "type": "uint256"
            },
            {
              "internalType": "bool",
              "name": "withAbsorb",
              "type": "bool"
            },
            {
              "internalType": "uint256",
              "name": "ratio",
              "type": "uint256"
            }
          ],
          "internalType": "struct Structs.SwapData[]",
          "name": "withAbsorb_",
          "type": "tuple[]"
        }
      ],
      "stateMutability": "nonpayable",
      "type": "function"
    },
    {
      "inputs": [],
      "name": "getAllVaultsSwapRaw",
      "outputs": [
        {
          "components": [
            {
              "components": [
                {
                  "internalType": "address",
                  "name": "protocol",
                  "type": "address"
                },
                {
                  "internalType": "address",
                  "name": "tokenIn",
                  "type": "address"
                },
                {
                  "internalType": "address",
                  "name": "tokenOut",
                  "type": "address"
                }
              ],
              "internalType": "struct Structs.SwapPath",
              "name": "path",
              "type": "tuple"
            },
            {
              "components": [
                {
                  "internalType": "uint256",
                  "name": "inAmt",
                  "type": "uint256"
                },
                {
                  "internalType": "uint256",
                  "name": "outAmt",
                  "type": "uint256"
                },
                {
                  "internalType": "bool",
                  "name": "withAbsorb",
                  "type": "bool"
                },
                {
                  "internalType": "uint256",
                  "name": "ratio",
                  "type": "uint256"
                }
              ],
              "internalType": "struct Structs.SwapData",
              "name": "data",
              "type": "tuple"
            }
          ],
          "internalType": "struct Structs.Swap[]",
          "name": "swaps_",
          "type": "tuple[]"
        }
      ],
      "stateMutability": "nonpayable",
      "type": "function"
    },
    {
      "inputs": [
        {
          "internalType": "address[]",
          "name": "tokensIn_",
          "type": "address[]"
        },
        {
          "internalType": "address[]",
          "name": "tokensOut_",
          "type": "address[]"
        }
      ],
      "name": "getAnySwapPaths",
      "outputs": [
        {
          "components": [
            {
              "internalType": "address",
              "name": "protocol",
              "type": "address"
            },
            {
              "internalType": "address",
              "name": "tokenIn",
              "type": "address"
            },
            {
              "internalType": "address",
              "name": "tokenOut",
              "type": "address"
            }
          ],
          "internalType": "struct Structs.SwapPath[]",
          "name": "paths_",
          "type": "tuple[]"
        }
      ],
      "stateMutability": "view",
      "type": "function"
    },
    {
      "inputs": [
        {
          "internalType": "address[]",
          "name": "tokensIn_",
          "type": "address[]"
        },
        {
          "internalType": "address[]",
          "name": "tokensOut_",
          "type": "address[]"
        }
      ],
      "name": "getAnySwaps",
      "outputs": [
        {
          "components": [
            {
              "components": [
                {
                  "internalType": "address",
                  "name": "protocol",
                  "type": "address"
                },
                {
                  "internalType": "address",
                  "name": "tokenIn",
                  "type": "address"
                },
                {
                  "internalType": "address",
                  "name": "tokenOut",
                  "type": "address"
                }
              ],
              "internalType": "struct Structs.SwapPath",
              "name": "path",
              "type": "tuple"
            },
            {
              "components": [
                {
                  "internalType": "uint256",
                  "name": "inAmt",
                  "type": "uint256"
                },
                {
                  "internalType": "uint256",
                  "name": "outAmt",
                  "type": "uint256"
                },
                {
                  "internalType": "bool",
                  "name": "withAbsorb",
                  "type": "bool"
                },
                {
                  "internalType": "uint256",
                  "name": "ratio",
                  "type": "uint256"
                }
              ],
              "internalType": "struct Structs.SwapData",
              "name": "data",
              "type": "tuple"
            }
          ],
          "internalType": "struct Structs.Swap[]",
          "name": "swaps_",
          "type": "tuple[]"
        }
      ],
      "stateMutability": "nonpayable",
      "type": "function"
    },
    {
      "inputs": [
        {
          "internalType": "address[]",
          "name": "tokensIn_",
          "type": "address[]"
        },
        {
          "internalType": "address[]",
          "name": "tokensOut_",
          "type": "address[]"
        }
      ],
      "name": "getAnySwapsRaw",
      "outputs": [
        {
          "components": [
            {
              "components": [
                {
                  "internalType": "address",
                  "name": "protocol",
                  "type": "address"
                },
                {
                  "internalType": "address",
                  "name": "tokenIn",
                  "type": "address"
                },
                {
                  "internalType": "address",
                  "name": "tokenOut",
                  "type": "address"
                }
              ],
              "internalType": "struct Structs.SwapPath",
              "name": "path",
              "type": "tuple"
            },
            {
              "components": [
                {
                  "internalType": "uint256",
                  "name": "inAmt",
                  "type": "uint256"
                },
                {
                  "internalType": "uint256",
                  "name": "outAmt",
                  "type": "uint256"
                },
                {
                  "internalType": "bool",
                  "name": "withAbsorb",
                  "type": "bool"
                },
                {
                  "internalType": "uint256",
                  "name": "ratio",
                  "type": "uint256"
                }
              ],
              "internalType": "struct Structs.SwapData",
              "name": "data",
              "type": "tuple"
            }
          ],
          "internalType": "struct Structs.Swap[]",
          "name": "swaps_",
          "type": "tuple[]"
        }
      ],
      "stateMutability": "nonpayable",
      "type": "function"
    },
    {
      "inputs": [
        {
          "internalType": "address",
          "name": "protocol_",
          "type": "address"
        }
      ],
      "name": "getSwapForProtocol",
      "outputs": [
        {
          "components": [
            {
              "components": [
                {
                  "internalType": "address",
                  "name": "protocol",
                  "type": "address"
                },
                {
                  "internalType": "address",
                  "name": "tokenIn",
                  "type": "address"
                },
                {
                  "internalType": "address",
                  "name": "tokenOut",
                  "type": "address"
                }
              ],
              "internalType": "struct Structs.SwapPath",
              "name": "path",
              "type": "tuple"
            },
            {
              "components": [
                {
                  "internalType": "uint256",
                  "name": "inAmt",
                  "type": "uint256"
                },
                {
                  "internalType": "uint256",
                  "name": "outAmt",
                  "type": "uint256"
                },
                {
                  "internalType": "bool",
                  "name": "withAbsorb",
                  "type": "bool"
                },
                {
                  "internalType": "uint256",
                  "name": "ratio",
                  "type": "uint256"
                }
              ],
              "internalType": "struct Structs.SwapData",
              "name": "data",
              "type": "tuple"
            }
          ],
          "internalType": "struct Structs.Swap",
          "name": "swap_",
          "type": "tuple"
        }
      ],
      "stateMutability": "nonpayable",
      "type": "function"
    },
    {
      "inputs": [
        {
          "internalType": "address",
          "name": "tokenIn_",
          "type": "address"
        },
        {
          "internalType": "address",
          "name": "tokenOut_",
          "type": "address"
        }
      ],
      "name": "getSwapPaths",
      "outputs": [
        {
          "components": [
            {
              "internalType": "address",
              "name": "protocol",
              "type": "address"
            },
            {
              "internalType": "address",
              "name": "tokenIn",
              "type": "address"
            },
            {
              "internalType": "address",
              "name": "tokenOut",
              "type": "address"
            }
          ],
          "internalType": "struct Structs.SwapPath[]",
          "name": "paths_",
          "type": "tuple[]"
        }
      ],
      "stateMutability": "view",
      "type": "function"
    },
    {
      "inputs": [
        {
          "components": [
            {
              "components": [
                {
                  "internalType": "address",
                  "name": "protocol",
                  "type": "address"
                },
                {
                  "internalType": "address",
                  "name": "tokenIn",
                  "type": "address"
                },
                {
                  "internalType": "address",
                  "name": "tokenOut",
                  "type": "address"
                }
              ],
              "internalType": "struct Structs.SwapPath",
              "name": "path",
              "type": "tuple"
            },
            {
              "components": [
                {
                  "internalType": "uint256",
                  "name": "inAmt",
                  "type": "uint256"
                },
                {
                  "internalType": "uint256",
                  "name": "outAmt",
                  "type": "uint256"
                },
                {
                  "internalType": "bool",
                  "name": "withAbsorb",
                  "type": "bool"
                },
                {
                  "internalType": "uint256",
                  "name": "ratio",
                  "type": "uint256"
                }
              ],
              "internalType": "struct Structs.SwapData",
              "name": "data",
              "type": "tuple"
            }
          ],
          "internalType": "struct Structs.Swap",
          "name": "swap_",
          "type": "tuple"
        },
        {
          "internalType": "address",
          "name": "receiver_",
          "type": "address"
        },
        {
          "internalType": "uint256",
          "name": "slippage_",
          "type": "uint256"
        }
      ],
      "name": "getSwapTx",
      "outputs": [
        {
          "internalType": "address",
          "name": "target_",
          "type": "address"
        },
        {
          "internalType": "bytes",
          "name": "calldata_",
          "type": "bytes"
        }
      ],
      "stateMutability": "pure",
      "type": "function"
    },
    {
      "inputs": [
        {
          "components": [
            {
              "components": [
                {
                  "internalType": "address",
                  "name": "protocol",
                  "type": "address"
                },
                {
                  "internalType": "address",
                  "name": "tokenIn",
                  "type": "address"
                },
                {
                  "internalType": "address",
                  "name": "tokenOut",
                  "type": "address"
                }
              ],
              "internalType": "struct Structs.SwapPath",
              "name": "path",
              "type": "tuple"
            },
            {
              "components": [
                {
                  "internalType": "uint256",
                  "name": "inAmt",
                  "type": "uint256"
                },
                {
                  "internalType": "uint256",
                  "name": "outAmt",
                  "type": "uint256"
                },
                {
                  "internalType": "bool",
                  "name": "withAbsorb",
                  "type": "bool"
                },
                {
                  "internalType": "uint256",
                  "name": "ratio",
                  "type": "uint256"
                }
              ],
              "internalType": "struct Structs.SwapData",
              "name": "data",
              "type": "tuple"
            }
          ],
          "internalType": "struct Structs.Swap[]",
          "name": "swaps_",
          "type": "tuple[]"
        },
        {
          "internalType": "address",
          "name": "receiver_",
          "type": "address"
        },
        {
          "internalType": "uint256",
          "name": "slippage_",
          "type": "uint256"
        }
      ],
      "name": "getSwapTxs",
      "outputs": [
        {
          "internalType": "address[]",
          "name": "targets_",
          "type": "address[]"
        },
        {
          "internalType": "bytes[]",
          "name": "calldatas_",
          "type": "bytes[]"
        }
      ],
      "stateMutability": "pure",
      "type": "function"
    },
    {
      "inputs": [
        {
          "internalType": "address",
          "name": "tokenIn_",
          "type": "address"
        },
        {
          "internalType": "address",
          "name": "tokenOut_",
          "type": "address"
        }
      ],
      "name": "getSwaps",
      "outputs": [
        {
          "components": [
            {
              "components": [
                {
                  "internalType": "address",
                  "name": "protocol",
                  "type": "address"
                },
                {
                  "internalType": "address",
                  "name": "tokenIn",
                  "type": "address"
                },
                {
                  "internalType": "address",
                  "name": "tokenOut",
                  "type": "address"
                }
              ],
              "internalType": "struct Structs.SwapPath",
              "name": "path",
              "type": "tuple"
            },
            {
              "components": [
                {
                  "internalType": "uint256",
                  "name": "inAmt",
                  "type": "uint256"
                },
                {
                  "internalType": "uint256",
                  "name": "outAmt",
                  "type": "uint256"
                },
                {
                  "internalType": "bool",
                  "name": "withAbsorb",
                  "type": "bool"
                },
                {
                  "internalType": "uint256",
                  "name": "ratio",
                  "type": "uint256"
                }
              ],
              "internalType": "struct Structs.SwapData",
              "name": "data",
              "type": "tuple"
            }
          ],
          "internalType": "struct Structs.Swap[]",
          "name": "swaps_",
          "type": "tuple[]"
        }
      ],
      "stateMutability": "nonpayable",
      "type": "function"
    },
    {
      "inputs": [
        {
          "components": [
            {
              "internalType": "address",
              "name": "protocol",
              "type": "address"
            },
            {
              "internalType": "address",
              "name": "tokenIn",
              "type": "address"
            },
            {
              "internalType": "address",
              "name": "tokenOut",
              "type": "address"
            }
          ],
          "internalType": "struct Structs.SwapPath[]",
          "name": "paths_",
          "type": "tuple[]"
        }
      ],
      "name": "getSwapsForPaths",
      "outputs": [
        {
          "components": [
            {
              "components": [
                {
                  "internalType": "address",
                  "name": "protocol",
                  "type": "address"
                },
                {
                  "internalType": "address",
                  "name": "tokenIn",
                  "type": "address"
                },
                {
                  "internalType": "address",
                  "name": "tokenOut",
                  "type": "address"
                }
              ],
              "internalType": "struct Structs.SwapPath",
              "name": "path",
              "type": "tuple"
            },
            {
              "components": [
                {
                  "internalType": "uint256",
                  "name": "inAmt",
                  "type": "uint256"
                },
                {
                  "internalType": "uint256",
                  "name": "outAmt",
                  "type": "uint256"
                },
                {
                  "internalType": "bool",
                  "name": "withAbsorb",
                  "type": "bool"
                },
                {
                  "internalType": "uint256",
                  "name": "ratio",
                  "type": "uint256"
                }
              ],
              "internalType": "struct Structs.SwapData",
              "name": "data",
              "type": "tuple"
            }
          ],
          "internalType": "struct Structs.Swap[]",
          "name": "swaps_",
          "type": "tuple[]"
        }
      ],
      "stateMutability": "nonpayable",
      "type": "function"
    },
    {
      "inputs": [
        {
          "components": [
            {
              "internalType": "address",
              "name": "protocol",
              "type": "address"
            },
            {
              "internalType": "address",
              "name": "tokenIn",
              "type": "address"
            },
            {
              "internalType": "address",
              "name": "tokenOut",
              "type": "address"
            }
          ],
          "internalType": "struct Structs.SwapPath[]",
          "name": "paths_",
          "type": "tuple[]"
        }
      ],
      "name": "getSwapsForPathsRaw",
      "outputs": [
        {
          "components": [
            {
              "components": [
                {
                  "internalType": "address",
                  "name": "protocol",
                  "type": "address"
                },
                {
                  "internalType": "address",
                  "name": "tokenIn",
                  "type": "address"
                },
                {
                  "internalType": "address",
                  "name": "tokenOut",
                  "type": "address"
                }
              ],
              "internalType": "struct Structs.SwapPath",
              "name": "path",
              "type": "tuple"
            },
            {
              "components": [
                {
                  "internalType": "uint256",
                  "name": "inAmt",
                  "type": "uint256"
                },
                {
                  "internalType": "uint256",
                  "name": "outAmt",
                  "type": "uint256"
                },
                {
                  "internalType": "bool",
                  "name": "withAbsorb",
                  "type": "bool"
                },
                {
                  "internalType": "uint256",
                  "name": "ratio",
                  "type": "uint256"
                }
              ],
              "internalType": "struct Structs.SwapData",
              "name": "data",
              "type": "tuple"
            }
          ],
          "internalType": "struct Structs.Swap[]",
          "name": "swaps_",
          "type": "tuple[]"
        }
      ],
      "stateMutability": "nonpayable",
      "type": "function"
    },
    {
      "inputs": [
        {
          "internalType": "address",
          "name": "tokenIn_",
          "type": "address"
        },
        {
          "internalType": "address",
          "name": "tokenOut_",
          "type": "address"
        }
      ],
      "name": "getSwapsRaw",
      "outputs": [
        {
          "components": [
            {
              "components": [
                {
                  "internalType": "address",
                  "name": "protocol",
                  "type": "address"
                },
                {
                  "internalType": "address",
                  "name": "tokenIn",
                  "type": "address"
                },
                {
                  "internalType": "address",
                  "name": "tokenOut",
                  "type": "address"
                }
              ],
              "internalType": "struct Structs.SwapPath",
              "name": "path",
              "type": "tuple"
            },
            {
              "components": [
                {
                  "internalType": "uint256",
                  "name": "inAmt",
                  "type": "uint256"
                },
                {
                  "internalType": "uint256",
                  "name": "outAmt",
                  "type": "uint256"
                },
                {
                  "internalType": "bool",
                  "name": "withAbsorb",
                  "type": "bool"
                },
                {
                  "internalType": "uint256",
                  "name": "ratio",
                  "type": "uint256"
                }
              ],
              "internalType": "struct Structs.SwapData",
              "name": "data",
              "type": "tuple"
            }
          ],
          "internalType": "struct Structs.Swap[]",
          "name": "swaps_",
          "type": "tuple[]"
        }
      ],
      "stateMutability": "nonpayable",
      "type": "function"
    },
    {
      "inputs": [
        {
          "internalType": "address",
          "name": "vault_",
          "type": "address"
        }
      ],
      "name": "getVaultSwapData",
      "outputs": [
        {
          "components": [
            {
              "internalType": "uint256",
              "name": "inAmt",
              "type": "uint256"
            },
            {
              "internalType": "uint256",
              "name": "outAmt",
              "type": "uint256"
            },
            {
              "internalType": "bool",
              "name": "withAbsorb",
              "type": "bool"
            },
            {
              "internalType": "uint256",
              "name": "ratio",
              "type": "uint256"
            }
          ],
          "internalType": "struct Structs.SwapData",
          "name": "withoutAbsorb_",
          "type": "tuple"
        },
        {
          "components": [
            {
              "internalType": "uint256",
              "name": "inAmt",
              "type": "uint256"
            },
            {
              "internalType": "uint256",
              "name": "outAmt",
              "type": "uint256"
            },
            {
              "internalType": "bool",
              "name": "withAbsorb",
              "type": "bool"
            },
            {
              "internalType": "uint256",
              "name": "ratio",
              "type": "uint256"
            }
          ],
          "internalType": "struct Structs.SwapData",
          "name": "withAbsorb_",
          "type": "tuple"
        }
      ],
      "stateMutability": "nonpayable",
      "type": "function"
    },
    {
      "inputs": [
        {
          "internalType": "address[]",
          "name": "vaults_",
          "type": "address[]"
        }
      ],
      "name": "getVaultsSwap",
      "outputs": [
        {
          "components": [
            {
              "components": [
                {
                  "internalType": "address",
                  "name": "protocol",
                  "type": "address"
                },
                {
                  "internalType": "address",
                  "name": "tokenIn",
                  "type": "address"
                },
                {
                  "internalType": "address",
                  "name": "tokenOut",
                  "type": "address"
                }
              ],
              "internalType": "struct Structs.SwapPath",
              "name": "path",
              "type": "tuple"
            },
            {
              "components": [
                {
                  "internalType": "uint256",
                  "name": "inAmt",
                  "type": "uint256"
                },
                {
                  "internalType": "uint256",
                  "name": "outAmt",
                  "type": "uint256"
                },
                {
                  "internalType": "bool",
                  "name": "withAbsorb",
                  "type": "bool"
                },
                {
                  "internalType": "uint256",
                  "name": "ratio",
                  "type": "uint256"
                }
              ],
              "internalType": "struct Structs.SwapData",
              "name": "data",
              "type": "tuple"
            }
          ],
          "internalType": "struct Structs.Swap[]",
          "name": "swaps_",
          "type": "tuple[]"
        }
      ],
      "stateMutability": "nonpayable",
      "type": "function"
    },
    {
      "inputs": [
        {
          "internalType": "address[]",
          "name": "vaults_",
          "type": "address[]"
        }
      ],
      "name": "getVaultsSwapData",
      "outputs": [
        {
          "components": [
            {
              "internalType": "uint256",
              "name": "inAmt",
              "type": "uint256"
            },
            {
              "internalType": "uint256",
              "name": "outAmt",
              "type": "uint256"
            },
            {
              "internalType": "bool",
              "name": "withAbsorb",
              "type": "bool"
            },
            {
              "internalType": "uint256",
              "name": "ratio",
              "type": "uint256"
            }
          ],
          "internalType": "struct Structs.SwapData[]",
          "name": "withoutAbsorb_",
          "type": "tuple[]"
        },
        {
          "components": [
            {
              "internalType": "uint256",
              "name": "inAmt",
              "type": "uint256"
            },
            {
              "internalType": "uint256",
              "name": "outAmt",
              "type": "uint256"
            },
            {
              "internalType": "bool",
              "name": "withAbsorb",
              "type": "bool"
            },
            {
              "internalType": "uint256",
              "name": "ratio",
              "type": "uint256"
            }
          ],
          "internalType": "struct Structs.SwapData[]",
          "name": "withAbsorb_",
          "type": "tuple[]"
        }
      ],
      "stateMutability": "nonpayable",
      "type": "function"
    },
    {
      "inputs": [
        {
          "internalType": "address[]",
          "name": "vaults_",
          "type": "address[]"
        }
      ],
      "name": "getVaultsSwapRaw",
      "outputs": [
        {
          "components": [
            {
              "components": [
                {
                  "internalType": "address",
                  "name": "protocol",
                  "type": "address"
                },
                {
                  "internalType": "address",
                  "name": "tokenIn",
                  "type": "address"
                },
                {
                  "internalType": "address",
                  "name": "tokenOut",
                  "type": "address"
                }
              ],
              "internalType": "struct Structs.SwapPath",
              "name": "path",
              "type": "tuple"
            },
            {
              "components": [
                {
                  "internalType": "uint256",
                  "name": "inAmt",
                  "type": "uint256"
                },
                {
                  "internalType": "uint256",
                  "name": "outAmt",
                  "type": "uint256"
                },
                {
                  "internalType": "bool",
                  "name": "withAbsorb",
                  "type": "bool"
                },
                {
                  "internalType": "uint256",
                  "name": "ratio",
                  "type": "uint256"
                }
              ],
              "internalType": "struct Structs.SwapData",
              "name": "data",
              "type": "tuple"
            }
          ],
          "internalType": "struct Structs.Swap[]",
          "name": "swaps_",
          "type": "tuple[]"
        }
      ],
      "stateMutability": "nonpayable",
      "type": "function"
    }
  ],
  "transactionHash": "0x1679f6013fa26c2095d63567cfc7db4e38102ce16d55cc701824fd6072404e4c",
  "args": [
    "0x3c64Ec468D7f0998cB6dea05d4D8AB847573fE4D",
    "0x52Aa899454998Be5b000Ad077a46Bbe360F4e497"
  ],
  "numDeployments": 1,
  "solcInputHash": "4f63da12d66a256eeca1b26617ce10fe",
  "bytecode": "0x60c06040523480156200001157600080fd5b50604051620044893803806200448983398101604081905262000034916200009e565b6001600160a01b03808316608081905290821660a05215806200005e57506001600160a01b038116155b156200007d576040516303c99f9d60e61b815260040160405180910390fd5b5050620000dd565b6001600160a01b03811681146200009b57600080fd5b50565b60008060408385031215620000b257600080fd5b8251620000bf8162000085565b6020840151909250620000d28162000085565b809150509250929050565b60805160a05161434e6200013b600039600081816101ec0152818161262b015281816126a50152818161302701526131d201526000818161030a0152818161148201528181611d7201528181611f8b01526121e0015261434e6000f3fe608060405234801561001057600080fd5b50600436106101a35760003560e01c80637bfb86ff116100ee5780638953b9d611610097578063c5f8b2e511610071578063c5f8b2e5146103da578063e082bca2146103ed578063e979e87414610400578063ed6bf8bc1461040857600080fd5b80638953b9d6146103865780639f5de875146103a7578063aa822df6146103c757600080fd5b8063838fef5c116100c8578063838fef5c1461033f578063861d3ac4146103525780638651d5ec1461037357600080fd5b80637bfb86ff146102f25780637f3e2b48146103055780638011ba331461032c57600080fd5b80634c6fdc1a1161015057806365eb6bd41161012a57806365eb6bd4146102b95780636c855962146102cc5780637119484a146102df57600080fd5b80634c6fdc1a146102805780635a980a9f146102935780635e47ec03146102a657600080fd5b80633c199241116101815780633c19924114610233578063404fcab2146102485780634296bdff1461026a57600080fd5b806321d3b7f4146101a8578063232306ea146101c65780632861c7d1146101e7575b600080fd5b6101b061041b565b6040516101bd91906135d3565b60405180910390f35b6101d96101d436600461360b565b61042d565b6040516101bd9291906136fb565b61020e7f000000000000000000000000000000000000000000000000000000000000000081565b60405173ffffffffffffffffffffffffffffffffffffffff90911681526020016101bd565b61023b610573565b6040516101bd91906137c7565b61025b610256366004613844565b6106eb565b6040516101bd93929190613885565b610272610713565b6040516101bd929190613907565b61027261028e366004613a62565b610729565b61023b6102a1366004613b42565b6108a1565b61025b6102b4366004613c32565b610bc8565b61025b6102c7366004613844565b610c05565b6101b06102da366004613b42565b610c1d565b6101b06102ed366004613a62565b610c37565b6101b0610300366004613a62565b610f18565b61020e7f000000000000000000000000000000000000000000000000000000000000000081565b6101b061033a366004613d5d565b611149565b6101b061034d366004613d5d565b611161565b610365610360366004613d96565b611170565b6040516101bd929190613ddf565b61025b610381366004613c32565b6113a9565b610399610394366004613e16565b6113d9565b6040516101bd929190613e33565b6103ba6103b5366004613e16565b61157a565b6040516101bd9190613e83565b61023b6103d5366004613d5d565b61163b565b6101b06103e8366004613b42565b6118c1565b6101b06103fb366004613e91565b6118d2565b6101b0611bd5565b6101b0610416366004613e91565b611be2565b6060610428610300611d6b565b905090565b6060808467ffffffffffffffff8111156104495761044961392c565b604051908082528060200260200182016040528015610472578160200160208202803683370190505b5091508467ffffffffffffffff81111561048e5761048e61392c565b6040519080825280602002602001820160405280156104c157816020015b60608152602001906001900390816104ac5790505b50905060005b85811015610569576104f18787838181106104e4576104e4613f2b565b905060e002018686611170565b84838151811061050357610503613f2b565b6020026020010184848151811061051c5761051c613f2b565b602002602001018290528273ffffffffffffffffffffffffffffffffffffffff1673ffffffffffffffffffffffffffffffffffffffff1681525050508061056290613f89565b90506104c7565b5094509492505050565b6060600061057f611d6b565b9050805167ffffffffffffffff81111561059b5761059b61392c565b60405190808252806020026020018201604052801561060457816020015b60408051606081018252600080825260208083018290529282015282527fffffffffffffffffffffffffffffffffffffffffffffffffffffffffffffffff9092019101816105b95790505b50915060008060005b83518110156106e45761063884828151811061062b5761062b613f2b565b6020026020010151611e29565b8093508194505050604051806060016040528085838151811061065d5761065d613f2b565b602002602001015173ffffffffffffffffffffffffffffffffffffffff1681526020018473ffffffffffffffffffffffffffffffffffffffff1681526020018373ffffffffffffffffffffffffffffffffffffffff168152508582815181106106c8576106c8613f2b565b6020026020010181905250806106dd90613f89565b905061060d565b5050505090565b60606000806107036106fd8787611161565b85610bc8565b9250925092505b93509350939050565b60608061072161028e611d6b565b915091509091565b606080825167ffffffffffffffff8111156107465761074661392c565b6040519080825280602002602001820160405280156107a457816020015b61079160405180608001604052806000815260200160008152602001600015158152602001600081525090565b8152602001906001900390816107645790505b509150825167ffffffffffffffff8111156107c1576107c161392c565b60405190808252806020026020018201604052801561081f57816020015b61080c60405180608001604052806000815260200160008152602001600015158152602001600081525090565b8152602001906001900390816107df5790505b50905060005b835181101561089b5761085084828151811061084357610843613f2b565b60200260200101516113d9565b84838151811061086257610862613f2b565b6020026020010184848151811061087b5761087b613f2b565b6020026020010182905282905250508061089490613f89565b9050610825565b50915091565b606060006108af8386613fc1565b67ffffffffffffffff8111156108c7576108c761392c565b60405190808252806020026020018201604052801561093057816020015b60408051606081018252600080825260208083018290529282015282527fffffffffffffffffffffffffffffffffffffffffffffffffffffffffffffffff9092019101816108e55790505b509050600061093d611d6b565b90506000806000805b8451811015610aea5761096485828151811061062b5761062b613f2b565b909350915060005b8a811015610ae15760005b89811015610ad8578c8c8381811061099157610991613f2b565b90506020020160208101906109a69190613e16565b73ffffffffffffffffffffffffffffffffffffffff168573ffffffffffffffffffffffffffffffffffffffff16148015610a3157508a8a828181106109ed576109ed613f2b565b9050602002016020810190610a029190613e16565b73ffffffffffffffffffffffffffffffffffffffff168473ffffffffffffffffffffffffffffffffffffffff16145b15610ad0576040518060600160405280888581518110610a5357610a53613f2b565b602002602001015173ffffffffffffffffffffffffffffffffffffffff1681526020018673ffffffffffffffffffffffffffffffffffffffff1681526020018573ffffffffffffffffffffffffffffffffffffffff16815250888781518110610abe57610abe613f2b565b60200260200101819052508560010195505b600101610977565b5060010161096c565b50600101610946565b508267ffffffffffffffff811115610b0457610b0461392c565b604051908082528060200260200182016040528015610b6d57816020015b60408051606081018252600080825260208083018290529282015282527fffffffffffffffffffffffffffffffffffffffffffffffffffffffffffffffff909201910181610b225790505b50955060005b83811015610bba57858181518110610b8d57610b8d613f2b565b6020026020010151878281518110610ba757610ba7613f2b565b6020908102919091010152600101610b73565b505050505050949350505050565b6060600080610bf885857fffffffffffffffffffffffffffffffffffffffffffffffffffffffffffffffff611eb4565b9250925092509250925092565b6060600080610703610c178787611161565b856113a9565b6060610c2e6103fb868686866108a1565b95945050505050565b6060600080835160020267ffffffffffffffff811115610c5957610c5961392c565b604051908082528060200260200182016040528015610c9257816020015b610c7f6134bf565b815260200190600190039081610c775790505b509050610cc260405180608001604052806000815260200160008152602001600015158152602001600081525090565b610cef60405180608001604052806000815260200160008152602001600015158152602001600081525090565b6000806000805b8951811015610f0057610d148a828151811061084357610843613f2b565b8051919750955015610ef857610d358a828151811061062b5761062b613f2b565b8094508195505050610d608a8281518110610d5257610d52613f2b565b6020026020010151846124e5565b91508115610ef8578551855160019099019803610d805760008552610d8e565b855115610d8e578760010197505b610e21604051806040016040528060405180606001604052808e8681518110610db957610db9613f2b565b602002602001015173ffffffffffffffffffffffffffffffffffffffff1681526020018873ffffffffffffffffffffffffffffffffffffffff1681526020018773ffffffffffffffffffffffffffffffffffffffff16815250815260200188815250836126f8565b878260020281518110610e3657610e36613f2b565b6020026020010181905250610ed4604051806040016040528060405180606001604052808e8681518110610e6c57610e6c613f2b565b602002602001015173ffffffffffffffffffffffffffffffffffffffff1681526020018873ffffffffffffffffffffffffffffffffffffffff1681526020018773ffffffffffffffffffffffffffffffffffffffff16815250815260200187815250836126f8565b878260020260010181518110610eec57610eec613f2b565b60200260200101819052505b600101610cf6565b50610f0b8688612761565b9998505050505050505050565b6060600080835167ffffffffffffffff811115610f3757610f3761392c565b604051908082528060200260200182016040528015610f7057816020015b610f5d6134bf565b815260200190600190039081610f555790505b509050610fa060405180608001604052806000815260200160008152602001600015158152602001600081525090565b610fcd60405180608001604052806000815260200160008152602001600015158152602001600081525090565b610fd56134bf565b6000805b885181101561113257610ff789828151811061084357610843613f2b565b8095508196505050604051806040016040528060405180606001604052808c858151811061102757611027613f2b565b602002602001015173ffffffffffffffffffffffffffffffffffffffff168152602001600073ffffffffffffffffffffffffffffffffffffffff168152602001600073ffffffffffffffffffffffffffffffffffffffff168152508152602001611091878761283d565b90526020810151519093501561112a576110b689828151811061062b5761062b613f2b565b845173ffffffffffffffffffffffffffffffffffffffff91821660408083019190915292909116602090910152835180519101516110f491906124e5565b9150811561112a5786600101965061110c83836126f8565b86828151811061111e5761111e613f2b565b60200260200101819052505b600101610fd9565b5061113d8587612761565b98975050505050505050565b6060611158610416848461163b565b90505b92915050565b60606111586103fb848461163b565b60006060816111826020870187613e16565b73ffffffffffffffffffffffffffffffffffffffff1614806111b8575073ffffffffffffffffffffffffffffffffffffffff8416155b156111ef576040517ff267e74000000000000000000000000000000000000000000000000000000000815260040160405180910390fd5b620f42408310158061120357506060850135155b8061121057506080850135155b15611247576040517fb55de08000000000000000000000000000000000000000000000000000000000815260040160405180910390fd5b600060608601356112646080880135670de0b6b3a7640000613fc1565b61126e9190614007565b9050620f424061127e8582614042565b6112889083613fc1565b6112929190614007565b90506112a16020870187613e16565b507f8433ea2200000000000000000000000000000000000000000000000000000000606087013582876112da60c08b0160a08c01614055565b6040516024810194909452604484019290925273ffffffffffffffffffffffffffffffffffffffff1660648301521515608482015260a401604080517fffffffffffffffffffffffffffffffffffffffffffffffffffffffffffffffe0818403018152919052602080820180517bffffffffffffffffffffffffffffffffffffffffffffffffffffffff167fffffffff0000000000000000000000000000000000000000000000000000000090941693909317909252925061139e90870187613e16565b925050935093915050565b6060600080610bf8857fffffffffffffffffffffffffffffffffffffffffffffffffffffffffffffffff86611eb4565b61140660405180608001604052806000815260200160008152602001600015158152602001600081525090565b61143360405180608001604052806000815260200160008152602001600015158152602001600081525090565b6040517f1fcd364900000000000000000000000000000000000000000000000000000000815273ffffffffffffffffffffffffffffffffffffffff8481166004830152600060248301819052917f000000000000000000000000000000000000000000000000000000000000000090911690631fcd364990604401610140604051808303816000875af11580156114ce573d6000803e3d6000fd5b505050506040513d601f19601f820116820180604052508101906114f2919061408d565b905060405180608001604052808260a0015181526020018260c00151815260200160001515815260200161152e8360a001518460c001516128b7565b815250925060405180608001604052808260e001518152602001826101000151815260200160011515815260200161156f8360e001518461010001516128b7565b815250915050915091565b6115826134bf565b73ffffffffffffffffffffffffffffffffffffffff82166115a257919050565b6000806115ae84611e29565b915091506000806115be866113d9565b6040805160a08101825273ffffffffffffffffffffffffffffffffffffffff808b169282019283528881166060830152871660808201529081529193509150611631906020810161160f858561283d565b905260208301511561162a5761162588866124e5565b6126f8565b60006126f8565b9695505050505050565b60606000611647611d6b565b9050600080825167ffffffffffffffff8111156116665761166661392c565b60405190808252806020026020018201604052801561168f578160200160208202803683370190505b50905060008060005b8551811015611780576116b686828151811061062b5761062b613f2b565b909350915073ffffffffffffffffffffffffffffffffffffffff808416908a1614801561170e57508773ffffffffffffffffffffffffffffffffffffffff168273ffffffffffffffffffffffffffffffffffffffff16145b156117705785818151811061172557611725613f2b565b602002602001015184868151811061173f5761173f613f2b565b73ffffffffffffffffffffffffffffffffffffffff9092166020928302919091019091015261176d85613f89565b94505b61177981613f89565b9050611698565b508367ffffffffffffffff81111561179a5761179a61392c565b60405190808252806020026020018201604052801561180357816020015b60408051606081018252600080825260208083018290529282015282527fffffffffffffffffffffffffffffffffffffffffffffffffffffffffffffffff9092019101816117b85790505b50955060005b848110156118b557604051806060016040528085838151811061182e5761182e613f2b565b602002602001015173ffffffffffffffffffffffffffffffffffffffff1681526020018a73ffffffffffffffffffffffffffffffffffffffff1681526020018973ffffffffffffffffffffffffffffffffffffffff1681525087828151811061189957611899613f2b565b6020026020010181905250806118ae90613f89565b9050611809565b50505050505092915050565b6060610c2e610416868686866108a1565b60606000825160020267ffffffffffffffff8111156118f3576118f361392c565b60405190808252806020026020018201604052801561192c57816020015b6119196134bf565b8152602001906001900390816119115790505b509050600061195e60405180608001604052806000815260200160008152602001600015158152602001600081525090565b61198b60405180608001604052806000815260200160008152602001600015158152602001600081525090565b6000805b8751811015611af6576119be8882815181106119ad576119ad613f2b565b6020026020010151600001516113d9565b8051919550935015611aee57611a0e8882815181106119df576119df613f2b565b6020026020010151600001518983815181106119fd576119fd613f2b565b6020026020010151604001516124e5565b91508115611aee578351835160019096019503611a2e5760008352611a3c565b835115611a3c578460010194505b611a7360405180604001604052808a8481518110611a5c57611a5c613f2b565b6020026020010151815260200186815250836126f8565b868260020281518110611a8857611a88613f2b565b6020026020010181905250611aca60405180604001604052808a8481518110611ab357611ab3613f2b565b6020026020010151815260200185815250836126f8565b868260020260010181518110611ae257611ae2613f2b565b60200260200101819052505b60010161198f565b508367ffffffffffffffff811115611b1057611b1061392c565b604051908082528060200260200182016040528015611b4957816020015b611b366134bf565b815260200190600190039081611b2e5790505b5095506000805b8651811015611bc9576000878281518110611b6d57611b6d613f2b565b602002602001015160200151600001511115611bc157868181518110611b9557611b95613f2b565b6020026020010151888381518110611baf57611baf613f2b565b60200260200101819052508160010191505b600101611b50565b50505050505050919050565b60606104286102ed611d6b565b60606000825167ffffffffffffffff811115611c0057611c0061392c565b604051908082528060200260200182016040528015611c3957816020015b611c266134bf565b815260200190600190039081611c1e5790505b5090506000611c466134bf565b611c7360405180608001604052806000815260200160008152602001600015158152602001600081525090565b611ca060405180608001604052806000815260200160008152602001600015158152602001600081525090565b6000805b8851811015611d6057611cc28982815181106119ad576119ad613f2b565b809450819550505060405180604001604052808a8381518110611ce757611ce7613f2b565b60200260200101518152602001611cfe868661283d565b905260208101515190955015611d585784518051604090910151611d2291906124e5565b91508115611d5857856001019550611d3a85836126f8565b878281518110611d4c57611d4c613f2b565b60200260200101819052505b600101611ca4565b5061113d8686612761565b60606104287f000000000000000000000000000000000000000000000000000000000000000073ffffffffffffffffffffffffffffffffffffffff1663a8d9f4936040518163ffffffff1660e01b8152600401600060405180830381865afa158015611ddb573d6000803e3d6000fd5b505050506040513d6000823e601f3d9081017fffffffffffffffffffffffffffffffffffffffffffffffffffffffffffffffe0168201604052611e21919081019061413a565b6127106128ea565b60008060008373ffffffffffffffffffffffffffffffffffffffff1663b7791bf26040518163ffffffff1660e01b81526004016101a060405180830381865afa158015611e7a573d6000803e3d6000fd5b505050506040513d601f19601f82011682018060405250810190611e9e91906141da565b90508060a0015181608001519250925050915091565b6060600080611ec286612b1f565b9550611ecf868686612c70565b9194509250905084821180611ee357508381115b1561070a57600060018451611ef89190614042565b9050600086841115611f4d57611f0e8785614042565b858381518110611f2057611f20613f2b565b602002602001015160200151600001516001611f3c91906142b7565b611f469190614042565b90506121dc565b6000611f598785614042565b868481518110611f6b57611f6b613f2b565b60200260200101516020015160200151611f859190614042565b905060007f000000000000000000000000000000000000000000000000000000000000000073ffffffffffffffffffffffffffffffffffffffff16631fcd3649888681518110611fd757611fd7613f2b565b602090810291909101015151516040517fffffffff0000000000000000000000000000000000000000000000000000000060e084901b16815273ffffffffffffffffffffffffffffffffffffffff909116600482015260006024820152604401610140604051808303816000875af1158015612057573d6000803e3d6000fd5b505050506040513d601f19601f8201168201806040525081019061207b919061408d565b905060006120918260a001518360c001516128b7565b905060006120c68360a001518460e001516120ac9190614042565b8460c001518561010001516120c19190614042565b6128b7565b9050818111806120d95750838360c00151105b156121a85760008360c001518461010001516120f59190614042565b90508481106121315781612115866b033b2e3c9fd0803ce8000000613fc1565b61211f9190614007565b61212a9060016142b7565b95506121a2565b81612148826b033b2e3c9fd0803ce8000000613fc1565b6121529190614007565b61215d9060016142b7565b95508261216a8287614042565b612180906b033b2e3c9fd0803ce8000000613fc1565b61218a9190614007565b6121959060016142b7565b61219f90876142b7565b95505b506121d7565b816121bf856b033b2e3c9fd0803ce8000000613fc1565b6121c99190614007565b6121d49060016142b7565b94505b505050505b60007f000000000000000000000000000000000000000000000000000000000000000073ffffffffffffffffffffffffffffffffffffffff16631fcd364987858151811061222c5761222c613f2b565b602090810291909101015151516040517fffffffff0000000000000000000000000000000000000000000000000000000060e084901b16815273ffffffffffffffffffffffffffffffffffffffff909116600482015260248101859052604401610140604051808303816000875af11580156122ac573d6000803e3d6000fd5b505050506040513d601f19601f820116820180604052508101906122d0919061408d565b90508583815181106122e4576122e4613f2b565b60200260200101516020015160000151856122ff9190614042565b945085838151811061231357612313613f2b565b602002602001015160200151602001518461232e9190614042565b935085838151811061234257612342613f2b565b60200260200101516020015160400151156123ec578060e0015186848151811061236e5761236e613f2b565b602002602001015160200151600001818152505080610100015186848151811061239a5761239a613f2b565b60200260200101516020015160200181815250506123c18160e001518261010001516128b7565b8684815181106123d3576123d3613f2b565b602002602001015160200151606001818152505061247b565b8060a0015186848151811061240357612403613f2b565b60200260200101516020015160000181815250508060c0015186848151811061242e5761242e613f2b565b60200260200101516020015160200181815250506124548160a001518260c001516128b7565b86848151811061246657612466613f2b565b60200260200101516020015160600181815250505b85838151811061248d5761248d613f2b565b60200260200101516020015160000151856124a891906142b7565b94508583815181106124bc576124bc613f2b565b60200260200101516020015160200151846124d791906142b7565b935050505093509350939050565b6000806124f28484613023565b90508060000361250657600091505061115b565b600981901c66ffffffffffffff16600182901c60ff161b600061252983836130cc565b9050826001166001036125a157600061254186613160565b90508060000361255857600094505050505061115b565b60006125638261323d565b50905064e8d4a510006125768286613fc1565b6125809190614007565b935064e8d4a510006125928285613fc1565b61259c9190614007565b925050505b8082116125af5760006125b9565b6125b98183614042565b9350600073ffffffffffffffffffffffffffffffffffffffff861673eeeeeeeeeeeeeeeeeeeeeeeeeeeeeeeeeeeeeeee146126a3576040517f70a0823100000000000000000000000000000000000000000000000000000000815273ffffffffffffffffffffffffffffffffffffffff7f0000000000000000000000000000000000000000000000000000000000000000811660048301528716906370a0823190602401602060405180830381865afa15801561267a573d6000803e3d6000fd5b505050506040513d601f19601f8201168201806040525081019061269e91906142ca565b6126dc565b7f000000000000000000000000000000000000000000000000000000000000000073ffffffffffffffffffffffffffffffffffffffff16315b90508481116126eb57806126ed565b845b979650505050505050565b6127006134bf565b82602001516020015160000361271757508161115b565b82602001516020015182101561275a5760208084015190810151905161273e908490613fc1565b6127489190614007565b60208085018051929092529051018290525b5090919050565b60608167ffffffffffffffff81111561277c5761277c61392c565b6040519080825280602002602001820160405280156127b557816020015b6127a26134bf565b81526020019060019003908161279a5790505b5090506000805b84518110156128355760008582815181106127d9576127d9613f2b565b60200260200101516020015160000151111561282d5784818151811061280157612801613f2b565b602002602001015183838151811061281b5761281b613f2b565b60200260200101819052508160010191505b6001016127bc565b505092915050565b61286a60405180608001604052806000815260200160008152602001600015158152602001600081525090565b815160000361287a57508061115b565b82606001518260600151111561289157508061115b565b826060015182606001510361275a5782518251036128b057508161115b565b508061115b565b6000816000036128c95750600061115b565b826128e0836b033b2e3c9fd0803ce8000000613fc1565b6111589190614007565b8151606090600090815b8551811015612a005785818151811061290f5761290f613f2b565b602002602001015173ffffffffffffffffffffffffffffffffffffffff1663bb24fe8a6040518163ffffffff1660e01b8152600401602060405180830381865afa92505050801561299b575060408051601f3d9081017fffffffffffffffffffffffffffffffffffffffffffffffffffffffffffffffe0168201909252612998918101906142ca565b60015b6129a95761271092506129ac565b92505b8483146129f85760008682815181106129c7576129c7613f2b565b73ffffffffffffffffffffffffffffffffffffffff909216602092830291909101909101526129f5826142e3565b91505b6001016128f4565b508067ffffffffffffffff811115612a1a57612a1a61392c565b604051908082528060200260200182016040528015612a43578160200160208202803683370190505b5092506000805b8651811015612b1557600073ffffffffffffffffffffffffffffffffffffffff16878281518110612a7d57612a7d613f2b565b602002602001015173ffffffffffffffffffffffffffffffffffffffff1614612b0d57868181518110612ab257612ab2613f2b565b6020026020010151858381518110612acc57612acc613f2b565b602002602001019073ffffffffffffffffffffffffffffffffffffffff16908173ffffffffffffffffffffffffffffffffffffffff16815250508160010191505b600101612a4a565b5050505092915050565b60606000612b2b6134bf565b60015b8451811015612c67576000925060005b818651612b4b9190614042565b811015612c4657858181518110612b6457612b64613f2b565b6020026020010151602001516060015186826001612b8291906142b7565b81518110612b9257612b92613f2b565b602002602001015160200151606001511115612c3457858181518110612bba57612bba613f2b565b6020026020010151925085816001612bd291906142b7565b81518110612be257612be2613f2b565b6020026020010151868281518110612bfc57612bfc613f2b565b60209081029190910101528286612c148360016142b7565b81518110612c2457612c24613f2b565b6020026020010181905250600193505b80612c3e81613f89565b915050612b3e565b5082612c555750929392505050565b80612c5f81613f89565b915050612b2e565b50929392505050565b60606000808551600003612c8c5750849150600090508061070a565b60005b8583108015612c9d57508482105b8015612ca95750865181105b15612d1c57868181518110612cc057612cc0613f2b565b6020026020010151602001516000015183612cdb91906142b7565b9250868181518110612cef57612cef613f2b565b6020026020010151602001516020015182612d0a91906142b7565b9150612d1581613f89565b9050612c8f565b6000805b612d2b600184614042565b811015612e61576000612d3f8260016142b7565b90505b83811015612e5057898181518110612d5c57612d5c613f2b565b6020026020010151600001516000015173ffffffffffffffffffffffffffffffffffffffff168a8381518110612d9457612d94613f2b565b6020026020010151600001516000015173ffffffffffffffffffffffffffffffffffffffff1603612e4057898281518110612dd157612dd1613f2b565b6020026020010151602001516040015115612e0e5760008a8281518110612dfa57612dfa613f2b565b602090810291909101810151015152612e32565b60008a8381518110612e2257612e22613f2b565b6020908102919091018101510151525b82612e3c81613f89565b9350505b612e4981613f89565b9050612d42565b50612e5a81613f89565b9050612d20565b508015612f6f576000818951612e779190614042565b67ffffffffffffffff811115612e8f57612e8f61392c565b604051908082528060200260200182016040528015612ec857816020015b612eb56134bf565b815260200190600190039081612ead5790505b50955060005b8951811015612f555760008a8281518110612eeb57612eeb613f2b565b602002602001015160200151600001511115612f4557898181518110612f1357612f13613f2b565b6020026020010151878381518110612f2d57612f2d613f2b565b602002602001018190525081612f4290613f89565b91505b612f4e81613f89565b9050612ece565b50612f61868989612c70565b95509550955050505061070a565b8167ffffffffffffffff811115612f8857612f8861392c565b604051908082528060200260200182016040528015612fc157816020015b612fae6134bf565b815260200190600190039081612fa65790505b50945060005b8281101561301757888181518110612fe157612fe1613f2b565b6020026020010151868281518110612ffb57612ffb613f2b565b60200260200101819052508061301090613f89565b9050612fc7565b50505093509350939050565b60007f000000000000000000000000000000000000000000000000000000000000000073ffffffffffffffffffffffffffffffffffffffff1663b5c736e461306d6008868661344f565b6040518263ffffffff1660e01b815260040161308b91815260200190565b602060405180830381865afa1580156130a8573d6000803e3d6000fd5b505050506040513d601f19601f8201168201806040525081019061115891906142ca565b600066ffffffffffffff604984901c1660ff604185901c161b8082036130f657600091505061115b565b612710613fff60a286901c168402046401ffffffff608186901c16420362ffffff60b087901c166131278284613fc1565b6131319190614007565b9050808311613141576000613145565b8083035b93505080840383811115613157578093505b50505092915050565b6040805173ffffffffffffffffffffffffffffffffffffffff838116602080840191909152600583850152835180840385018152606084019485905280519101207fb5c736e40000000000000000000000000000000000000000000000000000000090935260648201929092526000917f0000000000000000000000000000000000000000000000000000000000000000169063b5c736e490608401602060405180830381865afa158015613219573d6000803e3d6000fd5b505050506040513d601f19601f8201168201806040525081019061115b91906142ca565b67ffffffffffffffff605b82901c811690609b83901c1681158061325f575080155b1561329f576040517fd50d751200000000000000000000000000000000000000000000000000000000815262011171600482015260240160405180910390fd5b61ffff8316603a84901c6401ffffffff16428181039160ea87901c617fff169114806132c9575082155b806132d45750806001145b156132e157505050915091565b64496cebb80084840283020484019350617fff60db87901c1692508260010361330c57505050915091565b826001166001036133615760019290921c91826c7e37be2022c0914b26800000008161333a5761333a613fd8565b049250612710601e87901c613fff166b033b2e3c9fd0803ce800000085010204925061338e565b60019290921c916305f5e100601e87901c613fff166127108501026b033b2e3c9fd0803ce8000000020492505b806001166001036133c55760011c61271081016b033b2e3c9fd0803ce80000008202816133bd576133bd613fd8565b0490506133fb565b60011c61271081016b033b2e3c9fd0803ce80000008202816133e9576133e9613fd8565b046b033b2e3c9fd0803ce80000000390505b760a70c3c40a64e6c51999090b65f67d92400000000000008382026127100261ffff881691900402601087901c613fff16612710030292506801b5a660ea44b8000085840283020485019450505050915091565b6040805173ffffffffffffffffffffffffffffffffffffffff848116602080840191909152828401879052835180840385018152606084018552805190820120918516608084015260a0808401929092528351808403909201825260c090920190925281519101205b9392505050565b6040805160a0810182526000918101828152606082018390526080820192909252908190815260200161351560405180608001604052806000815260200160008152602001600015158152602001600081525090565b905290565b613554828251805173ffffffffffffffffffffffffffffffffffffffff908116835260208083015182169084015260409182015116910152565b602081015161358960608401828051825260208101516020830152604081015115156040830152606081015160608301525050565b505050565b600081518084526020808501945080840160005b838110156135c8576135b587835161351a565b60e09690960195908201906001016135a2565b509495945050505050565b602081526000611158602083018461358e565b73ffffffffffffffffffffffffffffffffffffffff8116811461360857600080fd5b50565b6000806000806060858703121561362157600080fd5b843567ffffffffffffffff8082111561363957600080fd5b818701915087601f83011261364d57600080fd5b81358181111561365c57600080fd5b88602060e08302850101111561367157600080fd5b60209283019650945050850135613687816135e6565b9396929550929360400135925050565b6000815180845260005b818110156136bd576020818501810151868301820152016136a1565b5060006020828601015260207fffffffffffffffffffffffffffffffffffffffffffffffffffffffffffffffe0601f83011685010191505092915050565b604080825283519082018190526000906020906060840190828701845b8281101561374a57815173ffffffffffffffffffffffffffffffffffffffff1684529284019290840190600101613718565b50505083810382850152845180825282820190600581901b8301840187850160005b838110156137b8577fffffffffffffffffffffffffffffffffffffffffffffffffffffffffffffffe08684030185526137a6838351613697565b9487019492509086019060010161376c565b50909998505050505050505050565b6020808252825182820181905260009190848201906040850190845b8181101561383857613825838551805173ffffffffffffffffffffffffffffffffffffffff908116835260208083015182169084015260409182015116910152565b92840192606092909201916001016137e3565b50909695505050505050565b60008060006060848603121561385957600080fd5b8335613864816135e6565b92506020840135613874816135e6565b929592945050506040919091013590565b606081526000613898606083018661358e565b60208301949094525060400152919050565b600081518084526020808501945080840160005b838110156135c8576138f48783518051825260208101516020830152604081015115156040830152606081015160608301525050565b60809690960195908201906001016138be565b60408152600061391a60408301856138aa565b8281036020840152610c2e81856138aa565b7f4e487b7100000000000000000000000000000000000000000000000000000000600052604160045260246000fd5b6040805190810167ffffffffffffffff8111828210171561397e5761397e61392c565b60405290565b6040516080810167ffffffffffffffff8111828210171561397e5761397e61392c565b604051610140810167ffffffffffffffff8111828210171561397e5761397e61392c565b6040516101a0810167ffffffffffffffff8111828210171561397e5761397e61392c565b604051601f82017fffffffffffffffffffffffffffffffffffffffffffffffffffffffffffffffe016810167ffffffffffffffff81118282101715613a3657613a3661392c565b604052919050565b600067ffffffffffffffff821115613a5857613a5861392c565b5060051b60200190565b60006020808385031215613a7557600080fd5b823567ffffffffffffffff811115613a8c57600080fd5b8301601f81018513613a9d57600080fd5b8035613ab0613aab82613a3e565b6139ef565b81815260059190911b82018301908381019087831115613acf57600080fd5b928401925b828410156126ed578335613ae7816135e6565b82529284019290840190613ad4565b60008083601f840112613b0857600080fd5b50813567ffffffffffffffff811115613b2057600080fd5b6020830191508360208260051b8501011115613b3b57600080fd5b9250929050565b60008060008060408587031215613b5857600080fd5b843567ffffffffffffffff80821115613b7057600080fd5b613b7c88838901613af6565b90965094506020870135915080821115613b9557600080fd5b50613ba287828801613af6565b95989497509550505050565b600060608284031215613bc057600080fd5b6040516060810181811067ffffffffffffffff82111715613be357613be361392c565b6040529050808235613bf4816135e6565b81526020830135613c04816135e6565b60208201526040830135613c17816135e6565b6040919091015292915050565b801515811461360857600080fd5b6000806040808486031215613c4657600080fd5b833567ffffffffffffffff811115613c5d57600080fd5b8401601f81018613613c6e57600080fd5b80356020613c7e613aab83613a3e565b82815260e0928302840182019282820191908a851115613c9d57600080fd5b948301945b84861015613d4c57858b0381811215613cbb5760008081fd5b613cc361395b565b613ccd8d89613bae565b815260606080807fffffffffffffffffffffffffffffffffffffffffffffffffffffffffffffffa085011215613d035760008081fd5b613d0b613984565b8a8301358152908a013588820152925060a0890135613d2981613c24565b838b015260c0890135908301528086019190915283529485019491830191613ca2565b509997909101359750505050505050565b60008060408385031215613d7057600080fd5b8235613d7b816135e6565b91506020830135613d8b816135e6565b809150509250929050565b6000806000838503610120811215613dad57600080fd5b60e0811215613dbb57600080fd5b5083925060e0840135613dcd816135e6565b92959294505050610100919091013590565b73ffffffffffffffffffffffffffffffffffffffff83168152604060208201526000613e0e6040830184613697565b949350505050565b600060208284031215613e2857600080fd5b81356134b8816135e6565b825181526020808401518183015260408085015115158184015260608086015181850152845160808501529184015160a0840152830151151560c083015282015160e082015261010081016134b8565b60e0810161115b828461351a565b60006020808385031215613ea457600080fd5b823567ffffffffffffffff811115613ebb57600080fd5b8301601f81018513613ecc57600080fd5b8035613eda613aab82613a3e565b81815260609182028301840191848201919088841115613ef957600080fd5b938501935b83851015613f1f57613f108986613bae565b83529384019391850191613efe565b50979650505050505050565b7f4e487b7100000000000000000000000000000000000000000000000000000000600052603260045260246000fd5b7f4e487b7100000000000000000000000000000000000000000000000000000000600052601160045260246000fd5b60007fffffffffffffffffffffffffffffffffffffffffffffffffffffffffffffffff8203613fba57613fba613f5a565b5060010190565b808202811582820484141761115b5761115b613f5a565b7f4e487b7100000000000000000000000000000000000000000000000000000000600052601260045260246000fd5b60008261403d577f4e487b7100000000000000000000000000000000000000000000000000000000600052601260045260246000fd5b500490565b8181038181111561115b5761115b613f5a565b60006020828403121561406757600080fd5b81356134b881613c24565b805161407d816135e6565b919050565b805161407d81613c24565b600061014082840312156140a057600080fd5b6140a86139a7565b6140b183614072565b81526140bf60208401614072565b60208201526140d060408401614072565b60408201526140e160608401614072565b60608201526140f260808401614072565b608082015260a083015160a082015260c083015160c082015260e083015160e082015261010080840151818301525061012061412f818501614082565b908201529392505050565b6000602080838503121561414d57600080fd5b825167ffffffffffffffff81111561416457600080fd5b8301601f8101851361417557600080fd5b8051614183613aab82613a3e565b81815260059190911b820183019083810190878311156141a257600080fd5b928401925b828410156126ed5783516141ba816135e6565b825292840192908401906141a7565b805160ff8116811461407d57600080fd5b60006101a082840312156141ed57600080fd5b6141f56139cb565b6141fe83614072565b815261420c60208401614072565b602082015261421d60408401614072565b604082015261422e60608401614072565b606082015261423f60808401614072565b608082015261425060a08401614072565b60a082015261426160c084016141c9565b60c082015261427260e084016141c9565b60e08201526101008381015190820152610120808401519082015261014080840151908201526101608084015190820152610180928301519281019290925250919050565b8082018082111561115b5761115b613f5a565b6000602082840312156142dc57600080fd5b5051919050565b6000816142f2576142f2613f5a565b507fffffffffffffffffffffffffffffffffffffffffffffffffffffffffffffffff019056fea2646970667358221220f4c8866585c61d242056e63f95908e646258f9a80f88a95b5db1c04ce655e06f64736f6c63430008150033",
  "devdoc": {
    "details": "Note that on the same protocol, if \"withAbsorb = true\" is executed, this also consumes the swap         that would be on the same protocol with \"withAbsorb = false\". So the total available swap amount         at a protocol if both a swap with and without absorb is available is not `with inAmt + without inAmt`         but rather `with inAmt`.         Sometimes with absorb can provide better swaps, sometimes without absorb can provide better swaps.         But available liquidity for \"withAbsorb\" amounts will always be >= without absorb amounts.The \"Raw\" methods return both the with and without absorb swaps for the same Fluid Vault, the non-\"Raw\"         methods automatically filter by the better ratio swap. For same cases a better optimization of ratios         is possible with custom logic based on the \"Raw\" methods, see details in comments.for native token, send 0xEeeeeEeeeEeEeeEeEeEeeEEEeeeeEeeeeeeeEEeE.returned swaps Struct can be fed into `getSwapTx` to prepare the tx that executes the swaps.non-view methods in this contract are expected to be called with callStatic,         although they would anyway not do any actual state changes.",
    "kind": "dev",
    "methods": {
      "approxOutput(address,address,uint256)": {
        "details": "The only cases that are currently not best possible optimized for are when the ratio for withoutAbsorb is better but the target swap amount is more than the available without absorb liquidity. For this currently the available withAbsorb liquidity is consumed first before tapping into the better ratio withoutAbsorb liquidity. The optimized version would be to split the tx into two swaps, first executing liquidate() with absorb = false to fully swap all the withoutAbsorb liquidity, and then in the second tx run with absorb = true to fill the missing amount up to the target amount with the worse ratio with absorb liquidity.",
        "params": {
          "outAmt_": "exact output token amount that should be swapped to from input token",
          "tokenIn_": "input token",
          "tokenOut_": "output token"
        },
        "returns": {
          "approxOutAmt_": "approximate output token amount. Can be less than `outAmt_` if all available swaps can not cover                       the target amount.",
          "inAmt_": "input token amount needed to receive `actualOutAmt_`",
          "swaps_": "swaps to reach the target amount, sorted by ratio in descending order         (higher ratio = better rate). Best ratio swap will be at pos 0, second best at pos 1 and so on."
        }
      },
      "exactInput(address,address,uint256)": {
        "details": "The only cases that are currently not best possible optimized for are when the ratio for withoutAbsorb is better but the target swap amount is more than the available without absorb liquidity. For this, currently the available withAbsorb liquidity is consumed first before tapping into the better ratio withoutAbsorb liquidity. The optimized version would be to split the tx into two swaps, first executing liquidate() with absorb = false to fully swap all the withoutAbsorb liquidity, and then in the second tx run with absorb = true to fill the missing amount up to the target amount with the worse ratio with absorb liquidity.",
        "params": {
          "inAmt_": "exact input token amount that should be swapped to output token",
          "tokenIn_": "input token",
          "tokenOut_": "output token"
        },
        "returns": {
          "actualInAmt_": "actual input token amount. Can be less than inAmt_ if all available swaps can not cover                      the target amount.",
          "outAmt_": "output token amount received for `actualInAmt_`",
          "swaps_": "swaps to reach the target amount, sorted by ratio in descending order         (higher ratio = better rate). Best ratio swap will be at pos 0, second best at pos 1 and so on."
        }
      },
      "filterToApproxOutAmt(((address,address,address),(uint256,uint256,bool,uint256))[],uint256)": {
        "returns": {
          "actualInAmt_": "actual input amount.",
          "approxOutAmt_": "APPROXIMATE actual output amount. Can be less than targetOutAmt_ if all available swaps                      can not cover the target amount.",
          "filteredSwaps_": "swaps to reach the target amount, sorted by ratio in descending order         (higher ratio = better rate). Best ratio swap will be at pos 0, second best at pos 1 and so on."
        }
      },
      "filterToTargetInAmt(((address,address,address),(uint256,uint256,bool,uint256))[],uint256)": {
        "returns": {
          "actualInAmt_": "actual input amount. Can be less than targetInAmt_ if all available swaps can not cover                      the target amount.",
          "approxOutAmt_": "actual estimated output amount.",
          "filteredSwaps_": "swaps to reach the target amount, sorted by ratio in descending order         (higher ratio = better rate). Best ratio swap will be at pos 0, second best at pos 1 and so on."
        }
      },
      "getSwapTx(((address,address,address),(uint256,uint256,bool,uint256)),address,uint256)": {
        "params": {
          "receiver_": "receiver address that the output token is sent to",
          "slippage_": "maximum allowed slippage for the expected output token amount. Reverts iIf received token out                  amount is lower than this. in 1e4 percentage, e.g. 1% = 10000, 0.3% = 3000, 0.01% = 100, 0.0001% = 1.",
          "swap_": "Swap struct as returned by other methods"
        },
        "returns": {
          "calldata_": "the calldata that can be used to trigger the liquidation call, resulting in the desired swap.",
          "target_": "target address where `calldata_` must be executed"
        }
      }
    },
    "version": 1
  },
  "userdoc": {
    "errors": {
      "FluidVaultLiquidationsResolver__AddressZero()": [
        {
          "notice": "thrown if an input param address is zero"
        }
      ],
      "FluidVaultLiquidationsResolver__InvalidParams()": [
        {
          "notice": "thrown if an invalid param is given to a method"
        }
      ]
    },
    "kind": "user",
    "methods": {
      "LIQUIDITY()": {
        "notice": "address of the liquidity contract"
      },
      "approxOutput(address,address,uint256)": {
        "notice": "finds all swaps from `tokenIn_` to `tokenOut_` for an APPROXIMATE output amount `outAmt_`.         filters the available swaps and sorts them by ratio, so the returned swaps are the best available         swaps to reach the target `outAmt_`.         If the full available amount is less than the target `outAmt_`, the available amount is returned as `actualOutAmt_`.         IMPORTANT: guaranteed exact output swaps are not possible with Fluid, this method only aims to         approximately estimate the required input amounts to reach a certain output amount. This         will change until execution and should be controlled with a maximum slippage.         Recommended to use exact input methods instead."
      },
      "constructor": {
        "notice": "constructor sets the immutable vault resolver address"
      },
      "exactInput(address,address,uint256)": {
        "notice": "finds all swaps from `tokenIn_` to `tokenOut_` for an exact input amount `inAmt_`.         filters the available swaps and sorts them by ratio, so the returned swaps are the best available         swaps to reach the target `inAmt_`.         If the full available amount is less than the target `inAmt_`, the available amount is returned as `actualInAmt_`."
      },
      "filterToApproxOutAmt(((address,address,address),(uint256,uint256,bool,uint256))[],uint256)": {
        "notice": "filters the `swaps_` to the point where APPROXIMATELY `targetOutAmt_` is reached.         IMPORTANT: guaranteed exact output swaps are not possible with Fluid, this method only aims to         approximately estimate the required input amounts to reach a certain output amount. This         will change until execution and should be controlled with a maximum slippage.         Recommended to use exact input methods instead.         This is best used in combination with the \"Raw\" methods, as the `targetInAmt_` allows for more optimized         filtering than otherwise done with the non-\"Raw\" methods."
      },
      "filterToTargetInAmt(((address,address,address),(uint256,uint256,bool,uint256))[],uint256)": {
        "notice": "filters the `swaps_` to the point where `targetInAmt_` is reached.         This is best used in combination with the \"Raw\" methods, as the `targetInAmt_` allows for more optimized         filtering than otherwise done with the non-\"Raw\" methods."
      },
      "getAllSwapPaths()": {
        "notice": "returns all available token swap paths"
      },
      "getAllVaultsSwap()": {
        "notice": "returns all available `swaps_` for all Fluid vaults. Only returns non-zero swaps.         returns only either the with absorb swap or without absorb swap for each vault, whichever has the         better ratio."
      },
      "getAllVaultsSwapData()": {
        "notice": "returns the swap data for with and without absorb for all Fluid vaults."
      },
      "getAllVaultsSwapRaw()": {
        "notice": "returns all available `swaps_` for all Fluid vaults raw. Only returns non-zero swaps.         includes all swaps unfiltered, e.g. with absorb and without absorb swaps are present for the same vault."
      },
      "getAnySwapPaths(address[],address[])": {
        "notice": "returns all available swap paths for any `tokensIn_` to any `tokensOut_`."
      },
      "getAnySwaps(address[],address[])": {
        "notice": "finds all available `swaps_` for any `tokensIn_` to any `tokesnOut_`.         Token pairs that are not available or where available swap amounts are zero         will not be present in the returned `swaps_` array.         returns only either the with absorb swap or without absorb swap for each vault, whichever has the         better ratio."
      },
      "getAnySwapsRaw(address[],address[])": {
        "notice": "finds all available `swaps_` for any `tokensIn_` to any `tokesnOut_`.         Token pairs that are not available or where available swap amounts are zero         will not be present in the returned `swaps_` array.         includes all swaps unfiltered, e.g. with absorb and without absorb swaps are present for the same vault."
      },
      "getSwapForProtocol(address)": {
        "notice": "returns the available swap amounts at a certain `protocol_`. Only returns non-zero swaps.         For vault protocol considering both a swap that uses liquidation with absorb and without absorb."
      },
      "getSwapPaths(address,address)": {
        "notice": "returns all swap paths for a certain `tokenIn_` swapped to a `tokenOut_`.         returns empty array if no swap path is available for a given pair."
      },
      "getSwapTx(((address,address,address),(uint256,uint256,bool,uint256)),address,uint256)": {
        "notice": "returns the calldata to execute a swap as returned by the other methods in this contract.         `swap_.data.inAmt` must come from msg.sender, `swap_.data.outAmt` goes to `receiver_`. If the input token         is the native token, msg.value must be sent along when triggering the actual call with the returned calldata         which should be `swap_.data.inAmt`."
      },
      "getSwapTxs(((address,address,address),(uint256,uint256,bool,uint256))[],address,uint256)": {
        "notice": "returns the same data as `getSwapTx` for an array of input `swaps_` at once."
      },
      "getSwaps(address,address)": {
        "notice": "finds all available `swaps_` for `tokenIn_` to `tokenOut_`.         returns only either the with absorb swap or without absorb swap for each vault, whichever has the         better ratio."
      },
      "getSwapsForPaths((address,address,address)[])": {
        "notice": "returns all the available `swaps_` for certain swap `paths_`. Only returns non-zero swaps.         returns only either the with absorb swap or without absorb swap for each vault, whichever has the         better ratio."
      },
      "getSwapsForPathsRaw((address,address,address)[])": {
        "notice": "returns all the available `swaps_` for certain swap `paths_`. Only returns non-zero swaps.         includes all swaps unfiltered, e.g. with absorb and without absorb swaps are present for the same vault."
      },
      "getSwapsRaw(address,address)": {
        "notice": "finds all available `swaps_` for `tokenIn_` to `tokenOut_`.         includes all swaps unfiltered, e.g. with absorb and without absorb swaps are present for the same vault."
      },
      "getVaultSwapData(address)": {
        "notice": "returns the swap data for with and without absorb for a Fluid `vault_`."
      },
      "getVaultsSwap(address[])": {
        "notice": "returns all available `swaps_` for multiple Fluid `vaults_`. Only returns non-zero swaps.         returns only either the with absorb swap or without absorb swap for each vault, whichever has the         better ratio."
      },
      "getVaultsSwapData(address[])": {
        "notice": "returns the swap data for with and without absorb for multiple Fluid `vaults_`."
      },
      "getVaultsSwapRaw(address[])": {
        "notice": "returns all available `swaps_` for multiple Fluid `vaults_` raw. Only returns non-zero swaps.         includes all swaps unfiltered, e.g. with absorb and without absorb swaps are present for the same vault."
      }
    },
    "notice": "Resolver contract that helps in finding available token (liquidation) swaps available in Fluid VaultT1s.",
    "version": 1
  },
  "storageLayout": {
    "storage": [],
    "types": null
  }
}