{
  "address": "0xB6FF36e7d04e6017E0323F1f92A8184370d48907",
  "abi": [
    {
      "inputs": [],
      "stateMutability": "nonpayable",
      "type": "constructor"
    },
    {
      "inputs": [
        {
          "internalType": "uint256",
          "name": "colLiquidated",
          "type": "uint256"
        },
        {
          "internalType": "uint256",
          "name": "debtLiquidated",
          "type": "uint256"
        }
      ],
      "name": "FluidLiquidateResult",
      "type": "error"
    },
    {
      "inputs": [
        {
          "internalType": "uint256",
          "name": "errorId_",
          "type": "uint256"
        }
      ],
      "name": "FluidSafeTransferError",
      "type": "error"
    },
    {
      "inputs": [
        {
          "internalType": "uint256",
          "name": "errorId_",
          "type": "uint256"
        }
      ],
      "name": "FluidVaultError",
      "type": "error"
    },
    {
      "anonymous": false,
      "inputs": [
        {
          "indexed": false,
          "internalType": "uint256",
          "name": "colAbsorbedRaw_",
          "type": "uint256"
        },
        {
          "indexed": false,
          "internalType": "uint256",
          "name": "debtAbsorbedRaw_",
          "type": "uint256"
        }
      ],
      "name": "LogAbsorb",
      "type": "event"
    },
    {
      "anonymous": false,
      "inputs": [
        {
          "indexed": false,
          "internalType": "address",
          "name": "liquidator_",
          "type": "address"
        },
        {
          "indexed": false,
          "internalType": "uint256",
          "name": "colAmt_",
          "type": "uint256"
        },
        {
          "indexed": false,
          "internalType": "uint256",
          "name": "debtAmt_",
          "type": "uint256"
        },
        {
          "indexed": false,
          "internalType": "address",
          "name": "to_",
          "type": "address"
        }
      ],
      "name": "LogLiquidate",
      "type": "event"
    },
    {
      "anonymous": false,
      "inputs": [
        {
          "indexed": false,
          "internalType": "address",
          "name": "user_",
          "type": "address"
        },
        {
          "indexed": false,
          "internalType": "uint256",
          "name": "nftId_",
          "type": "uint256"
        },
        {
          "indexed": false,
          "internalType": "int256",
          "name": "colAmt_",
          "type": "int256"
        },
        {
          "indexed": false,
          "internalType": "int256",
          "name": "debtAmt_",
          "type": "int256"
        },
        {
          "indexed": false,
          "internalType": "address",
          "name": "to_",
          "type": "address"
        }
      ],
      "name": "LogOperate",
      "type": "event"
    },
    {
      "anonymous": false,
      "inputs": [
        {
          "indexed": false,
          "internalType": "int256",
          "name": "colAmt_",
          "type": "int256"
        },
        {
          "indexed": false,
          "internalType": "int256",
          "name": "debtAmt_",
          "type": "int256"
        }
      ],
      "name": "LogRebalance",
      "type": "event"
    },
    {
      "anonymous": false,
      "inputs": [
        {
          "indexed": false,
          "internalType": "uint256",
          "name": "supplyExPrice_",
          "type": "uint256"
        },
        {
          "indexed": false,
          "internalType": "uint256",
          "name": "borrowExPrice_",
          "type": "uint256"
        }
      ],
      "name": "LogUpdateExchangePrice",
      "type": "event"
    },
    {
      "inputs": [
        {
          "internalType": "uint256",
          "name": "vaultVariables_",
          "type": "uint256"
        },
        {
          "internalType": "int256",
          "name": "maxTick_",
          "type": "int256"
        }
      ],
      "name": "absorb",
      "outputs": [
        {
          "internalType": "uint256",
          "name": "",
          "type": "uint256"
        }
      ],
      "stateMutability": "payable",
      "type": "function"
    },
    {
      "inputs": [
        {
          "internalType": "int256",
          "name": "colToken0MinMax_",
          "type": "int256"
        },
        {
          "internalType": "int256",
          "name": "colToken1MinMax_",
          "type": "int256"
        },
        {
          "internalType": "int256",
          "name": "debtToken0MinMax_",
          "type": "int256"
        },
        {
          "internalType": "int256",
          "name": "debtToken1MinMax_",
          "type": "int256"
        }
      ],
      "name": "rebalance",
      "outputs": [
        {
          "internalType": "int256",
          "name": "supplyAmt_",
          "type": "int256"
        },
        {
          "internalType": "int256",
          "name": "borrowAmt_",
          "type": "int256"
        }
      ],
      "stateMutability": "payable",
      "type": "function"
    }
  ],
  "transactionHash": "0x723d94a69892ed139ec14f54b94c80d64371620ec66ef18c8e1a8cd53c1a5481",
  "args": [],
  "numDeployments": 1,
  "solcInputHash": "9f5cd0e9c1eda40ac59a3b10ab974fc1",
  "bytecode": "0x60a060405234801561001057600080fd5b50306080526080516123026100366000396000818160960152610ffc01526123026000f3fe6080604052600436106100295760003560e01c80631593a34b1461002e5780639e3e48211461005b575b600080fd5b61004161003c366004611cf0565b61007c565b604080519283526020830191909152015b60405180910390f35b61006e610069366004611d22565b610fe3565b604051908152602001610052565b60008073ffffffffffffffffffffffffffffffffffffffff7f00000000000000000000000000000000000000000000000000000000000000001630036100f7576040517f60121cca00000000000000000000000000000000000000000000000000000000815261792b60048201526024015b60405180910390fd5b60095473ffffffffffffffffffffffffffffffffffffffff16331461014c576040517f60121cca00000000000000000000000000000000000000000000000000000000815261792260048201526024016100ee565b6000805490600182169003610167576001811760005561019d565b6040517f60121cca00000000000000000000000000000000000000000000000000000000815261791960048201526024016100ee565b6101ec6040518061012001604052806000815260200160008152602001600081526020016000815260200160008152602001600081526020016000815260200160008152602001600081525090565b6101f63447611d73565b8161010001818152505060003073ffffffffffffffffffffffffffffffffffffffff1663b7791bf26040518163ffffffff1660e01b815260040161024060405180830381865afa15801561024e573d6000803e3d6000fd5b505050506040513d601f19601f820116820180604052508101906102729190611e85565b60c081015160e08201516001546040517f09f0d8cb0000000000000000000000000000000000000000000000000000000081526004810191909152929350909130906309f0d8cb90602401608060405180830381865afa1580156102da573d6000803e3d6000fd5b505050506040513d601f19601f820116820180604052508101906102fe9190611f9d565b606088015260408088019190915260208701919091529085526101c084015190517fb5c736e4000000000000000000000000000000000000000000000000000000008152600481019190915267ffffffffffffffff9060019073ffffffffffffffffffffffffffffffffffffffff85169063b5c736e490602401602060405180830381865afa158015610395573d6000803e3d6000fd5b505050506040513d601f19601f820116820180604052508101906103b99190611fd3565b901c16600881901c60ff9091161b60808501819052845164e8d4a51000916103e19190611fec565b6103eb9190612032565b60808501526101e08301516040517fb5c736e4000000000000000000000000000000000000000000000000000000008152600481019190915267ffffffffffffffff9060019073ffffffffffffffffffffffffffffffffffffffff84169063b5c736e490602401602060405180830381865afa15801561046f573d6000803e3d6000fd5b505050506040513d601f19601f820116820180604052508101906104939190611fd3565b901c16600881901c60ff9091161b60a08501819052602085015164e8d4a51000916104be9190611fec565b6104c89190612032565b60a085015266ffffffffffffff605a86901c1660ff605287901c161b60c08501819052604085015164e8d4a51000916105019190611fec565b61050b9190612032565b60c085015266ffffffffffffff609a86901c1660ff609287901c161b60e08501819052606085015164e8d4a51000916105449190611fec565b61054e9190612032565b60e0850152608084015160c085015160009110156107e95784608001518560c0015161057a9190612046565b9750614e2084610160015114806105975750619c40846101600151145b1561071a5760008c1315806105ad575060008b13155b156105e8576040517f60121cca00000000000000000000000000000000000000000000000000000000815261793e60048201526024016100ee565b6101008401515173ffffffffffffffffffffffffffffffffffffffff80851691634d9036de911673eeeeeeeeeeeeeeeeeeeeeeeeeeeeeeeeeeeeeeee14610670576101008601516020015173ffffffffffffffffffffffffffffffffffffffff1673eeeeeeeeeeeeeeeeeeeeeeeeeeeeeeeeeeeeeeee1461066a576000610672565b8c610672565b8d5b8a8f8f60006040518663ffffffff1660e01b81526004016106ae9493929190938452602084019290925260408301521515606082015260800190565b604080518083038185885af193505050508015610706575060408051601f3d9081017fffffffffffffffffffffffffffffffffffffffffffffffffffffffffffffffe01682019092526107039181019061206d565b60015b6107135760009750610a27565b5050610a27565b6101008401515173ffffffffffffffffffffffffffffffffffffffff167fffffffffffffffffffffffff111111111111111111111111111111111111111201610764575086610768565b5060005b61010084015151604080513360208083019190915282518083039091018152818301928390527fad967e150000000000000000000000000000000000000000000000000000000090925273ffffffffffffffffffffffffffffffffffffffff86169263ad967e159285926106ae92918e9160009182918291906044016120f5565b8460c0015185608001511115610a275784608001518560c0015161080d9190612046565b9750614e20846101600151148061082a5750619c40846101600151145b156109515760008c121580610840575060008b12155b1561087b576040517f60121cca00000000000000000000000000000000000000000000000000000000815261793e60048201526024016100ee565b73ffffffffffffffffffffffffffffffffffffffff83166335f0df986108a08a61214e565b6108a98f61214e565b6108b28f61214e565b6040517fffffffff0000000000000000000000000000000000000000000000000000000060e086901b16815260048101939093526024830191909152604482015233606482015260840160408051808303816000875af1925050508015610706575060408051601f3d9081017fffffffffffffffffffffffffffffffffffffffffffffffffffffffffffffffe01682019092526107039181019061206d565b6101008401515160408051600080825260208201928390527fad967e150000000000000000000000000000000000000000000000000000000090925273ffffffffffffffffffffffffffffffffffffffff86169263ad967e15926109bf928d919033908290602481016120f5565b60408051808303816000875af1925050508015610a17575060408051601f3d9081017fffffffffffffffffffffffffffffffffffffffffffffffffffffffffffffffe0168201909252610a149181019061206d565b60015b610a245760009750610a27565b50505b8460a001518560e001511115610bf5578460a001518560e00151610a4b9190612046565b96506175308461016001511480610a685750619c40846101600151145b15610b885760008a131580610a7e575060008913155b15610ab9576040517f60121cca00000000000000000000000000000000000000000000000000000000815261793e60048201526024016100ee565b6040517fe27203cd00000000000000000000000000000000000000000000000000000000815260048101889052602481018b9052604481018a905233606482015273ffffffffffffffffffffffffffffffffffffffff83169063e27203cd906084015b60408051808303816000875af1925050508015610b74575060408051601f3d9081017fffffffffffffffffffffffffffffffffffffffffffffffffffffffffffffffe0168201909252610b719181019061206d565b60015b610b815760009650610f40565b5050610f40565b6101208401515160408051600080825260208201928390527fad967e150000000000000000000000000000000000000000000000000000000090925273ffffffffffffffffffffffffffffffffffffffff85169263ad967e1592610b1c928c9082903390602481016120f5565b8460e001518560a001511115610f40578460e001518560a00151610c199190612046565b96506175308461016001511480610c365750619c40846101600151145b15610df55760008a121580610c4c575060008912155b15610c87576040517f60121cca00000000000000000000000000000000000000000000000000000000815261793e60048201526024016100ee565b6101208401515173ffffffffffffffffffffffffffffffffffffffff80841691635b3d38d7911673eeeeeeeeeeeeeeeeeeeeeeeeeeeeeeeeeeeeeeee14610d17576101208601516020015173ffffffffffffffffffffffffffffffffffffffff1673eeeeeeeeeeeeeeeeeeeeeeeeeeeeeeeeeeeeeeee14610d09576000610d20565b610d128b61214e565b610d20565b610d208c61214e565b89610d2a8e61214e565b610d338e61214e565b6040517fffffffff0000000000000000000000000000000000000000000000000000000060e087901b16815260048101939093526024830191909152604482015260006064820152608401604080518083038185885af193505050508015610dd6575060408051601f3d9081017fffffffffffffffffffffffffffffffffffffffffffffffffffffffffffffffe0168201909252610dd39181019061206d565b60015b610de35760009650610f40565b610dec8961214e565b98505050610f40565b6101208401515173ffffffffffffffffffffffffffffffffffffffff167fffffffffffffffffffffffff111111111111111111111111111111111111111201610e3f575085610e43565b5060005b610e4c8761214e565b96508173ffffffffffffffffffffffffffffffffffffffff1663ad967e15828661012001516000015160008b60008033604051602001610ea8919073ffffffffffffffffffffffffffffffffffffffff91909116815260200190565b6040516020818303038152906040526040518863ffffffff1660e01b8152600401610ed8969594939291906120f5565b604080518083038185885af193505050508015610f30575060408051601f3d9081017fffffffffffffffffffffffffffffffffffffffffffffffffffffffffffffffe0168201909252610f2d9181019061206d565b60015b610f3d5760009650610f40565b50505b87158015610f4c575086155b15610f87576040517f60121cca00000000000000000000000000000000000000000000000000000000815261793760048201526024016100ee565b6000869055610100850151610f9b9061192f565b60408051898152602081018990527f9a85dfb89c634cdc63db5d8cedaf8f9cfa4926df888bad563d70b7314a33a0ae910160405180910390a150505050505094509492505050565b600073ffffffffffffffffffffffffffffffffffffffff7f0000000000000000000000000000000000000000000000000000000000000000163003611058576040517f60121cca00000000000000000000000000000000000000000000000000000000815261792b60048201526024016100ee565b6110836040518060800160405280600081526020016000815260200160008152602001600081525090565b6000806110bf6040518060c001604052806000815260200160008152602001600081526020016000815260200160008152602001600081525090565b620fffff600288901c169250826001166001146110f3576110e3600184901c61214e565b6110ee906001612186565b611101565b611101600184811c90612186565b6040850181905260001361112657610100846040015161112191906121ae565b611150565b60016101008560400151600161113c9190612186565b61114691906121ae565b6111509190612046565b60408083018290526000918252600460209081529120546080830152617fff908201525b6080810151156113015761118b8160800151611987565b606085018190526040820151600191906111a790610100612216565b6111b19190612186565b6111bb9190612046565b60208201525b85816020015113156112e957602080820151600090815260059091526040902054845190935066ffffffffffffff602185901c1660ff601986901c161b92508290859061120f908390612262565b90525060208101516112239060020b611a3d565b61123a6c0100000000000000000000000084611fec565b6112449190612032565b846020018181516112559190612262565b905250602080820151600090815260059091526040902063020000016301fffffe8516179055606084015161128c90610101611d73565b608082018051821b821c90819052909350156112e9576112af8160800151611987565b606085018190526040820151600191906112cb90610100612216565b6112d59190612186565b6112df9190612046565b60208201526111c1565b60808101516040808301516000908152600460205220555b8581602001511315611396577fffffffffffffffffffffffffffffffffffffffffffffffffffffffffffffff7f81604001511215611364577f80000000000000000000000000000000000000000000000000000000000000006020820152611396565b6004600082604001805161137790612275565b9081905281526020810191909152604001600020546080820152611174565b6113d66040518060e00160405280600081526020016000815260200160008152602001600081526020016000815260200160008152602001600081525090565b61140f6040518060c001604052806000815260200160008152602001600081526020016000815260200160008152602001600081525090565b601689901c633fffffff1680825260009081526007602090815260408220549083015260028a1681036114da57508051602082015160c41c620fffff16955085156114a5576020808301805160a61c633fffffff1680855260009081526007909252604090912054905260018087161461149557611490600187901c61214e565b61149b565b600186901c5b6080830152611513565b600080835260208301527f80000000000000000000000000000000000000000000000000000000000000006080830152611513565b620fffff60028360200151901c1695508560011660011461150757611502600187901c61214e565b61150d565b600186901c5b60808301525b88826080015113156116905761152f826080015160020b611a3d565b6040840181905261271f9061154690612710611fec565b6115509190612032565b6060840181905260408401516115669190611d73565b60808401819052602083015160161c633fffffff90811660c0860181905290916115909190611fec565b61159a9190612032565b83606001516115a99190612262565b8360a001818152505067ffffffffffffffff60348360200151901c16945060ff8516600886901c901b945084876000018181516115e69190612262565b90525060a08301516116056c0100000000000000000000000087611fec565b61160f9190612032565b876020018181516116209190612262565b90525060208083018051845160009081526007909352604090922060039092179091555160c41c620fffff16955085156114a5576020808301805160a61c633fffffff1680855260009081526007909252604090912054905260018087161461149557611490600187901c61214e565b8160800151846020015112611801577f8000000000000000000000000000000000000000000000000000000000000000846020015113156117025760008460200151126116e85760018460200151901b6001176116fb565b600184602001516116f89061214e565b901b5b9450611707565b600094505b8060000361174057633fffffff60348b901c166001019050603481901b601682901b600287901b6052808e901c901b171717995061176c565b7fffffffffffffffffffffffffffffffffffffffffffffffffffffffffffc00000909916600285901b17985b7f8000000000000000000000000000000000000000000000000000000000000000826080015113156117ed5760008260800151126117b55760018260800151901b6001176117c8565b600182608001516117c59061214e565b901b5b8251600083815260076020526040902060a69190911b60c483901b17905594506118b8565b6000818152600760205260408120556118b8565b600082608001511261181e5760018260800151901b600117611831565b6001826080015161182e9061214e565b901b5b94508060000361185d5760168260000151901b600286901b6034808d901c901b600217171799506118b8565b603461186a600183611d73565b8351600084815260076020526040812055911b60169190911b600287811b7ffffffffffffffffffffffffffffffffffffffffffffc000000000000000000009d909d169c909c171717909917985b50505060808460200151901b84600001516002546118d69190612262565b6118e09190612262565b600255602084810151855160408051928352928201527f115609402b8e0707cb9654c5da38e5c0790ccad443a92f71160fe645aa342d04910160405180910390a1869450505050505b92915050565b3031818111156119495761194533838303611c9f565b5050565b81811015611945576040517f60121cca00000000000000000000000000000000000000000000000000000000815261791b60048201526024016100ee565b6000816fffffffffffffffffffffffffffffffff8311156119a95760809150811c5b67ffffffffffffffff8111156119c1576040918201911c5b63ffffffff8111156119d5576020918201911c5b61ffff8111156119e7576010918201911c5b60ff8111156119f8576008918201911c5b600f811115611a09576004918201911c5b6003811115611a1a576002918201911c5b6001811115611a2a576001820191505b8015611a37576001820191505b50919050565b600060ff82901d80831803617fff811115611a5757600080fd5b7001000000000000000000000000000000006001821615611a8557506fff9dd7de423466c20352b1246ce4856f5b6002821615611aa4576fff3bd55f4488ad277531fa1c725a66d00260801c5b6004821615611ac3576ffe78410fd6498b73cb96a6917f8532590260801c5b6008821615611ae2576ffcf2d9987c9be178ad5bfeffaa1232730260801c5b6010821615611b01576ff9ef02c4529258b057769680fc6601b30260801c5b6020821615611b20576ff402d288133a85a17784a411f7aba0820260801c5b6040821615611b3f576fe895615b5beb6386553757b0352bda900260801c5b6080821615611b5e576fd34f17a00ffa00a8309940a15930391a0260801c5b610100821615611b7e576fae6b7961714e20548d88ea5123f9a0ff0260801c5b610200821615611b9e576f76d6461f27082d74e0feed3b388c0ca10260801c5b610400821615611bbe576f372a3bfe0745d8b6b19d985d9a8b85bb0260801c5b610800821615611bde576f0be32cbee48979763cf7247dd7bb539d0260801c5b611000821615611bfd576e8d4f70c9ff4924dac37612d1e2921e0260801c5b612000821615611c1b576d4e009ae5519380809a02ca7aec770260801c5b614000821615611c37576b17c45e641b6e95dee056ff100260801c5b600091507f80000000000000000000000000000000000000000000000000000000000000008416611c95577fffffffffffffffffffffffffffffffffffffffffffffffffffffffffffffffff0463ffffffff811615611c9557600191505b60201c0192915050565b60008060008060008587614e20f1905080611ceb576040517fdee51a8a0000000000000000000000000000000000000000000000000000000081526201155a60048201526024016100ee565b505050565b60008060008060808587031215611d0657600080fd5b5050823594602084013594506040840135936060013592509050565b60008060408385031215611d3557600080fd5b50508035926020909101359150565b7f4e487b7100000000000000000000000000000000000000000000000000000000600052601160045260246000fd5b8181038181111561192957611929611d44565b604051610200810167ffffffffffffffff81118282101715611dd1577f4e487b7100000000000000000000000000000000000000000000000000000000600052604160045260246000fd5b60405290565b805173ffffffffffffffffffffffffffffffffffffffff81168114611dfb57600080fd5b919050565b600060408284031215611e1257600080fd5b6040516040810181811067ffffffffffffffff82111715611e5c577f4e487b7100000000000000000000000000000000000000000000000000000000600052604160045260246000fd5b604052905080611e6b83611dd7565b8152611e7960208401611dd7565b60208201525092915050565b60006102408284031215611e9857600080fd5b611ea0611d86565b611ea983611dd7565b8152611eb760208401611dd7565b6020820152611ec860408401611dd7565b6040820152611ed960608401611dd7565b6060820152611eea60808401611dd7565b6080820152611efb60a08401611dd7565b60a0820152611f0c60c08401611dd7565b60c0820152611f1d60e08401611dd7565b60e0820152610100611f3185828601611e00565b90820152610140611f4485858301611e00565b61012083015261018080850151828401526101a09150818501516101608401526101c080860151828501526101e09150818601518385015261020086015181850152506102208501518184015250508091505092915050565b60008060008060808587031215611fb357600080fd5b505082516020840151604085015160609095015191969095509092509050565b600060208284031215611fe557600080fd5b5051919050565b808202811582820484141761192957611929611d44565b7f4e487b7100000000000000000000000000000000000000000000000000000000600052601260045260246000fd5b60008261204157612041612003565b500490565b818103600083128015838313168383128216171561206657612066611d44565b5092915050565b6000806040838503121561208057600080fd5b505080516020909101519092909150565b6000815180845260005b818110156120b75760208185018101518683018201520161209b565b5060006020828601015260207fffffffffffffffffffffffffffffffffffffffffffffffffffffffffffffffe0601f83011685010191505092915050565b600073ffffffffffffffffffffffffffffffffffffffff8089168352876020840152866040840152808616606084015280851660808401525060c060a083015261214260c0830184612091565b98975050505050505050565b60007f8000000000000000000000000000000000000000000000000000000000000000820361217f5761217f611d44565b5060000390565b80820182811260008312801582168215821617156121a6576121a6611d44565b505092915050565b6000826121bd576121bd612003565b7fffffffffffffffffffffffffffffffffffffffffffffffffffffffffffffffff83147f80000000000000000000000000000000000000000000000000000000000000008314161561221157612211611d44565b500590565b808202600082127f80000000000000000000000000000000000000000000000000000000000000008414161561224e5761224e611d44565b818105831482151761192957611929611d44565b8082018082111561192957611929611d44565b60007f800000000000000000000000000000000000000000000000000000000000000082036122a6576122a6611d44565b507fffffffffffffffffffffffffffffffffffffffffffffffffffffffffffffffff019056fea264697066735822122028aae685a75536068b490e0cd1d1f767f16246d27be1014b62441d90577dc1dc64736f6c63430008150033",
  "devdoc": {
    "kind": "dev",
    "methods": {
      "absorb(uint256,int256)": {
        "details": "absorb function absorbs the bad debt if the bad debt is above max limit. The main use of it is if the bad debt didn't got liquidated in time maybe due to sudden price drop or bad debt was extremely small to liquidate and the bad debt goes above 100% ratio then there's no incentive for anyone to liquidate now hence absorb functions absorbs that bad debt to allow newer bad debt to liquidate seamlessly. if absorbing were to happen after this it's on governance on how to deal with it although it can still be removed through liquidate via liquidator if the price goes back up and liquidation becomes beneficial upon absorbed user position gets 100% liquidated."
      },
      "rebalance(int256,int256,int256,int256)": {
        "details": "Checks total supply of vault's in Liquidity Layer & Vault contract and rebalance it accordingly if vault supply is more than Liquidity Layer then deposit difference through reserve/rebalance contract if vault supply is less than Liquidity Layer then withdraw difference to reserve/rebalance contract if vault borrow is more than Liquidity Layer then borrow difference to reserve/rebalance contract if vault borrow is less than Liquidity Layer then payback difference through reserve/rebalance contract"
      }
    },
    "version": 1
  },
  "userdoc": {
    "errors": {
      "FluidLiquidateResult(uint256,uint256)": [
        {
          "notice": "used to simulate liquidation to find the maximum liquidatable amounts"
        }
      ]
    },
    "events": {
      "LogAbsorb(uint256,uint256)": {
        "notice": "emitted when `absorb()` was executed to absorb bad debt."
      },
      "LogLiquidate(address,uint256,uint256,address)": {
        "notice": "emitted when a liquidation has been executed."
      },
      "LogOperate(address,uint256,int256,int256,address)": {
        "notice": "emitted when an operate() method is executed that changes collateral (`colAmt_`) / debt (debtAmt_`) amount for a `user_` position with `nftId_`. Receiver of any funds is the address `to_`."
      },
      "LogRebalance(int256,int256)": {
        "notice": "emitted when a `rebalance()` has been executed, balancing out total supply / borrow between Vault and Fluid Liquidity pools. if `colAmt_` is positive then loss, meaning transfer from rebalancer address to vault and deposit. if `colAmt_` is negative then profit, meaning withdrawn from vault and sent to rebalancer address. if `debtAmt_` is positive then profit, meaning borrow from vault and sent to rebalancer address. if `debtAmt_` is negative then loss, meaning transfer from rebalancer address to vault and payback."
      },
      "LogUpdateExchangePrice(uint256,uint256)": {
        "notice": "emitted when the exchange prices are updated in storage."
      }
    },
    "kind": "user",
    "methods": {},
    "notice": "Fluid Vault protocol secondary methods contract.         Implements `absorb()` and `rebalance()` methods, extracted from main contract due to contract size limits.         Methods are limited to be called via delegateCall only (as done by Vault CoreModule contract).",
    "version": 1
  },
  "storageLayout": {
    "storage": [
      {
        "astId": 123063,
        "contract": "contracts/protocols/vault/vaultTypesCommon/coreModule/main2.sol:FluidVaultSecondary",
        "label": "vaultVariables",
        "offset": 0,
        "slot": "0",
        "type": "t_uint256"
      },
      {
        "astId": 123066,
        "contract": "contracts/protocols/vault/vaultTypesCommon/coreModule/main2.sol:FluidVaultSecondary",
        "label": "vaultVariables2",
        "offset": 0,
        "slot": "1",
        "type": "t_uint256"
      },
      {
        "astId": 123069,
        "contract": "contracts/protocols/vault/vaultTypesCommon/coreModule/main2.sol:FluidVaultSecondary",
        "label": "absorbedLiquidity",
        "offset": 0,
        "slot": "2",
        "type": "t_uint256"
      },
      {
        "astId": 123074,
        "contract": "contracts/protocols/vault/vaultTypesCommon/coreModule/main2.sol:FluidVaultSecondary",
        "label": "positionData",
        "offset": 0,
        "slot": "3",
        "type": "t_mapping(t_uint256,t_uint256)"
      },
      {
        "astId": 123079,
        "contract": "contracts/protocols/vault/vaultTypesCommon/coreModule/main2.sol:FluidVaultSecondary",
        "label": "tickHasDebt",
        "offset": 0,
        "slot": "4",
        "type": "t_mapping(t_int256,t_uint256)"
      },
      {
        "astId": 123084,
        "contract": "contracts/protocols/vault/vaultTypesCommon/coreModule/main2.sol:FluidVaultSecondary",
        "label": "tickData",
        "offset": 0,
        "slot": "5",
        "type": "t_mapping(t_int256,t_uint256)"
      },
      {
        "astId": 123091,
        "contract": "contracts/protocols/vault/vaultTypesCommon/coreModule/main2.sol:FluidVaultSecondary",
        "label": "tickId",
        "offset": 0,
        "slot": "6",
        "type": "t_mapping(t_int256,t_mapping(t_uint256,t_uint256))"
      },
      {
        "astId": 123096,
        "contract": "contracts/protocols/vault/vaultTypesCommon/coreModule/main2.sol:FluidVaultSecondary",
        "label": "branchData",
        "offset": 0,
        "slot": "7",
        "type": "t_mapping(t_uint256,t_uint256)"
      },
      {
        "astId": 123099,
        "contract": "contracts/protocols/vault/vaultTypesCommon/coreModule/main2.sol:FluidVaultSecondary",
        "label": "rates",
        "offset": 0,
        "slot": "8",
        "type": "t_uint256"
      },
      {
        "astId": 123102,
        "contract": "contracts/protocols/vault/vaultTypesCommon/coreModule/main2.sol:FluidVaultSecondary",
        "label": "rebalancer",
        "offset": 0,
        "slot": "9",
        "type": "t_address"
      },
      {
        "astId": 123104,
        "contract": "contracts/protocols/vault/vaultTypesCommon/coreModule/main2.sol:FluidVaultSecondary",
        "label": "absorbedDustDebt",
        "offset": 0,
        "slot": "10",
        "type": "t_uint256"
      },
      {
        "astId": 123106,
        "contract": "contracts/protocols/vault/vaultTypesCommon/coreModule/main2.sol:FluidVaultSecondary",
        "label": "dexFromAddress",
        "offset": 0,
        "slot": "11",
        "type": "t_address"
      }
    ],
    "types": {
      "t_address": {
        "encoding": "inplace",
        "label": "address",
        "numberOfBytes": "20"
      },
      "t_int256": {
        "encoding": "inplace",
        "label": "int256",
        "numberOfBytes": "32"
      },
      "t_mapping(t_int256,t_mapping(t_uint256,t_uint256))": {
        "encoding": "mapping",
        "key": "t_int256",
        "label": "mapping(int256 => mapping(uint256 => uint256))",
        "numberOfBytes": "32",
        "value": "t_mapping(t_uint256,t_uint256)"
      },
      "t_mapping(t_int256,t_uint256)": {
        "encoding": "mapping",
        "key": "t_int256",
        "label": "mapping(int256 => uint256)",
        "numberOfBytes": "32",
        "value": "t_uint256"
      },
      "t_mapping(t_uint256,t_uint256)": {
        "encoding": "mapping",
        "key": "t_uint256",
        "label": "mapping(uint256 => uint256)",
        "numberOfBytes": "32",
        "value": "t_uint256"
      },
      "t_uint256": {
        "encoding": "inplace",
        "label": "uint256",
        "numberOfBytes": "32"
      }
    }
  }
}