{
  "address": "0x4BD81CE5dEF773ee766C7D931b7477093f6C9677",
  "abi": [
    {
      "inputs": [
        {
          "internalType": "string",
          "name": "infoName_",
          "type": "string"
        },
        {
          "components": [
            {
              "internalType": "uint8",
              "name": "hops",
              "type": "uint8"
            },
            {
              "components": [
                {
                  "internalType": "contract IChainlinkAggregatorV3",
                  "name": "feed",
                  "type": "address"
                },
                {
                  "internalType": "bool",
                  "name": "invertRate",
                  "type": "bool"
                },
                {
                  "internalType": "uint256",
                  "name": "token0Decimals",
                  "type": "uint256"
                }
              ],
              "internalType": "struct ChainlinkStructs.ChainlinkFeedData",
              "name": "feed1",
              "type": "tuple"
            },
            {
              "components": [
                {
                  "internalType": "contract IChainlinkAggregatorV3",
                  "name": "feed",
                  "type": "address"
                },
                {
                  "internalType": "bool",
                  "name": "invertRate",
                  "type": "bool"
                },
                {
                  "internalType": "uint256",
                  "name": "token0Decimals",
                  "type": "uint256"
                }
              ],
              "internalType": "struct ChainlinkStructs.ChainlinkFeedData",
              "name": "feed2",
              "type": "tuple"
            },
            {
              "components": [
                {
                  "internalType": "contract IChainlinkAggregatorV3",
                  "name": "feed",
                  "type": "address"
                },
                {
                  "internalType": "bool",
                  "name": "invertRate",
                  "type": "bool"
                },
                {
                  "internalType": "uint256",
                  "name": "token0Decimals",
                  "type": "uint256"
                }
              ],
              "internalType": "struct ChainlinkStructs.ChainlinkFeedData",
              "name": "feed3",
              "type": "tuple"
            }
          ],
          "internalType": "struct ChainlinkStructs.ChainlinkConstructorParams",
          "name": "clParams_",
          "type": "tuple"
        },
        {
          "internalType": "address",
          "name": "sequencerUptimeFeed_",
          "type": "address"
        }
      ],
      "stateMutability": "nonpayable",
      "type": "constructor"
    },
    {
      "inputs": [
        {
          "internalType": "uint256",
          "name": "errorId_",
          "type": "uint256"
        }
      ],
      "name": "FluidOracleError",
      "type": "error"
    },
    {
      "inputs": [],
      "name": "centerPrice",
      "outputs": [
        {
          "internalType": "uint256",
          "name": "price_",
          "type": "uint256"
        }
      ],
      "stateMutability": "view",
      "type": "function"
    },
    {
      "inputs": [],
      "name": "chainlinkOracleData",
      "outputs": [
        {
          "internalType": "uint256",
          "name": "chainlinkExchangeRate_",
          "type": "uint256"
        },
        {
          "internalType": "contract IChainlinkAggregatorV3",
          "name": "chainlinkFeed1_",
          "type": "address"
        },
        {
          "internalType": "bool",
          "name": "chainlinkInvertRate1_",
          "type": "bool"
        },
        {
          "internalType": "uint256",
          "name": "chainlinkExchangeRate1_",
          "type": "uint256"
        },
        {
          "internalType": "contract IChainlinkAggregatorV3",
          "name": "chainlinkFeed2_",
          "type": "address"
        },
        {
          "internalType": "bool",
          "name": "chainlinkInvertRate2_",
          "type": "bool"
        },
        {
          "internalType": "uint256",
          "name": "chainlinkExchangeRate2_",
          "type": "uint256"
        },
        {
          "internalType": "contract IChainlinkAggregatorV3",
          "name": "chainlinkFeed3_",
          "type": "address"
        },
        {
          "internalType": "bool",
          "name": "chainlinkInvertRate3_",
          "type": "bool"
        },
        {
          "internalType": "uint256",
          "name": "chainlinkExchangeRate3_",
          "type": "uint256"
        }
      ],
      "stateMutability": "view",
      "type": "function"
    },
    {
      "inputs": [],
      "name": "getExchangeRate",
      "outputs": [
        {
          "internalType": "uint256",
          "name": "exchangeRate_",
          "type": "uint256"
        }
      ],
      "stateMutability": "view",
      "type": "function"
    },
    {
      "inputs": [],
      "name": "getExchangeRateLiquidate",
      "outputs": [
        {
          "internalType": "uint256",
          "name": "exchangeRate_",
          "type": "uint256"
        }
      ],
      "stateMutability": "view",
      "type": "function"
    },
    {
      "inputs": [],
      "name": "getExchangeRateOperate",
      "outputs": [
        {
          "internalType": "uint256",
          "name": "exchangeRate_",
          "type": "uint256"
        }
      ],
      "stateMutability": "view",
      "type": "function"
    },
    {
      "inputs": [],
      "name": "infoName",
      "outputs": [
        {
          "internalType": "string",
          "name": "",
          "type": "string"
        }
      ],
      "stateMutability": "view",
      "type": "function"
    },
    {
      "inputs": [],
      "name": "sequencerL2Data",
      "outputs": [
        {
          "internalType": "address",
          "name": "sequencerUptimeFeed_",
          "type": "address"
        },
        {
          "internalType": "uint256",
          "name": "maxGracePeriod_",
          "type": "uint256"
        },
        {
          "internalType": "bool",
          "name": "isSequencerUp_",
          "type": "bool"
        },
        {
          "internalType": "uint256",
          "name": "lastUptimeStartedAt_",
          "type": "uint256"
        },
        {
          "internalType": "uint256",
          "name": "gracePeriod_",
          "type": "uint256"
        },
        {
          "internalType": "bool",
          "name": "gracePeriodPassed_",
          "type": "bool"
        },
        {
          "internalType": "uint256",
          "name": "lastOutageStartedAt_",
          "type": "uint256"
        },
        {
          "internalType": "bool",
          "name": "isSequencerUpAndValid_",
          "type": "bool"
        }
      ],
      "stateMutability": "view",
      "type": "function"
    }
  ],
  "transactionHash": "0x1a43f4c74c8d522b4f70638593a7bfbe6040357a29a64f6958ce7f0887f15d2c",
  "args": [
    [
      "ETH for 1 WSTETH",
      {
        "hops": 1,
        "feed1": {
          "feed": "0xB1552C5e96B312d0Bf8b554186F846C40614a540",
          "invertRate": false,
          "token0Decimals": 18
        },
        "feed2": {
          "feed": "0x0000000000000000000000000000000000000000",
          "invertRate": false,
          "token0Decimals": 0
        },
        "feed3": {
          "feed": "0x0000000000000000000000000000000000000000",
          "invertRate": false,
          "token0Decimals": 0
        }
      },
      "0xFdB631F5EE196F0ed6FAa767959853A9F217697D"
    ]
  ],
  "numDeployments": 1,
  "linkedData": {
    "nonce": "3"
  },
  "bytecode": "0x6102206040523480156200001257600080fd5b50604051620019be380380620019be833981016040819052620000359162000499565b8183826020825111806200004857508151155b15620000705760405163c82fc46560e01b815261ea6a60048201526024015b60405180910390fd5b60209190910151608052600080546001600160a01b0319166001600160a01b039092169190911790558051600160ff9091161080620000b657506003816000015160ff16115b80620000df57506020810151516001600160a01b03161580620000df5750602081015160400151155b806200011a57506001816000015160ff161180156200011a57506040810151516001600160a01b031615806200011a57506040808201510151155b806200015657506002816000015160ff161180156200015657506060810151516001600160a01b03161580620001565750606081015160400151155b156200017a5760405163c82fc46560e01b815261ee49600482015260240162000067565b60208082018051516001600160a01b0390811660a0526040808501805151831660c0526060860180515190931660e052835185015115156101005251840151151561012052905190920151151561014052510151620001db90601b6200058d565b620001e890600a620006a6565b610160526020810151604001516200020290601b620006bb565b6200020f90600a620006a6565b610180528051600160ff909116116200022a5760016200024c565b60408082015101516200023f90601b6200058d565b6200024c90600a620006a6565b6101a0528051600160ff909116116200026757600162000289565b60408082015101516200027c90601b620006bb565b6200028990600a620006a6565b6101c0528051600260ff90911611620002a4576001620002c7565b606081015160400151620002ba90601b6200058d565b620002c790600a620006a6565b6101e0528051600260ff90911611620002e257600162000305565b606081015160400151620002f890601b620006bb565b6200030590600a620006a6565b6102005250620006d192505050565b634e487b7160e01b600052604160045260246000fd5b604051601f8201601f191681016001600160401b038111828210171562000355576200035562000314565b604052919050565b6001600160a01b03811681146200037357600080fd5b50565b6000606082840312156200038957600080fd5b604051606081016001600160401b0381118282101715620003ae57620003ae62000314565b80604052508091508251620003c3816200035d565b815260208301518015158114620003d957600080fd5b6020820152604092830151920191909152919050565b600061014082840312156200040357600080fd5b604051608081016001600160401b038111828210171562000428576200042862000314565b8060405250809150825160ff811681146200044257600080fd5b815262000453846020850162000376565b602082015262000467846080850162000376565b60408201526200047b8460e0850162000376565b60608201525092915050565b805162000494816200035d565b919050565b60008060006101808486031215620004b057600080fd5b83516001600160401b0380821115620004c857600080fd5b818601915086601f830112620004dd57600080fd5b815181811115620004f257620004f262000314565b602091506200050a601f8201601f191683016200032a565b81815288838386010111156200051f57600080fd5b60005b828110156200053f57848101840151828201850152830162000522565b50600083838301015280965050506200055b87828801620003ef565b935050506200056e610160850162000487565b90509250925092565b634e487b7160e01b600052601160045260246000fd5b81810381811115620005a357620005a362000577565b92915050565b600181815b80851115620005ea578160001904821115620005ce57620005ce62000577565b80851615620005dc57918102915b93841c9390800290620005ae565b509250929050565b6000826200060357506001620005a3565b816200061257506000620005a3565b81600181146200062b5760028114620006365762000656565b6001915050620005a3565b60ff8411156200064a576200064a62000577565b50506001821b620005a3565b5060208310610133831016604e8410600b84101617156200067b575081810a620005a3565b620006878383620005a9565b80600019048211156200069e576200069e62000577565b029392505050565b6000620006b48383620005f2565b9392505050565b80820180821115620005a357620005a362000577565b60805160a05160c05160e05161010051610120516101405161016051610180516101a0516101c0516101e051610200516111bd6200080160003960008181610426015261080d01526000818161040501526107ec015260008181610334015261071601526000818161031301526106f501526000818161024a01526106330152600081816102290152610612015260008181610383015281816103e401526107cb015260008181610291015281816102f201526106d40152600081816101c30152818161020801526105f1015260008181610362015281816103c30152818161075a01526107aa015260008181610270015281816102d10152818161066301526106b30152600081816101a2015281816101e701526105d00152600081816109bc0152610a8101526111bd6000f3fe608060405234801561001057600080fd5b506004361061007d5760003560e01c8063dc4595121161005b578063dc45951214610125578063e6aa216c146100fa578063f3190c89146100fa578063f763f7a6146100fa57600080fd5b80637557ca41146100825780638e7bfbc0146100fa578063abd5f95d14610110575b600080fd5b61008a610189565b604080519a8b5273ffffffffffffffffffffffffffffffffffffffff998a1660208c0152971515978a01979097526060890195909552928616608088015290151560a087015260c086015290921660e0840152901515610100830152610120820152610140015b60405180910390f35b610102610472565b6040519081526020016100f1565b610118610489565b6040516100f19190610e07565b61012d610493565b6040805173ffffffffffffffffffffffffffffffffffffffff909916895260208901979097529415159587019590955260608601929092526080850152151560a084015260c0830191909152151560e0820152610100016100f1565b6000806000806000806000806000806101a06105c9565b7f00000000000000000000000000000000000000000000000000000000000000007f000000000000000000000000000000000000000000000000000000000000000061026e7f00000000000000000000000000000000000000000000000000000000000000007f00000000000000000000000000000000000000000000000000000000000000007f00000000000000000000000000000000000000000000000000000000000000007f0000000000000000000000000000000000000000000000000000000000000000610845565b7f00000000000000000000000000000000000000000000000000000000000000007f000000000000000000000000000000000000000000000000000000000000000073ffffffffffffffffffffffffffffffffffffffff82161561035d576103587f00000000000000000000000000000000000000000000000000000000000000007f00000000000000000000000000000000000000000000000000000000000000007f00000000000000000000000000000000000000000000000000000000000000007f0000000000000000000000000000000000000000000000000000000000000000610845565b610360565b60005b7f00000000000000000000000000000000000000000000000000000000000000007f000000000000000000000000000000000000000000000000000000000000000073ffffffffffffffffffffffffffffffffffffffff82161561044f5761044a7f00000000000000000000000000000000000000000000000000000000000000007f00000000000000000000000000000000000000000000000000000000000000007f00000000000000000000000000000000000000000000000000000000000000007f0000000000000000000000000000000000000000000000000000000000000000610845565b610452565b60005b995099509950995099509950995099509950995090919293949596979899565b600061047c610906565b6104846105c9565b905090565b60606104846109aa565b60008060008060008060008060006104a9610b0f565b919850909650905086156104cd576104c18187610cbc565b91965094509250610583565b610a8c945060008060009054906101000a900473ffffffffffffffffffffffffffffffffffffffff1673ffffffffffffffffffffffffffffffffffffffff1663feaf968c6040518163ffffffff1660e01b815260040160a060405180830381865afa158015610540573d6000803e3d6000fd5b505050506040513d601f19601f820116820180604052508101906105649190610e92565b50505050905061057f81600161057a9190610f11565b610d26565b9350505b60005473ffffffffffffffffffffffffffffffffffffffff16610a8c88888888888480156105ae57508a5b98509850985098509850985098509850509091929394959697565b60006106577f00000000000000000000000000000000000000000000000000000000000000007f00000000000000000000000000000000000000000000000000000000000000007f00000000000000000000000000000000000000000000000000000000000000007f0000000000000000000000000000000000000000000000000000000000000000610845565b905080158061069a57507f000000000000000000000000000000000000000000000000000000000000000073ffffffffffffffffffffffffffffffffffffffff16155b156106a25790565b6106ae601b600a611056565b61073a7f00000000000000000000000000000000000000000000000000000000000000007f00000000000000000000000000000000000000000000000000000000000000007f00000000000000000000000000000000000000000000000000000000000000007f0000000000000000000000000000000000000000000000000000000000000000610845565b6107449083611069565b61074e9190611080565b905080158061079157507f000000000000000000000000000000000000000000000000000000000000000073ffffffffffffffffffffffffffffffffffffffff16155b156107995790565b6107a5601b600a611056565b6108317f00000000000000000000000000000000000000000000000000000000000000007f00000000000000000000000000000000000000000000000000000000000000007f00000000000000000000000000000000000000000000000000000000000000007f0000000000000000000000000000000000000000000000000000000000000000610845565b61083b9083611069565b6104849190611080565b60008473ffffffffffffffffffffffffffffffffffffffff1663feaf968c6040518163ffffffff1660e01b815260040160a060405180830381865afa9250505080156108cc575060408051601f3d9081017fffffffffffffffffffffffffffffffffffffffffffffffffffffffffffffffe01682019092526108c991810190610e92565b60015b6108d8575060006108fe565b88156108f4576108e88488611080565b955050505050506108fe565b6108e88885611069565b949350505050565b6000806000610913610b0f565b92509250925082610959576040517fc82fc46500000000000000000000000000000000000000000000000000000000815261ea6060048201526024015b60405180910390fd5b60006109658383610cbc565b50915050806109a4576040517fc82fc46500000000000000000000000000000000000000000000000000000000815261ea606004820152602401610950565b50505050565b606060005b602081108015610a1557507f000000000000000000000000000000000000000000000000000000000000000081602081106109ec576109ec6110bb565b1a60f81b7fff000000000000000000000000000000000000000000000000000000000000001615155b15610a2c5780610a24816110ea565b9150506109af565b60008167ffffffffffffffff811115610a4757610a47611122565b6040519080825280601f01601f191660200182016040528015610a71576020820181803683370190505b50905060005b82811015610b08577f00000000000000000000000000000000000000000000000000000000000000008160208110610ab157610ab16110bb565b1a60f81b828281518110610ac757610ac76110bb565b60200101907effffffffffffffffffffffffffffffffffffffffffffffffffffffffffffff1916908160001a90535080610b00816110ea565b915050610a77565b5092915050565b60008060008060008060008054906101000a900473ffffffffffffffffffffffffffffffffffffffff1673ffffffffffffffffffffffffffffffffffffffff1663feaf968c6040518163ffffffff1660e01b815260040160a060405180830381865afa158015610b83573d6000803e3d6000fd5b505050506040513d601f19601f82011682018060405250810190610ba79190610e92565b505092509250925081600014610bc7575060009586955085945092505050565b600195508294508093506000841115610cb4575b60005473ffffffffffffffffffffffffffffffffffffffff16639a6fc8f5610c04600186611151565b6040517fffffffff0000000000000000000000000000000000000000000000000000000060e084901b16815269ffffffffffffffffffff909116600482015260240160a060405180830381865afa158015610c63573d6000803e3d6000fd5b505050506040513d601f19601f82011682018060405250810190610c879190610e92565b509295509093509150506000829003610ca1578294508093505b81158015610caf5750600081115b610bdb575b505050909192565b6000808080610ccb8542611174565b9050841580610cdb5750610a8c81115b15610cf357610a8c6001600093509350935050610d1f565b610cfc86610d26565b9150610d088286611174565b9350610a8c841115610d1a57610a8c93505b831091505b9250925092565b60008181805b60005473ffffffffffffffffffffffffffffffffffffffff16639a6fc8f5610d55600186611151565b6040517fffffffff0000000000000000000000000000000000000000000000000000000060e084901b16815269ffffffffffffffffffff909116600482015260240160a060405180830381865afa158015610db4573d6000803e3d6000fd5b505050506040513d601f19601f82011682018060405250810190610dd89190610e92565b509295509093509150508115610dec578093505b8115801590610dfb5750600081115b610d2c57505050919050565b600060208083528351808285015260005b81811015610e3457858101830151858201604001528201610e18565b5060006040828601015260407fffffffffffffffffffffffffffffffffffffffffffffffffffffffffffffffe0601f8301168501019250505092915050565b805169ffffffffffffffffffff81168114610e8d57600080fd5b919050565b600080600080600060a08688031215610eaa57600080fd5b610eb386610e73565b9450602086015193506040860151925060608601519150610ed660808701610e73565b90509295509295909350565b7f4e487b7100000000000000000000000000000000000000000000000000000000600052601160045260246000fd5b69ffffffffffffffffffff818116838216019080821115610b0857610b08610ee2565b600181815b80851115610f8d57817fffffffffffffffffffffffffffffffffffffffffffffffffffffffffffffffff04821115610f7357610f73610ee2565b80851615610f8057918102915b93841c9390800290610f39565b509250929050565b600082610fa457506001611050565b81610fb157506000611050565b8160018114610fc75760028114610fd157610fed565b6001915050611050565b60ff841115610fe257610fe2610ee2565b50506001821b611050565b5060208310610133831016604e8410600b8410161715611010575081810a611050565b61101a8383610f34565b807fffffffffffffffffffffffffffffffffffffffffffffffffffffffffffffffff0482111561104c5761104c610ee2565b0290505b92915050565b60006110628383610f95565b9392505050565b808202811582820484141761105057611050610ee2565b6000826110b6577f4e487b7100000000000000000000000000000000000000000000000000000000600052601260045260246000fd5b500490565b7f4e487b7100000000000000000000000000000000000000000000000000000000600052603260045260246000fd5b60007fffffffffffffffffffffffffffffffffffffffffffffffffffffffffffffffff820361111b5761111b610ee2565b5060010190565b7f4e487b7100000000000000000000000000000000000000000000000000000000600052604160045260246000fd5b69ffffffffffffffffffff828116828216039080821115610b0857610b08610ee2565b8181038181111561105057611050610ee256fea2646970667358221220a0516f7fb2008b8bcdcb2320a93c612cced40109214204daae67a899b54265af64736f6c63430008150033"
}