{
  "address": "0x6bDf305BfD96C1eD1a04DB8871A254E2EF961c14",
  "abi": [
    {
      "inputs": [
        {
          "internalType": "string",
          "name": "infoName_",
          "type": "string"
        },
        {
          "components": [
            {
              "internalType": "uint8",
              "name": "fallbackMainSource",
              "type": "uint8"
            },
            {
              "components": [
                {
                  "internalType": "uint8",
                  "name": "hops",
                  "type": "uint8"
                },
                {
                  "components": [
                    {
                      "internalType": "contract IChainlinkAggregatorV3",
                      "name": "feed",
                      "type": "address"
                    },
                    {
                      "internalType": "bool",
                      "name": "invertRate",
                      "type": "bool"
                    },
                    {
                      "internalType": "uint256",
                      "name": "token0Decimals",
                      "type": "uint256"
                    }
                  ],
                  "internalType": "struct ChainlinkStructs.ChainlinkFeedData",
                  "name": "feed1",
                  "type": "tuple"
                },
                {
                  "components": [
                    {
                      "internalType": "contract IChainlinkAggregatorV3",
                      "name": "feed",
                      "type": "address"
                    },
                    {
                      "internalType": "bool",
                      "name": "invertRate",
                      "type": "bool"
                    },
                    {
                      "internalType": "uint256",
                      "name": "token0Decimals",
                      "type": "uint256"
                    }
                  ],
                  "internalType": "struct ChainlinkStructs.ChainlinkFeedData",
                  "name": "feed2",
                  "type": "tuple"
                },
                {
                  "components": [
                    {
                      "internalType": "contract IChainlinkAggregatorV3",
                      "name": "feed",
                      "type": "address"
                    },
                    {
                      "internalType": "bool",
                      "name": "invertRate",
                      "type": "bool"
                    },
                    {
                      "internalType": "uint256",
                      "name": "token0Decimals",
                      "type": "uint256"
                    }
                  ],
                  "internalType": "struct ChainlinkStructs.ChainlinkFeedData",
                  "name": "feed3",
                  "type": "tuple"
                }
              ],
              "internalType": "struct ChainlinkStructs.ChainlinkConstructorParams",
              "name": "chainlinkParams",
              "type": "tuple"
            },
            {
              "components": [
                {
                  "internalType": "contract IRedstoneOracle",
                  "name": "oracle",
                  "type": "address"
                },
                {
                  "internalType": "bool",
                  "name": "invertRate",
                  "type": "bool"
                },
                {
                  "internalType": "uint256",
                  "name": "token0Decimals",
                  "type": "uint256"
                }
              ],
              "internalType": "struct RedstoneStructs.RedstoneOracleData",
              "name": "redstoneOracle",
              "type": "tuple"
            }
          ],
          "internalType": "struct CLRS2UniV3CheckCLRSOracleL2.CLRS2ConstructorParams",
          "name": "cLRS2Params_",
          "type": "tuple"
        },
        {
          "components": [
            {
              "components": [
                {
                  "internalType": "contract IUniswapV3Pool",
                  "name": "pool",
                  "type": "address"
                },
                {
                  "internalType": "bool",
                  "name": "invertRate",
                  "type": "bool"
                },
                {
                  "internalType": "uint256[3]",
                  "name": "tWAPMaxDeltaPercents",
                  "type": "uint256[3]"
                },
                {
                  "internalType": "uint32[5]",
                  "name": "secondsAgos",
                  "type": "uint32[5]"
                }
              ],
              "internalType": "struct UniV3OracleImpl.UniV3ConstructorParams",
              "name": "uniV3Params",
              "type": "tuple"
            },
            {
              "components": [
                {
                  "internalType": "uint8",
                  "name": "hops",
                  "type": "uint8"
                },
                {
                  "components": [
                    {
                      "internalType": "contract IChainlinkAggregatorV3",
                      "name": "feed",
                      "type": "address"
                    },
                    {
                      "internalType": "bool",
                      "name": "invertRate",
                      "type": "bool"
                    },
                    {
                      "internalType": "uint256",
                      "name": "token0Decimals",
                      "type": "uint256"
                    }
                  ],
                  "internalType": "struct ChainlinkStructs.ChainlinkFeedData",
                  "name": "feed1",
                  "type": "tuple"
                },
                {
                  "components": [
                    {
                      "internalType": "contract IChainlinkAggregatorV3",
                      "name": "feed",
                      "type": "address"
                    },
                    {
                      "internalType": "bool",
                      "name": "invertRate",
                      "type": "bool"
                    },
                    {
                      "internalType": "uint256",
                      "name": "token0Decimals",
                      "type": "uint256"
                    }
                  ],
                  "internalType": "struct ChainlinkStructs.ChainlinkFeedData",
                  "name": "feed2",
                  "type": "tuple"
                },
                {
                  "components": [
                    {
                      "internalType": "contract IChainlinkAggregatorV3",
                      "name": "feed",
                      "type": "address"
                    },
                    {
                      "internalType": "bool",
                      "name": "invertRate",
                      "type": "bool"
                    },
                    {
                      "internalType": "uint256",
                      "name": "token0Decimals",
                      "type": "uint256"
                    }
                  ],
                  "internalType": "struct ChainlinkStructs.ChainlinkFeedData",
                  "name": "feed3",
                  "type": "tuple"
                }
              ],
              "internalType": "struct ChainlinkStructs.ChainlinkConstructorParams",
              "name": "chainlinkParams",
              "type": "tuple"
            },
            {
              "components": [
                {
                  "internalType": "contract IRedstoneOracle",
                  "name": "oracle",
                  "type": "address"
                },
                {
                  "internalType": "bool",
                  "name": "invertRate",
                  "type": "bool"
                },
                {
                  "internalType": "uint256",
                  "name": "token0Decimals",
                  "type": "uint256"
                }
              ],
              "internalType": "struct RedstoneStructs.RedstoneOracleData",
              "name": "redstoneOracle",
              "type": "tuple"
            },
            {
              "internalType": "uint8",
              "name": "rateSource",
              "type": "uint8"
            },
            {
              "internalType": "uint8",
              "name": "fallbackMainSource",
              "type": "uint8"
            },
            {
              "internalType": "uint256",
              "name": "rateCheckMaxDeltaPercent",
              "type": "uint256"
            }
          ],
          "internalType": "struct UniV3CheckCLRSOracle.UniV3CheckCLRSConstructorParams",
          "name": "uniV3CheckCLRSParams_",
          "type": "tuple"
        },
        {
          "internalType": "address",
          "name": "sequencerUptimeFeed_",
          "type": "address"
        }
      ],
      "stateMutability": "nonpayable",
      "type": "constructor"
    },
    {
      "inputs": [
        {
          "internalType": "uint256",
          "name": "errorId_",
          "type": "uint256"
        }
      ],
      "name": "FluidOracleError",
      "type": "error"
    },
    {
      "inputs": [],
      "name": "FALLBACK_ORACLE2_MAIN_SOURCE",
      "outputs": [
        {
          "internalType": "uint8",
          "name": "",
          "type": "uint8"
        }
      ],
      "stateMutability": "view",
      "type": "function"
    },
    {
      "inputs": [],
      "name": "chainlinkOracleData",
      "outputs": [
        {
          "internalType": "uint256",
          "name": "chainlinkExchangeRate_",
          "type": "uint256"
        },
        {
          "internalType": "contract IChainlinkAggregatorV3",
          "name": "chainlinkFeed1_",
          "type": "address"
        },
        {
          "internalType": "bool",
          "name": "chainlinkInvertRate1_",
          "type": "bool"
        },
        {
          "internalType": "uint256",
          "name": "chainlinkExchangeRate1_",
          "type": "uint256"
        },
        {
          "internalType": "contract IChainlinkAggregatorV3",
          "name": "chainlinkFeed2_",
          "type": "address"
        },
        {
          "internalType": "bool",
          "name": "chainlinkInvertRate2_",
          "type": "bool"
        },
        {
          "internalType": "uint256",
          "name": "chainlinkExchangeRate2_",
          "type": "uint256"
        },
        {
          "internalType": "contract IChainlinkAggregatorV3",
          "name": "chainlinkFeed3_",
          "type": "address"
        },
        {
          "internalType": "bool",
          "name": "chainlinkInvertRate3_",
          "type": "bool"
        },
        {
          "internalType": "uint256",
          "name": "chainlinkExchangeRate3_",
          "type": "uint256"
        }
      ],
      "stateMutability": "view",
      "type": "function"
    },
    {
      "inputs": [],
      "name": "chainlinkOracleData2",
      "outputs": [
        {
          "internalType": "uint256",
          "name": "chainlinkExchangeRate_",
          "type": "uint256"
        },
        {
          "internalType": "contract IChainlinkAggregatorV3",
          "name": "chainlinkFeed1_",
          "type": "address"
        },
        {
          "internalType": "bool",
          "name": "chainlinkInvertRate1_",
          "type": "bool"
        },
        {
          "internalType": "uint256",
          "name": "chainlinkExchangeRate1_",
          "type": "uint256"
        },
        {
          "internalType": "contract IChainlinkAggregatorV3",
          "name": "chainlinkFeed2_",
          "type": "address"
        },
        {
          "internalType": "bool",
          "name": "chainlinkInvertRate2_",
          "type": "bool"
        },
        {
          "internalType": "uint256",
          "name": "chainlinkExchangeRate2_",
          "type": "uint256"
        },
        {
          "internalType": "contract IChainlinkAggregatorV3",
          "name": "chainlinkFeed3_",
          "type": "address"
        },
        {
          "internalType": "bool",
          "name": "chainlinkInvertRate3_",
          "type": "bool"
        },
        {
          "internalType": "uint256",
          "name": "chainlinkExchangeRate3_",
          "type": "uint256"
        }
      ],
      "stateMutability": "view",
      "type": "function"
    },
    {
      "inputs": [],
      "name": "getExchangeRate",
      "outputs": [
        {
          "internalType": "uint256",
          "name": "exchangeRate_",
          "type": "uint256"
        }
      ],
      "stateMutability": "view",
      "type": "function"
    },
    {
      "inputs": [],
      "name": "getExchangeRateLiquidate",
      "outputs": [
        {
          "internalType": "uint256",
          "name": "exchangeRate_",
          "type": "uint256"
        }
      ],
      "stateMutability": "view",
      "type": "function"
    },
    {
      "inputs": [],
      "name": "getExchangeRateOperate",
      "outputs": [
        {
          "internalType": "uint256",
          "name": "exchangeRate_",
          "type": "uint256"
        }
      ],
      "stateMutability": "view",
      "type": "function"
    },
    {
      "inputs": [],
      "name": "infoName",
      "outputs": [
        {
          "internalType": "string",
          "name": "",
          "type": "string"
        }
      ],
      "stateMutability": "view",
      "type": "function"
    },
    {
      "inputs": [],
      "name": "redstoneOracleData",
      "outputs": [
        {
          "internalType": "uint256",
          "name": "redstoneExchangeRate_",
          "type": "uint256"
        },
        {
          "internalType": "contract IRedstoneOracle",
          "name": "redstoneOracle_",
          "type": "address"
        },
        {
          "internalType": "bool",
          "name": "redstoneInvertRate_",
          "type": "bool"
        }
      ],
      "stateMutability": "view",
      "type": "function"
    },
    {
      "inputs": [],
      "name": "redstoneOracleData2",
      "outputs": [
        {
          "internalType": "uint256",
          "name": "redstoneExchangeRate_",
          "type": "uint256"
        },
        {
          "internalType": "contract IRedstoneOracle",
          "name": "redstoneOracle_",
          "type": "address"
        },
        {
          "internalType": "bool",
          "name": "redstoneInvertRate_",
          "type": "bool"
        }
      ],
      "stateMutability": "view",
      "type": "function"
    },
    {
      "inputs": [],
      "name": "sequencerL2Data",
      "outputs": [
        {
          "internalType": "address",
          "name": "sequencerUptimeFeed_",
          "type": "address"
        },
        {
          "internalType": "uint256",
          "name": "maxGracePeriod_",
          "type": "uint256"
        },
        {
          "internalType": "bool",
          "name": "isSequencerUp_",
          "type": "bool"
        },
        {
          "internalType": "uint256",
          "name": "lastUptimeStartedAt_",
          "type": "uint256"
        },
        {
          "internalType": "uint256",
          "name": "gracePeriod_",
          "type": "uint256"
        },
        {
          "internalType": "bool",
          "name": "gracePeriodPassed_",
          "type": "bool"
        },
        {
          "internalType": "uint256",
          "name": "lastOutageStartedAt_",
          "type": "uint256"
        },
        {
          "internalType": "bool",
          "name": "isSequencerUpAndValid_",
          "type": "bool"
        }
      ],
      "stateMutability": "view",
      "type": "function"
    },
    {
      "inputs": [],
      "name": "uniV3CheckOracleData",
      "outputs": [
        {
          "internalType": "uint256",
          "name": "rateCheckMaxDelta_",
          "type": "uint256"
        },
        {
          "internalType": "uint256",
          "name": "rateSource_",
          "type": "uint256"
        },
        {
          "internalType": "uint256",
          "name": "fallbackMainSource_",
          "type": "uint256"
        }
      ],
      "stateMutability": "view",
      "type": "function"
    },
    {
      "inputs": [],
      "name": "uniV3OracleData",
      "outputs": [
        {
          "internalType": "contract IUniswapV3Pool",
          "name": "uniV3Pool_",
          "type": "address"
        },
        {
          "internalType": "bool",
          "name": "uniV3InvertRate_",
          "type": "bool"
        },
        {
          "internalType": "uint32[]",
          "name": "uniV3secondsAgos_",
          "type": "uint32[]"
        },
        {
          "internalType": "uint256[]",
          "name": "uniV3TwapDeltas_",
          "type": "uint256[]"
        },
        {
          "internalType": "uint256",
          "name": "uniV3exchangeRateUnsafe_",
          "type": "uint256"
        },
        {
          "internalType": "uint256",
          "name": "uniV3exchangeRate_",
          "type": "uint256"
        }
      ],
      "stateMutability": "view",
      "type": "function"
    }
  ],
  "transactionHash": "0x19bf2b614a0ff4288107fe79c17f867081ed77280b6ab4e96f505c9580d069e1",
  "args": [
    "USDT for 1 WEETH",
    {
      "chainlinkParams": {
        "hops": 1,
        "feed1": {
          "feed": "0xE141425bc1594b8039De6390db1cDaf4397EA22b",
          "invertRate": false,
          "token0Decimals": 18
        },
        "feed2": {
          "feed": "0x0000000000000000000000000000000000000000",
          "invertRate": false,
          "token0Decimals": 0
        },
        "feed3": {
          "feed": "0x0000000000000000000000000000000000000000",
          "invertRate": false,
          "token0Decimals": 0
        }
      },
      "redstoneOracle": {
        "oracle": "0x0000000000000000000000000000000000000000",
        "invertRate": false,
        "token0Decimals": 0
      },
      "fallbackMainSource": 1
    },
    {
      "chainlinkParams": {
        "hops": 2,
        "feed1": {
          "feed": "0x639Fe6ab55C921f74e7fac1ee960C0B6293ba612",
          "invertRate": false,
          "token0Decimals": 18
        },
        "feed2": {
          "feed": "0x3f3f5dF88dC9F13eac63DF89EC16ef6e7E25DdE7",
          "invertRate": true,
          "token0Decimals": 6
        },
        "feed3": {
          "feed": "0x0000000000000000000000000000000000000000",
          "invertRate": false,
          "token0Decimals": 0
        }
      },
      "uniV3Params": {
        "pool": "0xC6962004f452bE9203591991D15f6b388e09E8D0",
        "secondsAgos": [
          240,
          60,
          15,
          1,
          0
        ],
        "tWAPMaxDeltaPercents": [
          200,
          50,
          20
        ],
        "invertRate": false
      },
      "redstoneOracle": {
        "oracle": "0x0000000000000000000000000000000000000000",
        "invertRate": false,
        "token0Decimals": 0
      },
      "rateSource": 2,
      "fallbackMainSource": 1,
      "rateCheckMaxDeltaPercent": 300
    },
    "0xFdB631F5EE196F0ed6FAa767959853A9F217697D"
  ],
  "numDeployments": 1,
  "solcInputHash": "ca9e5aa54012862807c9d9299b1ce928",
  "bytecode": "0x61076060405261dead6103208190526103c0523480156200001f57600080fd5b5060405162004ce938038062004ce9833981016040819052620000429162000f81565b8382828282806080015181602001518260400151818b600001518c602001518d604001518160006001600160a01b031686600001516001600160a01b0316146200008d5785620000b9565b60405180606001604052806103c0516001600160a01b0316815260200160001515815260200160018152505b82516001600160a01b031615620000d15782620000fd565b6040518060600160405280610320516001600160a01b0316815260200160001515815260200160018152505b8a600001518c8e806000806101000a8154816001600160a01b0302191690836001600160a01b03160217905550506020815111806200013b57508051155b15620001635760405163c82fc46560e01b815261ea6a60048201526024015b60405180910390fd5b6020015160805280516001600160a01b0316620001985760405163c82fc46560e01b815261f23160048201526024016200015a565b60608101516020810151905163ffffffff9182169116111580620001d857506060810151604081015163ffffffff16906001602002015163ffffffff1611155b806200020057506060818101519081015163ffffffff16906002602002015163ffffffff1611155b806200022857506060810151608081015163ffffffff16906003602002015163ffffffff1611155b156200024c5760405163c82fc46560e01b815261f23260048201526024016200015a565b6040810151516127101115806200026d575060408101518051602090910151115b806200028457506040818101516020810151910151115b15620002a85760405163c82fc46560e01b815261f23360048201526024016200015a565b606081810180515163ffffffff90811661014052815160209081015182166101605282516040015182166101805282519093015181166101a052815160800151166101c052519081015190516200030091906200108a565b63ffffffff166101e052606081015160408101516020909101516200032691906200108a565b63ffffffff1661020052606081810151908101516040909101516200034c91906200108a565b63ffffffff166102205260608181015160808101519101516200037091906200108a565b63ffffffff1661024052604081810180515160e0528051602090810151610100529051909101516101205281516001600160a01b031660a052810151151560c052620003bf601b600a620011b0565b61026052620003d1601b6002620011c5565b620003de90600a620011b0565b610280525080516001600160a01b03161580620003fd57506040810151155b15620004215760405163c82fc46560e01b815261fa0160048201526024016200015a565b80516001600160a01b039081166102a052602082015115156102c0526103205182518216911614620004725760408101516200045f90601b620011df565b6200046c90600a620011b0565b62000475565b60015b6102e0526103205181516001600160a01b03908116911614620004b7576040810151620004a490601b620011f5565b620004b190600a620011b0565b620004ba565b60015b610300525080516001600160a01b03161580620004d957506040810151155b15620004fd5760405163c82fc46560e01b815261fa0160048201526024016200015a565b80516001600160a01b039081166103405260208201511515610360526103c051825182169116146200054e5760408101516200053b90601b620011df565b6200054890600a620011b0565b62000551565b60015b610380526103c05181516001600160a01b03908116911614620005935760408101516200058090601b620011f5565b6200058d90600a620011b0565b62000596565b60015b6103a052508051600160ff9091161080620005b857506003816000015160ff16115b80620005e157506020810151516001600160a01b03161580620005e15750602081015160400151155b806200061c57506001816000015160ff161180156200061c57506040810151516001600160a01b031615806200061c57506040808201510151155b806200065857506002816000015160ff161180156200065857506060810151516001600160a01b03161580620006585750606081015160400151155b156200067c5760405163c82fc46560e01b815261ee4960048201526024016200015a565b60208082018051516001600160a01b039081166103e05260408085018051518316610400526060860180515190931661042052835185015115156104405251840151151561046052905190920151151561048052510151620006e090601b620011df565b620006ed90600a620011b0565b6104a0526020810151604001516200070790601b620011f5565b6200071490600a620011b0565b6104c0528051600160ff909116116200072f57600162000751565b60408082015101516200074490601b620011df565b6200075190600a620011b0565b6104e0528051600160ff909116116200076c5760016200078e565b60408082015101516200078190601b620011f5565b6200078e90600a620011b0565b610500528051600260ff90911611620007a9576001620007cc565b606081015160400151620007bf90601b620011df565b620007cc90600a620011b0565b610520528051600260ff90911611620007e75760016200080a565b606081015160400151620007fd90601b620011f5565b6200080a90600a620011b0565b6105405250600160ff8416108062000825575060038360ff16115b15620008495760405163c82fc46560e01b815261fde960048201526024016200015a565b505060ff9081166105605281516001911610806200086e57506003816000015160ff16115b806200089757506020810151516001600160a01b03161580620008975750602081015160400151155b80620008d257506001816000015160ff16118015620008d257506040810151516001600160a01b03161580620008d257506040808201510151155b806200090e57506002816000015160ff161180156200090e57506060810151516001600160a01b031615806200090e5750606081015160400151155b15620009325760405163c82fc46560e01b815261ee4960048201526024016200015a565b60208082018051516001600160a01b0390811661058052604080850180515183166105a052606086018051519093166105c052835185015115156105e052518401511515610600529051909201511515610620525101516200099690601b620011df565b620009a390600a620011b0565b61064052602081015160400151620009bd90601b620011f5565b620009ca90600a620011b0565b610660528051600160ff90911611620009e557600162000a07565b6040808201510151620009fa90601b620011df565b62000a0790600a620011b0565b610680528051600160ff9091161162000a2257600162000a44565b604080820151015162000a3790601b620011f5565b62000a4490600a620011b0565b6106a0528051600260ff9091161162000a5f57600162000a82565b60608101516040015162000a7590601b620011df565b62000a8290600a620011b0565b6106c0528051600260ff9091161162000a9d57600162000ac0565b60608101516040015162000ab390601b620011f5565b62000ac090600a620011b0565b6106e05250600160ff8416108062000adb575060038360ff16115b1562000aff5760405163c82fc46560e01b815261fde960048201526024016200015a565b505060ff90811661070052606082015160019116108062000b2757506003816060015160ff16115b8062000b3857506127108160a00151115b8062000b5e5750806080015160ff16600114801562000b5e5750806060015160ff166003145b1562000b825760405163c82fc46560e01b815261ea6260048201526024016200015a565b60a0810151610720526060015160ff1661074052506200120b9650505050505050565b634e487b7160e01b600052604160045260246000fd5b604051606081016001600160401b038111828210171562000be05762000be062000ba5565b60405290565b604051608081016001600160401b038111828210171562000be05762000be062000ba5565b60405160c081016001600160401b038111828210171562000be05762000be062000ba5565b604051601f8201601f191681016001600160401b038111828210171562000c5b5762000c5b62000ba5565b604052919050565b805160ff8116811462000c7557600080fd5b919050565b6001600160a01b038116811462000c9057600080fd5b50565b8051801515811462000c7557600080fd5b60006060828403121562000cb757600080fd5b62000cc162000bbb565b9050815162000cd08162000c7a565b815262000ce06020830162000c93565b60208201526040820151604082015292915050565b6000610140828403121562000d0957600080fd5b62000d1362000be6565b905062000d208262000c63565b815262000d31836020840162000ca4565b602082015262000d45836080840162000ca4565b604082015262000d598360e0840162000ca4565b606082015292915050565b60006101c0828403121562000d7857600080fd5b62000d8262000bbb565b905062000d8f8262000c63565b815262000da0836020840162000cf5565b602082015262000db583610160840162000ca4565b604082015292915050565b600082601f83011262000dd257600080fd5b60405160a081016001600160401b038111828210171562000df75762000df762000ba5565b6040528060a084018581111562000e0d57600080fd5b845b8181101562000e3d57805163ffffffff8116811462000e2e5760008081fd5b83526020928301920162000e0f565b509195945050505050565b600081830361034081121562000e5d57600080fd5b62000e6762000c0b565b91506101408082121562000e7a57600080fd5b62000e8462000be6565b9150835162000e938162000c7a565b8252602062000ea485820162000c93565b8184015285605f86011262000eb857600080fd5b62000ec262000bbb565b8060a087018881111562000ed557600080fd5b604088015b8181101562000ef3578051845292840192840162000eda565b5081604087015262000f06898262000dc0565b606087015250505082845262000f1f8683870162000cf5565b8185015250505062000f3683610280840162000ca4565b604082015262000f4a6102e0830162000c63565b606082015262000f5e610300830162000c63565b608082015261032082015160a082015292915050565b805162000c758162000c7a565b600080600080610540858703121562000f9957600080fd5b84516001600160401b038082111562000fb157600080fd5b818701915087601f83011262000fc657600080fd5b81518181111562000fdb5762000fdb62000ba5565b6020915062000ff3601f8201601f1916830162000c30565b81815289838386010111156200100857600080fd5b60005b82811015620010285784810184015182820185015283016200100b565b5060008383830101528097505050620010448882890162000d64565b9450505062001058866101e0870162000e48565b915062001069610520860162000f74565b905092959194509250565b634e487b7160e01b600052601160045260246000fd5b63ffffffff828116828216039080821115620010aa57620010aa62001074565b5092915050565b600181815b80851115620010f2578160001904821115620010d657620010d662001074565b80851615620010e457918102915b93841c9390800290620010b6565b509250929050565b6000826200110b57506001620011aa565b816200111a57506000620011aa565b81600181146200113357600281146200113e576200115e565b6001915050620011aa565b60ff84111562001152576200115262001074565b50506001821b620011aa565b5060208310610133831016604e8410600b841016171562001183575081810a620011aa565b6200118f8383620010b1565b8060001904821115620011a657620011a662001074565b0290505b92915050565b6000620011be8383620010fa565b9392505050565b8082028115828204841417620011aa57620011aa62001074565b81810381811115620011aa57620011aa62001074565b80820180821115620011aa57620011aa62001074565b60805160a05160c05160e05161010051610120516101405161016051610180516101a0516101c0516101e05161020051610220516102405161026051610280516102a0516102c0516102e05161030051610320516103405161036051610380516103a0516103c0516103e05161040051610420516104405161046051610480516104a0516104c0516104e05161050051610520516105405161056051610580516105a0516105c0516105e05161060051610620516106405161066051610680516106a0516106c0516106e05161070051610720516107405161365962001690600039600081816101e7015281816128180152818161288e01528181612a0901528181612a9a01528181612b040152612bd60152600081816101c2015281816129ad01528181612b520152612c1001526000818161020f015281816129de01528181612a6f01528181612acb01528181612e2001528181612e590152612e8c01526000818161066f01526113e801526000818161064e01526113c701526000818161057d01526112f101526000818161055c01526112d0015260008181610493015261120e01526000818161047201526111ed0152600081816105cc0152818161062d01526113a60152600081816104da0152818161053b01526112af01526000818161040c0152818161045101526111cc0152600081816105ab0152818161060c0152818161133501526113850152600081816104b90152818161051a0152818161123e015261128e0152600081816103eb0152818161043001526111ab01526000818160e001528181611607015261164001526000818161104c015261219401526000818161102b0152612173015260008181610f5a015261209d015260008181610f39015261207c015260008181610e700152611fba015260008181610e4f0152611f99015260008181610fa90152818161100a0152612152015260008181610eb701528181610f18015261205b015260008181610de901528181610e2e0152611f78015260008181610f8801528181610fe9015281816120e10152612131015260008181610e9601528181610ef701528181611fea015261203a015260008181610dc801528181610e0d0152611f57015260006106c2015260006115b4015260006115dd015260008181610769015261158a0152600081816106f90152818161074601526114db015260006103060152600061114d0152600061117c0152600081816103ad015261112301526000818161033d0152818161038a0152611074015260006122d40152600061228801526000818161199d01526119e001526000611bb501526000611b1c01526000611a8301526000818161097d015261186a01526000818161092f01526118440152600081816108e1015261181e01526000818161089301526117f801526000818161084501526117d2015260008181610a650152611bd6015260008181610a250152611b3d0152600081816109e50152611aa4015260008181610ac6015281816117550152611c20015260008181610aa5015281816116be01526118ad015260008181610b1c0152610be101526136596000f3fe608060405234801561001057600080fd5b50600436106100d45760003560e01c8063a6ac913411610081578063e6aa216c1161005b578063e6aa216c146102ef578063f3190c8914610246578063f5be67a5146102f757600080fd5b8063a6ac91341461025c578063abd5f95d14610276578063dc4595121461028b57600080fd5b80637cebd7c5116100b25780637cebd7c5146101bc57806388c352091461023e5780638e7bfbc01461024657600080fd5b80632faeaacb146100d957806331b037a21461010f5780637557ca4114610149575b600080fd5b60405160ff7f00000000000000000000000000000000000000000000000000000000000000001681526020015b60405180910390f35b6101176102ff565b6040805193845273ffffffffffffffffffffffffffffffffffffffff9092166020840152151590820152606001610106565b6101516103d2565b604080519a8b5273ffffffffffffffffffffffffffffffffffffffff998a1660208c0152971515978a01979097526060890195909552928616608088015290151560a087015260c086015290921660e084015290151561010083015261012082015261014001610106565b604080517f0000000000000000000000000000000000000000000000000000000000000000815260ff7f0000000000000000000000000000000000000000000000000000000000000000811660208301527f00000000000000000000000000000000000000000000000000000000000000001691810191909152606001610106565b6101176106bb565b61024e61078e565b604051908152602001610106565b61026461080d565b60405161010696959493929190612f6e565b61027e610b0a565b6040516101069190613023565b610293610c6f565b6040805173ffffffffffffffffffffffffffffffffffffffff909916895260208901979097529415159587019590955260608601929092526080850152151560a084015260c0830191909152151560e082015261010001610106565b61024e610da5565b610151610daf565b60008060007f000000000000000000000000000000000000000000000000000000000000000073ffffffffffffffffffffffffffffffffffffffff167f000000000000000000000000000000000000000000000000000000000000000073ffffffffffffffffffffffffffffffffffffffff16146103845761037f611070565b610387565b60005b937f000000000000000000000000000000000000000000000000000000000000000093507f000000000000000000000000000000000000000000000000000000000000000092509050565b6000806000806000806000806000806103e96111a4565b7f00000000000000000000000000000000000000000000000000000000000000007f00000000000000000000000000000000000000000000000000000000000000006104b77f00000000000000000000000000000000000000000000000000000000000000007f00000000000000000000000000000000000000000000000000000000000000007f00000000000000000000000000000000000000000000000000000000000000007f0000000000000000000000000000000000000000000000000000000000000000611416565b7f00000000000000000000000000000000000000000000000000000000000000007f000000000000000000000000000000000000000000000000000000000000000073ffffffffffffffffffffffffffffffffffffffff8216156105a6576105a17f00000000000000000000000000000000000000000000000000000000000000007f00000000000000000000000000000000000000000000000000000000000000007f00000000000000000000000000000000000000000000000000000000000000007f0000000000000000000000000000000000000000000000000000000000000000611416565b6105a9565b60005b7f00000000000000000000000000000000000000000000000000000000000000007f000000000000000000000000000000000000000000000000000000000000000073ffffffffffffffffffffffffffffffffffffffff821615610698576106937f00000000000000000000000000000000000000000000000000000000000000007f00000000000000000000000000000000000000000000000000000000000000007f00000000000000000000000000000000000000000000000000000000000000007f0000000000000000000000000000000000000000000000000000000000000000611416565b61069b565b60005b995099509950995099509950995099509950995090919293949596979899565b60008060007f000000000000000000000000000000000000000000000000000000000000000073ffffffffffffffffffffffffffffffffffffffff167f000000000000000000000000000000000000000000000000000000000000000073ffffffffffffffffffffffffffffffffffffffff16146107405761073b6114d7565b610743565b60005b937f000000000000000000000000000000000000000000000000000000000000000093507f000000000000000000000000000000000000000000000000000000000000000092509050565b6000610798611602565b50905060008190036107df576040517fc82fc46500000000000000000000000000000000000000000000000000000000815261eb8d60048201526024015b60405180910390fd5b6107eb601b600a6131c3565b816107f46116a7565b6107fe91906131cf565b6108089190613215565b905090565b60008060608082806005604051908082528060200260200182016040528015610840578160200160208202803683370190505b5093507f00000000000000000000000000000000000000000000000000000000000000008460008151811061087757610877613258565b602002602001019063ffffffff16908163ffffffff16815250507f0000000000000000000000000000000000000000000000000000000000000000846001815181106108c5576108c5613258565b602002602001019063ffffffff16908163ffffffff16815250507f00000000000000000000000000000000000000000000000000000000000000008460028151811061091357610913613258565b602002602001019063ffffffff16908163ffffffff16815250507f00000000000000000000000000000000000000000000000000000000000000008460038151811061096157610961613258565b602002602001019063ffffffff16908163ffffffff16815250507f0000000000000000000000000000000000000000000000000000000000000000846004815181106109af576109af613258565b63ffffffff92909216602092830291909101820152604080516003808252608082019092529182016060803683370190505092507f000000000000000000000000000000000000000000000000000000000000000083600081518110610a1757610a17613258565b6020026020010181815250507f000000000000000000000000000000000000000000000000000000000000000083600181518110610a5757610a57613258565b6020026020010181815250507f000000000000000000000000000000000000000000000000000000000000000083600281518110610a9757610a97613258565b6020026020010181815250507f00000000000000000000000000000000000000000000000000000000000000007f00000000000000000000000000000000000000000000000000000000000000008585610aef6116b9565b610af7611797565b949b939a50919850965094509092509050565b606060005b602081108015610b7557507f00000000000000000000000000000000000000000000000000000000000000008160208110610b4c57610b4c613258565b1a60f81b7fff000000000000000000000000000000000000000000000000000000000000001615155b15610b8c5780610b8481613287565b915050610b0f565b60008167ffffffffffffffff811115610ba757610ba7613229565b6040519080825280601f01601f191660200182016040528015610bd1576020820181803683370190505b50905060005b82811015610c68577f00000000000000000000000000000000000000000000000000000000000000008160208110610c1157610c11613258565b1a60f81b828281518110610c2757610c27613258565b60200101907effffffffffffffffffffffffffffffffffffffffffffffffffffffffffffff1916908160001a90535080610c6081613287565b915050610bd7565b5092915050565b6000806000806000806000806000610c85611c58565b91985090965090508615610ca957610c9d8187611e05565b91965094509250610d5f565b610a8c945060008060009054906101000a900473ffffffffffffffffffffffffffffffffffffffff1673ffffffffffffffffffffffffffffffffffffffff1663feaf968c6040518163ffffffff1660e01b815260040160a060405180830381865afa158015610d1c573d6000803e3d6000fd5b505050506040513d601f19601f82011682018060405250810190610d4091906132de565b505050509050610d5b816001610d56919061332e565b611e6f565b9350505b60005473ffffffffffffffffffffffffffffffffffffffff16610a8c8888888888848015610d8a57508a5b98509850985098509850985098509850509091929394959697565b600061080861078e565b600080600080600080600080600080610dc6611f50565b7f00000000000000000000000000000000000000000000000000000000000000007f0000000000000000000000000000000000000000000000000000000000000000610e947f00000000000000000000000000000000000000000000000000000000000000007f00000000000000000000000000000000000000000000000000000000000000007f00000000000000000000000000000000000000000000000000000000000000007f0000000000000000000000000000000000000000000000000000000000000000611416565b7f00000000000000000000000000000000000000000000000000000000000000007f000000000000000000000000000000000000000000000000000000000000000073ffffffffffffffffffffffffffffffffffffffff821615610f8357610f7e7f00000000000000000000000000000000000000000000000000000000000000007f00000000000000000000000000000000000000000000000000000000000000007f00000000000000000000000000000000000000000000000000000000000000007f0000000000000000000000000000000000000000000000000000000000000000611416565b610f86565b60005b7f00000000000000000000000000000000000000000000000000000000000000007f000000000000000000000000000000000000000000000000000000000000000073ffffffffffffffffffffffffffffffffffffffff821615610698576106937f00000000000000000000000000000000000000000000000000000000000000007f00000000000000000000000000000000000000000000000000000000000000007f00000000000000000000000000000000000000000000000000000000000000007f0000000000000000000000000000000000000000000000000000000000000000611416565b60007f000000000000000000000000000000000000000000000000000000000000000073ffffffffffffffffffffffffffffffffffffffff1663e6aa216c6040518163ffffffff1660e01b8152600401602060405180830381865afa925050508015611117575060408051601f3d9081017fffffffffffffffffffffffffffffffffffffffffffffffffffffffffffffffe016820190925261111491810190613351565b60015b6111215750600090565b7f00000000000000000000000000000000000000000000000000000000000000001561117757611171817f0000000000000000000000000000000000000000000000000000000000000000613215565b91505090565b6111717f0000000000000000000000000000000000000000000000000000000000000000826131cf565b90565b60006112327f00000000000000000000000000000000000000000000000000000000000000007f00000000000000000000000000000000000000000000000000000000000000007f00000000000000000000000000000000000000000000000000000000000000007f0000000000000000000000000000000000000000000000000000000000000000611416565b905080158061127557507f000000000000000000000000000000000000000000000000000000000000000073ffffffffffffffffffffffffffffffffffffffff16155b1561127d5790565b611289601b600a6131c3565b6113157f00000000000000000000000000000000000000000000000000000000000000007f00000000000000000000000000000000000000000000000000000000000000007f00000000000000000000000000000000000000000000000000000000000000007f0000000000000000000000000000000000000000000000000000000000000000611416565b61131f90836131cf565b6113299190613215565b905080158061136c57507f000000000000000000000000000000000000000000000000000000000000000073ffffffffffffffffffffffffffffffffffffffff16155b156113745790565b611380601b600a6131c3565b61140c7f00000000000000000000000000000000000000000000000000000000000000007f00000000000000000000000000000000000000000000000000000000000000007f00000000000000000000000000000000000000000000000000000000000000007f0000000000000000000000000000000000000000000000000000000000000000611416565b6107fe90836131cf565b60008473ffffffffffffffffffffffffffffffffffffffff1663feaf968c6040518163ffffffff1660e01b815260040160a060405180830381865afa92505050801561149d575060408051601f3d9081017fffffffffffffffffffffffffffffffffffffffffffffffffffffffffffffffe016820190925261149a918101906132de565b60015b6114a9575060006114cf565b88156114c5576114b98488613215565b955050505050506114cf565b6114b988856131cf565b949350505050565b60007f000000000000000000000000000000000000000000000000000000000000000073ffffffffffffffffffffffffffffffffffffffff1663e6aa216c6040518163ffffffff1660e01b8152600401602060405180830381865afa92505050801561157e575060408051601f3d9081017fffffffffffffffffffffffffffffffffffffffffffffffffffffffffffffffe016820190925261157b91810190613351565b60015b6115885750600090565b7f0000000000000000000000000000000000000000000000000000000000000000156115d857611171817f0000000000000000000000000000000000000000000000000000000000000000613215565b6111717f0000000000000000000000000000000000000000000000000000000000000000826131cf565b6000807f000000000000000000000000000000000000000000000000000000000000000060ff1660010361163e57611638611f50565b91509091565b7f000000000000000000000000000000000000000000000000000000000000000060ff1660020361168a57611671611f50565b91508160000361168657506001611638611070565b9091565b611692611070565b91508160000361168657506001611638611f50565b60006116b16121b8565b610808612257565b6000807f000000000000000000000000000000000000000000000000000000000000000073ffffffffffffffffffffffffffffffffffffffff16633850c7bd6040518163ffffffff1660e01b815260040160e060405180830381865afa158015611727573d6000803e3d6000fd5b505050506040513d601f19601f8201168201806040525081019061174b919061338c565b50505050505090507f00000000000000000000000000000000000000000000000000000000000000006117865761178181612261565b611171565b61117161179282612261565b6122cc565b6040517f883bdbfd000000000000000000000000000000000000000000000000000000006020808301919091526024820152600560448201527f000000000000000000000000000000000000000000000000000000000000000060648201527f000000000000000000000000000000000000000000000000000000000000000060848201527f000000000000000000000000000000000000000000000000000000000000000060a48201527f000000000000000000000000000000000000000000000000000000000000000060c48201527f000000000000000000000000000000000000000000000000000000000000000060e482015260009081906101040160405160208183030381529060405290506000807f000000000000000000000000000000000000000000000000000000000000000073ffffffffffffffffffffffffffffffffffffffff16836040516118f0919061343f565b600060405180830381855afa9150503d806000811461192b576040519150601f19603f3d011682016040523d82523d6000602084013e611930565b606091505b509150915081611944576000935050505090565b60008180602001905181019061195a919061346d565b90506000808260038151811061197257611972613258565b60200260200101518360036001018151811061199057611990613258565b60200260200101510390507f00000000000000000000000000000000000000000000000000000000000000008160060b816119cd576119cd6131e6565b05915060008160060b128015611a1457507f00000000000000000000000000000000000000000000000000000000000000008160060b81611a1057611a106131e6565b0715155b15611a3f577fffffffffffffffffffffffffffffffffffffffffffffffffffffffffffffffff909101905b50611ac88160020b83600081518110611a5a57611a5a613258565b602002602001015184600181518110611a7557611a75613258565b60200260200101510360060b7f00000000000000000000000000000000000000000000000000000000000000007f00000000000000000000000000000000000000000000000000000000000000006122f8565b15611ad95760009550505050505090565b611b618160020b83600181518110611af357611af3613258565b602002602001015184600281518110611b0e57611b0e613258565b60200260200101510360060b7f00000000000000000000000000000000000000000000000000000000000000007f00000000000000000000000000000000000000000000000000000000000000006122f8565b15611b725760009550505050505090565b611bfa8160020b83600281518110611b8c57611b8c613258565b602002602001015184600381518110611ba757611ba7613258565b60200260200101510360060b7f00000000000000000000000000000000000000000000000000000000000000007f00000000000000000000000000000000000000000000000000000000000000006122f8565b15611c0b5760009550505050505090565b611c1c611c178261237f565b612261565b95507f000000000000000000000000000000000000000000000000000000000000000015611c5057611c4d866122cc565b95505b505050505090565b60008060008060008060008054906101000a900473ffffffffffffffffffffffffffffffffffffffff1673ffffffffffffffffffffffffffffffffffffffff1663feaf968c6040518163ffffffff1660e01b815260040160a060405180830381865afa158015611ccc573d6000803e3d6000fd5b505050506040513d601f19601f82011682018060405250810190611cf091906132de565b505092509250925081600014611d10575060009586955085945092505050565b600195508294508093506000841115611dfd575b60005473ffffffffffffffffffffffffffffffffffffffff16639a6fc8f5611d4d600186613550565b6040517fffffffff0000000000000000000000000000000000000000000000000000000060e084901b16815269ffffffffffffffffffff909116600482015260240160a060405180830381865afa158015611dac573d6000803e3d6000fd5b505050506040513d601f19601f82011682018060405250810190611dd091906132de565b509295509093509150506000829003611dea578294508093505b81158015611df85750600081115b611d24575b505050909192565b6000808080611e148542613573565b9050841580611e245750610a8c81115b15611e3c57610a8c6001600093509350935050611e68565b611e4586611e6f565b9150611e518286613573565b9350610a8c841115611e6357610a8c93505b831091505b9250925092565b60008181805b60005473ffffffffffffffffffffffffffffffffffffffff16639a6fc8f5611e9e600186613550565b6040517fffffffff0000000000000000000000000000000000000000000000000000000060e084901b16815269ffffffffffffffffffff909116600482015260240160a060405180830381865afa158015611efd573d6000803e3d6000fd5b505050506040513d601f19601f82011682018060405250810190611f2191906132de565b509295509093509150508115611f35578093505b8115801590611f445750600081115b611e7557505050919050565b6000611fde7f00000000000000000000000000000000000000000000000000000000000000007f00000000000000000000000000000000000000000000000000000000000000007f00000000000000000000000000000000000000000000000000000000000000007f0000000000000000000000000000000000000000000000000000000000000000611416565b905080158061202157507f000000000000000000000000000000000000000000000000000000000000000073ffffffffffffffffffffffffffffffffffffffff16155b156120295790565b612035601b600a6131c3565b6120c17f00000000000000000000000000000000000000000000000000000000000000007f00000000000000000000000000000000000000000000000000000000000000007f00000000000000000000000000000000000000000000000000000000000000007f0000000000000000000000000000000000000000000000000000000000000000611416565b6120cb90836131cf565b6120d59190613215565b905080158061211857507f000000000000000000000000000000000000000000000000000000000000000073ffffffffffffffffffffffffffffffffffffffff16155b156121205790565b61212c601b600a6131c3565b61140c7f00000000000000000000000000000000000000000000000000000000000000007f00000000000000000000000000000000000000000000000000000000000000007f00000000000000000000000000000000000000000000000000000000000000007f0000000000000000000000000000000000000000000000000000000000000000611416565b60008060006121c5611c58565b92509250925082612206576040517fc82fc46500000000000000000000000000000000000000000000000000000000815261ea6060048201526024016107d6565b60006122128383611e05565b5091505080612251576040517fc82fc46500000000000000000000000000000000000000000000000000000000815261ea6060048201526024016107d6565b50505050565b6000610808612814565b60006122c661228673ffffffffffffffffffffffffffffffffffffffff8416806131cf565b7f00000000000000000000000000000000000000000000000000000000000000007801000000000000000000000000000000000000000000000000612c47565b92915050565b60006122c6827f0000000000000000000000000000000000000000000000000000000000000000613215565b60008083858161230a5761230a6131e6565b05905060008512801561232b5750838581612327576123276131e6565b0715155b15612353577fffffffffffffffffffffffffffffffffffffffffffffffffffffffffffffffff015b828101861380612364575082810386125b156123735760019150506114cf565b50600095945050505050565b60008060008360020b12612396578260020b6123a3565b8260020b6123a390613586565b90506123ce7ffffffffffffffffffffffffffffffffffffffffffffffffffffffffffff276186135be565b60020b81111561243a576040517f08c379a000000000000000000000000000000000000000000000000000000000815260206004820152600160248201527f540000000000000000000000000000000000000000000000000000000000000060448201526064016107d6565b60008160011660000361245e57700100000000000000000000000000000000612470565b6ffffcb933bd6fad37aa2d162d1a5940015b70ffffffffffffffffffffffffffffffffff16905060028216156124af5760806124aa826ffff97272373d413259a46990580e213a6131cf565b901c90505b60048216156124d95760806124d4826ffff2e50f5f656932ef12357cf3c7fdcc6131cf565b901c90505b60088216156125035760806124fe826fffe5caca7e10e4e61c3624eaa0941cd06131cf565b901c90505b601082161561252d576080612528826fffcb9843d60f6159c9db58835c9266446131cf565b901c90505b6020821615612557576080612552826fff973b41fa98c081472e6896dfb254c06131cf565b901c90505b604082161561258157608061257c826fff2ea16466c96a3843ec78b326b528616131cf565b901c90505b60808216156125ab5760806125a6826ffe5dee046a99a2a811c461f1969c30536131cf565b901c90505b6101008216156125d65760806125d1826ffcbe86c7900a88aedcffc83b479aa3a46131cf565b901c90505b6102008216156126015760806125fc826ff987a7253ac413176f2b074cf7815e546131cf565b901c90505b61040082161561262c576080612627826ff3392b0822b70005940c7a398e4b70f36131cf565b901c90505b610800821615612657576080612652826fe7159475a2c29b7443b29c7fa6e889d96131cf565b901c90505b61100082161561268257608061267d826fd097f3bdfd2022b8845ad8f792aa58256131cf565b901c90505b6120008216156126ad5760806126a8826fa9f746462d870fdf8a65dc1f90e061e56131cf565b901c90505b6140008216156126d85760806126d3826f70d869a156d2a1b890bb3df62baf32f76131cf565b901c90505b6180008216156127035760806126fe826f31be135f97d08fd981231505542fcfa66131cf565b901c90505b6201000082161561272f57608061272a826f09aa508b5b7a84e1c677de54f3e99bc96131cf565b901c90505b6202000082161561275a576080612755826e5d6af8dedb81196699c329225ee6046131cf565b901c90505b6204000082161561278457608061277f826d2216e584f5fa1ea926041bedfe986131cf565b901c90505b620800008216156127ac5760806127a7826b048a170391f7dc42444e8fa26131cf565b901c90505b60008460020b13156127e5576127e2817fffffffffffffffffffffffffffffffffffffffffffffffffffffffffffffffff613215565b90505b6127f4640100000000826135fc565b15612800576001612803565b60005b6114cf9060ff16602083901c613610565b60007f000000000000000000000000000000000000000000000000000000000000000060ff1660010361288957612849611797565b9050806000036111a1576040517fc82fc46500000000000000000000000000000000000000000000000000000000815261ea6360048201526024016107d6565b6000807f000000000000000000000000000000000000000000000000000000000000000060ff16600203612936576128bf611797565b925082600003612916576128d1612e09565b925082600003612911576040517fc82fc46500000000000000000000000000000000000000000000000000000000815261ea6360048201526024016107d6565b505090565b61291e612e54565b9092509050600082900361293157505090565b6129a6565b61293e612e54565b909350905061294b611797565b9150826000036129995781600003612993576040517fc82fc46500000000000000000000000000000000000000000000000000000000815261ea6360048201526024016107d6565b50919050565b816000036129a657505090565b6129d183837f0000000000000000000000000000000000000000000000000000000000000000612eef565b15612911578015612a6d577f000000000000000000000000000000000000000000000000000000000000000060ff16600303612a37577f000000000000000000000000000000000000000000000000000000000000000060ff1660021461299357505090565b6040517fc82fc46500000000000000000000000000000000000000000000000000000000815261ea6160048201526024016107d6565b7f000000000000000000000000000000000000000000000000000000000000000060ff16600103612ac9577f000000000000000000000000000000000000000000000000000000000000000060ff166002036129115750919050565b7f000000000000000000000000000000000000000000000000000000000000000060ff16600203612b8a576000612afe6114d7565b905060007f000000000000000000000000000000000000000000000000000000000000000060ff16600203612b365750918290612b3b565b509283905b81600003612b4b57949350505050565b612b7685857f0000000000000000000000000000000000000000000000000000000000000000612eef565b15612b8357949350505050565b5050505090565b6000612b946111a4565b905080600003612bd4576040517fc82fc46500000000000000000000000000000000000000000000000000000000815261ea6160048201526024016107d6565b7f000000000000000000000000000000000000000000000000000000000000000060ff16600303612c06579392505050565b809250612c3484847f0000000000000000000000000000000000000000000000000000000000000000612eef565b15612c4157509092915050565b50505090565b600080807fffffffffffffffffffffffffffffffffffffffffffffffffffffffffffffffff85870985870292508281108382030391505080600003612c9e5760008411612c9357600080fd5b508290049050612e02565b808411612caa57600080fd5b600084868809808403938111909203919050600085612ce9817fffffffffffffffffffffffffffffffffffffffffffffffffffffffffffffffff613573565b612cf4906001613610565b16958690049593849004936000819003046001019050612d1481846131cf565b909317926000612d258760036131cf565b6002189050612d3481886131cf565b612d3f906002613573565b612d4990826131cf565b9050612d5581886131cf565b612d60906002613573565b612d6a90826131cf565b9050612d7681886131cf565b612d81906002613573565b612d8b90826131cf565b9050612d9781886131cf565b612da2906002613573565b612dac90826131cf565b9050612db881886131cf565b612dc3906002613573565b612dcd90826131cf565b9050612dd981886131cf565b612de4906002613573565b612dee90826131cf565b9050612dfa81866131cf565b955050505050505b9392505050565b6000612e136111a4565b905080158015612e4757507f000000000000000000000000000000000000000000000000000000000000000060ff16600114155b156111a1576108086114d7565b6000807f000000000000000000000000000000000000000000000000000000000000000060ff16600103612e8a576116386111a4565b7f000000000000000000000000000000000000000000000000000000000000000060ff16600203612ed257612ebd6111a4565b915081600003611686575060016116386114d7565b612eda6114d7565b915081600003611686575060016116386111a4565b600080612710612eff84866131cf565b612f099190613215565b9050612f158185613610565b851180612f2a5750612f278185613573565b85105b95945050505050565b600081518084526020808501945080840160005b83811015612f6357815187529582019590820190600101612f47565b509495945050505050565b600060c0820173ffffffffffffffffffffffffffffffffffffffff8916835260208815158185015260c0604085015281885180845260e086019150828a01935060005b81811015612fd357845163ffffffff1683529383019391830191600101612fb1565b50508481036060860152612fe78189612f33565b60808601979097525050505060a00152949350505050565b60005b8381101561301a578181015183820152602001613002565b50506000910152565b6020815260008251806020840152613042816040850160208701612fff565b601f017fffffffffffffffffffffffffffffffffffffffffffffffffffffffffffffffe0169190910160400192915050565b7f4e487b7100000000000000000000000000000000000000000000000000000000600052601160045260246000fd5b600181815b808511156130fc57817fffffffffffffffffffffffffffffffffffffffffffffffffffffffffffffffff048211156130e2576130e2613074565b808516156130ef57918102915b93841c93908002906130a8565b509250929050565b600082613113575060016122c6565b81613120575060006122c6565b816001811461313657600281146131405761315c565b60019150506122c6565b60ff84111561315157613151613074565b50506001821b6122c6565b5060208310610133831016604e8410600b841016171561317f575081810a6122c6565b61318983836130a3565b807fffffffffffffffffffffffffffffffffffffffffffffffffffffffffffffffff048211156131bb576131bb613074565b029392505050565b6000612e028383613104565b80820281158282048414176122c6576122c6613074565b7f4e487b7100000000000000000000000000000000000000000000000000000000600052601260045260246000fd5b600082613224576132246131e6565b500490565b7f4e487b7100000000000000000000000000000000000000000000000000000000600052604160045260246000fd5b7f4e487b7100000000000000000000000000000000000000000000000000000000600052603260045260246000fd5b60007fffffffffffffffffffffffffffffffffffffffffffffffffffffffffffffffff82036132b8576132b8613074565b5060010190565b805169ffffffffffffffffffff811681146132d957600080fd5b919050565b600080600080600060a086880312156132f657600080fd5b6132ff866132bf565b9450602086015193506040860151925060608601519150613322608087016132bf565b90509295509295909350565b69ffffffffffffffffffff818116838216019080821115610c6857610c68613074565b60006020828403121561336357600080fd5b5051919050565b805161ffff811681146132d957600080fd5b805180151581146132d957600080fd5b600080600080600080600060e0888a0312156133a757600080fd5b875173ffffffffffffffffffffffffffffffffffffffff811681146133cb57600080fd5b8097505060208801518060020b81146133e357600080fd5b95506133f16040890161336a565b94506133ff6060890161336a565b935061340d6080890161336a565b925060a088015160ff8116811461342357600080fd5b915061343160c0890161337c565b905092959891949750929550565b60008251613451818460208701612fff565b9190910192915050565b8051600681900b81146132d957600080fd5b6000602080838503121561348057600080fd5b825167ffffffffffffffff8082111561349857600080fd5b818501915085601f8301126134ac57600080fd5b8151818111156134be576134be613229565b8060051b6040517fffffffffffffffffffffffffffffffffffffffffffffffffffffffffffffffe0603f8301168101818110858211171561350157613501613229565b60405291825284820192508381018501918883111561351f57600080fd5b938501935b82851015613544576135358561345b565b84529385019392850192613524565b98975050505050505050565b69ffffffffffffffffffff828116828216039080821115610c6857610c68613074565b818103818111156122c6576122c6613074565b60007f800000000000000000000000000000000000000000000000000000000000000082036135b7576135b7613074565b5060000390565b60008160020b7fffffffffffffffffffffffffffffffffffffffffffffffffffffffffff80000081036135f3576135f3613074565b60000392915050565b60008261360b5761360b6131e6565b500690565b808201808211156122c6576122c661307456fea2646970667358221220b41b709cc8ce266b7ceb311c12953bb29c59ed8e735f49b4156df7e9795090e064736f6c63430008150033",
  "devdoc": {
    "kind": "dev",
    "methods": {
      "constructor": {
        "params": {
          "cLRS2Params_": "CLRS2ConstructorParams for wstETH <> CLRS Token2 conversion",
          "infoName_": "Oracle identify helper name.",
          "sequencerUptimeFeed_": "L2 sequencer uptime Chainlink feed",
          "uniV3CheckCLRSParams_": "UniV3CheckCLRSOracle constructor params"
        }
      },
      "getExchangeRate()": {
        "details": "Deprecated. Use `getExchangeRateOperate()` and `getExchangeRateLiquidate()` instead. Only implemented for      backwards compatibility."
      }
    },
    "title": "CLRSOracle combined with a uniV3CheckCLRSOracle.",
    "version": 1
  },
  "userdoc": {
    "kind": "user",
    "methods": {
      "FALLBACK_ORACLE2_MAIN_SOURCE()": {
        "notice": "which oracle to use as main source:          - 1 = Chainlink ONLY (no fallback)          - 2 = Chainlink with Redstone Fallback          - 3 = Redstone with Chainlink Fallback"
      },
      "chainlinkOracleData()": {
        "notice": "returns all Chainlink oracle related data as utility for easy off-chain use / block explorer in a single view method"
      },
      "chainlinkOracleData2()": {
        "notice": "returns all Chainlink oracle related data as utility for easy off-chain use / block explorer in a single view method"
      },
      "constructor": {
        "notice": "constructs a CLRS2UniV3CheckCLRSOracleL2 with all inherited contracts"
      },
      "getExchangeRateLiquidate()": {
        "notice": "Get the `exchangeRate_` between the underlying asset and the peg asset in 1e27 for liquidations"
      },
      "getExchangeRateOperate()": {
        "notice": "Get the `exchangeRate_` between the underlying asset and the peg asset in 1e27 for operates"
      },
      "infoName()": {
        "notice": "helper string to easily identify the oracle. E.g. token symbols"
      },
      "redstoneOracleData()": {
        "notice": "returns all Redstone oracle related data as utility for easy off-chain use / block explorer in a single view method"
      },
      "redstoneOracleData2()": {
        "notice": "returns all Redstone oracle related data as utility for easy off-chain use / block explorer in a single view method"
      },
      "sequencerL2Data()": {
        "notice": "returns all sequencer uptime feed related data"
      },
      "uniV3CheckOracleData()": {
        "notice": "returns all oracle related data as utility for easy off-chain / block explorer use in a single view method"
      },
      "uniV3OracleData()": {
        "notice": "returns all UniV3 oracle related data as utility for easy off-chain use / block explorer in a single view method"
      }
    },
    "notice": "Gets the exchange rate between the underlying asset and the peg asset by using:          1. rate from Chainlink price feeds (or Redstone as fallback).          2. result from 1. combined with a uniV3CheckCLRSOracle to get from someToken <> someToken2          e.g. when going from wstETH to USDC:          1. wstETH -> stETH -> ETH Chainlink feed.          2. ETH -> USDC via UniV3 ETH <> USDC pool checked against ETH -> USDC Chainlink feed.",
    "version": 1
  },
  "storageLayout": {
    "storage": [
      {
        "astId": 21741,
        "contract": "contracts/oracle/oraclesL2/cLRS2UniV3CheckCLRSOracleL2.sol:CLRS2UniV3CheckCLRSOracleL2",
        "label": "_SEQUENCER_ORACLE",
        "offset": 0,
        "slot": "0",
        "type": "t_contract(IChainlinkAggregatorV3)25368"
      }
    ],
    "types": {
      "t_contract(IChainlinkAggregatorV3)25368": {
        "encoding": "inplace",
        "label": "contract IChainlinkAggregatorV3",
        "numberOfBytes": "20"
      }
    }
  }
}