{
  "address": "0xf1442714E502723D5bB253B806Fd7555BEE0336C",
  "abi": [
    {
      "inputs": [
        {
          "components": [
            {
              "internalType": "string",
              "name": "infoName",
              "type": "string"
            },
            {
              "internalType": "address",
              "name": "dexPool",
              "type": "address"
            },
            {
              "internalType": "bool",
              "name": "quoteInToken0",
              "type": "bool"
            },
            {
              "internalType": "uint256",
              "name": "pegBufferPercent",
              "type": "uint256"
            },
            {
              "components": [
                {
                  "internalType": "address",
                  "name": "reservesConversionOracle",
                  "type": "address"
                },
                {
                  "internalType": "bool",
                  "name": "reservesConversionInvert",
                  "type": "bool"
                },
                {
                  "internalType": "uint256",
                  "name": "reservesConversionPriceMultiplier",
                  "type": "uint256"
                },
                {
                  "internalType": "uint256",
                  "name": "reservesConversionPriceDivisor",
                  "type": "uint256"
                }
              ],
              "internalType": "struct DexConversionPriceFluidOracle.DexConversionPriceFluidOracleParams",
              "name": "reservesConversionParams",
              "type": "tuple"
            },
            {
              "internalType": "uint256",
              "name": "resultMultiplier",
              "type": "uint256"
            },
            {
              "internalType": "uint256",
              "name": "resultDivisor",
              "type": "uint256"
            }
          ],
          "internalType": "struct DexSmartT4PegOracle.DexSmartT4PegOracleParams",
          "name": "params_",
          "type": "tuple"
        },
        {
          "internalType": "address",
          "name": "sequencerUptimeFeed_",
          "type": "address"
        }
      ],
      "stateMutability": "nonpayable",
      "type": "constructor"
    },
    {
      "inputs": [
        {
          "internalType": "uint256",
          "name": "errorId_",
          "type": "uint256"
        }
      ],
      "name": "FluidLiquidityCalcsError",
      "type": "error"
    },
    {
      "inputs": [
        {
          "internalType": "uint256",
          "name": "errorId_",
          "type": "uint256"
        }
      ],
      "name": "FluidOracleError",
      "type": "error"
    },
    {
      "inputs": [],
      "name": "RESERVES_PEG_BUFFER_PERCENT",
      "outputs": [
        {
          "internalType": "uint256",
          "name": "",
          "type": "uint256"
        }
      ],
      "stateMutability": "view",
      "type": "function"
    },
    {
      "inputs": [],
      "name": "dexOracleData",
      "outputs": [
        {
          "internalType": "address",
          "name": "dexPool_",
          "type": "address"
        },
        {
          "internalType": "bool",
          "name": "quoteInToken0_",
          "type": "bool"
        },
        {
          "internalType": "address",
          "name": "liquidity_",
          "type": "address"
        },
        {
          "internalType": "uint256",
          "name": "resultMultiplier_",
          "type": "uint256"
        },
        {
          "internalType": "uint256",
          "name": "resultDivisor_",
          "type": "uint256"
        }
      ],
      "stateMutability": "view",
      "type": "function"
    },
    {
      "inputs": [],
      "name": "dexSmartColSharesRates",
      "outputs": [
        {
          "internalType": "uint256",
          "name": "operate_",
          "type": "uint256"
        },
        {
          "internalType": "uint256",
          "name": "liquidate_",
          "type": "uint256"
        }
      ],
      "stateMutability": "view",
      "type": "function"
    },
    {
      "inputs": [],
      "name": "dexSmartDebtSharesRates",
      "outputs": [
        {
          "internalType": "uint256",
          "name": "operate_",
          "type": "uint256"
        },
        {
          "internalType": "uint256",
          "name": "liquidate_",
          "type": "uint256"
        }
      ],
      "stateMutability": "view",
      "type": "function"
    },
    {
      "inputs": [],
      "name": "getDexConversionPriceFluidOracleData",
      "outputs": [
        {
          "internalType": "address",
          "name": "reservesConversionOracle_",
          "type": "address"
        },
        {
          "internalType": "bool",
          "name": "reservesConversionInvert_",
          "type": "bool"
        },
        {
          "internalType": "uint256",
          "name": "reservesConversionPriceMultiplier_",
          "type": "uint256"
        },
        {
          "internalType": "uint256",
          "name": "reservesConversionPriceDivisor_",
          "type": "uint256"
        }
      ],
      "stateMutability": "view",
      "type": "function"
    },
    {
      "inputs": [],
      "name": "getExchangeRate",
      "outputs": [
        {
          "internalType": "uint256",
          "name": "exchangeRate_",
          "type": "uint256"
        }
      ],
      "stateMutability": "view",
      "type": "function"
    },
    {
      "inputs": [],
      "name": "getExchangeRateLiquidate",
      "outputs": [
        {
          "internalType": "uint256",
          "name": "exchangeRate_",
          "type": "uint256"
        }
      ],
      "stateMutability": "view",
      "type": "function"
    },
    {
      "inputs": [],
      "name": "getExchangeRateOperate",
      "outputs": [
        {
          "internalType": "uint256",
          "name": "exchangeRate_",
          "type": "uint256"
        }
      ],
      "stateMutability": "view",
      "type": "function"
    },
    {
      "inputs": [],
      "name": "infoName",
      "outputs": [
        {
          "internalType": "string",
          "name": "",
          "type": "string"
        }
      ],
      "stateMutability": "view",
      "type": "function"
    },
    {
      "inputs": [],
      "name": "sequencerL2Data",
      "outputs": [
        {
          "internalType": "address",
          "name": "sequencerUptimeFeed_",
          "type": "address"
        },
        {
          "internalType": "uint256",
          "name": "maxGracePeriod_",
          "type": "uint256"
        },
        {
          "internalType": "bool",
          "name": "isSequencerUp_",
          "type": "bool"
        },
        {
          "internalType": "uint256",
          "name": "lastUptimeStartedAt_",
          "type": "uint256"
        },
        {
          "internalType": "uint256",
          "name": "gracePeriod_",
          "type": "uint256"
        },
        {
          "internalType": "bool",
          "name": "gracePeriodPassed_",
          "type": "bool"
        },
        {
          "internalType": "uint256",
          "name": "lastOutageStartedAt_",
          "type": "uint256"
        },
        {
          "internalType": "bool",
          "name": "isSequencerUpAndValid_",
          "type": "bool"
        }
      ],
      "stateMutability": "view",
      "type": "function"
    }
  ],
  "transactionHash": "0x2e6de7f5e8bb2c7061fb69548f81304d24a81aa696ffcd6d44e99a10f8d8303b",
  "args": [
    [
      {
        "dexPool": "0x0B1a513ee24972DAEf112bC777a5610d4325C9e7",
        "quoteInToken0": false,
        "infoName": "WSTETH/ETH dbtSh. per 1 colSh.",
        "pegBufferPercent": 1000,
        "reservesConversionParams": {
          "reservesConversionOracle": "0x4BD81CE5dEF773ee766C7D931b7477093f6C9677",
          "reservesConversionInvert": false,
          "reservesConversionPriceMultiplier": 1,
          "reservesConversionPriceDivisor": 1
        },
        "resultMultiplier": 1,
        "resultDivisor": 1
      },
      "0xFdB631F5EE196F0ed6FAa767959853A9F217697D"
    ]
  ],
  "numDeployments": 1,
  "linkedData": {
    "nonce": "5"
  },
  "bytecode": "0x6103206040523480156200001257600080fd5b50604051620025f6380380620025f683398101604081905262000035916200055c565b8180602001518160400151826060015182828560800151828288600001518a8a60a001518b60c00151816000146200006e578162000071565b60015b608052801562000082578062000085565b60015b60a0525050600080546001600160a01b0319166001600160a01b0392909216919091179055805160201080620000ba57508051155b15620000e25760405163c82fc46560e01b815261ea6a60048201526024015b60405180910390fd5b6020015160c0526001600160a01b038216620001165760405163c82fc46560e01b815261ebdd6004820152602401620000d9565b6001600160a01b03821660e08190528115156101005260408051635bbc8df960e11b815290516000929163b7791bf2916004808301926102409291908290030181865afa1580156200016c573d6000803e3d6000fd5b505050506040513d601f19601f82011682018060405250810190620001929190620006dc565b610160808201516101a052610180808301516101c05260e0808401516101209081528401516101409081526101008501519093529183015190525160408051631595cbd360e01b815290519293506000926001600160a01b0390921691631595cbd3916004808201926080929091908290030181865afa1580156200021b573d6000803e3d6000fd5b505050506040513d601f19601f82011682018060405250810190620002419190620007d2565b80516101e05260208101516102005260408101516102205260600151610240525050610100519150620002af9050576102205161024051620002899064e8d4a510006200081b565b62000295919062000847565b620002a990670de0b6b3a764000062000847565b620002e8565b6101e05161020051620002c89064e8d4a510006200081b565b620002d4919062000847565b620002e890670de0b6b3a764000062000847565b61026052604081015115806200030057506060810151155b15620003245760405163c82fc46560e01b815261ebdd6004820152602401620000d9565b80516001600160a01b031661028052602081015115156102a05260408101516102c052606001516102e05250506000819003620003795760405163c82fc46560e01b815261ebdd6004820152602401620000d9565b61030052506200086a9350505050565b634e487b7160e01b600052604160045260246000fd5b604051608081016001600160401b0381118282101715620003c457620003c462000389565b60405290565b60405160e081016001600160401b0381118282101715620003c457620003c462000389565b6040516101c081016001600160401b0381118282101715620003c457620003c462000389565b604051601f8201601f191681016001600160401b038111828210171562000440576200044062000389565b604052919050565b600082601f8301126200045a57600080fd5b81516001600160401b0381111562000476576200047662000389565b60206200048c601f8301601f1916820162000415565b8281528582848701011115620004a157600080fd5b60005b83811015620004c1578581018301518282018401528201620004a4565b506000928101909101919091529392505050565b80516001600160a01b0381168114620004ed57600080fd5b919050565b80518015158114620004ed57600080fd5b6000608082840312156200051657600080fd5b620005206200039f565b90506200052d82620004d5565b81526200053d60208301620004f2565b6020820152604082015160408201526060820151606082015292915050565b600080604083850312156200057057600080fd5b82516001600160401b03808211156200058857600080fd5b9084019061014082870312156200059e57600080fd5b620005a8620003ca565b825182811115620005b857600080fd5b620005c68882860162000448565b825250620005d760208401620004d5565b6020820152620005ea60408401620004f2565b60408201526060830151606082015262000608876080850162000503565b608082015261010083015160a08201526101209092015160c08301525091506200063560208401620004d5565b90509250929050565b600060a082840312156200065157600080fd5b60405160a081016001600160401b038111828210171562000676576200067662000389565b6040529050806200068783620004d5565b81526200069760208401620004d5565b6020820152620006aa60408401620004d5565b6040820152620006bd60608401620004d5565b6060820152620006d060808401620004d5565b60808201525092915050565b60006102408284031215620006f057600080fd5b620006fa620003ef565b825181526200070c60208401620004d5565b60208201526200071f60408401620004d5565b60408201526200073384606085016200063e565b606082015261010062000748818501620004d5565b60808301526101206200075d818601620004d5565b60a084015261014062000772818701620004d5565b60c08501526101608087015160e086015261018080880151858701526101a0945084880151848701526101c0880151838701526101e088015182870152610200880151818701525050505061022084015181830152508091505092915050565b600060808284031215620007e557600080fd5b620007ef6200039f565b825181526020830151602082015260408301516040820152606083015160608201528091505092915050565b80820281158282048414176200084157634e487b7160e01b600052601160045260246000fd5b92915050565b6000826200086557634e487b7160e01b600052601260045260246000fd5b500490565b60805160a05160c05160e05161010051610120516101405161016051610180516101a0516101c0516101e05161020051610220516102405161026051610280516102a0516102c0516102e05161030051611bea62000a0c6000396000818161027a015281816106a0015281816106e401528181610c630152610ca7015260008181610128015281816107730152610a3a015260008181610107015281816107940152610a5b01526000818160e6015261085a01526000818160c501528181610727015281816107b5015281816109ee0152610a7c01526000610de60152600081816112e801526115270152600081816112c4015261154801526000818161125f015261157e01526000818161123b015261159f01526000818161119b015261139601526000818161114d015261134801526000611375015260006113270152600061117a0152600061112c0152600081816101df01526111c50152600081816101bb015281816108e80152610d110152600081816103e201526104a70152600081816102490152610bd00152600081816102230152610c030152611bea6000f3fe608060405234801561001057600080fd5b50600436106100be5760003560e01c806396aa229c11610076578063dc4595121161005b578063dc459512146102cf578063e6aa216c14610333578063f3190c891461033b57600080fd5b806396aa229c146102b2578063abd5f95d146102ba57600080fd5b8063585eebbf116100a7578063585eebbf146101a057806364bba885146102755780638e7bfbc0146102aa57600080fd5b806304741a5a146100c35780632879605814610183575b600080fd5b7f00000000000000000000000000000000000000000000000000000000000000007f00000000000000000000000000000000000000000000000000000000000000007f00000000000000000000000000000000000000000000000000000000000000007f00000000000000000000000000000000000000000000000000000000000000006040805173ffffffffffffffffffffffffffffffffffffffff909516855292151560208501529183015260608201526080015b60405180910390f35b61018b610343565b6040805192835260208301919091520161017a565b6040805173ffffffffffffffffffffffffffffffffffffffff7f00000000000000000000000000000000000000000000000000000000000000001681527f0000000000000000000000000000000000000000000000000000000000000000151560208201527352aa899454998be5b000ad077a46bbe360f4e497918101919091527f000000000000000000000000000000000000000000000000000000000000000060608201527f0000000000000000000000000000000000000000000000000000000000000000608082015260a00161017a565b61029c7f000000000000000000000000000000000000000000000000000000000000000081565b60405190815260200161017a565b61029c610383565b61018b61039a565b6102c26103d0565b60405161017a9190611908565b6102d7610535565b6040805173ffffffffffffffffffffffffffffffffffffffff909916895260208901979097529415159587019590955260608601929092526080850152151560a084015260c0830191909152151560e08201526101000161017a565b61029c61066b565b61029c610675565b600080600080610351610687565b91509150610367610360610723565b83836108a2565b6103796103726109ea565b84846108a2565b9350935050509091565b600061038d610ae5565b610395610b84565b905090565b6000806000806103a8610c4a565b915091506103be6103b7610723565b8383610ccc565b6103796103c96109ea565b8484610ccc565b606060005b60208110801561043b57507f0000000000000000000000000000000000000000000000000000000000000000816020811061041257610412611974565b1a60f81b7fff000000000000000000000000000000000000000000000000000000000000001615155b15610452578061044a816119d2565b9150506103d5565b60008167ffffffffffffffff81111561046d5761046d611a0a565b6040519080825280601f01601f191660200182016040528015610497576020820181803683370190505b50905060005b8281101561052e577f000000000000000000000000000000000000000000000000000000000000000081602081106104d7576104d7611974565b1a60f81b8282815181106104ed576104ed611974565b60200101907effffffffffffffffffffffffffffffffffffffffffffffffffffffffffffff1916908160001a90535080610526816119d2565b91505061049d565b5092915050565b600080600080600080600080600061054b610e21565b9198509096509050861561056f576105638187610fce565b91965094509250610625565b610a8c945060008060009054906101000a900473ffffffffffffffffffffffffffffffffffffffff1673ffffffffffffffffffffffffffffffffffffffff1663feaf968c6040518163ffffffff1660e01b815260040160a060405180830381865afa1580156105e2573d6000803e3d6000fd5b505050506040513d601f19601f820116820180604052508101906106069190611a58565b50505050905061062181600161061c9190611aa8565b611038565b9350505b60005473ffffffffffffffffffffffffffffffffffffffff16610a8c888888888884801561065057508a5b98509850985098509850985098509850509091929394959697565b6000610395610383565b600061067f610ae5565b610395611119565b600080610692611124565b9092509050620f42406106c57f000000000000000000000000000000000000000000000000000000000000000082611acb565b6106cf9084611ae4565b6106d99190611b2a565b9150620f42406107097f000000000000000000000000000000000000000000000000000000000000000082611acb565b6107139083611ae4565b61071d9190611b2a565b90509091565b60007f000000000000000000000000000000000000000000000000000000000000000073ffffffffffffffffffffffffffffffffffffffff1661077157506b033b2e3c9fd0803ce800000090565b7f00000000000000000000000000000000000000000000000000000000000000007f00000000000000000000000000000000000000000000000000000000000000007f000000000000000000000000000000000000000000000000000000000000000073ffffffffffffffffffffffffffffffffffffffff16638e7bfbc06040518163ffffffff1660e01b8152600401602060405180830381865afa15801561081e573d6000803e3d6000fd5b505050506040513d601f19601f820116820180604052508101906108429190611b65565b61084c9190611ae4565b6108569190611b2a565b90507f00000000000000000000000000000000000000000000000000000000000000001561089f5761039581760a70c3c40a64e6c51999090b65f67d9240000000000000611b2a565b90565b6040517fb5c736e40000000000000000000000000000000000000000000000000000000081526002600482015260009081906fffffffffffffffffffffffffffffffff907f000000000000000000000000000000000000000000000000000000000000000073ffffffffffffffffffffffffffffffffffffffff169063b5c736e490602401602060405180830381865afa158015610944573d6000803e3d6000fd5b505050506040513d601f19601f820116820180604052508101906109689190611b65565b169050806000036109ae576040517fc82fc46500000000000000000000000000000000000000000000000000000000815261ebac60048201526024015b60405180910390fd5b60006109bb8686866111c1565b9050816109d4826b033b2e3c9fd0803ce8000000611ae4565b6109de9190611b2a565b925050505b9392505050565b60007f000000000000000000000000000000000000000000000000000000000000000073ffffffffffffffffffffffffffffffffffffffff16610a3857506b033b2e3c9fd0803ce800000090565b7f00000000000000000000000000000000000000000000000000000000000000007f00000000000000000000000000000000000000000000000000000000000000007f000000000000000000000000000000000000000000000000000000000000000073ffffffffffffffffffffffffffffffffffffffff1663f3190c896040518163ffffffff1660e01b8152600401602060405180830381865afa15801561081e573d6000803e3d6000fd5b6000806000610af2610e21565b92509250925082610b33576040517fc82fc46500000000000000000000000000000000000000000000000000000000815261ea6060048201526024016109a5565b6000610b3f8383610fce565b5091505080610b7e576040517fc82fc46500000000000000000000000000000000000000000000000000000000815261ea6060048201526024016109a5565b50505050565b600080610b8f610723565b9050600080610b9c610687565b915091506000610bad8484846108a2565b9050610bb7610c4a565b90935091506000610bc9858585610ccc565b9050610c017f00000000000000000000000000000000000000000000000000000000000000006b033b2e3c9fd0803ce8000000611ae4565b7f0000000000000000000000000000000000000000000000000000000000000000610c2c8484611ae4565b610c369190611ae4565b610c409190611b2a565b9550505050505090565b600080610c5561131f565b9092509050620f4240610c887f000000000000000000000000000000000000000000000000000000000000000082611b7e565b610c929084611ae4565b610c9c9190611b2a565b9150620f42406107097f000000000000000000000000000000000000000000000000000000000000000082611b7e565b6040517fb5c736e400000000000000000000000000000000000000000000000000000000815260048082015260009081906fffffffffffffffffffffffffffffffff907f000000000000000000000000000000000000000000000000000000000000000073ffffffffffffffffffffffffffffffffffffffff169063b5c736e490602401602060405180830381865afa158015610d6d573d6000803e3d6000fd5b505050506040513d601f19601f82011682018060405250810190610d919190611b65565b16905080600003610dd2576040517fc82fc46500000000000000000000000000000000000000000000000000000000815261ebb660048201526024016109a5565b6000610ddf8686866111c1565b9050610e0b7f000000000000000000000000000000000000000000000000000000000000000082611ae4565b6109d4836b033b2e3c9fd0803ce8000000611ae4565b60008060008060008060008054906101000a900473ffffffffffffffffffffffffffffffffffffffff1673ffffffffffffffffffffffffffffffffffffffff1663feaf968c6040518163ffffffff1660e01b815260040160a060405180830381865afa158015610e95573d6000803e3d6000fd5b505050506040513d601f19601f82011682018060405250810190610eb99190611a58565b505092509250925081600014610ed9575060009586955085945092505050565b600195508294508093506000841115610fc6575b60005473ffffffffffffffffffffffffffffffffffffffff16639a6fc8f5610f16600186611b91565b6040517fffffffff0000000000000000000000000000000000000000000000000000000060e084901b16815269ffffffffffffffffffff909116600482015260240160a060405180830381865afa158015610f75573d6000803e3d6000fd5b505050506040513d601f19601f82011682018060405250810190610f999190611a58565b509295509093509150506000829003610fb3578294508093505b81158015610fc15750600081115b610eed575b505050909192565b6000808080610fdd8542611acb565b9050841580610fed5750610a8c81115b1561100557610a8c6001600093509350935050611031565b61100e86611038565b915061101a8286611acb565b9350610a8c84111561102c57610a8c93505b831091505b9250925092565b60008181805b60005473ffffffffffffffffffffffffffffffffffffffff16639a6fc8f5611067600186611b91565b6040517fffffffff0000000000000000000000000000000000000000000000000000000060e084901b16815269ffffffffffffffffffff909116600482015260240160a060405180830381865afa1580156110c6573d6000803e3d6000fd5b505050506040513d601f19601f820116820180604052508101906110ea9190611a58565b5092955090935091505081156110fe578093505b811580159061110d5750600081115b61103e57505050919050565b600080610b8f6109ea565b6000806111737f00000000000000000000000000000000000000000000000000000000000000007f000000000000000000000000000000000000000000000000000000000000000060016113bc565b915061071d7f00000000000000000000000000000000000000000000000000000000000000007f000000000000000000000000000000000000000000000000000000000000000060006113bc565b60007f0000000000000000000000000000000000000000000000000000000000000000156112955761120a84760a70c3c40a64e6c51999090b65f67d9240000000000000611b2a565b93506b033b2e3c9fd0803ce80000006112238584611ae4565b61122d9190611b2a565b6112379084611b7e565b90507f00000000000000000000000000000000000000000000000000000000000000006112847f000000000000000000000000000000000000000000000000000000000000000083611ae4565b61128e9190611b2a565b90506109e3565b6b033b2e3c9fd0803ce80000006112ac8585611ae4565b6112b69190611b2a565b6112c09083611b7e565b90507f000000000000000000000000000000000000000000000000000000000000000061130d7f000000000000000000000000000000000000000000000000000000000000000083611ae4565b6113179190611b2a565b949350505050565b60008061136e7f00000000000000000000000000000000000000000000000000000000000000007f000000000000000000000000000000000000000000000000000000000000000060016115d8565b915061071d7f00000000000000000000000000000000000000000000000000000000000000007f000000000000000000000000000000000000000000000000000000000000000060006115d8565b6040517fb5c736e40000000000000000000000000000000000000000000000000000000081526004810184905260009081907352aa899454998be5b000ad077a46bbe360f4e4979063b5c736e490602401602060405180830381865afa15801561142a573d6000803e3d6000fd5b505050506040513d601f19601f8201168201806040525081019061144e9190611b65565b6040517fb5c736e400000000000000000000000000000000000000000000000000000000815260048101869052600982901c66ffffffffffffff16600183901c60ff161b9350909150600090611504907352aa899454998be5b000ad077a46bbe360f4e4979063b5c736e4906024015b602060405180830381865afa1580156114db573d6000803e3d6000fd5b505050506040513d601f19601f820116820180604052508101906114ff9190611b65565b6116fa565b509050816001166001036115205764e8d4a510008382025b0492505b8361157c577f00000000000000000000000000000000000000000000000000000000000000007f000000000000000000000000000000000000000000000000000000000000000084028161157657611576611afb565b046109de565b7f00000000000000000000000000000000000000000000000000000000000000007f00000000000000000000000000000000000000000000000000000000000000008402816115cd576115cd611afb565b049695505050505050565b6040517fb5c736e40000000000000000000000000000000000000000000000000000000081526004810184905260009081907352aa899454998be5b000ad077a46bbe360f4e4979063b5c736e490602401602060405180830381865afa158015611646573d6000803e3d6000fd5b505050506040513d601f19601f8201168201806040525081019061166a9190611b65565b6040517fb5c736e400000000000000000000000000000000000000000000000000000000815260048101869052600982901c66ffffffffffffff16600183901c60ff161b93509091506000906116de907352aa899454998be5b000ad077a46bbe360f4e4979063b5c736e4906024016114be565b915050816001166001036115205764e8d4a5100083820261151c565b67ffffffffffffffff605b82901c811690609b83901c1681158061171c575080155b15611758576040517fd50d75120000000000000000000000000000000000000000000000000000000081526201117160048201526024016109a5565b61ffff8316603a84901c6401ffffffff16428181039160ea87901c617fff16911480611782575082155b8061178d5750806001145b1561179a57505050915091565b64496cebb80084840283020484019350617fff60db87901c169250826001036117c557505050915091565b8260011660010361181a5760019290921c91826c7e37be2022c0914b2680000000816117f3576117f3611afb565b049250612710601e87901c613fff166b033b2e3c9fd0803ce8000000850102049250611847565b60019290921c916305f5e100601e87901c613fff166127108501026b033b2e3c9fd0803ce8000000020492505b8060011660010361187e5760011c61271081016b033b2e3c9fd0803ce800000082028161187657611876611afb565b0490506118b4565b60011c61271081016b033b2e3c9fd0803ce80000008202816118a2576118a2611afb565b046b033b2e3c9fd0803ce80000000390505b760a70c3c40a64e6c51999090b65f67d92400000000000008382026127100261ffff881691900402601087901c613fff16612710030292506801b5a660ea44b8000085840283020485019450505050915091565b600060208083528351808285015260005b8181101561193557858101830151858201604001528201611919565b5060006040828601015260407fffffffffffffffffffffffffffffffffffffffffffffffffffffffffffffffe0601f8301168501019250505092915050565b7f4e487b7100000000000000000000000000000000000000000000000000000000600052603260045260246000fd5b7f4e487b7100000000000000000000000000000000000000000000000000000000600052601160045260246000fd5b60007fffffffffffffffffffffffffffffffffffffffffffffffffffffffffffffffff8203611a0357611a036119a3565b5060010190565b7f4e487b7100000000000000000000000000000000000000000000000000000000600052604160045260246000fd5b805169ffffffffffffffffffff81168114611a5357600080fd5b919050565b600080600080600060a08688031215611a7057600080fd5b611a7986611a39565b9450602086015193506040860151925060608601519150611a9c60808701611a39565b90509295509295909350565b69ffffffffffffffffffff81811683821601908082111561052e5761052e6119a3565b81810381811115611ade57611ade6119a3565b92915050565b8082028115828204841417611ade57611ade6119a3565b7f4e487b7100000000000000000000000000000000000000000000000000000000600052601260045260246000fd5b600082611b60577f4e487b7100000000000000000000000000000000000000000000000000000000600052601260045260246000fd5b500490565b600060208284031215611b7757600080fd5b5051919050565b80820180821115611ade57611ade6119a3565b69ffffffffffffffffffff82811682821603908082111561052e5761052e6119a356fea2646970667358221220374a96fc584b388097d199d5917d391c2456b5d418588662e28a907707992a6464736f6c63430008150033"
}