{
  "address": "0xdaC1f22098f157920a8A34Aa6dBcD01e37f467c8",
  "abi": [
    {
      "inputs": [
        {
          "components": [
            {
              "internalType": "string",
              "name": "infoName",
              "type": "string"
            },
            {
              "internalType": "uint8",
              "name": "targetDecimals",
              "type": "uint8"
            },
            {
              "internalType": "address",
              "name": "dexPool",
              "type": "address"
            },
            {
              "internalType": "bool",
              "name": "quoteInToken0",
              "type": "bool"
            },
            {
              "internalType": "contract IFluidOracle",
              "name": "colDebtOracle",
              "type": "address"
            },
            {
              "internalType": "bool",
              "name": "colDebtInvert",
              "type": "bool"
            },
            {
              "internalType": "uint256",
              "name": "pegBufferPercent",
              "type": "uint256"
            },
            {
              "components": [
                {
                  "internalType": "address",
                  "name": "reservesConversionOracle",
                  "type": "address"
                },
                {
                  "internalType": "bool",
                  "name": "reservesConversionInvert",
                  "type": "bool"
                },
                {
                  "internalType": "uint256",
                  "name": "reservesConversionPriceMultiplier",
                  "type": "uint256"
                },
                {
                  "internalType": "uint256",
                  "name": "reservesConversionPriceDivisor",
                  "type": "uint256"
                }
              ],
              "internalType": "struct DexConversionPriceFluidOracle.DexConversionPriceFluidOracleParams",
              "name": "reservesConversionParams",
              "type": "tuple"
            },
            {
              "internalType": "uint256",
              "name": "resultMultiplier",
              "type": "uint256"
            },
            {
              "internalType": "uint256",
              "name": "resultDivisor",
              "type": "uint256"
            }
          ],
          "internalType": "struct DexSmartColPegOracle.DexSmartColPegOracleParams",
          "name": "params_",
          "type": "tuple"
        },
        {
          "internalType": "address",
          "name": "sequencerUptimeFeed_",
          "type": "address"
        }
      ],
      "stateMutability": "nonpayable",
      "type": "constructor"
    },
    {
      "inputs": [
        {
          "internalType": "uint256",
          "name": "errorId_",
          "type": "uint256"
        }
      ],
      "name": "FluidLiquidityCalcsError",
      "type": "error"
    },
    {
      "inputs": [
        {
          "internalType": "uint256",
          "name": "errorId_",
          "type": "uint256"
        }
      ],
      "name": "FluidOracleError",
      "type": "error"
    },
    {
      "inputs": [],
      "name": "RESERVES_PEG_BUFFER_PERCENT",
      "outputs": [
        {
          "internalType": "uint256",
          "name": "",
          "type": "uint256"
        }
      ],
      "stateMutability": "view",
      "type": "function"
    },
    {
      "inputs": [],
      "name": "dexOracleData",
      "outputs": [
        {
          "internalType": "address",
          "name": "dexPool_",
          "type": "address"
        },
        {
          "internalType": "bool",
          "name": "quoteInToken0_",
          "type": "bool"
        },
        {
          "internalType": "address",
          "name": "liquidity_",
          "type": "address"
        },
        {
          "internalType": "uint256",
          "name": "resultMultiplier_",
          "type": "uint256"
        },
        {
          "internalType": "uint256",
          "name": "resultDivisor_",
          "type": "uint256"
        }
      ],
      "stateMutability": "view",
      "type": "function"
    },
    {
      "inputs": [],
      "name": "dexSmartColSharesRates",
      "outputs": [
        {
          "internalType": "uint256",
          "name": "operate_",
          "type": "uint256"
        },
        {
          "internalType": "uint256",
          "name": "liquidate_",
          "type": "uint256"
        }
      ],
      "stateMutability": "view",
      "type": "function"
    },
    {
      "inputs": [],
      "name": "getDexColDebtOracleData",
      "outputs": [
        {
          "internalType": "address",
          "name": "colDebtOracle_",
          "type": "address"
        },
        {
          "internalType": "bool",
          "name": "colDebtInvert_",
          "type": "bool"
        }
      ],
      "stateMutability": "view",
      "type": "function"
    },
    {
      "inputs": [],
      "name": "getDexConversionPriceFluidOracleData",
      "outputs": [
        {
          "internalType": "address",
          "name": "reservesConversionOracle_",
          "type": "address"
        },
        {
          "internalType": "bool",
          "name": "reservesConversionInvert_",
          "type": "bool"
        },
        {
          "internalType": "uint256",
          "name": "reservesConversionPriceMultiplier_",
          "type": "uint256"
        },
        {
          "internalType": "uint256",
          "name": "reservesConversionPriceDivisor_",
          "type": "uint256"
        }
      ],
      "stateMutability": "view",
      "type": "function"
    },
    {
      "inputs": [],
      "name": "getExchangeRate",
      "outputs": [
        {
          "internalType": "uint256",
          "name": "exchangeRate_",
          "type": "uint256"
        }
      ],
      "stateMutability": "view",
      "type": "function"
    },
    {
      "inputs": [],
      "name": "getExchangeRateLiquidate",
      "outputs": [
        {
          "internalType": "uint256",
          "name": "exchangeRate_",
          "type": "uint256"
        }
      ],
      "stateMutability": "view",
      "type": "function"
    },
    {
      "inputs": [],
      "name": "getExchangeRateOperate",
      "outputs": [
        {
          "internalType": "uint256",
          "name": "exchangeRate_",
          "type": "uint256"
        }
      ],
      "stateMutability": "view",
      "type": "function"
    },
    {
      "inputs": [],
      "name": "infoName",
      "outputs": [
        {
          "internalType": "string",
          "name": "",
          "type": "string"
        }
      ],
      "stateMutability": "view",
      "type": "function"
    },
    {
      "inputs": [],
      "name": "sequencerL2Data",
      "outputs": [
        {
          "internalType": "address",
          "name": "sequencerUptimeFeed_",
          "type": "address"
        },
        {
          "internalType": "uint256",
          "name": "maxGracePeriod_",
          "type": "uint256"
        },
        {
          "internalType": "bool",
          "name": "isSequencerUp_",
          "type": "bool"
        },
        {
          "internalType": "uint256",
          "name": "lastUptimeStartedAt_",
          "type": "uint256"
        },
        {
          "internalType": "uint256",
          "name": "gracePeriod_",
          "type": "uint256"
        },
        {
          "internalType": "bool",
          "name": "gracePeriodPassed_",
          "type": "bool"
        },
        {
          "internalType": "uint256",
          "name": "lastOutageStartedAt_",
          "type": "uint256"
        },
        {
          "internalType": "bool",
          "name": "isSequencerUpAndValid_",
          "type": "bool"
        }
      ],
      "stateMutability": "view",
      "type": "function"
    },
    {
      "inputs": [],
      "name": "targetDecimals",
      "outputs": [
        {
          "internalType": "uint8",
          "name": "",
          "type": "uint8"
        }
      ],
      "stateMutability": "view",
      "type": "function"
    }
  ],
  "transactionHash": "0x875f17b3e6f3c531d6b22b2eb16a08d240bbb098fb94171973a412a7c14a5a51",
  "args": [
    [
      {
        "dexPool": "0xc8F989E9B7ECE1b4D092Ae4db7fAF1294146bdA4",
        "quoteInToken0": false,
        "infoName": "WSTETH per 1 EZETH/ETH colSh.",
        "targetDecimals": 27,
        "pegBufferPercent": 1000,
        "reservesConversionParams": {
          "reservesConversionOracle": "0x9BC84B6054e5B7ae821Abe497FfBaa452C49D88f",
          "reservesConversionInvert": false,
          "reservesConversionPriceMultiplier": 1,
          "reservesConversionPriceDivisor": 1
        },
        "resultMultiplier": 1,
        "resultDivisor": 1,
        "colDebtOracle": "0x4BD81CE5dEF773ee766C7D931b7477093f6C9677",
        "colDebtInvert": true
      },
      "0xFdB631F5EE196F0ed6FAa767959853A9F217697D"
    ]
  ],
  "numDeployments": 1,
  "linkedData": {
    "nonce": "81"
  },
  "bytecode": "0x6103a06040523480156200001257600080fd5b5060405162002677380380620026778339810160408190526200003591620005d5565b81806040015181606001518260c0015182828560e0015186608001518760a0015184848a600001518b602001518d8d61010001518e6101200151816000146200007f578162000082565b60015b608052801562000093578062000096565b60015b60a05250506001600160a01b031660c052815160201080620000b757508151155b15620000df5760405163c82fc46560e01b815261ea6a60048201526024015b60405180910390fd5b600f8160ff161080620000f5575060278160ff16115b15620001195760405163c82fc46560e01b815261ebf16004820152602401620000d6565b60ff16610100526020015160e0526001600160a01b038216620001545760405163c82fc46560e01b815261ebdd6004820152602401620000d6565b6001600160a01b0382166101208190528115156101405260408051635bbc8df960e11b815290516000929163b7791bf2916004808301926102409291908290030181865afa158015620001ab573d6000803e3d6000fd5b505050506040513d601f19601f82011682018060405250810190620001d191906200079d565b610160808201516101e052610180808301516102005260e0830151909152610120808301519091526101008201516101a0526101408201516101c0525160408051631595cbd360e01b815290519293506000926001600160a01b0390921691631595cbd3916004808201926080929091908290030181865afa1580156200025c573d6000803e3d6000fd5b505050506040513d601f19601f8201168201806040525081019062000282919062000893565b80516102205260208101516102405260408101516102605260600151610280525050610140519150620002f09050576102605161028051620002ca9064e8d4a51000620008dc565b620002d6919062000908565b620002ea90670de0b6b3a764000062000908565b62000329565b6102205161024051620003099064e8d4a51000620008dc565b62000315919062000908565b6200032990670de0b6b3a764000062000908565b6102a0526001600160a01b039091166102c05215156102e052604081015115806200035657506060810151155b156200037a5760405163c82fc46560e01b815261ebdd6004820152602401620000d6565b80516001600160a01b0316610300526020810151151561032052604081015161034052606001516103605250506000819003620003cf5760405163c82fc46560e01b815261ebdd6004820152602401620000d6565b61038052506200092b9350505050565b634e487b7160e01b600052604160045260246000fd5b604051608081016001600160401b03811182821017156200041a576200041a620003df565b60405290565b60405161014081016001600160401b03811182821017156200041a576200041a620003df565b6040516101c081016001600160401b03811182821017156200041a576200041a620003df565b604051601f8201601f191681016001600160401b0381118282101715620004975762000497620003df565b604052919050565b600082601f830112620004b157600080fd5b81516001600160401b03811115620004cd57620004cd620003df565b6020620004e3601f8301601f191682016200046c565b8281528582848701011115620004f857600080fd5b60005b8381101562000518578581018301518282018401528201620004fb565b506000928101909101919091529392505050565b805160ff811681146200053e57600080fd5b919050565b6001600160a01b03811681146200055957600080fd5b50565b80516200053e8162000543565b805180151581146200053e57600080fd5b6000608082840312156200058d57600080fd5b62000597620003f5565b90508151620005a68162000543565b8152620005b66020830162000569565b6020820152604082015160408201526060820151606082015292915050565b60008060408385031215620005e957600080fd5b82516001600160401b03808211156200060157600080fd5b908401906101a082870312156200061757600080fd5b6200062162000420565b8251828111156200063157600080fd5b6200063f888286016200049f565b82525062000650602084016200052c565b602082015262000663604084016200055c565b6040820152620006766060840162000569565b606082015262000689608084016200055c565b60808201526200069c60a0840162000569565b60a082015260c083015160c0820152620006ba8760e085016200057a565b60e082015261016083015161010082015261018090920151610120830152509150620006e9602084016200055c565b90509250929050565b600060a082840312156200070557600080fd5b60405160a081016001600160401b03811182821017156200072a576200072a620003df565b806040525080915082516200073f8162000543565b81526020830151620007518162000543565b60208201526040830151620007668162000543565b604082015260608301516200077b8162000543565b60608201526080830151620007908162000543565b6080919091015292915050565b60006102408284031215620007b157600080fd5b620007bb62000446565b82518152620007cd602084016200055c565b6020820152620007e0604084016200055c565b6040820152620007f48460608501620006f2565b6060820152610100620008098185016200055c565b60808301526101206200081e8186016200055c565b60a0840152610140620008338187016200055c565b60c08501526101608087015160e086015261018080880151858701526101a0945084880151848701526101c0880151838701526101e088015182870152610200880151818701525050505061022084015181830152508091505092915050565b600060808284031215620008a657600080fd5b620008b0620003f5565b825181526020830151602082015260408301516040820152606083015160608201528091505092915050565b80820281158282048414176200090257634e487b7160e01b600052601160045260246000fd5b92915050565b6000826200092657634e487b7160e01b600052601260045260246000fd5b500490565b60805160a05160c05160e05161010051610120516101405161016051610180516101a0516101c0516101e05161020051610220516102405161026051610280516102a0516102c0516102e0516103005161032051610340516103605161038051611b5a62000b1d600039600081816102b6015281816107100152610754015260008181610133015281816107e30152610ad4015260008181610112015281816108040152610af501526000818160f101526108ca01526000818160d0015281816107970152818161082501528181610a880152610b160152600081816103b6015261135201526000818161039201528181611275015281816112c10152818161139b01526113e701526000610a3301526000818161123a01526115b901526000818161121601526115da0152600081816111b1015261161001526000818161118d0152611631015260006110ed0152600061109f0152600050506000505060006110cc0152600061107e01526000818161021b01526111170152600081816101f70152610958015260006101b201526000818161044b01526105100152600081816105e10152818161068f01528181610cce01528181610da60152610f1501526000818161028501528181610c43015261101c01526000818161025f01528181610c76015261104f0152611b5a6000f3fe608060405234801561001057600080fd5b50600436106100c95760003560e01c80638e7bfbc011610081578063e6aa216c1161005b578063e6aa216c14610367578063f3190c891461036f578063fa9a98e61461037757600080fd5b80638e7bfbc0146102e6578063abd5f95d146102ee578063dc4595121461030357600080fd5b806336c1387e116100b257806336c1387e146101ab578063585eebbf146101dc57806364bba885146102b157600080fd5b806304741a5a146100ce578063287960581461018e575b600080fd5b7f00000000000000000000000000000000000000000000000000000000000000007f00000000000000000000000000000000000000000000000000000000000000007f00000000000000000000000000000000000000000000000000000000000000007f00000000000000000000000000000000000000000000000000000000000000006040805173ffffffffffffffffffffffffffffffffffffffff909516855292151560208501529183015260608201526080015b60405180910390f35b6101966103e2565b60408051928352602083019190915201610185565b60405160ff7f0000000000000000000000000000000000000000000000000000000000000000168152602001610185565b6040805173ffffffffffffffffffffffffffffffffffffffff7f00000000000000000000000000000000000000000000000000000000000000001681527f0000000000000000000000000000000000000000000000000000000000000000151560208201527352aa899454998be5b000ad077a46bbe360f4e497918101919091527f000000000000000000000000000000000000000000000000000000000000000060608201527f0000000000000000000000000000000000000000000000000000000000000000608082015260a001610185565b6102d87f000000000000000000000000000000000000000000000000000000000000000081565b604051908152602001610185565b6102d8610422565b6102f6610439565b6040516101859190611878565b61030b61059e565b6040805173ffffffffffffffffffffffffffffffffffffffff909916895260208901979097529415159587019590955260608601929092526080850152151560a084015260c0830191909152151560e082015261010001610185565b6102d86106db565b6102d86106e5565b6040805173ffffffffffffffffffffffffffffffffffffffff7f00000000000000000000000000000000000000000000000000000000000000001681527f00000000000000000000000000000000000000000000000000000000000000001515602082015201610185565b6000806000806103f06106f7565b915091506104066103ff610793565b8383610912565b610418610411610a84565b8484610912565b9350935050509091565b600061042c610b7f565b610434610c1e565b905090565b606060005b6020811080156104a457507f0000000000000000000000000000000000000000000000000000000000000000816020811061047b5761047b6118e4565b1a60f81b7fff000000000000000000000000000000000000000000000000000000000000001615155b156104bb57806104b381611942565b91505061043e565b60008167ffffffffffffffff8111156104d6576104d661197a565b6040519080825280601f01601f191660200182016040528015610500576020820181803683370190505b50905060005b82811015610597577f00000000000000000000000000000000000000000000000000000000000000008160208110610540576105406118e4565b1a60f81b828281518110610556576105566118e4565b60200101907effffffffffffffffffffffffffffffffffffffffffffffffffffffffffffff1916908160001a9053508061058f81611942565b915050610506565b5092915050565b60008060008060008060008060006105b4610cc3565b919850909650905086156105d8576105cc8187610e8e565b9196509450925061068d565b610a8c945060007f000000000000000000000000000000000000000000000000000000000000000073ffffffffffffffffffffffffffffffffffffffff1663feaf968c6040518163ffffffff1660e01b815260040160a060405180830381865afa15801561064a573d6000803e3d6000fd5b505050506040513d601f19601f8201168201806040525081019061066e91906119c8565b5050505090506106898160016106849190611a18565b610ef8565b9350505b7f0000000000000000000000000000000000000000000000000000000000000000610a8c88888888888d80156106c057508a5b98509850985098509850985098509850509091929394959697565b6000610434610422565b60006106ef610b7f565b610434610ff7565b600080610702611076565b9092509050620f42406107357f000000000000000000000000000000000000000000000000000000000000000082611a3b565b61073f9084611a54565b6107499190611a9a565b9150620f42406107797f000000000000000000000000000000000000000000000000000000000000000082611a3b565b6107839083611a54565b61078d9190611a9a565b90509091565b60007f000000000000000000000000000000000000000000000000000000000000000073ffffffffffffffffffffffffffffffffffffffff166107e157506b033b2e3c9fd0803ce800000090565b7f00000000000000000000000000000000000000000000000000000000000000007f00000000000000000000000000000000000000000000000000000000000000007f000000000000000000000000000000000000000000000000000000000000000073ffffffffffffffffffffffffffffffffffffffff16638e7bfbc06040518163ffffffff1660e01b8152600401602060405180830381865afa15801561088e573d6000803e3d6000fd5b505050506040513d601f19601f820116820180604052508101906108b29190611ad5565b6108bc9190611a54565b6108c69190611a9a565b90507f00000000000000000000000000000000000000000000000000000000000000001561090f5761043481760a70c3c40a64e6c51999090b65f67d9240000000000000611a9a565b90565b6040517fb5c736e40000000000000000000000000000000000000000000000000000000081526002600482015260009081906fffffffffffffffffffffffffffffffff907f000000000000000000000000000000000000000000000000000000000000000073ffffffffffffffffffffffffffffffffffffffff169063b5c736e490602401602060405180830381865afa1580156109b4573d6000803e3d6000fd5b505050506040513d601f19601f820116820180604052508101906109d89190611ad5565b16905080600003610a1e576040517fc82fc46500000000000000000000000000000000000000000000000000000000815261ebac60048201526024015b60405180910390fd5b6000610a2b868686611113565b905081610a587f000000000000000000000000000000000000000000000000000000000000000083611a54565b610a6e906b033b2e3c9fd0803ce8000000611a54565b610a789190611a9a565b925050505b9392505050565b60007f000000000000000000000000000000000000000000000000000000000000000073ffffffffffffffffffffffffffffffffffffffff16610ad257506b033b2e3c9fd0803ce800000090565b7f00000000000000000000000000000000000000000000000000000000000000007f00000000000000000000000000000000000000000000000000000000000000007f000000000000000000000000000000000000000000000000000000000000000073ffffffffffffffffffffffffffffffffffffffff1663f3190c896040518163ffffffff1660e01b8152600401602060405180830381865afa15801561088e573d6000803e3d6000fd5b6000806000610b8c610cc3565b92509250925082610bcd576040517fc82fc46500000000000000000000000000000000000000000000000000000000815261ea606004820152602401610a15565b6000610bd98383610e8e565b5091505080610c18576040517fc82fc46500000000000000000000000000000000000000000000000000000000815261ea606004820152602401610a15565b50505050565b6000806000610c2b6106f7565b915091506000610c3c610411610793565b9050610c747f00000000000000000000000000000000000000000000000000000000000000006b033b2e3c9fd0803ce8000000611a54565b7f0000000000000000000000000000000000000000000000000000000000000000610c9d611271565b610ca79084611a54565b610cb19190611a54565b610cbb9190611a9a565b935050505090565b6000806000806000807f000000000000000000000000000000000000000000000000000000000000000073ffffffffffffffffffffffffffffffffffffffff1663feaf968c6040518163ffffffff1660e01b815260040160a060405180830381865afa158015610d37573d6000803e3d6000fd5b505050506040513d601f19601f82011682018060405250810190610d5b91906119c8565b505092509250925081600014610d7b575060009586955085945092505050565b600195508294508093506000841115610e86575b73ffffffffffffffffffffffffffffffffffffffff7f000000000000000000000000000000000000000000000000000000000000000016639a6fc8f5610dd6600186611aee565b6040517fffffffff0000000000000000000000000000000000000000000000000000000060e084901b16815269ffffffffffffffffffff909116600482015260240160a060405180830381865afa158015610e35573d6000803e3d6000fd5b505050506040513d601f19601f82011682018060405250810190610e5991906119c8565b509295509093509150506000829003610e73578294508093505b81158015610e815750600081115b610d8f575b505050909192565b6000808080610e9d8542611a3b565b9050841580610ead5750610a8c81115b15610ec557610a8c6001600093509350935050610ef1565b610ece86610ef8565b9150610eda8286611a3b565b9350610a8c841115610eec57610a8c93505b831091505b9250925092565b60008181805b73ffffffffffffffffffffffffffffffffffffffff7f000000000000000000000000000000000000000000000000000000000000000016639a6fc8f5610f45600186611aee565b6040517fffffffff0000000000000000000000000000000000000000000000000000000060e084901b16815269ffffffffffffffffffff909116600482015260240160a060405180830381865afa158015610fa4573d6000803e3d6000fd5b505050506040513d601f19601f82011682018060405250810190610fc891906119c8565b509295509093509150508115610fdc578093505b8115801590610feb5750600081115b610efe57505050919050565b60008060006110046106f7565b915091506000611015610411610a84565b905061104d7f00000000000000000000000000000000000000000000000000000000000000006b033b2e3c9fd0803ce8000000611a54565b7f0000000000000000000000000000000000000000000000000000000000000000610c9d611397565b6000806110c57f00000000000000000000000000000000000000000000000000000000000000007f00000000000000000000000000000000000000000000000000000000000000006001611450565b915061078d7f00000000000000000000000000000000000000000000000000000000000000007f00000000000000000000000000000000000000000000000000000000000000006000611450565b60007f0000000000000000000000000000000000000000000000000000000000000000156111e75761115c84760a70c3c40a64e6c51999090b65f67d9240000000000000611a9a565b93506b033b2e3c9fd0803ce80000006111758584611a54565b61117f9190611a9a565b6111899084611b11565b90507f00000000000000000000000000000000000000000000000000000000000000006111d67f000000000000000000000000000000000000000000000000000000000000000083611a54565b6111e09190611a9a565b9050610a7d565b6b033b2e3c9fd0803ce80000006111fe8585611a54565b6112089190611a9a565b6112129083611b11565b90507f000000000000000000000000000000000000000000000000000000000000000061125f7f000000000000000000000000000000000000000000000000000000000000000083611a54565b6112699190611a9a565b949350505050565b60007f000000000000000000000000000000000000000000000000000000000000000073ffffffffffffffffffffffffffffffffffffffff166112bf57506b033b2e3c9fd0803ce800000090565b7f000000000000000000000000000000000000000000000000000000000000000073ffffffffffffffffffffffffffffffffffffffff16638e7bfbc06040518163ffffffff1660e01b8152600401602060405180830381865afa15801561132a573d6000803e3d6000fd5b505050506040513d601f19601f8201168201806040525081019061134e9190611ad5565b90507f00000000000000000000000000000000000000000000000000000000000000001561090f5761043481760a70c3c40a64e6c51999090b65f67d9240000000000000611a9a565b60007f000000000000000000000000000000000000000000000000000000000000000073ffffffffffffffffffffffffffffffffffffffff166113e557506b033b2e3c9fd0803ce800000090565b7f000000000000000000000000000000000000000000000000000000000000000073ffffffffffffffffffffffffffffffffffffffff1663f3190c896040518163ffffffff1660e01b8152600401602060405180830381865afa15801561132a573d6000803e3d6000fd5b6040517fb5c736e40000000000000000000000000000000000000000000000000000000081526004810184905260009081907352aa899454998be5b000ad077a46bbe360f4e4979063b5c736e490602401602060405180830381865afa1580156114be573d6000803e3d6000fd5b505050506040513d601f19601f820116820180604052508101906114e29190611ad5565b6040517fb5c736e400000000000000000000000000000000000000000000000000000000815260048101869052600982901c66ffffffffffffff16600183901c60ff161b9350909150600090611597907352aa899454998be5b000ad077a46bbe360f4e4979063b5c736e490602401602060405180830381865afa15801561156e573d6000803e3d6000fd5b505050506040513d601f19601f820116820180604052508101906115929190611ad5565b61166a565b509050816001166001036115b25764e8d4a510008382020492505b8361160e577f00000000000000000000000000000000000000000000000000000000000000007f000000000000000000000000000000000000000000000000000000000000000084028161160857611608611a6b565b04610a78565b7f00000000000000000000000000000000000000000000000000000000000000007f000000000000000000000000000000000000000000000000000000000000000084028161165f5761165f611a6b565b049695505050505050565b67ffffffffffffffff605b82901c811690609b83901c1681158061168c575080155b156116c8576040517fd50d7512000000000000000000000000000000000000000000000000000000008152620111716004820152602401610a15565b61ffff8316603a84901c6401ffffffff16428181039160ea87901c617fff169114806116f2575082155b806116fd5750806001145b1561170a57505050915091565b64496cebb80084840283020484019350617fff60db87901c1692508260010361173557505050915091565b8260011660010361178a5760019290921c91826c7e37be2022c0914b26800000008161176357611763611a6b565b049250612710601e87901c613fff166b033b2e3c9fd0803ce80000008501020492506117b7565b60019290921c916305f5e100601e87901c613fff166127108501026b033b2e3c9fd0803ce8000000020492505b806001166001036117ee5760011c61271081016b033b2e3c9fd0803ce80000008202816117e6576117e6611a6b565b049050611824565b60011c61271081016b033b2e3c9fd0803ce800000082028161181257611812611a6b565b046b033b2e3c9fd0803ce80000000390505b760a70c3c40a64e6c51999090b65f67d92400000000000008382026127100261ffff881691900402601087901c613fff16612710030292506801b5a660ea44b8000085840283020485019450505050915091565b600060208083528351808285015260005b818110156118a557858101830151858201604001528201611889565b5060006040828601015260407fffffffffffffffffffffffffffffffffffffffffffffffffffffffffffffffe0601f8301168501019250505092915050565b7f4e487b7100000000000000000000000000000000000000000000000000000000600052603260045260246000fd5b7f4e487b7100000000000000000000000000000000000000000000000000000000600052601160045260246000fd5b60007fffffffffffffffffffffffffffffffffffffffffffffffffffffffffffffffff820361197357611973611913565b5060010190565b7f4e487b7100000000000000000000000000000000000000000000000000000000600052604160045260246000fd5b805169ffffffffffffffffffff811681146119c357600080fd5b919050565b600080600080600060a086880312156119e057600080fd5b6119e9866119a9565b9450602086015193506040860151925060608601519150611a0c608087016119a9565b90509295509295909350565b69ffffffffffffffffffff81811683821601908082111561059757610597611913565b81810381811115611a4e57611a4e611913565b92915050565b8082028115828204841417611a4e57611a4e611913565b7f4e487b7100000000000000000000000000000000000000000000000000000000600052601260045260246000fd5b600082611ad0577f4e487b7100000000000000000000000000000000000000000000000000000000600052601260045260246000fd5b500490565b600060208284031215611ae757600080fd5b5051919050565b69ffffffffffffffffffff82811682821603908082111561059757610597611913565b80820180821115611a4e57611a4e61191356fea2646970667358221220439873330837a4ca2e67a131806fd551feef57ef3acf7c9a2e4d64ddf67679c964736f6c63430008150033"
}