{
  "address": "0xDf79EE3Ab9ae7631A9b109D7345136274119fc72",
  "abi": [
    {
      "inputs": [
        {
          "internalType": "string",
          "name": "infoName_",
          "type": "string"
        },
        {
          "internalType": "uint8",
          "name": "targetDecimals_",
          "type": "uint8"
        },
        {
          "internalType": "uint8",
          "name": "colTokenDecimals_",
          "type": "uint8"
        },
        {
          "internalType": "uint8",
          "name": "debtTokenDecimals_",
          "type": "uint8"
        },
        {
          "internalType": "contract IERC4626",
          "name": "erc4626Feed_",
          "type": "address"
        },
        {
          "internalType": "address",
          "name": "sequencerUptimeFeed_",
          "type": "address"
        }
      ],
      "stateMutability": "nonpayable",
      "type": "constructor"
    },
    {
      "inputs": [
        {
          "internalType": "uint256",
          "name": "errorId_",
          "type": "uint256"
        }
      ],
      "name": "FluidOracleError",
      "type": "error"
    },
    {
      "inputs": [],
      "name": "getExchangeRate",
      "outputs": [
        {
          "internalType": "uint256",
          "name": "exchangeRate_",
          "type": "uint256"
        }
      ],
      "stateMutability": "view",
      "type": "function"
    },
    {
      "inputs": [],
      "name": "getExchangeRateLiquidate",
      "outputs": [
        {
          "internalType": "uint256",
          "name": "exchangeRate_",
          "type": "uint256"
        }
      ],
      "stateMutability": "view",
      "type": "function"
    },
    {
      "inputs": [],
      "name": "getExchangeRateOperate",
      "outputs": [
        {
          "internalType": "uint256",
          "name": "exchangeRate_",
          "type": "uint256"
        }
      ],
      "stateMutability": "view",
      "type": "function"
    },
    {
      "inputs": [],
      "name": "infoName",
      "outputs": [
        {
          "internalType": "string",
          "name": "",
          "type": "string"
        }
      ],
      "stateMutability": "view",
      "type": "function"
    },
    {
      "inputs": [],
      "name": "pegOracleData",
      "outputs": [
        {
          "internalType": "uint256",
          "name": "pegExchangeRate_",
          "type": "uint256"
        },
        {
          "internalType": "contract IERC4626",
          "name": "erc4626Feed_",
          "type": "address"
        },
        {
          "internalType": "uint256",
          "name": "colTokenDecimals_",
          "type": "uint256"
        },
        {
          "internalType": "uint256",
          "name": "debtTokenDecimals_",
          "type": "uint256"
        }
      ],
      "stateMutability": "view",
      "type": "function"
    },
    {
      "inputs": [],
      "name": "sequencerL2Data",
      "outputs": [
        {
          "internalType": "address",
          "name": "sequencerUptimeFeed_",
          "type": "address"
        },
        {
          "internalType": "uint256",
          "name": "maxGracePeriod_",
          "type": "uint256"
        },
        {
          "internalType": "bool",
          "name": "isSequencerUp_",
          "type": "bool"
        },
        {
          "internalType": "uint256",
          "name": "lastUptimeStartedAt_",
          "type": "uint256"
        },
        {
          "internalType": "uint256",
          "name": "gracePeriod_",
          "type": "uint256"
        },
        {
          "internalType": "bool",
          "name": "gracePeriodPassed_",
          "type": "bool"
        },
        {
          "internalType": "uint256",
          "name": "lastOutageStartedAt_",
          "type": "uint256"
        },
        {
          "internalType": "bool",
          "name": "isSequencerUpAndValid_",
          "type": "bool"
        }
      ],
      "stateMutability": "view",
      "type": "function"
    },
    {
      "inputs": [],
      "name": "targetDecimals",
      "outputs": [
        {
          "internalType": "uint8",
          "name": "",
          "type": "uint8"
        }
      ],
      "stateMutability": "view",
      "type": "function"
    }
  ],
  "transactionHash": "0x66321216115eda8f5efe33b458fbd35dd92b0d52fe39fdba3e1eb51a518b27f0",
  "args": [
    [
      "Token6 per 1 Token18",
      15,
      18,
      6,
      "0x0000000000000000000000000000000000000000",
      "0xFdB631F5EE196F0ed6FAa767959853A9F217697D"
    ]
  ],
  "numDeployments": 1,
  "linkedData": {
    "nonce": "42"
  },
  "bytecode": "0x6101606040523480156200001257600080fd5b5060405162001152380380620011528339810160408190526200003591620001ef565b858585858582828287878a806001600160a01b03166080816001600160a01b031681525050506020825111806200006b57508151155b15620000935760405163c82fc46560e01b815261ea6a60048201526024015b60405180910390fd5b600f8160ff161080620000a9575060278160ff16115b15620000cd5760405163c82fc46560e01b815261ebf160048201526024016200008a565b60ff90811660c0526020919091015160a05260069084161080620000f4575060068260ff16105b8062000103575060128360ff16115b8062000112575060128260ff16115b15620001365760405163c82fc46560e01b815261ebd360048201526024016200008a565b6001600160a01b0381166101005260ff80841661012081905290831661014081905260009162000167919062000336565b90508062000178600f601b62000360565b62000184919062000336565b6200019190600a62000479565b60e052506200048e9d5050505050505050505050505050565b634e487b7160e01b600052604160045260246000fd5b805160ff81168114620001d257600080fd5b919050565b80516001600160a01b0381168114620001d257600080fd5b60008060008060008060c087890312156200020957600080fd5b86516001600160401b03808211156200022157600080fd5b818901915089601f8301126200023657600080fd5b8151818111156200024b576200024b620001aa565b604051601f8201601f19908116603f01168101908382118183101715620002765762000276620001aa565b81604052828152602093508c848487010111156200029357600080fd5b600091505b82821015620002b7578482018401518183018501529083019062000298565b6000848483010152809a50505050620002d2818a01620001c0565b96505050620002e460408801620001c0565b9350620002f460608801620001c0565b92506200030460808801620001d7565b91506200031460a08801620001d7565b90509295509295509295565b634e487b7160e01b600052601160045260246000fd5b818103600083128015838313168383128216171562000359576200035962000320565b5092915050565b8181038181111562000376576200037662000320565b92915050565b600181815b80851115620003bd578160001904821115620003a157620003a162000320565b80851615620003af57918102915b93841c939080029062000381565b509250929050565b600082620003d65750600162000376565b81620003e55750600062000376565b8160018114620003fe5760028114620004095762000429565b600191505062000376565b60ff8411156200041d576200041d62000320565b50506001821b62000376565b5060208310610133831016604e8410600b84101617156200044e575081810a62000376565b6200045a83836200037c565b806000190482111562000471576200047162000320565b029392505050565b6000620004878383620003c5565b9392505050565b60805160a05160c05160e051610100516101205161014051610c396200051960003960006103630152600061033e0152600081816103190152818161058401526105f30152600061067b0152600060890152600081816101b5015261027a0152600081816103cc0152818161047a015281816106ab0152818161078301526108f20152610c396000f3fe608060405234801561001057600080fd5b506004361061007d5760003560e01c8063ba66a1471161005b578063ba66a147146100e3578063dc45951214610120578063e6aa216c14610184578063f3190c89146100b857600080fd5b806336c1387e146100825780638e7bfbc0146100b8578063abd5f95d146100ce575b600080fd5b60405160ff7f00000000000000000000000000000000000000000000000000000000000000001681526020015b60405180910390f35b6100c061018c565b6040519081526020016100af565b6100d66101a3565b6040516100af91906109d4565b6100eb610308565b6040805194855273ffffffffffffffffffffffffffffffffffffffff90931660208501529183015260608201526080016100af565b610128610389565b6040805173ffffffffffffffffffffffffffffffffffffffff909916895260208901979097529415159587019590955260608601929092526080850152151560a084015260c0830191909152151560e0820152610100016100af565b6100c06104c6565b60006101966104d0565b61019e610574565b905090565b606060005b60208110801561020e57507f000000000000000000000000000000000000000000000000000000000000000081602081106101e5576101e5610a40565b1a60f81b7fff000000000000000000000000000000000000000000000000000000000000001615155b15610225578061021d81610a9e565b9150506101a8565b60008167ffffffffffffffff81111561024057610240610ad6565b6040519080825280601f01601f19166020018201604052801561026a576020820181803683370190505b50905060005b82811015610301577f000000000000000000000000000000000000000000000000000000000000000081602081106102aa576102aa610a40565b1a60f81b8282815181106102c0576102c0610a40565b60200101907effffffffffffffffffffffffffffffffffffffffffffffffffffffffffffff1916908160001a905350806102f981610a9e565b915050610270565b5092915050565b60008060008061031661057a565b947f0000000000000000000000000000000000000000000000000000000000000000945060ff7f0000000000000000000000000000000000000000000000000000000000000000811694507f00000000000000000000000000000000000000000000000000000000000000001692509050565b600080600080600080600080600061039f6106a0565b919850909650905086156103c3576103b7818761086b565b91965094509250610478565b610a8c945060007f000000000000000000000000000000000000000000000000000000000000000073ffffffffffffffffffffffffffffffffffffffff1663feaf968c6040518163ffffffff1660e01b815260040160a060405180830381865afa158015610435573d6000803e3d6000fd5b505050506040513d601f19601f820116820180604052508101906104599190610b24565b50505050905061047481600161046f9190610b74565b6108d5565b9350505b7f0000000000000000000000000000000000000000000000000000000000000000610a8c88888888888d80156104ab57508a5b98509850985098509850985098509850509091929394959697565b600061019e61018c565b60008060006104dd6106a0565b92509250925082610523576040517fc82fc46500000000000000000000000000000000000000000000000000000000815261ea6060048201526024015b60405180910390fd5b600061052f838361086b565b509150508061056e576040517fc82fc46500000000000000000000000000000000000000000000000000000000815261ea60600482015260240161051a565b50505050565b600061019e5b66038d7ea4c680007f000000000000000000000000000000000000000000000000000000000000000073ffffffffffffffffffffffffffffffffffffffff1615610676576040517f07a2d13a00000000000000000000000000000000000000000000000000000000815266038d7ea4c6800060048201527f000000000000000000000000000000000000000000000000000000000000000073ffffffffffffffffffffffffffffffffffffffff16906307a2d13a90602401602060405180830381865afa15801561064f573d6000803e3d6000fd5b505050506040513d601f19601f820116820180604052508101906106739190610b97565b90505b61019e7f000000000000000000000000000000000000000000000000000000000000000082610bb0565b6000806000806000807f000000000000000000000000000000000000000000000000000000000000000073ffffffffffffffffffffffffffffffffffffffff1663feaf968c6040518163ffffffff1660e01b815260040160a060405180830381865afa158015610714573d6000803e3d6000fd5b505050506040513d601f19601f820116820180604052508101906107389190610b24565b505092509250925081600014610758575060009586955085945092505050565b600195508294508093506000841115610863575b73ffffffffffffffffffffffffffffffffffffffff7f000000000000000000000000000000000000000000000000000000000000000016639a6fc8f56107b3600186610bcd565b6040517fffffffff0000000000000000000000000000000000000000000000000000000060e084901b16815269ffffffffffffffffffff909116600482015260240160a060405180830381865afa158015610812573d6000803e3d6000fd5b505050506040513d601f19601f820116820180604052508101906108369190610b24565b509295509093509150506000829003610850578294508093505b8115801561085e5750600081115b61076c575b505050909192565b600080808061087a8542610bf0565b905084158061088a5750610a8c81115b156108a257610a8c60016000935093509350506108ce565b6108ab866108d5565b91506108b78286610bf0565b9350610a8c8411156108c957610a8c93505b831091505b9250925092565b60008181805b73ffffffffffffffffffffffffffffffffffffffff7f000000000000000000000000000000000000000000000000000000000000000016639a6fc8f5610922600186610bcd565b6040517fffffffff0000000000000000000000000000000000000000000000000000000060e084901b16815269ffffffffffffffffffff909116600482015260240160a060405180830381865afa158015610981573d6000803e3d6000fd5b505050506040513d601f19601f820116820180604052508101906109a59190610b24565b5092955090935091505081156109b9578093505b81158015906109c85750600081115b6108db57505050919050565b600060208083528351808285015260005b81811015610a01578581018301518582016040015282016109e5565b5060006040828601015260407fffffffffffffffffffffffffffffffffffffffffffffffffffffffffffffffe0601f8301168501019250505092915050565b7f4e487b7100000000000000000000000000000000000000000000000000000000600052603260045260246000fd5b7f4e487b7100000000000000000000000000000000000000000000000000000000600052601160045260246000fd5b60007fffffffffffffffffffffffffffffffffffffffffffffffffffffffffffffffff8203610acf57610acf610a6f565b5060010190565b7f4e487b7100000000000000000000000000000000000000000000000000000000600052604160045260246000fd5b805169ffffffffffffffffffff81168114610b1f57600080fd5b919050565b600080600080600060a08688031215610b3c57600080fd5b610b4586610b05565b9450602086015193506040860151925060608601519150610b6860808701610b05565b90509295509295909350565b69ffffffffffffffffffff81811683821601908082111561030157610301610a6f565b600060208284031215610ba957600080fd5b5051919050565b8082028115828204841417610bc757610bc7610a6f565b92915050565b69ffffffffffffffffffff82811682821603908082111561030157610301610a6f565b81810381811115610bc757610bc7610a6f56fea26469706673582212204b2da44b11262c6dd36e47ab11fac1be9f1a50b3bcd3bbfadd412970c8105d3e64736f6c63430008150033"
}