{
  "address": "0x9024ac8cc0bB3F6997a533Ce1Cea5046bF88558a",
  "abi": [
    {
      "inputs": [
        {
          "internalType": "string",
          "name": "infoName_",
          "type": "string"
        },
        {
          "internalType": "uint8",
          "name": "targetDecimals_",
          "type": "uint8"
        },
        {
          "internalType": "uint8",
          "name": "colTokenDecimals_",
          "type": "uint8"
        },
        {
          "internalType": "uint8",
          "name": "debtTokenDecimals_",
          "type": "uint8"
        },
        {
          "internalType": "contract IERC4626",
          "name": "erc4626Feed_",
          "type": "address"
        }
      ],
      "stateMutability": "nonpayable",
      "type": "constructor"
    },
    {
      "inputs": [
        {
          "internalType": "uint256",
          "name": "errorId_",
          "type": "uint256"
        }
      ],
      "name": "FluidOracleError",
      "type": "error"
    },
    {
      "inputs": [],
      "name": "getExchangeRate",
      "outputs": [
        {
          "internalType": "uint256",
          "name": "exchangeRate_",
          "type": "uint256"
        }
      ],
      "stateMutability": "view",
      "type": "function"
    },
    {
      "inputs": [],
      "name": "getExchangeRateLiquidate",
      "outputs": [
        {
          "internalType": "uint256",
          "name": "exchangeRate_",
          "type": "uint256"
        }
      ],
      "stateMutability": "view",
      "type": "function"
    },
    {
      "inputs": [],
      "name": "getExchangeRateOperate",
      "outputs": [
        {
          "internalType": "uint256",
          "name": "exchangeRate_",
          "type": "uint256"
        }
      ],
      "stateMutability": "view",
      "type": "function"
    },
    {
      "inputs": [],
      "name": "infoName",
      "outputs": [
        {
          "internalType": "string",
          "name": "",
          "type": "string"
        }
      ],
      "stateMutability": "view",
      "type": "function"
    },
    {
      "inputs": [],
      "name": "pegOracleData",
      "outputs": [
        {
          "internalType": "uint256",
          "name": "pegExchangeRate_",
          "type": "uint256"
        },
        {
          "internalType": "contract IERC4626",
          "name": "erc4626Feed_",
          "type": "address"
        },
        {
          "internalType": "uint256",
          "name": "colTokenDecimals_",
          "type": "uint256"
        },
        {
          "internalType": "uint256",
          "name": "debtTokenDecimals_",
          "type": "uint256"
        }
      ],
      "stateMutability": "view",
      "type": "function"
    },
    {
      "inputs": [],
      "name": "targetDecimals",
      "outputs": [
        {
          "internalType": "uint8",
          "name": "",
          "type": "uint8"
        }
      ],
      "stateMutability": "view",
      "type": "function"
    }
  ],
  "transactionHash": "0x7cbb9d869c08795eab805c7f119611c7a91c56337f60b1fb2052136734bb1667",
  "args": [
    [
      "Token6 per 1 Token18",
      15,
      18,
      6,
      "0x0000000000000000000000000000000000000000"
    ]
  ],
  "numDeployments": 1,
  "linkedData": {
    "nonce": "13"
  },
  "bytecode": "0x6101406040523480156200001257600080fd5b5060405162000a8638038062000a868339810160408190526200003591620001c7565b82828287876020825111806200004a57508151155b15620000725760405163c82fc46560e01b815261ea6a60048201526024015b60405180910390fd5b600f8160ff16108062000088575060278160ff16115b15620000ac5760405163c82fc46560e01b815261ebf1600482015260240162000069565b60ff90811660a0526020919091015160805260069084161080620000d3575060068260ff16105b80620000e2575060128360ff16115b80620000f1575060128260ff16115b15620001155760405163c82fc46560e01b815261ebd3600482015260240162000069565b6001600160a01b03811660e05260ff808416610100819052908316610120819052600091620001459190620002fd565b90508062000156600f601b62000327565b620001629190620002fd565b6200016f90600a62000440565b60c0525062000455975050505050505050565b634e487b7160e01b600052604160045260246000fd5b805160ff81168114620001aa57600080fd5b919050565b80516001600160a01b0381168114620001aa57600080fd5b600080600080600060a08688031215620001e057600080fd5b85516001600160401b0380821115620001f857600080fd5b818801915088601f8301126200020d57600080fd5b81518181111562000222576200022262000182565b604051601f8201601f19908116603f011681019083821181831017156200024d576200024d62000182565b81604052828152602093508b848487010111156200026a57600080fd5b600091505b828210156200028e57848201840151818301850152908301906200026f565b6000848483010152809950505050620002a981890162000198565b95505050620002bb6040870162000198565b9250620002cb6060870162000198565b9150620002db60808701620001af565b90509295509295909350565b634e487b7160e01b600052601160045260246000fd5b8181036000831280158383131683831282161715620003205762000320620002e7565b5092915050565b818103818111156200033d576200033d620002e7565b92915050565b600181815b8085111562000384578160001904821115620003685762000368620002e7565b808516156200037657918102915b93841c939080029062000348565b509250929050565b6000826200039d575060016200033d565b81620003ac575060006200033d565b8160018114620003c55760028114620003d057620003f0565b60019150506200033d565b60ff841115620003e457620003e4620002e7565b50506001821b6200033d565b5060208310610133831016604e8410600b841016171562000415575081810a6200033d565b62000421838362000343565b8060001904821115620004385762000438620002e7565b029392505050565b60006200044e83836200038c565b9392505050565b60805160a05160c05160e05161010051610120516105cd620004b960003960006102e4015260006102bf01526000818161029a0152818161031401526103830152600061040b01526000607e01526000818161013601526101fb01526105cd6000f3fe608060405234801561001057600080fd5b50600436106100725760003560e01c8063ba66a14711610050578063ba66a147146100d8578063e6aa216c146100ad578063f3190c89146100ad57600080fd5b806336c1387e146100775780638e7bfbc0146100ad578063abd5f95d146100c3575b600080fd5b60405160ff7f00000000000000000000000000000000000000000000000000000000000000001681526020015b60405180910390f35b6100b5610115565b6040519081526020016100a4565b6100cb610124565b6040516100a49190610430565b6100e0610289565b6040805194855273ffffffffffffffffffffffffffffffffffffffff90931660208501529183015260608201526080016100a4565b600061011f61030a565b905090565b606060005b60208110801561018f57507f000000000000000000000000000000000000000000000000000000000000000081602081106101665761016661049c565b1a60f81b7fff000000000000000000000000000000000000000000000000000000000000001615155b156101a6578061019e816104fa565b915050610129565b60008167ffffffffffffffff8111156101c1576101c1610532565b6040519080825280601f01601f1916602001820160405280156101eb576020820181803683370190505b50905060005b82811015610282577f0000000000000000000000000000000000000000000000000000000000000000816020811061022b5761022b61049c565b1a60f81b8282815181106102415761024161049c565b60200101907effffffffffffffffffffffffffffffffffffffffffffffffffffffffffffff1916908160001a9053508061027a816104fa565b9150506101f1565b5092915050565b60008060008061029761030a565b947f0000000000000000000000000000000000000000000000000000000000000000945060ff7f0000000000000000000000000000000000000000000000000000000000000000811694507f00000000000000000000000000000000000000000000000000000000000000001692509050565b66038d7ea4c680007f000000000000000000000000000000000000000000000000000000000000000073ffffffffffffffffffffffffffffffffffffffff1615610406576040517f07a2d13a00000000000000000000000000000000000000000000000000000000815266038d7ea4c6800060048201527f000000000000000000000000000000000000000000000000000000000000000073ffffffffffffffffffffffffffffffffffffffff16906307a2d13a90602401602060405180830381865afa1580156103df573d6000803e3d6000fd5b505050506040513d601f19601f820116820180604052508101906104039190610561565b90505b61011f7f00000000000000000000000000000000000000000000000000000000000000008261057a565b600060208083528351808285015260005b8181101561045d57858101830151858201604001528201610441565b5060006040828601015260407fffffffffffffffffffffffffffffffffffffffffffffffffffffffffffffffe0601f8301168501019250505092915050565b7f4e487b7100000000000000000000000000000000000000000000000000000000600052603260045260246000fd5b7f4e487b7100000000000000000000000000000000000000000000000000000000600052601160045260246000fd5b60007fffffffffffffffffffffffffffffffffffffffffffffffffffffffffffffffff820361052b5761052b6104cb565b5060010190565b7f4e487b7100000000000000000000000000000000000000000000000000000000600052604160045260246000fd5b60006020828403121561057357600080fd5b5051919050565b8082028115828204841417610591576105916104cb565b9291505056fea264697066735822122035455dbe4c32a2d9cda994c9a197296c1d6fbe3e2b64b262b3ea376d9f7d187564736f6c63430008150033"
}