{
  "address": "0x3A05f8f468538d1dFD8dFC0877400B1c8F674B7e",
  "abi": [
    {
      "inputs": [
        {
          "internalType": "contract IFluidReserveContract",
          "name": "reserveContract_",
          "type": "address"
        },
        {
          "internalType": "address",
          "name": "liquidity_",
          "type": "address"
        },
        {
          "internalType": "address",
          "name": "multisig_",
          "type": "address"
        }
      ],
      "stateMutability": "nonpayable",
      "type": "constructor"
    },
    {
      "inputs": [
        {
          "internalType": "uint256",
          "name": "errorId_",
          "type": "uint256"
        }
      ],
      "name": "FluidConfigError",
      "type": "error"
    },
    {
      "anonymous": false,
      "inputs": [
        {
          "indexed": false,
          "internalType": "address",
          "name": "user",
          "type": "address"
        },
        {
          "indexed": false,
          "internalType": "address",
          "name": "token",
          "type": "address"
        },
        {
          "indexed": false,
          "internalType": "uint256",
          "name": "newLimit",
          "type": "uint256"
        }
      ],
      "name": "LogRebalanceWithdrawalLimit",
      "type": "event"
    },
    {
      "anonymous": false,
      "inputs": [
        {
          "indexed": false,
          "internalType": "address",
          "name": "user",
          "type": "address"
        },
        {
          "indexed": false,
          "internalType": "address",
          "name": "token",
          "type": "address"
        },
        {
          "indexed": false,
          "internalType": "uint256",
          "name": "newLimit",
          "type": "uint256"
        }
      ],
      "name": "LogSetWithdrawalLimit",
      "type": "event"
    },
    {
      "inputs": [],
      "name": "LIQUIDITY",
      "outputs": [
        {
          "internalType": "contract IFluidLiquidity",
          "name": "",
          "type": "address"
        }
      ],
      "stateMutability": "view",
      "type": "function"
    },
    {
      "inputs": [],
      "name": "RESERVE_CONTRACT",
      "outputs": [
        {
          "internalType": "contract IFluidReserveContract",
          "name": "",
          "type": "address"
        }
      ],
      "stateMutability": "view",
      "type": "function"
    },
    {
      "inputs": [],
      "name": "TEAM_MULTISIG",
      "outputs": [
        {
          "internalType": "address",
          "name": "",
          "type": "address"
        }
      ],
      "stateMutability": "view",
      "type": "function"
    },
    {
      "inputs": [
        {
          "internalType": "address[]",
          "name": "users_",
          "type": "address[]"
        },
        {
          "internalType": "address[]",
          "name": "tokens_",
          "type": "address[]"
        }
      ],
      "name": "getUsersData",
      "outputs": [
        {
          "internalType": "uint256[]",
          "name": "initialUsersSupply_",
          "type": "uint256[]"
        },
        {
          "internalType": "uint256[]",
          "name": "initialWithdrawLimit_",
          "type": "uint256[]"
        }
      ],
      "stateMutability": "view",
      "type": "function"
    },
    {
      "inputs": [
        {
          "internalType": "address",
          "name": "user_",
          "type": "address"
        },
        {
          "internalType": "address",
          "name": "token_",
          "type": "address"
        },
        {
          "internalType": "uint256",
          "name": "newLimit_",
          "type": "uint256"
        }
      ],
      "name": "rebalanceWithdrawalLimit",
      "outputs": [],
      "stateMutability": "nonpayable",
      "type": "function"
    },
    {
      "inputs": [
        {
          "internalType": "address",
          "name": "user_",
          "type": "address"
        },
        {
          "internalType": "address",
          "name": "token_",
          "type": "address"
        },
        {
          "internalType": "uint256",
          "name": "newLimit_",
          "type": "uint256"
        }
      ],
      "name": "setWithdrawalLimit",
      "outputs": [],
      "stateMutability": "nonpayable",
      "type": "function"
    },
    {
      "inputs": [
        {
          "internalType": "address",
          "name": "",
          "type": "address"
        },
        {
          "internalType": "address",
          "name": "",
          "type": "address"
        }
      ],
      "name": "userData",
      "outputs": [
        {
          "internalType": "uint40",
          "name": "initialDailyTimestamp",
          "type": "uint40"
        },
        {
          "internalType": "uint40",
          "name": "initialHourlyTimestamp",
          "type": "uint40"
        },
        {
          "internalType": "uint8",
          "name": "rebalancesIn1Hour",
          "type": "uint8"
        },
        {
          "internalType": "uint8",
          "name": "rebalancesIn24Hours",
          "type": "uint8"
        },
        {
          "internalType": "uint160",
          "name": "leastDailyUserSupply",
          "type": "uint160"
        }
      ],
      "stateMutability": "view",
      "type": "function"
    }
  ],
  "transactionHash": "0xe923ec9b7a257ce2caa56b4d89ec11e901716121d7e3aefc0630df6c5d1e2272",
  "args": [
    "0x264786EF916af64a1DB19F513F24a3681734ce92",
    "0x52Aa899454998Be5b000Ad077a46Bbe360F4e497",
    "0x4F6F977aCDD1177DCD81aB83074855EcB9C2D49e"
  ],
  "numDeployments": 1,
  "solcInputHash": "98b16aabfb0901b7e1bdfdd419cfac66",
  "bytecode": "0x60e06040523480156200001157600080fd5b50604051620013b4380380620013b48339810160408190526200003491620000ff565b826001600160a01b0381166200006757604051636801712d60e11b8152620186e960048201526024015b60405180910390fd5b826001600160a01b0381166200009657604051636801712d60e11b8152620186e960048201526024016200005e565b826001600160a01b038116620000c557604051636801712d60e11b8152620186e960048201526024016200005e565b5050506001600160a01b0392831660a05290821660c0521660805262000153565b6001600160a01b0381168114620000fc57600080fd5b50565b6000806000606084860312156200011557600080fd5b83516200012281620000e6565b60208501519093506200013581620000e6565b60408501519092506200014881620000e6565b809150509250925092565b60805160a05160c051611208620001ac60003960008181608701528181610327015281816105c0015281816107fe0152610cd201526000818161012101526106a8015260008181610221015261051001526112086000f3fe608060405234801561001057600080fd5b506004361061007d5760003560e01c80634d6ccf2c1161005b5780634d6ccf2c146101095780636449b8d71461011c578063768e5b2714610143578063b788f3a11461021c57600080fd5b80632861c7d1146100825780632f5e9baa146100d357806335b0b502146100f4575b600080fd5b6100a97f000000000000000000000000000000000000000000000000000000000000000081565b60405173ffffffffffffffffffffffffffffffffffffffff90911681526020015b60405180910390f35b6100e66100e1366004610f40565b610243565b6040516100ca929190610fdf565b61010761010236600461100d565b6104f8565b005b61010761011736600461100d565b61067a565b6100a97f000000000000000000000000000000000000000000000000000000000000000081565b6101cf610151366004611049565b600060208181529281526040808220909352908152205464ffffffffff808216916501000000000081049091169060ff6a010000000000000000000082048116916b01000000000000000000000081049091169073ffffffffffffffffffffffffffffffffffffffff6c010000000000000000000000009091041685565b6040805164ffffffffff968716815295909416602086015260ff9283169385019390935216606083015273ffffffffffffffffffffffffffffffffffffffff16608082015260a0016100ca565b6100a97f000000000000000000000000000000000000000000000000000000000000000081565b606080825184511461028b576040517fd002e25a000000000000000000000000000000000000000000000000000000008152620186e960048201526024015b60405180910390fd5b835167ffffffffffffffff8111156102a5576102a5610e28565b6040519080825280602002602001820160405280156102ce578160200160208202803683370190505b509150835167ffffffffffffffff8111156102eb576102eb610e28565b604051908082528060200260200182016040528015610314578160200160208202803683370190505b50905060005b83518110156104f05760007f000000000000000000000000000000000000000000000000000000000000000073ffffffffffffffffffffffffffffffffffffffff1663b5c736e461040760088986815181106103785761037861107c565b60200260200101518987815181106103925761039261107c565b60200260200101516040805173ffffffffffffffffffffffffffffffffffffffff9384166020808301919091528183019590955281518082038301815260608201835280519086012092909316608084015260a0808401929092528051808403909201825260c0909201909152805191012090565b6040518263ffffffff1660e01b815260040161042591815260200190565b602060405180830381865afa158015610442573d6000803e3d6000fd5b505050506040513d601f19601f8201168201806040525081019061046691906110ab565b905066ffffffffffffff600982901c1660ff600183901c161b8483815181106104915761049161107c565b6020026020010181815250506104c0818584815181106104b3576104b361107c565b6020026020010151610d93565b8383815181106104d2576104d261107c565b602090810291909101015250806104e8816110f3565b91505061031a565b509250929050565b3373ffffffffffffffffffffffffffffffffffffffff7f0000000000000000000000000000000000000000000000000000000000000000161461056c576040517fd002e25a000000000000000000000000000000000000000000000000000000008152620186e86004820152602401610282565b6040517f8f0c291600000000000000000000000000000000000000000000000000000000815273ffffffffffffffffffffffffffffffffffffffff84811660048301528381166024830152604482018390527f00000000000000000000000000000000000000000000000000000000000000001690638f0c291690606401600060405180830381600087803b15801561060457600080fd5b505af1158015610618573d6000803e3d6000fd5b50506040805173ffffffffffffffffffffffffffffffffffffffff8088168252861660208201529081018490527f627d8790671c69ca7f016ebefbb435d3078c4b06334dc1869b1f9747cc1966689250606001905060405180910390a1505050565b6040517f467c9eff0000000000000000000000000000000000000000000000000000000081523360048201527f000000000000000000000000000000000000000000000000000000000000000073ffffffffffffffffffffffffffffffffffffffff169063467c9eff906024016020604051808303816000875af1158015610706573d6000803e3d6000fd5b505050506040513d601f19601f8201168201806040525081019061072a919061112b565b610765576040517fd002e25a000000000000000000000000000000000000000000000000000000008152620186e86004820152602401610282565b6040805173ffffffffffffffffffffffffffffffffffffffff858116602080840191909152600883850152835180840385018152606084018552805190820120868316608085015260a0808501919091528451808503909101815260c084019485905280519101207fb5c736e40000000000000000000000000000000000000000000000000000000090935260c48201929092526000917f0000000000000000000000000000000000000000000000000000000000000000169063b5c736e49060e401602060405180830381865afa158015610845573d6000803e3d6000fd5b505050506040513d601f19601f8201168201806040525081019061086991906110ab565b9050600981901c66ffffffffffffff16600182901c60ff161b600061088e8383610d93565b9050816000036108cf576040517fd002e25a000000000000000000000000000000000000000000000000000000008152620186e76004820152602401610282565b600060646108de600582611154565b6108e89084611167565b6108f2919061117e565b905080851015610933576040517fd002e25a000000000000000000000000000000000000000000000000000000008152620186ec6004820152602401610282565b73ffffffffffffffffffffffffffffffffffffffff8088166000908152602081815260408083208a85168452825291829020825160a081018452905464ffffffffff8082168084526501000000000083049091169383019390935260ff6a010000000000000000000082048116948301949094526b010000000000000000000000810490931660608201526c0100000000000000000000000090920490921660808201529062015180906109e79042611154565b1115610a28576fffffffffffffffffffffffffffffffff86166080820152600160608201819052604082015264ffffffffff42168082526020820152610b76565b806080015173ffffffffffffffffffffffffffffffffffffffff16861015610b7657806060015160ff16600403610a90576040517fd002e25a000000000000000000000000000000000000000000000000000000008152620186ea6004820152602401610282565b610e10816020015164ffffffffff1642610aaa9190611154565b1115610ae257600160408201819052606082018051610aca9083906111b9565b60ff1690525064ffffffffff42166020820152610b5d565b806040015160ff16600203610b28576040517fd002e25a000000000000000000000000000000000000000000000000000000008152620186eb6004820152602401610282565b600181604001818151610b3b91906111b9565b60ff1690525060608101805160019190610b569083906111b9565b60ff169052505b6fffffffffffffffffffffffffffffffff861660808201525b73ffffffffffffffffffffffffffffffffffffffff8881166000818152602081815260408083208c86168085529083529281902086518154938801518884015160608a015160808b015164ffffffffff9485167fffffffffffffffffffffffffffffffffffffffffffff0000000000000000000090981697909717650100000000009490931693909302919091177fffffffffffffffffffffffffffffffffffffffff0000ffffffffffffffffffff166a010000000000000000000060ff928316027fffffffffffffffffffffffffffffffffffffffff00ffffffffffffffffffffff16176b0100000000000000000000009190921602176bffffffffffffffffffffffff166c010000000000000000000000009387169390930292909217909155517f8f0c291600000000000000000000000000000000000000000000000000000000815260048101929092526024820152604481018890527f000000000000000000000000000000000000000000000000000000000000000090911690638f0c291690606401600060405180830381600087803b158015610d1857600080fd5b505af1158015610d2c573d6000803e3d6000fd5b50506040805173ffffffffffffffffffffffffffffffffffffffff808d1682528b1660208201529081018990527f5b106a5ad98a3fe93cd5a08693a3344f2cec3af1f793a03e133d4bd9f5fecf919250606001905060405180910390a15050505050505050565b600066ffffffffffffff604984901c1660ff604185901c161b808203610dbd576000915050610e22565b612710613fff60a286901c168402046401ffffffff608186901c16420362ffffff60b087901c16610dee8284611167565b610df8919061117e565b9050808311610e08576000610e0c565b8083035b93505080840383811115610e1e578093505b5050505b92915050565b7f4e487b7100000000000000000000000000000000000000000000000000000000600052604160045260246000fd5b803573ffffffffffffffffffffffffffffffffffffffff81168114610e7b57600080fd5b919050565b600082601f830112610e9157600080fd5b8135602067ffffffffffffffff80831115610eae57610eae610e28565b8260051b6040517fffffffffffffffffffffffffffffffffffffffffffffffffffffffffffffffe0603f83011681018181108482111715610ef157610ef1610e28565b604052938452858101830193838101925087851115610f0f57600080fd5b83870191505b84821015610f3557610f2682610e57565b83529183019190830190610f15565b979650505050505050565b60008060408385031215610f5357600080fd5b823567ffffffffffffffff80821115610f6b57600080fd5b610f7786838701610e80565b93506020850135915080821115610f8d57600080fd5b50610f9a85828601610e80565b9150509250929050565b600081518084526020808501945080840160005b83811015610fd457815187529582019590820190600101610fb8565b509495945050505050565b604081526000610ff26040830185610fa4565b82810360208401526110048185610fa4565b95945050505050565b60008060006060848603121561102257600080fd5b61102b84610e57565b925061103960208501610e57565b9150604084013590509250925092565b6000806040838503121561105c57600080fd5b61106583610e57565b915061107360208401610e57565b90509250929050565b7f4e487b7100000000000000000000000000000000000000000000000000000000600052603260045260246000fd5b6000602082840312156110bd57600080fd5b5051919050565b7f4e487b7100000000000000000000000000000000000000000000000000000000600052601160045260246000fd5b60007fffffffffffffffffffffffffffffffffffffffffffffffffffffffffffffffff8203611124576111246110c4565b5060010190565b60006020828403121561113d57600080fd5b8151801515811461114d57600080fd5b9392505050565b81810381811115610e2257610e226110c4565b8082028115828204841417610e2257610e226110c4565b6000826111b4577f4e487b7100000000000000000000000000000000000000000000000000000000600052601260045260246000fd5b500490565b60ff8181168382160190811115610e2257610e226110c456fea2646970667358221220d15c76d79e7c7ebad0a5e632a500b776596e24ad3cc78bcacad84527d8935c6f64736f6c63430008150033",
  "devdoc": {
    "kind": "dev",
    "methods": {
      "rebalanceWithdrawalLimit(address,address,uint256)": {
        "details": "This function can only be called by the rebalancer",
        "params": {
          "newLimit_": "The new withdrawal limit to be set",
          "token_": "The address of the token for which to set the withdrawal limit",
          "user_": "The address of the user for which to set the withdrawal limit"
        }
      },
      "setWithdrawalLimit(address,address,uint256)": {
        "details": "This function can only be called by team multisig",
        "params": {
          "newLimit_": "The new withdrawal limit to be set",
          "token_": "The address of the token for which to set the withdrawal limit",
          "user_": "The address of the user for which to set the withdrawal limit"
        }
      }
    },
    "version": 1
  },
  "userdoc": {
    "events": {
      "LogRebalanceWithdrawalLimit(address,address,uint256)": {
        "notice": "emitted when rebalancer successfully changes the withdrawal limit"
      },
      "LogSetWithdrawalLimit(address,address,uint256)": {
        "notice": "emitted when multisig successfully changes the withdrawal limit"
      }
    },
    "kind": "user",
    "methods": {
      "rebalanceWithdrawalLimit(address,address,uint256)": {
        "notice": "updates the withdrawal limit for a specific token of a user in the liquidity"
      },
      "setWithdrawalLimit(address,address,uint256)": {
        "notice": "Sets the withdrawal limit for a specific token of a user in the liquidity"
      }
    },
    "version": 1
  },
  "storageLayout": {
    "storage": [
      {
        "astId": 16346,
        "contract": "contracts/config/withdrawLimitAuth/main.sol:FluidWithdrawLimitAuth",
        "label": "userData",
        "offset": 0,
        "slot": "0",
        "type": "t_mapping(t_address,t_mapping(t_address,t_struct(UserSupplyHistory)16294_storage))"
      }
    ],
    "types": {
      "t_address": {
        "encoding": "inplace",
        "label": "address",
        "numberOfBytes": "20"
      },
      "t_mapping(t_address,t_mapping(t_address,t_struct(UserSupplyHistory)16294_storage))": {
        "encoding": "mapping",
        "key": "t_address",
        "label": "mapping(address => mapping(address => struct Structs.UserSupplyHistory))",
        "numberOfBytes": "32",
        "value": "t_mapping(t_address,t_struct(UserSupplyHistory)16294_storage)"
      },
      "t_mapping(t_address,t_struct(UserSupplyHistory)16294_storage)": {
        "encoding": "mapping",
        "key": "t_address",
        "label": "mapping(address => struct Structs.UserSupplyHistory)",
        "numberOfBytes": "32",
        "value": "t_struct(UserSupplyHistory)16294_storage"
      },
      "t_struct(UserSupplyHistory)16294_storage": {
        "encoding": "inplace",
        "label": "struct Structs.UserSupplyHistory",
        "members": [
          {
            "astId": 16285,
            "contract": "contracts/config/withdrawLimitAuth/main.sol:FluidWithdrawLimitAuth",
            "label": "initialDailyTimestamp",
            "offset": 0,
            "slot": "0",
            "type": "t_uint40"
          },
          {
            "astId": 16287,
            "contract": "contracts/config/withdrawLimitAuth/main.sol:FluidWithdrawLimitAuth",
            "label": "initialHourlyTimestamp",
            "offset": 5,
            "slot": "0",
            "type": "t_uint40"
          },
          {
            "astId": 16289,
            "contract": "contracts/config/withdrawLimitAuth/main.sol:FluidWithdrawLimitAuth",
            "label": "rebalancesIn1Hour",
            "offset": 10,
            "slot": "0",
            "type": "t_uint8"
          },
          {
            "astId": 16291,
            "contract": "contracts/config/withdrawLimitAuth/main.sol:FluidWithdrawLimitAuth",
            "label": "rebalancesIn24Hours",
            "offset": 11,
            "slot": "0",
            "type": "t_uint8"
          },
          {
            "astId": 16293,
            "contract": "contracts/config/withdrawLimitAuth/main.sol:FluidWithdrawLimitAuth",
            "label": "leastDailyUserSupply",
            "offset": 12,
            "slot": "0",
            "type": "t_uint160"
          }
        ],
        "numberOfBytes": "32"
      },
      "t_uint160": {
        "encoding": "inplace",
        "label": "uint160",
        "numberOfBytes": "20"
      },
      "t_uint40": {
        "encoding": "inplace",
        "label": "uint40",
        "numberOfBytes": "5"
      },
      "t_uint8": {
        "encoding": "inplace",
        "label": "uint8",
        "numberOfBytes": "1"
      }
    }
  }
}