{
  "address": "0x48eeDDF09565338B62126214c5a85E863C197e4D",
  "abi": [
    {
      "inputs": [
        {
          "internalType": "uint256",
          "name": "nativeTokenMaxBorrowLimitCap_",
          "type": "uint256"
        }
      ],
      "stateMutability": "nonpayable",
      "type": "constructor"
    },
    {
      "inputs": [
        {
          "internalType": "uint256",
          "name": "errorId_",
          "type": "uint256"
        }
      ],
      "name": "FluidLiquidityCalcsError",
      "type": "error"
    },
    {
      "inputs": [
        {
          "internalType": "uint256",
          "name": "errorId_",
          "type": "uint256"
        }
      ],
      "name": "FluidLiquidityError",
      "type": "error"
    },
    {
      "inputs": [
        {
          "internalType": "uint256",
          "name": "errorId_",
          "type": "uint256"
        }
      ],
      "name": "FluidSafeTransferError",
      "type": "error"
    },
    {
      "anonymous": false,
      "inputs": [],
      "name": "BorrowRateMaxCap",
      "type": "event"
    },
    {
      "anonymous": false,
      "inputs": [
        {
          "indexed": true,
          "internalType": "uint256",
          "name": "newStatus",
          "type": "uint256"
        }
      ],
      "name": "LogChangeStatus",
      "type": "event"
    },
    {
      "anonymous": false,
      "inputs": [
        {
          "indexed": true,
          "internalType": "address",
          "name": "token",
          "type": "address"
        },
        {
          "indexed": true,
          "internalType": "uint256",
          "name": "amount",
          "type": "uint256"
        }
      ],
      "name": "LogCollectRevenue",
      "type": "event"
    },
    {
      "anonymous": false,
      "inputs": [
        {
          "indexed": false,
          "internalType": "address",
          "name": "user",
          "type": "address"
        },
        {
          "indexed": false,
          "internalType": "address[]",
          "name": "supplyTokens",
          "type": "address[]"
        },
        {
          "indexed": false,
          "internalType": "address[]",
          "name": "borrowTokens",
          "type": "address[]"
        }
      ],
      "name": "LogPauseUser",
      "type": "event"
    },
    {
      "anonymous": false,
      "inputs": [
        {
          "indexed": false,
          "internalType": "address",
          "name": "user",
          "type": "address"
        },
        {
          "indexed": false,
          "internalType": "address[]",
          "name": "supplyTokens",
          "type": "address[]"
        },
        {
          "indexed": false,
          "internalType": "address[]",
          "name": "borrowTokens",
          "type": "address[]"
        }
      ],
      "name": "LogUnpauseUser",
      "type": "event"
    },
    {
      "anonymous": false,
      "inputs": [
        {
          "components": [
            {
              "internalType": "address",
              "name": "addr",
              "type": "address"
            },
            {
              "internalType": "bool",
              "name": "value",
              "type": "bool"
            }
          ],
          "indexed": false,
          "internalType": "struct Structs.AddressBool[]",
          "name": "authsStatus",
          "type": "tuple[]"
        }
      ],
      "name": "LogUpdateAuths",
      "type": "event"
    },
    {
      "anonymous": false,
      "inputs": [
        {
          "indexed": true,
          "internalType": "address",
          "name": "token",
          "type": "address"
        },
        {
          "indexed": true,
          "internalType": "uint256",
          "name": "supplyExchangePrice",
          "type": "uint256"
        },
        {
          "indexed": true,
          "internalType": "uint256",
          "name": "borrowExchangePrice",
          "type": "uint256"
        },
        {
          "indexed": false,
          "internalType": "uint256",
          "name": "borrowRate",
          "type": "uint256"
        },
        {
          "indexed": false,
          "internalType": "uint256",
          "name": "utilization",
          "type": "uint256"
        }
      ],
      "name": "LogUpdateExchangePrices",
      "type": "event"
    },
    {
      "anonymous": false,
      "inputs": [
        {
          "components": [
            {
              "internalType": "address",
              "name": "addr",
              "type": "address"
            },
            {
              "internalType": "bool",
              "name": "value",
              "type": "bool"
            }
          ],
          "indexed": false,
          "internalType": "struct Structs.AddressBool[]",
          "name": "guardiansStatus",
          "type": "tuple[]"
        }
      ],
      "name": "LogUpdateGuardians",
      "type": "event"
    },
    {
      "anonymous": false,
      "inputs": [
        {
          "components": [
            {
              "internalType": "address",
              "name": "token",
              "type": "address"
            },
            {
              "internalType": "uint256",
              "name": "kink",
              "type": "uint256"
            },
            {
              "internalType": "uint256",
              "name": "rateAtUtilizationZero",
              "type": "uint256"
            },
            {
              "internalType": "uint256",
              "name": "rateAtUtilizationKink",
              "type": "uint256"
            },
            {
              "internalType": "uint256",
              "name": "rateAtUtilizationMax",
              "type": "uint256"
            }
          ],
          "indexed": false,
          "internalType": "struct Structs.RateDataV1Params[]",
          "name": "tokenRateDatas",
          "type": "tuple[]"
        }
      ],
      "name": "LogUpdateRateDataV1s",
      "type": "event"
    },
    {
      "anonymous": false,
      "inputs": [
        {
          "components": [
            {
              "internalType": "address",
              "name": "token",
              "type": "address"
            },
            {
              "internalType": "uint256",
              "name": "kink1",
              "type": "uint256"
            },
            {
              "internalType": "uint256",
              "name": "kink2",
              "type": "uint256"
            },
            {
              "internalType": "uint256",
              "name": "rateAtUtilizationZero",
              "type": "uint256"
            },
            {
              "internalType": "uint256",
              "name": "rateAtUtilizationKink1",
              "type": "uint256"
            },
            {
              "internalType": "uint256",
              "name": "rateAtUtilizationKink2",
              "type": "uint256"
            },
            {
              "internalType": "uint256",
              "name": "rateAtUtilizationMax",
              "type": "uint256"
            }
          ],
          "indexed": false,
          "internalType": "struct Structs.RateDataV2Params[]",
          "name": "tokenRateDatas",
          "type": "tuple[]"
        }
      ],
      "name": "LogUpdateRateDataV2s",
      "type": "event"
    },
    {
      "anonymous": false,
      "inputs": [
        {
          "indexed": true,
          "internalType": "address",
          "name": "revenueCollector",
          "type": "address"
        }
      ],
      "name": "LogUpdateRevenueCollector",
      "type": "event"
    },
    {
      "anonymous": false,
      "inputs": [
        {
          "components": [
            {
              "internalType": "address",
              "name": "token",
              "type": "address"
            },
            {
              "internalType": "uint256",
              "name": "fee",
              "type": "uint256"
            },
            {
              "internalType": "uint256",
              "name": "threshold",
              "type": "uint256"
            },
            {
              "internalType": "uint256",
              "name": "maxUtilization",
              "type": "uint256"
            }
          ],
          "indexed": false,
          "internalType": "struct Structs.TokenConfig[]",
          "name": "tokenConfigs",
          "type": "tuple[]"
        }
      ],
      "name": "LogUpdateTokenConfigs",
      "type": "event"
    },
    {
      "anonymous": false,
      "inputs": [
        {
          "components": [
            {
              "internalType": "address",
              "name": "user",
              "type": "address"
            },
            {
              "internalType": "address",
              "name": "token",
              "type": "address"
            },
            {
              "internalType": "uint8",
              "name": "mode",
              "type": "uint8"
            },
            {
              "internalType": "uint256",
              "name": "expandPercent",
              "type": "uint256"
            },
            {
              "internalType": "uint256",
              "name": "expandDuration",
              "type": "uint256"
            },
            {
              "internalType": "uint256",
              "name": "baseDebtCeiling",
              "type": "uint256"
            },
            {
              "internalType": "uint256",
              "name": "maxDebtCeiling",
              "type": "uint256"
            }
          ],
          "indexed": false,
          "internalType": "struct Structs.UserBorrowConfig[]",
          "name": "userBorrowConfigs",
          "type": "tuple[]"
        }
      ],
      "name": "LogUpdateUserBorrowConfigs",
      "type": "event"
    },
    {
      "anonymous": false,
      "inputs": [
        {
          "components": [
            {
              "internalType": "address",
              "name": "addr",
              "type": "address"
            },
            {
              "internalType": "uint256",
              "name": "value",
              "type": "uint256"
            }
          ],
          "indexed": false,
          "internalType": "struct Structs.AddressUint256[]",
          "name": "userClasses",
          "type": "tuple[]"
        }
      ],
      "name": "LogUpdateUserClasses",
      "type": "event"
    },
    {
      "anonymous": false,
      "inputs": [
        {
          "components": [
            {
              "internalType": "address",
              "name": "user",
              "type": "address"
            },
            {
              "internalType": "address",
              "name": "token",
              "type": "address"
            },
            {
              "internalType": "uint8",
              "name": "mode",
              "type": "uint8"
            },
            {
              "internalType": "uint256",
              "name": "expandPercent",
              "type": "uint256"
            },
            {
              "internalType": "uint256",
              "name": "expandDuration",
              "type": "uint256"
            },
            {
              "internalType": "uint256",
              "name": "baseWithdrawalLimit",
              "type": "uint256"
            }
          ],
          "indexed": false,
          "internalType": "struct Structs.UserSupplyConfig[]",
          "name": "userSupplyConfigs",
          "type": "tuple[]"
        }
      ],
      "name": "LogUpdateUserSupplyConfigs",
      "type": "event"
    },
    {
      "anonymous": false,
      "inputs": [
        {
          "indexed": false,
          "internalType": "address",
          "name": "user",
          "type": "address"
        },
        {
          "indexed": false,
          "internalType": "address",
          "name": "token",
          "type": "address"
        },
        {
          "indexed": false,
          "internalType": "uint256",
          "name": "newLimit",
          "type": "uint256"
        }
      ],
      "name": "LogUpdateUserWithdrawalLimit",
      "type": "event"
    },
    {
      "inputs": [],
      "name": "NATIVE_TOKEN_MAX_BORROW_LIMIT_CAP",
      "outputs": [
        {
          "internalType": "uint256",
          "name": "",
          "type": "uint256"
        }
      ],
      "stateMutability": "view",
      "type": "function"
    },
    {
      "inputs": [
        {
          "internalType": "uint256",
          "name": "newStatus_",
          "type": "uint256"
        }
      ],
      "name": "changeStatus",
      "outputs": [],
      "stateMutability": "nonpayable",
      "type": "function"
    },
    {
      "inputs": [
        {
          "internalType": "address[]",
          "name": "tokens_",
          "type": "address[]"
        }
      ],
      "name": "collectRevenue",
      "outputs": [],
      "stateMutability": "nonpayable",
      "type": "function"
    },
    {
      "inputs": [
        {
          "internalType": "address",
          "name": "user_",
          "type": "address"
        },
        {
          "internalType": "address[]",
          "name": "supplyTokens_",
          "type": "address[]"
        },
        {
          "internalType": "address[]",
          "name": "borrowTokens_",
          "type": "address[]"
        }
      ],
      "name": "pauseUser",
      "outputs": [],
      "stateMutability": "nonpayable",
      "type": "function"
    },
    {
      "inputs": [
        {
          "internalType": "address",
          "name": "user_",
          "type": "address"
        },
        {
          "internalType": "address[]",
          "name": "supplyTokens_",
          "type": "address[]"
        },
        {
          "internalType": "address[]",
          "name": "borrowTokens_",
          "type": "address[]"
        }
      ],
      "name": "unpauseUser",
      "outputs": [],
      "stateMutability": "nonpayable",
      "type": "function"
    },
    {
      "inputs": [
        {
          "components": [
            {
              "internalType": "address",
              "name": "addr",
              "type": "address"
            },
            {
              "internalType": "bool",
              "name": "value",
              "type": "bool"
            }
          ],
          "internalType": "struct Structs.AddressBool[]",
          "name": "authsStatus_",
          "type": "tuple[]"
        }
      ],
      "name": "updateAuths",
      "outputs": [],
      "stateMutability": "nonpayable",
      "type": "function"
    },
    {
      "inputs": [
        {
          "internalType": "address[]",
          "name": "tokens_",
          "type": "address[]"
        }
      ],
      "name": "updateExchangePrices",
      "outputs": [
        {
          "internalType": "uint256[]",
          "name": "supplyExchangePrices_",
          "type": "uint256[]"
        },
        {
          "internalType": "uint256[]",
          "name": "borrowExchangePrices_",
          "type": "uint256[]"
        }
      ],
      "stateMutability": "nonpayable",
      "type": "function"
    },
    {
      "inputs": [
        {
          "components": [
            {
              "internalType": "address",
              "name": "addr",
              "type": "address"
            },
            {
              "internalType": "bool",
              "name": "value",
              "type": "bool"
            }
          ],
          "internalType": "struct Structs.AddressBool[]",
          "name": "guardiansStatus_",
          "type": "tuple[]"
        }
      ],
      "name": "updateGuardians",
      "outputs": [],
      "stateMutability": "nonpayable",
      "type": "function"
    },
    {
      "inputs": [
        {
          "components": [
            {
              "internalType": "address",
              "name": "token",
              "type": "address"
            },
            {
              "internalType": "uint256",
              "name": "kink",
              "type": "uint256"
            },
            {
              "internalType": "uint256",
              "name": "rateAtUtilizationZero",
              "type": "uint256"
            },
            {
              "internalType": "uint256",
              "name": "rateAtUtilizationKink",
              "type": "uint256"
            },
            {
              "internalType": "uint256",
              "name": "rateAtUtilizationMax",
              "type": "uint256"
            }
          ],
          "internalType": "struct Structs.RateDataV1Params[]",
          "name": "tokensRateData_",
          "type": "tuple[]"
        }
      ],
      "name": "updateRateDataV1s",
      "outputs": [],
      "stateMutability": "nonpayable",
      "type": "function"
    },
    {
      "inputs": [
        {
          "components": [
            {
              "internalType": "address",
              "name": "token",
              "type": "address"
            },
            {
              "internalType": "uint256",
              "name": "kink1",
              "type": "uint256"
            },
            {
              "internalType": "uint256",
              "name": "kink2",
              "type": "uint256"
            },
            {
              "internalType": "uint256",
              "name": "rateAtUtilizationZero",
              "type": "uint256"
            },
            {
              "internalType": "uint256",
              "name": "rateAtUtilizationKink1",
              "type": "uint256"
            },
            {
              "internalType": "uint256",
              "name": "rateAtUtilizationKink2",
              "type": "uint256"
            },
            {
              "internalType": "uint256",
              "name": "rateAtUtilizationMax",
              "type": "uint256"
            }
          ],
          "internalType": "struct Structs.RateDataV2Params[]",
          "name": "tokensRateData_",
          "type": "tuple[]"
        }
      ],
      "name": "updateRateDataV2s",
      "outputs": [],
      "stateMutability": "nonpayable",
      "type": "function"
    },
    {
      "inputs": [
        {
          "internalType": "address",
          "name": "revenueCollector_",
          "type": "address"
        }
      ],
      "name": "updateRevenueCollector",
      "outputs": [],
      "stateMutability": "nonpayable",
      "type": "function"
    },
    {
      "inputs": [
        {
          "components": [
            {
              "internalType": "address",
              "name": "token",
              "type": "address"
            },
            {
              "internalType": "uint256",
              "name": "fee",
              "type": "uint256"
            },
            {
              "internalType": "uint256",
              "name": "threshold",
              "type": "uint256"
            },
            {
              "internalType": "uint256",
              "name": "maxUtilization",
              "type": "uint256"
            }
          ],
          "internalType": "struct Structs.TokenConfig[]",
          "name": "tokenConfigs_",
          "type": "tuple[]"
        }
      ],
      "name": "updateTokenConfigs",
      "outputs": [],
      "stateMutability": "nonpayable",
      "type": "function"
    },
    {
      "inputs": [
        {
          "components": [
            {
              "internalType": "address",
              "name": "user",
              "type": "address"
            },
            {
              "internalType": "address",
              "name": "token",
              "type": "address"
            },
            {
              "internalType": "uint8",
              "name": "mode",
              "type": "uint8"
            },
            {
              "internalType": "uint256",
              "name": "expandPercent",
              "type": "uint256"
            },
            {
              "internalType": "uint256",
              "name": "expandDuration",
              "type": "uint256"
            },
            {
              "internalType": "uint256",
              "name": "baseDebtCeiling",
              "type": "uint256"
            },
            {
              "internalType": "uint256",
              "name": "maxDebtCeiling",
              "type": "uint256"
            }
          ],
          "internalType": "struct Structs.UserBorrowConfig[]",
          "name": "userBorrowConfigs_",
          "type": "tuple[]"
        }
      ],
      "name": "updateUserBorrowConfigs",
      "outputs": [],
      "stateMutability": "nonpayable",
      "type": "function"
    },
    {
      "inputs": [
        {
          "components": [
            {
              "internalType": "address",
              "name": "addr",
              "type": "address"
            },
            {
              "internalType": "uint256",
              "name": "value",
              "type": "uint256"
            }
          ],
          "internalType": "struct Structs.AddressUint256[]",
          "name": "userClasses_",
          "type": "tuple[]"
        }
      ],
      "name": "updateUserClasses",
      "outputs": [],
      "stateMutability": "nonpayable",
      "type": "function"
    },
    {
      "inputs": [
        {
          "components": [
            {
              "internalType": "address",
              "name": "user",
              "type": "address"
            },
            {
              "internalType": "address",
              "name": "token",
              "type": "address"
            },
            {
              "internalType": "uint8",
              "name": "mode",
              "type": "uint8"
            },
            {
              "internalType": "uint256",
              "name": "expandPercent",
              "type": "uint256"
            },
            {
              "internalType": "uint256",
              "name": "expandDuration",
              "type": "uint256"
            },
            {
              "internalType": "uint256",
              "name": "baseWithdrawalLimit",
              "type": "uint256"
            }
          ],
          "internalType": "struct Structs.UserSupplyConfig[]",
          "name": "userSupplyConfigs_",
          "type": "tuple[]"
        }
      ],
      "name": "updateUserSupplyConfigs",
      "outputs": [],
      "stateMutability": "nonpayable",
      "type": "function"
    },
    {
      "inputs": [
        {
          "internalType": "address",
          "name": "user_",
          "type": "address"
        },
        {
          "internalType": "address",
          "name": "token_",
          "type": "address"
        },
        {
          "internalType": "uint256",
          "name": "newLimit_",
          "type": "uint256"
        }
      ],
      "name": "updateUserWithdrawalLimit",
      "outputs": [],
      "stateMutability": "nonpayable",
      "type": "function"
    }
  ],
  "transactionHash": "0x9e0e644f5373114c8b8f90416018bfce1b25fbc472d3e5f2720df5c77fb47233",
  "args": [
    "50000000000000000000000000"
  ],
  "numDeployments": 1,
  "solcInputHash": "0d8a1a52943c59f9123d29f5cbd21b92",
  "bytecode": "0x60a0604052348015600e575f5ffd5b50604051615ad2380380615ad2833981016040819052602b916064565b600260015580805f819003605a57604051636e55c17160e11b8152612716600482015260240160405180910390fd5b60805250607a9050565b5f602082840312156073575f5ffd5b5051919050565b608051615a396100995f395f81816101fd015261058e0152615a395ff3fe608060405234801561000f575f5ffd5b50600436106100fb575f3560e01c8063a5eb43ef11610093578063e8025d7711610063578063e8025d77146101e5578063eae2c8f1146101f8578063ec04840114610232578063f4bfa00014610245575f5ffd5b8063a5eb43ef14610199578063ac862bfa146101ac578063c2da75f0146101bf578063dd4cbf6b146101d2575f5ffd5b806354bb0c1d116100ce57806354bb0c1d1461014d5780637f7b6002146101605780638f0c2916146101735780639dde597714610186575f5ffd5b806301b88f86146100ff57806302c6bb6a146101145780633f66feff146101275780633fad77fc1461013a575b5f5ffd5b61011261010d366004614e3e565b610266565b005b610112610122366004614f42565b610ee4565b610112610135366004615075565b611922565b6101126101483660046150b4565b611aa9565b61011261015b366004615125565b611d3d565b61011261016e366004615145565b611e2c565b6101126101813660046151a6565b6124c6565b6101126101943660046151e0565b61272b565b6101126101a7366004615075565b61299d565b6101126101ba366004615282565b612afc565b6101126101cd366004615075565b612f35565b6101126101e03660046152b5565b61310b565b6101126101f3366004615335565b61355d565b61021f7f000000000000000000000000000000000000000000000000000000000000000081565b6040519081526020015b60405180910390f35b6101126102403660046152b5565b613671565b610258610253366004615282565b613a43565b604051610229929190615386565b335f908152600260205260409020546001908116148015906102c55750336102ac7fb53127684a568b3173ae13b9f8a6016e243e63b6e8ee1178d6a717850b5d61035490565b73ffffffffffffffffffffffffffffffffffffffff1614155b15610305576040517fdcab82e200000000000000000000000000000000000000000000000000000000815261271360048201526024015b60405180910390fd5b5f5f5f5f5f5f5f5f5b8851811015610ea25761033c89828151811061032c5761032c6153b3565b60200260200101515f0151613b65565b610362898281518110610351576103516153b3565b602002602001015160200151613bb9565b60055f8a8381518110610377576103776153b3565b60200260200101516020015173ffffffffffffffffffffffffffffffffffffffff1673ffffffffffffffffffffffffffffffffffffffff1681526020019081526020015f20545f036103f9576040517fdcab82e200000000000000000000000000000000000000000000000000000000815261271a60048201526024016102fc565b600189828151811061040d5761040d6153b3565b60200260200101516040015160ff1611806104615750888181518110610435576104356153b3565b602002602001015160c00151898281518110610453576104536153b3565b602002602001015160a00151115b806104885750888181518110610479576104796153b3565b6020026020010151608001515f145b806105ce575073eeeeeeeeeeeeeeeeeeeeeeeeeeeeeeeeeeeeeeee73ffffffffffffffffffffffffffffffffffffffff168982815181106104cb576104cb6153b3565b60200260200101516020015173ffffffffffffffffffffffffffffffffffffffff161461058c57888181518110610504576105046153b3565b60200260200101516020015173ffffffffffffffffffffffffffffffffffffffff166318160ddd6040518163ffffffff1660e01b8152600401602060405180830381865afa158015610558573d5f5f3e3d5ffd5b505050506040513d601f19601f8201168201806040525081019061057c91906153e0565b61058790600a615424565b6105ae565b7f00000000000000000000000000000000000000000000000000000000000000005b8982815181106105c0576105c06153b3565b602002602001015160c00151115b15610609576040517fdcab82e200000000000000000000000000000000000000000000000000000000815261271660048201526024016102fc565b613fff89828151811061061e5761061e6153b3565b6020026020010151606001511115610666576040517fdcab82e200000000000000000000000000000000000000000000000000000000815261272660048201526024016102fc565b62ffffff89828151811061067c5761067c6153b3565b60200260200101516080015111156106c4576040517fdcab82e200000000000000000000000000000000000000000000000000000000815261272760048201526024016102fc565b8881815181106106d6576106d66153b3565b602002602001015160a001515f148061070b57508881815181106106fc576106fc6153b3565b602002602001015160c001515f145b15610746576040517fdcab82e200000000000000000000000000000000000000000000000000000000815261271560048201526024016102fc565b60095f8a838151811061075b5761075b6153b3565b60200260200101515f015173ffffffffffffffffffffffffffffffffffffffff1673ffffffffffffffffffffffffffffffffffffffff1681526020019081526020015f205f8a83815181106107b2576107b26153b3565b60200260200101516020015173ffffffffffffffffffffffffffffffffffffffff1673ffffffffffffffffffffffffffffffffffffffff1681526020019081526020015f20549750875f14806108335750600188161580156108335750888181518110610821576108216153b3565b60200260200101516040015160ff165f145b8061086c575087600116600114801561086c5750888181518110610859576108596153b3565b60200260200101516040015160ff166001145b15610a2c5760da6108a9600a60085f8d868151811061088d5761088d6153b3565b602002602001015160c00151613c43909392919063ffffffff16565b901b60c86108e3600a60085f8e87815181106108c7576108c76153b3565b602002602001015160a00151613c43909392919063ffffffff16565b901b60b08b84815181106108f9576108f96153b3565b602002602001015160800151901b60a28c858151811061091b5761091b6153b3565b602002602001015160600151901b8c858151811061093b5761093b6153b3565b60200260200101516040015160ff168c7ffffff0000000000000000003fffffffffffffffffffffffffffffffffffffffe16171717171760095f8b8481518110610987576109876153b3565b60200260200101515f015173ffffffffffffffffffffffffffffffffffffffff1673ffffffffffffffffffffffffffffffffffffffff1681526020019081526020015f205f8b84815181106109de576109de6153b3565b60200260200101516020015173ffffffffffffffffffffffffffffffffffffffff1673ffffffffffffffffffffffffffffffffffffffff1681526020019081526020015f2081905550610e9a565b610a52898281518110610a4157610a416153b3565b602002602001015160200151613d69565b90508092505060075f8a8381518110610a6d57610a6d6153b3565b60200260200101516020015173ffffffffffffffffffffffffffffffffffffffff1673ffffffffffffffffffffffffffffffffffffffff1681526020019081526020015f20549650610ad567ffffffffffffffff608089901c16600860ff9082901c91161b90565b955060c887901c60ff60c089901c161b945067ffffffffffffffff600189901c16935060ff8416600885901c901b935067ffffffffffffffff604189901c16925060ff8316600884901c901b9250876001165f148015610b555750888181518110610b4257610b426153b3565b60200260200101516040015160ff166001145b15610bb257838511610b67575f610b71565b610b718486615441565b9450610b838464e8d4a5100084613ea9565b935081610b9564e8d4a5100085615424565b610b9f9190615481565b9250610bab84876154b9565b9550610c3d565b876001166001148015610be45750888181518110610bd257610bd26153b3565b60200260200101516040015160ff165f145b15610c3d57838611610bf6575f610c00565b610c008487615441565b9550610c12848364e8d4a51000613ea9565b935064e8d4a51000610c248385615424565b610c2e9190615481565b9250610c3a84866154b9565b94505b610c4c84603860086001613c43565b9350610c5c83603860085f613c43565b925060da610c7a600a60085f8d868151811061088d5761088d6153b3565b901b60c8610c98600a60085f8e87815181106108c7576108c76153b3565b901b60b08b8481518110610cae57610cae6153b3565b602002602001015160800151901b60a28c8581518110610cd057610cd06153b3565b602002602001015160600151901b604187901b600189901b8e8781518110610cfa57610cfa6153b3565b60200260200101516040015160ff168e7ffffff0000000000000000003fffffffe00000000000000000000000000000000161717171717171760095f8b8481518110610d4857610d486153b3565b60200260200101515f015173ffffffffffffffffffffffffffffffffffffffff1673ffffffffffffffffffffffffffffffffffffffff1681526020019081526020015f205f8b8481518110610d9f57610d9f6153b3565b60209081029190910181015181015173ffffffffffffffffffffffffffffffffffffffff1682528101919091526040015f2055610de186603860086001613c43565b9550610df285603860086001613c43565b945060c085901b608087901b886fffffffffffffffffffffffffffffffff16171760075f8b8481518110610e2857610e286153b3565b60200260200101516020015173ffffffffffffffffffffffffffffffffffffffff1673ffffffffffffffffffffffffffffffffffffffff1681526020019081526020015f2081905550610e97898281518110610e8657610e866153b3565b602002602001015160200151613eeb565b50505b60010161030e565b507f4a3d512075def8d38b63e79dacfdab217654f641be2b2f7d638b67b2515df7c088604051610ed291906154cc565b60405180910390a15050505050505050565b335f90815260026020526040902054600190811614801590610f43575033610f2a7fb53127684a568b3173ae13b9f8a6016e243e63b6e8ee1178d6a717850b5d61035490565b73ffffffffffffffffffffffffffffffffffffffff1614155b15610f7e576040517fdcab82e200000000000000000000000000000000000000000000000000000000815261271360048201526024016102fc565b5f5f5f5f5f5f5f5f5b88518110156118f257610fa589828151811061032c5761032c6153b3565b610fba898281518110610351576103516153b3565b60055f8a8381518110610fcf57610fcf6153b3565b60200260200101516020015173ffffffffffffffffffffffffffffffffffffffff1673ffffffffffffffffffffffffffffffffffffffff1681526020019081526020015f20545f03611051576040517fdcab82e200000000000000000000000000000000000000000000000000000000815261271a60048201526024016102fc565b6001898281518110611065576110656153b3565b60200260200101516040015160ff16118061109c575088818151811061108d5761108d6153b3565b6020026020010151608001515f145b156110d7576040517fdcab82e200000000000000000000000000000000000000000000000000000000815261271660048201526024016102fc565b6127108982815181106110ec576110ec6153b3565b6020026020010151606001511115611134576040517fdcab82e200000000000000000000000000000000000000000000000000000000815261272460048201526024016102fc565b62ffffff89828151811061114a5761114a6153b3565b6020026020010151608001511115611192576040517fdcab82e200000000000000000000000000000000000000000000000000000000815261272560048201526024016102fc565b8881815181106111a4576111a46153b3565b602002602001015160a001515f036111ec576040517fdcab82e200000000000000000000000000000000000000000000000000000000815261271560048201526024016102fc565b60085f8a8381518110611201576112016153b3565b60200260200101515f015173ffffffffffffffffffffffffffffffffffffffff1673ffffffffffffffffffffffffffffffffffffffff1681526020019081526020015f205f8a8381518110611258576112586153b3565b60200260200101516020015173ffffffffffffffffffffffffffffffffffffffff1673ffffffffffffffffffffffffffffffffffffffff1681526020019081526020015f20549750875f14806112d95750600188161580156112d957508881815181106112c7576112c76153b3565b60200260200101516040015160ff165f145b80611312575087600116600114801561131257508881815181106112ff576112ff6153b3565b60200260200101516040015160ff166001145b1561147b5760c8611333600a60085f8d86815181106108c7576108c76153b3565b901b60b08a8381518110611349576113496153b3565b602002602001015160800151901b60a28b848151811061136b5761136b6153b3565b602002602001015160600151901b8b848151811061138b5761138b6153b3565b60200260200101516040015160ff168b7fc00000000000000000000003fffffffffffffffffffffffffffffffffffffffe161717171760085f8b84815181106113d6576113d66153b3565b60200260200101515f015173ffffffffffffffffffffffffffffffffffffffff1673ffffffffffffffffffffffffffffffffffffffff1681526020019081526020015f205f8b848151811061142d5761142d6153b3565b60200260200101516020015173ffffffffffffffffffffffffffffffffffffffff1673ffffffffffffffffffffffffffffffffffffffff1681526020019081526020015f20819055506118ea565b611490898281518110610a4157610a416153b3565b508092505060075f8a83815181106114aa576114aa6153b3565b60200260200101516020015173ffffffffffffffffffffffffffffffffffffffff1673ffffffffffffffffffffffffffffffffffffffff1681526020019081526020015f2054965061150e67ffffffffffffffff8816600860ff9082901c91161b90565b955066ffffffffffffff604888901c1660ff604089901c161b945067ffffffffffffffff600189901c16935060ff8416600885901c901b935067ffffffffffffffff604189901c16925060ff8316600884901c901b9250876001165f1480156115975750888181518110611584576115846153b3565b60200260200101516040015160ff166001145b156115fe578385116115a9575f6115b3565b6115b38486615441565b9450816115c564e8d4a5100086615424565b6115cf9190615481565b9350816115e164e8d4a5100085615424565b6115eb9190615481565b92506115f784876154b9565b9550611693565b876001166001148015611630575088818151811061161e5761161e6153b3565b60200260200101516040015160ff165f145b1561169357838611611642575f61164c565b61164c8487615441565b955064e8d4a5100061165e8386615424565b6116689190615481565b935064e8d4a5100061167a8385615424565b6116849190615481565b925061169084866154b9565b94505b6116a184603860085f613c43565b93506116b183603860085f613c43565b925060c86116cf600a60085f8d86815181106108c7576108c76153b3565b901b60b08a83815181106116e5576116e56153b3565b602002602001015160800151901b60a28b8481518110611707576117076153b3565b602002602001015160600151901b604186901b600188901b8d8681518110611731576117316153b3565b60200260200101516040015160ff168d7fc00000000000000000000003fffffffe000000000000000000000000000000001617171717171760085f8b848151811061177e5761177e6153b3565b60200260200101515f015173ffffffffffffffffffffffffffffffffffffffff1673ffffffffffffffffffffffffffffffffffffffff1681526020019081526020015f205f8b84815181106117d5576117d56153b3565b60200260200101516020015173ffffffffffffffffffffffffffffffffffffffff1673ffffffffffffffffffffffffffffffffffffffff1681526020019081526020015f2081905550611837603860085f89613c43909392919063ffffffff16565b955061184785603860085f613c43565b9450604085901b86887fffffffffffffffffffffffffffffffff0000000000000000000000000000000016171760075f8b8481518110611889576118896153b3565b60200260200101516020015173ffffffffffffffffffffffffffffffffffffffff1673ffffffffffffffffffffffffffffffffffffffff1681526020019081526020015f20819055506118e7898281518110610e8657610e866153b3565b50505b600101610f87565b507f614e3525ec8c152da9319cd9038950346a4a042d3c6810a7f3ffddc34347bdb088604051610ed29190615581565b3361194b7fb53127684a568b3173ae13b9f8a6016e243e63b6e8ee1178d6a717850b5d61035490565b73ffffffffffffffffffffffffffffffffffffffff161461199c576040517fdcab82e200000000000000000000000000000000000000000000000000000000815261271260048201526024016102fc565b805f5b81811015611a6a576119d78484838181106119bc576119bc6153b3565b6119d29260206040909202019081019150615125565b614274565b8383828181106119e9576119e96153b3565b9050604002016020016020810190611a019190615630565b611a0b575f611a0e565b60015b60ff1660025f868685818110611a2657611a266153b3565b611a3c9260206040909202019081019150615125565b73ffffffffffffffffffffffffffffffffffffffff16815260208101919091526040015f205560010161199f565b507fb694cde8b4bf47e7f5845bb4374f98c5b29bbbaa5208ea679121cecb5d8fd3e08383604051611a9c929190615649565b60405180910390a1505050565b335f90815260026020526040902054600190811614801590611b08575033611aef7fb53127684a568b3173ae13b9f8a6016e243e63b6e8ee1178d6a717850b5d61035490565b73ffffffffffffffffffffffffffffffffffffffff1614155b15611b43576040517fdcab82e200000000000000000000000000000000000000000000000000000000815261271360048201526024016102fc565b805f805b82811015611cfd57611b7f858583818110611b6457611b646153b3565b611b7a92602060a0909202019081019150615125565b613bb9565b611baf858583818110611b9457611b946153b3565b611baa92602060a0909202019081019150615125565b6142c5565b60065f868684818110611bc457611bc46153b3565b611bda92602060a0909202019081019150615125565b73ffffffffffffffffffffffffffffffffffffffff16815260208101919091526040015f205491508115611c3b57611c38858583818110611c1d57611c1d6153b3565b611c3392602060a0909202019081019150615125565b613d69565b50505b611c6b858583818110611c5057611c506153b3565b905060a00201803603810190611c6691906156b3565b6143c2565b60065f878785818110611c8057611c806153b3565b611c9692602060a0909202019081019150615125565b73ffffffffffffffffffffffffffffffffffffffff16815260208101919091526040015f20558115611cf557611cf2858583818110611cd757611cd76153b3565b611ced92602060a0909202019081019150615125565b613eeb565b50505b600101611b47565b507f1f953465aa7f3f2478d38b6c2a9cfcfbda846398254e278f614d586d527d902c8484604051611d2f929190615727565b60405180910390a150505050565b33611d667fb53127684a568b3173ae13b9f8a6016e243e63b6e8ee1178d6a717850b5d61035490565b73ffffffffffffffffffffffffffffffffffffffff1614611db7576040517fdcab82e200000000000000000000000000000000000000000000000000000000815261271260048201526024016102fc565b611dc081614274565b5f80547fffffffffffffffffffffffff00000000000000000000000000000000000000001673ffffffffffffffffffffffffffffffffffffffff8316908117825560405190917fde3dd47a9a762713b4a9813a037ab6f57e36569d8b0ec4ddb285d8a61878b5b491a250565b335f90815260026020526040902054600190811614801590611e8b575033611e727fb53127684a568b3173ae13b9f8a6016e243e63b6e8ee1178d6a717850b5d61035490565b73ffffffffffffffffffffffffffffffffffffffff1614155b15611ec6576040517fdcab82e200000000000000000000000000000000000000000000000000000000815261271360048201526024016102fc565b805f8080805b8481101561248457611eff878783818110611ee957611ee96153b3565b611b7a9260206080909202019081019150615125565b60065f888884818110611f1457611f146153b3565b611f2a9260206080909202019081019150615125565b73ffffffffffffffffffffffffffffffffffffffff1673ffffffffffffffffffffffffffffffffffffffff1681526020019081526020015f20545f03611fa0576040517fdcab82e200000000000000000000000000000000000000000000000000000000815261271a60048201526024016102fc565b612710878783818110611fb557611fb56153b3565b905060800201602001351115611ffb576040517fdcab82e200000000000000000000000000000000000000000000000000000000815261272260048201526024016102fc565b612710878783818110612010576120106153b3565b905060800201606001351115612056576040517fdcab82e200000000000000000000000000000000000000000000000000000000815261272b60048201526024016102fc565b6101f487878381811061206b5761206b6153b3565b9050608002016040013511156120b1576040517fdcab82e200000000000000000000000000000000000000000000000000000000815261272360048201526024016102fc565b60055f8888848181106120c6576120c66153b3565b6120dc9260206080909202019081019150615125565b73ffffffffffffffffffffffffffffffffffffffff1673ffffffffffffffffffffffffffffffffffffffff1681526020019081526020015f2054935067ffffffffffffffff605b85901c16925067ffffffffffffffff609b85901c1691505f8311801561214857505f82115b156121b85761215684614524565b909350915067ffffffffffffffff831180612178575067ffffffffffffffff82115b156121b3576040517fdcab82e200000000000000000000000000000000000000000000000000000000815261272860048201526024016102fc565b612249565b64e8d4a51000925064e8d4a510009150600a8787838181106121dc576121dc6153b3565b6121f29260206080909202019081019150615125565b81546001810183555f928352602090922090910180547fffffffffffffffffffffffff00000000000000000000000000000000000000001673ffffffffffffffffffffffffffffffffffffffff9092169190911790555b5f61271088888481811061225f5761225f6153b3565b905060800201606001351415905060f98161227a575f61227d565b60015b60ff16901b609b84901b605b86901b42603a1b602c8c8c888181106122a4576122a46153b3565b90506080020160400135901b60108d8d898181106122c4576122c46153b3565b90506080020160200135901b8a7ffdfffffff80000000000000000000000000000000000000000000fffc000ffff1617171717171760055f8a8a8681811061230e5761230e6153b3565b6123249260206080909202019081019150615125565b73ffffffffffffffffffffffffffffffffffffffff16815260208101919091526040015f205580612355575f612372565b878783818110612367576123676153b3565b905060800201606001355b600b5f8a8a86818110612387576123876153b3565b61239d9260206080909202019081019150615125565b73ffffffffffffffffffffffffffffffffffffffff1673ffffffffffffffffffffffffffffffffffffffff1681526020019081526020015f20547fffffffffffffffffffffffffffffffffffffffffffffffffffffffffffffc0001617600b5f8a8a8681811061240f5761240f6153b3565b6124259260206080909202019081019150615125565b73ffffffffffffffffffffffffffffffffffffffff16815260208101919091526040015f2055612476888884818110612460576124606153b3565b611ced9260206080909202019081019150615125565b505081600101915050611ecc565b507fa9d5be7e168dc43b637b924e6cc22c262478dffd9d475fa170b6d4e4ba57646086866040516124b692919061579c565b60405180910390a1505050505050565b335f9081526002602052604090205460019081161480159061252557503361250c7fb53127684a568b3173ae13b9f8a6016e243e63b6e8ee1178d6a717850b5d61035490565b73ffffffffffffffffffffffffffffffffffffffff1614155b15612560576040517fdcab82e200000000000000000000000000000000000000000000000000000000815261271360048201526024016102fc565b61256983613b65565b61257282613bb9565b73ffffffffffffffffffffffffffffffffffffffff8084165f908152600860209081526040808320938616835292905290812054908190036125e4576040517fdcab82e200000000000000000000000000000000000000000000000000000000815261271960048201526024016102fc565b66ffffffffffffff600982901c1660ff600183901c161b60a282901c613fff166127106126118284615424565b61261b9190615481565b6126259083615441565b905083158061263357508084105b156126405780935061264c565b8184111561264c578193505b6103ff60d084901c1660ff60c885901c161b8083101561266a575f94505b4260811b604161267e87603860085f613c43565b73ffffffffffffffffffffffffffffffffffffffff8a81165f818152600860209081526040808320948e16808452948252918290209490951b7fc000000003fffffffffffffc000000000000000000000001ffffffffffffffff8b1617959095179092558351918252918101919091529081018690527fbd618a42c279f25a1d0dd6144f1a1b2ded22549073604bb0774cff6a99ee8428906060015b60405180910390a150505050505050565b335f9081526002602052604090205460019081161480159061278a5750336127717fb53127684a568b3173ae13b9f8a6016e243e63b6e8ee1178d6a717850b5d61035490565b73ffffffffffffffffffffffffffffffffffffffff1614155b156127c5576040517fdcab82e200000000000000000000000000000000000000000000000000000000815261271360048201526024016102fc565b805f805b8281101561296b576127fc8585838181106127e6576127e66153b3565b611b7a92602060e0909202019081019150615125565b612827858583818110612811576128116153b3565b611baa92602060e0909202019081019150615125565b60065f86868481811061283c5761283c6153b3565b61285292602060e0909202019081019150615125565b73ffffffffffffffffffffffffffffffffffffffff16815260208101919091526040015f2054915081156128ae576128ab858583818110612895576128956153b3565b611c3392602060e0909202019081019150615125565b50505b6128de8585838181106128c3576128c36153b3565b905060e002018036038101906128d99190615807565b614732565b60065f8787858181106128f3576128f36153b3565b61290992602060e0909202019081019150615125565b73ffffffffffffffffffffffffffffffffffffffff16815260208101919091526040015f205581156129635761296085858381811061294a5761294a6153b3565b611ced92602060e0909202019081019150615125565b50505b6001016127c9565b507ff96f9120f802331b6220bac68c2ab90cce6c8a8f9fed548d72dd092ad1899bf98484604051611d2f929190615871565b336129c67fb53127684a568b3173ae13b9f8a6016e243e63b6e8ee1178d6a717850b5d61035490565b73ffffffffffffffffffffffffffffffffffffffff1614612a17576040517fdcab82e200000000000000000000000000000000000000000000000000000000815261271260048201526024016102fc565b805f5b81811015612aca57612a378484838181106119bc576119bc6153b3565b838382818110612a4957612a496153b3565b9050604002016020016020810190612a619190615630565b612a6b575f612a6e565b60015b60ff1660035f868685818110612a8657612a866153b3565b612a9c9260206040909202019081019150615125565b73ffffffffffffffffffffffffffffffffffffffff16815260208101919091526040015f2055600101612a1a565b507f530db3bf9b4b0c4f296fe1d9e21620b91db0a8bdcaca4cf1e6dc9844739405c18383604051611a9c929190615649565b335f90815260026020526040902054600190811614801590612b5b575033612b427fb53127684a568b3173ae13b9f8a6016e243e63b6e8ee1178d6a717850b5d61035490565b73ffffffffffffffffffffffffffffffffffffffff1614155b15612b96576040517fdcab82e200000000000000000000000000000000000000000000000000000000815261271360048201526024016102fc565b5f5473ffffffffffffffffffffffffffffffffffffffff1680612be9576040517fdcab82e200000000000000000000000000000000000000000000000000000000815261271b60048201526024016102fc565b815f5b81811015612f2e57612c1e858583818110612c0957612c096153b3565b9050602002016020810190611b7a9190615125565b5f73eeeeeeeeeeeeeeeeeeeeeeeeeeeeeeeeeeeeeeee868684818110612c4657612c466153b3565b9050602002016020810190612c5b9190615125565b73ffffffffffffffffffffffffffffffffffffffff161490505f612e3f60075f898987818110612c8d57612c8d6153b3565b9050602002016020810190612ca29190615125565b73ffffffffffffffffffffffffffffffffffffffff1673ffffffffffffffffffffffffffffffffffffffff1681526020019081526020015f205460055f8a8a88818110612cf157612cf16153b3565b9050602002016020810190612d069190615125565b73ffffffffffffffffffffffffffffffffffffffff1673ffffffffffffffffffffffffffffffffffffffff1681526020019081526020015f2054612d6f8a8a88818110612d5557612d556153b3565b9050602002016020810190612d6a9190615125565b505f90565b85612e2e578a8a88818110612d8657612d866153b3565b9050602002016020810190612d9b9190615125565b6040517f70a0823100000000000000000000000000000000000000000000000000000000815230600482015273ffffffffffffffffffffffffffffffffffffffff91909116906370a0823190602401602060405180830381865afa158015612e05573d5f5f3e3d5ffd5b505050506040513d601f19601f82011682018060405250810190612e2991906153e0565b612e30565b475b612e3a91906154b9565b614910565b90508015612eba578115612e5c57612e578582614975565b612eba565b612e89878785818110612e7157612e716153b3565b9050602002016020810190612e869190615125565b50565b612eba878785818110612e9e57612e9e6153b3565b9050602002016020810190612eb39190615125565b86836149c3565b80878785818110612ecd57612ecd6153b3565b9050602002016020810190612ee29190615125565b73ffffffffffffffffffffffffffffffffffffffff167f7ded56fbc1e1a41c85fd5fb3d0ce91eafc72414b7f06ed356c1d921823d4c37c60405160405180910390a35050600101612bec565b5050505050565b335f90815260026020526040902054600190811614801590612f94575033612f7b7fb53127684a568b3173ae13b9f8a6016e243e63b6e8ee1178d6a717850b5d61035490565b73ffffffffffffffffffffffffffffffffffffffff1614155b15612fcf576040517fdcab82e200000000000000000000000000000000000000000000000000000000815261271360048201526024016102fc565b805f5b818110156130d9576001848483818110612fee57612fee6153b3565b905060400201602001351115613034576040517fdcab82e200000000000000000000000000000000000000000000000000000000815261271660048201526024016102fc565b613064848483818110613049576130496153b3565b61305f9260206040909202019081019150615125565b613b65565b838382818110613076576130766153b3565b9050604002016020013560045f868685818110613095576130956153b3565b6130ab9260206040909202019081019150615125565b73ffffffffffffffffffffffffffffffffffffffff16815260208101919091526040015f2055600101612fd2565b507f9ccbc3483d75ae36da94213ac30ac0a047e1226ef3435d004cd501608e5b388b8383604051611a9c9291906158fa565b335f9081526003602052604090205460019081161480159061316a5750336131517fb53127684a568b3173ae13b9f8a6016e243e63b6e8ee1178d6a717850b5d61035490565b73ffffffffffffffffffffffffffffffffffffffff1614155b156131a5576040517fdcab82e200000000000000000000000000000000000000000000000000000000815261271460048201526024016102fc565b6131ae85613b65565b73ffffffffffffffffffffffffffffffffffffffff85165f90815260046020526040902054600103613210576040517fdcab82e200000000000000000000000000000000000000000000000000000000815261271760048201526024016102fc565b5f83801561339b575f5b8181101561339957613237878783818110612c0957612c096153b3565b73ffffffffffffffffffffffffffffffffffffffff88165f9081526008602052604081209088888481811061326e5761326e6153b3565b90506020020160208101906132839190615125565b73ffffffffffffffffffffffffffffffffffffffff1673ffffffffffffffffffffffffffffffffffffffff1681526020019081526020015f20549250825f036132fc576040517fdcab82e200000000000000000000000000000000000000000000000000000000815261271960048201526024016102fc565b73ffffffffffffffffffffffffffffffffffffffff88165f9081526008602052604081207f8000000000000000000000000000000000000000000000000000000000000000851791898985818110613356576133566153b3565b905060200201602081019061336b9190615125565b73ffffffffffffffffffffffffffffffffffffffff16815260208101919091526040015f205560010161321a565b505b50818015613526575f5b81811015613524576133c2858583818110612c0957612c096153b3565b73ffffffffffffffffffffffffffffffffffffffff88165f908152600960205260408120908686848181106133f9576133f96153b3565b905060200201602081019061340e9190615125565b73ffffffffffffffffffffffffffffffffffffffff1673ffffffffffffffffffffffffffffffffffffffff1681526020019081526020015f20549250825f03613487576040517fdcab82e200000000000000000000000000000000000000000000000000000000815261271960048201526024016102fc565b73ffffffffffffffffffffffffffffffffffffffff88165f9081526009602052604081207f80000000000000000000000000000000000000000000000000000000000000008517918787858181106134e1576134e16153b3565b90506020020160208101906134f69190615125565b73ffffffffffffffffffffffffffffffffffffffff16815260208101919091526040015f20556001016133a5565b505b7f6686e5bb0cc56cbc9aa2b434eb18009891bf411d6d3f961fdfe70be336ca4528878787878760405161271a95949392919061599a565b335f908152600260205260409020546001908116148015906135bc5750336135a37fb53127684a568b3173ae13b9f8a6016e243e63b6e8ee1178d6a717850b5d61035490565b73ffffffffffffffffffffffffffffffffffffffff1614155b156135f7576040517fdcab82e200000000000000000000000000000000000000000000000000000000815261271360048201526024016102fc565b8015806136045750600281115b1561363f576040517fdcab82e200000000000000000000000000000000000000000000000000000000815261271660048201526024016102fc565b600181905560405181907fb33384c8a450936b9fba178db857f03fb9865a40d166aa2f9d439a9fdddfbe22905f90a250565b335f908152600360205260409020546001908116148015906136d05750336136b77fb53127684a568b3173ae13b9f8a6016e243e63b6e8ee1178d6a717850b5d61035490565b73ffffffffffffffffffffffffffffffffffffffff1614155b1561370b576040517fdcab82e200000000000000000000000000000000000000000000000000000000815261271460048201526024016102fc565b61371485613b65565b5f838015613890575f5b8181101561388e5761373b878783818110612c0957612c096153b3565b73ffffffffffffffffffffffffffffffffffffffff88165f90815260086020526040812090888884818110613772576137726153b3565b90506020020160208101906137879190615125565b73ffffffffffffffffffffffffffffffffffffffff16815260208101919091526040015f20549250600160ff84901c146137f1576040517fdcab82e200000000000000000000000000000000000000000000000000000000815261271860048201526024016102fc565b73ffffffffffffffffffffffffffffffffffffffff88165f9081526008602052604081207f7fffffffffffffffffffffffffffffffffffffffffffffffffffffffffffffff85169189898581811061384b5761384b6153b3565b90506020020160208101906138609190615125565b73ffffffffffffffffffffffffffffffffffffffff16815260208101919091526040015f205560010161371e565b505b50818015613a0c575f5b81811015613a0a576138b7858583818110612c0957612c096153b3565b73ffffffffffffffffffffffffffffffffffffffff88165f908152600960205260408120908686848181106138ee576138ee6153b3565b90506020020160208101906139039190615125565b73ffffffffffffffffffffffffffffffffffffffff16815260208101919091526040015f20549250600160ff84901c1461396d576040517fdcab82e200000000000000000000000000000000000000000000000000000000815261271860048201526024016102fc565b73ffffffffffffffffffffffffffffffffffffffff88165f9081526009602052604081207f7fffffffffffffffffffffffffffffffffffffffffffffffffffffffffffffff8516918787858181106139c7576139c76153b3565b90506020020160208101906139dc9190615125565b73ffffffffffffffffffffffffffffffffffffffff16815260208101919091526040015f205560010161389a565b505b7facd30ef49b8fd1b51bbefff95071c5b0257180a7778c9c0fa4eb77a8842e290d878787878760405161271a95949392919061599a565b606080828067ffffffffffffffff811115613a6057613a60614d1d565b604051908082528060200260200182016040528015613a89578160200160208202803683370190505b5092508067ffffffffffffffff811115613aa557613aa5614d1d565b604051908082528060200260200182016040528015613ace578160200160208202803683370190505b5091505f5b81811015613b5c57613af0868683818110612c0957612c096153b3565b613b1a868683818110613b0557613b056153b3565b9050602002016020810190611ced9190615125565b858381518110613b2c57613b2c6153b3565b60200260200101858481518110613b4557613b456153b3565b602090810291909101019190915252600101613ad3565b50509250929050565b8073ffffffffffffffffffffffffffffffffffffffff163b5f03612e86576040517fdcab82e200000000000000000000000000000000000000000000000000000000815261272a60048201526024016102fc565b73ffffffffffffffffffffffffffffffffffffffff81163b158015613c08575073ffffffffffffffffffffffffffffffffffffffff811673eeeeeeeeeeeeeeeeeeeeeeeeeeeeeeeeeeeeeeee14155b15612e86576040517fdcab82e200000000000000000000000000000000000000000000000000000000815261272a60048201526024016102fc565b5f5f856fffffffffffffffffffffffffffffffff811115613c655760809150811c5b67ffffffffffffffff811115613c7d576040918201911c5b63ffffffff811115613c91576020918201911c5b61ffff811115613ca3576010918201911c5b60ff811115613cb4576008918201911c5b600f811115613cc5576004918201911c5b6003811115613cd6576002918201911c5b6001811115613ce6576001820191505b8015613cf3576001820191505b5084811015613cff5750835b848103905085811c5f8211841615613d4d57600181019050806001871b03613d4d57506001908101907fffffffffffffffffffffffffffffffffffffffffffffffffffffffffffffffff86011b5b6001851b8210613d5b575f5ffd5b90931b909201949350505050565b73ffffffffffffffffffffffffffffffffffffffff81165f908152600560205260408120548190613d9981614524565b909350915067ffffffffffffffff831180613dbb575067ffffffffffffffff82115b15613df6576040517fdcab82e200000000000000000000000000000000000000000000000000000000815261272860048201526024016102fc565b73ffffffffffffffffffffffffffffffffffffffff84165f81815260056020526040908190207ffffffffff80000000000000000000000000000000000000003ffffffffffffff841642603a1b17605b87901b17609b86901b17905551839185917f96c40bed7fc8d0ac41633a3bd47f254f0b0076e5df70975c51d23514bc49d3b890613e9b9061ffff871690601e88901c613fff1690918252602082015260400190565b60405180910390a450915091565b5f827fffffffffffffffffffffffffffffffffffffffffffffffffffffffffffffffff0484118302158202613edc575f5ffd5b50910281810615159190040190565b73ffffffffffffffffffffffffffffffffffffffff81165f908152600560205260408120548190613f1b81614524565b73ffffffffffffffffffffffffffffffffffffffff86165f9081526007602052604081205492955090935064e8d4a51000613f6886600885901c66ffffffffffffff1660ff86161b615424565b613f729190615481565b90505f64e8d4a51000613f9b86608886901c66ffffffffffffff16608087901c60ff161b615424565b613fa59190615481565b90505f66ffffffffffffff604885901c1660ff604086901c161b90505f60c885901c60ff60c087901c161b90505f84151580613fe057505f83115b1561401357613fef83866154b9565b612710613ffc84876154b9565b6140069190615424565b6140109190615481565b90505b8285111561403d5760018561402a61271086615424565b6140349190615481565b901b945061407e565b8285101561406a5760018361405461271088615424565b61405e9190615481565b901b600117945061407e565b841561407a57614e20945061407e565b5f94505b818411156140a85760018461409561271085615424565b61409f9190615481565b901b93506140e9565b818410156140d5576001826140bf61271087615424565b6140c99190615481565b901b60011793506140e9565b83156140e557614e2093506140e9565b5f93505b73ffffffffffffffffffffffffffffffffffffffff8a165f908152600660205260408120546141189083614a69565b905067ffffffffffffffff8a1180614137575067ffffffffffffffff89115b15614172576040517fdcab82e200000000000000000000000000000000000000000000000000000000815261272860048201526024016102fc565b613fff8211156141b2576040517fdcab82e200000000000000000000000000000000000000000000000000000000815261272960048201526024016102fc565b73ffffffffffffffffffffffffffffffffffffffff8b165f81815260056020526040908190207ffe000000000000000000000000000000000000000000000003fff0003fff00008b168417601e86901b1742603a1b17605b8e901b17609b8d901b1760db8a901b1760ea89901b179055518a918c917f96c40bed7fc8d0ac41633a3bd47f254f0b0076e5df70975c51d23514bc49d3b89061425f9086908890918252602082015260400190565b60405180910390a45050505050505050915091565b73ffffffffffffffffffffffffffffffffffffffff8116612e86576040517fdcab82e200000000000000000000000000000000000000000000000000000000815261271160048201526024016102fc565b5f73ffffffffffffffffffffffffffffffffffffffff821673eeeeeeeeeeeeeeeeeeeeeeeeeeeeeeeeeeeeeeee14614369578173ffffffffffffffffffffffffffffffffffffffff1663313ce5676040518163ffffffff1660e01b8152600401602060405180830381865afa158015614340573d5f5f3e3d5ffd5b505050506040513d601f19601f8201168201806040525081019061436491906159e8565b61436c565b60125b9050600660ff821610806143835750601260ff8216115b156143be576040517fdcab82e200000000000000000000000000000000000000000000000000000000815261272c60048201526024016102fc565b5050565b5f61ffff82604001511115614407576040517fdcab82e200000000000000000000000000000000000000000000000000000000815261271c60048201526024016102fc565b61ffff8260600151111561444b576040517fdcab82e200000000000000000000000000000000000000000000000000000000815261271d60048201526024016102fc565b61ffff8260800151111561448f576040517fdcab82e200000000000000000000000000000000000000000000000000000000815261271e60048201526024016102fc565b602082015115806144a65750612710826020015110155b806144b8575081608001518260600151115b156144f3576040517fdcab82e200000000000000000000000000000000000000000000000000000000815261271660048201526024016102fc565b60348260800151901b60248360600151901b60148460200151901b60048560400151901b6001171717179050919050565b67ffffffffffffffff605b82901c811690609b83901c16811580614546575080155b15614582576040517fd50d75120000000000000000000000000000000000000000000000000000000081526201117160048201526024016102fc565b61ffff8316603a84901c6401ffffffff16428181039160ea87901c617fff169114806145ac575082155b806145b75750806001145b156145c457505050915091565b64496cebb80084840283020484019350617fff60db87901c169250826001036145ef57505050915091565b826001166001036146445760019290921c91826c7e37be2022c0914b26800000008161461d5761461d615454565b049250612710601e87901c613fff166b033b2e3c9fd0803ce8000000850102049250614671565b60019290921c916305f5e100601e87901c613fff166127108501026b033b2e3c9fd0803ce8000000020492505b806001166001036146a85760011c61271081016b033b2e3c9fd0803ce80000008202816146a0576146a0615454565b0490506146de565b60011c61271081016b033b2e3c9fd0803ce80000008202816146cc576146cc615454565b046b033b2e3c9fd0803ce80000000390505b760a70c3c40a64e6c51999090b65f67d92400000000000008382026127100261ffff881691900402601087901c613fff16612710030292506801b5a660ea44b8000085840283020485019450505050915091565b5f61ffff82606001511115614777576040517fdcab82e200000000000000000000000000000000000000000000000000000000815261271c60048201526024016102fc565b61ffff826080015111156147bb576040517fdcab82e200000000000000000000000000000000000000000000000000000000815261271f60048201526024016102fc565b61ffff8260a0015111156147ff576040517fdcab82e200000000000000000000000000000000000000000000000000000000815261272060048201526024016102fc565b61ffff8260c001511115614843576040517fdcab82e200000000000000000000000000000000000000000000000000000000815261272160048201526024016102fc565b6020820151158061485a5750612710826020015110155b8061486d57508160400151826020015110155b8061487e5750612710826040015110155b8061489057508160c001518260a00151115b156148cb576040517fdcab82e200000000000000000000000000000000000000000000000000000000815261271660048201526024016102fc565b60548260c00151901b60448360a00151901b60348460400151901b60248560800151901b60148660200151901b60048760600151901b60021717171717179050919050565b5f5f5f61491c85614524565b915091505f61492b8784614b10565b905080156149675761493d8783614b63565b61494790866154b9565b9350808411614956575f614960565b6149608185615441565b935061496b565b8493505b5050509392505050565b5f5f5f5f5f858761c350f19050806149be576040517fdee51a8a0000000000000000000000000000000000000000000000000000000081526201155a60048201526024016102fc565b505050565b5f6040517fa9059cbb00000000000000000000000000000000000000000000000000000000815273ffffffffffffffffffffffffffffffffffffffff8416600482015282602482015260205f6044835f895af13d15601f3d1160015f511416171691505080614a63576040517fdee51a8a0000000000000000000000000000000000000000000000000000000081526201155a60048201526024016102fc565b50505050565b5f600f83166001819003614a8857614a818484614b9d565b9150614ad1565b80600203614a9a57614a818484614c78565b6040517fd50d75120000000000000000000000000000000000000000000000000000000081526201117260048201526024016102fc565b61ffff821115614b095760405161ffff92507fe41708b2641eb1f7442f6a1e760ae5098fd7ba9f85e0c101513add0fbb27bcd7905f90a15b5092915050565b66ffffffffffffff604883901c811660ff604085901c81169190911b91600885901c169084161b64e8d4a51000614b478483615424565b614b519190615481565b614b5b90836154b9565b949350505050565b60c882901c60ff60c084901c81169190911b9066ffffffffffffff608885901c16608085901c9091161b64e8d4a51000614b478483615424565b5f80808080601487901c61ffff1680871015614bd45761ffff600489901c16945061ffff602489901c1693505f9250809150614bf3565b61ffff602489901c16945061ffff603489901c16935080925061271091505b5f5f84840364e8d4a510008888030281614c0f57614c0f615454565b0585810264e8d4a5100089020392508902820190505f811215614c63576040517fd50d75120000000000000000000000000000000000000000000000000000000081526201117360048201526024016102fc565b64e8d4a5100090049998505050505050505050565b5f80808080601487901c61ffff1680871015614caf5761ffff600489901c16945061ffff602489901c1693505f9250809150614bf3565b603488901c61ffff1680881015614ce15761ffff60248a901c16955061ffff60448a901c169450819350809250614d00565b61ffff60448a901c16955061ffff60548a901c16945080935061271092505b505f5f84840364e8d4a510008888030281614c0f57614c0f615454565b7f4e487b71000000000000000000000000000000000000000000000000000000005f52604160045260245ffd5b60405160e0810167ffffffffffffffff81118282101715614d6d57614d6d614d1d565b60405290565b60405160c0810167ffffffffffffffff81118282101715614d6d57614d6d614d1d565b604051601f82017fffffffffffffffffffffffffffffffffffffffffffffffffffffffffffffffe016810167ffffffffffffffff81118282101715614ddd57614ddd614d1d565b604052919050565b5f67ffffffffffffffff821115614dfe57614dfe614d1d565b5060051b60200190565b803573ffffffffffffffffffffffffffffffffffffffff81168114614e2b575f5ffd5b919050565b60ff81168114612e86575f5ffd5b5f60208284031215614e4e575f5ffd5b813567ffffffffffffffff811115614e64575f5ffd5b8201601f81018413614e74575f5ffd5b8035614e87614e8282614de5565b614d96565b80828252602082019150602060e08402850101925086831115614ea8575f5ffd5b6020840193505b82841015614f385760e08488031215614ec6575f5ffd5b614ece614d4a565b614ed785614e08565b8152614ee560208601614e08565b60208201526040850135614ef881614e30565b6040820152606085810135908201526080808601359082015260a0808601359082015260c08086013590820152825260e090930192602090910190614eaf565b9695505050505050565b5f60208284031215614f52575f5ffd5b813567ffffffffffffffff811115614f68575f5ffd5b8201601f81018413614f78575f5ffd5b8035614f86614e8282614de5565b80828252602082019150602060c08402850101925086831115614fa7575f5ffd5b6020840193505b82841015614f385760c08488031215614fc5575f5ffd5b614fcd614d73565b614fd685614e08565b8152614fe460208601614e08565b60208201526040850135614ff781614e30565b6040820152606085810135908201526080808601359082015260a08086013590820152825260c090930192602090910190614fae565b5f5f83601f84011261503d575f5ffd5b50813567ffffffffffffffff811115615054575f5ffd5b6020830191508360208260061b850101111561506e575f5ffd5b9250929050565b5f5f60208385031215615086575f5ffd5b823567ffffffffffffffff81111561509c575f5ffd5b6150a88582860161502d565b90969095509350505050565b5f5f602083850312156150c5575f5ffd5b823567ffffffffffffffff8111156150db575f5ffd5b8301601f810185136150eb575f5ffd5b803567ffffffffffffffff811115615101575f5ffd5b85602060a083028401011115615115575f5ffd5b6020919091019590945092505050565b5f60208284031215615135575f5ffd5b61513e82614e08565b9392505050565b5f5f60208385031215615156575f5ffd5b823567ffffffffffffffff81111561516c575f5ffd5b8301601f8101851361517c575f5ffd5b803567ffffffffffffffff811115615192575f5ffd5b8560208260071b8401011115615115575f5ffd5b5f5f5f606084860312156151b8575f5ffd5b6151c184614e08565b92506151cf60208501614e08565b929592945050506040919091013590565b5f5f602083850312156151f1575f5ffd5b823567ffffffffffffffff811115615207575f5ffd5b8301601f81018513615217575f5ffd5b803567ffffffffffffffff81111561522d575f5ffd5b85602060e083028401011115615115575f5ffd5b5f5f83601f840112615251575f5ffd5b50813567ffffffffffffffff811115615268575f5ffd5b6020830191508360208260051b850101111561506e575f5ffd5b5f5f60208385031215615293575f5ffd5b823567ffffffffffffffff8111156152a9575f5ffd5b6150a885828601615241565b5f5f5f5f5f606086880312156152c9575f5ffd5b6152d286614e08565b9450602086013567ffffffffffffffff8111156152ed575f5ffd5b6152f988828901615241565b909550935050604086013567ffffffffffffffff811115615318575f5ffd5b61532488828901615241565b969995985093965092949392505050565b5f60208284031215615345575f5ffd5b5035919050565b5f8151808452602084019350602083015f5b8281101561537c57815186526020958601959091019060010161535e565b5093949350505050565b604081525f615398604083018561534c565b82810360208401526153aa818561534c565b95945050505050565b7f4e487b71000000000000000000000000000000000000000000000000000000005f52603260045260245ffd5b5f602082840312156153f0575f5ffd5b5051919050565b7f4e487b71000000000000000000000000000000000000000000000000000000005f52601160045260245ffd5b808202811582820484141761543b5761543b6153f7565b92915050565b8181038181111561543b5761543b6153f7565b7f4e487b71000000000000000000000000000000000000000000000000000000005f52601260045260245ffd5b5f826154b4577f4e487b71000000000000000000000000000000000000000000000000000000005f52601260045260245ffd5b500490565b8082018082111561543b5761543b6153f7565b602080825282518282018190525f918401906040840190835b8181101561557657835173ffffffffffffffffffffffffffffffffffffffff815116845273ffffffffffffffffffffffffffffffffffffffff602082015116602085015260ff6040820151166040850152606081015160608501526080810151608085015260a081015160a085015260c081015160c08501525060e0830192506020840193506001810190506154e5565b509095945050505050565b602080825282518282018190525f918401906040840190835b8181101561557657835173ffffffffffffffffffffffffffffffffffffffff815116845273ffffffffffffffffffffffffffffffffffffffff602082015116602085015260ff6040820151166040850152606081015160608501526080810151608085015260a081015160a08501525060c08301925060208401935060018101905061559a565b80358015158114614e2b575f5ffd5b5f60208284031215615640575f5ffd5b61513e82615621565b602080825281018290525f8360408301825b858110156156a95773ffffffffffffffffffffffffffffffffffffffff61568184614e08565b16825261569060208401615621565b151560208301526040928301929091019060010161565b565b5095945050505050565b5f60a08284031280156156c4575f5ffd5b5060405160a0810167ffffffffffffffff811182821017156156e8576156e8614d1d565b6040526156f483614e08565b81526020838101359082015260408084013590820152606080840135908201526080928301359281019290925250919050565b602080825281018290525f8360408301825b858110156156a95773ffffffffffffffffffffffffffffffffffffffff61575f84614e08565b1682526020838101359083015260408084013590830152606080840135908301526080808401359083015260a09283019290910190600101615739565b602080825281018290525f8360408301825b858110156156a95773ffffffffffffffffffffffffffffffffffffffff6157d484614e08565b168252602083810135908301526040808401359083015260608084013590830152608092830192909101906001016157ae565b5f60e0828403128015615818575f5ffd5b50615821614d4a565b61582a83614e08565b81526020838101359082015260408084013590820152606080840135908201526080808401359082015260a0808401359082015260c0928301359281019290925250919050565b602080825281018290525f8360408301825b858110156156a95773ffffffffffffffffffffffffffffffffffffffff6158a984614e08565b1682526020838101359083015260408084013590830152606080840135908301526080808401359083015260a0808401359083015260c0808401359083015260e09283019290910190600101615883565b602080825281018290525f8360408301825b858110156156a95773ffffffffffffffffffffffffffffffffffffffff61593284614e08565b168252602083810135908301526040928301929091019060010161590c565b8183526020830192505f815f5b8481101561537c5773ffffffffffffffffffffffffffffffffffffffff61598483614e08565b168652602095860195919091019060010161595e565b73ffffffffffffffffffffffffffffffffffffffff86168152606060208201525f6159c9606083018688615951565b82810360408401526159dc818587615951565b98975050505050505050565b5f602082840312156159f8575f5ffd5b815161513e81614e3056fea264697066735822122008bd0920174b5eb43a01248970f97092c8057968b0ce40564ca268ed483ca38464736f6c634300081d0033",
  "devdoc": {
    "kind": "dev",
    "methods": {
      "changeStatus(uint256)": {
        "params": {
          "newStatus_": "new status        status = 2 -> pause, status = 1 -> resume."
        }
      },
      "collectRevenue(address[])": {
        "details": "Note that this can revert if token balance is < revenueAmount (utilization > 100%)",
        "params": {
          "tokens_": "array of tokens to collect revenue for"
        }
      },
      "pauseUser(address,address[],address[])": {
        "params": {
          "borrowTokens_": "token addresses to pause borrowings for",
          "supplyTokens_": "token addresses to pause withdrawals for",
          "user_": "address of user to pause operations for"
        }
      },
      "unpauseUser(address,address[],address[])": {
        "params": {
          "borrowTokens_": "token addresses to unpause borrowings for",
          "supplyTokens_": "token addresses to unpause withdrawals for",
          "user_": "address of user to unpause operations for"
        }
      },
      "updateAuths((address,bool)[])": {
        "params": {
          "authsStatus_": "array of structs setting allowed status for an address.                     status true => add auth, false => remove auth"
        }
      },
      "updateExchangePrices(address[])": {
        "params": {
          "tokens_": "tokens to update exchange prices for"
        },
        "returns": {
          "borrowExchangePrices_": "new borrow rates of overall system for each token",
          "supplyExchangePrices_": "new supply rates of overall system for each token"
        }
      },
      "updateGuardians((address,bool)[])": {
        "params": {
          "guardiansStatus_": "array of structs setting allowed status for an address.                         status true => add guardian, false => remove guardian"
        }
      },
      "updateRateDataV1s((address,uint256,uint256,uint256,uint256)[])": {
        "params": {
          "tokensRateData_": "array of RateDataV1Params with rate data to set for each token"
        }
      },
      "updateRateDataV2s((address,uint256,uint256,uint256,uint256,uint256,uint256)[])": {
        "params": {
          "tokensRateData_": "array of RateDataV2Params with rate data to set for each token"
        }
      },
      "updateRevenueCollector(address)": {
        "params": {
          "revenueCollector_": "new revenue collector address"
        }
      },
      "updateTokenConfigs((address,uint256,uint256,uint256)[])": {
        "params": {
          "tokenConfigs_": "contains token address, fee & utilization threshold"
        }
      },
      "updateUserBorrowConfigs((address,address,uint8,uint256,uint256,uint256,uint256)[])": {
        "params": {
          "userBorrowConfigs_": "struct array containing user borrow config, see `UserBorrowConfig` struct for more info"
        }
      },
      "updateUserClasses((address,uint256)[])": {
        "params": {
          "userClasses_": "struct array of uint256 value to assign for each user address"
        }
      },
      "updateUserSupplyConfigs((address,address,uint8,uint256,uint256,uint256)[])": {
        "params": {
          "userSupplyConfigs_": "struct array containing user supply config, see `UserSupplyConfig` struct for more info"
        }
      },
      "updateUserWithdrawalLimit(address,address,uint256)": {
        "params": {
          "newLimit_": "new limit until which user supply can decrease to.                  Important: input in raw. Must account for exchange price in input param calculation.                  Note any limit that is < max expansion or > current user supply will set max expansion limit or                  current user supply as limit respectively.                  - set 0 to make maximum possible withdrawable: instant full expansion, and if that goes                  below base limit then fully down to 0.                  - set type(uint256).max to make current withdrawable 0 (sets current user supply as limit).",
          "token_": "token address for which to update the withdrawal limit",
          "user_": "user address for which to update the withdrawal limit"
        }
      }
    },
    "version": 1
  },
  "userdoc": {
    "events": {
      "BorrowRateMaxCap()": {
        "notice": "emitted if the calculated borrow rate surpassed max borrow rate (16 bits) and was capped at maximum value 65535"
      },
      "LogChangeStatus(uint256)": {
        "notice": "emitted when status is changed (paused / unpaused)"
      },
      "LogCollectRevenue(address,uint256)": {
        "notice": "emitted when revenue is collected"
      },
      "LogPauseUser(address,address[],address[])": {
        "notice": "emitted when a user gets certain tokens paused"
      },
      "LogUnpauseUser(address,address[],address[])": {
        "notice": "emitted when a user gets certain tokens unpaused"
      },
      "LogUpdateAuths((address,bool)[])": {
        "notice": "emitted when allowed auths are updated"
      },
      "LogUpdateExchangePrices(address,uint256,uint256,uint256,uint256)": {
        "notice": "emitted when exchange prices and borrow rate are updated"
      },
      "LogUpdateGuardians((address,bool)[])": {
        "notice": "emitted when allowed guardians are updated"
      },
      "LogUpdateRateDataV1s((address,uint256,uint256,uint256,uint256)[])": {
        "notice": "emitted when token rate data is updated with rate data v1"
      },
      "LogUpdateRateDataV2s((address,uint256,uint256,uint256,uint256,uint256,uint256)[])": {
        "notice": "emitted when token rate data is updated with rate data v2"
      },
      "LogUpdateRevenueCollector(address)": {
        "notice": "emitted when revenue collector address is updated"
      },
      "LogUpdateTokenConfigs((address,uint256,uint256,uint256)[])": {
        "notice": "emitted when token configs are updated"
      },
      "LogUpdateUserBorrowConfigs((address,address,uint8,uint256,uint256,uint256,uint256)[])": {
        "notice": "emitted when user borrow configs are updated"
      },
      "LogUpdateUserClasses((address,uint256)[])": {
        "notice": "emitted when user classes are updated"
      },
      "LogUpdateUserSupplyConfigs((address,address,uint8,uint256,uint256,uint256)[])": {
        "notice": "emitted when user supply configs are updated"
      },
      "LogUpdateUserWithdrawalLimit(address,address,uint256)": {
        "notice": "emitted when user withdrawal limit is updated"
      }
    },
    "kind": "user",
    "methods": {
      "changeStatus(uint256)": {
        "notice": "changes current status, e.g. for pausing or unpausing all user operations. Only callable by Auths."
      },
      "collectRevenue(address[])": {
        "notice": "collects revenue for tokens to configured revenueCollector address."
      },
      "pauseUser(address,address[],address[])": {
        "notice": "pause operations for a particular user in class 0 (class 1 users can't be paused by guardians). Only callable by Guardians."
      },
      "unpauseUser(address,address[],address[])": {
        "notice": "unpause operations for a particular user in class 0 (class 1 users can't be paused by guardians). Only callable by Guardians."
      },
      "updateAuths((address,bool)[])": {
        "notice": "adds/removes auths. Auths generally could be contracts which can have restricted actions defined on contract.         auths can be helpful in reducing governance overhead where it's not needed."
      },
      "updateExchangePrices(address[])": {
        "notice": "gets the current updated exchange prices for n tokens and updates all prices, rates related data in storage."
      },
      "updateGuardians((address,bool)[])": {
        "notice": "adds/removes guardians. Only callable by Governance."
      },
      "updateRateDataV1s((address,uint256,uint256,uint256,uint256)[])": {
        "notice": "update tokens rate data version 1. Only callable by Auths."
      },
      "updateRateDataV2s((address,uint256,uint256,uint256,uint256,uint256,uint256)[])": {
        "notice": "update tokens rate data version 2. Only callable by Auths."
      },
      "updateRevenueCollector(address)": {
        "notice": "changes the revenue collector address (contract that is sent revenue). Only callable by Governance."
      },
      "updateTokenConfigs((address,uint256,uint256,uint256)[])": {
        "notice": "updates token configs: fee charge on borrowers interest & storage update utilization threshold.         Only callable by Auths."
      },
      "updateUserBorrowConfigs((address,address,uint8,uint256,uint256,uint256,uint256)[])": {
        "notice": "setting user borrow configs per token basis. Eg: with interest or interest-free and automated limits.         Only callable by Auths."
      },
      "updateUserClasses((address,uint256)[])": {
        "notice": "updates user classes: 0 is for new protocols, 1 is for established protocols.         Only callable by Auths."
      },
      "updateUserSupplyConfigs((address,address,uint8,uint256,uint256,uint256)[])": {
        "notice": "sets user supply configs per token basis. Eg: with interest or interest-free and automated limits.         Only callable by Auths.         Resets decay limit to 0."
      },
      "updateUserWithdrawalLimit(address,address,uint256)": {
        "notice": "sets a new withdrawal limit as the current limit for a certain user. Resets decay limit to 0"
      }
    },
    "version": 1
  },
  "storageLayout": {
    "storage": [
      {
        "astId": 8465,
        "contract": "contracts/liquidity/adminModule/mainOthers.sol:FluidLiquidityAdminModuleOthers",
        "label": "_revenueCollector",
        "offset": 0,
        "slot": "0",
        "type": "t_address"
      },
      {
        "astId": 8468,
        "contract": "contracts/liquidity/adminModule/mainOthers.sol:FluidLiquidityAdminModuleOthers",
        "label": "_status",
        "offset": 0,
        "slot": "1",
        "type": "t_uint256"
      },
      {
        "astId": 8473,
        "contract": "contracts/liquidity/adminModule/mainOthers.sol:FluidLiquidityAdminModuleOthers",
        "label": "_isAuth",
        "offset": 0,
        "slot": "2",
        "type": "t_mapping(t_address,t_uint256)"
      },
      {
        "astId": 8478,
        "contract": "contracts/liquidity/adminModule/mainOthers.sol:FluidLiquidityAdminModuleOthers",
        "label": "_isGuardian",
        "offset": 0,
        "slot": "3",
        "type": "t_mapping(t_address,t_uint256)"
      },
      {
        "astId": 8483,
        "contract": "contracts/liquidity/adminModule/mainOthers.sol:FluidLiquidityAdminModuleOthers",
        "label": "_userClass",
        "offset": 0,
        "slot": "4",
        "type": "t_mapping(t_address,t_uint256)"
      },
      {
        "astId": 8488,
        "contract": "contracts/liquidity/adminModule/mainOthers.sol:FluidLiquidityAdminModuleOthers",
        "label": "_exchangePricesAndConfig",
        "offset": 0,
        "slot": "5",
        "type": "t_mapping(t_address,t_uint256)"
      },
      {
        "astId": 8493,
        "contract": "contracts/liquidity/adminModule/mainOthers.sol:FluidLiquidityAdminModuleOthers",
        "label": "_rateData",
        "offset": 0,
        "slot": "6",
        "type": "t_mapping(t_address,t_uint256)"
      },
      {
        "astId": 8498,
        "contract": "contracts/liquidity/adminModule/mainOthers.sol:FluidLiquidityAdminModuleOthers",
        "label": "_totalAmounts",
        "offset": 0,
        "slot": "7",
        "type": "t_mapping(t_address,t_uint256)"
      },
      {
        "astId": 8505,
        "contract": "contracts/liquidity/adminModule/mainOthers.sol:FluidLiquidityAdminModuleOthers",
        "label": "_userSupplyData",
        "offset": 0,
        "slot": "8",
        "type": "t_mapping(t_address,t_mapping(t_address,t_uint256))"
      },
      {
        "astId": 8512,
        "contract": "contracts/liquidity/adminModule/mainOthers.sol:FluidLiquidityAdminModuleOthers",
        "label": "_userBorrowData",
        "offset": 0,
        "slot": "9",
        "type": "t_mapping(t_address,t_mapping(t_address,t_uint256))"
      },
      {
        "astId": 8516,
        "contract": "contracts/liquidity/adminModule/mainOthers.sol:FluidLiquidityAdminModuleOthers",
        "label": "_listedTokens",
        "offset": 0,
        "slot": "10",
        "type": "t_array(t_address)dyn_storage"
      },
      {
        "astId": 8521,
        "contract": "contracts/liquidity/adminModule/mainOthers.sol:FluidLiquidityAdminModuleOthers",
        "label": "_configs2",
        "offset": 0,
        "slot": "11",
        "type": "t_mapping(t_address,t_uint256)"
      }
    ],
    "types": {
      "t_address": {
        "encoding": "inplace",
        "label": "address",
        "numberOfBytes": "20"
      },
      "t_array(t_address)dyn_storage": {
        "base": "t_address",
        "encoding": "dynamic_array",
        "label": "address[]",
        "numberOfBytes": "32"
      },
      "t_mapping(t_address,t_mapping(t_address,t_uint256))": {
        "encoding": "mapping",
        "key": "t_address",
        "label": "mapping(address => mapping(address => uint256))",
        "numberOfBytes": "32",
        "value": "t_mapping(t_address,t_uint256)"
      },
      "t_mapping(t_address,t_uint256)": {
        "encoding": "mapping",
        "key": "t_address",
        "label": "mapping(address => uint256)",
        "numberOfBytes": "32",
        "value": "t_uint256"
      },
      "t_uint256": {
        "encoding": "inplace",
        "label": "uint256",
        "numberOfBytes": "32"
      }
    }
  }
}