{
  "address": "0x91716C4EDA1Fb55e84Bf8b4c7085f84285c19085",
  "abi": [
    {
      "inputs": [
        {
          "internalType": "address",
          "name": "owner_",
          "type": "address"
        }
      ],
      "stateMutability": "nonpayable",
      "type": "constructor"
    },
    {
      "inputs": [
        {
          "internalType": "uint256",
          "name": "errorId_",
          "type": "uint256"
        }
      ],
      "name": "FluidDexError",
      "type": "error"
    },
    {
      "inputs": [
        {
          "internalType": "uint256",
          "name": "errorId",
          "type": "uint256"
        }
      ],
      "name": "FluidDexFactoryError",
      "type": "error"
    },
    {
      "inputs": [
        {
          "internalType": "uint256",
          "name": "shares_",
          "type": "uint256"
        }
      ],
      "name": "FluidDexLiquidityOutput",
      "type": "error"
    },
    {
      "inputs": [
        {
          "internalType": "uint256",
          "name": "token0Amt",
          "type": "uint256"
        },
        {
          "internalType": "uint256",
          "name": "token1Amt",
          "type": "uint256"
        }
      ],
      "name": "FluidDexPerfectLiquidityOutput",
      "type": "error"
    },
    {
      "inputs": [
        {
          "components": [
            {
              "internalType": "uint256",
              "name": "lastStoredPrice",
              "type": "uint256"
            },
            {
              "internalType": "uint256",
              "name": "centerPrice",
              "type": "uint256"
            },
            {
              "internalType": "uint256",
              "name": "upperRange",
              "type": "uint256"
            },
            {
              "internalType": "uint256",
              "name": "lowerRange",
              "type": "uint256"
            },
            {
              "internalType": "uint256",
              "name": "geometricMean",
              "type": "uint256"
            },
            {
              "internalType": "uint256",
              "name": "supplyToken0ExchangePrice",
              "type": "uint256"
            },
            {
              "internalType": "uint256",
              "name": "borrowToken0ExchangePrice",
              "type": "uint256"
            },
            {
              "internalType": "uint256",
              "name": "supplyToken1ExchangePrice",
              "type": "uint256"
            },
            {
              "internalType": "uint256",
              "name": "borrowToken1ExchangePrice",
              "type": "uint256"
            }
          ],
          "internalType": "struct Structs.PricesAndExchangePrice",
          "name": "pex_",
          "type": "tuple"
        }
      ],
      "name": "FluidDexPricesAndExchangeRates",
      "type": "error"
    },
    {
      "inputs": [
        {
          "internalType": "uint256",
          "name": "tokenAmt",
          "type": "uint256"
        }
      ],
      "name": "FluidDexSingleTokenOutput",
      "type": "error"
    },
    {
      "inputs": [
        {
          "internalType": "uint256",
          "name": "amountOut",
          "type": "uint256"
        }
      ],
      "name": "FluidDexSwapResult",
      "type": "error"
    },
    {
      "anonymous": false,
      "inputs": [
        {
          "indexed": true,
          "internalType": "address",
          "name": "dex",
          "type": "address"
        },
        {
          "indexed": true,
          "internalType": "uint256",
          "name": "dexId",
          "type": "uint256"
        }
      ],
      "name": "LogDexDeployed",
      "type": "event"
    },
    {
      "anonymous": false,
      "inputs": [
        {
          "indexed": true,
          "internalType": "address",
          "name": "deployer",
          "type": "address"
        },
        {
          "indexed": true,
          "internalType": "bool",
          "name": "allowed",
          "type": "bool"
        }
      ],
      "name": "LogSetDeployer",
      "type": "event"
    },
    {
      "anonymous": false,
      "inputs": [
        {
          "indexed": true,
          "internalType": "address",
          "name": "dexAuth",
          "type": "address"
        },
        {
          "indexed": true,
          "internalType": "bool",
          "name": "allowed",
          "type": "bool"
        },
        {
          "indexed": true,
          "internalType": "address",
          "name": "dex",
          "type": "address"
        }
      ],
      "name": "LogSetDexAuth",
      "type": "event"
    },
    {
      "anonymous": false,
      "inputs": [
        {
          "indexed": true,
          "internalType": "address",
          "name": "dexDeploymentLogic",
          "type": "address"
        },
        {
          "indexed": true,
          "internalType": "bool",
          "name": "allowed",
          "type": "bool"
        }
      ],
      "name": "LogSetDexDeploymentLogic",
      "type": "event"
    },
    {
      "anonymous": false,
      "inputs": [
        {
          "indexed": true,
          "internalType": "address",
          "name": "globalAuth",
          "type": "address"
        },
        {
          "indexed": true,
          "internalType": "bool",
          "name": "allowed",
          "type": "bool"
        }
      ],
      "name": "LogSetGlobalAuth",
      "type": "event"
    },
    {
      "anonymous": false,
      "inputs": [
        {
          "indexed": true,
          "internalType": "address",
          "name": "user",
          "type": "address"
        },
        {
          "indexed": true,
          "internalType": "address",
          "name": "newOwner",
          "type": "address"
        }
      ],
      "name": "OwnershipTransferred",
      "type": "event"
    },
    {
      "inputs": [
        {
          "internalType": "address",
          "name": "dexDeploymentLogic_",
          "type": "address"
        },
        {
          "internalType": "bytes",
          "name": "dexDeploymentData_",
          "type": "bytes"
        }
      ],
      "name": "deployDex",
      "outputs": [
        {
          "internalType": "address",
          "name": "dex_",
          "type": "address"
        }
      ],
      "stateMutability": "nonpayable",
      "type": "function"
    },
    {
      "inputs": [
        {
          "internalType": "uint256",
          "name": "dexId_",
          "type": "uint256"
        }
      ],
      "name": "getDexAddress",
      "outputs": [
        {
          "internalType": "address",
          "name": "dex_",
          "type": "address"
        }
      ],
      "stateMutability": "view",
      "type": "function"
    },
    {
      "inputs": [
        {
          "internalType": "address",
          "name": "deployer_",
          "type": "address"
        }
      ],
      "name": "isDeployer",
      "outputs": [
        {
          "internalType": "bool",
          "name": "",
          "type": "bool"
        }
      ],
      "stateMutability": "view",
      "type": "function"
    },
    {
      "inputs": [
        {
          "internalType": "address",
          "name": "dex_",
          "type": "address"
        }
      ],
      "name": "isDex",
      "outputs": [
        {
          "internalType": "bool",
          "name": "",
          "type": "bool"
        }
      ],
      "stateMutability": "view",
      "type": "function"
    },
    {
      "inputs": [
        {
          "internalType": "address",
          "name": "dex_",
          "type": "address"
        },
        {
          "internalType": "address",
          "name": "dexAuth_",
          "type": "address"
        }
      ],
      "name": "isDexAuth",
      "outputs": [
        {
          "internalType": "bool",
          "name": "",
          "type": "bool"
        }
      ],
      "stateMutability": "view",
      "type": "function"
    },
    {
      "inputs": [
        {
          "internalType": "address",
          "name": "dexDeploymentLogic_",
          "type": "address"
        }
      ],
      "name": "isDexDeploymentLogic",
      "outputs": [
        {
          "internalType": "bool",
          "name": "",
          "type": "bool"
        }
      ],
      "stateMutability": "view",
      "type": "function"
    },
    {
      "inputs": [
        {
          "internalType": "address",
          "name": "globalAuth_",
          "type": "address"
        }
      ],
      "name": "isGlobalAuth",
      "outputs": [
        {
          "internalType": "bool",
          "name": "",
          "type": "bool"
        }
      ],
      "stateMutability": "view",
      "type": "function"
    },
    {
      "inputs": [],
      "name": "owner",
      "outputs": [
        {
          "internalType": "address",
          "name": "",
          "type": "address"
        }
      ],
      "stateMutability": "view",
      "type": "function"
    },
    {
      "inputs": [
        {
          "internalType": "bytes32",
          "name": "slot_",
          "type": "bytes32"
        }
      ],
      "name": "readFromStorage",
      "outputs": [
        {
          "internalType": "uint256",
          "name": "result_",
          "type": "uint256"
        }
      ],
      "stateMutability": "view",
      "type": "function"
    },
    {
      "inputs": [
        {
          "internalType": "address",
          "name": "deployer_",
          "type": "address"
        },
        {
          "internalType": "bool",
          "name": "allowed_",
          "type": "bool"
        }
      ],
      "name": "setDeployer",
      "outputs": [],
      "stateMutability": "nonpayable",
      "type": "function"
    },
    {
      "inputs": [
        {
          "internalType": "address",
          "name": "dex_",
          "type": "address"
        },
        {
          "internalType": "address",
          "name": "dexAuth_",
          "type": "address"
        },
        {
          "internalType": "bool",
          "name": "allowed_",
          "type": "bool"
        }
      ],
      "name": "setDexAuth",
      "outputs": [],
      "stateMutability": "nonpayable",
      "type": "function"
    },
    {
      "inputs": [
        {
          "internalType": "address",
          "name": "deploymentLogic_",
          "type": "address"
        },
        {
          "internalType": "bool",
          "name": "allowed_",
          "type": "bool"
        }
      ],
      "name": "setDexDeploymentLogic",
      "outputs": [],
      "stateMutability": "nonpayable",
      "type": "function"
    },
    {
      "inputs": [
        {
          "internalType": "address",
          "name": "globalAuth_",
          "type": "address"
        },
        {
          "internalType": "bool",
          "name": "allowed_",
          "type": "bool"
        }
      ],
      "name": "setGlobalAuth",
      "outputs": [],
      "stateMutability": "nonpayable",
      "type": "function"
    },
    {
      "inputs": [
        {
          "internalType": "address",
          "name": "target_",
          "type": "address"
        },
        {
          "internalType": "bytes",
          "name": "data_",
          "type": "bytes"
        }
      ],
      "name": "spell",
      "outputs": [
        {
          "internalType": "bytes",
          "name": "response_",
          "type": "bytes"
        }
      ],
      "stateMutability": "nonpayable",
      "type": "function"
    },
    {
      "inputs": [],
      "name": "totalDexes",
      "outputs": [
        {
          "internalType": "uint256",
          "name": "",
          "type": "uint256"
        }
      ],
      "stateMutability": "view",
      "type": "function"
    },
    {
      "inputs": [
        {
          "internalType": "address",
          "name": "newOwner",
          "type": "address"
        }
      ],
      "name": "transferOwnership",
      "outputs": [],
      "stateMutability": "nonpayable",
      "type": "function"
    }
  ],
  "transactionHash": "0x00bc5c8d70577002bba5b36a5d48ea0226d5717d2c1f2bb20e15f5e1ac425929",
  "args": [
    "0x4F6F977aCDD1177DCD81aB83074855EcB9C2D49e"
  ],
  "numDeployments": 1,
  "solcInputHash": "5ca2ad91017a828e368ec3008a413fcd",
  "bytecode": "0x608060405234801561001057600080fd5b506040516118aa3803806118aa83398101604081905261002f916100b8565b600080546001600160a01b0319166001600160a01b03831690811782556040518392839283929091907f8be0079c531659141344cd1fd0a4f28419497f9722a3daafe3b4186f6b6457e0908290a3508190506001600160a01b0381166100b05760405163aeae7c0d60e01b815261cf0d600482015260240160405180910390fd5b5050506100e8565b6000602082840312156100ca57600080fd5b81516001600160a01b03811681146100e157600080fd5b9392505050565b6117b3806100f76000396000f3fe608060405234801561001057600080fd5b50600436106101005760003560e01c80638f2db95d11610097578063c7acb01f11610066578063c7acb01f14610230578063f2fde38b14610250578063f4be578714610263578063fbeeca2c1461029c57600080fd5b80638f2db95d146101e657806393656c17146101f9578063a34b5ee81461020b578063b5c736e41461021e57600080fd5b80635f574d4a116100d35780635f574d4a1461018b57806378c7e138146101a057806387339817146101b35780638da5cb5b146101c657600080fd5b806312e366aa146101055780633c11e12a146101425780634502d0631461016557806350c358a414610178575b600080fd5b610118610113366004611329565b6102af565b60405173ffffffffffffffffffffffffffffffffffffffff90911681526020015b60405180910390f35b610155610150366004611366565b6102c1565b6040519015158152602001610139565b610155610173366004611366565b6103d4565b610155610186366004611366565b610425565b61019e610199366004611391565b610476565b005b61019e6101ae3660046113c4565b6105ce565b6101186101c1366004611407565b610735565b6000546101189073ffffffffffffffffffffffffffffffffffffffff1681565b61019e6101f4366004611391565b610959565b6004545b604051908152602001610139565b61019e610219366004611391565b610aac565b6101fd61022c366004611329565b5490565b61024361023e36600461154e565b610bff565b6040516101399190611603565b61019e61025e366004611366565b610ccd565b610155610271366004611366565b73ffffffffffffffffffffffffffffffffffffffff1660009081526005602052604090205460ff1690565b6101556102aa366004611654565b610dbe565b60006102bb3083610e22565b92915050565b60008173ffffffffffffffffffffffffffffffffffffffff163b6000036102ea57506000919050565b6000808373ffffffffffffffffffffffffffffffffffffffff16604051610334907ff4b9a3fb00000000000000000000000000000000000000000000000000000000815260040190565b600060405180830381855afa9150503d806000811461036f576040519150601f19603f3d011682016040523d82523d6000602084013e610374565b606091505b50915091508180156103c7575061039881806020019051810190610113919061167e565b73ffffffffffffffffffffffffffffffffffffffff168473ffffffffffffffffffffffffffffffffffffffff16145b949350505050565b919050565b73ffffffffffffffffffffffffffffffffffffffff811660009081526002602052604081205460ff16806102bb57505060005473ffffffffffffffffffffffffffffffffffffffff91821691161490565b73ffffffffffffffffffffffffffffffffffffffff811660009081526001602052604081205460ff16806102bb57505060005473ffffffffffffffffffffffffffffffffffffffff91821691161490565b60005473ffffffffffffffffffffffffffffffffffffffff1633146104fc576040517f08c379a000000000000000000000000000000000000000000000000000000000815260206004820152600c60248201527f554e415554484f52495a4544000000000000000000000000000000000000000060448201526064015b60405180910390fd5b8173ffffffffffffffffffffffffffffffffffffffff811661054e576040517faeae7c0d00000000000000000000000000000000000000000000000000000000815261cf0d60048201526024016104f3565b73ffffffffffffffffffffffffffffffffffffffff831660008181526005602052604080822080547fffffffffffffffffffffffffffffffffffffffffffffffffffffffffffffff001686151590811790915590519092917f862a194379bf36d614b7bbc811097fc33a06ab67366fb58db1f4de91438e369f91a3505050565b60005473ffffffffffffffffffffffffffffffffffffffff16331461064f576040517f08c379a000000000000000000000000000000000000000000000000000000000815260206004820152600c60248201527f554e415554484f52495a4544000000000000000000000000000000000000000060448201526064016104f3565b8173ffffffffffffffffffffffffffffffffffffffff81166106a1576040517faeae7c0d00000000000000000000000000000000000000000000000000000000815261cf0d60048201526024016104f3565b73ffffffffffffffffffffffffffffffffffffffff84811660008181526003602090815260408083209488168084529490915280822080547fffffffffffffffffffffffffffffffffffffffffffffffffffffffffffffff001687151590811790915590519293909290917f6dc7f25a946e48c9a5dec5f836659d8470be4b350e53b78df89037bffcdb268791a450505050565b600061074033610425565b61077a576040517f2fee3e0e00000000000000000000000000000000000000000000000000000000815261cf0a60048201526024016104f3565b73ffffffffffffffffffffffffffffffffffffffff841660009081526005602052604090205460ff166107dd576040517f2fee3e0e00000000000000000000000000000000000000000000000000000000815261cf0a60048201526024016104f3565b60006004600081546107ee90611697565b918290555090506107fe816102af565b91506000808673ffffffffffffffffffffffffffffffffffffffff16868660405161082a9291906116f6565b600060405180830381855af49150503d8060008114610865576040519150601f19603f3d011682016040523d82523d6000602084013e61086a565b606091505b50915091508180156108c257506108938180602001905181019061088e9190611706565b61128c565b73ffffffffffffffffffffffffffffffffffffffff168473ffffffffffffffffffffffffffffffffffffffff16145b80156108d257506108d2846102c1565b61090c576040517f2fee3e0e00000000000000000000000000000000000000000000000000000000815261cf0f60048201526024016104f3565b604051839073ffffffffffffffffffffffffffffffffffffffff8616907f80d4769bbf5966f1c91cdab7c477bd8f74016bd5f5ed3ad18af6b32e29f6da7f90600090a35050509392505050565b60005473ffffffffffffffffffffffffffffffffffffffff1633146109da576040517f08c379a000000000000000000000000000000000000000000000000000000000815260206004820152600c60248201527f554e415554484f52495a4544000000000000000000000000000000000000000060448201526064016104f3565b8173ffffffffffffffffffffffffffffffffffffffff8116610a2c576040517faeae7c0d00000000000000000000000000000000000000000000000000000000815261cf0d60048201526024016104f3565b73ffffffffffffffffffffffffffffffffffffffff831660008181526002602052604080822080547fffffffffffffffffffffffffffffffffffffffffffffffffffffffffffffff001686151590811790915590519092917f0a1c6cd77aa2e405e482adf6ee6cf190a27682b6dd1234403f7602e5203c83bb91a3505050565b60005473ffffffffffffffffffffffffffffffffffffffff163314610b2d576040517f08c379a000000000000000000000000000000000000000000000000000000000815260206004820152600c60248201527f554e415554484f52495a4544000000000000000000000000000000000000000060448201526064016104f3565b8173ffffffffffffffffffffffffffffffffffffffff8116610b7f576040517faeae7c0d00000000000000000000000000000000000000000000000000000000815261cf0d60048201526024016104f3565b73ffffffffffffffffffffffffffffffffffffffff831660008181526001602052604080822080547fffffffffffffffffffffffffffffffffffffffffffffffffffffffffffffff001686151590811790915590519092917f48cc5b4660fae22eabe5e803ee595e63572773d114bcd54ecc118c1efa8d75af91a3505050565b60005460609073ffffffffffffffffffffffffffffffffffffffff163314610c83576040517f08c379a000000000000000000000000000000000000000000000000000000000815260206004820152600c60248201527f554e415554484f52495a4544000000000000000000000000000000000000000060448201526064016104f3565b600080835160208501865af43d6040519250601f19601f6020830101168301604052808352806000602085013e811560018103610cc457816000803e816000fd5b50505092915050565b60005473ffffffffffffffffffffffffffffffffffffffff163314610d4e576040517f08c379a000000000000000000000000000000000000000000000000000000000815260206004820152600c60248201527f554e415554484f52495a4544000000000000000000000000000000000000000060448201526064016104f3565b600080547fffffffffffffffffffffffff00000000000000000000000000000000000000001673ffffffffffffffffffffffffffffffffffffffff83169081178255604051909133917f8be0079c531659141344cd1fd0a4f28419497f9722a3daafe3b4186f6b6457e09190a350565b73ffffffffffffffffffffffffffffffffffffffff808316600090815260036020908152604080832093851683529290529081205460ff1680610e1b575060005473ffffffffffffffffffffffffffffffffffffffff8381169116145b9392505050565b6000606082600003610e385760009150506102bb565b607f8311610f01576040517fd60000000000000000000000000000000000000000000000000000000000000060208201527f940000000000000000000000000000000000000000000000000000000000000060218201527fffffffffffffffffffffffffffffffffffffffff000000000000000000000000606086901b16602282015260f884901b7fff000000000000000000000000000000000000000000000000000000000000001660368201526037015b604051602081830303815290604052905061127d565b60ff8311610fde576040517fd70000000000000000000000000000000000000000000000000000000000000060208201527f940000000000000000000000000000000000000000000000000000000000000060218201527fffffffffffffffffffffffffffffffffffffffff000000000000000000000000606086901b1660228201527f8100000000000000000000000000000000000000000000000000000000000000603682015260f884901b7fff00000000000000000000000000000000000000000000000000000000000000166037820152603801610eeb565b61ffff83116110bc576040517fd80000000000000000000000000000000000000000000000000000000000000060208201527f940000000000000000000000000000000000000000000000000000000000000060218201527fffffffffffffffffffffffffffffffffffffffff000000000000000000000000606086901b1660228201527f820000000000000000000000000000000000000000000000000000000000000060368201527fffff00000000000000000000000000000000000000000000000000000000000060f085901b166037820152603901610eeb565b62ffffff831161119b576040517fd90000000000000000000000000000000000000000000000000000000000000060208201527f940000000000000000000000000000000000000000000000000000000000000060218201527fffffffffffffffffffffffffffffffffffffffff000000000000000000000000606086901b1660228201527f830000000000000000000000000000000000000000000000000000000000000060368201527fffffff000000000000000000000000000000000000000000000000000000000060e885901b166037820152603a01610eeb565b6040517fda0000000000000000000000000000000000000000000000000000000000000060208201527f940000000000000000000000000000000000000000000000000000000000000060218201527fffffffffffffffffffffffffffffffffffffffff000000000000000000000000606086901b1660228201527f840000000000000000000000000000000000000000000000000000000000000060368201527fffffffff0000000000000000000000000000000000000000000000000000000060e085901b166037820152603b0160405160208183030381529060405290505b80516020909101209392505050565b600081516000036112cd576040517f2fee3e0e00000000000000000000000000000000000000000000000000000000815261cf0960048201526024016104f3565b8151602083016000f0905073ffffffffffffffffffffffffffffffffffffffff81166103cf576040517f2fee3e0e00000000000000000000000000000000000000000000000000000000815261cf0960048201526024016104f3565b60006020828403121561133b57600080fd5b5035919050565b803573ffffffffffffffffffffffffffffffffffffffff811681146103cf57600080fd5b60006020828403121561137857600080fd5b610e1b82611342565b803580151581146103cf57600080fd5b600080604083850312156113a457600080fd5b6113ad83611342565b91506113bb60208401611381565b90509250929050565b6000806000606084860312156113d957600080fd5b6113e284611342565b92506113f060208501611342565b91506113fe60408501611381565b90509250925092565b60008060006040848603121561141c57600080fd5b61142584611342565b9250602084013567ffffffffffffffff8082111561144257600080fd5b818601915086601f83011261145657600080fd5b81358181111561146557600080fd5b87602082850101111561147757600080fd5b6020830194508093505050509250925092565b7f4e487b7100000000000000000000000000000000000000000000000000000000600052604160045260246000fd5b604051601f82017fffffffffffffffffffffffffffffffffffffffffffffffffffffffffffffffe016810167ffffffffffffffff811182821017156115005761150061148a565b604052919050565b600067ffffffffffffffff8211156115225761152261148a565b50601f017fffffffffffffffffffffffffffffffffffffffffffffffffffffffffffffffe01660200190565b6000806040838503121561156157600080fd5b61156a83611342565b9150602083013567ffffffffffffffff81111561158657600080fd5b8301601f8101851361159757600080fd5b80356115aa6115a582611508565b6114b9565b8181528660208385010111156115bf57600080fd5b816020840160208301376000602083830101528093505050509250929050565b60005b838110156115fa5781810151838201526020016115e2565b50506000910152565b60208152600082518060208401526116228160408501602087016115df565b601f017fffffffffffffffffffffffffffffffffffffffffffffffffffffffffffffffe0169190910160400192915050565b6000806040838503121561166757600080fd5b61167083611342565b91506113bb60208401611342565b60006020828403121561169057600080fd5b5051919050565b60007fffffffffffffffffffffffffffffffffffffffffffffffffffffffffffffffff82036116ef577f4e487b7100000000000000000000000000000000000000000000000000000000600052601160045260246000fd5b5060010190565b8183823760009101908152919050565b60006020828403121561171857600080fd5b815167ffffffffffffffff81111561172f57600080fd5b8201601f8101841361174057600080fd5b805161174e6115a582611508565b81815285602083850101111561176357600080fd5b6117748260208301602086016115df565b9594505050505056fea264697066735822122053019f29ffa92a010959310242eea0d1c89fce0dd52ccba09fb7d8f754227c7464736f6c63430008150033",
  "devdoc": {
    "details": "Note the deployed dexes start out with no config at Liquidity contract. This must be done by Liquidity auths in a separate step, otherwise no deposits will be possible. This contract is not upgradeable. It supports adding new dex deployment logic contracts for new, future dexes.",
    "events": {
      "LogDexDeployed(address,uint256)": {
        "details": "Emitted when a new dex is deployed.",
        "params": {
          "dex": "The address of the newly deployed dex.",
          "dexId": "The id of the newly deployed dex."
        }
      },
      "LogSetDeployer(address,bool)": {
        "details": "Emitted when the deployer is modified by owner.",
        "params": {
          "allowed": "Indicates whether the address is authorized as a deployer or not.",
          "deployer": "Address whose deployer status is updated."
        }
      },
      "LogSetDexAuth(address,bool,address)": {
        "details": "Emitted when the dexAuth is modified by owner.",
        "params": {
          "allowed": "Indicates whether the address is authorized as a deployer or not.",
          "dex": "Address of the specific dex related to the authorization change.",
          "dexAuth": "Address whose dexAuth status is updated."
        }
      },
      "LogSetDexDeploymentLogic(address,bool)": {
        "details": "Emitted when the dex deployment logic is modified by owner.",
        "params": {
          "allowed": "Indicates whether the address is authorized as a deployer or not.",
          "dexDeploymentLogic": "The address of the dex deployment logic contract."
        }
      },
      "LogSetGlobalAuth(address,bool)": {
        "details": "Emitted when the globalAuth is modified by owner.",
        "params": {
          "allowed": "Indicates whether the address is authorized as a deployer or not.",
          "globalAuth": "Address whose globalAuth status is updated."
        }
      }
    },
    "kind": "dev",
    "methods": {
      "deployDex(address,bytes)": {
        "params": {
          "dexDeploymentData_": "The data to be used for dex deployment.",
          "dexDeploymentLogic_": "The address of the dex deployment logic contract."
        },
        "returns": {
          "dex_": "                 Returns the address of the newly deployed dex."
        }
      },
      "getDexAddress(uint256)": {
        "params": {
          "dexId_": "The ID of the dex."
        },
        "returns": {
          "dex_": "                 Returns the computed address of the dex."
        }
      },
      "isDeployer(address)": {
        "params": {
          "deployer_": "The address to be checked for deployer authorization."
        },
        "returns": {
          "_0": "Returns `true` if the address is a deployer, otherwise `false`."
        }
      },
      "isDex(address)": {
        "params": {
          "dex_": "The dex address to check."
        },
        "returns": {
          "_0": "Returns `true` if the given address corresponds to a valid dex, otherwise `false`."
        }
      },
      "isDexAuth(address,address)": {
        "params": {
          "dexAuth_": "The address to be checked for dex authorization privileges.",
          "dex_": "The address of the dex to check."
        },
        "returns": {
          "_0": "Returns `true` if the given address has dex authorization privileges for the specified dex, otherwise `false`."
        }
      },
      "isDexDeploymentLogic(address)": {
        "params": {
          "dexDeploymentLogic_": "The address of the dex deploy logic to check for authorization privileges."
        },
        "returns": {
          "_0": "Returns `true` if the given address has authorization privileges for dex deployment, otherwise `false`."
        }
      },
      "isGlobalAuth(address)": {
        "params": {
          "globalAuth_": "The address to be checked for global authorization privileges."
        },
        "returns": {
          "_0": "Returns `true` if the given address has global authorization privileges, otherwise `false`."
        }
      },
      "setDeployer(address,bool)": {
        "params": {
          "allowed_": "A boolean indicating whether the specified address is allowed to deploy dexes.",
          "deployer_": "The address to be set as deployer."
        }
      },
      "setDexAuth(address,address,bool)": {
        "params": {
          "allowed_": "A boolean indicating whether the specified address is allowed to update the specific dex config.",
          "dexAuth_": "The address to be set as dex authorization.",
          "dex_": "The address of the dex for which the authorization is being set."
        }
      },
      "setDexDeploymentLogic(address,bool)": {
        "params": {
          "allowed_": "A boolean indicating whether the specified address is allowed to deploy new type of dex.",
          "deploymentLogic_": "The address of the dex deployment logic contract to be set."
        }
      },
      "setGlobalAuth(address,bool)": {
        "params": {
          "allowed_": "A boolean indicating whether the specified address is allowed to update any dex config.",
          "globalAuth_": "The address to be set as global authorization."
        }
      },
      "spell(address,bytes)": {
        "params": {
          "data_": "Data to execute at the delegated address",
          "target_": "Address to which the call needs to be delegated"
        }
      },
      "totalDexes()": {
        "returns": {
          "_0": "Returns the total number of dexes."
        }
      }
    },
    "title": "Fluid DexFactory",
    "version": 1
  },
  "userdoc": {
    "errors": {
      "FluidDexSwapResult(uint256)": [
        {
          "notice": "used to simulate swap to find the output amount"
        }
      ]
    },
    "kind": "user",
    "methods": {
      "deployDex(address,bytes)": {
        "notice": "Deploys a new dex using the specified deployment logic `dexDeploymentLogic_` and data `dexDeploymentData_`.                               Only accounts with deployer access or the owner can deploy a new dex."
      },
      "getDexAddress(uint256)": {
        "notice": "Computes the address of a dex based on its given ID (`dexId_`)."
      },
      "isDeployer(address)": {
        "notice": "Checks if the provided address (`deployer_`) is authorized as a deployer."
      },
      "isDex(address)": {
        "notice": "Checks if a given address (`dex_`) corresponds to a valid dex."
      },
      "isDexAuth(address,address)": {
        "notice": "Checks if the provided address (`dexAuth_`) has dex authorization privileges for the specified dex (`dex_`)."
      },
      "isDexDeploymentLogic(address)": {
        "notice": "Checks if the provided (`dexDeploymentLogic_`) address has authorization for dex deployment."
      },
      "isGlobalAuth(address)": {
        "notice": "Checks if the provided address (`globalAuth_`) has global dex authorization privileges."
      },
      "setDeployer(address,bool)": {
        "notice": "Sets an address (`deployer_`) as allowed deployer or not.                                 This function can only be called by the owner."
      },
      "setDexAuth(address,address,bool)": {
        "notice": "Sets an address (`dexAuth_`) as allowed dex authorization or not for a specific dex (`dex_`).                                 This function can only be called by the owner."
      },
      "setDexDeploymentLogic(address,bool)": {
        "notice": "Sets an address as allowed dex deployment logic (`deploymentLogic_`) contract or not.                                 This function can only be called by the owner."
      },
      "setGlobalAuth(address,bool)": {
        "notice": "Sets an address (`globalAuth_`) as a global authorization or not.                                 This function can only be called by the owner."
      },
      "spell(address,bytes)": {
        "notice": "Spell allows owner aka governance to do any arbitrary call on factory"
      },
      "totalDexes()": {
        "notice": "Returns the total number of dexes deployed by the factory."
      }
    },
    "notice": "creates Fluid dex protocol dexes, which are interacting with Fluid Liquidity to deposit / borrow funds. Dexes are created at a deterministic address, given an incrementing `dexId` (see `getDexAddress()`). Dexes can only be deployed by allow-listed deployer addresses.",
    "version": 1
  },
  "storageLayout": {
    "storage": [
      {
        "astId": 118627,
        "contract": "contracts/protocols/dex/factory/main.sol:FluidDexFactory",
        "label": "owner",
        "offset": 0,
        "slot": "0",
        "type": "t_address"
      },
      {
        "astId": 57679,
        "contract": "contracts/protocols/dex/factory/main.sol:FluidDexFactory",
        "label": "_deployers",
        "offset": 0,
        "slot": "1",
        "type": "t_mapping(t_address,t_bool)"
      },
      {
        "astId": 57684,
        "contract": "contracts/protocols/dex/factory/main.sol:FluidDexFactory",
        "label": "_globalAuths",
        "offset": 0,
        "slot": "2",
        "type": "t_mapping(t_address,t_bool)"
      },
      {
        "astId": 57691,
        "contract": "contracts/protocols/dex/factory/main.sol:FluidDexFactory",
        "label": "_dexAuths",
        "offset": 0,
        "slot": "3",
        "type": "t_mapping(t_address,t_mapping(t_address,t_bool))"
      },
      {
        "astId": 57694,
        "contract": "contracts/protocols/dex/factory/main.sol:FluidDexFactory",
        "label": "_totalDexes",
        "offset": 0,
        "slot": "4",
        "type": "t_uint256"
      },
      {
        "astId": 57699,
        "contract": "contracts/protocols/dex/factory/main.sol:FluidDexFactory",
        "label": "_dexDeploymentLogics",
        "offset": 0,
        "slot": "5",
        "type": "t_mapping(t_address,t_bool)"
      }
    ],
    "types": {
      "t_address": {
        "encoding": "inplace",
        "label": "address",
        "numberOfBytes": "20"
      },
      "t_bool": {
        "encoding": "inplace",
        "label": "bool",
        "numberOfBytes": "1"
      },
      "t_mapping(t_address,t_bool)": {
        "encoding": "mapping",
        "key": "t_address",
        "label": "mapping(address => bool)",
        "numberOfBytes": "32",
        "value": "t_bool"
      },
      "t_mapping(t_address,t_mapping(t_address,t_bool))": {
        "encoding": "mapping",
        "key": "t_address",
        "label": "mapping(address => mapping(address => bool))",
        "numberOfBytes": "32",
        "value": "t_mapping(t_address,t_bool)"
      },
      "t_uint256": {
        "encoding": "inplace",
        "label": "uint256",
        "numberOfBytes": "32"
      }
    }
  }
}