{
  "address": "0x8c762C38351D9b2E206D30B8f5c285dcC200EF6D",
  "abi": [
    {
      "inputs": [
        {
          "internalType": "address",
          "name": "configurator_",
          "type": "address"
        },
        {
          "internalType": "address",
          "name": "fToken_",
          "type": "address"
        },
        {
          "internalType": "address",
          "name": "fToken2_",
          "type": "address"
        },
        {
          "internalType": "address",
          "name": "fToken3_",
          "type": "address"
        },
        {
          "internalType": "uint256",
          "name": "startTvl_",
          "type": "uint256"
        },
        {
          "internalType": "uint256",
          "name": "rewardAmount_",
          "type": "uint256"
        },
        {
          "internalType": "uint256",
          "name": "duration_",
          "type": "uint256"
        },
        {
          "internalType": "uint256",
          "name": "startTime_",
          "type": "uint256"
        }
      ],
      "stateMutability": "nonpayable",
      "type": "constructor"
    },
    {
      "inputs": [
        {
          "internalType": "uint256",
          "name": "errorId_",
          "type": "uint256"
        }
      ],
      "name": "FluidLendingError",
      "type": "error"
    },
    {
      "anonymous": false,
      "inputs": [],
      "name": "LogCancelQueuedRewards",
      "type": "event"
    },
    {
      "anonymous": false,
      "inputs": [
        {
          "indexed": false,
          "internalType": "uint256",
          "name": "rewardAmount",
          "type": "uint256"
        },
        {
          "indexed": false,
          "internalType": "uint256",
          "name": "duration",
          "type": "uint256"
        }
      ],
      "name": "LogQueueNextRewards",
      "type": "event"
    },
    {
      "anonymous": false,
      "inputs": [
        {
          "indexed": false,
          "internalType": "uint256",
          "name": "startTime",
          "type": "uint256"
        },
        {
          "indexed": false,
          "internalType": "uint256",
          "name": "endTime",
          "type": "uint256"
        }
      ],
      "name": "LogRewardsStarted",
      "type": "event"
    },
    {
      "anonymous": false,
      "inputs": [
        {
          "indexed": false,
          "internalType": "uint256",
          "name": "rewardAmount",
          "type": "uint256"
        },
        {
          "indexed": false,
          "internalType": "uint256",
          "name": "duration",
          "type": "uint256"
        },
        {
          "indexed": false,
          "internalType": "uint256",
          "name": "startTime",
          "type": "uint256"
        }
      ],
      "name": "LogStartRewards",
      "type": "event"
    },
    {
      "anonymous": false,
      "inputs": [],
      "name": "LogStopRewards",
      "type": "event"
    },
    {
      "anonymous": false,
      "inputs": [
        {
          "indexed": false,
          "internalType": "uint256",
          "name": "startTime",
          "type": "uint256"
        },
        {
          "indexed": false,
          "internalType": "uint256",
          "name": "endTime",
          "type": "uint256"
        }
      ],
      "name": "LogTransitionedToNextRewards",
      "type": "event"
    },
    {
      "inputs": [],
      "name": "FTOKEN",
      "outputs": [
        {
          "internalType": "address",
          "name": "",
          "type": "address"
        }
      ],
      "stateMutability": "view",
      "type": "function"
    },
    {
      "inputs": [],
      "name": "FTOKEN2",
      "outputs": [
        {
          "internalType": "address",
          "name": "",
          "type": "address"
        }
      ],
      "stateMutability": "view",
      "type": "function"
    },
    {
      "inputs": [],
      "name": "FTOKEN3",
      "outputs": [
        {
          "internalType": "address",
          "name": "",
          "type": "address"
        }
      ],
      "stateMutability": "view",
      "type": "function"
    },
    {
      "inputs": [],
      "name": "cancelQueuedRewards",
      "outputs": [],
      "stateMutability": "nonpayable",
      "type": "function"
    },
    {
      "inputs": [],
      "name": "getConfig",
      "outputs": [
        {
          "internalType": "uint256",
          "name": "duration_",
          "type": "uint256"
        },
        {
          "internalType": "uint256",
          "name": "startTime_",
          "type": "uint256"
        },
        {
          "internalType": "uint256",
          "name": "endTime_",
          "type": "uint256"
        },
        {
          "internalType": "uint256",
          "name": "startTvl_",
          "type": "uint256"
        },
        {
          "internalType": "uint256",
          "name": "maxRate_",
          "type": "uint256"
        },
        {
          "internalType": "uint256",
          "name": "rewardAmount_",
          "type": "uint256"
        },
        {
          "internalType": "address",
          "name": "initiator_",
          "type": "address"
        }
      ],
      "stateMutability": "view",
      "type": "function"
    },
    {
      "inputs": [
        {
          "internalType": "uint256",
          "name": "totalAssets_",
          "type": "uint256"
        }
      ],
      "name": "getRate",
      "outputs": [
        {
          "internalType": "uint256",
          "name": "rate_",
          "type": "uint256"
        },
        {
          "internalType": "bool",
          "name": "ended_",
          "type": "bool"
        },
        {
          "internalType": "uint256",
          "name": "startTime_",
          "type": "uint256"
        }
      ],
      "stateMutability": "view",
      "type": "function"
    },
    {
      "inputs": [
        {
          "internalType": "uint256",
          "name": "rewardAmount_",
          "type": "uint256"
        },
        {
          "internalType": "uint256",
          "name": "duration_",
          "type": "uint256"
        }
      ],
      "name": "queueNextRewards",
      "outputs": [],
      "stateMutability": "nonpayable",
      "type": "function"
    },
    {
      "inputs": [
        {
          "internalType": "uint256",
          "name": "rewardAmount_",
          "type": "uint256"
        },
        {
          "internalType": "uint256",
          "name": "duration_",
          "type": "uint256"
        },
        {
          "internalType": "uint256",
          "name": "startTime_",
          "type": "uint256"
        }
      ],
      "name": "startRewards",
      "outputs": [],
      "stateMutability": "nonpayable",
      "type": "function"
    },
    {
      "inputs": [],
      "name": "stopRewards",
      "outputs": [],
      "stateMutability": "nonpayable",
      "type": "function"
    },
    {
      "inputs": [],
      "name": "transitionToNextRewards",
      "outputs": [],
      "stateMutability": "nonpayable",
      "type": "function"
    }
  ],
  "transactionHash": "0x1bb5749523352f1aa9b19d7fcf580f6c3eb48c1c395d5e1c80591905c8646eab",
  "args": [
    "0x4F6F977aCDD1177DCD81aB83074855EcB9C2D49e",
    "0x1943FA26360f038230442525Cf1B9125b5DCB401",
    "0x0000000000000000000000000000000000000000",
    "0x0000000000000000000000000000000000000000",
    "1000000000",
    "30000000000",
    7776000,
    1741638374
  ],
  "numDeployments": 1,
  "solcInputHash": "a022427c268f355559053561e9d276d0",
  "bytecode": "0x6101206040523480156200001257600080fd5b50604051620018733803806200187383398101604081905262000035916200016a565b6001600160a01b03881615806200005357506001600160a01b038716155b806200005d575082155b8062000067575083155b8062000071575081155b806200008857506000811180156200008857504281105b15620000af5760405163694bda1d60e01b81526159d9600482015260240160405180910390fd5b6001600160a01b0380891660a05287811660c05286811660e05285166101005260808490526000805464ffffffffff83811665010000000000026001600160501b031990921690851617179055816200010d6301e1338085620001ee565b6200011991906200021a565b6000600a6101000a8154816001600160b01b0302191690836001600160b01b0316021790555050505050505050506200023d565b80516001600160a01b03811681146200016557600080fd5b919050565b600080600080600080600080610100898b0312156200018857600080fd5b62000193896200014d565b9750620001a360208a016200014d565b9650620001b360408a016200014d565b9550620001c360608a016200014d565b94506080890151935060a0890151925060c0890151915060e089015190509295985092959890939650565b80820281158282048414176200021457634e487b7160e01b600052601160045260246000fd5b92915050565b6000826200023857634e487b7160e01b600052601260045260246000fd5b500490565b60805160a05160c05160e05161010051611581620002f26000396000818161020101528181610b5e01528181610bc601528181610f320152610f6e01526000818161018701528181610a8001528181610aea01528181610e630152610e9f01526000818161013301528181610a230152610dd101526000818161023b015281816104970152818161080801528181610c9601526113890152600081816106c101528181610738015261133d01526115816000f3fe608060405234801561001057600080fd5b50600436106100be5760003560e01c8063976fe91a11610076578063bfa35e441161005b578063bfa35e4414610182578063c3f909d4146101a9578063dce60838146101fc57600080fd5b8063976fe91a1461012e578063ad759a921461017a57600080fd5b806357764094116100a757806357764094146100e05780636283311d14610113578063797008c61461012657600080fd5b806306786dd1146100c35780630aa9a12b146100d8575b600080fd5b6100d66100d13660046113ad565b610223565b005b6100d661047f565b6100f36100ee3660046113cf565b61060a565b604080519384529115156020840152908201526060015b60405180910390f35b6100d66101213660046113e8565b6107f0565b6100d6610c7e565b6101557f000000000000000000000000000000000000000000000000000000000000000081565b60405173ffffffffffffffffffffffffffffffffffffffff909116815260200161010a565b6100d6611088565b6101557f000000000000000000000000000000000000000000000000000000000000000081565b6101b161128a565b604080519788526020880196909652948601939093526060850191909152608084015260a083015273ffffffffffffffffffffffffffffffffffffffff1660c082015260e00161010a565b6101557f000000000000000000000000000000000000000000000000000000000000000081565b3373ffffffffffffffffffffffffffffffffffffffff7f0000000000000000000000000000000000000000000000000000000000000000161461029b576040517f694bda1d0000000000000000000000000000000000000000000000000000000081526159db60048201526024015b60405180910390fd5b8015806102a6575081155b156102e1576040517f694bda1d0000000000000000000000000000000000000000000000000000000081526159d96004820152602401610292565b60015465010000000000900475ffffffffffffffffffffffffffffffffffffffffffff1615610340576040517f694bda1d0000000000000000000000000000000000000000000000000000000081526159de6004820152602401610292565b6000805465010000000000900464ffffffffff169003610390576040517f694bda1d0000000000000000000000000000000000000000000000000000000081526159e26004820152602401610292565b6000546103b09064ffffffffff8082169165010000000000900416611443565b64ffffffffff164211156103cd576103c98282426107f0565b5050565b600180547fffffffffff000000000000000000000000000000000000000000000000000000166501000000000075ffffffffffffffffffffffffffffffffffffffffffff8516027fffffffffffffffffffffffffffffffffffffffffffffffffffffff0000000000161764ffffffffff831617905560408051838152602081018390527f68ef2ad282a305bd5b41f780462102ad9fc40964ab6097401fcc6eb0ebefae87910160405180910390a15050565b3373ffffffffffffffffffffffffffffffffffffffff7f000000000000000000000000000000000000000000000000000000000000000016146104f2576040517f694bda1d0000000000000000000000000000000000000000000000000000000081526159db6004820152602401610292565b60015465010000000000900475ffffffffffffffffffffffffffffffffffffffffffff16600003610553576040517f694bda1d0000000000000000000000000000000000000000000000000000000081526159e06004820152602401610292565b6000546105739064ffffffffff8082169165010000000000900416611443565b64ffffffffff164211156105b7576040517f694bda1d0000000000000000000000000000000000000000000000000000000081526159e16004820152602401610292565b600180547fffffffffff0000000000000000000000000000000000000000000000000000001690556040517f13d39d3c3c727cbaa38766164c6fb182ddfb8daaaf4e68d19b0095cd7927a1af90600090a1565b60008054819064ffffffffff650100000000008204811691168082019082158061063357508242105b15610646576000809450945050506107e9565b814211156107365760015465010000000000900475ffffffffffffffffffffffffffffffffffffffffffff16600081900361068b5760006001955095505050506107e9565b600154929350839264ffffffffff166106a48185611468565b9350834211156106bf576000600196509650505050506107e9565b7f00000000000000000000000000000000000000000000000000000000000000008810156106f75760008096509650505050506107e9565b806107066301e1338084611481565b6107109190611498565b96508761072388655af3107a4000611481565b61072d9190611498565b965050506107b4565b7f000000000000000000000000000000000000000000000000000000000000000086101561076c576000809450945050506107e9565b60005486906107a7906a0100000000000000000000900475ffffffffffffffffffffffffffffffffffffffffffff16655af3107a4000611481565b6107b19190611498565b94505b6107c464e8d4a510006032611481565b85116107d057846107e0565b6107e064e8d4a510006032611481565b60009450945050505b9193909250565b3373ffffffffffffffffffffffffffffffffffffffff7f00000000000000000000000000000000000000000000000000000000000000001614610863576040517f694bda1d0000000000000000000000000000000000000000000000000000000081526159db6004820152602401610292565b6000546108839064ffffffffff8082169165010000000000900416611443565b64ffffffffff1642116108c6576040517f694bda1d0000000000000000000000000000000000000000000000000000000081526159df6004820152602401610292565b806000036108d15750425b8115806108dc575082155b806108e657504281105b15610921576040517f694bda1d0000000000000000000000000000000000000000000000000000000081526159d96004820152602401610292565b600080547fffffffffffffffffffffffffffffffffffffffffffff00000000000000000000166501000000000064ffffffffff848116919091027fffffffffffffffffffffffffffffffffffffffffffffffffffffff00000000001691909117908416179055816109966301e1338085611481565b6109a09190611498565b6000805475ffffffffffffffffffffffffffffffffffffffffffff929092166a01000000000000000000000269ffffffffffffffffffff9092169190911790556040517f5fd6196500000000000000000000000000000000000000000000000000000000815230600482015273ffffffffffffffffffffffffffffffffffffffff7f00000000000000000000000000000000000000000000000000000000000000001690635fd6196590602401600060405180830381600087803b158015610a6757600080fd5b505af1158015610a7b573d6000803e3d6000fd5b5050507f000000000000000000000000000000000000000000000000000000000000000073ffffffffffffffffffffffffffffffffffffffff16159050610b5c576040517f5fd619650000000000000000000000000000000000000000000000000000000081523060048201527f000000000000000000000000000000000000000000000000000000000000000073ffffffffffffffffffffffffffffffffffffffff1690635fd6196590602401600060405180830381600087803b158015610b4357600080fd5b505af1158015610b57573d6000803e3d6000fd5b505050505b7f000000000000000000000000000000000000000000000000000000000000000073ffffffffffffffffffffffffffffffffffffffff1615610c38576040517f5fd619650000000000000000000000000000000000000000000000000000000081523060048201527f000000000000000000000000000000000000000000000000000000000000000073ffffffffffffffffffffffffffffffffffffffff1690635fd6196590602401600060405180830381600087803b158015610c1f57600080fd5b505af1158015610c33573d6000803e3d6000fd5b505050505b60408051848152602081018490529081018290527ff847e1fc85baf05c769b3bc2f2dc3384d56aca28c9894497717c6c1383b098af9060600160405180910390a1505050565b3373ffffffffffffffffffffffffffffffffffffffff7f00000000000000000000000000000000000000000000000000000000000000001614610cf1576040517f694bda1d0000000000000000000000000000000000000000000000000000000081526159db6004820152602401610292565b60005465010000000000900464ffffffffff161580610d355750600054610d2b9064ffffffffff8082169165010000000000900416611443565b64ffffffffff1642115b15610d70576040517f694bda1d0000000000000000000000000000000000000000000000000000000081526159dd6004820152602401610292565b60015465010000000000900475ffffffffffffffffffffffffffffffffffffffffffff1615610dcf576040517f694bda1d0000000000000000000000000000000000000000000000000000000081526159de6004820152602401610292565b7f000000000000000000000000000000000000000000000000000000000000000073ffffffffffffffffffffffffffffffffffffffff16633c3821f46040518163ffffffff1660e01b815260040160408051808303816000875af1158015610e3b573d6000803e3d6000fd5b505050506040513d601f19601f82011682018060405250810190610e5f91906114d3565b50507f000000000000000000000000000000000000000000000000000000000000000073ffffffffffffffffffffffffffffffffffffffff1615610f30577f000000000000000000000000000000000000000000000000000000000000000073ffffffffffffffffffffffffffffffffffffffff16633c3821f46040518163ffffffff1660e01b815260040160408051808303816000875af1158015610f09573d6000803e3d6000fd5b505050506040513d601f19601f82011682018060405250810190610f2d91906114d3565b50505b7f000000000000000000000000000000000000000000000000000000000000000073ffffffffffffffffffffffffffffffffffffffff1615610fff577f000000000000000000000000000000000000000000000000000000000000000073ffffffffffffffffffffffffffffffffffffffff16633c3821f46040518163ffffffff1660e01b815260040160408051808303816000875af1158015610fd8573d6000803e3d6000fd5b505050506040513d601f19601f82011682018060405250810190610ffc91906114d3565b50505b60005460019061101f9065010000000000900464ffffffffff16426114f7565b61102991906114f7565b600080547fffffffffffffffffffffffffffffffffffffffffffffffffffffff00000000001664ffffffffff929092169190911781556040517f0ba629f001023d2b4b32157343614f17651d8508c3c6c1bfa5769925cb718c0e9190a1565b6000805464ffffffffff650100000000008204811692916110aa911683611468565b90508042116110e9576040517f694bda1d0000000000000000000000000000000000000000000000000000000081526159df6004820152602401610292565b60015465010000000000900475ffffffffffffffffffffffffffffffffffffffffffff16600081900361114c576040517f694bda1d0000000000000000000000000000000000000000000000000000000081526159e06004820152602401610292565b600154600080547fffffffffffffffffffffffffffffffffffffffffffffffffffffff000000000064ffffffffff8681166501000000000002919091167fffffffffffffffffffffffffffffffffffffffffffff0000000000000000000090921691909117921691821790559192508291806111cc6301e1338084611481565b6111d69190611498565b6000805475ffffffffffffffffffffffffffffffffffffffffffff929092166a01000000000000000000000269ffffffffffffffffffff9092169190911790556112208185611468565b600180547fffffffffff00000000000000000000000000000000000000000000000000000016905560408051868152602081018390529194507fa27da0b2cea36637915acc9460cc212a1eb5ad386e422cfc9f40e5f4014e222f910160405180910390a150505050565b600080548190819081908190819081906301e13380906112d89064ffffffffff8116906a0100000000000000000000900475ffffffffffffffffffffffffffffffffffffffffffff1661150a565b75ffffffffffffffffffffffffffffffffffffffffffff166112fa9190611498565b60005490925061131d9064ffffffffff8082169165010000000000900416611443565b60005464ffffffffff9182169650808216916501000000000090910416867f000000000000000000000000000000000000000000000000000000000000000061136c64e8d4a510006032611481565b64ffffffffff9485169c939094169a5090985096509094509192507f0000000000000000000000000000000000000000000000000000000000000000919050565b600080604083850312156113c057600080fd5b50508035926020909101359150565b6000602082840312156113e157600080fd5b5035919050565b6000806000606084860312156113fd57600080fd5b505081359360208301359350604090920135919050565b7f4e487b7100000000000000000000000000000000000000000000000000000000600052601160045260246000fd5b64ffffffffff81811683821601908082111561146157611461611414565b5092915050565b8082018082111561147b5761147b611414565b92915050565b808202811582820484141761147b5761147b611414565b6000826114ce577f4e487b7100000000000000000000000000000000000000000000000000000000600052601260045260246000fd5b500490565b600080604083850312156114e657600080fd5b505080516020909101519092909150565b8181038181111561147b5761147b611414565b75ffffffffffffffffffffffffffffffffffffffffffff82811682821681810283169291811582850482141761154257611542611414565b5050509291505056fea2646970667358221220e1a39f911e724bfa42fcb4acaaec7de69dd6dd9362f615d068b2ea9a3171291464736f6c63430008150033",
  "devdoc": {
    "events": {
      "LogQueueNextRewards(uint256,uint256)": {
        "params": {
          "duration": "The duration for which the next rewards will run.",
          "rewardAmount": "The amount of rewards to be distributed in the next phase."
        }
      },
      "LogStartRewards(uint256,uint256,uint256)": {
        "params": {
          "duration": "The duration for which the rewards will run.",
          "rewardAmount": "The amount of rewards to be distributed.",
          "startTime": "The timestamp when the rewards start."
        }
      }
    },
    "kind": "dev",
    "methods": {
      "constructor": {
        "params": {
          "configurator_": "The address with authority to configure rewards.",
          "duration_": "The duration (in seconds) for which the rewards will run.",
          "fToken2_": "The address of the associated fToken contract 2, optional.",
          "fToken3_": "The address of the associated fToken contract 3, optional.",
          "fToken_": "The address of the associated fToken contract.",
          "rewardAmount_": "The total amount of underlying assets to be distributed as rewards.",
          "startTime_": "The timestamp when rewards are scheduled to start; must be 0 or a future time.",
          "startTvl_": "The TVL threshold below which the reward rate is 0."
        }
      },
      "getConfig()": {
        "details": "initiator_ is actually the configurator who has access to manage the rewards. named as is for backwards-compatibility reasons."
      },
      "getRate(uint256)": {
        "params": {
          "totalAssets_": "amount of assets in the lending"
        },
        "returns": {
          "ended_": "flag to signal that rewards have ended (always 0 going forward)",
          "rate_": "rewards rate percentage per year with 1e12 RATE_PRECISION, e.g. 1e12 = 1%, 1e14 = 100%",
          "startTime_": "start time of rewards to compare against last update timestamp"
        }
      },
      "transitionToNextRewards()": {
        "details": "Note triggering this is not required for queued rewards to start accruing as that happens anyway in the `getRate`         view method, but it cleans up the status here in storage and gas optimizes the `getRate()` call."
      }
    },
    "title": "LendingRewardsRateModel",
    "version": 1
  },
  "userdoc": {
    "events": {
      "LogCancelQueuedRewards()": {
        "notice": "Emitted when queued rewards are cancelled."
      },
      "LogQueueNextRewards(uint256,uint256)": {
        "notice": "Emitted when the next rewards are queued."
      },
      "LogRewardsStarted(uint256,uint256)": {
        "notice": "Emitted when rewards are started"
      },
      "LogStartRewards(uint256,uint256,uint256)": {
        "notice": "Emitted when rewards are started."
      },
      "LogStopRewards()": {
        "notice": "Emitted when rewards are stopped."
      },
      "LogTransitionedToNextRewards(uint256,uint256)": {
        "notice": "Emitted when the rewards transition to the next phase."
      }
    },
    "kind": "user",
    "methods": {
      "FTOKEN()": {
        "notice": "address of the fTokens where these rewards are supposed to be set"
      },
      "cancelQueuedRewards()": {
        "notice": "cancels currently queued rewards"
      },
      "constructor": {
        "notice": "Sets variables for rewards rate configuration based on input parameters."
      },
      "getConfig()": {
        "notice": "Returns config constants for rewards rate model"
      },
      "getRate(uint256)": {
        "notice": "Calculates the current rewards rate (APR)"
      },
      "queueNextRewards(uint256,uint256)": {
        "notice": "queues next rewards which can be come active after current ongoing rewards."
      },
      "startRewards(uint256,uint256,uint256)": {
        "notice": "start new rewards. LendingRewards must be an auth at the LendingFactory! set startTime set to 0 for using block.timestamp"
      },
      "stopRewards()": {
        "notice": "stops current ongoing rewards instantly."
      },
      "transitionToNextRewards()": {
        "notice": "transitions to next queued rewards after current ongoing rewards ended. Callable by anyone."
      }
    },
    "notice": "Calculates rewards rate used for an fToken based on a rewardAmount over a given duration. Rewards start according to the configurator triggers and only accrue above a certain startTVL. Max rate cap is at 50%.",
    "version": 1
  },
  "storageLayout": {
    "storage": [
      {
        "astId": 36730,
        "contract": "contracts/protocols/lending/lendingRewardsRateModel/main.sol:FluidLendingRewardsRateModel",
        "label": "_duration",
        "offset": 0,
        "slot": "0",
        "type": "t_uint40"
      },
      {
        "astId": 36733,
        "contract": "contracts/protocols/lending/lendingRewardsRateModel/main.sol:FluidLendingRewardsRateModel",
        "label": "_startTime",
        "offset": 5,
        "slot": "0",
        "type": "t_uint40"
      },
      {
        "astId": 36736,
        "contract": "contracts/protocols/lending/lendingRewardsRateModel/main.sol:FluidLendingRewardsRateModel",
        "label": "_yearlyReward",
        "offset": 10,
        "slot": "0",
        "type": "t_uint176"
      },
      {
        "astId": 36739,
        "contract": "contracts/protocols/lending/lendingRewardsRateModel/main.sol:FluidLendingRewardsRateModel",
        "label": "_nextDuration",
        "offset": 0,
        "slot": "1",
        "type": "t_uint40"
      },
      {
        "astId": 36742,
        "contract": "contracts/protocols/lending/lendingRewardsRateModel/main.sol:FluidLendingRewardsRateModel",
        "label": "_nextRewardAmount",
        "offset": 5,
        "slot": "1",
        "type": "t_uint176"
      }
    ],
    "types": {
      "t_uint176": {
        "encoding": "inplace",
        "label": "uint176",
        "numberOfBytes": "22"
      },
      "t_uint40": {
        "encoding": "inplace",
        "label": "uint40",
        "numberOfBytes": "5"
      }
    }
  }
}