{
  "address": "0x52Aa899454998Be5b000Ad077a46Bbe360F4e497",
  "abi": [
    {
      "inputs": [
        {
          "internalType": "address",
          "name": "admin_",
          "type": "address"
        },
        {
          "internalType": "address",
          "name": "dummyImplementation_",
          "type": "address"
        }
      ],
      "stateMutability": "nonpayable",
      "type": "constructor"
    },
    {
      "inputs": [
        {
          "internalType": "uint256",
          "name": "errorId_",
          "type": "uint256"
        }
      ],
      "name": "FluidInfiniteProxyError",
      "type": "error"
    },
    {
      "anonymous": false,
      "inputs": [
        {
          "indexed": true,
          "internalType": "address",
          "name": "implementation",
          "type": "address"
        }
      ],
      "name": "LogRemoveImplementation",
      "type": "event"
    },
    {
      "anonymous": false,
      "inputs": [
        {
          "indexed": true,
          "internalType": "address",
          "name": "oldAdmin",
          "type": "address"
        },
        {
          "indexed": true,
          "internalType": "address",
          "name": "newAdmin",
          "type": "address"
        }
      ],
      "name": "LogSetAdmin",
      "type": "event"
    },
    {
      "anonymous": false,
      "inputs": [
        {
          "indexed": true,
          "internalType": "address",
          "name": "oldDummyImplementation",
          "type": "address"
        },
        {
          "indexed": true,
          "internalType": "address",
          "name": "newDummyImplementation",
          "type": "address"
        }
      ],
      "name": "LogSetDummyImplementation",
      "type": "event"
    },
    {
      "anonymous": false,
      "inputs": [
        {
          "indexed": true,
          "internalType": "address",
          "name": "implementation",
          "type": "address"
        },
        {
          "indexed": false,
          "internalType": "bytes4[]",
          "name": "sigs",
          "type": "bytes4[]"
        }
      ],
      "name": "LogSetImplementation",
      "type": "event"
    },
    {
      "stateMutability": "payable",
      "type": "fallback"
    },
    {
      "inputs": [
        {
          "internalType": "address",
          "name": "implementation_",
          "type": "address"
        },
        {
          "internalType": "bytes4[]",
          "name": "sigs_",
          "type": "bytes4[]"
        }
      ],
      "name": "addImplementation",
      "outputs": [],
      "stateMutability": "nonpayable",
      "type": "function"
    },
    {
      "inputs": [],
      "name": "getAdmin",
      "outputs": [
        {
          "internalType": "address",
          "name": "",
          "type": "address"
        }
      ],
      "stateMutability": "view",
      "type": "function"
    },
    {
      "inputs": [],
      "name": "getDummyImplementation",
      "outputs": [
        {
          "internalType": "address",
          "name": "",
          "type": "address"
        }
      ],
      "stateMutability": "view",
      "type": "function"
    },
    {
      "inputs": [
        {
          "internalType": "address",
          "name": "impl_",
          "type": "address"
        }
      ],
      "name": "getImplementationSigs",
      "outputs": [
        {
          "internalType": "bytes4[]",
          "name": "",
          "type": "bytes4[]"
        }
      ],
      "stateMutability": "view",
      "type": "function"
    },
    {
      "inputs": [
        {
          "internalType": "bytes4",
          "name": "sig_",
          "type": "bytes4"
        }
      ],
      "name": "getSigsImplementation",
      "outputs": [
        {
          "internalType": "address",
          "name": "",
          "type": "address"
        }
      ],
      "stateMutability": "view",
      "type": "function"
    },
    {
      "inputs": [
        {
          "internalType": "bytes32",
          "name": "slot_",
          "type": "bytes32"
        }
      ],
      "name": "readFromStorage",
      "outputs": [
        {
          "internalType": "uint256",
          "name": "result_",
          "type": "uint256"
        }
      ],
      "stateMutability": "view",
      "type": "function"
    },
    {
      "inputs": [
        {
          "internalType": "address",
          "name": "implementation_",
          "type": "address"
        }
      ],
      "name": "removeImplementation",
      "outputs": [],
      "stateMutability": "nonpayable",
      "type": "function"
    },
    {
      "inputs": [
        {
          "internalType": "address",
          "name": "newAdmin_",
          "type": "address"
        }
      ],
      "name": "setAdmin",
      "outputs": [],
      "stateMutability": "nonpayable",
      "type": "function"
    },
    {
      "inputs": [
        {
          "internalType": "address",
          "name": "newDummyImplementation_",
          "type": "address"
        }
      ],
      "name": "setDummyImplementation",
      "outputs": [],
      "stateMutability": "nonpayable",
      "type": "function"
    },
    {
      "stateMutability": "payable",
      "type": "receive"
    }
  ],
  "transactionHash": "0xd02220a422daade31f8cce879d263933497fcab03065406707008e21f7831d8a",
  "args": [
    "0x4F6F977aCDD1177DCD81aB83074855EcB9C2D49e",
    "0xCA5E9219e1007931FD5d938C1815a90ef08f1584"
  ],
  "numDeployments": 1,
  "solcInputHash": "ca9e5aa54012862807c9d9299b1ce928",
  "bytecode": "0x60806040523480156200001157600080fd5b50604051620013e0380380620013e08339810160408190526200003491620001ea565b8181818162000043826200005a565b6200004e816200012f565b50505050505062000222565b600062000066620001ae565b90506001600160a01b038216620000d25760405162461bcd60e51b815260206004820152602660248201527f455243313936373a206e65772061646d696e20697320746865207a65726f206160448201526564647265737360d01b606482015260840160405180910390fd5b620000eb600080516020620013a0833981519152839055565b816001600160a01b0316816001600160a01b03167fb2396a4169c0fac3eb0713eb7d54220cbe5e21e585a59578ec4de929657c073360405160405180910390a35050565b60006200014f6000620001c8600080516020620013c08339815191525490565b90506200016a600080516020620013c0833981519152839055565b816001600160a01b0316816001600160a01b03167f761380f4203cd2fcc7ee1ae32561463bc08bbf6761cb9d5caa925f99a6d5450260405160405180910390a35050565b6000620001c8600080516020620013a08339815191525490565b905090565b80516001600160a01b0381168114620001e557600080fd5b919050565b60008060408385031215620001fe57600080fd5b6200020983620001cd565b91506200021960208401620001cd565b90509250929050565b61116e80620002326000396000f3fe60806040526004361061009a5760003560e01c8063908bfe5e11610069578063b5c736e41161004e578063b5c736e414610241578063c39aa07d1461026e578063f0c01b421461028e576100a1565b8063908bfe5e1461020c578063a5fcc8bc14610221576100a1565b806322175a321461015e5780636e9960c314610180578063704b6c02146101bf57806389396dc8146101df576100a1565b366100a157005b7b3ba1a3210667c828492db98dca3e2076cc3735a920a3ca505d382bbc6000357fffffffff0000000000000000000000000000000000000000000000000000000016175473ffffffffffffffffffffffffffffffffffffffff811661013b576040517fc44f8d3b00000000000000000000000000000000000000000000000000000000815261c35160048201526024015b60405180910390fd5b3660008037600080366000845af43d6000803e80610158573d6000fd5b503d6000f35b34801561016a57600080fd5b5061017e610179366004610f48565b6102ae565b005b34801561018c57600080fd5b50610195610356565b60405173ffffffffffffffffffffffffffffffffffffffff90911681526020015b60405180910390f35b3480156101cb57600080fd5b5061017e6101da366004610f48565b610365565b3480156101eb57600080fd5b506101ff6101fa366004610f48565b61040a565b6040516101b69190610f63565b34801561021857600080fd5b5061019561041b565b34801561022d57600080fd5b5061019561023c366004610fc9565b610425565b34801561024d57600080fd5b5061026061025c36600461100b565b5490565b6040519081526020016101b6565b34801561027a57600080fd5b5061017e610289366004610f48565b610430565b34801561029a57600080fd5b5061017e6102a9366004611024565b6104d5565b6102b66105b3565b73ffffffffffffffffffffffffffffffffffffffff163373ffffffffffffffffffffffffffffffffffffffff161461034a576040517f08c379a000000000000000000000000000000000000000000000000000000000815260206004820152600a60248201527f6f6e6c792d61646d696e000000000000000000000000000000000000000000006044820152606401610132565b610353816105dd565b50565b60006103606105b3565b905090565b61036d6105b3565b73ffffffffffffffffffffffffffffffffffffffff163373ffffffffffffffffffffffffffffffffffffffff1614610401576040517f08c379a000000000000000000000000000000000000000000000000000000000815260206004820152600a60248201527f6f6e6c792d61646d696e000000000000000000000000000000000000000000006044820152606401610132565b610353816107ff565b606061041582610935565b92915050565b6000610360610a4f565b600061041582610a79565b6104386105b3565b73ffffffffffffffffffffffffffffffffffffffff163373ffffffffffffffffffffffffffffffffffffffff16146104cc576040517f08c379a000000000000000000000000000000000000000000000000000000000815260206004820152600a60248201527f6f6e6c792d61646d696e000000000000000000000000000000000000000000006044820152606401610132565b61035381610aa6565b6104dd6105b3565b73ffffffffffffffffffffffffffffffffffffffff163373ffffffffffffffffffffffffffffffffffffffff1614610571576040517f08c379a000000000000000000000000000000000000000000000000000000000815260206004820152600a60248201527f6f6e6c792d61646d696e000000000000000000000000000000000000000000006044820152606401610132565b6105ae83838380806020026020016040519081016040528093929190818152602001838360200280828437600092019190915250610b3992505050565b505050565b60006103607fb53127684a568b3173ae13b9f8a6016e243e63b6e8ee1178d6a717850b5d61035490565b604080516020808201839052601c60608301527f656970313936372e70726f78792e696d706c656d656e746174696f6e0000000060808084019190915273ffffffffffffffffffffffffffffffffffffffff8516838501528351808403909101815260a090920190925280519101206000818054604080516020808402820181019092528281529291908301828280156106d857602002820191906000526020600020906000905b82829054906101000a900460e01b7bffffffffffffffffffffffffffffffffffffffffffffffffffffffff1916815260200190600401906020826003010492830192600103820291508084116106855790505b50505050509050805160000361074a576040517f08c379a000000000000000000000000000000000000000000000000000000000815260206004820152601860248201527f696d706c656d656e746174696f6e2d6e6f742d657869737400000000000000006044820152606401610132565b60005b81518110156107ad57600061079683838151811061076d5761076d6110aa565b60200260200101517b3ba1a3210667c828492db98dca3e2076cc3735a920a3ca505d382bbc1790565b6000905550806107a5816110d9565b91505061074d565b506107b9826000610e39565b60405173ffffffffffffffffffffffffffffffffffffffff8416907fda53aaefabec4c3f8ba693a2e3c67fa0152fbd71c369d51f669e66b28a4a086490600090a2505050565b60006108096105b3565b905073ffffffffffffffffffffffffffffffffffffffff82166108ae576040517f08c379a000000000000000000000000000000000000000000000000000000000815260206004820152602660248201527f455243313936373a206e65772061646d696e20697320746865207a65726f206160448201527f64647265737300000000000000000000000000000000000000000000000000006064820152608401610132565b6108d77fb53127684a568b3173ae13b9f8a6016e243e63b6e8ee1178d6a717850b5d6103839055565b8173ffffffffffffffffffffffffffffffffffffffff168173ffffffffffffffffffffffffffffffffffffffff167fb2396a4169c0fac3eb0713eb7d54220cbe5e21e585a59578ec4de929657c073360405160405180910390a35050565b606060006109b6836040805160208101829052601c60608201527f656970313936372e70726f78792e696d706c656d656e746174696f6e00000000608082015273ffffffffffffffffffffffffffffffffffffffff83169181019190915260009060a001604051602081830303815290604052805190602001209050919050565b905080805460408051602080840282018101909252828152929190830182828015610a4257602002820191906000526020600020906000905b82829054906101000a900460e01b7bffffffffffffffffffffffffffffffffffffffffffffffffffffffff1916815260200190600401906020826003010492830192600103820291508084116109ef5790505b5050505050915050919050565b60006103607f360894a13ba1a3210667c828492db98dca3e2076cc3735a920a3ca505d382bbc5490565b7b3ba1a3210667c828492db98dca3e2076cc3735a920a3ca505d382bbc81178054600091905b9392505050565b6000610ab0610a4f565b9050610adb7f360894a13ba1a3210667c828492db98dca3e2076cc3735a920a3ca505d382bbc839055565b8173ffffffffffffffffffffffffffffffffffffffff168173ffffffffffffffffffffffffffffffffffffffff167f761380f4203cd2fcc7ee1ae32561463bc08bbf6761cb9d5caa925f99a6d5450260405160405180910390a35050565b8051600003610ba4576040517f08c379a000000000000000000000000000000000000000000000000000000000815260206004820152600760248201527f6e6f2d73696773000000000000000000000000000000000000000000000000006044820152606401610132565b604080516020808201839052601c60608301527f656970313936372e70726f78792e696d706c656d656e746174696f6e0000000060808084019190915273ffffffffffffffffffffffffffffffffffffffff8616838501528351808403909101815260a09092019092528051910120600081805460408051602080840282018101909252828152929190830182828015610c9f57602002820191906000526020600020906000905b82829054906101000a900460e01b7bffffffffffffffffffffffffffffffffffffffffffffffffffffffff191681526020019060040190602082600301049283019260010382029150808411610c4c5790505b505050505090508051600014610d11576040517f08c379a000000000000000000000000000000000000000000000000000000000815260206004820152601c60248201527f696d706c656d656e746174696f6e2d616c72656164792d6578697374000000006044820152606401610132565b60005b8351811015610dd2576000610d3485838151811061076d5761076d6110aa565b90506000610d40825490565b73ffffffffffffffffffffffffffffffffffffffff1614610dbd576040517f08c379a000000000000000000000000000000000000000000000000000000000815260206004820152601160248201527f7369672d616c72656164792d65786973740000000000000000000000000000006044820152606401610132565b85905580610dca816110d9565b915050610d14565b5082828151610de49260200190610e5e565b508373ffffffffffffffffffffffffffffffffffffffff167fd613a4a18e567ee1f2db4d5b528a5fee09f7dff92d6fb708afd6c095070a9c6d84604051610e2b9190610f63565b60405180910390a250505050565b5080546000825560070160089004906000526020600020908101906103539190610f0a565b82805482825590600052602060002090600701600890048101928215610efa5791602002820160005b83821115610ec857835183826101000a81548163ffffffff021916908360e01c02179055509260200192600401602081600301049283019260010302610e87565b8015610ef85782816101000a81549063ffffffff0219169055600401602081600301049283019260010302610ec8565b505b50610f06929150610f0a565b5090565b5b80821115610f065760008155600101610f0b565b803573ffffffffffffffffffffffffffffffffffffffff81168114610f4357600080fd5b919050565b600060208284031215610f5a57600080fd5b610a9f82610f1f565b6020808252825182820181905260009190848201906040850190845b81811015610fbd5783517fffffffff000000000000000000000000000000000000000000000000000000001683529284019291840191600101610f7f565b50909695505050505050565b600060208284031215610fdb57600080fd5b81357fffffffff0000000000000000000000000000000000000000000000000000000081168114610a9f57600080fd5b60006020828403121561101d57600080fd5b5035919050565b60008060006040848603121561103957600080fd5b61104284610f1f565b9250602084013567ffffffffffffffff8082111561105f57600080fd5b818601915086601f83011261107357600080fd5b81358181111561108257600080fd5b8760208260051b850101111561109757600080fd5b6020830194508093505050509250925092565b7f4e487b7100000000000000000000000000000000000000000000000000000000600052603260045260246000fd5b60007fffffffffffffffffffffffffffffffffffffffffffffffffffffffffffffffff8203611131577f4e487b7100000000000000000000000000000000000000000000000000000000600052601160045260246000fd5b506001019056fea2646970667358221220f0ded691978ced5e475a50bf098a14af3b604d9b88d5f7ba32221c2d31d6f40064736f6c63430008150033b53127684a568b3173ae13b9f8a6016e243e63b6e8ee1178d6a717850b5d6103360894a13ba1a3210667c828492db98dca3e2076cc3735a920a3ca505d382bbc",
  "devdoc": {
    "kind": "dev",
    "methods": {
      "addImplementation(address,bytes4[])": {
        "details": "Adds new implementation address."
      },
      "getAdmin()": {
        "details": "Returns admin's address."
      },
      "getDummyImplementation()": {
        "details": "Returns dummy-implementations's address."
      },
      "getImplementationSigs(address)": {
        "details": "Returns bytes4[] sigs from implementation address If not registered then returns empty array."
      },
      "getSigsImplementation(bytes4)": {
        "details": "Returns implementation address from bytes4 sig. If sig is not registered then returns address(0)."
      },
      "removeImplementation(address)": {
        "details": "Removes an existing implementation address."
      },
      "setAdmin(address)": {
        "details": "Sets new admin."
      },
      "setDummyImplementation(address)": {
        "details": "Sets new dummy-implementation."
      }
    },
    "version": 1
  },
  "userdoc": {
    "events": {
      "LogRemoveImplementation(address)": {
        "notice": "emitted when an implementation is removed"
      },
      "LogSetAdmin(address,address)": {
        "notice": "emitted when a new admin is set"
      },
      "LogSetDummyImplementation(address,address)": {
        "notice": "emitted when a new dummy implementation is set"
      },
      "LogSetImplementation(address,bytes4[])": {
        "notice": "emitted when a new implementation is set with certain sigs"
      }
    },
    "kind": "user",
    "methods": {},
    "notice": "Fluid Liquidity infinte proxy. Liquidity is the central point of the Instadapp Fluid architecture, it is the core interaction point for all allow-listed protocols, such as fTokens, Vault, Flashloan, StETH protocol, DEX protocol etc.",
    "version": 1
  },
  "storageLayout": {
    "storage": [],
    "types": null
  }
}