{
  "address": "0x00525e0332488a83119804541DA487e7CbAc40c2",
  "abi": [
    {
      "inputs": [
        {
          "internalType": "address",
          "name": "liquidity_",
          "type": "address"
        },
        {
          "internalType": "address",
          "name": "vaultFactory_",
          "type": "address"
        },
        {
          "internalType": "address",
          "name": "deployer_",
          "type": "address"
        },
        {
          "internalType": "address",
          "name": "vaultAdminImplementation_",
          "type": "address"
        },
        {
          "internalType": "address",
          "name": "vaultSecondaryImplementation_",
          "type": "address"
        },
        {
          "internalType": "address",
          "name": "vaultOperateImplementation_",
          "type": "address"
        },
        {
          "internalType": "address",
          "name": "vaultMainImplementation_",
          "type": "address"
        }
      ],
      "stateMutability": "nonpayable",
      "type": "constructor"
    },
    {
      "inputs": [
        {
          "internalType": "uint256",
          "name": "colLiquidated",
          "type": "uint256"
        },
        {
          "internalType": "uint256",
          "name": "debtLiquidated",
          "type": "uint256"
        }
      ],
      "name": "FluidLiquidateResult",
      "type": "error"
    },
    {
      "inputs": [
        {
          "internalType": "uint256",
          "name": "errorId_",
          "type": "uint256"
        }
      ],
      "name": "FluidVaultError",
      "type": "error"
    },
    {
      "anonymous": false,
      "inputs": [
        {
          "indexed": true,
          "internalType": "address",
          "name": "vault",
          "type": "address"
        },
        {
          "indexed": false,
          "internalType": "uint256",
          "name": "vaultId",
          "type": "uint256"
        },
        {
          "indexed": true,
          "internalType": "address",
          "name": "supplyToken",
          "type": "address"
        },
        {
          "indexed": true,
          "internalType": "address",
          "name": "smartDebt",
          "type": "address"
        }
      ],
      "name": "VaultT3Deployed",
      "type": "event"
    },
    {
      "inputs": [],
      "name": "ADDRESS_THIS",
      "outputs": [
        {
          "internalType": "address",
          "name": "",
          "type": "address"
        }
      ],
      "stateMutability": "view",
      "type": "function"
    },
    {
      "inputs": [],
      "name": "ADMIN_IMPLEMENTATION",
      "outputs": [
        {
          "internalType": "address",
          "name": "",
          "type": "address"
        }
      ],
      "stateMutability": "view",
      "type": "function"
    },
    {
      "inputs": [],
      "name": "DEPLOYER",
      "outputs": [
        {
          "internalType": "address",
          "name": "",
          "type": "address"
        }
      ],
      "stateMutability": "view",
      "type": "function"
    },
    {
      "inputs": [],
      "name": "LIQUIDITY",
      "outputs": [
        {
          "internalType": "address",
          "name": "",
          "type": "address"
        }
      ],
      "stateMutability": "view",
      "type": "function"
    },
    {
      "inputs": [],
      "name": "MINI_DEPLOYER",
      "outputs": [
        {
          "internalType": "contract MiniDeployer",
          "name": "",
          "type": "address"
        }
      ],
      "stateMutability": "view",
      "type": "function"
    },
    {
      "inputs": [],
      "name": "SECONDARY_IMPLEMENTATION",
      "outputs": [
        {
          "internalType": "address",
          "name": "",
          "type": "address"
        }
      ],
      "stateMutability": "view",
      "type": "function"
    },
    {
      "inputs": [],
      "name": "VAULT_T3_CREATIONCODE_MAIN",
      "outputs": [
        {
          "internalType": "address",
          "name": "",
          "type": "address"
        }
      ],
      "stateMutability": "view",
      "type": "function"
    },
    {
      "inputs": [],
      "name": "VAULT_T3_CREATIONCODE_MAIN_OPERATE",
      "outputs": [
        {
          "internalType": "address",
          "name": "",
          "type": "address"
        }
      ],
      "stateMutability": "view",
      "type": "function"
    },
    {
      "inputs": [],
      "name": "mainCreationCode",
      "outputs": [
        {
          "internalType": "bytes",
          "name": "",
          "type": "bytes"
        }
      ],
      "stateMutability": "view",
      "type": "function"
    },
    {
      "inputs": [],
      "name": "operateCreationCode",
      "outputs": [
        {
          "internalType": "bytes",
          "name": "",
          "type": "bytes"
        }
      ],
      "stateMutability": "view",
      "type": "function"
    },
    {
      "inputs": [
        {
          "internalType": "address",
          "name": "supplyToken_",
          "type": "address"
        },
        {
          "internalType": "address",
          "name": "smartDebt_",
          "type": "address"
        }
      ],
      "name": "vaultT3",
      "outputs": [
        {
          "internalType": "bytes",
          "name": "vaultCreationBytecode_",
          "type": "bytes"
        }
      ],
      "stateMutability": "nonpayable",
      "type": "function"
    }
  ],
  "transactionHash": "0x7bc433e116ffc8d41a79f7a2f39c8de6696bfc854561cab8688a038a35252f3b",
  "args": [
    "0x52Aa899454998Be5b000Ad077a46Bbe360F4e497",
    "0x324c5Dc1fC42c7a4D43d92df1eBA58a54d13Bf2d",
    "0x4EC7b668BAF70d4A4b0FC7941a7708A07b6d45Be",
    "0x22A6d8814F4F2B0EbbF50170f0E93e36bb11c3a4",
    "0xB6FF36e7d04e6017E0323F1f92A8184370d48907",
    "0x81Fc5FD8A6b95414D452e0Cd8658c7F71Bd7146f",
    "0xc7cd1Ca8f60e54CC0d99739fF074152c585765Fe"
  ],
  "numDeployments": 1,
  "solcInputHash": "7ded33794b695102c601d6aba03eb026",
  "bytecode": "0x6101806040523480156200001257600080fd5b506040516200186e3803806200186e8339810160408190526200003591620000e9565b6001600160a01b0380881660805285811660a05284811660e05283166101005260405186906200006590620000be565b6001600160a01b039091168152602001604051809103906000f08015801562000092573d6000803e3d6000fd5b506001600160a01b0390811660c05291821661012052166101405250503061016052506200017e915050565b6104f4806200137a83390190565b80516001600160a01b0381168114620000e457600080fd5b919050565b600080600080600080600060e0888a0312156200010557600080fd5b6200011088620000cc565b96506200012060208901620000cc565b95506200013060408901620000cc565b94506200014060608901620000cc565b93506200015060808901620000cc565b92506200016060a08901620000cc565b91506200017060c08901620000cc565b905092959891949750929550565b60805160a05160c05160e05161010051610120516101405161016051611151620002296000396000818161021b01526102ad01526000818161015001528181610853015261096a01526000818161017f0152818161026b01526106d90152600081816101cd015261055c01526000818161024201526105340152600081816101a601526107b80152600081816101f4015261050801526000818160f101526104d901526111516000f3fe608060405234801561001057600080fd5b50600436106100c95760003560e01c806378df1cca11610081578063c1b8411a1161005b578063c1b8411a146101ef578063cc025f7c14610216578063cc2fe94b1461023d57600080fd5b806378df1cca1461017a5780638cb1b071146101a1578063a07ddc17146101c857600080fd5b80632e60b486116100b25780632e60b486146101385780633463bc3e1461014b5780636b1717741461017257600080fd5b80630e09956a146100ce5780632861c7d1146100ec575b600080fd5b6100d6610264565b6040516100e39190610b9e565b60405180910390f35b6101137f000000000000000000000000000000000000000000000000000000000000000081565b60405173ffffffffffffffffffffffffffffffffffffffff90911681526020016100e3565b6100d6610146366004610c14565b610294565b6101137f000000000000000000000000000000000000000000000000000000000000000081565b6100d6610963565b6101137f000000000000000000000000000000000000000000000000000000000000000081565b6101137f000000000000000000000000000000000000000000000000000000000000000081565b6101137f000000000000000000000000000000000000000000000000000000000000000081565b6101137f000000000000000000000000000000000000000000000000000000000000000081565b6101137f000000000000000000000000000000000000000000000000000000000000000081565b6101137f000000000000000000000000000000000000000000000000000000000000000081565b606061028f7f000000000000000000000000000000000000000000000000000000000000000061098a565b905090565b606073ffffffffffffffffffffffffffffffffffffffff7f000000000000000000000000000000000000000000000000000000000000000016300361030d576040517f60121cca000000000000000000000000000000000000000000000000000000008152617537600482015260240160405180910390fd5b73ffffffffffffffffffffffffffffffffffffffff831673eeeeeeeeeeeeeeeeeeeeeeeeeeeeeeeeeeeeeeee146103af578273ffffffffffffffffffffffffffffffffffffffff1663313ce5676040518163ffffffff1660e01b8152600401602060405180830381865afa158015610389573d6000803e3d6000fd5b505050506040513d601f19601f820116820180604052508101906103ad9190610c4d565b505b60008273ffffffffffffffffffffffffffffffffffffffff1663b7791bf26040518163ffffffff1660e01b815260040161024060405180830381865afa1580156103fd573d6000803e3d6000fd5b505050506040513d601f19601f820116820180604052508101906104219190610d9d565b90506104c2604080516102008101825260008082526020808301829052828401829052606083018290526080830182905260a0830182905260c0830182905260e0830182905283518085018552828152808201839052610100840152835180850190945281845283015290610120820190815260006020820181905260408201819052606082018190526080820181905260a0820181905260c09091015290565b73ffffffffffffffffffffffffffffffffffffffff7f000000000000000000000000000000000000000000000000000000000000000081168083523060208085018290527f0000000000000000000000000000000000000000000000000000000000000000841660a0808701919091527f0000000000000000000000000000000000000000000000000000000000000000851660608701527f00000000000000000000000000000000000000000000000000000000000000008516608087015260c0808701949094526101008601518a8616905288851660e0870152860151610120860180519186169091529286015192519290931691830191909152604080517f8d65402300000000000000000000000000000000000000000000000000000000815290519192638d654023926004808401938290030181865afa15801561060f573d6000803e3d6000fd5b505050506040513d601f19601f820116820180604052508101906106339190610e84565b61014082018190526175306101608301526040517fe6bd26a2000000000000000000000000000000000000000000000000000000008152600091309163e6bd26a2916106859160040190815260200190565b602060405180830381865afa1580156106a2573d6000803e3d6000fd5b505050506040513d601f19601f820116820180604052508101906106c69190610e9d565b90506106d282826109b8565b91506106fd7f000000000000000000000000000000000000000000000000000000000000000061098a565b8260405160200161070e9190610eba565b604080517fffffffffffffffffffffffffffffffffffffffffffffffffffffffffffffffe08184030181529082905261074a92916020016110b2565b604080517fffffffffffffffffffffffffffffffffffffffffffffffffffffffffffffffe0818403018152908290527f798133dd000000000000000000000000000000000000000000000000000000008252945060009073ffffffffffffffffffffffffffffffffffffffff7f0000000000000000000000000000000000000000000000000000000000000000169063798133dd906107ed908890600401610b9e565b6020604051808303816000875af115801561080c573d6000803e3d6000fd5b505050506040513d601f19601f820116820180604052508101906108309190610e9d565b73ffffffffffffffffffffffffffffffffffffffff8116604085015290506108777f000000000000000000000000000000000000000000000000000000000000000061098a565b836040516020016108889190610eba565b604080517fffffffffffffffffffffffffffffffffffffffffffffffffffffffffffffffe0818403018152908290526108c492916020016110b2565b60405160208183030381529060405294508573ffffffffffffffffffffffffffffffffffffffff168773ffffffffffffffffffffffffffffffffffffffff168373ffffffffffffffffffffffffffffffffffffffff167f6e6ef0e482822af7114029dca9524b6e8ffee44d30247c4f9e454c1987fc72c186610140015160405161095091815260200190565b60405180910390a4505050505b92915050565b606061028f7f00000000000000000000000000000000000000000000000000000000000000005b606061095d8260016109b38173ffffffffffffffffffffffffffffffffffffffff84163b6110e1565b610b39565b610a57604080516102008101825260008082526020808301829052828401829052606083018290526080830182905260a0830182905260c0830182905260e0830182905283518085018552828152808201839052610100840152835180850190945281845283015290610120820190815260006020820181905260408201819052606082018190526080820181905260a0820181905260c09091015290565b5061010082018051516040805173ffffffffffffffffffffffffffffffffffffffff92831660208083019190915260058284018190528351808403850181526060938401855280519083012061018089015260006101a08901529451518351968516878301819052600888860152845180890386018152888501865280519084012091909516608088015260a0808801919091528351808803909101815260c090960183528551958101959095206101c0870152815180860193909352828201939093528051808303820181529190920190915280519101206101e082015290565b60408051603f83017fffffffffffffffffffffffffffffffffffffffffffffffffffffffffffffffe0168101909152818152818360208301863c9392505050565b60005b83811015610b95578181015183820152602001610b7d565b50506000910152565b6020815260008251806020840152610bbd816040850160208701610b7a565b601f017fffffffffffffffffffffffffffffffffffffffffffffffffffffffffffffffe0169190910160400192915050565b73ffffffffffffffffffffffffffffffffffffffff81168114610c1157600080fd5b50565b60008060408385031215610c2757600080fd5b8235610c3281610bef565b91506020830135610c4281610bef565b809150509250929050565b600060208284031215610c5f57600080fd5b815160ff81168114610c7057600080fd5b9392505050565b6040516101c0810167ffffffffffffffff81118282101715610cc2577f4e487b7100000000000000000000000000000000000000000000000000000000600052604160045260246000fd5b60405290565b8051610cd381610bef565b919050565b600060a08284031215610cea57600080fd5b60405160a0810181811067ffffffffffffffff82111715610d34577f4e487b7100000000000000000000000000000000000000000000000000000000600052604160045260246000fd5b80604052508091508251610d4781610bef565b81526020830151610d5781610bef565b60208201526040830151610d6a81610bef565b60408201526060830151610d7d81610bef565b60608201526080830151610d9081610bef565b6080919091015292915050565b60006102408284031215610db057600080fd5b610db8610c77565b82518152610dc860208401610cc8565b6020820152610dd960408401610cc8565b6040820152610deb8460608501610cd8565b6060820152610100610dfe818501610cc8565b6080830152610120610e11818601610cc8565b60a0840152610140610e24818701610cc8565b60c08501526101608087015160e086015261018080880151858701526101a0945084880151848701526101c0880151838701526101e088015182870152610200880151818701525050505061022084015181830152508091505092915050565b600060208284031215610e9657600080fd5b5051919050565b600060208284031215610eaf57600080fd5b8151610c7081610bef565b815173ffffffffffffffffffffffffffffffffffffffff16815261024081016020830151610f00602084018273ffffffffffffffffffffffffffffffffffffffff169052565b506040830151610f28604084018273ffffffffffffffffffffffffffffffffffffffff169052565b506060830151610f50606084018273ffffffffffffffffffffffffffffffffffffffff169052565b506080830151610f78608084018273ffffffffffffffffffffffffffffffffffffffff169052565b5060a0830151610fa060a084018273ffffffffffffffffffffffffffffffffffffffff169052565b5060c0830151610fc860c084018273ffffffffffffffffffffffffffffffffffffffff169052565b5060e0830151610ff060e084018273ffffffffffffffffffffffffffffffffffffffff169052565b5061010083810151805173ffffffffffffffffffffffffffffffffffffffff90811685840152602082015116610120850152505061012083015161014061105c81850183805173ffffffffffffffffffffffffffffffffffffffff908116835260209182015116910152565b840151610180848101919091526101608501516101a080860191909152908501516101c080860191909152908501516101e080860191909152908501516102008501529093015161022090920191909152919050565b600083516110c4818460208801610b7a565b8351908301906110d8818360208801610b7a565b01949350505050565b8181038181111561095d577f4e487b7100000000000000000000000000000000000000000000000000000000600052601160045260246000fdfea264697066735822122097a67032c4d6c617731599c2526705e0a5c211a4456e512fbe6f1e3c4a5f672b64736f6c63430008150033608060405234801561001057600080fd5b506040516104f43803806104f483398101604081905261002f9161007e565b600080546001600160a01b0319166001600160a01b03831690811782556040518392907f8be0079c531659141344cd1fd0a4f28419497f9722a3daafe3b4186f6b6457e0908290a350506100ae565b60006020828403121561009057600080fd5b81516001600160a01b03811681146100a757600080fd5b9392505050565b610437806100bd6000396000f3fe608060405234801561001057600080fd5b50600436106100415760003560e01c8063798133dd146100465780638da5cb5b14610082578063f2fde38b146100a2575b600080fd5b610059610054366004610352565b6100b7565b60405173ffffffffffffffffffffffffffffffffffffffff909116815260200160405180910390f35b6000546100599073ffffffffffffffffffffffffffffffffffffffff1681565b6100b56100b03660046103c4565b6101c7565b005b6000805473ffffffffffffffffffffffffffffffffffffffff16331461013e576040517f08c379a000000000000000000000000000000000000000000000000000000000815260206004820152600c60248201527f554e415554484f52495a4544000000000000000000000000000000000000000060448201526064015b60405180910390fd5b61017d83838080601f0160208091040260200160405190810160405280939291908181526020018383808284376000920191909152506102b892505050565b60405190915073ffffffffffffffffffffffffffffffffffffffff8216907ff40020e78c6e173ba88aa2c344ed520fab87fe67b9e5aa34626af9d86a3cd47b90600090a292915050565b60005473ffffffffffffffffffffffffffffffffffffffff163314610248576040517f08c379a000000000000000000000000000000000000000000000000000000000815260206004820152600c60248201527f554e415554484f52495a454400000000000000000000000000000000000000006044820152606401610135565b600080547fffffffffffffffffffffffff00000000000000000000000000000000000000001673ffffffffffffffffffffffffffffffffffffffff83169081178255604051909133917f8be0079c531659141344cd1fd0a4f28419497f9722a3daafe3b4186f6b6457e09190a350565b600081516000036102f5576040517f830297c900000000000000000000000000000000000000000000000000000000815260040160405180910390fd5b8151602083016000f0905073ffffffffffffffffffffffffffffffffffffffff811661034d576040517f830297c900000000000000000000000000000000000000000000000000000000815260040160405180910390fd5b919050565b6000806020838503121561036557600080fd5b823567ffffffffffffffff8082111561037d57600080fd5b818501915085601f83011261039157600080fd5b8135818111156103a057600080fd5b8660208285010111156103b257600080fd5b60209290920196919550909350505050565b6000602082840312156103d657600080fd5b813573ffffffffffffffffffffffffffffffffffffffff811681146103fa57600080fd5b939250505056fea26469706673582212201bc75243187841bf004ccfd8c2e19e986902002ceb1c8c6119f0fb68cfeed79364736f6c63430008150033",
  "devdoc": {
    "events": {
      "VaultT3Deployed(address,uint256,address,address)": {
        "params": {
          "smartDebt": "The address of the dex for which the smart debt is used.",
          "supplyToken": "The address of the supply token.",
          "vault": "The address of the newly deployed vault.",
          "vaultId": "The id of the newly deployed vault."
        }
      }
    },
    "kind": "dev",
    "methods": {
      "constructor": {
        "details": "each vault type has different vaultAdminImplementation but same vaultSecondaryImplementatio"
      },
      "mainCreationCode()": {
        "details": "Retrieves the creation code for the main contract"
      },
      "operateCreationCode()": {
        "details": "Retrieves the creation code for the Operate contract"
      }
    },
    "version": 1
  },
  "userdoc": {
    "errors": {
      "FluidLiquidateResult(uint256,uint256)": [
        {
          "notice": "used to simulate liquidation to find the maximum liquidatable amounts"
        }
      ]
    },
    "events": {
      "VaultT3Deployed(address,uint256,address,address)": {
        "notice": "Emitted when a new vaultT3 is deployed."
      }
    },
    "kind": "user",
    "methods": {
      "ADDRESS_THIS()": {
        "notice": "address of this contract"
      },
      "ADMIN_IMPLEMENTATION()": {
        "notice": "address of Admin implementation"
      },
      "LIQUIDITY()": {
        "notice": "address of liquidity contract"
      },
      "MINI_DEPLOYER()": {
        "notice": "address of MiniDeployer Contract"
      },
      "SECONDARY_IMPLEMENTATION()": {
        "notice": "address of Secondary implementation"
      }
    },
    "version": 1
  },
  "storageLayout": {
    "storage": [],
    "types": null
  }
}