{
  "address": "0x1A1f630755d00C99d5202e65D78E23bCA202ae4F",
  "abi": [
    {
      "inputs": [
        {
          "internalType": "string",
          "name": "name_",
          "type": "string"
        },
        {
          "internalType": "address",
          "name": "owner_",
          "type": "address"
        },
        {
          "internalType": "address",
          "name": "proposer_",
          "type": "address"
        },
        {
          "internalType": "address",
          "name": "approver_",
          "type": "address"
        },
        {
          "internalType": "address",
          "name": "rewardToken_",
          "type": "address"
        }
      ],
      "stateMutability": "nonpayable",
      "type": "constructor"
    },
    {
      "inputs": [],
      "name": "InvalidCycle",
      "type": "error"
    },
    {
      "inputs": [],
      "name": "InvalidParams",
      "type": "error"
    },
    {
      "inputs": [],
      "name": "InvalidProof",
      "type": "error"
    },
    {
      "inputs": [],
      "name": "MsgSenderNotRecipient",
      "type": "error"
    },
    {
      "inputs": [],
      "name": "NothingToClaim",
      "type": "error"
    },
    {
      "inputs": [],
      "name": "Unauthorized",
      "type": "error"
    },
    {
      "anonymous": false,
      "inputs": [
        {
          "indexed": false,
          "internalType": "address",
          "name": "user",
          "type": "address"
        },
        {
          "indexed": false,
          "internalType": "uint256",
          "name": "amount",
          "type": "uint256"
        },
        {
          "indexed": false,
          "internalType": "uint256",
          "name": "cycle",
          "type": "uint256"
        },
        {
          "indexed": false,
          "internalType": "uint8",
          "name": "positionType",
          "type": "uint8"
        },
        {
          "indexed": false,
          "internalType": "bytes32",
          "name": "positionId",
          "type": "bytes32"
        },
        {
          "indexed": false,
          "internalType": "uint256",
          "name": "timestamp",
          "type": "uint256"
        },
        {
          "indexed": false,
          "internalType": "uint256",
          "name": "blockNumber",
          "type": "uint256"
        }
      ],
      "name": "LogClaimed",
      "type": "event"
    },
    {
      "anonymous": false,
      "inputs": [
        {
          "indexed": false,
          "internalType": "uint256",
          "name": "maxRewardsDuration_",
          "type": "uint256"
        }
      ],
      "name": "LogMaxRewardsDurationUpdated",
      "type": "event"
    },
    {
      "anonymous": false,
      "inputs": [
        {
          "indexed": false,
          "internalType": "address",
          "name": "token_",
          "type": "address"
        },
        {
          "indexed": false,
          "internalType": "uint256",
          "name": "amount_",
          "type": "uint256"
        },
        {
          "indexed": false,
          "internalType": "uint256",
          "name": "epoch_",
          "type": "uint256"
        },
        {
          "indexed": false,
          "internalType": "uint256",
          "name": "startBlock_",
          "type": "uint256"
        },
        {
          "indexed": false,
          "internalType": "uint256",
          "name": "endBlock_",
          "type": "uint256"
        }
      ],
      "name": "LogRewardInitiated",
      "type": "event"
    },
    {
      "anonymous": false,
      "inputs": [
        {
          "indexed": false,
          "internalType": "address",
          "name": "distributor_",
          "type": "address"
        },
        {
          "indexed": false,
          "internalType": "bool",
          "name": "isDistributor_",
          "type": "bool"
        }
      ],
      "name": "LogRewardsDistributorToggled",
      "type": "event"
    },
    {
      "anonymous": false,
      "inputs": [
        {
          "indexed": false,
          "internalType": "uint256",
          "name": "cycle",
          "type": "uint256"
        },
        {
          "indexed": false,
          "internalType": "bytes32",
          "name": "root",
          "type": "bytes32"
        },
        {
          "indexed": false,
          "internalType": "bytes32",
          "name": "contentHash",
          "type": "bytes32"
        },
        {
          "indexed": false,
          "internalType": "uint256",
          "name": "timestamp",
          "type": "uint256"
        },
        {
          "indexed": false,
          "internalType": "uint256",
          "name": "blockNumber",
          "type": "uint256"
        }
      ],
      "name": "LogRootProposed",
      "type": "event"
    },
    {
      "anonymous": false,
      "inputs": [
        {
          "indexed": false,
          "internalType": "uint256",
          "name": "cycle",
          "type": "uint256"
        },
        {
          "indexed": false,
          "internalType": "bytes32",
          "name": "root",
          "type": "bytes32"
        },
        {
          "indexed": false,
          "internalType": "bytes32",
          "name": "contentHash",
          "type": "bytes32"
        },
        {
          "indexed": false,
          "internalType": "uint256",
          "name": "timestamp",
          "type": "uint256"
        },
        {
          "indexed": false,
          "internalType": "uint256",
          "name": "blockNumber",
          "type": "uint256"
        }
      ],
      "name": "LogRootUpdated",
      "type": "event"
    },
    {
      "anonymous": false,
      "inputs": [
        {
          "indexed": false,
          "internalType": "uint256",
          "name": "noOfCyclesPerDistribution_",
          "type": "uint256"
        }
      ],
      "name": "LogTotalDistributionCyclesUpdated",
      "type": "event"
    },
    {
      "anonymous": false,
      "inputs": [
        {
          "indexed": false,
          "internalType": "address",
          "name": "approver",
          "type": "address"
        },
        {
          "indexed": false,
          "internalType": "bool",
          "name": "isApprover",
          "type": "bool"
        }
      ],
      "name": "LogUpdateApprover",
      "type": "event"
    },
    {
      "anonymous": false,
      "inputs": [
        {
          "indexed": false,
          "internalType": "address",
          "name": "proposer",
          "type": "address"
        },
        {
          "indexed": false,
          "internalType": "bool",
          "name": "isProposer",
          "type": "bool"
        }
      ],
      "name": "LogUpdateProposer",
      "type": "event"
    },
    {
      "anonymous": false,
      "inputs": [
        {
          "indexed": true,
          "internalType": "address",
          "name": "user",
          "type": "address"
        },
        {
          "indexed": true,
          "internalType": "address",
          "name": "newOwner",
          "type": "address"
        }
      ],
      "name": "OwnershipTransferred",
      "type": "event"
    },
    {
      "anonymous": false,
      "inputs": [
        {
          "indexed": false,
          "internalType": "address",
          "name": "account",
          "type": "address"
        }
      ],
      "name": "Paused",
      "type": "event"
    },
    {
      "anonymous": false,
      "inputs": [
        {
          "indexed": false,
          "internalType": "address",
          "name": "account",
          "type": "address"
        }
      ],
      "name": "Unpaused",
      "type": "event"
    },
    {
      "inputs": [],
      "name": "TOKEN",
      "outputs": [
        {
          "internalType": "contract IERC20",
          "name": "",
          "type": "address"
        }
      ],
      "stateMutability": "view",
      "type": "function"
    },
    {
      "inputs": [
        {
          "internalType": "bytes32",
          "name": "root_",
          "type": "bytes32"
        },
        {
          "internalType": "bytes32",
          "name": "contentHash_",
          "type": "bytes32"
        },
        {
          "internalType": "uint40",
          "name": "cycle_",
          "type": "uint40"
        },
        {
          "internalType": "uint40",
          "name": "startBlock_",
          "type": "uint40"
        },
        {
          "internalType": "uint40",
          "name": "endBlock_",
          "type": "uint40"
        }
      ],
      "name": "approveRoot",
      "outputs": [],
      "stateMutability": "nonpayable",
      "type": "function"
    },
    {
      "inputs": [
        {
          "components": [
            {
              "internalType": "address",
              "name": "recipient",
              "type": "address"
            },
            {
              "internalType": "uint256",
              "name": "cumulativeAmount",
              "type": "uint256"
            },
            {
              "internalType": "uint8",
              "name": "positionType",
              "type": "uint8"
            },
            {
              "internalType": "bytes32",
              "name": "positionId",
              "type": "bytes32"
            },
            {
              "internalType": "uint256",
              "name": "cycle",
              "type": "uint256"
            },
            {
              "internalType": "bytes32[]",
              "name": "merkleProof",
              "type": "bytes32[]"
            },
            {
              "internalType": "bytes",
              "name": "metadata",
              "type": "bytes"
            }
          ],
          "internalType": "struct FluidMerkleDistributor.Claim[]",
          "name": "claims_",
          "type": "tuple[]"
        }
      ],
      "name": "bulkClaim",
      "outputs": [],
      "stateMutability": "nonpayable",
      "type": "function"
    },
    {
      "inputs": [
        {
          "internalType": "address",
          "name": "recipient_",
          "type": "address"
        },
        {
          "internalType": "uint256",
          "name": "cumulativeAmount_",
          "type": "uint256"
        },
        {
          "internalType": "uint8",
          "name": "positionType_",
          "type": "uint8"
        },
        {
          "internalType": "bytes32",
          "name": "positionId_",
          "type": "bytes32"
        },
        {
          "internalType": "uint256",
          "name": "cycle_",
          "type": "uint256"
        },
        {
          "internalType": "bytes32[]",
          "name": "merkleProof_",
          "type": "bytes32[]"
        },
        {
          "internalType": "bytes",
          "name": "metadata_",
          "type": "bytes"
        }
      ],
      "name": "claim",
      "outputs": [],
      "stateMutability": "nonpayable",
      "type": "function"
    },
    {
      "inputs": [
        {
          "internalType": "address",
          "name": "",
          "type": "address"
        },
        {
          "internalType": "bytes32",
          "name": "",
          "type": "bytes32"
        }
      ],
      "name": "claimed",
      "outputs": [
        {
          "internalType": "uint256",
          "name": "",
          "type": "uint256"
        }
      ],
      "stateMutability": "view",
      "type": "function"
    },
    {
      "inputs": [],
      "name": "currentMerkleCycle",
      "outputs": [
        {
          "components": [
            {
              "internalType": "bytes32",
              "name": "merkleRoot",
              "type": "bytes32"
            },
            {
              "internalType": "bytes32",
              "name": "merkleContentHash",
              "type": "bytes32"
            },
            {
              "internalType": "uint40",
              "name": "cycle",
              "type": "uint40"
            },
            {
              "internalType": "uint40",
              "name": "timestamp",
              "type": "uint40"
            },
            {
              "internalType": "uint40",
              "name": "publishBlock",
              "type": "uint40"
            },
            {
              "internalType": "uint40",
              "name": "startBlock",
              "type": "uint40"
            },
            {
              "internalType": "uint40",
              "name": "endBlock",
              "type": "uint40"
            }
          ],
          "internalType": "struct Structs.MerkleCycle",
          "name": "",
          "type": "tuple"
        }
      ],
      "stateMutability": "view",
      "type": "function"
    },
    {
      "inputs": [
        {
          "internalType": "address",
          "name": "recipient_",
          "type": "address"
        },
        {
          "internalType": "uint256",
          "name": "cumulativeAmount_",
          "type": "uint256"
        },
        {
          "internalType": "uint8",
          "name": "positionType_",
          "type": "uint8"
        },
        {
          "internalType": "bytes32",
          "name": "positionId_",
          "type": "bytes32"
        },
        {
          "internalType": "uint256",
          "name": "cycle_",
          "type": "uint256"
        },
        {
          "internalType": "bytes",
          "name": "metadata_",
          "type": "bytes"
        }
      ],
      "name": "encodeClaim",
      "outputs": [
        {
          "internalType": "bytes",
          "name": "encoded_",
          "type": "bytes"
        },
        {
          "internalType": "bytes32",
          "name": "hash_",
          "type": "bytes32"
        }
      ],
      "stateMutability": "pure",
      "type": "function"
    },
    {
      "inputs": [],
      "name": "getActiveRewards",
      "outputs": [
        {
          "components": [
            {
              "internalType": "uint256",
              "name": "amount",
              "type": "uint256"
            },
            {
              "internalType": "uint256",
              "name": "epoch",
              "type": "uint256"
            },
            {
              "internalType": "uint256",
              "name": "startBlock",
              "type": "uint256"
            },
            {
              "internalType": "uint256",
              "name": "endBlock",
              "type": "uint256"
            },
            {
              "internalType": "uint128",
              "name": "registrationBlock",
              "type": "uint128"
            },
            {
              "internalType": "uint128",
              "name": "registrationTimestamp",
              "type": "uint128"
            }
          ],
          "internalType": "struct FluidMerkleDistributorRewards.Reward[]",
          "name": "",
          "type": "tuple[]"
        }
      ],
      "stateMutability": "view",
      "type": "function"
    },
    {
      "inputs": [],
      "name": "getExpiredRewards",
      "outputs": [
        {
          "components": [
            {
              "internalType": "uint256",
              "name": "amount",
              "type": "uint256"
            },
            {
              "internalType": "uint256",
              "name": "epoch",
              "type": "uint256"
            },
            {
              "internalType": "uint256",
              "name": "startBlock",
              "type": "uint256"
            },
            {
              "internalType": "uint256",
              "name": "endBlock",
              "type": "uint256"
            },
            {
              "internalType": "uint128",
              "name": "registrationBlock",
              "type": "uint128"
            },
            {
              "internalType": "uint128",
              "name": "registrationTimestamp",
              "type": "uint128"
            }
          ],
          "internalType": "struct FluidMerkleDistributorRewards.Reward[]",
          "name": "",
          "type": "tuple[]"
        }
      ],
      "stateMutability": "view",
      "type": "function"
    },
    {
      "inputs": [],
      "name": "getRewards",
      "outputs": [
        {
          "components": [
            {
              "internalType": "uint256",
              "name": "amount",
              "type": "uint256"
            },
            {
              "internalType": "uint256",
              "name": "epoch",
              "type": "uint256"
            },
            {
              "internalType": "uint256",
              "name": "startBlock",
              "type": "uint256"
            },
            {
              "internalType": "uint256",
              "name": "endBlock",
              "type": "uint256"
            },
            {
              "internalType": "uint128",
              "name": "registrationBlock",
              "type": "uint128"
            },
            {
              "internalType": "uint128",
              "name": "registrationTimestamp",
              "type": "uint128"
            }
          ],
          "internalType": "struct FluidMerkleDistributorRewards.Reward[]",
          "name": "",
          "type": "tuple[]"
        }
      ],
      "stateMutability": "view",
      "type": "function"
    },
    {
      "inputs": [
        {
          "internalType": "uint256",
          "name": "startBlock_",
          "type": "uint256"
        },
        {
          "internalType": "uint256",
          "name": "endBlock_",
          "type": "uint256"
        }
      ],
      "name": "getRewardsForRange",
      "outputs": [
        {
          "components": [
            {
              "internalType": "uint256",
              "name": "amount",
              "type": "uint256"
            },
            {
              "internalType": "uint256",
              "name": "epoch",
              "type": "uint256"
            },
            {
              "internalType": "uint256",
              "name": "startBlock",
              "type": "uint256"
            },
            {
              "internalType": "uint256",
              "name": "endBlock",
              "type": "uint256"
            },
            {
              "internalType": "uint128",
              "name": "registrationBlock",
              "type": "uint128"
            },
            {
              "internalType": "uint128",
              "name": "registrationTimestamp",
              "type": "uint128"
            }
          ],
          "internalType": "struct FluidMerkleDistributorRewards.Reward[]",
          "name": "",
          "type": "tuple[]"
        }
      ],
      "stateMutability": "view",
      "type": "function"
    },
    {
      "inputs": [],
      "name": "getUpcomingRewards",
      "outputs": [
        {
          "components": [
            {
              "internalType": "uint256",
              "name": "amount",
              "type": "uint256"
            },
            {
              "internalType": "uint256",
              "name": "epoch",
              "type": "uint256"
            },
            {
              "internalType": "uint256",
              "name": "startBlock",
              "type": "uint256"
            },
            {
              "internalType": "uint256",
              "name": "endBlock",
              "type": "uint256"
            },
            {
              "internalType": "uint128",
              "name": "registrationBlock",
              "type": "uint128"
            },
            {
              "internalType": "uint128",
              "name": "registrationTimestamp",
              "type": "uint128"
            }
          ],
          "internalType": "struct FluidMerkleDistributorRewards.Reward[]",
          "name": "",
          "type": "tuple[]"
        }
      ],
      "stateMutability": "view",
      "type": "function"
    },
    {
      "inputs": [],
      "name": "hasPendingRoot",
      "outputs": [
        {
          "internalType": "bool",
          "name": "",
          "type": "bool"
        }
      ],
      "stateMutability": "view",
      "type": "function"
    },
    {
      "inputs": [
        {
          "internalType": "uint256",
          "name": "amount_",
          "type": "uint256"
        }
      ],
      "name": "initiateRewards",
      "outputs": [],
      "stateMutability": "nonpayable",
      "type": "function"
    },
    {
      "inputs": [
        {
          "internalType": "uint256",
          "name": "amount_",
          "type": "uint256"
        },
        {
          "internalType": "uint256",
          "name": "durationInBlocks_",
          "type": "uint256"
        }
      ],
      "name": "initiateRewards",
      "outputs": [],
      "stateMutability": "nonpayable",
      "type": "function"
    },
    {
      "inputs": [
        {
          "internalType": "address",
          "name": "approver_",
          "type": "address"
        }
      ],
      "name": "isApprover",
      "outputs": [
        {
          "internalType": "bool",
          "name": "",
          "type": "bool"
        }
      ],
      "stateMutability": "view",
      "type": "function"
    },
    {
      "inputs": [
        {
          "internalType": "address",
          "name": "proposer_",
          "type": "address"
        }
      ],
      "name": "isProposer",
      "outputs": [
        {
          "internalType": "bool",
          "name": "",
          "type": "bool"
        }
      ],
      "stateMutability": "view",
      "type": "function"
    },
    {
      "inputs": [],
      "name": "maxRewardsDuration",
      "outputs": [
        {
          "internalType": "uint256",
          "name": "",
          "type": "uint256"
        }
      ],
      "stateMutability": "view",
      "type": "function"
    },
    {
      "inputs": [],
      "name": "name",
      "outputs": [
        {
          "internalType": "string",
          "name": "",
          "type": "string"
        }
      ],
      "stateMutability": "view",
      "type": "function"
    },
    {
      "inputs": [],
      "name": "noOfCyclesPerDistribution",
      "outputs": [
        {
          "internalType": "uint256",
          "name": "",
          "type": "uint256"
        }
      ],
      "stateMutability": "view",
      "type": "function"
    },
    {
      "inputs": [],
      "name": "owner",
      "outputs": [
        {
          "internalType": "address",
          "name": "",
          "type": "address"
        }
      ],
      "stateMutability": "view",
      "type": "function"
    },
    {
      "inputs": [],
      "name": "pause",
      "outputs": [],
      "stateMutability": "nonpayable",
      "type": "function"
    },
    {
      "inputs": [],
      "name": "paused",
      "outputs": [
        {
          "internalType": "bool",
          "name": "",
          "type": "bool"
        }
      ],
      "stateMutability": "view",
      "type": "function"
    },
    {
      "inputs": [],
      "name": "pendingMerkleCycle",
      "outputs": [
        {
          "components": [
            {
              "internalType": "bytes32",
              "name": "merkleRoot",
              "type": "bytes32"
            },
            {
              "internalType": "bytes32",
              "name": "merkleContentHash",
              "type": "bytes32"
            },
            {
              "internalType": "uint40",
              "name": "cycle",
              "type": "uint40"
            },
            {
              "internalType": "uint40",
              "name": "timestamp",
              "type": "uint40"
            },
            {
              "internalType": "uint40",
              "name": "publishBlock",
              "type": "uint40"
            },
            {
              "internalType": "uint40",
              "name": "startBlock",
              "type": "uint40"
            },
            {
              "internalType": "uint40",
              "name": "endBlock",
              "type": "uint40"
            }
          ],
          "internalType": "struct Structs.MerkleCycle",
          "name": "",
          "type": "tuple"
        }
      ],
      "stateMutability": "view",
      "type": "function"
    },
    {
      "inputs": [],
      "name": "previousMerkleRoot",
      "outputs": [
        {
          "internalType": "bytes32",
          "name": "",
          "type": "bytes32"
        }
      ],
      "stateMutability": "view",
      "type": "function"
    },
    {
      "inputs": [
        {
          "internalType": "bytes32",
          "name": "root_",
          "type": "bytes32"
        },
        {
          "internalType": "bytes32",
          "name": "contentHash_",
          "type": "bytes32"
        },
        {
          "internalType": "uint40",
          "name": "cycle_",
          "type": "uint40"
        },
        {
          "internalType": "uint40",
          "name": "startBlock_",
          "type": "uint40"
        },
        {
          "internalType": "uint40",
          "name": "endBlock_",
          "type": "uint40"
        }
      ],
      "name": "proposeRoot",
      "outputs": [],
      "stateMutability": "nonpayable",
      "type": "function"
    },
    {
      "inputs": [],
      "name": "pullFromSender",
      "outputs": [
        {
          "internalType": "bool",
          "name": "",
          "type": "bool"
        }
      ],
      "stateMutability": "view",
      "type": "function"
    },
    {
      "inputs": [
        {
          "internalType": "address",
          "name": "",
          "type": "address"
        }
      ],
      "name": "rewardsDistributor",
      "outputs": [
        {
          "internalType": "bool",
          "name": "",
          "type": "bool"
        }
      ],
      "stateMutability": "view",
      "type": "function"
    },
    {
      "inputs": [
        {
          "internalType": "uint256",
          "name": "maxRewardsDuration_",
          "type": "uint256"
        }
      ],
      "name": "setMaxRewardsAge",
      "outputs": [],
      "stateMutability": "nonpayable",
      "type": "function"
    },
    {
      "inputs": [
        {
          "internalType": "bool",
          "name": "pullFromSender_",
          "type": "bool"
        }
      ],
      "name": "setPullFromSender",
      "outputs": [],
      "stateMutability": "nonpayable",
      "type": "function"
    },
    {
      "inputs": [
        {
          "internalType": "uint256",
          "name": "noOfCyclesPerDistribution_",
          "type": "uint256"
        }
      ],
      "name": "setTotalDistributionCycles",
      "outputs": [],
      "stateMutability": "nonpayable",
      "type": "function"
    },
    {
      "inputs": [
        {
          "internalType": "address[]",
          "name": "targets_",
          "type": "address[]"
        },
        {
          "internalType": "bytes[]",
          "name": "calldatas_",
          "type": "bytes[]"
        }
      ],
      "name": "spell",
      "outputs": [],
      "stateMutability": "nonpayable",
      "type": "function"
    },
    {
      "inputs": [
        {
          "internalType": "address",
          "name": "distributor_",
          "type": "address"
        }
      ],
      "name": "toggleRewardsDistributor",
      "outputs": [],
      "stateMutability": "nonpayable",
      "type": "function"
    },
    {
      "inputs": [],
      "name": "totalRewardsToDistribute",
      "outputs": [
        {
          "internalType": "uint256",
          "name": "",
          "type": "uint256"
        }
      ],
      "stateMutability": "view",
      "type": "function"
    },
    {
      "inputs": [
        {
          "internalType": "address",
          "name": "newOwner",
          "type": "address"
        }
      ],
      "name": "transferOwnership",
      "outputs": [],
      "stateMutability": "nonpayable",
      "type": "function"
    },
    {
      "inputs": [],
      "name": "unpause",
      "outputs": [],
      "stateMutability": "nonpayable",
      "type": "function"
    },
    {
      "inputs": [
        {
          "internalType": "address",
          "name": "approver_",
          "type": "address"
        },
        {
          "internalType": "bool",
          "name": "isApprover_",
          "type": "bool"
        }
      ],
      "name": "updateApprover",
      "outputs": [],
      "stateMutability": "nonpayable",
      "type": "function"
    },
    {
      "inputs": [
        {
          "internalType": "address",
          "name": "proposer_",
          "type": "address"
        },
        {
          "internalType": "bool",
          "name": "isProposer_",
          "type": "bool"
        }
      ],
      "name": "updateProposer",
      "outputs": [],
      "stateMutability": "nonpayable",
      "type": "function"
    }
  ],
  "transactionHash": "0xc6c09b6d86e980fb0b2f8e6caf823b286b87dc7f430e03df7ea41f12921601ba",
  "args": [
    "Test Deployment #1",
    "0x9800020b610194dBa52CF606E8Aa142F9F256166",
    "0x910E413DBF3F6276Fe8213fF656726bDc142E08E",
    "0x910E413DBF3F6276Fe8213fF656726bDc142E08E",
    "0x833589fcd6edb6e08f4c7c32d4f71b54bda02913"
  ],
  "numDeployments": 1,
  "solcInputHash": "f7f7e2c3d117404774609e1d4a8a6abf",
  "bytecode": "0x60a06040526004600c55615460600d55600f805460ff191690553480156200002657600080fd5b5060405162003f4b38038062003f4b833981016040819052620000499162000260565b600080546001600160a01b0319166001600160a01b03861690811782556040518692849283928592907f8be0079c531659141344cd1fd0a4f28419497f9722a3daafe3b4186f6b6457e0908290a3506000805460ff60a01b191690556001600160a01b0390811660805286925082169050620000d857604051635435b28960e11b815260040160405180910390fd5b836001600160a01b0381166200010157604051635435b28960e11b815260040160405180910390fd5b836001600160a01b0381166200012a57604051635435b28960e11b815260040160405180910390fd5b836001600160a01b0381166200015357604051635435b28960e11b815260040160405180910390fd5b6001620001618a826200040f565b506001600160a01b038716600081815260026020908152604091829020805460ff191660019081179091558251938452908301527f780d738f356a91be5dfe8ffb87990c655a36b3430a233c71a209eb1e9a1a1a75910160405180910390a16001600160a01b038616600081815260036020908152604091829020805460ff191660019081179091558251938452908301527feeeb06b5605b72367788db09c5284b141487cdc2ab0925fcf8880d30ea584376910160405180910390a1505050505050505050620004db565b634e487b7160e01b600052604160045260246000fd5b80516001600160a01b03811681146200025b57600080fd5b919050565b600080600080600060a086880312156200027957600080fd5b85516001600160401b03808211156200029157600080fd5b818801915088601f830112620002a657600080fd5b815181811115620002bb57620002bb6200022d565b604051601f8201601f19908116603f01168101908382118183101715620002e657620002e66200022d565b81604052828152602093508b848487010111156200030357600080fd5b600091505b8282101562000327578482018401518183018501529083019062000308565b60008484830101528099505050506200034281890162000243565b95505050620003546040870162000243565b9250620003646060870162000243565b9150620003746080870162000243565b90509295509295909350565b600181811c908216806200039557607f821691505b602082108103620003b657634e487b7160e01b600052602260045260246000fd5b50919050565b601f8211156200040a57600081815260208120601f850160051c81016020861015620003e55750805b601f850160051c820191505b818110156200040657828155600101620003f1565b5050505b505050565b81516001600160401b038111156200042b576200042b6200022d565b62000443816200043c845462000380565b84620003bc565b602080601f8311600181146200047b5760008415620004625750858301515b600019600386901b1c1916600185901b17855562000406565b600085815260208120601f198616915b82811015620004ac578886015182559484019460019091019084016200048b565b5085821015620004cb5787850151600019600388901b60f8161c191681555b5050505050600190811b01905550565b608051613a3f6200050c6000396000818161058b01528181611ea0015281816121fa015261228b0152613a3f6000f3fe608060405234801561001057600080fd5b50600436106102925760003560e01c806372149efe11610160578063ace186c4116100d8578063de9d54071161008c578063f2fde38b11610071578063f2fde38b14610740578063f3bd53bf14610753578063ffb025661461077457600080fd5b8063de9d540714610725578063ef078f531461072d57600080fd5b8063c81eec66116100bd578063c81eec6614610640578063caf3791e14610709578063d91bd7801461071257600080fd5b8063ace186c414610620578063be5013dc1461062d57600080fd5b806382bfefc81161012f5780638a1e6bba116101145780638a1e6bba146105da5780638da5cb5b146105ed5780639d01a27d1461060d57600080fd5b806382bfefc8146105865780638456cb59146105d257600080fd5b806372149efe1461054457806374ec29a0146105575780637d909c071461056a57806382bc4aaf1461057357600080fd5b80632274c5cd1161020e5780634617c06a116101c25780635c975abb116101a75780635c975abb146104fb5780636d218e481461051e57806370feb52a1461053157600080fd5b80634617c06a146104e057806354c0a09c146104f357600080fd5b806332c6294e116101f357806332c6294e146104bc57806335c1dd99146104c55780633f4ba83a146104d857600080fd5b80632274c5cd146103825780632f37a774146104b457600080fd5b80630f2d940b1161026557806310ee535f1161024a57806310ee535f1461035e57806314d1bfc1146103665780631563461b1461036f57600080fd5b80630f2d940b1461031257806310ad36ef1461034b57600080fd5b8063045cb124146102975780630572b0cc146102ac578063059527bf146102ca57806306fdde03146102fd575b600080fd5b6102aa6102a5366004612fee565b610787565b005b6102b4610805565b6040516102c19190613007565b60405180910390f35b6102ed6102d83660046130c0565b60116020526000908152604090205460ff1681565b60405190151581526020016102c1565b6103056108bf565b6040516102c19190613149565b61033d61032036600461315c565b600b60209081526000928352604080842090915290825290205481565b6040519081526020016102c1565b6102aa610359366004612fee565b61094d565b6102b4610a0f565b61033d600e5481565b6102aa61037d366004613194565b610c01565b61044b6040805160e081018252600080825260208201819052918101829052606081018290526080810182905260a0810182905260c0810191909152506040805160e0810182526007548152600854602082015260095464ffffffffff80821693830193909352650100000000008104831660608301526a01000000000000000000008104831660808301526f010000000000000000000000000000008104831660a083015274010000000000000000000000000000000000000000900490911660c082015290565b6040516102c19190600060e0820190508251825260208301516020830152604083015164ffffffffff80821660408501528060608601511660608501528060808601511660808501528060a08601511660a08501528060c08601511660c0850152505092915050565b6102ed610d60565b61033d600c5481565b6102aa6104d33660046131e0565b610d8c565b6102aa61107f565b6102aa6104ee3660046131e0565b61110a565b6102b461137b565b60005474010000000000000000000000000000000000000000900460ff166102ed565b6102ed61052c3660046130c0565b611532565b6102aa61053f3660046130c0565b611586565b6102aa610552366004613237565b6116e2565b6102ed6105653660046130c0565b611794565b61033d600d5481565b6102aa610581366004613414565b6117e5565b6105ad7f000000000000000000000000000000000000000000000000000000000000000081565b60405173ffffffffffffffffffffffffffffffffffffffff90911681526020016102c1565b6102aa6118c6565b6102aa6105e8366004613520565b61194f565b6000546105ad9073ffffffffffffffffffffffffffffffffffffffff1681565b6102aa61061b366004613194565b611aec565b600f546102ed9060ff1681565b6102aa61063b366004613573565b611c42565b61044b6040805160e081018252600080825260208201819052918101829052606081018290526080810182905260a0810182905260c0810191909152506040805160e0810182526004548152600554602082015260065464ffffffffff80821693830193909352650100000000008104831660608301526a01000000000000000000008104831660808301526f010000000000000000000000000000008104831660a083015274010000000000000000000000000000000000000000900490911660c082015290565b61033d600a5481565b6102aa61072036600461361a565b611f46565b6102b46122ba565b6102aa61073b366004612fee565b612471565b6102aa61074e3660046130c0565b612561565b61076661076136600461363c565b612652565b6040516102c19291906136b6565b6102b461078236600461361a565b6126d4565b3360009081526011602052604090205460ff161580156107bf575060005473ffffffffffffffffffffffffffffffffffffffff163314155b156107f6576040517f82b4290000000000000000000000000000000000000000000000000000000000815260040160405180910390fd5b61080281600d54611f46565b50565b60606010805480602002602001604051908101604052809291908181526020016000905b828210156108b65760008481526020908190206040805160c08101825260058602909201805483526001808201548486015260028201549284019290925260038101546060840152600401546fffffffffffffffffffffffffffffffff80821660808501527001000000000000000000000000000000009091041660a08301529083529092019101610829565b50505050905090565b600180546108cc906136d8565b80601f01602080910402602001604051908101604052809291908181526020018280546108f8906136d8565b80156109455780601f1061091a57610100808354040283529160200191610945565b820191906000526020600020905b81548152906001019060200180831161092857829003601f168201915b505050505081565b60005473ffffffffffffffffffffffffffffffffffffffff1633146109d3576040517f08c379a000000000000000000000000000000000000000000000000000000000815260206004820152600c60248201527f554e415554484f52495a4544000000000000000000000000000000000000000060448201526064015b60405180910390fd5b600c8190556040518181527f45f3848c8252fafbc76242644eca2d36bdee25babfb52c21f4e8aa84b0546fd3906020015b60405180910390a150565b6010546060904390600090819067ffffffffffffffff811115610a3457610a34613254565b604051908082528060200260200182016040528015610ac257816020015b610aaf6040518060c001604052806000815260200160008152602001600081526020016000815260200160006fffffffffffffffffffffffffffffffff16815260200160006fffffffffffffffffffffffffffffffff1681525090565b815260200190600190039081610a525790505b50905060005b601054811015610bf7578360108281548110610ae657610ae661372b565b90600052602060002090600502016002015411158015610b2a57508360108281548110610b1557610b1561372b565b90600052602060002090600502016003015410155b15610be55760108181548110610b4257610b4261372b565b60009182526020918290206040805160c081018252600590930290910180548352600181015493830193909352600283015490820152600382015460608201526004909101546fffffffffffffffffffffffffffffffff80821660808401527001000000000000000000000000000000009091041660a08201528284610bc781613789565b955081518110610bd957610bd961372b565b60200260200101819052505b80610bef81613789565b915050610ac8565b5090815292915050565b60005473ffffffffffffffffffffffffffffffffffffffff163314610c82576040517f08c379a000000000000000000000000000000000000000000000000000000000815260206004820152600c60248201527f554e415554484f52495a4544000000000000000000000000000000000000000060448201526064016109ca565b8173ffffffffffffffffffffffffffffffffffffffff8116610cd0576040517fa86b651200000000000000000000000000000000000000000000000000000000815260040160405180910390fd5b73ffffffffffffffffffffffffffffffffffffffff831660008181526003602090815260409182902080547fffffffffffffffffffffffffffffffffffffffffffffffffffffffffffffff00168615159081179091558251938452908301527feeeb06b5605b72367788db09c5284b141487cdc2ab0925fcf8880d30ea58437691015b60405180910390a1505050565b600654600090610d789064ffffffffff1660016137c1565b60095464ffffffffff908116911614919050565b610d9533611532565b610dcb576040517f82b4290000000000000000000000000000000000000000000000000000000000815260040160405180910390fd5b6040805160e081018252600754808252600854602083015260095464ffffffffff80821694840194909452650100000000008104841660608401526a01000000000000000000008104841660808401526f010000000000000000000000000000008104841660a084015274010000000000000000000000000000000000000000900490921660c08201529086141580610e68575080602001518514155b80610e855750806040015164ffffffffff168464ffffffffff1614155b80610ea257508060a0015164ffffffffff168364ffffffffff1614155b80610ebf57508060c0015164ffffffffff168264ffffffffff1614155b15610ef6576040517fa86b651200000000000000000000000000000000000000000000000000000000815260040160405180910390fd5b60048054600a554264ffffffffff818116606085810182905243808416608080890182905288519097556020808901516005556040808a01516006805460a0808e015160c08f0151948c167fffffffffffffffffffffffffffffffffffffffffffff000000000000000000009093169290921765010000000000909a02999099177fffffffffffffffffffffffff00000000000000000000ffffffffffffffffffff166a01000000000000000000009096027fffffffffffffffffffffffff0000000000ffffffffffffffffffffffffffffff16959095176f01000000000000000000000000000000958a1695909502949094177fffffffffffffff0000000000ffffffffffffffffffffffffffffffffffffffff167401000000000000000000000000000000000000000091891691909102179092558151958c16865285018d905284018b905290830193909352928101919091527fcc3c3071340d91a4fd687f9ad48d1ee5689f8083136feb3594807d0f7481f7cf910160405180910390a1505050505050565b60005473ffffffffffffffffffffffffffffffffffffffff163314611100576040517f08c379a000000000000000000000000000000000000000000000000000000000815260206004820152600c60248201527f554e415554484f52495a4544000000000000000000000000000000000000000060448201526064016109ca565b6111086128c5565b565b611112612942565b61111b33611794565b611151576040517f82b4290000000000000000000000000000000000000000000000000000000000815260040160405180910390fd5b6006546111669064ffffffffff1660016137c1565b64ffffffffff168364ffffffffff1614158061118f57508064ffffffffff168264ffffffffff16115b156111c6576040517fa86b651200000000000000000000000000000000000000000000000000000000815260040160405180910390fd5b6040805160e0810182528681526020810186905264ffffffffff8086168284018190524280831660608501819052438085166080870181905289861660a0880181905295891660c090970187905260078d905560088c905560098054740100000000000000000000000000000000000000009098027fffffffffffffff0000000000ffffffffffffffffffffffffffffffffffffffff6f010000000000000000000000000000009098027fffffffffffffffffffffffff0000000000ffffffffffffffffffffffffffffff6a0100000000000000000000909402939093167fffffffffffffffffffffffff00000000000000000000ffffffffffffffffffff650100000000009096027fffffffffffffffffffffffffffffffffffffffffffff00000000000000000000909a1690971798909817939093169490941793909317939093169390931790915591517fb38026cc978f6c2642a5108ee558571a1b01a939b056abcc065b7eabacaf2d9d9261136c9287928a928a929164ffffffffff959095168552602085019390935260408401919091526060830152608082015260a00190565b60405180910390a15050505050565b6010546060904390600090819067ffffffffffffffff8111156113a0576113a0613254565b60405190808252806020026020018201604052801561142e57816020015b61141b6040518060c001604052806000815260200160008152602001600081526020016000815260200160006fffffffffffffffffffffffffffffffff16815260200160006fffffffffffffffffffffffffffffffff1681525090565b8152602001906001900390816113be5790505b50905060005b601054811015610bf75783601082815481106114525761145261372b565b9060005260206000209060050201600301541015611520576010818154811061147d5761147d61372b565b60009182526020918290206040805160c081018252600590930290910180548352600181015493830193909352600283015490820152600382015460608201526004909101546fffffffffffffffffffffffffffffffff80821660808401527001000000000000000000000000000000009091041660a0820152828461150281613789565b9550815181106115145761151461372b565b60200260200101819052505b8061152a81613789565b915050611434565b73ffffffffffffffffffffffffffffffffffffffff811660009081526003602052604081205460ff1680611580575060005473ffffffffffffffffffffffffffffffffffffffff8381169116145b92915050565b60005473ffffffffffffffffffffffffffffffffffffffff163314611607576040517f08c379a000000000000000000000000000000000000000000000000000000000815260206004820152600c60248201527f554e415554484f52495a4544000000000000000000000000000000000000000060448201526064016109ca565b73ffffffffffffffffffffffffffffffffffffffff8116611654576040517fa86b651200000000000000000000000000000000000000000000000000000000815260040160405180910390fd5b73ffffffffffffffffffffffffffffffffffffffff8116600081815260116020908152604091829020805460ff808216157fffffffffffffffffffffffffffffffffffffffffffffffffffffffffffffff0090921682179092558351948552161515908301527f7070b1fa79059dab7359a2e5b3be557471a19c213ba384d17144bc86d14967239101610a04565b60005473ffffffffffffffffffffffffffffffffffffffff163314611763576040517f08c379a000000000000000000000000000000000000000000000000000000000815260206004820152600c60248201527f554e415554484f52495a4544000000000000000000000000000000000000000060448201526064016109ca565b600f80547fffffffffffffffffffffffffffffffffffffffffffffffffffffffffffffff0016911515919091179055565b73ffffffffffffffffffffffffffffffffffffffff811660009081526002602052604081205460ff168061158057505060005473ffffffffffffffffffffffffffffffffffffffff91821691161490565b60005473ffffffffffffffffffffffffffffffffffffffff163314611866576040517f08c379a000000000000000000000000000000000000000000000000000000000815260206004820152600c60248201527f554e415554484f52495a4544000000000000000000000000000000000000000060448201526064016109ca565b60005b82518110156118c1576118ae8382815181106118875761188761372b565b60200260200101518383815181106118a1576118a161372b565b60200260200101516129c7565b50806118b981613789565b915050611869565b505050565b60005473ffffffffffffffffffffffffffffffffffffffff163314611947576040517f08c379a000000000000000000000000000000000000000000000000000000000815260206004820152600c60248201527f554e415554484f52495a4544000000000000000000000000000000000000000060448201526064016109ca565b611108612a13565b60005b818110156118c157611ada83838381811061196f5761196f61372b565b905060200281019061198191906137e6565b61198f9060208101906130c0565b8484848181106119a1576119a161372b565b90506020028101906119b391906137e6565b602001358585858181106119c9576119c961372b565b90506020028101906119db91906137e6565b6119ec906060810190604001613824565b8686868181106119fe576119fe61372b565b9050602002810190611a1091906137e6565b60600135878787818110611a2657611a2661372b565b9050602002810190611a3891906137e6565b60800135888888818110611a4e57611a4e61372b565b9050602002810190611a6091906137e6565b611a6e9060a081019061383f565b8a8a8a818110611a8057611a8061372b565b9050602002810190611a9291906137e6565b611aa09060c08101906138a7565b8080601f016020809104026020016040519081016040528093929190818152602001838380828437600092019190915250611c4292505050565b80611ae481613789565b915050611952565b60005473ffffffffffffffffffffffffffffffffffffffff163314611b6d576040517f08c379a000000000000000000000000000000000000000000000000000000000815260206004820152600c60248201527f554e415554484f52495a4544000000000000000000000000000000000000000060448201526064016109ca565b8173ffffffffffffffffffffffffffffffffffffffff8116611bbb576040517fa86b651200000000000000000000000000000000000000000000000000000000815260040160405180910390fd5b73ffffffffffffffffffffffffffffffffffffffff831660008181526002602090815260409182902080547fffffffffffffffffffffffffffffffffffffffffffffffffffffffffffffff00168615159081179091558251938452908301527f780d738f356a91be5dfe8ffb87990c655a36b3430a233c71a209eb1e9a1a1a759101610d53565b611c4a612942565b3373ffffffffffffffffffffffffffffffffffffffff891614611c99576040517fbd79de5800000000000000000000000000000000000000000000000000000000815260040160405180910390fd5b60065464ffffffffff1684811480611cc55750600081118015611cc55750611cc260018261390c565b85145b611cfb576040517f9b8febfe00000000000000000000000000000000000000000000000000000000815260040160405180910390fd5b600087878b888c87604051602001611d189695949392919061391f565b604080517fffffffffffffffffffffffffffffffffffffffffffffffffffffffffffffffe081840301815282825280516020918201209083015201604051602081830303815290604052805190602001209050611dbb85858080602002602001604051908101604052809392919081815260200183836020028082843760009201919091525050508885149050611db157600a54611db5565b6004545b83612a82565b611df1576040517f09bde33900000000000000000000000000000000000000000000000000000000815260040160405180910390fd5b73ffffffffffffffffffffffffffffffffffffffff8a166000908152600b602090815260408083208a8452909152812054611e2c908b61390c565b905080600003611e68576040517f969bf72800000000000000000000000000000000000000000000000000000000815260040160405180910390fd5b73ffffffffffffffffffffffffffffffffffffffff8b166000908152600b602090815260408083208b845290915290208a9055611ec67f00000000000000000000000000000000000000000000000000000000000000008c83612a98565b6040805173ffffffffffffffffffffffffffffffffffffffff8d1681526020810183905290810188905260ff8a166060820152608081018990524260a08201524360c08201527f309cb1c0dc6ce0f02c0c35cc1f46bbe61ec9deb311d101b87e7d25bd0b647fd79060e00160405180910390a15050505050505050505050565b3360009081526011602052604090205460ff16158015611f7e575060005473ffffffffffffffffffffffffffffffffffffffff163314155b15611fb5576040517f82b4290000000000000000000000000000000000000000000000000000000000815260040160405180910390fd5b81600003611fef576040517fa86b651200000000000000000000000000000000000000000000000000000000815260040160405180910390fd5b80600003611ffc5750600d545b6000600c548361200c9190613975565b90506000600c548361201e9190613975565b6010549091506000816120315743612064565b601080546120419060019061390c565b815481106120515761205161372b565b9060005260206000209060050201600301545b905060005b600c5481101561227a57600061207f85836139b0565b61208990846139c7565b9050600061209786836139c7565b6040805160c08101825289815260208101868152818301868152606083018581526fffffffffffffffffffffffffffffffff4381166080860190815242821660a0870190815260108054600181018255600091909152965160059097027f1b6847dc741a1b0cd08d278845f9d819d87b734759afb55fe2de5cb82a9ae67281019790975594517f1b6847dc741a1b0cd08d278845f9d819d87b734759afb55fe2de5cb82a9ae67387015592517f1b6847dc741a1b0cd08d278845f9d819d87b734759afb55fe2de5cb82a9ae67486015590517f1b6847dc741a1b0cd08d278845f9d819d87b734759afb55fe2de5cb82a9ae675850155905191518116700100000000000000000000000000000000029116177f1b6847dc741a1b0cd08d278845f9d819d87b734759afb55fe2de5cb82a9ae67690910155519091507f6262907ef9c8039471d66f2d9368aa14c2a2101fd8979eb00cb785ddd69e34a89061225d907f0000000000000000000000000000000000000000000000000000000000000000908a9087908790879073ffffffffffffffffffffffffffffffffffffffff959095168552602085019390935260408401919091526060830152608082015260a00190565b60405180910390a15050808061227290613789565b915050612069565b50600f5460ff16156122b2576122b27f0000000000000000000000000000000000000000000000000000000000000000333089612b6c565b505050505050565b6010546060904390600090819067ffffffffffffffff8111156122df576122df613254565b60405190808252806020026020018201604052801561236d57816020015b61235a6040518060c001604052806000815260200160008152602001600081526020016000815260200160006fffffffffffffffffffffffffffffffff16815260200160006fffffffffffffffffffffffffffffffff1681525090565b8152602001906001900390816122fd5790505b50905060005b601054811015610bf75783601082815481106123915761239161372b565b906000526020600020906005020160020154111561245f57601081815481106123bc576123bc61372b565b60009182526020918290206040805160c081018252600590930290910180548352600181015493830193909352600283015490820152600382015460608201526004909101546fffffffffffffffffffffffffffffffff80821660808401527001000000000000000000000000000000009091041660a0820152828461244181613789565b9550815181106124535761245361372b565b60200260200101819052505b8061246981613789565b915050612373565b60005473ffffffffffffffffffffffffffffffffffffffff1633146124f2576040517f08c379a000000000000000000000000000000000000000000000000000000000815260206004820152600c60248201527f554e415554484f52495a4544000000000000000000000000000000000000000060448201526064016109ca565b8060000361252c576040517fa86b651200000000000000000000000000000000000000000000000000000000815260040160405180910390fd5b600d8190556040518181527f2dad0ed2720969acd139d63120d350f3bdf165bd4c103f8fb5355e644d05c5d590602001610a04565b60005473ffffffffffffffffffffffffffffffffffffffff1633146125e2576040517f08c379a000000000000000000000000000000000000000000000000000000000815260206004820152600c60248201527f554e415554484f52495a4544000000000000000000000000000000000000000060448201526064016109ca565b600080547fffffffffffffffffffffffff00000000000000000000000000000000000000001673ffffffffffffffffffffffffffffffffffffffff83169081178255604051909133917f8be0079c531659141344cd1fd0a4f28419497f9722a3daafe3b4186f6b6457e09190a350565b60606000858589868a876040516020016126719695949392919061391f565b604080517fffffffffffffffffffffffffffffffffffffffffffffffffffffffffffffffe0818403018152828252805160208083019190912090840152935001604051602081830303815290604052805190602001209050965096945050505050565b606060008060108054905067ffffffffffffffff8111156126f7576126f7613254565b60405190808252806020026020018201604052801561278557816020015b6127726040518060c001604052806000815260200160008152602001600081526020016000815260200160006fffffffffffffffffffffffffffffffff16815260200160006fffffffffffffffffffffffffffffffff1681525090565b8152602001906001900390816127155790505b50905060005b6010548110156128ba5785601082815481106127a9576127a961372b565b906000526020600020906005020160020154101580156127ed575084601082815481106127d8576127d861372b565b90600052602060002090600502016003015411155b156128a857601081815481106128055761280561372b565b60009182526020918290206040805160c081018252600590930290910180548352600181015493830193909352600283015490820152600382015460608201526004909101546fffffffffffffffffffffffffffffffff80821660808401527001000000000000000000000000000000009091041660a0820152828461288a81613789565b95508151811061289c5761289c61372b565b60200260200101819052505b806128b281613789565b91505061278b565b509081529392505050565b6128cd612bd0565b600080547fffffffffffffffffffffff00ffffffffffffffffffffffffffffffffffffffff1690557f5db9ee0a495bf2e6ff9c91a7834c1ba4fdd244a5e8aa4e537bd38aeae4b073aa335b60405173ffffffffffffffffffffffffffffffffffffffff909116815260200160405180910390a1565b60005474010000000000000000000000000000000000000000900460ff1615611108576040517f08c379a000000000000000000000000000000000000000000000000000000000815260206004820152601060248201527f5061757361626c653a207061757365640000000000000000000000000000000060448201526064016109ca565b6060600080835160208501865af43d6040519250601f19601f6020830101168301604052808352806000602085013e811560018103612a0a57816000803e816000fd5b50505092915050565b612a1b612942565b600080547fffffffffffffffffffffff00ffffffffffffffffffffffffffffffffffffffff16740100000000000000000000000000000000000000001790557f62e78cea01bee320cd4e420270b5ea74000d11b0c9f74754ebdbfc544b05a2586129183390565b600082612a8f8584612c54565b14949350505050565b60405173ffffffffffffffffffffffffffffffffffffffff83166024820152604481018290526118c19084907fa9059cbb00000000000000000000000000000000000000000000000000000000906064015b604080517fffffffffffffffffffffffffffffffffffffffffffffffffffffffffffffffe08184030181529190526020810180517bffffffffffffffffffffffffffffffffffffffffffffffffffffffff167fffffffff0000000000000000000000000000000000000000000000000000000090931692909217909152612ca1565b60405173ffffffffffffffffffffffffffffffffffffffff80851660248301528316604482015260648101829052612bca9085907f23b872dd0000000000000000000000000000000000000000000000000000000090608401612aea565b50505050565b60005474010000000000000000000000000000000000000000900460ff16611108576040517f08c379a000000000000000000000000000000000000000000000000000000000815260206004820152601460248201527f5061757361626c653a206e6f742070617573656400000000000000000000000060448201526064016109ca565b600081815b8451811015612c9957612c8582868381518110612c7857612c7861372b565b6020026020010151612dad565b915080612c9181613789565b915050612c59565b509392505050565b6000612d03826040518060400160405280602081526020017f5361666545524332303a206c6f772d6c6576656c2063616c6c206661696c65648152508573ffffffffffffffffffffffffffffffffffffffff16612ddf9092919063ffffffff16565b8051909150156118c15780806020019051810190612d2191906139da565b6118c1576040517f08c379a000000000000000000000000000000000000000000000000000000000815260206004820152602a60248201527f5361666545524332303a204552433230206f7065726174696f6e20646964206e60448201527f6f7420737563636565640000000000000000000000000000000000000000000060648201526084016109ca565b6000818310612dc9576000828152602084905260409020612dd8565b60008381526020839052604090205b9392505050565b6060612dee8484600085612df6565b949350505050565b606082471015612e88576040517f08c379a000000000000000000000000000000000000000000000000000000000815260206004820152602660248201527f416464726573733a20696e73756666696369656e742062616c616e636520666f60448201527f722063616c6c000000000000000000000000000000000000000000000000000060648201526084016109ca565b6000808673ffffffffffffffffffffffffffffffffffffffff168587604051612eb191906139f7565b60006040518083038185875af1925050503d8060008114612eee576040519150601f19603f3d011682016040523d82523d6000602084013e612ef3565b606091505b5091509150612f0487838387612f0f565b979650505050505050565b60608315612fa5578251600003612f9e5773ffffffffffffffffffffffffffffffffffffffff85163b612f9e576040517f08c379a000000000000000000000000000000000000000000000000000000000815260206004820152601d60248201527f416464726573733a2063616c6c20746f206e6f6e2d636f6e747261637400000060448201526064016109ca565b5081612dee565b612dee8383815115612fba5781518083602001fd5b806040517f08c379a00000000000000000000000000000000000000000000000000000000081526004016109ca9190613149565b60006020828403121561300057600080fd5b5035919050565b602080825282518282018190526000919060409081850190868401855b8281101561308a5781518051855286810151878601528581015186860152606080820151908601526080808201516fffffffffffffffffffffffffffffffff9081169187019190915260a091820151169085015260c09093019290850190600101613024565b5091979650505050505050565b803573ffffffffffffffffffffffffffffffffffffffff811681146130bb57600080fd5b919050565b6000602082840312156130d257600080fd5b612dd882613097565b60005b838110156130f65781810151838201526020016130de565b50506000910152565b600081518084526131178160208601602086016130db565b601f017fffffffffffffffffffffffffffffffffffffffffffffffffffffffffffffffe0169290920160200192915050565b602081526000612dd860208301846130ff565b6000806040838503121561316f57600080fd5b61317883613097565b946020939093013593505050565b801515811461080257600080fd5b600080604083850312156131a757600080fd5b6131b083613097565b915060208301356131c081613186565b809150509250929050565b803564ffffffffff811681146130bb57600080fd5b600080600080600060a086880312156131f857600080fd5b853594506020860135935061320f604087016131cb565b925061321d606087016131cb565b915061322b608087016131cb565b90509295509295909350565b60006020828403121561324957600080fd5b8135612dd881613186565b7f4e487b7100000000000000000000000000000000000000000000000000000000600052604160045260246000fd5b604051601f82017fffffffffffffffffffffffffffffffffffffffffffffffffffffffffffffffe016810167ffffffffffffffff811182821017156132ca576132ca613254565b604052919050565b600067ffffffffffffffff8211156132ec576132ec613254565b5060051b60200190565b600082601f83011261330757600080fd5b813567ffffffffffffffff81111561332157613321613254565b61335260207fffffffffffffffffffffffffffffffffffffffffffffffffffffffffffffffe0601f84011601613283565b81815284602083860101111561336757600080fd5b816020850160208301376000918101602001919091529392505050565b600082601f83011261339557600080fd5b813560206133aa6133a5836132d2565b613283565b82815260059290921b840181019181810190868411156133c957600080fd5b8286015b8481101561340957803567ffffffffffffffff8111156133ed5760008081fd5b6133fb8986838b01016132f6565b8452509183019183016133cd565b509695505050505050565b6000806040838503121561342757600080fd5b823567ffffffffffffffff8082111561343f57600080fd5b818501915085601f83011261345357600080fd5b813560206134636133a5836132d2565b82815260059290921b8401810191818101908984111561348257600080fd5b948201945b838610156134a75761349886613097565b82529482019490820190613487565b965050860135925050808211156134bd57600080fd5b506134ca85828601613384565b9150509250929050565b60008083601f8401126134e657600080fd5b50813567ffffffffffffffff8111156134fe57600080fd5b6020830191508360208260051b850101111561351957600080fd5b9250929050565b6000806020838503121561353357600080fd5b823567ffffffffffffffff81111561354a57600080fd5b613556858286016134d4565b90969095509350505050565b803560ff811681146130bb57600080fd5b60008060008060008060008060e0898b03121561358f57600080fd5b61359889613097565b9750602089013596506135ad60408a01613562565b9550606089013594506080890135935060a089013567ffffffffffffffff808211156135d857600080fd5b6135e48c838d016134d4565b909550935060c08b01359150808211156135fd57600080fd5b5061360a8b828c016132f6565b9150509295985092959890939650565b6000806040838503121561362d57600080fd5b50508035926020909101359150565b60008060008060008060c0878903121561365557600080fd5b61365e87613097565b95506020870135945061367360408801613562565b9350606087013592506080870135915060a087013567ffffffffffffffff81111561369d57600080fd5b6136a989828a016132f6565b9150509295509295509295565b6040815260006136c960408301856130ff565b90508260208301529392505050565b600181811c908216806136ec57607f821691505b602082108103613725577f4e487b7100000000000000000000000000000000000000000000000000000000600052602260045260246000fd5b50919050565b7f4e487b7100000000000000000000000000000000000000000000000000000000600052603260045260246000fd5b7f4e487b7100000000000000000000000000000000000000000000000000000000600052601160045260246000fd5b60007fffffffffffffffffffffffffffffffffffffffffffffffffffffffffffffffff82036137ba576137ba61375a565b5060010190565b64ffffffffff8181168382160190808211156137df576137df61375a565b5092915050565b600082357fffffffffffffffffffffffffffffffffffffffffffffffffffffffffffffff2183360301811261381a57600080fd5b9190910192915050565b60006020828403121561383657600080fd5b612dd882613562565b60008083357fffffffffffffffffffffffffffffffffffffffffffffffffffffffffffffffe184360301811261387457600080fd5b83018035915067ffffffffffffffff82111561388f57600080fd5b6020019150600581901b360382131561351957600080fd5b60008083357fffffffffffffffffffffffffffffffffffffffffffffffffffffffffffffffe18436030181126138dc57600080fd5b83018035915067ffffffffffffffff8211156138f757600080fd5b60200191503681900382131561351957600080fd5b818103818111156115805761158061375a565b60ff8716815285602082015273ffffffffffffffffffffffffffffffffffffffff8516604082015283606082015282608082015260c060a0820152600061396960c08301846130ff565b98975050505050505050565b6000826139ab577f4e487b7100000000000000000000000000000000000000000000000000000000600052601260045260246000fd5b500490565b80820281158282048414176115805761158061375a565b808201808211156115805761158061375a565b6000602082840312156139ec57600080fd5b8151612dd881613186565b6000825161381a8184602087016130db56fea26469706673582212204ba1bfee5716771331c8fd78d6a1f071254c0b34a5cefb9347a5483d046fd0fb64736f6c63430008150033",
  "devdoc": {
    "events": {
      "Paused(address)": {
        "details": "Emitted when the pause is triggered by `account`."
      },
      "Unpaused(address)": {
        "details": "Emitted when the pause is lifted by `account`."
      }
    },
    "kind": "dev",
    "methods": {
      "claim(address,uint256,uint8,bytes32,uint256,bytes32[],bytes)": {
        "params": {
          "cumulativeAmount_": "- cumulative amount of rewards to claim",
          "cycle_": "- cycle of the rewards",
          "merkleProof_": "- merkle proof of the rewards",
          "positionId_": "- id of the position, fToken address for lending and vaultId for vaults",
          "positionType_": "- type of position, 1 for lending, 2 for vaults, 3 for smart lending, etc",
          "recipient_": "- address of the recipient"
        }
      },
      "getActiveRewards()": {
        "returns": {
          "_0": "rewards_ - active rewards"
        }
      },
      "getExpiredRewards()": {
        "returns": {
          "_0": "rewards_ - expired rewards"
        }
      },
      "getRewards()": {
        "returns": {
          "_0": "rewards_ - rewards"
        }
      },
      "getRewardsForRange(uint256,uint256)": {
        "params": {
          "endBlock_": "- end block of the range",
          "startBlock_": "- start block of the range"
        },
        "returns": {
          "_0": "rewards_ - rewards for the range"
        }
      },
      "getUpcomingRewards()": {
        "returns": {
          "_0": "rewards_ - upcoming rewards"
        }
      },
      "initiateRewards(uint256,uint256)": {
        "params": {
          "amount_": "- amount of tokens to initiate rewards for",
          "durationInBlocks_": "- duration of the rewards in blocks"
        }
      },
      "paused()": {
        "details": "Returns true if the contract is paused, and false otherwise."
      },
      "setMaxRewardsAge(uint256)": {
        "params": {
          "maxRewardsDuration_": "- maximum age of rewards in blocks"
        }
      },
      "setPullFromSender(bool)": {
        "params": {
          "pullFromSender_": "- whether to pull rewards from sender or not"
        }
      },
      "setTotalDistributionCycles(uint256)": {
        "params": {
          "noOfCyclesPerDistribution_": "- number of epochs to distribute rewards, if 0 then means paused"
        }
      },
      "spell(address[],bytes[])": {
        "details": "open payload method for admin to resolve emergency cases"
      },
      "toggleRewardsDistributor(address)": {
        "params": {
          "distributor_": "- address of the rewards distributor"
        }
      },
      "updateApprover(address,bool)": {
        "params": {
          "approver_": "The address to update",
          "isApprover_": "Whether or not the address should be an allowed approver"
        }
      },
      "updateProposer(address,bool)": {
        "params": {
          "isProposer_": "Whether or not the address should be an allowed proposer",
          "proposer_": "The address to update"
        }
      }
    },
    "version": 1
  },
  "userdoc": {
    "events": {
      "LogClaimed(address,uint256,uint256,uint8,bytes32,uint256,uint256)": {
        "notice": "Emitted when a `user` claims `amount` via a valid merkle proof"
      },
      "LogRootProposed(uint256,bytes32,bytes32,uint256,uint256)": {
        "notice": "Emitted when a new cycle root hash is proposed"
      },
      "LogRootUpdated(uint256,bytes32,bytes32,uint256,uint256)": {
        "notice": "Emitted when a new cycle root hash is approved by the owner and becomes the new active root"
      },
      "LogUpdateApprover(address,bool)": {
        "notice": "Emitted when an address is added or removed from the allowed approvers"
      },
      "LogUpdateProposer(address,bool)": {
        "notice": "Emitted when an address is added or removed from the allowed proposers"
      }
    },
    "kind": "user",
    "methods": {
      "approveRoot(bytes32,bytes32,uint40,uint40,uint40)": {
        "notice": "Approve the current pending root and content hash"
      },
      "claim(address,uint256,uint8,bytes32,uint256,bytes32[],bytes)": {
        "notice": "Claims rewards for a given recipient"
      },
      "claimed(address,bytes32)": {
        "notice": "total claimed amount per user address and fToken. user => positionId => claimed amount"
      },
      "currentMerkleCycle()": {
        "notice": "merkle root data related to current cycle (proposed and approved)."
      },
      "getActiveRewards()": {
        "notice": "Returns the active rewards"
      },
      "getExpiredRewards()": {
        "notice": "Returns the expired rewards"
      },
      "getRewards()": {
        "notice": "Returns the rewards for TOKEN"
      },
      "getRewardsForRange(uint256,uint256)": {
        "notice": "Returns the rewards for a given range"
      },
      "getUpcomingRewards()": {
        "notice": "Returns the upcoming rewards"
      },
      "hasPendingRoot()": {
        "notice": "checks if there is a proposed root waiting to be approved"
      },
      "initiateRewards(uint256,uint256)": {
        "notice": "Initiates rewards for a given token"
      },
      "isApprover(address)": {
        "notice": "checks if the `approver_` is an allowed root approver"
      },
      "isProposer(address)": {
        "notice": "checks if the `proposer_` is an allowed root proposer"
      },
      "maxRewardsDuration()": {
        "notice": "Maximum age of rewards in blocks"
      },
      "noOfCyclesPerDistribution()": {
        "notice": "Number of epochs to distribute rewards"
      },
      "pause()": {
        "notice": "Pause contract functionality of new roots and claiming"
      },
      "pendingMerkleCycle()": {
        "notice": "merkle root data related to pending cycle (proposed but not yet approved)."
      },
      "previousMerkleRoot()": {
        "notice": "merkle root of the previous cycle"
      },
      "proposeRoot(bytes32,bytes32,uint40,uint40,uint40)": {
        "notice": "Propose a new root and content hash, which will be stored as pending until approved"
      },
      "pullFromSender()": {
        "notice": "Whether to pull rewards from sender or not"
      },
      "setMaxRewardsAge(uint256)": {
        "notice": "Sets the maximum age of rewards in blocks"
      },
      "setPullFromSender(bool)": {
        "notice": "Sets whether to pull rewards from sender or not"
      },
      "setTotalDistributionCycles(uint256)": {
        "notice": "Sets the number of epochs to distribute rewards"
      },
      "toggleRewardsDistributor(address)": {
        "notice": "Toggles a rewards distributor"
      },
      "totalRewardsToDistribute()": {
        "notice": "Total amount of rewards to distribute"
      },
      "unpause()": {
        "notice": "Unpause contract functionality of new roots and claiming"
      },
      "updateApprover(address,bool)": {
        "notice": "Updates an address status as a root approver"
      },
      "updateProposer(address,bool)": {
        "notice": "Updates an address status as a root proposer"
      }
    },
    "version": 1
  },
  "storageLayout": {
    "storage": [
      {
        "astId": 29307,
        "contract": "contracts/protocols/lending/merkleDistributor/main.sol:FluidMerkleDistributor",
        "label": "owner",
        "offset": 0,
        "slot": "0",
        "type": "t_address"
      },
      {
        "astId": 185,
        "contract": "contracts/protocols/lending/merkleDistributor/main.sol:FluidMerkleDistributor",
        "label": "_paused",
        "offset": 20,
        "slot": "0",
        "type": "t_bool"
      },
      {
        "astId": 27263,
        "contract": "contracts/protocols/lending/merkleDistributor/main.sol:FluidMerkleDistributor",
        "label": "name",
        "offset": 0,
        "slot": "1",
        "type": "t_string_storage"
      },
      {
        "astId": 27268,
        "contract": "contracts/protocols/lending/merkleDistributor/main.sol:FluidMerkleDistributor",
        "label": "_proposers",
        "offset": 0,
        "slot": "2",
        "type": "t_mapping(t_address,t_bool)"
      },
      {
        "astId": 27273,
        "contract": "contracts/protocols/lending/merkleDistributor/main.sol:FluidMerkleDistributor",
        "label": "_approvers",
        "offset": 0,
        "slot": "3",
        "type": "t_mapping(t_address,t_bool)"
      },
      {
        "astId": 27277,
        "contract": "contracts/protocols/lending/merkleDistributor/main.sol:FluidMerkleDistributor",
        "label": "_currentMerkleCycle",
        "offset": 0,
        "slot": "4",
        "type": "t_struct(MerkleCycle)27225_storage"
      },
      {
        "astId": 27281,
        "contract": "contracts/protocols/lending/merkleDistributor/main.sol:FluidMerkleDistributor",
        "label": "_pendingMerkleCycle",
        "offset": 0,
        "slot": "7",
        "type": "t_struct(MerkleCycle)27225_storage"
      },
      {
        "astId": 27284,
        "contract": "contracts/protocols/lending/merkleDistributor/main.sol:FluidMerkleDistributor",
        "label": "previousMerkleRoot",
        "offset": 0,
        "slot": "10",
        "type": "t_bytes32"
      },
      {
        "astId": 27291,
        "contract": "contracts/protocols/lending/merkleDistributor/main.sol:FluidMerkleDistributor",
        "label": "claimed",
        "offset": 0,
        "slot": "11",
        "type": "t_mapping(t_address,t_mapping(t_bytes32,t_uint256))"
      },
      {
        "astId": 26258,
        "contract": "contracts/protocols/lending/merkleDistributor/main.sol:FluidMerkleDistributor",
        "label": "noOfCyclesPerDistribution",
        "offset": 0,
        "slot": "12",
        "type": "t_uint256"
      },
      {
        "astId": 26262,
        "contract": "contracts/protocols/lending/merkleDistributor/main.sol:FluidMerkleDistributor",
        "label": "maxRewardsDuration",
        "offset": 0,
        "slot": "13",
        "type": "t_uint256"
      },
      {
        "astId": 26265,
        "contract": "contracts/protocols/lending/merkleDistributor/main.sol:FluidMerkleDistributor",
        "label": "totalRewardsToDistribute",
        "offset": 0,
        "slot": "14",
        "type": "t_uint256"
      },
      {
        "astId": 26269,
        "contract": "contracts/protocols/lending/merkleDistributor/main.sol:FluidMerkleDistributor",
        "label": "pullFromSender",
        "offset": 0,
        "slot": "15",
        "type": "t_bool"
      },
      {
        "astId": 26312,
        "contract": "contracts/protocols/lending/merkleDistributor/main.sol:FluidMerkleDistributor",
        "label": "rewards",
        "offset": 0,
        "slot": "16",
        "type": "t_array(t_struct(Reward)26282_storage)dyn_storage"
      },
      {
        "astId": 26316,
        "contract": "contracts/protocols/lending/merkleDistributor/main.sol:FluidMerkleDistributor",
        "label": "rewardsDistributor",
        "offset": 0,
        "slot": "17",
        "type": "t_mapping(t_address,t_bool)"
      }
    ],
    "types": {
      "t_address": {
        "encoding": "inplace",
        "label": "address",
        "numberOfBytes": "20"
      },
      "t_array(t_struct(Reward)26282_storage)dyn_storage": {
        "base": "t_struct(Reward)26282_storage",
        "encoding": "dynamic_array",
        "label": "struct FluidMerkleDistributorRewards.Reward[]",
        "numberOfBytes": "32"
      },
      "t_bool": {
        "encoding": "inplace",
        "label": "bool",
        "numberOfBytes": "1"
      },
      "t_bytes32": {
        "encoding": "inplace",
        "label": "bytes32",
        "numberOfBytes": "32"
      },
      "t_mapping(t_address,t_bool)": {
        "encoding": "mapping",
        "key": "t_address",
        "label": "mapping(address => bool)",
        "numberOfBytes": "32",
        "value": "t_bool"
      },
      "t_mapping(t_address,t_mapping(t_bytes32,t_uint256))": {
        "encoding": "mapping",
        "key": "t_address",
        "label": "mapping(address => mapping(bytes32 => uint256))",
        "numberOfBytes": "32",
        "value": "t_mapping(t_bytes32,t_uint256)"
      },
      "t_mapping(t_bytes32,t_uint256)": {
        "encoding": "mapping",
        "key": "t_bytes32",
        "label": "mapping(bytes32 => uint256)",
        "numberOfBytes": "32",
        "value": "t_uint256"
      },
      "t_string_storage": {
        "encoding": "bytes",
        "label": "string",
        "numberOfBytes": "32"
      },
      "t_struct(MerkleCycle)27225_storage": {
        "encoding": "inplace",
        "label": "struct Structs.MerkleCycle",
        "members": [
          {
            "astId": 27212,
            "contract": "contracts/protocols/lending/merkleDistributor/main.sol:FluidMerkleDistributor",
            "label": "merkleRoot",
            "offset": 0,
            "slot": "0",
            "type": "t_bytes32"
          },
          {
            "astId": 27214,
            "contract": "contracts/protocols/lending/merkleDistributor/main.sol:FluidMerkleDistributor",
            "label": "merkleContentHash",
            "offset": 0,
            "slot": "1",
            "type": "t_bytes32"
          },
          {
            "astId": 27216,
            "contract": "contracts/protocols/lending/merkleDistributor/main.sol:FluidMerkleDistributor",
            "label": "cycle",
            "offset": 0,
            "slot": "2",
            "type": "t_uint40"
          },
          {
            "astId": 27218,
            "contract": "contracts/protocols/lending/merkleDistributor/main.sol:FluidMerkleDistributor",
            "label": "timestamp",
            "offset": 5,
            "slot": "2",
            "type": "t_uint40"
          },
          {
            "astId": 27220,
            "contract": "contracts/protocols/lending/merkleDistributor/main.sol:FluidMerkleDistributor",
            "label": "publishBlock",
            "offset": 10,
            "slot": "2",
            "type": "t_uint40"
          },
          {
            "astId": 27222,
            "contract": "contracts/protocols/lending/merkleDistributor/main.sol:FluidMerkleDistributor",
            "label": "startBlock",
            "offset": 15,
            "slot": "2",
            "type": "t_uint40"
          },
          {
            "astId": 27224,
            "contract": "contracts/protocols/lending/merkleDistributor/main.sol:FluidMerkleDistributor",
            "label": "endBlock",
            "offset": 20,
            "slot": "2",
            "type": "t_uint40"
          }
        ],
        "numberOfBytes": "96"
      },
      "t_struct(Reward)26282_storage": {
        "encoding": "inplace",
        "label": "struct FluidMerkleDistributorRewards.Reward",
        "members": [
          {
            "astId": 26271,
            "contract": "contracts/protocols/lending/merkleDistributor/main.sol:FluidMerkleDistributor",
            "label": "amount",
            "offset": 0,
            "slot": "0",
            "type": "t_uint256"
          },
          {
            "astId": 26273,
            "contract": "contracts/protocols/lending/merkleDistributor/main.sol:FluidMerkleDistributor",
            "label": "epoch",
            "offset": 0,
            "slot": "1",
            "type": "t_uint256"
          },
          {
            "astId": 26275,
            "contract": "contracts/protocols/lending/merkleDistributor/main.sol:FluidMerkleDistributor",
            "label": "startBlock",
            "offset": 0,
            "slot": "2",
            "type": "t_uint256"
          },
          {
            "astId": 26277,
            "contract": "contracts/protocols/lending/merkleDistributor/main.sol:FluidMerkleDistributor",
            "label": "endBlock",
            "offset": 0,
            "slot": "3",
            "type": "t_uint256"
          },
          {
            "astId": 26279,
            "contract": "contracts/protocols/lending/merkleDistributor/main.sol:FluidMerkleDistributor",
            "label": "registrationBlock",
            "offset": 0,
            "slot": "4",
            "type": "t_uint128"
          },
          {
            "astId": 26281,
            "contract": "contracts/protocols/lending/merkleDistributor/main.sol:FluidMerkleDistributor",
            "label": "registrationTimestamp",
            "offset": 16,
            "slot": "4",
            "type": "t_uint128"
          }
        ],
        "numberOfBytes": "160"
      },
      "t_uint128": {
        "encoding": "inplace",
        "label": "uint128",
        "numberOfBytes": "16"
      },
      "t_uint256": {
        "encoding": "inplace",
        "label": "uint256",
        "numberOfBytes": "32"
      },
      "t_uint40": {
        "encoding": "inplace",
        "label": "uint40",
        "numberOfBytes": "5"
      }
    }
  }
}