{
  "address": "0x1eb324B5e9B080B9d5640588541464dd30d1cC5f",
  "abi": [
    {
      "inputs": [
        {
          "internalType": "string",
          "name": "name_",
          "type": "string"
        },
        {
          "internalType": "address",
          "name": "owner_",
          "type": "address"
        },
        {
          "internalType": "address",
          "name": "proposer_",
          "type": "address"
        },
        {
          "internalType": "address",
          "name": "approver_",
          "type": "address"
        },
        {
          "internalType": "address",
          "name": "rewardToken_",
          "type": "address"
        }
      ],
      "stateMutability": "nonpayable",
      "type": "constructor"
    },
    {
      "inputs": [],
      "name": "InvalidCycle",
      "type": "error"
    },
    {
      "inputs": [],
      "name": "InvalidParams",
      "type": "error"
    },
    {
      "inputs": [],
      "name": "InvalidProof",
      "type": "error"
    },
    {
      "inputs": [],
      "name": "MsgSenderNotRecipient",
      "type": "error"
    },
    {
      "inputs": [],
      "name": "NothingToClaim",
      "type": "error"
    },
    {
      "inputs": [],
      "name": "Unauthorized",
      "type": "error"
    },
    {
      "anonymous": false,
      "inputs": [
        {
          "indexed": false,
          "internalType": "address",
          "name": "user",
          "type": "address"
        },
        {
          "indexed": false,
          "internalType": "uint256",
          "name": "amount",
          "type": "uint256"
        },
        {
          "indexed": false,
          "internalType": "uint256",
          "name": "cycle",
          "type": "uint256"
        },
        {
          "indexed": false,
          "internalType": "uint8",
          "name": "positionType",
          "type": "uint8"
        },
        {
          "indexed": false,
          "internalType": "bytes32",
          "name": "positionId",
          "type": "bytes32"
        },
        {
          "indexed": false,
          "internalType": "uint256",
          "name": "timestamp",
          "type": "uint256"
        },
        {
          "indexed": false,
          "internalType": "uint256",
          "name": "blockNumber",
          "type": "uint256"
        }
      ],
      "name": "LogClaimed",
      "type": "event"
    },
    {
      "anonymous": false,
      "inputs": [
        {
          "indexed": true,
          "internalType": "uint256",
          "name": "epoch_",
          "type": "uint256"
        },
        {
          "indexed": true,
          "internalType": "address",
          "name": "initiator_",
          "type": "address"
        },
        {
          "indexed": false,
          "internalType": "uint256",
          "name": "amount_",
          "type": "uint256"
        },
        {
          "indexed": false,
          "internalType": "uint256",
          "name": "startCycle_",
          "type": "uint256"
        },
        {
          "indexed": false,
          "internalType": "uint256",
          "name": "endCycle_",
          "type": "uint256"
        },
        {
          "indexed": false,
          "internalType": "uint256",
          "name": "registrationBlock_",
          "type": "uint256"
        },
        {
          "indexed": false,
          "internalType": "uint256",
          "name": "registrationTimestamp_",
          "type": "uint256"
        }
      ],
      "name": "LogDistribution",
      "type": "event"
    },
    {
      "anonymous": false,
      "inputs": [
        {
          "indexed": false,
          "internalType": "uint256",
          "name": "maxRewardsDuration_",
          "type": "uint256"
        }
      ],
      "name": "LogMaxRewardsDurationUpdated",
      "type": "event"
    },
    {
      "anonymous": false,
      "inputs": [
        {
          "indexed": true,
          "internalType": "uint256",
          "name": "cycle_",
          "type": "uint256"
        },
        {
          "indexed": true,
          "internalType": "uint256",
          "name": "epoch_",
          "type": "uint256"
        },
        {
          "indexed": false,
          "internalType": "uint256",
          "name": "amount_",
          "type": "uint256"
        },
        {
          "indexed": false,
          "internalType": "uint256",
          "name": "startBlock_",
          "type": "uint256"
        },
        {
          "indexed": false,
          "internalType": "uint256",
          "name": "endBlock_",
          "type": "uint256"
        }
      ],
      "name": "LogRewardCycle",
      "type": "event"
    },
    {
      "anonymous": false,
      "inputs": [
        {
          "indexed": false,
          "internalType": "address",
          "name": "distributor_",
          "type": "address"
        },
        {
          "indexed": false,
          "internalType": "bool",
          "name": "isDistributor_",
          "type": "bool"
        }
      ],
      "name": "LogRewardsDistributorToggled",
      "type": "event"
    },
    {
      "anonymous": false,
      "inputs": [
        {
          "indexed": false,
          "internalType": "uint256",
          "name": "cycle",
          "type": "uint256"
        },
        {
          "indexed": false,
          "internalType": "bytes32",
          "name": "root",
          "type": "bytes32"
        },
        {
          "indexed": false,
          "internalType": "bytes32",
          "name": "contentHash",
          "type": "bytes32"
        },
        {
          "indexed": false,
          "internalType": "uint256",
          "name": "timestamp",
          "type": "uint256"
        },
        {
          "indexed": false,
          "internalType": "uint256",
          "name": "blockNumber",
          "type": "uint256"
        }
      ],
      "name": "LogRootProposed",
      "type": "event"
    },
    {
      "anonymous": false,
      "inputs": [
        {
          "indexed": false,
          "internalType": "uint256",
          "name": "cycle",
          "type": "uint256"
        },
        {
          "indexed": false,
          "internalType": "bytes32",
          "name": "root",
          "type": "bytes32"
        },
        {
          "indexed": false,
          "internalType": "bytes32",
          "name": "contentHash",
          "type": "bytes32"
        },
        {
          "indexed": false,
          "internalType": "uint256",
          "name": "timestamp",
          "type": "uint256"
        },
        {
          "indexed": false,
          "internalType": "uint256",
          "name": "blockNumber",
          "type": "uint256"
        }
      ],
      "name": "LogRootUpdated",
      "type": "event"
    },
    {
      "anonymous": false,
      "inputs": [
        {
          "indexed": false,
          "internalType": "uint256",
          "name": "noOfCyclesPerDistribution_",
          "type": "uint256"
        }
      ],
      "name": "LogTotalDistributionCyclesUpdated",
      "type": "event"
    },
    {
      "anonymous": false,
      "inputs": [
        {
          "indexed": false,
          "internalType": "address",
          "name": "approver",
          "type": "address"
        },
        {
          "indexed": false,
          "internalType": "bool",
          "name": "isApprover",
          "type": "bool"
        }
      ],
      "name": "LogUpdateApprover",
      "type": "event"
    },
    {
      "anonymous": false,
      "inputs": [
        {
          "indexed": false,
          "internalType": "address",
          "name": "proposer",
          "type": "address"
        },
        {
          "indexed": false,
          "internalType": "bool",
          "name": "isProposer",
          "type": "bool"
        }
      ],
      "name": "LogUpdateProposer",
      "type": "event"
    },
    {
      "anonymous": false,
      "inputs": [
        {
          "indexed": true,
          "internalType": "address",
          "name": "user",
          "type": "address"
        },
        {
          "indexed": true,
          "internalType": "address",
          "name": "newOwner",
          "type": "address"
        }
      ],
      "name": "OwnershipTransferred",
      "type": "event"
    },
    {
      "anonymous": false,
      "inputs": [
        {
          "indexed": false,
          "internalType": "address",
          "name": "account",
          "type": "address"
        }
      ],
      "name": "Paused",
      "type": "event"
    },
    {
      "anonymous": false,
      "inputs": [
        {
          "indexed": false,
          "internalType": "address",
          "name": "account",
          "type": "address"
        }
      ],
      "name": "Unpaused",
      "type": "event"
    },
    {
      "inputs": [],
      "name": "TOKEN",
      "outputs": [
        {
          "internalType": "contract IERC20",
          "name": "",
          "type": "address"
        }
      ],
      "stateMutability": "view",
      "type": "function"
    },
    {
      "inputs": [
        {
          "internalType": "bytes32",
          "name": "root_",
          "type": "bytes32"
        },
        {
          "internalType": "bytes32",
          "name": "contentHash_",
          "type": "bytes32"
        },
        {
          "internalType": "uint40",
          "name": "cycle_",
          "type": "uint40"
        },
        {
          "internalType": "uint40",
          "name": "startBlock_",
          "type": "uint40"
        },
        {
          "internalType": "uint40",
          "name": "endBlock_",
          "type": "uint40"
        }
      ],
      "name": "approveRoot",
      "outputs": [],
      "stateMutability": "nonpayable",
      "type": "function"
    },
    {
      "inputs": [],
      "name": "blockTime",
      "outputs": [
        {
          "internalType": "uint256",
          "name": "",
          "type": "uint256"
        }
      ],
      "stateMutability": "view",
      "type": "function"
    },
    {
      "inputs": [],
      "name": "blocksPerCycle",
      "outputs": [
        {
          "internalType": "uint256",
          "name": "",
          "type": "uint256"
        }
      ],
      "stateMutability": "view",
      "type": "function"
    },
    {
      "inputs": [
        {
          "components": [
            {
              "internalType": "address",
              "name": "recipient",
              "type": "address"
            },
            {
              "internalType": "uint256",
              "name": "cumulativeAmount",
              "type": "uint256"
            },
            {
              "internalType": "uint8",
              "name": "positionType",
              "type": "uint8"
            },
            {
              "internalType": "bytes32",
              "name": "positionId",
              "type": "bytes32"
            },
            {
              "internalType": "uint256",
              "name": "cycle",
              "type": "uint256"
            },
            {
              "internalType": "bytes32[]",
              "name": "merkleProof",
              "type": "bytes32[]"
            },
            {
              "internalType": "bytes",
              "name": "metadata",
              "type": "bytes"
            }
          ],
          "internalType": "struct FluidMerkleDistributor.Claim[]",
          "name": "claims_",
          "type": "tuple[]"
        }
      ],
      "name": "bulkClaim",
      "outputs": [],
      "stateMutability": "nonpayable",
      "type": "function"
    },
    {
      "inputs": [
        {
          "internalType": "address",
          "name": "recipient_",
          "type": "address"
        },
        {
          "internalType": "uint256",
          "name": "cumulativeAmount_",
          "type": "uint256"
        },
        {
          "internalType": "uint8",
          "name": "positionType_",
          "type": "uint8"
        },
        {
          "internalType": "bytes32",
          "name": "positionId_",
          "type": "bytes32"
        },
        {
          "internalType": "uint256",
          "name": "cycle_",
          "type": "uint256"
        },
        {
          "internalType": "bytes32[]",
          "name": "merkleProof_",
          "type": "bytes32[]"
        },
        {
          "internalType": "bytes",
          "name": "metadata_",
          "type": "bytes"
        }
      ],
      "name": "claim",
      "outputs": [],
      "stateMutability": "nonpayable",
      "type": "function"
    },
    {
      "inputs": [
        {
          "internalType": "address",
          "name": "",
          "type": "address"
        },
        {
          "internalType": "bytes32",
          "name": "",
          "type": "bytes32"
        }
      ],
      "name": "claimed",
      "outputs": [
        {
          "internalType": "uint256",
          "name": "",
          "type": "uint256"
        }
      ],
      "stateMutability": "view",
      "type": "function"
    },
    {
      "inputs": [],
      "name": "currentMerkleCycle",
      "outputs": [
        {
          "components": [
            {
              "internalType": "bytes32",
              "name": "merkleRoot",
              "type": "bytes32"
            },
            {
              "internalType": "bytes32",
              "name": "merkleContentHash",
              "type": "bytes32"
            },
            {
              "internalType": "uint40",
              "name": "cycle",
              "type": "uint40"
            },
            {
              "internalType": "uint40",
              "name": "timestamp",
              "type": "uint40"
            },
            {
              "internalType": "uint40",
              "name": "publishBlock",
              "type": "uint40"
            },
            {
              "internalType": "uint40",
              "name": "startBlock",
              "type": "uint40"
            },
            {
              "internalType": "uint40",
              "name": "endBlock",
              "type": "uint40"
            }
          ],
          "internalType": "struct Structs.MerkleCycle",
          "name": "",
          "type": "tuple"
        }
      ],
      "stateMutability": "view",
      "type": "function"
    },
    {
      "inputs": [],
      "name": "cyclesPerDistribution",
      "outputs": [
        {
          "internalType": "uint256",
          "name": "",
          "type": "uint256"
        }
      ],
      "stateMutability": "view",
      "type": "function"
    },
    {
      "inputs": [
        {
          "internalType": "uint256",
          "name": "amount_",
          "type": "uint256"
        }
      ],
      "name": "distributeRewards",
      "outputs": [],
      "stateMutability": "nonpayable",
      "type": "function"
    },
    {
      "inputs": [
        {
          "internalType": "uint256",
          "name": "amount_",
          "type": "uint256"
        },
        {
          "internalType": "uint256",
          "name": "durationInHours_",
          "type": "uint256"
        }
      ],
      "name": "distributeRewards",
      "outputs": [],
      "stateMutability": "nonpayable",
      "type": "function"
    },
    {
      "inputs": [
        {
          "internalType": "address",
          "name": "recipient_",
          "type": "address"
        },
        {
          "internalType": "uint256",
          "name": "cumulativeAmount_",
          "type": "uint256"
        },
        {
          "internalType": "uint8",
          "name": "positionType_",
          "type": "uint8"
        },
        {
          "internalType": "bytes32",
          "name": "positionId_",
          "type": "bytes32"
        },
        {
          "internalType": "uint256",
          "name": "cycle_",
          "type": "uint256"
        },
        {
          "internalType": "bytes",
          "name": "metadata_",
          "type": "bytes"
        }
      ],
      "name": "encodeClaim",
      "outputs": [
        {
          "internalType": "bytes",
          "name": "encoded_",
          "type": "bytes"
        },
        {
          "internalType": "bytes32",
          "name": "hash_",
          "type": "bytes32"
        }
      ],
      "stateMutability": "pure",
      "type": "function"
    },
    {
      "inputs": [],
      "name": "getActiveRewards",
      "outputs": [
        {
          "components": [
            {
              "internalType": "uint256",
              "name": "amount",
              "type": "uint256"
            },
            {
              "internalType": "uint256",
              "name": "cycle",
              "type": "uint256"
            },
            {
              "internalType": "uint256",
              "name": "startBlock",
              "type": "uint256"
            },
            {
              "internalType": "uint256",
              "name": "endBlock",
              "type": "uint256"
            },
            {
              "internalType": "uint256",
              "name": "epoch",
              "type": "uint256"
            }
          ],
          "internalType": "struct FluidMerkleDistributorRewards.Reward[]",
          "name": "",
          "type": "tuple[]"
        }
      ],
      "stateMutability": "view",
      "type": "function"
    },
    {
      "inputs": [
        {
          "internalType": "uint256",
          "name": "cycle_",
          "type": "uint256"
        }
      ],
      "name": "getCycleReward",
      "outputs": [
        {
          "components": [
            {
              "internalType": "uint256",
              "name": "amount",
              "type": "uint256"
            },
            {
              "internalType": "uint256",
              "name": "cycle",
              "type": "uint256"
            },
            {
              "internalType": "uint256",
              "name": "startBlock",
              "type": "uint256"
            },
            {
              "internalType": "uint256",
              "name": "endBlock",
              "type": "uint256"
            },
            {
              "internalType": "uint256",
              "name": "epoch",
              "type": "uint256"
            }
          ],
          "internalType": "struct FluidMerkleDistributorRewards.Reward",
          "name": "",
          "type": "tuple"
        }
      ],
      "stateMutability": "view",
      "type": "function"
    },
    {
      "inputs": [],
      "name": "getCycleRewards",
      "outputs": [
        {
          "components": [
            {
              "internalType": "uint256",
              "name": "amount",
              "type": "uint256"
            },
            {
              "internalType": "uint256",
              "name": "cycle",
              "type": "uint256"
            },
            {
              "internalType": "uint256",
              "name": "startBlock",
              "type": "uint256"
            },
            {
              "internalType": "uint256",
              "name": "endBlock",
              "type": "uint256"
            },
            {
              "internalType": "uint256",
              "name": "epoch",
              "type": "uint256"
            }
          ],
          "internalType": "struct FluidMerkleDistributorRewards.Reward[]",
          "name": "",
          "type": "tuple[]"
        }
      ],
      "stateMutability": "view",
      "type": "function"
    },
    {
      "inputs": [
        {
          "internalType": "uint256",
          "name": "epoch_",
          "type": "uint256"
        }
      ],
      "name": "getDistributionForEpoch",
      "outputs": [
        {
          "components": [
            {
              "internalType": "uint256",
              "name": "amount",
              "type": "uint256"
            },
            {
              "internalType": "uint256",
              "name": "epoch",
              "type": "uint256"
            },
            {
              "internalType": "uint128",
              "name": "registrationBlock",
              "type": "uint128"
            },
            {
              "internalType": "uint128",
              "name": "registrationTimestamp",
              "type": "uint128"
            },
            {
              "internalType": "uint256",
              "name": "startCycle",
              "type": "uint256"
            },
            {
              "internalType": "uint256",
              "name": "endCycle",
              "type": "uint256"
            }
          ],
          "internalType": "struct FluidMerkleDistributorRewards.Distribution",
          "name": "",
          "type": "tuple"
        }
      ],
      "stateMutability": "view",
      "type": "function"
    },
    {
      "inputs": [],
      "name": "getDistributions",
      "outputs": [
        {
          "components": [
            {
              "internalType": "uint256",
              "name": "amount",
              "type": "uint256"
            },
            {
              "internalType": "uint256",
              "name": "epoch",
              "type": "uint256"
            },
            {
              "internalType": "uint128",
              "name": "registrationBlock",
              "type": "uint128"
            },
            {
              "internalType": "uint128",
              "name": "registrationTimestamp",
              "type": "uint128"
            },
            {
              "internalType": "uint256",
              "name": "startCycle",
              "type": "uint256"
            },
            {
              "internalType": "uint256",
              "name": "endCycle",
              "type": "uint256"
            }
          ],
          "internalType": "struct FluidMerkleDistributorRewards.Distribution[]",
          "name": "",
          "type": "tuple[]"
        }
      ],
      "stateMutability": "view",
      "type": "function"
    },
    {
      "inputs": [],
      "name": "getExpiredRewards",
      "outputs": [
        {
          "components": [
            {
              "internalType": "uint256",
              "name": "amount",
              "type": "uint256"
            },
            {
              "internalType": "uint256",
              "name": "cycle",
              "type": "uint256"
            },
            {
              "internalType": "uint256",
              "name": "startBlock",
              "type": "uint256"
            },
            {
              "internalType": "uint256",
              "name": "endBlock",
              "type": "uint256"
            },
            {
              "internalType": "uint256",
              "name": "epoch",
              "type": "uint256"
            }
          ],
          "internalType": "struct FluidMerkleDistributorRewards.Reward[]",
          "name": "",
          "type": "tuple[]"
        }
      ],
      "stateMutability": "view",
      "type": "function"
    },
    {
      "inputs": [
        {
          "internalType": "uint256",
          "name": "startBlock_",
          "type": "uint256"
        },
        {
          "internalType": "uint256",
          "name": "endBlock_",
          "type": "uint256"
        }
      ],
      "name": "getRewardsForRange",
      "outputs": [
        {
          "components": [
            {
              "internalType": "uint256",
              "name": "amount",
              "type": "uint256"
            },
            {
              "internalType": "uint256",
              "name": "cycle",
              "type": "uint256"
            },
            {
              "internalType": "uint256",
              "name": "startBlock",
              "type": "uint256"
            },
            {
              "internalType": "uint256",
              "name": "endBlock",
              "type": "uint256"
            },
            {
              "internalType": "uint256",
              "name": "epoch",
              "type": "uint256"
            }
          ],
          "internalType": "struct FluidMerkleDistributorRewards.Reward[]",
          "name": "",
          "type": "tuple[]"
        }
      ],
      "stateMutability": "view",
      "type": "function"
    },
    {
      "inputs": [],
      "name": "getUpcomingRewards",
      "outputs": [
        {
          "components": [
            {
              "internalType": "uint256",
              "name": "amount",
              "type": "uint256"
            },
            {
              "internalType": "uint256",
              "name": "cycle",
              "type": "uint256"
            },
            {
              "internalType": "uint256",
              "name": "startBlock",
              "type": "uint256"
            },
            {
              "internalType": "uint256",
              "name": "endBlock",
              "type": "uint256"
            },
            {
              "internalType": "uint256",
              "name": "epoch",
              "type": "uint256"
            }
          ],
          "internalType": "struct FluidMerkleDistributorRewards.Reward[]",
          "name": "",
          "type": "tuple[]"
        }
      ],
      "stateMutability": "view",
      "type": "function"
    },
    {
      "inputs": [],
      "name": "hasPendingRoot",
      "outputs": [
        {
          "internalType": "bool",
          "name": "",
          "type": "bool"
        }
      ],
      "stateMutability": "view",
      "type": "function"
    },
    {
      "inputs": [
        {
          "internalType": "address",
          "name": "approver_",
          "type": "address"
        }
      ],
      "name": "isApprover",
      "outputs": [
        {
          "internalType": "bool",
          "name": "",
          "type": "bool"
        }
      ],
      "stateMutability": "view",
      "type": "function"
    },
    {
      "inputs": [
        {
          "internalType": "address",
          "name": "proposer_",
          "type": "address"
        }
      ],
      "name": "isProposer",
      "outputs": [
        {
          "internalType": "bool",
          "name": "",
          "type": "bool"
        }
      ],
      "stateMutability": "view",
      "type": "function"
    },
    {
      "inputs": [],
      "name": "maxBlocksForDistribution",
      "outputs": [
        {
          "internalType": "uint256",
          "name": "",
          "type": "uint256"
        }
      ],
      "stateMutability": "view",
      "type": "function"
    },
    {
      "inputs": [],
      "name": "name",
      "outputs": [
        {
          "internalType": "string",
          "name": "",
          "type": "string"
        }
      ],
      "stateMutability": "view",
      "type": "function"
    },
    {
      "inputs": [],
      "name": "owner",
      "outputs": [
        {
          "internalType": "address",
          "name": "",
          "type": "address"
        }
      ],
      "stateMutability": "view",
      "type": "function"
    },
    {
      "inputs": [],
      "name": "pause",
      "outputs": [],
      "stateMutability": "nonpayable",
      "type": "function"
    },
    {
      "inputs": [],
      "name": "paused",
      "outputs": [
        {
          "internalType": "bool",
          "name": "",
          "type": "bool"
        }
      ],
      "stateMutability": "view",
      "type": "function"
    },
    {
      "inputs": [],
      "name": "pendingMerkleCycle",
      "outputs": [
        {
          "components": [
            {
              "internalType": "bytes32",
              "name": "merkleRoot",
              "type": "bytes32"
            },
            {
              "internalType": "bytes32",
              "name": "merkleContentHash",
              "type": "bytes32"
            },
            {
              "internalType": "uint40",
              "name": "cycle",
              "type": "uint40"
            },
            {
              "internalType": "uint40",
              "name": "timestamp",
              "type": "uint40"
            },
            {
              "internalType": "uint40",
              "name": "publishBlock",
              "type": "uint40"
            },
            {
              "internalType": "uint40",
              "name": "startBlock",
              "type": "uint40"
            },
            {
              "internalType": "uint40",
              "name": "endBlock",
              "type": "uint40"
            }
          ],
          "internalType": "struct Structs.MerkleCycle",
          "name": "",
          "type": "tuple"
        }
      ],
      "stateMutability": "view",
      "type": "function"
    },
    {
      "inputs": [],
      "name": "previousMerkleRoot",
      "outputs": [
        {
          "internalType": "bytes32",
          "name": "",
          "type": "bytes32"
        }
      ],
      "stateMutability": "view",
      "type": "function"
    },
    {
      "inputs": [
        {
          "internalType": "bytes32",
          "name": "root_",
          "type": "bytes32"
        },
        {
          "internalType": "bytes32",
          "name": "contentHash_",
          "type": "bytes32"
        },
        {
          "internalType": "uint40",
          "name": "cycle_",
          "type": "uint40"
        },
        {
          "internalType": "uint40",
          "name": "startBlock_",
          "type": "uint40"
        },
        {
          "internalType": "uint40",
          "name": "endBlock_",
          "type": "uint40"
        }
      ],
      "name": "proposeRoot",
      "outputs": [],
      "stateMutability": "nonpayable",
      "type": "function"
    },
    {
      "inputs": [],
      "name": "pullFromSender",
      "outputs": [
        {
          "internalType": "bool",
          "name": "",
          "type": "bool"
        }
      ],
      "stateMutability": "view",
      "type": "function"
    },
    {
      "inputs": [
        {
          "internalType": "address",
          "name": "",
          "type": "address"
        }
      ],
      "name": "rewardsDistributor",
      "outputs": [
        {
          "internalType": "bool",
          "name": "",
          "type": "bool"
        }
      ],
      "stateMutability": "view",
      "type": "function"
    },
    {
      "inputs": [
        {
          "internalType": "bool",
          "name": "pullFromSender_",
          "type": "bool"
        }
      ],
      "name": "setPullFromSender",
      "outputs": [],
      "stateMutability": "nonpayable",
      "type": "function"
    },
    {
      "inputs": [
        {
          "internalType": "address[]",
          "name": "targets_",
          "type": "address[]"
        },
        {
          "internalType": "bytes[]",
          "name": "calldatas_",
          "type": "bytes[]"
        }
      ],
      "name": "spell",
      "outputs": [],
      "stateMutability": "nonpayable",
      "type": "function"
    },
    {
      "inputs": [
        {
          "internalType": "address",
          "name": "distributor_",
          "type": "address"
        }
      ],
      "name": "toggleRewardsDistributor",
      "outputs": [],
      "stateMutability": "nonpayable",
      "type": "function"
    },
    {
      "inputs": [],
      "name": "totalCycleRewards",
      "outputs": [
        {
          "internalType": "uint256",
          "name": "",
          "type": "uint256"
        }
      ],
      "stateMutability": "view",
      "type": "function"
    },
    {
      "inputs": [],
      "name": "totalDistributions",
      "outputs": [
        {
          "internalType": "uint256",
          "name": "",
          "type": "uint256"
        }
      ],
      "stateMutability": "view",
      "type": "function"
    },
    {
      "inputs": [
        {
          "internalType": "address",
          "name": "newOwner",
          "type": "address"
        }
      ],
      "name": "transferOwnership",
      "outputs": [],
      "stateMutability": "nonpayable",
      "type": "function"
    },
    {
      "inputs": [],
      "name": "unpause",
      "outputs": [],
      "stateMutability": "nonpayable",
      "type": "function"
    },
    {
      "inputs": [
        {
          "internalType": "address",
          "name": "approver_",
          "type": "address"
        },
        {
          "internalType": "bool",
          "name": "isApprover_",
          "type": "bool"
        }
      ],
      "name": "updateApprover",
      "outputs": [],
      "stateMutability": "nonpayable",
      "type": "function"
    },
    {
      "inputs": [
        {
          "internalType": "address",
          "name": "proposer_",
          "type": "address"
        },
        {
          "internalType": "bool",
          "name": "isProposer_",
          "type": "bool"
        }
      ],
      "name": "updateProposer",
      "outputs": [],
      "stateMutability": "nonpayable",
      "type": "function"
    }
  ],
  "transactionHash": "0x0544aabd08c38302bd89fe8f7c5216c1efdfe64f6709dabe6c5b254962090aad",
  "args": [
    "Test Deployment #1",
    "0x9800020b610194dBa52CF606E8Aa142F9F256166",
    "0x910E413DBF3F6276Fe8213fF656726bDc142E08E",
    "0x910E413DBF3F6276Fe8213fF656726bDc142E08E",
    "0x833589fcd6edb6e08f4c7c32d4f71b54bda02913"
  ],
  "numDeployments": 1,
  "solcInputHash": "fa57cd8957f076cefdf1ca2c9f780325",
  "bytecode": "0x60a06040526004600c556002600d8190556200001e9061546062000245565b600e5561a8c0600f556010805460ff191690553480156200003e57600080fd5b50604051620042303803806200423083398101604081905262000061916200029b565b600080546001600160a01b0319166001600160a01b03861690811782556040518692849283928592907f8be0079c531659141344cd1fd0a4f28419497f9722a3daafe3b4186f6b6457e0908290a3506000805460ff60a01b191690556001600160a01b0390811660805286925082169050620000f057604051635435b28960e11b815260040160405180910390fd5b836001600160a01b0381166200011957604051635435b28960e11b815260040160405180910390fd5b836001600160a01b0381166200014257604051635435b28960e11b815260040160405180910390fd5b836001600160a01b0381166200016b57604051635435b28960e11b815260040160405180910390fd5b6001620001798a826200044a565b506001600160a01b038716600081815260026020908152604091829020805460ff191660019081179091558251938452908301527f780d738f356a91be5dfe8ffb87990c655a36b3430a233c71a209eb1e9a1a1a75910160405180910390a16001600160a01b038616600081815260036020908152604091829020805460ff191660019081179091558251938452908301527feeeb06b5605b72367788db09c5284b141487cdc2ab0925fcf8880d30ea584376910160405180910390a150505050505050505062000516565b6000826200026357634e487b7160e01b600052601260045260246000fd5b500490565b634e487b7160e01b600052604160045260246000fd5b80516001600160a01b03811681146200029657600080fd5b919050565b600080600080600060a08688031215620002b457600080fd5b85516001600160401b0380821115620002cc57600080fd5b818801915088601f830112620002e157600080fd5b815181811115620002f657620002f662000268565b604051601f8201601f19908116603f0116810190838211818310171562000321576200032162000268565b81604052828152602093508b848487010111156200033e57600080fd5b600091505b8282101562000362578482018401518183018501529083019062000343565b60008484830101528099505050506200037d8189016200027e565b955050506200038f604087016200027e565b92506200039f606087016200027e565b9150620003af608087016200027e565b90509295509295909350565b600181811c90821680620003d057607f821691505b602082108103620003f157634e487b7160e01b600052602260045260246000fd5b50919050565b601f8211156200044557600081815260208120601f850160051c81016020861015620004205750805b601f850160051c820191505b8181101562000441578281556001016200042c565b5050505b505050565b81516001600160401b0381111562000466576200046662000268565b6200047e81620004778454620003bb565b84620003f7565b602080601f831160018114620004b657600084156200049d5750858301515b600019600386901b1c1916600185901b17855562000441565b600085815260208120601f198616915b82811015620004e757888601518255948401946001909101908401620004c6565b5085821015620005065787850151600019600388901b60f8161c191681555b5050505050600190811b01905550565b608051613cf062000540600039600081816105e701528181611f3a01526126c80152613cf06000f3fe608060405234801561001057600080fd5b50600436106102de5760003560e01c806382bc4aaf11610186578063be5013dc116100e3578063df6c39fb11610097578063f453fd2f11610071578063f453fd2f146107f7578063fc5e231e14610800578063ffb025661461080857600080fd5b8063df6c39fb146107b0578063f2fde38b146107c3578063f3bd53bf146107d657600080fd5b8063caf3791e116100c8578063caf3791e1461077f578063dcf6de8114610788578063de9d5407146107a857600080fd5b8063be5013dc146106a3578063c81eec66146106b657600080fd5b80639cfc7e831161013a578063a7e7344a1161011f578063a7e7344a14610685578063ace186c41461068d578063b385079a1461069a57600080fd5b80639cfc7e83146106695780639d01a27d1461067257600080fd5b80638456cb591161016b5780638456cb591461062e5780638a1e6bba146106365780638da5cb5b1461064957600080fd5b806382bc4aaf146105cf57806382bfefc8146105e257600080fd5b806335c1dd991161023f57806359974e38116101f357806370feb52a116101cd57806370feb52a1461059657806372149efe146105a957806374ec29a0146105bc57600080fd5b806359974e381461054d5780635c975abb146105605780636d218e481461058357600080fd5b80634617c06a116102245780634617c06a1461052957806348b151661461053c57806354c0a09c1461054557600080fd5b806335c1dd991461050e5780633f4ba83a1461052157600080fd5b806310ee535f11610296578063163db71b1161027b578063163db71b146103cc5780632274c5cd146103d45780632f37a7741461050657600080fd5b806310ee535f146103a25780631563461b146103b757600080fd5b8063059527bf116102c7578063059527bf1461032157806306fdde03146103545780630f2d940b1461036957600080fd5b806302aa6318146102e357806304585ac714610301575b600080fd5b6102eb61081b565b6040516102f89190613193565b60405180910390f35b61031461030f36600461322e565b6108d6565b6040516102f89190613247565b61034461032f3660046132a9565b60136020526000908152604090205460ff1681565b60405190151581526020016102f8565b61035c6109bc565b6040516102f89190613332565b610394610377366004613345565b600b60209081526000928352604080842090915290825290205481565b6040519081526020016102f8565b6103aa610a4a565b6040516102f8919061336f565b6103ca6103c53660046133ea565b610be3565b005b601254610394565b61049d6040805160e081018252600080825260208201819052918101829052606081018290526080810182905260a0810182905260c0810191909152506040805160e0810182526007548152600854602082015260095464ffffffffff80821693830193909352650100000000008104831660608301526a01000000000000000000008104831660808301526f010000000000000000000000000000008104831660a083015274010000000000000000000000000000000000000000900490911660c082015290565b6040516102f89190600060e0820190508251825260208301516020830152604083015164ffffffffff80821660408501528060608601511660608501528060808601511660808501528060a08601511660a08501528060c08601511660c0850152505092915050565b610344610d47565b6103ca61051c366004613436565b610d73565b6103ca611066565b6103ca610537366004613436565b6110f1565b610394600d5481565b6103aa611362565b6103ca61055b36600461322e565b6114c0565b60005474010000000000000000000000000000000000000000900460ff16610344565b6103446105913660046132a9565b61153e565b6103ca6105a43660046132a9565b611592565b6103ca6105b736600461348d565b6116f4565b6103446105ca3660046132a9565b6117a6565b6103ca6105dd36600461366a565b6117f7565b6106097f000000000000000000000000000000000000000000000000000000000000000081565b60405173ffffffffffffffffffffffffffffffffffffffff90911681526020016102f8565b6103ca6118d8565b6103ca610644366004613776565b611961565b6000546106099073ffffffffffffffffffffffffffffffffffffffff1681565b610394600c5481565b6103ca6106803660046133ea565b611afe565b6103aa611c54565b6010546103449060ff1681565b610394600e5481565b6103ca6106b13660046137c9565b611cdc565b61049d6040805160e081018252600080825260208201819052918101829052606081018290526080810182905260a0810182905260c0810191909152506040805160e0810182526004548152600554602082015260065464ffffffffff80821693830193909352650100000000008104831660608301526a01000000000000000000008104831660808301526f010000000000000000000000000000008104831660a083015274010000000000000000000000000000000000000000900490911660c082015290565b610394600a5481565b61079b61079636600461322e565b611fe0565b6040516102f89190613870565b6103aa61214c565b6103ca6107be3660046138cb565b6122aa565b6103ca6107d13660046132a9565b61275f565b6107e96107e43660046138ed565b612850565b6040516102f8929190613967565b610394600f5481565b601154610394565b6103aa6108163660046138cb565b6128d2565b60606012805480602002602001604051908101604052809291908181526020016000905b828210156108cd5760008481526020908190206040805160c08101825260058602909201805483526001808201548486015260028201546fffffffffffffffffffffffffffffffff8082169486019490945270010000000000000000000000000000000090049092166060840152600381015460808401526004015460a0830152908352909201910161083f565b50505050905090565b6109086040518060a0016040528060008152602001600081526020016000815260200160008152602001600081525090565b601154821180610916575081155b1561094d576040518060a0016040528060008152602001838152602001600081526020016000815260200160008152509050919050565b601161095a6001846139b8565b8154811061096a5761096a6139cb565b90600052602060002090600502016040518060a0016040529081600082015481526020016001820154815260200160028201548152602001600382015481526020016004820154815250509050919050565b600180546109c9906139fa565b80601f01602080910402602001604051908101604052809291908181526020018280546109f5906139fa565b8015610a425780601f10610a1757610100808354040283529160200191610a42565b820191906000526020600020905b815481529060010190602001808311610a2557829003601f168201915b505050505081565b6011546060904390600090819067ffffffffffffffff811115610a6f57610a6f6134aa565b604051908082528060200260200182016040528015610ad257816020015b610abf6040518060a0016040528060008152602001600081526020016000815260200160008152602001600081525090565b815260200190600190039081610a8d5790505b50905060005b601154811015610bd9578360118281548110610af657610af66139cb565b90600052602060002090600502016002015411158015610b3a57508360118281548110610b2557610b256139cb565b90600052602060002090600502016003015410155b15610bc75760118181548110610b5257610b526139cb565b90600052602060002090600502016040518060a001604052908160008201548152602001600182015481526020016002820154815260200160038201548152602001600482015481525050828480610ba990613a4d565b955081518110610bbb57610bbb6139cb565b60200260200101819052505b80610bd181613a4d565b915050610ad8565b5090815292915050565b60005473ffffffffffffffffffffffffffffffffffffffff163314610c69576040517f08c379a000000000000000000000000000000000000000000000000000000000815260206004820152600c60248201527f554e415554484f52495a4544000000000000000000000000000000000000000060448201526064015b60405180910390fd5b8173ffffffffffffffffffffffffffffffffffffffff8116610cb7576040517fa86b651200000000000000000000000000000000000000000000000000000000815260040160405180910390fd5b73ffffffffffffffffffffffffffffffffffffffff831660008181526003602090815260409182902080547fffffffffffffffffffffffffffffffffffffffffffffffffffffffffffffff00168615159081179091558251938452908301527feeeb06b5605b72367788db09c5284b141487cdc2ab0925fcf8880d30ea58437691015b60405180910390a1505050565b600654600090610d5f9064ffffffffff166001613a85565b60095464ffffffffff908116911614919050565b610d7c3361153e565b610db2576040517f82b4290000000000000000000000000000000000000000000000000000000000815260040160405180910390fd5b6040805160e081018252600754808252600854602083015260095464ffffffffff80821694840194909452650100000000008104841660608401526a01000000000000000000008104841660808401526f010000000000000000000000000000008104841660a084015274010000000000000000000000000000000000000000900490921660c08201529086141580610e4f575080602001518514155b80610e6c5750806040015164ffffffffff168464ffffffffff1614155b80610e8957508060a0015164ffffffffff168364ffffffffff1614155b80610ea657508060c0015164ffffffffff168264ffffffffff1614155b15610edd576040517fa86b651200000000000000000000000000000000000000000000000000000000815260040160405180910390fd5b60048054600a554264ffffffffff818116606085810182905243808416608080890182905288519097556020808901516005556040808a01516006805460a0808e015160c08f0151948c167fffffffffffffffffffffffffffffffffffffffffffff000000000000000000009093169290921765010000000000909a02999099177fffffffffffffffffffffffff00000000000000000000ffffffffffffffffffff166a01000000000000000000009096027fffffffffffffffffffffffff0000000000ffffffffffffffffffffffffffffff16959095176f01000000000000000000000000000000958a1695909502949094177fffffffffffffff0000000000ffffffffffffffffffffffffffffffffffffffff167401000000000000000000000000000000000000000091891691909102179092558151958c16865285018d905284018b905290830193909352928101919091527fcc3c3071340d91a4fd687f9ad48d1ee5689f8083136feb3594807d0f7481f7cf910160405180910390a1505050505050565b60005473ffffffffffffffffffffffffffffffffffffffff1633146110e7576040517f08c379a000000000000000000000000000000000000000000000000000000000815260206004820152600c60248201527f554e415554484f52495a454400000000000000000000000000000000000000006044820152606401610c60565b6110ef612a6a565b565b6110f9612ae7565b611102336117a6565b611138576040517f82b4290000000000000000000000000000000000000000000000000000000000815260040160405180910390fd5b60065461114d9064ffffffffff166001613a85565b64ffffffffff168364ffffffffff1614158061117657508064ffffffffff168264ffffffffff16115b156111ad576040517fa86b651200000000000000000000000000000000000000000000000000000000815260040160405180910390fd5b6040805160e0810182528681526020810186905264ffffffffff8086168284018190524280831660608501819052438085166080870181905289861660a0880181905295891660c090970187905260078d905560088c905560098054740100000000000000000000000000000000000000009098027fffffffffffffff0000000000ffffffffffffffffffffffffffffffffffffffff6f010000000000000000000000000000009098027fffffffffffffffffffffffff0000000000ffffffffffffffffffffffffffffff6a0100000000000000000000909402939093167fffffffffffffffffffffffff00000000000000000000ffffffffffffffffffff650100000000009096027fffffffffffffffffffffffffffffffffffffffffffff00000000000000000000909a1690971798909817939093169490941793909317939093169390931790915591517fb38026cc978f6c2642a5108ee558571a1b01a939b056abcc065b7eabacaf2d9d926113539287928a928a929164ffffffffff959095168552602085019390935260408401919091526060830152608082015260a00190565b60405180910390a15050505050565b6011546060904390600090819067ffffffffffffffff811115611387576113876134aa565b6040519080825280602002602001820160405280156113ea57816020015b6113d76040518060a0016040528060008152602001600081526020016000815260200160008152602001600081525090565b8152602001906001900390816113a55790505b50905060005b601154811015610bd957836011828154811061140e5761140e6139cb565b90600052602060002090600502016003015410156114ae5760118181548110611439576114396139cb565b90600052602060002090600502016040518060a00160405290816000820154815260200160018201548152602001600282015481526020016003820154815260200160048201548152505082848061149090613a4d565b9550815181106114a2576114a26139cb565b60200260200101819052505b806114b881613a4d565b9150506113f0565b3360009081526013602052604090205460ff161580156114f8575060005473ffffffffffffffffffffffffffffffffffffffff163314155b1561152f576040517f82b4290000000000000000000000000000000000000000000000000000000000815260040160405180910390fd5b61153b81600f546122aa565b50565b73ffffffffffffffffffffffffffffffffffffffff811660009081526003602052604081205460ff168061158c575060005473ffffffffffffffffffffffffffffffffffffffff8381169116145b92915050565b60005473ffffffffffffffffffffffffffffffffffffffff163314611613576040517f08c379a000000000000000000000000000000000000000000000000000000000815260206004820152600c60248201527f554e415554484f52495a454400000000000000000000000000000000000000006044820152606401610c60565b73ffffffffffffffffffffffffffffffffffffffff8116611660576040517fa86b651200000000000000000000000000000000000000000000000000000000815260040160405180910390fd5b73ffffffffffffffffffffffffffffffffffffffff8116600081815260136020908152604091829020805460ff808216157fffffffffffffffffffffffffffffffffffffffffffffffffffffffffffffff0090921682179092558351948552161515908301527f7070b1fa79059dab7359a2e5b3be557471a19c213ba384d17144bc86d1496723910160405180910390a150565b60005473ffffffffffffffffffffffffffffffffffffffff163314611775576040517f08c379a000000000000000000000000000000000000000000000000000000000815260206004820152600c60248201527f554e415554484f52495a454400000000000000000000000000000000000000006044820152606401610c60565b601080547fffffffffffffffffffffffffffffffffffffffffffffffffffffffffffffff0016911515919091179055565b73ffffffffffffffffffffffffffffffffffffffff811660009081526002602052604081205460ff168061158c57505060005473ffffffffffffffffffffffffffffffffffffffff91821691161490565b60005473ffffffffffffffffffffffffffffffffffffffff163314611878576040517f08c379a000000000000000000000000000000000000000000000000000000000815260206004820152600c60248201527f554e415554484f52495a454400000000000000000000000000000000000000006044820152606401610c60565b60005b82518110156118d3576118c0838281518110611899576118996139cb565b60200260200101518383815181106118b3576118b36139cb565b6020026020010151612b6c565b50806118cb81613a4d565b91505061187b565b505050565b60005473ffffffffffffffffffffffffffffffffffffffff163314611959576040517f08c379a000000000000000000000000000000000000000000000000000000000815260206004820152600c60248201527f554e415554484f52495a454400000000000000000000000000000000000000006044820152606401610c60565b6110ef612bb8565b60005b818110156118d357611aec838383818110611981576119816139cb565b90506020028101906119939190613aaa565b6119a19060208101906132a9565b8484848181106119b3576119b36139cb565b90506020028101906119c59190613aaa565b602001358585858181106119db576119db6139cb565b90506020028101906119ed9190613aaa565b6119fe906060810190604001613ae8565b868686818110611a1057611a106139cb565b9050602002810190611a229190613aaa565b60600135878787818110611a3857611a386139cb565b9050602002810190611a4a9190613aaa565b60800135888888818110611a6057611a606139cb565b9050602002810190611a729190613aaa565b611a809060a0810190613b03565b8a8a8a818110611a9257611a926139cb565b9050602002810190611aa49190613aaa565b611ab29060c0810190613b6b565b8080601f016020809104026020016040519081016040528093929190818152602001838380828437600092019190915250611cdc92505050565b80611af681613a4d565b915050611964565b60005473ffffffffffffffffffffffffffffffffffffffff163314611b7f576040517f08c379a000000000000000000000000000000000000000000000000000000000815260206004820152600c60248201527f554e415554484f52495a454400000000000000000000000000000000000000006044820152606401610c60565b8173ffffffffffffffffffffffffffffffffffffffff8116611bcd576040517fa86b651200000000000000000000000000000000000000000000000000000000815260040160405180910390fd5b73ffffffffffffffffffffffffffffffffffffffff831660008181526002602090815260409182902080547fffffffffffffffffffffffffffffffffffffffffffffffffffffffffffffff00168615159081179091558251938452908301527f780d738f356a91be5dfe8ffb87990c655a36b3430a233c71a209eb1e9a1a1a759101610d3a565b60606011805480602002602001604051908101604052809291908181526020016000905b828210156108cd57838290600052602060002090600502016040518060a00160405290816000820154815260200160018201548152602001600282015481526020016003820154815260200160048201548152505081526020019060010190611c78565b611ce4612ae7565b3373ffffffffffffffffffffffffffffffffffffffff891614611d33576040517fbd79de5800000000000000000000000000000000000000000000000000000000815260040160405180910390fd5b60065464ffffffffff1684811480611d5f5750600081118015611d5f5750611d5c6001826139b8565b85145b611d95576040517f9b8febfe00000000000000000000000000000000000000000000000000000000815260040160405180910390fd5b600087878b888c87604051602001611db296959493929190613bd0565b604080517fffffffffffffffffffffffffffffffffffffffffffffffffffffffffffffffe081840301815282825280516020918201209083015201604051602081830303815290604052805190602001209050611e5585858080602002602001604051908101604052809392919081815260200183836020028082843760009201919091525050508885149050611e4b57600a54611e4f565b6004545b83612c27565b611e8b576040517f09bde33900000000000000000000000000000000000000000000000000000000815260040160405180910390fd5b73ffffffffffffffffffffffffffffffffffffffff8a166000908152600b602090815260408083208a8452909152812054611ec6908b6139b8565b905080600003611f02576040517f969bf72800000000000000000000000000000000000000000000000000000000815260040160405180910390fd5b73ffffffffffffffffffffffffffffffffffffffff8b166000908152600b602090815260408083208b845290915290208a9055611f607f00000000000000000000000000000000000000000000000000000000000000008c83612c3d565b6040805173ffffffffffffffffffffffffffffffffffffffff8d1681526020810183905290810188905260ff8a166060820152608081018990524260a08201524360c08201527f309cb1c0dc6ce0f02c0c35cc1f46bbe61ec9deb311d101b87e7d25bd0b647fd79060e00160405180910390a15050505050505050505050565b61203d6040518060c00160405280600081526020016000815260200160006fffffffffffffffffffffffffffffffff16815260200160006fffffffffffffffffffffffffffffffff16815260200160008152602001600081525090565b60125482118061204b575081155b156120ad576040518060c001604052806000815260200183815260200160006fffffffffffffffffffffffffffffffff16815260200160006fffffffffffffffffffffffffffffffff1681526020016000815260200160008152509050919050565b60126120ba6001846139b8565b815481106120ca576120ca6139cb565b60009182526020918290206040805160c08101825260059093029091018054835260018101549383019390935260028301546fffffffffffffffffffffffffffffffff8082169284019290925270010000000000000000000000000000000090041660608201526003820154608082015260049091015460a082015292915050565b6011546060904390600090819067ffffffffffffffff811115612171576121716134aa565b6040519080825280602002602001820160405280156121d457816020015b6121c16040518060a0016040528060008152602001600081526020016000815260200160008152602001600081525090565b81526020019060019003908161218f5790505b50905060005b601154811015610bd95783601182815481106121f8576121f86139cb565b90600052602060002090600502016002015411156122985760118181548110612223576122236139cb565b90600052602060002090600502016040518060a00160405290816000820154815260200160018201548152602001600282015481526020016003820154815260200160048201548152505082848061227a90613a4d565b95508151811061228c5761228c6139cb565b60200260200101819052505b806122a281613a4d565b9150506121da565b3360009081526013602052604090205460ff161580156122e2575060005473ffffffffffffffffffffffffffffffffffffffff163314155b15612319576040517f82b4290000000000000000000000000000000000000000000000000000000000815260040160405180910390fd5b81600003612353576040517fa86b651200000000000000000000000000000000000000000000000000000000815260040160405180910390fd5b6000811561237957600d5461236a83610e10613c26565b6123749190613c3d565b61237d565b600f545b90506000600c548461238f9190613c3d565b90506000600c54836123a19190613c3d565b6011549091506000816123b457436123ef565b60116123c16001846139b8565b815481106123d1576123d16139cb565b90600052602060002090600502016003015460016123ef9190613c78565b601254909150600090612403906001613c78565b905060126040518060c001604052808a8152602001838152602001436fffffffffffffffffffffffffffffffff168152602001426fffffffffffffffffffffffffffffffff16815260200185600161245b9190613c78565b8152602001600c548661246e9190613c78565b905281546001818101845560009384526020808520845160059094020192835583015190820155604082015160608301516fffffffffffffffffffffffffffffffff9081167001000000000000000000000000000000000291161760028201556080820151600382015560a0909101516004909101555b600c548110156126b757600060016124fd8786613c78565b61250791906139b8565b9050600082612517876001613c78565b6125219190613c78565b600c549091508890612535906001906139b8565b840361255257612545848a613c26565b61254f908d6139b8565b90505b6040805160a08101825282815260208082018581528284018a81526060808501898152608086018c81526011805460018101825560009190915296517f31ecc21a745e3968a04e9570e4425bc18fa8019c68028196b546d1669c200c6860059098029788015593517f31ecc21a745e3968a04e9570e4425bc18fa8019c68028196b546d1669c200c6987015591517f31ecc21a745e3968a04e9570e4425bc18fa8019c68028196b546d1669c200c6a86015590517f31ecc21a745e3968a04e9570e4425bc18fa8019c68028196b546d1669c200c6b85015590517f31ecc21a745e3968a04e9570e4425bc18fa8019c68028196b546d1669c200c6c909301929092558251848152908101899052918201859052869184917f9d1578529527d7ca977e6e95da5e7302299dfa7894fea3a1992ce68741ff5a0a910160405180910390a361269f836001613c78565b955050505080806126af90613a4d565b9150506124e5565b5060105460ff16156126ef576126ef7f000000000000000000000000000000000000000000000000000000000000000033308b612d11565b33817fd3aec04e72c75d4a42792ce6fe015d1ec10b07a8a621c9df2a89bd3644cf7ca88a61271e876001613c78565b600c5461272b9089613c78565b6040805193845260208401929092529082015243606082015242608082015260a00160405180910390a35050505050505050565b60005473ffffffffffffffffffffffffffffffffffffffff1633146127e0576040517f08c379a000000000000000000000000000000000000000000000000000000000815260206004820152600c60248201527f554e415554484f52495a454400000000000000000000000000000000000000006044820152606401610c60565b600080547fffffffffffffffffffffffff00000000000000000000000000000000000000001673ffffffffffffffffffffffffffffffffffffffff83169081178255604051909133917f8be0079c531659141344cd1fd0a4f28419497f9722a3daafe3b4186f6b6457e09190a350565b60606000858589868a8760405160200161286f96959493929190613bd0565b604080517fffffffffffffffffffffffffffffffffffffffffffffffffffffffffffffffe0818403018152828252805160208083019190912090840152935001604051602081830303815290604052805190602001209050965096945050505050565b606060008060118054905067ffffffffffffffff8111156128f5576128f56134aa565b60405190808252806020026020018201604052801561295857816020015b6129456040518060a0016040528060008152602001600081526020016000815260200160008152602001600081525090565b8152602001906001900390816129135790505b50905060005b601154811015612a5f57856011828154811061297c5761297c6139cb565b906000526020600020906005020160020154101580156129c0575084601182815481106129ab576129ab6139cb565b90600052602060002090600502016003015411155b15612a4d57601181815481106129d8576129d86139cb565b90600052602060002090600502016040518060a001604052908160008201548152602001600182015481526020016002820154815260200160038201548152602001600482015481525050828480612a2f90613a4d565b955081518110612a4157612a416139cb565b60200260200101819052505b80612a5781613a4d565b91505061295e565b509081529392505050565b612a72612d75565b600080547fffffffffffffffffffffff00ffffffffffffffffffffffffffffffffffffffff1690557f5db9ee0a495bf2e6ff9c91a7834c1ba4fdd244a5e8aa4e537bd38aeae4b073aa335b60405173ffffffffffffffffffffffffffffffffffffffff909116815260200160405180910390a1565b60005474010000000000000000000000000000000000000000900460ff16156110ef576040517f08c379a000000000000000000000000000000000000000000000000000000000815260206004820152601060248201527f5061757361626c653a20706175736564000000000000000000000000000000006044820152606401610c60565b6060600080835160208501865af43d6040519250601f19601f6020830101168301604052808352806000602085013e811560018103612baf57816000803e816000fd5b50505092915050565b612bc0612ae7565b600080547fffffffffffffffffffffff00ffffffffffffffffffffffffffffffffffffffff16740100000000000000000000000000000000000000001790557f62e78cea01bee320cd4e420270b5ea74000d11b0c9f74754ebdbfc544b05a258612abd3390565b600082612c348584612df9565b14949350505050565b60405173ffffffffffffffffffffffffffffffffffffffff83166024820152604481018290526118d39084907fa9059cbb00000000000000000000000000000000000000000000000000000000906064015b604080517fffffffffffffffffffffffffffffffffffffffffffffffffffffffffffffffe08184030181529190526020810180517bffffffffffffffffffffffffffffffffffffffffffffffffffffffff167fffffffff0000000000000000000000000000000000000000000000000000000090931692909217909152612e46565b60405173ffffffffffffffffffffffffffffffffffffffff80851660248301528316604482015260648101829052612d6f9085907f23b872dd0000000000000000000000000000000000000000000000000000000090608401612c8f565b50505050565b60005474010000000000000000000000000000000000000000900460ff166110ef576040517f08c379a000000000000000000000000000000000000000000000000000000000815260206004820152601460248201527f5061757361626c653a206e6f74207061757365640000000000000000000000006044820152606401610c60565b600081815b8451811015612e3e57612e2a82868381518110612e1d57612e1d6139cb565b6020026020010151612f52565b915080612e3681613a4d565b915050612dfe565b509392505050565b6000612ea8826040518060400160405280602081526020017f5361666545524332303a206c6f772d6c6576656c2063616c6c206661696c65648152508573ffffffffffffffffffffffffffffffffffffffff16612f849092919063ffffffff16565b8051909150156118d35780806020019051810190612ec69190613c8b565b6118d3576040517f08c379a000000000000000000000000000000000000000000000000000000000815260206004820152602a60248201527f5361666545524332303a204552433230206f7065726174696f6e20646964206e60448201527f6f742073756363656564000000000000000000000000000000000000000000006064820152608401610c60565b6000818310612f6e576000828152602084905260409020612f7d565b60008381526020839052604090205b9392505050565b6060612f938484600085612f9b565b949350505050565b60608247101561302d576040517f08c379a000000000000000000000000000000000000000000000000000000000815260206004820152602660248201527f416464726573733a20696e73756666696369656e742062616c616e636520666f60448201527f722063616c6c00000000000000000000000000000000000000000000000000006064820152608401610c60565b6000808673ffffffffffffffffffffffffffffffffffffffff1685876040516130569190613ca8565b60006040518083038185875af1925050503d8060008114613093576040519150601f19603f3d011682016040523d82523d6000602084013e613098565b606091505b50915091506130a9878383876130b4565b979650505050505050565b6060831561314a5782516000036131435773ffffffffffffffffffffffffffffffffffffffff85163b613143576040517f08c379a000000000000000000000000000000000000000000000000000000000815260206004820152601d60248201527f416464726573733a2063616c6c20746f206e6f6e2d636f6e74726163740000006044820152606401610c60565b5081612f93565b612f93838381511561315f5781518083602001fd5b806040517f08c379a0000000000000000000000000000000000000000000000000000000008152600401610c609190613332565b6020808252825182820181905260009190848201906040850190845b818110156132225761320f838551805182526020810151602083015260408101516fffffffffffffffffffffffffffffffff808216604085015280606084015116606085015250506080810151608083015260a081015160a08301525050565b9284019260c092909201916001016131af565b50909695505050505050565b60006020828403121561324057600080fd5b5035919050565b60a0810161158c828480518252602081015160208301526040810151604083015260608101516060830152608081015160808301525050565b803573ffffffffffffffffffffffffffffffffffffffff811681146132a457600080fd5b919050565b6000602082840312156132bb57600080fd5b612f7d82613280565b60005b838110156132df5781810151838201526020016132c7565b50506000910152565b600081518084526133008160208601602086016132c4565b601f017fffffffffffffffffffffffffffffffffffffffffffffffffffffffffffffffe0169290920160200192915050565b602081526000612f7d60208301846132e8565b6000806040838503121561335857600080fd5b61336183613280565b946020939093013593505050565b6020808252825182820181905260009190848201906040850190845b81811015613222576133c983855180518252602081015160208301526040810151604083015260608101516060830152608081015160808301525050565b9284019260a0929092019160010161338b565b801515811461153b57600080fd5b600080604083850312156133fd57600080fd5b61340683613280565b91506020830135613416816133dc565b809150509250929050565b803564ffffffffff811681146132a457600080fd5b600080600080600060a0868803121561344e57600080fd5b853594506020860135935061346560408701613421565b925061347360608701613421565b915061348160808701613421565b90509295509295909350565b60006020828403121561349f57600080fd5b8135612f7d816133dc565b7f4e487b7100000000000000000000000000000000000000000000000000000000600052604160045260246000fd5b604051601f82017fffffffffffffffffffffffffffffffffffffffffffffffffffffffffffffffe016810167ffffffffffffffff81118282101715613520576135206134aa565b604052919050565b600067ffffffffffffffff821115613542576135426134aa565b5060051b60200190565b600082601f83011261355d57600080fd5b813567ffffffffffffffff811115613577576135776134aa565b6135a860207fffffffffffffffffffffffffffffffffffffffffffffffffffffffffffffffe0601f840116016134d9565b8181528460208386010111156135bd57600080fd5b816020850160208301376000918101602001919091529392505050565b600082601f8301126135eb57600080fd5b813560206136006135fb83613528565b6134d9565b82815260059290921b8401810191818101908684111561361f57600080fd5b8286015b8481101561365f57803567ffffffffffffffff8111156136435760008081fd5b6136518986838b010161354c565b845250918301918301613623565b509695505050505050565b6000806040838503121561367d57600080fd5b823567ffffffffffffffff8082111561369557600080fd5b818501915085601f8301126136a957600080fd5b813560206136b96135fb83613528565b82815260059290921b840181019181810190898411156136d857600080fd5b948201945b838610156136fd576136ee86613280565b825294820194908201906136dd565b9650508601359250508082111561371357600080fd5b50613720858286016135da565b9150509250929050565b60008083601f84011261373c57600080fd5b50813567ffffffffffffffff81111561375457600080fd5b6020830191508360208260051b850101111561376f57600080fd5b9250929050565b6000806020838503121561378957600080fd5b823567ffffffffffffffff8111156137a057600080fd5b6137ac8582860161372a565b90969095509350505050565b803560ff811681146132a457600080fd5b60008060008060008060008060e0898b0312156137e557600080fd5b6137ee89613280565b97506020890135965061380360408a016137b8565b9550606089013594506080890135935060a089013567ffffffffffffffff8082111561382e57600080fd5b61383a8c838d0161372a565b909550935060c08b013591508082111561385357600080fd5b506138608b828c0161354c565b9150509295985092959890939650565b60c0810161158c8284805182526020810151602083015260408101516fffffffffffffffffffffffffffffffff808216604085015280606084015116606085015250506080810151608083015260a081015160a08301525050565b600080604083850312156138de57600080fd5b50508035926020909101359150565b60008060008060008060c0878903121561390657600080fd5b61390f87613280565b955060208701359450613924604088016137b8565b9350606087013592506080870135915060a087013567ffffffffffffffff81111561394e57600080fd5b61395a89828a0161354c565b9150509295509295509295565b60408152600061397a60408301856132e8565b90508260208301529392505050565b7f4e487b7100000000000000000000000000000000000000000000000000000000600052601160045260246000fd5b8181038181111561158c5761158c613989565b7f4e487b7100000000000000000000000000000000000000000000000000000000600052603260045260246000fd5b600181811c90821680613a0e57607f821691505b602082108103613a47577f4e487b7100000000000000000000000000000000000000000000000000000000600052602260045260246000fd5b50919050565b60007fffffffffffffffffffffffffffffffffffffffffffffffffffffffffffffffff8203613a7e57613a7e613989565b5060010190565b64ffffffffff818116838216019080821115613aa357613aa3613989565b5092915050565b600082357fffffffffffffffffffffffffffffffffffffffffffffffffffffffffffffff21833603018112613ade57600080fd5b9190910192915050565b600060208284031215613afa57600080fd5b612f7d826137b8565b60008083357fffffffffffffffffffffffffffffffffffffffffffffffffffffffffffffffe1843603018112613b3857600080fd5b83018035915067ffffffffffffffff821115613b5357600080fd5b6020019150600581901b360382131561376f57600080fd5b60008083357fffffffffffffffffffffffffffffffffffffffffffffffffffffffffffffffe1843603018112613ba057600080fd5b83018035915067ffffffffffffffff821115613bbb57600080fd5b60200191503681900382131561376f57600080fd5b60ff8716815285602082015273ffffffffffffffffffffffffffffffffffffffff8516604082015283606082015282608082015260c060a08201526000613c1a60c08301846132e8565b98975050505050505050565b808202811582820484141761158c5761158c613989565b600082613c73577f4e487b7100000000000000000000000000000000000000000000000000000000600052601260045260246000fd5b500490565b8082018082111561158c5761158c613989565b600060208284031215613c9d57600080fd5b8151612f7d816133dc565b60008251613ade8184602087016132c456fea26469706673582212207c4589879885f43a9c42ce92bdb78640d84caadb49a97d6ed6de3e4cfa2c414b64736f6c63430008150033",
  "devdoc": {
    "events": {
      "Paused(address)": {
        "details": "Emitted when the pause is triggered by `account`."
      },
      "Unpaused(address)": {
        "details": "Emitted when the pause is lifted by `account`."
      }
    },
    "kind": "dev",
    "methods": {
      "claim(address,uint256,uint8,bytes32,uint256,bytes32[],bytes)": {
        "params": {
          "cumulativeAmount_": "- cumulative amount of rewards to claim",
          "cycle_": "- cycle of the rewards",
          "merkleProof_": "- merkle proof of the rewards",
          "positionId_": "- id of the position, fToken address for lending and vaultId for vaults",
          "positionType_": "- type of position, 1 for lending, 2 for vaults, 3 for smart lending, etc",
          "recipient_": "- address of the recipient"
        }
      },
      "distributeRewards(uint256,uint256)": {
        "params": {
          "amount_": "- amount of tokens to distribute rewards for",
          "durationInHours_": "- duration of the rewards in hours"
        }
      },
      "getActiveRewards()": {
        "returns": {
          "_0": "rewards_ - active rewards"
        }
      },
      "getCycleRewards()": {
        "returns": {
          "_0": "rewards_ - rewards"
        }
      },
      "getExpiredRewards()": {
        "returns": {
          "_0": "rewards_ - expired rewards"
        }
      },
      "getRewardsForRange(uint256,uint256)": {
        "params": {
          "endBlock_": "- end block of the range",
          "startBlock_": "- start block of the range"
        },
        "returns": {
          "_0": "rewards_ - rewards for the range"
        }
      },
      "getUpcomingRewards()": {
        "returns": {
          "_0": "rewards_ - upcoming rewards"
        }
      },
      "paused()": {
        "details": "Returns true if the contract is paused, and false otherwise."
      },
      "setPullFromSender(bool)": {
        "params": {
          "pullFromSender_": "- whether to pull rewards from sender or not"
        }
      },
      "spell(address[],bytes[])": {
        "details": "open payload method for admin to resolve emergency cases"
      },
      "toggleRewardsDistributor(address)": {
        "params": {
          "distributor_": "- address of the rewards distributor"
        }
      },
      "updateApprover(address,bool)": {
        "params": {
          "approver_": "The address to update",
          "isApprover_": "Whether or not the address should be an allowed approver"
        }
      },
      "updateProposer(address,bool)": {
        "params": {
          "isProposer_": "Whether or not the address should be an allowed proposer",
          "proposer_": "The address to update"
        }
      }
    },
    "version": 1
  },
  "userdoc": {
    "events": {
      "LogClaimed(address,uint256,uint256,uint8,bytes32,uint256,uint256)": {
        "notice": "Emitted when a `user` claims `amount` via a valid merkle proof"
      },
      "LogRootProposed(uint256,bytes32,bytes32,uint256,uint256)": {
        "notice": "Emitted when a new cycle root hash is proposed"
      },
      "LogRootUpdated(uint256,bytes32,bytes32,uint256,uint256)": {
        "notice": "Emitted when a new cycle root hash is approved by the owner and becomes the new active root"
      },
      "LogUpdateApprover(address,bool)": {
        "notice": "Emitted when an address is added or removed from the allowed approvers"
      },
      "LogUpdateProposer(address,bool)": {
        "notice": "Emitted when an address is added or removed from the allowed proposers"
      }
    },
    "kind": "user",
    "methods": {
      "approveRoot(bytes32,bytes32,uint40,uint40,uint40)": {
        "notice": "Approve the current pending root and content hash"
      },
      "blocksPerCycle()": {
        "notice": "Duration of each cycle"
      },
      "claim(address,uint256,uint8,bytes32,uint256,bytes32[],bytes)": {
        "notice": "Claims rewards for a given recipient"
      },
      "claimed(address,bytes32)": {
        "notice": "total claimed amount per user address and fToken. user => positionId => claimed amount"
      },
      "currentMerkleCycle()": {
        "notice": "merkle root data related to current cycle (proposed and approved)."
      },
      "cyclesPerDistribution()": {
        "notice": "Number of cycles to distribute rewards"
      },
      "distributeRewards(uint256,uint256)": {
        "notice": "Distributes rewards for a given token"
      },
      "getActiveRewards()": {
        "notice": "Returns the active rewards"
      },
      "getCycleRewards()": {
        "notice": "Returns the rewards for TOKEN"
      },
      "getExpiredRewards()": {
        "notice": "Returns the expired rewards"
      },
      "getRewardsForRange(uint256,uint256)": {
        "notice": "Returns the rewards for a given range"
      },
      "getUpcomingRewards()": {
        "notice": "Returns the upcoming rewards"
      },
      "hasPendingRoot()": {
        "notice": "checks if there is a proposed root waiting to be approved"
      },
      "isApprover(address)": {
        "notice": "checks if the `approver_` is an allowed root approver"
      },
      "isProposer(address)": {
        "notice": "checks if the `proposer_` is an allowed root proposer"
      },
      "maxBlocksForDistribution()": {
        "notice": "Maximum age of rewards in blocks"
      },
      "pause()": {
        "notice": "Pause contract functionality of new roots and claiming"
      },
      "pendingMerkleCycle()": {
        "notice": "merkle root data related to pending cycle (proposed but not yet approved)."
      },
      "previousMerkleRoot()": {
        "notice": "merkle root of the previous cycle"
      },
      "proposeRoot(bytes32,bytes32,uint40,uint40,uint40)": {
        "notice": "Propose a new root and content hash, which will be stored as pending until approved"
      },
      "pullFromSender()": {
        "notice": "Whether to pull rewards from sender or not"
      },
      "setPullFromSender(bool)": {
        "notice": "Sets whether to pull rewards from sender or not"
      },
      "toggleRewardsDistributor(address)": {
        "notice": "Toggles a rewards distributor"
      },
      "unpause()": {
        "notice": "Unpause contract functionality of new roots and claiming"
      },
      "updateApprover(address,bool)": {
        "notice": "Updates an address status as a root approver"
      },
      "updateProposer(address,bool)": {
        "notice": "Updates an address status as a root proposer"
      }
    },
    "version": 1
  },
  "storageLayout": {
    "storage": [
      {
        "astId": 3162,
        "contract": "contracts/protocols/lending/merkleDistributor/main.sol:FluidMerkleDistributor",
        "label": "owner",
        "offset": 0,
        "slot": "0",
        "type": "t_address"
      },
      {
        "astId": 17,
        "contract": "contracts/protocols/lending/merkleDistributor/main.sol:FluidMerkleDistributor",
        "label": "_paused",
        "offset": 20,
        "slot": "0",
        "type": "t_bool"
      },
      {
        "astId": 3108,
        "contract": "contracts/protocols/lending/merkleDistributor/main.sol:FluidMerkleDistributor",
        "label": "name",
        "offset": 0,
        "slot": "1",
        "type": "t_string_storage"
      },
      {
        "astId": 3113,
        "contract": "contracts/protocols/lending/merkleDistributor/main.sol:FluidMerkleDistributor",
        "label": "_proposers",
        "offset": 0,
        "slot": "2",
        "type": "t_mapping(t_address,t_bool)"
      },
      {
        "astId": 3118,
        "contract": "contracts/protocols/lending/merkleDistributor/main.sol:FluidMerkleDistributor",
        "label": "_approvers",
        "offset": 0,
        "slot": "3",
        "type": "t_mapping(t_address,t_bool)"
      },
      {
        "astId": 3122,
        "contract": "contracts/protocols/lending/merkleDistributor/main.sol:FluidMerkleDistributor",
        "label": "_currentMerkleCycle",
        "offset": 0,
        "slot": "4",
        "type": "t_struct(MerkleCycle)3070_storage"
      },
      {
        "astId": 3126,
        "contract": "contracts/protocols/lending/merkleDistributor/main.sol:FluidMerkleDistributor",
        "label": "_pendingMerkleCycle",
        "offset": 0,
        "slot": "7",
        "type": "t_struct(MerkleCycle)3070_storage"
      },
      {
        "astId": 3129,
        "contract": "contracts/protocols/lending/merkleDistributor/main.sol:FluidMerkleDistributor",
        "label": "previousMerkleRoot",
        "offset": 0,
        "slot": "10",
        "type": "t_bytes32"
      },
      {
        "astId": 3136,
        "contract": "contracts/protocols/lending/merkleDistributor/main.sol:FluidMerkleDistributor",
        "label": "claimed",
        "offset": 0,
        "slot": "11",
        "type": "t_mapping(t_address,t_mapping(t_bytes32,t_uint256))"
      },
      {
        "astId": 1940,
        "contract": "contracts/protocols/lending/merkleDistributor/main.sol:FluidMerkleDistributor",
        "label": "cyclesPerDistribution",
        "offset": 0,
        "slot": "12",
        "type": "t_uint256"
      },
      {
        "astId": 1943,
        "contract": "contracts/protocols/lending/merkleDistributor/main.sol:FluidMerkleDistributor",
        "label": "blockTime",
        "offset": 0,
        "slot": "13",
        "type": "t_uint256"
      },
      {
        "astId": 1949,
        "contract": "contracts/protocols/lending/merkleDistributor/main.sol:FluidMerkleDistributor",
        "label": "blocksPerCycle",
        "offset": 0,
        "slot": "14",
        "type": "t_uint256"
      },
      {
        "astId": 1955,
        "contract": "contracts/protocols/lending/merkleDistributor/main.sol:FluidMerkleDistributor",
        "label": "maxBlocksForDistribution",
        "offset": 0,
        "slot": "15",
        "type": "t_uint256"
      },
      {
        "astId": 1959,
        "contract": "contracts/protocols/lending/merkleDistributor/main.sol:FluidMerkleDistributor",
        "label": "pullFromSender",
        "offset": 0,
        "slot": "16",
        "type": "t_bool"
      },
      {
        "astId": 2029,
        "contract": "contracts/protocols/lending/merkleDistributor/main.sol:FluidMerkleDistributor",
        "label": "rewards",
        "offset": 0,
        "slot": "17",
        "type": "t_array(t_struct(Reward)1970_storage)dyn_storage"
      },
      {
        "astId": 2033,
        "contract": "contracts/protocols/lending/merkleDistributor/main.sol:FluidMerkleDistributor",
        "label": "distributions",
        "offset": 0,
        "slot": "18",
        "type": "t_array(t_struct(Distribution)1983_storage)dyn_storage"
      },
      {
        "astId": 2037,
        "contract": "contracts/protocols/lending/merkleDistributor/main.sol:FluidMerkleDistributor",
        "label": "rewardsDistributor",
        "offset": 0,
        "slot": "19",
        "type": "t_mapping(t_address,t_bool)"
      }
    ],
    "types": {
      "t_address": {
        "encoding": "inplace",
        "label": "address",
        "numberOfBytes": "20"
      },
      "t_array(t_struct(Distribution)1983_storage)dyn_storage": {
        "base": "t_struct(Distribution)1983_storage",
        "encoding": "dynamic_array",
        "label": "struct FluidMerkleDistributorRewards.Distribution[]",
        "numberOfBytes": "32"
      },
      "t_array(t_struct(Reward)1970_storage)dyn_storage": {
        "base": "t_struct(Reward)1970_storage",
        "encoding": "dynamic_array",
        "label": "struct FluidMerkleDistributorRewards.Reward[]",
        "numberOfBytes": "32"
      },
      "t_bool": {
        "encoding": "inplace",
        "label": "bool",
        "numberOfBytes": "1"
      },
      "t_bytes32": {
        "encoding": "inplace",
        "label": "bytes32",
        "numberOfBytes": "32"
      },
      "t_mapping(t_address,t_bool)": {
        "encoding": "mapping",
        "key": "t_address",
        "label": "mapping(address => bool)",
        "numberOfBytes": "32",
        "value": "t_bool"
      },
      "t_mapping(t_address,t_mapping(t_bytes32,t_uint256))": {
        "encoding": "mapping",
        "key": "t_address",
        "label": "mapping(address => mapping(bytes32 => uint256))",
        "numberOfBytes": "32",
        "value": "t_mapping(t_bytes32,t_uint256)"
      },
      "t_mapping(t_bytes32,t_uint256)": {
        "encoding": "mapping",
        "key": "t_bytes32",
        "label": "mapping(bytes32 => uint256)",
        "numberOfBytes": "32",
        "value": "t_uint256"
      },
      "t_string_storage": {
        "encoding": "bytes",
        "label": "string",
        "numberOfBytes": "32"
      },
      "t_struct(Distribution)1983_storage": {
        "encoding": "inplace",
        "label": "struct FluidMerkleDistributorRewards.Distribution",
        "members": [
          {
            "astId": 1972,
            "contract": "contracts/protocols/lending/merkleDistributor/main.sol:FluidMerkleDistributor",
            "label": "amount",
            "offset": 0,
            "slot": "0",
            "type": "t_uint256"
          },
          {
            "astId": 1974,
            "contract": "contracts/protocols/lending/merkleDistributor/main.sol:FluidMerkleDistributor",
            "label": "epoch",
            "offset": 0,
            "slot": "1",
            "type": "t_uint256"
          },
          {
            "astId": 1976,
            "contract": "contracts/protocols/lending/merkleDistributor/main.sol:FluidMerkleDistributor",
            "label": "registrationBlock",
            "offset": 0,
            "slot": "2",
            "type": "t_uint128"
          },
          {
            "astId": 1978,
            "contract": "contracts/protocols/lending/merkleDistributor/main.sol:FluidMerkleDistributor",
            "label": "registrationTimestamp",
            "offset": 16,
            "slot": "2",
            "type": "t_uint128"
          },
          {
            "astId": 1980,
            "contract": "contracts/protocols/lending/merkleDistributor/main.sol:FluidMerkleDistributor",
            "label": "startCycle",
            "offset": 0,
            "slot": "3",
            "type": "t_uint256"
          },
          {
            "astId": 1982,
            "contract": "contracts/protocols/lending/merkleDistributor/main.sol:FluidMerkleDistributor",
            "label": "endCycle",
            "offset": 0,
            "slot": "4",
            "type": "t_uint256"
          }
        ],
        "numberOfBytes": "160"
      },
      "t_struct(MerkleCycle)3070_storage": {
        "encoding": "inplace",
        "label": "struct Structs.MerkleCycle",
        "members": [
          {
            "astId": 3057,
            "contract": "contracts/protocols/lending/merkleDistributor/main.sol:FluidMerkleDistributor",
            "label": "merkleRoot",
            "offset": 0,
            "slot": "0",
            "type": "t_bytes32"
          },
          {
            "astId": 3059,
            "contract": "contracts/protocols/lending/merkleDistributor/main.sol:FluidMerkleDistributor",
            "label": "merkleContentHash",
            "offset": 0,
            "slot": "1",
            "type": "t_bytes32"
          },
          {
            "astId": 3061,
            "contract": "contracts/protocols/lending/merkleDistributor/main.sol:FluidMerkleDistributor",
            "label": "cycle",
            "offset": 0,
            "slot": "2",
            "type": "t_uint40"
          },
          {
            "astId": 3063,
            "contract": "contracts/protocols/lending/merkleDistributor/main.sol:FluidMerkleDistributor",
            "label": "timestamp",
            "offset": 5,
            "slot": "2",
            "type": "t_uint40"
          },
          {
            "astId": 3065,
            "contract": "contracts/protocols/lending/merkleDistributor/main.sol:FluidMerkleDistributor",
            "label": "publishBlock",
            "offset": 10,
            "slot": "2",
            "type": "t_uint40"
          },
          {
            "astId": 3067,
            "contract": "contracts/protocols/lending/merkleDistributor/main.sol:FluidMerkleDistributor",
            "label": "startBlock",
            "offset": 15,
            "slot": "2",
            "type": "t_uint40"
          },
          {
            "astId": 3069,
            "contract": "contracts/protocols/lending/merkleDistributor/main.sol:FluidMerkleDistributor",
            "label": "endBlock",
            "offset": 20,
            "slot": "2",
            "type": "t_uint40"
          }
        ],
        "numberOfBytes": "96"
      },
      "t_struct(Reward)1970_storage": {
        "encoding": "inplace",
        "label": "struct FluidMerkleDistributorRewards.Reward",
        "members": [
          {
            "astId": 1961,
            "contract": "contracts/protocols/lending/merkleDistributor/main.sol:FluidMerkleDistributor",
            "label": "amount",
            "offset": 0,
            "slot": "0",
            "type": "t_uint256"
          },
          {
            "astId": 1963,
            "contract": "contracts/protocols/lending/merkleDistributor/main.sol:FluidMerkleDistributor",
            "label": "cycle",
            "offset": 0,
            "slot": "1",
            "type": "t_uint256"
          },
          {
            "astId": 1965,
            "contract": "contracts/protocols/lending/merkleDistributor/main.sol:FluidMerkleDistributor",
            "label": "startBlock",
            "offset": 0,
            "slot": "2",
            "type": "t_uint256"
          },
          {
            "astId": 1967,
            "contract": "contracts/protocols/lending/merkleDistributor/main.sol:FluidMerkleDistributor",
            "label": "endBlock",
            "offset": 0,
            "slot": "3",
            "type": "t_uint256"
          },
          {
            "astId": 1969,
            "contract": "contracts/protocols/lending/merkleDistributor/main.sol:FluidMerkleDistributor",
            "label": "epoch",
            "offset": 0,
            "slot": "4",
            "type": "t_uint256"
          }
        ],
        "numberOfBytes": "160"
      },
      "t_uint128": {
        "encoding": "inplace",
        "label": "uint128",
        "numberOfBytes": "16"
      },
      "t_uint256": {
        "encoding": "inplace",
        "label": "uint256",
        "numberOfBytes": "32"
      },
      "t_uint40": {
        "encoding": "inplace",
        "label": "uint40",
        "numberOfBytes": "5"
      }
    }
  }
}