{
  "address": "0x1fe0912b5f9465c72Cac60CA56A9e48B9F8224d1",
  "abi": [
    {
      "inputs": [
        {
          "internalType": "address",
          "name": "vaultT1Factory_",
          "type": "address"
        },
        {
          "internalType": "address",
          "name": "fluidWalletFactory_",
          "type": "address"
        }
      ],
      "stateMutability": "nonpayable",
      "type": "constructor"
    },
    {
      "inputs": [],
      "name": "FluidWallet__NotAllowed",
      "type": "error"
    },
    {
      "inputs": [],
      "name": "FluidWallet__ToHexDigit",
      "type": "error"
    },
    {
      "inputs": [],
      "name": "FluidWallet__Unauthorized",
      "type": "error"
    },
    {
      "anonymous": false,
      "inputs": [
        {
          "indexed": true,
          "internalType": "address",
          "name": "owner",
          "type": "address"
        },
        {
          "indexed": true,
          "internalType": "uint256",
          "name": "tokenId",
          "type": "uint256"
        }
      ],
      "name": "Executed",
      "type": "event"
    },
    {
      "anonymous": false,
      "inputs": [
        {
          "indexed": true,
          "internalType": "address",
          "name": "owner",
          "type": "address"
        }
      ],
      "name": "ExecutedCast",
      "type": "event"
    },
    {
      "inputs": [],
      "name": "ETH_ADDRESS",
      "outputs": [
        {
          "internalType": "address",
          "name": "",
          "type": "address"
        }
      ],
      "stateMutability": "view",
      "type": "function"
    },
    {
      "inputs": [],
      "name": "FLUID_WALLET_FACTORY",
      "outputs": [
        {
          "internalType": "address",
          "name": "",
          "type": "address"
        }
      ],
      "stateMutability": "view",
      "type": "function"
    },
    {
      "inputs": [],
      "name": "VAULT_T1_FACTORY",
      "outputs": [
        {
          "internalType": "address",
          "name": "",
          "type": "address"
        }
      ],
      "stateMutability": "view",
      "type": "function"
    },
    {
      "inputs": [],
      "name": "VERSION",
      "outputs": [
        {
          "internalType": "string",
          "name": "",
          "type": "string"
        }
      ],
      "stateMutability": "view",
      "type": "function"
    },
    {
      "inputs": [
        {
          "components": [
            {
              "internalType": "address",
              "name": "target",
              "type": "address"
            },
            {
              "internalType": "bytes",
              "name": "data",
              "type": "bytes"
            },
            {
              "internalType": "uint256",
              "name": "value",
              "type": "uint256"
            },
            {
              "internalType": "uint8",
              "name": "operation",
              "type": "uint8"
            }
          ],
          "internalType": "struct FluidWalletErrorsAndEvents.Action[]",
          "name": "actions_",
          "type": "tuple[]"
        }
      ],
      "name": "cast",
      "outputs": [],
      "stateMutability": "nonpayable",
      "type": "function"
    },
    {
      "inputs": [
        {
          "internalType": "address[]",
          "name": "",
          "type": "address[]"
        },
        {
          "internalType": "uint256[]",
          "name": "",
          "type": "uint256[]"
        },
        {
          "internalType": "uint256[]",
          "name": "",
          "type": "uint256[]"
        },
        {
          "internalType": "address",
          "name": "initiator_",
          "type": "address"
        },
        {
          "internalType": "bytes",
          "name": "data_",
          "type": "bytes"
        }
      ],
      "name": "executeOperation",
      "outputs": [
        {
          "internalType": "bool",
          "name": "",
          "type": "bool"
        }
      ],
      "stateMutability": "nonpayable",
      "type": "function"
    },
    {
      "inputs": [
        {
          "internalType": "address",
          "name": "operator_",
          "type": "address"
        },
        {
          "internalType": "address",
          "name": "from_",
          "type": "address"
        },
        {
          "internalType": "uint256",
          "name": "tokenId_",
          "type": "uint256"
        },
        {
          "internalType": "bytes",
          "name": "data_",
          "type": "bytes"
        }
      ],
      "name": "onERC721Received",
      "outputs": [
        {
          "internalType": "bytes4",
          "name": "",
          "type": "bytes4"
        }
      ],
      "stateMutability": "nonpayable",
      "type": "function"
    },
    {
      "inputs": [],
      "name": "owner",
      "outputs": [
        {
          "internalType": "address",
          "name": "",
          "type": "address"
        }
      ],
      "stateMutability": "view",
      "type": "function"
    }
  ],
  "transactionHash": "0x2b5906c75a21d7dd7e4d82ff740f32b6bfbe60a602db4b8a1d11b39f137ebfa2",
  "args": [
    "0x324c5Dc1fC42c7a4D43d92df1eBA58a54d13Bf2d",
    "0xd8Ae986159e350B6535539B8A1e488658452f25E"
  ],
  "numDeployments": 1,
  "solcInputHash": "ca9e5aa54012862807c9d9299b1ce928",
  "bytecode": "0x60c06040523480156200001157600080fd5b506040516200282938038062002829833981016040819052620000349162000069565b6001600160a01b039182166080521660a052620000a1565b80516001600160a01b03811681146200006457600080fd5b919050565b600080604083850312156200007d57600080fd5b62000088836200004c565b915062000098602084016200004c565b90509250929050565b60805160a05161272b620000fe6000396000818160f0015281816102dd0152818161067f015261074501526000818161013c0152818161021f015281816103d4015281816104ac01528181610b270152610c1e015261272b6000f3fe608060405234801561001057600080fd5b50600436106100885760003560e01c80638da5cb5b1161005b5780638da5cb5b1461015e578063920f5c841461017e578063a734f06e146101a1578063ffa1ad74146101bc57600080fd5b8063150b7a021461008d57806357b7bf20146100d65780636ff66e79146100eb5780638a1c736414610137575b600080fd5b6100a061009b366004611b8f565b610205565b6040517fffffffff0000000000000000000000000000000000000000000000000000000090911681526020015b60405180910390f35b6100e96100e4366004611ead565b610583565b005b6101127f000000000000000000000000000000000000000000000000000000000000000081565b60405173ffffffffffffffffffffffffffffffffffffffff90911681526020016100cd565b6101127f000000000000000000000000000000000000000000000000000000000000000081565b6000546101129073ffffffffffffffffffffffffffffffffffffffff1681565b61019161018c366004611f27565b6105cc565b60405190151581526020016100cd565b61011273eeeeeeeeeeeeeeeeeeeeeeeeeeeeeeeeeeeeeeee81565b6101f86040518060400160405280600581526020017f312e302e3000000000000000000000000000000000000000000000000000000081525081565b6040516100cd9190612070565b60003373ffffffffffffffffffffffffffffffffffffffff7f00000000000000000000000000000000000000000000000000000000000000001614610276576040517f52df424e00000000000000000000000000000000000000000000000000000000815260040160405180910390fd5b8473ffffffffffffffffffffffffffffffffffffffff168673ffffffffffffffffffffffffffffffffffffffff16146102db576040517f52df424e00000000000000000000000000000000000000000000000000000000815260040160405180910390fd5b7f000000000000000000000000000000000000000000000000000000000000000073ffffffffffffffffffffffffffffffffffffffff168673ffffffffffffffffffffffffffffffffffffffff1614610360576040517f52df424e00000000000000000000000000000000000000000000000000000000815260040160405180910390fd5b60008061036f84860186612083565b9150915061037c82610678565b61038581610815565b61038e60018055565b6040517f6352211e00000000000000000000000000000000000000000000000000000000815260048101879052309073ffffffffffffffffffffffffffffffffffffffff7f00000000000000000000000000000000000000000000000000000000000000001690636352211e90602401602060405180830381865afa15801561041b573d6000803e3d6000fd5b505050506040513d601f19601f8201168201806040525081019061043f91906120de565b73ffffffffffffffffffffffffffffffffffffffff1603610509576040517f23b872dd00000000000000000000000000000000000000000000000000000000815230600482015273ffffffffffffffffffffffffffffffffffffffff8381166024830152604482018890527f000000000000000000000000000000000000000000000000000000000000000016906323b872dd90606401600060405180830381600087803b1580156104f057600080fd5b505af1158015610504573d6000803e3d6000fd5b505050505b6105138287610b23565b604051869073ffffffffffffffffffffffffffffffffffffffff8416907f6f6c6d78a4851d4c222c8404fc92372ee84b7b81054305ae8ea3c83c2dabd42e90600090a3507f150b7a0200000000000000000000000000000000000000000000000000000000979650505050505050565b61058c33610678565b61059581610815565b61059e60018055565b60405133907fd2c4fe7e5a558f9b1b406ce6cd257540e044fe92fa299597ed9656533c6a8c8d90600090a250565b60008282426040516020016105e3939291906120fb565b6040516020818303038152906040528051906020012060015414801561061e575073ffffffffffffffffffffffffffffffffffffffff841630145b610654576040517f38b760c500000000000000000000000000000000000000000000000000000000815260040160405180910390fd5b61066861066383850185611ead565b610815565b5060019998505050505050505050565b60006107c07f000000000000000000000000000000000000000000000000000000000000000073ffffffffffffffffffffffffffffffffffffffff1663ba8df43c6040518163ffffffff1660e01b8152600401602060405180830381865afa1580156106e8573d6000803e3d6000fd5b505050506040513d601f19601f8201168201806040525081019061070c91906120de565b6040805173ffffffffffffffffffffffffffffffffffffffff8616602082015201604051602081830303815290604052805190602001207f000000000000000000000000000000000000000000000000000000000000000060405160388101919091526f5af43d82803e903d91602b57fd5bf3ff60248201526014810192909252733d602d80600a3d3981f3363d3d373d3d3d363d73825260588201526037600c8201206078820152605560439091012090565b905073ffffffffffffffffffffffffffffffffffffffff81163014610811576040517f52df424e00000000000000000000000000000000000000000000000000000000815260040160405180910390fd5b5050565b805160005b81811015610b1e57600083828151811061083657610836612152565b6020026020010151905060006060826060015160ff166000036108e157826000015173ffffffffffffffffffffffffffffffffffffffff16836040015184602001516040516108859190612181565b60006040518083038185875af1925050503d80600081146108c2576040519150601f19603f3d011682016040523d82523d6000602084013e6108c7565b606091505b509092509050816108dc576108dc8482610f54565b610b10565b826060015160ff1660010361097b57826000015173ffffffffffffffffffffffffffffffffffffffff16836020015160405161091d9190612181565b600060405180830381855af49150503d8060008114610958576040519150601f19603f3d011682016040523d82523d6000602084013e61095d565b606091505b50909250905061096c60018055565b816108dc576108dc8482610f54565b826060015160ff16600203610a9057602083015160048101805190916109a991810160249081019101612248565b506040519094506109c39350849250429150602001612360565b604080517fffffffffffffffffffffffffffffffffffffffffffffffffffffffffffffffe081840301815282825280516020918201206001558651918701519087015173ffffffffffffffffffffffffffffffffffffffff909216929091610a2a91612181565b60006040518083038185875af1925050503d8060008114610a67576040519150601f19603f3d011682016040523d82523d6000602084013e610a6c565b606091505b50909350915082610a8157610a818583610f54565b610a8a60018055565b50610b10565b610a9984610f77565b604051602001610aa99190612382565b604080517fffffffffffffffffffffffffffffffffffffffffffffffffffffffffffffffe0818403018152908290527f08c379a0000000000000000000000000000000000000000000000000000000008252610b0791600401612070565b60405180910390fd5b83600101935050505061081a565b505050565b60007f000000000000000000000000000000000000000000000000000000000000000073ffffffffffffffffffffffffffffffffffffffff1663b5c736e4610b6c600385611035565b6040518263ffffffff1660e01b8152600401610b8a91815260200190565b602060405180830381865afa158015610ba7573d6000803e3d6000fd5b505050506040513d601f19601f82011682018060405250810190610bcb91906123c3565b6040517fe6bd26a200000000000000000000000000000000000000000000000000000000815260c082901c63ffffffff16600482015290915060009073ffffffffffffffffffffffffffffffffffffffff7f0000000000000000000000000000000000000000000000000000000000000000169063e6bd26a290602401602060405180830381865afa158015610c65573d6000803e3d6000fd5b505050506040513d601f19601f82011682018060405250810190610c8991906120de565b905060008173ffffffffffffffffffffffffffffffffffffffff1663b7791bf26040518163ffffffff1660e01b81526004016101a060405180830381865afa158015610cd9573d6000803e3d6000fd5b505050506040513d601f19601f82011682018060405250810190610cfd91906123e7565b905073eeeeeeeeeeeeeeeeeeeeeeeeeeeeeeeeeeeeeeee73ffffffffffffffffffffffffffffffffffffffff16816080015173ffffffffffffffffffffffffffffffffffffffff1603610d6157478015610d5b57610d5b8682611064565b50610e26565b60808101516040517f70a0823100000000000000000000000000000000000000000000000000000000815230600482015260009173ffffffffffffffffffffffffffffffffffffffff16906370a0823190602401602060405180830381865afa158015610dd2573d6000803e3d6000fd5b505050506040513d601f19601f82011682018060405250810190610df691906123c3565b90508015610e24576080820151610e249073ffffffffffffffffffffffffffffffffffffffff1687836111be565b505b73eeeeeeeeeeeeeeeeeeeeeeeeeeeeeeeeeeeeeeee73ffffffffffffffffffffffffffffffffffffffff168160a0015173ffffffffffffffffffffffffffffffffffffffff1603610e8857478015610e8257610e828682611064565b50610f4d565b60a08101516040517f70a0823100000000000000000000000000000000000000000000000000000000815230600482015260009173ffffffffffffffffffffffffffffffffffffffff16906370a0823190602401602060405180830381865afa158015610ef9573d6000803e3d6000fd5b505050506040513d601f19601f82011682018060405250810190610f1d91906123c3565b90508015610f4b5760a0820151610f4b9073ffffffffffffffffffffffffffffffffffffffff1687836111be565b505b5050505050565b610f5d82610f77565b610f668261124b565b604051602001610aa99291906124c4565b60606000610f84836116c0565b600101905060008167ffffffffffffffff811115610fa457610fa4611c02565b6040519080825280601f01601f191660200182016040528015610fce576020820181803683370190505b5090508181016020015b7fffffffffffffffffffffffffffffffffffffffffffffffffffffffffffffffff017f3031323334353637383961626364656600000000000000000000000000000000600a86061a8153600a8504945084610fd857509392505050565b604080516020808201849052818301859052825180830384018152606090920190925280519101205b92915050565b804710156110ce576040517f08c379a000000000000000000000000000000000000000000000000000000000815260206004820152601d60248201527f416464726573733a20696e73756666696369656e742062616c616e63650000006044820152606401610b07565b60008273ffffffffffffffffffffffffffffffffffffffff168260405160006040518083038185875af1925050503d8060008114611128576040519150601f19603f3d011682016040523d82523d6000602084013e61112d565b606091505b5050905080610b1e576040517f08c379a000000000000000000000000000000000000000000000000000000000815260206004820152603a60248201527f416464726573733a20756e61626c6520746f2073656e642076616c75652c207260448201527f6563697069656e74206d617920686176652072657665727465640000000000006064820152608401610b07565b6040805173ffffffffffffffffffffffffffffffffffffffff8416602482015260448082018490528251808303909101815260649091019091526020810180517bffffffffffffffffffffffffffffffffffffffffffffffffffffffff167fa9059cbb00000000000000000000000000000000000000000000000000000000179052610b1e9084906117a2565b606060048251101561129057505060408051808201909152601381527f5f524541534f4e5f4e4f545f444546494e454400000000000000000000000000602082015290565b60208201517fb1b7848f000000000000000000000000000000000000000000000000000000007fffffffff0000000000000000000000000000000000000000000000000000000082160161141c5760408051600280825281830190925260009160208201818036833701905050905061133a601085600187516113139190612551565b8151811061132357611323612152565b0160200151611335919060f81c612564565b6118ae565b8160008151811061134d5761134d612152565b60200101907effffffffffffffffffffffffffffffffffffffffffffffffffffffffffffff1916908160001a9053506113b2601085600187516113909190612551565b815181106113a0576113a0612152565b0160200151611335919060f81c612586565b816001815181106113c5576113c5612152565b60200101907effffffffffffffffffffffffffffffffffffffffffffffffffffffffffffff1916908160001a9053508060405160200161140591906125a8565b6040516020818303038152906040529250506115e0565b7ff73c8660000000000000000000000000000000000000000000000000000000007fffffffff000000000000000000000000000000000000000000000000000000008216016114a5576004830192508280602001905181019061147f91906125ed565b60405160200161148f9190612636565b60405160208183030381529060405291506115e0565b60408051600880825281830190925260009160208201818036833701905050905060005b60048110156115bb576114fd60108483600481106114e9576114e9612152565b1a816114f7576114f76124f3565b046118ae565b82826002028151811061151257611512612152565b60200101907effffffffffffffffffffffffffffffffffffffffffffffffffffffffffffff1916908160001a90535061156c601084836004811061155857611558612152565b1a81611566576115666124f3565b066118ae565b82826002026001018151811061158457611584612152565b60200101907effffffffffffffffffffffffffffffffffffffffffffffffffffffffffffff1916908160001a9053506001016114c9565b50806040516020016115cd919061267b565b6040516020818303038152906040529250505b60fa825111156116ba578160006115f960fa60016126c0565b905060008167ffffffffffffffff81111561161657611616611c02565b6040519080825280601f01601f191660200182016040528015611640576020820181803683370190505b50905060005b828110156116b45783818151811061166057611660612152565b602001015160f81c60f81b82828151811061167d5761167d612152565b60200101907effffffffffffffffffffffffffffffffffffffffffffffffffffffffffffff1916908160001a905350600101611646565b50935050505b50919050565b6000807a184f03e93ff9f4daa797ed6e38ed64bf6a1f0100000000000000008310611709577a184f03e93ff9f4daa797ed6e38ed64bf6a1f010000000000000000830492506040015b6d04ee2d6d415b85acef81000000008310611735576d04ee2d6d415b85acef8100000000830492506020015b662386f26fc10000831061175357662386f26fc10000830492506010015b6305f5e100831061176b576305f5e100830492506008015b612710831061177f57612710830492506004015b60648310611791576064830492506002015b600a831061105e5760010192915050565b6000611804826040518060400160405280602081526020017f5361666545524332303a206c6f772d6c6576656c2063616c6c206661696c65648152508573ffffffffffffffffffffffffffffffffffffffff1661190e9092919063ffffffff16565b805190915015610b1e578080602001905181019061182291906126d3565b610b1e576040517f08c379a000000000000000000000000000000000000000000000000000000000815260206004820152602a60248201527f5361666545524332303a204552433230206f7065726174696f6e20646964206e60448201527f6f742073756363656564000000000000000000000000000000000000000000006064820152608401610b07565b6000600a8260ff1610156118c6575060300160f81b90565b60108260ff1610156118dc575060570160f81b90565b6040517fb0b8d61a00000000000000000000000000000000000000000000000000000000815260040160405180910390fd5b606061191d8484600085611927565b90505b9392505050565b6060824710156119b9576040517f08c379a000000000000000000000000000000000000000000000000000000000815260206004820152602660248201527f416464726573733a20696e73756666696369656e742062616c616e636520666f60448201527f722063616c6c00000000000000000000000000000000000000000000000000006064820152608401610b07565b6000808673ffffffffffffffffffffffffffffffffffffffff1685876040516119e29190612181565b60006040518083038185875af1925050503d8060008114611a1f576040519150601f19603f3d011682016040523d82523d6000602084013e611a24565b606091505b5091509150611a3587838387611a42565b925050505b949350505050565b60608315611ad8578251600003611ad15773ffffffffffffffffffffffffffffffffffffffff85163b611ad1576040517f08c379a000000000000000000000000000000000000000000000000000000000815260206004820152601d60248201527f416464726573733a2063616c6c20746f206e6f6e2d636f6e74726163740000006044820152606401610b07565b5081611a3a565b611a3a8383815115611aed5781518083602001fd5b806040517f08c379a0000000000000000000000000000000000000000000000000000000008152600401610b079190612070565b73ffffffffffffffffffffffffffffffffffffffff81168114611b4357600080fd5b50565b60008083601f840112611b5857600080fd5b50813567ffffffffffffffff811115611b7057600080fd5b602083019150836020828501011115611b8857600080fd5b9250929050565b600080600080600060808688031215611ba757600080fd5b8535611bb281611b21565b94506020860135611bc281611b21565b935060408601359250606086013567ffffffffffffffff811115611be557600080fd5b611bf188828901611b46565b969995985093965092949392505050565b7f4e487b7100000000000000000000000000000000000000000000000000000000600052604160045260246000fd5b6040516080810167ffffffffffffffff81118282101715611c5457611c54611c02565b60405290565b6040516101a0810167ffffffffffffffff81118282101715611c5457611c54611c02565b604051601f82017fffffffffffffffffffffffffffffffffffffffffffffffffffffffffffffffe016810167ffffffffffffffff81118282101715611cc557611cc5611c02565b604052919050565b600067ffffffffffffffff821115611ce757611ce7611c02565b5060051b60200190565b600067ffffffffffffffff821115611d0b57611d0b611c02565b50601f017fffffffffffffffffffffffffffffffffffffffffffffffffffffffffffffffe01660200190565b60ff81168114611b4357600080fd5b8035611d5181611d37565b919050565b600082601f830112611d6757600080fd5b81356020611d7c611d7783611ccd565b611c7e565b82815260059290921b84018101918181019086841115611d9b57600080fd5b8286015b84811015611ea257803567ffffffffffffffff80821115611dc05760008081fd5b81890191506080807fffffffffffffffffffffffffffffffffffffffffffffffffffffffffffffffe0848d03011215611df95760008081fd5b611e01611c31565b87840135611e0e81611b21565b815260408481013584811115611e245760008081fd5b85019350603f84018d13611e385760008081fd5b88840135611e48611d7782611cf1565b8181528e83838801011115611e5d5760008081fd5b818387018c83013760008b8383010152808b850152505060609350838501358183015250611e8c828501611d46565b9281019290925250845250918301918301611d9f565b509695505050505050565b600060208284031215611ebf57600080fd5b813567ffffffffffffffff811115611ed657600080fd5b611a3a84828501611d56565b60008083601f840112611ef457600080fd5b50813567ffffffffffffffff811115611f0c57600080fd5b6020830191508360208260051b8501011115611b8857600080fd5b600080600080600080600080600060a08a8c031215611f4557600080fd5b893567ffffffffffffffff80821115611f5d57600080fd5b611f698d838e01611ee2565b909b50995060208c0135915080821115611f8257600080fd5b611f8e8d838e01611ee2565b909950975060408c0135915080821115611fa757600080fd5b611fb38d838e01611ee2565b909750955060608c01359150611fc882611b21565b90935060808b01359080821115611fde57600080fd5b50611feb8c828d01611b46565b915080935050809150509295985092959850929598565b60005b8381101561201d578181015183820152602001612005565b50506000910152565b6000815180845261203e816020860160208601612002565b601f017fffffffffffffffffffffffffffffffffffffffffffffffffffffffffffffffe0169290920160200192915050565b6020815260006119206020830184612026565b6000806040838503121561209657600080fd5b82356120a181611b21565b9150602083013567ffffffffffffffff8111156120bd57600080fd5b6120c985828601611d56565b9150509250929050565b8051611d5181611b21565b6000602082840312156120f057600080fd5b815161192081611b21565b6040815282604082015282846060830137600060608483010152600060607fffffffffffffffffffffffffffffffffffffffffffffffffffffffffffffffe0601f8601168301019050826020830152949350505050565b7f4e487b7100000000000000000000000000000000000000000000000000000000600052603260045260246000fd5b60008251612193818460208701612002565b9190910192915050565b600082601f8301126121ae57600080fd5b815160206121be611d7783611ccd565b82815260059290921b840181019181810190868411156121dd57600080fd5b8286015b84811015611ea257805183529183019183016121e1565b6000612206611d7784611cf1565b905082815283838301111561221a57600080fd5b611920836020830184612002565b600082601f83011261223957600080fd5b611920838351602085016121f8565b600080600080600060a0868803121561226057600080fd5b855167ffffffffffffffff8082111561227857600080fd5b818801915088601f83011261228c57600080fd5b8151602061229c611d7783611ccd565b82815260059290921b8401810191818101908c8411156122bb57600080fd5b948201945b838610156122e25785516122d381611b21565b825294820194908201906122c0565b918b01519199509093505050808211156122fb57600080fd5b61230789838a0161219d565b955060408801519450606088015191508082111561232457600080fd5b61233089838a01612228565b9350608088015191508082111561234657600080fd5b5061235388828901612228565b9150509295509295909350565b6040815260006123736040830185612026565b90508260208301529392505050565b60008251612394818460208701612002565b7f5f464c5549445f5f494e56414c49445f49445f4f525f4f5045524154494f4e00920191825250601f01919050565b6000602082840312156123d557600080fd5b5051919050565b8051611d5181611d37565b60006101a082840312156123fa57600080fd5b612402611c5a565b61240b836120d3565b8152612419602084016120d3565b602082015261242a604084016120d3565b604082015261243b606084016120d3565b606082015261244c608084016120d3565b608082015261245d60a084016120d3565b60a082015261246e60c084016123dc565b60c082015261247f60e084016123dc565b60e08201526101008381015190820152610120808401519082015261014080840151908201526101608084015190820152610180928301519281019290925250919050565b600083516124d6818460208801612002565b8351908301906124ea818360208801612002565b01949350505050565b7f4e487b7100000000000000000000000000000000000000000000000000000000600052601260045260246000fd5b7f4e487b7100000000000000000000000000000000000000000000000000000000600052601160045260246000fd5b8181038181111561105e5761105e612522565b600060ff831680612577576125776124f3565b8060ff84160491505092915050565b600060ff831680612599576125996124f3565b8060ff84160691505092915050565b7f5f5441524745545f50414e49434b45443a2030780000000000000000000000008152600082516125e0816014850160208701612002565b9190910160140192915050565b6000602082840312156125ff57600080fd5b815167ffffffffffffffff81111561261657600080fd5b8201601f8101841361262757600080fd5b611a3a848251602084016121f8565b7f5f0000000000000000000000000000000000000000000000000000000000000081526000825161266e816001850160208701612002565b9190910160010192915050565b7f5f435553544f4d5f4552524f523a2030780000000000000000000000000000008152600082516126b3816011850160208701612002565b9190910160110192915050565b8082018082111561105e5761105e612522565b6000602082840312156126e557600080fd5b8151801515811461192057600080fdfea264697066735822122097aafa9c697baa1a7f32f3965bc1e87dcabcf1b611f5ec941cd1124dadee748664736f6c63430008150033",
  "devdoc": {
    "kind": "dev",
    "methods": {
      "executeOperation(address[],uint256[],uint256[],address,bytes)": {
        "params": {
          "data_": "data bytes containing the `abi.encoded()` actions that are executed like in `CastParams.actions`",
          "initiator_": "flashloan initiator -> must be this contract"
        }
      },
      "onERC721Received(address,address,uint256,bytes)": {
        "details": "ERC721 callback used Fluid Vault Factory and executes actions encoded in `data_`                         Caller should be Fluid Wallet Factory.",
        "params": {
          "data_": "data bytes containing the `abi.encoded()` actions that are executed like in `Action[]` & `owner`",
          "from_": "from_ previous owner of the given token ID",
          "operator_": "operator_ caller to transfer the the given token ID",
          "tokenId_": "tokenId_ id of the ERC721"
        }
      }
    },
    "version": 1
  },
  "userdoc": {
    "kind": "user",
    "methods": {},
    "version": 1
  },
  "storageLayout": {
    "storage": [
      {
        "astId": 42679,
        "contract": "contracts/periphery/wallet/wallet/main.sol:FluidWalletImplementation",
        "label": "owner",
        "offset": 0,
        "slot": "0",
        "type": "t_address"
      },
      {
        "astId": 42682,
        "contract": "contracts/periphery/wallet/wallet/main.sol:FluidWalletImplementation",
        "label": "_transientAllowHash",
        "offset": 0,
        "slot": "1",
        "type": "t_bytes32"
      }
    ],
    "types": {
      "t_address": {
        "encoding": "inplace",
        "label": "address",
        "numberOfBytes": "20"
      },
      "t_bytes32": {
        "encoding": "inplace",
        "label": "bytes32",
        "numberOfBytes": "32"
      }
    }
  }
}