{
  "address": "0x598E96793Ec3e9f67Cb91C932AF7113768d46BA1",
  "abi": [
    {
      "inputs": [
        {
          "internalType": "string",
          "name": "infoName_",
          "type": "string"
        },
        {
          "components": [
            {
              "internalType": "uint8",
              "name": "mainSource",
              "type": "uint8"
            },
            {
              "components": [
                {
                  "internalType": "uint8",
                  "name": "hops",
                  "type": "uint8"
                },
                {
                  "components": [
                    {
                      "internalType": "contract IChainlinkAggregatorV3",
                      "name": "feed",
                      "type": "address"
                    },
                    {
                      "internalType": "bool",
                      "name": "invertRate",
                      "type": "bool"
                    },
                    {
                      "internalType": "uint256",
                      "name": "token0Decimals",
                      "type": "uint256"
                    }
                  ],
                  "internalType": "struct ChainlinkStructs.ChainlinkFeedData",
                  "name": "feed1",
                  "type": "tuple"
                },
                {
                  "components": [
                    {
                      "internalType": "contract IChainlinkAggregatorV3",
                      "name": "feed",
                      "type": "address"
                    },
                    {
                      "internalType": "bool",
                      "name": "invertRate",
                      "type": "bool"
                    },
                    {
                      "internalType": "uint256",
                      "name": "token0Decimals",
                      "type": "uint256"
                    }
                  ],
                  "internalType": "struct ChainlinkStructs.ChainlinkFeedData",
                  "name": "feed2",
                  "type": "tuple"
                },
                {
                  "components": [
                    {
                      "internalType": "contract IChainlinkAggregatorV3",
                      "name": "feed",
                      "type": "address"
                    },
                    {
                      "internalType": "bool",
                      "name": "invertRate",
                      "type": "bool"
                    },
                    {
                      "internalType": "uint256",
                      "name": "token0Decimals",
                      "type": "uint256"
                    }
                  ],
                  "internalType": "struct ChainlinkStructs.ChainlinkFeedData",
                  "name": "feed3",
                  "type": "tuple"
                }
              ],
              "internalType": "struct ChainlinkStructs.ChainlinkConstructorParams",
              "name": "chainlinkParams",
              "type": "tuple"
            },
            {
              "components": [
                {
                  "internalType": "contract IRedstoneOracle",
                  "name": "oracle",
                  "type": "address"
                },
                {
                  "internalType": "bool",
                  "name": "invertRate",
                  "type": "bool"
                },
                {
                  "internalType": "uint256",
                  "name": "token0Decimals",
                  "type": "uint256"
                }
              ],
              "internalType": "struct RedstoneStructs.RedstoneOracleData",
              "name": "redstoneOracle",
              "type": "tuple"
            }
          ],
          "internalType": "struct FallbackCLRSOracleL2.CLRSConstructorParams",
          "name": "cLRSParams_",
          "type": "tuple"
        },
        {
          "internalType": "address",
          "name": "sequencerUptimeFeed_",
          "type": "address"
        }
      ],
      "stateMutability": "nonpayable",
      "type": "constructor"
    },
    {
      "inputs": [
        {
          "internalType": "uint256",
          "name": "errorId_",
          "type": "uint256"
        }
      ],
      "name": "FluidOracleError",
      "type": "error"
    },
    {
      "inputs": [],
      "name": "FALLBACK_ORACLE_MAIN_SOURCE",
      "outputs": [
        {
          "internalType": "uint8",
          "name": "",
          "type": "uint8"
        }
      ],
      "stateMutability": "view",
      "type": "function"
    },
    {
      "inputs": [],
      "name": "chainlinkOracleData",
      "outputs": [
        {
          "internalType": "uint256",
          "name": "chainlinkExchangeRate_",
          "type": "uint256"
        },
        {
          "internalType": "contract IChainlinkAggregatorV3",
          "name": "chainlinkFeed1_",
          "type": "address"
        },
        {
          "internalType": "bool",
          "name": "chainlinkInvertRate1_",
          "type": "bool"
        },
        {
          "internalType": "uint256",
          "name": "chainlinkExchangeRate1_",
          "type": "uint256"
        },
        {
          "internalType": "contract IChainlinkAggregatorV3",
          "name": "chainlinkFeed2_",
          "type": "address"
        },
        {
          "internalType": "bool",
          "name": "chainlinkInvertRate2_",
          "type": "bool"
        },
        {
          "internalType": "uint256",
          "name": "chainlinkExchangeRate2_",
          "type": "uint256"
        },
        {
          "internalType": "contract IChainlinkAggregatorV3",
          "name": "chainlinkFeed3_",
          "type": "address"
        },
        {
          "internalType": "bool",
          "name": "chainlinkInvertRate3_",
          "type": "bool"
        },
        {
          "internalType": "uint256",
          "name": "chainlinkExchangeRate3_",
          "type": "uint256"
        }
      ],
      "stateMutability": "view",
      "type": "function"
    },
    {
      "inputs": [],
      "name": "getExchangeRate",
      "outputs": [
        {
          "internalType": "uint256",
          "name": "exchangeRate_",
          "type": "uint256"
        }
      ],
      "stateMutability": "view",
      "type": "function"
    },
    {
      "inputs": [],
      "name": "getExchangeRateLiquidate",
      "outputs": [
        {
          "internalType": "uint256",
          "name": "exchangeRate_",
          "type": "uint256"
        }
      ],
      "stateMutability": "view",
      "type": "function"
    },
    {
      "inputs": [],
      "name": "getExchangeRateOperate",
      "outputs": [
        {
          "internalType": "uint256",
          "name": "exchangeRate_",
          "type": "uint256"
        }
      ],
      "stateMutability": "view",
      "type": "function"
    },
    {
      "inputs": [],
      "name": "infoName",
      "outputs": [
        {
          "internalType": "string",
          "name": "",
          "type": "string"
        }
      ],
      "stateMutability": "view",
      "type": "function"
    },
    {
      "inputs": [],
      "name": "redstoneOracleData",
      "outputs": [
        {
          "internalType": "uint256",
          "name": "redstoneExchangeRate_",
          "type": "uint256"
        },
        {
          "internalType": "contract IRedstoneOracle",
          "name": "redstoneOracle_",
          "type": "address"
        },
        {
          "internalType": "bool",
          "name": "redstoneInvertRate_",
          "type": "bool"
        }
      ],
      "stateMutability": "view",
      "type": "function"
    },
    {
      "inputs": [],
      "name": "sequencerL2Data",
      "outputs": [
        {
          "internalType": "address",
          "name": "sequencerUptimeFeed_",
          "type": "address"
        },
        {
          "internalType": "uint256",
          "name": "maxGracePeriod_",
          "type": "uint256"
        },
        {
          "internalType": "bool",
          "name": "isSequencerUp_",
          "type": "bool"
        },
        {
          "internalType": "uint256",
          "name": "lastUptimeStartedAt_",
          "type": "uint256"
        },
        {
          "internalType": "uint256",
          "name": "gracePeriod_",
          "type": "uint256"
        },
        {
          "internalType": "bool",
          "name": "gracePeriodPassed_",
          "type": "bool"
        },
        {
          "internalType": "uint256",
          "name": "lastOutageStartedAt_",
          "type": "uint256"
        },
        {
          "internalType": "bool",
          "name": "isSequencerUpAndValid_",
          "type": "bool"
        }
      ],
      "stateMutability": "view",
      "type": "function"
    }
  ],
  "transactionHash": "0xbac2436afccca2ee60f4ecedcf5b6575c0ee119436046cfe852e620dcdd2d97a",
  "args": [
    "USDC for 1 WSTETH",
    {
      "mainSource": 1,
      "chainlinkParams": {
        "hops": 3,
        "feed1": {
          "feed": "0x43a5C292A453A3bF3606fa856197f09D7B74251a",
          "invertRate": false,
          "token0Decimals": 18
        },
        "feed2": {
          "feed": "0x71041dddad3595F9CEd3DcCFBe3D1F4b0a16Bb70",
          "invertRate": false,
          "token0Decimals": 18
        },
        "feed3": {
          "feed": "0x7e860098F58bBFC8648a4311b374B1D669a2bc6B",
          "invertRate": true,
          "token0Decimals": 6
        }
      },
      "redstoneOracle": {
        "oracle": "0x0000000000000000000000000000000000000000",
        "invertRate": false,
        "token0Decimals": 0
      }
    },
    "0xBCF85224fc0756B9Fa45aA7892530B47e10b6433"
  ],
  "numDeployments": 1,
  "solcInputHash": "2c40e6431b2e3779a8bfea46ef10ae0e",
  "bytecode": "0x6102e060405261dead610120523480156200001957600080fd5b5060405162001f9738038062001f978339810160408190526200003c916200067e565b828260000151836020015184604001518282828160006001600160a01b031682600001516001600160a01b031614620000765781620000a2565b6040518060600160405280610120516001600160a01b0316815260200160001515815260200160018152505b600080546001600160a01b0319166001600160a01b038c161790558851899060201080620000cf57508051155b15620000f75760405163c82fc46560e01b815261ea6a60048201526024015b60405180910390fd5b6020015160805280516001600160a01b031615806200011857506040810151155b156200013c5760405163c82fc46560e01b815261fa016004820152602401620000ee565b80516001600160a01b0390811660a0526020820151151560c05261012051825182169116146200018b5760408101516200017890601b62000772565b6200018590600a6200088b565b6200018e565b60015b60e0526101205181516001600160a01b03908116911614620001cf576040810151620001bc90601b620008a0565b620001c990600a6200088b565b620001d2565b60015b61010052508051600160ff9091161080620001f457506003816000015160ff16115b806200021d57506020810151516001600160a01b031615806200021d5750602081015160400151155b806200025857506001816000015160ff161180156200025857506040810151516001600160a01b031615806200025857506040808201510151155b806200029457506002816000015160ff161180156200029457506060810151516001600160a01b03161580620002945750606081015160400151155b15620002b85760405163c82fc46560e01b815261ee496004820152602401620000ee565b60208082018051516001600160a01b039081166101405260408085018051518316610160526060860180515190931661018052835185015115156101a0525184015115156101c05290519092015115156101e0525101516200031c90601b62000772565b6200032990600a6200088b565b610200526020810151604001516200034390601b620008a0565b6200035090600a6200088b565b610220528051600160ff909116116200036b5760016200038d565b60408082015101516200038090601b62000772565b6200038d90600a6200088b565b610240528051600160ff90911611620003a8576001620003ca565b6040808201510151620003bd90601b620008a0565b620003ca90600a6200088b565b610260528051600260ff90911611620003e557600162000408565b606081015160400151620003fb90601b62000772565b6200040890600a6200088b565b610280528051600260ff909116116200042357600162000446565b6060810151604001516200043990601b620008a0565b6200044690600a6200088b565b6102a05250600160ff8416108062000461575060038360ff16115b15620004855760405163c82fc46560e01b815261fde96004820152602401620000ee565b505060ff166102c05250620008b695505050505050565b634e487b7160e01b600052604160045260246000fd5b604051606081016001600160401b0381118282101715620004d757620004d76200049c565b60405290565b604051601f8201601f191681016001600160401b03811182821017156200050857620005086200049c565b604052919050565b805160ff811681146200052257600080fd5b919050565b6001600160a01b03811681146200053d57600080fd5b50565b6000606082840312156200055357600080fd5b6200055d620004b2565b905081516200056c8162000527565b8152602082015180151581146200058257600080fd5b806020830152506040820151604082015292915050565b60008183036101c0811215620005ae57600080fd5b620005b8620004b2565b9150620005c58362000510565b8252610140601f1982011215620005db57600080fd5b50604051608081016001600160401b03811182821017156200060157620006016200049c565b604052620006126020840162000510565b815262000623846040850162000540565b6020820152620006378460a0850162000540565b60408201526200064c84610100850162000540565b606082015260208201526200066683610160840162000540565b604082015292915050565b8051620005228162000527565b600080600061020084860312156200069557600080fd5b83516001600160401b0380821115620006ad57600080fd5b818601915086601f830112620006c257600080fd5b815181811115620006d757620006d76200049c565b60209150620006ef601f8201601f19168301620004dd565b81815288838386010111156200070457600080fd5b60005b828110156200072457848101840151828201850152830162000707565b5060008383830101528096505050620007408782880162000599565b93505050620007536101e0850162000671565b90509250925092565b634e487b7160e01b600052601160045260246000fd5b818103818111156200078857620007886200075c565b92915050565b600181815b80851115620007cf578160001904821115620007b357620007b36200075c565b80851615620007c157918102915b93841c939080029062000793565b509250929050565b600082620007e85750600162000788565b81620007f75750600062000788565b81600181146200081057600281146200081b576200083b565b600191505062000788565b60ff8411156200082f576200082f6200075c565b50506001821b62000788565b5060208310610133831016604e8410600b841016171562000860575081810a62000788565b6200086c83836200078e565b80600019048211156200088357620008836200075c565b029392505050565b6000620008998383620007d7565b9392505050565b808201808211156200078857620007886200075c565b60805160a05160c05160e05161010051610120516101405161016051610180516101a0516101c0516101e05161020051610220516102405161026051610280516102a0516102c05161154d62000a4a600039600081816094015281816110de01526111170152600081816104a40152610ac30152600081816104830152610aa20152600081816103b201526109cc01526000818161039101526109ab0152600081816102c801526108e90152600081816102a701526108c8015260008181610401015281816104620152610a8101526000818161030f01528181610370015261098a0152600081816102410152818161028601526108a70152600081816103e00152818161044101528181610a100152610a600152600081816102ee0152818161034f015281816109190152610969015260008181610220015281816102650152610886015260006104f701526000610c9901526000610cc801526000818161059e0152610c6f01526000818161052e0152818161057b0152610bc00152600081816105ec01526106b1015261154d6000f3fe608060405234801561001057600080fd5b50600436106100885760003560e01c8063abd5f95d1161005b578063abd5f95d14610186578063dc4595121461019b578063e6aa216c146101ff578063f3190c891461017057600080fd5b80633437eac41461008d5780637557ca41146100c357806388c35209146101365780638e7bfbc014610170575b600080fd5b60405160ff7f00000000000000000000000000000000000000000000000000000000000000001681526020015b60405180910390f35b6100cb610207565b604080519a8b5273ffffffffffffffffffffffffffffffffffffffff998a1660208c0152971515978a01979097526060890195909552928616608088015290151560a087015260c086015290921660e0840152901515610100830152610120820152610140016100ba565b61013e6104f0565b6040805193845273ffffffffffffffffffffffffffffffffffffffff90921660208401521515908201526060016100ba565b6101786105c3565b6040519081526020016100ba565b61018e6105da565b6040516100ba919061117e565b6101a361073f565b6040805173ffffffffffffffffffffffffffffffffffffffff909916895260208901979097529415159587019590955260608601929092526080850152151560a084015260c0830191909152151560e0820152610100016100ba565b610178610875565b60008060008060008060008060008061021e61087f565b7f00000000000000000000000000000000000000000000000000000000000000007f00000000000000000000000000000000000000000000000000000000000000006102ec7f00000000000000000000000000000000000000000000000000000000000000007f00000000000000000000000000000000000000000000000000000000000000007f00000000000000000000000000000000000000000000000000000000000000007f0000000000000000000000000000000000000000000000000000000000000000610afb565b7f00000000000000000000000000000000000000000000000000000000000000007f000000000000000000000000000000000000000000000000000000000000000073ffffffffffffffffffffffffffffffffffffffff8216156103db576103d67f00000000000000000000000000000000000000000000000000000000000000007f00000000000000000000000000000000000000000000000000000000000000007f00000000000000000000000000000000000000000000000000000000000000007f0000000000000000000000000000000000000000000000000000000000000000610afb565b6103de565b60005b7f00000000000000000000000000000000000000000000000000000000000000007f000000000000000000000000000000000000000000000000000000000000000073ffffffffffffffffffffffffffffffffffffffff8216156104cd576104c87f00000000000000000000000000000000000000000000000000000000000000007f00000000000000000000000000000000000000000000000000000000000000007f00000000000000000000000000000000000000000000000000000000000000007f0000000000000000000000000000000000000000000000000000000000000000610afb565b6104d0565b60005b995099509950995099509950995099509950995090919293949596979899565b60008060007f000000000000000000000000000000000000000000000000000000000000000073ffffffffffffffffffffffffffffffffffffffff167f000000000000000000000000000000000000000000000000000000000000000073ffffffffffffffffffffffffffffffffffffffff161461057557610570610bbc565b610578565b60005b937f000000000000000000000000000000000000000000000000000000000000000093507f000000000000000000000000000000000000000000000000000000000000000092509050565b60006105cd610cf0565b6105d5610d94565b905090565b606060005b60208110801561064557507f0000000000000000000000000000000000000000000000000000000000000000816020811061061c5761061c6111ea565b1a60f81b7fff000000000000000000000000000000000000000000000000000000000000001615155b1561065c578061065481611248565b9150506105df565b60008167ffffffffffffffff81111561067757610677611280565b6040519080825280601f01601f1916602001820160405280156106a1576020820181803683370190505b50905060005b82811015610738577f000000000000000000000000000000000000000000000000000000000000000081602081106106e1576106e16111ea565b1a60f81b8282815181106106f7576106f76111ea565b60200101907effffffffffffffffffffffffffffffffffffffffffffffffffffffffffffff1916908160001a9053508061073081611248565b9150506106a7565b5092915050565b6000806000806000806000806000610755610de1565b919850909650905086156107795761076d8187610f8e565b9196509450925061082f565b610a8c945060008060009054906101000a900473ffffffffffffffffffffffffffffffffffffffff1673ffffffffffffffffffffffffffffffffffffffff1663feaf968c6040518163ffffffff1660e01b815260040160a060405180830381865afa1580156107ec573d6000803e3d6000fd5b505050506040513d601f19601f8201168201806040525081019061081091906112ce565b50505050905061082b816001610826919061131e565b610ff8565b9350505b60005473ffffffffffffffffffffffffffffffffffffffff16610a8c888888888884801561085a57508a5b98509850985098509850985098509850509091929394959697565b60006105d56105c3565b600061090d7f00000000000000000000000000000000000000000000000000000000000000007f00000000000000000000000000000000000000000000000000000000000000007f00000000000000000000000000000000000000000000000000000000000000007f0000000000000000000000000000000000000000000000000000000000000000610afb565b905080158061095057507f000000000000000000000000000000000000000000000000000000000000000073ffffffffffffffffffffffffffffffffffffffff16155b156109585790565b610964601b600a611463565b6109f07f00000000000000000000000000000000000000000000000000000000000000007f00000000000000000000000000000000000000000000000000000000000000007f00000000000000000000000000000000000000000000000000000000000000007f0000000000000000000000000000000000000000000000000000000000000000610afb565b6109fa9083611476565b610a04919061148d565b9050801580610a4757507f000000000000000000000000000000000000000000000000000000000000000073ffffffffffffffffffffffffffffffffffffffff16155b15610a4f5790565b610a5b601b600a611463565b610ae77f00000000000000000000000000000000000000000000000000000000000000007f00000000000000000000000000000000000000000000000000000000000000007f00000000000000000000000000000000000000000000000000000000000000007f0000000000000000000000000000000000000000000000000000000000000000610afb565b610af19083611476565b6105d5919061148d565b60008473ffffffffffffffffffffffffffffffffffffffff1663feaf968c6040518163ffffffff1660e01b815260040160a060405180830381865afa925050508015610b82575060408051601f3d9081017fffffffffffffffffffffffffffffffffffffffffffffffffffffffffffffffe0168201909252610b7f918101906112ce565b60015b610b8e57506000610bb4565b8815610baa57610b9e848861148d565b95505050505050610bb4565b610b9e8885611476565b949350505050565b60007f000000000000000000000000000000000000000000000000000000000000000073ffffffffffffffffffffffffffffffffffffffff1663e6aa216c6040518163ffffffff1660e01b8152600401602060405180830381865afa925050508015610c63575060408051601f3d9081017fffffffffffffffffffffffffffffffffffffffffffffffffffffffffffffffe0168201909252610c60918101906114c8565b60015b610c6d5750600090565b7f000000000000000000000000000000000000000000000000000000000000000015610cc357610cbd817f000000000000000000000000000000000000000000000000000000000000000061148d565b91505090565b610cbd7f000000000000000000000000000000000000000000000000000000000000000082611476565b90565b6000806000610cfd610de1565b92509250925082610d43576040517fc82fc46500000000000000000000000000000000000000000000000000000000815261ea6060048201526024015b60405180910390fd5b6000610d4f8383610f8e565b5091505080610d8e576040517fc82fc46500000000000000000000000000000000000000000000000000000000815261ea606004820152602401610d3a565b50505050565b6000610d9e6110d9565b5090506000819003610ced576040517fc82fc465000000000000000000000000000000000000000000000000000000008152620101d16004820152602401610d3a565b60008060008060008060008054906101000a900473ffffffffffffffffffffffffffffffffffffffff1673ffffffffffffffffffffffffffffffffffffffff1663feaf968c6040518163ffffffff1660e01b815260040160a060405180830381865afa158015610e55573d6000803e3d6000fd5b505050506040513d601f19601f82011682018060405250810190610e7991906112ce565b505092509250925081600014610e99575060009586955085945092505050565b600195508294508093506000841115610f86575b60005473ffffffffffffffffffffffffffffffffffffffff16639a6fc8f5610ed66001866114e1565b6040517fffffffff0000000000000000000000000000000000000000000000000000000060e084901b16815269ffffffffffffffffffff909116600482015260240160a060405180830381865afa158015610f35573d6000803e3d6000fd5b505050506040513d601f19601f82011682018060405250810190610f5991906112ce565b509295509093509150506000829003610f73578294508093505b81158015610f815750600081115b610ead575b505050909192565b6000808080610f9d8542611504565b9050841580610fad5750610a8c81115b15610fc557610a8c6001600093509350935050610ff1565b610fce86610ff8565b9150610fda8286611504565b9350610a8c841115610fec57610a8c93505b831091505b9250925092565b60008181805b60005473ffffffffffffffffffffffffffffffffffffffff16639a6fc8f56110276001866114e1565b6040517fffffffff0000000000000000000000000000000000000000000000000000000060e084901b16815269ffffffffffffffffffff909116600482015260240160a060405180830381865afa158015611086573d6000803e3d6000fd5b505050506040513d601f19601f820116820180604052508101906110aa91906112ce565b5092955090935091505081156110be578093505b81158015906110cd5750600081115b610ffe57505050919050565b6000807f000000000000000000000000000000000000000000000000000000000000000060ff166001036111155761110f61087f565b91509091565b7f000000000000000000000000000000000000000000000000000000000000000060ff166002036111615761114861087f565b91508160000361115d5750600161110f610bbc565b9091565b611169610bbc565b91508160000361115d5750600161110f61087f565b600060208083528351808285015260005b818110156111ab5785810183015185820160400152820161118f565b5060006040828601015260407fffffffffffffffffffffffffffffffffffffffffffffffffffffffffffffffe0601f8301168501019250505092915050565b7f4e487b7100000000000000000000000000000000000000000000000000000000600052603260045260246000fd5b7f4e487b7100000000000000000000000000000000000000000000000000000000600052601160045260246000fd5b60007fffffffffffffffffffffffffffffffffffffffffffffffffffffffffffffffff820361127957611279611219565b5060010190565b7f4e487b7100000000000000000000000000000000000000000000000000000000600052604160045260246000fd5b805169ffffffffffffffffffff811681146112c957600080fd5b919050565b600080600080600060a086880312156112e657600080fd5b6112ef866112af565b9450602086015193506040860151925060608601519150611312608087016112af565b90509295509295909350565b69ffffffffffffffffffff81811683821601908082111561073857610738611219565b600181815b8085111561139a57817fffffffffffffffffffffffffffffffffffffffffffffffffffffffffffffffff0482111561138057611380611219565b8085161561138d57918102915b93841c9390800290611346565b509250929050565b6000826113b15750600161145d565b816113be5750600061145d565b81600181146113d457600281146113de576113fa565b600191505061145d565b60ff8411156113ef576113ef611219565b50506001821b61145d565b5060208310610133831016604e8410600b841016171561141d575081810a61145d565b6114278383611341565b807fffffffffffffffffffffffffffffffffffffffffffffffffffffffffffffffff0482111561145957611459611219565b0290505b92915050565b600061146f83836113a2565b9392505050565b808202811582820484141761145d5761145d611219565b6000826114c3577f4e487b7100000000000000000000000000000000000000000000000000000000600052601260045260246000fd5b500490565b6000602082840312156114da57600080fd5b5051919050565b69ffffffffffffffffffff82811682821603908082111561073857610738611219565b8181038181111561145d5761145d61121956fea264697066735822122071bdc748b3a1602f54e50e8ca6dc1e8c6e7d14851531f400be2ebbd1fdf7b41c64736f6c63430008150033",
  "devdoc": {
    "kind": "dev",
    "methods": {
      "constructor": {
        "params": {
          "cLRSParams_": "CLRS Fallback Oracle data",
          "infoName_": "Oracle identify helper name.",
          "sequencerUptimeFeed_": "L2 sequencer uptime Chainlink feed"
        }
      },
      "getExchangeRate()": {
        "details": "Deprecated. Use `getExchangeRateOperate()` and `getExchangeRateLiquidate()` instead. Only implemented for      backwards compatibility."
      }
    },
    "title": "Chainlink / Redstone Oracle (with fallback) for Layer 2 (with sequencer outage detection)",
    "version": 1
  },
  "userdoc": {
    "kind": "user",
    "methods": {
      "FALLBACK_ORACLE_MAIN_SOURCE()": {
        "notice": "which oracle to use as main source:          - 1 = Chainlink ONLY (no fallback)          - 2 = Chainlink with Redstone Fallback          - 3 = Redstone with Chainlink Fallback"
      },
      "chainlinkOracleData()": {
        "notice": "returns all Chainlink oracle related data as utility for easy off-chain use / block explorer in a single view method"
      },
      "constructor": {
        "notice": "sets the main source, Chainlink Oracle and Redstone Oracle data."
      },
      "getExchangeRateLiquidate()": {
        "notice": "Get the `exchangeRate_` between the underlying asset and the peg asset in 1e27 for liquidations"
      },
      "getExchangeRateOperate()": {
        "notice": "Get the `exchangeRate_` between the underlying asset and the peg asset in 1e27 for operates"
      },
      "infoName()": {
        "notice": "helper string to easily identify the oracle. E.g. token symbols"
      },
      "redstoneOracleData()": {
        "notice": "returns all Redstone oracle related data as utility for easy off-chain use / block explorer in a single view method"
      },
      "sequencerL2Data()": {
        "notice": "returns all sequencer uptime feed related data"
      }
    },
    "notice": "Gets the exchange rate between the underlying asset and the peg asset by using:          the price from a Chainlink price feed or a Redstone Oracle with one of them being used as main source and          the other one acting as a fallback if the main source fails for any reason. Reverts if fetched rate is 0.",
    "version": 1
  },
  "storageLayout": {
    "storage": [
      {
        "astId": 21293,
        "contract": "contracts/oracle/oraclesL2/fallbackCLRSOracleL2.sol:FallbackCLRSOracleL2",
        "label": "_SEQUENCER_ORACLE",
        "offset": 0,
        "slot": "0",
        "type": "t_contract(IChainlinkAggregatorV3)25062"
      }
    ],
    "types": {
      "t_contract(IChainlinkAggregatorV3)25062": {
        "encoding": "inplace",
        "label": "contract IChainlinkAggregatorV3",
        "numberOfBytes": "20"
      }
    }
  }
}