{
  "address": "0x82A5C21553845d04b3378de9FBEe91D0bCE1e3E5",
  "abi": [
    {
      "inputs": [
        {
          "components": [
            {
              "internalType": "string",
              "name": "infoName",
              "type": "string"
            },
            {
              "internalType": "uint8",
              "name": "targetDecimals",
              "type": "uint8"
            },
            {
              "internalType": "address",
              "name": "dexPool",
              "type": "address"
            },
            {
              "internalType": "bool",
              "name": "quoteInToken0",
              "type": "bool"
            },
            {
              "components": [
                {
                  "internalType": "uint8",
                  "name": "hops",
                  "type": "uint8"
                },
                {
                  "components": [
                    {
                      "internalType": "contract IChainlinkAggregatorV3",
                      "name": "feed",
                      "type": "address"
                    },
                    {
                      "internalType": "bool",
                      "name": "invertRate",
                      "type": "bool"
                    },
                    {
                      "internalType": "uint256",
                      "name": "token0Decimals",
                      "type": "uint256"
                    }
                  ],
                  "internalType": "struct ChainlinkStructs.ChainlinkFeedData",
                  "name": "feed1",
                  "type": "tuple"
                },
                {
                  "components": [
                    {
                      "internalType": "contract IChainlinkAggregatorV3",
                      "name": "feed",
                      "type": "address"
                    },
                    {
                      "internalType": "bool",
                      "name": "invertRate",
                      "type": "bool"
                    },
                    {
                      "internalType": "uint256",
                      "name": "token0Decimals",
                      "type": "uint256"
                    }
                  ],
                  "internalType": "struct ChainlinkStructs.ChainlinkFeedData",
                  "name": "feed2",
                  "type": "tuple"
                },
                {
                  "components": [
                    {
                      "internalType": "contract IChainlinkAggregatorV3",
                      "name": "feed",
                      "type": "address"
                    },
                    {
                      "internalType": "bool",
                      "name": "invertRate",
                      "type": "bool"
                    },
                    {
                      "internalType": "uint256",
                      "name": "token0Decimals",
                      "type": "uint256"
                    }
                  ],
                  "internalType": "struct ChainlinkStructs.ChainlinkFeedData",
                  "name": "feed3",
                  "type": "tuple"
                }
              ],
              "internalType": "struct ChainlinkStructs.ChainlinkConstructorParams",
              "name": "reservesConversion",
              "type": "tuple"
            },
            {
              "internalType": "uint256",
              "name": "reservesConversionPriceMultiplier",
              "type": "uint256"
            },
            {
              "internalType": "uint256",
              "name": "reservesConversionPriceDivisor",
              "type": "uint256"
            },
            {
              "internalType": "uint256",
              "name": "resultMultiplier",
              "type": "uint256"
            },
            {
              "internalType": "uint256",
              "name": "resultDivisor",
              "type": "uint256"
            }
          ],
          "internalType": "struct DexSmartT4CLOracle.DexSmartT4CLOracleParams",
          "name": "params_",
          "type": "tuple"
        },
        {
          "internalType": "address",
          "name": "sequencerUptimeFeed_",
          "type": "address"
        }
      ],
      "stateMutability": "nonpayable",
      "type": "constructor"
    },
    {
      "inputs": [
        {
          "internalType": "uint256",
          "name": "errorId_",
          "type": "uint256"
        }
      ],
      "name": "FluidLiquidityCalcsError",
      "type": "error"
    },
    {
      "inputs": [
        {
          "internalType": "uint256",
          "name": "errorId_",
          "type": "uint256"
        }
      ],
      "name": "FluidOracleError",
      "type": "error"
    },
    {
      "inputs": [],
      "name": "chainlinkOracleData",
      "outputs": [
        {
          "internalType": "uint256",
          "name": "chainlinkExchangeRate_",
          "type": "uint256"
        },
        {
          "internalType": "contract IChainlinkAggregatorV3",
          "name": "chainlinkFeed1_",
          "type": "address"
        },
        {
          "internalType": "bool",
          "name": "chainlinkInvertRate1_",
          "type": "bool"
        },
        {
          "internalType": "uint256",
          "name": "chainlinkExchangeRate1_",
          "type": "uint256"
        },
        {
          "internalType": "contract IChainlinkAggregatorV3",
          "name": "chainlinkFeed2_",
          "type": "address"
        },
        {
          "internalType": "bool",
          "name": "chainlinkInvertRate2_",
          "type": "bool"
        },
        {
          "internalType": "uint256",
          "name": "chainlinkExchangeRate2_",
          "type": "uint256"
        },
        {
          "internalType": "contract IChainlinkAggregatorV3",
          "name": "chainlinkFeed3_",
          "type": "address"
        },
        {
          "internalType": "bool",
          "name": "chainlinkInvertRate3_",
          "type": "bool"
        },
        {
          "internalType": "uint256",
          "name": "chainlinkExchangeRate3_",
          "type": "uint256"
        }
      ],
      "stateMutability": "view",
      "type": "function"
    },
    {
      "inputs": [],
      "name": "dexOracleData",
      "outputs": [
        {
          "internalType": "address",
          "name": "dexPool_",
          "type": "address"
        },
        {
          "internalType": "bool",
          "name": "quoteInToken0_",
          "type": "bool"
        },
        {
          "internalType": "address",
          "name": "liquidity_",
          "type": "address"
        },
        {
          "internalType": "uint256",
          "name": "resultMultiplier_",
          "type": "uint256"
        },
        {
          "internalType": "uint256",
          "name": "resultDivisor_",
          "type": "uint256"
        }
      ],
      "stateMutability": "view",
      "type": "function"
    },
    {
      "inputs": [],
      "name": "dexSmartColSharesRates",
      "outputs": [
        {
          "internalType": "uint256",
          "name": "operate_",
          "type": "uint256"
        },
        {
          "internalType": "uint256",
          "name": "liquidate_",
          "type": "uint256"
        }
      ],
      "stateMutability": "view",
      "type": "function"
    },
    {
      "inputs": [],
      "name": "dexSmartDebtSharesRates",
      "outputs": [
        {
          "internalType": "uint256",
          "name": "operate_",
          "type": "uint256"
        },
        {
          "internalType": "uint256",
          "name": "liquidate_",
          "type": "uint256"
        }
      ],
      "stateMutability": "view",
      "type": "function"
    },
    {
      "inputs": [],
      "name": "getDexConversionPriceFluidOracleData",
      "outputs": [
        {
          "internalType": "uint256",
          "name": "reservesConversionPriceMultiplier_",
          "type": "uint256"
        },
        {
          "internalType": "uint256",
          "name": "reservesConversionPriceDivisor_",
          "type": "uint256"
        }
      ],
      "stateMutability": "view",
      "type": "function"
    },
    {
      "inputs": [],
      "name": "getExchangeRate",
      "outputs": [
        {
          "internalType": "uint256",
          "name": "exchangeRate_",
          "type": "uint256"
        }
      ],
      "stateMutability": "view",
      "type": "function"
    },
    {
      "inputs": [],
      "name": "getExchangeRateLiquidate",
      "outputs": [
        {
          "internalType": "uint256",
          "name": "exchangeRate_",
          "type": "uint256"
        }
      ],
      "stateMutability": "view",
      "type": "function"
    },
    {
      "inputs": [],
      "name": "getExchangeRateOperate",
      "outputs": [
        {
          "internalType": "uint256",
          "name": "exchangeRate_",
          "type": "uint256"
        }
      ],
      "stateMutability": "view",
      "type": "function"
    },
    {
      "inputs": [],
      "name": "infoName",
      "outputs": [
        {
          "internalType": "string",
          "name": "",
          "type": "string"
        }
      ],
      "stateMutability": "view",
      "type": "function"
    },
    {
      "inputs": [],
      "name": "sequencerL2Data",
      "outputs": [
        {
          "internalType": "address",
          "name": "sequencerUptimeFeed_",
          "type": "address"
        },
        {
          "internalType": "uint256",
          "name": "maxGracePeriod_",
          "type": "uint256"
        },
        {
          "internalType": "bool",
          "name": "isSequencerUp_",
          "type": "bool"
        },
        {
          "internalType": "uint256",
          "name": "lastUptimeStartedAt_",
          "type": "uint256"
        },
        {
          "internalType": "uint256",
          "name": "gracePeriod_",
          "type": "uint256"
        },
        {
          "internalType": "bool",
          "name": "gracePeriodPassed_",
          "type": "bool"
        },
        {
          "internalType": "uint256",
          "name": "lastOutageStartedAt_",
          "type": "uint256"
        },
        {
          "internalType": "bool",
          "name": "isSequencerUpAndValid_",
          "type": "bool"
        }
      ],
      "stateMutability": "view",
      "type": "function"
    },
    {
      "inputs": [],
      "name": "targetDecimals",
      "outputs": [
        {
          "internalType": "uint8",
          "name": "",
          "type": "uint8"
        }
      ],
      "stateMutability": "view",
      "type": "function"
    }
  ],
  "transactionHash": "0xdc46ffa2f8ed426903f3eab5215b58f6ec6f440d0416ea187ab2fb350bfd4efb",
  "args": [
    [
      {
        "dexPool": "0x2886a01a0645390872a9eb99dAe1283664b0c524",
        "quoteInToken0": false,
        "infoName": "EURC/USDC dbtSh. per 1 colSh.",
        "targetDecimals": 27,
        "reservesConversion": {
          "hops": 2,
          "feed1": {
            "feed": "0xDAe398520e2B67cd3f27aeF9Cf14D93D927f8250",
            "invertRate": false,
            "token0Decimals": 6
          },
          "feed2": {
            "feed": "0x7e860098F58bBFC8648a4311b374B1D669a2bc6B",
            "invertRate": true,
            "token0Decimals": 6
          },
          "feed3": {
            "feed": "0x0000000000000000000000000000000000000000",
            "invertRate": false,
            "token0Decimals": 0
          }
        },
        "reservesConversionPriceMultiplier": 1,
        "reservesConversionPriceDivisor": 1,
        "resultMultiplier": 1,
        "resultDivisor": 1
      },
      "0xBCF85224fc0756B9Fa45aA7892530B47e10b6433"
    ]
  ],
  "numDeployments": 1,
  "linkedData": {
    "nonce": "31"
  },
  "bytecode": "0x6104a06040523480156200001257600080fd5b50604051620042de380380620042de8339810160408190526200003591620008e4565b818060400151816060015182608001518360a001518460c00151828585886000015189602001518b8b60e001518c6101000151816000146200007857816200007b565b60015b60805280156200008c57806200008f565b60015b60a05250506001600160a01b031660c052815160201080620000b057508151155b15620000d85760405163c82fc46560e01b815261ea6a60048201526024015b60405180910390fd5b600f8160ff161080620000ee575060278160ff16115b15620001125760405163c82fc46560e01b815261ebf16004820152602401620000cf565b60ff16610100526020015160e0526001600160a01b0382166200014d5760405163c82fc46560e01b815261ebdd6004820152602401620000cf565b6001600160a01b0382166101208190528115156101405260408051635bbc8df960e11b815290516000929163b7791bf2916004808301926102409291908290030181865afa158015620001a4573d6000803e3d6000fd5b505050506040513d601f19601f82011682018060405250810190620001ca919062000a91565b610160808201516101e052610180808301516102005260e0830151909152610120808301519091526101008201516101a0526101408201516101c0525160408051631595cbd360e01b815290519293506000926001600160a01b0390921691631595cbd3916004808201926080929091908290030181865afa15801562000255573d6000803e3d6000fd5b505050506040513d601f19601f820116820180604052508101906200027b919062000b87565b80516102205260208101516102405260408101516102605260600151610280525050610140519150620002e99050576102605161028051620002c39064e8d4a5100062000be6565b620002cf919062000c06565b620002e390670de0b6b3a764000062000c06565b62000322565b6102205161024051620003029064e8d4a5100062000be6565b6200030e919062000c06565b6200032290670de0b6b3a764000062000c06565b6102a052610140516200036e576102605161028051620003489064e8d4a5100062000be6565b62000354919062000c06565b6200036890670de0b6b3a764000062000c06565b620003a7565b6102205161024051620003879064e8d4a5100062000be6565b62000393919062000c06565b620003a790670de0b6b3a764000062000c06565b6102c0528051600160ff9091161080620003c857506003816000015160ff16115b80620003f157506020810151516001600160a01b03161580620003f15750602081015160400151155b806200042c57506001816000015160ff161180156200042c57506040810151516001600160a01b031615806200042c57506040808201510151155b806200046857506002816000015160ff161180156200046857506060810151516001600160a01b03161580620004685750606081015160400151155b156200048c5760405163c82fc46560e01b815261ee496004820152602401620000cf565b60208082018051516001600160a01b039081166102e05260408085018051518316610300526060860180515190931661032052835185015115156103405251840151151561036052905190920151151561038052510151620004f090601b62000c29565b620004fd90600a62000d3c565b6103a0526020810151604001516200051790601b62000d51565b6200052490600a62000d3c565b6103c0528051600160ff909116116200053f57600162000561565b60408082015101516200055490601b62000c29565b6200056190600a62000d3c565b6103e0528051600160ff909116116200057c5760016200059e565b60408082015101516200059190601b62000d51565b6200059e90600a62000d3c565b610400528051600260ff90911611620005b9576001620005dc565b606081015160400151620005cf90601b62000c29565b620005dc90600a62000d3c565b610420528051600260ff90911611620005f75760016200061a565b6060810151604001516200060d90601b62000d51565b6200061a90600a62000d3c565b61044052508115806200062b575080155b156200064f5760405163c82fc46560e01b815261ebdd6004820152602401620000cf565b61046091909152610480525062000d67945050505050565b634e487b7160e01b600052604160045260246000fd5b604051608081016001600160401b0381118282101715620006a257620006a262000667565b60405290565b60405161012081016001600160401b0381118282101715620006a257620006a262000667565b6040516101c081016001600160401b0381118282101715620006a257620006a262000667565b604051601f8201601f191681016001600160401b03811182821017156200071f576200071f62000667565b604052919050565b600082601f8301126200073957600080fd5b81516001600160401b0381111562000755576200075562000667565b60206200076b601f8301601f19168201620006f4565b82815285828487010111156200078057600080fd5b60005b83811015620007a057858101830151828201840152820162000783565b506000928101909101919091529392505050565b805160ff81168114620007c657600080fd5b919050565b6001600160a01b0381168114620007e157600080fd5b50565b8051620007c681620007cb565b80518015158114620007c657600080fd5b6000606082840312156200081557600080fd5b604051606081016001600160401b03811182821017156200083a576200083a62000667565b806040525080915082516200084f81620007cb565b81526200085f60208401620007f1565b6020820152604083015160408201525092915050565b600061014082840312156200088957600080fd5b620008936200067d565b9050620008a082620007b4565b8152620008b1836020840162000802565b6020820152620008c5836080840162000802565b6040820152620008d98360e0840162000802565b606082015292915050565b60008060408385031215620008f857600080fd5b82516001600160401b03808211156200091057600080fd5b9084019061024082870312156200092657600080fd5b62000930620006a8565b8251828111156200094057600080fd5b6200094e8882860162000727565b8252506200095f60208401620007b4565b60208201526200097260408401620007e4565b60408201526200098560608401620007f1565b606082015262000999876080850162000875565b60808201526101c083015160a08201526101e083015160c082015261020083015160e082015261022090920151610100830152509150620009dd60208401620007e4565b90509250929050565b600060a08284031215620009f957600080fd5b60405160a081016001600160401b038111828210171562000a1e5762000a1e62000667565b8060405250809150825162000a3381620007cb565b8152602083015162000a4581620007cb565b6020820152604083015162000a5a81620007cb565b6040820152606083015162000a6f81620007cb565b6060820152608083015162000a8481620007cb565b6080919091015292915050565b6000610240828403121562000aa557600080fd5b62000aaf620006ce565b8251815262000ac160208401620007e4565b602082015262000ad460408401620007e4565b604082015262000ae88460608501620009e6565b606082015261010062000afd818501620007e4565b608083015261012062000b12818601620007e4565b60a084015261014062000b27818701620007e4565b60c08501526101608087015160e086015261018080880151858701526101a0945084880151848701526101c0880151838701526101e088015182870152610200880151818701525050505061022084015181830152508091505092915050565b60006080828403121562000b9a57600080fd5b62000ba46200067d565b825181526020830151602082015260408301516040820152606083015160608201528091505092915050565b634e487b7160e01b600052601160045260246000fd5b808202811582820484141762000c005762000c0062000bd0565b92915050565b60008262000c2457634e487b7160e01b600052601260045260246000fd5b500490565b8181038181111562000c005762000c0062000bd0565b600181815b8085111562000c8057816000190482111562000c645762000c6462000bd0565b8085161562000c7257918102915b93841c939080029062000c44565b509250929050565b60008262000c995750600162000c00565b8162000ca85750600062000c00565b816001811462000cc1576002811462000ccc5762000cec565b600191505062000c00565b60ff84111562000ce05762000ce062000bd0565b50506001821b62000c00565b5060208310610133831016604e8410600b841016171562000d11575081810a62000c00565b62000d1d838362000c3f565b806000190482111562000d345762000d3462000bd0565b029392505050565b600062000d4a838362000c88565b9392505050565b8082018082111562000c005762000c0062000bd0565b60805160a05160c05160e05161010051610120516101405161016051610180516101a0516101c0516101e05161020051610220516102405161026051610280516102a0516102c0516102e05161030051610320516103405161036051610380516103a0516103c0516103e05161040051610420516104405161046051610480516132e862000ff66000396000818160f101526109c601526000818160d001526109e701526000818161065201526114e701526000818161063101526114c601526000818161056001526113f001526000818161053f01526113cf015260008181610476015261130d01526000818161045501526112ec0152600081816105af0152818161061001526114a50152600081816104bd0152818161051e01526113ae0152600081816103ef0152818161043401526112cb01526000818161058e015281816105ef01528181611434015261148401526000818161049c015281816104fd0152818161133d015261138d0152600081816103ce0152818161041301526112aa015260006118a6015260006112520152600081816125670152612a0e0152600081816125430152612a2f0152600081816124de0152612a650152600081816124ba0152612a860152600061108801526000610fc801526000612606015260006125d6015260006121e8015260006121b80152600081816101a3015261244401526000818161017f01528181610aeb01528181610ba00152818161117c015281816117d101528181611c740152611d8a0152600061013a01526000818161072801526107ed0152600081816108be0152818161096c015281816118ec015281816119c40152611b3301526000818161020d01526116db0152600081816101e7015261170e01526132e86000f3fe608060405234801561001057600080fd5b50600436106100c95760003560e01c80638e7bfbc011610081578063dc4595121161005b578063dc459512146102df578063e6aa216c14610343578063f3190c89146102ac57600080fd5b80638e7bfbc0146102ac57806396aa229c146102c2578063abd5f95d146102ca57600080fd5b806336c1387e116100b257806336c1387e14610133578063585eebbf146101645780637557ca411461023957600080fd5b806304741a5a146100ce578063287960581461012b575b600080fd5b7f00000000000000000000000000000000000000000000000000000000000000007f00000000000000000000000000000000000000000000000000000000000000005b604080519283526020830191909152015b60405180910390f35b61011161034b565b60405160ff7f0000000000000000000000000000000000000000000000000000000000000000168152602001610122565b6040805173ffffffffffffffffffffffffffffffffffffffff7f00000000000000000000000000000000000000000000000000000000000000001681527f0000000000000000000000000000000000000000000000000000000000000000151560208201527352aa899454998be5b000ad077a46bbe360f4e497918101919091527f000000000000000000000000000000000000000000000000000000000000000060608201527f0000000000000000000000000000000000000000000000000000000000000000608082015260a001610122565b6102416103b5565b604080519a8b5273ffffffffffffffffffffffffffffffffffffffff998a1660208c0152971515978a01979097526060890195909552928616608088015290151560a087015260c086015290921660e084015290151561010083015261012082015261014001610122565b6102b461069e565b604051908152602001610122565b6101116106b5565b6102d2610716565b6040516101229190612e05565b6102e761087b565b6040805173ffffffffffffffffffffffffffffffffffffffff909916895260208901979097529415159587019590955260608601929092526080850152151560a084015260c0830191909152151560e082015261010001610122565b6102b46109b8565b60008060006103586109c2565b905060008061036e83610369610a6a565b6110ec565b9150915061037d838383611136565b9450505050600061038c6109c2565b905060008061039d83610369610a6a565b915091506103ac838383611136565b93505050509091565b6000806000806000806000806000806103cc6112a3565b7f00000000000000000000000000000000000000000000000000000000000000007f000000000000000000000000000000000000000000000000000000000000000061049a7f00000000000000000000000000000000000000000000000000000000000000007f00000000000000000000000000000000000000000000000000000000000000007f00000000000000000000000000000000000000000000000000000000000000007f000000000000000000000000000000000000000000000000000000000000000061151f565b7f00000000000000000000000000000000000000000000000000000000000000007f000000000000000000000000000000000000000000000000000000000000000073ffffffffffffffffffffffffffffffffffffffff821615610589576105847f00000000000000000000000000000000000000000000000000000000000000007f00000000000000000000000000000000000000000000000000000000000000007f00000000000000000000000000000000000000000000000000000000000000007f000000000000000000000000000000000000000000000000000000000000000061151f565b61058c565b60005b7f00000000000000000000000000000000000000000000000000000000000000007f000000000000000000000000000000000000000000000000000000000000000073ffffffffffffffffffffffffffffffffffffffff82161561067b576106767f00000000000000000000000000000000000000000000000000000000000000007f00000000000000000000000000000000000000000000000000000000000000007f00000000000000000000000000000000000000000000000000000000000000007f000000000000000000000000000000000000000000000000000000000000000061151f565b61067e565b60005b995099509950995099509950995099509950995090919293949596979899565b60006106a86115e0565b6106b061167f565b905090565b60008060006106c26109c2565b90506000806106d8836106d3610a6a565b611756565b915091506106e783838361178c565b945050505060006106f66109c2565b9050600080610707836106d3610a6a565b915091506103ac83838361178c565b606060005b60208110801561078157507f0000000000000000000000000000000000000000000000000000000000000000816020811061075857610758612e71565b1a60f81b7fff000000000000000000000000000000000000000000000000000000000000001615155b15610798578061079081612ecf565b91505061071b565b60008167ffffffffffffffff8111156107b3576107b3612f07565b6040519080825280601f01601f1916602001820160405280156107dd576020820181803683370190505b50905060005b82811015610874577f0000000000000000000000000000000000000000000000000000000000000000816020811061081d5761081d612e71565b1a60f81b82828151811061083357610833612e71565b60200101907effffffffffffffffffffffffffffffffffffffffffffffffffffffffffffff1916908160001a9053508061086c81612ecf565b9150506107e3565b5092915050565b60008060008060008060008060006108916118e1565b919850909650905086156108b5576108a98187611aac565b9196509450925061096a565b610a8c945060007f000000000000000000000000000000000000000000000000000000000000000073ffffffffffffffffffffffffffffffffffffffff1663feaf968c6040518163ffffffff1660e01b815260040160a060405180830381865afa158015610927573d6000803e3d6000fd5b505050506040513d601f19601f8201168201806040525081019061094b9190612f55565b5050505090506109668160016109619190612fa5565b611b16565b9350505b7f0000000000000000000000000000000000000000000000000000000000000000610a8c88888888888d801561099d57508a5b98509850985098509850985098509850509091929394959697565b60006106b061069e565b60007f00000000000000000000000000000000000000000000000000000000000000007f0000000000000000000000000000000000000000000000000000000000000000610a0e6112a3565b610a189190612fc8565b610a229190613014565b905080600003610a67576040517fc82fc46500000000000000000000000000000000000000000000000000000000815261ebde60048201526024015b60405180910390fd5b90565b610ab96040518061012001604052806000815260200160008152602001600081526020016000815260200160008152602001600081526020016000815260200160008152602001600081525090565b6040517fb5c736e4000000000000000000000000000000000000000000000000000000008152600060048201819052907f000000000000000000000000000000000000000000000000000000000000000073ffffffffffffffffffffffffffffffffffffffff169063b5c736e490602401602060405180830381865afa158015610b47573d6000803e3d6000fd5b505050506040513d601f19601f82011682018060405250810190610b6b9190613028565b6040517fb5c736e4000000000000000000000000000000000000000000000000000000008152600160048201529091506000907f000000000000000000000000000000000000000000000000000000000000000073ffffffffffffffffffffffffffffffffffffffff169063b5c736e490602401602060405180830381865afa158015610bfc573d6000803e3d6000fd5b505050506040513d601f19601f82011682018060405250810190610c209190613028565b9050600060f882901c600116600003610c6257633fffffff607083901c16905080600003610c62575063ffffffff605983901c1660ff605184901c161b610d10565b6040517f08c379a000000000000000000000000000000000000000000000000000000000815260206004820152604d60248201527f507269636573416e6445786368616e67655072696365733a2063656e7465722060448201527f70726963652073686f756c64206e6f742062652070656767656420746f20657860648201527f7465726e616c20736f7572636500000000000000000000000000000000000000608482015260a401610a5e565b63ffffffff603184901c1660ff602985901c161b601b83901c620fffff90811690602f85901c166001601a86901c81169003610d5957610d51828287611c15565b965090925090505b81620f424003620f4240850281610d7257610d72612fe5565b049150620f42409081038402046000620fffff604487901c1615610e7857604486901c6103ff90811690604e88901c16605888901c62ffffff16600160438a901c81169003610dce57610dc6838383611d6f565b919450925090505b6103e888870384820302048801871115610e235760798a901c6401ffffffff16420381811015610e155781818a89030281610e0b57610e0b612fe5565b0489019850610e19565b8698505b6001945050610e74565b6103e885890383820302048803871015610e745760798a901c6401ffffffff16420381811015610e6a578181878b030281610e6057610e60612fe5565b0489039850610e6e565b8598505b60019450505b5050505b620fffff60b487901c1660ff60ac88901c161b80861115610e9f5780955060019150610ec3565b50620fffff60d087901c1660ff60c888901c161b80861015610ec357809550600191505b8115610f2c57620fffff601b88901c169350620fffff602f88901c169250601a87901c600116600103610f0357610efb848489611c15565b985090945092505b83620f424003620f4240870281610f1c57610f1c612fe5565b049350620f424083810387020492505b8489526020890186905260408901849052606089018390526f4b3b4ca85a86c47a098a224000000000841015610f7157610f67838502611ec6565b60808a0152610fa0565b610f90670de0b6b3a76400008404670de0b6b3a7640000860402611ec6565b670de0b6b3a76400000260808a01525b6040517fb5c736e40000000000000000000000000000000000000000000000000000000081527f00000000000000000000000000000000000000000000000000000000000000006004820152611056907352aa899454998be5b000ad077a46bbe360f4e4979063b5c736e4906024015b602060405180830381865afa15801561102d573d6000803e3d6000fd5b505050506040513d601f19601f820116820180604052508101906110519190613028565b611f78565b60c08b015260a08a01526040517fb5c736e40000000000000000000000000000000000000000000000000000000081527f000000000000000000000000000000000000000000000000000000000000000060048201526110d4907352aa899454998be5b000ad077a46bbe360f4e4979063b5c736e490602401611010565b6101008b015260e08a01525096979650505050505050565b60008060006111128460800151856040015186606001518760a001518860e00151612186565b905060006111218583886122c1565b80516020909101519097909650945050505050565b6040517fb5c736e40000000000000000000000000000000000000000000000000000000081526002600482015260009081906fffffffffffffffffffffffffffffffff907f000000000000000000000000000000000000000000000000000000000000000073ffffffffffffffffffffffffffffffffffffffff169063b5c736e490602401602060405180830381865afa1580156111d8573d6000803e3d6000fd5b505050506040513d601f19601f820116820180604052508101906111fc9190613028565b1690508060000361123d576040517fc82fc46500000000000000000000000000000000000000000000000000000000815261ebac6004820152602401610a5e565b600061124a868686612440565b9050816112777f000000000000000000000000000000000000000000000000000000000000000083612fc8565b61128d906b033b2e3c9fd0803ce8000000612fc8565b6112979190613014565b925050505b9392505050565b60006113317f00000000000000000000000000000000000000000000000000000000000000007f00000000000000000000000000000000000000000000000000000000000000007f00000000000000000000000000000000000000000000000000000000000000007f000000000000000000000000000000000000000000000000000000000000000061151f565b905080158061137457507f000000000000000000000000000000000000000000000000000000000000000073ffffffffffffffffffffffffffffffffffffffff16155b1561137c5790565b611388601b600a613161565b6114147f00000000000000000000000000000000000000000000000000000000000000007f00000000000000000000000000000000000000000000000000000000000000007f00000000000000000000000000000000000000000000000000000000000000007f000000000000000000000000000000000000000000000000000000000000000061151f565b61141e9083612fc8565b6114289190613014565b905080158061146b57507f000000000000000000000000000000000000000000000000000000000000000073ffffffffffffffffffffffffffffffffffffffff16155b156114735790565b61147f601b600a613161565b61150b7f00000000000000000000000000000000000000000000000000000000000000007f00000000000000000000000000000000000000000000000000000000000000007f00000000000000000000000000000000000000000000000000000000000000007f000000000000000000000000000000000000000000000000000000000000000061151f565b6115159083612fc8565b6106b09190613014565b60008473ffffffffffffffffffffffffffffffffffffffff1663feaf968c6040518163ffffffff1660e01b815260040160a060405180830381865afa9250505080156115a6575060408051601f3d9081017fffffffffffffffffffffffffffffffffffffffffffffffffffffffffffffffe01682019092526115a391810190612f55565b60015b6115b2575060006115d8565b88156115ce576115c28488613014565b955050505050506115d8565b6115c28885612fc8565b949350505050565b60008060006115ed6118e1565b9250925092508261162e576040517fc82fc46500000000000000000000000000000000000000000000000000000000815261ea606004820152602401610a5e565b600061163a8383611aac565b5091505080611679576040517fc82fc46500000000000000000000000000000000000000000000000000000000815261ea606004820152602401610a5e565b50505050565b60008061168a6109c2565b90506000611696610a6a565b90506000806116a584846110ec565b9150915060006116b6858484611136565b90506116c28585611756565b909350915060006116d486858561178c565b905061170c7f00000000000000000000000000000000000000000000000000000000000000006b033b2e3c9fd0803ce8000000612fc8565b7f00000000000000000000000000000000000000000000000000000000000000006117378484612fc8565b6117419190612fc8565b61174b9190613014565b965050505050505090565b600080600061177d8460800151856040015186606001518760c00151886101000151612596565b905060006111218583886126de565b6040517fb5c736e400000000000000000000000000000000000000000000000000000000815260048082015260009081906fffffffffffffffffffffffffffffffff907f000000000000000000000000000000000000000000000000000000000000000073ffffffffffffffffffffffffffffffffffffffff169063b5c736e490602401602060405180830381865afa15801561182d573d6000803e3d6000fd5b505050506040513d601f19601f820116820180604052508101906118519190613028565b16905080600003611892576040517fc82fc46500000000000000000000000000000000000000000000000000000000815261ebb66004820152602401610a5e565b600061189f868686612440565b90506118cb7f000000000000000000000000000000000000000000000000000000000000000082612fc8565b61128d836b033b2e3c9fd0803ce8000000612fc8565b6000806000806000807f000000000000000000000000000000000000000000000000000000000000000073ffffffffffffffffffffffffffffffffffffffff1663feaf968c6040518163ffffffff1660e01b815260040160a060405180830381865afa158015611955573d6000803e3d6000fd5b505050506040513d601f19601f820116820180604052508101906119799190612f55565b505092509250925081600014611999575060009586955085945092505050565b600195508294508093506000841115611aa4575b73ffffffffffffffffffffffffffffffffffffffff7f000000000000000000000000000000000000000000000000000000000000000016639a6fc8f56119f460018661316d565b6040517fffffffff0000000000000000000000000000000000000000000000000000000060e084901b16815269ffffffffffffffffffff909116600482015260240160a060405180830381865afa158015611a53573d6000803e3d6000fd5b505050506040513d601f19601f82011682018060405250810190611a779190612f55565b509295509093509150506000829003611a91578294508093505b81158015611a9f5750600081115b6119ad575b505050909192565b6000808080611abb8542613190565b9050841580611acb5750610a8c81115b15611ae357610a8c6001600093509350935050611b0f565b611aec86611b16565b9150611af88286613190565b9350610a8c841115611b0a57610a8c93505b831091505b9250925092565b60008181805b73ffffffffffffffffffffffffffffffffffffffff7f000000000000000000000000000000000000000000000000000000000000000016639a6fc8f5611b6360018661316d565b6040517fffffffff0000000000000000000000000000000000000000000000000000000060e084901b16815269ffffffffffffffffffff909116600482015260240160a060405180830381865afa158015611bc2573d6000803e3d6000fd5b505050506040513d601f19601f82011682018060405250810190611be69190612f55565b509295509093509150508115611bfa578093505b8115801590611c095750600081115b611b1c57505050919050565b6040517fb5c736e4000000000000000000000000000000000000000000000000000000008152600760048201526000908190819081906fffffffffffffffffffffffffffffffff9073ffffffffffffffffffffffffffffffffffffffff7f0000000000000000000000000000000000000000000000000000000000000000169063b5c736e490602401602060405180830381865afa158015611cbb573d6000803e3d6000fd5b505050506040513d601f19601f82011682018060405250810190611cdf9190613028565b169050620fffff80821690601483901c811690602884901c16603c84901c6401ffffffff1642611d0f83836131a3565b1015611d3257630400000019891698508a8a8a9750975097505050505050611d66565b6000611d3e8242613190565b9050611d4c8c8683866128c4565b611d588c8684876128c4565b8b9850985098505050505050505b93509350939050565b6000806000806fffffffffffffffffffffffffffffffff60807f000000000000000000000000000000000000000000000000000000000000000073ffffffffffffffffffffffffffffffffffffffff1663b5c736e4600760001b6040518263ffffffff1660e01b8152600401611de791815260200190565b602060405180830381865afa158015611e04573d6000803e3d6000fd5b505050506040513d601f19601f82011682018060405250810190611e289190613028565b901c169050620fffff80821690601483901c811690602884901c16603c84901c6401ffffffff16605d85901c62ffffff1642611e6484846131a3565b1015611e7e578b8b8b985098509850505050505050611d66565b6000611e8a8342613190565b9050611e988d8783876128c4565b611ea48d8784886128c4565b611eb08d8585896128c4565b9950995099505050505050505093509350939050565b60b581710100000000000000000000000000000000008110611eed5760409190911b9060801c5b69010000000000000000008110611f095760209190911b9060401c5b650100000000008110611f215760109190911b9060201c5b63010000008110611f375760089190911b9060101c5b62010000010260121c80820401600190811c80830401811c80830401811c80830401811c80830401811c80830401811c80830401901c908190048111900390565b67ffffffffffffffff605b82901c811690609b83901c16811580611f9a575080155b15611fd6576040517fd50d7512000000000000000000000000000000000000000000000000000000008152620111716004820152602401610a5e565b61ffff8316603a84901c6401ffffffff16428181039160ea87901c617fff16911480612000575082155b8061200b5750806001145b1561201857505050915091565b64496cebb80084840283020484019350617fff60db87901c1692508260010361204357505050915091565b826001166001036120985760019290921c91826c7e37be2022c0914b26800000008161207157612071612fe5565b049250612710601e87901c613fff166b033b2e3c9fd0803ce80000008501020492506120c5565b60019290921c916305f5e100601e87901c613fff166127108501026b033b2e3c9fd0803ce8000000020492505b806001166001036120fc5760011c61271081016b033b2e3c9fd0803ce80000008202816120f4576120f4612fe5565b049050612132565b60011c61271081016b033b2e3c9fd0803ce800000082028161212057612120612fe5565b046b033b2e3c9fd0803ce80000000390505b760a70c3c40a64e6c51999090b65f67d92400000000000008382026127100261ffff881691900402601087901c613fff16612710030292506801b5a660ea44b8000085840283020485019450505050915091565b6121b16040518060800160405280600081526020016000815260200160008152602001600081525090565b60006121df7f000000000000000000000000000000000000000000000000000000000000000085600161293d565b9050600061220f7f000000000000000000000000000000000000000000000000000000000000000085600061293d565b90506b033b2e3c9fd0803ce80000008810156122405761223188888484612abf565b60608501526040840152612297565b61228c61226489760a70c3c40a64e6c51999090b65f67d9240000000000000613014565b61228588760a70c3c40a64e6c51999090b65f67d9240000000000000613014565b8385612abf565b604085015260608401525b81835260208301819052604083018051909201909152606082018051909101905295945050505050565b6122ec6040518060800160405280600081526020016000815260200160008152602001600081525090565b6000836060015184604001516123029190612fc8565b905060008460000151856040015161231a9190613190565b90506000856020015186606001516123329190613190565b90506000808689604001511015612357578391506123508286613014565b905061240d565b868960600151111561237657508161236f8186613014565b915061240d565b74446c3b15f9926687d2c40534fdb5640000000000008510156123c3576123bc876123ad876b033b2e3c9fd0803ce8000000612fc8565b6123b79190613014565b611ec6565b91506123e9565b6123e66123d08887613014565b6123b7906b033b2e3c9fd0803ce8000000612fc8565b91505b6b033b2e3c9fd0803ce80000006124008389612fc8565b61240a9190613014565b90505b6124178483613190565b86526124238382613190565b602087015260408601919091526060850152509195945050505050565b60007f0000000000000000000000000000000000000000000000000000000000000000156125145761248984760a70c3c40a64e6c51999090b65f67d9240000000000000613014565b93506b033b2e3c9fd0803ce80000006124a28584612fc8565b6124ac9190613014565b6124b690846131a3565b90507f00000000000000000000000000000000000000000000000000000000000000006125037f000000000000000000000000000000000000000000000000000000000000000083612fc8565b61250d9190613014565b905061129c565b6b033b2e3c9fd0803ce800000061252b8585612fc8565b6125359190613014565b61253f90836131a3565b90507f000000000000000000000000000000000000000000000000000000000000000061258c7f000000000000000000000000000000000000000000000000000000000000000083612fc8565b6115d89190613014565b6125cf6040518060c001604052806000815260200160008152602001600081526020016000815260200160008152602001600081525090565b60006125fd7f000000000000000000000000000000000000000000000000000000000000000085600161293d565b9050600061262d7f000000000000000000000000000000000000000000000000000000000000000085600061293d565b8284526020840181905290506b033b2e3c9fd0803ce80000008810156126725761265988878484612bd6565b60a08701526080860152606085015260408401526126d3565b6126be61269689760a70c3c40a64e6c51999090b65f67d9240000000000000613014565b6126b789760a70c3c40a64e6c51999090b65f67d9240000000000000613014565b8385612bd6565b608087015260a0860152604085015260608401525b505095945050505050565b6127176040518060c001604052806000815260200160008152602001600081526020016000815260200160008152602001600081525090565b60008360a00151846080015161272d9190612fc8565b90506000846040015185608001516127459190613190565b9050600085606001518660a0015161275d9190613190565b905060008086896040015110156127825783915061277b8286613014565b9050612813565b86896060015111156127a157508161279a8186613014565b9150612813565b74446c3b15f9926687d2c40534fdb5640000000000008510156127df576127d8876123ad876b033b2e3c9fd0803ce8000000612fc8565b91506127ef565b6127ec6123d08887613014565b91505b6b033b2e3c9fd0803ce80000006128068389612fc8565b6128109190613014565b90505b61281d8483613190565b604087015261282c8382613190565b60608701526080860182905260a0808701829052880151604087015160009161285491612fc8565b9050600087604001518a6080015161286c9190613190565b90506128788183613014565b602089015260808a015160608901516128919190612fc8565b915087606001518a60a001516128a79190613190565b90506128b38183613014565b885250959998505050505050505050565b6000838511156129035760006128da8587613190565b9050826128e78583612fc8565b6128f19190613014565b6128fb90866131a3565b955050612934565b600061290f8686613190565b90508261291c8583612fc8565b6129269190613014565b6129309086613190565b9550505b50929392505050565b6040517fb5c736e40000000000000000000000000000000000000000000000000000000081526004810184905260009081907352aa899454998be5b000ad077a46bbe360f4e4979063b5c736e490602401602060405180830381865afa1580156129ab573d6000803e3d6000fd5b505050506040513d601f19601f820116820180604052508101906129cf9190613028565b905067ffffffffffffffff600182901c16915060ff8216600883901c901b915080600116600103612a075764e8d4a510008285020491505b82612a63577f00000000000000000000000000000000000000000000000000000000000000007f0000000000000000000000000000000000000000000000000000000000000000830281612a5d57612a5d612fe5565b04612ab6565b7f00000000000000000000000000000000000000000000000000000000000000007f0000000000000000000000000000000000000000000000000000000000000000830281612ab457612ab4612fe5565b045b95945050505050565b60008080612acd8787613190565b90506000612adc826002612fc8565b612af2866b033b2e3c9fd0803ce8000000612fc8565b612afc888b612fc8565b612b0691906131a3565b612b109190613014565b90506000612b1e8688612fc8565b905074446c3b15f9926687d2c40534fdb5640000000000008110612b6157612b468382613014565b612b5c906b033b2e3c9fd0803ce8000000612fc8565b612b82565b82612b78826b033b2e3c9fd0803ce8000000612fc8565b612b829190613014565b9050612b9b612b918380612fc8565b6123b790836131a3565b612ba590836131a3565b94506b033b2e3c9fd0803ce8000000612bbe8a87612fc8565b612bc89190613014565b935050505094509492505050565b6000808080806b06765c793fa10079d0000000612bff876b033b2e3c9fd0803ce8000000612fc8565b612c098b8a612fc8565b612c1391906131b6565b612c1d91906131d6565b90506000612c2b8789612fc8565b905074446c3b15f9926687d2c40534fdb5640000000000008110612c6f5788612c606b033b2e3c9fd0803ce800000083613014565b612c6a9190612fc8565b612c90565b6b033b2e3c9fd0803ce8000000612c868a83612fc8565b612c909190613014565b9050612c9f612b91838061323e565b612ca9908361328a565b9450612cb58989612fc8565b612ccb866b033b2e3c9fd0803ce8000000612fc8565b612cd59190613190565b9250620f4240831015612d44576040517f08c379a000000000000000000000000000000000000000000000000000000000815260206004820152601560248201527f4465627420726573657276657320746f6f206c6f7700000000000000000000006044820152606401610a5e565b6a084595161401484a000000851015612d895782612d628680612fc8565b612d78906b033b2e3c9fd0803ce8000000612fc8565b612d829190613014565b9250612db6565b612d9f6b033b2e3c9fd0803ce800000084613014565b612da98680612fc8565b612db39190613014565b92505b8785612dc28286612fc8565b612dcc9190613014565b612dd69190613190565b9350612de287846131a3565b612dec8886612fc8565b612df69190613014565b95505050945094509450949050565b600060208083528351808285015260005b81811015612e3257858101830151858201604001528201612e16565b5060006040828601015260407fffffffffffffffffffffffffffffffffffffffffffffffffffffffffffffffe0601f8301168501019250505092915050565b7f4e487b7100000000000000000000000000000000000000000000000000000000600052603260045260246000fd5b7f4e487b7100000000000000000000000000000000000000000000000000000000600052601160045260246000fd5b60007fffffffffffffffffffffffffffffffffffffffffffffffffffffffffffffffff8203612f0057612f00612ea0565b5060010190565b7f4e487b7100000000000000000000000000000000000000000000000000000000600052604160045260246000fd5b805169ffffffffffffffffffff81168114612f5057600080fd5b919050565b600080600080600060a08688031215612f6d57600080fd5b612f7686612f36565b9450602086015193506040860151925060608601519150612f9960808701612f36565b90509295509295909350565b69ffffffffffffffffffff81811683821601908082111561087457610874612ea0565b8082028115828204841417612fdf57612fdf612ea0565b92915050565b7f4e487b7100000000000000000000000000000000000000000000000000000000600052601260045260246000fd5b60008261302357613023612fe5565b500490565b60006020828403121561303a57600080fd5b5051919050565b600181815b8085111561309a57817fffffffffffffffffffffffffffffffffffffffffffffffffffffffffffffffff0482111561308057613080612ea0565b8085161561308d57918102915b93841c9390800290613046565b509250929050565b6000826130b157506001612fdf565b816130be57506000612fdf565b81600181146130d457600281146130de576130fa565b6001915050612fdf565b60ff8411156130ef576130ef612ea0565b50506001821b612fdf565b5060208310610133831016604e8410600b841016171561311d575081810a612fdf565b6131278383613041565b807fffffffffffffffffffffffffffffffffffffffffffffffffffffffffffffffff0482111561315957613159612ea0565b029392505050565b600061129c83836130a2565b69ffffffffffffffffffff82811682821603908082111561087457610874612ea0565b81810381811115612fdf57612fdf612ea0565b80820180821115612fdf57612fdf612ea0565b818103600083128015838313168383128216171561087457610874612ea0565b6000826131e5576131e5612fe5565b7fffffffffffffffffffffffffffffffffffffffffffffffffffffffffffffffff83147f80000000000000000000000000000000000000000000000000000000000000008314161561323957613239612ea0565b500590565b808202600082127f80000000000000000000000000000000000000000000000000000000000000008414161561327657613276612ea0565b8181058314821517612fdf57612fdf612ea0565b80820182811260008312801582168215821617156132aa576132aa612ea0565b50509291505056fea264697066735822122030b866ba6fb9e2ac3b75edb1307932ca6575ce885b9b6668fe7d7d54ce56042864736f6c63430008150033"
}