{
  "address": "0x98925Dd9e701c2C9F50125cF701b3bAD29dc5eb4",
  "abi": [
    {
      "inputs": [
        {
          "components": [
            {
              "internalType": "uint256",
              "name": "dexId",
              "type": "uint256"
            },
            {
              "internalType": "address",
              "name": "liquidity",
              "type": "address"
            },
            {
              "internalType": "address",
              "name": "factory",
              "type": "address"
            },
            {
              "components": [
                {
                  "internalType": "address",
                  "name": "shift",
                  "type": "address"
                },
                {
                  "internalType": "address",
                  "name": "admin",
                  "type": "address"
                },
                {
                  "internalType": "address",
                  "name": "colOperations",
                  "type": "address"
                },
                {
                  "internalType": "address",
                  "name": "debtOperations",
                  "type": "address"
                },
                {
                  "internalType": "address",
                  "name": "perfectOperationsAndSwapOut",
                  "type": "address"
                }
              ],
              "internalType": "struct Structs.Implementations",
              "name": "implementations",
              "type": "tuple"
            },
            {
              "internalType": "address",
              "name": "deployerContract",
              "type": "address"
            },
            {
              "internalType": "address",
              "name": "token0",
              "type": "address"
            },
            {
              "internalType": "address",
              "name": "token1",
              "type": "address"
            },
            {
              "internalType": "bytes32",
              "name": "supplyToken0Slot",
              "type": "bytes32"
            },
            {
              "internalType": "bytes32",
              "name": "borrowToken0Slot",
              "type": "bytes32"
            },
            {
              "internalType": "bytes32",
              "name": "supplyToken1Slot",
              "type": "bytes32"
            },
            {
              "internalType": "bytes32",
              "name": "borrowToken1Slot",
              "type": "bytes32"
            },
            {
              "internalType": "bytes32",
              "name": "exchangePriceToken0Slot",
              "type": "bytes32"
            },
            {
              "internalType": "bytes32",
              "name": "exchangePriceToken1Slot",
              "type": "bytes32"
            },
            {
              "internalType": "uint256",
              "name": "oracleMapping",
              "type": "uint256"
            }
          ],
          "internalType": "struct Structs.ConstantViews",
          "name": "constantViews_",
          "type": "tuple"
        }
      ],
      "stateMutability": "nonpayable",
      "type": "constructor"
    },
    {
      "inputs": [
        {
          "internalType": "uint256",
          "name": "errorId_",
          "type": "uint256"
        }
      ],
      "name": "FluidDexError",
      "type": "error"
    },
    {
      "inputs": [
        {
          "internalType": "uint256",
          "name": "errorId",
          "type": "uint256"
        }
      ],
      "name": "FluidDexFactoryError",
      "type": "error"
    },
    {
      "inputs": [
        {
          "internalType": "uint256",
          "name": "shares_",
          "type": "uint256"
        }
      ],
      "name": "FluidDexLiquidityOutput",
      "type": "error"
    },
    {
      "inputs": [
        {
          "internalType": "uint256",
          "name": "token0Amt",
          "type": "uint256"
        },
        {
          "internalType": "uint256",
          "name": "token1Amt",
          "type": "uint256"
        }
      ],
      "name": "FluidDexPerfectLiquidityOutput",
      "type": "error"
    },
    {
      "inputs": [
        {
          "components": [
            {
              "internalType": "uint256",
              "name": "lastStoredPrice",
              "type": "uint256"
            },
            {
              "internalType": "uint256",
              "name": "centerPrice",
              "type": "uint256"
            },
            {
              "internalType": "uint256",
              "name": "upperRange",
              "type": "uint256"
            },
            {
              "internalType": "uint256",
              "name": "lowerRange",
              "type": "uint256"
            },
            {
              "internalType": "uint256",
              "name": "geometricMean",
              "type": "uint256"
            },
            {
              "internalType": "uint256",
              "name": "supplyToken0ExchangePrice",
              "type": "uint256"
            },
            {
              "internalType": "uint256",
              "name": "borrowToken0ExchangePrice",
              "type": "uint256"
            },
            {
              "internalType": "uint256",
              "name": "supplyToken1ExchangePrice",
              "type": "uint256"
            },
            {
              "internalType": "uint256",
              "name": "borrowToken1ExchangePrice",
              "type": "uint256"
            }
          ],
          "internalType": "struct Structs.PricesAndExchangePrice",
          "name": "pex_",
          "type": "tuple"
        }
      ],
      "name": "FluidDexPricesAndExchangeRates",
      "type": "error"
    },
    {
      "inputs": [
        {
          "internalType": "uint256",
          "name": "tokenAmt",
          "type": "uint256"
        }
      ],
      "name": "FluidDexSingleTokenOutput",
      "type": "error"
    },
    {
      "inputs": [
        {
          "internalType": "uint256",
          "name": "amountOut",
          "type": "uint256"
        }
      ],
      "name": "FluidDexSwapResult",
      "type": "error"
    },
    {
      "inputs": [
        {
          "internalType": "uint256",
          "name": "errorId_",
          "type": "uint256"
        }
      ],
      "name": "FluidLiquidityCalcsError",
      "type": "error"
    },
    {
      "inputs": [
        {
          "internalType": "uint256",
          "name": "errorId_",
          "type": "uint256"
        }
      ],
      "name": "FluidSafeTransferError",
      "type": "error"
    },
    {
      "inputs": [
        {
          "internalType": "uint256",
          "name": "errorId_",
          "type": "uint256"
        }
      ],
      "name": "FluidSmartLendingError",
      "type": "error"
    },
    {
      "inputs": [
        {
          "internalType": "uint256",
          "name": "errorId_",
          "type": "uint256"
        }
      ],
      "name": "FluidSmartLendingFactoryError",
      "type": "error"
    },
    {
      "anonymous": false,
      "inputs": [
        {
          "indexed": false,
          "internalType": "int256",
          "name": "routing",
          "type": "int256"
        },
        {
          "indexed": false,
          "internalType": "uint256",
          "name": "amtOut",
          "type": "uint256"
        }
      ],
      "name": "LogArbitrage",
      "type": "event"
    },
    {
      "anonymous": false,
      "inputs": [
        {
          "indexed": false,
          "internalType": "uint256",
          "name": "amount0",
          "type": "uint256"
        },
        {
          "indexed": false,
          "internalType": "uint256",
          "name": "amount1",
          "type": "uint256"
        },
        {
          "indexed": false,
          "internalType": "uint256",
          "name": "shares",
          "type": "uint256"
        }
      ],
      "name": "LogBorrowDebtLiquidity",
      "type": "event"
    },
    {
      "anonymous": false,
      "inputs": [
        {
          "indexed": false,
          "internalType": "uint256",
          "name": "shares",
          "type": "uint256"
        },
        {
          "indexed": false,
          "internalType": "uint256",
          "name": "token0Amt",
          "type": "uint256"
        },
        {
          "indexed": false,
          "internalType": "uint256",
          "name": "token1Amt",
          "type": "uint256"
        }
      ],
      "name": "LogBorrowPerfectDebtLiquidity",
      "type": "event"
    },
    {
      "anonymous": false,
      "inputs": [
        {
          "indexed": false,
          "internalType": "uint256",
          "name": "amount0",
          "type": "uint256"
        },
        {
          "indexed": false,
          "internalType": "uint256",
          "name": "amount1",
          "type": "uint256"
        },
        {
          "indexed": false,
          "internalType": "uint256",
          "name": "shares",
          "type": "uint256"
        }
      ],
      "name": "LogDepositColLiquidity",
      "type": "event"
    },
    {
      "anonymous": false,
      "inputs": [
        {
          "indexed": false,
          "internalType": "uint256",
          "name": "shares",
          "type": "uint256"
        },
        {
          "indexed": false,
          "internalType": "uint256",
          "name": "token0Amt",
          "type": "uint256"
        },
        {
          "indexed": false,
          "internalType": "uint256",
          "name": "token1Amt",
          "type": "uint256"
        }
      ],
      "name": "LogDepositPerfectColLiquidity",
      "type": "event"
    },
    {
      "anonymous": false,
      "inputs": [
        {
          "indexed": false,
          "internalType": "uint256",
          "name": "shares",
          "type": "uint256"
        },
        {
          "indexed": false,
          "internalType": "uint256",
          "name": "token0Amt",
          "type": "uint256"
        },
        {
          "indexed": false,
          "internalType": "uint256",
          "name": "token1Amt",
          "type": "uint256"
        }
      ],
      "name": "LogPaybackDebtInOneToken",
      "type": "event"
    },
    {
      "anonymous": false,
      "inputs": [
        {
          "indexed": false,
          "internalType": "uint256",
          "name": "amount0",
          "type": "uint256"
        },
        {
          "indexed": false,
          "internalType": "uint256",
          "name": "amount1",
          "type": "uint256"
        },
        {
          "indexed": false,
          "internalType": "uint256",
          "name": "shares",
          "type": "uint256"
        }
      ],
      "name": "LogPaybackDebtLiquidity",
      "type": "event"
    },
    {
      "anonymous": false,
      "inputs": [
        {
          "indexed": false,
          "internalType": "uint256",
          "name": "shares",
          "type": "uint256"
        },
        {
          "indexed": false,
          "internalType": "uint256",
          "name": "token0Amt",
          "type": "uint256"
        },
        {
          "indexed": false,
          "internalType": "uint256",
          "name": "token1Amt",
          "type": "uint256"
        }
      ],
      "name": "LogPaybackPerfectDebtLiquidity",
      "type": "event"
    },
    {
      "anonymous": false,
      "inputs": [
        {
          "indexed": false,
          "internalType": "uint256",
          "name": "shares",
          "type": "uint256"
        },
        {
          "indexed": false,
          "internalType": "uint256",
          "name": "token0Amt",
          "type": "uint256"
        },
        {
          "indexed": false,
          "internalType": "uint256",
          "name": "token1Amt",
          "type": "uint256"
        }
      ],
      "name": "LogWithdrawColInOneToken",
      "type": "event"
    },
    {
      "anonymous": false,
      "inputs": [
        {
          "indexed": false,
          "internalType": "uint256",
          "name": "amount0",
          "type": "uint256"
        },
        {
          "indexed": false,
          "internalType": "uint256",
          "name": "amount1",
          "type": "uint256"
        },
        {
          "indexed": false,
          "internalType": "uint256",
          "name": "shares",
          "type": "uint256"
        }
      ],
      "name": "LogWithdrawColLiquidity",
      "type": "event"
    },
    {
      "anonymous": false,
      "inputs": [
        {
          "indexed": false,
          "internalType": "uint256",
          "name": "shares",
          "type": "uint256"
        },
        {
          "indexed": false,
          "internalType": "uint256",
          "name": "token0Amt",
          "type": "uint256"
        },
        {
          "indexed": false,
          "internalType": "uint256",
          "name": "token1Amt",
          "type": "uint256"
        }
      ],
      "name": "LogWithdrawPerfectColLiquidity",
      "type": "event"
    },
    {
      "anonymous": false,
      "inputs": [
        {
          "indexed": false,
          "internalType": "bool",
          "name": "swap0to1",
          "type": "bool"
        },
        {
          "indexed": false,
          "internalType": "uint256",
          "name": "amountIn",
          "type": "uint256"
        },
        {
          "indexed": false,
          "internalType": "uint256",
          "name": "amountOut",
          "type": "uint256"
        },
        {
          "indexed": false,
          "internalType": "address",
          "name": "to",
          "type": "address"
        }
      ],
      "name": "Swap",
      "type": "event"
    },
    {
      "inputs": [],
      "name": "DEX_ID",
      "outputs": [
        {
          "internalType": "uint256",
          "name": "",
          "type": "uint256"
        }
      ],
      "stateMutability": "view",
      "type": "function"
    },
    {
      "inputs": [
        {
          "internalType": "uint256",
          "name": "token0Amt_",
          "type": "uint256"
        },
        {
          "internalType": "uint256",
          "name": "token1Amt_",
          "type": "uint256"
        },
        {
          "internalType": "uint256",
          "name": "maxSharesAmt_",
          "type": "uint256"
        },
        {
          "internalType": "address",
          "name": "to_",
          "type": "address"
        }
      ],
      "name": "borrow",
      "outputs": [
        {
          "internalType": "uint256",
          "name": "shares_",
          "type": "uint256"
        }
      ],
      "stateMutability": "nonpayable",
      "type": "function"
    },
    {
      "inputs": [
        {
          "internalType": "uint256",
          "name": "token0Amt_",
          "type": "uint256"
        },
        {
          "internalType": "uint256",
          "name": "token1Amt_",
          "type": "uint256"
        },
        {
          "internalType": "uint256",
          "name": "minSharesAmt_",
          "type": "uint256"
        },
        {
          "internalType": "bool",
          "name": "estimate_",
          "type": "bool"
        }
      ],
      "name": "payback",
      "outputs": [
        {
          "internalType": "uint256",
          "name": "shares_",
          "type": "uint256"
        }
      ],
      "stateMutability": "payable",
      "type": "function"
    },
    {
      "inputs": [
        {
          "internalType": "uint256",
          "name": "shares_",
          "type": "uint256"
        },
        {
          "internalType": "uint256",
          "name": "maxToken0_",
          "type": "uint256"
        },
        {
          "internalType": "uint256",
          "name": "maxToken1_",
          "type": "uint256"
        },
        {
          "internalType": "bool",
          "name": "estimate_",
          "type": "bool"
        }
      ],
      "name": "paybackPerfectInOneToken",
      "outputs": [
        {
          "internalType": "uint256",
          "name": "paybackAmt_",
          "type": "uint256"
        }
      ],
      "stateMutability": "payable",
      "type": "function"
    },
    {
      "inputs": [
        {
          "internalType": "bytes32",
          "name": "slot_",
          "type": "bytes32"
        }
      ],
      "name": "readFromStorage",
      "outputs": [
        {
          "internalType": "uint256",
          "name": "result_",
          "type": "uint256"
        }
      ],
      "stateMutability": "view",
      "type": "function"
    }
  ],
  "transactionHash": "0xad311cd86a623bea83a01015f3b5041317eff0cae4aa7751394655da57275757",
  "args": [
    {
      "liquidity": "0x52Aa899454998Be5b000Ad077a46Bbe360F4e497",
      "factory": "0x91716C4EDA1Fb55e84Bf8b4c7085f84285c19085",
      "deployerContract": "0x4EC7b668BAF70d4A4b0FC7941a7708A07b6d45Be",
      "implementations": {
        "shift": "0x1DaB06729718F96C3478D2Aacc49e117b6fDd7FD",
        "admin": "0x0000000000000000000000000000000000000000",
        "colOperations": "0x0000000000000000000000000000000000000000",
        "debtOperations": "0x0000000000000000000000000000000000000000",
        "perfectOperationsAndSwapOut": "0x0000000000000000000000000000000000000000"
      },
      "token0": "0x0A1a1A107E45b7Ced86833863f482BC5f4ed82EF",
      "token1": "0x833589fCD6eDb6E08f4c7C32D4f71b54bdA02913",
      "oracleMapping": 6144,
      "dexId": 17,
      "supplyToken0Slot": "0x6641fe19be54f2ca0dfb23386cede22e05253db7565b49dbb44072bfb5b208f4",
      "borrowToken0Slot": "0xae2181e824fc71e3495ab2cf5a2772ffb989c3a24237463e37cd4b3ce0fa3af1",
      "supplyToken1Slot": "0xdfd696b5f7722a68819c2cc1aa27bb414007e1c72e0dd9ea3fbe23ef3852b7d0",
      "borrowToken1Slot": "0xb3f855edc33d51a6929df0f7e2406e3531fbcc73397b977bea5909ffb96f7a76",
      "exchangePriceToken0Slot": "0xe0b82cc0ac0b7ac0087be8379dbaf53971fb278dcccb648e9f5b32a115098f47",
      "exchangePriceToken1Slot": "0x508ee41a6dd8c95c7731fae67bf62552c15d52a6061dc5dacfda3325bf92a1a0"
    }
  ],
  "numDeployments": 1,
  "bytecode": "0x6103606040523480156200001257600080fd5b5060405162005f7738038062005f77833981016040819052620000359162000522565b3060e052805160805260208101516001600160a01b0390811661018052604082015181166101a05260a08083015182169081905260c08084015190921691829052829182918291829110620000a6576040516317f71f0760e11b815261c76160048201526024015b60405180910390fd5b60a051620000b4906200031d565b610120526101005260c051620000ca906200031d565b61016052610140526060810151516001600160a01b03161562000100576060810151516001600160a01b03166101c05262000106565b306101c0525b6060810151602001516001600160a01b0316156200013a576060810151602001516001600160a01b03166101e05262000140565b306101e0525b6060810151604001516001600160a01b03161562000174576060810151604001516001600160a01b0316610200526200017a565b30610200525b60608082015101516001600160a01b031615620001ac5760608082015101516001600160a01b031661022052620001b2565b30610220525b6060810151608001516001600160a01b031615620001e6576060810151608001516001600160a01b031661024052620001ec565b30610240525b60808101516001600160a01b03166102605260e0810151610280526101008101516102a0526101208101516102c0526101408101516102e05261016081015161030052610180810151610320526101a081015161ffff101562000267576040516317f71f0760e11b815261c76260048201526024016200009d565b6101a00151610340525050506060810151516001600160a01b031615806200029f57506060810151602001516001600160a01b031615155b80620002bb57506060810151604001516001600160a01b031615155b80620002d6575060608082015101516001600160a01b031615155b80620002f257506060810151608001516001600160a01b031615155b1562000316576040516317f71f0760e11b815261c77260048201526024016200009d565b506200077b565b600080806200032c8462000385565b9050600c8111156200035e576001925062000349600c826200062e565b6200035690600a62000741565b91506200037f565b6200036b81600c6200062e565b6200037890600a62000741565b9250600191505b50915091565b60006001600160a01b03821673eeeeeeeeeeeeeeeeeeeeeeeeeeeeeeeeeeeeeeee146200041a57816001600160a01b031663313ce5676040518163ffffffff1660e01b8152600401602060405180830381865afa158015620003eb573d6000803e3d6000fd5b505050506040513d601f19601f8201168201806040525081019062000411919062000756565b60ff166200041d565b60125b92915050565b6040516101c081016001600160401b03811182821017156200045557634e487b7160e01b600052604160045260246000fd5b60405290565b80516001600160a01b03811681146200047357600080fd5b919050565b600060a082840312156200048b57600080fd5b60405160a081016001600160401b0381118282101715620004bc57634e487b7160e01b600052604160045260246000fd5b604052905080620004cd836200045b565b8152620004dd602084016200045b565b6020820152620004f0604084016200045b565b604082015262000503606084016200045b565b606082015262000516608084016200045b565b60808201525092915050565b600061024082840312156200053657600080fd5b6200054062000423565b8251815262000552602084016200045b565b602082015262000565604084016200045b565b604082015262000579846060850162000478565b60608201526101006200058e8185016200045b565b6080830152610120620005a38186016200045b565b60a0840152610140620005b88187016200045b565b60c08501526101608087015160e086015261018080880151858701526101a0945084880151848701526101c0880151838701526101e088015182870152610200880151818701525050505061022084015181830152508091505092915050565b634e487b7160e01b600052601160045260246000fd5b818103818111156200041d576200041d62000618565b600181815b808511156200068557816000190482111562000669576200066962000618565b808516156200067757918102915b93841c939080029062000649565b509250929050565b6000826200069e575060016200041d565b81620006ad575060006200041d565b8160018114620006c65760028114620006d157620006f1565b60019150506200041d565b60ff841115620006e557620006e562000618565b50506001821b6200041d565b5060208310610133831016604e8410600b841016171562000716575081810a6200041d565b62000722838362000644565b806000190482111562000739576200073962000618565b029392505050565b60006200074f83836200068d565b9392505050565b6000602082840312156200076957600080fd5b815160ff811681146200074f57600080fd5b60805160a05160c05160e05161010051610120516101405161016051610180516101a0516101c0516101e05161020051610220516102405161026051610280516102a0516102c0516102e05161030051610320516103405161558e620009e960003960008181614a7a01528181614ae30152614b9001526000611ecd01526000611deb0152600081816102e50152613334015260006146c20152600081816102b1015261330401526000614692015260008181611a8a0152614d3c0152600050506000505060005050600050506000818161402d0152818161413401526141c50152600050506000818161095d01528181610ab201528181611e1501528181611ef701528181611f9c01528181612b5001528181612ca9015281816130080152818161313a01528181613865015261392a0152600081816103b40152818161106d015281816114380152818161204601528181612ac601528181612b1d01528181612ee30152612f3a0152600081816103d50152818161104c015281816114590152818161206701528181612aa201528181612af901528181612ebf0152612f1601526000818161032901528181610ee5015281816113a80152818161209d01528181612a6f0152612e8c01526000818161034a01528181610ec4015281816113c9015281816120be01528181612a4b0152612e6801526000818161012301528181610c880152611269015260008181610aee015281816111660152818161189c01528181612cd0015281816131630152614dd501526000818161099901528181610fde0152818161183401528181612b8c0152818161304a0152614dad0152600060e8015261558e6000f3fe60806040526004361061005a5760003560e01c8063687669811161004357806368766981146100a4578063b5c736e4146100b7578063f4b9a3fb146100d657600080fd5b8063242011d51461005f57806330acd6fd14610091575b600080fd5b34801561006b57600080fd5b5061007f61007a36600461511f565b61010a565b60405190815260200160405180910390f35b61007f61009f36600461518a565b610c6f565b61007f6100b236600461518a565b611250565b3480156100c357600080fd5b5061007f6100d23660046151c0565b5490565b3480156100e257600080fd5b5061007f7f000000000000000000000000000000000000000000000000000000000000000081565b600073ffffffffffffffffffffffffffffffffffffffff7f0000000000000000000000000000000000000000000000000000000000000000163003610184576040517f2fee3e0e00000000000000000000000000000000000000000000000000000000815261c77360048201526024015b60405180910390fd5b600054600154610194828261196b565b33600090815260056020526040902054600181161580156101cd575073ffffffffffffffffffffffffffffffffffffffff851661dead14155b15610208576040517f2fee3e0e00000000000000000000000000000000000000000000000000000000815261c746600482015260240161017b565b6102506040518060a0016040528060008152602001600081526020016000815260200160008152602001600073ffffffffffffffffffffffffffffffffffffffff1681525090565b73ffffffffffffffffffffffffffffffffffffffff8616156102725785610274565b335b73ffffffffffffffffffffffffffffffffffffffff166080820152600183811c81169003610c2d5760006102a885856119f6565b905060006102dc7f00000000000000000000000000000000000000000000000000000000000000008360c001516001611f53565b905060006103117f00000000000000000000000000000000000000000000000000000000000000008461010001516000611f53565b604085018390526060850181905290508b156103ac577f00000000000000000000000000000000000000000000000000000000000000007f00000000000000000000000000000000000000000000000000000000000000006103748e6001615208565b61037e919061521b565b6103889190615261565b610393906001615208565b8085526103a0908d6120f7565b83516103ac9083612177565b8a1561043d577f00000000000000000000000000000000000000000000000000000000000000007f00000000000000000000000000000000000000000000000000000000000000006103ff8d6001615208565b610409919061521b565b6104139190615261565b61041e906001615208565b6020850181905261042f908c6120f7565b61043d846020015182612177565b60045460009081906fffffffffffffffffffffffffffffffff1684158015906104665750600084115b156107bb5786511580159061047f575060008760200151115b15610608578651859061049a90670de0b6b3a764000061521b565b6104a49190615261565b9250838760200151670de0b6b3a76400006104bf919061521b565b6104c99190615261565b91508183111561052557670de0b6b3a76400006104e6828461521b565b6104f09190615261565b9a50670de0b6b3a7640000856105068486615275565b610510919061521b565b61051a9190615261565b9250600091506105b5565b8282111561057f57670de0b6b3a7640000610540828561521b565b61054a9190615261565b9a50670de0b6b3a7640000846105608585615275565b61056a919061521b565b6105749190615261565b9150600092506105b5565b6040517f2fee3e0e00000000000000000000000000000000000000000000000000000000815261c755600482015260240161017b565b806105c08c8761521b565b6105ca9190615261565b6105d49086615208565b9450806105e18c8661521b565b6105eb9190615261565b6105f59085615208565b93506106018b82615208565b9050610632565b86511561061c578651925060009150610632565b60208701511561057f5760009250866020015191505b6000806b033b2e3c9fd0803ce8000000886080015110156106825761067588608001518960600151878a6106669190615208565b610670888b615208565b6121d9565b90945092506106ed915050565b6106e68860800151760a70c3c40a64e6c51999090b65f67d92400000000000006106ac9190615261565b60408a01516106d290760a70c3c40a64e6c51999090b65f67d9240000000000000615261565b6106dc878a615208565b610670898c615208565b9450925050505b84156107075761070087878484896123eb565b9450610750565b831561071a5761070086888385886123eb565b6040517f2fee3e0e00000000000000000000000000000000000000000000000000000000815261c756600482015260240161017b565b670de0b6b3a7640000610763848761521b565b61076d9190615261565b9450620f424061078660028d901c6201ffff1682615208565b610790908761521b565b61079a9190615261565b94506107a6858e615208565b9c506107b28584615208565b925050506107f1565b6040517f2fee3e0e00000000000000000000000000000000000000000000000000000000815261c777600482015260240161017b565b7fffffffffffffffffffffffffffffffffffffffffffffffffffffffffffff215373ffffffffffffffffffffffffffffffffffffffff8d1601610863576040517fe8d35d06000000000000000000000000000000000000000000000000000000008152600481018c905260240161017b565b8c8b11156108a1576040517f2fee3e0e00000000000000000000000000000000000000000000000000000000815261c757600482015260240161017b565b66ffffffffffffff600989901c1660ff60018a901c161b92506108c4888461252c565b91506108d08b84615208565b925081831115610910576040517f2fee3e0e00000000000000000000000000000000000000000000000000000000815261c74b600482015260240161017b565b61091b8884846125f3565b865115610a6d57865160408801516109589161093691615208565b8860200151896060015161094a9190615208565b8860200151620f42406126ba565b8e92507f000000000000000000000000000000000000000000000000000000000000000073ffffffffffffffffffffffffffffffffffffffff1663ad967e157f000000000000000000000000000000000000000000000000000000000000000060008660008c60800151600067ffffffffffffffff8111156109dc576109dc615288565b6040519080825280601f01601f191660200182016040528015610a06576020820181803683370190505b506040518763ffffffff1660e01b8152600401610a289695949392919061531b565b60408051808303816000875af1158015610a46573d6000803e3d6000fd5b505050506040513d601f19601f82011682018060405250810190610a6a9190615368565b50505b602087015115610bc25786516040880151610aad91610a8b91615208565b88602001518960600151610a9f9190615208565b8860200151620f4240612727565b8d92507f000000000000000000000000000000000000000000000000000000000000000073ffffffffffffffffffffffffffffffffffffffff1663ad967e157f000000000000000000000000000000000000000000000000000000000000000060008660008c60800151600067ffffffffffffffff811115610b3157610b31615288565b6040519080825280601f01601f191660200182016040528015610b5b576020820181803683370190505b506040518763ffffffff1660e01b8152600401610b7d9695949392919061531b565b60408051808303816000875af1158015610b9b573d6000803e3d6000fd5b505050506040513d601f19601f82011682018060405250810190610bbf9190615368565b50505b610bcb8161278e565b7f7f81427bed699dc7e687c5ddae6061932938818f79fc0e68903d55ef75ca45618f8f8d604051610c0f939291909283526020830191909152604082015260600190565b60405180910390a1610c228a8a88612818565b505050505050610c63565b6040517f2fee3e0e00000000000000000000000000000000000000000000000000000000815261c73c600482015260240161017b565b50505050949350505050565b600073ffffffffffffffffffffffffffffffffffffffff7f0000000000000000000000000000000000000000000000000000000000000000163003610ce4576040517f2fee3e0e00000000000000000000000000000000000000000000000000000000815261c773600482015260240161017b565b600054600154610cf4828261196b565b3360009081526005602052604090205460018116158015610d13575084155b15610d4e576040517f2fee3e0e00000000000000000000000000000000000000000000000000000000815261c746600482015260240161017b565b600087118015610d5e5750600086115b80610d70575086158015610d70575085155b15610dab576040517f2fee3e0e00000000000000000000000000000000000000000000000000000000815261c752600482015260240161017b565b600182901c600116600103610c2d576000610dc684846119f6565b6004549091506fffffffffffffffffffffffffffffffff16610de88a82613257565b6000806000610e0f8560800151866040015187606001518860c001518961010001516132c4565b80519091501580610e2257506020810151155b15610e5d576040517f2fee3e0e00000000000000000000000000000000000000000000000000000000815261c777600482015260240161017b565b6000610e6c8e8684600061340c565b90508c1561100a57610e9a81608001518260a001518460000151856020015185604001518660600151613687565b9350610ec2848360000151610eaf9190615275565b83602001518860200151620f4240612727565b7f00000000000000000000000000000000000000000000000000000000000000007f0000000000000000000000000000000000000000000000000000000000000000610f0f866001615208565b610f19919061521b565b610f239190615261565b610f2e906001615208565b9350620f4240610f4760028a901c6201ffff1682615208565b610f51908661521b565b610f5b9190615261565b93508399508a15610f9b576040517f73999506000000000000000000000000000000000000000000000000000000008152600481018b905260240161017b565b8c8a1115610fd9576040517f2fee3e0e00000000000000000000000000000000000000000000000000000000815261c758600482015260240161017b565b6110057f000000000000000000000000000000000000000000000000000000000000000060008c613786565b61118d565b6110308160a0015182608001518460200151856000015185606001518660400151613687565b925061104a826000015184846020015161094a9190615275565b7f00000000000000000000000000000000000000000000000000000000000000007f0000000000000000000000000000000000000000000000000000000000000000611097856001615208565b6110a1919061521b565b6110ab9190615261565b6110b6906001615208565b9250620f42406110cf60028a901c6201ffff1682615208565b6110d9908561521b565b6110e39190615261565b92508299508a15611123576040517f73999506000000000000000000000000000000000000000000000000000000008152600481018b905260240161017b565b8b8a1115611161576040517f2fee3e0e00000000000000000000000000000000000000000000000000000000815261c758600482015260240161017b565b61118d7f000000000000000000000000000000000000000000000000000000000000000060008c613786565b66ffffffffffffff600988901c1660ff600189901c161b60006111b0898361252c565b90508f826111be9190615275565b91506111cb8983836125f3565b8f876111d79190615275565b96506111e28761278e565b8f90507f97dfa84cbffcf65b8d034f057439472bc93868a66cc0e728c2faffb00f8b4923818787604051611229939291909283526020830191909152604082015260600190565b60405180910390a161123c8b8b8a612818565b50505050505050505b505050949350505050565b600073ffffffffffffffffffffffffffffffffffffffff7f00000000000000000000000000000000000000000000000000000000000000001630036112c5576040517f2fee3e0e00000000000000000000000000000000000000000000000000000000815261c773600482015260240161017b565b6000546001546112d5828261196b565b33600090815260056020526040902054600181161580156112f4575084155b1561132f576040517f2fee3e0e00000000000000000000000000000000000000000000000000000000815261c746600482015260240161017b565b600182901c600116600103610c2d57600061134a84846119f6565b90506113776040518060800160405280600081526020016000815260200160008152602001600081525090565b600061139b8360800151846040015185606001518660c001518761010001516132c4565b9050808b1561142e5760017f00000000000000000000000000000000000000000000000000000000000000007f000000000000000000000000000000000000000000000000000000000000000060018f6113f59190615275565b6113ff919061521b565b6114099190615261565b6114139190615275565b808452611420908d6120f7565b8251825161142e9190613257565b8a156114c35760017f00000000000000000000000000000000000000000000000000000000000000007f0000000000000000000000000000000000000000000000000000000000000000611482838f615275565b61148c919061521b565b6114969190615261565b6114a09190615275565b602084018190526114b1908c6120f7565b6114c383602001518360200151613257565b60008060006fffffffffffffffffffffffffffffffff600454169050600085600001511180156114f7575060008560200151115b156107bb57855115801590611510575060008660200151115b15611669578451865161152b90670de0b6b3a764000061521b565b6115359190615261565b925084602001518660200151670de0b6b3a7640000611554919061521b565b61155e9190615261565b9150818311156115b757670de0b6b3a764000061157b828461521b565b6115859190615261565b8651909b508390611596908461521b565b6115a09190615261565b86516115ac9190615275565b925060009150611649565b8282111561161357670de0b6b3a76400006115d2828561521b565b6115dc9190615261565b9a50818660200151846115ef919061521b565b6115f99190615261565b86602001516116089190615275565b915060009250611649565b6040517f2fee3e0e00000000000000000000000000000000000000000000000000000000815261c759600482015260240161017b565b6116568b8287600061340c565b93506116628b82615275565b9050611693565b85511561167d578551925060009150611693565b6020860151156116135760009250856020015191505b82156116bd576116b68460000151856020015186608001518760a00151876139fc565b9250611716565b81156116e0576116b6846020015185600001518660a001518760800151866139fc565b6040517f2fee3e0e00000000000000000000000000000000000000000000000000000000815261c75a600482015260240161017b565b670de0b6b3a7640000611729828561521b565b6117339190615261565b9250620f424061174c60028b901c6201ffff1682615275565b611756908561521b565b6117609190615261565b925061176c838c615208565b9a506117788382615275565b90508b156117b5576040517fe8d35d06000000000000000000000000000000000000000000000000000000008152600481018c905260240161017b565b8c8b10156117f3576040517f2fee3e0e00000000000000000000000000000000000000000000000000000000815261c75b600482015260240161017b565b8e1561185b578551855161182c9161180a91615275565b8760200151876020015161181e9190615275565b8960200151620f4240612727565b8e925061185b7f0000000000000000000000000000000000000000000000000000000000000000600085613786565b8d156118c357855185516118949161187291615275565b876020015187602001516118869190615275565b8960200151620f42406126ba565b8d92506118c37f0000000000000000000000000000000000000000000000000000000000000000600085613786565b66ffffffffffffff600989901c1660ff60018a901c161b92506118e6888461252c565b91506118f28b84615275565b92506118ff8884846125f3565b6119088161278e565b7fb69f152a70520703fe7ab4872a0cb3928386b68cf3c6c83c5d1fc08d196991e88f8f8d60405161194c939291909283526020830191909152604082015260600190565b60405180910390a161195f8a8a89612818565b50505050505050611245565b816001166001036119ac576040517f2fee3e0e00000000000000000000000000000000000000000000000000000000815261c739600482015260240161017b565b806003166000036119ed576040517f2fee3e0e00000000000000000000000000000000000000000000000000000000815261c73d600482015260240161017b565b50600117600055565b611a456040518061012001604052806000815260200160008152602001600081526020016000815260200160008152602001600081526020016000815260200160008152602001600081525090565b600060f883901c600116600003611b2657633fffffff607084901c16905080600003611a85575063ffffffff605984901c1660ff605185901c161b611b33565b611aaf7f000000000000000000000000000000000000000000000000000000000000000082613ba9565b73ffffffffffffffffffffffffffffffffffffffff1663f763f7a66040518163ffffffff1660e01b81526004016020604051808303816000875af1158015611afb573d6000803e3d6000fd5b505050506040513d601f19601f82011682018060405250810190611b1f919061538c565b9050611b33565b611b308484614013565b90505b63ffffffff603185901c1660ff602986901c161b601b84901c620fffff90811690602f86901c166001601a87901c81169003611b7c57611b7482828861410f565b975090925090505b81620f424003620f4240850281611b9557611b95615232565b049150620f42409081038402046000620fffff604488901c1615611c9b57604487901c6103ff90811690604e89901c16605889901c62ffffff16600160438b901c81169003611bf157611be98383836141a0565b919450925090505b6103e888870384820302048801871115611c465760798b901c6401ffffffff16420381811015611c385781818a89030281611c2e57611c2e615232565b0489019850611c3c565b8698505b6001945050611c97565b6103e885890383820302048803871015611c975760798b901c6401ffffffff16420381811015611c8d578181878b030281611c8357611c83615232565b0489039850611c91565b8598505b60019450505b5050505b620fffff60b488901c1660ff60ac89901c161b80861115611cc25780955060019150611ce6565b50620fffff60d088901c1660ff60c889901c161b80861015611ce657809550600191505b8115611d4f57620fffff601b89901c169350620fffff602f89901c169250601a88901c600116600103611d2657611d1e84848a61410f565b995090945092505b83620f424003620f4240870281611d3f57611d3f615232565b049350620f424083810387020492505b8487526020870186905260408701849052606087018390526f4b3b4ca85a86c47a098a224000000000841015611d9457611d8a83850261420f565b6080880152611dc3565b611db3670de0b6b3a76400008404670de0b6b3a764000086040261420f565b670de0b6b3a76400000260808801525b6040517fb5c736e40000000000000000000000000000000000000000000000000000000081527f00000000000000000000000000000000000000000000000000000000000000006004820152611e9b907f000000000000000000000000000000000000000000000000000000000000000073ffffffffffffffffffffffffffffffffffffffff169063b5c736e4906024015b602060405180830381865afa158015611e72573d6000803e3d6000fd5b505050506040513d601f19601f82011682018060405250810190611e96919061538c565b6142c1565b60c089015260a08801526040517fb5c736e40000000000000000000000000000000000000000000000000000000081527f00000000000000000000000000000000000000000000000000000000000000006004820152611f3b907f000000000000000000000000000000000000000000000000000000000000000073ffffffffffffffffffffffffffffffffffffffff169063b5c736e490602401611e55565b61010089015260e08801525094979650505050505050565b6040517fb5c736e400000000000000000000000000000000000000000000000000000000815260048101849052600090819073ffffffffffffffffffffffffffffffffffffffff7f0000000000000000000000000000000000000000000000000000000000000000169063b5c736e490602401602060405180830381865afa158015611fe3573d6000803e3d6000fd5b505050506040513d601f19601f82011682018060405250810190612007919061538c565b905067ffffffffffffffff600182901c16915060ff8216600883901c901b91508060011660010361203f5764e8d4a510008285020491505b8261209b577f00000000000000000000000000000000000000000000000000000000000000007f000000000000000000000000000000000000000000000000000000000000000083028161209557612095615232565b046120ee565b7f00000000000000000000000000000000000000000000000000000000000000007f00000000000000000000000000000000000000000000000000000000000000008302816120ec576120ec615232565b045b95945050505050565b620f424082108061211357506bffffffffffffffffffffffff82115b8061211e5750606481105b8061213857506fffffffffffffffffffffffffffffffff81115b15612173576040517f2fee3e0e00000000000000000000000000000000000000000000000000000000815261c769600482015260240161017b565b5050565b612185633b9aca0082615261565b82108061219e575061219b633b9aca008261521b565b82115b15612173576040517f2fee3e0e00000000000000000000000000000000000000000000000000000000815261c767600482015260240161017b565b6000808080806b06765c793fa10079d0000000612202876b033b2e3c9fd0803ce800000061521b565b61220c8b8a61521b565b61221691906153a5565b61222091906153cc565b9050600061222e878961521b565b905074446c3b15f9926687d2c40534fdb564000000000000811061227257886122636b033b2e3c9fd0803ce800000083615261565b61226d919061521b565b612293565b6b033b2e3c9fd0803ce80000006122898a8361521b565b6122939190615261565b90506122b16122a28380615434565b6122ac9083615208565b61420f565b6122bb9083615480565b94506122c7898961521b565b6122dd866b033b2e3c9fd0803ce800000061521b565b6122e79190615275565b9250620f424083101561232a576040517f2fee3e0e00000000000000000000000000000000000000000000000000000000815261c76d600482015260240161017b565b6a084595161401484a00000085101561236f5782612348868061521b565b61235e906b033b2e3c9fd0803ce800000061521b565b6123689190615261565b925061239c565b6123856b033b2e3c9fd0803ce800000084615261565b61238f868061521b565b6123999190615261565b92505b87856123a8828661521b565b6123b29190615261565b6123bc9190615275565b93506123c88784615208565b6123d2888661521b565b6123dc9190615261565b95505050945094509450949050565b6000806123f986600261521b565b612403848861521b565b61240d878961521b565b612417878b61521b565b6124219190615208565b61242b9190615208565b6124359190615261565b905060008684612445878b61521b565b61244f919061521b565b6124599190615261565b905060006124758261246b858061521b565b6122ac9190615275565b61247f9084615275565b9050620f4240612490600182615275565b61249a908761521b565b6124a49190615261565b8111806124bc57506124b9620f424086615261565b81105b156124f7576040517f2fee3e0e00000000000000000000000000000000000000000000000000000000815261c770600482015260240161017b565b88612503826001615208565b61251590670de0b6b3a764000061521b565b61251f9190615261565b9998505050505050505050565b6000608183901c6401ffffffff164203612710613fff60a286901c16840204808401604986901c66ffffffffffffff16604187901c60ff161b60b087901c62ffffff16612579858561521b565b6125839190615261565b61258d9190615208565b93508084111561259b578093505b6103ff60d087901c1660ff60c888901c161b9250828410156125c2578293505050506125ed565b6103ff60e287901c1660ff60da88901c161b9250828411156125e9578293505050506125ed565b5050505b92915050565b6125fe8383836144cf565b905061260f82603860086001614537565b915061262081603860086000614537565b90508167ffffffffffffffff600185901c160361266d576040517f2fee3e0e00000000000000000000000000000000000000000000000000000000815261c76b600482015260240161017b565b3360009081526005602052604090207ffffffffffffffffffffffffc000000000000000000000000000000000000000190931660019290921b9190911760419190911b174260811b179055565b6126d0816b033b2e3c9fd0803ce800000061521b565b6126da838661521b565b6126e49190615261565b831015612721576040517f2fee3e0e00000000000000000000000000000000000000000000000000000000815261c73e600482015260240161017b565b50505050565b612731818361521b565b612747846b033b2e3c9fd0803ce800000061521b565b6127519190615261565b841015612721576040517f2fee3e0e00000000000000000000000000000000000000000000000000000000815261c73e600482015260240161017b565b6004546fffffffffffffffffffffffffffffffff8116821180156127b55750608081901c82115b156127f0576040517f2fee3e0e00000000000000000000000000000000000000000000000000000000815261c779600482015260240161017b565b7fffffffffffffffffffffffffffffffff000000000000000000000000000000001617600455565b60ff82901c60010361285a576040517f2fee3e0e00000000000000000000000000000000000000000000000000000000815261c763600482015260240161017b565b6128856040518060800160405280600081526020016000815260200160008152602001600081525090565b6128be6040518060c001604052806000815260200160008152602001600081526020016000815260200160008152602001600081525090565b6000846001166001036128ef576128ec8460800151856040015186606001518760a001518860e00151614660565b92505b8460021660020361291f5761291c8460800151856040015186606001518760c001518861010001516132c4565b91505b60038560031610156129ab578460011660011461296557608082015160a0830151612956906b033b2e3c9fd0803ce800000061521b565b6129609190615261565b61298f565b60408301516060840151612985906b033b2e3c9fd0803ce800000061521b565b61298f9190615261565b90506129a08185602001518861479b565b600055505050505050565b6000806000806129cf6000886060015189604001518960a001518a60800151614c5d565b90506000811315612de6578093506129f08488604001518960600151614ce4565b9250612a05848760a001518860800151614d06565b9150838760400151612a179190615208565b838860600151612a279190615275565b612a3d906b033b2e3c9fd0803ce800000061521b565b612a479190615261565b94507f0000000000000000000000000000000000000000000000000000000000000000612a947f000000000000000000000000000000000000000000000000000000000000000083615434565b612a9e91906153cc565b90507f0000000000000000000000000000000000000000000000000000000000000000612aeb7f00000000000000000000000000000000000000000000000000000000000000008561521b565b612af59190615261565b92507f0000000000000000000000000000000000000000000000000000000000000000612b427f00000000000000000000000000000000000000000000000000000000000000008461521b565b612b4c9190615261565b91507f000000000000000000000000000000000000000000000000000000000000000073ffffffffffffffffffffffffffffffffffffffff1663ad967e157f000000000000000000000000000000000000000000000000000000000000000083846000306040518060400160405280600e81526020017f534b49505f5452414e53464552530000000000000000000000000000000000008152508051906020012030604051602001612c1e92919091825273ffffffffffffffffffffffffffffffffffffffff16602082015260400190565b6040516020818303038152906040526040518763ffffffff1660e01b8152600401612c4e9695949392919061531b565b60408051808303816000875af1158015612c6c573d6000803e3d6000fd5b505050506040513d601f19601f82011682018060405250810190612c909190615368565b505073ffffffffffffffffffffffffffffffffffffffff7f00000000000000000000000000000000000000000000000000000000000000001663ad967e157f0000000000000000000000000000000000000000000000000000000000000000612cf8866154a0565b612d01866154a0565b604080518082018252600e81527f534b49505f5452414e534645525300000000000000000000000000000000000060209182015281517f520f8ead5ba46586393d3a30de35560ff757e867d80fed46623eb8022af73ba391810191909152309181018290526000906060015b6040516020818303038152906040526040518763ffffffff1660e01b8152600401612d9d9695949392919061531b565b60408051808303816000875af1158015612dbb573d6000803e3d6000fd5b505050506040513d601f19601f82011682018060405250810190612ddf9190615368565b50506131c8565b600081121561319257612df8816154a0565b9350612e0d8487608001518860a00151614ce4565b9250612e228488606001518960400151614d06565b9150838660800151612e349190615208565b838760a00151612e449190615275565b612e5a906b033b2e3c9fd0803ce800000061521b565b612e649190615261565b94507f0000000000000000000000000000000000000000000000000000000000000000612eb17f000000000000000000000000000000000000000000000000000000000000000083615434565b612ebb91906153cc565b90507f0000000000000000000000000000000000000000000000000000000000000000612f087f00000000000000000000000000000000000000000000000000000000000000008561521b565b612f129190615261565b92507f0000000000000000000000000000000000000000000000000000000000000000612f5f7f00000000000000000000000000000000000000000000000000000000000000008461521b565b612f699190615261565b604080518082018252600e81527f534b49505f5452414e534645525300000000000000000000000000000000000060209182015281517f520f8ead5ba46586393d3a30de35560ff757e867d80fed46623eb8022af73ba3918101919091523081830181905282518083038401815260608301938490527fad967e15000000000000000000000000000000000000000000000000000000009093529294507f000000000000000000000000000000000000000000000000000000000000000073ffffffffffffffffffffffffffffffffffffffff169263ad967e159261307a927f000000000000000000000000000000000000000000000000000000000000000092879283926000919060640161531b565b60408051808303816000875af1158015613098573d6000803e3d6000fd5b505050506040513d601f19601f820116820180604052508101906130bc9190615368565b5050604080518082018252600e81527f534b49505f5452414e534645525300000000000000000000000000000000000060209182015281517f520f8ead5ba46586393d3a30de35560ff757e867d80fed46623eb8022af73ba3918101919091523091810182905273ffffffffffffffffffffffffffffffffffffffff7f0000000000000000000000000000000000000000000000000000000000000000169163ad967e15917f00000000000000000000000000000000000000000000000000000000000000009186918891600091606001612d6d565b6040517f2fee3e0e00000000000000000000000000000000000000000000000000000000815261c75c600482015260240161017b565b608e89901c633fffffff16935083156132005763ffffffff60318b901c1660ff60298c901c161b6131fe85600288841189614d37565b505b61320f8589602001518c61479b565b60005560408051828152602081018590527f063def03d41a2957d43156b97c271f3e4adea600722defb2cf6ebf9a27650056910160405180910390a150505050505050505050565b6127106132668261270f61521b565b6132709190615261565b8211806132895750613286633b9aca0082615261565b82105b15612173576040517f2fee3e0e00000000000000000000000000000000000000000000000000000000815261c768600482015260240161017b565b6132fd6040518060c001604052806000815260200160008152602001600081526020016000815260200160008152602001600081525090565b600061332b7f0000000000000000000000000000000000000000000000000000000000000000856001611f53565b9050600061335b7f0000000000000000000000000000000000000000000000000000000000000000856000611f53565b8284526020840181905290506b033b2e3c9fd0803ce80000008810156133a057613387888784846121d9565b60a0870152608086015260608501526040840152613401565b6133ec6133c489760a70c3c40a64e6c51999090b65f67d9240000000000000615261565b6133e589760a70c3c40a64e6c51999090b65f67d9240000000000000615261565b83856121d9565b608087015260a0860152604085015260608401525b505095945050505050565b6134456040518060c001604052806000815260200160008152602001600081526020016000815260200160008152602001600081525090565b8115613567578251849061345a90879061521b565b6134649190615261565b83516134709190615208565b81526020830151849061348490879061521b565b61348e9190615261565b836020015161349d9190615208565b6020820152604083015184906134b490879061521b565b6134be9190615261565b83604001516134cd9190615208565b6040820152606083015184906134e490879061521b565b6134ee9190615261565b83606001516134fd9190615208565b60608201526080830151849061351490879061521b565b61351e9190615261565b836080015161352d9190615208565b608082015260a0830151849061354490879061521b565b61354e9190615261565b8360a0015161355d9190615208565b60a082015261367f565b8251849061357690879061521b565b6135809190615261565b835161358c9190615275565b8152602083015184906135a090879061521b565b6135aa9190615261565b83602001516135b99190615275565b6020820152604083015184906135d090879061521b565b6135da9190615261565b83604001516135e99190615275565b60408201526060830151849061360090879061521b565b61360a9190615261565b83606001516136199190615275565b60608201526080830151849061363090879061521b565b61363a9190615261565b83608001516136499190615275565b608082015260a0830151849061366090879061521b565b61366a9190615261565b8360a001516136799190615275565b60a08201525b949350505050565b6000806136948489615275565b905060006136a28489615275565b905060006136b0898b61521b565b905060006136be8483615261565b905060006136cc8484615261565b90506000896136db8685615275565b6136e59190615275565b905060006136f38287615208565b6136fd848461521b565b6137079190615261565b9050613713818d615275565b9750620f4240613724600182615275565b61372e908e61521b565b6137389190615261565b881115613775576040517f2fee3e0e00000000000000000000000000000000000000000000000000000000815261c771600482015260240161017b565b505050505050509695505050505050565b6000821180156137965750600081115b156137a057600080fd5b7fffffffffffffffffffffffff111111111111111111111111111111111111111273ffffffffffffffffffffffffffffffffffffffff8416016139135760008083116137ec57816137ee565b825b9050803411156138105761380b336138068334615275565b614ede565b61384e565b8034101561384e576040517f2fee3e0e00000000000000000000000000000000000000000000000000000000815261c748600482015260240161017b565b73ffffffffffffffffffffffffffffffffffffffff7f00000000000000000000000000000000000000000000000000000000000000001663ad967e15828686613896876154a0565b6040805160008082526020820190925281906040518863ffffffff1660e01b81526004016138c99695949392919061531b565b604080518083038185885af11580156138e6573d6000803e3d6000fd5b50505050506040513d601f19601f8201168201806040525081019061390b9190615368565b505050505050565b73ffffffffffffffffffffffffffffffffffffffff7f00000000000000000000000000000000000000000000000000000000000000001663ad967e15848461395a856154a0565b600080613967888a615208565b6040805160208101929092526001908201523360608201526080016040516020818303038152906040526040518763ffffffff1660e01b81526004016139b29695949392919061531b565b60408051808303816000875af11580156139d0573d6000803e3d6000fd5b505050506040513d601f19601f820116820180604052508101906139f49190615368565b50505b505050565b60008085613a0a848261521b565b613a14858761521b565b613a1e888a61521b565b613a28888c61521b565b613a329190615208565b613a3c9190615275565b613a469190615275565b613a509190615261565b9050600083613a6087600461521b565b613a6a919061521b565b90506000600283613a88613a7e828061521b565b6122ac9086615208565b613a929190615275565b613a9c9190615261565b9050620f4240613aad600182615275565b613ab7908761521b565b613ac19190615261565b811180613ad95750613ad6620f424086615261565b81105b15613b14576040517f2fee3e0e00000000000000000000000000000000000000000000000000000000815261c771600482015260240161017b565b613b1e8186615275565b9250613b2a8188615208565b613b34828861521b565b613b3e9190615261565b9150613b4a818a615275565b613b5c84670de0b6b3a764000061521b565b613b669190615261565b9250613b728289615208565b613b8483670de0b6b3a764000061521b565b613b8e9190615261565b9150818311613b9d578261251f565b50979650505050505050565b6000606082600003613bbf5760009150506125ed565b607f8311613c88576040517fd60000000000000000000000000000000000000000000000000000000000000060208201527f940000000000000000000000000000000000000000000000000000000000000060218201527fffffffffffffffffffffffffffffffffffffffff000000000000000000000000606086901b16602282015260f884901b7fff000000000000000000000000000000000000000000000000000000000000001660368201526037015b6040516020818303038152906040529050614004565b60ff8311613d65576040517fd70000000000000000000000000000000000000000000000000000000000000060208201527f940000000000000000000000000000000000000000000000000000000000000060218201527fffffffffffffffffffffffffffffffffffffffff000000000000000000000000606086901b1660228201527f8100000000000000000000000000000000000000000000000000000000000000603682015260f884901b7fff00000000000000000000000000000000000000000000000000000000000000166037820152603801613c72565b61ffff8311613e43576040517fd80000000000000000000000000000000000000000000000000000000000000060208201527f940000000000000000000000000000000000000000000000000000000000000060218201527fffffffffffffffffffffffffffffffffffffffff000000000000000000000000606086901b1660228201527f820000000000000000000000000000000000000000000000000000000000000060368201527fffff00000000000000000000000000000000000000000000000000000000000060f085901b166037820152603901613c72565b62ffffff8311613f22576040517fd90000000000000000000000000000000000000000000000000000000000000060208201527f940000000000000000000000000000000000000000000000000000000000000060218201527fffffffffffffffffffffffffffffffffffffffff000000000000000000000000606086901b1660228201527f830000000000000000000000000000000000000000000000000000000000000060368201527fffffff000000000000000000000000000000000000000000000000000000000060e885901b166037820152603a01613c72565b6040517fda0000000000000000000000000000000000000000000000000000000000000060208201527f940000000000000000000000000000000000000000000000000000000000000060218201527fffffffffffffffffffffffffffffffffffffffff000000000000000000000000606086901b1660228201527f840000000000000000000000000000000000000000000000000000000000000060368201527fffffffff0000000000000000000000000000000000000000000000000000000060e085901b166037820152603b0160405160208183030381529060405290505b80516020909101209392505050565b60405160248101839052604481018290526000906140f5907f0000000000000000000000000000000000000000000000000000000000000000907f2f850fb300000000000000000000000000000000000000000000000000000000906064015b604080517fffffffffffffffffffffffffffffffffffffffffffffffffffffffffffffffe08184030181529190526020810180517bffffffffffffffffffffffffffffffffffffffffffffffffffffffff167fffffffff0000000000000000000000000000000000000000000000000000000090931692909217909152614f2a565b806020019051810190614108919061538c565b9392505050565b6040516024810184905260448101839052606481018290526000908190819061417e907f0000000000000000000000000000000000000000000000000000000000000000907f0d7cf0ab0000000000000000000000000000000000000000000000000000000090608401614073565b80602001905181019061419191906154d8565b92509250925093509350939050565b6040516024810184905260448101839052606481018290526000908190819061417e907f0000000000000000000000000000000000000000000000000000000000000000907fe8518a660000000000000000000000000000000000000000000000000000000090608401614073565b60b5817101000000000000000000000000000000000081106142365760409190911b9060801c5b690100000000000000000081106142525760209190911b9060401c5b65010000000000811061426a5760109190911b9060201c5b630100000081106142805760089190911b9060101c5b62010000010260121c80820401600190811c80830401811c80830401811c80830401811c80830401811c80830401811c80830401901c908190048111900390565b67ffffffffffffffff605b82901c811690609b83901c168115806142e3575080155b1561431f576040517fd50d751200000000000000000000000000000000000000000000000000000000815262011171600482015260240161017b565b61ffff8316603a84901c6401ffffffff16428181039160ea87901c617fff16911480614349575082155b806143545750806001145b1561436157505050915091565b64496cebb80084840283020484019350617fff60db87901c1692508260010361438c57505050915091565b826001166001036143e15760019290921c91826c7e37be2022c0914b2680000000816143ba576143ba615232565b049250612710601e87901c613fff166b033b2e3c9fd0803ce800000085010204925061440e565b60019290921c916305f5e100601e87901c613fff166127108501026b033b2e3c9fd0803ce8000000020492505b806001166001036144455760011c61271081016b033b2e3c9fd0803ce800000082028161443d5761443d615232565b04905061447b565b60011c61271081016b033b2e3c9fd0803ce800000082028161446957614469615232565b046b033b2e3c9fd0803ce80000000390505b760a70c3c40a64e6c51999090b65f67d92400000000000008382026127100261ffff881691900402601087901c613fff16612710030292506801b5a660ea44b8000085840283020485019450505050915091565b612710613fff60a285901c16830204820160d084901c6103ff1660c885901c60ff161b80821015614501579050614108565b506103ff60e285901c1660ff60da86901c161b80821115614520578091505b8183111561452e5750614108565b50909392505050565b600080856fffffffffffffffffffffffffffffffff81111561455a5760809150811c5b67ffffffffffffffff811115614572576040918201911c5b63ffffffff811115614586576020918201911c5b61ffff811115614598576010918201911c5b60ff8111156145a9576008918201911c5b600f8111156145ba576004918201911c5b60038111156145cb576002918201911c5b60018111156145db576001820191505b80156145e8576001820191505b50848110156145f45750835b848103905085811c6000821184161561464357600181019050806001871b0361464357506001908101907fffffffffffffffffffffffffffffffffffffffffffffffffffffffffffffffff86011b5b6001851b821061465257600080fd5b90931b909201949350505050565b61468b6040518060800160405280600081526020016000815260200160008152602001600081525090565b60006146b97f0000000000000000000000000000000000000000000000000000000000000000856001611f53565b905060006146e97f0000000000000000000000000000000000000000000000000000000000000000856000611f53565b90506b033b2e3c9fd0803ce800000088101561471a5761470b88888484614f70565b60608501526040840152614771565b61476661473e89760a70c3c40a64e6c51999090b65f67d9240000000000000615261565b61475f88760a70c3c40a64e6c51999090b65f67d9240000000000000615261565b8385614f70565b604085015260608401525b81835260208301819052604083018051909201909152606082018051909101905295945050505050565b6000806147b3607984901c6401ffffffff1642615275565b905060008060008360000361489b5763ffffffff605987901c1660ff605188901c161b92506305f5e1006305f5e0ff8402048710806147fd57506305f5e1006305f5e10184020487115b15614838576040517f2fee3e0e00000000000000000000000000000000000000000000000000000000815261c76c600482015260240161017b565b63ffffffff600987901c1660ff600188901c161b9250614858838961507d565b50602961486a89602060086000614537565b901b867ffffffffffffffffffffffffffffffffffffffffffffe0000000001ffffffffff1617945050505050614108565b60c386901c6001166000036149355763ffffffff603187901c1660ff602988901c161b92506148ca838961507d565b504260791b60516148e089602060086000614537565b901b60296148f38b602060086000614537565b7ffffffffffffffffffffffffffc000000000000000000000000000000000000018a166501fffffffffe60288c901c1617911b17171794506141089350505050565b63ffffffff600987901c811660ff600189901c81169190911b9450603188901c909116602988901c9091161b9150600061496f838a61507d565b905082670de0b6b3a764000085028161498a5761498a615232565b04670de0b6b3a764000003905060008112156149ca57600166b1a2bc2ec50000623fffff8360000302816149c0576149c0615232565b04901b91506149e3565b600166b1a2bc2ec50000623fffff830204901b60011791505b623fffff8511156149f557623fffff94505b609a87901c623fffff16935060b087901c60071660b388901c61ffff166101ff861115614b30578115614ac15760299390931b600986901b1792614a3882615506565b9150614a4582602061521b565b600082815260066020526040902080549186901b90911790558115614a7457614a6d82615506565b9150614bd3565b600791507f00000000000000000000000000000000000000000000000000000000000000008160010181614aaa57614aaa615232565b066000818152600660205260408120559050614bd3565b6000818152600660208190526040909120805460099690961b958617905591507f00000000000000000000000000000000000000000000000000000000000000006001820181614b1357614b13615232565b06600081815260066020526040902060e988901b90559050614bd3565b85600985901b1793506007821015614b65576000818152600660209081526040909120805491840286901b9091179055614b7b565b600081815260066020526040902060e085901b90555b8115614b8a57614a6d82615506565b600791507f00000000000000000000000000000000000000000000000000000000000000008160010181614bc057614bc0615232565b0660008181526006602052604081205590505b8a955089945088935060b381901b60b083901b609a89901b4260791b6051614c008a602060086000614537565b901b6029614c138c602060086000614537565b901b600164ffffffffff60298c901c16901b8a7ffffffffffffffff80000000000000000000000000000000000000000000000011617171717171717975050505050505050614108565b600080614c7f614c6d868861521b565b6122ac90670de0b6b3a764000061521b565b90506000614c90614c6d858761521b565b9050614c9c8183615208565b614ca6828861521b565b614cb0848b61521b565b614cba858861521b565b614cc49190615208565b614cce91906153a5565b614cd891906153cc565b98975050505050505050565b6000838202838501808281614cfb57614cfb615232565b049695505050505050565b600080614d13848661521b565b90506000614d218685615275565b9050614d2d8183615261565b9695505050505050565b614d617f000000000000000000000000000000000000000000000000000000000000000085613ba9565b6040517fd1f9be4e00000000000000000000000000000000000000000000000000000000815260048101859052831515602482015273ffffffffffffffffffffffffffffffffffffffff7f0000000000000000000000000000000000000000000000000000000000000000811660448301527f00000000000000000000000000000000000000000000000000000000000000008116606483015260848201849052919091169063d1f9be4e9060a4016020604051808303816000875af1925050508015614e69575060408051601f3d9081017fffffffffffffffffffffffffffffffffffffffffffffffffffffffffffffffe0168201909252614e669181019061553b565b60015b614ea3573d808015614e97576040519150601f19603f3d011682016040523d82523d6000602084013e614e9c565b606091505b5050612721565b806139f4576040517f2fee3e0e00000000000000000000000000000000000000000000000000000000815261c744600482015260240161017b565b6000806000806000858761c350f19050806139f7576040517fdee51a8a0000000000000000000000000000000000000000000000000000000081526201155a600482015260240161017b565b6060600080835160208501865af43d6040519250601f19601f6020830101168301604052808352806000602085013e81614f6857806000803e806000fd5b505092915050565b60008080614f7e8787615275565b90506000614f8d82600261521b565b614fa3866b033b2e3c9fd0803ce800000061521b565b614fad888b61521b565b614fb79190615208565b614fc19190615261565b90506000614fcf868861521b565b905074446c3b15f9926687d2c40534fdb564000000000000811061501257614ff78382615261565b61500d906b033b2e3c9fd0803ce800000061521b565b615033565b82615029826b033b2e3c9fd0803ce800000061521b565b6150339190615261565b90506150426122a2838061521b565b61504c9083615208565b94506b033b2e3c9fd0803ce80000006150658a8761521b565b61506f9190615261565b935050505094509492505050565b600081615092670de0b6b3a76400008561521b565b61509c9190615261565b6150ae90670de0b6b3a76400006153a5565b905066b1a2bc2ec500008113806150e457507fffffffffffffffffffffffffffffffffffffffffffffffffff4e5d43d13b000081125b156125ed576040517f2fee3e0e00000000000000000000000000000000000000000000000000000000815261c760600482015260240161017b565b6000806000806080858703121561513557600080fd5b843593506020850135925060408501359150606085013573ffffffffffffffffffffffffffffffffffffffff8116811461516e57600080fd5b939692955090935050565b801515811461518757600080fd5b50565b600080600080608085870312156151a057600080fd5b843593506020850135925060408501359150606085013561516e81615179565b6000602082840312156151d257600080fd5b5035919050565b7f4e487b7100000000000000000000000000000000000000000000000000000000600052601160045260246000fd5b808201808211156125ed576125ed6151d9565b80820281158282048414176125ed576125ed6151d9565b7f4e487b7100000000000000000000000000000000000000000000000000000000600052601260045260246000fd5b60008261527057615270615232565b500490565b818103818111156125ed576125ed6151d9565b7f4e487b7100000000000000000000000000000000000000000000000000000000600052604160045260246000fd5b6000815180845260005b818110156152dd576020818501810151868301820152016152c1565b5060006020828601015260207fffffffffffffffffffffffffffffffffffffffffffffffffffffffffffffffe0601f83011685010191505092915050565b600073ffffffffffffffffffffffffffffffffffffffff8089168352876020840152866040840152808616606084015280851660808401525060c060a0830152614cd860c08301846152b7565b6000806040838503121561537b57600080fd5b505080516020909101519092909150565b60006020828403121561539e57600080fd5b5051919050565b81810360008312801583831316838312821617156153c5576153c56151d9565b5092915050565b6000826153db576153db615232565b7fffffffffffffffffffffffffffffffffffffffffffffffffffffffffffffffff83147f80000000000000000000000000000000000000000000000000000000000000008314161561542f5761542f6151d9565b500590565b808202600082127f80000000000000000000000000000000000000000000000000000000000000008414161561546c5761546c6151d9565b81810583148215176125ed576125ed6151d9565b8082018281126000831280158216821582161715614f6857614f686151d9565b60007f800000000000000000000000000000000000000000000000000000000000000082036154d1576154d16151d9565b5060000390565b6000806000606084860312156154ed57600080fd5b8351925060208401519150604084015190509250925092565b600081615515576155156151d9565b507fffffffffffffffffffffffffffffffffffffffffffffffffffffffffffffffff0190565b60006020828403121561554d57600080fd5b81516141088161517956fea26469706673582212201734b298b8df5924cd67f895ea8ae2e4ba52ea656961d21e01c8efed1806a96c64736f6c63430008150033"
}