{
  "address": "0xBAEa614b14B99bd3dfb7105E80546B24033d98A4",
  "abi": [
    {
      "inputs": [
        {
          "internalType": "string",
          "name": "name_",
          "type": "string"
        },
        {
          "internalType": "address",
          "name": "owner_",
          "type": "address"
        },
        {
          "internalType": "address",
          "name": "proposer_",
          "type": "address"
        },
        {
          "internalType": "address",
          "name": "approver_",
          "type": "address"
        },
        {
          "internalType": "address",
          "name": "rewardToken_",
          "type": "address"
        }
      ],
      "stateMutability": "nonpayable",
      "type": "constructor"
    },
    {
      "inputs": [],
      "name": "InvalidCycle",
      "type": "error"
    },
    {
      "inputs": [],
      "name": "InvalidParams",
      "type": "error"
    },
    {
      "inputs": [],
      "name": "InvalidProof",
      "type": "error"
    },
    {
      "inputs": [],
      "name": "MsgSenderNotRecipient",
      "type": "error"
    },
    {
      "inputs": [],
      "name": "NothingToClaim",
      "type": "error"
    },
    {
      "inputs": [],
      "name": "Unauthorized",
      "type": "error"
    },
    {
      "anonymous": false,
      "inputs": [
        {
          "indexed": false,
          "internalType": "address",
          "name": "user",
          "type": "address"
        },
        {
          "indexed": false,
          "internalType": "uint256",
          "name": "amount",
          "type": "uint256"
        },
        {
          "indexed": false,
          "internalType": "uint256",
          "name": "cycle",
          "type": "uint256"
        },
        {
          "indexed": false,
          "internalType": "uint8",
          "name": "positionType",
          "type": "uint8"
        },
        {
          "indexed": false,
          "internalType": "bytes32",
          "name": "positionId",
          "type": "bytes32"
        },
        {
          "indexed": false,
          "internalType": "uint256",
          "name": "timestamp",
          "type": "uint256"
        },
        {
          "indexed": false,
          "internalType": "uint256",
          "name": "blockNumber",
          "type": "uint256"
        }
      ],
      "name": "LogClaimed",
      "type": "event"
    },
    {
      "anonymous": false,
      "inputs": [
        {
          "indexed": true,
          "internalType": "uint256",
          "name": "epoch_",
          "type": "uint256"
        },
        {
          "indexed": true,
          "internalType": "address",
          "name": "initiator_",
          "type": "address"
        },
        {
          "indexed": false,
          "internalType": "uint256",
          "name": "amount_",
          "type": "uint256"
        },
        {
          "indexed": false,
          "internalType": "uint256",
          "name": "startCycle_",
          "type": "uint256"
        },
        {
          "indexed": false,
          "internalType": "uint256",
          "name": "endCycle_",
          "type": "uint256"
        },
        {
          "indexed": false,
          "internalType": "uint256",
          "name": "registrationBlock_",
          "type": "uint256"
        },
        {
          "indexed": false,
          "internalType": "uint256",
          "name": "registrationTimestamp_",
          "type": "uint256"
        }
      ],
      "name": "LogDistribution",
      "type": "event"
    },
    {
      "anonymous": false,
      "inputs": [
        {
          "indexed": false,
          "internalType": "uint256",
          "name": "maxRewardsDuration_",
          "type": "uint256"
        }
      ],
      "name": "LogMaxRewardsDurationUpdated",
      "type": "event"
    },
    {
      "anonymous": false,
      "inputs": [
        {
          "indexed": true,
          "internalType": "uint256",
          "name": "cycle_",
          "type": "uint256"
        },
        {
          "indexed": true,
          "internalType": "uint256",
          "name": "epoch_",
          "type": "uint256"
        },
        {
          "indexed": false,
          "internalType": "uint256",
          "name": "amount_",
          "type": "uint256"
        },
        {
          "indexed": false,
          "internalType": "uint256",
          "name": "startBlock_",
          "type": "uint256"
        },
        {
          "indexed": false,
          "internalType": "uint256",
          "name": "endBlock_",
          "type": "uint256"
        }
      ],
      "name": "LogRewardCycle",
      "type": "event"
    },
    {
      "anonymous": false,
      "inputs": [
        {
          "indexed": false,
          "internalType": "address",
          "name": "distributor_",
          "type": "address"
        },
        {
          "indexed": false,
          "internalType": "bool",
          "name": "isDistributor_",
          "type": "bool"
        }
      ],
      "name": "LogRewardsDistributorToggled",
      "type": "event"
    },
    {
      "anonymous": false,
      "inputs": [
        {
          "indexed": false,
          "internalType": "uint256",
          "name": "cycle",
          "type": "uint256"
        },
        {
          "indexed": false,
          "internalType": "bytes32",
          "name": "root",
          "type": "bytes32"
        },
        {
          "indexed": false,
          "internalType": "bytes32",
          "name": "contentHash",
          "type": "bytes32"
        },
        {
          "indexed": false,
          "internalType": "uint256",
          "name": "timestamp",
          "type": "uint256"
        },
        {
          "indexed": false,
          "internalType": "uint256",
          "name": "blockNumber",
          "type": "uint256"
        }
      ],
      "name": "LogRootProposed",
      "type": "event"
    },
    {
      "anonymous": false,
      "inputs": [
        {
          "indexed": false,
          "internalType": "uint256",
          "name": "cycle",
          "type": "uint256"
        },
        {
          "indexed": false,
          "internalType": "bytes32",
          "name": "root",
          "type": "bytes32"
        },
        {
          "indexed": false,
          "internalType": "bytes32",
          "name": "contentHash",
          "type": "bytes32"
        },
        {
          "indexed": false,
          "internalType": "uint256",
          "name": "timestamp",
          "type": "uint256"
        },
        {
          "indexed": false,
          "internalType": "uint256",
          "name": "blockNumber",
          "type": "uint256"
        }
      ],
      "name": "LogRootUpdated",
      "type": "event"
    },
    {
      "anonymous": false,
      "inputs": [
        {
          "indexed": false,
          "internalType": "uint256",
          "name": "noOfCyclesPerDistribution_",
          "type": "uint256"
        }
      ],
      "name": "LogTotalDistributionCyclesUpdated",
      "type": "event"
    },
    {
      "anonymous": false,
      "inputs": [
        {
          "indexed": false,
          "internalType": "address",
          "name": "approver",
          "type": "address"
        },
        {
          "indexed": false,
          "internalType": "bool",
          "name": "isApprover",
          "type": "bool"
        }
      ],
      "name": "LogUpdateApprover",
      "type": "event"
    },
    {
      "anonymous": false,
      "inputs": [
        {
          "indexed": false,
          "internalType": "address",
          "name": "proposer",
          "type": "address"
        },
        {
          "indexed": false,
          "internalType": "bool",
          "name": "isProposer",
          "type": "bool"
        }
      ],
      "name": "LogUpdateProposer",
      "type": "event"
    },
    {
      "anonymous": false,
      "inputs": [
        {
          "indexed": true,
          "internalType": "address",
          "name": "user",
          "type": "address"
        },
        {
          "indexed": true,
          "internalType": "address",
          "name": "newOwner",
          "type": "address"
        }
      ],
      "name": "OwnershipTransferred",
      "type": "event"
    },
    {
      "anonymous": false,
      "inputs": [
        {
          "indexed": false,
          "internalType": "address",
          "name": "account",
          "type": "address"
        }
      ],
      "name": "Paused",
      "type": "event"
    },
    {
      "anonymous": false,
      "inputs": [
        {
          "indexed": false,
          "internalType": "address",
          "name": "account",
          "type": "address"
        }
      ],
      "name": "Unpaused",
      "type": "event"
    },
    {
      "inputs": [],
      "name": "TOKEN",
      "outputs": [
        {
          "internalType": "contract IERC20",
          "name": "",
          "type": "address"
        }
      ],
      "stateMutability": "view",
      "type": "function"
    },
    {
      "inputs": [
        {
          "internalType": "bytes32",
          "name": "root_",
          "type": "bytes32"
        },
        {
          "internalType": "bytes32",
          "name": "contentHash_",
          "type": "bytes32"
        },
        {
          "internalType": "uint40",
          "name": "cycle_",
          "type": "uint40"
        },
        {
          "internalType": "uint40",
          "name": "startBlock_",
          "type": "uint40"
        },
        {
          "internalType": "uint40",
          "name": "endBlock_",
          "type": "uint40"
        }
      ],
      "name": "approveRoot",
      "outputs": [],
      "stateMutability": "nonpayable",
      "type": "function"
    },
    {
      "inputs": [],
      "name": "blocksPerCycle",
      "outputs": [
        {
          "internalType": "uint256",
          "name": "",
          "type": "uint256"
        }
      ],
      "stateMutability": "view",
      "type": "function"
    },
    {
      "inputs": [
        {
          "components": [
            {
              "internalType": "address",
              "name": "recipient",
              "type": "address"
            },
            {
              "internalType": "uint256",
              "name": "cumulativeAmount",
              "type": "uint256"
            },
            {
              "internalType": "uint8",
              "name": "positionType",
              "type": "uint8"
            },
            {
              "internalType": "bytes32",
              "name": "positionId",
              "type": "bytes32"
            },
            {
              "internalType": "uint256",
              "name": "cycle",
              "type": "uint256"
            },
            {
              "internalType": "bytes32[]",
              "name": "merkleProof",
              "type": "bytes32[]"
            },
            {
              "internalType": "bytes",
              "name": "metadata",
              "type": "bytes"
            }
          ],
          "internalType": "struct FluidMerkleDistributor.Claim[]",
          "name": "claims_",
          "type": "tuple[]"
        }
      ],
      "name": "bulkClaim",
      "outputs": [],
      "stateMutability": "nonpayable",
      "type": "function"
    },
    {
      "inputs": [
        {
          "internalType": "address",
          "name": "recipient_",
          "type": "address"
        },
        {
          "internalType": "uint256",
          "name": "cumulativeAmount_",
          "type": "uint256"
        },
        {
          "internalType": "uint8",
          "name": "positionType_",
          "type": "uint8"
        },
        {
          "internalType": "bytes32",
          "name": "positionId_",
          "type": "bytes32"
        },
        {
          "internalType": "uint256",
          "name": "cycle_",
          "type": "uint256"
        },
        {
          "internalType": "bytes32[]",
          "name": "merkleProof_",
          "type": "bytes32[]"
        },
        {
          "internalType": "bytes",
          "name": "metadata_",
          "type": "bytes"
        }
      ],
      "name": "claim",
      "outputs": [],
      "stateMutability": "nonpayable",
      "type": "function"
    },
    {
      "inputs": [
        {
          "internalType": "address",
          "name": "",
          "type": "address"
        },
        {
          "internalType": "bytes32",
          "name": "",
          "type": "bytes32"
        }
      ],
      "name": "claimed",
      "outputs": [
        {
          "internalType": "uint256",
          "name": "",
          "type": "uint256"
        }
      ],
      "stateMutability": "view",
      "type": "function"
    },
    {
      "inputs": [],
      "name": "currentMerkleCycle",
      "outputs": [
        {
          "components": [
            {
              "internalType": "bytes32",
              "name": "merkleRoot",
              "type": "bytes32"
            },
            {
              "internalType": "bytes32",
              "name": "merkleContentHash",
              "type": "bytes32"
            },
            {
              "internalType": "uint40",
              "name": "cycle",
              "type": "uint40"
            },
            {
              "internalType": "uint40",
              "name": "timestamp",
              "type": "uint40"
            },
            {
              "internalType": "uint40",
              "name": "publishBlock",
              "type": "uint40"
            },
            {
              "internalType": "uint40",
              "name": "startBlock",
              "type": "uint40"
            },
            {
              "internalType": "uint40",
              "name": "endBlock",
              "type": "uint40"
            }
          ],
          "internalType": "struct Structs.MerkleCycle",
          "name": "",
          "type": "tuple"
        }
      ],
      "stateMutability": "view",
      "type": "function"
    },
    {
      "inputs": [],
      "name": "cyclesPerDistribution",
      "outputs": [
        {
          "internalType": "uint256",
          "name": "",
          "type": "uint256"
        }
      ],
      "stateMutability": "view",
      "type": "function"
    },
    {
      "inputs": [
        {
          "internalType": "address",
          "name": "recipient_",
          "type": "address"
        },
        {
          "internalType": "uint256",
          "name": "cumulativeAmount_",
          "type": "uint256"
        },
        {
          "internalType": "uint8",
          "name": "positionType_",
          "type": "uint8"
        },
        {
          "internalType": "bytes32",
          "name": "positionId_",
          "type": "bytes32"
        },
        {
          "internalType": "uint256",
          "name": "cycle_",
          "type": "uint256"
        },
        {
          "internalType": "bytes",
          "name": "metadata_",
          "type": "bytes"
        }
      ],
      "name": "encodeClaim",
      "outputs": [
        {
          "internalType": "bytes",
          "name": "encoded_",
          "type": "bytes"
        },
        {
          "internalType": "bytes32",
          "name": "hash_",
          "type": "bytes32"
        }
      ],
      "stateMutability": "pure",
      "type": "function"
    },
    {
      "inputs": [],
      "name": "getActiveRewards",
      "outputs": [
        {
          "components": [
            {
              "internalType": "uint256",
              "name": "amount",
              "type": "uint256"
            },
            {
              "internalType": "uint256",
              "name": "cycle",
              "type": "uint256"
            },
            {
              "internalType": "uint256",
              "name": "startBlock",
              "type": "uint256"
            },
            {
              "internalType": "uint256",
              "name": "endBlock",
              "type": "uint256"
            },
            {
              "internalType": "uint256",
              "name": "epoch",
              "type": "uint256"
            }
          ],
          "internalType": "struct FluidMerkleDistributorRewards.Reward[]",
          "name": "",
          "type": "tuple[]"
        }
      ],
      "stateMutability": "view",
      "type": "function"
    },
    {
      "inputs": [
        {
          "internalType": "uint256",
          "name": "epoch_",
          "type": "uint256"
        }
      ],
      "name": "getDistributionForEpoch",
      "outputs": [
        {
          "components": [
            {
              "internalType": "uint256",
              "name": "amount",
              "type": "uint256"
            },
            {
              "internalType": "uint256",
              "name": "epoch",
              "type": "uint256"
            },
            {
              "internalType": "uint128",
              "name": "registrationBlock",
              "type": "uint128"
            },
            {
              "internalType": "uint128",
              "name": "registrationTimestamp",
              "type": "uint128"
            },
            {
              "internalType": "uint256",
              "name": "startCycle",
              "type": "uint256"
            },
            {
              "internalType": "uint256",
              "name": "endCycle",
              "type": "uint256"
            }
          ],
          "internalType": "struct FluidMerkleDistributorRewards.Distribution",
          "name": "",
          "type": "tuple"
        }
      ],
      "stateMutability": "view",
      "type": "function"
    },
    {
      "inputs": [],
      "name": "getDistributions",
      "outputs": [
        {
          "components": [
            {
              "internalType": "uint256",
              "name": "amount",
              "type": "uint256"
            },
            {
              "internalType": "uint256",
              "name": "epoch",
              "type": "uint256"
            },
            {
              "internalType": "uint128",
              "name": "registrationBlock",
              "type": "uint128"
            },
            {
              "internalType": "uint128",
              "name": "registrationTimestamp",
              "type": "uint128"
            },
            {
              "internalType": "uint256",
              "name": "startCycle",
              "type": "uint256"
            },
            {
              "internalType": "uint256",
              "name": "endCycle",
              "type": "uint256"
            }
          ],
          "internalType": "struct FluidMerkleDistributorRewards.Distribution[]",
          "name": "",
          "type": "tuple[]"
        }
      ],
      "stateMutability": "view",
      "type": "function"
    },
    {
      "inputs": [],
      "name": "getExpiredRewards",
      "outputs": [
        {
          "components": [
            {
              "internalType": "uint256",
              "name": "amount",
              "type": "uint256"
            },
            {
              "internalType": "uint256",
              "name": "cycle",
              "type": "uint256"
            },
            {
              "internalType": "uint256",
              "name": "startBlock",
              "type": "uint256"
            },
            {
              "internalType": "uint256",
              "name": "endBlock",
              "type": "uint256"
            },
            {
              "internalType": "uint256",
              "name": "epoch",
              "type": "uint256"
            }
          ],
          "internalType": "struct FluidMerkleDistributorRewards.Reward[]",
          "name": "",
          "type": "tuple[]"
        }
      ],
      "stateMutability": "view",
      "type": "function"
    },
    {
      "inputs": [],
      "name": "getRewards",
      "outputs": [
        {
          "components": [
            {
              "internalType": "uint256",
              "name": "amount",
              "type": "uint256"
            },
            {
              "internalType": "uint256",
              "name": "cycle",
              "type": "uint256"
            },
            {
              "internalType": "uint256",
              "name": "startBlock",
              "type": "uint256"
            },
            {
              "internalType": "uint256",
              "name": "endBlock",
              "type": "uint256"
            },
            {
              "internalType": "uint256",
              "name": "epoch",
              "type": "uint256"
            }
          ],
          "internalType": "struct FluidMerkleDistributorRewards.Reward[]",
          "name": "",
          "type": "tuple[]"
        }
      ],
      "stateMutability": "view",
      "type": "function"
    },
    {
      "inputs": [
        {
          "internalType": "uint256",
          "name": "cycle_",
          "type": "uint256"
        }
      ],
      "name": "getRewardsForCycle",
      "outputs": [
        {
          "components": [
            {
              "internalType": "uint256",
              "name": "amount",
              "type": "uint256"
            },
            {
              "internalType": "uint256",
              "name": "cycle",
              "type": "uint256"
            },
            {
              "internalType": "uint256",
              "name": "startBlock",
              "type": "uint256"
            },
            {
              "internalType": "uint256",
              "name": "endBlock",
              "type": "uint256"
            },
            {
              "internalType": "uint256",
              "name": "epoch",
              "type": "uint256"
            }
          ],
          "internalType": "struct FluidMerkleDistributorRewards.Reward",
          "name": "",
          "type": "tuple"
        }
      ],
      "stateMutability": "view",
      "type": "function"
    },
    {
      "inputs": [
        {
          "internalType": "uint256",
          "name": "startBlock_",
          "type": "uint256"
        },
        {
          "internalType": "uint256",
          "name": "endBlock_",
          "type": "uint256"
        }
      ],
      "name": "getRewardsForRange",
      "outputs": [
        {
          "components": [
            {
              "internalType": "uint256",
              "name": "amount",
              "type": "uint256"
            },
            {
              "internalType": "uint256",
              "name": "cycle",
              "type": "uint256"
            },
            {
              "internalType": "uint256",
              "name": "startBlock",
              "type": "uint256"
            },
            {
              "internalType": "uint256",
              "name": "endBlock",
              "type": "uint256"
            },
            {
              "internalType": "uint256",
              "name": "epoch",
              "type": "uint256"
            }
          ],
          "internalType": "struct FluidMerkleDistributorRewards.Reward[]",
          "name": "",
          "type": "tuple[]"
        }
      ],
      "stateMutability": "view",
      "type": "function"
    },
    {
      "inputs": [],
      "name": "getUpcomingRewards",
      "outputs": [
        {
          "components": [
            {
              "internalType": "uint256",
              "name": "amount",
              "type": "uint256"
            },
            {
              "internalType": "uint256",
              "name": "cycle",
              "type": "uint256"
            },
            {
              "internalType": "uint256",
              "name": "startBlock",
              "type": "uint256"
            },
            {
              "internalType": "uint256",
              "name": "endBlock",
              "type": "uint256"
            },
            {
              "internalType": "uint256",
              "name": "epoch",
              "type": "uint256"
            }
          ],
          "internalType": "struct FluidMerkleDistributorRewards.Reward[]",
          "name": "",
          "type": "tuple[]"
        }
      ],
      "stateMutability": "view",
      "type": "function"
    },
    {
      "inputs": [],
      "name": "hasPendingRoot",
      "outputs": [
        {
          "internalType": "bool",
          "name": "",
          "type": "bool"
        }
      ],
      "stateMutability": "view",
      "type": "function"
    },
    {
      "inputs": [
        {
          "internalType": "uint256",
          "name": "amount_",
          "type": "uint256"
        }
      ],
      "name": "initiateRewards",
      "outputs": [],
      "stateMutability": "nonpayable",
      "type": "function"
    },
    {
      "inputs": [
        {
          "internalType": "uint256",
          "name": "amount_",
          "type": "uint256"
        },
        {
          "internalType": "uint256",
          "name": "durationInBlocks_",
          "type": "uint256"
        }
      ],
      "name": "initiateRewards",
      "outputs": [],
      "stateMutability": "nonpayable",
      "type": "function"
    },
    {
      "inputs": [
        {
          "internalType": "address",
          "name": "approver_",
          "type": "address"
        }
      ],
      "name": "isApprover",
      "outputs": [
        {
          "internalType": "bool",
          "name": "",
          "type": "bool"
        }
      ],
      "stateMutability": "view",
      "type": "function"
    },
    {
      "inputs": [
        {
          "internalType": "address",
          "name": "proposer_",
          "type": "address"
        }
      ],
      "name": "isProposer",
      "outputs": [
        {
          "internalType": "bool",
          "name": "",
          "type": "bool"
        }
      ],
      "stateMutability": "view",
      "type": "function"
    },
    {
      "inputs": [],
      "name": "maxBlocksForDistribution",
      "outputs": [
        {
          "internalType": "uint256",
          "name": "",
          "type": "uint256"
        }
      ],
      "stateMutability": "view",
      "type": "function"
    },
    {
      "inputs": [],
      "name": "name",
      "outputs": [
        {
          "internalType": "string",
          "name": "",
          "type": "string"
        }
      ],
      "stateMutability": "view",
      "type": "function"
    },
    {
      "inputs": [],
      "name": "owner",
      "outputs": [
        {
          "internalType": "address",
          "name": "",
          "type": "address"
        }
      ],
      "stateMutability": "view",
      "type": "function"
    },
    {
      "inputs": [],
      "name": "pause",
      "outputs": [],
      "stateMutability": "nonpayable",
      "type": "function"
    },
    {
      "inputs": [],
      "name": "paused",
      "outputs": [
        {
          "internalType": "bool",
          "name": "",
          "type": "bool"
        }
      ],
      "stateMutability": "view",
      "type": "function"
    },
    {
      "inputs": [],
      "name": "pendingMerkleCycle",
      "outputs": [
        {
          "components": [
            {
              "internalType": "bytes32",
              "name": "merkleRoot",
              "type": "bytes32"
            },
            {
              "internalType": "bytes32",
              "name": "merkleContentHash",
              "type": "bytes32"
            },
            {
              "internalType": "uint40",
              "name": "cycle",
              "type": "uint40"
            },
            {
              "internalType": "uint40",
              "name": "timestamp",
              "type": "uint40"
            },
            {
              "internalType": "uint40",
              "name": "publishBlock",
              "type": "uint40"
            },
            {
              "internalType": "uint40",
              "name": "startBlock",
              "type": "uint40"
            },
            {
              "internalType": "uint40",
              "name": "endBlock",
              "type": "uint40"
            }
          ],
          "internalType": "struct Structs.MerkleCycle",
          "name": "",
          "type": "tuple"
        }
      ],
      "stateMutability": "view",
      "type": "function"
    },
    {
      "inputs": [],
      "name": "previousMerkleRoot",
      "outputs": [
        {
          "internalType": "bytes32",
          "name": "",
          "type": "bytes32"
        }
      ],
      "stateMutability": "view",
      "type": "function"
    },
    {
      "inputs": [
        {
          "internalType": "bytes32",
          "name": "root_",
          "type": "bytes32"
        },
        {
          "internalType": "bytes32",
          "name": "contentHash_",
          "type": "bytes32"
        },
        {
          "internalType": "uint40",
          "name": "cycle_",
          "type": "uint40"
        },
        {
          "internalType": "uint40",
          "name": "startBlock_",
          "type": "uint40"
        },
        {
          "internalType": "uint40",
          "name": "endBlock_",
          "type": "uint40"
        }
      ],
      "name": "proposeRoot",
      "outputs": [],
      "stateMutability": "nonpayable",
      "type": "function"
    },
    {
      "inputs": [],
      "name": "pullFromSender",
      "outputs": [
        {
          "internalType": "bool",
          "name": "",
          "type": "bool"
        }
      ],
      "stateMutability": "view",
      "type": "function"
    },
    {
      "inputs": [
        {
          "internalType": "address",
          "name": "",
          "type": "address"
        }
      ],
      "name": "rewardsDistributor",
      "outputs": [
        {
          "internalType": "bool",
          "name": "",
          "type": "bool"
        }
      ],
      "stateMutability": "view",
      "type": "function"
    },
    {
      "inputs": [
        {
          "internalType": "bool",
          "name": "pullFromSender_",
          "type": "bool"
        }
      ],
      "name": "setPullFromSender",
      "outputs": [],
      "stateMutability": "nonpayable",
      "type": "function"
    },
    {
      "inputs": [
        {
          "internalType": "address[]",
          "name": "targets_",
          "type": "address[]"
        },
        {
          "internalType": "bytes[]",
          "name": "calldatas_",
          "type": "bytes[]"
        }
      ],
      "name": "spell",
      "outputs": [],
      "stateMutability": "nonpayable",
      "type": "function"
    },
    {
      "inputs": [
        {
          "internalType": "address",
          "name": "distributor_",
          "type": "address"
        }
      ],
      "name": "toggleRewardsDistributor",
      "outputs": [],
      "stateMutability": "nonpayable",
      "type": "function"
    },
    {
      "inputs": [],
      "name": "totalCycles",
      "outputs": [
        {
          "internalType": "uint256",
          "name": "",
          "type": "uint256"
        }
      ],
      "stateMutability": "view",
      "type": "function"
    },
    {
      "inputs": [],
      "name": "totalDistributions",
      "outputs": [
        {
          "internalType": "uint256",
          "name": "",
          "type": "uint256"
        }
      ],
      "stateMutability": "view",
      "type": "function"
    },
    {
      "inputs": [],
      "name": "totalRewards",
      "outputs": [
        {
          "internalType": "uint256",
          "name": "",
          "type": "uint256"
        }
      ],
      "stateMutability": "view",
      "type": "function"
    },
    {
      "inputs": [
        {
          "internalType": "address",
          "name": "newOwner",
          "type": "address"
        }
      ],
      "name": "transferOwnership",
      "outputs": [],
      "stateMutability": "nonpayable",
      "type": "function"
    },
    {
      "inputs": [],
      "name": "unpause",
      "outputs": [],
      "stateMutability": "nonpayable",
      "type": "function"
    },
    {
      "inputs": [
        {
          "internalType": "address",
          "name": "approver_",
          "type": "address"
        },
        {
          "internalType": "bool",
          "name": "isApprover_",
          "type": "bool"
        }
      ],
      "name": "updateApprover",
      "outputs": [],
      "stateMutability": "nonpayable",
      "type": "function"
    },
    {
      "inputs": [
        {
          "internalType": "address",
          "name": "proposer_",
          "type": "address"
        },
        {
          "internalType": "bool",
          "name": "isProposer_",
          "type": "bool"
        }
      ],
      "name": "updateProposer",
      "outputs": [],
      "stateMutability": "nonpayable",
      "type": "function"
    }
  ],
  "transactionHash": "0x8d7a53ee5f6ad9d8d56a782061cc7769b40e4d530f0db682fe56e4d9dc9ee444",
  "args": [
    "Test Deployment #1",
    "0x9800020b610194dBa52CF606E8Aa142F9F256166",
    "0x910E413DBF3F6276Fe8213fF656726bDc142E08E",
    "0x910E413DBF3F6276Fe8213fF656726bDc142E08E",
    "0x833589fcd6edb6e08f4c7c32d4f71b54bda02913"
  ],
  "numDeployments": 1,
  "solcInputHash": "f119464a6742352a3eac7de7a7a2a98e",
  "bytecode": "0x60a06040526004600c55612a30600d5561a8c0600e556010805460ff191690553480156200002c57600080fd5b5060405162004154380380620041548339810160408190526200004f9162000266565b600080546001600160a01b0319166001600160a01b03861690811782556040518692849283928592907f8be0079c531659141344cd1fd0a4f28419497f9722a3daafe3b4186f6b6457e0908290a3506000805460ff60a01b191690556001600160a01b0390811660805286925082169050620000de57604051635435b28960e11b815260040160405180910390fd5b836001600160a01b0381166200010757604051635435b28960e11b815260040160405180910390fd5b836001600160a01b0381166200013057604051635435b28960e11b815260040160405180910390fd5b836001600160a01b0381166200015957604051635435b28960e11b815260040160405180910390fd5b6001620001678a8262000415565b506001600160a01b038716600081815260026020908152604091829020805460ff191660019081179091558251938452908301527f780d738f356a91be5dfe8ffb87990c655a36b3430a233c71a209eb1e9a1a1a75910160405180910390a16001600160a01b038616600081815260036020908152604091829020805460ff191660019081179091558251938452908301527feeeb06b5605b72367788db09c5284b141487cdc2ab0925fcf8880d30ea584376910160405180910390a1505050505050505050620004e1565b634e487b7160e01b600052604160045260246000fd5b80516001600160a01b03811681146200026157600080fd5b919050565b600080600080600060a086880312156200027f57600080fd5b85516001600160401b03808211156200029757600080fd5b818801915088601f830112620002ac57600080fd5b815181811115620002c157620002c162000233565b604051601f8201601f19908116603f01168101908382118183101715620002ec57620002ec62000233565b81604052828152602093508b848487010111156200030957600080fd5b600091505b828210156200032d57848201840151818301850152908301906200030e565b60008484830101528099505050506200034881890162000249565b955050506200035a6040870162000249565b92506200036a6060870162000249565b91506200037a6080870162000249565b90509295509295909350565b600181811c908216806200039b57607f821691505b602082108103620003bc57634e487b7160e01b600052602260045260246000fd5b50919050565b601f8211156200041057600081815260208120601f850160051c81016020861015620003eb5750805b601f850160051c820191505b818110156200040c57828155600101620003f7565b5050505b505050565b81516001600160401b0381111562000431576200043162000233565b620004498162000442845462000386565b84620003c2565b602080601f831160018114620004815760008415620004685750858301515b600019600386901b1c1916600185901b1785556200040c565b600085815260208120601f198616915b82811015620004b25788860151825594840194600190910190840162000491565b5085821015620004d15787850151600019600388901b60f8161c191681555b5050505050600190811b01905550565b608051613c496200050b600039600081816105ca01528181611e5001526122ff0152613c496000f3fe608060405234801561001057600080fd5b50600436106102de5760003560e01c806382bc4aaf11610186578063be5013dc116100e3578063de9d540711610097578063f453fd2f11610071578063f453fd2f146107db578063fb63dd07146107e4578063ffb025661461080457600080fd5b8063de9d54071461079f578063f2fde38b146107a7578063f3bd53bf146107ba57600080fd5b8063caf3791e116100c8578063caf3791e14610763578063d91bd7801461076c578063dcf6de811461077f57600080fd5b8063be5013dc14610687578063c81eec661461069a57600080fd5b80639cfc7e831161013a578063a16576811161011f578063a165768114610668578063ace186c414610671578063b385079a1461067e57600080fd5b80639cfc7e831461064c5780639d01a27d1461065557600080fd5b80638456cb591161016b5780638456cb59146106115780638a1e6bba146106195780638da5cb5b1461062c57600080fd5b806382bc4aaf146105b257806382bfefc8146105c557600080fd5b80632274c5cd1161023f57806354c0a09c116101f357806370feb52a116101cd57806370feb52a1461057957806372149efe1461058c57806374ec29a01461059f57600080fd5b806354c0a09c1461053b5780635c975abb146105435780636d218e481461056657600080fd5b806335c1dd991161022457806335c1dd991461050d5780633f4ba83a146105205780634617c06a1461052857600080fd5b80632274c5cd146103d35780632f37a7741461050557600080fd5b80630e15561a1161029657806310ee535f1161027b57806310ee535f146103b05780631563461b146103b8578063163db71b146103cb57600080fd5b80630e15561a146103735780630f2d940b1461038557600080fd5b80630572b0cc116102c75780630572b0cc14610316578063059527bf1461032b57806306fdde031461035e57600080fd5b806302aa6318146102e3578063045cb12414610301575b600080fd5b6102eb610817565b6040516102f891906130ec565b60405180910390f35b61031461030f366004613187565b6108d2565b005b61031e610950565b6040516102f891906131a0565b61034e610339366004613236565b60136020526000908152604090205460ff1681565b60405190151581526020016102f8565b6103666109d8565b6040516102f891906132bf565b6011545b6040519081526020016102f8565b6103776103933660046132d2565b600b60209081526000928352604080842090915290825290205481565b61031e610a66565b6103146103c636600461330a565b610bff565b601254610377565b61049c6040805160e081018252600080825260208201819052918101829052606081018290526080810182905260a0810182905260c0810191909152506040805160e0810182526007548152600854602082015260095464ffffffffff80821693830193909352650100000000008104831660608301526a01000000000000000000008104831660808301526f010000000000000000000000000000008104831660a083015274010000000000000000000000000000000000000000900490911660c082015290565b6040516102f89190600060e0820190508251825260208301516020830152604083015164ffffffffff80821660408501528060608601511660608501528060808601511660808501528060a08601511660a08501528060c08601511660c0850152505092915050565b61034e610d63565b61031461051b366004613356565b610d8f565b610314611082565b610314610536366004613356565b61110d565b61031e61137e565b60005474010000000000000000000000000000000000000000900460ff1661034e565b61034e610574366004613236565b6114dc565b610314610587366004613236565b611530565b61031461059a3660046133ad565b611692565b61034e6105ad366004613236565b611744565b6103146105c036600461358a565b611795565b6105ec7f000000000000000000000000000000000000000000000000000000000000000081565b60405173ffffffffffffffffffffffffffffffffffffffff90911681526020016102f8565b610314611876565b610314610627366004613696565b6118ff565b6000546105ec9073ffffffffffffffffffffffffffffffffffffffff1681565b610377600c5481565b61031461066336600461330a565b611a9c565b610377600f5481565b60105461034e9060ff1681565b610377600d5481565b6103146106953660046136e9565b611bf2565b61049c6040805160e081018252600080825260208201819052918101829052606081018290526080810182905260a0810182905260c0810191909152506040805160e0810182526004548152600554602082015260065464ffffffffff80821693830193909352650100000000008104831660608301526a01000000000000000000008104831660808301526f010000000000000000000000000000008104831660a083015274010000000000000000000000000000000000000000900490911660c082015290565b610377600a5481565b61031461077a366004613790565b611ef6565b61079261078d366004613187565b612395565b6040516102f891906137b2565b61031e612487565b6103146107b5366004613236565b6125e5565b6107cd6107c836600461380d565b6126d6565b6040516102f8929190613887565b610377600e5481565b6107f76107f2366004613187565b612758565b6040516102f891906138a9565b61031e610812366004613790565b61282b565b60606012805480602002602001604051908101604052809291908181526020016000905b828210156108c95760008481526020908190206040805160c08101825260058602909201805483526001808201548486015260028201546fffffffffffffffffffffffffffffffff8082169486019490945270010000000000000000000000000000000090049092166060840152600381015460808401526004015460a0830152908352909201910161083b565b50505050905090565b3360009081526013602052604090205460ff1615801561090a575060005473ffffffffffffffffffffffffffffffffffffffff163314155b15610941576040517f82b4290000000000000000000000000000000000000000000000000000000000815260040160405180910390fd5b61094d81600e54611ef6565b50565b60606011805480602002602001604051908101604052809291908181526020016000905b828210156108c957838290600052602060002090600502016040518060a00160405290816000820154815260200160018201548152602001600282015481526020016003820154815260200160048201548152505081526020019060010190610974565b600180546109e5906138e2565b80601f0160208091040260200160405190810160405280929190818152602001828054610a11906138e2565b8015610a5e5780601f10610a3357610100808354040283529160200191610a5e565b820191906000526020600020905b815481529060010190602001808311610a4157829003601f168201915b505050505081565b6011546060904390600090819067ffffffffffffffff811115610a8b57610a8b6133ca565b604051908082528060200260200182016040528015610aee57816020015b610adb6040518060a0016040528060008152602001600081526020016000815260200160008152602001600081525090565b815260200190600190039081610aa95790505b50905060005b601154811015610bf5578360118281548110610b1257610b12613935565b90600052602060002090600502016002015411158015610b5657508360118281548110610b4157610b41613935565b90600052602060002090600502016003015410155b15610be35760118181548110610b6e57610b6e613935565b90600052602060002090600502016040518060a001604052908160008201548152602001600182015481526020016002820154815260200160038201548152602001600482015481525050828480610bc590613993565b955081518110610bd757610bd7613935565b60200260200101819052505b80610bed81613993565b915050610af4565b5090815292915050565b60005473ffffffffffffffffffffffffffffffffffffffff163314610c85576040517f08c379a000000000000000000000000000000000000000000000000000000000815260206004820152600c60248201527f554e415554484f52495a4544000000000000000000000000000000000000000060448201526064015b60405180910390fd5b8173ffffffffffffffffffffffffffffffffffffffff8116610cd3576040517fa86b651200000000000000000000000000000000000000000000000000000000815260040160405180910390fd5b73ffffffffffffffffffffffffffffffffffffffff831660008181526003602090815260409182902080547fffffffffffffffffffffffffffffffffffffffffffffffffffffffffffffff00168615159081179091558251938452908301527feeeb06b5605b72367788db09c5284b141487cdc2ab0925fcf8880d30ea58437691015b60405180910390a1505050565b600654600090610d7b9064ffffffffff1660016139cb565b60095464ffffffffff908116911614919050565b610d98336114dc565b610dce576040517f82b4290000000000000000000000000000000000000000000000000000000000815260040160405180910390fd5b6040805160e081018252600754808252600854602083015260095464ffffffffff80821694840194909452650100000000008104841660608401526a01000000000000000000008104841660808401526f010000000000000000000000000000008104841660a084015274010000000000000000000000000000000000000000900490921660c08201529086141580610e6b575080602001518514155b80610e885750806040015164ffffffffff168464ffffffffff1614155b80610ea557508060a0015164ffffffffff168364ffffffffff1614155b80610ec257508060c0015164ffffffffff168264ffffffffff1614155b15610ef9576040517fa86b651200000000000000000000000000000000000000000000000000000000815260040160405180910390fd5b60048054600a554264ffffffffff818116606085810182905243808416608080890182905288519097556020808901516005556040808a01516006805460a0808e015160c08f0151948c167fffffffffffffffffffffffffffffffffffffffffffff000000000000000000009093169290921765010000000000909a02999099177fffffffffffffffffffffffff00000000000000000000ffffffffffffffffffff166a01000000000000000000009096027fffffffffffffffffffffffff0000000000ffffffffffffffffffffffffffffff16959095176f01000000000000000000000000000000958a1695909502949094177fffffffffffffff0000000000ffffffffffffffffffffffffffffffffffffffff167401000000000000000000000000000000000000000091891691909102179092558151958c16865285018d905284018b905290830193909352928101919091527fcc3c3071340d91a4fd687f9ad48d1ee5689f8083136feb3594807d0f7481f7cf910160405180910390a1505050505050565b60005473ffffffffffffffffffffffffffffffffffffffff163314611103576040517f08c379a000000000000000000000000000000000000000000000000000000000815260206004820152600c60248201527f554e415554484f52495a454400000000000000000000000000000000000000006044820152606401610c7c565b61110b6129c3565b565b611115612a40565b61111e33611744565b611154576040517f82b4290000000000000000000000000000000000000000000000000000000000815260040160405180910390fd5b6006546111699064ffffffffff1660016139cb565b64ffffffffff168364ffffffffff1614158061119257508064ffffffffff168264ffffffffff16115b156111c9576040517fa86b651200000000000000000000000000000000000000000000000000000000815260040160405180910390fd5b6040805160e0810182528681526020810186905264ffffffffff8086168284018190524280831660608501819052438085166080870181905289861660a0880181905295891660c090970187905260078d905560088c905560098054740100000000000000000000000000000000000000009098027fffffffffffffff0000000000ffffffffffffffffffffffffffffffffffffffff6f010000000000000000000000000000009098027fffffffffffffffffffffffff0000000000ffffffffffffffffffffffffffffff6a0100000000000000000000909402939093167fffffffffffffffffffffffff00000000000000000000ffffffffffffffffffff650100000000009096027fffffffffffffffffffffffffffffffffffffffffffff00000000000000000000909a1690971798909817939093169490941793909317939093169390931790915591517fb38026cc978f6c2642a5108ee558571a1b01a939b056abcc065b7eabacaf2d9d9261136f9287928a928a929164ffffffffff959095168552602085019390935260408401919091526060830152608082015260a00190565b60405180910390a15050505050565b6011546060904390600090819067ffffffffffffffff8111156113a3576113a36133ca565b60405190808252806020026020018201604052801561140657816020015b6113f36040518060a0016040528060008152602001600081526020016000815260200160008152602001600081525090565b8152602001906001900390816113c15790505b50905060005b601154811015610bf557836011828154811061142a5761142a613935565b90600052602060002090600502016003015410156114ca576011818154811061145557611455613935565b90600052602060002090600502016040518060a0016040529081600082015481526020016001820154815260200160028201548152602001600382015481526020016004820154815250508284806114ac90613993565b9550815181106114be576114be613935565b60200260200101819052505b806114d481613993565b91505061140c565b73ffffffffffffffffffffffffffffffffffffffff811660009081526003602052604081205460ff168061152a575060005473ffffffffffffffffffffffffffffffffffffffff8381169116145b92915050565b60005473ffffffffffffffffffffffffffffffffffffffff1633146115b1576040517f08c379a000000000000000000000000000000000000000000000000000000000815260206004820152600c60248201527f554e415554484f52495a454400000000000000000000000000000000000000006044820152606401610c7c565b73ffffffffffffffffffffffffffffffffffffffff81166115fe576040517fa86b651200000000000000000000000000000000000000000000000000000000815260040160405180910390fd5b73ffffffffffffffffffffffffffffffffffffffff8116600081815260136020908152604091829020805460ff808216157fffffffffffffffffffffffffffffffffffffffffffffffffffffffffffffff0090921682179092558351948552161515908301527f7070b1fa79059dab7359a2e5b3be557471a19c213ba384d17144bc86d1496723910160405180910390a150565b60005473ffffffffffffffffffffffffffffffffffffffff163314611713576040517f08c379a000000000000000000000000000000000000000000000000000000000815260206004820152600c60248201527f554e415554484f52495a454400000000000000000000000000000000000000006044820152606401610c7c565b601080547fffffffffffffffffffffffffffffffffffffffffffffffffffffffffffffff0016911515919091179055565b73ffffffffffffffffffffffffffffffffffffffff811660009081526002602052604081205460ff168061152a57505060005473ffffffffffffffffffffffffffffffffffffffff91821691161490565b60005473ffffffffffffffffffffffffffffffffffffffff163314611816576040517f08c379a000000000000000000000000000000000000000000000000000000000815260206004820152600c60248201527f554e415554484f52495a454400000000000000000000000000000000000000006044820152606401610c7c565b60005b82518110156118715761185e83828151811061183757611837613935565b602002602001015183838151811061185157611851613935565b6020026020010151612ac5565b508061186981613993565b915050611819565b505050565b60005473ffffffffffffffffffffffffffffffffffffffff1633146118f7576040517f08c379a000000000000000000000000000000000000000000000000000000000815260206004820152600c60248201527f554e415554484f52495a454400000000000000000000000000000000000000006044820152606401610c7c565b61110b612b11565b60005b8181101561187157611a8a83838381811061191f5761191f613935565b905060200281019061193191906139f0565b61193f906020810190613236565b84848481811061195157611951613935565b905060200281019061196391906139f0565b6020013585858581811061197957611979613935565b905060200281019061198b91906139f0565b61199c906060810190604001613a2e565b8686868181106119ae576119ae613935565b90506020028101906119c091906139f0565b606001358787878181106119d6576119d6613935565b90506020028101906119e891906139f0565b608001358888888181106119fe576119fe613935565b9050602002810190611a1091906139f0565b611a1e9060a0810190613a49565b8a8a8a818110611a3057611a30613935565b9050602002810190611a4291906139f0565b611a509060c0810190613ab1565b8080601f016020809104026020016040519081016040528093929190818152602001838380828437600092019190915250611bf292505050565b80611a9481613993565b915050611902565b60005473ffffffffffffffffffffffffffffffffffffffff163314611b1d576040517f08c379a000000000000000000000000000000000000000000000000000000000815260206004820152600c60248201527f554e415554484f52495a454400000000000000000000000000000000000000006044820152606401610c7c565b8173ffffffffffffffffffffffffffffffffffffffff8116611b6b576040517fa86b651200000000000000000000000000000000000000000000000000000000815260040160405180910390fd5b73ffffffffffffffffffffffffffffffffffffffff831660008181526002602090815260409182902080547fffffffffffffffffffffffffffffffffffffffffffffffffffffffffffffff00168615159081179091558251938452908301527f780d738f356a91be5dfe8ffb87990c655a36b3430a233c71a209eb1e9a1a1a759101610d56565b611bfa612a40565b3373ffffffffffffffffffffffffffffffffffffffff891614611c49576040517fbd79de5800000000000000000000000000000000000000000000000000000000815260040160405180910390fd5b60065464ffffffffff1684811480611c755750600081118015611c755750611c72600182613b16565b85145b611cab576040517f9b8febfe00000000000000000000000000000000000000000000000000000000815260040160405180910390fd5b600087878b888c87604051602001611cc896959493929190613b29565b604080517fffffffffffffffffffffffffffffffffffffffffffffffffffffffffffffffe081840301815282825280516020918201209083015201604051602081830303815290604052805190602001209050611d6b85858080602002602001604051908101604052809392919081815260200183836020028082843760009201919091525050508885149050611d6157600a54611d65565b6004545b83612b80565b611da1576040517f09bde33900000000000000000000000000000000000000000000000000000000815260040160405180910390fd5b73ffffffffffffffffffffffffffffffffffffffff8a166000908152600b602090815260408083208a8452909152812054611ddc908b613b16565b905080600003611e18576040517f969bf72800000000000000000000000000000000000000000000000000000000815260040160405180910390fd5b73ffffffffffffffffffffffffffffffffffffffff8b166000908152600b602090815260408083208b845290915290208a9055611e767f00000000000000000000000000000000000000000000000000000000000000008c83612b96565b6040805173ffffffffffffffffffffffffffffffffffffffff8d1681526020810183905290810188905260ff8a166060820152608081018990524260a08201524360c08201527f309cb1c0dc6ce0f02c0c35cc1f46bbe61ec9deb311d101b87e7d25bd0b647fd79060e00160405180910390a15050505050505050505050565b3360009081526013602052604090205460ff16158015611f2e575060005473ffffffffffffffffffffffffffffffffffffffff163314155b15611f65576040517f82b4290000000000000000000000000000000000000000000000000000000000815260040160405180910390fd5b81600003611f9f576040517fa86b651200000000000000000000000000000000000000000000000000000000815260040160405180910390fd5b80600003611fac5750600e545b6000600c5483611fbc9190613b7f565b90506000600c5483611fce9190613b7f565b601154909150600081611feb57611fe6600143613b16565b61201b565b6011611ff8600184613b16565b8154811061200857612008613935565b9060005260206000209060050201600301545b60125490915060009061202f906001613bba565b905060126040518060c00160405280898152602001838152602001436fffffffffffffffffffffffffffffffff168152602001426fffffffffffffffffffffffffffffffff1681526020018560016120879190613bba565b8152602001600c548661209a9190613bba565b905281546001818101845560009384526020808520845160059094020192835583015190820155604082015160608301516fffffffffffffffffffffffffffffffff9081167001000000000000000000000000000000000291161760028201556080820151600382015560a0909101516004909101555b600c548110156122ee5760006121278683613bcd565b6121319085613bba565b61213c906001613bba565b9050600061214a8783613bba565b905060008361215a886001613bba565b6121649190613bba565b600c54909150899061217890600190613b16565b850361219557612188858b613bcd565b612192908d613b16565b90505b6040805160a08101825282815260208082018581528284018881526060808501898152608086018c81526011805460018101825560009190915296517f31ecc21a745e3968a04e9570e4425bc18fa8019c68028196b546d1669c200c6860059098029788015593517f31ecc21a745e3968a04e9570e4425bc18fa8019c68028196b546d1669c200c6987015591517f31ecc21a745e3968a04e9570e4425bc18fa8019c68028196b546d1669c200c6a86015590517f31ecc21a745e3968a04e9570e4425bc18fa8019c68028196b546d1669c200c6b85015590517f31ecc21a745e3968a04e9570e4425bc18fa8019c68028196b546d1669c200c6c909301929092558251848152908101879052918201859052879184917f9d1578529527d7ca977e6e95da5e7302299dfa7894fea3a1992ce68741ff5a0a910160405180910390a35050505080806122e690613993565b915050612111565b5060105460ff1615612326576123267f000000000000000000000000000000000000000000000000000000000000000033308a612c6a565b33817fd3aec04e72c75d4a42792ce6fe015d1ec10b07a8a621c9df2a89bd3644cf7ca889612355876001613bba565b600c546123629089613bba565b6040805193845260208401929092529082015243606082015242608082015260a00160405180910390a350505050505050565b6123f26040518060c00160405280600081526020016000815260200160006fffffffffffffffffffffffffffffffff16815260200160006fffffffffffffffffffffffffffffffff16815260200160008152602001600081525090565b6012828154811061240557612405613935565b60009182526020918290206040805160c08101825260059093029091018054835260018101549383019390935260028301546fffffffffffffffffffffffffffffffff8082169284019290925270010000000000000000000000000000000090041660608201526003820154608082015260049091015460a082015292915050565b6011546060904390600090819067ffffffffffffffff8111156124ac576124ac6133ca565b60405190808252806020026020018201604052801561250f57816020015b6124fc6040518060a0016040528060008152602001600081526020016000815260200160008152602001600081525090565b8152602001906001900390816124ca5790505b50905060005b601154811015610bf557836011828154811061253357612533613935565b90600052602060002090600502016002015411156125d3576011818154811061255e5761255e613935565b90600052602060002090600502016040518060a0016040529081600082015481526020016001820154815260200160028201548152602001600382015481526020016004820154815250508284806125b590613993565b9550815181106125c7576125c7613935565b60200260200101819052505b806125dd81613993565b915050612515565b60005473ffffffffffffffffffffffffffffffffffffffff163314612666576040517f08c379a000000000000000000000000000000000000000000000000000000000815260206004820152600c60248201527f554e415554484f52495a454400000000000000000000000000000000000000006044820152606401610c7c565b600080547fffffffffffffffffffffffff00000000000000000000000000000000000000001673ffffffffffffffffffffffffffffffffffffffff83169081178255604051909133917f8be0079c531659141344cd1fd0a4f28419497f9722a3daafe3b4186f6b6457e09190a350565b60606000858589868a876040516020016126f596959493929190613b29565b604080517fffffffffffffffffffffffffffffffffffffffffffffffffffffffffffffffe0818403018152828252805160208083019190912090840152935001604051602081830303815290604052805190602001209050965096945050505050565b61278a6040518060a0016040528060008152602001600081526020016000815260200160008152602001600081525090565b6011548211156127c6576040518060a0016040528060008152602001838152602001600081526020016000815260200160008152509050919050565b601182815481106127d9576127d9613935565b90600052602060002090600502016040518060a0016040529081600082015481526020016001820154815260200160028201548152602001600382015481526020016004820154815250509050919050565b606060008060118054905067ffffffffffffffff81111561284e5761284e6133ca565b6040519080825280602002602001820160405280156128b157816020015b61289e6040518060a0016040528060008152602001600081526020016000815260200160008152602001600081525090565b81526020019060019003908161286c5790505b50905060005b6011548110156129b85785601182815481106128d5576128d5613935565b906000526020600020906005020160020154101580156129195750846011828154811061290457612904613935565b90600052602060002090600502016003015411155b156129a6576011818154811061293157612931613935565b90600052602060002090600502016040518060a00160405290816000820154815260200160018201548152602001600282015481526020016003820154815260200160048201548152505082848061298890613993565b95508151811061299a5761299a613935565b60200260200101819052505b806129b081613993565b9150506128b7565b509081529392505050565b6129cb612cce565b600080547fffffffffffffffffffffff00ffffffffffffffffffffffffffffffffffffffff1690557f5db9ee0a495bf2e6ff9c91a7834c1ba4fdd244a5e8aa4e537bd38aeae4b073aa335b60405173ffffffffffffffffffffffffffffffffffffffff909116815260200160405180910390a1565b60005474010000000000000000000000000000000000000000900460ff161561110b576040517f08c379a000000000000000000000000000000000000000000000000000000000815260206004820152601060248201527f5061757361626c653a20706175736564000000000000000000000000000000006044820152606401610c7c565b6060600080835160208501865af43d6040519250601f19601f6020830101168301604052808352806000602085013e811560018103612b0857816000803e816000fd5b50505092915050565b612b19612a40565b600080547fffffffffffffffffffffff00ffffffffffffffffffffffffffffffffffffffff16740100000000000000000000000000000000000000001790557f62e78cea01bee320cd4e420270b5ea74000d11b0c9f74754ebdbfc544b05a258612a163390565b600082612b8d8584612d52565b14949350505050565b60405173ffffffffffffffffffffffffffffffffffffffff83166024820152604481018290526118719084907fa9059cbb00000000000000000000000000000000000000000000000000000000906064015b604080517fffffffffffffffffffffffffffffffffffffffffffffffffffffffffffffffe08184030181529190526020810180517bffffffffffffffffffffffffffffffffffffffffffffffffffffffff167fffffffff0000000000000000000000000000000000000000000000000000000090931692909217909152612d9f565b60405173ffffffffffffffffffffffffffffffffffffffff80851660248301528316604482015260648101829052612cc89085907f23b872dd0000000000000000000000000000000000000000000000000000000090608401612be8565b50505050565b60005474010000000000000000000000000000000000000000900460ff1661110b576040517f08c379a000000000000000000000000000000000000000000000000000000000815260206004820152601460248201527f5061757361626c653a206e6f74207061757365640000000000000000000000006044820152606401610c7c565b600081815b8451811015612d9757612d8382868381518110612d7657612d76613935565b6020026020010151612eab565b915080612d8f81613993565b915050612d57565b509392505050565b6000612e01826040518060400160405280602081526020017f5361666545524332303a206c6f772d6c6576656c2063616c6c206661696c65648152508573ffffffffffffffffffffffffffffffffffffffff16612edd9092919063ffffffff16565b8051909150156118715780806020019051810190612e1f9190613be4565b611871576040517f08c379a000000000000000000000000000000000000000000000000000000000815260206004820152602a60248201527f5361666545524332303a204552433230206f7065726174696f6e20646964206e60448201527f6f742073756363656564000000000000000000000000000000000000000000006064820152608401610c7c565b6000818310612ec7576000828152602084905260409020612ed6565b60008381526020839052604090205b9392505050565b6060612eec8484600085612ef4565b949350505050565b606082471015612f86576040517f08c379a000000000000000000000000000000000000000000000000000000000815260206004820152602660248201527f416464726573733a20696e73756666696369656e742062616c616e636520666f60448201527f722063616c6c00000000000000000000000000000000000000000000000000006064820152608401610c7c565b6000808673ffffffffffffffffffffffffffffffffffffffff168587604051612faf9190613c01565b60006040518083038185875af1925050503d8060008114612fec576040519150601f19603f3d011682016040523d82523d6000602084013e612ff1565b606091505b50915091506130028783838761300d565b979650505050505050565b606083156130a357825160000361309c5773ffffffffffffffffffffffffffffffffffffffff85163b61309c576040517f08c379a000000000000000000000000000000000000000000000000000000000815260206004820152601d60248201527f416464726573733a2063616c6c20746f206e6f6e2d636f6e74726163740000006044820152606401610c7c565b5081612eec565b612eec83838151156130b85781518083602001fd5b806040517f08c379a0000000000000000000000000000000000000000000000000000000008152600401610c7c91906132bf565b6020808252825182820181905260009190848201906040850190845b8181101561317b57613168838551805182526020810151602083015260408101516fffffffffffffffffffffffffffffffff808216604085015280606084015116606085015250506080810151608083015260a081015160a08301525050565b9284019260c09290920191600101613108565b50909695505050505050565b60006020828403121561319957600080fd5b5035919050565b6020808252825182820181905260009190848201906040850190845b8181101561317b576131fa83855180518252602081015160208301526040810151604083015260608101516060830152608081015160808301525050565b9284019260a092909201916001016131bc565b803573ffffffffffffffffffffffffffffffffffffffff8116811461323157600080fd5b919050565b60006020828403121561324857600080fd5b612ed68261320d565b60005b8381101561326c578181015183820152602001613254565b50506000910152565b6000815180845261328d816020860160208601613251565b601f017fffffffffffffffffffffffffffffffffffffffffffffffffffffffffffffffe0169290920160200192915050565b602081526000612ed66020830184613275565b600080604083850312156132e557600080fd5b6132ee8361320d565b946020939093013593505050565b801515811461094d57600080fd5b6000806040838503121561331d57600080fd5b6133268361320d565b91506020830135613336816132fc565b809150509250929050565b803564ffffffffff8116811461323157600080fd5b600080600080600060a0868803121561336e57600080fd5b853594506020860135935061338560408701613341565b925061339360608701613341565b91506133a160808701613341565b90509295509295909350565b6000602082840312156133bf57600080fd5b8135612ed6816132fc565b7f4e487b7100000000000000000000000000000000000000000000000000000000600052604160045260246000fd5b604051601f82017fffffffffffffffffffffffffffffffffffffffffffffffffffffffffffffffe016810167ffffffffffffffff81118282101715613440576134406133ca565b604052919050565b600067ffffffffffffffff821115613462576134626133ca565b5060051b60200190565b600082601f83011261347d57600080fd5b813567ffffffffffffffff811115613497576134976133ca565b6134c860207fffffffffffffffffffffffffffffffffffffffffffffffffffffffffffffffe0601f840116016133f9565b8181528460208386010111156134dd57600080fd5b816020850160208301376000918101602001919091529392505050565b600082601f83011261350b57600080fd5b8135602061352061351b83613448565b6133f9565b82815260059290921b8401810191818101908684111561353f57600080fd5b8286015b8481101561357f57803567ffffffffffffffff8111156135635760008081fd5b6135718986838b010161346c565b845250918301918301613543565b509695505050505050565b6000806040838503121561359d57600080fd5b823567ffffffffffffffff808211156135b557600080fd5b818501915085601f8301126135c957600080fd5b813560206135d961351b83613448565b82815260059290921b840181019181810190898411156135f857600080fd5b948201945b8386101561361d5761360e8661320d565b825294820194908201906135fd565b9650508601359250508082111561363357600080fd5b50613640858286016134fa565b9150509250929050565b60008083601f84011261365c57600080fd5b50813567ffffffffffffffff81111561367457600080fd5b6020830191508360208260051b850101111561368f57600080fd5b9250929050565b600080602083850312156136a957600080fd5b823567ffffffffffffffff8111156136c057600080fd5b6136cc8582860161364a565b90969095509350505050565b803560ff8116811461323157600080fd5b60008060008060008060008060e0898b03121561370557600080fd5b61370e8961320d565b97506020890135965061372360408a016136d8565b9550606089013594506080890135935060a089013567ffffffffffffffff8082111561374e57600080fd5b61375a8c838d0161364a565b909550935060c08b013591508082111561377357600080fd5b506137808b828c0161346c565b9150509295985092959890939650565b600080604083850312156137a357600080fd5b50508035926020909101359150565b60c0810161152a8284805182526020810151602083015260408101516fffffffffffffffffffffffffffffffff808216604085015280606084015116606085015250506080810151608083015260a081015160a08301525050565b60008060008060008060c0878903121561382657600080fd5b61382f8761320d565b955060208701359450613844604088016136d8565b9350606087013592506080870135915060a087013567ffffffffffffffff81111561386e57600080fd5b61387a89828a0161346c565b9150509295509295509295565b60408152600061389a6040830185613275565b90508260208301529392505050565b60a0810161152a828480518252602081015160208301526040810151604083015260608101516060830152608081015160808301525050565b600181811c908216806138f657607f821691505b60208210810361392f577f4e487b7100000000000000000000000000000000000000000000000000000000600052602260045260246000fd5b50919050565b7f4e487b7100000000000000000000000000000000000000000000000000000000600052603260045260246000fd5b7f4e487b7100000000000000000000000000000000000000000000000000000000600052601160045260246000fd5b60007fffffffffffffffffffffffffffffffffffffffffffffffffffffffffffffffff82036139c4576139c4613964565b5060010190565b64ffffffffff8181168382160190808211156139e9576139e9613964565b5092915050565b600082357fffffffffffffffffffffffffffffffffffffffffffffffffffffffffffffff21833603018112613a2457600080fd5b9190910192915050565b600060208284031215613a4057600080fd5b612ed6826136d8565b60008083357fffffffffffffffffffffffffffffffffffffffffffffffffffffffffffffffe1843603018112613a7e57600080fd5b83018035915067ffffffffffffffff821115613a9957600080fd5b6020019150600581901b360382131561368f57600080fd5b60008083357fffffffffffffffffffffffffffffffffffffffffffffffffffffffffffffffe1843603018112613ae657600080fd5b83018035915067ffffffffffffffff821115613b0157600080fd5b60200191503681900382131561368f57600080fd5b8181038181111561152a5761152a613964565b60ff8716815285602082015273ffffffffffffffffffffffffffffffffffffffff8516604082015283606082015282608082015260c060a08201526000613b7360c0830184613275565b98975050505050505050565b600082613bb5577f4e487b7100000000000000000000000000000000000000000000000000000000600052601260045260246000fd5b500490565b8082018082111561152a5761152a613964565b808202811582820484141761152a5761152a613964565b600060208284031215613bf657600080fd5b8151612ed6816132fc565b60008251613a2481846020870161325156fea2646970667358221220d195bade61e33c50b987ecfff30df29c8c7e1b1248eec5c95aad166bc1e7cbe064736f6c63430008150033",
  "devdoc": {
    "events": {
      "Paused(address)": {
        "details": "Emitted when the pause is triggered by `account`."
      },
      "Unpaused(address)": {
        "details": "Emitted when the pause is lifted by `account`."
      }
    },
    "kind": "dev",
    "methods": {
      "claim(address,uint256,uint8,bytes32,uint256,bytes32[],bytes)": {
        "params": {
          "cumulativeAmount_": "- cumulative amount of rewards to claim",
          "cycle_": "- cycle of the rewards",
          "merkleProof_": "- merkle proof of the rewards",
          "positionId_": "- id of the position, fToken address for lending and vaultId for vaults",
          "positionType_": "- type of position, 1 for lending, 2 for vaults, 3 for smart lending, etc",
          "recipient_": "- address of the recipient"
        }
      },
      "getActiveRewards()": {
        "returns": {
          "_0": "rewards_ - active rewards"
        }
      },
      "getExpiredRewards()": {
        "returns": {
          "_0": "rewards_ - expired rewards"
        }
      },
      "getRewards()": {
        "returns": {
          "_0": "rewards_ - rewards"
        }
      },
      "getRewardsForRange(uint256,uint256)": {
        "params": {
          "endBlock_": "- end block of the range",
          "startBlock_": "- start block of the range"
        },
        "returns": {
          "_0": "rewards_ - rewards for the range"
        }
      },
      "getUpcomingRewards()": {
        "returns": {
          "_0": "rewards_ - upcoming rewards"
        }
      },
      "initiateRewards(uint256,uint256)": {
        "params": {
          "amount_": "- amount of tokens to initiate rewards for",
          "durationInBlocks_": "- duration of the rewards in blocks"
        }
      },
      "paused()": {
        "details": "Returns true if the contract is paused, and false otherwise."
      },
      "setPullFromSender(bool)": {
        "params": {
          "pullFromSender_": "- whether to pull rewards from sender or not"
        }
      },
      "spell(address[],bytes[])": {
        "details": "open payload method for admin to resolve emergency cases"
      },
      "toggleRewardsDistributor(address)": {
        "params": {
          "distributor_": "- address of the rewards distributor"
        }
      },
      "updateApprover(address,bool)": {
        "params": {
          "approver_": "The address to update",
          "isApprover_": "Whether or not the address should be an allowed approver"
        }
      },
      "updateProposer(address,bool)": {
        "params": {
          "isProposer_": "Whether or not the address should be an allowed proposer",
          "proposer_": "The address to update"
        }
      }
    },
    "version": 1
  },
  "userdoc": {
    "events": {
      "LogClaimed(address,uint256,uint256,uint8,bytes32,uint256,uint256)": {
        "notice": "Emitted when a `user` claims `amount` via a valid merkle proof"
      },
      "LogRootProposed(uint256,bytes32,bytes32,uint256,uint256)": {
        "notice": "Emitted when a new cycle root hash is proposed"
      },
      "LogRootUpdated(uint256,bytes32,bytes32,uint256,uint256)": {
        "notice": "Emitted when a new cycle root hash is approved by the owner and becomes the new active root"
      },
      "LogUpdateApprover(address,bool)": {
        "notice": "Emitted when an address is added or removed from the allowed approvers"
      },
      "LogUpdateProposer(address,bool)": {
        "notice": "Emitted when an address is added or removed from the allowed proposers"
      }
    },
    "kind": "user",
    "methods": {
      "approveRoot(bytes32,bytes32,uint40,uint40,uint40)": {
        "notice": "Approve the current pending root and content hash"
      },
      "blocksPerCycle()": {
        "notice": "Duration of each cycle"
      },
      "claim(address,uint256,uint8,bytes32,uint256,bytes32[],bytes)": {
        "notice": "Claims rewards for a given recipient"
      },
      "claimed(address,bytes32)": {
        "notice": "total claimed amount per user address and fToken. user => positionId => claimed amount"
      },
      "currentMerkleCycle()": {
        "notice": "merkle root data related to current cycle (proposed and approved)."
      },
      "cyclesPerDistribution()": {
        "notice": "Number of cycles to distribute rewards"
      },
      "getActiveRewards()": {
        "notice": "Returns the active rewards"
      },
      "getExpiredRewards()": {
        "notice": "Returns the expired rewards"
      },
      "getRewards()": {
        "notice": "Returns the rewards for TOKEN"
      },
      "getRewardsForRange(uint256,uint256)": {
        "notice": "Returns the rewards for a given range"
      },
      "getUpcomingRewards()": {
        "notice": "Returns the upcoming rewards"
      },
      "hasPendingRoot()": {
        "notice": "checks if there is a proposed root waiting to be approved"
      },
      "initiateRewards(uint256,uint256)": {
        "notice": "Initiates rewards for a given token"
      },
      "isApprover(address)": {
        "notice": "checks if the `approver_` is an allowed root approver"
      },
      "isProposer(address)": {
        "notice": "checks if the `proposer_` is an allowed root proposer"
      },
      "maxBlocksForDistribution()": {
        "notice": "Maximum age of rewards in blocks"
      },
      "pause()": {
        "notice": "Pause contract functionality of new roots and claiming"
      },
      "pendingMerkleCycle()": {
        "notice": "merkle root data related to pending cycle (proposed but not yet approved)."
      },
      "previousMerkleRoot()": {
        "notice": "merkle root of the previous cycle"
      },
      "proposeRoot(bytes32,bytes32,uint40,uint40,uint40)": {
        "notice": "Propose a new root and content hash, which will be stored as pending until approved"
      },
      "pullFromSender()": {
        "notice": "Whether to pull rewards from sender or not"
      },
      "setPullFromSender(bool)": {
        "notice": "Sets whether to pull rewards from sender or not"
      },
      "toggleRewardsDistributor(address)": {
        "notice": "Toggles a rewards distributor"
      },
      "totalCycles()": {
        "notice": "Total number of cycles rewards"
      },
      "unpause()": {
        "notice": "Unpause contract functionality of new roots and claiming"
      },
      "updateApprover(address,bool)": {
        "notice": "Updates an address status as a root approver"
      },
      "updateProposer(address,bool)": {
        "notice": "Updates an address status as a root proposer"
      }
    },
    "version": 1
  },
  "storageLayout": {
    "storage": [
      {
        "astId": 3133,
        "contract": "contracts/protocols/lending/merkleDistributor/main.sol:FluidMerkleDistributor",
        "label": "owner",
        "offset": 0,
        "slot": "0",
        "type": "t_address"
      },
      {
        "astId": 17,
        "contract": "contracts/protocols/lending/merkleDistributor/main.sol:FluidMerkleDistributor",
        "label": "_paused",
        "offset": 20,
        "slot": "0",
        "type": "t_bool"
      },
      {
        "astId": 3079,
        "contract": "contracts/protocols/lending/merkleDistributor/main.sol:FluidMerkleDistributor",
        "label": "name",
        "offset": 0,
        "slot": "1",
        "type": "t_string_storage"
      },
      {
        "astId": 3084,
        "contract": "contracts/protocols/lending/merkleDistributor/main.sol:FluidMerkleDistributor",
        "label": "_proposers",
        "offset": 0,
        "slot": "2",
        "type": "t_mapping(t_address,t_bool)"
      },
      {
        "astId": 3089,
        "contract": "contracts/protocols/lending/merkleDistributor/main.sol:FluidMerkleDistributor",
        "label": "_approvers",
        "offset": 0,
        "slot": "3",
        "type": "t_mapping(t_address,t_bool)"
      },
      {
        "astId": 3093,
        "contract": "contracts/protocols/lending/merkleDistributor/main.sol:FluidMerkleDistributor",
        "label": "_currentMerkleCycle",
        "offset": 0,
        "slot": "4",
        "type": "t_struct(MerkleCycle)3041_storage"
      },
      {
        "astId": 3097,
        "contract": "contracts/protocols/lending/merkleDistributor/main.sol:FluidMerkleDistributor",
        "label": "_pendingMerkleCycle",
        "offset": 0,
        "slot": "7",
        "type": "t_struct(MerkleCycle)3041_storage"
      },
      {
        "astId": 3100,
        "contract": "contracts/protocols/lending/merkleDistributor/main.sol:FluidMerkleDistributor",
        "label": "previousMerkleRoot",
        "offset": 0,
        "slot": "10",
        "type": "t_bytes32"
      },
      {
        "astId": 3107,
        "contract": "contracts/protocols/lending/merkleDistributor/main.sol:FluidMerkleDistributor",
        "label": "claimed",
        "offset": 0,
        "slot": "11",
        "type": "t_mapping(t_address,t_mapping(t_bytes32,t_uint256))"
      },
      {
        "astId": 1940,
        "contract": "contracts/protocols/lending/merkleDistributor/main.sol:FluidMerkleDistributor",
        "label": "cyclesPerDistribution",
        "offset": 0,
        "slot": "12",
        "type": "t_uint256"
      },
      {
        "astId": 1946,
        "contract": "contracts/protocols/lending/merkleDistributor/main.sol:FluidMerkleDistributor",
        "label": "blocksPerCycle",
        "offset": 0,
        "slot": "13",
        "type": "t_uint256"
      },
      {
        "astId": 1952,
        "contract": "contracts/protocols/lending/merkleDistributor/main.sol:FluidMerkleDistributor",
        "label": "maxBlocksForDistribution",
        "offset": 0,
        "slot": "14",
        "type": "t_uint256"
      },
      {
        "astId": 1955,
        "contract": "contracts/protocols/lending/merkleDistributor/main.sol:FluidMerkleDistributor",
        "label": "totalCycles",
        "offset": 0,
        "slot": "15",
        "type": "t_uint256"
      },
      {
        "astId": 1959,
        "contract": "contracts/protocols/lending/merkleDistributor/main.sol:FluidMerkleDistributor",
        "label": "pullFromSender",
        "offset": 0,
        "slot": "16",
        "type": "t_bool"
      },
      {
        "astId": 2029,
        "contract": "contracts/protocols/lending/merkleDistributor/main.sol:FluidMerkleDistributor",
        "label": "rewards",
        "offset": 0,
        "slot": "17",
        "type": "t_array(t_struct(Reward)1970_storage)dyn_storage"
      },
      {
        "astId": 2033,
        "contract": "contracts/protocols/lending/merkleDistributor/main.sol:FluidMerkleDistributor",
        "label": "distributions",
        "offset": 0,
        "slot": "18",
        "type": "t_array(t_struct(Distribution)1983_storage)dyn_storage"
      },
      {
        "astId": 2037,
        "contract": "contracts/protocols/lending/merkleDistributor/main.sol:FluidMerkleDistributor",
        "label": "rewardsDistributor",
        "offset": 0,
        "slot": "19",
        "type": "t_mapping(t_address,t_bool)"
      }
    ],
    "types": {
      "t_address": {
        "encoding": "inplace",
        "label": "address",
        "numberOfBytes": "20"
      },
      "t_array(t_struct(Distribution)1983_storage)dyn_storage": {
        "base": "t_struct(Distribution)1983_storage",
        "encoding": "dynamic_array",
        "label": "struct FluidMerkleDistributorRewards.Distribution[]",
        "numberOfBytes": "32"
      },
      "t_array(t_struct(Reward)1970_storage)dyn_storage": {
        "base": "t_struct(Reward)1970_storage",
        "encoding": "dynamic_array",
        "label": "struct FluidMerkleDistributorRewards.Reward[]",
        "numberOfBytes": "32"
      },
      "t_bool": {
        "encoding": "inplace",
        "label": "bool",
        "numberOfBytes": "1"
      },
      "t_bytes32": {
        "encoding": "inplace",
        "label": "bytes32",
        "numberOfBytes": "32"
      },
      "t_mapping(t_address,t_bool)": {
        "encoding": "mapping",
        "key": "t_address",
        "label": "mapping(address => bool)",
        "numberOfBytes": "32",
        "value": "t_bool"
      },
      "t_mapping(t_address,t_mapping(t_bytes32,t_uint256))": {
        "encoding": "mapping",
        "key": "t_address",
        "label": "mapping(address => mapping(bytes32 => uint256))",
        "numberOfBytes": "32",
        "value": "t_mapping(t_bytes32,t_uint256)"
      },
      "t_mapping(t_bytes32,t_uint256)": {
        "encoding": "mapping",
        "key": "t_bytes32",
        "label": "mapping(bytes32 => uint256)",
        "numberOfBytes": "32",
        "value": "t_uint256"
      },
      "t_string_storage": {
        "encoding": "bytes",
        "label": "string",
        "numberOfBytes": "32"
      },
      "t_struct(Distribution)1983_storage": {
        "encoding": "inplace",
        "label": "struct FluidMerkleDistributorRewards.Distribution",
        "members": [
          {
            "astId": 1972,
            "contract": "contracts/protocols/lending/merkleDistributor/main.sol:FluidMerkleDistributor",
            "label": "amount",
            "offset": 0,
            "slot": "0",
            "type": "t_uint256"
          },
          {
            "astId": 1974,
            "contract": "contracts/protocols/lending/merkleDistributor/main.sol:FluidMerkleDistributor",
            "label": "epoch",
            "offset": 0,
            "slot": "1",
            "type": "t_uint256"
          },
          {
            "astId": 1976,
            "contract": "contracts/protocols/lending/merkleDistributor/main.sol:FluidMerkleDistributor",
            "label": "registrationBlock",
            "offset": 0,
            "slot": "2",
            "type": "t_uint128"
          },
          {
            "astId": 1978,
            "contract": "contracts/protocols/lending/merkleDistributor/main.sol:FluidMerkleDistributor",
            "label": "registrationTimestamp",
            "offset": 16,
            "slot": "2",
            "type": "t_uint128"
          },
          {
            "astId": 1980,
            "contract": "contracts/protocols/lending/merkleDistributor/main.sol:FluidMerkleDistributor",
            "label": "startCycle",
            "offset": 0,
            "slot": "3",
            "type": "t_uint256"
          },
          {
            "astId": 1982,
            "contract": "contracts/protocols/lending/merkleDistributor/main.sol:FluidMerkleDistributor",
            "label": "endCycle",
            "offset": 0,
            "slot": "4",
            "type": "t_uint256"
          }
        ],
        "numberOfBytes": "160"
      },
      "t_struct(MerkleCycle)3041_storage": {
        "encoding": "inplace",
        "label": "struct Structs.MerkleCycle",
        "members": [
          {
            "astId": 3028,
            "contract": "contracts/protocols/lending/merkleDistributor/main.sol:FluidMerkleDistributor",
            "label": "merkleRoot",
            "offset": 0,
            "slot": "0",
            "type": "t_bytes32"
          },
          {
            "astId": 3030,
            "contract": "contracts/protocols/lending/merkleDistributor/main.sol:FluidMerkleDistributor",
            "label": "merkleContentHash",
            "offset": 0,
            "slot": "1",
            "type": "t_bytes32"
          },
          {
            "astId": 3032,
            "contract": "contracts/protocols/lending/merkleDistributor/main.sol:FluidMerkleDistributor",
            "label": "cycle",
            "offset": 0,
            "slot": "2",
            "type": "t_uint40"
          },
          {
            "astId": 3034,
            "contract": "contracts/protocols/lending/merkleDistributor/main.sol:FluidMerkleDistributor",
            "label": "timestamp",
            "offset": 5,
            "slot": "2",
            "type": "t_uint40"
          },
          {
            "astId": 3036,
            "contract": "contracts/protocols/lending/merkleDistributor/main.sol:FluidMerkleDistributor",
            "label": "publishBlock",
            "offset": 10,
            "slot": "2",
            "type": "t_uint40"
          },
          {
            "astId": 3038,
            "contract": "contracts/protocols/lending/merkleDistributor/main.sol:FluidMerkleDistributor",
            "label": "startBlock",
            "offset": 15,
            "slot": "2",
            "type": "t_uint40"
          },
          {
            "astId": 3040,
            "contract": "contracts/protocols/lending/merkleDistributor/main.sol:FluidMerkleDistributor",
            "label": "endBlock",
            "offset": 20,
            "slot": "2",
            "type": "t_uint40"
          }
        ],
        "numberOfBytes": "96"
      },
      "t_struct(Reward)1970_storage": {
        "encoding": "inplace",
        "label": "struct FluidMerkleDistributorRewards.Reward",
        "members": [
          {
            "astId": 1961,
            "contract": "contracts/protocols/lending/merkleDistributor/main.sol:FluidMerkleDistributor",
            "label": "amount",
            "offset": 0,
            "slot": "0",
            "type": "t_uint256"
          },
          {
            "astId": 1963,
            "contract": "contracts/protocols/lending/merkleDistributor/main.sol:FluidMerkleDistributor",
            "label": "cycle",
            "offset": 0,
            "slot": "1",
            "type": "t_uint256"
          },
          {
            "astId": 1965,
            "contract": "contracts/protocols/lending/merkleDistributor/main.sol:FluidMerkleDistributor",
            "label": "startBlock",
            "offset": 0,
            "slot": "2",
            "type": "t_uint256"
          },
          {
            "astId": 1967,
            "contract": "contracts/protocols/lending/merkleDistributor/main.sol:FluidMerkleDistributor",
            "label": "endBlock",
            "offset": 0,
            "slot": "3",
            "type": "t_uint256"
          },
          {
            "astId": 1969,
            "contract": "contracts/protocols/lending/merkleDistributor/main.sol:FluidMerkleDistributor",
            "label": "epoch",
            "offset": 0,
            "slot": "4",
            "type": "t_uint256"
          }
        ],
        "numberOfBytes": "160"
      },
      "t_uint128": {
        "encoding": "inplace",
        "label": "uint128",
        "numberOfBytes": "16"
      },
      "t_uint256": {
        "encoding": "inplace",
        "label": "uint256",
        "numberOfBytes": "32"
      },
      "t_uint40": {
        "encoding": "inplace",
        "label": "uint40",
        "numberOfBytes": "5"
      }
    }
  }
}