{
  "address": "0xa6F89590b6eDB957038d33D34c86193490006DB3",
  "abi": [
    {
      "inputs": [
        {
          "internalType": "string",
          "name": "infoName_",
          "type": "string"
        },
        {
          "internalType": "uint8",
          "name": "targetDecimals_",
          "type": "uint8"
        },
        {
          "components": [
            {
              "internalType": "address",
              "name": "source",
              "type": "address"
            },
            {
              "internalType": "bool",
              "name": "invertRate",
              "type": "bool"
            },
            {
              "internalType": "uint256",
              "name": "multiplier",
              "type": "uint256"
            },
            {
              "internalType": "uint256",
              "name": "divisor",
              "type": "uint256"
            },
            {
              "internalType": "enum GenericOracleStructs.SourceType",
              "name": "sourceType",
              "type": "uint8"
            }
          ],
          "internalType": "struct GenericOracleStructs.OracleHopSource[]",
          "name": "sources_",
          "type": "tuple[]"
        }
      ],
      "stateMutability": "nonpayable",
      "type": "constructor"
    },
    {
      "inputs": [
        {
          "internalType": "uint256",
          "name": "errorId_",
          "type": "uint256"
        }
      ],
      "name": "FluidOracleError",
      "type": "error"
    },
    {
      "inputs": [],
      "name": "getExchangeRate",
      "outputs": [
        {
          "internalType": "uint256",
          "name": "exchangeRate_",
          "type": "uint256"
        }
      ],
      "stateMutability": "view",
      "type": "function"
    },
    {
      "inputs": [],
      "name": "getExchangeRateLiquidate",
      "outputs": [
        {
          "internalType": "uint256",
          "name": "exchangeRate_",
          "type": "uint256"
        }
      ],
      "stateMutability": "view",
      "type": "function"
    },
    {
      "inputs": [],
      "name": "getExchangeRateOperate",
      "outputs": [
        {
          "internalType": "uint256",
          "name": "exchangeRate_",
          "type": "uint256"
        }
      ],
      "stateMutability": "view",
      "type": "function"
    },
    {
      "inputs": [],
      "name": "getHopExchangeRates",
      "outputs": [
        {
          "internalType": "uint256",
          "name": "rateSource1Operate_",
          "type": "uint256"
        },
        {
          "internalType": "uint256",
          "name": "rateSource1Liquidate_",
          "type": "uint256"
        },
        {
          "internalType": "uint256",
          "name": "rateSource2Operate_",
          "type": "uint256"
        },
        {
          "internalType": "uint256",
          "name": "rateSource2Liquidate_",
          "type": "uint256"
        },
        {
          "internalType": "uint256",
          "name": "rateSource3Operate_",
          "type": "uint256"
        },
        {
          "internalType": "uint256",
          "name": "rateSource3Liquidate_",
          "type": "uint256"
        },
        {
          "internalType": "uint256",
          "name": "rateSource4Operate_",
          "type": "uint256"
        },
        {
          "internalType": "uint256",
          "name": "rateSource4Liquidate_",
          "type": "uint256"
        },
        {
          "internalType": "uint256",
          "name": "rateSource5Operate_",
          "type": "uint256"
        },
        {
          "internalType": "uint256",
          "name": "rateSource5Liquidate_",
          "type": "uint256"
        }
      ],
      "stateMutability": "view",
      "type": "function"
    },
    {
      "inputs": [],
      "name": "getOracleHopSources",
      "outputs": [
        {
          "components": [
            {
              "internalType": "address",
              "name": "source",
              "type": "address"
            },
            {
              "internalType": "bool",
              "name": "invertRate",
              "type": "bool"
            },
            {
              "internalType": "uint256",
              "name": "multiplier",
              "type": "uint256"
            },
            {
              "internalType": "uint256",
              "name": "divisor",
              "type": "uint256"
            },
            {
              "internalType": "enum GenericOracleStructs.SourceType",
              "name": "sourceType",
              "type": "uint8"
            }
          ],
          "internalType": "struct GenericOracleStructs.OracleHopSource[]",
          "name": "sources_",
          "type": "tuple[]"
        }
      ],
      "stateMutability": "view",
      "type": "function"
    },
    {
      "inputs": [],
      "name": "infoName",
      "outputs": [
        {
          "internalType": "string",
          "name": "",
          "type": "string"
        }
      ],
      "stateMutability": "view",
      "type": "function"
    },
    {
      "inputs": [],
      "name": "targetDecimals",
      "outputs": [
        {
          "internalType": "uint8",
          "name": "",
          "type": "uint8"
        }
      ],
      "stateMutability": "view",
      "type": "function"
    }
  ],
  "transactionHash": "0xec97f2760cd8c9d779550c6c3abfc6110947e7275cb87870590ae7818d4ee2c2",
  "args": [
    "USDT per 1 BTCB",
    27,
    [
      {
        "sourceType": 2,
        "source": "0x264990fbd0A4796A3E3d8E37C4d5F87a3aCa5Ebf",
        "invertRate": false,
        "multiplier": "10000000000000000000",
        "divisor": 1
      }
    ]
  ],
  "numDeployments": 1,
  "solcInputHash": "df6c0f23a3a9f16ceceb0338baddb4a7",
  "bytecode": "0x6103e06040523480156200001257600080fd5b50604051620032ef380380620032ef83398101604081905262000035916200090e565b8083836020825111806200004857508151155b15620000705760405163c82fc46560e01b815261ea6a60048201526024015b60405180910390fd5b600f8160ff16108062000086575060278160ff16115b15620000aa5760405163c82fc46560e01b815261ebf1600482015260240162000067565b60ff1660a0526020015160805280511580620000c7575060058151115b15620000eb5760405163c82fc46560e01b815261ebf1600482015260240162000067565b6200011981600081518110620001055762000105620009fb565b6020026020010151620006cc60201b60201c565b806000815181106200012f576200012f620009fb565b6020908102919091010151516001600160a01b031660c052805181906000906200015d576200015d620009fb565b602002602001015160200151151560e081151581525050806000815181106200018a576200018a620009fb565b602002602001015160400151610100818152505080600081518110620001b457620001b4620009fb565b602002602001015160600151610120818152505080600081518110620001de57620001de620009fb565b6020026020010151608001516004811115620001fe57620001fe62000a11565b61014081600481111562000216576200021662000a11565b8152505060018151111562000344576200023f81600181518110620001055762000105620009fb565b80600181518110620002555762000255620009fb565b6020908102919091010151516001600160a01b031661016052805181906001908110620002865762000286620009fb565b60200260200101516020015115156101808115158152505080600181518110620002b457620002b4620009fb565b6020026020010151604001516101a0818152505080600181518110620002de57620002de620009fb565b6020026020010151606001516101c0818152505080600181518110620003085762000308620009fb565b602002602001015160800151600481111562000328576200032862000a11565b6101e081600481111562000340576200034062000a11565b9052505b6002815111156200046e576200036981600281518110620001055762000105620009fb565b806002815181106200037f576200037f620009fb565b6020908102919091010151516001600160a01b031661020052805181906002908110620003b057620003b0620009fb565b60200260200101516020015115156102208115158152505080600281518110620003de57620003de620009fb565b602002602001015160400151610240818152505080600281518110620004085762000408620009fb565b602002602001015160600151610260818152505080600281518110620004325762000432620009fb565b602002602001015160800151600481111562000452576200045262000a11565b6102808160048111156200046a576200046a62000a11565b9052505b60038151111562000598576200049381600381518110620001055762000105620009fb565b80600381518110620004a957620004a9620009fb565b6020908102919091010151516001600160a01b03166102a052805181906003908110620004da57620004da620009fb565b60200260200101516020015115156102c08115158152505080600381518110620005085762000508620009fb565b6020026020010151604001516102e0818152505080600381518110620005325762000532620009fb565b6020026020010151606001516103008181525050806003815181106200055c576200055c620009fb565b60200260200101516080015160048111156200057c576200057c62000a11565b61032081600481111562000594576200059462000a11565b9052505b600481511115620006c257620005bd81600481518110620001055762000105620009fb565b80600481518110620005d357620005d3620009fb565b6020908102919091010151516001600160a01b031661034052805181906004908110620006045762000604620009fb565b60200260200101516020015115156103608115158152505080600481518110620006325762000632620009fb565b6020026020010151604001516103808181525050806004815181106200065c576200065c620009fb565b6020026020010151606001516103a0818152505080600481518110620006865762000686620009fb565b6020026020010151608001516004811115620006a657620006a662000a11565b6103c0816004811115620006be57620006be62000a11565b9052505b5050505062000a27565b80516001600160a01b03161580620006fc5750600381608001516004811115620006fa57620006fa62000a11565b145b806200070a57506060810151155b806200071857506040810151155b80620007385750701d6329f1c35ca4bfabb9f56100000000008160600151115b80620007585750701d6329f1c35ca4bfabb9f56100000000008160400151115b156200077c5760405163c82fc46560e01b815261ebf1600482015260240162000067565b50565b634e487b7160e01b600052604160045260246000fd5b60405160a081016001600160401b0381118282101715620007ba57620007ba6200077f565b60405290565b604051601f8201601f191681016001600160401b0381118282101715620007eb57620007eb6200077f565b604052919050565b805160ff811681146200080557600080fd5b919050565b600082601f8301126200081c57600080fd5b815160206001600160401b038211156200083a576200083a6200077f565b60056200084b8284831b01620007c0565b83815260a093840286018301938382019190888611156200086b57600080fd5b8488015b86811015620009005781818b031215620008895760008081fd5b6200089362000795565b81516001600160a01b0381168114620008ac5760008081fd5b8152818701518015158114620008c25760008081fd5b818801526040828101519082015260608083015190820152608080830151878110620008ee5760008081fd5b9082015284529285019281016200086f565b509098975050505050505050565b6000806000606084860312156200092457600080fd5b83516001600160401b03808211156200093c57600080fd5b818601915086601f8301126200095157600080fd5b8151818111156200096657620009666200077f565b60206200097c601f8301601f19168201620007c0565b82815289828487010111156200099157600080fd5b60005b83811015620009b157858101830151828201840152820162000994565b5060008184018301529650620009c9888201620007f3565b955050506040860151915080821115620009e257600080fd5b50620009f1868287016200080a565b9150509250925092565b634e487b7160e01b600052603260045260246000fd5b634e487b7160e01b600052602160045260246000fd5b60805160a05160c05160e05161010051610120516101405161016051610180516101a0516101c0516101e05161020051610220516102405161026051610280516102a0516102c0516102e05161030051610320516103405161036051610380516103a0516103c05161250e62000de1600039600081816106b401528181611233015281816113380152818161143801528181611b1c0152611c1b01526000818161068e01528181611312015281816114120152611bf5015260008181610668015281816112ec015281816113ec0152611bcf015260008181610640015281816112c4015281816113c40152611ba7015260008181610604015281816111f2015281816112880152818161138801528181611adb0152611b6b0152600081816105a601528181610fb8015281816110bd015281816111bd0152818161196a0152611a6901526000818161058001528181611097015281816111970152611a4301526000818161055a01528181611071015281816111710152611a1d015260008181610532015281816110490152818161114901526119f50152600081816104f601528181610f770152818161100d0152818161110d0152818161192901526119b901526000818161049801528181610d3d01528181610e4201528181610f42015281816117b801526118b701526000818161047201528181610e1c01528181610f1c015261189101526000818161044c01528181610df601528181610ef6015261186b01526000818161042401528181610dce01528181610ece01526118430152600081816103e801528181610cfc01528181610d9201528181610e9201528181611777015261180701526000818161038a01528181610ac201528181610bc701528181610cc701528181611606015261170501526000818161036401528181610ba101528181610ca101526116df01526000818161033e01528181610b7b01528181610c7b01526116b901526000818161031601528181610b5301528181610c5301526116910152600081816102da01528181610a8101528181610b1701528181610c17015281816115c5015261165501526000818161027c0152818161094601528181610a4d015261154e0152600081816102560152818161092001528181610a270152611528015260008181610230015281816108fa01528181610a010152611502015260008181610208015281816108d2015281816109d901526114da0152600081816101cc015281816108960152818161099d015261149e01526000608901526000818161071a01526107df015261250e6000f3fe608060405234801561001057600080fd5b506004361061007d5760003560e01c8063abd5f95d1161005b578063abd5f95d146100e3578063d643a8cf146100f8578063e6aa216c1461014a578063f3190c891461014a57600080fd5b806336c1387e146100825780638e7bfbc0146100b857806394f253ef146100ce575b600080fd5b60405160ff7f00000000000000000000000000000000000000000000000000000000000000001681526020015b60405180910390f35b6100c0610152565b6040519081526020016100af565b6100d6610163565b6040516100af91906120e9565b6100eb610708565b6040516100af91906121a6565b61010061086d565b604080519a8b5260208b0199909952978901969096526060880194909452608087019290925260a086015260c085015260e0840152610100830152610120820152610140016100af565b6100c0611477565b600061015e600161147f565b905090565b60408051600580825260c08201909252606091816020015b6101aa6040805160a0810182526000808252602082018190529181018290526060810182905290608082015290565b81526020019060019003908161017b5790505090506040518060a001604052807f000000000000000000000000000000000000000000000000000000000000000073ffffffffffffffffffffffffffffffffffffffff1681526020017f0000000000000000000000000000000000000000000000000000000000000000151581526020017f000000000000000000000000000000000000000000000000000000000000000081526020017f000000000000000000000000000000000000000000000000000000000000000081526020017f000000000000000000000000000000000000000000000000000000000000000060048111156102ac576102ac6120ba565b815250816000815181106102c2576102c2612241565b60200260200101819052506040518060a001604052807f000000000000000000000000000000000000000000000000000000000000000073ffffffffffffffffffffffffffffffffffffffff1681526020017f0000000000000000000000000000000000000000000000000000000000000000151581526020017f000000000000000000000000000000000000000000000000000000000000000081526020017f000000000000000000000000000000000000000000000000000000000000000081526020017f000000000000000000000000000000000000000000000000000000000000000060048111156103ba576103ba6120ba565b815250816001815181106103d0576103d0612241565b60200260200101819052506040518060a001604052807f000000000000000000000000000000000000000000000000000000000000000073ffffffffffffffffffffffffffffffffffffffff1681526020017f0000000000000000000000000000000000000000000000000000000000000000151581526020017f000000000000000000000000000000000000000000000000000000000000000081526020017f000000000000000000000000000000000000000000000000000000000000000081526020017f000000000000000000000000000000000000000000000000000000000000000060048111156104c8576104c86120ba565b815250816002815181106104de576104de612241565b60200260200101819052506040518060a001604052807f000000000000000000000000000000000000000000000000000000000000000073ffffffffffffffffffffffffffffffffffffffff1681526020017f0000000000000000000000000000000000000000000000000000000000000000151581526020017f000000000000000000000000000000000000000000000000000000000000000081526020017f000000000000000000000000000000000000000000000000000000000000000081526020017f000000000000000000000000000000000000000000000000000000000000000060048111156105d6576105d66120ba565b815250816003815181106105ec576105ec612241565b60200260200101819052506040518060a001604052807f000000000000000000000000000000000000000000000000000000000000000073ffffffffffffffffffffffffffffffffffffffff1681526020017f0000000000000000000000000000000000000000000000000000000000000000151581526020017f000000000000000000000000000000000000000000000000000000000000000081526020017f000000000000000000000000000000000000000000000000000000000000000081526020017f000000000000000000000000000000000000000000000000000000000000000060048111156106e4576106e46120ba565b815250816004815181106106fa576106fa612241565b602002602001018190525090565b606060005b60208110801561077357507f0000000000000000000000000000000000000000000000000000000000000000816020811061074a5761074a612241565b1a60f81b7fff000000000000000000000000000000000000000000000000000000000000001615155b1561078a57806107828161229f565b91505061070d565b60008167ffffffffffffffff8111156107a5576107a5612212565b6040519080825280601f01601f1916602001820160405280156107cf576020820181803683370190505b50905060005b82811015610866577f0000000000000000000000000000000000000000000000000000000000000000816020811061080f5761080f612241565b1a60f81b82828151811061082557610825612241565b60200101907effffffffffffffffffffffffffffffffffffffffffffffffffffffffffffff1916908160001a9053508061085e8161229f565b9150506107d5565b5092915050565b600080808080808080808061097d610887601b600a6123f7565b60016040518060a001604052807f000000000000000000000000000000000000000000000000000000000000000073ffffffffffffffffffffffffffffffffffffffff1681526020017f0000000000000000000000000000000000000000000000000000000000000000151581526020017f000000000000000000000000000000000000000000000000000000000000000081526020017f000000000000000000000000000000000000000000000000000000000000000081526020017f00000000000000000000000000000000000000000000000000000000000000006004811115610976576109766120ba565b9052611c90565b9950610a7d61098e601b600a6123f7565b60006040518060a001604052807f000000000000000000000000000000000000000000000000000000000000000073ffffffffffffffffffffffffffffffffffffffff1681526020017f0000000000000000000000000000000000000000000000000000000000000000151581526020017f000000000000000000000000000000000000000000000000000000000000000081526020017f000000000000000000000000000000000000000000000000000000000000000081526020017f00000000000000000000000000000000000000000000000000000000000000006004811115610976576109766120ba565b98507f000000000000000000000000000000000000000000000000000000000000000073ffffffffffffffffffffffffffffffffffffffff16151580610af4575060037f00000000000000000000000000000000000000000000000000000000000000006004811115610af257610af26120ba565b145b15610cfa57610bf7610b08601b600a6123f7565b60016040518060a001604052807f000000000000000000000000000000000000000000000000000000000000000073ffffffffffffffffffffffffffffffffffffffff1681526020017f0000000000000000000000000000000000000000000000000000000000000000151581526020017f000000000000000000000000000000000000000000000000000000000000000081526020017f000000000000000000000000000000000000000000000000000000000000000081526020017f00000000000000000000000000000000000000000000000000000000000000006004811115610976576109766120ba565b9750610cf7610c08601b600a6123f7565b60006040518060a001604052807f000000000000000000000000000000000000000000000000000000000000000073ffffffffffffffffffffffffffffffffffffffff1681526020017f0000000000000000000000000000000000000000000000000000000000000000151581526020017f000000000000000000000000000000000000000000000000000000000000000081526020017f000000000000000000000000000000000000000000000000000000000000000081526020017f00000000000000000000000000000000000000000000000000000000000000006004811115610976576109766120ba565b96505b7f000000000000000000000000000000000000000000000000000000000000000073ffffffffffffffffffffffffffffffffffffffff16151580610d6f575060037f00000000000000000000000000000000000000000000000000000000000000006004811115610d6d57610d6d6120ba565b145b15610f7557610e72610d83601b600a6123f7565b60016040518060a001604052807f000000000000000000000000000000000000000000000000000000000000000073ffffffffffffffffffffffffffffffffffffffff1681526020017f0000000000000000000000000000000000000000000000000000000000000000151581526020017f000000000000000000000000000000000000000000000000000000000000000081526020017f000000000000000000000000000000000000000000000000000000000000000081526020017f00000000000000000000000000000000000000000000000000000000000000006004811115610976576109766120ba565b9550610f72610e83601b600a6123f7565b60006040518060a001604052807f000000000000000000000000000000000000000000000000000000000000000073ffffffffffffffffffffffffffffffffffffffff1681526020017f0000000000000000000000000000000000000000000000000000000000000000151581526020017f000000000000000000000000000000000000000000000000000000000000000081526020017f000000000000000000000000000000000000000000000000000000000000000081526020017f00000000000000000000000000000000000000000000000000000000000000006004811115610976576109766120ba565b94505b7f000000000000000000000000000000000000000000000000000000000000000073ffffffffffffffffffffffffffffffffffffffff16151580610fea575060037f00000000000000000000000000000000000000000000000000000000000000006004811115610fe857610fe86120ba565b145b156111f0576110ed610ffe601b600a6123f7565b60016040518060a001604052807f000000000000000000000000000000000000000000000000000000000000000073ffffffffffffffffffffffffffffffffffffffff1681526020017f0000000000000000000000000000000000000000000000000000000000000000151581526020017f000000000000000000000000000000000000000000000000000000000000000081526020017f000000000000000000000000000000000000000000000000000000000000000081526020017f00000000000000000000000000000000000000000000000000000000000000006004811115610976576109766120ba565b93506111ed6110fe601b600a6123f7565b60006040518060a001604052807f000000000000000000000000000000000000000000000000000000000000000073ffffffffffffffffffffffffffffffffffffffff1681526020017f0000000000000000000000000000000000000000000000000000000000000000151581526020017f000000000000000000000000000000000000000000000000000000000000000081526020017f000000000000000000000000000000000000000000000000000000000000000081526020017f00000000000000000000000000000000000000000000000000000000000000006004811115610976576109766120ba565b92505b7f000000000000000000000000000000000000000000000000000000000000000073ffffffffffffffffffffffffffffffffffffffff16151580611265575060037f00000000000000000000000000000000000000000000000000000000000000006004811115611263576112636120ba565b145b1561146b57611368611279601b600a6123f7565b60016040518060a001604052807f000000000000000000000000000000000000000000000000000000000000000073ffffffffffffffffffffffffffffffffffffffff1681526020017f0000000000000000000000000000000000000000000000000000000000000000151581526020017f000000000000000000000000000000000000000000000000000000000000000081526020017f000000000000000000000000000000000000000000000000000000000000000081526020017f00000000000000000000000000000000000000000000000000000000000000006004811115610976576109766120ba565b9150611468611379601b600a6123f7565b60006040518060a001604052807f000000000000000000000000000000000000000000000000000000000000000073ffffffffffffffffffffffffffffffffffffffff1681526020017f0000000000000000000000000000000000000000000000000000000000000000151581526020017f000000000000000000000000000000000000000000000000000000000000000081526020017f000000000000000000000000000000000000000000000000000000000000000081526020017f00000000000000000000000000000000000000000000000000000000000000006004811115610976576109766120ba565b90505b90919293949596979899565b600061015e60005b600061157e611490601b600a6123f7565b836040518060a001604052807f000000000000000000000000000000000000000000000000000000000000000073ffffffffffffffffffffffffffffffffffffffff1681526020017f0000000000000000000000000000000000000000000000000000000000000000151581526020017f000000000000000000000000000000000000000000000000000000000000000081526020017f000000000000000000000000000000000000000000000000000000000000000081526020017f00000000000000000000000000000000000000000000000000000000000000006004811115610976576109766120ba565b9050806000036115c3576040517fc82fc46500000000000000000000000000000000000000000000000000000000815261ebf360048201526024015b60405180910390fd5b7f000000000000000000000000000000000000000000000000000000000000000073ffffffffffffffffffffffffffffffffffffffff16158015611639575060037f00000000000000000000000000000000000000000000000000000000000000006004811115611636576116366120ba565b14155b1561164357919050565b61173581836040518060a001604052807f000000000000000000000000000000000000000000000000000000000000000073ffffffffffffffffffffffffffffffffffffffff1681526020017f0000000000000000000000000000000000000000000000000000000000000000151581526020017f000000000000000000000000000000000000000000000000000000000000000081526020017f000000000000000000000000000000000000000000000000000000000000000081526020017f00000000000000000000000000000000000000000000000000000000000000006004811115610976576109766120ba565b905080600003611775576040517fc82fc46500000000000000000000000000000000000000000000000000000000815261ebf360048201526024016115ba565b7f000000000000000000000000000000000000000000000000000000000000000073ffffffffffffffffffffffffffffffffffffffff161580156117eb575060037f000000000000000000000000000000000000000000000000000000000000000060048111156117e8576117e86120ba565b14155b156117f557919050565b6118e781836040518060a001604052807f000000000000000000000000000000000000000000000000000000000000000073ffffffffffffffffffffffffffffffffffffffff1681526020017f0000000000000000000000000000000000000000000000000000000000000000151581526020017f000000000000000000000000000000000000000000000000000000000000000081526020017f000000000000000000000000000000000000000000000000000000000000000081526020017f00000000000000000000000000000000000000000000000000000000000000006004811115610976576109766120ba565b905080600003611927576040517fc82fc46500000000000000000000000000000000000000000000000000000000815261ebf360048201526024016115ba565b7f000000000000000000000000000000000000000000000000000000000000000073ffffffffffffffffffffffffffffffffffffffff1615801561199d575060037f0000000000000000000000000000000000000000000000000000000000000000600481111561199a5761199a6120ba565b14155b156119a757919050565b611a9981836040518060a001604052807f000000000000000000000000000000000000000000000000000000000000000073ffffffffffffffffffffffffffffffffffffffff1681526020017f0000000000000000000000000000000000000000000000000000000000000000151581526020017f000000000000000000000000000000000000000000000000000000000000000081526020017f000000000000000000000000000000000000000000000000000000000000000081526020017f00000000000000000000000000000000000000000000000000000000000000006004811115610976576109766120ba565b905080600003611ad9576040517fc82fc46500000000000000000000000000000000000000000000000000000000815261ebf360048201526024016115ba565b7f000000000000000000000000000000000000000000000000000000000000000073ffffffffffffffffffffffffffffffffffffffff16158015611b4f575060037f00000000000000000000000000000000000000000000000000000000000000006004811115611b4c57611b4c6120ba565b14155b15611b5957919050565b611c4b81836040518060a001604052807f000000000000000000000000000000000000000000000000000000000000000073ffffffffffffffffffffffffffffffffffffffff1681526020017f0000000000000000000000000000000000000000000000000000000000000000151581526020017f000000000000000000000000000000000000000000000000000000000000000081526020017f000000000000000000000000000000000000000000000000000000000000000081526020017f00000000000000000000000000000000000000000000000000000000000000006004811115610976576109766120ba565b905080600003611c8b576040517fc82fc46500000000000000000000000000000000000000000000000000000000815261ebf360048201526024016115ba565b919050565b6000611ca58260000151836080015185611d2b565b90508160600151826040015182611cbc9190612403565b611cc6919061241a565b905081602001518015611cd95750600081115b15611d035780611ceb601b6002612403565b611cf690600a6123f7565b611d00919061241a565b90505b611d0f601b600a6123f7565b611d198286612403565b611d23919061241a565b949350505050565b60006001836004811115611d4157611d416120ba565b1480611d5e57506002836004811115611d5c57611d5c6120ba565b145b15611d7357611d6c84611df6565b9050611def565b6000836004811115611d8757611d876120ba565b03611d9657611d6c8483611e8d565b6004836004811115611daa57611daa6120ba565b03611db957611d6c8483611fae565b6040517fc82fc46500000000000000000000000000000000000000000000000000000000815261ebf260048201526024016115ba565b9392505050565b60008173ffffffffffffffffffffffffffffffffffffffff1663feaf968c6040518163ffffffff1660e01b815260040160a060405180830381865afa925050508015611e7d575060408051601f3d9081017fffffffffffffffffffffffffffffffffffffffffffffffffffffffffffffffe0168201909252611e7a9181019061246f565b60015b15611c8b57509195945050505050565b60008115611f26578273ffffffffffffffffffffffffffffffffffffffff16638e7bfbc06040518163ffffffff1660e01b8152600401602060405180830381865afa925050508015611f1a575060408051601f3d9081017fffffffffffffffffffffffffffffffffffffffffffffffffffffffffffffffe0168201909252611f17918101906124bf565b60015b15611fa8579050611fa8565b8273ffffffffffffffffffffffffffffffffffffffff1663f3190c896040518163ffffffff1660e01b8152600401602060405180830381865afa925050508015611f1a575060408051601f3d9081017fffffffffffffffffffffffffffffffffffffffffffffffffffffffffffffffe0168201909252611f17918101906124bf565b92915050565b60008115612038578273ffffffffffffffffffffffffffffffffffffffff166313d368a76040518163ffffffff1660e01b8152600401602060405180830381865afa925050508015611f1a575060408051601f3d9081017fffffffffffffffffffffffffffffffffffffffffffffffffffffffffffffffe0168201909252611f17918101906124bf565b8273ffffffffffffffffffffffffffffffffffffffff1663046646246040518163ffffffff1660e01b8152600401602060405180830381865afa925050508015611f1a575060408051601f3d9081017fffffffffffffffffffffffffffffffffffffffffffffffffffffffffffffffe0168201909252611f17918101906124bf565b7f4e487b7100000000000000000000000000000000000000000000000000000000600052602160045260246000fd5b60208082528251828201819052600091906040908185019086840185805b83811015612198578251805173ffffffffffffffffffffffffffffffffffffffff168652878101511515888701528681015187870152606080820151908701526080908101519060058210612183577f4e487b710000000000000000000000000000000000000000000000000000000084526021600452602484fd5b86015260a09094019391860191600101612107565b509298975050505050505050565b600060208083528351808285015260005b818110156121d3578581018301518582016040015282016121b7565b5060006040828601015260407fffffffffffffffffffffffffffffffffffffffffffffffffffffffffffffffe0601f8301168501019250505092915050565b7f4e487b7100000000000000000000000000000000000000000000000000000000600052604160045260246000fd5b7f4e487b7100000000000000000000000000000000000000000000000000000000600052603260045260246000fd5b7f4e487b7100000000000000000000000000000000000000000000000000000000600052601160045260246000fd5b60007fffffffffffffffffffffffffffffffffffffffffffffffffffffffffffffffff82036122d0576122d0612270565b5060010190565b600181815b8085111561233057817fffffffffffffffffffffffffffffffffffffffffffffffffffffffffffffffff0482111561231657612316612270565b8085161561232357918102915b93841c93908002906122dc565b509250929050565b60008261234757506001611fa8565b8161235457506000611fa8565b816001811461236a576002811461237457612390565b6001915050611fa8565b60ff84111561238557612385612270565b50506001821b611fa8565b5060208310610133831016604e8410600b84101617156123b3575081810a611fa8565b6123bd83836122d7565b807fffffffffffffffffffffffffffffffffffffffffffffffffffffffffffffffff048211156123ef576123ef612270565b029392505050565b6000611def8383612338565b8082028115828204841417611fa857611fa8612270565b600082612450577f4e487b7100000000000000000000000000000000000000000000000000000000600052601260045260246000fd5b500490565b805169ffffffffffffffffffff81168114611c8b57600080fd5b600080600080600060a0868803121561248757600080fd5b61249086612455565b94506020860151935060408601519250606086015191506124b360808701612455565b90509295509295909350565b6000602082840312156124d157600080fd5b505191905056fea2646970667358221220ff9a46c1bb7089e4c66c70c88a5068297e2f0cbf7a393d9f5dea1db0b51b3c8f64736f6c63430008150033",
  "devdoc": {
    "kind": "dev",
    "methods": {
      "getExchangeRate()": {
        "details": "Deprecated. Use `getExchangeRateOperate()` and `getExchangeRateLiquidate()` instead. Only implemented for      backwards compatibility."
      },
      "getHopExchangeRates()": {
        "returns": {
          "rateSource1Liquidate_": "The exchange rate for hop 1 during liquidate.",
          "rateSource1Operate_": "The exchange rate for hop 1 during operate.",
          "rateSource2Liquidate_": "The exchange rate for hop 2 during liquidate.",
          "rateSource2Operate_": "The exchange rate for hop 2 during operate.",
          "rateSource3Liquidate_": "The exchange rate for hop 3 during liquidate.",
          "rateSource3Operate_": "The exchange rate for hop 3 during operate.",
          "rateSource4Liquidate_": "The exchange rate for hop 4 during liquidate.",
          "rateSource4Operate_": "The exchange rate for hop 4 during operate.",
          "rateSource5Liquidate_": "The exchange rate for hop 5 during liquidate.",
          "rateSource5Operate_": "The exchange rate for hop 5 during operate."
        }
      }
    },
    "version": 1
  },
  "userdoc": {
    "kind": "user",
    "methods": {
      "getExchangeRateLiquidate()": {
        "notice": "Get the `exchangeRate_` between the underlying asset and the peg asset in 1e27 for liquidations"
      },
      "getExchangeRateOperate()": {
        "notice": "Get the `exchangeRate_` between the underlying asset and the peg asset in 1e27 for operates"
      },
      "getHopExchangeRates()": {
        "notice": "Returns the exchange rate for each hop."
      },
      "getOracleHopSources()": {
        "notice": "Returns the configured OracleHopSources"
      },
      "infoName()": {
        "notice": "helper string to easily identify the oracle. E.g. token symbols"
      },
      "targetDecimals()": {
        "notice": "target decimals of the returned oracle rate when scaling to 1e27. E.g. for ETH / USDC it would be 15 because diff of ETH decimals to 1e27 is 9, and USDC has 6 decimals, so 6+9 = 15, e.g. 2029,047772120364926 For USDC / ETH: 21 + 18 = 39, e.g. 0,000492842018675092636829357843847601646"
      }
    },
    "notice": "generic configurable Oracle combines up to 4 hops from sources such as  - an existing IFluidOracle (e.g. ContractRate)  - Redstone  - Chainlink",
    "version": 1
  },
  "storageLayout": {
    "storage": [],
    "types": null
  }
}