{
  "address": "0x05B1e021C9B764a6e8B0113f0E0A7624D4aC7E91",
  "abi": [
    {
      "inputs": [
        {
          "internalType": "string",
          "name": "infoName_",
          "type": "string"
        },
        {
          "components": [
            {
              "internalType": "address",
              "name": "source",
              "type": "address"
            },
            {
              "internalType": "bool",
              "name": "invertRate",
              "type": "bool"
            },
            {
              "internalType": "uint256",
              "name": "multiplier",
              "type": "uint256"
            },
            {
              "internalType": "uint256",
              "name": "divisor",
              "type": "uint256"
            },
            {
              "internalType": "enum GenericOracleStructs.SourceType",
              "name": "sourceType",
              "type": "uint8"
            }
          ],
          "internalType": "struct GenericOracleStructs.OracleHopSource[]",
          "name": "sources_",
          "type": "tuple[]"
        }
      ],
      "stateMutability": "nonpayable",
      "type": "constructor"
    },
    {
      "inputs": [
        {
          "internalType": "uint256",
          "name": "errorId_",
          "type": "uint256"
        }
      ],
      "name": "FluidOracleError",
      "type": "error"
    },
    {
      "inputs": [],
      "name": "getExchangeRate",
      "outputs": [
        {
          "internalType": "uint256",
          "name": "exchangeRate_",
          "type": "uint256"
        }
      ],
      "stateMutability": "view",
      "type": "function"
    },
    {
      "inputs": [],
      "name": "getExchangeRateLiquidate",
      "outputs": [
        {
          "internalType": "uint256",
          "name": "exchangeRate_",
          "type": "uint256"
        }
      ],
      "stateMutability": "view",
      "type": "function"
    },
    {
      "inputs": [],
      "name": "getExchangeRateOperate",
      "outputs": [
        {
          "internalType": "uint256",
          "name": "exchangeRate_",
          "type": "uint256"
        }
      ],
      "stateMutability": "view",
      "type": "function"
    },
    {
      "inputs": [],
      "name": "getHopExchangeRates",
      "outputs": [
        {
          "internalType": "uint256",
          "name": "rateSource1Operate_",
          "type": "uint256"
        },
        {
          "internalType": "uint256",
          "name": "rateSource1Liquidate_",
          "type": "uint256"
        },
        {
          "internalType": "uint256",
          "name": "rateSource2Operate_",
          "type": "uint256"
        },
        {
          "internalType": "uint256",
          "name": "rateSource2Liquidate_",
          "type": "uint256"
        },
        {
          "internalType": "uint256",
          "name": "rateSource3Operate_",
          "type": "uint256"
        },
        {
          "internalType": "uint256",
          "name": "rateSource3Liquidate_",
          "type": "uint256"
        },
        {
          "internalType": "uint256",
          "name": "rateSource4Operate_",
          "type": "uint256"
        },
        {
          "internalType": "uint256",
          "name": "rateSource4Liquidate_",
          "type": "uint256"
        },
        {
          "internalType": "uint256",
          "name": "rateSource5Operate_",
          "type": "uint256"
        },
        {
          "internalType": "uint256",
          "name": "rateSource5Liquidate_",
          "type": "uint256"
        }
      ],
      "stateMutability": "view",
      "type": "function"
    },
    {
      "inputs": [],
      "name": "getOracleHopSources",
      "outputs": [
        {
          "components": [
            {
              "internalType": "address",
              "name": "source",
              "type": "address"
            },
            {
              "internalType": "bool",
              "name": "invertRate",
              "type": "bool"
            },
            {
              "internalType": "uint256",
              "name": "multiplier",
              "type": "uint256"
            },
            {
              "internalType": "uint256",
              "name": "divisor",
              "type": "uint256"
            },
            {
              "internalType": "enum GenericOracleStructs.SourceType",
              "name": "sourceType",
              "type": "uint8"
            }
          ],
          "internalType": "struct GenericOracleStructs.OracleHopSource[]",
          "name": "sources_",
          "type": "tuple[]"
        }
      ],
      "stateMutability": "view",
      "type": "function"
    },
    {
      "inputs": [],
      "name": "infoName",
      "outputs": [
        {
          "internalType": "string",
          "name": "",
          "type": "string"
        }
      ],
      "stateMutability": "view",
      "type": "function"
    }
  ],
  "transactionHash": "0x8812ee41c3b6741de52ac4306d0485f8293066819418fb5ca237dd43a25b2134",
  "args": [
    [
      "USDT per 1 WETH",
      [
        {
          "sourceType": 2,
          "source": "0xF9680D99D6C9589e2a93a78A04A279e509205945",
          "invertRate": false,
          "multiplier": "1000000000",
          "divisor": 1
        },
        {
          "sourceType": 2,
          "source": "0x0A6513e40db6EB1b165753AD52E80663aeA50545",
          "invertRate": true,
          "multiplier": "1000000000000000000000",
          "divisor": 1
        }
      ]
    ]
  ],
  "numDeployments": 1,
  "linkedData": {
    "nonce": "14"
  },
  "bytecode": "0x6103c06040523480156200001257600080fd5b506040516200310f3803806200310f8339810160408190526200003591620008b3565b80826020815111806200004757508051155b156200006f5760405163c82fc46560e01b815261ea6a60048201526024015b60405180910390fd5b602001516080528051158062000086575060058151115b15620000aa5760405163c82fc46560e01b815261ebf1600482015260240162000066565b620000d881600081518110620000c457620000c46200098f565b60200260200101516200068960201b60201c565b80600081518110620000ee57620000ee6200098f565b6020908102919091010151516001600160a01b031660a052805181906000906200011c576200011c6200098f565b602002602001015160200151151560c081151581525050806000815181106200014957620001496200098f565b60200260200101516040015160e08181525050806000815181106200017257620001726200098f565b6020026020010151606001516101008181525050806000815181106200019c576200019c6200098f565b6020026020010151608001516003811115620001bc57620001bc620009a5565b610120816003811115620001d457620001d4620009a5565b815250506001815111156200030257620001fd81600181518110620000c457620000c46200098f565b806001815181106200021357620002136200098f565b6020908102919091010151516001600160a01b0316610140528051819060019081106200024457620002446200098f565b602002602001015160200151151561016081151581525050806001815181106200027257620002726200098f565b6020026020010151604001516101808181525050806001815181106200029c576200029c6200098f565b6020026020010151606001516101a0818152505080600181518110620002c657620002c66200098f565b6020026020010151608001516003811115620002e657620002e6620009a5565b6101c0816003811115620002fe57620002fe620009a5565b9052505b6002815111156200042c576200032781600281518110620000c457620000c46200098f565b806002815181106200033d576200033d6200098f565b6020908102919091010151516001600160a01b03166101e0528051819060029081106200036e576200036e6200098f565b602002602001015160200151151561020081151581525050806002815181106200039c576200039c6200098f565b602002602001015160400151610220818152505080600281518110620003c657620003c66200098f565b602002602001015160600151610240818152505080600281518110620003f057620003f06200098f565b6020026020010151608001516003811115620004105762000410620009a5565b610260816003811115620004285762000428620009a5565b9052505b60038151111562000556576200045181600381518110620000c457620000c46200098f565b806003815181106200046757620004676200098f565b6020908102919091010151516001600160a01b0316610280528051819060039081106200049857620004986200098f565b60200260200101516020015115156102a08115158152505080600381518110620004c657620004c66200098f565b6020026020010151604001516102c0818152505080600381518110620004f057620004f06200098f565b6020026020010151606001516102e08181525050806003815181106200051a576200051a6200098f565b60200260200101516080015160038111156200053a576200053a620009a5565b610300816003811115620005525762000552620009a5565b9052505b60048151111562000680576200057b81600481518110620000c457620000c46200098f565b806004815181106200059157620005916200098f565b6020908102919091010151516001600160a01b031661032052805181906004908110620005c257620005c26200098f565b60200260200101516020015115156103408115158152505080600481518110620005f057620005f06200098f565b6020026020010151604001516103608181525050806004815181106200061a576200061a6200098f565b6020026020010151606001516103808181525050806004815181106200064457620006446200098f565b6020026020010151608001516003811115620006645762000664620009a5565b6103a08160038111156200067c576200067c620009a5565b9052505b505050620009bb565b80516001600160a01b03161580620006b95750600381608001516003811115620006b757620006b7620009a5565b145b80620006c757506060810151155b80620006d557506040810151155b80620006f55750701d6329f1c35ca4bfabb9f56100000000008160600151115b80620007155750701d6329f1c35ca4bfabb9f56100000000008160400151115b15620007395760405163c82fc46560e01b815261ebf1600482015260240162000066565b50565b634e487b7160e01b600052604160045260246000fd5b60405160a081016001600160401b03811182821017156200077757620007776200073c565b60405290565b604051601f8201601f191681016001600160401b0381118282101715620007a857620007a86200073c565b604052919050565b600082601f830112620007c257600080fd5b815160206001600160401b03821115620007e057620007e06200073c565b620007f0818360051b016200077d565b82815260a092830285018201928282019190878511156200081057600080fd5b8387015b85811015620008a65781818a0312156200082e5760008081fd5b6200083862000752565b81516001600160a01b0381168114620008515760008081fd5b8152818601518015158114620008675760008081fd5b81870152604082810151908201526060808301519082015260808083015160048110620008945760008081fd5b90820152845292840192810162000814565b5090979650505050505050565b60008060408385031215620008c757600080fd5b82516001600160401b0380821115620008df57600080fd5b818501915085601f830112620008f457600080fd5b8151818111156200090957620009096200073c565b60206200091f601f8301601f191682016200077d565b82815288828487010111156200093457600080fd5b60005b838110156200095457858101830151828201840152820162000937565b5060009281018201929092528601519094509150808211156200097657600080fd5b506200098585828601620007b0565b9150509250929050565b634e487b7160e01b600052603260045260246000fd5b634e487b7160e01b600052602160045260246000fd5b60805160a05160c05160e05161010051610120516101405161016051610180516101a0516101c0516101e05161020051610220516102405161026051610280516102a0516102c0516102e05161030051610320516103405161036051610380516103a0516123a462000d6b60003960008181610678015281816111f7015281816112fc015281816113fc01528181611ae00152611bdf015260008181610652015281816112d6015281816113d60152611bb901526000818161062c015281816112b0015281816113b00152611b9301526000818161060401528181611288015281816113880152611b6b0152600081816105c8015281816111b60152818161124c0152818161134c01528181611a9f0152611b2f01526000818161056a01528181610f7c01528181611081015281816111810152818161192e0152611a2d0152600081816105440152818161105b0152818161115b0152611a0701526000818161051e015281816110350152818161113501526119e10152600081816104f60152818161100d0152818161110d01526119b90152600081816104ba01528181610f3b01528181610fd1015281816110d1015281816118ed015261197d01526000818161045c01528181610d0101528181610e0601528181610f060152818161177c015261187b01526000818161043601528181610de001528181610ee0015261185501526000818161041001528181610dba01528181610eba015261182f0152600081816103e801528181610d9201528181610e9201526118070152600081816103ac01528181610cc001528181610d5601528181610e560152818161173b01526117cb01526000818161034e01528181610a8601528181610b8b01528181610c8b015281816115ca01526116c901526000818161032801528181610b6501528181610c6501526116a301526000818161030201528181610b3f01528181610c3f015261167d0152600081816102da01528181610b1701528181610c17015261165501526000818161029e01528181610a4501528181610adb01528181610bdb0152818161158901526116190152600081816102400152818161090a01528181610a11015261151201526000818161021a015281816108e4015281816109eb01526114ec0152600081816101f4015281816108be015281816109c501526114c60152600081816101cc015281816108960152818161099d015261149e0152600081816101900152818161085a0152818161096101526114620152600081816106de01526107a301526123a46000f3fe608060405234801561001057600080fd5b50600436106100725760003560e01c8063d643a8cf11610050578063d643a8cf146100bc578063e6aa216c1461010e578063f3190c891461010e57600080fd5b80638e7bfbc01461007757806394f253ef14610092578063abd5f95d146100a7575b600080fd5b61007f610116565b6040519081526020015b60405180910390f35b61009a610127565b6040516100899190611f7e565b6100af6106cc565b604051610089919061203c565b6100c4610831565b604080519a8b5260208b0199909952978901969096526060880194909452608087019290925260a086015260c085015260e084015261010083015261012082015261014001610089565b61007f61143b565b60006101226001611443565b905090565b60408051600580825260c08201909252606091816020015b61016e6040805160a0810182526000808252602082018190529181018290526060810182905290608082015290565b81526020019060019003908161013f5790505090506040518060a001604052807f000000000000000000000000000000000000000000000000000000000000000073ffffffffffffffffffffffffffffffffffffffff1681526020017f0000000000000000000000000000000000000000000000000000000000000000151581526020017f000000000000000000000000000000000000000000000000000000000000000081526020017f000000000000000000000000000000000000000000000000000000000000000081526020017f0000000000000000000000000000000000000000000000000000000000000000600381111561027057610270611f4f565b81525081600081518110610286576102866120d7565b60200260200101819052506040518060a001604052807f000000000000000000000000000000000000000000000000000000000000000073ffffffffffffffffffffffffffffffffffffffff1681526020017f0000000000000000000000000000000000000000000000000000000000000000151581526020017f000000000000000000000000000000000000000000000000000000000000000081526020017f000000000000000000000000000000000000000000000000000000000000000081526020017f0000000000000000000000000000000000000000000000000000000000000000600381111561037e5761037e611f4f565b81525081600181518110610394576103946120d7565b60200260200101819052506040518060a001604052807f000000000000000000000000000000000000000000000000000000000000000073ffffffffffffffffffffffffffffffffffffffff1681526020017f0000000000000000000000000000000000000000000000000000000000000000151581526020017f000000000000000000000000000000000000000000000000000000000000000081526020017f000000000000000000000000000000000000000000000000000000000000000081526020017f0000000000000000000000000000000000000000000000000000000000000000600381111561048c5761048c611f4f565b815250816002815181106104a2576104a26120d7565b60200260200101819052506040518060a001604052807f000000000000000000000000000000000000000000000000000000000000000073ffffffffffffffffffffffffffffffffffffffff1681526020017f0000000000000000000000000000000000000000000000000000000000000000151581526020017f000000000000000000000000000000000000000000000000000000000000000081526020017f000000000000000000000000000000000000000000000000000000000000000081526020017f0000000000000000000000000000000000000000000000000000000000000000600381111561059a5761059a611f4f565b815250816003815181106105b0576105b06120d7565b60200260200101819052506040518060a001604052807f000000000000000000000000000000000000000000000000000000000000000073ffffffffffffffffffffffffffffffffffffffff1681526020017f0000000000000000000000000000000000000000000000000000000000000000151581526020017f000000000000000000000000000000000000000000000000000000000000000081526020017f000000000000000000000000000000000000000000000000000000000000000081526020017f000000000000000000000000000000000000000000000000000000000000000060038111156106a8576106a8611f4f565b815250816004815181106106be576106be6120d7565b602002602001018190525090565b606060005b60208110801561073757507f0000000000000000000000000000000000000000000000000000000000000000816020811061070e5761070e6120d7565b1a60f81b7fff000000000000000000000000000000000000000000000000000000000000001615155b1561074e578061074681612135565b9150506106d1565b60008167ffffffffffffffff811115610769576107696120a8565b6040519080825280601f01601f191660200182016040528015610793576020820181803683370190505b50905060005b8281101561082a577f000000000000000000000000000000000000000000000000000000000000000081602081106107d3576107d36120d7565b1a60f81b8282815181106107e9576107e96120d7565b60200101907effffffffffffffffffffffffffffffffffffffffffffffffffffffffffffff1916908160001a9053508061082281612135565b915050610799565b5092915050565b600080808080808080808061094161084b601b600a61228d565b60016040518060a001604052807f000000000000000000000000000000000000000000000000000000000000000073ffffffffffffffffffffffffffffffffffffffff1681526020017f0000000000000000000000000000000000000000000000000000000000000000151581526020017f000000000000000000000000000000000000000000000000000000000000000081526020017f000000000000000000000000000000000000000000000000000000000000000081526020017f0000000000000000000000000000000000000000000000000000000000000000600381111561093a5761093a611f4f565b9052611c54565b9950610a41610952601b600a61228d565b60006040518060a001604052807f000000000000000000000000000000000000000000000000000000000000000073ffffffffffffffffffffffffffffffffffffffff1681526020017f0000000000000000000000000000000000000000000000000000000000000000151581526020017f000000000000000000000000000000000000000000000000000000000000000081526020017f000000000000000000000000000000000000000000000000000000000000000081526020017f0000000000000000000000000000000000000000000000000000000000000000600381111561093a5761093a611f4f565b98507f000000000000000000000000000000000000000000000000000000000000000073ffffffffffffffffffffffffffffffffffffffff16151580610ab8575060037f00000000000000000000000000000000000000000000000000000000000000006003811115610ab657610ab6611f4f565b145b15610cbe57610bbb610acc601b600a61228d565b60016040518060a001604052807f000000000000000000000000000000000000000000000000000000000000000073ffffffffffffffffffffffffffffffffffffffff1681526020017f0000000000000000000000000000000000000000000000000000000000000000151581526020017f000000000000000000000000000000000000000000000000000000000000000081526020017f000000000000000000000000000000000000000000000000000000000000000081526020017f0000000000000000000000000000000000000000000000000000000000000000600381111561093a5761093a611f4f565b9750610cbb610bcc601b600a61228d565b60006040518060a001604052807f000000000000000000000000000000000000000000000000000000000000000073ffffffffffffffffffffffffffffffffffffffff1681526020017f0000000000000000000000000000000000000000000000000000000000000000151581526020017f000000000000000000000000000000000000000000000000000000000000000081526020017f000000000000000000000000000000000000000000000000000000000000000081526020017f0000000000000000000000000000000000000000000000000000000000000000600381111561093a5761093a611f4f565b96505b7f000000000000000000000000000000000000000000000000000000000000000073ffffffffffffffffffffffffffffffffffffffff16151580610d33575060037f00000000000000000000000000000000000000000000000000000000000000006003811115610d3157610d31611f4f565b145b15610f3957610e36610d47601b600a61228d565b60016040518060a001604052807f000000000000000000000000000000000000000000000000000000000000000073ffffffffffffffffffffffffffffffffffffffff1681526020017f0000000000000000000000000000000000000000000000000000000000000000151581526020017f000000000000000000000000000000000000000000000000000000000000000081526020017f000000000000000000000000000000000000000000000000000000000000000081526020017f0000000000000000000000000000000000000000000000000000000000000000600381111561093a5761093a611f4f565b9550610f36610e47601b600a61228d565b60006040518060a001604052807f000000000000000000000000000000000000000000000000000000000000000073ffffffffffffffffffffffffffffffffffffffff1681526020017f0000000000000000000000000000000000000000000000000000000000000000151581526020017f000000000000000000000000000000000000000000000000000000000000000081526020017f000000000000000000000000000000000000000000000000000000000000000081526020017f0000000000000000000000000000000000000000000000000000000000000000600381111561093a5761093a611f4f565b94505b7f000000000000000000000000000000000000000000000000000000000000000073ffffffffffffffffffffffffffffffffffffffff16151580610fae575060037f00000000000000000000000000000000000000000000000000000000000000006003811115610fac57610fac611f4f565b145b156111b4576110b1610fc2601b600a61228d565b60016040518060a001604052807f000000000000000000000000000000000000000000000000000000000000000073ffffffffffffffffffffffffffffffffffffffff1681526020017f0000000000000000000000000000000000000000000000000000000000000000151581526020017f000000000000000000000000000000000000000000000000000000000000000081526020017f000000000000000000000000000000000000000000000000000000000000000081526020017f0000000000000000000000000000000000000000000000000000000000000000600381111561093a5761093a611f4f565b93506111b16110c2601b600a61228d565b60006040518060a001604052807f000000000000000000000000000000000000000000000000000000000000000073ffffffffffffffffffffffffffffffffffffffff1681526020017f0000000000000000000000000000000000000000000000000000000000000000151581526020017f000000000000000000000000000000000000000000000000000000000000000081526020017f000000000000000000000000000000000000000000000000000000000000000081526020017f0000000000000000000000000000000000000000000000000000000000000000600381111561093a5761093a611f4f565b92505b7f000000000000000000000000000000000000000000000000000000000000000073ffffffffffffffffffffffffffffffffffffffff16151580611229575060037f0000000000000000000000000000000000000000000000000000000000000000600381111561122757611227611f4f565b145b1561142f5761132c61123d601b600a61228d565b60016040518060a001604052807f000000000000000000000000000000000000000000000000000000000000000073ffffffffffffffffffffffffffffffffffffffff1681526020017f0000000000000000000000000000000000000000000000000000000000000000151581526020017f000000000000000000000000000000000000000000000000000000000000000081526020017f000000000000000000000000000000000000000000000000000000000000000081526020017f0000000000000000000000000000000000000000000000000000000000000000600381111561093a5761093a611f4f565b915061142c61133d601b600a61228d565b60006040518060a001604052807f000000000000000000000000000000000000000000000000000000000000000073ffffffffffffffffffffffffffffffffffffffff1681526020017f0000000000000000000000000000000000000000000000000000000000000000151581526020017f000000000000000000000000000000000000000000000000000000000000000081526020017f000000000000000000000000000000000000000000000000000000000000000081526020017f0000000000000000000000000000000000000000000000000000000000000000600381111561093a5761093a611f4f565b90505b90919293949596979899565b600061012260005b6000611542611454601b600a61228d565b836040518060a001604052807f000000000000000000000000000000000000000000000000000000000000000073ffffffffffffffffffffffffffffffffffffffff1681526020017f0000000000000000000000000000000000000000000000000000000000000000151581526020017f000000000000000000000000000000000000000000000000000000000000000081526020017f000000000000000000000000000000000000000000000000000000000000000081526020017f0000000000000000000000000000000000000000000000000000000000000000600381111561093a5761093a611f4f565b905080600003611587576040517fc82fc46500000000000000000000000000000000000000000000000000000000815261ebf360048201526024015b60405180910390fd5b7f000000000000000000000000000000000000000000000000000000000000000073ffffffffffffffffffffffffffffffffffffffff161580156115fd575060037f000000000000000000000000000000000000000000000000000000000000000060038111156115fa576115fa611f4f565b14155b1561160757919050565b6116f981836040518060a001604052807f000000000000000000000000000000000000000000000000000000000000000073ffffffffffffffffffffffffffffffffffffffff1681526020017f0000000000000000000000000000000000000000000000000000000000000000151581526020017f000000000000000000000000000000000000000000000000000000000000000081526020017f000000000000000000000000000000000000000000000000000000000000000081526020017f0000000000000000000000000000000000000000000000000000000000000000600381111561093a5761093a611f4f565b905080600003611739576040517fc82fc46500000000000000000000000000000000000000000000000000000000815261ebf3600482015260240161157e565b7f000000000000000000000000000000000000000000000000000000000000000073ffffffffffffffffffffffffffffffffffffffff161580156117af575060037f000000000000000000000000000000000000000000000000000000000000000060038111156117ac576117ac611f4f565b14155b156117b957919050565b6118ab81836040518060a001604052807f000000000000000000000000000000000000000000000000000000000000000073ffffffffffffffffffffffffffffffffffffffff1681526020017f0000000000000000000000000000000000000000000000000000000000000000151581526020017f000000000000000000000000000000000000000000000000000000000000000081526020017f000000000000000000000000000000000000000000000000000000000000000081526020017f0000000000000000000000000000000000000000000000000000000000000000600381111561093a5761093a611f4f565b9050806000036118eb576040517fc82fc46500000000000000000000000000000000000000000000000000000000815261ebf3600482015260240161157e565b7f000000000000000000000000000000000000000000000000000000000000000073ffffffffffffffffffffffffffffffffffffffff16158015611961575060037f0000000000000000000000000000000000000000000000000000000000000000600381111561195e5761195e611f4f565b14155b1561196b57919050565b611a5d81836040518060a001604052807f000000000000000000000000000000000000000000000000000000000000000073ffffffffffffffffffffffffffffffffffffffff1681526020017f0000000000000000000000000000000000000000000000000000000000000000151581526020017f000000000000000000000000000000000000000000000000000000000000000081526020017f000000000000000000000000000000000000000000000000000000000000000081526020017f0000000000000000000000000000000000000000000000000000000000000000600381111561093a5761093a611f4f565b905080600003611a9d576040517fc82fc46500000000000000000000000000000000000000000000000000000000815261ebf3600482015260240161157e565b7f000000000000000000000000000000000000000000000000000000000000000073ffffffffffffffffffffffffffffffffffffffff16158015611b13575060037f00000000000000000000000000000000000000000000000000000000000000006003811115611b1057611b10611f4f565b14155b15611b1d57919050565b611c0f81836040518060a001604052807f000000000000000000000000000000000000000000000000000000000000000073ffffffffffffffffffffffffffffffffffffffff1681526020017f0000000000000000000000000000000000000000000000000000000000000000151581526020017f000000000000000000000000000000000000000000000000000000000000000081526020017f000000000000000000000000000000000000000000000000000000000000000081526020017f0000000000000000000000000000000000000000000000000000000000000000600381111561093a5761093a611f4f565b905080600003611c4f576040517fc82fc46500000000000000000000000000000000000000000000000000000000815261ebf3600482015260240161157e565b919050565b6000611c698260000151836080015185611cef565b90508160600151826040015182611c809190612299565b611c8a91906122b0565b905081602001518015611c9d5750600081115b15611cc75780611caf601b6002612299565b611cba90600a61228d565b611cc491906122b0565b90505b611cd3601b600a61228d565b611cdd8286612299565b611ce791906122b0565b949350505050565b60006001836003811115611d0557611d05611f4f565b1480611d2257506002836003811115611d2057611d20611f4f565b145b15611d3757611d3084611d97565b9050611d90565b6000836003811115611d4b57611d4b611f4f565b03611d5a57611d308483611e2e565b6040517fc82fc46500000000000000000000000000000000000000000000000000000000815261ebf2600482015260240161157e565b9392505050565b60008173ffffffffffffffffffffffffffffffffffffffff1663feaf968c6040518163ffffffff1660e01b815260040160a060405180830381865afa925050508015611e1e575060408051601f3d9081017fffffffffffffffffffffffffffffffffffffffffffffffffffffffffffffffe0168201909252611e1b91810190612305565b60015b15611c4f57509195945050505050565b60008115611ec7578273ffffffffffffffffffffffffffffffffffffffff16638e7bfbc06040518163ffffffff1660e01b8152600401602060405180830381865afa925050508015611ebb575060408051601f3d9081017fffffffffffffffffffffffffffffffffffffffffffffffffffffffffffffffe0168201909252611eb891810190612355565b60015b15611f49579050611f49565b8273ffffffffffffffffffffffffffffffffffffffff1663f3190c896040518163ffffffff1660e01b8152600401602060405180830381865afa925050508015611ebb575060408051601f3d9081017fffffffffffffffffffffffffffffffffffffffffffffffffffffffffffffffe0168201909252611eb891810190612355565b92915050565b7f4e487b7100000000000000000000000000000000000000000000000000000000600052602160045260246000fd5b60208082528251828201819052600091906040908185019086840185805b8381101561202e578251805173ffffffffffffffffffffffffffffffffffffffff16865287810151151588870152868101518787015260608082015190870152608090810151906004808310612018577f4e487b7100000000000000000000000000000000000000000000000000000000855260218152602485fd5b5086015260a09094019391860191600101611f9c565b509298975050505050505050565b600060208083528351808285015260005b818110156120695785810183015185820160400152820161204d565b5060006040828601015260407fffffffffffffffffffffffffffffffffffffffffffffffffffffffffffffffe0601f8301168501019250505092915050565b7f4e487b7100000000000000000000000000000000000000000000000000000000600052604160045260246000fd5b7f4e487b7100000000000000000000000000000000000000000000000000000000600052603260045260246000fd5b7f4e487b7100000000000000000000000000000000000000000000000000000000600052601160045260246000fd5b60007fffffffffffffffffffffffffffffffffffffffffffffffffffffffffffffffff820361216657612166612106565b5060010190565b600181815b808511156121c657817fffffffffffffffffffffffffffffffffffffffffffffffffffffffffffffffff048211156121ac576121ac612106565b808516156121b957918102915b93841c9390800290612172565b509250929050565b6000826121dd57506001611f49565b816121ea57506000611f49565b8160018114612200576002811461220a57612226565b6001915050611f49565b60ff84111561221b5761221b612106565b50506001821b611f49565b5060208310610133831016604e8410600b8410161715612249575081810a611f49565b612253838361216d565b807fffffffffffffffffffffffffffffffffffffffffffffffffffffffffffffffff0482111561228557612285612106565b029392505050565b6000611d9083836121ce565b8082028115828204841417611f4957611f49612106565b6000826122e6577f4e487b7100000000000000000000000000000000000000000000000000000000600052601260045260246000fd5b500490565b805169ffffffffffffffffffff81168114611c4f57600080fd5b600080600080600060a0868803121561231d57600080fd5b612326866122eb565b9450602086015193506040860151925060608601519150612349608087016122eb565b90509295509295909350565b60006020828403121561236757600080fd5b505191905056fea26469706673582212205c8ae5441f491ca0bdb3337925ae0b924084f528ee956e6fbbcde3480d4525e364736f6c63430008150033"
}