{
  "address": "0x3c06514287e74ede035d293362a2369bDa60E642",
  "abi": [
    {
      "inputs": [
        {
          "internalType": "uint256",
          "name": "errorId_",
          "type": "uint256"
        }
      ],
      "name": "FluidLiquidityCalcsError",
      "type": "error"
    },
    {
      "inputs": [
        {
          "internalType": "uint256",
          "name": "errorId_",
          "type": "uint256"
        }
      ],
      "name": "FluidLiquidityError",
      "type": "error"
    },
    {
      "inputs": [
        {
          "internalType": "uint256",
          "name": "errorId_",
          "type": "uint256"
        }
      ],
      "name": "FluidSafeTransferError",
      "type": "error"
    },
    {
      "anonymous": false,
      "inputs": [],
      "name": "BorrowRateMaxCap",
      "type": "event"
    },
    {
      "anonymous": false,
      "inputs": [
        {
          "indexed": true,
          "internalType": "address",
          "name": "user",
          "type": "address"
        },
        {
          "indexed": true,
          "internalType": "address",
          "name": "token",
          "type": "address"
        },
        {
          "indexed": false,
          "internalType": "int256",
          "name": "supplyAmount",
          "type": "int256"
        },
        {
          "indexed": false,
          "internalType": "int256",
          "name": "borrowAmount",
          "type": "int256"
        },
        {
          "indexed": false,
          "internalType": "address",
          "name": "withdrawTo",
          "type": "address"
        },
        {
          "indexed": false,
          "internalType": "address",
          "name": "borrowTo",
          "type": "address"
        },
        {
          "indexed": false,
          "internalType": "uint256",
          "name": "totalAmounts",
          "type": "uint256"
        },
        {
          "indexed": false,
          "internalType": "uint256",
          "name": "exchangePricesAndConfig",
          "type": "uint256"
        }
      ],
      "name": "LogOperate",
      "type": "event"
    },
    {
      "inputs": [
        {
          "internalType": "address",
          "name": "token_",
          "type": "address"
        },
        {
          "internalType": "int256",
          "name": "supplyAmount_",
          "type": "int256"
        },
        {
          "internalType": "int256",
          "name": "borrowAmount_",
          "type": "int256"
        },
        {
          "internalType": "address",
          "name": "withdrawTo_",
          "type": "address"
        },
        {
          "internalType": "address",
          "name": "borrowTo_",
          "type": "address"
        },
        {
          "internalType": "bytes",
          "name": "callbackData_",
          "type": "bytes"
        }
      ],
      "name": "operate",
      "outputs": [
        {
          "internalType": "uint256",
          "name": "memVar3_",
          "type": "uint256"
        },
        {
          "internalType": "uint256",
          "name": "memVar4_",
          "type": "uint256"
        }
      ],
      "stateMutability": "payable",
      "type": "function"
    }
  ],
  "transactionHash": "0x5ba9c40e6fa3ef8925b00c4cde38a4b5e05e177da4ac1f9285d95ee3c7ac787b",
  "args": [],
  "numDeployments": 1,
  "solcInputHash": "94a392b8e7953f1c4aff210862f8aaf9",
  "bytecode": "0x6080604052348015600e575f5ffd5b506002600155612e40806100215f395ff3fe60806040526004361061001d575f3560e01c8063ad967e1514610021575b5f5ffd5b61003461002f366004612b3f565b61004d565b6040805192835260208301919091520160405180910390f35b5f5f600260ff1660015403610097576040517fdcab82e2000000000000000000000000000000000000000000000000000000008152612ee160048201526024015b60405180910390fd5b6002600155871580156100a8575086155b156100e3576040517fdcab82e2000000000000000000000000000000000000000000000000000000008152612afd600482015260240161008e565b7fffffffffffffffffffffffffffffffff8000000000000000000000000000000088128061012057506f7fffffffffffffffffffffffffffffff88135b8061014a57507fffffffffffffffffffffffffffffffff8000000000000000000000000000000087125b8061016457506f7fffffffffffffffffffffffffffffff87135b1561019f576040517fdcab82e2000000000000000000000000000000000000000000000000000000008152612afe600482015260240161008e565b5f881280156101c2575073ffffffffffffffffffffffffffffffffffffffff8616155b806101eb57505f871380156101eb575073ffffffffffffffffffffffffffffffffffffffff8516155b15610226576040517fdcab82e2000000000000000000000000000000000000000000000000000000008152612b00600482015260240161008e565b73ffffffffffffffffffffffffffffffffffffffff891673eeeeeeeeeeeeeeeeeeeeeeeeeeeeeeeeeeeeeeee1480159061025f57505f34115b1561029a576040517fdcab82e2000000000000000000000000000000000000000000000000000000008152612b02600482015260240161008e565b6102e06040518061012001604052805f81526020015f81526020015f81526020015f81526020015f81526020015f81526020015f81526020015f81526020015f81525090565b5f5f5f8a126102ef575f6102f8565b6102f88a612c1e565b5f8c13610305575f610307565b8b5b6103119190612c54565b606495509050603f86111561045d576103628b8b8b8b8b8b8080601f0160208091040260200160405190810160405280939291908181526020018383808284375f9201919091525061151492505050565b1561038d57507fffffffffffffffffffffffffffffffffffffffffffffffffffffffffffffffff82525f5b5f6103d08c8c8c8c8c8c8080601f0160208091040260200160405190810160405280939291908181526020018383808284375f9201919091525061173292505050565b93509050801561045b57818303610417576040517fdcab82e2000000000000000000000000000000000000000000000000000000008152612b0a600482015260240161008e565b82821115610453577fffffffffffffffffffffffffffffffffffffffffffffffffffffffffffffffff84526103e890950294908290039061045b565b90820383525f905b505b7fffffffffffffffffffffffff111111111111111111111111111111111111111273ffffffffffffffffffffffffffffffffffffffff8d16016104ed57348111806104af575061271085810182020434115b156104ea576040517fdcab82e2000000000000000000000000000000000000000000000000000000008152612b01600482015260240161008e565b505f5b801561072657605f86111561053e5761053b8188888080601f0160208091040260200160405190810160405280939291908181526020018383808284375f9201919091525061198992505050565b90505b6040517f70a0823100000000000000000000000000000000000000000000000000000000815230600482015273ffffffffffffffffffffffffffffffffffffffff8d16906370a0823190602401602060405180830381865afa1580156105a6573d5f5f3e3d5ffd5b505050506040513d601f19601f820116820180604052508101906105ca9190612c94565b6040517fad207501000000000000000000000000000000000000000000000000000000008152909250339063ad2075019061060f908f9085908c908c90600401612cab565b5f604051808303815f87803b158015610626575f5ffd5b505af1158015610638573d5f5f3e3d5ffd5b50506040517f70a0823100000000000000000000000000000000000000000000000000000000815230600482015284925073ffffffffffffffffffffffffffffffffffffffff8f1691506370a0823190602401602060405180830381865afa1580156106a6573d5f5f3e3d5ffd5b505050506040513d601f19601f820116820180604052508101906106ca9190612c94565b6106d49190612d1b565b9150808210806106eb575061271085810182020482115b15610726576040517fdcab82e2000000000000000000000000000000000000000000000000000000008152612b01600482015260240161008e565b73ffffffffffffffffffffffffffffffffffffffff8c165f90815260056020526040902054610100840181905261075c90611aa8565b60408086019190915260208086019290925273ffffffffffffffffffffffffffffffffffffffff8e165f9081526007909252908190205460e0850181905266ffffffffffffff600882901c811660ff8084169190911b6060880152604883901c82169383901c81169390931b608080880191909152608883901c9091169082901c83161b60a086015260c881901c60c091821c9283161b9085015291508a15610a1a575f8360e0015190505f5f6108188f8f8860200151611cb6565b91509150805f036108d3575f8213156108555761083b828760600151600161218c565b818660600181815161084d9190612c54565b90525061088d565b61086c61086183612c1e565b87606001515f61218c565b815f0386606001511161087f575f610887565b606086015182015b60608701525b60608601516108a090603860085f6121fb565b60e0870180517fffffffffffffffffffffffffffffffffffffffffffffffff0000000000000000168217905294506109d5565b5f811315610905576108eb818760800151600161218c565b80866080018181516108fd9190612c54565b90525061093d565b61091c61091182612c1e565b87608001515f61218c565b805f0386608001511161092f575f610937565b608086015181015b60808701525b60808601516f7fffffffffffffffffffffffffffffff101561098f576040517fdcab82e2000000000000000000000000000000000000000000000000000000008152612b06600482015260240161008e565b60808601516109a290603860085f6121fb565b60e0870180517fffffffffffffffffffffffffffffffff0000000000000000ffffffffffffffff16604083901b17905294505b8560e001518303610a16576040517fdcab82e2000000000000000000000000000000000000000000000000000000008152612aff600482015260240161008e565b5050505b8915610c39575f8360e0015190505f5f610a398f8e8860400151612321565b91509150805f03610af9575f821315610a7657610a5c828760a00151600161218c565b818660a001818151610a6e9190612c54565b905250610aae565b610a8d610a8283612c1e565b8760a001515f61218c565b815f038660a0015111610aa0575f610aa8565b60a086015182015b60a08701525b60a0860151610ac2906038600860016121fb565b60e0870180517fffffffffffffffff0000000000000000ffffffffffffffffffffffffffffffff16608083901b1790529450610bf4565b5f811315610b2b57610b11818760c00151600161218c565b808660c001818151610b239190612c54565b905250610b63565b610b42610b3782612c1e565b8760c001515f61218c565b805f038660c0015111610b55575f610b5d565b60c086015181015b60c08701525b60c08601516f7fffffffffffffffffffffffffffffff1015610bb5576040517fdcab82e2000000000000000000000000000000000000000000000000000000008152612b07600482015260240161008e565b60c0860151610bc9906038600860016121fb565b60e08701805177ffffffffffffffffffffffffffffffffffffffffffffffff1660c083901b17905294505b8560e001518303610c35576040517fdcab82e2000000000000000000000000000000000000000000000000000000008152612aff600482015260240161008e565b5050505b60e083015173ffffffffffffffffffffffffffffffffffffffff8d165f90815260076020908152604090912091909155830151606084015164e8d4a5100091610c8191612d2e565b610c8b9190612d45565b94506f7fffffffffffffffffffffffffffffff85118015610cab57505f8b135b15610ce6576040517fdcab82e2000000000000000000000000000000000000000000000000000000008152612b06600482015260240161008e565b848360800151610cf69190612c54565b91508260800151851115610d2c576001856127108560800151610d199190612d2e565b610d239190612d45565b901b9450610d6e565b8260800151851015610d62576080830151600190610d4c61271088612d2e565b610d569190612d45565b901b6001179450610d6e565b8115610d6e57614e2094505b64e8d4a5100083604001518460a00151610d889190612d2e565b610d929190612d45565b93506f7fffffffffffffffffffffffffffffff84118015610db257505f8a135b15610ded576040517fdcab82e2000000000000000000000000000000000000000000000000000000008152612b07600482015260240161008e565b838360c00151610dfd9190612c54565b90508260c00151841115610e33576001846127108560c00151610e209190612d2e565b610e2a9190612d45565b901b9350610e75565b8260c00151841015610e695760c0830151600190610e5361271087612d2e565b610e5d9190612d45565b901b6001179350610e75565b8015610e7557614e2093505b5f8215610f235782610e8961271084612d2e565b610e939190612d45565b90505f8b1315610f235760f9846101000151901c600116600114610eb957612710610ee3565b73ffffffffffffffffffffffffffffffffffffffff8d165f908152600b6020526040902054613fff165b925082811115610f23576040517fdcab82e2000000000000000000000000000000000000000000000000000000008152612b03600482015260240161008e565b610100840151603a1c6401ffffffff166201518001421115610f485760019250610f4c565b5f92505b825f0361106a57613fff601e856101000151901c169250613fff602c856101000151901c16915081838211610f8357818403610f87565b8382035b11610f92575f610f95565b60015b60ff169250825f0361106a57617fff60db856101000151901c169250856001168360011603610ffd57600183901c92508183600188901c11610fdd57600187901c8403610fe5565b83600188901c035b11610ff0575f610ff3565b60015b60ff169250611002565b600192505b825f0361106a57617fff60ea856101000151901c16925084600116836001160361106557600183901c92508183600187901c1161104557600186901c840361104d565b83600187901c035b11611058575f61105b565b60015b60ff16925061106a565b600192505b826001036111ef5773ffffffffffffffffffffffffffffffffffffffff8d165f908152600660205260409020546110a190826125c2565b925067ffffffffffffffff846020015111806110c8575067ffffffffffffffff8460400151115b15611103576040517fdcab82e2000000000000000000000000000000000000000000000000000000008152612b04600482015260240161008e565b613fff811115611143576040517fdcab82e2000000000000000000000000000000000000000000000000000000008152612b05600482015260240161008e565b60ea85901b60db87901b609b8660400151901b605b8760200151901b603a42901b601e86901b888a61010001517ffe000000000000000000000000000000000000000000000003fff0003fff000016171717171717178461010001818152505083610100015160055f8f73ffffffffffffffffffffffffffffffffffffffff1673ffffffffffffffffffffffffffffffffffffffff1681526020019081526020015f2081905550611236565b609b8460400151901b605b8560200151901b8561010001517ffffffffffc00000000000000000000000000000007ffffffffffffffffffffff161717846101000181815250505b505f8b128061124457505f8a135b8015611270575082517fffffffffffffffffffffffffffffffffffffffffffffffffffffffffffffffff125b156114745782515f121561131d577fffffffffffffffffffffffff111111111111111111111111111111111111111273ffffffffffffffffffffffffffffffffffffffff8d16016112ee576112e973ffffffffffffffffffffffffffffffffffffffff8a16156112e057896112e2565b885b8451612669565b611474565b6112e98c73ffffffffffffffffffffffffffffffffffffffff8b1615611314578a611316565b895b85516126b2565b5f8a1361132a575f61132c565b895b90505f8b1215611340578a5f039150611344565b5f91505b5f8211801561135257505f81115b801561138957508773ffffffffffffffffffffffffffffffffffffffff168973ffffffffffffffffffffffffffffffffffffffff16145b156113f5577fffffffffffffffffffffffff111111111111111111111111111111111111111273ffffffffffffffffffffffffffffffffffffffff8d16016113de576112e9896113d98385612c54565b612669565b6113e88183612c54565b91506112e98c8a846126b2565b7fffffffffffffffffffffffff111111111111111111111111111111111111111273ffffffffffffffffffffffffffffffffffffffff8d1601611452578115611442576114428983612669565b80156112e9576112e98882612669565b8115611463576114638c8a846126b2565b8015611474576114748c89836126b2565b60e0830151610100840151604080518e8152602081018e905273ffffffffffffffffffffffffffffffffffffffff8d8116828401528c81166060830152608082019490945260a081019290925251918e169133917f4d93b232a24e82b284ced7461bf4deacffe66759d5c24513e6f29e571ad78d15919081900360c00190a35050602081015160409091015160018055909a909950975050505050505050565b805181017fffffffffffffffffffffffffffffffffffffffffffffffffffffffffffffffe0015160408051808201909152600e81527f534b49505f5452414e53464552530000000000000000000000000000000000006020909101525f907f520f8ead5ba46586393d3a30de35560ff757e867d80fed46623eb8022af73ba381146115a2575f915050611729565b341515806115ae575086155b806115b7575085155b806115c157508587135b156115fc576040517fdcab82e2000000000000000000000000000000000000000000000000000000008152612b08600482015260240161008e565b82518301515f881315611698578473ffffffffffffffffffffffffffffffffffffffff168173ffffffffffffffffffffffffffffffffffffffff16148015611659575073ffffffffffffffffffffffffffffffffffffffff811633145b611693576040517fdcab82e2000000000000000000000000000000000000000000000000000000008152612b08600482015260240161008e565b611722565b8573ffffffffffffffffffffffffffffffffffffffff168173ffffffffffffffffffffffffffffffffffffffff161480156116e8575073ffffffffffffffffffffffffffffffffffffffff811633145b611722576040517fdcab82e2000000000000000000000000000000000000000000000000000000008152612b08600482015260240161008e565b6001925050505b95945050505050565b805181017fffffffffffffffffffffffffffffffffffffffffffffffffffffffffffffffe0015160408051808201909152600d81527f4e45545f5452414e5346455253000000000000000000000000000000000000006020909101525f9081907f1c3af6d2a9b692a8b50895d7ef6c86616579c006b3b26b878c48ef9abe2a7eab81146117c5575f5f925092505061197f565b5f88126117d2575f6117db565b6117db88612c1e565b5f88136117e8575f6117ea565b875b6117f49190612c54565b9150871580611801575086155b8061180d57505f878918125b15611848576040517fdcab82e2000000000000000000000000000000000000000000000000000000008152612b0a600482015260240161008e565b83518401515f8912156118e5578673ffffffffffffffffffffffffffffffffffffffff168173ffffffffffffffffffffffffffffffffffffffff161415806118a5575073ffffffffffffffffffffffffffffffffffffffff861615155b156118e0576040517fdcab82e2000000000000000000000000000000000000000000000000000000008152612b0a600482015260240161008e565b611978565b5f881315611978578573ffffffffffffffffffffffffffffffffffffffff168173ffffffffffffffffffffffffffffffffffffffff1614158061193d575073ffffffffffffffffffffffffffffffffffffffff871615155b15611978576040517fdcab82e2000000000000000000000000000000000000000000000000000000008152612b0a600482015260240161008e565b6001935050505b9550959350505050565b60208101515f9080848110806119bf57506127106119a8606482612c54565b6119b29087612d2e565b6119bc9190612d45565b81115b15611a985760408051808201909152600581527f44455856320000000000000000000000000000000000000000000000000000006020909101527f2ee71ed3ac8c9a5524779d52750d68d33a5ebff09360b90ca0c7b6da00f5b24a8201611a935750606083015184811080611a545750612710611a3d606482612c54565b611a479087612d2e565b611a519190612d45565b81115b15611a8f576040517fdcab82e2000000000000000000000000000000000000000000000000000000008152612b01600482015260240161008e565b8094505b611a9c565b8094505b84925050505b92915050565b67ffffffffffffffff605b82901c811690609b83901c16811580611aca575080155b15611b06576040517fd50d751200000000000000000000000000000000000000000000000000000000815262011171600482015260240161008e565b61ffff8316603a84901c6401ffffffff16428181039160ea87901c617fff16911480611b30575082155b80611b3b5750806001145b15611b4857505050915091565b64496cebb80084840283020484019350617fff60db87901c16925082600103611b7357505050915091565b82600116600103611bc85760019290921c91826c7e37be2022c0914b268000000081611ba157611ba1612c67565b049250612710601e87901c613fff166b033b2e3c9fd0803ce8000000850102049250611bf5565b60019290921c916305f5e100601e87901c613fff166127108501026b033b2e3c9fd0803ce8000000020492505b80600116600103611c2c5760011c61271081016b033b2e3c9fd0803ce8000000820281611c2457611c24612c67565b049050611c62565b60011c61271081016b033b2e3c9fd0803ce8000000820281611c5057611c50612c67565b046b033b2e3c9fd0803ce80000000390505b760a70c3c40a64e6c51999090b65f67d92400000000000008382026127100261ffff881691900402601087901c613fff16612710030292506801b5a660ea44b8000085840283020485019450505050915091565b335f90815260086020908152604080832073ffffffffffffffffffffffffffffffffffffffff871684529091528120548190808203611d25576040517fdcab82e2000000000000000000000000000000000000000000000000000000008152612af9600482015260240161008e565b60ff81901c600103611d67576040517fdcab82e2000000000000000000000000000000000000000000000000000000008152612afa600482015260240161008e565b66ffffffffffffff600982901c1660ff600183901c81169190911b906203ffff60e284901c1660da84901c9091161b60f483901c6103ff168115611df3575f6024600a608187901c6401ffffffff1602046024600a42020403905081811015611dea578181840281611ddb57611ddb612c67565b04830392508082039150611df1565b5f92505f91505b505b5f611dfe8585612758565b905084600116600103611e76575f891315611e405787611e2364e8d4a510008b612d58565b611e2d9190612da3565b9650611e398785612c54565b9350611ea1565b611e58611e4c8a612c1e565b64e8d4a510008a6127e9565b611e6190612c1e565b9650611e6c87612c1e565b611e399085612d1b565b8895505f861315611e8b57611e398685612c54565b611e9486612c1e565b611e9e9085612d1b565b93505b5f5f8a1215611f355781851015611ee8576040517fdcab82e2000000000000000000000000000000000000000000000000000000008152612afb600482015260240161008e565b8315611f35578787015f0384811115611f1657848311611f08575f611f0c565b8483035b92505f9450611f2f565b808311611f23575f611f27565b8083035b925080850394505b50600190505b5f611f4187878561282b565b9050805f03611f52575f9450612011565b808314612011575f8b1315611fe957825f03611f7d576103ff60d088901c1660ff60c889901c161b92505b82811115611fde57828103611f928187612c54565b611f9e826103e8612d2e565b611fa88888612d2e565b611fb29190612c54565b611fbc9190612d45565b94506050851015611fcc57605094505b611fd68187612c54565b955050612011565b5f94505f9350612011565b8115612011575f838211611ffd575f612001565b8382035b905061200d8187612c54565b9550505b600a851015612025575f94505f9350612055565b61203385601260085f6121fb565b94506103e8841115612049576103e89350612055565b835f0361205557600193505b61206386603860085f6121fb565b95508567ffffffffffffffff600189901c16036120b0576040517fdcab82e2000000000000000000000000000000000000000000000000000000008152612aff600482015260240161008e565b6120be81603860085f6121fb565b905060f484901b60da86901b608142901b604184901b60018a901b8b7fc000000003fffffffffffffc000000000000000000000000000000000000000116171717171760085f3373ffffffffffffffffffffffffffffffffffffffff1673ffffffffffffffffffffffffffffffffffffffff1681526020019081526020015f205f8e73ffffffffffffffffffffffffffffffffffffffff1673ffffffffffffffffffffffffffffffffffffffff1681526020019081526020015f208190555050505050505050935093915050565b8061219a57600282046121a0565b81612710025b91506a0100000000000000000000831180156121bb57508183115b156121f6576040517fdcab82e2000000000000000000000000000000000000000000000000000000008152612b09600482015260240161008e565b505050565b5f5f856fffffffffffffffffffffffffffffffff81111561221d5760809150811c5b67ffffffffffffffff811115612235576040918201911c5b63ffffffff811115612249576020918201911c5b61ffff81111561225b576010918201911c5b60ff81111561226c576008918201911c5b600f81111561227d576004918201911c5b600381111561228e576002918201911c5b600181111561229e576001820191505b80156122ab576001820191505b50848110156122b75750835b848103905085811c5f821184161561230557600181019050806001871b0361230557506001908101907fffffffffffffffffffffffffffffffffffffffffffffffffffffffffffffffff86011b5b6001851b8210612313575f5ffd5b90931b909201949350505050565b335f90815260096020908152604080832073ffffffffffffffffffffffffffffffffffffffff871684529091528120548190808203612390576040517fdcab82e2000000000000000000000000000000000000000000000000000000008152612af9600482015260240161008e565b60ff81901c6001036123d2576040517fdcab82e2000000000000000000000000000000000000000000000000000000008152612afa600482015260240161008e565b66ffffffffffffff600982901c1660ff600183901c161b5f6123f4838361287c565b90508260011660010361245b575f87131561242c576124198764e8d4a51000886127e9565b94506124258583612c54565b9150612486565b8561243c64e8d4a5100089612d58565b6124469190612da3565b945061245185612c1e565b6124259083612d1b565b8693505f841315612470576124258483612c54565b61247984612c1e565b6124839083612d1b565b91505b5f8713801561249457508082115b156124cf576040517fdcab82e2000000000000000000000000000000000000000000000000000000008152612afc600482015260240161008e565b6124da838383612938565b90506124eb826038600860016121fb565b91508167ffffffffffffffff600185901c1603612538576040517fdcab82e2000000000000000000000000000000000000000000000000000000008152612aff600482015260240161008e565b61254681603860085f6121fb565b335f90815260096020908152604080832073ffffffffffffffffffffffffffffffffffffffff9c909c1683529a9052989098207ffffffffffffffffffffffffc000000000000000000000000000000000000000190931660019290921b9190911760419790971b969096174260811b1790559094909350915050565b5f600f831660018190036125e1576125da8484612997565b915061262a565b806002036125f3576125da8484612a72565b6040517fd50d751200000000000000000000000000000000000000000000000000000000815262011172600482015260240161008e565b61ffff8211156126625760405161ffff92507fe41708b2641eb1f7442f6a1e760ae5098fd7ba9f85e0c101513add0fbb27bcd7905f90a15b5092915050565b5f5f5f5f5f858761c350f19050806121f6576040517fdee51a8a0000000000000000000000000000000000000000000000000000000081526201155a600482015260240161008e565b5f6040517fa9059cbb00000000000000000000000000000000000000000000000000000000815273ffffffffffffffffffffffffffffffffffffffff8416600482015282602482015260205f6044835f895af13d15601f3d1160015f511416171691505080612752576040517fdee51a8a0000000000000000000000000000000000000000000000000000000081526201155a600482015260240161008e565b50505050565b5f66ffffffffffffff604984901c1660ff604185901c161b808203612780575f915050611aa2565b612710613fff60a286901c168402046401ffffffff608186901c16420362ffffff60b087901c166127b18284612d2e565b6127bb9190612d45565b90508083116127ca575f6127ce565b8083035b935050808403838111156127e0578093505b50505092915050565b5f827fffffffffffffffffffffffffffffffffffffffffffffffffffffffffffffffff048411830215820261281c575f5ffd5b50910281810615159190040190565b5f6103ff60d085901c1660ff60c886901c161b8084101561284f575f915050612875565b50612710613fff60a286901c16840204830382811115612870579050612875565b829150505b9392505050565b5f608183901c6401ffffffff164203612710613fff60a286901c16840204808401604986901c66ffffffffffffff16604187901c60ff161b60b087901c62ffffff166128c88585612d2e565b6128d29190612d45565b6128dc9190612c54565b9350808411156128ea578093505b6103ff60d087901c1660ff60c888901c161b92508284101561291157829350505050611aa2565b6103ff60e287901c1660ff60da88901c161b9250828411156127e057829350505050611aa2565b612710613fff60a285901c16830204820160d084901c6103ff1660c885901c60ff161b8082101561296a579050612875565b506103ff60e285901c1660ff60da86901c161b80821115612989578091505b818311156128705750612875565b5f80808080601487901c61ffff16808710156129ce5761ffff600489901c16945061ffff602489901c1693505f92508091506129ed565b61ffff602489901c16945061ffff603489901c16935080925061271091505b5f5f84840364e8d4a510008888030281612a0957612a09612c67565b0585810264e8d4a5100089020392508902820190505f811215612a5d576040517fd50d751200000000000000000000000000000000000000000000000000000000815262011173600482015260240161008e565b64e8d4a5100090049998505050505050505050565b5f80808080601487901c61ffff1680871015612aa95761ffff600489901c16945061ffff602489901c1693505f92508091506129ed565b603488901c61ffff1680881015612adb5761ffff60248a901c16955061ffff60448a901c169450819350809250612afa565b61ffff60448a901c16955061ffff60548a901c16945080935061271092505b505f5f84840364e8d4a510008888030281612a0957612a09612c67565b803573ffffffffffffffffffffffffffffffffffffffff81168114612b3a575f5ffd5b919050565b5f5f5f5f5f5f5f60c0888a031215612b55575f5ffd5b612b5e88612b17565b96506020880135955060408801359450612b7a60608901612b17565b9350612b8860808901612b17565b925060a088013567ffffffffffffffff811115612ba3575f5ffd5b8801601f81018a13612bb3575f5ffd5b803567ffffffffffffffff811115612bc9575f5ffd5b8a6020828401011115612bda575f5ffd5b602082019350809250505092959891949750929550565b7f4e487b71000000000000000000000000000000000000000000000000000000005f52601160045260245ffd5b5f7f80000000000000000000000000000000000000000000000000000000000000008203612c4e57612c4e612bf1565b505f0390565b80820180821115611aa257611aa2612bf1565b7f4e487b71000000000000000000000000000000000000000000000000000000005f52601260045260245ffd5b5f60208284031215612ca4575f5ffd5b5051919050565b73ffffffffffffffffffffffffffffffffffffffff8516815283602082015260606040820152816060820152818360808301375f818301608090810191909152601f9092017fffffffffffffffffffffffffffffffffffffffffffffffffffffffffffffffe01601019392505050565b81810381811115611aa257611aa2612bf1565b8082028115828204841417611aa257611aa2612bf1565b5f82612d5357612d53612c67565b500490565b8082025f82127f800000000000000000000000000000000000000000000000000000000000000084141615612d8f57612d8f612bf1565b8181058314821517611aa257611aa2612bf1565b5f82612db157612db1612c67565b7fffffffffffffffffffffffffffffffffffffffffffffffffffffffffffffffff83147f800000000000000000000000000000000000000000000000000000000000000083141615612e0557612e05612bf1565b50059056fea2646970667358221220d5604dbb7acaf9476dd805473a89e41ce797344f73c5380a529b4ec6132fa49b64736f6c634300081d0033",
  "devdoc": {
    "events": {
      "LogOperate(address,address,int256,int256,address,address,uint256,uint256)": {
        "params": {
          "borrowAmount": "borrow amount for the operation. if >0 then a borrow happened, if <0 then a payback happened.                     if 0 then nothing.",
          "borrowTo": "address that funds where borrowed to (if borrowAmount >0)",
          "exchangePricesAndConfig": "updated exchange prices and configs storage slot. Contains updated supply & borrow exchange price: First 16 bits =>   0- 15 => borrow rate (in 1e2: 100% = 10_000; 1% = 100 -> max value 65535) Next  14 bits =>  16- 29 => fee on interest from borrowers to lenders (in 1e2: 100% = 10_000; 1% = 100 -> max value 16_383). configurable. Next  14 bits =>  30- 43 => last stored utilization (in 1e2: 100% = 10_000; 1% = 100 -> max value 16_383) Next  14 bits =>  44- 57 => update on storage threshold (in 1e2: 100% = 10_000; 1% = 100 -> max value 16_383). configurable. Next  33 bits =>  58- 90 => last update timestamp (enough until 16 March 2242 -> max value 8589934591) Next  64 bits =>  91-154 => supply exchange price (1e12 -> max value 18_446_744,073709551615) Next  64 bits => 155-218 => borrow exchange price (1e12 -> max value 18_446_744,073709551615) Next   1 bit  => 219-219 => if 0 then ratio is supplyInterestFree / supplyWithInterest else ratio is supplyWithInterest / supplyInterestFree Next  14 bits => 220-233 => supplyRatio: supplyInterestFree / supplyWithInterest (in 1e2: 100% = 10_000; 1% = 100 -> max value 16_383) Next   1 bit  => 234-234 => if 0 then ratio is borrowInterestFree / borrowWithInterest else ratio is borrowWithInterest / borrowInterestFree Next  14 bits => 235-248 => borrowRatio: borrowInterestFree / borrowWithInterest (in 1e2: 100% = 10_000; 1% = 100 -> max value 16_383)",
          "supplyAmount": "supply amount for the operation. if >0 then a deposit happened, if <0 then a withdrawal happened.                     if 0 then nothing.",
          "token": "token address for which this operation was executed",
          "totalAmounts": "updated total amounts, stacked uint256 as written to storage: First  64 bits =>   0- 63 => total supply with interest in raw (totalSupply = totalSupplyRaw * supplyExchangePrice); BigMath: 56 | 8 Next   64 bits =>  64-127 => total interest free supply in normal token amount (totalSupply = totalSupply); BigMath: 56 | 8 Next   64 bits => 128-191 => total borrow with interest in raw (totalBorrow = totalBorrowRaw * borrowExchangePrice); BigMath: 56 | 8 Next   64 bits => 192-255 => total interest free borrow in normal token amount (totalBorrow = totalBorrow); BigMath: 56 | 8",
          "user": "protocol that triggered this operation (e.g. via an fToken or via Vault protocol)",
          "withdrawTo": "address that funds where withdrawn to (if supplyAmount <0)"
        }
      }
    },
    "kind": "dev",
    "methods": {},
    "version": 1
  },
  "userdoc": {
    "events": {
      "BorrowRateMaxCap()": {
        "notice": "emitted if the calculated borrow rate surpassed max borrow rate (16 bits) and was capped at maximum value 65535"
      },
      "LogOperate(address,address,int256,int256,address,address,uint256,uint256)": {
        "notice": "emitted on any `operate()` execution: deposit / supply / withdraw / borrow. includes info related to the executed operation, new total amounts (packed uint256 of BigMath numbers as in storage) and exchange prices (packed uint256 as in storage)."
      }
    },
    "kind": "user",
    "methods": {
      "operate(address,int256,int256,address,address,bytes)": {
        "notice": "inheritdoc IFluidLiquidity"
      }
    },
    "version": 1
  },
  "storageLayout": {
    "storage": [
      {
        "astId": 9179,
        "contract": "contracts/liquidity/userModule/mainOthers.sol:FluidLiquidityUserModuleOthers",
        "label": "_revenueCollector",
        "offset": 0,
        "slot": "0",
        "type": "t_address"
      },
      {
        "astId": 9182,
        "contract": "contracts/liquidity/userModule/mainOthers.sol:FluidLiquidityUserModuleOthers",
        "label": "_status",
        "offset": 0,
        "slot": "1",
        "type": "t_uint256"
      },
      {
        "astId": 9187,
        "contract": "contracts/liquidity/userModule/mainOthers.sol:FluidLiquidityUserModuleOthers",
        "label": "_isAuth",
        "offset": 0,
        "slot": "2",
        "type": "t_mapping(t_address,t_uint256)"
      },
      {
        "astId": 9192,
        "contract": "contracts/liquidity/userModule/mainOthers.sol:FluidLiquidityUserModuleOthers",
        "label": "_isGuardian",
        "offset": 0,
        "slot": "3",
        "type": "t_mapping(t_address,t_uint256)"
      },
      {
        "astId": 9197,
        "contract": "contracts/liquidity/userModule/mainOthers.sol:FluidLiquidityUserModuleOthers",
        "label": "_userClass",
        "offset": 0,
        "slot": "4",
        "type": "t_mapping(t_address,t_uint256)"
      },
      {
        "astId": 9202,
        "contract": "contracts/liquidity/userModule/mainOthers.sol:FluidLiquidityUserModuleOthers",
        "label": "_exchangePricesAndConfig",
        "offset": 0,
        "slot": "5",
        "type": "t_mapping(t_address,t_uint256)"
      },
      {
        "astId": 9207,
        "contract": "contracts/liquidity/userModule/mainOthers.sol:FluidLiquidityUserModuleOthers",
        "label": "_rateData",
        "offset": 0,
        "slot": "6",
        "type": "t_mapping(t_address,t_uint256)"
      },
      {
        "astId": 9212,
        "contract": "contracts/liquidity/userModule/mainOthers.sol:FluidLiquidityUserModuleOthers",
        "label": "_totalAmounts",
        "offset": 0,
        "slot": "7",
        "type": "t_mapping(t_address,t_uint256)"
      },
      {
        "astId": 9219,
        "contract": "contracts/liquidity/userModule/mainOthers.sol:FluidLiquidityUserModuleOthers",
        "label": "_userSupplyData",
        "offset": 0,
        "slot": "8",
        "type": "t_mapping(t_address,t_mapping(t_address,t_uint256))"
      },
      {
        "astId": 9226,
        "contract": "contracts/liquidity/userModule/mainOthers.sol:FluidLiquidityUserModuleOthers",
        "label": "_userBorrowData",
        "offset": 0,
        "slot": "9",
        "type": "t_mapping(t_address,t_mapping(t_address,t_uint256))"
      },
      {
        "astId": 9230,
        "contract": "contracts/liquidity/userModule/mainOthers.sol:FluidLiquidityUserModuleOthers",
        "label": "_listedTokens",
        "offset": 0,
        "slot": "10",
        "type": "t_array(t_address)dyn_storage"
      },
      {
        "astId": 9235,
        "contract": "contracts/liquidity/userModule/mainOthers.sol:FluidLiquidityUserModuleOthers",
        "label": "_configs2",
        "offset": 0,
        "slot": "11",
        "type": "t_mapping(t_address,t_uint256)"
      }
    ],
    "types": {
      "t_address": {
        "encoding": "inplace",
        "label": "address",
        "numberOfBytes": "20"
      },
      "t_array(t_address)dyn_storage": {
        "base": "t_address",
        "encoding": "dynamic_array",
        "label": "address[]",
        "numberOfBytes": "32"
      },
      "t_mapping(t_address,t_mapping(t_address,t_uint256))": {
        "encoding": "mapping",
        "key": "t_address",
        "label": "mapping(address => mapping(address => uint256))",
        "numberOfBytes": "32",
        "value": "t_mapping(t_address,t_uint256)"
      },
      "t_mapping(t_address,t_uint256)": {
        "encoding": "mapping",
        "key": "t_address",
        "label": "mapping(address => uint256)",
        "numberOfBytes": "32",
        "value": "t_uint256"
      },
      "t_uint256": {
        "encoding": "inplace",
        "label": "uint256",
        "numberOfBytes": "32"
      }
    }
  }
}