{
  "address": "0x44b417959D5a96258B6bc7Aa712EBc2BfEb74CE5",
  "abi": [
    {
      "inputs": [
        {
          "internalType": "contract IFluidVaultResolver",
          "name": "vaultResolver_",
          "type": "address"
        },
        {
          "internalType": "contract IFluidVaultFactory",
          "name": "vaultFactory_",
          "type": "address"
        }
      ],
      "stateMutability": "nonpayable",
      "type": "constructor"
    },
    {
      "inputs": [],
      "name": "FluidVaultPositionsResolver__AddressZero",
      "type": "error"
    },
    {
      "inputs": [],
      "name": "FACTORY",
      "outputs": [
        {
          "internalType": "contract IFluidVaultFactory",
          "name": "",
          "type": "address"
        }
      ],
      "stateMutability": "view",
      "type": "function"
    },
    {
      "inputs": [],
      "name": "VAULT_RESOLVER",
      "outputs": [
        {
          "internalType": "contract IFluidVaultResolver",
          "name": "",
          "type": "address"
        }
      ],
      "stateMutability": "view",
      "type": "function"
    },
    {
      "inputs": [
        {
          "internalType": "address",
          "name": "vault_",
          "type": "address"
        }
      ],
      "name": "getAllVaultNftIds",
      "outputs": [
        {
          "internalType": "uint256[]",
          "name": "nftIds_",
          "type": "uint256[]"
        }
      ],
      "stateMutability": "view",
      "type": "function"
    },
    {
      "inputs": [
        {
          "internalType": "address",
          "name": "vault_",
          "type": "address"
        }
      ],
      "name": "getAllVaultPositions",
      "outputs": [
        {
          "components": [
            {
              "internalType": "uint256",
              "name": "nftId",
              "type": "uint256"
            },
            {
              "internalType": "address",
              "name": "owner",
              "type": "address"
            },
            {
              "internalType": "uint256",
              "name": "supply",
              "type": "uint256"
            },
            {
              "internalType": "uint256",
              "name": "borrow",
              "type": "uint256"
            }
          ],
          "internalType": "struct Structs.UserPosition[]",
          "name": "positions_",
          "type": "tuple[]"
        }
      ],
      "stateMutability": "view",
      "type": "function"
    },
    {
      "inputs": [
        {
          "internalType": "uint256[]",
          "name": "nftIds_",
          "type": "uint256[]"
        }
      ],
      "name": "getPositionsForNftIds",
      "outputs": [
        {
          "components": [
            {
              "internalType": "uint256",
              "name": "nftId",
              "type": "uint256"
            },
            {
              "internalType": "address",
              "name": "owner",
              "type": "address"
            },
            {
              "internalType": "uint256",
              "name": "supply",
              "type": "uint256"
            },
            {
              "internalType": "uint256",
              "name": "borrow",
              "type": "uint256"
            }
          ],
          "internalType": "struct Structs.UserPosition[]",
          "name": "positions_",
          "type": "tuple[]"
        }
      ],
      "stateMutability": "view",
      "type": "function"
    }
  ],
  "transactionHash": "0x2367b4f5f3906dc98bc2b7af2f8db01f530d4bad1ea08c8e7340de7abe1884f8",
  "args": [
    "0x3c64Ec468D7f0998cB6dea05d4D8AB847573fE4D",
    "0x324c5Dc1fC42c7a4D43d92df1eBA58a54d13Bf2d"
  ],
  "numDeployments": 1,
  "solcInputHash": "4f63da12d66a256eeca1b26617ce10fe",
  "bytecode": "0x60c06040523480156200001157600080fd5b50604051620019273803806200192783398101604081905262000034916200009e565b6001600160a01b03808316608081905290821660a05215806200005e57506001600160a01b038116155b156200007d576040516302fdcc4f60e31b815260040160405180910390fd5b5050620000dd565b6001600160a01b03811681146200009b57600080fd5b50565b60008060408385031215620000b257600080fd5b8251620000bf8162000085565b6020840151909250620000d28162000085565b809150509250929050565b60805160a0516117cb6200015c60003960008181607101528181610410015281816105e40152818161081f01528181610a3c01528181610b4301528181610c4d0152610d4701526000818160e2015281816102dc015281816104eb01528181610749015281816108fa01528181610e1e0152610f5501526117cb6000f3fe608060405234801561001057600080fd5b50600436106100675760003560e01c80637f3e2b48116100505780637f3e2b48146100dd578063bd7b630d14610104578063f752d7571461012457600080fd5b80632dd310001461006c5780635bbf0e14146100bd575b600080fd5b6100937f000000000000000000000000000000000000000000000000000000000000000081565b60405173ffffffffffffffffffffffffffffffffffffffff90911681526020015b60405180910390f35b6100d06100cb3660046113d4565b610137565b6040516100b491906114b0565b6100937f000000000000000000000000000000000000000000000000000000000000000081565b61011761011236600461154f565b61040a565b6040516100b4919061156c565b6100d061013236600461154f565b6106d9565b6060815167ffffffffffffffff811115610153576101536113a5565b6040519080825280602002602001820160405280156101c557816020015b6101b2604051806080016040528060008152602001600073ffffffffffffffffffffffffffffffffffffffff16815260200160008152602001600081525090565b8152602001906001900390816101715790505b50905060005b82518110156104045760006101f88483815181106101eb576101eb6115b0565b6020026020010151610b3e565b905073ffffffffffffffffffffffffffffffffffffffff811661028a576040518060800160405280858481518110610232576102326115b0565b60200260200101518152602001600073ffffffffffffffffffffffffffffffffffffffff16815260200160008152602001600081525083838151811061027a5761027a6115b0565b60200260200101819052506103f3565b6040517feb1db01800000000000000000000000000000000000000000000000000000000815273ffffffffffffffffffffffffffffffffffffffff8083166004830181905260009283926309f0d8cb917f00000000000000000000000000000000000000000000000000000000000000009091169063eb1db01890602401602060405180830381865afa158015610325573d6000803e3d6000fd5b505050506040513d601f19601f8201168201806040525081019061034991906115df565b6040518263ffffffff1660e01b815260040161036791815260200190565b608060405180830381865afa158015610384573d6000803e3d6000fd5b505050506040513d601f19601f820116820180604052508101906103a891906115f8565b9350935050506103d3838786815181106103c4576103c46115b0565b60200260200101518484610cd4565b8585815181106103e5576103e56115b0565b602002602001018190525050505b506103fd8161165d565b90506101cb565b50919050565b606060007f000000000000000000000000000000000000000000000000000000000000000073ffffffffffffffffffffffffffffffffffffffff166318160ddd6040518163ffffffff1660e01b8152600401602060405180830381865afa158015610479573d6000803e3d6000fd5b505050506040513d601f19601f8201168201806040525081019061049d91906115df565b6040517f03e883e000000000000000000000000000000000000000000000000000000000815273ffffffffffffffffffffffffffffffffffffffff858116600483015291925060009160d2917f0000000000000000000000000000000000000000000000000000000000000000909116906303e883e090602401602060405180830381865afa158015610534573d6000803e3d6000fd5b505050506040513d601f19601f8201168201806040525081019061055891906115df565b901c63ffffffff1690508067ffffffffffffffff81111561057b5761057b6113a5565b6040519080825280602002602001820160405280156105a4578160200160208202803683370190505b50925060008060005b848110156106cf576040517f4f6ccce7000000000000000000000000000000000000000000000000000000008152600481018290527f000000000000000000000000000000000000000000000000000000000000000073ffffffffffffffffffffffffffffffffffffffff1690634f6ccce790602401602060405180830381865afa158015610640573d6000803e3d6000fd5b505050506040513d601f19601f8201168201806040525081019061066491906115df565b925060010173ffffffffffffffffffffffffffffffffffffffff871661068984610b3e565b73ffffffffffffffffffffffffffffffffffffffff16036106ca57828683815181106106b7576106b76115b0565b6020026020010181815250508160010191505b6105ad565b5050505050919050565b606073ffffffffffffffffffffffffffffffffffffffff821615610b39576040517feb1db01800000000000000000000000000000000000000000000000000000000815273ffffffffffffffffffffffffffffffffffffffff8084166004830181905260009283926309f0d8cb917f00000000000000000000000000000000000000000000000000000000000000009091169063eb1db01890602401602060405180830381865afa158015610792573d6000803e3d6000fd5b505050506040513d601f19601f820116820180604052508101906107b691906115df565b6040518263ffffffff1660e01b81526004016107d491815260200190565b608060405180830381865afa1580156107f1573d6000803e3d6000fd5b505050506040513d601f19601f8201168201806040525081019061081591906115f8565b93509350505060007f000000000000000000000000000000000000000000000000000000000000000073ffffffffffffffffffffffffffffffffffffffff166318160ddd6040518163ffffffff1660e01b8152600401602060405180830381865afa158015610888573d6000803e3d6000fd5b505050506040513d601f19601f820116820180604052508101906108ac91906115df565b6040517f03e883e000000000000000000000000000000000000000000000000000000000815273ffffffffffffffffffffffffffffffffffffffff878116600483015291925060009160d2917f0000000000000000000000000000000000000000000000000000000000000000909116906303e883e090602401602060405180830381865afa158015610943573d6000803e3d6000fd5b505050506040513d601f19601f8201168201806040525081019061096791906115df565b901c63ffffffff1690508067ffffffffffffffff81111561098a5761098a6113a5565b6040519080825280602002602001820160405280156109fc57816020015b6109e9604051806080016040528060008152602001600073ffffffffffffffffffffffffffffffffffffffff16815260200160008152602001600081525090565b8152602001906001900390816109a85790505b50945060008060005b84811015610b31576040517f4f6ccce7000000000000000000000000000000000000000000000000000000008152600481018290527f000000000000000000000000000000000000000000000000000000000000000073ffffffffffffffffffffffffffffffffffffffff1690634f6ccce790602401602060405180830381865afa158015610a98573d6000803e3d6000fd5b505050506040513d601f19601f82011682018060405250810190610abc91906115df565b925060010173ffffffffffffffffffffffffffffffffffffffff8916610ae184610b3e565b73ffffffffffffffffffffffffffffffffffffffff1603610b2c57610b0889848989610cd4565b888381518110610b1a57610b1a6115b0565b60200260200101819052508160010191505b610a05565b505050505050505b919050565b6000807f000000000000000000000000000000000000000000000000000000000000000073ffffffffffffffffffffffffffffffffffffffff1663b5c736e4846003604051602001610b9d92919091825260ff16602082015260400190565b604051602081830303815290604052805190602001206040518263ffffffff1660e01b8152600401610bd191815260200190565b602060405180830381865afa158015610bee573d6000803e3d6000fd5b505050506040513d601f19601f82011682018060405250810190610c1291906115df565b6040517fe6bd26a200000000000000000000000000000000000000000000000000000000815263ffffffff60c083901c1660048201529091507f000000000000000000000000000000000000000000000000000000000000000073ffffffffffffffffffffffffffffffffffffffff169063e6bd26a290602401602060405180830381865afa158015610ca9573d6000803e3d6000fd5b505050506040513d601f19601f82011682018060405250810190610ccd9190611695565b9392505050565b610d15604051806080016040528060008152602001600073ffffffffffffffffffffffffffffffffffffffff16815260200160008152602001600081525090565b8381526040517f6352211e000000000000000000000000000000000000000000000000000000008152600481018590527f000000000000000000000000000000000000000000000000000000000000000073ffffffffffffffffffffffffffffffffffffffff1690636352211e90602401602060405180830381865afa158015610da3573d6000803e3d6000fd5b505050506040513d601f19601f82011682018060405250810190610dc79190611695565b73ffffffffffffffffffffffffffffffffffffffff90811660208301526040517fcbc7be650000000000000000000000000000000000000000000000000000000081528682166004820152602481018690526000917f0000000000000000000000000000000000000000000000000000000000000000169063cbc7be6590604401602060405180830381865afa158015610e65573d6000803e3d6000fd5b505050506040513d601f19601f82011682018060405250810190610e8991906115df565b66ffffffffffffff603582901c1660ff602d83901c161b6040840152905060018082161461111557600081600216600214610ed557610ed0600283901c6207ffff166116b2565b610ee0565b6207ffff600283901c165b905060608360400151610ef58360020b611143565b610eff91906116ea565b901c60608401526040517f168a11c200000000000000000000000000000000000000000000000000000000815273ffffffffffffffffffffffffffffffffffffffff8881166004830152602482018390526000917f00000000000000000000000000000000000000000000000000000000000000009091169063168a11c290604401602060405180830381865afa158015610f9e573d6000803e3d6000fd5b505050506040513d601f19601f82011682018060405250810190610fc291906115df565b9050601583901c62ffffff1660018083161480610fe757508062ffffff600184901c16115b156110a55760608501516040517f22348cc7000000000000000000000000000000000000000000000000000000008152600481018590526024810183905260448101919091526064810183905273ffffffffffffffffffffffffffffffffffffffff8a16906322348cc79060840160a060405180830381865afa158015611072573d6000803e3d6000fd5b505050506040513d601f19601f820116820180604052508101906110969190611707565b50506040880152606087015292505b606085015166ffffffffffffff607586901c1660ff606d87901c161b908110156110e3578086606001516110d99190611747565b60608701526110eb565b600060608701525b64e8d4a5100087876060015161110191906116ea565b61110b919061175a565b6060870152505050505b64e8d4a5100084836040015161112b91906116ea565b611135919061175a565b604083015250949350505050565b600060ff82901d80831803617fff81111561115d57600080fd5b700100000000000000000000000000000000600182161561118b57506fff9dd7de423466c20352b1246ce4856f5b60028216156111aa576fff3bd55f4488ad277531fa1c725a66d00260801c5b60048216156111c9576ffe78410fd6498b73cb96a6917f8532590260801c5b60088216156111e8576ffcf2d9987c9be178ad5bfeffaa1232730260801c5b6010821615611207576ff9ef02c4529258b057769680fc6601b30260801c5b6020821615611226576ff402d288133a85a17784a411f7aba0820260801c5b6040821615611245576fe895615b5beb6386553757b0352bda900260801c5b6080821615611264576fd34f17a00ffa00a8309940a15930391a0260801c5b610100821615611284576fae6b7961714e20548d88ea5123f9a0ff0260801c5b6102008216156112a4576f76d6461f27082d74e0feed3b388c0ca10260801c5b6104008216156112c4576f372a3bfe0745d8b6b19d985d9a8b85bb0260801c5b6108008216156112e4576f0be32cbee48979763cf7247dd7bb539d0260801c5b611000821615611303576e8d4f70c9ff4924dac37612d1e2921e0260801c5b612000821615611321576d4e009ae5519380809a02ca7aec770260801c5b61400082161561133d576b17c45e641b6e95dee056ff100260801c5b600091507f8000000000000000000000000000000000000000000000000000000000000000841661139b577fffffffffffffffffffffffffffffffffffffffffffffffffffffffffffffffff0463ffffffff81161561139b57600191505b60201c0192915050565b7f4e487b7100000000000000000000000000000000000000000000000000000000600052604160045260246000fd5b600060208083850312156113e757600080fd5b823567ffffffffffffffff808211156113ff57600080fd5b818501915085601f83011261141357600080fd5b813581811115611425576114256113a5565b8060051b6040517fffffffffffffffffffffffffffffffffffffffffffffffffffffffffffffffe0603f83011681018181108582111715611468576114686113a5565b60405291825284820192508381018501918883111561148657600080fd5b938501935b828510156114a45784358452938501939285019261148b565b98975050505050505050565b602080825282518282018190526000919060409081850190868401855b8281101561151d578151805185528681015173ffffffffffffffffffffffffffffffffffffffff1687860152858101518686015260609081015190850152608090930192908501906001016114cd565b5091979650505050505050565b73ffffffffffffffffffffffffffffffffffffffff8116811461154c57600080fd5b50565b60006020828403121561156157600080fd5b8135610ccd8161152a565b6020808252825182820181905260009190848201906040850190845b818110156115a457835183529284019291840191600101611588565b50909695505050505050565b7f4e487b7100000000000000000000000000000000000000000000000000000000600052603260045260246000fd5b6000602082840312156115f157600080fd5b5051919050565b6000806000806080858703121561160e57600080fd5b505082516020840151604085015160609095015191969095509092509050565b7f4e487b7100000000000000000000000000000000000000000000000000000000600052601160045260246000fd5b60007fffffffffffffffffffffffffffffffffffffffffffffffffffffffffffffffff820361168e5761168e61162e565b5060010190565b6000602082840312156116a757600080fd5b8151610ccd8161152a565b60007f800000000000000000000000000000000000000000000000000000000000000082036116e3576116e361162e565b5060000390565b80820281158282048414176117015761170161162e565b92915050565b600080600080600060a0868803121561171f57600080fd5b5050835160208501516040860151606087015160809097015192989197509594509092509050565b818103818111156117015761170161162e565b600082611790577f4e487b7100000000000000000000000000000000000000000000000000000000600052601260045260246000fd5b50049056fea26469706673582212208d6722975ac3b9add038abcb221d3d75728873efae26402c653f7afcd512baf964736f6c63430008150033",
  "devdoc": {
    "kind": "dev",
    "methods": {},
    "title": "Fluid Vault protocol Positions Resolver for all vault types.",
    "version": 1
  },
  "userdoc": {
    "errors": {
      "FluidVaultPositionsResolver__AddressZero()": [
        {
          "notice": "thrown if an input param address is zero"
        }
      ]
    },
    "kind": "user",
    "methods": {
      "constructor": {
        "notice": "constructor sets the immutable vault resolver and vault factory address"
      }
    },
    "notice": "This contract resolves positions for Fluid Vaults, providing functionality to retrieve NFT IDs and positions for a given vault.",
    "version": 1
  },
  "storageLayout": {
    "storage": [],
    "types": null
  }
}