{
  "address": "0x4D2753aDD006eBf57500e6207C0414DBE8ce54B9",
  "abi": [
    {
      "inputs": [
        {
          "internalType": "uint256",
          "name": "colLiquidated",
          "type": "uint256"
        },
        {
          "internalType": "uint256",
          "name": "debtLiquidated",
          "type": "uint256"
        }
      ],
      "name": "FluidLiquidateResult",
      "type": "error"
    },
    {
      "inputs": [
        {
          "internalType": "uint256",
          "name": "errorId_",
          "type": "uint256"
        }
      ],
      "name": "FluidSafeTransferError",
      "type": "error"
    },
    {
      "inputs": [
        {
          "internalType": "uint256",
          "name": "errorId_",
          "type": "uint256"
        }
      ],
      "name": "FluidVaultError",
      "type": "error"
    },
    {
      "anonymous": false,
      "inputs": [
        {
          "indexed": false,
          "internalType": "uint256[]",
          "name": "nftIds_",
          "type": "uint256[]"
        },
        {
          "indexed": false,
          "internalType": "uint256",
          "name": "absorbedDustDebt_",
          "type": "uint256"
        }
      ],
      "name": "LogAbsorbDustDebt",
      "type": "event"
    },
    {
      "anonymous": false,
      "inputs": [
        {
          "indexed": true,
          "internalType": "address",
          "name": "token_",
          "type": "address"
        }
      ],
      "name": "LogRescueFunds",
      "type": "event"
    },
    {
      "anonymous": false,
      "inputs": [
        {
          "indexed": false,
          "internalType": "uint256",
          "name": "borrowFee_",
          "type": "uint256"
        }
      ],
      "name": "LogUpdateBorrowFee",
      "type": "event"
    },
    {
      "anonymous": false,
      "inputs": [
        {
          "indexed": false,
          "internalType": "uint256",
          "name": "borrowRateMagnifier_",
          "type": "uint256"
        }
      ],
      "name": "LogUpdateBorrowRateMagnifier",
      "type": "event"
    },
    {
      "anonymous": false,
      "inputs": [
        {
          "indexed": false,
          "internalType": "uint256",
          "name": "collateralFactor_",
          "type": "uint256"
        }
      ],
      "name": "LogUpdateCollateralFactor",
      "type": "event"
    },
    {
      "anonymous": false,
      "inputs": [
        {
          "indexed": false,
          "internalType": "int256",
          "name": "supplyRate_",
          "type": "int256"
        },
        {
          "indexed": false,
          "internalType": "uint256",
          "name": "borrowRateMagnifier_",
          "type": "uint256"
        },
        {
          "indexed": false,
          "internalType": "uint256",
          "name": "collateralFactor_",
          "type": "uint256"
        },
        {
          "indexed": false,
          "internalType": "uint256",
          "name": "liquidationThreshold_",
          "type": "uint256"
        },
        {
          "indexed": false,
          "internalType": "uint256",
          "name": "liquidationMaxLimit_",
          "type": "uint256"
        },
        {
          "indexed": false,
          "internalType": "uint256",
          "name": "withdrawGap_",
          "type": "uint256"
        },
        {
          "indexed": false,
          "internalType": "uint256",
          "name": "liquidationPenalty_",
          "type": "uint256"
        },
        {
          "indexed": false,
          "internalType": "uint256",
          "name": "borrowFee_",
          "type": "uint256"
        }
      ],
      "name": "LogUpdateCoreSettings",
      "type": "event"
    },
    {
      "anonymous": false,
      "inputs": [
        {
          "indexed": false,
          "internalType": "uint256",
          "name": "liquidationMaxLimit_",
          "type": "uint256"
        }
      ],
      "name": "LogUpdateLiquidationMaxLimit",
      "type": "event"
    },
    {
      "anonymous": false,
      "inputs": [
        {
          "indexed": false,
          "internalType": "uint256",
          "name": "liquidationPenalty_",
          "type": "uint256"
        }
      ],
      "name": "LogUpdateLiquidationPenalty",
      "type": "event"
    },
    {
      "anonymous": false,
      "inputs": [
        {
          "indexed": false,
          "internalType": "uint256",
          "name": "liquidationThreshold_",
          "type": "uint256"
        }
      ],
      "name": "LogUpdateLiquidationThreshold",
      "type": "event"
    },
    {
      "anonymous": false,
      "inputs": [
        {
          "indexed": true,
          "internalType": "uint256",
          "name": "deploymentNonce_",
          "type": "uint256"
        },
        {
          "indexed": true,
          "internalType": "address",
          "name": "newOracle_",
          "type": "address"
        }
      ],
      "name": "LogUpdateOracle",
      "type": "event"
    },
    {
      "anonymous": false,
      "inputs": [
        {
          "indexed": true,
          "internalType": "address",
          "name": "newRebalancer_",
          "type": "address"
        }
      ],
      "name": "LogUpdateRebalancer",
      "type": "event"
    },
    {
      "anonymous": false,
      "inputs": [
        {
          "indexed": false,
          "internalType": "int256",
          "name": "supplyRate_",
          "type": "int256"
        }
      ],
      "name": "LogUpdateSupplyRate",
      "type": "event"
    },
    {
      "anonymous": false,
      "inputs": [
        {
          "indexed": false,
          "internalType": "uint256",
          "name": "withdrawGap_",
          "type": "uint256"
        }
      ],
      "name": "LogUpdateWithdrawGap",
      "type": "event"
    },
    {
      "inputs": [
        {
          "internalType": "uint256[]",
          "name": "nftIds_",
          "type": "uint256[]"
        }
      ],
      "name": "absorbDustDebt",
      "outputs": [],
      "stateMutability": "nonpayable",
      "type": "function"
    },
    {
      "inputs": [
        {
          "internalType": "address",
          "name": "token_",
          "type": "address"
        }
      ],
      "name": "rescueFunds",
      "outputs": [],
      "stateMutability": "nonpayable",
      "type": "function"
    },
    {
      "inputs": [
        {
          "internalType": "uint256",
          "name": "borrowFee_",
          "type": "uint256"
        }
      ],
      "name": "updateBorrowFee",
      "outputs": [],
      "stateMutability": "nonpayable",
      "type": "function"
    },
    {
      "inputs": [
        {
          "internalType": "uint256",
          "name": "borrowRateMagnifier_",
          "type": "uint256"
        }
      ],
      "name": "updateBorrowRateMagnifier",
      "outputs": [],
      "stateMutability": "nonpayable",
      "type": "function"
    },
    {
      "inputs": [
        {
          "internalType": "uint256",
          "name": "collateralFactor_",
          "type": "uint256"
        }
      ],
      "name": "updateCollateralFactor",
      "outputs": [],
      "stateMutability": "nonpayable",
      "type": "function"
    },
    {
      "inputs": [
        {
          "internalType": "int256",
          "name": "supplyRate_",
          "type": "int256"
        },
        {
          "internalType": "uint256",
          "name": "borrowRateMagnifier_",
          "type": "uint256"
        },
        {
          "internalType": "uint256",
          "name": "collateralFactor_",
          "type": "uint256"
        },
        {
          "internalType": "uint256",
          "name": "liquidationThreshold_",
          "type": "uint256"
        },
        {
          "internalType": "uint256",
          "name": "liquidationMaxLimit_",
          "type": "uint256"
        },
        {
          "internalType": "uint256",
          "name": "withdrawGap_",
          "type": "uint256"
        },
        {
          "internalType": "uint256",
          "name": "liquidationPenalty_",
          "type": "uint256"
        },
        {
          "internalType": "uint256",
          "name": "borrowFee_",
          "type": "uint256"
        }
      ],
      "name": "updateCoreSettings",
      "outputs": [],
      "stateMutability": "nonpayable",
      "type": "function"
    },
    {
      "inputs": [
        {
          "internalType": "uint256",
          "name": "liquidationMaxLimit_",
          "type": "uint256"
        }
      ],
      "name": "updateLiquidationMaxLimit",
      "outputs": [],
      "stateMutability": "nonpayable",
      "type": "function"
    },
    {
      "inputs": [
        {
          "internalType": "uint256",
          "name": "liquidationPenalty_",
          "type": "uint256"
        }
      ],
      "name": "updateLiquidationPenalty",
      "outputs": [],
      "stateMutability": "nonpayable",
      "type": "function"
    },
    {
      "inputs": [
        {
          "internalType": "uint256",
          "name": "liquidationThreshold_",
          "type": "uint256"
        }
      ],
      "name": "updateLiquidationThreshold",
      "outputs": [],
      "stateMutability": "nonpayable",
      "type": "function"
    },
    {
      "inputs": [
        {
          "internalType": "uint256",
          "name": "newOracleNonce_",
          "type": "uint256"
        }
      ],
      "name": "updateOracle",
      "outputs": [],
      "stateMutability": "nonpayable",
      "type": "function"
    },
    {
      "inputs": [
        {
          "internalType": "address",
          "name": "newRebalancer_",
          "type": "address"
        }
      ],
      "name": "updateRebalancer",
      "outputs": [],
      "stateMutability": "nonpayable",
      "type": "function"
    },
    {
      "inputs": [
        {
          "internalType": "int256",
          "name": "supplyRate_",
          "type": "int256"
        }
      ],
      "name": "updateSupplyRate",
      "outputs": [],
      "stateMutability": "nonpayable",
      "type": "function"
    },
    {
      "inputs": [
        {
          "internalType": "uint256",
          "name": "withdrawGap_",
          "type": "uint256"
        }
      ],
      "name": "updateWithdrawGap",
      "outputs": [],
      "stateMutability": "nonpayable",
      "type": "function"
    }
  ],
  "transactionHash": "0x6bb39a1c1e70f9abe979a77584fc5d0ea43a352b0f9111a74fda7c32a1932bea",
  "args": [],
  "numDeployments": 1,
  "solcInputHash": "9f5cd0e9c1eda40ac59a3b10ab974fc1",
  "bytecode": "0x60a060405234801561001057600080fd5b5030608052608051612c90610084600039600081816102680152818161040a015281816105ab0152818161075601528181610a0201528181610bb601528181610d5f01528181610eef015281816111f90152818161133c0152818161185d015281816119aa0152611c950152612c906000f3fe608060405234801561001057600080fd5b50600436106100df5760003560e01c8063b8244f5f1161008c578063d61b93fe11610066578063d61b93fe14610191578063d90ed355146101a4578063e53b2017146101b7578063f7a0a7e0146101ca57600080fd5b8063b8244f5f14610158578063c23c1c9f1461016b578063d3b5be1a1461017e57600080fd5b80636017146f116100bd5780636017146f1461011f578063898e962814610132578063b046a4491461014557600080fd5b806303f9923c146100e4578063509c21a4146100f957806357917a111461010c575b600080fd5b6100f76100f23660046126d9565b6101dd565b005b6100f76101073660046126d9565b61037f565b6100f761011a3660046126d9565b610520565b6100f761012d3660046126f2565b6106cb565b6100f76101403660046126d9565b610977565b6100f761015336600461276c565b610b2b565b6100f76101663660046126d9565b610cd4565b6100f76101793660046126d9565b610e64565b6100f761018c3660046126d9565b61116e565b6100f761019f366004612838565b611325565b6100f76101b23660046126d9565b6117d2565b6100f76101c536600461276c565b611993565b6100f76101d83660046126d9565b611c0a565b3073ffffffffffffffffffffffffffffffffffffffff1663021618876040518163ffffffff1660e01b81526004016080604051808303816000875af115801561022a573d6000803e3d6000fd5b505050506040513d601f19601f8201168201806040525081019061024e91906128de565b50505073ffffffffffffffffffffffffffffffffffffffff7f000000000000000000000000000000000000000000000000000000000000000016300390506102cb576040517f60121cca0000000000000000000000000000000000000000000000000000000081526180ea60048201526024015b60405180910390fd5b6040518181527fba3aefe95d9bb126dd0e7885e76f453e72b0ee6efd457771f26fe0a7ca56cedc9060200160405180910390a1610309600a82612943565b90506103e881111561034b576040517f60121cca0000000000000000000000000000000000000000000000000000000081526180e960048201526024016102c2565b603e81901b6001547fffffffffffffffffffffffffffffffffffffffffffffff003fffffffffffffff161760018190555050565b3073ffffffffffffffffffffffffffffffffffffffff1663021618876040518163ffffffff1660e01b81526004016080604051808303816000875af11580156103cc573d6000803e3d6000fd5b505050506040513d601f19601f820116820180604052508101906103f091906128de565b50505073ffffffffffffffffffffffffffffffffffffffff7f00000000000000000000000000000000000000000000000000000000000000001630039050610468576040517f60121cca0000000000000000000000000000000000000000000000000000000081526180ea60048201526024016102c2565b6040518181527f0e8160f7246256e8f7eea7dc5ee9de8c9fa1d6057c30561f548e6a84defeef159060200160405180910390a1600154602a81901c6103ff166104b2600a84612943565b92508083106104f1576040517f60121cca0000000000000000000000000000000000000000000000000000000081526180e960048201526024016102c2565b507ffffffffffffffffffffffffffffffffffffffffffffffffffffffc00ffffffff1660209190911b17600155565b3073ffffffffffffffffffffffffffffffffffffffff1663021618876040518163ffffffff1660e01b81526004016080604051808303816000875af115801561056d573d6000803e3d6000fd5b505050506040513d601f19601f8201168201806040525081019061059191906128de565b50505073ffffffffffffffffffffffffffffffffffffffff7f00000000000000000000000000000000000000000000000000000000000000001630039050610609576040517f60121cca0000000000000000000000000000000000000000000000000000000081526180ea60048201526024016102c2565b6040518181527fd3d6bb99321a653b7fc969c9f2a1917bd9623cab8ecaa67a2e1bec34c3eb2e1c9060200160405180910390a1600154603481901c6103ff1661065c61065682600a61297e565b84611d9a565b6103ff83111561069c576040517f60121cca0000000000000000000000000000000000000000000000000000000081526180e960048201526024016102c2565b507ffffffffffffffffffffffffffffffffffffffffffffc00ffffffffffffffffff1660489190911b17600155565b3073ffffffffffffffffffffffffffffffffffffffff1663021618876040518163ffffffff1660e01b81526004016080604051808303816000875af1158015610718573d6000803e3d6000fd5b505050506040513d601f19601f8201168201806040525081019061073c91906128de565b50505073ffffffffffffffffffffffffffffffffffffffff7f000000000000000000000000000000000000000000000000000000000000000016300390506107b4576040517f60121cca0000000000000000000000000000000000000000000000000000000081526180ea60048201526024016102c2565b6040805189815260208101899052908101879052606081018690526080810185905260a0810184905260c0810183905260e081018290527f185cbeb042106e418efd502a38682a60dd066d84bcbf7c310632f2ffe6b0ffaf906101000160405180910390a16108238483611d9a565b61082e600a87612943565b955061083b600a86612943565b9450610848600a85612943565b9350610855600a84612943565b9250617fff8813806108705750617fff61086e89612995565b135b8061087c575061ffff87115b806108875750848610155b806108925750838510155b8061089e57506103ff83115b806108aa57506103ff82115b806108b657506103ff81115b156108f1576040517f60121cca0000000000000000000000000000000000000000000000000000000081526180e960048201526024016102c2565b600080891261090557600189811b17610913565b60016109108a612995565b901b5b9050605282901b604884901b603e86901b603488901b602a8a901b60208c901b60108e901b876001547ffffffffffffffffffffffffffffffffffffffffff00000000000000000000000161717171717171717600181905550505050505050505050565b3073ffffffffffffffffffffffffffffffffffffffff1663021618876040518163ffffffff1660e01b81526004016080604051808303816000875af11580156109c4573d6000803e3d6000fd5b505050506040513d601f19601f820116820180604052508101906109e891906128de565b50505073ffffffffffffffffffffffffffffffffffffffff7f00000000000000000000000000000000000000000000000000000000000000001630039050610a60576040517f60121cca0000000000000000000000000000000000000000000000000000000081526180ea60048201526024016102c2565b6040518181527f5ac1492eb2009d4983693cc59b4ec4032b506a0f9cbefc19a7545af5945d26af9060200160405180910390a16001546103ff602a82901c811690604883901c16610ab18482611d9a565b610abc600a85612943565b9350838210610afb576040517f60121cca0000000000000000000000000000000000000000000000000000000081526180e960048201526024016102c2565b50507fffffffffffffffffffffffffffffffffffffffffffffffffc00fffffffffffff1660349190911b17600155565b3073ffffffffffffffffffffffffffffffffffffffff1663021618876040518163ffffffff1660e01b81526004016080604051808303816000875af1158015610b78573d6000803e3d6000fd5b505050506040513d601f19601f82011682018060405250810190610b9c91906128de565b50505073ffffffffffffffffffffffffffffffffffffffff7f00000000000000000000000000000000000000000000000000000000000000001630039050610c14576040517f60121cca0000000000000000000000000000000000000000000000000000000081526180ea60048201526024016102c2565b73ffffffffffffffffffffffffffffffffffffffff8116610c65576040517f60121cca0000000000000000000000000000000000000000000000000000000081526180f160048201526024016102c2565b600980547fffffffffffffffffffffffff00000000000000000000000000000000000000001673ffffffffffffffffffffffffffffffffffffffff83169081179091556040517fdb94ee7fd8b5bbf8f6d59e76731ff4b4f5a02ab3af1d3e0c774862cf96ff613b90600090a250565b3073ffffffffffffffffffffffffffffffffffffffff1663021618876040518163ffffffff1660e01b81526004016080604051808303816000875af1158015610d21573d6000803e3d6000fd5b505050506040513d601f19601f82011682018060405250810190610d4591906128de565b50505073ffffffffffffffffffffffffffffffffffffffff7f00000000000000000000000000000000000000000000000000000000000000001630039050610dbd576040517f60121cca0000000000000000000000000000000000000000000000000000000081526180ea60048201526024016102c2565b6040518181527f06a28e5e1500bd478bd28b400a0fb46a9cc8748a5dac616b38bc91c29462c17f9060200160405180910390a16103ff811115610e30576040517f60121cca0000000000000000000000000000000000000000000000000000000081526180e960048201526024016102c2565b605281901b6001547ffffffffffffffffffffffffffffffffffffffffff003ffffffffffffffffffff161760018190555050565b3073ffffffffffffffffffffffffffffffffffffffff1663021618876040518163ffffffff1660e01b81526004016080604051808303816000875af1158015610eb1573d6000803e3d6000fd5b505050506040513d601f19601f82011682018060405250810190610ed591906128de565b50505073ffffffffffffffffffffffffffffffffffffffff7f00000000000000000000000000000000000000000000000000000000000000001630039050610f4d576040517f60121cca0000000000000000000000000000000000000000000000000000000081526180ea60048201526024016102c2565b633fffffff811115610f8f576040517f60121cca0000000000000000000000000000000000000000000000000000000081526180e960048201526024016102c2565b605c81901b6001547ffffffffffffffffffffffffffffffffffc0000000fffffffffffffffffffffff161760018190555060003073ffffffffffffffffffffffffffffffffffffffff1663b7791bf26040518163ffffffff1660e01b815260040161024060405180830381865afa15801561100e573d6000803e3d6000fd5b505050506040513d601f19601f820116820180604052508101906110329190612a42565b905060006110448260a0015184611de7565b90508073ffffffffffffffffffffffffffffffffffffffff16638e7bfbc06040518163ffffffff1660e01b8152600401602060405180830381865afa158015611091573d6000803e3d6000fd5b505050506040513d601f19601f820116820180604052508101906110b59190612b5a565b508073ffffffffffffffffffffffffffffffffffffffff1663f3190c896040518163ffffffff1660e01b8152600401602060405180830381865afa158015611101573d6000803e3d6000fd5b505050506040513d601f19601f820116820180604052508101906111259190612b5a565b5060405173ffffffffffffffffffffffffffffffffffffffff82169084907ff3babb4efef8195c16cb5c44b63afff5f0cc5e2f93c2496f09af64430b8e84aa90600090a3505050565b3073ffffffffffffffffffffffffffffffffffffffff1663021618876040518163ffffffff1660e01b81526004016080604051808303816000875af11580156111bb573d6000803e3d6000fd5b505050506040513d601f19601f820116820180604052508101906111df91906128de565b50505073ffffffffffffffffffffffffffffffffffffffff7f00000000000000000000000000000000000000000000000000000000000000001630039050611257576040517f60121cca0000000000000000000000000000000000000000000000000000000081526180ea60048201526024016102c2565b6040518181527f44a667dd6218a52f7ef808da1e39e9c8497db215eaff093c0c42ecf9bf2168f39060200160405180910390a16001546103ff602082901c811690603483901c166112a9600a85612943565b935083821015806112ba5750808410155b156112f5576040517f60121cca0000000000000000000000000000000000000000000000000000000081526180e960048201526024016102c2565b50507ffffffffffffffffffffffffffffffffffffffffffffffffffff003ffffffffff16602a9190911b17600155565b73ffffffffffffffffffffffffffffffffffffffff7f0000000000000000000000000000000000000000000000000000000000000000163003611398576040517f60121cca0000000000000000000000000000000000000000000000000000000081526180ea60048201526024016102c2565b60008054906001821690036113b357600181176000556113e9565b6040517f60121cca00000000000000000000000000000000000000000000000000000000815261791960048201526024016102c2565b6000806000806000806000806000600a54905060005b8b518110156116e5578b818151811061141a5761141a612b73565b6020026020010151995089600003611462576040517f60121cca0000000000000000000000000000000000000000000000000000000081526180eb60048201526024016102c2565b60008a81526003602052604081205499508990036114b0576040517f60121cca0000000000000000000000000000000000000000000000000000000081526180ec60048201526024016102c2565b67ffffffffffffffff602d8a901c16955060ff8616600887901c901b955067ffffffffffffffff606d8a901c16935060ff8416600885901c901b93508360000361152a576040517f60121cca0000000000000000000000000000000000000000000000000000000081526180ed60048201526024016102c2565b8860021660021461154c5761154760028a901c6207ffff16612995565b611557565b6207ffff60028a901c165b975062ffffff60158a901c1696506060866115748a60020b612253565b61157e919061297e565b60008a815260056020526040902054911c95509250600180841614806115ac57508662ffffff600185901c16115b156116a7576040517f22348cc70000000000000000000000000000000000000000000000000000000081526004810189905260248101889052604481018690526064810184905230906322348cc79060840160a060405180830381865afa15801561161b573d6000803e3d6000fd5b505050506040513d601f19601f8201168201806040525081019061163f9190612ba2565b5091975050861591506116849050576040517f60121cca0000000000000000000000000000000000000000000000000000000081526180ee60048201526024016102c2565b61168e8483612be2565b60008b81526003602052604090206001905591506116dd565b6040517f60121cca0000000000000000000000000000000000000000000000000000000081526180ef60048201526024016102c2565b6001016113ff565b5080600003611724576040517f60121cca0000000000000000000000000000000000000000000000000000000081526180f060048201526024016102c2565b66ffffffffffffff609a8b901c1660ff60928c901c161b6117458282612be2565b9050611756816038600860016124b5565b7ffffffffffffc0000000000000003ffffffffffffffffffffffffffffffffffff8c16609282901b176000908155600a556040519091507fae8abcd7cc16d6da9fa7098d41cc4cdb3bd5ce892e46f15d904b44c9b156cb5e906117bc908e908590612bf5565b60405180910390a1505050505050505050505050565b3073ffffffffffffffffffffffffffffffffffffffff1663021618876040518163ffffffff1660e01b81526004016080604051808303816000875af115801561181f573d6000803e3d6000fd5b505050506040513d601f19601f8201168201806040525081019061184391906128de565b50505073ffffffffffffffffffffffffffffffffffffffff7f000000000000000000000000000000000000000000000000000000000000000016300390506118bb576040517f60121cca0000000000000000000000000000000000000000000000000000000081526180ea60048201526024016102c2565b6040518181527f7edd6e9826630cd24ac104078d5d38d7bafba2e232fdf7f0789d4b0823f2b4a09060200160405180910390a1617fff8113806119075750617fff61190582612995565b135b15611942576040517f60121cca0000000000000000000000000000000000000000000000000000000081526180e960048201526024016102c2565b600080821261195657600182811b17611964565b600161196183612995565b901b5b600180547fffffffffffffffffffffffffffffffffffffffffffffffffffffffffffff00001690911790555050565b73ffffffffffffffffffffffffffffffffffffffff7f0000000000000000000000000000000000000000000000000000000000000000163003611a06576040517f60121cca0000000000000000000000000000000000000000000000000000000081526180ea60048201526024016102c2565b7fffffffffffffffffffffffff111111111111111111111111111111111111111273ffffffffffffffffffffffffffffffffffffffff821601611ac057611abb3073ffffffffffffffffffffffffffffffffffffffff16632861c7d16040518163ffffffff1660e01b8152600401602060405180830381865afa158015611a91573d6000803e3d6000fd5b505050506040513d601f19601f82011682018060405250810190611ab59190612c3d565b476125de565b611bc6565b611bc6813073ffffffffffffffffffffffffffffffffffffffff16632861c7d16040518163ffffffff1660e01b8152600401602060405180830381865afa158015611b0f573d6000803e3d6000fd5b505050506040513d601f19601f82011682018060405250810190611b339190612c3d565b6040517f70a0823100000000000000000000000000000000000000000000000000000000815230600482015273ffffffffffffffffffffffffffffffffffffffff8516906370a0823190602401602060405180830381865afa158015611b9d573d6000803e3d6000fd5b505050506040513d601f19601f82011682018060405250810190611bc19190612b5a565b61262f565b60405173ffffffffffffffffffffffffffffffffffffffff8216907fdff2a3947bcf9fc0807b142e7c8497066db9183428b7bdbfb1fcd0f55c27a3df90600090a250565b3073ffffffffffffffffffffffffffffffffffffffff1663021618876040518163ffffffff1660e01b81526004016080604051808303816000875af1158015611c57573d6000803e3d6000fd5b505050506040513d601f19601f82011682018060405250810190611c7b91906128de565b50505073ffffffffffffffffffffffffffffffffffffffff7f00000000000000000000000000000000000000000000000000000000000000001630039050611cf3576040517f60121cca0000000000000000000000000000000000000000000000000000000081526180ea60048201526024016102c2565b6040518181527f8d6a11b15739c2d7a6d0a69b9d322262db8c1fb2e4b96239e4e4733df8a5164e9060200160405180910390a161ffff811115611d66576040517f60121cca0000000000000000000000000000000000000000000000000000000081526180e960048201526024016102c2565b601081901b6001547fffffffffffffffffffffffffffffffffffffffffffffffffffffffff0000ffff161760018190555050565b6126f2611da78284612be2565b1115611de3576040517f60121cca0000000000000000000000000000000000000000000000000000000081526180e960048201526024016102c2565b5050565b6000606082600003611dfd57600091505061224d565b607f8311611ec6576040517fd60000000000000000000000000000000000000000000000000000000000000060208201527f940000000000000000000000000000000000000000000000000000000000000060218201527fffffffffffffffffffffffffffffffffffffffff000000000000000000000000606086901b16602282015260f884901b7fff000000000000000000000000000000000000000000000000000000000000001660368201526037015b6040516020818303038152906040529050612242565b60ff8311611fa3576040517fd70000000000000000000000000000000000000000000000000000000000000060208201527f940000000000000000000000000000000000000000000000000000000000000060218201527fffffffffffffffffffffffffffffffffffffffff000000000000000000000000606086901b1660228201527f8100000000000000000000000000000000000000000000000000000000000000603682015260f884901b7fff00000000000000000000000000000000000000000000000000000000000000166037820152603801611eb0565b61ffff8311612081576040517fd80000000000000000000000000000000000000000000000000000000000000060208201527f940000000000000000000000000000000000000000000000000000000000000060218201527fffffffffffffffffffffffffffffffffffffffff000000000000000000000000606086901b1660228201527f820000000000000000000000000000000000000000000000000000000000000060368201527fffff00000000000000000000000000000000000000000000000000000000000060f085901b166037820152603901611eb0565b62ffffff8311612160576040517fd90000000000000000000000000000000000000000000000000000000000000060208201527f940000000000000000000000000000000000000000000000000000000000000060218201527fffffffffffffffffffffffffffffffffffffffff000000000000000000000000606086901b1660228201527f830000000000000000000000000000000000000000000000000000000000000060368201527fffffff000000000000000000000000000000000000000000000000000000000060e885901b166037820152603a01611eb0565b6040517fda0000000000000000000000000000000000000000000000000000000000000060208201527f940000000000000000000000000000000000000000000000000000000000000060218201527fffffffffffffffffffffffffffffffffffffffff000000000000000000000000606086901b1660228201527f840000000000000000000000000000000000000000000000000000000000000060368201527fffffffff0000000000000000000000000000000000000000000000000000000060e085901b166037820152603b0160405160208183030381529060405290505b805160209091012090505b92915050565b600060ff82901d80831803617fff81111561226d57600080fd5b700100000000000000000000000000000000600182161561229b57506fff9dd7de423466c20352b1246ce4856f5b60028216156122ba576fff3bd55f4488ad277531fa1c725a66d00260801c5b60048216156122d9576ffe78410fd6498b73cb96a6917f8532590260801c5b60088216156122f8576ffcf2d9987c9be178ad5bfeffaa1232730260801c5b6010821615612317576ff9ef02c4529258b057769680fc6601b30260801c5b6020821615612336576ff402d288133a85a17784a411f7aba0820260801c5b6040821615612355576fe895615b5beb6386553757b0352bda900260801c5b6080821615612374576fd34f17a00ffa00a8309940a15930391a0260801c5b610100821615612394576fae6b7961714e20548d88ea5123f9a0ff0260801c5b6102008216156123b4576f76d6461f27082d74e0feed3b388c0ca10260801c5b6104008216156123d4576f372a3bfe0745d8b6b19d985d9a8b85bb0260801c5b6108008216156123f4576f0be32cbee48979763cf7247dd7bb539d0260801c5b611000821615612413576e8d4f70c9ff4924dac37612d1e2921e0260801c5b612000821615612431576d4e009ae5519380809a02ca7aec770260801c5b61400082161561244d576b17c45e641b6e95dee056ff100260801c5b600091507f800000000000000000000000000000000000000000000000000000000000000084166124ab577fffffffffffffffffffffffffffffffffffffffffffffffffffffffffffffffff0463ffffffff8116156124ab57600191505b60201c0192915050565b600080856fffffffffffffffffffffffffffffffff8111156124d85760809150811c5b67ffffffffffffffff8111156124f0576040918201911c5b63ffffffff811115612504576020918201911c5b61ffff811115612516576010918201911c5b60ff811115612527576008918201911c5b600f811115612538576004918201911c5b6003811115612549576002918201911c5b6001811115612559576001820191505b8015612566576001820191505b50848110156125725750835b848103905085811c600082118416156125c157600181019050806001871b036125c157506001908101907fffffffffffffffffffffffffffffffffffffffffffffffffffffffffffffffff86011b5b6001851b82106125d057600080fd5b90931b909201949350505050565b60008060008060008587614e20f190508061262a576040517fdee51a8a0000000000000000000000000000000000000000000000000000000081526201155a60048201526024016102c2565b505050565b60006040517fa9059cbb00000000000000000000000000000000000000000000000000000000815273ffffffffffffffffffffffffffffffffffffffff84166004820152826024820152602060006044836000895af13d15601f3d11600160005114161716915050806126d3576040517fdee51a8a0000000000000000000000000000000000000000000000000000000081526201155a60048201526024016102c2565b50505050565b6000602082840312156126eb57600080fd5b5035919050565b600080600080600080600080610100898b03121561270f57600080fd5b505086359860208801359850604088013597606081013597506080810135965060a0810135955060c0810135945060e0013592509050565b73ffffffffffffffffffffffffffffffffffffffff8116811461276957600080fd5b50565b60006020828403121561277e57600080fd5b813561278981612747565b9392505050565b7f4e487b7100000000000000000000000000000000000000000000000000000000600052604160045260246000fd5b604051610200810167ffffffffffffffff811182821017156127e3576127e3612790565b60405290565b604051601f82017fffffffffffffffffffffffffffffffffffffffffffffffffffffffffffffffe016810167ffffffffffffffff8111828210171561283057612830612790565b604052919050565b6000602080838503121561284b57600080fd5b823567ffffffffffffffff8082111561286357600080fd5b818501915085601f83011261287757600080fd5b81358181111561288957612889612790565b8060051b915061289a8483016127e9565b81815291830184019184810190888411156128b457600080fd5b938501935b838510156128d2578435825293850193908501906128b9565b98975050505050505050565b600080600080608085870312156128f457600080fd5b505082516020840151604085015160609095015191969095509092509050565b7f4e487b7100000000000000000000000000000000000000000000000000000000600052601160045260246000fd5b600082612979577f4e487b7100000000000000000000000000000000000000000000000000000000600052601260045260246000fd5b500490565b808202811582820484141761224d5761224d612914565b60007f800000000000000000000000000000000000000000000000000000000000000082036129c6576129c6612914565b5060000390565b80516129d881612747565b919050565b6000604082840312156129ef57600080fd5b6040516040810181811067ffffffffffffffff82111715612a1257612a12612790565b80604052508091508251612a2581612747565b81526020830151612a3581612747565b6020919091015292915050565b60006102408284031215612a5557600080fd5b612a5d6127bf565b612a66836129cd565b8152612a74602084016129cd565b6020820152612a85604084016129cd565b6040820152612a96606084016129cd565b6060820152612aa7608084016129cd565b6080820152612ab860a084016129cd565b60a0820152612ac960c084016129cd565b60c0820152612ada60e084016129cd565b60e0820152610100612aee858286016129dd565b90820152610140612b01858583016129dd565b61012083015261018080850151828401526101a09150818501516101608401526101c080860151828501526101e09150818601518385015261020086015181850152506102208501518184015250508091505092915050565b600060208284031215612b6c57600080fd5b5051919050565b7f4e487b7100000000000000000000000000000000000000000000000000000000600052603260045260246000fd5b600080600080600060a08688031215612bba57600080fd5b5050835160208501516040860151606087015160809097015192989197509594509092509050565b8082018082111561224d5761224d612914565b604080825283519082018190526000906020906060840190828701845b82811015612c2e57815184529284019290840190600101612c12565b50505092019290925292915050565b600060208284031215612c4f57600080fd5b81516127898161274756fea2646970667358221220a3ac174fb3a99d9d999784a6aa0cbbd70e59230a86b3187b9ad887c85c39889f64736f6c63430008150033",
  "devdoc": {
    "kind": "dev",
    "methods": {
      "absorbDustDebt(uint256[])": {
        "details": "in decades if a lot of positions are 100% liquidated (aka absorbed) then dust debt can mount up which is basically sort of an extra revenue for the protocol."
      },
      "rescueFunds(address)": {
        "details": "this contract never holds any funds as all operations send / receive funds from user <-> Liquidity."
      }
    },
    "version": 1
  },
  "userdoc": {
    "errors": {
      "FluidLiquidateResult(uint256,uint256)": [
        {
          "notice": "used to simulate liquidation to find the maximum liquidatable amounts"
        }
      ]
    },
    "events": {
      "LogAbsorbDustDebt(uint256[],uint256)": {
        "notice": "emitted when dust debt is absorbed for `nftIds_`"
      },
      "LogRescueFunds(address)": {
        "notice": "emitted when funds are rescued"
      },
      "LogUpdateBorrowFee(uint256)": {
        "notice": "emitted when the borrow fee config is updated"
      },
      "LogUpdateBorrowRateMagnifier(uint256)": {
        "notice": "emitted when the borrow rate magnifier config is updated"
      },
      "LogUpdateCollateralFactor(uint256)": {
        "notice": "emitted when the collateral factor config is updated"
      },
      "LogUpdateCoreSettings(int256,uint256,uint256,uint256,uint256,uint256,uint256,uint256)": {
        "notice": "emitted when the core setting configs are updated"
      },
      "LogUpdateLiquidationMaxLimit(uint256)": {
        "notice": "emitted when the liquidation max limit config is updated"
      },
      "LogUpdateLiquidationPenalty(uint256)": {
        "notice": "emitted when the liquidation penalty config is updated"
      },
      "LogUpdateLiquidationThreshold(uint256)": {
        "notice": "emitted when the liquidation threshold config is updated"
      },
      "LogUpdateOracle(uint256,address)": {
        "notice": "emitted when the oracle is updated"
      },
      "LogUpdateRebalancer(address)": {
        "notice": "emitted when the allowed rebalancer is updated"
      },
      "LogUpdateSupplyRate(int256)": {
        "notice": "emitted when the supply rate config is updated"
      },
      "LogUpdateWithdrawGap(uint256)": {
        "notice": "emitted when the withdrawal gap config is updated"
      }
    },
    "kind": "user",
    "methods": {
      "absorbDustDebt(uint256[])": {
        "notice": "absorbs accumulated dust debt"
      },
      "rescueFunds(address)": {
        "notice": "sends any potentially stuck funds to Liquidity contract."
      },
      "updateBorrowFee(uint256)": {
        "notice": "updates the borrow fee to `borrowFee_`. Input in 1e2 (1% = 100, 100% = 10_000)."
      },
      "updateBorrowRateMagnifier(uint256)": {
        "notice": "updates the borrow rate magnifier to `borrowRateMagnifier_`. Input in 1e2 (1% = 100, 100% = 10_000)."
      },
      "updateCollateralFactor(uint256)": {
        "notice": "updates the collateral factor to `collateralFactor_`. Input in 1e2 (1% = 100, 100% = 10_000)."
      },
      "updateCoreSettings(int256,uint256,uint256,uint256,uint256,uint256,uint256,uint256)": {
        "notice": "updates the all Vault core settings according to input params. All input values are expected in 1e2 (1% = 100, 100% = 10_000)."
      },
      "updateLiquidationMaxLimit(uint256)": {
        "notice": "updates the liquidation max limit to `liquidationMaxLimit_`. Input in 1e2 (1% = 100, 100% = 10_000)."
      },
      "updateLiquidationPenalty(uint256)": {
        "notice": "updates the liquidation penalty to `liquidationPenalty_`. Input in 1e2 (1% = 100, 100% = 10_000)."
      },
      "updateLiquidationThreshold(uint256)": {
        "notice": "updates the liquidation threshold to `liquidationThreshold_`. Input in 1e2 (1% = 100, 100% = 10_000)."
      },
      "updateOracle(uint256)": {
        "notice": "updates the Vault oracle to `newOracleNonce_`. Must implement the FluidOracle interface."
      },
      "updateRebalancer(address)": {
        "notice": "updates the allowed rebalancer to `newRebalancer_`."
      },
      "updateSupplyRate(int256)": {
        "notice": "updates the supply rate. Input in 1e2 (1% = 100, 100% = 10_000). If positive then incentives else charging"
      },
      "updateWithdrawGap(uint256)": {
        "notice": "updates the withdrawal gap to `withdrawGap_`. Input in 1e2 (1% = 100, 100% = 10_000)."
      }
    },
    "notice": "Fluid Vault protocol Admin Module contract.         Implements admin related methods to set configs such as liquidation params, rates         oracle address etc.         Methods are limited to be called via delegateCall only. Vault CoreModule is expected         to call the methods implemented here after checking the msg.sender is authorized.         All methods update the exchange prices in storage before changing configs.",
    "version": 1
  },
  "storageLayout": {
    "storage": [
      {
        "astId": 123063,
        "contract": "contracts/protocols/vault/vaultT2/adminModule/main.sol:FluidVaultT2Admin",
        "label": "vaultVariables",
        "offset": 0,
        "slot": "0",
        "type": "t_uint256"
      },
      {
        "astId": 123066,
        "contract": "contracts/protocols/vault/vaultT2/adminModule/main.sol:FluidVaultT2Admin",
        "label": "vaultVariables2",
        "offset": 0,
        "slot": "1",
        "type": "t_uint256"
      },
      {
        "astId": 123069,
        "contract": "contracts/protocols/vault/vaultT2/adminModule/main.sol:FluidVaultT2Admin",
        "label": "absorbedLiquidity",
        "offset": 0,
        "slot": "2",
        "type": "t_uint256"
      },
      {
        "astId": 123074,
        "contract": "contracts/protocols/vault/vaultT2/adminModule/main.sol:FluidVaultT2Admin",
        "label": "positionData",
        "offset": 0,
        "slot": "3",
        "type": "t_mapping(t_uint256,t_uint256)"
      },
      {
        "astId": 123079,
        "contract": "contracts/protocols/vault/vaultT2/adminModule/main.sol:FluidVaultT2Admin",
        "label": "tickHasDebt",
        "offset": 0,
        "slot": "4",
        "type": "t_mapping(t_int256,t_uint256)"
      },
      {
        "astId": 123084,
        "contract": "contracts/protocols/vault/vaultT2/adminModule/main.sol:FluidVaultT2Admin",
        "label": "tickData",
        "offset": 0,
        "slot": "5",
        "type": "t_mapping(t_int256,t_uint256)"
      },
      {
        "astId": 123091,
        "contract": "contracts/protocols/vault/vaultT2/adminModule/main.sol:FluidVaultT2Admin",
        "label": "tickId",
        "offset": 0,
        "slot": "6",
        "type": "t_mapping(t_int256,t_mapping(t_uint256,t_uint256))"
      },
      {
        "astId": 123096,
        "contract": "contracts/protocols/vault/vaultT2/adminModule/main.sol:FluidVaultT2Admin",
        "label": "branchData",
        "offset": 0,
        "slot": "7",
        "type": "t_mapping(t_uint256,t_uint256)"
      },
      {
        "astId": 123099,
        "contract": "contracts/protocols/vault/vaultT2/adminModule/main.sol:FluidVaultT2Admin",
        "label": "rates",
        "offset": 0,
        "slot": "8",
        "type": "t_uint256"
      },
      {
        "astId": 123102,
        "contract": "contracts/protocols/vault/vaultT2/adminModule/main.sol:FluidVaultT2Admin",
        "label": "rebalancer",
        "offset": 0,
        "slot": "9",
        "type": "t_address"
      },
      {
        "astId": 123104,
        "contract": "contracts/protocols/vault/vaultT2/adminModule/main.sol:FluidVaultT2Admin",
        "label": "absorbedDustDebt",
        "offset": 0,
        "slot": "10",
        "type": "t_uint256"
      },
      {
        "astId": 123106,
        "contract": "contracts/protocols/vault/vaultT2/adminModule/main.sol:FluidVaultT2Admin",
        "label": "dexFromAddress",
        "offset": 0,
        "slot": "11",
        "type": "t_address"
      }
    ],
    "types": {
      "t_address": {
        "encoding": "inplace",
        "label": "address",
        "numberOfBytes": "20"
      },
      "t_int256": {
        "encoding": "inplace",
        "label": "int256",
        "numberOfBytes": "32"
      },
      "t_mapping(t_int256,t_mapping(t_uint256,t_uint256))": {
        "encoding": "mapping",
        "key": "t_int256",
        "label": "mapping(int256 => mapping(uint256 => uint256))",
        "numberOfBytes": "32",
        "value": "t_mapping(t_uint256,t_uint256)"
      },
      "t_mapping(t_int256,t_uint256)": {
        "encoding": "mapping",
        "key": "t_int256",
        "label": "mapping(int256 => uint256)",
        "numberOfBytes": "32",
        "value": "t_uint256"
      },
      "t_mapping(t_uint256,t_uint256)": {
        "encoding": "mapping",
        "key": "t_uint256",
        "label": "mapping(uint256 => uint256)",
        "numberOfBytes": "32",
        "value": "t_uint256"
      },
      "t_uint256": {
        "encoding": "inplace",
        "label": "uint256",
        "numberOfBytes": "32"
      }
    }
  }
}