{
  "address": "0x89141589676911bA32E15f0DFdEdFDe427fBB354",
  "abi": [
    {
      "inputs": [
        {
          "components": [
            {
              "internalType": "string",
              "name": "infoName",
              "type": "string"
            },
            {
              "internalType": "uint8",
              "name": "targetDecimals",
              "type": "uint8"
            },
            {
              "internalType": "address",
              "name": "dexPool",
              "type": "address"
            },
            {
              "internalType": "bool",
              "name": "quoteInToken0",
              "type": "bool"
            },
            {
              "internalType": "uint256",
              "name": "pegBufferPercent",
              "type": "uint256"
            },
            {
              "components": [
                {
                  "internalType": "address",
                  "name": "reservesConversionOracle",
                  "type": "address"
                },
                {
                  "internalType": "bool",
                  "name": "reservesConversionInvert",
                  "type": "bool"
                },
                {
                  "internalType": "uint256",
                  "name": "reservesConversionPriceMultiplier",
                  "type": "uint256"
                },
                {
                  "internalType": "uint256",
                  "name": "reservesConversionPriceDivisor",
                  "type": "uint256"
                }
              ],
              "internalType": "struct DexConversionPriceFluidOracle.DexConversionPriceFluidOracleParams",
              "name": "reservesConversionParams",
              "type": "tuple"
            },
            {
              "internalType": "uint256",
              "name": "resultMultiplier",
              "type": "uint256"
            },
            {
              "internalType": "uint256",
              "name": "resultDivisor",
              "type": "uint256"
            }
          ],
          "internalType": "struct DexSmartT4PegOracle.DexSmartT4PegOracleParams",
          "name": "params_",
          "type": "tuple"
        }
      ],
      "stateMutability": "nonpayable",
      "type": "constructor"
    },
    {
      "inputs": [
        {
          "internalType": "uint256",
          "name": "errorId_",
          "type": "uint256"
        }
      ],
      "name": "FluidLiquidityCalcsError",
      "type": "error"
    },
    {
      "inputs": [
        {
          "internalType": "uint256",
          "name": "errorId_",
          "type": "uint256"
        }
      ],
      "name": "FluidOracleError",
      "type": "error"
    },
    {
      "inputs": [],
      "name": "RESERVES_PEG_BUFFER_PERCENT",
      "outputs": [
        {
          "internalType": "uint256",
          "name": "",
          "type": "uint256"
        }
      ],
      "stateMutability": "view",
      "type": "function"
    },
    {
      "inputs": [],
      "name": "dexOracleData",
      "outputs": [
        {
          "internalType": "address",
          "name": "dexPool_",
          "type": "address"
        },
        {
          "internalType": "bool",
          "name": "quoteInToken0_",
          "type": "bool"
        },
        {
          "internalType": "address",
          "name": "liquidity_",
          "type": "address"
        },
        {
          "internalType": "uint256",
          "name": "resultMultiplier_",
          "type": "uint256"
        },
        {
          "internalType": "uint256",
          "name": "resultDivisor_",
          "type": "uint256"
        }
      ],
      "stateMutability": "view",
      "type": "function"
    },
    {
      "inputs": [],
      "name": "dexSmartColSharesRates",
      "outputs": [
        {
          "internalType": "uint256",
          "name": "operate_",
          "type": "uint256"
        },
        {
          "internalType": "uint256",
          "name": "liquidate_",
          "type": "uint256"
        }
      ],
      "stateMutability": "view",
      "type": "function"
    },
    {
      "inputs": [],
      "name": "dexSmartDebtSharesRates",
      "outputs": [
        {
          "internalType": "uint256",
          "name": "operate_",
          "type": "uint256"
        },
        {
          "internalType": "uint256",
          "name": "liquidate_",
          "type": "uint256"
        }
      ],
      "stateMutability": "view",
      "type": "function"
    },
    {
      "inputs": [],
      "name": "getDexConversionPriceFluidOracleData",
      "outputs": [
        {
          "internalType": "address",
          "name": "reservesConversionOracle_",
          "type": "address"
        },
        {
          "internalType": "bool",
          "name": "reservesConversionInvert_",
          "type": "bool"
        },
        {
          "internalType": "uint256",
          "name": "reservesConversionPriceMultiplier_",
          "type": "uint256"
        },
        {
          "internalType": "uint256",
          "name": "reservesConversionPriceDivisor_",
          "type": "uint256"
        }
      ],
      "stateMutability": "view",
      "type": "function"
    },
    {
      "inputs": [],
      "name": "getExchangeRate",
      "outputs": [
        {
          "internalType": "uint256",
          "name": "exchangeRate_",
          "type": "uint256"
        }
      ],
      "stateMutability": "view",
      "type": "function"
    },
    {
      "inputs": [],
      "name": "getExchangeRateLiquidate",
      "outputs": [
        {
          "internalType": "uint256",
          "name": "exchangeRate_",
          "type": "uint256"
        }
      ],
      "stateMutability": "view",
      "type": "function"
    },
    {
      "inputs": [],
      "name": "getExchangeRateOperate",
      "outputs": [
        {
          "internalType": "uint256",
          "name": "exchangeRate_",
          "type": "uint256"
        }
      ],
      "stateMutability": "view",
      "type": "function"
    },
    {
      "inputs": [],
      "name": "infoName",
      "outputs": [
        {
          "internalType": "string",
          "name": "",
          "type": "string"
        }
      ],
      "stateMutability": "view",
      "type": "function"
    },
    {
      "inputs": [],
      "name": "targetDecimals",
      "outputs": [
        {
          "internalType": "uint8",
          "name": "",
          "type": "uint8"
        }
      ],
      "stateMutability": "view",
      "type": "function"
    }
  ],
  "transactionHash": "0x2c42716b9f83220e5f24f3d97e04e167627446167b940953a98cf86c02d0ae8d",
  "args": [
    [
      {
        "dexPool": "0x667701e51B4D1Ca244F17C78F7aB8744B4C99F9B",
        "quoteInToken0": true,
        "infoName": "POL/MATICX dbtSh. per 1 colSh.",
        "targetDecimals": 27,
        "pegBufferPercent": 5000,
        "reservesConversionParams": {
          "reservesConversionOracle": "0x7F8E0be00A22b251eee9a70d17Ec2980354543A8",
          "reservesConversionInvert": false,
          "reservesConversionPriceMultiplier": 1,
          "reservesConversionPriceDivisor": 1
        },
        "resultMultiplier": 1,
        "resultDivisor": 1
      }
    ]
  ],
  "numDeployments": 1,
  "linkedData": {
    "nonce": "79"
  },
  "bytecode": "0x6103606040523480156200001257600080fd5b506040516200211938038062002119833981016040819052620000359162000618565b80604001518160600151826080015182828560a001518282886000015189602001518a60c001518b60e001518160001462000071578162000074565b60015b608052801562000085578062000088565b60015b60a05250508151602010806200009d57508151155b15620000c55760405163c82fc46560e01b815261ea6a60048201526024015b60405180910390fd5b600f8160ff161080620000db575060278160ff16115b15620000ff5760405163c82fc46560e01b815261ebf16004820152602401620000bc565b60ff1660e0526020015160c0526001600160a01b038216620001395760405163c82fc46560e01b815261ebdd6004820152602401620000bc565b6001600160a01b0382166101008190528115156101205260408051635bbc8df960e11b815290516000929163b7791bf2916004808301926102409291908290030181865afa15801562000190573d6000803e3d6000fd5b505050506040513d601f19601f82011682018060405250810190620001b6919062000798565b610160808201516101c052610180808301516101e05260e083015161014090815261012084015190925261010080840151909152908201516101a0525160408051631595cbd360e01b815290519293506000926001600160a01b0390921691631595cbd3916004808201926080929091908290030181865afa15801562000241573d6000803e3d6000fd5b505050506040513d601f19601f820116820180604052508101906200026791906200088e565b80516102005260208101516102205260408101516102405260600151610260525050610120519150620002d59050576102405161026051620002af9064e8d4a51000620008d7565b620002bb919062000903565b620002cf90670de0b6b3a764000062000903565b6200030e565b6102005161022051620002ee9064e8d4a51000620008d7565b620002fa919062000903565b6200030e90670de0b6b3a764000062000903565b61028052610120516200035a576102405161026051620003349064e8d4a51000620008d7565b62000340919062000903565b6200035490670de0b6b3a764000062000903565b62000393565b6102005161022051620003739064e8d4a51000620008d7565b6200037f919062000903565b6200039390670de0b6b3a764000062000903565b6102a05260408101511580620003ab57506060810151155b15620003cf5760405163c82fc46560e01b815261ebdd6004820152602401620000bc565b80516001600160a01b03166102c052602081015115156102e052604081015161030052606001516103205250506000819003620004245760405163c82fc46560e01b815261ebdd6004820152602401620000bc565b610340525062000926915050565b634e487b7160e01b600052604160045260246000fd5b604051608081016001600160401b03811182821017156200046d576200046d62000432565b60405290565b60405161010081016001600160401b03811182821017156200046d576200046d62000432565b6040516101c081016001600160401b03811182821017156200046d576200046d62000432565b604051601f8201601f191681016001600160401b0381118282101715620004ea57620004ea62000432565b604052919050565b600082601f8301126200050457600080fd5b81516001600160401b0381111562000520576200052062000432565b602062000536601f8301601f19168201620004bf565b82815285828487010111156200054b57600080fd5b60005b838110156200056b5785810183015182820184015282016200054e565b506000928101909101919091529392505050565b805160ff811681146200059157600080fd5b919050565b80516001600160a01b03811681146200059157600080fd5b805180151581146200059157600080fd5b600060808284031215620005d257600080fd5b620005dc62000448565b9050620005e98262000596565b8152620005f960208301620005ae565b6020820152604082015160408201526060820151606082015292915050565b6000602082840312156200062b57600080fd5b81516001600160401b03808211156200064357600080fd5b9083019061016082860312156200065957600080fd5b6200066362000473565b8251828111156200067357600080fd5b6200068187828601620004f2565b82525062000692602084016200057f565b6020820152620006a56040840162000596565b6040820152620006b860608401620005ae565b606082015260808301516080820152620006d68660a08501620005bf565b60a082015261012083015160c08201526101409092015160e0830152509392505050565b600060a082840312156200070d57600080fd5b60405160a081016001600160401b038111828210171562000732576200073262000432565b604052905080620007438362000596565b8152620007536020840162000596565b6020820152620007666040840162000596565b6040820152620007796060840162000596565b60608201526200078c6080840162000596565b60808201525092915050565b60006102408284031215620007ac57600080fd5b620007b662000499565b82518152620007c86020840162000596565b6020820152620007db6040840162000596565b6040820152620007ef8460608501620006fa565b60608201526101006200080481850162000596565b60808301526101206200081981860162000596565b60a08401526101406200082e81870162000596565b60c08501526101608087015160e086015261018080880151858701526101a0945084880151848701526101c0880151838701526101e088015182870152610200880151818701525050505061022084015181830152508091505092915050565b600060808284031215620008a157600080fd5b620008ab62000448565b825181526020830151602082015260408301516040820152606083015160608201528091505092915050565b8082028115828204841417620008fd57634e487b7160e01b600052601160045260246000fd5b92915050565b6000826200092157634e487b7160e01b600052601260045260246000fd5b500490565b60805160a05160c05160e05161010051610120516101405161016051610180516101a0516101c0516101e05161020051610220516102405161026051610280516102a0516102c0516102e05161030051610320516103405161163b62000ade600039600081816102ab015281816105e40152818161062801528181610a6c0152610ab0015260008181610128015281816106b701526109a8015260008181610107015281816106d801526109c901526000818160e6015261079e01526000818160c50152818161066b015281816106f90152818161095c01526109ea01526000610bef01526000610907015260008181610dee015261102d015260008181610dca015261104e015260008181610d650152611084015260008181610d4101526110a5015260008181610ca10152610e9c015260008181610c530152610e4e01526000610e7b01526000610e2d01526000610c8001526000610c320152600081816102100152610ccb0152600081816101ec0152818161082c0152610b1a015260006101a701526000818161045e015261052301526000818161027a015261039c01526000818161025401526103cf015261163b6000f3fe608060405234801561001057600080fd5b50600436106100be5760003560e01c80638e7bfbc011610076578063abd5f95d1161005b578063abd5f95d146102eb578063e6aa216c14610300578063f3190c891461030857600080fd5b80638e7bfbc0146102db57806396aa229c146102e357600080fd5b806336c1387e116100a757806336c1387e146101a0578063585eebbf146101d157806364bba885146102a657600080fd5b806304741a5a146100c35780632879605814610183575b600080fd5b7f00000000000000000000000000000000000000000000000000000000000000007f00000000000000000000000000000000000000000000000000000000000000007f00000000000000000000000000000000000000000000000000000000000000007f00000000000000000000000000000000000000000000000000000000000000006040805173ffffffffffffffffffffffffffffffffffffffff909516855292151560208501529183015260608201526080015b60405180910390f35b61018b610310565b6040805192835260208301919091520161017a565b60405160ff7f000000000000000000000000000000000000000000000000000000000000000016815260200161017a565b6040805173ffffffffffffffffffffffffffffffffffffffff7f00000000000000000000000000000000000000000000000000000000000000001681527f0000000000000000000000000000000000000000000000000000000000000000151560208201527352aa899454998be5b000ad077a46bbe360f4e497918101919091527f000000000000000000000000000000000000000000000000000000000000000060608201527f0000000000000000000000000000000000000000000000000000000000000000608082015260a00161017a565b6102cd7f000000000000000000000000000000000000000000000000000000000000000081565b60405190815260200161017a565b6102cd610350565b61018b610416565b6102f361044c565b60405161017a919061140e565b6102cd6105b1565b6102cd6105c0565b60008060008061031e6105cb565b9150915061033461032d610667565b83836107e6565b61034661033f610958565b84846107e6565b9350935050509091565b60008061035b610667565b90506000806103686105cb565b9150915060006103798484846107e6565b9050610383610a53565b90935091506000610395858585610ad5565b90506103cd7f00000000000000000000000000000000000000000000000000000000000000006b033b2e3c9fd0803ce80000006114a9565b7f00000000000000000000000000000000000000000000000000000000000000006103f884846114a9565b61040291906114a9565b61040c91906114f5565b9550505050505090565b600080600080610424610a53565b9150915061043a610433610667565b8383610ad5565b610346610445610958565b8484610ad5565b606060005b6020811080156104b757507f0000000000000000000000000000000000000000000000000000000000000000816020811061048e5761048e611530565b1a60f81b7fff000000000000000000000000000000000000000000000000000000000000001615155b156104ce57806104c68161155f565b915050610451565b60008167ffffffffffffffff8111156104e9576104e9611597565b6040519080825280601f01601f191660200182016040528015610513576020820181803683370190505b50905060005b828110156105aa577f0000000000000000000000000000000000000000000000000000000000000000816020811061055357610553611530565b1a60f81b82828151811061056957610569611530565b60200101907effffffffffffffffffffffffffffffffffffffffffffffffffffffffffffff1916908160001a905350806105a28161155f565b915050610519565b5092915050565b60006105bb610350565b905090565b60008061035b610958565b6000806105d6610c2a565b9092509050620f42406106097f0000000000000000000000000000000000000000000000000000000000000000826115c6565b61061390846114a9565b61061d91906114f5565b9150620f424061064d7f0000000000000000000000000000000000000000000000000000000000000000826115c6565b61065790836114a9565b61066191906114f5565b90509091565b60007f000000000000000000000000000000000000000000000000000000000000000073ffffffffffffffffffffffffffffffffffffffff166106b557506b033b2e3c9fd0803ce800000090565b7f00000000000000000000000000000000000000000000000000000000000000007f00000000000000000000000000000000000000000000000000000000000000007f000000000000000000000000000000000000000000000000000000000000000073ffffffffffffffffffffffffffffffffffffffff16638e7bfbc06040518163ffffffff1660e01b8152600401602060405180830381865afa158015610762573d6000803e3d6000fd5b505050506040513d601f19601f8201168201806040525081019061078691906115d9565b61079091906114a9565b61079a91906114f5565b90507f0000000000000000000000000000000000000000000000000000000000000000156107e3576105bb81760a70c3c40a64e6c51999090b65f67d92400000000000006114f5565b90565b6040517fb5c736e40000000000000000000000000000000000000000000000000000000081526002600482015260009081906fffffffffffffffffffffffffffffffff907f000000000000000000000000000000000000000000000000000000000000000073ffffffffffffffffffffffffffffffffffffffff169063b5c736e490602401602060405180830381865afa158015610888573d6000803e3d6000fd5b505050506040513d601f19601f820116820180604052508101906108ac91906115d9565b169050806000036108f2576040517fc82fc46500000000000000000000000000000000000000000000000000000000815261ebac60048201526024015b60405180910390fd5b60006108ff868686610cc7565b90508161092c7f0000000000000000000000000000000000000000000000000000000000000000836114a9565b610942906b033b2e3c9fd0803ce80000006114a9565b61094c91906114f5565b925050505b9392505050565b60007f000000000000000000000000000000000000000000000000000000000000000073ffffffffffffffffffffffffffffffffffffffff166109a657506b033b2e3c9fd0803ce800000090565b7f00000000000000000000000000000000000000000000000000000000000000007f00000000000000000000000000000000000000000000000000000000000000007f000000000000000000000000000000000000000000000000000000000000000073ffffffffffffffffffffffffffffffffffffffff1663f3190c896040518163ffffffff1660e01b8152600401602060405180830381865afa158015610762573d6000803e3d6000fd5b600080610a5e610e25565b9092509050620f4240610a917f0000000000000000000000000000000000000000000000000000000000000000826115f2565b610a9b90846114a9565b610aa591906114f5565b9150620f424061064d7f0000000000000000000000000000000000000000000000000000000000000000826115f2565b6040517fb5c736e400000000000000000000000000000000000000000000000000000000815260048082015260009081906fffffffffffffffffffffffffffffffff907f000000000000000000000000000000000000000000000000000000000000000073ffffffffffffffffffffffffffffffffffffffff169063b5c736e490602401602060405180830381865afa158015610b76573d6000803e3d6000fd5b505050506040513d601f19601f82011682018060405250810190610b9a91906115d9565b16905080600003610bdb576040517fc82fc46500000000000000000000000000000000000000000000000000000000815261ebb660048201526024016108e9565b6000610be8868686610cc7565b9050610c147f0000000000000000000000000000000000000000000000000000000000000000826114a9565b610942836b033b2e3c9fd0803ce80000006114a9565b600080610c797f00000000000000000000000000000000000000000000000000000000000000007f00000000000000000000000000000000000000000000000000000000000000006001610ec2565b91506106617f00000000000000000000000000000000000000000000000000000000000000007f00000000000000000000000000000000000000000000000000000000000000006000610ec2565b60007f000000000000000000000000000000000000000000000000000000000000000015610d9b57610d1084760a70c3c40a64e6c51999090b65f67d92400000000000006114f5565b93506b033b2e3c9fd0803ce8000000610d2985846114a9565b610d3391906114f5565b610d3d90846115f2565b90507f0000000000000000000000000000000000000000000000000000000000000000610d8a7f0000000000000000000000000000000000000000000000000000000000000000836114a9565b610d9491906114f5565b9050610951565b6b033b2e3c9fd0803ce8000000610db285856114a9565b610dbc91906114f5565b610dc690836115f2565b90507f0000000000000000000000000000000000000000000000000000000000000000610e137f0000000000000000000000000000000000000000000000000000000000000000836114a9565b610e1d91906114f5565b949350505050565b600080610e747f00000000000000000000000000000000000000000000000000000000000000007f000000000000000000000000000000000000000000000000000000000000000060016110de565b91506106617f00000000000000000000000000000000000000000000000000000000000000007f000000000000000000000000000000000000000000000000000000000000000060006110de565b6040517fb5c736e40000000000000000000000000000000000000000000000000000000081526004810184905260009081907352aa899454998be5b000ad077a46bbe360f4e4979063b5c736e490602401602060405180830381865afa158015610f30573d6000803e3d6000fd5b505050506040513d601f19601f82011682018060405250810190610f5491906115d9565b6040517fb5c736e400000000000000000000000000000000000000000000000000000000815260048101869052600982901c66ffffffffffffff16600183901c60ff161b935090915060009061100a907352aa899454998be5b000ad077a46bbe360f4e4979063b5c736e4906024015b602060405180830381865afa158015610fe1573d6000803e3d6000fd5b505050506040513d601f19601f8201168201806040525081019061100591906115d9565b611200565b509050816001166001036110265764e8d4a510008382025b0492505b83611082577f00000000000000000000000000000000000000000000000000000000000000007f000000000000000000000000000000000000000000000000000000000000000084028161107c5761107c6114c6565b0461094c565b7f00000000000000000000000000000000000000000000000000000000000000007f00000000000000000000000000000000000000000000000000000000000000008402816110d3576110d36114c6565b049695505050505050565b6040517fb5c736e40000000000000000000000000000000000000000000000000000000081526004810184905260009081907352aa899454998be5b000ad077a46bbe360f4e4979063b5c736e490602401602060405180830381865afa15801561114c573d6000803e3d6000fd5b505050506040513d601f19601f8201168201806040525081019061117091906115d9565b6040517fb5c736e400000000000000000000000000000000000000000000000000000000815260048101869052600982901c66ffffffffffffff16600183901c60ff161b93509091506000906111e4907352aa899454998be5b000ad077a46bbe360f4e4979063b5c736e490602401610fc4565b915050816001166001036110265764e8d4a51000838202611022565b67ffffffffffffffff605b82901c811690609b83901c16811580611222575080155b1561125e576040517fd50d75120000000000000000000000000000000000000000000000000000000081526201117160048201526024016108e9565b61ffff8316603a84901c6401ffffffff16428181039160ea87901c617fff16911480611288575082155b806112935750806001145b156112a057505050915091565b64496cebb80084840283020484019350617fff60db87901c169250826001036112cb57505050915091565b826001166001036113205760019290921c91826c7e37be2022c0914b2680000000816112f9576112f96114c6565b049250612710601e87901c613fff166b033b2e3c9fd0803ce800000085010204925061134d565b60019290921c916305f5e100601e87901c613fff166127108501026b033b2e3c9fd0803ce8000000020492505b806001166001036113845760011c61271081016b033b2e3c9fd0803ce800000082028161137c5761137c6114c6565b0490506113ba565b60011c61271081016b033b2e3c9fd0803ce80000008202816113a8576113a86114c6565b046b033b2e3c9fd0803ce80000000390505b760a70c3c40a64e6c51999090b65f67d92400000000000008382026127100261ffff881691900402601087901c613fff16612710030292506801b5a660ea44b8000085840283020485019450505050915091565b600060208083528351808285015260005b8181101561143b5785810183015185820160400152820161141f565b5060006040828601015260407fffffffffffffffffffffffffffffffffffffffffffffffffffffffffffffffe0601f8301168501019250505092915050565b7f4e487b7100000000000000000000000000000000000000000000000000000000600052601160045260246000fd5b80820281158282048414176114c0576114c061147a565b92915050565b7f4e487b7100000000000000000000000000000000000000000000000000000000600052601260045260246000fd5b60008261152b577f4e487b7100000000000000000000000000000000000000000000000000000000600052601260045260246000fd5b500490565b7f4e487b7100000000000000000000000000000000000000000000000000000000600052603260045260246000fd5b60007fffffffffffffffffffffffffffffffffffffffffffffffffffffffffffffffff82036115905761159061147a565b5060010190565b7f4e487b7100000000000000000000000000000000000000000000000000000000600052604160045260246000fd5b818103818111156114c0576114c061147a565b6000602082840312156115eb57600080fd5b5051919050565b808201808211156114c0576114c061147a56fea2646970667358221220049a57f90b038860825ebbc4d007685421cf2b389d25c5980a304e15653bd57364736f6c63430008150033"
}