{
  "address": "0x94a58428980291Af59adfe96844FAff088737e8F",
  "abi": [
    {
      "anonymous": false,
      "inputs": [
        {
          "indexed": false,
          "internalType": "address",
          "name": "pointer_",
          "type": "address"
        },
        {
          "indexed": false,
          "internalType": "bytes32",
          "name": "codeHash_",
          "type": "bytes32"
        }
      ],
      "name": "LogCodeDeployed",
      "type": "event"
    },
    {
      "anonymous": false,
      "inputs": [
        {
          "indexed": false,
          "internalType": "address",
          "name": "pointer1_",
          "type": "address"
        },
        {
          "indexed": false,
          "internalType": "address",
          "name": "pointer2_",
          "type": "address"
        },
        {
          "indexed": false,
          "internalType": "bytes32",
          "name": "codeHash_",
          "type": "bytes32"
        }
      ],
      "name": "LogCodeDeployedSplit",
      "type": "event"
    },
    {
      "inputs": [
        {
          "internalType": "bytes",
          "name": "code_",
          "type": "bytes"
        }
      ],
      "name": "deployCode",
      "outputs": [
        {
          "internalType": "address",
          "name": "pointer_",
          "type": "address"
        }
      ],
      "stateMutability": "nonpayable",
      "type": "function"
    },
    {
      "inputs": [
        {
          "internalType": "bytes",
          "name": "code_",
          "type": "bytes"
        }
      ],
      "name": "deployCodeSplit",
      "outputs": [
        {
          "internalType": "address",
          "name": "pointer1_",
          "type": "address"
        },
        {
          "internalType": "address",
          "name": "pointer2_",
          "type": "address"
        }
      ],
      "stateMutability": "nonpayable",
      "type": "function"
    },
    {
      "inputs": [
        {
          "internalType": "address",
          "name": "pointer_",
          "type": "address"
        }
      ],
      "name": "readCode",
      "outputs": [
        {
          "internalType": "bytes",
          "name": "code_",
          "type": "bytes"
        }
      ],
      "stateMutability": "view",
      "type": "function"
    },
    {
      "inputs": [
        {
          "internalType": "address",
          "name": "pointer1_",
          "type": "address"
        },
        {
          "internalType": "address",
          "name": "pointer2_",
          "type": "address"
        }
      ],
      "name": "readCodeSplit",
      "outputs": [
        {
          "internalType": "bytes",
          "name": "code_",
          "type": "bytes"
        }
      ],
      "stateMutability": "view",
      "type": "function"
    }
  ],
  "transactionHash": "0x8b8f8401893ee08cd705635580cf3b8bdaa07ae40eef44f4215cfc649a19893a",
  "args": [],
  "numDeployments": 1,
  "solcInputHash": "4f63da12d66a256eeca1b26617ce10fe",
  "bytecode": "0x608060405234801561001057600080fd5b506108ce806100206000396000f3fe608060405234801561001057600080fd5b506004361061004c5760003560e01c806318b3c7d114610051578063b8c1a3d614610096578063d4616967146100b6578063f7f3ba29146100ee575b600080fd5b61006461005f3660046105e2565b610101565b6040805173ffffffffffffffffffffffffffffffffffffffff9384168152929091166020830152015b60405180910390f35b6100a96100a43660046106da565b6101d1565b60405161008d9190610731565b6100c96100c43660046105e2565b6101f4565b60405173ffffffffffffffffffffffffffffffffffffffff909116815260200161008d565b6100a96100fc366004610782565b610267565b600080600061011f8460006002875161011a91906107cc565b610278565b9050600061014f856002875161013591906107cc565b6002885161014391906107cc565b885161011a9190610807565b905061015a826103f4565b9350610165816103f4565b85516020808801919091206040805173ffffffffffffffffffffffffffffffffffffffff808a1682528516938101939093528201529093507f6542bf48c0a5d51402bd5415bb65455c8584b3b133c7d863c88a2db7a27100d59060600160405180910390a15050915091565b60606101ed6101df846104cc565b6101e8846104cc565b6104fa565b9392505050565b60006101ff826103f4565b90507f63dd0238e20dfbaad6cc5d2d1decb2f29d9bed3e6ace5a9c367734e2884b59a481838051906020012060405161025a92919073ffffffffffffffffffffffffffffffffffffffff929092168252602082015260400190565b60405180910390a1919050565b6060610272826104cc565b92915050565b60608161028681601f61081a565b10156102f3576040517f08c379a000000000000000000000000000000000000000000000000000000000815260206004820152600e60248201527f736c6963655f6f766572666c6f7700000000000000000000000000000000000060448201526064015b60405180910390fd5b6102fd828461081a565b84511015610367576040517f08c379a000000000000000000000000000000000000000000000000000000000815260206004820152601160248201527f736c6963655f6f75744f66426f756e647300000000000000000000000000000060448201526064016102ea565b8115801561038457604051915060008252602082016040526103ec565b6040519150601f8316801560200281840101848101868315602002848a0101015b818310156103bd5780518352602092830192016103a5565b5050848452601f017fffffffffffffffffffffffffffffffffffffffffffffffffffffffffffffffe016604052505b509392505050565b60008082604051602001610408919061082d565b604051602081830303815290604052905060008160405160200161042c9190610853565b60405160208183030381529060405290508051602082016000f0925073ffffffffffffffffffffffffffffffffffffffff83166104c5576040517f08c379a000000000000000000000000000000000000000000000000000000000815260206004820152601160248201527f4445504c4f594d454e545f4641494c454400000000000000000000000000000060448201526064016102ea565b5050919050565b60606102728260016104f58173ffffffffffffffffffffffffffffffffffffffff84163b610807565b610572565b60606040519050825180825260208201818101602086015b8183101561052a578051835260209283019201610512565b50845184518101855292509050808201602085015b8183101561055757805183526020928301920161053f565b50601f19601f87518501158301011660405250505092915050565b60408051603f83017fffffffffffffffffffffffffffffffffffffffffffffffffffffffffffffffe0168101909152818152818360208301863c9392505050565b7f4e487b7100000000000000000000000000000000000000000000000000000000600052604160045260246000fd5b6000602082840312156105f457600080fd5b813567ffffffffffffffff8082111561060c57600080fd5b818401915084601f83011261062057600080fd5b813581811115610632576106326105b3565b604051601f82017fffffffffffffffffffffffffffffffffffffffffffffffffffffffffffffffe0908116603f01168101908382118183101715610678576106786105b3565b8160405282815287602084870101111561069157600080fd5b826020860160208301376000928101602001929092525095945050505050565b803573ffffffffffffffffffffffffffffffffffffffff811681146106d557600080fd5b919050565b600080604083850312156106ed57600080fd5b6106f6836106b1565b9150610704602084016106b1565b90509250929050565b60005b83811015610728578181015183820152602001610710565b50506000910152565b602081526000825180602084015261075081604085016020870161070d565b601f017fffffffffffffffffffffffffffffffffffffffffffffffffffffffffffffffe0169190910160400192915050565b60006020828403121561079457600080fd5b6101ed826106b1565b7f4e487b7100000000000000000000000000000000000000000000000000000000600052601160045260246000fd5b600082610802577f4e487b7100000000000000000000000000000000000000000000000000000000600052601260045260246000fd5b500490565b818103818111156102725761027261079d565b808201808211156102725761027261079d565b600081526000825161084681600185016020870161070d565b9190910160010192915050565b7f600b5981380380925939f300000000000000000000000000000000000000000081526000825161088b81600b85016020870161070d565b91909101600b019291505056fea264697066735822122044373cb8e4b0f996ade6565222e795cd4fe28af9f9255626f045616bdda1e1c264736f6c63430008150033",
  "devdoc": {
    "kind": "dev",
    "methods": {
      "deployCode(bytes)": {
        "details": "deploys code and emits an event with the pointer and code hash",
        "params": {
          "code_": "code to deploy"
        },
        "returns": {
          "pointer_": "pointer to the deployed code"
        }
      },
      "deployCodeSplit(bytes)": {
        "details": "deploys code and emits an event with the pointer and code hash",
        "params": {
          "code_": "code to deploy"
        },
        "returns": {
          "pointer1_": "pointer to the first part of the deployed code",
          "pointer2_": "pointer to the second part of the deployed code"
        }
      },
      "readCode(address)": {
        "details": "reads code from a pointer",
        "params": {
          "pointer_": "pointer to the code"
        },
        "returns": {
          "code_": "code"
        }
      }
    },
    "version": 1
  },
  "userdoc": {
    "kind": "user",
    "methods": {},
    "notice": "This contract is open and can be called by any address. It provides functionality to deploy and read code using SSTORE2.",
    "version": 1
  },
  "storageLayout": {
    "storage": [],
    "types": null
  }
}