{
  "address": "0x98612EE747EeDF29D1399C8D0a3ebb008EE6E7A5",
  "abi": [
    {
      "inputs": [
        {
          "internalType": "string",
          "name": "infoName_",
          "type": "string"
        },
        {
          "components": [
            {
              "internalType": "address",
              "name": "source",
              "type": "address"
            },
            {
              "internalType": "bool",
              "name": "invertRate",
              "type": "bool"
            },
            {
              "internalType": "uint256",
              "name": "multiplier",
              "type": "uint256"
            },
            {
              "internalType": "uint256",
              "name": "divisor",
              "type": "uint256"
            },
            {
              "internalType": "enum GenericOracleStructs.SourceType",
              "name": "sourceType",
              "type": "uint8"
            }
          ],
          "internalType": "struct GenericOracleStructs.OracleHopSource[]",
          "name": "sources_",
          "type": "tuple[]"
        },
        {
          "internalType": "uint8",
          "name": "targetDecimals_",
          "type": "uint8"
        }
      ],
      "stateMutability": "nonpayable",
      "type": "constructor"
    },
    {
      "inputs": [
        {
          "internalType": "uint256",
          "name": "errorId_",
          "type": "uint256"
        }
      ],
      "name": "FluidOracleError",
      "type": "error"
    },
    {
      "inputs": [],
      "name": "TARGET_DECIMALS",
      "outputs": [
        {
          "internalType": "uint8",
          "name": "",
          "type": "uint8"
        }
      ],
      "stateMutability": "view",
      "type": "function"
    },
    {
      "inputs": [],
      "name": "getExchangeRate",
      "outputs": [
        {
          "internalType": "uint256",
          "name": "exchangeRate_",
          "type": "uint256"
        }
      ],
      "stateMutability": "view",
      "type": "function"
    },
    {
      "inputs": [],
      "name": "getExchangeRateLiquidate",
      "outputs": [
        {
          "internalType": "uint256",
          "name": "exchangeRate_",
          "type": "uint256"
        }
      ],
      "stateMutability": "view",
      "type": "function"
    },
    {
      "inputs": [],
      "name": "getExchangeRateOperate",
      "outputs": [
        {
          "internalType": "uint256",
          "name": "exchangeRate_",
          "type": "uint256"
        }
      ],
      "stateMutability": "view",
      "type": "function"
    },
    {
      "inputs": [],
      "name": "getHopExchangeRates",
      "outputs": [
        {
          "internalType": "uint256",
          "name": "rateSource1Operate_",
          "type": "uint256"
        },
        {
          "internalType": "uint256",
          "name": "rateSource1Liquidate_",
          "type": "uint256"
        },
        {
          "internalType": "uint256",
          "name": "rateSource2Operate_",
          "type": "uint256"
        },
        {
          "internalType": "uint256",
          "name": "rateSource2Liquidate_",
          "type": "uint256"
        },
        {
          "internalType": "uint256",
          "name": "rateSource3Operate_",
          "type": "uint256"
        },
        {
          "internalType": "uint256",
          "name": "rateSource3Liquidate_",
          "type": "uint256"
        },
        {
          "internalType": "uint256",
          "name": "rateSource4Operate_",
          "type": "uint256"
        },
        {
          "internalType": "uint256",
          "name": "rateSource4Liquidate_",
          "type": "uint256"
        },
        {
          "internalType": "uint256",
          "name": "rateSource5Operate_",
          "type": "uint256"
        },
        {
          "internalType": "uint256",
          "name": "rateSource5Liquidate_",
          "type": "uint256"
        }
      ],
      "stateMutability": "view",
      "type": "function"
    },
    {
      "inputs": [],
      "name": "getOracleHopSources",
      "outputs": [
        {
          "components": [
            {
              "internalType": "address",
              "name": "source",
              "type": "address"
            },
            {
              "internalType": "bool",
              "name": "invertRate",
              "type": "bool"
            },
            {
              "internalType": "uint256",
              "name": "multiplier",
              "type": "uint256"
            },
            {
              "internalType": "uint256",
              "name": "divisor",
              "type": "uint256"
            },
            {
              "internalType": "enum GenericOracleStructs.SourceType",
              "name": "sourceType",
              "type": "uint8"
            }
          ],
          "internalType": "struct GenericOracleStructs.OracleHopSource[]",
          "name": "sources_",
          "type": "tuple[]"
        }
      ],
      "stateMutability": "view",
      "type": "function"
    },
    {
      "inputs": [],
      "name": "infoName",
      "outputs": [
        {
          "internalType": "string",
          "name": "",
          "type": "string"
        }
      ],
      "stateMutability": "view",
      "type": "function"
    }
  ],
  "transactionHash": "0x2ed97dbe3681a42c58d605d3a56bcc8b4d8ddfbf08895951051771bdd5bd38de",
  "args": [
    [
      "USDC per 1 WETH",
      [
        {
          "sourceType": 2,
          "source": "0xF9680D99D6C9589e2a93a78A04A279e509205945",
          "invertRate": false,
          "multiplier": "1000000000",
          "divisor": 100
        }
      ],
      15
    ]
  ],
  "numDeployments": 1,
  "linkedData": {
    "nonce": "43"
  },
  "bytecode": "0x6103e06040523480156200001257600080fd5b50604051620031b0380380620031b08339810160408190526200003591620008f4565b8181846020815111806200004857508051155b15620000705760405163c82fc46560e01b815261ea6a60048201526024015b60405180910390fd5b602001516080528151158062000087575060058251115b80620000965750600f8160ff16105b80620000a5575060278160ff16115b15620000c95760405163c82fc46560e01b815261ebf1600482015260240162000067565b60ff811660a0528151620000ff908390600090620000eb57620000eb620009e2565b6020026020010151620006b360201b60201c565b81600081518110620001155762000115620009e2565b6020908102919091010151516001600160a01b031660c05281518290600090620001435762000143620009e2565b602002602001015160200151151560e08115158152505081600081518110620001705762000170620009e2565b6020026020010151604001516101008181525050816000815181106200019a576200019a620009e2565b602002602001015160600151610120818152505081600081518110620001c457620001c4620009e2565b6020026020010151608001516003811115620001e457620001e4620009f8565b610140816003811115620001fc57620001fc620009f8565b815250506001825111156200032a576200022582600181518110620000eb57620000eb620009e2565b816001815181106200023b576200023b620009e2565b6020908102919091010151516001600160a01b0316610160528151829060019081106200026c576200026c620009e2565b602002602001015160200151151561018081151581525050816001815181106200029a576200029a620009e2565b6020026020010151604001516101a0818152505081600181518110620002c457620002c4620009e2565b6020026020010151606001516101c0818152505081600181518110620002ee57620002ee620009e2565b60200260200101516080015160038111156200030e576200030e620009f8565b6101e0816003811115620003265762000326620009f8565b9052505b60028251111562000454576200034f82600281518110620000eb57620000eb620009e2565b81600281518110620003655762000365620009e2565b6020908102919091010151516001600160a01b031661020052815182906002908110620003965762000396620009e2565b60200260200101516020015115156102208115158152505081600281518110620003c457620003c4620009e2565b602002602001015160400151610240818152505081600281518110620003ee57620003ee620009e2565b602002602001015160600151610260818152505081600281518110620004185762000418620009e2565b6020026020010151608001516003811115620004385762000438620009f8565b610280816003811115620004505762000450620009f8565b9052505b6003825111156200057e576200047982600381518110620000eb57620000eb620009e2565b816003815181106200048f576200048f620009e2565b6020908102919091010151516001600160a01b03166102a052815182906003908110620004c057620004c0620009e2565b60200260200101516020015115156102c08115158152505081600381518110620004ee57620004ee620009e2565b6020026020010151604001516102e0818152505081600381518110620005185762000518620009e2565b602002602001015160600151610300818152505081600381518110620005425762000542620009e2565b6020026020010151608001516003811115620005625762000562620009f8565b6103208160038111156200057a576200057a620009f8565b9052505b600482511115620006a857620005a382600481518110620000eb57620000eb620009e2565b81600481518110620005b957620005b9620009e2565b6020908102919091010151516001600160a01b031661034052815182906004908110620005ea57620005ea620009e2565b60200260200101516020015115156103608115158152505081600481518110620006185762000618620009e2565b602002602001015160400151610380818152505081600481518110620006425762000642620009e2565b6020026020010151606001516103a08181525050816004815181106200066c576200066c620009e2565b60200260200101516080015160038111156200068c576200068c620009f8565b6103c0816003811115620006a457620006a4620009f8565b9052505b505050505062000a0e565b80516001600160a01b03161580620006e35750600381608001516003811115620006e157620006e1620009f8565b145b80620006f157506060810151155b80620006ff57506040810151155b806200071f5750701d6329f1c35ca4bfabb9f56100000000008160600151115b806200073f5750701d6329f1c35ca4bfabb9f56100000000008160400151115b15620007635760405163c82fc46560e01b815261ebf1600482015260240162000067565b50565b634e487b7160e01b600052604160045260246000fd5b60405160a081016001600160401b0381118282101715620007a157620007a162000766565b60405290565b604051601f8201601f191681016001600160401b0381118282101715620007d257620007d262000766565b604052919050565b600082601f830112620007ec57600080fd5b815160206001600160401b038211156200080a576200080a62000766565b6200081a818360051b01620007a7565b82815260a092830285018201928282019190878511156200083a57600080fd5b8387015b85811015620008d05781818a031215620008585760008081fd5b620008626200077c565b81516001600160a01b03811681146200087b5760008081fd5b8152818601518015158114620008915760008081fd5b81870152604082810151908201526060808301519082015260808083015160048110620008be5760008081fd5b9082015284529284019281016200083e565b5090979650505050505050565b805160ff81168114620008ef57600080fd5b919050565b6000806000606084860312156200090a57600080fd5b83516001600160401b03808211156200092257600080fd5b818601915086601f8301126200093757600080fd5b8151818111156200094c576200094c62000766565b602062000962601f8301601f19168201620007a7565b82815289828487010111156200097757600080fd5b60005b83811015620009975785810183015182820184015282016200097a565b506000928101820192909252870151909550915080821115620009b957600080fd5b50620009c886828701620007da565b925050620009d960408501620008dd565b90509250925092565b634e487b7160e01b600052603260045260246000fd5b634e487b7160e01b600052602160045260246000fd5b60805160a05160c05160e05161010051610120516101405161016051610180516101a0516101c0516101e05161020051610220516102405161026051610280516102a0516102c0516102e05161030051610320516103405161036051610380516103a0516103c0516123e862000dc8600039600081816106bc0152818161123b015281816113400152818161144001528181611b240152611c230152600081816106960152818161131a0152818161141a0152611bfd015260008181610670015281816112f4015281816113f40152611bd7015260008181610648015281816112cc015281816113cc0152611baf01526000818161060c015281816111fa015281816112900152818161139001528181611ae30152611b730152600081816105ae01528181610fc0015281816110c5015281816111c5015281816119720152611a710152600081816105880152818161109f0152818161119f0152611a4b01526000818161056201528181611079015281816111790152611a2501526000818161053a015281816110510152818161115101526119fd0152600081816104fe01528181610f7f01528181611015015281816111150152818161193101526119c10152600081816104a001528181610d4501528181610e4a01528181610f4a015281816117c001526118bf01526000818161047a01528181610e2401528181610f24015261189901526000818161045401528181610dfe01528181610efe015261187301526000818161042c01528181610dd601528181610ed6015261184b0152600081816103f001528181610d0401528181610d9a01528181610e9a0152818161177f015261180f01526000818161039201528181610aca01528181610bcf01528181610ccf0152818161160e015261170d01526000818161036c01528181610ba901528181610ca901526116e701526000818161034601528181610b8301528181610c8301526116c101526000818161031e01528181610b5b01528181610c5b01526116990152600081816102e201528181610a8901528181610b1f01528181610c1f015281816115cd015261165d0152600081816102840152818161094e01528181610a55015261155601526000818161025e0152818161092801528181610a2f01526115300152600081816102380152818161090201528181610a09015261150a015260008181610210015281816108da015281816109e101526114e20152600081816101d40152818161089e015281816109a501526114a601526000608701526000818161072201526107e701526123e86000f3fe608060405234801561001057600080fd5b506004361061007d5760003560e01c8063abd5f95d1161005b578063abd5f95d146100eb578063d643a8cf14610100578063e6aa216c14610152578063f3190c891461015257600080fd5b80638670588b146100825780638e7bfbc0146100c057806394f253ef146100d6575b600080fd5b6100a97f000000000000000000000000000000000000000000000000000000000000000081565b60405160ff90911681526020015b60405180910390f35b6100c861015a565b6040519081526020016100b7565b6100de61016b565b6040516100b79190611fc2565b6100f3610710565b6040516100b79190612080565b610108610875565b604080519a8b5260208b0199909952978901969096526060880194909452608087019290925260a086015260c085015260e0840152610100830152610120820152610140016100b7565b6100c861147f565b60006101666001611487565b905090565b60408051600580825260c08201909252606091816020015b6101b26040805160a0810182526000808252602082018190529181018290526060810182905290608082015290565b8152602001906001900390816101835790505090506040518060a001604052807f000000000000000000000000000000000000000000000000000000000000000073ffffffffffffffffffffffffffffffffffffffff1681526020017f0000000000000000000000000000000000000000000000000000000000000000151581526020017f000000000000000000000000000000000000000000000000000000000000000081526020017f000000000000000000000000000000000000000000000000000000000000000081526020017f000000000000000000000000000000000000000000000000000000000000000060038111156102b4576102b4611f93565b815250816000815181106102ca576102ca61211b565b60200260200101819052506040518060a001604052807f000000000000000000000000000000000000000000000000000000000000000073ffffffffffffffffffffffffffffffffffffffff1681526020017f0000000000000000000000000000000000000000000000000000000000000000151581526020017f000000000000000000000000000000000000000000000000000000000000000081526020017f000000000000000000000000000000000000000000000000000000000000000081526020017f000000000000000000000000000000000000000000000000000000000000000060038111156103c2576103c2611f93565b815250816001815181106103d8576103d861211b565b60200260200101819052506040518060a001604052807f000000000000000000000000000000000000000000000000000000000000000073ffffffffffffffffffffffffffffffffffffffff1681526020017f0000000000000000000000000000000000000000000000000000000000000000151581526020017f000000000000000000000000000000000000000000000000000000000000000081526020017f000000000000000000000000000000000000000000000000000000000000000081526020017f000000000000000000000000000000000000000000000000000000000000000060038111156104d0576104d0611f93565b815250816002815181106104e6576104e661211b565b60200260200101819052506040518060a001604052807f000000000000000000000000000000000000000000000000000000000000000073ffffffffffffffffffffffffffffffffffffffff1681526020017f0000000000000000000000000000000000000000000000000000000000000000151581526020017f000000000000000000000000000000000000000000000000000000000000000081526020017f000000000000000000000000000000000000000000000000000000000000000081526020017f000000000000000000000000000000000000000000000000000000000000000060038111156105de576105de611f93565b815250816003815181106105f4576105f461211b565b60200260200101819052506040518060a001604052807f000000000000000000000000000000000000000000000000000000000000000073ffffffffffffffffffffffffffffffffffffffff1681526020017f0000000000000000000000000000000000000000000000000000000000000000151581526020017f000000000000000000000000000000000000000000000000000000000000000081526020017f000000000000000000000000000000000000000000000000000000000000000081526020017f000000000000000000000000000000000000000000000000000000000000000060038111156106ec576106ec611f93565b815250816004815181106107025761070261211b565b602002602001018190525090565b606060005b60208110801561077b57507f000000000000000000000000000000000000000000000000000000000000000081602081106107525761075261211b565b1a60f81b7fff000000000000000000000000000000000000000000000000000000000000001615155b15610792578061078a81612179565b915050610715565b60008167ffffffffffffffff8111156107ad576107ad6120ec565b6040519080825280601f01601f1916602001820160405280156107d7576020820181803683370190505b50905060005b8281101561086e577f000000000000000000000000000000000000000000000000000000000000000081602081106108175761081761211b565b1a60f81b82828151811061082d5761082d61211b565b60200101907effffffffffffffffffffffffffffffffffffffffffffffffffffffffffffff1916908160001a9053508061086681612179565b9150506107dd565b5092915050565b600080808080808080808061098561088f601b600a6122d1565b60016040518060a001604052807f000000000000000000000000000000000000000000000000000000000000000073ffffffffffffffffffffffffffffffffffffffff1681526020017f0000000000000000000000000000000000000000000000000000000000000000151581526020017f000000000000000000000000000000000000000000000000000000000000000081526020017f000000000000000000000000000000000000000000000000000000000000000081526020017f0000000000000000000000000000000000000000000000000000000000000000600381111561097e5761097e611f93565b9052611c98565b9950610a85610996601b600a6122d1565b60006040518060a001604052807f000000000000000000000000000000000000000000000000000000000000000073ffffffffffffffffffffffffffffffffffffffff1681526020017f0000000000000000000000000000000000000000000000000000000000000000151581526020017f000000000000000000000000000000000000000000000000000000000000000081526020017f000000000000000000000000000000000000000000000000000000000000000081526020017f0000000000000000000000000000000000000000000000000000000000000000600381111561097e5761097e611f93565b98507f000000000000000000000000000000000000000000000000000000000000000073ffffffffffffffffffffffffffffffffffffffff16151580610afc575060037f00000000000000000000000000000000000000000000000000000000000000006003811115610afa57610afa611f93565b145b15610d0257610bff610b10601b600a6122d1565b60016040518060a001604052807f000000000000000000000000000000000000000000000000000000000000000073ffffffffffffffffffffffffffffffffffffffff1681526020017f0000000000000000000000000000000000000000000000000000000000000000151581526020017f000000000000000000000000000000000000000000000000000000000000000081526020017f000000000000000000000000000000000000000000000000000000000000000081526020017f0000000000000000000000000000000000000000000000000000000000000000600381111561097e5761097e611f93565b9750610cff610c10601b600a6122d1565b60006040518060a001604052807f000000000000000000000000000000000000000000000000000000000000000073ffffffffffffffffffffffffffffffffffffffff1681526020017f0000000000000000000000000000000000000000000000000000000000000000151581526020017f000000000000000000000000000000000000000000000000000000000000000081526020017f000000000000000000000000000000000000000000000000000000000000000081526020017f0000000000000000000000000000000000000000000000000000000000000000600381111561097e5761097e611f93565b96505b7f000000000000000000000000000000000000000000000000000000000000000073ffffffffffffffffffffffffffffffffffffffff16151580610d77575060037f00000000000000000000000000000000000000000000000000000000000000006003811115610d7557610d75611f93565b145b15610f7d57610e7a610d8b601b600a6122d1565b60016040518060a001604052807f000000000000000000000000000000000000000000000000000000000000000073ffffffffffffffffffffffffffffffffffffffff1681526020017f0000000000000000000000000000000000000000000000000000000000000000151581526020017f000000000000000000000000000000000000000000000000000000000000000081526020017f000000000000000000000000000000000000000000000000000000000000000081526020017f0000000000000000000000000000000000000000000000000000000000000000600381111561097e5761097e611f93565b9550610f7a610e8b601b600a6122d1565b60006040518060a001604052807f000000000000000000000000000000000000000000000000000000000000000073ffffffffffffffffffffffffffffffffffffffff1681526020017f0000000000000000000000000000000000000000000000000000000000000000151581526020017f000000000000000000000000000000000000000000000000000000000000000081526020017f000000000000000000000000000000000000000000000000000000000000000081526020017f0000000000000000000000000000000000000000000000000000000000000000600381111561097e5761097e611f93565b94505b7f000000000000000000000000000000000000000000000000000000000000000073ffffffffffffffffffffffffffffffffffffffff16151580610ff2575060037f00000000000000000000000000000000000000000000000000000000000000006003811115610ff057610ff0611f93565b145b156111f8576110f5611006601b600a6122d1565b60016040518060a001604052807f000000000000000000000000000000000000000000000000000000000000000073ffffffffffffffffffffffffffffffffffffffff1681526020017f0000000000000000000000000000000000000000000000000000000000000000151581526020017f000000000000000000000000000000000000000000000000000000000000000081526020017f000000000000000000000000000000000000000000000000000000000000000081526020017f0000000000000000000000000000000000000000000000000000000000000000600381111561097e5761097e611f93565b93506111f5611106601b600a6122d1565b60006040518060a001604052807f000000000000000000000000000000000000000000000000000000000000000073ffffffffffffffffffffffffffffffffffffffff1681526020017f0000000000000000000000000000000000000000000000000000000000000000151581526020017f000000000000000000000000000000000000000000000000000000000000000081526020017f000000000000000000000000000000000000000000000000000000000000000081526020017f0000000000000000000000000000000000000000000000000000000000000000600381111561097e5761097e611f93565b92505b7f000000000000000000000000000000000000000000000000000000000000000073ffffffffffffffffffffffffffffffffffffffff1615158061126d575060037f0000000000000000000000000000000000000000000000000000000000000000600381111561126b5761126b611f93565b145b1561147357611370611281601b600a6122d1565b60016040518060a001604052807f000000000000000000000000000000000000000000000000000000000000000073ffffffffffffffffffffffffffffffffffffffff1681526020017f0000000000000000000000000000000000000000000000000000000000000000151581526020017f000000000000000000000000000000000000000000000000000000000000000081526020017f000000000000000000000000000000000000000000000000000000000000000081526020017f0000000000000000000000000000000000000000000000000000000000000000600381111561097e5761097e611f93565b9150611470611381601b600a6122d1565b60006040518060a001604052807f000000000000000000000000000000000000000000000000000000000000000073ffffffffffffffffffffffffffffffffffffffff1681526020017f0000000000000000000000000000000000000000000000000000000000000000151581526020017f000000000000000000000000000000000000000000000000000000000000000081526020017f000000000000000000000000000000000000000000000000000000000000000081526020017f0000000000000000000000000000000000000000000000000000000000000000600381111561097e5761097e611f93565b90505b90919293949596979899565b600061016660005b6000611586611498601b600a6122d1565b836040518060a001604052807f000000000000000000000000000000000000000000000000000000000000000073ffffffffffffffffffffffffffffffffffffffff1681526020017f0000000000000000000000000000000000000000000000000000000000000000151581526020017f000000000000000000000000000000000000000000000000000000000000000081526020017f000000000000000000000000000000000000000000000000000000000000000081526020017f0000000000000000000000000000000000000000000000000000000000000000600381111561097e5761097e611f93565b9050806000036115cb576040517fc82fc46500000000000000000000000000000000000000000000000000000000815261ebf360048201526024015b60405180910390fd5b7f000000000000000000000000000000000000000000000000000000000000000073ffffffffffffffffffffffffffffffffffffffff16158015611641575060037f0000000000000000000000000000000000000000000000000000000000000000600381111561163e5761163e611f93565b14155b1561164b57919050565b61173d81836040518060a001604052807f000000000000000000000000000000000000000000000000000000000000000073ffffffffffffffffffffffffffffffffffffffff1681526020017f0000000000000000000000000000000000000000000000000000000000000000151581526020017f000000000000000000000000000000000000000000000000000000000000000081526020017f000000000000000000000000000000000000000000000000000000000000000081526020017f0000000000000000000000000000000000000000000000000000000000000000600381111561097e5761097e611f93565b90508060000361177d576040517fc82fc46500000000000000000000000000000000000000000000000000000000815261ebf360048201526024016115c2565b7f000000000000000000000000000000000000000000000000000000000000000073ffffffffffffffffffffffffffffffffffffffff161580156117f3575060037f000000000000000000000000000000000000000000000000000000000000000060038111156117f0576117f0611f93565b14155b156117fd57919050565b6118ef81836040518060a001604052807f000000000000000000000000000000000000000000000000000000000000000073ffffffffffffffffffffffffffffffffffffffff1681526020017f0000000000000000000000000000000000000000000000000000000000000000151581526020017f000000000000000000000000000000000000000000000000000000000000000081526020017f000000000000000000000000000000000000000000000000000000000000000081526020017f0000000000000000000000000000000000000000000000000000000000000000600381111561097e5761097e611f93565b90508060000361192f576040517fc82fc46500000000000000000000000000000000000000000000000000000000815261ebf360048201526024016115c2565b7f000000000000000000000000000000000000000000000000000000000000000073ffffffffffffffffffffffffffffffffffffffff161580156119a5575060037f000000000000000000000000000000000000000000000000000000000000000060038111156119a2576119a2611f93565b14155b156119af57919050565b611aa181836040518060a001604052807f000000000000000000000000000000000000000000000000000000000000000073ffffffffffffffffffffffffffffffffffffffff1681526020017f0000000000000000000000000000000000000000000000000000000000000000151581526020017f000000000000000000000000000000000000000000000000000000000000000081526020017f000000000000000000000000000000000000000000000000000000000000000081526020017f0000000000000000000000000000000000000000000000000000000000000000600381111561097e5761097e611f93565b905080600003611ae1576040517fc82fc46500000000000000000000000000000000000000000000000000000000815261ebf360048201526024016115c2565b7f000000000000000000000000000000000000000000000000000000000000000073ffffffffffffffffffffffffffffffffffffffff16158015611b57575060037f00000000000000000000000000000000000000000000000000000000000000006003811115611b5457611b54611f93565b14155b15611b6157919050565b611c5381836040518060a001604052807f000000000000000000000000000000000000000000000000000000000000000073ffffffffffffffffffffffffffffffffffffffff1681526020017f0000000000000000000000000000000000000000000000000000000000000000151581526020017f000000000000000000000000000000000000000000000000000000000000000081526020017f000000000000000000000000000000000000000000000000000000000000000081526020017f0000000000000000000000000000000000000000000000000000000000000000600381111561097e5761097e611f93565b905080600003611c93576040517fc82fc46500000000000000000000000000000000000000000000000000000000815261ebf360048201526024016115c2565b919050565b6000611cad8260000151836080015185611d33565b90508160600151826040015182611cc491906122dd565b611cce91906122f4565b905081602001518015611ce15750600081115b15611d0b5780611cf3601b60026122dd565b611cfe90600a6122d1565b611d0891906122f4565b90505b611d17601b600a6122d1565b611d2182866122dd565b611d2b91906122f4565b949350505050565b60006001836003811115611d4957611d49611f93565b1480611d6657506002836003811115611d6457611d64611f93565b145b15611d7b57611d7484611ddb565b9050611dd4565b6000836003811115611d8f57611d8f611f93565b03611d9e57611d748483611e72565b6040517fc82fc46500000000000000000000000000000000000000000000000000000000815261ebf260048201526024016115c2565b9392505050565b60008173ffffffffffffffffffffffffffffffffffffffff1663feaf968c6040518163ffffffff1660e01b815260040160a060405180830381865afa925050508015611e62575060408051601f3d9081017fffffffffffffffffffffffffffffffffffffffffffffffffffffffffffffffe0168201909252611e5f91810190612349565b60015b15611c9357509195945050505050565b60008115611f0b578273ffffffffffffffffffffffffffffffffffffffff16638e7bfbc06040518163ffffffff1660e01b8152600401602060405180830381865afa925050508015611eff575060408051601f3d9081017fffffffffffffffffffffffffffffffffffffffffffffffffffffffffffffffe0168201909252611efc91810190612399565b60015b15611f8d579050611f8d565b8273ffffffffffffffffffffffffffffffffffffffff1663f3190c896040518163ffffffff1660e01b8152600401602060405180830381865afa925050508015611eff575060408051601f3d9081017fffffffffffffffffffffffffffffffffffffffffffffffffffffffffffffffe0168201909252611efc91810190612399565b92915050565b7f4e487b7100000000000000000000000000000000000000000000000000000000600052602160045260246000fd5b60208082528251828201819052600091906040908185019086840185805b83811015612072578251805173ffffffffffffffffffffffffffffffffffffffff1686528781015115158887015286810151878701526060808201519087015260809081015190600480831061205c577f4e487b7100000000000000000000000000000000000000000000000000000000855260218152602485fd5b5086015260a09094019391860191600101611fe0565b509298975050505050505050565b600060208083528351808285015260005b818110156120ad57858101830151858201604001528201612091565b5060006040828601015260407fffffffffffffffffffffffffffffffffffffffffffffffffffffffffffffffe0601f8301168501019250505092915050565b7f4e487b7100000000000000000000000000000000000000000000000000000000600052604160045260246000fd5b7f4e487b7100000000000000000000000000000000000000000000000000000000600052603260045260246000fd5b7f4e487b7100000000000000000000000000000000000000000000000000000000600052601160045260246000fd5b60007fffffffffffffffffffffffffffffffffffffffffffffffffffffffffffffffff82036121aa576121aa61214a565b5060010190565b600181815b8085111561220a57817fffffffffffffffffffffffffffffffffffffffffffffffffffffffffffffffff048211156121f0576121f061214a565b808516156121fd57918102915b93841c93908002906121b6565b509250929050565b60008261222157506001611f8d565b8161222e57506000611f8d565b8160018114612244576002811461224e5761226a565b6001915050611f8d565b60ff84111561225f5761225f61214a565b50506001821b611f8d565b5060208310610133831016604e8410600b841016171561228d575081810a611f8d565b61229783836121b1565b807fffffffffffffffffffffffffffffffffffffffffffffffffffffffffffffffff048211156122c9576122c961214a565b029392505050565b6000611dd48383612212565b8082028115828204841417611f8d57611f8d61214a565b60008261232a577f4e487b7100000000000000000000000000000000000000000000000000000000600052601260045260246000fd5b500490565b805169ffffffffffffffffffff81168114611c9357600080fd5b600080600080600060a0868803121561236157600080fd5b61236a8661232f565b945060208601519350604086015192506060860151915061238d6080870161232f565b90509295509295909350565b6000602082840312156123ab57600080fd5b505191905056fea26469706673582212204823693a3c6dc33292c8f793cfb99ec18db042d75b257494ae87901d2aec730664736f6c63430008150033"
}