{
  "address": "0x9985C5f556b1Fee39359417b6D071416D2f908D8",
  "abi": [
    {
      "inputs": [
        {
          "internalType": "string",
          "name": "infoName_",
          "type": "string"
        },
        {
          "internalType": "uint256",
          "name": "staticPrice_",
          "type": "uint256"
        }
      ],
      "stateMutability": "nonpayable",
      "type": "constructor"
    },
    {
      "inputs": [
        {
          "internalType": "uint256",
          "name": "errorId_",
          "type": "uint256"
        }
      ],
      "name": "FluidOracleError",
      "type": "error"
    },
    {
      "inputs": [],
      "name": "centerPrice",
      "outputs": [
        {
          "internalType": "uint256",
          "name": "price_",
          "type": "uint256"
        }
      ],
      "stateMutability": "view",
      "type": "function"
    },
    {
      "inputs": [],
      "name": "infoName",
      "outputs": [
        {
          "internalType": "string",
          "name": "",
          "type": "string"
        }
      ],
      "stateMutability": "view",
      "type": "function"
    },
    {
      "inputs": [],
      "name": "targetDecimals",
      "outputs": [
        {
          "internalType": "uint8",
          "name": "",
          "type": "uint8"
        }
      ],
      "stateMutability": "pure",
      "type": "function"
    }
  ],
  "transactionHash": "0x76f99a85ac88bb5bdacb88133c25ddfc340c5a7a213d44ca36984a8cd74667d7",
  "args": [
    [
      "Static center price 1",
      "1000000000000000000000000000"
    ]
  ],
  "numDeployments": 1,
  "linkedData": {
    "nonce": "89"
  },
  "bytecode": "0x60c060405234801561001057600080fd5b5060405161052838038061052883398101604081905261002f916100ce565b8160208151118061003f57508051155b156100665760405163c82fc46560e01b815261ea6a60048201526024015b60405180910390fd5b6020015160805260008190036100af5760405162461bcd60e51b815260206004820152600e60248201526d073746174696320707269636520360941b604482015260640161005d565b60a0525061019d565b634e487b7160e01b600052604160045260246000fd5b600080604083850312156100e157600080fd5b82516001600160401b03808211156100f857600080fd5b818501915085601f83011261010c57600080fd5b81518181111561011e5761011e6100b8565b604051601f8201601f19908116603f01168101908382118183101715610146576101466100b8565b8160405282815260209350888484870101111561016257600080fd5b600091505b828210156101845784820184015181830185015290830190610167565b6000928101840192909252509401519395939450505050565b60805160a0516103616101c76000396000607401526000818160af015261017401526103616000f3fe608060405234801561001057600080fd5b50600436106100415760003560e01c806336c1387e14610046578063abd5f95d1461005a578063f763f7a61461006f575b600080fd5b604051601b81526020015b60405180910390f35b61006261009d565b6040516100519190610202565b6040517f00000000000000000000000000000000000000000000000000000000000000008152602001610051565b606060005b60208110801561010857507f000000000000000000000000000000000000000000000000000000000000000081602081106100df576100df61026e565b1a60f81b7fff000000000000000000000000000000000000000000000000000000000000001615155b1561011f57806101178161029d565b9150506100a2565b60008167ffffffffffffffff81111561013a5761013a6102fc565b6040519080825280601f01601f191660200182016040528015610164576020820181803683370190505b50905060005b828110156101fb577f000000000000000000000000000000000000000000000000000000000000000081602081106101a4576101a461026e565b1a60f81b8282815181106101ba576101ba61026e565b60200101907effffffffffffffffffffffffffffffffffffffffffffffffffffffffffffff1916908160001a905350806101f38161029d565b91505061016a565b5092915050565b600060208083528351808285015260005b8181101561022f57858101830151858201604001528201610213565b5060006040828601015260407fffffffffffffffffffffffffffffffffffffffffffffffffffffffffffffffe0601f8301168501019250505092915050565b7f4e487b7100000000000000000000000000000000000000000000000000000000600052603260045260246000fd5b60007fffffffffffffffffffffffffffffffffffffffffffffffffffffffffffffffff82036102f5577f4e487b7100000000000000000000000000000000000000000000000000000000600052601160045260246000fd5b5060010190565b7f4e487b7100000000000000000000000000000000000000000000000000000000600052604160045260246000fdfea2646970667358221220aab20ef7efd1e4220028ba0a37fbbd96039f38a12ce281b87a362819176d0d1164736f6c63430008150033"
}