{
  "address": "0xA508fd16Bf3391Fb555cce478C616BDe4a613052",
  "abi": [
    {
      "inputs": [
        {
          "internalType": "address",
          "name": "factory_",
          "type": "address"
        },
        {
          "internalType": "address",
          "name": "liquidity_",
          "type": "address"
        },
        {
          "internalType": "address",
          "name": "liquidityResolver_",
          "type": "address"
        }
      ],
      "stateMutability": "nonpayable",
      "type": "constructor"
    },
    {
      "inputs": [],
      "name": "FACTORY",
      "outputs": [
        {
          "internalType": "contract IFluidDexFactory",
          "name": "",
          "type": "address"
        }
      ],
      "stateMutability": "view",
      "type": "function"
    },
    {
      "inputs": [],
      "name": "LIQUIDITY",
      "outputs": [
        {
          "internalType": "contract IFluidLiquidity",
          "name": "",
          "type": "address"
        }
      ],
      "stateMutability": "view",
      "type": "function"
    },
    {
      "inputs": [],
      "name": "LIQUIDITY_RESOLVER",
      "outputs": [
        {
          "internalType": "contract IFluidLiquidityResolver",
          "name": "",
          "type": "address"
        }
      ],
      "stateMutability": "view",
      "type": "function"
    },
    {
      "inputs": [
        {
          "internalType": "address",
          "name": "dex_",
          "type": "address"
        },
        {
          "internalType": "bool",
          "name": "swap0to1_",
          "type": "bool"
        },
        {
          "internalType": "uint256",
          "name": "amountIn_",
          "type": "uint256"
        },
        {
          "internalType": "uint256",
          "name": "amountOutMin_",
          "type": "uint256"
        }
      ],
      "name": "estimateSwapIn",
      "outputs": [
        {
          "internalType": "uint256",
          "name": "amountOut_",
          "type": "uint256"
        }
      ],
      "stateMutability": "payable",
      "type": "function"
    },
    {
      "inputs": [
        {
          "internalType": "address",
          "name": "dex_",
          "type": "address"
        },
        {
          "internalType": "bool",
          "name": "swap0to1_",
          "type": "bool"
        },
        {
          "internalType": "uint256",
          "name": "amountOut_",
          "type": "uint256"
        },
        {
          "internalType": "uint256",
          "name": "amountInMax_",
          "type": "uint256"
        }
      ],
      "name": "estimateSwapOut",
      "outputs": [
        {
          "internalType": "uint256",
          "name": "amountIn_",
          "type": "uint256"
        }
      ],
      "stateMutability": "payable",
      "type": "function"
    },
    {
      "inputs": [],
      "name": "getAllPoolAddresses",
      "outputs": [
        {
          "internalType": "address[]",
          "name": "pools_",
          "type": "address[]"
        }
      ],
      "stateMutability": "view",
      "type": "function"
    },
    {
      "inputs": [],
      "name": "getAllPools",
      "outputs": [
        {
          "components": [
            {
              "internalType": "address",
              "name": "pool",
              "type": "address"
            },
            {
              "internalType": "address",
              "name": "token0",
              "type": "address"
            },
            {
              "internalType": "address",
              "name": "token1",
              "type": "address"
            },
            {
              "internalType": "uint256",
              "name": "fee",
              "type": "uint256"
            }
          ],
          "internalType": "struct Structs.Pool[]",
          "name": "pools_",
          "type": "tuple[]"
        }
      ],
      "stateMutability": "view",
      "type": "function"
    },
    {
      "inputs": [],
      "name": "getAllPoolsReserves",
      "outputs": [
        {
          "components": [
            {
              "internalType": "address",
              "name": "pool",
              "type": "address"
            },
            {
              "internalType": "address",
              "name": "token0",
              "type": "address"
            },
            {
              "internalType": "address",
              "name": "token1",
              "type": "address"
            },
            {
              "internalType": "uint256",
              "name": "fee",
              "type": "uint256"
            },
            {
              "internalType": "uint256",
              "name": "centerPrice",
              "type": "uint256"
            },
            {
              "components": [
                {
                  "internalType": "uint256",
                  "name": "token0RealReserves",
                  "type": "uint256"
                },
                {
                  "internalType": "uint256",
                  "name": "token1RealReserves",
                  "type": "uint256"
                },
                {
                  "internalType": "uint256",
                  "name": "token0ImaginaryReserves",
                  "type": "uint256"
                },
                {
                  "internalType": "uint256",
                  "name": "token1ImaginaryReserves",
                  "type": "uint256"
                }
              ],
              "internalType": "struct IFluidDexT1.CollateralReserves",
              "name": "collateralReserves",
              "type": "tuple"
            },
            {
              "components": [
                {
                  "internalType": "uint256",
                  "name": "token0Debt",
                  "type": "uint256"
                },
                {
                  "internalType": "uint256",
                  "name": "token1Debt",
                  "type": "uint256"
                },
                {
                  "internalType": "uint256",
                  "name": "token0RealReserves",
                  "type": "uint256"
                },
                {
                  "internalType": "uint256",
                  "name": "token1RealReserves",
                  "type": "uint256"
                },
                {
                  "internalType": "uint256",
                  "name": "token0ImaginaryReserves",
                  "type": "uint256"
                },
                {
                  "internalType": "uint256",
                  "name": "token1ImaginaryReserves",
                  "type": "uint256"
                }
              ],
              "internalType": "struct IFluidDexT1.DebtReserves",
              "name": "debtReserves",
              "type": "tuple"
            },
            {
              "components": [
                {
                  "components": [
                    {
                      "internalType": "uint256",
                      "name": "available",
                      "type": "uint256"
                    },
                    {
                      "internalType": "uint256",
                      "name": "expandsTo",
                      "type": "uint256"
                    },
                    {
                      "internalType": "uint256",
                      "name": "expandDuration",
                      "type": "uint256"
                    }
                  ],
                  "internalType": "struct Structs.TokenLimit",
                  "name": "withdrawableToken0",
                  "type": "tuple"
                },
                {
                  "components": [
                    {
                      "internalType": "uint256",
                      "name": "available",
                      "type": "uint256"
                    },
                    {
                      "internalType": "uint256",
                      "name": "expandsTo",
                      "type": "uint256"
                    },
                    {
                      "internalType": "uint256",
                      "name": "expandDuration",
                      "type": "uint256"
                    }
                  ],
                  "internalType": "struct Structs.TokenLimit",
                  "name": "withdrawableToken1",
                  "type": "tuple"
                },
                {
                  "components": [
                    {
                      "internalType": "uint256",
                      "name": "available",
                      "type": "uint256"
                    },
                    {
                      "internalType": "uint256",
                      "name": "expandsTo",
                      "type": "uint256"
                    },
                    {
                      "internalType": "uint256",
                      "name": "expandDuration",
                      "type": "uint256"
                    }
                  ],
                  "internalType": "struct Structs.TokenLimit",
                  "name": "borrowableToken0",
                  "type": "tuple"
                },
                {
                  "components": [
                    {
                      "internalType": "uint256",
                      "name": "available",
                      "type": "uint256"
                    },
                    {
                      "internalType": "uint256",
                      "name": "expandsTo",
                      "type": "uint256"
                    },
                    {
                      "internalType": "uint256",
                      "name": "expandDuration",
                      "type": "uint256"
                    }
                  ],
                  "internalType": "struct Structs.TokenLimit",
                  "name": "borrowableToken1",
                  "type": "tuple"
                }
              ],
              "internalType": "struct Structs.DexLimits",
              "name": "limits",
              "type": "tuple"
            }
          ],
          "internalType": "struct Structs.PoolWithReserves[]",
          "name": "poolsReserves_",
          "type": "tuple[]"
        }
      ],
      "stateMutability": "nonpayable",
      "type": "function"
    },
    {
      "inputs": [],
      "name": "getAllPoolsReservesAdjusted",
      "outputs": [
        {
          "components": [
            {
              "internalType": "address",
              "name": "pool",
              "type": "address"
            },
            {
              "internalType": "address",
              "name": "token0",
              "type": "address"
            },
            {
              "internalType": "address",
              "name": "token1",
              "type": "address"
            },
            {
              "internalType": "uint256",
              "name": "fee",
              "type": "uint256"
            },
            {
              "internalType": "uint256",
              "name": "centerPrice",
              "type": "uint256"
            },
            {
              "components": [
                {
                  "internalType": "uint256",
                  "name": "token0RealReserves",
                  "type": "uint256"
                },
                {
                  "internalType": "uint256",
                  "name": "token1RealReserves",
                  "type": "uint256"
                },
                {
                  "internalType": "uint256",
                  "name": "token0ImaginaryReserves",
                  "type": "uint256"
                },
                {
                  "internalType": "uint256",
                  "name": "token1ImaginaryReserves",
                  "type": "uint256"
                }
              ],
              "internalType": "struct IFluidDexT1.CollateralReserves",
              "name": "collateralReserves",
              "type": "tuple"
            },
            {
              "components": [
                {
                  "internalType": "uint256",
                  "name": "token0Debt",
                  "type": "uint256"
                },
                {
                  "internalType": "uint256",
                  "name": "token1Debt",
                  "type": "uint256"
                },
                {
                  "internalType": "uint256",
                  "name": "token0RealReserves",
                  "type": "uint256"
                },
                {
                  "internalType": "uint256",
                  "name": "token1RealReserves",
                  "type": "uint256"
                },
                {
                  "internalType": "uint256",
                  "name": "token0ImaginaryReserves",
                  "type": "uint256"
                },
                {
                  "internalType": "uint256",
                  "name": "token1ImaginaryReserves",
                  "type": "uint256"
                }
              ],
              "internalType": "struct IFluidDexT1.DebtReserves",
              "name": "debtReserves",
              "type": "tuple"
            },
            {
              "components": [
                {
                  "components": [
                    {
                      "internalType": "uint256",
                      "name": "available",
                      "type": "uint256"
                    },
                    {
                      "internalType": "uint256",
                      "name": "expandsTo",
                      "type": "uint256"
                    },
                    {
                      "internalType": "uint256",
                      "name": "expandDuration",
                      "type": "uint256"
                    }
                  ],
                  "internalType": "struct Structs.TokenLimit",
                  "name": "withdrawableToken0",
                  "type": "tuple"
                },
                {
                  "components": [
                    {
                      "internalType": "uint256",
                      "name": "available",
                      "type": "uint256"
                    },
                    {
                      "internalType": "uint256",
                      "name": "expandsTo",
                      "type": "uint256"
                    },
                    {
                      "internalType": "uint256",
                      "name": "expandDuration",
                      "type": "uint256"
                    }
                  ],
                  "internalType": "struct Structs.TokenLimit",
                  "name": "withdrawableToken1",
                  "type": "tuple"
                },
                {
                  "components": [
                    {
                      "internalType": "uint256",
                      "name": "available",
                      "type": "uint256"
                    },
                    {
                      "internalType": "uint256",
                      "name": "expandsTo",
                      "type": "uint256"
                    },
                    {
                      "internalType": "uint256",
                      "name": "expandDuration",
                      "type": "uint256"
                    }
                  ],
                  "internalType": "struct Structs.TokenLimit",
                  "name": "borrowableToken0",
                  "type": "tuple"
                },
                {
                  "components": [
                    {
                      "internalType": "uint256",
                      "name": "available",
                      "type": "uint256"
                    },
                    {
                      "internalType": "uint256",
                      "name": "expandsTo",
                      "type": "uint256"
                    },
                    {
                      "internalType": "uint256",
                      "name": "expandDuration",
                      "type": "uint256"
                    }
                  ],
                  "internalType": "struct Structs.TokenLimit",
                  "name": "borrowableToken1",
                  "type": "tuple"
                }
              ],
              "internalType": "struct Structs.DexLimits",
              "name": "limits",
              "type": "tuple"
            }
          ],
          "internalType": "struct Structs.PoolWithReserves[]",
          "name": "poolsReserves_",
          "type": "tuple[]"
        }
      ],
      "stateMutability": "nonpayable",
      "type": "function"
    },
    {
      "inputs": [
        {
          "internalType": "address",
          "name": "dex_",
          "type": "address"
        }
      ],
      "name": "getDexCollateralReserves",
      "outputs": [
        {
          "components": [
            {
              "internalType": "uint256",
              "name": "token0RealReserves",
              "type": "uint256"
            },
            {
              "internalType": "uint256",
              "name": "token1RealReserves",
              "type": "uint256"
            },
            {
              "internalType": "uint256",
              "name": "token0ImaginaryReserves",
              "type": "uint256"
            },
            {
              "internalType": "uint256",
              "name": "token1ImaginaryReserves",
              "type": "uint256"
            }
          ],
          "internalType": "struct IFluidDexT1.CollateralReserves",
          "name": "reserves_",
          "type": "tuple"
        }
      ],
      "stateMutability": "nonpayable",
      "type": "function"
    },
    {
      "inputs": [
        {
          "internalType": "address",
          "name": "dex_",
          "type": "address"
        }
      ],
      "name": "getDexCollateralReservesAdjusted",
      "outputs": [
        {
          "components": [
            {
              "internalType": "uint256",
              "name": "token0RealReserves",
              "type": "uint256"
            },
            {
              "internalType": "uint256",
              "name": "token1RealReserves",
              "type": "uint256"
            },
            {
              "internalType": "uint256",
              "name": "token0ImaginaryReserves",
              "type": "uint256"
            },
            {
              "internalType": "uint256",
              "name": "token1ImaginaryReserves",
              "type": "uint256"
            }
          ],
          "internalType": "struct IFluidDexT1.CollateralReserves",
          "name": "reserves_",
          "type": "tuple"
        }
      ],
      "stateMutability": "nonpayable",
      "type": "function"
    },
    {
      "inputs": [
        {
          "internalType": "address",
          "name": "dex_",
          "type": "address"
        }
      ],
      "name": "getDexDebtReserves",
      "outputs": [
        {
          "components": [
            {
              "internalType": "uint256",
              "name": "token0Debt",
              "type": "uint256"
            },
            {
              "internalType": "uint256",
              "name": "token1Debt",
              "type": "uint256"
            },
            {
              "internalType": "uint256",
              "name": "token0RealReserves",
              "type": "uint256"
            },
            {
              "internalType": "uint256",
              "name": "token1RealReserves",
              "type": "uint256"
            },
            {
              "internalType": "uint256",
              "name": "token0ImaginaryReserves",
              "type": "uint256"
            },
            {
              "internalType": "uint256",
              "name": "token1ImaginaryReserves",
              "type": "uint256"
            }
          ],
          "internalType": "struct IFluidDexT1.DebtReserves",
          "name": "reserves_",
          "type": "tuple"
        }
      ],
      "stateMutability": "nonpayable",
      "type": "function"
    },
    {
      "inputs": [
        {
          "internalType": "address",
          "name": "dex_",
          "type": "address"
        }
      ],
      "name": "getDexDebtReservesAdjusted",
      "outputs": [
        {
          "components": [
            {
              "internalType": "uint256",
              "name": "token0Debt",
              "type": "uint256"
            },
            {
              "internalType": "uint256",
              "name": "token1Debt",
              "type": "uint256"
            },
            {
              "internalType": "uint256",
              "name": "token0RealReserves",
              "type": "uint256"
            },
            {
              "internalType": "uint256",
              "name": "token1RealReserves",
              "type": "uint256"
            },
            {
              "internalType": "uint256",
              "name": "token0ImaginaryReserves",
              "type": "uint256"
            },
            {
              "internalType": "uint256",
              "name": "token1ImaginaryReserves",
              "type": "uint256"
            }
          ],
          "internalType": "struct IFluidDexT1.DebtReserves",
          "name": "reserves_",
          "type": "tuple"
        }
      ],
      "stateMutability": "nonpayable",
      "type": "function"
    },
    {
      "inputs": [
        {
          "internalType": "address",
          "name": "dex_",
          "type": "address"
        }
      ],
      "name": "getDexLimits",
      "outputs": [
        {
          "components": [
            {
              "components": [
                {
                  "internalType": "uint256",
                  "name": "available",
                  "type": "uint256"
                },
                {
                  "internalType": "uint256",
                  "name": "expandsTo",
                  "type": "uint256"
                },
                {
                  "internalType": "uint256",
                  "name": "expandDuration",
                  "type": "uint256"
                }
              ],
              "internalType": "struct Structs.TokenLimit",
              "name": "withdrawableToken0",
              "type": "tuple"
            },
            {
              "components": [
                {
                  "internalType": "uint256",
                  "name": "available",
                  "type": "uint256"
                },
                {
                  "internalType": "uint256",
                  "name": "expandsTo",
                  "type": "uint256"
                },
                {
                  "internalType": "uint256",
                  "name": "expandDuration",
                  "type": "uint256"
                }
              ],
              "internalType": "struct Structs.TokenLimit",
              "name": "withdrawableToken1",
              "type": "tuple"
            },
            {
              "components": [
                {
                  "internalType": "uint256",
                  "name": "available",
                  "type": "uint256"
                },
                {
                  "internalType": "uint256",
                  "name": "expandsTo",
                  "type": "uint256"
                },
                {
                  "internalType": "uint256",
                  "name": "expandDuration",
                  "type": "uint256"
                }
              ],
              "internalType": "struct Structs.TokenLimit",
              "name": "borrowableToken0",
              "type": "tuple"
            },
            {
              "components": [
                {
                  "internalType": "uint256",
                  "name": "available",
                  "type": "uint256"
                },
                {
                  "internalType": "uint256",
                  "name": "expandsTo",
                  "type": "uint256"
                },
                {
                  "internalType": "uint256",
                  "name": "expandDuration",
                  "type": "uint256"
                }
              ],
              "internalType": "struct Structs.TokenLimit",
              "name": "borrowableToken1",
              "type": "tuple"
            }
          ],
          "internalType": "struct Structs.DexLimits",
          "name": "limits_",
          "type": "tuple"
        }
      ],
      "stateMutability": "view",
      "type": "function"
    },
    {
      "inputs": [
        {
          "internalType": "address",
          "name": "dex_",
          "type": "address"
        }
      ],
      "name": "getDexPricesAndExchangePrices",
      "outputs": [
        {
          "components": [
            {
              "internalType": "uint256",
              "name": "lastStoredPrice",
              "type": "uint256"
            },
            {
              "internalType": "uint256",
              "name": "centerPrice",
              "type": "uint256"
            },
            {
              "internalType": "uint256",
              "name": "upperRange",
              "type": "uint256"
            },
            {
              "internalType": "uint256",
              "name": "lowerRange",
              "type": "uint256"
            },
            {
              "internalType": "uint256",
              "name": "geometricMean",
              "type": "uint256"
            },
            {
              "internalType": "uint256",
              "name": "supplyToken0ExchangePrice",
              "type": "uint256"
            },
            {
              "internalType": "uint256",
              "name": "borrowToken0ExchangePrice",
              "type": "uint256"
            },
            {
              "internalType": "uint256",
              "name": "supplyToken1ExchangePrice",
              "type": "uint256"
            },
            {
              "internalType": "uint256",
              "name": "borrowToken1ExchangePrice",
              "type": "uint256"
            }
          ],
          "internalType": "struct IFluidDexT1.PricesAndExchangePrice",
          "name": "pex_",
          "type": "tuple"
        }
      ],
      "stateMutability": "nonpayable",
      "type": "function"
    },
    {
      "inputs": [
        {
          "internalType": "uint256",
          "name": "poolId_",
          "type": "uint256"
        }
      ],
      "name": "getPool",
      "outputs": [
        {
          "components": [
            {
              "internalType": "address",
              "name": "pool",
              "type": "address"
            },
            {
              "internalType": "address",
              "name": "token0",
              "type": "address"
            },
            {
              "internalType": "address",
              "name": "token1",
              "type": "address"
            },
            {
              "internalType": "uint256",
              "name": "fee",
              "type": "uint256"
            }
          ],
          "internalType": "struct Structs.Pool",
          "name": "pool_",
          "type": "tuple"
        }
      ],
      "stateMutability": "view",
      "type": "function"
    },
    {
      "inputs": [
        {
          "internalType": "uint256",
          "name": "poolId_",
          "type": "uint256"
        }
      ],
      "name": "getPoolAddress",
      "outputs": [
        {
          "internalType": "address",
          "name": "pool_",
          "type": "address"
        }
      ],
      "stateMutability": "view",
      "type": "function"
    },
    {
      "inputs": [
        {
          "internalType": "address",
          "name": "pool_",
          "type": "address"
        }
      ],
      "name": "getPoolConstantsView",
      "outputs": [
        {
          "components": [
            {
              "internalType": "uint256",
              "name": "dexId",
              "type": "uint256"
            },
            {
              "internalType": "address",
              "name": "liquidity",
              "type": "address"
            },
            {
              "internalType": "address",
              "name": "factory",
              "type": "address"
            },
            {
              "components": [
                {
                  "internalType": "address",
                  "name": "shift",
                  "type": "address"
                },
                {
                  "internalType": "address",
                  "name": "admin",
                  "type": "address"
                },
                {
                  "internalType": "address",
                  "name": "colOperations",
                  "type": "address"
                },
                {
                  "internalType": "address",
                  "name": "debtOperations",
                  "type": "address"
                },
                {
                  "internalType": "address",
                  "name": "perfectOperationsAndOracle",
                  "type": "address"
                }
              ],
              "internalType": "struct IFluidDexT1.Implementations",
              "name": "implementations",
              "type": "tuple"
            },
            {
              "internalType": "address",
              "name": "deployerContract",
              "type": "address"
            },
            {
              "internalType": "address",
              "name": "token0",
              "type": "address"
            },
            {
              "internalType": "address",
              "name": "token1",
              "type": "address"
            },
            {
              "internalType": "bytes32",
              "name": "supplyToken0Slot",
              "type": "bytes32"
            },
            {
              "internalType": "bytes32",
              "name": "borrowToken0Slot",
              "type": "bytes32"
            },
            {
              "internalType": "bytes32",
              "name": "supplyToken1Slot",
              "type": "bytes32"
            },
            {
              "internalType": "bytes32",
              "name": "borrowToken1Slot",
              "type": "bytes32"
            },
            {
              "internalType": "bytes32",
              "name": "exchangePriceToken0Slot",
              "type": "bytes32"
            },
            {
              "internalType": "bytes32",
              "name": "exchangePriceToken1Slot",
              "type": "bytes32"
            },
            {
              "internalType": "uint256",
              "name": "oracleMapping",
              "type": "uint256"
            }
          ],
          "internalType": "struct IFluidDexT1.ConstantViews",
          "name": "constantsView_",
          "type": "tuple"
        }
      ],
      "stateMutability": "view",
      "type": "function"
    },
    {
      "inputs": [
        {
          "internalType": "address",
          "name": "pool_",
          "type": "address"
        }
      ],
      "name": "getPoolConstantsView2",
      "outputs": [
        {
          "components": [
            {
              "internalType": "uint256",
              "name": "token0NumeratorPrecision",
              "type": "uint256"
            },
            {
              "internalType": "uint256",
              "name": "token0DenominatorPrecision",
              "type": "uint256"
            },
            {
              "internalType": "uint256",
              "name": "token1NumeratorPrecision",
              "type": "uint256"
            },
            {
              "internalType": "uint256",
              "name": "token1DenominatorPrecision",
              "type": "uint256"
            }
          ],
          "internalType": "struct IFluidDexT1.ConstantViews2",
          "name": "constantsView2_",
          "type": "tuple"
        }
      ],
      "stateMutability": "view",
      "type": "function"
    },
    {
      "inputs": [
        {
          "internalType": "address",
          "name": "pool_",
          "type": "address"
        }
      ],
      "name": "getPoolFee",
      "outputs": [
        {
          "internalType": "uint256",
          "name": "fee_",
          "type": "uint256"
        }
      ],
      "stateMutability": "view",
      "type": "function"
    },
    {
      "inputs": [
        {
          "internalType": "address",
          "name": "pool_",
          "type": "address"
        }
      ],
      "name": "getPoolReserves",
      "outputs": [
        {
          "components": [
            {
              "internalType": "address",
              "name": "pool",
              "type": "address"
            },
            {
              "internalType": "address",
              "name": "token0",
              "type": "address"
            },
            {
              "internalType": "address",
              "name": "token1",
              "type": "address"
            },
            {
              "internalType": "uint256",
              "name": "fee",
              "type": "uint256"
            },
            {
              "internalType": "uint256",
              "name": "centerPrice",
              "type": "uint256"
            },
            {
              "components": [
                {
                  "internalType": "uint256",
                  "name": "token0RealReserves",
                  "type": "uint256"
                },
                {
                  "internalType": "uint256",
                  "name": "token1RealReserves",
                  "type": "uint256"
                },
                {
                  "internalType": "uint256",
                  "name": "token0ImaginaryReserves",
                  "type": "uint256"
                },
                {
                  "internalType": "uint256",
                  "name": "token1ImaginaryReserves",
                  "type": "uint256"
                }
              ],
              "internalType": "struct IFluidDexT1.CollateralReserves",
              "name": "collateralReserves",
              "type": "tuple"
            },
            {
              "components": [
                {
                  "internalType": "uint256",
                  "name": "token0Debt",
                  "type": "uint256"
                },
                {
                  "internalType": "uint256",
                  "name": "token1Debt",
                  "type": "uint256"
                },
                {
                  "internalType": "uint256",
                  "name": "token0RealReserves",
                  "type": "uint256"
                },
                {
                  "internalType": "uint256",
                  "name": "token1RealReserves",
                  "type": "uint256"
                },
                {
                  "internalType": "uint256",
                  "name": "token0ImaginaryReserves",
                  "type": "uint256"
                },
                {
                  "internalType": "uint256",
                  "name": "token1ImaginaryReserves",
                  "type": "uint256"
                }
              ],
              "internalType": "struct IFluidDexT1.DebtReserves",
              "name": "debtReserves",
              "type": "tuple"
            },
            {
              "components": [
                {
                  "components": [
                    {
                      "internalType": "uint256",
                      "name": "available",
                      "type": "uint256"
                    },
                    {
                      "internalType": "uint256",
                      "name": "expandsTo",
                      "type": "uint256"
                    },
                    {
                      "internalType": "uint256",
                      "name": "expandDuration",
                      "type": "uint256"
                    }
                  ],
                  "internalType": "struct Structs.TokenLimit",
                  "name": "withdrawableToken0",
                  "type": "tuple"
                },
                {
                  "components": [
                    {
                      "internalType": "uint256",
                      "name": "available",
                      "type": "uint256"
                    },
                    {
                      "internalType": "uint256",
                      "name": "expandsTo",
                      "type": "uint256"
                    },
                    {
                      "internalType": "uint256",
                      "name": "expandDuration",
                      "type": "uint256"
                    }
                  ],
                  "internalType": "struct Structs.TokenLimit",
                  "name": "withdrawableToken1",
                  "type": "tuple"
                },
                {
                  "components": [
                    {
                      "internalType": "uint256",
                      "name": "available",
                      "type": "uint256"
                    },
                    {
                      "internalType": "uint256",
                      "name": "expandsTo",
                      "type": "uint256"
                    },
                    {
                      "internalType": "uint256",
                      "name": "expandDuration",
                      "type": "uint256"
                    }
                  ],
                  "internalType": "struct Structs.TokenLimit",
                  "name": "borrowableToken0",
                  "type": "tuple"
                },
                {
                  "components": [
                    {
                      "internalType": "uint256",
                      "name": "available",
                      "type": "uint256"
                    },
                    {
                      "internalType": "uint256",
                      "name": "expandsTo",
                      "type": "uint256"
                    },
                    {
                      "internalType": "uint256",
                      "name": "expandDuration",
                      "type": "uint256"
                    }
                  ],
                  "internalType": "struct Structs.TokenLimit",
                  "name": "borrowableToken1",
                  "type": "tuple"
                }
              ],
              "internalType": "struct Structs.DexLimits",
              "name": "limits",
              "type": "tuple"
            }
          ],
          "internalType": "struct Structs.PoolWithReserves",
          "name": "poolReserves_",
          "type": "tuple"
        }
      ],
      "stateMutability": "nonpayable",
      "type": "function"
    },
    {
      "inputs": [
        {
          "internalType": "address",
          "name": "pool_",
          "type": "address"
        }
      ],
      "name": "getPoolReservesAdjusted",
      "outputs": [
        {
          "components": [
            {
              "internalType": "address",
              "name": "pool",
              "type": "address"
            },
            {
              "internalType": "address",
              "name": "token0",
              "type": "address"
            },
            {
              "internalType": "address",
              "name": "token1",
              "type": "address"
            },
            {
              "internalType": "uint256",
              "name": "fee",
              "type": "uint256"
            },
            {
              "internalType": "uint256",
              "name": "centerPrice",
              "type": "uint256"
            },
            {
              "components": [
                {
                  "internalType": "uint256",
                  "name": "token0RealReserves",
                  "type": "uint256"
                },
                {
                  "internalType": "uint256",
                  "name": "token1RealReserves",
                  "type": "uint256"
                },
                {
                  "internalType": "uint256",
                  "name": "token0ImaginaryReserves",
                  "type": "uint256"
                },
                {
                  "internalType": "uint256",
                  "name": "token1ImaginaryReserves",
                  "type": "uint256"
                }
              ],
              "internalType": "struct IFluidDexT1.CollateralReserves",
              "name": "collateralReserves",
              "type": "tuple"
            },
            {
              "components": [
                {
                  "internalType": "uint256",
                  "name": "token0Debt",
                  "type": "uint256"
                },
                {
                  "internalType": "uint256",
                  "name": "token1Debt",
                  "type": "uint256"
                },
                {
                  "internalType": "uint256",
                  "name": "token0RealReserves",
                  "type": "uint256"
                },
                {
                  "internalType": "uint256",
                  "name": "token1RealReserves",
                  "type": "uint256"
                },
                {
                  "internalType": "uint256",
                  "name": "token0ImaginaryReserves",
                  "type": "uint256"
                },
                {
                  "internalType": "uint256",
                  "name": "token1ImaginaryReserves",
                  "type": "uint256"
                }
              ],
              "internalType": "struct IFluidDexT1.DebtReserves",
              "name": "debtReserves",
              "type": "tuple"
            },
            {
              "components": [
                {
                  "components": [
                    {
                      "internalType": "uint256",
                      "name": "available",
                      "type": "uint256"
                    },
                    {
                      "internalType": "uint256",
                      "name": "expandsTo",
                      "type": "uint256"
                    },
                    {
                      "internalType": "uint256",
                      "name": "expandDuration",
                      "type": "uint256"
                    }
                  ],
                  "internalType": "struct Structs.TokenLimit",
                  "name": "withdrawableToken0",
                  "type": "tuple"
                },
                {
                  "components": [
                    {
                      "internalType": "uint256",
                      "name": "available",
                      "type": "uint256"
                    },
                    {
                      "internalType": "uint256",
                      "name": "expandsTo",
                      "type": "uint256"
                    },
                    {
                      "internalType": "uint256",
                      "name": "expandDuration",
                      "type": "uint256"
                    }
                  ],
                  "internalType": "struct Structs.TokenLimit",
                  "name": "withdrawableToken1",
                  "type": "tuple"
                },
                {
                  "components": [
                    {
                      "internalType": "uint256",
                      "name": "available",
                      "type": "uint256"
                    },
                    {
                      "internalType": "uint256",
                      "name": "expandsTo",
                      "type": "uint256"
                    },
                    {
                      "internalType": "uint256",
                      "name": "expandDuration",
                      "type": "uint256"
                    }
                  ],
                  "internalType": "struct Structs.TokenLimit",
                  "name": "borrowableToken0",
                  "type": "tuple"
                },
                {
                  "components": [
                    {
                      "internalType": "uint256",
                      "name": "available",
                      "type": "uint256"
                    },
                    {
                      "internalType": "uint256",
                      "name": "expandsTo",
                      "type": "uint256"
                    },
                    {
                      "internalType": "uint256",
                      "name": "expandDuration",
                      "type": "uint256"
                    }
                  ],
                  "internalType": "struct Structs.TokenLimit",
                  "name": "borrowableToken1",
                  "type": "tuple"
                }
              ],
              "internalType": "struct Structs.DexLimits",
              "name": "limits",
              "type": "tuple"
            }
          ],
          "internalType": "struct Structs.PoolWithReserves",
          "name": "poolReserves_",
          "type": "tuple"
        }
      ],
      "stateMutability": "nonpayable",
      "type": "function"
    },
    {
      "inputs": [
        {
          "internalType": "address",
          "name": "pool_",
          "type": "address"
        }
      ],
      "name": "getPoolTokens",
      "outputs": [
        {
          "internalType": "address",
          "name": "token0_",
          "type": "address"
        },
        {
          "internalType": "address",
          "name": "token1_",
          "type": "address"
        }
      ],
      "stateMutability": "view",
      "type": "function"
    },
    {
      "inputs": [
        {
          "internalType": "address[]",
          "name": "pools_",
          "type": "address[]"
        }
      ],
      "name": "getPoolsReserves",
      "outputs": [
        {
          "components": [
            {
              "internalType": "address",
              "name": "pool",
              "type": "address"
            },
            {
              "internalType": "address",
              "name": "token0",
              "type": "address"
            },
            {
              "internalType": "address",
              "name": "token1",
              "type": "address"
            },
            {
              "internalType": "uint256",
              "name": "fee",
              "type": "uint256"
            },
            {
              "internalType": "uint256",
              "name": "centerPrice",
              "type": "uint256"
            },
            {
              "components": [
                {
                  "internalType": "uint256",
                  "name": "token0RealReserves",
                  "type": "uint256"
                },
                {
                  "internalType": "uint256",
                  "name": "token1RealReserves",
                  "type": "uint256"
                },
                {
                  "internalType": "uint256",
                  "name": "token0ImaginaryReserves",
                  "type": "uint256"
                },
                {
                  "internalType": "uint256",
                  "name": "token1ImaginaryReserves",
                  "type": "uint256"
                }
              ],
              "internalType": "struct IFluidDexT1.CollateralReserves",
              "name": "collateralReserves",
              "type": "tuple"
            },
            {
              "components": [
                {
                  "internalType": "uint256",
                  "name": "token0Debt",
                  "type": "uint256"
                },
                {
                  "internalType": "uint256",
                  "name": "token1Debt",
                  "type": "uint256"
                },
                {
                  "internalType": "uint256",
                  "name": "token0RealReserves",
                  "type": "uint256"
                },
                {
                  "internalType": "uint256",
                  "name": "token1RealReserves",
                  "type": "uint256"
                },
                {
                  "internalType": "uint256",
                  "name": "token0ImaginaryReserves",
                  "type": "uint256"
                },
                {
                  "internalType": "uint256",
                  "name": "token1ImaginaryReserves",
                  "type": "uint256"
                }
              ],
              "internalType": "struct IFluidDexT1.DebtReserves",
              "name": "debtReserves",
              "type": "tuple"
            },
            {
              "components": [
                {
                  "components": [
                    {
                      "internalType": "uint256",
                      "name": "available",
                      "type": "uint256"
                    },
                    {
                      "internalType": "uint256",
                      "name": "expandsTo",
                      "type": "uint256"
                    },
                    {
                      "internalType": "uint256",
                      "name": "expandDuration",
                      "type": "uint256"
                    }
                  ],
                  "internalType": "struct Structs.TokenLimit",
                  "name": "withdrawableToken0",
                  "type": "tuple"
                },
                {
                  "components": [
                    {
                      "internalType": "uint256",
                      "name": "available",
                      "type": "uint256"
                    },
                    {
                      "internalType": "uint256",
                      "name": "expandsTo",
                      "type": "uint256"
                    },
                    {
                      "internalType": "uint256",
                      "name": "expandDuration",
                      "type": "uint256"
                    }
                  ],
                  "internalType": "struct Structs.TokenLimit",
                  "name": "withdrawableToken1",
                  "type": "tuple"
                },
                {
                  "components": [
                    {
                      "internalType": "uint256",
                      "name": "available",
                      "type": "uint256"
                    },
                    {
                      "internalType": "uint256",
                      "name": "expandsTo",
                      "type": "uint256"
                    },
                    {
                      "internalType": "uint256",
                      "name": "expandDuration",
                      "type": "uint256"
                    }
                  ],
                  "internalType": "struct Structs.TokenLimit",
                  "name": "borrowableToken0",
                  "type": "tuple"
                },
                {
                  "components": [
                    {
                      "internalType": "uint256",
                      "name": "available",
                      "type": "uint256"
                    },
                    {
                      "internalType": "uint256",
                      "name": "expandsTo",
                      "type": "uint256"
                    },
                    {
                      "internalType": "uint256",
                      "name": "expandDuration",
                      "type": "uint256"
                    }
                  ],
                  "internalType": "struct Structs.TokenLimit",
                  "name": "borrowableToken1",
                  "type": "tuple"
                }
              ],
              "internalType": "struct Structs.DexLimits",
              "name": "limits",
              "type": "tuple"
            }
          ],
          "internalType": "struct Structs.PoolWithReserves[]",
          "name": "poolsReserves_",
          "type": "tuple[]"
        }
      ],
      "stateMutability": "nonpayable",
      "type": "function"
    },
    {
      "inputs": [
        {
          "internalType": "address[]",
          "name": "pools_",
          "type": "address[]"
        }
      ],
      "name": "getPoolsReservesAdjusted",
      "outputs": [
        {
          "components": [
            {
              "internalType": "address",
              "name": "pool",
              "type": "address"
            },
            {
              "internalType": "address",
              "name": "token0",
              "type": "address"
            },
            {
              "internalType": "address",
              "name": "token1",
              "type": "address"
            },
            {
              "internalType": "uint256",
              "name": "fee",
              "type": "uint256"
            },
            {
              "internalType": "uint256",
              "name": "centerPrice",
              "type": "uint256"
            },
            {
              "components": [
                {
                  "internalType": "uint256",
                  "name": "token0RealReserves",
                  "type": "uint256"
                },
                {
                  "internalType": "uint256",
                  "name": "token1RealReserves",
                  "type": "uint256"
                },
                {
                  "internalType": "uint256",
                  "name": "token0ImaginaryReserves",
                  "type": "uint256"
                },
                {
                  "internalType": "uint256",
                  "name": "token1ImaginaryReserves",
                  "type": "uint256"
                }
              ],
              "internalType": "struct IFluidDexT1.CollateralReserves",
              "name": "collateralReserves",
              "type": "tuple"
            },
            {
              "components": [
                {
                  "internalType": "uint256",
                  "name": "token0Debt",
                  "type": "uint256"
                },
                {
                  "internalType": "uint256",
                  "name": "token1Debt",
                  "type": "uint256"
                },
                {
                  "internalType": "uint256",
                  "name": "token0RealReserves",
                  "type": "uint256"
                },
                {
                  "internalType": "uint256",
                  "name": "token1RealReserves",
                  "type": "uint256"
                },
                {
                  "internalType": "uint256",
                  "name": "token0ImaginaryReserves",
                  "type": "uint256"
                },
                {
                  "internalType": "uint256",
                  "name": "token1ImaginaryReserves",
                  "type": "uint256"
                }
              ],
              "internalType": "struct IFluidDexT1.DebtReserves",
              "name": "debtReserves",
              "type": "tuple"
            },
            {
              "components": [
                {
                  "components": [
                    {
                      "internalType": "uint256",
                      "name": "available",
                      "type": "uint256"
                    },
                    {
                      "internalType": "uint256",
                      "name": "expandsTo",
                      "type": "uint256"
                    },
                    {
                      "internalType": "uint256",
                      "name": "expandDuration",
                      "type": "uint256"
                    }
                  ],
                  "internalType": "struct Structs.TokenLimit",
                  "name": "withdrawableToken0",
                  "type": "tuple"
                },
                {
                  "components": [
                    {
                      "internalType": "uint256",
                      "name": "available",
                      "type": "uint256"
                    },
                    {
                      "internalType": "uint256",
                      "name": "expandsTo",
                      "type": "uint256"
                    },
                    {
                      "internalType": "uint256",
                      "name": "expandDuration",
                      "type": "uint256"
                    }
                  ],
                  "internalType": "struct Structs.TokenLimit",
                  "name": "withdrawableToken1",
                  "type": "tuple"
                },
                {
                  "components": [
                    {
                      "internalType": "uint256",
                      "name": "available",
                      "type": "uint256"
                    },
                    {
                      "internalType": "uint256",
                      "name": "expandsTo",
                      "type": "uint256"
                    },
                    {
                      "internalType": "uint256",
                      "name": "expandDuration",
                      "type": "uint256"
                    }
                  ],
                  "internalType": "struct Structs.TokenLimit",
                  "name": "borrowableToken0",
                  "type": "tuple"
                },
                {
                  "components": [
                    {
                      "internalType": "uint256",
                      "name": "available",
                      "type": "uint256"
                    },
                    {
                      "internalType": "uint256",
                      "name": "expandsTo",
                      "type": "uint256"
                    },
                    {
                      "internalType": "uint256",
                      "name": "expandDuration",
                      "type": "uint256"
                    }
                  ],
                  "internalType": "struct Structs.TokenLimit",
                  "name": "borrowableToken1",
                  "type": "tuple"
                }
              ],
              "internalType": "struct Structs.DexLimits",
              "name": "limits",
              "type": "tuple"
            }
          ],
          "internalType": "struct Structs.PoolWithReserves[]",
          "name": "poolsReserves_",
          "type": "tuple[]"
        }
      ],
      "stateMutability": "nonpayable",
      "type": "function"
    },
    {
      "inputs": [],
      "name": "getTotalPools",
      "outputs": [
        {
          "internalType": "uint256",
          "name": "",
          "type": "uint256"
        }
      ],
      "stateMutability": "view",
      "type": "function"
    }
  ],
  "transactionHash": "0x50439e450f1992feaec85015f05aa25b9338429401038581a8cfa3a8830e585d",
  "args": [
    "0x91716C4EDA1Fb55e84Bf8b4c7085f84285c19085",
    "0x52Aa899454998Be5b000Ad077a46Bbe360F4e497",
    "0x98d900e25AAf345A4B23f454751EC5083443Fa83"
  ],
  "numDeployments": 1,
  "solcInputHash": "d95b652697caea3ca510fb9fd752c166",
  "bytecode": "0x60e06040523480156200001157600080fd5b5060405162005bb838038062005bb883398101604081905262000034916200006f565b6001600160a01b0392831660805290821660a0521660c052620000b9565b80516001600160a01b03811681146200006a57600080fd5b919050565b6000806000606084860312156200008557600080fd5b620000908462000052565b9250620000a06020850162000052565b9150620000b06040850162000052565b90509250925092565b60805160a05160c051615a896200012f6000396000818161046701528181610a3201528181610af301528181610bb40152610c730152600081816102e801528181610ed001528181610f4a01528181611124015261119e01526000818161031c0152818161061e01526136010152615a896000f3fe6080604052600436106101a05760003560e01c80636902f79f116100e1578063c0eec0e81161008a578063d3ffe67a11610064578063d3ffe67a146105a0578063d88ff1f4146105b5578063dde04706146105d7578063fccca03c146105f757600080fd5b8063c0eec0e814610511578063c56f1b4414610531578063ca4f28031461055357600080fd5b8063a5973763116100bb578063a5973763146104be578063bb39e3a1146104de578063bd964d38146104f157600080fd5b80636902f79f146104555780636e38c02314610489578063957755e61461049e57600080fd5b8063333d01a91161014e578063425711371161012857806342571137146103ba57806342fcc6fb146103db5780634bee9395146103fb57806355181f111461042857600080fd5b8063333d01a91461033e5780633973a11b146103605780633ec841e41461038d57600080fd5b8063180f4c651161017f578063180f4c65146102a95780632861c7d1146102d65780632dd310001461030a57600080fd5b8062a5ae21146101a5578063015f6cfa146101ef578063068bcd8d1461027c575b600080fd5b3480156101b157600080fd5b506101c56101c0366004614a80565b610617565b60405173ffffffffffffffffffffffffffffffffffffffff90911681526020015b60405180910390f35b3480156101fb57600080fd5b5061020f61020a366004614abe565b610649565b6040516101e69190600061012082019050825182526020830151602083015260408301516040830152606083015160608301526080830151608083015260a083015160a083015260c083015160c083015260e083015160e083015261010080840151818401525092915050565b34801561028857600080fd5b5061029c610297366004614a80565b6107a9565b6040516101e69190614adb565b3480156102b557600080fd5b506102c96102c4366004614abe565b61085b565b6040516101e69190614bb1565b3480156102e257600080fd5b506101c57f000000000000000000000000000000000000000000000000000000000000000081565b34801561031657600080fd5b506101c57f000000000000000000000000000000000000000000000000000000000000000081565b34801561034a57600080fd5b50610353611823565b6040516101e69190614c92565b34801561036c57600080fd5b5061038061037b366004614abe565b611835565b6040516101e69190614ce1565b34801561039957600080fd5b506103ad6103a8366004614abe565b611942565b6040516101e69190614e73565b6103cd6103c8366004614eac565b6119dc565b6040519081526020016101e6565b3480156103e757600080fd5b506103cd6103f6366004614abe565b61232a565b34801561040757600080fd5b5061041b610416366004614abe565b6123cd565b6040516101e69190614ef2565b34801561043457600080fd5b50610448610443366004614abe565b612522565b6040516101e69190614f01565b34801561046157600080fd5b506101c57f000000000000000000000000000000000000000000000000000000000000000081565b34801561049557600080fd5b5061035361272a565b3480156104aa57600080fd5b506103ad6104b9366004614abe565b612737565b3480156104ca57600080fd5b506103536104d936600461509e565b61290f565b6103cd6104ec366004614eac565b6129c5565b3480156104fd57600080fd5b5061041b61050c366004614abe565b6131d6565b34801561051d57600080fd5b506103ad61052c366004614abe565b6132e0565b34801561053d57600080fd5b506105466134b8565b6040516101e69190615144565b34801561055f57600080fd5b5061057361056e366004614abe565b613572565b6040805173ffffffffffffffffffffffffffffffffffffffff9384168152929091166020830152016101e6565b3480156105ac57600080fd5b506103cd6135fd565b3480156105c157600080fd5b506105ca61368e565b6040516101e69190615192565b3480156105e357600080fd5b506104486105f2366004614abe565b613771565b34801561060357600080fd5b5061035361061236600461509e565b613973565b60006106437f000000000000000000000000000000000000000000000000000000000000000083613a29565b92915050565b6106986040518061012001604052806000815260200160008152602001600081526020016000815260200160008152602001600081526020016000815260200160008152602001600081525090565b8173ffffffffffffffffffffffffffffffffffffffff1663916cef4e6040518163ffffffff1660e01b8152600401600060405180830381600087803b1580156106e057600080fd5b505af19250505080156106f1575060015b6107a4573d80801561071f576040519150601f19603f3d011682016040523d82523d6000602084013e610724565b606091505b5060208101517fdc4022c5000000000000000000000000000000000000000000000000000000007fffffffff000000000000000000000000000000000000000000000000000000008216016107a15761078b8260048085516107869190615240565b613e93565b80602001905181019061079e9190615253565b92505b50505b919050565b6040805160808101825260008082526020820181905291810182905260608101829052906107d683610617565b90506000806107e483613572565b9150915060405180608001604052808473ffffffffffffffffffffffffffffffffffffffff1681526020018373ffffffffffffffffffffffffffffffffffffffff1681526020018273ffffffffffffffffffffffffffffffffffffffff1681526020016108508561232a565b905295945050505050565b6108636147b1565b6108b460405180610120016040528060001515815260200160008152602001600081526020016000815260200160008152602001600081526020016000815260200160008152602001600081525090565b61090560405180610120016040528060001515815260200160008152602001600081526020016000815260200160008152602001600081526020016000815260200160008152602001600081525090565b61090d614860565b610915614860565b610974604051806101600160405280600015158152602001600081526020016000815260200160008152602001600081526020016000815260200160008152602001600081526020016000815260200160008152602001600081525090565b6109d3604051806101600160405280600015158152602001600081526020016000815260200160008152602001600081526020016000815260200160008152602001600081526020016000815260200160008152602001600081525090565b6000806109df8a613572565b6040517fe72ef91b00000000000000000000000000000000000000000000000000000000815273ffffffffffffffffffffffffffffffffffffffff8d8116600483015280841660248301529294509092507f00000000000000000000000000000000000000000000000000000000000000009091169063e72ef91b906044016104c060405180830381865afa158015610a7c573d6000803e3d6000fd5b505050506040513d601f19601f82011682018060405250810190610aa091906154ff565b6040517fe72ef91b00000000000000000000000000000000000000000000000000000000815273ffffffffffffffffffffffffffffffffffffffff8d811660048301528481166024830152929a509097507f00000000000000000000000000000000000000000000000000000000000000009091169063e72ef91b906044016104c060405180830381865afa158015610b3d573d6000803e3d6000fd5b505050506040513d601f19601f82011682018060405250810190610b6191906154ff565b6040517f967915d600000000000000000000000000000000000000000000000000000000815273ffffffffffffffffffffffffffffffffffffffff8d8116600483015285811660248301529299509096507f00000000000000000000000000000000000000000000000000000000000000009091169063967915d69060440161050060405180830381865afa158015610bfe573d6000803e3d6000fd5b505050506040513d601f19601f82011682018060405250810190610c2291906155a5565b506040517f967915d600000000000000000000000000000000000000000000000000000000815273ffffffffffffffffffffffffffffffffffffffff8c8116600483015283811660248301529195507f00000000000000000000000000000000000000000000000000000000000000009091169063967915d69060440161050060405180830381865afa158015610cbd573d6000803e3d6000fd5b505050506040513d601f19601f82011682018060405250810190610ce191906155a5565b506040517fb5c736e40000000000000000000000000000000000000000000000000000000081526001600482015290935060009073ffffffffffffffffffffffffffffffffffffffff8c169063b5c736e490602401602060405180830381865afa158015610d53573d6000803e3d6000fd5b505050506040513d601f19601f82011682018060405250810190610d779190615658565b90506000610d8e60e483901c6103ff16600a615671565b9050600081905080896101e001511015610daa57506101e08801515b6000612710828b6101800151610dc09190615671565b610dca91906156b7565b9050808a6101a001511015610fba578215610e0257828a6101a00151612710610df39190615671565b610dfd91906156b7565b610e05565b60005b8d51528c51516101808b015111610e1d576000610e30565b8c51516101808b0151610e309190615240565b8d51528c5180516020909101526101a08a0151610e4d9082615240565b60408e01805191909152518051602090910152600073ffffffffffffffffffffffffffffffffffffffff871673eeeeeeeeeeeeeeeeeeeeeeeeeeeeeeeeeeeeeeee14610f48576040517f70a0823100000000000000000000000000000000000000000000000000000000815273ffffffffffffffffffffffffffffffffffffffff7f0000000000000000000000000000000000000000000000000000000000000000811660048301528816906370a0823190602401602060405180830381865afa158015610f1f573d6000803e3d6000fd5b505050506040513d601f19601f82011682018060405250810190610f439190615658565b610f81565b7f000000000000000000000000000000000000000000000000000000000000000073ffffffffffffffffffffffffffffffffffffffff16315b9050808e60000151602001511115610f9c578d516020018190525b808e60400151602001511115610fb85760408e01516020018190525b505b50505060006103ff60ee83901c16600a610fd49190615671565b9050600081905080886101e001511015610ff057506101e08701515b6000612710828a61018001516110069190615671565b61101091906156b7565b905080896101a0015110156112105782156110485782896101a001516127106110399190615671565b61104391906156b7565b61104b565b60005b60208e0180519190915251516101808a01511161106957600061107f565b60208d0151516101808a015161107f9190615240565b6020808f01805192909252905180519101526101a08901516110a19082615240565b60608e01805191909152518051602090910152600073ffffffffffffffffffffffffffffffffffffffff861673eeeeeeeeeeeeeeeeeeeeeeeeeeeeeeeeeeeeeeee1461119c576040517f70a0823100000000000000000000000000000000000000000000000000000000815273ffffffffffffffffffffffffffffffffffffffff7f0000000000000000000000000000000000000000000000000000000000000000811660048301528716906370a0823190602401602060405180830381865afa158015611173573d6000803e3d6000fd5b505050506040513d601f19601f820116820180604052508101906111979190615658565b6111d5565b7f000000000000000000000000000000000000000000000000000000000000000073ffffffffffffffffffffffffffffffffffffffff16315b9050808e602001516020015111156111f2576020808f0151018190525b808e6060015160200151111561120e5760608e01516020018190525b505b50505050505060008660a00151876060015161122c91906156cb565b90508042116112445761123f4282615240565b611247565b60005b90506000612710886020015189608001516112629190615671565b61126c91906156b7565b90508088610100015111156112875750506101008601516000905b88516020015181116112e157885160200181905280156112d75760a08801516101008901518a51602001518392916112be91615240565b6112c89190615671565b6112d291906156b7565b6112da565b60005b915061134a565b8851602001516101008901511115611308578851602001516101008901526000915061134a565b80156113445760a08801516101008901518a516020015183929161132b91615240565b6113359190615671565b61133f91906156b7565b611347565b60005b91505b5087516040015260a08501516060860151600091611367916156cb565b905080421161137f5761137a4282615240565b611382565b60005b905060006127108760200151886080015161139d9190615671565b6113a791906156b7565b90508087610100015111156113c25750506101008501516000905b8860200151602001518111611423576020808a015101819052801561141957808760a001518861010001518b60200151602001516114009190615240565b61140a9190615671565b61141491906156b7565b61141c565b60005b9150611493565b886020015160200151876101000151111561144f576020808a0151015161010088015260009150611493565b801561148d57808760a001518861010001518b60200151602001516114749190615240565b61147e9190615671565b61148891906156b7565b611490565b60005b91505b5060208801516040015260a082015160608301516000916114b3916156cb565b90508042116114cb576114c64282615240565b6114ce565b60005b90506000612710846020015185608001516114e99190615671565b6114f391906156b7565b9050600084602001518560e0015161150b9190615240565b9050808a604001516020015111156115295760408a01516020018190525b508084610120015111156115435750506101208201516000905b88604001516020015181116115a5576040890151602001819052801561159b57808460a001518561012001518b60400151602001516115829190615240565b61158c9190615671565b61159691906156b7565b61159e565b60005b9150611616565b88604001516020015184610120015111156115d25760408901516020015161012085015260009150611616565b801561161057808460a001518561012001518b60400151602001516115f79190615240565b6116019190615671565b61160b91906156b7565b611613565b60005b91505b50604080890151015260a08101516060820151600091611635916156cb565b905080421161164d576116484282615240565b611650565b60005b905060006127108360200151846080015161166b9190615671565b61167591906156b7565b9050600083602001518460e0015161168d9190615240565b9050808a606001516020015111156116ab5760608a01516020018190525b508083610120015111156116c55750506101208101516000905b8860600151602001518111611727576060890151602001819052801561171d57808360a001518461012001518b60600151602001516117049190615240565b61170e9190615671565b61171891906156b7565b611720565b60005b9150611798565b88606001516020015183610120015111156117545760608901516020015161012084015260009150611798565b801561179257808360a001518461012001518b60600151602001516117799190615240565b6117839190615671565b61178d91906156b7565b611795565b60005b91505b5060608801516040015286515161010086015110156117bb576101008601518751525b60208701515161010086015110156117da576101008501516020880151525b60408701515161012083015110156117f9576101208201516040880151525b6060870151516101208201511015611818576101208101516060880151525b505050505050919050565b60606118306106126134b8565b905090565b6118d2604080516101c08101825260008082526020808301829052828401829052835160a08101855282815290810182905292830181905260608381018290526080840191909152909190820190815260006020820181905260408201819052606082018190526080820181905260a0820181905260c0820181905260e08201819052610100820181905261012082018190526101409091015290565b8173ffffffffffffffffffffffffffffffffffffffff1663b7791bf26040518163ffffffff1660e01b815260040161024060405180830381865afa15801561191e573d6000803e3d6000fd5b505050506040513d601f19601f820116820180604052508101906106439190615759565b61196d6040518060800160405280600081526020016000815260200160008152602001600081525090565b8173ffffffffffffffffffffffffffffffffffffffff16631595cbd36040518163ffffffff1660e01b8152600401608060405180830381865afa1580156119b8573d6000803e3d6000fd5b505050506040513d601f19601f8201168201806040525081019061064391906158a6565b6040517f286f0e610000000000000000000000000000000000000000000000000000000081528315156004820152602481018390526044810182905261dead606482015260009073ffffffffffffffffffffffffffffffffffffffff86169063286f0e6190349060840160206040518083038185885af193505050508015611a9f575060408051601f3d9081017fffffffffffffffffffffffffffffffffffffffffffffffffffffffffffffffe0168201909252611a9c91810190615658565b60015b611b05573d808015611acd576040519150601f19603f3d011682016040523d82523d6000602084013e611ad2565b606091505b50611afd817fb3bfda990000000000000000000000000000000000000000000000000000000061400a565b915050611b07565b505b611b4f60405180610100016040528060008152602001600081526020016000815260200160008152602001600081526020016000815260200160008152602001600081525090565b6000611b5a876132e0565b90506000611b6788613771565b90508615611b9c576040808301518452606080840151602086015260808301519185019190915260a082015190840152611bc2565b6060808301518452604080840151602086015260a0830151908501526080820151908401525b505060008673ffffffffffffffffffffffffffffffffffffffff16631595cbd36040518163ffffffff1660e01b8152600401608060405180830381865afa158015611c11573d6000803e3d6000fd5b505050506040513d601f19601f82011682018060405250810190611c3591906158a6565b905060008060008815611c675760608401516040850151611c56908a615671565b611c6091906156b7565b9050611c85565b60208401518451611c78908a615671565b611c8291906156b7565b90505b6040517fb5c736e40000000000000000000000000000000000000000000000000000000081526001600482015260009073ffffffffffffffffffffffffffffffffffffffff8c169063b5c736e490602401602060405180830381865afa158015611cf3573d6000803e3d6000fd5b505050506040513d601f19601f82011682018060405250810190611d179190615658565b600281811c6201ffff1694509091506001808316149080831614818015611d3b5750805b15611d6457611d5d8489600001518a602001518b604001518c6060015161405e565b9550611e0a565b8015611d92577fffffffffffffffffffffffffffffffffffffffffffffffffffffffffffffffff9550611e0a565b8115611da357611d5d8460016158c2565b6040517f08c379a000000000000000000000000000000000000000000000000000000000815260206004820152601460248201527f4e6f20706f6f6c732061726520656e61626c656400000000000000000000000060448201526064015b60405180910390fd5b50505060008313611e695760a0850181905260408501516060860151611e319183916140ea565b60e0860152611e4382620f4240615240565b60e0860151611e5590620f4240615671565b611e5f91906156b7565b60e0860152611f6f565b808312611ec1576080850181905284516020860151611e899183916140ea565b60c0860152611e9b82620f4240615240565b60c0860151611ead90620f4240615671565b611eb791906156b7565b60c0860152611f6f565b60808501839052611ed28382615240565b60a0860152608085015185516020870151611eee9291906140ea565b60c0860152611f0082620f4240615240565b60c0860151611f1290620f4240615671565b611f1c91906156b7565b60c086015260a085015160408601516060870151611f3b9291906140ea565b60e0860152611f4d82620f4240615240565b60e0860151611f5f90620f4240615671565b611f6991906156b7565b60e08601525b5050506000806000611f808a61085b565b90508815611fdf5783606001518460400151826060015160000151611fa59190615671565b611faf91906156b7565b925083606001518460400151826020015160000151611fce9190615671565b611fd891906156b7565b9150612026565b60208401518451604083015151611ff69190615671565b61200091906156b7565b6020850151855183515192955090916120199190615671565b61202391906156b7565b91505b828560a00151111561205f577fffffffffffffffffffffffffffffffffffffffffffffffffffffffffffffffff95505050505050612322565b8185608001511115612098577fffffffffffffffffffffffffffffffffffffffffffffffffffffffffffffffff95505050505050612322565b5050506000808360a00151846080015111156121a357876120df57602084015184516120d0906b033b2e3c9fd0803ce8000000615671565b6120da91906156b7565b612106565b835160208501516120fc906b033b2e3c9fd0803ce8000000615671565b61210691906156b7565b91508761215757836080015184602001516121219190615240565b60c0850151855161213291906156cb565b612148906b033b2e3c9fd0803ce8000000615671565b61215291906156b7565b61219c565b60c0840151845161216891906156cb565b8460800151856020015161217c9190615240565b612192906b033b2e3c9fd0803ce8000000615671565b61219c91906156b7565b90506122a0565b876121d757606084015160408501516121c8906b033b2e3c9fd0803ce8000000615671565b6121d291906156b7565b612201565b604084015160608501516121f7906b033b2e3c9fd0803ce8000000615671565b61220191906156b7565b915087612255578360a00151846060015161221c9190615240565b8460e00151856040015161223091906156cb565b612246906b033b2e3c9fd0803ce8000000615671565b61225091906156b7565b61229d565b8360e00151846040015161226991906156cb565b8460a00151856060015161227d9190615240565b612293906b033b2e3c9fd0803ce8000000615671565b61229d91906156b7565b90505b60008183116122b8576122b38383615240565b6122c2565b6122c28284615240565b9050670de0b6b3a76400006122de66b1a2bc2ec5000085615671565b6122e891906156b7565b81111561231c577fffffffffffffffffffffffffffffffffffffffffffffffffffffffffffffffff95505050505050612322565b50505050505b949350505050565b6040517fb5c736e400000000000000000000000000000000000000000000000000000000815260016004820152600090819073ffffffffffffffffffffffffffffffffffffffff84169063b5c736e490602401602060405180830381865afa15801561239a573d6000803e3d6000fd5b505050506040513d601f19601f820116820180604052508101906123be9190615658565b60021c6201ffff169392505050565b6123d56148e4565b6123de82613572565b73ffffffffffffffffffffffffffffffffffffffff908116604084810191909152918116602084015290517f015f6cfa0000000000000000000000000000000000000000000000000000000081529083166004820152309063015f6cfa90602401610120604051808303816000875af1925050508015612499575060408051601f3d9081017fffffffffffffffffffffffffffffffffffffffffffffffffffffffffffffffe016820190925261249691810190615253565b60015b6124be576124a682612737565b60a08201526124b482612522565b60c08201526124e8565b602081015160808301526124d2838261411b565b60a08301526124e18382614265565b60c0830152505b73ffffffffffffffffffffffffffffffffffffffff8216815261250a8261232a565b60608201526125188261085b565b60e0820152919050565b61255b6040518060c001604052806000815260200160008152602001600081526020016000815260200160008152602001600081525090565b6040517fb5c736e40000000000000000000000000000000000000000000000000000000081526001600482015260009073ffffffffffffffffffffffffffffffffffffffff84169063b5c736e490602401602060405180830381865afa1580156125c9573d6000803e3d6000fd5b505050506040513d601f19601f820116820180604052508101906125ed9190615658565b905080600216600214612635576040518060c0016040528060008152602001600081526020016000815260200160008152602001600081526020016000815250915050919050565b6040517f015f6cfa00000000000000000000000000000000000000000000000000000000815273ffffffffffffffffffffffffffffffffffffffff84166004820152309063015f6cfa90602401610120604051808303816000875af19250505080156126dc575060408051601f3d9081017fffffffffffffffffffffffffffffffffffffffffffffffffffffffffffffffe01682019092526126d991810190615253565b60015b61271a576040518060c00160405280600081526020016000815260200160008152602001600081526020016000815260200160008152509150612724565b61079e8482614265565b50919050565b60606118306104d96134b8565b6127626040518060800160405280600081526020016000815260200160008152602001600081525090565b6040517fb5c736e40000000000000000000000000000000000000000000000000000000081526001600482015260009073ffffffffffffffffffffffffffffffffffffffff84169063b5c736e490602401602060405180830381865afa1580156127d0573d6000803e3d6000fd5b505050506040513d601f19601f820116820180604052508101906127f49190615658565b90508060011660011461282e5760405180608001604052806000815260200160008152602001600081526020016000815250915050919050565b6040517f015f6cfa00000000000000000000000000000000000000000000000000000000815273ffffffffffffffffffffffffffffffffffffffff84166004820152309063015f6cfa90602401610120604051808303816000875af19250505080156128d5575060408051601f3d9081017fffffffffffffffffffffffffffffffffffffffffffffffffffffffffffffffe01682019092526128d291810190615253565b60015b61290557604051806080016040528060008152602001600081526020016000815260200160008152509150612724565b61079e848261411b565b6060815167ffffffffffffffff81111561292b5761292b614f44565b60405190808252806020026020018201604052801561296457816020015b6129516148e4565b8152602001906001900390816129495790505b50905060005b825181101561272457612995838281518110612988576129886158ea565b60200260200101516123cd565b8282815181106129a7576129a76158ea565b602002602001018190525080806129bd90615919565b91505061296a565b6040517f2668dfaa0000000000000000000000000000000000000000000000000000000081528315156004820152602481018390526044810182905261dead606482015260009073ffffffffffffffffffffffffffffffffffffffff861690632668dfaa90349060840160206040518083038185885af193505050508015612a88575060408051601f3d9081017fffffffffffffffffffffffffffffffffffffffffffffffffffffffffffffffe0168201909252612a8591810190615658565b60015b612aee573d808015612ab6576040519150601f19603f3d011682016040523d82523d6000602084013e612abb565b606091505b50612ae6817fb3bfda990000000000000000000000000000000000000000000000000000000061400a565b915050612af0565b505b612b3860405180610100016040528060008152602001600081526020016000815260200160008152602001600081526020016000815260200160008152602001600081525090565b6000612b43876132e0565b90506000612b5088613771565b90508615612b85576040808301518452606080840151602086015260808301519185019190915260a082015190840152612bab565b6060808301518452604080840151602086015260a0830151908501526080820151908401525b505060008673ffffffffffffffffffffffffffffffffffffffff16631595cbd36040518163ffffffff1660e01b8152600401608060405180830381865afa158015612bfa573d6000803e3d6000fd5b505050506040513d601f19601f82011682018060405250810190612c1e91906158a6565b905060008060008815612c4d5760208401518451612c3c908a615671565b612c4691906156b7565b9050612c6e565b60608401516040850151612c61908a615671565b612c6b91906156b7565b90505b6040517fb5c736e40000000000000000000000000000000000000000000000000000000081526001600482015260009073ffffffffffffffffffffffffffffffffffffffff8c169063b5c736e490602401602060405180830381865afa158015612cdc573d6000803e3d6000fd5b505050506040513d601f19601f82011682018060405250810190612d009190615658565b600281811c6201ffff1694509091506001808316149080831614818015612d245750805b15612d4d57612d468489602001518a600001518b606001518c6040015161440c565b9550612d8c565b8015612d7b577fffffffffffffffffffffffffffffffffffffffffffffffffffffffffffffffff9550612d8c565b8115611da357612d468460016158c2565b50505060008313612ddc5760e08501819052612dd2620f4240612daf8482615240565b612db99084615671565b612dc391906156b7565b86604001518760600151614457565b60a0860152612e86565b808312612e255760c08501819052612e1b620f4240612dfb8482615240565b612e059084615671565b612e0f91906156b7565b86516020880151614457565b6080860152612e86565b60c08501839052612e368382615240565b60e0860152612e5b620f4240612e4c8482615240565b8760c00151612e059190615671565b6080860152612e80620f4240612e718482615240565b8760e00151612db99190615671565b60a08601525b5050506000806000612e978a61085b565b90508815612ef65783606001518460400151826060015160000151612ebc9190615671565b612ec691906156b7565b925083606001518460400151826020015160000151612ee59190615671565b612eef91906156b7565b9150612f3d565b60208401518451604083015151612f0d9190615671565b612f1791906156b7565b602085015185518351519295509091612f309190615671565b612f3a91906156b7565b91505b828560a001511115612f5757600095505050505050612322565b8185608001511115612f7157600095505050505050612322565b5050506000808360e001518460c00151111561307c5787612fb85760208401518451612fa9906b033b2e3c9fd0803ce8000000615671565b612fb391906156b7565b612fdf565b83516020850151612fd5906b033b2e3c9fd0803ce8000000615671565b612fdf91906156b7565b9150876130305783608001518460200151612ffa9190615240565b60c0850151855161300b91906156cb565b613021906b033b2e3c9fd0803ce8000000615671565b61302b91906156b7565b613075565b60c0840151845161304191906156cb565b846080015185602001516130559190615240565b61306b906b033b2e3c9fd0803ce8000000615671565b61307591906156b7565b9050613179565b876130b057606084015160408501516130a1906b033b2e3c9fd0803ce8000000615671565b6130ab91906156b7565b6130da565b604084015160608501516130d0906b033b2e3c9fd0803ce8000000615671565b6130da91906156b7565b91508761312e578360a0015184606001516130f59190615240565b8460e00151856040015161310991906156cb565b61311f906b033b2e3c9fd0803ce8000000615671565b61312991906156b7565b613176565b8360e00151846040015161314291906156cb565b8460a0015185606001516131569190615240565b61316c906b033b2e3c9fd0803ce8000000615671565b61317691906156b7565b90505b60008183116131915761318c8383615240565b61319b565b61319b8284615240565b9050670de0b6b3a76400006131b766b1a2bc2ec5000085615671565b6131c191906156b7565b81111561231c57600095505050505050612322565b6131de6148e4565b6131e782613572565b73ffffffffffffffffffffffffffffffffffffffff908116604084810191909152918116602084015290517f015f6cfa0000000000000000000000000000000000000000000000000000000081529083166004820152309063015f6cfa90602401610120604051808303816000875af19250505080156132a2575060408051601f3d9081017fffffffffffffffffffffffffffffffffffffffffffffffffffffffffffffffe016820190925261329f91810190615253565b60015b6132bd576132af826132e0565b60a08201526124b482613771565b602081015160808301526132d18382614479565b60a08301526124e183826145b1565b61330b6040518060800160405280600081526020016000815260200160008152602001600081525090565b6040517fb5c736e40000000000000000000000000000000000000000000000000000000081526001600482015260009073ffffffffffffffffffffffffffffffffffffffff84169063b5c736e490602401602060405180830381865afa158015613379573d6000803e3d6000fd5b505050506040513d601f19601f8201168201806040525081019061339d9190615658565b9050806001166001146133d75760405180608001604052806000815260200160008152602001600081526020016000815250915050919050565b6040517f015f6cfa00000000000000000000000000000000000000000000000000000000815273ffffffffffffffffffffffffffffffffffffffff84166004820152309063015f6cfa90602401610120604051808303816000875af192505050801561347e575060408051601f3d9081017fffffffffffffffffffffffffffffffffffffffffffffffffffffffffffffffe016820190925261347b91810190615253565b60015b6134ae57604051806080016040528060008152602001600081526020016000815260200160008152509150612724565b61079e8482614479565b606060006134c46135fd565b90508067ffffffffffffffff8111156134df576134df614f44565b604051908082528060200260200182016040528015613508578160200160208202803683370190505b50915060005b8181101561356d576135246101c08260016156cb565b838281518110613536576135366158ea565b73ffffffffffffffffffffffffffffffffffffffff909216602092830291909101909101528061356581615919565b91505061350e565b505090565b60008060008373ffffffffffffffffffffffffffffffffffffffff1663b7791bf26040518163ffffffff1660e01b815260040161024060405180830381865afa1580156135c3573d6000803e3d6000fd5b505050506040513d601f19601f820116820180604052508101906135e79190615759565b90508060a001518160c001519250925050915091565b60007f000000000000000000000000000000000000000000000000000000000000000073ffffffffffffffffffffffffffffffffffffffff166393656c176040518163ffffffff1660e01b8152600401602060405180830381865afa15801561366a573d6000803e3d6000fd5b505050506040513d601f19601f820116820180604052508101906118309190615658565b6060600061369a6135fd565b90508067ffffffffffffffff8111156136b5576136b5614f44565b60405190808252806020026020018201604052801561372557816020015b6040805160808101825260008082526020808301829052928201819052606082015282527fffffffffffffffffffffffffffffffffffffffffffffffffffffffffffffffff9092019101816136d35790505b50915060005b8181101561356d576137416102978260016156cb565b838281518110613753576137536158ea565b6020026020010181905250808061376990615919565b91505061372b565b6137aa6040518060c001604052806000815260200160008152602001600081526020016000815260200160008152602001600081525090565b6040517fb5c736e40000000000000000000000000000000000000000000000000000000081526001600482015260009073ffffffffffffffffffffffffffffffffffffffff84169063b5c736e490602401602060405180830381865afa158015613818573d6000803e3d6000fd5b505050506040513d601f19601f8201168201806040525081019061383c9190615658565b905080600216600214613884576040518060c0016040528060008152602001600081526020016000815260200160008152602001600081526020016000815250915050919050565b6040517f015f6cfa00000000000000000000000000000000000000000000000000000000815273ffffffffffffffffffffffffffffffffffffffff84166004820152309063015f6cfa90602401610120604051808303816000875af192505050801561392b575060408051601f3d9081017fffffffffffffffffffffffffffffffffffffffffffffffffffffffffffffffe016820190925261392891810190615253565b60015b613969576040518060c00160405280600081526020016000815260200160008152602001600081526020016000815260200160008152509150612724565b61079e84826145b1565b6060815167ffffffffffffffff81111561398f5761398f614f44565b6040519080825280602002602001820160405280156139c857816020015b6139b56148e4565b8152602001906001900390816139ad5790505b50905060005b8251811015612724576139f98382815181106139ec576139ec6158ea565b60200260200101516131d6565b828281518110613a0b57613a0b6158ea565b60200260200101819052508080613a2190615919565b9150506139ce565b6000606082600003613a3f576000915050610643565b607f8311613b08576040517fd60000000000000000000000000000000000000000000000000000000000000060208201527f940000000000000000000000000000000000000000000000000000000000000060218201527fffffffffffffffffffffffffffffffffffffffff000000000000000000000000606086901b16602282015260f884901b7fff000000000000000000000000000000000000000000000000000000000000001660368201526037015b6040516020818303038152906040529050613e84565b60ff8311613be5576040517fd70000000000000000000000000000000000000000000000000000000000000060208201527f940000000000000000000000000000000000000000000000000000000000000060218201527fffffffffffffffffffffffffffffffffffffffff000000000000000000000000606086901b1660228201527f8100000000000000000000000000000000000000000000000000000000000000603682015260f884901b7fff00000000000000000000000000000000000000000000000000000000000000166037820152603801613af2565b61ffff8311613cc3576040517fd80000000000000000000000000000000000000000000000000000000000000060208201527f940000000000000000000000000000000000000000000000000000000000000060218201527fffffffffffffffffffffffffffffffffffffffff000000000000000000000000606086901b1660228201527f820000000000000000000000000000000000000000000000000000000000000060368201527fffff00000000000000000000000000000000000000000000000000000000000060f085901b166037820152603901613af2565b62ffffff8311613da2576040517fd90000000000000000000000000000000000000000000000000000000000000060208201527f940000000000000000000000000000000000000000000000000000000000000060218201527fffffffffffffffffffffffffffffffffffffffff000000000000000000000000606086901b1660228201527f830000000000000000000000000000000000000000000000000000000000000060368201527fffffff000000000000000000000000000000000000000000000000000000000060e885901b166037820152603a01613af2565b6040517fda0000000000000000000000000000000000000000000000000000000000000060208201527f940000000000000000000000000000000000000000000000000000000000000060218201527fffffffffffffffffffffffffffffffffffffffff000000000000000000000000606086901b1660228201527f840000000000000000000000000000000000000000000000000000000000000060368201527fffffffff0000000000000000000000000000000000000000000000000000000060e085901b166037820152603b0160405160208183030381529060405290505b80516020909101209392505050565b606081613ea181601f6156cb565b1015613f09576040517f08c379a000000000000000000000000000000000000000000000000000000000815260206004820152600e60248201527f736c6963655f6f766572666c6f770000000000000000000000000000000000006044820152606401611e01565b613f1382846156cb565b84511015613f7d576040517f08c379a000000000000000000000000000000000000000000000000000000000815260206004820152601160248201527f736c6963655f6f75744f66426f756e64730000000000000000000000000000006044820152606401611e01565b81158015613f9a5760405191506000825260208201604052614002565b6040519150601f8316801560200281840101848101868315602002848a0101015b81831015613fd3578051835260209283019201613fbb565b5050848452601f017fffffffffffffffffffffffffffffffffffffffffffffffffffffffffffffffe016604052505b509392505050565b600060248351101561401e57506000610643565b60208301517fffffffff000000000000000000000000000000000000000000000000000000008084169082160361405757602484015191505b5092915050565b60008061408561406e8688615671565b61408090670de0b6b3a7640000615671565b6146ff565b9050600061409661406e8587615671565b90506140a281836156cb565b6140ac8386615671565b6140b68389615671565b6140c0858c615671565b6140ca91906156cb565b6140d49190615951565b6140de9190615971565b98975050505050505050565b6000806140f78486615671565b905060006141058685615240565b905061411181836156b7565b9695505050505050565b6141466040518060800160405280600081526020016000815260200160008152602001600081525090565b6141508383614479565b905060008373ffffffffffffffffffffffffffffffffffffffff16631595cbd36040518163ffffffff1660e01b8152600401608060405180830381865afa15801561419f573d6000803e3d6000fd5b505050506040513d601f19601f820116820180604052508101906141c391906158a6565b80516020820151845192935090916141db9190615671565b6141e591906156b7565b82528051602082015160408401516141fd9190615671565b61420791906156b7565b604080840191909152810151606082015160208401516142279190615671565b61423191906156b7565b602083015260408101516060808301519084015161424f9190615671565b61425991906156b7565b60608301525092915050565b61429e6040518060c001604052806000815260200160008152602001600081526020016000815260200160008152602001600081525090565b6142a883836145b1565b905060008373ffffffffffffffffffffffffffffffffffffffff16631595cbd36040518163ffffffff1660e01b8152600401608060405180830381865afa1580156142f7573d6000803e3d6000fd5b505050506040513d601f19601f8201168201806040525081019061431b91906158a6565b80516020820151845192935090916143339190615671565b61433d91906156b7565b82528051602082015160408401516143559190615671565b61435f91906156b7565b604083015280516020820151608084015161437a9190615671565b61438491906156b7565b60808301526040810151606082015160208401516143a29190615671565b6143ac91906156b7565b60208301526040810151606080830151908401516143ca9190615671565b6143d491906156b7565b826060018181525050806040015181606001518360a001516143f69190615671565b61440091906156b7565b60a08301525092915050565b60008061441c61406e8688615671565b9050600061442d61406e8587615671565b905061443981836156cb565b6144438288615671565b61444d848b615671565b6140c08588615671565b600083820283850180828161446e5761446e615688565b049695505050505050565b6144a46040518060800160405280600081526020016000815260200160008152602001600081525090565b6080820151604080840151606085015160a086015160e087015193517f6560abaa0000000000000000000000000000000000000000000000000000000081526004810195909552602485019290925260448401526064830152608482015273ffffffffffffffffffffffffffffffffffffffff841690636560abaa9060a401608060405180830381865afa92505050801561457a575060408051601f3d9081017fffffffffffffffffffffffffffffffffffffffffffffffffffffffffffffffe0168201909252614577918101906158a6565b60015b6145aa57604051806080016040528060008152602001600081526020016000815260200160008152509050610643565b9392505050565b6145ea6040518060c001604052806000815260200160008152602001600081526020016000815260200160008152602001600081525090565b6080820151604080840151606085015160c086015161010087015193517f05d455a90000000000000000000000000000000000000000000000000000000081526004810195909552602485019290925260448401526064830152608482015273ffffffffffffffffffffffffffffffffffffffff8416906305d455a99060a40160c060405180830381865afa9250505080156146c1575060408051601f3d9081017fffffffffffffffffffffffffffffffffffffffffffffffffffffffffffffffe01682019092526146be918101906159d9565b60015b6145aa576040518060c00160405280600081526020016000815260200160008152602001600081526020016000815260200160008152509050610643565b60b5817101000000000000000000000000000000000081106147265760409190911b9060801c5b690100000000000000000081106147425760209190911b9060401c5b65010000000000811061475a5760109190911b9060201c5b630100000081106147705760089190911b9060101c5b62010000010260121c80820401600190811c80830401811c80830401811c80830401811c80830401811c80830401811c80830401901c908190048111900390565b60405180608001604052806147e060405180606001604052806000815260200160008152602001600081525090565b815260200161480960405180606001604052806000815260200160008152602001600081525090565b815260200161483260405180606001604052806000815260200160008152602001600081525090565b815260200161485b60405180606001604052806000815260200160008152602001600081525090565b905290565b6040518061022001604052806000815260200160008152602001600081526020016000815260200160008152602001600081526020016000815260200160008152602001600081526020016000815260200160008152602001600081526020016000815260200160008152602001600081526020016000815260200161485b6149cb565b604051806101000160405280600073ffffffffffffffffffffffffffffffffffffffff168152602001600073ffffffffffffffffffffffffffffffffffffffff168152602001600073ffffffffffffffffffffffffffffffffffffffff16815260200160008152602001600081526020016149806040518060800160405280600081526020016000815260200160008152602001600081525090565b81526020016149be6040518060c001604052806000815260200160008152602001600081526020016000815260200160008152602001600081525090565b815260200161485b6147b1565b604051806060016040528060008152602001614a256040518060a00160405280600073ffffffffffffffffffffffffffffffffffffffff168152602001600081526020016000815260200160008152602001600081525090565b815260200161485b6040518060e00160405280600073ffffffffffffffffffffffffffffffffffffffff1681526020016000815260200160008152602001600081526020016000815260200160008152602001600081525090565b600060208284031215614a9257600080fd5b5035919050565b73ffffffffffffffffffffffffffffffffffffffff81168114614abb57600080fd5b50565b600060208284031215614ad057600080fd5b81356145aa81614a99565b60808101610643828473ffffffffffffffffffffffffffffffffffffffff80825116835280602083015116602084015280604083015116604084015250606081015160608301525050565b614b458282518051825260208082015190830152604090810151910152565b60208181015180516060850152908101516080840152604081015160a084015250604081810151805160c0850152602081015160e0850152908101516101008401525060600151805161012083015260208101516101408301526040015161016090910152565b505050565b61018081016106438284614b26565b73ffffffffffffffffffffffffffffffffffffffff80825116835280602083015116602084015280604083015116604084015250606081015160608301526080810151608083015260a0810151614c3b60a0840182805182526020810151602083015260408101516040830152606081015160608301525050565b5060c0810151805161012084015260208101516101408401526040810151610160840152606081015161018084015260808101516101a084015260a001516101c083015260e0810151614bac6101e0840182614b26565b6020808252825182820181905260009190848201906040850190845b81811015614cd557614cc1838551614bc0565b928401926103609290920191600101614cae565b50909695505050505050565b81518152602080830151610240830191614d129084018273ffffffffffffffffffffffffffffffffffffffff169052565b506040830151614d3a604084018273ffffffffffffffffffffffffffffffffffffffff169052565b506060830151614d98606084018273ffffffffffffffffffffffffffffffffffffffff808251168352806020830151166020840152806040830151166040840152806060830151166060840152806080830151166080840152505050565b506080830151610100614dc28185018373ffffffffffffffffffffffffffffffffffffffff169052565b60a08501519150610120614ded8186018473ffffffffffffffffffffffffffffffffffffffff169052565b60c08601519250610140614e188187018573ffffffffffffffffffffffffffffffffffffffff169052565b60e0870151610160878101919091529287015161018080880191909152918701516101a080880191909152908701516101c0870152918601516101e08601528501516102008501529093015161022090920191909152919050565b8151815260208083015190820152604080830151908201526060808301519082015260808101610643565b8015158114614abb57600080fd5b60008060008060808587031215614ec257600080fd5b8435614ecd81614a99565b93506020850135614edd81614e9e565b93969395505050506040820135916060013590565b61036081016106438284614bc0565b60c081016106438284805182526020810151602083015260408101516040830152606081015160608301526080810151608083015260a081015160a08301525050565b7f4e487b7100000000000000000000000000000000000000000000000000000000600052604160045260246000fd5b604051610120810167ffffffffffffffff81118282101715614f9757614f97614f44565b60405290565b6040516060810167ffffffffffffffff81118282101715614f9757614f97614f44565b60405160a0810167ffffffffffffffff81118282101715614f9757614f97614f44565b604051610220810167ffffffffffffffff81118282101715614f9757614f97614f44565b604051610160810167ffffffffffffffff81118282101715614f9757614f97614f44565b6040516101c0810167ffffffffffffffff81118282101715614f9757614f97614f44565b604051601f82017fffffffffffffffffffffffffffffffffffffffffffffffffffffffffffffffe016810167ffffffffffffffff8111828210171561509657615096614f44565b604052919050565b600060208083850312156150b157600080fd5b823567ffffffffffffffff808211156150c957600080fd5b818501915085601f8301126150dd57600080fd5b8135818111156150ef576150ef614f44565b8060051b915061510084830161504f565b818152918301840191848101908884111561511a57600080fd5b938501935b838510156140de578435925061513483614a99565b828252938501939085019061511f565b6020808252825182820181905260009190848201906040850190845b81811015614cd557835173ffffffffffffffffffffffffffffffffffffffff1683529284019291840191600101615160565b6020808252825182820181905260009190848201906040850190845b81811015614cd5576151fe83855173ffffffffffffffffffffffffffffffffffffffff80825116835280602083015116602084015280604083015116604084015250606081015160608301525050565b92840192608092909201916001016151ae565b7f4e487b7100000000000000000000000000000000000000000000000000000000600052601160045260246000fd5b8181038181111561064357610643615211565b6000610120828403121561526657600080fd5b61526e614f73565b825181526020830151602082015260408301516040820152606083015160608201526080830151608082015260a083015160a082015260c083015160c082015260e083015160e08201526101008084015181830152508091505092915050565b80516107a481614e9e565b80516107a481614a99565b600060e082840312156152f657600080fd5b60405160e0810181811067ffffffffffffffff8211171561531957615319614f44565b8060405250809150825161532c81614a99565b808252506020830151602082015260408301516040820152606083015160608201526080830151608082015260a083015160a082015260c083015160c08201525092915050565b60008183036101a081121561538757600080fd5b61538f614f9d565b91508251825260a07fffffffffffffffffffffffffffffffffffffffffffffffffffffffffffffffe0820112156153c557600080fd5b506153ce614fc0565b60208301516153dc81614a99565b8082525060408301516020820152606083015160408201526080830151606082015260a083015160808201528060208301525061541c8360c084016152e4565b604082015292915050565b60006103a0828403121561543a57600080fd5b615442614fe3565b825181526020808401519082015260408084015190820152606080840151908201526080808401519082015260a0808401519082015260c0808401519082015260e08084015190820152610100808401519082015261012080840151908201526101408084015190820152610160808401519082015261018080840151908201526101a080840151908201526101c080840151908201526101e0808401519082015290506102006154f584828501615373565b9082015292915050565b6000808284036104c081121561551457600080fd5b6101208082121561552457600080fd5b61552c614f73565b9150615537856152ce565b82526020850151602083015260408501516040830152606085015160608301526080850151608083015260a085015160a083015260c085015160c083015260e085015160e083015261010080860151818401525081935061559a86828701615427565b925050509250929050565b6000808284036105008112156155ba57600080fd5b610160808212156155ca57600080fd5b6155d2615007565b91506155dd856152ce565b82526020850151602083015260408501516040830152606085015160608301526080850151608083015260a085015160a083015260c085015160c083015260e085015160e083015261010080860151818401525061012080860151818401525061014080860151818401525081935061559a86828701615427565b60006020828403121561566a57600080fd5b5051919050565b808202811582820484141761064357610643615211565b7f4e487b7100000000000000000000000000000000000000000000000000000000600052601260045260246000fd5b6000826156c6576156c6615688565b500490565b8082018082111561064357610643615211565b600060a082840312156156f057600080fd5b6156f8614fc0565b9050815161570581614a99565b8152602082015161571581614a99565b6020820152604082015161572881614a99565b6040820152606082015161573b81614a99565b6060820152608082015161574e81614a99565b608082015292915050565b6000610240828403121561576c57600080fd5b61577461502b565b82518152615784602084016152d9565b6020820152615795604084016152d9565b60408201526157a784606085016156de565b60608201526101006157ba8185016152d9565b60808301526101206157cd8186016152d9565b60a08401526101406157e08187016152d9565b60c08501526101608087015160e086015261018080880151858701526101a0945084880151848701526101c0880151838701526101e088015182870152610200880151818701525050505061022084015181830152508091505092915050565b60006080828403121561585257600080fd5b6040516080810181811067ffffffffffffffff8211171561587557615875614f44565b8060405250809150825181526020830151602082015260408301516040820152606083015160608201525092915050565b6000608082840312156158b857600080fd5b6145aa8383615840565b80820182811260008312801582168215821617156158e2576158e2615211565b505092915050565b7f4e487b7100000000000000000000000000000000000000000000000000000000600052603260045260246000fd5b60007fffffffffffffffffffffffffffffffffffffffffffffffffffffffffffffffff820361594a5761594a615211565b5060010190565b818103600083128015838313168383128216171561405757614057615211565b60008261598057615980615688565b7fffffffffffffffffffffffffffffffffffffffffffffffffffffffffffffffff83147f8000000000000000000000000000000000000000000000000000000000000000831416156159d4576159d4615211565b500590565b600060c082840312156159eb57600080fd5b60405160c0810181811067ffffffffffffffff82111715615a0e57615a0e614f44565b8060405250825181526020830151602082015260408301516040820152606083015160608201526080830151608082015260a083015160a0820152809150509291505056fea26469706673582212207980af79bcea319e326e3a88d58c162ea774feca4aa89d321e90abaa0b9c915664736f6c63430008150033",
  "devdoc": {
    "kind": "dev",
    "methods": {
      "estimateSwapIn(address,bool,uint256,uint256)": {
        "params": {
          "amountIn_": "The exact amount of input tokens to swap",
          "amountOutMin_": "The minimum amount of output tokens the user is willing to accept",
          "dex_": "Dex pool",
          "swap0to1_": "Direction of swap. If true, swaps token0 for token1; if false, swaps token1 for token0"
        },
        "returns": {
          "amountOut_": "The amount of output tokens received from the swap"
        }
      },
      "estimateSwapOut(address,bool,uint256,uint256)": {
        "params": {
          "amountInMax_": "Maximum amount of tokens to swap in",
          "amountOut_": "The exact amount of tokens to receive after swap",
          "dex_": "Dex pool",
          "swap0to1_": "Direction of swap. If true, swaps token0 for token1; if false, swaps token1 for token0"
        },
        "returns": {
          "amountIn_": "The amount of input tokens used for the swap"
        }
      },
      "getAllPoolAddresses()": {
        "returns": {
          "pools_": "An array containing all Pool addresses"
        }
      },
      "getAllPools()": {
        "returns": {
          "pools_": "An array containing all Pool data"
        }
      },
      "getAllPoolsReserves()": {
        "details": "expected to be called via callStatic",
        "returns": {
          "poolsReserves_": "An array containing all Pool data with reserves"
        }
      },
      "getAllPoolsReservesAdjusted()": {
        "details": "expected to be called via callStatic",
        "returns": {
          "poolsReserves_": "An array containing all Pool data with adjusted reserves scaled to 1e12"
        }
      },
      "getDexCollateralReserves(address)": {
        "details": "expected to be called via callStatic",
        "params": {
          "dex_": "The address of the DEX"
        },
        "returns": {
          "reserves_": "A struct containing collateral reserve information"
        }
      },
      "getDexCollateralReservesAdjusted(address)": {
        "details": "expected to be called via callStatic",
        "params": {
          "dex_": "The address of the DEX"
        },
        "returns": {
          "reserves_": "A struct containing collateral reserve information"
        }
      },
      "getDexDebtReserves(address)": {
        "details": "expected to be called via callStatic",
        "params": {
          "dex_": "The address of the DEX"
        },
        "returns": {
          "reserves_": "A struct containing debt reserve information"
        }
      },
      "getDexDebtReservesAdjusted(address)": {
        "details": "expected to be called via callStatic",
        "params": {
          "dex_": "The address of the DEX"
        },
        "returns": {
          "reserves_": "A struct containing debt reserve information"
        }
      },
      "getDexLimits(address)": {
        "params": {
          "dex_": "The address of the DEX"
        },
        "returns": {
          "limits_": "A struct containing the swap limits for the DEX"
        }
      },
      "getDexPricesAndExchangePrices(address)": {
        "details": "expected to be called via callStatic",
        "params": {
          "dex_": "The address of the DEX"
        },
        "returns": {
          "pex_": "A struct containing prices and exchange prices"
        }
      },
      "getPool(uint256)": {
        "params": {
          "poolId_": "The ID of the Pool"
        },
        "returns": {
          "pool_": "The Pool data"
        }
      },
      "getPoolAddress(uint256)": {
        "params": {
          "poolId_": "The ID of the Pool"
        },
        "returns": {
          "pool_": "The address of the Pool"
        }
      },
      "getPoolFee(address)": {
        "params": {
          "pool_": "The Pool address"
        },
        "returns": {
          "fee_": "The Pool fee as 1% = 10000"
        }
      },
      "getPoolReserves(address)": {
        "details": "expected to be called via callStatic",
        "params": {
          "pool_": "The Pool address"
        },
        "returns": {
          "poolReserves_": "The Pool data with reserves."
        }
      },
      "getPoolReservesAdjusted(address)": {
        "details": "expected to be called via callStatic",
        "params": {
          "pool_": "The Pool address"
        },
        "returns": {
          "poolReserves_": "The Pool data with adjusted reserves scaled to 1e12. balanceTokens are in token decimals."
        }
      },
      "getPoolTokens(address)": {
        "params": {
          "pool_": "The address of the Pool"
        },
        "returns": {
          "token0_": "The address of token0 in the Pool",
          "token1_": "The address of token1 in the Pool"
        }
      },
      "getPoolsReserves(address[])": {
        "details": "expected to be called via callStatic",
        "params": {
          "pools_": "The array of Pool addresses"
        },
        "returns": {
          "poolsReserves_": "An array containing all Pool data with reserves"
        }
      },
      "getPoolsReservesAdjusted(address[])": {
        "details": "expected to be called via callStatic",
        "params": {
          "pools_": "The array of Pool addresses"
        },
        "returns": {
          "poolsReserves_": "An array containing all Pool data with adjusted reserves scaled to 1e12"
        }
      },
      "getTotalPools()": {
        "returns": {
          "_0": "The total number of Pools"
        }
      }
    },
    "version": 1
  },
  "userdoc": {
    "kind": "user",
    "methods": {
      "estimateSwapIn(address,bool,uint256,uint256)": {
        "notice": "estimates swap IN tokens execution"
      },
      "estimateSwapOut(address,bool,uint256,uint256)": {
        "notice": "estimates swap OUT tokens execution"
      },
      "getAllPoolAddresses()": {
        "notice": "Get an array of all Pool addresses"
      },
      "getAllPools()": {
        "notice": "Get an array of all Pool addresses and their token addresses"
      },
      "getAllPoolsReserves()": {
        "notice": "Get an array of all Pool addresses, their token addresses, collateral reserves, and debt reserves"
      },
      "getAllPoolsReservesAdjusted()": {
        "notice": "Get an array of all Pool addresses, their token addresses, adjusted collateral reserves, and adjusted debt reserves"
      },
      "getDexCollateralReserves(address)": {
        "notice": "Get the collateral reserves for a DEX in token decimals amounts"
      },
      "getDexCollateralReservesAdjusted(address)": {
        "notice": "Get the collateral reserves for a DEX scaled to 1e12"
      },
      "getDexDebtReserves(address)": {
        "notice": "Get the debt reserves for a DEX in token decimals amounts"
      },
      "getDexDebtReservesAdjusted(address)": {
        "notice": "Get the debt reserves for a DEX scaled to 1e12"
      },
      "getDexLimits(address)": {
        "notice": "get the swap limits for a DEX"
      },
      "getDexPricesAndExchangePrices(address)": {
        "notice": "Get the prices and exchange prices for a DEX"
      },
      "getPool(uint256)": {
        "notice": "Get a Pool's address and its token addresses"
      },
      "getPoolAddress(uint256)": {
        "notice": "Get the address of a Pool given its ID"
      },
      "getPoolConstantsView(address)": {
        "notice": "returns all Pool constants"
      },
      "getPoolConstantsView2(address)": {
        "notice": "returns all Pool constants 2"
      },
      "getPoolFee(address)": {
        "notice": "Get a Pool's fee"
      },
      "getPoolReserves(address)": {
        "notice": "Get the token addresses, collateral reserves, and debt reserves for a given Pool address"
      },
      "getPoolReservesAdjusted(address)": {
        "notice": "Get the token addresses, adjusted collateral reserves, and adjusted debt reserves for a given Pool address"
      },
      "getPoolTokens(address)": {
        "notice": "Get the addresses of the tokens in a Pool"
      },
      "getPoolsReserves(address[])": {
        "notice": "Get an array of Pool addresses, their token addresses, collateral reserves, and debt reserves for a given array of Pool addresses"
      },
      "getPoolsReservesAdjusted(address[])": {
        "notice": "Get an array of Pool addresses, their token addresses, adjusted collateral reserves, and adjusted debt reserves for a given array of Pool addresses"
      },
      "getTotalPools()": {
        "notice": "Get the total number of Pools"
      }
    },
    "notice": "Fluid Dex Reserves resolver Implements various view-only methods to give easy access to Dex protocol reserves data.",
    "version": 1
  },
  "storageLayout": {
    "storage": [],
    "types": null
  }
}