{
  "address": "0xd86F76B2DCcb74090dF88F89a6A27407041DF425",
  "abi": [
    {
      "inputs": [
        {
          "internalType": "string",
          "name": "infoName_",
          "type": "string"
        },
        {
          "components": [
            {
              "internalType": "address",
              "name": "source",
              "type": "address"
            },
            {
              "internalType": "bool",
              "name": "invertRate",
              "type": "bool"
            },
            {
              "internalType": "uint256",
              "name": "multiplier",
              "type": "uint256"
            },
            {
              "internalType": "uint256",
              "name": "divisor",
              "type": "uint256"
            },
            {
              "internalType": "enum GenericOracleStructs.SourceType",
              "name": "sourceType",
              "type": "uint8"
            }
          ],
          "internalType": "struct GenericOracleStructs.OracleHopSource[]",
          "name": "sources_",
          "type": "tuple[]"
        }
      ],
      "stateMutability": "nonpayable",
      "type": "constructor"
    },
    {
      "inputs": [
        {
          "internalType": "uint256",
          "name": "errorId_",
          "type": "uint256"
        }
      ],
      "name": "FluidOracleError",
      "type": "error"
    },
    {
      "inputs": [],
      "name": "centerPrice",
      "outputs": [
        {
          "internalType": "uint256",
          "name": "price_",
          "type": "uint256"
        }
      ],
      "stateMutability": "view",
      "type": "function"
    },
    {
      "inputs": [],
      "name": "getExchangeRate",
      "outputs": [
        {
          "internalType": "uint256",
          "name": "exchangeRate_",
          "type": "uint256"
        }
      ],
      "stateMutability": "view",
      "type": "function"
    },
    {
      "inputs": [],
      "name": "getExchangeRateLiquidate",
      "outputs": [
        {
          "internalType": "uint256",
          "name": "exchangeRate_",
          "type": "uint256"
        }
      ],
      "stateMutability": "view",
      "type": "function"
    },
    {
      "inputs": [],
      "name": "getExchangeRateOperate",
      "outputs": [
        {
          "internalType": "uint256",
          "name": "exchangeRate_",
          "type": "uint256"
        }
      ],
      "stateMutability": "view",
      "type": "function"
    },
    {
      "inputs": [],
      "name": "getHopExchangeRates",
      "outputs": [
        {
          "internalType": "uint256",
          "name": "rateSource1Operate_",
          "type": "uint256"
        },
        {
          "internalType": "uint256",
          "name": "rateSource1Liquidate_",
          "type": "uint256"
        },
        {
          "internalType": "uint256",
          "name": "rateSource2Operate_",
          "type": "uint256"
        },
        {
          "internalType": "uint256",
          "name": "rateSource2Liquidate_",
          "type": "uint256"
        },
        {
          "internalType": "uint256",
          "name": "rateSource3Operate_",
          "type": "uint256"
        },
        {
          "internalType": "uint256",
          "name": "rateSource3Liquidate_",
          "type": "uint256"
        },
        {
          "internalType": "uint256",
          "name": "rateSource4Operate_",
          "type": "uint256"
        },
        {
          "internalType": "uint256",
          "name": "rateSource4Liquidate_",
          "type": "uint256"
        },
        {
          "internalType": "uint256",
          "name": "rateSource5Operate_",
          "type": "uint256"
        },
        {
          "internalType": "uint256",
          "name": "rateSource5Liquidate_",
          "type": "uint256"
        }
      ],
      "stateMutability": "view",
      "type": "function"
    },
    {
      "inputs": [],
      "name": "getOracleHopSources",
      "outputs": [
        {
          "components": [
            {
              "internalType": "address",
              "name": "source",
              "type": "address"
            },
            {
              "internalType": "bool",
              "name": "invertRate",
              "type": "bool"
            },
            {
              "internalType": "uint256",
              "name": "multiplier",
              "type": "uint256"
            },
            {
              "internalType": "uint256",
              "name": "divisor",
              "type": "uint256"
            },
            {
              "internalType": "enum GenericOracleStructs.SourceType",
              "name": "sourceType",
              "type": "uint8"
            }
          ],
          "internalType": "struct GenericOracleStructs.OracleHopSource[]",
          "name": "sources_",
          "type": "tuple[]"
        }
      ],
      "stateMutability": "view",
      "type": "function"
    },
    {
      "inputs": [],
      "name": "infoName",
      "outputs": [
        {
          "internalType": "string",
          "name": "",
          "type": "string"
        }
      ],
      "stateMutability": "view",
      "type": "function"
    },
    {
      "inputs": [],
      "name": "targetDecimals",
      "outputs": [
        {
          "internalType": "uint8",
          "name": "",
          "type": "uint8"
        }
      ],
      "stateMutability": "pure",
      "type": "function"
    }
  ],
  "transactionHash": "0x1201e982414a6cd330e0b4e31755562ee1e4d745abd34576539c292617d59e62",
  "args": [
    [
      "POL for 1 MATICX",
      [
        {
          "sourceType": 2,
          "source": "0x5d37E4b374E6907de8Fc7fb33EE3b0af403C7403",
          "invertRate": false,
          "multiplier": "1000000000",
          "divisor": 1
        },
        {
          "sourceType": 2,
          "source": "0xAB594600376Ec9fD91F8e885dADF0CE036862dE0",
          "invertRate": true,
          "multiplier": "1000000000",
          "divisor": 1
        }
      ]
    ]
  ],
  "numDeployments": 1,
  "linkedData": {
    "nonce": "50"
  },
  "bytecode": "0x6103c06040523480156200001257600080fd5b506040516200313e3803806200313e8339810160408190526200003591620008b3565b80826020815111806200004757508051155b156200006f5760405163c82fc46560e01b815261ea6a60048201526024015b60405180910390fd5b602001516080528051158062000086575060058151115b15620000aa5760405163c82fc46560e01b815261ebf1600482015260240162000066565b620000d881600081518110620000c457620000c46200098f565b60200260200101516200068960201b60201c565b80600081518110620000ee57620000ee6200098f565b6020908102919091010151516001600160a01b031660a052805181906000906200011c576200011c6200098f565b602002602001015160200151151560c081151581525050806000815181106200014957620001496200098f565b60200260200101516040015160e08181525050806000815181106200017257620001726200098f565b6020026020010151606001516101008181525050806000815181106200019c576200019c6200098f565b6020026020010151608001516003811115620001bc57620001bc620009a5565b610120816003811115620001d457620001d4620009a5565b815250506001815111156200030257620001fd81600181518110620000c457620000c46200098f565b806001815181106200021357620002136200098f565b6020908102919091010151516001600160a01b0316610140528051819060019081106200024457620002446200098f565b602002602001015160200151151561016081151581525050806001815181106200027257620002726200098f565b6020026020010151604001516101808181525050806001815181106200029c576200029c6200098f565b6020026020010151606001516101a0818152505080600181518110620002c657620002c66200098f565b6020026020010151608001516003811115620002e657620002e6620009a5565b6101c0816003811115620002fe57620002fe620009a5565b9052505b6002815111156200042c576200032781600281518110620000c457620000c46200098f565b806002815181106200033d576200033d6200098f565b6020908102919091010151516001600160a01b03166101e0528051819060029081106200036e576200036e6200098f565b602002602001015160200151151561020081151581525050806002815181106200039c576200039c6200098f565b602002602001015160400151610220818152505080600281518110620003c657620003c66200098f565b602002602001015160600151610240818152505080600281518110620003f057620003f06200098f565b6020026020010151608001516003811115620004105762000410620009a5565b610260816003811115620004285762000428620009a5565b9052505b60038151111562000556576200045181600381518110620000c457620000c46200098f565b806003815181106200046757620004676200098f565b6020908102919091010151516001600160a01b0316610280528051819060039081106200049857620004986200098f565b60200260200101516020015115156102a08115158152505080600381518110620004c657620004c66200098f565b6020026020010151604001516102c0818152505080600381518110620004f057620004f06200098f565b6020026020010151606001516102e08181525050806003815181106200051a576200051a6200098f565b60200260200101516080015160038111156200053a576200053a620009a5565b610300816003811115620005525762000552620009a5565b9052505b60048151111562000680576200057b81600481518110620000c457620000c46200098f565b806004815181106200059157620005916200098f565b6020908102919091010151516001600160a01b031661032052805181906004908110620005c257620005c26200098f565b60200260200101516020015115156103408115158152505080600481518110620005f057620005f06200098f565b6020026020010151604001516103608181525050806004815181106200061a576200061a6200098f565b6020026020010151606001516103808181525050806004815181106200064457620006446200098f565b6020026020010151608001516003811115620006645762000664620009a5565b6103a08160038111156200067c576200067c620009a5565b9052505b505050620009bb565b80516001600160a01b03161580620006b95750600381608001516003811115620006b757620006b7620009a5565b145b80620006c757506060810151155b80620006d557506040810151155b80620006f55750701d6329f1c35ca4bfabb9f56100000000008160600151115b80620007155750701d6329f1c35ca4bfabb9f56100000000008160400151115b15620007395760405163c82fc46560e01b815261ebf1600482015260240162000066565b50565b634e487b7160e01b600052604160045260246000fd5b60405160a081016001600160401b03811182821017156200077757620007776200073c565b60405290565b604051601f8201601f191681016001600160401b0381118282101715620007a857620007a86200073c565b604052919050565b600082601f830112620007c257600080fd5b815160206001600160401b03821115620007e057620007e06200073c565b620007f0818360051b016200077d565b82815260a092830285018201928282019190878511156200081057600080fd5b8387015b85811015620008a65781818a0312156200082e5760008081fd5b6200083862000752565b81516001600160a01b0381168114620008515760008081fd5b8152818601518015158114620008675760008081fd5b81870152604082810151908201526060808301519082015260808083015160048110620008945760008081fd5b90820152845292840192810162000814565b5090979650505050505050565b60008060408385031215620008c757600080fd5b82516001600160401b0380821115620008df57600080fd5b818501915085601f830112620008f457600080fd5b8151818111156200090957620009096200073c565b60206200091f601f8301601f191682016200077d565b82815288828487010111156200093457600080fd5b60005b838110156200095457858101830151828201840152820162000937565b5060009281018201929092528601519094509150808211156200097657600080fd5b506200098585828601620007b0565b9150509250929050565b634e487b7160e01b600052603260045260246000fd5b634e487b7160e01b600052602160045260246000fd5b60805160a05160c05160e05161010051610120516101405161016051610180516101a0516101c0516101e05161020051610220516102405161026051610280516102a0516102c0516102e05161030051610320516103405161036051610380516103a0516123d362000d6b6000396000818161069d015281816110c1015281816111c6015281816112c6015281816119aa0152611aa9015260008181610677015281816111a0015281816112a00152611a830152600081816106510152818161117a0152818161127a0152611a5d01526000818161062901528181611152015281816112520152611a350152600081816105ed0152818161108001528181611116015281816112160152818161196901526119f901526000818161058f01528181610e4601528181610f4b0152818161104b015281816117f801526118f701526000818161056901528181610f250152818161102501526118d101526000818161054301528181610eff01528181610fff01526118ab01526000818161051b01528181610ed701528181610fd701526118830152600081816104df01528181610e0501528181610e9b01528181610f9b015281816117b7015261184701526000818161048101528181610bcb01528181610cd001528181610dd001528181611646015261174501526000818161045b01528181610caa01528181610daa015261171f01526000818161043501528181610c8401528181610d8401526116f901526000818161040d01528181610c5c01528181610d5c01526116d10152600081816103d101528181610b8a01528181610c2001528181610d200152818161160501526116950152600081816103730152818161095001528181610a5501528181610b5501528181611494015261159301526000818161034d01528181610a2f01528181610b2f015261156d01526000818161032701528181610a0901528181610b0901526115470152600081816102ff015281816109e101528181610ae1015261151f0152600081816102c30152818161090f015281816109a501528181610aa50152818161145301526114e3015260008181610265015281816107d4015281816108db01526113dc01526000818161023f015281816107ae015281816108b501526113b6015260008181610219015281816107880152818161088f01526113900152600081816101f1015281816107600152818161086701526113680152600081816101b5015281816107240152818161082b015261132c015260008181611b300152611bf501526123d36000f3fe608060405234801561001057600080fd5b50600436106100885760003560e01c8063d643a8cf1161005b578063d643a8cf146100e1578063e6aa216c14610133578063f3190c8914610133578063f763f7a6146100a157600080fd5b806336c1387e1461008d5780638e7bfbc0146100a157806394f253ef146100b7578063abd5f95d146100cc575b600080fd5b604051601b81526020015b60405180910390f35b6100a9610140565b604051908152602001610098565b6100bf61014c565b6040516100989190611fad565b6100d46106f1565b604051610098919061206b565b6100e96106fb565b604080519a8b5260208b0199909952978901969096526060880194909452608087019290925260a086015260c085015260e084015261010083015261012082015261014001610098565b6100a9611305565b905090565b600061013b600161130d565b60408051600580825260c08201909252606091816020015b6101936040805160a0810182526000808252602082018190529181018290526060810182905290608082015290565b8152602001906001900390816101645790505090506040518060a001604052807f000000000000000000000000000000000000000000000000000000000000000073ffffffffffffffffffffffffffffffffffffffff1681526020017f0000000000000000000000000000000000000000000000000000000000000000151581526020017f000000000000000000000000000000000000000000000000000000000000000081526020017f000000000000000000000000000000000000000000000000000000000000000081526020017f0000000000000000000000000000000000000000000000000000000000000000600381111561029557610295611f7e565b815250816000815181106102ab576102ab612106565b60200260200101819052506040518060a001604052807f000000000000000000000000000000000000000000000000000000000000000073ffffffffffffffffffffffffffffffffffffffff1681526020017f0000000000000000000000000000000000000000000000000000000000000000151581526020017f000000000000000000000000000000000000000000000000000000000000000081526020017f000000000000000000000000000000000000000000000000000000000000000081526020017f000000000000000000000000000000000000000000000000000000000000000060038111156103a3576103a3611f7e565b815250816001815181106103b9576103b9612106565b60200260200101819052506040518060a001604052807f000000000000000000000000000000000000000000000000000000000000000073ffffffffffffffffffffffffffffffffffffffff1681526020017f0000000000000000000000000000000000000000000000000000000000000000151581526020017f000000000000000000000000000000000000000000000000000000000000000081526020017f000000000000000000000000000000000000000000000000000000000000000081526020017f000000000000000000000000000000000000000000000000000000000000000060038111156104b1576104b1611f7e565b815250816002815181106104c7576104c7612106565b60200260200101819052506040518060a001604052807f000000000000000000000000000000000000000000000000000000000000000073ffffffffffffffffffffffffffffffffffffffff1681526020017f0000000000000000000000000000000000000000000000000000000000000000151581526020017f000000000000000000000000000000000000000000000000000000000000000081526020017f000000000000000000000000000000000000000000000000000000000000000081526020017f000000000000000000000000000000000000000000000000000000000000000060038111156105bf576105bf611f7e565b815250816003815181106105d5576105d5612106565b60200260200101819052506040518060a001604052807f000000000000000000000000000000000000000000000000000000000000000073ffffffffffffffffffffffffffffffffffffffff1681526020017f0000000000000000000000000000000000000000000000000000000000000000151581526020017f000000000000000000000000000000000000000000000000000000000000000081526020017f000000000000000000000000000000000000000000000000000000000000000081526020017f000000000000000000000000000000000000000000000000000000000000000060038111156106cd576106cd611f7e565b815250816004815181106106e3576106e3612106565b602002602001018190525090565b606061013b611b1e565b600080808080808080808061080b610715601b600a612284565b60016040518060a001604052807f000000000000000000000000000000000000000000000000000000000000000073ffffffffffffffffffffffffffffffffffffffff1681526020017f0000000000000000000000000000000000000000000000000000000000000000151581526020017f000000000000000000000000000000000000000000000000000000000000000081526020017f000000000000000000000000000000000000000000000000000000000000000081526020017f0000000000000000000000000000000000000000000000000000000000000000600381111561080457610804611f7e565b9052611c83565b995061090b61081c601b600a612284565b60006040518060a001604052807f000000000000000000000000000000000000000000000000000000000000000073ffffffffffffffffffffffffffffffffffffffff1681526020017f0000000000000000000000000000000000000000000000000000000000000000151581526020017f000000000000000000000000000000000000000000000000000000000000000081526020017f000000000000000000000000000000000000000000000000000000000000000081526020017f0000000000000000000000000000000000000000000000000000000000000000600381111561080457610804611f7e565b98507f000000000000000000000000000000000000000000000000000000000000000073ffffffffffffffffffffffffffffffffffffffff16151580610982575060037f0000000000000000000000000000000000000000000000000000000000000000600381111561098057610980611f7e565b145b15610b8857610a85610996601b600a612284565b60016040518060a001604052807f000000000000000000000000000000000000000000000000000000000000000073ffffffffffffffffffffffffffffffffffffffff1681526020017f0000000000000000000000000000000000000000000000000000000000000000151581526020017f000000000000000000000000000000000000000000000000000000000000000081526020017f000000000000000000000000000000000000000000000000000000000000000081526020017f0000000000000000000000000000000000000000000000000000000000000000600381111561080457610804611f7e565b9750610b85610a96601b600a612284565b60006040518060a001604052807f000000000000000000000000000000000000000000000000000000000000000073ffffffffffffffffffffffffffffffffffffffff1681526020017f0000000000000000000000000000000000000000000000000000000000000000151581526020017f000000000000000000000000000000000000000000000000000000000000000081526020017f000000000000000000000000000000000000000000000000000000000000000081526020017f0000000000000000000000000000000000000000000000000000000000000000600381111561080457610804611f7e565b96505b7f000000000000000000000000000000000000000000000000000000000000000073ffffffffffffffffffffffffffffffffffffffff16151580610bfd575060037f00000000000000000000000000000000000000000000000000000000000000006003811115610bfb57610bfb611f7e565b145b15610e0357610d00610c11601b600a612284565b60016040518060a001604052807f000000000000000000000000000000000000000000000000000000000000000073ffffffffffffffffffffffffffffffffffffffff1681526020017f0000000000000000000000000000000000000000000000000000000000000000151581526020017f000000000000000000000000000000000000000000000000000000000000000081526020017f000000000000000000000000000000000000000000000000000000000000000081526020017f0000000000000000000000000000000000000000000000000000000000000000600381111561080457610804611f7e565b9550610e00610d11601b600a612284565b60006040518060a001604052807f000000000000000000000000000000000000000000000000000000000000000073ffffffffffffffffffffffffffffffffffffffff1681526020017f0000000000000000000000000000000000000000000000000000000000000000151581526020017f000000000000000000000000000000000000000000000000000000000000000081526020017f000000000000000000000000000000000000000000000000000000000000000081526020017f0000000000000000000000000000000000000000000000000000000000000000600381111561080457610804611f7e565b94505b7f000000000000000000000000000000000000000000000000000000000000000073ffffffffffffffffffffffffffffffffffffffff16151580610e78575060037f00000000000000000000000000000000000000000000000000000000000000006003811115610e7657610e76611f7e565b145b1561107e57610f7b610e8c601b600a612284565b60016040518060a001604052807f000000000000000000000000000000000000000000000000000000000000000073ffffffffffffffffffffffffffffffffffffffff1681526020017f0000000000000000000000000000000000000000000000000000000000000000151581526020017f000000000000000000000000000000000000000000000000000000000000000081526020017f000000000000000000000000000000000000000000000000000000000000000081526020017f0000000000000000000000000000000000000000000000000000000000000000600381111561080457610804611f7e565b935061107b610f8c601b600a612284565b60006040518060a001604052807f000000000000000000000000000000000000000000000000000000000000000073ffffffffffffffffffffffffffffffffffffffff1681526020017f0000000000000000000000000000000000000000000000000000000000000000151581526020017f000000000000000000000000000000000000000000000000000000000000000081526020017f000000000000000000000000000000000000000000000000000000000000000081526020017f0000000000000000000000000000000000000000000000000000000000000000600381111561080457610804611f7e565b92505b7f000000000000000000000000000000000000000000000000000000000000000073ffffffffffffffffffffffffffffffffffffffff161515806110f3575060037f000000000000000000000000000000000000000000000000000000000000000060038111156110f1576110f1611f7e565b145b156112f9576111f6611107601b600a612284565b60016040518060a001604052807f000000000000000000000000000000000000000000000000000000000000000073ffffffffffffffffffffffffffffffffffffffff1681526020017f0000000000000000000000000000000000000000000000000000000000000000151581526020017f000000000000000000000000000000000000000000000000000000000000000081526020017f000000000000000000000000000000000000000000000000000000000000000081526020017f0000000000000000000000000000000000000000000000000000000000000000600381111561080457610804611f7e565b91506112f6611207601b600a612284565b60006040518060a001604052807f000000000000000000000000000000000000000000000000000000000000000073ffffffffffffffffffffffffffffffffffffffff1681526020017f0000000000000000000000000000000000000000000000000000000000000000151581526020017f000000000000000000000000000000000000000000000000000000000000000081526020017f000000000000000000000000000000000000000000000000000000000000000081526020017f0000000000000000000000000000000000000000000000000000000000000000600381111561080457610804611f7e565b90505b90919293949596979899565b600061013b60005b600061140c61131e601b600a612284565b836040518060a001604052807f000000000000000000000000000000000000000000000000000000000000000073ffffffffffffffffffffffffffffffffffffffff1681526020017f0000000000000000000000000000000000000000000000000000000000000000151581526020017f000000000000000000000000000000000000000000000000000000000000000081526020017f000000000000000000000000000000000000000000000000000000000000000081526020017f0000000000000000000000000000000000000000000000000000000000000000600381111561080457610804611f7e565b905080600003611451576040517fc82fc46500000000000000000000000000000000000000000000000000000000815261ebf360048201526024015b60405180910390fd5b7f000000000000000000000000000000000000000000000000000000000000000073ffffffffffffffffffffffffffffffffffffffff161580156114c7575060037f000000000000000000000000000000000000000000000000000000000000000060038111156114c4576114c4611f7e565b14155b156114d157919050565b6115c381836040518060a001604052807f000000000000000000000000000000000000000000000000000000000000000073ffffffffffffffffffffffffffffffffffffffff1681526020017f0000000000000000000000000000000000000000000000000000000000000000151581526020017f000000000000000000000000000000000000000000000000000000000000000081526020017f000000000000000000000000000000000000000000000000000000000000000081526020017f0000000000000000000000000000000000000000000000000000000000000000600381111561080457610804611f7e565b905080600003611603576040517fc82fc46500000000000000000000000000000000000000000000000000000000815261ebf36004820152602401611448565b7f000000000000000000000000000000000000000000000000000000000000000073ffffffffffffffffffffffffffffffffffffffff16158015611679575060037f0000000000000000000000000000000000000000000000000000000000000000600381111561167657611676611f7e565b14155b1561168357919050565b61177581836040518060a001604052807f000000000000000000000000000000000000000000000000000000000000000073ffffffffffffffffffffffffffffffffffffffff1681526020017f0000000000000000000000000000000000000000000000000000000000000000151581526020017f000000000000000000000000000000000000000000000000000000000000000081526020017f000000000000000000000000000000000000000000000000000000000000000081526020017f0000000000000000000000000000000000000000000000000000000000000000600381111561080457610804611f7e565b9050806000036117b5576040517fc82fc46500000000000000000000000000000000000000000000000000000000815261ebf36004820152602401611448565b7f000000000000000000000000000000000000000000000000000000000000000073ffffffffffffffffffffffffffffffffffffffff1615801561182b575060037f0000000000000000000000000000000000000000000000000000000000000000600381111561182857611828611f7e565b14155b1561183557919050565b61192781836040518060a001604052807f000000000000000000000000000000000000000000000000000000000000000073ffffffffffffffffffffffffffffffffffffffff1681526020017f0000000000000000000000000000000000000000000000000000000000000000151581526020017f000000000000000000000000000000000000000000000000000000000000000081526020017f000000000000000000000000000000000000000000000000000000000000000081526020017f0000000000000000000000000000000000000000000000000000000000000000600381111561080457610804611f7e565b905080600003611967576040517fc82fc46500000000000000000000000000000000000000000000000000000000815261ebf36004820152602401611448565b7f000000000000000000000000000000000000000000000000000000000000000073ffffffffffffffffffffffffffffffffffffffff161580156119dd575060037f000000000000000000000000000000000000000000000000000000000000000060038111156119da576119da611f7e565b14155b156119e757919050565b611ad981836040518060a001604052807f000000000000000000000000000000000000000000000000000000000000000073ffffffffffffffffffffffffffffffffffffffff1681526020017f0000000000000000000000000000000000000000000000000000000000000000151581526020017f000000000000000000000000000000000000000000000000000000000000000081526020017f000000000000000000000000000000000000000000000000000000000000000081526020017f0000000000000000000000000000000000000000000000000000000000000000600381111561080457610804611f7e565b905080600003611b19576040517fc82fc46500000000000000000000000000000000000000000000000000000000815261ebf36004820152602401611448565b919050565b606060005b602081108015611b8957507f00000000000000000000000000000000000000000000000000000000000000008160208110611b6057611b60612106565b1a60f81b7fff000000000000000000000000000000000000000000000000000000000000001615155b15611ba05780611b9881612290565b915050611b23565b60008167ffffffffffffffff811115611bbb57611bbb6120d7565b6040519080825280601f01601f191660200182016040528015611be5576020820181803683370190505b50905060005b82811015611c7c577f00000000000000000000000000000000000000000000000000000000000000008160208110611c2557611c25612106565b1a60f81b828281518110611c3b57611c3b612106565b60200101907effffffffffffffffffffffffffffffffffffffffffffffffffffffffffffff1916908160001a90535080611c7481612290565b915050611beb565b5092915050565b6000611c988260000151836080015185611d1e565b90508160600151826040015182611caf91906122c8565b611cb991906122df565b905081602001518015611ccc5750600081115b15611cf65780611cde601b60026122c8565b611ce990600a612284565b611cf391906122df565b90505b611d02601b600a612284565b611d0c82866122c8565b611d1691906122df565b949350505050565b60006001836003811115611d3457611d34611f7e565b1480611d5157506002836003811115611d4f57611d4f611f7e565b145b15611d6657611d5f84611dc6565b9050611dbf565b6000836003811115611d7a57611d7a611f7e565b03611d8957611d5f8483611e5d565b6040517fc82fc46500000000000000000000000000000000000000000000000000000000815261ebf26004820152602401611448565b9392505050565b60008173ffffffffffffffffffffffffffffffffffffffff1663feaf968c6040518163ffffffff1660e01b815260040160a060405180830381865afa925050508015611e4d575060408051601f3d9081017fffffffffffffffffffffffffffffffffffffffffffffffffffffffffffffffe0168201909252611e4a91810190612334565b60015b15611b1957509195945050505050565b60008115611ef6578273ffffffffffffffffffffffffffffffffffffffff16638e7bfbc06040518163ffffffff1660e01b8152600401602060405180830381865afa925050508015611eea575060408051601f3d9081017fffffffffffffffffffffffffffffffffffffffffffffffffffffffffffffffe0168201909252611ee791810190612384565b60015b15611f78579050611f78565b8273ffffffffffffffffffffffffffffffffffffffff1663f3190c896040518163ffffffff1660e01b8152600401602060405180830381865afa925050508015611eea575060408051601f3d9081017fffffffffffffffffffffffffffffffffffffffffffffffffffffffffffffffe0168201909252611ee791810190612384565b92915050565b7f4e487b7100000000000000000000000000000000000000000000000000000000600052602160045260246000fd5b60208082528251828201819052600091906040908185019086840185805b8381101561205d578251805173ffffffffffffffffffffffffffffffffffffffff16865287810151151588870152868101518787015260608082015190870152608090810151906004808310612047577f4e487b7100000000000000000000000000000000000000000000000000000000855260218152602485fd5b5086015260a09094019391860191600101611fcb565b509298975050505050505050565b600060208083528351808285015260005b818110156120985785810183015185820160400152820161207c565b5060006040828601015260407fffffffffffffffffffffffffffffffffffffffffffffffffffffffffffffffe0601f8301168501019250505092915050565b7f4e487b7100000000000000000000000000000000000000000000000000000000600052604160045260246000fd5b7f4e487b7100000000000000000000000000000000000000000000000000000000600052603260045260246000fd5b7f4e487b7100000000000000000000000000000000000000000000000000000000600052601160045260246000fd5b600181815b808511156121bd57817fffffffffffffffffffffffffffffffffffffffffffffffffffffffffffffffff048211156121a3576121a3612135565b808516156121b057918102915b93841c9390800290612169565b509250929050565b6000826121d457506001611f78565b816121e157506000611f78565b81600181146121f757600281146122015761221d565b6001915050611f78565b60ff84111561221257612212612135565b50506001821b611f78565b5060208310610133831016604e8410600b8410161715612240575081810a611f78565b61224a8383612164565b807fffffffffffffffffffffffffffffffffffffffffffffffffffffffffffffffff0482111561227c5761227c612135565b029392505050565b6000611dbf83836121c5565b60007fffffffffffffffffffffffffffffffffffffffffffffffffffffffffffffffff82036122c1576122c1612135565b5060010190565b8082028115828204841417611f7857611f78612135565b600082612315577f4e487b7100000000000000000000000000000000000000000000000000000000600052601260045260246000fd5b500490565b805169ffffffffffffffffffff81168114611b1957600080fd5b600080600080600060a0868803121561234c57600080fd5b6123558661231a565b94506020860151935060408601519250606086015191506123786080870161231a565b90509295509295909350565b60006020828403121561239657600080fd5b505191905056fea26469706673582212203faafc9d90d8e7f551686987a03a1ae7f67aac9e749af1743be1f37345e6f01964736f6c63430008150033"
}