{
  "address": "0xFF35A112d2239EfFA2444521f19B189db7ba021c",
  "abi": [
    {
      "inputs": [
        {
          "internalType": "uint256",
          "name": "errorId_",
          "type": "uint256"
        }
      ],
      "name": "FluidConfigError",
      "type": "error"
    },
    {
      "anonymous": false,
      "inputs": [
        {
          "indexed": false,
          "internalType": "address",
          "name": "dex",
          "type": "address"
        },
        {
          "indexed": false,
          "internalType": "uint256",
          "name": "maxBorrowShares",
          "type": "uint256"
        }
      ],
      "name": "LogSetMaxBorrowShares",
      "type": "event"
    },
    {
      "anonymous": false,
      "inputs": [
        {
          "indexed": false,
          "internalType": "address",
          "name": "dex",
          "type": "address"
        },
        {
          "indexed": false,
          "internalType": "uint256",
          "name": "maxSupplyShares",
          "type": "uint256"
        }
      ],
      "name": "LogSetMaxSupplyShares",
      "type": "event"
    },
    {
      "anonymous": false,
      "inputs": [
        {
          "indexed": false,
          "internalType": "address",
          "name": "dex",
          "type": "address"
        },
        {
          "indexed": false,
          "internalType": "address",
          "name": "user",
          "type": "address"
        },
        {
          "indexed": false,
          "internalType": "uint256",
          "name": "baseLimit",
          "type": "uint256"
        },
        {
          "indexed": false,
          "internalType": "uint256",
          "name": "maxLimit",
          "type": "uint256"
        }
      ],
      "name": "LogSetUserBorrowLimits",
      "type": "event"
    },
    {
      "anonymous": false,
      "inputs": [
        {
          "indexed": false,
          "internalType": "address",
          "name": "dex",
          "type": "address"
        },
        {
          "indexed": false,
          "internalType": "address",
          "name": "user",
          "type": "address"
        },
        {
          "indexed": false,
          "internalType": "uint256",
          "name": "baseLimit",
          "type": "uint256"
        }
      ],
      "name": "LogSetUserWithdrawLimit",
      "type": "event"
    },
    {
      "anonymous": false,
      "inputs": [
        {
          "indexed": false,
          "internalType": "address",
          "name": "dex",
          "type": "address"
        },
        {
          "indexed": false,
          "internalType": "address",
          "name": "user",
          "type": "address"
        },
        {
          "indexed": false,
          "internalType": "uint256",
          "name": "newLimit",
          "type": "uint256"
        }
      ],
      "name": "LogSetWithdrawalLimit",
      "type": "event"
    },
    {
      "inputs": [],
      "name": "TEAM_MULTISIG",
      "outputs": [
        {
          "internalType": "address",
          "name": "",
          "type": "address"
        }
      ],
      "stateMutability": "view",
      "type": "function"
    },
    {
      "inputs": [],
      "name": "TEAM_MULTISIG2",
      "outputs": [
        {
          "internalType": "address",
          "name": "",
          "type": "address"
        }
      ],
      "stateMutability": "view",
      "type": "function"
    },
    {
      "inputs": [
        {
          "internalType": "address",
          "name": "dex_",
          "type": "address"
        }
      ],
      "name": "getMaxBorrowShares",
      "outputs": [
        {
          "internalType": "uint256",
          "name": "",
          "type": "uint256"
        }
      ],
      "stateMutability": "view",
      "type": "function"
    },
    {
      "inputs": [
        {
          "internalType": "address",
          "name": "dex_",
          "type": "address"
        }
      ],
      "name": "getMaxSupplyShares",
      "outputs": [
        {
          "internalType": "uint256",
          "name": "",
          "type": "uint256"
        }
      ],
      "stateMutability": "view",
      "type": "function"
    },
    {
      "inputs": [
        {
          "internalType": "address",
          "name": "dex_",
          "type": "address"
        },
        {
          "internalType": "address",
          "name": "user_",
          "type": "address"
        }
      ],
      "name": "getUserBorrowConfig",
      "outputs": [
        {
          "components": [
            {
              "internalType": "address",
              "name": "user",
              "type": "address"
            },
            {
              "internalType": "uint256",
              "name": "expandPercent",
              "type": "uint256"
            },
            {
              "internalType": "uint256",
              "name": "expandDuration",
              "type": "uint256"
            },
            {
              "internalType": "uint256",
              "name": "baseDebtCeiling",
              "type": "uint256"
            },
            {
              "internalType": "uint256",
              "name": "maxDebtCeiling",
              "type": "uint256"
            }
          ],
          "internalType": "struct Structs.UserBorrowConfig",
          "name": "userBorrowConfigs_",
          "type": "tuple"
        }
      ],
      "stateMutability": "view",
      "type": "function"
    },
    {
      "inputs": [
        {
          "internalType": "address",
          "name": "dex_",
          "type": "address"
        },
        {
          "internalType": "address",
          "name": "user_",
          "type": "address"
        }
      ],
      "name": "getUserSupplyConfig",
      "outputs": [
        {
          "components": [
            {
              "internalType": "address",
              "name": "user",
              "type": "address"
            },
            {
              "internalType": "uint256",
              "name": "expandPercent",
              "type": "uint256"
            },
            {
              "internalType": "uint256",
              "name": "expandDuration",
              "type": "uint256"
            },
            {
              "internalType": "uint256",
              "name": "baseWithdrawalLimit",
              "type": "uint256"
            }
          ],
          "internalType": "struct Structs.UserSupplyConfig",
          "name": "userSupplyConfigs_",
          "type": "tuple"
        }
      ],
      "stateMutability": "view",
      "type": "function"
    },
    {
      "inputs": [
        {
          "internalType": "address",
          "name": "",
          "type": "address"
        },
        {
          "internalType": "address",
          "name": "",
          "type": "address"
        }
      ],
      "name": "lastUpdateTime",
      "outputs": [
        {
          "internalType": "uint256",
          "name": "",
          "type": "uint256"
        }
      ],
      "stateMutability": "view",
      "type": "function"
    },
    {
      "inputs": [
        {
          "internalType": "address",
          "name": "dex_",
          "type": "address"
        },
        {
          "internalType": "uint256",
          "name": "maxBorrowShares_",
          "type": "uint256"
        },
        {
          "internalType": "bool",
          "name": "confirmLiquidityLimitsCoverCap_",
          "type": "bool"
        }
      ],
      "name": "setMaxBorrowShares",
      "outputs": [],
      "stateMutability": "nonpayable",
      "type": "function"
    },
    {
      "inputs": [
        {
          "internalType": "address",
          "name": "dex_",
          "type": "address"
        },
        {
          "internalType": "uint256",
          "name": "maxSupplyShares_",
          "type": "uint256"
        },
        {
          "internalType": "uint256",
          "name": "maxBorrowShares_",
          "type": "uint256"
        },
        {
          "internalType": "bool",
          "name": "confirmLiquidityLimitsCoverCap_",
          "type": "bool"
        }
      ],
      "name": "setMaxShares",
      "outputs": [],
      "stateMutability": "nonpayable",
      "type": "function"
    },
    {
      "inputs": [
        {
          "internalType": "address",
          "name": "dex_",
          "type": "address"
        },
        {
          "internalType": "uint256",
          "name": "maxSupplyShares_",
          "type": "uint256"
        },
        {
          "internalType": "bool",
          "name": "confirmLiquidityLimitsCoverCap_",
          "type": "bool"
        }
      ],
      "name": "setMaxSupplyShares",
      "outputs": [],
      "stateMutability": "nonpayable",
      "type": "function"
    },
    {
      "inputs": [
        {
          "internalType": "address",
          "name": "dex_",
          "type": "address"
        },
        {
          "internalType": "address",
          "name": "user_",
          "type": "address"
        },
        {
          "internalType": "uint256",
          "name": "baseLimit_",
          "type": "uint256"
        },
        {
          "internalType": "uint256",
          "name": "maxLimit_",
          "type": "uint256"
        }
      ],
      "name": "setUserBorrowLimits",
      "outputs": [],
      "stateMutability": "nonpayable",
      "type": "function"
    },
    {
      "inputs": [
        {
          "internalType": "address",
          "name": "dex_",
          "type": "address"
        },
        {
          "internalType": "address",
          "name": "user_",
          "type": "address"
        },
        {
          "internalType": "uint256",
          "name": "baseLimit_",
          "type": "uint256"
        },
        {
          "internalType": "bool",
          "name": "skipMaxPercentChangeCheck_",
          "type": "bool"
        }
      ],
      "name": "setUserWithdrawLimit",
      "outputs": [],
      "stateMutability": "nonpayable",
      "type": "function"
    },
    {
      "inputs": [
        {
          "internalType": "address",
          "name": "dex_",
          "type": "address"
        },
        {
          "internalType": "address",
          "name": "user_",
          "type": "address"
        },
        {
          "internalType": "uint256",
          "name": "newLimit_",
          "type": "uint256"
        }
      ],
      "name": "setWithdrawalLimit",
      "outputs": [],
      "stateMutability": "nonpayable",
      "type": "function"
    }
  ],
  "transactionHash": "0x2ba1c100ecfe4679f549d5c59c3fb2f060b283f26e59c483893d6fa9e4d41850",
  "args": [],
  "numDeployments": 1,
  "solcInputHash": "5228629dba1e4b693c7dacd40c0694f4",
  "bytecode": "0x608060405234801561001057600080fd5b50611849806100206000396000f3fe608060405234801561001057600080fd5b50600436106100df5760003560e01c80637a67b1e11161008c57806395ae47e11161006657806395ae47e1146101d7578063b788f3a114610217578063e09a963714610232578063f717eb5f1461024557600080fd5b80637a67b1e11461019e5780637aa4e255146101b15780637fa9d564146101c457600080fd5b806335b0b502116100bd57806335b0b50214610158578063360bec8f1461016b57806379e0b09c1461018b57600080fd5b806325fca0ad146100e457806325fe581d1461010d5780632f88b48d14610122575b600080fd5b6100f76100f23660046113f8565b610258565b604051610104919061142b565b60405180910390f35b61012061011b36600461147c565b610394565b005b61014a6101303660046113f8565b600060208181529281526040808220909352908152205481565b604051908152602001610104565b6101206101663660046114c2565b610431565b61017e6101793660046113f8565b61058c565b60405161010491906114fe565b61012061019936600461154d565b6106df565b61014a6101ac366004611589565b61076c565b6101206101bf3660046115ab565b61080a565b6101206101d236600461154d565b610c1c565b6101f2731e2e1aed876f67fe4fd54090fd7b8f57ce23421981565b60405173ffffffffffffffffffffffffffffffffffffffff9091168152602001610104565b6101f2734f6f977acdd1177dcd81ab83074855ecb9c2d49e81565b6101206102403660046115ed565b610ca4565b61014a610253366004611589565b610fb4565b6102996040518060800160405280600073ffffffffffffffffffffffffffffffffffffffff1681526020016000815260200160008152602001600081525090565b60008373ffffffffffffffffffffffffffffffffffffffff1663b5c736e46102c260038661100c565b6040518263ffffffff1660e01b81526004016102e091815260200190565b602060405180830381865afa1580156102fd573d6000803e3d6000fd5b505050506040513d601f19601f82011682018060405250810190610321919061162f565b9050801561038d5760405180608001604052808473ffffffffffffffffffffffffffffffffffffffff168152602001613fff60a284901c16815260200162ffffff60b084901c1681526020016103886203ffff60c885901c16600860ff9082901c91161b90565b905291505b5092915050565b734f6f977acdd1177dcd81ab83074855ecb9c2d49e33148015906103cc5750731e2e1aed876f67fe4fd54090fd7b8f57ce2342193314155b1561040d576040517fd002e25a0000000000000000000000000000000000000000000000000000000081526201870660048201526024015b60405180910390fd5b6104178482611057565b61042184846110f8565b61042b84836111dc565b50505050565b734f6f977acdd1177dcd81ab83074855ecb9c2d49e33148015906104695750731e2e1aed876f67fe4fd54090fd7b8f57ce2342193314155b156104a5576040517fd002e25a000000000000000000000000000000000000000000000000000000008152620187066004820152602401610404565b6040517fa71e495800000000000000000000000000000000000000000000000000000000815273ffffffffffffffffffffffffffffffffffffffff83811660048301526024820183905284169063a71e495890604401600060405180830381600087803b15801561051557600080fd5b505af1158015610529573d6000803e3d6000fd5b50506040805173ffffffffffffffffffffffffffffffffffffffff8088168252861660208201529081018490527f627d8790671c69ca7f016ebefbb435d3078c4b06334dc1869b1f9747cc196668925060600190505b60405180910390a1505050565b6105d46040518060a00160405280600073ffffffffffffffffffffffffffffffffffffffff168152602001600081526020016000815260200160008152602001600081525090565b60008373ffffffffffffffffffffffffffffffffffffffff1663b5c736e46105fd60058661100c565b6040518263ffffffff1660e01b815260040161061b91815260200190565b602060405180830381865afa158015610638573d6000803e3d6000fd5b505050506040513d601f19601f8201168201806040525081019061065c919061162f565b9050801561038d576040518060a001604052808473ffffffffffffffffffffffffffffffffffffffff168152602001613fff60a284901c16815260200162ffffff60b084901c1681526020016106c36203ffff60c885901c16600860ff9082901c91161b90565b81526020016103ff60e284901c1660ff60da85901c161b610388565b734f6f977acdd1177dcd81ab83074855ecb9c2d49e33148015906107175750731e2e1aed876f67fe4fd54090fd7b8f57ce2342193314155b15610753576040517fd002e25a000000000000000000000000000000000000000000000000000000008152620187066004820152602401610404565b61075d8382611057565b61076783836111dc565b505050565b6040517fb5c736e40000000000000000000000000000000000000000000000000000000081526002600482015260009060809073ffffffffffffffffffffffffffffffffffffffff84169063b5c736e4906024015b602060405180830381865afa1580156107de573d6000803e3d6000fd5b505050506040513d601f19601f82011682018060405250810190610802919061162f565b901c92915050565b734f6f977acdd1177dcd81ab83074855ecb9c2d49e33148015906108425750731e2e1aed876f67fe4fd54090fd7b8f57ce2342193314155b1561087e576040517fd002e25a000000000000000000000000000000000000000000000000000000008152620187066004820152602401610404565b8115801561088a575080155b156108c6576040517fd002e25a000000000000000000000000000000000000000000000000000000008152620187056004820152602401610404565b604080516001808252818301909252600091816020015b6109256040518060a00160405280600073ffffffffffffffffffffffffffffffffffffffff168152602001600081526020016000815260200160008152602001600081525090565b8152602001906001900390816108dd579050509050610944858561058c565b8160008151811061095757610957611648565b6020026020010181905250600073ffffffffffffffffffffffffffffffffffffffff168160008151811061098d5761098d611648565b60200260200101516000015173ffffffffffffffffffffffffffffffffffffffff16036109eb576040517fd002e25a000000000000000000000000000000000000000000000000000000008152620187076004820152602401610404565b73ffffffffffffffffffffffffffffffffffffffff80861660009081526020818152604080832093881683529290522054610a25906112c0565b8215610a7857610a5381600081518110610a4157610a41611648565b6020026020010151606001518461130e565b8281600081518110610a6757610a67611648565b602002602001015160600181815250505b8115610acb57610aa681600081518110610a9457610a94611648565b6020026020010151608001518361130e565b8181600081518110610aba57610aba611648565b602002602001015160800181815250505b73ffffffffffffffffffffffffffffffffffffffff808616600081815260208181526040808320948916835293905282902042905590517fba9af1e300000000000000000000000000000000000000000000000000000000815263ba9af1e390610b39908490600401611677565b600060405180830381600087803b158015610b5357600080fd5b505af1158015610b67573d6000803e3d6000fd5b505050507f9993e5e4e33e5e81424d8d78e624c9af32a38af8b3b3ad22481dd34bdff97ba3858583600081518110610ba157610ba1611648565b60200260200101516060015184600081518110610bc057610bc0611648565b602002602001015160800151604051610c0d949392919073ffffffffffffffffffffffffffffffffffffffff94851681529290931660208301526040820152606081019190915260800190565b60405180910390a15050505050565b734f6f977acdd1177dcd81ab83074855ecb9c2d49e3314801590610c545750731e2e1aed876f67fe4fd54090fd7b8f57ce2342193314155b15610c90576040517fd002e25a000000000000000000000000000000000000000000000000000000008152620187066004820152602401610404565b610c9a8382611057565b61076783836110f8565b734f6f977acdd1177dcd81ab83074855ecb9c2d49e3314801590610cdc5750731e2e1aed876f67fe4fd54090fd7b8f57ce2342193314155b15610d18576040517fd002e25a000000000000000000000000000000000000000000000000000000008152620187066004820152602401610404565b81600003610d57576040517fd002e25a000000000000000000000000000000000000000000000000000000008152620187056004820152602401610404565b604080516001808252818301909252600091816020015b610daf6040518060800160405280600073ffffffffffffffffffffffffffffffffffffffff1681526020016000815260200160008152602001600081525090565b815260200190600190039081610d6e579050509050610dce8585610258565b81600081518110610de157610de1611648565b6020026020010181905250600073ffffffffffffffffffffffffffffffffffffffff1681600081518110610e1757610e17611648565b60200260200101516000015173ffffffffffffffffffffffffffffffffffffffff1603610e75576040517fd002e25a000000000000000000000000000000000000000000000000000000008152620187076004820152602401610404565b81610e9057610e9081600081518110610a4157610a41611648565b8281600081518110610ea457610ea4611648565b6020908102919091010151606001526040517f26fda0b600000000000000000000000000000000000000000000000000000000815273ffffffffffffffffffffffffffffffffffffffff8616906326fda0b690610f05908490600401611706565b600060405180830381600087803b158015610f1f57600080fd5b505af1158015610f33573d6000803e3d6000fd5b505050507ffd796b6ed10015d0712f76347f9fe70b0e270efa667a977a24e096530291b416858583600081518110610f6d57610f6d611648565b602002602001015160600151604051610c0d9392919073ffffffffffffffffffffffffffffffffffffffff9384168152919092166020820152604081019190915260600190565b6040517fb5c736e400000000000000000000000000000000000000000000000000000000815260048082015260009060809073ffffffffffffffffffffffffffffffffffffffff84169063b5c736e4906024016107c1565b6040805173ffffffffffffffffffffffffffffffffffffffff831660208201529081018390526000906060016040516020818303038152906040528051906020012090505b92915050565b80611093576040517fd002e25a000000000000000000000000000000000000000000000000000000008152620187056004820152602401610404565b73ffffffffffffffffffffffffffffffffffffffff82166000908152602081815260408083209091529020546110c8906112c0565b5073ffffffffffffffffffffffffffffffffffffffff166000908152602081815260408083209091529020429055565b60006111038361076c565b905061110f818361130e565b6040517fb3889bf40000000000000000000000000000000000000000000000000000000081526004810183905273ffffffffffffffffffffffffffffffffffffffff84169063b3889bf490602401600060405180830381600087803b15801561117757600080fd5b505af115801561118b573d6000803e3d6000fd5b50506040805173ffffffffffffffffffffffffffffffffffffffff87168152602081018690527f9bb618f28db2b68277033a26971a4ce3e4f61b3d930caf558383b8f2beae9f0a935001905061057f565b60006111e783610fb4565b90506111f3818361130e565b6040517fd2905ed60000000000000000000000000000000000000000000000000000000081526004810183905273ffffffffffffffffffffffffffffffffffffffff84169063d2905ed690602401600060405180830381600087803b15801561125b57600080fd5b505af115801561126f573d6000803e3d6000fd5b50506040805173ffffffffffffffffffffffffffffffffffffffff87168152602081018690527fb18b5381b640945ab2f40c9d174571d4f00859746fb2deb9cc789cceca501c34935001905061057f565b620546006112ce82426117ae565b101561130b576040517fd002e25a000000000000000000000000000000000000000000000000000000008152620187096004820152602401610404565b50565b6000606461131d6014856117c1565b61132791906117d8565b9050828211801561134057508061133e84846117ae565b115b1561137c576040517fd002e25a000000000000000000000000000000000000000000000000000000008152620187086004820152602401610404565b828210801561139357508061139183856117ae565b115b15610767576040517fd002e25a000000000000000000000000000000000000000000000000000000008152620187086004820152602401610404565b803573ffffffffffffffffffffffffffffffffffffffff811681146113f357600080fd5b919050565b6000806040838503121561140b57600080fd5b611414836113cf565b9150611422602084016113cf565b90509250929050565b815173ffffffffffffffffffffffffffffffffffffffff16815260208083015190820152604080830151908201526060808301519082015260808101611051565b803580151581146113f357600080fd5b6000806000806080858703121561149257600080fd5b61149b856113cf565b935060208501359250604085013591506114b76060860161146c565b905092959194509250565b6000806000606084860312156114d757600080fd5b6114e0846113cf565b92506114ee602085016113cf565b9150604084013590509250925092565b60a08101611051828473ffffffffffffffffffffffffffffffffffffffff8151168252602081015160208301526040810151604083015260608101516060830152608081015160808301525050565b60008060006060848603121561156257600080fd5b61156b846113cf565b9250602084013591506115806040850161146c565b90509250925092565b60006020828403121561159b57600080fd5b6115a4826113cf565b9392505050565b600080600080608085870312156115c157600080fd5b6115ca856113cf565b93506115d8602086016113cf565b93969395505050506040820135916060013590565b6000806000806080858703121561160357600080fd5b61160c856113cf565b935061161a602086016113cf565b9250604085013591506114b76060860161146c565b60006020828403121561164157600080fd5b5051919050565b7f4e487b7100000000000000000000000000000000000000000000000000000000600052603260045260246000fd5b6020808252825182820181905260009190848201906040850190845b818110156116fa576116e783855173ffffffffffffffffffffffffffffffffffffffff8151168252602081015160208301526040810151604083015260608101516060830152608081015160808301525050565b9284019260a09290920191600101611693565b50909695505050505050565b6020808252825182820181905260009190848201906040850190845b818110156116fa5761176c83855173ffffffffffffffffffffffffffffffffffffffff81511682526020810151602083015260408101516040830152606081015160608301525050565b9284019260809290920191600101611722565b7f4e487b7100000000000000000000000000000000000000000000000000000000600052601160045260246000fd5b818103818111156110515761105161177f565b80820281158282048414176110515761105161177f565b60008261180e577f4e487b7100000000000000000000000000000000000000000000000000000000600052601260045260246000fd5b50049056fea264697066735822122063f9de6a02ae3df25901d173b70c66a274a0f029453a9f5c4c33835177394d4f64736f6c63430008150033",
  "devdoc": {
    "kind": "dev",
    "methods": {
      "getMaxBorrowShares(address)": {
        "params": {
          "dex_": "The address of the DEX"
        },
        "returns": {
          "_0": "The max borrow shares"
        }
      },
      "getMaxSupplyShares(address)": {
        "params": {
          "dex_": "The address of the DEX"
        },
        "returns": {
          "_0": "The max supply shares"
        }
      },
      "setMaxBorrowShares(address,uint256,bool)": {
        "details": "This function can only be called by team multisig",
        "params": {
          "confirmLiquidityLimitsCoverCap_": "Reminder to manually confirm that the limits for the dex at liquidity layer cover the cap.",
          "dex_": "The address of the dex at which to set the max borrow shares",
          "maxBorrowShares_": "The max borrow shares."
        }
      },
      "setMaxShares(address,uint256,uint256,bool)": {
        "details": "This function can only be called by team multisig",
        "params": {
          "confirmLiquidityLimitsCoverCap_": "Reminder to manually confirm that the limits for the dex at liquidity layer cover the cap.",
          "dex_": "The address of the dex at which to set the max shares",
          "maxBorrowShares_": "The max borrow shares.",
          "maxSupplyShares_": "The max supply shares."
        }
      },
      "setMaxSupplyShares(address,uint256,bool)": {
        "details": "This function can only be called by team multisig",
        "params": {
          "confirmLiquidityLimitsCoverCap_": "Reminder to manually confirm that the limits for the dex at liquidity layer cover the cap.",
          "dex_": "The address of the dex at which to set the max supply shares",
          "maxSupplyShares_": "The max supply shares."
        }
      },
      "setUserBorrowLimits(address,address,uint256,uint256)": {
        "params": {
          "baseLimit_": "The base limit for the user borrow. Set to 0 to keep current value.",
          "dex_": "The address of the dex at which to set the user borrow limit",
          "maxLimit_": "The max limit for the user borrow. Set to 0 to keep current value.",
          "user_": "The address of the user for which to set the user borrow limit"
        }
      },
      "setUserWithdrawLimit(address,address,uint256,bool)": {
        "params": {
          "baseLimit_": "The base limit for the user supply. Set to 0 to keep current value.",
          "dex_": "The address of the dex at which to set the user withdraw limit",
          "skipMaxPercentChangeCheck_": "allow full range of limit check. Keep to false by default to have additional human error check.",
          "user_": "The address of the user for which to set the user withdraw limit"
        }
      },
      "setWithdrawalLimit(address,address,uint256)": {
        "details": "This function can only be called by team multisig",
        "params": {
          "dex_": "The address of the dex",
          "newLimit_": "The new withdrawal limit to be set",
          "user_": "The address of the user for which to set the withdrawal limit"
        }
      }
    },
    "version": 1
  },
  "userdoc": {
    "events": {
      "LogSetMaxBorrowShares(address,uint256)": {
        "notice": "emitted when multisig changes the max borrow shares"
      },
      "LogSetMaxSupplyShares(address,uint256)": {
        "notice": "emitted when multisig changes the max supply shares"
      },
      "LogSetUserBorrowLimits(address,address,uint256,uint256)": {
        "notice": "emitted when multisig changes the borrow limit config"
      },
      "LogSetUserWithdrawLimit(address,address,uint256)": {
        "notice": "emitted when multisig changes the withdrawal limit config"
      },
      "LogSetWithdrawalLimit(address,address,uint256)": {
        "notice": "emitted when multisig successfully changes the withdrawal limit"
      }
    },
    "kind": "user",
    "methods": {
      "TEAM_MULTISIG()": {
        "notice": "Team multisigs allowed to trigger methods"
      },
      "getMaxBorrowShares(address)": {
        "notice": "Get the max borrow shares of a DEX"
      },
      "getMaxSupplyShares(address)": {
        "notice": "Get the max supply shares of a DEX"
      },
      "getUserBorrowConfig(address,address)": {
        "notice": "Returns the user borrow config for a given dex and user."
      },
      "getUserSupplyConfig(address,address)": {
        "notice": "Returns the user supply config for a given dex and user."
      },
      "setMaxBorrowShares(address,uint256,bool)": {
        "notice": "Sets the max borrow shares of a DEX. To update max supply and max borrow shares at once within same coolDown, use setMaxShares."
      },
      "setMaxShares(address,uint256,uint256,bool)": {
        "notice": "Sets both max borrow shares and max supply shares of a DEX at once."
      },
      "setMaxSupplyShares(address,uint256,bool)": {
        "notice": "Sets the max supply shares of a DEX. To update max supply and max borrow shares at once within same coolDown, use setMaxShares."
      },
      "setUserBorrowLimits(address,address,uint256,uint256)": {
        "notice": "Sets the user borrow limits at a specific dex for a user (vault), with time and max percent change restrictions.         Can only be called by team multisig."
      },
      "setUserWithdrawLimit(address,address,uint256,bool)": {
        "notice": "Sets the user withdraw base limit at a specific dex for a user (vault) without restrictions. Can only be called by team multisig."
      },
      "setWithdrawalLimit(address,address,uint256)": {
        "notice": "Sets the withdrawal limit for a specific user at a dex"
      }
    },
    "version": 1
  },
  "storageLayout": {
    "storage": [
      {
        "astId": 5252,
        "contract": "contracts/config/limitsAuthDex/main.sol:FluidLimitsAuthDex",
        "label": "lastUpdateTime",
        "offset": 0,
        "slot": "0",
        "type": "t_mapping(t_address,t_mapping(t_address,t_uint256))"
      }
    ],
    "types": {
      "t_address": {
        "encoding": "inplace",
        "label": "address",
        "numberOfBytes": "20"
      },
      "t_mapping(t_address,t_mapping(t_address,t_uint256))": {
        "encoding": "mapping",
        "key": "t_address",
        "label": "mapping(address => mapping(address => uint256))",
        "numberOfBytes": "32",
        "value": "t_mapping(t_address,t_uint256)"
      },
      "t_mapping(t_address,t_uint256)": {
        "encoding": "mapping",
        "key": "t_address",
        "label": "mapping(address => uint256)",
        "numberOfBytes": "32",
        "value": "t_uint256"
      },
      "t_uint256": {
        "encoding": "inplace",
        "label": "uint256",
        "numberOfBytes": "32"
      }
    }
  }
}