{
  "address": "0x7f14c42F84cb940F2619DD2698EDdB1C3fFC514E",
  "abi": [
    {
      "inputs": [
        {
          "internalType": "address",
          "name": "liquidity_",
          "type": "address"
        },
        {
          "internalType": "address",
          "name": "reserveContract_",
          "type": "address"
        }
      ],
      "stateMutability": "nonpayable",
      "type": "constructor"
    },
    {
      "inputs": [
        {
          "internalType": "uint256",
          "name": "errorId_",
          "type": "uint256"
        }
      ],
      "name": "FluidConfigError",
      "type": "error"
    },
    {
      "anonymous": false,
      "inputs": [
        {
          "indexed": false,
          "internalType": "address[]",
          "name": "",
          "type": "address[]"
        }
      ],
      "name": "LogCollectRevenue",
      "type": "event"
    },
    {
      "inputs": [],
      "name": "LIQUIDITY",
      "outputs": [
        {
          "internalType": "contract IFluidLiquidity",
          "name": "",
          "type": "address"
        }
      ],
      "stateMutability": "view",
      "type": "function"
    },
    {
      "inputs": [],
      "name": "RESERVE_CONTRACT",
      "outputs": [
        {
          "internalType": "contract IFluidReserveContract",
          "name": "",
          "type": "address"
        }
      ],
      "stateMutability": "view",
      "type": "function"
    },
    {
      "inputs": [],
      "name": "TEAM_MULTISIG",
      "outputs": [
        {
          "internalType": "address",
          "name": "",
          "type": "address"
        }
      ],
      "stateMutability": "view",
      "type": "function"
    },
    {
      "inputs": [
        {
          "internalType": "address[]",
          "name": "tokens_",
          "type": "address[]"
        }
      ],
      "name": "collectRevenue",
      "outputs": [],
      "stateMutability": "nonpayable",
      "type": "function"
    }
  ],
  "transactionHash": "0x1bc7c8373b335e72cc508bac9e82976090a9af58e6d366125bd8cc2067e1b665",
  "args": [
    "0x52Aa899454998Be5b000Ad077a46Bbe360F4e497",
    "0x264786EF916af64a1DB19F513F24a3681734ce92"
  ],
  "numDeployments": 1,
  "solcInputHash": "f3cf2c40e624198f9fb1174669d3ec19",
  "bytecode": "0x60c060405234801561001057600080fd5b5060405161052c38038061052c83398101604081905261002f916100a6565b6001600160a01b038216158061004c57506001600160a01b038116155b1561007357604051636801712d60e11b8152620186de600482015260240160405180910390fd5b6001600160a01b039182166080521660a0526100d9565b80516001600160a01b03811681146100a157600080fd5b919050565b600080604083850312156100b957600080fd5b6100c28361008a565b91506100d06020840161008a565b90509250929050565b60805160a05161042261010a6000396000818160a601526101260152600081816056015261024601526104226000f3fe608060405234801561001057600080fd5b506004361061004c5760003560e01c80632861c7d1146100515780636449b8d7146100a1578063ac862bfa146100c8578063b788f3a1146100dd575b600080fd5b6100787f000000000000000000000000000000000000000000000000000000000000000081565b60405173ffffffffffffffffffffffffffffffffffffffff909116815260200160405180910390f35b6100787f000000000000000000000000000000000000000000000000000000000000000081565b6100db6100d63660046102ec565b6100f8565b005b610078734f6f977acdd1177dcd81ab83074855ecb9c2d49e81565b6040517f467c9eff0000000000000000000000000000000000000000000000000000000081523360048201527f000000000000000000000000000000000000000000000000000000000000000073ffffffffffffffffffffffffffffffffffffffff169063467c9eff906024016020604051808303816000875af1158015610184573d6000803e3d6000fd5b505050506040513d601f19601f820116820180604052508101906101a89190610361565b1580156101c9575033734f6f977acdd1177dcd81ab83074855ecb9c2d49e14155b15610209576040517fd002e25a000000000000000000000000000000000000000000000000000000008152620186dd600482015260240160405180910390fd5b6040517fac862bfa00000000000000000000000000000000000000000000000000000000815273ffffffffffffffffffffffffffffffffffffffff7f0000000000000000000000000000000000000000000000000000000000000000169063ac862bfa9061027d908590859060040161038a565b600060405180830381600087803b15801561029757600080fd5b505af11580156102ab573d6000803e3d6000fd5b505050507f7923febb9f621ae6b722098d6a661c28f188c902ef70123fd90ff2c0198e5a2982826040516102e092919061038a565b60405180910390a15050565b600080602083850312156102ff57600080fd5b823567ffffffffffffffff8082111561031757600080fd5b818501915085601f83011261032b57600080fd5b81358181111561033a57600080fd5b8660208260051b850101111561034f57600080fd5b60209290920196919550909350505050565b60006020828403121561037357600080fd5b8151801515811461038357600080fd5b9392505050565b6020808252818101839052600090846040840183805b878110156103df57833573ffffffffffffffffffffffffffffffffffffffff81168082146103cc578384fd5b84525092840192918401916001016103a0565b509097965050505050505056fea2646970667358221220c03f9c8ce8fd071a47824507e1871cde988c30222351dbb40781d550b66a0fc064736f6c63430008150033",
  "devdoc": {
    "kind": "dev",
    "methods": {},
    "version": 1
  },
  "userdoc": {
    "events": {
      "LogCollectRevenue(address[])": {
        "notice": "emitted when revenue is collected"
      }
    },
    "kind": "user",
    "methods": {
      "LIQUIDITY()": {
        "notice": "Fluid liquidity address"
      },
      "RESERVE_CONTRACT()": {
        "notice": "Fluid reserve contract, allowed rebalancers there are allowed to trigger collecting revenue"
      },
      "TEAM_MULTISIG()": {
        "notice": "Team multisig allowed to trigger collecting revenue"
      },
      "collectRevenue(address[])": {
        "notice": "calls the collectRevenue method in the liquidity layer for `tokens_`"
      }
    },
    "notice": "Collects the revenue from the Fluid Liquidity layer to the configured revenue collector",
    "version": 1
  },
  "storageLayout": {
    "storage": [],
    "types": null
  }
}