{
  "address": "0x7BD48D505A195d2d3B90263b7E4DB78909b817D3",
  "abi": [
    {
      "inputs": [
        {
          "internalType": "uint256",
          "name": "errorId_",
          "type": "uint256"
        }
      ],
      "name": "FluidConfigError",
      "type": "error"
    },
    {
      "anonymous": false,
      "inputs": [
        {
          "indexed": false,
          "internalType": "address",
          "name": "dex",
          "type": "address"
        },
        {
          "indexed": false,
          "internalType": "uint256",
          "name": "oldFee",
          "type": "uint256"
        },
        {
          "indexed": false,
          "internalType": "uint256",
          "name": "newFee",
          "type": "uint256"
        }
      ],
      "name": "LogSetFee",
      "type": "event"
    },
    {
      "inputs": [],
      "name": "TEAM_MULTISIG",
      "outputs": [
        {
          "internalType": "address",
          "name": "",
          "type": "address"
        }
      ],
      "stateMutability": "view",
      "type": "function"
    },
    {
      "inputs": [],
      "name": "TEAM_MULTISIG2",
      "outputs": [
        {
          "internalType": "address",
          "name": "",
          "type": "address"
        }
      ],
      "stateMutability": "view",
      "type": "function"
    },
    {
      "inputs": [
        {
          "internalType": "address",
          "name": "dex_",
          "type": "address"
        }
      ],
      "name": "getDexFeeAndRevenueCut",
      "outputs": [
        {
          "internalType": "uint256",
          "name": "fee_",
          "type": "uint256"
        },
        {
          "internalType": "uint256",
          "name": "revenueCut_",
          "type": "uint256"
        }
      ],
      "stateMutability": "view",
      "type": "function"
    },
    {
      "inputs": [
        {
          "internalType": "address",
          "name": "dex_",
          "type": "address"
        },
        {
          "internalType": "uint256",
          "name": "newFee_",
          "type": "uint256"
        }
      ],
      "name": "setDexFee",
      "outputs": [],
      "stateMutability": "nonpayable",
      "type": "function"
    }
  ],
  "transactionHash": "0x570c1b2f7653090cb71c94ebaeeb87316f9b5d5bc1b1b8331f249bab8dd0c3ee",
  "args": [],
  "numDeployments": 1,
  "solcInputHash": "5796c064be2dd77208410ca82d6c5702",
  "bytecode": "0x608060405234801561001057600080fd5b50610426806100206000396000f3fe608060405234801561001057600080fd5b506004361061004c5760003560e01c806389e0e08c1461005157806395ae47e1146100665780639fca83bf146100ab578063b788f3a1146100d3575b600080fd5b61006461005f366004610347565b6100ee565b005b610081731e2e1aed876f67fe4fd54090fd7b8f57ce23421981565b60405173ffffffffffffffffffffffffffffffffffffffff90911681526020015b60405180910390f35b6100be6100b9366004610371565b61026c565b604080519283526020830191909152016100a2565b610081734f6f977acdd1177dcd81ab83074855ecb9c2d49e81565b734f6f977acdd1177dcd81ab83074855ecb9c2d49e33148015906101265750731e2e1aed876f67fe4fd54090fd7b8f57ce2342193314155b15610166576040517fd002e25a0000000000000000000000000000000000000000000000000000000081526201870f600482015260240160405180910390fd5b6000806101728461026c565b909250905073ffffffffffffffffffffffffffffffffffffffff8416632af69377846101a061271085610393565b6040517fffffffff0000000000000000000000000000000000000000000000000000000060e085901b16815260048101929092526024820152604401600060405180830381600087803b1580156101f657600080fd5b505af115801561020a573d6000803e3d6000fd5b50506040805173ffffffffffffffffffffffffffffffffffffffff88168152602081018690529081018690527fb9909b657234b4f1de0a24815b36345569f5156c5aa6c3758c0c430f160ea2a29250606001905060405180910390a150505050565b6040517fb5c736e4000000000000000000000000000000000000000000000000000000008152600160048201526000908190819073ffffffffffffffffffffffffffffffffffffffff85169063b5c736e490602401602060405180830381865afa1580156102de573d6000803e3d6000fd5b505050506040513d601f19601f8201168201806040525081019061030291906103d7565b600281901c6201ffff169560139190911c607f16945092505050565b803573ffffffffffffffffffffffffffffffffffffffff8116811461034257600080fd5b919050565b6000806040838503121561035a57600080fd5b6103638361031e565b946020939093013593505050565b60006020828403121561038357600080fd5b61038c8261031e565b9392505050565b80820281158282048414176103d1577f4e487b7100000000000000000000000000000000000000000000000000000000600052601160045260246000fd5b92915050565b6000602082840312156103e957600080fd5b505191905056fea26469706673582212206c3bbd7d51f7533b1f320a8a74ab7e0cac5910ee584be7c3e39054efc6598c1f64736f6c63430008150033",
  "devdoc": {
    "kind": "dev",
    "methods": {},
    "version": 1
  },
  "userdoc": {
    "events": {
      "LogSetFee(address,uint256,uint256)": {
        "notice": "emitted when the fee is updated"
      }
    },
    "kind": "user",
    "methods": {
      "TEAM_MULTISIG()": {
        "notice": "Team multisigs allowed to trigger methods"
      }
    },
    "version": 1
  },
  "storageLayout": {
    "storage": [],
    "types": null
  }
}