{
  "address": "0x305be0eAC8e3B118c358747de863A5779B26Dc5a",
  "abi": [
    {
      "inputs": [
        {
          "internalType": "address",
          "name": "liquidity_",
          "type": "address"
        },
        {
          "internalType": "address",
          "name": "deployerContract_",
          "type": "address"
        }
      ],
      "stateMutability": "nonpayable",
      "type": "constructor"
    },
    {
      "inputs": [
        {
          "internalType": "address",
          "name": "addr",
          "type": "address"
        }
      ],
      "name": "AddressNotAContract",
      "type": "error"
    },
    {
      "inputs": [
        {
          "internalType": "bytes32",
          "name": "dexId",
          "type": "bytes32"
        }
      ],
      "name": "DexAlreadyInitialized",
      "type": "error"
    },
    {
      "inputs": [
        {
          "internalType": "bytes32",
          "name": "dexId",
          "type": "bytes32"
        }
      ],
      "name": "DexNotInitialized",
      "type": "error"
    },
    {
      "inputs": [
        {
          "internalType": "uint256",
          "name": "errorId_",
          "type": "uint256"
        }
      ],
      "name": "FluidSafeTransferError",
      "type": "error"
    },
    {
      "inputs": [
        {
          "internalType": "uint256",
          "name": "msgValue",
          "type": "uint256"
        },
        {
          "internalType": "uint256",
          "name": "requiredAmount",
          "type": "uint256"
        }
      ],
      "name": "InsufficientMsgValue",
      "type": "error"
    },
    {
      "inputs": [],
      "name": "InvalidParams",
      "type": "error"
    },
    {
      "inputs": [
        {
          "internalType": "uint256",
          "name": "revenueCut",
          "type": "uint256"
        }
      ],
      "name": "InvalidRevenueCut",
      "type": "error"
    },
    {
      "inputs": [
        {
          "internalType": "address",
          "name": "token0",
          "type": "address"
        },
        {
          "internalType": "address",
          "name": "token1",
          "type": "address"
        }
      ],
      "name": "InvalidTokenOrder",
      "type": "error"
    },
    {
      "inputs": [],
      "name": "OnlyDelegateCallAllowed",
      "type": "error"
    },
    {
      "inputs": [
        {
          "internalType": "uint256",
          "name": "price",
          "type": "uint256"
        },
        {
          "internalType": "uint256",
          "name": "priceMax",
          "type": "uint256"
        },
        {
          "internalType": "uint256",
          "name": "priceMin",
          "type": "uint256"
        }
      ],
      "name": "SlippageLimitExceeded",
      "type": "error"
    },
    {
      "anonymous": false,
      "inputs": [
        {
          "indexed": false,
          "internalType": "address[]",
          "name": "tokens",
          "type": "address[]"
        },
        {
          "indexed": false,
          "internalType": "uint256[]",
          "name": "amounts",
          "type": "uint256[]"
        },
        {
          "indexed": false,
          "internalType": "address",
          "name": "to",
          "type": "address"
        }
      ],
      "name": "LogCollectRevenue",
      "type": "event"
    },
    {
      "anonymous": false,
      "inputs": [
        {
          "components": [
            {
              "internalType": "address",
              "name": "token0",
              "type": "address"
            },
            {
              "internalType": "address",
              "name": "token1",
              "type": "address"
            },
            {
              "internalType": "bytes32",
              "name": "salt",
              "type": "bytes32"
            }
          ],
          "indexed": false,
          "internalType": "struct DexKey",
          "name": "dexKey",
          "type": "tuple"
        },
        {
          "indexed": false,
          "internalType": "bytes8",
          "name": "dexId",
          "type": "bytes8"
        },
        {
          "indexed": false,
          "internalType": "uint256",
          "name": "dexVariables",
          "type": "uint256"
        },
        {
          "indexed": false,
          "internalType": "uint256",
          "name": "token0Amount",
          "type": "uint256"
        },
        {
          "indexed": false,
          "internalType": "uint256",
          "name": "token1Amount",
          "type": "uint256"
        }
      ],
      "name": "LogDeposit",
      "type": "event"
    },
    {
      "anonymous": false,
      "inputs": [
        {
          "components": [
            {
              "internalType": "address",
              "name": "token0",
              "type": "address"
            },
            {
              "internalType": "address",
              "name": "token1",
              "type": "address"
            },
            {
              "internalType": "bytes32",
              "name": "salt",
              "type": "bytes32"
            }
          ],
          "indexed": false,
          "internalType": "struct DexKey",
          "name": "dexKey",
          "type": "tuple"
        },
        {
          "indexed": false,
          "internalType": "bytes8",
          "name": "dexId",
          "type": "bytes8"
        },
        {
          "indexed": false,
          "internalType": "uint256",
          "name": "dexVariables",
          "type": "uint256"
        },
        {
          "indexed": false,
          "internalType": "uint256",
          "name": "centerPriceShift",
          "type": "uint256"
        },
        {
          "components": [
            {
              "components": [
                {
                  "internalType": "address",
                  "name": "token0",
                  "type": "address"
                },
                {
                  "internalType": "address",
                  "name": "token1",
                  "type": "address"
                },
                {
                  "internalType": "bytes32",
                  "name": "salt",
                  "type": "bytes32"
                }
              ],
              "internalType": "struct DexKey",
              "name": "dexKey",
              "type": "tuple"
            },
            {
              "internalType": "uint256",
              "name": "fee",
              "type": "uint256"
            },
            {
              "internalType": "uint256",
              "name": "revenueCut",
              "type": "uint256"
            },
            {
              "internalType": "bool",
              "name": "rebalancingStatus",
              "type": "bool"
            },
            {
              "internalType": "uint256",
              "name": "centerPrice",
              "type": "uint256"
            },
            {
              "internalType": "uint256",
              "name": "centerPriceContract",
              "type": "uint256"
            },
            {
              "internalType": "uint256",
              "name": "upperPercent",
              "type": "uint256"
            },
            {
              "internalType": "uint256",
              "name": "lowerPercent",
              "type": "uint256"
            },
            {
              "internalType": "uint256",
              "name": "upperShiftThreshold",
              "type": "uint256"
            },
            {
              "internalType": "uint256",
              "name": "lowerShiftThreshold",
              "type": "uint256"
            },
            {
              "internalType": "uint256",
              "name": "shiftTime",
              "type": "uint256"
            },
            {
              "internalType": "uint256",
              "name": "minCenterPrice",
              "type": "uint256"
            },
            {
              "internalType": "uint256",
              "name": "maxCenterPrice",
              "type": "uint256"
            },
            {
              "internalType": "uint256",
              "name": "token0Amount",
              "type": "uint256"
            },
            {
              "internalType": "uint256",
              "name": "token1Amount",
              "type": "uint256"
            }
          ],
          "indexed": false,
          "internalType": "struct InitializeParams",
          "name": "i",
          "type": "tuple"
        }
      ],
      "name": "LogInitialize",
      "type": "event"
    },
    {
      "anonymous": false,
      "inputs": [
        {
          "indexed": false,
          "internalType": "address",
          "name": "auth",
          "type": "address"
        },
        {
          "indexed": false,
          "internalType": "bool",
          "name": "isAuth",
          "type": "bool"
        }
      ],
      "name": "LogUpdateAuth",
      "type": "event"
    },
    {
      "anonymous": false,
      "inputs": [
        {
          "components": [
            {
              "internalType": "address",
              "name": "token0",
              "type": "address"
            },
            {
              "internalType": "address",
              "name": "token1",
              "type": "address"
            },
            {
              "internalType": "bytes32",
              "name": "salt",
              "type": "bytes32"
            }
          ],
          "indexed": false,
          "internalType": "struct DexKey",
          "name": "dexKey",
          "type": "tuple"
        },
        {
          "indexed": false,
          "internalType": "bytes8",
          "name": "dexId",
          "type": "bytes8"
        },
        {
          "indexed": false,
          "internalType": "uint256",
          "name": "dexVariables",
          "type": "uint256"
        },
        {
          "indexed": false,
          "internalType": "uint256",
          "name": "centerPriceShift",
          "type": "uint256"
        },
        {
          "indexed": false,
          "internalType": "uint256",
          "name": "centerPriceContract",
          "type": "uint256"
        },
        {
          "indexed": false,
          "internalType": "uint256",
          "name": "percent",
          "type": "uint256"
        },
        {
          "indexed": false,
          "internalType": "uint256",
          "name": "time",
          "type": "uint256"
        }
      ],
      "name": "LogUpdateCenterPriceAddress",
      "type": "event"
    },
    {
      "anonymous": false,
      "inputs": [
        {
          "components": [
            {
              "internalType": "address",
              "name": "token0",
              "type": "address"
            },
            {
              "internalType": "address",
              "name": "token1",
              "type": "address"
            },
            {
              "internalType": "bytes32",
              "name": "salt",
              "type": "bytes32"
            }
          ],
          "indexed": false,
          "internalType": "struct DexKey",
          "name": "dexKey",
          "type": "tuple"
        },
        {
          "indexed": false,
          "internalType": "bytes8",
          "name": "dexId",
          "type": "bytes8"
        },
        {
          "indexed": false,
          "internalType": "uint256",
          "name": "centerPriceShift",
          "type": "uint256"
        },
        {
          "indexed": false,
          "internalType": "uint256",
          "name": "maxCenterPrice",
          "type": "uint256"
        },
        {
          "indexed": false,
          "internalType": "uint256",
          "name": "minCenterPrice",
          "type": "uint256"
        }
      ],
      "name": "LogUpdateCenterPriceLimits",
      "type": "event"
    },
    {
      "anonymous": false,
      "inputs": [
        {
          "indexed": false,
          "internalType": "address",
          "name": "extraDataAddress",
          "type": "address"
        }
      ],
      "name": "LogUpdateExtraDataAddress",
      "type": "event"
    },
    {
      "anonymous": false,
      "inputs": [
        {
          "components": [
            {
              "internalType": "address",
              "name": "token0",
              "type": "address"
            },
            {
              "internalType": "address",
              "name": "token1",
              "type": "address"
            },
            {
              "internalType": "bytes32",
              "name": "salt",
              "type": "bytes32"
            }
          ],
          "indexed": false,
          "internalType": "struct DexKey",
          "name": "dexKey",
          "type": "tuple"
        },
        {
          "indexed": false,
          "internalType": "bytes8",
          "name": "dexId",
          "type": "bytes8"
        },
        {
          "indexed": false,
          "internalType": "uint256",
          "name": "dexVariables",
          "type": "uint256"
        },
        {
          "indexed": false,
          "internalType": "uint256",
          "name": "fee",
          "type": "uint256"
        },
        {
          "indexed": false,
          "internalType": "uint256",
          "name": "revenueCut",
          "type": "uint256"
        }
      ],
      "name": "LogUpdateFeeAndRevenueCut",
      "type": "event"
    },
    {
      "anonymous": false,
      "inputs": [
        {
          "components": [
            {
              "internalType": "address",
              "name": "token0",
              "type": "address"
            },
            {
              "internalType": "address",
              "name": "token1",
              "type": "address"
            },
            {
              "internalType": "bytes32",
              "name": "salt",
              "type": "bytes32"
            }
          ],
          "indexed": false,
          "internalType": "struct DexKey",
          "name": "dexKey",
          "type": "tuple"
        },
        {
          "indexed": false,
          "internalType": "bytes8",
          "name": "dexId",
          "type": "bytes8"
        },
        {
          "indexed": false,
          "internalType": "uint256",
          "name": "dexVariables",
          "type": "uint256"
        },
        {
          "indexed": false,
          "internalType": "uint256",
          "name": "rangeShift",
          "type": "uint256"
        },
        {
          "indexed": false,
          "internalType": "uint256",
          "name": "upperPercent",
          "type": "uint256"
        },
        {
          "indexed": false,
          "internalType": "uint256",
          "name": "lowerPercent",
          "type": "uint256"
        },
        {
          "indexed": false,
          "internalType": "uint256",
          "name": "shiftTime",
          "type": "uint256"
        }
      ],
      "name": "LogUpdateRangePercents",
      "type": "event"
    },
    {
      "anonymous": false,
      "inputs": [
        {
          "components": [
            {
              "internalType": "address",
              "name": "token0",
              "type": "address"
            },
            {
              "internalType": "address",
              "name": "token1",
              "type": "address"
            },
            {
              "internalType": "bytes32",
              "name": "salt",
              "type": "bytes32"
            }
          ],
          "indexed": false,
          "internalType": "struct DexKey",
          "name": "dexKey",
          "type": "tuple"
        },
        {
          "indexed": false,
          "internalType": "bytes8",
          "name": "dexId",
          "type": "bytes8"
        },
        {
          "indexed": false,
          "internalType": "uint256",
          "name": "dexVariables",
          "type": "uint256"
        },
        {
          "indexed": false,
          "internalType": "bool",
          "name": "rebalancingStatus",
          "type": "bool"
        }
      ],
      "name": "LogUpdateRebalancingStatus",
      "type": "event"
    },
    {
      "anonymous": false,
      "inputs": [
        {
          "components": [
            {
              "internalType": "address",
              "name": "token0",
              "type": "address"
            },
            {
              "internalType": "address",
              "name": "token1",
              "type": "address"
            },
            {
              "internalType": "bytes32",
              "name": "salt",
              "type": "bytes32"
            }
          ],
          "indexed": false,
          "internalType": "struct DexKey",
          "name": "dexKey",
          "type": "tuple"
        },
        {
          "indexed": false,
          "internalType": "bytes8",
          "name": "dexId",
          "type": "bytes8"
        },
        {
          "indexed": false,
          "internalType": "uint256",
          "name": "centerPriceShift",
          "type": "uint256"
        },
        {
          "indexed": false,
          "internalType": "uint256",
          "name": "shiftTime",
          "type": "uint256"
        }
      ],
      "name": "LogUpdateShiftTime",
      "type": "event"
    },
    {
      "anonymous": false,
      "inputs": [
        {
          "components": [
            {
              "internalType": "address",
              "name": "token0",
              "type": "address"
            },
            {
              "internalType": "address",
              "name": "token1",
              "type": "address"
            },
            {
              "internalType": "bytes32",
              "name": "salt",
              "type": "bytes32"
            }
          ],
          "indexed": false,
          "internalType": "struct DexKey",
          "name": "dexKey",
          "type": "tuple"
        },
        {
          "indexed": false,
          "internalType": "bytes8",
          "name": "dexId",
          "type": "bytes8"
        },
        {
          "indexed": false,
          "internalType": "uint256",
          "name": "dexVariables",
          "type": "uint256"
        },
        {
          "indexed": false,
          "internalType": "uint256",
          "name": "thresholdShift",
          "type": "uint256"
        },
        {
          "indexed": false,
          "internalType": "uint256",
          "name": "upperThresholdPercent",
          "type": "uint256"
        },
        {
          "indexed": false,
          "internalType": "uint256",
          "name": "lowerThresholdPercent",
          "type": "uint256"
        },
        {
          "indexed": false,
          "internalType": "uint256",
          "name": "shiftTime",
          "type": "uint256"
        }
      ],
      "name": "LogUpdateThresholdPercent",
      "type": "event"
    },
    {
      "anonymous": false,
      "inputs": [
        {
          "components": [
            {
              "internalType": "address",
              "name": "token0",
              "type": "address"
            },
            {
              "internalType": "address",
              "name": "token1",
              "type": "address"
            },
            {
              "internalType": "bytes32",
              "name": "salt",
              "type": "bytes32"
            }
          ],
          "indexed": false,
          "internalType": "struct DexKey",
          "name": "dexKey",
          "type": "tuple"
        },
        {
          "indexed": false,
          "internalType": "bytes8",
          "name": "dexId",
          "type": "bytes8"
        },
        {
          "indexed": false,
          "internalType": "uint256",
          "name": "dexVariables",
          "type": "uint256"
        },
        {
          "indexed": false,
          "internalType": "uint256",
          "name": "token0Amount",
          "type": "uint256"
        },
        {
          "indexed": false,
          "internalType": "uint256",
          "name": "token1Amount",
          "type": "uint256"
        }
      ],
      "name": "LogWithdraw",
      "type": "event"
    },
    {
      "inputs": [
        {
          "internalType": "address[]",
          "name": "tokens_",
          "type": "address[]"
        },
        {
          "internalType": "uint256[]",
          "name": "amounts_",
          "type": "uint256[]"
        },
        {
          "internalType": "address",
          "name": "to_",
          "type": "address"
        }
      ],
      "name": "collectRevenue",
      "outputs": [],
      "stateMutability": "nonpayable",
      "type": "function"
    },
    {
      "inputs": [
        {
          "components": [
            {
              "internalType": "address",
              "name": "token0",
              "type": "address"
            },
            {
              "internalType": "address",
              "name": "token1",
              "type": "address"
            },
            {
              "internalType": "bytes32",
              "name": "salt",
              "type": "bytes32"
            }
          ],
          "internalType": "struct DexKey",
          "name": "dexKey_",
          "type": "tuple"
        },
        {
          "internalType": "uint256",
          "name": "token0Amount_",
          "type": "uint256"
        },
        {
          "internalType": "uint256",
          "name": "token1Amount_",
          "type": "uint256"
        },
        {
          "internalType": "uint256",
          "name": "priceMax_",
          "type": "uint256"
        },
        {
          "internalType": "uint256",
          "name": "priceMin_",
          "type": "uint256"
        }
      ],
      "name": "deposit",
      "outputs": [],
      "stateMutability": "nonpayable",
      "type": "function"
    },
    {
      "inputs": [
        {
          "components": [
            {
              "components": [
                {
                  "internalType": "address",
                  "name": "token0",
                  "type": "address"
                },
                {
                  "internalType": "address",
                  "name": "token1",
                  "type": "address"
                },
                {
                  "internalType": "bytes32",
                  "name": "salt",
                  "type": "bytes32"
                }
              ],
              "internalType": "struct DexKey",
              "name": "dexKey",
              "type": "tuple"
            },
            {
              "internalType": "uint256",
              "name": "fee",
              "type": "uint256"
            },
            {
              "internalType": "uint256",
              "name": "revenueCut",
              "type": "uint256"
            },
            {
              "internalType": "bool",
              "name": "rebalancingStatus",
              "type": "bool"
            },
            {
              "internalType": "uint256",
              "name": "centerPrice",
              "type": "uint256"
            },
            {
              "internalType": "uint256",
              "name": "centerPriceContract",
              "type": "uint256"
            },
            {
              "internalType": "uint256",
              "name": "upperPercent",
              "type": "uint256"
            },
            {
              "internalType": "uint256",
              "name": "lowerPercent",
              "type": "uint256"
            },
            {
              "internalType": "uint256",
              "name": "upperShiftThreshold",
              "type": "uint256"
            },
            {
              "internalType": "uint256",
              "name": "lowerShiftThreshold",
              "type": "uint256"
            },
            {
              "internalType": "uint256",
              "name": "shiftTime",
              "type": "uint256"
            },
            {
              "internalType": "uint256",
              "name": "minCenterPrice",
              "type": "uint256"
            },
            {
              "internalType": "uint256",
              "name": "maxCenterPrice",
              "type": "uint256"
            },
            {
              "internalType": "uint256",
              "name": "token0Amount",
              "type": "uint256"
            },
            {
              "internalType": "uint256",
              "name": "token1Amount",
              "type": "uint256"
            }
          ],
          "internalType": "struct InitializeParams",
          "name": "i_",
          "type": "tuple"
        }
      ],
      "name": "initialize",
      "outputs": [],
      "stateMutability": "payable",
      "type": "function"
    },
    {
      "inputs": [
        {
          "internalType": "address",
          "name": "auth_",
          "type": "address"
        },
        {
          "internalType": "bool",
          "name": "isAuth_",
          "type": "bool"
        }
      ],
      "name": "updateAuth",
      "outputs": [],
      "stateMutability": "nonpayable",
      "type": "function"
    },
    {
      "inputs": [
        {
          "components": [
            {
              "internalType": "address",
              "name": "token0",
              "type": "address"
            },
            {
              "internalType": "address",
              "name": "token1",
              "type": "address"
            },
            {
              "internalType": "bytes32",
              "name": "salt",
              "type": "bytes32"
            }
          ],
          "internalType": "struct DexKey",
          "name": "dexKey_",
          "type": "tuple"
        },
        {
          "internalType": "uint256",
          "name": "centerPriceAddress_",
          "type": "uint256"
        },
        {
          "internalType": "uint256",
          "name": "percent_",
          "type": "uint256"
        },
        {
          "internalType": "uint256",
          "name": "time_",
          "type": "uint256"
        }
      ],
      "name": "updateCenterPriceAddress",
      "outputs": [],
      "stateMutability": "nonpayable",
      "type": "function"
    },
    {
      "inputs": [
        {
          "components": [
            {
              "internalType": "address",
              "name": "token0",
              "type": "address"
            },
            {
              "internalType": "address",
              "name": "token1",
              "type": "address"
            },
            {
              "internalType": "bytes32",
              "name": "salt",
              "type": "bytes32"
            }
          ],
          "internalType": "struct DexKey",
          "name": "dexKey_",
          "type": "tuple"
        },
        {
          "internalType": "uint256",
          "name": "maxCenterPrice_",
          "type": "uint256"
        },
        {
          "internalType": "uint256",
          "name": "minCenterPrice_",
          "type": "uint256"
        }
      ],
      "name": "updateCenterPriceLimits",
      "outputs": [],
      "stateMutability": "nonpayable",
      "type": "function"
    },
    {
      "inputs": [
        {
          "internalType": "address",
          "name": "extraDataAddress_",
          "type": "address"
        }
      ],
      "name": "updateExtraDataAddress",
      "outputs": [],
      "stateMutability": "nonpayable",
      "type": "function"
    },
    {
      "inputs": [
        {
          "components": [
            {
              "internalType": "address",
              "name": "token0",
              "type": "address"
            },
            {
              "internalType": "address",
              "name": "token1",
              "type": "address"
            },
            {
              "internalType": "bytes32",
              "name": "salt",
              "type": "bytes32"
            }
          ],
          "internalType": "struct DexKey",
          "name": "dexKey_",
          "type": "tuple"
        },
        {
          "internalType": "uint256",
          "name": "fee_",
          "type": "uint256"
        },
        {
          "internalType": "uint256",
          "name": "revenueCut_",
          "type": "uint256"
        }
      ],
      "name": "updateFeeAndRevenueCut",
      "outputs": [],
      "stateMutability": "nonpayable",
      "type": "function"
    },
    {
      "inputs": [
        {
          "components": [
            {
              "internalType": "address",
              "name": "token0",
              "type": "address"
            },
            {
              "internalType": "address",
              "name": "token1",
              "type": "address"
            },
            {
              "internalType": "bytes32",
              "name": "salt",
              "type": "bytes32"
            }
          ],
          "internalType": "struct DexKey",
          "name": "dexKey_",
          "type": "tuple"
        },
        {
          "internalType": "uint256",
          "name": "upperPercent_",
          "type": "uint256"
        },
        {
          "internalType": "uint256",
          "name": "lowerPercent_",
          "type": "uint256"
        },
        {
          "internalType": "uint256",
          "name": "shiftTime_",
          "type": "uint256"
        }
      ],
      "name": "updateRangePercents",
      "outputs": [],
      "stateMutability": "nonpayable",
      "type": "function"
    },
    {
      "inputs": [
        {
          "components": [
            {
              "internalType": "address",
              "name": "token0",
              "type": "address"
            },
            {
              "internalType": "address",
              "name": "token1",
              "type": "address"
            },
            {
              "internalType": "bytes32",
              "name": "salt",
              "type": "bytes32"
            }
          ],
          "internalType": "struct DexKey",
          "name": "dexKey_",
          "type": "tuple"
        },
        {
          "internalType": "bool",
          "name": "rebalancingStatus_",
          "type": "bool"
        }
      ],
      "name": "updateRebalancingStatus",
      "outputs": [],
      "stateMutability": "nonpayable",
      "type": "function"
    },
    {
      "inputs": [
        {
          "components": [
            {
              "internalType": "address",
              "name": "token0",
              "type": "address"
            },
            {
              "internalType": "address",
              "name": "token1",
              "type": "address"
            },
            {
              "internalType": "bytes32",
              "name": "salt",
              "type": "bytes32"
            }
          ],
          "internalType": "struct DexKey",
          "name": "dexKey_",
          "type": "tuple"
        },
        {
          "internalType": "uint256",
          "name": "shiftTime_",
          "type": "uint256"
        }
      ],
      "name": "updateShiftTime",
      "outputs": [],
      "stateMutability": "nonpayable",
      "type": "function"
    },
    {
      "inputs": [
        {
          "components": [
            {
              "internalType": "address",
              "name": "token0",
              "type": "address"
            },
            {
              "internalType": "address",
              "name": "token1",
              "type": "address"
            },
            {
              "internalType": "bytes32",
              "name": "salt",
              "type": "bytes32"
            }
          ],
          "internalType": "struct DexKey",
          "name": "dexKey_",
          "type": "tuple"
        },
        {
          "internalType": "uint256",
          "name": "upperThresholdPercent_",
          "type": "uint256"
        },
        {
          "internalType": "uint256",
          "name": "lowerThresholdPercent_",
          "type": "uint256"
        },
        {
          "internalType": "uint256",
          "name": "shiftTime_",
          "type": "uint256"
        }
      ],
      "name": "updateThresholdPercent",
      "outputs": [],
      "stateMutability": "nonpayable",
      "type": "function"
    },
    {
      "inputs": [
        {
          "components": [
            {
              "internalType": "address",
              "name": "token0",
              "type": "address"
            },
            {
              "internalType": "address",
              "name": "token1",
              "type": "address"
            },
            {
              "internalType": "bytes32",
              "name": "salt",
              "type": "bytes32"
            }
          ],
          "internalType": "struct DexKey",
          "name": "dexKey_",
          "type": "tuple"
        },
        {
          "internalType": "uint256",
          "name": "token0Amount_",
          "type": "uint256"
        },
        {
          "internalType": "uint256",
          "name": "token1Amount_",
          "type": "uint256"
        },
        {
          "internalType": "address",
          "name": "to_",
          "type": "address"
        },
        {
          "internalType": "uint256",
          "name": "priceMax_",
          "type": "uint256"
        },
        {
          "internalType": "uint256",
          "name": "priceMin_",
          "type": "uint256"
        }
      ],
      "name": "withdraw",
      "outputs": [],
      "stateMutability": "nonpayable",
      "type": "function"
    }
  ],
  "transactionHash": "0x81a822ec94b56c6d81952aeb99a7991f2f7be15b700ae3f0eb680a1fb9fe44e6",
  "args": [
    "0x52Aa899454998Be5b000Ad077a46Bbe360F4e497",
    "0x4EC7b668BAF70d4A4b0FC7941a7708A07b6d45Be"
  ],
  "numDeployments": 5,
  "solcInputHash": "01ac7e929e127ad55647774072118b53",
  "bytecode": "0x60e060405234801561000f575f5ffd5b5060405161464338038061464383398101604081905261002e91610064565b3060c0526001600160a01b039182166080521660a052610095565b80516001600160a01b038116811461005f575f5ffd5b919050565b5f5f60408385031215610075575f5ffd5b61007e83610049565b915061008c60208401610049565b90509250929050565b60805160a05160c05161452561011e5f395f8181610272015281816103510152818161054d0152818161076e01528181610acf01528181610d68015281816110cf01528181611470015281816117d401528181611b160152818161248501528181612587015261266a01525f8181611275015281816129bf01526135df01525f50506145255ff3fe6080604052600436106100ce575f3560e01c80636f25de781161007c578063ba53454c11610057578063ba53454c146101eb578063cb710d45146101fe578063e9c771b21461021d578063fe0595a31461023c575f5ffd5b80636f25de781461018e578063ab1ffc02146101ad578063b2408530146101cc575f5ffd5b806334196c64116100ac57806334196c64146101315780634f8db1ea14610150578063546143251461016f575f5ffd5b8063013405c1146100d25780630a3d95e5146100f3578063179bdf9c14610112575b5f5ffd5b3480156100dd575f5ffd5b506100f16100ec366004613a06565b61025b565b005b3480156100fe575f5ffd5b506100f161010d366004613a4b565b61033a565b34801561011d575f5ffd5b506100f161012c366004613a7d565b610536565b34801561013c575f5ffd5b506100f161014b366004613aa6565b610757565b34801561015b575f5ffd5b506100f161016a366004613ae5565b610ab8565b34801561017a575f5ffd5b506100f1610189366004613b16565b610d51565b348015610199575f5ffd5b506100f16101a8366004613b16565b6110b8565b3480156101b8575f5ffd5b506100f16101c7366004613b4d565b611459565b3480156101d7575f5ffd5b506100f16101e6366004613b16565b6117bd565b6100f16101f9366004613c7d565b611aff565b348015610209575f5ffd5b506100f1610218366004613da7565b61246e565b348015610228575f5ffd5b506100f1610237366004613e27565b612570565b348015610247575f5ffd5b506100f1610256366004613ae5565b612653565b73ffffffffffffffffffffffffffffffffffffffff7f00000000000000000000000000000000000000000000000000000000000000001630036102ca576040517f827e6c7500000000000000000000000000000000000000000000000000000000815260040160405180910390fd5b7f7e8134afb5ed35d36cb65e24b9a4712a52bb77d952806c1acf50970d2107797f81905560405173ffffffffffffffffffffffffffffffffffffffff821681527f116a7728df267da3fd3e4d5a3943585553ba46e2416287dbc49e275ac20f3c269060200160405180910390a150565b73ffffffffffffffffffffffffffffffffffffffff7f00000000000000000000000000000000000000000000000000000000000000001630036103a9576040517f827e6c7500000000000000000000000000000000000000000000000000000000815260040160405180910390fd5b5f826040516020016103bb9190613ea2565b604080517fffffffffffffffffffffffffffffffffffffffffffffffffffffffffffffffe081840301815291815281516020928301207fffffffffffffffff00000000000000000000000000000000000000000000000081165f90815260029093529082205490925090819003610487576040517f722948110000000000000000000000000000000000000000000000000000000081527fffffffffffffffff000000000000000000000000000000000000000000000000831660048201526024015b60405180910390fd5b601483610494575f610497565b60015b7fffffffffffffffff00000000000000000000000000000000000000000000000084165f90815260026020526040908190209190921b7fffffffffffffffffffffffffffffffffffffffffffffffffffffffffffcfffff8416179081905590517f7f2be73aa0d4fdbdb0f05733e6bf6aea23fc4ff062e20fa3b5a81180835894269161052891879186918890613eb0565b60405180910390a150505050565b73ffffffffffffffffffffffffffffffffffffffff7f00000000000000000000000000000000000000000000000000000000000000001630036105a5576040517f827e6c7500000000000000000000000000000000000000000000000000000000815260040160405180910390fd5b5f826040516020016105b79190613ea2565b604080517fffffffffffffffffffffffffffffffffffffffffffffffffffffffffffffffe081840301815291815281516020928301207fffffffffffffffff00000000000000000000000000000000000000000000000081165f9081526002909352908220549092509081900361067e576040517f722948110000000000000000000000000000000000000000000000000000000081527fffffffffffffffff0000000000000000000000000000000000000000000000008316600482015260240161047e565b82158061068d575062ffffff83115b156106c4576040517fa86b651200000000000000000000000000000000000000000000000000000000815260040160405180910390fd5b7fffffffffffffffff00000000000000000000000000000000000000000000000082165f908152600360205260409081902080547ffffffffffffffffffffffffffffffffffffffffffffffffffe000001ffffffff16602186901b179081905590517f376f9eadf790d01bd6a33e0d48bd73376b113fe21a2ea4b267bf3c81047f81bc9161052891879186918890613efd565b73ffffffffffffffffffffffffffffffffffffffff7f00000000000000000000000000000000000000000000000000000000000000001630036107c6576040517f827e6c7500000000000000000000000000000000000000000000000000000000815260040160405180910390fd5b5f856040516020016107d89190613ea2565b604080517fffffffffffffffffffffffffffffffffffffffffffffffffffffffffffffffe081840301815291815281516020928301207fffffffffffffffff00000000000000000000000000000000000000000000000081165f9081526002909352908220549092509081900361089f576040517f722948110000000000000000000000000000000000000000000000000000000081527fffffffffffffffff0000000000000000000000000000000000000000000000008316600482015260240161047e565b6108b56108af6020890189613a06565b876128c7565b6108ce6108c86040890160208a01613a06565b866128c7565b607e81901c601f166009811115610906576108ea600982613f75565b6108f590600a6140a1565b6108ff90886140d9565b9650610929565b610911816009613f75565b61091c90600a6140a1565b6109269088614111565b96505b608382901c601f16600981111561096157610945600982613f75565b61095090600a6140a1565b61095a90886140d9565b9650610984565b61096c816009613f75565b61097790600a6140a1565b6109819088614111565b96505b5f61099d89608886901c670fffffffffffffff16614128565b90505f6109ae8960c487901c614128565b7fffffffffffffffff00000000000000000000000000000000000000000000000087165f90815260026020526040812070ffffffffffffffffffffffffffffffffff97909716608885901b1760c483901b1796879055909150610a148c8789868661297d565b905088811180610a2357508781105b15610a6b576040517f060215b900000000000000000000000000000000000000000000000000000000815260048101829052602481018a90526044810189905260640161047e565b7f5215e0d1b2a71023436cdb272e4954aec234cb46d793100d02d1e955820badcf8c88888e8e604051610aa295949392919061413b565b60405180910390a1505050505050505050505050565b73ffffffffffffffffffffffffffffffffffffffff7f0000000000000000000000000000000000000000000000000000000000000000163003610b27576040517f827e6c7500000000000000000000000000000000000000000000000000000000815260040160405180910390fd5b5f83604051602001610b399190613ea2565b604080517fffffffffffffffffffffffffffffffffffffffffffffffffffffffffffffffe081840301815291815281516020928301207fffffffffffffffff00000000000000000000000000000000000000000000000081165f90815260029093529082205490925090819003610c00576040517f722948110000000000000000000000000000000000000000000000000000000081527fffffffffffffffff0000000000000000000000000000000000000000000000008316600482015260240161047e565b8215801590610c10575061271083105b15610c4a576040517fa7fbcd5e0000000000000000000000000000000000000000000000000000000081526004810184905260240161047e565b610c56612710846140d9565b9250611fff841180610c685750606483115b15610c9f576040517fa86b651200000000000000000000000000000000000000000000000000000000815260040160405180910390fd5b7fffffffffffffffff00000000000000000000000000000000000000000000000082165f9081526002602052604090207ffffffffffffffffffffffffffffffffffffffffffffffffffffffffffff0000082168517600d85901b17908190557fc5811e82a3e001f10b79bea9e9d8744e42416fd0328aa30af018fa3351f34343908690849087610d3161271089614111565b604051610d4295949392919061413b565b60405180910390a15050505050565b73ffffffffffffffffffffffffffffffffffffffff7f0000000000000000000000000000000000000000000000000000000000000000163003610dc0576040517f827e6c7500000000000000000000000000000000000000000000000000000000815260040160405180910390fd5b5f84604051602001610dd29190613ea2565b604080517fffffffffffffffffffffffffffffffffffffffffffffffffffffffffffffffe081840301815291815281516020928301207fffffffffffffffff00000000000000000000000000000000000000000000000081165f90815260029093529082205490925090819003610e99576040517f722948110000000000000000000000000000000000000000000000000000000081527fffffffffffffffff0000000000000000000000000000000000000000000000008316600482015260240161047e565b610ea46064866140d9565b9450610eb16064856140d9565b9350610ec06064612710613f75565b851180610ed85750610ed56064612710613f75565b84115b80610ee1575084155b80610eea575083155b80610ef75750620fffff83115b80610f0957506001605282901c166001145b15610f40576040517fa86b651200000000000000000000000000000000000000000000000000000000815260040160405180910390fd5b606184901b605386901b60525f8611610f59575f610f5c565b60015b7fffffffffffffffff00000000000000000000000000000000000000000000000086165f908152600260205260409020911b7fffffffffffffffffffffffffffffffffffff80000007ffffffffffffffffffff85161791909117919091179055613fff605382901c811690606183901c168415611018577fffffffffffffffff00000000000000000000000000000000000000000000000084165f908152600460205260409020600e82901b8317601c87901b174260301b1790555b7fffffffffffffffff00000000000000000000000000000000000000000000000084165f908152600260209081526040808320546004909252909120547f35c6dac8e06d7b162f4bd26386a89b1632a5f59830c7ffa4a45220db8b68ce48918a9187919061108760648d614111565b61109260648d614111565b8b6040516110a6979695949392919061418d565b60405180910390a15050505050505050565b73ffffffffffffffffffffffffffffffffffffffff7f0000000000000000000000000000000000000000000000000000000000000000163003611127576040517f827e6c7500000000000000000000000000000000000000000000000000000000815260040160405180910390fd5b5f846040516020016111399190613ea2565b604080517fffffffffffffffffffffffffffffffffffffffffffffffffffffffffffffffe081840301815291815281516020928301207fffffffffffffffff00000000000000000000000000000000000000000000000081165f90815260029093529082205490925090819003611200576040517f722948110000000000000000000000000000000000000000000000000000000081527fffffffffffffffff0000000000000000000000000000000000000000000000008316600482015260240161047e565b6207ffff85118061120f575083155b8061121c5750620fffff84115b80611225575082155b806112325750620fffff83115b15611269576040517fa86b651200000000000000000000000000000000000000000000000000000000815260040160405180910390fd5b841561134c575f61129a7f000000000000000000000000000000000000000000000000000000000000000087612dbe565b90506112a581613227565b507fffffffffffffffff00000000000000000000000000000000000000000000000082165f9081526002602090815260408083207ffffffffffffffffffffffffffffffffffffffffffffc00007fffffffffffffff8516603f8a901b17624000001790556003909152902080547ffffffffffffffffffc000000000000000001ffffffffffffffffffffffffffff16607186901b17608585901b174260991b1790556113d3565b7fffffffffffffffff00000000000000000000000000000000000000000000000082165f90815260026020908152604080832080547ffffffffffffffffffffffffffffffffffffffffffffc00007fffffffffffffff1690556003909152902080547ffffffffffffffffffc000000000000000001ffffffffffffffffffffffffffff1690555b7fffffffffffffffff00000000000000000000000000000000000000000000000082165f908152600260209081526040808320546003909252918290205491517f30642295ea4176e23cf68fd310f4a94e617b45ad97f54e541157229e634a618492611449928a928792908b908b908b9061418d565b60405180910390a1505050505050565b73ffffffffffffffffffffffffffffffffffffffff7f00000000000000000000000000000000000000000000000000000000000000001630036114c8576040517f827e6c7500000000000000000000000000000000000000000000000000000000815260040160405180910390fd5b5f866040516020016114da9190613ea2565b604080517fffffffffffffffffffffffffffffffffffffffffffffffffffffffffffffffe081840301815291815281516020928301207fffffffffffffffff00000000000000000000000000000000000000000000000081165f908152600290935290822054909250908190036115a1576040517f722948110000000000000000000000000000000000000000000000000000000081527fffffffffffffffff0000000000000000000000000000000000000000000000008316600482015260240161047e565b6115b86115b160208a018a613a06565b8887613292565b6115d26115cb60408a0160208b01613a06565b8787613292565b607e81901c601f16600981111561160a576115ee600982613f75565b6115f990600a6140a1565b61160390896140d9565b975061162d565b611615816009613f75565b61162090600a6140a1565b61162a9089614111565b97505b608382901c601f16600981111561166557611649600982613f75565b61165490600a6140a1565b61165e90896140d9565b9750611688565b611670816009613f75565b61167b90600a6140a1565b6116859089614111565b97505b5f6116a18a608886901c670fffffffffffffff16613f75565b90505f6116b28a60c487901c613f75565b7fffffffffffffffff00000000000000000000000000000000000000000000000087165f90815260026020526040812070ffffffffffffffffffffffffffffffffff97909716608885901b1760c483901b17968790559091506117188d8789868661297d565b90508881118061172757508781105b1561176f576040517f060215b900000000000000000000000000000000000000000000000000000000815260048101829052602481018a90526044810189905260640161047e565b7fc3f541673644e6c18d377e885be08b51d0d95367f2b038b3e83ecac980a77fba8d88888f8f6040516117a695949392919061413b565b60405180910390a150505050505050505050505050565b73ffffffffffffffffffffffffffffffffffffffff7f000000000000000000000000000000000000000000000000000000000000000016300361182c576040517f827e6c7500000000000000000000000000000000000000000000000000000000815260040160405180910390fd5b5f8460405160200161183e9190613ea2565b604080517fffffffffffffffffffffffffffffffffffffffffffffffffffffffffffffffe081840301815291815281516020928301207fffffffffffffffff00000000000000000000000000000000000000000000000081165f90815260029093529082205490925090819003611905576040517f722948110000000000000000000000000000000000000000000000000000000081527fffffffffffffffff0000000000000000000000000000000000000000000000008316600482015260240161047e565b611911612710866140d9565b945061191f612710856140d9565b935060648511806119305750606484115b8061194357508415801561194357505f84115b8061195657505f85118015611956575083155b806119635750620fffff83115b8061197557506001606f82901c166001145b156119ac576040517fa86b651200000000000000000000000000000000000000000000000000000000815260040160405180910390fd5b607784901b607086901b606f5f86116119c5575f6119c8565b60015b7fffffffffffffffff00000000000000000000000000000000000000000000000086165f908152600260205260409020911b7fffffffffffffffffffffffffffffffffc000ffffffffffffffffffffffffffff85161791909117919091179055607f607082901c811690607783901c168415611a83577fffffffffffffffff00000000000000000000000000000000000000000000000084165f908152600560205260409020600782901b8317600e87901b174260221b1790555b7fffffffffffffffff00000000000000000000000000000000000000000000000084165f908152600260209081526040808320546005909252909120547fab364b1339c5d754b249cb39f82ef00a3881d1d97bdc631b109a10e2d8845e36918a91879190611af36127108d614111565b6110926127108d614111565b73ffffffffffffffffffffffffffffffffffffffff7f0000000000000000000000000000000000000000000000000000000000000000163003611b6e576040517f827e6c7500000000000000000000000000000000000000000000000000000000815260040160405180910390fd5b80515173ffffffffffffffffffffffffffffffffffffffff161580611bac575080516020015173ffffffffffffffffffffffffffffffffffffffff16155b80611bd8575080516020810151905173ffffffffffffffffffffffffffffffffffffffff918216911610155b15611c3957805180516020909101516040517f96545c2200000000000000000000000000000000000000000000000000000000815273ffffffffffffffffffffffffffffffffffffffff92831660048201529116602482015260440161047e565b611c8d6040518060e001604052805f77ffffffffffffffffffffffffffffffffffffffffffffffff191681526020015f81526020015f81526020015f81526020015f81526020015f81526020015f81525090565b8151604051611c9f91906020016141ef565b604080517fffffffffffffffffffffffffffffffffffffffffffffffffffffffffffffffe081840301815291815281516020928301207fffffffffffffffff000000000000000000000000000000000000000000000000168084525f908152600290925290205415611d645780516040517f242728a90000000000000000000000000000000000000000000000000000000081527fffffffffffffffff000000000000000000000000000000000000000000000000909116600482015260240161047e565b81515173ffffffffffffffffffffffffffffffffffffffff1673eeeeeeeeeeeeeeeeeeeeeeeeeeeeeeeeeeeeeeee14611e1257815f01515f015173ffffffffffffffffffffffffffffffffffffffff1663313ce5676040518163ffffffff1660e01b8152600401602060405180830381865afa158015611de6573d5f5f3e3d5ffd5b505050506040513d601f19601f82011682018060405250810190611e0a9190614240565b60ff16611e15565b60125b6020808301919091528251015173ffffffffffffffffffffffffffffffffffffffff1673eeeeeeeeeeeeeeeeeeeeeeeeeeeeeeeeeeeeeeee14611ece57815f01516020015173ffffffffffffffffffffffffffffffffffffffff1663313ce5676040518163ffffffff1660e01b8152600401602060405180830381865afa158015611ea2573d5f5f3e3d5ffd5b505050506040513d601f19601f82011682018060405250810190611ec69190614240565b60ff16611ed1565b60125b60408083019190915282015115801590611ef057506127108260400151105b15611f2f5781604001516040517fa7fbcd5e00000000000000000000000000000000000000000000000000000000815260040161047e91815260200190565b6127108260400151611f4191906140d9565b604083015260c0820151611f57906064906140d9565b60c083015260e0820151611f6d906064906140d9565b60e0830152610100820151611f8590612710906140d9565b610100830152610120820151611f9e90612710906140d9565b6101208301526020820151611fff1080611fbc575060648260400151115b80611fd05750816101600151826080015111155b80611fe45750816101800151826080015110155b80611ff557506207ffff8260a00151115b8061200f57506120086064612710613f75565b8260c00151115b8061202957506120226064612710613f75565b8260e00151115b80612036575060c0820151155b80612043575060e0820151155b8061205357506064826101000151115b8061206357506064826101200151115b80612080575061010082015115801561208057505f826101200151115b8061209d57505f82610100015111801561209d5750610120820151155b806120ab5750610140820151155b806120bd575062ffffff826101400151115b806120cb5750610160820151155b806120da575060208101516006115b806120e9575060208101516012105b806120f8575060408101516006115b80612107575060408101516012105b1561213e576040517fa86b651200000000000000000000000000000000000000000000000000000000815260040160405180910390fd5b8151516101a083015161215191906128c7565b612167825f015160200151836101c001516128c7565b61217481602001516132f5565b60808301526060820152604081015161218c906132f5565b60c0830181905260a083018290526101c084015160c4926121ac91614111565b6121b691906140d9565b901b608882608001518360600151856101a001516121d49190614111565b6121de91906140d9565b901b60838360400151901b607e8460200151901b6077866101200151901b6070876101000151901b60618860e00151901b60538960c00151901b603f8a60a00151901b60176122358c60800151602060085f613341565b901b60148c60600151612248575f61224b565b60015b901b600d8d60400151901b5f8e60200151901b17171717171717171717171760025f835f015177ffffffffffffffffffffffffffffffffffffffffffffffff191677ffffffffffffffffffffffffffffffffffffffffffffffff191681526020019081526020015f208190555060556122cd836101600151601460085f613341565b901b60396122e5846101800151601460086001613341565b61014085015184517fffffffffffffffff0000000000000000000000000000000000000000000000009081165f9081526003602081815260408084204260219790971b969096179690971b9590951796909617909255865160018054808201825590845281519087027fb10e2d527612073b26eecdfd717e6a320cf44b4afac2b0732d9fcbe2b7fa0cf68101805473ffffffffffffffffffffffffffffffffffffffff9384167fffffffffffffffffffffffff000000000000000000000000000000000000000091821617909155838701517fb10e2d527612073b26eecdfd717e6a320cf44b4afac2b0732d9fcbe2b7fa0cf78301805491909416911617909155908501517fb10e2d527612073b26eecdfd717e6a320cf44b4afac2b0732d9fcbe2b7fa0cf89091015586518651808316845260028552858420548851909316845295909352908390205492517f0f3c8652ed6961216fd2437ded3dd9abbdf4661d9c3e37fad5e62e335d99f68294612462949092918890614260565b60405180910390a15050565b73ffffffffffffffffffffffffffffffffffffffff7f00000000000000000000000000000000000000000000000000000000000000001630036124dd576040517f827e6c7500000000000000000000000000000000000000000000000000000000815260040160405180910390fd5b5f5b84811015612538576125308686838181106124fc576124fc6143cd565b90506020020160208101906125119190613a06565b858584818110612523576125236143cd565b9050602002013584613292565b6001016124df565b507f1d5b4b04795ebb3901db9b61da375220c34f0661b7f6068a43831ce89d14df108585858585604051610d429594939291906143fa565b73ffffffffffffffffffffffffffffffffffffffff7f00000000000000000000000000000000000000000000000000000000000000001630036125df576040517f827e6c7500000000000000000000000000000000000000000000000000000000815260040160405180910390fd5b806125ea575f6125ed565b60015b73ffffffffffffffffffffffffffffffffffffffff83165f818152602081815260409182902060ff949094169093558051918252831515928201929092527fb873643b3104ddd26927dec7f9a08aa22d03ac20ada0295a2de7e1a6c60f2a519101612462565b73ffffffffffffffffffffffffffffffffffffffff7f00000000000000000000000000000000000000000000000000000000000000001630036126c2576040517f827e6c7500000000000000000000000000000000000000000000000000000000815260040160405180910390fd5b5f836040516020016126d49190613ea2565b604080517fffffffffffffffffffffffffffffffffffffffffffffffffffffffffffffffe081840301815291815281516020928301207fffffffffffffffff00000000000000000000000000000000000000000000000081165f9081526002909352908220549092509081900361279b576040517f722948110000000000000000000000000000000000000000000000000000000081527fffffffffffffffff0000000000000000000000000000000000000000000000008316600482015260240161047e565b63ffffffff601f82901c1660ff601783901c161b83851115806127be5750838111155b806127c95750848110155b806127d2575083155b15612809576040517fa86b651200000000000000000000000000000000000000000000000000000000815260040160405180910390fd5b605561281985601460085f613341565b901b603961282c87601460086001613341565b7fffffffffffffffff00000000000000000000000000000000000000000000000086165f908152600360205260409081902080547ffffffffffffffffffffffffffffffffffffe00000000000001ffffffffffffff169290931b91909117929092179081905590517f0e0abfebb6263ebebbb763cf6b606b7b2d7ebee45238589e982a1737831e38789161144991899187918a908a9061413b565b805f036128d2575050565b7fffffffffffffffffffffffff111111111111111111111111111111111111111273ffffffffffffffffffffffffffffffffffffffff8316016129715780341015612952576040517f7cb769dc0000000000000000000000000000000000000000000000000000000081523460048201526024810182905260440161047e565b8034111561296d5761296d336129688334613f75565b613467565b5050565b61296d823330846134b0565b5f5f6001601687901c165f03612ab6576207ffff603f87901c169050805f036129ba575063ffffffff601f86901c1660ff601787901c161b612ad2565b6129e47f000000000000000000000000000000000000000000000000000000000000000082612dbe565b73ffffffffffffffffffffffffffffffffffffffff166302c59a68612a0c60208a018a613a06565b612a1c60408b0160208c01613a06565b6040517fffffffff0000000000000000000000000000000000000000000000000000000060e085901b16815273ffffffffffffffffffffffffffffffffffffffff9283166004820152911660248201526044016020604051808303815f875af1158015612a8b573d5f5f3e3d5ffd5b505050506040513d601f19601f82011682018060405250810190612aaf91906144be565b9050612ad2565b612acf612ac8368990038901896144d5565b8787613573565b90505b613fff605387901c811690606188901c166001605289901c81169003612b0357612afd828289613729565b90925090505b5f5f8361271003612710860281612b1c57612b1c6140ac565b04915050612710828103850204600360148b901c165f6001821115612ca55781600203612bb957507fffffffffffffffff0000000000000000000000000000000000000000000000008a165f90815260036020526040902054602181901c62ffffff166401ffffffff8216420381811015612bae5781818a88030281612ba457612ba46140ac565b0489019850612bb2565b8598505b5050612c33565b81600303612c3357507fffffffffffffffff0000000000000000000000000000000000000000000000008a165f90815260036020526040902054602181901c62ffffff166401ffffffff8216420381811015612c2c578181868b030281612c2257612c226140ac565b0489039850612c30565b8498505b50505b8015612ca557620fffff604182901c1660ff603983901c161b915081871115612c5e57819650612c7f565b620fffff605d82901c1660ff605583901c161b915081871015612c7f578196505b8561271003612710880281612c9657612c966140ac565b04935061271085810388020492505b6f4b3b4ca85a86c47a098a224000000000841015612ccf57612cc88385026137c6565b9150612cfb565b612cee670de0b6b3a76400008404670de0b6b3a76400008604026137c6565b670de0b6b3a76400000291505b5f5f6b033b2e3c9fd0803ce8000000841015612d2757612d1d84878e8e613878565b9092509050612d84565b612d7f84760a70c3c40a64e6c51999090b65f67d924000000000000081612d5057612d506140ac565b0486760a70c3c40a64e6c51999090b65f67d924000000000000081612d7757612d776140ac565b048d8f613878565b925090505b908b01908a0181612da16b033b2e3c9fd0803ce800000083614111565b612dab91906140d9565b9f9e505050505050505050505050505050565b5f6060825f03612dd1575f915050613221565b607f8311612e9a576040517fd60000000000000000000000000000000000000000000000000000000000000060208201527f940000000000000000000000000000000000000000000000000000000000000060218201527fffffffffffffffffffffffffffffffffffffffff000000000000000000000000606086901b16602282015260f884901b7fff000000000000000000000000000000000000000000000000000000000000001660368201526037015b6040516020818303038152906040529050613216565b60ff8311612f77576040517fd70000000000000000000000000000000000000000000000000000000000000060208201527f940000000000000000000000000000000000000000000000000000000000000060218201527fffffffffffffffffffffffffffffffffffffffff000000000000000000000000606086901b1660228201527f8100000000000000000000000000000000000000000000000000000000000000603682015260f884901b7fff00000000000000000000000000000000000000000000000000000000000000166037820152603801612e84565b61ffff8311613055576040517fd80000000000000000000000000000000000000000000000000000000000000060208201527f940000000000000000000000000000000000000000000000000000000000000060218201527fffffffffffffffffffffffffffffffffffffffff000000000000000000000000606086901b1660228201527f820000000000000000000000000000000000000000000000000000000000000060368201527fffff00000000000000000000000000000000000000000000000000000000000060f085901b166037820152603901612e84565b62ffffff8311613134576040517fd90000000000000000000000000000000000000000000000000000000000000060208201527f940000000000000000000000000000000000000000000000000000000000000060218201527fffffffffffffffffffffffffffffffffffffffff000000000000000000000000606086901b1660228201527f830000000000000000000000000000000000000000000000000000000000000060368201527fffffff000000000000000000000000000000000000000000000000000000000060e885901b166037820152603a01612e84565b6040517fda0000000000000000000000000000000000000000000000000000000000000060208201527f940000000000000000000000000000000000000000000000000000000000000060218201527fffffffffffffffffffffffffffffffffffffffff000000000000000000000000606086901b1660228201527f840000000000000000000000000000000000000000000000000000000000000060368201527fffffffff0000000000000000000000000000000000000000000000000000000060e085901b166037820152603b0160405160208183030381529060405290505b805160209091012090505b92915050565b8073ffffffffffffffffffffffffffffffffffffffff163b5f0361328f576040517fc57d2e8200000000000000000000000000000000000000000000000000000000815273ffffffffffffffffffffffffffffffffffffffff8216600482015260240161047e565b50565b815f0361329e57505050565b7fffffffffffffffffffffffff111111111111111111111111111111111111111273ffffffffffffffffffffffffffffffffffffffff8416016132ea576132e58183613467565b505050565b6132e58382846138f1565b5f5f6009831115613321576001915061330f600984613f75565b61331a90600a6140a1565b9050915091565b61332c836009613f75565b61333790600a6140a1565b9360019350915050565b5f5f856fffffffffffffffffffffffffffffffff8111156133635760809150811c5b67ffffffffffffffff81111561337b576040918201911c5b63ffffffff81111561338f576020918201911c5b61ffff8111156133a1576010918201911c5b60ff8111156133b2576008918201911c5b600f8111156133c3576004918201911c5b60038111156133d4576002918201911c5b60018111156133e4576001820191505b80156133f1576001820191505b50848110156133fd5750835b848103905085811c5f821184161561344b57600181019050806001871b0361344b57506001908101907fffffffffffffffffffffffffffffffffffffffffffffffffffffffffffffffff86011b5b6001851b8210613459575f5ffd5b90931b909201949350505050565b5f5f5f5f5f8587614e20f19050806132e5576040517fdee51a8a0000000000000000000000000000000000000000000000000000000081526201155a600482015260240161047e565b5f6040517f23b872dd00000000000000000000000000000000000000000000000000000000815273ffffffffffffffffffffffffffffffffffffffff8516600482015273ffffffffffffffffffffffffffffffffffffffff8416602482015282604482015260205f6064835f8a5af13d15601f3d1160015f51141617169150508061356c576040517fdee51a8a00000000000000000000000000000000000000000000000000000000815262011559600482015260240161047e565b5050505050565b7fffffffffffffffff00000000000000000000000000000000000000000000000081165f90815260036020526040812054601f84901c63ffffffff16601785901c60ff161b906401ffffffff609982901c81169082168181116135d657816135d8565b805b905061360d7f00000000000000000000000000000000000000000000000000000000000000006207ffff603f8a901c16612dbe565b885160208a01516040517f02c59a6800000000000000000000000000000000000000000000000000000000815273ffffffffffffffffffffffffffffffffffffffff928316600482015290821660248201529116906302c59a68906044016020604051808303815f875af1158015613687573d5f5f3e3d5ffd5b505050506040513d601f19601f820116820180604052508101906136ab91906144be565b94505f620f4240620fffff608586901c1602824203620fffff607187901c16870202816136da576136da6140ac565b049050848611156136fe5793840193848611156136f95784955061371d565b61371d565b80851161370b575f61370f565b8085035b94508486101561371d578495505b50505050509392505050565b7fffffffffffffffff00000000000000000000000000000000000000000000000081165f908152600460205260408120548190601c81901c620fffff16603082901c6401ffffffff168342828401101561378c57888895509550505050506137be565b50428190036137a189613fff86168386613997565b6137b589613fff600e88901c168487613997565b95509550505050505b935093915050565b60b5817101000000000000000000000000000000000081106137ed5760409190911b9060801c5b690100000000000000000081106138095760209190911b9060401c5b6501000000000081106138215760109190911b9060201c5b630100000081106138375760089190911b9060101c5b62010000010260121c80820401600190811c80830401811c80830401811c80830401811c80830401811c80830401811c80830401901c908190048111900390565b5f8085850381600282028689026b033b2e3c9fd0803ce8000000870201816138a2576138a26140ac565b0490506138d1818202836b033b2e3c9fd0803ce8000000888a0202816138ca576138ca6140ac565b04016137c6565b01976b033b2e3c9fd0803ce8000000978902979097049695505050505050565b5f6040517fa9059cbb00000000000000000000000000000000000000000000000000000000815273ffffffffffffffffffffffffffffffffffffffff8416600482015282602482015260205f6044835f895af13d15601f3d1160015f511416171691505080613991576040517fdee51a8a0000000000000000000000000000000000000000000000000000000081526201155a600482015260240161047e565b50505050565b5f838511156139bd57818385870302816139b3576139b36140ac565b04840190506139d6565b818386860302816139d0576139d06140ac565b04840390505b949350505050565b803573ffffffffffffffffffffffffffffffffffffffff81168114613a01575f5ffd5b919050565b5f60208284031215613a16575f5ffd5b613a1f826139de565b9392505050565b5f60608284031215613a36575f5ffd5b50919050565b80358015158114613a01575f5ffd5b5f5f60808385031215613a5c575f5ffd5b613a668484613a26565b9150613a7460608401613a3c565b90509250929050565b5f5f60808385031215613a8e575f5ffd5b613a988484613a26565b946060939093013593505050565b5f5f5f5f5f60e08688031215613aba575f5ffd5b613ac48787613a26565b976060870135975060808701359660a0810135965060c00135945092505050565b5f5f5f60a08486031215613af7575f5ffd5b613b018585613a26565b95606085013595506080909401359392505050565b5f5f5f5f60c08587031215613b29575f5ffd5b613b338686613a26565b966060860135965060808601359560a00135945092505050565b5f5f5f5f5f5f6101008789031215613b63575f5ffd5b613b6d8888613a26565b95506060870135945060808701359350613b8960a088016139de565b9598949750929560c08101359460e0909101359350915050565b6040516101e0810167ffffffffffffffff81118282101715613bec577f4e487b71000000000000000000000000000000000000000000000000000000005f52604160045260245ffd5b60405290565b5f60608284031215613c02575f5ffd5b6040516060810167ffffffffffffffff81118282101715613c4a577f4e487b71000000000000000000000000000000000000000000000000000000005f52604160045260245ffd5b604052905080613c59836139de565b8152613c67602084016139de565b6020820152604092830135920191909152919050565b5f610220828403128015613c8f575f5ffd5b50613c98613ba3565b613ca28484613bf2565b81526060830135602082015260808301356040820152613cc460a08401613a3c565b606082015260c083810135608083015260e08085013560a0840152610100808601359284019290925261012080860135918401919091526101408086013592840192909252610160808601359184019190915261018080860135928401929092526101a080860135918401919091526101c080860135928401929092526101e085013590830152610200909301359281019290925250919050565b5f5f83601f840112613d6f575f5ffd5b50813567ffffffffffffffff811115613d86575f5ffd5b6020830191508360208260051b8501011115613da0575f5ffd5b9250929050565b5f5f5f5f5f60608688031215613dbb575f5ffd5b853567ffffffffffffffff811115613dd1575f5ffd5b613ddd88828901613d5f565b909650945050602086013567ffffffffffffffff811115613dfc575f5ffd5b613e0888828901613d5f565b9094509250613e1b9050604087016139de565b90509295509295909350565b5f5f60408385031215613e38575f5ffd5b613e41836139de565b9150613a7460208401613a3c565b73ffffffffffffffffffffffffffffffffffffffff613e6d826139de565b16825273ffffffffffffffffffffffffffffffffffffffff613e91602083016139de565b166020830152604090810135910152565b606081016132218284613e4f565b60c08101613ebe8287613e4f565b7fffffffffffffffff0000000000000000000000000000000000000000000000008516606083015283608083015282151560a083015295945050505050565b60c08101613f0b8287613e4f565b7fffffffffffffffff000000000000000000000000000000000000000000000000851660608301528360808301528260a083015295945050505050565b7f4e487b71000000000000000000000000000000000000000000000000000000005f52601160045260245ffd5b8181038181111561322157613221613f48565b6001815b60018411156137be57808504811115613fa757613fa7613f48565b6001841615613fb557908102905b60019390931c928002613f8c565b5f82613fd157506001613221565b81613fdd57505f613221565b8160018114613ff35760028114613ffd57614019565b6001915050613221565b60ff84111561400e5761400e613f48565b50506001821b613221565b5060208310610133831016604e8410600b841016171561403c575081810a613221565b6140677fffffffffffffffffffffffffffffffffffffffffffffffffffffffffffffffff8484613f88565b807fffffffffffffffffffffffffffffffffffffffffffffffffffffffffffffffff0482111561409957614099613f48565b029392505050565b5f613a1f8383613fc3565b7f4e487b71000000000000000000000000000000000000000000000000000000005f52601260045260245ffd5b5f8261410c577f4e487b71000000000000000000000000000000000000000000000000000000005f52601260045260245ffd5b500490565b808202811582820484141761322157613221613f48565b8082018082111561322157613221613f48565b60e081016141498288613e4f565b7fffffffffffffffff000000000000000000000000000000000000000000000000861660608301528460808301528360a08301528260c08301529695505050505050565b610120810161419c828a613e4f565b7fffffffffffffffff000000000000000000000000000000000000000000000000881660608301528660808301528560a08301528460c08301528360e08301528261010083015298975050505050505050565b60608101613221828473ffffffffffffffffffffffffffffffffffffffff815116825273ffffffffffffffffffffffffffffffffffffffff6020820151166020830152604081015160408301525050565b5f60208284031215614250575f5ffd5b815160ff81168114613a1f575f5ffd5b6102e081016142b2828873ffffffffffffffffffffffffffffffffffffffff815116825273ffffffffffffffffffffffffffffffffffffffff6020820151166020830152604081015160408301525050565b7fffffffffffffffff000000000000000000000000000000000000000000000000861660608301526080820185905260a082018490528251805173ffffffffffffffffffffffffffffffffffffffff90811660c085015260208201511660e08401526040015161010083015260208301516101208301526040830151610140830152606083015180151561016084015250608083015161018083015260a08301516101a083015260c08301516101c083015260e08301516101e08301526101008301516102008301526101208301516102208301526101408301516102408301526101608301516102608301526101808301516102808301526101a08301516102a08301526101c08301516102c08301529695505050505050565b7f4e487b71000000000000000000000000000000000000000000000000000000005f52603260045260245ffd5b606080825281018590525f8660808301825b888110156144475773ffffffffffffffffffffffffffffffffffffffff614432846139de565b1682526020928301929091019060010161440c565b5083810360208501528581527f07ffffffffffffffffffffffffffffffffffffffffffffffffffffffffffffff86111561447f575f5ffd5b8560051b9150818760208301370160200190506144b4604083018473ffffffffffffffffffffffffffffffffffffffff169052565b9695505050505050565b5f602082840312156144ce575f5ffd5b5051919050565b5f606082840312156144e5575f5ffd5b613a1f8383613bf256fea26469706673582212205847db432c178844b9816f57b6601a90e5e3103847e4d19279c6e35db57b76f964736f6c634300081d0033",
  "devdoc": {
    "kind": "dev",
    "methods": {
      "collectRevenue(address[],uint256[],address)": {
        "details": "collect revenue from the dex",
        "params": {
          "amounts_": "the amounts of tokens to collect revenue from",
          "to_": "the address to send the tokens to",
          "tokens_": "the tokens to collect revenue from"
        }
      },
      "deposit((address,address,bytes32),uint256,uint256,uint256,uint256)": {
        "details": "deposit tokens into the dex",
        "params": {
          "dexKey_": "the dex key",
          "token0Amount_": "the token0 amount",
          "token1Amount_": "the token1 amount"
        }
      },
      "initialize(((address,address,bytes32),uint256,uint256,bool,uint256,uint256,uint256,uint256,uint256,uint256,uint256,uint256,uint256,uint256,uint256))": {
        "details": "initialize the dex",
        "params": {
          "i_": "the initialize params"
        }
      },
      "updateAuth(address,bool)": {
        "details": "update the auth for the dex",
        "params": {
          "auth_": "the address to update auth for",
          "isAuth_": "the auth status"
        }
      },
      "updateCenterPriceAddress((address,address,bytes32),uint256,uint256,uint256)": {
        "details": "update the center price address (nonce) for the dex",
        "params": {
          "centerPriceAddress_": "nonce < X19, this nonce will be used to calculate contract address",
          "dexKey_": "the dex key",
          "percent_": "in 4 decimals, 10000 = 1%",
          "time_": "in secs, in how much time the center price should be fully shifted."
        }
      },
      "updateCenterPriceLimits((address,address,bytes32),uint256,uint256)": {
        "details": "update the center price limits for the dex",
        "params": {
          "dexKey_": "the dex key",
          "maxCenterPrice_": "1:1 means 1e27 ",
          "minCenterPrice_": "1:1 means 1e27"
        }
      },
      "updateExtraDataAddress(address)": {
        "details": "update the extra data address in storage slot",
        "params": {
          "extraDataAddress_": "the address to set in the extra data slot"
        }
      },
      "updateFeeAndRevenueCut((address,address,bytes32),uint256,uint256)": {
        "details": "update the fee and revenue cut for the dex",
        "params": {
          "dexKey_": "the dex key",
          "fee_": "in 4 decimals, 10000 = 1%",
          "revenueCut_": "in 4 decimals, 10000 = 1%"
        }
      },
      "updateRangePercents((address,address,bytes32),uint256,uint256,uint256)": {
        "details": "update the range percents for the dex",
        "params": {
          "dexKey_": "the dex key",
          "lowerPercent_": "in 4 decimals, 10000 = 1%",
          "shiftTime_": "in secs, in how much time the upper percent configs change should be fully done",
          "upperPercent_": "in 4 decimals, 10000 = 1%"
        }
      },
      "updateRebalancingStatus((address,address,bytes32),bool)": {
        "details": "update the rebalancing status for the dex",
        "params": {
          "dexKey_": "the dex key",
          "rebalancingStatus_": "the rebalancing status (true = on, false = off)"
        }
      },
      "updateShiftTime((address,address,bytes32),uint256)": {
        "details": "update the shift time for the dex for rebalancing",
        "params": {
          "dexKey_": "the dex key",
          "shiftTime_": "in secs, in how much time rebalancing should be fully done."
        }
      },
      "updateThresholdPercent((address,address,bytes32),uint256,uint256,uint256)": {
        "details": "update the threshold percent for the dex",
        "params": {
          "dexKey_": "the dex key",
          "lowerThresholdPercent_": "in 4 decimals, 10000 = 1%",
          "shiftTime_": "in secs, in how much time the upper config changes should be fully done.",
          "upperThresholdPercent_": "in 4 decimals, 10000 = 1%"
        }
      },
      "withdraw((address,address,bytes32),uint256,uint256,address,uint256,uint256)": {
        "details": "withdraw tokens from the dex",
        "params": {
          "dexKey_": "the dex key",
          "to_": "the address to send the tokens to",
          "token0Amount_": "the token0 amount",
          "token1Amount_": "the token1 amount"
        }
      }
    },
    "version": 1
  },
  "userdoc": {
    "kind": "user",
    "methods": {},
    "version": 1
  },
  "storageLayout": {
    "storage": [
      {
        "astId": 4598,
        "contract": "contracts/protocols/dexLite/adminModule/main.sol:FluidDexLiteAdminModule",
        "label": "_isAuth",
        "offset": 0,
        "slot": "0",
        "type": "t_mapping(t_address,t_uint256)"
      },
      {
        "astId": 4603,
        "contract": "contracts/protocols/dexLite/adminModule/main.sol:FluidDexLiteAdminModule",
        "label": "_dexesList",
        "offset": 0,
        "slot": "1",
        "type": "t_array(t_struct(DexKey)4579_storage)dyn_storage"
      },
      {
        "astId": 4608,
        "contract": "contracts/protocols/dexLite/adminModule/main.sol:FluidDexLiteAdminModule",
        "label": "_dexVariables",
        "offset": 0,
        "slot": "2",
        "type": "t_mapping(t_bytes8,t_uint256)"
      },
      {
        "astId": 4613,
        "contract": "contracts/protocols/dexLite/adminModule/main.sol:FluidDexLiteAdminModule",
        "label": "_centerPriceShift",
        "offset": 0,
        "slot": "3",
        "type": "t_mapping(t_bytes8,t_uint256)"
      },
      {
        "astId": 4618,
        "contract": "contracts/protocols/dexLite/adminModule/main.sol:FluidDexLiteAdminModule",
        "label": "_rangeShift",
        "offset": 0,
        "slot": "4",
        "type": "t_mapping(t_bytes8,t_uint256)"
      },
      {
        "astId": 4623,
        "contract": "contracts/protocols/dexLite/adminModule/main.sol:FluidDexLiteAdminModule",
        "label": "_thresholdShift",
        "offset": 0,
        "slot": "5",
        "type": "t_mapping(t_bytes8,t_uint256)"
      }
    ],
    "types": {
      "t_address": {
        "encoding": "inplace",
        "label": "address",
        "numberOfBytes": "20"
      },
      "t_array(t_struct(DexKey)4579_storage)dyn_storage": {
        "base": "t_struct(DexKey)4579_storage",
        "encoding": "dynamic_array",
        "label": "struct DexKey[]",
        "numberOfBytes": "32"
      },
      "t_bytes32": {
        "encoding": "inplace",
        "label": "bytes32",
        "numberOfBytes": "32"
      },
      "t_bytes8": {
        "encoding": "inplace",
        "label": "bytes8",
        "numberOfBytes": "8"
      },
      "t_mapping(t_address,t_uint256)": {
        "encoding": "mapping",
        "key": "t_address",
        "label": "mapping(address => uint256)",
        "numberOfBytes": "32",
        "value": "t_uint256"
      },
      "t_mapping(t_bytes8,t_uint256)": {
        "encoding": "mapping",
        "key": "t_bytes8",
        "label": "mapping(bytes8 => uint256)",
        "numberOfBytes": "32",
        "value": "t_uint256"
      },
      "t_struct(DexKey)4579_storage": {
        "encoding": "inplace",
        "label": "struct DexKey",
        "members": [
          {
            "astId": 4574,
            "contract": "contracts/protocols/dexLite/adminModule/main.sol:FluidDexLiteAdminModule",
            "label": "token0",
            "offset": 0,
            "slot": "0",
            "type": "t_address"
          },
          {
            "astId": 4576,
            "contract": "contracts/protocols/dexLite/adminModule/main.sol:FluidDexLiteAdminModule",
            "label": "token1",
            "offset": 0,
            "slot": "1",
            "type": "t_address"
          },
          {
            "astId": 4578,
            "contract": "contracts/protocols/dexLite/adminModule/main.sol:FluidDexLiteAdminModule",
            "label": "salt",
            "offset": 0,
            "slot": "2",
            "type": "t_bytes32"
          }
        ],
        "numberOfBytes": "96"
      },
      "t_uint256": {
        "encoding": "inplace",
        "label": "uint256",
        "numberOfBytes": "32"
      }
    }
  }
}