{
  "address": "0xb2875c793CE2277dE813953D7306506E87842b76",
  "abi": [
    {
      "inputs": [
        {
          "internalType": "address",
          "name": "liquidity_",
          "type": "address"
        }
      ],
      "stateMutability": "nonpayable",
      "type": "constructor"
    },
    {
      "inputs": [
        {
          "internalType": "uint256",
          "name": "errorId_",
          "type": "uint256"
        }
      ],
      "name": "FluidConfigError",
      "type": "error"
    },
    {
      "anonymous": false,
      "inputs": [
        {
          "indexed": false,
          "internalType": "address",
          "name": "token",
          "type": "address"
        }
      ],
      "name": "LogInitiateRateDateV2Params",
      "type": "event"
    },
    {
      "anonymous": false,
      "inputs": [
        {
          "indexed": false,
          "internalType": "address",
          "name": "token",
          "type": "address"
        }
      ],
      "name": "LogInitiateTokenConfig",
      "type": "event"
    },
    {
      "inputs": [],
      "name": "LIQUIDITY",
      "outputs": [
        {
          "internalType": "contract IFluidLiquidity",
          "name": "",
          "type": "address"
        }
      ],
      "stateMutability": "view",
      "type": "function"
    },
    {
      "inputs": [],
      "name": "TEAM_MULTISIG",
      "outputs": [
        {
          "internalType": "address",
          "name": "",
          "type": "address"
        }
      ],
      "stateMutability": "view",
      "type": "function"
    },
    {
      "inputs": [
        {
          "internalType": "address",
          "name": "token_",
          "type": "address"
        }
      ],
      "name": "initializeRateDataV2",
      "outputs": [],
      "stateMutability": "nonpayable",
      "type": "function"
    },
    {
      "inputs": [
        {
          "internalType": "address",
          "name": "token_",
          "type": "address"
        }
      ],
      "name": "initializeTokenConfig",
      "outputs": [],
      "stateMutability": "nonpayable",
      "type": "function"
    }
  ],
  "transactionHash": "0x369ef96c5bddccba2a39d86e4deeabe58ab908ae3794180efcb9700a574d3bb8",
  "args": [
    "0x52Aa899454998Be5b000Ad077a46Bbe360F4e497"
  ],
  "numDeployments": 1,
  "solcInputHash": "f3cf2c40e624198f9fb1174669d3ec19",
  "bytecode": "0x60a060405234801561001057600080fd5b50604051610a19380380610a1983398101604081905261002f91610070565b6001600160a01b03811661005f57604051636801712d60e11b8152620186d5600482015260240160405180910390fd5b6001600160a01b03166080526100a0565b60006020828403121561008257600080fd5b81516001600160a01b038116811461009957600080fd5b9392505050565b6080516109436100d6600039600081816056015281816101ad0152818161035a015281816104f001526106cb01526109436000f3fe608060405234801561001057600080fd5b506004361061004c5760003560e01c80632861c7d1146100515780632d513e2d146100a15780638039c940146100b6578063b788f3a1146100c9575b600080fd5b6100787f000000000000000000000000000000000000000000000000000000000000000081565b60405173ffffffffffffffffffffffffffffffffffffffff909116815260200160405180910390f35b6100b46100af366004610783565b6100e4565b005b6100b46100c4366004610783565b610411565b610078734f6f977acdd1177dcd81ab83074855ecb9c2d49e81565b734f6f977acdd1177dcd81ab83074855ecb9c2d49e331461013b576040517fd002e25a000000000000000000000000000000000000000000000000000000008152620186d360048201526024015b60405180910390fd5b6040805173ffffffffffffffffffffffffffffffffffffffff838116602080840191909152600583850152835180840385018152606084019485905280519101207fb5c736e40000000000000000000000000000000000000000000000000000000090935260648201929092526000917f0000000000000000000000000000000000000000000000000000000000000000169063b5c736e490608401602060405180830381865afa1580156101f4573d6000803e3d6000fd5b505050506040513d601f19601f8201168201806040525081019061021891906107c0565b90508015610257576040517fd002e25a000000000000000000000000000000000000000000000000000000008152620186d46004820152602401610132565b6040805160808101825273ffffffffffffffffffffffffffffffffffffffff841681526103e86020820152601e81830152612710606082015281516001808252818401909352909160009190816020015b6102e96040518060800160405280600073ffffffffffffffffffffffffffffffffffffffff1681526020016000815260200160008152602001600081525090565b8152602001906001900390816102a85790505090508181600081518110610312576103126107d9565b60209081029190910101526040517f7f7b600200000000000000000000000000000000000000000000000000000000815273ffffffffffffffffffffffffffffffffffffffff7f00000000000000000000000000000000000000000000000000000000000000001690637f7b60029061038f908490600401610808565b600060405180830381600087803b1580156103a957600080fd5b505af11580156103bd573d6000803e3d6000fd5b505060405173ffffffffffffffffffffffffffffffffffffffff871681527febdacfb161ed8f3c947a8e385ec7dd9d3beda0362b20feffac74c715fff78bc59250602001905060405180910390a150505050565b734f6f977acdd1177dcd81ab83074855ecb9c2d49e3314610463576040517fd002e25a000000000000000000000000000000000000000000000000000000008152620186d36004820152602401610132565b6040805173ffffffffffffffffffffffffffffffffffffffff8316602080830191909152600682840152825180830384018152606090920190925280519101206000906040517fb5c736e40000000000000000000000000000000000000000000000000000000081526004810182905290915060009073ffffffffffffffffffffffffffffffffffffffff7f0000000000000000000000000000000000000000000000000000000000000000169063b5c736e490602401602060405180830381865afa158015610537573d6000803e3d6000fd5b505050506040513d601f19601f8201168201806040525081019061055b91906107c0565b9050801561059a576040517fd002e25a000000000000000000000000000000000000000000000000000000008152620186d46004820152602401610132565b6040805160e08101825273ffffffffffffffffffffffffffffffffffffffff851681526107d06020820152610fa0818301526000606082018190526113886080830152611f4060a083015261271060c0830152825160018082528185019094529192909190816020015b61065a6040518060e00160405280600073ffffffffffffffffffffffffffffffffffffffff1681526020016000815260200160008152602001600081526020016000815260200160008152602001600081525090565b8152602001906001900390816106045790505090508181600081518110610683576106836107d9565b60209081029190910101526040517f9dde597700000000000000000000000000000000000000000000000000000000815273ffffffffffffffffffffffffffffffffffffffff7f00000000000000000000000000000000000000000000000000000000000000001690639dde597790610700908490600401610882565b600060405180830381600087803b15801561071a57600080fd5b505af115801561072e573d6000803e3d6000fd5b505060405173ffffffffffffffffffffffffffffffffffffffff881681527fcc912061fd8601fef3f0f9e7e79106805f3a6df185a4c6e59b05592a5f3edfcd9250602001905060405180910390a15050505050565b60006020828403121561079557600080fd5b813573ffffffffffffffffffffffffffffffffffffffff811681146107b957600080fd5b9392505050565b6000602082840312156107d257600080fd5b5051919050565b7f4e487b7100000000000000000000000000000000000000000000000000000000600052603260045260246000fd5b602080825282518282018190526000919060409081850190868401855b82811015610875578151805173ffffffffffffffffffffffffffffffffffffffff168552868101518786015285810151868601526060908101519085015260809093019290850190600101610825565b5091979650505050505050565b602080825282518282018190526000919060409081850190868401855b82811015610875578151805173ffffffffffffffffffffffffffffffffffffffff16855286810151878601528581015186860152606080820151908601526080808201519086015260a0808201519086015260c0908101519085015260e0909301929085019060010161089f56fea2646970667358221220b5b6febadafa5fbae2e692eafa11e546011b746e447fc458efb807050656ce8264736f6c63430008150033",
  "devdoc": {
    "kind": "dev",
    "methods": {},
    "version": 1
  },
  "userdoc": {
    "events": {
      "LogInitiateRateDateV2Params(address)": {
        "notice": "emitted when RateDataV2Params is initiated"
      },
      "LogInitiateTokenConfig(address)": {
        "notice": "emitted when TokenConfig is initiated"
      }
    },
    "kind": "user",
    "methods": {
      "LIQUIDITY()": {
        "notice": "Fluid liquidity address"
      },
      "TEAM_MULTISIG()": {
        "notice": "Team multisig allowed to trigger collecting revenue"
      },
      "initializeRateDataV2(address)": {
        "notice": "Initializes rateDataV2 for a token at Liquidity Layer if token is not initialized"
      },
      "initializeTokenConfig(address)": {
        "notice": "Initializes token at Liquidity Layer if not already initialized"
      }
    },
    "notice": "Initializes a token at Liquidity Layer if token is not already initialized",
    "version": 1
  },
  "storageLayout": {
    "storage": [],
    "types": null
  }
}