{
  "address": "0x3eca30f7dB5AeAbD8757cE5Baf850dA8acA086Db",
  "abi": [
    {
      "inputs": [
        {
          "internalType": "address",
          "name": "liquidity_",
          "type": "address"
        },
        {
          "internalType": "uint256",
          "name": "percentRateChangeAllowed_",
          "type": "uint256"
        },
        {
          "internalType": "uint256",
          "name": "cooldown_",
          "type": "uint256"
        }
      ],
      "stateMutability": "nonpayable",
      "type": "constructor"
    },
    {
      "inputs": [
        {
          "internalType": "uint256",
          "name": "errorId_",
          "type": "uint256"
        }
      ],
      "name": "FluidConfigError",
      "type": "error"
    },
    {
      "anonymous": false,
      "inputs": [
        {
          "indexed": false,
          "internalType": "address",
          "name": "borrowToken",
          "type": "address"
        },
        {
          "indexed": false,
          "internalType": "uint256",
          "name": "oldRateKink1",
          "type": "uint256"
        },
        {
          "indexed": false,
          "internalType": "uint256",
          "name": "newRateKink1",
          "type": "uint256"
        },
        {
          "indexed": false,
          "internalType": "uint256",
          "name": "oldRateKink2",
          "type": "uint256"
        },
        {
          "indexed": false,
          "internalType": "uint256",
          "name": "newRateKink2",
          "type": "uint256"
        }
      ],
      "name": "LogUpdateRateAtKink",
      "type": "event"
    },
    {
      "inputs": [],
      "name": "COOLDOWN",
      "outputs": [
        {
          "internalType": "uint256",
          "name": "",
          "type": "uint256"
        }
      ],
      "stateMutability": "view",
      "type": "function"
    },
    {
      "inputs": [],
      "name": "LIQUIDITY",
      "outputs": [
        {
          "internalType": "contract IFluidLiquidity",
          "name": "",
          "type": "address"
        }
      ],
      "stateMutability": "view",
      "type": "function"
    },
    {
      "inputs": [],
      "name": "PERCENT_RATE_CHANGE_ALLOWED",
      "outputs": [
        {
          "internalType": "uint256",
          "name": "",
          "type": "uint256"
        }
      ],
      "stateMutability": "view",
      "type": "function"
    },
    {
      "inputs": [],
      "name": "TEAM_MULTISIG",
      "outputs": [
        {
          "internalType": "address",
          "name": "",
          "type": "address"
        }
      ],
      "stateMutability": "view",
      "type": "function"
    },
    {
      "inputs": [
        {
          "internalType": "address",
          "name": "",
          "type": "address"
        }
      ],
      "name": "tokenLastUpdateTimestamp",
      "outputs": [
        {
          "internalType": "uint256",
          "name": "",
          "type": "uint256"
        }
      ],
      "stateMutability": "view",
      "type": "function"
    },
    {
      "inputs": [
        {
          "components": [
            {
              "internalType": "address",
              "name": "token",
              "type": "address"
            },
            {
              "internalType": "uint256",
              "name": "rateAtUtilizationKink",
              "type": "uint256"
            }
          ],
          "internalType": "struct Structs.RateAtKinkV1",
          "name": "rateStruct_",
          "type": "tuple"
        }
      ],
      "name": "updateRateDataV1",
      "outputs": [],
      "stateMutability": "nonpayable",
      "type": "function"
    },
    {
      "inputs": [
        {
          "components": [
            {
              "internalType": "address",
              "name": "token",
              "type": "address"
            },
            {
              "internalType": "uint256",
              "name": "rateAtUtilizationKink1",
              "type": "uint256"
            },
            {
              "internalType": "uint256",
              "name": "rateAtUtilizationKink2",
              "type": "uint256"
            }
          ],
          "internalType": "struct Structs.RateAtKinkV2",
          "name": "rateStruct_",
          "type": "tuple"
        }
      ],
      "name": "updateRateDataV2",
      "outputs": [],
      "stateMutability": "nonpayable",
      "type": "function"
    }
  ],
  "transactionHash": "0x659f25957b334af40971a2f1f3cb62419c750a5c8b1e1be15b74f4c9abda46eb",
  "args": [
    "0x52Aa899454998Be5b000Ad077a46Bbe360F4e497",
    2000,
    345600
  ],
  "numDeployments": 1,
  "solcInputHash": "4d39625fdbe067957ef4555a37d79af5",
  "bytecode": "0x60e060405234801561001057600080fd5b506040516110b43803806110b483398101604081905261002f916100cf565b6001600160a01b03831661006057604051636801712d60e11b8152620186cb60048201526024015b60405180910390fd5b81158061006b575080155b1561008e57604051636801712d60e11b8152620186cb6004820152602401610057565b6127108211156100b657604051636801712d60e11b8152620186cb6004820152602401610057565b6001600160a01b0390921660805260a05260c052610112565b6000806000606084860312156100e457600080fd5b83516001600160a01b03811681146100fb57600080fd5b602085015160409095015190969495509392505050565b60805160a05160c051610f3561017f6000396000818161011b015281816102fd01526108780152600081816101700152818161040201528181610438015261098c01526000818160870152818161024c015281816105f3015281816107c70152610b290152610f356000f3fe608060405234801561001057600080fd5b506004361061007d5760003560e01c8063a2724a4d1161005b578063a2724a4d14610116578063ae4674931461013d578063b788f3a114610150578063cdcb13391461016b57600080fd5b80632861c7d11461008257806363baa025146100d3578063958b653514610101575b600080fd5b6100a97f000000000000000000000000000000000000000000000000000000000000000081565b60405173ffffffffffffffffffffffffffffffffffffffff90911681526020015b60405180910390f35b6100f36100e1366004610cb4565b60006020819052908152604090205481565b6040519081526020016100ca565b61011461010f366004610cea565b610192565b005b6100f37f000000000000000000000000000000000000000000000000000000000000000081565b61011461014b366004610d02565b610717565b6100a9734f6f977acdd1177dcd81ab83074855ecb9c2d49e81565b6100f37f000000000000000000000000000000000000000000000000000000000000000081565b734f6f977acdd1177dcd81ab83074855ecb9c2d49e33146101e9576040517fd002e25a000000000000000000000000000000000000000000000000000000008152620186ca60048201526024015b60405180910390fd5b600061020260066101fd6020850185610cb4565b610c14565b6040517fb5c736e40000000000000000000000000000000000000000000000000000000081526004810182905290915060009073ffffffffffffffffffffffffffffffffffffffff7f0000000000000000000000000000000000000000000000000000000000000000169063b5c736e490602401602060405180830381865afa158015610293573d6000803e3d6000fd5b505050506040513d601f19601f820116820180604052508101906102b79190610d14565b905080600f166002146102fb576040517fd002e25a000000000000000000000000000000000000000000000000000000008152620186cd60048201526024016101e0565b7f000000000000000000000000000000000000000000000000000000000000000060008061032c6020870187610cb4565b73ffffffffffffffffffffffffffffffffffffffff16815260208101919091526040016000205461035d9042610d5c565b11610399576040517fd002e25a000000000000000000000000000000000000000000000000000000008152620186cc60048201526024016101e0565b6103ef6040518060e00160405280600073ffffffffffffffffffffffffffffffffffffffff1681526020016000815260200160008152602001600081526020016000815260200160008152602001600081525090565b61ffff602483901c811690604484901c167f000000000000000000000000000000000000000000000000000000000000000061042f836020890135610c5f565b118061046757507f0000000000000000000000000000000000000000000000000000000000000000610465828860400135610c5f565b115b156104a3576040517fd002e25a000000000000000000000000000000000000000000000000000000008152620186c960048201526024016101e0565b6104b06020870187610cb4565b73ffffffffffffffffffffffffffffffffffffffff168352601484901c61ffff908116602080860191909152603486901c8216604080870191909152600487901c831660608701529088013560808601528781013560a0860152605486901c90911660c085015280516001808252818301909252600091816020015b6105826040518060e00160405280600073ffffffffffffffffffffffffffffffffffffffff1681526020016000815260200160008152602001600081526020016000815260200160008152602001600081525090565b81526020019060019003908161052c57905050905083816000815181106105ab576105ab610d6f565b60209081029190910101526040517f9dde597700000000000000000000000000000000000000000000000000000000815273ffffffffffffffffffffffffffffffffffffffff7f00000000000000000000000000000000000000000000000000000000000000001690639dde597790610628908490600401610d9e565b600060405180830381600087803b15801561064257600080fd5b505af1158015610656573d6000803e3d6000fd5b504292506000915081905061066e60208b018b610cb4565b73ffffffffffffffffffffffffffffffffffffffff168152602080820192909252604001600020919091557f6dcaede9edba49e006cd7e84dd7d6efb7c552d258fc90525c171a47ad5adbb4c906106c790890189610cb4565b6040805173ffffffffffffffffffffffffffffffffffffffff909216825260208281018790528a01358282015260608201859052890135608082015260a00160405180910390a150505050505050565b734f6f977acdd1177dcd81ab83074855ecb9c2d49e3314610769576040517fd002e25a000000000000000000000000000000000000000000000000000000008152620186ca60048201526024016101e0565b600061077d60066101fd6020850185610cb4565b6040517fb5c736e40000000000000000000000000000000000000000000000000000000081526004810182905290915060009073ffffffffffffffffffffffffffffffffffffffff7f0000000000000000000000000000000000000000000000000000000000000000169063b5c736e490602401602060405180830381865afa15801561080e573d6000803e3d6000fd5b505050506040513d601f19601f820116820180604052508101906108329190610d14565b905080600f16600114610876576040517fd002e25a000000000000000000000000000000000000000000000000000000008152620186cd60048201526024016101e0565b7f00000000000000000000000000000000000000000000000000000000000000006000806108a76020870187610cb4565b73ffffffffffffffffffffffffffffffffffffffff1681526020810191909152604001600020546108d89042610d5c565b11610914576040517fd002e25a000000000000000000000000000000000000000000000000000000008152620186cc60048201526024016101e0565b61095c6040518060a00160405280600073ffffffffffffffffffffffffffffffffffffffff168152602001600081526020016000815260200160008152602001600081525090565b6109696020850185610cb4565b73ffffffffffffffffffffffffffffffffffffffff168152602482901c61ffff167f00000000000000000000000000000000000000000000000000000000000000006109b9826020880135610c5f565b11156109f6576040517fd002e25a000000000000000000000000000000000000000000000000000000008152620186c960048201526024016101e0565b610a036020860186610cb4565b73ffffffffffffffffffffffffffffffffffffffff16825261ffff601484901c8116602080850191909152600485901c821660408501528601356060840152603484901c16608083015260006001604051908082528060200260200182016040528015610aca57816020015b610ab76040518060a00160405280600073ffffffffffffffffffffffffffffffffffffffff168152602001600081526020016000815260200160008152602001600081525090565b815260200190600190039081610a6f5790505b5090508281600081518110610ae157610ae1610d6f565b60209081029190910101526040517f3fad77fc00000000000000000000000000000000000000000000000000000000815273ffffffffffffffffffffffffffffffffffffffff7f00000000000000000000000000000000000000000000000000000000000000001690633fad77fc90610b5e908490600401610e36565b600060405180830381600087803b158015610b7857600080fd5b505af1158015610b8c573d6000803e3d6000fd5b5050845173ffffffffffffffffffffffffffffffffffffffff9081166000908152602081815260408083204290558851815194168452838201889052908b0135908301526060820181905260808201527f6dcaede9edba49e006cd7e84dd7d6efb7c552d258fc90525c171a47ad5adbb4c925060a001905060405180910390a1505050505050565b6040805173ffffffffffffffffffffffffffffffffffffffff831660208201529081018390526000906060016040516020818303038152906040528051906020012090505b92915050565b6000818303610c7057506000610c59565b81831115610c8957610c828284610d5c565b9050610c96565b610c938383610d5c565b90505b82610ca382612710610ead565b610cad9190610ec4565b9392505050565b600060208284031215610cc657600080fd5b813573ffffffffffffffffffffffffffffffffffffffff81168114610cad57600080fd5b600060608284031215610cfc57600080fd5b50919050565b600060408284031215610cfc57600080fd5b600060208284031215610d2657600080fd5b5051919050565b7f4e487b7100000000000000000000000000000000000000000000000000000000600052601160045260246000fd5b81810381811115610c5957610c59610d2d565b7f4e487b7100000000000000000000000000000000000000000000000000000000600052603260045260246000fd5b602080825282518282018190526000919060409081850190868401855b82811015610e29578151805173ffffffffffffffffffffffffffffffffffffffff16855286810151878601528581015186860152606080820151908601526080808201519086015260a0808201519086015260c0908101519085015260e09093019290850190600101610dbb565b5091979650505050505050565b602080825282518282018190526000919060409081850190868401855b82811015610e29578151805173ffffffffffffffffffffffffffffffffffffffff16855286810151878601528581015186860152606080820151908601526080908101519085015260a09093019290850190600101610e53565b8082028115828204841417610c5957610c59610d2d565b600082610efa577f4e487b7100000000000000000000000000000000000000000000000000000000600052601260045260246000fd5b50049056fea2646970667358221220746b9d47c2374846c78c22c4223e5002a5403477809d74d3021d82a0453dc31f64736f6c63430008150033",
  "devdoc": {
    "kind": "dev",
    "methods": {},
    "version": 1
  },
  "userdoc": {
    "events": {
      "LogUpdateRateAtKink(address,uint256,uint256,uint256,uint256)": {
        "notice": "emitted when borrow rate for specified borrow token is updated based on         team multisig input of rate at kinks"
      }
    },
    "kind": "user",
    "methods": {
      "tokenLastUpdateTimestamp(address)": {
        "notice": "last timestamp when a token's rate was updated"
      }
    },
    "notice": "Sets borrow rate for specified borrow token at Liquidity based on team multisig input.",
    "version": 1
  },
  "storageLayout": {
    "storage": [
      {
        "astId": 4168,
        "contract": "contracts/config/ratesAuth/main.sol:FluidRatesAuth",
        "label": "tokenLastUpdateTimestamp",
        "offset": 0,
        "slot": "0",
        "type": "t_mapping(t_address,t_uint256)"
      }
    ],
    "types": {
      "t_address": {
        "encoding": "inplace",
        "label": "address",
        "numberOfBytes": "20"
      },
      "t_mapping(t_address,t_uint256)": {
        "encoding": "mapping",
        "key": "t_address",
        "label": "mapping(address => uint256)",
        "numberOfBytes": "32",
        "value": "t_uint256"
      },
      "t_uint256": {
        "encoding": "inplace",
        "label": "uint256",
        "numberOfBytes": "32"
      }
    }
  }
}