{
  "address": "0x300bD1955e4f2A7692fAA2ba6F8285EAc4843832",
  "abi": [
    {
      "inputs": [
        {
          "internalType": "string",
          "name": "infoName_",
          "type": "string"
        },
        {
          "internalType": "uint256",
          "name": "staticPrice_",
          "type": "uint256"
        }
      ],
      "stateMutability": "nonpayable",
      "type": "constructor"
    },
    {
      "inputs": [
        {
          "internalType": "uint256",
          "name": "errorId_",
          "type": "uint256"
        }
      ],
      "name": "FluidOracleError",
      "type": "error"
    },
    {
      "inputs": [],
      "name": "centerPrice",
      "outputs": [
        {
          "internalType": "uint256",
          "name": "price_",
          "type": "uint256"
        }
      ],
      "stateMutability": "view",
      "type": "function"
    },
    {
      "inputs": [],
      "name": "infoName",
      "outputs": [
        {
          "internalType": "string",
          "name": "",
          "type": "string"
        }
      ],
      "stateMutability": "view",
      "type": "function"
    }
  ],
  "transactionHash": "0x0dbb1e96741274bb2b5a2be46a0b98f15a635249d3f3a9e7ee07db377c45472a",
  "args": [
    [
      "Static rate: INST ETH",
      "3355465401072846600000000"
    ]
  ],
  "numDeployments": 1,
  "linkedData": {
    "nonce": "59"
  },
  "bytecode": "0x60c060405234801561001057600080fd5b5060405161051238038061051283398101604081905261002f916100ce565b8160208151118061003f57508051155b156100665760405163c82fc46560e01b815261ea6a60048201526024015b60405180910390fd5b6020015160805260008190036100af5760405162461bcd60e51b815260206004820152600e60248201526d073746174696320707269636520360941b604482015260640161005d565b60a0525061019d565b634e487b7160e01b600052604160045260246000fd5b600080604083850312156100e157600080fd5b82516001600160401b03808211156100f857600080fd5b818501915085601f83011261010c57600080fd5b81518181111561011e5761011e6100b8565b604051601f8201601f19908116603f01168101908382118183101715610146576101466100b8565b8160405282815260209350888484870101111561016257600080fd5b600091505b828210156101845784820184015181830185015290830190610167565b6000928101840192909252509401519395939450505050565b60805160a05161034b6101c76000396000605e0152600081816099015261015e015261034b6000f3fe608060405234801561001057600080fd5b50600436106100365760003560e01c8063abd5f95d1461003b578063f763f7a614610059575b600080fd5b610043610087565b60405161005091906101ec565b60405180910390f35b6040517f00000000000000000000000000000000000000000000000000000000000000008152602001610050565b606060005b6020811080156100f257507f000000000000000000000000000000000000000000000000000000000000000081602081106100c9576100c9610258565b1a60f81b7fff000000000000000000000000000000000000000000000000000000000000001615155b15610109578061010181610287565b91505061008c565b60008167ffffffffffffffff811115610124576101246102e6565b6040519080825280601f01601f19166020018201604052801561014e576020820181803683370190505b50905060005b828110156101e5577f0000000000000000000000000000000000000000000000000000000000000000816020811061018e5761018e610258565b1a60f81b8282815181106101a4576101a4610258565b60200101907effffffffffffffffffffffffffffffffffffffffffffffffffffffffffffff1916908160001a905350806101dd81610287565b915050610154565b5092915050565b600060208083528351808285015260005b81811015610219578581018301518582016040015282016101fd565b5060006040828601015260407fffffffffffffffffffffffffffffffffffffffffffffffffffffffffffffffe0601f8301168501019250505092915050565b7f4e487b7100000000000000000000000000000000000000000000000000000000600052603260045260246000fd5b60007fffffffffffffffffffffffffffffffffffffffffffffffffffffffffffffffff82036102df577f4e487b7100000000000000000000000000000000000000000000000000000000600052601160045260246000fd5b5060010190565b7f4e487b7100000000000000000000000000000000000000000000000000000000600052604160045260246000fdfea26469706673582212208388a4b7d8879675ef2d59b4200a89f440baf78a50ab178c492900113e44b9cb64736f6c63430008150033"
}