{
  "address": "0xB1f51Fd13C554660c19f96750C4b1d8c9BB31bc4",
  "abi": [
    {
      "inputs": [
        {
          "internalType": "string",
          "name": "infoName_",
          "type": "string"
        },
        {
          "internalType": "uint256",
          "name": "staticPrice_",
          "type": "uint256"
        },
        {
          "internalType": "bool",
          "name": "liquidateZero_",
          "type": "bool"
        }
      ],
      "stateMutability": "nonpayable",
      "type": "constructor"
    },
    {
      "inputs": [
        {
          "internalType": "uint256",
          "name": "errorId_",
          "type": "uint256"
        }
      ],
      "name": "FluidOracleError",
      "type": "error"
    },
    {
      "inputs": [],
      "name": "getExchangeRate",
      "outputs": [
        {
          "internalType": "uint256",
          "name": "exchangeRate_",
          "type": "uint256"
        }
      ],
      "stateMutability": "view",
      "type": "function"
    },
    {
      "inputs": [],
      "name": "getExchangeRateLiquidate",
      "outputs": [
        {
          "internalType": "uint256",
          "name": "exchangeRate_",
          "type": "uint256"
        }
      ],
      "stateMutability": "view",
      "type": "function"
    },
    {
      "inputs": [],
      "name": "getExchangeRateOperate",
      "outputs": [
        {
          "internalType": "uint256",
          "name": "exchangeRate_",
          "type": "uint256"
        }
      ],
      "stateMutability": "view",
      "type": "function"
    },
    {
      "inputs": [],
      "name": "infoName",
      "outputs": [
        {
          "internalType": "string",
          "name": "",
          "type": "string"
        }
      ],
      "stateMutability": "view",
      "type": "function"
    }
  ],
  "transactionHash": "0xa34fb24ab6b153938d6b8b58dad31f0b68ee395e10f191bf0fb17d012fbb906c",
  "args": [
    [
      "Static rate: 1e24",
      "1000000000000000000000000",
      true
    ]
  ],
  "numDeployments": 1,
  "linkedData": {
    "nonce": "58"
  },
  "bytecode": "0x60e060405234801561001057600080fd5b506040516105c33803806105c383398101604081905261002f916100eb565b8260208151118061003f57508051155b156100665760405163c82fc46560e01b815261ea6a60048201526024015b60405180910390fd5b6020015160805260008290036100af5760405162461bcd60e51b815260206004820152600e60248201526d073746174696320707269636520360941b604482015260640161005d565b60a091909152151560c052506101ce565b634e487b7160e01b600052604160045260246000fd5b805180151581146100e657600080fd5b919050565b60008060006060848603121561010057600080fd5b83516001600160401b038082111561011757600080fd5b818601915086601f83011261012b57600080fd5b81518181111561013d5761013d6100c0565b604051601f8201601f19908116603f01168101908382118183101715610165576101656100c0565b8160405282815260209350898484870101111561018157600080fd5b600091505b828210156101a35784820184015181830185015290830190610186565b600084848301015280975050505080860151935050506101c5604085016100d6565b90509250925092565b60805160a05160c0516103ba610209600039600061020c0152600081816053015261023901526000818160b5015261017a01526103ba6000f3fe608060405234801561001057600080fd5b506004361061004c5760003560e01c80638e7bfbc014610051578063abd5f95d14610086578063e6aa216c14610051578063f3190c891461009b575b600080fd5b7f00000000000000000000000000000000000000000000000000000000000000005b6040519081526020015b60405180910390f35b61008e6100a3565b60405161007d919061025b565b610073610208565b606060005b60208110801561010e57507f000000000000000000000000000000000000000000000000000000000000000081602081106100e5576100e56102c7565b1a60f81b7fff000000000000000000000000000000000000000000000000000000000000001615155b15610125578061011d816102f6565b9150506100a8565b60008167ffffffffffffffff81111561014057610140610355565b6040519080825280601f01601f19166020018201604052801561016a576020820181803683370190505b50905060005b82811015610201577f000000000000000000000000000000000000000000000000000000000000000081602081106101aa576101aa6102c7565b1a60f81b8282815181106101c0576101c06102c7565b60200101907effffffffffffffffffffffffffffffffffffffffffffffffffffffffffffff1916908160001a905350806101f9816102f6565b915050610170565b5092915050565b60007f0000000000000000000000000000000000000000000000000000000000000000156102365750600090565b507f000000000000000000000000000000000000000000000000000000000000000090565b600060208083528351808285015260005b818110156102885785810183015185820160400152820161026c565b5060006040828601015260407fffffffffffffffffffffffffffffffffffffffffffffffffffffffffffffffe0601f8301168501019250505092915050565b7f4e487b7100000000000000000000000000000000000000000000000000000000600052603260045260246000fd5b60007fffffffffffffffffffffffffffffffffffffffffffffffffffffffffffffffff820361034e577f4e487b7100000000000000000000000000000000000000000000000000000000600052601160045260246000fd5b5060010190565b7f4e487b7100000000000000000000000000000000000000000000000000000000600052604160045260246000fdfea26469706673582212204a94e70d9c89dc53a87d39d15dca4ffff81199ef9c03984ec13c94c283033c9e64736f6c63430008150033"
}