{
  "address": "0x7F8E0be00A22b251eee9a70d17Ec2980354543A8",
  "abi": [
    {
      "inputs": [
        {
          "internalType": "string",
          "name": "infoName_",
          "type": "string"
        },
        {
          "internalType": "address",
          "name": "rateSource_",
          "type": "address"
        },
        {
          "internalType": "uint256",
          "name": "minUpdateDiffPercent_",
          "type": "uint256"
        },
        {
          "internalType": "uint256",
          "name": "minHeartBeat_",
          "type": "uint256"
        }
      ],
      "stateMutability": "nonpayable",
      "type": "constructor"
    },
    {
      "inputs": [
        {
          "internalType": "uint256",
          "name": "errorId_",
          "type": "uint256"
        }
      ],
      "name": "FluidOracleError",
      "type": "error"
    },
    {
      "anonymous": false,
      "inputs": [
        {
          "indexed": false,
          "internalType": "uint256",
          "name": "oldRate",
          "type": "uint256"
        },
        {
          "indexed": false,
          "internalType": "uint256",
          "name": "newRate",
          "type": "uint256"
        }
      ],
      "name": "LogRebalanceRate",
      "type": "event"
    },
    {
      "inputs": [],
      "name": "centerPrice",
      "outputs": [
        {
          "internalType": "uint256",
          "name": "price_",
          "type": "uint256"
        }
      ],
      "stateMutability": "nonpayable",
      "type": "function"
    },
    {
      "inputs": [],
      "name": "configData",
      "outputs": [
        {
          "internalType": "uint256",
          "name": "minUpdateDiffPercent_",
          "type": "uint256"
        },
        {
          "internalType": "uint256",
          "name": "minHeartBeat_",
          "type": "uint256"
        },
        {
          "internalType": "uint40",
          "name": "lastUpdateTime_",
          "type": "uint40"
        },
        {
          "internalType": "address",
          "name": "rateSource_",
          "type": "address"
        }
      ],
      "stateMutability": "view",
      "type": "function"
    },
    {
      "inputs": [],
      "name": "configPercentDiff",
      "outputs": [
        {
          "internalType": "uint256",
          "name": "configPercentDiff_",
          "type": "uint256"
        }
      ],
      "stateMutability": "view",
      "type": "function"
    },
    {
      "inputs": [
        {
          "internalType": "uint256",
          "name": "shares",
          "type": "uint256"
        }
      ],
      "name": "convertToAssets",
      "outputs": [
        {
          "internalType": "uint256",
          "name": "assets",
          "type": "uint256"
        }
      ],
      "stateMutability": "view",
      "type": "function"
    },
    {
      "inputs": [
        {
          "internalType": "uint256",
          "name": "assets",
          "type": "uint256"
        }
      ],
      "name": "convertToShares",
      "outputs": [
        {
          "internalType": "uint256",
          "name": "shares",
          "type": "uint256"
        }
      ],
      "stateMutability": "view",
      "type": "function"
    },
    {
      "inputs": [],
      "name": "getExchangeRate",
      "outputs": [
        {
          "internalType": "uint256",
          "name": "exchangeRate_",
          "type": "uint256"
        }
      ],
      "stateMutability": "view",
      "type": "function"
    },
    {
      "inputs": [],
      "name": "getExchangeRateLiquidate",
      "outputs": [
        {
          "internalType": "uint256",
          "name": "exchangeRate_",
          "type": "uint256"
        }
      ],
      "stateMutability": "view",
      "type": "function"
    },
    {
      "inputs": [],
      "name": "getExchangeRateOperate",
      "outputs": [
        {
          "internalType": "uint256",
          "name": "exchangeRate_",
          "type": "uint256"
        }
      ],
      "stateMutability": "view",
      "type": "function"
    },
    {
      "inputs": [],
      "name": "infoName",
      "outputs": [
        {
          "internalType": "string",
          "name": "",
          "type": "string"
        }
      ],
      "stateMutability": "view",
      "type": "function"
    },
    {
      "inputs": [],
      "name": "rebalance",
      "outputs": [],
      "stateMutability": "nonpayable",
      "type": "function"
    }
  ],
  "transactionHash": "0xb2b514e2f5a8331167c025a1ddf5f704c4f70595be2d565c26ab34bce4d8134b",
  "args": [
    [
      "sUSDE <> USDE exchange rate",
      "0x9D39A5DE30e57443BfF2A8307A4256c8797A3497",
      10,
      90000
    ]
  ],
  "numDeployments": 1,
  "linkedData": {
    "nonce": "71"
  },
  "bytecode": "0x6101006040523480156200001257600080fd5b5060405162000dbb38038062000dbb8339810160408190526200003591620001e5565b83838383836020815111806200004a57508051155b15620000725760405163c82fc46560e01b815261ea6a60048201526024015b60405180910390fd5b60200151608052826001600160a01b038116620000a75760405163c82fc46560e01b815261ebbf600482015260240162000069565b821580620000b75750620186a083115b80620000c1575081155b15620000e55760405163c82fc46560e01b815261ebbf600482015260240162000069565b6001600160a01b03841660a05260c083905260e08290526200010662000131565b6001600160d81b0316600160d81b4264ffffffffff16021760005550620002f7975050505050505050565b60a0516040516303d1689d60e11b81526b033b2e3c9fd0803ce800000060048201526000916001600160a01b0316906307a2d13a90602401602060405180830381865afa15801562000187573d6000803e3d6000fd5b505050506040513d601f19601f82011682018060405250810190620001ad9190620002dd565b905090565b634e487b7160e01b600052604160045260246000fd5b80516001600160a01b0381168114620001e057600080fd5b919050565b60008060008060808587031215620001fc57600080fd5b84516001600160401b03808211156200021457600080fd5b818701915087601f8301126200022957600080fd5b8151818111156200023e576200023e620001b2565b604051601f8201601f19908116603f01168101908382118183101715620002695762000269620001b2565b81604052828152602093508a848487010111156200028657600080fd5b600091505b82821015620002aa57848201840151818301850152908301906200028b565b6000848483010152809850505050620002c5818801620001c8565b60408801516060909801519699909850945050505050565b600060208284031215620002f057600080fd5b5051919050565b60805160a05160c05160e051610a6f6200034c6000396000818161011501526104bd01526000818160f20152610311015260008181610166015261065d0152600081816106ef01526107b40152610a6f6000f3fe608060405234801561001057600080fd5b50600436106100be5760003560e01c8063abd5f95d11610076578063e6aa216c1161005b578063e6aa216c146101b2578063f3190c89146101b2578063f763f7a61461020757600080fd5b8063abd5f95d146101df578063c6e6f592146101f457600080fd5b80637d7c2a1c116100a75780637d7c2a1c146101a85780638e7bfbc0146101b25780639dc10566146101d757600080fd5b806307a2d13a146100c357806320e44e43146100e9575b600080fd5b6100d66100d1366004610842565b61020f565b6040519081526020015b60405180910390f35b600054604080517f000000000000000000000000000000000000000000000000000000000000000081527f000000000000000000000000000000000000000000000000000000000000000060208201527b0100000000000000000000000000000000000000000000000000000090920464ffffffffff16908201527f000000000000000000000000000000000000000000000000000000000000000073ffffffffffffffffffffffffffffffffffffffff1660608201526080016100e0565b6101b0610256565b005b6000547affffffffffffffffffffffffffffffffffffffffffffffffffffff166100d6565b6100d66103f3565b6101e7610468565b6040516100e0919061085b565b6100d6610202366004610842565b610477565b6100d66104b1565b600080547affffffffffffffffffffffffffffffffffffffffffffffffffffff16610246836b033b2e3c9fd0803ce80000006108f6565b610250919061093c565b92915050565b600080547affffffffffffffffffffffffffffffffffffffffffffffffffffff1690610280610620565b9050806000036102c5576040517fc82fc46500000000000000000000000000000000000000000000000000000000815261ebc260048201526024015b60405180910390fd5b6000818311156102ed5782828403620f424002816102e5576102e561090d565b04905061030f565b8282111561030f5782838303620f4240028161030b5761030b61090d565b0490505b7f000000000000000000000000000000000000000000000000000000000000000081101561036d576040517fc82fc46500000000000000000000000000000000000000000000000000000000815261ebc160048201526024016102bc565b7affffffffffffffffffffffffffffffffffffffffffffffffffffff82167b010000000000000000000000000000000000000000000000000000004264ffffffffff16021760005560408051848152602081018490527f95f03a932c8aced8238058ac39deeaf30f8ddcbf42ade5ad3ada32f0d1338a08910160405180910390a1505050565b600080547affffffffffffffffffffffffffffffffffffffffffffffffffffff168161041d610620565b9050808211156104455781818303620f4240028161043d5761043d61090d565b049250505090565b818111156104635781828203620f4240028161043d5761043d61090d565b505090565b60606104726106dd565b905090565b600080546b033b2e3c9fd0803ce8000000906102469084907affffffffffffffffffffffffffffffffffffffffffffffffffffff166108f6565b600080544290610508907f0000000000000000000000000000000000000000000000000000000000000000907b01000000000000000000000000000000000000000000000000000000900464ffffffffff16610977565b10156105fc57600080547affffffffffffffffffffffffffffffffffffffffffffffffffffff1690610538610620565b905080600003610578576040517fc82fc46500000000000000000000000000000000000000000000000000000000815261ebc260048201526024016102bc565b7affffffffffffffffffffffffffffffffffffffffffffffffffffff81167b010000000000000000000000000000000000000000000000000000004264ffffffffff16021760005560408051838152602081018390527f95f03a932c8aced8238058ac39deeaf30f8ddcbf42ade5ad3ada32f0d1338a08910160405180910390a150505b506000547affffffffffffffffffffffffffffffffffffffffffffffffffffff1690565b6040517f07a2d13a0000000000000000000000000000000000000000000000000000000081526b033b2e3c9fd0803ce800000060048201526000907f000000000000000000000000000000000000000000000000000000000000000073ffffffffffffffffffffffffffffffffffffffff16906307a2d13a90602401602060405180830381865afa1580156106b9573d6000803e3d6000fd5b505050506040513d601f19601f82011682018060405250810190610472919061098a565b606060005b60208110801561074857507f0000000000000000000000000000000000000000000000000000000000000000816020811061071f5761071f6109a3565b1a60f81b7fff000000000000000000000000000000000000000000000000000000000000001615155b1561075f5780610757816109d2565b9150506106e2565b60008167ffffffffffffffff81111561077a5761077a610a0a565b6040519080825280601f01601f1916602001820160405280156107a4576020820181803683370190505b50905060005b8281101561083b577f000000000000000000000000000000000000000000000000000000000000000081602081106107e4576107e46109a3565b1a60f81b8282815181106107fa576107fa6109a3565b60200101907effffffffffffffffffffffffffffffffffffffffffffffffffffffffffffff1916908160001a90535080610833816109d2565b9150506107aa565b5092915050565b60006020828403121561085457600080fd5b5035919050565b600060208083528351808285015260005b818110156108885785810183015185820160400152820161086c565b5060006040828601015260407fffffffffffffffffffffffffffffffffffffffffffffffffffffffffffffffe0601f8301168501019250505092915050565b7f4e487b7100000000000000000000000000000000000000000000000000000000600052601160045260246000fd5b8082028115828204841417610250576102506108c7565b7f4e487b7100000000000000000000000000000000000000000000000000000000600052601260045260246000fd5b600082610972577f4e487b7100000000000000000000000000000000000000000000000000000000600052601260045260246000fd5b500490565b80820180821115610250576102506108c7565b60006020828403121561099c57600080fd5b5051919050565b7f4e487b7100000000000000000000000000000000000000000000000000000000600052603260045260246000fd5b60007fffffffffffffffffffffffffffffffffffffffffffffffffffffffffffffffff8203610a0357610a036108c7565b5060010190565b7f4e487b7100000000000000000000000000000000000000000000000000000000600052604160045260246000fdfea2646970667358221220254a82a6de3df6a7d79ab47266062de9bb7d6f23db603369f38b4baf7f796de864736f6c63430008150033"
}