{
  "address": "0x5dDf07980ADD152D518AE463269e1A97e93EE1a9",
  "abi": [
    {
      "inputs": [],
      "stateMutability": "nonpayable",
      "type": "constructor"
    },
    {
      "inputs": [
        {
          "internalType": "uint256",
          "name": "colLiquidated",
          "type": "uint256"
        },
        {
          "internalType": "uint256",
          "name": "debtLiquidated",
          "type": "uint256"
        }
      ],
      "name": "FluidLiquidateResult",
      "type": "error"
    },
    {
      "inputs": [
        {
          "internalType": "uint256",
          "name": "errorId_",
          "type": "uint256"
        }
      ],
      "name": "FluidVaultError",
      "type": "error"
    },
    {
      "anonymous": false,
      "inputs": [
        {
          "indexed": false,
          "internalType": "uint256[]",
          "name": "nftIds_",
          "type": "uint256[]"
        },
        {
          "indexed": false,
          "internalType": "uint256",
          "name": "absorbedDustDebt_",
          "type": "uint256"
        }
      ],
      "name": "LogAbsorbDustDebt",
      "type": "event"
    },
    {
      "anonymous": false,
      "inputs": [
        {
          "indexed": true,
          "internalType": "address",
          "name": "token_",
          "type": "address"
        }
      ],
      "name": "LogRescueFunds",
      "type": "event"
    },
    {
      "anonymous": false,
      "inputs": [
        {
          "indexed": false,
          "internalType": "uint256",
          "name": "borrowFee_",
          "type": "uint256"
        }
      ],
      "name": "LogUpdateBorrowFee",
      "type": "event"
    },
    {
      "anonymous": false,
      "inputs": [
        {
          "indexed": false,
          "internalType": "uint256",
          "name": "borrowRateMagnifier_",
          "type": "uint256"
        }
      ],
      "name": "LogUpdateBorrowRateMagnifier",
      "type": "event"
    },
    {
      "anonymous": false,
      "inputs": [
        {
          "indexed": false,
          "internalType": "uint256",
          "name": "collateralFactor_",
          "type": "uint256"
        }
      ],
      "name": "LogUpdateCollateralFactor",
      "type": "event"
    },
    {
      "anonymous": false,
      "inputs": [
        {
          "indexed": false,
          "internalType": "uint256",
          "name": "supplyRateMagnifier_",
          "type": "uint256"
        },
        {
          "indexed": false,
          "internalType": "uint256",
          "name": "borrowRateMagnifier_",
          "type": "uint256"
        },
        {
          "indexed": false,
          "internalType": "uint256",
          "name": "collateralFactor_",
          "type": "uint256"
        },
        {
          "indexed": false,
          "internalType": "uint256",
          "name": "liquidationThreshold_",
          "type": "uint256"
        },
        {
          "indexed": false,
          "internalType": "uint256",
          "name": "liquidationMaxLimit_",
          "type": "uint256"
        },
        {
          "indexed": false,
          "internalType": "uint256",
          "name": "withdrawGap_",
          "type": "uint256"
        },
        {
          "indexed": false,
          "internalType": "uint256",
          "name": "liquidationPenalty_",
          "type": "uint256"
        },
        {
          "indexed": false,
          "internalType": "uint256",
          "name": "borrowFee_",
          "type": "uint256"
        }
      ],
      "name": "LogUpdateCoreSettings",
      "type": "event"
    },
    {
      "anonymous": false,
      "inputs": [
        {
          "indexed": false,
          "internalType": "uint256",
          "name": "liquidationMaxLimit_",
          "type": "uint256"
        }
      ],
      "name": "LogUpdateLiquidationMaxLimit",
      "type": "event"
    },
    {
      "anonymous": false,
      "inputs": [
        {
          "indexed": false,
          "internalType": "uint256",
          "name": "liquidationPenalty_",
          "type": "uint256"
        }
      ],
      "name": "LogUpdateLiquidationPenalty",
      "type": "event"
    },
    {
      "anonymous": false,
      "inputs": [
        {
          "indexed": false,
          "internalType": "uint256",
          "name": "liquidationThreshold_",
          "type": "uint256"
        }
      ],
      "name": "LogUpdateLiquidationThreshold",
      "type": "event"
    },
    {
      "anonymous": false,
      "inputs": [
        {
          "indexed": true,
          "internalType": "address",
          "name": "newOracle_",
          "type": "address"
        }
      ],
      "name": "LogUpdateOracle",
      "type": "event"
    },
    {
      "anonymous": false,
      "inputs": [
        {
          "indexed": true,
          "internalType": "address",
          "name": "newRebalancer_",
          "type": "address"
        }
      ],
      "name": "LogUpdateRebalancer",
      "type": "event"
    },
    {
      "anonymous": false,
      "inputs": [
        {
          "indexed": false,
          "internalType": "uint256",
          "name": "supplyRateMagnifier_",
          "type": "uint256"
        }
      ],
      "name": "LogUpdateSupplyRateMagnifier",
      "type": "event"
    },
    {
      "anonymous": false,
      "inputs": [
        {
          "indexed": false,
          "internalType": "uint256",
          "name": "withdrawGap_",
          "type": "uint256"
        }
      ],
      "name": "LogUpdateWithdrawGap",
      "type": "event"
    },
    {
      "inputs": [
        {
          "internalType": "uint256[]",
          "name": "nftIds_",
          "type": "uint256[]"
        }
      ],
      "name": "absorbDustDebt",
      "outputs": [],
      "stateMutability": "nonpayable",
      "type": "function"
    },
    {
      "inputs": [
        {
          "internalType": "address",
          "name": "token_",
          "type": "address"
        }
      ],
      "name": "rescueFunds",
      "outputs": [],
      "stateMutability": "nonpayable",
      "type": "function"
    },
    {
      "inputs": [
        {
          "internalType": "uint256",
          "name": "borrowFee_",
          "type": "uint256"
        }
      ],
      "name": "updateBorrowFee",
      "outputs": [],
      "stateMutability": "nonpayable",
      "type": "function"
    },
    {
      "inputs": [
        {
          "internalType": "uint256",
          "name": "borrowRateMagnifier_",
          "type": "uint256"
        }
      ],
      "name": "updateBorrowRateMagnifier",
      "outputs": [],
      "stateMutability": "nonpayable",
      "type": "function"
    },
    {
      "inputs": [
        {
          "internalType": "uint256",
          "name": "collateralFactor_",
          "type": "uint256"
        }
      ],
      "name": "updateCollateralFactor",
      "outputs": [],
      "stateMutability": "nonpayable",
      "type": "function"
    },
    {
      "inputs": [
        {
          "internalType": "uint256",
          "name": "supplyRateMagnifier_",
          "type": "uint256"
        },
        {
          "internalType": "uint256",
          "name": "borrowRateMagnifier_",
          "type": "uint256"
        },
        {
          "internalType": "uint256",
          "name": "collateralFactor_",
          "type": "uint256"
        },
        {
          "internalType": "uint256",
          "name": "liquidationThreshold_",
          "type": "uint256"
        },
        {
          "internalType": "uint256",
          "name": "liquidationMaxLimit_",
          "type": "uint256"
        },
        {
          "internalType": "uint256",
          "name": "withdrawGap_",
          "type": "uint256"
        },
        {
          "internalType": "uint256",
          "name": "liquidationPenalty_",
          "type": "uint256"
        },
        {
          "internalType": "uint256",
          "name": "borrowFee_",
          "type": "uint256"
        }
      ],
      "name": "updateCoreSettings",
      "outputs": [],
      "stateMutability": "nonpayable",
      "type": "function"
    },
    {
      "inputs": [
        {
          "internalType": "uint256",
          "name": "liquidationMaxLimit_",
          "type": "uint256"
        }
      ],
      "name": "updateLiquidationMaxLimit",
      "outputs": [],
      "stateMutability": "nonpayable",
      "type": "function"
    },
    {
      "inputs": [
        {
          "internalType": "uint256",
          "name": "liquidationPenalty_",
          "type": "uint256"
        }
      ],
      "name": "updateLiquidationPenalty",
      "outputs": [],
      "stateMutability": "nonpayable",
      "type": "function"
    },
    {
      "inputs": [
        {
          "internalType": "uint256",
          "name": "liquidationThreshold_",
          "type": "uint256"
        }
      ],
      "name": "updateLiquidationThreshold",
      "outputs": [],
      "stateMutability": "nonpayable",
      "type": "function"
    },
    {
      "inputs": [
        {
          "internalType": "address",
          "name": "newOracle_",
          "type": "address"
        }
      ],
      "name": "updateOracle",
      "outputs": [],
      "stateMutability": "nonpayable",
      "type": "function"
    },
    {
      "inputs": [
        {
          "internalType": "address",
          "name": "newRebalancer_",
          "type": "address"
        }
      ],
      "name": "updateRebalancer",
      "outputs": [],
      "stateMutability": "nonpayable",
      "type": "function"
    },
    {
      "inputs": [
        {
          "internalType": "uint256",
          "name": "supplyRateMagnifier_",
          "type": "uint256"
        }
      ],
      "name": "updateSupplyRateMagnifier",
      "outputs": [],
      "stateMutability": "nonpayable",
      "type": "function"
    },
    {
      "inputs": [
        {
          "internalType": "uint256",
          "name": "withdrawGap_",
          "type": "uint256"
        }
      ],
      "name": "updateWithdrawGap",
      "outputs": [],
      "stateMutability": "nonpayable",
      "type": "function"
    }
  ],
  "transactionHash": "0xafddc5b9b396c357ea904a1372d98129cc7fddf93139739fe18d8624dbfa4fbc",
  "args": [],
  "numDeployments": 2,
  "solcInputHash": "033d84042c3fe6a1afa58a71e8e52d69",
  "bytecode": "0x60a060405234801561001057600080fd5b5030608052608051612934610084600039600081816102680152818161040a015281816105c40152818161074d015281816108ee01528181610b6101528181610d0c01528181610ec001528181611069015281816111f90152818161133c015281816117e90152611ad401526129346000f3fe608060405234801561001057600080fd5b50600436106100df5760003560e01c8063898e96281161008c578063d3b5be1a11610066578063d3b5be1a14610191578063d61b93fe146101a4578063e53b2017146101b7578063f7a0a7e0146101ca57600080fd5b8063898e962814610158578063b046a4491461016b578063b8244f5f1461017e57600080fd5b8063509c21a4116100bd578063509c21a41461011f57806354b04ef51461013257806357917a111461014557600080fd5b806303f9923c146100e45780631cb44dfc146100f95780634a138a711461010c575b600080fd5b6100f76100f2366004612494565b6101dd565b005b6100f76101073660046124d2565b61037f565b6100f761011a366004612494565b610539565b6100f761012d366004612494565b6106c2565b6100f76101403660046124f6565b610863565b6100f7610153366004612494565b610ad6565b6100f7610166366004612494565b610c81565b6100f76101793660046124d2565b610e35565b6100f761018c366004612494565b610fde565b6100f761019f366004612494565b61116e565b6100f76101b236600461257a565b611325565b6100f76101c53660046124d2565b6117d2565b6100f76101d8366004612494565b611a49565b3073ffffffffffffffffffffffffffffffffffffffff1663021618876040518163ffffffff1660e01b81526004016080604051808303816000875af115801561022a573d6000803e3d6000fd5b505050506040513d601f19601f8201168201806040525081019061024e9190612656565b50505073ffffffffffffffffffffffffffffffffffffffff7f000000000000000000000000000000000000000000000000000000000000000016300390506102cb576040517f60121cca0000000000000000000000000000000000000000000000000000000081526180ea60048201526024015b60405180910390fd5b6040518181527fba3aefe95d9bb126dd0e7885e76f453e72b0ee6efd457771f26fe0a7ca56cedc9060200160405180910390a1610309600a826126bb565b90506103e881111561034b576040517f60121cca0000000000000000000000000000000000000000000000000000000081526180e960048201526024016102c2565b603e81901b6001547fffffffffffffffffffffffffffffffffffffffffffffff003fffffffffffffff161760018190555050565b3073ffffffffffffffffffffffffffffffffffffffff1663021618876040518163ffffffff1660e01b81526004016080604051808303816000875af11580156103cc573d6000803e3d6000fd5b505050506040513d601f19601f820116820180604052508101906103f09190612656565b50505073ffffffffffffffffffffffffffffffffffffffff7f00000000000000000000000000000000000000000000000000000000000000001630039050610468576040517f60121cca0000000000000000000000000000000000000000000000000000000081526180ea60048201526024016102c2565b73ffffffffffffffffffffffffffffffffffffffff81166104b9576040517f60121cca0000000000000000000000000000000000000000000000000000000081526180f160048201526024016102c2565b600180546bffffffffffffffffffffffff167fffffffffffffffffffffffffffffffffffffffff000000000000000000000000606084901b1617905560405173ffffffffffffffffffffffffffffffffffffffff8216907f7a46205dbf7cc57a79f474f580e08d7961ad634e14643486b8df2dc30c392b6290600090a250565b3073ffffffffffffffffffffffffffffffffffffffff1663021618876040518163ffffffff1660e01b81526004016080604051808303816000875af1158015610586573d6000803e3d6000fd5b505050506040513d601f19601f820116820180604052508101906105aa9190612656565b50505073ffffffffffffffffffffffffffffffffffffffff7f00000000000000000000000000000000000000000000000000000000000000001630039050610622576040517f60121cca0000000000000000000000000000000000000000000000000000000081526180ea60048201526024016102c2565b6040518181527f06f8b08c94d657867f843433de70bed3628bbdc19b0c89413af75d30420ad3f39060200160405180910390a161ffff811115610695576040517f60121cca0000000000000000000000000000000000000000000000000000000081526180e960048201526024016102c2565b600180547fffffffffffffffffffffffffffffffffffffffffffffffffffffffffffff0000169091179055565b3073ffffffffffffffffffffffffffffffffffffffff1663021618876040518163ffffffff1660e01b81526004016080604051808303816000875af115801561070f573d6000803e3d6000fd5b505050506040513d601f19601f820116820180604052508101906107339190612656565b50505073ffffffffffffffffffffffffffffffffffffffff7f000000000000000000000000000000000000000000000000000000000000000016300390506107ab576040517f60121cca0000000000000000000000000000000000000000000000000000000081526180ea60048201526024016102c2565b6040518181527f0e8160f7246256e8f7eea7dc5ee9de8c9fa1d6057c30561f548e6a84defeef159060200160405180910390a1600154602a81901c6103ff166107f5600a846126bb565b9250808310610834576040517f60121cca0000000000000000000000000000000000000000000000000000000081526180e960048201526024016102c2565b507ffffffffffffffffffffffffffffffffffffffffffffffffffffffc00ffffffff1660209190911b17600155565b3073ffffffffffffffffffffffffffffffffffffffff1663021618876040518163ffffffff1660e01b81526004016080604051808303816000875af11580156108b0573d6000803e3d6000fd5b505050506040513d601f19601f820116820180604052508101906108d49190612656565b50505073ffffffffffffffffffffffffffffffffffffffff7f0000000000000000000000000000000000000000000000000000000000000000163003905061094c576040517f60121cca0000000000000000000000000000000000000000000000000000000081526180ea60048201526024016102c2565b6040805189815260208101899052908101879052606081018690526080810185905260a0810184905260c0810183905260e081018290527ff992c18e9b1aec434f456c32a556717f76f0f19cba16d430d4ba1be0813ab3e8906101000160405180910390a16109bb8483611bd9565b6109c6600a876126bb565b95506109d3600a866126bb565b94506109e0600a856126bb565b93506109ed600a846126bb565b925061ffff881180610a00575061ffff87115b80610a0b5750848610155b80610a165750838510155b80610a2257506103ff83115b80610a2e57506103ff82115b80610a3a57506103ff81115b15610a75576040517f60121cca0000000000000000000000000000000000000000000000000000000081526180e960048201526024016102c2565b605281901b604883901b603e85901b603487901b602a89901b60208b901b60108d901b8e6001547ffffffffffffffffffffffffffffffffffffffffff000000000000000000000001617171717171717176001819055505050505050505050565b3073ffffffffffffffffffffffffffffffffffffffff1663021618876040518163ffffffff1660e01b81526004016080604051808303816000875af1158015610b23573d6000803e3d6000fd5b505050506040513d601f19601f82011682018060405250810190610b479190612656565b50505073ffffffffffffffffffffffffffffffffffffffff7f00000000000000000000000000000000000000000000000000000000000000001630039050610bbf576040517f60121cca0000000000000000000000000000000000000000000000000000000081526180ea60048201526024016102c2565b6040518181527fd3d6bb99321a653b7fc969c9f2a1917bd9623cab8ecaa67a2e1bec34c3eb2e1c9060200160405180910390a1600154603481901c6103ff16610c12610c0c82600a6126f6565b84611bd9565b6103ff831115610c52576040517f60121cca0000000000000000000000000000000000000000000000000000000081526180e960048201526024016102c2565b507ffffffffffffffffffffffffffffffffffffffffffffc00ffffffffffffffffff1660489190911b17600155565b3073ffffffffffffffffffffffffffffffffffffffff1663021618876040518163ffffffff1660e01b81526004016080604051808303816000875af1158015610cce573d6000803e3d6000fd5b505050506040513d601f19601f82011682018060405250810190610cf29190612656565b50505073ffffffffffffffffffffffffffffffffffffffff7f00000000000000000000000000000000000000000000000000000000000000001630039050610d6a576040517f60121cca0000000000000000000000000000000000000000000000000000000081526180ea60048201526024016102c2565b6040518181527f5ac1492eb2009d4983693cc59b4ec4032b506a0f9cbefc19a7545af5945d26af9060200160405180910390a16001546103ff602a82901c811690604883901c16610dbb8482611bd9565b610dc6600a856126bb565b9350838210610e05576040517f60121cca0000000000000000000000000000000000000000000000000000000081526180e960048201526024016102c2565b50507fffffffffffffffffffffffffffffffffffffffffffffffffc00fffffffffffff1660349190911b17600155565b3073ffffffffffffffffffffffffffffffffffffffff1663021618876040518163ffffffff1660e01b81526004016080604051808303816000875af1158015610e82573d6000803e3d6000fd5b505050506040513d601f19601f82011682018060405250810190610ea69190612656565b50505073ffffffffffffffffffffffffffffffffffffffff7f00000000000000000000000000000000000000000000000000000000000000001630039050610f1e576040517f60121cca0000000000000000000000000000000000000000000000000000000081526180ea60048201526024016102c2565b73ffffffffffffffffffffffffffffffffffffffff8116610f6f576040517f60121cca0000000000000000000000000000000000000000000000000000000081526180f160048201526024016102c2565b600980547fffffffffffffffffffffffff00000000000000000000000000000000000000001673ffffffffffffffffffffffffffffffffffffffff83169081179091556040517fdb94ee7fd8b5bbf8f6d59e76731ff4b4f5a02ab3af1d3e0c774862cf96ff613b90600090a250565b3073ffffffffffffffffffffffffffffffffffffffff1663021618876040518163ffffffff1660e01b81526004016080604051808303816000875af115801561102b573d6000803e3d6000fd5b505050506040513d601f19601f8201168201806040525081019061104f9190612656565b50505073ffffffffffffffffffffffffffffffffffffffff7f000000000000000000000000000000000000000000000000000000000000000016300390506110c7576040517f60121cca0000000000000000000000000000000000000000000000000000000081526180ea60048201526024016102c2565b6040518181527f06a28e5e1500bd478bd28b400a0fb46a9cc8748a5dac616b38bc91c29462c17f9060200160405180910390a16103ff81111561113a576040517f60121cca0000000000000000000000000000000000000000000000000000000081526180e960048201526024016102c2565b605281901b6001547ffffffffffffffffffffffffffffffffffffffffff003ffffffffffffffffffff161760018190555050565b3073ffffffffffffffffffffffffffffffffffffffff1663021618876040518163ffffffff1660e01b81526004016080604051808303816000875af11580156111bb573d6000803e3d6000fd5b505050506040513d601f19601f820116820180604052508101906111df9190612656565b50505073ffffffffffffffffffffffffffffffffffffffff7f00000000000000000000000000000000000000000000000000000000000000001630039050611257576040517f60121cca0000000000000000000000000000000000000000000000000000000081526180ea60048201526024016102c2565b6040518181527f44a667dd6218a52f7ef808da1e39e9c8497db215eaff093c0c42ecf9bf2168f39060200160405180910390a16001546103ff602082901c811690603483901c166112a9600a856126bb565b935083821015806112ba5750808410155b156112f5576040517f60121cca0000000000000000000000000000000000000000000000000000000081526180e960048201526024016102c2565b50507ffffffffffffffffffffffffffffffffffffffffffffffffffff003ffffffffff16602a9190911b17600155565b73ffffffffffffffffffffffffffffffffffffffff7f0000000000000000000000000000000000000000000000000000000000000000163003611398576040517f60121cca0000000000000000000000000000000000000000000000000000000081526180ea60048201526024016102c2565b60008054906001821690036113b357600181176000556113e9565b6040517f60121cca00000000000000000000000000000000000000000000000000000000815261791960048201526024016102c2565b6000806000806000806000806000600a54905060005b8b518110156116e5578b818151811061141a5761141a612713565b6020026020010151995089600003611462576040517f60121cca0000000000000000000000000000000000000000000000000000000081526180eb60048201526024016102c2565b60008a81526003602052604081205499508990036114b0576040517f60121cca0000000000000000000000000000000000000000000000000000000081526180ec60048201526024016102c2565b67ffffffffffffffff602d8a901c16955060ff8616600887901c901b955067ffffffffffffffff606d8a901c16935060ff8416600885901c901b93508360000361152a576040517f60121cca0000000000000000000000000000000000000000000000000000000081526180ed60048201526024016102c2565b8860021660021461154c5761154760028a901c6207ffff16612742565b611557565b6207ffff60028a901c165b975062ffffff60158a901c1696506060866115748a60020b611c26565b61157e91906126f6565b60008a815260056020526040902054911c95509250600180841614806115ac57508662ffffff600185901c16115b156116a7576040517f22348cc70000000000000000000000000000000000000000000000000000000081526004810189905260248101889052604481018690526064810184905230906322348cc79060840160a060405180830381865afa15801561161b573d6000803e3d6000fd5b505050506040513d601f19601f8201168201806040525081019061163f919061277a565b5091975050861591506116849050576040517f60121cca0000000000000000000000000000000000000000000000000000000081526180ee60048201526024016102c2565b61168e84836127ba565b60008b81526003602052604090206001905591506116dd565b6040517f60121cca0000000000000000000000000000000000000000000000000000000081526180ef60048201526024016102c2565b6001016113ff565b5080600003611724576040517f60121cca0000000000000000000000000000000000000000000000000000000081526180f060048201526024016102c2565b66ffffffffffffff609a8b901c1660ff60928c901c161b61174582826127ba565b905061175681603860086001611e88565b7ffffffffffffc0000000000000003ffffffffffffffffffffffffffffffffffff8c16609282901b176000908155600a556040519091507fae8abcd7cc16d6da9fa7098d41cc4cdb3bd5ce892e46f15d904b44c9b156cb5e906117bc908e9085906127cd565b60405180910390a1505050505050505050505050565b73ffffffffffffffffffffffffffffffffffffffff7f0000000000000000000000000000000000000000000000000000000000000000163003611845576040517f60121cca0000000000000000000000000000000000000000000000000000000081526180ea60048201526024016102c2565b7fffffffffffffffffffffffff111111111111111111111111111111111111111273ffffffffffffffffffffffffffffffffffffffff8216016118ff576118fa3073ffffffffffffffffffffffffffffffffffffffff16632861c7d16040518163ffffffff1660e01b8152600401602060405180830381865afa1580156118d0573d6000803e3d6000fd5b505050506040513d601f19601f820116820180604052508101906118f49190612815565b47611fb1565b611a05565b611a05813073ffffffffffffffffffffffffffffffffffffffff16632861c7d16040518163ffffffff1660e01b8152600401602060405180830381865afa15801561194e573d6000803e3d6000fd5b505050506040513d601f19601f820116820180604052508101906119729190612815565b6040517f70a0823100000000000000000000000000000000000000000000000000000000815230600482015273ffffffffffffffffffffffffffffffffffffffff8516906370a0823190602401602060405180830381865afa1580156119dc573d6000803e3d6000fd5b505050506040513d601f19601f82011682018060405250810190611a009190612832565b612110565b60405173ffffffffffffffffffffffffffffffffffffffff8216907fdff2a3947bcf9fc0807b142e7c8497066db9183428b7bdbfb1fcd0f55c27a3df90600090a250565b3073ffffffffffffffffffffffffffffffffffffffff1663021618876040518163ffffffff1660e01b81526004016080604051808303816000875af1158015611a96573d6000803e3d6000fd5b505050506040513d601f19601f82011682018060405250810190611aba9190612656565b50505073ffffffffffffffffffffffffffffffffffffffff7f00000000000000000000000000000000000000000000000000000000000000001630039050611b32576040517f60121cca0000000000000000000000000000000000000000000000000000000081526180ea60048201526024016102c2565b6040518181527f8d6a11b15739c2d7a6d0a69b9d322262db8c1fb2e4b96239e4e4733df8a5164e9060200160405180910390a161ffff811115611ba5576040517f60121cca0000000000000000000000000000000000000000000000000000000081526180e960048201526024016102c2565b601081901b6001547fffffffffffffffffffffffffffffffffffffffffffffffffffffffff0000ffff161760018190555050565b6126f2611be682846127ba565b1115611c22576040517f60121cca0000000000000000000000000000000000000000000000000000000081526180e960048201526024016102c2565b5050565b600060ff82901d80831803617fff811115611c4057600080fd5b7001000000000000000000000000000000006001821615611c6e57506fff9dd7de423466c20352b1246ce4856f5b6002821615611c8d576fff3bd55f4488ad277531fa1c725a66d00260801c5b6004821615611cac576ffe78410fd6498b73cb96a6917f8532590260801c5b6008821615611ccb576ffcf2d9987c9be178ad5bfeffaa1232730260801c5b6010821615611cea576ff9ef02c4529258b057769680fc6601b30260801c5b6020821615611d09576ff402d288133a85a17784a411f7aba0820260801c5b6040821615611d28576fe895615b5beb6386553757b0352bda900260801c5b6080821615611d47576fd34f17a00ffa00a8309940a15930391a0260801c5b610100821615611d67576fae6b7961714e20548d88ea5123f9a0ff0260801c5b610200821615611d87576f76d6461f27082d74e0feed3b388c0ca10260801c5b610400821615611da7576f372a3bfe0745d8b6b19d985d9a8b85bb0260801c5b610800821615611dc7576f0be32cbee48979763cf7247dd7bb539d0260801c5b611000821615611de6576e8d4f70c9ff4924dac37612d1e2921e0260801c5b612000821615611e04576d4e009ae5519380809a02ca7aec770260801c5b614000821615611e20576b17c45e641b6e95dee056ff100260801c5b600091507f80000000000000000000000000000000000000000000000000000000000000008416611e7e577fffffffffffffffffffffffffffffffffffffffffffffffffffffffffffffffff0463ffffffff811615611e7e57600191505b60201c0192915050565b600080856fffffffffffffffffffffffffffffffff811115611eab5760809150811c5b67ffffffffffffffff811115611ec3576040918201911c5b63ffffffff811115611ed7576020918201911c5b61ffff811115611ee9576010918201911c5b60ff811115611efa576008918201911c5b600f811115611f0b576004918201911c5b6003811115611f1c576002918201911c5b6001811115611f2c576001820191505b8015611f39576001820191505b5084811015611f455750835b848103905085811c60008211841615611f9457600181019050806001871b03611f9457506001908101907fffffffffffffffffffffffffffffffffffffffffffffffffffffffffffffffff86011b5b6001851b8210611fa357600080fd5b90931b909201949350505050565b8047101561201b576040517f08c379a000000000000000000000000000000000000000000000000000000000815260206004820152601d60248201527f416464726573733a20696e73756666696369656e742062616c616e636500000060448201526064016102c2565b60008273ffffffffffffffffffffffffffffffffffffffff168260405160006040518083038185875af1925050503d8060008114612075576040519150601f19603f3d011682016040523d82523d6000602084013e61207a565b606091505b505090508061210b576040517f08c379a000000000000000000000000000000000000000000000000000000000815260206004820152603a60248201527f416464726573733a20756e61626c6520746f2073656e642076616c75652c207260448201527f6563697069656e74206d6179206861766520726576657274656400000000000060648201526084016102c2565b505050565b6040805173ffffffffffffffffffffffffffffffffffffffff848116602483015260448083018590528351808403909101815260649092018352602080830180517bffffffffffffffffffffffffffffffffffffffffffffffffffffffff167fa9059cbb0000000000000000000000000000000000000000000000000000000017905283518085019094528084527f5361666545524332303a206c6f772d6c6576656c2063616c6c206661696c65649084015261210b928692916000916121db918516908490612285565b80519091501561210b57808060200190518101906121f9919061284b565b61210b576040517f08c379a000000000000000000000000000000000000000000000000000000000815260206004820152602a60248201527f5361666545524332303a204552433230206f7065726174696f6e20646964206e60448201527f6f7420737563636565640000000000000000000000000000000000000000000060648201526084016102c2565b6060612294848460008561229c565b949350505050565b60608247101561232e576040517f08c379a000000000000000000000000000000000000000000000000000000000815260206004820152602660248201527f416464726573733a20696e73756666696369656e742062616c616e636520666f60448201527f722063616c6c000000000000000000000000000000000000000000000000000060648201526084016102c2565b6000808673ffffffffffffffffffffffffffffffffffffffff1685876040516123579190612891565b60006040518083038185875af1925050503d8060008114612394576040519150601f19603f3d011682016040523d82523d6000602084013e612399565b606091505b50915091506123aa878383876123b5565b979650505050505050565b6060831561244b5782516000036124445773ffffffffffffffffffffffffffffffffffffffff85163b612444576040517f08c379a000000000000000000000000000000000000000000000000000000000815260206004820152601d60248201527f416464726573733a2063616c6c20746f206e6f6e2d636f6e747261637400000060448201526064016102c2565b5081612294565b61229483838151156124605781518083602001fd5b806040517f08c379a00000000000000000000000000000000000000000000000000000000081526004016102c291906128ad565b6000602082840312156124a657600080fd5b5035919050565b73ffffffffffffffffffffffffffffffffffffffff811681146124cf57600080fd5b50565b6000602082840312156124e457600080fd5b81356124ef816124ad565b9392505050565b600080600080600080600080610100898b03121561251357600080fd5b505086359860208801359850604088013597606081013597506080810135965060a0810135955060c0810135945060e0013592509050565b7f4e487b7100000000000000000000000000000000000000000000000000000000600052604160045260246000fd5b6000602080838503121561258d57600080fd5b823567ffffffffffffffff808211156125a557600080fd5b818501915085601f8301126125b957600080fd5b8135818111156125cb576125cb61254b565b8060051b6040517fffffffffffffffffffffffffffffffffffffffffffffffffffffffffffffffe0603f8301168101818110858211171561260e5761260e61254b565b60405291825284820192508381018501918883111561262c57600080fd5b938501935b8285101561264a57843584529385019392850192612631565b98975050505050505050565b6000806000806080858703121561266c57600080fd5b505082516020840151604085015160609095015191969095509092509050565b7f4e487b7100000000000000000000000000000000000000000000000000000000600052601160045260246000fd5b6000826126f1577f4e487b7100000000000000000000000000000000000000000000000000000000600052601260045260246000fd5b500490565b808202811582820484141761270d5761270d61268c565b92915050565b7f4e487b7100000000000000000000000000000000000000000000000000000000600052603260045260246000fd5b60007f800000000000000000000000000000000000000000000000000000000000000082036127735761277361268c565b5060000390565b600080600080600060a0868803121561279257600080fd5b5050835160208501516040860151606087015160809097015192989197509594509092509050565b8082018082111561270d5761270d61268c565b604080825283519082018190526000906020906060840190828701845b82811015612806578151845292840192908401906001016127ea565b50505092019290925292915050565b60006020828403121561282757600080fd5b81516124ef816124ad565b60006020828403121561284457600080fd5b5051919050565b60006020828403121561285d57600080fd5b815180151581146124ef57600080fd5b60005b83811015612888578181015183820152602001612870565b50506000910152565b600082516128a381846020870161286d565b9190910192915050565b60208152600082518060208401526128cc81604085016020870161286d565b601f017fffffffffffffffffffffffffffffffffffffffffffffffffffffffffffffffe016919091016040019291505056fea26469706673582212205b03b1644b73158ec221951983b31e300cf03c8beb556a6bd6c7d5b7325d1c6164736f6c63430008150033",
  "devdoc": {
    "kind": "dev",
    "methods": {
      "absorbDustDebt(uint256[])": {
        "details": "in decades if a lot of positions are 100% liquidated (aka absorbed) then dust debt can mount up which is basically sort of an extra revenue for the protocol."
      },
      "rescueFunds(address)": {
        "details": "this contract never holds any funds as all operations send / receive funds from user <-> Liquidity."
      }
    },
    "version": 1
  },
  "userdoc": {
    "errors": {
      "FluidLiquidateResult(uint256,uint256)": [
        {
          "notice": "used to simulate liquidation to find the maximum liquidatable amounts"
        }
      ]
    },
    "events": {
      "LogAbsorbDustDebt(uint256[],uint256)": {
        "notice": "emitted when dust debt is absorbed for `nftIds_`"
      },
      "LogRescueFunds(address)": {
        "notice": "emitted when funds are rescued"
      },
      "LogUpdateBorrowFee(uint256)": {
        "notice": "emitted when the borrow fee config is updated"
      },
      "LogUpdateBorrowRateMagnifier(uint256)": {
        "notice": "emitted when the borrow rate magnifier config is updated"
      },
      "LogUpdateCollateralFactor(uint256)": {
        "notice": "emitted when the collateral factor config is updated"
      },
      "LogUpdateCoreSettings(uint256,uint256,uint256,uint256,uint256,uint256,uint256,uint256)": {
        "notice": "emitted when the core setting configs are updated"
      },
      "LogUpdateLiquidationMaxLimit(uint256)": {
        "notice": "emitted when the liquidation max limit config is updated"
      },
      "LogUpdateLiquidationPenalty(uint256)": {
        "notice": "emitted when the liquidation penalty config is updated"
      },
      "LogUpdateLiquidationThreshold(uint256)": {
        "notice": "emitted when the liquidation threshold config is updated"
      },
      "LogUpdateOracle(address)": {
        "notice": "emitted when the oracle is updated"
      },
      "LogUpdateRebalancer(address)": {
        "notice": "emitted when the allowed rebalancer is updated"
      },
      "LogUpdateSupplyRateMagnifier(uint256)": {
        "notice": "emitted when the supply rate magnifier config is updated"
      },
      "LogUpdateWithdrawGap(uint256)": {
        "notice": "emitted when the withdrawal gap config is updated"
      }
    },
    "kind": "user",
    "methods": {
      "absorbDustDebt(uint256[])": {
        "notice": "absorbs accumulated dust debt"
      },
      "rescueFunds(address)": {
        "notice": "sends any potentially stuck funds to Liquidity contract."
      },
      "updateBorrowFee(uint256)": {
        "notice": "updates the borrow fee to `borrowFee_`. Input in 1e2 (1% = 100, 100% = 10_000)."
      },
      "updateBorrowRateMagnifier(uint256)": {
        "notice": "updates the borrow rate magnifier to `borrowRateMagnifier_`. Input in 1e2 (1% = 100, 100% = 10_000)."
      },
      "updateCollateralFactor(uint256)": {
        "notice": "updates the collateral factor to `collateralFactor_`. Input in 1e2 (1% = 100, 100% = 10_000)."
      },
      "updateCoreSettings(uint256,uint256,uint256,uint256,uint256,uint256,uint256,uint256)": {
        "notice": "updates the all Vault core settings according to input params. All input values are expected in 1e2 (1% = 100, 100% = 10_000)."
      },
      "updateLiquidationMaxLimit(uint256)": {
        "notice": "updates the liquidation max limit to `liquidationMaxLimit_`. Input in 1e2 (1% = 100, 100% = 10_000)."
      },
      "updateLiquidationPenalty(uint256)": {
        "notice": "updates the liquidation penalty to `liquidationPenalty_`. Input in 1e2 (1% = 100, 100% = 10_000)."
      },
      "updateLiquidationThreshold(uint256)": {
        "notice": "updates the liquidation threshold to `liquidationThreshold_`. Input in 1e2 (1% = 100, 100% = 10_000)."
      },
      "updateOracle(address)": {
        "notice": "updates the Vault oracle to `newOracle_`. Must implement the FluidOracle interface."
      },
      "updateRebalancer(address)": {
        "notice": "updates the allowed rebalancer to `newRebalancer_`."
      },
      "updateSupplyRateMagnifier(uint256)": {
        "notice": "updates the supply rate magnifier to `supplyRateMagnifier_`. Input in 1e2 (1% = 100, 100% = 10_000)."
      },
      "updateWithdrawGap(uint256)": {
        "notice": "updates the withdrawal gap to `withdrawGap_`. Input in 1e2 (1% = 100, 100% = 10_000)."
      }
    },
    "notice": "Fluid Vault protocol Admin Module contract.         Implements admin related methods to set configs such as liquidation params, rates         oracle address etc.         Methods are limited to be called via delegateCall only. Vault CoreModule (\"VaultT1\" contract)         is expected to call the methods implemented here after checking the msg.sender is authorized.         All methods update the exchange prices in storage before changing configs.",
    "version": 1
  },
  "storageLayout": {
    "storage": [
      {
        "astId": 48984,
        "contract": "contracts/protocols/vault/vaultT1/adminModule/main.sol:FluidVaultT1Admin",
        "label": "vaultVariables",
        "offset": 0,
        "slot": "0",
        "type": "t_uint256"
      },
      {
        "astId": 48987,
        "contract": "contracts/protocols/vault/vaultT1/adminModule/main.sol:FluidVaultT1Admin",
        "label": "vaultVariables2",
        "offset": 0,
        "slot": "1",
        "type": "t_uint256"
      },
      {
        "astId": 48990,
        "contract": "contracts/protocols/vault/vaultT1/adminModule/main.sol:FluidVaultT1Admin",
        "label": "absorbedLiquidity",
        "offset": 0,
        "slot": "2",
        "type": "t_uint256"
      },
      {
        "astId": 48995,
        "contract": "contracts/protocols/vault/vaultT1/adminModule/main.sol:FluidVaultT1Admin",
        "label": "positionData",
        "offset": 0,
        "slot": "3",
        "type": "t_mapping(t_uint256,t_uint256)"
      },
      {
        "astId": 49000,
        "contract": "contracts/protocols/vault/vaultT1/adminModule/main.sol:FluidVaultT1Admin",
        "label": "tickHasDebt",
        "offset": 0,
        "slot": "4",
        "type": "t_mapping(t_int256,t_uint256)"
      },
      {
        "astId": 49005,
        "contract": "contracts/protocols/vault/vaultT1/adminModule/main.sol:FluidVaultT1Admin",
        "label": "tickData",
        "offset": 0,
        "slot": "5",
        "type": "t_mapping(t_int256,t_uint256)"
      },
      {
        "astId": 49012,
        "contract": "contracts/protocols/vault/vaultT1/adminModule/main.sol:FluidVaultT1Admin",
        "label": "tickId",
        "offset": 0,
        "slot": "6",
        "type": "t_mapping(t_int256,t_mapping(t_uint256,t_uint256))"
      },
      {
        "astId": 49017,
        "contract": "contracts/protocols/vault/vaultT1/adminModule/main.sol:FluidVaultT1Admin",
        "label": "branchData",
        "offset": 0,
        "slot": "7",
        "type": "t_mapping(t_uint256,t_uint256)"
      },
      {
        "astId": 49020,
        "contract": "contracts/protocols/vault/vaultT1/adminModule/main.sol:FluidVaultT1Admin",
        "label": "rates",
        "offset": 0,
        "slot": "8",
        "type": "t_uint256"
      },
      {
        "astId": 49023,
        "contract": "contracts/protocols/vault/vaultT1/adminModule/main.sol:FluidVaultT1Admin",
        "label": "rebalancer",
        "offset": 0,
        "slot": "9",
        "type": "t_address"
      },
      {
        "astId": 49025,
        "contract": "contracts/protocols/vault/vaultT1/adminModule/main.sol:FluidVaultT1Admin",
        "label": "absorbedDustDebt",
        "offset": 0,
        "slot": "10",
        "type": "t_uint256"
      }
    ],
    "types": {
      "t_address": {
        "encoding": "inplace",
        "label": "address",
        "numberOfBytes": "20"
      },
      "t_int256": {
        "encoding": "inplace",
        "label": "int256",
        "numberOfBytes": "32"
      },
      "t_mapping(t_int256,t_mapping(t_uint256,t_uint256))": {
        "encoding": "mapping",
        "key": "t_int256",
        "label": "mapping(int256 => mapping(uint256 => uint256))",
        "numberOfBytes": "32",
        "value": "t_mapping(t_uint256,t_uint256)"
      },
      "t_mapping(t_int256,t_uint256)": {
        "encoding": "mapping",
        "key": "t_int256",
        "label": "mapping(int256 => uint256)",
        "numberOfBytes": "32",
        "value": "t_uint256"
      },
      "t_mapping(t_uint256,t_uint256)": {
        "encoding": "mapping",
        "key": "t_uint256",
        "label": "mapping(uint256 => uint256)",
        "numberOfBytes": "32",
        "value": "t_uint256"
      },
      "t_uint256": {
        "encoding": "inplace",
        "label": "uint256",
        "numberOfBytes": "32"
      }
    }
  }
}