{
  "address": "0x692f94365c23FDB0d3e8b52d67f2E052AB59fE28",
  "abi": [
    {
      "inputs": [
        {
          "internalType": "address",
          "name": "owner_",
          "type": "address"
        },
        {
          "internalType": "address",
          "name": "fla_",
          "type": "address"
        },
        {
          "internalType": "address",
          "name": "weth_",
          "type": "address"
        },
        {
          "internalType": "address",
          "name": "oldFactory_",
          "type": "address"
        },
        {
          "internalType": "address",
          "name": "newFactory_",
          "type": "address"
        }
      ],
      "stateMutability": "nonpayable",
      "type": "constructor"
    },
    {
      "inputs": [],
      "name": "FluidVaultT1Migrator__InvalidOperation",
      "type": "error"
    },
    {
      "inputs": [],
      "name": "FluidVaultT1Migrator__NotAllowed",
      "type": "error"
    },
    {
      "anonymous": false,
      "inputs": [
        {
          "indexed": true,
          "internalType": "uint256",
          "name": "vaultId",
          "type": "uint256"
        },
        {
          "indexed": true,
          "internalType": "address",
          "name": "owner",
          "type": "address"
        },
        {
          "indexed": true,
          "internalType": "uint256",
          "name": "nft",
          "type": "uint256"
        },
        {
          "indexed": false,
          "internalType": "uint256",
          "name": "collateral",
          "type": "uint256"
        },
        {
          "indexed": false,
          "internalType": "uint256",
          "name": "debt",
          "type": "uint256"
        }
      ],
      "name": "Migrated",
      "type": "event"
    },
    {
      "anonymous": false,
      "inputs": [
        {
          "indexed": true,
          "internalType": "address",
          "name": "user",
          "type": "address"
        },
        {
          "indexed": true,
          "internalType": "address",
          "name": "newOwner",
          "type": "address"
        }
      ],
      "name": "OwnershipTransferred",
      "type": "event"
    },
    {
      "anonymous": false,
      "inputs": [
        {
          "indexed": true,
          "internalType": "address",
          "name": "token",
          "type": "address"
        },
        {
          "indexed": true,
          "internalType": "uint256",
          "name": "route",
          "type": "uint256"
        },
        {
          "indexed": false,
          "internalType": "uint256",
          "name": "amount",
          "type": "uint256"
        }
      ],
      "name": "SetFlashloanConfig",
      "type": "event"
    },
    {
      "anonymous": false,
      "inputs": [
        {
          "indexed": true,
          "internalType": "address",
          "name": "to",
          "type": "address"
        },
        {
          "indexed": true,
          "internalType": "address",
          "name": "token",
          "type": "address"
        },
        {
          "indexed": false,
          "internalType": "uint256",
          "name": "amount",
          "type": "uint256"
        }
      ],
      "name": "Withdraw",
      "type": "event"
    },
    {
      "inputs": [],
      "name": "FLA",
      "outputs": [
        {
          "internalType": "contract InstaFlashInterface",
          "name": "",
          "type": "address"
        }
      ],
      "stateMutability": "view",
      "type": "function"
    },
    {
      "inputs": [],
      "name": "VAULT_T1_FACTORY_NEW",
      "outputs": [
        {
          "internalType": "contract IFluidVaultFactory",
          "name": "",
          "type": "address"
        }
      ],
      "stateMutability": "view",
      "type": "function"
    },
    {
      "inputs": [],
      "name": "VAULT_T1_FACTORY_OLD",
      "outputs": [
        {
          "internalType": "contract IFluidVaultFactory",
          "name": "",
          "type": "address"
        }
      ],
      "stateMutability": "view",
      "type": "function"
    },
    {
      "inputs": [],
      "name": "WETH",
      "outputs": [
        {
          "internalType": "contract IWETH9",
          "name": "",
          "type": "address"
        }
      ],
      "stateMutability": "view",
      "type": "function"
    },
    {
      "inputs": [
        {
          "internalType": "uint256",
          "name": "slot_",
          "type": "uint256"
        },
        {
          "internalType": "uint256",
          "name": "key_",
          "type": "uint256"
        }
      ],
      "name": "calculateStorageSlotUintMapping",
      "outputs": [
        {
          "internalType": "bytes32",
          "name": "",
          "type": "bytes32"
        }
      ],
      "stateMutability": "pure",
      "type": "function"
    },
    {
      "inputs": [
        {
          "internalType": "address[]",
          "name": "assets",
          "type": "address[]"
        },
        {
          "internalType": "uint256[]",
          "name": "amounts",
          "type": "uint256[]"
        },
        {
          "internalType": "uint256[]",
          "name": "premiums",
          "type": "uint256[]"
        },
        {
          "internalType": "address",
          "name": "initiator",
          "type": "address"
        },
        {
          "internalType": "bytes",
          "name": "_data",
          "type": "bytes"
        }
      ],
      "name": "executeOperation",
      "outputs": [
        {
          "internalType": "bool",
          "name": "",
          "type": "bool"
        }
      ],
      "stateMutability": "nonpayable",
      "type": "function"
    },
    {
      "inputs": [
        {
          "internalType": "address",
          "name": "",
          "type": "address"
        }
      ],
      "name": "flashloanConfig",
      "outputs": [
        {
          "internalType": "uint256",
          "name": "amount",
          "type": "uint256"
        },
        {
          "internalType": "uint256",
          "name": "route",
          "type": "uint256"
        }
      ],
      "stateMutability": "view",
      "type": "function"
    },
    {
      "inputs": [
        {
          "internalType": "address",
          "name": "vaultFactory_",
          "type": "address"
        },
        {
          "internalType": "uint256",
          "name": "vaultId_",
          "type": "uint256"
        }
      ],
      "name": "getVaultAddress",
      "outputs": [
        {
          "internalType": "address",
          "name": "vault_",
          "type": "address"
        }
      ],
      "stateMutability": "pure",
      "type": "function"
    },
    {
      "inputs": [
        {
          "internalType": "address",
          "name": "operator",
          "type": "address"
        },
        {
          "internalType": "address",
          "name": "from",
          "type": "address"
        },
        {
          "internalType": "uint256",
          "name": "tokenId",
          "type": "uint256"
        },
        {
          "internalType": "bytes",
          "name": "data",
          "type": "bytes"
        }
      ],
      "name": "onERC721Received",
      "outputs": [
        {
          "internalType": "bytes4",
          "name": "",
          "type": "bytes4"
        }
      ],
      "stateMutability": "nonpayable",
      "type": "function"
    },
    {
      "inputs": [],
      "name": "owner",
      "outputs": [
        {
          "internalType": "address",
          "name": "",
          "type": "address"
        }
      ],
      "stateMutability": "view",
      "type": "function"
    },
    {
      "inputs": [
        {
          "internalType": "address",
          "name": "token_",
          "type": "address"
        },
        {
          "internalType": "uint256",
          "name": "route_",
          "type": "uint256"
        },
        {
          "internalType": "uint256",
          "name": "amount_",
          "type": "uint256"
        }
      ],
      "name": "setFlashloanConfig",
      "outputs": [],
      "stateMutability": "nonpayable",
      "type": "function"
    },
    {
      "inputs": [
        {
          "internalType": "address[]",
          "name": "targets_",
          "type": "address[]"
        },
        {
          "internalType": "bytes[]",
          "name": "calldatas_",
          "type": "bytes[]"
        }
      ],
      "name": "spell",
      "outputs": [],
      "stateMutability": "nonpayable",
      "type": "function"
    },
    {
      "inputs": [
        {
          "internalType": "address",
          "name": "newOwner",
          "type": "address"
        }
      ],
      "name": "transferOwnership",
      "outputs": [],
      "stateMutability": "nonpayable",
      "type": "function"
    },
    {
      "inputs": [
        {
          "internalType": "uint256",
          "name": "nftId_",
          "type": "uint256"
        }
      ],
      "name": "vaultByNftId",
      "outputs": [
        {
          "internalType": "uint256",
          "name": "vaultId_",
          "type": "uint256"
        },
        {
          "internalType": "address",
          "name": "vault_",
          "type": "address"
        }
      ],
      "stateMutability": "view",
      "type": "function"
    },
    {
      "inputs": [
        {
          "internalType": "address",
          "name": "vault_",
          "type": "address"
        }
      ],
      "name": "vaultConfig",
      "outputs": [
        {
          "internalType": "address",
          "name": "supply_",
          "type": "address"
        },
        {
          "internalType": "address",
          "name": "borrow_",
          "type": "address"
        }
      ],
      "stateMutability": "view",
      "type": "function"
    },
    {
      "inputs": [
        {
          "internalType": "address",
          "name": "to_",
          "type": "address"
        },
        {
          "internalType": "address[]",
          "name": "tokens_",
          "type": "address[]"
        },
        {
          "internalType": "uint256[]",
          "name": "amounts_",
          "type": "uint256[]"
        }
      ],
      "name": "withdraw",
      "outputs": [],
      "stateMutability": "nonpayable",
      "type": "function"
    },
    {
      "stateMutability": "payable",
      "type": "receive"
    }
  ],
  "args": [
    "0x9800020b610194dBa52CF606E8Aa142F9F256166",
    "0xAB50Dd1C57938218627Df2311ef65b4e2e84aF48",
    "0xC02aaA39b223FE8D0A0e5C4F27eAD9083C756Cc2",
    "0x3B38099b79a143038a3935C619B2A3eA70438C60",
    "0x324c5Dc1fC42c7a4D43d92df1eBA58a54d13Bf2d"
  ],
  "numDeployments": 1,
  "solcInputHash": "b4b9c122a81dcb4a1780c3761f07caa2",
  "bytecode": "0x6101006040523480156200001257600080fd5b50604051620033d3380380620033d38339810160408190526200003591620000bf565b600080546001600160a01b0319166001600160a01b03871690811782556040518792907f8be0079c531659141344cd1fd0a4f28419497f9722a3daafe3b4186f6b6457e0908290a3506001600160a01b0393841660c05291831660e05282166080521660a052506200012f565b80516001600160a01b0381168114620000ba57600080fd5b919050565b600080600080600060a08688031215620000d857600080fd5b620000e386620000a2565b9450620000f360208701620000a2565b93506200010360408701620000a2565b92506200011360608701620000a2565b91506200012360808701620000a2565b90509295509295909350565b60805160a05160c05160e051613216620001bd6000396000818161039f015281816108260152818161140f0152818161188c015261192d0152600081816102790152818161096001526112620152600081816103d3015281816106ae015281816109fc01526117660152600081816102200152818161049c01528181610aeb0152610bca01526132166000f3fe6080604052600436106100f75760003560e01c806382bc4aaf1161008a578063c30cfc9311610059578063c30cfc93146103c1578063edbd7668146103f5578063f2fde38b14610415578063f857ef671461043557600080fd5b806382bc4aaf146103105780638da5cb5b14610330578063920f5c841461035d578063ad5c46481461038d57600080fd5b806365d72688116100c657806365d726881461020e57806376ca658a146102675780637b5654b41461029b5780637bbede43146102bb57600080fd5b8063150b7a02146101035780631949138e146101595780631bbafd46146101a3578063264fffb0146101c557600080fd5b366100fe57005b600080fd5b34801561010f57600080fd5b5061012361011e36600461261a565b610482565b6040517fffffffff0000000000000000000000000000000000000000000000000000000090911681526020015b60405180910390f35b34801561016557600080fd5b5061017961017436600461268d565b610ae4565b6040805192835273ffffffffffffffffffffffffffffffffffffffff909116602083015201610150565b3480156101af57600080fd5b506101c36101be3660046126a6565b610bf7565b005b3480156101d157600080fd5b506101f96101e03660046126db565b6001602081905260009182526040909120805491015482565b60408051928352602083019190915201610150565b34801561021a57600080fd5b506102427f000000000000000000000000000000000000000000000000000000000000000081565b60405173ffffffffffffffffffffffffffffffffffffffff9091168152602001610150565b34801561027357600080fd5b506102427f000000000000000000000000000000000000000000000000000000000000000081565b3480156102a757600080fd5b506102426102b63660046126f8565b610cfb565b3480156102c757600080fd5b506103026102d6366004612724565b604080516020808201939093528082019390935280518084038201815260609093019052815191012090565b604051908152602001610150565b34801561031c57600080fd5b506101c361032b3660046128aa565b611167565b34801561033c57600080fd5b506000546102429073ffffffffffffffffffffffffffffffffffffffff1681565b34801561036957600080fd5b5061037d610378366004612a37565b611248565b6040519015158152602001610150565b34801561039957600080fd5b506102427f000000000000000000000000000000000000000000000000000000000000000081565b3480156103cd57600080fd5b506102427f000000000000000000000000000000000000000000000000000000000000000081565b34801561040157600080fd5b506101c3610410366004612b12565b611a7c565b34801561042157600080fd5b506101c36104303660046126db565b611c9f565b34801561044157600080fd5b506104556104503660046126db565b611d90565b6040805173ffffffffffffffffffffffffffffffffffffffff938416815292909116602083015201610150565b60003373ffffffffffffffffffffffffffffffffffffffff7f000000000000000000000000000000000000000000000000000000000000000016146104f3576040517fbb66a10b00000000000000000000000000000000000000000000000000000000815260040160405180910390fd5b8473ffffffffffffffffffffffffffffffffffffffff168673ffffffffffffffffffffffffffffffffffffffff1614610558576040517fbb66a10b00000000000000000000000000000000000000000000000000000000815260040160405180910390fd5b61062a60405180610180016040528060008152602001600073ffffffffffffffffffffffffffffffffffffffff168152602001600073ffffffffffffffffffffffffffffffffffffffff168152602001600073ffffffffffffffffffffffffffffffffffffffff16815260200160008152602001600073ffffffffffffffffffffffffffffffffffffffff168152602001600073ffffffffffffffffffffffffffffffffffffffff16815260200160008152602001600081526020016000815260200160008152602001600081525090565b84815273ffffffffffffffffffffffffffffffffffffffff8616602082015261065285610ae4565b73ffffffffffffffffffffffffffffffffffffffff1660a08301819052608083019190915261068090611d90565b73ffffffffffffffffffffffffffffffffffffffff908116606084015216604082015260808101516106d3907f000000000000000000000000000000000000000000000000000000000000000090610cfb565b73ffffffffffffffffffffffffffffffffffffffff1660c082015282156107115761070083850185612724565b610100830152610160820152610760565b606081015173ffffffffffffffffffffffffffffffffffffffff166000908152600160208181526040928390208351808501909452805480855292015492018290526101008301526101608201525b80610160015160000361079f576040517fbb66a10b00000000000000000000000000000000000000000000000000000000815260040160405180910390fd5b60408051600180825281830190925260009160208083019080368337505060408051600180825281830190925292935060009291506020808301908036833701905050606084015190915073ffffffffffffffffffffffffffffffffffffffff1673eeeeeeeeeeeeeeeeeeeeeeeeeeeeeeeeeeeeeeee14610824578260600151610846565b7f00000000000000000000000000000000000000000000000000000000000000005b8260008151811061085957610859612bde565b602002602001019073ffffffffffffffffffffffffffffffffffffffff16908173ffffffffffffffffffffffffffffffffffffffff1681525050606483610100015160966108a79190612c3c565b6108b19190612c53565b816000815181106108c4576108c4612bde565b6020026020010181815250506000836040516020016108e39190612c8e565b604080517fffffffffffffffffffffffffffffffffffffffffffffffffffffffffffffffe08184030181528282526101608701516000845260208401928390527f095627e900000000000000000000000000000000000000000000000000000000909252925073ffffffffffffffffffffffffffffffffffffffff7f0000000000000000000000000000000000000000000000000000000000000000169163095627e99161099a9187918791879060248101612e15565b600060405180830381600087803b1580156109b457600080fd5b505af11580156109c8573d6000803e3d6000fd5b50506040517f70a08231000000000000000000000000000000000000000000000000000000008152306004820152600092507f000000000000000000000000000000000000000000000000000000000000000073ffffffffffffffffffffffffffffffffffffffff1691506370a0823190602401602060405180830381865afa158015610a59573d6000803e3d6000fd5b505050506040513d601f19601f82011682018060405250810190610a7d9190612ed5565b1115610ab5576040517fbb66a10b00000000000000000000000000000000000000000000000000000000815260040160405180910390fd5b507f150b7a02000000000000000000000000000000000000000000000000000000009998505050505050505050565b60008060007f000000000000000000000000000000000000000000000000000000000000000073ffffffffffffffffffffffffffffffffffffffff1663b5c736e4610b57600387604080516020808201939093528082019390935280518084038201815260609093019052815191012090565b6040518263ffffffff1660e01b8152600401610b7591815260200190565b602060405180830381865afa158015610b92573d6000803e3d6000fd5b505050506040513d601f19601f82011682018060405250810190610bb69190612ed5565b905063ffffffff60c082901c169250610bef7f000000000000000000000000000000000000000000000000000000000000000084610cfb565b915050915091565b60005473ffffffffffffffffffffffffffffffffffffffff163314610c7d576040517f08c379a000000000000000000000000000000000000000000000000000000000815260206004820152600c60248201527f554e415554484f52495a4544000000000000000000000000000000000000000060448201526064015b60405180910390fd5b604080518082018252828152602080820185815273ffffffffffffffffffffffffffffffffffffffff871660008181526001808552908690209451855591519390910192909255915183815284927f262dfa48f617d8ad9ab91a33cff90761c6353664d88ca792a7af3c358650968d910160405180910390a3505050565b6000606082600003610d11576000915050611161565b607f8311610dda576040517fd60000000000000000000000000000000000000000000000000000000000000060208201527f940000000000000000000000000000000000000000000000000000000000000060218201527fffffffffffffffffffffffffffffffffffffffff000000000000000000000000606086901b16602282015260f884901b7fff000000000000000000000000000000000000000000000000000000000000001660368201526037015b6040516020818303038152906040529050611156565b60ff8311610eb7576040517fd70000000000000000000000000000000000000000000000000000000000000060208201527f940000000000000000000000000000000000000000000000000000000000000060218201527fffffffffffffffffffffffffffffffffffffffff000000000000000000000000606086901b1660228201527f8100000000000000000000000000000000000000000000000000000000000000603682015260f884901b7fff00000000000000000000000000000000000000000000000000000000000000166037820152603801610dc4565b61ffff8311610f95576040517fd80000000000000000000000000000000000000000000000000000000000000060208201527f940000000000000000000000000000000000000000000000000000000000000060218201527fffffffffffffffffffffffffffffffffffffffff000000000000000000000000606086901b1660228201527f820000000000000000000000000000000000000000000000000000000000000060368201527fffff00000000000000000000000000000000000000000000000000000000000060f085901b166037820152603901610dc4565b62ffffff8311611074576040517fd90000000000000000000000000000000000000000000000000000000000000060208201527f940000000000000000000000000000000000000000000000000000000000000060218201527fffffffffffffffffffffffffffffffffffffffff000000000000000000000000606086901b1660228201527f830000000000000000000000000000000000000000000000000000000000000060368201527fffffff000000000000000000000000000000000000000000000000000000000060e885901b166037820152603a01610dc4565b6040517fda0000000000000000000000000000000000000000000000000000000000000060208201527f940000000000000000000000000000000000000000000000000000000000000060218201527fffffffffffffffffffffffffffffffffffffffff000000000000000000000000606086901b1660228201527f840000000000000000000000000000000000000000000000000000000000000060368201527fffffffff0000000000000000000000000000000000000000000000000000000060e085901b166037820152603b0160405160208183030381529060405290505b805160209091012090505b92915050565b60005473ffffffffffffffffffffffffffffffffffffffff1633146111e8576040517f08c379a000000000000000000000000000000000000000000000000000000000815260206004820152600c60248201527f554e415554484f52495a454400000000000000000000000000000000000000006044820152606401610c74565b60005b82518110156112435761123083828151811061120957611209612bde565b602002602001015183838151811061122357611223612bde565b6020026020010151611e1b565b508061123b81612eee565b9150506111eb565b505050565b60003373ffffffffffffffffffffffffffffffffffffffff7f000000000000000000000000000000000000000000000000000000000000000016146112b9576040517fbb66a10b00000000000000000000000000000000000000000000000000000000815260040160405180910390fd5b73ffffffffffffffffffffffffffffffffffffffff84163014611308576040517fbb66a10b00000000000000000000000000000000000000000000000000000000815260040160405180910390fd5b600061131683850185612f26565b9050600073eeeeeeeeeeeeeeeeeeeeeeeeeeeeeeeeeeeeeeee73ffffffffffffffffffffffffffffffffffffffff16826060015173ffffffffffffffffffffffffffffffffffffffff16146113d9576113998260a001516000846060015173ffffffffffffffffffffffffffffffffffffffff16611e479092919063ffffffff16565b6113d18260a00151836101000151846060015173ffffffffffffffffffffffffffffffffffffffff16611e479092919063ffffffff16565b506000611489565b6101008201516040517f2e1a7d4d00000000000000000000000000000000000000000000000000000000815260048101919091527f000000000000000000000000000000000000000000000000000000000000000073ffffffffffffffffffffffffffffffffffffffff1690632e1a7d4d90602401600060405180830381600087803b15801561146857600080fd5b505af115801561147c573d6000803e3d6000fd5b5050505081610100015190505b60a082015182516040517f032d227600000000000000000000000000000000000000000000000000000000815260048101919091527f800000000000000000000000000000000000000000000000000000000000000060248201819052604482015230606482015273ffffffffffffffffffffffffffffffffffffffff9091169063032d227690839060840160606040518083038185885af1158015611533573d6000803e3d6000fd5b50505050506040513d601f19601f820116820180604052508101906115589190612fe3565b61014085015261012084018190526115709150613011565b61012083015261014082015161158590613011565b610140830181905261012083015160e0840152610100830152604082015173ffffffffffffffffffffffffffffffffffffffff1673eeeeeeeeeeeeeeeeeeeeeeeeeeeeeeeeeeeeeeee14611646576116078260c001516000846040015173ffffffffffffffffffffffffffffffffffffffff16611e479092919063ffffffff16565b61163e8260c001518360e00151846040015173ffffffffffffffffffffffffffffffffffffffff16611e479092919063ffffffff16565b50600061164d565b5060e08101515b60c08201516101208301516101408401516040517f032d227600000000000000000000000000000000000000000000000000000000815260006004820181905260248201939093526044810191909152306064820152909173ffffffffffffffffffffffffffffffffffffffff169063032d227690849060840160606040518083038185885af11580156116e5573d6000803e3d6000fd5b50505050506040513d601f19601f8201168201806040525081019061170a9190612fe3565b505060208401516040517f23b872dd00000000000000000000000000000000000000000000000000000000815230600482015273ffffffffffffffffffffffffffffffffffffffff9182166024820152604481018390529192507f000000000000000000000000000000000000000000000000000000000000000016906323b872dd90606401600060405180830381600087803b1580156117aa57600080fd5b505af11580156117be573d6000803e3d6000fd5b50505050506000888860008181106117d8576117d8612bde565b905060200201358b8b60008181106117f2576117f2612bde565b905060200201356118039190613049565b61180e90600a613049565b905073eeeeeeeeeeeeeeeeeeeeeeeeeeeeeeeeeeeeeeee73ffffffffffffffffffffffffffffffffffffffff16836060015173ffffffffffffffffffffffffffffffffffffffff16036119a3576040517f70a082310000000000000000000000000000000000000000000000000000000081523060048201526000907f000000000000000000000000000000000000000000000000000000000000000073ffffffffffffffffffffffffffffffffffffffff16906370a0823190602401602060405180830381865afa1580156118e8573d6000803e3d6000fd5b505050506040513d601f19601f8201168201806040525081019061190c9190612ed5565b9050818110156119a15773ffffffffffffffffffffffffffffffffffffffff7f00000000000000000000000000000000000000000000000000000000000000001663d0e30db061195c838561305c565b6040518263ffffffff1660e01b81526004016000604051808303818588803b15801561198757600080fd5b505af115801561199b573d6000803e3d6000fd5b50505050505b505b6119ed33828f8f60008181106119bb576119bb612bde565b90506020020160208101906119d091906126db565b73ffffffffffffffffffffffffffffffffffffffff169190612047565b8260000151836020015173ffffffffffffffffffffffffffffffffffffffff1684608001517f5c232cb9bdb05926b1eb20aa464bff4425fabf118e48b8803fdac4ff959ff1c6866101200151611a4290613011565b876101400151611a5190613011565b6040805192835260208301919091520160405180910390a45060019c9b505050505050505050505050565b60005473ffffffffffffffffffffffffffffffffffffffff163314611afd576040517f08c379a000000000000000000000000000000000000000000000000000000000815260206004820152600c60248201527f554e415554484f52495a454400000000000000000000000000000000000000006044820152606401610c74565b60005b8251811015611c995773eeeeeeeeeeeeeeeeeeeeeeeeeeeeeeeeeeeeeeee73ffffffffffffffffffffffffffffffffffffffff16838281518110611b4657611b46612bde565b602002602001015173ffffffffffffffffffffffffffffffffffffffff1603611b9157611b8c84838381518110611b7f57611b7f612bde565b602002602001015161209d565b611bee565b611bee84838381518110611ba757611ba7612bde565b6020026020010151858481518110611bc157611bc1612bde565b602002602001015173ffffffffffffffffffffffffffffffffffffffff166120479092919063ffffffff16565b828181518110611c0057611c00612bde565b602002602001015173ffffffffffffffffffffffffffffffffffffffff168473ffffffffffffffffffffffffffffffffffffffff167f9b1bfa7fa9ee420a16e124f794c35ac9f90472acc99140eb2f6447c714cad8eb848481518110611c6857611c68612bde565b6020026020010151604051611c7f91815260200190565b60405180910390a380611c9181612eee565b915050611b00565b50505050565b60005473ffffffffffffffffffffffffffffffffffffffff163314611d20576040517f08c379a000000000000000000000000000000000000000000000000000000000815260206004820152600c60248201527f554e415554484f52495a454400000000000000000000000000000000000000006044820152606401610c74565b600080547fffffffffffffffffffffffff00000000000000000000000000000000000000001673ffffffffffffffffffffffffffffffffffffffff83169081178255604051909133917f8be0079c531659141344cd1fd0a4f28419497f9722a3daafe3b4186f6b6457e09190a350565b60008060008373ffffffffffffffffffffffffffffffffffffffff1663b7791bf26040518163ffffffff1660e01b81526004016101a060405180830381865afa158015611de1573d6000803e3d6000fd5b505050506040513d601f19601f82011682018060405250810190611e05919061308b565b9050806080015192508060a00151915050915091565b6060611e4083836040518060600160405280602781526020016131ba602791396121f7565b9392505050565b801580611ee757506040517fdd62ed3e00000000000000000000000000000000000000000000000000000000815230600482015273ffffffffffffffffffffffffffffffffffffffff838116602483015284169063dd62ed3e90604401602060405180830381865afa158015611ec1573d6000803e3d6000fd5b505050506040513d601f19601f82011682018060405250810190611ee59190612ed5565b155b611f73576040517f08c379a000000000000000000000000000000000000000000000000000000000815260206004820152603660248201527f5361666545524332303a20617070726f76652066726f6d206e6f6e2d7a65726f60448201527f20746f206e6f6e2d7a65726f20616c6c6f77616e6365000000000000000000006064820152608401610c74565b60405173ffffffffffffffffffffffffffffffffffffffff83166024820152604481018290526112439084907f095ea7b300000000000000000000000000000000000000000000000000000000906064015b604080517fffffffffffffffffffffffffffffffffffffffffffffffffffffffffffffffe08184030181529190526020810180517bffffffffffffffffffffffffffffffffffffffffffffffffffffffff167fffffffff000000000000000000000000000000000000000000000000000000009093169290921790915261227c565b60405173ffffffffffffffffffffffffffffffffffffffff83166024820152604481018290526112439084907fa9059cbb0000000000000000000000000000000000000000000000000000000090606401611fc5565b80471015612107576040517f08c379a000000000000000000000000000000000000000000000000000000000815260206004820152601d60248201527f416464726573733a20696e73756666696369656e742062616c616e63650000006044820152606401610c74565b60008273ffffffffffffffffffffffffffffffffffffffff168260405160006040518083038185875af1925050503d8060008114612161576040519150601f19603f3d011682016040523d82523d6000602084013e612166565b606091505b5050905080611243576040517f08c379a000000000000000000000000000000000000000000000000000000000815260206004820152603a60248201527f416464726573733a20756e61626c6520746f2073656e642076616c75652c207260448201527f6563697069656e74206d617920686176652072657665727465640000000000006064820152608401610c74565b60606000808573ffffffffffffffffffffffffffffffffffffffff16856040516122219190613168565b600060405180830381855af49150503d806000811461225c576040519150601f19603f3d011682016040523d82523d6000602084013e612261565b606091505b509150915061227286838387612388565b9695505050505050565b60006122de826040518060400160405280602081526020017f5361666545524332303a206c6f772d6c6576656c2063616c6c206661696c65648152508573ffffffffffffffffffffffffffffffffffffffff166124309092919063ffffffff16565b80519091501561124357808060200190518101906122fc9190613184565b611243576040517f08c379a000000000000000000000000000000000000000000000000000000000815260206004820152602a60248201527f5361666545524332303a204552433230206f7065726174696f6e20646964206e60448201527f6f742073756363656564000000000000000000000000000000000000000000006064820152608401610c74565b6060831561241e5782516000036124175773ffffffffffffffffffffffffffffffffffffffff85163b612417576040517f08c379a000000000000000000000000000000000000000000000000000000000815260206004820152601d60248201527f416464726573733a2063616c6c20746f206e6f6e2d636f6e74726163740000006044820152606401610c74565b5081612428565b612428838361243f565b949350505050565b60606124288484600085612483565b81511561244f5781518083602001fd5b806040517f08c379a0000000000000000000000000000000000000000000000000000000008152600401610c7491906131a6565b606082471015612515576040517f08c379a000000000000000000000000000000000000000000000000000000000815260206004820152602660248201527f416464726573733a20696e73756666696369656e742062616c616e636520666f60448201527f722063616c6c00000000000000000000000000000000000000000000000000006064820152608401610c74565b6000808673ffffffffffffffffffffffffffffffffffffffff16858760405161253e9190613168565b60006040518083038185875af1925050503d806000811461257b576040519150601f19603f3d011682016040523d82523d6000602084013e612580565b606091505b509150915061259187838387612388565b979650505050505050565b73ffffffffffffffffffffffffffffffffffffffff811681146125be57600080fd5b50565b80356125cc8161259c565b919050565b60008083601f8401126125e357600080fd5b50813567ffffffffffffffff8111156125fb57600080fd5b60208301915083602082850101111561261357600080fd5b9250929050565b60008060008060006080868803121561263257600080fd5b853561263d8161259c565b9450602086013561264d8161259c565b935060408601359250606086013567ffffffffffffffff81111561267057600080fd5b61267c888289016125d1565b969995985093965092949392505050565b60006020828403121561269f57600080fd5b5035919050565b6000806000606084860312156126bb57600080fd5b83356126c68161259c565b95602085013595506040909401359392505050565b6000602082840312156126ed57600080fd5b8135611e408161259c565b6000806040838503121561270b57600080fd5b82356127168161259c565b946020939093013593505050565b6000806040838503121561273757600080fd5b50508035926020909101359150565b7f4e487b7100000000000000000000000000000000000000000000000000000000600052604160045260246000fd5b604051610180810167ffffffffffffffff8111828210171561279957612799612746565b60405290565b6040516101a0810167ffffffffffffffff8111828210171561279957612799612746565b604051601f82017fffffffffffffffffffffffffffffffffffffffffffffffffffffffffffffffe016810167ffffffffffffffff8111828210171561280a5761280a612746565b604052919050565b600067ffffffffffffffff82111561282c5761282c612746565b5060051b60200190565b600082601f83011261284757600080fd5b8135602061285c61285783612812565b6127c3565b82815260059290921b8401810191818101908684111561287b57600080fd5b8286015b8481101561289f5780356128928161259c565b835291830191830161287f565b509695505050505050565b60008060408084860312156128be57600080fd5b833567ffffffffffffffff808211156128d657600080fd5b6128e287838801612836565b94506020915081860135818111156128f957600080fd5b8601601f808201891361290b57600080fd5b813561291961285782612812565b81815260059190911b8301850190858101908b83111561293857600080fd5b8685015b838110156129df578035878111156129545760008081fd5b8601603f81018e136129665760008081fd5b888101358881111561297a5761297a612746565b6129a98a7fffffffffffffffffffffffffffffffffffffffffffffffffffffffffffffffe089840116016127c3565b8181528f8c8385010111156129be5760008081fd5b818c84018c83013760009181018b019190915284525091870191870161293c565b5080985050505050505050509250929050565b60008083601f840112612a0457600080fd5b50813567ffffffffffffffff811115612a1c57600080fd5b6020830191508360208260051b850101111561261357600080fd5b600080600080600080600080600060a08a8c031215612a5557600080fd5b893567ffffffffffffffff80821115612a6d57600080fd5b612a798d838e016129f2565b909b50995060208c0135915080821115612a9257600080fd5b612a9e8d838e016129f2565b909950975060408c0135915080821115612ab757600080fd5b612ac38d838e016129f2565b909750955060608c01359150612ad88261259c565b90935060808b01359080821115612aee57600080fd5b50612afb8c828d016125d1565b915080935050809150509295985092959850929598565b600080600060608486031215612b2757600080fd5b8335612b328161259c565b925060208481013567ffffffffffffffff80821115612b5057600080fd5b612b5c88838901612836565b94506040870135915080821115612b7257600080fd5b508501601f81018713612b8457600080fd5b8035612b9261285782612812565b81815260059190911b82018301908381019089831115612bb157600080fd5b928401925b82841015612bcf57833582529284019290840190612bb6565b80955050505050509250925092565b7f4e487b7100000000000000000000000000000000000000000000000000000000600052603260045260246000fd5b7f4e487b7100000000000000000000000000000000000000000000000000000000600052601160045260246000fd5b808202811582820484141761116157611161612c0d565b600082612c89577f4e487b7100000000000000000000000000000000000000000000000000000000600052601260045260246000fd5b500490565b81518152602080830151610180830191612cbf9084018273ffffffffffffffffffffffffffffffffffffffff169052565b506040830151612ce7604084018273ffffffffffffffffffffffffffffffffffffffff169052565b506060830151612d0f606084018273ffffffffffffffffffffffffffffffffffffffff169052565b506080830151608083015260a0830151612d4160a084018273ffffffffffffffffffffffffffffffffffffffff169052565b5060c0830151612d6960c084018273ffffffffffffffffffffffffffffffffffffffff169052565b5060e0838101519083015261010080840151908301526101208084015190830152610140808401519083015261016092830151929091019190915290565b60005b83811015612dc2578181015183820152602001612daa565b50506000910152565b60008151808452612de3816020860160208601612da7565b601f017fffffffffffffffffffffffffffffffffffffffffffffffffffffffffffffffe0169290920160200192915050565b60a0808252865190820181905260009060209060c0840190828a01845b82811015612e6457815173ffffffffffffffffffffffffffffffffffffffff1684529284019290840190600101612e32565b5050508381038285015287518082528883019183019060005b81811015612e9957835183529284019291840191600101612e7d565b50508760408601528481036060860152612eb38188612dcb565b925050508281036080840152612ec98185612dcb565b98975050505050505050565b600060208284031215612ee757600080fd5b5051919050565b60007fffffffffffffffffffffffffffffffffffffffffffffffffffffffffffffffff8203612f1f57612f1f612c0d565b5060010190565b60006101808284031215612f3957600080fd5b612f41612775565b82358152612f51602084016125c1565b6020820152612f62604084016125c1565b6040820152612f73606084016125c1565b606082015260808301356080820152612f8e60a084016125c1565b60a0820152612f9f60c084016125c1565b60c082015260e08381013590820152610100808401359082015261012080840135908201526101408084013590820152610160928301359281019290925250919050565b600080600060608486031215612ff857600080fd5b8351925060208401519150604084015190509250925092565b60007f8000000000000000000000000000000000000000000000000000000000000000820361304257613042612c0d565b5060000390565b8082018082111561116157611161612c0d565b8181038181111561116157611161612c0d565b80516125cc8161259c565b805160ff811681146125cc57600080fd5b60006101a0828403121561309e57600080fd5b6130a661279f565b6130af8361306f565b81526130bd6020840161306f565b60208201526130ce6040840161306f565b60408201526130df6060840161306f565b60608201526130f06080840161306f565b608082015261310160a0840161306f565b60a082015261311260c0840161307a565b60c082015261312360e0840161307a565b60e08201526101008381015190820152610120808401519082015261014080840151908201526101608084015190820152610180928301519281019290925250919050565b6000825161317a818460208701612da7565b9190910192915050565b60006020828403121561319657600080fd5b81518015158114611e4057600080fd5b602081526000611e406020830184612dcb56fe416464726573733a206c6f772d6c6576656c2064656c65676174652063616c6c206661696c6564a26469706673582212209b12c7c3fa9069357fd3d0d352d74f507afb4396026fe15c4daecb70a20b1b5e64736f6c63430008150033",
  "devdoc": {
    "kind": "dev",
    "methods": {},
    "version": 1
  },
  "userdoc": {
    "kind": "user",
    "methods": {},
    "version": 1
  },
  "storageLayout": {
    "storage": [
      {
        "astId": 2262,
        "contract": "contracts/periphery/migration/main.sol:VaultT1Migrator",
        "label": "owner",
        "offset": 0,
        "slot": "0",
        "type": "t_address"
      },
      {
        "astId": 976,
        "contract": "contracts/periphery/migration/main.sol:VaultT1Migrator",
        "label": "flashloanConfig",
        "offset": 0,
        "slot": "1",
        "type": "t_mapping(t_address,t_struct(FlashloanConfig)971_storage)"
      }
    ],
    "types": {
      "t_address": {
        "encoding": "inplace",
        "label": "address",
        "numberOfBytes": "20"
      },
      "t_mapping(t_address,t_struct(FlashloanConfig)971_storage)": {
        "encoding": "mapping",
        "key": "t_address",
        "label": "mapping(address => struct VaultT1Migrator.FlashloanConfig)",
        "numberOfBytes": "32",
        "value": "t_struct(FlashloanConfig)971_storage"
      },
      "t_struct(FlashloanConfig)971_storage": {
        "encoding": "inplace",
        "label": "struct VaultT1Migrator.FlashloanConfig",
        "members": [
          {
            "astId": 968,
            "contract": "contracts/periphery/migration/main.sol:VaultT1Migrator",
            "label": "amount",
            "offset": 0,
            "slot": "0",
            "type": "t_uint256"
          },
          {
            "astId": 970,
            "contract": "contracts/periphery/migration/main.sol:VaultT1Migrator",
            "label": "route",
            "offset": 0,
            "slot": "1",
            "type": "t_uint256"
          }
        ],
        "numberOfBytes": "64"
      },
      "t_uint256": {
        "encoding": "inplace",
        "label": "uint256",
        "numberOfBytes": "32"
      }
    }
  }
}