{
  "address": "0x5f51AF8512d108F29c1f8De692fa96f0D3776a54",
  "abi": [
    {
      "inputs": [
        {
          "internalType": "string",
          "name": "infoName_",
          "type": "string"
        },
        {
          "internalType": "contract IWeETH",
          "name": "wEETH_",
          "type": "address"
        },
        {
          "internalType": "uint256",
          "name": "minUpdateDiffPercent_",
          "type": "uint256"
        },
        {
          "internalType": "uint256",
          "name": "minHeartBeat_",
          "type": "uint256"
        }
      ],
      "stateMutability": "nonpayable",
      "type": "constructor"
    },
    {
      "inputs": [
        {
          "internalType": "uint256",
          "name": "errorId_",
          "type": "uint256"
        }
      ],
      "name": "FluidOracleError",
      "type": "error"
    },
    {
      "anonymous": false,
      "inputs": [
        {
          "indexed": false,
          "internalType": "uint256",
          "name": "oldRate",
          "type": "uint256"
        },
        {
          "indexed": false,
          "internalType": "uint256",
          "name": "newRate",
          "type": "uint256"
        }
      ],
      "name": "LogRebalanceRate",
      "type": "event"
    },
    {
      "inputs": [],
      "name": "centerPrice",
      "outputs": [
        {
          "internalType": "uint256",
          "name": "price_",
          "type": "uint256"
        }
      ],
      "stateMutability": "nonpayable",
      "type": "function"
    },
    {
      "inputs": [],
      "name": "configData",
      "outputs": [
        {
          "internalType": "uint256",
          "name": "minUpdateDiffPercent_",
          "type": "uint256"
        },
        {
          "internalType": "uint256",
          "name": "minHeartBeat_",
          "type": "uint256"
        },
        {
          "internalType": "uint40",
          "name": "lastUpdateTime_",
          "type": "uint40"
        },
        {
          "internalType": "address",
          "name": "weeth_",
          "type": "address"
        }
      ],
      "stateMutability": "view",
      "type": "function"
    },
    {
      "inputs": [],
      "name": "configPercentDiff",
      "outputs": [
        {
          "internalType": "uint256",
          "name": "configPercentDiff_",
          "type": "uint256"
        }
      ],
      "stateMutability": "view",
      "type": "function"
    },
    {
      "inputs": [
        {
          "internalType": "uint256",
          "name": "_weETHAmount",
          "type": "uint256"
        }
      ],
      "name": "getEETHByWeETH",
      "outputs": [
        {
          "internalType": "uint256",
          "name": "",
          "type": "uint256"
        }
      ],
      "stateMutability": "view",
      "type": "function"
    },
    {
      "inputs": [],
      "name": "getExchangeRate",
      "outputs": [
        {
          "internalType": "uint256",
          "name": "exchangeRate_",
          "type": "uint256"
        }
      ],
      "stateMutability": "view",
      "type": "function"
    },
    {
      "inputs": [],
      "name": "getExchangeRateLiquidate",
      "outputs": [
        {
          "internalType": "uint256",
          "name": "exchangeRate_",
          "type": "uint256"
        }
      ],
      "stateMutability": "view",
      "type": "function"
    },
    {
      "inputs": [],
      "name": "getExchangeRateOperate",
      "outputs": [
        {
          "internalType": "uint256",
          "name": "exchangeRate_",
          "type": "uint256"
        }
      ],
      "stateMutability": "view",
      "type": "function"
    },
    {
      "inputs": [
        {
          "internalType": "uint256",
          "name": "_eETHAmount",
          "type": "uint256"
        }
      ],
      "name": "getWeETHByeETH",
      "outputs": [
        {
          "internalType": "uint256",
          "name": "",
          "type": "uint256"
        }
      ],
      "stateMutability": "view",
      "type": "function"
    },
    {
      "inputs": [],
      "name": "infoName",
      "outputs": [
        {
          "internalType": "string",
          "name": "",
          "type": "string"
        }
      ],
      "stateMutability": "view",
      "type": "function"
    },
    {
      "inputs": [],
      "name": "rebalance",
      "outputs": [],
      "stateMutability": "nonpayable",
      "type": "function"
    }
  ],
  "transactionHash": "0x02e5fe1e1e8e36824f92647c854d3f000e2199948989c4100bd890b13e2419cd",
  "args": [
    [
      "weETH <> eETH exchange rate",
      "0xcd5fe23c85820f7b72d0926fc9b05b43e359b7ee",
      10,
      90000
    ]
  ],
  "numDeployments": 1,
  "linkedData": {
    "nonce": "44"
  },
  "bytecode": "0x6101006040523480156200001257600080fd5b5060405162000e8b38038062000e8b8339810160408190526200003591620001c5565b836020815111806200004657508051155b156200006e5760405163c82fc46560e01b815261ea6a60048201526024015b60405180910390fd5b60200151608052826001600160a01b038116620000a35760405163c82fc46560e01b815261ebbf600482015260240162000065565b821580620000b35750620186a083115b80620000bd575081155b15620000e15760405163c82fc46560e01b815261ebbf600482015260240162000065565b6001600160a01b03841660a081905260c084905260e0839052604051632518981160e21b81526b033b2e3c9fd0803ce80000006004820152639462604490602401602060405180830381865afa15801562000140573d6000803e3d6000fd5b505050506040513d601f19601f82011682018060405250810190620001669190620002bd565b600080546001600160d81b0319166001600160d81b039290921691909117905550620002d79350505050565b634e487b7160e01b600052604160045260246000fd5b80516001600160a01b0381168114620001c057600080fd5b919050565b60008060008060808587031215620001dc57600080fd5b84516001600160401b0380821115620001f457600080fd5b818701915087601f8301126200020957600080fd5b8151818111156200021e576200021e62000192565b604051601f8201601f19908116603f0116810190838211818310171562000249576200024962000192565b81604052828152602093508a848487010111156200026657600080fd5b600091505b828210156200028a57848201840151818301850152908301906200026b565b6000848483010152809850505050620002a5818801620001a8565b60408801516060909801519699909850945050505050565b600060208284031215620002d057600080fd5b5051919050565b60805160a05160c05160e051610b52620003396000396000818160ef01526105e501526000818160cc01526103380152600081816101400152818161026a015281816104c801526106950152600081816107d201526108970152610b526000f3fe608060405234801561001057600080fd5b50600436106100be5760003560e01c8063abd5f95d11610076578063e6aa216c1161005b578063e6aa216c14610191578063f3190c8914610191578063f763f7a61461020357600080fd5b8063abd5f95d146101db578063d044fe9b146101f057600080fd5b80638e7bfbc0116100a75780638e7bfbc01461019157806394626044146101c05780639dc10566146101d357600080fd5b806320e44e43146100c35780637d7c2a1c14610187575b600080fd5b600054604080517f000000000000000000000000000000000000000000000000000000000000000081527f000000000000000000000000000000000000000000000000000000000000000060208201527b0100000000000000000000000000000000000000000000000000000090920464ffffffffff16908201527f000000000000000000000000000000000000000000000000000000000000000073ffffffffffffffffffffffffffffffffffffffff1660608201526080015b60405180910390f35b61018f61020b565b005b6000547affffffffffffffffffffffffffffffffffffffffffffffffffffff165b60405190815260200161017e565b6101b26101ce366004610925565b61041e565b6101b2610468565b6101e3610593565b60405161017e919061093e565b6101b26101fe366004610925565b6105a2565b6101b26105d9565b600080546040517f946260440000000000000000000000000000000000000000000000000000000081526b033b2e3c9fd0803ce800000060048201527affffffffffffffffffffffffffffffffffffffffffffffffffffff90911691907f000000000000000000000000000000000000000000000000000000000000000073ffffffffffffffffffffffffffffffffffffffff1690639462604490602401602060405180830381865afa1580156102c6573d6000803e3d6000fd5b505050506040513d601f19601f820116820180604052508101906102ea91906109aa565b90506000818311156103145782828403620f4240028161030c5761030c6109c3565b049050610336565b828211156103365782838303620f42400281610332576103326109c3565b0490505b7f0000000000000000000000000000000000000000000000000000000000000000811015610398576040517fc82fc46500000000000000000000000000000000000000000000000000000000815261ebc1600482015260240160405180910390fd5b7affffffffffffffffffffffffffffffffffffffffffffffffffffff82167b010000000000000000000000000000000000000000000000000000004264ffffffffff16021760005560408051848152602081018490527f95f03a932c8aced8238058ac39deeaf30f8ddcbf42ade5ad3ada32f0d1338a08910160405180910390a1505050565b600080546b033b2e3c9fd0803ce8000000906104589084907affffffffffffffffffffffffffffffffffffffffffffffffffffff16610a21565b6104629190610a38565b92915050565b600080546040517f946260440000000000000000000000000000000000000000000000000000000081526b033b2e3c9fd0803ce800000060048201527affffffffffffffffffffffffffffffffffffffffffffffffffffff9091169082907f000000000000000000000000000000000000000000000000000000000000000073ffffffffffffffffffffffffffffffffffffffff1690639462604490602401602060405180830381865afa158015610524573d6000803e3d6000fd5b505050506040513d601f19601f8201168201806040525081019061054891906109aa565b9050808211156105705781818303620f42400281610568576105686109c3565b049250505090565b8181111561058e5781828203620f42400281610568576105686109c3565b505090565b606061059d6107c0565b905090565b600080547affffffffffffffffffffffffffffffffffffffffffffffffffffff16610458836b033b2e3c9fd0803ce8000000610a21565b600080544290610630907f0000000000000000000000000000000000000000000000000000000000000000907b01000000000000000000000000000000000000000000000000000000900464ffffffffff16610a73565b101561079c57600080546040517f946260440000000000000000000000000000000000000000000000000000000081526b033b2e3c9fd0803ce800000060048201527affffffffffffffffffffffffffffffffffffffffffffffffffffff90911691907f000000000000000000000000000000000000000000000000000000000000000073ffffffffffffffffffffffffffffffffffffffff1690639462604490602401602060405180830381865afa1580156106f1573d6000803e3d6000fd5b505050506040513d601f19601f8201168201806040525081019061071591906109aa565b7affffffffffffffffffffffffffffffffffffffffffffffffffffff81167b010000000000000000000000000000000000000000000000000000004264ffffffffff16021760005560408051848152602081018390529192507f95f03a932c8aced8238058ac39deeaf30f8ddcbf42ade5ad3ada32f0d1338a08910160405180910390a150505b506000547affffffffffffffffffffffffffffffffffffffffffffffffffffff1690565b606060005b60208110801561082b57507f0000000000000000000000000000000000000000000000000000000000000000816020811061080257610802610a86565b1a60f81b7fff000000000000000000000000000000000000000000000000000000000000001615155b15610842578061083a81610ab5565b9150506107c5565b60008167ffffffffffffffff81111561085d5761085d610aed565b6040519080825280601f01601f191660200182016040528015610887576020820181803683370190505b50905060005b8281101561091e577f000000000000000000000000000000000000000000000000000000000000000081602081106108c7576108c7610a86565b1a60f81b8282815181106108dd576108dd610a86565b60200101907effffffffffffffffffffffffffffffffffffffffffffffffffffffffffffff1916908160001a9053508061091681610ab5565b91505061088d565b5092915050565b60006020828403121561093757600080fd5b5035919050565b600060208083528351808285015260005b8181101561096b5785810183015185820160400152820161094f565b5060006040828601015260407fffffffffffffffffffffffffffffffffffffffffffffffffffffffffffffffe0601f8301168501019250505092915050565b6000602082840312156109bc57600080fd5b5051919050565b7f4e487b7100000000000000000000000000000000000000000000000000000000600052601260045260246000fd5b7f4e487b7100000000000000000000000000000000000000000000000000000000600052601160045260246000fd5b8082028115828204841417610462576104626109f2565b600082610a6e577f4e487b7100000000000000000000000000000000000000000000000000000000600052601260045260246000fd5b500490565b80820180821115610462576104626109f2565b7f4e487b7100000000000000000000000000000000000000000000000000000000600052603260045260246000fd5b60007fffffffffffffffffffffffffffffffffffffffffffffffffffffffffffffffff8203610ae657610ae66109f2565b5060010190565b7f4e487b7100000000000000000000000000000000000000000000000000000000600052604160045260246000fdfea264697066735822122081420a4b70b36622e93fb4dc29a484850f9ff9c751908e4a1c1e64dfd024647764736f6c63430008150033"
}