{
  "address": "0x9191b9539DD588dB81076900deFDd79Cb1115f72",
  "abi": [
    {
      "inputs": [],
      "name": "depositZircuitWeETH",
      "outputs": [],
      "stateMutability": "nonpayable",
      "type": "function"
    },
    {
      "inputs": [],
      "name": "depositZircuitWeETHs",
      "outputs": [],
      "stateMutability": "nonpayable",
      "type": "function"
    },
    {
      "inputs": [],
      "name": "withdrawZircuitWeETH",
      "outputs": [],
      "stateMutability": "nonpayable",
      "type": "function"
    },
    {
      "inputs": [],
      "name": "withdrawZircuitWeETHs",
      "outputs": [],
      "stateMutability": "nonpayable",
      "type": "function"
    }
  ],
  "transactionHash": "0xb3cb4f93ab2e8dad3a144004face30015c49181c195e4581e5bf3c101b0be90b",
  "args": [],
  "numDeployments": 1,
  "solcInputHash": "5082da1b3913f11837947aa32410fe01",
  "bytecode": "0x608060405234801561001057600080fd5b50610d5f806100206000396000f3fe608060405234801561001057600080fd5b506004361061004c5760003560e01c806317a08fa01461005157806369b48e4e1461005b5780638147c98914610063578063b0bec8461461006b575b600080fd5b610059610073565b005b61005961026b565b610059610398565b61005961058b565b3361009c7fb53127684a568b3173ae13b9f8a6016e243e63b6e8ee1178d6a717850b5d61035490565b73ffffffffffffffffffffffffffffffffffffffff161415806100d35750307352aa899454998be5b000ad077a46bbe360f4e49714155b156100dd57600080fd5b61013073917cee801a67f933f2e6b33fc0cd1ed2d5909d8873f047ab4c75cebf0eb9ed34ae2c186f3611aeafa67fffffffffffffffffffffffffffffffffffffffffffffffffffffffffffffffff610778565b6040517f70a08231000000000000000000000000000000000000000000000000000000008152306004820181905273f047ab4c75cebf0eb9ed34ae2c186f3611aeafa69163b3db428b9173917cee801a67f933f2e6b33fc0cd1ed2d5909d889182906370a08231906024015b602060405180830381865afa1580156101b9573d6000803e3d6000fd5b505050506040513d601f19601f820116820180604052508101906101dd9190610c56565b6040517fffffffff0000000000000000000000000000000000000000000000000000000060e086901b16815273ffffffffffffffffffffffffffffffffffffffff93841660048201529290911660248301526044820152606401600060405180830381600087803b15801561025157600080fd5b505af1158015610265573d6000803e3d6000fd5b50505050565b336102947fb53127684a568b3173ae13b9f8a6016e243e63b6e8ee1178d6a717850b5d61035490565b73ffffffffffffffffffffffffffffffffffffffff161415806102cb5750307352aa899454998be5b000ad077a46bbe360f4e49714155b156102d557600080fd5b61032873cd5fe23c85820f7b72d0926fc9b05b43e359b7ee73f047ab4c75cebf0eb9ed34ae2c186f3611aeafa67fffffffffffffffffffffffffffffffffffffffffffffffffffffffffffffffff610778565b6040517f70a08231000000000000000000000000000000000000000000000000000000008152306004820181905273f047ab4c75cebf0eb9ed34ae2c186f3611aeafa69163b3db428b9173cd5fe23c85820f7b72d0926fc9b05b43e359b7ee9182906370a082319060240161019c565b336000908152600360205260409020546001908116148015906103f85750336103df7fb53127684a568b3173ae13b9f8a6016e243e63b6e8ee1178d6a717850b5d61035490565b73ffffffffffffffffffffffffffffffffffffffff1614155b806104175750307352aa899454998be5b000ad077a46bbe360f4e49714155b1561042157600080fd5b6040517fb203bb9900000000000000000000000000000000000000000000000000000000815273917cee801a67f933f2e6b33fc0cd1ed2d5909d886004820181905230602483015273f047ab4c75cebf0eb9ed34ae2c186f3611aeafa69163f3fef3a39190839063b203bb9990604401602060405180830381865afa1580156104ae573d6000803e3d6000fd5b505050506040513d601f19601f820116820180604052508101906104d29190610c56565b6040517fffffffff0000000000000000000000000000000000000000000000000000000060e085901b16815273ffffffffffffffffffffffffffffffffffffffff90921660048301526024820152604401600060405180830381600087803b15801561053d57600080fd5b505af1158015610551573d6000803e3d6000fd5b5050505061058973917cee801a67f933f2e6b33fc0cd1ed2d5909d8873f047ab4c75cebf0eb9ed34ae2c186f3611aeafa66000610778565b565b336000908152600360205260409020546001908116148015906105eb5750336105d27fb53127684a568b3173ae13b9f8a6016e243e63b6e8ee1178d6a717850b5d61035490565b73ffffffffffffffffffffffffffffffffffffffff1614155b8061060a5750307352aa899454998be5b000ad077a46bbe360f4e49714155b1561061457600080fd5b6040517fb203bb9900000000000000000000000000000000000000000000000000000000815273cd5fe23c85820f7b72d0926fc9b05b43e359b7ee6004820181905230602483015273f047ab4c75cebf0eb9ed34ae2c186f3611aeafa69163f3fef3a39190839063b203bb9990604401602060405180830381865afa1580156106a1573d6000803e3d6000fd5b505050506040513d601f19601f820116820180604052508101906106c59190610c56565b6040517fffffffff0000000000000000000000000000000000000000000000000000000060e085901b16815273ffffffffffffffffffffffffffffffffffffffff90921660048301526024820152604401600060405180830381600087803b15801561073057600080fd5b505af1158015610744573d6000803e3d6000fd5b5050505061058973cd5fe23c85820f7b72d0926fc9b05b43e359b7ee73f047ab4c75cebf0eb9ed34ae2c186f3611aeafa660005b80158061081857506040517fdd62ed3e00000000000000000000000000000000000000000000000000000000815230600482015273ffffffffffffffffffffffffffffffffffffffff838116602483015284169063dd62ed3e90604401602060405180830381865afa1580156107f2573d6000803e3d6000fd5b505050506040513d601f19601f820116820180604052508101906108169190610c56565b155b6108a9576040517f08c379a000000000000000000000000000000000000000000000000000000000815260206004820152603660248201527f5361666545524332303a20617070726f76652066726f6d206e6f6e2d7a65726f60448201527f20746f206e6f6e2d7a65726f20616c6c6f77616e63650000000000000000000060648201526084015b60405180910390fd5b6040805173ffffffffffffffffffffffffffffffffffffffff8416602482015260448082018490528251808303909101815260649091019091526020810180517bffffffffffffffffffffffffffffffffffffffffffffffffffffffff167f095ea7b30000000000000000000000000000000000000000000000000000000017905261093690849061093b565b505050565b600061099d826040518060400160405280602081526020017f5361666545524332303a206c6f772d6c6576656c2063616c6c206661696c65648152508573ffffffffffffffffffffffffffffffffffffffff16610a479092919063ffffffff16565b80519091501561093657808060200190518101906109bb9190610c6f565b610936576040517f08c379a000000000000000000000000000000000000000000000000000000000815260206004820152602a60248201527f5361666545524332303a204552433230206f7065726174696f6e20646964206e60448201527f6f7420737563636565640000000000000000000000000000000000000000000060648201526084016108a0565b6060610a568484600085610a5e565b949350505050565b606082471015610af0576040517f08c379a000000000000000000000000000000000000000000000000000000000815260206004820152602660248201527f416464726573733a20696e73756666696369656e742062616c616e636520666f60448201527f722063616c6c000000000000000000000000000000000000000000000000000060648201526084016108a0565b6000808673ffffffffffffffffffffffffffffffffffffffff168587604051610b199190610cbc565b60006040518083038185875af1925050503d8060008114610b56576040519150601f19603f3d011682016040523d82523d6000602084013e610b5b565b606091505b5091509150610b6c87838387610b77565b979650505050505050565b60608315610c0d578251600003610c065773ffffffffffffffffffffffffffffffffffffffff85163b610c06576040517f08c379a000000000000000000000000000000000000000000000000000000000815260206004820152601d60248201527f416464726573733a2063616c6c20746f206e6f6e2d636f6e747261637400000060448201526064016108a0565b5081610a56565b610a568383815115610c225781518083602001fd5b806040517f08c379a00000000000000000000000000000000000000000000000000000000081526004016108a09190610cd8565b600060208284031215610c6857600080fd5b5051919050565b600060208284031215610c8157600080fd5b81518015158114610c9157600080fd5b9392505050565b60005b83811015610cb3578181015183820152602001610c9b565b50506000910152565b60008251610cce818460208701610c98565b9190910192915050565b6020815260008251806020840152610cf7816040850160208701610c98565b601f017fffffffffffffffffffffffffffffffffffffffffffffffffffffffffffffffe016919091016040019291505056fea26469706673582212203246c895eee621fb51d2ca336805c93cbd5d0ac06cef196a875687d7e1deae2764736f6c63430008150033",
  "devdoc": {
    "kind": "dev",
    "methods": {
      "depositZircuitWeETH()": {
        "details": "Only delegate callable on Liquidity, by Governance"
      },
      "depositZircuitWeETHs()": {
        "details": "Only delegate callable on Liquidity, by Governance"
      },
      "withdrawZircuitWeETH()": {
        "details": "Only delegate callable on Liquidity, Governance and Guardians (for emergency)"
      },
      "withdrawZircuitWeETHs()": {
        "details": "Only delegate callable on Liquidity, Governance and Guardians (for emergency)"
      }
    },
    "version": 1
  },
  "userdoc": {
    "kind": "user",
    "methods": {
      "depositZircuitWeETH()": {
        "notice": "deposit all WEETH funds to Zircuit and sets approved allowance to max uint256."
      },
      "depositZircuitWeETHs()": {
        "notice": "deposit all WEETHS funds to Zircuit and sets approved allowance to max uint256."
      },
      "withdrawZircuitWeETH()": {
        "notice": "withdraw all WEETH funds from Zircuit and sets approved allowance to 0."
      },
      "withdrawZircuitWeETHs()": {
        "notice": "withdraw all WEETHS funds from Zircuit and sets approved allowance to 0."
      }
    },
    "version": 1
  },
  "storageLayout": {
    "storage": [
      {
        "astId": 17284,
        "contract": "contracts/liquidity/zircuitTransferModule/main.sol:FluidLiquidityZircuitTransferModule",
        "label": "_revenueCollector",
        "offset": 0,
        "slot": "0",
        "type": "t_address"
      },
      {
        "astId": 17287,
        "contract": "contracts/liquidity/zircuitTransferModule/main.sol:FluidLiquidityZircuitTransferModule",
        "label": "_status",
        "offset": 0,
        "slot": "1",
        "type": "t_uint256"
      },
      {
        "astId": 17292,
        "contract": "contracts/liquidity/zircuitTransferModule/main.sol:FluidLiquidityZircuitTransferModule",
        "label": "_isAuth",
        "offset": 0,
        "slot": "2",
        "type": "t_mapping(t_address,t_uint256)"
      },
      {
        "astId": 17297,
        "contract": "contracts/liquidity/zircuitTransferModule/main.sol:FluidLiquidityZircuitTransferModule",
        "label": "_isGuardian",
        "offset": 0,
        "slot": "3",
        "type": "t_mapping(t_address,t_uint256)"
      },
      {
        "astId": 17302,
        "contract": "contracts/liquidity/zircuitTransferModule/main.sol:FluidLiquidityZircuitTransferModule",
        "label": "_userClass",
        "offset": 0,
        "slot": "4",
        "type": "t_mapping(t_address,t_uint256)"
      },
      {
        "astId": 17307,
        "contract": "contracts/liquidity/zircuitTransferModule/main.sol:FluidLiquidityZircuitTransferModule",
        "label": "_exchangePricesAndConfig",
        "offset": 0,
        "slot": "5",
        "type": "t_mapping(t_address,t_uint256)"
      },
      {
        "astId": 17312,
        "contract": "contracts/liquidity/zircuitTransferModule/main.sol:FluidLiquidityZircuitTransferModule",
        "label": "_rateData",
        "offset": 0,
        "slot": "6",
        "type": "t_mapping(t_address,t_uint256)"
      },
      {
        "astId": 17317,
        "contract": "contracts/liquidity/zircuitTransferModule/main.sol:FluidLiquidityZircuitTransferModule",
        "label": "_totalAmounts",
        "offset": 0,
        "slot": "7",
        "type": "t_mapping(t_address,t_uint256)"
      },
      {
        "astId": 17324,
        "contract": "contracts/liquidity/zircuitTransferModule/main.sol:FluidLiquidityZircuitTransferModule",
        "label": "_userSupplyData",
        "offset": 0,
        "slot": "8",
        "type": "t_mapping(t_address,t_mapping(t_address,t_uint256))"
      },
      {
        "astId": 17331,
        "contract": "contracts/liquidity/zircuitTransferModule/main.sol:FluidLiquidityZircuitTransferModule",
        "label": "_userBorrowData",
        "offset": 0,
        "slot": "9",
        "type": "t_mapping(t_address,t_mapping(t_address,t_uint256))"
      },
      {
        "astId": 17335,
        "contract": "contracts/liquidity/zircuitTransferModule/main.sol:FluidLiquidityZircuitTransferModule",
        "label": "_listedTokens",
        "offset": 0,
        "slot": "10",
        "type": "t_array(t_address)dyn_storage"
      },
      {
        "astId": 17340,
        "contract": "contracts/liquidity/zircuitTransferModule/main.sol:FluidLiquidityZircuitTransferModule",
        "label": "_configs2",
        "offset": 0,
        "slot": "11",
        "type": "t_mapping(t_address,t_uint256)"
      }
    ],
    "types": {
      "t_address": {
        "encoding": "inplace",
        "label": "address",
        "numberOfBytes": "20"
      },
      "t_array(t_address)dyn_storage": {
        "base": "t_address",
        "encoding": "dynamic_array",
        "label": "address[]",
        "numberOfBytes": "32"
      },
      "t_mapping(t_address,t_mapping(t_address,t_uint256))": {
        "encoding": "mapping",
        "key": "t_address",
        "label": "mapping(address => mapping(address => uint256))",
        "numberOfBytes": "32",
        "value": "t_mapping(t_address,t_uint256)"
      },
      "t_mapping(t_address,t_uint256)": {
        "encoding": "mapping",
        "key": "t_address",
        "label": "mapping(address => uint256)",
        "numberOfBytes": "32",
        "value": "t_uint256"
      },
      "t_uint256": {
        "encoding": "inplace",
        "label": "uint256",
        "numberOfBytes": "32"
      }
    }
  }
}