{
  "address": "0x7F8E0be00A22b251eee9a70d17Ec2980354543A8",
  "abi": [
    {
      "inputs": [
        {
          "components": [
            {
              "internalType": "string",
              "name": "infoName",
              "type": "string"
            },
            {
              "internalType": "address",
              "name": "liquidity",
              "type": "address"
            },
            {
              "internalType": "address",
              "name": "rateSource",
              "type": "address"
            },
            {
              "internalType": "uint256",
              "name": "rateMultiplier",
              "type": "uint256"
            },
            {
              "internalType": "bool",
              "name": "invertCenterPrice",
              "type": "bool"
            },
            {
              "internalType": "uint256",
              "name": "minUpdateDiffPercent",
              "type": "uint256"
            },
            {
              "internalType": "uint256",
              "name": "minHeartbeat",
              "type": "uint256"
            },
            {
              "internalType": "bool",
              "name": "avoidForcedLiquidationsCol",
              "type": "bool"
            },
            {
              "internalType": "bool",
              "name": "avoidForcedLiquidationsDebt",
              "type": "bool"
            },
            {
              "internalType": "uint256",
              "name": "maxAPRPercent",
              "type": "uint256"
            },
            {
              "internalType": "uint256",
              "name": "maxDownFromMaxReachedPercentCol",
              "type": "uint256"
            },
            {
              "internalType": "uint256",
              "name": "maxDownFromMaxReachedPercentDebt",
              "type": "uint256"
            },
            {
              "internalType": "uint256",
              "name": "maxDebtUpCapPercent",
              "type": "uint256"
            }
          ],
          "internalType": "struct FluidCappedRateBase.CappedRateConstructorParams",
          "name": "params_",
          "type": "tuple"
        }
      ],
      "stateMutability": "nonpayable",
      "type": "constructor"
    },
    {
      "inputs": [
        {
          "internalType": "uint256",
          "name": "errorId_",
          "type": "uint256"
        }
      ],
      "name": "FluidOracleError",
      "type": "error"
    },
    {
      "anonymous": false,
      "inputs": [
        {
          "indexed": false,
          "internalType": "uint256",
          "name": "oldMaxRate",
          "type": "uint256"
        },
        {
          "indexed": false,
          "internalType": "uint256",
          "name": "newMaxRate",
          "type": "uint256"
        }
      ],
      "name": "LogForceResetMaxRate",
      "type": "event"
    },
    {
      "anonymous": false,
      "inputs": [],
      "name": "LogRateBelowMaxReached",
      "type": "event"
    },
    {
      "anonymous": false,
      "inputs": [],
      "name": "LogRateMaxAPRCapped",
      "type": "event"
    },
    {
      "anonymous": false,
      "inputs": [
        {
          "indexed": false,
          "internalType": "uint256",
          "name": "oldRate",
          "type": "uint256"
        },
        {
          "indexed": false,
          "internalType": "uint256",
          "name": "newRate",
          "type": "uint256"
        },
        {
          "indexed": false,
          "internalType": "uint256",
          "name": "oldMaxRate",
          "type": "uint256"
        },
        {
          "indexed": false,
          "internalType": "uint256",
          "name": "newMaxRate",
          "type": "uint256"
        }
      ],
      "name": "LogRebalanceRate",
      "type": "event"
    },
    {
      "anonymous": false,
      "inputs": [
        {
          "indexed": false,
          "internalType": "bool",
          "name": "oldAvoidForcedLiquidations",
          "type": "bool"
        },
        {
          "indexed": false,
          "internalType": "bool",
          "name": "newAvoidForcedLiquidations",
          "type": "bool"
        }
      ],
      "name": "LogUpdateAvoidForcedLiquidationsCol",
      "type": "event"
    },
    {
      "anonymous": false,
      "inputs": [
        {
          "indexed": false,
          "internalType": "bool",
          "name": "oldAvoidForcedLiquidations",
          "type": "bool"
        },
        {
          "indexed": false,
          "internalType": "bool",
          "name": "newAvoidForcedLiquidations",
          "type": "bool"
        }
      ],
      "name": "LogUpdateAvoidForcedLiquidationsDebt",
      "type": "event"
    },
    {
      "anonymous": false,
      "inputs": [
        {
          "indexed": false,
          "internalType": "uint256",
          "name": "oldMaxAPRPercent",
          "type": "uint256"
        },
        {
          "indexed": false,
          "internalType": "uint256",
          "name": "newMaxAPRPercent",
          "type": "uint256"
        }
      ],
      "name": "LogUpdateMaxAPRPercent",
      "type": "event"
    },
    {
      "anonymous": false,
      "inputs": [
        {
          "indexed": false,
          "internalType": "uint256",
          "name": "oldMaxDebtUpCapPercent",
          "type": "uint256"
        },
        {
          "indexed": false,
          "internalType": "uint256",
          "name": "newMaxDebtUpCapPercent",
          "type": "uint256"
        }
      ],
      "name": "LogUpdateMaxDebtUpCapPercent",
      "type": "event"
    },
    {
      "anonymous": false,
      "inputs": [
        {
          "indexed": false,
          "internalType": "uint256",
          "name": "oldMaxDownFromMaxReachedPercent",
          "type": "uint256"
        },
        {
          "indexed": false,
          "internalType": "uint256",
          "name": "newMaxDownFromMaxReachedPercent",
          "type": "uint256"
        }
      ],
      "name": "LogUpdateMaxDownFromMaxReachedPercentCol",
      "type": "event"
    },
    {
      "anonymous": false,
      "inputs": [
        {
          "indexed": false,
          "internalType": "uint256",
          "name": "oldMaxDownFromMaxReachedPercent",
          "type": "uint256"
        },
        {
          "indexed": false,
          "internalType": "uint256",
          "name": "newMaxDownFromMaxReachedPercent",
          "type": "uint256"
        }
      ],
      "name": "LogUpdateMaxDownFromMaxReachedPercentDebt",
      "type": "event"
    },
    {
      "anonymous": false,
      "inputs": [
        {
          "indexed": false,
          "internalType": "uint256",
          "name": "oldMinHeartbeat",
          "type": "uint256"
        },
        {
          "indexed": false,
          "internalType": "uint256",
          "name": "newMinHeartbeat",
          "type": "uint256"
        }
      ],
      "name": "LogUpdateMinHeartbeat",
      "type": "event"
    },
    {
      "anonymous": false,
      "inputs": [
        {
          "indexed": false,
          "internalType": "uint256",
          "name": "oldMinUpdateDiffPercent",
          "type": "uint256"
        },
        {
          "indexed": false,
          "internalType": "uint256",
          "name": "newMinUpdateDiffPercent",
          "type": "uint256"
        }
      ],
      "name": "LogUpdateMinUpdateDiffPercent",
      "type": "event"
    },
    {
      "inputs": [],
      "name": "centerPrice",
      "outputs": [
        {
          "internalType": "uint256",
          "name": "price_",
          "type": "uint256"
        }
      ],
      "stateMutability": "nonpayable",
      "type": "function"
    },
    {
      "inputs": [],
      "name": "configData",
      "outputs": [
        {
          "internalType": "address",
          "name": "liquidity_",
          "type": "address"
        },
        {
          "internalType": "uint16",
          "name": "minUpdateDiffPercent_",
          "type": "uint16"
        },
        {
          "internalType": "uint24",
          "name": "minHeartbeat_",
          "type": "uint24"
        },
        {
          "internalType": "uint40",
          "name": "lastUpdateTime_",
          "type": "uint40"
        },
        {
          "internalType": "address",
          "name": "rateSource_",
          "type": "address"
        },
        {
          "internalType": "bool",
          "name": "invertCenterPrice_",
          "type": "bool"
        },
        {
          "internalType": "bool",
          "name": "avoidForcedLiquidationsCol_",
          "type": "bool"
        },
        {
          "internalType": "bool",
          "name": "avoidForcedLiquidationsDebt_",
          "type": "bool"
        },
        {
          "internalType": "uint256",
          "name": "maxAPRPercent_",
          "type": "uint256"
        },
        {
          "internalType": "uint24",
          "name": "maxDownFromMaxReachedPercentCol_",
          "type": "uint24"
        },
        {
          "internalType": "uint24",
          "name": "maxDownFromMaxReachedPercentDebt_",
          "type": "uint24"
        },
        {
          "internalType": "uint256",
          "name": "maxDebtUpCapPercent_",
          "type": "uint256"
        }
      ],
      "stateMutability": "view",
      "type": "function"
    },
    {
      "inputs": [],
      "name": "configPercentDiff",
      "outputs": [
        {
          "internalType": "uint256",
          "name": "configPercentDiff_",
          "type": "uint256"
        }
      ],
      "stateMutability": "view",
      "type": "function"
    },
    {
      "inputs": [],
      "name": "forceResetMaxRate",
      "outputs": [],
      "stateMutability": "nonpayable",
      "type": "function"
    },
    {
      "inputs": [],
      "name": "getExchangeRate",
      "outputs": [
        {
          "internalType": "uint256",
          "name": "exchangeRate_",
          "type": "uint256"
        }
      ],
      "stateMutability": "view",
      "type": "function"
    },
    {
      "inputs": [],
      "name": "getExchangeRateLiquidate",
      "outputs": [
        {
          "internalType": "uint256",
          "name": "exchangeRate_",
          "type": "uint256"
        }
      ],
      "stateMutability": "view",
      "type": "function"
    },
    {
      "inputs": [],
      "name": "getExchangeRateLiquidateDebt",
      "outputs": [
        {
          "internalType": "uint256",
          "name": "exchangeRate_",
          "type": "uint256"
        }
      ],
      "stateMutability": "view",
      "type": "function"
    },
    {
      "inputs": [],
      "name": "getExchangeRateOperate",
      "outputs": [
        {
          "internalType": "uint256",
          "name": "exchangeRate_",
          "type": "uint256"
        }
      ],
      "stateMutability": "view",
      "type": "function"
    },
    {
      "inputs": [],
      "name": "getExchangeRateOperateDebt",
      "outputs": [
        {
          "internalType": "uint256",
          "name": "exchangeRate_",
          "type": "uint256"
        }
      ],
      "stateMutability": "view",
      "type": "function"
    },
    {
      "inputs": [],
      "name": "getRatesAndCaps",
      "outputs": [
        {
          "internalType": "uint256",
          "name": "rate_",
          "type": "uint256"
        },
        {
          "internalType": "uint256",
          "name": "maxReachedRate_",
          "type": "uint256"
        },
        {
          "internalType": "uint256",
          "name": "maxUpCappedRateDebt_",
          "type": "uint256"
        },
        {
          "internalType": "bool",
          "name": "isRateBelowMaxReached_",
          "type": "bool"
        },
        {
          "internalType": "bool",
          "name": "isUpMaxAPRCapped_",
          "type": "bool"
        },
        {
          "internalType": "uint256",
          "name": "downCappedRateCol_",
          "type": "uint256"
        },
        {
          "internalType": "uint256",
          "name": "downCappedRateDebt_",
          "type": "uint256"
        },
        {
          "internalType": "bool",
          "name": "isDownCappedCol_",
          "type": "bool"
        },
        {
          "internalType": "bool",
          "name": "isDownCappedDebt_",
          "type": "bool"
        },
        {
          "internalType": "bool",
          "name": "isUpCapped_",
          "type": "bool"
        }
      ],
      "stateMutability": "view",
      "type": "function"
    },
    {
      "inputs": [],
      "name": "infoName",
      "outputs": [
        {
          "internalType": "string",
          "name": "",
          "type": "string"
        }
      ],
      "stateMutability": "view",
      "type": "function"
    },
    {
      "inputs": [],
      "name": "isHeartbeatTrigger",
      "outputs": [
        {
          "internalType": "bool",
          "name": "",
          "type": "bool"
        }
      ],
      "stateMutability": "view",
      "type": "function"
    },
    {
      "inputs": [],
      "name": "rebalance",
      "outputs": [],
      "stateMutability": "nonpayable",
      "type": "function"
    },
    {
      "inputs": [],
      "name": "targetDecimals",
      "outputs": [
        {
          "internalType": "uint8",
          "name": "",
          "type": "uint8"
        }
      ],
      "stateMutability": "pure",
      "type": "function"
    },
    {
      "inputs": [
        {
          "internalType": "bool",
          "name": "avoid_",
          "type": "bool"
        }
      ],
      "name": "updateAvoidForcedLiquidationsCol",
      "outputs": [],
      "stateMutability": "nonpayable",
      "type": "function"
    },
    {
      "inputs": [
        {
          "internalType": "bool",
          "name": "avoid_",
          "type": "bool"
        }
      ],
      "name": "updateAvoidForcedLiquidationsDebt",
      "outputs": [],
      "stateMutability": "nonpayable",
      "type": "function"
    },
    {
      "inputs": [
        {
          "internalType": "uint256",
          "name": "newMaxAPRPercent_",
          "type": "uint256"
        }
      ],
      "name": "updateMaxAPRPercent",
      "outputs": [],
      "stateMutability": "nonpayable",
      "type": "function"
    },
    {
      "inputs": [
        {
          "internalType": "uint256",
          "name": "newMaxDebtUpCapPercent_",
          "type": "uint256"
        }
      ],
      "name": "updateMaxDebtUpCapPercent",
      "outputs": [],
      "stateMutability": "nonpayable",
      "type": "function"
    },
    {
      "inputs": [
        {
          "internalType": "uint256",
          "name": "newMaxDownFromMaxReachedPercent_",
          "type": "uint256"
        }
      ],
      "name": "updateMaxDownFromMaxReachedPercentCol",
      "outputs": [],
      "stateMutability": "nonpayable",
      "type": "function"
    },
    {
      "inputs": [
        {
          "internalType": "uint256",
          "name": "newMaxDownFromMaxReachedPercent_",
          "type": "uint256"
        }
      ],
      "name": "updateMaxDownFromMaxReachedPercentDebt",
      "outputs": [],
      "stateMutability": "nonpayable",
      "type": "function"
    },
    {
      "inputs": [
        {
          "internalType": "uint256",
          "name": "newMinHeartbeat_",
          "type": "uint256"
        }
      ],
      "name": "updateMinHeartbeat",
      "outputs": [],
      "stateMutability": "nonpayable",
      "type": "function"
    },
    {
      "inputs": [
        {
          "internalType": "uint256",
          "name": "newMinUpdateDiffPercent_",
          "type": "uint256"
        }
      ],
      "name": "updateMinUpdateDiffPercent",
      "outputs": [],
      "stateMutability": "nonpayable",
      "type": "function"
    }
  ],
  "transactionHash": "0x866d79264d3dcd33eabc69353005c5444bcc7f70f19bfa31ae2a706bbb968dcd",
  "args": [
    [
      {
        "infoName": "MATIC per 1 MATICX",
        "rateSource": "0xfd225c9e6601c9d38d8f98d8731bf59efcf8c0e3",
        "rateMultiplier": 1,
        "maxAPRPercent": 500000,
        "maxDownFromMaxReachedPercentDebt": 50000,
        "invertCenterPrice": true,
        "minUpdateDiffPercent": 10,
        "minHeartbeat": 90000,
        "avoidForcedLiquidationsCol": false,
        "maxDownFromMaxReachedPercentCol": 0,
        "avoidForcedLiquidationsDebt": false,
        "maxDebtUpCapPercent": 0,
        "liquidity": "0x52Aa899454998Be5b000Ad077a46Bbe360F4e497"
      }
    ]
  ],
  "numDeployments": 1,
  "linkedData": {
    "nonce": "71"
  },
  "bytecode": "0x6101206040523480156200001257600080fd5b50604051620048d7380380620048d7833981016040819052620000359162000579565b8051602082015182919082906001600160a01b038116620000725760405163c82fc46560e01b815261ebbf60048201526024015b60405180910390fd5b60408201516001600160a01b038116620000a45760405163c82fc46560e01b815261ebbf600482015260240162000069565b60608301511580620000c25750683635c9adc5dea000008360600151115b80620000d0575060a0830151155b80620000e1575060a083015161ffff105b80620000ef575060c0830151155b8062000101575060c083015162ffffff105b80620001145750620f4240836101400151115b80620001275750620f4240836101600151115b806200014657506200013e606462ffffff6200069e565b836101200151115b806200016457506200015c606461ffff6200069e565b836101800151115b15620001885760405163c82fc46560e01b815261ebbf600482015260240162000069565b60208301516001600160a01b039081166080908152604085015190911660a052606084015160e081905290840151151560c052620001c5620003c5565b620001d191906200069e565b6000805460a086015160c08701516001600160a81b03949094166001600160d01b031990921691909117600160a81b4264ffffffffff1602176001600160d81b0316600160f01b61ffff9092169190910262ffffff60d81b191617600160d81b62ffffff909316929092029190911790556101008301516200025557600062000258565b60085b8360e001516200026a5760006200026d565b60045b6000805460ff9390921792909216600160d01b0260ff60d01b19909116179055610120830151620002a190606490620006ca565b6001805461014086015161016087015165ffffffffffff60a81b19909216600160a81b62ffffff9586160262ffffff60c01b191617600160c01b918516919091021762ffffff60d81b1916600160d81b93909116929092029190911790556101808301516200031390606490620006ca565b600180546000546001600160a81b031961ffff94909416600160f01b0293909316600160a81b600160f01b03909116176001600160a81b03909216919091179055505081516020109050806200036857508051155b156200038c5760405163c82fc46560e01b815261ea6a600482015260240162000069565b60200151610100525060e051600114620003be5760405163c82fc46560e01b815261ebbf600482015260240162000069565b506200071c565b60a0516040516375a85ef560e01b81526b033b2e3c9fd0803ce800000060048201526000916001600160a01b0316906375a85ef590602401606060405180830381865afa1580156200041b573d6000803e3d6000fd5b505050506040513d601f19601f82011682018060405250810190620004419190620006ed565b509092915050565b634e487b7160e01b600052604160045260246000fd5b6040516101a081016001600160401b038111828210171562000485576200048562000449565b60405290565b604051601f8201601f191681016001600160401b0381118282101715620004b657620004b662000449565b604052919050565b600082601f830112620004d057600080fd5b81516001600160401b03811115620004ec57620004ec62000449565b602062000502601f8301601f191682016200048b565b82815285828487010111156200051757600080fd5b60005b83811015620005375785810183015182820184015282016200051a565b506000928101909101919091529392505050565b80516001600160a01b03811681146200056357600080fd5b919050565b805180151581146200056357600080fd5b6000602082840312156200058c57600080fd5b81516001600160401b0380821115620005a457600080fd5b908301906101a08286031215620005ba57600080fd5b620005c46200045f565b825182811115620005d457600080fd5b620005e287828601620004be565b825250620005f3602084016200054b565b602082015262000606604084016200054b565b604082015260608301516060820152620006236080840162000568565b608082015260a083015160a082015260c083015160c08201526200064a60e0840162000568565b60e082015261010091506200066182840162000568565b9181019190915261012082810151908201526101408083015190820152610160808301519082015261018091820151918101919091529392505050565b8082028115828204841417620006c457634e487b7160e01b600052601160045260246000fd5b92915050565b600082620006e857634e487b7160e01b600052601260045260246000fd5b500490565b6000806000606084860312156200070357600080fd5b8351925060208401519150604084015190509250925092565b60805160a05160c05160e051610100516140f1620007e660003960008181613afa0152613bbf0152600061344c015260008181610e6c0152613c61015260008181610e4b0152613cf4015260008181610e1b01528181610f0e01528181611024015281816111cc015281816112e20152818161147b01528181611591015281816117790152818161188f01528181611ef201528181612008015281816124e1015281816126e101528181612a5d01528181612b730152818161319401526132aa01526140f16000f3fe608060405234801561001057600080fd5b50600436106101825760003560e01c80639dc10566116100d8578063dd7a29f21161008c578063f3190c8911610066578063f3190c89146103d4578063f763f7a6146103dc578063fe51171d146103e457600080fd5b8063dd7a29f2146103b1578063e6aa216c146103c4578063f14fe764146103cc57600080fd5b8063abd5f95d116100bd578063abd5f95d14610331578063b20faf9d14610346578063d1e482f31461039e57600080fd5b80639dc1056614610316578063a00010691461031e57600080fd5b806371dbff561161013a57806379557e681161011457806379557e68146102275780637d7c2a1c146103065780638e7bfbc01461030e57600080fd5b806371dbff56146101ee57806373e98a6814610201578063767ceebb1461021457600080fd5b806320e44e431161016b57806320e44e43146101aa57806336c1387e146101ca578063691e581a146101d957600080fd5b8063046646241461018757806313d368a7146101a2575b600080fd5b61018f6103f7565b6040519081526020015b60405180910390f35b61018f6108ad565b6101b2610c22565b6040516101999c9b9a99989796959493929190613dc7565b604051601b8152602001610199565b6101ec6101e7366004613e61565b610f0a565b005b6101ec6101fc366004613e61565b6111c8565b6101ec61020f366004613e83565b611477565b6101ec610222366004613e83565b611775565b6040805160a08101825260005474ffffffffffffffffffffffffffffffffffffffffff811682527501000000000000000000000000000000000000000000810464ffffffffff1660208084018290527a010000000000000000000000000000000000000000000000000000830460ff16848601527b01000000000000000000000000000000000000000000000000000000830462ffffff16606085018190527e0100000000000000000000000000000000000000000000000000000000000090930461ffff166080909401939093529251429190930110825201610199565b6101ec611a2b565b61018f611b0c565b61018f611d33565b6101ec61032c366004613e83565b611eee565b6103396121df565b6040516101999190613e9c565b61034e6121e9565b604080519a8b5260208b0199909952978901969096529315156060880152911515608087015260a086015260c0850152151560e08401521515610100830152151561012082015261014001610199565b6101ec6103ac366004613e83565b61247c565b6101ec6103bf366004613e83565b61267c565b61018f612875565b6101ec612a59565b61018f612cce565b61018f613083565b6101ec6103f2366004613e83565b613190565b6040805160a080820183526000805474ffffffffffffffffffffffffffffffffffffffffff811684527501000000000000000000000000000000000000000000810464ffffffffff166020808601919091527a010000000000000000000000000000000000000000000000000000820460ff16858701527b01000000000000000000000000000000000000000000000000000000820462ffffff166060808701919091527e0100000000000000000000000000000000000000000000000000000000000090920461ffff16608080870191909152865194850187528385529084018390529483018290528201819052928101839052600080600061051785600042826060015162ffffff16836020015164ffffffffff1601109050919050565b1561060d576040805160a08101825260015474ffffffffffffffffffffffffffffffffffffffffff81168083527501000000000000000000000000000000000000000000820462ffffff9081166020808601829052780100000000000000000000000000000000000000000000000085048316968601969096527b01000000000000000000000000000000000000000000000000000000840490911660608501527e0100000000000000000000000000000000000000000000000000000000000090920461ffff166080840152928801519196506105fd929164ffffffffff1690613444565b929850909450909250905061063f565b50508251604084015174ffffffffffffffffffffffffffffffffffffffffff9091169450600181811614906002908116145b808015610653575060408501516008908116145b1561077e5782600003610729576040805160a08101825260015474ffffffffffffffffffffffffffffffffffffffffff811680835262ffffff7501000000000000000000000000000000000000000000830481166020850152780100000000000000000000000000000000000000000000000083048116948401949094527b010000000000000000000000000000000000000000000000000000008204909316606083015261ffff7e01000000000000000000000000000000000000000000000000000000000000909104166080820152945092505b620f42406064856080015161ffff166107429190613f37565b61074f90620f4240613f4e565b6107599085613f37565b6107639190613f90565b92508286116107725785610774565b825b9550505050505090565b8161078b57505050505090565b835174ffffffffffffffffffffffffffffffffffffffffff16600003610872576040805160a08101825260015474ffffffffffffffffffffffffffffffffffffffffff811682527501000000000000000000000000000000000000000000810462ffffff9081166020840152780100000000000000000000000000000000000000000000000082048116938301939093527b01000000000000000000000000000000000000000000000000000000810490921660608201527e0100000000000000000000000000000000000000000000000000000000000090910461ffff16608082015293505b610774866000851161089c57855174ffffffffffffffffffffffffffffffffffffffffff1661089e565b845b866060015162ffffff166134dd565b6040805160a080820183526000805474ffffffffffffffffffffffffffffffffffffffffff811684527501000000000000000000000000000000000000000000810464ffffffffff166020808601919091527a010000000000000000000000000000000000000000000000000000820460ff16858701527b01000000000000000000000000000000000000000000000000000000820462ffffff166060808701919091527e0100000000000000000000000000000000000000000000000000000000000090920461ffff166080808701919091528651948501875283855290840183905294830182905282018190529281018390526000806109cb84600042826060015162ffffff16836020015164ffffffffff1601109050919050565b15610ac1576040805160a08101825260015474ffffffffffffffffffffffffffffffffffffffffff81168083527501000000000000000000000000000000000000000000820462ffffff9081166020808601829052780100000000000000000000000000000000000000000000000085048316968601969096527b01000000000000000000000000000000000000000000000000000000840490911660608501527e0100000000000000000000000000000000000000000000000000000000000090920461ffff16608084015292870151919550610ab1929164ffffffffff1690613444565b929750909350909150610aeb9050565b508251604084015174ffffffffffffffffffffffffffffffffffffffffff90911694506001908116145b80610af7575050505090565b825174ffffffffffffffffffffffffffffffffffffffffff16600003610bde576040805160a08101825260015474ffffffffffffffffffffffffffffffffffffffffff811682527501000000000000000000000000000000000000000000810462ffffff9081166020840152780100000000000000000000000000000000000000000000000082048116938301939093527b01000000000000000000000000000000000000000000000000000000810490921660608201527e0100000000000000000000000000000000000000000000000000000000000090910461ffff16608082015292505b610c198560008411610c0857845174ffffffffffffffffffffffffffffffffffffffffff16610c0a565b835b856060015162ffffff166134dd565b94505050505090565b6000806000806000806000806000806000806000806040518060a00160405290816000820160009054906101000a900474ffffffffffffffffffffffffffffffffffffffffff1674ffffffffffffffffffffffffffffffffffffffffff1674ffffffffffffffffffffffffffffffffffffffffff1681526020016000820160159054906101000a900464ffffffffff1664ffffffffff1664ffffffffff16815260200160008201601a9054906101000a900460ff1660ff1660ff16815260200160008201601b9054906101000a900462ffffff1662ffffff1662ffffff16815260200160008201601e9054906101000a900461ffff1661ffff1661ffff16815250509050600060016040518060a00160405290816000820160009054906101000a900474ffffffffffffffffffffffffffffffffffffffffff1674ffffffffffffffffffffffffffffffffffffffffff1674ffffffffffffffffffffffffffffffffffffffffff1681526020016000820160159054906101000a900462ffffff1662ffffff1662ffffff1681526020016000820160189054906101000a900462ffffff1662ffffff1662ffffff16815260200160008201601b9054906101000a900462ffffff1662ffffff1662ffffff16815260200160008201601e9054906101000a900461ffff1661ffff1661ffff168152505090507f00000000000000000000000000000000000000000000000000000000000000008260800151836060015184602001517f00000000000000000000000000000000000000000000000000000000000000007f0000000000000000000000000000000000000000000000000000000000000000600460ff16600489604001511660ff1614600860ff1660088a604001511660ff16146064896020015162ffffff16610ec39190613f37565b89604001518a6060015160648c6080015161ffff16610ee29190613f37565b9d509d509d509d509d509d509d509d509d509d509d509d505050909192939495969798999a9b565b60007f000000000000000000000000000000000000000000000000000000000000000073ffffffffffffffffffffffffffffffffffffffff1663b5c736e4610f536003336134f9565b6040518263ffffffff1660e01b8152600401610f7191815260200190565b602060405180830381865afa158015610f8e573d6000803e3d6000fd5b505050506040513d601f19601f82011682018060405250810190610fb29190613fcb565b6040517fb5c736e40000000000000000000000000000000000000000000000000000000081527fb53127684a568b3173ae13b9f8a6016e243e63b6e8ee1178d6a717850b5d6103600482015260019182169091149150600090339073ffffffffffffffffffffffffffffffffffffffff7f0000000000000000000000000000000000000000000000000000000000000000169063b5c736e490602401602060405180830381865afa15801561106b573d6000803e3d6000fd5b505050506040513d601f19601f8201168201806040525081019061108f9190613fcb565b73ffffffffffffffffffffffffffffffffffffffff16149050811580156110b4575080155b156110f4576040517fc82fc46500000000000000000000000000000000000000000000000000000000815261ebc060048201526024015b60405180910390fd5b6000547a01000000000000000000000000000000000000000000000000000090046008908116148361112757600061112a565b60085b600080547fffffffffff00ffffffffffffffffffffffffffffffffffffffffffffffffffff81167a0100000000000000000000000000000000000000000000000000009182900460f71660ff94909416939093170291909117905560408051821515815285151560208201527ff26e4209c91ee7e9b517c3dd9c5aac7081ac9f14a3c501969bfc3e7ff133adf891015b60405180910390a150505050565b60007f000000000000000000000000000000000000000000000000000000000000000073ffffffffffffffffffffffffffffffffffffffff1663b5c736e46112116003336134f9565b6040518263ffffffff1660e01b815260040161122f91815260200190565b602060405180830381865afa15801561124c573d6000803e3d6000fd5b505050506040513d601f19601f820116820180604052508101906112709190613fcb565b6040517fb5c736e40000000000000000000000000000000000000000000000000000000081527fb53127684a568b3173ae13b9f8a6016e243e63b6e8ee1178d6a717850b5d6103600482015260019182169091149150600090339073ffffffffffffffffffffffffffffffffffffffff7f0000000000000000000000000000000000000000000000000000000000000000169063b5c736e490602401602060405180830381865afa158015611329573d6000803e3d6000fd5b505050506040513d601f19601f8201168201806040525081019061134d9190613fcb565b73ffffffffffffffffffffffffffffffffffffffff1614905081158015611372575080155b156113ad576040517fc82fc46500000000000000000000000000000000000000000000000000000000815261ebc060048201526024016110eb565b6000547a0100000000000000000000000000000000000000000000000000009004600490811614836113e05760006113e3565b60045b600080547fffffffffff00ffffffffffffffffffffffffffffffffffffffffffffffffffff81167a0100000000000000000000000000000000000000000000000000009182900460fb1660ff94909416939093170291909117905560408051821515815285151560208201527f85a585c4b90f71caba3c97aa85dfa2b36993024b9e1900e505364f47bbcff8ec91016111ba565b60007f000000000000000000000000000000000000000000000000000000000000000073ffffffffffffffffffffffffffffffffffffffff1663b5c736e46114c06003336134f9565b6040518263ffffffff1660e01b81526004016114de91815260200190565b602060405180830381865afa1580156114fb573d6000803e3d6000fd5b505050506040513d601f19601f8201168201806040525081019061151f9190613fcb565b6040517fb5c736e40000000000000000000000000000000000000000000000000000000081527fb53127684a568b3173ae13b9f8a6016e243e63b6e8ee1178d6a717850b5d6103600482015260019182169091149150600090339073ffffffffffffffffffffffffffffffffffffffff7f0000000000000000000000000000000000000000000000000000000000000000169063b5c736e490602401602060405180830381865afa1580156115d8573d6000803e3d6000fd5b505050506040513d601f19601f820116820180604052508101906115fc9190613fcb565b73ffffffffffffffffffffffffffffffffffffffff1614905081158015611621575080155b1561165c576040517fc82fc46500000000000000000000000000000000000000000000000000000000815261ebc060048201526024016110eb565b611669606461ffff613f37565b8311156116a6576040517fc82fc46500000000000000000000000000000000000000000000000000000000815261ebbf60048201526024016110eb565b6001546000906116de906064907e01000000000000000000000000000000000000000000000000000000000000900461ffff16613f37565b90506116eb606485613f90565b6001805461ffff929092167e01000000000000000000000000000000000000000000000000000000000000027dffffffffffffffffffffffffffffffffffffffffffffffffffffffffffff90921691909117905560408051828152602081018690527fde99abbfc304a53cbdfa0db8c0fa93869f92defdfb9926c7c346c1fcb18cf04991016111ba565b60007f000000000000000000000000000000000000000000000000000000000000000073ffffffffffffffffffffffffffffffffffffffff1663b5c736e46117be6003336134f9565b6040518263ffffffff1660e01b81526004016117dc91815260200190565b602060405180830381865afa1580156117f9573d6000803e3d6000fd5b505050506040513d601f19601f8201168201806040525081019061181d9190613fcb565b6040517fb5c736e40000000000000000000000000000000000000000000000000000000081527fb53127684a568b3173ae13b9f8a6016e243e63b6e8ee1178d6a717850b5d6103600482015260019182169091149150600090339073ffffffffffffffffffffffffffffffffffffffff7f0000000000000000000000000000000000000000000000000000000000000000169063b5c736e490602401602060405180830381865afa1580156118d6573d6000803e3d6000fd5b505050506040513d601f19601f820116820180604052508101906118fa9190613fcb565b73ffffffffffffffffffffffffffffffffffffffff161490508115801561191f575080155b1561195a576040517fc82fc46500000000000000000000000000000000000000000000000000000000815261ebc060048201526024016110eb565b620f424083111561199b576040517fc82fc46500000000000000000000000000000000000000000000000000000000815261ebbf60048201526024016110eb565b6001805462ffffff85811678010000000000000000000000000000000000000000000000009081027fffffffffff000000ffffffffffffffffffffffffffffffffffffffffffffffff84161790935560408051939092041680835260208301869052917ff228de6bd894d485e2abff17a7e1801febe7c7d377cbc09ea6b105afdec3e69791016111ba565b905090565b6040805160a08101825260005474ffffffffffffffffffffffffffffffffffffffffff811682527501000000000000000000000000000000000000000000810464ffffffffff16602083018190527a010000000000000000000000000000000000000000000000000000820460ff16938301939093527b01000000000000000000000000000000000000000000000000000000810462ffffff16606083018190527e0100000000000000000000000000000000000000000000000000000000000090910461ffff16608090920191909152611b099142910110613544565b50565b6040805160a0810182526000805474ffffffffffffffffffffffffffffffffffffffffff811683527501000000000000000000000000000000000000000000810464ffffffffff16602084018190527a010000000000000000000000000000000000000000000000000000820460ff16948401949094527b01000000000000000000000000000000000000000000000000000000810462ffffff16606084018190527e0100000000000000000000000000000000000000000000000000000000000090910461ffff16608084015290924291011015611ce5576040805160a08101825260015474ffffffffffffffffffffffffffffffffffffffffff81168083527501000000000000000000000000000000000000000000820462ffffff9081166020808601829052780100000000000000000000000000000000000000000000000085048316968601969096527b01000000000000000000000000000000000000000000000000000000840490911660608501527e0100000000000000000000000000000000000000000000000000000000000090920461ffff1660808401529284015191926000928392611cca929164ffffffffff1690613444565b509196509250905080611cdd5784610c19565b509392505050565b6040810151600290811614611d1257805174ffffffffffffffffffffffffffffffffffffffffff16611d2d565b60015474ffffffffffffffffffffffffffffffffffffffffff165b91505090565b6040805160a080820183526000805474ffffffffffffffffffffffffffffffffffffffffff808216855264ffffffffff75010000000000000000000000000000000000000000008084048216602080890191825260ff7a010000000000000000000000000000000000000000000000000000870416898b015262ffffff7b0100000000000000000000000000000000000000000000000000000080880482166060808d019190915261ffff7e01000000000000000000000000000000000000000000000000000000000000998a900481166080808f01919091528e519c8d018f52600154998a16808e52978a048516958d0186905278010000000000000000000000000000000000000000000000008a0485169e8d019e909e52918804909216918a019190915295909404909416978601979097529151929586938493611e7c93911690613444565b5050915091506000611ea9856000015174ffffffffffffffffffffffffffffffffffffffffff1684613a9a565b90506000611ed2856000015174ffffffffffffffffffffffffffffffffffffffffff1684613a9a565b9050808211611ee15780611ee3565b815b965050505050505090565b60007f000000000000000000000000000000000000000000000000000000000000000073ffffffffffffffffffffffffffffffffffffffff1663b5c736e4611f376003336134f9565b6040518263ffffffff1660e01b8152600401611f5591815260200190565b602060405180830381865afa158015611f72573d6000803e3d6000fd5b505050506040513d601f19601f82011682018060405250810190611f969190613fcb565b6040517fb5c736e40000000000000000000000000000000000000000000000000000000081527fb53127684a568b3173ae13b9f8a6016e243e63b6e8ee1178d6a717850b5d6103600482015260019182169091149150600090339073ffffffffffffffffffffffffffffffffffffffff7f0000000000000000000000000000000000000000000000000000000000000000169063b5c736e490602401602060405180830381865afa15801561204f573d6000803e3d6000fd5b505050506040513d601f19601f820116820180604052508101906120739190613fcb565b73ffffffffffffffffffffffffffffffffffffffff1614905081158015612098575080155b156120d3576040517fc82fc46500000000000000000000000000000000000000000000000000000000815261ebc060048201526024016110eb565b6120e1606462ffffff613f37565b83111561211e576040517fc82fc46500000000000000000000000000000000000000000000000000000000815261ebbf60048201526024016110eb565b60015460009061214e906064907501000000000000000000000000000000000000000000900462ffffff16613f37565b905061215b606485613f90565b6001805462ffffff929092167501000000000000000000000000000000000000000000027fffffffffffffffff000000ffffffffffffffffffffffffffffffffffffffffff90921691909117905560408051828152602081018690527f5a860511811f4b9bff28b459bb3b23dd57c9b6708cfd9d94ba1420bef5dc4cf991016111ba565b6060611a26613ae8565b6040805160a080820183526000805474ffffffffffffffffffffffffffffffffffffffffff808216855264ffffffffff75010000000000000000000000000000000000000000008084049190911660208088019190915260ff7a0100000000000000000000000000000000000000000000000000008504168789015262ffffff7b0100000000000000000000000000000000000000000000000000000080860482166060808b019190915261ffff7e010000000000000000000000000000000000000000000000000000000000009788900481166080808d01919091528c519a8b018d526001549788168b529587048416948a01949094527801000000000000000000000000000000000000000000000000860483169a89019a909a5284041697860197909752919004909416938201939093528291829182918291829182918291829182919061235682600042826060015162ffffff16836020015164ffffffffff1601109050919050565b156123a557612395816000015174ffffffffffffffffffffffffffffffffffffffffff16836020015164ffffffffff16836020015162ffffff16613444565b929e50909c5090995097506123de565b81518151604084015174ffffffffffffffffffffffffffffffffffffffffff9283169e5091169b50600181811614995060029081161497505b6123f360008c836040015162ffffff166134dd565b965061240a60008c836060015162ffffff166134dd565b9550620f42406064826080015161ffff166124259190613f37565b61243290620f4240613f4e565b61243c908d613f37565b6124469190613f90565b99508a8c1180156124565750898c105b1561245f578b99505b868c109450858c1093508a8c119250505090919293949596979899565b6040517fb5c736e40000000000000000000000000000000000000000000000000000000081527fb53127684a568b3173ae13b9f8a6016e243e63b6e8ee1178d6a717850b5d61036004820152339073ffffffffffffffffffffffffffffffffffffffff7f0000000000000000000000000000000000000000000000000000000000000000169063b5c736e490602401602060405180830381865afa158015612528573d6000803e3d6000fd5b505050506040513d601f19601f8201168201806040525081019061254c9190613fcb565b73ffffffffffffffffffffffffffffffffffffffff161461259d576040517fc82fc46500000000000000000000000000000000000000000000000000000000815261ebc060048201526024016110eb565b61ffff8111806125ab575080155b156125e6576040517fc82fc46500000000000000000000000000000000000000000000000000000000815261ebbf60048201526024016110eb565b6000805461ffff8381167e010000000000000000000000000000000000000000000000000000000000009081027dffffffffffffffffffffffffffffffffffffffffffffffffffffffffffff84161790935560408051939092041680835260208301849052917f0d85068d514b7dcaffeac0819f83d2c909ca9f783d39b2c9e7e717c446b4ce6791015b60405180910390a15050565b6040517fb5c736e40000000000000000000000000000000000000000000000000000000081527fb53127684a568b3173ae13b9f8a6016e243e63b6e8ee1178d6a717850b5d61036004820152339073ffffffffffffffffffffffffffffffffffffffff7f0000000000000000000000000000000000000000000000000000000000000000169063b5c736e490602401602060405180830381865afa158015612728573d6000803e3d6000fd5b505050506040513d601f19601f8201168201806040525081019061274c9190613fcb565b73ffffffffffffffffffffffffffffffffffffffff161461279d576040517fc82fc46500000000000000000000000000000000000000000000000000000000815261ebc060048201526024016110eb565b62ffffff8111806127ac575080155b156127e7576040517fc82fc46500000000000000000000000000000000000000000000000000000000815261ebbf60048201526024016110eb565b6000805462ffffff8381167b010000000000000000000000000000000000000000000000000000009081027fffff000000ffffffffffffffffffffffffffffffffffffffffffffffffffffff84161790935560408051939092041680835260208301849052917fe20dfd2ce7e052628278a16997f363cfa124066a6e4f5e60162f1ece7d5979809101612670565b6040805160a0810182526000805474ffffffffffffffffffffffffffffffffffffffffff811683527501000000000000000000000000000000000000000000810464ffffffffff16602084018190527a010000000000000000000000000000000000000000000000000000820460ff16948401949094527b01000000000000000000000000000000000000000000000000000000810462ffffff16606084018190527e0100000000000000000000000000000000000000000000000000000000000090910461ffff16608084015290924291011015612a3c576040805160a08101825260015474ffffffffffffffffffffffffffffffffffffffffff81168083527501000000000000000000000000000000000000000000820462ffffff9081166020808601829052780100000000000000000000000000000000000000000000000085048316968601969096527b01000000000000000000000000000000000000000000000000000000840490911660608501527e0100000000000000000000000000000000000000000000000000000000000090920461ffff166080840152928401519192612a3192909164ffffffffff90911690613444565b509195945050505050565b5174ffffffffffffffffffffffffffffffffffffffffff16919050565b60007f000000000000000000000000000000000000000000000000000000000000000073ffffffffffffffffffffffffffffffffffffffff1663b5c736e4612aa26003336134f9565b6040518263ffffffff1660e01b8152600401612ac091815260200190565b602060405180830381865afa158015612add573d6000803e3d6000fd5b505050506040513d601f19601f82011682018060405250810190612b019190613fcb565b6040517fb5c736e40000000000000000000000000000000000000000000000000000000081527fb53127684a568b3173ae13b9f8a6016e243e63b6e8ee1178d6a717850b5d6103600482015260019182169091149150600090339073ffffffffffffffffffffffffffffffffffffffff7f0000000000000000000000000000000000000000000000000000000000000000169063b5c736e490602401602060405180830381865afa158015612bba573d6000803e3d6000fd5b505050506040513d601f19601f82011682018060405250810190612bde9190613fcb565b73ffffffffffffffffffffffffffffffffffffffff1614905081158015612c03575080155b15612c3e576040517fc82fc46500000000000000000000000000000000000000000000000000000000815261ebc060048201526024016110eb565b600180546000547fffffffffffffffffffffff000000000000000000000000000000000000000000821674ffffffffffffffffffffffffffffffffffffffffff9182169081179093556040519116917f48ed0deba5df6794da28946c33455c1898c767d82e7ab2080e5586c329c6830a91612cc191848252602082015260400190565b60405180910390a1505050565b6040805160a080820183526000805474ffffffffffffffffffffffffffffffffffffffffff811684527501000000000000000000000000000000000000000000810464ffffffffff166020808601919091527a010000000000000000000000000000000000000000000000000000820460ff16858701527b01000000000000000000000000000000000000000000000000000000820462ffffff166060808701919091527e0100000000000000000000000000000000000000000000000000000000000090920461ffff166080808701919091528651948501875283855290840183905294830182905282018190529281018390526000806000612dee85600042826060015162ffffff16836020015164ffffffffff1601109050919050565b15612ee3576040805160a08101825260015474ffffffffffffffffffffffffffffffffffffffffff81168083527501000000000000000000000000000000000000000000820462ffffff9081166020808601829052780100000000000000000000000000000000000000000000000085048316968601969096527b01000000000000000000000000000000000000000000000000000000840490911660608501527e0100000000000000000000000000000000000000000000000000000000000090920461ffff16608084015292880151919650612ed4929164ffffffffff1690613444565b92985090945092509050612f13565b50506040830151835174ffffffffffffffffffffffffffffffffffffffffff169450600281811614906001908116145b8115612f4057600083116107725760015474ffffffffffffffffffffffffffffffffffffffffff16610774565b808015612f54575060408501516004908116145b1561307b57835174ffffffffffffffffffffffffffffffffffffffffff16600003613040576040805160a08101825260015474ffffffffffffffffffffffffffffffffffffffffff811682527501000000000000000000000000000000000000000000810462ffffff9081166020840152780100000000000000000000000000000000000000000000000082048116938301939093527b01000000000000000000000000000000000000000000000000000000810490921660608201527e0100000000000000000000000000000000000000000000000000000000000090910461ffff16608082015293505b610774866000851161306a57855174ffffffffffffffffffffffffffffffffffffffffff1661306c565b845b866040015162ffffff166134dd565b505050505090565b6040805160a0810182526000805474ffffffffffffffffffffffffffffffffffffffffff811683527501000000000000000000000000000000000000000000810464ffffffffff16602084018190527a010000000000000000000000000000000000000000000000000000820460ff16948401949094527b01000000000000000000000000000000000000000000000000000000810462ffffff16606084018190527e0100000000000000000000000000000000000000000000000000000000000090910461ffff1660808401529092429101101561316e57611d2d6131696001613544565b613c4d565b8051611d2d9074ffffffffffffffffffffffffffffffffffffffffff16613c4d565b60007f000000000000000000000000000000000000000000000000000000000000000073ffffffffffffffffffffffffffffffffffffffff1663b5c736e46131d96003336134f9565b6040518263ffffffff1660e01b81526004016131f791815260200190565b602060405180830381865afa158015613214573d6000803e3d6000fd5b505050506040513d601f19601f820116820180604052508101906132389190613fcb565b6040517fb5c736e40000000000000000000000000000000000000000000000000000000081527fb53127684a568b3173ae13b9f8a6016e243e63b6e8ee1178d6a717850b5d6103600482015260019182169091149150600090339073ffffffffffffffffffffffffffffffffffffffff7f0000000000000000000000000000000000000000000000000000000000000000169063b5c736e490602401602060405180830381865afa1580156132f1573d6000803e3d6000fd5b505050506040513d601f19601f820116820180604052508101906133159190613fcb565b73ffffffffffffffffffffffffffffffffffffffff161490508115801561333a575080155b15613375576040517fc82fc46500000000000000000000000000000000000000000000000000000000815261ebc060048201526024016110eb565b620f42408311156133b6576040517fc82fc46500000000000000000000000000000000000000000000000000000000815261ebbf60048201526024016110eb565b6001805462ffffff8581167b010000000000000000000000000000000000000000000000000000009081027fffff000000ffffffffffffffffffffffffffffffffffffffffffffffffffffff84161790935560408051939092041680835260208301869052917ffe51ba8fc52e850f07aab61020c1f751e1fd8a5afbbbc922416e7c39fb56a10191016111ba565b6000806000807f0000000000000000000000000000000000000000000000000000000000000000613473613cb7565b61347d9190613f37565b9350836000036134bd576040517fc82fc46500000000000000000000000000000000000000000000000000000000815261ebc260048201526024016110eb565b6134c984888888613d7c565b939793965050508486119350508385109150565b620f4240818103830204808411156134f25750825b9392505050565b6040805173ffffffffffffffffffffffffffffffffffffffff831660208201529081018390526000906060016040516020818303038152906040528051906020012090505b92915050565b6040805160a080820183526000805474ffffffffffffffffffffffffffffffffffffffffff808216855264ffffffffff75010000000000000000000000000000000000000000008084048216602080890191825260ff7a010000000000000000000000000000000000000000000000000000870416898b015262ffffff7b0100000000000000000000000000000000000000000000000000000080880482166060808d019190915261ffff7e01000000000000000000000000000000000000000000000000000000000000998a900481166080808f01919091528e519c8d018f52600154998a16808e52978a048516958d0186905278010000000000000000000000000000000000000000000000008a0485169e8d019e909e52918804909216918a01919091529590940490941697860197909752915192958693849384936136909284921690613444565b9299509095509350915074ffffffffffffffffffffffffffffffffffffffffff8711806136d1575074ffffffffffffffffffffffffffffffffffffffffff84115b1561370c576040517fc82fc46500000000000000000000000000000000000000000000000000000000815261ebc360048201526024016110eb565b8551608087015174ffffffffffffffffffffffffffffffffffffffffff9091169061ffff1689158015613747575080613745838b613a9a565b105b801561375b5750806137598488613a9a565b105b15613796576040517fc82fc46500000000000000000000000000000000000000000000000000000000815261ebc160048201526024016110eb565b84156137c6576040517fc563dbff0ec97fb0e0d8866b34100ce38af7fea1274967ce2211982755a29c9590600090a15b831561384357600086620f42406137dd8c83613fe4565b6137e79190613f37565b6137f19190613f90565b9050876040015162ffffff168111806138125750876060015162ffffff1681115b15613841576040517f01ebab6ce2fe9f982f6eef886119aad8adbd80d7c749b21283693d529521802190600090a15b505b64ffffffffff4216602089015274ffffffffffffffffffffffffffffffffffffffffff8916885284613876576000613879565b60025b84613885576000613888565b60015b60408a01805160fc16919091179190911760ff169081905288516000805460208c015160608d015160808e015174ffffffffffffffffffffffffffffffffffffffffff9095167fffffffffffff000000000000000000000000000000000000000000000000000090931692909217750100000000000000000000000000000000000000000064ffffffffff90921691909102177fffff00000000ffffffffffffffffffffffffffffffffffffffffffffffffffff167a0100000000000000000000000000000000000000000000000000009094027fffff000000ffffffffffffffffffffffffffffffffffffffffffffffffffffff16939093177b0100000000000000000000000000000000000000000000000000000062ffffff90941693909302929092177dffffffffffffffffffffffffffffffffffffffffffffffffffffffffffff167e0100000000000000000000000000000000000000000000000000000000000061ffff9092169190910217905585831015613a4557600180547fffffffffffffffffffffff0000000000000000000000000000000000000000001674ffffffffffffffffffffffffffffffffffffffffff88161790555b60408051838152602081018b9052908101849052606081018790527fa1d5e40f5a547f5719e968be1b8da9984c1d3e2c08737e31f4bacc9640c4ea359060800160405180910390a15050505050505050919050565b600081831115613ac25782620f42408385030281613aba57613aba613f61565b04905061353e565b8282111561353e5782620f42408484030281613ae057613ae0613f61565b049392505050565b606060005b602081108015613b5357507f00000000000000000000000000000000000000000000000000000000000000008160208110613b2a57613b2a613ff7565b1a60f81b7fff000000000000000000000000000000000000000000000000000000000000001615155b15613b6a5780613b6281614026565b915050613aed565b60008167ffffffffffffffff811115613b8557613b8561405e565b6040519080825280601f01601f191660200182016040528015613baf576020820181803683370190505b50905060005b82811015613c46577f00000000000000000000000000000000000000000000000000000000000000008160208110613bef57613bef613ff7565b1a60f81b828281518110613c0557613c05613ff7565b60200101907effffffffffffffffffffffffffffffffffffffffffffffffffffffffffffff1916908160001a90535080613c3e81614026565b915050613bb5565b5092915050565b600081600003613c5f57506000919050565b7f0000000000000000000000000000000000000000000000000000000000000000613c8a578161353e565b81760a70c3c40a64e6c51999090b65f67d924000000000000081613cb057613cb0613f61565b0492915050565b6040517f75a85ef50000000000000000000000000000000000000000000000000000000081526b033b2e3c9fd0803ce800000060048201526000907f000000000000000000000000000000000000000000000000000000000000000073ffffffffffffffffffffffffffffffffffffffff16906375a85ef590602401606060405180830381865afa158015613d50573d6000803e3d6000fd5b505050506040513d601f19601f82011682018060405250810190613d74919061408d565b509092915050565b60006301e13380834203606484020281613d9857613d98613f61565b620f424091900481018502049050808511613dbf5783851015613dbc575082613dbf565b50835b949350505050565b73ffffffffffffffffffffffffffffffffffffffff8d8116825261ffff8d16602083015262ffffff8c16604083015264ffffffffff8b1660608301528916608082015287151560a082015286151560c0820152610180810186151560e083015285610100830152613e4061012083018662ffffff169052565b62ffffff9390931661014082015261016001529a9950505050505050505050565b600060208284031215613e7357600080fd5b813580151581146134f257600080fd5b600060208284031215613e9557600080fd5b5035919050565b600060208083528351808285015260005b81811015613ec957858101830151858201604001528201613ead565b5060006040828601015260407fffffffffffffffffffffffffffffffffffffffffffffffffffffffffffffffe0601f8301168501019250505092915050565b7f4e487b7100000000000000000000000000000000000000000000000000000000600052601160045260246000fd5b808202811582820484141761353e5761353e613f08565b8082018082111561353e5761353e613f08565b7f4e487b7100000000000000000000000000000000000000000000000000000000600052601260045260246000fd5b600082613fc6577f4e487b7100000000000000000000000000000000000000000000000000000000600052601260045260246000fd5b500490565b600060208284031215613fdd57600080fd5b5051919050565b8181038181111561353e5761353e613f08565b7f4e487b7100000000000000000000000000000000000000000000000000000000600052603260045260246000fd5b60007fffffffffffffffffffffffffffffffffffffffffffffffffffffffffffffffff820361405757614057613f08565b5060010190565b7f4e487b7100000000000000000000000000000000000000000000000000000000600052604160045260246000fd5b6000806000606084860312156140a257600080fd5b835192506020840151915060408401519050925092509256fea264697066735822122025d9ab758389eaec4d890827753d7c614ba4f44faccae57df6b6dda689361e7a64736f6c63430008150033"
}