{
  "address": "0xE91f7bA9Ae4Ad505d5c5e2f8A493854e109B4AE7",
  "abi": [
    {
      "inputs": [
        {
          "internalType": "address",
          "name": "owner_",
          "type": "address"
        },
        {
          "internalType": "address",
          "name": "fla_",
          "type": "address"
        },
        {
          "internalType": "address",
          "name": "weth_",
          "type": "address"
        },
        {
          "internalType": "address[]",
          "name": "rebalancers_",
          "type": "address[]"
        }
      ],
      "stateMutability": "nonpayable",
      "type": "constructor"
    },
    {
      "inputs": [],
      "name": "FluidVaultT1Liquidator__InvalidOperation",
      "type": "error"
    },
    {
      "anonymous": false,
      "inputs": [
        {
          "indexed": true,
          "internalType": "address",
          "name": "vault",
          "type": "address"
        },
        {
          "indexed": false,
          "internalType": "uint256",
          "name": "collateral",
          "type": "uint256"
        },
        {
          "indexed": false,
          "internalType": "uint256",
          "name": "debt",
          "type": "uint256"
        }
      ],
      "name": "Liquidated",
      "type": "event"
    },
    {
      "anonymous": false,
      "inputs": [
        {
          "indexed": true,
          "internalType": "address",
          "name": "user",
          "type": "address"
        },
        {
          "indexed": true,
          "internalType": "address",
          "name": "newOwner",
          "type": "address"
        }
      ],
      "name": "OwnershipTransferred",
      "type": "event"
    },
    {
      "anonymous": false,
      "inputs": [
        {
          "indexed": true,
          "internalType": "address",
          "name": "rebalancer",
          "type": "address"
        },
        {
          "indexed": true,
          "internalType": "bool",
          "name": "status",
          "type": "bool"
        }
      ],
      "name": "ToggleRebalancer",
      "type": "event"
    },
    {
      "anonymous": false,
      "inputs": [
        {
          "indexed": true,
          "internalType": "address",
          "name": "to",
          "type": "address"
        },
        {
          "indexed": true,
          "internalType": "address",
          "name": "token",
          "type": "address"
        },
        {
          "indexed": false,
          "internalType": "uint256",
          "name": "amount",
          "type": "uint256"
        }
      ],
      "name": "Withdraw",
      "type": "event"
    },
    {
      "inputs": [],
      "name": "ETH_ADDRESS",
      "outputs": [
        {
          "internalType": "address",
          "name": "",
          "type": "address"
        }
      ],
      "stateMutability": "view",
      "type": "function"
    },
    {
      "inputs": [],
      "name": "FLA",
      "outputs": [
        {
          "internalType": "contract InstaFlashInterface",
          "name": "",
          "type": "address"
        }
      ],
      "stateMutability": "view",
      "type": "function"
    },
    {
      "inputs": [],
      "name": "WETH",
      "outputs": [
        {
          "internalType": "contract IWETH9",
          "name": "",
          "type": "address"
        }
      ],
      "stateMutability": "view",
      "type": "function"
    },
    {
      "inputs": [
        {
          "internalType": "address[]",
          "name": "assets",
          "type": "address[]"
        },
        {
          "internalType": "uint256[]",
          "name": "amounts",
          "type": "uint256[]"
        },
        {
          "internalType": "uint256[]",
          "name": "premiums",
          "type": "uint256[]"
        },
        {
          "internalType": "address",
          "name": "initiator",
          "type": "address"
        },
        {
          "internalType": "bytes",
          "name": "_data",
          "type": "bytes"
        }
      ],
      "name": "executeOperation",
      "outputs": [
        {
          "internalType": "bool",
          "name": "",
          "type": "bool"
        }
      ],
      "stateMutability": "nonpayable",
      "type": "function"
    },
    {
      "inputs": [
        {
          "components": [
            {
              "internalType": "address",
              "name": "vault",
              "type": "address"
            },
            {
              "internalType": "address",
              "name": "supply",
              "type": "address"
            },
            {
              "internalType": "address",
              "name": "borrow",
              "type": "address"
            },
            {
              "internalType": "uint256",
              "name": "supplyAmount",
              "type": "uint256"
            },
            {
              "internalType": "uint256",
              "name": "borrowAmount",
              "type": "uint256"
            },
            {
              "internalType": "uint256",
              "name": "colPerUnitDebt",
              "type": "uint256"
            },
            {
              "internalType": "bool",
              "name": "absorb",
              "type": "bool"
            },
            {
              "internalType": "address",
              "name": "swapRouter",
              "type": "address"
            },
            {
              "internalType": "address",
              "name": "swapApproval",
              "type": "address"
            },
            {
              "internalType": "bytes",
              "name": "swapData",
              "type": "bytes"
            },
            {
              "internalType": "uint256",
              "name": "route",
              "type": "uint256"
            }
          ],
          "internalType": "struct VaultT1Liquidator.LiquidationParams",
          "name": "params_",
          "type": "tuple"
        }
      ],
      "name": "liquidation",
      "outputs": [],
      "stateMutability": "nonpayable",
      "type": "function"
    },
    {
      "inputs": [],
      "name": "owner",
      "outputs": [
        {
          "internalType": "address",
          "name": "",
          "type": "address"
        }
      ],
      "stateMutability": "view",
      "type": "function"
    },
    {
      "inputs": [
        {
          "internalType": "address",
          "name": "",
          "type": "address"
        }
      ],
      "name": "rebalancer",
      "outputs": [
        {
          "internalType": "bool",
          "name": "",
          "type": "bool"
        }
      ],
      "stateMutability": "view",
      "type": "function"
    },
    {
      "inputs": [
        {
          "internalType": "address[]",
          "name": "targets_",
          "type": "address[]"
        },
        {
          "internalType": "bytes[]",
          "name": "calldatas_",
          "type": "bytes[]"
        }
      ],
      "name": "spell",
      "outputs": [],
      "stateMutability": "nonpayable",
      "type": "function"
    },
    {
      "inputs": [
        {
          "internalType": "address",
          "name": "rebalancer_",
          "type": "address"
        },
        {
          "internalType": "bool",
          "name": "status_",
          "type": "bool"
        }
      ],
      "name": "toggleRebalancer",
      "outputs": [],
      "stateMutability": "nonpayable",
      "type": "function"
    },
    {
      "inputs": [
        {
          "internalType": "address",
          "name": "newOwner",
          "type": "address"
        }
      ],
      "name": "transferOwnership",
      "outputs": [],
      "stateMutability": "nonpayable",
      "type": "function"
    },
    {
      "inputs": [
        {
          "internalType": "address",
          "name": "to_",
          "type": "address"
        },
        {
          "internalType": "address[]",
          "name": "tokens_",
          "type": "address[]"
        },
        {
          "internalType": "uint256[]",
          "name": "amounts_",
          "type": "uint256[]"
        }
      ],
      "name": "withdraw",
      "outputs": [],
      "stateMutability": "nonpayable",
      "type": "function"
    },
    {
      "stateMutability": "payable",
      "type": "receive"
    }
  ],
  "transactionHash": "0xd42d99522517081378d8f255c8a2dc2bfad83fb39e9cf5ea1834c9f7950a777a",
  "args": [
    "0x9800020b610194dBa52CF606E8Aa142F9F256166",
    "0x352423e2fA5D5c99343d371C9e3bC56C87723Cc7",
    "0x0d500b1d8e8ef31e21c99d1db9a6444d3adf1270",
    [
      "0x3BE5C671b20649DCA5D916b5698328D54BdAAf88",
      "0xb287f8A01a9538656c72Fa6aE1EE0117A187Be0C",
      "0xAb957B471b22d307AC5fbB3FCcD4191433B2AA62"
    ]
  ],
  "numDeployments": 1,
  "solcInputHash": "4f63da12d66a256eeca1b26617ce10fe",
  "bytecode": "0x60c06040523480156200001157600080fd5b50604051620025c2380380620025c283398101604081905262000034916200019f565b600080546001600160a01b0319166001600160a01b03861690811782556040518692907f8be0079c531659141344cd1fd0a4f28419497f9722a3daafe3b4186f6b6457e0908290a3506001600160a01b03808416608052821660a05260005b815181101562000161576001806000848481518110620000b757620000b7620002aa565b60200260200101516001600160a01b03166001600160a01b0316815260200190815260200160002060006101000a81548160ff021916908315150217905550600115158282815181106200010f576200010f620002aa565b60200260200101516001600160a01b03167fd74bdcde9b66b7d08a366a43b11a78f3c8307dfeeb0a7741005200bfedfe933f60405160405180910390a3806200015881620002c0565b91505062000093565b5050505050620002e8565b80516001600160a01b03811681146200018457600080fd5b919050565b634e487b7160e01b600052604160045260246000fd5b60008060008060808587031215620001b657600080fd5b620001c1856200016c565b93506020620001d28187016200016c565b9350620001e2604087016200016c565b60608701519093506001600160401b03808211156200020057600080fd5b818801915088601f8301126200021557600080fd5b8151818111156200022a576200022a62000189565b8060051b604051601f19603f8301168101818110858211171562000252576200025262000189565b60405291825284820192508381018501918b8311156200027157600080fd5b938501935b828510156200029a576200028a856200016c565b8452938501939285019262000276565b989b979a50959850505050505050565b634e487b7160e01b600052603260045260246000fd5b600060018201620002e157634e487b7160e01b600052601160045260246000fd5b5060010190565b60805160a05161228a62000338600039600081816102330152818161064e015281816109a901528181610a4a0152610f26015260008181610145015281816104b50152611047015261228a6000f3fe6080604052600436106100c05760003560e01c8063920f5c8411610074578063edbd76681161004e578063edbd766814610255578063f2fde38b14610275578063fd826f601461029557600080fd5b8063920f5c84146101d9578063a734f06e146101f9578063ad5c46481461022157600080fd5b806376ca658a116100a557806376ca658a1461013357806382bc4aaf1461018c5780638da5cb5b146101ac57600080fd5b806329e31bdd146100cc5780633f221521146100ee57600080fd5b366100c757005b600080fd5b3480156100d857600080fd5b506100ec6100e736600461187b565b6102b5565b005b3480156100fa57600080fd5b5061011e6101093660046118b2565b60016020526000908152604090205460ff1681565b60405190151581526020015b60405180910390f35b34801561013f57600080fd5b506101677f000000000000000000000000000000000000000000000000000000000000000081565b60405173ffffffffffffffffffffffffffffffffffffffff909116815260200161012a565b34801561019857600080fd5b506100ec6101a7366004611a99565b6103ba565b3480156101b857600080fd5b506000546101679073ffffffffffffffffffffffffffffffffffffffff1681565b3480156101e557600080fd5b5061011e6101f4366004611bba565b61049b565b34801561020557600080fd5b5061016773eeeeeeeeeeeeeeeeeeeeeeeeeeeeeeeeeeeeeeee81565b34801561022d57600080fd5b506101677f000000000000000000000000000000000000000000000000000000000000000081565b34801561026157600080fd5b506100ec610270366004611cbe565b610b1c565b34801561028157600080fd5b506100ec6102903660046118b2565b610d3f565b3480156102a157600080fd5b506100ec6102b0366004611d88565b610e30565b60005473ffffffffffffffffffffffffffffffffffffffff16331461033b576040517f08c379a000000000000000000000000000000000000000000000000000000000815260206004820152600c60248201527f554e415554484f52495a4544000000000000000000000000000000000000000060448201526064015b60405180910390fd5b73ffffffffffffffffffffffffffffffffffffffff821660008181526001602052604080822080547fffffffffffffffffffffffffffffffffffffffffffffffffffffffffffffff001685151590811790915590519092917fd74bdcde9b66b7d08a366a43b11a78f3c8307dfeeb0a7741005200bfedfe933f91a35050565b60005473ffffffffffffffffffffffffffffffffffffffff16331461043b576040517f08c379a000000000000000000000000000000000000000000000000000000000815260206004820152600c60248201527f554e415554484f52495a454400000000000000000000000000000000000000006044820152606401610332565b60005b82518110156104965761048383828151811061045c5761045c611e8c565b602002602001015183838151811061047657610476611e8c565b60200260200101516110b9565b508061048e81611eea565b91505061043e565b505050565b60003373ffffffffffffffffffffffffffffffffffffffff7f0000000000000000000000000000000000000000000000000000000000000000161461050c576040517f74bf188c00000000000000000000000000000000000000000000000000000000815260040160405180910390fd5b73ffffffffffffffffffffffffffffffffffffffff8416301461055b576040517f74bf188c00000000000000000000000000000000000000000000000000000000815260040160405180910390fd5b600061056983850185611d88565b9050600073eeeeeeeeeeeeeeeeeeeeeeeeeeeeeeeeeeeeeeee73ffffffffffffffffffffffffffffffffffffffff16826040015173ffffffffffffffffffffffffffffffffffffffff161461061957815160408301516105e39173ffffffffffffffffffffffffffffffffffffffff9091169060006110e7565b8151608083015160408401516106119273ffffffffffffffffffffffffffffffffffffffff909116916110e7565b5060006106c7565b60808201516040517f2e1a7d4d00000000000000000000000000000000000000000000000000000000815260048101919091527f000000000000000000000000000000000000000000000000000000000000000073ffffffffffffffffffffffffffffffffffffffff1690632e1a7d4d90602401600060405180830381600087803b1580156106a757600080fd5b505af11580156106bb573d6000803e3d6000fd5b50505050816080015190505b8151608083015160a084015160c08501516040517f8433ea220000000000000000000000000000000000000000000000000000000081526004810193909352602483019190915230604483015215156064820152600091829173ffffffffffffffffffffffffffffffffffffffff90911690638433ea22908590608401604080518083038185885af1158015610761573d6000803e3d6000fd5b50505050506040513d601f19601f820116820180604052508101906107869190611f22565b6020860151919350915073ffffffffffffffffffffffffffffffffffffffff1673eeeeeeeeeeeeeeeeeeeeeeeeeeeeeeeeeeeeeeee14610836576107f58461010001516000866020015173ffffffffffffffffffffffffffffffffffffffff166110e79092919063ffffffff16565b61082d8461010001518560600151866020015173ffffffffffffffffffffffffffffffffffffffff166110e79092919063ffffffff16565b6000925061083e565b836060015192505b6108888460e00151856101200151856040518060400160405280600c81526020017f537761703a206661696c656400000000000000000000000000000000000000008152506112e7565b508351604080518381526020810185905273ffffffffffffffffffffffffffffffffffffffff909216917f09c223cfcd8c93e245f558f5f8de755fc0930fd9bc257441155ef5d54a170e0f910160405180910390a25050506000878760008181106108f5576108f5611e8c565b905060200201358a8a600081811061090f5761090f611e8c565b905060200201356109209190611f46565b61092b90600a611f46565b905073eeeeeeeeeeeeeeeeeeeeeeeeeeeeeeeeeeeeeeee73ffffffffffffffffffffffffffffffffffffffff16826040015173ffffffffffffffffffffffffffffffffffffffff1603610ac0576040517f70a082310000000000000000000000000000000000000000000000000000000081523060048201526000907f000000000000000000000000000000000000000000000000000000000000000073ffffffffffffffffffffffffffffffffffffffff16906370a0823190602401602060405180830381865afa158015610a05573d6000803e3d6000fd5b505050506040513d601f19601f82011682018060405250810190610a299190611f59565b905081811015610abe5773ffffffffffffffffffffffffffffffffffffffff7f00000000000000000000000000000000000000000000000000000000000000001663d0e30db0610a798385611f72565b6040518263ffffffff1660e01b81526004016000604051808303818588803b158015610aa457600080fd5b505af1158015610ab8573d6000803e3d6000fd5b50505050505b505b610b0a33828e8e6000818110610ad857610ad8611e8c565b9050602002016020810190610aed91906118b2565b73ffffffffffffffffffffffffffffffffffffffff169190611402565b5060019b9a5050505050505050505050565b60005473ffffffffffffffffffffffffffffffffffffffff163314610b9d576040517f08c379a000000000000000000000000000000000000000000000000000000000815260206004820152600c60248201527f554e415554484f52495a454400000000000000000000000000000000000000006044820152606401610332565b60005b8251811015610d395773eeeeeeeeeeeeeeeeeeeeeeeeeeeeeeeeeeeeeeee73ffffffffffffffffffffffffffffffffffffffff16838281518110610be657610be6611e8c565b602002602001015173ffffffffffffffffffffffffffffffffffffffff1603610c3157610c2c84838381518110610c1f57610c1f611e8c565b6020026020010151611458565b610c8e565b610c8e84838381518110610c4757610c47611e8c565b6020026020010151858481518110610c6157610c61611e8c565b602002602001015173ffffffffffffffffffffffffffffffffffffffff166114029092919063ffffffff16565b828181518110610ca057610ca0611e8c565b602002602001015173ffffffffffffffffffffffffffffffffffffffff168473ffffffffffffffffffffffffffffffffffffffff167f9b1bfa7fa9ee420a16e124f794c35ac9f90472acc99140eb2f6447c714cad8eb848481518110610d0857610d08611e8c565b6020026020010151604051610d1f91815260200190565b60405180910390a380610d3181611eea565b915050610ba0565b50505050565b60005473ffffffffffffffffffffffffffffffffffffffff163314610dc0576040517f08c379a000000000000000000000000000000000000000000000000000000000815260206004820152600c60248201527f554e415554484f52495a454400000000000000000000000000000000000000006044820152606401610332565b600080547fffffffffffffffffffffffff00000000000000000000000000000000000000001673ffffffffffffffffffffffffffffffffffffffff83169081178255604051909133917f8be0079c531659141344cd1fd0a4f28419497f9722a3daafe3b4186f6b6457e09190a350565b3360009081526001602052604090205460ff16158015610e68575060005473ffffffffffffffffffffffffffffffffffffffff163314155b15610e9f576040517f74bf188c00000000000000000000000000000000000000000000000000000000815260040160405180910390fd5b60408051600180825281830190925260009160208083019080368337505060408051600180825281830190925292935060009291506020808301908036833701905050604084015190915073ffffffffffffffffffffffffffffffffffffffff1673eeeeeeeeeeeeeeeeeeeeeeeeeeeeeeeeeeeeeeee14610f24578260400151610f46565b7f00000000000000000000000000000000000000000000000000000000000000005b82600081518110610f5957610f59611e8c565b602002602001019073ffffffffffffffffffffffffffffffffffffffff16908173ffffffffffffffffffffffffffffffffffffffff1681525050826080015181600081518110610fab57610fab611e8c565b602002602001018181525050600083604051602001610fca9190611ff3565b604080517fffffffffffffffffffffffffffffffffffffffffffffffffffffffffffffffe08184030181528282526101408701516000845260208401928390527f095627e900000000000000000000000000000000000000000000000000000000909252925073ffffffffffffffffffffffffffffffffffffffff7f0000000000000000000000000000000000000000000000000000000000000000169163095627e991611081918791879187906024810161211a565b600060405180830381600087803b15801561109b57600080fd5b505af11580156110af573d6000803e3d6000fd5b5050505050505050565b60606110de838360405180606001604052806027815260200161222e602791396115b2565b90505b92915050565b80158061118757506040517fdd62ed3e00000000000000000000000000000000000000000000000000000000815230600482015273ffffffffffffffffffffffffffffffffffffffff838116602483015284169063dd62ed3e90604401602060405180830381865afa158015611161573d6000803e3d6000fd5b505050506040513d601f19601f820116820180604052508101906111859190611f59565b155b611213576040517f08c379a000000000000000000000000000000000000000000000000000000000815260206004820152603660248201527f5361666545524332303a20617070726f76652066726f6d206e6f6e2d7a65726f60448201527f20746f206e6f6e2d7a65726f20616c6c6f77616e6365000000000000000000006064820152608401610332565b60405173ffffffffffffffffffffffffffffffffffffffff83166024820152604481018290526104969084907f095ea7b300000000000000000000000000000000000000000000000000000000906064015b604080517fffffffffffffffffffffffffffffffffffffffffffffffffffffffffffffffe08184030181529190526020810180517bffffffffffffffffffffffffffffffffffffffffffffffffffffffff167fffffffff0000000000000000000000000000000000000000000000000000000090931692909217909152611637565b606082471015611379576040517f08c379a000000000000000000000000000000000000000000000000000000000815260206004820152602660248201527f416464726573733a20696e73756666696369656e742062616c616e636520666f60448201527f722063616c6c00000000000000000000000000000000000000000000000000006064820152608401610332565b6000808673ffffffffffffffffffffffffffffffffffffffff1685876040516113a291906121da565b60006040518083038185875af1925050503d80600081146113df576040519150601f19603f3d011682016040523d82523d6000602084013e6113e4565b606091505b50915091506113f587838387611743565b925050505b949350505050565b60405173ffffffffffffffffffffffffffffffffffffffff83166024820152604481018290526104969084907fa9059cbb0000000000000000000000000000000000000000000000000000000090606401611265565b804710156114c2576040517f08c379a000000000000000000000000000000000000000000000000000000000815260206004820152601d60248201527f416464726573733a20696e73756666696369656e742062616c616e63650000006044820152606401610332565b60008273ffffffffffffffffffffffffffffffffffffffff168260405160006040518083038185875af1925050503d806000811461151c576040519150601f19603f3d011682016040523d82523d6000602084013e611521565b606091505b5050905080610496576040517f08c379a000000000000000000000000000000000000000000000000000000000815260206004820152603a60248201527f416464726573733a20756e61626c6520746f2073656e642076616c75652c207260448201527f6563697069656e74206d617920686176652072657665727465640000000000006064820152608401610332565b60606000808573ffffffffffffffffffffffffffffffffffffffff16856040516115dc91906121da565b600060405180830381855af49150503d8060008114611617576040519150601f19603f3d011682016040523d82523d6000602084013e61161c565b606091505b509150915061162d86838387611743565b9695505050505050565b6000611699826040518060400160405280602081526020017f5361666545524332303a206c6f772d6c6576656c2063616c6c206661696c65648152508573ffffffffffffffffffffffffffffffffffffffff166117e39092919063ffffffff16565b80519091501561049657808060200190518101906116b791906121f6565b610496576040517f08c379a000000000000000000000000000000000000000000000000000000000815260206004820152602a60248201527f5361666545524332303a204552433230206f7065726174696f6e20646964206e60448201527f6f742073756363656564000000000000000000000000000000000000000000006064820152608401610332565b606083156117d95782516000036117d25773ffffffffffffffffffffffffffffffffffffffff85163b6117d2576040517f08c379a000000000000000000000000000000000000000000000000000000000815260206004820152601d60248201527f416464726573733a2063616c6c20746f206e6f6e2d636f6e74726163740000006044820152606401610332565b50816113fa565b6113fa83836117f2565b60606113fa84846000856112e7565b8151156118025781518083602001fd5b806040517f08c379a0000000000000000000000000000000000000000000000000000000008152600401610332919061221a565b803573ffffffffffffffffffffffffffffffffffffffff8116811461185a57600080fd5b919050565b801515811461186d57600080fd5b50565b803561185a8161185f565b6000806040838503121561188e57600080fd5b61189783611836565b915060208301356118a78161185f565b809150509250929050565b6000602082840312156118c457600080fd5b6110de82611836565b7f4e487b7100000000000000000000000000000000000000000000000000000000600052604160045260246000fd5b604051610160810167ffffffffffffffff81118282101715611920576119206118cd565b60405290565b604051601f82017fffffffffffffffffffffffffffffffffffffffffffffffffffffffffffffffe016810167ffffffffffffffff8111828210171561196d5761196d6118cd565b604052919050565b600067ffffffffffffffff82111561198f5761198f6118cd565b5060051b60200190565b600082601f8301126119aa57600080fd5b813560206119bf6119ba83611975565b611926565b82815260059290921b840181019181810190868411156119de57600080fd5b8286015b84811015611a00576119f381611836565b83529183019183016119e2565b509695505050505050565b600082601f830112611a1c57600080fd5b813567ffffffffffffffff811115611a3657611a366118cd565b611a6760207fffffffffffffffffffffffffffffffffffffffffffffffffffffffffffffffe0601f84011601611926565b818152846020838601011115611a7c57600080fd5b816020850160208301376000918101602001919091529392505050565b60008060408385031215611aac57600080fd5b823567ffffffffffffffff80821115611ac457600080fd5b611ad086838701611999565b9350602091508185013581811115611ae757600080fd5b8501601f81018713611af857600080fd5b8035611b066119ba82611975565b81815260059190911b82018401908481019089831115611b2557600080fd5b8584015b83811015611b5d57803586811115611b415760008081fd5b611b4f8c8983890101611a0b565b845250918601918601611b29565b508096505050505050509250929050565b60008083601f840112611b8057600080fd5b50813567ffffffffffffffff811115611b9857600080fd5b6020830191508360208260051b8501011115611bb357600080fd5b9250929050565b600080600080600080600080600060a08a8c031215611bd857600080fd5b893567ffffffffffffffff80821115611bf057600080fd5b611bfc8d838e01611b6e565b909b50995060208c0135915080821115611c1557600080fd5b611c218d838e01611b6e565b909950975060408c0135915080821115611c3a57600080fd5b611c468d838e01611b6e565b9097509550859150611c5a60608d01611836565b945060808c0135915080821115611c7057600080fd5b818c0191508c601f830112611c8457600080fd5b813581811115611c9357600080fd5b8d6020828501011115611ca557600080fd5b6020830194508093505050509295985092959850929598565b600080600060608486031215611cd357600080fd5b611cdc84611836565b925060208085013567ffffffffffffffff80821115611cfa57600080fd5b611d0688838901611999565b94506040870135915080821115611d1c57600080fd5b508501601f81018713611d2e57600080fd5b8035611d3c6119ba82611975565b81815260059190911b82018301908381019089831115611d5b57600080fd5b928401925b82841015611d7957833582529284019290840190611d60565b80955050505050509250925092565b600060208284031215611d9a57600080fd5b813567ffffffffffffffff80821115611db257600080fd5b908301906101608286031215611dc757600080fd5b611dcf6118fc565b611dd883611836565b8152611de660208401611836565b6020820152611df760408401611836565b6040820152606083013560608201526080830135608082015260a083013560a0820152611e2660c08401611870565b60c0820152611e3760e08401611836565b60e0820152610100611e4a818501611836565b908201526101208381013583811115611e6257600080fd5b611e6e88828701611a0b565b91830191909152506101409283013592810192909252509392505050565b7f4e487b7100000000000000000000000000000000000000000000000000000000600052603260045260246000fd5b7f4e487b7100000000000000000000000000000000000000000000000000000000600052601160045260246000fd5b60007fffffffffffffffffffffffffffffffffffffffffffffffffffffffffffffffff8203611f1b57611f1b611ebb565b5060010190565b60008060408385031215611f3557600080fd5b505080516020909101519092909150565b808201808211156110e1576110e1611ebb565b600060208284031215611f6b57600080fd5b5051919050565b818103818111156110e1576110e1611ebb565b60005b83811015611fa0578181015183820152602001611f88565b50506000910152565b60008151808452611fc1816020860160208601611f85565b601f017fffffffffffffffffffffffffffffffffffffffffffffffffffffffffffffffe0169290920160200192915050565b6020815261201a60208201835173ffffffffffffffffffffffffffffffffffffffff169052565b60006020830151612043604084018273ffffffffffffffffffffffffffffffffffffffff169052565b50604083015173ffffffffffffffffffffffffffffffffffffffff811660608401525060608301516080830152608083015160a083015260a083015160c083015260c083015161209760e084018215159052565b5060e08301516101006120c18185018373ffffffffffffffffffffffffffffffffffffffff169052565b84015190506101206120ea8482018373ffffffffffffffffffffffffffffffffffffffff169052565b80850151915050610160610140818186015261210a610180860184611fa9565b9501519301929092525090919050565b60a0808252865190820181905260009060209060c0840190828a01845b8281101561216957815173ffffffffffffffffffffffffffffffffffffffff1684529284019290840190600101612137565b5050508381038285015287518082528883019183019060005b8181101561219e57835183529284019291840191600101612182565b505087604086015284810360608601526121b88188611fa9565b9250505082810360808401526121ce8185611fa9565b98975050505050505050565b600082516121ec818460208701611f85565b9190910192915050565b60006020828403121561220857600080fd5b81516122138161185f565b9392505050565b6020815260006110de6020830184611fa956fe416464726573733a206c6f772d6c6576656c2064656c65676174652063616c6c206661696c6564a2646970667358221220dd20179d1bd3ba18d90f215e7480f7b0c976467032e2d8ab161203dab044a33b64736f6c63430008150033",
  "devdoc": {
    "kind": "dev",
    "methods": {},
    "version": 1
  },
  "userdoc": {
    "kind": "user",
    "methods": {},
    "version": 1
  },
  "storageLayout": {
    "storage": [
      {
        "astId": 134663,
        "contract": "contracts/periphery/liquidation/main.sol:VaultT1Liquidator",
        "label": "owner",
        "offset": 0,
        "slot": "0",
        "type": "t_address"
      },
      {
        "astId": 42552,
        "contract": "contracts/periphery/liquidation/main.sol:VaultT1Liquidator",
        "label": "rebalancer",
        "offset": 0,
        "slot": "1",
        "type": "t_mapping(t_address,t_bool)"
      }
    ],
    "types": {
      "t_address": {
        "encoding": "inplace",
        "label": "address",
        "numberOfBytes": "20"
      },
      "t_bool": {
        "encoding": "inplace",
        "label": "bool",
        "numberOfBytes": "1"
      },
      "t_mapping(t_address,t_bool)": {
        "encoding": "mapping",
        "key": "t_address",
        "label": "mapping(address => bool)",
        "numberOfBytes": "32",
        "value": "t_bool"
      }
    }
  }
}