{
  "address": "0xfecF110AeE99c9972A3214CbA4822E9Df5e92309",
  "abi": [
    {
      "inputs": [
        {
          "components": [
            {
              "internalType": "string",
              "name": "infoName",
              "type": "string"
            },
            {
              "internalType": "uint8",
              "name": "targetDecimals",
              "type": "uint8"
            },
            {
              "internalType": "address",
              "name": "dexPool",
              "type": "address"
            },
            {
              "internalType": "bool",
              "name": "quoteInToken0",
              "type": "bool"
            },
            {
              "internalType": "uint256",
              "name": "pegBufferPercent",
              "type": "uint256"
            },
            {
              "components": [
                {
                  "internalType": "address",
                  "name": "reservesConversionOracle",
                  "type": "address"
                },
                {
                  "internalType": "bool",
                  "name": "reservesConversionInvert",
                  "type": "bool"
                },
                {
                  "internalType": "uint256",
                  "name": "reservesConversionPriceMultiplier",
                  "type": "uint256"
                },
                {
                  "internalType": "uint256",
                  "name": "reservesConversionPriceDivisor",
                  "type": "uint256"
                }
              ],
              "internalType": "struct DexConversionPriceFluidOracle.DexConversionPriceFluidOracleParams",
              "name": "reservesConversionParams",
              "type": "tuple"
            },
            {
              "internalType": "uint256",
              "name": "resultMultiplier",
              "type": "uint256"
            },
            {
              "internalType": "uint256",
              "name": "resultDivisor",
              "type": "uint256"
            }
          ],
          "internalType": "struct DexSmartT4PegOracle.DexSmartT4PegOracleParams",
          "name": "params_",
          "type": "tuple"
        },
        {
          "internalType": "address",
          "name": "sequencerUptimeFeed_",
          "type": "address"
        }
      ],
      "stateMutability": "nonpayable",
      "type": "constructor"
    },
    {
      "inputs": [
        {
          "internalType": "uint256",
          "name": "errorId_",
          "type": "uint256"
        }
      ],
      "name": "FluidLiquidityCalcsError",
      "type": "error"
    },
    {
      "inputs": [
        {
          "internalType": "uint256",
          "name": "errorId_",
          "type": "uint256"
        }
      ],
      "name": "FluidOracleError",
      "type": "error"
    },
    {
      "inputs": [],
      "name": "RESERVES_PEG_BUFFER_PERCENT",
      "outputs": [
        {
          "internalType": "uint256",
          "name": "",
          "type": "uint256"
        }
      ],
      "stateMutability": "view",
      "type": "function"
    },
    {
      "inputs": [],
      "name": "dexOracleData",
      "outputs": [
        {
          "internalType": "address",
          "name": "dexPool_",
          "type": "address"
        },
        {
          "internalType": "bool",
          "name": "quoteInToken0_",
          "type": "bool"
        },
        {
          "internalType": "address",
          "name": "liquidity_",
          "type": "address"
        },
        {
          "internalType": "uint256",
          "name": "resultMultiplier_",
          "type": "uint256"
        },
        {
          "internalType": "uint256",
          "name": "resultDivisor_",
          "type": "uint256"
        }
      ],
      "stateMutability": "view",
      "type": "function"
    },
    {
      "inputs": [],
      "name": "dexSmartColSharesRates",
      "outputs": [
        {
          "internalType": "uint256",
          "name": "operate_",
          "type": "uint256"
        },
        {
          "internalType": "uint256",
          "name": "liquidate_",
          "type": "uint256"
        }
      ],
      "stateMutability": "view",
      "type": "function"
    },
    {
      "inputs": [],
      "name": "dexSmartDebtSharesRates",
      "outputs": [
        {
          "internalType": "uint256",
          "name": "operate_",
          "type": "uint256"
        },
        {
          "internalType": "uint256",
          "name": "liquidate_",
          "type": "uint256"
        }
      ],
      "stateMutability": "view",
      "type": "function"
    },
    {
      "inputs": [],
      "name": "getDexConversionPriceFluidOracleData",
      "outputs": [
        {
          "internalType": "address",
          "name": "reservesConversionOracle_",
          "type": "address"
        },
        {
          "internalType": "bool",
          "name": "reservesConversionInvert_",
          "type": "bool"
        },
        {
          "internalType": "uint256",
          "name": "reservesConversionPriceMultiplier_",
          "type": "uint256"
        },
        {
          "internalType": "uint256",
          "name": "reservesConversionPriceDivisor_",
          "type": "uint256"
        }
      ],
      "stateMutability": "view",
      "type": "function"
    },
    {
      "inputs": [],
      "name": "getExchangeRate",
      "outputs": [
        {
          "internalType": "uint256",
          "name": "exchangeRate_",
          "type": "uint256"
        }
      ],
      "stateMutability": "view",
      "type": "function"
    },
    {
      "inputs": [],
      "name": "getExchangeRateLiquidate",
      "outputs": [
        {
          "internalType": "uint256",
          "name": "exchangeRate_",
          "type": "uint256"
        }
      ],
      "stateMutability": "view",
      "type": "function"
    },
    {
      "inputs": [],
      "name": "getExchangeRateOperate",
      "outputs": [
        {
          "internalType": "uint256",
          "name": "exchangeRate_",
          "type": "uint256"
        }
      ],
      "stateMutability": "view",
      "type": "function"
    },
    {
      "inputs": [],
      "name": "infoName",
      "outputs": [
        {
          "internalType": "string",
          "name": "",
          "type": "string"
        }
      ],
      "stateMutability": "view",
      "type": "function"
    },
    {
      "inputs": [],
      "name": "sequencerL2Data",
      "outputs": [
        {
          "internalType": "address",
          "name": "sequencerUptimeFeed_",
          "type": "address"
        },
        {
          "internalType": "uint256",
          "name": "maxGracePeriod_",
          "type": "uint256"
        },
        {
          "internalType": "bool",
          "name": "isSequencerUp_",
          "type": "bool"
        },
        {
          "internalType": "uint256",
          "name": "lastUptimeStartedAt_",
          "type": "uint256"
        },
        {
          "internalType": "uint256",
          "name": "gracePeriod_",
          "type": "uint256"
        },
        {
          "internalType": "bool",
          "name": "gracePeriodPassed_",
          "type": "bool"
        },
        {
          "internalType": "uint256",
          "name": "lastOutageStartedAt_",
          "type": "uint256"
        },
        {
          "internalType": "bool",
          "name": "isSequencerUpAndValid_",
          "type": "bool"
        }
      ],
      "stateMutability": "view",
      "type": "function"
    },
    {
      "inputs": [],
      "name": "targetDecimals",
      "outputs": [
        {
          "internalType": "uint8",
          "name": "",
          "type": "uint8"
        }
      ],
      "stateMutability": "view",
      "type": "function"
    }
  ],
  "transactionHash": "0x5f246e9c4de7ac38d9fbf6d5438a14820cd69cc3fddf1b738a361558eff452c8",
  "args": [
    [
      {
        "dexPool": "0x667701e51B4D1Ca244F17C78F7aB8744B4C99F9B",
        "quoteInToken0": false,
        "infoName": "WSTETH/ETH dbtSh. per 1 colSh.",
        "targetDecimals": 27,
        "pegBufferPercent": 1000,
        "reservesConversionParams": {
          "reservesConversionOracle": "0x674d013BDdeaC692e285B7988283dAB79590A698",
          "reservesConversionInvert": false,
          "reservesConversionPriceMultiplier": 1,
          "reservesConversionPriceDivisor": 1
        },
        "resultMultiplier": 1,
        "resultDivisor": 1
      },
      "0xBCF85224fc0756B9Fa45aA7892530B47e10b6433"
    ]
  ],
  "numDeployments": 1,
  "linkedData": {
    "nonce": "28"
  },
  "bytecode": "0x6103806040523480156200001257600080fd5b50604051620027bc380380620027bc833981016040819052620000359162000629565b8180604001518160600151826080015182828560a001518282886000015189602001518b8b60c001518c60e001518160001462000073578162000076565b60015b60805280156200008757806200008a565b60015b60a05250506001600160a01b031660c052815160201080620000ab57508151155b15620000d35760405163c82fc46560e01b815261ea6a60048201526024015b60405180910390fd5b600f8160ff161080620000e9575060278160ff16115b156200010d5760405163c82fc46560e01b815261ebf16004820152602401620000ca565b60ff16610100526020015160e0526001600160a01b038216620001485760405163c82fc46560e01b815261ebdd6004820152602401620000ca565b6001600160a01b0382166101208190528115156101405260408051635bbc8df960e11b815290516000929163b7791bf2916004808301926102409291908290030181865afa1580156200019f573d6000803e3d6000fd5b505050506040513d601f19601f82011682018060405250810190620001c59190620007bc565b610160808201516101e052610180808301516102005260e0830151909152610120808301519091526101008201516101a0526101408201516101c0525160408051631595cbd360e01b815290519293506000926001600160a01b0390921691631595cbd3916004808201926080929091908290030181865afa15801562000250573d6000803e3d6000fd5b505050506040513d601f19601f82011682018060405250810190620002769190620008b2565b80516102205260208101516102405260408101516102605260600151610280525050610140519150620002e49050576102605161028051620002be9064e8d4a51000620008fb565b620002ca919062000927565b620002de90670de0b6b3a764000062000927565b6200031d565b6102205161024051620002fd9064e8d4a51000620008fb565b62000309919062000927565b6200031d90670de0b6b3a764000062000927565b6102a0526101405162000369576102605161028051620003439064e8d4a51000620008fb565b6200034f919062000927565b6200036390670de0b6b3a764000062000927565b620003a2565b6102205161024051620003829064e8d4a51000620008fb565b6200038e919062000927565b620003a290670de0b6b3a764000062000927565b6102c05260408101511580620003ba57506060810151155b15620003de5760405163c82fc46560e01b815261ebdd6004820152602401620000ca565b80516001600160a01b03166102e0526020810151151561030052604081015161032052606001516103405250506000819003620004335760405163c82fc46560e01b815261ebdd6004820152602401620000ca565b61036052506200094a9350505050565b634e487b7160e01b600052604160045260246000fd5b604051608081016001600160401b03811182821017156200047e576200047e62000443565b60405290565b60405161010081016001600160401b03811182821017156200047e576200047e62000443565b6040516101c081016001600160401b03811182821017156200047e576200047e62000443565b604051601f8201601f191681016001600160401b0381118282101715620004fb57620004fb62000443565b604052919050565b600082601f8301126200051557600080fd5b81516001600160401b0381111562000531576200053162000443565b602062000547601f8301601f19168201620004d0565b82815285828487010111156200055c57600080fd5b60005b838110156200057c5785810183015182820184015282016200055f565b506000928101909101919091529392505050565b805160ff81168114620005a257600080fd5b919050565b80516001600160a01b0381168114620005a257600080fd5b80518015158114620005a257600080fd5b600060808284031215620005e357600080fd5b620005ed62000459565b9050620005fa82620005a7565b81526200060a60208301620005bf565b6020820152604082015160408201526060820151606082015292915050565b600080604083850312156200063d57600080fd5b82516001600160401b03808211156200065557600080fd5b9084019061016082870312156200066b57600080fd5b6200067562000484565b8251828111156200068557600080fd5b620006938882860162000503565b825250620006a46020840162000590565b6020820152620006b760408401620005a7565b6040820152620006ca60608401620005bf565b606082015260808301516080820152620006e88760a08501620005d0565b60a082015261012083015160c08201526101409092015160e08301525091506200071560208401620005a7565b90509250929050565b600060a082840312156200073157600080fd5b60405160a081016001600160401b038111828210171562000756576200075662000443565b6040529050806200076783620005a7565b81526200077760208401620005a7565b60208201526200078a60408401620005a7565b60408201526200079d60608401620005a7565b6060820152620007b060808401620005a7565b60808201525092915050565b60006102408284031215620007d057600080fd5b620007da620004aa565b82518152620007ec60208401620005a7565b6020820152620007ff60408401620005a7565b60408201526200081384606085016200071e565b606082015261010062000828818501620005a7565b60808301526101206200083d818601620005a7565b60a084015261014062000852818701620005a7565b60c08501526101608087015160e086015261018080880151858701526101a0945084880151848701526101c0880151838701526101e088015182870152610200880151818701525050505061022084015181830152508091505092915050565b600060808284031215620008c557600080fd5b620008cf62000459565b825181526020830151602082015260408301516040820152606083015160608201528091505092915050565b80820281158282048414176200092157634e487b7160e01b600052601160045260246000fd5b92915050565b6000826200094557634e487b7160e01b600052601260045260246000fd5b500490565b60805160a05160c05160e05161010051610120516101405161016051610180516101a0516101c0516101e05161020051610220516102405161026051610280516102a0516102c0516102e05161030051610320516103405161036051611c9362000b29600039600081816102b6015281816106e30152818161072701528181610cd00152610d14015260008181610133015281816107b60152610aa7015260008181610112015281816107d70152610ac801526000818160f1015261089d01526000818160d00152818161076a015281816107f801528181610a5b0152610ae901526000610e5301526000610a0601526000818161139101526115d001526000818161136d01526115f101526000818161130801526116270152600081816112e40152611648015260008181611244015261143f0152600081816111f601526113f10152600061141e015260006113d001526000611223015260006111d501526000818161021b015261126e0152600081816101f70152818161092b0152610d7e015260006101b201526000818161041e01526104e30152600081816105b40152818161066201528181610e9901528181610f7101526110e00152600081816102850152610c3d01526000818161025f0152610c700152611c936000f3fe608060405234801561001057600080fd5b50600436106100c95760003560e01c80638e7bfbc011610081578063dc4595121161005b578063dc4595121461030b578063e6aa216c1461036f578063f3190c891461037757600080fd5b80638e7bfbc0146102e657806396aa229c146102ee578063abd5f95d146102f657600080fd5b806336c1387e116100b257806336c1387e146101ab578063585eebbf146101dc57806364bba885146102b157600080fd5b806304741a5a146100ce578063287960581461018e575b600080fd5b7f00000000000000000000000000000000000000000000000000000000000000007f00000000000000000000000000000000000000000000000000000000000000007f00000000000000000000000000000000000000000000000000000000000000007f00000000000000000000000000000000000000000000000000000000000000006040805173ffffffffffffffffffffffffffffffffffffffff909516855292151560208501529183015260608201526080015b60405180910390f35b61019661037f565b60408051928352602083019190915201610185565b60405160ff7f0000000000000000000000000000000000000000000000000000000000000000168152602001610185565b6040805173ffffffffffffffffffffffffffffffffffffffff7f00000000000000000000000000000000000000000000000000000000000000001681527f0000000000000000000000000000000000000000000000000000000000000000151560208201527352aa899454998be5b000ad077a46bbe360f4e497918101919091527f000000000000000000000000000000000000000000000000000000000000000060608201527f0000000000000000000000000000000000000000000000000000000000000000608082015260a001610185565b6102d87f000000000000000000000000000000000000000000000000000000000000000081565b604051908152602001610185565b6102d86103bf565b6101966103d6565b6102fe61040c565b60405161018591906119b1565b610313610571565b6040805173ffffffffffffffffffffffffffffffffffffffff909916895260208901979097529415159587019590955260608601929092526080850152151560a084015260c0830191909152151560e082015261010001610185565b6102d86106ae565b6102d86106b8565b60008060008061038d6106ca565b915091506103a361039c610766565b83836108e5565b6103b56103ae610a57565b84846108e5565b9350935050509091565b60006103c9610b52565b6103d1610bf1565b905090565b6000806000806103e4610cb7565b915091506103fa6103f3610766565b8383610d39565b6103b5610405610a57565b8484610d39565b606060005b60208110801561047757507f0000000000000000000000000000000000000000000000000000000000000000816020811061044e5761044e611a1d565b1a60f81b7fff000000000000000000000000000000000000000000000000000000000000001615155b1561048e578061048681611a7b565b915050610411565b60008167ffffffffffffffff8111156104a9576104a9611ab3565b6040519080825280601f01601f1916602001820160405280156104d3576020820181803683370190505b50905060005b8281101561056a577f0000000000000000000000000000000000000000000000000000000000000000816020811061051357610513611a1d565b1a60f81b82828151811061052957610529611a1d565b60200101907effffffffffffffffffffffffffffffffffffffffffffffffffffffffffffff1916908160001a9053508061056281611a7b565b9150506104d9565b5092915050565b6000806000806000806000806000610587610e8e565b919850909650905086156105ab5761059f8187611059565b91965094509250610660565b610a8c945060007f000000000000000000000000000000000000000000000000000000000000000073ffffffffffffffffffffffffffffffffffffffff1663feaf968c6040518163ffffffff1660e01b815260040160a060405180830381865afa15801561061d573d6000803e3d6000fd5b505050506040513d601f19601f820116820180604052508101906106419190611b01565b50505050905061065c8160016106579190611b51565b6110c3565b9350505b7f0000000000000000000000000000000000000000000000000000000000000000610a8c88888888888d801561069357508a5b98509850985098509850985098509850509091929394959697565b60006103d16103bf565b60006106c2610b52565b6103d16111c2565b6000806106d56111cd565b9092509050620f42406107087f000000000000000000000000000000000000000000000000000000000000000082611b74565b6107129084611b8d565b61071c9190611bd3565b9150620f424061074c7f000000000000000000000000000000000000000000000000000000000000000082611b74565b6107569083611b8d565b6107609190611bd3565b90509091565b60007f000000000000000000000000000000000000000000000000000000000000000073ffffffffffffffffffffffffffffffffffffffff166107b457506b033b2e3c9fd0803ce800000090565b7f00000000000000000000000000000000000000000000000000000000000000007f00000000000000000000000000000000000000000000000000000000000000007f000000000000000000000000000000000000000000000000000000000000000073ffffffffffffffffffffffffffffffffffffffff16638e7bfbc06040518163ffffffff1660e01b8152600401602060405180830381865afa158015610861573d6000803e3d6000fd5b505050506040513d601f19601f820116820180604052508101906108859190611c0e565b61088f9190611b8d565b6108999190611bd3565b90507f0000000000000000000000000000000000000000000000000000000000000000156108e2576103d181760a70c3c40a64e6c51999090b65f67d9240000000000000611bd3565b90565b6040517fb5c736e40000000000000000000000000000000000000000000000000000000081526002600482015260009081906fffffffffffffffffffffffffffffffff907f000000000000000000000000000000000000000000000000000000000000000073ffffffffffffffffffffffffffffffffffffffff169063b5c736e490602401602060405180830381865afa158015610987573d6000803e3d6000fd5b505050506040513d601f19601f820116820180604052508101906109ab9190611c0e565b169050806000036109f1576040517fc82fc46500000000000000000000000000000000000000000000000000000000815261ebac60048201526024015b60405180910390fd5b60006109fe86868661126a565b905081610a2b7f000000000000000000000000000000000000000000000000000000000000000083611b8d565b610a41906b033b2e3c9fd0803ce8000000611b8d565b610a4b9190611bd3565b925050505b9392505050565b60007f000000000000000000000000000000000000000000000000000000000000000073ffffffffffffffffffffffffffffffffffffffff16610aa557506b033b2e3c9fd0803ce800000090565b7f00000000000000000000000000000000000000000000000000000000000000007f00000000000000000000000000000000000000000000000000000000000000007f000000000000000000000000000000000000000000000000000000000000000073ffffffffffffffffffffffffffffffffffffffff1663f3190c896040518163ffffffff1660e01b8152600401602060405180830381865afa158015610861573d6000803e3d6000fd5b6000806000610b5f610e8e565b92509250925082610ba0576040517fc82fc46500000000000000000000000000000000000000000000000000000000815261ea6060048201526024016109e8565b6000610bac8383611059565b5091505080610beb576040517fc82fc46500000000000000000000000000000000000000000000000000000000815261ea6060048201526024016109e8565b50505050565b600080610bfc610766565b9050600080610c096106ca565b915091506000610c1a8484846108e5565b9050610c24610cb7565b90935091506000610c36858585610d39565b9050610c6e7f00000000000000000000000000000000000000000000000000000000000000006b033b2e3c9fd0803ce8000000611b8d565b7f0000000000000000000000000000000000000000000000000000000000000000610c998484611b8d565b610ca39190611b8d565b610cad9190611bd3565b9550505050505090565b600080610cc26113c8565b9092509050620f4240610cf57f000000000000000000000000000000000000000000000000000000000000000082611c27565b610cff9084611b8d565b610d099190611bd3565b9150620f424061074c7f000000000000000000000000000000000000000000000000000000000000000082611c27565b6040517fb5c736e400000000000000000000000000000000000000000000000000000000815260048082015260009081906fffffffffffffffffffffffffffffffff907f000000000000000000000000000000000000000000000000000000000000000073ffffffffffffffffffffffffffffffffffffffff169063b5c736e490602401602060405180830381865afa158015610dda573d6000803e3d6000fd5b505050506040513d601f19601f82011682018060405250810190610dfe9190611c0e565b16905080600003610e3f576040517fc82fc46500000000000000000000000000000000000000000000000000000000815261ebb660048201526024016109e8565b6000610e4c86868661126a565b9050610e787f000000000000000000000000000000000000000000000000000000000000000082611b8d565b610a41836b033b2e3c9fd0803ce8000000611b8d565b6000806000806000807f000000000000000000000000000000000000000000000000000000000000000073ffffffffffffffffffffffffffffffffffffffff1663feaf968c6040518163ffffffff1660e01b815260040160a060405180830381865afa158015610f02573d6000803e3d6000fd5b505050506040513d601f19601f82011682018060405250810190610f269190611b01565b505092509250925081600014610f46575060009586955085945092505050565b600195508294508093506000841115611051575b73ffffffffffffffffffffffffffffffffffffffff7f000000000000000000000000000000000000000000000000000000000000000016639a6fc8f5610fa1600186611c3a565b6040517fffffffff0000000000000000000000000000000000000000000000000000000060e084901b16815269ffffffffffffffffffff909116600482015260240160a060405180830381865afa158015611000573d6000803e3d6000fd5b505050506040513d601f19601f820116820180604052508101906110249190611b01565b50929550909350915050600082900361103e578294508093505b8115801561104c5750600081115b610f5a575b505050909192565b60008080806110688542611b74565b90508415806110785750610a8c81115b1561109057610a8c60016000935093509350506110bc565b611099866110c3565b91506110a58286611b74565b9350610a8c8411156110b757610a8c93505b831091505b9250925092565b60008181805b73ffffffffffffffffffffffffffffffffffffffff7f000000000000000000000000000000000000000000000000000000000000000016639a6fc8f5611110600186611c3a565b6040517fffffffff0000000000000000000000000000000000000000000000000000000060e084901b16815269ffffffffffffffffffff909116600482015260240160a060405180830381865afa15801561116f573d6000803e3d6000fd5b505050506040513d601f19601f820116820180604052508101906111939190611b01565b5092955090935091505081156111a7578093505b81158015906111b65750600081115b6110c957505050919050565b600080610bfc610a57565b60008061121c7f00000000000000000000000000000000000000000000000000000000000000007f00000000000000000000000000000000000000000000000000000000000000006001611465565b91506107607f00000000000000000000000000000000000000000000000000000000000000007f00000000000000000000000000000000000000000000000000000000000000006000611465565b60007f00000000000000000000000000000000000000000000000000000000000000001561133e576112b384760a70c3c40a64e6c51999090b65f67d9240000000000000611bd3565b93506b033b2e3c9fd0803ce80000006112cc8584611b8d565b6112d69190611bd3565b6112e09084611c27565b90507f000000000000000000000000000000000000000000000000000000000000000061132d7f000000000000000000000000000000000000000000000000000000000000000083611b8d565b6113379190611bd3565b9050610a50565b6b033b2e3c9fd0803ce80000006113558585611b8d565b61135f9190611bd3565b6113699083611c27565b90507f00000000000000000000000000000000000000000000000000000000000000006113b67f000000000000000000000000000000000000000000000000000000000000000083611b8d565b6113c09190611bd3565b949350505050565b6000806114177f00000000000000000000000000000000000000000000000000000000000000007f00000000000000000000000000000000000000000000000000000000000000006001611681565b91506107607f00000000000000000000000000000000000000000000000000000000000000007f00000000000000000000000000000000000000000000000000000000000000006000611681565b6040517fb5c736e40000000000000000000000000000000000000000000000000000000081526004810184905260009081907352aa899454998be5b000ad077a46bbe360f4e4979063b5c736e490602401602060405180830381865afa1580156114d3573d6000803e3d6000fd5b505050506040513d601f19601f820116820180604052508101906114f79190611c0e565b6040517fb5c736e400000000000000000000000000000000000000000000000000000000815260048101869052600982901c66ffffffffffffff16600183901c60ff161b93509091506000906115ad907352aa899454998be5b000ad077a46bbe360f4e4979063b5c736e4906024015b602060405180830381865afa158015611584573d6000803e3d6000fd5b505050506040513d601f19601f820116820180604052508101906115a89190611c0e565b6117a3565b509050816001166001036115c95764e8d4a510008382025b0492505b83611625577f00000000000000000000000000000000000000000000000000000000000000007f000000000000000000000000000000000000000000000000000000000000000084028161161f5761161f611ba4565b04610a4b565b7f00000000000000000000000000000000000000000000000000000000000000007f000000000000000000000000000000000000000000000000000000000000000084028161167657611676611ba4565b049695505050505050565b6040517fb5c736e40000000000000000000000000000000000000000000000000000000081526004810184905260009081907352aa899454998be5b000ad077a46bbe360f4e4979063b5c736e490602401602060405180830381865afa1580156116ef573d6000803e3d6000fd5b505050506040513d601f19601f820116820180604052508101906117139190611c0e565b6040517fb5c736e400000000000000000000000000000000000000000000000000000000815260048101869052600982901c66ffffffffffffff16600183901c60ff161b9350909150600090611787907352aa899454998be5b000ad077a46bbe360f4e4979063b5c736e490602401611567565b915050816001166001036115c95764e8d4a510008382026115c5565b67ffffffffffffffff605b82901c811690609b83901c168115806117c5575080155b15611801576040517fd50d75120000000000000000000000000000000000000000000000000000000081526201117160048201526024016109e8565b61ffff8316603a84901c6401ffffffff16428181039160ea87901c617fff1691148061182b575082155b806118365750806001145b1561184357505050915091565b64496cebb80084840283020484019350617fff60db87901c1692508260010361186e57505050915091565b826001166001036118c35760019290921c91826c7e37be2022c0914b26800000008161189c5761189c611ba4565b049250612710601e87901c613fff166b033b2e3c9fd0803ce80000008501020492506118f0565b60019290921c916305f5e100601e87901c613fff166127108501026b033b2e3c9fd0803ce8000000020492505b806001166001036119275760011c61271081016b033b2e3c9fd0803ce800000082028161191f5761191f611ba4565b04905061195d565b60011c61271081016b033b2e3c9fd0803ce800000082028161194b5761194b611ba4565b046b033b2e3c9fd0803ce80000000390505b760a70c3c40a64e6c51999090b65f67d92400000000000008382026127100261ffff881691900402601087901c613fff16612710030292506801b5a660ea44b8000085840283020485019450505050915091565b600060208083528351808285015260005b818110156119de578581018301518582016040015282016119c2565b5060006040828601015260407fffffffffffffffffffffffffffffffffffffffffffffffffffffffffffffffe0601f8301168501019250505092915050565b7f4e487b7100000000000000000000000000000000000000000000000000000000600052603260045260246000fd5b7f4e487b7100000000000000000000000000000000000000000000000000000000600052601160045260246000fd5b60007fffffffffffffffffffffffffffffffffffffffffffffffffffffffffffffffff8203611aac57611aac611a4c565b5060010190565b7f4e487b7100000000000000000000000000000000000000000000000000000000600052604160045260246000fd5b805169ffffffffffffffffffff81168114611afc57600080fd5b919050565b600080600080600060a08688031215611b1957600080fd5b611b2286611ae2565b9450602086015193506040860151925060608601519150611b4560808701611ae2565b90509295509295909350565b69ffffffffffffffffffff81811683821601908082111561056a5761056a611a4c565b81810381811115611b8757611b87611a4c565b92915050565b8082028115828204841417611b8757611b87611a4c565b7f4e487b7100000000000000000000000000000000000000000000000000000000600052601260045260246000fd5b600082611c09577f4e487b7100000000000000000000000000000000000000000000000000000000600052601260045260246000fd5b500490565b600060208284031215611c2057600080fd5b5051919050565b80820180821115611b8757611b87611a4c565b69ffffffffffffffffffff82811682821603908082111561056a5761056a611a4c56fea26469706673582212208fb0c7bf1d479cda50e8f4fd7a6d8cc8db31f096fb7a5f57c9e920b8b125d4c664736f6c63430008150033"
}