{
  "address": "0xCD9d766DA764eD2838604E5aCf55304ABf7bDBd5",
  "abi": [
    {
      "inputs": [
        {
          "internalType": "string",
          "name": "infoName_",
          "type": "string"
        },
        {
          "internalType": "uint8",
          "name": "targetDecimals_",
          "type": "uint8"
        },
        {
          "components": [
            {
              "internalType": "address",
              "name": "source",
              "type": "address"
            },
            {
              "internalType": "bool",
              "name": "invertRate",
              "type": "bool"
            },
            {
              "internalType": "uint256",
              "name": "multiplier",
              "type": "uint256"
            },
            {
              "internalType": "uint256",
              "name": "divisor",
              "type": "uint256"
            },
            {
              "internalType": "enum GenericOracleStructs.SourceType",
              "name": "sourceType",
              "type": "uint8"
            }
          ],
          "internalType": "struct GenericOracleStructs.OracleHopSource[]",
          "name": "sources_",
          "type": "tuple[]"
        },
        {
          "internalType": "address",
          "name": "sequencerUptimeFeed_",
          "type": "address"
        }
      ],
      "stateMutability": "nonpayable",
      "type": "constructor"
    },
    {
      "inputs": [
        {
          "internalType": "uint256",
          "name": "errorId_",
          "type": "uint256"
        }
      ],
      "name": "FluidOracleError",
      "type": "error"
    },
    {
      "inputs": [],
      "name": "getExchangeRate",
      "outputs": [
        {
          "internalType": "uint256",
          "name": "exchangeRate_",
          "type": "uint256"
        }
      ],
      "stateMutability": "view",
      "type": "function"
    },
    {
      "inputs": [],
      "name": "getExchangeRateLiquidate",
      "outputs": [
        {
          "internalType": "uint256",
          "name": "exchangeRate_",
          "type": "uint256"
        }
      ],
      "stateMutability": "view",
      "type": "function"
    },
    {
      "inputs": [],
      "name": "getExchangeRateOperate",
      "outputs": [
        {
          "internalType": "uint256",
          "name": "exchangeRate_",
          "type": "uint256"
        }
      ],
      "stateMutability": "view",
      "type": "function"
    },
    {
      "inputs": [],
      "name": "getHopExchangeRates",
      "outputs": [
        {
          "internalType": "uint256",
          "name": "rateSource1Operate_",
          "type": "uint256"
        },
        {
          "internalType": "uint256",
          "name": "rateSource1Liquidate_",
          "type": "uint256"
        },
        {
          "internalType": "uint256",
          "name": "rateSource2Operate_",
          "type": "uint256"
        },
        {
          "internalType": "uint256",
          "name": "rateSource2Liquidate_",
          "type": "uint256"
        },
        {
          "internalType": "uint256",
          "name": "rateSource3Operate_",
          "type": "uint256"
        },
        {
          "internalType": "uint256",
          "name": "rateSource3Liquidate_",
          "type": "uint256"
        },
        {
          "internalType": "uint256",
          "name": "rateSource4Operate_",
          "type": "uint256"
        },
        {
          "internalType": "uint256",
          "name": "rateSource4Liquidate_",
          "type": "uint256"
        },
        {
          "internalType": "uint256",
          "name": "rateSource5Operate_",
          "type": "uint256"
        },
        {
          "internalType": "uint256",
          "name": "rateSource5Liquidate_",
          "type": "uint256"
        }
      ],
      "stateMutability": "view",
      "type": "function"
    },
    {
      "inputs": [],
      "name": "getOracleHopSources",
      "outputs": [
        {
          "components": [
            {
              "internalType": "address",
              "name": "source",
              "type": "address"
            },
            {
              "internalType": "bool",
              "name": "invertRate",
              "type": "bool"
            },
            {
              "internalType": "uint256",
              "name": "multiplier",
              "type": "uint256"
            },
            {
              "internalType": "uint256",
              "name": "divisor",
              "type": "uint256"
            },
            {
              "internalType": "enum GenericOracleStructs.SourceType",
              "name": "sourceType",
              "type": "uint8"
            }
          ],
          "internalType": "struct GenericOracleStructs.OracleHopSource[]",
          "name": "sources_",
          "type": "tuple[]"
        }
      ],
      "stateMutability": "view",
      "type": "function"
    },
    {
      "inputs": [],
      "name": "infoName",
      "outputs": [
        {
          "internalType": "string",
          "name": "",
          "type": "string"
        }
      ],
      "stateMutability": "view",
      "type": "function"
    },
    {
      "inputs": [],
      "name": "sequencerL2Data",
      "outputs": [
        {
          "internalType": "address",
          "name": "sequencerUptimeFeed_",
          "type": "address"
        },
        {
          "internalType": "uint256",
          "name": "maxGracePeriod_",
          "type": "uint256"
        },
        {
          "internalType": "bool",
          "name": "isSequencerUp_",
          "type": "bool"
        },
        {
          "internalType": "uint256",
          "name": "lastUptimeStartedAt_",
          "type": "uint256"
        },
        {
          "internalType": "uint256",
          "name": "gracePeriod_",
          "type": "uint256"
        },
        {
          "internalType": "bool",
          "name": "gracePeriodPassed_",
          "type": "bool"
        },
        {
          "internalType": "uint256",
          "name": "lastOutageStartedAt_",
          "type": "uint256"
        },
        {
          "internalType": "bool",
          "name": "isSequencerUpAndValid_",
          "type": "bool"
        }
      ],
      "stateMutability": "view",
      "type": "function"
    },
    {
      "inputs": [],
      "name": "targetDecimals",
      "outputs": [
        {
          "internalType": "uint8",
          "name": "",
          "type": "uint8"
        }
      ],
      "stateMutability": "view",
      "type": "function"
    }
  ],
  "transactionHash": "0x04c546c2267f037995c1c382d36eab4679117c233fcbfde72ed7ab2456a043ee",
  "args": [
    [
      "USDC per 1 LBTC",
      25,
      [
        {
          "sourceType": 2,
          "source": "0x1E6c22AAA11F507af12034A5Dc4126A6A25DC8d2",
          "invertRate": false,
          "multiplier": "10000000000000000000",
          "divisor": 1
        },
        {
          "sourceType": 2,
          "source": "0x64c911996D3c6aC71f9b455B1E8E7266BcbD848F",
          "invertRate": false,
          "multiplier": "10000000000000000000",
          "divisor": 100
        }
      ],
      "0xBCF85224fc0756B9Fa45aA7892530B47e10b6433"
    ]
  ],
  "numDeployments": 1,
  "linkedData": {
    "nonce": "7"
  },
  "bytecode": "0x6103e06040523480156200001257600080fd5b506040516200389c3803806200389c833981016040819052620000359162000940565b600080546001600160a01b0319166001600160a01b0383161790558351849084908490819084908490602010806200006c57508151155b15620000945760405163c82fc46560e01b815261ea6a60048201526024015b60405180910390fd5b600f8160ff161080620000aa575060278160ff16115b15620000ce5760405163c82fc46560e01b815261ebf160048201526024016200008b565b60ff1660a0526020015160805280511580620000eb575060058151115b156200010f5760405163c82fc46560e01b815261ebf160048201526024016200008b565b6200013d8160008151811062000129576200012962000a40565b6020026020010151620006f460201b60201c565b8060008151811062000153576200015362000a40565b6020908102919091010151516001600160a01b031660c0528051819060009062000181576200018162000a40565b602002602001015160200151151560e08115158152505080600081518110620001ae57620001ae62000a40565b602002602001015160400151610100818152505080600081518110620001d857620001d862000a40565b60200260200101516060015161012081815250508060008151811062000202576200020262000a40565b602002602001015160800151600481111562000222576200022262000a56565b6101408160048111156200023a576200023a62000a56565b815250506001815111156200036857620002638160018151811062000129576200012962000a40565b8060018151811062000279576200027962000a40565b6020908102919091010151516001600160a01b031661016052805181906001908110620002aa57620002aa62000a40565b60200260200101516020015115156101808115158152505080600181518110620002d857620002d862000a40565b6020026020010151604001516101a081815250508060018151811062000302576200030262000a40565b6020026020010151606001516101c08181525050806001815181106200032c576200032c62000a40565b60200260200101516080015160048111156200034c576200034c62000a56565b6101e081600481111562000364576200036462000a56565b9052505b60028151111562000492576200038d8160028151811062000129576200012962000a40565b80600281518110620003a357620003a362000a40565b6020908102919091010151516001600160a01b031661020052805181906002908110620003d457620003d462000a40565b6020026020010151602001511515610220811515815250508060028151811062000402576200040262000a40565b6020026020010151604001516102408181525050806002815181106200042c576200042c62000a40565b60200260200101516060015161026081815250508060028151811062000456576200045662000a40565b602002602001015160800151600481111562000476576200047662000a56565b6102808160048111156200048e576200048e62000a56565b9052505b600381511115620005bc57620004b78160038151811062000129576200012962000a40565b80600381518110620004cd57620004cd62000a40565b6020908102919091010151516001600160a01b03166102a052805181906003908110620004fe57620004fe62000a40565b60200260200101516020015115156102c081151581525050806003815181106200052c576200052c62000a40565b6020026020010151604001516102e081815250508060038151811062000556576200055662000a40565b60200260200101516060015161030081815250508060038151811062000580576200058062000a40565b6020026020010151608001516004811115620005a057620005a062000a56565b610320816004811115620005b857620005b862000a56565b9052505b600481511115620006e657620005e18160048151811062000129576200012962000a40565b80600481518110620005f757620005f762000a40565b6020908102919091010151516001600160a01b03166103405280518190600490811062000628576200062862000a40565b6020026020010151602001511515610360811515815250508060048151811062000656576200065662000a40565b60200260200101516040015161038081815250508060048151811062000680576200068062000a40565b6020026020010151606001516103a0818152505080600481518110620006aa57620006aa62000a40565b6020026020010151608001516004811115620006ca57620006ca62000a56565b6103c0816004811115620006e257620006e262000a56565b9052505b505050505050505062000a6c565b80516001600160a01b0316158062000724575060038160800151600481111562000722576200072262000a56565b145b806200073257506060810151155b806200074057506040810151155b80620007605750701d6329f1c35ca4bfabb9f56100000000008160600151115b80620007805750701d6329f1c35ca4bfabb9f56100000000008160400151115b15620007a45760405163c82fc46560e01b815261ebf160048201526024016200008b565b50565b634e487b7160e01b600052604160045260246000fd5b60405160a081016001600160401b0381118282101715620007e257620007e2620007a7565b60405290565b604051601f8201601f191681016001600160401b0381118282101715620008135762000813620007a7565b604052919050565b805160ff811681146200082d57600080fd5b919050565b80516001600160a01b03811681146200082d57600080fd5b600082601f8301126200085c57600080fd5b815160206001600160401b038211156200087a576200087a620007a7565b60056200088b8284831b01620007e8565b83815260a09384028601830193838201919088861115620008ab57600080fd5b8488015b86811015620009325781818b031215620008c95760008081fd5b620008d3620007bd565b620008de8262000832565b8152868201518015158114620008f45760008081fd5b818801526040828101519082015260608083015190820152608080830151878110620009205760008081fd5b908201528452928501928101620008af565b509098975050505050505050565b600080600080608085870312156200095757600080fd5b84516001600160401b03808211156200096f57600080fd5b818701915087601f8301126200098457600080fd5b815181811115620009995762000999620007a7565b6020620009af601f8301601f19168201620007e8565b8281528a82848701011115620009c457600080fd5b60005b83811015620009e4578581018301518282018401528201620009c7565b5060008184018301529750620009fc8982016200081b565b96505050604087015191508082111562000a1557600080fd5b5062000a24878288016200084a565b92505062000a356060860162000832565b905092959194509250565b634e487b7160e01b600052603260045260246000fd5b634e487b7160e01b600052602160045260246000fd5b60805160a05160c05160e05161010051610120516101405161016051610180516101a0516101c0516101e05161020051610220516102405161026051610280516102a0516102c0516102e05161030051610320516103405161036051610380516103a0516103c051612a7662000e2660003960008181610731015281816112b0015281816113b5015281816114b501528181612129015261222801526000818161070b0152818161138f0152818161148f01526122020152600081816106e5015281816113690152818161146901526121dc0152600081816106bd015281816113410152818161144101526121b40152600081816106810152818161126f0152818161130501528181611405015281816120e80152612178015260008181610623015281816110350152818161113a0152818161123a01528181611f7701526120760152600081816105fd015281816111140152818161121401526120500152600081816105d7015281816110ee015281816111ee015261202a0152600081816105af015281816110c6015281816111c6015261200201526000818161057301528181610ff40152818161108a0152818161118a01528181611f360152611fc601526000818161051501528181610dba01528181610ebf01528181610fbf01528181611dc50152611ec40152600081816104ef01528181610e9901528181610f990152611e9e0152600081816104c901528181610e7301528181610f730152611e780152600081816104a101528181610e4b01528181610f4b0152611e5001526000818161046501528181610d7901528181610e0f01528181610f0f01528181611d840152611e1401526000818161040701528181610b3f01528181610c4401528181610d4401528181611c130152611d120152600081816103e101528181610c1e01528181610d1e0152611cec0152600081816103bb01528181610bf801528181610cf80152611cc601526000818161039301528181610bd001528181610cd00152611c9e01526000818161035701528181610afe01528181610b9401528181610c9401528181611bd20152611c620152600081816102f9015281816109c301528181610aca0152611b600152600081816102d30152818161099d01528181610aa40152611b3a0152600081816102ad0152818161097701528181610a7e0152611b140152600081816102850152818161094f01528181610a560152611aec0152600081816102490152818161091301528181610a1a0152611ab0015260006094015260008181610797015261085c0152612a766000f3fe608060405234801561001057600080fd5b50600436106100885760003560e01c8063d643a8cf1161005b578063d643a8cf14610103578063dc45951214610155578063e6aa216c146101b9578063f3190c89146101c157600080fd5b806336c1387e1461008d5780638e7bfbc0146100c357806394f253ef146100d9578063abd5f95d146100ee575b600080fd5b60405160ff7f00000000000000000000000000000000000000000000000000000000000000001681526020015b60405180910390f35b6100cb6101c9565b6040519081526020016100ba565b6100e16101e0565b6040516100ba91906125f8565b6100f6610785565b6040516100ba91906126b5565b61010b6108ea565b604080519a8b5260208b0199909952978901969096526060880194909452608087019290925260a086015260c085015260e0840152610100830152610120820152610140016100ba565b61015d6114f4565b6040805173ffffffffffffffffffffffffffffffffffffffff909916895260208901979097529415159587019590955260608601929092526080850152151560a084015260c0830191909152151560e0820152610100016100ba565b6100cb61162a565b6100cb611634565b60006101d3611646565b6101db6116ea565b905090565b60408051600580825260c08201909252606091816020015b6102276040805160a0810182526000808252602082018190529181018290526060810182905290608082015290565b8152602001906001900390816101f85790505090506040518060a001604052807f000000000000000000000000000000000000000000000000000000000000000073ffffffffffffffffffffffffffffffffffffffff1681526020017f0000000000000000000000000000000000000000000000000000000000000000151581526020017f000000000000000000000000000000000000000000000000000000000000000081526020017f000000000000000000000000000000000000000000000000000000000000000081526020017f00000000000000000000000000000000000000000000000000000000000000006004811115610329576103296125c9565b8152508160008151811061033f5761033f612750565b60200260200101819052506040518060a001604052807f000000000000000000000000000000000000000000000000000000000000000073ffffffffffffffffffffffffffffffffffffffff1681526020017f0000000000000000000000000000000000000000000000000000000000000000151581526020017f000000000000000000000000000000000000000000000000000000000000000081526020017f000000000000000000000000000000000000000000000000000000000000000081526020017f00000000000000000000000000000000000000000000000000000000000000006004811115610437576104376125c9565b8152508160018151811061044d5761044d612750565b60200260200101819052506040518060a001604052807f000000000000000000000000000000000000000000000000000000000000000073ffffffffffffffffffffffffffffffffffffffff1681526020017f0000000000000000000000000000000000000000000000000000000000000000151581526020017f000000000000000000000000000000000000000000000000000000000000000081526020017f000000000000000000000000000000000000000000000000000000000000000081526020017f00000000000000000000000000000000000000000000000000000000000000006004811115610545576105456125c9565b8152508160028151811061055b5761055b612750565b60200260200101819052506040518060a001604052807f000000000000000000000000000000000000000000000000000000000000000073ffffffffffffffffffffffffffffffffffffffff1681526020017f0000000000000000000000000000000000000000000000000000000000000000151581526020017f000000000000000000000000000000000000000000000000000000000000000081526020017f000000000000000000000000000000000000000000000000000000000000000081526020017f00000000000000000000000000000000000000000000000000000000000000006004811115610653576106536125c9565b8152508160038151811061066957610669612750565b60200260200101819052506040518060a001604052807f000000000000000000000000000000000000000000000000000000000000000073ffffffffffffffffffffffffffffffffffffffff1681526020017f0000000000000000000000000000000000000000000000000000000000000000151581526020017f000000000000000000000000000000000000000000000000000000000000000081526020017f000000000000000000000000000000000000000000000000000000000000000081526020017f00000000000000000000000000000000000000000000000000000000000000006004811115610761576107616125c9565b8152508160048151811061077757610777612750565b602002602001018190525090565b606060005b6020811080156107f057507f000000000000000000000000000000000000000000000000000000000000000081602081106107c7576107c7612750565b1a60f81b7fff000000000000000000000000000000000000000000000000000000000000001615155b1561080757806107ff816127ae565b91505061078a565b60008167ffffffffffffffff81111561082257610822612721565b6040519080825280601f01601f19166020018201604052801561084c576020820181803683370190505b50905060005b828110156108e3577f0000000000000000000000000000000000000000000000000000000000000000816020811061088c5761088c612750565b1a60f81b8282815181106108a2576108a2612750565b60200101907effffffffffffffffffffffffffffffffffffffffffffffffffffffffffffff1916908160001a905350806108db816127ae565b915050610852565b5092915050565b60008080808080808080806109fa610904601b600a612906565b60016040518060a001604052807f000000000000000000000000000000000000000000000000000000000000000073ffffffffffffffffffffffffffffffffffffffff1681526020017f0000000000000000000000000000000000000000000000000000000000000000151581526020017f000000000000000000000000000000000000000000000000000000000000000081526020017f000000000000000000000000000000000000000000000000000000000000000081526020017f000000000000000000000000000000000000000000000000000000000000000060048111156109f3576109f36125c9565b90526116f6565b9950610afa610a0b601b600a612906565b60006040518060a001604052807f000000000000000000000000000000000000000000000000000000000000000073ffffffffffffffffffffffffffffffffffffffff1681526020017f0000000000000000000000000000000000000000000000000000000000000000151581526020017f000000000000000000000000000000000000000000000000000000000000000081526020017f000000000000000000000000000000000000000000000000000000000000000081526020017f000000000000000000000000000000000000000000000000000000000000000060048111156109f3576109f36125c9565b98507f000000000000000000000000000000000000000000000000000000000000000073ffffffffffffffffffffffffffffffffffffffff16151580610b71575060037f00000000000000000000000000000000000000000000000000000000000000006004811115610b6f57610b6f6125c9565b145b15610d7757610c74610b85601b600a612906565b60016040518060a001604052807f000000000000000000000000000000000000000000000000000000000000000073ffffffffffffffffffffffffffffffffffffffff1681526020017f0000000000000000000000000000000000000000000000000000000000000000151581526020017f000000000000000000000000000000000000000000000000000000000000000081526020017f000000000000000000000000000000000000000000000000000000000000000081526020017f000000000000000000000000000000000000000000000000000000000000000060048111156109f3576109f36125c9565b9750610d74610c85601b600a612906565b60006040518060a001604052807f000000000000000000000000000000000000000000000000000000000000000073ffffffffffffffffffffffffffffffffffffffff1681526020017f0000000000000000000000000000000000000000000000000000000000000000151581526020017f000000000000000000000000000000000000000000000000000000000000000081526020017f000000000000000000000000000000000000000000000000000000000000000081526020017f000000000000000000000000000000000000000000000000000000000000000060048111156109f3576109f36125c9565b96505b7f000000000000000000000000000000000000000000000000000000000000000073ffffffffffffffffffffffffffffffffffffffff16151580610dec575060037f00000000000000000000000000000000000000000000000000000000000000006004811115610dea57610dea6125c9565b145b15610ff257610eef610e00601b600a612906565b60016040518060a001604052807f000000000000000000000000000000000000000000000000000000000000000073ffffffffffffffffffffffffffffffffffffffff1681526020017f0000000000000000000000000000000000000000000000000000000000000000151581526020017f000000000000000000000000000000000000000000000000000000000000000081526020017f000000000000000000000000000000000000000000000000000000000000000081526020017f000000000000000000000000000000000000000000000000000000000000000060048111156109f3576109f36125c9565b9550610fef610f00601b600a612906565b60006040518060a001604052807f000000000000000000000000000000000000000000000000000000000000000073ffffffffffffffffffffffffffffffffffffffff1681526020017f0000000000000000000000000000000000000000000000000000000000000000151581526020017f000000000000000000000000000000000000000000000000000000000000000081526020017f000000000000000000000000000000000000000000000000000000000000000081526020017f000000000000000000000000000000000000000000000000000000000000000060048111156109f3576109f36125c9565b94505b7f000000000000000000000000000000000000000000000000000000000000000073ffffffffffffffffffffffffffffffffffffffff16151580611067575060037f00000000000000000000000000000000000000000000000000000000000000006004811115611065576110656125c9565b145b1561126d5761116a61107b601b600a612906565b60016040518060a001604052807f000000000000000000000000000000000000000000000000000000000000000073ffffffffffffffffffffffffffffffffffffffff1681526020017f0000000000000000000000000000000000000000000000000000000000000000151581526020017f000000000000000000000000000000000000000000000000000000000000000081526020017f000000000000000000000000000000000000000000000000000000000000000081526020017f000000000000000000000000000000000000000000000000000000000000000060048111156109f3576109f36125c9565b935061126a61117b601b600a612906565b60006040518060a001604052807f000000000000000000000000000000000000000000000000000000000000000073ffffffffffffffffffffffffffffffffffffffff1681526020017f0000000000000000000000000000000000000000000000000000000000000000151581526020017f000000000000000000000000000000000000000000000000000000000000000081526020017f000000000000000000000000000000000000000000000000000000000000000081526020017f000000000000000000000000000000000000000000000000000000000000000060048111156109f3576109f36125c9565b92505b7f000000000000000000000000000000000000000000000000000000000000000073ffffffffffffffffffffffffffffffffffffffff161515806112e2575060037f000000000000000000000000000000000000000000000000000000000000000060048111156112e0576112e06125c9565b145b156114e8576113e56112f6601b600a612906565b60016040518060a001604052807f000000000000000000000000000000000000000000000000000000000000000073ffffffffffffffffffffffffffffffffffffffff1681526020017f0000000000000000000000000000000000000000000000000000000000000000151581526020017f000000000000000000000000000000000000000000000000000000000000000081526020017f000000000000000000000000000000000000000000000000000000000000000081526020017f000000000000000000000000000000000000000000000000000000000000000060048111156109f3576109f36125c9565b91506114e56113f6601b600a612906565b60006040518060a001604052807f000000000000000000000000000000000000000000000000000000000000000073ffffffffffffffffffffffffffffffffffffffff1681526020017f0000000000000000000000000000000000000000000000000000000000000000151581526020017f000000000000000000000000000000000000000000000000000000000000000081526020017f000000000000000000000000000000000000000000000000000000000000000081526020017f000000000000000000000000000000000000000000000000000000000000000060048111156109f3576109f36125c9565b90505b90919293949596979899565b600080600080600080600080600061150a611791565b9198509096509050861561152e57611522818761193e565b919650945092506115e4565b610a8c945060008060009054906101000a900473ffffffffffffffffffffffffffffffffffffffff1673ffffffffffffffffffffffffffffffffffffffff1663feaf968c6040518163ffffffff1660e01b815260040160a060405180830381865afa1580156115a1573d6000803e3d6000fd5b505050506040513d601f19601f820116820180604052508101906115c5919061292c565b5050505090506115e08160016115db919061297c565b6119a8565b9350505b60005473ffffffffffffffffffffffffffffffffffffffff16610a8c888888888884801561160f57508a5b98509850985098509850985098509850509091929394959697565b60006101db6101c9565b600061163e611646565b6101db611a89565b6000806000611653611791565b92509250925082611699576040517fc82fc46500000000000000000000000000000000000000000000000000000000815261ea6060048201526024015b60405180910390fd5b60006116a5838361193e565b50915050806116e4576040517fc82fc46500000000000000000000000000000000000000000000000000000000815261ea606004820152602401611690565b50505050565b60006101db6001611a91565b600061170b826000015183608001518561229d565b90508160600151826040015182611722919061299f565b61172c91906129b6565b90508160200151801561173f5750600081115b156117695780611751601b600261299f565b61175c90600a612906565b61176691906129b6565b90505b611775601b600a612906565b61177f828661299f565b61178991906129b6565b949350505050565b60008060008060008060008054906101000a900473ffffffffffffffffffffffffffffffffffffffff1673ffffffffffffffffffffffffffffffffffffffff1663feaf968c6040518163ffffffff1660e01b815260040160a060405180830381865afa158015611805573d6000803e3d6000fd5b505050506040513d601f19601f82011682018060405250810190611829919061292c565b505092509250925081600014611849575060009586955085945092505050565b600195508294508093506000841115611936575b60005473ffffffffffffffffffffffffffffffffffffffff16639a6fc8f56118866001866129f1565b6040517fffffffff0000000000000000000000000000000000000000000000000000000060e084901b16815269ffffffffffffffffffff909116600482015260240160a060405180830381865afa1580156118e5573d6000803e3d6000fd5b505050506040513d601f19601f82011682018060405250810190611909919061292c565b509295509093509150506000829003611923578294508093505b811580156119315750600081115b61185d575b505050909192565b600080808061194d8542612a14565b905084158061195d5750610a8c81115b1561197557610a8c60016000935093509350506119a1565b61197e866119a8565b915061198a8286612a14565b9350610a8c84111561199c57610a8c93505b831091505b9250925092565b60008181805b60005473ffffffffffffffffffffffffffffffffffffffff16639a6fc8f56119d76001866129f1565b6040517fffffffff0000000000000000000000000000000000000000000000000000000060e084901b16815269ffffffffffffffffffff909116600482015260240160a060405180830381865afa158015611a36573d6000803e3d6000fd5b505050506040513d601f19601f82011682018060405250810190611a5a919061292c565b509295509093509150508115611a6e578093505b8115801590611a7d5750600081115b6119ae57505050919050565b60006101db60005b6000611b90611aa2601b600a612906565b836040518060a001604052807f000000000000000000000000000000000000000000000000000000000000000073ffffffffffffffffffffffffffffffffffffffff1681526020017f0000000000000000000000000000000000000000000000000000000000000000151581526020017f000000000000000000000000000000000000000000000000000000000000000081526020017f000000000000000000000000000000000000000000000000000000000000000081526020017f000000000000000000000000000000000000000000000000000000000000000060048111156109f3576109f36125c9565b905080600003611bd0576040517fc82fc46500000000000000000000000000000000000000000000000000000000815261ebf36004820152602401611690565b7f000000000000000000000000000000000000000000000000000000000000000073ffffffffffffffffffffffffffffffffffffffff16158015611c46575060037f00000000000000000000000000000000000000000000000000000000000000006004811115611c4357611c436125c9565b14155b15611c5057919050565b611d4281836040518060a001604052807f000000000000000000000000000000000000000000000000000000000000000073ffffffffffffffffffffffffffffffffffffffff1681526020017f0000000000000000000000000000000000000000000000000000000000000000151581526020017f000000000000000000000000000000000000000000000000000000000000000081526020017f000000000000000000000000000000000000000000000000000000000000000081526020017f000000000000000000000000000000000000000000000000000000000000000060048111156109f3576109f36125c9565b905080600003611d82576040517fc82fc46500000000000000000000000000000000000000000000000000000000815261ebf36004820152602401611690565b7f000000000000000000000000000000000000000000000000000000000000000073ffffffffffffffffffffffffffffffffffffffff16158015611df8575060037f00000000000000000000000000000000000000000000000000000000000000006004811115611df557611df56125c9565b14155b15611e0257919050565b611ef481836040518060a001604052807f000000000000000000000000000000000000000000000000000000000000000073ffffffffffffffffffffffffffffffffffffffff1681526020017f0000000000000000000000000000000000000000000000000000000000000000151581526020017f000000000000000000000000000000000000000000000000000000000000000081526020017f000000000000000000000000000000000000000000000000000000000000000081526020017f000000000000000000000000000000000000000000000000000000000000000060048111156109f3576109f36125c9565b905080600003611f34576040517fc82fc46500000000000000000000000000000000000000000000000000000000815261ebf36004820152602401611690565b7f000000000000000000000000000000000000000000000000000000000000000073ffffffffffffffffffffffffffffffffffffffff16158015611faa575060037f00000000000000000000000000000000000000000000000000000000000000006004811115611fa757611fa76125c9565b14155b15611fb457919050565b6120a681836040518060a001604052807f000000000000000000000000000000000000000000000000000000000000000073ffffffffffffffffffffffffffffffffffffffff1681526020017f0000000000000000000000000000000000000000000000000000000000000000151581526020017f000000000000000000000000000000000000000000000000000000000000000081526020017f000000000000000000000000000000000000000000000000000000000000000081526020017f000000000000000000000000000000000000000000000000000000000000000060048111156109f3576109f36125c9565b9050806000036120e6576040517fc82fc46500000000000000000000000000000000000000000000000000000000815261ebf36004820152602401611690565b7f000000000000000000000000000000000000000000000000000000000000000073ffffffffffffffffffffffffffffffffffffffff1615801561215c575060037f00000000000000000000000000000000000000000000000000000000000000006004811115612159576121596125c9565b14155b1561216657919050565b61225881836040518060a001604052807f000000000000000000000000000000000000000000000000000000000000000073ffffffffffffffffffffffffffffffffffffffff1681526020017f0000000000000000000000000000000000000000000000000000000000000000151581526020017f000000000000000000000000000000000000000000000000000000000000000081526020017f000000000000000000000000000000000000000000000000000000000000000081526020017f000000000000000000000000000000000000000000000000000000000000000060048111156109f3576109f36125c9565b905080600003612298576040517fc82fc46500000000000000000000000000000000000000000000000000000000815261ebf36004820152602401611690565b919050565b600060018360048111156122b3576122b36125c9565b14806122d0575060028360048111156122ce576122ce6125c9565b145b156122e5576122de84612367565b9050612360565b60008360048111156122f9576122f96125c9565b03612308576122de84836123fe565b600483600481111561231c5761231c6125c9565b0361232a576122de8461251f565b6040517fc82fc46500000000000000000000000000000000000000000000000000000000815261ebf26004820152602401611690565b9392505050565b60008173ffffffffffffffffffffffffffffffffffffffff1663feaf968c6040518163ffffffff1660e01b815260040160a060405180830381865afa9250505080156123ee575060408051601f3d9081017fffffffffffffffffffffffffffffffffffffffffffffffffffffffffffffffe01682019092526123eb9181019061292c565b60015b1561229857509195945050505050565b60008115612497578273ffffffffffffffffffffffffffffffffffffffff16638e7bfbc06040518163ffffffff1660e01b8152600401602060405180830381865afa92505050801561248b575060408051601f3d9081017fffffffffffffffffffffffffffffffffffffffffffffffffffffffffffffffe016820190925261248891810190612a27565b60015b15612519579050612519565b8273ffffffffffffffffffffffffffffffffffffffff1663f3190c896040518163ffffffff1660e01b8152600401602060405180830381865afa92505050801561248b575060408051601f3d9081017fffffffffffffffffffffffffffffffffffffffffffffffffffffffffffffffe016820190925261248891810190612a27565b92915050565b600073ffffffffffffffffffffffffffffffffffffffff82166307a2d13a612549601b600a612906565b6040518263ffffffff1660e01b815260040161256791815260200190565b602060405180830381865afa9250505080156125be575060408051601f3d9081017fffffffffffffffffffffffffffffffffffffffffffffffffffffffffffffffe01682019092526125bb91810190612a27565b60015b156122985792915050565b7f4e487b7100000000000000000000000000000000000000000000000000000000600052602160045260246000fd5b60208082528251828201819052600091906040908185019086840185805b838110156126a7578251805173ffffffffffffffffffffffffffffffffffffffff168652878101511515888701528681015187870152606080820151908701526080908101519060058210612692577f4e487b710000000000000000000000000000000000000000000000000000000084526021600452602484fd5b86015260a09094019391860191600101612616565b509298975050505050505050565b600060208083528351808285015260005b818110156126e2578581018301518582016040015282016126c6565b5060006040828601015260407fffffffffffffffffffffffffffffffffffffffffffffffffffffffffffffffe0601f8301168501019250505092915050565b7f4e487b7100000000000000000000000000000000000000000000000000000000600052604160045260246000fd5b7f4e487b7100000000000000000000000000000000000000000000000000000000600052603260045260246000fd5b7f4e487b7100000000000000000000000000000000000000000000000000000000600052601160045260246000fd5b60007fffffffffffffffffffffffffffffffffffffffffffffffffffffffffffffffff82036127df576127df61277f565b5060010190565b600181815b8085111561283f57817fffffffffffffffffffffffffffffffffffffffffffffffffffffffffffffffff048211156128255761282561277f565b8085161561283257918102915b93841c93908002906127eb565b509250929050565b60008261285657506001612519565b8161286357506000612519565b816001811461287957600281146128835761289f565b6001915050612519565b60ff8411156128945761289461277f565b50506001821b612519565b5060208310610133831016604e8410600b84101617156128c2575081810a612519565b6128cc83836127e6565b807fffffffffffffffffffffffffffffffffffffffffffffffffffffffffffffffff048211156128fe576128fe61277f565b029392505050565b60006123608383612847565b805169ffffffffffffffffffff8116811461229857600080fd5b600080600080600060a0868803121561294457600080fd5b61294d86612912565b945060208601519350604086015192506060860151915061297060808701612912565b90509295509295909350565b69ffffffffffffffffffff8181168382160190808211156108e3576108e361277f565b80820281158282048414176125195761251961277f565b6000826129ec577f4e487b7100000000000000000000000000000000000000000000000000000000600052601260045260246000fd5b500490565b69ffffffffffffffffffff8281168282160390808211156108e3576108e361277f565b818103818111156125195761251961277f565b600060208284031215612a3957600080fd5b505191905056fea264697066735822122001e5e640f77987bd9e790673e211193ea03898ad25783c9e8b42a138a54df13664736f6c63430008150033"
}