{
  "address": "0xdF4d3272FfAE8036d9a2E1626Df2Db5863b4b302",
  "abi": [
    {
      "inputs": [
        {
          "internalType": "contract IFluidLendingFactory",
          "name": "lendingFactory_",
          "type": "address"
        },
        {
          "internalType": "contract IFluidLiquidityResolver",
          "name": "liquidityResolver_",
          "type": "address"
        }
      ],
      "stateMutability": "nonpayable",
      "type": "constructor"
    },
    {
      "inputs": [],
      "name": "FluidLendingResolver__AddressZero",
      "type": "error"
    },
    {
      "inputs": [],
      "name": "LENDING_FACTORY",
      "outputs": [
        {
          "internalType": "contract IFluidLendingFactory",
          "name": "",
          "type": "address"
        }
      ],
      "stateMutability": "view",
      "type": "function"
    },
    {
      "inputs": [],
      "name": "LIQUIDITY_RESOLVER",
      "outputs": [
        {
          "internalType": "contract IFluidLiquidityResolver",
          "name": "",
          "type": "address"
        }
      ],
      "stateMutability": "view",
      "type": "function"
    },
    {
      "inputs": [
        {
          "internalType": "address",
          "name": "asset_",
          "type": "address"
        },
        {
          "internalType": "string",
          "name": "fTokenType_",
          "type": "string"
        }
      ],
      "name": "computeFToken",
      "outputs": [
        {
          "internalType": "address",
          "name": "",
          "type": "address"
        }
      ],
      "stateMutability": "view",
      "type": "function"
    },
    {
      "inputs": [],
      "name": "getAllFTokenTypes",
      "outputs": [
        {
          "internalType": "string[]",
          "name": "",
          "type": "string[]"
        }
      ],
      "stateMutability": "view",
      "type": "function"
    },
    {
      "inputs": [],
      "name": "getAllFTokens",
      "outputs": [
        {
          "internalType": "address[]",
          "name": "",
          "type": "address[]"
        }
      ],
      "stateMutability": "view",
      "type": "function"
    },
    {
      "inputs": [
        {
          "internalType": "contract IFToken",
          "name": "fToken_",
          "type": "address"
        }
      ],
      "name": "getFTokenDetails",
      "outputs": [
        {
          "components": [
            {
              "internalType": "address",
              "name": "tokenAddress",
              "type": "address"
            },
            {
              "internalType": "bool",
              "name": "eip2612Deposits",
              "type": "bool"
            },
            {
              "internalType": "bool",
              "name": "isNativeUnderlying",
              "type": "bool"
            },
            {
              "internalType": "string",
              "name": "name",
              "type": "string"
            },
            {
              "internalType": "string",
              "name": "symbol",
              "type": "string"
            },
            {
              "internalType": "uint256",
              "name": "decimals",
              "type": "uint256"
            },
            {
              "internalType": "address",
              "name": "asset",
              "type": "address"
            },
            {
              "internalType": "uint256",
              "name": "totalAssets",
              "type": "uint256"
            },
            {
              "internalType": "uint256",
              "name": "totalSupply",
              "type": "uint256"
            },
            {
              "internalType": "uint256",
              "name": "convertToShares",
              "type": "uint256"
            },
            {
              "internalType": "uint256",
              "name": "convertToAssets",
              "type": "uint256"
            },
            {
              "internalType": "uint256",
              "name": "rewardsRate",
              "type": "uint256"
            },
            {
              "internalType": "uint256",
              "name": "supplyRate",
              "type": "uint256"
            },
            {
              "internalType": "int256",
              "name": "rebalanceDifference",
              "type": "int256"
            },
            {
              "components": [
                {
                  "internalType": "bool",
                  "name": "modeWithInterest",
                  "type": "bool"
                },
                {
                  "internalType": "uint256",
                  "name": "supply",
                  "type": "uint256"
                },
                {
                  "internalType": "uint256",
                  "name": "withdrawalLimit",
                  "type": "uint256"
                },
                {
                  "internalType": "uint256",
                  "name": "lastUpdateTimestamp",
                  "type": "uint256"
                },
                {
                  "internalType": "uint256",
                  "name": "expandPercent",
                  "type": "uint256"
                },
                {
                  "internalType": "uint256",
                  "name": "expandDuration",
                  "type": "uint256"
                },
                {
                  "internalType": "uint256",
                  "name": "baseWithdrawalLimit",
                  "type": "uint256"
                },
                {
                  "internalType": "uint256",
                  "name": "withdrawableUntilLimit",
                  "type": "uint256"
                },
                {
                  "internalType": "uint256",
                  "name": "withdrawable",
                  "type": "uint256"
                }
              ],
              "internalType": "struct Structs.UserSupplyData",
              "name": "liquidityUserSupplyData",
              "type": "tuple"
            }
          ],
          "internalType": "struct Structs.FTokenDetails",
          "name": "fTokenDetails_",
          "type": "tuple"
        }
      ],
      "stateMutability": "view",
      "type": "function"
    },
    {
      "inputs": [
        {
          "internalType": "contract IFToken",
          "name": "fToken_",
          "type": "address"
        }
      ],
      "name": "getFTokenInternalData",
      "outputs": [
        {
          "internalType": "contract IFluidLiquidity",
          "name": "liquidity_",
          "type": "address"
        },
        {
          "internalType": "contract IFluidLendingFactory",
          "name": "lendingFactory_",
          "type": "address"
        },
        {
          "internalType": "contract IFluidLendingRewardsRateModel",
          "name": "lendingRewardsRateModel_",
          "type": "address"
        },
        {
          "internalType": "contract IAllowanceTransfer",
          "name": "permit2_",
          "type": "address"
        },
        {
          "internalType": "address",
          "name": "rebalancer_",
          "type": "address"
        },
        {
          "internalType": "bool",
          "name": "rewardsActive_",
          "type": "bool"
        },
        {
          "internalType": "uint256",
          "name": "liquidityBalance_",
          "type": "uint256"
        },
        {
          "internalType": "uint256",
          "name": "liquidityExchangePrice_",
          "type": "uint256"
        },
        {
          "internalType": "uint256",
          "name": "tokenExchangePrice_",
          "type": "uint256"
        }
      ],
      "stateMutability": "view",
      "type": "function"
    },
    {
      "inputs": [
        {
          "internalType": "contract IFToken",
          "name": "fToken_",
          "type": "address"
        }
      ],
      "name": "getFTokenRewards",
      "outputs": [
        {
          "internalType": "contract IFluidLendingRewardsRateModel",
          "name": "rewardsRateModel_",
          "type": "address"
        },
        {
          "internalType": "uint256",
          "name": "rewardsRate_",
          "type": "uint256"
        }
      ],
      "stateMutability": "view",
      "type": "function"
    },
    {
      "inputs": [
        {
          "internalType": "contract IFToken",
          "name": "fToken_",
          "type": "address"
        }
      ],
      "name": "getFTokenRewardsRateModelConfig",
      "outputs": [
        {
          "internalType": "uint256",
          "name": "duration_",
          "type": "uint256"
        },
        {
          "internalType": "uint256",
          "name": "startTime_",
          "type": "uint256"
        },
        {
          "internalType": "uint256",
          "name": "endTime_",
          "type": "uint256"
        },
        {
          "internalType": "uint256",
          "name": "startTvl_",
          "type": "uint256"
        },
        {
          "internalType": "uint256",
          "name": "maxRate_",
          "type": "uint256"
        },
        {
          "internalType": "uint256",
          "name": "rewardAmount_",
          "type": "uint256"
        },
        {
          "internalType": "address",
          "name": "initiator_",
          "type": "address"
        }
      ],
      "stateMutability": "view",
      "type": "function"
    },
    {
      "inputs": [],
      "name": "getFTokensEntireData",
      "outputs": [
        {
          "components": [
            {
              "internalType": "address",
              "name": "tokenAddress",
              "type": "address"
            },
            {
              "internalType": "bool",
              "name": "eip2612Deposits",
              "type": "bool"
            },
            {
              "internalType": "bool",
              "name": "isNativeUnderlying",
              "type": "bool"
            },
            {
              "internalType": "string",
              "name": "name",
              "type": "string"
            },
            {
              "internalType": "string",
              "name": "symbol",
              "type": "string"
            },
            {
              "internalType": "uint256",
              "name": "decimals",
              "type": "uint256"
            },
            {
              "internalType": "address",
              "name": "asset",
              "type": "address"
            },
            {
              "internalType": "uint256",
              "name": "totalAssets",
              "type": "uint256"
            },
            {
              "internalType": "uint256",
              "name": "totalSupply",
              "type": "uint256"
            },
            {
              "internalType": "uint256",
              "name": "convertToShares",
              "type": "uint256"
            },
            {
              "internalType": "uint256",
              "name": "convertToAssets",
              "type": "uint256"
            },
            {
              "internalType": "uint256",
              "name": "rewardsRate",
              "type": "uint256"
            },
            {
              "internalType": "uint256",
              "name": "supplyRate",
              "type": "uint256"
            },
            {
              "internalType": "int256",
              "name": "rebalanceDifference",
              "type": "int256"
            },
            {
              "components": [
                {
                  "internalType": "bool",
                  "name": "modeWithInterest",
                  "type": "bool"
                },
                {
                  "internalType": "uint256",
                  "name": "supply",
                  "type": "uint256"
                },
                {
                  "internalType": "uint256",
                  "name": "withdrawalLimit",
                  "type": "uint256"
                },
                {
                  "internalType": "uint256",
                  "name": "lastUpdateTimestamp",
                  "type": "uint256"
                },
                {
                  "internalType": "uint256",
                  "name": "expandPercent",
                  "type": "uint256"
                },
                {
                  "internalType": "uint256",
                  "name": "expandDuration",
                  "type": "uint256"
                },
                {
                  "internalType": "uint256",
                  "name": "baseWithdrawalLimit",
                  "type": "uint256"
                },
                {
                  "internalType": "uint256",
                  "name": "withdrawableUntilLimit",
                  "type": "uint256"
                },
                {
                  "internalType": "uint256",
                  "name": "withdrawable",
                  "type": "uint256"
                }
              ],
              "internalType": "struct Structs.UserSupplyData",
              "name": "liquidityUserSupplyData",
              "type": "tuple"
            }
          ],
          "internalType": "struct Structs.FTokenDetails[]",
          "name": "",
          "type": "tuple[]"
        }
      ],
      "stateMutability": "view",
      "type": "function"
    },
    {
      "inputs": [
        {
          "internalType": "contract IFToken",
          "name": "fToken_",
          "type": "address"
        },
        {
          "internalType": "uint256",
          "name": "assets_",
          "type": "uint256"
        },
        {
          "internalType": "uint256",
          "name": "shares_",
          "type": "uint256"
        }
      ],
      "name": "getPreviews",
      "outputs": [
        {
          "internalType": "uint256",
          "name": "previewDeposit_",
          "type": "uint256"
        },
        {
          "internalType": "uint256",
          "name": "previewMint_",
          "type": "uint256"
        },
        {
          "internalType": "uint256",
          "name": "previewWithdraw_",
          "type": "uint256"
        },
        {
          "internalType": "uint256",
          "name": "previewRedeem_",
          "type": "uint256"
        }
      ],
      "stateMutability": "view",
      "type": "function"
    },
    {
      "inputs": [
        {
          "internalType": "contract IFToken",
          "name": "fToken_",
          "type": "address"
        },
        {
          "internalType": "address",
          "name": "user_",
          "type": "address"
        }
      ],
      "name": "getUserPosition",
      "outputs": [
        {
          "components": [
            {
              "internalType": "uint256",
              "name": "fTokenShares",
              "type": "uint256"
            },
            {
              "internalType": "uint256",
              "name": "underlyingAssets",
              "type": "uint256"
            },
            {
              "internalType": "uint256",
              "name": "underlyingBalance",
              "type": "uint256"
            },
            {
              "internalType": "uint256",
              "name": "allowance",
              "type": "uint256"
            }
          ],
          "internalType": "struct Structs.UserPosition",
          "name": "userPosition",
          "type": "tuple"
        }
      ],
      "stateMutability": "view",
      "type": "function"
    },
    {
      "inputs": [
        {
          "internalType": "address",
          "name": "user_",
          "type": "address"
        }
      ],
      "name": "getUserPositions",
      "outputs": [
        {
          "components": [
            {
              "components": [
                {
                  "internalType": "address",
                  "name": "tokenAddress",
                  "type": "address"
                },
                {
                  "internalType": "bool",
                  "name": "eip2612Deposits",
                  "type": "bool"
                },
                {
                  "internalType": "bool",
                  "name": "isNativeUnderlying",
                  "type": "bool"
                },
                {
                  "internalType": "string",
                  "name": "name",
                  "type": "string"
                },
                {
                  "internalType": "string",
                  "name": "symbol",
                  "type": "string"
                },
                {
                  "internalType": "uint256",
                  "name": "decimals",
                  "type": "uint256"
                },
                {
                  "internalType": "address",
                  "name": "asset",
                  "type": "address"
                },
                {
                  "internalType": "uint256",
                  "name": "totalAssets",
                  "type": "uint256"
                },
                {
                  "internalType": "uint256",
                  "name": "totalSupply",
                  "type": "uint256"
                },
                {
                  "internalType": "uint256",
                  "name": "convertToShares",
                  "type": "uint256"
                },
                {
                  "internalType": "uint256",
                  "name": "convertToAssets",
                  "type": "uint256"
                },
                {
                  "internalType": "uint256",
                  "name": "rewardsRate",
                  "type": "uint256"
                },
                {
                  "internalType": "uint256",
                  "name": "supplyRate",
                  "type": "uint256"
                },
                {
                  "internalType": "int256",
                  "name": "rebalanceDifference",
                  "type": "int256"
                },
                {
                  "components": [
                    {
                      "internalType": "bool",
                      "name": "modeWithInterest",
                      "type": "bool"
                    },
                    {
                      "internalType": "uint256",
                      "name": "supply",
                      "type": "uint256"
                    },
                    {
                      "internalType": "uint256",
                      "name": "withdrawalLimit",
                      "type": "uint256"
                    },
                    {
                      "internalType": "uint256",
                      "name": "lastUpdateTimestamp",
                      "type": "uint256"
                    },
                    {
                      "internalType": "uint256",
                      "name": "expandPercent",
                      "type": "uint256"
                    },
                    {
                      "internalType": "uint256",
                      "name": "expandDuration",
                      "type": "uint256"
                    },
                    {
                      "internalType": "uint256",
                      "name": "baseWithdrawalLimit",
                      "type": "uint256"
                    },
                    {
                      "internalType": "uint256",
                      "name": "withdrawableUntilLimit",
                      "type": "uint256"
                    },
                    {
                      "internalType": "uint256",
                      "name": "withdrawable",
                      "type": "uint256"
                    }
                  ],
                  "internalType": "struct Structs.UserSupplyData",
                  "name": "liquidityUserSupplyData",
                  "type": "tuple"
                }
              ],
              "internalType": "struct Structs.FTokenDetails",
              "name": "fTokenDetails",
              "type": "tuple"
            },
            {
              "components": [
                {
                  "internalType": "uint256",
                  "name": "fTokenShares",
                  "type": "uint256"
                },
                {
                  "internalType": "uint256",
                  "name": "underlyingAssets",
                  "type": "uint256"
                },
                {
                  "internalType": "uint256",
                  "name": "underlyingBalance",
                  "type": "uint256"
                },
                {
                  "internalType": "uint256",
                  "name": "allowance",
                  "type": "uint256"
                }
              ],
              "internalType": "struct Structs.UserPosition",
              "name": "userPosition",
              "type": "tuple"
            }
          ],
          "internalType": "struct Structs.FTokenDetailsUserPosition[]",
          "name": "",
          "type": "tuple[]"
        }
      ],
      "stateMutability": "view",
      "type": "function"
    },
    {
      "inputs": [
        {
          "internalType": "address",
          "name": "auth_",
          "type": "address"
        }
      ],
      "name": "isLendingFactoryAuth",
      "outputs": [
        {
          "internalType": "bool",
          "name": "",
          "type": "bool"
        }
      ],
      "stateMutability": "view",
      "type": "function"
    },
    {
      "inputs": [
        {
          "internalType": "address",
          "name": "deployer_",
          "type": "address"
        }
      ],
      "name": "isLendingFactoryDeployer",
      "outputs": [
        {
          "internalType": "bool",
          "name": "",
          "type": "bool"
        }
      ],
      "stateMutability": "view",
      "type": "function"
    }
  ],
  "args": [
    "0x54B91A0D94cb471F37f949c60F7Fa7935b551D03",
    "0x46859d33E662d4bF18eEED88f74C36256E606e44"
  ],
  "numDeployments": 2,
  "solcInputHash": "09ef5f25427412692b8e9ff1980d94df",
  "bytecode": "0x60c06040523480156200001157600080fd5b5060405162002afd38038062002afd8339810160408190526200003491620000a2565b6001600160a01b03821615806200005257506001600160a01b038116155b1562000071576040516314a3366960e11b815260040160405180910390fd5b6001600160a01b039182166080521660a052620000e1565b6001600160a01b03811681146200009f57600080fd5b50565b60008060408385031215620000b657600080fd5b8251620000c38162000089565b6020840151909250620000d68162000089565b809150509250929050565b60805160a0516129cc62000131600039600081816101c001526112760152600081816102f2015281816108940152818161094c01528181610a4301528181610aff0152610b7001526129cc6000f3fe608060405234801561001057600080fd5b50600436106100f55760003560e01c80637a923a4d1161009757806396bac9311161006657806396bac931146102ed578063c4877f3a14610314578063d7a6fdb014610372578063e26533a31461039257600080fd5b80637a923a4d1461022a5780638ac9aad91461023d5780638c0293321461025057806392a576e6146102cd57600080fd5b80634af955c8116100d35780634af955c8146101915780634ec1e916146101a65780636902f79f146101bb57806370f53bc01461020757600080fd5b806314a287ab146100fa5780632a6bc2dd1461013e5780633caa319f1461015e575b600080fd5b61010d610108366004611a95565b6103a7565b6040805173ffffffffffffffffffffffffffffffffffffffff90931683526020830191909152015b60405180910390f35b61015161014c366004611a95565b610549565b6040516101359190611c90565b61017161016c366004611d51565b61064d565b604080519485526020850193909352918301526060820152608001610135565b610199610890565b6040516101359190611d86565b6101ae610948565b6040516101359190611de0565b6101e27f000000000000000000000000000000000000000000000000000000000000000081565b60405173ffffffffffffffffffffffffffffffffffffffff9091168152602001610135565b61021a610215366004611a95565b6109fb565b6040519015158152602001610135565b61021a610238366004611a95565b610ab7565b6101e261024b366004611e53565b610b30565b61026361025e366004611a95565b610bf2565b6040805173ffffffffffffffffffffffffffffffffffffffff9a8b168152988a1660208a0152968916968801969096529387166060870152959091166080850152151560a084015260c083019390935260e082019290925261010081019190915261012001610135565b6102e06102db366004611ed8565b610c8f565b6040516101359190611f11565b6101e27f000000000000000000000000000000000000000000000000000000000000000081565b610327610322366004611a95565b610f92565b604080519788526020880196909652948601939093526060850191909152608084015260a083015273ffffffffffffffffffffffffffffffffffffffff1660c082015260e001610135565b610385610380366004611a95565b6110c4565b6040516101359190611f3c565b61039a611879565b6040516101359190611f4f565b60008060008373ffffffffffffffffffffffffffffffffffffffff16633bc5de306040518163ffffffff1660e01b815260040161012060405180830381865afa1580156103f8573d6000803e3d6000fd5b505050506040513d601f19601f8201168201806040525081019061041c9190611fd7565b50949950909650869550508415935061044e92505050575073ffffffffffffffffffffffffffffffffffffffff831615155b15610543578273ffffffffffffffffffffffffffffffffffffffff1663577640948573ffffffffffffffffffffffffffffffffffffffff166301e1d1146040518163ffffffff1660e01b8152600401602060405180830381865afa1580156104ba573d6000803e3d6000fd5b505050506040513d601f19601f820116820180604052508101906104de9190612078565b6040518263ffffffff1660e01b81526004016104fc91815260200190565b606060405180830381865afa158015610519573d6000803e3d6000fd5b505050506040513d601f19601f8201168201806040525081019061053d9190612091565b50909250505b50915091565b60606000610555611879565b90506000815167ffffffffffffffff811115610573576105736120c6565b6040519080825280602002602001820160405280156105ac57816020015b610599611939565b8152602001906001900390816105915790505b50905060005b8251811015610645578281815181106105cd576105cd6120f5565b60200260200101518282815181106105e7576105e76120f5565b60200260200101516000018190525061061d83828151811061060b5761060b6120f5565b60200260200101516000015186610c8f565b82828151811061062f5761062f6120f5565b60209081029190910181015101526001016105b2565b509392505050565b6000806000808673ffffffffffffffffffffffffffffffffffffffff1663ef8b30f7876040518263ffffffff1660e01b815260040161068e91815260200190565b602060405180830381865afa1580156106ab573d6000803e3d6000fd5b505050506040513d601f19601f820116820180604052508101906106cf9190612078565b6040517fb3d7f6b90000000000000000000000000000000000000000000000000000000081526004810187905290945073ffffffffffffffffffffffffffffffffffffffff88169063b3d7f6b990602401602060405180830381865afa15801561073d573d6000803e3d6000fd5b505050506040513d601f19601f820116820180604052508101906107619190612078565b6040517f0a28a4770000000000000000000000000000000000000000000000000000000081526004810188905290935073ffffffffffffffffffffffffffffffffffffffff881690630a28a47790602401602060405180830381865afa1580156107cf573d6000803e3d6000fd5b505050506040513d601f19601f820116820180604052508101906107f39190612078565b6040517f4cdad5060000000000000000000000000000000000000000000000000000000081526004810187905290925073ffffffffffffffffffffffffffffffffffffffff881690634cdad50690602401602060405180830381865afa158015610861573d6000803e3d6000fd5b505050506040513d601f19601f820116820180604052508101906108859190612078565b905093509350935093565b60607f000000000000000000000000000000000000000000000000000000000000000073ffffffffffffffffffffffffffffffffffffffff16636ff97f1d6040518163ffffffff1660e01b8152600401600060405180830381865afa1580156108fd573d6000803e3d6000fd5b505050506040513d6000823e601f3d9081017fffffffffffffffffffffffffffffffffffffffffffffffffffffffffffffffe0168201604052610943919081019061222b565b905090565b60607f000000000000000000000000000000000000000000000000000000000000000073ffffffffffffffffffffffffffffffffffffffff1663dd179e3b6040518163ffffffff1660e01b8152600401600060405180830381865afa1580156109b5573d6000803e3d6000fd5b505050506040513d6000823e601f3d9081017fffffffffffffffffffffffffffffffffffffffffffffffffffffffffffffffe0168201604052610943919081019061234c565b6040517f2520e7ff00000000000000000000000000000000000000000000000000000000815273ffffffffffffffffffffffffffffffffffffffff82811660048301526000917f000000000000000000000000000000000000000000000000000000000000000090911690632520e7ff906024015b602060405180830381865afa158015610a8d573d6000803e3d6000fd5b505050506040513d601f19601f82011682018060405250810190610ab191906123fd565b92915050565b6040517f50c358a400000000000000000000000000000000000000000000000000000000815273ffffffffffffffffffffffffffffffffffffffff82811660048301526000917f0000000000000000000000000000000000000000000000000000000000000000909116906350c358a490602401610a70565b6040517fbb4a64d300000000000000000000000000000000000000000000000000000000815260009073ffffffffffffffffffffffffffffffffffffffff7f0000000000000000000000000000000000000000000000000000000000000000169063bb4a64d390610ba990879087908790600401612418565b602060405180830381865afa158015610bc6573d6000803e3d6000fd5b505050506040513d601f19601f82011682018060405250810190610bea9190612482565b949350505050565b60008060008060008060008060008973ffffffffffffffffffffffffffffffffffffffff16633bc5de306040518163ffffffff1660e01b815260040161012060405180830381865afa158015610c4c573d6000803e3d6000fd5b505050506040513d601f19601f82011682018060405250810190610c709190611fd7565b9850985098509850985098509850985098509193959799909294969850565b610cba6040518060800160405280600081526020016000815260200160008152602001600081525090565b60008373ffffffffffffffffffffffffffffffffffffffff166338d52e0f6040518163ffffffff1660e01b8152600401602060405180830381865afa158015610d07573d6000803e3d6000fd5b505050506040513d601f19601f82011682018060405250810190610d2b9190612482565b6040517f70a0823100000000000000000000000000000000000000000000000000000000815273ffffffffffffffffffffffffffffffffffffffff8581166004830152919250908516906370a0823190602401602060405180830381865afa158015610d9b573d6000803e3d6000fd5b505050506040513d601f19601f82011682018060405250810190610dbf9190612078565b8083526040517f07a2d13a000000000000000000000000000000000000000000000000000000008152600481019190915273ffffffffffffffffffffffffffffffffffffffff8516906307a2d13a90602401602060405180830381865afa158015610e2e573d6000803e3d6000fd5b505050506040513d601f19601f82011682018060405250810190610e529190612078565b60208301526040517f70a0823100000000000000000000000000000000000000000000000000000000815273ffffffffffffffffffffffffffffffffffffffff84811660048301528216906370a0823190602401602060405180830381865afa158015610ec3573d6000803e3d6000fd5b505050506040513d601f19601f82011682018060405250810190610ee79190612078565b604083810191909152517fdd62ed3e00000000000000000000000000000000000000000000000000000000815273ffffffffffffffffffffffffffffffffffffffff8481166004830152858116602483015282169063dd62ed3e90604401602060405180830381865afa158015610f62573d6000803e3d6000fd5b505050506040513d601f19601f82011682018060405250810190610f869190612078565b60608301525092915050565b6000806000806000806000808873ffffffffffffffffffffffffffffffffffffffff16633bc5de306040518163ffffffff1660e01b815260040161012060405180830381865afa158015610fea573d6000803e3d6000fd5b505050506040513d601f19601f8201168201806040525081019061100e9190611fd7565b50949750505073ffffffffffffffffffffffffffffffffffffffff86161594506110b89350505050578073ffffffffffffffffffffffffffffffffffffffff1663c3f909d46040518163ffffffff1660e01b815260040160e060405180830381865afa158015611082573d6000803e3d6000fd5b505050506040513d601f19601f820116820180604052508101906110a6919061249f565b959d50939b5091995097509550935091505b50919395979092949650565b6110cc611981565b60008273ffffffffffffffffffffffffffffffffffffffff166338d52e0f6040518163ffffffff1660e01b8152600401602060405180830381865afa158015611119573d6000803e3d6000fd5b505050506040513d601f19601f8201168201806040525081019061113d9190612482565b905060008373ffffffffffffffffffffffffffffffffffffffff1663df2ebdbb6040518163ffffffff1660e01b8152600401602060405180830381865afa9250505080156111c6575060408051601f3d9081017fffffffffffffffffffffffffffffffffffffffffffffffffffffffffffffffe01682019092526111c391810190612482565b60015b156111d15750600190505b60008273ffffffffffffffffffffffffffffffffffffffff16633644e5156040518163ffffffff1660e01b8152600401602060405180830381865afa925050508015611258575060408051601f3d9081017fffffffffffffffffffffffffffffffffffffffffffffffffffffffffffffffe016820190925261125591810190612078565b60015b156112635750600190505b600061126e866103a7565b9150506000807f000000000000000000000000000000000000000000000000000000000000000073ffffffffffffffffffffffffffffffffffffffff1663e72ef91b89876112bc57886112d2565b73eeeeeeeeeeeeeeeeeeeeeeeeeeeeeeeeeeeeeeee5b6040517fffffffff0000000000000000000000000000000000000000000000000000000060e085901b16815273ffffffffffffffffffffffffffffffffffffffff9283166004820152911660248201526044016104c060405180830381865afa158015611343573d6000803e3d6000fd5b505050506040513d601f19601f82011682018060405250810190611367919061271a565b9150915060008873ffffffffffffffffffffffffffffffffffffffff166301e1d1146040518163ffffffff1660e01b8152600401602060405180830381865afa1580156113b8573d6000803e3d6000fd5b505050506040513d601f19601f820116820180604052508101906113dc9190612078565b9050604051806101e001604052808a73ffffffffffffffffffffffffffffffffffffffff168152602001861515815260200187151581526020018a73ffffffffffffffffffffffffffffffffffffffff166306fdde036040518163ffffffff1660e01b8152600401600060405180830381865afa158015611461573d6000803e3d6000fd5b505050506040513d6000823e601f3d9081017fffffffffffffffffffffffffffffffffffffffffffffffffffffffffffffffe01682016040526114a791908101906127c0565b81526020018a73ffffffffffffffffffffffffffffffffffffffff166395d89b416040518163ffffffff1660e01b8152600401600060405180830381865afa1580156114f7573d6000803e3d6000fd5b505050506040513d6000823e601f3d9081017fffffffffffffffffffffffffffffffffffffffffffffffffffffffffffffffe016820160405261153d91908101906127c0565b81526020018a73ffffffffffffffffffffffffffffffffffffffff1663313ce5676040518163ffffffff1660e01b8152600401602060405180830381865afa15801561158d573d6000803e3d6000fd5b505050506040513d601f19601f820116820180604052508101906115b191906127f5565b60ff1681526020018873ffffffffffffffffffffffffffffffffffffffff1681526020018281526020018a73ffffffffffffffffffffffffffffffffffffffff166318160ddd6040518163ffffffff1660e01b8152600401602060405180830381865afa158015611626573d6000803e3d6000fd5b505050506040513d601f19601f8201168201806040525081019061164a9190612078565b81526020018a73ffffffffffffffffffffffffffffffffffffffff1663c6e6f5928c73ffffffffffffffffffffffffffffffffffffffff1663313ce5676040518163ffffffff1660e01b8152600401602060405180830381865afa1580156116b6573d6000803e3d6000fd5b505050506040513d601f19601f820116820180604052508101906116da91906127f5565b6116e590600a612967565b6040518263ffffffff1660e01b815260040161170391815260200190565b602060405180830381865afa158015611720573d6000803e3d6000fd5b505050506040513d601f19601f820116820180604052508101906117449190612078565b81526020018a73ffffffffffffffffffffffffffffffffffffffff166307a2d13a8c73ffffffffffffffffffffffffffffffffffffffff1663313ce5676040518163ffffffff1660e01b8152600401602060405180830381865afa1580156117b0573d6000803e3d6000fd5b505050506040513d601f19601f820116820180604052508101906117d491906127f5565b6117df90600a612967565b6040518263ffffffff1660e01b81526004016117fd91815260200190565b602060405180830381865afa15801561181a573d6000803e3d6000fd5b505050506040513d601f19601f8201168201806040525081019061183e9190612078565b8152602001858152602001836020015181526020018285602001516118639190612976565b8152602001939093525090979650505050505050565b60606000611885610890565b90506000815167ffffffffffffffff8111156118a3576118a36120c6565b6040519080825280602002602001820160405280156118dc57816020015b6118c9611981565b8152602001906001900390816118c15790505b50905060005b82518110156119325761190d838281518110611900576119006120f5565b60200260200101516110c4565b82828151811061191f5761191f6120f5565b60209081029190910101526001016118e2565b5092915050565b604051806040016040528061194c611981565b815260200161197c6040518060800160405280600081526020016000815260200160008152602001600081525090565b905290565b604051806101e00160405280600073ffffffffffffffffffffffffffffffffffffffff168152602001600015158152602001600015158152602001606081526020016060815260200160008152602001600073ffffffffffffffffffffffffffffffffffffffff1681526020016000815260200160008152602001600081526020016000815260200160008152602001600081526020016000815260200161197c60405180610120016040528060001515815260200160008152602001600081526020016000815260200160008152602001600081526020016000815260200160008152602001600081525090565b73ffffffffffffffffffffffffffffffffffffffff81168114611a9257600080fd5b50565b600060208284031215611aa757600080fd5b8135611ab281611a70565b9392505050565b60005b83811015611ad4578181015183820152602001611abc565b50506000910152565b60008151808452611af5816020860160208601611ab9565b601f017fffffffffffffffffffffffffffffffffffffffffffffffffffffffffffffffe0169290920160200192915050565b805173ffffffffffffffffffffffffffffffffffffffff16825260006102e06020830151611b59602086018215159052565b506040830151611b6d604086018215159052565b506060830151816060860152611b8582860182611add565b91505060808301518482036080860152611b9f8282611add565b91505060a083015160a085015260c0830151611bd360c086018273ffffffffffffffffffffffffffffffffffffffff169052565b5060e08381015185820152610100808501518187015261012080860151908701526101408086015190870152610160808601519087015261018080860151908701526101a080860151908701526101c080860151805115158289015260208101516101e089015260408101516102008901526060810151610220890152608081015161024089015260a081015161026089015260c0810151610280890152928301516102a0880152908201516102c0870152905090949350505050565b6000602080830181845280855180835260408601915060408160051b870101925083870160005b82811015611d44577fffffffffffffffffffffffffffffffffffffffffffffffffffffffffffffffc0888603018452815160a08151818852611cfb82890182611b27565b915050878201519150611d3188880183805182526020810151602083015260408101516040830152606081015160608301525050565b9550509285019290850190600101611cb7565b5092979650505050505050565b600080600060608486031215611d6657600080fd5b8335611d7181611a70565b95602085013595506040909401359392505050565b6020808252825182820181905260009190848201906040850190845b81811015611dd457835173ffffffffffffffffffffffffffffffffffffffff1683529284019291840191600101611da2565b50909695505050505050565b6000602080830181845280855180835260408601915060408160051b870101925083870160005b82811015611d44577fffffffffffffffffffffffffffffffffffffffffffffffffffffffffffffffc0888603018452611e41858351611add565b94509285019290850190600101611e07565b600080600060408486031215611e6857600080fd5b8335611e7381611a70565b9250602084013567ffffffffffffffff80821115611e9057600080fd5b818601915086601f830112611ea457600080fd5b813581811115611eb357600080fd5b876020828501011115611ec557600080fd5b6020830194508093505050509250925092565b60008060408385031215611eeb57600080fd5b8235611ef681611a70565b91506020830135611f0681611a70565b809150509250929050565b8151815260208083015190820152604080830151908201526060808301519082015260808101610ab1565b602081526000611ab26020830184611b27565b6000602080830181845280855180835260408601915060408160051b870101925083870160005b82811015611d44577fffffffffffffffffffffffffffffffffffffffffffffffffffffffffffffffc0888603018452611fb0858351611b27565b94509285019290850190600101611f76565b80518015158114611fd257600080fd5b919050565b60008060008060008060008060006101208a8c031215611ff657600080fd5b895161200181611a70565b60208b015190995061201281611a70565b60408b015190985061202381611a70565b60608b015190975061203481611a70565b60808b015190965061204581611a70565b945061205360a08b01611fc2565b935060c08a0151925060e08a015191506101008a015190509295985092959850929598565b60006020828403121561208a57600080fd5b5051919050565b6000806000606084860312156120a657600080fd5b835192506120b660208501611fc2565b9150604084015190509250925092565b7f4e487b7100000000000000000000000000000000000000000000000000000000600052604160045260246000fd5b7f4e487b7100000000000000000000000000000000000000000000000000000000600052603260045260246000fd5b6040516060810167ffffffffffffffff81118282101715612147576121476120c6565b60405290565b60405160a0810167ffffffffffffffff81118282101715612147576121476120c6565b604051610220810167ffffffffffffffff81118282101715612147576121476120c6565b604051610120810167ffffffffffffffff81118282101715612147576121476120c6565b604051601f82017fffffffffffffffffffffffffffffffffffffffffffffffffffffffffffffffe016810167ffffffffffffffff811182821017156121ff576121ff6120c6565b604052919050565b600067ffffffffffffffff821115612221576122216120c6565b5060051b60200190565b6000602080838503121561223e57600080fd5b825167ffffffffffffffff81111561225557600080fd5b8301601f8101851361226657600080fd5b805161227961227482612207565b6121b8565b81815260059190911b8201830190838101908783111561229857600080fd5b928401925b828410156122bf5783516122b081611a70565b8252928401929084019061229d565b979650505050505050565b600082601f8301126122db57600080fd5b815167ffffffffffffffff8111156122f5576122f56120c6565b61232660207fffffffffffffffffffffffffffffffffffffffffffffffffffffffffffffffe0601f840116016121b8565b81815284602083860101111561233b57600080fd5b610bea826020830160208701611ab9565b6000602080838503121561235f57600080fd5b825167ffffffffffffffff8082111561237757600080fd5b818501915085601f83011261238b57600080fd5b815161239961227482612207565b81815260059190911b830184019084810190888311156123b857600080fd5b8585015b838110156123f0578051858111156123d45760008081fd5b6123e28b89838a01016122ca565b8452509186019186016123bc565b5098975050505050505050565b60006020828403121561240f57600080fd5b611ab282611fc2565b73ffffffffffffffffffffffffffffffffffffffff8416815260406020820152816040820152818360608301376000818301606090810191909152601f9092017fffffffffffffffffffffffffffffffffffffffffffffffffffffffffffffffe016010192915050565b60006020828403121561249457600080fd5b8151611ab281611a70565b600080600080600080600060e0888a0312156124ba57600080fd5b875196506020880151955060408801519450606088015193506080880151925060a0880151915060c08801516124ef81611a70565b8091505092959891949750929550565b600060e0828403121561251157600080fd5b60405160e0810181811067ffffffffffffffff82111715612534576125346120c6565b8060405250809150825161254781611a70565b808252506020830151602082015260408301516040820152606083015160608201526080830151608082015260a083015160a082015260c083015160c08201525092915050565b60008183036101a08112156125a257600080fd5b6125aa612124565b91508251825260a07fffffffffffffffffffffffffffffffffffffffffffffffffffffffffffffffe0820112156125e057600080fd5b506125e961214d565b60208301516125f781611a70565b8082525060408301516020820152606083015160408201526080830151606082015260a08301516080820152806020830152506126378360c084016124ff565b604082015292915050565b60006103a0828403121561265557600080fd5b61265d612170565b825181526020808401519082015260408084015190820152606080840151908201526080808401519082015260a0808401519082015260c0808401519082015260e08084015190820152610100808401519082015261012080840151908201526101408084015190820152610160808401519082015261018080840151908201526101a080840151908201526101c080840151908201526101e0808401519082015290506102006127108482850161258e565b9082015292915050565b6000808284036104c081121561272f57600080fd5b6101208082121561273f57600080fd5b612747612194565b915061275285611fc2565b82526020850151602083015260408501516040830152606085015160608301526080850151608083015260a085015160a083015260c085015160c083015260e085015160e08301526101008086015181840152508193506127b586828701612642565b925050509250929050565b6000602082840312156127d257600080fd5b815167ffffffffffffffff8111156127e957600080fd5b610bea848285016122ca565b60006020828403121561280757600080fd5b815160ff81168114611ab257600080fd5b7f4e487b7100000000000000000000000000000000000000000000000000000000600052601160045260246000fd5b600181815b808511156128a057817fffffffffffffffffffffffffffffffffffffffffffffffffffffffffffffffff0482111561288657612886612818565b8085161561289357918102915b93841c939080029061284c565b509250929050565b6000826128b757506001610ab1565b816128c457506000610ab1565b81600181146128da57600281146128e457612900565b6001915050610ab1565b60ff8411156128f5576128f5612818565b50506001821b610ab1565b5060208310610133831016604e8410600b8410161715612923575081810a610ab1565b61292d8383612847565b807fffffffffffffffffffffffffffffffffffffffffffffffffffffffffffffffff0482111561295f5761295f612818565b029392505050565b6000611ab260ff8416836128a8565b81810360008312801583831316838312821617156119325761193261281856fea26469706673582212203ae3733737f743fee31440a0dede3cb5c3f9169534053e32e77ada3ad229eb3864736f6c63430008150033",
  "devdoc": {
    "kind": "dev",
    "methods": {
      "computeFToken(address,string)": {
        "params": {
          "asset_": "address of the asset",
          "fTokenType_": "type of fToken: - if underlying asset supports EIP-2612, the fToken should be type `EIP2612Deposits` - otherwise it should use `Permit2Deposits` - if it's the native token, it should use `NativeUnderlying` - could be more types available, check `fTokenTypes()`"
        },
        "returns": {
          "_0": "token_      detemrinistic address of the computed token"
        }
      },
      "getFTokenDetails(address)": {
        "params": {
          "fToken_": "the fToken to get the details for"
        },
        "returns": {
          "fTokenDetails_": " retrieved FTokenDetails struct"
        }
      },
      "getFTokenInternalData(address)": {
        "params": {
          "fToken_": "the fToken to get the data for"
        },
        "returns": {
          "lendingFactory_": "address of the Lending factory contract.",
          "lendingRewardsRateModel_": "address of the rewards rate model contract. changeable by LendingFactory auths.",
          "liquidityBalance_": "current Liquidity supply balance of `address(this)` for the underyling asset",
          "liquidityExchangePrice_": "(updated) exchange price for the underlying assset in the liquidity protocol (without rewards)",
          "liquidity_": "address of the Liquidity contract.",
          "permit2_": "address of the Permit2 contract used for deposits / mint with signature",
          "rebalancer_": "address of the rebalancer allowed to execute `rebalance()`",
          "rewardsActive_": "true if rewards are currently active",
          "tokenExchangePrice_": "(updated) exchange price between fToken and the underlying assset (with rewards)"
        }
      },
      "getPreviews(address,uint256,uint256)": {
        "returns": {
          "previewDeposit_": "preview for deposit of `assets_`",
          "previewMint_": "preview for mint of `shares_`",
          "previewRedeem_": "preview for redeem of `shares_`",
          "previewWithdraw_": "preview for withdraw of `assets_`"
        }
      },
      "getUserPosition(address,address)": {
        "returns": {
          "userPosition": "user position struct"
        }
      }
    },
    "stateVariables": {
      "_NATIVE_TOKEN_ADDRESS": {
        "details": "address that is mapped to the chain native token"
      }
    },
    "version": 1
  },
  "userdoc": {
    "errors": {
      "FluidLendingResolver__AddressZero()": [
        {
          "notice": "thrown if an input param address is zero"
        }
      ]
    },
    "kind": "user",
    "methods": {
      "LENDING_FACTORY()": {
        "notice": "returns the lending factory address"
      },
      "LIQUIDITY_RESOLVER()": {
        "notice": "returns the liquidity resolver address"
      },
      "computeFToken(address,string)": {
        "notice": "computes deterministic token address for `asset_` for a lending protocol"
      },
      "constructor": {
        "notice": "constructor sets the immutable `LENDING_FACTORY` and `LIQUIDITY_RESOLVER` address"
      },
      "getAllFTokenTypes()": {
        "notice": "returns all fToken types at the `LENDING_FACTORY`"
      },
      "getAllFTokens()": {
        "notice": "returns all created fTokens at the `LENDING_FACTORY`"
      },
      "getFTokenDetails(address)": {
        "notice": "gets all public details for a certain `fToken_`, such as fToken type, name, symbol, decimals, underlying asset, total amounts, convertTo values, rewards. Note it also returns whether the fToken supports deposits / mints via EIP-2612, but it is not a 100% guarantee! To make sure, check for the underlying if it supports EIP-2612 manually."
      },
      "getFTokenInternalData(address)": {
        "notice": "returns config, rewards and exchange prices data of an fToken."
      },
      "getFTokenRewards(address)": {
        "notice": "gets rewards related data: the `rewardsRateModel_` contract and the current `rewardsRate_` for the `fToken_`"
      },
      "getFTokenRewardsRateModelConfig(address)": {
        "notice": "gets rewards rate model config constants"
      },
      "getFTokensEntireData()": {
        "notice": "gets all public details for all itokens, such as fToken type, name, symbol, decimals, underlying asset, total amounts, convertTo values, rewards"
      },
      "getPreviews(address,uint256,uint256)": {
        "notice": "gets `fToken_` preview amounts for `assets_` or `shares_`."
      },
      "getUserPosition(address,address)": {
        "notice": "gets a `user_` position for an `fToken_`."
      },
      "getUserPositions(address)": {
        "notice": "gets all public details for all itokens, such as fToken type, name, symbol, decimals, underlying asset, total amounts, convertTo values, rewards and user position for each token"
      },
      "isLendingFactoryAuth(address)": {
        "notice": "reads if a certain `auth_` address is an allowed auth or not. Owner is auth by default."
      },
      "isLendingFactoryDeployer(address)": {
        "notice": "reads if a certain `deployer_` address is an allowed deployer or not. Owner is deployer by default."
      }
    },
    "notice": "Fluid Lending protocol (fTokens) resolver Implements various view-only methods to give easy access to Lending protocol data.",
    "version": 1
  },
  "storageLayout": {
    "storage": [],
    "types": null
  }
}