{
  "address": "0x9A69715215eB352cf23e5407E5e6769648638512",
  "abi": [
    {
      "inputs": [],
      "name": "FUSDC",
      "outputs": [
        {
          "internalType": "contract IFToken",
          "name": "",
          "type": "address"
        }
      ],
      "stateMutability": "view",
      "type": "function"
    },
    {
      "inputs": [],
      "name": "FUSDC_STAKING",
      "outputs": [
        {
          "internalType": "contract IFluidLendingStakingRewards",
          "name": "",
          "type": "address"
        }
      ],
      "stateMutability": "view",
      "type": "function"
    },
    {
      "inputs": [],
      "name": "FUSDT",
      "outputs": [
        {
          "internalType": "contract IFToken",
          "name": "",
          "type": "address"
        }
      ],
      "stateMutability": "view",
      "type": "function"
    },
    {
      "inputs": [],
      "name": "FUSDT_STAKING",
      "outputs": [
        {
          "internalType": "contract IFluidLendingStakingRewards",
          "name": "",
          "type": "address"
        }
      ],
      "stateMutability": "view",
      "type": "function"
    },
    {
      "inputs": [
        {
          "internalType": "address[]",
          "name": "users_",
          "type": "address[]"
        },
        {
          "internalType": "contract IFToken",
          "name": "fToken_",
          "type": "address"
        },
        {
          "internalType": "contract IFluidLendingStakingRewards",
          "name": "stakingContract_",
          "type": "address"
        }
      ],
      "name": "getUsersPosition",
      "outputs": [
        {
          "components": [
            {
              "internalType": "address",
              "name": "user",
              "type": "address"
            },
            {
              "internalType": "uint256",
              "name": "shares",
              "type": "uint256"
            },
            {
              "internalType": "uint256",
              "name": "normalShares",
              "type": "uint256"
            },
            {
              "internalType": "uint256",
              "name": "stakeShares",
              "type": "uint256"
            }
          ],
          "internalType": "struct FluidStakingMerkleResolver.UserPosition[]",
          "name": "positions_",
          "type": "tuple[]"
        }
      ],
      "stateMutability": "view",
      "type": "function"
    },
    {
      "inputs": [
        {
          "internalType": "address[]",
          "name": "users_",
          "type": "address[]"
        }
      ],
      "name": "getUsersPositionFUSDC",
      "outputs": [
        {
          "components": [
            {
              "internalType": "address",
              "name": "user",
              "type": "address"
            },
            {
              "internalType": "uint256",
              "name": "shares",
              "type": "uint256"
            },
            {
              "internalType": "uint256",
              "name": "normalShares",
              "type": "uint256"
            },
            {
              "internalType": "uint256",
              "name": "stakeShares",
              "type": "uint256"
            }
          ],
          "internalType": "struct FluidStakingMerkleResolver.UserPosition[]",
          "name": "positions_",
          "type": "tuple[]"
        }
      ],
      "stateMutability": "view",
      "type": "function"
    },
    {
      "inputs": [
        {
          "internalType": "address[]",
          "name": "users_",
          "type": "address[]"
        }
      ],
      "name": "getUsersPositionFUSDT",
      "outputs": [
        {
          "components": [
            {
              "internalType": "address",
              "name": "user",
              "type": "address"
            },
            {
              "internalType": "uint256",
              "name": "shares",
              "type": "uint256"
            },
            {
              "internalType": "uint256",
              "name": "normalShares",
              "type": "uint256"
            },
            {
              "internalType": "uint256",
              "name": "stakeShares",
              "type": "uint256"
            }
          ],
          "internalType": "struct FluidStakingMerkleResolver.UserPosition[]",
          "name": "positions_",
          "type": "tuple[]"
        }
      ],
      "stateMutability": "view",
      "type": "function"
    }
  ],
  "transactionHash": "0xe736845a69b9f2daa2813df988435ece352f9959b4c53357394fbfdd4db1bf21",
  "args": [],
  "numDeployments": 1,
  "solcInputHash": "3af230032762a5ec5eabb04227a23d17",
  "bytecode": "0x608060405234801561001057600080fd5b506107fa806100206000396000f3fe608060405234801561001057600080fd5b506004361061007d5760003560e01c8063985410fd1161005b578063985410fd14610102578063a2a4cdb01461011d578063d608e20f14610138578063fcbdded11461014b57600080fd5b806323c358341461008257806352679591146100c75780637b3d134f146100e2575b600080fd5b61009d734a03f37e7d3fc243e3f99341d36f4b829bee5e0381565b60405173ffffffffffffffffffffffffffffffffffffffff90911681526020015b60405180910390f35b61009d7348f89d731c5e3b5bee8235162fc2c639ba62db7d81565b6100f56100f036600461058b565b61015e565b6040516100be91906105f3565b61009d7365241f6cacde58c03400cb84542a2c197d6de9c381565b61009d731a996cb54bb95462040408c06122d45d6cdb609681565b6100f561014636600461066d565b6104a5565b6100f561015936600461066d565b6104e4565b60608367ffffffffffffffff811115610179576101796106af565b6040519080825280602002602001820160405280156101eb57816020015b6101d86040518060800160405280600073ffffffffffffffffffffffffffffffffffffffff1681526020016000815260200160008152602001600081525090565b8152602001906001900390816101975790505b50905060005b8481101561049c5785858281811061020b5761020b6106de565b9050602002016020810190610220919061070d565b828281518110610232576102326106de565b602090810291909101015173ffffffffffffffffffffffffffffffffffffffff918216905284166370a08231878784818110610270576102706106de565b9050602002016020810190610285919061070d565b6040517fffffffff0000000000000000000000000000000000000000000000000000000060e084901b16815273ffffffffffffffffffffffffffffffffffffffff9091166004820152602401602060405180830381865afa1580156102ee573d6000803e3d6000fd5b505050506040513d601f19601f820116820180604052508101906103129190610731565b828281518110610324576103246106de565b602002602001015160400181815250508273ffffffffffffffffffffffffffffffffffffffff166370a08231878784818110610362576103626106de565b9050602002016020810190610377919061070d565b6040517fffffffff0000000000000000000000000000000000000000000000000000000060e084901b16815273ffffffffffffffffffffffffffffffffffffffff9091166004820152602401602060405180830381865afa1580156103e0573d6000803e3d6000fd5b505050506040513d601f19601f820116820180604052508101906104049190610731565b828281518110610416576104166106de565b60200260200101516060018181525050818181518110610438576104386106de565b602002602001015160600151828281518110610456576104566106de565b60200260200101516040015161046c9190610779565b82828151811061047e5761047e6106de565b60209081029190910181015101526104958161078c565b90506101f1565b50949350505050565b60606104db8383731a996cb54bb95462040408c06122d45d6cdb60967348f89d731c5e3b5bee8235162fc2c639ba62db7d61015e565b90505b92915050565b60606104db8383734a03f37e7d3fc243e3f99341d36f4b829bee5e037365241f6cacde58c03400cb84542a2c197d6de9c361015e565b60008083601f84011261052c57600080fd5b50813567ffffffffffffffff81111561054457600080fd5b6020830191508360208260051b850101111561055f57600080fd5b9250929050565b73ffffffffffffffffffffffffffffffffffffffff8116811461058857600080fd5b50565b600080600080606085870312156105a157600080fd5b843567ffffffffffffffff8111156105b857600080fd5b6105c48782880161051a565b90955093505060208501356105d881610566565b915060408501356105e881610566565b939692955090935050565b602080825282518282018190526000919060409081850190868401855b82811015610660578151805173ffffffffffffffffffffffffffffffffffffffff168552868101518786015285810151868601526060908101519085015260809093019290850190600101610610565b5091979650505050505050565b6000806020838503121561068057600080fd5b823567ffffffffffffffff81111561069757600080fd5b6106a38582860161051a565b90969095509350505050565b7f4e487b7100000000000000000000000000000000000000000000000000000000600052604160045260246000fd5b7f4e487b7100000000000000000000000000000000000000000000000000000000600052603260045260246000fd5b60006020828403121561071f57600080fd5b813561072a81610566565b9392505050565b60006020828403121561074357600080fd5b5051919050565b7f4e487b7100000000000000000000000000000000000000000000000000000000600052601160045260246000fd5b808201808211156104de576104de61074a565b60007fffffffffffffffffffffffffffffffffffffffffffffffffffffffffffffffff82036107bd576107bd61074a565b506001019056fea2646970667358221220bf6e778b1e6e6e046d9bd45c8e200894b1c391dd1742bb1bc0aef919634e0bc564736f6c63430008150033",
  "devdoc": {
    "kind": "dev",
    "methods": {},
    "version": 1
  },
  "userdoc": {
    "kind": "user",
    "methods": {},
    "notice": "Fluid Lending protocol Merkle Staking Rewards resolver for Arbitrum",
    "version": 1
  },
  "storageLayout": {
    "storage": [],
    "types": null
  }
}