{
  "address": "0x827B69A0fE822b44286C83D671EDa78Ee40F138D",
  "abi": [
    {
      "inputs": [
        {
          "internalType": "uint256",
          "name": "colLiquidated",
          "type": "uint256"
        },
        {
          "internalType": "uint256",
          "name": "debtLiquidated",
          "type": "uint256"
        }
      ],
      "name": "FluidLiquidateResult",
      "type": "error"
    },
    {
      "inputs": [
        {
          "internalType": "uint256",
          "name": "errorId_",
          "type": "uint256"
        }
      ],
      "name": "FluidSafeTransferError",
      "type": "error"
    },
    {
      "inputs": [
        {
          "internalType": "uint256",
          "name": "errorId_",
          "type": "uint256"
        }
      ],
      "name": "FluidVaultError",
      "type": "error"
    },
    {
      "anonymous": false,
      "inputs": [
        {
          "indexed": false,
          "internalType": "uint256[]",
          "name": "nftIds_",
          "type": "uint256[]"
        },
        {
          "indexed": false,
          "internalType": "uint256",
          "name": "absorbedDustDebt_",
          "type": "uint256"
        }
      ],
      "name": "LogAbsorbDustDebt",
      "type": "event"
    },
    {
      "anonymous": false,
      "inputs": [
        {
          "indexed": true,
          "internalType": "address",
          "name": "token_",
          "type": "address"
        }
      ],
      "name": "LogRescueFunds",
      "type": "event"
    },
    {
      "anonymous": false,
      "inputs": [
        {
          "indexed": false,
          "internalType": "uint256",
          "name": "borrowFee_",
          "type": "uint256"
        }
      ],
      "name": "LogUpdateBorrowFee",
      "type": "event"
    },
    {
      "anonymous": false,
      "inputs": [
        {
          "indexed": false,
          "internalType": "int256",
          "name": "borrowRate_",
          "type": "int256"
        }
      ],
      "name": "LogUpdateBorrowRate",
      "type": "event"
    },
    {
      "anonymous": false,
      "inputs": [
        {
          "indexed": false,
          "internalType": "uint256",
          "name": "collateralFactor_",
          "type": "uint256"
        }
      ],
      "name": "LogUpdateCollateralFactor",
      "type": "event"
    },
    {
      "anonymous": false,
      "inputs": [
        {
          "indexed": false,
          "internalType": "int256",
          "name": "supplyRate_",
          "type": "int256"
        },
        {
          "indexed": false,
          "internalType": "int256",
          "name": "borrowRate_",
          "type": "int256"
        },
        {
          "indexed": false,
          "internalType": "uint256",
          "name": "collateralFactor_",
          "type": "uint256"
        },
        {
          "indexed": false,
          "internalType": "uint256",
          "name": "liquidationThreshold_",
          "type": "uint256"
        },
        {
          "indexed": false,
          "internalType": "uint256",
          "name": "liquidationMaxLimit_",
          "type": "uint256"
        },
        {
          "indexed": false,
          "internalType": "uint256",
          "name": "withdrawGap_",
          "type": "uint256"
        },
        {
          "indexed": false,
          "internalType": "uint256",
          "name": "liquidationPenalty_",
          "type": "uint256"
        },
        {
          "indexed": false,
          "internalType": "uint256",
          "name": "borrowFee_",
          "type": "uint256"
        }
      ],
      "name": "LogUpdateCoreSettings",
      "type": "event"
    },
    {
      "anonymous": false,
      "inputs": [
        {
          "indexed": false,
          "internalType": "uint256",
          "name": "liquidationMaxLimit_",
          "type": "uint256"
        }
      ],
      "name": "LogUpdateLiquidationMaxLimit",
      "type": "event"
    },
    {
      "anonymous": false,
      "inputs": [
        {
          "indexed": false,
          "internalType": "uint256",
          "name": "liquidationPenalty_",
          "type": "uint256"
        }
      ],
      "name": "LogUpdateLiquidationPenalty",
      "type": "event"
    },
    {
      "anonymous": false,
      "inputs": [
        {
          "indexed": false,
          "internalType": "uint256",
          "name": "liquidationThreshold_",
          "type": "uint256"
        }
      ],
      "name": "LogUpdateLiquidationThreshold",
      "type": "event"
    },
    {
      "anonymous": false,
      "inputs": [
        {
          "indexed": true,
          "internalType": "uint256",
          "name": "deploymentNonce_",
          "type": "uint256"
        },
        {
          "indexed": true,
          "internalType": "address",
          "name": "newOracle_",
          "type": "address"
        }
      ],
      "name": "LogUpdateOracle",
      "type": "event"
    },
    {
      "anonymous": false,
      "inputs": [
        {
          "indexed": true,
          "internalType": "address",
          "name": "newRebalancer_",
          "type": "address"
        }
      ],
      "name": "LogUpdateRebalancer",
      "type": "event"
    },
    {
      "anonymous": false,
      "inputs": [
        {
          "indexed": false,
          "internalType": "int256",
          "name": "supplyRate_",
          "type": "int256"
        }
      ],
      "name": "LogUpdateSupplyRate",
      "type": "event"
    },
    {
      "anonymous": false,
      "inputs": [
        {
          "indexed": false,
          "internalType": "uint256",
          "name": "withdrawGap_",
          "type": "uint256"
        }
      ],
      "name": "LogUpdateWithdrawGap",
      "type": "event"
    },
    {
      "inputs": [
        {
          "internalType": "uint256[]",
          "name": "nftIds_",
          "type": "uint256[]"
        }
      ],
      "name": "absorbDustDebt",
      "outputs": [],
      "stateMutability": "nonpayable",
      "type": "function"
    },
    {
      "inputs": [
        {
          "internalType": "address",
          "name": "token_",
          "type": "address"
        }
      ],
      "name": "rescueFunds",
      "outputs": [],
      "stateMutability": "nonpayable",
      "type": "function"
    },
    {
      "inputs": [
        {
          "internalType": "uint256",
          "name": "borrowFee_",
          "type": "uint256"
        }
      ],
      "name": "updateBorrowFee",
      "outputs": [],
      "stateMutability": "nonpayable",
      "type": "function"
    },
    {
      "inputs": [
        {
          "internalType": "int256",
          "name": "borrowRate_",
          "type": "int256"
        }
      ],
      "name": "updateBorrowRate",
      "outputs": [],
      "stateMutability": "nonpayable",
      "type": "function"
    },
    {
      "inputs": [
        {
          "internalType": "uint256",
          "name": "collateralFactor_",
          "type": "uint256"
        }
      ],
      "name": "updateCollateralFactor",
      "outputs": [],
      "stateMutability": "nonpayable",
      "type": "function"
    },
    {
      "inputs": [
        {
          "internalType": "int256",
          "name": "supplyRate_",
          "type": "int256"
        },
        {
          "internalType": "int256",
          "name": "borrowRate_",
          "type": "int256"
        },
        {
          "internalType": "uint256",
          "name": "collateralFactor_",
          "type": "uint256"
        },
        {
          "internalType": "uint256",
          "name": "liquidationThreshold_",
          "type": "uint256"
        },
        {
          "internalType": "uint256",
          "name": "liquidationMaxLimit_",
          "type": "uint256"
        },
        {
          "internalType": "uint256",
          "name": "withdrawGap_",
          "type": "uint256"
        },
        {
          "internalType": "uint256",
          "name": "liquidationPenalty_",
          "type": "uint256"
        },
        {
          "internalType": "uint256",
          "name": "borrowFee_",
          "type": "uint256"
        }
      ],
      "name": "updateCoreSettings",
      "outputs": [],
      "stateMutability": "nonpayable",
      "type": "function"
    },
    {
      "inputs": [
        {
          "internalType": "uint256",
          "name": "liquidationMaxLimit_",
          "type": "uint256"
        }
      ],
      "name": "updateLiquidationMaxLimit",
      "outputs": [],
      "stateMutability": "nonpayable",
      "type": "function"
    },
    {
      "inputs": [
        {
          "internalType": "uint256",
          "name": "liquidationPenalty_",
          "type": "uint256"
        }
      ],
      "name": "updateLiquidationPenalty",
      "outputs": [],
      "stateMutability": "nonpayable",
      "type": "function"
    },
    {
      "inputs": [
        {
          "internalType": "uint256",
          "name": "liquidationThreshold_",
          "type": "uint256"
        }
      ],
      "name": "updateLiquidationThreshold",
      "outputs": [],
      "stateMutability": "nonpayable",
      "type": "function"
    },
    {
      "inputs": [
        {
          "internalType": "uint256",
          "name": "newOracleNonce_",
          "type": "uint256"
        }
      ],
      "name": "updateOracle",
      "outputs": [],
      "stateMutability": "nonpayable",
      "type": "function"
    },
    {
      "inputs": [
        {
          "internalType": "address",
          "name": "newRebalancer_",
          "type": "address"
        }
      ],
      "name": "updateRebalancer",
      "outputs": [],
      "stateMutability": "nonpayable",
      "type": "function"
    },
    {
      "inputs": [
        {
          "internalType": "int256",
          "name": "supplyRate_",
          "type": "int256"
        }
      ],
      "name": "updateSupplyRate",
      "outputs": [],
      "stateMutability": "nonpayable",
      "type": "function"
    },
    {
      "inputs": [
        {
          "internalType": "uint256",
          "name": "withdrawGap_",
          "type": "uint256"
        }
      ],
      "name": "updateWithdrawGap",
      "outputs": [],
      "stateMutability": "nonpayable",
      "type": "function"
    }
  ],
  "transactionHash": "0xbae7f372591c4ea7065f1d1a747e114d6d907760d0ff32d81c96aac6f509bc69",
  "args": [],
  "numDeployments": 1,
  "solcInputHash": "17a8a6be821b2312620f7ab673e2c57a",
  "bytecode": "0x60a060405234801561001057600080fd5b5030608052608051612d02610084600039600081816102680152818161040a015281816106ef0152818161089001528181610a3b01528181610bef01528181610db801528181610f61015281816110f1015281816113fb0152818161153e01528181611a5f0152611bac0152612d026000f3fe608060405234801561001057600080fd5b50600436106100df5760003560e01c8063b046a4491161008c578063d3b5be1a11610066578063d3b5be1a14610191578063d61b93fe146101a4578063d90ed355146101b7578063e53b2017146101ca57600080fd5b8063b046a44914610158578063b8244f5f1461016b578063c23c1c9f1461017e57600080fd5b806357917a11116100bd57806357917a111461011f578063898e962814610132578063a269e7841461014557600080fd5b806303f9923c146100e4578063161dd53e146100f9578063509c21a41461010c575b600080fd5b6100f76100f236600461274b565b6101dd565b005b6100f7610107366004612764565b61037f565b6100f761011a36600461274b565b610664565b6100f761012d36600461274b565b610805565b6100f761014036600461274b565b6109b0565b6100f761015336600461274b565b610b64565b6100f76101663660046127de565b610d2d565b6100f761017936600461274b565b610ed6565b6100f761018c36600461274b565b611066565b6100f761019f36600461274b565b611370565b6100f76101b23660046128aa565b611527565b6100f76101c536600461274b565b6119d4565b6100f76101d83660046127de565b611b95565b3073ffffffffffffffffffffffffffffffffffffffff1663021618876040518163ffffffff1660e01b81526004016080604051808303816000875af115801561022a573d6000803e3d6000fd5b505050506040513d601f19601f8201168201806040525081019061024e9190612950565b50505073ffffffffffffffffffffffffffffffffffffffff7f000000000000000000000000000000000000000000000000000000000000000016300390506102cb576040517f60121cca0000000000000000000000000000000000000000000000000000000081526180ea60048201526024015b60405180910390fd5b6040518181527fba3aefe95d9bb126dd0e7885e76f453e72b0ee6efd457771f26fe0a7ca56cedc9060200160405180910390a1610309600a826129b5565b90506103e881111561034b576040517f60121cca0000000000000000000000000000000000000000000000000000000081526180e960048201526024016102c2565b603e81901b6001547fffffffffffffffffffffffffffffffffffffffffffffff003fffffffffffffff161760018190555050565b3073ffffffffffffffffffffffffffffffffffffffff1663021618876040518163ffffffff1660e01b81526004016080604051808303816000875af11580156103cc573d6000803e3d6000fd5b505050506040513d601f19601f820116820180604052508101906103f09190612950565b50505073ffffffffffffffffffffffffffffffffffffffff7f00000000000000000000000000000000000000000000000000000000000000001630039050610468576040517f60121cca0000000000000000000000000000000000000000000000000000000081526180ea60048201526024016102c2565b6040805189815260208101899052908101879052606081018690526080810185905260a0810184905260c0810183905260e081018290527f31f0a1bece9cc733a04ce8f46232fdcc74b8441c441f9030c85b0e3823323b8b906101000160405180910390a16104d78483611e0c565b6104e2600a876129b5565b95506104ef600a866129b5565b94506104fc600a856129b5565b9350610509600a846129b5565b9250617fff8813806105245750617fff610522896129f0565b135b806105305750617fff87135b806105445750617fff610542886129f0565b135b8061054f5750848610155b8061055a5750838510155b8061056657506103ff83115b8061057257506103ff82115b8061057e57506103ff81115b156105b9576040517f60121cca0000000000000000000000000000000000000000000000000000000081526180e960048201526024016102c2565b60008089126105cd57600189811b176105db565b60016105d88a6129f0565b901b5b905060008089126105f157600189811b176105ff565b60016105fc8a6129f0565b901b5b9050605283901b604885901b603e87901b603489901b602a8b901b60208d901b601087901b886001547ffffffffffffffffffffffffffffffffffffffffff0000000000000000000000016171717171717171760018190555050505050505050505050565b3073ffffffffffffffffffffffffffffffffffffffff1663021618876040518163ffffffff1660e01b81526004016080604051808303816000875af11580156106b1573d6000803e3d6000fd5b505050506040513d601f19601f820116820180604052508101906106d59190612950565b50505073ffffffffffffffffffffffffffffffffffffffff7f0000000000000000000000000000000000000000000000000000000000000000163003905061074d576040517f60121cca0000000000000000000000000000000000000000000000000000000081526180ea60048201526024016102c2565b6040518181527f0e8160f7246256e8f7eea7dc5ee9de8c9fa1d6057c30561f548e6a84defeef159060200160405180910390a1600154602a81901c6103ff16610797600a846129b5565b92508083106107d6576040517f60121cca0000000000000000000000000000000000000000000000000000000081526180e960048201526024016102c2565b507ffffffffffffffffffffffffffffffffffffffffffffffffffffffc00ffffffff1660209190911b17600155565b3073ffffffffffffffffffffffffffffffffffffffff1663021618876040518163ffffffff1660e01b81526004016080604051808303816000875af1158015610852573d6000803e3d6000fd5b505050506040513d601f19601f820116820180604052508101906108769190612950565b50505073ffffffffffffffffffffffffffffffffffffffff7f000000000000000000000000000000000000000000000000000000000000000016300390506108ee576040517f60121cca0000000000000000000000000000000000000000000000000000000081526180ea60048201526024016102c2565b6040518181527fd3d6bb99321a653b7fc969c9f2a1917bd9623cab8ecaa67a2e1bec34c3eb2e1c9060200160405180910390a1600154603481901c6103ff1661094161093b82600a612a28565b84611e0c565b6103ff831115610981576040517f60121cca0000000000000000000000000000000000000000000000000000000081526180e960048201526024016102c2565b507ffffffffffffffffffffffffffffffffffffffffffffc00ffffffffffffffffff1660489190911b17600155565b3073ffffffffffffffffffffffffffffffffffffffff1663021618876040518163ffffffff1660e01b81526004016080604051808303816000875af11580156109fd573d6000803e3d6000fd5b505050506040513d601f19601f82011682018060405250810190610a219190612950565b50505073ffffffffffffffffffffffffffffffffffffffff7f00000000000000000000000000000000000000000000000000000000000000001630039050610a99576040517f60121cca0000000000000000000000000000000000000000000000000000000081526180ea60048201526024016102c2565b6040518181527f5ac1492eb2009d4983693cc59b4ec4032b506a0f9cbefc19a7545af5945d26af9060200160405180910390a16001546103ff602a82901c811690604883901c16610aea8482611e0c565b610af5600a856129b5565b9350838210610b34576040517f60121cca0000000000000000000000000000000000000000000000000000000081526180e960048201526024016102c2565b50507fffffffffffffffffffffffffffffffffffffffffffffffffc00fffffffffffff1660349190911b17600155565b3073ffffffffffffffffffffffffffffffffffffffff1663021618876040518163ffffffff1660e01b81526004016080604051808303816000875af1158015610bb1573d6000803e3d6000fd5b505050506040513d601f19601f82011682018060405250810190610bd59190612950565b50505073ffffffffffffffffffffffffffffffffffffffff7f00000000000000000000000000000000000000000000000000000000000000001630039050610c4d576040517f60121cca0000000000000000000000000000000000000000000000000000000081526180ea60048201526024016102c2565b6040518181527f1c6f5f29157eddb749a97a47ee18573bcaf02dfc1787f69d645122e952521eed9060200160405180910390a1617fff811380610c995750617fff610c97826129f0565b135b15610cd4576040517f60121cca0000000000000000000000000000000000000000000000000000000081526180e960048201526024016102c2565b6000808212610ce857600182811b17610cf6565b6001610cf3836129f0565b901b5b9050601081901b6001547fffffffffffffffffffffffffffffffffffffffffffffffffffffffff0000ffff16176001819055505050565b3073ffffffffffffffffffffffffffffffffffffffff1663021618876040518163ffffffff1660e01b81526004016080604051808303816000875af1158015610d7a573d6000803e3d6000fd5b505050506040513d601f19601f82011682018060405250810190610d9e9190612950565b50505073ffffffffffffffffffffffffffffffffffffffff7f00000000000000000000000000000000000000000000000000000000000000001630039050610e16576040517f60121cca0000000000000000000000000000000000000000000000000000000081526180ea60048201526024016102c2565b73ffffffffffffffffffffffffffffffffffffffff8116610e67576040517f60121cca0000000000000000000000000000000000000000000000000000000081526180f160048201526024016102c2565b600980547fffffffffffffffffffffffff00000000000000000000000000000000000000001673ffffffffffffffffffffffffffffffffffffffff83169081179091556040517fdb94ee7fd8b5bbf8f6d59e76731ff4b4f5a02ab3af1d3e0c774862cf96ff613b90600090a250565b3073ffffffffffffffffffffffffffffffffffffffff1663021618876040518163ffffffff1660e01b81526004016080604051808303816000875af1158015610f23573d6000803e3d6000fd5b505050506040513d601f19601f82011682018060405250810190610f479190612950565b50505073ffffffffffffffffffffffffffffffffffffffff7f00000000000000000000000000000000000000000000000000000000000000001630039050610fbf576040517f60121cca0000000000000000000000000000000000000000000000000000000081526180ea60048201526024016102c2565b6040518181527f06a28e5e1500bd478bd28b400a0fb46a9cc8748a5dac616b38bc91c29462c17f9060200160405180910390a16103ff811115611032576040517f60121cca0000000000000000000000000000000000000000000000000000000081526180e960048201526024016102c2565b605281901b6001547ffffffffffffffffffffffffffffffffffffffffff003ffffffffffffffffffff161760018190555050565b3073ffffffffffffffffffffffffffffffffffffffff1663021618876040518163ffffffff1660e01b81526004016080604051808303816000875af11580156110b3573d6000803e3d6000fd5b505050506040513d601f19601f820116820180604052508101906110d79190612950565b50505073ffffffffffffffffffffffffffffffffffffffff7f0000000000000000000000000000000000000000000000000000000000000000163003905061114f576040517f60121cca0000000000000000000000000000000000000000000000000000000081526180ea60048201526024016102c2565b633fffffff811115611191576040517f60121cca0000000000000000000000000000000000000000000000000000000081526180e960048201526024016102c2565b605c81901b6001547ffffffffffffffffffffffffffffffffffc0000000fffffffffffffffffffffff161760018190555060003073ffffffffffffffffffffffffffffffffffffffff1663b7791bf26040518163ffffffff1660e01b815260040161024060405180830381865afa158015611210573d6000803e3d6000fd5b505050506040513d601f19601f820116820180604052508101906112349190612ab4565b905060006112468260a0015184611e59565b90508073ffffffffffffffffffffffffffffffffffffffff16638e7bfbc06040518163ffffffff1660e01b8152600401602060405180830381865afa158015611293573d6000803e3d6000fd5b505050506040513d601f19601f820116820180604052508101906112b79190612bcc565b508073ffffffffffffffffffffffffffffffffffffffff1663f3190c896040518163ffffffff1660e01b8152600401602060405180830381865afa158015611303573d6000803e3d6000fd5b505050506040513d601f19601f820116820180604052508101906113279190612bcc565b5060405173ffffffffffffffffffffffffffffffffffffffff82169084907ff3babb4efef8195c16cb5c44b63afff5f0cc5e2f93c2496f09af64430b8e84aa90600090a3505050565b3073ffffffffffffffffffffffffffffffffffffffff1663021618876040518163ffffffff1660e01b81526004016080604051808303816000875af11580156113bd573d6000803e3d6000fd5b505050506040513d601f19601f820116820180604052508101906113e19190612950565b50505073ffffffffffffffffffffffffffffffffffffffff7f00000000000000000000000000000000000000000000000000000000000000001630039050611459576040517f60121cca0000000000000000000000000000000000000000000000000000000081526180ea60048201526024016102c2565b6040518181527f44a667dd6218a52f7ef808da1e39e9c8497db215eaff093c0c42ecf9bf2168f39060200160405180910390a16001546103ff602082901c811690603483901c166114ab600a856129b5565b935083821015806114bc5750808410155b156114f7576040517f60121cca0000000000000000000000000000000000000000000000000000000081526180e960048201526024016102c2565b50507ffffffffffffffffffffffffffffffffffffffffffffffffffff003ffffffffff16602a9190911b17600155565b73ffffffffffffffffffffffffffffffffffffffff7f000000000000000000000000000000000000000000000000000000000000000016300361159a576040517f60121cca0000000000000000000000000000000000000000000000000000000081526180ea60048201526024016102c2565b60008054906001821690036115b557600181176000556115eb565b6040517f60121cca00000000000000000000000000000000000000000000000000000000815261791960048201526024016102c2565b6000806000806000806000806000600a54905060005b8b518110156118e7578b818151811061161c5761161c612be5565b6020026020010151995089600003611664576040517f60121cca0000000000000000000000000000000000000000000000000000000081526180eb60048201526024016102c2565b60008a81526003602052604081205499508990036116b2576040517f60121cca0000000000000000000000000000000000000000000000000000000081526180ec60048201526024016102c2565b67ffffffffffffffff602d8a901c16955060ff8616600887901c901b955067ffffffffffffffff606d8a901c16935060ff8416600885901c901b93508360000361172c576040517f60121cca0000000000000000000000000000000000000000000000000000000081526180ed60048201526024016102c2565b8860021660021461174e5761174960028a901c6207ffff166129f0565b611759565b6207ffff60028a901c165b975062ffffff60158a901c1696506060866117768a60020b6122c5565b6117809190612a28565b60008a815260056020526040902054911c95509250600180841614806117ae57508662ffffff600185901c16115b156118a9576040517f22348cc70000000000000000000000000000000000000000000000000000000081526004810189905260248101889052604481018690526064810184905230906322348cc79060840160a060405180830381865afa15801561181d573d6000803e3d6000fd5b505050506040513d601f19601f820116820180604052508101906118419190612c14565b5091975050861591506118869050576040517f60121cca0000000000000000000000000000000000000000000000000000000081526180ee60048201526024016102c2565b6118908483612c54565b60008b81526003602052604090206001905591506118df565b6040517f60121cca0000000000000000000000000000000000000000000000000000000081526180ef60048201526024016102c2565b600101611601565b5080600003611926576040517f60121cca0000000000000000000000000000000000000000000000000000000081526180f060048201526024016102c2565b66ffffffffffffff609a8b901c1660ff60928c901c161b6119478282612c54565b905061195881603860086001612527565b7ffffffffffffc0000000000000003ffffffffffffffffffffffffffffffffffff8c16609282901b176000908155600a556040519091507fae8abcd7cc16d6da9fa7098d41cc4cdb3bd5ce892e46f15d904b44c9b156cb5e906119be908e908590612c67565b60405180910390a1505050505050505050505050565b3073ffffffffffffffffffffffffffffffffffffffff1663021618876040518163ffffffff1660e01b81526004016080604051808303816000875af1158015611a21573d6000803e3d6000fd5b505050506040513d601f19601f82011682018060405250810190611a459190612950565b50505073ffffffffffffffffffffffffffffffffffffffff7f00000000000000000000000000000000000000000000000000000000000000001630039050611abd576040517f60121cca0000000000000000000000000000000000000000000000000000000081526180ea60048201526024016102c2565b6040518181527f7edd6e9826630cd24ac104078d5d38d7bafba2e232fdf7f0789d4b0823f2b4a09060200160405180910390a1617fff811380611b095750617fff611b07826129f0565b135b15611b44576040517f60121cca0000000000000000000000000000000000000000000000000000000081526180e960048201526024016102c2565b6000808212611b5857600182811b17611b66565b6001611b63836129f0565b901b5b600180547fffffffffffffffffffffffffffffffffffffffffffffffffffffffffffff00001690911790555050565b73ffffffffffffffffffffffffffffffffffffffff7f0000000000000000000000000000000000000000000000000000000000000000163003611c08576040517f60121cca0000000000000000000000000000000000000000000000000000000081526180ea60048201526024016102c2565b7fffffffffffffffffffffffff111111111111111111111111111111111111111273ffffffffffffffffffffffffffffffffffffffff821601611cc257611cbd3073ffffffffffffffffffffffffffffffffffffffff16632861c7d16040518163ffffffff1660e01b8152600401602060405180830381865afa158015611c93573d6000803e3d6000fd5b505050506040513d601f19601f82011682018060405250810190611cb79190612caf565b47612650565b611dc8565b611dc8813073ffffffffffffffffffffffffffffffffffffffff16632861c7d16040518163ffffffff1660e01b8152600401602060405180830381865afa158015611d11573d6000803e3d6000fd5b505050506040513d601f19601f82011682018060405250810190611d359190612caf565b6040517f70a0823100000000000000000000000000000000000000000000000000000000815230600482015273ffffffffffffffffffffffffffffffffffffffff8516906370a0823190602401602060405180830381865afa158015611d9f573d6000803e3d6000fd5b505050506040513d601f19601f82011682018060405250810190611dc39190612bcc565b6126a1565b60405173ffffffffffffffffffffffffffffffffffffffff8216907fdff2a3947bcf9fc0807b142e7c8497066db9183428b7bdbfb1fcd0f55c27a3df90600090a250565b6126f2611e198284612c54565b1115611e55576040517f60121cca0000000000000000000000000000000000000000000000000000000081526180e960048201526024016102c2565b5050565b6000606082600003611e6f5760009150506122bf565b607f8311611f38576040517fd60000000000000000000000000000000000000000000000000000000000000060208201527f940000000000000000000000000000000000000000000000000000000000000060218201527fffffffffffffffffffffffffffffffffffffffff000000000000000000000000606086901b16602282015260f884901b7fff000000000000000000000000000000000000000000000000000000000000001660368201526037015b60405160208183030381529060405290506122b4565b60ff8311612015576040517fd70000000000000000000000000000000000000000000000000000000000000060208201527f940000000000000000000000000000000000000000000000000000000000000060218201527fffffffffffffffffffffffffffffffffffffffff000000000000000000000000606086901b1660228201527f8100000000000000000000000000000000000000000000000000000000000000603682015260f884901b7fff00000000000000000000000000000000000000000000000000000000000000166037820152603801611f22565b61ffff83116120f3576040517fd80000000000000000000000000000000000000000000000000000000000000060208201527f940000000000000000000000000000000000000000000000000000000000000060218201527fffffffffffffffffffffffffffffffffffffffff000000000000000000000000606086901b1660228201527f820000000000000000000000000000000000000000000000000000000000000060368201527fffff00000000000000000000000000000000000000000000000000000000000060f085901b166037820152603901611f22565b62ffffff83116121d2576040517fd90000000000000000000000000000000000000000000000000000000000000060208201527f940000000000000000000000000000000000000000000000000000000000000060218201527fffffffffffffffffffffffffffffffffffffffff000000000000000000000000606086901b1660228201527f830000000000000000000000000000000000000000000000000000000000000060368201527fffffff000000000000000000000000000000000000000000000000000000000060e885901b166037820152603a01611f22565b6040517fda0000000000000000000000000000000000000000000000000000000000000060208201527f940000000000000000000000000000000000000000000000000000000000000060218201527fffffffffffffffffffffffffffffffffffffffff000000000000000000000000606086901b1660228201527f840000000000000000000000000000000000000000000000000000000000000060368201527fffffffff0000000000000000000000000000000000000000000000000000000060e085901b166037820152603b0160405160208183030381529060405290505b805160209091012090505b92915050565b600060ff82901d80831803617fff8111156122df57600080fd5b700100000000000000000000000000000000600182161561230d57506fff9dd7de423466c20352b1246ce4856f5b600282161561232c576fff3bd55f4488ad277531fa1c725a66d00260801c5b600482161561234b576ffe78410fd6498b73cb96a6917f8532590260801c5b600882161561236a576ffcf2d9987c9be178ad5bfeffaa1232730260801c5b6010821615612389576ff9ef02c4529258b057769680fc6601b30260801c5b60208216156123a8576ff402d288133a85a17784a411f7aba0820260801c5b60408216156123c7576fe895615b5beb6386553757b0352bda900260801c5b60808216156123e6576fd34f17a00ffa00a8309940a15930391a0260801c5b610100821615612406576fae6b7961714e20548d88ea5123f9a0ff0260801c5b610200821615612426576f76d6461f27082d74e0feed3b388c0ca10260801c5b610400821615612446576f372a3bfe0745d8b6b19d985d9a8b85bb0260801c5b610800821615612466576f0be32cbee48979763cf7247dd7bb539d0260801c5b611000821615612485576e8d4f70c9ff4924dac37612d1e2921e0260801c5b6120008216156124a3576d4e009ae5519380809a02ca7aec770260801c5b6140008216156124bf576b17c45e641b6e95dee056ff100260801c5b600091507f8000000000000000000000000000000000000000000000000000000000000000841661251d577fffffffffffffffffffffffffffffffffffffffffffffffffffffffffffffffff0463ffffffff81161561251d57600191505b60201c0192915050565b600080856fffffffffffffffffffffffffffffffff81111561254a5760809150811c5b67ffffffffffffffff811115612562576040918201911c5b63ffffffff811115612576576020918201911c5b61ffff811115612588576010918201911c5b60ff811115612599576008918201911c5b600f8111156125aa576004918201911c5b60038111156125bb576002918201911c5b60018111156125cb576001820191505b80156125d8576001820191505b50848110156125e45750835b848103905085811c6000821184161561263357600181019050806001871b0361263357506001908101907fffffffffffffffffffffffffffffffffffffffffffffffffffffffffffffffff86011b5b6001851b821061264257600080fd5b90931b909201949350505050565b60008060008060008587614e20f190508061269c576040517fdee51a8a0000000000000000000000000000000000000000000000000000000081526201155a60048201526024016102c2565b505050565b60006040517fa9059cbb00000000000000000000000000000000000000000000000000000000815273ffffffffffffffffffffffffffffffffffffffff84166004820152826024820152602060006044836000895af13d15601f3d1160016000511416171691505080612745576040517fdee51a8a0000000000000000000000000000000000000000000000000000000081526201155a60048201526024016102c2565b50505050565b60006020828403121561275d57600080fd5b5035919050565b600080600080600080600080610100898b03121561278157600080fd5b505086359860208801359850604088013597606081013597506080810135965060a0810135955060c0810135945060e0013592509050565b73ffffffffffffffffffffffffffffffffffffffff811681146127db57600080fd5b50565b6000602082840312156127f057600080fd5b81356127fb816127b9565b9392505050565b7f4e487b7100000000000000000000000000000000000000000000000000000000600052604160045260246000fd5b604051610200810167ffffffffffffffff8111828210171561285557612855612802565b60405290565b604051601f82017fffffffffffffffffffffffffffffffffffffffffffffffffffffffffffffffe016810167ffffffffffffffff811182821017156128a2576128a2612802565b604052919050565b600060208083850312156128bd57600080fd5b823567ffffffffffffffff808211156128d557600080fd5b818501915085601f8301126128e957600080fd5b8135818111156128fb576128fb612802565b8060051b915061290c84830161285b565b818152918301840191848101908884111561292657600080fd5b938501935b838510156129445784358252938501939085019061292b565b98975050505050505050565b6000806000806080858703121561296657600080fd5b505082516020840151604085015160609095015191969095509092509050565b7f4e487b7100000000000000000000000000000000000000000000000000000000600052601160045260246000fd5b6000826129eb577f4e487b7100000000000000000000000000000000000000000000000000000000600052601260045260246000fd5b500490565b60007f80000000000000000000000000000000000000000000000000000000000000008203612a2157612a21612986565b5060000390565b80820281158282048414176122bf576122bf612986565b8051612a4a816127b9565b919050565b600060408284031215612a6157600080fd5b6040516040810181811067ffffffffffffffff82111715612a8457612a84612802565b80604052508091508251612a97816127b9565b81526020830151612aa7816127b9565b6020919091015292915050565b60006102408284031215612ac757600080fd5b612acf612831565b612ad883612a3f565b8152612ae660208401612a3f565b6020820152612af760408401612a3f565b6040820152612b0860608401612a3f565b6060820152612b1960808401612a3f565b6080820152612b2a60a08401612a3f565b60a0820152612b3b60c08401612a3f565b60c0820152612b4c60e08401612a3f565b60e0820152610100612b6085828601612a4f565b90820152610140612b7385858301612a4f565b61012083015261018080850151828401526101a09150818501516101608401526101c080860151828501526101e09150818601518385015261020086015181850152506102208501518184015250508091505092915050565b600060208284031215612bde57600080fd5b5051919050565b7f4e487b7100000000000000000000000000000000000000000000000000000000600052603260045260246000fd5b600080600080600060a08688031215612c2c57600080fd5b5050835160208501516040860151606087015160809097015192989197509594509092509050565b808201808211156122bf576122bf612986565b604080825283519082018190526000906020906060840190828701845b82811015612ca057815184529284019290840190600101612c84565b50505092019290925292915050565b600060208284031215612cc157600080fd5b81516127fb816127b956fea2646970667358221220b542dc157f3f9e21cebaaeebba198ecef2ce72c9c4370f834a812303bf56660364736f6c63430008150033",
  "devdoc": {
    "kind": "dev",
    "methods": {
      "absorbDustDebt(uint256[])": {
        "details": "in decades if a lot of positions are 100% liquidated (aka absorbed) then dust debt can mount up which is basically sort of an extra revenue for the protocol."
      },
      "rescueFunds(address)": {
        "details": "this contract never holds any funds as all operations send / receive funds from user <-> Liquidity."
      }
    },
    "version": 1
  },
  "userdoc": {
    "errors": {
      "FluidLiquidateResult(uint256,uint256)": [
        {
          "notice": "used to simulate liquidation to find the maximum liquidatable amounts"
        }
      ]
    },
    "events": {
      "LogAbsorbDustDebt(uint256[],uint256)": {
        "notice": "emitted when dust debt is absorbed for `nftIds_`"
      },
      "LogRescueFunds(address)": {
        "notice": "emitted when funds are rescued"
      },
      "LogUpdateBorrowFee(uint256)": {
        "notice": "emitted when the borrow fee config is updated"
      },
      "LogUpdateBorrowRate(int256)": {
        "notice": "emitted when the borrow rate config is updated"
      },
      "LogUpdateCollateralFactor(uint256)": {
        "notice": "emitted when the collateral factor config is updated"
      },
      "LogUpdateCoreSettings(int256,int256,uint256,uint256,uint256,uint256,uint256,uint256)": {
        "notice": "emitted when the core setting configs are updated"
      },
      "LogUpdateLiquidationMaxLimit(uint256)": {
        "notice": "emitted when the liquidation max limit config is updated"
      },
      "LogUpdateLiquidationPenalty(uint256)": {
        "notice": "emitted when the liquidation penalty config is updated"
      },
      "LogUpdateLiquidationThreshold(uint256)": {
        "notice": "emitted when the liquidation threshold config is updated"
      },
      "LogUpdateOracle(uint256,address)": {
        "notice": "emitted when the oracle is updated"
      },
      "LogUpdateRebalancer(address)": {
        "notice": "emitted when the allowed rebalancer is updated"
      },
      "LogUpdateSupplyRate(int256)": {
        "notice": "emitted when the supply rate config is updated"
      },
      "LogUpdateWithdrawGap(uint256)": {
        "notice": "emitted when the withdrawal gap config is updated"
      }
    },
    "kind": "user",
    "methods": {
      "absorbDustDebt(uint256[])": {
        "notice": "absorbs accumulated dust debt"
      },
      "rescueFunds(address)": {
        "notice": "sends any potentially stuck funds to Liquidity contract."
      },
      "updateBorrowFee(uint256)": {
        "notice": "updates the borrow fee to `borrowFee_`. Input in 1e2 (1% = 100, 100% = 10_000)."
      },
      "updateBorrowRate(int256)": {
        "notice": "updates the borrow rate. Input in 1e2 (1% = 100, 100% = 10_000). If positive then charging else incentives"
      },
      "updateCollateralFactor(uint256)": {
        "notice": "updates the collateral factor to `collateralFactor_`. Input in 1e2 (1% = 100, 100% = 10_000)."
      },
      "updateCoreSettings(int256,int256,uint256,uint256,uint256,uint256,uint256,uint256)": {
        "notice": "updates the all Vault core settings according to input params. All input values are expected in 1e2 (1% = 100, 100% = 10_000)."
      },
      "updateLiquidationMaxLimit(uint256)": {
        "notice": "updates the liquidation max limit to `liquidationMaxLimit_`. Input in 1e2 (1% = 100, 100% = 10_000)."
      },
      "updateLiquidationPenalty(uint256)": {
        "notice": "updates the liquidation penalty to `liquidationPenalty_`. Input in 1e2 (1% = 100, 100% = 10_000)."
      },
      "updateLiquidationThreshold(uint256)": {
        "notice": "updates the liquidation threshold to `liquidationThreshold_`. Input in 1e2 (1% = 100, 100% = 10_000)."
      },
      "updateOracle(uint256)": {
        "notice": "updates the Vault oracle to `newOracleNonce_`. Must implement the FluidOracle interface."
      },
      "updateRebalancer(address)": {
        "notice": "updates the allowed rebalancer to `newRebalancer_`."
      },
      "updateSupplyRate(int256)": {
        "notice": "updates the supply rate. Input in 1e2 (1% = 100, 100% = 10_000). If positive then incentives else charging"
      },
      "updateWithdrawGap(uint256)": {
        "notice": "updates the withdrawal gap to `withdrawGap_`. Input in 1e2 (1% = 100, 100% = 10_000)."
      }
    },
    "notice": "Fluid Vault protocol Admin Module contract.         Implements admin related methods to set configs such as liquidation params, rates         oracle address etc.         Methods are limited to be called via delegateCall only. Vault CoreModule is expected         to call the methods implemented here after checking the msg.sender is authorized.         All methods update the exchange prices in storage before changing configs.",
    "version": 1
  },
  "storageLayout": {
    "storage": [
      {
        "astId": 43201,
        "contract": "contracts/protocols/vault/vaultT4/adminModule/main.sol:FluidVaultT4Admin",
        "label": "vaultVariables",
        "offset": 0,
        "slot": "0",
        "type": "t_uint256"
      },
      {
        "astId": 43204,
        "contract": "contracts/protocols/vault/vaultT4/adminModule/main.sol:FluidVaultT4Admin",
        "label": "vaultVariables2",
        "offset": 0,
        "slot": "1",
        "type": "t_uint256"
      },
      {
        "astId": 43207,
        "contract": "contracts/protocols/vault/vaultT4/adminModule/main.sol:FluidVaultT4Admin",
        "label": "absorbedLiquidity",
        "offset": 0,
        "slot": "2",
        "type": "t_uint256"
      },
      {
        "astId": 43212,
        "contract": "contracts/protocols/vault/vaultT4/adminModule/main.sol:FluidVaultT4Admin",
        "label": "positionData",
        "offset": 0,
        "slot": "3",
        "type": "t_mapping(t_uint256,t_uint256)"
      },
      {
        "astId": 43217,
        "contract": "contracts/protocols/vault/vaultT4/adminModule/main.sol:FluidVaultT4Admin",
        "label": "tickHasDebt",
        "offset": 0,
        "slot": "4",
        "type": "t_mapping(t_int256,t_uint256)"
      },
      {
        "astId": 43222,
        "contract": "contracts/protocols/vault/vaultT4/adminModule/main.sol:FluidVaultT4Admin",
        "label": "tickData",
        "offset": 0,
        "slot": "5",
        "type": "t_mapping(t_int256,t_uint256)"
      },
      {
        "astId": 43229,
        "contract": "contracts/protocols/vault/vaultT4/adminModule/main.sol:FluidVaultT4Admin",
        "label": "tickId",
        "offset": 0,
        "slot": "6",
        "type": "t_mapping(t_int256,t_mapping(t_uint256,t_uint256))"
      },
      {
        "astId": 43234,
        "contract": "contracts/protocols/vault/vaultT4/adminModule/main.sol:FluidVaultT4Admin",
        "label": "branchData",
        "offset": 0,
        "slot": "7",
        "type": "t_mapping(t_uint256,t_uint256)"
      },
      {
        "astId": 43237,
        "contract": "contracts/protocols/vault/vaultT4/adminModule/main.sol:FluidVaultT4Admin",
        "label": "rates",
        "offset": 0,
        "slot": "8",
        "type": "t_uint256"
      },
      {
        "astId": 43240,
        "contract": "contracts/protocols/vault/vaultT4/adminModule/main.sol:FluidVaultT4Admin",
        "label": "rebalancer",
        "offset": 0,
        "slot": "9",
        "type": "t_address"
      },
      {
        "astId": 43242,
        "contract": "contracts/protocols/vault/vaultT4/adminModule/main.sol:FluidVaultT4Admin",
        "label": "absorbedDustDebt",
        "offset": 0,
        "slot": "10",
        "type": "t_uint256"
      },
      {
        "astId": 43244,
        "contract": "contracts/protocols/vault/vaultT4/adminModule/main.sol:FluidVaultT4Admin",
        "label": "dexFromAddress",
        "offset": 0,
        "slot": "11",
        "type": "t_address"
      }
    ],
    "types": {
      "t_address": {
        "encoding": "inplace",
        "label": "address",
        "numberOfBytes": "20"
      },
      "t_int256": {
        "encoding": "inplace",
        "label": "int256",
        "numberOfBytes": "32"
      },
      "t_mapping(t_int256,t_mapping(t_uint256,t_uint256))": {
        "encoding": "mapping",
        "key": "t_int256",
        "label": "mapping(int256 => mapping(uint256 => uint256))",
        "numberOfBytes": "32",
        "value": "t_mapping(t_uint256,t_uint256)"
      },
      "t_mapping(t_int256,t_uint256)": {
        "encoding": "mapping",
        "key": "t_int256",
        "label": "mapping(int256 => uint256)",
        "numberOfBytes": "32",
        "value": "t_uint256"
      },
      "t_mapping(t_uint256,t_uint256)": {
        "encoding": "mapping",
        "key": "t_uint256",
        "label": "mapping(uint256 => uint256)",
        "numberOfBytes": "32",
        "value": "t_uint256"
      },
      "t_uint256": {
        "encoding": "inplace",
        "label": "uint256",
        "numberOfBytes": "32"
      }
    }
  }
}