{
  "address": "0x51bc3354A1cd3d25686581D7EFBb9aB7a997837a",
  "abi": [
    {
      "inputs": [
        {
          "internalType": "address",
          "name": "wstethEthDex_",
          "type": "address"
        },
        {
          "internalType": "address",
          "name": "weethEthDex_",
          "type": "address"
        }
      ],
      "stateMutability": "nonpayable",
      "type": "constructor"
    },
    {
      "inputs": [
        {
          "internalType": "uint256",
          "name": "errorId_",
          "type": "uint256"
        }
      ],
      "name": "FluidConfigError",
      "type": "error"
    },
    {
      "anonymous": false,
      "inputs": [
        {
          "indexed": false,
          "internalType": "address",
          "name": "dex",
          "type": "address"
        },
        {
          "indexed": false,
          "internalType": "uint256",
          "name": "upperPercent",
          "type": "uint256"
        },
        {
          "indexed": false,
          "internalType": "uint256",
          "name": "lowerPercent",
          "type": "uint256"
        },
        {
          "indexed": false,
          "internalType": "uint256",
          "name": "shiftTime",
          "type": "uint256"
        }
      ],
      "name": "LogSetRanges",
      "type": "event"
    },
    {
      "anonymous": false,
      "inputs": [
        {
          "indexed": false,
          "internalType": "address",
          "name": "dex",
          "type": "address"
        },
        {
          "indexed": false,
          "internalType": "uint256",
          "name": "upperPercent",
          "type": "uint256"
        },
        {
          "indexed": false,
          "internalType": "uint256",
          "name": "lowerPercent",
          "type": "uint256"
        },
        {
          "indexed": false,
          "internalType": "uint256",
          "name": "thresholdShiftTime",
          "type": "uint256"
        },
        {
          "indexed": false,
          "internalType": "uint256",
          "name": "shiftTime",
          "type": "uint256"
        }
      ],
      "name": "LogSetThresholdConfig",
      "type": "event"
    },
    {
      "inputs": [],
      "name": "COOLDOWN",
      "outputs": [
        {
          "internalType": "uint256",
          "name": "",
          "type": "uint256"
        }
      ],
      "stateMutability": "view",
      "type": "function"
    },
    {
      "inputs": [],
      "name": "MAX_PERCENT_RANGE_CHANGE_ALLOWED",
      "outputs": [
        {
          "internalType": "uint256",
          "name": "",
          "type": "uint256"
        }
      ],
      "stateMutability": "view",
      "type": "function"
    },
    {
      "inputs": [],
      "name": "MAX_SHIFT_TIME",
      "outputs": [
        {
          "internalType": "uint256",
          "name": "",
          "type": "uint256"
        }
      ],
      "stateMutability": "view",
      "type": "function"
    },
    {
      "inputs": [],
      "name": "MIN_SHIFT_TIME",
      "outputs": [
        {
          "internalType": "uint256",
          "name": "",
          "type": "uint256"
        }
      ],
      "stateMutability": "view",
      "type": "function"
    },
    {
      "inputs": [],
      "name": "TEAM_MULTISIG",
      "outputs": [
        {
          "internalType": "address",
          "name": "",
          "type": "address"
        }
      ],
      "stateMutability": "view",
      "type": "function"
    },
    {
      "inputs": [],
      "name": "TEAM_MULTISIG2",
      "outputs": [
        {
          "internalType": "address",
          "name": "",
          "type": "address"
        }
      ],
      "stateMutability": "view",
      "type": "function"
    },
    {
      "inputs": [],
      "name": "WEETH_ETH_DEX",
      "outputs": [
        {
          "internalType": "address",
          "name": "",
          "type": "address"
        }
      ],
      "stateMutability": "view",
      "type": "function"
    },
    {
      "inputs": [],
      "name": "WSTETH_ETH_DEX",
      "outputs": [
        {
          "internalType": "address",
          "name": "",
          "type": "address"
        }
      ],
      "stateMutability": "view",
      "type": "function"
    },
    {
      "inputs": [
        {
          "internalType": "address",
          "name": "",
          "type": "address"
        },
        {
          "internalType": "enum Variables.UpdateType",
          "name": "",
          "type": "uint8"
        }
      ],
      "name": "dexLastUpdateTimestamp",
      "outputs": [
        {
          "internalType": "uint256",
          "name": "",
          "type": "uint256"
        }
      ],
      "stateMutability": "view",
      "type": "function"
    },
    {
      "inputs": [
        {
          "internalType": "address",
          "name": "dex_",
          "type": "address"
        }
      ],
      "name": "getRanges",
      "outputs": [
        {
          "internalType": "uint256",
          "name": "upperRangePercent_",
          "type": "uint256"
        },
        {
          "internalType": "uint256",
          "name": "lowerRangePercent_",
          "type": "uint256"
        }
      ],
      "stateMutability": "view",
      "type": "function"
    },
    {
      "inputs": [
        {
          "internalType": "address",
          "name": "dex_",
          "type": "address"
        }
      ],
      "name": "getThresholdConfig",
      "outputs": [
        {
          "internalType": "uint256",
          "name": "upperThresholdPercent_",
          "type": "uint256"
        },
        {
          "internalType": "uint256",
          "name": "lowerThresholdPercent_",
          "type": "uint256"
        },
        {
          "internalType": "uint256",
          "name": "thresholdShiftTime_",
          "type": "uint256"
        }
      ],
      "stateMutability": "view",
      "type": "function"
    },
    {
      "inputs": [
        {
          "internalType": "address",
          "name": "dex_",
          "type": "address"
        },
        {
          "internalType": "uint256",
          "name": "upperRangePercent_",
          "type": "uint256"
        },
        {
          "internalType": "uint256",
          "name": "lowerRangePercent_",
          "type": "uint256"
        },
        {
          "internalType": "uint256",
          "name": "shiftTime_",
          "type": "uint256"
        }
      ],
      "name": "setRanges",
      "outputs": [],
      "stateMutability": "nonpayable",
      "type": "function"
    },
    {
      "inputs": [
        {
          "internalType": "address",
          "name": "dex_",
          "type": "address"
        },
        {
          "internalType": "int256",
          "name": "newUpperRangePercentage_",
          "type": "int256"
        },
        {
          "internalType": "int256",
          "name": "newLowerRangePercentage_",
          "type": "int256"
        },
        {
          "internalType": "uint256",
          "name": "shiftTime_",
          "type": "uint256"
        }
      ],
      "name": "setRangesByPercentage",
      "outputs": [],
      "stateMutability": "nonpayable",
      "type": "function"
    },
    {
      "inputs": [
        {
          "internalType": "address",
          "name": "dex_",
          "type": "address"
        },
        {
          "internalType": "uint256",
          "name": "upperThresholdPercent_",
          "type": "uint256"
        },
        {
          "internalType": "uint256",
          "name": "lowerThresholdPercent_",
          "type": "uint256"
        },
        {
          "internalType": "uint256",
          "name": "thresholdShiftTime_",
          "type": "uint256"
        },
        {
          "internalType": "uint256",
          "name": "shiftTime_",
          "type": "uint256"
        }
      ],
      "name": "setThresholdConfig",
      "outputs": [],
      "stateMutability": "nonpayable",
      "type": "function"
    }
  ],
  "transactionHash": "0xcc98f339bbad390d7775e60648054fd6eeacc220eeb33ffec81f03d4c956d5dd",
  "args": [
    "0x0000000000000000000000000000000000000000",
    "0x0000000000000000000000000000000000000000"
  ],
  "numDeployments": 1,
  "solcInputHash": "98b16aabfb0901b7e1bdfdd419cfac66",
  "bytecode": "0x60c060405234801561001057600080fd5b5060405161102438038061102483398101604081905261002f916100b1565b46600114801561005757506001600160a01b038216158061005757506001600160a01b038116155b1561007e57604051636801712d60e11b8152620186fb600482015260240160405180910390fd5b6001600160a01b039182166080521660a0526100e4565b80516001600160a01b03811681146100ac57600080fd5b919050565b600080604083850312156100c457600080fd5b6100cd83610095565b91506100db60208401610095565b90509250929050565b60805160a051610f0d6101176000396000818161019a0152610a990152600081816101360152610a440152610f0d6000f3fe608060405234801561001057600080fd5b50600436106100ea5760003560e01c8063a2724a4d1161008c578063e1bc93f511610066578063e1bc93f514610210578063eaf3de1614610238578063ed13e51d14610266578063f91ba3681461027957600080fd5b8063a2724a4d146101e1578063b788f3a1146101eb578063dd86903a1461020657600080fd5b80635b400f03116100c85780635b400f031461017d5780638d016f171461019557806395ae47e1146101bc57806398a2b87f146101d757600080fd5b806320c36614146100ef578063425a1eee1461011c5780634d9c564314610131575b600080fd5b6101026100fd366004610cdf565b61028c565b604080519283526020830191909152015b60405180910390f35b61012f61012a366004610cfa565b61033d565b005b6101587f000000000000000000000000000000000000000000000000000000000000000081565b60405173ffffffffffffffffffffffffffffffffffffffff9091168152602001610113565b61018762030d4081565b604051908152602001610113565b6101587f000000000000000000000000000000000000000000000000000000000000000081565b610158731e2e1aed876f67fe4fd54090fd7b8f57ce23421981565b6101876202a30081565b6101876205460081565b610158734f6f977acdd1177dcd81ab83074855ecb9c2d49e81565b610187620fd20081565b61018761021e366004610d3c565b600060208181529281526040808220909352908152205481565b61024b610246366004610cdf565b610520565b60408051938452602084019290925290820152606001610113565b61012f610274366004610d77565b6105f7565b61012f610287366004610d77565b6107b5565b6040517fb5c736e4000000000000000000000000000000000000000000000000000000008152600160048201526000908190819073ffffffffffffffffffffffffffffffffffffffff85169063b5c736e490602401602060405180830381865afa1580156102fe573d6000803e3d6000fd5b505050506040513d601f19601f820116820180604052508101906103229190610db0565b620fffff601b82901c811696602f9290921c16945092505050565b734f6f977acdd1177dcd81ab83074855ecb9c2d49e33148015906103755750731e2e1aed876f67fe4fd54090fd7b8f57ce2342193314155b156103b6576040517fd002e25a000000000000000000000000000000000000000000000000000000008152620186fd60048201526024015b60405180910390fd5b6103c185600161098f565b6103cb8582610a37565b60008060006103d988610520565b9250925092506103e98388610b78565b6103f38287610b78565b6103fd8186610b78565b73ffffffffffffffffffffffffffffffffffffffff88166000818152602081815260408083206001845290915280822042905580517fa295521c000000000000000000000000000000000000000000000000000000008152600481018b9052602481018a90526044810189905260648101889052905163a295521c9260848084019391929182900301818387803b15801561049757600080fd5b505af11580156104ab573d6000803e3d6000fd5b50506040805173ffffffffffffffffffffffffffffffffffffffff8c168152602081018b905290810189905260608101889052608081018790527f82ceba599c46eabf6de3c6ba0558feeb7dbbf9320563978379dc945fc102d6e9925060a00190505b60405180910390a15050505050505050565b6040517fb5c736e40000000000000000000000000000000000000000000000000000000081526001600482015260009081908190819073ffffffffffffffffffffffffffffffffffffffff86169063b5c736e490602401602060405180830381865afa158015610594573d6000803e3d6000fd5b505050506040513d601f19601f820116820180604052508101906105b89190610db0565b90506105ce6103e8604483901c6103ff16610e27565b93506105e46103e8604e83901c6103ff16610e27565b939593945060581c62ffffff1692915050565b734f6f977acdd1177dcd81ab83074855ecb9c2d49e331480159061062f5750731e2e1aed876f67fe4fd54090fd7b8f57ce2342193314155b1561066b576040517fd002e25a000000000000000000000000000000000000000000000000000000008152620186fd60048201526024016103ad565b61067684600061098f565b6106808482610a37565b60008061068c8661028c565b9150915061069a8286610b78565b6106a48185610b78565b73ffffffffffffffffffffffffffffffffffffffff861660008181526020818152604080832083805290915280822042905580517fe552a1e3000000000000000000000000000000000000000000000000000000008152600481018990526024810188905260448101879052905163e552a1e39260648084019391929182900301818387803b15801561073657600080fd5b505af115801561074a573d6000803e3d6000fd5b50506040805173ffffffffffffffffffffffffffffffffffffffff8a16815260208101899052908101879052606081018690527f150653412b7ff8422744f4274725986f99e5ed162931d6bc666c49d25b2057f29250608001905060405180910390a1505050505050565b734f6f977acdd1177dcd81ab83074855ecb9c2d49e33148015906107ed5750731e2e1aed876f67fe4fd54090fd7b8f57ce2342193314155b15610829576040517fd002e25a000000000000000000000000000000000000000000000000000000008152620186fd60048201526024016103ad565b61083484600061098f565b61083e8482610a37565b61084f61084a84610b94565b610bb3565b61085b61084a83610b94565b6000806108678661028c565b9150915060006108778387610bf8565b905060006108858387610bf8565b73ffffffffffffffffffffffffffffffffffffffff891660008181526020818152604080832083805290915280822042905580517fe552a1e30000000000000000000000000000000000000000000000000000000081526004810187905260248101859052604481018a90529051939450919263e552a1e392606480820193929182900301818387803b15801561091b57600080fd5b505af115801561092f573d6000803e3d6000fd5b50506040805173ffffffffffffffffffffffffffffffffffffffff8c16815260208101869052908101849052606081018890527f150653412b7ff8422744f4274725986f99e5ed162931d6bc666c49d25b2057f29250608001905061050e565b73ffffffffffffffffffffffffffffffffffffffff8216600090815260208190526040812062054600918360018111156109cb576109cb610dc9565b60018111156109dc576109dc610dc9565b815260200190815260200160002054426109f69190610e3e565b1015610a33576040517fd002e25a000000000000000000000000000000000000000000000000000000008152620186fc60048201526024016103ad565b5050565b466001148015610ae757507f000000000000000000000000000000000000000000000000000000000000000073ffffffffffffffffffffffffffffffffffffffff168273ffffffffffffffffffffffffffffffffffffffff161480610ae757507f000000000000000000000000000000000000000000000000000000000000000073ffffffffffffffffffffffffffffffffffffffff168273ffffffffffffffffffffffffffffffffffffffff16145b15610b29578015610a33576040517fd002e25a000000000000000000000000000000000000000000000000000000008152620186ff60048201526024016103ad565b6202a300811080610b3c5750620fd20081115b15610a33576040517fd002e25a000000000000000000000000000000000000000000000000000000008152620186ff60048201526024016103ad565b6000610b848383610c5d565b9050610b8f81610bb3565b505050565b6000808213610bab57610ba682610e51565b610bad565b815b92915050565b62030d40811115610bf5576040517fd002e25a000000000000000000000000000000000000000000000000000000008152620186fe60048201526024016103ad565b50565b600080821315610c2b57620f4240610c108385610e27565b610c1a9190610e89565b610c249084610ec4565b9050610bad565b620f4240610c3883610e51565b610c429085610e27565b610c4c9190610e89565b610c569084610e3e565b9392505050565b6000821580610c6b57508183145b15610c7857506000610bad565b81831115610c9157610c8a8284610e3e565b9050610c9e565b610c9b8383610e3e565b90505b82610cac82620f4240610e27565b610c569190610e89565b803573ffffffffffffffffffffffffffffffffffffffff81168114610cda57600080fd5b919050565b600060208284031215610cf157600080fd5b610c5682610cb6565b600080600080600060a08688031215610d1257600080fd5b610d1b86610cb6565b97602087013597506040870135966060810135965060800135945092505050565b60008060408385031215610d4f57600080fd5b610d5883610cb6565b9150602083013560028110610d6c57600080fd5b809150509250929050565b60008060008060808587031215610d8d57600080fd5b610d9685610cb6565b966020860135965060408601359560600135945092505050565b600060208284031215610dc257600080fd5b5051919050565b7f4e487b7100000000000000000000000000000000000000000000000000000000600052602160045260246000fd5b7f4e487b7100000000000000000000000000000000000000000000000000000000600052601160045260246000fd5b8082028115828204841417610bad57610bad610df8565b81810381811115610bad57610bad610df8565b60007f80000000000000000000000000000000000000000000000000000000000000008203610e8257610e82610df8565b5060000390565b600082610ebf577f4e487b7100000000000000000000000000000000000000000000000000000000600052601260045260246000fd5b500490565b80820180821115610bad57610bad610df856fea2646970667358221220c3fb92da7d2bf175c9d1f0f76db8b168404dea55b07cd816cad1a481912ed04064736f6c63430008150033",
  "devdoc": {
    "kind": "dev",
    "methods": {
      "setRanges(address,uint256,uint256,uint256)": {
        "details": "This function can only be called by team multisig",
        "params": {
          "dex_": "The address of the dex",
          "lowerRangePercent_": "The new lower range to be set",
          "upperRangePercent_": "The new upper range to be set"
        }
      },
      "setRangesByPercentage(address,int256,int256,uint256)": {
        "details": "This function can only be called by team multisig",
        "params": {
          "dex_": "The address of the dex",
          "newLowerRangePercentage_": "The new lower range percentage change, 10000 = 1%. Positive to increase, negative to decrease",
          "newUpperRangePercentage_": "The new upper range percentage change, 10000 = 1%. Positive to increase, negative to decrease"
        }
      },
      "setThresholdConfig(address,uint256,uint256,uint256,uint256)": {
        "details": "This function can only be called by team multisig",
        "params": {
          "dex_": "The address of the dex",
          "lowerThresholdPercent_": "The new lower threshold percent, 10000 = 1%",
          "thresholdShiftTime_": "The new threshold shift time",
          "upperThresholdPercent_": "The new upper threshold percent, 10000 = 1%"
        }
      }
    },
    "version": 1
  },
  "userdoc": {
    "events": {
      "LogSetRanges(address,uint256,uint256,uint256)": {
        "notice": "emitted when multisig successfully changes the upper and lower range percent configs"
      },
      "LogSetThresholdConfig(address,uint256,uint256,uint256,uint256)": {
        "notice": "emitted when multisig successfully changes threshold configs"
      }
    },
    "kind": "user",
    "methods": {
      "TEAM_MULTISIG()": {
        "notice": "Team multisigs allowed to trigger methods"
      },
      "dexLastUpdateTimestamp(address,uint8)": {
        "notice": "dex => UpdateType => last update time when a Dex config was updated"
      },
      "setRanges(address,uint256,uint256,uint256)": {
        "notice": "Sets the upper and lower range for a dex"
      },
      "setRangesByPercentage(address,int256,int256,uint256)": {
        "notice": "Sets the upper and lower range for a dex by percentage to change from current config"
      },
      "setThresholdConfig(address,uint256,uint256,uint256,uint256)": {
        "notice": "Sets the upper and lower threshold percent for a dex"
      }
    },
    "version": 1
  },
  "storageLayout": {
    "storage": [
      {
        "astId": 14502,
        "contract": "contracts/config/rangeAuthDex/main.sol:FluidRangeAuthDex",
        "label": "dexLastUpdateTimestamp",
        "offset": 0,
        "slot": "0",
        "type": "t_mapping(t_address,t_mapping(t_enum(UpdateType)14494,t_uint256))"
      }
    ],
    "types": {
      "t_address": {
        "encoding": "inplace",
        "label": "address",
        "numberOfBytes": "20"
      },
      "t_enum(UpdateType)14494": {
        "encoding": "inplace",
        "label": "enum Variables.UpdateType",
        "numberOfBytes": "1"
      },
      "t_mapping(t_address,t_mapping(t_enum(UpdateType)14494,t_uint256))": {
        "encoding": "mapping",
        "key": "t_address",
        "label": "mapping(address => mapping(enum Variables.UpdateType => uint256))",
        "numberOfBytes": "32",
        "value": "t_mapping(t_enum(UpdateType)14494,t_uint256)"
      },
      "t_mapping(t_enum(UpdateType)14494,t_uint256)": {
        "encoding": "mapping",
        "key": "t_enum(UpdateType)14494",
        "label": "mapping(enum Variables.UpdateType => uint256)",
        "numberOfBytes": "32",
        "value": "t_uint256"
      },
      "t_uint256": {
        "encoding": "inplace",
        "label": "uint256",
        "numberOfBytes": "32"
      }
    }
  }
}