{
  "address": "0x704625f79c83c3e1828fbb732642d30eBc8663e6",
  "abi": [
    {
      "inputs": [
        {
          "internalType": "address",
          "name": "factory_",
          "type": "address"
        },
        {
          "internalType": "address",
          "name": "liquidity_",
          "type": "address"
        },
        {
          "internalType": "address",
          "name": "liquidityResolver_",
          "type": "address"
        }
      ],
      "stateMutability": "nonpayable",
      "type": "constructor"
    },
    {
      "inputs": [],
      "name": "FACTORY",
      "outputs": [
        {
          "internalType": "contract IFluidVaultFactory",
          "name": "",
          "type": "address"
        }
      ],
      "stateMutability": "view",
      "type": "function"
    },
    {
      "inputs": [],
      "name": "LIQUIDITY",
      "outputs": [
        {
          "internalType": "contract IFluidLiquidity",
          "name": "",
          "type": "address"
        }
      ],
      "stateMutability": "view",
      "type": "function"
    },
    {
      "inputs": [],
      "name": "LIQUIDITY_RESOLVER",
      "outputs": [
        {
          "internalType": "contract IFluidLiquidityResolver",
          "name": "",
          "type": "address"
        }
      ],
      "stateMutability": "view",
      "type": "function"
    },
    {
      "inputs": [
        {
          "internalType": "uint256",
          "name": "slot_",
          "type": "uint256"
        },
        {
          "internalType": "int256",
          "name": "key1_",
          "type": "int256"
        },
        {
          "internalType": "uint256",
          "name": "key2_",
          "type": "uint256"
        }
      ],
      "name": "calculateDoubleIntUintMapping",
      "outputs": [
        {
          "internalType": "bytes32",
          "name": "",
          "type": "bytes32"
        }
      ],
      "stateMutability": "pure",
      "type": "function"
    },
    {
      "inputs": [
        {
          "internalType": "uint256",
          "name": "slot_",
          "type": "uint256"
        },
        {
          "internalType": "int256",
          "name": "key_",
          "type": "int256"
        }
      ],
      "name": "calculateStorageSlotIntMapping",
      "outputs": [
        {
          "internalType": "bytes32",
          "name": "",
          "type": "bytes32"
        }
      ],
      "stateMutability": "pure",
      "type": "function"
    },
    {
      "inputs": [
        {
          "internalType": "uint256",
          "name": "slot_",
          "type": "uint256"
        },
        {
          "internalType": "uint256",
          "name": "key_",
          "type": "uint256"
        }
      ],
      "name": "calculateStorageSlotUintMapping",
      "outputs": [
        {
          "internalType": "bytes32",
          "name": "",
          "type": "bytes32"
        }
      ],
      "stateMutability": "pure",
      "type": "function"
    },
    {
      "inputs": [
        {
          "internalType": "address",
          "name": "vault_",
          "type": "address"
        }
      ],
      "name": "getAbsorbedDustDebt",
      "outputs": [
        {
          "internalType": "uint256",
          "name": "",
          "type": "uint256"
        }
      ],
      "stateMutability": "view",
      "type": "function"
    },
    {
      "inputs": [
        {
          "internalType": "address",
          "name": "vault_",
          "type": "address"
        }
      ],
      "name": "getAbsorbedLiquidityRaw",
      "outputs": [
        {
          "internalType": "uint256",
          "name": "",
          "type": "uint256"
        }
      ],
      "stateMutability": "view",
      "type": "function"
    },
    {
      "inputs": [],
      "name": "getAllVaultsAddresses",
      "outputs": [
        {
          "internalType": "address[]",
          "name": "vaults_",
          "type": "address[]"
        }
      ],
      "stateMutability": "view",
      "type": "function"
    },
    {
      "inputs": [],
      "name": "getAllVaultsLiquidation",
      "outputs": [
        {
          "components": [
            {
              "internalType": "address",
              "name": "vault",
              "type": "address"
            },
            {
              "internalType": "address",
              "name": "tokenIn",
              "type": "address"
            },
            {
              "internalType": "address",
              "name": "tokenOut",
              "type": "address"
            },
            {
              "internalType": "uint256",
              "name": "tokenInAmtOne",
              "type": "uint256"
            },
            {
              "internalType": "uint256",
              "name": "tokenOutAmtOne",
              "type": "uint256"
            },
            {
              "internalType": "uint256",
              "name": "tokenInAmtTwo",
              "type": "uint256"
            },
            {
              "internalType": "uint256",
              "name": "tokenOutAmtTwo",
              "type": "uint256"
            }
          ],
          "internalType": "struct Structs.LiquidationStruct[]",
          "name": "liquidationsData_",
          "type": "tuple[]"
        }
      ],
      "stateMutability": "nonpayable",
      "type": "function"
    },
    {
      "inputs": [
        {
          "internalType": "address",
          "name": "vault_",
          "type": "address"
        },
        {
          "internalType": "uint256",
          "name": "branch_",
          "type": "uint256"
        }
      ],
      "name": "getBranchDataRaw",
      "outputs": [
        {
          "internalType": "uint256",
          "name": "",
          "type": "uint256"
        }
      ],
      "stateMutability": "view",
      "type": "function"
    },
    {
      "inputs": [
        {
          "internalType": "address[]",
          "name": "vaults_",
          "type": "address[]"
        },
        {
          "internalType": "uint256[]",
          "name": "tokensInAmt_",
          "type": "uint256[]"
        }
      ],
      "name": "getMultipleVaultsLiquidation",
      "outputs": [
        {
          "components": [
            {
              "internalType": "address",
              "name": "vault",
              "type": "address"
            },
            {
              "internalType": "address",
              "name": "tokenIn",
              "type": "address"
            },
            {
              "internalType": "address",
              "name": "tokenOut",
              "type": "address"
            },
            {
              "internalType": "uint256",
              "name": "tokenInAmtOne",
              "type": "uint256"
            },
            {
              "internalType": "uint256",
              "name": "tokenOutAmtOne",
              "type": "uint256"
            },
            {
              "internalType": "uint256",
              "name": "tokenInAmtTwo",
              "type": "uint256"
            },
            {
              "internalType": "uint256",
              "name": "tokenOutAmtTwo",
              "type": "uint256"
            }
          ],
          "internalType": "struct Structs.LiquidationStruct[]",
          "name": "liquidationsData_",
          "type": "tuple[]"
        }
      ],
      "stateMutability": "nonpayable",
      "type": "function"
    },
    {
      "inputs": [
        {
          "internalType": "address",
          "name": "vault_",
          "type": "address"
        },
        {
          "internalType": "uint256",
          "name": "positionId_",
          "type": "uint256"
        }
      ],
      "name": "getPositionDataRaw",
      "outputs": [
        {
          "internalType": "uint256",
          "name": "",
          "type": "uint256"
        }
      ],
      "stateMutability": "view",
      "type": "function"
    },
    {
      "inputs": [
        {
          "internalType": "address",
          "name": "vault_",
          "type": "address"
        }
      ],
      "name": "getRateRaw",
      "outputs": [
        {
          "internalType": "uint256",
          "name": "",
          "type": "uint256"
        }
      ],
      "stateMutability": "view",
      "type": "function"
    },
    {
      "inputs": [
        {
          "internalType": "address",
          "name": "vault_",
          "type": "address"
        }
      ],
      "name": "getRebalancer",
      "outputs": [
        {
          "internalType": "address",
          "name": "",
          "type": "address"
        }
      ],
      "stateMutability": "view",
      "type": "function"
    },
    {
      "inputs": [
        {
          "internalType": "address",
          "name": "vault_",
          "type": "address"
        },
        {
          "internalType": "int256",
          "name": "tick_",
          "type": "int256"
        }
      ],
      "name": "getTickDataRaw",
      "outputs": [
        {
          "internalType": "uint256",
          "name": "",
          "type": "uint256"
        }
      ],
      "stateMutability": "view",
      "type": "function"
    },
    {
      "inputs": [
        {
          "internalType": "address",
          "name": "vault_",
          "type": "address"
        },
        {
          "internalType": "int256",
          "name": "key_",
          "type": "int256"
        }
      ],
      "name": "getTickHasDebtRaw",
      "outputs": [
        {
          "internalType": "uint256",
          "name": "",
          "type": "uint256"
        }
      ],
      "stateMutability": "view",
      "type": "function"
    },
    {
      "inputs": [
        {
          "internalType": "address",
          "name": "vault_",
          "type": "address"
        },
        {
          "internalType": "int256",
          "name": "tick_",
          "type": "int256"
        },
        {
          "internalType": "uint256",
          "name": "id_",
          "type": "uint256"
        }
      ],
      "name": "getTickIdDataRaw",
      "outputs": [
        {
          "internalType": "uint256",
          "name": "",
          "type": "uint256"
        }
      ],
      "stateMutability": "view",
      "type": "function"
    },
    {
      "inputs": [
        {
          "internalType": "uint256",
          "name": "nftId_",
          "type": "uint256"
        }
      ],
      "name": "getTokenConfig",
      "outputs": [
        {
          "internalType": "uint256",
          "name": "",
          "type": "uint256"
        }
      ],
      "stateMutability": "view",
      "type": "function"
    },
    {
      "inputs": [],
      "name": "getTotalVaults",
      "outputs": [
        {
          "internalType": "uint256",
          "name": "",
          "type": "uint256"
        }
      ],
      "stateMutability": "view",
      "type": "function"
    },
    {
      "inputs": [
        {
          "internalType": "address",
          "name": "vault_",
          "type": "address"
        }
      ],
      "name": "getVaultAbsorb",
      "outputs": [
        {
          "components": [
            {
              "internalType": "address",
              "name": "vault",
              "type": "address"
            },
            {
              "internalType": "bool",
              "name": "absorbAvailable",
              "type": "bool"
            }
          ],
          "internalType": "struct Structs.AbsorbStruct",
          "name": "absorbData_",
          "type": "tuple"
        }
      ],
      "stateMutability": "nonpayable",
      "type": "function"
    },
    {
      "inputs": [
        {
          "internalType": "uint256",
          "name": "vaultId_",
          "type": "uint256"
        }
      ],
      "name": "getVaultAddress",
      "outputs": [
        {
          "internalType": "address",
          "name": "vault_",
          "type": "address"
        }
      ],
      "stateMutability": "view",
      "type": "function"
    },
    {
      "inputs": [
        {
          "internalType": "address",
          "name": "vault_",
          "type": "address"
        }
      ],
      "name": "getVaultEntireData",
      "outputs": [
        {
          "components": [
            {
              "internalType": "address",
              "name": "vault",
              "type": "address"
            },
            {
              "components": [
                {
                  "internalType": "address",
                  "name": "liquidity",
                  "type": "address"
                },
                {
                  "internalType": "address",
                  "name": "factory",
                  "type": "address"
                },
                {
                  "internalType": "address",
                  "name": "adminImplementation",
                  "type": "address"
                },
                {
                  "internalType": "address",
                  "name": "secondaryImplementation",
                  "type": "address"
                },
                {
                  "internalType": "address",
                  "name": "supplyToken",
                  "type": "address"
                },
                {
                  "internalType": "address",
                  "name": "borrowToken",
                  "type": "address"
                },
                {
                  "internalType": "uint8",
                  "name": "supplyDecimals",
                  "type": "uint8"
                },
                {
                  "internalType": "uint8",
                  "name": "borrowDecimals",
                  "type": "uint8"
                },
                {
                  "internalType": "uint256",
                  "name": "vaultId",
                  "type": "uint256"
                },
                {
                  "internalType": "bytes32",
                  "name": "liquiditySupplyExchangePriceSlot",
                  "type": "bytes32"
                },
                {
                  "internalType": "bytes32",
                  "name": "liquidityBorrowExchangePriceSlot",
                  "type": "bytes32"
                },
                {
                  "internalType": "bytes32",
                  "name": "liquidityUserSupplySlot",
                  "type": "bytes32"
                },
                {
                  "internalType": "bytes32",
                  "name": "liquidityUserBorrowSlot",
                  "type": "bytes32"
                }
              ],
              "internalType": "struct IFluidVaultT1.ConstantViews",
              "name": "constantVariables",
              "type": "tuple"
            },
            {
              "components": [
                {
                  "internalType": "uint16",
                  "name": "supplyRateMagnifier",
                  "type": "uint16"
                },
                {
                  "internalType": "uint16",
                  "name": "borrowRateMagnifier",
                  "type": "uint16"
                },
                {
                  "internalType": "uint16",
                  "name": "collateralFactor",
                  "type": "uint16"
                },
                {
                  "internalType": "uint16",
                  "name": "liquidationThreshold",
                  "type": "uint16"
                },
                {
                  "internalType": "uint16",
                  "name": "liquidationMaxLimit",
                  "type": "uint16"
                },
                {
                  "internalType": "uint16",
                  "name": "withdrawalGap",
                  "type": "uint16"
                },
                {
                  "internalType": "uint16",
                  "name": "liquidationPenalty",
                  "type": "uint16"
                },
                {
                  "internalType": "uint16",
                  "name": "borrowFee",
                  "type": "uint16"
                },
                {
                  "internalType": "address",
                  "name": "oracle",
                  "type": "address"
                },
                {
                  "internalType": "uint256",
                  "name": "oraclePriceOperate",
                  "type": "uint256"
                },
                {
                  "internalType": "uint256",
                  "name": "oraclePriceLiquidate",
                  "type": "uint256"
                },
                {
                  "internalType": "address",
                  "name": "rebalancer",
                  "type": "address"
                }
              ],
              "internalType": "struct Structs.Configs",
              "name": "configs",
              "type": "tuple"
            },
            {
              "components": [
                {
                  "internalType": "uint256",
                  "name": "lastStoredLiquiditySupplyExchangePrice",
                  "type": "uint256"
                },
                {
                  "internalType": "uint256",
                  "name": "lastStoredLiquidityBorrowExchangePrice",
                  "type": "uint256"
                },
                {
                  "internalType": "uint256",
                  "name": "lastStoredVaultSupplyExchangePrice",
                  "type": "uint256"
                },
                {
                  "internalType": "uint256",
                  "name": "lastStoredVaultBorrowExchangePrice",
                  "type": "uint256"
                },
                {
                  "internalType": "uint256",
                  "name": "liquiditySupplyExchangePrice",
                  "type": "uint256"
                },
                {
                  "internalType": "uint256",
                  "name": "liquidityBorrowExchangePrice",
                  "type": "uint256"
                },
                {
                  "internalType": "uint256",
                  "name": "vaultSupplyExchangePrice",
                  "type": "uint256"
                },
                {
                  "internalType": "uint256",
                  "name": "vaultBorrowExchangePrice",
                  "type": "uint256"
                },
                {
                  "internalType": "uint256",
                  "name": "supplyRateVault",
                  "type": "uint256"
                },
                {
                  "internalType": "uint256",
                  "name": "borrowRateVault",
                  "type": "uint256"
                },
                {
                  "internalType": "uint256",
                  "name": "supplyRateLiquidity",
                  "type": "uint256"
                },
                {
                  "internalType": "uint256",
                  "name": "borrowRateLiquidity",
                  "type": "uint256"
                },
                {
                  "internalType": "uint256",
                  "name": "rewardsRate",
                  "type": "uint256"
                }
              ],
              "internalType": "struct Structs.ExchangePricesAndRates",
              "name": "exchangePricesAndRates",
              "type": "tuple"
            },
            {
              "components": [
                {
                  "internalType": "uint256",
                  "name": "totalSupplyVault",
                  "type": "uint256"
                },
                {
                  "internalType": "uint256",
                  "name": "totalBorrowVault",
                  "type": "uint256"
                },
                {
                  "internalType": "uint256",
                  "name": "totalSupplyLiquidity",
                  "type": "uint256"
                },
                {
                  "internalType": "uint256",
                  "name": "totalBorrowLiquidity",
                  "type": "uint256"
                },
                {
                  "internalType": "uint256",
                  "name": "absorbedSupply",
                  "type": "uint256"
                },
                {
                  "internalType": "uint256",
                  "name": "absorbedBorrow",
                  "type": "uint256"
                }
              ],
              "internalType": "struct Structs.TotalSupplyAndBorrow",
              "name": "totalSupplyAndBorrow",
              "type": "tuple"
            },
            {
              "components": [
                {
                  "internalType": "uint256",
                  "name": "withdrawLimit",
                  "type": "uint256"
                },
                {
                  "internalType": "uint256",
                  "name": "withdrawableUntilLimit",
                  "type": "uint256"
                },
                {
                  "internalType": "uint256",
                  "name": "withdrawable",
                  "type": "uint256"
                },
                {
                  "internalType": "uint256",
                  "name": "borrowLimit",
                  "type": "uint256"
                },
                {
                  "internalType": "uint256",
                  "name": "borrowableUntilLimit",
                  "type": "uint256"
                },
                {
                  "internalType": "uint256",
                  "name": "borrowable",
                  "type": "uint256"
                },
                {
                  "internalType": "uint256",
                  "name": "borrowLimitUtilization",
                  "type": "uint256"
                },
                {
                  "internalType": "uint256",
                  "name": "minimumBorrowing",
                  "type": "uint256"
                }
              ],
              "internalType": "struct Structs.LimitsAndAvailability",
              "name": "limitsAndAvailability",
              "type": "tuple"
            },
            {
              "components": [
                {
                  "internalType": "uint256",
                  "name": "totalPositions",
                  "type": "uint256"
                },
                {
                  "internalType": "int256",
                  "name": "topTick",
                  "type": "int256"
                },
                {
                  "internalType": "uint256",
                  "name": "currentBranch",
                  "type": "uint256"
                },
                {
                  "internalType": "uint256",
                  "name": "totalBranch",
                  "type": "uint256"
                },
                {
                  "internalType": "uint256",
                  "name": "totalBorrow",
                  "type": "uint256"
                },
                {
                  "internalType": "uint256",
                  "name": "totalSupply",
                  "type": "uint256"
                },
                {
                  "components": [
                    {
                      "internalType": "uint256",
                      "name": "status",
                      "type": "uint256"
                    },
                    {
                      "internalType": "int256",
                      "name": "minimaTick",
                      "type": "int256"
                    },
                    {
                      "internalType": "uint256",
                      "name": "debtFactor",
                      "type": "uint256"
                    },
                    {
                      "internalType": "uint256",
                      "name": "partials",
                      "type": "uint256"
                    },
                    {
                      "internalType": "uint256",
                      "name": "debtLiquidity",
                      "type": "uint256"
                    },
                    {
                      "internalType": "uint256",
                      "name": "baseBranchId",
                      "type": "uint256"
                    },
                    {
                      "internalType": "int256",
                      "name": "baseBranchMinima",
                      "type": "int256"
                    }
                  ],
                  "internalType": "struct Structs.CurrentBranchState",
                  "name": "currentBranchState",
                  "type": "tuple"
                }
              ],
              "internalType": "struct Structs.VaultState",
              "name": "vaultState",
              "type": "tuple"
            },
            {
              "components": [
                {
                  "internalType": "bool",
                  "name": "modeWithInterest",
                  "type": "bool"
                },
                {
                  "internalType": "uint256",
                  "name": "supply",
                  "type": "uint256"
                },
                {
                  "internalType": "uint256",
                  "name": "withdrawalLimit",
                  "type": "uint256"
                },
                {
                  "internalType": "uint256",
                  "name": "lastUpdateTimestamp",
                  "type": "uint256"
                },
                {
                  "internalType": "uint256",
                  "name": "expandPercent",
                  "type": "uint256"
                },
                {
                  "internalType": "uint256",
                  "name": "expandDuration",
                  "type": "uint256"
                },
                {
                  "internalType": "uint256",
                  "name": "baseWithdrawalLimit",
                  "type": "uint256"
                },
                {
                  "internalType": "uint256",
                  "name": "withdrawableUntilLimit",
                  "type": "uint256"
                },
                {
                  "internalType": "uint256",
                  "name": "withdrawable",
                  "type": "uint256"
                }
              ],
              "internalType": "struct Structs.UserSupplyData",
              "name": "liquidityUserSupplyData",
              "type": "tuple"
            },
            {
              "components": [
                {
                  "internalType": "bool",
                  "name": "modeWithInterest",
                  "type": "bool"
                },
                {
                  "internalType": "uint256",
                  "name": "borrow",
                  "type": "uint256"
                },
                {
                  "internalType": "uint256",
                  "name": "borrowLimit",
                  "type": "uint256"
                },
                {
                  "internalType": "uint256",
                  "name": "lastUpdateTimestamp",
                  "type": "uint256"
                },
                {
                  "internalType": "uint256",
                  "name": "expandPercent",
                  "type": "uint256"
                },
                {
                  "internalType": "uint256",
                  "name": "expandDuration",
                  "type": "uint256"
                },
                {
                  "internalType": "uint256",
                  "name": "baseBorrowLimit",
                  "type": "uint256"
                },
                {
                  "internalType": "uint256",
                  "name": "maxBorrowLimit",
                  "type": "uint256"
                },
                {
                  "internalType": "uint256",
                  "name": "borrowableUntilLimit",
                  "type": "uint256"
                },
                {
                  "internalType": "uint256",
                  "name": "borrowable",
                  "type": "uint256"
                },
                {
                  "internalType": "uint256",
                  "name": "borrowLimitUtilization",
                  "type": "uint256"
                }
              ],
              "internalType": "struct Structs.UserBorrowData",
              "name": "liquidityUserBorrowData",
              "type": "tuple"
            }
          ],
          "internalType": "struct Structs.VaultEntireData",
          "name": "vaultData_",
          "type": "tuple"
        }
      ],
      "stateMutability": "view",
      "type": "function"
    },
    {
      "inputs": [
        {
          "internalType": "address",
          "name": "vault_",
          "type": "address"
        }
      ],
      "name": "getVaultId",
      "outputs": [
        {
          "internalType": "uint256",
          "name": "id_",
          "type": "uint256"
        }
      ],
      "stateMutability": "view",
      "type": "function"
    },
    {
      "inputs": [
        {
          "internalType": "address",
          "name": "vault_",
          "type": "address"
        },
        {
          "internalType": "uint256",
          "name": "tokenInAmt_",
          "type": "uint256"
        }
      ],
      "name": "getVaultLiquidation",
      "outputs": [
        {
          "components": [
            {
              "internalType": "address",
              "name": "vault",
              "type": "address"
            },
            {
              "internalType": "address",
              "name": "tokenIn",
              "type": "address"
            },
            {
              "internalType": "address",
              "name": "tokenOut",
              "type": "address"
            },
            {
              "internalType": "uint256",
              "name": "tokenInAmtOne",
              "type": "uint256"
            },
            {
              "internalType": "uint256",
              "name": "tokenOutAmtOne",
              "type": "uint256"
            },
            {
              "internalType": "uint256",
              "name": "tokenInAmtTwo",
              "type": "uint256"
            },
            {
              "internalType": "uint256",
              "name": "tokenOutAmtTwo",
              "type": "uint256"
            }
          ],
          "internalType": "struct Structs.LiquidationStruct",
          "name": "liquidationData_",
          "type": "tuple"
        }
      ],
      "stateMutability": "nonpayable",
      "type": "function"
    },
    {
      "inputs": [
        {
          "internalType": "address",
          "name": "vault_",
          "type": "address"
        }
      ],
      "name": "getVaultState",
      "outputs": [
        {
          "components": [
            {
              "internalType": "uint256",
              "name": "totalPositions",
              "type": "uint256"
            },
            {
              "internalType": "int256",
              "name": "topTick",
              "type": "int256"
            },
            {
              "internalType": "uint256",
              "name": "currentBranch",
              "type": "uint256"
            },
            {
              "internalType": "uint256",
              "name": "totalBranch",
              "type": "uint256"
            },
            {
              "internalType": "uint256",
              "name": "totalBorrow",
              "type": "uint256"
            },
            {
              "internalType": "uint256",
              "name": "totalSupply",
              "type": "uint256"
            },
            {
              "components": [
                {
                  "internalType": "uint256",
                  "name": "status",
                  "type": "uint256"
                },
                {
                  "internalType": "int256",
                  "name": "minimaTick",
                  "type": "int256"
                },
                {
                  "internalType": "uint256",
                  "name": "debtFactor",
                  "type": "uint256"
                },
                {
                  "internalType": "uint256",
                  "name": "partials",
                  "type": "uint256"
                },
                {
                  "internalType": "uint256",
                  "name": "debtLiquidity",
                  "type": "uint256"
                },
                {
                  "internalType": "uint256",
                  "name": "baseBranchId",
                  "type": "uint256"
                },
                {
                  "internalType": "int256",
                  "name": "baseBranchMinima",
                  "type": "int256"
                }
              ],
              "internalType": "struct Structs.CurrentBranchState",
              "name": "currentBranchState",
              "type": "tuple"
            }
          ],
          "internalType": "struct Structs.VaultState",
          "name": "vaultState_",
          "type": "tuple"
        }
      ],
      "stateMutability": "view",
      "type": "function"
    },
    {
      "inputs": [
        {
          "internalType": "address",
          "name": "vault_",
          "type": "address"
        }
      ],
      "name": "getVaultType",
      "outputs": [
        {
          "internalType": "uint256",
          "name": "vaultType_",
          "type": "uint256"
        }
      ],
      "stateMutability": "view",
      "type": "function"
    },
    {
      "inputs": [
        {
          "internalType": "address",
          "name": "vault_",
          "type": "address"
        }
      ],
      "name": "getVaultVariables2Raw",
      "outputs": [
        {
          "internalType": "uint256",
          "name": "",
          "type": "uint256"
        }
      ],
      "stateMutability": "view",
      "type": "function"
    },
    {
      "inputs": [
        {
          "internalType": "address",
          "name": "vault_",
          "type": "address"
        }
      ],
      "name": "getVaultVariablesRaw",
      "outputs": [
        {
          "internalType": "uint256",
          "name": "",
          "type": "uint256"
        }
      ],
      "stateMutability": "view",
      "type": "function"
    },
    {
      "inputs": [],
      "name": "getVaultsAbsorb",
      "outputs": [
        {
          "components": [
            {
              "internalType": "address",
              "name": "vault",
              "type": "address"
            },
            {
              "internalType": "bool",
              "name": "absorbAvailable",
              "type": "bool"
            }
          ],
          "internalType": "struct Structs.AbsorbStruct[]",
          "name": "absorbData_",
          "type": "tuple[]"
        }
      ],
      "stateMutability": "nonpayable",
      "type": "function"
    },
    {
      "inputs": [
        {
          "internalType": "address[]",
          "name": "vaults_",
          "type": "address[]"
        }
      ],
      "name": "getVaultsAbsorb",
      "outputs": [
        {
          "components": [
            {
              "internalType": "address",
              "name": "vault",
              "type": "address"
            },
            {
              "internalType": "bool",
              "name": "absorbAvailable",
              "type": "bool"
            }
          ],
          "internalType": "struct Structs.AbsorbStruct[]",
          "name": "absorbData_",
          "type": "tuple[]"
        }
      ],
      "stateMutability": "nonpayable",
      "type": "function"
    },
    {
      "inputs": [
        {
          "internalType": "address[]",
          "name": "vaults_",
          "type": "address[]"
        }
      ],
      "name": "getVaultsEntireData",
      "outputs": [
        {
          "components": [
            {
              "internalType": "address",
              "name": "vault",
              "type": "address"
            },
            {
              "components": [
                {
                  "internalType": "address",
                  "name": "liquidity",
                  "type": "address"
                },
                {
                  "internalType": "address",
                  "name": "factory",
                  "type": "address"
                },
                {
                  "internalType": "address",
                  "name": "adminImplementation",
                  "type": "address"
                },
                {
                  "internalType": "address",
                  "name": "secondaryImplementation",
                  "type": "address"
                },
                {
                  "internalType": "address",
                  "name": "supplyToken",
                  "type": "address"
                },
                {
                  "internalType": "address",
                  "name": "borrowToken",
                  "type": "address"
                },
                {
                  "internalType": "uint8",
                  "name": "supplyDecimals",
                  "type": "uint8"
                },
                {
                  "internalType": "uint8",
                  "name": "borrowDecimals",
                  "type": "uint8"
                },
                {
                  "internalType": "uint256",
                  "name": "vaultId",
                  "type": "uint256"
                },
                {
                  "internalType": "bytes32",
                  "name": "liquiditySupplyExchangePriceSlot",
                  "type": "bytes32"
                },
                {
                  "internalType": "bytes32",
                  "name": "liquidityBorrowExchangePriceSlot",
                  "type": "bytes32"
                },
                {
                  "internalType": "bytes32",
                  "name": "liquidityUserSupplySlot",
                  "type": "bytes32"
                },
                {
                  "internalType": "bytes32",
                  "name": "liquidityUserBorrowSlot",
                  "type": "bytes32"
                }
              ],
              "internalType": "struct IFluidVaultT1.ConstantViews",
              "name": "constantVariables",
              "type": "tuple"
            },
            {
              "components": [
                {
                  "internalType": "uint16",
                  "name": "supplyRateMagnifier",
                  "type": "uint16"
                },
                {
                  "internalType": "uint16",
                  "name": "borrowRateMagnifier",
                  "type": "uint16"
                },
                {
                  "internalType": "uint16",
                  "name": "collateralFactor",
                  "type": "uint16"
                },
                {
                  "internalType": "uint16",
                  "name": "liquidationThreshold",
                  "type": "uint16"
                },
                {
                  "internalType": "uint16",
                  "name": "liquidationMaxLimit",
                  "type": "uint16"
                },
                {
                  "internalType": "uint16",
                  "name": "withdrawalGap",
                  "type": "uint16"
                },
                {
                  "internalType": "uint16",
                  "name": "liquidationPenalty",
                  "type": "uint16"
                },
                {
                  "internalType": "uint16",
                  "name": "borrowFee",
                  "type": "uint16"
                },
                {
                  "internalType": "address",
                  "name": "oracle",
                  "type": "address"
                },
                {
                  "internalType": "uint256",
                  "name": "oraclePriceOperate",
                  "type": "uint256"
                },
                {
                  "internalType": "uint256",
                  "name": "oraclePriceLiquidate",
                  "type": "uint256"
                },
                {
                  "internalType": "address",
                  "name": "rebalancer",
                  "type": "address"
                }
              ],
              "internalType": "struct Structs.Configs",
              "name": "configs",
              "type": "tuple"
            },
            {
              "components": [
                {
                  "internalType": "uint256",
                  "name": "lastStoredLiquiditySupplyExchangePrice",
                  "type": "uint256"
                },
                {
                  "internalType": "uint256",
                  "name": "lastStoredLiquidityBorrowExchangePrice",
                  "type": "uint256"
                },
                {
                  "internalType": "uint256",
                  "name": "lastStoredVaultSupplyExchangePrice",
                  "type": "uint256"
                },
                {
                  "internalType": "uint256",
                  "name": "lastStoredVaultBorrowExchangePrice",
                  "type": "uint256"
                },
                {
                  "internalType": "uint256",
                  "name": "liquiditySupplyExchangePrice",
                  "type": "uint256"
                },
                {
                  "internalType": "uint256",
                  "name": "liquidityBorrowExchangePrice",
                  "type": "uint256"
                },
                {
                  "internalType": "uint256",
                  "name": "vaultSupplyExchangePrice",
                  "type": "uint256"
                },
                {
                  "internalType": "uint256",
                  "name": "vaultBorrowExchangePrice",
                  "type": "uint256"
                },
                {
                  "internalType": "uint256",
                  "name": "supplyRateVault",
                  "type": "uint256"
                },
                {
                  "internalType": "uint256",
                  "name": "borrowRateVault",
                  "type": "uint256"
                },
                {
                  "internalType": "uint256",
                  "name": "supplyRateLiquidity",
                  "type": "uint256"
                },
                {
                  "internalType": "uint256",
                  "name": "borrowRateLiquidity",
                  "type": "uint256"
                },
                {
                  "internalType": "uint256",
                  "name": "rewardsRate",
                  "type": "uint256"
                }
              ],
              "internalType": "struct Structs.ExchangePricesAndRates",
              "name": "exchangePricesAndRates",
              "type": "tuple"
            },
            {
              "components": [
                {
                  "internalType": "uint256",
                  "name": "totalSupplyVault",
                  "type": "uint256"
                },
                {
                  "internalType": "uint256",
                  "name": "totalBorrowVault",
                  "type": "uint256"
                },
                {
                  "internalType": "uint256",
                  "name": "totalSupplyLiquidity",
                  "type": "uint256"
                },
                {
                  "internalType": "uint256",
                  "name": "totalBorrowLiquidity",
                  "type": "uint256"
                },
                {
                  "internalType": "uint256",
                  "name": "absorbedSupply",
                  "type": "uint256"
                },
                {
                  "internalType": "uint256",
                  "name": "absorbedBorrow",
                  "type": "uint256"
                }
              ],
              "internalType": "struct Structs.TotalSupplyAndBorrow",
              "name": "totalSupplyAndBorrow",
              "type": "tuple"
            },
            {
              "components": [
                {
                  "internalType": "uint256",
                  "name": "withdrawLimit",
                  "type": "uint256"
                },
                {
                  "internalType": "uint256",
                  "name": "withdrawableUntilLimit",
                  "type": "uint256"
                },
                {
                  "internalType": "uint256",
                  "name": "withdrawable",
                  "type": "uint256"
                },
                {
                  "internalType": "uint256",
                  "name": "borrowLimit",
                  "type": "uint256"
                },
                {
                  "internalType": "uint256",
                  "name": "borrowableUntilLimit",
                  "type": "uint256"
                },
                {
                  "internalType": "uint256",
                  "name": "borrowable",
                  "type": "uint256"
                },
                {
                  "internalType": "uint256",
                  "name": "borrowLimitUtilization",
                  "type": "uint256"
                },
                {
                  "internalType": "uint256",
                  "name": "minimumBorrowing",
                  "type": "uint256"
                }
              ],
              "internalType": "struct Structs.LimitsAndAvailability",
              "name": "limitsAndAvailability",
              "type": "tuple"
            },
            {
              "components": [
                {
                  "internalType": "uint256",
                  "name": "totalPositions",
                  "type": "uint256"
                },
                {
                  "internalType": "int256",
                  "name": "topTick",
                  "type": "int256"
                },
                {
                  "internalType": "uint256",
                  "name": "currentBranch",
                  "type": "uint256"
                },
                {
                  "internalType": "uint256",
                  "name": "totalBranch",
                  "type": "uint256"
                },
                {
                  "internalType": "uint256",
                  "name": "totalBorrow",
                  "type": "uint256"
                },
                {
                  "internalType": "uint256",
                  "name": "totalSupply",
                  "type": "uint256"
                },
                {
                  "components": [
                    {
                      "internalType": "uint256",
                      "name": "status",
                      "type": "uint256"
                    },
                    {
                      "internalType": "int256",
                      "name": "minimaTick",
                      "type": "int256"
                    },
                    {
                      "internalType": "uint256",
                      "name": "debtFactor",
                      "type": "uint256"
                    },
                    {
                      "internalType": "uint256",
                      "name": "partials",
                      "type": "uint256"
                    },
                    {
                      "internalType": "uint256",
                      "name": "debtLiquidity",
                      "type": "uint256"
                    },
                    {
                      "internalType": "uint256",
                      "name": "baseBranchId",
                      "type": "uint256"
                    },
                    {
                      "internalType": "int256",
                      "name": "baseBranchMinima",
                      "type": "int256"
                    }
                  ],
                  "internalType": "struct Structs.CurrentBranchState",
                  "name": "currentBranchState",
                  "type": "tuple"
                }
              ],
              "internalType": "struct Structs.VaultState",
              "name": "vaultState",
              "type": "tuple"
            },
            {
              "components": [
                {
                  "internalType": "bool",
                  "name": "modeWithInterest",
                  "type": "bool"
                },
                {
                  "internalType": "uint256",
                  "name": "supply",
                  "type": "uint256"
                },
                {
                  "internalType": "uint256",
                  "name": "withdrawalLimit",
                  "type": "uint256"
                },
                {
                  "internalType": "uint256",
                  "name": "lastUpdateTimestamp",
                  "type": "uint256"
                },
                {
                  "internalType": "uint256",
                  "name": "expandPercent",
                  "type": "uint256"
                },
                {
                  "internalType": "uint256",
                  "name": "expandDuration",
                  "type": "uint256"
                },
                {
                  "internalType": "uint256",
                  "name": "baseWithdrawalLimit",
                  "type": "uint256"
                },
                {
                  "internalType": "uint256",
                  "name": "withdrawableUntilLimit",
                  "type": "uint256"
                },
                {
                  "internalType": "uint256",
                  "name": "withdrawable",
                  "type": "uint256"
                }
              ],
              "internalType": "struct Structs.UserSupplyData",
              "name": "liquidityUserSupplyData",
              "type": "tuple"
            },
            {
              "components": [
                {
                  "internalType": "bool",
                  "name": "modeWithInterest",
                  "type": "bool"
                },
                {
                  "internalType": "uint256",
                  "name": "borrow",
                  "type": "uint256"
                },
                {
                  "internalType": "uint256",
                  "name": "borrowLimit",
                  "type": "uint256"
                },
                {
                  "internalType": "uint256",
                  "name": "lastUpdateTimestamp",
                  "type": "uint256"
                },
                {
                  "internalType": "uint256",
                  "name": "expandPercent",
                  "type": "uint256"
                },
                {
                  "internalType": "uint256",
                  "name": "expandDuration",
                  "type": "uint256"
                },
                {
                  "internalType": "uint256",
                  "name": "baseBorrowLimit",
                  "type": "uint256"
                },
                {
                  "internalType": "uint256",
                  "name": "maxBorrowLimit",
                  "type": "uint256"
                },
                {
                  "internalType": "uint256",
                  "name": "borrowableUntilLimit",
                  "type": "uint256"
                },
                {
                  "internalType": "uint256",
                  "name": "borrowable",
                  "type": "uint256"
                },
                {
                  "internalType": "uint256",
                  "name": "borrowLimitUtilization",
                  "type": "uint256"
                }
              ],
              "internalType": "struct Structs.UserBorrowData",
              "name": "liquidityUserBorrowData",
              "type": "tuple"
            }
          ],
          "internalType": "struct Structs.VaultEntireData[]",
          "name": "vaultsData_",
          "type": "tuple[]"
        }
      ],
      "stateMutability": "view",
      "type": "function"
    },
    {
      "inputs": [],
      "name": "getVaultsEntireData",
      "outputs": [
        {
          "components": [
            {
              "internalType": "address",
              "name": "vault",
              "type": "address"
            },
            {
              "components": [
                {
                  "internalType": "address",
                  "name": "liquidity",
                  "type": "address"
                },
                {
                  "internalType": "address",
                  "name": "factory",
                  "type": "address"
                },
                {
                  "internalType": "address",
                  "name": "adminImplementation",
                  "type": "address"
                },
                {
                  "internalType": "address",
                  "name": "secondaryImplementation",
                  "type": "address"
                },
                {
                  "internalType": "address",
                  "name": "supplyToken",
                  "type": "address"
                },
                {
                  "internalType": "address",
                  "name": "borrowToken",
                  "type": "address"
                },
                {
                  "internalType": "uint8",
                  "name": "supplyDecimals",
                  "type": "uint8"
                },
                {
                  "internalType": "uint8",
                  "name": "borrowDecimals",
                  "type": "uint8"
                },
                {
                  "internalType": "uint256",
                  "name": "vaultId",
                  "type": "uint256"
                },
                {
                  "internalType": "bytes32",
                  "name": "liquiditySupplyExchangePriceSlot",
                  "type": "bytes32"
                },
                {
                  "internalType": "bytes32",
                  "name": "liquidityBorrowExchangePriceSlot",
                  "type": "bytes32"
                },
                {
                  "internalType": "bytes32",
                  "name": "liquidityUserSupplySlot",
                  "type": "bytes32"
                },
                {
                  "internalType": "bytes32",
                  "name": "liquidityUserBorrowSlot",
                  "type": "bytes32"
                }
              ],
              "internalType": "struct IFluidVaultT1.ConstantViews",
              "name": "constantVariables",
              "type": "tuple"
            },
            {
              "components": [
                {
                  "internalType": "uint16",
                  "name": "supplyRateMagnifier",
                  "type": "uint16"
                },
                {
                  "internalType": "uint16",
                  "name": "borrowRateMagnifier",
                  "type": "uint16"
                },
                {
                  "internalType": "uint16",
                  "name": "collateralFactor",
                  "type": "uint16"
                },
                {
                  "internalType": "uint16",
                  "name": "liquidationThreshold",
                  "type": "uint16"
                },
                {
                  "internalType": "uint16",
                  "name": "liquidationMaxLimit",
                  "type": "uint16"
                },
                {
                  "internalType": "uint16",
                  "name": "withdrawalGap",
                  "type": "uint16"
                },
                {
                  "internalType": "uint16",
                  "name": "liquidationPenalty",
                  "type": "uint16"
                },
                {
                  "internalType": "uint16",
                  "name": "borrowFee",
                  "type": "uint16"
                },
                {
                  "internalType": "address",
                  "name": "oracle",
                  "type": "address"
                },
                {
                  "internalType": "uint256",
                  "name": "oraclePriceOperate",
                  "type": "uint256"
                },
                {
                  "internalType": "uint256",
                  "name": "oraclePriceLiquidate",
                  "type": "uint256"
                },
                {
                  "internalType": "address",
                  "name": "rebalancer",
                  "type": "address"
                }
              ],
              "internalType": "struct Structs.Configs",
              "name": "configs",
              "type": "tuple"
            },
            {
              "components": [
                {
                  "internalType": "uint256",
                  "name": "lastStoredLiquiditySupplyExchangePrice",
                  "type": "uint256"
                },
                {
                  "internalType": "uint256",
                  "name": "lastStoredLiquidityBorrowExchangePrice",
                  "type": "uint256"
                },
                {
                  "internalType": "uint256",
                  "name": "lastStoredVaultSupplyExchangePrice",
                  "type": "uint256"
                },
                {
                  "internalType": "uint256",
                  "name": "lastStoredVaultBorrowExchangePrice",
                  "type": "uint256"
                },
                {
                  "internalType": "uint256",
                  "name": "liquiditySupplyExchangePrice",
                  "type": "uint256"
                },
                {
                  "internalType": "uint256",
                  "name": "liquidityBorrowExchangePrice",
                  "type": "uint256"
                },
                {
                  "internalType": "uint256",
                  "name": "vaultSupplyExchangePrice",
                  "type": "uint256"
                },
                {
                  "internalType": "uint256",
                  "name": "vaultBorrowExchangePrice",
                  "type": "uint256"
                },
                {
                  "internalType": "uint256",
                  "name": "supplyRateVault",
                  "type": "uint256"
                },
                {
                  "internalType": "uint256",
                  "name": "borrowRateVault",
                  "type": "uint256"
                },
                {
                  "internalType": "uint256",
                  "name": "supplyRateLiquidity",
                  "type": "uint256"
                },
                {
                  "internalType": "uint256",
                  "name": "borrowRateLiquidity",
                  "type": "uint256"
                },
                {
                  "internalType": "uint256",
                  "name": "rewardsRate",
                  "type": "uint256"
                }
              ],
              "internalType": "struct Structs.ExchangePricesAndRates",
              "name": "exchangePricesAndRates",
              "type": "tuple"
            },
            {
              "components": [
                {
                  "internalType": "uint256",
                  "name": "totalSupplyVault",
                  "type": "uint256"
                },
                {
                  "internalType": "uint256",
                  "name": "totalBorrowVault",
                  "type": "uint256"
                },
                {
                  "internalType": "uint256",
                  "name": "totalSupplyLiquidity",
                  "type": "uint256"
                },
                {
                  "internalType": "uint256",
                  "name": "totalBorrowLiquidity",
                  "type": "uint256"
                },
                {
                  "internalType": "uint256",
                  "name": "absorbedSupply",
                  "type": "uint256"
                },
                {
                  "internalType": "uint256",
                  "name": "absorbedBorrow",
                  "type": "uint256"
                }
              ],
              "internalType": "struct Structs.TotalSupplyAndBorrow",
              "name": "totalSupplyAndBorrow",
              "type": "tuple"
            },
            {
              "components": [
                {
                  "internalType": "uint256",
                  "name": "withdrawLimit",
                  "type": "uint256"
                },
                {
                  "internalType": "uint256",
                  "name": "withdrawableUntilLimit",
                  "type": "uint256"
                },
                {
                  "internalType": "uint256",
                  "name": "withdrawable",
                  "type": "uint256"
                },
                {
                  "internalType": "uint256",
                  "name": "borrowLimit",
                  "type": "uint256"
                },
                {
                  "internalType": "uint256",
                  "name": "borrowableUntilLimit",
                  "type": "uint256"
                },
                {
                  "internalType": "uint256",
                  "name": "borrowable",
                  "type": "uint256"
                },
                {
                  "internalType": "uint256",
                  "name": "borrowLimitUtilization",
                  "type": "uint256"
                },
                {
                  "internalType": "uint256",
                  "name": "minimumBorrowing",
                  "type": "uint256"
                }
              ],
              "internalType": "struct Structs.LimitsAndAvailability",
              "name": "limitsAndAvailability",
              "type": "tuple"
            },
            {
              "components": [
                {
                  "internalType": "uint256",
                  "name": "totalPositions",
                  "type": "uint256"
                },
                {
                  "internalType": "int256",
                  "name": "topTick",
                  "type": "int256"
                },
                {
                  "internalType": "uint256",
                  "name": "currentBranch",
                  "type": "uint256"
                },
                {
                  "internalType": "uint256",
                  "name": "totalBranch",
                  "type": "uint256"
                },
                {
                  "internalType": "uint256",
                  "name": "totalBorrow",
                  "type": "uint256"
                },
                {
                  "internalType": "uint256",
                  "name": "totalSupply",
                  "type": "uint256"
                },
                {
                  "components": [
                    {
                      "internalType": "uint256",
                      "name": "status",
                      "type": "uint256"
                    },
                    {
                      "internalType": "int256",
                      "name": "minimaTick",
                      "type": "int256"
                    },
                    {
                      "internalType": "uint256",
                      "name": "debtFactor",
                      "type": "uint256"
                    },
                    {
                      "internalType": "uint256",
                      "name": "partials",
                      "type": "uint256"
                    },
                    {
                      "internalType": "uint256",
                      "name": "debtLiquidity",
                      "type": "uint256"
                    },
                    {
                      "internalType": "uint256",
                      "name": "baseBranchId",
                      "type": "uint256"
                    },
                    {
                      "internalType": "int256",
                      "name": "baseBranchMinima",
                      "type": "int256"
                    }
                  ],
                  "internalType": "struct Structs.CurrentBranchState",
                  "name": "currentBranchState",
                  "type": "tuple"
                }
              ],
              "internalType": "struct Structs.VaultState",
              "name": "vaultState",
              "type": "tuple"
            },
            {
              "components": [
                {
                  "internalType": "bool",
                  "name": "modeWithInterest",
                  "type": "bool"
                },
                {
                  "internalType": "uint256",
                  "name": "supply",
                  "type": "uint256"
                },
                {
                  "internalType": "uint256",
                  "name": "withdrawalLimit",
                  "type": "uint256"
                },
                {
                  "internalType": "uint256",
                  "name": "lastUpdateTimestamp",
                  "type": "uint256"
                },
                {
                  "internalType": "uint256",
                  "name": "expandPercent",
                  "type": "uint256"
                },
                {
                  "internalType": "uint256",
                  "name": "expandDuration",
                  "type": "uint256"
                },
                {
                  "internalType": "uint256",
                  "name": "baseWithdrawalLimit",
                  "type": "uint256"
                },
                {
                  "internalType": "uint256",
                  "name": "withdrawableUntilLimit",
                  "type": "uint256"
                },
                {
                  "internalType": "uint256",
                  "name": "withdrawable",
                  "type": "uint256"
                }
              ],
              "internalType": "struct Structs.UserSupplyData",
              "name": "liquidityUserSupplyData",
              "type": "tuple"
            },
            {
              "components": [
                {
                  "internalType": "bool",
                  "name": "modeWithInterest",
                  "type": "bool"
                },
                {
                  "internalType": "uint256",
                  "name": "borrow",
                  "type": "uint256"
                },
                {
                  "internalType": "uint256",
                  "name": "borrowLimit",
                  "type": "uint256"
                },
                {
                  "internalType": "uint256",
                  "name": "lastUpdateTimestamp",
                  "type": "uint256"
                },
                {
                  "internalType": "uint256",
                  "name": "expandPercent",
                  "type": "uint256"
                },
                {
                  "internalType": "uint256",
                  "name": "expandDuration",
                  "type": "uint256"
                },
                {
                  "internalType": "uint256",
                  "name": "baseBorrowLimit",
                  "type": "uint256"
                },
                {
                  "internalType": "uint256",
                  "name": "maxBorrowLimit",
                  "type": "uint256"
                },
                {
                  "internalType": "uint256",
                  "name": "borrowableUntilLimit",
                  "type": "uint256"
                },
                {
                  "internalType": "uint256",
                  "name": "borrowable",
                  "type": "uint256"
                },
                {
                  "internalType": "uint256",
                  "name": "borrowLimitUtilization",
                  "type": "uint256"
                }
              ],
              "internalType": "struct Structs.UserBorrowData",
              "name": "liquidityUserBorrowData",
              "type": "tuple"
            }
          ],
          "internalType": "struct Structs.VaultEntireData[]",
          "name": "vaultsData_",
          "type": "tuple[]"
        }
      ],
      "stateMutability": "view",
      "type": "function"
    },
    {
      "inputs": [
        {
          "internalType": "uint256",
          "name": "slot_",
          "type": "uint256"
        }
      ],
      "name": "normalSlot",
      "outputs": [
        {
          "internalType": "bytes32",
          "name": "",
          "type": "bytes32"
        }
      ],
      "stateMutability": "pure",
      "type": "function"
    },
    {
      "inputs": [
        {
          "internalType": "uint256",
          "name": "nftId_",
          "type": "uint256"
        }
      ],
      "name": "positionByNftId",
      "outputs": [
        {
          "components": [
            {
              "internalType": "uint256",
              "name": "nftId",
              "type": "uint256"
            },
            {
              "internalType": "address",
              "name": "owner",
              "type": "address"
            },
            {
              "internalType": "bool",
              "name": "isLiquidated",
              "type": "bool"
            },
            {
              "internalType": "bool",
              "name": "isSupplyPosition",
              "type": "bool"
            },
            {
              "internalType": "int256",
              "name": "tick",
              "type": "int256"
            },
            {
              "internalType": "uint256",
              "name": "tickId",
              "type": "uint256"
            },
            {
              "internalType": "uint256",
              "name": "beforeSupply",
              "type": "uint256"
            },
            {
              "internalType": "uint256",
              "name": "beforeBorrow",
              "type": "uint256"
            },
            {
              "internalType": "uint256",
              "name": "beforeDustBorrow",
              "type": "uint256"
            },
            {
              "internalType": "uint256",
              "name": "supply",
              "type": "uint256"
            },
            {
              "internalType": "uint256",
              "name": "borrow",
              "type": "uint256"
            },
            {
              "internalType": "uint256",
              "name": "dustBorrow",
              "type": "uint256"
            }
          ],
          "internalType": "struct Structs.UserPosition",
          "name": "userPosition_",
          "type": "tuple"
        },
        {
          "components": [
            {
              "internalType": "address",
              "name": "vault",
              "type": "address"
            },
            {
              "components": [
                {
                  "internalType": "address",
                  "name": "liquidity",
                  "type": "address"
                },
                {
                  "internalType": "address",
                  "name": "factory",
                  "type": "address"
                },
                {
                  "internalType": "address",
                  "name": "adminImplementation",
                  "type": "address"
                },
                {
                  "internalType": "address",
                  "name": "secondaryImplementation",
                  "type": "address"
                },
                {
                  "internalType": "address",
                  "name": "supplyToken",
                  "type": "address"
                },
                {
                  "internalType": "address",
                  "name": "borrowToken",
                  "type": "address"
                },
                {
                  "internalType": "uint8",
                  "name": "supplyDecimals",
                  "type": "uint8"
                },
                {
                  "internalType": "uint8",
                  "name": "borrowDecimals",
                  "type": "uint8"
                },
                {
                  "internalType": "uint256",
                  "name": "vaultId",
                  "type": "uint256"
                },
                {
                  "internalType": "bytes32",
                  "name": "liquiditySupplyExchangePriceSlot",
                  "type": "bytes32"
                },
                {
                  "internalType": "bytes32",
                  "name": "liquidityBorrowExchangePriceSlot",
                  "type": "bytes32"
                },
                {
                  "internalType": "bytes32",
                  "name": "liquidityUserSupplySlot",
                  "type": "bytes32"
                },
                {
                  "internalType": "bytes32",
                  "name": "liquidityUserBorrowSlot",
                  "type": "bytes32"
                }
              ],
              "internalType": "struct IFluidVaultT1.ConstantViews",
              "name": "constantVariables",
              "type": "tuple"
            },
            {
              "components": [
                {
                  "internalType": "uint16",
                  "name": "supplyRateMagnifier",
                  "type": "uint16"
                },
                {
                  "internalType": "uint16",
                  "name": "borrowRateMagnifier",
                  "type": "uint16"
                },
                {
                  "internalType": "uint16",
                  "name": "collateralFactor",
                  "type": "uint16"
                },
                {
                  "internalType": "uint16",
                  "name": "liquidationThreshold",
                  "type": "uint16"
                },
                {
                  "internalType": "uint16",
                  "name": "liquidationMaxLimit",
                  "type": "uint16"
                },
                {
                  "internalType": "uint16",
                  "name": "withdrawalGap",
                  "type": "uint16"
                },
                {
                  "internalType": "uint16",
                  "name": "liquidationPenalty",
                  "type": "uint16"
                },
                {
                  "internalType": "uint16",
                  "name": "borrowFee",
                  "type": "uint16"
                },
                {
                  "internalType": "address",
                  "name": "oracle",
                  "type": "address"
                },
                {
                  "internalType": "uint256",
                  "name": "oraclePriceOperate",
                  "type": "uint256"
                },
                {
                  "internalType": "uint256",
                  "name": "oraclePriceLiquidate",
                  "type": "uint256"
                },
                {
                  "internalType": "address",
                  "name": "rebalancer",
                  "type": "address"
                }
              ],
              "internalType": "struct Structs.Configs",
              "name": "configs",
              "type": "tuple"
            },
            {
              "components": [
                {
                  "internalType": "uint256",
                  "name": "lastStoredLiquiditySupplyExchangePrice",
                  "type": "uint256"
                },
                {
                  "internalType": "uint256",
                  "name": "lastStoredLiquidityBorrowExchangePrice",
                  "type": "uint256"
                },
                {
                  "internalType": "uint256",
                  "name": "lastStoredVaultSupplyExchangePrice",
                  "type": "uint256"
                },
                {
                  "internalType": "uint256",
                  "name": "lastStoredVaultBorrowExchangePrice",
                  "type": "uint256"
                },
                {
                  "internalType": "uint256",
                  "name": "liquiditySupplyExchangePrice",
                  "type": "uint256"
                },
                {
                  "internalType": "uint256",
                  "name": "liquidityBorrowExchangePrice",
                  "type": "uint256"
                },
                {
                  "internalType": "uint256",
                  "name": "vaultSupplyExchangePrice",
                  "type": "uint256"
                },
                {
                  "internalType": "uint256",
                  "name": "vaultBorrowExchangePrice",
                  "type": "uint256"
                },
                {
                  "internalType": "uint256",
                  "name": "supplyRateVault",
                  "type": "uint256"
                },
                {
                  "internalType": "uint256",
                  "name": "borrowRateVault",
                  "type": "uint256"
                },
                {
                  "internalType": "uint256",
                  "name": "supplyRateLiquidity",
                  "type": "uint256"
                },
                {
                  "internalType": "uint256",
                  "name": "borrowRateLiquidity",
                  "type": "uint256"
                },
                {
                  "internalType": "uint256",
                  "name": "rewardsRate",
                  "type": "uint256"
                }
              ],
              "internalType": "struct Structs.ExchangePricesAndRates",
              "name": "exchangePricesAndRates",
              "type": "tuple"
            },
            {
              "components": [
                {
                  "internalType": "uint256",
                  "name": "totalSupplyVault",
                  "type": "uint256"
                },
                {
                  "internalType": "uint256",
                  "name": "totalBorrowVault",
                  "type": "uint256"
                },
                {
                  "internalType": "uint256",
                  "name": "totalSupplyLiquidity",
                  "type": "uint256"
                },
                {
                  "internalType": "uint256",
                  "name": "totalBorrowLiquidity",
                  "type": "uint256"
                },
                {
                  "internalType": "uint256",
                  "name": "absorbedSupply",
                  "type": "uint256"
                },
                {
                  "internalType": "uint256",
                  "name": "absorbedBorrow",
                  "type": "uint256"
                }
              ],
              "internalType": "struct Structs.TotalSupplyAndBorrow",
              "name": "totalSupplyAndBorrow",
              "type": "tuple"
            },
            {
              "components": [
                {
                  "internalType": "uint256",
                  "name": "withdrawLimit",
                  "type": "uint256"
                },
                {
                  "internalType": "uint256",
                  "name": "withdrawableUntilLimit",
                  "type": "uint256"
                },
                {
                  "internalType": "uint256",
                  "name": "withdrawable",
                  "type": "uint256"
                },
                {
                  "internalType": "uint256",
                  "name": "borrowLimit",
                  "type": "uint256"
                },
                {
                  "internalType": "uint256",
                  "name": "borrowableUntilLimit",
                  "type": "uint256"
                },
                {
                  "internalType": "uint256",
                  "name": "borrowable",
                  "type": "uint256"
                },
                {
                  "internalType": "uint256",
                  "name": "borrowLimitUtilization",
                  "type": "uint256"
                },
                {
                  "internalType": "uint256",
                  "name": "minimumBorrowing",
                  "type": "uint256"
                }
              ],
              "internalType": "struct Structs.LimitsAndAvailability",
              "name": "limitsAndAvailability",
              "type": "tuple"
            },
            {
              "components": [
                {
                  "internalType": "uint256",
                  "name": "totalPositions",
                  "type": "uint256"
                },
                {
                  "internalType": "int256",
                  "name": "topTick",
                  "type": "int256"
                },
                {
                  "internalType": "uint256",
                  "name": "currentBranch",
                  "type": "uint256"
                },
                {
                  "internalType": "uint256",
                  "name": "totalBranch",
                  "type": "uint256"
                },
                {
                  "internalType": "uint256",
                  "name": "totalBorrow",
                  "type": "uint256"
                },
                {
                  "internalType": "uint256",
                  "name": "totalSupply",
                  "type": "uint256"
                },
                {
                  "components": [
                    {
                      "internalType": "uint256",
                      "name": "status",
                      "type": "uint256"
                    },
                    {
                      "internalType": "int256",
                      "name": "minimaTick",
                      "type": "int256"
                    },
                    {
                      "internalType": "uint256",
                      "name": "debtFactor",
                      "type": "uint256"
                    },
                    {
                      "internalType": "uint256",
                      "name": "partials",
                      "type": "uint256"
                    },
                    {
                      "internalType": "uint256",
                      "name": "debtLiquidity",
                      "type": "uint256"
                    },
                    {
                      "internalType": "uint256",
                      "name": "baseBranchId",
                      "type": "uint256"
                    },
                    {
                      "internalType": "int256",
                      "name": "baseBranchMinima",
                      "type": "int256"
                    }
                  ],
                  "internalType": "struct Structs.CurrentBranchState",
                  "name": "currentBranchState",
                  "type": "tuple"
                }
              ],
              "internalType": "struct Structs.VaultState",
              "name": "vaultState",
              "type": "tuple"
            },
            {
              "components": [
                {
                  "internalType": "bool",
                  "name": "modeWithInterest",
                  "type": "bool"
                },
                {
                  "internalType": "uint256",
                  "name": "supply",
                  "type": "uint256"
                },
                {
                  "internalType": "uint256",
                  "name": "withdrawalLimit",
                  "type": "uint256"
                },
                {
                  "internalType": "uint256",
                  "name": "lastUpdateTimestamp",
                  "type": "uint256"
                },
                {
                  "internalType": "uint256",
                  "name": "expandPercent",
                  "type": "uint256"
                },
                {
                  "internalType": "uint256",
                  "name": "expandDuration",
                  "type": "uint256"
                },
                {
                  "internalType": "uint256",
                  "name": "baseWithdrawalLimit",
                  "type": "uint256"
                },
                {
                  "internalType": "uint256",
                  "name": "withdrawableUntilLimit",
                  "type": "uint256"
                },
                {
                  "internalType": "uint256",
                  "name": "withdrawable",
                  "type": "uint256"
                }
              ],
              "internalType": "struct Structs.UserSupplyData",
              "name": "liquidityUserSupplyData",
              "type": "tuple"
            },
            {
              "components": [
                {
                  "internalType": "bool",
                  "name": "modeWithInterest",
                  "type": "bool"
                },
                {
                  "internalType": "uint256",
                  "name": "borrow",
                  "type": "uint256"
                },
                {
                  "internalType": "uint256",
                  "name": "borrowLimit",
                  "type": "uint256"
                },
                {
                  "internalType": "uint256",
                  "name": "lastUpdateTimestamp",
                  "type": "uint256"
                },
                {
                  "internalType": "uint256",
                  "name": "expandPercent",
                  "type": "uint256"
                },
                {
                  "internalType": "uint256",
                  "name": "expandDuration",
                  "type": "uint256"
                },
                {
                  "internalType": "uint256",
                  "name": "baseBorrowLimit",
                  "type": "uint256"
                },
                {
                  "internalType": "uint256",
                  "name": "maxBorrowLimit",
                  "type": "uint256"
                },
                {
                  "internalType": "uint256",
                  "name": "borrowableUntilLimit",
                  "type": "uint256"
                },
                {
                  "internalType": "uint256",
                  "name": "borrowable",
                  "type": "uint256"
                },
                {
                  "internalType": "uint256",
                  "name": "borrowLimitUtilization",
                  "type": "uint256"
                }
              ],
              "internalType": "struct Structs.UserBorrowData",
              "name": "liquidityUserBorrowData",
              "type": "tuple"
            }
          ],
          "internalType": "struct Structs.VaultEntireData",
          "name": "vaultData_",
          "type": "tuple"
        }
      ],
      "stateMutability": "view",
      "type": "function"
    },
    {
      "inputs": [
        {
          "internalType": "address",
          "name": "user_",
          "type": "address"
        }
      ],
      "name": "positionsByUser",
      "outputs": [
        {
          "components": [
            {
              "internalType": "uint256",
              "name": "nftId",
              "type": "uint256"
            },
            {
              "internalType": "address",
              "name": "owner",
              "type": "address"
            },
            {
              "internalType": "bool",
              "name": "isLiquidated",
              "type": "bool"
            },
            {
              "internalType": "bool",
              "name": "isSupplyPosition",
              "type": "bool"
            },
            {
              "internalType": "int256",
              "name": "tick",
              "type": "int256"
            },
            {
              "internalType": "uint256",
              "name": "tickId",
              "type": "uint256"
            },
            {
              "internalType": "uint256",
              "name": "beforeSupply",
              "type": "uint256"
            },
            {
              "internalType": "uint256",
              "name": "beforeBorrow",
              "type": "uint256"
            },
            {
              "internalType": "uint256",
              "name": "beforeDustBorrow",
              "type": "uint256"
            },
            {
              "internalType": "uint256",
              "name": "supply",
              "type": "uint256"
            },
            {
              "internalType": "uint256",
              "name": "borrow",
              "type": "uint256"
            },
            {
              "internalType": "uint256",
              "name": "dustBorrow",
              "type": "uint256"
            }
          ],
          "internalType": "struct Structs.UserPosition[]",
          "name": "userPositions_",
          "type": "tuple[]"
        },
        {
          "components": [
            {
              "internalType": "address",
              "name": "vault",
              "type": "address"
            },
            {
              "components": [
                {
                  "internalType": "address",
                  "name": "liquidity",
                  "type": "address"
                },
                {
                  "internalType": "address",
                  "name": "factory",
                  "type": "address"
                },
                {
                  "internalType": "address",
                  "name": "adminImplementation",
                  "type": "address"
                },
                {
                  "internalType": "address",
                  "name": "secondaryImplementation",
                  "type": "address"
                },
                {
                  "internalType": "address",
                  "name": "supplyToken",
                  "type": "address"
                },
                {
                  "internalType": "address",
                  "name": "borrowToken",
                  "type": "address"
                },
                {
                  "internalType": "uint8",
                  "name": "supplyDecimals",
                  "type": "uint8"
                },
                {
                  "internalType": "uint8",
                  "name": "borrowDecimals",
                  "type": "uint8"
                },
                {
                  "internalType": "uint256",
                  "name": "vaultId",
                  "type": "uint256"
                },
                {
                  "internalType": "bytes32",
                  "name": "liquiditySupplyExchangePriceSlot",
                  "type": "bytes32"
                },
                {
                  "internalType": "bytes32",
                  "name": "liquidityBorrowExchangePriceSlot",
                  "type": "bytes32"
                },
                {
                  "internalType": "bytes32",
                  "name": "liquidityUserSupplySlot",
                  "type": "bytes32"
                },
                {
                  "internalType": "bytes32",
                  "name": "liquidityUserBorrowSlot",
                  "type": "bytes32"
                }
              ],
              "internalType": "struct IFluidVaultT1.ConstantViews",
              "name": "constantVariables",
              "type": "tuple"
            },
            {
              "components": [
                {
                  "internalType": "uint16",
                  "name": "supplyRateMagnifier",
                  "type": "uint16"
                },
                {
                  "internalType": "uint16",
                  "name": "borrowRateMagnifier",
                  "type": "uint16"
                },
                {
                  "internalType": "uint16",
                  "name": "collateralFactor",
                  "type": "uint16"
                },
                {
                  "internalType": "uint16",
                  "name": "liquidationThreshold",
                  "type": "uint16"
                },
                {
                  "internalType": "uint16",
                  "name": "liquidationMaxLimit",
                  "type": "uint16"
                },
                {
                  "internalType": "uint16",
                  "name": "withdrawalGap",
                  "type": "uint16"
                },
                {
                  "internalType": "uint16",
                  "name": "liquidationPenalty",
                  "type": "uint16"
                },
                {
                  "internalType": "uint16",
                  "name": "borrowFee",
                  "type": "uint16"
                },
                {
                  "internalType": "address",
                  "name": "oracle",
                  "type": "address"
                },
                {
                  "internalType": "uint256",
                  "name": "oraclePriceOperate",
                  "type": "uint256"
                },
                {
                  "internalType": "uint256",
                  "name": "oraclePriceLiquidate",
                  "type": "uint256"
                },
                {
                  "internalType": "address",
                  "name": "rebalancer",
                  "type": "address"
                }
              ],
              "internalType": "struct Structs.Configs",
              "name": "configs",
              "type": "tuple"
            },
            {
              "components": [
                {
                  "internalType": "uint256",
                  "name": "lastStoredLiquiditySupplyExchangePrice",
                  "type": "uint256"
                },
                {
                  "internalType": "uint256",
                  "name": "lastStoredLiquidityBorrowExchangePrice",
                  "type": "uint256"
                },
                {
                  "internalType": "uint256",
                  "name": "lastStoredVaultSupplyExchangePrice",
                  "type": "uint256"
                },
                {
                  "internalType": "uint256",
                  "name": "lastStoredVaultBorrowExchangePrice",
                  "type": "uint256"
                },
                {
                  "internalType": "uint256",
                  "name": "liquiditySupplyExchangePrice",
                  "type": "uint256"
                },
                {
                  "internalType": "uint256",
                  "name": "liquidityBorrowExchangePrice",
                  "type": "uint256"
                },
                {
                  "internalType": "uint256",
                  "name": "vaultSupplyExchangePrice",
                  "type": "uint256"
                },
                {
                  "internalType": "uint256",
                  "name": "vaultBorrowExchangePrice",
                  "type": "uint256"
                },
                {
                  "internalType": "uint256",
                  "name": "supplyRateVault",
                  "type": "uint256"
                },
                {
                  "internalType": "uint256",
                  "name": "borrowRateVault",
                  "type": "uint256"
                },
                {
                  "internalType": "uint256",
                  "name": "supplyRateLiquidity",
                  "type": "uint256"
                },
                {
                  "internalType": "uint256",
                  "name": "borrowRateLiquidity",
                  "type": "uint256"
                },
                {
                  "internalType": "uint256",
                  "name": "rewardsRate",
                  "type": "uint256"
                }
              ],
              "internalType": "struct Structs.ExchangePricesAndRates",
              "name": "exchangePricesAndRates",
              "type": "tuple"
            },
            {
              "components": [
                {
                  "internalType": "uint256",
                  "name": "totalSupplyVault",
                  "type": "uint256"
                },
                {
                  "internalType": "uint256",
                  "name": "totalBorrowVault",
                  "type": "uint256"
                },
                {
                  "internalType": "uint256",
                  "name": "totalSupplyLiquidity",
                  "type": "uint256"
                },
                {
                  "internalType": "uint256",
                  "name": "totalBorrowLiquidity",
                  "type": "uint256"
                },
                {
                  "internalType": "uint256",
                  "name": "absorbedSupply",
                  "type": "uint256"
                },
                {
                  "internalType": "uint256",
                  "name": "absorbedBorrow",
                  "type": "uint256"
                }
              ],
              "internalType": "struct Structs.TotalSupplyAndBorrow",
              "name": "totalSupplyAndBorrow",
              "type": "tuple"
            },
            {
              "components": [
                {
                  "internalType": "uint256",
                  "name": "withdrawLimit",
                  "type": "uint256"
                },
                {
                  "internalType": "uint256",
                  "name": "withdrawableUntilLimit",
                  "type": "uint256"
                },
                {
                  "internalType": "uint256",
                  "name": "withdrawable",
                  "type": "uint256"
                },
                {
                  "internalType": "uint256",
                  "name": "borrowLimit",
                  "type": "uint256"
                },
                {
                  "internalType": "uint256",
                  "name": "borrowableUntilLimit",
                  "type": "uint256"
                },
                {
                  "internalType": "uint256",
                  "name": "borrowable",
                  "type": "uint256"
                },
                {
                  "internalType": "uint256",
                  "name": "borrowLimitUtilization",
                  "type": "uint256"
                },
                {
                  "internalType": "uint256",
                  "name": "minimumBorrowing",
                  "type": "uint256"
                }
              ],
              "internalType": "struct Structs.LimitsAndAvailability",
              "name": "limitsAndAvailability",
              "type": "tuple"
            },
            {
              "components": [
                {
                  "internalType": "uint256",
                  "name": "totalPositions",
                  "type": "uint256"
                },
                {
                  "internalType": "int256",
                  "name": "topTick",
                  "type": "int256"
                },
                {
                  "internalType": "uint256",
                  "name": "currentBranch",
                  "type": "uint256"
                },
                {
                  "internalType": "uint256",
                  "name": "totalBranch",
                  "type": "uint256"
                },
                {
                  "internalType": "uint256",
                  "name": "totalBorrow",
                  "type": "uint256"
                },
                {
                  "internalType": "uint256",
                  "name": "totalSupply",
                  "type": "uint256"
                },
                {
                  "components": [
                    {
                      "internalType": "uint256",
                      "name": "status",
                      "type": "uint256"
                    },
                    {
                      "internalType": "int256",
                      "name": "minimaTick",
                      "type": "int256"
                    },
                    {
                      "internalType": "uint256",
                      "name": "debtFactor",
                      "type": "uint256"
                    },
                    {
                      "internalType": "uint256",
                      "name": "partials",
                      "type": "uint256"
                    },
                    {
                      "internalType": "uint256",
                      "name": "debtLiquidity",
                      "type": "uint256"
                    },
                    {
                      "internalType": "uint256",
                      "name": "baseBranchId",
                      "type": "uint256"
                    },
                    {
                      "internalType": "int256",
                      "name": "baseBranchMinima",
                      "type": "int256"
                    }
                  ],
                  "internalType": "struct Structs.CurrentBranchState",
                  "name": "currentBranchState",
                  "type": "tuple"
                }
              ],
              "internalType": "struct Structs.VaultState",
              "name": "vaultState",
              "type": "tuple"
            },
            {
              "components": [
                {
                  "internalType": "bool",
                  "name": "modeWithInterest",
                  "type": "bool"
                },
                {
                  "internalType": "uint256",
                  "name": "supply",
                  "type": "uint256"
                },
                {
                  "internalType": "uint256",
                  "name": "withdrawalLimit",
                  "type": "uint256"
                },
                {
                  "internalType": "uint256",
                  "name": "lastUpdateTimestamp",
                  "type": "uint256"
                },
                {
                  "internalType": "uint256",
                  "name": "expandPercent",
                  "type": "uint256"
                },
                {
                  "internalType": "uint256",
                  "name": "expandDuration",
                  "type": "uint256"
                },
                {
                  "internalType": "uint256",
                  "name": "baseWithdrawalLimit",
                  "type": "uint256"
                },
                {
                  "internalType": "uint256",
                  "name": "withdrawableUntilLimit",
                  "type": "uint256"
                },
                {
                  "internalType": "uint256",
                  "name": "withdrawable",
                  "type": "uint256"
                }
              ],
              "internalType": "struct Structs.UserSupplyData",
              "name": "liquidityUserSupplyData",
              "type": "tuple"
            },
            {
              "components": [
                {
                  "internalType": "bool",
                  "name": "modeWithInterest",
                  "type": "bool"
                },
                {
                  "internalType": "uint256",
                  "name": "borrow",
                  "type": "uint256"
                },
                {
                  "internalType": "uint256",
                  "name": "borrowLimit",
                  "type": "uint256"
                },
                {
                  "internalType": "uint256",
                  "name": "lastUpdateTimestamp",
                  "type": "uint256"
                },
                {
                  "internalType": "uint256",
                  "name": "expandPercent",
                  "type": "uint256"
                },
                {
                  "internalType": "uint256",
                  "name": "expandDuration",
                  "type": "uint256"
                },
                {
                  "internalType": "uint256",
                  "name": "baseBorrowLimit",
                  "type": "uint256"
                },
                {
                  "internalType": "uint256",
                  "name": "maxBorrowLimit",
                  "type": "uint256"
                },
                {
                  "internalType": "uint256",
                  "name": "borrowableUntilLimit",
                  "type": "uint256"
                },
                {
                  "internalType": "uint256",
                  "name": "borrowable",
                  "type": "uint256"
                },
                {
                  "internalType": "uint256",
                  "name": "borrowLimitUtilization",
                  "type": "uint256"
                }
              ],
              "internalType": "struct Structs.UserBorrowData",
              "name": "liquidityUserBorrowData",
              "type": "tuple"
            }
          ],
          "internalType": "struct Structs.VaultEntireData[]",
          "name": "vaultsData_",
          "type": "tuple[]"
        }
      ],
      "stateMutability": "view",
      "type": "function"
    },
    {
      "inputs": [
        {
          "internalType": "address",
          "name": "user_",
          "type": "address"
        }
      ],
      "name": "positionsNftIdOfUser",
      "outputs": [
        {
          "internalType": "uint256[]",
          "name": "nftIds_",
          "type": "uint256[]"
        }
      ],
      "stateMutability": "view",
      "type": "function"
    },
    {
      "inputs": [
        {
          "internalType": "uint256",
          "name": "tickRaw_",
          "type": "uint256"
        }
      ],
      "name": "tickHelper",
      "outputs": [
        {
          "internalType": "int256",
          "name": "tick",
          "type": "int256"
        }
      ],
      "stateMutability": "pure",
      "type": "function"
    },
    {
      "inputs": [],
      "name": "totalPositions",
      "outputs": [
        {
          "internalType": "uint256",
          "name": "",
          "type": "uint256"
        }
      ],
      "stateMutability": "view",
      "type": "function"
    },
    {
      "inputs": [
        {
          "internalType": "uint256",
          "name": "nftId_",
          "type": "uint256"
        }
      ],
      "name": "vaultByNftId",
      "outputs": [
        {
          "internalType": "address",
          "name": "vault_",
          "type": "address"
        }
      ],
      "stateMutability": "view",
      "type": "function"
    }
  ],
  "transactionHash": "0x1a8ffacc90e75aba0167bfabca68c442420c63b56fc79767d22396e88d0c4af3",
  "args": [
    "0x324c5Dc1fC42c7a4D43d92df1eBA58a54d13Bf2d",
    "0x52Aa899454998Be5b000Ad077a46Bbe360F4e497",
    "0x4b6Bb77196A7B6D0722059033a600BdCD6C12DB7"
  ],
  "numDeployments": 1,
  "solcInputHash": "6c025873a9fc3a094245e39f39a9a187",
  "bytecode": "0x60e06040523480156200001157600080fd5b50604051620056f3380380620056f383398101604081905262000034916200006f565b6001600160a01b0392831660805290821660a0521660c052620000b9565b80516001600160a01b03811681146200006a57600080fd5b919050565b6000806000606084860312156200008557600080fd5b620000908462000052565b9250620000a06020850162000052565b9150620000b06040850162000052565b90509250925092565b60805160a05160c0516155c46200012f60003960008181610529015281816107c6015261084b0152600061041f01526000818161046601528181610abc01528181610fbd01528181611a4e01528181611cee0152818161201c015281816121250152818161240f015261254501526155c46000f3fe608060405234801561001057600080fd5b50600436106102c85760003560e01c80636902f79f1161017b578063bf518f5f116100d8578063e6bd26a21161008c578063eb1db01811610071578063eb1db0181461066c578063f70b198c1461067f578063fda1fa5f1461069257600080fd5b8063e6bd26a214610646578063ea19ba111461065957600080fd5b8063cbc7be65116100bd578063cbc7be6514610623578063dd19c0fe14610636578063e06a7b711461063e57600080fd5b8063bf518f5f146105f0578063c67b50931461060357600080fd5b80638bfbeda61161012f5780639d7aeeb4116101145780639d7aeeb4146105b7578063a8bc0693146105c8578063a8d9f493146105db57600080fd5b80638bfbeda6146105915780638f8b81f0146105a457600080fd5b80638530330411610160578063853033041461054b578063890a13911461055e5780638a0038881461057e57600080fd5b80636902f79f146105245780637bbede431461048857600080fd5b80632404a3f911610229578063344bd722116101dd57806351971bf7116101c257806351971bf7146104f65780635486f100146105095780636463e94c1461051157600080fd5b8063344bd722146104c2578063347ca8bb146104d557600080fd5b80632c44e1d11161020e5780632c44e1d1146104415780632dd31000146104615780632f2612cf1461048857600080fd5b80632404a3f9146104055780632861c7d11461041a57600080fd5b80631949138e116102805780631f51fd93116102655780631f51fd93146103b25780631fcd3649146103c557806320ee1e44146103e557600080fd5b80631949138e1461035a5780631ef8986d1461039257600080fd5b8063144128e8116102b1578063144128e8146103135780631579a46c14610334578063168a11c21461034757600080fd5b806303e883e0146102cd57806309c062e2146102f3575b600080fd5b6102e06102db3660046140b2565b61069a565b6040519081526020015b60405180910390f35b6103066103013660046140b2565b61071f565b6040516102ea91906145bf565b6103266103213660046145ce565b6109c1565b6040516102ea929190614690565b6102e06103423660046140b2565b610ea1565b6102e06103553660046146ad565b610ec6565b61036d6103683660046145ce565b610f76565b60405173ffffffffffffffffffffffffffffffffffffffff90911681526020016102ea565b6103a56103a03660046148cd565b61103d565b6040516102ea9190614948565b6102e06103c03660046140b2565b6110fb565b6103d86103d33660046146ad565b611201565b6040516102ea919061495b565b6103f86103f33660046140b2565b61157a565b6040516102ea91906149c4565b61040d6116c6565b6040516102ea9190614a47565b61036d7f000000000000000000000000000000000000000000000000000000000000000081565b61045461044f366004614ab6565b6116d8565b6040516102ea9190614b7c565b61036d7f000000000000000000000000000000000000000000000000000000000000000081565b6102e0610496366004614c25565b604080516020808201939093528082019390935280518084038201815260609093019052815191012090565b6102e06104d03660046140b2565b611823565b6104e86104e33660046140b2565b611870565b6040516102ea929190614c47565b6102e06105043660046140b2565b611a25565b6102e0611a4a565b61036d61051f3660046140b2565b611adb565b61036d7f000000000000000000000000000000000000000000000000000000000000000081565b6102e0610559366004614ca9565b611b00565b61057161056c3660046140b2565b611b91565b6040516102ea9190614cde565b6102e061058c3660046145ce565b611cac565b6102e061059f366004614d0d565b611d1a565b6102e06105b23660046145ce565b611da0565b6102e06105c53660046145ce565b90565b6102e06105d63660046146ad565b611e6d565b6105e3611ebb565b6040516102ea9190614d39565b6102e06105fe3660046146ad565b611f83565b6106166106113660046140b2565b611fd1565b6040516102ea9190614d87565b6102e06106313660046146ad565b6121bf565b61045461220d565b6103a5612352565b61036d6106543660046145ce565b612408565b61040d6106673660046148cd565b612434565b6102e061067a3660046140b2565b6124f7565b6102e061068d3660046140b2565b61251c565b6102e0612541565b600073ffffffffffffffffffffffffffffffffffffffff821663b5c736e4825b6040518263ffffffff1660e01b81526004016106d891815260200190565b602060405180830381865afa1580156106f5573d6000803e3d6000fd5b505050506040513d601f19601f820116820180604052508101906107199190614dbf565b92915050565b610727613d76565b73ffffffffffffffffffffffffffffffffffffffff82168152600061074b836110fb565b905061271081036109bb5761075f836125ae565b60208301819052608001516040517fe72ef91b00000000000000000000000000000000000000000000000000000000815273ffffffffffffffffffffffffffffffffffffffff858116600483015291821660248201526000918291829182918291829182917f0000000000000000000000000000000000000000000000000000000000000000169063e72ef91b906044016104c060405180830381865afa15801561080e573d6000803e3d6000fd5b505050506040513d601f19601f820116820180604052508101906108329190615019565b91509150818960e00181905250806020015193506000807f000000000000000000000000000000000000000000000000000000000000000073ffffffffffffffffffffffffffffffffffffffff1663967915d68d8d6020015160a001516040518363ffffffff1660e01b81526004016108ce92919073ffffffffffffffffffffffffffffffffffffffff92831681529116602082015260400190565b61050060405180830381865afa1580156108ec573d6000803e3d6000fd5b505050506040513d601f19601f8201168201806040525081019061091091906150bf565b91509150818b61010001819052508060000151945081604001519850816101400151975081610100015196506109458c612687565b60408c01819052610959908d90888861296d565b8b6060018190525050505050505061097a8686606001518760200151612b41565b85608001819052506109a485606001518660200151876040015160a0015161ffff16868686612e62565b60a08601526109b28661157a565b60c08601525050505b50919050565b610a3f60405180610180016040528060008152602001600073ffffffffffffffffffffffffffffffffffffffff16815260200160001515815260200160001515815260200160008152602001600081526020016000815260200160008152602001600081526020016000815260200160008152602001600081525090565b610a47613d76565b8282526000610a5584610f76565b905073ffffffffffffffffffffffffffffffffffffffff811615610e9b576000610a7f82866121bf565b9050610a8a8261071f565b6040517f6352211e000000000000000000000000000000000000000000000000000000008152600481018790529093507f000000000000000000000000000000000000000000000000000000000000000073ffffffffffffffffffffffffffffffffffffffff1690636352211e90602401602060405180830381865afa158015610b18573d6000803e3d6000fd5b505050506040513d601f19601f82011682018060405250810190610b3c9190615172565b73ffffffffffffffffffffffffffffffffffffffff1660208501526001808216146060850181905266ffffffffffffff603583901c811660ff602d85901c81169190911b610120880181905260c0880152607584901c909116606d84901c9091161b6101608601819052610100860152610d805780600216600214610bd257610bcd600282901c6207ffff166151be565b610bdd565b6207ffff600282901c165b60808501819052601582901c62ffffff1660a0860152610120850151606091610c089060020b61337d565b610c1291906151f6565b901c6101408501819052610100850151610c2b9161520d565b60e08501526080840151600090610c43908490610ec6565b90508060011660011480610c6357508460a0015162ffffff600183901c16115b15610d3a576001604086810191909152608086015160a087015161014088015192517f22348cc70000000000000000000000000000000000000000000000000000000081526004810192909252602482015260448101919091526064810182905273ffffffffffffffffffffffffffffffffffffffff8416906322348cc79060840160a060405180830381865afa158015610d02573d6000803e3d6000fd5b505050506040513d601f19601f82011682018060405250810190610d269190615220565b505061012088015261014087015260808601525b8461016001518561014001511115610d6d57846101600151856101400151610d62919061520d565b610140860152610d7e565b600061014086018190526101608601525b505b64e8d4a51000836060015160c001518560c00151610d9e91906151f6565b610da89190615260565b60c0850152606083015160e0908101519085015164e8d4a5100091610dcc916151f6565b610dd69190615260565b60e0808601919091526060840151015161010085015164e8d4a5100091610dfc916151f6565b610e069190615260565b610100850152606083015160c0015161012085015164e8d4a5100091610e2b916151f6565b610e359190615260565b610120850152606083015160e0015161014085015164e8d4a5100091610e5a916151f6565b610e649190615260565b610140850152606083015160e0015161016085015164e8d4a5100091610e89916151f6565b610e939190615260565b610160850152505b50915091565b600073ffffffffffffffffffffffffffffffffffffffff821663b5c736e460086106ba565b6040805160208082018490526005828401528251808303840181526060909201909252805191012060009073ffffffffffffffffffffffffffffffffffffffff84169063b5c736e4905b6040518263ffffffff1660e01b8152600401610f2e91815260200190565b602060405180830381865afa158015610f4b573d6000803e3d6000fd5b505050506040513d601f19601f82011682018060405250810190610f6f9190614dbf565b9392505050565b600080610f8283611cac565b6040517fe6bd26a200000000000000000000000000000000000000000000000000000000815263ffffffff60c083901c1660048201529091507f000000000000000000000000000000000000000000000000000000000000000073ffffffffffffffffffffffffffffffffffffffff169063e6bd26a290602401602060405180830381865afa158015611019573d6000803e3d6000fd5b505050506040513d601f19601f82011682018060405250810190610f6f9190615172565b80516060908067ffffffffffffffff81111561105b5761105b6146d9565b60405190808252806020026020018201604052801561109457816020015b611081613d76565b8152602001906001900390816110795790505b50915060005b818110156110f4576110c48482815181106110b7576110b761529b565b602002602001015161071f565b8382815181106110d6576110d661529b565b602002602001018190525080806110ec906152ca565b91505061109a565b5050919050565b60008173ffffffffffffffffffffffffffffffffffffffff163b60000361112457506000919050565b8173ffffffffffffffffffffffffffffffffffffffff1663bb24fe8a6040518163ffffffff1660e01b8152600401602060405180830381865afa9250505080156111a9575060408051601f3d9081017fffffffffffffffffffffffffffffffffffffffffffffffffffffffffffffffe01682019092526111a691810190614dbf565b60015b610719578173ffffffffffffffffffffffffffffffffffffffff166111d061065484611823565b73ffffffffffffffffffffffffffffffffffffffff16146111f357506000919050565b50612710919050565b919050565b6112836040518060e00160405280600073ffffffffffffffffffffffffffffffffffffffff168152602001600073ffffffffffffffffffffffffffffffffffffffff168152602001600073ffffffffffffffffffffffffffffffffffffffff168152602001600081526020016000815260200160008152602001600081525090565b811561128f57816112a1565b6fffffffffffffffffffffffffffffffff5b73ffffffffffffffffffffffffffffffffffffffff84168252915060006112c7846110fb565b905061271081036115735760006112dd856125ae565b60a081015173ffffffffffffffffffffffffffffffffffffffff908116602086015260808201518116604080870191909152517f8433ea220000000000000000000000000000000000000000000000000000000081526004810187905260006024820181905261dead60448301526064820152919250861690638433ea229060840160408051808303816000875af19250505080156113b7575060408051601f3d9081017fffffffffffffffffffffffffffffffffffffffffffffffffffffffffffffffe01682019092526113b491810190615302565b60015b611433576113c3615326565b806308c379a0036113e857506113d7615341565b806113e257506113ea565b50611436565b505b3d808015611414576040519150601f19603f3d011682016040523d82523d6000602084013e611419565b606091505b50611423816135df565b6080860152606085015250611436565b50505b6040517f8433ea22000000000000000000000000000000000000000000000000000000008152600481018590526000602482015261dead60448201526001606482015273ffffffffffffffffffffffffffffffffffffffff861690638433ea229060840160408051808303816000875af19250505080156114f2575060408051601f3d9081017fffffffffffffffffffffffffffffffffffffffffffffffffffffffffffffffe01682019092526114ef91810190615302565b60015b61156e576114fe615326565b806308c379a0036115235750611512615341565b8061151d5750611525565b50611571565b505b3d80801561154f576040519150601f19603f3d011682016040523d82523d6000602084013e611554565b606091505b5061155e816135df565b60c086015260a085015250611571565b50505b505b5092915050565b611582614018565b600061158d8361069a565b90506115a1620fffff600283901c16611da0565b6020830152633fffffff601682901c81166040840152603482901c16606083015266ffffffffffffff605a82901c1660ff605283901c161b60a083015266ffffffffffffff609a82901c1660ff609283901c161b608083015260d281901c63ffffffff168252604082015160009061161a908590611f83565b60c08401516003821690529050611639600282901c620fffff16611da0565b60c0840180516020019190915280516603ffffffffffff607484901c1660409091015251633fffffff601683901c1660609091015266ffffffffffffff603c82901c1660ff603483901c161b60c084018051608001919091525160a682901c633fffffff1660a0909101526116b660c482901c620fffff16611da0565b60c0808501510152509092915050565b60606116d3610667611ebb565b905090565b81516060908067ffffffffffffffff8111156116f6576116f66146d9565b6040519080825280602002602001820160405280156117a957816020015b6117966040518060e00160405280600073ffffffffffffffffffffffffffffffffffffffff168152602001600073ffffffffffffffffffffffffffffffffffffffff168152602001600073ffffffffffffffffffffffffffffffffffffffff168152602001600081526020016000815260200160008152602001600081525090565b8152602001906001900390816117145790505b50915060005b81811015611571576117f38582815181106117cc576117cc61529b565b60200260200101518583815181106117e6576117e661529b565b6020026020010151611201565b8382815181106118055761180561529b565b6020026020010181905250808061181b906152ca565b9150506117af565b60008173ffffffffffffffffffffffffffffffffffffffff1663540acabc6040518163ffffffff1660e01b8152600401602060405180830381865afa1580156106f5573d6000803e3d6000fd5b606080600061187e84611fd1565b80519091508067ffffffffffffffff81111561189c5761189c6146d9565b60405190808252806020026020018201604052801561194b57816020015b61193860405180610180016040528060008152602001600073ffffffffffffffffffffffffffffffffffffffff16815260200160001515815260200160001515815260200160008152602001600081526020016000815260200160008152602001600081526020016000815260200160008152602001600081525090565b8152602001906001900390816118ba5790505b5093508067ffffffffffffffff811115611967576119676146d9565b6040519080825280602002602001820160405280156119a057816020015b61198d613d76565b8152602001906001900390816119855790505b50925060005b81811015611a1d576119d08382815181106119c3576119c361529b565b60200260200101516109c1565b8683815181106119e2576119e261529b565b602002602001018684815181106119fb576119fb61529b565b6020026020010182905282905250508080611a15906152ca565b9150506119a6565b505050915091565b600073ffffffffffffffffffffffffffffffffffffffff821663b5c736e4600a6106ba565b60007f000000000000000000000000000000000000000000000000000000000000000073ffffffffffffffffffffffffffffffffffffffff16638d6540236040518163ffffffff1660e01b8152600401602060405180830381865afa158015611ab7573d6000803e3d6000fd5b505050506040513d601f19601f820116820180604052508101906116d39190614dbf565b600073ffffffffffffffffffffffffffffffffffffffff821663b5c736e460096106ba565b60008373ffffffffffffffffffffffffffffffffffffffff1663b5c736e4611b2a60068686611d1a565b6040518263ffffffff1660e01b8152600401611b4891815260200190565b602060405180830381865afa158015611b65573d6000803e3d6000fd5b505050506040513d601f19601f82011682018060405250810190611b899190614dbf565b949350505050565b6040805180820190915260006020820181905273ffffffffffffffffffffffffffffffffffffffff83168252611bc68361251c565b90508273ffffffffffffffffffffffffffffffffffffffff1663ebd93ac66040518163ffffffff1660e01b8152600401600060405180830381600087803b158015611c1057600080fd5b505af1925050508015611c21575060015b611c8a57611c2d615326565b806308c379a003611c525750611c41615341565b80611c4c5750611c54565b506109bb565b505b3d808015611c7e576040519150601f19603f3d011682016040523d82523d6000602084013e611c83565b606091505b50506109bb565b6000611c958461251c565b90508181146110f457600160208401525050919050565b6040805160208082018490526003828401528251808303840181526060909201909252805191012060009073ffffffffffffffffffffffffffffffffffffffff7f0000000000000000000000000000000000000000000000000000000000000000169063b5c736e4906106ba565b6000808385604051602001611d39929190918252602082015260400190565b604080517fffffffffffffffffffffffffffffffffffffffffffffffffffffffffffffffe081840301815282825280516020918201209083018690529082018190529150606001604051602081830303815290604052805190602001209150509392505050565b6000620fffff8210611e12576040517f08c379a000000000000000000000000000000000000000000000000000000000815260206004820152600e60248201527f696e76616c69642d6e756d626572000000000000000000000000000000000000604482015260640160405180910390fd5b8115611e465781600116600114611e3a57611e35600183901c6207ffff166151be565b610719565b5060011c6207ffff1690565b507f8000000000000000000000000000000000000000000000000000000000000000919050565b6040805160208082018490526004828401528251808303840181526060909201909252805191012060009073ffffffffffffffffffffffffffffffffffffffff84169063b5c736e490610f10565b60606000611ec7611a4a565b90508067ffffffffffffffff811115611ee257611ee26146d9565b604051908082528060200260200182016040528015611f0b578160200160208202803683370190505b50915060005b81811015611f7057611f276106548260016153e9565b838281518110611f3957611f3961529b565b73ffffffffffffffffffffffffffffffffffffffff9092166020928302919091019091015280611f68816152ca565b915050611f11565b50611f7d8261271061364d565b91505090565b6040805160208082018490526007828401528251808303840181526060909201909252805191012060009073ffffffffffffffffffffffffffffffffffffffff84169063b5c736e490610f10565b6040517f70a0823100000000000000000000000000000000000000000000000000000000815273ffffffffffffffffffffffffffffffffffffffff82811660048301526060916000917f000000000000000000000000000000000000000000000000000000000000000016906370a0823190602401602060405180830381865afa158015612063573d6000803e3d6000fd5b505050506040513d601f19601f820116820180604052508101906120879190614dbf565b90508067ffffffffffffffff8111156120a2576120a26146d9565b6040519080825280602002602001820160405280156120cb578160200160208202803683370190505b50915060005b818110156110f4576040517f2f745c5900000000000000000000000000000000000000000000000000000000815273ffffffffffffffffffffffffffffffffffffffff8581166004830152602482018390527f00000000000000000000000000000000000000000000000000000000000000001690632f745c5990604401602060405180830381865afa15801561216c573d6000803e3d6000fd5b505050506040513d601f19601f820116820180604052508101906121909190614dbf565b8382815181106121a2576121a261529b565b6020908102919091010152806121b7816152ca565b9150506120d1565b6040805160208082018490526003828401528251808303840181526060909201909252805191012060009073ffffffffffffffffffffffffffffffffffffffff84169063b5c736e490610f10565b60606000612219611ebb565b80519091508067ffffffffffffffff811115612237576122376146d9565b6040519080825280602002602001820160405280156122ea57816020015b6122d76040518060e00160405280600073ffffffffffffffffffffffffffffffffffffffff168152602001600073ffffffffffffffffffffffffffffffffffffffff168152602001600073ffffffffffffffffffffffffffffffffffffffff168152602001600081526020016000815260200160008152602001600081525090565b8152602001906001900390816122555790505b50925060005b8181101561234c5761231c83828151811061230d5761230d61529b565b60200260200101516000611201565b84828151811061232e5761232e61529b565b60200260200101819052508080612344906152ca565b9150506122f0565b50505090565b6060600061235e611ebb565b80519091508067ffffffffffffffff81111561237c5761237c6146d9565b6040519080825280602002602001820160405280156123b557816020015b6123a2613d76565b81526020019060019003908161239a5790505b50925060005b8181101561234c576123d88382815181106110b7576110b761529b565b8482815181106123ea576123ea61529b565b60200260200101819052508080612400906152ca565b9150506123bb565b60006107197f000000000000000000000000000000000000000000000000000000000000000083613878565b80516060908067ffffffffffffffff811115612452576124526146d9565b60405190808252806020026020018201604052801561249757816020015b60408051808201909152600080825260208201528152602001906001900390816124705790505b50915060005b818110156110f4576124c78482815181106124ba576124ba61529b565b6020026020010151611b91565b8382815181106124d9576124d961529b565b602002602001018190525080806124ef906152ca565b91505061249d565b600073ffffffffffffffffffffffffffffffffffffffff821663b5c736e460016106ba565b600073ffffffffffffffffffffffffffffffffffffffff821663b5c736e460026106ba565b60007f000000000000000000000000000000000000000000000000000000000000000073ffffffffffffffffffffffffffffffffffffffff166318160ddd6040518163ffffffff1660e01b8152600401602060405180830381865afa158015611ab7573d6000803e3d6000fd5b604080516101a081018252600080825260208201819052918101829052606081018290526080810182905260a0810182905260c0810182905260e0810182905261010081018290526101208101829052610140810182905261016081018290526101808101919091528173ffffffffffffffffffffffffffffffffffffffff1663b7791bf26040518163ffffffff1660e01b81526004016101a060405180830381865afa158015612663573d6000803e3d6000fd5b505050506040513d601f19601f82011682018060405250810190610719919061540d565b6040805161018081018252600080825260208201819052918101829052606081018290526080810182905260a0810182905260c0810182905260e081018290526101008101829052610120810182905261014081018290526101608101829052906126f1836124f7565b61ffff8082168452601082901c1660208085019190915290915061271d9082901c6103ff16600a6154ea565b61ffff166040830152612739602a82901c6103ff16600a6154ea565b61ffff166060830152612755603482901c6103ff16600a6154ea565b61ffff166080830152612771603e82901c6103ff16600a6154ea565b61ffff1660a08301526103ff604882901c811660c0840152605282901c1660e0830152606081901c6101008301819052156129425781610100015173ffffffffffffffffffffffffffffffffffffffff16638e7bfbc06040518163ffffffff1660e01b8152600401602060405180830381865afa925050508015612830575060408051601f3d9081017fffffffffffffffffffffffffffffffffffffffffffffffffffffffffffffffe016820190925261282d91810190614dbf565b60015b6128bb5781610100015173ffffffffffffffffffffffffffffffffffffffff1663e6aa216c6040518163ffffffff1660e01b8152600401602060405180830381865afa158015612884573d6000803e3d6000fd5b505050506040513d601f19601f820116820180604052508101906128a89190614dbf565b6101208301819052610140830152612942565b808361012001818152505082610100015173ffffffffffffffffffffffffffffffffffffffff1663f3190c896040518163ffffffff1660e01b8152600401602060405180830381865afa158015612916573d6000803e3d6000fd5b505050506040513d601f19601f8201168201806040525081019061293a9190614dbf565b610140840152505b61294b83611adb565b73ffffffffffffffffffffffffffffffffffffffff1661016083015250919050565b6129d8604051806101a00160405280600081526020016000815260200160008152602001600081526020016000815260200160008152602001600081526020016000815260200160008152602001600081526020016000815260200160008152602001600081525090565b60006129e386610ea1565b67ffffffffffffffff8082168452604082811c82166020860152608083901c9091169084015260c081901c6060840152905073ffffffffffffffffffffffffffffffffffffffff86166309f0d8cb612a3a886124f7565b6040518263ffffffff1660e01b8152600401612a5891815260200190565b608060405180830381865afa158015612a75573d6000803e3d6000fd5b505050506040513d601f19601f82011682018060405250810190612a999190615508565b60e086015260c085015260a0840152608083015261014082018490526101608201839052845161271090612ad19061ffff16866151f6565b612adb9190615260565b610100830152602085015161271090612af89061ffff16856151f6565b612b029190615260565b610120830152845161271061ffff90911611612b1f576000612b2e565b8451612b2e906127109061553e565b61ffff1661018083015250949350505050565b612b7a6040518060c001604052806000815260200160008152602001600081526020016000815260200160008152602001600081525090565b6000612b858561069a565b90506000612b928661251c565b84516101608601516040517fb5c736e400000000000000000000000000000000000000000000000000000000815292935060009273ffffffffffffffffffffffffffffffffffffffff9092169163b5c736e491612bf59160040190815260200190565b602060405180830381865afa158015612c12573d6000803e3d6000fd5b505050506040513d601f19601f82011682018060405250810190612c369190614dbf565b85516101808701516040517fb5c736e40000000000000000000000000000000000000000000000000000000081526004810191909152600983901c66ffffffffffffff1660019390931c60ff169290921b925060009173ffffffffffffffffffffffffffffffffffffffff9091169063b5c736e490602401602060405180830381865afa158015612ccb573d6000803e3d6000fd5b505050506040513d601f19601f82011682018060405250810190612cef9190614dbf565b66ffffffffffffff605a86901c811660ff605288901c81169190911b808952609a88901c8316609289901c83161b60208a015260408901869052600984901c90921660019390931c169190911b606087018190526fffffffffffffffffffffffffffffffff851660a0880152608085811c9088015260c089015190925064e8d4a5100091612d7d91906151f6565b612d879190615260565b855260e0870151602086015164e8d4a5100091612da3916151f6565b612dad9190615260565b60208601526080870151604086015164e8d4a5100091612dcc916151f6565b612dd69190615260565b604086015260a0870151606086015164e8d4a5100091612df5916151f6565b612dff9190615260565b606086015260c0870151608086015164e8d4a5100091612e1e916151f6565b612e289190615260565b608086015260e087015160a086015164e8d4a5100091612e47916151f6565b612e519190615260565b60a086015250929695505050505050565b612eaa60405180610100016040528060008152602001600081526020016000815260200160008152602001600081526020016000815260200160008152602001600081525090565b85516101608701516040517fb5c736e4000000000000000000000000000000000000000000000000000000008152600481019190915260009173ffffffffffffffffffffffffffffffffffffffff169063b5c736e490602401602060405180830381865afa158015612f20573d6000803e3d6000fd5b505050506040513d601f19601f82011682018060405250810190612f449190614dbf565b9050801561315e5766ffffffffffffff600982901c1660ff600183901c161b6000612f6f8383613ce2565b905064e8d4a510008a6080015183612f8791906151f6565b612f919190615260565b915064e8d4a510008a6080015182612fa991906151f6565b612fb39190615260565b8085528211612fc3576000612fcf565b8351612fcf908361520d565b6020850152835160009015612ffa57612710612feb8a856151f6565b612ff59190615260565b612ffd565b60005b90508085602001511161301157600061303c565b620f4240818660200151613025919061520d565b61303290620f423f6151f6565b61303c9190615260565b60208601819052604086015260808a015160009073ffffffffffffffffffffffffffffffffffffffff167fffffffffffffffffffffffff1111111111111111111111111111111111111112016130ab5750895173ffffffffffffffffffffffffffffffffffffffff1631613145565b60808b01518b516040517f70a0823100000000000000000000000000000000000000000000000000000000815273ffffffffffffffffffffffffffffffffffffffff91821660048201529116906370a0823190602401602060405180830381865afa15801561311e573d6000803e3d6000fd5b505050506040513d601f19601f820116820180604052508101906131429190614dbf565b90505b856020015181101561315957604086018190525b505050505b86516101808801516040517fb5c736e4000000000000000000000000000000000000000000000000000000008152600481019190915260009173ffffffffffffffffffffffffffffffffffffffff169063b5c736e490602401602060405180830381865afa1580156131d4573d6000803e3d6000fd5b505050506040513d601f19601f820116820180604052508101906131f89190614dbf565b90508015613349576060830186905260c08301859052620f424061321f85620f423f6151f6565b6132299190615260565b608084015260a088015160009073ffffffffffffffffffffffffffffffffffffffff167fffffffffffffffffffffffff1111111111111111111111111111111111111112016132915750875173ffffffffffffffffffffffffffffffffffffffff163161332b565b60a089015189516040517f70a0823100000000000000000000000000000000000000000000000000000000815273ffffffffffffffffffffffffffffffffffffffff91821660048201529116906370a0823190602401602060405180830381865afa158015613304573d6000803e3d6000fd5b505050506040513d601f19601f820116820180604052508101906133289190614dbf565b90505b8360800151811161333c5780613342565b83608001515b60a0850152505b64e8d4a510008960e0015161271161336191906151f6565b61336b9190615260565b60e08401525090979650505050505050565b600060ff82901d80831803617fff81111561339757600080fd5b70010000000000000000000000000000000060018216156133c557506fff9dd7de423466c20352b1246ce4856f5b60028216156133e4576fff3bd55f4488ad277531fa1c725a66d00260801c5b6004821615613403576ffe78410fd6498b73cb96a6917f8532590260801c5b6008821615613422576ffcf2d9987c9be178ad5bfeffaa1232730260801c5b6010821615613441576ff9ef02c4529258b057769680fc6601b30260801c5b6020821615613460576ff402d288133a85a17784a411f7aba0820260801c5b604082161561347f576fe895615b5beb6386553757b0352bda900260801c5b608082161561349e576fd34f17a00ffa00a8309940a15930391a0260801c5b6101008216156134be576fae6b7961714e20548d88ea5123f9a0ff0260801c5b6102008216156134de576f76d6461f27082d74e0feed3b388c0ca10260801c5b6104008216156134fe576f372a3bfe0745d8b6b19d985d9a8b85bb0260801c5b61080082161561351e576f0be32cbee48979763cf7247dd7bb539d0260801c5b61100082161561353d576e8d4f70c9ff4924dac37612d1e2921e0260801c5b61200082161561355b576d4e009ae5519380809a02ca7aec770260801c5b614000821615613577576b17c45e641b6e95dee056ff100260801c5b600091507f800000000000000000000000000000000000000000000000000000000000000084166135d5577fffffffffffffffffffffffffffffffffffffffffffffffffffffffffffffffff0463ffffffff8116156135d557600191505b60201c0192915050565b60008060448351106136485760208301517f33c955bc000000000000000000000000000000000000000000000000000000007fffffffff00000000000000000000000000000000000000000000000000000000821601610e9b5750505060248101516044820151905b915091565b8151606090600090815b8551811015613763578581815181106136725761367261529b565b602002602001015173ffffffffffffffffffffffffffffffffffffffff1663bb24fe8a6040518163ffffffff1660e01b8152600401602060405180830381865afa9250505080156136fe575060408051601f3d9081017fffffffffffffffffffffffffffffffffffffffffffffffffffffffffffffffe01682019092526136fb91810190614dbf565b60015b61370c57612710925061370f565b92505b84831461375b57600086828151811061372a5761372a61529b565b73ffffffffffffffffffffffffffffffffffffffff9092166020928302919091019091015261375882615559565b91505b600101613657565b508067ffffffffffffffff81111561377d5761377d6146d9565b6040519080825280602002602001820160405280156137a6578160200160208202803683370190505b5092506000805b865181101561156e57600073ffffffffffffffffffffffffffffffffffffffff168782815181106137e0576137e061529b565b602002602001015173ffffffffffffffffffffffffffffffffffffffff1614613870578681815181106138155761381561529b565b602002602001015185838151811061382f5761382f61529b565b602002602001019073ffffffffffffffffffffffffffffffffffffffff16908173ffffffffffffffffffffffffffffffffffffffff16815250508160010191505b6001016137ad565b600060608260000361388e576000915050610719565b607f8311613957576040517fd60000000000000000000000000000000000000000000000000000000000000060208201527f940000000000000000000000000000000000000000000000000000000000000060218201527fffffffffffffffffffffffffffffffffffffffff000000000000000000000000606086901b16602282015260f884901b7fff000000000000000000000000000000000000000000000000000000000000001660368201526037015b6040516020818303038152906040529050613cd3565b60ff8311613a34576040517fd70000000000000000000000000000000000000000000000000000000000000060208201527f940000000000000000000000000000000000000000000000000000000000000060218201527fffffffffffffffffffffffffffffffffffffffff000000000000000000000000606086901b1660228201527f8100000000000000000000000000000000000000000000000000000000000000603682015260f884901b7fff00000000000000000000000000000000000000000000000000000000000000166037820152603801613941565b61ffff8311613b12576040517fd80000000000000000000000000000000000000000000000000000000000000060208201527f940000000000000000000000000000000000000000000000000000000000000060218201527fffffffffffffffffffffffffffffffffffffffff000000000000000000000000606086901b1660228201527f820000000000000000000000000000000000000000000000000000000000000060368201527fffff00000000000000000000000000000000000000000000000000000000000060f085901b166037820152603901613941565b62ffffff8311613bf1576040517fd90000000000000000000000000000000000000000000000000000000000000060208201527f940000000000000000000000000000000000000000000000000000000000000060218201527fffffffffffffffffffffffffffffffffffffffff000000000000000000000000606086901b1660228201527f830000000000000000000000000000000000000000000000000000000000000060368201527fffffff000000000000000000000000000000000000000000000000000000000060e885901b166037820152603a01613941565b6040517fda0000000000000000000000000000000000000000000000000000000000000060208201527f940000000000000000000000000000000000000000000000000000000000000060218201527fffffffffffffffffffffffffffffffffffffffff000000000000000000000000606086901b1660228201527f840000000000000000000000000000000000000000000000000000000000000060368201527fffffffff0000000000000000000000000000000000000000000000000000000060e085901b166037820152603b0160405160208183030381529060405290505b80516020909101209392505050565b600066ffffffffffffff604984901c1660ff604185901c161b808203613d0c576000915050610719565b612710613fff60a286901c168402046401ffffffff608186901c16420362ffffff60b087901c16613d3d82846151f6565b613d479190615260565b9050808311613d57576000613d5b565b8083035b93505080840383811115613d6d578093505b50505092915050565b604080516101208082018352600080835283516101a0810185528181526020818101839052948101829052606081018290526080810182905260a0810182905260c0810182905260e0810182905261010081018290529182018190526101408201819052610160820181905261018082015290918201908152604080516101808101825260008082526020828101829052928201819052606082018190526080820181905260a0820181905260c0820181905260e082018190526101008201819052610120820181905261014082018190526101608201529101908152602001613ec1604051806101a00160405280600081526020016000815260200160008152602001600081526020016000815260200160008152602001600081526020016000815260200160008152602001600081526020016000815260200160008152602001600081525090565b8152602001613eff6040518060c001604052806000815260200160008152602001600081526020016000815260200160008152602001600081525090565b8152602001613f4c60405180610100016040528060008152602001600081526020016000815260200160008152602001600081526020016000815260200160008152602001600081525090565b8152602001613f59614018565b8152602001613faf60405180610120016040528060001515815260200160008152602001600081526020016000815260200160008152602001600081526020016000815260200160008152602001600081525090565b8152602001614013604051806101600160405280600015158152602001600081526020016000815260200160008152602001600081526020016000815260200160008152602001600081526020016000815260200160008152602001600081525090565b905290565b6040518060e001604052806000815260200160008152602001600081526020016000815260200160008152602001600081526020016140136040518060e00160405280600081526020016000815260200160008152602001600081526020016000815260200160008152602001600081525090565b73ffffffffffffffffffffffffffffffffffffffff811681146140af57600080fd5b50565b6000602082840312156140c457600080fd5b8135610f6f8161408d565b805173ffffffffffffffffffffffffffffffffffffffff1682526020810151614110602084018273ffffffffffffffffffffffffffffffffffffffff169052565b506040810151614138604084018273ffffffffffffffffffffffffffffffffffffffff169052565b506060810151614160606084018273ffffffffffffffffffffffffffffffffffffffff169052565b506080810151614188608084018273ffffffffffffffffffffffffffffffffffffffff169052565b5060a08101516141b060a084018273ffffffffffffffffffffffffffffffffffffffff169052565b5060c08101516141c560c084018260ff169052565b5060e08101516141da60e084018260ff169052565b50610100818101519083015261012080820151908301526101408082015190830152610160808201519083015261018090810151910152565b805161ffff1682526020810151614230602084018261ffff169052565b506040810151614246604084018261ffff169052565b50606081015161425c606084018261ffff169052565b506080810151614272608084018261ffff169052565b5060a081015161428860a084018261ffff169052565b5060c081015161429e60c084018261ffff169052565b5060e08101516142b460e084018261ffff169052565b506101008181015173ffffffffffffffffffffffffffffffffffffffff90811691840191909152610120808301519084015261014080830151908401526101609182015116910152565b805173ffffffffffffffffffffffffffffffffffffffff168252602081015161432a60208401826140cf565b50604081015161433e6101c0840182614213565b506060818101518051610340850152602080820151610360860152604080830151610380870152828401516103a08701526080808401516103c088015260a0808501516103e089015260c0808601516104008a015260e0808701516104208b0152610100808801516104408c0152610120808901516104608d0152610140808a01516104808e01526101608a01516104a08e0152610180909901516104c08d0152858b015180516104e08e0152808901516105008e0152808801516105208e0152808b01516105408e0152808701516105608e01528501516105808d0152848b015180516105a08e0152808901516105c08e0152808801516105e08e0152808b01516106008e0152808701516106208e0152808601516106408e0152808501516106608e01528301516106808d0152838b015180516106a08e0152808901516106c08e0152808801516106e08e0152808b01516107008e0152808701516107208e0152808601516107408e015284015180516107608e0152808901516107808e0152808801516107a08e0152808b01516107c08e0152808701516107e08e0152808601516108008e01528401516108208d0152828b0151805115156108408e0152808901516108608e0152808801516108808e0152808b01516108a08e0152808701516108c08e0152808601516108e08e0152808501516109008e0152808401516109208e01528201516109408d015299810151805115156109608d0152968701516109808c0152948601516109a08b0152968501516109c08a0152918401516109e0890152830151610a00880152820151610a2087015292810151610a4086015291820151610a6085015291810151610a808401520151610aa090910152565b610ac0810161071982846142fe565b6000602082840312156145e057600080fd5b5035919050565b805182526020810151614612602084018273ffffffffffffffffffffffffffffffffffffffff169052565b506040810151614626604084018215159052565b50606081015161463a606084018215159052565b506080818101519083015260a0808201519083015260c0808201519083015260e0808201519083015261010080820151908301526101208082015190830152610140808201519083015261016090810151910152565b610c40810161469f82856145e7565b610f6f6101808301846142fe565b600080604083850312156146c057600080fd5b82356146cb8161408d565b946020939093013593505050565b7f4e487b7100000000000000000000000000000000000000000000000000000000600052604160045260246000fd5b6060810181811067ffffffffffffffff82111715614728576147286146d9565b60405250565b60a0810181811067ffffffffffffffff82111715614728576147286146d9565b7fffffffffffffffffffffffffffffffffffffffffffffffffffffffffffffffe0601f830116810181811067ffffffffffffffff82111715614792576147926146d9565b6040525050565b604051610220810167ffffffffffffffff811182821017156147bd576147bd6146d9565b60405290565b604051610120810167ffffffffffffffff811182821017156147bd576147bd6146d9565b604051610160810167ffffffffffffffff811182821017156147bd576147bd6146d9565b6040516101a0810167ffffffffffffffff811182821017156147bd576147bd6146d9565b600067ffffffffffffffff821115614849576148496146d9565b5060051b60200190565b600082601f83011261486457600080fd5b813560206148718261482f565b60405161487e828261474e565b83815260059390931b850182019282810191508684111561489e57600080fd5b8286015b848110156148c25780356148b58161408d565b83529183019183016148a2565b509695505050505050565b6000602082840312156148df57600080fd5b813567ffffffffffffffff8111156148f657600080fd5b611b8984828501614853565b600081518084526020808501945080840160005b8381101561493d576149298783516142fe565b610ac0969096019590820190600101614916565b509495945050505050565b602081526000610f6f6020830184614902565b60e08101610719828473ffffffffffffffffffffffffffffffffffffffff80825116835280602083015116602084015280604083015116604084015250606081015160608301526080810151608083015260a081015160a083015260c081015160c08301525050565b815181526020808301518183015260408084015181840152606080850151818501526080808601518186015260a0808701518187015260c0808801518051828901529586015160e0880152938501516101008701529184015161012086015283015161014085015282015161016084015201516101808201526101a08101610719565b602080825282518282018190526000919060409081850190868401855b82811015614aa957614a99848351805173ffffffffffffffffffffffffffffffffffffffff1682526020908101511515910152565b9284019290850190600101614a64565b5091979650505050505050565b60008060408385031215614ac957600080fd5b823567ffffffffffffffff80821115614ae157600080fd5b614aed86838701614853565b9350602091508185013581811115614b0457600080fd5b85019050601f81018613614b1757600080fd5b8035614b228161482f565b604051614b2f828261474e565b82815260059290921b8301840191848101915088831115614b4f57600080fd5b928401925b82841015614b6d57833582529284019290840190614b54565b80955050505050509250929050565b6020808252825182820181905260009190848201906040850190845b81811015614c1957614c0683855173ffffffffffffffffffffffffffffffffffffffff80825116835280602083015116602084015280604083015116604084015250606081015160608301526080810151608083015260a081015160a083015260c081015160c08301525050565b9284019260e09290920191600101614b98565b50909695505050505050565b60008060408385031215614c3857600080fd5b50508035926020909101359150565b604080825283519082018190526000906020906060840190828701845b82811015614c8b57614c778483516145e7565b610180939093019290840190600101614c64565b50505083810382850152614c9f8186614902565b9695505050505050565b600080600060608486031215614cbe57600080fd5b8335614cc98161408d565b95602085013595506040909401359392505050565b815173ffffffffffffffffffffffffffffffffffffffff16815260208083015115159082015260408101610719565b600080600060608486031215614d2257600080fd5b505081359360208301359350604090920135919050565b6020808252825182820181905260009190848201906040850190845b81811015614c1957835173ffffffffffffffffffffffffffffffffffffffff1683529284019291840191600101614d55565b6020808252825182820181905260009190848201906040850190845b81811015614c1957835183529284019291840191600101614da3565b600060208284031215614dd157600080fd5b5051919050565b805180151581146111fc57600080fd5b80516111fc8161408d565b600060e08284031215614e0557600080fd5b60405160e0810181811067ffffffffffffffff82111715614e2857614e286146d9565b80604052508091508251614e3b8161408d565b808252506020830151602082015260408301516040820152606083015160608201526080830151608082015260a083015160a082015260c083015160c08201525092915050565b60008183036101a0811215614e9657600080fd5b604051614ea281614708565b8092508351815260a07fffffffffffffffffffffffffffffffffffffffffffffffffffffffffffffffe083011215614ed957600080fd5b6040519150614ee78261472e565b6020840151614ef58161408d565b8083525060408401516020830152606084015160408301526080840151606083015260a08401516080830152816020820152614f348560c08601614df3565b6040820152505092915050565b60006103a08284031215614f5457600080fd5b614f5c614799565b825181526020808401519082015260408084015190820152606080840151908201526080808401519082015260a0808401519082015260c0808401519082015260e08084015190820152610100808401519082015261012080840151908201526101408084015190820152610160808401519082015261018080840151908201526101a080840151908201526101c080840151908201526101e08084015190820152905061020061500f84828501614e82565b9082015292915050565b6000808284036104c081121561502e57600080fd5b6101208082121561503e57600080fd5b6150466147c3565b915061505185614dd8565b82526020850151602083015260408501516040830152606085015160608301526080850151608083015260a085015160a083015260c085015160c083015260e085015160e08301526101008086015181840152508193506150b486828701614f41565b925050509250929050565b6000808284036105008112156150d457600080fd5b610160808212156150e457600080fd5b6150ec6147e7565b91506150f785614dd8565b82526020850151602083015260408501516040830152606085015160608301526080850151608083015260a085015160a083015260c085015160c083015260e085015160e08301526101008086015181840152506101208086015181840152506101408086015181840152508193506150b486828701614f41565b60006020828403121561518457600080fd5b8151610f6f8161408d565b7f4e487b7100000000000000000000000000000000000000000000000000000000600052601160045260246000fd5b60007f800000000000000000000000000000000000000000000000000000000000000082036151ef576151ef61518f565b5060000390565b80820281158282048414176107195761071961518f565b818103818111156107195761071961518f565b600080600080600060a0868803121561523857600080fd5b5050835160208501516040860151606087015160809097015192989197509594509092509050565b600082615296577f4e487b7100000000000000000000000000000000000000000000000000000000600052601260045260246000fd5b500490565b7f4e487b7100000000000000000000000000000000000000000000000000000000600052603260045260246000fd5b60007fffffffffffffffffffffffffffffffffffffffffffffffffffffffffffffffff82036152fb576152fb61518f565b5060010190565b6000806040838503121561531557600080fd5b505080516020909101519092909150565b600060033d11156105c55760046000803e5060005160e01c90565b600060443d101561534f5790565b6040517ffffffffffffffffffffffffffffffffffffffffffffffffffffffffffffffffc803d016004833e81513d67ffffffffffffffff816024840111818411171561539d57505050505090565b82850191508151818111156153b55750505050505090565b843d87010160208285010111156153cf5750505050505090565b6153de6020828601018761474e565b509095945050505050565b808201808211156107195761071961518f565b805160ff811681146111fc57600080fd5b60006101a0828403121561542057600080fd5b61542861480b565b61543183614de8565b815261543f60208401614de8565b602082015261545060408401614de8565b604082015261546160608401614de8565b606082015261547260808401614de8565b608082015261548360a08401614de8565b60a082015261549460c084016153fc565b60c08201526154a560e084016153fc565b60e08201526101008381015190820152610120808401519082015261014080840151908201526101608084015190820152610180928301519281019290925250919050565b61ffff8181168382160280821691908281146115715761157161518f565b6000806000806080858703121561551e57600080fd5b505082516020840151604085015160609095015191969095509092509050565b61ffff8281168282160390808211156115735761157361518f565b6000816155685761556861518f565b507fffffffffffffffffffffffffffffffffffffffffffffffffffffffffffffffff019056fea2646970667358221220584f686595b021eced1d7d68fa79bfc812870c9b638d8c50eb6241aa93d710f764736f6c63430008150033",
  "devdoc": {
    "kind": "dev",
    "methods": {
      "getAbsorbedDustDebt(address)": {
        "params": {
          "vault_": "The address of the vault."
        },
        "returns": {
          "_0": "The absorbed dust debt of the vault."
        }
      },
      "getAbsorbedLiquidityRaw(address)": {
        "params": {
          "vault_": "The address of the vault."
        },
        "returns": {
          "_0": "The absorbed liquidity of the vault."
        }
      },
      "getAllVaultsAddresses()": {
        "returns": {
          "vaults_": "The addresses of all the vaults."
        }
      },
      "getAllVaultsLiquidation()": {
        "returns": {
          "liquidationsData_": "An array of LiquidationStruct containing the liquidation data for all vaults."
        }
      },
      "getBranchDataRaw(address,uint256)": {
        "params": {
          "branch_": "The branch value.",
          "vault_": "The address of the vault."
        },
        "returns": {
          "_0": "The raw branch data of the vault."
        }
      },
      "getMultipleVaultsLiquidation(address[],uint256[])": {
        "params": {
          "tokensInAmt_": "The array of token amounts to liquidate.",
          "vaults_": "The array of vault addresses."
        },
        "returns": {
          "liquidationsData_": "An array of LiquidationStruct containing the liquidation data for each vault."
        }
      },
      "getPositionDataRaw(address,uint256)": {
        "params": {
          "positionId_": "The ID of the position.",
          "vault_": "The address of the vault."
        },
        "returns": {
          "_0": "The position data of the vault."
        }
      },
      "getRateRaw(address)": {
        "params": {
          "vault_": "The address of the vault."
        },
        "returns": {
          "_0": "The raw rate of the vault."
        }
      },
      "getRebalancer(address)": {
        "params": {
          "vault_": "The address of the vault."
        },
        "returns": {
          "_0": "The rebalancer of the vault."
        }
      },
      "getTickDataRaw(address,int256)": {
        "params": {
          "tick_": "The tick value.",
          "vault_": "The address of the vault."
        },
        "returns": {
          "_0": "The raw tick data of the vault."
        }
      },
      "getTickHasDebtRaw(address,int256)": {
        "params": {
          "key_": "The tick key.",
          "vault_": "The address of the vault."
        },
        "returns": {
          "_0": "The raw tick data of the vault."
        }
      },
      "getTickIdDataRaw(address,int256,uint256)": {
        "params": {
          "id_": "The ID of the tick.",
          "tick_": "The tick value.",
          "vault_": "The address of the vault."
        },
        "returns": {
          "_0": "The raw tick data of the vault."
        }
      },
      "getTokenConfig(uint256)": {
        "params": {
          "nftId_": "The ID of the NFT."
        },
        "returns": {
          "_0": "The token configuration."
        }
      },
      "getTotalVaults()": {
        "returns": {
          "_0": "The total number of vaults."
        }
      },
      "getVaultAbsorb(address)": {
        "params": {
          "vault_": "The address of the vault."
        },
        "returns": {
          "absorbData_": "The AbsorbStruct containing the absorb data for the vault."
        }
      },
      "getVaultAddress(uint256)": {
        "params": {
          "vaultId_": "The ID of the vault."
        },
        "returns": {
          "vault_": "The address of the vault."
        }
      },
      "getVaultEntireData(address)": {
        "params": {
          "vault_": "The address of the vault to retrieve the data for."
        },
        "returns": {
          "vaultData_": "The entire data of the vault."
        }
      },
      "getVaultId(address)": {
        "params": {
          "vault_": "The address of the vault."
        },
        "returns": {
          "id_": "The ID of the vault."
        }
      },
      "getVaultLiquidation(address,uint256)": {
        "params": {
          "tokenInAmt_": "token in aka debt to payback, leave 0 to get max",
          "vault_": "address of vault for which to fetch"
        },
        "returns": {
          "liquidationData_": "liquidation related data. Check out structs.sol"
        }
      },
      "getVaultState(address)": {
        "params": {
          "vault_": "The address of the vault to retrieve the state for."
        },
        "returns": {
          "vaultState_": "The state of the vault, including top tick, current and total branches,                     total supply and borrow, total positions, and current branch state."
        }
      },
      "getVaultType(address)": {
        "params": {
          "vault_": "The address of the vault."
        },
        "returns": {
          "vaultType_": "The type of the vault. 0 if not a Fluid vault."
        }
      },
      "getVaultVariables2Raw(address)": {
        "params": {
          "vault_": "The address of the vault."
        },
        "returns": {
          "_0": "The raw variables of the vault."
        }
      },
      "getVaultVariablesRaw(address)": {
        "params": {
          "vault_": "The address of the vault."
        },
        "returns": {
          "_0": "The raw variables of the vault."
        }
      },
      "getVaultsAbsorb()": {
        "returns": {
          "absorbData_": "An array of AbsorbStruct containing the absorb data for all vaults."
        }
      },
      "getVaultsAbsorb(address[])": {
        "params": {
          "vaults_": "The array of vault addresses."
        },
        "returns": {
          "absorbData_": "An array of AbsorbStruct containing the absorb data for each vault."
        }
      },
      "getVaultsEntireData()": {
        "returns": {
          "vaultsData_": "An array of VaultEntireData structures containing the data for each vault."
        }
      },
      "getVaultsEntireData(address[])": {
        "params": {
          "vaults_": "The list of vault addresses."
        },
        "returns": {
          "vaultsData_": "An array of VaultEntireData structures containing the data for each vault."
        }
      },
      "positionByNftId(uint256)": {
        "params": {
          "nftId_": "The NFT ID for which to retrieve the position data."
        },
        "returns": {
          "userPosition_": "The UserPosition structure containing the position data.",
          "vaultData_": "The VaultEntireData structure containing the vault data."
        }
      },
      "positionsByUser(address)": {
        "params": {
          "user_": "The address of the user for whom to fetch positions and vault data."
        },
        "returns": {
          "userPositions_": "An array of UserPosition structs representing the user's positions.",
          "vaultsData_": "An array of VaultEntireData structs representing the vault data for each position."
        }
      },
      "positionsNftIdOfUser(address)": {
        "params": {
          "user_": "The address of the user for whom to fetch positions."
        },
        "returns": {
          "nftIds_": "An array of NFT IDs representing the user's positions."
        }
      },
      "totalPositions()": {
        "returns": {
          "_0": "The total number of positions."
        }
      },
      "vaultByNftId(uint256)": {
        "params": {
          "nftId_": "The NFT ID for which to fetch the vault address."
        },
        "returns": {
          "vault_": "The address of the vault associated with the NFT ID."
        }
      }
    },
    "version": 1
  },
  "userdoc": {
    "kind": "user",
    "methods": {
      "calculateDoubleIntUintMapping(uint256,int256,uint256)": {
        "notice": "Calculating the slot ID for Liquidity contract for double mapping"
      },
      "calculateStorageSlotIntMapping(uint256,int256)": {
        "notice": "Calculating the slot ID for Liquidity contract for single mapping"
      },
      "calculateStorageSlotUintMapping(uint256,uint256)": {
        "notice": "Calculating the slot ID for Liquidity contract for single mapping"
      },
      "getAbsorbedDustDebt(address)": {
        "notice": "Get the absorbed dust debt of a vault."
      },
      "getAbsorbedLiquidityRaw(address)": {
        "notice": "Get the absorbed liquidity of a vault."
      },
      "getAllVaultsAddresses()": {
        "notice": "Get the addresses of all the vaults."
      },
      "getAllVaultsLiquidation()": {
        "notice": "Retrieves liquidation data for all vaults."
      },
      "getBranchDataRaw(address,uint256)": {
        "notice": "Get the raw branch data of a vault."
      },
      "getMultipleVaultsLiquidation(address[],uint256[])": {
        "notice": "Retrieves liquidation data for multiple vaults."
      },
      "getPositionDataRaw(address,uint256)": {
        "notice": "Get the position data of a vault."
      },
      "getRateRaw(address)": {
        "notice": "Get the raw rate of a vault."
      },
      "getRebalancer(address)": {
        "notice": "Get the rebalancer of a vault."
      },
      "getTickDataRaw(address,int256)": {
        "notice": "Get the raw tick data of a vault."
      },
      "getTickHasDebtRaw(address,int256)": {
        "notice": "Get the raw tick data of a vault."
      },
      "getTickIdDataRaw(address,int256,uint256)": {
        "notice": "Get the raw tick data of a vault."
      },
      "getTokenConfig(uint256)": {
        "notice": "Get the token configuration."
      },
      "getTotalVaults()": {
        "notice": "Get the total number of vaults (incl. new vault types)."
      },
      "getVaultAbsorb(address)": {
        "notice": "DEPRECATED, only works for vaults v1.0.0: Retrieves absorb data for a single vault."
      },
      "getVaultAddress(uint256)": {
        "notice": "Get the address of a vault."
      },
      "getVaultEntireData(address)": {
        "notice": "Retrieves the entire data for a given vault."
      },
      "getVaultId(address)": {
        "notice": "Get the ID of a vault."
      },
      "getVaultLiquidation(address,uint256)": {
        "notice": "fetches available liquidations"
      },
      "getVaultState(address)": {
        "notice": "Retrieves the state of a given vault."
      },
      "getVaultType(address)": {
        "notice": "Get the type of a vault."
      },
      "getVaultVariables2Raw(address)": {
        "notice": "Get the raw variables of a vault."
      },
      "getVaultVariablesRaw(address)": {
        "notice": "Get the raw variables of a vault."
      },
      "getVaultsAbsorb()": {
        "notice": "DEPRECATED, only works for vaults v1.0.0: Retrieves absorb data for all vaults."
      },
      "getVaultsAbsorb(address[])": {
        "notice": "DEPRECATED, only works for vaults v1.0.0: Retrieves absorb data for multiple vaults."
      },
      "getVaultsEntireData()": {
        "notice": "Retrieves the entire data for all vaults."
      },
      "getVaultsEntireData(address[])": {
        "notice": "Retrieves the entire data for a list of vaults."
      },
      "positionByNftId(uint256)": {
        "notice": "Retrieves the position data for a given NFT ID and the corresponding vault data."
      },
      "positionsByUser(address)": {
        "notice": "Fetches all positions and their corresponding vault data for a given user."
      },
      "positionsNftIdOfUser(address)": {
        "notice": "Returns an array of NFT IDs for all positions of a given user."
      },
      "totalPositions()": {
        "notice": "Returns the total number of positions across all users."
      },
      "vaultByNftId(uint256)": {
        "notice": "Returns the vault address associated with a given NFT ID."
      }
    },
    "notice": "Fluid VaultT1 protocol resolver ATTENTION: Use VaultResolver instead! This is just a temporary legacy-compatible resolver. Implements various view-only methods to give easy access to Vault protocol data.",
    "version": 1
  },
  "storageLayout": {
    "storage": [],
    "types": null
  }
}