{
  "address": "0xC1D883f63C63801650aED833826bfB894C0aCD87",
  "abi": [
    {
      "inputs": [
        {
          "internalType": "uint256",
          "name": "nativeTokenMaxBorrowLimitCap_",
          "type": "uint256"
        }
      ],
      "stateMutability": "nonpayable",
      "type": "constructor"
    },
    {
      "inputs": [
        {
          "internalType": "uint256",
          "name": "errorId_",
          "type": "uint256"
        }
      ],
      "name": "FluidLiquidityCalcsError",
      "type": "error"
    },
    {
      "inputs": [
        {
          "internalType": "uint256",
          "name": "errorId_",
          "type": "uint256"
        }
      ],
      "name": "FluidLiquidityError",
      "type": "error"
    },
    {
      "inputs": [
        {
          "internalType": "uint256",
          "name": "errorId_",
          "type": "uint256"
        }
      ],
      "name": "FluidSafeTransferError",
      "type": "error"
    },
    {
      "anonymous": false,
      "inputs": [],
      "name": "BorrowRateMaxCap",
      "type": "event"
    },
    {
      "anonymous": false,
      "inputs": [
        {
          "indexed": true,
          "internalType": "uint256",
          "name": "newStatus",
          "type": "uint256"
        }
      ],
      "name": "LogChangeStatus",
      "type": "event"
    },
    {
      "anonymous": false,
      "inputs": [
        {
          "indexed": true,
          "internalType": "address",
          "name": "token",
          "type": "address"
        },
        {
          "indexed": true,
          "internalType": "uint256",
          "name": "amount",
          "type": "uint256"
        }
      ],
      "name": "LogCollectRevenue",
      "type": "event"
    },
    {
      "anonymous": false,
      "inputs": [
        {
          "indexed": false,
          "internalType": "address",
          "name": "user",
          "type": "address"
        },
        {
          "indexed": false,
          "internalType": "address[]",
          "name": "supplyTokens",
          "type": "address[]"
        },
        {
          "indexed": false,
          "internalType": "address[]",
          "name": "borrowTokens",
          "type": "address[]"
        }
      ],
      "name": "LogPauseUser",
      "type": "event"
    },
    {
      "anonymous": false,
      "inputs": [
        {
          "indexed": false,
          "internalType": "address",
          "name": "user",
          "type": "address"
        },
        {
          "indexed": false,
          "internalType": "address[]",
          "name": "supplyTokens",
          "type": "address[]"
        },
        {
          "indexed": false,
          "internalType": "address[]",
          "name": "borrowTokens",
          "type": "address[]"
        }
      ],
      "name": "LogUnpauseUser",
      "type": "event"
    },
    {
      "anonymous": false,
      "inputs": [
        {
          "components": [
            {
              "internalType": "address",
              "name": "addr",
              "type": "address"
            },
            {
              "internalType": "bool",
              "name": "value",
              "type": "bool"
            }
          ],
          "indexed": false,
          "internalType": "struct Structs.AddressBool[]",
          "name": "authsStatus",
          "type": "tuple[]"
        }
      ],
      "name": "LogUpdateAuths",
      "type": "event"
    },
    {
      "anonymous": false,
      "inputs": [
        {
          "indexed": true,
          "internalType": "address",
          "name": "token",
          "type": "address"
        },
        {
          "indexed": true,
          "internalType": "uint256",
          "name": "supplyExchangePrice",
          "type": "uint256"
        },
        {
          "indexed": true,
          "internalType": "uint256",
          "name": "borrowExchangePrice",
          "type": "uint256"
        },
        {
          "indexed": false,
          "internalType": "uint256",
          "name": "borrowRate",
          "type": "uint256"
        },
        {
          "indexed": false,
          "internalType": "uint256",
          "name": "utilization",
          "type": "uint256"
        }
      ],
      "name": "LogUpdateExchangePrices",
      "type": "event"
    },
    {
      "anonymous": false,
      "inputs": [
        {
          "components": [
            {
              "internalType": "address",
              "name": "addr",
              "type": "address"
            },
            {
              "internalType": "bool",
              "name": "value",
              "type": "bool"
            }
          ],
          "indexed": false,
          "internalType": "struct Structs.AddressBool[]",
          "name": "guardiansStatus",
          "type": "tuple[]"
        }
      ],
      "name": "LogUpdateGuardians",
      "type": "event"
    },
    {
      "anonymous": false,
      "inputs": [
        {
          "components": [
            {
              "internalType": "address",
              "name": "token",
              "type": "address"
            },
            {
              "internalType": "uint256",
              "name": "kink",
              "type": "uint256"
            },
            {
              "internalType": "uint256",
              "name": "rateAtUtilizationZero",
              "type": "uint256"
            },
            {
              "internalType": "uint256",
              "name": "rateAtUtilizationKink",
              "type": "uint256"
            },
            {
              "internalType": "uint256",
              "name": "rateAtUtilizationMax",
              "type": "uint256"
            }
          ],
          "indexed": false,
          "internalType": "struct Structs.RateDataV1Params[]",
          "name": "tokenRateDatas",
          "type": "tuple[]"
        }
      ],
      "name": "LogUpdateRateDataV1s",
      "type": "event"
    },
    {
      "anonymous": false,
      "inputs": [
        {
          "components": [
            {
              "internalType": "address",
              "name": "token",
              "type": "address"
            },
            {
              "internalType": "uint256",
              "name": "kink1",
              "type": "uint256"
            },
            {
              "internalType": "uint256",
              "name": "kink2",
              "type": "uint256"
            },
            {
              "internalType": "uint256",
              "name": "rateAtUtilizationZero",
              "type": "uint256"
            },
            {
              "internalType": "uint256",
              "name": "rateAtUtilizationKink1",
              "type": "uint256"
            },
            {
              "internalType": "uint256",
              "name": "rateAtUtilizationKink2",
              "type": "uint256"
            },
            {
              "internalType": "uint256",
              "name": "rateAtUtilizationMax",
              "type": "uint256"
            }
          ],
          "indexed": false,
          "internalType": "struct Structs.RateDataV2Params[]",
          "name": "tokenRateDatas",
          "type": "tuple[]"
        }
      ],
      "name": "LogUpdateRateDataV2s",
      "type": "event"
    },
    {
      "anonymous": false,
      "inputs": [
        {
          "indexed": true,
          "internalType": "address",
          "name": "revenueCollector",
          "type": "address"
        }
      ],
      "name": "LogUpdateRevenueCollector",
      "type": "event"
    },
    {
      "anonymous": false,
      "inputs": [
        {
          "components": [
            {
              "internalType": "address",
              "name": "token",
              "type": "address"
            },
            {
              "internalType": "uint256",
              "name": "fee",
              "type": "uint256"
            },
            {
              "internalType": "uint256",
              "name": "threshold",
              "type": "uint256"
            },
            {
              "internalType": "uint256",
              "name": "maxUtilization",
              "type": "uint256"
            }
          ],
          "indexed": false,
          "internalType": "struct Structs.TokenConfig[]",
          "name": "tokenConfigs",
          "type": "tuple[]"
        }
      ],
      "name": "LogUpdateTokenConfigs",
      "type": "event"
    },
    {
      "anonymous": false,
      "inputs": [
        {
          "components": [
            {
              "internalType": "address",
              "name": "user",
              "type": "address"
            },
            {
              "internalType": "address",
              "name": "token",
              "type": "address"
            },
            {
              "internalType": "uint8",
              "name": "mode",
              "type": "uint8"
            },
            {
              "internalType": "uint256",
              "name": "expandPercent",
              "type": "uint256"
            },
            {
              "internalType": "uint256",
              "name": "expandDuration",
              "type": "uint256"
            },
            {
              "internalType": "uint256",
              "name": "baseDebtCeiling",
              "type": "uint256"
            },
            {
              "internalType": "uint256",
              "name": "maxDebtCeiling",
              "type": "uint256"
            }
          ],
          "indexed": false,
          "internalType": "struct Structs.UserBorrowConfig[]",
          "name": "userBorrowConfigs",
          "type": "tuple[]"
        }
      ],
      "name": "LogUpdateUserBorrowConfigs",
      "type": "event"
    },
    {
      "anonymous": false,
      "inputs": [
        {
          "components": [
            {
              "internalType": "address",
              "name": "addr",
              "type": "address"
            },
            {
              "internalType": "uint256",
              "name": "value",
              "type": "uint256"
            }
          ],
          "indexed": false,
          "internalType": "struct Structs.AddressUint256[]",
          "name": "userClasses",
          "type": "tuple[]"
        }
      ],
      "name": "LogUpdateUserClasses",
      "type": "event"
    },
    {
      "anonymous": false,
      "inputs": [
        {
          "components": [
            {
              "internalType": "address",
              "name": "user",
              "type": "address"
            },
            {
              "internalType": "address",
              "name": "token",
              "type": "address"
            },
            {
              "internalType": "uint8",
              "name": "mode",
              "type": "uint8"
            },
            {
              "internalType": "uint256",
              "name": "expandPercent",
              "type": "uint256"
            },
            {
              "internalType": "uint256",
              "name": "expandDuration",
              "type": "uint256"
            },
            {
              "internalType": "uint256",
              "name": "baseWithdrawalLimit",
              "type": "uint256"
            }
          ],
          "indexed": false,
          "internalType": "struct Structs.UserSupplyConfig[]",
          "name": "userSupplyConfigs",
          "type": "tuple[]"
        }
      ],
      "name": "LogUpdateUserSupplyConfigs",
      "type": "event"
    },
    {
      "anonymous": false,
      "inputs": [
        {
          "indexed": false,
          "internalType": "address",
          "name": "user",
          "type": "address"
        },
        {
          "indexed": false,
          "internalType": "address",
          "name": "token",
          "type": "address"
        },
        {
          "indexed": false,
          "internalType": "uint256",
          "name": "newLimit",
          "type": "uint256"
        }
      ],
      "name": "LogUpdateUserWithdrawalLimit",
      "type": "event"
    },
    {
      "inputs": [],
      "name": "NATIVE_TOKEN_MAX_BORROW_LIMIT_CAP",
      "outputs": [
        {
          "internalType": "uint256",
          "name": "",
          "type": "uint256"
        }
      ],
      "stateMutability": "view",
      "type": "function"
    },
    {
      "inputs": [
        {
          "internalType": "uint256",
          "name": "newStatus_",
          "type": "uint256"
        }
      ],
      "name": "changeStatus",
      "outputs": [],
      "stateMutability": "nonpayable",
      "type": "function"
    },
    {
      "inputs": [
        {
          "internalType": "address[]",
          "name": "tokens_",
          "type": "address[]"
        }
      ],
      "name": "collectRevenue",
      "outputs": [],
      "stateMutability": "nonpayable",
      "type": "function"
    },
    {
      "inputs": [
        {
          "internalType": "address",
          "name": "user_",
          "type": "address"
        },
        {
          "internalType": "address[]",
          "name": "supplyTokens_",
          "type": "address[]"
        },
        {
          "internalType": "address[]",
          "name": "borrowTokens_",
          "type": "address[]"
        }
      ],
      "name": "pauseUser",
      "outputs": [],
      "stateMutability": "nonpayable",
      "type": "function"
    },
    {
      "inputs": [
        {
          "internalType": "address",
          "name": "user_",
          "type": "address"
        },
        {
          "internalType": "address[]",
          "name": "supplyTokens_",
          "type": "address[]"
        },
        {
          "internalType": "address[]",
          "name": "borrowTokens_",
          "type": "address[]"
        }
      ],
      "name": "unpauseUser",
      "outputs": [],
      "stateMutability": "nonpayable",
      "type": "function"
    },
    {
      "inputs": [
        {
          "components": [
            {
              "internalType": "address",
              "name": "addr",
              "type": "address"
            },
            {
              "internalType": "bool",
              "name": "value",
              "type": "bool"
            }
          ],
          "internalType": "struct Structs.AddressBool[]",
          "name": "authsStatus_",
          "type": "tuple[]"
        }
      ],
      "name": "updateAuths",
      "outputs": [],
      "stateMutability": "nonpayable",
      "type": "function"
    },
    {
      "inputs": [
        {
          "internalType": "address[]",
          "name": "tokens_",
          "type": "address[]"
        }
      ],
      "name": "updateExchangePrices",
      "outputs": [
        {
          "internalType": "uint256[]",
          "name": "supplyExchangePrices_",
          "type": "uint256[]"
        },
        {
          "internalType": "uint256[]",
          "name": "borrowExchangePrices_",
          "type": "uint256[]"
        }
      ],
      "stateMutability": "nonpayable",
      "type": "function"
    },
    {
      "inputs": [
        {
          "components": [
            {
              "internalType": "address",
              "name": "addr",
              "type": "address"
            },
            {
              "internalType": "bool",
              "name": "value",
              "type": "bool"
            }
          ],
          "internalType": "struct Structs.AddressBool[]",
          "name": "guardiansStatus_",
          "type": "tuple[]"
        }
      ],
      "name": "updateGuardians",
      "outputs": [],
      "stateMutability": "nonpayable",
      "type": "function"
    },
    {
      "inputs": [
        {
          "components": [
            {
              "internalType": "address",
              "name": "token",
              "type": "address"
            },
            {
              "internalType": "uint256",
              "name": "kink",
              "type": "uint256"
            },
            {
              "internalType": "uint256",
              "name": "rateAtUtilizationZero",
              "type": "uint256"
            },
            {
              "internalType": "uint256",
              "name": "rateAtUtilizationKink",
              "type": "uint256"
            },
            {
              "internalType": "uint256",
              "name": "rateAtUtilizationMax",
              "type": "uint256"
            }
          ],
          "internalType": "struct Structs.RateDataV1Params[]",
          "name": "tokensRateData_",
          "type": "tuple[]"
        }
      ],
      "name": "updateRateDataV1s",
      "outputs": [],
      "stateMutability": "nonpayable",
      "type": "function"
    },
    {
      "inputs": [
        {
          "components": [
            {
              "internalType": "address",
              "name": "token",
              "type": "address"
            },
            {
              "internalType": "uint256",
              "name": "kink1",
              "type": "uint256"
            },
            {
              "internalType": "uint256",
              "name": "kink2",
              "type": "uint256"
            },
            {
              "internalType": "uint256",
              "name": "rateAtUtilizationZero",
              "type": "uint256"
            },
            {
              "internalType": "uint256",
              "name": "rateAtUtilizationKink1",
              "type": "uint256"
            },
            {
              "internalType": "uint256",
              "name": "rateAtUtilizationKink2",
              "type": "uint256"
            },
            {
              "internalType": "uint256",
              "name": "rateAtUtilizationMax",
              "type": "uint256"
            }
          ],
          "internalType": "struct Structs.RateDataV2Params[]",
          "name": "tokensRateData_",
          "type": "tuple[]"
        }
      ],
      "name": "updateRateDataV2s",
      "outputs": [],
      "stateMutability": "nonpayable",
      "type": "function"
    },
    {
      "inputs": [
        {
          "internalType": "address",
          "name": "revenueCollector_",
          "type": "address"
        }
      ],
      "name": "updateRevenueCollector",
      "outputs": [],
      "stateMutability": "nonpayable",
      "type": "function"
    },
    {
      "inputs": [
        {
          "components": [
            {
              "internalType": "address",
              "name": "token",
              "type": "address"
            },
            {
              "internalType": "uint256",
              "name": "fee",
              "type": "uint256"
            },
            {
              "internalType": "uint256",
              "name": "threshold",
              "type": "uint256"
            },
            {
              "internalType": "uint256",
              "name": "maxUtilization",
              "type": "uint256"
            }
          ],
          "internalType": "struct Structs.TokenConfig[]",
          "name": "tokenConfigs_",
          "type": "tuple[]"
        }
      ],
      "name": "updateTokenConfigs",
      "outputs": [],
      "stateMutability": "nonpayable",
      "type": "function"
    },
    {
      "inputs": [
        {
          "components": [
            {
              "internalType": "address",
              "name": "user",
              "type": "address"
            },
            {
              "internalType": "address",
              "name": "token",
              "type": "address"
            },
            {
              "internalType": "uint8",
              "name": "mode",
              "type": "uint8"
            },
            {
              "internalType": "uint256",
              "name": "expandPercent",
              "type": "uint256"
            },
            {
              "internalType": "uint256",
              "name": "expandDuration",
              "type": "uint256"
            },
            {
              "internalType": "uint256",
              "name": "baseDebtCeiling",
              "type": "uint256"
            },
            {
              "internalType": "uint256",
              "name": "maxDebtCeiling",
              "type": "uint256"
            }
          ],
          "internalType": "struct Structs.UserBorrowConfig[]",
          "name": "userBorrowConfigs_",
          "type": "tuple[]"
        }
      ],
      "name": "updateUserBorrowConfigs",
      "outputs": [],
      "stateMutability": "nonpayable",
      "type": "function"
    },
    {
      "inputs": [
        {
          "components": [
            {
              "internalType": "address",
              "name": "addr",
              "type": "address"
            },
            {
              "internalType": "uint256",
              "name": "value",
              "type": "uint256"
            }
          ],
          "internalType": "struct Structs.AddressUint256[]",
          "name": "userClasses_",
          "type": "tuple[]"
        }
      ],
      "name": "updateUserClasses",
      "outputs": [],
      "stateMutability": "nonpayable",
      "type": "function"
    },
    {
      "inputs": [
        {
          "components": [
            {
              "internalType": "address",
              "name": "user",
              "type": "address"
            },
            {
              "internalType": "address",
              "name": "token",
              "type": "address"
            },
            {
              "internalType": "uint8",
              "name": "mode",
              "type": "uint8"
            },
            {
              "internalType": "uint256",
              "name": "expandPercent",
              "type": "uint256"
            },
            {
              "internalType": "uint256",
              "name": "expandDuration",
              "type": "uint256"
            },
            {
              "internalType": "uint256",
              "name": "baseWithdrawalLimit",
              "type": "uint256"
            }
          ],
          "internalType": "struct Structs.UserSupplyConfig[]",
          "name": "userSupplyConfigs_",
          "type": "tuple[]"
        }
      ],
      "name": "updateUserSupplyConfigs",
      "outputs": [],
      "stateMutability": "nonpayable",
      "type": "function"
    },
    {
      "inputs": [
        {
          "internalType": "address",
          "name": "user_",
          "type": "address"
        },
        {
          "internalType": "address",
          "name": "token_",
          "type": "address"
        },
        {
          "internalType": "uint256",
          "name": "newLimit_",
          "type": "uint256"
        }
      ],
      "name": "updateUserWithdrawalLimit",
      "outputs": [],
      "stateMutability": "nonpayable",
      "type": "function"
    }
  ],
  "transactionHash": "0x53396bea40f56a741e42d201b69027708a4e5067fcd831fed3faee727e38d879",
  "args": [
    "10000000000000000000000000000"
  ],
  "numDeployments": 1,
  "solcInputHash": "1ccdfc05ee3726dac30d30995f9bd7e5",
  "bytecode": "0x60a0604052348015600e575f5ffd5b50604051615997380380615997833981016040819052602b916061565b6002600155805f819003605957604051636e55c17160e11b8152612716600482015260240160405180910390fd5b608052506077565b5f602082840312156070575f5ffd5b5051919050565b60805161590861008f5f395f6101fd01526159085ff3fe608060405234801561000f575f5ffd5b50600436106100fb575f3560e01c8063a5eb43ef11610093578063e8025d7711610063578063e8025d77146101e5578063eae2c8f1146101f8578063ec04840114610232578063f4bfa00014610245575f5ffd5b8063a5eb43ef14610199578063ac862bfa146101ac578063c2da75f0146101bf578063dd4cbf6b146101d2575f5ffd5b806354bb0c1d116100ce57806354bb0c1d1461014d5780637f7b6002146101605780638f0c2916146101735780639dde597714610186575f5ffd5b806301b88f86146100ff57806302c6bb6a146101145780633f66feff146101275780633fad77fc1461013a575b5f5ffd5b61011261010d366004614d0d565b610266565b005b610112610122366004614e11565b610e03565b610112610135366004614f44565b61185b565b610112610148366004614f83565b6119e2565b61011261015b366004614ff4565b611c76565b61011261016e366004615014565b611d65565b610112610181366004615075565b6123cf565b6101126101943660046150af565b61265e565b6101126101a7366004614f44565b6128d0565b6101126101ba366004615151565b612a2f565b6101126101cd366004614f44565b612e01565b6101126101e0366004615184565b612fd7565b6101126101f3366004615204565b613429565b61021f7f000000000000000000000000000000000000000000000000000000000000000081565b6040519081526020015b60405180910390f35b610112610240366004615184565b61353d565b610258610253366004615151565b61390f565b604051610229929190615255565b335f908152600260205260409020546001908116148015906102c55750336102ac7fb53127684a568b3173ae13b9f8a6016e243e63b6e8ee1178d6a717850b5d61035490565b73ffffffffffffffffffffffffffffffffffffffff1614155b15610305576040517fdcab82e200000000000000000000000000000000000000000000000000000000815261271360048201526024015b60405180910390fd5b5f5f5f5f5f5f5f5f5b8851811015610dc15761033c89828151811061032c5761032c615282565b60200260200101515f0151613a31565b61036289828151811061035157610351615282565b602002602001015160200151613a88565b60055f8a838151811061037757610377615282565b60200260200101516020015173ffffffffffffffffffffffffffffffffffffffff1673ffffffffffffffffffffffffffffffffffffffff1681526020019081526020015f20545f036103f9576040517fdcab82e200000000000000000000000000000000000000000000000000000000815261271a60048201526024016102fc565b600189828151811061040d5761040d615282565b60200260200101516040015160ff161180610461575088818151811061043557610435615282565b602002602001015160c0015189828151811061045357610453615282565b602002602001015160a00151115b80610488575088818151811061047957610479615282565b6020026020010151608001515f145b156104c3576040517fdcab82e200000000000000000000000000000000000000000000000000000000815261271660048201526024016102fc565b613fff8982815181106104d8576104d8615282565b6020026020010151606001511115610520576040517fdcab82e200000000000000000000000000000000000000000000000000000000815261272660048201526024016102fc565b62ffffff89828151811061053657610536615282565b602002602001015160800151111561057e576040517fdcab82e200000000000000000000000000000000000000000000000000000000815261272760048201526024016102fc565b88818151811061059057610590615282565b602002602001015160a001515f14806105c557508881815181106105b6576105b6615282565b602002602001015160c001515f145b15610600576040517fdcab82e200000000000000000000000000000000000000000000000000000000815261271560048201526024016102fc565b60095f8a838151811061061557610615615282565b60200260200101515f015173ffffffffffffffffffffffffffffffffffffffff1673ffffffffffffffffffffffffffffffffffffffff1681526020019081526020015f205f8a838151811061066c5761066c615282565b60200260200101516020015173ffffffffffffffffffffffffffffffffffffffff1673ffffffffffffffffffffffffffffffffffffffff1681526020019081526020015f20549750875f14806106ed5750600188161580156106ed57508881815181106106db576106db615282565b60200260200101516040015160ff165f145b806107265750876001166001148015610726575088818151811061071357610713615282565b60200260200101516040015160ff166001145b156108e65760da610763600a60085f8d868151811061074757610747615282565b602002602001015160c00151613b12909392919063ffffffff16565b901b60c861079d600a60085f8e878151811061078157610781615282565b602002602001015160a00151613b12909392919063ffffffff16565b901b60b08b84815181106107b3576107b3615282565b602002602001015160800151901b60a28c85815181106107d5576107d5615282565b602002602001015160600151901b8c85815181106107f5576107f5615282565b60200260200101516040015160ff168c7ffffff0000000000000000003fffffffffffffffffffffffffffffffffffffffe16171717171760095f8b848151811061084157610841615282565b60200260200101515f015173ffffffffffffffffffffffffffffffffffffffff1673ffffffffffffffffffffffffffffffffffffffff1681526020019081526020015f205f8b848151811061089857610898615282565b60200260200101516020015173ffffffffffffffffffffffffffffffffffffffff1673ffffffffffffffffffffffffffffffffffffffff1681526020019081526020015f2081905550610db9565b61090c8982815181106108fb576108fb615282565b602002602001015160200151613c38565b505061097160055f8b848151811061092657610926615282565b60200260200101516020015173ffffffffffffffffffffffffffffffffffffffff1673ffffffffffffffffffffffffffffffffffffffff1681526020019081526020015f2054613d78565b90508092505060075f8a838151811061098c5761098c615282565b60200260200101516020015173ffffffffffffffffffffffffffffffffffffffff1673ffffffffffffffffffffffffffffffffffffffff1681526020019081526020015f205496506109f467ffffffffffffffff608089901c16600860ff9082901c91161b90565b955060c887901c60ff60c089901c161b945067ffffffffffffffff600189901c16935060ff8416600885901c901b935067ffffffffffffffff604189901c16925060ff8316600884901c901b9250876001165f148015610a745750888181518110610a6157610a61615282565b60200260200101516040015160ff166001145b15610ad157838511610a86575f610a90565b610a9084866152dc565b9450610aa28464e8d4a5100084613f86565b935081610ab464e8d4a51000856152f5565b610abe9190615339565b9250610aca8487615371565b9550610b5c565b876001166001148015610b035750888181518110610af157610af1615282565b60200260200101516040015160ff165f145b15610b5c57838611610b15575f610b1f565b610b1f84876152dc565b9550610b31848364e8d4a51000613f86565b935064e8d4a51000610b4383856152f5565b610b4d9190615339565b9250610b598486615371565b94505b610b6b84603860086001613b12565b9350610b7b83603860085f613b12565b925060da610b99600a60085f8d868151811061074757610747615282565b901b60c8610bb7600a60085f8e878151811061078157610781615282565b901b60b08b8481518110610bcd57610bcd615282565b602002602001015160800151901b60a28c8581518110610bef57610bef615282565b602002602001015160600151901b604187901b600189901b8e8781518110610c1957610c19615282565b60200260200101516040015160ff168e7ffffff0000000000000000003fffffffe00000000000000000000000000000000161717171717171760095f8b8481518110610c6757610c67615282565b60200260200101515f015173ffffffffffffffffffffffffffffffffffffffff1673ffffffffffffffffffffffffffffffffffffffff1681526020019081526020015f205f8b8481518110610cbe57610cbe615282565b60209081029190910181015181015173ffffffffffffffffffffffffffffffffffffffff1682528101919091526040015f2055610d0086603860086001613b12565b9550610d1185603860086001613b12565b945060c085901b608087901b886fffffffffffffffffffffffffffffffff16171760075f8b8481518110610d4757610d47615282565b60200260200101516020015173ffffffffffffffffffffffffffffffffffffffff1673ffffffffffffffffffffffffffffffffffffffff1681526020019081526020015f2081905550610db6898281518110610da557610da5615282565b602002602001015160200151613fc8565b50505b60010161030e565b507f4a3d512075def8d38b63e79dacfdab217654f641be2b2f7d638b67b2515df7c088604051610df19190615384565b60405180910390a15050505050505050565b335f90815260026020526040902054600190811614801590610e62575033610e497fb53127684a568b3173ae13b9f8a6016e243e63b6e8ee1178d6a717850b5d61035490565b73ffffffffffffffffffffffffffffffffffffffff1614155b15610e9d576040517fdcab82e200000000000000000000000000000000000000000000000000000000815261271360048201526024016102fc565b5f5f5f5f5f5f5f5f5b885181101561182b57610ec489828151811061032c5761032c615282565b610ed989828151811061035157610351615282565b60055f8a8381518110610eee57610eee615282565b60200260200101516020015173ffffffffffffffffffffffffffffffffffffffff1673ffffffffffffffffffffffffffffffffffffffff1681526020019081526020015f20545f03610f70576040517fdcab82e200000000000000000000000000000000000000000000000000000000815261271a60048201526024016102fc565b6001898281518110610f8457610f84615282565b60200260200101516040015160ff161180610fbb5750888181518110610fac57610fac615282565b6020026020010151608001515f145b15610ff6576040517fdcab82e200000000000000000000000000000000000000000000000000000000815261271660048201526024016102fc565b61271089828151811061100b5761100b615282565b6020026020010151606001511115611053576040517fdcab82e200000000000000000000000000000000000000000000000000000000815261272460048201526024016102fc565b62ffffff89828151811061106957611069615282565b60200260200101516080015111156110b1576040517fdcab82e200000000000000000000000000000000000000000000000000000000815261272560048201526024016102fc565b8881815181106110c3576110c3615282565b602002602001015160a001515f0361110b576040517fdcab82e200000000000000000000000000000000000000000000000000000000815261271560048201526024016102fc565b60085f8a838151811061112057611120615282565b60200260200101515f015173ffffffffffffffffffffffffffffffffffffffff1673ffffffffffffffffffffffffffffffffffffffff1681526020019081526020015f205f8a838151811061117757611177615282565b60200260200101516020015173ffffffffffffffffffffffffffffffffffffffff1673ffffffffffffffffffffffffffffffffffffffff1681526020019081526020015f20549750875f14806111f85750600188161580156111f857508881815181106111e6576111e6615282565b60200260200101516040015160ff165f145b806112315750876001166001148015611231575088818151811061121e5761121e615282565b60200260200101516040015160ff166001145b1561139a5760c8611252600a60085f8d868151811061078157610781615282565b901b60b08a838151811061126857611268615282565b602002602001015160800151901b60a28b848151811061128a5761128a615282565b602002602001015160600151901b8b84815181106112aa576112aa615282565b60200260200101516040015160ff168b7ffffffffffc00000000000003fffffffffffffffffffffffffffffffffffffffe161717171760085f8b84815181106112f5576112f5615282565b60200260200101515f015173ffffffffffffffffffffffffffffffffffffffff1673ffffffffffffffffffffffffffffffffffffffff1681526020019081526020015f205f8b848151811061134c5761134c615282565b60200260200101516020015173ffffffffffffffffffffffffffffffffffffffff1673ffffffffffffffffffffffffffffffffffffffff1681526020019081526020015f2081905550611823565b6113af8982815181106108fb576108fb615282565b50506113c960055f8b848151811061092657610926615282565b508092505060075f8a83815181106113e3576113e3615282565b60200260200101516020015173ffffffffffffffffffffffffffffffffffffffff1673ffffffffffffffffffffffffffffffffffffffff1681526020019081526020015f2054965061144767ffffffffffffffff8816600860ff9082901c91161b90565b955066ffffffffffffff604888901c1660ff604089901c161b945067ffffffffffffffff600189901c16935060ff8416600885901c901b935067ffffffffffffffff604189901c16925060ff8316600884901c901b9250876001165f1480156114d057508881815181106114bd576114bd615282565b60200260200101516040015160ff166001145b15611537578385116114e2575f6114ec565b6114ec84866152dc565b9450816114fe64e8d4a51000866152f5565b6115089190615339565b93508161151a64e8d4a51000856152f5565b6115249190615339565b92506115308487615371565b95506115cc565b876001166001148015611569575088818151811061155757611557615282565b60200260200101516040015160ff165f145b156115cc5783861161157b575f611585565b61158584876152dc565b955064e8d4a5100061159783866152f5565b6115a19190615339565b935064e8d4a510006115b383856152f5565b6115bd9190615339565b92506115c98486615371565b94505b6115da84603860085f613b12565b93506115ea83603860085f613b12565b925060c8611608600a60085f8d868151811061078157610781615282565b901b60b08a838151811061161e5761161e615282565b602002602001015160800151901b60a28b848151811061164057611640615282565b602002602001015160600151901b604186901b600188901b8d868151811061166a5761166a615282565b60200260200101516040015160ff168d7ffffffffffc00000000000003fffffffe000000000000000000000000000000001617171717171760085f8b84815181106116b7576116b7615282565b60200260200101515f015173ffffffffffffffffffffffffffffffffffffffff1673ffffffffffffffffffffffffffffffffffffffff1681526020019081526020015f205f8b848151811061170e5761170e615282565b60200260200101516020015173ffffffffffffffffffffffffffffffffffffffff1673ffffffffffffffffffffffffffffffffffffffff1681526020019081526020015f2081905550611770603860085f89613b12909392919063ffffffff16565b955061178085603860085f613b12565b9450604085901b86887fffffffffffffffffffffffffffffffff0000000000000000000000000000000016171760075f8b84815181106117c2576117c2615282565b60200260200101516020015173ffffffffffffffffffffffffffffffffffffffff1673ffffffffffffffffffffffffffffffffffffffff1681526020019081526020015f2081905550611820898281518110610da557610da5615282565b50505b600101610ea6565b507f614e3525ec8c152da9319cd9038950346a4a042d3c6810a7f3ffddc34347bdb088604051610df19190615439565b336118847fb53127684a568b3173ae13b9f8a6016e243e63b6e8ee1178d6a717850b5d61035490565b73ffffffffffffffffffffffffffffffffffffffff16146118d5576040517fdcab82e200000000000000000000000000000000000000000000000000000000815261271260048201526024016102fc565b805f5b818110156119a3576119108484838181106118f5576118f5615282565b61190b9260206040909202019081019150614ff4565b614351565b83838281811061192257611922615282565b905060400201602001602081019061193a91906154e8565b611944575f611947565b60015b60ff1660025f86868581811061195f5761195f615282565b6119759260206040909202019081019150614ff4565b73ffffffffffffffffffffffffffffffffffffffff16815260208101919091526040015f20556001016118d8565b507fb694cde8b4bf47e7f5845bb4374f98c5b29bbbaa5208ea679121cecb5d8fd3e083836040516119d5929190615501565b60405180910390a1505050565b335f90815260026020526040902054600190811614801590611a41575033611a287fb53127684a568b3173ae13b9f8a6016e243e63b6e8ee1178d6a717850b5d61035490565b73ffffffffffffffffffffffffffffffffffffffff1614155b15611a7c576040517fdcab82e200000000000000000000000000000000000000000000000000000000815261271360048201526024016102fc565b805f805b82811015611c3657611ab8858583818110611a9d57611a9d615282565b611ab392602060a0909202019081019150614ff4565b613a88565b611ae8858583818110611acd57611acd615282565b611ae392602060a0909202019081019150614ff4565b6143a2565b60065f868684818110611afd57611afd615282565b611b1392602060a0909202019081019150614ff4565b73ffffffffffffffffffffffffffffffffffffffff16815260208101919091526040015f205491508115611b7457611b71858583818110611b5657611b56615282565b611b6c92602060a0909202019081019150614ff4565b613c38565b50505b611ba4858583818110611b8957611b89615282565b905060a00201803603810190611b9f919061556b565b61449f565b60065f878785818110611bb957611bb9615282565b611bcf92602060a0909202019081019150614ff4565b73ffffffffffffffffffffffffffffffffffffffff16815260208101919091526040015f20558115611c2e57611c2b858583818110611c1057611c10615282565b611c2692602060a0909202019081019150614ff4565b613fc8565b50505b600101611a80565b507f1f953465aa7f3f2478d38b6c2a9cfcfbda846398254e278f614d586d527d902c8484604051611c689291906155df565b60405180910390a150505050565b33611c9f7fb53127684a568b3173ae13b9f8a6016e243e63b6e8ee1178d6a717850b5d61035490565b73ffffffffffffffffffffffffffffffffffffffff1614611cf0576040517fdcab82e200000000000000000000000000000000000000000000000000000000815261271260048201526024016102fc565b611cf981614351565b5f80547fffffffffffffffffffffffff00000000000000000000000000000000000000001673ffffffffffffffffffffffffffffffffffffffff8316908117825560405190917fde3dd47a9a762713b4a9813a037ab6f57e36569d8b0ec4ddb285d8a61878b5b491a250565b335f90815260026020526040902054600190811614801590611dc4575033611dab7fb53127684a568b3173ae13b9f8a6016e243e63b6e8ee1178d6a717850b5d61035490565b73ffffffffffffffffffffffffffffffffffffffff1614155b15611dff576040517fdcab82e200000000000000000000000000000000000000000000000000000000815261271360048201526024016102fc565b805f8080805b8481101561238d57611e38878783818110611e2257611e22615282565b611ab39260206080909202019081019150614ff4565b60065f888884818110611e4d57611e4d615282565b611e639260206080909202019081019150614ff4565b73ffffffffffffffffffffffffffffffffffffffff1673ffffffffffffffffffffffffffffffffffffffff1681526020019081526020015f20545f03611ed9576040517fdcab82e200000000000000000000000000000000000000000000000000000000815261271a60048201526024016102fc565b612710878783818110611eee57611eee615282565b905060800201602001351115611f34576040517fdcab82e200000000000000000000000000000000000000000000000000000000815261272260048201526024016102fc565b612710878783818110611f4957611f49615282565b905060800201606001351115611f8f576040517fdcab82e200000000000000000000000000000000000000000000000000000000815261272b60048201526024016102fc565b6101f4878783818110611fa457611fa4615282565b905060800201604001351115611fea576040517fdcab82e200000000000000000000000000000000000000000000000000000000815261272360048201526024016102fc565b60055f888884818110611fff57611fff615282565b6120159260206080909202019081019150614ff4565b73ffffffffffffffffffffffffffffffffffffffff1673ffffffffffffffffffffffffffffffffffffffff1681526020019081526020015f2054935067ffffffffffffffff605b85901c16925067ffffffffffffffff609b85901c1691505f8311801561208157505f82115b156120f15761208f84613d78565b909350915067ffffffffffffffff8311806120b1575067ffffffffffffffff82115b156120ec576040517fdcab82e200000000000000000000000000000000000000000000000000000000815261272860048201526024016102fc565b612182565b64e8d4a51000925064e8d4a510009150600a87878381811061211557612115615282565b61212b9260206080909202019081019150614ff4565b81546001810183555f928352602090922090910180547fffffffffffffffffffffffff00000000000000000000000000000000000000001673ffffffffffffffffffffffffffffffffffffffff9092169190911790555b5f61271088888481811061219857612198615282565b905060800201606001351415905060f9816121b3575f6121b6565b60015b60ff16901b609b84901b605b86901b42603a1b602c8c8c888181106121dd576121dd615282565b90506080020160400135901b60108d8d898181106121fd576121fd615282565b90506080020160200135901b8a7ffdfffffff80000000000000000000000000000000000000000000fffc000ffff1617171717171760055f8a8a8681811061224757612247615282565b61225d9260206080909202019081019150614ff4565b73ffffffffffffffffffffffffffffffffffffffff16815260208101919091526040015f20558061228e575f6122ab565b8787838181106122a0576122a0615282565b905060800201606001355b600b5f8a8a868181106122c0576122c0615282565b6122d69260206080909202019081019150614ff4565b73ffffffffffffffffffffffffffffffffffffffff1673ffffffffffffffffffffffffffffffffffffffff1681526020019081526020015f20547fffffffffffffffffffffffffffffffffffffffffffffffffffffffffffffc0001617600b5f8a8a8681811061234857612348615282565b61235e9260206080909202019081019150614ff4565b73ffffffffffffffffffffffffffffffffffffffff16815260208101919091526040015f205550600101611e05565b507fa9d5be7e168dc43b637b924e6cc22c262478dffd9d475fa170b6d4e4ba57646086866040516123bf929190615654565b60405180910390a1505050505050565b335f9081526002602052604090205460019081161480159061242e5750336124157fb53127684a568b3173ae13b9f8a6016e243e63b6e8ee1178d6a717850b5d61035490565b73ffffffffffffffffffffffffffffffffffffffff1614155b15612469576040517fdcab82e200000000000000000000000000000000000000000000000000000000815261271360048201526024016102fc565b61247283613a31565b61247b82613a88565b73ffffffffffffffffffffffffffffffffffffffff8084165f908152600860209081526040808320938616835292905290812054908190036124ed576040517fdcab82e200000000000000000000000000000000000000000000000000000000815261271960048201526024016102fc565b66ffffffffffffff600982901c1660ff600183901c161b60a282901c613fff1661271061251a82846152f5565b6125249190615339565b61252e90836152dc565b905083158061253c57508084105b156125495780935061257f565b7fffffffffffffffffffffffffffffffffffffffffffffffffffffffffffffffff84148061257657508184115b1561257f578193505b6103ff60d084901c1660ff60c885901c161b8083101561259d575f94505b4260811b60416125b187603860085f613b12565b73ffffffffffffffffffffffffffffffffffffffff8a81165f818152600860209081526040808320948e16808452948252918290209490951b7ffffffffffffffffffffffffc000000000000000000000001ffffffffffffffff8b1617959095179092558351918252918101919091529081018690527fbd618a42c279f25a1d0dd6144f1a1b2ded22549073604bb0774cff6a99ee8428906060015b60405180910390a150505050505050565b335f908152600260205260409020546001908116148015906126bd5750336126a47fb53127684a568b3173ae13b9f8a6016e243e63b6e8ee1178d6a717850b5d61035490565b73ffffffffffffffffffffffffffffffffffffffff1614155b156126f8576040517fdcab82e200000000000000000000000000000000000000000000000000000000815261271360048201526024016102fc565b805f805b8281101561289e5761272f85858381811061271957612719615282565b611ab392602060e0909202019081019150614ff4565b61275a85858381811061274457612744615282565b611ae392602060e0909202019081019150614ff4565b60065f86868481811061276f5761276f615282565b61278592602060e0909202019081019150614ff4565b73ffffffffffffffffffffffffffffffffffffffff16815260208101919091526040015f2054915081156127e1576127de8585838181106127c8576127c8615282565b611b6c92602060e0909202019081019150614ff4565b50505b6128118585838181106127f6576127f6615282565b905060e0020180360381019061280c91906156bf565b614601565b60065f87878581811061282657612826615282565b61283c92602060e0909202019081019150614ff4565b73ffffffffffffffffffffffffffffffffffffffff16815260208101919091526040015f205581156128965761289385858381811061287d5761287d615282565b611c2692602060e0909202019081019150614ff4565b50505b6001016126fc565b507ff96f9120f802331b6220bac68c2ab90cce6c8a8f9fed548d72dd092ad1899bf98484604051611c68929190615729565b336128f97fb53127684a568b3173ae13b9f8a6016e243e63b6e8ee1178d6a717850b5d61035490565b73ffffffffffffffffffffffffffffffffffffffff161461294a576040517fdcab82e200000000000000000000000000000000000000000000000000000000815261271260048201526024016102fc565b805f5b818110156129fd5761296a8484838181106118f5576118f5615282565b83838281811061297c5761297c615282565b905060400201602001602081019061299491906154e8565b61299e575f6129a1565b60015b60ff1660035f8686858181106129b9576129b9615282565b6129cf9260206040909202019081019150614ff4565b73ffffffffffffffffffffffffffffffffffffffff16815260208101919091526040015f205560010161294d565b507f530db3bf9b4b0c4f296fe1d9e21620b91db0a8bdcaca4cf1e6dc9844739405c183836040516119d5929190615501565b335f90815260026020526040902054600190811614801590612a8e575033612a757fb53127684a568b3173ae13b9f8a6016e243e63b6e8ee1178d6a717850b5d61035490565b73ffffffffffffffffffffffffffffffffffffffff1614155b15612ac9576040517fdcab82e200000000000000000000000000000000000000000000000000000000815261271360048201526024016102fc565b5f5473ffffffffffffffffffffffffffffffffffffffff1680612b1c576040517fdcab82e200000000000000000000000000000000000000000000000000000000815261271b60048201526024016102fc565b815f5b81811015612dfa57612b51858583818110612b3c57612b3c615282565b9050602002016020810190611ab39190614ff4565b5f73eeeeeeeeeeeeeeeeeeeeeeeeeeeeeeeeeeeeeeee868684818110612b7957612b79615282565b9050602002016020810190612b8e9190614ff4565b73ffffffffffffffffffffffffffffffffffffffff161490505f612d3860075f898987818110612bc057612bc0615282565b9050602002016020810190612bd59190614ff4565b73ffffffffffffffffffffffffffffffffffffffff1673ffffffffffffffffffffffffffffffffffffffff1681526020019081526020015f205460055f8a8a88818110612c2457612c24615282565b9050602002016020810190612c399190614ff4565b73ffffffffffffffffffffffffffffffffffffffff1673ffffffffffffffffffffffffffffffffffffffff1681526020019081526020015f205484612d3257898987818110612c8a57612c8a615282565b9050602002016020810190612c9f9190614ff4565b6040517f70a0823100000000000000000000000000000000000000000000000000000000815230600482015273ffffffffffffffffffffffffffffffffffffffff91909116906370a0823190602401602060405180830381865afa158015612d09573d5f5f3e3d5ffd5b505050506040513d601f19601f82011682018060405250810190612d2d91906157b2565b6147df565b476147df565b90508015612d86578115612d5557612d508582614844565b612d86565b612d86878785818110612d6a57612d6a615282565b9050602002016020810190612d7f9190614ff4565b8683614892565b80878785818110612d9957612d99615282565b9050602002016020810190612dae9190614ff4565b73ffffffffffffffffffffffffffffffffffffffff167f7ded56fbc1e1a41c85fd5fb3d0ce91eafc72414b7f06ed356c1d921823d4c37c60405160405180910390a35050600101612b1f565b5050505050565b335f90815260026020526040902054600190811614801590612e60575033612e477fb53127684a568b3173ae13b9f8a6016e243e63b6e8ee1178d6a717850b5d61035490565b73ffffffffffffffffffffffffffffffffffffffff1614155b15612e9b576040517fdcab82e200000000000000000000000000000000000000000000000000000000815261271360048201526024016102fc565b805f5b81811015612fa5576001848483818110612eba57612eba615282565b905060400201602001351115612f00576040517fdcab82e200000000000000000000000000000000000000000000000000000000815261271660048201526024016102fc565b612f30848483818110612f1557612f15615282565b612f2b9260206040909202019081019150614ff4565b613a31565b838382818110612f4257612f42615282565b9050604002016020013560045f868685818110612f6157612f61615282565b612f779260206040909202019081019150614ff4565b73ffffffffffffffffffffffffffffffffffffffff16815260208101919091526040015f2055600101612e9e565b507f9ccbc3483d75ae36da94213ac30ac0a047e1226ef3435d004cd501608e5b388b83836040516119d59291906157c9565b335f9081526003602052604090205460019081161480159061303657503361301d7fb53127684a568b3173ae13b9f8a6016e243e63b6e8ee1178d6a717850b5d61035490565b73ffffffffffffffffffffffffffffffffffffffff1614155b15613071576040517fdcab82e200000000000000000000000000000000000000000000000000000000815261271460048201526024016102fc565b61307a85613a31565b73ffffffffffffffffffffffffffffffffffffffff85165f908152600460205260409020546001036130dc576040517fdcab82e200000000000000000000000000000000000000000000000000000000815261271760048201526024016102fc565b5f838015613267575f5b8181101561326557613103878783818110612b3c57612b3c615282565b73ffffffffffffffffffffffffffffffffffffffff88165f9081526008602052604081209088888481811061313a5761313a615282565b905060200201602081019061314f9190614ff4565b73ffffffffffffffffffffffffffffffffffffffff1673ffffffffffffffffffffffffffffffffffffffff1681526020019081526020015f20549250825f036131c8576040517fdcab82e200000000000000000000000000000000000000000000000000000000815261271960048201526024016102fc565b73ffffffffffffffffffffffffffffffffffffffff88165f9081526008602052604081207f800000000000000000000000000000000000000000000000000000000000000085179189898581811061322257613222615282565b90506020020160208101906132379190614ff4565b73ffffffffffffffffffffffffffffffffffffffff16815260208101919091526040015f20556001016130e6565b505b508180156133f2575f5b818110156133f05761328e858583818110612b3c57612b3c615282565b73ffffffffffffffffffffffffffffffffffffffff88165f908152600960205260408120908686848181106132c5576132c5615282565b90506020020160208101906132da9190614ff4565b73ffffffffffffffffffffffffffffffffffffffff1673ffffffffffffffffffffffffffffffffffffffff1681526020019081526020015f20549250825f03613353576040517fdcab82e200000000000000000000000000000000000000000000000000000000815261271960048201526024016102fc565b73ffffffffffffffffffffffffffffffffffffffff88165f9081526009602052604081207f80000000000000000000000000000000000000000000000000000000000000008517918787858181106133ad576133ad615282565b90506020020160208101906133c29190614ff4565b73ffffffffffffffffffffffffffffffffffffffff16815260208101919091526040015f2055600101613271565b505b7f6686e5bb0cc56cbc9aa2b434eb18009891bf411d6d3f961fdfe70be336ca4528878787878760405161264d959493929190615869565b335f9081526002602052604090205460019081161480159061348857503361346f7fb53127684a568b3173ae13b9f8a6016e243e63b6e8ee1178d6a717850b5d61035490565b73ffffffffffffffffffffffffffffffffffffffff1614155b156134c3576040517fdcab82e200000000000000000000000000000000000000000000000000000000815261271360048201526024016102fc565b8015806134d05750600281115b1561350b576040517fdcab82e200000000000000000000000000000000000000000000000000000000815261271660048201526024016102fc565b600181905560405181907fb33384c8a450936b9fba178db857f03fb9865a40d166aa2f9d439a9fdddfbe22905f90a250565b335f9081526003602052604090205460019081161480159061359c5750336135837fb53127684a568b3173ae13b9f8a6016e243e63b6e8ee1178d6a717850b5d61035490565b73ffffffffffffffffffffffffffffffffffffffff1614155b156135d7576040517fdcab82e200000000000000000000000000000000000000000000000000000000815261271460048201526024016102fc565b6135e085613a31565b5f83801561375c575f5b8181101561375a57613607878783818110612b3c57612b3c615282565b73ffffffffffffffffffffffffffffffffffffffff88165f9081526008602052604081209088888481811061363e5761363e615282565b90506020020160208101906136539190614ff4565b73ffffffffffffffffffffffffffffffffffffffff16815260208101919091526040015f20549250600160ff84901c146136bd576040517fdcab82e200000000000000000000000000000000000000000000000000000000815261271860048201526024016102fc565b73ffffffffffffffffffffffffffffffffffffffff88165f9081526008602052604081207f7fffffffffffffffffffffffffffffffffffffffffffffffffffffffffffffff85169189898581811061371757613717615282565b905060200201602081019061372c9190614ff4565b73ffffffffffffffffffffffffffffffffffffffff16815260208101919091526040015f20556001016135ea565b505b508180156138d8575f5b818110156138d657613783858583818110612b3c57612b3c615282565b73ffffffffffffffffffffffffffffffffffffffff88165f908152600960205260408120908686848181106137ba576137ba615282565b90506020020160208101906137cf9190614ff4565b73ffffffffffffffffffffffffffffffffffffffff16815260208101919091526040015f20549250600160ff84901c14613839576040517fdcab82e200000000000000000000000000000000000000000000000000000000815261271860048201526024016102fc565b73ffffffffffffffffffffffffffffffffffffffff88165f9081526009602052604081207f7fffffffffffffffffffffffffffffffffffffffffffffffffffffffffffffff85169187878581811061389357613893615282565b90506020020160208101906138a89190614ff4565b73ffffffffffffffffffffffffffffffffffffffff16815260208101919091526040015f2055600101613766565b505b7facd30ef49b8fd1b51bbefff95071c5b0257180a7778c9c0fa4eb77a8842e290d878787878760405161264d959493929190615869565b606080828067ffffffffffffffff81111561392c5761392c614bec565b604051908082528060200260200182016040528015613955578160200160208202803683370190505b5092508067ffffffffffffffff81111561397157613971614bec565b60405190808252806020026020018201604052801561399a578160200160208202803683370190505b5091505f5b81811015613a28576139bc868683818110612b3c57612b3c615282565b6139e68686838181106139d1576139d1615282565b9050602002016020810190611c269190614ff4565b8583815181106139f8576139f8615282565b60200260200101858481518110613a1157613a11615282565b60209081029190910101919091525260010161399f565b50509250929050565b8073ffffffffffffffffffffffffffffffffffffffff163b5f03613a85576040517fdcab82e200000000000000000000000000000000000000000000000000000000815261272a60048201526024016102fc565b50565b73ffffffffffffffffffffffffffffffffffffffff81163b158015613ad7575073ffffffffffffffffffffffffffffffffffffffff811673eeeeeeeeeeeeeeeeeeeeeeeeeeeeeeeeeeeeeeee14155b15613a85576040517fdcab82e200000000000000000000000000000000000000000000000000000000815261272a60048201526024016102fc565b5f5f856fffffffffffffffffffffffffffffffff811115613b345760809150811c5b67ffffffffffffffff811115613b4c576040918201911c5b63ffffffff811115613b60576020918201911c5b61ffff811115613b72576010918201911c5b60ff811115613b83576008918201911c5b600f811115613b94576004918201911c5b6003811115613ba5576002918201911c5b6001811115613bb5576001820191505b8015613bc2576001820191505b5084811015613bce5750835b848103905085811c5f8211841615613c1c57600181019050806001871b03613c1c57506001908101907fffffffffffffffffffffffffffffffffffffffffffffffffffffffffffffffff86011b5b6001851b8210613c2a575f5ffd5b90931b909201949350505050565b73ffffffffffffffffffffffffffffffffffffffff81165f908152600560205260408120548190613c6881613d78565b909350915067ffffffffffffffff831180613c8a575067ffffffffffffffff82115b15613cc5576040517fdcab82e200000000000000000000000000000000000000000000000000000000815261272860048201526024016102fc565b73ffffffffffffffffffffffffffffffffffffffff84165f81815260056020526040908190207ffffffffff80000000000000000000000000000000000000003ffffffffffffff841642603a1b17605b87901b17609b86901b17905551839185917f96c40bed7fc8d0ac41633a3bd47f254f0b0076e5df70975c51d23514bc49d3b890613d6a9061ffff871690601e88901c613fff1690918252602082015260400190565b60405180910390a450915091565b67ffffffffffffffff605b82901c811690609b83901c16811580613d9a575080155b15613dd6576040517fd50d75120000000000000000000000000000000000000000000000000000000081526201117160048201526024016102fc565b61ffff8316603a84901c6401ffffffff16428181039160ea87901c617fff16911480613e00575082155b80613e0b5750806001145b15613e1857505050915091565b64496cebb80084840283020484019350617fff60db87901c16925082600103613e4357505050915091565b82600116600103613e985760019290921c91826c7e37be2022c0914b268000000081613e7157613e7161530c565b049250612710601e87901c613fff166b033b2e3c9fd0803ce8000000850102049250613ec5565b60019290921c916305f5e100601e87901c613fff166127108501026b033b2e3c9fd0803ce8000000020492505b80600116600103613efc5760011c61271081016b033b2e3c9fd0803ce8000000820281613ef457613ef461530c565b049050613f32565b60011c61271081016b033b2e3c9fd0803ce8000000820281613f2057613f2061530c565b046b033b2e3c9fd0803ce80000000390505b760a70c3c40a64e6c51999090b65f67d92400000000000008382026127100261ffff881691900402601087901c613fff16612710030292506801b5a660ea44b8000085840283020485019450505050915091565b5f827fffffffffffffffffffffffffffffffffffffffffffffffffffffffffffffffff0484118302158202613fb9575f5ffd5b50910281810615159190040190565b73ffffffffffffffffffffffffffffffffffffffff81165f908152600560205260408120548190613ff881613d78565b73ffffffffffffffffffffffffffffffffffffffff86165f9081526007602052604081205492955090935064e8d4a5100061404586600885901c66ffffffffffffff1660ff86161b6152f5565b61404f9190615339565b90505f64e8d4a5100061407886608886901c66ffffffffffffff16608087901c60ff161b6152f5565b6140829190615339565b90505f66ffffffffffffff604885901c1660ff604086901c161b90505f60c885901c60ff60c087901c161b90505f841515806140bd57505f83115b156140f0576140cc8386615371565b6127106140d98487615371565b6140e391906152f5565b6140ed9190615339565b90505b8285111561411a57600185614107612710866152f5565b6141119190615339565b901b945061415b565b8285101561414757600183614131612710886152f5565b61413b9190615339565b901b600117945061415b565b841561415757614e20945061415b565b5f94505b8184111561418557600184614172612710856152f5565b61417c9190615339565b901b93506141c6565b818410156141b25760018261419c612710876152f5565b6141a69190615339565b901b60011793506141c6565b83156141c257614e2093506141c6565b5f93505b73ffffffffffffffffffffffffffffffffffffffff8a165f908152600660205260408120546141f59083614938565b905067ffffffffffffffff8a1180614214575067ffffffffffffffff89115b1561424f576040517fdcab82e200000000000000000000000000000000000000000000000000000000815261272860048201526024016102fc565b613fff82111561428f576040517fdcab82e200000000000000000000000000000000000000000000000000000000815261272960048201526024016102fc565b73ffffffffffffffffffffffffffffffffffffffff8b165f81815260056020526040908190207ffe000000000000000000000000000000000000000000000003fff0003fff00008b168417601e86901b1742603a1b17605b8e901b17609b8d901b1760db8a901b1760ea89901b179055518a918c917f96c40bed7fc8d0ac41633a3bd47f254f0b0076e5df70975c51d23514bc49d3b89061433c9086908890918252602082015260400190565b60405180910390a45050505050505050915091565b73ffffffffffffffffffffffffffffffffffffffff8116613a85576040517fdcab82e200000000000000000000000000000000000000000000000000000000815261271160048201526024016102fc565b5f73ffffffffffffffffffffffffffffffffffffffff821673eeeeeeeeeeeeeeeeeeeeeeeeeeeeeeeeeeeeeeee14614446578173ffffffffffffffffffffffffffffffffffffffff1663313ce5676040518163ffffffff1660e01b8152600401602060405180830381865afa15801561441d573d5f5f3e3d5ffd5b505050506040513d601f19601f8201168201806040525081019061444191906158b7565b614449565b60125b9050600660ff821610806144605750601260ff8216115b1561449b576040517fdcab82e200000000000000000000000000000000000000000000000000000000815261272c60048201526024016102fc565b5050565b5f61ffff826040015111156144e4576040517fdcab82e200000000000000000000000000000000000000000000000000000000815261271c60048201526024016102fc565b61ffff82606001511115614528576040517fdcab82e200000000000000000000000000000000000000000000000000000000815261271d60048201526024016102fc565b61ffff8260800151111561456c576040517fdcab82e200000000000000000000000000000000000000000000000000000000815261271e60048201526024016102fc565b602082015115806145835750612710826020015110155b80614595575081608001518260600151115b156145d0576040517fdcab82e200000000000000000000000000000000000000000000000000000000815261271660048201526024016102fc565b60348260800151901b60248360600151901b60148460200151901b60048560400151901b6001171717179050919050565b5f61ffff82606001511115614646576040517fdcab82e200000000000000000000000000000000000000000000000000000000815261271c60048201526024016102fc565b61ffff8260800151111561468a576040517fdcab82e200000000000000000000000000000000000000000000000000000000815261271f60048201526024016102fc565b61ffff8260a0015111156146ce576040517fdcab82e200000000000000000000000000000000000000000000000000000000815261272060048201526024016102fc565b61ffff8260c001511115614712576040517fdcab82e200000000000000000000000000000000000000000000000000000000815261272160048201526024016102fc565b602082015115806147295750612710826020015110155b8061473c57508160400151826020015110155b8061474d5750612710826040015110155b8061475f57508160c001518260a00151115b1561479a576040517fdcab82e200000000000000000000000000000000000000000000000000000000815261271660048201526024016102fc565b60548260c00151901b60448360a00151901b60348460400151901b60248560800151901b60148660200151901b60048760600151901b60021717171717179050919050565b5f5f5f6147eb85613d78565b915091505f6147fa87846149df565b905080156148365761480c8783614a32565b6148169086615371565b9350808411614825575f61482f565b61482f81856152dc565b935061483a565b8493505b5050509392505050565b5f5f5f5f5f8587614e20f190508061488d576040517fdee51a8a0000000000000000000000000000000000000000000000000000000081526201155a60048201526024016102fc565b505050565b5f6040517fa9059cbb00000000000000000000000000000000000000000000000000000000815273ffffffffffffffffffffffffffffffffffffffff8416600482015282602482015260205f6044835f895af13d15601f3d1160015f511416171691505080614932576040517fdee51a8a0000000000000000000000000000000000000000000000000000000081526201155a60048201526024016102fc565b50505050565b5f600f83166001819003614957576149508484614a6c565b91506149a0565b80600203614969576149508484614b47565b6040517fd50d75120000000000000000000000000000000000000000000000000000000081526201117260048201526024016102fc565b61ffff8211156149d85760405161ffff92507fe41708b2641eb1f7442f6a1e760ae5098fd7ba9f85e0c101513add0fbb27bcd7905f90a15b5092915050565b66ffffffffffffff604883901c811660ff604085901c81169190911b91600885901c169084161b64e8d4a51000614a1684836152f5565b614a209190615339565b614a2a9083615371565b949350505050565b60c882901c60ff60c084901c81169190911b9066ffffffffffffff608885901c16608085901c9091161b64e8d4a51000614a1684836152f5565b5f80808080601487901c61ffff1680871015614aa35761ffff600489901c16945061ffff602489901c1693505f9250809150614ac2565b61ffff602489901c16945061ffff603489901c16935080925061271091505b5f5f84840364e8d4a510008888030281614ade57614ade61530c565b0585810264e8d4a5100089020392508902820190505f811215614b32576040517fd50d75120000000000000000000000000000000000000000000000000000000081526201117360048201526024016102fc565b64e8d4a5100090049998505050505050505050565b5f80808080601487901c61ffff1680871015614b7e5761ffff600489901c16945061ffff602489901c1693505f9250809150614ac2565b603488901c61ffff1680881015614bb05761ffff60248a901c16955061ffff60448a901c169450819350809250614bcf565b61ffff60448a901c16955061ffff60548a901c16945080935061271092505b505f5f84840364e8d4a510008888030281614ade57614ade61530c565b7f4e487b71000000000000000000000000000000000000000000000000000000005f52604160045260245ffd5b60405160e0810167ffffffffffffffff81118282101715614c3c57614c3c614bec565b60405290565b60405160c0810167ffffffffffffffff81118282101715614c3c57614c3c614bec565b604051601f82017fffffffffffffffffffffffffffffffffffffffffffffffffffffffffffffffe016810167ffffffffffffffff81118282101715614cac57614cac614bec565b604052919050565b5f67ffffffffffffffff821115614ccd57614ccd614bec565b5060051b60200190565b803573ffffffffffffffffffffffffffffffffffffffff81168114614cfa575f5ffd5b919050565b60ff81168114613a85575f5ffd5b5f60208284031215614d1d575f5ffd5b813567ffffffffffffffff811115614d33575f5ffd5b8201601f81018413614d43575f5ffd5b8035614d56614d5182614cb4565b614c65565b80828252602082019150602060e08402850101925086831115614d77575f5ffd5b6020840193505b82841015614e075760e08488031215614d95575f5ffd5b614d9d614c19565b614da685614cd7565b8152614db460208601614cd7565b60208201526040850135614dc781614cff565b6040820152606085810135908201526080808601359082015260a0808601359082015260c08086013590820152825260e090930192602090910190614d7e565b9695505050505050565b5f60208284031215614e21575f5ffd5b813567ffffffffffffffff811115614e37575f5ffd5b8201601f81018413614e47575f5ffd5b8035614e55614d5182614cb4565b80828252602082019150602060c08402850101925086831115614e76575f5ffd5b6020840193505b82841015614e075760c08488031215614e94575f5ffd5b614e9c614c42565b614ea585614cd7565b8152614eb360208601614cd7565b60208201526040850135614ec681614cff565b6040820152606085810135908201526080808601359082015260a08086013590820152825260c090930192602090910190614e7d565b5f5f83601f840112614f0c575f5ffd5b50813567ffffffffffffffff811115614f23575f5ffd5b6020830191508360208260061b8501011115614f3d575f5ffd5b9250929050565b5f5f60208385031215614f55575f5ffd5b823567ffffffffffffffff811115614f6b575f5ffd5b614f7785828601614efc565b90969095509350505050565b5f5f60208385031215614f94575f5ffd5b823567ffffffffffffffff811115614faa575f5ffd5b8301601f81018513614fba575f5ffd5b803567ffffffffffffffff811115614fd0575f5ffd5b85602060a083028401011115614fe4575f5ffd5b6020919091019590945092505050565b5f60208284031215615004575f5ffd5b61500d82614cd7565b9392505050565b5f5f60208385031215615025575f5ffd5b823567ffffffffffffffff81111561503b575f5ffd5b8301601f8101851361504b575f5ffd5b803567ffffffffffffffff811115615061575f5ffd5b8560208260071b8401011115614fe4575f5ffd5b5f5f5f60608486031215615087575f5ffd5b61509084614cd7565b925061509e60208501614cd7565b929592945050506040919091013590565b5f5f602083850312156150c0575f5ffd5b823567ffffffffffffffff8111156150d6575f5ffd5b8301601f810185136150e6575f5ffd5b803567ffffffffffffffff8111156150fc575f5ffd5b85602060e083028401011115614fe4575f5ffd5b5f5f83601f840112615120575f5ffd5b50813567ffffffffffffffff811115615137575f5ffd5b6020830191508360208260051b8501011115614f3d575f5ffd5b5f5f60208385031215615162575f5ffd5b823567ffffffffffffffff811115615178575f5ffd5b614f7785828601615110565b5f5f5f5f5f60608688031215615198575f5ffd5b6151a186614cd7565b9450602086013567ffffffffffffffff8111156151bc575f5ffd5b6151c888828901615110565b909550935050604086013567ffffffffffffffff8111156151e7575f5ffd5b6151f388828901615110565b969995985093965092949392505050565b5f60208284031215615214575f5ffd5b5035919050565b5f8151808452602084019350602083015f5b8281101561524b57815186526020958601959091019060010161522d565b5093949350505050565b604081525f615267604083018561521b565b8281036020840152615279818561521b565b95945050505050565b7f4e487b71000000000000000000000000000000000000000000000000000000005f52603260045260245ffd5b7f4e487b71000000000000000000000000000000000000000000000000000000005f52601160045260245ffd5b818103818111156152ef576152ef6152af565b92915050565b80820281158282048414176152ef576152ef6152af565b7f4e487b71000000000000000000000000000000000000000000000000000000005f52601260045260245ffd5b5f8261536c577f4e487b71000000000000000000000000000000000000000000000000000000005f52601260045260245ffd5b500490565b808201808211156152ef576152ef6152af565b602080825282518282018190525f918401906040840190835b8181101561542e57835173ffffffffffffffffffffffffffffffffffffffff815116845273ffffffffffffffffffffffffffffffffffffffff602082015116602085015260ff6040820151166040850152606081015160608501526080810151608085015260a081015160a085015260c081015160c08501525060e08301925060208401935060018101905061539d565b509095945050505050565b602080825282518282018190525f918401906040840190835b8181101561542e57835173ffffffffffffffffffffffffffffffffffffffff815116845273ffffffffffffffffffffffffffffffffffffffff602082015116602085015260ff6040820151166040850152606081015160608501526080810151608085015260a081015160a08501525060c083019250602084019350600181019050615452565b80358015158114614cfa575f5ffd5b5f602082840312156154f8575f5ffd5b61500d826154d9565b602080825281018290525f8360408301825b858110156155615773ffffffffffffffffffffffffffffffffffffffff61553984614cd7565b168252615548602084016154d9565b1515602083015260409283019290910190600101615513565b5095945050505050565b5f60a082840312801561557c575f5ffd5b5060405160a0810167ffffffffffffffff811182821017156155a0576155a0614bec565b6040526155ac83614cd7565b81526020838101359082015260408084013590820152606080840135908201526080928301359281019290925250919050565b602080825281018290525f8360408301825b858110156155615773ffffffffffffffffffffffffffffffffffffffff61561784614cd7565b1682526020838101359083015260408084013590830152606080840135908301526080808401359083015260a092830192909101906001016155f1565b602080825281018290525f8360408301825b858110156155615773ffffffffffffffffffffffffffffffffffffffff61568c84614cd7565b16825260208381013590830152604080840135908301526060808401359083015260809283019290910190600101615666565b5f60e08284031280156156d0575f5ffd5b506156d9614c19565b6156e283614cd7565b81526020838101359082015260408084013590820152606080840135908201526080808401359082015260a0808401359082015260c0928301359281019290925250919050565b602080825281018290525f8360408301825b858110156155615773ffffffffffffffffffffffffffffffffffffffff61576184614cd7565b1682526020838101359083015260408084013590830152606080840135908301526080808401359083015260a0808401359083015260c0808401359083015260e0928301929091019060010161573b565b5f602082840312156157c2575f5ffd5b5051919050565b602080825281018290525f8360408301825b858110156155615773ffffffffffffffffffffffffffffffffffffffff61580184614cd7565b16825260208381013590830152604092830192909101906001016157db565b8183526020830192505f815f5b8481101561524b5773ffffffffffffffffffffffffffffffffffffffff61585383614cd7565b168652602095860195919091019060010161582d565b73ffffffffffffffffffffffffffffffffffffffff86168152606060208201525f615898606083018688615820565b82810360408401526158ab818587615820565b98975050505050505050565b5f602082840312156158c7575f5ffd5b815161500d81614cff56fea264697066735822122077c7bc328dfbbcc54cba5d3db6d7b7e5a39af4d41757870a70f73379b5e64f2f64736f6c634300081d0033",
  "devdoc": {
    "kind": "dev",
    "methods": {
      "changeStatus(uint256)": {
        "params": {
          "newStatus_": "new status        status = 2 -> pause, status = 1 -> resume."
        }
      },
      "collectRevenue(address[])": {
        "details": "Note that this can revert if token balance is < revenueAmount (utilization > 100%)",
        "params": {
          "tokens_": "array of tokens to collect revenue for"
        }
      },
      "pauseUser(address,address[],address[])": {
        "params": {
          "borrowTokens_": "token addresses to pause borrowings for",
          "supplyTokens_": "token addresses to pause withdrawals for",
          "user_": "address of user to pause operations for"
        }
      },
      "unpauseUser(address,address[],address[])": {
        "params": {
          "borrowTokens_": "token addresses to unpause borrowings for",
          "supplyTokens_": "token addresses to unpause withdrawals for",
          "user_": "address of user to unpause operations for"
        }
      },
      "updateAuths((address,bool)[])": {
        "params": {
          "authsStatus_": "array of structs setting allowed status for an address.                     status true => add auth, false => remove auth"
        }
      },
      "updateExchangePrices(address[])": {
        "params": {
          "tokens_": "tokens to update exchange prices for"
        },
        "returns": {
          "borrowExchangePrices_": "new borrow rates of overall system for each token",
          "supplyExchangePrices_": "new supply rates of overall system for each token"
        }
      },
      "updateGuardians((address,bool)[])": {
        "params": {
          "guardiansStatus_": "array of structs setting allowed status for an address.                         status true => add guardian, false => remove guardian"
        }
      },
      "updateRateDataV1s((address,uint256,uint256,uint256,uint256)[])": {
        "params": {
          "tokensRateData_": "array of RateDataV1Params with rate data to set for each token"
        }
      },
      "updateRateDataV2s((address,uint256,uint256,uint256,uint256,uint256,uint256)[])": {
        "params": {
          "tokensRateData_": "array of RateDataV2Params with rate data to set for each token"
        }
      },
      "updateRevenueCollector(address)": {
        "params": {
          "revenueCollector_": "new revenue collector address"
        }
      },
      "updateTokenConfigs((address,uint256,uint256,uint256)[])": {
        "params": {
          "tokenConfigs_": "contains token address, fee & utilization threshold"
        }
      },
      "updateUserBorrowConfigs((address,address,uint8,uint256,uint256,uint256,uint256)[])": {
        "params": {
          "userBorrowConfigs_": "struct array containing user borrow config, see `UserBorrowConfig` struct for more info"
        }
      },
      "updateUserClasses((address,uint256)[])": {
        "params": {
          "userClasses_": "struct array of uint256 value to assign for each user address"
        }
      },
      "updateUserSupplyConfigs((address,address,uint8,uint256,uint256,uint256)[])": {
        "params": {
          "userSupplyConfigs_": "struct array containing user supply config, see `UserSupplyConfig` struct for more info"
        }
      },
      "updateUserWithdrawalLimit(address,address,uint256)": {
        "params": {
          "newLimit_": "new limit until which user supply can decrease to.                  Important: input in raw. Must account for exchange price in input param calculation.                  Note any limit that is < max expansion or > current user supply will set max expansion limit or                  current user supply as limit respectively.                  - set 0 to make maximum possible withdrawable: instant full expansion, and if that goes                  below base limit then fully down to 0.                  - set type(uint256).max to make current withdrawable 0 (sets current user supply as limit).",
          "token_": "token address for which to update the withdrawal limit",
          "user_": "user address for which to update the withdrawal limit"
        }
      }
    },
    "title": "Fluid Liquidity AdminModule",
    "version": 1
  },
  "userdoc": {
    "events": {
      "BorrowRateMaxCap()": {
        "notice": "emitted if the calculated borrow rate surpassed max borrow rate (16 bits) and was capped at maximum value 65535"
      },
      "LogChangeStatus(uint256)": {
        "notice": "emitted when status is changed (paused / unpaused)"
      },
      "LogCollectRevenue(address,uint256)": {
        "notice": "emitted when revenue is collected"
      },
      "LogPauseUser(address,address[],address[])": {
        "notice": "emitted when a user gets certain tokens paused"
      },
      "LogUnpauseUser(address,address[],address[])": {
        "notice": "emitted when a user gets certain tokens unpaused"
      },
      "LogUpdateAuths((address,bool)[])": {
        "notice": "emitted when allowed auths are updated"
      },
      "LogUpdateExchangePrices(address,uint256,uint256,uint256,uint256)": {
        "notice": "emitted when exchange prices and borrow rate are updated"
      },
      "LogUpdateGuardians((address,bool)[])": {
        "notice": "emitted when allowed guardians are updated"
      },
      "LogUpdateRateDataV1s((address,uint256,uint256,uint256,uint256)[])": {
        "notice": "emitted when token rate data is updated with rate data v1"
      },
      "LogUpdateRateDataV2s((address,uint256,uint256,uint256,uint256,uint256,uint256)[])": {
        "notice": "emitted when token rate data is updated with rate data v2"
      },
      "LogUpdateRevenueCollector(address)": {
        "notice": "emitted when revenue collector address is updated"
      },
      "LogUpdateTokenConfigs((address,uint256,uint256,uint256)[])": {
        "notice": "emitted when token configs are updated"
      },
      "LogUpdateUserBorrowConfigs((address,address,uint8,uint256,uint256,uint256,uint256)[])": {
        "notice": "emitted when user borrow configs are updated"
      },
      "LogUpdateUserClasses((address,uint256)[])": {
        "notice": "emitted when user classes are updated"
      },
      "LogUpdateUserSupplyConfigs((address,address,uint8,uint256,uint256,uint256)[])": {
        "notice": "emitted when user supply configs are updated"
      },
      "LogUpdateUserWithdrawalLimit(address,address,uint256)": {
        "notice": "emitted when user withdrawal limit is updated"
      }
    },
    "kind": "user",
    "methods": {
      "changeStatus(uint256)": {
        "notice": "changes current status, e.g. for pausing or unpausing all user operations. Only callable by Auths."
      },
      "collectRevenue(address[])": {
        "notice": "collects revenue for tokens to configured revenueCollector address."
      },
      "pauseUser(address,address[],address[])": {
        "notice": "pause operations for a particular user in class 0 (class 1 users can't be paused by guardians). Only callable by Guardians."
      },
      "unpauseUser(address,address[],address[])": {
        "notice": "unpause operations for a particular user in class 0 (class 1 users can't be paused by guardians). Only callable by Guardians."
      },
      "updateAuths((address,bool)[])": {
        "notice": "adds/removes auths. Auths generally could be contracts which can have restricted actions defined on contract.         auths can be helpful in reducing governance overhead where it's not needed."
      },
      "updateExchangePrices(address[])": {
        "notice": "gets the current updated exchange prices for n tokens and updates all prices, rates related data in storage."
      },
      "updateGuardians((address,bool)[])": {
        "notice": "adds/removes guardians. Only callable by Governance."
      },
      "updateRateDataV1s((address,uint256,uint256,uint256,uint256)[])": {
        "notice": "update tokens rate data version 1. Only callable by Auths."
      },
      "updateRateDataV2s((address,uint256,uint256,uint256,uint256,uint256,uint256)[])": {
        "notice": "update tokens rate data version 2. Only callable by Auths."
      },
      "updateRevenueCollector(address)": {
        "notice": "changes the revenue collector address (contract that is sent revenue). Only callable by Governance."
      },
      "updateTokenConfigs((address,uint256,uint256,uint256)[])": {
        "notice": "updates token configs: fee charge on borrowers interest & storage update utilization threshold.         Only callable by Auths."
      },
      "updateUserBorrowConfigs((address,address,uint8,uint256,uint256,uint256,uint256)[])": {
        "notice": "setting user borrow configs per token basis. Eg: with interest or interest-free and automated limits.         Only callable by Auths."
      },
      "updateUserClasses((address,uint256)[])": {
        "notice": "updates user classes: 0 is for new protocols, 1 is for established protocols.         Only callable by Auths."
      },
      "updateUserSupplyConfigs((address,address,uint8,uint256,uint256,uint256)[])": {
        "notice": "sets user supply configs per token basis. Eg: with interest or interest-free and automated limits.         Only callable by Auths."
      },
      "updateUserWithdrawalLimit(address,address,uint256)": {
        "notice": "sets a new withdrawal limit as the current limit for a certain user"
      }
    },
    "notice": "Fluid Liquidity auth protected methods to configure things such as: guardians, auths, governance, revenue, token configs, allowances etc. Accessibility of methods is restricted to Governance, Auths or Guardians. Governance is Auth & Governance by default",
    "version": 1
  },
  "storageLayout": {
    "storage": [
      {
        "astId": 5922,
        "contract": "contracts/liquidity/adminModule/main.sol:FluidLiquidityAdminModule",
        "label": "_revenueCollector",
        "offset": 0,
        "slot": "0",
        "type": "t_address"
      },
      {
        "astId": 5925,
        "contract": "contracts/liquidity/adminModule/main.sol:FluidLiquidityAdminModule",
        "label": "_status",
        "offset": 0,
        "slot": "1",
        "type": "t_uint256"
      },
      {
        "astId": 5930,
        "contract": "contracts/liquidity/adminModule/main.sol:FluidLiquidityAdminModule",
        "label": "_isAuth",
        "offset": 0,
        "slot": "2",
        "type": "t_mapping(t_address,t_uint256)"
      },
      {
        "astId": 5935,
        "contract": "contracts/liquidity/adminModule/main.sol:FluidLiquidityAdminModule",
        "label": "_isGuardian",
        "offset": 0,
        "slot": "3",
        "type": "t_mapping(t_address,t_uint256)"
      },
      {
        "astId": 5940,
        "contract": "contracts/liquidity/adminModule/main.sol:FluidLiquidityAdminModule",
        "label": "_userClass",
        "offset": 0,
        "slot": "4",
        "type": "t_mapping(t_address,t_uint256)"
      },
      {
        "astId": 5945,
        "contract": "contracts/liquidity/adminModule/main.sol:FluidLiquidityAdminModule",
        "label": "_exchangePricesAndConfig",
        "offset": 0,
        "slot": "5",
        "type": "t_mapping(t_address,t_uint256)"
      },
      {
        "astId": 5950,
        "contract": "contracts/liquidity/adminModule/main.sol:FluidLiquidityAdminModule",
        "label": "_rateData",
        "offset": 0,
        "slot": "6",
        "type": "t_mapping(t_address,t_uint256)"
      },
      {
        "astId": 5955,
        "contract": "contracts/liquidity/adminModule/main.sol:FluidLiquidityAdminModule",
        "label": "_totalAmounts",
        "offset": 0,
        "slot": "7",
        "type": "t_mapping(t_address,t_uint256)"
      },
      {
        "astId": 5962,
        "contract": "contracts/liquidity/adminModule/main.sol:FluidLiquidityAdminModule",
        "label": "_userSupplyData",
        "offset": 0,
        "slot": "8",
        "type": "t_mapping(t_address,t_mapping(t_address,t_uint256))"
      },
      {
        "astId": 5969,
        "contract": "contracts/liquidity/adminModule/main.sol:FluidLiquidityAdminModule",
        "label": "_userBorrowData",
        "offset": 0,
        "slot": "9",
        "type": "t_mapping(t_address,t_mapping(t_address,t_uint256))"
      },
      {
        "astId": 5973,
        "contract": "contracts/liquidity/adminModule/main.sol:FluidLiquidityAdminModule",
        "label": "_listedTokens",
        "offset": 0,
        "slot": "10",
        "type": "t_array(t_address)dyn_storage"
      },
      {
        "astId": 5978,
        "contract": "contracts/liquidity/adminModule/main.sol:FluidLiquidityAdminModule",
        "label": "_configs2",
        "offset": 0,
        "slot": "11",
        "type": "t_mapping(t_address,t_uint256)"
      }
    ],
    "types": {
      "t_address": {
        "encoding": "inplace",
        "label": "address",
        "numberOfBytes": "20"
      },
      "t_array(t_address)dyn_storage": {
        "base": "t_address",
        "encoding": "dynamic_array",
        "label": "address[]",
        "numberOfBytes": "32"
      },
      "t_mapping(t_address,t_mapping(t_address,t_uint256))": {
        "encoding": "mapping",
        "key": "t_address",
        "label": "mapping(address => mapping(address => uint256))",
        "numberOfBytes": "32",
        "value": "t_mapping(t_address,t_uint256)"
      },
      "t_mapping(t_address,t_uint256)": {
        "encoding": "mapping",
        "key": "t_address",
        "label": "mapping(address => uint256)",
        "numberOfBytes": "32",
        "value": "t_uint256"
      },
      "t_uint256": {
        "encoding": "inplace",
        "label": "uint256",
        "numberOfBytes": "32"
      }
    }
  }
}