{
  "address": "0x01419414076DaAc2546f28A20040cc3432d08210",
  "abi": [
    {
      "inputs": [
        {
          "components": [
            {
              "internalType": "string",
              "name": "infoName",
              "type": "string"
            },
            {
              "internalType": "uint8",
              "name": "targetDecimals",
              "type": "uint8"
            },
            {
              "internalType": "address",
              "name": "dexPool",
              "type": "address"
            },
            {
              "internalType": "bool",
              "name": "quoteInToken0",
              "type": "bool"
            },
            {
              "internalType": "contract IFluidOracle",
              "name": "colDebtOracle",
              "type": "address"
            },
            {
              "internalType": "bool",
              "name": "colDebtInvert",
              "type": "bool"
            },
            {
              "internalType": "uint256",
              "name": "pegBufferPercent",
              "type": "uint256"
            },
            {
              "components": [
                {
                  "internalType": "address",
                  "name": "reservesConversionOracle",
                  "type": "address"
                },
                {
                  "internalType": "bool",
                  "name": "reservesConversionInvert",
                  "type": "bool"
                },
                {
                  "internalType": "uint256",
                  "name": "reservesConversionPriceMultiplier",
                  "type": "uint256"
                },
                {
                  "internalType": "uint256",
                  "name": "reservesConversionPriceDivisor",
                  "type": "uint256"
                }
              ],
              "internalType": "struct DexConversionPriceFluidOracle.DexConversionPriceFluidOracleParams",
              "name": "reservesConversionParams",
              "type": "tuple"
            },
            {
              "internalType": "uint256",
              "name": "resultMultiplier",
              "type": "uint256"
            },
            {
              "internalType": "uint256",
              "name": "resultDivisor",
              "type": "uint256"
            }
          ],
          "internalType": "struct DexSmartDebtPegOracle.DexSmartDebtPegOracleParams",
          "name": "params_",
          "type": "tuple"
        },
        {
          "internalType": "address",
          "name": "sequencerUptimeFeed_",
          "type": "address"
        }
      ],
      "stateMutability": "nonpayable",
      "type": "constructor"
    },
    {
      "inputs": [
        {
          "internalType": "uint256",
          "name": "errorId_",
          "type": "uint256"
        }
      ],
      "name": "FluidLiquidityCalcsError",
      "type": "error"
    },
    {
      "inputs": [
        {
          "internalType": "uint256",
          "name": "errorId_",
          "type": "uint256"
        }
      ],
      "name": "FluidOracleError",
      "type": "error"
    },
    {
      "inputs": [],
      "name": "RESERVES_PEG_BUFFER_PERCENT",
      "outputs": [
        {
          "internalType": "uint256",
          "name": "",
          "type": "uint256"
        }
      ],
      "stateMutability": "view",
      "type": "function"
    },
    {
      "inputs": [],
      "name": "dexOracleData",
      "outputs": [
        {
          "internalType": "address",
          "name": "dexPool_",
          "type": "address"
        },
        {
          "internalType": "bool",
          "name": "quoteInToken0_",
          "type": "bool"
        },
        {
          "internalType": "address",
          "name": "liquidity_",
          "type": "address"
        },
        {
          "internalType": "uint256",
          "name": "resultMultiplier_",
          "type": "uint256"
        },
        {
          "internalType": "uint256",
          "name": "resultDivisor_",
          "type": "uint256"
        }
      ],
      "stateMutability": "view",
      "type": "function"
    },
    {
      "inputs": [],
      "name": "dexSmartDebtSharesRates",
      "outputs": [
        {
          "internalType": "uint256",
          "name": "operate_",
          "type": "uint256"
        },
        {
          "internalType": "uint256",
          "name": "liquidate_",
          "type": "uint256"
        }
      ],
      "stateMutability": "view",
      "type": "function"
    },
    {
      "inputs": [],
      "name": "getDexColDebtOracleData",
      "outputs": [
        {
          "internalType": "address",
          "name": "colDebtOracle_",
          "type": "address"
        },
        {
          "internalType": "bool",
          "name": "colDebtInvert_",
          "type": "bool"
        }
      ],
      "stateMutability": "view",
      "type": "function"
    },
    {
      "inputs": [],
      "name": "getDexConversionPriceFluidOracleData",
      "outputs": [
        {
          "internalType": "address",
          "name": "reservesConversionOracle_",
          "type": "address"
        },
        {
          "internalType": "bool",
          "name": "reservesConversionInvert_",
          "type": "bool"
        },
        {
          "internalType": "uint256",
          "name": "reservesConversionPriceMultiplier_",
          "type": "uint256"
        },
        {
          "internalType": "uint256",
          "name": "reservesConversionPriceDivisor_",
          "type": "uint256"
        }
      ],
      "stateMutability": "view",
      "type": "function"
    },
    {
      "inputs": [],
      "name": "getExchangeRate",
      "outputs": [
        {
          "internalType": "uint256",
          "name": "exchangeRate_",
          "type": "uint256"
        }
      ],
      "stateMutability": "view",
      "type": "function"
    },
    {
      "inputs": [],
      "name": "getExchangeRateLiquidate",
      "outputs": [
        {
          "internalType": "uint256",
          "name": "exchangeRate_",
          "type": "uint256"
        }
      ],
      "stateMutability": "view",
      "type": "function"
    },
    {
      "inputs": [],
      "name": "getExchangeRateOperate",
      "outputs": [
        {
          "internalType": "uint256",
          "name": "exchangeRate_",
          "type": "uint256"
        }
      ],
      "stateMutability": "view",
      "type": "function"
    },
    {
      "inputs": [],
      "name": "infoName",
      "outputs": [
        {
          "internalType": "string",
          "name": "",
          "type": "string"
        }
      ],
      "stateMutability": "view",
      "type": "function"
    },
    {
      "inputs": [],
      "name": "sequencerL2Data",
      "outputs": [
        {
          "internalType": "address",
          "name": "sequencerUptimeFeed_",
          "type": "address"
        },
        {
          "internalType": "uint256",
          "name": "maxGracePeriod_",
          "type": "uint256"
        },
        {
          "internalType": "bool",
          "name": "isSequencerUp_",
          "type": "bool"
        },
        {
          "internalType": "uint256",
          "name": "lastUptimeStartedAt_",
          "type": "uint256"
        },
        {
          "internalType": "uint256",
          "name": "gracePeriod_",
          "type": "uint256"
        },
        {
          "internalType": "bool",
          "name": "gracePeriodPassed_",
          "type": "bool"
        },
        {
          "internalType": "uint256",
          "name": "lastOutageStartedAt_",
          "type": "uint256"
        },
        {
          "internalType": "bool",
          "name": "isSequencerUpAndValid_",
          "type": "bool"
        }
      ],
      "stateMutability": "view",
      "type": "function"
    },
    {
      "inputs": [],
      "name": "targetDecimals",
      "outputs": [
        {
          "internalType": "uint8",
          "name": "",
          "type": "uint8"
        }
      ],
      "stateMutability": "view",
      "type": "function"
    }
  ],
  "transactionHash": "0xcc5b332ceef37c74e6372977f6572b7dcff08c00822da1ac617a9c0126c23609",
  "args": [
    [
      {
        "dexPool": "0x3C0441B42195F4aD6aa9a0978E06096ea616CDa7",
        "quoteInToken0": false,
        "infoName": "USDC/USDT debtSh. per 1 SUSDE",
        "targetDecimals": 27,
        "pegBufferPercent": 1000,
        "reservesConversionParams": {
          "reservesConversionOracle": "0x0000000000000000000000000000000000000000",
          "reservesConversionInvert": false,
          "reservesConversionPriceMultiplier": 1,
          "reservesConversionPriceDivisor": 1
        },
        "resultMultiplier": 1,
        "resultDivisor": 1,
        "colDebtOracle": "0x4025254661A2e8DCE7F86836aaeEEA72277968D4",
        "colDebtInvert": false
      },
      "0xFdB631F5EE196F0ed6FAa767959853A9F217697D"
    ]
  ],
  "numDeployments": 1,
  "linkedData": {
    "nonce": "88"
  },
  "bytecode": "0x6103a06040523480156200001257600080fd5b5060405162002675380380620026758339810160408190526200003591620005d5565b81806040015181606001518260c0015182828560e0015186608001518760a0015184848a600001518b602001518d8d61010001518e6101200151816000146200007f578162000082565b60015b608052801562000093578062000096565b60015b60a05250506001600160a01b031660c052815160201080620000b757508151155b15620000df5760405163c82fc46560e01b815261ea6a60048201526024015b60405180910390fd5b600f8160ff161080620000f5575060278160ff16115b15620001195760405163c82fc46560e01b815261ebf16004820152602401620000d6565b60ff16610100526020015160e0526001600160a01b038216620001545760405163c82fc46560e01b815261ebdd6004820152602401620000d6565b6001600160a01b0382166101208190528115156101405260408051635bbc8df960e11b815290516000929163b7791bf2916004808301926102409291908290030181865afa158015620001ab573d6000803e3d6000fd5b505050506040513d601f19601f82011682018060405250810190620001d191906200079d565b610160808201516101e052610180808301516102005260e0830151909152610120808301519091526101008201516101a0526101408201516101c0525160408051631595cbd360e01b815290519293506000926001600160a01b0390921691631595cbd3916004808201926080929091908290030181865afa1580156200025c573d6000803e3d6000fd5b505050506040513d601f19601f8201168201806040525081019062000282919062000893565b80516102205260208101516102405260408101516102605260600151610280525050610140519150620002f09050576102605161028051620002ca9064e8d4a51000620008dc565b620002d6919062000908565b620002ea90670de0b6b3a764000062000908565b62000329565b6102205161024051620003099064e8d4a51000620008dc565b62000315919062000908565b6200032990670de0b6b3a764000062000908565b6102a0526001600160a01b039091166102c05215156102e052604081015115806200035657506060810151155b156200037a5760405163c82fc46560e01b815261ebdd6004820152602401620000d6565b80516001600160a01b0316610300526020810151151561032052604081015161034052606001516103605250506000819003620003cf5760405163c82fc46560e01b815261ebdd6004820152602401620000d6565b61038052506200092b9350505050565b634e487b7160e01b600052604160045260246000fd5b604051608081016001600160401b03811182821017156200041a576200041a620003df565b60405290565b60405161014081016001600160401b03811182821017156200041a576200041a620003df565b6040516101c081016001600160401b03811182821017156200041a576200041a620003df565b604051601f8201601f191681016001600160401b0381118282101715620004975762000497620003df565b604052919050565b600082601f830112620004b157600080fd5b81516001600160401b03811115620004cd57620004cd620003df565b6020620004e3601f8301601f191682016200046c565b8281528582848701011115620004f857600080fd5b60005b8381101562000518578581018301518282018401528201620004fb565b506000928101909101919091529392505050565b805160ff811681146200053e57600080fd5b919050565b6001600160a01b03811681146200055957600080fd5b50565b80516200053e8162000543565b805180151581146200053e57600080fd5b6000608082840312156200058d57600080fd5b62000597620003f5565b90508151620005a68162000543565b8152620005b66020830162000569565b6020820152604082015160408201526060820151606082015292915050565b60008060408385031215620005e957600080fd5b82516001600160401b03808211156200060157600080fd5b908401906101a082870312156200061757600080fd5b6200062162000420565b8251828111156200063157600080fd5b6200063f888286016200049f565b82525062000650602084016200052c565b602082015262000663604084016200055c565b6040820152620006766060840162000569565b606082015262000689608084016200055c565b60808201526200069c60a0840162000569565b60a082015260c083015160c0820152620006ba8760e085016200057a565b60e082015261016083015161010082015261018090920151610120830152509150620006e9602084016200055c565b90509250929050565b600060a082840312156200070557600080fd5b60405160a081016001600160401b03811182821017156200072a576200072a620003df565b806040525080915082516200073f8162000543565b81526020830151620007518162000543565b60208201526040830151620007668162000543565b604082015260608301516200077b8162000543565b60608201526080830151620007908162000543565b6080919091015292915050565b60006102408284031215620007b157600080fd5b620007bb62000446565b82518152620007cd602084016200055c565b6020820152620007e0604084016200055c565b6040820152620007f48460608501620006f2565b6060820152610100620008098185016200055c565b60808301526101206200081e8186016200055c565b60a0840152610140620008338187016200055c565b60c08501526101608087015160e086015261018080880151858701526101a0945084880151848701526101c0880151838701526101e088015182870152610200880151818701525050505061022084015181830152508091505092915050565b600060808284031215620008a657600080fd5b620008b0620003f5565b825181526020830151602082015260408301516040820152606083015160608201528091505092915050565b80820281158282048414176200090257634e487b7160e01b600052601160045260246000fd5b92915050565b6000826200092657634e487b7160e01b600052601260045260246000fd5b500490565b60805160a05160c05160e05161010051610120516101405161016051610180516101a0516101c0516101e05161020051610220516102405161026051610280516102a0516102c0516102e0516103005161032051610340516103605161038051611b5862000b1d6000396000818161029901528181610859015261089d0152600081816101330152818161092c0152610c160152600081816101120152818161094d0152610c3701526000818160f10152610a1301526000818160d0015281816108e00152818161096e01528181610bca0152610c580152600081816103b6015261115501526000818161039201528181611078015281816110c40152818161139901526113e501526000610b7501526000818161135e01526115b701526000818161133a01526115d80152600081816112d5015261160e0152600081816112b1015261162f01526000611211015260006111c3015260006111f0015260006111a201526000505060005050600081816101fe015261123b0152600081816101da0152610aa00152600061019501526000818161044b01526105100152600081816105e10152818161068f01528181610ccc01528181610da40152610f13015260008181610268015281816107c0015261101a015260008181610242015281816107f3015261104d0152611b586000f3fe608060405234801561001057600080fd5b50600436106100c95760003560e01c806396aa229c11610081578063e6aa216c1161005b578063e6aa216c14610367578063f3190c891461036f578063fa9a98e61461037757600080fd5b806396aa229c146102d1578063abd5f95d146102ee578063dc4595121461030357600080fd5b8063585eebbf116100b2578063585eebbf146101bf57806364bba885146102945780638e7bfbc0146102c957600080fd5b806304741a5a146100ce57806336c1387e1461018e575b600080fd5b7f00000000000000000000000000000000000000000000000000000000000000007f00000000000000000000000000000000000000000000000000000000000000007f00000000000000000000000000000000000000000000000000000000000000007f00000000000000000000000000000000000000000000000000000000000000006040805173ffffffffffffffffffffffffffffffffffffffff909516855292151560208501529183015260608201526080015b60405180910390f35b60405160ff7f0000000000000000000000000000000000000000000000000000000000000000168152602001610185565b6040805173ffffffffffffffffffffffffffffffffffffffff7f00000000000000000000000000000000000000000000000000000000000000001681527f0000000000000000000000000000000000000000000000000000000000000000151560208201527352aa899454998be5b000ad077a46bbe360f4e497918101919091527f000000000000000000000000000000000000000000000000000000000000000060608201527f0000000000000000000000000000000000000000000000000000000000000000608082015260a001610185565b6102bb7f000000000000000000000000000000000000000000000000000000000000000081565b604051908152602001610185565b6102bb6103e2565b6102d96103f9565b60408051928352602083019190915201610185565b6102f6610439565b6040516101859190611876565b61030b61059e565b6040805173ffffffffffffffffffffffffffffffffffffffff909916895260208901979097529415159587019590955260608601929092526080850152151560a084015260c0830191909152151560e082015261010001610185565b6102bb6106db565b6102bb6106e5565b6040805173ffffffffffffffffffffffffffffffffffffffff7f00000000000000000000000000000000000000000000000000000000000000001681527f00000000000000000000000000000000000000000000000000000000000000001515602082015201610185565b60006103ec6106f7565b6103f461079b565b905090565b600080600080610407610840565b9150915061041d6104166108dc565b8383610a5b565b61042f610428610bc6565b8484610a5b565b9350935050509091565b606060005b6020811080156104a457507f0000000000000000000000000000000000000000000000000000000000000000816020811061047b5761047b6118e2565b1a60f81b7fff000000000000000000000000000000000000000000000000000000000000001615155b156104bb57806104b381611940565b91505061043e565b60008167ffffffffffffffff8111156104d6576104d6611978565b6040519080825280601f01601f191660200182016040528015610500576020820181803683370190505b50905060005b82811015610597577f00000000000000000000000000000000000000000000000000000000000000008160208110610540576105406118e2565b1a60f81b828281518110610556576105566118e2565b60200101907effffffffffffffffffffffffffffffffffffffffffffffffffffffffffffff1916908160001a9053508061058f81611940565b915050610506565b5092915050565b60008060008060008060008060006105b4610cc1565b919850909650905086156105d8576105cc8187610e8c565b9196509450925061068d565b610a8c945060007f000000000000000000000000000000000000000000000000000000000000000073ffffffffffffffffffffffffffffffffffffffff1663feaf968c6040518163ffffffff1660e01b815260040160a060405180830381865afa15801561064a573d6000803e3d6000fd5b505050506040513d601f19601f8201168201806040525081019061066e91906119c6565b5050505090506106898160016106849190611a16565b610ef6565b9350505b7f0000000000000000000000000000000000000000000000000000000000000000610a8c88888888888d80156106c057508a5b98509850985098509850985098509850509091929394959697565b60006103f46103e2565b60006106ef6106f7565b6103f4610ff5565b6000806000610704610cc1565b9250925092508261074a576040517fc82fc46500000000000000000000000000000000000000000000000000000000815261ea6060048201526024015b60405180910390fd5b60006107568383610e8c565b5091505080610795576040517fc82fc46500000000000000000000000000000000000000000000000000000000815261ea606004820152602401610741565b50505050565b60008060006107a8610840565b9150915060006107b96104286108dc565b90506107f17f00000000000000000000000000000000000000000000000000000000000000006b033b2e3c9fd0803ce8000000611a39565b7f000000000000000000000000000000000000000000000000000000000000000061081a611074565b6108249084611a39565b61082e9190611a39565b6108389190611a85565b935050505090565b60008061084b61119a565b9092509050620f424061087e7f000000000000000000000000000000000000000000000000000000000000000082611ac0565b6108889084611a39565b6108929190611a85565b9150620f42406108c27f000000000000000000000000000000000000000000000000000000000000000082611ac0565b6108cc9083611a39565b6108d69190611a85565b90509091565b60007f000000000000000000000000000000000000000000000000000000000000000073ffffffffffffffffffffffffffffffffffffffff1661092a57506b033b2e3c9fd0803ce800000090565b7f00000000000000000000000000000000000000000000000000000000000000007f00000000000000000000000000000000000000000000000000000000000000007f000000000000000000000000000000000000000000000000000000000000000073ffffffffffffffffffffffffffffffffffffffff16638e7bfbc06040518163ffffffff1660e01b8152600401602060405180830381865afa1580156109d7573d6000803e3d6000fd5b505050506040513d601f19601f820116820180604052508101906109fb9190611ad3565b610a059190611a39565b610a0f9190611a85565b90507f000000000000000000000000000000000000000000000000000000000000000015610a58576103f481760a70c3c40a64e6c51999090b65f67d9240000000000000611a85565b90565b6040517fb5c736e400000000000000000000000000000000000000000000000000000000815260048082015260009081906fffffffffffffffffffffffffffffffff907f000000000000000000000000000000000000000000000000000000000000000073ffffffffffffffffffffffffffffffffffffffff169063b5c736e490602401602060405180830381865afa158015610afc573d6000803e3d6000fd5b505050506040513d601f19601f82011682018060405250810190610b209190611ad3565b16905080600003610b61576040517fc82fc46500000000000000000000000000000000000000000000000000000000815261ebb66004820152602401610741565b6000610b6e868686611237565b9050610b9a7f000000000000000000000000000000000000000000000000000000000000000082611a39565b610bb0836b033b2e3c9fd0803ce8000000611a39565b610bba9190611a85565b925050505b9392505050565b60007f000000000000000000000000000000000000000000000000000000000000000073ffffffffffffffffffffffffffffffffffffffff16610c1457506b033b2e3c9fd0803ce800000090565b7f00000000000000000000000000000000000000000000000000000000000000007f00000000000000000000000000000000000000000000000000000000000000007f000000000000000000000000000000000000000000000000000000000000000073ffffffffffffffffffffffffffffffffffffffff1663f3190c896040518163ffffffff1660e01b8152600401602060405180830381865afa1580156109d7573d6000803e3d6000fd5b6000806000806000807f000000000000000000000000000000000000000000000000000000000000000073ffffffffffffffffffffffffffffffffffffffff1663feaf968c6040518163ffffffff1660e01b815260040160a060405180830381865afa158015610d35573d6000803e3d6000fd5b505050506040513d601f19601f82011682018060405250810190610d5991906119c6565b505092509250925081600014610d79575060009586955085945092505050565b600195508294508093506000841115610e84575b73ffffffffffffffffffffffffffffffffffffffff7f000000000000000000000000000000000000000000000000000000000000000016639a6fc8f5610dd4600186611aec565b6040517fffffffff0000000000000000000000000000000000000000000000000000000060e084901b16815269ffffffffffffffffffff909116600482015260240160a060405180830381865afa158015610e33573d6000803e3d6000fd5b505050506040513d601f19601f82011682018060405250810190610e5791906119c6565b509295509093509150506000829003610e71578294508093505b81158015610e7f5750600081115b610d8d575b505050909192565b6000808080610e9b8542611b0f565b9050841580610eab5750610a8c81115b15610ec357610a8c6001600093509350935050610eef565b610ecc86610ef6565b9150610ed88286611b0f565b9350610a8c841115610eea57610a8c93505b831091505b9250925092565b60008181805b73ffffffffffffffffffffffffffffffffffffffff7f000000000000000000000000000000000000000000000000000000000000000016639a6fc8f5610f43600186611aec565b6040517fffffffff0000000000000000000000000000000000000000000000000000000060e084901b16815269ffffffffffffffffffff909116600482015260240160a060405180830381865afa158015610fa2573d6000803e3d6000fd5b505050506040513d601f19601f82011682018060405250810190610fc691906119c6565b509295509093509150508115610fda578093505b8115801590610fe95750600081115b610efc57505050919050565b6000806000611002610840565b915091506000611013610428610bc6565b905061104b7f00000000000000000000000000000000000000000000000000000000000000006b033b2e3c9fd0803ce8000000611a39565b7f000000000000000000000000000000000000000000000000000000000000000061081a611395565b60007f000000000000000000000000000000000000000000000000000000000000000073ffffffffffffffffffffffffffffffffffffffff166110c257506b033b2e3c9fd0803ce800000090565b7f000000000000000000000000000000000000000000000000000000000000000073ffffffffffffffffffffffffffffffffffffffff16638e7bfbc06040518163ffffffff1660e01b8152600401602060405180830381865afa15801561112d573d6000803e3d6000fd5b505050506040513d601f19601f820116820180604052508101906111519190611ad3565b90507f000000000000000000000000000000000000000000000000000000000000000015610a58576103f481760a70c3c40a64e6c51999090b65f67d9240000000000000611a85565b6000806111e97f00000000000000000000000000000000000000000000000000000000000000007f0000000000000000000000000000000000000000000000000000000000000000600161144e565b91506108d67f00000000000000000000000000000000000000000000000000000000000000007f0000000000000000000000000000000000000000000000000000000000000000600061144e565b60007f00000000000000000000000000000000000000000000000000000000000000001561130b5761128084760a70c3c40a64e6c51999090b65f67d9240000000000000611a85565b93506b033b2e3c9fd0803ce80000006112998584611a39565b6112a39190611a85565b6112ad9084611ac0565b90507f00000000000000000000000000000000000000000000000000000000000000006112fa7f000000000000000000000000000000000000000000000000000000000000000083611a39565b6113049190611a85565b9050610bbf565b6b033b2e3c9fd0803ce80000006113228585611a39565b61132c9190611a85565b6113369083611ac0565b90507f00000000000000000000000000000000000000000000000000000000000000006113837f000000000000000000000000000000000000000000000000000000000000000083611a39565b61138d9190611a85565b949350505050565b60007f000000000000000000000000000000000000000000000000000000000000000073ffffffffffffffffffffffffffffffffffffffff166113e357506b033b2e3c9fd0803ce800000090565b7f000000000000000000000000000000000000000000000000000000000000000073ffffffffffffffffffffffffffffffffffffffff1663f3190c896040518163ffffffff1660e01b8152600401602060405180830381865afa15801561112d573d6000803e3d6000fd5b6040517fb5c736e40000000000000000000000000000000000000000000000000000000081526004810184905260009081907352aa899454998be5b000ad077a46bbe360f4e4979063b5c736e490602401602060405180830381865afa1580156114bc573d6000803e3d6000fd5b505050506040513d601f19601f820116820180604052508101906114e09190611ad3565b6040517fb5c736e400000000000000000000000000000000000000000000000000000000815260048101869052600982901c66ffffffffffffff16600183901c60ff161b9350909150600090611595907352aa899454998be5b000ad077a46bbe360f4e4979063b5c736e490602401602060405180830381865afa15801561156c573d6000803e3d6000fd5b505050506040513d601f19601f820116820180604052508101906115909190611ad3565b611668565b915050816001166001036115b05764e8d4a510008382020492505b8361160c577f00000000000000000000000000000000000000000000000000000000000000007f000000000000000000000000000000000000000000000000000000000000000084028161160657611606611a56565b04610bba565b7f00000000000000000000000000000000000000000000000000000000000000007f000000000000000000000000000000000000000000000000000000000000000084028161165d5761165d611a56565b049695505050505050565b67ffffffffffffffff605b82901c811690609b83901c1681158061168a575080155b156116c6576040517fd50d7512000000000000000000000000000000000000000000000000000000008152620111716004820152602401610741565b61ffff8316603a84901c6401ffffffff16428181039160ea87901c617fff169114806116f0575082155b806116fb5750806001145b1561170857505050915091565b64496cebb80084840283020484019350617fff60db87901c1692508260010361173357505050915091565b826001166001036117885760019290921c91826c7e37be2022c0914b26800000008161176157611761611a56565b049250612710601e87901c613fff166b033b2e3c9fd0803ce80000008501020492506117b5565b60019290921c916305f5e100601e87901c613fff166127108501026b033b2e3c9fd0803ce8000000020492505b806001166001036117ec5760011c61271081016b033b2e3c9fd0803ce80000008202816117e4576117e4611a56565b049050611822565b60011c61271081016b033b2e3c9fd0803ce800000082028161181057611810611a56565b046b033b2e3c9fd0803ce80000000390505b760a70c3c40a64e6c51999090b65f67d92400000000000008382026127100261ffff881691900402601087901c613fff16612710030292506801b5a660ea44b8000085840283020485019450505050915091565b600060208083528351808285015260005b818110156118a357858101830151858201604001528201611887565b5060006040828601015260407fffffffffffffffffffffffffffffffffffffffffffffffffffffffffffffffe0601f8301168501019250505092915050565b7f4e487b7100000000000000000000000000000000000000000000000000000000600052603260045260246000fd5b7f4e487b7100000000000000000000000000000000000000000000000000000000600052601160045260246000fd5b60007fffffffffffffffffffffffffffffffffffffffffffffffffffffffffffffffff820361197157611971611911565b5060010190565b7f4e487b7100000000000000000000000000000000000000000000000000000000600052604160045260246000fd5b805169ffffffffffffffffffff811681146119c157600080fd5b919050565b600080600080600060a086880312156119de57600080fd5b6119e7866119a7565b9450602086015193506040860151925060608601519150611a0a608087016119a7565b90509295509295909350565b69ffffffffffffffffffff81811683821601908082111561059757610597611911565b8082028115828204841417611a5057611a50611911565b92915050565b7f4e487b7100000000000000000000000000000000000000000000000000000000600052601260045260246000fd5b600082611abb577f4e487b7100000000000000000000000000000000000000000000000000000000600052601260045260246000fd5b500490565b80820180821115611a5057611a50611911565b600060208284031215611ae557600080fd5b5051919050565b69ffffffffffffffffffff82811682821603908082111561059757610597611911565b81810381811115611a5057611a5061191156fea26469706673582212202fb2c93a274e8d2968774ec14923cf1fddaf1db1b151d69eceaa3e96fa9e487264736f6c63430008150033"
}