{
  "address": "0x275cee0cE4a9B4Cb80B82436b5C64d0D69a19711",
  "abi": [
    {
      "inputs": [
        {
          "internalType": "address",
          "name": "vaultFactory_",
          "type": "address"
        },
        {
          "internalType": "address",
          "name": "fluidWalletFactory_",
          "type": "address"
        }
      ],
      "stateMutability": "nonpayable",
      "type": "constructor"
    },
    {
      "inputs": [
        {
          "internalType": "uint256",
          "name": "errorId_",
          "type": "uint256"
        }
      ],
      "name": "FluidSafeTransferError",
      "type": "error"
    },
    {
      "inputs": [],
      "name": "FluidWallet__NotAllowed",
      "type": "error"
    },
    {
      "inputs": [],
      "name": "FluidWallet__ToHexDigit",
      "type": "error"
    },
    {
      "inputs": [],
      "name": "FluidWallet__Unauthorized",
      "type": "error"
    },
    {
      "anonymous": false,
      "inputs": [
        {
          "indexed": true,
          "internalType": "address",
          "name": "owner",
          "type": "address"
        },
        {
          "indexed": true,
          "internalType": "uint256",
          "name": "tokenId",
          "type": "uint256"
        }
      ],
      "name": "Executed",
      "type": "event"
    },
    {
      "anonymous": false,
      "inputs": [
        {
          "indexed": true,
          "internalType": "address",
          "name": "owner",
          "type": "address"
        }
      ],
      "name": "ExecutedCast",
      "type": "event"
    },
    {
      "inputs": [],
      "name": "ETH_ADDRESS",
      "outputs": [
        {
          "internalType": "address",
          "name": "",
          "type": "address"
        }
      ],
      "stateMutability": "view",
      "type": "function"
    },
    {
      "inputs": [],
      "name": "FLUID_WALLET_FACTORY",
      "outputs": [
        {
          "internalType": "address",
          "name": "",
          "type": "address"
        }
      ],
      "stateMutability": "view",
      "type": "function"
    },
    {
      "inputs": [],
      "name": "VAULT_FACTORY",
      "outputs": [
        {
          "internalType": "address",
          "name": "",
          "type": "address"
        }
      ],
      "stateMutability": "view",
      "type": "function"
    },
    {
      "inputs": [],
      "name": "VERSION",
      "outputs": [
        {
          "internalType": "string",
          "name": "",
          "type": "string"
        }
      ],
      "stateMutability": "view",
      "type": "function"
    },
    {
      "inputs": [
        {
          "components": [
            {
              "internalType": "address",
              "name": "target",
              "type": "address"
            },
            {
              "internalType": "bytes",
              "name": "data",
              "type": "bytes"
            },
            {
              "internalType": "uint256",
              "name": "value",
              "type": "uint256"
            },
            {
              "internalType": "uint8",
              "name": "operation",
              "type": "uint8"
            }
          ],
          "internalType": "struct FluidWalletErrorsAndEvents.Action[]",
          "name": "actions_",
          "type": "tuple[]"
        }
      ],
      "name": "cast",
      "outputs": [],
      "stateMutability": "nonpayable",
      "type": "function"
    },
    {
      "inputs": [
        {
          "internalType": "address[]",
          "name": "",
          "type": "address[]"
        },
        {
          "internalType": "uint256[]",
          "name": "",
          "type": "uint256[]"
        },
        {
          "internalType": "uint256[]",
          "name": "",
          "type": "uint256[]"
        },
        {
          "internalType": "address",
          "name": "initiator_",
          "type": "address"
        },
        {
          "internalType": "bytes",
          "name": "data_",
          "type": "bytes"
        }
      ],
      "name": "executeOperation",
      "outputs": [
        {
          "internalType": "bool",
          "name": "",
          "type": "bool"
        }
      ],
      "stateMutability": "nonpayable",
      "type": "function"
    },
    {
      "inputs": [
        {
          "internalType": "address",
          "name": "operator_",
          "type": "address"
        },
        {
          "internalType": "address",
          "name": "from_",
          "type": "address"
        },
        {
          "internalType": "uint256",
          "name": "tokenId_",
          "type": "uint256"
        },
        {
          "internalType": "bytes",
          "name": "data_",
          "type": "bytes"
        }
      ],
      "name": "onERC721Received",
      "outputs": [
        {
          "internalType": "bytes4",
          "name": "",
          "type": "bytes4"
        }
      ],
      "stateMutability": "nonpayable",
      "type": "function"
    },
    {
      "inputs": [],
      "name": "owner",
      "outputs": [
        {
          "internalType": "address",
          "name": "",
          "type": "address"
        }
      ],
      "stateMutability": "view",
      "type": "function"
    }
  ],
  "transactionHash": "0xe2e4c588ae1454761aa79ba83c7404a2e7d62726468afbd3b345300965c5610a",
  "args": [
    "0x324c5Dc1fC42c7a4D43d92df1eBA58a54d13Bf2d",
    "0xd8Ae986159e350B6535539B8A1e488658452f25E"
  ],
  "numDeployments": 3,
  "solcInputHash": "bc344d0580a8610eef9044a9c145e41b",
  "bytecode": "0x60c06040523480156200001157600080fd5b506040516200267d3803806200267d833981016040819052620000349162000069565b6001600160a01b039182166080521660a052620000a1565b80516001600160a01b03811681146200006457600080fd5b919050565b600080604083850312156200007d57600080fd5b62000088836200004c565b915062000098602084016200004c565b90509250929050565b60805160a05161257f620000fe6000396000818161013c015281816102dd0152818161067f015261074501526000818160920152818161021f015281816103d4015281816104ac01528181610b270152610c1e015261257f6000f3fe608060405234801561001057600080fd5b50600436106100885760003560e01c80638da5cb5b1161005b5780638da5cb5b1461015e578063920f5c841461017e578063a734f06e146101a1578063ffa1ad74146101bc57600080fd5b8063103f29071461008d578063150b7a02146100de57806357b7bf20146101225780636ff66e7914610137575b600080fd5b6100b47f000000000000000000000000000000000000000000000000000000000000000081565b60405173ffffffffffffffffffffffffffffffffffffffff90911681526020015b60405180910390f35b6100f16100ec36600461185a565b610205565b6040517fffffffff0000000000000000000000000000000000000000000000000000000090911681526020016100d5565b610135610130366004611b97565b610583565b005b6100b47f000000000000000000000000000000000000000000000000000000000000000081565b6000546100b49073ffffffffffffffffffffffffffffffffffffffff1681565b61019161018c366004611c19565b6105cc565b60405190151581526020016100d5565b6100b473eeeeeeeeeeeeeeeeeeeeeeeeeeeeeeeeeeeeeeee81565b6101f86040518060400160405280600581526020017f312e312e3000000000000000000000000000000000000000000000000000000081525081565b6040516100d59190611d62565b60003373ffffffffffffffffffffffffffffffffffffffff7f00000000000000000000000000000000000000000000000000000000000000001614610276576040517f52df424e00000000000000000000000000000000000000000000000000000000815260040160405180910390fd5b8473ffffffffffffffffffffffffffffffffffffffff168673ffffffffffffffffffffffffffffffffffffffff16146102db576040517f52df424e00000000000000000000000000000000000000000000000000000000815260040160405180910390fd5b7f000000000000000000000000000000000000000000000000000000000000000073ffffffffffffffffffffffffffffffffffffffff168673ffffffffffffffffffffffffffffffffffffffff1614610360576040517f52df424e00000000000000000000000000000000000000000000000000000000815260040160405180910390fd5b60008061036f84860186611d7c565b9150915061037c82610678565b61038581610815565b61038e60018055565b6040517f6352211e00000000000000000000000000000000000000000000000000000000815260048101879052309073ffffffffffffffffffffffffffffffffffffffff7f00000000000000000000000000000000000000000000000000000000000000001690636352211e90602401602060405180830381865afa15801561041b573d6000803e3d6000fd5b505050506040513d601f19601f8201168201806040525081019061043f9190611dd7565b73ffffffffffffffffffffffffffffffffffffffff1603610509576040517f23b872dd00000000000000000000000000000000000000000000000000000000815230600482015273ffffffffffffffffffffffffffffffffffffffff8381166024830152604482018890527f000000000000000000000000000000000000000000000000000000000000000016906323b872dd90606401600060405180830381600087803b1580156104f057600080fd5b505af1158015610504573d6000803e3d6000fd5b505050505b6105138287610b23565b604051869073ffffffffffffffffffffffffffffffffffffffff8416907f6f6c6d78a4851d4c222c8404fc92372ee84b7b81054305ae8ea3c83c2dabd42e90600090a3507f150b7a0200000000000000000000000000000000000000000000000000000000979650505050505050565b61058c33610678565b61059581610815565b61059e60018055565b60405133907fd2c4fe7e5a558f9b1b406ce6cd257540e044fe92fa299597ed9656533c6a8c8d90600090a250565b60008282426040516020016105e393929190611df4565b6040516020818303038152906040528051906020012060015414801561061e575073ffffffffffffffffffffffffffffffffffffffff841630145b610654576040517f38b760c500000000000000000000000000000000000000000000000000000000815260040160405180910390fd5b61066861066383850185611b97565b610815565b5060019998505050505050505050565b60006107c07f000000000000000000000000000000000000000000000000000000000000000073ffffffffffffffffffffffffffffffffffffffff1663ba8df43c6040518163ffffffff1660e01b8152600401602060405180830381865afa1580156106e8573d6000803e3d6000fd5b505050506040513d601f19601f8201168201806040525081019061070c9190611dd7565b6040805173ffffffffffffffffffffffffffffffffffffffff8616602082015201604051602081830303815290604052805190602001207f000000000000000000000000000000000000000000000000000000000000000060405160388101919091526f5af43d82803e903d91602b57fd5bf3ff60248201526014810192909252733d602d80600a3d3981f3363d3d373d3d3d363d73825260588201526037600c8201206078820152605560439091012090565b905073ffffffffffffffffffffffffffffffffffffffff81163014610811576040517f52df424e00000000000000000000000000000000000000000000000000000000815260040160405180910390fd5b5050565b805160005b81811015610b1e57600083828151811061083657610836611e4b565b6020026020010151905060006060826060015160ff166000036108e157826000015173ffffffffffffffffffffffffffffffffffffffff16836040015184602001516040516108859190611e7a565b60006040518083038185875af1925050503d80600081146108c2576040519150601f19603f3d011682016040523d82523d6000602084013e6108c7565b606091505b509092509050816108dc576108dc8482610cd7565b610b10565b826060015160ff1660010361097b57826000015173ffffffffffffffffffffffffffffffffffffffff16836020015160405161091d9190611e7a565b600060405180830381855af49150503d8060008114610958576040519150601f19603f3d011682016040523d82523d6000602084013e61095d565b606091505b50909250905061096c60018055565b816108dc576108dc8482610cd7565b826060015160ff16600203610a9057602083015160048101805190916109a991810160249081019101611f41565b506040519094506109c39350849250429150602001612059565b604080517fffffffffffffffffffffffffffffffffffffffffffffffffffffffffffffffe081840301815282825280516020918201206001558651918701519087015173ffffffffffffffffffffffffffffffffffffffff909216929091610a2a91611e7a565b60006040518083038185875af1925050503d8060008114610a67576040519150601f19603f3d011682016040523d82523d6000602084013e610a6c565b606091505b50909350915082610a8157610a818583610cd7565b610a8a60018055565b50610b10565b610a9984610cfa565b604051602001610aa9919061207b565b604080517fffffffffffffffffffffffffffffffffffffffffffffffffffffffffffffffe0818403018152908290527f08c379a0000000000000000000000000000000000000000000000000000000008252610b0791600401611d62565b60405180910390fd5b83600101935050505061081a565b505050565b60007f000000000000000000000000000000000000000000000000000000000000000073ffffffffffffffffffffffffffffffffffffffff1663b5c736e4610b6c600385610db8565b6040518263ffffffff1660e01b8152600401610b8a91815260200190565b602060405180830381865afa158015610ba7573d6000803e3d6000fd5b505050506040513d601f19601f82011682018060405250810190610bcb91906120bc565b6040517fe6bd26a200000000000000000000000000000000000000000000000000000000815260c082901c63ffffffff16600482015290915060009073ffffffffffffffffffffffffffffffffffffffff7f0000000000000000000000000000000000000000000000000000000000000000169063e6bd26a290602401602060405180830381865afa158015610c65573d6000803e3d6000fd5b505050506040513d601f19601f82011682018060405250810190610c899190611dd7565b90506000610c9682610de7565b9050610ca681600001518661102e565b610cb481602001518661102e565b610cc281604001518661102e565b610cd081606001518661102e565b5050505050565b610ce082610cfa565b610ce98261113f565b604051602001610aa99291906120d5565b60606000610d07836115b4565b600101905060008167ffffffffffffffff811115610d2757610d276118cd565b6040519080825280601f01601f191660200182016040528015610d51576020820181803683370190505b5090508181016020015b7fffffffffffffffffffffffffffffffffffffffffffffffffffffffffffffffff017f3031323334353637383961626364656600000000000000000000000000000000600a86061a8153600a8504945084610d5b57509392505050565b604080516020808201849052818301859052825180830384018152606090920190925280519101205b92915050565b6040805160808101825260008082526020820181905291810182905260608101919091528173ffffffffffffffffffffffffffffffffffffffff163b600003610e2f57919050565b8173ffffffffffffffffffffffffffffffffffffffff1663bb24fe8a6040518163ffffffff1660e01b8152600401602060405180830381865afa925050508015610eb4575060408051601f3d9081017fffffffffffffffffffffffffffffffffffffffffffffffffffffffffffffffe0168201909252610eb1918101906120bc565b60015b610f695760008273ffffffffffffffffffffffffffffffffffffffff1663b7791bf26040518163ffffffff1660e01b81526004016101a060405180830381865afa158015610f06573d6000803e3d6000fd5b505050506040513d601f19601f82011682018060405250810190610f2a919061213e565b608081015173ffffffffffffffffffffffffffffffffffffffff908116845260006020850181905260a090920151166040840152606083015250919050565b60008373ffffffffffffffffffffffffffffffffffffffff1663b7791bf26040518163ffffffff1660e01b815260040161024060405180830381865afa158015610fb7573d6000803e3d6000fd5b505050506040513d601f19601f82011682018060405250810190610fdb9190612280565b610100810180515173ffffffffffffffffffffffffffffffffffffffff9081168652905160209081015182168187015261012090920180515182166040870152519091015116606084015250505b919050565b73ffffffffffffffffffffffffffffffffffffffff821661104d575050565b7fffffffffffffffffffffffff111111111111111111111111111111111111111273ffffffffffffffffffffffffffffffffffffffff83160161109b57478015610b1e57610b1e8282611696565b6040517f70a0823100000000000000000000000000000000000000000000000000000000815230600482015260009073ffffffffffffffffffffffffffffffffffffffff8416906370a0823190602401602060405180830381865afa158015611108573d6000803e3d6000fd5b505050506040513d601f19601f8201168201806040525081019061112c91906120bc565b90508015610b1e57610b1e8383836116e2565b606060048251101561118457505060408051808201909152601381527f5f524541534f4e5f4e4f545f444546494e454400000000000000000000000000602082015290565b60208201517fb1b7848f000000000000000000000000000000000000000000000000000000007fffffffff000000000000000000000000000000000000000000000000000000008216016113105760408051600280825281830190925260009160208201818036833701905050905061122e6010856001875161120791906123c7565b8151811061121757611217611e4b565b0160200151611229919060f81c6123da565b61178c565b8160008151811061124157611241611e4b565b60200101907effffffffffffffffffffffffffffffffffffffffffffffffffffffffffffff1916908160001a9053506112a66010856001875161128491906123c7565b8151811061129457611294611e4b565b0160200151611229919060f81c6123fc565b816001815181106112b9576112b9611e4b565b60200101907effffffffffffffffffffffffffffffffffffffffffffffffffffffffffffff1916908160001a905350806040516020016112f9919061241e565b6040516020818303038152906040529250506114d4565b7ff73c8660000000000000000000000000000000000000000000000000000000007fffffffff0000000000000000000000000000000000000000000000000000000082160161139957600483019250828060200190518101906113739190612463565b60405160200161138391906124ac565b60405160208183030381529060405291506114d4565b60408051600880825281830190925260009160208201818036833701905050905060005b60048110156114af576113f160108483600481106113dd576113dd611e4b565b1a816113eb576113eb612104565b0461178c565b82826002028151811061140657611406611e4b565b60200101907effffffffffffffffffffffffffffffffffffffffffffffffffffffffffffff1916908160001a905350611460601084836004811061144c5761144c611e4b565b1a8161145a5761145a612104565b0661178c565b82826002026001018151811061147857611478611e4b565b60200101907effffffffffffffffffffffffffffffffffffffffffffffffffffffffffffff1916908160001a9053506001016113bd565b50806040516020016114c191906124f1565b6040516020818303038152906040529250505b60fa825111156115ae578160006114ed60fa6001612536565b905060008167ffffffffffffffff81111561150a5761150a6118cd565b6040519080825280601f01601f191660200182016040528015611534576020820181803683370190505b50905060005b828110156115a85783818151811061155457611554611e4b565b602001015160f81c60f81b82828151811061157157611571611e4b565b60200101907effffffffffffffffffffffffffffffffffffffffffffffffffffffffffffff1916908160001a90535060010161153a565b50935050505b50919050565b6000807a184f03e93ff9f4daa797ed6e38ed64bf6a1f01000000000000000083106115fd577a184f03e93ff9f4daa797ed6e38ed64bf6a1f010000000000000000830492506040015b6d04ee2d6d415b85acef81000000008310611629576d04ee2d6d415b85acef8100000000830492506020015b662386f26fc10000831061164757662386f26fc10000830492506010015b6305f5e100831061165f576305f5e100830492506008015b612710831061167357612710830492506004015b60648310611685576064830492506002015b600a8310610de15760010192915050565b60008060008060008587614e20f1905080610b1e576040517fdee51a8a0000000000000000000000000000000000000000000000000000000081526201155a6004820152602401610b07565b60006040517fa9059cbb00000000000000000000000000000000000000000000000000000000815273ffffffffffffffffffffffffffffffffffffffff84166004820152826024820152602060006044836000895af13d15601f3d1160016000511416171691505080611786576040517fdee51a8a0000000000000000000000000000000000000000000000000000000081526201155a6004820152602401610b07565b50505050565b6000600a8260ff1610156117a4575060300160f81b90565b60108260ff1610156117ba575060570160f81b90565b6040517fb0b8d61a00000000000000000000000000000000000000000000000000000000815260040160405180910390fd5b73ffffffffffffffffffffffffffffffffffffffff8116811461180e57600080fd5b50565b60008083601f84011261182357600080fd5b50813567ffffffffffffffff81111561183b57600080fd5b60208301915083602082850101111561185357600080fd5b9250929050565b60008060008060006080868803121561187257600080fd5b853561187d816117ec565b9450602086013561188d816117ec565b935060408601359250606086013567ffffffffffffffff8111156118b057600080fd5b6118bc88828901611811565b969995985093965092949392505050565b7f4e487b7100000000000000000000000000000000000000000000000000000000600052604160045260246000fd5b6040516080810167ffffffffffffffff8111828210171561191f5761191f6118cd565b60405290565b6040516101a0810167ffffffffffffffff8111828210171561191f5761191f6118cd565b604051610200810167ffffffffffffffff8111828210171561191f5761191f6118cd565b604051601f82017fffffffffffffffffffffffffffffffffffffffffffffffffffffffffffffffe016810167ffffffffffffffff811182821017156119b4576119b46118cd565b604052919050565b600067ffffffffffffffff8211156119d6576119d66118cd565b5060051b60200190565b600067ffffffffffffffff8211156119fa576119fa6118cd565b50601f017fffffffffffffffffffffffffffffffffffffffffffffffffffffffffffffffe01660200190565b60ff8116811461180e57600080fd5b803561102981611a26565b600082601f830112611a5157600080fd5b81356020611a66611a61836119bc565b61196d565b82815260059290921b84018101918181019086841115611a8557600080fd5b8286015b84811015611b8c57803567ffffffffffffffff80821115611aaa5760008081fd5b81890191506080807fffffffffffffffffffffffffffffffffffffffffffffffffffffffffffffffe0848d03011215611ae35760008081fd5b611aeb6118fc565b87840135611af8816117ec565b815260408481013584811115611b0e5760008081fd5b85019350603f84018d13611b225760008081fd5b88840135611b32611a61826119e0565b8181528e83838801011115611b475760008081fd5b818387018c83013760008b8383010152808b850152505060609350838501358183015250611b76828501611a35565b9281019290925250845250918301918301611a89565b509695505050505050565b600060208284031215611ba957600080fd5b813567ffffffffffffffff811115611bc057600080fd5b611bcc84828501611a40565b949350505050565b60008083601f840112611be657600080fd5b50813567ffffffffffffffff811115611bfe57600080fd5b6020830191508360208260051b850101111561185357600080fd5b600080600080600080600080600060a08a8c031215611c3757600080fd5b893567ffffffffffffffff80821115611c4f57600080fd5b611c5b8d838e01611bd4565b909b50995060208c0135915080821115611c7457600080fd5b611c808d838e01611bd4565b909950975060408c0135915080821115611c9957600080fd5b611ca58d838e01611bd4565b909750955060608c01359150611cba826117ec565b90935060808b01359080821115611cd057600080fd5b50611cdd8c828d01611811565b915080935050809150509295985092959850929598565b60005b83811015611d0f578181015183820152602001611cf7565b50506000910152565b60008151808452611d30816020860160208601611cf4565b601f017fffffffffffffffffffffffffffffffffffffffffffffffffffffffffffffffe0169290920160200192915050565b602081526000611d756020830184611d18565b9392505050565b60008060408385031215611d8f57600080fd5b8235611d9a816117ec565b9150602083013567ffffffffffffffff811115611db657600080fd5b611dc285828601611a40565b9150509250929050565b8051611029816117ec565b600060208284031215611de957600080fd5b8151611d75816117ec565b6040815282604082015282846060830137600060608483010152600060607fffffffffffffffffffffffffffffffffffffffffffffffffffffffffffffffe0601f8601168301019050826020830152949350505050565b7f4e487b7100000000000000000000000000000000000000000000000000000000600052603260045260246000fd5b60008251611e8c818460208701611cf4565b9190910192915050565b600082601f830112611ea757600080fd5b81516020611eb7611a61836119bc565b82815260059290921b84018101918181019086841115611ed657600080fd5b8286015b84811015611b8c5780518352918301918301611eda565b6000611eff611a61846119e0565b9050828152838383011115611f1357600080fd5b611d75836020830184611cf4565b600082601f830112611f3257600080fd5b611d7583835160208501611ef1565b600080600080600060a08688031215611f5957600080fd5b855167ffffffffffffffff80821115611f7157600080fd5b818801915088601f830112611f8557600080fd5b81516020611f95611a61836119bc565b82815260059290921b8401810191818101908c841115611fb457600080fd5b948201945b83861015611fdb578551611fcc816117ec565b82529482019490820190611fb9565b918b0151919950909350505080821115611ff457600080fd5b61200089838a01611e96565b955060408801519450606088015191508082111561201d57600080fd5b61202989838a01611f21565b9350608088015191508082111561203f57600080fd5b5061204c88828901611f21565b9150509295509295909350565b60408152600061206c6040830185611d18565b90508260208301529392505050565b6000825161208d818460208701611cf4565b7f5f464c5549445f5f494e56414c49445f49445f4f525f4f5045524154494f4e00920191825250601f01919050565b6000602082840312156120ce57600080fd5b5051919050565b600083516120e7818460208801611cf4565b8351908301906120fb818360208801611cf4565b01949350505050565b7f4e487b7100000000000000000000000000000000000000000000000000000000600052601260045260246000fd5b805161102981611a26565b60006101a0828403121561215157600080fd5b612159611925565b61216283611dcc565b815261217060208401611dcc565b602082015261218160408401611dcc565b604082015261219260608401611dcc565b60608201526121a360808401611dcc565b60808201526121b460a08401611dcc565b60a08201526121c560c08401612133565b60c08201526121d660e08401612133565b60e08201526101008381015190820152610120808401519082015261014080840151908201526101608084015190820152610180928301519281019290925250919050565b60006040828403121561222d57600080fd5b6040516040810181811067ffffffffffffffff82111715612250576122506118cd565b80604052508091508251612263816117ec565b81526020830151612273816117ec565b6020919091015292915050565b6000610240828403121561229357600080fd5b61229b611949565b6122a483611dcc565b81526122b260208401611dcc565b60208201526122c360408401611dcc565b60408201526122d460608401611dcc565b60608201526122e560808401611dcc565b60808201526122f660a08401611dcc565b60a082015261230760c08401611dcc565b60c082015261231860e08401611dcc565b60e082015261010061232c8582860161221b565b9082015261014061233f8585830161221b565b61012083015261018080850151828401526101a09150818501516101608401526101c080860151828501526101e09150818601518385015261020086015181850152506102208501518184015250508091505092915050565b7f4e487b7100000000000000000000000000000000000000000000000000000000600052601160045260246000fd5b81810381811115610de157610de1612398565b600060ff8316806123ed576123ed612104565b8060ff84160491505092915050565b600060ff83168061240f5761240f612104565b8060ff84160691505092915050565b7f5f5441524745545f50414e49434b45443a203078000000000000000000000000815260008251612456816014850160208701611cf4565b9190910160140192915050565b60006020828403121561247557600080fd5b815167ffffffffffffffff81111561248c57600080fd5b8201601f8101841361249d57600080fd5b611bcc84825160208401611ef1565b7f5f000000000000000000000000000000000000000000000000000000000000008152600082516124e4816001850160208701611cf4565b9190910160010192915050565b7f5f435553544f4d5f4552524f523a203078000000000000000000000000000000815260008251612529816011850160208701611cf4565b9190910160110192915050565b80820180821115610de157610de161239856fea26469706673582212208c368e3e3faf01565309336d05cd6b031c36481a570b212da86a2a1e0e35218764736f6c63430008150033",
  "devdoc": {
    "kind": "dev",
    "methods": {
      "executeOperation(address[],uint256[],uint256[],address,bytes)": {
        "params": {
          "data_": "data bytes containing the `abi.encoded()` actions that are executed like in `CastParams.actions`",
          "initiator_": "flashloan initiator -> must be this contract"
        }
      },
      "onERC721Received(address,address,uint256,bytes)": {
        "details": "ERC721 callback used Fluid Vault Factory and executes actions encoded in `data_`                         Caller should be Fluid Wallet Factory.",
        "params": {
          "data_": "data bytes containing the `abi.encoded()` actions that are executed like in `Action[]` & `owner`",
          "from_": "from_ previous owner of the given token ID",
          "operator_": "operator_ caller to transfer the the given token ID",
          "tokenId_": "tokenId_ id of the ERC721"
        }
      }
    },
    "version": 1
  },
  "userdoc": {
    "kind": "user",
    "methods": {},
    "version": 1
  },
  "storageLayout": {
    "storage": [
      {
        "astId": 36288,
        "contract": "contracts/periphery/wallet/wallet/main.sol:FluidWalletImplementation",
        "label": "owner",
        "offset": 0,
        "slot": "0",
        "type": "t_address"
      },
      {
        "astId": 36291,
        "contract": "contracts/periphery/wallet/wallet/main.sol:FluidWalletImplementation",
        "label": "_transientAllowHash",
        "offset": 0,
        "slot": "1",
        "type": "t_bytes32"
      }
    ],
    "types": {
      "t_address": {
        "encoding": "inplace",
        "label": "address",
        "numberOfBytes": "20"
      },
      "t_bytes32": {
        "encoding": "inplace",
        "label": "bytes32",
        "numberOfBytes": "32"
      }
    }
  }
}