{
  "address": "0x74427400b8306FfEfcC285bEd557aA1c54C08FF1",
  "abi": [
    {
      "inputs": [
        {
          "internalType": "address",
          "name": "factory_",
          "type": "address"
        },
        {
          "internalType": "address",
          "name": "liquidity_",
          "type": "address"
        },
        {
          "internalType": "address",
          "name": "liquidityResolver_",
          "type": "address"
        }
      ],
      "stateMutability": "nonpayable",
      "type": "constructor"
    },
    {
      "inputs": [],
      "name": "FACTORY",
      "outputs": [
        {
          "internalType": "contract IFluidVaultFactory",
          "name": "",
          "type": "address"
        }
      ],
      "stateMutability": "view",
      "type": "function"
    },
    {
      "inputs": [],
      "name": "LIQUIDITY",
      "outputs": [
        {
          "internalType": "contract IFluidLiquidity",
          "name": "",
          "type": "address"
        }
      ],
      "stateMutability": "view",
      "type": "function"
    },
    {
      "inputs": [],
      "name": "LIQUIDITY_RESOLVER",
      "outputs": [
        {
          "internalType": "contract IFluidLiquidityResolver",
          "name": "",
          "type": "address"
        }
      ],
      "stateMutability": "view",
      "type": "function"
    },
    {
      "inputs": [
        {
          "internalType": "uint256",
          "name": "slot_",
          "type": "uint256"
        },
        {
          "internalType": "int256",
          "name": "key1_",
          "type": "int256"
        },
        {
          "internalType": "uint256",
          "name": "key2_",
          "type": "uint256"
        }
      ],
      "name": "calculateDoubleIntUintMapping",
      "outputs": [
        {
          "internalType": "bytes32",
          "name": "",
          "type": "bytes32"
        }
      ],
      "stateMutability": "pure",
      "type": "function"
    },
    {
      "inputs": [
        {
          "internalType": "uint256",
          "name": "slot_",
          "type": "uint256"
        },
        {
          "internalType": "int256",
          "name": "key_",
          "type": "int256"
        }
      ],
      "name": "calculateStorageSlotIntMapping",
      "outputs": [
        {
          "internalType": "bytes32",
          "name": "",
          "type": "bytes32"
        }
      ],
      "stateMutability": "pure",
      "type": "function"
    },
    {
      "inputs": [
        {
          "internalType": "uint256",
          "name": "slot_",
          "type": "uint256"
        },
        {
          "internalType": "uint256",
          "name": "key_",
          "type": "uint256"
        }
      ],
      "name": "calculateStorageSlotUintMapping",
      "outputs": [
        {
          "internalType": "bytes32",
          "name": "",
          "type": "bytes32"
        }
      ],
      "stateMutability": "pure",
      "type": "function"
    },
    {
      "inputs": [
        {
          "internalType": "address",
          "name": "vault_",
          "type": "address"
        }
      ],
      "name": "getAbsorbedLiquidityRaw",
      "outputs": [
        {
          "internalType": "uint256",
          "name": "",
          "type": "uint256"
        }
      ],
      "stateMutability": "view",
      "type": "function"
    },
    {
      "inputs": [],
      "name": "getAllVaultsAddresses",
      "outputs": [
        {
          "internalType": "address[]",
          "name": "vaults_",
          "type": "address[]"
        }
      ],
      "stateMutability": "view",
      "type": "function"
    },
    {
      "inputs": [],
      "name": "getAllVaultsLiquidation",
      "outputs": [
        {
          "components": [
            {
              "internalType": "address",
              "name": "vault",
              "type": "address"
            },
            {
              "internalType": "address",
              "name": "tokenIn",
              "type": "address"
            },
            {
              "internalType": "address",
              "name": "tokenOut",
              "type": "address"
            },
            {
              "internalType": "uint256",
              "name": "tokenInAmtOne",
              "type": "uint256"
            },
            {
              "internalType": "uint256",
              "name": "tokenOutAmtOne",
              "type": "uint256"
            },
            {
              "internalType": "uint256",
              "name": "tokenInAmtTwo",
              "type": "uint256"
            },
            {
              "internalType": "uint256",
              "name": "tokenOutAmtTwo",
              "type": "uint256"
            }
          ],
          "internalType": "struct Structs.LiquidationStruct[]",
          "name": "liquidationsData_",
          "type": "tuple[]"
        }
      ],
      "stateMutability": "nonpayable",
      "type": "function"
    },
    {
      "inputs": [
        {
          "internalType": "address",
          "name": "vault_",
          "type": "address"
        },
        {
          "internalType": "uint256",
          "name": "branch_",
          "type": "uint256"
        }
      ],
      "name": "getBranchDataRaw",
      "outputs": [
        {
          "internalType": "uint256",
          "name": "",
          "type": "uint256"
        }
      ],
      "stateMutability": "view",
      "type": "function"
    },
    {
      "inputs": [
        {
          "internalType": "address[]",
          "name": "vaults_",
          "type": "address[]"
        },
        {
          "internalType": "uint256[]",
          "name": "tokensInAmt_",
          "type": "uint256[]"
        }
      ],
      "name": "getMultipleVaultsLiquidation",
      "outputs": [
        {
          "components": [
            {
              "internalType": "address",
              "name": "vault",
              "type": "address"
            },
            {
              "internalType": "address",
              "name": "tokenIn",
              "type": "address"
            },
            {
              "internalType": "address",
              "name": "tokenOut",
              "type": "address"
            },
            {
              "internalType": "uint256",
              "name": "tokenInAmtOne",
              "type": "uint256"
            },
            {
              "internalType": "uint256",
              "name": "tokenOutAmtOne",
              "type": "uint256"
            },
            {
              "internalType": "uint256",
              "name": "tokenInAmtTwo",
              "type": "uint256"
            },
            {
              "internalType": "uint256",
              "name": "tokenOutAmtTwo",
              "type": "uint256"
            }
          ],
          "internalType": "struct Structs.LiquidationStruct[]",
          "name": "liquidationsData_",
          "type": "tuple[]"
        }
      ],
      "stateMutability": "nonpayable",
      "type": "function"
    },
    {
      "inputs": [
        {
          "internalType": "address",
          "name": "vault_",
          "type": "address"
        },
        {
          "internalType": "uint256",
          "name": "positionId_",
          "type": "uint256"
        }
      ],
      "name": "getPositionDataRaw",
      "outputs": [
        {
          "internalType": "uint256",
          "name": "",
          "type": "uint256"
        }
      ],
      "stateMutability": "view",
      "type": "function"
    },
    {
      "inputs": [
        {
          "internalType": "address",
          "name": "vault_",
          "type": "address"
        }
      ],
      "name": "getRateRaw",
      "outputs": [
        {
          "internalType": "uint256",
          "name": "",
          "type": "uint256"
        }
      ],
      "stateMutability": "view",
      "type": "function"
    },
    {
      "inputs": [
        {
          "internalType": "address",
          "name": "vault_",
          "type": "address"
        }
      ],
      "name": "getRebalancer",
      "outputs": [
        {
          "internalType": "address",
          "name": "",
          "type": "address"
        }
      ],
      "stateMutability": "view",
      "type": "function"
    },
    {
      "inputs": [
        {
          "internalType": "address",
          "name": "vault_",
          "type": "address"
        },
        {
          "internalType": "int256",
          "name": "tick_",
          "type": "int256"
        }
      ],
      "name": "getTickDataRaw",
      "outputs": [
        {
          "internalType": "uint256",
          "name": "",
          "type": "uint256"
        }
      ],
      "stateMutability": "view",
      "type": "function"
    },
    {
      "inputs": [
        {
          "internalType": "address",
          "name": "vault_",
          "type": "address"
        },
        {
          "internalType": "int256",
          "name": "key_",
          "type": "int256"
        }
      ],
      "name": "getTickHasDebtRaw",
      "outputs": [
        {
          "internalType": "uint256",
          "name": "",
          "type": "uint256"
        }
      ],
      "stateMutability": "view",
      "type": "function"
    },
    {
      "inputs": [
        {
          "internalType": "address",
          "name": "vault_",
          "type": "address"
        },
        {
          "internalType": "int256",
          "name": "tick_",
          "type": "int256"
        },
        {
          "internalType": "uint256",
          "name": "id_",
          "type": "uint256"
        }
      ],
      "name": "getTickIdDataRaw",
      "outputs": [
        {
          "internalType": "uint256",
          "name": "",
          "type": "uint256"
        }
      ],
      "stateMutability": "view",
      "type": "function"
    },
    {
      "inputs": [
        {
          "internalType": "uint256",
          "name": "nftId_",
          "type": "uint256"
        }
      ],
      "name": "getTokenConfig",
      "outputs": [
        {
          "internalType": "uint256",
          "name": "",
          "type": "uint256"
        }
      ],
      "stateMutability": "view",
      "type": "function"
    },
    {
      "inputs": [],
      "name": "getTotalVaults",
      "outputs": [
        {
          "internalType": "uint256",
          "name": "",
          "type": "uint256"
        }
      ],
      "stateMutability": "view",
      "type": "function"
    },
    {
      "inputs": [
        {
          "internalType": "address",
          "name": "vault_",
          "type": "address"
        }
      ],
      "name": "getVaultAbsorb",
      "outputs": [
        {
          "components": [
            {
              "internalType": "address",
              "name": "vault",
              "type": "address"
            },
            {
              "internalType": "bool",
              "name": "absorbAvailable",
              "type": "bool"
            }
          ],
          "internalType": "struct Structs.AbsorbStruct",
          "name": "absorbData_",
          "type": "tuple"
        }
      ],
      "stateMutability": "nonpayable",
      "type": "function"
    },
    {
      "inputs": [
        {
          "internalType": "uint256",
          "name": "vaultId_",
          "type": "uint256"
        }
      ],
      "name": "getVaultAddress",
      "outputs": [
        {
          "internalType": "address",
          "name": "vault_",
          "type": "address"
        }
      ],
      "stateMutability": "view",
      "type": "function"
    },
    {
      "inputs": [
        {
          "internalType": "address",
          "name": "vault_",
          "type": "address"
        }
      ],
      "name": "getVaultEntireData",
      "outputs": [
        {
          "components": [
            {
              "internalType": "address",
              "name": "vault",
              "type": "address"
            },
            {
              "components": [
                {
                  "internalType": "address",
                  "name": "liquidity",
                  "type": "address"
                },
                {
                  "internalType": "address",
                  "name": "factory",
                  "type": "address"
                },
                {
                  "internalType": "address",
                  "name": "adminImplementation",
                  "type": "address"
                },
                {
                  "internalType": "address",
                  "name": "secondaryImplementation",
                  "type": "address"
                },
                {
                  "internalType": "address",
                  "name": "supplyToken",
                  "type": "address"
                },
                {
                  "internalType": "address",
                  "name": "borrowToken",
                  "type": "address"
                },
                {
                  "internalType": "uint8",
                  "name": "supplyDecimals",
                  "type": "uint8"
                },
                {
                  "internalType": "uint8",
                  "name": "borrowDecimals",
                  "type": "uint8"
                },
                {
                  "internalType": "uint256",
                  "name": "vaultId",
                  "type": "uint256"
                },
                {
                  "internalType": "bytes32",
                  "name": "liquiditySupplyExchangePriceSlot",
                  "type": "bytes32"
                },
                {
                  "internalType": "bytes32",
                  "name": "liquidityBorrowExchangePriceSlot",
                  "type": "bytes32"
                },
                {
                  "internalType": "bytes32",
                  "name": "liquidityUserSupplySlot",
                  "type": "bytes32"
                },
                {
                  "internalType": "bytes32",
                  "name": "liquidityUserBorrowSlot",
                  "type": "bytes32"
                }
              ],
              "internalType": "struct IFluidVaultT1.ConstantViews",
              "name": "constantVariables",
              "type": "tuple"
            },
            {
              "components": [
                {
                  "internalType": "uint16",
                  "name": "supplyRateMagnifier",
                  "type": "uint16"
                },
                {
                  "internalType": "uint16",
                  "name": "borrowRateMagnifier",
                  "type": "uint16"
                },
                {
                  "internalType": "uint16",
                  "name": "collateralFactor",
                  "type": "uint16"
                },
                {
                  "internalType": "uint16",
                  "name": "liquidationThreshold",
                  "type": "uint16"
                },
                {
                  "internalType": "uint16",
                  "name": "liquidationMaxLimit",
                  "type": "uint16"
                },
                {
                  "internalType": "uint16",
                  "name": "withdrawalGap",
                  "type": "uint16"
                },
                {
                  "internalType": "uint16",
                  "name": "liquidationPenalty",
                  "type": "uint16"
                },
                {
                  "internalType": "uint16",
                  "name": "borrowFee",
                  "type": "uint16"
                },
                {
                  "internalType": "address",
                  "name": "oracle",
                  "type": "address"
                },
                {
                  "internalType": "uint256",
                  "name": "oraclePriceOperate",
                  "type": "uint256"
                },
                {
                  "internalType": "uint256",
                  "name": "oraclePriceLiquidate",
                  "type": "uint256"
                },
                {
                  "internalType": "address",
                  "name": "rebalancer",
                  "type": "address"
                }
              ],
              "internalType": "struct Structs.Configs",
              "name": "configs",
              "type": "tuple"
            },
            {
              "components": [
                {
                  "internalType": "uint256",
                  "name": "lastStoredLiquiditySupplyExchangePrice",
                  "type": "uint256"
                },
                {
                  "internalType": "uint256",
                  "name": "lastStoredLiquidityBorrowExchangePrice",
                  "type": "uint256"
                },
                {
                  "internalType": "uint256",
                  "name": "lastStoredVaultSupplyExchangePrice",
                  "type": "uint256"
                },
                {
                  "internalType": "uint256",
                  "name": "lastStoredVaultBorrowExchangePrice",
                  "type": "uint256"
                },
                {
                  "internalType": "uint256",
                  "name": "liquiditySupplyExchangePrice",
                  "type": "uint256"
                },
                {
                  "internalType": "uint256",
                  "name": "liquidityBorrowExchangePrice",
                  "type": "uint256"
                },
                {
                  "internalType": "uint256",
                  "name": "vaultSupplyExchangePrice",
                  "type": "uint256"
                },
                {
                  "internalType": "uint256",
                  "name": "vaultBorrowExchangePrice",
                  "type": "uint256"
                },
                {
                  "internalType": "uint256",
                  "name": "supplyRateVault",
                  "type": "uint256"
                },
                {
                  "internalType": "uint256",
                  "name": "borrowRateVault",
                  "type": "uint256"
                },
                {
                  "internalType": "uint256",
                  "name": "supplyRateLiquidity",
                  "type": "uint256"
                },
                {
                  "internalType": "uint256",
                  "name": "borrowRateLiquidity",
                  "type": "uint256"
                },
                {
                  "internalType": "uint256",
                  "name": "rewardsRate",
                  "type": "uint256"
                }
              ],
              "internalType": "struct Structs.ExchangePricesAndRates",
              "name": "exchangePricesAndRates",
              "type": "tuple"
            },
            {
              "components": [
                {
                  "internalType": "uint256",
                  "name": "totalSupplyVault",
                  "type": "uint256"
                },
                {
                  "internalType": "uint256",
                  "name": "totalBorrowVault",
                  "type": "uint256"
                },
                {
                  "internalType": "uint256",
                  "name": "totalSupplyLiquidity",
                  "type": "uint256"
                },
                {
                  "internalType": "uint256",
                  "name": "totalBorrowLiquidity",
                  "type": "uint256"
                },
                {
                  "internalType": "uint256",
                  "name": "absorbedSupply",
                  "type": "uint256"
                },
                {
                  "internalType": "uint256",
                  "name": "absorbedBorrow",
                  "type": "uint256"
                }
              ],
              "internalType": "struct Structs.TotalSupplyAndBorrow",
              "name": "totalSupplyAndBorrow",
              "type": "tuple"
            },
            {
              "components": [
                {
                  "internalType": "uint256",
                  "name": "withdrawLimit",
                  "type": "uint256"
                },
                {
                  "internalType": "uint256",
                  "name": "withdrawableUntilLimit",
                  "type": "uint256"
                },
                {
                  "internalType": "uint256",
                  "name": "withdrawable",
                  "type": "uint256"
                },
                {
                  "internalType": "uint256",
                  "name": "borrowLimit",
                  "type": "uint256"
                },
                {
                  "internalType": "uint256",
                  "name": "borrowableUntilLimit",
                  "type": "uint256"
                },
                {
                  "internalType": "uint256",
                  "name": "borrowable",
                  "type": "uint256"
                },
                {
                  "internalType": "uint256",
                  "name": "borrowLimitUtilization",
                  "type": "uint256"
                },
                {
                  "internalType": "uint256",
                  "name": "minimumBorrowing",
                  "type": "uint256"
                }
              ],
              "internalType": "struct Structs.LimitsAndAvailability",
              "name": "limitsAndAvailability",
              "type": "tuple"
            },
            {
              "components": [
                {
                  "internalType": "uint256",
                  "name": "totalPositions",
                  "type": "uint256"
                },
                {
                  "internalType": "int256",
                  "name": "topTick",
                  "type": "int256"
                },
                {
                  "internalType": "uint256",
                  "name": "currentBranch",
                  "type": "uint256"
                },
                {
                  "internalType": "uint256",
                  "name": "totalBranch",
                  "type": "uint256"
                },
                {
                  "internalType": "uint256",
                  "name": "totalBorrow",
                  "type": "uint256"
                },
                {
                  "internalType": "uint256",
                  "name": "totalSupply",
                  "type": "uint256"
                },
                {
                  "components": [
                    {
                      "internalType": "uint256",
                      "name": "status",
                      "type": "uint256"
                    },
                    {
                      "internalType": "int256",
                      "name": "minimaTick",
                      "type": "int256"
                    },
                    {
                      "internalType": "uint256",
                      "name": "debtFactor",
                      "type": "uint256"
                    },
                    {
                      "internalType": "uint256",
                      "name": "partials",
                      "type": "uint256"
                    },
                    {
                      "internalType": "uint256",
                      "name": "debtLiquidity",
                      "type": "uint256"
                    },
                    {
                      "internalType": "uint256",
                      "name": "baseBranchId",
                      "type": "uint256"
                    },
                    {
                      "internalType": "int256",
                      "name": "baseBranchMinima",
                      "type": "int256"
                    }
                  ],
                  "internalType": "struct Structs.CurrentBranchState",
                  "name": "currentBranchState",
                  "type": "tuple"
                }
              ],
              "internalType": "struct Structs.VaultState",
              "name": "vaultState",
              "type": "tuple"
            },
            {
              "components": [
                {
                  "internalType": "bool",
                  "name": "modeWithInterest",
                  "type": "bool"
                },
                {
                  "internalType": "uint256",
                  "name": "supply",
                  "type": "uint256"
                },
                {
                  "internalType": "uint256",
                  "name": "withdrawalLimit",
                  "type": "uint256"
                },
                {
                  "internalType": "uint256",
                  "name": "lastUpdateTimestamp",
                  "type": "uint256"
                },
                {
                  "internalType": "uint256",
                  "name": "expandPercent",
                  "type": "uint256"
                },
                {
                  "internalType": "uint256",
                  "name": "expandDuration",
                  "type": "uint256"
                },
                {
                  "internalType": "uint256",
                  "name": "baseWithdrawalLimit",
                  "type": "uint256"
                },
                {
                  "internalType": "uint256",
                  "name": "withdrawableUntilLimit",
                  "type": "uint256"
                },
                {
                  "internalType": "uint256",
                  "name": "withdrawable",
                  "type": "uint256"
                }
              ],
              "internalType": "struct Structs.UserSupplyData",
              "name": "liquidityUserSupplyData",
              "type": "tuple"
            },
            {
              "components": [
                {
                  "internalType": "bool",
                  "name": "modeWithInterest",
                  "type": "bool"
                },
                {
                  "internalType": "uint256",
                  "name": "borrow",
                  "type": "uint256"
                },
                {
                  "internalType": "uint256",
                  "name": "borrowLimit",
                  "type": "uint256"
                },
                {
                  "internalType": "uint256",
                  "name": "lastUpdateTimestamp",
                  "type": "uint256"
                },
                {
                  "internalType": "uint256",
                  "name": "expandPercent",
                  "type": "uint256"
                },
                {
                  "internalType": "uint256",
                  "name": "expandDuration",
                  "type": "uint256"
                },
                {
                  "internalType": "uint256",
                  "name": "baseBorrowLimit",
                  "type": "uint256"
                },
                {
                  "internalType": "uint256",
                  "name": "maxBorrowLimit",
                  "type": "uint256"
                },
                {
                  "internalType": "uint256",
                  "name": "borrowableUntilLimit",
                  "type": "uint256"
                },
                {
                  "internalType": "uint256",
                  "name": "borrowable",
                  "type": "uint256"
                },
                {
                  "internalType": "uint256",
                  "name": "borrowLimitUtilization",
                  "type": "uint256"
                }
              ],
              "internalType": "struct Structs.UserBorrowData",
              "name": "liquidityUserBorrowData",
              "type": "tuple"
            }
          ],
          "internalType": "struct Structs.VaultEntireData",
          "name": "vaultData_",
          "type": "tuple"
        }
      ],
      "stateMutability": "view",
      "type": "function"
    },
    {
      "inputs": [
        {
          "internalType": "address",
          "name": "vault_",
          "type": "address"
        }
      ],
      "name": "getVaultId",
      "outputs": [
        {
          "internalType": "uint256",
          "name": "id_",
          "type": "uint256"
        }
      ],
      "stateMutability": "view",
      "type": "function"
    },
    {
      "inputs": [
        {
          "internalType": "address",
          "name": "vault_",
          "type": "address"
        },
        {
          "internalType": "uint256",
          "name": "tokenInAmt_",
          "type": "uint256"
        }
      ],
      "name": "getVaultLiquidation",
      "outputs": [
        {
          "components": [
            {
              "internalType": "address",
              "name": "vault",
              "type": "address"
            },
            {
              "internalType": "address",
              "name": "tokenIn",
              "type": "address"
            },
            {
              "internalType": "address",
              "name": "tokenOut",
              "type": "address"
            },
            {
              "internalType": "uint256",
              "name": "tokenInAmtOne",
              "type": "uint256"
            },
            {
              "internalType": "uint256",
              "name": "tokenOutAmtOne",
              "type": "uint256"
            },
            {
              "internalType": "uint256",
              "name": "tokenInAmtTwo",
              "type": "uint256"
            },
            {
              "internalType": "uint256",
              "name": "tokenOutAmtTwo",
              "type": "uint256"
            }
          ],
          "internalType": "struct Structs.LiquidationStruct",
          "name": "liquidationData_",
          "type": "tuple"
        }
      ],
      "stateMutability": "nonpayable",
      "type": "function"
    },
    {
      "inputs": [
        {
          "internalType": "address",
          "name": "vault_",
          "type": "address"
        }
      ],
      "name": "getVaultState",
      "outputs": [
        {
          "components": [
            {
              "internalType": "uint256",
              "name": "totalPositions",
              "type": "uint256"
            },
            {
              "internalType": "int256",
              "name": "topTick",
              "type": "int256"
            },
            {
              "internalType": "uint256",
              "name": "currentBranch",
              "type": "uint256"
            },
            {
              "internalType": "uint256",
              "name": "totalBranch",
              "type": "uint256"
            },
            {
              "internalType": "uint256",
              "name": "totalBorrow",
              "type": "uint256"
            },
            {
              "internalType": "uint256",
              "name": "totalSupply",
              "type": "uint256"
            },
            {
              "components": [
                {
                  "internalType": "uint256",
                  "name": "status",
                  "type": "uint256"
                },
                {
                  "internalType": "int256",
                  "name": "minimaTick",
                  "type": "int256"
                },
                {
                  "internalType": "uint256",
                  "name": "debtFactor",
                  "type": "uint256"
                },
                {
                  "internalType": "uint256",
                  "name": "partials",
                  "type": "uint256"
                },
                {
                  "internalType": "uint256",
                  "name": "debtLiquidity",
                  "type": "uint256"
                },
                {
                  "internalType": "uint256",
                  "name": "baseBranchId",
                  "type": "uint256"
                },
                {
                  "internalType": "int256",
                  "name": "baseBranchMinima",
                  "type": "int256"
                }
              ],
              "internalType": "struct Structs.CurrentBranchState",
              "name": "currentBranchState",
              "type": "tuple"
            }
          ],
          "internalType": "struct Structs.VaultState",
          "name": "vaultState_",
          "type": "tuple"
        }
      ],
      "stateMutability": "view",
      "type": "function"
    },
    {
      "inputs": [
        {
          "internalType": "address",
          "name": "vault_",
          "type": "address"
        }
      ],
      "name": "getVaultVariables2Raw",
      "outputs": [
        {
          "internalType": "uint256",
          "name": "",
          "type": "uint256"
        }
      ],
      "stateMutability": "view",
      "type": "function"
    },
    {
      "inputs": [
        {
          "internalType": "address",
          "name": "vault_",
          "type": "address"
        }
      ],
      "name": "getVaultVariablesRaw",
      "outputs": [
        {
          "internalType": "uint256",
          "name": "",
          "type": "uint256"
        }
      ],
      "stateMutability": "view",
      "type": "function"
    },
    {
      "inputs": [],
      "name": "getVaultsAbsorb",
      "outputs": [
        {
          "components": [
            {
              "internalType": "address",
              "name": "vault",
              "type": "address"
            },
            {
              "internalType": "bool",
              "name": "absorbAvailable",
              "type": "bool"
            }
          ],
          "internalType": "struct Structs.AbsorbStruct[]",
          "name": "absorbData_",
          "type": "tuple[]"
        }
      ],
      "stateMutability": "nonpayable",
      "type": "function"
    },
    {
      "inputs": [
        {
          "internalType": "address[]",
          "name": "vaults_",
          "type": "address[]"
        }
      ],
      "name": "getVaultsAbsorb",
      "outputs": [
        {
          "components": [
            {
              "internalType": "address",
              "name": "vault",
              "type": "address"
            },
            {
              "internalType": "bool",
              "name": "absorbAvailable",
              "type": "bool"
            }
          ],
          "internalType": "struct Structs.AbsorbStruct[]",
          "name": "absorbData_",
          "type": "tuple[]"
        }
      ],
      "stateMutability": "nonpayable",
      "type": "function"
    },
    {
      "inputs": [
        {
          "internalType": "address[]",
          "name": "vaults_",
          "type": "address[]"
        }
      ],
      "name": "getVaultsEntireData",
      "outputs": [
        {
          "components": [
            {
              "internalType": "address",
              "name": "vault",
              "type": "address"
            },
            {
              "components": [
                {
                  "internalType": "address",
                  "name": "liquidity",
                  "type": "address"
                },
                {
                  "internalType": "address",
                  "name": "factory",
                  "type": "address"
                },
                {
                  "internalType": "address",
                  "name": "adminImplementation",
                  "type": "address"
                },
                {
                  "internalType": "address",
                  "name": "secondaryImplementation",
                  "type": "address"
                },
                {
                  "internalType": "address",
                  "name": "supplyToken",
                  "type": "address"
                },
                {
                  "internalType": "address",
                  "name": "borrowToken",
                  "type": "address"
                },
                {
                  "internalType": "uint8",
                  "name": "supplyDecimals",
                  "type": "uint8"
                },
                {
                  "internalType": "uint8",
                  "name": "borrowDecimals",
                  "type": "uint8"
                },
                {
                  "internalType": "uint256",
                  "name": "vaultId",
                  "type": "uint256"
                },
                {
                  "internalType": "bytes32",
                  "name": "liquiditySupplyExchangePriceSlot",
                  "type": "bytes32"
                },
                {
                  "internalType": "bytes32",
                  "name": "liquidityBorrowExchangePriceSlot",
                  "type": "bytes32"
                },
                {
                  "internalType": "bytes32",
                  "name": "liquidityUserSupplySlot",
                  "type": "bytes32"
                },
                {
                  "internalType": "bytes32",
                  "name": "liquidityUserBorrowSlot",
                  "type": "bytes32"
                }
              ],
              "internalType": "struct IFluidVaultT1.ConstantViews",
              "name": "constantVariables",
              "type": "tuple"
            },
            {
              "components": [
                {
                  "internalType": "uint16",
                  "name": "supplyRateMagnifier",
                  "type": "uint16"
                },
                {
                  "internalType": "uint16",
                  "name": "borrowRateMagnifier",
                  "type": "uint16"
                },
                {
                  "internalType": "uint16",
                  "name": "collateralFactor",
                  "type": "uint16"
                },
                {
                  "internalType": "uint16",
                  "name": "liquidationThreshold",
                  "type": "uint16"
                },
                {
                  "internalType": "uint16",
                  "name": "liquidationMaxLimit",
                  "type": "uint16"
                },
                {
                  "internalType": "uint16",
                  "name": "withdrawalGap",
                  "type": "uint16"
                },
                {
                  "internalType": "uint16",
                  "name": "liquidationPenalty",
                  "type": "uint16"
                },
                {
                  "internalType": "uint16",
                  "name": "borrowFee",
                  "type": "uint16"
                },
                {
                  "internalType": "address",
                  "name": "oracle",
                  "type": "address"
                },
                {
                  "internalType": "uint256",
                  "name": "oraclePriceOperate",
                  "type": "uint256"
                },
                {
                  "internalType": "uint256",
                  "name": "oraclePriceLiquidate",
                  "type": "uint256"
                },
                {
                  "internalType": "address",
                  "name": "rebalancer",
                  "type": "address"
                }
              ],
              "internalType": "struct Structs.Configs",
              "name": "configs",
              "type": "tuple"
            },
            {
              "components": [
                {
                  "internalType": "uint256",
                  "name": "lastStoredLiquiditySupplyExchangePrice",
                  "type": "uint256"
                },
                {
                  "internalType": "uint256",
                  "name": "lastStoredLiquidityBorrowExchangePrice",
                  "type": "uint256"
                },
                {
                  "internalType": "uint256",
                  "name": "lastStoredVaultSupplyExchangePrice",
                  "type": "uint256"
                },
                {
                  "internalType": "uint256",
                  "name": "lastStoredVaultBorrowExchangePrice",
                  "type": "uint256"
                },
                {
                  "internalType": "uint256",
                  "name": "liquiditySupplyExchangePrice",
                  "type": "uint256"
                },
                {
                  "internalType": "uint256",
                  "name": "liquidityBorrowExchangePrice",
                  "type": "uint256"
                },
                {
                  "internalType": "uint256",
                  "name": "vaultSupplyExchangePrice",
                  "type": "uint256"
                },
                {
                  "internalType": "uint256",
                  "name": "vaultBorrowExchangePrice",
                  "type": "uint256"
                },
                {
                  "internalType": "uint256",
                  "name": "supplyRateVault",
                  "type": "uint256"
                },
                {
                  "internalType": "uint256",
                  "name": "borrowRateVault",
                  "type": "uint256"
                },
                {
                  "internalType": "uint256",
                  "name": "supplyRateLiquidity",
                  "type": "uint256"
                },
                {
                  "internalType": "uint256",
                  "name": "borrowRateLiquidity",
                  "type": "uint256"
                },
                {
                  "internalType": "uint256",
                  "name": "rewardsRate",
                  "type": "uint256"
                }
              ],
              "internalType": "struct Structs.ExchangePricesAndRates",
              "name": "exchangePricesAndRates",
              "type": "tuple"
            },
            {
              "components": [
                {
                  "internalType": "uint256",
                  "name": "totalSupplyVault",
                  "type": "uint256"
                },
                {
                  "internalType": "uint256",
                  "name": "totalBorrowVault",
                  "type": "uint256"
                },
                {
                  "internalType": "uint256",
                  "name": "totalSupplyLiquidity",
                  "type": "uint256"
                },
                {
                  "internalType": "uint256",
                  "name": "totalBorrowLiquidity",
                  "type": "uint256"
                },
                {
                  "internalType": "uint256",
                  "name": "absorbedSupply",
                  "type": "uint256"
                },
                {
                  "internalType": "uint256",
                  "name": "absorbedBorrow",
                  "type": "uint256"
                }
              ],
              "internalType": "struct Structs.TotalSupplyAndBorrow",
              "name": "totalSupplyAndBorrow",
              "type": "tuple"
            },
            {
              "components": [
                {
                  "internalType": "uint256",
                  "name": "withdrawLimit",
                  "type": "uint256"
                },
                {
                  "internalType": "uint256",
                  "name": "withdrawableUntilLimit",
                  "type": "uint256"
                },
                {
                  "internalType": "uint256",
                  "name": "withdrawable",
                  "type": "uint256"
                },
                {
                  "internalType": "uint256",
                  "name": "borrowLimit",
                  "type": "uint256"
                },
                {
                  "internalType": "uint256",
                  "name": "borrowableUntilLimit",
                  "type": "uint256"
                },
                {
                  "internalType": "uint256",
                  "name": "borrowable",
                  "type": "uint256"
                },
                {
                  "internalType": "uint256",
                  "name": "borrowLimitUtilization",
                  "type": "uint256"
                },
                {
                  "internalType": "uint256",
                  "name": "minimumBorrowing",
                  "type": "uint256"
                }
              ],
              "internalType": "struct Structs.LimitsAndAvailability",
              "name": "limitsAndAvailability",
              "type": "tuple"
            },
            {
              "components": [
                {
                  "internalType": "uint256",
                  "name": "totalPositions",
                  "type": "uint256"
                },
                {
                  "internalType": "int256",
                  "name": "topTick",
                  "type": "int256"
                },
                {
                  "internalType": "uint256",
                  "name": "currentBranch",
                  "type": "uint256"
                },
                {
                  "internalType": "uint256",
                  "name": "totalBranch",
                  "type": "uint256"
                },
                {
                  "internalType": "uint256",
                  "name": "totalBorrow",
                  "type": "uint256"
                },
                {
                  "internalType": "uint256",
                  "name": "totalSupply",
                  "type": "uint256"
                },
                {
                  "components": [
                    {
                      "internalType": "uint256",
                      "name": "status",
                      "type": "uint256"
                    },
                    {
                      "internalType": "int256",
                      "name": "minimaTick",
                      "type": "int256"
                    },
                    {
                      "internalType": "uint256",
                      "name": "debtFactor",
                      "type": "uint256"
                    },
                    {
                      "internalType": "uint256",
                      "name": "partials",
                      "type": "uint256"
                    },
                    {
                      "internalType": "uint256",
                      "name": "debtLiquidity",
                      "type": "uint256"
                    },
                    {
                      "internalType": "uint256",
                      "name": "baseBranchId",
                      "type": "uint256"
                    },
                    {
                      "internalType": "int256",
                      "name": "baseBranchMinima",
                      "type": "int256"
                    }
                  ],
                  "internalType": "struct Structs.CurrentBranchState",
                  "name": "currentBranchState",
                  "type": "tuple"
                }
              ],
              "internalType": "struct Structs.VaultState",
              "name": "vaultState",
              "type": "tuple"
            },
            {
              "components": [
                {
                  "internalType": "bool",
                  "name": "modeWithInterest",
                  "type": "bool"
                },
                {
                  "internalType": "uint256",
                  "name": "supply",
                  "type": "uint256"
                },
                {
                  "internalType": "uint256",
                  "name": "withdrawalLimit",
                  "type": "uint256"
                },
                {
                  "internalType": "uint256",
                  "name": "lastUpdateTimestamp",
                  "type": "uint256"
                },
                {
                  "internalType": "uint256",
                  "name": "expandPercent",
                  "type": "uint256"
                },
                {
                  "internalType": "uint256",
                  "name": "expandDuration",
                  "type": "uint256"
                },
                {
                  "internalType": "uint256",
                  "name": "baseWithdrawalLimit",
                  "type": "uint256"
                },
                {
                  "internalType": "uint256",
                  "name": "withdrawableUntilLimit",
                  "type": "uint256"
                },
                {
                  "internalType": "uint256",
                  "name": "withdrawable",
                  "type": "uint256"
                }
              ],
              "internalType": "struct Structs.UserSupplyData",
              "name": "liquidityUserSupplyData",
              "type": "tuple"
            },
            {
              "components": [
                {
                  "internalType": "bool",
                  "name": "modeWithInterest",
                  "type": "bool"
                },
                {
                  "internalType": "uint256",
                  "name": "borrow",
                  "type": "uint256"
                },
                {
                  "internalType": "uint256",
                  "name": "borrowLimit",
                  "type": "uint256"
                },
                {
                  "internalType": "uint256",
                  "name": "lastUpdateTimestamp",
                  "type": "uint256"
                },
                {
                  "internalType": "uint256",
                  "name": "expandPercent",
                  "type": "uint256"
                },
                {
                  "internalType": "uint256",
                  "name": "expandDuration",
                  "type": "uint256"
                },
                {
                  "internalType": "uint256",
                  "name": "baseBorrowLimit",
                  "type": "uint256"
                },
                {
                  "internalType": "uint256",
                  "name": "maxBorrowLimit",
                  "type": "uint256"
                },
                {
                  "internalType": "uint256",
                  "name": "borrowableUntilLimit",
                  "type": "uint256"
                },
                {
                  "internalType": "uint256",
                  "name": "borrowable",
                  "type": "uint256"
                },
                {
                  "internalType": "uint256",
                  "name": "borrowLimitUtilization",
                  "type": "uint256"
                }
              ],
              "internalType": "struct Structs.UserBorrowData",
              "name": "liquidityUserBorrowData",
              "type": "tuple"
            }
          ],
          "internalType": "struct Structs.VaultEntireData[]",
          "name": "vaultsData_",
          "type": "tuple[]"
        }
      ],
      "stateMutability": "view",
      "type": "function"
    },
    {
      "inputs": [],
      "name": "getVaultsEntireData",
      "outputs": [
        {
          "components": [
            {
              "internalType": "address",
              "name": "vault",
              "type": "address"
            },
            {
              "components": [
                {
                  "internalType": "address",
                  "name": "liquidity",
                  "type": "address"
                },
                {
                  "internalType": "address",
                  "name": "factory",
                  "type": "address"
                },
                {
                  "internalType": "address",
                  "name": "adminImplementation",
                  "type": "address"
                },
                {
                  "internalType": "address",
                  "name": "secondaryImplementation",
                  "type": "address"
                },
                {
                  "internalType": "address",
                  "name": "supplyToken",
                  "type": "address"
                },
                {
                  "internalType": "address",
                  "name": "borrowToken",
                  "type": "address"
                },
                {
                  "internalType": "uint8",
                  "name": "supplyDecimals",
                  "type": "uint8"
                },
                {
                  "internalType": "uint8",
                  "name": "borrowDecimals",
                  "type": "uint8"
                },
                {
                  "internalType": "uint256",
                  "name": "vaultId",
                  "type": "uint256"
                },
                {
                  "internalType": "bytes32",
                  "name": "liquiditySupplyExchangePriceSlot",
                  "type": "bytes32"
                },
                {
                  "internalType": "bytes32",
                  "name": "liquidityBorrowExchangePriceSlot",
                  "type": "bytes32"
                },
                {
                  "internalType": "bytes32",
                  "name": "liquidityUserSupplySlot",
                  "type": "bytes32"
                },
                {
                  "internalType": "bytes32",
                  "name": "liquidityUserBorrowSlot",
                  "type": "bytes32"
                }
              ],
              "internalType": "struct IFluidVaultT1.ConstantViews",
              "name": "constantVariables",
              "type": "tuple"
            },
            {
              "components": [
                {
                  "internalType": "uint16",
                  "name": "supplyRateMagnifier",
                  "type": "uint16"
                },
                {
                  "internalType": "uint16",
                  "name": "borrowRateMagnifier",
                  "type": "uint16"
                },
                {
                  "internalType": "uint16",
                  "name": "collateralFactor",
                  "type": "uint16"
                },
                {
                  "internalType": "uint16",
                  "name": "liquidationThreshold",
                  "type": "uint16"
                },
                {
                  "internalType": "uint16",
                  "name": "liquidationMaxLimit",
                  "type": "uint16"
                },
                {
                  "internalType": "uint16",
                  "name": "withdrawalGap",
                  "type": "uint16"
                },
                {
                  "internalType": "uint16",
                  "name": "liquidationPenalty",
                  "type": "uint16"
                },
                {
                  "internalType": "uint16",
                  "name": "borrowFee",
                  "type": "uint16"
                },
                {
                  "internalType": "address",
                  "name": "oracle",
                  "type": "address"
                },
                {
                  "internalType": "uint256",
                  "name": "oraclePriceOperate",
                  "type": "uint256"
                },
                {
                  "internalType": "uint256",
                  "name": "oraclePriceLiquidate",
                  "type": "uint256"
                },
                {
                  "internalType": "address",
                  "name": "rebalancer",
                  "type": "address"
                }
              ],
              "internalType": "struct Structs.Configs",
              "name": "configs",
              "type": "tuple"
            },
            {
              "components": [
                {
                  "internalType": "uint256",
                  "name": "lastStoredLiquiditySupplyExchangePrice",
                  "type": "uint256"
                },
                {
                  "internalType": "uint256",
                  "name": "lastStoredLiquidityBorrowExchangePrice",
                  "type": "uint256"
                },
                {
                  "internalType": "uint256",
                  "name": "lastStoredVaultSupplyExchangePrice",
                  "type": "uint256"
                },
                {
                  "internalType": "uint256",
                  "name": "lastStoredVaultBorrowExchangePrice",
                  "type": "uint256"
                },
                {
                  "internalType": "uint256",
                  "name": "liquiditySupplyExchangePrice",
                  "type": "uint256"
                },
                {
                  "internalType": "uint256",
                  "name": "liquidityBorrowExchangePrice",
                  "type": "uint256"
                },
                {
                  "internalType": "uint256",
                  "name": "vaultSupplyExchangePrice",
                  "type": "uint256"
                },
                {
                  "internalType": "uint256",
                  "name": "vaultBorrowExchangePrice",
                  "type": "uint256"
                },
                {
                  "internalType": "uint256",
                  "name": "supplyRateVault",
                  "type": "uint256"
                },
                {
                  "internalType": "uint256",
                  "name": "borrowRateVault",
                  "type": "uint256"
                },
                {
                  "internalType": "uint256",
                  "name": "supplyRateLiquidity",
                  "type": "uint256"
                },
                {
                  "internalType": "uint256",
                  "name": "borrowRateLiquidity",
                  "type": "uint256"
                },
                {
                  "internalType": "uint256",
                  "name": "rewardsRate",
                  "type": "uint256"
                }
              ],
              "internalType": "struct Structs.ExchangePricesAndRates",
              "name": "exchangePricesAndRates",
              "type": "tuple"
            },
            {
              "components": [
                {
                  "internalType": "uint256",
                  "name": "totalSupplyVault",
                  "type": "uint256"
                },
                {
                  "internalType": "uint256",
                  "name": "totalBorrowVault",
                  "type": "uint256"
                },
                {
                  "internalType": "uint256",
                  "name": "totalSupplyLiquidity",
                  "type": "uint256"
                },
                {
                  "internalType": "uint256",
                  "name": "totalBorrowLiquidity",
                  "type": "uint256"
                },
                {
                  "internalType": "uint256",
                  "name": "absorbedSupply",
                  "type": "uint256"
                },
                {
                  "internalType": "uint256",
                  "name": "absorbedBorrow",
                  "type": "uint256"
                }
              ],
              "internalType": "struct Structs.TotalSupplyAndBorrow",
              "name": "totalSupplyAndBorrow",
              "type": "tuple"
            },
            {
              "components": [
                {
                  "internalType": "uint256",
                  "name": "withdrawLimit",
                  "type": "uint256"
                },
                {
                  "internalType": "uint256",
                  "name": "withdrawableUntilLimit",
                  "type": "uint256"
                },
                {
                  "internalType": "uint256",
                  "name": "withdrawable",
                  "type": "uint256"
                },
                {
                  "internalType": "uint256",
                  "name": "borrowLimit",
                  "type": "uint256"
                },
                {
                  "internalType": "uint256",
                  "name": "borrowableUntilLimit",
                  "type": "uint256"
                },
                {
                  "internalType": "uint256",
                  "name": "borrowable",
                  "type": "uint256"
                },
                {
                  "internalType": "uint256",
                  "name": "borrowLimitUtilization",
                  "type": "uint256"
                },
                {
                  "internalType": "uint256",
                  "name": "minimumBorrowing",
                  "type": "uint256"
                }
              ],
              "internalType": "struct Structs.LimitsAndAvailability",
              "name": "limitsAndAvailability",
              "type": "tuple"
            },
            {
              "components": [
                {
                  "internalType": "uint256",
                  "name": "totalPositions",
                  "type": "uint256"
                },
                {
                  "internalType": "int256",
                  "name": "topTick",
                  "type": "int256"
                },
                {
                  "internalType": "uint256",
                  "name": "currentBranch",
                  "type": "uint256"
                },
                {
                  "internalType": "uint256",
                  "name": "totalBranch",
                  "type": "uint256"
                },
                {
                  "internalType": "uint256",
                  "name": "totalBorrow",
                  "type": "uint256"
                },
                {
                  "internalType": "uint256",
                  "name": "totalSupply",
                  "type": "uint256"
                },
                {
                  "components": [
                    {
                      "internalType": "uint256",
                      "name": "status",
                      "type": "uint256"
                    },
                    {
                      "internalType": "int256",
                      "name": "minimaTick",
                      "type": "int256"
                    },
                    {
                      "internalType": "uint256",
                      "name": "debtFactor",
                      "type": "uint256"
                    },
                    {
                      "internalType": "uint256",
                      "name": "partials",
                      "type": "uint256"
                    },
                    {
                      "internalType": "uint256",
                      "name": "debtLiquidity",
                      "type": "uint256"
                    },
                    {
                      "internalType": "uint256",
                      "name": "baseBranchId",
                      "type": "uint256"
                    },
                    {
                      "internalType": "int256",
                      "name": "baseBranchMinima",
                      "type": "int256"
                    }
                  ],
                  "internalType": "struct Structs.CurrentBranchState",
                  "name": "currentBranchState",
                  "type": "tuple"
                }
              ],
              "internalType": "struct Structs.VaultState",
              "name": "vaultState",
              "type": "tuple"
            },
            {
              "components": [
                {
                  "internalType": "bool",
                  "name": "modeWithInterest",
                  "type": "bool"
                },
                {
                  "internalType": "uint256",
                  "name": "supply",
                  "type": "uint256"
                },
                {
                  "internalType": "uint256",
                  "name": "withdrawalLimit",
                  "type": "uint256"
                },
                {
                  "internalType": "uint256",
                  "name": "lastUpdateTimestamp",
                  "type": "uint256"
                },
                {
                  "internalType": "uint256",
                  "name": "expandPercent",
                  "type": "uint256"
                },
                {
                  "internalType": "uint256",
                  "name": "expandDuration",
                  "type": "uint256"
                },
                {
                  "internalType": "uint256",
                  "name": "baseWithdrawalLimit",
                  "type": "uint256"
                },
                {
                  "internalType": "uint256",
                  "name": "withdrawableUntilLimit",
                  "type": "uint256"
                },
                {
                  "internalType": "uint256",
                  "name": "withdrawable",
                  "type": "uint256"
                }
              ],
              "internalType": "struct Structs.UserSupplyData",
              "name": "liquidityUserSupplyData",
              "type": "tuple"
            },
            {
              "components": [
                {
                  "internalType": "bool",
                  "name": "modeWithInterest",
                  "type": "bool"
                },
                {
                  "internalType": "uint256",
                  "name": "borrow",
                  "type": "uint256"
                },
                {
                  "internalType": "uint256",
                  "name": "borrowLimit",
                  "type": "uint256"
                },
                {
                  "internalType": "uint256",
                  "name": "lastUpdateTimestamp",
                  "type": "uint256"
                },
                {
                  "internalType": "uint256",
                  "name": "expandPercent",
                  "type": "uint256"
                },
                {
                  "internalType": "uint256",
                  "name": "expandDuration",
                  "type": "uint256"
                },
                {
                  "internalType": "uint256",
                  "name": "baseBorrowLimit",
                  "type": "uint256"
                },
                {
                  "internalType": "uint256",
                  "name": "maxBorrowLimit",
                  "type": "uint256"
                },
                {
                  "internalType": "uint256",
                  "name": "borrowableUntilLimit",
                  "type": "uint256"
                },
                {
                  "internalType": "uint256",
                  "name": "borrowable",
                  "type": "uint256"
                },
                {
                  "internalType": "uint256",
                  "name": "borrowLimitUtilization",
                  "type": "uint256"
                }
              ],
              "internalType": "struct Structs.UserBorrowData",
              "name": "liquidityUserBorrowData",
              "type": "tuple"
            }
          ],
          "internalType": "struct Structs.VaultEntireData[]",
          "name": "vaultsData_",
          "type": "tuple[]"
        }
      ],
      "stateMutability": "view",
      "type": "function"
    },
    {
      "inputs": [
        {
          "internalType": "uint256",
          "name": "slot_",
          "type": "uint256"
        }
      ],
      "name": "normalSlot",
      "outputs": [
        {
          "internalType": "bytes32",
          "name": "",
          "type": "bytes32"
        }
      ],
      "stateMutability": "pure",
      "type": "function"
    },
    {
      "inputs": [
        {
          "internalType": "uint256",
          "name": "nftId_",
          "type": "uint256"
        }
      ],
      "name": "positionByNftId",
      "outputs": [
        {
          "components": [
            {
              "internalType": "uint256",
              "name": "nftId",
              "type": "uint256"
            },
            {
              "internalType": "address",
              "name": "owner",
              "type": "address"
            },
            {
              "internalType": "bool",
              "name": "isLiquidated",
              "type": "bool"
            },
            {
              "internalType": "bool",
              "name": "isSupplyPosition",
              "type": "bool"
            },
            {
              "internalType": "int256",
              "name": "tick",
              "type": "int256"
            },
            {
              "internalType": "uint256",
              "name": "tickId",
              "type": "uint256"
            },
            {
              "internalType": "uint256",
              "name": "beforeSupply",
              "type": "uint256"
            },
            {
              "internalType": "uint256",
              "name": "beforeBorrow",
              "type": "uint256"
            },
            {
              "internalType": "uint256",
              "name": "beforeDustBorrow",
              "type": "uint256"
            },
            {
              "internalType": "uint256",
              "name": "supply",
              "type": "uint256"
            },
            {
              "internalType": "uint256",
              "name": "borrow",
              "type": "uint256"
            },
            {
              "internalType": "uint256",
              "name": "dustBorrow",
              "type": "uint256"
            }
          ],
          "internalType": "struct Structs.UserPosition",
          "name": "userPosition_",
          "type": "tuple"
        },
        {
          "components": [
            {
              "internalType": "address",
              "name": "vault",
              "type": "address"
            },
            {
              "components": [
                {
                  "internalType": "address",
                  "name": "liquidity",
                  "type": "address"
                },
                {
                  "internalType": "address",
                  "name": "factory",
                  "type": "address"
                },
                {
                  "internalType": "address",
                  "name": "adminImplementation",
                  "type": "address"
                },
                {
                  "internalType": "address",
                  "name": "secondaryImplementation",
                  "type": "address"
                },
                {
                  "internalType": "address",
                  "name": "supplyToken",
                  "type": "address"
                },
                {
                  "internalType": "address",
                  "name": "borrowToken",
                  "type": "address"
                },
                {
                  "internalType": "uint8",
                  "name": "supplyDecimals",
                  "type": "uint8"
                },
                {
                  "internalType": "uint8",
                  "name": "borrowDecimals",
                  "type": "uint8"
                },
                {
                  "internalType": "uint256",
                  "name": "vaultId",
                  "type": "uint256"
                },
                {
                  "internalType": "bytes32",
                  "name": "liquiditySupplyExchangePriceSlot",
                  "type": "bytes32"
                },
                {
                  "internalType": "bytes32",
                  "name": "liquidityBorrowExchangePriceSlot",
                  "type": "bytes32"
                },
                {
                  "internalType": "bytes32",
                  "name": "liquidityUserSupplySlot",
                  "type": "bytes32"
                },
                {
                  "internalType": "bytes32",
                  "name": "liquidityUserBorrowSlot",
                  "type": "bytes32"
                }
              ],
              "internalType": "struct IFluidVaultT1.ConstantViews",
              "name": "constantVariables",
              "type": "tuple"
            },
            {
              "components": [
                {
                  "internalType": "uint16",
                  "name": "supplyRateMagnifier",
                  "type": "uint16"
                },
                {
                  "internalType": "uint16",
                  "name": "borrowRateMagnifier",
                  "type": "uint16"
                },
                {
                  "internalType": "uint16",
                  "name": "collateralFactor",
                  "type": "uint16"
                },
                {
                  "internalType": "uint16",
                  "name": "liquidationThreshold",
                  "type": "uint16"
                },
                {
                  "internalType": "uint16",
                  "name": "liquidationMaxLimit",
                  "type": "uint16"
                },
                {
                  "internalType": "uint16",
                  "name": "withdrawalGap",
                  "type": "uint16"
                },
                {
                  "internalType": "uint16",
                  "name": "liquidationPenalty",
                  "type": "uint16"
                },
                {
                  "internalType": "uint16",
                  "name": "borrowFee",
                  "type": "uint16"
                },
                {
                  "internalType": "address",
                  "name": "oracle",
                  "type": "address"
                },
                {
                  "internalType": "uint256",
                  "name": "oraclePriceOperate",
                  "type": "uint256"
                },
                {
                  "internalType": "uint256",
                  "name": "oraclePriceLiquidate",
                  "type": "uint256"
                },
                {
                  "internalType": "address",
                  "name": "rebalancer",
                  "type": "address"
                }
              ],
              "internalType": "struct Structs.Configs",
              "name": "configs",
              "type": "tuple"
            },
            {
              "components": [
                {
                  "internalType": "uint256",
                  "name": "lastStoredLiquiditySupplyExchangePrice",
                  "type": "uint256"
                },
                {
                  "internalType": "uint256",
                  "name": "lastStoredLiquidityBorrowExchangePrice",
                  "type": "uint256"
                },
                {
                  "internalType": "uint256",
                  "name": "lastStoredVaultSupplyExchangePrice",
                  "type": "uint256"
                },
                {
                  "internalType": "uint256",
                  "name": "lastStoredVaultBorrowExchangePrice",
                  "type": "uint256"
                },
                {
                  "internalType": "uint256",
                  "name": "liquiditySupplyExchangePrice",
                  "type": "uint256"
                },
                {
                  "internalType": "uint256",
                  "name": "liquidityBorrowExchangePrice",
                  "type": "uint256"
                },
                {
                  "internalType": "uint256",
                  "name": "vaultSupplyExchangePrice",
                  "type": "uint256"
                },
                {
                  "internalType": "uint256",
                  "name": "vaultBorrowExchangePrice",
                  "type": "uint256"
                },
                {
                  "internalType": "uint256",
                  "name": "supplyRateVault",
                  "type": "uint256"
                },
                {
                  "internalType": "uint256",
                  "name": "borrowRateVault",
                  "type": "uint256"
                },
                {
                  "internalType": "uint256",
                  "name": "supplyRateLiquidity",
                  "type": "uint256"
                },
                {
                  "internalType": "uint256",
                  "name": "borrowRateLiquidity",
                  "type": "uint256"
                },
                {
                  "internalType": "uint256",
                  "name": "rewardsRate",
                  "type": "uint256"
                }
              ],
              "internalType": "struct Structs.ExchangePricesAndRates",
              "name": "exchangePricesAndRates",
              "type": "tuple"
            },
            {
              "components": [
                {
                  "internalType": "uint256",
                  "name": "totalSupplyVault",
                  "type": "uint256"
                },
                {
                  "internalType": "uint256",
                  "name": "totalBorrowVault",
                  "type": "uint256"
                },
                {
                  "internalType": "uint256",
                  "name": "totalSupplyLiquidity",
                  "type": "uint256"
                },
                {
                  "internalType": "uint256",
                  "name": "totalBorrowLiquidity",
                  "type": "uint256"
                },
                {
                  "internalType": "uint256",
                  "name": "absorbedSupply",
                  "type": "uint256"
                },
                {
                  "internalType": "uint256",
                  "name": "absorbedBorrow",
                  "type": "uint256"
                }
              ],
              "internalType": "struct Structs.TotalSupplyAndBorrow",
              "name": "totalSupplyAndBorrow",
              "type": "tuple"
            },
            {
              "components": [
                {
                  "internalType": "uint256",
                  "name": "withdrawLimit",
                  "type": "uint256"
                },
                {
                  "internalType": "uint256",
                  "name": "withdrawableUntilLimit",
                  "type": "uint256"
                },
                {
                  "internalType": "uint256",
                  "name": "withdrawable",
                  "type": "uint256"
                },
                {
                  "internalType": "uint256",
                  "name": "borrowLimit",
                  "type": "uint256"
                },
                {
                  "internalType": "uint256",
                  "name": "borrowableUntilLimit",
                  "type": "uint256"
                },
                {
                  "internalType": "uint256",
                  "name": "borrowable",
                  "type": "uint256"
                },
                {
                  "internalType": "uint256",
                  "name": "borrowLimitUtilization",
                  "type": "uint256"
                },
                {
                  "internalType": "uint256",
                  "name": "minimumBorrowing",
                  "type": "uint256"
                }
              ],
              "internalType": "struct Structs.LimitsAndAvailability",
              "name": "limitsAndAvailability",
              "type": "tuple"
            },
            {
              "components": [
                {
                  "internalType": "uint256",
                  "name": "totalPositions",
                  "type": "uint256"
                },
                {
                  "internalType": "int256",
                  "name": "topTick",
                  "type": "int256"
                },
                {
                  "internalType": "uint256",
                  "name": "currentBranch",
                  "type": "uint256"
                },
                {
                  "internalType": "uint256",
                  "name": "totalBranch",
                  "type": "uint256"
                },
                {
                  "internalType": "uint256",
                  "name": "totalBorrow",
                  "type": "uint256"
                },
                {
                  "internalType": "uint256",
                  "name": "totalSupply",
                  "type": "uint256"
                },
                {
                  "components": [
                    {
                      "internalType": "uint256",
                      "name": "status",
                      "type": "uint256"
                    },
                    {
                      "internalType": "int256",
                      "name": "minimaTick",
                      "type": "int256"
                    },
                    {
                      "internalType": "uint256",
                      "name": "debtFactor",
                      "type": "uint256"
                    },
                    {
                      "internalType": "uint256",
                      "name": "partials",
                      "type": "uint256"
                    },
                    {
                      "internalType": "uint256",
                      "name": "debtLiquidity",
                      "type": "uint256"
                    },
                    {
                      "internalType": "uint256",
                      "name": "baseBranchId",
                      "type": "uint256"
                    },
                    {
                      "internalType": "int256",
                      "name": "baseBranchMinima",
                      "type": "int256"
                    }
                  ],
                  "internalType": "struct Structs.CurrentBranchState",
                  "name": "currentBranchState",
                  "type": "tuple"
                }
              ],
              "internalType": "struct Structs.VaultState",
              "name": "vaultState",
              "type": "tuple"
            },
            {
              "components": [
                {
                  "internalType": "bool",
                  "name": "modeWithInterest",
                  "type": "bool"
                },
                {
                  "internalType": "uint256",
                  "name": "supply",
                  "type": "uint256"
                },
                {
                  "internalType": "uint256",
                  "name": "withdrawalLimit",
                  "type": "uint256"
                },
                {
                  "internalType": "uint256",
                  "name": "lastUpdateTimestamp",
                  "type": "uint256"
                },
                {
                  "internalType": "uint256",
                  "name": "expandPercent",
                  "type": "uint256"
                },
                {
                  "internalType": "uint256",
                  "name": "expandDuration",
                  "type": "uint256"
                },
                {
                  "internalType": "uint256",
                  "name": "baseWithdrawalLimit",
                  "type": "uint256"
                },
                {
                  "internalType": "uint256",
                  "name": "withdrawableUntilLimit",
                  "type": "uint256"
                },
                {
                  "internalType": "uint256",
                  "name": "withdrawable",
                  "type": "uint256"
                }
              ],
              "internalType": "struct Structs.UserSupplyData",
              "name": "liquidityUserSupplyData",
              "type": "tuple"
            },
            {
              "components": [
                {
                  "internalType": "bool",
                  "name": "modeWithInterest",
                  "type": "bool"
                },
                {
                  "internalType": "uint256",
                  "name": "borrow",
                  "type": "uint256"
                },
                {
                  "internalType": "uint256",
                  "name": "borrowLimit",
                  "type": "uint256"
                },
                {
                  "internalType": "uint256",
                  "name": "lastUpdateTimestamp",
                  "type": "uint256"
                },
                {
                  "internalType": "uint256",
                  "name": "expandPercent",
                  "type": "uint256"
                },
                {
                  "internalType": "uint256",
                  "name": "expandDuration",
                  "type": "uint256"
                },
                {
                  "internalType": "uint256",
                  "name": "baseBorrowLimit",
                  "type": "uint256"
                },
                {
                  "internalType": "uint256",
                  "name": "maxBorrowLimit",
                  "type": "uint256"
                },
                {
                  "internalType": "uint256",
                  "name": "borrowableUntilLimit",
                  "type": "uint256"
                },
                {
                  "internalType": "uint256",
                  "name": "borrowable",
                  "type": "uint256"
                },
                {
                  "internalType": "uint256",
                  "name": "borrowLimitUtilization",
                  "type": "uint256"
                }
              ],
              "internalType": "struct Structs.UserBorrowData",
              "name": "liquidityUserBorrowData",
              "type": "tuple"
            }
          ],
          "internalType": "struct Structs.VaultEntireData",
          "name": "vaultData_",
          "type": "tuple"
        }
      ],
      "stateMutability": "view",
      "type": "function"
    },
    {
      "inputs": [
        {
          "internalType": "address",
          "name": "user_",
          "type": "address"
        }
      ],
      "name": "positionsByUser",
      "outputs": [
        {
          "components": [
            {
              "internalType": "uint256",
              "name": "nftId",
              "type": "uint256"
            },
            {
              "internalType": "address",
              "name": "owner",
              "type": "address"
            },
            {
              "internalType": "bool",
              "name": "isLiquidated",
              "type": "bool"
            },
            {
              "internalType": "bool",
              "name": "isSupplyPosition",
              "type": "bool"
            },
            {
              "internalType": "int256",
              "name": "tick",
              "type": "int256"
            },
            {
              "internalType": "uint256",
              "name": "tickId",
              "type": "uint256"
            },
            {
              "internalType": "uint256",
              "name": "beforeSupply",
              "type": "uint256"
            },
            {
              "internalType": "uint256",
              "name": "beforeBorrow",
              "type": "uint256"
            },
            {
              "internalType": "uint256",
              "name": "beforeDustBorrow",
              "type": "uint256"
            },
            {
              "internalType": "uint256",
              "name": "supply",
              "type": "uint256"
            },
            {
              "internalType": "uint256",
              "name": "borrow",
              "type": "uint256"
            },
            {
              "internalType": "uint256",
              "name": "dustBorrow",
              "type": "uint256"
            }
          ],
          "internalType": "struct Structs.UserPosition[]",
          "name": "userPositions_",
          "type": "tuple[]"
        },
        {
          "components": [
            {
              "internalType": "address",
              "name": "vault",
              "type": "address"
            },
            {
              "components": [
                {
                  "internalType": "address",
                  "name": "liquidity",
                  "type": "address"
                },
                {
                  "internalType": "address",
                  "name": "factory",
                  "type": "address"
                },
                {
                  "internalType": "address",
                  "name": "adminImplementation",
                  "type": "address"
                },
                {
                  "internalType": "address",
                  "name": "secondaryImplementation",
                  "type": "address"
                },
                {
                  "internalType": "address",
                  "name": "supplyToken",
                  "type": "address"
                },
                {
                  "internalType": "address",
                  "name": "borrowToken",
                  "type": "address"
                },
                {
                  "internalType": "uint8",
                  "name": "supplyDecimals",
                  "type": "uint8"
                },
                {
                  "internalType": "uint8",
                  "name": "borrowDecimals",
                  "type": "uint8"
                },
                {
                  "internalType": "uint256",
                  "name": "vaultId",
                  "type": "uint256"
                },
                {
                  "internalType": "bytes32",
                  "name": "liquiditySupplyExchangePriceSlot",
                  "type": "bytes32"
                },
                {
                  "internalType": "bytes32",
                  "name": "liquidityBorrowExchangePriceSlot",
                  "type": "bytes32"
                },
                {
                  "internalType": "bytes32",
                  "name": "liquidityUserSupplySlot",
                  "type": "bytes32"
                },
                {
                  "internalType": "bytes32",
                  "name": "liquidityUserBorrowSlot",
                  "type": "bytes32"
                }
              ],
              "internalType": "struct IFluidVaultT1.ConstantViews",
              "name": "constantVariables",
              "type": "tuple"
            },
            {
              "components": [
                {
                  "internalType": "uint16",
                  "name": "supplyRateMagnifier",
                  "type": "uint16"
                },
                {
                  "internalType": "uint16",
                  "name": "borrowRateMagnifier",
                  "type": "uint16"
                },
                {
                  "internalType": "uint16",
                  "name": "collateralFactor",
                  "type": "uint16"
                },
                {
                  "internalType": "uint16",
                  "name": "liquidationThreshold",
                  "type": "uint16"
                },
                {
                  "internalType": "uint16",
                  "name": "liquidationMaxLimit",
                  "type": "uint16"
                },
                {
                  "internalType": "uint16",
                  "name": "withdrawalGap",
                  "type": "uint16"
                },
                {
                  "internalType": "uint16",
                  "name": "liquidationPenalty",
                  "type": "uint16"
                },
                {
                  "internalType": "uint16",
                  "name": "borrowFee",
                  "type": "uint16"
                },
                {
                  "internalType": "address",
                  "name": "oracle",
                  "type": "address"
                },
                {
                  "internalType": "uint256",
                  "name": "oraclePriceOperate",
                  "type": "uint256"
                },
                {
                  "internalType": "uint256",
                  "name": "oraclePriceLiquidate",
                  "type": "uint256"
                },
                {
                  "internalType": "address",
                  "name": "rebalancer",
                  "type": "address"
                }
              ],
              "internalType": "struct Structs.Configs",
              "name": "configs",
              "type": "tuple"
            },
            {
              "components": [
                {
                  "internalType": "uint256",
                  "name": "lastStoredLiquiditySupplyExchangePrice",
                  "type": "uint256"
                },
                {
                  "internalType": "uint256",
                  "name": "lastStoredLiquidityBorrowExchangePrice",
                  "type": "uint256"
                },
                {
                  "internalType": "uint256",
                  "name": "lastStoredVaultSupplyExchangePrice",
                  "type": "uint256"
                },
                {
                  "internalType": "uint256",
                  "name": "lastStoredVaultBorrowExchangePrice",
                  "type": "uint256"
                },
                {
                  "internalType": "uint256",
                  "name": "liquiditySupplyExchangePrice",
                  "type": "uint256"
                },
                {
                  "internalType": "uint256",
                  "name": "liquidityBorrowExchangePrice",
                  "type": "uint256"
                },
                {
                  "internalType": "uint256",
                  "name": "vaultSupplyExchangePrice",
                  "type": "uint256"
                },
                {
                  "internalType": "uint256",
                  "name": "vaultBorrowExchangePrice",
                  "type": "uint256"
                },
                {
                  "internalType": "uint256",
                  "name": "supplyRateVault",
                  "type": "uint256"
                },
                {
                  "internalType": "uint256",
                  "name": "borrowRateVault",
                  "type": "uint256"
                },
                {
                  "internalType": "uint256",
                  "name": "supplyRateLiquidity",
                  "type": "uint256"
                },
                {
                  "internalType": "uint256",
                  "name": "borrowRateLiquidity",
                  "type": "uint256"
                },
                {
                  "internalType": "uint256",
                  "name": "rewardsRate",
                  "type": "uint256"
                }
              ],
              "internalType": "struct Structs.ExchangePricesAndRates",
              "name": "exchangePricesAndRates",
              "type": "tuple"
            },
            {
              "components": [
                {
                  "internalType": "uint256",
                  "name": "totalSupplyVault",
                  "type": "uint256"
                },
                {
                  "internalType": "uint256",
                  "name": "totalBorrowVault",
                  "type": "uint256"
                },
                {
                  "internalType": "uint256",
                  "name": "totalSupplyLiquidity",
                  "type": "uint256"
                },
                {
                  "internalType": "uint256",
                  "name": "totalBorrowLiquidity",
                  "type": "uint256"
                },
                {
                  "internalType": "uint256",
                  "name": "absorbedSupply",
                  "type": "uint256"
                },
                {
                  "internalType": "uint256",
                  "name": "absorbedBorrow",
                  "type": "uint256"
                }
              ],
              "internalType": "struct Structs.TotalSupplyAndBorrow",
              "name": "totalSupplyAndBorrow",
              "type": "tuple"
            },
            {
              "components": [
                {
                  "internalType": "uint256",
                  "name": "withdrawLimit",
                  "type": "uint256"
                },
                {
                  "internalType": "uint256",
                  "name": "withdrawableUntilLimit",
                  "type": "uint256"
                },
                {
                  "internalType": "uint256",
                  "name": "withdrawable",
                  "type": "uint256"
                },
                {
                  "internalType": "uint256",
                  "name": "borrowLimit",
                  "type": "uint256"
                },
                {
                  "internalType": "uint256",
                  "name": "borrowableUntilLimit",
                  "type": "uint256"
                },
                {
                  "internalType": "uint256",
                  "name": "borrowable",
                  "type": "uint256"
                },
                {
                  "internalType": "uint256",
                  "name": "borrowLimitUtilization",
                  "type": "uint256"
                },
                {
                  "internalType": "uint256",
                  "name": "minimumBorrowing",
                  "type": "uint256"
                }
              ],
              "internalType": "struct Structs.LimitsAndAvailability",
              "name": "limitsAndAvailability",
              "type": "tuple"
            },
            {
              "components": [
                {
                  "internalType": "uint256",
                  "name": "totalPositions",
                  "type": "uint256"
                },
                {
                  "internalType": "int256",
                  "name": "topTick",
                  "type": "int256"
                },
                {
                  "internalType": "uint256",
                  "name": "currentBranch",
                  "type": "uint256"
                },
                {
                  "internalType": "uint256",
                  "name": "totalBranch",
                  "type": "uint256"
                },
                {
                  "internalType": "uint256",
                  "name": "totalBorrow",
                  "type": "uint256"
                },
                {
                  "internalType": "uint256",
                  "name": "totalSupply",
                  "type": "uint256"
                },
                {
                  "components": [
                    {
                      "internalType": "uint256",
                      "name": "status",
                      "type": "uint256"
                    },
                    {
                      "internalType": "int256",
                      "name": "minimaTick",
                      "type": "int256"
                    },
                    {
                      "internalType": "uint256",
                      "name": "debtFactor",
                      "type": "uint256"
                    },
                    {
                      "internalType": "uint256",
                      "name": "partials",
                      "type": "uint256"
                    },
                    {
                      "internalType": "uint256",
                      "name": "debtLiquidity",
                      "type": "uint256"
                    },
                    {
                      "internalType": "uint256",
                      "name": "baseBranchId",
                      "type": "uint256"
                    },
                    {
                      "internalType": "int256",
                      "name": "baseBranchMinima",
                      "type": "int256"
                    }
                  ],
                  "internalType": "struct Structs.CurrentBranchState",
                  "name": "currentBranchState",
                  "type": "tuple"
                }
              ],
              "internalType": "struct Structs.VaultState",
              "name": "vaultState",
              "type": "tuple"
            },
            {
              "components": [
                {
                  "internalType": "bool",
                  "name": "modeWithInterest",
                  "type": "bool"
                },
                {
                  "internalType": "uint256",
                  "name": "supply",
                  "type": "uint256"
                },
                {
                  "internalType": "uint256",
                  "name": "withdrawalLimit",
                  "type": "uint256"
                },
                {
                  "internalType": "uint256",
                  "name": "lastUpdateTimestamp",
                  "type": "uint256"
                },
                {
                  "internalType": "uint256",
                  "name": "expandPercent",
                  "type": "uint256"
                },
                {
                  "internalType": "uint256",
                  "name": "expandDuration",
                  "type": "uint256"
                },
                {
                  "internalType": "uint256",
                  "name": "baseWithdrawalLimit",
                  "type": "uint256"
                },
                {
                  "internalType": "uint256",
                  "name": "withdrawableUntilLimit",
                  "type": "uint256"
                },
                {
                  "internalType": "uint256",
                  "name": "withdrawable",
                  "type": "uint256"
                }
              ],
              "internalType": "struct Structs.UserSupplyData",
              "name": "liquidityUserSupplyData",
              "type": "tuple"
            },
            {
              "components": [
                {
                  "internalType": "bool",
                  "name": "modeWithInterest",
                  "type": "bool"
                },
                {
                  "internalType": "uint256",
                  "name": "borrow",
                  "type": "uint256"
                },
                {
                  "internalType": "uint256",
                  "name": "borrowLimit",
                  "type": "uint256"
                },
                {
                  "internalType": "uint256",
                  "name": "lastUpdateTimestamp",
                  "type": "uint256"
                },
                {
                  "internalType": "uint256",
                  "name": "expandPercent",
                  "type": "uint256"
                },
                {
                  "internalType": "uint256",
                  "name": "expandDuration",
                  "type": "uint256"
                },
                {
                  "internalType": "uint256",
                  "name": "baseBorrowLimit",
                  "type": "uint256"
                },
                {
                  "internalType": "uint256",
                  "name": "maxBorrowLimit",
                  "type": "uint256"
                },
                {
                  "internalType": "uint256",
                  "name": "borrowableUntilLimit",
                  "type": "uint256"
                },
                {
                  "internalType": "uint256",
                  "name": "borrowable",
                  "type": "uint256"
                },
                {
                  "internalType": "uint256",
                  "name": "borrowLimitUtilization",
                  "type": "uint256"
                }
              ],
              "internalType": "struct Structs.UserBorrowData",
              "name": "liquidityUserBorrowData",
              "type": "tuple"
            }
          ],
          "internalType": "struct Structs.VaultEntireData[]",
          "name": "vaultsData_",
          "type": "tuple[]"
        }
      ],
      "stateMutability": "view",
      "type": "function"
    },
    {
      "inputs": [
        {
          "internalType": "address",
          "name": "user_",
          "type": "address"
        }
      ],
      "name": "positionsNftIdOfUser",
      "outputs": [
        {
          "internalType": "uint256[]",
          "name": "nftIds_",
          "type": "uint256[]"
        }
      ],
      "stateMutability": "view",
      "type": "function"
    },
    {
      "inputs": [
        {
          "internalType": "uint256",
          "name": "tickRaw_",
          "type": "uint256"
        }
      ],
      "name": "tickHelper",
      "outputs": [
        {
          "internalType": "int256",
          "name": "tick",
          "type": "int256"
        }
      ],
      "stateMutability": "pure",
      "type": "function"
    },
    {
      "inputs": [],
      "name": "totalPositions",
      "outputs": [
        {
          "internalType": "uint256",
          "name": "",
          "type": "uint256"
        }
      ],
      "stateMutability": "view",
      "type": "function"
    },
    {
      "inputs": [
        {
          "internalType": "uint256",
          "name": "nftId_",
          "type": "uint256"
        }
      ],
      "name": "vaultByNftId",
      "outputs": [
        {
          "internalType": "address",
          "name": "vault_",
          "type": "address"
        }
      ],
      "stateMutability": "view",
      "type": "function"
    }
  ],
  "transactionHash": "0xc8d2700b7d0815c3bdc088180e48d2cf7343ac0ed5bf0d25589252922d936cfd",
  "args": [
    "0xCdFbb1DCBb7A9B92c579e8d96dcaD19aC5f755F9",
    "0x52Aa899454998Be5b000Ad077a46Bbe360F4e497",
    "0x46859d33E662d4bF18eEED88f74C36256E606e44"
  ],
  "numDeployments": 1,
  "solcInputHash": "1989963ad64c4704dbe1170530c79d20",
  "bytecode": "0x60e06040523480156200001157600080fd5b50604051620054af380380620054af83398101604081905262000034916200006f565b6001600160a01b0392831660805290821660a0521660c052620000b9565b80516001600160a01b03811681146200006a57600080fd5b919050565b6000806000606084860312156200008557600080fd5b620000908462000052565b9250620000a06020850162000052565b9150620000b06040850162000052565b90509250925092565b60805160a05160c05161532c62000183600039600081816104cd0152818161074a01526108190152600081816103d601528181612f580152818161301b015281816132bb01528181613473015281816134db015281816135b9015281816136e9015261375101526000818161041d01528181610a0301528181610f040152818161193701528181611bd801528181611ef901528181612002015281816123740152818161245c01528181612559015281816126570152818161274b01526128f9015261532c6000f3fe608060405234801561001057600080fd5b50600436106102925760003560e01c80637bbede4311610160578063bf518f5f116100d8578063e6bd26a21161008c578063eb1db01811610071578063eb1db01814610610578063f70b198c14610623578063fda1fa5f1461063657600080fd5b8063e6bd26a2146105ea578063ea19ba11146105fd57600080fd5b8063cbc7be65116100bd578063cbc7be65146105c7578063dd19c0fe146105da578063e06a7b71146105e257600080fd5b8063bf518f5f14610594578063c67b5093146105a757600080fd5b80638bfbeda61161012f5780639d7aeeb4116101145780639d7aeeb41461055b578063a8bc06931461056c578063a8d9f4931461057f57600080fd5b80638bfbeda6146105355780638f8b81f01461054857600080fd5b80637bbede431461043f57806385303304146104ef578063890a1391146105025780638a0038881461052257600080fd5b80632404a3f91161020e578063344bd722116101c25780635486f100116101a75780635486f100146104ad5780636463e94c146104b55780636902f79f146104c857600080fd5b8063344bd72214610479578063347ca8bb1461048c57600080fd5b80632c44e1d1116101f35780632c44e1d1146103f85780632dd31000146104185780632f2612cf1461043f57600080fd5b80632404a3f9146103bc5780632861c7d1146103d157600080fd5b8063168a11c2116102655780631ef8986d1161024a5780631ef8986d1461035c5780631fcd36491461037c57806320ee1e441461039c57600080fd5b8063168a11c2146103115780631949138e1461032457600080fd5b806303e883e01461029757806309c062e2146102bd578063144128e8146102dd5780631579a46c146102fe575b600080fd5b6102aa6102a5366004613e48565b61063e565b6040519081526020015b60405180910390f35b6102d06102cb366004613e48565b6106c3565b6040516102b49190614355565b6102f06102eb366004614364565b610908565b6040516102b4929190614426565b6102aa61030c366004613e48565b610de8565b6102aa61031f366004614443565b610e0d565b610337610332366004614364565b610ebd565b60405173ffffffffffffffffffffffffffffffffffffffff90911681526020016102b4565b61036f61036a366004614663565b610f84565b6040516102b491906146de565b61038f61038a366004614443565b611042565b6040516102b491906146f1565b6103af6103aa366004613e48565b611480565b6040516102b4919061475a565b6103c46115cc565b6040516102b491906147dd565b6103377f000000000000000000000000000000000000000000000000000000000000000081565b61040b61040636600461484c565b6115de565b6040516102b49190614912565b6103377f000000000000000000000000000000000000000000000000000000000000000081565b6102aa61044d3660046149bb565b604080516020808201939093528082019390935280518084038201815260609093019052815191012090565b6102aa610487366004613e48565b611731565b61049f61049a366004613e48565b61177e565b6040516102b49291906149dd565b6102aa611933565b6103376104c3366004613e48565b6119c4565b6103377f000000000000000000000000000000000000000000000000000000000000000081565b6102aa6104fd366004614a3f565b6119e9565b610515610510366004613e48565b611a7a565b6040516102b49190614a74565b6102aa610530366004614364565b611b96565b6102aa610543366004614aa3565b611c04565b6102aa610556366004614364565b611c8a565b6102aa610569366004614364565b90565b6102aa61057a366004614443565b611d58565b610587611da6565b6040516102b49190614acf565b6102aa6105a2366004614443565b611e60565b6105ba6105b5366004613e48565b611eae565b6040516102b49190614b1d565b6102aa6105d5366004614443565b61209c565b61040b6120ea565b61036f61222f565b6103376105f8366004614364565b6122e5565b6103c461060b366004614663565b6127e8565b6102aa61061e366004613e48565b6128ab565b6102aa610631366004613e48565b6128d0565b6102aa6128f5565b600073ffffffffffffffffffffffffffffffffffffffff821663b5c736e4825b6040518263ffffffff1660e01b815260040161067c91815260200190565b602060405180830381865afa158015610699573d6000803e3d6000fd5b505050506040513d601f19601f820116820180604052508101906106bd9190614b55565b92915050565b6106cb613b0c565b73ffffffffffffffffffffffffffffffffffffffff821681526106ed82612962565b60208201819052608001516040517fe72ef91b00000000000000000000000000000000000000000000000000000000815273ffffffffffffffffffffffffffffffffffffffff8481166004830152918216602482015260009182917f00000000000000000000000000000000000000000000000000000000000000009091169063e72ef91b906044016104c060405180830381865afa158015610794573d6000803e3d6000fd5b505050506040513d601f19601f820116820180604052508101906107b89190614daf565b602085015160a001516040517f967915d600000000000000000000000000000000000000000000000000000000815273ffffffffffffffffffffffffffffffffffffffff8881166004830152918216602482015292945090925060009182917f0000000000000000000000000000000000000000000000000000000000000000169063967915d69060440161050060405180830381865afa158015610861573d6000803e3d6000fd5b505050506040513d601f19601f820116820180604052508101906108859190614e55565b9150915061089286612a3b565b604086018190526108a69087908584612d21565b6060860181905260208601516108bd918891612f01565b608086018190526060860151602087015160408801516108e0939291908661322d565b60a08601526108ee86611480565b60c08601525060e084019290925250610100820152919050565b61098660405180610180016040528060008152602001600073ffffffffffffffffffffffffffffffffffffffff16815260200160001515815260200160001515815260200160008152602001600081526020016000815260200160008152602001600081526020016000815260200160008152602001600081525090565b61098e613b0c565b828252600061099c84610ebd565b905073ffffffffffffffffffffffffffffffffffffffff811615610de25760006109c6828661209c565b90506109d1826106c3565b6040517f6352211e000000000000000000000000000000000000000000000000000000008152600481018790529093507f000000000000000000000000000000000000000000000000000000000000000073ffffffffffffffffffffffffffffffffffffffff1690636352211e90602401602060405180830381865afa158015610a5f573d6000803e3d6000fd5b505050506040513d601f19601f82011682018060405250810190610a839190614f08565b73ffffffffffffffffffffffffffffffffffffffff1660208501526001808216146060850181905266ffffffffffffff603583901c811660ff602d85901c81169190911b610120880181905260c0880152607584901c909116606d84901c9091161b6101608601819052610100860152610cc75780600216600214610b1957610b14600282901c6207ffff16614f54565b610b24565b6207ffff600282901c165b60808501819052601582901c62ffffff1660a0860152610120850151606091610b4f9060020b61381a565b610b599190614f8c565b901c6101408501819052610100850151610b7291614fa3565b60e08501526080840151600090610b8a908490610e0d565b90508060011660011480610baa57508460a0015162ffffff600183901c16115b15610c81576001604086810191909152608086015160a087015161014088015192517f22348cc70000000000000000000000000000000000000000000000000000000081526004810192909252602482015260448101919091526064810182905273ffffffffffffffffffffffffffffffffffffffff8416906322348cc79060840160a060405180830381865afa158015610c49573d6000803e3d6000fd5b505050506040513d601f19601f82011682018060405250810190610c6d9190614fb6565b505061012088015261014087015260808601525b8461016001518561014001511115610cb457846101600151856101400151610ca99190614fa3565b610140860152610cc5565b600061014086018190526101608601525b505b64e8d4a51000836060015160c001518560c00151610ce59190614f8c565b610cef9190614ff6565b60c0850152606083015160e0908101519085015164e8d4a5100091610d1391614f8c565b610d1d9190614ff6565b60e0808601919091526060840151015161010085015164e8d4a5100091610d4391614f8c565b610d4d9190614ff6565b610100850152606083015160c0015161012085015164e8d4a5100091610d7291614f8c565b610d7c9190614ff6565b610120850152606083015160e0015161014085015164e8d4a5100091610da191614f8c565b610dab9190614ff6565b610140850152606083015160e0015161016085015164e8d4a5100091610dd091614f8c565b610dda9190614ff6565b610160850152505b50915091565b600073ffffffffffffffffffffffffffffffffffffffff821663b5c736e4600861065e565b6040805160208082018490526005828401528251808303840181526060909201909252805191012060009073ffffffffffffffffffffffffffffffffffffffff84169063b5c736e4905b6040518263ffffffff1660e01b8152600401610e7591815260200190565b602060405180830381865afa158015610e92573d6000803e3d6000fd5b505050506040513d601f19601f82011682018060405250810190610eb69190614b55565b9392505050565b600080610ec983611b96565b6040517fe6bd26a200000000000000000000000000000000000000000000000000000000815263ffffffff60c083901c1660048201529091507f000000000000000000000000000000000000000000000000000000000000000073ffffffffffffffffffffffffffffffffffffffff169063e6bd26a290602401602060405180830381865afa158015610f60573d6000803e3d6000fd5b505050506040513d601f19601f82011682018060405250810190610eb69190614f08565b80516060908067ffffffffffffffff811115610fa257610fa261446f565b604051908082528060200260200182016040528015610fdb57816020015b610fc8613b0c565b815260200190600190039081610fc05790505b50915060005b8181101561103b5761100b848281518110610ffe57610ffe615031565b60200260200101516106c3565b83828151811061101d5761101d615031565b6020026020010181905250808061103390615060565b915050610fe1565b5050919050565b6110c46040518060e00160405280600073ffffffffffffffffffffffffffffffffffffffff168152602001600073ffffffffffffffffffffffffffffffffffffffff168152602001600073ffffffffffffffffffffffffffffffffffffffff168152602001600081526020016000815260200160008152602001600081525090565b73ffffffffffffffffffffffffffffffffffffffff8316815260006110e884612962565b60a081015173ffffffffffffffffffffffffffffffffffffffff90811660208501526080820151166040840152905060008084156111265784611138565b6fffffffffffffffffffffffffffffffff5b6040517f8433ea220000000000000000000000000000000000000000000000000000000081526004810182905260006024820181905261dead6044830152606482015290955073ffffffffffffffffffffffffffffffffffffffff871690638433ea229060840160408051808303816000875af19250505080156111f7575060408051601f3d9081017fffffffffffffffffffffffffffffffffffffffffffffffffffffffffffffffe01682019092526111f491810190615098565b60015b6112d6576112036150bc565b806308c379a00361122857506112176150d7565b80611222575061122a565b506112d9565b505b3d808015611254576040519150601f19603f3d011682016040523d82523d6000602084013e611259565b606091505b5060448151106112225760208101517f33c955bc000000000000000000000000000000000000000000000000000000007fffffffff000000000000000000000000000000000000000000000000000000008216016112cf5760248201516044830151608088018290526060880181905290945092505b50506112d9565b50505b6040517f8433ea22000000000000000000000000000000000000000000000000000000008152600481018690526000602482015261dead60448201526001606482015273ffffffffffffffffffffffffffffffffffffffff871690638433ea229060840160408051808303816000875af1925050508015611395575060408051601f3d9081017fffffffffffffffffffffffffffffffffffffffffffffffffffffffffffffffe016820190925261139291810190615098565b60015b611474576113a16150bc565b806308c379a0036113c657506113b56150d7565b806113c057506113c8565b50611477565b505b3d8080156113f2576040519150601f19603f3d011682016040523d82523d6000602084013e6113f7565b606091505b5060448151106113c05760208101517f33c955bc000000000000000000000000000000000000000000000000000000007fffffffff0000000000000000000000000000000000000000000000000000000082160161146d576024820151604483015160c0880182905260a0880181905290945092505b5050611477565b50505b50505092915050565b611488613dae565b60006114938361063e565b90506114a7620fffff600283901c16611c8a565b6020830152633fffffff601682901c81166040840152603482901c16606083015266ffffffffffffff605a82901c1660ff605283901c161b60a083015266ffffffffffffff609a82901c1660ff609283901c161b608083015260d281901c63ffffffff1682526040820151600090611520908590611e60565b60c0840151600382169052905061153f600282901c620fffff16611c8a565b60c0840180516020019190915280516603ffffffffffff607484901c1660409091015251633fffffff601683901c1660609091015266ffffffffffffff603c82901c1660ff603483901c161b60c084018051608001919091525160a682901c633fffffff1660a0909101526115bc60c482901c620fffff16611c8a565b60c0808501510152509092915050565b60606115d961060b611da6565b905090565b81516060908067ffffffffffffffff8111156115fc576115fc61446f565b6040519080825280602002602001820160405280156116af57816020015b61169c6040518060e00160405280600073ffffffffffffffffffffffffffffffffffffffff168152602001600073ffffffffffffffffffffffffffffffffffffffff168152602001600073ffffffffffffffffffffffffffffffffffffffff168152602001600081526020016000815260200160008152602001600081525090565b81526020019060019003908161161a5790505b50915060005b81811015611729576116f98582815181106116d2576116d2615031565b60200260200101518583815181106116ec576116ec615031565b6020026020010151611042565b83828151811061170b5761170b615031565b6020026020010181905250808061172190615060565b9150506116b5565b505092915050565b60008173ffffffffffffffffffffffffffffffffffffffff1663540acabc6040518163ffffffff1660e01b8152600401602060405180830381865afa158015610699573d6000803e3d6000fd5b606080600061178c84611eae565b80519091508067ffffffffffffffff8111156117aa576117aa61446f565b60405190808252806020026020018201604052801561185957816020015b61184660405180610180016040528060008152602001600073ffffffffffffffffffffffffffffffffffffffff16815260200160001515815260200160001515815260200160008152602001600081526020016000815260200160008152602001600081526020016000815260200160008152602001600081525090565b8152602001906001900390816117c85790505b5093508067ffffffffffffffff8111156118755761187561446f565b6040519080825280602002602001820160405280156118ae57816020015b61189b613b0c565b8152602001906001900390816118935790505b50925060005b8181101561192b576118de8382815181106118d1576118d1615031565b6020026020010151610908565b8683815181106118f0576118f0615031565b6020026020010186848151811061190957611909615031565b602002602001018290528290525050808061192390615060565b9150506118b4565b505050915091565b60007f000000000000000000000000000000000000000000000000000000000000000073ffffffffffffffffffffffffffffffffffffffff16638d6540236040518163ffffffff1660e01b8152600401602060405180830381865afa1580156119a0573d6000803e3d6000fd5b505050506040513d601f19601f820116820180604052508101906115d99190614b55565b600073ffffffffffffffffffffffffffffffffffffffff821663b5c736e4600961065e565b60008373ffffffffffffffffffffffffffffffffffffffff1663b5c736e4611a1360068686611c04565b6040518263ffffffff1660e01b8152600401611a3191815260200190565b602060405180830381865afa158015611a4e573d6000803e3d6000fd5b505050506040513d601f19601f82011682018060405250810190611a729190614b55565b949350505050565b6040805180820190915260006020820181905273ffffffffffffffffffffffffffffffffffffffff83168252611aaf836128d0565b90508273ffffffffffffffffffffffffffffffffffffffff1663ebd93ac66040518163ffffffff1660e01b8152600401600060405180830381600087803b158015611af957600080fd5b505af1925050508015611b0a575060015b611b7357611b166150bc565b806308c379a003611b3b5750611b2a6150d7565b80611b355750611b3d565b50611b90565b505b3d808015611b67576040519150601f19603f3d011682016040523d82523d6000602084013e611b6c565b606091505b5050611b90565b6000611b7e846128d0565b905081811461103b5760016020840152505b50919050565b6040805160208082018490526003828401528251808303840181526060909201909252805191012060009073ffffffffffffffffffffffffffffffffffffffff7f0000000000000000000000000000000000000000000000000000000000000000169063b5c736e49061065e565b6000808385604051602001611c23929190918252602082015260400190565b604080517fffffffffffffffffffffffffffffffffffffffffffffffffffffffffffffffe081840301815282825280516020918201209083018690529082018190529150606001604051602081830303815290604052805190602001209150509392505050565b6000620fffff8210611cfc576040517f08c379a000000000000000000000000000000000000000000000000000000000815260206004820152600e60248201527f696e76616c69642d6e756d626572000000000000000000000000000000000000604482015260640160405180910390fd5b8115611d305781600116600114611d2457611d1f600183901c6207ffff16614f54565b6106bd565b5060011c6207ffff1690565b507f80000000000000000000000000000000000000000000000000000000000000005b919050565b6040805160208082018490526004828401528251808303840181526060909201909252805191012060009073ffffffffffffffffffffffffffffffffffffffff84169063b5c736e490610e57565b60606000611db2611933565b90508067ffffffffffffffff811115611dcd57611dcd61446f565b604051908082528060200260200182016040528015611df6578160200160208202803683370190505b50915060005b81811015611e5b57611e126105f882600161517f565b838281518110611e2457611e24615031565b73ffffffffffffffffffffffffffffffffffffffff9092166020928302919091019091015280611e5381615060565b915050611dfc565b505090565b6040805160208082018490526007828401528251808303840181526060909201909252805191012060009073ffffffffffffffffffffffffffffffffffffffff84169063b5c736e490610e57565b6040517f70a0823100000000000000000000000000000000000000000000000000000000815273ffffffffffffffffffffffffffffffffffffffff82811660048301526060916000917f000000000000000000000000000000000000000000000000000000000000000016906370a0823190602401602060405180830381865afa158015611f40573d6000803e3d6000fd5b505050506040513d601f19601f82011682018060405250810190611f649190614b55565b90508067ffffffffffffffff811115611f7f57611f7f61446f565b604051908082528060200260200182016040528015611fa8578160200160208202803683370190505b50915060005b8181101561103b576040517f2f745c5900000000000000000000000000000000000000000000000000000000815273ffffffffffffffffffffffffffffffffffffffff8581166004830152602482018390527f00000000000000000000000000000000000000000000000000000000000000001690632f745c5990604401602060405180830381865afa158015612049573d6000803e3d6000fd5b505050506040513d601f19601f8201168201806040525081019061206d9190614b55565b83828151811061207f5761207f615031565b60209081029190910101528061209481615060565b915050611fae565b6040805160208082018490526003828401528251808303840181526060909201909252805191012060009073ffffffffffffffffffffffffffffffffffffffff84169063b5c736e490610e57565b606060006120f6611da6565b80519091508067ffffffffffffffff8111156121145761211461446f565b6040519080825280602002602001820160405280156121c757816020015b6121b46040518060e00160405280600073ffffffffffffffffffffffffffffffffffffffff168152602001600073ffffffffffffffffffffffffffffffffffffffff168152602001600073ffffffffffffffffffffffffffffffffffffffff168152602001600081526020016000815260200160008152602001600081525090565b8152602001906001900390816121325790505b50925060005b81811015612229576121f98382815181106121ea576121ea615031565b60200260200101516000611042565b84828151811061220b5761220b615031565b6020026020010181905250808061222190615060565b9150506121cd565b50505090565b6060600061223b611da6565b80519091508067ffffffffffffffff8111156122595761225961446f565b60405190808252806020026020018201604052801561229257816020015b61227f613b0c565b8152602001906001900390816122775790505b50925060005b81811015612229576122b5838281518110610ffe57610ffe615031565b8482815181106122c7576122c7615031565b602002602001018190525080806122dd90615060565b915050612298565b60006060826000036122fa5750600092915050565b607f83116123e2576040517fd60000000000000000000000000000000000000000000000000000000000000060208201527f940000000000000000000000000000000000000000000000000000000000000060218201527fffffffffffffffffffffffffffffffffffffffff0000000000000000000000007f000000000000000000000000000000000000000000000000000000000000000060601b16602282015260f884901b7fff000000000000000000000000000000000000000000000000000000000000001660368201526037015b60405160208183030381529060405290506127da565b60ff83116124de576040517fd70000000000000000000000000000000000000000000000000000000000000060208201527f940000000000000000000000000000000000000000000000000000000000000060218201527fffffffffffffffffffffffffffffffffffffffff0000000000000000000000007f000000000000000000000000000000000000000000000000000000000000000060601b1660228201527f8100000000000000000000000000000000000000000000000000000000000000603682015260f884901b7fff000000000000000000000000000000000000000000000000000000000000001660378201526038016123cc565b61ffff83116125db576040517fd80000000000000000000000000000000000000000000000000000000000000060208201527f940000000000000000000000000000000000000000000000000000000000000060218201527fffffffffffffffffffffffffffffffffffffffff0000000000000000000000007f000000000000000000000000000000000000000000000000000000000000000060601b1660228201527f820000000000000000000000000000000000000000000000000000000000000060368201527fffff00000000000000000000000000000000000000000000000000000000000060f085901b1660378201526039016123cc565b62ffffff83116126d9576040517fd90000000000000000000000000000000000000000000000000000000000000060208201527f940000000000000000000000000000000000000000000000000000000000000060218201527fffffffffffffffffffffffffffffffffffffffff0000000000000000000000007f000000000000000000000000000000000000000000000000000000000000000060601b1660228201527f830000000000000000000000000000000000000000000000000000000000000060368201527fffffff000000000000000000000000000000000000000000000000000000000060e885901b166037820152603a016123cc565b6040517fda0000000000000000000000000000000000000000000000000000000000000060208201527f940000000000000000000000000000000000000000000000000000000000000060218201527fffffffffffffffffffffffffffffffffffffffff0000000000000000000000007f000000000000000000000000000000000000000000000000000000000000000060601b1660228201527f840000000000000000000000000000000000000000000000000000000000000060368201527fffffffff0000000000000000000000000000000000000000000000000000000060e085901b166037820152603b0160405160208183030381529060405290505b805160209091012092915050565b80516060908067ffffffffffffffff8111156128065761280661446f565b60405190808252806020026020018201604052801561284b57816020015b60408051808201909152600080825260208201528152602001906001900390816128245790505b50915060005b8181101561103b5761287b84828151811061286e5761286e615031565b6020026020010151611a7a565b83828151811061288d5761288d615031565b602002602001018190525080806128a390615060565b915050612851565b600073ffffffffffffffffffffffffffffffffffffffff821663b5c736e4600161065e565b600073ffffffffffffffffffffffffffffffffffffffff821663b5c736e4600261065e565b60007f000000000000000000000000000000000000000000000000000000000000000073ffffffffffffffffffffffffffffffffffffffff166318160ddd6040518163ffffffff1660e01b8152600401602060405180830381865afa1580156119a0573d6000803e3d6000fd5b604080516101a081018252600080825260208201819052918101829052606081018290526080810182905260a0810182905260c0810182905260e0810182905261010081018290526101208101829052610140810182905261016081018290526101808101919091528173ffffffffffffffffffffffffffffffffffffffff1663b7791bf26040518163ffffffff1660e01b81526004016101a060405180830381865afa158015612a17573d6000803e3d6000fd5b505050506040513d601f19601f820116820180604052508101906106bd91906151a3565b6040805161018081018252600080825260208201819052918101829052606081018290526080810182905260a0810182905260c0810182905260e08101829052610100810182905261012081018290526101408101829052610160810182905290612aa5836128ab565b61ffff8082168452601082901c16602080850191909152909150612ad19082901c6103ff16600a615280565b61ffff166040830152612aed602a82901c6103ff16600a615280565b61ffff166060830152612b09603482901c6103ff16600a615280565b61ffff166080830152612b25603e82901c6103ff16600a615280565b61ffff1660a08301526103ff604882901c811660c0840152605282901c1660e0830152606081901c610100830181905215612cf65781610100015173ffffffffffffffffffffffffffffffffffffffff16638e7bfbc06040518163ffffffff1660e01b8152600401602060405180830381865afa925050508015612be4575060408051601f3d9081017fffffffffffffffffffffffffffffffffffffffffffffffffffffffffffffffe0168201909252612be191810190614b55565b60015b612c6f5781610100015173ffffffffffffffffffffffffffffffffffffffff1663e6aa216c6040518163ffffffff1660e01b8152600401602060405180830381865afa158015612c38573d6000803e3d6000fd5b505050506040513d601f19601f82011682018060405250810190612c5c9190614b55565b6101208301819052610140830152612cf6565b808361012001818152505082610100015173ffffffffffffffffffffffffffffffffffffffff1663f3190c896040518163ffffffff1660e01b8152600401602060405180830381865afa158015612cca573d6000803e3d6000fd5b505050506040513d601f19601f82011682018060405250810190612cee9190614b55565b610140840152505b612cff836119c4565b73ffffffffffffffffffffffffffffffffffffffff1661016083015250919050565b612d8c604051806101a00160405280600081526020016000815260200160008152602001600081526020016000815260200160008152602001600081526020016000815260200160008152602001600081526020016000815260200160008152602001600081525090565b6000612d9786610de8565b67ffffffffffffffff8082168452604082811c82166020860152608083901c9091169084015260c081901c6060840152905073ffffffffffffffffffffffffffffffffffffffff86166309f0d8cb612dee886128ab565b6040518263ffffffff1660e01b8152600401612e0c91815260200190565b608060405180830381865afa158015612e29573d6000803e3d6000fd5b505050506040513d601f19601f82011682018060405250810190612e4d919061529e565b60e086015260c085015260a0840152608083015260208401805161014084015283516101608401528551905161271091612e8d9161ffff90911690614f8c565b612e979190614ff6565b6101008301526020850151835161271091612eb89161ffff90911690614f8c565b612ec29190614ff6565b610120830152845161271061ffff90911611612edf576000612eee565b8451612eee90612710906152d4565b61ffff1661018083015250949350505050565b612f3a6040518060c001604052806000815260200160008152602001600081526020016000815260200160008152602001600081525090565b6000612f458561063e565b90506000612f52866128d0565b905060007f000000000000000000000000000000000000000000000000000000000000000073ffffffffffffffffffffffffffffffffffffffff1663b5c736e48661016001516040518263ffffffff1660e01b8152600401612fb691815260200190565b602060405180830381865afa158015612fd3573d6000803e3d6000fd5b505050506040513d601f19601f82011682018060405250810190612ff79190614b55565b905067ffffffffffffffff600182901c16905060ff8116600882901c901b905060007f000000000000000000000000000000000000000000000000000000000000000073ffffffffffffffffffffffffffffffffffffffff1663b5c736e48761018001516040518263ffffffff1660e01b815260040161307991815260200190565b602060405180830381865afa158015613096573d6000803e3d6000fd5b505050506040513d601f19601f820116820180604052508101906130ba9190614b55565b66ffffffffffffff605a86901c811660ff605288901c81169190911b808952609a88901c8316609289901c83161b60208a015260408901869052600984901c90921660019390931c169190911b606087018190526fffffffffffffffffffffffffffffffff851660a0880152608085811c9088015260c089015190925064e8d4a51000916131489190614f8c565b6131529190614ff6565b855260e0870151602086015164e8d4a510009161316e91614f8c565b6131789190614ff6565b60208601526080870151604086015164e8d4a510009161319791614f8c565b6131a19190614ff6565b604086015260a0870151606086015164e8d4a51000916131c091614f8c565b6131ca9190614ff6565b606086015260c0870151608086015164e8d4a51000916131e991614f8c565b6131f39190614ff6565b608086015260e087015160a086015164e8d4a510009161321291614f8c565b61321c9190614ff6565b60a086015250929695505050505050565b61327560405180610100016040528060008152602001600081526020016000815260200160008152602001600081526020016000815260200160008152602001600081525090565b6101608401516040517fb5c736e400000000000000000000000000000000000000000000000000000000815260009173ffffffffffffffffffffffffffffffffffffffff7f0000000000000000000000000000000000000000000000000000000000000000169163b5c736e4916132f29160040190815260200190565b602060405180830381865afa15801561330f573d6000803e3d6000fd5b505050506040513d601f19601f820116820180604052508101906133339190614b55565b905080156135735766ffffffffffffff600982901c1660ff600183901c161b600061335e8383613a7c565b905064e8d4a510008860800151826133769190614f8c565b6133809190614ff6565b80855260408a0151116133945760006133a5565b835160408a01516133a59190614fa3565b602085015260a086015160408a0151600091612710916133c99161ffff1690614f8c565b6133d39190614ff6565b9050808560200151116133e7576000613412565b620f42408186602001516133fb9190614fa3565b61340890620f423f614f8c565b6134129190614ff6565b6020860152608088015160009073ffffffffffffffffffffffffffffffffffffffff167fffffffffffffffffffffffff111111111111111111111111111111111111111201613499575073ffffffffffffffffffffffffffffffffffffffff7f00000000000000000000000000000000000000000000000000000000000000001631613552565b60808901516040517f70a0823100000000000000000000000000000000000000000000000000000000815273ffffffffffffffffffffffffffffffffffffffff7f000000000000000000000000000000000000000000000000000000000000000081166004830152909116906370a0823190602401602060405180830381865afa15801561352b573d6000803e3d6000fd5b505050506040513d601f19601f8201168201806040525081019061354f9190614b55565b90505b856020015181116135635780613569565b85602001515b6040870152505050505b6101808501516040517fb5c736e400000000000000000000000000000000000000000000000000000000815260009173ffffffffffffffffffffffffffffffffffffffff7f0000000000000000000000000000000000000000000000000000000000000000169163b5c736e4916135f09160040190815260200190565b602060405180830381865afa15801561360d573d6000803e3d6000fd5b505050506040513d601f19601f820116820180604052508101906136319190614b55565b905080156137e7576040840151606084015261014084015160c084015261010084015166ffffffffffffff600983901c1660ff600184901c161b90620f42409061367e90620f423f614f8c565b6136889190614ff6565b608085015260a087015160009073ffffffffffffffffffffffffffffffffffffffff167fffffffffffffffffffffffff11111111111111111111111111111111111111120161370f575073ffffffffffffffffffffffffffffffffffffffff7f000000000000000000000000000000000000000000000000000000000000000016316137c8565b60a08801516040517f70a0823100000000000000000000000000000000000000000000000000000000815273ffffffffffffffffffffffffffffffffffffffff7f000000000000000000000000000000000000000000000000000000000000000081166004830152909116906370a0823190602401602060405180830381865afa1580156137a1573d6000803e3d6000fd5b505050506040513d601f19601f820116820180604052508101906137c59190614b55565b90505b846080015181116137d957806137df565b84608001515b60a086015250505b64e8d4a510008760e001516127116137ff9190614f8c565b6138099190614ff6565b60e084015250909695505050505050565b600060ff82901d80831803617fff81111561383457600080fd5b700100000000000000000000000000000000600182161561386257506fff9dd7de423466c20352b1246ce4856f5b6002821615613881576fff3bd55f4488ad277531fa1c725a66d00260801c5b60048216156138a0576ffe78410fd6498b73cb96a6917f8532590260801c5b60088216156138bf576ffcf2d9987c9be178ad5bfeffaa1232730260801c5b60108216156138de576ff9ef02c4529258b057769680fc6601b30260801c5b60208216156138fd576ff402d288133a85a17784a411f7aba0820260801c5b604082161561391c576fe895615b5beb6386553757b0352bda900260801c5b608082161561393b576fd34f17a00ffa00a8309940a15930391a0260801c5b61010082161561395b576fae6b7961714e20548d88ea5123f9a0ff0260801c5b61020082161561397b576f76d6461f27082d74e0feed3b388c0ca10260801c5b61040082161561399b576f372a3bfe0745d8b6b19d985d9a8b85bb0260801c5b6108008216156139bb576f0be32cbee48979763cf7247dd7bb539d0260801c5b6110008216156139da576e8d4f70c9ff4924dac37612d1e2921e0260801c5b6120008216156139f8576d4e009ae5519380809a02ca7aec770260801c5b614000821615613a14576b17c45e641b6e95dee056ff100260801c5b600091507f80000000000000000000000000000000000000000000000000000000000000008416613a72577fffffffffffffffffffffffffffffffffffffffffffffffffffffffffffffffff0463ffffffff811615613a7257600191505b60201c0192915050565b600066ffffffffffffff604984901c1660ff604185901c161b808203613aa65760009150506106bd565b612710613fff60a286901c168402046401ffffffff608186901c16420362ffffff60b087901c16613ad78284614f8c565b613ae19190614ff6565b9050808311613af1576000613af5565b8083035b935050808403838111156114775795945050505050565b604080516101208082018352600080835283516101a0810185528181526020818101839052948101829052606081018290526080810182905260a0810182905260c0810182905260e0810182905261010081018290529182018190526101408201819052610160820181905261018082015290918201908152604080516101808101825260008082526020828101829052928201819052606082018190526080820181905260a0820181905260c0820181905260e082018190526101008201819052610120820181905261014082018190526101608201529101908152602001613c57604051806101a00160405280600081526020016000815260200160008152602001600081526020016000815260200160008152602001600081526020016000815260200160008152602001600081526020016000815260200160008152602001600081525090565b8152602001613c956040518060c001604052806000815260200160008152602001600081526020016000815260200160008152602001600081525090565b8152602001613ce260405180610100016040528060008152602001600081526020016000815260200160008152602001600081526020016000815260200160008152602001600081525090565b8152602001613cef613dae565b8152602001613d4560405180610120016040528060001515815260200160008152602001600081526020016000815260200160008152602001600081526020016000815260200160008152602001600081525090565b8152602001613da9604051806101600160405280600015158152602001600081526020016000815260200160008152602001600081526020016000815260200160008152602001600081526020016000815260200160008152602001600081525090565b905290565b6040518060e00160405280600081526020016000815260200160008152602001600081526020016000815260200160008152602001613da96040518060e00160405280600081526020016000815260200160008152602001600081526020016000815260200160008152602001600081525090565b73ffffffffffffffffffffffffffffffffffffffff81168114613e4557600080fd5b50565b600060208284031215613e5a57600080fd5b8135610eb681613e23565b805173ffffffffffffffffffffffffffffffffffffffff1682526020810151613ea6602084018273ffffffffffffffffffffffffffffffffffffffff169052565b506040810151613ece604084018273ffffffffffffffffffffffffffffffffffffffff169052565b506060810151613ef6606084018273ffffffffffffffffffffffffffffffffffffffff169052565b506080810151613f1e608084018273ffffffffffffffffffffffffffffffffffffffff169052565b5060a0810151613f4660a084018273ffffffffffffffffffffffffffffffffffffffff169052565b5060c0810151613f5b60c084018260ff169052565b5060e0810151613f7060e084018260ff169052565b50610100818101519083015261012080820151908301526101408082015190830152610160808201519083015261018090810151910152565b805161ffff1682526020810151613fc6602084018261ffff169052565b506040810151613fdc604084018261ffff169052565b506060810151613ff2606084018261ffff169052565b506080810151614008608084018261ffff169052565b5060a081015161401e60a084018261ffff169052565b5060c081015161403460c084018261ffff169052565b5060e081015161404a60e084018261ffff169052565b506101008181015173ffffffffffffffffffffffffffffffffffffffff90811691840191909152610120808301519084015261014080830151908401526101609182015116910152565b805173ffffffffffffffffffffffffffffffffffffffff16825260208101516140c06020840182613e65565b5060408101516140d46101c0840182613fa9565b506060818101518051610340850152602080820151610360860152604080830151610380870152828401516103a08701526080808401516103c088015260a0808501516103e089015260c0808601516104008a015260e0808701516104208b0152610100808801516104408c0152610120808901516104608d0152610140808a01516104808e01526101608a01516104a08e0152610180909901516104c08d0152858b015180516104e08e0152808901516105008e0152808801516105208e0152808b01516105408e0152808701516105608e01528501516105808d0152848b015180516105a08e0152808901516105c08e0152808801516105e08e0152808b01516106008e0152808701516106208e0152808601516106408e0152808501516106608e01528301516106808d0152838b015180516106a08e0152808901516106c08e0152808801516106e08e0152808b01516107008e0152808701516107208e0152808601516107408e015284015180516107608e0152808901516107808e0152808801516107a08e0152808b01516107c08e0152808701516107e08e0152808601516108008e01528401516108208d0152828b0151805115156108408e0152808901516108608e0152808801516108808e0152808b01516108a08e0152808701516108c08e0152808601516108e08e0152808501516109008e0152808401516109208e01528201516109408d015299810151805115156109608d0152968701516109808c0152948601516109a08b0152968501516109c08a0152918401516109e0890152830151610a00880152820151610a2087015292810151610a4086015291820151610a6085015291810151610a808401520151610aa090910152565b610ac081016106bd8284614094565b60006020828403121561437657600080fd5b5035919050565b8051825260208101516143a8602084018273ffffffffffffffffffffffffffffffffffffffff169052565b5060408101516143bc604084018215159052565b5060608101516143d0606084018215159052565b506080818101519083015260a0808201519083015260c0808201519083015260e0808201519083015261010080820151908301526101208082015190830152610140808201519083015261016090810151910152565b610c408101614435828561437d565b610eb6610180830184614094565b6000806040838503121561445657600080fd5b823561446181613e23565b946020939093013593505050565b7f4e487b7100000000000000000000000000000000000000000000000000000000600052604160045260246000fd5b6060810181811067ffffffffffffffff821117156144be576144be61446f565b60405250565b60a0810181811067ffffffffffffffff821117156144be576144be61446f565b7fffffffffffffffffffffffffffffffffffffffffffffffffffffffffffffffe0601f830116810181811067ffffffffffffffff821117156145285761452861446f565b6040525050565b604051610220810167ffffffffffffffff811182821017156145535761455361446f565b60405290565b604051610120810167ffffffffffffffff811182821017156145535761455361446f565b604051610160810167ffffffffffffffff811182821017156145535761455361446f565b6040516101a0810167ffffffffffffffff811182821017156145535761455361446f565b600067ffffffffffffffff8211156145df576145df61446f565b5060051b60200190565b600082601f8301126145fa57600080fd5b81356020614607826145c5565b60405161461482826144e4565b83815260059390931b850182019282810191508684111561463457600080fd5b8286015b8481101561465857803561464b81613e23565b8352918301918301614638565b509695505050505050565b60006020828403121561467557600080fd5b813567ffffffffffffffff81111561468c57600080fd5b611a72848285016145e9565b600081518084526020808501945080840160005b838110156146d3576146bf878351614094565b610ac09690960195908201906001016146ac565b509495945050505050565b602081526000610eb66020830184614698565b60e081016106bd828473ffffffffffffffffffffffffffffffffffffffff80825116835280602083015116602084015280604083015116604084015250606081015160608301526080810151608083015260a081015160a083015260c081015160c08301525050565b815181526020808301518183015260408084015181840152606080850151818501526080808601518186015260a0808701518187015260c0808801518051828901529586015160e0880152938501516101008701529184015161012086015283015161014085015282015161016084015201516101808201526101a081016106bd565b602080825282518282018190526000919060409081850190868401855b8281101561483f5761482f848351805173ffffffffffffffffffffffffffffffffffffffff1682526020908101511515910152565b92840192908501906001016147fa565b5091979650505050505050565b6000806040838503121561485f57600080fd5b823567ffffffffffffffff8082111561487757600080fd5b614883868387016145e9565b935060209150818501358181111561489a57600080fd5b85019050601f810186136148ad57600080fd5b80356148b8816145c5565b6040516148c582826144e4565b82815260059290921b83018401918481019150888311156148e557600080fd5b928401925b82841015614903578335825292840192908401906148ea565b80955050505050509250929050565b6020808252825182820181905260009190848201906040850190845b818110156149af5761499c83855173ffffffffffffffffffffffffffffffffffffffff80825116835280602083015116602084015280604083015116604084015250606081015160608301526080810151608083015260a081015160a083015260c081015160c08301525050565b9284019260e0929092019160010161492e565b50909695505050505050565b600080604083850312156149ce57600080fd5b50508035926020909101359150565b604080825283519082018190526000906020906060840190828701845b82811015614a2157614a0d84835161437d565b6101809390930192908401906001016149fa565b50505083810382850152614a358186614698565b9695505050505050565b600080600060608486031215614a5457600080fd5b8335614a5f81613e23565b95602085013595506040909401359392505050565b815173ffffffffffffffffffffffffffffffffffffffff168152602080830151151590820152604081016106bd565b600080600060608486031215614ab857600080fd5b505081359360208301359350604090920135919050565b6020808252825182820181905260009190848201906040850190845b818110156149af57835173ffffffffffffffffffffffffffffffffffffffff1683529284019291840191600101614aeb565b6020808252825182820181905260009190848201906040850190845b818110156149af57835183529284019291840191600101614b39565b600060208284031215614b6757600080fd5b5051919050565b80518015158114611d5357600080fd5b8051611d5381613e23565b600060e08284031215614b9b57600080fd5b60405160e0810181811067ffffffffffffffff82111715614bbe57614bbe61446f565b80604052508091508251614bd181613e23565b808252506020830151602082015260408301516040820152606083015160608201526080830151608082015260a083015160a082015260c083015160c08201525092915050565b60008183036101a0811215614c2c57600080fd5b604051614c388161449e565b8092508351815260a07fffffffffffffffffffffffffffffffffffffffffffffffffffffffffffffffe083011215614c6f57600080fd5b6040519150614c7d826144c4565b6020840151614c8b81613e23565b8083525060408401516020830152606084015160408301526080840151606083015260a08401516080830152816020820152614cca8560c08601614b89565b6040820152505092915050565b60006103a08284031215614cea57600080fd5b614cf261452f565b825181526020808401519082015260408084015190820152606080840151908201526080808401519082015260a0808401519082015260c0808401519082015260e08084015190820152610100808401519082015261012080840151908201526101408084015190820152610160808401519082015261018080840151908201526101a080840151908201526101c080840151908201526101e080840151908201529050610200614da584828501614c18565b9082015292915050565b6000808284036104c0811215614dc457600080fd5b61012080821215614dd457600080fd5b614ddc614559565b9150614de785614b6e565b82526020850151602083015260408501516040830152606085015160608301526080850151608083015260a085015160a083015260c085015160c083015260e085015160e0830152610100808601518184015250819350614e4a86828701614cd7565b925050509250929050565b600080828403610500811215614e6a57600080fd5b61016080821215614e7a57600080fd5b614e8261457d565b9150614e8d85614b6e565b82526020850151602083015260408501516040830152606085015160608301526080850151608083015260a085015160a083015260c085015160c083015260e085015160e0830152610100808601518184015250610120808601518184015250610140808601518184015250819350614e4a86828701614cd7565b600060208284031215614f1a57600080fd5b8151610eb681613e23565b7f4e487b7100000000000000000000000000000000000000000000000000000000600052601160045260246000fd5b60007f80000000000000000000000000000000000000000000000000000000000000008203614f8557614f85614f25565b5060000390565b80820281158282048414176106bd576106bd614f25565b818103818111156106bd576106bd614f25565b600080600080600060a08688031215614fce57600080fd5b5050835160208501516040860151606087015160809097015192989197509594509092509050565b60008261502c577f4e487b7100000000000000000000000000000000000000000000000000000000600052601260045260246000fd5b500490565b7f4e487b7100000000000000000000000000000000000000000000000000000000600052603260045260246000fd5b60007fffffffffffffffffffffffffffffffffffffffffffffffffffffffffffffffff820361509157615091614f25565b5060010190565b600080604083850312156150ab57600080fd5b505080516020909101519092909150565b600060033d11156105695760046000803e5060005160e01c90565b600060443d10156150e55790565b6040517ffffffffffffffffffffffffffffffffffffffffffffffffffffffffffffffffc803d016004833e81513d67ffffffffffffffff816024840111818411171561513357505050505090565b828501915081518181111561514b5750505050505090565b843d87010160208285010111156151655750505050505090565b615174602082860101876144e4565b509095945050505050565b808201808211156106bd576106bd614f25565b805160ff81168114611d5357600080fd5b60006101a082840312156151b657600080fd5b6151be6145a1565b6151c783614b7e565b81526151d560208401614b7e565b60208201526151e660408401614b7e565b60408201526151f760608401614b7e565b606082015261520860808401614b7e565b608082015261521960a08401614b7e565b60a082015261522a60c08401615192565b60c082015261523b60e08401615192565b60e08201526101008381015190820152610120808401519082015261014080840151908201526101608084015190820152610180928301519281019290925250919050565b61ffff81811683821602808216919082811461172957611729614f25565b600080600080608085870312156152b457600080fd5b505082516020840151604085015160609095015191969095509092509050565b61ffff8281168282160390808211156152ef576152ef614f25565b509291505056fea26469706673582212205f208c901a1b3c00c77bcffc6952d7d96038dfbc5d887e46594997bdd53d7c3664736f6c63430008150033",
  "devdoc": {
    "kind": "dev",
    "methods": {
      "getVaultLiquidation(address,uint256)": {
        "details": "fetches available liquidations",
        "params": {
          "tokenInAmt_": "token in aka debt to payback, leave 0 to get max",
          "vault_": "address of vault for which to fetch"
        },
        "returns": {
          "liquidationData_": "liquidation related data. Check out structs.sol"
        }
      }
    },
    "version": 1
  },
  "userdoc": {
    "kind": "user",
    "methods": {
      "calculateDoubleIntUintMapping(uint256,int256,uint256)": {
        "notice": "Calculating the slot ID for Liquidity contract for double mapping"
      },
      "calculateStorageSlotIntMapping(uint256,int256)": {
        "notice": "Calculating the slot ID for Liquidity contract for single mapping"
      },
      "calculateStorageSlotUintMapping(uint256,uint256)": {
        "notice": "Calculating the slot ID for Liquidity contract for single mapping"
      }
    },
    "notice": "Fluid Vault protocol resolver Implements various view-only methods to give easy access to Vault protocol data.",
    "version": 1
  },
  "storageLayout": {
    "storage": [],
    "types": null
  }
}