{
  "address": "0x74501483404e35d295715121dBD9fE932cE5E743",
  "abi": [
    {
      "inputs": [
        {
          "internalType": "string",
          "name": "infoName_",
          "type": "string"
        },
        {
          "components": [
            {
              "internalType": "uint8",
              "name": "hops",
              "type": "uint8"
            },
            {
              "components": [
                {
                  "internalType": "contract IChainlinkAggregatorV3",
                  "name": "feed",
                  "type": "address"
                },
                {
                  "internalType": "bool",
                  "name": "invertRate",
                  "type": "bool"
                },
                {
                  "internalType": "uint256",
                  "name": "token0Decimals",
                  "type": "uint256"
                }
              ],
              "internalType": "struct ChainlinkStructs.ChainlinkFeedData",
              "name": "feed1",
              "type": "tuple"
            },
            {
              "components": [
                {
                  "internalType": "contract IChainlinkAggregatorV3",
                  "name": "feed",
                  "type": "address"
                },
                {
                  "internalType": "bool",
                  "name": "invertRate",
                  "type": "bool"
                },
                {
                  "internalType": "uint256",
                  "name": "token0Decimals",
                  "type": "uint256"
                }
              ],
              "internalType": "struct ChainlinkStructs.ChainlinkFeedData",
              "name": "feed2",
              "type": "tuple"
            },
            {
              "components": [
                {
                  "internalType": "contract IChainlinkAggregatorV3",
                  "name": "feed",
                  "type": "address"
                },
                {
                  "internalType": "bool",
                  "name": "invertRate",
                  "type": "bool"
                },
                {
                  "internalType": "uint256",
                  "name": "token0Decimals",
                  "type": "uint256"
                }
              ],
              "internalType": "struct ChainlinkStructs.ChainlinkFeedData",
              "name": "feed3",
              "type": "tuple"
            }
          ],
          "internalType": "struct ChainlinkStructs.ChainlinkConstructorParams",
          "name": "clParams_",
          "type": "tuple"
        },
        {
          "internalType": "address",
          "name": "sequencerUptimeFeed_",
          "type": "address"
        }
      ],
      "stateMutability": "nonpayable",
      "type": "constructor"
    },
    {
      "inputs": [
        {
          "internalType": "uint256",
          "name": "errorId_",
          "type": "uint256"
        }
      ],
      "name": "FluidOracleError",
      "type": "error"
    },
    {
      "inputs": [],
      "name": "centerPrice",
      "outputs": [
        {
          "internalType": "uint256",
          "name": "price_",
          "type": "uint256"
        }
      ],
      "stateMutability": "view",
      "type": "function"
    },
    {
      "inputs": [],
      "name": "chainlinkOracleData",
      "outputs": [
        {
          "internalType": "uint256",
          "name": "chainlinkExchangeRate_",
          "type": "uint256"
        },
        {
          "internalType": "contract IChainlinkAggregatorV3",
          "name": "chainlinkFeed1_",
          "type": "address"
        },
        {
          "internalType": "bool",
          "name": "chainlinkInvertRate1_",
          "type": "bool"
        },
        {
          "internalType": "uint256",
          "name": "chainlinkExchangeRate1_",
          "type": "uint256"
        },
        {
          "internalType": "contract IChainlinkAggregatorV3",
          "name": "chainlinkFeed2_",
          "type": "address"
        },
        {
          "internalType": "bool",
          "name": "chainlinkInvertRate2_",
          "type": "bool"
        },
        {
          "internalType": "uint256",
          "name": "chainlinkExchangeRate2_",
          "type": "uint256"
        },
        {
          "internalType": "contract IChainlinkAggregatorV3",
          "name": "chainlinkFeed3_",
          "type": "address"
        },
        {
          "internalType": "bool",
          "name": "chainlinkInvertRate3_",
          "type": "bool"
        },
        {
          "internalType": "uint256",
          "name": "chainlinkExchangeRate3_",
          "type": "uint256"
        }
      ],
      "stateMutability": "view",
      "type": "function"
    },
    {
      "inputs": [],
      "name": "infoName",
      "outputs": [
        {
          "internalType": "string",
          "name": "",
          "type": "string"
        }
      ],
      "stateMutability": "view",
      "type": "function"
    },
    {
      "inputs": [],
      "name": "sequencerL2Data",
      "outputs": [
        {
          "internalType": "address",
          "name": "sequencerUptimeFeed_",
          "type": "address"
        },
        {
          "internalType": "uint256",
          "name": "maxGracePeriod_",
          "type": "uint256"
        },
        {
          "internalType": "bool",
          "name": "isSequencerUp_",
          "type": "bool"
        },
        {
          "internalType": "uint256",
          "name": "lastUptimeStartedAt_",
          "type": "uint256"
        },
        {
          "internalType": "uint256",
          "name": "gracePeriod_",
          "type": "uint256"
        },
        {
          "internalType": "bool",
          "name": "gracePeriodPassed_",
          "type": "bool"
        },
        {
          "internalType": "uint256",
          "name": "lastOutageStartedAt_",
          "type": "uint256"
        },
        {
          "internalType": "bool",
          "name": "isSequencerUpAndValid_",
          "type": "bool"
        }
      ],
      "stateMutability": "view",
      "type": "function"
    }
  ],
  "transactionHash": "0x7fb2373dda97c6c79e8ee746ae8f679f2f5448f19787262a9c10469ef93580b9",
  "args": [
    [
      "ETH for 1 WEETH",
      {
        "hops": 1,
        "feed1": {
          "feed": "0x20bAe7e1De9c596f5F7615aeaa1342Ba99294e12",
          "invertRate": false,
          "token0Decimals": 18
        },
        "feed2": {
          "feed": "0x0000000000000000000000000000000000000000",
          "invertRate": false,
          "token0Decimals": 0
        },
        "feed3": {
          "feed": "0x0000000000000000000000000000000000000000",
          "invertRate": false,
          "token0Decimals": 0
        }
      },
      "0xFdB631F5EE196F0ed6FAa767959853A9F217697D"
    ]
  ],
  "numDeployments": 1,
  "linkedData": {
    "nonce": "2"
  },
  "bytecode": "0x6102206040523480156200001257600080fd5b50604051620018d7380380620018d7833981016040819052620000359162000499565b8183826020825111806200004857508151155b15620000705760405163c82fc46560e01b815261ea6a60048201526024015b60405180910390fd5b60209190910151608052600080546001600160a01b0319166001600160a01b039092169190911790558051600160ff9091161080620000b657506003816000015160ff16115b80620000df57506020810151516001600160a01b03161580620000df5750602081015160400151155b806200011a57506001816000015160ff161180156200011a57506040810151516001600160a01b031615806200011a57506040808201510151155b806200015657506002816000015160ff161180156200015657506060810151516001600160a01b03161580620001565750606081015160400151155b156200017a5760405163c82fc46560e01b815261ee49600482015260240162000067565b60208082018051516001600160a01b0390811660a0526040808501805151831660c0526060860180515190931660e052835185015115156101005251840151151561012052905190920151151561014052510151620001db90601b6200058d565b620001e890600a620006a6565b610160526020810151604001516200020290601b620006bb565b6200020f90600a620006a6565b610180528051600160ff909116116200022a5760016200024c565b60408082015101516200023f90601b6200058d565b6200024c90600a620006a6565b6101a0528051600160ff909116116200026757600162000289565b60408082015101516200027c90601b620006bb565b6200028990600a620006a6565b6101c0528051600260ff90911611620002a4576001620002c7565b606081015160400151620002ba90601b6200058d565b620002c790600a620006a6565b6101e0528051600260ff90911611620002e257600162000305565b606081015160400151620002f890601b620006bb565b6200030590600a620006a6565b6102005250620006d192505050565b634e487b7160e01b600052604160045260246000fd5b604051601f8201601f191681016001600160401b038111828210171562000355576200035562000314565b604052919050565b6001600160a01b03811681146200037357600080fd5b50565b6000606082840312156200038957600080fd5b604051606081016001600160401b0381118282101715620003ae57620003ae62000314565b80604052508091508251620003c3816200035d565b815260208301518015158114620003d957600080fd5b6020820152604092830151920191909152919050565b600061014082840312156200040357600080fd5b604051608081016001600160401b038111828210171562000428576200042862000314565b8060405250809150825160ff811681146200044257600080fd5b815262000453846020850162000376565b602082015262000467846080850162000376565b60408201526200047b8460e0850162000376565b60608201525092915050565b805162000494816200035d565b919050565b60008060006101808486031215620004b057600080fd5b83516001600160401b0380821115620004c857600080fd5b818601915086601f830112620004dd57600080fd5b815181811115620004f257620004f262000314565b602091506200050a601f8201601f191683016200032a565b81815288838386010111156200051f57600080fd5b60005b828110156200053f57848101840151828201850152830162000522565b50600083838301015280965050506200055b87828801620003ef565b935050506200056e610160850162000487565b90509250925092565b634e487b7160e01b600052601160045260246000fd5b81810381811115620005a357620005a362000577565b92915050565b600181815b80851115620005ea578160001904821115620005ce57620005ce62000577565b80851615620005dc57918102915b93841c9390800290620005ae565b509250929050565b6000826200060357506001620005a3565b816200061257506000620005a3565b81600181146200062b5760028114620006365762000656565b6001915050620005a3565b60ff8411156200064a576200064a62000577565b50506001821b620005a3565b5060208310610133831016604e8410600b84101617156200067b575081810a620005a3565b620006878383620005a9565b80600019048211156200069e576200069e62000577565b029392505050565b6000620006b48383620005f2565b9392505050565b80820180821115620005a357620005a362000577565b60805160a05160c05160e05161010051610120516101405161016051610180516101a0516101c0516101e051610200516110d662000801600039600081816103f5015261092f0152600081816103d4015261090e01526000818161030301526108380152600081816102e2015261081701526000818161021901526107550152600081816101f80152610734015260008181610352015281816103b301526108ed015260008181610260015281816102c101526107f6015260008181610192015281816101d70152610713015260008181610331015281816103920152818161087c01526108cc01526000818161023f015281816102a00152818161078501526107d5015260008181610171015281816101b601526106f2015260008181610453015261051801526110d66000f3fe608060405234801561001057600080fd5b506004361061004c5760003560e01c80637557ca4114610051578063abd5f95d146100c9578063dc459512146100de578063f763f7a614610142575b600080fd5b610059610158565b604080519a8b5273ffffffffffffffffffffffffffffffffffffffff998a1660208c0152971515978a01979097526060890195909552928616608088015290151560a087015260c086015290921660e0840152901515610100830152610120820152610140015b60405180910390f35b6100d1610441565b6040516100c09190610d20565b6100e66105a6565b6040805173ffffffffffffffffffffffffffffffffffffffff909916895260208901979097529415159587019590955260608601929092526080850152151560a084015260c0830191909152151560e0820152610100016100c0565b61014a6106dc565b6040519081526020016100c0565b60008060008060008060008060008061016f6106eb565b7f00000000000000000000000000000000000000000000000000000000000000007f000000000000000000000000000000000000000000000000000000000000000061023d7f00000000000000000000000000000000000000000000000000000000000000007f00000000000000000000000000000000000000000000000000000000000000007f00000000000000000000000000000000000000000000000000000000000000007f0000000000000000000000000000000000000000000000000000000000000000610967565b7f00000000000000000000000000000000000000000000000000000000000000007f000000000000000000000000000000000000000000000000000000000000000073ffffffffffffffffffffffffffffffffffffffff82161561032c576103277f00000000000000000000000000000000000000000000000000000000000000007f00000000000000000000000000000000000000000000000000000000000000007f00000000000000000000000000000000000000000000000000000000000000007f0000000000000000000000000000000000000000000000000000000000000000610967565b61032f565b60005b7f00000000000000000000000000000000000000000000000000000000000000007f000000000000000000000000000000000000000000000000000000000000000073ffffffffffffffffffffffffffffffffffffffff82161561041e576104197f00000000000000000000000000000000000000000000000000000000000000007f00000000000000000000000000000000000000000000000000000000000000007f00000000000000000000000000000000000000000000000000000000000000007f0000000000000000000000000000000000000000000000000000000000000000610967565b610421565b60005b995099509950995099509950995099509950995090919293949596979899565b606060005b6020811080156104ac57507f0000000000000000000000000000000000000000000000000000000000000000816020811061048357610483610d8c565b1a60f81b7fff000000000000000000000000000000000000000000000000000000000000001615155b156104c357806104bb81610dea565b915050610446565b60008167ffffffffffffffff8111156104de576104de610e22565b6040519080825280601f01601f191660200182016040528015610508576020820181803683370190505b50905060005b8281101561059f577f0000000000000000000000000000000000000000000000000000000000000000816020811061054857610548610d8c565b1a60f81b82828151811061055e5761055e610d8c565b60200101907effffffffffffffffffffffffffffffffffffffffffffffffffffffffffffff1916908160001a9053508061059781610dea565b91505061050e565b5092915050565b60008060008060008060008060006105bc610a28565b919850909650905086156105e0576105d48187610bd5565b91965094509250610696565b610a8c945060008060009054906101000a900473ffffffffffffffffffffffffffffffffffffffff1673ffffffffffffffffffffffffffffffffffffffff1663feaf968c6040518163ffffffff1660e01b815260040160a060405180830381865afa158015610653573d6000803e3d6000fd5b505050506040513d601f19601f820116820180604052508101906106779190610e70565b50505050905061069281600161068d9190610ec0565b610c3f565b9350505b60005473ffffffffffffffffffffffffffffffffffffffff16610a8c88888888888480156106c157508a5b98509850985098509850985098509850509091929394959697565b60006106e66106eb565b905090565b60006107797f00000000000000000000000000000000000000000000000000000000000000007f00000000000000000000000000000000000000000000000000000000000000007f00000000000000000000000000000000000000000000000000000000000000007f0000000000000000000000000000000000000000000000000000000000000000610967565b90508015806107bc57507f000000000000000000000000000000000000000000000000000000000000000073ffffffffffffffffffffffffffffffffffffffff16155b156107c45790565b6107d0601b600a611005565b61085c7f00000000000000000000000000000000000000000000000000000000000000007f00000000000000000000000000000000000000000000000000000000000000007f00000000000000000000000000000000000000000000000000000000000000007f0000000000000000000000000000000000000000000000000000000000000000610967565b6108669083611018565b610870919061102f565b90508015806108b357507f000000000000000000000000000000000000000000000000000000000000000073ffffffffffffffffffffffffffffffffffffffff16155b156108bb5790565b6108c7601b600a611005565b6109537f00000000000000000000000000000000000000000000000000000000000000007f00000000000000000000000000000000000000000000000000000000000000007f00000000000000000000000000000000000000000000000000000000000000007f0000000000000000000000000000000000000000000000000000000000000000610967565b61095d9083611018565b6106e6919061102f565b60008473ffffffffffffffffffffffffffffffffffffffff1663feaf968c6040518163ffffffff1660e01b815260040160a060405180830381865afa9250505080156109ee575060408051601f3d9081017fffffffffffffffffffffffffffffffffffffffffffffffffffffffffffffffe01682019092526109eb91810190610e70565b60015b6109fa57506000610a20565b8815610a1657610a0a848861102f565b95505050505050610a20565b610a0a8885611018565b949350505050565b60008060008060008060008054906101000a900473ffffffffffffffffffffffffffffffffffffffff1673ffffffffffffffffffffffffffffffffffffffff1663feaf968c6040518163ffffffff1660e01b815260040160a060405180830381865afa158015610a9c573d6000803e3d6000fd5b505050506040513d601f19601f82011682018060405250810190610ac09190610e70565b505092509250925081600014610ae0575060009586955085945092505050565b600195508294508093506000841115610bcd575b60005473ffffffffffffffffffffffffffffffffffffffff16639a6fc8f5610b1d60018661106a565b6040517fffffffff0000000000000000000000000000000000000000000000000000000060e084901b16815269ffffffffffffffffffff909116600482015260240160a060405180830381865afa158015610b7c573d6000803e3d6000fd5b505050506040513d601f19601f82011682018060405250810190610ba09190610e70565b509295509093509150506000829003610bba578294508093505b81158015610bc85750600081115b610af4575b505050909192565b6000808080610be4854261108d565b9050841580610bf45750610a8c81115b15610c0c57610a8c6001600093509350935050610c38565b610c1586610c3f565b9150610c21828661108d565b9350610a8c841115610c3357610a8c93505b831091505b9250925092565b60008181805b60005473ffffffffffffffffffffffffffffffffffffffff16639a6fc8f5610c6e60018661106a565b6040517fffffffff0000000000000000000000000000000000000000000000000000000060e084901b16815269ffffffffffffffffffff909116600482015260240160a060405180830381865afa158015610ccd573d6000803e3d6000fd5b505050506040513d601f19601f82011682018060405250810190610cf19190610e70565b509295509093509150508115610d05578093505b8115801590610d145750600081115b610c4557505050919050565b600060208083528351808285015260005b81811015610d4d57858101830151858201604001528201610d31565b5060006040828601015260407fffffffffffffffffffffffffffffffffffffffffffffffffffffffffffffffe0601f8301168501019250505092915050565b7f4e487b7100000000000000000000000000000000000000000000000000000000600052603260045260246000fd5b7f4e487b7100000000000000000000000000000000000000000000000000000000600052601160045260246000fd5b60007fffffffffffffffffffffffffffffffffffffffffffffffffffffffffffffffff8203610e1b57610e1b610dbb565b5060010190565b7f4e487b7100000000000000000000000000000000000000000000000000000000600052604160045260246000fd5b805169ffffffffffffffffffff81168114610e6b57600080fd5b919050565b600080600080600060a08688031215610e8857600080fd5b610e9186610e51565b9450602086015193506040860151925060608601519150610eb460808701610e51565b90509295509295909350565b69ffffffffffffffffffff81811683821601908082111561059f5761059f610dbb565b600181815b80851115610f3c57817fffffffffffffffffffffffffffffffffffffffffffffffffffffffffffffffff04821115610f2257610f22610dbb565b80851615610f2f57918102915b93841c9390800290610ee8565b509250929050565b600082610f5357506001610fff565b81610f6057506000610fff565b8160018114610f765760028114610f8057610f9c565b6001915050610fff565b60ff841115610f9157610f91610dbb565b50506001821b610fff565b5060208310610133831016604e8410600b8410161715610fbf575081810a610fff565b610fc98383610ee3565b807fffffffffffffffffffffffffffffffffffffffffffffffffffffffffffffffff04821115610ffb57610ffb610dbb565b0290505b92915050565b60006110118383610f44565b9392505050565b8082028115828204841417610fff57610fff610dbb565b600082611065577f4e487b7100000000000000000000000000000000000000000000000000000000600052601260045260246000fd5b500490565b69ffffffffffffffffffff82811682821603908082111561059f5761059f610dbb565b81810381811115610fff57610fff610dbb56fea2646970667358221220efa05cb84ffe5a7c7034c4eda50dc5681063dbe54d6f13597e833ccdbd6bcc8964736f6c63430008150033"
}