{
  "address": "0x8eb7dB4e6a239758e4c83AfaDA7FAe2489ed989B",
  "abi": [
    {
      "inputs": [
        {
          "components": [
            {
              "internalType": "string",
              "name": "infoName",
              "type": "string"
            },
            {
              "internalType": "address",
              "name": "liquidity",
              "type": "address"
            },
            {
              "internalType": "address",
              "name": "rateSource",
              "type": "address"
            },
            {
              "internalType": "uint256",
              "name": "rateMultiplier",
              "type": "uint256"
            },
            {
              "internalType": "bool",
              "name": "invertCenterPrice",
              "type": "bool"
            },
            {
              "internalType": "uint256",
              "name": "minUpdateDiffPercent",
              "type": "uint256"
            },
            {
              "internalType": "uint256",
              "name": "minHeartbeat",
              "type": "uint256"
            },
            {
              "internalType": "bool",
              "name": "avoidForcedLiquidationsCol",
              "type": "bool"
            },
            {
              "internalType": "bool",
              "name": "avoidForcedLiquidationsDebt",
              "type": "bool"
            },
            {
              "internalType": "uint256",
              "name": "maxAPRPercent",
              "type": "uint256"
            },
            {
              "internalType": "uint256",
              "name": "maxDownFromMaxReachedPercentCol",
              "type": "uint256"
            },
            {
              "internalType": "uint256",
              "name": "maxDownFromMaxReachedPercentDebt",
              "type": "uint256"
            },
            {
              "internalType": "uint256",
              "name": "maxDebtUpCapPercent",
              "type": "uint256"
            }
          ],
          "internalType": "struct FluidCappedRateBase.CappedRateConstructorParams",
          "name": "params_",
          "type": "tuple"
        },
        {
          "internalType": "address",
          "name": "sequencerUptimeFeed_",
          "type": "address"
        }
      ],
      "stateMutability": "nonpayable",
      "type": "constructor"
    },
    {
      "inputs": [
        {
          "internalType": "uint256",
          "name": "errorId_",
          "type": "uint256"
        }
      ],
      "name": "FluidOracleError",
      "type": "error"
    },
    {
      "anonymous": false,
      "inputs": [
        {
          "indexed": false,
          "internalType": "uint256",
          "name": "oldMaxRate",
          "type": "uint256"
        },
        {
          "indexed": false,
          "internalType": "uint256",
          "name": "newMaxRate",
          "type": "uint256"
        }
      ],
      "name": "LogForceResetMaxRate",
      "type": "event"
    },
    {
      "anonymous": false,
      "inputs": [],
      "name": "LogRateBelowMaxReached",
      "type": "event"
    },
    {
      "anonymous": false,
      "inputs": [],
      "name": "LogRateMaxAPRCapped",
      "type": "event"
    },
    {
      "anonymous": false,
      "inputs": [
        {
          "indexed": false,
          "internalType": "uint256",
          "name": "oldRate",
          "type": "uint256"
        },
        {
          "indexed": false,
          "internalType": "uint256",
          "name": "newRate",
          "type": "uint256"
        },
        {
          "indexed": false,
          "internalType": "uint256",
          "name": "oldMaxRate",
          "type": "uint256"
        },
        {
          "indexed": false,
          "internalType": "uint256",
          "name": "newMaxRate",
          "type": "uint256"
        }
      ],
      "name": "LogRebalanceRate",
      "type": "event"
    },
    {
      "anonymous": false,
      "inputs": [
        {
          "indexed": false,
          "internalType": "bool",
          "name": "oldAvoidForcedLiquidations",
          "type": "bool"
        },
        {
          "indexed": false,
          "internalType": "bool",
          "name": "newAvoidForcedLiquidations",
          "type": "bool"
        }
      ],
      "name": "LogUpdateAvoidForcedLiquidationsCol",
      "type": "event"
    },
    {
      "anonymous": false,
      "inputs": [
        {
          "indexed": false,
          "internalType": "bool",
          "name": "oldAvoidForcedLiquidations",
          "type": "bool"
        },
        {
          "indexed": false,
          "internalType": "bool",
          "name": "newAvoidForcedLiquidations",
          "type": "bool"
        }
      ],
      "name": "LogUpdateAvoidForcedLiquidationsDebt",
      "type": "event"
    },
    {
      "anonymous": false,
      "inputs": [
        {
          "indexed": false,
          "internalType": "uint256",
          "name": "oldMaxAPRPercent",
          "type": "uint256"
        },
        {
          "indexed": false,
          "internalType": "uint256",
          "name": "newMaxAPRPercent",
          "type": "uint256"
        }
      ],
      "name": "LogUpdateMaxAPRPercent",
      "type": "event"
    },
    {
      "anonymous": false,
      "inputs": [
        {
          "indexed": false,
          "internalType": "uint256",
          "name": "oldMaxDebtUpCapPercent",
          "type": "uint256"
        },
        {
          "indexed": false,
          "internalType": "uint256",
          "name": "newMaxDebtUpCapPercent",
          "type": "uint256"
        }
      ],
      "name": "LogUpdateMaxDebtUpCapPercent",
      "type": "event"
    },
    {
      "anonymous": false,
      "inputs": [
        {
          "indexed": false,
          "internalType": "uint256",
          "name": "oldMaxDownFromMaxReachedPercent",
          "type": "uint256"
        },
        {
          "indexed": false,
          "internalType": "uint256",
          "name": "newMaxDownFromMaxReachedPercent",
          "type": "uint256"
        }
      ],
      "name": "LogUpdateMaxDownFromMaxReachedPercentCol",
      "type": "event"
    },
    {
      "anonymous": false,
      "inputs": [
        {
          "indexed": false,
          "internalType": "uint256",
          "name": "oldMaxDownFromMaxReachedPercent",
          "type": "uint256"
        },
        {
          "indexed": false,
          "internalType": "uint256",
          "name": "newMaxDownFromMaxReachedPercent",
          "type": "uint256"
        }
      ],
      "name": "LogUpdateMaxDownFromMaxReachedPercentDebt",
      "type": "event"
    },
    {
      "anonymous": false,
      "inputs": [
        {
          "indexed": false,
          "internalType": "uint256",
          "name": "oldMinHeartbeat",
          "type": "uint256"
        },
        {
          "indexed": false,
          "internalType": "uint256",
          "name": "newMinHeartbeat",
          "type": "uint256"
        }
      ],
      "name": "LogUpdateMinHeartbeat",
      "type": "event"
    },
    {
      "anonymous": false,
      "inputs": [
        {
          "indexed": false,
          "internalType": "uint256",
          "name": "oldMinUpdateDiffPercent",
          "type": "uint256"
        },
        {
          "indexed": false,
          "internalType": "uint256",
          "name": "newMinUpdateDiffPercent",
          "type": "uint256"
        }
      ],
      "name": "LogUpdateMinUpdateDiffPercent",
      "type": "event"
    },
    {
      "inputs": [],
      "name": "centerPrice",
      "outputs": [
        {
          "internalType": "uint256",
          "name": "price_",
          "type": "uint256"
        }
      ],
      "stateMutability": "nonpayable",
      "type": "function"
    },
    {
      "inputs": [],
      "name": "configData",
      "outputs": [
        {
          "internalType": "address",
          "name": "liquidity_",
          "type": "address"
        },
        {
          "internalType": "uint16",
          "name": "minUpdateDiffPercent_",
          "type": "uint16"
        },
        {
          "internalType": "uint24",
          "name": "minHeartbeat_",
          "type": "uint24"
        },
        {
          "internalType": "uint40",
          "name": "lastUpdateTime_",
          "type": "uint40"
        },
        {
          "internalType": "address",
          "name": "rateSource_",
          "type": "address"
        },
        {
          "internalType": "bool",
          "name": "invertCenterPrice_",
          "type": "bool"
        },
        {
          "internalType": "bool",
          "name": "avoidForcedLiquidationsCol_",
          "type": "bool"
        },
        {
          "internalType": "bool",
          "name": "avoidForcedLiquidationsDebt_",
          "type": "bool"
        },
        {
          "internalType": "uint256",
          "name": "maxAPRPercent_",
          "type": "uint256"
        },
        {
          "internalType": "uint24",
          "name": "maxDownFromMaxReachedPercentCol_",
          "type": "uint24"
        },
        {
          "internalType": "uint24",
          "name": "maxDownFromMaxReachedPercentDebt_",
          "type": "uint24"
        },
        {
          "internalType": "uint256",
          "name": "maxDebtUpCapPercent_",
          "type": "uint256"
        }
      ],
      "stateMutability": "view",
      "type": "function"
    },
    {
      "inputs": [],
      "name": "configPercentDiff",
      "outputs": [
        {
          "internalType": "uint256",
          "name": "configPercentDiff_",
          "type": "uint256"
        }
      ],
      "stateMutability": "view",
      "type": "function"
    },
    {
      "inputs": [],
      "name": "forceResetMaxRate",
      "outputs": [],
      "stateMutability": "nonpayable",
      "type": "function"
    },
    {
      "inputs": [],
      "name": "getExchangeRate",
      "outputs": [
        {
          "internalType": "uint256",
          "name": "exchangeRate_",
          "type": "uint256"
        }
      ],
      "stateMutability": "view",
      "type": "function"
    },
    {
      "inputs": [],
      "name": "getExchangeRateLiquidate",
      "outputs": [
        {
          "internalType": "uint256",
          "name": "exchangeRate_",
          "type": "uint256"
        }
      ],
      "stateMutability": "view",
      "type": "function"
    },
    {
      "inputs": [],
      "name": "getExchangeRateLiquidateDebt",
      "outputs": [
        {
          "internalType": "uint256",
          "name": "exchangeRate_",
          "type": "uint256"
        }
      ],
      "stateMutability": "view",
      "type": "function"
    },
    {
      "inputs": [],
      "name": "getExchangeRateOperate",
      "outputs": [
        {
          "internalType": "uint256",
          "name": "exchangeRate_",
          "type": "uint256"
        }
      ],
      "stateMutability": "view",
      "type": "function"
    },
    {
      "inputs": [],
      "name": "getExchangeRateOperateDebt",
      "outputs": [
        {
          "internalType": "uint256",
          "name": "exchangeRate_",
          "type": "uint256"
        }
      ],
      "stateMutability": "view",
      "type": "function"
    },
    {
      "inputs": [],
      "name": "getRatesAndCaps",
      "outputs": [
        {
          "internalType": "uint256",
          "name": "rate_",
          "type": "uint256"
        },
        {
          "internalType": "uint256",
          "name": "maxReachedRate_",
          "type": "uint256"
        },
        {
          "internalType": "uint256",
          "name": "maxUpCappedRateDebt_",
          "type": "uint256"
        },
        {
          "internalType": "bool",
          "name": "isRateBelowMaxReached_",
          "type": "bool"
        },
        {
          "internalType": "bool",
          "name": "isUpMaxAPRCapped_",
          "type": "bool"
        },
        {
          "internalType": "uint256",
          "name": "downCappedRateCol_",
          "type": "uint256"
        },
        {
          "internalType": "uint256",
          "name": "downCappedRateDebt_",
          "type": "uint256"
        },
        {
          "internalType": "bool",
          "name": "isDownCappedCol_",
          "type": "bool"
        },
        {
          "internalType": "bool",
          "name": "isDownCappedDebt_",
          "type": "bool"
        },
        {
          "internalType": "bool",
          "name": "isUpCapped_",
          "type": "bool"
        }
      ],
      "stateMutability": "view",
      "type": "function"
    },
    {
      "inputs": [],
      "name": "infoName",
      "outputs": [
        {
          "internalType": "string",
          "name": "",
          "type": "string"
        }
      ],
      "stateMutability": "view",
      "type": "function"
    },
    {
      "inputs": [],
      "name": "isHeartbeatTrigger",
      "outputs": [
        {
          "internalType": "bool",
          "name": "",
          "type": "bool"
        }
      ],
      "stateMutability": "view",
      "type": "function"
    },
    {
      "inputs": [],
      "name": "rebalance",
      "outputs": [],
      "stateMutability": "nonpayable",
      "type": "function"
    },
    {
      "inputs": [],
      "name": "sequencerL2Data",
      "outputs": [
        {
          "internalType": "address",
          "name": "sequencerUptimeFeed_",
          "type": "address"
        },
        {
          "internalType": "uint256",
          "name": "maxGracePeriod_",
          "type": "uint256"
        },
        {
          "internalType": "bool",
          "name": "isSequencerUp_",
          "type": "bool"
        },
        {
          "internalType": "uint256",
          "name": "lastUptimeStartedAt_",
          "type": "uint256"
        },
        {
          "internalType": "uint256",
          "name": "gracePeriod_",
          "type": "uint256"
        },
        {
          "internalType": "bool",
          "name": "gracePeriodPassed_",
          "type": "bool"
        },
        {
          "internalType": "uint256",
          "name": "lastOutageStartedAt_",
          "type": "uint256"
        },
        {
          "internalType": "bool",
          "name": "isSequencerUpAndValid_",
          "type": "bool"
        }
      ],
      "stateMutability": "view",
      "type": "function"
    },
    {
      "inputs": [],
      "name": "targetDecimals",
      "outputs": [
        {
          "internalType": "uint8",
          "name": "",
          "type": "uint8"
        }
      ],
      "stateMutability": "pure",
      "type": "function"
    },
    {
      "inputs": [
        {
          "internalType": "bool",
          "name": "avoid_",
          "type": "bool"
        }
      ],
      "name": "updateAvoidForcedLiquidationsCol",
      "outputs": [],
      "stateMutability": "nonpayable",
      "type": "function"
    },
    {
      "inputs": [
        {
          "internalType": "bool",
          "name": "avoid_",
          "type": "bool"
        }
      ],
      "name": "updateAvoidForcedLiquidationsDebt",
      "outputs": [],
      "stateMutability": "nonpayable",
      "type": "function"
    },
    {
      "inputs": [
        {
          "internalType": "uint256",
          "name": "newMaxAPRPercent_",
          "type": "uint256"
        }
      ],
      "name": "updateMaxAPRPercent",
      "outputs": [],
      "stateMutability": "nonpayable",
      "type": "function"
    },
    {
      "inputs": [
        {
          "internalType": "uint256",
          "name": "newMaxDebtUpCapPercent_",
          "type": "uint256"
        }
      ],
      "name": "updateMaxDebtUpCapPercent",
      "outputs": [],
      "stateMutability": "nonpayable",
      "type": "function"
    },
    {
      "inputs": [
        {
          "internalType": "uint256",
          "name": "newMaxDownFromMaxReachedPercent_",
          "type": "uint256"
        }
      ],
      "name": "updateMaxDownFromMaxReachedPercentCol",
      "outputs": [],
      "stateMutability": "nonpayable",
      "type": "function"
    },
    {
      "inputs": [
        {
          "internalType": "uint256",
          "name": "newMaxDownFromMaxReachedPercent_",
          "type": "uint256"
        }
      ],
      "name": "updateMaxDownFromMaxReachedPercentDebt",
      "outputs": [],
      "stateMutability": "nonpayable",
      "type": "function"
    },
    {
      "inputs": [
        {
          "internalType": "uint256",
          "name": "newMinHeartbeat_",
          "type": "uint256"
        }
      ],
      "name": "updateMinHeartbeat",
      "outputs": [],
      "stateMutability": "nonpayable",
      "type": "function"
    },
    {
      "inputs": [
        {
          "internalType": "uint256",
          "name": "newMinUpdateDiffPercent_",
          "type": "uint256"
        }
      ],
      "name": "updateMinUpdateDiffPercent",
      "outputs": [],
      "stateMutability": "nonpayable",
      "type": "function"
    }
  ],
  "transactionHash": "0xeac9cd63eab54b7e1e861633574dc3e2db1af868e33c9d19c0e3500290e29690",
  "args": [
    [
      {
        "infoName": "ETH per 1 EZETH",
        "rateSource": "0x11E1836bFF2ce9d6A5bec9cA79dc998210f3886d",
        "rateMultiplier": 1000000000,
        "maxAPRPercent": 150000,
        "maxDownFromMaxReachedPercentDebt": 25000,
        "invertCenterPrice": false,
        "minUpdateDiffPercent": 10,
        "minHeartbeat": 90000,
        "avoidForcedLiquidationsCol": false,
        "maxDownFromMaxReachedPercentCol": 0,
        "avoidForcedLiquidationsDebt": false,
        "maxDebtUpCapPercent": 0,
        "liquidity": "0x52Aa899454998Be5b000Ad077a46Bbe360F4e497"
      },
      "0xFdB631F5EE196F0ed6FAa767959853A9F217697D"
    ]
  ],
  "numDeployments": 1,
  "linkedData": {
    "nonce": "63"
  },
  "bytecode": "0x6101406040523480156200001257600080fd5b5060405162004f2c38038062004f2c83398101604081905262000035916200058a565b8151602083015183918391829084906001600160a01b038116620000755760405163c82fc46560e01b815261ebbf60048201526024015b60405180910390fd5b60408201516001600160a01b038116620000a75760405163c82fc46560e01b815261ebbf60048201526024016200006c565b60608301511580620000c55750683635c9adc5dea000008360600151115b80620000d3575060a0830151155b80620000e4575060a083015161ffff105b80620000f2575060c0830151155b8062000104575060c083015162ffffff105b80620001175750620f4240836101400151115b806200012a5750620f4240836101600151115b8062000149575062000141606462ffffff620006c2565b836101200151115b806200016757506200015f606461ffff620006c2565b836101800151115b156200018b5760405163c82fc46560e01b815261ebbf60048201526024016200006c565b60208301516001600160a01b039081166080908152604085015190911660a052606084015160e081905290840151151560c052620001c8620003e5565b620001d49190620006c2565b6000805460a086015160c08701516001600160a81b03949094166001600160d01b031990921691909117600160a81b4264ffffffffff1602176001600160d81b0316600160f01b61ffff9092169190910262ffffff60d81b191617600160d81b62ffffff90931692909202919091179055610100830151620002585760006200025b565b60085b8360e001516200026d57600062000270565b60045b6000805460ff9390921792909216600160d01b0260ff60d01b19909116179055610120830151620002a490606490620006ee565b6001805462ffffff92909216600160a81b0262ffffff60a81b19909216919091179055610140830151158015620002dd57508260e00151155b620002ee57826101400151620002f3565b620f42405b6001805461016086015162ffffff908116600160d81b0262ffffff60d81b1994909116600160c01b029390931665ffffffffffff60c01b19909116179190911790556101808301516200034990606490620006ee565b600180546000546001600160a81b031961ffff94909416600160f01b0293909316600160a81b600160f01b03909116176001600160a81b03909216919091179055505082516020109050806200039e57508151155b15620003c25760405163c82fc46560e01b815261ea6a60048201526024016200006c565b60209190910151610100526001600160a01b031661012052506200077e92505050565b60008060a0516001600160a01b031663feaf968c6040518163ffffffff1660e01b815260040160a060405180830381865afa15801562000429573d6000803e3d6000fd5b505050506040513d601f19601f820116820180604052508101906200044f919062000729565b509195945050505050565b634e487b7160e01b600052604160045260246000fd5b6040516101a081016001600160401b03811182821017156200049657620004966200045a565b60405290565b604051601f8201601f191681016001600160401b0381118282101715620004c757620004c76200045a565b604052919050565b600082601f830112620004e157600080fd5b81516001600160401b03811115620004fd57620004fd6200045a565b602062000513601f8301601f191682016200049c565b82815285828487010111156200052857600080fd5b60005b83811015620005485785810183015182820184015282016200052b565b506000928101909101919091529392505050565b80516001600160a01b03811681146200057457600080fd5b919050565b805180151581146200057457600080fd5b600080604083850312156200059e57600080fd5b82516001600160401b0380821115620005b657600080fd5b908401906101a08287031215620005cc57600080fd5b620005d662000470565b825182811115620005e657600080fd5b620005f488828601620004cf565b82525062000605602084016200055c565b602082015262000618604084016200055c565b604082015260608301516060820152620006356080840162000579565b608082015260a083015160a082015260c083015160c08201526200065c60e0840162000579565b60e082015261010091506200067382840162000579565b9181019190915261012082810151908201526101408083015190820152610160808301519082015261018091820151918101919091529150620006b9602084016200055c565b90509250929050565b8082028115828204841417620006e857634e487b7160e01b600052601160045260246000fd5b92915050565b6000826200070c57634e487b7160e01b600052601260045260246000fd5b500490565b80516001600160501b03811681146200057457600080fd5b600080600080600060a086880312156200074257600080fd5b6200074d8662000711565b9450602086015193506040860151925060608601519150620007726080870162000711565b90509295509295909350565b60805160a05160c05160e05161010051610120516146c46200086860003960008181611d0401528181611db20152818161395c01528181613a340152613ba30152600081816137e201526138a7015260006136f1015260006106d90152600081816106b801526141e80152600081816106880152818161077b0152818161089101528181610a3901528181610b4f01528181610ce801528181610dfe01528181610fe6015281816110fc015281816115420152818161165801528181611b2601528181611e630152818161200d01528181612123015281816123a301526124b901526146c46000f3fe608060405234801561001057600080fd5b506004361061018d5760003560e01c80639dc10566116100e3578063dd7a29f21161008c578063f3190c8911610066578063f3190c8914610443578063f763f7a61461044b578063fe51171d1461045357600080fd5b8063dd7a29f214610420578063e6aa216c14610433578063f14fe7641461043b57600080fd5b8063b20faf9d116100bd578063b20faf9d14610351578063d1e482f3146103a9578063dc459512146103bc57600080fd5b80639dc1056614610321578063a000106914610329578063abd5f95d1461033c57600080fd5b806371dbff561161014557806379557e681161011f57806379557e68146102325780637d7c2a1c146103115780638e7bfbc01461031957600080fd5b806371dbff56146101f957806373e98a681461020c578063767ceebb1461021f57600080fd5b806320e44e431161017657806320e44e43146101b557806336c1387e146101d5578063691e581a146101e457600080fd5b8063046646241461019257806313d368a7146101ad575b600080fd5b61019a610466565b6040519081526020015b60405180910390f35b61019a61047d565b6101bd61048f565b6040516101a49c9b9a99989796959493929190614313565b604051601b81526020016101a4565b6101f76101f23660046143ad565b610777565b005b6101f76102073660046143ad565b610a35565b6101f761021a3660046143cf565b610ce4565b6101f761022d3660046143cf565b610fe2565b6040805160a08101825260005474ffffffffffffffffffffffffffffffffffffffffff811682527501000000000000000000000000000000000000000000810464ffffffffff1660208084018290527a010000000000000000000000000000000000000000000000000000830460ff16848601527b01000000000000000000000000000000000000000000000000000000830462ffffff16606085018190527e0100000000000000000000000000000000000000000000000000000000000090930461ffff1660809094019390935292514291909301108252016101a4565b6101f7611293565b61019a611374565b61019a611386565b6101f76103373660046143cf565b61153e565b61034461182f565b6040516101a491906143e8565b610359611839565b604080519a8b5260208b0199909952978901969096529315156060880152911515608087015260a086015260c0850152151560e084015215156101008301521515610120820152610140016101a4565b6101f76103b73660046143cf565b611ac1565b6103c4611cc1565b6040805173ffffffffffffffffffffffffffffffffffffffff909916895260208901979097529415159587019590955260608601929092526080850152151560a084015260c0830191909152151560e0820152610100016101a4565b6101f761042e3660046143cf565b611dfe565b61019a611ff7565b6101f7612009565b61019a61227e565b61019a612290565b6101f76104613660046143cf565b61239f565b6000610470612653565b6104786126f2565b905090565b6000610487612653565b610478612b9a565b6000806000806000806000806000806000806000806040518060a00160405290816000820160009054906101000a900474ffffffffffffffffffffffffffffffffffffffffff1674ffffffffffffffffffffffffffffffffffffffffff1674ffffffffffffffffffffffffffffffffffffffffff1681526020016000820160159054906101000a900464ffffffffff1664ffffffffff1664ffffffffff16815260200160008201601a9054906101000a900460ff1660ff1660ff16815260200160008201601b9054906101000a900462ffffff1662ffffff1662ffffff16815260200160008201601e9054906101000a900461ffff1661ffff1661ffff16815250509050600060016040518060a00160405290816000820160009054906101000a900474ffffffffffffffffffffffffffffffffffffffffff1674ffffffffffffffffffffffffffffffffffffffffff1674ffffffffffffffffffffffffffffffffffffffffff1681526020016000820160159054906101000a900462ffffff1662ffffff1662ffffff1681526020016000820160189054906101000a900462ffffff1662ffffff1662ffffff16815260200160008201601b9054906101000a900462ffffff1662ffffff1662ffffff16815260200160008201601e9054906101000a900461ffff1661ffff1661ffff168152505090507f00000000000000000000000000000000000000000000000000000000000000008260800151836060015184602001517f00000000000000000000000000000000000000000000000000000000000000007f0000000000000000000000000000000000000000000000000000000000000000600460ff16600489604001511660ff1614600860ff1660088a604001511660ff16146064896020015162ffffff166107309190614483565b89604001518a6060015160648c6080015161ffff1661074f9190614483565b9d509d509d509d509d509d509d509d509d509d509d509d505050909192939495969798999a9b565b60007f000000000000000000000000000000000000000000000000000000000000000073ffffffffffffffffffffffffffffffffffffffff1663b5c736e46107c0600333612f01565b6040518263ffffffff1660e01b81526004016107de91815260200190565b602060405180830381865afa1580156107fb573d6000803e3d6000fd5b505050506040513d601f19601f8201168201806040525081019061081f919061449a565b6040517fb5c736e40000000000000000000000000000000000000000000000000000000081527fb53127684a568b3173ae13b9f8a6016e243e63b6e8ee1178d6a717850b5d6103600482015260019182169091149150600090339073ffffffffffffffffffffffffffffffffffffffff7f0000000000000000000000000000000000000000000000000000000000000000169063b5c736e490602401602060405180830381865afa1580156108d8573d6000803e3d6000fd5b505050506040513d601f19601f820116820180604052508101906108fc919061449a565b73ffffffffffffffffffffffffffffffffffffffff1614905081158015610921575080155b15610961576040517fc82fc46500000000000000000000000000000000000000000000000000000000815261ebc060048201526024015b60405180910390fd5b6000547a010000000000000000000000000000000000000000000000000000900460089081161483610994576000610997565b60085b600080547fffffffffff00ffffffffffffffffffffffffffffffffffffffffffffffffffff81167a0100000000000000000000000000000000000000000000000000009182900460f71660ff94909416939093170291909117905560408051821515815285151560208201527ff26e4209c91ee7e9b517c3dd9c5aac7081ac9f14a3c501969bfc3e7ff133adf891015b60405180910390a150505050565b60007f000000000000000000000000000000000000000000000000000000000000000073ffffffffffffffffffffffffffffffffffffffff1663b5c736e4610a7e600333612f01565b6040518263ffffffff1660e01b8152600401610a9c91815260200190565b602060405180830381865afa158015610ab9573d6000803e3d6000fd5b505050506040513d601f19601f82011682018060405250810190610add919061449a565b6040517fb5c736e40000000000000000000000000000000000000000000000000000000081527fb53127684a568b3173ae13b9f8a6016e243e63b6e8ee1178d6a717850b5d6103600482015260019182169091149150600090339073ffffffffffffffffffffffffffffffffffffffff7f0000000000000000000000000000000000000000000000000000000000000000169063b5c736e490602401602060405180830381865afa158015610b96573d6000803e3d6000fd5b505050506040513d601f19601f82011682018060405250810190610bba919061449a565b73ffffffffffffffffffffffffffffffffffffffff1614905081158015610bdf575080155b15610c1a576040517fc82fc46500000000000000000000000000000000000000000000000000000000815261ebc06004820152602401610958565b6000547a010000000000000000000000000000000000000000000000000000900460049081161483610c4d576000610c50565b60045b600080547fffffffffff00ffffffffffffffffffffffffffffffffffffffffffffffffffff81167a0100000000000000000000000000000000000000000000000000009182900460fb1660ff94909416939093170291909117905560408051821515815285151560208201527f85a585c4b90f71caba3c97aa85dfa2b36993024b9e1900e505364f47bbcff8ec9101610a27565b60007f000000000000000000000000000000000000000000000000000000000000000073ffffffffffffffffffffffffffffffffffffffff1663b5c736e4610d2d600333612f01565b6040518263ffffffff1660e01b8152600401610d4b91815260200190565b602060405180830381865afa158015610d68573d6000803e3d6000fd5b505050506040513d601f19601f82011682018060405250810190610d8c919061449a565b6040517fb5c736e40000000000000000000000000000000000000000000000000000000081527fb53127684a568b3173ae13b9f8a6016e243e63b6e8ee1178d6a717850b5d6103600482015260019182169091149150600090339073ffffffffffffffffffffffffffffffffffffffff7f0000000000000000000000000000000000000000000000000000000000000000169063b5c736e490602401602060405180830381865afa158015610e45573d6000803e3d6000fd5b505050506040513d601f19601f82011682018060405250810190610e69919061449a565b73ffffffffffffffffffffffffffffffffffffffff1614905081158015610e8e575080155b15610ec9576040517fc82fc46500000000000000000000000000000000000000000000000000000000815261ebc06004820152602401610958565b610ed6606461ffff614483565b831115610f13576040517fc82fc46500000000000000000000000000000000000000000000000000000000815261ebbf6004820152602401610958565b600154600090610f4b906064907e01000000000000000000000000000000000000000000000000000000000000900461ffff16614483565b9050610f586064856144e2565b6001805461ffff929092167e01000000000000000000000000000000000000000000000000000000000000027dffffffffffffffffffffffffffffffffffffffffffffffffffffffffffff90921691909117905560408051828152602081018690527fde99abbfc304a53cbdfa0db8c0fa93869f92defdfb9926c7c346c1fcb18cf0499101610a27565b60007f000000000000000000000000000000000000000000000000000000000000000073ffffffffffffffffffffffffffffffffffffffff1663b5c736e461102b600333612f01565b6040518263ffffffff1660e01b815260040161104991815260200190565b602060405180830381865afa158015611066573d6000803e3d6000fd5b505050506040513d601f19601f8201168201806040525081019061108a919061449a565b6040517fb5c736e40000000000000000000000000000000000000000000000000000000081527fb53127684a568b3173ae13b9f8a6016e243e63b6e8ee1178d6a717850b5d6103600482015260019182169091149150600090339073ffffffffffffffffffffffffffffffffffffffff7f0000000000000000000000000000000000000000000000000000000000000000169063b5c736e490602401602060405180830381865afa158015611143573d6000803e3d6000fd5b505050506040513d601f19601f82011682018060405250810190611167919061449a565b73ffffffffffffffffffffffffffffffffffffffff161490508115801561118c575080155b156111c7576040517fc82fc46500000000000000000000000000000000000000000000000000000000815261ebc06004820152602401610958565b620f4240831115611208576040517fc82fc46500000000000000000000000000000000000000000000000000000000815261ebbf6004820152602401610958565b6001805462ffffff85811678010000000000000000000000000000000000000000000000009081027fffffffffff000000ffffffffffffffffffffffffffffffffffffffffffffffff84161790935560408051939092041680835260208301869052917ff228de6bd894d485e2abff17a7e1801febe7c7d377cbc09ea6b105afdec3e6979101610a27565b6040805160a08101825260005474ffffffffffffffffffffffffffffffffffffffffff811682527501000000000000000000000000000000000000000000810464ffffffffff16602083018190527a010000000000000000000000000000000000000000000000000000820460ff16938301939093527b01000000000000000000000000000000000000000000000000000000810462ffffff16606083018190527e0100000000000000000000000000000000000000000000000000000000000090910461ffff166080909201919091526113719142910110612f4c565b50565b600061137e612653565b6104786134d1565b6040805160a080820183526000805474ffffffffffffffffffffffffffffffffffffffffff8082168552750100000000000000000000000000000000000000000080830464ffffffffff166020808801919091527a010000000000000000000000000000000000000000000000000000840460ff16878901527b0100000000000000000000000000000000000000000000000000000080850462ffffff9081166060808b01919091527e010000000000000000000000000000000000000000000000000000000000009687900461ffff9081166080808d01919091528c519a8b018d52600154978816808c529688048416958b018690527801000000000000000000000000000000000000000000000000880484169c8b019c909c529286049091169088015293909204909216958401959095529093849182916114cc919086906136e9565b50509150915060006114f9856000015174ffffffffffffffffffffffffffffffffffffffffff1684613782565b90506000611522856000015174ffffffffffffffffffffffffffffffffffffffffff1684613782565b90508082116115315780611533565b815b965050505050505090565b60007f000000000000000000000000000000000000000000000000000000000000000073ffffffffffffffffffffffffffffffffffffffff1663b5c736e4611587600333612f01565b6040518263ffffffff1660e01b81526004016115a591815260200190565b602060405180830381865afa1580156115c2573d6000803e3d6000fd5b505050506040513d601f19601f820116820180604052508101906115e6919061449a565b6040517fb5c736e40000000000000000000000000000000000000000000000000000000081527fb53127684a568b3173ae13b9f8a6016e243e63b6e8ee1178d6a717850b5d6103600482015260019182169091149150600090339073ffffffffffffffffffffffffffffffffffffffff7f0000000000000000000000000000000000000000000000000000000000000000169063b5c736e490602401602060405180830381865afa15801561169f573d6000803e3d6000fd5b505050506040513d601f19601f820116820180604052508101906116c3919061449a565b73ffffffffffffffffffffffffffffffffffffffff16149050811580156116e8575080155b15611723576040517fc82fc46500000000000000000000000000000000000000000000000000000000815261ebc06004820152602401610958565b611731606462ffffff614483565b83111561176e576040517fc82fc46500000000000000000000000000000000000000000000000000000000815261ebbf6004820152602401610958565b60015460009061179e906064907501000000000000000000000000000000000000000000900462ffffff16614483565b90506117ab6064856144e2565b6001805462ffffff929092167501000000000000000000000000000000000000000000027fffffffffffffffff000000ffffffffffffffffffffffffffffffffffffffffff90921691909117905560408051828152602081018690527f5a860511811f4b9bff28b459bb3b23dd57c9b6708cfd9d94ba1420bef5dc4cf99101610a27565b60606104786137d0565b6040805160a080820183526000805474ffffffffffffffffffffffffffffffffffffffffff808216855264ffffffffff75010000000000000000000000000000000000000000008084049190911660208088019190915260ff7a0100000000000000000000000000000000000000000000000000008504168789015262ffffff7b0100000000000000000000000000000000000000000000000000000080860482166060808b019190915261ffff7e010000000000000000000000000000000000000000000000000000000000009788900481166080808d01919091528c519a8b018d526001549788168b529587048416948a01949094527801000000000000000000000000000000000000000000000000860483169a89019a909a528404169786019790975291900490941693820193909352829182918291829182918291829182918291906119a682600042826060015162ffffff16836020015164ffffffffff1601109050919050565b156119ea576119da816000015174ffffffffffffffffffffffffffffffffffffffffff1683836020015162ffffff166136e9565b929e50909c509099509750611a23565b81518151604084015174ffffffffffffffffffffffffffffffffffffffffff9283169e5091169b50600181811614995060029081161497505b611a3860008c836040015162ffffff16613935565b9650611a4f60008c836060015162ffffff16613935565b9550620f42406064826080015161ffff16611a6a9190614483565b611a7790620f424061451d565b611a81908d614483565b611a8b91906144e2565b99508a8c118015611a9b5750898c105b15611aa4578b99505b868c109450858c1093508a8c119250505090919293949596979899565b6040517fb5c736e40000000000000000000000000000000000000000000000000000000081527fb53127684a568b3173ae13b9f8a6016e243e63b6e8ee1178d6a717850b5d61036004820152339073ffffffffffffffffffffffffffffffffffffffff7f0000000000000000000000000000000000000000000000000000000000000000169063b5c736e490602401602060405180830381865afa158015611b6d573d6000803e3d6000fd5b505050506040513d601f19601f82011682018060405250810190611b91919061449a565b73ffffffffffffffffffffffffffffffffffffffff1614611be2576040517fc82fc46500000000000000000000000000000000000000000000000000000000815261ebc06004820152602401610958565b61ffff811180611bf0575080155b15611c2b576040517fc82fc46500000000000000000000000000000000000000000000000000000000815261ebbf6004820152602401610958565b6000805461ffff8381167e010000000000000000000000000000000000000000000000000000000000009081027dffffffffffffffffffffffffffffffffffffffffffffffffffffffffffff84161790935560408051939092041680835260208301849052917f0d85068d514b7dcaffeac0819f83d2c909ca9f783d39b2c9e7e717c446b4ce6791015b60405180910390a15050565b6000806000806000806000806000611cd7613951565b91985090965090508615611cfb57611cef8187613b1c565b91965094509250611db0565b610a8c945060007f000000000000000000000000000000000000000000000000000000000000000073ffffffffffffffffffffffffffffffffffffffff1663feaf968c6040518163ffffffff1660e01b815260040160a060405180830381865afa158015611d6d573d6000803e3d6000fd5b505050506040513d601f19601f82011682018060405250810190611d91919061454f565b505050509050611dac816001611da7919061459f565b613b86565b9350505b7f0000000000000000000000000000000000000000000000000000000000000000610a8c88888888888d8015611de357508a5b98509850985098509850985098509850509091929394959697565b6040517fb5c736e40000000000000000000000000000000000000000000000000000000081527fb53127684a568b3173ae13b9f8a6016e243e63b6e8ee1178d6a717850b5d61036004820152339073ffffffffffffffffffffffffffffffffffffffff7f0000000000000000000000000000000000000000000000000000000000000000169063b5c736e490602401602060405180830381865afa158015611eaa573d6000803e3d6000fd5b505050506040513d601f19601f82011682018060405250810190611ece919061449a565b73ffffffffffffffffffffffffffffffffffffffff1614611f1f576040517fc82fc46500000000000000000000000000000000000000000000000000000000815261ebc06004820152602401610958565b62ffffff811180611f2e575080155b15611f69576040517fc82fc46500000000000000000000000000000000000000000000000000000000815261ebbf6004820152602401610958565b6000805462ffffff8381167b010000000000000000000000000000000000000000000000000000009081027fffff000000ffffffffffffffffffffffffffffffffffffffffffffffffffffff84161790935560408051939092041680835260208301849052917fe20dfd2ce7e052628278a16997f363cfa124066a6e4f5e60162f1ece7d5979809101611cb5565b6000612001612653565b610478613c85565b60007f000000000000000000000000000000000000000000000000000000000000000073ffffffffffffffffffffffffffffffffffffffff1663b5c736e4612052600333612f01565b6040518263ffffffff1660e01b815260040161207091815260200190565b602060405180830381865afa15801561208d573d6000803e3d6000fd5b505050506040513d601f19601f820116820180604052508101906120b1919061449a565b6040517fb5c736e40000000000000000000000000000000000000000000000000000000081527fb53127684a568b3173ae13b9f8a6016e243e63b6e8ee1178d6a717850b5d6103600482015260019182169091149150600090339073ffffffffffffffffffffffffffffffffffffffff7f0000000000000000000000000000000000000000000000000000000000000000169063b5c736e490602401602060405180830381865afa15801561216a573d6000803e3d6000fd5b505050506040513d601f19601f8201168201806040525081019061218e919061449a565b73ffffffffffffffffffffffffffffffffffffffff16149050811580156121b3575080155b156121ee576040517fc82fc46500000000000000000000000000000000000000000000000000000000815261ebc06004820152602401610958565b600180546000547fffffffffffffffffffffff000000000000000000000000000000000000000000821674ffffffffffffffffffffffffffffffffffffffffff9182169081179093556040519116917f48ed0deba5df6794da28946c33455c1898c767d82e7ab2080e5586c329c6830a9161227191848252602082015260400190565b60405180910390a1505050565b6000612288612653565b610478613e3c565b600061229a612653565b6040805160a08101825260005474ffffffffffffffffffffffffffffffffffffffffff811682527501000000000000000000000000000000000000000000810464ffffffffff16602083018190527a010000000000000000000000000000000000000000000000000000820460ff16938301939093527b01000000000000000000000000000000000000000000000000000000810462ffffff16606083018190527e0100000000000000000000000000000000000000000000000000000000000090910461ffff166080830152909142910110156123825761237c6001612f4c565b91505090565b5174ffffffffffffffffffffffffffffffffffffffffff16919050565b60007f000000000000000000000000000000000000000000000000000000000000000073ffffffffffffffffffffffffffffffffffffffff1663b5c736e46123e8600333612f01565b6040518263ffffffff1660e01b815260040161240691815260200190565b602060405180830381865afa158015612423573d6000803e3d6000fd5b505050506040513d601f19601f82011682018060405250810190612447919061449a565b6040517fb5c736e40000000000000000000000000000000000000000000000000000000081527fb53127684a568b3173ae13b9f8a6016e243e63b6e8ee1178d6a717850b5d6103600482015260019182169091149150600090339073ffffffffffffffffffffffffffffffffffffffff7f0000000000000000000000000000000000000000000000000000000000000000169063b5c736e490602401602060405180830381865afa158015612500573d6000803e3d6000fd5b505050506040513d601f19601f82011682018060405250810190612524919061449a565b73ffffffffffffffffffffffffffffffffffffffff1614905081158015612549575080155b15612584576040517fc82fc46500000000000000000000000000000000000000000000000000000000815261ebc06004820152602401610958565b620f42408311156125c5576040517fc82fc46500000000000000000000000000000000000000000000000000000000815261ebbf6004820152602401610958565b6001805462ffffff8581167b010000000000000000000000000000000000000000000000000000009081027fffff000000ffffffffffffffffffffffffffffffffffffffffffffffffffffff84161790935560408051939092041680835260208301869052917ffe51ba8fc52e850f07aab61020c1f751e1fd8a5afbbbc922416e7c39fb56a1019101610a27565b6000806000612660613951565b925092509250826126a1576040517fc82fc46500000000000000000000000000000000000000000000000000000000815261ea606004820152602401610958565b60006126ad8383613b1c565b50915050806126ec576040517fc82fc46500000000000000000000000000000000000000000000000000000000815261ea606004820152602401610958565b50505050565b6040805160a080820183526000805474ffffffffffffffffffffffffffffffffffffffffff811684527501000000000000000000000000000000000000000000810464ffffffffff166020808601919091527a010000000000000000000000000000000000000000000000000000820460ff16858701527b01000000000000000000000000000000000000000000000000000000820462ffffff166060808701919091527e0100000000000000000000000000000000000000000000000000000000000090920461ffff16608080870191909152865194850187528385529084018390529483018290528201819052928101839052600080600061281285600042826060015162ffffff16836020015164ffffffffff1601109050919050565b156128fa576040805160a08101825260015474ffffffffffffffffffffffffffffffffffffffffff81168083527501000000000000000000000000000000000000000000820462ffffff90811660208501819052780100000000000000000000000000000000000000000000000084048216958501959095527b0100000000000000000000000000000000000000000000000000000083041660608401527e0100000000000000000000000000000000000000000000000000000000000090910461ffff1660808301529095506128ea9187906136e9565b929850909450909250905061292c565b50508251604084015174ffffffffffffffffffffffffffffffffffffffffff9091169450600181811614906002908116145b808015612940575060408501516008908116145b15612a6b5782600003612a16576040805160a08101825260015474ffffffffffffffffffffffffffffffffffffffffff811680835262ffffff7501000000000000000000000000000000000000000000830481166020850152780100000000000000000000000000000000000000000000000083048116948401949094527b010000000000000000000000000000000000000000000000000000008204909316606083015261ffff7e01000000000000000000000000000000000000000000000000000000000000909104166080820152945092505b620f42406064856080015161ffff16612a2f9190614483565b612a3c90620f424061451d565b612a469085614483565b612a5091906144e2565b9250828611612a5f5785612a61565b825b9550505050505090565b81612a7857505050505090565b835174ffffffffffffffffffffffffffffffffffffffffff16600003612b5f576040805160a08101825260015474ffffffffffffffffffffffffffffffffffffffffff811682527501000000000000000000000000000000000000000000810462ffffff9081166020840152780100000000000000000000000000000000000000000000000082048116938301939093527b01000000000000000000000000000000000000000000000000000000810490921660608201527e0100000000000000000000000000000000000000000000000000000000000090910461ffff16608082015293505b612a618660008511612b8957855174ffffffffffffffffffffffffffffffffffffffffff16612b8b565b845b866060015162ffffff16613935565b6040805160a080820183526000805474ffffffffffffffffffffffffffffffffffffffffff811684527501000000000000000000000000000000000000000000810464ffffffffff166020808601919091527a010000000000000000000000000000000000000000000000000000820460ff16858701527b01000000000000000000000000000000000000000000000000000000820462ffffff166060808701919091527e0100000000000000000000000000000000000000000000000000000000000090920461ffff16608080870191909152865194850187528385529084018390529483018290528201819052928101839052600080612cb884600042826060015162ffffff16836020015164ffffffffff1601109050919050565b15612da0576040805160a08101825260015474ffffffffffffffffffffffffffffffffffffffffff81168083527501000000000000000000000000000000000000000000820462ffffff90811660208501819052780100000000000000000000000000000000000000000000000084048216958501959095527b0100000000000000000000000000000000000000000000000000000083041660608401527e0100000000000000000000000000000000000000000000000000000000000090910461ffff166080830152909450612d909186906136e9565b929750909350909150612dca9050565b508251604084015174ffffffffffffffffffffffffffffffffffffffffff90911694506001908116145b80612dd6575050505090565b825174ffffffffffffffffffffffffffffffffffffffffff16600003612ebd576040805160a08101825260015474ffffffffffffffffffffffffffffffffffffffffff811682527501000000000000000000000000000000000000000000810462ffffff9081166020840152780100000000000000000000000000000000000000000000000082048116938301939093527b01000000000000000000000000000000000000000000000000000000810490921660608201527e0100000000000000000000000000000000000000000000000000000000000090910461ffff16608082015292505b612ef88560008411612ee757845174ffffffffffffffffffffffffffffffffffffffffff16612ee9565b835b856060015162ffffff16613935565b94505050505090565b6040805173ffffffffffffffffffffffffffffffffffffffff831660208201529081018390526000906060016040516020818303038152906040528051906020012090505b92915050565b6040805160a080820183526000805474ffffffffffffffffffffffffffffffffffffffffff8082168552750100000000000000000000000000000000000000000080830464ffffffffff166020808801919091527a010000000000000000000000000000000000000000000000000000840460ff16878901527b0100000000000000000000000000000000000000000000000000000080850462ffffff9081166060808b01919091527e010000000000000000000000000000000000000000000000000000000000009687900461ffff9081166080808d01919091528c519a8b018d52600154978816808c529688048416958b018690527801000000000000000000000000000000000000000000000000880484169c8b019c909c5292860490911690880152939092049092169584019590955290938491829182919061309690829088906136e9565b9299509095509350915074ffffffffffffffffffffffffffffffffffffffffff8711806130d7575074ffffffffffffffffffffffffffffffffffffffffff84115b15613112576040517fc82fc46500000000000000000000000000000000000000000000000000000000815261ebc36004820152602401610958565b8551608087015174ffffffffffffffffffffffffffffffffffffffffff9091169060009061ffff16613144838b613782565b1080156131615750876080015161ffff1661315f8488613782565b105b156131c057891561318a5760408801516007906131829060e016600161451d565b1690506131c0565b6040517fc82fc46500000000000000000000000000000000000000000000000000000000815261ebc16004820152602401610958565b84156131f0576040517fc563dbff0ec97fb0e0d8866b34100ce38af7fea1274967ce2211982755a29c9590600090a15b831561326d57600086620f42406132078c836145c2565b6132119190614483565b61321b91906144e2565b9050876040015162ffffff1681118061323c5750876060015162ffffff1681115b1561326b576040517f01ebab6ce2fe9f982f6eef886119aad8adbd80d7c749b21283693d529521802190600090a15b505b64ffffffffff4216602089015274ffffffffffffffffffffffffffffffffffffffffff89168852611fe0600582901b16856132a95760006132ac565b60025b856132b85760006132bb565b60015b60408b018051601c1691909117919091179190911760ff169081905288516000805460208c015160608d015160808e015174ffffffffffffffffffffffffffffffffffffffffff9095167fffffffffffff000000000000000000000000000000000000000000000000000090931692909217750100000000000000000000000000000000000000000064ffffffffff90921691909102177fffff00000000ffffffffffffffffffffffffffffffffffffffffffffffffffff167a0100000000000000000000000000000000000000000000000000009094027fffff000000ffffffffffffffffffffffffffffffffffffffffffffffffffffff16939093177b0100000000000000000000000000000000000000000000000000000062ffffff90941693909302929092177dffffffffffffffffffffffffffffffffffffffffffffffffffffffffffff167e0100000000000000000000000000000000000000000000000000000000000061ffff909216919091021790558583101561347c57600180547fffffffffffffffffffffff0000000000000000000000000000000000000000001674ffffffffffffffffffffffffffffffffffffffffff88161790555b60408051838152602081018b9052908101849052606081018790527fa1d5e40f5a547f5719e968be1b8da9984c1d3e2c08737e31f4bacc9640c4ea359060800160405180910390a15050505050505050919050565b6040805160a0810182526000805474ffffffffffffffffffffffffffffffffffffffffff811683527501000000000000000000000000000000000000000000810464ffffffffff16602084018190527a010000000000000000000000000000000000000000000000000000820460ff16948401949094527b01000000000000000000000000000000000000000000000000000000810462ffffff16606084018190527e0100000000000000000000000000000000000000000000000000000000000090910461ffff1660808401529092429101101561369d576040805160a08101825260015474ffffffffffffffffffffffffffffffffffffffffff81168083527501000000000000000000000000000000000000000000820462ffffff90811660208501819052780100000000000000000000000000000000000000000000000084048216958501959095527b0100000000000000000000000000000000000000000000000000000083041660608401527e0100000000000000000000000000000000000000000000000000000000000090910461ffff16608083015290916000918291613682919086906136e9565b5091965092509050806136955784612ef8565b509392505050565b60408101516002908116146136ca57805174ffffffffffffffffffffffffffffffffffffffffff1661237c565b505060015474ffffffffffffffffffffffffffffffffffffffffff1690565b6000806000807f00000000000000000000000000000000000000000000000000000000000000006137186141e3565b6137229190614483565b935083600003613762576040517fc82fc46500000000000000000000000000000000000000000000000000000000815261ebc26004820152602401610958565b61376e84888888614275565b939793965050508486119350508385109150565b6000818311156137aa5782620f424083850302816137a2576137a26144b3565b049050612f46565b82821115612f465782620f424084840302816137c8576137c86144b3565b049392505050565b606060005b60208110801561383b57507f00000000000000000000000000000000000000000000000000000000000000008160208110613812576138126145d5565b1a60f81b7fff000000000000000000000000000000000000000000000000000000000000001615155b15613852578061384a81614604565b9150506137d5565b60008167ffffffffffffffff81111561386d5761386d61463c565b6040519080825280601f01601f191660200182016040528015613897576020820181803683370190505b50905060005b8281101561392e577f000000000000000000000000000000000000000000000000000000000000000081602081106138d7576138d76145d5565b1a60f81b8282815181106138ed576138ed6145d5565b60200101907effffffffffffffffffffffffffffffffffffffffffffffffffffffffffffff1916908160001a9053508061392681614604565b91505061389d565b5092915050565b620f42408181038302048084111561394a5750825b9392505050565b6000806000806000807f000000000000000000000000000000000000000000000000000000000000000073ffffffffffffffffffffffffffffffffffffffff1663feaf968c6040518163ffffffff1660e01b815260040160a060405180830381865afa1580156139c5573d6000803e3d6000fd5b505050506040513d601f19601f820116820180604052508101906139e9919061454f565b505092509250925081600014613a09575060009586955085945092505050565b600195508294508093506000841115613b14575b73ffffffffffffffffffffffffffffffffffffffff7f000000000000000000000000000000000000000000000000000000000000000016639a6fc8f5613a6460018661466b565b6040517fffffffff0000000000000000000000000000000000000000000000000000000060e084901b16815269ffffffffffffffffffff909116600482015260240160a060405180830381865afa158015613ac3573d6000803e3d6000fd5b505050506040513d601f19601f82011682018060405250810190613ae7919061454f565b509295509093509150506000829003613b01578294508093505b81158015613b0f5750600081115b613a1d575b505050909192565b6000808080613b2b85426145c2565b9050841580613b3b5750610a8c81115b15613b5357610a8c6001600093509350935050613b7f565b613b5c86613b86565b9150613b6882866145c2565b9350610a8c841115613b7a57610a8c93505b831091505b9250925092565b60008181805b73ffffffffffffffffffffffffffffffffffffffff7f000000000000000000000000000000000000000000000000000000000000000016639a6fc8f5613bd360018661466b565b6040517fffffffff0000000000000000000000000000000000000000000000000000000060e084901b16815269ffffffffffffffffffff909116600482015260240160a060405180830381865afa158015613c32573d6000803e3d6000fd5b505050506040513d601f19601f82011682018060405250810190613c56919061454f565b509295509093509150508115613c6a578093505b8115801590613c795750600081115b613b8c57505050919050565b6040805160a0810182526000805474ffffffffffffffffffffffffffffffffffffffffff811683527501000000000000000000000000000000000000000000810464ffffffffff16602084018190527a010000000000000000000000000000000000000000000000000000820460ff16948401949094527b01000000000000000000000000000000000000000000000000000000810462ffffff16606084018190527e0100000000000000000000000000000000000000000000000000000000000090910461ffff16608084015290924291011015612382576040805160a08101825260015474ffffffffffffffffffffffffffffffffffffffffff81168083527501000000000000000000000000000000000000000000820462ffffff90811660208501819052780100000000000000000000000000000000000000000000000084048216958501959095527b0100000000000000000000000000000000000000000000000000000083041660608401527e0100000000000000000000000000000000000000000000000000000000000090910461ffff1660808301529091613e31919084906136e9565b509195945050505050565b6040805160a080820183526000805474ffffffffffffffffffffffffffffffffffffffffff811684527501000000000000000000000000000000000000000000810464ffffffffff166020808601919091527a010000000000000000000000000000000000000000000000000000820460ff16858701527b01000000000000000000000000000000000000000000000000000000820462ffffff166060808701919091527e0100000000000000000000000000000000000000000000000000000000000090920461ffff166080808701919091528651948501875283855290840183905294830182905282018190529281018390526000806000613f5c85600042826060015162ffffff16836020015164ffffffffff1601109050919050565b15614043576040805160a08101825260015474ffffffffffffffffffffffffffffffffffffffffff81168083527501000000000000000000000000000000000000000000820462ffffff90811660208501819052780100000000000000000000000000000000000000000000000084048216958501959095527b0100000000000000000000000000000000000000000000000000000083041660608401527e0100000000000000000000000000000000000000000000000000000000000090910461ffff1660808301529095506140349187906136e9565b92985090945092509050614073565b50506040830151835174ffffffffffffffffffffffffffffffffffffffffff169450600281811614906001908116145b81156140a05760008311612a5f5760015474ffffffffffffffffffffffffffffffffffffffffff16612a61565b8080156140b4575060408501516004908116145b156141db57835174ffffffffffffffffffffffffffffffffffffffffff166000036141a0576040805160a08101825260015474ffffffffffffffffffffffffffffffffffffffffff811682527501000000000000000000000000000000000000000000810462ffffff9081166020840152780100000000000000000000000000000000000000000000000082048116938301939093527b01000000000000000000000000000000000000000000000000000000810490921660608201527e0100000000000000000000000000000000000000000000000000000000000090910461ffff16608082015293505b612a6186600085116141ca57855174ffffffffffffffffffffffffffffffffffffffffff166141cc565b845b866040015162ffffff16613935565b505050505090565b6000807f000000000000000000000000000000000000000000000000000000000000000073ffffffffffffffffffffffffffffffffffffffff1663feaf968c6040518163ffffffff1660e01b815260040160a060405180830381865afa158015614251573d6000803e3d6000fd5b505050506040513d601f19601f82011682018060405250810190613e31919061454f565b60006301e13380836020015164ffffffffff16420360648402028161429c5761429c6144b3565b049050620f424080820185026040850151919004915060e01680156142f15760006301e13380856060015162ffffff166064860202816142de576142de6144b3565b049050620f424082820281018402049250505b5080851161430b578385101561430857508261430b565b50835b949350505050565b73ffffffffffffffffffffffffffffffffffffffff8d8116825261ffff8d16602083015262ffffff8c16604083015264ffffffffff8b1660608301528916608082015287151560a082015286151560c0820152610180810186151560e08301528561010083015261438c61012083018662ffffff169052565b62ffffff9390931661014082015261016001529a9950505050505050505050565b6000602082840312156143bf57600080fd5b8135801515811461394a57600080fd5b6000602082840312156143e157600080fd5b5035919050565b600060208083528351808285015260005b81811015614415578581018301518582016040015282016143f9565b5060006040828601015260407fffffffffffffffffffffffffffffffffffffffffffffffffffffffffffffffe0601f8301168501019250505092915050565b7f4e487b7100000000000000000000000000000000000000000000000000000000600052601160045260246000fd5b8082028115828204841417612f4657612f46614454565b6000602082840312156144ac57600080fd5b5051919050565b7f4e487b7100000000000000000000000000000000000000000000000000000000600052601260045260246000fd5b600082614518577f4e487b7100000000000000000000000000000000000000000000000000000000600052601260045260246000fd5b500490565b80820180821115612f4657612f46614454565b805169ffffffffffffffffffff8116811461454a57600080fd5b919050565b600080600080600060a0868803121561456757600080fd5b61457086614530565b945060208601519350604086015192506060860151915061459360808701614530565b90509295509295909350565b69ffffffffffffffffffff81811683821601908082111561392e5761392e614454565b81810381811115612f4657612f46614454565b7f4e487b7100000000000000000000000000000000000000000000000000000000600052603260045260246000fd5b60007fffffffffffffffffffffffffffffffffffffffffffffffffffffffffffffffff820361463557614635614454565b5060010190565b7f4e487b7100000000000000000000000000000000000000000000000000000000600052604160045260246000fd5b69ffffffffffffffffffff82811682821603908082111561392e5761392e61445456fea2646970667358221220eb0ead618af2bee234c14147cf371a92fdafa7c70f986c86118f1b20a8b2b31264736f6c63430008150033"
}