{
  "address": "0x94312a608246Cecfce6811Db84B3Ef4B2619054E",
  "abi": [
    {
      "inputs": [
        {
          "components": [
            {
              "internalType": "string",
              "name": "name",
              "type": "string"
            },
            {
              "internalType": "address",
              "name": "owner",
              "type": "address"
            },
            {
              "internalType": "address",
              "name": "proposer",
              "type": "address"
            },
            {
              "internalType": "address",
              "name": "approver",
              "type": "address"
            },
            {
              "internalType": "address",
              "name": "rewardToken",
              "type": "address"
            },
            {
              "internalType": "uint256",
              "name": "distributionInHours",
              "type": "uint256"
            },
            {
              "internalType": "uint256",
              "name": "cycleInHours",
              "type": "uint256"
            },
            {
              "internalType": "uint256",
              "name": "startBlock",
              "type": "uint256"
            },
            {
              "internalType": "bool",
              "name": "pullFromDistributor",
              "type": "bool"
            },
            {
              "internalType": "uint256",
              "name": "vestingTime",
              "type": "uint256"
            },
            {
              "internalType": "uint256",
              "name": "vestingStartTime",
              "type": "uint256"
            }
          ],
          "internalType": "struct Structs.ConstructorParams",
          "name": "params_",
          "type": "tuple"
        }
      ],
      "stateMutability": "nonpayable",
      "type": "constructor"
    },
    {
      "inputs": [],
      "name": "InvalidCycle",
      "type": "error"
    },
    {
      "inputs": [],
      "name": "InvalidParams",
      "type": "error"
    },
    {
      "inputs": [],
      "name": "InvalidProof",
      "type": "error"
    },
    {
      "inputs": [],
      "name": "MsgSenderNotRecipient",
      "type": "error"
    },
    {
      "inputs": [],
      "name": "NothingToClaim",
      "type": "error"
    },
    {
      "inputs": [],
      "name": "Unauthorized",
      "type": "error"
    },
    {
      "anonymous": false,
      "inputs": [
        {
          "indexed": false,
          "internalType": "address",
          "name": "user",
          "type": "address"
        },
        {
          "indexed": false,
          "internalType": "uint256",
          "name": "amount",
          "type": "uint256"
        },
        {
          "indexed": false,
          "internalType": "uint256",
          "name": "cycle",
          "type": "uint256"
        },
        {
          "indexed": false,
          "internalType": "uint8",
          "name": "positionType",
          "type": "uint8"
        },
        {
          "indexed": false,
          "internalType": "bytes32",
          "name": "positionId",
          "type": "bytes32"
        },
        {
          "indexed": false,
          "internalType": "uint256",
          "name": "timestamp",
          "type": "uint256"
        },
        {
          "indexed": false,
          "internalType": "uint256",
          "name": "blockNumber",
          "type": "uint256"
        }
      ],
      "name": "LogClaimed",
      "type": "event"
    },
    {
      "anonymous": false,
      "inputs": [
        {
          "indexed": true,
          "internalType": "uint256",
          "name": "epoch",
          "type": "uint256"
        },
        {
          "indexed": true,
          "internalType": "address",
          "name": "initiator",
          "type": "address"
        },
        {
          "indexed": false,
          "internalType": "uint256",
          "name": "amount",
          "type": "uint256"
        },
        {
          "indexed": false,
          "internalType": "uint256",
          "name": "startCycle",
          "type": "uint256"
        },
        {
          "indexed": false,
          "internalType": "uint256",
          "name": "endCycle",
          "type": "uint256"
        },
        {
          "indexed": false,
          "internalType": "uint256",
          "name": "registrationBlock",
          "type": "uint256"
        },
        {
          "indexed": false,
          "internalType": "uint256",
          "name": "registrationTimestamp",
          "type": "uint256"
        }
      ],
      "name": "LogDistribution",
      "type": "event"
    },
    {
      "anonymous": false,
      "inputs": [
        {
          "indexed": false,
          "internalType": "bool",
          "name": "pullFromSender",
          "type": "bool"
        },
        {
          "indexed": false,
          "internalType": "uint256",
          "name": "blocksPerDistribution",
          "type": "uint256"
        },
        {
          "indexed": false,
          "internalType": "uint256",
          "name": "cyclesPerDistribution",
          "type": "uint256"
        }
      ],
      "name": "LogDistributionConfigUpdated",
      "type": "event"
    },
    {
      "anonymous": false,
      "inputs": [
        {
          "indexed": true,
          "internalType": "uint256",
          "name": "cycle",
          "type": "uint256"
        },
        {
          "indexed": true,
          "internalType": "uint256",
          "name": "epoch",
          "type": "uint256"
        },
        {
          "indexed": false,
          "internalType": "uint256",
          "name": "amount",
          "type": "uint256"
        },
        {
          "indexed": false,
          "internalType": "uint256",
          "name": "startBlock",
          "type": "uint256"
        },
        {
          "indexed": false,
          "internalType": "uint256",
          "name": "endBlock",
          "type": "uint256"
        }
      ],
      "name": "LogRewardCycle",
      "type": "event"
    },
    {
      "anonymous": false,
      "inputs": [
        {
          "indexed": false,
          "internalType": "address",
          "name": "distributor",
          "type": "address"
        },
        {
          "indexed": false,
          "internalType": "bool",
          "name": "isDistributor",
          "type": "bool"
        }
      ],
      "name": "LogRewardsDistributorToggled",
      "type": "event"
    },
    {
      "anonymous": false,
      "inputs": [
        {
          "indexed": false,
          "internalType": "uint256",
          "name": "cycle",
          "type": "uint256"
        },
        {
          "indexed": false,
          "internalType": "bytes32",
          "name": "root",
          "type": "bytes32"
        },
        {
          "indexed": false,
          "internalType": "bytes32",
          "name": "contentHash",
          "type": "bytes32"
        },
        {
          "indexed": false,
          "internalType": "uint256",
          "name": "timestamp",
          "type": "uint256"
        },
        {
          "indexed": false,
          "internalType": "uint256",
          "name": "blockNumber",
          "type": "uint256"
        }
      ],
      "name": "LogRootProposed",
      "type": "event"
    },
    {
      "anonymous": false,
      "inputs": [
        {
          "indexed": false,
          "internalType": "uint256",
          "name": "cycle",
          "type": "uint256"
        },
        {
          "indexed": false,
          "internalType": "bytes32",
          "name": "root",
          "type": "bytes32"
        },
        {
          "indexed": false,
          "internalType": "bytes32",
          "name": "contentHash",
          "type": "bytes32"
        },
        {
          "indexed": false,
          "internalType": "uint256",
          "name": "timestamp",
          "type": "uint256"
        },
        {
          "indexed": false,
          "internalType": "uint256",
          "name": "blockNumber",
          "type": "uint256"
        }
      ],
      "name": "LogRootUpdated",
      "type": "event"
    },
    {
      "anonymous": false,
      "inputs": [
        {
          "indexed": false,
          "internalType": "uint256",
          "name": "startBlockOfNextCycle",
          "type": "uint256"
        }
      ],
      "name": "LogStartBlockOfNextCycleUpdated",
      "type": "event"
    },
    {
      "anonymous": false,
      "inputs": [
        {
          "indexed": false,
          "internalType": "address",
          "name": "approver",
          "type": "address"
        },
        {
          "indexed": false,
          "internalType": "bool",
          "name": "isApprover",
          "type": "bool"
        }
      ],
      "name": "LogUpdateApprover",
      "type": "event"
    },
    {
      "anonymous": false,
      "inputs": [
        {
          "indexed": false,
          "internalType": "address",
          "name": "proposer",
          "type": "address"
        },
        {
          "indexed": false,
          "internalType": "bool",
          "name": "isProposer",
          "type": "bool"
        }
      ],
      "name": "LogUpdateProposer",
      "type": "event"
    },
    {
      "anonymous": false,
      "inputs": [
        {
          "indexed": true,
          "internalType": "address",
          "name": "user",
          "type": "address"
        },
        {
          "indexed": true,
          "internalType": "address",
          "name": "newOwner",
          "type": "address"
        }
      ],
      "name": "OwnershipTransferred",
      "type": "event"
    },
    {
      "anonymous": false,
      "inputs": [
        {
          "indexed": false,
          "internalType": "address",
          "name": "account",
          "type": "address"
        }
      ],
      "name": "Paused",
      "type": "event"
    },
    {
      "anonymous": false,
      "inputs": [
        {
          "indexed": false,
          "internalType": "address",
          "name": "account",
          "type": "address"
        }
      ],
      "name": "Unpaused",
      "type": "event"
    },
    {
      "inputs": [],
      "name": "TOKEN",
      "outputs": [
        {
          "internalType": "contract IERC20",
          "name": "",
          "type": "address"
        }
      ],
      "stateMutability": "view",
      "type": "function"
    },
    {
      "inputs": [
        {
          "internalType": "bytes32",
          "name": "root_",
          "type": "bytes32"
        },
        {
          "internalType": "bytes32",
          "name": "contentHash_",
          "type": "bytes32"
        },
        {
          "internalType": "uint40",
          "name": "cycle_",
          "type": "uint40"
        },
        {
          "internalType": "uint40",
          "name": "startBlock_",
          "type": "uint40"
        },
        {
          "internalType": "uint40",
          "name": "endBlock_",
          "type": "uint40"
        }
      ],
      "name": "approveRoot",
      "outputs": [],
      "stateMutability": "nonpayable",
      "type": "function"
    },
    {
      "inputs": [],
      "name": "blocksPerDistribution",
      "outputs": [
        {
          "internalType": "uint40",
          "name": "",
          "type": "uint40"
        }
      ],
      "stateMutability": "view",
      "type": "function"
    },
    {
      "inputs": [
        {
          "components": [
            {
              "internalType": "address",
              "name": "recipient",
              "type": "address"
            },
            {
              "internalType": "uint256",
              "name": "cumulativeAmount",
              "type": "uint256"
            },
            {
              "internalType": "uint8",
              "name": "positionType",
              "type": "uint8"
            },
            {
              "internalType": "bytes32",
              "name": "positionId",
              "type": "bytes32"
            },
            {
              "internalType": "uint256",
              "name": "cycle",
              "type": "uint256"
            },
            {
              "internalType": "bytes32[]",
              "name": "merkleProof",
              "type": "bytes32[]"
            },
            {
              "internalType": "bytes",
              "name": "metadata",
              "type": "bytes"
            }
          ],
          "internalType": "struct FluidMerkleDistributor.Claim[]",
          "name": "claims_",
          "type": "tuple[]"
        }
      ],
      "name": "bulkClaim",
      "outputs": [],
      "stateMutability": "nonpayable",
      "type": "function"
    },
    {
      "inputs": [
        {
          "internalType": "address",
          "name": "recipient_",
          "type": "address"
        },
        {
          "internalType": "uint256",
          "name": "cumulativeAmount_",
          "type": "uint256"
        },
        {
          "internalType": "uint8",
          "name": "positionType_",
          "type": "uint8"
        },
        {
          "internalType": "bytes32",
          "name": "positionId_",
          "type": "bytes32"
        },
        {
          "internalType": "uint256",
          "name": "cycle_",
          "type": "uint256"
        },
        {
          "internalType": "bytes32[]",
          "name": "merkleProof_",
          "type": "bytes32[]"
        },
        {
          "internalType": "bytes",
          "name": "metadata_",
          "type": "bytes"
        }
      ],
      "name": "claim",
      "outputs": [],
      "stateMutability": "nonpayable",
      "type": "function"
    },
    {
      "inputs": [
        {
          "internalType": "address",
          "name": "onBehalfOf_",
          "type": "address"
        },
        {
          "internalType": "address",
          "name": "recipient_",
          "type": "address"
        },
        {
          "internalType": "uint256",
          "name": "cumulativeAmount_",
          "type": "uint256"
        },
        {
          "internalType": "uint8",
          "name": "positionType_",
          "type": "uint8"
        },
        {
          "internalType": "bytes32",
          "name": "positionId_",
          "type": "bytes32"
        },
        {
          "internalType": "uint256",
          "name": "cycle_",
          "type": "uint256"
        },
        {
          "internalType": "bytes32[]",
          "name": "merkleProof_",
          "type": "bytes32[]"
        },
        {
          "internalType": "bytes",
          "name": "metadata_",
          "type": "bytes"
        }
      ],
      "name": "claimOnBehalfOf",
      "outputs": [],
      "stateMutability": "nonpayable",
      "type": "function"
    },
    {
      "inputs": [
        {
          "internalType": "address",
          "name": "",
          "type": "address"
        },
        {
          "internalType": "bytes32",
          "name": "",
          "type": "bytes32"
        }
      ],
      "name": "claimed",
      "outputs": [
        {
          "internalType": "uint256",
          "name": "",
          "type": "uint256"
        }
      ],
      "stateMutability": "view",
      "type": "function"
    },
    {
      "inputs": [],
      "name": "currentMerkleCycle",
      "outputs": [
        {
          "components": [
            {
              "internalType": "bytes32",
              "name": "merkleRoot",
              "type": "bytes32"
            },
            {
              "internalType": "bytes32",
              "name": "merkleContentHash",
              "type": "bytes32"
            },
            {
              "internalType": "uint40",
              "name": "cycle",
              "type": "uint40"
            },
            {
              "internalType": "uint40",
              "name": "timestamp",
              "type": "uint40"
            },
            {
              "internalType": "uint40",
              "name": "publishBlock",
              "type": "uint40"
            },
            {
              "internalType": "uint40",
              "name": "startBlock",
              "type": "uint40"
            },
            {
              "internalType": "uint40",
              "name": "endBlock",
              "type": "uint40"
            }
          ],
          "internalType": "struct Structs.MerkleCycle",
          "name": "",
          "type": "tuple"
        }
      ],
      "stateMutability": "view",
      "type": "function"
    },
    {
      "inputs": [],
      "name": "cyclesPerDistribution",
      "outputs": [
        {
          "internalType": "uint40",
          "name": "",
          "type": "uint40"
        }
      ],
      "stateMutability": "view",
      "type": "function"
    },
    {
      "inputs": [
        {
          "internalType": "uint256",
          "name": "amount_",
          "type": "uint256"
        }
      ],
      "name": "distributeRewards",
      "outputs": [],
      "stateMutability": "nonpayable",
      "type": "function"
    },
    {
      "inputs": [
        {
          "internalType": "address",
          "name": "recipient_",
          "type": "address"
        },
        {
          "internalType": "uint256",
          "name": "cumulativeAmount_",
          "type": "uint256"
        },
        {
          "internalType": "uint8",
          "name": "positionType_",
          "type": "uint8"
        },
        {
          "internalType": "bytes32",
          "name": "positionId_",
          "type": "bytes32"
        },
        {
          "internalType": "uint256",
          "name": "cycle_",
          "type": "uint256"
        },
        {
          "internalType": "bytes",
          "name": "metadata_",
          "type": "bytes"
        }
      ],
      "name": "encodeClaim",
      "outputs": [
        {
          "internalType": "bytes",
          "name": "encoded_",
          "type": "bytes"
        },
        {
          "internalType": "bytes32",
          "name": "hash_",
          "type": "bytes32"
        }
      ],
      "stateMutability": "pure",
      "type": "function"
    },
    {
      "inputs": [
        {
          "internalType": "uint256",
          "name": "cycle_",
          "type": "uint256"
        }
      ],
      "name": "getCycleReward",
      "outputs": [
        {
          "components": [
            {
              "internalType": "uint256",
              "name": "amount",
              "type": "uint256"
            },
            {
              "internalType": "uint40",
              "name": "cycle",
              "type": "uint40"
            },
            {
              "internalType": "uint40",
              "name": "startBlock",
              "type": "uint40"
            },
            {
              "internalType": "uint40",
              "name": "endBlock",
              "type": "uint40"
            },
            {
              "internalType": "uint40",
              "name": "epoch",
              "type": "uint40"
            }
          ],
          "internalType": "struct Structs.Reward",
          "name": "",
          "type": "tuple"
        }
      ],
      "stateMutability": "view",
      "type": "function"
    },
    {
      "inputs": [],
      "name": "getCycleRewards",
      "outputs": [
        {
          "components": [
            {
              "internalType": "uint256",
              "name": "amount",
              "type": "uint256"
            },
            {
              "internalType": "uint40",
              "name": "cycle",
              "type": "uint40"
            },
            {
              "internalType": "uint40",
              "name": "startBlock",
              "type": "uint40"
            },
            {
              "internalType": "uint40",
              "name": "endBlock",
              "type": "uint40"
            },
            {
              "internalType": "uint40",
              "name": "epoch",
              "type": "uint40"
            }
          ],
          "internalType": "struct Structs.Reward[]",
          "name": "",
          "type": "tuple[]"
        }
      ],
      "stateMutability": "view",
      "type": "function"
    },
    {
      "inputs": [
        {
          "internalType": "uint256",
          "name": "epoch_",
          "type": "uint256"
        }
      ],
      "name": "getDistributionForEpoch",
      "outputs": [
        {
          "components": [
            {
              "internalType": "uint256",
              "name": "amount",
              "type": "uint256"
            },
            {
              "internalType": "uint40",
              "name": "epoch",
              "type": "uint40"
            },
            {
              "internalType": "uint40",
              "name": "startCycle",
              "type": "uint40"
            },
            {
              "internalType": "uint40",
              "name": "endCycle",
              "type": "uint40"
            },
            {
              "internalType": "uint40",
              "name": "registrationBlock",
              "type": "uint40"
            },
            {
              "internalType": "uint40",
              "name": "registrationTimestamp",
              "type": "uint40"
            }
          ],
          "internalType": "struct Structs.Distribution",
          "name": "",
          "type": "tuple"
        }
      ],
      "stateMutability": "view",
      "type": "function"
    },
    {
      "inputs": [],
      "name": "getDistributions",
      "outputs": [
        {
          "components": [
            {
              "internalType": "uint256",
              "name": "amount",
              "type": "uint256"
            },
            {
              "internalType": "uint40",
              "name": "epoch",
              "type": "uint40"
            },
            {
              "internalType": "uint40",
              "name": "startCycle",
              "type": "uint40"
            },
            {
              "internalType": "uint40",
              "name": "endCycle",
              "type": "uint40"
            },
            {
              "internalType": "uint40",
              "name": "registrationBlock",
              "type": "uint40"
            },
            {
              "internalType": "uint40",
              "name": "registrationTimestamp",
              "type": "uint40"
            }
          ],
          "internalType": "struct Structs.Distribution[]",
          "name": "",
          "type": "tuple[]"
        }
      ],
      "stateMutability": "view",
      "type": "function"
    },
    {
      "inputs": [],
      "name": "hasPendingRoot",
      "outputs": [
        {
          "internalType": "bool",
          "name": "",
          "type": "bool"
        }
      ],
      "stateMutability": "view",
      "type": "function"
    },
    {
      "inputs": [
        {
          "internalType": "address",
          "name": "approver_",
          "type": "address"
        }
      ],
      "name": "isApprover",
      "outputs": [
        {
          "internalType": "bool",
          "name": "",
          "type": "bool"
        }
      ],
      "stateMutability": "view",
      "type": "function"
    },
    {
      "inputs": [
        {
          "internalType": "address",
          "name": "proposer_",
          "type": "address"
        }
      ],
      "name": "isProposer",
      "outputs": [
        {
          "internalType": "bool",
          "name": "",
          "type": "bool"
        }
      ],
      "stateMutability": "view",
      "type": "function"
    },
    {
      "inputs": [],
      "name": "name",
      "outputs": [
        {
          "internalType": "string",
          "name": "",
          "type": "string"
        }
      ],
      "stateMutability": "view",
      "type": "function"
    },
    {
      "inputs": [],
      "name": "owner",
      "outputs": [
        {
          "internalType": "address",
          "name": "",
          "type": "address"
        }
      ],
      "stateMutability": "view",
      "type": "function"
    },
    {
      "inputs": [],
      "name": "pause",
      "outputs": [],
      "stateMutability": "nonpayable",
      "type": "function"
    },
    {
      "inputs": [],
      "name": "paused",
      "outputs": [
        {
          "internalType": "bool",
          "name": "",
          "type": "bool"
        }
      ],
      "stateMutability": "view",
      "type": "function"
    },
    {
      "inputs": [],
      "name": "pendingMerkleCycle",
      "outputs": [
        {
          "components": [
            {
              "internalType": "bytes32",
              "name": "merkleRoot",
              "type": "bytes32"
            },
            {
              "internalType": "bytes32",
              "name": "merkleContentHash",
              "type": "bytes32"
            },
            {
              "internalType": "uint40",
              "name": "cycle",
              "type": "uint40"
            },
            {
              "internalType": "uint40",
              "name": "timestamp",
              "type": "uint40"
            },
            {
              "internalType": "uint40",
              "name": "publishBlock",
              "type": "uint40"
            },
            {
              "internalType": "uint40",
              "name": "startBlock",
              "type": "uint40"
            },
            {
              "internalType": "uint40",
              "name": "endBlock",
              "type": "uint40"
            }
          ],
          "internalType": "struct Structs.MerkleCycle",
          "name": "",
          "type": "tuple"
        }
      ],
      "stateMutability": "view",
      "type": "function"
    },
    {
      "inputs": [],
      "name": "previousMerkleRoot",
      "outputs": [
        {
          "internalType": "bytes32",
          "name": "",
          "type": "bytes32"
        }
      ],
      "stateMutability": "view",
      "type": "function"
    },
    {
      "inputs": [
        {
          "internalType": "bytes32",
          "name": "root_",
          "type": "bytes32"
        },
        {
          "internalType": "bytes32",
          "name": "contentHash_",
          "type": "bytes32"
        },
        {
          "internalType": "uint40",
          "name": "cycle_",
          "type": "uint40"
        },
        {
          "internalType": "uint40",
          "name": "startBlock_",
          "type": "uint40"
        },
        {
          "internalType": "uint40",
          "name": "endBlock_",
          "type": "uint40"
        }
      ],
      "name": "proposeRoot",
      "outputs": [],
      "stateMutability": "nonpayable",
      "type": "function"
    },
    {
      "inputs": [],
      "name": "pullFromDistributor",
      "outputs": [
        {
          "internalType": "bool",
          "name": "",
          "type": "bool"
        }
      ],
      "stateMutability": "view",
      "type": "function"
    },
    {
      "inputs": [
        {
          "internalType": "address",
          "name": "",
          "type": "address"
        }
      ],
      "name": "rewardsDistributor",
      "outputs": [
        {
          "internalType": "bool",
          "name": "",
          "type": "bool"
        }
      ],
      "stateMutability": "view",
      "type": "function"
    },
    {
      "inputs": [
        {
          "internalType": "uint40",
          "name": "startBlockOfNextCycle_",
          "type": "uint40"
        }
      ],
      "name": "setStartBlockOfNextCycle",
      "outputs": [],
      "stateMutability": "nonpayable",
      "type": "function"
    },
    {
      "inputs": [
        {
          "internalType": "address[]",
          "name": "targets_",
          "type": "address[]"
        },
        {
          "internalType": "bytes[]",
          "name": "calldatas_",
          "type": "bytes[]"
        }
      ],
      "name": "spell",
      "outputs": [],
      "stateMutability": "nonpayable",
      "type": "function"
    },
    {
      "inputs": [],
      "name": "startBlockOfNextCycle",
      "outputs": [
        {
          "internalType": "uint40",
          "name": "",
          "type": "uint40"
        }
      ],
      "stateMutability": "view",
      "type": "function"
    },
    {
      "inputs": [
        {
          "internalType": "address",
          "name": "distributor_",
          "type": "address"
        }
      ],
      "name": "toggleRewardsDistributor",
      "outputs": [],
      "stateMutability": "nonpayable",
      "type": "function"
    },
    {
      "inputs": [],
      "name": "totalCycleRewards",
      "outputs": [
        {
          "internalType": "uint256",
          "name": "",
          "type": "uint256"
        }
      ],
      "stateMutability": "view",
      "type": "function"
    },
    {
      "inputs": [],
      "name": "totalDistributions",
      "outputs": [
        {
          "internalType": "uint256",
          "name": "",
          "type": "uint256"
        }
      ],
      "stateMutability": "view",
      "type": "function"
    },
    {
      "inputs": [
        {
          "internalType": "address",
          "name": "newOwner",
          "type": "address"
        }
      ],
      "name": "transferOwnership",
      "outputs": [],
      "stateMutability": "nonpayable",
      "type": "function"
    },
    {
      "inputs": [],
      "name": "unpause",
      "outputs": [],
      "stateMutability": "nonpayable",
      "type": "function"
    },
    {
      "inputs": [
        {
          "internalType": "address",
          "name": "approver_",
          "type": "address"
        },
        {
          "internalType": "bool",
          "name": "isApprover_",
          "type": "bool"
        }
      ],
      "name": "updateApprover",
      "outputs": [],
      "stateMutability": "nonpayable",
      "type": "function"
    },
    {
      "inputs": [
        {
          "internalType": "bool",
          "name": "pullFromDistributor_",
          "type": "bool"
        },
        {
          "internalType": "uint40",
          "name": "blocksPerDistribution_",
          "type": "uint40"
        },
        {
          "internalType": "uint40",
          "name": "cyclesPerDistribution_",
          "type": "uint40"
        }
      ],
      "name": "updateDistributionConfig",
      "outputs": [],
      "stateMutability": "nonpayable",
      "type": "function"
    },
    {
      "inputs": [
        {
          "internalType": "address",
          "name": "proposer_",
          "type": "address"
        },
        {
          "internalType": "bool",
          "name": "isProposer_",
          "type": "bool"
        }
      ],
      "name": "updateProposer",
      "outputs": [],
      "stateMutability": "nonpayable",
      "type": "function"
    },
    {
      "inputs": [],
      "name": "vestingStartTime",
      "outputs": [
        {
          "internalType": "uint40",
          "name": "",
          "type": "uint40"
        }
      ],
      "stateMutability": "view",
      "type": "function"
    },
    {
      "inputs": [],
      "name": "vestingTime",
      "outputs": [
        {
          "internalType": "uint40",
          "name": "",
          "type": "uint40"
        }
      ],
      "stateMutability": "view",
      "type": "function"
    }
  ],
  "transactionHash": "0xfea20728f961404d35e154c5a41c22f95b75304c16bedd96cfcb22c7bc4fc6a8",
  "args": [
    {
      "name": "$FLUID rewards - Jul 2025",
      "owner": "0x9800020b610194dBa52CF606E8Aa142F9F256166",
      "proposer": "0x4f104710f8d9F6EFB28c4b2f057554928Daa3a83",
      "approver": "0x85dC44E0c3AfdFedCa52678bD4C000917C6597B2",
      "rewardToken": "0x61e030a56d33e8260fdd81f03b162a79fe3449cd",
      "distributionInHours": 1,
      "cycleInHours": 1,
      "startBlock": 0,
      "pullFromDistributor": false,
      "vestingTime": 0,
      "vestingStartTime": 0
    }
  ],
  "numDeployments": 1,
  "solcInputHash": "c0eb3ffaf58a3da44ae30ea8c498c566",
  "bytecode": "0x60a06040523480156200001157600080fd5b5060405162004843380380620048438339810160408190526200003491620005c6565b60208101516080820151600080546001600160a01b0319166001600160a01b038416908117825560405183928592917f8be0079c531659141344cd1fd0a4f28419497f9722a3daafe3b4186f6b6457e0908290a3506000805460ff60a01b191690556001600160a01b039081166080526020840151925082169050620000cd57604051635435b28960e11b815260040160405180910390fd5b60408201516001600160a01b038116620000fa57604051635435b28960e11b815260040160405180910390fd5b60608301516001600160a01b0381166200012757604051635435b28960e11b815260040160405180910390fd5b60808401516001600160a01b0381166200015457604051635435b28960e11b815260040160405180910390fd5b60a0850151158062000168575060c0850151155b156200018757604051635435b28960e11b815260040160405180910390fd5b845160019062000198908262000764565b50604085810180516001600160a01b0390811660009081526002602090815290849020805460ff1916600190811790915592518451921682528101919091527f780d738f356a91be5dfe8ffb87990c655a36b3430a233c71a209eb1e9a1a1a75910160405180910390a16060850180516001600160a01b03908116600090815260036020908152604091829020805460ff1916600190811790915593518251931683528201929092527feeeb06b5605b72367788db09c5284b141487cdc2ab0925fcf8880d30ea584376910160405180910390a160008560a00151610e1062000282919062000846565b905060008660c001518760a001516200029c91906200087c565b905046600103620002bc57620002b4600c8362000893565b915062000337565b4661a4b103620002d357620002b4826004620008ba565b466121051480620002e45750466089145b15620002f757620002b460028362000893565b60405162461bcd60e51b81526020600482015260116024820152702ab739bab83837b93a32b21031b430b4b760791b604482015260640160405180910390fd5b610100870151600f80546aff0000000000ffffffffff60281b1916600160781b92151592830264ffffffffff60281b1916176501000000000064ffffffffff8681169182029290921764ffffffffff1916918516918217909255604080519384526020840192909252908201527f7ec0e33f381405196f961b48c778f62e8184d357d894aa02af2444db07a09fd89060600160405180910390a1610120870151600f80546101408a015164ffffffffff908116600160a81b0264ffffffffff60a81b1991909416600160801b0216600160801b600160d01b03199091161791909117905560e087015115620004895760e0870151600f805464ffffffffff60501b19166a010000000000000000000064ffffffffff9093169283021790556040519081527f9d04c34d16567c8a1806a7cbaff030caed3589501bd3e0e3f282193a9b3afe619060200160405180910390a15b50505050505050620008e6565b634e487b7160e01b600052604160045260246000fd5b60405161016081016001600160401b0381118282101715620004d257620004d262000496565b60405290565b604051601f8201601f191681016001600160401b038111828210171562000503576200050362000496565b604052919050565b600082601f8301126200051d57600080fd5b81516001600160401b0381111562000539576200053962000496565b60206200054f601f8301601f19168201620004d8565b82815285828487010111156200056457600080fd5b60005b838110156200058457858101830151828201840152820162000567565b506000928101909101919091529392505050565b80516001600160a01b0381168114620005b057600080fd5b919050565b80518015158114620005b057600080fd5b600060208284031215620005d957600080fd5b81516001600160401b0380821115620005f157600080fd5b9083019061016082860312156200060757600080fd5b62000611620004ac565b8251828111156200062157600080fd5b6200062f878286016200050b565b825250620006406020840162000598565b6020820152620006536040840162000598565b6040820152620006666060840162000598565b6060820152620006796080840162000598565b608082015260a083015160a082015260c083015160c082015260e083015160e08201526101009150620006ae828401620005b5565b91810191909152610120828101519082015261014091820151918101919091529392505050565b600181811c90821680620006ea57607f821691505b6020821081036200070b57634e487b7160e01b600052602260045260246000fd5b50919050565b601f8211156200075f57600081815260208120601f850160051c810160208610156200073a5750805b601f850160051c820191505b818110156200075b5782815560010162000746565b5050505b505050565b81516001600160401b0381111562000780576200078062000496565b6200079881620007918454620006d5565b8462000711565b602080601f831160018114620007d05760008415620007b75750858301515b600019600386901b1c1916600185901b1785556200075b565b600085815260208120601f198616915b828110156200080157888601518255948401946001909101908401620007e0565b5085821015620008205787850151600019600388901b60f8161c191681555b5050505050600190811b01905550565b634e487b7160e01b600052601160045260246000fd5b808202811582820484141762000860576200086062000830565b92915050565b634e487b7160e01b600052601260045260246000fd5b6000826200088e576200088e62000866565b500490565b600064ffffffffff80841680620008ae57620008ae62000866565b92169190910492915050565b64ffffffffff818116838216028082169190828114620008de57620008de62000830565b505092915050565b608051613f2c62000917600039600081816105e8015281816118a90152818161218e01526125070152613f2c6000f3fe608060405234801561001057600080fd5b50600436106102c85760003560e01c806382bfefc81161017b578063a8a9bbfd116100d8578063da528f3e1161008c578063f2fde38b11610071578063f2fde38b1461084f578063f3bd53bf14610862578063fc5e231e1461088357600080fd5b8063da528f3e14610810578063dcf6de811461082f57600080fd5b8063c7dab436116100bd578063c7dab43614610719578063c81eec661461073e578063caf3791e1461080757600080fd5b8063a8a9bbfd146106f3578063be5013dc1461070657600080fd5b80639cfc7e831161012f578063a523d41911610114578063a523d419146106a1578063a7e7344a146106b4578063a8660a78146106c957600080fd5b80639cfc7e831461067d5780639d01a27d1461068e57600080fd5b8063864683d411610160578063864683d4146106375780638a1e6bba1461064a5780638da5cb5b1461065d57600080fd5b806382bfefc8146105e35780638456cb591461062f57600080fd5b806335c1dd99116102295780635c975abb116101dd57806370feb52a116101c257806370feb52a146105aa57806374ec29a0146105bd57806382bc4aaf146105d057600080fd5b80635c975abb146105745780636d218e481461059757600080fd5b80634617c06a1161020e5780634617c06a1461051e578063575936511461053157806359974e381461056157600080fd5b806335c1dd99146105035780633f4ba83a1461051657600080fd5b80630fc1bf6811610280578063163db71b11610265578063163db71b146103c15780632274c5cd146103c95780632f37a774146104fb57600080fd5b80630fc1bf681461038c5780631563461b146103ac57600080fd5b8063059527bf116102b1578063059527bf1461030b57806306fdde031461033e5780630f2d940b1461035357600080fd5b806302aa6318146102cd57806304585ac7146102eb575b600080fd5b6102d561088b565b6040516102e29190613291565b60405180910390f35b6102fe6102f9366004613327565b610961565b6040516102e29190613340565b61032e6103193660046133b3565b600e6020526000908152604090205460ff1681565b60405190151581526020016102e2565b610346610a6b565b6040516102e2919061343c565b61037e61036136600461344f565b600b60209081526000928352604080842090915290825290205481565b6040519081526020016102e2565b600f5461032e906f01000000000000000000000000000000900460ff1681565b6103bf6103ba36600461348a565b610af9565b005b600d5461037e565b6104926040805160e081018252600080825260208201819052918101829052606081018290526080810182905260a0810182905260c0810191909152506040805160e0810182526007548152600854602082015260095464ffffffffff80821693830193909352650100000000008104831660608301526a01000000000000000000008104831660808301526f010000000000000000000000000000008104831660a083015274010000000000000000000000000000000000000000900490911660c082015290565b6040516102e29190600060e0820190508251825260208301516020830152604083015164ffffffffff80821660408501528060608601511660608501528060808601511660808501528060a08601511660a08501528060c08601511660c0850152505092915050565b61032e610c5d565b6103bf6105113660046134d6565b610c89565b6103bf610f7c565b6103bf61052c3660046134d6565b611007565b600f5461054b9065010000000000900464ffffffffff1681565b60405164ffffffffff90911681526020016102e2565b6103bf61056f366004613327565b611278565b60005474010000000000000000000000000000000000000000900460ff1661032e565b61032e6105a53660046133b3565b611945565b6103bf6105b83660046133b3565b611999565b61032e6105cb3660046133b3565b611af8565b6103bf6105de3660046136ed565b611b49565b61060a7f000000000000000000000000000000000000000000000000000000000000000081565b60405173ffffffffffffffffffffffffffffffffffffffff90911681526020016102e2565b6103bf611c2a565b6103bf6106453660046137ad565b611cb3565b6103bf610658366004613814565b611df9565b60005461060a9073ffffffffffffffffffffffffffffffffffffffff1681565b600f5461054b9064ffffffffff1681565b6103bf61069c36600461348a565b611f96565b6103bf6106af366004613867565b6120ec565b6106bc612233565b6040516102e2919061391f565b600f5461054b907501000000000000000000000000000000000000000000900464ffffffffff1681565b6103bf61070136600461399d565b6122e1565b6103bf6107143660046139e2565b612497565b600f5461054b90700100000000000000000000000000000000900464ffffffffff1681565b6104926040805160e081018252600080825260208201819052918101829052606081018290526080810182905260a0810182905260c0810191909152506040805160e0810182526004548152600554602082015260065464ffffffffff80821693830193909352650100000000008104831660608301526a01000000000000000000008104831660808301526f010000000000000000000000000000008104831660a083015274010000000000000000000000000000000000000000900490911660c082015290565b61037e600a5481565b600f5461054b906a0100000000000000000000900464ffffffffff1681565b61084261083d366004613327565b6125ab565b6040516102e29190613a89565b6103bf61085d3660046133b3565b6126db565b610875610870366004613adf565b6127cc565b6040516102e2929190613b59565b600c5461037e565b6060600d805480602002602001604051908101604052809291908181526020016000905b828210156109585760008481526020908190206040805160c081018252600286029092018054835260019081015464ffffffffff808216858701526501000000000082048116938501939093526a01000000000000000000008104831660608501526f0100000000000000000000000000000081048316608085015274010000000000000000000000000000000000000000900490911660a083015290835290920191016108af565b50505050905090565b6040805160a081018252600080825260208201819052918101829052606081018290526080810191909152600c5482118061099a575081155b156109d1576040517fa86b651200000000000000000000000000000000000000000000000000000000815260040160405180910390fd5b600c6109de600184613baa565b815481106109ee576109ee613bbd565b60009182526020918290206040805160a0810182526002909302909101805483526001015464ffffffffff808216948401949094526501000000000081048416918301919091526a01000000000000000000008104831660608301526f010000000000000000000000000000009004909116608082015292915050565b60018054610a7890613bec565b80601f0160208091040260200160405190810160405280929190818152602001828054610aa490613bec565b8015610af15780601f10610ac657610100808354040283529160200191610af1565b820191906000526020600020905b815481529060010190602001808311610ad457829003601f168201915b505050505081565b60005473ffffffffffffffffffffffffffffffffffffffff163314610b7f576040517f08c379a000000000000000000000000000000000000000000000000000000000815260206004820152600c60248201527f554e415554484f52495a4544000000000000000000000000000000000000000060448201526064015b60405180910390fd5b8173ffffffffffffffffffffffffffffffffffffffff8116610bcd576040517fa86b651200000000000000000000000000000000000000000000000000000000815260040160405180910390fd5b73ffffffffffffffffffffffffffffffffffffffff831660008181526003602090815260409182902080547fffffffffffffffffffffffffffffffffffffffffffffffffffffffffffffff00168615159081179091558251938452908301527feeeb06b5605b72367788db09c5284b141487cdc2ab0925fcf8880d30ea58437691015b60405180910390a1505050565b600654600090610c759064ffffffffff166001613c3f565b60095464ffffffffff908116911614919050565b610c9233611945565b610cc8576040517f82b4290000000000000000000000000000000000000000000000000000000000815260040160405180910390fd5b6040805160e081018252600754808252600854602083015260095464ffffffffff80821694840194909452650100000000008104841660608401526a01000000000000000000008104841660808401526f010000000000000000000000000000008104841660a084015274010000000000000000000000000000000000000000900490921660c08201529086141580610d65575080602001518514155b80610d825750806040015164ffffffffff168464ffffffffff1614155b80610d9f57508060a0015164ffffffffff168364ffffffffff1614155b80610dbc57508060c0015164ffffffffff168264ffffffffff1614155b15610df3576040517fa86b651200000000000000000000000000000000000000000000000000000000815260040160405180910390fd5b60048054600a554264ffffffffff818116606085810182905243808416608080890182905288519097556020808901516005556040808a01516006805460a0808e015160c08f0151948c167fffffffffffffffffffffffffffffffffffffffffffff000000000000000000009093169290921765010000000000909a02999099177fffffffffffffffffffffffff00000000000000000000ffffffffffffffffffff166a01000000000000000000009096027fffffffffffffffffffffffff0000000000ffffffffffffffffffffffffffffff16959095176f01000000000000000000000000000000958a1695909502949094177fffffffffffffff0000000000ffffffffffffffffffffffffffffffffffffffff167401000000000000000000000000000000000000000091891691909102179092558151958c16865285018d905284018b905290830193909352928101919091527fcc3c3071340d91a4fd687f9ad48d1ee5689f8083136feb3594807d0f7481f7cf910160405180910390a1505050505050565b60005473ffffffffffffffffffffffffffffffffffffffff163314610ffd576040517f08c379a000000000000000000000000000000000000000000000000000000000815260206004820152600c60248201527f554e415554484f52495a454400000000000000000000000000000000000000006044820152606401610b76565b61100561284e565b565b61100f6128cb565b61101833611af8565b61104e576040517f82b4290000000000000000000000000000000000000000000000000000000000815260040160405180910390fd5b6006546110639064ffffffffff166001613c3f565b64ffffffffff168364ffffffffff1614158061108c57508064ffffffffff168264ffffffffff16115b156110c3576040517fa86b651200000000000000000000000000000000000000000000000000000000815260040160405180910390fd5b6040805160e0810182528681526020810186905264ffffffffff8086168284018190524280831660608501819052438085166080870181905289861660a0880181905295891660c090970187905260078d905560088c905560098054740100000000000000000000000000000000000000009098027fffffffffffffff0000000000ffffffffffffffffffffffffffffffffffffffff6f010000000000000000000000000000009098027fffffffffffffffffffffffff0000000000ffffffffffffffffffffffffffffff6a0100000000000000000000909402939093167fffffffffffffffffffffffff00000000000000000000ffffffffffffffffffff650100000000009096027fffffffffffffffffffffffffffffffffffffffffffff00000000000000000000909a1690971798909817939093169490941793909317939093169390931790915591517fb38026cc978f6c2642a5108ee558571a1b01a939b056abcc065b7eabacaf2d9d926112699287928a928a929164ffffffffff959095168552602085019390935260408401919091526060830152608082015260a00190565b60405180910390a15050505050565b336000908152600e602052604090205460ff161580156112b0575060005473ffffffffffffffffffffffffffffffffffffffff163314155b156112e7576040517f82b4290000000000000000000000000000000000000000000000000000000000815260040160405180910390fd5b80600003611321576040517fa86b651200000000000000000000000000000000000000000000000000000000815260040160405180910390fd5b600f546000906113389064ffffffffff1683613c93565b600f5490915060009061135e9064ffffffffff8082169165010000000000900416613ca7565b600c5464ffffffffff9190911691506000811561141e576000600c611384600185613baa565b8154811061139457611394613bbd565b9060005260206000209060020201600101600a9054906101000a900464ffffffffff1660016113c39190613c3f565b600f5464ffffffffff91821692506a010000000000000000000090041681101561140657600f546a0100000000000000000000900464ffffffffff169150611418565b4381116114135743611415565b805b91505b5061145c565b600f546a0100000000000000000000900464ffffffffff166114405743611459565b600f546a0100000000000000000000900464ffffffffff165b90505b80600003611496576040517fa86b651200000000000000000000000000000000000000000000000000000000815260040160405180910390fd5b600d546000906114a7906001613ccb565b9050600d6040518060c001604052808881526020018364ffffffffff1681526020018560016114d69190613ccb565b64ffffffffff9081168252600f546020909201916114f5911687613ccb565b64ffffffffff9081168252438116602080840191909152428216604093840152845460018181018755600096875282872086516002909302019182559185015191018054938501516060860151608087015160a090970151851674010000000000000000000000000000000000000000027fffffffffffffff0000000000ffffffffffffffffffffffffffffffffffffffff9786166f01000000000000000000000000000000027fffffffffffffffffffffffff0000000000ffffffffffffffffffffffffffffff9287166a010000000000000000000002929092167fffffffffffffffffffffffff00000000000000000000ffffffffffffffffffff93871665010000000000027fffffffffffffffffffffffffffffffffffffffffffff00000000000000000000909816959096169490941795909517169290921792909217929092161790555b600f5464ffffffffff16811015611885576000600161165d8786613ccb565b6116679190613baa565b9050600082611677876001613ccb565b6116819190613ccb565b600f54909150889061169c9060019064ffffffffff16613cde565b64ffffffffff1684036116c0576116b3848a613cfc565b6116bd908b613baa565b90505b6040805160a08101825282815264ffffffffff80851660208301908152898216838501908152878316606085019081528a841660808601908152600c8054600181018255600091909152955160029096027fdf6966c971051c3d54ec59162606531493a51404a002842f56009d7e5cf4a8c781019690965592517fdf6966c971051c3d54ec59162606531493a51404a002842f56009d7e5cf4a8c8909501805492519151935185166f01000000000000000000000000000000027fffffffffffffffffffffffff0000000000ffffffffffffffffffffffffffffff9486166a010000000000000000000002949094167fffffffffffffffffffffffff00000000000000000000ffffffffffffffffffff92861665010000000000027fffffffffffffffffffffffffffffffffffffffffffff00000000000000000000909416969095169590951791909117169190911717905551859083907f9d1578529527d7ca977e6e95da5e7302299dfa7894fea3a1992ce68741ff5a0a9061185a9085908b9089909283526020830191909152604082015260600190565b60405180910390a361186d836001613ccb565b9550505050808061187d90613d13565b91505061163e565b50600f546f01000000000000000000000000000000900460ff16156118d0576118d07f0000000000000000000000000000000000000000000000000000000000000000333089612950565b33817fd3aec04e72c75d4a42792ce6fe015d1ec10b07a8a621c9df2a89bd3644cf7ca8886118ff876001613ccb565b600f546119139064ffffffffff1689613ccb565b6040805193845260208401929092529082015243606082015242608082015260a00160405180910390a3505050505050565b73ffffffffffffffffffffffffffffffffffffffff811660009081526003602052604081205460ff1680611993575060005473ffffffffffffffffffffffffffffffffffffffff8381169116145b92915050565b60005473ffffffffffffffffffffffffffffffffffffffff163314611a1a576040517f08c379a000000000000000000000000000000000000000000000000000000000815260206004820152600c60248201527f554e415554484f52495a454400000000000000000000000000000000000000006044820152606401610b76565b73ffffffffffffffffffffffffffffffffffffffff8116611a67576040517fa86b651200000000000000000000000000000000000000000000000000000000815260040160405180910390fd5b73ffffffffffffffffffffffffffffffffffffffff81166000818152600e6020908152604091829020805460ff8116157fffffffffffffffffffffffffffffffffffffffffffffffffffffffffffffff0090911681179091558251938452908301527f7070b1fa79059dab7359a2e5b3be557471a19c213ba384d17144bc86d149672391015b60405180910390a150565b73ffffffffffffffffffffffffffffffffffffffff811660009081526002602052604081205460ff168061199357505060005473ffffffffffffffffffffffffffffffffffffffff91821691161490565b60005473ffffffffffffffffffffffffffffffffffffffff163314611bca576040517f08c379a000000000000000000000000000000000000000000000000000000000815260206004820152600c60248201527f554e415554484f52495a454400000000000000000000000000000000000000006044820152606401610b76565b60005b8251811015611c2557611c12838281518110611beb57611beb613bbd565b6020026020010151838381518110611c0557611c05613bbd565b6020026020010151612a32565b5080611c1d81613d13565b915050611bcd565b505050565b60005473ffffffffffffffffffffffffffffffffffffffff163314611cab576040517f08c379a000000000000000000000000000000000000000000000000000000000815260206004820152600c60248201527f554e415554484f52495a454400000000000000000000000000000000000000006044820152606401610b76565b611005612a7e565b60005473ffffffffffffffffffffffffffffffffffffffff163314611d34576040517f08c379a000000000000000000000000000000000000000000000000000000000815260206004820152600c60248201527f554e415554484f52495a454400000000000000000000000000000000000000006044820152606401610b76565b438164ffffffffff161080611d4e575064ffffffffff8116155b15611d85576040517fa86b651200000000000000000000000000000000000000000000000000000000815260040160405180910390fd5b600f80547fffffffffffffffffffffffffffffffffff0000000000ffffffffffffffffffff166a010000000000000000000064ffffffffff8416908102919091179091556040519081527f9d04c34d16567c8a1806a7cbaff030caed3589501bd3e0e3f282193a9b3afe6190602001611aed565b60005b81811015611c2557611f84838383818110611e1957611e19613bbd565b9050602002810190611e2b9190613d4b565b611e399060208101906133b3565b848484818110611e4b57611e4b613bbd565b9050602002810190611e5d9190613d4b565b60200135858585818110611e7357611e73613bbd565b9050602002810190611e859190613d4b565b611e96906060810190604001613d89565b868686818110611ea857611ea8613bbd565b9050602002810190611eba9190613d4b565b60600135878787818110611ed057611ed0613bbd565b9050602002810190611ee29190613d4b565b60800135888888818110611ef857611ef8613bbd565b9050602002810190611f0a9190613d4b565b611f189060a0810190613da4565b8a8a8a818110611f2a57611f2a613bbd565b9050602002810190611f3c9190613d4b565b611f4a9060c0810190613e0c565b8080601f01602080910402602001604051908101604052809392919081815260200183838082843760009201919091525061249792505050565b80611f8e81613d13565b915050611dfc565b60005473ffffffffffffffffffffffffffffffffffffffff163314612017576040517f08c379a000000000000000000000000000000000000000000000000000000000815260206004820152600c60248201527f554e415554484f52495a454400000000000000000000000000000000000000006044820152606401610b76565b8173ffffffffffffffffffffffffffffffffffffffff8116612065576040517fa86b651200000000000000000000000000000000000000000000000000000000815260040160405180910390fd5b73ffffffffffffffffffffffffffffffffffffffff831660008181526002602090815260409182902080547fffffffffffffffffffffffffffffffffffffffffffffffffffffffffffffff00168615159081179091558251938452908301527f780d738f356a91be5dfe8ffb87990c655a36b3430a233c71a209eb1e9a1a1a759101610c50565b60005473ffffffffffffffffffffffffffffffffffffffff16331461216d576040517f08c379a000000000000000000000000000000000000000000000000000000000815260206004820152600c60248201527f554e415554484f52495a454400000000000000000000000000000000000000006044820152606401610b76565b6121756128cb565b60006121878a89898989898989612aed565b90506121b47f00000000000000000000000000000000000000000000000000000000000000008a83612e07565b6040805173ffffffffffffffffffffffffffffffffffffffff8c1681526020810183905290810186905260ff88166060820152608081018790524260a08201524360c08201527f309cb1c0dc6ce0f02c0c35cc1f46bbe61ec9deb311d101b87e7d25bd0b647fd79060e00160405180910390a150505050505050505050565b6060600c805480602002602001604051908101604052809291908181526020016000905b828210156109585760008481526020908190206040805160a081018252600286029092018054835260019081015464ffffffffff808216858701526501000000000082048116938501939093526a01000000000000000000008104831660608501526f01000000000000000000000000000000900490911660808301529083529092019101612257565b60005473ffffffffffffffffffffffffffffffffffffffff163314612362576040517f08c379a000000000000000000000000000000000000000000000000000000000815260206004820152600c60248201527f554e415554484f52495a454400000000000000000000000000000000000000006044820152606401610b76565b64ffffffffff8216158061237b575064ffffffffff8116155b156123b2576040517fa86b651200000000000000000000000000000000000000000000000000000000815260040160405180910390fd5b600f80547fffffffffffffffffffffffffffffffff00ffffffffff0000000000ffffffffff166f010000000000000000000000000000008515159081027fffffffffffffffffffffffffffffffffffffffffffff0000000000ffffffffff16919091176501000000000064ffffffffff868116918202929092177fffffffffffffffffffffffffffffffffffffffffffffffffffffff000000000016918516918217909355604080519283526020830193909352918101919091527f7ec0e33f381405196f961b48c778f62e8184d357d894aa02af2444db07a09fd890606001610c50565b61249f6128cb565b3373ffffffffffffffffffffffffffffffffffffffff8916146124ee576040517fbd79de5800000000000000000000000000000000000000000000000000000000815260040160405180910390fd5b60006125008989898989898989612aed565b905061252d7f00000000000000000000000000000000000000000000000000000000000000008a83612e07565b6040805173ffffffffffffffffffffffffffffffffffffffff8b1681526020810183905290810186905260ff88166060820152608081018790524260a08201524360c08201527f309cb1c0dc6ce0f02c0c35cc1f46bbe61ec9deb311d101b87e7d25bd0b647fd79060e00160405180910390a1505050505050505050565b6040805160c081018252600080825260208201819052918101829052606081018290526080810182905260a0810191909152600d548211806125eb575081155b15612622576040517fa86b651200000000000000000000000000000000000000000000000000000000815260040160405180910390fd5b600d61262f600184613baa565b8154811061263f5761263f613bbd565b60009182526020918290206040805160c0810182526002909302909101805483526001015464ffffffffff808216948401949094526501000000000081048416918301919091526a01000000000000000000008104831660608301526f0100000000000000000000000000000081048316608083015274010000000000000000000000000000000000000000900490911660a082015292915050565b60005473ffffffffffffffffffffffffffffffffffffffff16331461275c576040517f08c379a000000000000000000000000000000000000000000000000000000000815260206004820152600c60248201527f554e415554484f52495a454400000000000000000000000000000000000000006044820152606401610b76565b600080547fffffffffffffffffffffffff00000000000000000000000000000000000000001673ffffffffffffffffffffffffffffffffffffffff83169081178255604051909133917f8be0079c531659141344cd1fd0a4f28419497f9722a3daafe3b4186f6b6457e09190a350565b60606000858589868a876040516020016127eb96959493929190613e71565b604080517fffffffffffffffffffffffffffffffffffffffffffffffffffffffffffffffe0818403018152828252805160208083019190912090840152935001604051602081830303815290604052805190602001209050965096945050505050565b612856612e5d565b600080547fffffffffffffffffffffff00ffffffffffffffffffffffffffffffffffffffff1690557f5db9ee0a495bf2e6ff9c91a7834c1ba4fdd244a5e8aa4e537bd38aeae4b073aa335b60405173ffffffffffffffffffffffffffffffffffffffff909116815260200160405180910390a1565b60005474010000000000000000000000000000000000000000900460ff1615611005576040517f08c379a000000000000000000000000000000000000000000000000000000000815260206004820152601060248201527f5061757361626c653a20706175736564000000000000000000000000000000006044820152606401610b76565b60405173ffffffffffffffffffffffffffffffffffffffff80851660248301528316604482015260648101829052612a2c9085907f23b872dd00000000000000000000000000000000000000000000000000000000906084015b604080517fffffffffffffffffffffffffffffffffffffffffffffffffffffffffffffffe08184030181529190526020810180517bffffffffffffffffffffffffffffffffffffffffffffffffffffffff167fffffffff0000000000000000000000000000000000000000000000000000000090931692909217909152612ee1565b50505050565b6060600080835160208501865af43d6040519250601f19601f6020830101168301604052808352806000602085013e811560018103612a7557816000803e816000fd5b50505092915050565b612a866128cb565b600080547fffffffffffffffffffffff00ffffffffffffffffffffffffffffffffffffffff16740100000000000000000000000000000000000000001790557f62e78cea01bee320cd4e420270b5ea74000d11b0c9f74754ebdbfc544b05a2586128a13390565b60065460009064ffffffffff1685811480612b1c5750600081118015612b1c5750612b19600182613baa565b86145b612b52576040517f9b8febfe00000000000000000000000000000000000000000000000000000000815260040160405180910390fd5b600088888c898d88604051602001612b6f96959493929190613e71565b604080517fffffffffffffffffffffffffffffffffffffffffffffffffffffffffffffffe081840301815282825280516020918201209083015201604051602081830303815290604052805190602001209050612c1286868080602002602001604051908101604052809392919081815260200183836020028082843760009201919091525050508985149050612c0857600a54612c0c565b6004545b83612fed565b612c48576040517f09bde33900000000000000000000000000000000000000000000000000000000815260040160405180910390fd5b73ffffffffffffffffffffffffffffffffffffffff8b166000908152600b602090815260408083208b8452909152902054612c83908b613baa565b925082600003612cbf576040517f969bf72800000000000000000000000000000000000000000000000000000000815260040160405180910390fd5b600f54700100000000000000000000000000000000900464ffffffffff1615612db357600f54600090612d12907501000000000000000000000000000000000000000000900464ffffffffff1642613baa565b600f54909150700100000000000000000000000000000000900464ffffffffff16811015612db157600f54600090700100000000000000000000000000000000900464ffffffffff16612d65838e613cfc565b612d6f9190613c93565b73ffffffffffffffffffffffffffffffffffffffff8e166000908152600b602090815260408083208e8452909152902054909150612dad9082613baa565b9450505b505b73ffffffffffffffffffffffffffffffffffffffff8b166000908152600b602090815260408083208b845290915281208054859290612df3908490613ccb565b90915550929b9a5050505050505050505050565b60405173ffffffffffffffffffffffffffffffffffffffff8316602482015260448101829052611c259084907fa9059cbb00000000000000000000000000000000000000000000000000000000906064016129aa565b60005474010000000000000000000000000000000000000000900460ff16611005576040517f08c379a000000000000000000000000000000000000000000000000000000000815260206004820152601460248201527f5061757361626c653a206e6f74207061757365640000000000000000000000006044820152606401610b76565b6000612f43826040518060400160405280602081526020017f5361666545524332303a206c6f772d6c6576656c2063616c6c206661696c65648152508573ffffffffffffffffffffffffffffffffffffffff166130039092919063ffffffff16565b805190915015611c255780806020019051810190612f619190613ec7565b611c25576040517f08c379a000000000000000000000000000000000000000000000000000000000815260206004820152602a60248201527f5361666545524332303a204552433230206f7065726174696f6e20646964206e60448201527f6f742073756363656564000000000000000000000000000000000000000000006064820152608401610b76565b600082612ffa858461301a565b14949350505050565b60606130128484600085613067565b949350505050565b600081815b845181101561305f5761304b8286838151811061303e5761303e613bbd565b6020026020010151613180565b91508061305781613d13565b91505061301f565b509392505050565b6060824710156130f9576040517f08c379a000000000000000000000000000000000000000000000000000000000815260206004820152602660248201527f416464726573733a20696e73756666696369656e742062616c616e636520666f60448201527f722063616c6c00000000000000000000000000000000000000000000000000006064820152608401610b76565b6000808673ffffffffffffffffffffffffffffffffffffffff1685876040516131229190613ee4565b60006040518083038185875af1925050503d806000811461315f576040519150601f19603f3d011682016040523d82523d6000602084013e613164565b606091505b5091509150613175878383876131b2565b979650505050505050565b600081831061319c5760008281526020849052604090206131ab565b60008381526020839052604090205b9392505050565b606083156132485782516000036132415773ffffffffffffffffffffffffffffffffffffffff85163b613241576040517f08c379a000000000000000000000000000000000000000000000000000000000815260206004820152601d60248201527f416464726573733a2063616c6c20746f206e6f6e2d636f6e74726163740000006044820152606401610b76565b5081613012565b613012838381511561325d5781518083602001fd5b806040517f08c379a0000000000000000000000000000000000000000000000000000000008152600401610b76919061343c565b6020808252825182820181905260009190848201906040850190845b8181101561331b5761330883855180518252602081015164ffffffffff80821660208501528060408401511660408501528060608401511660608501528060808401511660808501528060a08401511660a085015250505050565b9284019260c092909201916001016132ad565b50909695505050505050565b60006020828403121561333957600080fd5b5035919050565b60a08101611993828480518252602081015164ffffffffff808216602085015280604084015116604085015280606084015116606085015280608084015116608085015250505050565b803573ffffffffffffffffffffffffffffffffffffffff811681146133ae57600080fd5b919050565b6000602082840312156133c557600080fd5b6131ab8261338a565b60005b838110156133e95781810151838201526020016133d1565b50506000910152565b6000815180845261340a8160208601602086016133ce565b601f017fffffffffffffffffffffffffffffffffffffffffffffffffffffffffffffffe0169290920160200192915050565b6020815260006131ab60208301846133f2565b6000806040838503121561346257600080fd5b61346b8361338a565b946020939093013593505050565b801515811461348757600080fd5b50565b6000806040838503121561349d57600080fd5b6134a68361338a565b915060208301356134b681613479565b809150509250929050565b803564ffffffffff811681146133ae57600080fd5b600080600080600060a086880312156134ee57600080fd5b8535945060208601359350613505604087016134c1565b9250613513606087016134c1565b9150613521608087016134c1565b90509295509295909350565b7f4e487b7100000000000000000000000000000000000000000000000000000000600052604160045260246000fd5b604051601f82017fffffffffffffffffffffffffffffffffffffffffffffffffffffffffffffffe016810167ffffffffffffffff811182821017156135a3576135a361352d565b604052919050565b600067ffffffffffffffff8211156135c5576135c561352d565b5060051b60200190565b600082601f8301126135e057600080fd5b813567ffffffffffffffff8111156135fa576135fa61352d565b61362b60207fffffffffffffffffffffffffffffffffffffffffffffffffffffffffffffffe0601f8401160161355c565b81815284602083860101111561364057600080fd5b816020850160208301376000918101602001919091529392505050565b600082601f83011261366e57600080fd5b8135602061368361367e836135ab565b61355c565b82815260059290921b840181019181810190868411156136a257600080fd5b8286015b848110156136e257803567ffffffffffffffff8111156136c65760008081fd5b6136d48986838b01016135cf565b8452509183019183016136a6565b509695505050505050565b6000806040838503121561370057600080fd5b823567ffffffffffffffff8082111561371857600080fd5b818501915085601f83011261372c57600080fd5b8135602061373c61367e836135ab565b82815260059290921b8401810191818101908984111561375b57600080fd5b948201945b83861015613780576137718661338a565b82529482019490820190613760565b9650508601359250508082111561379657600080fd5b506137a38582860161365d565b9150509250929050565b6000602082840312156137bf57600080fd5b6131ab826134c1565b60008083601f8401126137da57600080fd5b50813567ffffffffffffffff8111156137f257600080fd5b6020830191508360208260051b850101111561380d57600080fd5b9250929050565b6000806020838503121561382757600080fd5b823567ffffffffffffffff81111561383e57600080fd5b61384a858286016137c8565b90969095509350505050565b803560ff811681146133ae57600080fd5b60008060008060008060008060006101008a8c03121561388657600080fd5b61388f8a61338a565b985061389d60208b0161338a565b975060408a013596506138b260608b01613856565b955060808a0135945060a08a0135935060c08a013567ffffffffffffffff808211156138dd57600080fd5b6138e98d838e016137c8565b909550935060e08c013591508082111561390257600080fd5b5061390f8c828d016135cf565b9150509295985092959850929598565b6020808252825182820181905260009190848201906040850190845b8181101561331b5761398a83855180518252602081015164ffffffffff808216602085015280604084015116604085015280606084015116606085015280608084015116608085015250505050565b9284019260a0929092019160010161393b565b6000806000606084860312156139b257600080fd5b83356139bd81613479565b92506139cb602085016134c1565b91506139d9604085016134c1565b90509250925092565b60008060008060008060008060e0898b0312156139fe57600080fd5b613a078961338a565b975060208901359650613a1c60408a01613856565b9550606089013594506080890135935060a089013567ffffffffffffffff80821115613a4757600080fd5b613a538c838d016137c8565b909550935060c08b0135915080821115613a6c57600080fd5b50613a798b828c016135cf565b9150509295985092959890939650565b60c08101611993828480518252602081015164ffffffffff80821660208501528060408401511660408501528060608401511660608501528060808401511660808501528060a08401511660a085015250505050565b60008060008060008060c08789031215613af857600080fd5b613b018761338a565b955060208701359450613b1660408801613856565b9350606087013592506080870135915060a087013567ffffffffffffffff811115613b4057600080fd5b613b4c89828a016135cf565b9150509295509295509295565b604081526000613b6c60408301856133f2565b90508260208301529392505050565b7f4e487b7100000000000000000000000000000000000000000000000000000000600052601160045260246000fd5b8181038181111561199357611993613b7b565b7f4e487b7100000000000000000000000000000000000000000000000000000000600052603260045260246000fd5b600181811c90821680613c0057607f821691505b602082108103613c39577f4e487b7100000000000000000000000000000000000000000000000000000000600052602260045260246000fd5b50919050565b64ffffffffff818116838216019080821115613c5d57613c5d613b7b565b5092915050565b7f4e487b7100000000000000000000000000000000000000000000000000000000600052601260045260246000fd5b600082613ca257613ca2613c64565b500490565b600064ffffffffff80841680613cbf57613cbf613c64565b92169190910492915050565b8082018082111561199357611993613b7b565b64ffffffffff828116828216039080821115613c5d57613c5d613b7b565b808202811582820484141761199357611993613b7b565b60007fffffffffffffffffffffffffffffffffffffffffffffffffffffffffffffffff8203613d4457613d44613b7b565b5060010190565b600082357fffffffffffffffffffffffffffffffffffffffffffffffffffffffffffffff21833603018112613d7f57600080fd5b9190910192915050565b600060208284031215613d9b57600080fd5b6131ab82613856565b60008083357fffffffffffffffffffffffffffffffffffffffffffffffffffffffffffffffe1843603018112613dd957600080fd5b83018035915067ffffffffffffffff821115613df457600080fd5b6020019150600581901b360382131561380d57600080fd5b60008083357fffffffffffffffffffffffffffffffffffffffffffffffffffffffffffffffe1843603018112613e4157600080fd5b83018035915067ffffffffffffffff821115613e5c57600080fd5b60200191503681900382131561380d57600080fd5b60ff8716815285602082015273ffffffffffffffffffffffffffffffffffffffff8516604082015283606082015282608082015260c060a08201526000613ebb60c08301846133f2565b98975050505050505050565b600060208284031215613ed957600080fd5b81516131ab81613479565b60008251613d7f8184602087016133ce56fea264697066735822122067d15f3bc936dd2eccc619fbe9e0aa569823a0896756a3fe1752e1bceb89e74f64736f6c63430008150033",
  "devdoc": {
    "events": {
      "Paused(address)": {
        "details": "Emitted when the pause is triggered by `account`."
      },
      "Unpaused(address)": {
        "details": "Emitted when the pause is lifted by `account`."
      }
    },
    "kind": "dev",
    "methods": {
      "claim(address,uint256,uint8,bytes32,uint256,bytes32[],bytes)": {
        "params": {
          "cumulativeAmount_": "- cumulative amount of rewards to claim",
          "cycle_": "- cycle of the rewards",
          "merkleProof_": "- merkle proof of the rewards",
          "positionId_": "- id of the position, fToken address for lending and vaultId for vaults",
          "positionType_": "- type of position, 1 for lending, 2 for vaults, 3 for smart lending, etc",
          "recipient_": "- address of the recipient"
        }
      },
      "claimOnBehalfOf(address,address,uint256,uint8,bytes32,uint256,bytes32[],bytes)": {
        "params": {
          "cumulativeAmount_": "- cumulative amount of rewards to claim",
          "cycle_": "- cycle of the rewards",
          "merkleProof_": "- merkle proof of the rewards",
          "onBehalfOf_": "- user on behalf of which to claim the rewards. this users rewards get transferred to recipient_",
          "positionId_": "- id of the position, fToken address for lending and vaultId for vaults",
          "positionType_": "- type of position, 1 for lending, 2 for vaults, 3 for smart lending, etc",
          "recipient_": "- address of the recipient"
        }
      },
      "distributeRewards(uint256)": {
        "params": {
          "amount_": "- amount of tokens to distribute rewards for"
        }
      },
      "getCycleReward(uint256)": {
        "params": {
          "cycle_": "- cycle of the reward"
        },
        "returns": {
          "_0": "reward_ - reward"
        }
      },
      "getCycleRewards()": {
        "returns": {
          "_0": "rewards_ - rewards"
        }
      },
      "getDistributionForEpoch(uint256)": {
        "params": {
          "epoch_": "- epoch of the distribution"
        },
        "returns": {
          "_0": "distribution_ - distribution"
        }
      },
      "getDistributions()": {
        "returns": {
          "_0": "distributions_ - all distributions"
        }
      },
      "paused()": {
        "details": "Returns true if the contract is paused, and false otherwise."
      },
      "setStartBlockOfNextCycle(uint40)": {
        "params": {
          "startBlockOfNextCycle_": "The start block of the next cycle"
        }
      },
      "spell(address[],bytes[])": {
        "details": "open payload method for admin to resolve emergency cases"
      },
      "toggleRewardsDistributor(address)": {
        "params": {
          "distributor_": "- address of the rewards distributor"
        }
      },
      "totalCycleRewards()": {
        "returns": {
          "_0": "totalCycles_ - total number of cycles"
        }
      },
      "totalDistributions()": {
        "returns": {
          "_0": "totalDistributions_ - total number of distributions"
        }
      },
      "updateApprover(address,bool)": {
        "params": {
          "approver_": "The address to update",
          "isApprover_": "Whether or not the address should be an allowed approver"
        }
      },
      "updateDistributionConfig(bool,uint40,uint40)": {
        "params": {
          "blocksPerDistribution_": "- duration of distribution in blocks",
          "cyclesPerDistribution_": "- number of cycles to distribute rewards, if 0 then means paused",
          "pullFromDistributor_": "- whether to pull rewards from distributor or not"
        }
      },
      "updateProposer(address,bool)": {
        "params": {
          "isProposer_": "Whether or not the address should be an allowed proposer",
          "proposer_": "The address to update"
        }
      }
    },
    "version": 1
  },
  "userdoc": {
    "events": {
      "LogClaimed(address,uint256,uint256,uint8,bytes32,uint256,uint256)": {
        "notice": "Emitted when a `user` claims `amount` via a valid merkle proof"
      },
      "LogDistribution(uint256,address,uint256,uint256,uint256,uint256,uint256)": {
        "notice": "Emitted when a new distribution is created"
      },
      "LogDistributionConfigUpdated(bool,uint256,uint256)": {
        "notice": "Emitted when the distribution configuration is updated"
      },
      "LogRewardCycle(uint256,uint256,uint256,uint256,uint256)": {
        "notice": "Emitted when a new reward cycle is created"
      },
      "LogRewardsDistributorToggled(address,bool)": {
        "notice": "Emitted when a rewards distributor is toggled"
      },
      "LogRootProposed(uint256,bytes32,bytes32,uint256,uint256)": {
        "notice": "Emitted when a new cycle root hash is proposed"
      },
      "LogRootUpdated(uint256,bytes32,bytes32,uint256,uint256)": {
        "notice": "Emitted when a new cycle root hash is approved by the owner and becomes the new active root"
      },
      "LogStartBlockOfNextCycleUpdated(uint256)": {
        "notice": "Emitted when the start block of the next cycle is updated"
      },
      "LogUpdateApprover(address,bool)": {
        "notice": "Emitted when an address is added or removed from the allowed approvers"
      },
      "LogUpdateProposer(address,bool)": {
        "notice": "Emitted when an address is added or removed from the allowed proposers"
      }
    },
    "kind": "user",
    "methods": {
      "approveRoot(bytes32,bytes32,uint40,uint40,uint40)": {
        "notice": "Approve the current pending root and content hash"
      },
      "blocksPerDistribution()": {
        "notice": "Duration of each distribution in blocks"
      },
      "claim(address,uint256,uint8,bytes32,uint256,bytes32[],bytes)": {
        "notice": "Claims rewards for a given recipient"
      },
      "claimOnBehalfOf(address,address,uint256,uint8,bytes32,uint256,bytes32[],bytes)": {
        "notice": "Claims rewards on behalf of an address for a given recipient. Only for backup claiming for integrating protocols without         ability to claim on their side. Only callable by owner."
      },
      "claimed(address,bytes32)": {
        "notice": "total claimed amount per user address and fToken. user => positionId => claimed amount"
      },
      "currentMerkleCycle()": {
        "notice": "merkle root data related to current cycle (proposed and approved)."
      },
      "cyclesPerDistribution()": {
        "notice": "Number of cycles to distribute rewards"
      },
      "distributeRewards(uint256)": {
        "notice": "Distributes rewards for a given token"
      },
      "getCycleReward(uint256)": {
        "notice": "Returns the cycle reward for a given cycle"
      },
      "getCycleRewards()": {
        "notice": "Returns the cycle rewards"
      },
      "getDistributionForEpoch(uint256)": {
        "notice": "Returns the distribution for a given epoch"
      },
      "getDistributions()": {
        "notice": "Returns all distributions"
      },
      "hasPendingRoot()": {
        "notice": "checks if there is a proposed root waiting to be approved"
      },
      "isApprover(address)": {
        "notice": "checks if the `approver_` is an allowed root approver"
      },
      "isProposer(address)": {
        "notice": "checks if the `proposer_` is an allowed root proposer"
      },
      "pause()": {
        "notice": "Pause contract functionality of new roots and claiming"
      },
      "pendingMerkleCycle()": {
        "notice": "merkle root data related to pending cycle (proposed but not yet approved)."
      },
      "previousMerkleRoot()": {
        "notice": "merkle root of the previous cycle"
      },
      "proposeRoot(bytes32,bytes32,uint40,uint40,uint40)": {
        "notice": "Propose a new root and content hash, which will be stored as pending until approved"
      },
      "pullFromDistributor()": {
        "notice": "Whether to pull tokens from distributor or not"
      },
      "rewardsDistributor(address)": {
        "notice": "allow list for rewards distributors"
      },
      "setStartBlockOfNextCycle(uint40)": {
        "notice": "Sets the start block of the next cycle"
      },
      "startBlockOfNextCycle()": {
        "notice": "Start block of the next cycle"
      },
      "toggleRewardsDistributor(address)": {
        "notice": "Toggles a rewards distributor"
      },
      "totalCycleRewards()": {
        "notice": "Returns the total number of cycles"
      },
      "totalDistributions()": {
        "notice": "Returns the total number of distributions"
      },
      "unpause()": {
        "notice": "Unpause contract functionality of new roots and claiming"
      },
      "updateApprover(address,bool)": {
        "notice": "Updates an address status as a root approver"
      },
      "updateDistributionConfig(bool,uint40,uint40)": {
        "notice": "Updates the distribution configuration"
      },
      "updateProposer(address,bool)": {
        "notice": "Updates an address status as a root proposer"
      },
      "vestingStartTime()": {
        "notice": "Vesting start time"
      },
      "vestingTime()": {
        "notice": "Vesting time for rewards"
      }
    },
    "version": 1
  },
  "storageLayout": {
    "storage": [
      {
        "astId": 45515,
        "contract": "contracts/protocols/lending/merkleDistributor/main.sol:FluidMerkleDistributor",
        "label": "owner",
        "offset": 0,
        "slot": "0",
        "type": "t_address"
      },
      {
        "astId": 185,
        "contract": "contracts/protocols/lending/merkleDistributor/main.sol:FluidMerkleDistributor",
        "label": "_paused",
        "offset": 20,
        "slot": "0",
        "type": "t_bool"
      },
      {
        "astId": 41663,
        "contract": "contracts/protocols/lending/merkleDistributor/main.sol:FluidMerkleDistributor",
        "label": "name",
        "offset": 0,
        "slot": "1",
        "type": "t_string_storage"
      },
      {
        "astId": 41668,
        "contract": "contracts/protocols/lending/merkleDistributor/main.sol:FluidMerkleDistributor",
        "label": "_proposers",
        "offset": 0,
        "slot": "2",
        "type": "t_mapping(t_address,t_bool)"
      },
      {
        "astId": 41673,
        "contract": "contracts/protocols/lending/merkleDistributor/main.sol:FluidMerkleDistributor",
        "label": "_approvers",
        "offset": 0,
        "slot": "3",
        "type": "t_mapping(t_address,t_bool)"
      },
      {
        "astId": 41677,
        "contract": "contracts/protocols/lending/merkleDistributor/main.sol:FluidMerkleDistributor",
        "label": "_currentMerkleCycle",
        "offset": 0,
        "slot": "4",
        "type": "t_struct(MerkleCycle)41601_storage"
      },
      {
        "astId": 41681,
        "contract": "contracts/protocols/lending/merkleDistributor/main.sol:FluidMerkleDistributor",
        "label": "_pendingMerkleCycle",
        "offset": 0,
        "slot": "7",
        "type": "t_struct(MerkleCycle)41601_storage"
      },
      {
        "astId": 41684,
        "contract": "contracts/protocols/lending/merkleDistributor/main.sol:FluidMerkleDistributor",
        "label": "previousMerkleRoot",
        "offset": 0,
        "slot": "10",
        "type": "t_bytes32"
      },
      {
        "astId": 41691,
        "contract": "contracts/protocols/lending/merkleDistributor/main.sol:FluidMerkleDistributor",
        "label": "claimed",
        "offset": 0,
        "slot": "11",
        "type": "t_mapping(t_address,t_mapping(t_bytes32,t_uint256))"
      },
      {
        "astId": 41696,
        "contract": "contracts/protocols/lending/merkleDistributor/main.sol:FluidMerkleDistributor",
        "label": "rewards",
        "offset": 0,
        "slot": "12",
        "type": "t_array(t_struct(Reward)41612_storage)dyn_storage"
      },
      {
        "astId": 41701,
        "contract": "contracts/protocols/lending/merkleDistributor/main.sol:FluidMerkleDistributor",
        "label": "distributions",
        "offset": 0,
        "slot": "13",
        "type": "t_array(t_struct(Distribution)41625_storage)dyn_storage"
      },
      {
        "astId": 41706,
        "contract": "contracts/protocols/lending/merkleDistributor/main.sol:FluidMerkleDistributor",
        "label": "rewardsDistributor",
        "offset": 0,
        "slot": "14",
        "type": "t_mapping(t_address,t_bool)"
      },
      {
        "astId": 41709,
        "contract": "contracts/protocols/lending/merkleDistributor/main.sol:FluidMerkleDistributor",
        "label": "cyclesPerDistribution",
        "offset": 0,
        "slot": "15",
        "type": "t_uint40"
      },
      {
        "astId": 41712,
        "contract": "contracts/protocols/lending/merkleDistributor/main.sol:FluidMerkleDistributor",
        "label": "blocksPerDistribution",
        "offset": 5,
        "slot": "15",
        "type": "t_uint40"
      },
      {
        "astId": 41715,
        "contract": "contracts/protocols/lending/merkleDistributor/main.sol:FluidMerkleDistributor",
        "label": "startBlockOfNextCycle",
        "offset": 10,
        "slot": "15",
        "type": "t_uint40"
      },
      {
        "astId": 41718,
        "contract": "contracts/protocols/lending/merkleDistributor/main.sol:FluidMerkleDistributor",
        "label": "pullFromDistributor",
        "offset": 15,
        "slot": "15",
        "type": "t_bool"
      },
      {
        "astId": 41721,
        "contract": "contracts/protocols/lending/merkleDistributor/main.sol:FluidMerkleDistributor",
        "label": "vestingTime",
        "offset": 16,
        "slot": "15",
        "type": "t_uint40"
      },
      {
        "astId": 41724,
        "contract": "contracts/protocols/lending/merkleDistributor/main.sol:FluidMerkleDistributor",
        "label": "vestingStartTime",
        "offset": 21,
        "slot": "15",
        "type": "t_uint40"
      }
    ],
    "types": {
      "t_address": {
        "encoding": "inplace",
        "label": "address",
        "numberOfBytes": "20"
      },
      "t_array(t_struct(Distribution)41625_storage)dyn_storage": {
        "base": "t_struct(Distribution)41625_storage",
        "encoding": "dynamic_array",
        "label": "struct Structs.Distribution[]",
        "numberOfBytes": "32"
      },
      "t_array(t_struct(Reward)41612_storage)dyn_storage": {
        "base": "t_struct(Reward)41612_storage",
        "encoding": "dynamic_array",
        "label": "struct Structs.Reward[]",
        "numberOfBytes": "32"
      },
      "t_bool": {
        "encoding": "inplace",
        "label": "bool",
        "numberOfBytes": "1"
      },
      "t_bytes32": {
        "encoding": "inplace",
        "label": "bytes32",
        "numberOfBytes": "32"
      },
      "t_mapping(t_address,t_bool)": {
        "encoding": "mapping",
        "key": "t_address",
        "label": "mapping(address => bool)",
        "numberOfBytes": "32",
        "value": "t_bool"
      },
      "t_mapping(t_address,t_mapping(t_bytes32,t_uint256))": {
        "encoding": "mapping",
        "key": "t_address",
        "label": "mapping(address => mapping(bytes32 => uint256))",
        "numberOfBytes": "32",
        "value": "t_mapping(t_bytes32,t_uint256)"
      },
      "t_mapping(t_bytes32,t_uint256)": {
        "encoding": "mapping",
        "key": "t_bytes32",
        "label": "mapping(bytes32 => uint256)",
        "numberOfBytes": "32",
        "value": "t_uint256"
      },
      "t_string_storage": {
        "encoding": "bytes",
        "label": "string",
        "numberOfBytes": "32"
      },
      "t_struct(Distribution)41625_storage": {
        "encoding": "inplace",
        "label": "struct Structs.Distribution",
        "members": [
          {
            "astId": 41614,
            "contract": "contracts/protocols/lending/merkleDistributor/main.sol:FluidMerkleDistributor",
            "label": "amount",
            "offset": 0,
            "slot": "0",
            "type": "t_uint256"
          },
          {
            "astId": 41616,
            "contract": "contracts/protocols/lending/merkleDistributor/main.sol:FluidMerkleDistributor",
            "label": "epoch",
            "offset": 0,
            "slot": "1",
            "type": "t_uint40"
          },
          {
            "astId": 41618,
            "contract": "contracts/protocols/lending/merkleDistributor/main.sol:FluidMerkleDistributor",
            "label": "startCycle",
            "offset": 5,
            "slot": "1",
            "type": "t_uint40"
          },
          {
            "astId": 41620,
            "contract": "contracts/protocols/lending/merkleDistributor/main.sol:FluidMerkleDistributor",
            "label": "endCycle",
            "offset": 10,
            "slot": "1",
            "type": "t_uint40"
          },
          {
            "astId": 41622,
            "contract": "contracts/protocols/lending/merkleDistributor/main.sol:FluidMerkleDistributor",
            "label": "registrationBlock",
            "offset": 15,
            "slot": "1",
            "type": "t_uint40"
          },
          {
            "astId": 41624,
            "contract": "contracts/protocols/lending/merkleDistributor/main.sol:FluidMerkleDistributor",
            "label": "registrationTimestamp",
            "offset": 20,
            "slot": "1",
            "type": "t_uint40"
          }
        ],
        "numberOfBytes": "64"
      },
      "t_struct(MerkleCycle)41601_storage": {
        "encoding": "inplace",
        "label": "struct Structs.MerkleCycle",
        "members": [
          {
            "astId": 41588,
            "contract": "contracts/protocols/lending/merkleDistributor/main.sol:FluidMerkleDistributor",
            "label": "merkleRoot",
            "offset": 0,
            "slot": "0",
            "type": "t_bytes32"
          },
          {
            "astId": 41590,
            "contract": "contracts/protocols/lending/merkleDistributor/main.sol:FluidMerkleDistributor",
            "label": "merkleContentHash",
            "offset": 0,
            "slot": "1",
            "type": "t_bytes32"
          },
          {
            "astId": 41592,
            "contract": "contracts/protocols/lending/merkleDistributor/main.sol:FluidMerkleDistributor",
            "label": "cycle",
            "offset": 0,
            "slot": "2",
            "type": "t_uint40"
          },
          {
            "astId": 41594,
            "contract": "contracts/protocols/lending/merkleDistributor/main.sol:FluidMerkleDistributor",
            "label": "timestamp",
            "offset": 5,
            "slot": "2",
            "type": "t_uint40"
          },
          {
            "astId": 41596,
            "contract": "contracts/protocols/lending/merkleDistributor/main.sol:FluidMerkleDistributor",
            "label": "publishBlock",
            "offset": 10,
            "slot": "2",
            "type": "t_uint40"
          },
          {
            "astId": 41598,
            "contract": "contracts/protocols/lending/merkleDistributor/main.sol:FluidMerkleDistributor",
            "label": "startBlock",
            "offset": 15,
            "slot": "2",
            "type": "t_uint40"
          },
          {
            "astId": 41600,
            "contract": "contracts/protocols/lending/merkleDistributor/main.sol:FluidMerkleDistributor",
            "label": "endBlock",
            "offset": 20,
            "slot": "2",
            "type": "t_uint40"
          }
        ],
        "numberOfBytes": "96"
      },
      "t_struct(Reward)41612_storage": {
        "encoding": "inplace",
        "label": "struct Structs.Reward",
        "members": [
          {
            "astId": 41603,
            "contract": "contracts/protocols/lending/merkleDistributor/main.sol:FluidMerkleDistributor",
            "label": "amount",
            "offset": 0,
            "slot": "0",
            "type": "t_uint256"
          },
          {
            "astId": 41605,
            "contract": "contracts/protocols/lending/merkleDistributor/main.sol:FluidMerkleDistributor",
            "label": "cycle",
            "offset": 0,
            "slot": "1",
            "type": "t_uint40"
          },
          {
            "astId": 41607,
            "contract": "contracts/protocols/lending/merkleDistributor/main.sol:FluidMerkleDistributor",
            "label": "startBlock",
            "offset": 5,
            "slot": "1",
            "type": "t_uint40"
          },
          {
            "astId": 41609,
            "contract": "contracts/protocols/lending/merkleDistributor/main.sol:FluidMerkleDistributor",
            "label": "endBlock",
            "offset": 10,
            "slot": "1",
            "type": "t_uint40"
          },
          {
            "astId": 41611,
            "contract": "contracts/protocols/lending/merkleDistributor/main.sol:FluidMerkleDistributor",
            "label": "epoch",
            "offset": 15,
            "slot": "1",
            "type": "t_uint40"
          }
        ],
        "numberOfBytes": "64"
      },
      "t_uint256": {
        "encoding": "inplace",
        "label": "uint256",
        "numberOfBytes": "32"
      },
      "t_uint40": {
        "encoding": "inplace",
        "label": "uint40",
        "numberOfBytes": "5"
      }
    }
  }
}