{
  "address": "0x9F06FeF9059ECc3A34a341dE76f7Ece691Eed5fA",
  "abi": [
    {
      "inputs": [
        {
          "components": [
            {
              "internalType": "string",
              "name": "infoName",
              "type": "string"
            },
            {
              "internalType": "address",
              "name": "dexPool",
              "type": "address"
            },
            {
              "internalType": "bool",
              "name": "quoteInToken0",
              "type": "bool"
            },
            {
              "components": [
                {
                  "internalType": "uint8",
                  "name": "hops",
                  "type": "uint8"
                },
                {
                  "components": [
                    {
                      "internalType": "contract IChainlinkAggregatorV3",
                      "name": "feed",
                      "type": "address"
                    },
                    {
                      "internalType": "bool",
                      "name": "invertRate",
                      "type": "bool"
                    },
                    {
                      "internalType": "uint256",
                      "name": "token0Decimals",
                      "type": "uint256"
                    }
                  ],
                  "internalType": "struct ChainlinkStructs.ChainlinkFeedData",
                  "name": "feed1",
                  "type": "tuple"
                },
                {
                  "components": [
                    {
                      "internalType": "contract IChainlinkAggregatorV3",
                      "name": "feed",
                      "type": "address"
                    },
                    {
                      "internalType": "bool",
                      "name": "invertRate",
                      "type": "bool"
                    },
                    {
                      "internalType": "uint256",
                      "name": "token0Decimals",
                      "type": "uint256"
                    }
                  ],
                  "internalType": "struct ChainlinkStructs.ChainlinkFeedData",
                  "name": "feed2",
                  "type": "tuple"
                },
                {
                  "components": [
                    {
                      "internalType": "contract IChainlinkAggregatorV3",
                      "name": "feed",
                      "type": "address"
                    },
                    {
                      "internalType": "bool",
                      "name": "invertRate",
                      "type": "bool"
                    },
                    {
                      "internalType": "uint256",
                      "name": "token0Decimals",
                      "type": "uint256"
                    }
                  ],
                  "internalType": "struct ChainlinkStructs.ChainlinkFeedData",
                  "name": "feed3",
                  "type": "tuple"
                }
              ],
              "internalType": "struct ChainlinkStructs.ChainlinkConstructorParams",
              "name": "reservesConversion",
              "type": "tuple"
            },
            {
              "internalType": "uint256",
              "name": "reservesConversionPriceMultiplier",
              "type": "uint256"
            },
            {
              "internalType": "uint256",
              "name": "reservesConversionPriceDivisor",
              "type": "uint256"
            },
            {
              "internalType": "uint256",
              "name": "resultMultiplier",
              "type": "uint256"
            },
            {
              "internalType": "uint256",
              "name": "resultDivisor",
              "type": "uint256"
            }
          ],
          "internalType": "struct DexSmartT4CLOracle.DexSmartT4CLOracleParams",
          "name": "params_",
          "type": "tuple"
        },
        {
          "internalType": "address",
          "name": "sequencerUptimeFeed_",
          "type": "address"
        }
      ],
      "stateMutability": "nonpayable",
      "type": "constructor"
    },
    {
      "inputs": [
        {
          "internalType": "uint256",
          "name": "errorId_",
          "type": "uint256"
        }
      ],
      "name": "FluidLiquidityCalcsError",
      "type": "error"
    },
    {
      "inputs": [
        {
          "internalType": "uint256",
          "name": "errorId_",
          "type": "uint256"
        }
      ],
      "name": "FluidOracleError",
      "type": "error"
    },
    {
      "inputs": [],
      "name": "chainlinkOracleData",
      "outputs": [
        {
          "internalType": "uint256",
          "name": "chainlinkExchangeRate_",
          "type": "uint256"
        },
        {
          "internalType": "contract IChainlinkAggregatorV3",
          "name": "chainlinkFeed1_",
          "type": "address"
        },
        {
          "internalType": "bool",
          "name": "chainlinkInvertRate1_",
          "type": "bool"
        },
        {
          "internalType": "uint256",
          "name": "chainlinkExchangeRate1_",
          "type": "uint256"
        },
        {
          "internalType": "contract IChainlinkAggregatorV3",
          "name": "chainlinkFeed2_",
          "type": "address"
        },
        {
          "internalType": "bool",
          "name": "chainlinkInvertRate2_",
          "type": "bool"
        },
        {
          "internalType": "uint256",
          "name": "chainlinkExchangeRate2_",
          "type": "uint256"
        },
        {
          "internalType": "contract IChainlinkAggregatorV3",
          "name": "chainlinkFeed3_",
          "type": "address"
        },
        {
          "internalType": "bool",
          "name": "chainlinkInvertRate3_",
          "type": "bool"
        },
        {
          "internalType": "uint256",
          "name": "chainlinkExchangeRate3_",
          "type": "uint256"
        }
      ],
      "stateMutability": "view",
      "type": "function"
    },
    {
      "inputs": [],
      "name": "dexOracleData",
      "outputs": [
        {
          "internalType": "address",
          "name": "dexPool_",
          "type": "address"
        },
        {
          "internalType": "bool",
          "name": "quoteInToken0_",
          "type": "bool"
        },
        {
          "internalType": "address",
          "name": "liquidity_",
          "type": "address"
        },
        {
          "internalType": "uint256",
          "name": "resultMultiplier_",
          "type": "uint256"
        },
        {
          "internalType": "uint256",
          "name": "resultDivisor_",
          "type": "uint256"
        }
      ],
      "stateMutability": "view",
      "type": "function"
    },
    {
      "inputs": [],
      "name": "dexSmartColSharesRates",
      "outputs": [
        {
          "internalType": "uint256",
          "name": "operate_",
          "type": "uint256"
        },
        {
          "internalType": "uint256",
          "name": "liquidate_",
          "type": "uint256"
        }
      ],
      "stateMutability": "view",
      "type": "function"
    },
    {
      "inputs": [],
      "name": "dexSmartDebtSharesRates",
      "outputs": [
        {
          "internalType": "uint256",
          "name": "operate_",
          "type": "uint256"
        },
        {
          "internalType": "uint256",
          "name": "liquidate_",
          "type": "uint256"
        }
      ],
      "stateMutability": "view",
      "type": "function"
    },
    {
      "inputs": [],
      "name": "getDexConversionPriceFluidOracleData",
      "outputs": [
        {
          "internalType": "uint256",
          "name": "reservesConversionPriceMultiplier_",
          "type": "uint256"
        },
        {
          "internalType": "uint256",
          "name": "reservesConversionPriceDivisor_",
          "type": "uint256"
        }
      ],
      "stateMutability": "view",
      "type": "function"
    },
    {
      "inputs": [],
      "name": "getExchangeRate",
      "outputs": [
        {
          "internalType": "uint256",
          "name": "exchangeRate_",
          "type": "uint256"
        }
      ],
      "stateMutability": "view",
      "type": "function"
    },
    {
      "inputs": [],
      "name": "getExchangeRateLiquidate",
      "outputs": [
        {
          "internalType": "uint256",
          "name": "exchangeRate_",
          "type": "uint256"
        }
      ],
      "stateMutability": "view",
      "type": "function"
    },
    {
      "inputs": [],
      "name": "getExchangeRateOperate",
      "outputs": [
        {
          "internalType": "uint256",
          "name": "exchangeRate_",
          "type": "uint256"
        }
      ],
      "stateMutability": "view",
      "type": "function"
    },
    {
      "inputs": [],
      "name": "infoName",
      "outputs": [
        {
          "internalType": "string",
          "name": "",
          "type": "string"
        }
      ],
      "stateMutability": "view",
      "type": "function"
    },
    {
      "inputs": [],
      "name": "sequencerL2Data",
      "outputs": [
        {
          "internalType": "address",
          "name": "sequencerUptimeFeed_",
          "type": "address"
        },
        {
          "internalType": "uint256",
          "name": "maxGracePeriod_",
          "type": "uint256"
        },
        {
          "internalType": "bool",
          "name": "isSequencerUp_",
          "type": "bool"
        },
        {
          "internalType": "uint256",
          "name": "lastUptimeStartedAt_",
          "type": "uint256"
        },
        {
          "internalType": "uint256",
          "name": "gracePeriod_",
          "type": "uint256"
        },
        {
          "internalType": "bool",
          "name": "gracePeriodPassed_",
          "type": "bool"
        },
        {
          "internalType": "uint256",
          "name": "lastOutageStartedAt_",
          "type": "uint256"
        },
        {
          "internalType": "bool",
          "name": "isSequencerUpAndValid_",
          "type": "bool"
        }
      ],
      "stateMutability": "view",
      "type": "function"
    }
  ],
  "transactionHash": "0x8681bf8d5fb4ecdad49047e031d0e40205dcb7b9acf572bc9935bf43d6696608",
  "args": [
    [
      {
        "dexPool": "0xdE632C3a214D5f14C1d8ddF0b92F8BCd188fee45",
        "quoteInToken0": false,
        "infoName": "USDC/ETH dbtSh. per 1 colSh.",
        "reservesConversion": {
          "hops": 2,
          "feed1": {
            "feed": "0x50834F3163758fcC1Df9973b6e91f0F0F0434aD3",
            "invertRate": false,
            "token0Decimals": 6
          },
          "feed2": {
            "feed": "0x639Fe6ab55C921f74e7fac1ee960C0B6293ba612",
            "invertRate": true,
            "token0Decimals": 18
          },
          "feed3": {
            "feed": "0x0000000000000000000000000000000000000000",
            "invertRate": false,
            "token0Decimals": 0
          }
        },
        "reservesConversionPriceMultiplier": 1,
        "reservesConversionPriceDivisor": 1000000000000,
        "resultMultiplier": 1,
        "resultDivisor": 1
      },
      "0xFdB631F5EE196F0ed6FAa767959853A9F217697D"
    ]
  ],
  "numDeployments": 1,
  "linkedData": {
    "nonce": "22"
  },
  "bytecode": "0x6104606040523480156200001257600080fd5b50604051620041d8380380620041d88339810160408190526200003591620008a3565b8180602001518160400151826060015183608001518460a0015182858588600001518a8a60c001518b60e001518160001462000072578162000075565b60015b608052801562000086578062000089565b60015b60a0525050600080546001600160a01b0319166001600160a01b0392909216919091179055805160201080620000be57508051155b15620000e65760405163c82fc46560e01b815261ea6a60048201526024015b60405180910390fd5b6020015160c0526001600160a01b0382166200011a5760405163c82fc46560e01b815261ebdd6004820152602401620000dd565b6001600160a01b03821660e08190528115156101005260408051635bbc8df960e11b815290516000929163b7791bf2916004808301926102409291908290030181865afa15801562000170573d6000803e3d6000fd5b505050506040513d601f19601f8201168201806040525081019062000196919062000a3c565b610160808201516101a052610180808301516101c05260e0808401516101209081528401516101409081526101008501519093529183015190525160408051631595cbd360e01b815290519293506000926001600160a01b0390921691631595cbd3916004808201926080929091908290030181865afa1580156200021f573d6000803e3d6000fd5b505050506040513d601f19601f8201168201806040525081019062000245919062000b32565b80516101e05260208101516102005260408101516102205260600151610240525050610100519150620002b390505761022051610240516200028d9064e8d4a5100062000b91565b62000299919062000bb1565b620002ad90670de0b6b3a764000062000bb1565b620002ec565b6101e05161020051620002cc9064e8d4a5100062000b91565b620002d8919062000bb1565b620002ec90670de0b6b3a764000062000bb1565b610260526101005162000338576102205161024051620003129064e8d4a5100062000b91565b6200031e919062000bb1565b6200033290670de0b6b3a764000062000bb1565b62000371565b6101e05161020051620003519064e8d4a5100062000b91565b6200035d919062000bb1565b6200037190670de0b6b3a764000062000bb1565b610280528051600160ff90911610806200039257506003816000015160ff16115b80620003bb57506020810151516001600160a01b03161580620003bb5750602081015160400151155b80620003f657506001816000015160ff16118015620003f657506040810151516001600160a01b03161580620003f657506040808201510151155b806200043257506002816000015160ff161180156200043257506060810151516001600160a01b03161580620004325750606081015160400151155b15620004565760405163c82fc46560e01b815261ee496004820152602401620000dd565b60208082018051516001600160a01b039081166102a052604080850180515183166102c052606086018051519093166102e052835185015115156103005251840151151561032052905190920151151561034052510151620004ba90601b62000bd4565b620004c790600a62000ce7565b61036052602081015160400151620004e190601b62000cfc565b620004ee90600a62000ce7565b610380528051600160ff90911611620005095760016200052b565b60408082015101516200051e90601b62000bd4565b6200052b90600a62000ce7565b6103a0528051600160ff909116116200054657600162000568565b60408082015101516200055b90601b62000cfc565b6200056890600a62000ce7565b6103c0528051600260ff9091161162000583576001620005a6565b6060810151604001516200059990601b62000bd4565b620005a690600a62000ce7565b6103e0528051600260ff90911611620005c1576001620005e4565b606081015160400151620005d790601b62000cfc565b620005e490600a62000ce7565b6104005250811580620005f5575080155b15620006195760405163c82fc46560e01b815261ebdd6004820152602401620000dd565b61042091909152610440525062000d12945050505050565b634e487b7160e01b600052604160045260246000fd5b604051608081016001600160401b03811182821017156200066c576200066c62000631565b60405290565b60405161010081016001600160401b03811182821017156200066c576200066c62000631565b6040516101c081016001600160401b03811182821017156200066c576200066c62000631565b604051601f8201601f191681016001600160401b0381118282101715620006e957620006e962000631565b604052919050565b600082601f8301126200070357600080fd5b81516001600160401b038111156200071f576200071f62000631565b602062000735601f8301601f19168201620006be565b82815285828487010111156200074a57600080fd5b60005b838110156200076a5785810183015182820184015282016200074d565b506000928101909101919091529392505050565b6001600160a01b03811681146200079457600080fd5b50565b8051620007a4816200077e565b919050565b80518015158114620007a457600080fd5b600060608284031215620007cd57600080fd5b604051606081016001600160401b0381118282101715620007f257620007f262000631565b8060405250809150825162000807816200077e565b81526200081760208401620007a9565b6020820152604083015160408201525092915050565b600061014082840312156200084157600080fd5b6200084b62000647565b9050815160ff811681146200085f57600080fd5b8152620008708360208401620007ba565b6020820152620008848360808401620007ba565b6040820152620008988360e08401620007ba565b606082015292915050565b60008060408385031215620008b757600080fd5b82516001600160401b0380821115620008cf57600080fd5b908401906102208287031215620008e557600080fd5b620008ef62000672565b825182811115620008ff57600080fd5b6200090d88828601620006f1565b8252506200091e6020840162000797565b60208201526200093160408401620007a9565b60408201526200094587606085016200082d565b60608201526101a083015160808201526101c083015160a08201526101e083015160c08201526102009092015160e0830152509150620009886020840162000797565b90509250929050565b600060a08284031215620009a457600080fd5b60405160a081016001600160401b0381118282101715620009c957620009c962000631565b80604052508091508251620009de816200077e565b81526020830151620009f0816200077e565b6020820152604083015162000a05816200077e565b6040820152606083015162000a1a816200077e565b6060820152608083015162000a2f816200077e565b6080919091015292915050565b6000610240828403121562000a5057600080fd5b62000a5a62000698565b8251815262000a6c6020840162000797565b602082015262000a7f6040840162000797565b604082015262000a93846060850162000991565b606082015261010062000aa881850162000797565b608083015261012062000abd81860162000797565b60a084015261014062000ad281870162000797565b60c08501526101608087015160e086015261018080880151858701526101a0945084880151848701526101c0880151838701526101e088015182870152610200880151818701525050505061022084015181830152508091505092915050565b60006080828403121562000b4557600080fd5b62000b4f62000647565b825181526020830151602082015260408301516040820152606083015160608201528091505092915050565b634e487b7160e01b600052601160045260246000fd5b808202811582820484141762000bab5762000bab62000b7b565b92915050565b60008262000bcf57634e487b7160e01b600052601260045260246000fd5b500490565b8181038181111562000bab5762000bab62000b7b565b600181815b8085111562000c2b57816000190482111562000c0f5762000c0f62000b7b565b8085161562000c1d57918102915b93841c939080029062000bef565b509250929050565b60008262000c445750600162000bab565b8162000c535750600062000bab565b816001811462000c6c576002811462000c775762000c97565b600191505062000bab565b60ff84111562000c8b5762000c8b62000b7b565b50506001821b62000bab565b5060208310610133831016604e8410600b841016171562000cbc575081810a62000bab565b62000cc8838362000bea565b806000190482111562000cdf5762000cdf62000b7b565b029392505050565b600062000cf5838362000c33565b9392505050565b8082018082111562000bab5762000bab62000b7b565b60805160a05160c05160e05161010051610120516101405161016051610180516101a0516101c0516101e05161020051610220516102405161026051610280516102a0516102c0516102e05161030051610320516103405161036051610380516103a0516103c0516103e05161040051610420516104405161326962000f6f6000396000818160e6015261098301526000818160c501526109a401526000818161061601526114a40152600081816105f5015261148301526000818161052401526113ad015260008181610503015261138c01526000818161043a01526112ca01526000818161041901526112a9015260008181610573015281816105d40152611462015260008181610481015281816104e2015261136b0152600081816103b3015281816103f80152611288015260008181610552015281816105b3015281816113f10152611441015260008181610460015281816104c1015281816112fa015261134a015260008181610392015281816103d70152611267015260006118630152600061120f0152600081816124e8015261298f0152600081816124c401526129b001526000818161245f01526129e601526000818161243b0152612a070152600061104501526000610f850152600061258701526000612557015260006121690152600061213901526000818161016701526123c501526000818161014301528181610aa801528181610b5d015281816111390152818161178e01528181611bf50152611d0b0152600081816106ec01526107b10152600081816101d101526116980152600081816101ab01526116cb01526132696000f3fe608060405234801561001057600080fd5b50600436106100be5760003560e01c806396aa229c11610076578063dc4595121161005b578063dc459512146102a3578063e6aa216c14610307578063f3190c891461027057600080fd5b806396aa229c14610286578063abd5f95d1461028e57600080fd5b8063585eebbf116100a7578063585eebbf146101285780637557ca41146101fd5780638e7bfbc01461027057600080fd5b806304741a5a146100c35780632879605814610120575b600080fd5b7f00000000000000000000000000000000000000000000000000000000000000007f00000000000000000000000000000000000000000000000000000000000000005b604080519283526020830191909152015b60405180910390f35b61010661030f565b6040805173ffffffffffffffffffffffffffffffffffffffff7f00000000000000000000000000000000000000000000000000000000000000001681527f0000000000000000000000000000000000000000000000000000000000000000151560208201527352aa899454998be5b000ad077a46bbe360f4e497918101919091527f000000000000000000000000000000000000000000000000000000000000000060608201527f0000000000000000000000000000000000000000000000000000000000000000608082015260a001610117565b610205610379565b604080519a8b5273ffffffffffffffffffffffffffffffffffffffff998a1660208c0152971515978a01979097526060890195909552928616608088015290151560a087015260c086015290921660e084015290151561010083015261012082015261014001610117565b610278610662565b604051908152602001610117565b610106610679565b6102966106da565b6040516101179190612d86565b6102ab61083f565b6040805173ffffffffffffffffffffffffffffffffffffffff909916895260208901979097529415159587019590955260608601929092526080850152151560a084015260c0830191909152151560e082015261010001610117565b610278610975565b600080600061031c61097f565b90506000806103328361032d610a27565b6110a9565b915091506103418383836110f3565b9450505050600061035061097f565b90506000806103618361032d610a27565b915091506103708383836110f3565b93505050509091565b600080600080600080600080600080610390611260565b7f00000000000000000000000000000000000000000000000000000000000000007f000000000000000000000000000000000000000000000000000000000000000061045e7f00000000000000000000000000000000000000000000000000000000000000007f00000000000000000000000000000000000000000000000000000000000000007f00000000000000000000000000000000000000000000000000000000000000007f00000000000000000000000000000000000000000000000000000000000000006114dc565b7f00000000000000000000000000000000000000000000000000000000000000007f000000000000000000000000000000000000000000000000000000000000000073ffffffffffffffffffffffffffffffffffffffff82161561054d576105487f00000000000000000000000000000000000000000000000000000000000000007f00000000000000000000000000000000000000000000000000000000000000007f00000000000000000000000000000000000000000000000000000000000000007f00000000000000000000000000000000000000000000000000000000000000006114dc565b610550565b60005b7f00000000000000000000000000000000000000000000000000000000000000007f000000000000000000000000000000000000000000000000000000000000000073ffffffffffffffffffffffffffffffffffffffff82161561063f5761063a7f00000000000000000000000000000000000000000000000000000000000000007f00000000000000000000000000000000000000000000000000000000000000007f00000000000000000000000000000000000000000000000000000000000000007f00000000000000000000000000000000000000000000000000000000000000006114dc565b610642565b60005b995099509950995099509950995099509950995090919293949596979899565b600061066c61159d565b61067461163c565b905090565b600080600061068661097f565b905060008061069c83610697610a27565b611713565b915091506106ab838383611749565b945050505060006106ba61097f565b90506000806106cb83610697610a27565b91509150610370838383611749565b606060005b60208110801561074557507f0000000000000000000000000000000000000000000000000000000000000000816020811061071c5761071c612df2565b1a60f81b7fff000000000000000000000000000000000000000000000000000000000000001615155b1561075c578061075481612e50565b9150506106df565b60008167ffffffffffffffff81111561077757610777612e88565b6040519080825280601f01601f1916602001820160405280156107a1576020820181803683370190505b50905060005b82811015610838577f000000000000000000000000000000000000000000000000000000000000000081602081106107e1576107e1612df2565b1a60f81b8282815181106107f7576107f7612df2565b60200101907effffffffffffffffffffffffffffffffffffffffffffffffffffffffffffff1916908160001a9053508061083081612e50565b9150506107a7565b5092915050565b600080600080600080600080600061085561189e565b919850909650905086156108795761086d8187611a4b565b9196509450925061092f565b610a8c945060008060009054906101000a900473ffffffffffffffffffffffffffffffffffffffff1673ffffffffffffffffffffffffffffffffffffffff1663feaf968c6040518163ffffffff1660e01b815260040160a060405180830381865afa1580156108ec573d6000803e3d6000fd5b505050506040513d601f19601f820116820180604052508101906109109190612ed6565b50505050905061092b8160016109269190612f26565b611ab5565b9350505b60005473ffffffffffffffffffffffffffffffffffffffff16610a8c888888888884801561095a57508a5b98509850985098509850985098509850509091929394959697565b6000610674610662565b60007f00000000000000000000000000000000000000000000000000000000000000007f00000000000000000000000000000000000000000000000000000000000000006109cb611260565b6109d59190612f49565b6109df9190612f95565b905080600003610a24576040517fc82fc46500000000000000000000000000000000000000000000000000000000815261ebde60048201526024015b60405180910390fd5b90565b610a766040518061012001604052806000815260200160008152602001600081526020016000815260200160008152602001600081526020016000815260200160008152602001600081525090565b6040517fb5c736e4000000000000000000000000000000000000000000000000000000008152600060048201819052907f000000000000000000000000000000000000000000000000000000000000000073ffffffffffffffffffffffffffffffffffffffff169063b5c736e490602401602060405180830381865afa158015610b04573d6000803e3d6000fd5b505050506040513d601f19601f82011682018060405250810190610b289190612fa9565b6040517fb5c736e4000000000000000000000000000000000000000000000000000000008152600160048201529091506000907f000000000000000000000000000000000000000000000000000000000000000073ffffffffffffffffffffffffffffffffffffffff169063b5c736e490602401602060405180830381865afa158015610bb9573d6000803e3d6000fd5b505050506040513d601f19601f82011682018060405250810190610bdd9190612fa9565b9050600060f882901c600116600003610c1f57633fffffff607083901c16905080600003610c1f575063ffffffff605983901c1660ff605184901c161b610ccd565b6040517f08c379a000000000000000000000000000000000000000000000000000000000815260206004820152604d60248201527f507269636573416e6445786368616e67655072696365733a2063656e7465722060448201527f70726963652073686f756c64206e6f742062652070656767656420746f20657860648201527f7465726e616c20736f7572636500000000000000000000000000000000000000608482015260a401610a1b565b63ffffffff603184901c1660ff602985901c161b601b83901c620fffff90811690602f85901c166001601a86901c81169003610d1657610d0e828287611b96565b965090925090505b81620f424003620f4240850281610d2f57610d2f612f66565b049150620f42409081038402046000620fffff604487901c1615610e3557604486901c6103ff90811690604e88901c16605888901c62ffffff16600160438a901c81169003610d8b57610d83838383611cf0565b919450925090505b6103e888870384820302048801871115610de05760798a901c6401ffffffff16420381811015610dd25781818a89030281610dc857610dc8612f66565b0489019850610dd6565b8698505b6001945050610e31565b6103e885890383820302048803871015610e315760798a901c6401ffffffff16420381811015610e27578181878b030281610e1d57610e1d612f66565b0489039850610e2b565b8598505b60019450505b5050505b620fffff60b487901c1660ff60ac88901c161b80861115610e5c5780955060019150610e80565b50620fffff60d087901c1660ff60c888901c161b80861015610e8057809550600191505b8115610ee957620fffff601b88901c169350620fffff602f88901c169250601a87901c600116600103610ec057610eb8848489611b96565b985090945092505b83620f424003620f4240870281610ed957610ed9612f66565b049350620f424083810387020492505b8489526020890186905260408901849052606089018390526f4b3b4ca85a86c47a098a224000000000841015610f2e57610f24838502611e47565b60808a0152610f5d565b610f4d670de0b6b3a76400008404670de0b6b3a7640000860402611e47565b670de0b6b3a76400000260808a01525b6040517fb5c736e40000000000000000000000000000000000000000000000000000000081527f00000000000000000000000000000000000000000000000000000000000000006004820152611013907352aa899454998be5b000ad077a46bbe360f4e4979063b5c736e4906024015b602060405180830381865afa158015610fea573d6000803e3d6000fd5b505050506040513d601f19601f8201168201806040525081019061100e9190612fa9565b611ef9565b60c08b015260a08a01526040517fb5c736e40000000000000000000000000000000000000000000000000000000081527f00000000000000000000000000000000000000000000000000000000000000006004820152611091907352aa899454998be5b000ad077a46bbe360f4e4979063b5c736e490602401610fcd565b6101008b015260e08a01525096979650505050505050565b60008060006110cf8460800151856040015186606001518760a001518860e00151612107565b905060006110de858388612242565b80516020909101519097909650945050505050565b6040517fb5c736e40000000000000000000000000000000000000000000000000000000081526002600482015260009081906fffffffffffffffffffffffffffffffff907f000000000000000000000000000000000000000000000000000000000000000073ffffffffffffffffffffffffffffffffffffffff169063b5c736e490602401602060405180830381865afa158015611195573d6000803e3d6000fd5b505050506040513d601f19601f820116820180604052508101906111b99190612fa9565b169050806000036111fa576040517fc82fc46500000000000000000000000000000000000000000000000000000000815261ebac6004820152602401610a1b565b60006112078686866123c1565b9050816112347f000000000000000000000000000000000000000000000000000000000000000083612f49565b61124a906b033b2e3c9fd0803ce8000000612f49565b6112549190612f95565b925050505b9392505050565b60006112ee7f00000000000000000000000000000000000000000000000000000000000000007f00000000000000000000000000000000000000000000000000000000000000007f00000000000000000000000000000000000000000000000000000000000000007f00000000000000000000000000000000000000000000000000000000000000006114dc565b905080158061133157507f000000000000000000000000000000000000000000000000000000000000000073ffffffffffffffffffffffffffffffffffffffff16155b156113395790565b611345601b600a6130e2565b6113d17f00000000000000000000000000000000000000000000000000000000000000007f00000000000000000000000000000000000000000000000000000000000000007f00000000000000000000000000000000000000000000000000000000000000007f00000000000000000000000000000000000000000000000000000000000000006114dc565b6113db9083612f49565b6113e59190612f95565b905080158061142857507f000000000000000000000000000000000000000000000000000000000000000073ffffffffffffffffffffffffffffffffffffffff16155b156114305790565b61143c601b600a6130e2565b6114c87f00000000000000000000000000000000000000000000000000000000000000007f00000000000000000000000000000000000000000000000000000000000000007f00000000000000000000000000000000000000000000000000000000000000007f00000000000000000000000000000000000000000000000000000000000000006114dc565b6114d29083612f49565b6106749190612f95565b60008473ffffffffffffffffffffffffffffffffffffffff1663feaf968c6040518163ffffffff1660e01b815260040160a060405180830381865afa925050508015611563575060408051601f3d9081017fffffffffffffffffffffffffffffffffffffffffffffffffffffffffffffffe016820190925261156091810190612ed6565b60015b61156f57506000611595565b881561158b5761157f8488612f95565b95505050505050611595565b61157f8885612f49565b949350505050565b60008060006115aa61189e565b925092509250826115eb576040517fc82fc46500000000000000000000000000000000000000000000000000000000815261ea606004820152602401610a1b565b60006115f78383611a4b565b5091505080611636576040517fc82fc46500000000000000000000000000000000000000000000000000000000815261ea606004820152602401610a1b565b50505050565b60008061164761097f565b90506000611653610a27565b905060008061166284846110a9565b9150915060006116738584846110f3565b905061167f8585611713565b90935091506000611691868585611749565b90506116c97f00000000000000000000000000000000000000000000000000000000000000006b033b2e3c9fd0803ce8000000612f49565b7f00000000000000000000000000000000000000000000000000000000000000006116f48484612f49565b6116fe9190612f49565b6117089190612f95565b965050505050505090565b600080600061173a8460800151856040015186606001518760c00151886101000151612517565b905060006110de85838861265f565b6040517fb5c736e400000000000000000000000000000000000000000000000000000000815260048082015260009081906fffffffffffffffffffffffffffffffff907f000000000000000000000000000000000000000000000000000000000000000073ffffffffffffffffffffffffffffffffffffffff169063b5c736e490602401602060405180830381865afa1580156117ea573d6000803e3d6000fd5b505050506040513d601f19601f8201168201806040525081019061180e9190612fa9565b1690508060000361184f576040517fc82fc46500000000000000000000000000000000000000000000000000000000815261ebb66004820152602401610a1b565b600061185c8686866123c1565b90506118887f000000000000000000000000000000000000000000000000000000000000000082612f49565b61124a836b033b2e3c9fd0803ce8000000612f49565b60008060008060008060008054906101000a900473ffffffffffffffffffffffffffffffffffffffff1673ffffffffffffffffffffffffffffffffffffffff1663feaf968c6040518163ffffffff1660e01b815260040160a060405180830381865afa158015611912573d6000803e3d6000fd5b505050506040513d601f19601f820116820180604052508101906119369190612ed6565b505092509250925081600014611956575060009586955085945092505050565b600195508294508093506000841115611a43575b60005473ffffffffffffffffffffffffffffffffffffffff16639a6fc8f56119936001866130ee565b6040517fffffffff0000000000000000000000000000000000000000000000000000000060e084901b16815269ffffffffffffffffffff909116600482015260240160a060405180830381865afa1580156119f2573d6000803e3d6000fd5b505050506040513d601f19601f82011682018060405250810190611a169190612ed6565b509295509093509150506000829003611a30578294508093505b81158015611a3e5750600081115b61196a575b505050909192565b6000808080611a5a8542613111565b9050841580611a6a5750610a8c81115b15611a8257610a8c6001600093509350935050611aae565b611a8b86611ab5565b9150611a978286613111565b9350610a8c841115611aa957610a8c93505b831091505b9250925092565b60008181805b60005473ffffffffffffffffffffffffffffffffffffffff16639a6fc8f5611ae46001866130ee565b6040517fffffffff0000000000000000000000000000000000000000000000000000000060e084901b16815269ffffffffffffffffffff909116600482015260240160a060405180830381865afa158015611b43573d6000803e3d6000fd5b505050506040513d601f19601f82011682018060405250810190611b679190612ed6565b509295509093509150508115611b7b578093505b8115801590611b8a5750600081115b611abb57505050919050565b6040517fb5c736e4000000000000000000000000000000000000000000000000000000008152600760048201526000908190819081906fffffffffffffffffffffffffffffffff9073ffffffffffffffffffffffffffffffffffffffff7f0000000000000000000000000000000000000000000000000000000000000000169063b5c736e490602401602060405180830381865afa158015611c3c573d6000803e3d6000fd5b505050506040513d601f19601f82011682018060405250810190611c609190612fa9565b169050620fffff80821690601483901c811690602884901c16603c84901c6401ffffffff1642611c908383613124565b1015611cb357630400000019891698508a8a8a9750975097505050505050611ce7565b6000611cbf8242613111565b9050611ccd8c868386612845565b611cd98c868487612845565b8b9850985098505050505050505b93509350939050565b6000806000806fffffffffffffffffffffffffffffffff60807f000000000000000000000000000000000000000000000000000000000000000073ffffffffffffffffffffffffffffffffffffffff1663b5c736e4600760001b6040518263ffffffff1660e01b8152600401611d6891815260200190565b602060405180830381865afa158015611d85573d6000803e3d6000fd5b505050506040513d601f19601f82011682018060405250810190611da99190612fa9565b901c169050620fffff80821690601483901c811690602884901c16603c84901c6401ffffffff16605d85901c62ffffff1642611de58484613124565b1015611dff578b8b8b985098509850505050505050611ce7565b6000611e0b8342613111565b9050611e198d878387612845565b611e258d878488612845565b611e318d858589612845565b9950995099505050505050505093509350939050565b60b581710100000000000000000000000000000000008110611e6e5760409190911b9060801c5b69010000000000000000008110611e8a5760209190911b9060401c5b650100000000008110611ea25760109190911b9060201c5b63010000008110611eb85760089190911b9060101c5b62010000010260121c80820401600190811c80830401811c80830401811c80830401811c80830401811c80830401811c80830401901c908190048111900390565b67ffffffffffffffff605b82901c811690609b83901c16811580611f1b575080155b15611f57576040517fd50d7512000000000000000000000000000000000000000000000000000000008152620111716004820152602401610a1b565b61ffff8316603a84901c6401ffffffff16428181039160ea87901c617fff16911480611f81575082155b80611f8c5750806001145b15611f9957505050915091565b64496cebb80084840283020484019350617fff60db87901c16925082600103611fc457505050915091565b826001166001036120195760019290921c91826c7e37be2022c0914b268000000081611ff257611ff2612f66565b049250612710601e87901c613fff166b033b2e3c9fd0803ce8000000850102049250612046565b60019290921c916305f5e100601e87901c613fff166127108501026b033b2e3c9fd0803ce8000000020492505b8060011660010361207d5760011c61271081016b033b2e3c9fd0803ce800000082028161207557612075612f66565b0490506120b3565b60011c61271081016b033b2e3c9fd0803ce80000008202816120a1576120a1612f66565b046b033b2e3c9fd0803ce80000000390505b760a70c3c40a64e6c51999090b65f67d92400000000000008382026127100261ffff881691900402601087901c613fff16612710030292506801b5a660ea44b8000085840283020485019450505050915091565b6121326040518060800160405280600081526020016000815260200160008152602001600081525090565b60006121607f00000000000000000000000000000000000000000000000000000000000000008560016128be565b905060006121907f00000000000000000000000000000000000000000000000000000000000000008560006128be565b90506b033b2e3c9fd0803ce80000008810156121c1576121b288888484612a40565b60608501526040840152612218565b61220d6121e589760a70c3c40a64e6c51999090b65f67d9240000000000000612f95565b61220688760a70c3c40a64e6c51999090b65f67d9240000000000000612f95565b8385612a40565b604085015260608401525b81835260208301819052604083018051909201909152606082018051909101905295945050505050565b61226d6040518060800160405280600081526020016000815260200160008152602001600081525090565b6000836060015184604001516122839190612f49565b905060008460000151856040015161229b9190613111565b90506000856020015186606001516122b39190613111565b905060008086896040015110156122d8578391506122d18286612f95565b905061238e565b86896060015111156122f75750816122f08186612f95565b915061238e565b74446c3b15f9926687d2c40534fdb5640000000000008510156123445761233d8761232e876b033b2e3c9fd0803ce8000000612f49565b6123389190612f95565b611e47565b915061236a565b6123676123518887612f95565b612338906b033b2e3c9fd0803ce8000000612f49565b91505b6b033b2e3c9fd0803ce80000006123818389612f49565b61238b9190612f95565b90505b6123988483613111565b86526123a48382613111565b602087015260408601919091526060850152509195945050505050565b60007f0000000000000000000000000000000000000000000000000000000000000000156124955761240a84760a70c3c40a64e6c51999090b65f67d9240000000000000612f95565b93506b033b2e3c9fd0803ce80000006124238584612f49565b61242d9190612f95565b6124379084613124565b90507f00000000000000000000000000000000000000000000000000000000000000006124847f000000000000000000000000000000000000000000000000000000000000000083612f49565b61248e9190612f95565b9050611259565b6b033b2e3c9fd0803ce80000006124ac8585612f49565b6124b69190612f95565b6124c09083613124565b90507f000000000000000000000000000000000000000000000000000000000000000061250d7f000000000000000000000000000000000000000000000000000000000000000083612f49565b6115959190612f95565b6125506040518060c001604052806000815260200160008152602001600081526020016000815260200160008152602001600081525090565b600061257e7f00000000000000000000000000000000000000000000000000000000000000008560016128be565b905060006125ae7f00000000000000000000000000000000000000000000000000000000000000008560006128be565b8284526020840181905290506b033b2e3c9fd0803ce80000008810156125f3576125da88878484612b57565b60a0870152608086015260608501526040840152612654565b61263f61261789760a70c3c40a64e6c51999090b65f67d9240000000000000612f95565b61263889760a70c3c40a64e6c51999090b65f67d9240000000000000612f95565b8385612b57565b608087015260a0860152604085015260608401525b505095945050505050565b6126986040518060c001604052806000815260200160008152602001600081526020016000815260200160008152602001600081525090565b60008360a0015184608001516126ae9190612f49565b90506000846040015185608001516126c69190613111565b9050600085606001518660a001516126de9190613111565b90506000808689604001511015612703578391506126fc8286612f95565b9050612794565b868960600151111561272257508161271b8186612f95565b9150612794565b74446c3b15f9926687d2c40534fdb564000000000000851015612760576127598761232e876b033b2e3c9fd0803ce8000000612f49565b9150612770565b61276d6123518887612f95565b91505b6b033b2e3c9fd0803ce80000006127878389612f49565b6127919190612f95565b90505b61279e8483613111565b60408701526127ad8382613111565b60608701526080860182905260a080870182905288015160408701516000916127d591612f49565b9050600087604001518a608001516127ed9190613111565b90506127f98183612f95565b602089015260808a015160608901516128129190612f49565b915087606001518a60a001516128289190613111565b90506128348183612f95565b885250959998505050505050505050565b60008385111561288457600061285b8587613111565b9050826128688583612f49565b6128729190612f95565b61287c9086613124565b9550506128b5565b60006128908686613111565b90508261289d8583612f49565b6128a79190612f95565b6128b19086613111565b9550505b50929392505050565b6040517fb5c736e40000000000000000000000000000000000000000000000000000000081526004810184905260009081907352aa899454998be5b000ad077a46bbe360f4e4979063b5c736e490602401602060405180830381865afa15801561292c573d6000803e3d6000fd5b505050506040513d601f19601f820116820180604052508101906129509190612fa9565b905067ffffffffffffffff600182901c16915060ff8216600883901c901b9150806001166001036129885764e8d4a510008285020491505b826129e4577f00000000000000000000000000000000000000000000000000000000000000007f00000000000000000000000000000000000000000000000000000000000000008302816129de576129de612f66565b04612a37565b7f00000000000000000000000000000000000000000000000000000000000000007f0000000000000000000000000000000000000000000000000000000000000000830281612a3557612a35612f66565b045b95945050505050565b60008080612a4e8787613111565b90506000612a5d826002612f49565b612a73866b033b2e3c9fd0803ce8000000612f49565b612a7d888b612f49565b612a879190613124565b612a919190612f95565b90506000612a9f8688612f49565b905074446c3b15f9926687d2c40534fdb5640000000000008110612ae257612ac78382612f95565b612add906b033b2e3c9fd0803ce8000000612f49565b612b03565b82612af9826b033b2e3c9fd0803ce8000000612f49565b612b039190612f95565b9050612b1c612b128380612f49565b6123389083613124565b612b269083613124565b94506b033b2e3c9fd0803ce8000000612b3f8a87612f49565b612b499190612f95565b935050505094509492505050565b6000808080806b06765c793fa10079d0000000612b80876b033b2e3c9fd0803ce8000000612f49565b612b8a8b8a612f49565b612b949190613137565b612b9e9190613157565b90506000612bac8789612f49565b905074446c3b15f9926687d2c40534fdb5640000000000008110612bf05788612be16b033b2e3c9fd0803ce800000083612f95565b612beb9190612f49565b612c11565b6b033b2e3c9fd0803ce8000000612c078a83612f49565b612c119190612f95565b9050612c20612b1283806131bf565b612c2a908361320b565b9450612c368989612f49565b612c4c866b033b2e3c9fd0803ce8000000612f49565b612c569190613111565b9250620f4240831015612cc5576040517f08c379a000000000000000000000000000000000000000000000000000000000815260206004820152601560248201527f4465627420726573657276657320746f6f206c6f7700000000000000000000006044820152606401610a1b565b6a084595161401484a000000851015612d0a5782612ce38680612f49565b612cf9906b033b2e3c9fd0803ce8000000612f49565b612d039190612f95565b9250612d37565b612d206b033b2e3c9fd0803ce800000084612f95565b612d2a8680612f49565b612d349190612f95565b92505b8785612d438286612f49565b612d4d9190612f95565b612d579190613111565b9350612d638784613124565b612d6d8886612f49565b612d779190612f95565b95505050945094509450949050565b600060208083528351808285015260005b81811015612db357858101830151858201604001528201612d97565b5060006040828601015260407fffffffffffffffffffffffffffffffffffffffffffffffffffffffffffffffe0601f8301168501019250505092915050565b7f4e487b7100000000000000000000000000000000000000000000000000000000600052603260045260246000fd5b7f4e487b7100000000000000000000000000000000000000000000000000000000600052601160045260246000fd5b60007fffffffffffffffffffffffffffffffffffffffffffffffffffffffffffffffff8203612e8157612e81612e21565b5060010190565b7f4e487b7100000000000000000000000000000000000000000000000000000000600052604160045260246000fd5b805169ffffffffffffffffffff81168114612ed157600080fd5b919050565b600080600080600060a08688031215612eee57600080fd5b612ef786612eb7565b9450602086015193506040860151925060608601519150612f1a60808701612eb7565b90509295509295909350565b69ffffffffffffffffffff81811683821601908082111561083857610838612e21565b8082028115828204841417612f6057612f60612e21565b92915050565b7f4e487b7100000000000000000000000000000000000000000000000000000000600052601260045260246000fd5b600082612fa457612fa4612f66565b500490565b600060208284031215612fbb57600080fd5b5051919050565b600181815b8085111561301b57817fffffffffffffffffffffffffffffffffffffffffffffffffffffffffffffffff0482111561300157613001612e21565b8085161561300e57918102915b93841c9390800290612fc7565b509250929050565b60008261303257506001612f60565b8161303f57506000612f60565b8160018114613055576002811461305f5761307b565b6001915050612f60565b60ff84111561307057613070612e21565b50506001821b612f60565b5060208310610133831016604e8410600b841016171561309e575081810a612f60565b6130a88383612fc2565b807fffffffffffffffffffffffffffffffffffffffffffffffffffffffffffffffff048211156130da576130da612e21565b029392505050565b60006112598383613023565b69ffffffffffffffffffff82811682821603908082111561083857610838612e21565b81810381811115612f6057612f60612e21565b80820180821115612f6057612f60612e21565b818103600083128015838313168383128216171561083857610838612e21565b60008261316657613166612f66565b7fffffffffffffffffffffffffffffffffffffffffffffffffffffffffffffffff83147f8000000000000000000000000000000000000000000000000000000000000000831416156131ba576131ba612e21565b500590565b808202600082127f8000000000000000000000000000000000000000000000000000000000000000841416156131f7576131f7612e21565b8181058314821517612f6057612f60612e21565b808201828112600083128015821682158216171561322b5761322b612e21565b50509291505056fea26469706673582212206e5adf1b09cdb6e394b32a3ef4513c41e4810213eac0efe0e9a93bb4dadc79e164736f6c63430008150033"
}