{
  "address": "0xA9A780027d1D81cAf9a9a5269ce10797A97135f8",
  "abi": [
    {
      "inputs": [
        {
          "internalType": "uint256",
          "name": "nativeTokenMaxBorrowLimitCap_",
          "type": "uint256"
        }
      ],
      "stateMutability": "nonpayable",
      "type": "constructor"
    },
    {
      "inputs": [
        {
          "internalType": "uint256",
          "name": "errorId_",
          "type": "uint256"
        }
      ],
      "name": "FluidLiquidityCalcsError",
      "type": "error"
    },
    {
      "inputs": [
        {
          "internalType": "uint256",
          "name": "errorId_",
          "type": "uint256"
        }
      ],
      "name": "FluidLiquidityError",
      "type": "error"
    },
    {
      "anonymous": false,
      "inputs": [],
      "name": "BorrowRateMaxCap",
      "type": "event"
    },
    {
      "anonymous": false,
      "inputs": [
        {
          "indexed": true,
          "internalType": "uint256",
          "name": "newStatus",
          "type": "uint256"
        }
      ],
      "name": "LogChangeStatus",
      "type": "event"
    },
    {
      "anonymous": false,
      "inputs": [
        {
          "indexed": true,
          "internalType": "address",
          "name": "token",
          "type": "address"
        },
        {
          "indexed": true,
          "internalType": "uint256",
          "name": "amount",
          "type": "uint256"
        }
      ],
      "name": "LogCollectRevenue",
      "type": "event"
    },
    {
      "anonymous": false,
      "inputs": [
        {
          "indexed": false,
          "internalType": "address",
          "name": "user",
          "type": "address"
        },
        {
          "indexed": false,
          "internalType": "address[]",
          "name": "supplyTokens",
          "type": "address[]"
        },
        {
          "indexed": false,
          "internalType": "address[]",
          "name": "borrowTokens",
          "type": "address[]"
        }
      ],
      "name": "LogPauseUser",
      "type": "event"
    },
    {
      "anonymous": false,
      "inputs": [
        {
          "indexed": false,
          "internalType": "address",
          "name": "user",
          "type": "address"
        },
        {
          "indexed": false,
          "internalType": "address[]",
          "name": "supplyTokens",
          "type": "address[]"
        },
        {
          "indexed": false,
          "internalType": "address[]",
          "name": "borrowTokens",
          "type": "address[]"
        }
      ],
      "name": "LogUnpauseUser",
      "type": "event"
    },
    {
      "anonymous": false,
      "inputs": [
        {
          "components": [
            {
              "internalType": "address",
              "name": "addr",
              "type": "address"
            },
            {
              "internalType": "bool",
              "name": "value",
              "type": "bool"
            }
          ],
          "indexed": false,
          "internalType": "struct Structs.AddressBool[]",
          "name": "authsStatus",
          "type": "tuple[]"
        }
      ],
      "name": "LogUpdateAuths",
      "type": "event"
    },
    {
      "anonymous": false,
      "inputs": [
        {
          "indexed": true,
          "internalType": "address",
          "name": "token",
          "type": "address"
        },
        {
          "indexed": true,
          "internalType": "uint256",
          "name": "supplyExchangePrice",
          "type": "uint256"
        },
        {
          "indexed": true,
          "internalType": "uint256",
          "name": "borrowExchangePrice",
          "type": "uint256"
        },
        {
          "indexed": false,
          "internalType": "uint256",
          "name": "borrowRate",
          "type": "uint256"
        },
        {
          "indexed": false,
          "internalType": "uint256",
          "name": "utilization",
          "type": "uint256"
        }
      ],
      "name": "LogUpdateExchangePrices",
      "type": "event"
    },
    {
      "anonymous": false,
      "inputs": [
        {
          "components": [
            {
              "internalType": "address",
              "name": "addr",
              "type": "address"
            },
            {
              "internalType": "bool",
              "name": "value",
              "type": "bool"
            }
          ],
          "indexed": false,
          "internalType": "struct Structs.AddressBool[]",
          "name": "guardiansStatus",
          "type": "tuple[]"
        }
      ],
      "name": "LogUpdateGuardians",
      "type": "event"
    },
    {
      "anonymous": false,
      "inputs": [
        {
          "components": [
            {
              "internalType": "address",
              "name": "token",
              "type": "address"
            },
            {
              "internalType": "uint256",
              "name": "kink",
              "type": "uint256"
            },
            {
              "internalType": "uint256",
              "name": "rateAtUtilizationZero",
              "type": "uint256"
            },
            {
              "internalType": "uint256",
              "name": "rateAtUtilizationKink",
              "type": "uint256"
            },
            {
              "internalType": "uint256",
              "name": "rateAtUtilizationMax",
              "type": "uint256"
            }
          ],
          "indexed": false,
          "internalType": "struct Structs.RateDataV1Params[]",
          "name": "tokenRateDatas",
          "type": "tuple[]"
        }
      ],
      "name": "LogUpdateRateDataV1s",
      "type": "event"
    },
    {
      "anonymous": false,
      "inputs": [
        {
          "components": [
            {
              "internalType": "address",
              "name": "token",
              "type": "address"
            },
            {
              "internalType": "uint256",
              "name": "kink1",
              "type": "uint256"
            },
            {
              "internalType": "uint256",
              "name": "kink2",
              "type": "uint256"
            },
            {
              "internalType": "uint256",
              "name": "rateAtUtilizationZero",
              "type": "uint256"
            },
            {
              "internalType": "uint256",
              "name": "rateAtUtilizationKink1",
              "type": "uint256"
            },
            {
              "internalType": "uint256",
              "name": "rateAtUtilizationKink2",
              "type": "uint256"
            },
            {
              "internalType": "uint256",
              "name": "rateAtUtilizationMax",
              "type": "uint256"
            }
          ],
          "indexed": false,
          "internalType": "struct Structs.RateDataV2Params[]",
          "name": "tokenRateDatas",
          "type": "tuple[]"
        }
      ],
      "name": "LogUpdateRateDataV2s",
      "type": "event"
    },
    {
      "anonymous": false,
      "inputs": [
        {
          "indexed": true,
          "internalType": "address",
          "name": "revenueCollector",
          "type": "address"
        }
      ],
      "name": "LogUpdateRevenueCollector",
      "type": "event"
    },
    {
      "anonymous": false,
      "inputs": [
        {
          "components": [
            {
              "internalType": "address",
              "name": "token",
              "type": "address"
            },
            {
              "internalType": "uint256",
              "name": "fee",
              "type": "uint256"
            },
            {
              "internalType": "uint256",
              "name": "threshold",
              "type": "uint256"
            },
            {
              "internalType": "uint256",
              "name": "maxUtilization",
              "type": "uint256"
            }
          ],
          "indexed": false,
          "internalType": "struct Structs.TokenConfig[]",
          "name": "tokenConfigs",
          "type": "tuple[]"
        }
      ],
      "name": "LogUpdateTokenConfigs",
      "type": "event"
    },
    {
      "anonymous": false,
      "inputs": [
        {
          "components": [
            {
              "internalType": "address",
              "name": "user",
              "type": "address"
            },
            {
              "internalType": "address",
              "name": "token",
              "type": "address"
            },
            {
              "internalType": "uint8",
              "name": "mode",
              "type": "uint8"
            },
            {
              "internalType": "uint256",
              "name": "expandPercent",
              "type": "uint256"
            },
            {
              "internalType": "uint256",
              "name": "expandDuration",
              "type": "uint256"
            },
            {
              "internalType": "uint256",
              "name": "baseDebtCeiling",
              "type": "uint256"
            },
            {
              "internalType": "uint256",
              "name": "maxDebtCeiling",
              "type": "uint256"
            }
          ],
          "indexed": false,
          "internalType": "struct Structs.UserBorrowConfig[]",
          "name": "userBorrowConfigs",
          "type": "tuple[]"
        }
      ],
      "name": "LogUpdateUserBorrowConfigs",
      "type": "event"
    },
    {
      "anonymous": false,
      "inputs": [
        {
          "components": [
            {
              "internalType": "address",
              "name": "addr",
              "type": "address"
            },
            {
              "internalType": "uint256",
              "name": "value",
              "type": "uint256"
            }
          ],
          "indexed": false,
          "internalType": "struct Structs.AddressUint256[]",
          "name": "userClasses",
          "type": "tuple[]"
        }
      ],
      "name": "LogUpdateUserClasses",
      "type": "event"
    },
    {
      "anonymous": false,
      "inputs": [
        {
          "components": [
            {
              "internalType": "address",
              "name": "user",
              "type": "address"
            },
            {
              "internalType": "address",
              "name": "token",
              "type": "address"
            },
            {
              "internalType": "uint8",
              "name": "mode",
              "type": "uint8"
            },
            {
              "internalType": "uint256",
              "name": "expandPercent",
              "type": "uint256"
            },
            {
              "internalType": "uint256",
              "name": "expandDuration",
              "type": "uint256"
            },
            {
              "internalType": "uint256",
              "name": "baseWithdrawalLimit",
              "type": "uint256"
            }
          ],
          "indexed": false,
          "internalType": "struct Structs.UserSupplyConfig[]",
          "name": "userSupplyConfigs",
          "type": "tuple[]"
        }
      ],
      "name": "LogUpdateUserSupplyConfigs",
      "type": "event"
    },
    {
      "inputs": [],
      "name": "NATIVE_TOKEN_MAX_BORROW_LIMIT_CAP",
      "outputs": [
        {
          "internalType": "uint256",
          "name": "",
          "type": "uint256"
        }
      ],
      "stateMutability": "view",
      "type": "function"
    },
    {
      "inputs": [
        {
          "internalType": "uint256",
          "name": "newStatus_",
          "type": "uint256"
        }
      ],
      "name": "changeStatus",
      "outputs": [],
      "stateMutability": "nonpayable",
      "type": "function"
    },
    {
      "inputs": [
        {
          "internalType": "address[]",
          "name": "tokens_",
          "type": "address[]"
        }
      ],
      "name": "collectRevenue",
      "outputs": [],
      "stateMutability": "nonpayable",
      "type": "function"
    },
    {
      "inputs": [
        {
          "internalType": "address",
          "name": "user_",
          "type": "address"
        },
        {
          "internalType": "address[]",
          "name": "supplyTokens_",
          "type": "address[]"
        },
        {
          "internalType": "address[]",
          "name": "borrowTokens_",
          "type": "address[]"
        }
      ],
      "name": "pauseUser",
      "outputs": [],
      "stateMutability": "nonpayable",
      "type": "function"
    },
    {
      "inputs": [
        {
          "internalType": "address",
          "name": "user_",
          "type": "address"
        },
        {
          "internalType": "address[]",
          "name": "supplyTokens_",
          "type": "address[]"
        },
        {
          "internalType": "address[]",
          "name": "borrowTokens_",
          "type": "address[]"
        }
      ],
      "name": "unpauseUser",
      "outputs": [],
      "stateMutability": "nonpayable",
      "type": "function"
    },
    {
      "inputs": [
        {
          "components": [
            {
              "internalType": "address",
              "name": "addr",
              "type": "address"
            },
            {
              "internalType": "bool",
              "name": "value",
              "type": "bool"
            }
          ],
          "internalType": "struct Structs.AddressBool[]",
          "name": "authsStatus_",
          "type": "tuple[]"
        }
      ],
      "name": "updateAuths",
      "outputs": [],
      "stateMutability": "nonpayable",
      "type": "function"
    },
    {
      "inputs": [
        {
          "internalType": "address[]",
          "name": "tokens_",
          "type": "address[]"
        }
      ],
      "name": "updateExchangePrices",
      "outputs": [
        {
          "internalType": "uint256[]",
          "name": "supplyExchangePrices_",
          "type": "uint256[]"
        },
        {
          "internalType": "uint256[]",
          "name": "borrowExchangePrices_",
          "type": "uint256[]"
        }
      ],
      "stateMutability": "nonpayable",
      "type": "function"
    },
    {
      "inputs": [
        {
          "components": [
            {
              "internalType": "address",
              "name": "addr",
              "type": "address"
            },
            {
              "internalType": "bool",
              "name": "value",
              "type": "bool"
            }
          ],
          "internalType": "struct Structs.AddressBool[]",
          "name": "guardiansStatus_",
          "type": "tuple[]"
        }
      ],
      "name": "updateGuardians",
      "outputs": [],
      "stateMutability": "nonpayable",
      "type": "function"
    },
    {
      "inputs": [
        {
          "components": [
            {
              "internalType": "address",
              "name": "token",
              "type": "address"
            },
            {
              "internalType": "uint256",
              "name": "kink",
              "type": "uint256"
            },
            {
              "internalType": "uint256",
              "name": "rateAtUtilizationZero",
              "type": "uint256"
            },
            {
              "internalType": "uint256",
              "name": "rateAtUtilizationKink",
              "type": "uint256"
            },
            {
              "internalType": "uint256",
              "name": "rateAtUtilizationMax",
              "type": "uint256"
            }
          ],
          "internalType": "struct Structs.RateDataV1Params[]",
          "name": "tokensRateData_",
          "type": "tuple[]"
        }
      ],
      "name": "updateRateDataV1s",
      "outputs": [],
      "stateMutability": "nonpayable",
      "type": "function"
    },
    {
      "inputs": [
        {
          "components": [
            {
              "internalType": "address",
              "name": "token",
              "type": "address"
            },
            {
              "internalType": "uint256",
              "name": "kink1",
              "type": "uint256"
            },
            {
              "internalType": "uint256",
              "name": "kink2",
              "type": "uint256"
            },
            {
              "internalType": "uint256",
              "name": "rateAtUtilizationZero",
              "type": "uint256"
            },
            {
              "internalType": "uint256",
              "name": "rateAtUtilizationKink1",
              "type": "uint256"
            },
            {
              "internalType": "uint256",
              "name": "rateAtUtilizationKink2",
              "type": "uint256"
            },
            {
              "internalType": "uint256",
              "name": "rateAtUtilizationMax",
              "type": "uint256"
            }
          ],
          "internalType": "struct Structs.RateDataV2Params[]",
          "name": "tokensRateData_",
          "type": "tuple[]"
        }
      ],
      "name": "updateRateDataV2s",
      "outputs": [],
      "stateMutability": "nonpayable",
      "type": "function"
    },
    {
      "inputs": [
        {
          "internalType": "address",
          "name": "revenueCollector_",
          "type": "address"
        }
      ],
      "name": "updateRevenueCollector",
      "outputs": [],
      "stateMutability": "nonpayable",
      "type": "function"
    },
    {
      "inputs": [
        {
          "components": [
            {
              "internalType": "address",
              "name": "token",
              "type": "address"
            },
            {
              "internalType": "uint256",
              "name": "fee",
              "type": "uint256"
            },
            {
              "internalType": "uint256",
              "name": "threshold",
              "type": "uint256"
            },
            {
              "internalType": "uint256",
              "name": "maxUtilization",
              "type": "uint256"
            }
          ],
          "internalType": "struct Structs.TokenConfig[]",
          "name": "tokenConfigs_",
          "type": "tuple[]"
        }
      ],
      "name": "updateTokenConfigs",
      "outputs": [],
      "stateMutability": "nonpayable",
      "type": "function"
    },
    {
      "inputs": [
        {
          "components": [
            {
              "internalType": "address",
              "name": "user",
              "type": "address"
            },
            {
              "internalType": "address",
              "name": "token",
              "type": "address"
            },
            {
              "internalType": "uint8",
              "name": "mode",
              "type": "uint8"
            },
            {
              "internalType": "uint256",
              "name": "expandPercent",
              "type": "uint256"
            },
            {
              "internalType": "uint256",
              "name": "expandDuration",
              "type": "uint256"
            },
            {
              "internalType": "uint256",
              "name": "baseDebtCeiling",
              "type": "uint256"
            },
            {
              "internalType": "uint256",
              "name": "maxDebtCeiling",
              "type": "uint256"
            }
          ],
          "internalType": "struct Structs.UserBorrowConfig[]",
          "name": "userBorrowConfigs_",
          "type": "tuple[]"
        }
      ],
      "name": "updateUserBorrowConfigs",
      "outputs": [],
      "stateMutability": "nonpayable",
      "type": "function"
    },
    {
      "inputs": [
        {
          "components": [
            {
              "internalType": "address",
              "name": "addr",
              "type": "address"
            },
            {
              "internalType": "uint256",
              "name": "value",
              "type": "uint256"
            }
          ],
          "internalType": "struct Structs.AddressUint256[]",
          "name": "userClasses_",
          "type": "tuple[]"
        }
      ],
      "name": "updateUserClasses",
      "outputs": [],
      "stateMutability": "nonpayable",
      "type": "function"
    },
    {
      "inputs": [
        {
          "components": [
            {
              "internalType": "address",
              "name": "user",
              "type": "address"
            },
            {
              "internalType": "address",
              "name": "token",
              "type": "address"
            },
            {
              "internalType": "uint8",
              "name": "mode",
              "type": "uint8"
            },
            {
              "internalType": "uint256",
              "name": "expandPercent",
              "type": "uint256"
            },
            {
              "internalType": "uint256",
              "name": "expandDuration",
              "type": "uint256"
            },
            {
              "internalType": "uint256",
              "name": "baseWithdrawalLimit",
              "type": "uint256"
            }
          ],
          "internalType": "struct Structs.UserSupplyConfig[]",
          "name": "userSupplyConfigs_",
          "type": "tuple[]"
        }
      ],
      "name": "updateUserSupplyConfigs",
      "outputs": [],
      "stateMutability": "nonpayable",
      "type": "function"
    }
  ],
  "transactionHash": "0x0def55f5c989266bd974d949f308468588d24dc9980e5b064ea5faf7e48da9a7",
  "args": [
    "50000000000000000000000000"
  ],
  "numDeployments": 1,
  "solcInputHash": "1989963ad64c4704dbe1170530c79d20",
  "bytecode": "0x60a06040523480156200001157600080fd5b5060405162005cc938038062005cc983398101604081905262000034916200006f565b60026001558060008190036200006557604051636e55c17160e11b8152612716600482015260240160405180910390fd5b6080525062000089565b6000602082840312156200008257600080fd5b5051919050565b608051615c1d620000ac600039600081816101e501526105820152615c1d6000f3fe608060405234801561001057600080fd5b50600436106100f55760003560e01c8063a5eb43ef11610097578063e8025d7711610066578063e8025d77146101cd578063eae2c8f1146101e0578063ec0484011461021a578063f4bfa0001461022d57600080fd5b8063a5eb43ef14610181578063ac862bfa14610194578063c2da75f0146101a7578063dd4cbf6b146101ba57600080fd5b80633fad77fc116100d35780633fad77fc1461013557806354bb0c1d146101485780637f7b60021461015b5780639dde59771461016e57600080fd5b806301b88f86146100fa57806302c6bb6a1461010f5780633f66feff14610122575b600080fd5b61010d610108366004614faf565b61024e565b005b61010d61011d3660046150b1565b610f5f565b61010d6101303660046151e4565b6119e1565b61010d610143366004615226565b611b6c565b61010d61015636600461529b565b611e06565b61010d6101693660046152bd565b611ef6565b61010d61017c366004615320565b612573565b61010d61018f3660046151e4565b6127eb565b61010d6101a23660046153c8565b61294e565b61010d6101b53660046151e4565b612d2b565b61010d6101c83660046153fe565b612f00565b61010d6101db36600461547f565b613372565b6102077f000000000000000000000000000000000000000000000000000000000000000081565b6040519081526020015b60405180910390f35b61010d6102283660046153fe565b613488565b61024061023b3660046153c8565b613866565b6040516102119291906154d3565b336000908152600260205260409020546001908116148015906102ae5750336102957fb53127684a568b3173ae13b9f8a6016e243e63b6e8ee1178d6a717850b5d61035490565b73ffffffffffffffffffffffffffffffffffffffff1614155b156102ee576040517fdcab82e200000000000000000000000000000000000000000000000000000000815261271360048201526024015b60405180910390fd5b6000806000806000806000805b8851811015610f1d5761032a89828151811061031957610319615501565b602002602001015160000151613989565b61035089828151811061033f5761033f615501565b602002602001015160200151613989565b600560008a838151811061036657610366615501565b60200260200101516020015173ffffffffffffffffffffffffffffffffffffffff1673ffffffffffffffffffffffffffffffffffffffff168152602001908152602001600020546000036103ea576040517fdcab82e200000000000000000000000000000000000000000000000000000000815261271a60048201526024016102e5565b60018982815181106103fe576103fe615501565b60200260200101516040015160ff161180610452575088818151811061042657610426615501565b602002602001015160c0015189828151811061044457610444615501565b602002602001015160a00151115b8061047a575088818151811061046a5761046a615501565b6020026020010151608001516000145b806105c2575073eeeeeeeeeeeeeeeeeeeeeeeeeeeeeeeeeeeeeeee73ffffffffffffffffffffffffffffffffffffffff168982815181106104bd576104bd615501565b60200260200101516020015173ffffffffffffffffffffffffffffffffffffffff1614610580578881815181106104f6576104f6615501565b60200260200101516020015173ffffffffffffffffffffffffffffffffffffffff166318160ddd6040518163ffffffff1660e01b8152600401602060405180830381865afa15801561054c573d6000803e3d6000fd5b505050506040513d601f19601f820116820180604052508101906105709190615530565b61057b90600a615578565b6105a2565b7f00000000000000000000000000000000000000000000000000000000000000005b8982815181106105b4576105b4615501565b602002602001015160c00151115b156105fd576040517fdcab82e200000000000000000000000000000000000000000000000000000000815261271660048201526024016102e5565b613fff89828151811061061257610612615501565b602002602001015160600151111561065a576040517fdcab82e200000000000000000000000000000000000000000000000000000000815261272660048201526024016102e5565b62ffffff89828151811061067057610670615501565b60200260200101516080015111156106b8576040517fdcab82e200000000000000000000000000000000000000000000000000000000815261272760048201526024016102e5565b8881815181106106ca576106ca615501565b602002602001015160a001516000148061070157508881815181106106f1576106f1615501565b602002602001015160c001516000145b1561073c576040517fdcab82e200000000000000000000000000000000000000000000000000000000815261271560048201526024016102e5565b600960008a838151811061075257610752615501565b60200260200101516000015173ffffffffffffffffffffffffffffffffffffffff1673ffffffffffffffffffffffffffffffffffffffff16815260200190815260200160002060008a83815181106107ac576107ac615501565b60200260200101516020015173ffffffffffffffffffffffffffffffffffffffff1673ffffffffffffffffffffffffffffffffffffffff1681526020019081526020016000205497508760001480610830575060018816158015610830575088818151811061081d5761081d615501565b60200260200101516040015160ff166000145b806108695750876001166001148015610869575088818151811061085657610856615501565b60200260200101516040015160ff166001145b15610a305760da6108a7600a600860008d868151811061088b5761088b615501565b602002602001015160c00151613a16909392919063ffffffff16565b901b60c86108e2600a600860008e87815181106108c6576108c6615501565b602002602001015160a00151613a16909392919063ffffffff16565b901b60b08b84815181106108f8576108f8615501565b602002602001015160800151901b60a28c858151811061091a5761091a615501565b602002602001015160600151901b8c858151811061093a5761093a615501565b60200260200101516040015160ff168c7ffffff0000000000000000003fffffffffffffffffffffffffffffffffffffffe161717171717600960008b848151811061098757610987615501565b60200260200101516000015173ffffffffffffffffffffffffffffffffffffffff1673ffffffffffffffffffffffffffffffffffffffff16815260200190815260200160002060008b84815181106109e1576109e1615501565b60200260200101516020015173ffffffffffffffffffffffffffffffffffffffff1673ffffffffffffffffffffffffffffffffffffffff16815260200190815260200160002081905550610f15565b610a56898281518110610a4557610a45615501565b602002602001015160200151613b3f565b5050610abd600560008b8481518110610a7157610a71615501565b60200260200101516020015173ffffffffffffffffffffffffffffffffffffffff1673ffffffffffffffffffffffffffffffffffffffff16815260200190815260200160002054613c81565b905080925050600760008a8381518110610ad957610ad9615501565b60200260200101516020015173ffffffffffffffffffffffffffffffffffffffff1673ffffffffffffffffffffffffffffffffffffffff168152602001908152602001600020549650610b4267ffffffffffffffff608089901c16600860ff9082901c91161b90565b955060c887901c60ff60c089901c161b945067ffffffffffffffff600189901c16935060ff8416600885901c901b935067ffffffffffffffff604189901c16925060ff8316600884901c901b9250876001166000148015610bc35750888181518110610bb057610bb0615501565b60200260200101516040015160ff166001145b15610c2157838511610bd6576000610be0565b610be08486615595565b9450610bf28464e8d4a5100084613e8f565b935081610c0464e8d4a5100085615578565b610c0e91906155d7565b9250610c1a8487615612565b9550610cae565b876001166001148015610c545750888181518110610c4157610c41615501565b60200260200101516040015160ff166000145b15610cae57838611610c67576000610c71565b610c718487615595565b9550610c83848364e8d4a51000613e8f565b935064e8d4a51000610c958385615578565b610c9f91906155d7565b9250610cab8486615612565b94505b610cbd84603860086001613a16565b9350610cce83603860086000613a16565b925060da610ced600a600860008d868151811061088b5761088b615501565b901b60c8610d0c600a600860008e87815181106108c6576108c6615501565b901b60b08b8481518110610d2257610d22615501565b602002602001015160800151901b60a28c8581518110610d4457610d44615501565b602002602001015160600151901b604187901b600189901b8e8781518110610d6e57610d6e615501565b60200260200101516040015160ff168e7ffffff0000000000000000003fffffffe000000000000000000000000000000001617171717171717600960008b8481518110610dbd57610dbd615501565b60200260200101516000015173ffffffffffffffffffffffffffffffffffffffff1673ffffffffffffffffffffffffffffffffffffffff16815260200190815260200160002060008b8481518110610e1757610e17615501565b60209081029190910181015181015173ffffffffffffffffffffffffffffffffffffffff16825281019190915260400160002055610e5a86603860086001613a16565b9550610e6b85603860086001613a16565b945060c085901b608087901b886fffffffffffffffffffffffffffffffff161717600760008b8481518110610ea257610ea2615501565b60200260200101516020015173ffffffffffffffffffffffffffffffffffffffff1673ffffffffffffffffffffffffffffffffffffffff16815260200190815260200160002081905550610f12898281518110610f0157610f01615501565b602002602001015160200151613ed3565b50505b6001016102fb565b507f4a3d512075def8d38b63e79dacfdab217654f641be2b2f7d638b67b2515df7c088604051610f4d9190615625565b60405180910390a15050505050505050565b33600090815260026020526040902054600190811614801590610fbf575033610fa67fb53127684a568b3173ae13b9f8a6016e243e63b6e8ee1178d6a717850b5d61035490565b73ffffffffffffffffffffffffffffffffffffffff1614155b15610ffa576040517fdcab82e200000000000000000000000000000000000000000000000000000000815261271360048201526024016102e5565b6000806000806000806000805b88518110156119b15761102589828151811061031957610319615501565b61103a89828151811061033f5761033f615501565b600560008a838151811061105057611050615501565b60200260200101516020015173ffffffffffffffffffffffffffffffffffffffff1673ffffffffffffffffffffffffffffffffffffffff168152602001908152602001600020546000036110d4576040517fdcab82e200000000000000000000000000000000000000000000000000000000815261271a60048201526024016102e5565b60018982815181106110e8576110e8615501565b60200260200101516040015160ff161180611120575088818151811061111057611110615501565b6020026020010151608001516000145b1561115b576040517fdcab82e200000000000000000000000000000000000000000000000000000000815261271660048201526024016102e5565b61271089828151811061117057611170615501565b60200260200101516060015111156111b8576040517fdcab82e200000000000000000000000000000000000000000000000000000000815261272460048201526024016102e5565b62ffffff8982815181106111ce576111ce615501565b6020026020010151608001511115611216576040517fdcab82e200000000000000000000000000000000000000000000000000000000815261272560048201526024016102e5565b88818151811061122857611228615501565b602002602001015160a00151600003611271576040517fdcab82e200000000000000000000000000000000000000000000000000000000815261271560048201526024016102e5565b600860008a838151811061128757611287615501565b60200260200101516000015173ffffffffffffffffffffffffffffffffffffffff1673ffffffffffffffffffffffffffffffffffffffff16815260200190815260200160002060008a83815181106112e1576112e1615501565b60200260200101516020015173ffffffffffffffffffffffffffffffffffffffff1673ffffffffffffffffffffffffffffffffffffffff1681526020019081526020016000205497508760001480611365575060018816158015611365575088818151811061135257611352615501565b60200260200101516040015160ff166000145b8061139e575087600116600114801561139e575088818151811061138b5761138b615501565b60200260200101516040015160ff166001145b1561150d5760c86113c0600a600860008d86815181106108c6576108c6615501565b901b60b08a83815181106113d6576113d6615501565b602002602001015160800151901b60a28b84815181106113f8576113f8615501565b602002602001015160600151901b8b848151811061141857611418615501565b60200260200101516040015160ff168b7ffffffffffc00000000000003fffffffffffffffffffffffffffffffffffffffe1617171717600860008b848151811061146457611464615501565b60200260200101516000015173ffffffffffffffffffffffffffffffffffffffff1673ffffffffffffffffffffffffffffffffffffffff16815260200190815260200160002060008b84815181106114be576114be615501565b60200260200101516020015173ffffffffffffffffffffffffffffffffffffffff1673ffffffffffffffffffffffffffffffffffffffff168152602001908152602001600020819055506119a9565b611522898281518110610a4557610a45615501565b505061153d600560008b8481518110610a7157610a71615501565b5080925050600760008a838151811061155857611558615501565b60200260200101516020015173ffffffffffffffffffffffffffffffffffffffff1673ffffffffffffffffffffffffffffffffffffffff1681526020019081526020016000205496506115bd67ffffffffffffffff8816600860ff9082901c91161b90565b955066ffffffffffffff604888901c1660ff604089901c161b945067ffffffffffffffff600189901c16935060ff8416600885901c901b935067ffffffffffffffff604189901c16925060ff8316600884901c901b9250876001166000148015611647575088818151811061163457611634615501565b60200260200101516040015160ff166001145b156116af5783851161165a576000611664565b6116648486615595565b94508161167664e8d4a5100086615578565b61168091906155d7565b93508161169264e8d4a5100085615578565b61169c91906155d7565b92506116a88487615612565b9550611746565b8760011660011480156116e257508881815181106116cf576116cf615501565b60200260200101516040015160ff166000145b15611746578386116116f55760006116ff565b6116ff8487615595565b955064e8d4a510006117118386615578565b61171b91906155d7565b935064e8d4a5100061172d8385615578565b61173791906155d7565b92506117438486615612565b94505b61175584603860086000613a16565b935061176683603860086000613a16565b925060c8611785600a600860008d86815181106108c6576108c6615501565b901b60b08a838151811061179b5761179b615501565b602002602001015160800151901b60a28b84815181106117bd576117bd615501565b602002602001015160600151901b604186901b600188901b8d86815181106117e7576117e7615501565b60200260200101516040015160ff168d7ffffffffffc00000000000003fffffffe0000000000000000000000000000000016171717171717600860008b848151811061183557611835615501565b60200260200101516000015173ffffffffffffffffffffffffffffffffffffffff1673ffffffffffffffffffffffffffffffffffffffff16815260200190815260200160002060008b848151811061188f5761188f615501565b60200260200101516020015173ffffffffffffffffffffffffffffffffffffffff1673ffffffffffffffffffffffffffffffffffffffff168152602001908152602001600020819055506118f360386008600089613a16909392919063ffffffff16565b955061190485603860086000613a16565b9450604085901b86887fffffffffffffffffffffffffffffffff00000000000000000000000000000000161717600760008b848151811061194757611947615501565b60200260200101516020015173ffffffffffffffffffffffffffffffffffffffff1673ffffffffffffffffffffffffffffffffffffffff168152602001908152602001600020819055506119a6898281518110610f0157610f01615501565b50505b600101611007565b507f614e3525ec8c152da9319cd9038950346a4a042d3c6810a7f3ffddc34347bdb088604051610f4d91906156c3565b33611a0a7fb53127684a568b3173ae13b9f8a6016e243e63b6e8ee1178d6a717850b5d61035490565b73ffffffffffffffffffffffffffffffffffffffff1614611a5b576040517fdcab82e200000000000000000000000000000000000000000000000000000000815261271260048201526024016102e5565b8060005b81811015611b2d57611a97848483818110611a7c57611a7c615501565b611a92926020604090920201908101915061529b565b614267565b838382818110611aa957611aa9615501565b9050604002016020016020810190611ac19190615758565b611acc576000611acf565b60015b60ff1660026000868685818110611ae857611ae8615501565b611afe926020604090920201908101915061529b565b73ffffffffffffffffffffffffffffffffffffffff168152602081019190915260400160002055600101611a5f565b507fb694cde8b4bf47e7f5845bb4374f98c5b29bbbaa5208ea679121cecb5d8fd3e08383604051611b5f929190615775565b60405180910390a1505050565b33600090815260026020526040902054600190811614801590611bcc575033611bb37fb53127684a568b3173ae13b9f8a6016e243e63b6e8ee1178d6a717850b5d61035490565b73ffffffffffffffffffffffffffffffffffffffff1614155b15611c07576040517fdcab82e200000000000000000000000000000000000000000000000000000000815261271360048201526024016102e5565b806000805b82811015611dc657611c44858583818110611c2957611c29615501565b611c3f92602060a090920201908101915061529b565b613989565b611c74858583818110611c5957611c59615501565b611c6f92602060a090920201908101915061529b565b6142b8565b60066000868684818110611c8a57611c8a615501565b611ca092602060a090920201908101915061529b565b73ffffffffffffffffffffffffffffffffffffffff16815260208101919091526040016000205491508115611d0257611cff858583818110611ce457611ce4615501565b611cfa92602060a090920201908101915061529b565b613b3f565b50505b611d32858583818110611d1757611d17615501565b905060a00201803603810190611d2d91906157e4565b6143b8565b60066000878785818110611d4857611d48615501565b611d5e92602060a090920201908101915061529b565b73ffffffffffffffffffffffffffffffffffffffff1681526020810191909152604001600020558115611dbe57611dbb858583818110611da057611da0615501565b611db692602060a090920201908101915061529b565b613ed3565b50505b600101611c0c565b507f1f953465aa7f3f2478d38b6c2a9cfcfbda846398254e278f614d586d527d902c8484604051611df8929190615859565b60405180910390a150505050565b33611e2f7fb53127684a568b3173ae13b9f8a6016e243e63b6e8ee1178d6a717850b5d61035490565b73ffffffffffffffffffffffffffffffffffffffff1614611e80576040517fdcab82e200000000000000000000000000000000000000000000000000000000815261271260048201526024016102e5565b611e8981614267565b600080547fffffffffffffffffffffffff00000000000000000000000000000000000000001673ffffffffffffffffffffffffffffffffffffffff8316908117825560405190917fde3dd47a9a762713b4a9813a037ab6f57e36569d8b0ec4ddb285d8a61878b5b491a250565b33600090815260026020526040902054600190811614801590611f56575033611f3d7fb53127684a568b3173ae13b9f8a6016e243e63b6e8ee1178d6a717850b5d61035490565b73ffffffffffffffffffffffffffffffffffffffff1614155b15611f91576040517fdcab82e200000000000000000000000000000000000000000000000000000000815261271360048201526024016102e5565b8060008080805b8481101561253157611fcb878783818110611fb557611fb5615501565b611c3f926020608090920201908101915061529b565b60066000888884818110611fe157611fe1615501565b611ff7926020608090920201908101915061529b565b73ffffffffffffffffffffffffffffffffffffffff1673ffffffffffffffffffffffffffffffffffffffff1681526020019081526020016000205460000361206f576040517fdcab82e200000000000000000000000000000000000000000000000000000000815261271a60048201526024016102e5565b61271087878381811061208457612084615501565b9050608002016020013511156120ca576040517fdcab82e200000000000000000000000000000000000000000000000000000000815261272260048201526024016102e5565b6127108787838181106120df576120df615501565b905060800201606001351115612125576040517fdcab82e200000000000000000000000000000000000000000000000000000000815261272b60048201526024016102e5565b6101f487878381811061213a5761213a615501565b905060800201604001351115612180576040517fdcab82e200000000000000000000000000000000000000000000000000000000815261272360048201526024016102e5565b6005600088888481811061219657612196615501565b6121ac926020608090920201908101915061529b565b73ffffffffffffffffffffffffffffffffffffffff1673ffffffffffffffffffffffffffffffffffffffff16815260200190815260200160002054935067ffffffffffffffff605b85901c16925067ffffffffffffffff609b85901c16915060008311801561221b5750600082115b1561228b5761222984613c81565b909350915067ffffffffffffffff83118061224b575067ffffffffffffffff82115b15612286576040517fdcab82e200000000000000000000000000000000000000000000000000000000815261272860048201526024016102e5565b61231d565b64e8d4a51000925064e8d4a510009150600a8787838181106122af576122af615501565b6122c5926020608090920201908101915061529b565b81546001810183556000928352602090922090910180547fffffffffffffffffffffffff00000000000000000000000000000000000000001673ffffffffffffffffffffffffffffffffffffffff9092169190911790555b600061271088888481811061233457612334615501565b905060800201606001351415905060f981612350576000612353565b60015b60ff16901b609b84901b605b86901b42603a1b602c8c8c8881811061237a5761237a615501565b90506080020160400135901b60108d8d8981811061239a5761239a615501565b90506080020160200135901b8a7ffdfffffff80000000000000000000000000000000000000000000fffc000ffff16171717171717600560008a8a868181106123e5576123e5615501565b6123fb926020608090920201908101915061529b565b73ffffffffffffffffffffffffffffffffffffffff1681526020810191909152604001600020558061242e57600061244b565b87878381811061244057612440615501565b905060800201606001355b600b60008a8a8681811061246157612461615501565b612477926020608090920201908101915061529b565b73ffffffffffffffffffffffffffffffffffffffff1673ffffffffffffffffffffffffffffffffffffffff168152602001908152602001600020547fffffffffffffffffffffffffffffffffffffffffffffffffffffffffffffc0001617600b60008a8a868181106124eb576124eb615501565b612501926020608090920201908101915061529b565b73ffffffffffffffffffffffffffffffffffffffff16815260208101919091526040016000205550600101611f98565b507fa9d5be7e168dc43b637b924e6cc22c262478dffd9d475fa170b6d4e4ba57646086866040516125639291906158ce565b60405180910390a1505050505050565b336000908152600260205260409020546001908116148015906125d35750336125ba7fb53127684a568b3173ae13b9f8a6016e243e63b6e8ee1178d6a717850b5d61035490565b73ffffffffffffffffffffffffffffffffffffffff1614155b1561260e576040517fdcab82e200000000000000000000000000000000000000000000000000000000815261271360048201526024016102e5565b806000805b828110156127b95761264685858381811061263057612630615501565b611c3f92602060e090920201908101915061529b565b61267185858381811061265b5761265b615501565b611c6f92602060e090920201908101915061529b565b6006600086868481811061268757612687615501565b61269d92602060e090920201908101915061529b565b73ffffffffffffffffffffffffffffffffffffffff168152602081019190915260400160002054915081156126fa576126f78585838181106126e1576126e1615501565b611cfa92602060e090920201908101915061529b565b50505b61272a85858381811061270f5761270f615501565b905060e002018036038101906127259190615939565b61451b565b6006600087878581811061274057612740615501565b61275692602060e090920201908101915061529b565b73ffffffffffffffffffffffffffffffffffffffff16815260208101919091526040016000205581156127b1576127ae85858381811061279857612798615501565b611db692602060e090920201908101915061529b565b50505b600101612613565b507ff96f9120f802331b6220bac68c2ab90cce6c8a8f9fed548d72dd092ad1899bf98484604051611df89291906159a4565b336128147fb53127684a568b3173ae13b9f8a6016e243e63b6e8ee1178d6a717850b5d61035490565b73ffffffffffffffffffffffffffffffffffffffff1614612865576040517fdcab82e200000000000000000000000000000000000000000000000000000000815261271260048201526024016102e5565b8060005b8181101561291c57612886848483818110611a7c57611a7c615501565b83838281811061289857612898615501565b90506040020160200160208101906128b09190615758565b6128bb5760006128be565b60015b60ff16600360008686858181106128d7576128d7615501565b6128ed926020604090920201908101915061529b565b73ffffffffffffffffffffffffffffffffffffffff168152602081019190915260400160002055600101612869565b507f530db3bf9b4b0c4f296fe1d9e21620b91db0a8bdcaca4cf1e6dc9844739405c18383604051611b5f929190615775565b336000908152600260205260409020546001908116148015906129ae5750336129957fb53127684a568b3173ae13b9f8a6016e243e63b6e8ee1178d6a717850b5d61035490565b73ffffffffffffffffffffffffffffffffffffffff1614155b156129e9576040517fdcab82e200000000000000000000000000000000000000000000000000000000815261271360048201526024016102e5565b60005473ffffffffffffffffffffffffffffffffffffffff1680612a3d576040517fdcab82e200000000000000000000000000000000000000000000000000000000815261271b60048201526024016102e5565b8160005b81811015612d2457612a73858583818110612a5e57612a5e615501565b9050602002016020810190611c3f919061529b565b600073eeeeeeeeeeeeeeeeeeeeeeeeeeeeeeeeeeeeeeee868684818110612a9c57612a9c615501565b9050602002016020810190612ab1919061529b565b73ffffffffffffffffffffffffffffffffffffffff161490506000612c6260076000898987818110612ae557612ae5615501565b9050602002016020810190612afa919061529b565b73ffffffffffffffffffffffffffffffffffffffff1673ffffffffffffffffffffffffffffffffffffffff16815260200190815260200160002054600560008a8a88818110612b4b57612b4b615501565b9050602002016020810190612b60919061529b565b73ffffffffffffffffffffffffffffffffffffffff1673ffffffffffffffffffffffffffffffffffffffff1681526020019081526020016000205484612c5c57898987818110612bb257612bb2615501565b9050602002016020810190612bc7919061529b565b6040517f70a0823100000000000000000000000000000000000000000000000000000000815230600482015273ffffffffffffffffffffffffffffffffffffffff91909116906370a0823190602401602060405180830381865afa158015612c33573d6000803e3d6000fd5b505050506040513d601f19601f82011682018060405250810190612c579190615530565b6146fa565b476146fa565b90508015612cb0578115612c7f57612c7a8582614763565b612cb0565b612cb0878785818110612c9457612c94615501565b9050602002016020810190612ca9919061529b565b86836148c2565b80878785818110612cc357612cc3615501565b9050602002016020810190612cd8919061529b565b73ffffffffffffffffffffffffffffffffffffffff167f7ded56fbc1e1a41c85fd5fb3d0ce91eafc72414b7f06ed356c1d921823d4c37c60405160405180910390a35050600101612a41565b5050505050565b33600090815260026020526040902054600190811614801590612d8b575033612d727fb53127684a568b3173ae13b9f8a6016e243e63b6e8ee1178d6a717850b5d61035490565b73ffffffffffffffffffffffffffffffffffffffff1614155b15612dc6576040517fdcab82e200000000000000000000000000000000000000000000000000000000815261271360048201526024016102e5565b8060005b81811015612ece576001848483818110612de657612de6615501565b905060400201602001351115612e2c576040517fdcab82e200000000000000000000000000000000000000000000000000000000815261271660048201526024016102e5565b612e57848483818110612e4157612e41615501565b611c3f926020604090920201908101915061529b565b838382818110612e6957612e69615501565b9050604002016020013560046000868685818110612e8957612e89615501565b612e9f926020604090920201908101915061529b565b73ffffffffffffffffffffffffffffffffffffffff168152602081019190915260400160002055600101612dca565b507f9ccbc3483d75ae36da94213ac30ac0a047e1226ef3435d004cd501608e5b388b8383604051611b5f929190615a2d565b33600090815260036020526040902054600190811614801590612f60575033612f477fb53127684a568b3173ae13b9f8a6016e243e63b6e8ee1178d6a717850b5d61035490565b73ffffffffffffffffffffffffffffffffffffffff1614155b15612f9b576040517fdcab82e200000000000000000000000000000000000000000000000000000000815261271460048201526024016102e5565b612fa485613989565b73ffffffffffffffffffffffffffffffffffffffff8516600090815260046020526040902054600103613007576040517fdcab82e200000000000000000000000000000000000000000000000000000000815261271760048201526024016102e5565b60008380156131995760005b8181101561319757613030878783818110612a5e57612a5e615501565b73ffffffffffffffffffffffffffffffffffffffff881660009081526008602052604081209088888481811061306857613068615501565b905060200201602081019061307d919061529b565b73ffffffffffffffffffffffffffffffffffffffff1673ffffffffffffffffffffffffffffffffffffffff168152602001908152602001600020549250826000036130f8576040517fdcab82e200000000000000000000000000000000000000000000000000000000815261271960048201526024016102e5565b73ffffffffffffffffffffffffffffffffffffffff881660009081526008602052604081207f800000000000000000000000000000000000000000000000000000000000000085179189898581811061315357613153615501565b9050602002016020810190613168919061529b565b73ffffffffffffffffffffffffffffffffffffffff168152602081019190915260400160002055600101613013565b505b5081801561332a5760005b81811015613328576131c1858583818110612a5e57612a5e615501565b73ffffffffffffffffffffffffffffffffffffffff88166000908152600960205260408120908686848181106131f9576131f9615501565b905060200201602081019061320e919061529b565b73ffffffffffffffffffffffffffffffffffffffff1673ffffffffffffffffffffffffffffffffffffffff16815260200190815260200160002054925082600003613289576040517fdcab82e200000000000000000000000000000000000000000000000000000000815261271960048201526024016102e5565b73ffffffffffffffffffffffffffffffffffffffff881660009081526009602052604081207f80000000000000000000000000000000000000000000000000000000000000008517918787858181106132e4576132e4615501565b90506020020160208101906132f9919061529b565b73ffffffffffffffffffffffffffffffffffffffff1681526020810191909152604001600020556001016131a4565b505b7f6686e5bb0cc56cbc9aa2b434eb18009891bf411d6d3f961fdfe70be336ca45288787878787604051613361959493929190615acd565b60405180910390a150505050505050565b336000908152600260205260409020546001908116148015906133d25750336133b97fb53127684a568b3173ae13b9f8a6016e243e63b6e8ee1178d6a717850b5d61035490565b73ffffffffffffffffffffffffffffffffffffffff1614155b1561340d576040517fdcab82e200000000000000000000000000000000000000000000000000000000815261271360048201526024016102e5565b80158061341a5750600281115b15613455576040517fdcab82e200000000000000000000000000000000000000000000000000000000815261271660048201526024016102e5565b600181905560405181907fb33384c8a450936b9fba178db857f03fb9865a40d166aa2f9d439a9fdddfbe2290600090a250565b336000908152600360205260409020546001908116148015906134e85750336134cf7fb53127684a568b3173ae13b9f8a6016e243e63b6e8ee1178d6a717850b5d61035490565b73ffffffffffffffffffffffffffffffffffffffff1614155b15613523576040517fdcab82e200000000000000000000000000000000000000000000000000000000815261271460048201526024016102e5565b61352c85613989565b60008380156136ae5760005b818110156136ac57613555878783818110612a5e57612a5e615501565b73ffffffffffffffffffffffffffffffffffffffff881660009081526008602052604081209088888481811061358d5761358d615501565b90506020020160208101906135a2919061529b565b73ffffffffffffffffffffffffffffffffffffffff1681526020810191909152604001600020549250600160ff84901c1461360d576040517fdcab82e200000000000000000000000000000000000000000000000000000000815261271860048201526024016102e5565b73ffffffffffffffffffffffffffffffffffffffff881660009081526008602052604081207f7fffffffffffffffffffffffffffffffffffffffffffffffffffffffffffffff85169189898581811061366857613668615501565b905060200201602081019061367d919061529b565b73ffffffffffffffffffffffffffffffffffffffff168152602081019190915260400160002055600101613538565b505b5081801561382f5760005b8181101561382d576136d6858583818110612a5e57612a5e615501565b73ffffffffffffffffffffffffffffffffffffffff881660009081526009602052604081209086868481811061370e5761370e615501565b9050602002016020810190613723919061529b565b73ffffffffffffffffffffffffffffffffffffffff1681526020810191909152604001600020549250600160ff84901c1461378e576040517fdcab82e200000000000000000000000000000000000000000000000000000000815261271860048201526024016102e5565b73ffffffffffffffffffffffffffffffffffffffff881660009081526009602052604081207f7fffffffffffffffffffffffffffffffffffffffffffffffffffffffffffffff8516918787858181106137e9576137e9615501565b90506020020160208101906137fe919061529b565b73ffffffffffffffffffffffffffffffffffffffff1681526020810191909152604001600020556001016136b9565b505b7facd30ef49b8fd1b51bbefff95071c5b0257180a7778c9c0fa4eb77a8842e290d8787878787604051613361959493929190615acd565b606080828067ffffffffffffffff81111561388357613883614e89565b6040519080825280602002602001820160405280156138ac578160200160208202803683370190505b5092508067ffffffffffffffff8111156138c8576138c8614e89565b6040519080825280602002602001820160405280156138f1578160200160208202803683370190505b50915060005b8181101561398057613914868683818110612a5e57612a5e615501565b61393e86868381811061392957613929615501565b9050602002016020810190611db6919061529b565b85838151811061395057613950615501565b6020026020010185848151811061396957613969615501565b6020908102919091010191909152526001016138f7565b50509250929050565b73ffffffffffffffffffffffffffffffffffffffff81163b1580156139d8575073ffffffffffffffffffffffffffffffffffffffff811673eeeeeeeeeeeeeeeeeeeeeeeeeeeeeeeeeeeeeeee14155b15613a13576040517fdcab82e200000000000000000000000000000000000000000000000000000000815261272a60048201526024016102e5565b50565b600080856fffffffffffffffffffffffffffffffff811115613a395760809150811c5b67ffffffffffffffff811115613a51576040918201911c5b63ffffffff811115613a65576020918201911c5b61ffff811115613a77576010918201911c5b60ff811115613a88576008918201911c5b600f811115613a99576004918201911c5b6003811115613aaa576002918201911c5b6001811115613aba576001820191505b8015613ac7576001820191505b5084811015613ad35750835b848103905085811c60008211841615613b2257600181019050806001871b03613b2257506001908101907fffffffffffffffffffffffffffffffffffffffffffffffffffffffffffffffff86011b5b6001851b8210613b3157600080fd5b90931b909201949350505050565b73ffffffffffffffffffffffffffffffffffffffff81166000908152600560205260408120548190613b7081613c81565b909350915067ffffffffffffffff831180613b92575067ffffffffffffffff82115b15613bcd576040517fdcab82e200000000000000000000000000000000000000000000000000000000815261272860048201526024016102e5565b73ffffffffffffffffffffffffffffffffffffffff8416600081815260056020526040908190207ffffffffff80000000000000000000000000000000000000003ffffffffffffff841642603a1b17605b87901b17609b86901b17905551839185917f96c40bed7fc8d0ac41633a3bd47f254f0b0076e5df70975c51d23514bc49d3b890613c739061ffff871690601e88901c613fff1690918252602082015260400190565b60405180910390a450915091565b67ffffffffffffffff605b82901c811690609b83901c16811580613ca3575080155b15613cdf576040517fd50d75120000000000000000000000000000000000000000000000000000000081526201117160048201526024016102e5565b61ffff8316603a84901c6401ffffffff16428181039160ea87901c617fff16911480613d09575082155b80613d145750806001145b15613d2157505050915091565b64496cebb80084840283020484019350617fff60db87901c16925082600103613d4c57505050915091565b82600116600103613da15760019290921c91826c7e37be2022c0914b268000000081613d7a57613d7a6155a8565b049250612710601e87901c613fff166b033b2e3c9fd0803ce8000000850102049250613dce565b60019290921c916305f5e100601e87901c613fff166127108501026b033b2e3c9fd0803ce8000000020492505b80600116600103613e055760011c61271081016b033b2e3c9fd0803ce8000000820281613dfd57613dfd6155a8565b049050613e3b565b60011c61271081016b033b2e3c9fd0803ce8000000820281613e2957613e296155a8565b046b033b2e3c9fd0803ce80000000390505b760a70c3c40a64e6c51999090b65f67d92400000000000008382026127100261ffff881691900402601087901c613fff16612710030292506801b5a660ea44b8000085840283020485019450505050915091565b6000827fffffffffffffffffffffffffffffffffffffffffffffffffffffffffffffffff0484118302158202613ec457600080fd5b50910281810615159190040190565b73ffffffffffffffffffffffffffffffffffffffff81166000908152600560205260408120548190613f0481613c81565b73ffffffffffffffffffffffffffffffffffffffff861660009081526007602052604081205492955090935064e8d4a51000613f5286600885901c66ffffffffffffff1660ff86161b615578565b613f5c91906155d7565b9050600064e8d4a51000613f8686608886901c66ffffffffffffff16608087901c60ff161b615578565b613f9091906155d7565b9050600066ffffffffffffff604885901c1660ff604086901c161b9050600060c885901c60ff60c087901c161b9050600080851180613fcf5750600083115b1561400257613fde8386615612565b612710613feb8487615612565b613ff59190615578565b613fff91906155d7565b90505b8285111561402c5760018561401961271086615578565b61402391906155d7565b901b945061406e565b828510156140595760018361404361271088615578565b61404d91906155d7565b901b600117945061406e565b841561406957614e20945061406e565b600094505b818411156140985760018461408561271085615578565b61408f91906155d7565b901b93506140da565b818410156140c5576001826140af61271087615578565b6140b991906155d7565b901b60011793506140da565b83156140d557614e2093506140da565b600093505b73ffffffffffffffffffffffffffffffffffffffff8a1660009081526006602052604081205461410a908361494f565b905067ffffffffffffffff8a1180614129575067ffffffffffffffff89115b15614164576040517fdcab82e200000000000000000000000000000000000000000000000000000000815261272860048201526024016102e5565b613fff8211156141a4576040517fdcab82e200000000000000000000000000000000000000000000000000000000815261272960048201526024016102e5565b73ffffffffffffffffffffffffffffffffffffffff8b16600081815260056020526040908190207ffe000000000000000000000000000000000000000000000003fff0003fff00008b168417601e86901b1742603a1b17605b8e901b17609b8d901b1760db8a901b1760ea89901b179055518a918c917f96c40bed7fc8d0ac41633a3bd47f254f0b0076e5df70975c51d23514bc49d3b8906142529086908890918252602082015260400190565b60405180910390a45050505050505050915091565b73ffffffffffffffffffffffffffffffffffffffff8116613a13576040517fdcab82e200000000000000000000000000000000000000000000000000000000815261271160048201526024016102e5565b600073ffffffffffffffffffffffffffffffffffffffff821673eeeeeeeeeeeeeeeeeeeeeeeeeeeeeeeeeeeeeeee1461435f578173ffffffffffffffffffffffffffffffffffffffff1663313ce5676040518163ffffffff1660e01b8152600401602060405180830381865afa158015614336573d6000803e3d6000fd5b505050506040513d601f19601f8201168201806040525081019061435a9190615b1c565b614362565b60125b9050600660ff821610806143795750601260ff8216115b156143b4576040517fdcab82e200000000000000000000000000000000000000000000000000000000815261272c60048201526024016102e5565b5050565b600061ffff826040015111156143fe576040517fdcab82e200000000000000000000000000000000000000000000000000000000815261271c60048201526024016102e5565b61ffff82606001511115614442576040517fdcab82e200000000000000000000000000000000000000000000000000000000815261271d60048201526024016102e5565b61ffff82608001511115614486576040517fdcab82e200000000000000000000000000000000000000000000000000000000815261271e60048201526024016102e5565b6020820151158061449d5750612710826020015110155b806144af575081608001518260600151115b156144ea576040517fdcab82e200000000000000000000000000000000000000000000000000000000815261271660048201526024016102e5565b60348260800151901b60248360600151901b60148460200151901b60048560400151901b6001171717179050919050565b600061ffff82606001511115614561576040517fdcab82e200000000000000000000000000000000000000000000000000000000815261271c60048201526024016102e5565b61ffff826080015111156145a5576040517fdcab82e200000000000000000000000000000000000000000000000000000000815261271f60048201526024016102e5565b61ffff8260a0015111156145e9576040517fdcab82e200000000000000000000000000000000000000000000000000000000815261272060048201526024016102e5565b61ffff8260c00151111561462d576040517fdcab82e200000000000000000000000000000000000000000000000000000000815261272160048201526024016102e5565b602082015115806146445750612710826020015110155b8061465757508160400151826020015110155b806146685750612710826040015110155b8061467a57508160c001518260a00151115b156146b5576040517fdcab82e200000000000000000000000000000000000000000000000000000000815261271660048201526024016102e5565b60548260c00151901b60448360a00151901b60348460400151901b60248560800151901b60148660200151901b60048760600151901b60021717171717179050919050565b600080600061470885613c81565b91509150600061471887846149f8565b905080156147555761472a8783614a4b565b6147349086615612565b935080841161474457600061474e565b61474e8185615595565b9350614759565b8493505b5050509392505050565b804710156147cd576040517f08c379a000000000000000000000000000000000000000000000000000000000815260206004820152601d60248201527f416464726573733a20696e73756666696369656e742062616c616e636500000060448201526064016102e5565b60008273ffffffffffffffffffffffffffffffffffffffff168260405160006040518083038185875af1925050503d8060008114614827576040519150601f19603f3d011682016040523d82523d6000602084013e61482c565b606091505b50509050806148bd576040517f08c379a000000000000000000000000000000000000000000000000000000000815260206004820152603a60248201527f416464726573733a20756e61626c6520746f2073656e642076616c75652c207260448201527f6563697069656e74206d6179206861766520726576657274656400000000000060648201526084016102e5565b505050565b6040805173ffffffffffffffffffffffffffffffffffffffff8416602482015260448082018490528251808303909101815260649091019091526020810180517bffffffffffffffffffffffffffffffffffffffffffffffffffffffff167fa9059cbb000000000000000000000000000000000000000000000000000000001790526148bd908490614a85565b6000600f8316600181900361496f576149688484614b91565b91506149b8565b80600203614981576149688484614c70565b6040517fd50d75120000000000000000000000000000000000000000000000000000000081526201117260048201526024016102e5565b61ffff8211156149f15760405161ffff92507fe41708b2641eb1f7442f6a1e760ae5098fd7ba9f85e0c101513add0fbb27bcd790600090a15b5092915050565b66ffffffffffffff604883901c811660ff604085901c81169190911b91600885901c169084161b64e8d4a51000614a2f8483615578565b614a3991906155d7565b614a439083615612565b949350505050565b60c882901c60ff60c084901c81169190911b9066ffffffffffffff608885901c16608085901c9091161b64e8d4a51000614a2f8483615578565b6000614ae7826040518060400160405280602081526020017f5361666545524332303a206c6f772d6c6576656c2063616c6c206661696c65648152508573ffffffffffffffffffffffffffffffffffffffff16614d189092919063ffffffff16565b8051909150156148bd5780806020019051810190614b059190615b39565b6148bd576040517f08c379a000000000000000000000000000000000000000000000000000000000815260206004820152602a60248201527f5361666545524332303a204552433230206f7065726174696f6e20646964206e60448201527f6f7420737563636565640000000000000000000000000000000000000000000060648201526084016102e5565b600080808080601487901c61ffff1680871015614bca5761ffff600489901c16945061ffff602489901c16935060009250809150614be9565b61ffff602489901c16945061ffff603489901c16935080925061271091505b60008084840364e8d4a510008888030281614c0657614c066155a8565b0585810264e8d4a5100089020392508902820190506000811215614c5b576040517fd50d75120000000000000000000000000000000000000000000000000000000081526201117360048201526024016102e5565b64e8d4a5100090049998505050505050505050565b600080808080601487901c61ffff1680871015614ca95761ffff600489901c16945061ffff602489901c16935060009250809150614be9565b603488901c61ffff1680881015614cdb5761ffff60248a901c16955061ffff60448a901c169450819350809250614cfa565b61ffff60448a901c16955061ffff60548a901c16945080935061271092505b5060008084840364e8d4a510008888030281614c0657614c066155a8565b6060614a438484600085856000808673ffffffffffffffffffffffffffffffffffffffff168587604051614d4c9190615b7a565b60006040518083038185875af1925050503d8060008114614d89576040519150601f19603f3d011682016040523d82523d6000602084013e614d8e565b606091505b5091509150614d9f87838387614daa565b979650505050505050565b60608315614e40578251600003614e395773ffffffffffffffffffffffffffffffffffffffff85163b614e39576040517f08c379a000000000000000000000000000000000000000000000000000000000815260206004820152601d60248201527f416464726573733a2063616c6c20746f206e6f6e2d636f6e747261637400000060448201526064016102e5565b5081614a43565b614a438383815115614e555781518083602001fd5b806040517f08c379a00000000000000000000000000000000000000000000000000000000081526004016102e59190615b96565b7f4e487b7100000000000000000000000000000000000000000000000000000000600052604160045260246000fd5b60405160e0810167ffffffffffffffff81118282101715614edb57614edb614e89565b60405290565b60405160c0810167ffffffffffffffff81118282101715614edb57614edb614e89565b604051601f82017fffffffffffffffffffffffffffffffffffffffffffffffffffffffffffffffe016810167ffffffffffffffff81118282101715614f4b57614f4b614e89565b604052919050565b600067ffffffffffffffff821115614f6d57614f6d614e89565b5060051b60200190565b803573ffffffffffffffffffffffffffffffffffffffff81168114614f9b57600080fd5b919050565b60ff81168114613a1357600080fd5b60006020808385031215614fc257600080fd5b823567ffffffffffffffff811115614fd957600080fd5b8301601f81018513614fea57600080fd5b8035614ffd614ff882614f53565b614f04565b81815260e0918202830184019184820191908884111561501c57600080fd5b938501935b838510156150a55780858a0312156150395760008081fd5b615041614eb8565b61504a86614f77565b8152615057878701614f77565b8782015260408087013561506a81614fa0565b90820152606086810135908201526080808701359082015260a0808701359082015260c0808701359082015283529384019391850191615021565b50979650505050505050565b600060208083850312156150c457600080fd5b823567ffffffffffffffff8111156150db57600080fd5b8301601f810185136150ec57600080fd5b80356150fa614ff882614f53565b81815260c0918202830184019184820191908884111561511957600080fd5b938501935b838510156150a55780858a0312156151365760008081fd5b61513e614ee1565b61514786614f77565b8152615154878701614f77565b8782015260408087013561516781614fa0565b90820152606086810135908201526080808701359082015260a080870135908201528352938401939185019161511e565b60008083601f8401126151aa57600080fd5b50813567ffffffffffffffff8111156151c257600080fd5b6020830191508360208260061b85010111156151dd57600080fd5b9250929050565b600080602083850312156151f757600080fd5b823567ffffffffffffffff81111561520e57600080fd5b61521a85828601615198565b90969095509350505050565b6000806020838503121561523957600080fd5b823567ffffffffffffffff8082111561525157600080fd5b818501915085601f83011261526557600080fd5b81358181111561527457600080fd5b86602060a08302850101111561528957600080fd5b60209290920196919550909350505050565b6000602082840312156152ad57600080fd5b6152b682614f77565b9392505050565b600080602083850312156152d057600080fd5b823567ffffffffffffffff808211156152e857600080fd5b818501915085601f8301126152fc57600080fd5b81358181111561530b57600080fd5b8660208260071b850101111561528957600080fd5b6000806020838503121561533357600080fd5b823567ffffffffffffffff8082111561534b57600080fd5b818501915085601f83011261535f57600080fd5b81358181111561536e57600080fd5b86602060e08302850101111561528957600080fd5b60008083601f84011261539557600080fd5b50813567ffffffffffffffff8111156153ad57600080fd5b6020830191508360208260051b85010111156151dd57600080fd5b600080602083850312156153db57600080fd5b823567ffffffffffffffff8111156153f257600080fd5b61521a85828601615383565b60008060008060006060868803121561541657600080fd5b61541f86614f77565b9450602086013567ffffffffffffffff8082111561543c57600080fd5b61544889838a01615383565b9096509450604088013591508082111561546157600080fd5b5061546e88828901615383565b969995985093965092949392505050565b60006020828403121561549157600080fd5b5035919050565b600081518084526020808501945080840160005b838110156154c8578151875295820195908201906001016154ac565b509495945050505050565b6040815260006154e66040830185615498565b82810360208401526154f88185615498565b95945050505050565b7f4e487b7100000000000000000000000000000000000000000000000000000000600052603260045260246000fd5b60006020828403121561554257600080fd5b5051919050565b7f4e487b7100000000000000000000000000000000000000000000000000000000600052601160045260246000fd5b808202811582820484141761558f5761558f615549565b92915050565b8181038181111561558f5761558f615549565b7f4e487b7100000000000000000000000000000000000000000000000000000000600052601260045260246000fd5b60008261560d577f4e487b7100000000000000000000000000000000000000000000000000000000600052601260045260246000fd5b500490565b8082018082111561558f5761558f615549565b602080825282518282018190526000919060409081850190868401855b828110156156b6578151805173ffffffffffffffffffffffffffffffffffffffff90811686528782015116878601528581015160ff1686860152606080820151908601526080808201519086015260a0808201519086015260c0908101519085015260e09093019290850190600101615642565b5091979650505050505050565b602080825282518282018190526000919060409081850190868401855b828110156156b6578151805173ffffffffffffffffffffffffffffffffffffffff90811686528782015116878601528581015160ff1686860152606080820151908601526080808201519086015260a0908101519085015260c090930192908501906001016156e0565b8015158114613a1357600080fd5b60006020828403121561576a57600080fd5b81356152b68161574a565b6020808252818101839052600090604080840186845b878110156157d75773ffffffffffffffffffffffffffffffffffffffff6157b183614f77565b168352848201356157c18161574a565b151583860152918301919083019060010161578b565b5090979650505050505050565b600060a082840312156157f657600080fd5b60405160a0810181811067ffffffffffffffff8211171561581957615819614e89565b60405261582583614f77565b8152602083013560208201526040830135604082015260608301356060820152608083013560808201528091505092915050565b6020808252818101839052600090604080840186845b878110156157d75773ffffffffffffffffffffffffffffffffffffffff61589583614f77565b16835281850135858401528382013584840152606080830135908401526080808301359084015260a0928301929091019060010161586f565b6020808252818101839052600090604080840186845b878110156157d75773ffffffffffffffffffffffffffffffffffffffff61590a83614f77565b1683528185013585840152838201358484015260608083013590840152608092830192909101906001016158e4565b600060e0828403121561594b57600080fd5b615953614eb8565b61595c83614f77565b81526020830135602082015260408301356040820152606083013560608201526080830135608082015260a083013560a082015260c083013560c08201528091505092915050565b6020808252818101839052600090604080840186845b878110156157d75773ffffffffffffffffffffffffffffffffffffffff6159e083614f77565b16835281850135858401528382013584840152606080830135908401526080808301359084015260a0808301359084015260c0808301359084015260e092830192909101906001016159ba565b6020808252818101839052600090604080840186845b878110156157d75773ffffffffffffffffffffffffffffffffffffffff615a6983614f77565b16835281850135858401529183019190830190600101615a43565b8183526000602080850194508260005b858110156154c85773ffffffffffffffffffffffffffffffffffffffff615aba83614f77565b1687529582019590820190600101615a94565b73ffffffffffffffffffffffffffffffffffffffff86168152606060208201526000615afd606083018688615a84565b8281036040840152615b10818587615a84565b98975050505050505050565b600060208284031215615b2e57600080fd5b81516152b681614fa0565b600060208284031215615b4b57600080fd5b81516152b68161574a565b60005b83811015615b71578181015183820152602001615b59565b50506000910152565b60008251615b8c818460208701615b56565b9190910192915050565b6020815260008251806020840152615bb5816040850160208701615b56565b601f017fffffffffffffffffffffffffffffffffffffffffffffffffffffffffffffffe016919091016040019291505056fea2646970667358221220f8aec2d23d17b78ecb88e10b6f3873fe8d210a6dde4b38e422699906510a614264736f6c63430008150033",
  "devdoc": {
    "kind": "dev",
    "methods": {
      "changeStatus(uint256)": {
        "params": {
          "newStatus_": "new status        status = 2 -> pause, status = 1 -> resume."
        }
      },
      "collectRevenue(address[])": {
        "details": "Note that this can revert if token balance is < revenueAmount (utilization > 100%)",
        "params": {
          "tokens_": "array of tokens to collect revenue for"
        }
      },
      "pauseUser(address,address[],address[])": {
        "params": {
          "borrowTokens_": "token addresses to pause borrowings for",
          "supplyTokens_": "token addresses to pause withdrawals for",
          "user_": "address of user to pause operations for"
        }
      },
      "unpauseUser(address,address[],address[])": {
        "params": {
          "borrowTokens_": "token addresses to unpause borrowings for",
          "supplyTokens_": "token addresses to unpause withdrawals for",
          "user_": "address of user to unpause operations for"
        }
      },
      "updateAuths((address,bool)[])": {
        "params": {
          "authsStatus_": "array of structs setting allowed status for an address.                     status true => add auth, false => remove auth"
        }
      },
      "updateExchangePrices(address[])": {
        "params": {
          "tokens_": "tokens to update exchange prices for"
        },
        "returns": {
          "borrowExchangePrices_": "new borrow rates of overall system for each token",
          "supplyExchangePrices_": "new supply rates of overall system for each token"
        }
      },
      "updateGuardians((address,bool)[])": {
        "params": {
          "guardiansStatus_": "array of structs setting allowed status for an address.                         status true => add guardian, false => remove guardian"
        }
      },
      "updateRateDataV1s((address,uint256,uint256,uint256,uint256)[])": {
        "params": {
          "tokensRateData_": "array of RateDataV1Params with rate data to set for each token"
        }
      },
      "updateRateDataV2s((address,uint256,uint256,uint256,uint256,uint256,uint256)[])": {
        "params": {
          "tokensRateData_": "array of RateDataV2Params with rate data to set for each token"
        }
      },
      "updateRevenueCollector(address)": {
        "params": {
          "revenueCollector_": "new revenue collector address"
        }
      },
      "updateTokenConfigs((address,uint256,uint256,uint256)[])": {
        "params": {
          "tokenConfigs_": "contains token address, fee & utilization threshold"
        }
      },
      "updateUserBorrowConfigs((address,address,uint8,uint256,uint256,uint256,uint256)[])": {
        "params": {
          "userBorrowConfigs_": "struct array containing user borrow config, see `UserBorrowConfig` struct for more info"
        }
      },
      "updateUserClasses((address,uint256)[])": {
        "params": {
          "userClasses_": "struct array of uint256 value to assign for each user address"
        }
      },
      "updateUserSupplyConfigs((address,address,uint8,uint256,uint256,uint256)[])": {
        "params": {
          "userSupplyConfigs_": "struct array containing user supply config, see `UserSupplyConfig` struct for more info"
        }
      }
    },
    "title": "Fluid Liquidity AdminModule",
    "version": 1
  },
  "userdoc": {
    "events": {
      "BorrowRateMaxCap()": {
        "notice": "emitted if the calculated borrow rate surpassed max borrow rate (16 bits) and was capped at maximum value 65535"
      },
      "LogChangeStatus(uint256)": {
        "notice": "emitted when status is changed (paused / unpaused)"
      },
      "LogCollectRevenue(address,uint256)": {
        "notice": "emitted when revenue is collected"
      },
      "LogPauseUser(address,address[],address[])": {
        "notice": "emitted when a user gets certain tokens paused"
      },
      "LogUnpauseUser(address,address[],address[])": {
        "notice": "emitted when a user gets certain tokens unpaused"
      },
      "LogUpdateAuths((address,bool)[])": {
        "notice": "emitted when allowed auths are updated"
      },
      "LogUpdateExchangePrices(address,uint256,uint256,uint256,uint256)": {
        "notice": "emitted when exchange prices and borrow rate are updated"
      },
      "LogUpdateGuardians((address,bool)[])": {
        "notice": "emitted when allowed guardians are updated"
      },
      "LogUpdateRateDataV1s((address,uint256,uint256,uint256,uint256)[])": {
        "notice": "emitted when token rate data is updated with rate data v1"
      },
      "LogUpdateRateDataV2s((address,uint256,uint256,uint256,uint256,uint256,uint256)[])": {
        "notice": "emitted when token rate data is updated with rate data v2"
      },
      "LogUpdateRevenueCollector(address)": {
        "notice": "emitted when revenue collector address is updated"
      },
      "LogUpdateTokenConfigs((address,uint256,uint256,uint256)[])": {
        "notice": "emitted when token configs are updated"
      },
      "LogUpdateUserBorrowConfigs((address,address,uint8,uint256,uint256,uint256,uint256)[])": {
        "notice": "emitted when user borrow configs are updated"
      },
      "LogUpdateUserClasses((address,uint256)[])": {
        "notice": "emitted when user classes are updated"
      },
      "LogUpdateUserSupplyConfigs((address,address,uint8,uint256,uint256,uint256)[])": {
        "notice": "emitted when user supply configs are updated"
      }
    },
    "kind": "user",
    "methods": {
      "changeStatus(uint256)": {
        "notice": "changes current status, e.g. for pausing or unpausing all user operations. Only callable by Auths."
      },
      "collectRevenue(address[])": {
        "notice": "collects revenue for tokens to configured revenueCollector address."
      },
      "pauseUser(address,address[],address[])": {
        "notice": "pause operations for a particular user in class 0 (class 1 users can't be paused by guardians). Only callable by Guardians."
      },
      "unpauseUser(address,address[],address[])": {
        "notice": "unpause operations for a particular user in class 0 (class 1 users can't be paused by guardians). Only callable by Guardians."
      },
      "updateAuths((address,bool)[])": {
        "notice": "adds/removes auths. Auths generally could be contracts which can have restricted actions defined on contract.         auths can be helpful in reducing governance overhead where it's not needed."
      },
      "updateExchangePrices(address[])": {
        "notice": "gets the current updated exchange prices for n tokens and updates all prices, rates related data in storage."
      },
      "updateGuardians((address,bool)[])": {
        "notice": "adds/removes guardians. Only callable by Governance."
      },
      "updateRateDataV1s((address,uint256,uint256,uint256,uint256)[])": {
        "notice": "update tokens rate data version 1. Only callable by Auths."
      },
      "updateRateDataV2s((address,uint256,uint256,uint256,uint256,uint256,uint256)[])": {
        "notice": "update tokens rate data version 2. Only callable by Auths."
      },
      "updateRevenueCollector(address)": {
        "notice": "changes the revenue collector address (contract that is sent revenue). Only callable by Governance."
      },
      "updateTokenConfigs((address,uint256,uint256,uint256)[])": {
        "notice": "updates token configs: fee charge on borrowers interest & storage update utilization threshold.         Only callable by Auths."
      },
      "updateUserBorrowConfigs((address,address,uint8,uint256,uint256,uint256,uint256)[])": {
        "notice": "setting user borrow configs per token basis. Eg: with interest or interest-free and automated limits.         Only callable by Auths."
      },
      "updateUserClasses((address,uint256)[])": {
        "notice": "updates user classes: 0 is for new protocols, 1 is for established protocols.         Only callable by Auths."
      },
      "updateUserSupplyConfigs((address,address,uint8,uint256,uint256,uint256)[])": {
        "notice": "sets user supply configs per token basis. Eg: with interest or interest-free and automated limits.         Only callable by Auths."
      }
    },
    "notice": "Fluid Liquidity auth protected methods to configure things such as: guardians, auths, governance, revenue, token configs, allowances etc. Accessibility of methods is restricted to Governance, Auths or Guardians. Governance is Auth & Governance by default",
    "version": 1
  },
  "storageLayout": {
    "storage": [
      {
        "astId": 17816,
        "contract": "contracts/liquidity/adminModule/main.sol:FluidLiquidityAdminModule",
        "label": "_revenueCollector",
        "offset": 0,
        "slot": "0",
        "type": "t_address"
      },
      {
        "astId": 17819,
        "contract": "contracts/liquidity/adminModule/main.sol:FluidLiquidityAdminModule",
        "label": "_status",
        "offset": 0,
        "slot": "1",
        "type": "t_uint256"
      },
      {
        "astId": 17824,
        "contract": "contracts/liquidity/adminModule/main.sol:FluidLiquidityAdminModule",
        "label": "_isAuth",
        "offset": 0,
        "slot": "2",
        "type": "t_mapping(t_address,t_uint256)"
      },
      {
        "astId": 17829,
        "contract": "contracts/liquidity/adminModule/main.sol:FluidLiquidityAdminModule",
        "label": "_isGuardian",
        "offset": 0,
        "slot": "3",
        "type": "t_mapping(t_address,t_uint256)"
      },
      {
        "astId": 17834,
        "contract": "contracts/liquidity/adminModule/main.sol:FluidLiquidityAdminModule",
        "label": "_userClass",
        "offset": 0,
        "slot": "4",
        "type": "t_mapping(t_address,t_uint256)"
      },
      {
        "astId": 17839,
        "contract": "contracts/liquidity/adminModule/main.sol:FluidLiquidityAdminModule",
        "label": "_exchangePricesAndConfig",
        "offset": 0,
        "slot": "5",
        "type": "t_mapping(t_address,t_uint256)"
      },
      {
        "astId": 17844,
        "contract": "contracts/liquidity/adminModule/main.sol:FluidLiquidityAdminModule",
        "label": "_rateData",
        "offset": 0,
        "slot": "6",
        "type": "t_mapping(t_address,t_uint256)"
      },
      {
        "astId": 17849,
        "contract": "contracts/liquidity/adminModule/main.sol:FluidLiquidityAdminModule",
        "label": "_totalAmounts",
        "offset": 0,
        "slot": "7",
        "type": "t_mapping(t_address,t_uint256)"
      },
      {
        "astId": 17856,
        "contract": "contracts/liquidity/adminModule/main.sol:FluidLiquidityAdminModule",
        "label": "_userSupplyData",
        "offset": 0,
        "slot": "8",
        "type": "t_mapping(t_address,t_mapping(t_address,t_uint256))"
      },
      {
        "astId": 17863,
        "contract": "contracts/liquidity/adminModule/main.sol:FluidLiquidityAdminModule",
        "label": "_userBorrowData",
        "offset": 0,
        "slot": "9",
        "type": "t_mapping(t_address,t_mapping(t_address,t_uint256))"
      },
      {
        "astId": 17867,
        "contract": "contracts/liquidity/adminModule/main.sol:FluidLiquidityAdminModule",
        "label": "_listedTokens",
        "offset": 0,
        "slot": "10",
        "type": "t_array(t_address)dyn_storage"
      },
      {
        "astId": 17872,
        "contract": "contracts/liquidity/adminModule/main.sol:FluidLiquidityAdminModule",
        "label": "_configs2",
        "offset": 0,
        "slot": "11",
        "type": "t_mapping(t_address,t_uint256)"
      }
    ],
    "types": {
      "t_address": {
        "encoding": "inplace",
        "label": "address",
        "numberOfBytes": "20"
      },
      "t_array(t_address)dyn_storage": {
        "base": "t_address",
        "encoding": "dynamic_array",
        "label": "address[]",
        "numberOfBytes": "32"
      },
      "t_mapping(t_address,t_mapping(t_address,t_uint256))": {
        "encoding": "mapping",
        "key": "t_address",
        "label": "mapping(address => mapping(address => uint256))",
        "numberOfBytes": "32",
        "value": "t_mapping(t_address,t_uint256)"
      },
      "t_mapping(t_address,t_uint256)": {
        "encoding": "mapping",
        "key": "t_address",
        "label": "mapping(address => uint256)",
        "numberOfBytes": "32",
        "value": "t_uint256"
      },
      "t_uint256": {
        "encoding": "inplace",
        "label": "uint256",
        "numberOfBytes": "32"
      }
    }
  }
}