{
  "address": "0xbFbf001Cd9797c917Ac73b8d60c68FeCa051bb70",
  "abi": [
    {
      "inputs": [
        {
          "internalType": "address",
          "name": "owner_",
          "type": "address"
        }
      ],
      "stateMutability": "nonpayable",
      "type": "constructor"
    },
    {
      "inputs": [],
      "name": "MiniDeployer__InvalidOperation",
      "type": "error"
    },
    {
      "anonymous": false,
      "inputs": [
        {
          "indexed": true,
          "internalType": "address",
          "name": "contractAddress",
          "type": "address"
        }
      ],
      "name": "LogContractDeployed",
      "type": "event"
    },
    {
      "anonymous": false,
      "inputs": [
        {
          "indexed": true,
          "internalType": "address",
          "name": "user",
          "type": "address"
        },
        {
          "indexed": true,
          "internalType": "address",
          "name": "newOwner",
          "type": "address"
        }
      ],
      "name": "OwnershipTransferred",
      "type": "event"
    },
    {
      "inputs": [
        {
          "internalType": "bytes",
          "name": "contractCode_",
          "type": "bytes"
        }
      ],
      "name": "deployContract",
      "outputs": [
        {
          "internalType": "address",
          "name": "contractAddress_",
          "type": "address"
        }
      ],
      "stateMutability": "nonpayable",
      "type": "function"
    },
    {
      "inputs": [],
      "name": "owner",
      "outputs": [
        {
          "internalType": "address",
          "name": "",
          "type": "address"
        }
      ],
      "stateMutability": "view",
      "type": "function"
    },
    {
      "inputs": [
        {
          "internalType": "address",
          "name": "newOwner",
          "type": "address"
        }
      ],
      "name": "transferOwnership",
      "outputs": [],
      "stateMutability": "nonpayable",
      "type": "function"
    }
  ],
  "transactionHash": "0xb2afb9da5cb84170712839f591a8e22d1706a9b2091a3dbb0fc47c87bab70aaa",
  "args": [
    "0x324c5Dc1fC42c7a4D43d92df1eBA58a54d13Bf2d"
  ],
  "numDeployments": 5,
  "bytecode": "0x608060405234801561001057600080fd5b506040516104f43803806104f483398101604081905261002f9161007e565b600080546001600160a01b0319166001600160a01b03831690811782556040518392907f8be0079c531659141344cd1fd0a4f28419497f9722a3daafe3b4186f6b6457e0908290a350506100ae565b60006020828403121561009057600080fd5b81516001600160a01b03811681146100a757600080fd5b9392505050565b610437806100bd6000396000f3fe608060405234801561001057600080fd5b50600436106100415760003560e01c8063798133dd146100465780638da5cb5b14610082578063f2fde38b146100a2575b600080fd5b610059610054366004610352565b6100b7565b60405173ffffffffffffffffffffffffffffffffffffffff909116815260200160405180910390f35b6000546100599073ffffffffffffffffffffffffffffffffffffffff1681565b6100b56100b03660046103c4565b6101c7565b005b6000805473ffffffffffffffffffffffffffffffffffffffff16331461013e576040517f08c379a000000000000000000000000000000000000000000000000000000000815260206004820152600c60248201527f554e415554484f52495a4544000000000000000000000000000000000000000060448201526064015b60405180910390fd5b61017d83838080601f0160208091040260200160405190810160405280939291908181526020018383808284376000920191909152506102b892505050565b60405190915073ffffffffffffffffffffffffffffffffffffffff8216907ff40020e78c6e173ba88aa2c344ed520fab87fe67b9e5aa34626af9d86a3cd47b90600090a292915050565b60005473ffffffffffffffffffffffffffffffffffffffff163314610248576040517f08c379a000000000000000000000000000000000000000000000000000000000815260206004820152600c60248201527f554e415554484f52495a454400000000000000000000000000000000000000006044820152606401610135565b600080547fffffffffffffffffffffffff00000000000000000000000000000000000000001673ffffffffffffffffffffffffffffffffffffffff83169081178255604051909133917f8be0079c531659141344cd1fd0a4f28419497f9722a3daafe3b4186f6b6457e09190a350565b600081516000036102f5576040517f830297c900000000000000000000000000000000000000000000000000000000815260040160405180910390fd5b8151602083016000f0905073ffffffffffffffffffffffffffffffffffffffff811661034d576040517f830297c900000000000000000000000000000000000000000000000000000000815260040160405180910390fd5b919050565b6000806020838503121561036557600080fd5b823567ffffffffffffffff8082111561037d57600080fd5b818501915085601f83011261039157600080fd5b8135818111156103a057600080fd5b8660208285010111156103b257600080fd5b60209290920196919550909350505050565b6000602082840312156103d657600080fd5b813573ffffffffffffffffffffffffffffffffffffffff811681146103fa57600080fd5b939250505056fea26469706673582212201bc75243187841bf004ccfd8c2e19e986902002ceb1c8c6119f0fb68cfeed79364736f6c63430008150033"
}