{
  "address": "0xc0aaB32BD6258773b43c0dC8E2049C6a4960c488",
  "abi": [
    {
      "inputs": [
        {
          "components": [
            {
              "internalType": "string",
              "name": "infoName",
              "type": "string"
            },
            {
              "internalType": "uint8",
              "name": "targetDecimals",
              "type": "uint8"
            },
            {
              "internalType": "address",
              "name": "dexPool",
              "type": "address"
            },
            {
              "internalType": "bool",
              "name": "quoteInToken0",
              "type": "bool"
            },
            {
              "internalType": "contract IFluidOracle",
              "name": "colDebtOracle",
              "type": "address"
            },
            {
              "internalType": "bool",
              "name": "colDebtInvert",
              "type": "bool"
            },
            {
              "internalType": "uint256",
              "name": "pegBufferPercent",
              "type": "uint256"
            },
            {
              "components": [
                {
                  "internalType": "address",
                  "name": "reservesConversionOracle",
                  "type": "address"
                },
                {
                  "internalType": "bool",
                  "name": "reservesConversionInvert",
                  "type": "bool"
                },
                {
                  "internalType": "uint256",
                  "name": "reservesConversionPriceMultiplier",
                  "type": "uint256"
                },
                {
                  "internalType": "uint256",
                  "name": "reservesConversionPriceDivisor",
                  "type": "uint256"
                }
              ],
              "internalType": "struct DexConversionPriceFluidOracle.DexConversionPriceFluidOracleParams",
              "name": "reservesConversionParams",
              "type": "tuple"
            },
            {
              "internalType": "uint256",
              "name": "resultMultiplier",
              "type": "uint256"
            },
            {
              "internalType": "uint256",
              "name": "resultDivisor",
              "type": "uint256"
            }
          ],
          "internalType": "struct DexSmartDebtPegOracle.DexSmartDebtPegOracleParams",
          "name": "params_",
          "type": "tuple"
        }
      ],
      "stateMutability": "nonpayable",
      "type": "constructor"
    },
    {
      "inputs": [
        {
          "internalType": "uint256",
          "name": "errorId_",
          "type": "uint256"
        }
      ],
      "name": "FluidLiquidityCalcsError",
      "type": "error"
    },
    {
      "inputs": [
        {
          "internalType": "uint256",
          "name": "errorId_",
          "type": "uint256"
        }
      ],
      "name": "FluidOracleError",
      "type": "error"
    },
    {
      "inputs": [],
      "name": "RESERVES_PEG_BUFFER_PERCENT",
      "outputs": [
        {
          "internalType": "uint256",
          "name": "",
          "type": "uint256"
        }
      ],
      "stateMutability": "view",
      "type": "function"
    },
    {
      "inputs": [],
      "name": "dexOracleData",
      "outputs": [
        {
          "internalType": "address",
          "name": "dexPool_",
          "type": "address"
        },
        {
          "internalType": "bool",
          "name": "quoteInToken0_",
          "type": "bool"
        },
        {
          "internalType": "address",
          "name": "liquidity_",
          "type": "address"
        },
        {
          "internalType": "uint256",
          "name": "resultMultiplier_",
          "type": "uint256"
        },
        {
          "internalType": "uint256",
          "name": "resultDivisor_",
          "type": "uint256"
        }
      ],
      "stateMutability": "view",
      "type": "function"
    },
    {
      "inputs": [],
      "name": "dexSmartDebtSharesRates",
      "outputs": [
        {
          "internalType": "uint256",
          "name": "operate_",
          "type": "uint256"
        },
        {
          "internalType": "uint256",
          "name": "liquidate_",
          "type": "uint256"
        }
      ],
      "stateMutability": "view",
      "type": "function"
    },
    {
      "inputs": [],
      "name": "getDexColDebtOracleData",
      "outputs": [
        {
          "internalType": "address",
          "name": "colDebtOracle_",
          "type": "address"
        },
        {
          "internalType": "bool",
          "name": "colDebtInvert_",
          "type": "bool"
        }
      ],
      "stateMutability": "view",
      "type": "function"
    },
    {
      "inputs": [],
      "name": "getDexConversionPriceFluidOracleData",
      "outputs": [
        {
          "internalType": "address",
          "name": "reservesConversionOracle_",
          "type": "address"
        },
        {
          "internalType": "bool",
          "name": "reservesConversionInvert_",
          "type": "bool"
        },
        {
          "internalType": "uint256",
          "name": "reservesConversionPriceMultiplier_",
          "type": "uint256"
        },
        {
          "internalType": "uint256",
          "name": "reservesConversionPriceDivisor_",
          "type": "uint256"
        }
      ],
      "stateMutability": "view",
      "type": "function"
    },
    {
      "inputs": [],
      "name": "getExchangeRate",
      "outputs": [
        {
          "internalType": "uint256",
          "name": "exchangeRate_",
          "type": "uint256"
        }
      ],
      "stateMutability": "view",
      "type": "function"
    },
    {
      "inputs": [],
      "name": "getExchangeRateLiquidate",
      "outputs": [
        {
          "internalType": "uint256",
          "name": "exchangeRate_",
          "type": "uint256"
        }
      ],
      "stateMutability": "view",
      "type": "function"
    },
    {
      "inputs": [],
      "name": "getExchangeRateOperate",
      "outputs": [
        {
          "internalType": "uint256",
          "name": "exchangeRate_",
          "type": "uint256"
        }
      ],
      "stateMutability": "view",
      "type": "function"
    },
    {
      "inputs": [],
      "name": "infoName",
      "outputs": [
        {
          "internalType": "string",
          "name": "",
          "type": "string"
        }
      ],
      "stateMutability": "view",
      "type": "function"
    },
    {
      "inputs": [],
      "name": "targetDecimals",
      "outputs": [
        {
          "internalType": "uint8",
          "name": "",
          "type": "uint8"
        }
      ],
      "stateMutability": "view",
      "type": "function"
    }
  ],
  "transactionHash": "0xd6e35d93e06ec95b88162c299ede887474ef89d14ed489526b339da8546fa029",
  "args": [
    [
      {
        "dexPool": "0x3C0441B42195F4aD6aa9a0978E06096ea616CDa7",
        "quoteInToken0": false,
        "infoName": "USDC-T dbtSh /1 USDE-USDT colSh",
        "targetDecimals": 27,
        "pegBufferPercent": 1000,
        "reservesConversionParams": {
          "reservesConversionOracle": "0x0000000000000000000000000000000000000000",
          "reservesConversionInvert": false,
          "reservesConversionPriceMultiplier": 1,
          "reservesConversionPriceDivisor": 1
        },
        "resultMultiplier": 1,
        "resultDivisor": 1,
        "colDebtOracle": "0xEbE148834F3f046ae64CF1247F5d9a2d5a4ABDd1",
        "colDebtInvert": false
      }
    ]
  ],
  "numDeployments": 1,
  "linkedData": {
    "nonce": "77"
  },
  "bytecode": "0x6103806040523480156200001257600080fd5b5060405162001fbf38038062001fbf8339810160408190526200003591620005c4565b806040015181606001518260c0015182828560e0015186608001518760a0015184848a600001518b602001518c61010001518d6101200151816000146200007d578162000080565b60015b608052801562000091578062000094565b60015b60a0525050815160201080620000a957508151155b15620000d15760405163c82fc46560e01b815261ea6a60048201526024015b60405180910390fd5b600f8160ff161080620000e7575060278160ff16115b156200010b5760405163c82fc46560e01b815261ebf16004820152602401620000c8565b60ff1660e0526020015160c0526001600160a01b038216620001455760405163c82fc46560e01b815261ebdd6004820152602401620000c8565b6001600160a01b0382166101008190528115156101205260408051635bbc8df960e11b815290516000929163b7791bf2916004808301926102409291908290030181865afa1580156200019c573d6000803e3d6000fd5b505050506040513d601f19601f82011682018060405250810190620001c2919062000779565b610160808201516101c052610180808301516101e05260e083015161014090815261012084015190925261010080840151909152908201516101a0525160408051631595cbd360e01b815290519293506000926001600160a01b0390921691631595cbd3916004808201926080929091908290030181865afa1580156200024d573d6000803e3d6000fd5b505050506040513d601f19601f820116820180604052508101906200027391906200086f565b80516102005260208101516102205260408101516102405260600151610260525050610120519150620002e19050576102405161026051620002bb9064e8d4a51000620008b8565b620002c79190620008e4565b620002db90670de0b6b3a7640000620008e4565b6200031a565b6102005161022051620002fa9064e8d4a51000620008b8565b620003069190620008e4565b6200031a90670de0b6b3a7640000620008e4565b610280526001600160a01b039091166102a05215156102c052604081015115806200034757506060810151155b156200036b5760405163c82fc46560e01b815261ebdd6004820152602401620000c8565b80516001600160a01b03166102e0526020810151151561030052604081015161032052606001516103405250506000819003620003c05760405163c82fc46560e01b815261ebdd6004820152602401620000c8565b610360525062000907915050565b634e487b7160e01b600052604160045260246000fd5b604051608081016001600160401b0381118282101715620004095762000409620003ce565b60405290565b60405161014081016001600160401b0381118282101715620004095762000409620003ce565b6040516101c081016001600160401b0381118282101715620004095762000409620003ce565b604051601f8201601f191681016001600160401b0381118282101715620004865762000486620003ce565b604052919050565b600082601f830112620004a057600080fd5b81516001600160401b03811115620004bc57620004bc620003ce565b6020620004d2601f8301601f191682016200045b565b8281528582848701011115620004e757600080fd5b60005b8381101562000507578581018301518282018401528201620004ea565b506000928101909101919091529392505050565b805160ff811681146200052d57600080fd5b919050565b6001600160a01b03811681146200054857600080fd5b50565b80516200052d8162000532565b805180151581146200052d57600080fd5b6000608082840312156200057c57600080fd5b62000586620003e4565b90508151620005958162000532565b8152620005a56020830162000558565b6020820152604082015160408201526060820151606082015292915050565b600060208284031215620005d757600080fd5b81516001600160401b0380821115620005ef57600080fd5b908301906101a082860312156200060557600080fd5b6200060f6200040f565b8251828111156200061f57600080fd5b6200062d878286016200048e565b8252506200063e602084016200051b565b602082015262000651604084016200054b565b6040820152620006646060840162000558565b606082015262000677608084016200054b565b60808201526200068a60a0840162000558565b60a082015260c083015160c0820152620006a88660e0850162000569565b60e082015261016083015161010082015261018090920151610120830152509392505050565b600060a08284031215620006e157600080fd5b60405160a081016001600160401b0381118282101715620007065762000706620003ce565b806040525080915082516200071b8162000532565b815260208301516200072d8162000532565b60208201526040830151620007428162000532565b60408201526060830151620007578162000532565b606082015260808301516200076c8162000532565b6080919091015292915050565b600061024082840312156200078d57600080fd5b6200079762000435565b82518152620007a9602084016200054b565b6020820152620007bc604084016200054b565b6040820152620007d08460608501620006ce565b6060820152610100620007e58185016200054b565b6080830152610120620007fa8186016200054b565b60a08401526101406200080f8187016200054b565b60c08501526101608087015160e086015261018080880151858701526101a0945084880151848701526101c0880151838701526101e088015182870152610200880151818701525050505061022084015181830152508091505092915050565b6000608082840312156200088257600080fd5b6200088c620003e4565b825181526020830151602082015260408301516040820152606083015160608201528091505092915050565b8082028115828204841417620008de57634e487b7160e01b600052601160045260246000fd5b92915050565b6000826200090257634e487b7160e01b600052601260045260246000fd5b500490565b60805160a05160c05160e05161010051610120516101405161016051610180516101a0516101c0516101e05161020051610220516102405161026051610280516102a0516102c0516102e051610300516103205161034051610360516114ed62000ad26000396000818161028e0152818161066401526106a8015260008181610128015281816107370152610b4c015260008181610107015281816107580152610b6d01526000818160e6015261081e01526000818160c5015281816106eb0152818161077901528181610b000152610b8e0152600081816103470152610ab7015260008181610323015281816109da01528181610a2601528181610bfb0152610c4701526000610985015260008181610e740152611014015260008181610e500152611035015260008181610deb015261106b015260008181610dc7015261108c01526000610d2701526000610cd901526000610d0601526000610cb801526000505060005050600081816101f30152610d510152600081816101cf01526108ab0152600061018a01526000818161046a015261052f01526000818161025d0152818161039f01526105f1015260008181610237015281816103d2015261062401526114ed6000f3fe608060405234801561001057600080fd5b50600436106100be5760003560e01c806396aa229c11610076578063e6aa216c1161005b578063e6aa216c146102f8578063f3190c8914610300578063fa9a98e61461030857600080fd5b806396aa229c146102c6578063abd5f95d146102e357600080fd5b8063585eebbf116100a7578063585eebbf146101b457806364bba885146102895780638e7bfbc0146102be57600080fd5b806304741a5a146100c357806336c1387e14610183575b600080fd5b7f00000000000000000000000000000000000000000000000000000000000000007f00000000000000000000000000000000000000000000000000000000000000007f00000000000000000000000000000000000000000000000000000000000000007f00000000000000000000000000000000000000000000000000000000000000006040805173ffffffffffffffffffffffffffffffffffffffff909516855292151560208501529183015260608201526080015b60405180910390f35b60405160ff7f000000000000000000000000000000000000000000000000000000000000000016815260200161017a565b6040805173ffffffffffffffffffffffffffffffffffffffff7f00000000000000000000000000000000000000000000000000000000000000001681527f0000000000000000000000000000000000000000000000000000000000000000151560208201527352aa899454998be5b000ad077a46bbe360f4e497918101919091527f000000000000000000000000000000000000000000000000000000000000000060608201527f0000000000000000000000000000000000000000000000000000000000000000608082015260a00161017a565b6102b07f000000000000000000000000000000000000000000000000000000000000000081565b60405190815260200161017a565b6102b0610373565b6102ce61041f565b6040805192835260208301919091520161017a565b6102eb610458565b60405161017a91906112d3565b6102b06105bd565b6102b06105cc565b6040805173ffffffffffffffffffffffffffffffffffffffff7f00000000000000000000000000000000000000000000000000000000000000001681527f0000000000000000000000000000000000000000000000000000000000000000151560208201520161017a565b600080600061038061064b565b9150915060006103986103916106e7565b8484610866565b90506103d07f00000000000000000000000000000000000000000000000000000000000000006b033b2e3c9fd0803ce800000061136e565b7f00000000000000000000000000000000000000000000000000000000000000006103f96109d6565b610403908461136e565b61040d919061136e565b61041791906113ba565b935050505090565b60008060008061042d61064b565b9150915061044361043c6106e7565b8383610866565b61044e610391610afc565b9350935050509091565b606060005b6020811080156104c357507f0000000000000000000000000000000000000000000000000000000000000000816020811061049a5761049a6113f5565b1a60f81b7fff000000000000000000000000000000000000000000000000000000000000001615155b156104da57806104d281611424565b91505061045d565b60008167ffffffffffffffff8111156104f5576104f561145c565b6040519080825280601f01601f19166020018201604052801561051f576020820181803683370190505b50905060005b828110156105b6577f0000000000000000000000000000000000000000000000000000000000000000816020811061055f5761055f6113f5565b1a60f81b828281518110610575576105756113f5565b60200101907effffffffffffffffffffffffffffffffffffffffffffffffffffffffffffff1916908160001a905350806105ae81611424565b915050610525565b5092915050565b60006105c7610373565b905090565b60008060006105d961064b565b9150915060006105ea610391610afc565b90506106227f00000000000000000000000000000000000000000000000000000000000000006b033b2e3c9fd0803ce800000061136e565b7f00000000000000000000000000000000000000000000000000000000000000006103f9610bf7565b600080610656610cb0565b9092509050620f42406106897f00000000000000000000000000000000000000000000000000000000000000008261148b565b610693908461136e565b61069d91906113ba565b9150620f42406106cd7f00000000000000000000000000000000000000000000000000000000000000008261148b565b6106d7908361136e565b6106e191906113ba565b90509091565b60007f000000000000000000000000000000000000000000000000000000000000000073ffffffffffffffffffffffffffffffffffffffff1661073557506b033b2e3c9fd0803ce800000090565b7f00000000000000000000000000000000000000000000000000000000000000007f00000000000000000000000000000000000000000000000000000000000000007f000000000000000000000000000000000000000000000000000000000000000073ffffffffffffffffffffffffffffffffffffffff16638e7bfbc06040518163ffffffff1660e01b8152600401602060405180830381865afa1580156107e2573d6000803e3d6000fd5b505050506040513d601f19601f82011682018060405250810190610806919061149e565b610810919061136e565b61081a91906113ba565b90507f000000000000000000000000000000000000000000000000000000000000000015610863576105c781760a70c3c40a64e6c51999090b65f67d92400000000000006113ba565b90565b6040517fb5c736e400000000000000000000000000000000000000000000000000000000815260048082015260009081906fffffffffffffffffffffffffffffffff907f000000000000000000000000000000000000000000000000000000000000000073ffffffffffffffffffffffffffffffffffffffff169063b5c736e490602401602060405180830381865afa158015610907573d6000803e3d6000fd5b505050506040513d601f19601f8201168201806040525081019061092b919061149e565b16905080600003610971576040517fc82fc46500000000000000000000000000000000000000000000000000000000815261ebb660048201526024015b60405180910390fd5b600061097e868686610d4d565b90506109aa7f00000000000000000000000000000000000000000000000000000000000000008261136e565b6109c0836b033b2e3c9fd0803ce800000061136e565b6109ca91906113ba565b925050505b9392505050565b60007f000000000000000000000000000000000000000000000000000000000000000073ffffffffffffffffffffffffffffffffffffffff16610a2457506b033b2e3c9fd0803ce800000090565b7f000000000000000000000000000000000000000000000000000000000000000073ffffffffffffffffffffffffffffffffffffffff16638e7bfbc06040518163ffffffff1660e01b8152600401602060405180830381865afa158015610a8f573d6000803e3d6000fd5b505050506040513d601f19601f82011682018060405250810190610ab3919061149e565b90507f000000000000000000000000000000000000000000000000000000000000000015610863576105c781760a70c3c40a64e6c51999090b65f67d92400000000000006113ba565b60007f000000000000000000000000000000000000000000000000000000000000000073ffffffffffffffffffffffffffffffffffffffff16610b4a57506b033b2e3c9fd0803ce800000090565b7f00000000000000000000000000000000000000000000000000000000000000007f00000000000000000000000000000000000000000000000000000000000000007f000000000000000000000000000000000000000000000000000000000000000073ffffffffffffffffffffffffffffffffffffffff1663f3190c896040518163ffffffff1660e01b8152600401602060405180830381865afa1580156107e2573d6000803e3d6000fd5b60007f000000000000000000000000000000000000000000000000000000000000000073ffffffffffffffffffffffffffffffffffffffff16610c4557506b033b2e3c9fd0803ce800000090565b7f000000000000000000000000000000000000000000000000000000000000000073ffffffffffffffffffffffffffffffffffffffff1663f3190c896040518163ffffffff1660e01b8152600401602060405180830381865afa158015610a8f573d6000803e3d6000fd5b600080610cff7f00000000000000000000000000000000000000000000000000000000000000007f00000000000000000000000000000000000000000000000000000000000000006001610eab565b91506106e17f00000000000000000000000000000000000000000000000000000000000000007f00000000000000000000000000000000000000000000000000000000000000006000610eab565b60007f000000000000000000000000000000000000000000000000000000000000000015610e2157610d9684760a70c3c40a64e6c51999090b65f67d92400000000000006113ba565b93506b033b2e3c9fd0803ce8000000610daf858461136e565b610db991906113ba565b610dc3908461148b565b90507f0000000000000000000000000000000000000000000000000000000000000000610e107f00000000000000000000000000000000000000000000000000000000000000008361136e565b610e1a91906113ba565b90506109cf565b6b033b2e3c9fd0803ce8000000610e38858561136e565b610e4291906113ba565b610e4c908361148b565b90507f0000000000000000000000000000000000000000000000000000000000000000610e997f00000000000000000000000000000000000000000000000000000000000000008361136e565b610ea391906113ba565b949350505050565b6040517fb5c736e40000000000000000000000000000000000000000000000000000000081526004810184905260009081907352aa899454998be5b000ad077a46bbe360f4e4979063b5c736e490602401602060405180830381865afa158015610f19573d6000803e3d6000fd5b505050506040513d601f19601f82011682018060405250810190610f3d919061149e565b6040517fb5c736e400000000000000000000000000000000000000000000000000000000815260048101869052600982901c66ffffffffffffff16600183901c60ff161b9350909150600090610ff2907352aa899454998be5b000ad077a46bbe360f4e4979063b5c736e490602401602060405180830381865afa158015610fc9573d6000803e3d6000fd5b505050506040513d601f19601f82011682018060405250810190610fed919061149e565b6110c5565b9150508160011660010361100d5764e8d4a510008382020492505b83611069577f00000000000000000000000000000000000000000000000000000000000000007f00000000000000000000000000000000000000000000000000000000000000008402816110635761106361138b565b046109ca565b7f00000000000000000000000000000000000000000000000000000000000000007f00000000000000000000000000000000000000000000000000000000000000008402816110ba576110ba61138b565b049695505050505050565b67ffffffffffffffff605b82901c811690609b83901c168115806110e7575080155b15611123576040517fd50d7512000000000000000000000000000000000000000000000000000000008152620111716004820152602401610968565b61ffff8316603a84901c6401ffffffff16428181039160ea87901c617fff1691148061114d575082155b806111585750806001145b1561116557505050915091565b64496cebb80084840283020484019350617fff60db87901c1692508260010361119057505050915091565b826001166001036111e55760019290921c91826c7e37be2022c0914b2680000000816111be576111be61138b565b049250612710601e87901c613fff166b033b2e3c9fd0803ce8000000850102049250611212565b60019290921c916305f5e100601e87901c613fff166127108501026b033b2e3c9fd0803ce8000000020492505b806001166001036112495760011c61271081016b033b2e3c9fd0803ce80000008202816112415761124161138b565b04905061127f565b60011c61271081016b033b2e3c9fd0803ce800000082028161126d5761126d61138b565b046b033b2e3c9fd0803ce80000000390505b760a70c3c40a64e6c51999090b65f67d92400000000000008382026127100261ffff881691900402601087901c613fff16612710030292506801b5a660ea44b8000085840283020485019450505050915091565b600060208083528351808285015260005b81811015611300578581018301518582016040015282016112e4565b5060006040828601015260407fffffffffffffffffffffffffffffffffffffffffffffffffffffffffffffffe0601f8301168501019250505092915050565b7f4e487b7100000000000000000000000000000000000000000000000000000000600052601160045260246000fd5b80820281158282048414176113855761138561133f565b92915050565b7f4e487b7100000000000000000000000000000000000000000000000000000000600052601260045260246000fd5b6000826113f0577f4e487b7100000000000000000000000000000000000000000000000000000000600052601260045260246000fd5b500490565b7f4e487b7100000000000000000000000000000000000000000000000000000000600052603260045260246000fd5b60007fffffffffffffffffffffffffffffffffffffffffffffffffffffffffffffffff82036114555761145561133f565b5060010190565b7f4e487b7100000000000000000000000000000000000000000000000000000000600052604160045260246000fd5b808201808211156113855761138561133f565b6000602082840312156114b057600080fd5b505191905056fea26469706673582212203e7dd44ea65322e0f2a55ea6af90d56e1572c34ddf00a20bc81d4378e446581464736f6c63430008150033"
}