{
  "address": "0xD5e549F00207d5F5796867Dad1ad635D903Aa002",
  "abi": [
    {
      "inputs": [
        {
          "internalType": "address",
          "name": "dexFactory_",
          "type": "address"
        },
        {
          "internalType": "address",
          "name": "liquidity_",
          "type": "address"
        },
        {
          "internalType": "address",
          "name": "owner_",
          "type": "address"
        }
      ],
      "stateMutability": "nonpayable",
      "type": "constructor"
    },
    {
      "inputs": [
        {
          "internalType": "uint256",
          "name": "errorId_",
          "type": "uint256"
        }
      ],
      "name": "FluidDexError",
      "type": "error"
    },
    {
      "inputs": [
        {
          "internalType": "uint256",
          "name": "errorId",
          "type": "uint256"
        }
      ],
      "name": "FluidDexFactoryError",
      "type": "error"
    },
    {
      "inputs": [
        {
          "internalType": "uint256",
          "name": "shares_",
          "type": "uint256"
        }
      ],
      "name": "FluidDexLiquidityOutput",
      "type": "error"
    },
    {
      "inputs": [
        {
          "internalType": "uint256",
          "name": "token0Amt",
          "type": "uint256"
        },
        {
          "internalType": "uint256",
          "name": "token1Amt",
          "type": "uint256"
        }
      ],
      "name": "FluidDexPerfectLiquidityOutput",
      "type": "error"
    },
    {
      "inputs": [
        {
          "components": [
            {
              "internalType": "uint256",
              "name": "lastStoredPrice",
              "type": "uint256"
            },
            {
              "internalType": "uint256",
              "name": "centerPrice",
              "type": "uint256"
            },
            {
              "internalType": "uint256",
              "name": "upperRange",
              "type": "uint256"
            },
            {
              "internalType": "uint256",
              "name": "lowerRange",
              "type": "uint256"
            },
            {
              "internalType": "uint256",
              "name": "geometricMean",
              "type": "uint256"
            },
            {
              "internalType": "uint256",
              "name": "supplyToken0ExchangePrice",
              "type": "uint256"
            },
            {
              "internalType": "uint256",
              "name": "borrowToken0ExchangePrice",
              "type": "uint256"
            },
            {
              "internalType": "uint256",
              "name": "supplyToken1ExchangePrice",
              "type": "uint256"
            },
            {
              "internalType": "uint256",
              "name": "borrowToken1ExchangePrice",
              "type": "uint256"
            }
          ],
          "internalType": "struct Structs.PricesAndExchangePrice",
          "name": "pex_",
          "type": "tuple"
        }
      ],
      "name": "FluidDexPricesAndExchangeRates",
      "type": "error"
    },
    {
      "inputs": [
        {
          "internalType": "uint256",
          "name": "tokenAmt",
          "type": "uint256"
        }
      ],
      "name": "FluidDexSingleTokenOutput",
      "type": "error"
    },
    {
      "inputs": [
        {
          "internalType": "uint256",
          "name": "amountOut",
          "type": "uint256"
        }
      ],
      "name": "FluidDexSwapResult",
      "type": "error"
    },
    {
      "inputs": [
        {
          "internalType": "uint256",
          "name": "errorId_",
          "type": "uint256"
        }
      ],
      "name": "FluidSmartLendingError",
      "type": "error"
    },
    {
      "inputs": [
        {
          "internalType": "uint256",
          "name": "errorId_",
          "type": "uint256"
        }
      ],
      "name": "FluidSmartLendingFactoryError",
      "type": "error"
    },
    {
      "anonymous": false,
      "inputs": [
        {
          "indexed": false,
          "internalType": "address",
          "name": "smartLending",
          "type": "address"
        },
        {
          "indexed": false,
          "internalType": "address",
          "name": "auth",
          "type": "address"
        },
        {
          "indexed": false,
          "internalType": "bool",
          "name": "allowed",
          "type": "bool"
        }
      ],
      "name": "LogAuthUpdated",
      "type": "event"
    },
    {
      "anonymous": false,
      "inputs": [
        {
          "indexed": false,
          "internalType": "address",
          "name": "deployer",
          "type": "address"
        },
        {
          "indexed": false,
          "internalType": "bool",
          "name": "allowed",
          "type": "bool"
        }
      ],
      "name": "LogDeployerUpdated",
      "type": "event"
    },
    {
      "anonymous": false,
      "inputs": [
        {
          "indexed": false,
          "internalType": "address",
          "name": "creationCodePointer",
          "type": "address"
        }
      ],
      "name": "LogSetCreationCode",
      "type": "event"
    },
    {
      "anonymous": false,
      "inputs": [
        {
          "indexed": false,
          "internalType": "uint256",
          "name": "dexId",
          "type": "uint256"
        },
        {
          "indexed": false,
          "internalType": "address",
          "name": "smartLending",
          "type": "address"
        }
      ],
      "name": "LogSmartLendingDeployed",
      "type": "event"
    },
    {
      "anonymous": false,
      "inputs": [
        {
          "indexed": true,
          "internalType": "address",
          "name": "user",
          "type": "address"
        },
        {
          "indexed": true,
          "internalType": "address",
          "name": "newOwner",
          "type": "address"
        }
      ],
      "name": "OwnershipTransferred",
      "type": "event"
    },
    {
      "inputs": [],
      "name": "DEX_FACTORY",
      "outputs": [
        {
          "internalType": "address",
          "name": "",
          "type": "address"
        }
      ],
      "stateMutability": "view",
      "type": "function"
    },
    {
      "inputs": [],
      "name": "LIQUIDITY",
      "outputs": [
        {
          "internalType": "address",
          "name": "",
          "type": "address"
        }
      ],
      "stateMutability": "view",
      "type": "function"
    },
    {
      "inputs": [],
      "name": "allTokens",
      "outputs": [
        {
          "internalType": "address[]",
          "name": "",
          "type": "address[]"
        }
      ],
      "stateMutability": "view",
      "type": "function"
    },
    {
      "inputs": [
        {
          "internalType": "uint256",
          "name": "",
          "type": "uint256"
        }
      ],
      "name": "createdTokens",
      "outputs": [
        {
          "internalType": "address",
          "name": "",
          "type": "address"
        }
      ],
      "stateMutability": "view",
      "type": "function"
    },
    {
      "inputs": [
        {
          "internalType": "uint256",
          "name": "dexId_",
          "type": "uint256"
        }
      ],
      "name": "deploy",
      "outputs": [
        {
          "internalType": "address",
          "name": "smartLending_",
          "type": "address"
        }
      ],
      "stateMutability": "nonpayable",
      "type": "function"
    },
    {
      "inputs": [
        {
          "internalType": "address",
          "name": "deployer_",
          "type": "address"
        }
      ],
      "name": "isDeployer",
      "outputs": [
        {
          "internalType": "bool",
          "name": "",
          "type": "bool"
        }
      ],
      "stateMutability": "view",
      "type": "function"
    },
    {
      "inputs": [
        {
          "internalType": "address",
          "name": "smartLending_",
          "type": "address"
        },
        {
          "internalType": "address",
          "name": "auth_",
          "type": "address"
        }
      ],
      "name": "isSmartLendingAuth",
      "outputs": [
        {
          "internalType": "bool",
          "name": "",
          "type": "bool"
        }
      ],
      "stateMutability": "view",
      "type": "function"
    },
    {
      "inputs": [],
      "name": "owner",
      "outputs": [
        {
          "internalType": "address",
          "name": "",
          "type": "address"
        }
      ],
      "stateMutability": "view",
      "type": "function"
    },
    {
      "inputs": [
        {
          "internalType": "bytes",
          "name": "creationCode_",
          "type": "bytes"
        }
      ],
      "name": "setSmartLendingCreationCode",
      "outputs": [],
      "stateMutability": "nonpayable",
      "type": "function"
    },
    {
      "inputs": [
        {
          "internalType": "uint256",
          "name": "dexId",
          "type": "uint256"
        }
      ],
      "name": "smartLendingAddress",
      "outputs": [
        {
          "internalType": "address",
          "name": "",
          "type": "address"
        }
      ],
      "stateMutability": "view",
      "type": "function"
    },
    {
      "inputs": [],
      "name": "smartLendingCreationCode",
      "outputs": [
        {
          "internalType": "bytes",
          "name": "",
          "type": "bytes"
        }
      ],
      "stateMutability": "view",
      "type": "function"
    },
    {
      "inputs": [
        {
          "internalType": "address",
          "name": "target_",
          "type": "address"
        },
        {
          "internalType": "bytes",
          "name": "data_",
          "type": "bytes"
        }
      ],
      "name": "spell",
      "outputs": [
        {
          "internalType": "bytes",
          "name": "response_",
          "type": "bytes"
        }
      ],
      "stateMutability": "nonpayable",
      "type": "function"
    },
    {
      "inputs": [
        {
          "internalType": "address",
          "name": "newOwner",
          "type": "address"
        }
      ],
      "name": "transferOwnership",
      "outputs": [],
      "stateMutability": "nonpayable",
      "type": "function"
    },
    {
      "inputs": [
        {
          "internalType": "address",
          "name": "deployer_",
          "type": "address"
        },
        {
          "internalType": "bool",
          "name": "allowed_",
          "type": "bool"
        }
      ],
      "name": "updateDeployer",
      "outputs": [],
      "stateMutability": "nonpayable",
      "type": "function"
    },
    {
      "inputs": [
        {
          "internalType": "address",
          "name": "smartLending_",
          "type": "address"
        },
        {
          "internalType": "address",
          "name": "auth_",
          "type": "address"
        },
        {
          "internalType": "bool",
          "name": "allowed_",
          "type": "bool"
        }
      ],
      "name": "updateSmartLendingAuth",
      "outputs": [],
      "stateMutability": "nonpayable",
      "type": "function"
    }
  ],
  "transactionHash": "0xb253969cb013df80da80217ed13a8cc177b64a900d56cfe0354ddad1eeb79894",
  "args": [
    "0x91716C4EDA1Fb55e84Bf8b4c7085f84285c19085",
    "0x52Aa899454998Be5b000Ad077a46Bbe360F4e497",
    "0x4F6F977aCDD1177DCD81aB83074855EcB9C2D49e"
  ],
  "numDeployments": 1,
  "solcInputHash": "3e0a7006c2c4eba4de771e00ab58877f",
  "bytecode": "0x60c06040523480156200001157600080fd5b50604051620014f1380380620014f1833981016040819052620000349162000148565b600080546001600160a01b0319166001600160a01b038316908117825560405183928392917f8be0079c531659141344cd1fd0a4f28419497f9722a3daafe3b4186f6b6457e0908290a3508390506001600160a01b038116620000b357604051630ffe228f60e31b815261d6d960048201526024015b60405180910390fd5b826001600160a01b038116620000e157604051630ffe228f60e31b815261d6d96004820152602401620000aa565b826001600160a01b0381166200010f57604051630ffe228f60e31b815261d6d96004820152602401620000aa565b5050506001600160a01b0391821660a052501660805262000192565b80516001600160a01b03811681146200014357600080fd5b919050565b6000806000606084860312156200015e57600080fd5b62000169846200012b565b925062000179602085016200012b565b915062000189604085016200012b565b90509250925092565b60805160a05161132b620001c66000396000818161011401526107930152600081816101e301526107bd015261132b6000f3fe608060405234801561001057600080fd5b50600436106100f55760003560e01c806397b87b4a11610097578063c7acb01f11610066578063c7acb01f14610261578063d782d64714610281578063d7f67bc614610294578063f2fde38b1461029c57600080fd5b806397b87b4a146101de578063a5e3875114610205578063bb60604914610218578063bc69438b1461024e57600080fd5b80635449c62f116100d35780635449c62f146101835780636ff97f1d1461019657806373f15642146101ab5780638da5cb5b146101be57600080fd5b8063105125ae146100fa5780632861c7d11461010f57806350c358a414610160575b600080fd5b61010d610108366004610ec9565b6102af565b005b6101367f000000000000000000000000000000000000000000000000000000000000000081565b60405173ffffffffffffffffffffffffffffffffffffffff90911681526020015b60405180910390f35b61017361016e366004610f5f565b610434565b6040519015158152602001610157565b61010d610191366004610f8a565b610489565b61019e6105d4565b6040516101579190610fbd565b6101736101b9366004611017565b610643565b6000546101369073ffffffffffffffffffffffffffffffffffffffff1681565b6101367f000000000000000000000000000000000000000000000000000000000000000081565b610136610213366004611041565b6106a6565b610136610226366004611041565b60016020526000908152604090205473ffffffffffffffffffffffffffffffffffffffff1681565b61010d61025c36600461105a565b610907565b61027461026f3660046110cc565b610ac0565b60405161015791906111d0565b61013661028f366004611041565b610b8e565b610274610bc5565b61010d6102aa366004610f5f565b610bef565b60005473ffffffffffffffffffffffffffffffffffffffff163314610335576040517f08c379a000000000000000000000000000000000000000000000000000000000815260206004820152600c60248201527f554e415554484f52495a4544000000000000000000000000000000000000000060448201526064015b60405180910390fd5b6000819003610374576040517f7ff1147800000000000000000000000000000000000000000000000000000000815261d6dc600482015260240161032c565b60006103b583838080601f016020809104026020016040519081016040528093929190818152602001838380828437600092019190915250610ce092505050565b600580547fffffffffffffffffffffffff00000000000000000000000000000000000000001673ffffffffffffffffffffffffffffffffffffffff83169081179091556040519081529091507f902b62f4e405f95c1b616d8cc33a5452122cd5d5a341f1242ce5da8dab3c2bca906020015b60405180910390a1505050565b6000805473ffffffffffffffffffffffffffffffffffffffff83811691161480610483575073ffffffffffffffffffffffffffffffffffffffff82166000908152600360205260409020546001145b92915050565b60005473ffffffffffffffffffffffffffffffffffffffff16331461050a576040517f08c379a000000000000000000000000000000000000000000000000000000000815260206004820152600c60248201527f554e415554484f52495a45440000000000000000000000000000000000000000604482015260640161032c565b8173ffffffffffffffffffffffffffffffffffffffff811661055c576040517f7ff1147800000000000000000000000000000000000000000000000000000000815261d6d9600482015260240161032c565b8161056857600061056b565b60015b73ffffffffffffffffffffffffffffffffffffffff841660008181526003602090815260409182902060ff949094169093558051918252841515928201929092527f0a880b2891083d90efa91172b497e53eb2faad86633c299100717a57f50c71379101610427565b6060600480548060200260200160405190810160405280929190818152602001828054801561063957602002820191906000526020600020905b815473ffffffffffffffffffffffffffffffffffffffff16815260019091019060200180831161060e575b5050505050905090565b6000805473ffffffffffffffffffffffffffffffffffffffff8381169116148061069f575073ffffffffffffffffffffffffffffffffffffffff8084166000908152600260209081526040808320938616835292905220546001145b9392505050565b60006106b133610434565b6106eb576040517f7ff1147800000000000000000000000000000000000000000000000000000000815261d6da600482015260240161032c565b60008281526001602052604090205473ffffffffffffffffffffffffffffffffffffffff161561074b576040517f7ff1147800000000000000000000000000000000000000000000000000000000815261d6db600482015260240161032c565b60055461083e906107719073ffffffffffffffffffffffffffffffffffffffff16610db8565b604080516020810186905273ffffffffffffffffffffffffffffffffffffffff7f00000000000000000000000000000000000000000000000000000000000000008116928201929092527f000000000000000000000000000000000000000000000000000000000000000091909116606082015230608082015260a001604080517fffffffffffffffffffffffffffffffffffffffffffffffffffffffffffffffe08184030181529082905261082a9291602001611221565b604051602081830303815290604052610de6565b6004805460018082019092557f8a35acfbc15ff81a39ae7d344fd709f28e8600b4aa8c65c6b64bfe7fe36bd19b01805473ffffffffffffffffffffffffffffffffffffffff84167fffffffffffffffffffffffff0000000000000000000000000000000000000000918216811790925560008681526020938452604090819020805490921683179091558051868152928301919091529192507f270f50d287b972e1c708a5af88990bb4a1a5aa84c2ab6d05e0c388698497500e910160405180910390a1919050565b8273ffffffffffffffffffffffffffffffffffffffff8116610959576040517f7ff1147800000000000000000000000000000000000000000000000000000000815261d6d9600482015260240161032c565b8273ffffffffffffffffffffffffffffffffffffffff81166109ab576040517f7ff1147800000000000000000000000000000000000000000000000000000000815261d6d9600482015260240161032c565b60005473ffffffffffffffffffffffffffffffffffffffff163314610a2c576040517f08c379a000000000000000000000000000000000000000000000000000000000815260206004820152600c60248201527f554e415554484f52495a45440000000000000000000000000000000000000000604482015260640161032c565b82610a38576000610a3b565b60015b73ffffffffffffffffffffffffffffffffffffffff8681166000818152600260209081526040808320948a168084529482529182902060ff959095169094558051918252928101919091528415158183015290517fdb3c942df90b64cd34f82d72c916f3c55496a8380b9babeb0bd0d64ccb8a6e339181900360600190a15050505050565b60005460609073ffffffffffffffffffffffffffffffffffffffff163314610b44576040517f08c379a000000000000000000000000000000000000000000000000000000000815260206004820152600c60248201527f554e415554484f52495a45440000000000000000000000000000000000000000604482015260640161032c565b600080835160208501865af43d6040519250601f19601f6020830101168301604052808352806000602085013e811560018103610b8557816000803e816000fd5b50505092915050565b60048181548110610b9e57600080fd5b60009182526020909120015473ffffffffffffffffffffffffffffffffffffffff16905081565b600554606090610bea9073ffffffffffffffffffffffffffffffffffffffff16610db8565b905090565b60005473ffffffffffffffffffffffffffffffffffffffff163314610c70576040517f08c379a000000000000000000000000000000000000000000000000000000000815260206004820152600c60248201527f554e415554484f52495a45440000000000000000000000000000000000000000604482015260640161032c565b600080547fffffffffffffffffffffffff00000000000000000000000000000000000000001673ffffffffffffffffffffffffffffffffffffffff83169081178255604051909133917f8be0079c531659141344cd1fd0a4f28419497f9722a3daafe3b4186f6b6457e09190a350565b60008082604051602001610cf49190611250565b6040516020818303038152906040529050600081604051602001610d189190611276565b60405160208183030381529060405290508051602082016000f0925073ffffffffffffffffffffffffffffffffffffffff8316610db1576040517f08c379a000000000000000000000000000000000000000000000000000000000815260206004820152601160248201527f4445504c4f594d454e545f4641494c4544000000000000000000000000000000604482015260640161032c565b5050919050565b6060610483826001610de18173ffffffffffffffffffffffffffffffffffffffff84163b6112bb565b610e88565b60008151600003610e27576040517f2fee3e0e00000000000000000000000000000000000000000000000000000000815261d6dd600482015260240161032c565b8151602083016000f0905073ffffffffffffffffffffffffffffffffffffffff8116610e83576040517f2fee3e0e00000000000000000000000000000000000000000000000000000000815261d6dd600482015260240161032c565b919050565b60408051603f83017fffffffffffffffffffffffffffffffffffffffffffffffffffffffffffffffe0168101909152818152818360208301863c9392505050565b60008060208385031215610edc57600080fd5b823567ffffffffffffffff80821115610ef457600080fd5b818501915085601f830112610f0857600080fd5b813581811115610f1757600080fd5b866020828501011115610f2957600080fd5b60209290920196919550909350505050565b803573ffffffffffffffffffffffffffffffffffffffff81168114610e8357600080fd5b600060208284031215610f7157600080fd5b61069f82610f3b565b80358015158114610e8357600080fd5b60008060408385031215610f9d57600080fd5b610fa683610f3b565b9150610fb460208401610f7a565b90509250929050565b6020808252825182820181905260009190848201906040850190845b8181101561100b57835173ffffffffffffffffffffffffffffffffffffffff1683529284019291840191600101610fd9565b50909695505050505050565b6000806040838503121561102a57600080fd5b61103383610f3b565b9150610fb460208401610f3b565b60006020828403121561105357600080fd5b5035919050565b60008060006060848603121561106f57600080fd5b61107884610f3b565b925061108660208501610f3b565b915061109460408501610f7a565b90509250925092565b7f4e487b7100000000000000000000000000000000000000000000000000000000600052604160045260246000fd5b600080604083850312156110df57600080fd5b6110e883610f3b565b9150602083013567ffffffffffffffff8082111561110557600080fd5b818501915085601f83011261111957600080fd5b81358181111561112b5761112b61109d565b604051601f82017fffffffffffffffffffffffffffffffffffffffffffffffffffffffffffffffe0908116603f011681019083821181831017156111715761117161109d565b8160405282815288602084870101111561118a57600080fd5b8260208601602083013760006020848301015280955050505050509250929050565b60005b838110156111c75781810151838201526020016111af565b50506000910152565b60208152600082518060208401526111ef8160408501602087016111ac565b601f017fffffffffffffffffffffffffffffffffffffffffffffffffffffffffffffffe0169190910160400192915050565b600083516112338184602088016111ac565b8351908301906112478183602088016111ac565b01949350505050565b60008152600082516112698160018501602087016111ac565b9190910160010192915050565b7f600b5981380380925939f30000000000000000000000000000000000000000008152600082516112ae81600b8501602087016111ac565b91909101600b0192915050565b81810381811115610483577f4e487b7100000000000000000000000000000000000000000000000000000000600052601160045260246000fdfea2646970667358221220ee2ffab7d24cf39a94ff47671b9cd2b747cc0e33cb98565f13d0d44ba03ae8b764736f6c63430008150033",
  "devdoc": {
    "events": {
      "LogAuthUpdated(address,address,bool)": {
        "details": "Emitted when a SmartLending auth is updated",
        "params": {
          "allowed": "updated status of auth",
          "auth": "address of auth whose status is being updated",
          "smartLending": "address of SmartLending"
        }
      },
      "LogDeployerUpdated(address,bool)": {
        "details": "Emitted when a deployer is modified by owner",
        "params": {
          "allowed": "updated status of deployer",
          "deployer": "address of deployer"
        }
      },
      "LogSetCreationCode(address)": {
        "details": "Emitted when the smart lending creation code is modified by owner",
        "params": {
          "creationCodePointer": "address of the creation code pointer"
        }
      },
      "LogSmartLendingDeployed(uint256,address)": {
        "details": "Emitted when a new smart lending is deployed",
        "params": {
          "dexId": "The ID of the deployed DEX",
          "smartLending": "The address of the deployed smart lending"
        }
      }
    },
    "kind": "dev",
    "methods": {
      "deploy(uint256)": {
        "params": {
          "dexId_": "The ID of the DEX for which the smart lending wrapper is being deployed"
        },
        "returns": {
          "smartLending_": "The newly deployed SmartLending contract"
        }
      },
      "setSmartLendingCreationCode(bytes)": {
        "params": {
          "creationCode_": "New SmartLending contract creation code."
        }
      },
      "smartLendingCreationCode()": {
        "details": "Retrieves the creation code for the SmartLending contract"
      },
      "spell(address,bytes)": {
        "params": {
          "data_": "Data to execute at the delegated address",
          "target_": "Address to which the call needs to be delegated"
        }
      },
      "updateDeployer(address,bool)": {
        "params": {
          "allowed_": "Bool flag for whether address is allowed as deployer or not",
          "deployer_": "Address to set deployer value for"
        }
      },
      "updateSmartLendingAuth(address,address,bool)": {
        "params": {
          "allowed_": "The new authorization status",
          "auth_": "The address to be updated",
          "smartLending_": "The address of the SmartLending contract"
        }
      }
    },
    "version": 1
  },
  "userdoc": {
    "errors": {
      "FluidDexSwapResult(uint256)": [
        {
          "notice": "used to simulate swap to find the output amount"
        }
      ]
    },
    "kind": "user",
    "methods": {
      "allTokens()": {
        "notice": "List of all created tokens"
      },
      "createdTokens(uint256)": {
        "notice": "list of all created tokens."
      },
      "deploy(uint256)": {
        "notice": "Deploys a new SmartLending contract. Only callable by deployers."
      },
      "isDeployer(address)": {
        "notice": "Reads if a certain `deployer_` address is an allowed deployer or not. Owner is deployer by default."
      },
      "isSmartLendingAuth(address,address)": {
        "notice": "Reads if a certain `auth_` address is an allowed auth for `smartLending_` or not. Owner is auth by default."
      },
      "setSmartLendingCreationCode(bytes)": {
        "notice": "Sets the `creationCode_` bytecode for new SmartLending contracts. Only callable by owner."
      },
      "spell(address,bytes)": {
        "notice": "Spell allows owner aka governance to do any arbitrary call on factory"
      },
      "updateDeployer(address,bool)": {
        "notice": "Sets an address as allowed deployer or not. Only callable by owner."
      },
      "updateSmartLendingAuth(address,address,bool)": {
        "notice": "Updates the authorization status of an address for a SmartLending contract. Only callable by owner."
      }
    },
    "version": 1
  },
  "storageLayout": {
    "storage": [
      {
        "astId": 4975,
        "contract": "contracts/protocols/dex/smartLending/factory/main.sol:FluidSmartLendingFactory",
        "label": "owner",
        "offset": 0,
        "slot": "0",
        "type": "t_address"
      },
      {
        "astId": 3193,
        "contract": "contracts/protocols/dex/smartLending/factory/main.sol:FluidSmartLendingFactory",
        "label": "smartLendingAddress",
        "offset": 0,
        "slot": "1",
        "type": "t_mapping(t_uint256,t_address)"
      },
      {
        "astId": 3200,
        "contract": "contracts/protocols/dex/smartLending/factory/main.sol:FluidSmartLendingFactory",
        "label": "_smartLendingAuths",
        "offset": 0,
        "slot": "2",
        "type": "t_mapping(t_address,t_mapping(t_address,t_uint256))"
      },
      {
        "astId": 3205,
        "contract": "contracts/protocols/dex/smartLending/factory/main.sol:FluidSmartLendingFactory",
        "label": "_deployers",
        "offset": 0,
        "slot": "3",
        "type": "t_mapping(t_address,t_uint256)"
      },
      {
        "astId": 3209,
        "contract": "contracts/protocols/dex/smartLending/factory/main.sol:FluidSmartLendingFactory",
        "label": "createdTokens",
        "offset": 0,
        "slot": "4",
        "type": "t_array(t_address)dyn_storage"
      },
      {
        "astId": 3212,
        "contract": "contracts/protocols/dex/smartLending/factory/main.sol:FluidSmartLendingFactory",
        "label": "_smartLendingCreationCodePointer",
        "offset": 0,
        "slot": "5",
        "type": "t_address"
      }
    ],
    "types": {
      "t_address": {
        "encoding": "inplace",
        "label": "address",
        "numberOfBytes": "20"
      },
      "t_array(t_address)dyn_storage": {
        "base": "t_address",
        "encoding": "dynamic_array",
        "label": "address[]",
        "numberOfBytes": "32"
      },
      "t_mapping(t_address,t_mapping(t_address,t_uint256))": {
        "encoding": "mapping",
        "key": "t_address",
        "label": "mapping(address => mapping(address => uint256))",
        "numberOfBytes": "32",
        "value": "t_mapping(t_address,t_uint256)"
      },
      "t_mapping(t_address,t_uint256)": {
        "encoding": "mapping",
        "key": "t_address",
        "label": "mapping(address => uint256)",
        "numberOfBytes": "32",
        "value": "t_uint256"
      },
      "t_mapping(t_uint256,t_address)": {
        "encoding": "mapping",
        "key": "t_uint256",
        "label": "mapping(uint256 => address)",
        "numberOfBytes": "32",
        "value": "t_address"
      },
      "t_uint256": {
        "encoding": "inplace",
        "label": "uint256",
        "numberOfBytes": "32"
      }
    }
  }
}