{
  "address": "0xe09A0b13a2C5bfcF792c1BD68994F4BbC24d48cD",
  "abi": [
    {
      "inputs": [
        {
          "components": [
            {
              "internalType": "string",
              "name": "infoName",
              "type": "string"
            },
            {
              "internalType": "address",
              "name": "dexPool",
              "type": "address"
            },
            {
              "internalType": "bool",
              "name": "quoteInToken0",
              "type": "bool"
            },
            {
              "internalType": "contract IFluidOracle",
              "name": "colDebtOracle",
              "type": "address"
            },
            {
              "internalType": "bool",
              "name": "colDebtInvert",
              "type": "bool"
            },
            {
              "internalType": "uint256",
              "name": "pegBufferPercent",
              "type": "uint256"
            },
            {
              "components": [
                {
                  "internalType": "address",
                  "name": "reservesConversionOracle",
                  "type": "address"
                },
                {
                  "internalType": "bool",
                  "name": "reservesConversionInvert",
                  "type": "bool"
                },
                {
                  "internalType": "uint256",
                  "name": "reservesConversionPriceMultiplier",
                  "type": "uint256"
                },
                {
                  "internalType": "uint256",
                  "name": "reservesConversionPriceDivisor",
                  "type": "uint256"
                }
              ],
              "internalType": "struct DexConversionPriceFluidOracle.DexConversionPriceFluidOracleParams",
              "name": "reservesConversionParams",
              "type": "tuple"
            },
            {
              "internalType": "uint256",
              "name": "resultMultiplier",
              "type": "uint256"
            },
            {
              "internalType": "uint256",
              "name": "resultDivisor",
              "type": "uint256"
            }
          ],
          "internalType": "struct DexSmartColPegOracle.DexSmartColPegOracleParams",
          "name": "params_",
          "type": "tuple"
        },
        {
          "internalType": "address",
          "name": "sequencerUptimeFeed_",
          "type": "address"
        }
      ],
      "stateMutability": "nonpayable",
      "type": "constructor"
    },
    {
      "inputs": [
        {
          "internalType": "uint256",
          "name": "errorId_",
          "type": "uint256"
        }
      ],
      "name": "FluidLiquidityCalcsError",
      "type": "error"
    },
    {
      "inputs": [
        {
          "internalType": "uint256",
          "name": "errorId_",
          "type": "uint256"
        }
      ],
      "name": "FluidOracleError",
      "type": "error"
    },
    {
      "inputs": [],
      "name": "RESERVES_PEG_BUFFER_PERCENT",
      "outputs": [
        {
          "internalType": "uint256",
          "name": "",
          "type": "uint256"
        }
      ],
      "stateMutability": "view",
      "type": "function"
    },
    {
      "inputs": [],
      "name": "dexOracleData",
      "outputs": [
        {
          "internalType": "address",
          "name": "dexPool_",
          "type": "address"
        },
        {
          "internalType": "bool",
          "name": "quoteInToken0_",
          "type": "bool"
        },
        {
          "internalType": "address",
          "name": "liquidity_",
          "type": "address"
        },
        {
          "internalType": "uint256",
          "name": "resultMultiplier_",
          "type": "uint256"
        },
        {
          "internalType": "uint256",
          "name": "resultDivisor_",
          "type": "uint256"
        }
      ],
      "stateMutability": "view",
      "type": "function"
    },
    {
      "inputs": [],
      "name": "dexSmartColSharesRates",
      "outputs": [
        {
          "internalType": "uint256",
          "name": "operate_",
          "type": "uint256"
        },
        {
          "internalType": "uint256",
          "name": "liquidate_",
          "type": "uint256"
        }
      ],
      "stateMutability": "view",
      "type": "function"
    },
    {
      "inputs": [],
      "name": "getDexColDebtOracleData",
      "outputs": [
        {
          "internalType": "address",
          "name": "colDebtOracle_",
          "type": "address"
        },
        {
          "internalType": "bool",
          "name": "colDebtInvert_",
          "type": "bool"
        }
      ],
      "stateMutability": "view",
      "type": "function"
    },
    {
      "inputs": [],
      "name": "getDexConversionPriceFluidOracleData",
      "outputs": [
        {
          "internalType": "address",
          "name": "reservesConversionOracle_",
          "type": "address"
        },
        {
          "internalType": "bool",
          "name": "reservesConversionInvert_",
          "type": "bool"
        },
        {
          "internalType": "uint256",
          "name": "reservesConversionPriceMultiplier_",
          "type": "uint256"
        },
        {
          "internalType": "uint256",
          "name": "reservesConversionPriceDivisor_",
          "type": "uint256"
        }
      ],
      "stateMutability": "view",
      "type": "function"
    },
    {
      "inputs": [],
      "name": "getExchangeRate",
      "outputs": [
        {
          "internalType": "uint256",
          "name": "exchangeRate_",
          "type": "uint256"
        }
      ],
      "stateMutability": "view",
      "type": "function"
    },
    {
      "inputs": [],
      "name": "getExchangeRateLiquidate",
      "outputs": [
        {
          "internalType": "uint256",
          "name": "exchangeRate_",
          "type": "uint256"
        }
      ],
      "stateMutability": "view",
      "type": "function"
    },
    {
      "inputs": [],
      "name": "getExchangeRateOperate",
      "outputs": [
        {
          "internalType": "uint256",
          "name": "exchangeRate_",
          "type": "uint256"
        }
      ],
      "stateMutability": "view",
      "type": "function"
    },
    {
      "inputs": [],
      "name": "infoName",
      "outputs": [
        {
          "internalType": "string",
          "name": "",
          "type": "string"
        }
      ],
      "stateMutability": "view",
      "type": "function"
    },
    {
      "inputs": [],
      "name": "sequencerL2Data",
      "outputs": [
        {
          "internalType": "address",
          "name": "sequencerUptimeFeed_",
          "type": "address"
        },
        {
          "internalType": "uint256",
          "name": "maxGracePeriod_",
          "type": "uint256"
        },
        {
          "internalType": "bool",
          "name": "isSequencerUp_",
          "type": "bool"
        },
        {
          "internalType": "uint256",
          "name": "lastUptimeStartedAt_",
          "type": "uint256"
        },
        {
          "internalType": "uint256",
          "name": "gracePeriod_",
          "type": "uint256"
        },
        {
          "internalType": "bool",
          "name": "gracePeriodPassed_",
          "type": "bool"
        },
        {
          "internalType": "uint256",
          "name": "lastOutageStartedAt_",
          "type": "uint256"
        },
        {
          "internalType": "bool",
          "name": "isSequencerUpAndValid_",
          "type": "bool"
        }
      ],
      "stateMutability": "view",
      "type": "function"
    }
  ],
  "transactionHash": "0xc6f5992ad6a786c53293c0cab29ca7987429d285466c3aeab6cf5ba14a30eae7",
  "args": [
    [
      {
        "dexPool": "0x667701e51B4D1Ca244F17C78F7aB8744B4C99F9B",
        "quoteInToken0": false,
        "infoName": "WSTETH per 1 WSTETH/ETH colSh.",
        "pegBufferPercent": 1000,
        "reservesConversionParams": {
          "reservesConversionOracle": "0x71E1E7b2561a3F8edcC22C7B3446E0b01E062d37",
          "reservesConversionInvert": false,
          "reservesConversionPriceMultiplier": 1,
          "reservesConversionPriceDivisor": 1
        },
        "resultMultiplier": 1,
        "resultDivisor": 1,
        "colDebtOracle": "0x4BD81CE5dEF773ee766C7D931b7477093f6C9677",
        "colDebtInvert": true
      },
      "0xFdB631F5EE196F0ed6FAa767959853A9F217697D"
    ]
  ],
  "numDeployments": 1,
  "linkedData": {
    "nonce": "6"
  },
  "bytecode": "0x6103406040523480156200001257600080fd5b506040516200246038038062002460833981016040819052620000359162000507565b81806020015181604001518260a0015182828560c001518660600151876080015184848a600001518c8c60e001518d6101000151816000146200007957816200007c565b60015b60805280156200008d578062000090565b60015b60a0525050600080546001600160a01b0319166001600160a01b0392909216919091179055805160201080620000c557508051155b15620000ed5760405163c82fc46560e01b815261ea6a60048201526024015b60405180910390fd5b6020015160c0526001600160a01b038216620001215760405163c82fc46560e01b815261ebdd6004820152602401620000e4565b6001600160a01b03821660e08190528115156101005260408051635bbc8df960e11b815290516000929163b7791bf2916004808301926102409291908290030181865afa15801562000177573d6000803e3d6000fd5b505050506040513d601f19601f820116820180604052508101906200019d9190620006bb565b610160808201516101a052610180808301516101c05260e0808401516101209081528401516101409081526101008501519093529183015190525160408051631595cbd360e01b815290519293506000926001600160a01b0390921691631595cbd3916004808201926080929091908290030181865afa15801562000226573d6000803e3d6000fd5b505050506040513d601f19601f820116820180604052508101906200024c9190620007b1565b80516101e05260208101516102005260408082015161022052606090910151610240526001600160a01b03909616610260525050505015156102805281015115806200029a57506060810151155b15620002be5760405163c82fc46560e01b815261ebdd6004820152602401620000e4565b80516001600160a01b03166102a052602081015115156102c05260408101516102e052606001516103005250506000819003620003135760405163c82fc46560e01b815261ebdd6004820152602401620000e4565b6103205250620007fa9350505050565b634e487b7160e01b600052604160045260246000fd5b604051608081016001600160401b03811182821017156200035e576200035e62000323565b60405290565b60405161012081016001600160401b03811182821017156200035e576200035e62000323565b6040516101c081016001600160401b03811182821017156200035e576200035e62000323565b604051601f8201601f191681016001600160401b0381118282101715620003db57620003db62000323565b604052919050565b600082601f830112620003f557600080fd5b81516001600160401b0381111562000411576200041162000323565b602062000427601f8301601f19168201620003b0565b82815285828487010111156200043c57600080fd5b60005b838110156200045c5785810183015182820184015282016200043f565b506000928101909101919091529392505050565b6001600160a01b03811681146200048657600080fd5b50565b8051620004968162000470565b919050565b805180151581146200049657600080fd5b600060808284031215620004bf57600080fd5b620004c962000339565b90508151620004d88162000470565b8152620004e8602083016200049b565b6020820152604082015160408201526060820151606082015292915050565b600080604083850312156200051b57600080fd5b82516001600160401b03808211156200053357600080fd5b9084019061018082870312156200054957600080fd5b6200055362000364565b8251828111156200056357600080fd5b6200057188828601620003e3565b825250620005826020840162000489565b602082015262000595604084016200049b565b6040820152620005a86060840162000489565b6060820152620005bb608084016200049b565b608082015260a083015160a0820152620005d98760c08501620004ac565b60c082015261014083015160e082015261016090920151610100830152509150620006076020840162000489565b90509250929050565b600060a082840312156200062357600080fd5b60405160a081016001600160401b038111828210171562000648576200064862000323565b806040525080915082516200065d8162000470565b815260208301516200066f8162000470565b60208201526040830151620006848162000470565b60408201526060830151620006998162000470565b60608201526080830151620006ae8162000470565b6080919091015292915050565b60006102408284031215620006cf57600080fd5b620006d96200038a565b82518152620006eb6020840162000489565b6020820152620006fe6040840162000489565b604082015262000712846060850162000610565b60608201526101006200072781850162000489565b60808301526101206200073c81860162000489565b60a08401526101406200075181870162000489565b60c08501526101608087015160e086015261018080880151858701526101a0945084880151848701526101c0880151838701526101e088015182870152610200880151818701525050505061022084015181830152508091505092915050565b600060808284031215620007c457600080fd5b620007ce62000339565b825181526020830151602082015260408301516040820152606083015160608201528091505092915050565b60805160a05160c05160e05161010051610120516101405161016051610180516101a0516101c0516101e05161020051610220516102405161026051610280516102a0516102c0516102e0516103005161032051611ab1620009af6000396000818161027a015281816106cd0152610711015260008181610128015281816107a00152610a67015260008181610107015281816107c10152610a8801526000818160e6015261088701526000818160c501528181610754015281816107e201528181610a1b0152610aa901526000818161037a01526112a9015260008181610356015281816111cc01528181611218015281816112f2015261133e015260008181611191015261151001526000818161116d015261153101526000818161110801526115670152600081816110e401526115880152600061104401526000610ff601526000505060005050600061102301526000610fd50152600081816101df015261106e0152600081816101bb015261091501526000818161040f01526104d401526000818161024901528181610bd60152610f7301526000818161022301528181610c090152610fa60152611ab16000f3fe608060405234801561001057600080fd5b50600436106100be5760003560e01c8063abd5f95d11610076578063e6aa216c1161005b578063e6aa216c1461032b578063f3190c8914610333578063fa9a98e61461033b57600080fd5b8063abd5f95d146102b2578063dc459512146102c757600080fd5b8063585eebbf116100a7578063585eebbf146101a057806364bba885146102755780638e7bfbc0146102aa57600080fd5b806304741a5a146100c35780632879605814610183575b600080fd5b7f00000000000000000000000000000000000000000000000000000000000000007f00000000000000000000000000000000000000000000000000000000000000007f00000000000000000000000000000000000000000000000000000000000000007f00000000000000000000000000000000000000000000000000000000000000006040805173ffffffffffffffffffffffffffffffffffffffff909516855292151560208501529183015260608201526080015b60405180910390f35b61018b6103a6565b6040805192835260208301919091520161017a565b6040805173ffffffffffffffffffffffffffffffffffffffff7f00000000000000000000000000000000000000000000000000000000000000001681527f0000000000000000000000000000000000000000000000000000000000000000151560208201527352aa899454998be5b000ad077a46bbe360f4e497918101919091527f000000000000000000000000000000000000000000000000000000000000000060608201527f0000000000000000000000000000000000000000000000000000000000000000608082015260a00161017a565b61029c7f000000000000000000000000000000000000000000000000000000000000000081565b60405190815260200161017a565b61029c6103e6565b6102ba6103fd565b60405161017a91906117cf565b6102cf610562565b6040805173ffffffffffffffffffffffffffffffffffffffff909916895260208901979097529415159587019590955260608601929092526080850152151560a084015260c0830191909152151560e08201526101000161017a565b61029c610698565b61029c6106a2565b6040805173ffffffffffffffffffffffffffffffffffffffff7f00000000000000000000000000000000000000000000000000000000000000001681527f0000000000000000000000000000000000000000000000000000000000000000151560208201520161017a565b6000806000806103b46106b4565b915091506103ca6103c3610750565b83836108cf565b6103dc6103d5610a17565b84846108cf565b9350935050509091565b60006103f0610b12565b6103f8610bb1565b905090565b606060005b60208110801561046857507f0000000000000000000000000000000000000000000000000000000000000000816020811061043f5761043f61183b565b1a60f81b7fff000000000000000000000000000000000000000000000000000000000000001615155b1561047f578061047781611899565b915050610402565b60008167ffffffffffffffff81111561049a5761049a6118d1565b6040519080825280601f01601f1916602001820160405280156104c4576020820181803683370190505b50905060005b8281101561055b577f000000000000000000000000000000000000000000000000000000000000000081602081106105045761050461183b565b1a60f81b82828151811061051a5761051a61183b565b60200101907effffffffffffffffffffffffffffffffffffffffffffffffffffffffffffff1916908160001a9053508061055381611899565b9150506104ca565b5092915050565b6000806000806000806000806000610578610c56565b9198509096509050861561059c576105908187610e03565b91965094509250610652565b610a8c945060008060009054906101000a900473ffffffffffffffffffffffffffffffffffffffff1673ffffffffffffffffffffffffffffffffffffffff1663feaf968c6040518163ffffffff1660e01b815260040160a060405180830381865afa15801561060f573d6000803e3d6000fd5b505050506040513d601f19601f82011682018060405250810190610633919061191f565b50505050905061064e816001610649919061196f565b610e6d565b9350505b60005473ffffffffffffffffffffffffffffffffffffffff16610a8c888888888884801561067d57508a5b98509850985098509850985098509850509091929394959697565b60006103f86103e6565b60006106ac610b12565b6103f8610f4e565b6000806106bf610fcd565b9092509050620f42406106f27f000000000000000000000000000000000000000000000000000000000000000082611992565b6106fc90846119ab565b61070691906119f1565b9150620f42406107367f000000000000000000000000000000000000000000000000000000000000000082611992565b61074090836119ab565b61074a91906119f1565b90509091565b60007f000000000000000000000000000000000000000000000000000000000000000073ffffffffffffffffffffffffffffffffffffffff1661079e57506b033b2e3c9fd0803ce800000090565b7f00000000000000000000000000000000000000000000000000000000000000007f00000000000000000000000000000000000000000000000000000000000000007f000000000000000000000000000000000000000000000000000000000000000073ffffffffffffffffffffffffffffffffffffffff16638e7bfbc06040518163ffffffff1660e01b8152600401602060405180830381865afa15801561084b573d6000803e3d6000fd5b505050506040513d601f19601f8201168201806040525081019061086f9190611a2c565b61087991906119ab565b61088391906119f1565b90507f0000000000000000000000000000000000000000000000000000000000000000156108cc576103f881760a70c3c40a64e6c51999090b65f67d92400000000000006119f1565b90565b6040517fb5c736e40000000000000000000000000000000000000000000000000000000081526002600482015260009081906fffffffffffffffffffffffffffffffff907f000000000000000000000000000000000000000000000000000000000000000073ffffffffffffffffffffffffffffffffffffffff169063b5c736e490602401602060405180830381865afa158015610971573d6000803e3d6000fd5b505050506040513d601f19601f820116820180604052508101906109959190611a2c565b169050806000036109db576040517fc82fc46500000000000000000000000000000000000000000000000000000000815261ebac60048201526024015b60405180910390fd5b60006109e886868661106a565b905081610a01826b033b2e3c9fd0803ce80000006119ab565b610a0b91906119f1565b925050505b9392505050565b60007f000000000000000000000000000000000000000000000000000000000000000073ffffffffffffffffffffffffffffffffffffffff16610a6557506b033b2e3c9fd0803ce800000090565b7f00000000000000000000000000000000000000000000000000000000000000007f00000000000000000000000000000000000000000000000000000000000000007f000000000000000000000000000000000000000000000000000000000000000073ffffffffffffffffffffffffffffffffffffffff1663f3190c896040518163ffffffff1660e01b8152600401602060405180830381865afa15801561084b573d6000803e3d6000fd5b6000806000610b1f610c56565b92509250925082610b60576040517fc82fc46500000000000000000000000000000000000000000000000000000000815261ea6060048201526024016109d2565b6000610b6c8383610e03565b5091505080610bab576040517fc82fc46500000000000000000000000000000000000000000000000000000000815261ea6060048201526024016109d2565b50505050565b6000806000610bbe6106b4565b915091506000610bcf6103d5610750565b9050610c077f00000000000000000000000000000000000000000000000000000000000000006b033b2e3c9fd0803ce80000006119ab565b7f0000000000000000000000000000000000000000000000000000000000000000610c306111c8565b610c3a90846119ab565b610c4491906119ab565b610c4e91906119f1565b935050505090565b60008060008060008060008054906101000a900473ffffffffffffffffffffffffffffffffffffffff1673ffffffffffffffffffffffffffffffffffffffff1663feaf968c6040518163ffffffff1660e01b815260040160a060405180830381865afa158015610cca573d6000803e3d6000fd5b505050506040513d601f19601f82011682018060405250810190610cee919061191f565b505092509250925081600014610d0e575060009586955085945092505050565b600195508294508093506000841115610dfb575b60005473ffffffffffffffffffffffffffffffffffffffff16639a6fc8f5610d4b600186611a45565b6040517fffffffff0000000000000000000000000000000000000000000000000000000060e084901b16815269ffffffffffffffffffff909116600482015260240160a060405180830381865afa158015610daa573d6000803e3d6000fd5b505050506040513d601f19601f82011682018060405250810190610dce919061191f565b509295509093509150506000829003610de8578294508093505b81158015610df65750600081115b610d22575b505050909192565b6000808080610e128542611992565b9050841580610e225750610a8c81115b15610e3a57610a8c6001600093509350935050610e66565b610e4386610e6d565b9150610e4f8286611992565b9350610a8c841115610e6157610a8c93505b831091505b9250925092565b60008181805b60005473ffffffffffffffffffffffffffffffffffffffff16639a6fc8f5610e9c600186611a45565b6040517fffffffff0000000000000000000000000000000000000000000000000000000060e084901b16815269ffffffffffffffffffff909116600482015260240160a060405180830381865afa158015610efb573d6000803e3d6000fd5b505050506040513d601f19601f82011682018060405250810190610f1f919061191f565b509295509093509150508115610f33578093505b8115801590610f425750600081115b610e7357505050919050565b6000806000610f5b6106b4565b915091506000610f6c6103d5610a17565b9050610fa47f00000000000000000000000000000000000000000000000000000000000000006b033b2e3c9fd0803ce80000006119ab565b7f0000000000000000000000000000000000000000000000000000000000000000610c306112ee565b60008061101c7f00000000000000000000000000000000000000000000000000000000000000007f000000000000000000000000000000000000000000000000000000000000000060016113a7565b915061074a7f00000000000000000000000000000000000000000000000000000000000000007f000000000000000000000000000000000000000000000000000000000000000060006113a7565b60007f00000000000000000000000000000000000000000000000000000000000000001561113e576110b384760a70c3c40a64e6c51999090b65f67d92400000000000006119f1565b93506b033b2e3c9fd0803ce80000006110cc85846119ab565b6110d691906119f1565b6110e09084611a68565b90507f000000000000000000000000000000000000000000000000000000000000000061112d7f0000000000000000000000000000000000000000000000000000000000000000836119ab565b61113791906119f1565b9050610a10565b6b033b2e3c9fd0803ce800000061115585856119ab565b61115f91906119f1565b6111699083611a68565b90507f00000000000000000000000000000000000000000000000000000000000000006111b67f0000000000000000000000000000000000000000000000000000000000000000836119ab565b6111c091906119f1565b949350505050565b60007f000000000000000000000000000000000000000000000000000000000000000073ffffffffffffffffffffffffffffffffffffffff1661121657506b033b2e3c9fd0803ce800000090565b7f000000000000000000000000000000000000000000000000000000000000000073ffffffffffffffffffffffffffffffffffffffff16638e7bfbc06040518163ffffffff1660e01b8152600401602060405180830381865afa158015611281573d6000803e3d6000fd5b505050506040513d601f19601f820116820180604052508101906112a59190611a2c565b90507f0000000000000000000000000000000000000000000000000000000000000000156108cc576103f881760a70c3c40a64e6c51999090b65f67d92400000000000006119f1565b60007f000000000000000000000000000000000000000000000000000000000000000073ffffffffffffffffffffffffffffffffffffffff1661133c57506b033b2e3c9fd0803ce800000090565b7f000000000000000000000000000000000000000000000000000000000000000073ffffffffffffffffffffffffffffffffffffffff1663f3190c896040518163ffffffff1660e01b8152600401602060405180830381865afa158015611281573d6000803e3d6000fd5b6040517fb5c736e40000000000000000000000000000000000000000000000000000000081526004810184905260009081907352aa899454998be5b000ad077a46bbe360f4e4979063b5c736e490602401602060405180830381865afa158015611415573d6000803e3d6000fd5b505050506040513d601f19601f820116820180604052508101906114399190611a2c565b6040517fb5c736e400000000000000000000000000000000000000000000000000000000815260048101869052600982901c66ffffffffffffff16600183901c60ff161b93509091506000906114ee907352aa899454998be5b000ad077a46bbe360f4e4979063b5c736e490602401602060405180830381865afa1580156114c5573d6000803e3d6000fd5b505050506040513d601f19601f820116820180604052508101906114e99190611a2c565b6115c1565b509050816001166001036115095764e8d4a510008382020492505b83611565577f00000000000000000000000000000000000000000000000000000000000000007f000000000000000000000000000000000000000000000000000000000000000084028161155f5761155f6119c2565b04610a0b565b7f00000000000000000000000000000000000000000000000000000000000000007f00000000000000000000000000000000000000000000000000000000000000008402816115b6576115b66119c2565b049695505050505050565b67ffffffffffffffff605b82901c811690609b83901c168115806115e3575080155b1561161f576040517fd50d75120000000000000000000000000000000000000000000000000000000081526201117160048201526024016109d2565b61ffff8316603a84901c6401ffffffff16428181039160ea87901c617fff16911480611649575082155b806116545750806001145b1561166157505050915091565b64496cebb80084840283020484019350617fff60db87901c1692508260010361168c57505050915091565b826001166001036116e15760019290921c91826c7e37be2022c0914b2680000000816116ba576116ba6119c2565b049250612710601e87901c613fff166b033b2e3c9fd0803ce800000085010204925061170e565b60019290921c916305f5e100601e87901c613fff166127108501026b033b2e3c9fd0803ce8000000020492505b806001166001036117455760011c61271081016b033b2e3c9fd0803ce800000082028161173d5761173d6119c2565b04905061177b565b60011c61271081016b033b2e3c9fd0803ce8000000820281611769576117696119c2565b046b033b2e3c9fd0803ce80000000390505b760a70c3c40a64e6c51999090b65f67d92400000000000008382026127100261ffff881691900402601087901c613fff16612710030292506801b5a660ea44b8000085840283020485019450505050915091565b600060208083528351808285015260005b818110156117fc578581018301518582016040015282016117e0565b5060006040828601015260407fffffffffffffffffffffffffffffffffffffffffffffffffffffffffffffffe0601f8301168501019250505092915050565b7f4e487b7100000000000000000000000000000000000000000000000000000000600052603260045260246000fd5b7f4e487b7100000000000000000000000000000000000000000000000000000000600052601160045260246000fd5b60007fffffffffffffffffffffffffffffffffffffffffffffffffffffffffffffffff82036118ca576118ca61186a565b5060010190565b7f4e487b7100000000000000000000000000000000000000000000000000000000600052604160045260246000fd5b805169ffffffffffffffffffff8116811461191a57600080fd5b919050565b600080600080600060a0868803121561193757600080fd5b61194086611900565b945060208601519350604086015192506060860151915061196360808701611900565b90509295509295909350565b69ffffffffffffffffffff81811683821601908082111561055b5761055b61186a565b818103818111156119a5576119a561186a565b92915050565b80820281158282048414176119a5576119a561186a565b7f4e487b7100000000000000000000000000000000000000000000000000000000600052601260045260246000fd5b600082611a27577f4e487b7100000000000000000000000000000000000000000000000000000000600052601260045260246000fd5b500490565b600060208284031215611a3e57600080fd5b5051919050565b69ffffffffffffffffffff82811682821603908082111561055b5761055b61186a565b808201808211156119a5576119a561186a56fea264697066735822122076354879a18203aea995971588297bb6fbb2589f37cc90e9ffe881f7a54bb93664736f6c63430008150033"
}