{
  "address": "0xf0fe76B8968A040cB8eE57c134b11E2696D47342",
  "abi": [
    {
      "inputs": [
        {
          "components": [
            {
              "internalType": "string",
              "name": "infoName",
              "type": "string"
            },
            {
              "internalType": "address",
              "name": "dexPool",
              "type": "address"
            },
            {
              "internalType": "bool",
              "name": "quoteInToken0",
              "type": "bool"
            },
            {
              "internalType": "contract IFluidOracle",
              "name": "colDebtOracle",
              "type": "address"
            },
            {
              "internalType": "bool",
              "name": "colDebtInvert",
              "type": "bool"
            },
            {
              "internalType": "uint256",
              "name": "pegBufferPercent",
              "type": "uint256"
            },
            {
              "components": [
                {
                  "internalType": "address",
                  "name": "reservesConversionOracle",
                  "type": "address"
                },
                {
                  "internalType": "bool",
                  "name": "reservesConversionInvert",
                  "type": "bool"
                },
                {
                  "internalType": "uint256",
                  "name": "reservesConversionPriceMultiplier",
                  "type": "uint256"
                },
                {
                  "internalType": "uint256",
                  "name": "reservesConversionPriceDivisor",
                  "type": "uint256"
                }
              ],
              "internalType": "struct DexConversionPriceFluidOracle.DexConversionPriceFluidOracleParams",
              "name": "reservesConversionParams",
              "type": "tuple"
            },
            {
              "internalType": "uint256",
              "name": "resultMultiplier",
              "type": "uint256"
            },
            {
              "internalType": "uint256",
              "name": "resultDivisor",
              "type": "uint256"
            }
          ],
          "internalType": "struct DexSmartDebtPegOracle.DexSmartDebtPegOracleParams",
          "name": "params_",
          "type": "tuple"
        },
        {
          "internalType": "address",
          "name": "sequencerUptimeFeed_",
          "type": "address"
        }
      ],
      "stateMutability": "nonpayable",
      "type": "constructor"
    },
    {
      "inputs": [
        {
          "internalType": "uint256",
          "name": "errorId_",
          "type": "uint256"
        }
      ],
      "name": "FluidLiquidityCalcsError",
      "type": "error"
    },
    {
      "inputs": [
        {
          "internalType": "uint256",
          "name": "errorId_",
          "type": "uint256"
        }
      ],
      "name": "FluidOracleError",
      "type": "error"
    },
    {
      "inputs": [],
      "name": "RESERVES_PEG_BUFFER_PERCENT",
      "outputs": [
        {
          "internalType": "uint256",
          "name": "",
          "type": "uint256"
        }
      ],
      "stateMutability": "view",
      "type": "function"
    },
    {
      "inputs": [],
      "name": "dexOracleData",
      "outputs": [
        {
          "internalType": "address",
          "name": "dexPool_",
          "type": "address"
        },
        {
          "internalType": "bool",
          "name": "quoteInToken0_",
          "type": "bool"
        },
        {
          "internalType": "address",
          "name": "liquidity_",
          "type": "address"
        },
        {
          "internalType": "uint256",
          "name": "resultMultiplier_",
          "type": "uint256"
        },
        {
          "internalType": "uint256",
          "name": "resultDivisor_",
          "type": "uint256"
        }
      ],
      "stateMutability": "view",
      "type": "function"
    },
    {
      "inputs": [],
      "name": "dexSmartDebtSharesRates",
      "outputs": [
        {
          "internalType": "uint256",
          "name": "operate_",
          "type": "uint256"
        },
        {
          "internalType": "uint256",
          "name": "liquidate_",
          "type": "uint256"
        }
      ],
      "stateMutability": "view",
      "type": "function"
    },
    {
      "inputs": [],
      "name": "getDexColDebtOracleData",
      "outputs": [
        {
          "internalType": "address",
          "name": "colDebtOracle_",
          "type": "address"
        },
        {
          "internalType": "bool",
          "name": "colDebtInvert_",
          "type": "bool"
        }
      ],
      "stateMutability": "view",
      "type": "function"
    },
    {
      "inputs": [],
      "name": "getDexConversionPriceFluidOracleData",
      "outputs": [
        {
          "internalType": "address",
          "name": "reservesConversionOracle_",
          "type": "address"
        },
        {
          "internalType": "bool",
          "name": "reservesConversionInvert_",
          "type": "bool"
        },
        {
          "internalType": "uint256",
          "name": "reservesConversionPriceMultiplier_",
          "type": "uint256"
        },
        {
          "internalType": "uint256",
          "name": "reservesConversionPriceDivisor_",
          "type": "uint256"
        }
      ],
      "stateMutability": "view",
      "type": "function"
    },
    {
      "inputs": [],
      "name": "getExchangeRate",
      "outputs": [
        {
          "internalType": "uint256",
          "name": "exchangeRate_",
          "type": "uint256"
        }
      ],
      "stateMutability": "view",
      "type": "function"
    },
    {
      "inputs": [],
      "name": "getExchangeRateLiquidate",
      "outputs": [
        {
          "internalType": "uint256",
          "name": "exchangeRate_",
          "type": "uint256"
        }
      ],
      "stateMutability": "view",
      "type": "function"
    },
    {
      "inputs": [],
      "name": "getExchangeRateOperate",
      "outputs": [
        {
          "internalType": "uint256",
          "name": "exchangeRate_",
          "type": "uint256"
        }
      ],
      "stateMutability": "view",
      "type": "function"
    },
    {
      "inputs": [],
      "name": "infoName",
      "outputs": [
        {
          "internalType": "string",
          "name": "",
          "type": "string"
        }
      ],
      "stateMutability": "view",
      "type": "function"
    },
    {
      "inputs": [],
      "name": "sequencerL2Data",
      "outputs": [
        {
          "internalType": "address",
          "name": "sequencerUptimeFeed_",
          "type": "address"
        },
        {
          "internalType": "uint256",
          "name": "maxGracePeriod_",
          "type": "uint256"
        },
        {
          "internalType": "bool",
          "name": "isSequencerUp_",
          "type": "bool"
        },
        {
          "internalType": "uint256",
          "name": "lastUptimeStartedAt_",
          "type": "uint256"
        },
        {
          "internalType": "uint256",
          "name": "gracePeriod_",
          "type": "uint256"
        },
        {
          "internalType": "bool",
          "name": "gracePeriodPassed_",
          "type": "bool"
        },
        {
          "internalType": "uint256",
          "name": "lastOutageStartedAt_",
          "type": "uint256"
        },
        {
          "internalType": "bool",
          "name": "isSequencerUpAndValid_",
          "type": "bool"
        }
      ],
      "stateMutability": "view",
      "type": "function"
    }
  ],
  "transactionHash": "0x735fdc9c21535d00ac8165ce0dd7ed52781157c4cd8b0cd80fe34000041b8ab0",
  "args": [
    [
      {
        "dexPool": "0x3C0441B42195F4aD6aa9a0978E06096ea616CDa7",
        "quoteInToken0": false,
        "infoName": "USDC/USDT debtSh. per 1 WSTETH",
        "pegBufferPercent": 1000,
        "reservesConversionParams": {
          "reservesConversionOracle": "0x0000000000000000000000000000000000000000",
          "reservesConversionInvert": false,
          "reservesConversionPriceMultiplier": 1,
          "reservesConversionPriceDivisor": 1
        },
        "resultMultiplier": 1000000000,
        "resultDivisor": 1,
        "colDebtOracle": "0x05B1e021C9B764a6e8B0113f0E0A7624D4aC7E91",
        "colDebtInvert": false
      },
      "0xFdB631F5EE196F0ed6FAa767959853A9F217697D"
    ]
  ],
  "numDeployments": 1,
  "linkedData": {
    "nonce": "19"
  },
  "bytecode": "0x6103606040523480156200001257600080fd5b50604051620025683803806200256883398101604081905262000035916200058d565b81806020015181604001518260a0015182828560c001518660600151876080015184848a600001518c8c60e001518d6101000151816000146200007957816200007c565b60015b60805280156200008d578062000090565b60015b60a0525050600080546001600160a01b0319166001600160a01b0392909216919091179055805160201080620000c557508051155b15620000ed5760405163c82fc46560e01b815261ea6a60048201526024015b60405180910390fd5b6020015160c0526001600160a01b038216620001215760405163c82fc46560e01b815261ebdd6004820152602401620000e4565b6001600160a01b03821660e08190528115156101005260408051635bbc8df960e11b815290516000929163b7791bf2916004808301926102409291908290030181865afa15801562000177573d6000803e3d6000fd5b505050506040513d601f19601f820116820180604052508101906200019d919062000741565b610160808201516101a052610180808301516101c05260e0808401516101209081528401516101409081526101008501519093529183015190525160408051631595cbd360e01b815290519293506000926001600160a01b0390921691631595cbd3916004808201926080929091908290030181865afa15801562000226573d6000803e3d6000fd5b505050506040513d601f19601f820116820180604052508101906200024c919062000837565b80516101e05260208101516102005260408101516102205260600151610240525050610100519150620002ba9050576102205161024051620002949064e8d4a5100062000880565b620002a09190620008ac565b620002b490670de0b6b3a7640000620008ac565b620002f3565b6101e05161020051620002d39064e8d4a5100062000880565b620002df9190620008ac565b620002f390670de0b6b3a7640000620008ac565b610260526001600160a01b039091166102805215156102a052604081015115806200032057506060810151155b15620003445760405163c82fc46560e01b815261ebdd6004820152602401620000e4565b80516001600160a01b03166102c052602081015115156102e052604081015161030052606001516103205250506000819003620003995760405163c82fc46560e01b815261ebdd6004820152602401620000e4565b6103405250620008cf9350505050565b634e487b7160e01b600052604160045260246000fd5b604051608081016001600160401b0381118282101715620003e457620003e4620003a9565b60405290565b60405161012081016001600160401b0381118282101715620003e457620003e4620003a9565b6040516101c081016001600160401b0381118282101715620003e457620003e4620003a9565b604051601f8201601f191681016001600160401b0381118282101715620004615762000461620003a9565b604052919050565b600082601f8301126200047b57600080fd5b81516001600160401b03811115620004975762000497620003a9565b6020620004ad601f8301601f1916820162000436565b8281528582848701011115620004c257600080fd5b60005b83811015620004e2578581018301518282018401528201620004c5565b506000928101909101919091529392505050565b6001600160a01b03811681146200050c57600080fd5b50565b80516200051c81620004f6565b919050565b805180151581146200051c57600080fd5b6000608082840312156200054557600080fd5b6200054f620003bf565b905081516200055e81620004f6565b81526200056e6020830162000521565b6020820152604082015160408201526060820151606082015292915050565b60008060408385031215620005a157600080fd5b82516001600160401b0380821115620005b957600080fd5b908401906101808287031215620005cf57600080fd5b620005d9620003ea565b825182811115620005e957600080fd5b620005f78882860162000469565b82525062000608602084016200050f565b60208201526200061b6040840162000521565b60408201526200062e606084016200050f565b6060820152620006416080840162000521565b608082015260a083015160a08201526200065f8760c0850162000532565b60c082015261014083015160e0820152610160909201516101008301525091506200068d602084016200050f565b90509250929050565b600060a08284031215620006a957600080fd5b60405160a081016001600160401b0381118282101715620006ce57620006ce620003a9565b80604052508091508251620006e381620004f6565b81526020830151620006f581620004f6565b602082015260408301516200070a81620004f6565b604082015260608301516200071f81620004f6565b606082015260808301516200073481620004f6565b6080919091015292915050565b600061024082840312156200075557600080fd5b6200075f62000410565b8251815262000771602084016200050f565b602082015262000784604084016200050f565b604082015262000798846060850162000696565b6060820152610100620007ad8185016200050f565b6080830152610120620007c28186016200050f565b60a0840152610140620007d78187016200050f565b60c08501526101608087015160e086015261018080880151858701526101a0945084880151848701526101c0880151838701526101e088015182870152610200880151818701525050505061022084015181830152508091505092915050565b6000608082840312156200084a57600080fd5b62000854620003bf565b825181526020830151602082015260408301516040820152606083015160608201528091505092915050565b8082028115828204841417620008a657634e487b7160e01b600052601160045260246000fd5b92915050565b600082620008ca57634e487b7160e01b600052601260045260246000fd5b500490565b60805160a05160c05160e05161010051610120516101405161016051610180516101a0516101c0516101e05161020051610220516102405161026051610280516102a0516102c0516102e051610300516103205161034051611ad962000a8f6000396000818161025d01528181610816015261085a015260008181610128015281816108e90152610bd30152600081816101070152818161090a0152610bf401526000818160e601526109d001526000818160c50152818161089d0152818161092b01528181610b870152610c1501526000818161037a01526110d601526000818161035601528181610ff9015281816110450152818161131a015261136601526000610b320152600081816112df01526115380152600081816112bb0152611559015260008181611256015261158f01526000818161123201526115b00152600061119201526000611144015260006111710152600061112301526000505060005050600081816101c201526111bc01526000818161019e0152610a5d01526000818161040f01526104d401526000818161022c0152818161077d0152610f9b015260008181610206015281816107b00152610fce0152611ad96000f3fe608060405234801561001057600080fd5b50600436106100be5760003560e01c8063abd5f95d11610076578063e6aa216c1161005b578063e6aa216c1461032b578063f3190c8914610333578063fa9a98e61461033b57600080fd5b8063abd5f95d146102b2578063dc459512146102c757600080fd5b806364bba885116100a757806364bba885146102585780638e7bfbc01461028d57806396aa229c1461029557600080fd5b806304741a5a146100c3578063585eebbf14610183575b600080fd5b7f00000000000000000000000000000000000000000000000000000000000000007f00000000000000000000000000000000000000000000000000000000000000007f00000000000000000000000000000000000000000000000000000000000000007f00000000000000000000000000000000000000000000000000000000000000006040805173ffffffffffffffffffffffffffffffffffffffff909516855292151560208501529183015260608201526080015b60405180910390f35b6040805173ffffffffffffffffffffffffffffffffffffffff7f00000000000000000000000000000000000000000000000000000000000000001681527f0000000000000000000000000000000000000000000000000000000000000000151560208201527352aa899454998be5b000ad077a46bbe360f4e497918101919091527f000000000000000000000000000000000000000000000000000000000000000060608201527f0000000000000000000000000000000000000000000000000000000000000000608082015260a00161017a565b61027f7f000000000000000000000000000000000000000000000000000000000000000081565b60405190815260200161017a565b61027f6103a6565b61029d6103bd565b6040805192835260208301919091520161017a565b6102ba6103fd565b60405161017a91906117f7565b6102cf610562565b6040805173ffffffffffffffffffffffffffffffffffffffff909916895260208901979097529415159587019590955260608601929092526080850152151560a084015260c0830191909152151560e08201526101000161017a565b61027f610698565b61027f6106a2565b6040805173ffffffffffffffffffffffffffffffffffffffff7f00000000000000000000000000000000000000000000000000000000000000001681527f0000000000000000000000000000000000000000000000000000000000000000151560208201520161017a565b60006103b06106b4565b6103b8610758565b905090565b6000806000806103cb6107fd565b915091506103e16103da610899565b8383610a18565b6103f36103ec610b83565b8484610a18565b9350935050509091565b606060005b60208110801561046857507f0000000000000000000000000000000000000000000000000000000000000000816020811061043f5761043f611863565b1a60f81b7fff000000000000000000000000000000000000000000000000000000000000001615155b1561047f5780610477816118c1565b915050610402565b60008167ffffffffffffffff81111561049a5761049a6118f9565b6040519080825280601f01601f1916602001820160405280156104c4576020820181803683370190505b50905060005b8281101561055b577f0000000000000000000000000000000000000000000000000000000000000000816020811061050457610504611863565b1a60f81b82828151811061051a5761051a611863565b60200101907effffffffffffffffffffffffffffffffffffffffffffffffffffffffffffff1916908160001a90535080610553816118c1565b9150506104ca565b5092915050565b6000806000806000806000806000610578610c7e565b9198509096509050861561059c576105908187610e2b565b91965094509250610652565b610a8c945060008060009054906101000a900473ffffffffffffffffffffffffffffffffffffffff1673ffffffffffffffffffffffffffffffffffffffff1663feaf968c6040518163ffffffff1660e01b815260040160a060405180830381865afa15801561060f573d6000803e3d6000fd5b505050506040513d601f19601f820116820180604052508101906106339190611947565b50505050905061064e8160016106499190611997565b610e95565b9350505b60005473ffffffffffffffffffffffffffffffffffffffff16610a8c888888888884801561067d57508a5b98509850985098509850985098509850509091929394959697565b60006103b86103a6565b60006106ac6106b4565b6103b8610f76565b60008060006106c1610c7e565b92509250925082610707576040517fc82fc46500000000000000000000000000000000000000000000000000000000815261ea6060048201526024015b60405180910390fd5b60006107138383610e2b565b5091505080610752576040517fc82fc46500000000000000000000000000000000000000000000000000000000815261ea6060048201526024016106fe565b50505050565b60008060006107656107fd565b9150915060006107766103ec610899565b90506107ae7f00000000000000000000000000000000000000000000000000000000000000006b033b2e3c9fd0803ce80000006119ba565b7f00000000000000000000000000000000000000000000000000000000000000006107d7610ff5565b6107e190846119ba565b6107eb91906119ba565b6107f59190611a06565b935050505090565b60008061080861111b565b9092509050620f424061083b7f000000000000000000000000000000000000000000000000000000000000000082611a41565b61084590846119ba565b61084f9190611a06565b9150620f424061087f7f000000000000000000000000000000000000000000000000000000000000000082611a41565b61088990836119ba565b6108939190611a06565b90509091565b60007f000000000000000000000000000000000000000000000000000000000000000073ffffffffffffffffffffffffffffffffffffffff166108e757506b033b2e3c9fd0803ce800000090565b7f00000000000000000000000000000000000000000000000000000000000000007f00000000000000000000000000000000000000000000000000000000000000007f000000000000000000000000000000000000000000000000000000000000000073ffffffffffffffffffffffffffffffffffffffff16638e7bfbc06040518163ffffffff1660e01b8152600401602060405180830381865afa158015610994573d6000803e3d6000fd5b505050506040513d601f19601f820116820180604052508101906109b89190611a54565b6109c291906119ba565b6109cc9190611a06565b90507f000000000000000000000000000000000000000000000000000000000000000015610a15576103b881760a70c3c40a64e6c51999090b65f67d9240000000000000611a06565b90565b6040517fb5c736e400000000000000000000000000000000000000000000000000000000815260048082015260009081906fffffffffffffffffffffffffffffffff907f000000000000000000000000000000000000000000000000000000000000000073ffffffffffffffffffffffffffffffffffffffff169063b5c736e490602401602060405180830381865afa158015610ab9573d6000803e3d6000fd5b505050506040513d601f19601f82011682018060405250810190610add9190611a54565b16905080600003610b1e576040517fc82fc46500000000000000000000000000000000000000000000000000000000815261ebb660048201526024016106fe565b6000610b2b8686866111b8565b9050610b577f0000000000000000000000000000000000000000000000000000000000000000826119ba565b610b6d836b033b2e3c9fd0803ce80000006119ba565b610b779190611a06565b925050505b9392505050565b60007f000000000000000000000000000000000000000000000000000000000000000073ffffffffffffffffffffffffffffffffffffffff16610bd157506b033b2e3c9fd0803ce800000090565b7f00000000000000000000000000000000000000000000000000000000000000007f00000000000000000000000000000000000000000000000000000000000000007f000000000000000000000000000000000000000000000000000000000000000073ffffffffffffffffffffffffffffffffffffffff1663f3190c896040518163ffffffff1660e01b8152600401602060405180830381865afa158015610994573d6000803e3d6000fd5b60008060008060008060008054906101000a900473ffffffffffffffffffffffffffffffffffffffff1673ffffffffffffffffffffffffffffffffffffffff1663feaf968c6040518163ffffffff1660e01b815260040160a060405180830381865afa158015610cf2573d6000803e3d6000fd5b505050506040513d601f19601f82011682018060405250810190610d169190611947565b505092509250925081600014610d36575060009586955085945092505050565b600195508294508093506000841115610e23575b60005473ffffffffffffffffffffffffffffffffffffffff16639a6fc8f5610d73600186611a6d565b6040517fffffffff0000000000000000000000000000000000000000000000000000000060e084901b16815269ffffffffffffffffffff909116600482015260240160a060405180830381865afa158015610dd2573d6000803e3d6000fd5b505050506040513d601f19601f82011682018060405250810190610df69190611947565b509295509093509150506000829003610e10578294508093505b81158015610e1e5750600081115b610d4a575b505050909192565b6000808080610e3a8542611a90565b9050841580610e4a5750610a8c81115b15610e6257610a8c6001600093509350935050610e8e565b610e6b86610e95565b9150610e778286611a90565b9350610a8c841115610e8957610a8c93505b831091505b9250925092565b60008181805b60005473ffffffffffffffffffffffffffffffffffffffff16639a6fc8f5610ec4600186611a6d565b6040517fffffffff0000000000000000000000000000000000000000000000000000000060e084901b16815269ffffffffffffffffffff909116600482015260240160a060405180830381865afa158015610f23573d6000803e3d6000fd5b505050506040513d601f19601f82011682018060405250810190610f479190611947565b509295509093509150508115610f5b578093505b8115801590610f6a5750600081115b610e9b57505050919050565b6000806000610f836107fd565b915091506000610f946103ec610b83565b9050610fcc7f00000000000000000000000000000000000000000000000000000000000000006b033b2e3c9fd0803ce80000006119ba565b7f00000000000000000000000000000000000000000000000000000000000000006107d7611316565b60007f000000000000000000000000000000000000000000000000000000000000000073ffffffffffffffffffffffffffffffffffffffff1661104357506b033b2e3c9fd0803ce800000090565b7f000000000000000000000000000000000000000000000000000000000000000073ffffffffffffffffffffffffffffffffffffffff16638e7bfbc06040518163ffffffff1660e01b8152600401602060405180830381865afa1580156110ae573d6000803e3d6000fd5b505050506040513d601f19601f820116820180604052508101906110d29190611a54565b90507f000000000000000000000000000000000000000000000000000000000000000015610a15576103b881760a70c3c40a64e6c51999090b65f67d9240000000000000611a06565b60008061116a7f00000000000000000000000000000000000000000000000000000000000000007f000000000000000000000000000000000000000000000000000000000000000060016113cf565b91506108937f00000000000000000000000000000000000000000000000000000000000000007f000000000000000000000000000000000000000000000000000000000000000060006113cf565b60007f00000000000000000000000000000000000000000000000000000000000000001561128c5761120184760a70c3c40a64e6c51999090b65f67d9240000000000000611a06565b93506b033b2e3c9fd0803ce800000061121a85846119ba565b6112249190611a06565b61122e9084611a41565b90507f000000000000000000000000000000000000000000000000000000000000000061127b7f0000000000000000000000000000000000000000000000000000000000000000836119ba565b6112859190611a06565b9050610b7c565b6b033b2e3c9fd0803ce80000006112a385856119ba565b6112ad9190611a06565b6112b79083611a41565b90507f00000000000000000000000000000000000000000000000000000000000000006113047f0000000000000000000000000000000000000000000000000000000000000000836119ba565b61130e9190611a06565b949350505050565b60007f000000000000000000000000000000000000000000000000000000000000000073ffffffffffffffffffffffffffffffffffffffff1661136457506b033b2e3c9fd0803ce800000090565b7f000000000000000000000000000000000000000000000000000000000000000073ffffffffffffffffffffffffffffffffffffffff1663f3190c896040518163ffffffff1660e01b8152600401602060405180830381865afa1580156110ae573d6000803e3d6000fd5b6040517fb5c736e40000000000000000000000000000000000000000000000000000000081526004810184905260009081907352aa899454998be5b000ad077a46bbe360f4e4979063b5c736e490602401602060405180830381865afa15801561143d573d6000803e3d6000fd5b505050506040513d601f19601f820116820180604052508101906114619190611a54565b6040517fb5c736e400000000000000000000000000000000000000000000000000000000815260048101869052600982901c66ffffffffffffff16600183901c60ff161b9350909150600090611516907352aa899454998be5b000ad077a46bbe360f4e4979063b5c736e490602401602060405180830381865afa1580156114ed573d6000803e3d6000fd5b505050506040513d601f19601f820116820180604052508101906115119190611a54565b6115e9565b915050816001166001036115315764e8d4a510008382020492505b8361158d577f00000000000000000000000000000000000000000000000000000000000000007f0000000000000000000000000000000000000000000000000000000000000000840281611587576115876119d7565b04610b77565b7f00000000000000000000000000000000000000000000000000000000000000007f00000000000000000000000000000000000000000000000000000000000000008402816115de576115de6119d7565b049695505050505050565b67ffffffffffffffff605b82901c811690609b83901c1681158061160b575080155b15611647576040517fd50d75120000000000000000000000000000000000000000000000000000000081526201117160048201526024016106fe565b61ffff8316603a84901c6401ffffffff16428181039160ea87901c617fff16911480611671575082155b8061167c5750806001145b1561168957505050915091565b64496cebb80084840283020484019350617fff60db87901c169250826001036116b457505050915091565b826001166001036117095760019290921c91826c7e37be2022c0914b2680000000816116e2576116e26119d7565b049250612710601e87901c613fff166b033b2e3c9fd0803ce8000000850102049250611736565b60019290921c916305f5e100601e87901c613fff166127108501026b033b2e3c9fd0803ce8000000020492505b8060011660010361176d5760011c61271081016b033b2e3c9fd0803ce8000000820281611765576117656119d7565b0490506117a3565b60011c61271081016b033b2e3c9fd0803ce8000000820281611791576117916119d7565b046b033b2e3c9fd0803ce80000000390505b760a70c3c40a64e6c51999090b65f67d92400000000000008382026127100261ffff881691900402601087901c613fff16612710030292506801b5a660ea44b8000085840283020485019450505050915091565b600060208083528351808285015260005b8181101561182457858101830151858201604001528201611808565b5060006040828601015260407fffffffffffffffffffffffffffffffffffffffffffffffffffffffffffffffe0601f8301168501019250505092915050565b7f4e487b7100000000000000000000000000000000000000000000000000000000600052603260045260246000fd5b7f4e487b7100000000000000000000000000000000000000000000000000000000600052601160045260246000fd5b60007fffffffffffffffffffffffffffffffffffffffffffffffffffffffffffffffff82036118f2576118f2611892565b5060010190565b7f4e487b7100000000000000000000000000000000000000000000000000000000600052604160045260246000fd5b805169ffffffffffffffffffff8116811461194257600080fd5b919050565b600080600080600060a0868803121561195f57600080fd5b61196886611928565b945060208601519350604086015192506060860151915061198b60808701611928565b90509295509295909350565b69ffffffffffffffffffff81811683821601908082111561055b5761055b611892565b80820281158282048414176119d1576119d1611892565b92915050565b7f4e487b7100000000000000000000000000000000000000000000000000000000600052601260045260246000fd5b600082611a3c577f4e487b7100000000000000000000000000000000000000000000000000000000600052601260045260246000fd5b500490565b808201808211156119d1576119d1611892565b600060208284031215611a6657600080fd5b5051919050565b69ffffffffffffffffffff82811682821603908082111561055b5761055b611892565b818103818111156119d1576119d161189256fea26469706673582212203468c3635bb95009bc1008d2cb84cf9e8010e34ec883e728ab6f135b1ea76e7364736f6c63430008150033"
}