{
  "address": "0xF1cb96A9EDa0DFea021e5fEfA9e715D81E14cb6b",
  "abi": [
    {
      "inputs": [
        {
          "internalType": "address",
          "name": "liquidity_",
          "type": "address"
        },
        {
          "internalType": "address",
          "name": "dexFactory_",
          "type": "address"
        },
        {
          "internalType": "address",
          "name": "contractDeployer_",
          "type": "address"
        },
        {
          "internalType": "address",
          "name": "colOperations_",
          "type": "address"
        },
        {
          "internalType": "address",
          "name": "debtOperations_",
          "type": "address"
        },
        {
          "internalType": "address",
          "name": "perfectOperationsAndSwapOut1_",
          "type": "address"
        },
        {
          "internalType": "address",
          "name": "perfectOperationsAndSwapOut2_",
          "type": "address"
        },
        {
          "internalType": "address",
          "name": "mainAddress1_",
          "type": "address"
        },
        {
          "internalType": "address",
          "name": "mainAddress2_",
          "type": "address"
        }
      ],
      "stateMutability": "nonpayable",
      "type": "constructor"
    },
    {
      "inputs": [
        {
          "internalType": "uint256",
          "name": "errorId_",
          "type": "uint256"
        }
      ],
      "name": "FluidDexError",
      "type": "error"
    },
    {
      "inputs": [
        {
          "internalType": "uint256",
          "name": "errorId",
          "type": "uint256"
        }
      ],
      "name": "FluidDexFactoryError",
      "type": "error"
    },
    {
      "inputs": [
        {
          "internalType": "uint256",
          "name": "shares_",
          "type": "uint256"
        }
      ],
      "name": "FluidDexLiquidityOutput",
      "type": "error"
    },
    {
      "inputs": [
        {
          "internalType": "uint256",
          "name": "token0Amt",
          "type": "uint256"
        },
        {
          "internalType": "uint256",
          "name": "token1Amt",
          "type": "uint256"
        }
      ],
      "name": "FluidDexPerfectLiquidityOutput",
      "type": "error"
    },
    {
      "inputs": [
        {
          "components": [
            {
              "internalType": "uint256",
              "name": "lastStoredPrice",
              "type": "uint256"
            },
            {
              "internalType": "uint256",
              "name": "centerPrice",
              "type": "uint256"
            },
            {
              "internalType": "uint256",
              "name": "upperRange",
              "type": "uint256"
            },
            {
              "internalType": "uint256",
              "name": "lowerRange",
              "type": "uint256"
            },
            {
              "internalType": "uint256",
              "name": "geometricMean",
              "type": "uint256"
            },
            {
              "internalType": "uint256",
              "name": "supplyToken0ExchangePrice",
              "type": "uint256"
            },
            {
              "internalType": "uint256",
              "name": "borrowToken0ExchangePrice",
              "type": "uint256"
            },
            {
              "internalType": "uint256",
              "name": "supplyToken1ExchangePrice",
              "type": "uint256"
            },
            {
              "internalType": "uint256",
              "name": "borrowToken1ExchangePrice",
              "type": "uint256"
            }
          ],
          "internalType": "struct Structs.PricesAndExchangePrice",
          "name": "pex_",
          "type": "tuple"
        }
      ],
      "name": "FluidDexPricesAndExchangeRates",
      "type": "error"
    },
    {
      "inputs": [
        {
          "internalType": "uint256",
          "name": "tokenAmt",
          "type": "uint256"
        }
      ],
      "name": "FluidDexSingleTokenOutput",
      "type": "error"
    },
    {
      "inputs": [
        {
          "internalType": "uint256",
          "name": "amountOut",
          "type": "uint256"
        }
      ],
      "name": "FluidDexSwapResult",
      "type": "error"
    },
    {
      "anonymous": false,
      "inputs": [
        {
          "indexed": true,
          "internalType": "address",
          "name": "dex",
          "type": "address"
        },
        {
          "indexed": false,
          "internalType": "uint256",
          "name": "dexId",
          "type": "uint256"
        },
        {
          "indexed": true,
          "internalType": "address",
          "name": "supplyToken",
          "type": "address"
        },
        {
          "indexed": true,
          "internalType": "address",
          "name": "borrowToken",
          "type": "address"
        }
      ],
      "name": "DexT1Deployed",
      "type": "event"
    },
    {
      "inputs": [],
      "name": "ADDRESS_THIS",
      "outputs": [
        {
          "internalType": "address",
          "name": "",
          "type": "address"
        }
      ],
      "stateMutability": "view",
      "type": "function"
    },
    {
      "inputs": [],
      "name": "ADMIN_IMPLEMENTATION",
      "outputs": [
        {
          "internalType": "address",
          "name": "",
          "type": "address"
        }
      ],
      "stateMutability": "view",
      "type": "function"
    },
    {
      "inputs": [],
      "name": "CONTRACT_DEPLOYER",
      "outputs": [
        {
          "internalType": "address",
          "name": "",
          "type": "address"
        }
      ],
      "stateMutability": "view",
      "type": "function"
    },
    {
      "inputs": [],
      "name": "DEX_FACTORY",
      "outputs": [
        {
          "internalType": "address",
          "name": "",
          "type": "address"
        }
      ],
      "stateMutability": "view",
      "type": "function"
    },
    {
      "inputs": [],
      "name": "LIQUIDITY",
      "outputs": [
        {
          "internalType": "address",
          "name": "",
          "type": "address"
        }
      ],
      "stateMutability": "view",
      "type": "function"
    },
    {
      "inputs": [],
      "name": "MINI_DEPLOYER",
      "outputs": [
        {
          "internalType": "contract MiniDeployer",
          "name": "",
          "type": "address"
        }
      ],
      "stateMutability": "view",
      "type": "function"
    },
    {
      "inputs": [],
      "name": "SHIFT_IMPLEMENTATION",
      "outputs": [
        {
          "internalType": "address",
          "name": "",
          "type": "address"
        }
      ],
      "stateMutability": "view",
      "type": "function"
    },
    {
      "inputs": [],
      "name": "colOperationsCreationCode",
      "outputs": [
        {
          "internalType": "bytes",
          "name": "",
          "type": "bytes"
        }
      ],
      "stateMutability": "view",
      "type": "function"
    },
    {
      "inputs": [],
      "name": "debtOperationsCreationCode",
      "outputs": [
        {
          "internalType": "bytes",
          "name": "",
          "type": "bytes"
        }
      ],
      "stateMutability": "view",
      "type": "function"
    },
    {
      "inputs": [
        {
          "internalType": "address",
          "name": "token0_",
          "type": "address"
        },
        {
          "internalType": "address",
          "name": "token1_",
          "type": "address"
        },
        {
          "internalType": "uint256",
          "name": "oracleMapping_",
          "type": "uint256"
        }
      ],
      "name": "dexT1",
      "outputs": [
        {
          "internalType": "bytes",
          "name": "dexCreationBytecode_",
          "type": "bytes"
        }
      ],
      "stateMutability": "nonpayable",
      "type": "function"
    },
    {
      "inputs": [],
      "name": "dexT1CreationBytecode",
      "outputs": [
        {
          "internalType": "bytes",
          "name": "",
          "type": "bytes"
        }
      ],
      "stateMutability": "view",
      "type": "function"
    },
    {
      "inputs": [],
      "name": "perfectOperationsCreationCode",
      "outputs": [
        {
          "internalType": "bytes",
          "name": "",
          "type": "bytes"
        }
      ],
      "stateMutability": "view",
      "type": "function"
    }
  ],
  "transactionHash": "0xb4e73749a3bcf7d1a045eacf36431f07cf9d981244a1172fe542f9d54755b009",
  "args": [
    "0x52Aa899454998Be5b000Ad077a46Bbe360F4e497",
    "0x91716C4EDA1Fb55e84Bf8b4c7085f84285c19085",
    "0x4EC7b668BAF70d4A4b0FC7941a7708A07b6d45Be",
    "0x5aB54297FbAf4d0f00538ef53b28c12A1F9CC470",
    "0x4a5a27901DBb1D6A976ad60692BF030d10435e08",
    "0xA5bddbf162E813486191e80bF0214E33d3309E93",
    "0x09D499DF1Ac683C797c0ca84E6B73B8684d637d7",
    "0xD029B6d3fe0d45cdcda2Bc1aB7095a0457EBFf5D",
    "0x74563EcBA23B2399CBfC5aBBeFc16b5C5A7323eb"
  ],
  "numDeployments": 1,
  "solcInputHash": "6c39fb1e38aa412950395abacde4fd8b",
  "bytecode": "0x6102206040523480156200001257600080fd5b506040516200764a3803806200764a8339810160408190526200003591620001ac565b6001600160a01b03808a16610140528881166101608190528882166101c05283821660805290821660a0523061020052604051620000739062000165565b6001600160a01b039091168152602001604051809103906000f080158015620000a0573d6000803e3d6000fd5b506001600160a01b03166101e052604051600090620000bf9062000173565b604051809103906000f080158015620000dc573d6000803e3d6000fd5b506001600160a01b038116610180526101c051604051919250600091620001039062000181565b6001600160a01b039091168152602001604051809103906000f08015801562000130573d6000803e3d6000fd5b506001600160a01b039081166101a05297881660c0525050505091831660e05282166101005216610120525062000267915050565b6104f4806200154583390190565b614f208062001a3983390190565b610cf1806200695983390190565b80516001600160a01b0381168114620001a757600080fd5b919050565b60008060008060008060008060006101208a8c031215620001cc57600080fd5b620001d78a6200018f565b9850620001e760208b016200018f565b9750620001f760408b016200018f565b96506200020760608b016200018f565b95506200021760808b016200018f565b94506200022760a08b016200018f565b93506200023760c08b016200018f565b92506200024760e08b016200018f565b9150620002586101008b016200018f565b90509295985092959850929598565b60805160a05160c05160e05161010051610120516101405161016051610180516101a0516101c0516101e0516102005161120a6200033b600039600081816101f0015261037b01526000818161016b0152818161070b0152818161080e015261091101526000818161019201526105c2015260008181610144015261059d0152600081816102170152610a2c015260006101b901526000818160de015261056301526000610313015260006102ea0152600061033e015260006102bc015260006102870152600061025e015261120a6000f3fe608060405234801561001057600080fd5b50600436106100d45760003560e01c8063c758ec5611610081578063cc2fe94b1161005b578063cc2fe94b14610212578063d71f047014610239578063da3d57cb1461024157600080fd5b8063c758ec56146101db578063c995fa7a146101e3578063cc025f7c146101eb57600080fd5b80638cb1b071116100b25780638cb1b071146101665780639603fd271461018d57806397b87b4a146101b457600080fd5b80632861c7d1146100d95780635d5b87e01461012a5780637f2f809e1461013f575b600080fd5b6101007f000000000000000000000000000000000000000000000000000000000000000081565b60405173ffffffffffffffffffffffffffffffffffffffff90911681526020015b60405180910390f35b610132610254565b6040516101219190610ee5565b6101007f000000000000000000000000000000000000000000000000000000000000000081565b6101007f000000000000000000000000000000000000000000000000000000000000000081565b6101007f000000000000000000000000000000000000000000000000000000000000000081565b6101007f000000000000000000000000000000000000000000000000000000000000000081565b6101326102b5565b6101326102e0565b6101007f000000000000000000000000000000000000000000000000000000000000000081565b6101007f000000000000000000000000000000000000000000000000000000000000000081565b610132610337565b61013261024f366004610f5b565b610362565b60606102b06102827f0000000000000000000000000000000000000000000000000000000000000000610b6b565b6102ab7f0000000000000000000000000000000000000000000000000000000000000000610b6b565b610b9f565b905090565b60606102b07f0000000000000000000000000000000000000000000000000000000000000000610b6b565b60606102b061030e7f0000000000000000000000000000000000000000000000000000000000000000610b6b565b6102ab7f0000000000000000000000000000000000000000000000000000000000000000610b6b565b60606102b07f0000000000000000000000000000000000000000000000000000000000000000610b6b565b606073ffffffffffffffffffffffffffffffffffffffff7f00000000000000000000000000000000000000000000000000000000000000001630036103dc576040517f2fee3e0e00000000000000000000000000000000000000000000000000000000815261cf0e60048201526024015b60405180910390fd5b8273ffffffffffffffffffffffffffffffffffffffff168473ffffffffffffffffffffffffffffffffffffffff1603610445576040517f2fee3e0e00000000000000000000000000000000000000000000000000000000815261cf0b60048201526024016103d3565b8273ffffffffffffffffffffffffffffffffffffffff168473ffffffffffffffffffffffffffffffffffffffff1611156104af576040517f2fee3e0e00000000000000000000000000000000000000000000000000000000815261cf0c60048201526024016103d3565b61054c604080516101c08101825260008082526020808301829052828401829052835160a08101855282815290810182905292830181905260608381018290526080840191909152909190820190815260006020820181905260408201819052606082018190526080820181905260a0820181905260c0820181905260e08201819052610100820181905261012082018190526101409091015290565b73ffffffffffffffffffffffffffffffffffffffff7f0000000000000000000000000000000000000000000000000000000000000000811660208084019190915230604080850182905260608501517f0000000000000000000000000000000000000000000000000000000000000000851690527f00000000000000000000000000000000000000000000000000000000000000008416608086015288841660a086015292871660c085015282517f93656c17000000000000000000000000000000000000000000000000000000008152925190926393656c179260048083019391928290030181865afa158015610648573d6000803e3d6000fd5b505050506040513d601f19601f8201168201806040525081019061066c9190610f9c565b8082526101a082018490526040517f12e366aa00000000000000000000000000000000000000000000000000000000815260009130916312e366aa916106b89160040190815260200190565b602060405180830381865afa1580156106d5573d6000803e3d6000fd5b505050506040513d601f19601f820116820180604052508101906106f99190610fb5565b90506107058282610c17565b915060007f000000000000000000000000000000000000000000000000000000000000000073ffffffffffffffffffffffffffffffffffffffff1663798133dd61074d6102e0565b8560405160200161075e9190610fd9565b604080517fffffffffffffffffffffffffffffffffffffffffffffffffffffffffffffffe08184030181529082905261079a929160200161116b565b6040516020818303038152906040526040518263ffffffff1660e01b81526004016107c59190610ee5565b6020604051808303816000875af11580156107e4573d6000803e3d6000fd5b505050506040513d601f19601f820116820180604052508101906108089190610fb5565b905060007f000000000000000000000000000000000000000000000000000000000000000073ffffffffffffffffffffffffffffffffffffffff1663798133dd6108506102b5565b866040516020016108619190610fd9565b604080517fffffffffffffffffffffffffffffffffffffffffffffffffffffffffffffffe08184030181529082905261089d929160200161116b565b6040516020818303038152906040526040518263ffffffff1660e01b81526004016108c89190610ee5565b6020604051808303816000875af11580156108e7573d6000803e3d6000fd5b505050506040513d601f19601f8201168201806040525081019061090b9190610fb5565b905060007f000000000000000000000000000000000000000000000000000000000000000073ffffffffffffffffffffffffffffffffffffffff1663798133dd610953610337565b876040516020016109649190610fd9565b604080517fffffffffffffffffffffffffffffffffffffffffffffffffffffffffffffffe0818403018152908290526109a0929160200161116b565b6040516020818303038152906040526040518263ffffffff1660e01b81526004016109cb9190610ee5565b6020604051808303816000875af11580156109ea573d6000803e3d6000fd5b505050506040513d601f19601f82011682018060405250810190610a0e9190610fb5565b6060808701805173ffffffffffffffffffffffffffffffffffffffff7f00000000000000000000000000000000000000000000000000000000000000008116602090920191909152815187821660809091015281518682166040919091015290519083169101529050610a7f610254565b85604051602001610a909190610fd9565b604080517fffffffffffffffffffffffffffffffffffffffffffffffffffffffffffffffe081840301815290829052610acc929160200161116b565b60405160208183030381529060405295508773ffffffffffffffffffffffffffffffffffffffff168973ffffffffffffffffffffffffffffffffffffffff168573ffffffffffffffffffffffffffffffffffffffff167f3fecd5f7aca6136a20a999e7d11ff5dcea4bd675cb125f93ccd7d53f98ec57e48860000151604051610b5791815260200190565b60405180910390a450505050509392505050565b6060610b99826001610b948173ffffffffffffffffffffffffffffffffffffffff84163b61119a565b610e80565b92915050565b60606040519050825180825260208201818101602086015b81831015610bcf578051835260209283019201610bb7565b50845184518101855292509050808201602085015b81831015610bfc578051835260209283019201610be4565b50601f19601f87518501158301011660405250505092915050565b610cb4604080516101c08101825260008082526020808301829052828401829052835160a08101855282815290810182905292830181905260608381018290526080840191909152909190820190815260006020820181905260408201819052606082018190526080820181905260a0820181905260c0820181905260e08201819052610100820181905261012082018190526101409091015290565b5060a082810180516040805173ffffffffffffffffffffffffffffffffffffffff9586166020808301829052600883850181905284518085038601815260608086018752815191840191909120968a16608080870191909152858a019790975285518086038a01815260c0958601875280519084012060e08c015287518651808501869052600981890181905288518083038a0181528285018a52805190870120928d16828b0152818c019290925287518082038c01815290870188528051908501206101008d0152858c0180518851808701889052808a019590955288518086038a0181528585018a52805190870120908d16858b0152848c015287518085038c01815293870188528351938501939093206101208d01528251875180860196909652858801919091528651808603880181528583018852805190850120908b1697850197909752838901969096528451808403909801885291909201835285519582019590952061014088015292518151908616818501526005818301819052825180830384018152918401835281519185019190912061016088015293518151951685840152848101939093528251808503840181529301909152815191012061018082015290565b60408051603f83017fffffffffffffffffffffffffffffffffffffffffffffffffffffffffffffffe0168101909152818152818360208301863c9392505050565b60005b83811015610edc578181015183820152602001610ec4565b50506000910152565b6020815260008251806020840152610f04816040850160208701610ec1565b601f017fffffffffffffffffffffffffffffffffffffffffffffffffffffffffffffffe0169190910160400192915050565b73ffffffffffffffffffffffffffffffffffffffff81168114610f5857600080fd5b50565b600080600060608486031215610f7057600080fd5b8335610f7b81610f36565b92506020840135610f8b81610f36565b929592945050506040919091013590565b600060208284031215610fae57600080fd5b5051919050565b600060208284031215610fc757600080fd5b8151610fd281610f36565b9392505050565b8151815260208083015161024083019161100a9084018273ffffffffffffffffffffffffffffffffffffffff169052565b506040830151611032604084018273ffffffffffffffffffffffffffffffffffffffff169052565b506060830151611090606084018273ffffffffffffffffffffffffffffffffffffffff808251168352806020830151166020840152806040830151166040840152806060830151166060840152806080830151166080840152505050565b5060808301516101006110ba8185018373ffffffffffffffffffffffffffffffffffffffff169052565b60a085015191506101206110e58186018473ffffffffffffffffffffffffffffffffffffffff169052565b60c086015192506101406111108187018573ffffffffffffffffffffffffffffffffffffffff169052565b60e0870151610160878101919091529287015161018080880191909152918701516101a080880191909152908701516101c0870152918601516101e08601528501516102008501529093015161022090920191909152919050565b6000835161117d818460208801610ec1565b835190830190611191818360208801610ec1565b01949350505050565b81810381811115610b99577f4e487b7100000000000000000000000000000000000000000000000000000000600052601160045260246000fdfea264697066735822122086f29ac6a1a59f6dedb84783fef9fbae98eba8600668c540b5fd6b1486695c4e64736f6c63430008150033608060405234801561001057600080fd5b506040516104f43803806104f483398101604081905261002f9161007e565b600080546001600160a01b0319166001600160a01b03831690811782556040518392907f8be0079c531659141344cd1fd0a4f28419497f9722a3daafe3b4186f6b6457e0908290a350506100ae565b60006020828403121561009057600080fd5b81516001600160a01b03811681146100a757600080fd5b9392505050565b610437806100bd6000396000f3fe608060405234801561001057600080fd5b50600436106100415760003560e01c8063798133dd146100465780638da5cb5b14610082578063f2fde38b146100a2575b600080fd5b610059610054366004610352565b6100b7565b60405173ffffffffffffffffffffffffffffffffffffffff909116815260200160405180910390f35b6000546100599073ffffffffffffffffffffffffffffffffffffffff1681565b6100b56100b03660046103c4565b6101c7565b005b6000805473ffffffffffffffffffffffffffffffffffffffff16331461013e576040517f08c379a000000000000000000000000000000000000000000000000000000000815260206004820152600c60248201527f554e415554484f52495a4544000000000000000000000000000000000000000060448201526064015b60405180910390fd5b61017d83838080601f0160208091040260200160405190810160405280939291908181526020018383808284376000920191909152506102b892505050565b60405190915073ffffffffffffffffffffffffffffffffffffffff8216907ff40020e78c6e173ba88aa2c344ed520fab87fe67b9e5aa34626af9d86a3cd47b90600090a292915050565b60005473ffffffffffffffffffffffffffffffffffffffff163314610248576040517f08c379a000000000000000000000000000000000000000000000000000000000815260206004820152600c60248201527f554e415554484f52495a454400000000000000000000000000000000000000006044820152606401610135565b600080547fffffffffffffffffffffffff00000000000000000000000000000000000000001673ffffffffffffffffffffffffffffffffffffffff83169081178255604051909133917f8be0079c531659141344cd1fd0a4f28419497f9722a3daafe3b4186f6b6457e09190a350565b600081516000036102f5576040517f830297c900000000000000000000000000000000000000000000000000000000815260040160405180910390fd5b8151602083016000f0905073ffffffffffffffffffffffffffffffffffffffff811661034d576040517f830297c900000000000000000000000000000000000000000000000000000000815260040160405180910390fd5b919050565b6000806020838503121561036557600080fd5b823567ffffffffffffffff8082111561037d57600080fd5b818501915085601f83011261039157600080fd5b8135818111156103a057600080fd5b8660208285010111156103b257600080fd5b60209290920196919550909350505050565b6000602082840312156103d657600080fd5b813573ffffffffffffffffffffffffffffffffffffffff811681146103fa57600080fd5b939250505056fea2646970667358221220af536c9afad3ba8d61e4562d1c33e55496e94a329eeae2c137be91332db73f0164736f6c6343000815003360a060405234801561001057600080fd5b5030608052608051614e646100bc6000396000818161047c0152818161067701528181610a6401528181610bf301528181610ec70152818161111901528181611279015281816118150152818161196201528181611a7201528181611bc001528181611dac0152818161204e015281816122ce015281816123df0152818161253b015281816126f401528181612b0f01528181612c2801528181612e83015261307e0152614e646000f3fe6080604052600436106101755760003560e01c8063a295521c116100cb578063b5c736e41161007f578063e53b201711610059578063e53b2017146103bd578063e552a1e3146103dd578063fbfe2dac146103fd57600080fd5b8063b5c736e41461034c578063ba9af1e31461037d578063d2905ed61461039d57600080fd5b8063a9a362da116100b0578063a9a362da146102ec578063b3889bf41461030c578063b4e1e0321461032c57600080fd5b8063a295521c146102ac578063a71e4958146102cc57600080fd5b8063565ade831161012d57806374f04a361161010757806374f04a361461026457806382df165214610277578063999c14461461028c57600080fd5b8063565ade831461021c5780635cbbba281461023c5780636552d9661461024f57600080fd5b80632af693771161015e5780632af69377146101bc57806346887549146101dc57806353a97b41146101fc57600080fd5b8063021f4f451461017a57806326fda0b61461019c575b600080fd5b34801561018657600080fd5b5061019a61019536600461432c565b61041d565b005b3480156101a857600080fd5b5061019a6101b736600461449d565b61061d565b3480156101c857600080fd5b5061019a6101d7366004614575565b610a0a565b3480156101e857600080fd5b5061019a6101f73660046145ac565b610bdc565b34801561020857600080fd5b5061019a6102173660046145f1565b610e6d565b34801561022857600080fd5b5061019a61023736600461461d565b611102565b61019a61024a36600461463f565b611262565b34801561025b57600080fd5b5061019a6117fe565b61019a61027236600461432c565b611908565b34801561028357600080fd5b5061019a611a5b565b34801561029857600080fd5b5061019a6102a7366004614575565b611b66565b3480156102b857600080fd5b5061019a6102c7366004614713565b611d52565b3480156102d857600080fd5b5061019a6102e7366004614745565b611ff4565b3480156102f857600080fd5b5061019a61030736600461432c565b612274565b34801561031857600080fd5b5061019a61032736600461432c565b6123c8565b34801561033857600080fd5b5061019a610347366004614575565b6124e1565b34801561035857600080fd5b5061036b61036736600461432c565b5490565b60405190815260200160405180910390f35b34801561038957600080fd5b5061019a610398366004614771565b61269a565b3480156103a957600080fd5b5061019a6103b836600461432c565b612af8565b3480156103c957600080fd5b5061019a6103d836600461484c565b612c11565b3480156103e957600080fd5b5061019a6103f83660046145f1565b612e29565b34801561040957600080fd5b5061019a6104183660046145ac565b613067565b600154600316600003610465576040517f2fee3e0e00000000000000000000000000000000000000000000000000000000815261cb2160048201526024015b60405180910390fd5b73ffffffffffffffffffffffffffffffffffffffff7f00000000000000000000000000000000000000000000000000000000000000001630036104d8576040517f2fee3e0e00000000000000000000000000000000000000000000000000000000815261cb28600482015260240161045c565b633fffffff81111561051a576040517f2fee3e0e00000000000000000000000000000000000000000000000000000000815261cb24600482015260240161045c565b80156105b25760003073ffffffffffffffffffffffffffffffffffffffff1663b7791bf26040518163ffffffff1660e01b815260040161024060405180830381865afa15801561056e573d6000803e3d6000fd5b505050506040513d601f19601f8201168201806040525081019061059291906148ef565b905060006105a482608001518461332c565b90506105af81613798565b50505b600180547ffffffffffffffffffffff00000003fffffffffffffffffffffffffffffffffff16608e83901b1790556040517f94102a9d6162476c3137d9fd67d61facaaa3948cf6bf84ee18357a1d5b8c8d67906106129083815260200190565b60405180910390a150565b600154600316600003610660576040517f2fee3e0e00000000000000000000000000000000000000000000000000000000815261cb21600482015260240161045c565b73ffffffffffffffffffffffffffffffffffffffff7f00000000000000000000000000000000000000000000000000000000000000001630036106d3576040517f2fee3e0e00000000000000000000000000000000000000000000000000000000815261cb28600482015260240161045c565b6000805b82518110156109ce576107068382815181106106f5576106f56149d6565b602002602001015160000151613798565b828181518110610718576107186149d6565b602002602001015160400151600003610761576040517f2fee3e0e00000000000000000000000000000000000000000000000000000000815261cb26600482015260240161045c565b612710838281518110610776576107766149d6565b60200260200101516020015111156107be576040517f2fee3e0e00000000000000000000000000000000000000000000000000000000815261cb24600482015260240161045c565b62ffffff8382815181106107d4576107d46149d6565b602002602001015160400151111561081c576040517f2fee3e0e00000000000000000000000000000000000000000000000000000000815261cb24600482015260240161045c565b82818151811061082e5761082e6149d6565b602002602001015160600151600003610877576040517f2fee3e0e00000000000000000000000000000000000000000000000000000000815261cb26600482015260240161045c565b6003600084838151811061088d5761088d6149d6565b60200260200101516000015173ffffffffffffffffffffffffffffffffffffffff1673ffffffffffffffffffffffffffffffffffffffff16815260200190815260200160002054915060c861090f600a600860008786815181106108f3576108f36149d6565b6020026020010151606001516137f0909392919063ffffffff16565b901b60b0848381518110610925576109256149d6565b602002602001015160400151901b60a2858481518110610947576109476149d6565b602002602001015160200151901b847ffffffffffc00000000000003ffffffffffffffffffffffffffffffffffffffff1660011717171760036000858481518110610994576109946149d6565b6020908102919091018101515173ffffffffffffffffffffffffffffffffffffffff168252810191909152604001600020556001016106d7565b507fd680117828f16ca739150617fc61e326f97e4d9581d61b58992153b92c74fc73826040516109fe9190614a05565b60405180910390a15050565b600154600316600003610a4d576040517f2fee3e0e00000000000000000000000000000000000000000000000000000000815261cb21600482015260240161045c565b73ffffffffffffffffffffffffffffffffffffffff7f0000000000000000000000000000000000000000000000000000000000000000163003610ac0576040517f2fee3e0e00000000000000000000000000000000000000000000000000000000815261cb28600482015260240161045c565b8015801590610ad0575061271081105b15610b0b576040517f2fee3e0e00000000000000000000000000000000000000000000000000000000815261cb26600482015260240161045c565b610b1761271082614aae565b9050620186a0821180610b2a5750606481115b15610b65576040517f2fee3e0e00000000000000000000000000000000000000000000000000000000815261cb24600482015260240161045c565b600180547ffffffffffffffffffffffffffffffffffffffffffffffffffffffffffc00000316600284901b17601383901b1790557f8708c2a2bbba04e8e9c7448cd64dc109b367341f5504a9835ffb5e7d9ae08ef682610bc761271084614ae9565b604080519283526020830191909152016109fe565b73ffffffffffffffffffffffffffffffffffffffff7f0000000000000000000000000000000000000000000000000000000000000000163003610c4f576040517f2fee3e0e00000000000000000000000000000000000000000000000000000000815261cb28600482015260240161045c565b610c5883613798565b60008215610d32575073ffffffffffffffffffffffffffffffffffffffff831660009081526003602052604081205490819003610cc5576040517f2fee3e0e00000000000000000000000000000000000000000000000000000000815261cb27600482015260240161045c565b80600116600103610d06576040517f2fee3e0e00000000000000000000000000000000000000000000000000000000815261cb29600482015260240161045c565b73ffffffffffffffffffffffffffffffffffffffff841660009081526003602052604090206001821790555b8115610e0a575073ffffffffffffffffffffffffffffffffffffffff831660009081526005602052604081205490819003610d9d576040517f2fee3e0e00000000000000000000000000000000000000000000000000000000815261cb27600482015260240161045c565b80600116600103610dde576040517f2fee3e0e00000000000000000000000000000000000000000000000000000000815261cb29600482015260240161045c565b73ffffffffffffffffffffffffffffffffffffffff841660009081526005602052604090206001821790555b6040805173ffffffffffffffffffffffffffffffffffffffff861681528415156020820152831515918101919091527faf3eea5162d915eca532881ca41e1a5292bda2947fe94711cad3b4bb260b57f0906060015b60405180910390a150505050565b600154600316600003610eb0576040517f2fee3e0e00000000000000000000000000000000000000000000000000000000815261cb21600482015260240161045c565b73ffffffffffffffffffffffffffffffffffffffff7f0000000000000000000000000000000000000000000000000000000000000000163003610f23576040517f2fee3e0e00000000000000000000000000000000000000000000000000000000815261cb28600482015260240161045c565b633fffffff831180610f33575081155b80610f405750620fffff82115b80610f49575080155b80610f565750620fffff81115b15610f91576040517f2fee3e0e00000000000000000000000000000000000000000000000000000000815261cb24600482015260240161045c565b821561108d5760003073ffffffffffffffffffffffffffffffffffffffff1663b7791bf26040518163ffffffff1660e01b815260040161024060405180830381865afa158015610fe5573d6000803e3d6000fd5b505050506040513d601f19601f8201168201806040525081019061100991906148ef565b9050600061101b82608001518661332c565b905061102681613798565b5050600180547ffeffffffffffffffffffffffffffc0000000ffffffffffffffffffffffffffff16607085901b177f010000000000000000000000000000000000000000000000000000000000000017905542602183901b17603582901b176008556110bb565b600180547ffeffffffffffffffffffffffffffc0000000ffffffffffffffffffffffffffff16905560006008555b60408051848152602081018490529081018290527f06020920d3b0c76370853b723475139901039a0e0d8a2b442b2fc50587a80475906060015b60405180910390a1505050565b73ffffffffffffffffffffffffffffffffffffffff7f0000000000000000000000000000000000000000000000000000000000000000163003611175576040517f2fee3e0e00000000000000000000000000000000000000000000000000000000815261cb28600482015260240161045c565b600054600160c382901c811614801561118b5750815b806111a45750600160c382901c161580156111a4575081155b156111df576040517f2fee3e0e00000000000000000000000000000000000000000000000000000000815261cb26600482015260240161045c565b81156112095778080000000000000000000000000000000000000000000000008117600055611230565b7ffffffffffffffff7ffffffffffffffffffffffffffffffffffffffffffffffff81166000555b60405182151581527f6ac506c34780fe3464d2bb2861da5726cf15b2e1e42961aa0283d2628923125d906020016109fe565b73ffffffffffffffffffffffffffffffffffffffff7f00000000000000000000000000000000000000000000000000000000000000001630036112d5576040517f2fee3e0e00000000000000000000000000000000000000000000000000000000815261cb28600482015260240161045c565b6112f2734f6f977acdd1177dcd81ab83074855ecb9c2d49e613798565b805180611300575080604001515b61133a576040517f2fee3e0e00000000000000000000000000000000000000000000000000000000815261cb26600482015260240161045c565b60c08101511580159061135257506127108160c00151105b1561138d576040517f2fee3e0e00000000000000000000000000000000000000000000000000000000815261cb26600482015260240161045c565b6127108160c0015161139f9190614aae565b60c08201526101208101516113b7906103e890614aae565b6101208201526101408101516113d0906103e890614aae565b61014082015260a0810151620186a010806113ef575060648160c00151115b8061140b5750611404612710620f4240614b00565b8160e00151115b806114285750611420612710620f4240614b00565b816101000151115b80611435575060e0810151155b806114435750610100810151155b8061145457506103e8816101200151115b8061146557506103e8816101400151115b80611483575061012081015115801561148357506000816101400151115b806114a1575060008161012001511180156114a15750610140810151155b806114af5750610160810151155b806114c1575062ffffff816101600151115b806114d45750633fffffff816101800151115b806114e75750633fffffff816101a00151115b806114fb5750806101e00151816080015111155b8061150f5750806101c00151816080015110155b8061151d57506101e0810151155b15611558576040517f2fee3e0e00000000000000000000000000000000000000000000000000000000815261cb24600482015260240161045c565b8051600090156115785761157482602001518360800151613919565b6001175b8160400151156115985761159482606001518360800151613e7b565b6002175b60808201516115ac906020600860006137f0565b6080830181905276070000f000000000000000000000000000000000000000600182901b602983901b1760519290921b919091174260791b171760009081556101e08301517efa000000000000000000000000000000000000000000000000000000000000917d3e80000000000000000000000000000000000000000000000000000000009160c89161164591906014906008906137f0565b6101c0860151911b9060ac90611660906014600860016137f0565b901b608e866101a00151901b6070876101800151901b6058886101600151901b604e896101400151901b60448a6101200151901b602f8b6101000151901b601b8c60e00151901b60138d60c00151901b60028e60a00151901b8d171717171717171717171717176001819055507fa2bd88124c6cef5f905c8de83ae31b7495469be7a44f0a14ec766e4f2926b9e482600001518360400151846020015185606001518660a001516127108860c001516117199190614ae9565b6101808901516101a08a01516040805198151589529615156020890152958701949094526060860192909252608085015260a084015260c083015260e08201526101000160405180910390a17f4df8f1fe60aa37610aa9a5f2958b11c634c2b231797213ea15069cd214bfb7888260e001518361010001516103e88561012001516117a49190614ae9565b6103e88661014001516117b79190614ae9565b6101608701516101c08801516101e0890151604080519788526020880196909652948601939093526060850191909152608084015260a083015260c082015260e0016109fe565b73ffffffffffffffffffffffffffffffffffffffff7f0000000000000000000000000000000000000000000000000000000000000000163003611871576040517f2fee3e0e00000000000000000000000000000000000000000000000000000000815261cb28600482015260240161045c565b60015460ff81901c6000036118b6576040517f2fee3e0e00000000000000000000000000000000000000000000000000000000815261cb26600482015260240161045c565b7f7fffffffffffffffffffffffffffffffffffffffffffffffffffffffffffffff81166001556040517f665227fdef5dd5aac81086c2301f0e50676c351cf8da0f456de2c2c3e16409de90600090a150565b60015460031660000361194b576040517f2fee3e0e00000000000000000000000000000000000000000000000000000000815261cb21600482015260240161045c565b73ffffffffffffffffffffffffffffffffffffffff7f00000000000000000000000000000000000000000000000000000000000000001630036119be576040517f2fee3e0e00000000000000000000000000000000000000000000000000000000815261cb28600482015260240161045c565b600154600116600103611a01576040517f2fee3e0e00000000000000000000000000000000000000000000000000000000815261cb22600482015260240161045c565b600054605981901c63ffffffff1660519190911c60ff161b611a238282613919565b60018054811790556040518281527fa56b37b3edf9e1379ca408e58c1d4d85d03aa751c1dd8b76fa9813bfb2f9793d906020016109fe565b73ffffffffffffffffffffffffffffffffffffffff7f0000000000000000000000000000000000000000000000000000000000000000163003611ace576040517f2fee3e0e00000000000000000000000000000000000000000000000000000000815261cb28600482015260240161045c565b600180549060ff82901c9003611b14576040517f2fee3e0e00000000000000000000000000000000000000000000000000000000815261cb26600482015260240161045c565b7f800000000000000000000000000000000000000000000000000000000000000081176001556040517f84039da4130b96ef0fa0fffa1bb1306c814913702f63ede2d1cbcdfa43fc67d690600090a150565b600154600316600003611ba9576040517f2fee3e0e00000000000000000000000000000000000000000000000000000000815261cb21600482015260240161045c565b73ffffffffffffffffffffffffffffffffffffffff7f0000000000000000000000000000000000000000000000000000000000000000163003611c1c576040517f2fee3e0e00000000000000000000000000000000000000000000000000000000815261cb28600482015260240161045c565b8115801590611c2c57506103e882105b80611c4257508015801590611c4257506103e881105b15611c7d576040517f2fee3e0e00000000000000000000000000000000000000000000000000000000815261cb26600482015260240161045c565b611c896103e883614aae565b9150611c976103e882614aae565b90506103e8821180611caa57506103e881115b15611ce5576040517f2fee3e0e00000000000000000000000000000000000000000000000000000000815261cb24600482015260240161045c565b600180547fff00000fffffffffffffffffffffffffffffffffffffffffffffffffffffffff1660e484901b1760ee83901b1790557f6d66190870f5a401bd2f24056c4f721a7a9e522501ea222a140bbc2debd302cd611d466103e884614ae9565b610bc76103e884614ae9565b600154600316600003611d95576040517f2fee3e0e00000000000000000000000000000000000000000000000000000000815261cb21600482015260240161045c565b73ffffffffffffffffffffffffffffffffffffffff7f0000000000000000000000000000000000000000000000000000000000000000163003611e08576040517f2fee3e0e00000000000000000000000000000000000000000000000000000000815261cb28600482015260240161045c565b600154611e176103e886614aae565b9450611e256103e885614aae565b93506103e8851180611e3857506103e884115b80611e41575082155b80611e4e575062ffffff83115b80611e62575084158015611e625750600084115b80611e765750600085118015611e76575083155b80611e835750620fffff82115b80611e955750604381901c6001166001145b15611ed0576040517f2fee3e0e00000000000000000000000000000000000000000000000000000000815261cb24600482015260240161045c565b605883901b604e85901b604487901b604360008611611ef0576000611ef3565b60015b60ff16901b7fffffffffffffffffffffffffffffffffffff000000000007ffffffffffffffff8516171717176001556103ff604482901c811690604e83901c1662ffffff605884901c168415611f8b57600780546fffffffffffffffffffffffffffffffff601485901b8617602889901b1742603c1b17605d85901b1781167001000000000000000000000000000000000291161790555b7fdb32664896dae5696540e472ef73d084b10faf79a5560470bd88d34daee92401611fb86103e88a614ae9565b611fc46103e88a614ae9565b60408051928352602083019190915281018890526060810187905260800160405180910390a15050505050505050565b600154600316600003612037576040517f2fee3e0e00000000000000000000000000000000000000000000000000000000815261cb21600482015260240161045c565b73ffffffffffffffffffffffffffffffffffffffff7f00000000000000000000000000000000000000000000000000000000000000001630036120aa576040517f2fee3e0e00000000000000000000000000000000000000000000000000000000815261cb28600482015260240161045c565b6120b382613798565b73ffffffffffffffffffffffffffffffffffffffff821660009081526003602052604081205490819003612117576040517f2fee3e0e00000000000000000000000000000000000000000000000000000000815261cb27600482015260240161045c565b66ffffffffffffff600982901c1660ff600183901c161b60a282901c613fff166127106121448284614ae9565b61214e9190614aae565b6121589083614b00565b905083158061216657508084105b15612173578093506121a9565b7fffffffffffffffffffffffffffffffffffffffffffffffffffffffffffffffff8414806121a057508184115b156121a9578193505b6103ff60d084901c1660ff60c885901c161b808310156121c857600094505b4260811b60416121dd876038600860006137f0565b73ffffffffffffffffffffffffffffffffffffffff89166000818152600360209081526040918290209390941b7ffffffffffffffffffffffffc000000000000000000000001ffffffffffffffff8a16179490941790915582519081529081018790527fa0174ec7e13de1c5954dd270d67dafceaddc2e7c685d5dada0015b8bb51fb2d891015b60405180910390a1505050505050565b6001546003166000036122b7576040517f2fee3e0e00000000000000000000000000000000000000000000000000000000815261cb21600482015260240161045c565b73ffffffffffffffffffffffffffffffffffffffff7f000000000000000000000000000000000000000000000000000000000000000016300361232a576040517f2fee3e0e00000000000000000000000000000000000000000000000000000000815261cb28600482015260240161045c565b60015460021660020361236d576040517f2fee3e0e00000000000000000000000000000000000000000000000000000000815261cb23600482015260240161045c565b600054605981901c63ffffffff1660519190911c60ff161b61238f8282613e7b565b6001805460021790556040518281527f171ddc092d7f435025cb4835ca5827641260e8f2d37ffc48aca4836509b79d50906020016109fe565b73ffffffffffffffffffffffffffffffffffffffff7f000000000000000000000000000000000000000000000000000000000000000016300361243b576040517f2fee3e0e00000000000000000000000000000000000000000000000000000000815261cb28600482015260240161045c565b6002546fffffffffffffffffffffffffffffffff82118061245a575080155b15612495576040517f2fee3e0e00000000000000000000000000000000000000000000000000000000815261cb24600482015260240161045c565b608082901b6fffffffffffffffffffffffffffffffff8216176002556040518281527fc088c82669ad47d64d4487c772e86aeca1ae5e422fbe93853245a948011767e3906020016109fe565b600154600316600003612524576040517f2fee3e0e00000000000000000000000000000000000000000000000000000000815261cb21600482015260240161045c565b73ffffffffffffffffffffffffffffffffffffffff7f0000000000000000000000000000000000000000000000000000000000000000163003612597576040517f2fee3e0e00000000000000000000000000000000000000000000000000000000815261cb28600482015260240161045c565b600054605981901c63ffffffff1660519190911c60ff161b81831115806125be5750818111155b806125c95750828110155b806125d2575081155b1561260d576040517f2fee3e0e00000000000000000000000000000000000000000000000000000000815261cb26600482015260240161045c565b60c861261e836014600860006137f0565b901b60ac612631856014600860016137f0565b901b6001547ffffffff00000000000000fffffffffffffffffffffffffffffffffffffffffff1617176001819055507fd4436251a5b52c21c680a58a0c189dad238e3150aaa2848762b76807e000d0d683836040516110f5929190918252602082015260400190565b6001546003166000036126dd576040517f2fee3e0e00000000000000000000000000000000000000000000000000000000815261cb21600482015260240161045c565b73ffffffffffffffffffffffffffffffffffffffff7f0000000000000000000000000000000000000000000000000000000000000000163003612750576040517f2fee3e0e00000000000000000000000000000000000000000000000000000000815261cb28600482015260240161045c565b6000805b8251811015612ac8576127728382815181106106f5576106f56149d6565b828181518110612784576127846149d6565b6020026020010151608001518382815181106127a2576127a26149d6565b60200260200101516060015111806127d757508281815181106127c7576127c76149d6565b6020026020010151604001516000145b15612812576040517f2fee3e0e00000000000000000000000000000000000000000000000000000000815261cb26600482015260240161045c565b613fff838281518110612827576128276149d6565b602002602001015160200151111561286f576040517f2fee3e0e00000000000000000000000000000000000000000000000000000000815261cb24600482015260240161045c565b62ffffff838281518110612885576128856149d6565b60200260200101516040015111156128cd576040517f2fee3e0e00000000000000000000000000000000000000000000000000000000815261cb24600482015260240161045c565b8281815181106128df576128df6149d6565b602002602001015160600151600014806129165750828181518110612906576129066149d6565b6020026020010151608001516000145b15612951576040517f2fee3e0e00000000000000000000000000000000000000000000000000000000815261cb26600482015260240161045c565b60056000848381518110612967576129676149d6565b60200260200101516000015173ffffffffffffffffffffffffffffffffffffffff1673ffffffffffffffffffffffffffffffffffffffff16815260200190815260200160002054915060da6129e9600a600860008786815181106129cd576129cd6149d6565b6020026020010151608001516137f0909392919063ffffffff16565b901b60c8612a08600a600860008887815181106108f3576108f36149d6565b901b60b0858481518110612a1e57612a1e6149d6565b602002602001015160400151901b60a2868581518110612a4057612a406149d6565b602002602001015160200151901b857ffffff0000000000000000003ffffffffffffffffffffffffffffffffffffffff166001171717171760056000858481518110612a8e57612a8e6149d6565b6020908102919091018101515173ffffffffffffffffffffffffffffffffffffffff16825281019190915260400160002055600101612754565b507fce933896f6e8c2a05b92cd7f854cd82e69ada9e533cf438643d5d3a7ac9cba9d826040516109fe9190614b13565b73ffffffffffffffffffffffffffffffffffffffff7f0000000000000000000000000000000000000000000000000000000000000000163003612b6b576040517f2fee3e0e00000000000000000000000000000000000000000000000000000000815261cb28600482015260240161045c565b6004546fffffffffffffffffffffffffffffffff821180612b8a575080155b15612bc5576040517f2fee3e0e00000000000000000000000000000000000000000000000000000000815261cb24600482015260240161045c565b608082901b6fffffffffffffffffffffffffffffffff8216176004556040518281527f12023ef9d447c9848cfbd47b96a46c02c8a4d274bff375d21859c54cfa6ac9a1906020016109fe565b73ffffffffffffffffffffffffffffffffffffffff7f0000000000000000000000000000000000000000000000000000000000000000163003612c84576040517f2fee3e0e00000000000000000000000000000000000000000000000000000000815261cb28600482015260240161045c565b60003073ffffffffffffffffffffffffffffffffffffffff1663b7791bf26040518163ffffffff1660e01b815260040161024060405180830381865afa158015612cd2573d6000803e3d6000fd5b505050506040513d601f19601f82011682018060405250810190612cf691906148ef565b6020015190507fffffffffffffffffffffffff111111111111111111111111111111111111111273ffffffffffffffffffffffffffffffffffffffff831601612d4857612d438147614231565b612de3565b6040517f70a08231000000000000000000000000000000000000000000000000000000008152306004820152612de3908390839073ffffffffffffffffffffffffffffffffffffffff8316906370a0823190602401602060405180830381865afa158015612dba573d6000803e3d6000fd5b505050506040513d601f19601f82011682018060405250810190612dde9190614b8a565b614282565b60405173ffffffffffffffffffffffffffffffffffffffff831681527fdff2a3947bcf9fc0807b142e7c8497066db9183428b7bdbfb1fcd0f55c27a3df906020016109fe565b600154600316600003612e6c576040517f2fee3e0e00000000000000000000000000000000000000000000000000000000815261cb21600482015260240161045c565b73ffffffffffffffffffffffffffffffffffffffff7f0000000000000000000000000000000000000000000000000000000000000000163003612edf576040517f2fee3e0e00000000000000000000000000000000000000000000000000000000815261cb28600482015260240161045c565b600154612ef1612710620f4240614b00565b841180612f0b5750612f08612710620f4240614b00565b83115b80612f14575083155b80612f1d575082155b80612f2a5750620fffff82115b80612f3c5750601a81901c6001166001145b15612f77576040517f2fee3e0e00000000000000000000000000000000000000000000000000000000815261cb24600482015260240161045c565b602f83901b601b85901b601a60008511612f92576000612f95565b60015b60ff16901b7ffffffffffffffffffffffffffffffffffffffffffffffff80000000003ffffff8416171717600155620fffff601b82901c811690602f83901c16831561302957600780547fffffffffffffffffffffffffffffffff000000000000000000000000000000001642603c1b602887901b601485901b861717176fffffffffffffffffffffffffffffffff161790555b60408051878152602081018790529081018590527f4eb847e2909fd5c725b018d79e18739badfb33ba8aa65926fba2c644c3cc5a8e90606001612264565b73ffffffffffffffffffffffffffffffffffffffff7f00000000000000000000000000000000000000000000000000000000000000001630036130da576040517f2fee3e0e00000000000000000000000000000000000000000000000000000000815261cb28600482015260240161045c565b6130e383613798565b600082156131dc575073ffffffffffffffffffffffffffffffffffffffff831660009081526003602052604081205490819003613150576040517f2fee3e0e00000000000000000000000000000000000000000000000000000000815261cb27600482015260240161045c565b80600116600003613191576040517f2fee3e0e00000000000000000000000000000000000000000000000000000000815261cb29600482015260240161045c565b73ffffffffffffffffffffffffffffffffffffffff841660009081526003602052604090207ffffffffffffffffffffffffffffffffffffffffffffffffffffffffffffffffe821690555b81156132d3575073ffffffffffffffffffffffffffffffffffffffff831660009081526005602052604081205490819003613247576040517f2fee3e0e00000000000000000000000000000000000000000000000000000000815261cb27600482015260240161045c565b80600116600003613288576040517f2fee3e0e00000000000000000000000000000000000000000000000000000000815261cb29600482015260240161045c565b73ffffffffffffffffffffffffffffffffffffffff841660009081526005602052604090207ffffffffffffffffffffffffffffffffffffffffffffffffffffffffffffffffe821690555b6040805173ffffffffffffffffffffffffffffffffffffffff861681528415156020820152831515918101919091527fe785e6d4f9f1321c6c8d597385ff4ebcff4a597d59ac3911b5052fbf805eb6c990606001610e5f565b6000606082600003613342576000915050613792565b607f831161340b576040517fd60000000000000000000000000000000000000000000000000000000000000060208201527f940000000000000000000000000000000000000000000000000000000000000060218201527fffffffffffffffffffffffffffffffffffffffff000000000000000000000000606086901b16602282015260f884901b7fff000000000000000000000000000000000000000000000000000000000000001660368201526037015b6040516020818303038152906040529050613787565b60ff83116134e8576040517fd70000000000000000000000000000000000000000000000000000000000000060208201527f940000000000000000000000000000000000000000000000000000000000000060218201527fffffffffffffffffffffffffffffffffffffffff000000000000000000000000606086901b1660228201527f8100000000000000000000000000000000000000000000000000000000000000603682015260f884901b7fff000000000000000000000000000000000000000000000000000000000000001660378201526038016133f5565b61ffff83116135c6576040517fd80000000000000000000000000000000000000000000000000000000000000060208201527f940000000000000000000000000000000000000000000000000000000000000060218201527fffffffffffffffffffffffffffffffffffffffff000000000000000000000000606086901b1660228201527f820000000000000000000000000000000000000000000000000000000000000060368201527fffff00000000000000000000000000000000000000000000000000000000000060f085901b1660378201526039016133f5565b62ffffff83116136a5576040517fd90000000000000000000000000000000000000000000000000000000000000060208201527f940000000000000000000000000000000000000000000000000000000000000060218201527fffffffffffffffffffffffffffffffffffffffff000000000000000000000000606086901b1660228201527f830000000000000000000000000000000000000000000000000000000000000060368201527fffffff000000000000000000000000000000000000000000000000000000000060e885901b166037820152603a016133f5565b6040517fda0000000000000000000000000000000000000000000000000000000000000060208201527f940000000000000000000000000000000000000000000000000000000000000060218201527fffffffffffffffffffffffffffffffffffffffff000000000000000000000000606086901b1660228201527f840000000000000000000000000000000000000000000000000000000000000060368201527fffffffff0000000000000000000000000000000000000000000000000000000060e085901b166037820152603b0160405160208183030381529060405290505b805160209091012090505b92915050565b8073ffffffffffffffffffffffffffffffffffffffff163b6000036137ed576040517f2fee3e0e00000000000000000000000000000000000000000000000000000000815261cb25600482015260240161045c565b50565b600080856fffffffffffffffffffffffffffffffff8111156138135760809150811c5b67ffffffffffffffff81111561382b576040918201911c5b63ffffffff81111561383f576020918201911c5b61ffff811115613851576010918201911c5b60ff811115613862576008918201911c5b600f811115613873576004918201911c5b6003811115613884576002918201911c5b6001811115613894576001820191505b80156138a1576001820191505b50848110156138ad5750835b848103905085811c600082118416156138fc57600181019050806001871b036138fc57506001908101907fffffffffffffffffffffffffffffffffffffffffffffffffffffffffffffffff86011b5b6001851b821061390b57600080fd5b90931b909201949350505050565b60003073ffffffffffffffffffffffffffffffffffffffff1663b7791bf26040518163ffffffff1660e01b815260040161024060405180830381865afa158015613967573d6000803e3d6000fd5b505050506040513d601f19601f8201168201806040525081019061398b91906148ef565b905060003073ffffffffffffffffffffffffffffffffffffffff16631595cbd36040518163ffffffff1660e01b8152600401608060405180830381865afa1580156139da573d6000803e3d6000fd5b505050506040513d601f19601f820116820180604052508101906139fe9190614ba3565b60208101518151919250600091613a159087614ae9565b613a1f9190614aae565b905060006b033b2e3c9fd0803ce8000000613a3a8387614ae9565b613a449190614aae565b905060008360400151846060015183613a5d9190614ae9565b613a679190614aae565b60208601519091503415801590613aac575060a086015173ffffffffffffffffffffffffffffffffffffffff1673eeeeeeeeeeeeeeeeeeeeeeeeeeeeeeeeeeeeeeee14155b8015613ae6575060c086015173ffffffffffffffffffffffffffffffffffffffff1673eeeeeeeeeeeeeeeeeeeeeeeeeeeeeeeeeeeeeeee14155b15613b21576040517f2fee3e0e00000000000000000000000000000000000000000000000000000000815261cb26600482015260240161045c565b60008060005b6002811015613da35780600003613b47578860a0015192508a9150613b52565b8860c0015192508491505b7fffffffffffffffffffffffff111111111111111111111111111111111111111273ffffffffffffffffffffffffffffffffffffffff841601613cc75781341115613baf57613baa33613ba58434614b00565b614231565b613bed565b81341015613bed576040517f2fee3e0e00000000000000000000000000000000000000000000000000000000815261cb26600482015260240161045c565b8373ffffffffffffffffffffffffffffffffffffffff1663ad967e15838585600080600089600033604051602001613c4e93929190928352901515602083015273ffffffffffffffffffffffffffffffffffffffff16604082015260600190565b6040516020818303038152906040526040518863ffffffff1660e01b8152600401613c7e96959493929190614c4d565b604080518083038185885af1158015613c9b573d6000803e3d6000fd5b50505050506040513d601f19601f82011682018060405250810190613cc09190614ca6565b5050613d91565b60408051602081018490526000818301819052336060808401919091528351808403909101815260808301938490527fad967e150000000000000000000000000000000000000000000000000000000090935273ffffffffffffffffffffffffffffffffffffffff87169263ad967e1592613d4c928892889282918291608401614c4d565b60408051808303816000875af1158015613d6a573d6000803e3d6000fd5b505050506040513d601f19601f82011682018060405250810190613d8e9190614ca6565b50505b80613d9b81614cca565b915050613b27565b506000858711613dd357613db9600c6012614b00565b613dc490600a614e22565b613dce9087614ae9565b613df4565b613ddf600c6012614b00565b613dea90600a614e22565b613df49088614ae9565b9050633b9aca00811015613e38576040517f2fee3e0e00000000000000000000000000000000000000000000000000000000815261cb29600482015260240161045c565b6fffffffffffffffffffffffffffffffff167fffffffffffffffffffffffffffffffff000000000000000000000000000000001760025550505050505050505050565b60003073ffffffffffffffffffffffffffffffffffffffff1663b7791bf26040518163ffffffff1660e01b815260040161024060405180830381865afa158015613ec9573d6000803e3d6000fd5b505050506040513d601f19601f82011682018060405250810190613eed91906148ef565b905060003073ffffffffffffffffffffffffffffffffffffffff16631595cbd36040518163ffffffff1660e01b8152600401608060405180830381865afa158015613f3c573d6000803e3d6000fd5b505050506040513d601f19601f82011682018060405250810190613f609190614ba3565b60208101518151919250600091613f779087614ae9565b613f819190614aae565b905060006b033b2e3c9fd0803ce8000000613f9c8387614ae9565b613fa69190614aae565b905060008360400151846060015183613fbf9190614ae9565b613fc99190614aae565b60208681015160a0880151604080516000808252948101918290527fad967e1500000000000000000000000000000000000000000000000000000000909152939450909273ffffffffffffffffffffffffffffffffffffffff84169263ad967e1592614055929091908d908290734f6f977acdd1177dcd81ab83074855ecb9c2d49e9060248101614c4d565b60408051808303816000875af1158015614073573d6000803e3d6000fd5b505050506040513d601f19601f820116820180604052508101906140979190614ca6565b505060c086015160408051600080825260208201928390527fad967e150000000000000000000000000000000000000000000000000000000090925273ffffffffffffffffffffffffffffffffffffffff84169263ad967e15926141189287908290734f6f977acdd1177dcd81ab83074855ecb9c2d49e9060248101614c4d565b60408051808303816000875af1158015614136573d6000803e3d6000fd5b505050506040513d601f19601f8201168201806040525081019061415a9190614ca6565b5050600083851161418b57614171600c6012614b00565b61417c90600a614e22565b6141869085614ae9565b6141ac565b614197600c6012614b00565b6141a290600a614e22565b6141ac9086614ae9565b9050633b9aca008110156141f0576040517f2fee3e0e00000000000000000000000000000000000000000000000000000000815261cb29600482015260240161045c565b6fffffffffffffffffffffffffffffffff167fffffffffffffffffffffffffffffffff00000000000000000000000000000000176004555050505050505050565b60008060008060008587614e20f190508061427d576040517fdee51a8a0000000000000000000000000000000000000000000000000000000081526201155a600482015260240161045c565b505050565b60006040517fa9059cbb00000000000000000000000000000000000000000000000000000000815273ffffffffffffffffffffffffffffffffffffffff84166004820152826024820152602060006044836000895af13d15601f3d1160016000511416171691505080614326576040517fdee51a8a0000000000000000000000000000000000000000000000000000000081526201155a600482015260240161045c565b50505050565b60006020828403121561433e57600080fd5b5035919050565b7f4e487b7100000000000000000000000000000000000000000000000000000000600052604160045260246000fd5b6040516080810167ffffffffffffffff8111828210171561439757614397614345565b60405290565b604051610200810167ffffffffffffffff8111828210171561439757614397614345565b60405160a0810167ffffffffffffffff8111828210171561439757614397614345565b6040516101c0810167ffffffffffffffff8111828210171561439757614397614345565b604051601f82017fffffffffffffffffffffffffffffffffffffffffffffffffffffffffffffffe016810167ffffffffffffffff8111828210171561444f5761444f614345565b604052919050565b600067ffffffffffffffff82111561447157614471614345565b5060051b60200190565b73ffffffffffffffffffffffffffffffffffffffff811681146137ed57600080fd5b600060208083850312156144b057600080fd5b823567ffffffffffffffff8111156144c757600080fd5b8301601f810185136144d857600080fd5b80356144eb6144e682614457565b614408565b81815260079190911b8201830190838101908783111561450a57600080fd5b928401925b8284101561456a57608084890312156145285760008081fd5b614530614374565b843561453b8161447b565b81528486013586820152604080860135908201526060808601359082015282526080909301929084019061450f565b979650505050505050565b6000806040838503121561458857600080fd5b50508035926020909101359150565b803580151581146145a757600080fd5b919050565b6000806000606084860312156145c157600080fd5b83356145cc8161447b565b92506145da60208501614597565b91506145e860408501614597565b90509250925092565b60008060006060848603121561460657600080fd5b505081359360208301359350604090920135919050565b60006020828403121561462f57600080fd5b61463882614597565b9392505050565b6000610200828403121561465257600080fd5b61465a61439d565b61466383614597565b81526020830135602082015261467b60408401614597565b6040820152606083810135908201526080808401359082015260a0808401359082015260c0808401359082015260e08084013590820152610100808401359082015261012080840135908201526101408084013590820152610160808401359082015261018080840135908201526101a080840135908201526101c080840135908201526101e0928301359281019290925250919050565b6000806000806080858703121561472957600080fd5b5050823594602084013594506040840135936060013592509050565b6000806040838503121561475857600080fd5b82356147638161447b565b946020939093013593505050565b6000602080838503121561478457600080fd5b823567ffffffffffffffff81111561479b57600080fd5b8301601f810185136147ac57600080fd5b80356147ba6144e682614457565b81815260a091820283018401918482019190888411156147d957600080fd5b938501935b838510156148405780858a0312156147f65760008081fd5b6147fe6143c1565b85356148098161447b565b81528587013587820152604080870135908201526060808701359082015260808087013590820152835293840193918501916147de565b50979650505050505050565b60006020828403121561485e57600080fd5b81356146388161447b565b80516145a78161447b565b600060a0828403121561488657600080fd5b61488e6143c1565b9050815161489b8161447b565b815260208201516148ab8161447b565b602082015260408201516148be8161447b565b604082015260608201516148d18161447b565b606082015260808201516148e48161447b565b608082015292915050565b6000610240828403121561490257600080fd5b61490a6143e4565b8251815261491a60208401614869565b602082015261492b60408401614869565b604082015261493d8460608501614874565b6060820152610100614950818501614869565b6080830152610120614963818601614869565b60a0840152610140614976818701614869565b60c08501526101608087015160e086015261018080880151858701526101a0945084880151848701526101c0880151838701526101e088015182870152610200880151818701525050505061022084015181830152508091505092915050565b7f4e487b7100000000000000000000000000000000000000000000000000000000600052603260045260246000fd5b602080825282518282018190526000919060409081850190868401855b82811015614a72578151805173ffffffffffffffffffffffffffffffffffffffff168552868101518786015285810151868601526060908101519085015260809093019290850190600101614a22565b5091979650505050505050565b7f4e487b7100000000000000000000000000000000000000000000000000000000600052601160045260246000fd5b600082614ae4577f4e487b7100000000000000000000000000000000000000000000000000000000600052601260045260246000fd5b500490565b808202811582820484141761379257613792614a7f565b8181038181111561379257613792614a7f565b602080825282518282018190526000919060409081850190868401855b82811015614a72578151805173ffffffffffffffffffffffffffffffffffffffff16855286810151878601528581015186860152606080820151908601526080908101519085015260a09093019290850190600101614b30565b600060208284031215614b9c57600080fd5b5051919050565b600060808284031215614bb557600080fd5b614bbd614374565b825181526020830151602082015260408301516040820152606083015160608201528091505092915050565b6000815180845260005b81811015614c0f57602081850181015186830182015201614bf3565b5060006020828601015260207fffffffffffffffffffffffffffffffffffffffffffffffffffffffffffffffe0601f83011685010191505092915050565b600073ffffffffffffffffffffffffffffffffffffffff8089168352876020840152866040840152808616606084015280851660808401525060c060a0830152614c9a60c0830184614be9565b98975050505050505050565b60008060408385031215614cb957600080fd5b505080516020909101519092909150565b60007fffffffffffffffffffffffffffffffffffffffffffffffffffffffffffffffff8203614cfb57614cfb614a7f565b5060010190565b600181815b80851115614d5b57817fffffffffffffffffffffffffffffffffffffffffffffffffffffffffffffffff04821115614d4157614d41614a7f565b80851615614d4e57918102915b93841c9390800290614d07565b509250929050565b600082614d7257506001613792565b81614d7f57506000613792565b8160018114614d955760028114614d9f57614dbb565b6001915050613792565b60ff841115614db057614db0614a7f565b50506001821b613792565b5060208310610133831016604e8410600b8410161715614dde575081810a613792565b614de88383614d02565b807fffffffffffffffffffffffffffffffffffffffffffffffffffffffffffffffff04821115614e1a57614e1a614a7f565b029392505050565b60006146388383614d6356fea2646970667358221220b941b93a9bf0ee092ec03e6833633df7bffb703ec45caba2f012f7550b7bba4064736f6c6343000815003360c060405234801561001057600080fd5b50604051610cf1380380610cf183398101604081905261002f91610044565b6001600160a01b03166080523060a052610074565b60006020828403121561005657600080fd5b81516001600160a01b038116811461006d57600080fd5b9392505050565b60805160a051610c4b6100a66000396000818160e50152818161024d01526104a6015260006102fc0152610c4b6000f3fe60806040526004361061003f5760003560e01c80630d7cf0ab146100445780632f850fb314610077578063b5c736e414610098578063e8518a66146100b7575b600080fd5b610057610052366004610aee565b6100ca565b604080519384526020840192909252908201526060015b60405180910390f35b61008a610085366004610b1a565b610234565b60405190815260200161006e565b3480156100a457600080fd5b5061008a6100b3366004610b3c565b5490565b6100576100c5366004610aee565b61048b565b6000808073ffffffffffffffffffffffffffffffffffffffff7f0000000000000000000000000000000000000000000000000000000000000000163003610146576040517f2fee3e0e00000000000000000000000000000000000000000000000000000000815261c77360048201526024015b60405180910390fd5b6007546fffffffffffffffffffffffffffffffff811690620fffff80821691601481901c821691602882901c1690603c1c6401ffffffff16426101898383610b84565b10156101f7575050600780547fffffffffffffffffffffffffffffffff000000000000000000000000000000001690555050600180547ffffffffffffffffffffffffffffffffffffffffffffffffffffffffffbffffff1690819055945086935085925084915061022b9050565b60006102038242610b97565b90506102118c868386610609565b61021d8c868487610609565b8b9850985098505050505050505b93509350939050565b600073ffffffffffffffffffffffffffffffffffffffff7f00000000000000000000000000000000000000000000000000000000000000001630036102a9576040517f2fee3e0e00000000000000000000000000000000000000000000000000000000815261c773600482015260240161013d565b600854605984901c63ffffffff16605185901c60ff161b906401ffffffff80821690620fffff602184901c811691603585901c90911690607989901c168381116102f357836102f5565b805b905061032b7f0000000000000000000000000000000000000000000000000000000000000000633fffffff60708b901c16610682565b73ffffffffffffffffffffffffffffffffffffffff1663f763f7a66040518163ffffffff1660e01b81526004016020604051808303816000875af1158015610377573d6000803e3d6000fd5b505050506040513d601f19601f8201168201806040525081019061039b9190610baa565b965060006103ac620f424084610bc3565b6103b68342610b97565b6103c0868a610bc3565b6103ca9190610bc3565b6103d49190610bda565b90508688111561042c576103e88188610b84565b9650868811156103fa5786975061047e565b6000600855600180547ffeffffffffffffffffffffffffffffffffffffffffffffffffffffffffffffff16905561047e565b80871161043a57600061043e565b8087035b9650868810156104505786975061047e565b6000600855600180547ffeffffffffffffffffffffffffffffffffffffffffffffffffffffffffffffff1690555b5050505050505092915050565b6000808073ffffffffffffffffffffffffffffffffffffffff7f0000000000000000000000000000000000000000000000000000000000000000163003610502576040517f2fee3e0e00000000000000000000000000000000000000000000000000000000815261c773600482015260240161013d565b6007546fffffffffffffffffffffffffffffffff70010000000000000000000000000000000090910490811690620fffff80821691601481901c821691602882901c1690603c81901c6401ffffffff1690605d1c62ffffff16426105668484610b84565b10156105c1575050600780546fffffffffffffffffffffffffffffffff1690555050600180547ffffffffffffffffffffffffffffffffffffffffffffffff7ffffffffffffffff1690555086935085925084915061022b9050565b60006105cd8342610b97565b90506105db8d878387610609565b6105e78d878488610609565b6105f38d858589610609565b9950995099505050505050505093509350939050565b60008385111561064857600061061f8587610b97565b90508261062c8583610bc3565b6106369190610bda565b6106409086610b84565b955050610679565b60006106548686610b97565b9050826106618583610bc3565b61066b9190610bda565b6106759086610b97565b9550505b50929392505050565b6000606082600003610698576000915050610ae8565b607f8311610761576040517fd60000000000000000000000000000000000000000000000000000000000000060208201527f940000000000000000000000000000000000000000000000000000000000000060218201527fffffffffffffffffffffffffffffffffffffffff000000000000000000000000606086901b16602282015260f884901b7fff000000000000000000000000000000000000000000000000000000000000001660368201526037015b6040516020818303038152906040529050610add565b60ff831161083e576040517fd70000000000000000000000000000000000000000000000000000000000000060208201527f940000000000000000000000000000000000000000000000000000000000000060218201527fffffffffffffffffffffffffffffffffffffffff000000000000000000000000606086901b1660228201527f8100000000000000000000000000000000000000000000000000000000000000603682015260f884901b7fff0000000000000000000000000000000000000000000000000000000000000016603782015260380161074b565b61ffff831161091c576040517fd80000000000000000000000000000000000000000000000000000000000000060208201527f940000000000000000000000000000000000000000000000000000000000000060218201527fffffffffffffffffffffffffffffffffffffffff000000000000000000000000606086901b1660228201527f820000000000000000000000000000000000000000000000000000000000000060368201527fffff00000000000000000000000000000000000000000000000000000000000060f085901b16603782015260390161074b565b62ffffff83116109fb576040517fd90000000000000000000000000000000000000000000000000000000000000060208201527f940000000000000000000000000000000000000000000000000000000000000060218201527fffffffffffffffffffffffffffffffffffffffff000000000000000000000000606086901b1660228201527f830000000000000000000000000000000000000000000000000000000000000060368201527fffffff000000000000000000000000000000000000000000000000000000000060e885901b166037820152603a0161074b565b6040517fda0000000000000000000000000000000000000000000000000000000000000060208201527f940000000000000000000000000000000000000000000000000000000000000060218201527fffffffffffffffffffffffffffffffffffffffff000000000000000000000000606086901b1660228201527f840000000000000000000000000000000000000000000000000000000000000060368201527fffffffff0000000000000000000000000000000000000000000000000000000060e085901b166037820152603b0160405160208183030381529060405290505b805160209091012090505b92915050565b600080600060608486031215610b0357600080fd5b505081359360208301359350604090920135919050565b60008060408385031215610b2d57600080fd5b50508035926020909101359150565b600060208284031215610b4e57600080fd5b5035919050565b7f4e487b7100000000000000000000000000000000000000000000000000000000600052601160045260246000fd5b80820180821115610ae857610ae8610b55565b81810381811115610ae857610ae8610b55565b600060208284031215610bbc57600080fd5b5051919050565b8082028115828204841417610ae857610ae8610b55565b600082610c10577f4e487b7100000000000000000000000000000000000000000000000000000000600052601260045260246000fd5b50049056fea264697066735822122062ecf43580f41a7c9920754328d3fd5df1b53c37b02c93f589beb82a51ec21e064736f6c63430008150033",
  "devdoc": {
    "events": {
      "DexT1Deployed(address,uint256,address,address)": {
        "params": {
          "borrowToken": "The address of the borrow token.",
          "dex": "The address of the newly deployed dex.",
          "dexId": "The id of the newly deployed dex.",
          "supplyToken": "The address of the supply token."
        }
      }
    },
    "kind": "dev",
    "methods": {
      "colOperationsCreationCode()": {
        "details": "Retrieves the creation code for the FluidDexT1OperationsCol contract"
      },
      "debtOperationsCreationCode()": {
        "details": "Retrieves the creation code for the FluidDexT1OperationsDebt contract"
      },
      "perfectOperationsCreationCode()": {
        "details": "Retrieves the creation code for the FluidDexT1PerfectOperations contract"
      }
    },
    "stateVariables": {
      "COL_OPERATIONS_CREATIONCODE_ADDRESS": {
        "details": "SSTORE2 pointers for the creation code of various operations contracts"
      },
      "POOL_T1_CREATIONCODE_ADDRESS_1": {
        "details": "SSTORE2 pointer for the PoolT1 creation code. Stored externally to reduce factory bytecode (in 2 parts)"
      }
    },
    "version": 1
  },
  "userdoc": {
    "errors": {
      "FluidDexSwapResult(uint256)": [
        {
          "notice": "used to simulate swap to find the output amount"
        }
      ]
    },
    "events": {
      "DexT1Deployed(address,uint256,address,address)": {
        "notice": "Emitted when a new dexT1 is deployed."
      }
    },
    "kind": "user",
    "methods": {
      "ADDRESS_THIS()": {
        "notice": "address of this contract"
      },
      "ADMIN_IMPLEMENTATION()": {
        "notice": "address of Admin implementation"
      },
      "CONTRACT_DEPLOYER()": {
        "notice": "address of Deployer Contract"
      },
      "DEX_FACTORY()": {
        "notice": "address of dexfactory contract"
      },
      "LIQUIDITY()": {
        "notice": "address of liquidity contract"
      },
      "MINI_DEPLOYER()": {
        "notice": "address of MiniDeployer Contract"
      },
      "SHIFT_IMPLEMENTATION()": {
        "notice": "address of Shift implementation"
      },
      "dexT1CreationBytecode()": {
        "notice": "returns the stored DexT1 creation bytecode"
      }
    },
    "version": 1
  },
  "storageLayout": {
    "storage": [],
    "types": null
  }
}