{
  "address": "0xAA0129B20cC4552E25612cE3E4bD471a47942cd4",
  "abi": [
    {
      "inputs": [
        {
          "components": [
            {
              "internalType": "string",
              "name": "infoName",
              "type": "string"
            },
            {
              "internalType": "address",
              "name": "liquidity",
              "type": "address"
            },
            {
              "internalType": "address",
              "name": "rateSource",
              "type": "address"
            },
            {
              "internalType": "uint256",
              "name": "rateMultiplier",
              "type": "uint256"
            },
            {
              "internalType": "bool",
              "name": "invertCenterPrice",
              "type": "bool"
            },
            {
              "internalType": "uint256",
              "name": "minUpdateDiffPercent",
              "type": "uint256"
            },
            {
              "internalType": "uint256",
              "name": "minHeartbeat",
              "type": "uint256"
            },
            {
              "internalType": "bool",
              "name": "avoidForcedLiquidationsCol",
              "type": "bool"
            },
            {
              "internalType": "bool",
              "name": "avoidForcedLiquidationsDebt",
              "type": "bool"
            },
            {
              "internalType": "uint256",
              "name": "maxAPRPercent",
              "type": "uint256"
            },
            {
              "internalType": "uint256",
              "name": "maxDownFromMaxReachedPercentCol",
              "type": "uint256"
            },
            {
              "internalType": "uint256",
              "name": "maxDownFromMaxReachedPercentDebt",
              "type": "uint256"
            },
            {
              "internalType": "uint256",
              "name": "maxDebtUpCapPercent",
              "type": "uint256"
            }
          ],
          "internalType": "struct FluidCappedRateBase.CappedRateConstructorParams",
          "name": "params_",
          "type": "tuple"
        }
      ],
      "stateMutability": "nonpayable",
      "type": "constructor"
    },
    {
      "inputs": [
        {
          "internalType": "uint256",
          "name": "errorId_",
          "type": "uint256"
        }
      ],
      "name": "FluidOracleError",
      "type": "error"
    },
    {
      "anonymous": false,
      "inputs": [
        {
          "indexed": false,
          "internalType": "uint256",
          "name": "oldMaxRate",
          "type": "uint256"
        },
        {
          "indexed": false,
          "internalType": "uint256",
          "name": "newMaxRate",
          "type": "uint256"
        }
      ],
      "name": "LogForceResetMaxRate",
      "type": "event"
    },
    {
      "anonymous": false,
      "inputs": [],
      "name": "LogRateBelowMaxReached",
      "type": "event"
    },
    {
      "anonymous": false,
      "inputs": [],
      "name": "LogRateMaxAPRCapped",
      "type": "event"
    },
    {
      "anonymous": false,
      "inputs": [
        {
          "indexed": false,
          "internalType": "uint256",
          "name": "oldRate",
          "type": "uint256"
        },
        {
          "indexed": false,
          "internalType": "uint256",
          "name": "newRate",
          "type": "uint256"
        },
        {
          "indexed": false,
          "internalType": "uint256",
          "name": "oldMaxRate",
          "type": "uint256"
        },
        {
          "indexed": false,
          "internalType": "uint256",
          "name": "newMaxRate",
          "type": "uint256"
        }
      ],
      "name": "LogRebalanceRate",
      "type": "event"
    },
    {
      "anonymous": false,
      "inputs": [
        {
          "indexed": false,
          "internalType": "bool",
          "name": "oldAvoidForcedLiquidations",
          "type": "bool"
        },
        {
          "indexed": false,
          "internalType": "bool",
          "name": "newAvoidForcedLiquidations",
          "type": "bool"
        }
      ],
      "name": "LogUpdateAvoidForcedLiquidationsCol",
      "type": "event"
    },
    {
      "anonymous": false,
      "inputs": [
        {
          "indexed": false,
          "internalType": "bool",
          "name": "oldAvoidForcedLiquidations",
          "type": "bool"
        },
        {
          "indexed": false,
          "internalType": "bool",
          "name": "newAvoidForcedLiquidations",
          "type": "bool"
        }
      ],
      "name": "LogUpdateAvoidForcedLiquidationsDebt",
      "type": "event"
    },
    {
      "anonymous": false,
      "inputs": [
        {
          "indexed": false,
          "internalType": "uint256",
          "name": "oldMaxAPRPercent",
          "type": "uint256"
        },
        {
          "indexed": false,
          "internalType": "uint256",
          "name": "newMaxAPRPercent",
          "type": "uint256"
        }
      ],
      "name": "LogUpdateMaxAPRPercent",
      "type": "event"
    },
    {
      "anonymous": false,
      "inputs": [
        {
          "indexed": false,
          "internalType": "uint256",
          "name": "oldMaxDebtUpCapPercent",
          "type": "uint256"
        },
        {
          "indexed": false,
          "internalType": "uint256",
          "name": "newMaxDebtUpCapPercent",
          "type": "uint256"
        }
      ],
      "name": "LogUpdateMaxDebtUpCapPercent",
      "type": "event"
    },
    {
      "anonymous": false,
      "inputs": [
        {
          "indexed": false,
          "internalType": "uint256",
          "name": "oldMaxDownFromMaxReachedPercent",
          "type": "uint256"
        },
        {
          "indexed": false,
          "internalType": "uint256",
          "name": "newMaxDownFromMaxReachedPercent",
          "type": "uint256"
        }
      ],
      "name": "LogUpdateMaxDownFromMaxReachedPercentCol",
      "type": "event"
    },
    {
      "anonymous": false,
      "inputs": [
        {
          "indexed": false,
          "internalType": "uint256",
          "name": "oldMaxDownFromMaxReachedPercent",
          "type": "uint256"
        },
        {
          "indexed": false,
          "internalType": "uint256",
          "name": "newMaxDownFromMaxReachedPercent",
          "type": "uint256"
        }
      ],
      "name": "LogUpdateMaxDownFromMaxReachedPercentDebt",
      "type": "event"
    },
    {
      "anonymous": false,
      "inputs": [
        {
          "indexed": false,
          "internalType": "uint256",
          "name": "oldMinHeartbeat",
          "type": "uint256"
        },
        {
          "indexed": false,
          "internalType": "uint256",
          "name": "newMinHeartbeat",
          "type": "uint256"
        }
      ],
      "name": "LogUpdateMinHeartbeat",
      "type": "event"
    },
    {
      "anonymous": false,
      "inputs": [
        {
          "indexed": false,
          "internalType": "uint256",
          "name": "oldMinUpdateDiffPercent",
          "type": "uint256"
        },
        {
          "indexed": false,
          "internalType": "uint256",
          "name": "newMinUpdateDiffPercent",
          "type": "uint256"
        }
      ],
      "name": "LogUpdateMinUpdateDiffPercent",
      "type": "event"
    },
    {
      "inputs": [],
      "name": "centerPrice",
      "outputs": [
        {
          "internalType": "uint256",
          "name": "price_",
          "type": "uint256"
        }
      ],
      "stateMutability": "nonpayable",
      "type": "function"
    },
    {
      "inputs": [],
      "name": "configData",
      "outputs": [
        {
          "internalType": "address",
          "name": "liquidity_",
          "type": "address"
        },
        {
          "internalType": "uint16",
          "name": "minUpdateDiffPercent_",
          "type": "uint16"
        },
        {
          "internalType": "uint24",
          "name": "minHeartbeat_",
          "type": "uint24"
        },
        {
          "internalType": "uint40",
          "name": "lastUpdateTime_",
          "type": "uint40"
        },
        {
          "internalType": "address",
          "name": "rateSource_",
          "type": "address"
        },
        {
          "internalType": "bool",
          "name": "invertCenterPrice_",
          "type": "bool"
        },
        {
          "internalType": "bool",
          "name": "avoidForcedLiquidationsCol_",
          "type": "bool"
        },
        {
          "internalType": "bool",
          "name": "avoidForcedLiquidationsDebt_",
          "type": "bool"
        },
        {
          "internalType": "uint256",
          "name": "maxAPRPercent_",
          "type": "uint256"
        },
        {
          "internalType": "uint24",
          "name": "maxDownFromMaxReachedPercentCol_",
          "type": "uint24"
        },
        {
          "internalType": "uint24",
          "name": "maxDownFromMaxReachedPercentDebt_",
          "type": "uint24"
        },
        {
          "internalType": "uint256",
          "name": "maxDebtUpCapPercent_",
          "type": "uint256"
        }
      ],
      "stateMutability": "view",
      "type": "function"
    },
    {
      "inputs": [],
      "name": "configPercentDiff",
      "outputs": [
        {
          "internalType": "uint256",
          "name": "configPercentDiff_",
          "type": "uint256"
        }
      ],
      "stateMutability": "view",
      "type": "function"
    },
    {
      "inputs": [
        {
          "internalType": "uint256",
          "name": "shares",
          "type": "uint256"
        }
      ],
      "name": "convertToAssets",
      "outputs": [
        {
          "internalType": "uint256",
          "name": "assets",
          "type": "uint256"
        }
      ],
      "stateMutability": "view",
      "type": "function"
    },
    {
      "inputs": [
        {
          "internalType": "uint256",
          "name": "assets",
          "type": "uint256"
        }
      ],
      "name": "convertToShares",
      "outputs": [
        {
          "internalType": "uint256",
          "name": "shares",
          "type": "uint256"
        }
      ],
      "stateMutability": "view",
      "type": "function"
    },
    {
      "inputs": [],
      "name": "forceResetMaxRate",
      "outputs": [],
      "stateMutability": "nonpayable",
      "type": "function"
    },
    {
      "inputs": [],
      "name": "getExchangeRate",
      "outputs": [
        {
          "internalType": "uint256",
          "name": "exchangeRate_",
          "type": "uint256"
        }
      ],
      "stateMutability": "view",
      "type": "function"
    },
    {
      "inputs": [],
      "name": "getExchangeRateLiquidate",
      "outputs": [
        {
          "internalType": "uint256",
          "name": "exchangeRate_",
          "type": "uint256"
        }
      ],
      "stateMutability": "view",
      "type": "function"
    },
    {
      "inputs": [],
      "name": "getExchangeRateLiquidateDebt",
      "outputs": [
        {
          "internalType": "uint256",
          "name": "exchangeRate_",
          "type": "uint256"
        }
      ],
      "stateMutability": "view",
      "type": "function"
    },
    {
      "inputs": [],
      "name": "getExchangeRateOperate",
      "outputs": [
        {
          "internalType": "uint256",
          "name": "exchangeRate_",
          "type": "uint256"
        }
      ],
      "stateMutability": "view",
      "type": "function"
    },
    {
      "inputs": [],
      "name": "getExchangeRateOperateDebt",
      "outputs": [
        {
          "internalType": "uint256",
          "name": "exchangeRate_",
          "type": "uint256"
        }
      ],
      "stateMutability": "view",
      "type": "function"
    },
    {
      "inputs": [],
      "name": "getRatesAndCaps",
      "outputs": [
        {
          "internalType": "uint256",
          "name": "rate_",
          "type": "uint256"
        },
        {
          "internalType": "uint256",
          "name": "maxReachedRate_",
          "type": "uint256"
        },
        {
          "internalType": "uint256",
          "name": "maxUpCappedRateDebt_",
          "type": "uint256"
        },
        {
          "internalType": "bool",
          "name": "isRateBelowMaxReached_",
          "type": "bool"
        },
        {
          "internalType": "bool",
          "name": "isUpMaxAPRCapped_",
          "type": "bool"
        },
        {
          "internalType": "uint256",
          "name": "downCappedRateCol_",
          "type": "uint256"
        },
        {
          "internalType": "uint256",
          "name": "downCappedRateDebt_",
          "type": "uint256"
        },
        {
          "internalType": "bool",
          "name": "isDownCappedCol_",
          "type": "bool"
        },
        {
          "internalType": "bool",
          "name": "isDownCappedDebt_",
          "type": "bool"
        },
        {
          "internalType": "bool",
          "name": "isUpCapped_",
          "type": "bool"
        }
      ],
      "stateMutability": "view",
      "type": "function"
    },
    {
      "inputs": [],
      "name": "infoName",
      "outputs": [
        {
          "internalType": "string",
          "name": "",
          "type": "string"
        }
      ],
      "stateMutability": "view",
      "type": "function"
    },
    {
      "inputs": [],
      "name": "isHeartbeatTrigger",
      "outputs": [
        {
          "internalType": "bool",
          "name": "",
          "type": "bool"
        }
      ],
      "stateMutability": "view",
      "type": "function"
    },
    {
      "inputs": [],
      "name": "rebalance",
      "outputs": [],
      "stateMutability": "nonpayable",
      "type": "function"
    },
    {
      "inputs": [],
      "name": "targetDecimals",
      "outputs": [
        {
          "internalType": "uint8",
          "name": "",
          "type": "uint8"
        }
      ],
      "stateMutability": "pure",
      "type": "function"
    },
    {
      "inputs": [
        {
          "internalType": "bool",
          "name": "avoid_",
          "type": "bool"
        }
      ],
      "name": "updateAvoidForcedLiquidationsCol",
      "outputs": [],
      "stateMutability": "nonpayable",
      "type": "function"
    },
    {
      "inputs": [
        {
          "internalType": "bool",
          "name": "avoid_",
          "type": "bool"
        }
      ],
      "name": "updateAvoidForcedLiquidationsDebt",
      "outputs": [],
      "stateMutability": "nonpayable",
      "type": "function"
    },
    {
      "inputs": [
        {
          "internalType": "uint256",
          "name": "newMaxAPRPercent_",
          "type": "uint256"
        }
      ],
      "name": "updateMaxAPRPercent",
      "outputs": [],
      "stateMutability": "nonpayable",
      "type": "function"
    },
    {
      "inputs": [
        {
          "internalType": "uint256",
          "name": "newMaxDebtUpCapPercent_",
          "type": "uint256"
        }
      ],
      "name": "updateMaxDebtUpCapPercent",
      "outputs": [],
      "stateMutability": "nonpayable",
      "type": "function"
    },
    {
      "inputs": [
        {
          "internalType": "uint256",
          "name": "newMaxDownFromMaxReachedPercent_",
          "type": "uint256"
        }
      ],
      "name": "updateMaxDownFromMaxReachedPercentCol",
      "outputs": [],
      "stateMutability": "nonpayable",
      "type": "function"
    },
    {
      "inputs": [
        {
          "internalType": "uint256",
          "name": "newMaxDownFromMaxReachedPercent_",
          "type": "uint256"
        }
      ],
      "name": "updateMaxDownFromMaxReachedPercentDebt",
      "outputs": [],
      "stateMutability": "nonpayable",
      "type": "function"
    },
    {
      "inputs": [
        {
          "internalType": "uint256",
          "name": "newMinHeartbeat_",
          "type": "uint256"
        }
      ],
      "name": "updateMinHeartbeat",
      "outputs": [],
      "stateMutability": "nonpayable",
      "type": "function"
    },
    {
      "inputs": [
        {
          "internalType": "uint256",
          "name": "newMinUpdateDiffPercent_",
          "type": "uint256"
        }
      ],
      "name": "updateMinUpdateDiffPercent",
      "outputs": [],
      "stateMutability": "nonpayable",
      "type": "function"
    }
  ],
  "transactionHash": "0xca59422776c5af2a0d0c2200f57e1630000e479ce655cf5cae4c525f8218fb98",
  "args": [
    [
      {
        "infoName": "USDE per 1 SUSDE",
        "rateSource": "0x9D39A5DE30e57443BfF2A8307A4256c8797A3497",
        "rateMultiplier": 1,
        "maxAPRPercent": 1800000,
        "maxDownFromMaxReachedPercentDebt": 50000,
        "invertCenterPrice": true,
        "minUpdateDiffPercent": 10,
        "minHeartbeat": 90000,
        "avoidForcedLiquidationsCol": false,
        "maxDownFromMaxReachedPercentCol": 0,
        "avoidForcedLiquidationsDebt": false,
        "maxDebtUpCapPercent": 0,
        "liquidity": "0x52Aa899454998Be5b000Ad077a46Bbe360F4e497"
      }
    ]
  ],
  "numDeployments": 1,
  "linkedData": {
    "nonce": "141"
  },
  "bytecode": "0x6101206040523480156200001257600080fd5b5060405162004ab438038062004ab48339810160408190526200003591620005a9565b8051602082015182919082906001600160a01b038116620000725760405163c82fc46560e01b815261ebbf60048201526024015b60405180910390fd5b60408201516001600160a01b038116620000a45760405163c82fc46560e01b815261ebbf600482015260240162000069565b60608301511580620000c25750683635c9adc5dea000008360600151115b80620000d0575060a0830151155b80620000e1575060a083015161ffff105b80620000ef575060c0830151155b8062000101575060c083015162ffffff105b80620001145750620f4240836101400151115b80620001275750620f4240836101600151115b806200014657506200013e606462ffffff620006ce565b836101200151115b806200016457506200015c606461ffff620006ce565b836101800151115b15620001885760405163c82fc46560e01b815261ebbf600482015260240162000069565b60208301516001600160a01b039081166080908152604085015190911660a052606084015160e081905290840151151560c052620001c5620003f8565b620001d19190620006ce565b6000805460a086015160c08701516001600160a81b03949094166001600160d01b031990921691909117600160a81b4264ffffffffff1602176001600160d81b0316600160f01b61ffff9092169190910262ffffff60d81b191617600160d81b62ffffff909316929092029190911790556101008301516200025557600062000258565b60085b8360e001516200026a5760006200026d565b60045b6000805460ff9390921792909216600160d01b0260ff60d01b19909116179055610120830151620002a190606490620006fa565b6001805462ffffff92909216600160a81b0262ffffff60a81b19909216919091179055610140830151158015620002da57508260e00151155b620002eb57826101400151620002f0565b620f42405b6001805461016086015162ffffff908116600160d81b0262ffffff60d81b1994909116600160c01b029390931665ffffffffffff60c01b19909116179190911790556101808301516200034690606490620006fa565b600180546000546001600160a81b031961ffff94909416600160f01b0293909316600160a81b600160f01b03909116176001600160a81b03909216919091179055505081516020109050806200039b57508051155b15620003bf5760405163c82fc46560e01b815261ea6a600482015260240162000069565b60200151610100525060e051600114620003f15760405163c82fc46560e01b815261ebbf600482015260240162000069565b5062000737565b60a0516040516303d1689d60e11b81526b033b2e3c9fd0803ce800000060048201526000916001600160a01b0316906307a2d13a90602401602060405180830381865afa1580156200044e573d6000803e3d6000fd5b505050506040513d601f19601f820116820180604052508101906200047491906200071d565b905090565b634e487b7160e01b600052604160045260246000fd5b6040516101a081016001600160401b0381118282101715620004b557620004b562000479565b60405290565b604051601f8201601f191681016001600160401b0381118282101715620004e657620004e662000479565b604052919050565b600082601f8301126200050057600080fd5b81516001600160401b038111156200051c576200051c62000479565b602062000532601f8301601f19168201620004bb565b82815285828487010111156200054757600080fd5b60005b83811015620005675785810183015182820184015282016200054a565b506000928101909101919091529392505050565b80516001600160a01b03811681146200059357600080fd5b919050565b805180151581146200059357600080fd5b600060208284031215620005bc57600080fd5b81516001600160401b0380821115620005d457600080fd5b908301906101a08286031215620005ea57600080fd5b620005f46200048f565b8251828111156200060457600080fd5b6200061287828601620004ee565b82525062000623602084016200057b565b602082015262000636604084016200057b565b604082015260608301516060820152620006536080840162000598565b608082015260a083015160a082015260c083015160c08201526200067a60e0840162000598565b60e082015261010091506200069182840162000598565b9181019190915261012082810151908201526101408083015190820152610160808301519082015261018091820151918101919091529392505050565b8082028115828204841417620006f457634e487b7160e01b600052601160045260246000fd5b92915050565b6000826200071857634e487b7160e01b600052601260045260246000fd5b500490565b6000602082840312156200073057600080fd5b5051919050565b60805160a05160c05160e051610100516142b36200080160003960008181613c9f0152613d640152600061360d015260008181610ecd0152613e06015260008181610eac0152613e99015260008181610e7c01528181610fc6015281816110b8015281816112b7015281816113a9015281816115990152818161168b015281816118ca015281816119bc01528181612066015281816121580152818161265a0152818161285a01528181612c1d01528181612d0f01528181613379015261346b01526142b36000f3fe608060405234801561001057600080fd5b50600436106101985760003560e01c80639dc10566116100e3578063dd7a29f21161008c578063f3190c8911610066578063f3190c8914610410578063f763f7a614610418578063fe51171d1461042057600080fd5b8063dd7a29f2146103ed578063e6aa216c14610400578063f14fe7641461040857600080fd5b8063b20faf9d116100bd578063b20faf9d1461036f578063c6e6f592146103c7578063d1e482f3146103da57600080fd5b80639dc105661461033f578063a000106914610347578063abd5f95d1461035a57600080fd5b806371dbff561161014557806379557e681161011f57806379557e68146102505780637d7c2a1c1461032f5780638e7bfbc01461033757600080fd5b806371dbff561461021757806373e98a681461022a578063767ceebb1461023d57600080fd5b806320e44e431161017657806320e44e43146101d357806336c1387e146101f3578063691e581a1461020257600080fd5b8063046646241461019d57806307a2d13a146101b857806313d368a7146101cb575b600080fd5b6101a5610433565b6040519081526020015b60405180910390f35b6101a56101c6366004613fb7565b6108db565b6101a561091c565b6101db610c83565b6040516101af9c9b9a99989796959493929190613fd0565b604051601b81526020016101af565b61021561021036600461406a565b610f6b565b005b61021561022536600461406a565b61125c565b610215610238366004613fb7565b61153e565b61021561024b366004613fb7565b61186f565b6040805160a08101825260005474ffffffffffffffffffffffffffffffffffffffffff811682527501000000000000000000000000000000000000000000810464ffffffffff1660208084018290527a010000000000000000000000000000000000000000000000000000830460ff16848601527b01000000000000000000000000000000000000000000000000000000830462ffffff16606085018190527e0100000000000000000000000000000000000000000000000000000000000090930461ffff1660809094019390935292514291909301108252016101af565b610215611b58565b6101a5611c39565b6101a5611e53565b610215610355366004613fb7565b61200b565b61036261232f565b6040516101af919061408c565b610377612339565b604080519a8b5260208b0199909952978901969096529315156060880152911515608087015260a086015260c0850152151560e084015215156101008301521515610120820152610140016101af565b6101a56103d5366004613fb7565b6125c1565b6102156103e8366004613fb7565b6125f5565b6102156103fb366004613fb7565b6127f5565b6101a56129ee565b610215612bc2565b6101a5612e6a565b6101a5613211565b61021561042e366004613fb7565b61331e565b6040805160a080820183526000805474ffffffffffffffffffffffffffffffffffffffffff811684527501000000000000000000000000000000000000000000810464ffffffffff166020808601919091527a010000000000000000000000000000000000000000000000000000820460ff16858701527b01000000000000000000000000000000000000000000000000000000820462ffffff166060808701919091527e0100000000000000000000000000000000000000000000000000000000000090920461ffff16608080870191909152865194850187528385529084018390529483018290528201819052928101839052600080600061055385600042826060015162ffffff16836020015164ffffffffff1601109050919050565b1561063b576040805160a08101825260015474ffffffffffffffffffffffffffffffffffffffffff81168083527501000000000000000000000000000000000000000000820462ffffff90811660208501819052780100000000000000000000000000000000000000000000000084048216958501959095527b0100000000000000000000000000000000000000000000000000000083041660608401527e0100000000000000000000000000000000000000000000000000000000000090910461ffff16608083015290955061062b918790613605565b929850909450909250905061066d565b50508251604084015174ffffffffffffffffffffffffffffffffffffffffff9091169450600181811614906002908116145b808015610681575060408501516008908116145b156107ac5782600003610757576040805160a08101825260015474ffffffffffffffffffffffffffffffffffffffffff811680835262ffffff7501000000000000000000000000000000000000000000830481166020850152780100000000000000000000000000000000000000000000000083048116948401949094527b010000000000000000000000000000000000000000000000000000008204909316606083015261ffff7e01000000000000000000000000000000000000000000000000000000000000909104166080820152945092505b620f42406064856080015161ffff166107709190614127565b61077d90620f424061413e565b6107879085614127565b6107919190614180565b92508286116107a057856107a2565b825b9550505050505090565b816107b957505050505090565b835174ffffffffffffffffffffffffffffffffffffffffff166000036108a0576040805160a08101825260015474ffffffffffffffffffffffffffffffffffffffffff811682527501000000000000000000000000000000000000000000810462ffffff9081166020840152780100000000000000000000000000000000000000000000000082048116938301939093527b01000000000000000000000000000000000000000000000000000000810490921660608201527e0100000000000000000000000000000000000000000000000000000000000090910461ffff16608082015293505b6107a286600085116108ca57855174ffffffffffffffffffffffffffffffffffffffffff166108cc565b845b866060015162ffffff1661369e565b6000805474ffffffffffffffffffffffffffffffffffffffffff1661090c836b033b2e3c9fd0803ce8000000614127565b6109169190614180565b92915050565b6040805160a080820183526000805474ffffffffffffffffffffffffffffffffffffffffff811684527501000000000000000000000000000000000000000000810464ffffffffff166020808601919091527a010000000000000000000000000000000000000000000000000000820460ff16858701527b01000000000000000000000000000000000000000000000000000000820462ffffff166060808701919091527e0100000000000000000000000000000000000000000000000000000000000090920461ffff16608080870191909152865194850187528385529084018390529483018290528201819052928101839052600080610a3a84600042826060015162ffffff16836020015164ffffffffff1601109050919050565b15610b22576040805160a08101825260015474ffffffffffffffffffffffffffffffffffffffffff81168083527501000000000000000000000000000000000000000000820462ffffff90811660208501819052780100000000000000000000000000000000000000000000000084048216958501959095527b0100000000000000000000000000000000000000000000000000000083041660608401527e0100000000000000000000000000000000000000000000000000000000000090910461ffff166080830152909450610b12918690613605565b929750909350909150610b4c9050565b508251604084015174ffffffffffffffffffffffffffffffffffffffffff90911694506001908116145b80610b58575050505090565b825174ffffffffffffffffffffffffffffffffffffffffff16600003610c3f576040805160a08101825260015474ffffffffffffffffffffffffffffffffffffffffff811682527501000000000000000000000000000000000000000000810462ffffff9081166020840152780100000000000000000000000000000000000000000000000082048116938301939093527b01000000000000000000000000000000000000000000000000000000810490921660608201527e0100000000000000000000000000000000000000000000000000000000000090910461ffff16608082015292505b610c7a8560008411610c6957845174ffffffffffffffffffffffffffffffffffffffffff16610c6b565b835b856060015162ffffff1661369e565b94505050505090565b6000806000806000806000806000806000806000806040518060a00160405290816000820160009054906101000a900474ffffffffffffffffffffffffffffffffffffffffff1674ffffffffffffffffffffffffffffffffffffffffff1674ffffffffffffffffffffffffffffffffffffffffff1681526020016000820160159054906101000a900464ffffffffff1664ffffffffff1664ffffffffff16815260200160008201601a9054906101000a900460ff1660ff1660ff16815260200160008201601b9054906101000a900462ffffff1662ffffff1662ffffff16815260200160008201601e9054906101000a900461ffff1661ffff1661ffff16815250509050600060016040518060a00160405290816000820160009054906101000a900474ffffffffffffffffffffffffffffffffffffffffff1674ffffffffffffffffffffffffffffffffffffffffff1674ffffffffffffffffffffffffffffffffffffffffff1681526020016000820160159054906101000a900462ffffff1662ffffff1662ffffff1681526020016000820160189054906101000a900462ffffff1662ffffff1662ffffff16815260200160008201601b9054906101000a900462ffffff1662ffffff1662ffffff16815260200160008201601e9054906101000a900461ffff1661ffff1661ffff168152505090507f00000000000000000000000000000000000000000000000000000000000000008260800151836060015184602001517f00000000000000000000000000000000000000000000000000000000000000007f0000000000000000000000000000000000000000000000000000000000000000600460ff16600489604001511660ff1614600860ff1660088a604001511660ff16146064896020015162ffffff16610f249190614127565b89604001518a6060015160648c6080015161ffff16610f439190614127565b9d509d509d509d509d509d509d509d509d509d509d509d505050909192939495969798999a9b565b6040805133602080830191909152600382840152825180830384018152606083019384905280519101207fb5c736e40000000000000000000000000000000000000000000000000000000090925260648101919091526000907f000000000000000000000000000000000000000000000000000000000000000073ffffffffffffffffffffffffffffffffffffffff169063b5c736e490608401602060405180830381865afa158015611022573d6000803e3d6000fd5b505050506040513d601f19601f8201168201806040525081019061104691906141bb565b6040517fb5c736e40000000000000000000000000000000000000000000000000000000081527fb53127684a568b3173ae13b9f8a6016e243e63b6e8ee1178d6a717850b5d6103600482015260019182169091149150600090339073ffffffffffffffffffffffffffffffffffffffff7f0000000000000000000000000000000000000000000000000000000000000000169063b5c736e490602401602060405180830381865afa1580156110ff573d6000803e3d6000fd5b505050506040513d601f19601f8201168201806040525081019061112391906141bb565b73ffffffffffffffffffffffffffffffffffffffff1614905081158015611148575080155b15611188576040517fc82fc46500000000000000000000000000000000000000000000000000000000815261ebc060048201526024015b60405180910390fd5b6000547a0100000000000000000000000000000000000000000000000000009004600890811614836111bb5760006111be565b60085b600080547fffffffffff00ffffffffffffffffffffffffffffffffffffffffffffffffffff81167a0100000000000000000000000000000000000000000000000000009182900460f71660ff94909416939093170291909117905560408051821515815285151560208201527ff26e4209c91ee7e9b517c3dd9c5aac7081ac9f14a3c501969bfc3e7ff133adf891015b60405180910390a150505050565b6040805133602080830191909152600382840152825180830384018152606083019384905280519101207fb5c736e40000000000000000000000000000000000000000000000000000000090925260648101919091526000907f000000000000000000000000000000000000000000000000000000000000000073ffffffffffffffffffffffffffffffffffffffff169063b5c736e490608401602060405180830381865afa158015611313573d6000803e3d6000fd5b505050506040513d601f19601f8201168201806040525081019061133791906141bb565b6040517fb5c736e40000000000000000000000000000000000000000000000000000000081527fb53127684a568b3173ae13b9f8a6016e243e63b6e8ee1178d6a717850b5d6103600482015260019182169091149150600090339073ffffffffffffffffffffffffffffffffffffffff7f0000000000000000000000000000000000000000000000000000000000000000169063b5c736e490602401602060405180830381865afa1580156113f0573d6000803e3d6000fd5b505050506040513d601f19601f8201168201806040525081019061141491906141bb565b73ffffffffffffffffffffffffffffffffffffffff1614905081158015611439575080155b15611474576040517fc82fc46500000000000000000000000000000000000000000000000000000000815261ebc0600482015260240161117f565b6000547a0100000000000000000000000000000000000000000000000000009004600490811614836114a75760006114aa565b60045b600080547fffffffffff00ffffffffffffffffffffffffffffffffffffffffffffffffffff81167a0100000000000000000000000000000000000000000000000000009182900460fb1660ff94909416939093170291909117905560408051821515815285151560208201527f85a585c4b90f71caba3c97aa85dfa2b36993024b9e1900e505364f47bbcff8ec910161124e565b6040805133602080830191909152600382840152825180830384018152606083019384905280519101207fb5c736e40000000000000000000000000000000000000000000000000000000090925260648101919091526000907f000000000000000000000000000000000000000000000000000000000000000073ffffffffffffffffffffffffffffffffffffffff169063b5c736e490608401602060405180830381865afa1580156115f5573d6000803e3d6000fd5b505050506040513d601f19601f8201168201806040525081019061161991906141bb565b6040517fb5c736e40000000000000000000000000000000000000000000000000000000081527fb53127684a568b3173ae13b9f8a6016e243e63b6e8ee1178d6a717850b5d6103600482015260019182169091149150600090339073ffffffffffffffffffffffffffffffffffffffff7f0000000000000000000000000000000000000000000000000000000000000000169063b5c736e490602401602060405180830381865afa1580156116d2573d6000803e3d6000fd5b505050506040513d601f19601f820116820180604052508101906116f691906141bb565b73ffffffffffffffffffffffffffffffffffffffff161490508115801561171b575080155b15611756576040517fc82fc46500000000000000000000000000000000000000000000000000000000815261ebc0600482015260240161117f565b611763606461ffff614127565b8311156117a0576040517fc82fc46500000000000000000000000000000000000000000000000000000000815261ebbf600482015260240161117f565b6001546000906117d8906064907e01000000000000000000000000000000000000000000000000000000000000900461ffff16614127565b90506117e5606485614180565b6001805461ffff929092167e01000000000000000000000000000000000000000000000000000000000000027dffffffffffffffffffffffffffffffffffffffffffffffffffffffffffff90921691909117905560408051828152602081018690527fde99abbfc304a53cbdfa0db8c0fa93869f92defdfb9926c7c346c1fcb18cf049910161124e565b6040805133602080830191909152600382840152825180830384018152606083019384905280519101207fb5c736e40000000000000000000000000000000000000000000000000000000090925260648101919091526000907f000000000000000000000000000000000000000000000000000000000000000073ffffffffffffffffffffffffffffffffffffffff169063b5c736e490608401602060405180830381865afa158015611926573d6000803e3d6000fd5b505050506040513d601f19601f8201168201806040525081019061194a91906141bb565b6040517fb5c736e40000000000000000000000000000000000000000000000000000000081527fb53127684a568b3173ae13b9f8a6016e243e63b6e8ee1178d6a717850b5d6103600482015260019182169091149150600090339073ffffffffffffffffffffffffffffffffffffffff7f0000000000000000000000000000000000000000000000000000000000000000169063b5c736e490602401602060405180830381865afa158015611a03573d6000803e3d6000fd5b505050506040513d601f19601f82011682018060405250810190611a2791906141bb565b73ffffffffffffffffffffffffffffffffffffffff1614905081158015611a4c575080155b15611a87576040517fc82fc46500000000000000000000000000000000000000000000000000000000815261ebc0600482015260240161117f565b620f4240831115611ac8576040517fc82fc46500000000000000000000000000000000000000000000000000000000815261ebbf600482015260240161117f565b6001805462ffffff85811678010000000000000000000000000000000000000000000000009081027fffffffffff000000ffffffffffffffffffffffffffffffffffffffffffffffff84161790935560408051939092041680835260208301869052917ff228de6bd894d485e2abff17a7e1801febe7c7d377cbc09ea6b105afdec3e697910161124e565b905090565b6040805160a08101825260005474ffffffffffffffffffffffffffffffffffffffffff811682527501000000000000000000000000000000000000000000810464ffffffffff16602083018190527a010000000000000000000000000000000000000000000000000000820460ff16938301939093527b01000000000000000000000000000000000000000000000000000000810462ffffff16606083018190527e0100000000000000000000000000000000000000000000000000000000000090910461ffff16608090920191909152611c3691429101106136ba565b50565b6040805160a0810182526000805474ffffffffffffffffffffffffffffffffffffffffff811683527501000000000000000000000000000000000000000000810464ffffffffff16602084018190527a010000000000000000000000000000000000000000000000000000820460ff16948401949094527b01000000000000000000000000000000000000000000000000000000810462ffffff16606084018190527e0100000000000000000000000000000000000000000000000000000000000090910461ffff16608084015290924291011015611e05576040805160a08101825260015474ffffffffffffffffffffffffffffffffffffffffff81168083527501000000000000000000000000000000000000000000820462ffffff90811660208501819052780100000000000000000000000000000000000000000000000084048216958501959095527b0100000000000000000000000000000000000000000000000000000083041660608401527e0100000000000000000000000000000000000000000000000000000000000090910461ffff16608083015290916000918291611dea91908690613605565b509196509250905080611dfd5784610c7a565b509392505050565b6040810151600290811614611e3257805174ffffffffffffffffffffffffffffffffffffffffff16611e4d565b60015474ffffffffffffffffffffffffffffffffffffffffff165b91505090565b6040805160a080820183526000805474ffffffffffffffffffffffffffffffffffffffffff8082168552750100000000000000000000000000000000000000000080830464ffffffffff166020808801919091527a010000000000000000000000000000000000000000000000000000840460ff16878901527b0100000000000000000000000000000000000000000000000000000080850462ffffff9081166060808b01919091527e010000000000000000000000000000000000000000000000000000000000009687900461ffff9081166080808d01919091528c519a8b018d52600154978816808c529688048416958b018690527801000000000000000000000000000000000000000000000000880484169c8b019c909c52928604909116908801529390920490921695840195909552909384918291611f9991908690613605565b5050915091506000611fc6856000015174ffffffffffffffffffffffffffffffffffffffffff1684613c3f565b90506000611fef856000015174ffffffffffffffffffffffffffffffffffffffffff1684613c3f565b9050808211611ffe5780612000565b815b965050505050505090565b6040805133602080830191909152600382840152825180830384018152606083019384905280519101207fb5c736e40000000000000000000000000000000000000000000000000000000090925260648101919091526000907f000000000000000000000000000000000000000000000000000000000000000073ffffffffffffffffffffffffffffffffffffffff169063b5c736e490608401602060405180830381865afa1580156120c2573d6000803e3d6000fd5b505050506040513d601f19601f820116820180604052508101906120e691906141bb565b6040517fb5c736e40000000000000000000000000000000000000000000000000000000081527fb53127684a568b3173ae13b9f8a6016e243e63b6e8ee1178d6a717850b5d6103600482015260019182169091149150600090339073ffffffffffffffffffffffffffffffffffffffff7f0000000000000000000000000000000000000000000000000000000000000000169063b5c736e490602401602060405180830381865afa15801561219f573d6000803e3d6000fd5b505050506040513d601f19601f820116820180604052508101906121c391906141bb565b73ffffffffffffffffffffffffffffffffffffffff16149050811580156121e8575080155b15612223576040517fc82fc46500000000000000000000000000000000000000000000000000000000815261ebc0600482015260240161117f565b612231606462ffffff614127565b83111561226e576040517fc82fc46500000000000000000000000000000000000000000000000000000000815261ebbf600482015260240161117f565b60015460009061229e906064907501000000000000000000000000000000000000000000900462ffffff16614127565b90506122ab606485614180565b6001805462ffffff929092167501000000000000000000000000000000000000000000027fffffffffffffffff000000ffffffffffffffffffffffffffffffffffffffffff90921691909117905560408051828152602081018690527f5a860511811f4b9bff28b459bb3b23dd57c9b6708cfd9d94ba1420bef5dc4cf9910161124e565b6060611b53613c8d565b6040805160a080820183526000805474ffffffffffffffffffffffffffffffffffffffffff808216855264ffffffffff75010000000000000000000000000000000000000000008084049190911660208088019190915260ff7a0100000000000000000000000000000000000000000000000000008504168789015262ffffff7b0100000000000000000000000000000000000000000000000000000080860482166060808b019190915261ffff7e010000000000000000000000000000000000000000000000000000000000009788900481166080808d01919091528c519a8b018d526001549788168b529587048416948a01949094527801000000000000000000000000000000000000000000000000860483169a89019a909a528404169786019790975291900490941693820193909352829182918291829182918291829182918291906124a682600042826060015162ffffff16836020015164ffffffffff1601109050919050565b156124ea576124da816000015174ffffffffffffffffffffffffffffffffffffffffff1683836020015162ffffff16613605565b929e50909c509099509750612523565b81518151604084015174ffffffffffffffffffffffffffffffffffffffffff9283169e5091169b50600181811614995060029081161497505b61253860008c836040015162ffffff1661369e565b965061254f60008c836060015162ffffff1661369e565b9550620f42406064826080015161ffff1661256a9190614127565b61257790620f424061413e565b612581908d614127565b61258b9190614180565b99508a8c11801561259b5750898c105b156125a4578b99505b868c109450858c1093508a8c119250505090919293949596979899565b600080546b033b2e3c9fd0803ce80000009061090c90849074ffffffffffffffffffffffffffffffffffffffffff16614127565b6040517fb5c736e40000000000000000000000000000000000000000000000000000000081527fb53127684a568b3173ae13b9f8a6016e243e63b6e8ee1178d6a717850b5d61036004820152339073ffffffffffffffffffffffffffffffffffffffff7f0000000000000000000000000000000000000000000000000000000000000000169063b5c736e490602401602060405180830381865afa1580156126a1573d6000803e3d6000fd5b505050506040513d601f19601f820116820180604052508101906126c591906141bb565b73ffffffffffffffffffffffffffffffffffffffff1614612716576040517fc82fc46500000000000000000000000000000000000000000000000000000000815261ebc0600482015260240161117f565b61ffff811180612724575080155b1561275f576040517fc82fc46500000000000000000000000000000000000000000000000000000000815261ebbf600482015260240161117f565b6000805461ffff8381167e010000000000000000000000000000000000000000000000000000000000009081027dffffffffffffffffffffffffffffffffffffffffffffffffffffffffffff84161790935560408051939092041680835260208301849052917f0d85068d514b7dcaffeac0819f83d2c909ca9f783d39b2c9e7e717c446b4ce6791015b60405180910390a15050565b6040517fb5c736e40000000000000000000000000000000000000000000000000000000081527fb53127684a568b3173ae13b9f8a6016e243e63b6e8ee1178d6a717850b5d61036004820152339073ffffffffffffffffffffffffffffffffffffffff7f0000000000000000000000000000000000000000000000000000000000000000169063b5c736e490602401602060405180830381865afa1580156128a1573d6000803e3d6000fd5b505050506040513d601f19601f820116820180604052508101906128c591906141bb565b73ffffffffffffffffffffffffffffffffffffffff1614612916576040517fc82fc46500000000000000000000000000000000000000000000000000000000815261ebc0600482015260240161117f565b62ffffff811180612925575080155b15612960576040517fc82fc46500000000000000000000000000000000000000000000000000000000815261ebbf600482015260240161117f565b6000805462ffffff8381167b010000000000000000000000000000000000000000000000000000009081027fffff000000ffffffffffffffffffffffffffffffffffffffffffffffffffffff84161790935560408051939092041680835260208301849052917fe20dfd2ce7e052628278a16997f363cfa124066a6e4f5e60162f1ece7d59798091016127e9565b6040805160a0810182526000805474ffffffffffffffffffffffffffffffffffffffffff811683527501000000000000000000000000000000000000000000810464ffffffffff16602084018190527a010000000000000000000000000000000000000000000000000000820460ff16948401949094527b01000000000000000000000000000000000000000000000000000000810462ffffff16606084018190527e0100000000000000000000000000000000000000000000000000000000000090910461ffff16608084015290924291011015612ba5576040805160a08101825260015474ffffffffffffffffffffffffffffffffffffffffff81168083527501000000000000000000000000000000000000000000820462ffffff90811660208501819052780100000000000000000000000000000000000000000000000084048216958501959095527b0100000000000000000000000000000000000000000000000000000083041660608401527e0100000000000000000000000000000000000000000000000000000000000090910461ffff1660808301529091612b9a91908490613605565b509195945050505050565b5174ffffffffffffffffffffffffffffffffffffffffff16919050565b6040805133602080830191909152600382840152825180830384018152606083019384905280519101207fb5c736e40000000000000000000000000000000000000000000000000000000090925260648101919091526000907f000000000000000000000000000000000000000000000000000000000000000073ffffffffffffffffffffffffffffffffffffffff169063b5c736e490608401602060405180830381865afa158015612c79573d6000803e3d6000fd5b505050506040513d601f19601f82011682018060405250810190612c9d91906141bb565b6040517fb5c736e40000000000000000000000000000000000000000000000000000000081527fb53127684a568b3173ae13b9f8a6016e243e63b6e8ee1178d6a717850b5d6103600482015260019182169091149150600090339073ffffffffffffffffffffffffffffffffffffffff7f0000000000000000000000000000000000000000000000000000000000000000169063b5c736e490602401602060405180830381865afa158015612d56573d6000803e3d6000fd5b505050506040513d601f19601f82011682018060405250810190612d7a91906141bb565b73ffffffffffffffffffffffffffffffffffffffff1614905081158015612d9f575080155b15612dda576040517fc82fc46500000000000000000000000000000000000000000000000000000000815261ebc0600482015260240161117f565b600180546000547fffffffffffffffffffffff000000000000000000000000000000000000000000821674ffffffffffffffffffffffffffffffffffffffffff9182169081179093556040519116917f48ed0deba5df6794da28946c33455c1898c767d82e7ab2080e5586c329c6830a91612e5d91848252602082015260400190565b60405180910390a1505050565b6040805160a080820183526000805474ffffffffffffffffffffffffffffffffffffffffff811684527501000000000000000000000000000000000000000000810464ffffffffff166020808601919091527a010000000000000000000000000000000000000000000000000000820460ff16858701527b01000000000000000000000000000000000000000000000000000000820462ffffff166060808701919091527e0100000000000000000000000000000000000000000000000000000000000090920461ffff166080808701919091528651948501875283855290840183905294830182905282018190529281018390526000806000612f8a85600042826060015162ffffff16836020015164ffffffffff1601109050919050565b15613071576040805160a08101825260015474ffffffffffffffffffffffffffffffffffffffffff81168083527501000000000000000000000000000000000000000000820462ffffff90811660208501819052780100000000000000000000000000000000000000000000000084048216958501959095527b0100000000000000000000000000000000000000000000000000000083041660608401527e0100000000000000000000000000000000000000000000000000000000000090910461ffff166080830152909550613062918790613605565b929850909450925090506130a1565b50506040830151835174ffffffffffffffffffffffffffffffffffffffffff169450600281811614906001908116145b81156130ce57600083116107a05760015474ffffffffffffffffffffffffffffffffffffffffff166107a2565b8080156130e2575060408501516004908116145b1561320957835174ffffffffffffffffffffffffffffffffffffffffff166000036131ce576040805160a08101825260015474ffffffffffffffffffffffffffffffffffffffffff811682527501000000000000000000000000000000000000000000810462ffffff9081166020840152780100000000000000000000000000000000000000000000000082048116938301939093527b01000000000000000000000000000000000000000000000000000000810490921660608201527e0100000000000000000000000000000000000000000000000000000000000090910461ffff16608082015293505b6107a286600085116131f857855174ffffffffffffffffffffffffffffffffffffffffff166131fa565b845b866040015162ffffff1661369e565b505050505090565b6040805160a0810182526000805474ffffffffffffffffffffffffffffffffffffffffff811683527501000000000000000000000000000000000000000000810464ffffffffff16602084018190527a010000000000000000000000000000000000000000000000000000820460ff16948401949094527b01000000000000000000000000000000000000000000000000000000810462ffffff16606084018190527e0100000000000000000000000000000000000000000000000000000000000090910461ffff166080840152909242910110156132fc57611e4d6132f760016136ba565b613df2565b8051611e4d9074ffffffffffffffffffffffffffffffffffffffffff16613df2565b6040805133602080830191909152600382840152825180830384018152606083019384905280519101207fb5c736e40000000000000000000000000000000000000000000000000000000090925260648101919091526000907f000000000000000000000000000000000000000000000000000000000000000073ffffffffffffffffffffffffffffffffffffffff169063b5c736e490608401602060405180830381865afa1580156133d5573d6000803e3d6000fd5b505050506040513d601f19601f820116820180604052508101906133f991906141bb565b6040517fb5c736e40000000000000000000000000000000000000000000000000000000081527fb53127684a568b3173ae13b9f8a6016e243e63b6e8ee1178d6a717850b5d6103600482015260019182169091149150600090339073ffffffffffffffffffffffffffffffffffffffff7f0000000000000000000000000000000000000000000000000000000000000000169063b5c736e490602401602060405180830381865afa1580156134b2573d6000803e3d6000fd5b505050506040513d601f19601f820116820180604052508101906134d691906141bb565b73ffffffffffffffffffffffffffffffffffffffff16149050811580156134fb575080155b15613536576040517fc82fc46500000000000000000000000000000000000000000000000000000000815261ebc0600482015260240161117f565b620f4240831115613577576040517fc82fc46500000000000000000000000000000000000000000000000000000000815261ebbf600482015260240161117f565b6001805462ffffff8581167b010000000000000000000000000000000000000000000000000000009081027fffff000000ffffffffffffffffffffffffffffffffffffffffffffffffffffff84161790935560408051939092041680835260208301869052917ffe51ba8fc52e850f07aab61020c1f751e1fd8a5afbbbc922416e7c39fb56a101910161124e565b6000806000807f0000000000000000000000000000000000000000000000000000000000000000613634613e5c565b61363e9190614127565b93508360000361367e576040517fc82fc46500000000000000000000000000000000000000000000000000000000815261ebc2600482015260240161117f565b61368a84888888613f19565b939793965050508486119350508385109150565b620f4240818103830204808411156136b35750825b9392505050565b6040805160a080820183526000805474ffffffffffffffffffffffffffffffffffffffffff8082168552750100000000000000000000000000000000000000000080830464ffffffffff166020808801919091527a010000000000000000000000000000000000000000000000000000840460ff16878901527b0100000000000000000000000000000000000000000000000000000080850462ffffff9081166060808b01919091527e010000000000000000000000000000000000000000000000000000000000009687900461ffff9081166080808d01919091528c519a8b018d52600154978816808c529688048416958b018690527801000000000000000000000000000000000000000000000000880484169c8b019c909c529286049091169088015293909204909216958401959095529093849182918291906138049082908890613605565b9299509095509350915074ffffffffffffffffffffffffffffffffffffffffff871180613845575074ffffffffffffffffffffffffffffffffffffffffff84115b15613880576040517fc82fc46500000000000000000000000000000000000000000000000000000000815261ebc3600482015260240161117f565b8551608087015174ffffffffffffffffffffffffffffffffffffffffff9091169060009061ffff166138b2838b613c3f565b1080156138cf5750876080015161ffff166138cd8488613c3f565b105b1561392e5789156138f85760408801516007906138f09060e016600161413e565b16905061392e565b6040517fc82fc46500000000000000000000000000000000000000000000000000000000815261ebc1600482015260240161117f565b841561395e576040517fc563dbff0ec97fb0e0d8866b34100ce38af7fea1274967ce2211982755a29c9590600090a15b83156139db57600086620f42406139758c836141d4565b61397f9190614127565b6139899190614180565b9050876040015162ffffff168111806139aa5750876060015162ffffff1681115b156139d9576040517f01ebab6ce2fe9f982f6eef886119aad8adbd80d7c749b21283693d529521802190600090a15b505b64ffffffffff4216602089015274ffffffffffffffffffffffffffffffffffffffffff89168852611fe0600582901b1685613a17576000613a1a565b60025b85613a26576000613a29565b60015b60408b018051601c1691909117919091179190911760ff169081905288516000805460208c015160608d015160808e015174ffffffffffffffffffffffffffffffffffffffffff9095167fffffffffffff000000000000000000000000000000000000000000000000000090931692909217750100000000000000000000000000000000000000000064ffffffffff90921691909102177fffff00000000ffffffffffffffffffffffffffffffffffffffffffffffffffff167a0100000000000000000000000000000000000000000000000000009094027fffff000000ffffffffffffffffffffffffffffffffffffffffffffffffffffff16939093177b0100000000000000000000000000000000000000000000000000000062ffffff90941693909302929092177dffffffffffffffffffffffffffffffffffffffffffffffffffffffffffff167e0100000000000000000000000000000000000000000000000000000000000061ffff9092169190910217905585831015613bea57600180547fffffffffffffffffffffff0000000000000000000000000000000000000000001674ffffffffffffffffffffffffffffffffffffffffff88161790555b60408051838152602081018b9052908101849052606081018790527fa1d5e40f5a547f5719e968be1b8da9984c1d3e2c08737e31f4bacc9640c4ea359060800160405180910390a15050505050505050919050565b600081831115613c675782620f42408385030281613c5f57613c5f614151565b049050610916565b828211156109165782620f42408484030281613c8557613c85614151565b049392505050565b606060005b602081108015613cf857507f00000000000000000000000000000000000000000000000000000000000000008160208110613ccf57613ccf6141e7565b1a60f81b7fff000000000000000000000000000000000000000000000000000000000000001615155b15613d0f5780613d0781614216565b915050613c92565b60008167ffffffffffffffff811115613d2a57613d2a61424e565b6040519080825280601f01601f191660200182016040528015613d54576020820181803683370190505b50905060005b82811015613deb577f00000000000000000000000000000000000000000000000000000000000000008160208110613d9457613d946141e7565b1a60f81b828281518110613daa57613daa6141e7565b60200101907effffffffffffffffffffffffffffffffffffffffffffffffffffffffffffff1916908160001a90535080613de381614216565b915050613d5a565b5092915050565b600081600003613e0457506000919050565b7f0000000000000000000000000000000000000000000000000000000000000000613e2f5781610916565b81760a70c3c40a64e6c51999090b65f67d924000000000000081613e5557613e55614151565b0492915050565b6040517f07a2d13a0000000000000000000000000000000000000000000000000000000081526b033b2e3c9fd0803ce800000060048201526000907f000000000000000000000000000000000000000000000000000000000000000073ffffffffffffffffffffffffffffffffffffffff16906307a2d13a90602401602060405180830381865afa158015613ef5573d6000803e3d6000fd5b505050506040513d601f19601f82011682018060405250810190611b5391906141bb565b60006301e13380836020015164ffffffffff164203606484020281613f4057613f40614151565b049050620f424080820185026040850151919004915060e0168015613f955760006301e13380856060015162ffffff16606486020281613f8257613f82614151565b049050620f424082820281018402049250505b50808511613faf5783851015613fac575082613faf565b50835b949350505050565b600060208284031215613fc957600080fd5b5035919050565b73ffffffffffffffffffffffffffffffffffffffff8d8116825261ffff8d16602083015262ffffff8c16604083015264ffffffffff8b1660608301528916608082015287151560a082015286151560c0820152610180810186151560e08301528561010083015261404961012083018662ffffff169052565b62ffffff9390931661014082015261016001529a9950505050505050505050565b60006020828403121561407c57600080fd5b813580151581146136b357600080fd5b600060208083528351808285015260005b818110156140b95785810183015185820160400152820161409d565b5060006040828601015260407fffffffffffffffffffffffffffffffffffffffffffffffffffffffffffffffe0601f8301168501019250505092915050565b7f4e487b7100000000000000000000000000000000000000000000000000000000600052601160045260246000fd5b8082028115828204841417610916576109166140f8565b80820180821115610916576109166140f8565b7f4e487b7100000000000000000000000000000000000000000000000000000000600052601260045260246000fd5b6000826141b6577f4e487b7100000000000000000000000000000000000000000000000000000000600052601260045260246000fd5b500490565b6000602082840312156141cd57600080fd5b5051919050565b81810381811115610916576109166140f8565b7f4e487b7100000000000000000000000000000000000000000000000000000000600052603260045260246000fd5b60007fffffffffffffffffffffffffffffffffffffffffffffffffffffffffffffffff8203614247576142476140f8565b5060010190565b7f4e487b7100000000000000000000000000000000000000000000000000000000600052604160045260246000fdfea2646970667358221220c05a026bb73a975787c2bd28233f9afb3b3784a9ee7e8e4b5b25ccde46aa886264736f6c63430008150033"
}