{
  "address": "0x49C4CBDD4e7fa508303b33F3248638B9f8F6866c",
  "abi": [
    {
      "inputs": [
        {
          "components": [
            {
              "internalType": "string",
              "name": "infoName",
              "type": "string"
            },
            {
              "internalType": "address",
              "name": "liquidity",
              "type": "address"
            },
            {
              "internalType": "address",
              "name": "rateSource",
              "type": "address"
            },
            {
              "internalType": "uint256",
              "name": "rateMultiplier",
              "type": "uint256"
            },
            {
              "internalType": "bool",
              "name": "invertCenterPrice",
              "type": "bool"
            },
            {
              "internalType": "uint256",
              "name": "minUpdateDiffPercent",
              "type": "uint256"
            },
            {
              "internalType": "uint256",
              "name": "minHeartbeat",
              "type": "uint256"
            },
            {
              "internalType": "bool",
              "name": "avoidForcedLiquidationsCol",
              "type": "bool"
            },
            {
              "internalType": "bool",
              "name": "avoidForcedLiquidationsDebt",
              "type": "bool"
            },
            {
              "internalType": "uint256",
              "name": "maxAPRPercent",
              "type": "uint256"
            },
            {
              "internalType": "uint256",
              "name": "maxDownFromMaxReachedPercentCol",
              "type": "uint256"
            },
            {
              "internalType": "uint256",
              "name": "maxDownFromMaxReachedPercentDebt",
              "type": "uint256"
            },
            {
              "internalType": "uint256",
              "name": "maxDebtUpCapPercent",
              "type": "uint256"
            }
          ],
          "internalType": "struct FluidCappedRateBase.CappedRateConstructorParams",
          "name": "params_",
          "type": "tuple"
        },
        {
          "internalType": "address",
          "name": "rateSource2_",
          "type": "address"
        }
      ],
      "stateMutability": "nonpayable",
      "type": "constructor"
    },
    {
      "inputs": [
        {
          "internalType": "uint256",
          "name": "errorId_",
          "type": "uint256"
        }
      ],
      "name": "FluidOracleError",
      "type": "error"
    },
    {
      "anonymous": false,
      "inputs": [
        {
          "indexed": false,
          "internalType": "uint256",
          "name": "oldMaxRate",
          "type": "uint256"
        },
        {
          "indexed": false,
          "internalType": "uint256",
          "name": "newMaxRate",
          "type": "uint256"
        }
      ],
      "name": "LogForceResetMaxRate",
      "type": "event"
    },
    {
      "anonymous": false,
      "inputs": [],
      "name": "LogRateBelowMaxReached",
      "type": "event"
    },
    {
      "anonymous": false,
      "inputs": [],
      "name": "LogRateMaxAPRCapped",
      "type": "event"
    },
    {
      "anonymous": false,
      "inputs": [
        {
          "indexed": false,
          "internalType": "uint256",
          "name": "oldRate",
          "type": "uint256"
        },
        {
          "indexed": false,
          "internalType": "uint256",
          "name": "newRate",
          "type": "uint256"
        },
        {
          "indexed": false,
          "internalType": "uint256",
          "name": "oldMaxRate",
          "type": "uint256"
        },
        {
          "indexed": false,
          "internalType": "uint256",
          "name": "newMaxRate",
          "type": "uint256"
        }
      ],
      "name": "LogRebalanceRate",
      "type": "event"
    },
    {
      "anonymous": false,
      "inputs": [
        {
          "indexed": false,
          "internalType": "bool",
          "name": "oldAvoidForcedLiquidations",
          "type": "bool"
        },
        {
          "indexed": false,
          "internalType": "bool",
          "name": "newAvoidForcedLiquidations",
          "type": "bool"
        }
      ],
      "name": "LogUpdateAvoidForcedLiquidationsCol",
      "type": "event"
    },
    {
      "anonymous": false,
      "inputs": [
        {
          "indexed": false,
          "internalType": "bool",
          "name": "oldAvoidForcedLiquidations",
          "type": "bool"
        },
        {
          "indexed": false,
          "internalType": "bool",
          "name": "newAvoidForcedLiquidations",
          "type": "bool"
        }
      ],
      "name": "LogUpdateAvoidForcedLiquidationsDebt",
      "type": "event"
    },
    {
      "anonymous": false,
      "inputs": [
        {
          "indexed": false,
          "internalType": "uint256",
          "name": "oldMaxAPRPercent",
          "type": "uint256"
        },
        {
          "indexed": false,
          "internalType": "uint256",
          "name": "newMaxAPRPercent",
          "type": "uint256"
        }
      ],
      "name": "LogUpdateMaxAPRPercent",
      "type": "event"
    },
    {
      "anonymous": false,
      "inputs": [
        {
          "indexed": false,
          "internalType": "uint256",
          "name": "oldMaxDebtUpCapPercent",
          "type": "uint256"
        },
        {
          "indexed": false,
          "internalType": "uint256",
          "name": "newMaxDebtUpCapPercent",
          "type": "uint256"
        }
      ],
      "name": "LogUpdateMaxDebtUpCapPercent",
      "type": "event"
    },
    {
      "anonymous": false,
      "inputs": [
        {
          "indexed": false,
          "internalType": "uint256",
          "name": "oldMaxDownFromMaxReachedPercent",
          "type": "uint256"
        },
        {
          "indexed": false,
          "internalType": "uint256",
          "name": "newMaxDownFromMaxReachedPercent",
          "type": "uint256"
        }
      ],
      "name": "LogUpdateMaxDownFromMaxReachedPercentCol",
      "type": "event"
    },
    {
      "anonymous": false,
      "inputs": [
        {
          "indexed": false,
          "internalType": "uint256",
          "name": "oldMaxDownFromMaxReachedPercent",
          "type": "uint256"
        },
        {
          "indexed": false,
          "internalType": "uint256",
          "name": "newMaxDownFromMaxReachedPercent",
          "type": "uint256"
        }
      ],
      "name": "LogUpdateMaxDownFromMaxReachedPercentDebt",
      "type": "event"
    },
    {
      "anonymous": false,
      "inputs": [
        {
          "indexed": false,
          "internalType": "uint256",
          "name": "oldMinHeartbeat",
          "type": "uint256"
        },
        {
          "indexed": false,
          "internalType": "uint256",
          "name": "newMinHeartbeat",
          "type": "uint256"
        }
      ],
      "name": "LogUpdateMinHeartbeat",
      "type": "event"
    },
    {
      "anonymous": false,
      "inputs": [
        {
          "indexed": false,
          "internalType": "uint256",
          "name": "oldMinUpdateDiffPercent",
          "type": "uint256"
        },
        {
          "indexed": false,
          "internalType": "uint256",
          "name": "newMinUpdateDiffPercent",
          "type": "uint256"
        }
      ],
      "name": "LogUpdateMinUpdateDiffPercent",
      "type": "event"
    },
    {
      "inputs": [],
      "name": "RATE_SOURCE2",
      "outputs": [
        {
          "internalType": "address",
          "name": "",
          "type": "address"
        }
      ],
      "stateMutability": "view",
      "type": "function"
    },
    {
      "inputs": [],
      "name": "centerPrice",
      "outputs": [
        {
          "internalType": "uint256",
          "name": "price_",
          "type": "uint256"
        }
      ],
      "stateMutability": "nonpayable",
      "type": "function"
    },
    {
      "inputs": [],
      "name": "configData",
      "outputs": [
        {
          "internalType": "address",
          "name": "liquidity_",
          "type": "address"
        },
        {
          "internalType": "uint16",
          "name": "minUpdateDiffPercent_",
          "type": "uint16"
        },
        {
          "internalType": "uint24",
          "name": "minHeartbeat_",
          "type": "uint24"
        },
        {
          "internalType": "uint40",
          "name": "lastUpdateTime_",
          "type": "uint40"
        },
        {
          "internalType": "address",
          "name": "rateSource_",
          "type": "address"
        },
        {
          "internalType": "bool",
          "name": "invertCenterPrice_",
          "type": "bool"
        },
        {
          "internalType": "bool",
          "name": "avoidForcedLiquidationsCol_",
          "type": "bool"
        },
        {
          "internalType": "bool",
          "name": "avoidForcedLiquidationsDebt_",
          "type": "bool"
        },
        {
          "internalType": "uint256",
          "name": "maxAPRPercent_",
          "type": "uint256"
        },
        {
          "internalType": "uint24",
          "name": "maxDownFromMaxReachedPercentCol_",
          "type": "uint24"
        },
        {
          "internalType": "uint24",
          "name": "maxDownFromMaxReachedPercentDebt_",
          "type": "uint24"
        },
        {
          "internalType": "uint256",
          "name": "maxDebtUpCapPercent_",
          "type": "uint256"
        }
      ],
      "stateMutability": "view",
      "type": "function"
    },
    {
      "inputs": [],
      "name": "configPercentDiff",
      "outputs": [
        {
          "internalType": "uint256",
          "name": "configPercentDiff_",
          "type": "uint256"
        }
      ],
      "stateMutability": "view",
      "type": "function"
    },
    {
      "inputs": [
        {
          "internalType": "uint256",
          "name": "shares",
          "type": "uint256"
        }
      ],
      "name": "convertToAssets",
      "outputs": [
        {
          "internalType": "uint256",
          "name": "assets",
          "type": "uint256"
        }
      ],
      "stateMutability": "view",
      "type": "function"
    },
    {
      "inputs": [
        {
          "internalType": "uint256",
          "name": "assets",
          "type": "uint256"
        }
      ],
      "name": "convertToShares",
      "outputs": [
        {
          "internalType": "uint256",
          "name": "shares",
          "type": "uint256"
        }
      ],
      "stateMutability": "view",
      "type": "function"
    },
    {
      "inputs": [],
      "name": "forceResetMaxRate",
      "outputs": [],
      "stateMutability": "nonpayable",
      "type": "function"
    },
    {
      "inputs": [],
      "name": "getExchangeRate",
      "outputs": [
        {
          "internalType": "uint256",
          "name": "exchangeRate_",
          "type": "uint256"
        }
      ],
      "stateMutability": "view",
      "type": "function"
    },
    {
      "inputs": [],
      "name": "getExchangeRateLiquidate",
      "outputs": [
        {
          "internalType": "uint256",
          "name": "exchangeRate_",
          "type": "uint256"
        }
      ],
      "stateMutability": "view",
      "type": "function"
    },
    {
      "inputs": [],
      "name": "getExchangeRateLiquidateDebt",
      "outputs": [
        {
          "internalType": "uint256",
          "name": "exchangeRate_",
          "type": "uint256"
        }
      ],
      "stateMutability": "view",
      "type": "function"
    },
    {
      "inputs": [],
      "name": "getExchangeRateOperate",
      "outputs": [
        {
          "internalType": "uint256",
          "name": "exchangeRate_",
          "type": "uint256"
        }
      ],
      "stateMutability": "view",
      "type": "function"
    },
    {
      "inputs": [],
      "name": "getExchangeRateOperateDebt",
      "outputs": [
        {
          "internalType": "uint256",
          "name": "exchangeRate_",
          "type": "uint256"
        }
      ],
      "stateMutability": "view",
      "type": "function"
    },
    {
      "inputs": [],
      "name": "getRatesAndCaps",
      "outputs": [
        {
          "internalType": "uint256",
          "name": "rate_",
          "type": "uint256"
        },
        {
          "internalType": "uint256",
          "name": "maxReachedRate_",
          "type": "uint256"
        },
        {
          "internalType": "uint256",
          "name": "maxUpCappedRateDebt_",
          "type": "uint256"
        },
        {
          "internalType": "bool",
          "name": "isRateBelowMaxReached_",
          "type": "bool"
        },
        {
          "internalType": "bool",
          "name": "isUpMaxAPRCapped_",
          "type": "bool"
        },
        {
          "internalType": "uint256",
          "name": "downCappedRateCol_",
          "type": "uint256"
        },
        {
          "internalType": "uint256",
          "name": "downCappedRateDebt_",
          "type": "uint256"
        },
        {
          "internalType": "bool",
          "name": "isDownCappedCol_",
          "type": "bool"
        },
        {
          "internalType": "bool",
          "name": "isDownCappedDebt_",
          "type": "bool"
        },
        {
          "internalType": "bool",
          "name": "isUpCapped_",
          "type": "bool"
        }
      ],
      "stateMutability": "view",
      "type": "function"
    },
    {
      "inputs": [],
      "name": "infoName",
      "outputs": [
        {
          "internalType": "string",
          "name": "",
          "type": "string"
        }
      ],
      "stateMutability": "view",
      "type": "function"
    },
    {
      "inputs": [],
      "name": "isHeartbeatTrigger",
      "outputs": [
        {
          "internalType": "bool",
          "name": "",
          "type": "bool"
        }
      ],
      "stateMutability": "view",
      "type": "function"
    },
    {
      "inputs": [],
      "name": "rebalance",
      "outputs": [],
      "stateMutability": "nonpayable",
      "type": "function"
    },
    {
      "inputs": [],
      "name": "targetDecimals",
      "outputs": [
        {
          "internalType": "uint8",
          "name": "",
          "type": "uint8"
        }
      ],
      "stateMutability": "pure",
      "type": "function"
    },
    {
      "inputs": [
        {
          "internalType": "bool",
          "name": "avoid_",
          "type": "bool"
        }
      ],
      "name": "updateAvoidForcedLiquidationsCol",
      "outputs": [],
      "stateMutability": "nonpayable",
      "type": "function"
    },
    {
      "inputs": [
        {
          "internalType": "bool",
          "name": "avoid_",
          "type": "bool"
        }
      ],
      "name": "updateAvoidForcedLiquidationsDebt",
      "outputs": [],
      "stateMutability": "nonpayable",
      "type": "function"
    },
    {
      "inputs": [
        {
          "internalType": "uint256",
          "name": "newMaxAPRPercent_",
          "type": "uint256"
        }
      ],
      "name": "updateMaxAPRPercent",
      "outputs": [],
      "stateMutability": "nonpayable",
      "type": "function"
    },
    {
      "inputs": [
        {
          "internalType": "uint256",
          "name": "newMaxDebtUpCapPercent_",
          "type": "uint256"
        }
      ],
      "name": "updateMaxDebtUpCapPercent",
      "outputs": [],
      "stateMutability": "nonpayable",
      "type": "function"
    },
    {
      "inputs": [
        {
          "internalType": "uint256",
          "name": "newMaxDownFromMaxReachedPercent_",
          "type": "uint256"
        }
      ],
      "name": "updateMaxDownFromMaxReachedPercentCol",
      "outputs": [],
      "stateMutability": "nonpayable",
      "type": "function"
    },
    {
      "inputs": [
        {
          "internalType": "uint256",
          "name": "newMaxDownFromMaxReachedPercent_",
          "type": "uint256"
        }
      ],
      "name": "updateMaxDownFromMaxReachedPercentDebt",
      "outputs": [],
      "stateMutability": "nonpayable",
      "type": "function"
    },
    {
      "inputs": [
        {
          "internalType": "uint256",
          "name": "newMinHeartbeat_",
          "type": "uint256"
        }
      ],
      "name": "updateMinHeartbeat",
      "outputs": [],
      "stateMutability": "nonpayable",
      "type": "function"
    },
    {
      "inputs": [
        {
          "internalType": "uint256",
          "name": "newMinUpdateDiffPercent_",
          "type": "uint256"
        }
      ],
      "name": "updateMinUpdateDiffPercent",
      "outputs": [],
      "stateMutability": "nonpayable",
      "type": "function"
    }
  ],
  "transactionHash": "0x4e2027757a608054b93d19a0884660b8d06d6d63517659e1633ce63c907a151a",
  "args": [
    [
      {
        "infoName": "USDL per 1 CSUSDL",
        "rateSource": "0xbEeFc011e94f43b8B7b455eBaB290C7Ab4E216f1",
        "rateMultiplier": 1,
        "maxAPRPercent": 5000000,
        "maxDownFromMaxReachedPercentDebt": 1000000,
        "invertCenterPrice": true,
        "minUpdateDiffPercent": 10,
        "minHeartbeat": 90000,
        "avoidForcedLiquidationsCol": false,
        "maxDownFromMaxReachedPercentCol": 0,
        "avoidForcedLiquidationsDebt": false,
        "maxDebtUpCapPercent": 0,
        "liquidity": "0x52Aa899454998Be5b000Ad077a46Bbe360F4e497"
      },
      "0x7751E2F4b8ae93EF6B79d86419d42FE3295A4559"
    ]
  ],
  "numDeployments": 1,
  "linkedData": {
    "nonce": "169"
  },
  "bytecode": "0x6101406040523480156200001257600080fd5b5060405162004cdd38038062004cdd833981016040819052620000359162000686565b81516001600160a01b0380831660805260208401518492918391908116620000795760405163c82fc46560e01b815261ebbf60048201526024015b60405180910390fd5b60408201516001600160a01b038116620000ab5760405163c82fc46560e01b815261ebbf600482015260240162000070565b60608301511580620000c95750683635c9adc5dea000008360600151115b80620000d7575060a0830151155b80620000e8575060a083015161ffff105b80620000f6575060c0830151155b8062000108575060c083015162ffffff105b806200011b5750620f4240836101400151115b806200012e5750620f4240836101600151115b806200014d575062000145606462ffffff620007be565b836101200151115b806200016b575062000163606461ffff620007be565b836101800151115b156200018f5760405163c82fc46560e01b815261ebbf600482015260240162000070565b60208301516001600160a01b0390811660a05260408401511660c05260608301516101008190526080840151151560e052620001ca6200042e565b620001d69190620007be565b6000805460a086015160c08701516001600160a81b03949094166001600160d01b031990921691909117600160a81b4264ffffffffff1602176001600160d81b0316600160f01b61ffff9092169190910262ffffff60d81b191617600160d81b62ffffff909316929092029190911790556101008301516200025a5760006200025d565b60085b8360e001516200026f57600062000272565b60045b6000805460ff9390921792909216600160d01b0260ff60d01b19909116179055610120830151620002a690606490620007ea565b6001805462ffffff92909216600160a81b0262ffffff60a81b19909216919091179055610140830151158015620002df57508260e00151155b620002f057826101400151620002f5565b620f42405b6001805461016086015162ffffff908116600160d81b0262ffffff60d81b1994909116600160c01b029390931665ffffffffffff60c01b19909116179190911790556101808301516200034b90606490620007ea565b600180546000546001600160a81b031961ffff94909416600160f01b0293909316600160a81b600160f01b03909116176001600160a81b0390921691909117905550508151602010905080620003a057508051155b15620003c45760405163c82fc46560e01b815261ea6a600482015260240162000070565b602001516101205250806001600160a01b038116620003fb5760405163c82fc46560e01b815261ebbf600482015260240162000070565b61010051600114620004255760405163c82fc46560e01b815261ebbf600482015260240162000070565b50505062000827565b60006b033b2e3c9fd0803ce80000006080516001600160a01b03166307a2d13a6b033b2e3c9fd0803ce80000006040518263ffffffff1660e01b81526004016200047a91815260200190565b602060405180830381865afa15801562000498573d6000803e3d6000fd5b505050506040513d601f19601f82011682018060405250810190620004be91906200080d565b60c0516040516303d1689d60e11b81526b033b2e3c9fd0803ce800000060048201526001600160a01b03909116906307a2d13a90602401602060405180830381865afa15801562000513573d6000803e3d6000fd5b505050506040513d601f19601f820116820180604052508101906200053991906200080d565b620005459190620007be565b620005519190620007ea565b905090565b634e487b7160e01b600052604160045260246000fd5b6040516101a081016001600160401b038111828210171562000592576200059262000556565b60405290565b604051601f8201601f191681016001600160401b0381118282101715620005c357620005c362000556565b604052919050565b600082601f830112620005dd57600080fd5b81516001600160401b03811115620005f957620005f962000556565b60206200060f601f8301601f1916820162000598565b82815285828487010111156200062457600080fd5b60005b838110156200064457858101830151828201840152820162000627565b506000928101909101919091529392505050565b80516001600160a01b03811681146200067057600080fd5b919050565b805180151581146200067057600080fd5b600080604083850312156200069a57600080fd5b82516001600160401b0380821115620006b257600080fd5b908401906101a08287031215620006c857600080fd5b620006d26200056c565b825182811115620006e257600080fd5b620006f088828601620005cb565b825250620007016020840162000658565b6020820152620007146040840162000658565b604082015260608301516060820152620007316080840162000675565b608082015260a083015160a082015260c083015160c08201526200075860e0840162000675565b60e082015261010091506200076f82840162000675565b9181019190915261012082810151908201526101408083015190820152610160808301519082015261018091820151918101919091529150620007b56020840162000658565b90509250929050565b8082028115828204841417620007e457634e487b7160e01b600052601160045260246000fd5b92915050565b6000826200080857634e487b7160e01b600052601260045260246000fd5b500490565b6000602082840312156200082057600080fd5b5051919050565b60805160a05160c05160e05161010051610120516143da6200090360003960008181613cf60152613dbb01526000613664015260008181610f240152613e5d015260008181610f030152613fac015260008181610ed30152818161101d0152818161110f0152818161130e01528181611400015281816115f0015281816116e20152818161192101528181611a13015281816120bd015281816121af015281816126b1015281816128b101528181612c7401528181612d66015281816133d001526134c20152600081816102270152613f0701526143da6000f3fe608060405234801561001057600080fd5b50600436106101a35760003560e01c80638e7bfbc0116100ee578063d1e482f311610097578063f14fe76411610071578063f14fe7641461045f578063f3190c8914610467578063f763f7a61461046f578063fe51171d1461047757600080fd5b8063d1e482f314610431578063dd7a29f214610444578063e6aa216c1461045757600080fd5b8063abd5f95d116100c8578063abd5f95d146103b1578063b20faf9d146103c6578063c6e6f5921461041e57600080fd5b80638e7bfbc01461038e5780639dc1056614610396578063a00010691461039e57600080fd5b806371b70b7911610150578063767ceebb1161012a578063767ceebb1461029457806379557e68146102a75780637d7c2a1c1461038657600080fd5b806371b70b791461022257806371dbff561461026e57806373e98a681461028157600080fd5b806320e44e431161018157806320e44e43146101de57806336c1387e146101fe578063691e581a1461020d57600080fd5b806304664624146101a857806307a2d13a146101c357806313d368a7146101d6575b600080fd5b6101b061048a565b6040519081526020015b60405180910390f35b6101b06101d13660046140de565b610932565b6101b0610973565b6101e6610cda565b6040516101ba9c9b9a999897969594939291906140f7565b604051601b81526020016101ba565b61022061021b366004614191565b610fc2565b005b6102497f000000000000000000000000000000000000000000000000000000000000000081565b60405173ffffffffffffffffffffffffffffffffffffffff90911681526020016101ba565b61022061027c366004614191565b6112b3565b61022061028f3660046140de565b611595565b6102206102a23660046140de565b6118c6565b6040805160a08101825260005474ffffffffffffffffffffffffffffffffffffffffff811682527501000000000000000000000000000000000000000000810464ffffffffff1660208084018290527a010000000000000000000000000000000000000000000000000000830460ff16848601527b01000000000000000000000000000000000000000000000000000000830462ffffff16606085018190527e0100000000000000000000000000000000000000000000000000000000000090930461ffff1660809094019390935292514291909301108252016101ba565b610220611baf565b6101b0611c90565b6101b0611eaa565b6102206103ac3660046140de565b612062565b6103b9612386565b6040516101ba91906141b3565b6103ce612390565b604080519a8b5260208b0199909952978901969096529315156060880152911515608087015260a086015260c0850152151560e084015215156101008301521515610120820152610140016101ba565b6101b061042c3660046140de565b612618565b61022061043f3660046140de565b61264c565b6102206104523660046140de565b61284c565b6101b0612a45565b610220612c19565b6101b0612ec1565b6101b0613268565b6102206104853660046140de565b613375565b6040805160a080820183526000805474ffffffffffffffffffffffffffffffffffffffffff811684527501000000000000000000000000000000000000000000810464ffffffffff166020808601919091527a010000000000000000000000000000000000000000000000000000820460ff16858701527b01000000000000000000000000000000000000000000000000000000820462ffffff166060808701919091527e0100000000000000000000000000000000000000000000000000000000000090920461ffff1660808087019190915286519485018752838552908401839052948301829052820181905292810183905260008060006105aa85600042826060015162ffffff16836020015164ffffffffff1601109050919050565b15610692576040805160a08101825260015474ffffffffffffffffffffffffffffffffffffffffff81168083527501000000000000000000000000000000000000000000820462ffffff90811660208501819052780100000000000000000000000000000000000000000000000084048216958501959095527b0100000000000000000000000000000000000000000000000000000083041660608401527e0100000000000000000000000000000000000000000000000000000000000090910461ffff16608083015290955061068291879061365c565b92985090945090925090506106c4565b50508251604084015174ffffffffffffffffffffffffffffffffffffffffff9091169450600181811614906002908116145b8080156106d8575060408501516008908116145b1561080357826000036107ae576040805160a08101825260015474ffffffffffffffffffffffffffffffffffffffffff811680835262ffffff7501000000000000000000000000000000000000000000830481166020850152780100000000000000000000000000000000000000000000000083048116948401949094527b010000000000000000000000000000000000000000000000000000008204909316606083015261ffff7e01000000000000000000000000000000000000000000000000000000000000909104166080820152945092505b620f42406064856080015161ffff166107c7919061424e565b6107d490620f4240614265565b6107de908561424e565b6107e891906142a7565b92508286116107f757856107f9565b825b9550505050505090565b8161081057505050505090565b835174ffffffffffffffffffffffffffffffffffffffffff166000036108f7576040805160a08101825260015474ffffffffffffffffffffffffffffffffffffffffff811682527501000000000000000000000000000000000000000000810462ffffff9081166020840152780100000000000000000000000000000000000000000000000082048116938301939093527b01000000000000000000000000000000000000000000000000000000810490921660608201527e0100000000000000000000000000000000000000000000000000000000000090910461ffff16608082015293505b6107f9866000851161092157855174ffffffffffffffffffffffffffffffffffffffffff16610923565b845b866060015162ffffff166136f5565b6000805474ffffffffffffffffffffffffffffffffffffffffff16610963836b033b2e3c9fd0803ce800000061424e565b61096d91906142a7565b92915050565b6040805160a080820183526000805474ffffffffffffffffffffffffffffffffffffffffff811684527501000000000000000000000000000000000000000000810464ffffffffff166020808601919091527a010000000000000000000000000000000000000000000000000000820460ff16858701527b01000000000000000000000000000000000000000000000000000000820462ffffff166060808701919091527e0100000000000000000000000000000000000000000000000000000000000090920461ffff16608080870191909152865194850187528385529084018390529483018290528201819052928101839052600080610a9184600042826060015162ffffff16836020015164ffffffffff1601109050919050565b15610b79576040805160a08101825260015474ffffffffffffffffffffffffffffffffffffffffff81168083527501000000000000000000000000000000000000000000820462ffffff90811660208501819052780100000000000000000000000000000000000000000000000084048216958501959095527b0100000000000000000000000000000000000000000000000000000083041660608401527e0100000000000000000000000000000000000000000000000000000000000090910461ffff166080830152909450610b6991869061365c565b929750909350909150610ba39050565b508251604084015174ffffffffffffffffffffffffffffffffffffffffff90911694506001908116145b80610baf575050505090565b825174ffffffffffffffffffffffffffffffffffffffffff16600003610c96576040805160a08101825260015474ffffffffffffffffffffffffffffffffffffffffff811682527501000000000000000000000000000000000000000000810462ffffff9081166020840152780100000000000000000000000000000000000000000000000082048116938301939093527b01000000000000000000000000000000000000000000000000000000810490921660608201527e0100000000000000000000000000000000000000000000000000000000000090910461ffff16608082015292505b610cd18560008411610cc057845174ffffffffffffffffffffffffffffffffffffffffff16610cc2565b835b856060015162ffffff166136f5565b94505050505090565b6000806000806000806000806000806000806000806040518060a00160405290816000820160009054906101000a900474ffffffffffffffffffffffffffffffffffffffffff1674ffffffffffffffffffffffffffffffffffffffffff1674ffffffffffffffffffffffffffffffffffffffffff1681526020016000820160159054906101000a900464ffffffffff1664ffffffffff1664ffffffffff16815260200160008201601a9054906101000a900460ff1660ff1660ff16815260200160008201601b9054906101000a900462ffffff1662ffffff1662ffffff16815260200160008201601e9054906101000a900461ffff1661ffff1661ffff16815250509050600060016040518060a00160405290816000820160009054906101000a900474ffffffffffffffffffffffffffffffffffffffffff1674ffffffffffffffffffffffffffffffffffffffffff1674ffffffffffffffffffffffffffffffffffffffffff1681526020016000820160159054906101000a900462ffffff1662ffffff1662ffffff1681526020016000820160189054906101000a900462ffffff1662ffffff1662ffffff16815260200160008201601b9054906101000a900462ffffff1662ffffff1662ffffff16815260200160008201601e9054906101000a900461ffff1661ffff1661ffff168152505090507f00000000000000000000000000000000000000000000000000000000000000008260800151836060015184602001517f00000000000000000000000000000000000000000000000000000000000000007f0000000000000000000000000000000000000000000000000000000000000000600460ff16600489604001511660ff1614600860ff1660088a604001511660ff16146064896020015162ffffff16610f7b919061424e565b89604001518a6060015160648c6080015161ffff16610f9a919061424e565b9d509d509d509d509d509d509d509d509d509d509d509d505050909192939495969798999a9b565b6040805133602080830191909152600382840152825180830384018152606083019384905280519101207fb5c736e40000000000000000000000000000000000000000000000000000000090925260648101919091526000907f000000000000000000000000000000000000000000000000000000000000000073ffffffffffffffffffffffffffffffffffffffff169063b5c736e490608401602060405180830381865afa158015611079573d6000803e3d6000fd5b505050506040513d601f19601f8201168201806040525081019061109d91906142e2565b6040517fb5c736e40000000000000000000000000000000000000000000000000000000081527fb53127684a568b3173ae13b9f8a6016e243e63b6e8ee1178d6a717850b5d6103600482015260019182169091149150600090339073ffffffffffffffffffffffffffffffffffffffff7f0000000000000000000000000000000000000000000000000000000000000000169063b5c736e490602401602060405180830381865afa158015611156573d6000803e3d6000fd5b505050506040513d601f19601f8201168201806040525081019061117a91906142e2565b73ffffffffffffffffffffffffffffffffffffffff161490508115801561119f575080155b156111df576040517fc82fc46500000000000000000000000000000000000000000000000000000000815261ebc060048201526024015b60405180910390fd5b6000547a010000000000000000000000000000000000000000000000000000900460089081161483611212576000611215565b60085b600080547fffffffffff00ffffffffffffffffffffffffffffffffffffffffffffffffffff81167a0100000000000000000000000000000000000000000000000000009182900460f71660ff94909416939093170291909117905560408051821515815285151560208201527ff26e4209c91ee7e9b517c3dd9c5aac7081ac9f14a3c501969bfc3e7ff133adf891015b60405180910390a150505050565b6040805133602080830191909152600382840152825180830384018152606083019384905280519101207fb5c736e40000000000000000000000000000000000000000000000000000000090925260648101919091526000907f000000000000000000000000000000000000000000000000000000000000000073ffffffffffffffffffffffffffffffffffffffff169063b5c736e490608401602060405180830381865afa15801561136a573d6000803e3d6000fd5b505050506040513d601f19601f8201168201806040525081019061138e91906142e2565b6040517fb5c736e40000000000000000000000000000000000000000000000000000000081527fb53127684a568b3173ae13b9f8a6016e243e63b6e8ee1178d6a717850b5d6103600482015260019182169091149150600090339073ffffffffffffffffffffffffffffffffffffffff7f0000000000000000000000000000000000000000000000000000000000000000169063b5c736e490602401602060405180830381865afa158015611447573d6000803e3d6000fd5b505050506040513d601f19601f8201168201806040525081019061146b91906142e2565b73ffffffffffffffffffffffffffffffffffffffff1614905081158015611490575080155b156114cb576040517fc82fc46500000000000000000000000000000000000000000000000000000000815261ebc060048201526024016111d6565b6000547a0100000000000000000000000000000000000000000000000000009004600490811614836114fe576000611501565b60045b600080547fffffffffff00ffffffffffffffffffffffffffffffffffffffffffffffffffff81167a0100000000000000000000000000000000000000000000000000009182900460fb1660ff94909416939093170291909117905560408051821515815285151560208201527f85a585c4b90f71caba3c97aa85dfa2b36993024b9e1900e505364f47bbcff8ec91016112a5565b6040805133602080830191909152600382840152825180830384018152606083019384905280519101207fb5c736e40000000000000000000000000000000000000000000000000000000090925260648101919091526000907f000000000000000000000000000000000000000000000000000000000000000073ffffffffffffffffffffffffffffffffffffffff169063b5c736e490608401602060405180830381865afa15801561164c573d6000803e3d6000fd5b505050506040513d601f19601f8201168201806040525081019061167091906142e2565b6040517fb5c736e40000000000000000000000000000000000000000000000000000000081527fb53127684a568b3173ae13b9f8a6016e243e63b6e8ee1178d6a717850b5d6103600482015260019182169091149150600090339073ffffffffffffffffffffffffffffffffffffffff7f0000000000000000000000000000000000000000000000000000000000000000169063b5c736e490602401602060405180830381865afa158015611729573d6000803e3d6000fd5b505050506040513d601f19601f8201168201806040525081019061174d91906142e2565b73ffffffffffffffffffffffffffffffffffffffff1614905081158015611772575080155b156117ad576040517fc82fc46500000000000000000000000000000000000000000000000000000000815261ebc060048201526024016111d6565b6117ba606461ffff61424e565b8311156117f7576040517fc82fc46500000000000000000000000000000000000000000000000000000000815261ebbf60048201526024016111d6565b60015460009061182f906064907e01000000000000000000000000000000000000000000000000000000000000900461ffff1661424e565b905061183c6064856142a7565b6001805461ffff929092167e01000000000000000000000000000000000000000000000000000000000000027dffffffffffffffffffffffffffffffffffffffffffffffffffffffffffff90921691909117905560408051828152602081018690527fde99abbfc304a53cbdfa0db8c0fa93869f92defdfb9926c7c346c1fcb18cf04991016112a5565b6040805133602080830191909152600382840152825180830384018152606083019384905280519101207fb5c736e40000000000000000000000000000000000000000000000000000000090925260648101919091526000907f000000000000000000000000000000000000000000000000000000000000000073ffffffffffffffffffffffffffffffffffffffff169063b5c736e490608401602060405180830381865afa15801561197d573d6000803e3d6000fd5b505050506040513d601f19601f820116820180604052508101906119a191906142e2565b6040517fb5c736e40000000000000000000000000000000000000000000000000000000081527fb53127684a568b3173ae13b9f8a6016e243e63b6e8ee1178d6a717850b5d6103600482015260019182169091149150600090339073ffffffffffffffffffffffffffffffffffffffff7f0000000000000000000000000000000000000000000000000000000000000000169063b5c736e490602401602060405180830381865afa158015611a5a573d6000803e3d6000fd5b505050506040513d601f19601f82011682018060405250810190611a7e91906142e2565b73ffffffffffffffffffffffffffffffffffffffff1614905081158015611aa3575080155b15611ade576040517fc82fc46500000000000000000000000000000000000000000000000000000000815261ebc060048201526024016111d6565b620f4240831115611b1f576040517fc82fc46500000000000000000000000000000000000000000000000000000000815261ebbf60048201526024016111d6565b6001805462ffffff85811678010000000000000000000000000000000000000000000000009081027fffffffffff000000ffffffffffffffffffffffffffffffffffffffffffffffff84161790935560408051939092041680835260208301869052917ff228de6bd894d485e2abff17a7e1801febe7c7d377cbc09ea6b105afdec3e69791016112a5565b905090565b6040805160a08101825260005474ffffffffffffffffffffffffffffffffffffffffff811682527501000000000000000000000000000000000000000000810464ffffffffff16602083018190527a010000000000000000000000000000000000000000000000000000820460ff16938301939093527b01000000000000000000000000000000000000000000000000000000810462ffffff16606083018190527e0100000000000000000000000000000000000000000000000000000000000090910461ffff16608090920191909152611c8d9142910110613711565b50565b6040805160a0810182526000805474ffffffffffffffffffffffffffffffffffffffffff811683527501000000000000000000000000000000000000000000810464ffffffffff16602084018190527a010000000000000000000000000000000000000000000000000000820460ff16948401949094527b01000000000000000000000000000000000000000000000000000000810462ffffff16606084018190527e0100000000000000000000000000000000000000000000000000000000000090910461ffff16608084015290924291011015611e5c576040805160a08101825260015474ffffffffffffffffffffffffffffffffffffffffff81168083527501000000000000000000000000000000000000000000820462ffffff90811660208501819052780100000000000000000000000000000000000000000000000084048216958501959095527b0100000000000000000000000000000000000000000000000000000083041660608401527e0100000000000000000000000000000000000000000000000000000000000090910461ffff16608083015290916000918291611e419190869061365c565b509196509250905080611e545784610cd1565b509392505050565b6040810151600290811614611e8957805174ffffffffffffffffffffffffffffffffffffffffff16611ea4565b60015474ffffffffffffffffffffffffffffffffffffffffff165b91505090565b6040805160a080820183526000805474ffffffffffffffffffffffffffffffffffffffffff8082168552750100000000000000000000000000000000000000000080830464ffffffffff166020808801919091527a010000000000000000000000000000000000000000000000000000840460ff16878901527b0100000000000000000000000000000000000000000000000000000080850462ffffff9081166060808b01919091527e010000000000000000000000000000000000000000000000000000000000009687900461ffff9081166080808d01919091528c519a8b018d52600154978816808c529688048416958b018690527801000000000000000000000000000000000000000000000000880484169c8b019c909c52928604909116908801529390920490921695840195909552909384918291611ff09190869061365c565b505091509150600061201d856000015174ffffffffffffffffffffffffffffffffffffffffff1684613c96565b90506000612046856000015174ffffffffffffffffffffffffffffffffffffffffff1684613c96565b90508082116120555780612057565b815b965050505050505090565b6040805133602080830191909152600382840152825180830384018152606083019384905280519101207fb5c736e40000000000000000000000000000000000000000000000000000000090925260648101919091526000907f000000000000000000000000000000000000000000000000000000000000000073ffffffffffffffffffffffffffffffffffffffff169063b5c736e490608401602060405180830381865afa158015612119573d6000803e3d6000fd5b505050506040513d601f19601f8201168201806040525081019061213d91906142e2565b6040517fb5c736e40000000000000000000000000000000000000000000000000000000081527fb53127684a568b3173ae13b9f8a6016e243e63b6e8ee1178d6a717850b5d6103600482015260019182169091149150600090339073ffffffffffffffffffffffffffffffffffffffff7f0000000000000000000000000000000000000000000000000000000000000000169063b5c736e490602401602060405180830381865afa1580156121f6573d6000803e3d6000fd5b505050506040513d601f19601f8201168201806040525081019061221a91906142e2565b73ffffffffffffffffffffffffffffffffffffffff161490508115801561223f575080155b1561227a576040517fc82fc46500000000000000000000000000000000000000000000000000000000815261ebc060048201526024016111d6565b612288606462ffffff61424e565b8311156122c5576040517fc82fc46500000000000000000000000000000000000000000000000000000000815261ebbf60048201526024016111d6565b6001546000906122f5906064907501000000000000000000000000000000000000000000900462ffffff1661424e565b90506123026064856142a7565b6001805462ffffff929092167501000000000000000000000000000000000000000000027fffffffffffffffff000000ffffffffffffffffffffffffffffffffffffffffff90921691909117905560408051828152602081018690527f5a860511811f4b9bff28b459bb3b23dd57c9b6708cfd9d94ba1420bef5dc4cf991016112a5565b6060611baa613ce4565b6040805160a080820183526000805474ffffffffffffffffffffffffffffffffffffffffff808216855264ffffffffff75010000000000000000000000000000000000000000008084049190911660208088019190915260ff7a0100000000000000000000000000000000000000000000000000008504168789015262ffffff7b0100000000000000000000000000000000000000000000000000000080860482166060808b019190915261ffff7e010000000000000000000000000000000000000000000000000000000000009788900481166080808d01919091528c519a8b018d526001549788168b529587048416948a01949094527801000000000000000000000000000000000000000000000000860483169a89019a909a528404169786019790975291900490941693820193909352829182918291829182918291829182918291906124fd82600042826060015162ffffff16836020015164ffffffffff1601109050919050565b1561254157612531816000015174ffffffffffffffffffffffffffffffffffffffffff1683836020015162ffffff1661365c565b929e50909c50909950975061257a565b81518151604084015174ffffffffffffffffffffffffffffffffffffffffff9283169e5091169b50600181811614995060029081161497505b61258f60008c836040015162ffffff166136f5565b96506125a660008c836060015162ffffff166136f5565b9550620f42406064826080015161ffff166125c1919061424e565b6125ce90620f4240614265565b6125d8908d61424e565b6125e291906142a7565b99508a8c1180156125f25750898c105b156125fb578b99505b868c109450858c1093508a8c119250505090919293949596979899565b600080546b033b2e3c9fd0803ce80000009061096390849074ffffffffffffffffffffffffffffffffffffffffff1661424e565b6040517fb5c736e40000000000000000000000000000000000000000000000000000000081527fb53127684a568b3173ae13b9f8a6016e243e63b6e8ee1178d6a717850b5d61036004820152339073ffffffffffffffffffffffffffffffffffffffff7f0000000000000000000000000000000000000000000000000000000000000000169063b5c736e490602401602060405180830381865afa1580156126f8573d6000803e3d6000fd5b505050506040513d601f19601f8201168201806040525081019061271c91906142e2565b73ffffffffffffffffffffffffffffffffffffffff161461276d576040517fc82fc46500000000000000000000000000000000000000000000000000000000815261ebc060048201526024016111d6565b61ffff81118061277b575080155b156127b6576040517fc82fc46500000000000000000000000000000000000000000000000000000000815261ebbf60048201526024016111d6565b6000805461ffff8381167e010000000000000000000000000000000000000000000000000000000000009081027dffffffffffffffffffffffffffffffffffffffffffffffffffffffffffff84161790935560408051939092041680835260208301849052917f0d85068d514b7dcaffeac0819f83d2c909ca9f783d39b2c9e7e717c446b4ce6791015b60405180910390a15050565b6040517fb5c736e40000000000000000000000000000000000000000000000000000000081527fb53127684a568b3173ae13b9f8a6016e243e63b6e8ee1178d6a717850b5d61036004820152339073ffffffffffffffffffffffffffffffffffffffff7f0000000000000000000000000000000000000000000000000000000000000000169063b5c736e490602401602060405180830381865afa1580156128f8573d6000803e3d6000fd5b505050506040513d601f19601f8201168201806040525081019061291c91906142e2565b73ffffffffffffffffffffffffffffffffffffffff161461296d576040517fc82fc46500000000000000000000000000000000000000000000000000000000815261ebc060048201526024016111d6565b62ffffff81118061297c575080155b156129b7576040517fc82fc46500000000000000000000000000000000000000000000000000000000815261ebbf60048201526024016111d6565b6000805462ffffff8381167b010000000000000000000000000000000000000000000000000000009081027fffff000000ffffffffffffffffffffffffffffffffffffffffffffffffffffff84161790935560408051939092041680835260208301849052917fe20dfd2ce7e052628278a16997f363cfa124066a6e4f5e60162f1ece7d5979809101612840565b6040805160a0810182526000805474ffffffffffffffffffffffffffffffffffffffffff811683527501000000000000000000000000000000000000000000810464ffffffffff16602084018190527a010000000000000000000000000000000000000000000000000000820460ff16948401949094527b01000000000000000000000000000000000000000000000000000000810462ffffff16606084018190527e0100000000000000000000000000000000000000000000000000000000000090910461ffff16608084015290924291011015612bfc576040805160a08101825260015474ffffffffffffffffffffffffffffffffffffffffff81168083527501000000000000000000000000000000000000000000820462ffffff90811660208501819052780100000000000000000000000000000000000000000000000084048216958501959095527b0100000000000000000000000000000000000000000000000000000083041660608401527e0100000000000000000000000000000000000000000000000000000000000090910461ffff1660808301529091612bf19190849061365c565b509195945050505050565b5174ffffffffffffffffffffffffffffffffffffffffff16919050565b6040805133602080830191909152600382840152825180830384018152606083019384905280519101207fb5c736e40000000000000000000000000000000000000000000000000000000090925260648101919091526000907f000000000000000000000000000000000000000000000000000000000000000073ffffffffffffffffffffffffffffffffffffffff169063b5c736e490608401602060405180830381865afa158015612cd0573d6000803e3d6000fd5b505050506040513d601f19601f82011682018060405250810190612cf491906142e2565b6040517fb5c736e40000000000000000000000000000000000000000000000000000000081527fb53127684a568b3173ae13b9f8a6016e243e63b6e8ee1178d6a717850b5d6103600482015260019182169091149150600090339073ffffffffffffffffffffffffffffffffffffffff7f0000000000000000000000000000000000000000000000000000000000000000169063b5c736e490602401602060405180830381865afa158015612dad573d6000803e3d6000fd5b505050506040513d601f19601f82011682018060405250810190612dd191906142e2565b73ffffffffffffffffffffffffffffffffffffffff1614905081158015612df6575080155b15612e31576040517fc82fc46500000000000000000000000000000000000000000000000000000000815261ebc060048201526024016111d6565b600180546000547fffffffffffffffffffffff000000000000000000000000000000000000000000821674ffffffffffffffffffffffffffffffffffffffffff9182169081179093556040519116917f48ed0deba5df6794da28946c33455c1898c767d82e7ab2080e5586c329c6830a91612eb491848252602082015260400190565b60405180910390a1505050565b6040805160a080820183526000805474ffffffffffffffffffffffffffffffffffffffffff811684527501000000000000000000000000000000000000000000810464ffffffffff166020808601919091527a010000000000000000000000000000000000000000000000000000820460ff16858701527b01000000000000000000000000000000000000000000000000000000820462ffffff166060808701919091527e0100000000000000000000000000000000000000000000000000000000000090920461ffff166080808701919091528651948501875283855290840183905294830182905282018190529281018390526000806000612fe185600042826060015162ffffff16836020015164ffffffffff1601109050919050565b156130c8576040805160a08101825260015474ffffffffffffffffffffffffffffffffffffffffff81168083527501000000000000000000000000000000000000000000820462ffffff90811660208501819052780100000000000000000000000000000000000000000000000084048216958501959095527b0100000000000000000000000000000000000000000000000000000083041660608401527e0100000000000000000000000000000000000000000000000000000000000090910461ffff1660808301529095506130b991879061365c565b929850909450925090506130f8565b50506040830151835174ffffffffffffffffffffffffffffffffffffffffff169450600281811614906001908116145b811561312557600083116107f75760015474ffffffffffffffffffffffffffffffffffffffffff166107f9565b808015613139575060408501516004908116145b1561326057835174ffffffffffffffffffffffffffffffffffffffffff16600003613225576040805160a08101825260015474ffffffffffffffffffffffffffffffffffffffffff811682527501000000000000000000000000000000000000000000810462ffffff9081166020840152780100000000000000000000000000000000000000000000000082048116938301939093527b01000000000000000000000000000000000000000000000000000000810490921660608201527e0100000000000000000000000000000000000000000000000000000000000090910461ffff16608082015293505b6107f9866000851161324f57855174ffffffffffffffffffffffffffffffffffffffffff16613251565b845b866040015162ffffff166136f5565b505050505090565b6040805160a0810182526000805474ffffffffffffffffffffffffffffffffffffffffff811683527501000000000000000000000000000000000000000000810464ffffffffff16602084018190527a010000000000000000000000000000000000000000000000000000820460ff16948401949094527b01000000000000000000000000000000000000000000000000000000810462ffffff16606084018190527e0100000000000000000000000000000000000000000000000000000000000090910461ffff1660808401529092429101101561335357611ea461334e6001613711565b613e49565b8051611ea49074ffffffffffffffffffffffffffffffffffffffffff16613e49565b6040805133602080830191909152600382840152825180830384018152606083019384905280519101207fb5c736e40000000000000000000000000000000000000000000000000000000090925260648101919091526000907f000000000000000000000000000000000000000000000000000000000000000073ffffffffffffffffffffffffffffffffffffffff169063b5c736e490608401602060405180830381865afa15801561342c573d6000803e3d6000fd5b505050506040513d601f19601f8201168201806040525081019061345091906142e2565b6040517fb5c736e40000000000000000000000000000000000000000000000000000000081527fb53127684a568b3173ae13b9f8a6016e243e63b6e8ee1178d6a717850b5d6103600482015260019182169091149150600090339073ffffffffffffffffffffffffffffffffffffffff7f0000000000000000000000000000000000000000000000000000000000000000169063b5c736e490602401602060405180830381865afa158015613509573d6000803e3d6000fd5b505050506040513d601f19601f8201168201806040525081019061352d91906142e2565b73ffffffffffffffffffffffffffffffffffffffff1614905081158015613552575080155b1561358d576040517fc82fc46500000000000000000000000000000000000000000000000000000000815261ebc060048201526024016111d6565b620f42408311156135ce576040517fc82fc46500000000000000000000000000000000000000000000000000000000815261ebbf60048201526024016111d6565b6001805462ffffff8581167b010000000000000000000000000000000000000000000000000000009081027fffff000000ffffffffffffffffffffffffffffffffffffffffffffffffffffff84161790935560408051939092041680835260208301869052917ffe51ba8fc52e850f07aab61020c1f751e1fd8a5afbbbc922416e7c39fb56a10191016112a5565b6000806000807f000000000000000000000000000000000000000000000000000000000000000061368b613eb3565b613695919061424e565b9350836000036136d5576040517fc82fc46500000000000000000000000000000000000000000000000000000000815261ebc260048201526024016111d6565b6136e184888888614040565b939793965050508486119350508385109150565b620f42408181038302048084111561370a5750825b9392505050565b6040805160a080820183526000805474ffffffffffffffffffffffffffffffffffffffffff8082168552750100000000000000000000000000000000000000000080830464ffffffffff166020808801919091527a010000000000000000000000000000000000000000000000000000840460ff16878901527b0100000000000000000000000000000000000000000000000000000080850462ffffff9081166060808b01919091527e010000000000000000000000000000000000000000000000000000000000009687900461ffff9081166080808d01919091528c519a8b018d52600154978816808c529688048416958b018690527801000000000000000000000000000000000000000000000000880484169c8b019c909c5292860490911690880152939092049092169584019590955290938491829182919061385b908290889061365c565b9299509095509350915074ffffffffffffffffffffffffffffffffffffffffff87118061389c575074ffffffffffffffffffffffffffffffffffffffffff84115b156138d7576040517fc82fc46500000000000000000000000000000000000000000000000000000000815261ebc360048201526024016111d6565b8551608087015174ffffffffffffffffffffffffffffffffffffffffff9091169060009061ffff16613909838b613c96565b1080156139265750876080015161ffff166139248488613c96565b105b1561398557891561394f5760408801516007906139479060e0166001614265565b169050613985565b6040517fc82fc46500000000000000000000000000000000000000000000000000000000815261ebc160048201526024016111d6565b84156139b5576040517fc563dbff0ec97fb0e0d8866b34100ce38af7fea1274967ce2211982755a29c9590600090a15b8315613a3257600086620f42406139cc8c836142fb565b6139d6919061424e565b6139e091906142a7565b9050876040015162ffffff16811180613a015750876060015162ffffff1681115b15613a30576040517f01ebab6ce2fe9f982f6eef886119aad8adbd80d7c749b21283693d529521802190600090a15b505b64ffffffffff4216602089015274ffffffffffffffffffffffffffffffffffffffffff89168852611fe0600582901b1685613a6e576000613a71565b60025b85613a7d576000613a80565b60015b60408b018051601c1691909117919091179190911760ff169081905288516000805460208c015160608d015160808e015174ffffffffffffffffffffffffffffffffffffffffff9095167fffffffffffff000000000000000000000000000000000000000000000000000090931692909217750100000000000000000000000000000000000000000064ffffffffff90921691909102177fffff00000000ffffffffffffffffffffffffffffffffffffffffffffffffffff167a0100000000000000000000000000000000000000000000000000009094027fffff000000ffffffffffffffffffffffffffffffffffffffffffffffffffffff16939093177b0100000000000000000000000000000000000000000000000000000062ffffff90941693909302929092177dffffffffffffffffffffffffffffffffffffffffffffffffffffffffffff167e0100000000000000000000000000000000000000000000000000000000000061ffff9092169190910217905585831015613c4157600180547fffffffffffffffffffffff0000000000000000000000000000000000000000001674ffffffffffffffffffffffffffffffffffffffffff88161790555b60408051838152602081018b9052908101849052606081018790527fa1d5e40f5a547f5719e968be1b8da9984c1d3e2c08737e31f4bacc9640c4ea359060800160405180910390a15050505050505050919050565b600081831115613cbe5782620f42408385030281613cb657613cb6614278565b04905061096d565b8282111561096d5782620f42408484030281613cdc57613cdc614278565b049392505050565b606060005b602081108015613d4f57507f00000000000000000000000000000000000000000000000000000000000000008160208110613d2657613d2661430e565b1a60f81b7fff000000000000000000000000000000000000000000000000000000000000001615155b15613d665780613d5e8161433d565b915050613ce9565b60008167ffffffffffffffff811115613d8157613d81614375565b6040519080825280601f01601f191660200182016040528015613dab576020820181803683370190505b50905060005b82811015613e42577f00000000000000000000000000000000000000000000000000000000000000008160208110613deb57613deb61430e565b1a60f81b828281518110613e0157613e0161430e565b60200101907effffffffffffffffffffffffffffffffffffffffffffffffffffffffffffff1916908160001a90535080613e3a8161433d565b915050613db1565b5092915050565b600081600003613e5b57506000919050565b7f0000000000000000000000000000000000000000000000000000000000000000613e86578161096d565b81760a70c3c40a64e6c51999090b65f67d924000000000000081613eac57613eac614278565b0492915050565b6040517f07a2d13a0000000000000000000000000000000000000000000000000000000081526b033b2e3c9fd0803ce80000006004820181905260009173ffffffffffffffffffffffffffffffffffffffff7f000000000000000000000000000000000000000000000000000000000000000016906307a2d13a90602401602060405180830381865afa158015613f4e573d6000803e3d6000fd5b505050506040513d601f19601f82011682018060405250810190613f7291906142e2565b6040517f07a2d13a0000000000000000000000000000000000000000000000000000000081526b033b2e3c9fd0803ce800000060048201527f000000000000000000000000000000000000000000000000000000000000000073ffffffffffffffffffffffffffffffffffffffff16906307a2d13a90602401602060405180830381865afa158015614008573d6000803e3d6000fd5b505050506040513d601f19601f8201168201806040525081019061402c91906142e2565b614036919061424e565b611baa91906142a7565b60006301e13380836020015164ffffffffff16420360648402028161406757614067614278565b049050620f424080820185026040850151919004915060e01680156140bc5760006301e13380856060015162ffffff166064860202816140a9576140a9614278565b049050620f424082820281018402049250505b508085116140d657838510156140d35750826140d6565b50835b949350505050565b6000602082840312156140f057600080fd5b5035919050565b73ffffffffffffffffffffffffffffffffffffffff8d8116825261ffff8d16602083015262ffffff8c16604083015264ffffffffff8b1660608301528916608082015287151560a082015286151560c0820152610180810186151560e08301528561010083015261417061012083018662ffffff169052565b62ffffff9390931661014082015261016001529a9950505050505050505050565b6000602082840312156141a357600080fd5b8135801515811461370a57600080fd5b600060208083528351808285015260005b818110156141e0578581018301518582016040015282016141c4565b5060006040828601015260407fffffffffffffffffffffffffffffffffffffffffffffffffffffffffffffffe0601f8301168501019250505092915050565b7f4e487b7100000000000000000000000000000000000000000000000000000000600052601160045260246000fd5b808202811582820484141761096d5761096d61421f565b8082018082111561096d5761096d61421f565b7f4e487b7100000000000000000000000000000000000000000000000000000000600052601260045260246000fd5b6000826142dd577f4e487b7100000000000000000000000000000000000000000000000000000000600052601260045260246000fd5b500490565b6000602082840312156142f457600080fd5b5051919050565b8181038181111561096d5761096d61421f565b7f4e487b7100000000000000000000000000000000000000000000000000000000600052603260045260246000fd5b60007fffffffffffffffffffffffffffffffffffffffffffffffffffffffffffffffff820361436e5761436e61421f565b5060010190565b7f4e487b7100000000000000000000000000000000000000000000000000000000600052604160045260246000fdfea2646970667358221220cb84a2af264a77d86e93a22937220db69c3e425fee5532e71c6103dbc7b00f9864736f6c63430008150033"
}