{
  "address": "0x503Ef5B869b3f32D407c7816710f87b1D686C103",
  "abi": [
    {
      "inputs": [
        {
          "components": [
            {
              "internalType": "string",
              "name": "infoName",
              "type": "string"
            },
            {
              "internalType": "address",
              "name": "liquidity",
              "type": "address"
            },
            {
              "internalType": "address",
              "name": "rateSource",
              "type": "address"
            },
            {
              "internalType": "uint256",
              "name": "rateMultiplier",
              "type": "uint256"
            },
            {
              "internalType": "bool",
              "name": "invertCenterPrice",
              "type": "bool"
            },
            {
              "internalType": "uint256",
              "name": "minUpdateDiffPercent",
              "type": "uint256"
            },
            {
              "internalType": "uint256",
              "name": "minHeartbeat",
              "type": "uint256"
            },
            {
              "internalType": "bool",
              "name": "avoidForcedLiquidationsCol",
              "type": "bool"
            },
            {
              "internalType": "bool",
              "name": "avoidForcedLiquidationsDebt",
              "type": "bool"
            },
            {
              "internalType": "uint256",
              "name": "maxAPRPercent",
              "type": "uint256"
            },
            {
              "internalType": "uint256",
              "name": "maxDownFromMaxReachedPercentCol",
              "type": "uint256"
            },
            {
              "internalType": "uint256",
              "name": "maxDownFromMaxReachedPercentDebt",
              "type": "uint256"
            },
            {
              "internalType": "uint256",
              "name": "maxDebtUpCapPercent",
              "type": "uint256"
            }
          ],
          "internalType": "struct FluidCappedRateBase.CappedRateConstructorParams",
          "name": "params_",
          "type": "tuple"
        }
      ],
      "stateMutability": "nonpayable",
      "type": "constructor"
    },
    {
      "inputs": [
        {
          "internalType": "uint256",
          "name": "errorId_",
          "type": "uint256"
        }
      ],
      "name": "FluidOracleError",
      "type": "error"
    },
    {
      "anonymous": false,
      "inputs": [
        {
          "indexed": false,
          "internalType": "uint256",
          "name": "oldMaxRate",
          "type": "uint256"
        },
        {
          "indexed": false,
          "internalType": "uint256",
          "name": "newMaxRate",
          "type": "uint256"
        }
      ],
      "name": "LogForceResetMaxRate",
      "type": "event"
    },
    {
      "anonymous": false,
      "inputs": [],
      "name": "LogRateBelowMaxReached",
      "type": "event"
    },
    {
      "anonymous": false,
      "inputs": [],
      "name": "LogRateMaxAPRCapped",
      "type": "event"
    },
    {
      "anonymous": false,
      "inputs": [
        {
          "indexed": false,
          "internalType": "uint256",
          "name": "oldRate",
          "type": "uint256"
        },
        {
          "indexed": false,
          "internalType": "uint256",
          "name": "newRate",
          "type": "uint256"
        },
        {
          "indexed": false,
          "internalType": "uint256",
          "name": "oldMaxRate",
          "type": "uint256"
        },
        {
          "indexed": false,
          "internalType": "uint256",
          "name": "newMaxRate",
          "type": "uint256"
        }
      ],
      "name": "LogRebalanceRate",
      "type": "event"
    },
    {
      "anonymous": false,
      "inputs": [
        {
          "indexed": false,
          "internalType": "bool",
          "name": "oldAvoidForcedLiquidations",
          "type": "bool"
        },
        {
          "indexed": false,
          "internalType": "bool",
          "name": "newAvoidForcedLiquidations",
          "type": "bool"
        }
      ],
      "name": "LogUpdateAvoidForcedLiquidationsCol",
      "type": "event"
    },
    {
      "anonymous": false,
      "inputs": [
        {
          "indexed": false,
          "internalType": "bool",
          "name": "oldAvoidForcedLiquidations",
          "type": "bool"
        },
        {
          "indexed": false,
          "internalType": "bool",
          "name": "newAvoidForcedLiquidations",
          "type": "bool"
        }
      ],
      "name": "LogUpdateAvoidForcedLiquidationsDebt",
      "type": "event"
    },
    {
      "anonymous": false,
      "inputs": [
        {
          "indexed": false,
          "internalType": "uint256",
          "name": "oldMaxAPRPercent",
          "type": "uint256"
        },
        {
          "indexed": false,
          "internalType": "uint256",
          "name": "newMaxAPRPercent",
          "type": "uint256"
        }
      ],
      "name": "LogUpdateMaxAPRPercent",
      "type": "event"
    },
    {
      "anonymous": false,
      "inputs": [
        {
          "indexed": false,
          "internalType": "uint256",
          "name": "oldMaxDebtUpCapPercent",
          "type": "uint256"
        },
        {
          "indexed": false,
          "internalType": "uint256",
          "name": "newMaxDebtUpCapPercent",
          "type": "uint256"
        }
      ],
      "name": "LogUpdateMaxDebtUpCapPercent",
      "type": "event"
    },
    {
      "anonymous": false,
      "inputs": [
        {
          "indexed": false,
          "internalType": "uint256",
          "name": "oldMaxDownFromMaxReachedPercent",
          "type": "uint256"
        },
        {
          "indexed": false,
          "internalType": "uint256",
          "name": "newMaxDownFromMaxReachedPercent",
          "type": "uint256"
        }
      ],
      "name": "LogUpdateMaxDownFromMaxReachedPercentCol",
      "type": "event"
    },
    {
      "anonymous": false,
      "inputs": [
        {
          "indexed": false,
          "internalType": "uint256",
          "name": "oldMaxDownFromMaxReachedPercent",
          "type": "uint256"
        },
        {
          "indexed": false,
          "internalType": "uint256",
          "name": "newMaxDownFromMaxReachedPercent",
          "type": "uint256"
        }
      ],
      "name": "LogUpdateMaxDownFromMaxReachedPercentDebt",
      "type": "event"
    },
    {
      "anonymous": false,
      "inputs": [
        {
          "indexed": false,
          "internalType": "uint256",
          "name": "oldMinHeartbeat",
          "type": "uint256"
        },
        {
          "indexed": false,
          "internalType": "uint256",
          "name": "newMinHeartbeat",
          "type": "uint256"
        }
      ],
      "name": "LogUpdateMinHeartbeat",
      "type": "event"
    },
    {
      "anonymous": false,
      "inputs": [
        {
          "indexed": false,
          "internalType": "uint256",
          "name": "oldMinUpdateDiffPercent",
          "type": "uint256"
        },
        {
          "indexed": false,
          "internalType": "uint256",
          "name": "newMinUpdateDiffPercent",
          "type": "uint256"
        }
      ],
      "name": "LogUpdateMinUpdateDiffPercent",
      "type": "event"
    },
    {
      "inputs": [],
      "name": "centerPrice",
      "outputs": [
        {
          "internalType": "uint256",
          "name": "price_",
          "type": "uint256"
        }
      ],
      "stateMutability": "nonpayable",
      "type": "function"
    },
    {
      "inputs": [],
      "name": "configData",
      "outputs": [
        {
          "internalType": "address",
          "name": "liquidity_",
          "type": "address"
        },
        {
          "internalType": "uint16",
          "name": "minUpdateDiffPercent_",
          "type": "uint16"
        },
        {
          "internalType": "uint24",
          "name": "minHeartbeat_",
          "type": "uint24"
        },
        {
          "internalType": "uint40",
          "name": "lastUpdateTime_",
          "type": "uint40"
        },
        {
          "internalType": "address",
          "name": "rateSource_",
          "type": "address"
        },
        {
          "internalType": "bool",
          "name": "invertCenterPrice_",
          "type": "bool"
        },
        {
          "internalType": "bool",
          "name": "avoidForcedLiquidationsCol_",
          "type": "bool"
        },
        {
          "internalType": "bool",
          "name": "avoidForcedLiquidationsDebt_",
          "type": "bool"
        },
        {
          "internalType": "uint256",
          "name": "maxAPRPercent_",
          "type": "uint256"
        },
        {
          "internalType": "uint24",
          "name": "maxDownFromMaxReachedPercentCol_",
          "type": "uint24"
        },
        {
          "internalType": "uint24",
          "name": "maxDownFromMaxReachedPercentDebt_",
          "type": "uint24"
        },
        {
          "internalType": "uint256",
          "name": "maxDebtUpCapPercent_",
          "type": "uint256"
        }
      ],
      "stateMutability": "view",
      "type": "function"
    },
    {
      "inputs": [],
      "name": "configPercentDiff",
      "outputs": [
        {
          "internalType": "uint256",
          "name": "configPercentDiff_",
          "type": "uint256"
        }
      ],
      "stateMutability": "view",
      "type": "function"
    },
    {
      "inputs": [],
      "name": "forceResetMaxRate",
      "outputs": [],
      "stateMutability": "nonpayable",
      "type": "function"
    },
    {
      "inputs": [],
      "name": "getExchangeRate",
      "outputs": [
        {
          "internalType": "uint256",
          "name": "exchangeRate_",
          "type": "uint256"
        }
      ],
      "stateMutability": "view",
      "type": "function"
    },
    {
      "inputs": [],
      "name": "getExchangeRateLiquidate",
      "outputs": [
        {
          "internalType": "uint256",
          "name": "exchangeRate_",
          "type": "uint256"
        }
      ],
      "stateMutability": "view",
      "type": "function"
    },
    {
      "inputs": [],
      "name": "getExchangeRateLiquidateDebt",
      "outputs": [
        {
          "internalType": "uint256",
          "name": "exchangeRate_",
          "type": "uint256"
        }
      ],
      "stateMutability": "view",
      "type": "function"
    },
    {
      "inputs": [],
      "name": "getExchangeRateOperate",
      "outputs": [
        {
          "internalType": "uint256",
          "name": "exchangeRate_",
          "type": "uint256"
        }
      ],
      "stateMutability": "view",
      "type": "function"
    },
    {
      "inputs": [],
      "name": "getExchangeRateOperateDebt",
      "outputs": [
        {
          "internalType": "uint256",
          "name": "exchangeRate_",
          "type": "uint256"
        }
      ],
      "stateMutability": "view",
      "type": "function"
    },
    {
      "inputs": [],
      "name": "getRate",
      "outputs": [
        {
          "internalType": "uint256",
          "name": "",
          "type": "uint256"
        }
      ],
      "stateMutability": "view",
      "type": "function"
    },
    {
      "inputs": [],
      "name": "getRatesAndCaps",
      "outputs": [
        {
          "internalType": "uint256",
          "name": "rate_",
          "type": "uint256"
        },
        {
          "internalType": "uint256",
          "name": "maxReachedRate_",
          "type": "uint256"
        },
        {
          "internalType": "uint256",
          "name": "maxUpCappedRateDebt_",
          "type": "uint256"
        },
        {
          "internalType": "bool",
          "name": "isRateBelowMaxReached_",
          "type": "bool"
        },
        {
          "internalType": "bool",
          "name": "isUpMaxAPRCapped_",
          "type": "bool"
        },
        {
          "internalType": "uint256",
          "name": "downCappedRateCol_",
          "type": "uint256"
        },
        {
          "internalType": "uint256",
          "name": "downCappedRateDebt_",
          "type": "uint256"
        },
        {
          "internalType": "bool",
          "name": "isDownCappedCol_",
          "type": "bool"
        },
        {
          "internalType": "bool",
          "name": "isDownCappedDebt_",
          "type": "bool"
        },
        {
          "internalType": "bool",
          "name": "isUpCapped_",
          "type": "bool"
        }
      ],
      "stateMutability": "view",
      "type": "function"
    },
    {
      "inputs": [],
      "name": "infoName",
      "outputs": [
        {
          "internalType": "string",
          "name": "",
          "type": "string"
        }
      ],
      "stateMutability": "view",
      "type": "function"
    },
    {
      "inputs": [],
      "name": "isHeartbeatTrigger",
      "outputs": [
        {
          "internalType": "bool",
          "name": "",
          "type": "bool"
        }
      ],
      "stateMutability": "view",
      "type": "function"
    },
    {
      "inputs": [],
      "name": "rebalance",
      "outputs": [],
      "stateMutability": "nonpayable",
      "type": "function"
    },
    {
      "inputs": [],
      "name": "targetDecimals",
      "outputs": [
        {
          "internalType": "uint8",
          "name": "",
          "type": "uint8"
        }
      ],
      "stateMutability": "pure",
      "type": "function"
    },
    {
      "inputs": [
        {
          "internalType": "bool",
          "name": "avoid_",
          "type": "bool"
        }
      ],
      "name": "updateAvoidForcedLiquidationsCol",
      "outputs": [],
      "stateMutability": "nonpayable",
      "type": "function"
    },
    {
      "inputs": [
        {
          "internalType": "bool",
          "name": "avoid_",
          "type": "bool"
        }
      ],
      "name": "updateAvoidForcedLiquidationsDebt",
      "outputs": [],
      "stateMutability": "nonpayable",
      "type": "function"
    },
    {
      "inputs": [
        {
          "internalType": "uint256",
          "name": "newMaxAPRPercent_",
          "type": "uint256"
        }
      ],
      "name": "updateMaxAPRPercent",
      "outputs": [],
      "stateMutability": "nonpayable",
      "type": "function"
    },
    {
      "inputs": [
        {
          "internalType": "uint256",
          "name": "newMaxDebtUpCapPercent_",
          "type": "uint256"
        }
      ],
      "name": "updateMaxDebtUpCapPercent",
      "outputs": [],
      "stateMutability": "nonpayable",
      "type": "function"
    },
    {
      "inputs": [
        {
          "internalType": "uint256",
          "name": "newMaxDownFromMaxReachedPercent_",
          "type": "uint256"
        }
      ],
      "name": "updateMaxDownFromMaxReachedPercentCol",
      "outputs": [],
      "stateMutability": "nonpayable",
      "type": "function"
    },
    {
      "inputs": [
        {
          "internalType": "uint256",
          "name": "newMaxDownFromMaxReachedPercent_",
          "type": "uint256"
        }
      ],
      "name": "updateMaxDownFromMaxReachedPercentDebt",
      "outputs": [],
      "stateMutability": "nonpayable",
      "type": "function"
    },
    {
      "inputs": [
        {
          "internalType": "uint256",
          "name": "newMinHeartbeat_",
          "type": "uint256"
        }
      ],
      "name": "updateMinHeartbeat",
      "outputs": [],
      "stateMutability": "nonpayable",
      "type": "function"
    },
    {
      "inputs": [
        {
          "internalType": "uint256",
          "name": "newMinUpdateDiffPercent_",
          "type": "uint256"
        }
      ],
      "name": "updateMinUpdateDiffPercent",
      "outputs": [],
      "stateMutability": "nonpayable",
      "type": "function"
    }
  ],
  "transactionHash": "0x4bbcf3cef9a5f4ec801c1432c7143f52c39b9e8d3c7af3a94121e980cc218f58",
  "args": [
    [
      {
        "infoName": "BTC per 1 LBTC",
        "rateSource": "0x1De9fcfeDF3E51266c188ee422fbA1c7860DA0eF",
        "rateMultiplier": 1000000000,
        "maxAPRPercent": 250000,
        "maxDownFromMaxReachedPercentDebt": 50000,
        "invertCenterPrice": false,
        "minUpdateDiffPercent": 10,
        "minHeartbeat": 90000,
        "avoidForcedLiquidationsCol": false,
        "maxDownFromMaxReachedPercentCol": 0,
        "avoidForcedLiquidationsDebt": false,
        "maxDebtUpCapPercent": 0,
        "liquidity": "0x52Aa899454998Be5b000Ad077a46Bbe360F4e497"
      }
    ]
  ],
  "numDeployments": 1,
  "linkedData": {
    "nonce": "170"
  },
  "bytecode": "0x6101206040523480156200001257600080fd5b50604051620048e2380380620048e283398101604081905262000035916200056e565b8051602082015182919082906001600160a01b038116620000725760405163c82fc46560e01b815261ebbf60048201526024015b60405180910390fd5b60408201516001600160a01b038116620000a45760405163c82fc46560e01b815261ebbf600482015260240162000069565b60608301511580620000c25750683635c9adc5dea000008360600151115b80620000d0575060a0830151155b80620000e1575060a083015161ffff105b80620000ef575060c0830151155b8062000101575060c083015162ffffff105b80620001145750620f4240836101400151115b80620001275750620f4240836101600151115b806200014657506200013e606462ffffff62000693565b836101200151115b806200016457506200015c606461ffff62000693565b836101800151115b15620001885760405163c82fc46560e01b815261ebbf600482015260240162000069565b60208301516001600160a01b039081166080908152604085015190911660a052606084015160e081905290840151151560c052620001c5620003d0565b620001d1919062000693565b6000805460a086015160c08701516001600160a81b03949094166001600160d01b031990921691909117600160a81b4264ffffffffff1602176001600160d81b0316600160f01b61ffff9092169190910262ffffff60d81b191617600160d81b62ffffff909316929092029190911790556101008301516200025557600062000258565b60085b8360e001516200026a5760006200026d565b60045b6000805460ff9390921792909216600160d01b0260ff60d01b19909116179055610120830151620002a190606490620006bf565b6001805462ffffff92909216600160a81b0262ffffff60a81b19909216919091179055610140830151158015620002da57508260e00151155b620002eb57826101400151620002f0565b620f42405b6001805461016086015162ffffff908116600160d81b0262ffffff60d81b1994909116600160c01b029390931665ffffffffffff60c01b19909116179190911790556101808301516200034690606490620006bf565b600180546000546001600160a81b031961ffff94909416600160f01b0293909316600160a81b600160f01b03909116176001600160a81b03909216919091179055505081516020109050806200039b57508051155b15620003bf5760405163c82fc46560e01b815261ea6a600482015260240162000069565b602001516101005250620006fc9050565b600060a0516001600160a01b031663679aefce6040518163ffffffff1660e01b8152600401602060405180830381865afa15801562000413573d6000803e3d6000fd5b505050506040513d601f19601f82011682018060405250810190620004399190620006e2565b905090565b634e487b7160e01b600052604160045260246000fd5b6040516101a081016001600160401b03811182821017156200047a576200047a6200043e565b60405290565b604051601f8201601f191681016001600160401b0381118282101715620004ab57620004ab6200043e565b604052919050565b600082601f830112620004c557600080fd5b81516001600160401b03811115620004e157620004e16200043e565b6020620004f7601f8301601f1916820162000480565b82815285828487010111156200050c57600080fd5b60005b838110156200052c5785810183015182820184015282016200050f565b506000928101909101919091529392505050565b80516001600160a01b03811681146200055857600080fd5b919050565b805180151581146200055857600080fd5b6000602082840312156200058157600080fd5b81516001600160401b03808211156200059957600080fd5b908301906101a08286031215620005af57600080fd5b620005b962000454565b825182811115620005c957600080fd5b620005d787828601620004b3565b825250620005e86020840162000540565b6020820152620005fb6040840162000540565b60408201526060830151606082015262000618608084016200055d565b608082015260a083015160a082015260c083015160c08201526200063f60e084016200055d565b60e08201526101009150620006568284016200055d565b9181019190915261012082810151908201526101408083015190820152610160808301519082015261018091820151918101919091529392505050565b8082028115828204841417620006b957634e487b7160e01b600052601160045260246000fd5b92915050565b600082620006dd57634e487b7160e01b600052601260045260246000fd5b500490565b600060208284031215620006f557600080fd5b5051919050565b60805160a05160c05160e05161010051614115620007cd60003960008181613b2d0152613bf2015260008181610f0b0152613450015260008181610e630152613c94015260008181610e420152613cee015260008181610e1201528181610f50015281816110660152818161120e01528181611324015281816114bd015281816115d3015281816117bb015281816118d101528181611f1f01528181612035015281816125030152818161270301528181612a6f01528181612b850152818161319801526132ae01526141156000f3fe608060405234801561001057600080fd5b506004361061018d5760003560e01c80638e7bfbc0116100e3578063dd7a29f21161008c578063f3190c8911610066578063f3190c89146103e7578063f763f7a6146103ef578063fe51171d146103f757600080fd5b8063dd7a29f2146103c4578063e6aa216c146103d7578063f14fe764146103df57600080fd5b8063abd5f95d116100bd578063abd5f95d14610344578063b20faf9d14610359578063d1e482f3146103b157600080fd5b80638e7bfbc0146103215780639dc1056614610329578063a00010691461033157600080fd5b8063691e581a11610145578063767ceebb1161011f578063767ceebb1461022757806379557e681461023a5780637d7c2a1c1461031957600080fd5b8063691e581a146101ec57806371dbff561461020157806373e98a681461021457600080fd5b806320e44e431161017657806320e44e43146101b557806336c1387e146101d5578063679aefce146101e457600080fd5b8063046646241461019257806313d368a7146101ad575b600080fd5b61019a61040a565b6040519081526020015b60405180910390f35b61019a6108b2565b6101bd610c19565b6040516101a49c9b9a99989796959493929190613e19565b604051601b81526020016101a4565b61019a610f01565b6101ff6101fa366004613eb3565b610f4c565b005b6101ff61020f366004613eb3565b61120a565b6101ff610222366004613ed5565b6114b9565b6101ff610235366004613ed5565b6117b7565b6040805160a08101825260005474ffffffffffffffffffffffffffffffffffffffffff811682527501000000000000000000000000000000000000000000810464ffffffffff1660208084018290527a010000000000000000000000000000000000000000000000000000830460ff16848601527b01000000000000000000000000000000000000000000000000000000830462ffffff16606085018190527e0100000000000000000000000000000000000000000000000000000000000090930461ffff1660809094019390935292514291909301108252016101a4565b6101ff611a68565b61019a611b49565b61019a611d63565b6101ff61033f366004613ed5565b611f1b565b61034c61220c565b6040516101a49190613eee565b610361612216565b604080519a8b5260208b0199909952978901969096529315156060880152911515608087015260a086015260c0850152151560e084015215156101008301521515610120820152610140016101a4565b6101ff6103bf366004613ed5565b61249e565b6101ff6103d2366004613ed5565b61269e565b61019a612897565b6101ff612a6b565b61019a612ce0565b61019a613087565b6101ff610405366004613ed5565b613194565b6040805160a080820183526000805474ffffffffffffffffffffffffffffffffffffffffff811684527501000000000000000000000000000000000000000000810464ffffffffff166020808601919091527a010000000000000000000000000000000000000000000000000000820460ff16858701527b01000000000000000000000000000000000000000000000000000000820462ffffff166060808701919091527e0100000000000000000000000000000000000000000000000000000000000090920461ffff16608080870191909152865194850187528385529084018390529483018290528201819052928101839052600080600061052a85600042826060015162ffffff16836020015164ffffffffff1601109050919050565b15610612576040805160a08101825260015474ffffffffffffffffffffffffffffffffffffffffff81168083527501000000000000000000000000000000000000000000820462ffffff90811660208501819052780100000000000000000000000000000000000000000000000084048216958501959095527b0100000000000000000000000000000000000000000000000000000083041660608401527e0100000000000000000000000000000000000000000000000000000000000090910461ffff166080830152909550610602918790613448565b9298509094509092509050610644565b50508251604084015174ffffffffffffffffffffffffffffffffffffffffff9091169450600181811614906002908116145b808015610658575060408501516008908116145b15610783578260000361072e576040805160a08101825260015474ffffffffffffffffffffffffffffffffffffffffff811680835262ffffff7501000000000000000000000000000000000000000000830481166020850152780100000000000000000000000000000000000000000000000083048116948401949094527b010000000000000000000000000000000000000000000000000000008204909316606083015261ffff7e01000000000000000000000000000000000000000000000000000000000000909104166080820152945092505b620f42406064856080015161ffff166107479190613f89565b61075490620f4240613fa0565b61075e9085613f89565b6107689190613fe2565b92508286116107775785610779565b825b9550505050505090565b8161079057505050505090565b835174ffffffffffffffffffffffffffffffffffffffffff16600003610877576040805160a08101825260015474ffffffffffffffffffffffffffffffffffffffffff811682527501000000000000000000000000000000000000000000810462ffffff9081166020840152780100000000000000000000000000000000000000000000000082048116938301939093527b01000000000000000000000000000000000000000000000000000000810490921660608201527e0100000000000000000000000000000000000000000000000000000000000090910461ffff16608082015293505b61077986600085116108a157855174ffffffffffffffffffffffffffffffffffffffffff166108a3565b845b866060015162ffffff166134e1565b6040805160a080820183526000805474ffffffffffffffffffffffffffffffffffffffffff811684527501000000000000000000000000000000000000000000810464ffffffffff166020808601919091527a010000000000000000000000000000000000000000000000000000820460ff16858701527b01000000000000000000000000000000000000000000000000000000820462ffffff166060808701919091527e0100000000000000000000000000000000000000000000000000000000000090920461ffff166080808701919091528651948501875283855290840183905294830182905282018190529281018390526000806109d084600042826060015162ffffff16836020015164ffffffffff1601109050919050565b15610ab8576040805160a08101825260015474ffffffffffffffffffffffffffffffffffffffffff81168083527501000000000000000000000000000000000000000000820462ffffff90811660208501819052780100000000000000000000000000000000000000000000000084048216958501959095527b0100000000000000000000000000000000000000000000000000000083041660608401527e0100000000000000000000000000000000000000000000000000000000000090910461ffff166080830152909450610aa8918690613448565b929750909350909150610ae29050565b508251604084015174ffffffffffffffffffffffffffffffffffffffffff90911694506001908116145b80610aee575050505090565b825174ffffffffffffffffffffffffffffffffffffffffff16600003610bd5576040805160a08101825260015474ffffffffffffffffffffffffffffffffffffffffff811682527501000000000000000000000000000000000000000000810462ffffff9081166020840152780100000000000000000000000000000000000000000000000082048116938301939093527b01000000000000000000000000000000000000000000000000000000810490921660608201527e0100000000000000000000000000000000000000000000000000000000000090910461ffff16608082015292505b610c108560008411610bff57845174ffffffffffffffffffffffffffffffffffffffffff16610c01565b835b856060015162ffffff166134e1565b94505050505090565b6000806000806000806000806000806000806000806040518060a00160405290816000820160009054906101000a900474ffffffffffffffffffffffffffffffffffffffffff1674ffffffffffffffffffffffffffffffffffffffffff1674ffffffffffffffffffffffffffffffffffffffffff1681526020016000820160159054906101000a900464ffffffffff1664ffffffffff1664ffffffffff16815260200160008201601a9054906101000a900460ff1660ff1660ff16815260200160008201601b9054906101000a900462ffffff1662ffffff1662ffffff16815260200160008201601e9054906101000a900461ffff1661ffff1661ffff16815250509050600060016040518060a00160405290816000820160009054906101000a900474ffffffffffffffffffffffffffffffffffffffffff1674ffffffffffffffffffffffffffffffffffffffffff1674ffffffffffffffffffffffffffffffffffffffffff1681526020016000820160159054906101000a900462ffffff1662ffffff1662ffffff1681526020016000820160189054906101000a900462ffffff1662ffffff1662ffffff16815260200160008201601b9054906101000a900462ffffff1662ffffff1662ffffff16815260200160008201601e9054906101000a900461ffff1661ffff1661ffff168152505090507f00000000000000000000000000000000000000000000000000000000000000008260800151836060015184602001517f00000000000000000000000000000000000000000000000000000000000000007f0000000000000000000000000000000000000000000000000000000000000000600460ff16600489604001511660ff1614600860ff1660088a604001511660ff16146064896020015162ffffff16610eba9190613f89565b89604001518a6060015160648c6080015161ffff16610ed99190613f89565b9d509d509d509d509d509d509d509d509d509d509d509d505050909192939495969798999a9b565b60008054610f47907f00000000000000000000000000000000000000000000000000000000000000009074ffffffffffffffffffffffffffffffffffffffffff16613fe2565b905090565b60007f000000000000000000000000000000000000000000000000000000000000000073ffffffffffffffffffffffffffffffffffffffff1663b5c736e4610f956003336134fd565b6040518263ffffffff1660e01b8152600401610fb391815260200190565b602060405180830381865afa158015610fd0573d6000803e3d6000fd5b505050506040513d601f19601f82011682018060405250810190610ff4919061401d565b6040517fb5c736e40000000000000000000000000000000000000000000000000000000081527fb53127684a568b3173ae13b9f8a6016e243e63b6e8ee1178d6a717850b5d6103600482015260019182169091149150600090339073ffffffffffffffffffffffffffffffffffffffff7f0000000000000000000000000000000000000000000000000000000000000000169063b5c736e490602401602060405180830381865afa1580156110ad573d6000803e3d6000fd5b505050506040513d601f19601f820116820180604052508101906110d1919061401d565b73ffffffffffffffffffffffffffffffffffffffff16149050811580156110f6575080155b15611136576040517fc82fc46500000000000000000000000000000000000000000000000000000000815261ebc060048201526024015b60405180910390fd5b6000547a01000000000000000000000000000000000000000000000000000090046008908116148361116957600061116c565b60085b600080547fffffffffff00ffffffffffffffffffffffffffffffffffffffffffffffffffff81167a0100000000000000000000000000000000000000000000000000009182900460f71660ff94909416939093170291909117905560408051821515815285151560208201527ff26e4209c91ee7e9b517c3dd9c5aac7081ac9f14a3c501969bfc3e7ff133adf891015b60405180910390a150505050565b60007f000000000000000000000000000000000000000000000000000000000000000073ffffffffffffffffffffffffffffffffffffffff1663b5c736e46112536003336134fd565b6040518263ffffffff1660e01b815260040161127191815260200190565b602060405180830381865afa15801561128e573d6000803e3d6000fd5b505050506040513d601f19601f820116820180604052508101906112b2919061401d565b6040517fb5c736e40000000000000000000000000000000000000000000000000000000081527fb53127684a568b3173ae13b9f8a6016e243e63b6e8ee1178d6a717850b5d6103600482015260019182169091149150600090339073ffffffffffffffffffffffffffffffffffffffff7f0000000000000000000000000000000000000000000000000000000000000000169063b5c736e490602401602060405180830381865afa15801561136b573d6000803e3d6000fd5b505050506040513d601f19601f8201168201806040525081019061138f919061401d565b73ffffffffffffffffffffffffffffffffffffffff16149050811580156113b4575080155b156113ef576040517fc82fc46500000000000000000000000000000000000000000000000000000000815261ebc0600482015260240161112d565b6000547a010000000000000000000000000000000000000000000000000000900460049081161483611422576000611425565b60045b600080547fffffffffff00ffffffffffffffffffffffffffffffffffffffffffffffffffff81167a0100000000000000000000000000000000000000000000000000009182900460fb1660ff94909416939093170291909117905560408051821515815285151560208201527f85a585c4b90f71caba3c97aa85dfa2b36993024b9e1900e505364f47bbcff8ec91016111fc565b60007f000000000000000000000000000000000000000000000000000000000000000073ffffffffffffffffffffffffffffffffffffffff1663b5c736e46115026003336134fd565b6040518263ffffffff1660e01b815260040161152091815260200190565b602060405180830381865afa15801561153d573d6000803e3d6000fd5b505050506040513d601f19601f82011682018060405250810190611561919061401d565b6040517fb5c736e40000000000000000000000000000000000000000000000000000000081527fb53127684a568b3173ae13b9f8a6016e243e63b6e8ee1178d6a717850b5d6103600482015260019182169091149150600090339073ffffffffffffffffffffffffffffffffffffffff7f0000000000000000000000000000000000000000000000000000000000000000169063b5c736e490602401602060405180830381865afa15801561161a573d6000803e3d6000fd5b505050506040513d601f19601f8201168201806040525081019061163e919061401d565b73ffffffffffffffffffffffffffffffffffffffff1614905081158015611663575080155b1561169e576040517fc82fc46500000000000000000000000000000000000000000000000000000000815261ebc0600482015260240161112d565b6116ab606461ffff613f89565b8311156116e8576040517fc82fc46500000000000000000000000000000000000000000000000000000000815261ebbf600482015260240161112d565b600154600090611720906064907e01000000000000000000000000000000000000000000000000000000000000900461ffff16613f89565b905061172d606485613fe2565b6001805461ffff929092167e01000000000000000000000000000000000000000000000000000000000000027dffffffffffffffffffffffffffffffffffffffffffffffffffffffffffff90921691909117905560408051828152602081018690527fde99abbfc304a53cbdfa0db8c0fa93869f92defdfb9926c7c346c1fcb18cf04991016111fc565b60007f000000000000000000000000000000000000000000000000000000000000000073ffffffffffffffffffffffffffffffffffffffff1663b5c736e46118006003336134fd565b6040518263ffffffff1660e01b815260040161181e91815260200190565b602060405180830381865afa15801561183b573d6000803e3d6000fd5b505050506040513d601f19601f8201168201806040525081019061185f919061401d565b6040517fb5c736e40000000000000000000000000000000000000000000000000000000081527fb53127684a568b3173ae13b9f8a6016e243e63b6e8ee1178d6a717850b5d6103600482015260019182169091149150600090339073ffffffffffffffffffffffffffffffffffffffff7f0000000000000000000000000000000000000000000000000000000000000000169063b5c736e490602401602060405180830381865afa158015611918573d6000803e3d6000fd5b505050506040513d601f19601f8201168201806040525081019061193c919061401d565b73ffffffffffffffffffffffffffffffffffffffff1614905081158015611961575080155b1561199c576040517fc82fc46500000000000000000000000000000000000000000000000000000000815261ebc0600482015260240161112d565b620f42408311156119dd576040517fc82fc46500000000000000000000000000000000000000000000000000000000815261ebbf600482015260240161112d565b6001805462ffffff85811678010000000000000000000000000000000000000000000000009081027fffffffffff000000ffffffffffffffffffffffffffffffffffffffffffffffff84161790935560408051939092041680835260208301869052917ff228de6bd894d485e2abff17a7e1801febe7c7d377cbc09ea6b105afdec3e69791016111fc565b6040805160a08101825260005474ffffffffffffffffffffffffffffffffffffffffff811682527501000000000000000000000000000000000000000000810464ffffffffff16602083018190527a010000000000000000000000000000000000000000000000000000820460ff16938301939093527b01000000000000000000000000000000000000000000000000000000810462ffffff16606083018190527e0100000000000000000000000000000000000000000000000000000000000090910461ffff16608090920191909152611b469142910110613548565b50565b6040805160a0810182526000805474ffffffffffffffffffffffffffffffffffffffffff811683527501000000000000000000000000000000000000000000810464ffffffffff16602084018190527a010000000000000000000000000000000000000000000000000000820460ff16948401949094527b01000000000000000000000000000000000000000000000000000000810462ffffff16606084018190527e0100000000000000000000000000000000000000000000000000000000000090910461ffff16608084015290924291011015611d15576040805160a08101825260015474ffffffffffffffffffffffffffffffffffffffffff81168083527501000000000000000000000000000000000000000000820462ffffff90811660208501819052780100000000000000000000000000000000000000000000000084048216958501959095527b0100000000000000000000000000000000000000000000000000000083041660608401527e0100000000000000000000000000000000000000000000000000000000000090910461ffff16608083015290916000918291611cfa91908690613448565b509196509250905080611d0d5784610c10565b509392505050565b6040810151600290811614611d4257805174ffffffffffffffffffffffffffffffffffffffffff16611d5d565b60015474ffffffffffffffffffffffffffffffffffffffffff165b91505090565b6040805160a080820183526000805474ffffffffffffffffffffffffffffffffffffffffff8082168552750100000000000000000000000000000000000000000080830464ffffffffff166020808801919091527a010000000000000000000000000000000000000000000000000000840460ff16878901527b0100000000000000000000000000000000000000000000000000000080850462ffffff9081166060808b01919091527e010000000000000000000000000000000000000000000000000000000000009687900461ffff9081166080808d01919091528c519a8b018d52600154978816808c529688048416958b018690527801000000000000000000000000000000000000000000000000880484169c8b019c909c52928604909116908801529390920490921695840195909552909384918291611ea991908690613448565b5050915091506000611ed6856000015174ffffffffffffffffffffffffffffffffffffffffff1684613acd565b90506000611eff856000015174ffffffffffffffffffffffffffffffffffffffffff1684613acd565b9050808211611f0e5780611f10565b815b965050505050505090565b60007f000000000000000000000000000000000000000000000000000000000000000073ffffffffffffffffffffffffffffffffffffffff1663b5c736e4611f646003336134fd565b6040518263ffffffff1660e01b8152600401611f8291815260200190565b602060405180830381865afa158015611f9f573d6000803e3d6000fd5b505050506040513d601f19601f82011682018060405250810190611fc3919061401d565b6040517fb5c736e40000000000000000000000000000000000000000000000000000000081527fb53127684a568b3173ae13b9f8a6016e243e63b6e8ee1178d6a717850b5d6103600482015260019182169091149150600090339073ffffffffffffffffffffffffffffffffffffffff7f0000000000000000000000000000000000000000000000000000000000000000169063b5c736e490602401602060405180830381865afa15801561207c573d6000803e3d6000fd5b505050506040513d601f19601f820116820180604052508101906120a0919061401d565b73ffffffffffffffffffffffffffffffffffffffff16149050811580156120c5575080155b15612100576040517fc82fc46500000000000000000000000000000000000000000000000000000000815261ebc0600482015260240161112d565b61210e606462ffffff613f89565b83111561214b576040517fc82fc46500000000000000000000000000000000000000000000000000000000815261ebbf600482015260240161112d565b60015460009061217b906064907501000000000000000000000000000000000000000000900462ffffff16613f89565b9050612188606485613fe2565b6001805462ffffff929092167501000000000000000000000000000000000000000000027fffffffffffffffff000000ffffffffffffffffffffffffffffffffffffffffff90921691909117905560408051828152602081018690527f5a860511811f4b9bff28b459bb3b23dd57c9b6708cfd9d94ba1420bef5dc4cf991016111fc565b6060610f47613b1b565b6040805160a080820183526000805474ffffffffffffffffffffffffffffffffffffffffff808216855264ffffffffff75010000000000000000000000000000000000000000008084049190911660208088019190915260ff7a0100000000000000000000000000000000000000000000000000008504168789015262ffffff7b0100000000000000000000000000000000000000000000000000000080860482166060808b019190915261ffff7e010000000000000000000000000000000000000000000000000000000000009788900481166080808d01919091528c519a8b018d526001549788168b529587048416948a01949094527801000000000000000000000000000000000000000000000000860483169a89019a909a5284041697860197909752919004909416938201939093528291829182918291829182918291829182919061238382600042826060015162ffffff16836020015164ffffffffff1601109050919050565b156123c7576123b7816000015174ffffffffffffffffffffffffffffffffffffffffff1683836020015162ffffff16613448565b929e50909c509099509750612400565b81518151604084015174ffffffffffffffffffffffffffffffffffffffffff9283169e5091169b50600181811614995060029081161497505b61241560008c836040015162ffffff166134e1565b965061242c60008c836060015162ffffff166134e1565b9550620f42406064826080015161ffff166124479190613f89565b61245490620f4240613fa0565b61245e908d613f89565b6124689190613fe2565b99508a8c1180156124785750898c105b15612481578b99505b868c109450858c1093508a8c119250505090919293949596979899565b6040517fb5c736e40000000000000000000000000000000000000000000000000000000081527fb53127684a568b3173ae13b9f8a6016e243e63b6e8ee1178d6a717850b5d61036004820152339073ffffffffffffffffffffffffffffffffffffffff7f0000000000000000000000000000000000000000000000000000000000000000169063b5c736e490602401602060405180830381865afa15801561254a573d6000803e3d6000fd5b505050506040513d601f19601f8201168201806040525081019061256e919061401d565b73ffffffffffffffffffffffffffffffffffffffff16146125bf576040517fc82fc46500000000000000000000000000000000000000000000000000000000815261ebc0600482015260240161112d565b61ffff8111806125cd575080155b15612608576040517fc82fc46500000000000000000000000000000000000000000000000000000000815261ebbf600482015260240161112d565b6000805461ffff8381167e010000000000000000000000000000000000000000000000000000000000009081027dffffffffffffffffffffffffffffffffffffffffffffffffffffffffffff84161790935560408051939092041680835260208301849052917f0d85068d514b7dcaffeac0819f83d2c909ca9f783d39b2c9e7e717c446b4ce6791015b60405180910390a15050565b6040517fb5c736e40000000000000000000000000000000000000000000000000000000081527fb53127684a568b3173ae13b9f8a6016e243e63b6e8ee1178d6a717850b5d61036004820152339073ffffffffffffffffffffffffffffffffffffffff7f0000000000000000000000000000000000000000000000000000000000000000169063b5c736e490602401602060405180830381865afa15801561274a573d6000803e3d6000fd5b505050506040513d601f19601f8201168201806040525081019061276e919061401d565b73ffffffffffffffffffffffffffffffffffffffff16146127bf576040517fc82fc46500000000000000000000000000000000000000000000000000000000815261ebc0600482015260240161112d565b62ffffff8111806127ce575080155b15612809576040517fc82fc46500000000000000000000000000000000000000000000000000000000815261ebbf600482015260240161112d565b6000805462ffffff8381167b010000000000000000000000000000000000000000000000000000009081027fffff000000ffffffffffffffffffffffffffffffffffffffffffffffffffffff84161790935560408051939092041680835260208301849052917fe20dfd2ce7e052628278a16997f363cfa124066a6e4f5e60162f1ece7d5979809101612692565b6040805160a0810182526000805474ffffffffffffffffffffffffffffffffffffffffff811683527501000000000000000000000000000000000000000000810464ffffffffff16602084018190527a010000000000000000000000000000000000000000000000000000820460ff16948401949094527b01000000000000000000000000000000000000000000000000000000810462ffffff16606084018190527e0100000000000000000000000000000000000000000000000000000000000090910461ffff16608084015290924291011015612a4e576040805160a08101825260015474ffffffffffffffffffffffffffffffffffffffffff81168083527501000000000000000000000000000000000000000000820462ffffff90811660208501819052780100000000000000000000000000000000000000000000000084048216958501959095527b0100000000000000000000000000000000000000000000000000000083041660608401527e0100000000000000000000000000000000000000000000000000000000000090910461ffff1660808301529091612a4391908490613448565b509195945050505050565b5174ffffffffffffffffffffffffffffffffffffffffff16919050565b60007f000000000000000000000000000000000000000000000000000000000000000073ffffffffffffffffffffffffffffffffffffffff1663b5c736e4612ab46003336134fd565b6040518263ffffffff1660e01b8152600401612ad291815260200190565b602060405180830381865afa158015612aef573d6000803e3d6000fd5b505050506040513d601f19601f82011682018060405250810190612b13919061401d565b6040517fb5c736e40000000000000000000000000000000000000000000000000000000081527fb53127684a568b3173ae13b9f8a6016e243e63b6e8ee1178d6a717850b5d6103600482015260019182169091149150600090339073ffffffffffffffffffffffffffffffffffffffff7f0000000000000000000000000000000000000000000000000000000000000000169063b5c736e490602401602060405180830381865afa158015612bcc573d6000803e3d6000fd5b505050506040513d601f19601f82011682018060405250810190612bf0919061401d565b73ffffffffffffffffffffffffffffffffffffffff1614905081158015612c15575080155b15612c50576040517fc82fc46500000000000000000000000000000000000000000000000000000000815261ebc0600482015260240161112d565b600180546000547fffffffffffffffffffffff000000000000000000000000000000000000000000821674ffffffffffffffffffffffffffffffffffffffffff9182169081179093556040519116917f48ed0deba5df6794da28946c33455c1898c767d82e7ab2080e5586c329c6830a91612cd391848252602082015260400190565b60405180910390a1505050565b6040805160a080820183526000805474ffffffffffffffffffffffffffffffffffffffffff811684527501000000000000000000000000000000000000000000810464ffffffffff166020808601919091527a010000000000000000000000000000000000000000000000000000820460ff16858701527b01000000000000000000000000000000000000000000000000000000820462ffffff166060808701919091527e0100000000000000000000000000000000000000000000000000000000000090920461ffff166080808701919091528651948501875283855290840183905294830182905282018190529281018390526000806000612e0085600042826060015162ffffff16836020015164ffffffffff1601109050919050565b15612ee7576040805160a08101825260015474ffffffffffffffffffffffffffffffffffffffffff81168083527501000000000000000000000000000000000000000000820462ffffff90811660208501819052780100000000000000000000000000000000000000000000000084048216958501959095527b0100000000000000000000000000000000000000000000000000000083041660608401527e0100000000000000000000000000000000000000000000000000000000000090910461ffff166080830152909550612ed8918790613448565b92985090945092509050612f17565b50506040830151835174ffffffffffffffffffffffffffffffffffffffffff169450600281811614906001908116145b8115612f4457600083116107775760015474ffffffffffffffffffffffffffffffffffffffffff16610779565b808015612f58575060408501516004908116145b1561307f57835174ffffffffffffffffffffffffffffffffffffffffff16600003613044576040805160a08101825260015474ffffffffffffffffffffffffffffffffffffffffff811682527501000000000000000000000000000000000000000000810462ffffff9081166020840152780100000000000000000000000000000000000000000000000082048116938301939093527b01000000000000000000000000000000000000000000000000000000810490921660608201527e0100000000000000000000000000000000000000000000000000000000000090910461ffff16608082015293505b610779866000851161306e57855174ffffffffffffffffffffffffffffffffffffffffff16613070565b845b866040015162ffffff166134e1565b505050505090565b6040805160a0810182526000805474ffffffffffffffffffffffffffffffffffffffffff811683527501000000000000000000000000000000000000000000810464ffffffffff16602084018190527a010000000000000000000000000000000000000000000000000000820460ff16948401949094527b01000000000000000000000000000000000000000000000000000000810462ffffff16606084018190527e0100000000000000000000000000000000000000000000000000000000000090910461ffff1660808401529092429101101561317257611d5d61316d6001613548565b613c80565b8051611d5d9074ffffffffffffffffffffffffffffffffffffffffff16613c80565b60007f000000000000000000000000000000000000000000000000000000000000000073ffffffffffffffffffffffffffffffffffffffff1663b5c736e46131dd6003336134fd565b6040518263ffffffff1660e01b81526004016131fb91815260200190565b602060405180830381865afa158015613218573d6000803e3d6000fd5b505050506040513d601f19601f8201168201806040525081019061323c919061401d565b6040517fb5c736e40000000000000000000000000000000000000000000000000000000081527fb53127684a568b3173ae13b9f8a6016e243e63b6e8ee1178d6a717850b5d6103600482015260019182169091149150600090339073ffffffffffffffffffffffffffffffffffffffff7f0000000000000000000000000000000000000000000000000000000000000000169063b5c736e490602401602060405180830381865afa1580156132f5573d6000803e3d6000fd5b505050506040513d601f19601f82011682018060405250810190613319919061401d565b73ffffffffffffffffffffffffffffffffffffffff161490508115801561333e575080155b15613379576040517fc82fc46500000000000000000000000000000000000000000000000000000000815261ebc0600482015260240161112d565b620f42408311156133ba576040517fc82fc46500000000000000000000000000000000000000000000000000000000815261ebbf600482015260240161112d565b6001805462ffffff8581167b010000000000000000000000000000000000000000000000000000009081027fffff000000ffffffffffffffffffffffffffffffffffffffffffffffffffffff84161790935560408051939092041680835260208301869052917ffe51ba8fc52e850f07aab61020c1f751e1fd8a5afbbbc922416e7c39fb56a10191016111fc565b6000806000807f0000000000000000000000000000000000000000000000000000000000000000613477613cea565b6134819190613f89565b9350836000036134c1576040517fc82fc46500000000000000000000000000000000000000000000000000000000815261ebc2600482015260240161112d565b6134cd84888888613d7b565b939793965050508486119350508385109150565b620f4240818103830204808411156134f65750825b9392505050565b6040805173ffffffffffffffffffffffffffffffffffffffff831660208201529081018390526000906060016040516020818303038152906040528051906020012090505b92915050565b6040805160a080820183526000805474ffffffffffffffffffffffffffffffffffffffffff8082168552750100000000000000000000000000000000000000000080830464ffffffffff166020808801919091527a010000000000000000000000000000000000000000000000000000840460ff16878901527b0100000000000000000000000000000000000000000000000000000080850462ffffff9081166060808b01919091527e010000000000000000000000000000000000000000000000000000000000009687900461ffff9081166080808d01919091528c519a8b018d52600154978816808c529688048416958b018690527801000000000000000000000000000000000000000000000000880484169c8b019c909c529286049091169088015293909204909216958401959095529093849182918291906136929082908890613448565b9299509095509350915074ffffffffffffffffffffffffffffffffffffffffff8711806136d3575074ffffffffffffffffffffffffffffffffffffffffff84115b1561370e576040517fc82fc46500000000000000000000000000000000000000000000000000000000815261ebc3600482015260240161112d565b8551608087015174ffffffffffffffffffffffffffffffffffffffffff9091169060009061ffff16613740838b613acd565b10801561375d5750876080015161ffff1661375b8488613acd565b105b156137bc57891561378657604088015160079061377e9060e0166001613fa0565b1690506137bc565b6040517fc82fc46500000000000000000000000000000000000000000000000000000000815261ebc1600482015260240161112d565b84156137ec576040517fc563dbff0ec97fb0e0d8866b34100ce38af7fea1274967ce2211982755a29c9590600090a15b831561386957600086620f42406138038c83614036565b61380d9190613f89565b6138179190613fe2565b9050876040015162ffffff168111806138385750876060015162ffffff1681115b15613867576040517f01ebab6ce2fe9f982f6eef886119aad8adbd80d7c749b21283693d529521802190600090a15b505b64ffffffffff4216602089015274ffffffffffffffffffffffffffffffffffffffffff89168852611fe0600582901b16856138a55760006138a8565b60025b856138b45760006138b7565b60015b60408b018051601c1691909117919091179190911760ff169081905288516000805460208c015160608d015160808e015174ffffffffffffffffffffffffffffffffffffffffff9095167fffffffffffff000000000000000000000000000000000000000000000000000090931692909217750100000000000000000000000000000000000000000064ffffffffff90921691909102177fffff00000000ffffffffffffffffffffffffffffffffffffffffffffffffffff167a0100000000000000000000000000000000000000000000000000009094027fffff000000ffffffffffffffffffffffffffffffffffffffffffffffffffffff16939093177b0100000000000000000000000000000000000000000000000000000062ffffff90941693909302929092177dffffffffffffffffffffffffffffffffffffffffffffffffffffffffffff167e0100000000000000000000000000000000000000000000000000000000000061ffff9092169190910217905585831015613a7857600180547fffffffffffffffffffffff0000000000000000000000000000000000000000001674ffffffffffffffffffffffffffffffffffffffffff88161790555b60408051838152602081018b9052908101849052606081018790527fa1d5e40f5a547f5719e968be1b8da9984c1d3e2c08737e31f4bacc9640c4ea359060800160405180910390a15050505050505050919050565b600081831115613af55782620f42408385030281613aed57613aed613fb3565b049050613542565b828211156135425782620f42408484030281613b1357613b13613fb3565b049392505050565b606060005b602081108015613b8657507f00000000000000000000000000000000000000000000000000000000000000008160208110613b5d57613b5d614049565b1a60f81b7fff000000000000000000000000000000000000000000000000000000000000001615155b15613b9d5780613b9581614078565b915050613b20565b60008167ffffffffffffffff811115613bb857613bb86140b0565b6040519080825280601f01601f191660200182016040528015613be2576020820181803683370190505b50905060005b82811015613c79577f00000000000000000000000000000000000000000000000000000000000000008160208110613c2257613c22614049565b1a60f81b828281518110613c3857613c38614049565b60200101907effffffffffffffffffffffffffffffffffffffffffffffffffffffffffffff1916908160001a90535080613c7181614078565b915050613be8565b5092915050565b600081600003613c9257506000919050565b7f0000000000000000000000000000000000000000000000000000000000000000613cbd5781613542565b81760a70c3c40a64e6c51999090b65f67d924000000000000081613ce357613ce3613fb3565b0492915050565b60007f000000000000000000000000000000000000000000000000000000000000000073ffffffffffffffffffffffffffffffffffffffff1663679aefce6040518163ffffffff1660e01b8152600401602060405180830381865afa158015613d57573d6000803e3d6000fd5b505050506040513d601f19601f82011682018060405250810190610f47919061401d565b60006301e13380836020015164ffffffffff164203606484020281613da257613da2613fb3565b049050620f424080820185026040850151919004915060e0168015613df75760006301e13380856060015162ffffff16606486020281613de457613de4613fb3565b049050620f424082820281018402049250505b50808511613e115783851015613e0e575082613e11565b50835b949350505050565b73ffffffffffffffffffffffffffffffffffffffff8d8116825261ffff8d16602083015262ffffff8c16604083015264ffffffffff8b1660608301528916608082015287151560a082015286151560c0820152610180810186151560e083015285610100830152613e9261012083018662ffffff169052565b62ffffff9390931661014082015261016001529a9950505050505050505050565b600060208284031215613ec557600080fd5b813580151581146134f657600080fd5b600060208284031215613ee757600080fd5b5035919050565b600060208083528351808285015260005b81811015613f1b57858101830151858201604001528201613eff565b5060006040828601015260407fffffffffffffffffffffffffffffffffffffffffffffffffffffffffffffffe0601f8301168501019250505092915050565b7f4e487b7100000000000000000000000000000000000000000000000000000000600052601160045260246000fd5b808202811582820484141761354257613542613f5a565b8082018082111561354257613542613f5a565b7f4e487b7100000000000000000000000000000000000000000000000000000000600052601260045260246000fd5b600082614018577f4e487b7100000000000000000000000000000000000000000000000000000000600052601260045260246000fd5b500490565b60006020828403121561402f57600080fd5b5051919050565b8181038181111561354257613542613f5a565b7f4e487b7100000000000000000000000000000000000000000000000000000000600052603260045260246000fd5b60007fffffffffffffffffffffffffffffffffffffffffffffffffffffffffffffffff82036140a9576140a9613f5a565b5060010190565b7f4e487b7100000000000000000000000000000000000000000000000000000000600052604160045260246000fdfea26469706673582212209eb47d6759ad5d8b618e6b5c76e1bf514b1165c9fae85f76754a247a977c01fd64736f6c63430008150033"
}