{
  "address": "0x1FAf33c33ce81DC86fe50ba5b6F3417aBEC01d6E",
  "abi": [
    {
      "inputs": [
        {
          "internalType": "uint256",
          "name": "minFee_",
          "type": "uint256"
        },
        {
          "internalType": "uint256",
          "name": "maxFee_",
          "type": "uint256"
        },
        {
          "internalType": "uint256",
          "name": "minDeviation_",
          "type": "uint256"
        },
        {
          "internalType": "uint256",
          "name": "maxDeviation_",
          "type": "uint256"
        },
        {
          "internalType": "address",
          "name": "dex_",
          "type": "address"
        },
        {
          "internalType": "address",
          "name": "deployerContract_",
          "type": "address"
        },
        {
          "internalType": "contract IFluidReserveContract",
          "name": "reserveContract_",
          "type": "address"
        },
        {
          "internalType": "bool",
          "name": "centerPriceActive_",
          "type": "bool"
        }
      ],
      "stateMutability": "nonpayable",
      "type": "constructor"
    },
    {
      "inputs": [
        {
          "internalType": "uint256",
          "name": "errorId_",
          "type": "uint256"
        }
      ],
      "name": "FluidConfigError",
      "type": "error"
    },
    {
      "anonymous": false,
      "inputs": [
        {
          "indexed": false,
          "internalType": "address",
          "name": "dex",
          "type": "address"
        },
        {
          "indexed": false,
          "internalType": "uint256",
          "name": "fee",
          "type": "uint256"
        },
        {
          "indexed": false,
          "internalType": "uint256",
          "name": "revenueCut",
          "type": "uint256"
        }
      ],
      "name": "LogRebalanceFeeAndRevenueCut",
      "type": "event"
    },
    {
      "inputs": [],
      "name": "CENTER_PRICE_ACTIVE",
      "outputs": [
        {
          "internalType": "bool",
          "name": "",
          "type": "bool"
        }
      ],
      "stateMutability": "view",
      "type": "function"
    },
    {
      "inputs": [],
      "name": "DEX",
      "outputs": [
        {
          "internalType": "address",
          "name": "",
          "type": "address"
        }
      ],
      "stateMutability": "view",
      "type": "function"
    },
    {
      "inputs": [],
      "name": "MAX_DEVIATION",
      "outputs": [
        {
          "internalType": "uint256",
          "name": "",
          "type": "uint256"
        }
      ],
      "stateMutability": "view",
      "type": "function"
    },
    {
      "inputs": [],
      "name": "MAX_FEE",
      "outputs": [
        {
          "internalType": "uint256",
          "name": "",
          "type": "uint256"
        }
      ],
      "stateMutability": "view",
      "type": "function"
    },
    {
      "inputs": [],
      "name": "MIN_DEVIATION",
      "outputs": [
        {
          "internalType": "uint256",
          "name": "",
          "type": "uint256"
        }
      ],
      "stateMutability": "view",
      "type": "function"
    },
    {
      "inputs": [],
      "name": "MIN_FEE",
      "outputs": [
        {
          "internalType": "uint256",
          "name": "",
          "type": "uint256"
        }
      ],
      "stateMutability": "view",
      "type": "function"
    },
    {
      "inputs": [],
      "name": "RESERVE_CONTRACT",
      "outputs": [
        {
          "internalType": "contract IFluidReserveContract",
          "name": "",
          "type": "address"
        }
      ],
      "stateMutability": "view",
      "type": "function"
    },
    {
      "inputs": [],
      "name": "UPDATE_FEE_TRIGGER_BUFFER",
      "outputs": [
        {
          "internalType": "uint256",
          "name": "",
          "type": "uint256"
        }
      ],
      "stateMutability": "view",
      "type": "function"
    },
    {
      "inputs": [],
      "name": "absoluteConfigDiff",
      "outputs": [
        {
          "internalType": "uint256",
          "name": "",
          "type": "uint256"
        }
      ],
      "stateMutability": "nonpayable",
      "type": "function"
    },
    {
      "inputs": [],
      "name": "currentConfig",
      "outputs": [
        {
          "internalType": "uint256",
          "name": "",
          "type": "uint256"
        }
      ],
      "stateMutability": "view",
      "type": "function"
    },
    {
      "inputs": [
        {
          "internalType": "uint256",
          "name": "deviation",
          "type": "uint256"
        }
      ],
      "name": "dynamicFeeFromDeviation",
      "outputs": [
        {
          "internalType": "uint256",
          "name": "",
          "type": "uint256"
        }
      ],
      "stateMutability": "view",
      "type": "function"
    },
    {
      "inputs": [
        {
          "internalType": "uint256",
          "name": "price",
          "type": "uint256"
        }
      ],
      "name": "dynamicFeeFromPrice",
      "outputs": [
        {
          "internalType": "uint256",
          "name": "",
          "type": "uint256"
        }
      ],
      "stateMutability": "nonpayable",
      "type": "function"
    },
    {
      "inputs": [
        {
          "internalType": "uint256",
          "name": "price_",
          "type": "uint256"
        }
      ],
      "name": "getDeviationFromPrice",
      "outputs": [
        {
          "internalType": "uint256",
          "name": "",
          "type": "uint256"
        }
      ],
      "stateMutability": "nonpayable",
      "type": "function"
    },
    {
      "inputs": [],
      "name": "getDexCenterPrice",
      "outputs": [
        {
          "internalType": "uint256",
          "name": "",
          "type": "uint256"
        }
      ],
      "stateMutability": "nonpayable",
      "type": "function"
    },
    {
      "inputs": [],
      "name": "getDexDynamicFee",
      "outputs": [
        {
          "internalType": "uint256",
          "name": "",
          "type": "uint256"
        }
      ],
      "stateMutability": "nonpayable",
      "type": "function"
    },
    {
      "inputs": [],
      "name": "getDexFeeAndRevenueCut",
      "outputs": [
        {
          "internalType": "uint256",
          "name": "fee_",
          "type": "uint256"
        },
        {
          "internalType": "uint256",
          "name": "revenueCut_",
          "type": "uint256"
        }
      ],
      "stateMutability": "view",
      "type": "function"
    },
    {
      "inputs": [],
      "name": "getDexRevenueCut",
      "outputs": [
        {
          "internalType": "uint256",
          "name": "revenueCut_",
          "type": "uint256"
        }
      ],
      "stateMutability": "view",
      "type": "function"
    },
    {
      "inputs": [],
      "name": "getDexVariables",
      "outputs": [
        {
          "internalType": "uint256",
          "name": "lastToLastStoredPrice_",
          "type": "uint256"
        },
        {
          "internalType": "uint256",
          "name": "lastStoredPriceOfPool_",
          "type": "uint256"
        },
        {
          "internalType": "uint256",
          "name": "lastInteractionTimeStamp_",
          "type": "uint256"
        }
      ],
      "stateMutability": "view",
      "type": "function"
    },
    {
      "inputs": [],
      "name": "newConfig",
      "outputs": [
        {
          "internalType": "uint256",
          "name": "",
          "type": "uint256"
        }
      ],
      "stateMutability": "nonpayable",
      "type": "function"
    },
    {
      "inputs": [],
      "name": "rebalance",
      "outputs": [],
      "stateMutability": "nonpayable",
      "type": "function"
    },
    {
      "inputs": [],
      "name": "relativeConfigPercentDiff",
      "outputs": [
        {
          "internalType": "uint256",
          "name": "",
          "type": "uint256"
        }
      ],
      "stateMutability": "nonpayable",
      "type": "function"
    }
  ],
  "transactionHash": "0x953d0e1332942f734fc920c2c9893fbbbe92e75337677d13c5f285b6f68ed57e",
  "args": [
    20,
    150,
    "200000000000000000000000",
    "750000000000000000000000",
    "0x0B1a513ee24972DAEf112bC777a5610d4325C9e7",
    "0x4EC7b668BAF70d4A4b0FC7941a7708A07b6d45Be",
    "0x264786EF916af64a1DB19F513F24a3681734ce92",
    true
  ],
  "numDeployments": 1,
  "solcInputHash": "700085a38554f5c9d5d49a91df2d82c5",
  "bytecode": "0x6101a0604052600a610140523480156200001857600080fd5b5060405162001857380380620018578339810160408190526200003b9162000205565b878787878787878787878787878786826001600160a01b0381166200007d57604051636801712d60e11b8152620186f260048201526024015b60405180910390fd5b826001600160a01b038116620000ac57604051636801712d60e11b8152620186f2600482015260240162000074565b50506001600160a01b0392831661016052911660a0521515608052831580620000d3575082155b80620000dd575081155b80620000e7575080155b156200010c57604051636801712d60e11b8152620186f2600482015260240162000074565b61271083106200013557604051636801712d60e11b8152620186f2600482015260240162000074565b808211156200015d57604051636801712d60e11b8152620186f2600482015260240162000074565b828411156200018557604051636801712d60e11b8152620186f2600482015260240162000074565b60c09390935260e0919091526101005261012052816001600160a01b038116620001c857604051636801712d60e11b8152620186f2600482015260240162000074565b50506001600160a01b031661018052506200029a9c50505050505050505050505050565b6001600160a01b03811681146200020257600080fd5b50565b600080600080600080600080610100898b0312156200022357600080fd5b8851975060208901519650604089015195506060890151945060808901516200024c81620001ec565b60a08a01519094506200025f81620001ec565b60c08a01519093506200027281620001ec565b60e08a015190925080151581146200028957600080fd5b809150509295985092959890939650565b60805160a05160c05160e05161010051610120516101405161016051610180516114ce620003896000396000818161022a01526104900152600081816102c2015281816105ba0152818161067d01528181610b6501528181610cd70152611359015260008181610395015261057d01526000818161030c015281816108ef01526109630152600081816101e6015281816108a1015281816109420152610999015260008181610333015281816109170152610a66015260008181610291015281816108c901528181610a450152610a9e01526000610d3b0152600081816101a7015261073a01526114ce6000f3fe608060405234801561001057600080fd5b50600436106101775760003560e01c806380935aa9116100d8578063bc063e1a1161008c578063cae5880711610066578063cae5880714610365578063d50741f71461036d578063f28a169d1461039057600080fd5b8063bc063e1a1461032e578063bc669afb14610355578063be47bd831461035d57600080fd5b8063941da44e116100bd578063941da44e146102ec5780639b5075a4146102f4578063b05f233a1461030757600080fd5b806380935aa9146102bd578063813e6745146102e457600080fd5b80636449b8d71161012f57806376aaa6ce1161011457806376aaa6ce1461027957806376c7a3c71461028c5780637d7c2a1c146102b357600080fd5b80636449b8d714610225578063724d76251461027157600080fd5b80631d156e8b116101605780631d156e8b146101d9578063274d713c146101e15780632e2e5b471461020857600080fd5b806302918d131461017c5780631c37ae38146101a2575b600080fd5b61018f61018a36600461139d565b6103b7565b6040519081526020015b60405180910390f35b6101c97f000000000000000000000000000000000000000000000000000000000000000081565b6040519015158152602001610199565b61018f6103d0565b61018f7f000000000000000000000000000000000000000000000000000000000000000081565b6102106103ef565b60408051928352602083019190915201610199565b61024c7f000000000000000000000000000000000000000000000000000000000000000081565b60405173ffffffffffffffffffffffffffffffffffffffff9091168152602001610199565b61018f610417565b61018f61028736600461139d565b610457565b61018f7f000000000000000000000000000000000000000000000000000000000000000081565b6102bb610462565b005b61024c7f000000000000000000000000000000000000000000000000000000000000000081565b61018f610722565b61018f61072c565b61018f61030236600461139d565b610736565b61018f7f000000000000000000000000000000000000000000000000000000000000000081565b61018f7f000000000000000000000000000000000000000000000000000000000000000081565b61018f6107fb565b61018f610811565b61018f610844565b61037561084e565b60408051938452602084019290925290820152606001610199565b61018f7f000000000000000000000000000000000000000000000000000000000000000081565b60006103ca6103c583610736565b61089d565b92915050565b60006103ea6103dd610ace565b6103e5610811565b610ade565b905090565b60008060006103fc610b33565b600281901c6201ffff169460139190911c607f169350915050565b600080610422610811565b9050600061042e610ace565b90508082116104465761044182826113e5565b610450565b61045081836113e5565b9250505090565b60006103ca8261089d565b6040517f467c9eff0000000000000000000000000000000000000000000000000000000081523360048201527f000000000000000000000000000000000000000000000000000000000000000073ffffffffffffffffffffffffffffffffffffffff169063467c9eff906024016020604051808303816000875af11580156104ee573d6000803e3d6000fd5b505050506040513d601f19601f8201168201806040525081019061051291906113f8565b610552576040517fd002e25a000000000000000000000000000000000000000000000000000000008152620186f360048201526024015b60405180910390fd5b600061055c610811565b90506000806105696103ef565b9150915060006105798385610ade565b90507f00000000000000000000000000000000000000000000000000000000000000008111156106e55773ffffffffffffffffffffffffffffffffffffffff7f000000000000000000000000000000000000000000000000000000000000000016632af69377856105ec6127108661141a565b6040517fffffffff0000000000000000000000000000000000000000000000000000000060e085901b16815260048101929092526024820152604401600060405180830381600087803b15801561064257600080fd5b505af1158015610656573d6000803e3d6000fd5b505050507f05feefc978308fcb0cc1f214adc60cd97475eaeda69c7898697ea00bd1e11f4f7f000000000000000000000000000000000000000000000000000000000000000085612710856106ab919061141a565b6040805173ffffffffffffffffffffffffffffffffffffffff909416845260208401929092529082015260600160405180910390a161071c565b6040517fd002e25a000000000000000000000000000000000000000000000000000000008152620186f16004820152602401610549565b50505050565b60006103ea610be6565b60006103ea610811565b60007f0000000000000000000000000000000000000000000000000000000000000000156107b7576000610768610be6565b905060008184116107825761077d84836113e5565b61078c565b61078c82856113e5565b9050816107a56b033b2e3c9fd0803ce80000008361141a565b6107af9190611431565b949350505050565b6b033b2e3c9fd0803ce800000082116107e5576107e0826b033b2e3c9fd0803ce80000006113e5565b6103ca565b6103ca6b033b2e3c9fd0803ce8000000836113e5565b6000607f6013610809610b33565b901c16905090565b60008060008061081f61084e565b925092509250428103610830578291505b61083c6103c583610736565b935050505090565b60006103ea610ace565b60008060008061085c610ca5565b63ffffffff600982901c811660ff600184901c81169190911b97603184901c909216602984901c9091161b955060799190911c6401ffffffff169350915050565b60007f000000000000000000000000000000000000000000000000000000000000000082116108ed57507f0000000000000000000000000000000000000000000000000000000000000000919050565b7f0000000000000000000000000000000000000000000000000000000000000000821061093b57507f0000000000000000000000000000000000000000000000000000000000000000919050565b60006109877f00000000000000000000000000000000000000000000000000000000000000007f00000000000000000000000000000000000000000000000000000000000000006113e5565b6b033b2e3c9fd0803ce80000006109be7f0000000000000000000000000000000000000000000000000000000000000000866113e5565b6109c8919061141a565b6109d29190611431565b905060006109e08283610d1b565b905060006109ee8284610d1b565b90506000610a12610a0c6b033b2e3c9fd0803ce8000000600261141a565b83610d1b565b610a32610a2c6b033b2e3c9fd0803ce8000000600361141a565b85610d1b565b610a3c91906113e5565b90506000610a8a7f00000000000000000000000000000000000000000000000000000000000000007f00000000000000000000000000000000000000000000000000000000000000006113e5565b90506000610a988383610d1b565b610ac2907f000000000000000000000000000000000000000000000000000000000000000061146c565b98975050505050505050565b60006201ffff6002610809610b33565b6000818303610aef575060006103ca565b81831115610b0857610b0182846113e5565b9050610b15565b610b1283836113e5565b90505b82610b226127108361141a565b610b2c9190611431565b9392505050565b6040517fb5c736e4000000000000000000000000000000000000000000000000000000008152600160048201526000907f000000000000000000000000000000000000000000000000000000000000000073ffffffffffffffffffffffffffffffffffffffff169063b5c736e4906024015b602060405180830381865afa158015610bc2573d6000803e3d6000fd5b505050506040513d601f19601f820116820180604052508101906103ea919061147f565b6000806000610bf3610ca5565b610bfb610b33565b91509150633fffffff607082901c16925060f881901c600116600003610c4e5782600003610c3e5763ffffffff605983901c1660ff605184901c161b9250610c5b565b610c4783610d34565b9250610c5b565b610c588284610dd0565b92505b620fffff60b482901c1660ff60ac83901c161b80841115610c7e57809350610c9f565b620fffff60d083901c1660ff60c884901c161b80851015610c9d578094505b505b50505090565b6040517fb5c736e4000000000000000000000000000000000000000000000000000000008152600060048201819052907f000000000000000000000000000000000000000000000000000000000000000073ffffffffffffffffffffffffffffffffffffffff169063b5c736e490602401610ba5565b60006b033b2e3c9fd0803ce8000000610b22838561141a565b6000610d607f000000000000000000000000000000000000000000000000000000000000000083610ebd565b73ffffffffffffffffffffffffffffffffffffffff1663f763f7a66040518163ffffffff1660e01b81526004016020604051808303816000875af1158015610dac573d6000803e3d6000fd5b505050506040513d601f19601f820116820180604052508101906103ca919061147f565b600063ffffffff605984901c1660ff605185901c161b81610def611327565b90506401ffffffff80821690620fffff602184901c811691603585901c90911690607989901c16838111610e235783610e25565b805b9050610e3088610d34565b96506000610e41620f42408461141a565b610e4b83426113e5565b610e55868a61141a565b610e5f919061141a565b610e699190611431565b905086881115610e9057610e7d818861146c565b965086881115610e8b578697505b610eb0565b808711610e9e576000610ea2565b8087035b965086881015610eb0578697505b5050505050505092915050565b6000606082600003610ed35760009150506103ca565b607f8311610f9c576040517fd60000000000000000000000000000000000000000000000000000000000000060208201527f940000000000000000000000000000000000000000000000000000000000000060218201527fffffffffffffffffffffffffffffffffffffffff000000000000000000000000606086901b16602282015260f884901b7fff000000000000000000000000000000000000000000000000000000000000001660368201526037015b6040516020818303038152906040529050611318565b60ff8311611079576040517fd70000000000000000000000000000000000000000000000000000000000000060208201527f940000000000000000000000000000000000000000000000000000000000000060218201527fffffffffffffffffffffffffffffffffffffffff000000000000000000000000606086901b1660228201527f8100000000000000000000000000000000000000000000000000000000000000603682015260f884901b7fff00000000000000000000000000000000000000000000000000000000000000166037820152603801610f86565b61ffff8311611157576040517fd80000000000000000000000000000000000000000000000000000000000000060208201527f940000000000000000000000000000000000000000000000000000000000000060218201527fffffffffffffffffffffffffffffffffffffffff000000000000000000000000606086901b1660228201527f820000000000000000000000000000000000000000000000000000000000000060368201527fffff00000000000000000000000000000000000000000000000000000000000060f085901b166037820152603901610f86565b62ffffff8311611236576040517fd90000000000000000000000000000000000000000000000000000000000000060208201527f940000000000000000000000000000000000000000000000000000000000000060218201527fffffffffffffffffffffffffffffffffffffffff000000000000000000000000606086901b1660228201527f830000000000000000000000000000000000000000000000000000000000000060368201527fffffff000000000000000000000000000000000000000000000000000000000060e885901b166037820152603a01610f86565b6040517fda0000000000000000000000000000000000000000000000000000000000000060208201527f940000000000000000000000000000000000000000000000000000000000000060218201527fffffffffffffffffffffffffffffffffffffffff000000000000000000000000606086901b1660228201527f840000000000000000000000000000000000000000000000000000000000000060368201527fffffffff0000000000000000000000000000000000000000000000000000000060e085901b166037820152603b0160405160208183030381529060405290505b80516020909101209392505050565b6040517fb5c736e4000000000000000000000000000000000000000000000000000000008152600860048201526000907f000000000000000000000000000000000000000000000000000000000000000073ffffffffffffffffffffffffffffffffffffffff169063b5c736e490602401610ba5565b6000602082840312156113af57600080fd5b5035919050565b7f4e487b7100000000000000000000000000000000000000000000000000000000600052601160045260246000fd5b818103818111156103ca576103ca6113b6565b60006020828403121561140a57600080fd5b81518015158114610b2c57600080fd5b80820281158282048414176103ca576103ca6113b6565b600082611467577f4e487b7100000000000000000000000000000000000000000000000000000000600052601260045260246000fd5b500490565b808201808211156103ca576103ca6113b6565b60006020828403121561149157600080fd5b505191905056fea264697066735822122072062e5c59dd2b93702843bed2b27a1a20ad9de614f62f32b4a09f3dfe416c5264736f6c63430008150033",
  "devdoc": {
    "kind": "dev",
    "methods": {},
    "version": 1
  },
  "userdoc": {
    "events": {
      "LogRebalanceFeeAndRevenueCut(address,uint256,uint256)": {
        "notice": "emitted when rebalancer successfully changes the fee and revenue cut"
      }
    },
    "kind": "user",
    "methods": {
      "CENTER_PRICE_ACTIVE()": {
        "notice": "Whether the center price is active"
      },
      "absoluteConfigDiff()": {
        "notice": "returns how much new config would be different from current config."
      },
      "currentConfig()": {
        "notice": "returns the currently configured fee"
      },
      "dynamicFeeFromDeviation(uint256)": {
        "notice": "Calculates the dynamic fee based on the given deviation."
      },
      "dynamicFeeFromPrice(uint256)": {
        "notice": "Calculates the dynamic fee based on the given price."
      },
      "getDeviationFromPrice(uint256)": {
        "notice": "Calculates the deviation from the given price."
      },
      "getDexDynamicFee()": {
        "notice": "returns the dynamic fee for the dex based on the last stored price of the pool"
      },
      "getDexFeeAndRevenueCut()": {
        "notice": "returns the fee and revenue cut for the dex"
      },
      "getDexRevenueCut()": {
        "notice": "returns the revenue cut for the dex"
      },
      "getDexVariables()": {
        "notice": "returns the last stored prices of the pool and the last interaction time stamp"
      },
      "newConfig()": {
        "notice": "returns the new calculated fee"
      },
      "rebalance()": {
        "notice": "rebalances the fee"
      },
      "relativeConfigPercentDiff()": {
        "notice": "returns how much new config would be different from current config in percent (100 = 1%, 1 = 0.01%)."
      }
    },
    "version": 1
  },
  "storageLayout": {
    "storage": [],
    "types": null
  }
}