{
  "address": "0xE8a07a32489BD9d5a00f01A55749Cf5cB854Fd13",
  "abi": [
    {
      "inputs": [
        {
          "internalType": "address",
          "name": "factory_",
          "type": "address"
        }
      ],
      "stateMutability": "nonpayable",
      "type": "constructor"
    },
    {
      "inputs": [],
      "name": "FACTORY",
      "outputs": [
        {
          "internalType": "contract IFluidDexFactory",
          "name": "",
          "type": "address"
        }
      ],
      "stateMutability": "view",
      "type": "function"
    },
    {
      "inputs": [
        {
          "internalType": "address",
          "name": "dex_",
          "type": "address"
        },
        {
          "internalType": "bool",
          "name": "swap0to1_",
          "type": "bool"
        },
        {
          "internalType": "uint256",
          "name": "amountIn_",
          "type": "uint256"
        },
        {
          "internalType": "uint256",
          "name": "amountOutMin_",
          "type": "uint256"
        }
      ],
      "name": "estimateSwapIn",
      "outputs": [
        {
          "internalType": "uint256",
          "name": "amountOut_",
          "type": "uint256"
        }
      ],
      "stateMutability": "payable",
      "type": "function"
    },
    {
      "inputs": [
        {
          "internalType": "address",
          "name": "dex_",
          "type": "address"
        },
        {
          "internalType": "bool",
          "name": "swap0to1_",
          "type": "bool"
        },
        {
          "internalType": "uint256",
          "name": "amountOut_",
          "type": "uint256"
        },
        {
          "internalType": "uint256",
          "name": "amountInMax_",
          "type": "uint256"
        }
      ],
      "name": "estimateSwapOut",
      "outputs": [
        {
          "internalType": "uint256",
          "name": "amountIn_",
          "type": "uint256"
        }
      ],
      "stateMutability": "payable",
      "type": "function"
    },
    {
      "inputs": [],
      "name": "getAllPoolAddresses",
      "outputs": [
        {
          "internalType": "address[]",
          "name": "pools_",
          "type": "address[]"
        }
      ],
      "stateMutability": "view",
      "type": "function"
    },
    {
      "inputs": [],
      "name": "getAllPools",
      "outputs": [
        {
          "components": [
            {
              "internalType": "address",
              "name": "pool",
              "type": "address"
            },
            {
              "internalType": "address",
              "name": "token0",
              "type": "address"
            },
            {
              "internalType": "address",
              "name": "token1",
              "type": "address"
            },
            {
              "internalType": "uint256",
              "name": "fee",
              "type": "uint256"
            }
          ],
          "internalType": "struct Structs.Pool[]",
          "name": "pools_",
          "type": "tuple[]"
        }
      ],
      "stateMutability": "view",
      "type": "function"
    },
    {
      "inputs": [],
      "name": "getAllPoolsReserves",
      "outputs": [
        {
          "components": [
            {
              "internalType": "address",
              "name": "pool",
              "type": "address"
            },
            {
              "internalType": "address",
              "name": "token0",
              "type": "address"
            },
            {
              "internalType": "address",
              "name": "token1",
              "type": "address"
            },
            {
              "internalType": "uint256",
              "name": "fee",
              "type": "uint256"
            },
            {
              "components": [
                {
                  "internalType": "uint256",
                  "name": "token0RealReserves",
                  "type": "uint256"
                },
                {
                  "internalType": "uint256",
                  "name": "token1RealReserves",
                  "type": "uint256"
                },
                {
                  "internalType": "uint256",
                  "name": "token0ImaginaryReserves",
                  "type": "uint256"
                },
                {
                  "internalType": "uint256",
                  "name": "token1ImaginaryReserves",
                  "type": "uint256"
                }
              ],
              "internalType": "struct IFluidDexT1.CollateralReserves",
              "name": "collateralReserves",
              "type": "tuple"
            },
            {
              "components": [
                {
                  "internalType": "uint256",
                  "name": "token0Debt",
                  "type": "uint256"
                },
                {
                  "internalType": "uint256",
                  "name": "token1Debt",
                  "type": "uint256"
                },
                {
                  "internalType": "uint256",
                  "name": "token0RealReserves",
                  "type": "uint256"
                },
                {
                  "internalType": "uint256",
                  "name": "token1RealReserves",
                  "type": "uint256"
                },
                {
                  "internalType": "uint256",
                  "name": "token0ImaginaryReserves",
                  "type": "uint256"
                },
                {
                  "internalType": "uint256",
                  "name": "token1ImaginaryReserves",
                  "type": "uint256"
                }
              ],
              "internalType": "struct IFluidDexT1.DebtReserves",
              "name": "debtReserves",
              "type": "tuple"
            }
          ],
          "internalType": "struct Structs.PoolWithReserves[]",
          "name": "poolsReserves_",
          "type": "tuple[]"
        }
      ],
      "stateMutability": "nonpayable",
      "type": "function"
    },
    {
      "inputs": [],
      "name": "getAllPoolsReservesAdjusted",
      "outputs": [
        {
          "components": [
            {
              "internalType": "address",
              "name": "pool",
              "type": "address"
            },
            {
              "internalType": "address",
              "name": "token0",
              "type": "address"
            },
            {
              "internalType": "address",
              "name": "token1",
              "type": "address"
            },
            {
              "internalType": "uint256",
              "name": "fee",
              "type": "uint256"
            },
            {
              "components": [
                {
                  "internalType": "uint256",
                  "name": "token0RealReserves",
                  "type": "uint256"
                },
                {
                  "internalType": "uint256",
                  "name": "token1RealReserves",
                  "type": "uint256"
                },
                {
                  "internalType": "uint256",
                  "name": "token0ImaginaryReserves",
                  "type": "uint256"
                },
                {
                  "internalType": "uint256",
                  "name": "token1ImaginaryReserves",
                  "type": "uint256"
                }
              ],
              "internalType": "struct IFluidDexT1.CollateralReserves",
              "name": "collateralReserves",
              "type": "tuple"
            },
            {
              "components": [
                {
                  "internalType": "uint256",
                  "name": "token0Debt",
                  "type": "uint256"
                },
                {
                  "internalType": "uint256",
                  "name": "token1Debt",
                  "type": "uint256"
                },
                {
                  "internalType": "uint256",
                  "name": "token0RealReserves",
                  "type": "uint256"
                },
                {
                  "internalType": "uint256",
                  "name": "token1RealReserves",
                  "type": "uint256"
                },
                {
                  "internalType": "uint256",
                  "name": "token0ImaginaryReserves",
                  "type": "uint256"
                },
                {
                  "internalType": "uint256",
                  "name": "token1ImaginaryReserves",
                  "type": "uint256"
                }
              ],
              "internalType": "struct IFluidDexT1.DebtReserves",
              "name": "debtReserves",
              "type": "tuple"
            }
          ],
          "internalType": "struct Structs.PoolWithReserves[]",
          "name": "poolsReserves_",
          "type": "tuple[]"
        }
      ],
      "stateMutability": "nonpayable",
      "type": "function"
    },
    {
      "inputs": [
        {
          "internalType": "address",
          "name": "dex_",
          "type": "address"
        }
      ],
      "name": "getDexCollateralReserves",
      "outputs": [
        {
          "components": [
            {
              "internalType": "uint256",
              "name": "token0RealReserves",
              "type": "uint256"
            },
            {
              "internalType": "uint256",
              "name": "token1RealReserves",
              "type": "uint256"
            },
            {
              "internalType": "uint256",
              "name": "token0ImaginaryReserves",
              "type": "uint256"
            },
            {
              "internalType": "uint256",
              "name": "token1ImaginaryReserves",
              "type": "uint256"
            }
          ],
          "internalType": "struct IFluidDexT1.CollateralReserves",
          "name": "reserves_",
          "type": "tuple"
        }
      ],
      "stateMutability": "nonpayable",
      "type": "function"
    },
    {
      "inputs": [
        {
          "internalType": "address",
          "name": "dex_",
          "type": "address"
        }
      ],
      "name": "getDexCollateralReservesAdjusted",
      "outputs": [
        {
          "components": [
            {
              "internalType": "uint256",
              "name": "token0RealReserves",
              "type": "uint256"
            },
            {
              "internalType": "uint256",
              "name": "token1RealReserves",
              "type": "uint256"
            },
            {
              "internalType": "uint256",
              "name": "token0ImaginaryReserves",
              "type": "uint256"
            },
            {
              "internalType": "uint256",
              "name": "token1ImaginaryReserves",
              "type": "uint256"
            }
          ],
          "internalType": "struct IFluidDexT1.CollateralReserves",
          "name": "reserves_",
          "type": "tuple"
        }
      ],
      "stateMutability": "nonpayable",
      "type": "function"
    },
    {
      "inputs": [
        {
          "internalType": "address",
          "name": "dex_",
          "type": "address"
        }
      ],
      "name": "getDexDebtReserves",
      "outputs": [
        {
          "components": [
            {
              "internalType": "uint256",
              "name": "token0Debt",
              "type": "uint256"
            },
            {
              "internalType": "uint256",
              "name": "token1Debt",
              "type": "uint256"
            },
            {
              "internalType": "uint256",
              "name": "token0RealReserves",
              "type": "uint256"
            },
            {
              "internalType": "uint256",
              "name": "token1RealReserves",
              "type": "uint256"
            },
            {
              "internalType": "uint256",
              "name": "token0ImaginaryReserves",
              "type": "uint256"
            },
            {
              "internalType": "uint256",
              "name": "token1ImaginaryReserves",
              "type": "uint256"
            }
          ],
          "internalType": "struct IFluidDexT1.DebtReserves",
          "name": "reserves_",
          "type": "tuple"
        }
      ],
      "stateMutability": "nonpayable",
      "type": "function"
    },
    {
      "inputs": [
        {
          "internalType": "address",
          "name": "dex_",
          "type": "address"
        }
      ],
      "name": "getDexDebtReservesAdjusted",
      "outputs": [
        {
          "components": [
            {
              "internalType": "uint256",
              "name": "token0Debt",
              "type": "uint256"
            },
            {
              "internalType": "uint256",
              "name": "token1Debt",
              "type": "uint256"
            },
            {
              "internalType": "uint256",
              "name": "token0RealReserves",
              "type": "uint256"
            },
            {
              "internalType": "uint256",
              "name": "token1RealReserves",
              "type": "uint256"
            },
            {
              "internalType": "uint256",
              "name": "token0ImaginaryReserves",
              "type": "uint256"
            },
            {
              "internalType": "uint256",
              "name": "token1ImaginaryReserves",
              "type": "uint256"
            }
          ],
          "internalType": "struct IFluidDexT1.DebtReserves",
          "name": "reserves_",
          "type": "tuple"
        }
      ],
      "stateMutability": "nonpayable",
      "type": "function"
    },
    {
      "inputs": [
        {
          "internalType": "address",
          "name": "dex_",
          "type": "address"
        }
      ],
      "name": "getDexPricesAndExchangePrices",
      "outputs": [
        {
          "components": [
            {
              "internalType": "uint256",
              "name": "lastStoredPrice",
              "type": "uint256"
            },
            {
              "internalType": "uint256",
              "name": "centerPrice",
              "type": "uint256"
            },
            {
              "internalType": "uint256",
              "name": "upperRange",
              "type": "uint256"
            },
            {
              "internalType": "uint256",
              "name": "lowerRange",
              "type": "uint256"
            },
            {
              "internalType": "uint256",
              "name": "geometricMean",
              "type": "uint256"
            },
            {
              "internalType": "uint256",
              "name": "supplyToken0ExchangePrice",
              "type": "uint256"
            },
            {
              "internalType": "uint256",
              "name": "borrowToken0ExchangePrice",
              "type": "uint256"
            },
            {
              "internalType": "uint256",
              "name": "supplyToken1ExchangePrice",
              "type": "uint256"
            },
            {
              "internalType": "uint256",
              "name": "borrowToken1ExchangePrice",
              "type": "uint256"
            }
          ],
          "internalType": "struct IFluidDexT1.PricesAndExchangePrice",
          "name": "pex_",
          "type": "tuple"
        }
      ],
      "stateMutability": "nonpayable",
      "type": "function"
    },
    {
      "inputs": [
        {
          "internalType": "uint256",
          "name": "poolId_",
          "type": "uint256"
        }
      ],
      "name": "getPool",
      "outputs": [
        {
          "components": [
            {
              "internalType": "address",
              "name": "pool",
              "type": "address"
            },
            {
              "internalType": "address",
              "name": "token0",
              "type": "address"
            },
            {
              "internalType": "address",
              "name": "token1",
              "type": "address"
            },
            {
              "internalType": "uint256",
              "name": "fee",
              "type": "uint256"
            }
          ],
          "internalType": "struct Structs.Pool",
          "name": "pool_",
          "type": "tuple"
        }
      ],
      "stateMutability": "view",
      "type": "function"
    },
    {
      "inputs": [
        {
          "internalType": "uint256",
          "name": "poolId_",
          "type": "uint256"
        }
      ],
      "name": "getPoolAddress",
      "outputs": [
        {
          "internalType": "address",
          "name": "pool_",
          "type": "address"
        }
      ],
      "stateMutability": "view",
      "type": "function"
    },
    {
      "inputs": [
        {
          "internalType": "address",
          "name": "pool_",
          "type": "address"
        }
      ],
      "name": "getPoolConstantsView",
      "outputs": [
        {
          "components": [
            {
              "internalType": "uint256",
              "name": "dexId",
              "type": "uint256"
            },
            {
              "internalType": "address",
              "name": "liquidity",
              "type": "address"
            },
            {
              "internalType": "address",
              "name": "factory",
              "type": "address"
            },
            {
              "components": [
                {
                  "internalType": "address",
                  "name": "shift",
                  "type": "address"
                },
                {
                  "internalType": "address",
                  "name": "admin",
                  "type": "address"
                },
                {
                  "internalType": "address",
                  "name": "colOperations",
                  "type": "address"
                },
                {
                  "internalType": "address",
                  "name": "debtOperations",
                  "type": "address"
                },
                {
                  "internalType": "address",
                  "name": "perfectOperationsAndOracle",
                  "type": "address"
                }
              ],
              "internalType": "struct IFluidDexT1.Implementations",
              "name": "implementations",
              "type": "tuple"
            },
            {
              "internalType": "address",
              "name": "deployerContract",
              "type": "address"
            },
            {
              "internalType": "address",
              "name": "token0",
              "type": "address"
            },
            {
              "internalType": "address",
              "name": "token1",
              "type": "address"
            },
            {
              "internalType": "bytes32",
              "name": "supplyToken0Slot",
              "type": "bytes32"
            },
            {
              "internalType": "bytes32",
              "name": "borrowToken0Slot",
              "type": "bytes32"
            },
            {
              "internalType": "bytes32",
              "name": "supplyToken1Slot",
              "type": "bytes32"
            },
            {
              "internalType": "bytes32",
              "name": "borrowToken1Slot",
              "type": "bytes32"
            },
            {
              "internalType": "bytes32",
              "name": "exchangePriceToken0Slot",
              "type": "bytes32"
            },
            {
              "internalType": "bytes32",
              "name": "exchangePriceToken1Slot",
              "type": "bytes32"
            },
            {
              "internalType": "uint256",
              "name": "oracleMapping",
              "type": "uint256"
            }
          ],
          "internalType": "struct IFluidDexT1.ConstantViews",
          "name": "constantsView_",
          "type": "tuple"
        }
      ],
      "stateMutability": "view",
      "type": "function"
    },
    {
      "inputs": [
        {
          "internalType": "address",
          "name": "pool_",
          "type": "address"
        }
      ],
      "name": "getPoolConstantsView2",
      "outputs": [
        {
          "components": [
            {
              "internalType": "uint256",
              "name": "token0NumeratorPrecision",
              "type": "uint256"
            },
            {
              "internalType": "uint256",
              "name": "token0DenominatorPrecision",
              "type": "uint256"
            },
            {
              "internalType": "uint256",
              "name": "token1NumeratorPrecision",
              "type": "uint256"
            },
            {
              "internalType": "uint256",
              "name": "token1DenominatorPrecision",
              "type": "uint256"
            }
          ],
          "internalType": "struct IFluidDexT1.ConstantViews2",
          "name": "constantsView2_",
          "type": "tuple"
        }
      ],
      "stateMutability": "view",
      "type": "function"
    },
    {
      "inputs": [
        {
          "internalType": "address",
          "name": "pool_",
          "type": "address"
        }
      ],
      "name": "getPoolFee",
      "outputs": [
        {
          "internalType": "uint256",
          "name": "fee_",
          "type": "uint256"
        }
      ],
      "stateMutability": "view",
      "type": "function"
    },
    {
      "inputs": [
        {
          "internalType": "address",
          "name": "pool_",
          "type": "address"
        }
      ],
      "name": "getPoolReserves",
      "outputs": [
        {
          "components": [
            {
              "internalType": "address",
              "name": "pool",
              "type": "address"
            },
            {
              "internalType": "address",
              "name": "token0",
              "type": "address"
            },
            {
              "internalType": "address",
              "name": "token1",
              "type": "address"
            },
            {
              "internalType": "uint256",
              "name": "fee",
              "type": "uint256"
            },
            {
              "components": [
                {
                  "internalType": "uint256",
                  "name": "token0RealReserves",
                  "type": "uint256"
                },
                {
                  "internalType": "uint256",
                  "name": "token1RealReserves",
                  "type": "uint256"
                },
                {
                  "internalType": "uint256",
                  "name": "token0ImaginaryReserves",
                  "type": "uint256"
                },
                {
                  "internalType": "uint256",
                  "name": "token1ImaginaryReserves",
                  "type": "uint256"
                }
              ],
              "internalType": "struct IFluidDexT1.CollateralReserves",
              "name": "collateralReserves",
              "type": "tuple"
            },
            {
              "components": [
                {
                  "internalType": "uint256",
                  "name": "token0Debt",
                  "type": "uint256"
                },
                {
                  "internalType": "uint256",
                  "name": "token1Debt",
                  "type": "uint256"
                },
                {
                  "internalType": "uint256",
                  "name": "token0RealReserves",
                  "type": "uint256"
                },
                {
                  "internalType": "uint256",
                  "name": "token1RealReserves",
                  "type": "uint256"
                },
                {
                  "internalType": "uint256",
                  "name": "token0ImaginaryReserves",
                  "type": "uint256"
                },
                {
                  "internalType": "uint256",
                  "name": "token1ImaginaryReserves",
                  "type": "uint256"
                }
              ],
              "internalType": "struct IFluidDexT1.DebtReserves",
              "name": "debtReserves",
              "type": "tuple"
            }
          ],
          "internalType": "struct Structs.PoolWithReserves",
          "name": "poolReserves_",
          "type": "tuple"
        }
      ],
      "stateMutability": "nonpayable",
      "type": "function"
    },
    {
      "inputs": [
        {
          "internalType": "address",
          "name": "pool_",
          "type": "address"
        }
      ],
      "name": "getPoolReservesAdjusted",
      "outputs": [
        {
          "components": [
            {
              "internalType": "address",
              "name": "pool",
              "type": "address"
            },
            {
              "internalType": "address",
              "name": "token0",
              "type": "address"
            },
            {
              "internalType": "address",
              "name": "token1",
              "type": "address"
            },
            {
              "internalType": "uint256",
              "name": "fee",
              "type": "uint256"
            },
            {
              "components": [
                {
                  "internalType": "uint256",
                  "name": "token0RealReserves",
                  "type": "uint256"
                },
                {
                  "internalType": "uint256",
                  "name": "token1RealReserves",
                  "type": "uint256"
                },
                {
                  "internalType": "uint256",
                  "name": "token0ImaginaryReserves",
                  "type": "uint256"
                },
                {
                  "internalType": "uint256",
                  "name": "token1ImaginaryReserves",
                  "type": "uint256"
                }
              ],
              "internalType": "struct IFluidDexT1.CollateralReserves",
              "name": "collateralReserves",
              "type": "tuple"
            },
            {
              "components": [
                {
                  "internalType": "uint256",
                  "name": "token0Debt",
                  "type": "uint256"
                },
                {
                  "internalType": "uint256",
                  "name": "token1Debt",
                  "type": "uint256"
                },
                {
                  "internalType": "uint256",
                  "name": "token0RealReserves",
                  "type": "uint256"
                },
                {
                  "internalType": "uint256",
                  "name": "token1RealReserves",
                  "type": "uint256"
                },
                {
                  "internalType": "uint256",
                  "name": "token0ImaginaryReserves",
                  "type": "uint256"
                },
                {
                  "internalType": "uint256",
                  "name": "token1ImaginaryReserves",
                  "type": "uint256"
                }
              ],
              "internalType": "struct IFluidDexT1.DebtReserves",
              "name": "debtReserves",
              "type": "tuple"
            }
          ],
          "internalType": "struct Structs.PoolWithReserves",
          "name": "poolReserves_",
          "type": "tuple"
        }
      ],
      "stateMutability": "nonpayable",
      "type": "function"
    },
    {
      "inputs": [
        {
          "internalType": "address",
          "name": "pool_",
          "type": "address"
        }
      ],
      "name": "getPoolTokens",
      "outputs": [
        {
          "internalType": "address",
          "name": "token0_",
          "type": "address"
        },
        {
          "internalType": "address",
          "name": "token1_",
          "type": "address"
        }
      ],
      "stateMutability": "view",
      "type": "function"
    },
    {
      "inputs": [
        {
          "internalType": "address[]",
          "name": "pools_",
          "type": "address[]"
        }
      ],
      "name": "getPoolsReserves",
      "outputs": [
        {
          "components": [
            {
              "internalType": "address",
              "name": "pool",
              "type": "address"
            },
            {
              "internalType": "address",
              "name": "token0",
              "type": "address"
            },
            {
              "internalType": "address",
              "name": "token1",
              "type": "address"
            },
            {
              "internalType": "uint256",
              "name": "fee",
              "type": "uint256"
            },
            {
              "components": [
                {
                  "internalType": "uint256",
                  "name": "token0RealReserves",
                  "type": "uint256"
                },
                {
                  "internalType": "uint256",
                  "name": "token1RealReserves",
                  "type": "uint256"
                },
                {
                  "internalType": "uint256",
                  "name": "token0ImaginaryReserves",
                  "type": "uint256"
                },
                {
                  "internalType": "uint256",
                  "name": "token1ImaginaryReserves",
                  "type": "uint256"
                }
              ],
              "internalType": "struct IFluidDexT1.CollateralReserves",
              "name": "collateralReserves",
              "type": "tuple"
            },
            {
              "components": [
                {
                  "internalType": "uint256",
                  "name": "token0Debt",
                  "type": "uint256"
                },
                {
                  "internalType": "uint256",
                  "name": "token1Debt",
                  "type": "uint256"
                },
                {
                  "internalType": "uint256",
                  "name": "token0RealReserves",
                  "type": "uint256"
                },
                {
                  "internalType": "uint256",
                  "name": "token1RealReserves",
                  "type": "uint256"
                },
                {
                  "internalType": "uint256",
                  "name": "token0ImaginaryReserves",
                  "type": "uint256"
                },
                {
                  "internalType": "uint256",
                  "name": "token1ImaginaryReserves",
                  "type": "uint256"
                }
              ],
              "internalType": "struct IFluidDexT1.DebtReserves",
              "name": "debtReserves",
              "type": "tuple"
            }
          ],
          "internalType": "struct Structs.PoolWithReserves[]",
          "name": "poolsReserves_",
          "type": "tuple[]"
        }
      ],
      "stateMutability": "nonpayable",
      "type": "function"
    },
    {
      "inputs": [
        {
          "internalType": "address[]",
          "name": "pools_",
          "type": "address[]"
        }
      ],
      "name": "getPoolsReservesAdjusted",
      "outputs": [
        {
          "components": [
            {
              "internalType": "address",
              "name": "pool",
              "type": "address"
            },
            {
              "internalType": "address",
              "name": "token0",
              "type": "address"
            },
            {
              "internalType": "address",
              "name": "token1",
              "type": "address"
            },
            {
              "internalType": "uint256",
              "name": "fee",
              "type": "uint256"
            },
            {
              "components": [
                {
                  "internalType": "uint256",
                  "name": "token0RealReserves",
                  "type": "uint256"
                },
                {
                  "internalType": "uint256",
                  "name": "token1RealReserves",
                  "type": "uint256"
                },
                {
                  "internalType": "uint256",
                  "name": "token0ImaginaryReserves",
                  "type": "uint256"
                },
                {
                  "internalType": "uint256",
                  "name": "token1ImaginaryReserves",
                  "type": "uint256"
                }
              ],
              "internalType": "struct IFluidDexT1.CollateralReserves",
              "name": "collateralReserves",
              "type": "tuple"
            },
            {
              "components": [
                {
                  "internalType": "uint256",
                  "name": "token0Debt",
                  "type": "uint256"
                },
                {
                  "internalType": "uint256",
                  "name": "token1Debt",
                  "type": "uint256"
                },
                {
                  "internalType": "uint256",
                  "name": "token0RealReserves",
                  "type": "uint256"
                },
                {
                  "internalType": "uint256",
                  "name": "token1RealReserves",
                  "type": "uint256"
                },
                {
                  "internalType": "uint256",
                  "name": "token0ImaginaryReserves",
                  "type": "uint256"
                },
                {
                  "internalType": "uint256",
                  "name": "token1ImaginaryReserves",
                  "type": "uint256"
                }
              ],
              "internalType": "struct IFluidDexT1.DebtReserves",
              "name": "debtReserves",
              "type": "tuple"
            }
          ],
          "internalType": "struct Structs.PoolWithReserves[]",
          "name": "poolsReserves_",
          "type": "tuple[]"
        }
      ],
      "stateMutability": "nonpayable",
      "type": "function"
    },
    {
      "inputs": [],
      "name": "getTotalPools",
      "outputs": [
        {
          "internalType": "uint256",
          "name": "",
          "type": "uint256"
        }
      ],
      "stateMutability": "view",
      "type": "function"
    }
  ],
  "transactionHash": "0xd210e8de9812cd31d44dc275bcceeff521673334d6cb81d211f9490f1bb27092",
  "args": [
    "0x91716C4EDA1Fb55e84Bf8b4c7085f84285c19085"
  ],
  "numDeployments": 4,
  "solcInputHash": "7b85aee7339d43cbfc75afd48879ae15",
  "bytecode": "0x60a06040523480156200001157600080fd5b5060405162002bfb38038062002bfb833981016040819052620000349162000046565b6001600160a01b031660805262000078565b6000602082840312156200005957600080fd5b81516001600160a01b03811681146200007157600080fd5b9392505050565b608051612b59620000a26000396000818161029a0152818161056801526114590152612b596000f3fe60806040526004361061017f5760003560e01c80636e38c023116100d6578063c56f1b441161007f578063d88ff1f411610059578063d88ff1f4146104ff578063dde0470614610521578063fccca03c1461054157600080fd5b8063c56f1b441461047b578063ca4f28031461049d578063d3ffe67a146104ea57600080fd5b8063bb39e3a1116100b0578063bb39e3a114610428578063bd964d381461043b578063c0eec0e81461045b57600080fd5b80636e38c023146103d3578063957755e6146103e8578063a59737631461040857600080fd5b80633973a11b1161013857806342fcc6fb1161011257806342fcc6fb146103595780634bee93951461037957806355181f11146103a657600080fd5b80633973a11b146102de5780633ec841e41461030b578063425711371461033857600080fd5b8063068bcd8d11610169578063068bcd8d1461025b5780632dd3100014610288578063333d01a9146102bc57600080fd5b8062a5ae2114610184578063015f6cfa146101ce575b600080fd5b34801561019057600080fd5b506101a461019f36600461209d565b610561565b60405173ffffffffffffffffffffffffffffffffffffffff90911681526020015b60405180910390f35b3480156101da57600080fd5b506101ee6101e93660046120db565b610593565b6040516101c59190600061012082019050825182526020830151602083015260408301516040830152606083015160608301526080830151608083015260a083015160a083015260c083015160c083015260e083015160e083015261010080840151818401525092915050565b34801561026757600080fd5b5061027b61027636600461209d565b6106f3565b6040516101c591906120ff565b34801561029457600080fd5b506101a47f000000000000000000000000000000000000000000000000000000000000000081565b3480156102c857600080fd5b506102d16107a5565b6040516101c59190612201565b3480156102ea57600080fd5b506102fe6102f93660046120db565b6107b7565b6040516101c59190612250565b34801561031757600080fd5b5061032b6103263660046120db565b6108c4565b6040516101c591906123e2565b61034b61034636600461240d565b61095e565b6040519081526020016101c5565b34801561036557600080fd5b5061034b6103743660046120db565b610a92565b34801561038557600080fd5b506103996103943660046120db565b610b35565b6040516101c59190612458565b3480156103b257600080fd5b506103c66103c13660046120db565b610be7565b6040516101c59190612467565b3480156103df57600080fd5b506102d1610d8c565b3480156103f457600080fd5b5061032b6104033660046120db565b610d99565b34801561041457600080fd5b506102d1610423366004612576565b610ee1565b61034b61043636600461240d565b610f9d565b34801561044757600080fd5b506103996104563660046120db565b61100c565b34801561046757600080fd5b5061032b6104763660046120db565b61103c565b34801561048757600080fd5b50610490611310565b6040516101c59190612628565b3480156104a957600080fd5b506104bd6104b83660046120db565b6113ca565b6040805173ffffffffffffffffffffffffffffffffffffffff9384168152929091166020830152016101c5565b3480156104f657600080fd5b5061034b611455565b34801561050b57600080fd5b506105146114e6565b6040516101c59190612676565b34801561052d57600080fd5b506103c661053c3660046120db565b6115c9565b34801561054d57600080fd5b506102d161055c366004612576565b6118d6565b600061058d7f00000000000000000000000000000000000000000000000000000000000000008361198c565b92915050565b6105e26040518061012001604052806000815260200160008152602001600081526020016000815260200160008152602001600081526020016000815260200160008152602001600081525090565b8173ffffffffffffffffffffffffffffffffffffffff1663916cef4e6040518163ffffffff1660e01b8152600401600060405180830381600087803b15801561062a57600080fd5b505af192505050801561063b575060015b6106ee573d808015610669576040519150601f19603f3d011682016040523d82523d6000602084013e61066e565b606091505b5060208101517fdc4022c5000000000000000000000000000000000000000000000000000000007fffffffff000000000000000000000000000000000000000000000000000000008216016106eb576106d58260048085516106d09190612724565b611df6565b8060200190518101906106e89190612737565b92505b50505b919050565b60408051608081018252600080825260208201819052918101829052606081018290529061072083610561565b905060008061072e836113ca565b9150915060405180608001604052808473ffffffffffffffffffffffffffffffffffffffff1681526020018373ffffffffffffffffffffffffffffffffffffffff1681526020018273ffffffffffffffffffffffffffffffffffffffff16815260200161079a85610a92565b905295945050505050565b60606107b261055c611310565b905090565b610854604080516101c08101825260008082526020808301829052828401829052835160a08101855282815290810182905292830181905260608381018290526080840191909152909190820190815260006020820181905260408201819052606082018190526080820181905260a0820181905260c0820181905260e08201819052610100820181905261012082018190526101409091015290565b8173ffffffffffffffffffffffffffffffffffffffff1663b7791bf26040518163ffffffff1660e01b815260040161024060405180830381865afa1580156108a0573d6000803e3d6000fd5b505050506040513d601f19601f8201168201806040525081019061058d919061285b565b6108ef6040518060800160405280600081526020016000815260200160008152602001600081525090565b8173ffffffffffffffffffffffffffffffffffffffff16631595cbd36040518163ffffffff1660e01b8152600401608060405180830381865afa15801561093a573d6000803e3d6000fd5b505050506040513d601f19601f8201168201806040525081019061058d91906129a8565b6040517f286f0e610000000000000000000000000000000000000000000000000000000081528315156004820152602481018390526044810182905261dead606482015260009073ffffffffffffffffffffffffffffffffffffffff86169063286f0e619034906084015b60206040518083038185885af193505050508015610a22575060408051601f3d9081017fffffffffffffffffffffffffffffffffffffffffffffffffffffffffffffffe0168201909252610a1f918101906129c4565b60015b610a88573d808015610a50576040519150601f19603f3d011682016040523d82523d6000602084013e610a55565b606091505b50610a80817fb3bfda9900000000000000000000000000000000000000000000000000000000611f72565b915050610a8a565b505b949350505050565b6040517fb5c736e400000000000000000000000000000000000000000000000000000000815260016004820152600090819073ffffffffffffffffffffffffffffffffffffffff84169063b5c736e490602401602060405180830381865afa158015610b02573d6000803e3d6000fd5b505050506040513d601f19601f82011682018060405250810190610b2691906129c4565b60021c6201ffff169392505050565b610b3d611fc6565b600080610b49846113ca565b915091506000610b5885610d99565b90506000610b6586610be7565b90506040518060c001604052808773ffffffffffffffffffffffffffffffffffffffff1681526020018573ffffffffffffffffffffffffffffffffffffffff1681526020018473ffffffffffffffffffffffffffffffffffffffff168152602001610bcf88610a92565b81526020810193909352604090920152949350505050565b610c206040518060c001604052806000815260200160008152602001600081526020016000815260200160008152602001600081525090565b610c29826115c9565b905060008273ffffffffffffffffffffffffffffffffffffffff16631595cbd36040518163ffffffff1660e01b8152600401608060405180830381865afa158015610c78573d6000803e3d6000fd5b505050506040513d601f19601f82011682018060405250810190610c9c91906129a8565b8051602082015184519293509091610cb491906129dd565b610cbe91906129f4565b8252805160208201516040840151610cd691906129dd565b610ce091906129f4565b6040830152805160208201516080840151610cfb91906129dd565b610d0591906129f4565b6080830152604081015160608201516020840151610d2391906129dd565b610d2d91906129f4565b6020830152604081015160608083015190840151610d4b91906129dd565b610d5591906129f4565b826060018181525050806040015181606001518360a00151610d7791906129dd565b610d8191906129f4565b60a083015250919050565b60606107b2610423611310565b610dc46040518060800160405280600081526020016000815260200160008152602001600081525090565b610dcd8261103c565b905060008273ffffffffffffffffffffffffffffffffffffffff16631595cbd36040518163ffffffff1660e01b8152600401608060405180830381865afa158015610e1c573d6000803e3d6000fd5b505050506040513d601f19601f82011682018060405250810190610e4091906129a8565b8051602082015184519293509091610e5891906129dd565b610e6291906129f4565b8252805160208201516040840151610e7a91906129dd565b610e8491906129f4565b60408084019190915281015160608201516020840151610ea491906129dd565b610eae91906129f4565b6020830152604081015160608083015190840151610ecc91906129dd565b610ed691906129f4565b606083015250919050565b6060815167ffffffffffffffff811115610efd57610efd6124aa565b604051908082528060200260200182016040528015610f3657816020015b610f23611fc6565b815260200190600190039081610f1b5790505b50905060005b8251811015610f9757610f67838281518110610f5a57610f5a612a2f565b6020026020010151610b35565b828281518110610f7957610f79612a2f565b60200260200101819052508080610f8f90612a5e565b915050610f3c565b50919050565b6040517f2668dfaa0000000000000000000000000000000000000000000000000000000081528315156004820152602481018390526044810182905261dead606482015260009073ffffffffffffffffffffffffffffffffffffffff861690632668dfaa9034906084016109c9565b611014611fc6565b600080611020846113ca565b91509150600061102f8561103c565b90506000610b65866115c9565b6110676040518060800160405280600081526020016000815260200160008152602001600081525090565b6040517fb5c736e40000000000000000000000000000000000000000000000000000000081526001600482015260009073ffffffffffffffffffffffffffffffffffffffff84169063b5c736e490602401602060405180830381865afa1580156110d5573d6000803e3d6000fd5b505050506040513d601f19601f820116820180604052508101906110f991906129c4565b9050806001166001146111335760405180608001604052806000815260200160008152602001600081526020016000815250915050919050565b6040517f015f6cfa00000000000000000000000000000000000000000000000000000000815273ffffffffffffffffffffffffffffffffffffffff84166004820152309063015f6cfa90602401610120604051808303816000875af19250505080156111da575060408051601f3d9081017fffffffffffffffffffffffffffffffffffffffffffffffffffffffffffffffe01682019092526111d791810190612737565b60015b61120a57604051806080016040528060008152602001600081526020016000815260200160008152509150610f97565b6080810151604080830151606084015160a085015160e086015193517f6560abaa0000000000000000000000000000000000000000000000000000000081526004810195909552602485019290925260448401526064830152608482015273ffffffffffffffffffffffffffffffffffffffff851690636560abaa9060a401608060405180830381865afa9250505080156112e0575060408051601f3d9081017fffffffffffffffffffffffffffffffffffffffffffffffffffffffffffffffe01682019092526112dd918101906129a8565b60015b6106e8576040518060800160405280600081526020016000815260200160008152602001600081525092506106eb565b6060600061131c611455565b90508067ffffffffffffffff811115611337576113376124aa565b604051908082528060200260200182016040528015611360578160200160208202803683370190505b50915060005b818110156113c55761137c61019f826001612a96565b83828151811061138e5761138e612a2f565b73ffffffffffffffffffffffffffffffffffffffff90921660209283029190910190910152806113bd81612a5e565b915050611366565b505090565b60008060008373ffffffffffffffffffffffffffffffffffffffff1663b7791bf26040518163ffffffff1660e01b815260040161024060405180830381865afa15801561141b573d6000803e3d6000fd5b505050506040513d601f19601f8201168201806040525081019061143f919061285b565b90508060a001518160c001519250925050915091565b60007f000000000000000000000000000000000000000000000000000000000000000073ffffffffffffffffffffffffffffffffffffffff166393656c176040518163ffffffff1660e01b8152600401602060405180830381865afa1580156114c2573d6000803e3d6000fd5b505050506040513d601f19601f820116820180604052508101906107b291906129c4565b606060006114f2611455565b90508067ffffffffffffffff81111561150d5761150d6124aa565b60405190808252806020026020018201604052801561157d57816020015b6040805160808101825260008082526020808301829052928201819052606082015282527fffffffffffffffffffffffffffffffffffffffffffffffffffffffffffffffff90920191018161152b5790505b50915060005b818110156113c557611599610276826001612a96565b8382815181106115ab576115ab612a2f565b602002602001018190525080806115c190612a5e565b915050611583565b6116026040518060c001604052806000815260200160008152602001600081526020016000815260200160008152602001600081525090565b6040517fb5c736e40000000000000000000000000000000000000000000000000000000081526001600482015260009073ffffffffffffffffffffffffffffffffffffffff84169063b5c736e490602401602060405180830381865afa158015611670573d6000803e3d6000fd5b505050506040513d601f19601f8201168201806040525081019061169491906129c4565b9050806002166002146116dc576040518060c0016040528060008152602001600081526020016000815260200160008152602001600081526020016000815250915050919050565b6040517f015f6cfa00000000000000000000000000000000000000000000000000000000815273ffffffffffffffffffffffffffffffffffffffff84166004820152309063015f6cfa90602401610120604051808303816000875af1925050508015611783575060408051601f3d9081017fffffffffffffffffffffffffffffffffffffffffffffffffffffffffffffffe016820190925261178091810190612737565b60015b6117c1576040518060c00160405280600081526020016000815260200160008152602001600081526020016000815260200160008152509150610f97565b6080810151604080830151606084015160c085015161010086015193517f05d455a90000000000000000000000000000000000000000000000000000000081526004810195909552602485019290925260448401526064830152608482015273ffffffffffffffffffffffffffffffffffffffff8516906305d455a99060a40160c060405180830381865afa925050508015611898575060408051601f3d9081017fffffffffffffffffffffffffffffffffffffffffffffffffffffffffffffffe016820190925261189591810190612aa9565b60015b6106e8576040518060c001604052806000815260200160008152602001600081526020016000815260200160008152602001600081525092506106eb565b6060815167ffffffffffffffff8111156118f2576118f26124aa565b60405190808252806020026020018201604052801561192b57816020015b611918611fc6565b8152602001906001900390816119105790505b50905060005b8251811015610f975761195c83828151811061194f5761194f612a2f565b602002602001015161100c565b82828151811061196e5761196e612a2f565b6020026020010181905250808061198490612a5e565b915050611931565b60006060826000036119a257600091505061058d565b607f8311611a6b576040517fd60000000000000000000000000000000000000000000000000000000000000060208201527f940000000000000000000000000000000000000000000000000000000000000060218201527fffffffffffffffffffffffffffffffffffffffff000000000000000000000000606086901b16602282015260f884901b7fff000000000000000000000000000000000000000000000000000000000000001660368201526037015b6040516020818303038152906040529050611de7565b60ff8311611b48576040517fd70000000000000000000000000000000000000000000000000000000000000060208201527f940000000000000000000000000000000000000000000000000000000000000060218201527fffffffffffffffffffffffffffffffffffffffff000000000000000000000000606086901b1660228201527f8100000000000000000000000000000000000000000000000000000000000000603682015260f884901b7fff00000000000000000000000000000000000000000000000000000000000000166037820152603801611a55565b61ffff8311611c26576040517fd80000000000000000000000000000000000000000000000000000000000000060208201527f940000000000000000000000000000000000000000000000000000000000000060218201527fffffffffffffffffffffffffffffffffffffffff000000000000000000000000606086901b1660228201527f820000000000000000000000000000000000000000000000000000000000000060368201527fffff00000000000000000000000000000000000000000000000000000000000060f085901b166037820152603901611a55565b62ffffff8311611d05576040517fd90000000000000000000000000000000000000000000000000000000000000060208201527f940000000000000000000000000000000000000000000000000000000000000060218201527fffffffffffffffffffffffffffffffffffffffff000000000000000000000000606086901b1660228201527f830000000000000000000000000000000000000000000000000000000000000060368201527fffffff000000000000000000000000000000000000000000000000000000000060e885901b166037820152603a01611a55565b6040517fda0000000000000000000000000000000000000000000000000000000000000060208201527f940000000000000000000000000000000000000000000000000000000000000060218201527fffffffffffffffffffffffffffffffffffffffff000000000000000000000000606086901b1660228201527f840000000000000000000000000000000000000000000000000000000000000060368201527fffffffff0000000000000000000000000000000000000000000000000000000060e085901b166037820152603b0160405160208183030381529060405290505b80516020909101209392505050565b606081611e0481601f612a96565b1015611e71576040517f08c379a000000000000000000000000000000000000000000000000000000000815260206004820152600e60248201527f736c6963655f6f766572666c6f7700000000000000000000000000000000000060448201526064015b60405180910390fd5b611e7b8284612a96565b84511015611ee5576040517f08c379a000000000000000000000000000000000000000000000000000000000815260206004820152601160248201527f736c6963655f6f75744f66426f756e64730000000000000000000000000000006044820152606401611e68565b81158015611f025760405191506000825260208201604052611f6a565b6040519150601f8316801560200281840101848101868315602002848a0101015b81831015611f3b578051835260209283019201611f23565b5050848452601f017fffffffffffffffffffffffffffffffffffffffffffffffffffffffffffffffe016604052505b509392505050565b6000602483511015611f865750600061058d565b60208301517fffffffff0000000000000000000000000000000000000000000000000000000080841690821603611fbf57602484015191505b5092915050565b6040518060c00160405280600073ffffffffffffffffffffffffffffffffffffffff168152602001600073ffffffffffffffffffffffffffffffffffffffff168152602001600073ffffffffffffffffffffffffffffffffffffffff1681526020016000815260200161205a6040518060800160405280600081526020016000815260200160008152602001600081525090565b81526020016120986040518060c001604052806000815260200160008152602001600081526020016000815260200160008152602001600081525090565b905290565b6000602082840312156120af57600080fd5b5035919050565b73ffffffffffffffffffffffffffffffffffffffff811681146120d857600080fd5b50565b6000602082840312156120ed57600080fd5b81356120f8816120b6565b9392505050565b6080810161058d828473ffffffffffffffffffffffffffffffffffffffff80825116835280602083015116602084015280604083015116604084015250606081015160608301525050565b73ffffffffffffffffffffffffffffffffffffffff808251168352806020830151166020840152806040830151166040840152506060810151606083015260808101516121bb6080840182805182526020810151602083015260408101516040830152606081015160608301525050565b5060a0908101518051610100840152602081015161012084015260408101516101408401526060810151610160840152608081015161018084015201516101a090910152565b6020808252825182820181905260009190848201906040850190845b818110156122445761223083855161214a565b928401926101c0929092019160010161221d565b50909695505050505050565b815181526020808301516102408301916122819084018273ffffffffffffffffffffffffffffffffffffffff169052565b5060408301516122a9604084018273ffffffffffffffffffffffffffffffffffffffff169052565b506060830151612307606084018273ffffffffffffffffffffffffffffffffffffffff808251168352806020830151166020840152806040830151166040840152806060830151166060840152806080830151166080840152505050565b5060808301516101006123318185018373ffffffffffffffffffffffffffffffffffffffff169052565b60a0850151915061012061235c8186018473ffffffffffffffffffffffffffffffffffffffff169052565b60c086015192506101406123878187018573ffffffffffffffffffffffffffffffffffffffff169052565b60e0870151610160878101919091529287015161018080880191909152918701516101a080880191909152908701516101c0870152918601516101e08601528501516102008501529093015161022090920191909152919050565b815181526020808301519082015260408083015190820152606080830151908201526080810161058d565b6000806000806080858703121561242357600080fd5b843561242e816120b6565b93506020850135801515811461244357600080fd5b93969395505050506040820135916060013590565b6101c0810161058d828461214a565b60c0810161058d8284805182526020810151602083015260408101516040830152606081015160608301526080810151608083015260a081015160a08301525050565b7f4e487b7100000000000000000000000000000000000000000000000000000000600052604160045260246000fd5b604051610120810167ffffffffffffffff811182821017156124fd576124fd6124aa565b60405290565b6040516101c0810167ffffffffffffffff811182821017156124fd576124fd6124aa565b604051601f82017fffffffffffffffffffffffffffffffffffffffffffffffffffffffffffffffe016810167ffffffffffffffff8111828210171561256e5761256e6124aa565b604052919050565b6000602080838503121561258957600080fd5b823567ffffffffffffffff808211156125a157600080fd5b818501915085601f8301126125b557600080fd5b8135818111156125c7576125c76124aa565b8060051b91506125d8848301612527565b81815291830184019184810190888411156125f257600080fd5b938501935b8385101561261c578435925061260c836120b6565b82825293850193908501906125f7565b98975050505050505050565b6020808252825182820181905260009190848201906040850190845b8181101561224457835173ffffffffffffffffffffffffffffffffffffffff1683529284019291840191600101612644565b6020808252825182820181905260009190848201906040850190845b81811015612244576126e283855173ffffffffffffffffffffffffffffffffffffffff80825116835280602083015116602084015280604083015116604084015250606081015160608301525050565b9284019260809290920191600101612692565b7f4e487b7100000000000000000000000000000000000000000000000000000000600052601160045260246000fd5b8181038181111561058d5761058d6126f5565b6000610120828403121561274a57600080fd5b6127526124d9565b825181526020830151602082015260408301516040820152606083015160608201526080830151608082015260a083015160a082015260c083015160c082015260e083015160e08201526101008084015181830152508091505092915050565b80516106ee816120b6565b600060a082840312156127cf57600080fd5b60405160a0810181811067ffffffffffffffff821117156127f2576127f26124aa565b80604052508091508251612805816120b6565b81526020830151612815816120b6565b60208201526040830151612828816120b6565b6040820152606083015161283b816120b6565b6060820152608083015161284e816120b6565b6080919091015292915050565b6000610240828403121561286e57600080fd5b612876612503565b82518152612886602084016127b2565b6020820152612897604084016127b2565b60408201526128a984606085016127bd565b60608201526101006128bc8185016127b2565b60808301526101206128cf8186016127b2565b60a08401526101406128e28187016127b2565b60c08501526101608087015160e086015261018080880151858701526101a0945084880151848701526101c0880151838701526101e088015182870152610200880151818701525050505061022084015181830152508091505092915050565b60006080828403121561295457600080fd5b6040516080810181811067ffffffffffffffff82111715612977576129776124aa565b8060405250809150825181526020830151602082015260408301516040820152606083015160608201525092915050565b6000608082840312156129ba57600080fd5b6120f88383612942565b6000602082840312156129d657600080fd5b5051919050565b808202811582820484141761058d5761058d6126f5565b600082612a2a577f4e487b7100000000000000000000000000000000000000000000000000000000600052601260045260246000fd5b500490565b7f4e487b7100000000000000000000000000000000000000000000000000000000600052603260045260246000fd5b60007fffffffffffffffffffffffffffffffffffffffffffffffffffffffffffffffff8203612a8f57612a8f6126f5565b5060010190565b8082018082111561058d5761058d6126f5565b600060c08284031215612abb57600080fd5b60405160c0810181811067ffffffffffffffff82111715612ade57612ade6124aa565b8060405250825181526020830151602082015260408301516040820152606083015160608201526080830151608082015260a083015160a0820152809150509291505056fea2646970667358221220f8f8e47362b57a7775cfb7fe9fe0c2df1d015baadb2e68e34f82a57cf57c29f764736f6c63430008150033",
  "devdoc": {
    "kind": "dev",
    "methods": {
      "estimateSwapIn(address,bool,uint256,uint256)": {
        "params": {
          "amountIn_": "The exact amount of input tokens to swap",
          "amountOutMin_": "The minimum amount of output tokens the user is willing to accept",
          "dex_": "Dex pool",
          "swap0to1_": "Direction of swap. If true, swaps token0 for token1; if false, swaps token1 for token0"
        },
        "returns": {
          "amountOut_": "The amount of output tokens received from the swap"
        }
      },
      "estimateSwapOut(address,bool,uint256,uint256)": {
        "params": {
          "amountInMax_": "Maximum amount of tokens to swap in",
          "amountOut_": "The exact amount of tokens to receive after swap",
          "dex_": "Dex pool",
          "swap0to1_": "Direction of swap. If true, swaps token0 for token1; if false, swaps token1 for token0"
        },
        "returns": {
          "amountIn_": "The amount of input tokens used for the swap"
        }
      },
      "getAllPoolAddresses()": {
        "returns": {
          "pools_": "An array containing all Pool addresses"
        }
      },
      "getAllPools()": {
        "returns": {
          "pools_": "An array containing all Pool data"
        }
      },
      "getAllPoolsReserves()": {
        "details": "expected to be called via callStatic",
        "returns": {
          "poolsReserves_": "An array containing all Pool data with reserves"
        }
      },
      "getAllPoolsReservesAdjusted()": {
        "details": "expected to be called via callStatic",
        "returns": {
          "poolsReserves_": "An array containing all Pool data with adjusted reserves scaled to 1e12"
        }
      },
      "getDexCollateralReserves(address)": {
        "details": "expected to be called via callStatic",
        "params": {
          "dex_": "The address of the DEX"
        },
        "returns": {
          "reserves_": "A struct containing collateral reserve information"
        }
      },
      "getDexCollateralReservesAdjusted(address)": {
        "details": "expected to be called via callStatic",
        "params": {
          "dex_": "The address of the DEX"
        },
        "returns": {
          "reserves_": "A struct containing collateral reserve information"
        }
      },
      "getDexDebtReserves(address)": {
        "details": "expected to be called via callStatic",
        "params": {
          "dex_": "The address of the DEX"
        },
        "returns": {
          "reserves_": "A struct containing debt reserve information"
        }
      },
      "getDexDebtReservesAdjusted(address)": {
        "details": "expected to be called via callStatic",
        "params": {
          "dex_": "The address of the DEX"
        },
        "returns": {
          "reserves_": "A struct containing debt reserve information"
        }
      },
      "getDexPricesAndExchangePrices(address)": {
        "details": "expected to be called via callStatic",
        "params": {
          "dex_": "The address of the DEX"
        },
        "returns": {
          "pex_": "A struct containing prices and exchange prices"
        }
      },
      "getPool(uint256)": {
        "params": {
          "poolId_": "The ID of the Pool"
        },
        "returns": {
          "pool_": "The Pool data"
        }
      },
      "getPoolAddress(uint256)": {
        "params": {
          "poolId_": "The ID of the Pool"
        },
        "returns": {
          "pool_": "The address of the Pool"
        }
      },
      "getPoolFee(address)": {
        "params": {
          "pool_": "The Pool address"
        },
        "returns": {
          "fee_": "The Pool fee as 1% = 10000"
        }
      },
      "getPoolReserves(address)": {
        "details": "expected to be called via callStatic",
        "params": {
          "pool_": "The Pool address"
        },
        "returns": {
          "poolReserves_": "The Pool data with reserves"
        }
      },
      "getPoolReservesAdjusted(address)": {
        "details": "expected to be called via callStatic",
        "params": {
          "pool_": "The Pool address"
        },
        "returns": {
          "poolReserves_": "The Pool data with adjusted reserves scaled to 1e12"
        }
      },
      "getPoolTokens(address)": {
        "params": {
          "pool_": "The address of the Pool"
        },
        "returns": {
          "token0_": "The address of token0 in the Pool",
          "token1_": "The address of token1 in the Pool"
        }
      },
      "getPoolsReserves(address[])": {
        "details": "expected to be called via callStatic",
        "params": {
          "pools_": "The array of Pool addresses"
        },
        "returns": {
          "poolsReserves_": "An array containing all Pool data with reserves"
        }
      },
      "getPoolsReservesAdjusted(address[])": {
        "details": "expected to be called via callStatic",
        "params": {
          "pools_": "The array of Pool addresses"
        },
        "returns": {
          "poolsReserves_": "An array containing all Pool data with adjusted reserves scaled to 1e12"
        }
      },
      "getTotalPools()": {
        "returns": {
          "_0": "The total number of Pools"
        }
      }
    },
    "version": 1
  },
  "userdoc": {
    "kind": "user",
    "methods": {
      "estimateSwapIn(address,bool,uint256,uint256)": {
        "notice": "estimates swap IN tokens execution"
      },
      "estimateSwapOut(address,bool,uint256,uint256)": {
        "notice": "estimates swap OUT tokens execution"
      },
      "getAllPoolAddresses()": {
        "notice": "Get an array of all Pool addresses"
      },
      "getAllPools()": {
        "notice": "Get an array of all Pool addresses and their token addresses"
      },
      "getAllPoolsReserves()": {
        "notice": "Get an array of all Pool addresses, their token addresses, collateral reserves, and debt reserves"
      },
      "getAllPoolsReservesAdjusted()": {
        "notice": "Get an array of all Pool addresses, their token addresses, adjusted collateral reserves, and adjusted debt reserves"
      },
      "getDexCollateralReserves(address)": {
        "notice": "Get the collateral reserves for a DEX in token decimals amounts"
      },
      "getDexCollateralReservesAdjusted(address)": {
        "notice": "Get the collateral reserves for a DEX scaled to 1e12"
      },
      "getDexDebtReserves(address)": {
        "notice": "Get the debt reserves for a DEX in token decimals amounts"
      },
      "getDexDebtReservesAdjusted(address)": {
        "notice": "Get the debt reserves for a DEX scaled to 1e12"
      },
      "getDexPricesAndExchangePrices(address)": {
        "notice": "Get the prices and exchange prices for a DEX"
      },
      "getPool(uint256)": {
        "notice": "Get a Pool's address and its token addresses"
      },
      "getPoolAddress(uint256)": {
        "notice": "Get the address of a Pool given its ID"
      },
      "getPoolConstantsView(address)": {
        "notice": "returns all Pool constants"
      },
      "getPoolConstantsView2(address)": {
        "notice": "returns all Pool constants 2"
      },
      "getPoolFee(address)": {
        "notice": "Get a Pool's fee"
      },
      "getPoolReserves(address)": {
        "notice": "Get the token addresses, collateral reserves, and debt reserves for a given Pool address"
      },
      "getPoolReservesAdjusted(address)": {
        "notice": "Get the token addresses, adjusted collateral reserves, and adjusted debt reserves for a given Pool address"
      },
      "getPoolTokens(address)": {
        "notice": "Get the addresses of the tokens in a Pool"
      },
      "getPoolsReserves(address[])": {
        "notice": "Get an array of Pool addresses, their token addresses, collateral reserves, and debt reserves for a given array of Pool addresses"
      },
      "getPoolsReservesAdjusted(address[])": {
        "notice": "Get an array of Pool addresses, their token addresses, adjusted collateral reserves, and adjusted debt reserves for a given array of Pool addresses"
      },
      "getTotalPools()": {
        "notice": "Get the total number of Pools"
      }
    },
    "notice": "Fluid Dex Reserves resolver Implements various view-only methods to give easy access to Dex protocol reserves data.",
    "version": 1
  },
  "storageLayout": {
    "storage": [],
    "types": null
  }
}