{
  "address": "0x14288700Dc560a3F26a81FF10AB19C8b75846c2D",
  "abi": [
    {
      "inputs": [
        {
          "internalType": "string",
          "name": "infoName_",
          "type": "string"
        },
        {
          "internalType": "address",
          "name": "dexPool_",
          "type": "address"
        },
        {
          "internalType": "bool",
          "name": "quoteInToken0_",
          "type": "bool"
        },
        {
          "internalType": "uint256",
          "name": "twapDuration_",
          "type": "uint256"
        },
        {
          "internalType": "contract IFluidOracle",
          "name": "colDebtOracle_",
          "type": "address"
        },
        {
          "internalType": "bool",
          "name": "colDebtInvert_",
          "type": "bool"
        },
        {
          "internalType": "uint8",
          "name": "colDebtDecimals_",
          "type": "uint8"
        },
        {
          "components": [
            {
              "internalType": "address",
              "name": "reservesConversionOracle",
              "type": "address"
            },
            {
              "internalType": "bool",
              "name": "reservesConversionInvert",
              "type": "bool"
            },
            {
              "internalType": "uint256",
              "name": "multiplier",
              "type": "uint256"
            },
            {
              "internalType": "uint256",
              "name": "divisor",
              "type": "uint256"
            }
          ],
          "internalType": "struct DexSmartColOracleImpl.ExternalPrice",
          "name": "externalPrice_",
          "type": "tuple"
        }
      ],
      "stateMutability": "nonpayable",
      "type": "constructor"
    },
    {
      "inputs": [
        {
          "internalType": "uint256",
          "name": "errorId_",
          "type": "uint256"
        }
      ],
      "name": "FluidLiquidityCalcsError",
      "type": "error"
    },
    {
      "inputs": [
        {
          "internalType": "uint256",
          "name": "errorId_",
          "type": "uint256"
        }
      ],
      "name": "FluidOracleError",
      "type": "error"
    },
    {
      "inputs": [],
      "name": "dexSmartColOracleData",
      "outputs": [
        {
          "internalType": "address",
          "name": "dexPool_",
          "type": "address"
        },
        {
          "internalType": "contract IFluidOracle",
          "name": "reservesConversionOracle_",
          "type": "address"
        },
        {
          "internalType": "bool",
          "name": "reservesConversionInvert_",
          "type": "bool"
        },
        {
          "internalType": "bool",
          "name": "quoteInToken0_",
          "type": "bool"
        },
        {
          "internalType": "uint256",
          "name": "dexTwapDuration_",
          "type": "uint256"
        },
        {
          "internalType": "uint8",
          "name": "dexSharesDecimals_",
          "type": "uint8"
        },
        {
          "internalType": "uint8",
          "name": "dexTokensDecimalsPrecision_",
          "type": "uint8"
        },
        {
          "internalType": "contract IFluidLiquidity",
          "name": "liquidity_",
          "type": "address"
        },
        {
          "internalType": "uint256",
          "name": "token0NumeratorPrecision_",
          "type": "uint256"
        },
        {
          "internalType": "uint256",
          "name": "token0DenominatorPrecision_",
          "type": "uint256"
        },
        {
          "internalType": "uint256",
          "name": "token1NumeratorPrecision_",
          "type": "uint256"
        },
        {
          "internalType": "uint256",
          "name": "token1DenominatorPrecision_",
          "type": "uint256"
        }
      ],
      "stateMutability": "view",
      "type": "function"
    },
    {
      "inputs": [],
      "name": "getDexSmartColOracleData",
      "outputs": [
        {
          "internalType": "address",
          "name": "colDebtOracle_",
          "type": "address"
        },
        {
          "internalType": "bool",
          "name": "colDebtInvert_",
          "type": "bool"
        },
        {
          "internalType": "uint8",
          "name": "colDebtDecimals_",
          "type": "uint8"
        }
      ],
      "stateMutability": "view",
      "type": "function"
    },
    {
      "inputs": [],
      "name": "getExchangeRate",
      "outputs": [
        {
          "internalType": "uint256",
          "name": "exchangeRate_",
          "type": "uint256"
        }
      ],
      "stateMutability": "view",
      "type": "function"
    },
    {
      "inputs": [],
      "name": "getExchangeRateLiquidate",
      "outputs": [
        {
          "internalType": "uint256",
          "name": "exchangeRate_",
          "type": "uint256"
        }
      ],
      "stateMutability": "view",
      "type": "function"
    },
    {
      "inputs": [],
      "name": "getExchangeRateOperate",
      "outputs": [
        {
          "internalType": "uint256",
          "name": "exchangeRate_",
          "type": "uint256"
        }
      ],
      "stateMutability": "view",
      "type": "function"
    },
    {
      "inputs": [],
      "name": "infoName",
      "outputs": [
        {
          "internalType": "string",
          "name": "",
          "type": "string"
        }
      ],
      "stateMutability": "view",
      "type": "function"
    }
  ],
  "transactionHash": "0xccf20ebdcbe6b35e1618af644d1432e7fc96e5788adbf4438f19d30090e035e6",
  "args": [
    [
      "USDC per 1 USDC/ETH colShare",
      "0x2886a01a0645390872a9eb99dAe1283664b0c524",
      true,
      300,
      "0x0000000000000000000000000000000000000000",
      false,
      18,
      {
        "reservesConversionOracle": "0x5b2860C6D6F888319C752aaCDaf8165C21095E3a",
        "reservesConversionInvert": true,
        "multiplier": 1000000000000,
        "divisor": 1
      }
    ]
  ],
  "numDeployments": 1,
  "linkedData": {
    "nonce": "39"
  },
  "bytecode": "0x6103406040523480156200001257600080fd5b5060405162002be338038062002be38339810160408190526200003591620003ee565b868686838b84806001600160a01b03166080816001600160a01b03168152505060006080516001600160a01b031663b7791bf26040518163ffffffff1660e01b815260040161024060405180830381865afa15801562000099573d6000803e3d6000fd5b505050506040513d601f19601f82011682018060405250810190620000bf9190620005ca565b61016081015161012090815261018082015161014090815260e08084015160a0529183015160c0526101008084015190925282015190526080805160408051631595cbd360e01b815290519394506000936001600160a01b0390921692631595cbd3926004808401938290030181865afa15801562000142573d6000803e3d6000fd5b505050506040513d601f19601f82011682018060405250810190620001689190620006c0565b8051610160526020808201516101805260408201516101a0526060909101516101c05284511192508291506200019f905057508051155b15620001c75760405163c82fc46560e01b815261ea6a60048201526024015b60405180910390fd5b602001516102a0526001600160a01b0384161580620001ee575080516001600160a01b0316155b80620001f8575081155b156200021c5760405163c82fc46560e01b815261ebab6004820152602401620001be565b9115156102205281516001600160a01b039081166101e0526020830151151561020052610240919091526040820151610260526060909101516102805285166102c052508215156102e05260ff82166103008190526200027f6012601b6200071f565b6200028b91906200073b565b6200029890600a6200084e565b6103205250620008639650505050505050565b634e487b7160e01b600052604160045260246000fd5b604051608081016001600160401b0381118282101715620002e657620002e6620002ab565b60405290565b6040516101c081016001600160401b0381118282101715620002e657620002e6620002ab565b604051601f8201601f191681016001600160401b03811182821017156200033d576200033d620002ab565b604052919050565b6001600160a01b03811681146200035b57600080fd5b50565b80516200036b8162000345565b919050565b805180151581146200036b57600080fd5b805160ff811681146200036b57600080fd5b600060808284031215620003a657600080fd5b620003b0620002c1565b90508151620003bf8162000345565b8152620003cf6020830162000370565b6020820152604082015160408201526060820151606082015292915050565b600080600080600080600080610160898b0312156200040c57600080fd5b88516001600160401b03808211156200042457600080fd5b818b0191508b601f8301126200043957600080fd5b8151818111156200044e576200044e620002ab565b6020915062000466601f8201601f1916830162000312565b8181528d838386010111156200047b57600080fd5b60005b828110156200049b5784810184015182820185015283016200047e565b506000838383010152809b505050620004b6818c016200035e565b98505050620004c860408a0162000370565b955060608901519450620004df60808a016200035e565b9350620004ef60a08a0162000370565b9250620004ff60c08a0162000381565b9150620005108a60e08b0162000393565b90509295985092959890939650565b600060a082840312156200053257600080fd5b60405160a081016001600160401b0381118282101715620005575762000557620002ab565b806040525080915082516200056c8162000345565b815260208301516200057e8162000345565b60208201526040830151620005938162000345565b60408201526060830151620005a88162000345565b60608201526080830151620005bd8162000345565b6080919091015292915050565b60006102408284031215620005de57600080fd5b620005e8620002ec565b82518152620005fa602084016200035e565b60208201526200060d604084016200035e565b60408201526200062184606085016200051f565b6060820152610100620006368185016200035e565b60808301526101206200064b8186016200035e565b60a0840152610140620006608187016200035e565b60c08501526101608087015160e086015261018080880151858701526101a0945084880151848701526101c0880151838701526101e088015182870152610200880151818701525050505061022084015181830152508091505092915050565b600060808284031215620006d357600080fd5b620006dd620002c1565b825181526020830151602082015260408301516040820152606083015160608201528091505092915050565b634e487b7160e01b600052601160045260246000fd5b8082018082111562000735576200073562000709565b92915050565b8181038181111562000735576200073562000709565b600181815b808511156200079257816000190482111562000776576200077662000709565b808516156200078457918102915b93841c939080029062000756565b509250929050565b600082620007ab5750600162000735565b81620007ba5750600062000735565b8160018114620007d35760028114620007de57620007fe565b600191505062000735565b60ff841115620007f257620007f262000709565b50506001821b62000735565b5060208310610133831016604e8410600b841016171562000823575081810a62000735565b6200082f838362000751565b806000190482111562000846576200084662000709565b029392505050565b60006200085c83836200079a565b9392505050565b60805160a05160c05160e05161010051610120516101405161016051610180516101a0516101c0516101e05161020051610220516102405161026051610280516102a0516102c0516102e05161030051610320516121c862000a1b60003960005050600060bb015260008181609a015261063f0152600081816079015281816104c70152818161051a01526105ae015260008181610345015261040a0152600081816106910152818161079a01528181610a3c0152610ac40152600081816106b2015281816107bb01528181610a180152610aa0015260006101f80152600081816101d001526109cf0152600081816101a6015261086c01526000818161017f015281816106d301526107dc0152600081816102bb0152818161099c0152611c2e0152600081816102940152818161097b0152611c4f01526000818161026d015281816109480152611c85015260008181610246015281816109270152611ca6015260006112ce0152600061120e0152600050506000505060006113940152600061136401526000818161015a01528181610b7101528181610d3101528181610de60152818161164b015261176101526121c86000f3fe608060405234801561001057600080fd5b50600436106100725760003560e01c8063d223f01711610050578063d223f0171461013f578063e6aa216c146102e9578063f3190c89146102f157600080fd5b80631bb2f2a6146100775780638e7bfbc014610114578063abd5f95d1461012a575b600080fd5b7f00000000000000000000000000000000000000000000000000000000000000007f00000000000000000000000000000000000000000000000000000000000000007f00000000000000000000000000000000000000000000000000000000000000006040805173ffffffffffffffffffffffffffffffffffffffff9094168452911515602084015260ff16908201526060015b60405180910390f35b61011c6102f9565b60405190815260200161010b565b610132610333565b60405161010b9190611e6f565b6040805173ffffffffffffffffffffffffffffffffffffffff7f0000000000000000000000000000000000000000000000000000000000000000811682527f00000000000000000000000000000000000000000000000000000000000000001660208201527f00000000000000000000000000000000000000000000000000000000000000001515918101919091527f0000000000000000000000000000000000000000000000000000000000000000151560608201527f00000000000000000000000000000000000000000000000000000000000000006080820152601260a0820152600c60c08201527352aa899454998be5b000ad077a46bbe360f4e49760e08201527f00000000000000000000000000000000000000000000000000000000000000006101008201527f00000000000000000000000000000000000000000000000000000000000000006101208201527f00000000000000000000000000000000000000000000000000000000000000006101408201527f00000000000000000000000000000000000000000000000000000000000000006101608201526101800161010b565b61011c610498565b61011c6104a2565b60006b033b2e3c9fd0803ce800000061031260016104c3565b61031a61068c565b6103249190611f0a565b61032e9190611f56565b905090565b606060005b60208110801561039e57507f0000000000000000000000000000000000000000000000000000000000000000816020811061037557610375611f91565b1a60f81b7fff000000000000000000000000000000000000000000000000000000000000001615155b156103b557806103ad81611fc0565b915050610338565b60008167ffffffffffffffff8111156103d0576103d0611ff8565b6040519080825280601f01601f1916602001820160405280156103fa576020820181803683370190505b50905060005b82811015610491577f0000000000000000000000000000000000000000000000000000000000000000816020811061043a5761043a611f91565b1a60f81b82828151811061045057610450611f91565b60200101907effffffffffffffffffffffffffffffffffffffffffffffffffffffffffffff1916908160001a9053508061048981611fc0565b915050610400565b5092915050565b600061032e6102f9565b60006b033b2e3c9fd0803ce80000006104bb60006104c3565b61031a610795565b60007f000000000000000000000000000000000000000000000000000000000000000073ffffffffffffffffffffffffffffffffffffffff1661051357506b033b2e3c9fd0803ce8000000919050565b816105ac577f000000000000000000000000000000000000000000000000000000000000000073ffffffffffffffffffffffffffffffffffffffff1663f3190c896040518163ffffffff1660e01b8152600401602060405180830381865afa158015610583573d6000803e3d6000fd5b505050506040513d601f19601f820116820180604052508101906105a79190612027565b61063b565b7f000000000000000000000000000000000000000000000000000000000000000073ffffffffffffffffffffffffffffffffffffffff16638e7bfbc06040518163ffffffff1660e01b8152600401602060405180830381865afa158015610617573d6000803e3d6000fd5b505050506040513d601f19601f8201168201806040525081019061063b9190612027565b90507f0000000000000000000000000000000000000000000000000000000000000000156106875761068481760a70c3c40a64e6c51999090b65f67d9240000000000000611f56565b90505b919050565b6000807f00000000000000000000000000000000000000000000000000000000000000007f00000000000000000000000000000000000000000000000000000000000000007f000000000000000000000000000000000000000000000000000000000000000073ffffffffffffffffffffffffffffffffffffffff16638e7bfbc06040518163ffffffff1660e01b8152600401602060405180830381865afa15801561073c573d6000803e3d6000fd5b505050506040513d601f19601f820116820180604052508101906107609190612027565b61076a9190611f0a565b6107749190611f56565b90506000610783600083610845565b905061078e81610b2b565b9250505090565b6000807f00000000000000000000000000000000000000000000000000000000000000007f00000000000000000000000000000000000000000000000000000000000000007f000000000000000000000000000000000000000000000000000000000000000073ffffffffffffffffffffffffffffffffffffffff1663f3190c896040518163ffffffff1660e01b8152600401602060405180830381865afa15801561073c573d6000803e3d6000fd5b60006108536012601b612040565b61085e90600a612173565b6108689084611f0a565b92507f0000000000000000000000000000000000000000000000000000000000000000156108b4576108b182760a70c3c40a64e6c51999090b65f67d9240000000000000611f56565b91505b600083158015906108c457508284105b6108ce57826108d0565b835b905080600003610915576040517fc82fc46500000000000000000000000000000000000000000000000000000000815261ebad60048201526024015b60405180910390fd5b60008061092183610c5a565b915091507f00000000000000000000000000000000000000000000000000000000000000007f000000000000000000000000000000000000000000000000000000000000000083028161097657610976611f27565b0491507f00000000000000000000000000000000000000000000000000000000000000007f00000000000000000000000000000000000000000000000000000000000000008202816109ca576109ca611f27565b0490507f000000000000000000000000000000000000000000000000000000000000000015610a9e57610a1483760a70c3c40a64e6c51999090b65f67d9240000000000000611f56565b92507f0000000000000000000000000000000000000000000000000000000000000000610a617f000000000000000000000000000000000000000000000000000000000000000085611f0a565b610a6b9190611f56565b9250610a79601b600a612173565b610a838483611f0a565b610a8d9190611f56565b610a97908361217f565b9350610b22565b7f0000000000000000000000000000000000000000000000000000000000000000610ae97f000000000000000000000000000000000000000000000000000000000000000085611f0a565b610af39190611f56565b9250610b01601b600a612173565b610b0b8484611f0a565b610b159190611f56565b610b1f908261217f565b93505b50505092915050565b6040517fb5c736e40000000000000000000000000000000000000000000000000000000081526002600482015260009081906fffffffffffffffffffffffffffffffff907f000000000000000000000000000000000000000000000000000000000000000073ffffffffffffffffffffffffffffffffffffffff169063b5c736e490602401602060405180830381865afa158015610bcd573d6000803e3d6000fd5b505050506040513d601f19601f82011682018060405250810190610bf19190612027565b16905080600003610c32576040517fc82fc46500000000000000000000000000000000000000000000000000000000815261ebac600482015260240161090c565b80610c49846b033b2e3c9fd0803ce8000000611f0a565b610c539190611f56565b9392505050565b6000806000610c67610cb0565b90506000610c8c8260800151836040015184606001518560a001518660e00151611332565b90506000610c9b83838861146d565b80516020909101519097909650945050505050565b610cff6040518061012001604052806000815260200160008152602001600081526020016000815260200160008152602001600081526020016000815260200160008152602001600081525090565b6040517fb5c736e4000000000000000000000000000000000000000000000000000000008152600060048201819052907f000000000000000000000000000000000000000000000000000000000000000073ffffffffffffffffffffffffffffffffffffffff169063b5c736e490602401602060405180830381865afa158015610d8d573d6000803e3d6000fd5b505050506040513d601f19601f82011682018060405250810190610db19190612027565b6040517fb5c736e4000000000000000000000000000000000000000000000000000000008152600160048201529091506000907f000000000000000000000000000000000000000000000000000000000000000073ffffffffffffffffffffffffffffffffffffffff169063b5c736e490602401602060405180830381865afa158015610e42573d6000803e3d6000fd5b505050506040513d601f19601f82011682018060405250810190610e669190612027565b9050600060f882901c600116600003610ea857633fffffff607083901c16905080600003610ea8575063ffffffff605983901c1660ff605184901c161b610f56565b6040517f08c379a000000000000000000000000000000000000000000000000000000000815260206004820152604d60248201527f507269636573416e6445786368616e67655072696365733a2063656e7465722060448201527f70726963652073686f756c64206e6f742062652070656767656420746f20657860648201527f7465726e616c20736f7572636500000000000000000000000000000000000000608482015260a40161090c565b63ffffffff603184901c1660ff602985901c161b601b83901c620fffff90811690602f85901c166001601a86901c81169003610f9f57610f978282876115ec565b965090925090505b81620f424003620f4240850281610fb857610fb8611f27565b049150620f42409081038402046000620fffff604487901c16156110be57604486901c6103ff90811690604e88901c16605888901c62ffffff16600160438a901c811690036110145761100c838383611746565b919450925090505b6103e8888703848203020488018711156110695760798a901c6401ffffffff1642038181101561105b5781818a8903028161105157611051611f27565b048901985061105f565b8698505b60019450506110ba565b6103e8858903838203020488038710156110ba5760798a901c6401ffffffff164203818110156110b0578181878b0302816110a6576110a6611f27565b04890398506110b4565b8598505b60019450505b5050505b620fffff60b487901c1660ff60ac88901c161b808611156110e55780955060019150611109565b50620fffff60d087901c1660ff60c888901c161b8086101561110957809550600191505b811561117257620fffff601b88901c169350620fffff602f88901c169250601a87901c600116600103611149576111418484896115ec565b985090945092505b83620f424003620f424087028161116257611162611f27565b049350620f424083810387020492505b8489526020890186905260408901849052606089018390526f4b3b4ca85a86c47a098a2240000000008410156111b7576111ad83850261189d565b60808a01526111e6565b6111d6670de0b6b3a76400008404670de0b6b3a764000086040261189d565b670de0b6b3a76400000260808a01525b6040517fb5c736e40000000000000000000000000000000000000000000000000000000081527f0000000000000000000000000000000000000000000000000000000000000000600482015261129c907352aa899454998be5b000ad077a46bbe360f4e4979063b5c736e4906024015b602060405180830381865afa158015611273573d6000803e3d6000fd5b505050506040513d601f19601f820116820180604052508101906112979190612027565b61194f565b60c08b015260a08a01526040517fb5c736e40000000000000000000000000000000000000000000000000000000081527f0000000000000000000000000000000000000000000000000000000000000000600482015261131a907352aa899454998be5b000ad077a46bbe360f4e4979063b5c736e490602401611256565b6101008b015260e08a01525096979650505050505050565b61135d6040518060800160405280600081526020016000815260200160008152602001600081525090565b600061138b7f0000000000000000000000000000000000000000000000000000000000000000856001611b5d565b905060006113bb7f0000000000000000000000000000000000000000000000000000000000000000856000611b5d565b90506b033b2e3c9fd0803ce80000008810156113ec576113dd88888484611cdf565b60608501526040840152611443565b61143861141089760a70c3c40a64e6c51999090b65f67d9240000000000000611f56565b61143188760a70c3c40a64e6c51999090b65f67d9240000000000000611f56565b8385611cdf565b604085015260608401525b81835260208301819052604083018051909201909152606082018051909101905295945050505050565b6114986040518060800160405280600081526020016000815260200160008152602001600081525090565b6000836060015184604001516114ae9190611f0a565b90506000846000015185604001516114c69190612040565b90506000856020015186606001516114de9190612040565b90506000808689604001511015611503578391506114fc8286611f56565b90506115b9565b868960600151111561152257508161151b8186611f56565b91506115b9565b74446c3b15f9926687d2c40534fdb56400000000000085101561156f5761156887611559876b033b2e3c9fd0803ce8000000611f0a565b6115639190611f56565b61189d565b9150611595565b61159261157c8887611f56565b611563906b033b2e3c9fd0803ce8000000611f0a565b91505b6b033b2e3c9fd0803ce80000006115ac8389611f0a565b6115b69190611f56565b90505b6115c38483612040565b86526115cf8382612040565b602087015260408601919091526060850152509195945050505050565b6040517fb5c736e4000000000000000000000000000000000000000000000000000000008152600760048201526000908190819081906fffffffffffffffffffffffffffffffff9073ffffffffffffffffffffffffffffffffffffffff7f0000000000000000000000000000000000000000000000000000000000000000169063b5c736e490602401602060405180830381865afa158015611692573d6000803e3d6000fd5b505050506040513d601f19601f820116820180604052508101906116b69190612027565b169050620fffff80821690601483901c811690602884901c16603c84901c6401ffffffff16426116e6838361217f565b101561170957630400000019891698508a8a8a975097509750505050505061173d565b60006117158242612040565b90506117238c868386611df6565b61172f8c868487611df6565b8b9850985098505050505050505b93509350939050565b6000806000806fffffffffffffffffffffffffffffffff60807f000000000000000000000000000000000000000000000000000000000000000073ffffffffffffffffffffffffffffffffffffffff1663b5c736e4600760001b6040518263ffffffff1660e01b81526004016117be91815260200190565b602060405180830381865afa1580156117db573d6000803e3d6000fd5b505050506040513d601f19601f820116820180604052508101906117ff9190612027565b901c169050620fffff80821690601483901c811690602884901c16603c84901c6401ffffffff16605d85901c62ffffff164261183b848461217f565b1015611855578b8b8b98509850985050505050505061173d565b60006118618342612040565b905061186f8d878387611df6565b61187b8d878488611df6565b6118878d858589611df6565b9950995099505050505050505093509350939050565b60b5817101000000000000000000000000000000000081106118c45760409190911b9060801c5b690100000000000000000081106118e05760209190911b9060401c5b6501000000000081106118f85760109190911b9060201c5b6301000000811061190e5760089190911b9060101c5b62010000010260121c80820401600190811c80830401811c80830401811c80830401811c80830401811c80830401811c80830401901c908190048111900390565b67ffffffffffffffff605b82901c811690609b83901c16811580611971575080155b156119ad576040517fd50d751200000000000000000000000000000000000000000000000000000000815262011171600482015260240161090c565b61ffff8316603a84901c6401ffffffff16428181039160ea87901c617fff169114806119d7575082155b806119e25750806001145b156119ef57505050915091565b64496cebb80084840283020484019350617fff60db87901c16925082600103611a1a57505050915091565b82600116600103611a6f5760019290921c91826c7e37be2022c0914b268000000081611a4857611a48611f27565b049250612710601e87901c613fff166b033b2e3c9fd0803ce8000000850102049250611a9c565b60019290921c916305f5e100601e87901c613fff166127108501026b033b2e3c9fd0803ce8000000020492505b80600116600103611ad35760011c61271081016b033b2e3c9fd0803ce8000000820281611acb57611acb611f27565b049050611b09565b60011c61271081016b033b2e3c9fd0803ce8000000820281611af757611af7611f27565b046b033b2e3c9fd0803ce80000000390505b760a70c3c40a64e6c51999090b65f67d92400000000000008382026127100261ffff881691900402601087901c613fff16612710030292506801b5a660ea44b8000085840283020485019450505050915091565b6040517fb5c736e40000000000000000000000000000000000000000000000000000000081526004810184905260009081907352aa899454998be5b000ad077a46bbe360f4e4979063b5c736e490602401602060405180830381865afa158015611bcb573d6000803e3d6000fd5b505050506040513d601f19601f82011682018060405250810190611bef9190612027565b905067ffffffffffffffff600182901c16915060ff8216600883901c901b915080600116600103611c275764e8d4a510008285020491505b82611c83577f00000000000000000000000000000000000000000000000000000000000000007f0000000000000000000000000000000000000000000000000000000000000000830281611c7d57611c7d611f27565b04611cd6565b7f00000000000000000000000000000000000000000000000000000000000000007f0000000000000000000000000000000000000000000000000000000000000000830281611cd457611cd4611f27565b045b95945050505050565b60008080611ced8787612040565b90506000611cfc826002611f0a565b611d12866b033b2e3c9fd0803ce8000000611f0a565b611d1c888b611f0a565b611d26919061217f565b611d309190611f56565b90506000611d3e8688611f0a565b905074446c3b15f9926687d2c40534fdb5640000000000008110611d8157611d668382611f56565b611d7c906b033b2e3c9fd0803ce8000000611f0a565b611da2565b82611d98826b033b2e3c9fd0803ce8000000611f0a565b611da29190611f56565b9050611dbb611db18380611f0a565b611563908361217f565b611dc5908361217f565b94506b033b2e3c9fd0803ce8000000611dde8a87611f0a565b611de89190611f56565b935050505094509492505050565b600083851115611e35576000611e0c8587612040565b905082611e198583611f0a565b611e239190611f56565b611e2d908661217f565b955050611e66565b6000611e418686612040565b905082611e4e8583611f0a565b611e589190611f56565b611e629086612040565b9550505b50929392505050565b600060208083528351808285015260005b81811015611e9c57858101830151858201604001528201611e80565b5060006040828601015260407fffffffffffffffffffffffffffffffffffffffffffffffffffffffffffffffe0601f8301168501019250505092915050565b7f4e487b7100000000000000000000000000000000000000000000000000000000600052601160045260246000fd5b8082028115828204841417611f2157611f21611edb565b92915050565b7f4e487b7100000000000000000000000000000000000000000000000000000000600052601260045260246000fd5b600082611f8c577f4e487b7100000000000000000000000000000000000000000000000000000000600052601260045260246000fd5b500490565b7f4e487b7100000000000000000000000000000000000000000000000000000000600052603260045260246000fd5b60007fffffffffffffffffffffffffffffffffffffffffffffffffffffffffffffffff8203611ff157611ff1611edb565b5060010190565b7f4e487b7100000000000000000000000000000000000000000000000000000000600052604160045260246000fd5b60006020828403121561203957600080fd5b5051919050565b81810381811115611f2157611f21611edb565b600181815b808511156120ac57817fffffffffffffffffffffffffffffffffffffffffffffffffffffffffffffffff0482111561209257612092611edb565b8085161561209f57918102915b93841c9390800290612058565b509250929050565b6000826120c357506001611f21565b816120d057506000611f21565b81600181146120e657600281146120f05761210c565b6001915050611f21565b60ff84111561210157612101611edb565b50506001821b611f21565b5060208310610133831016604e8410600b841016171561212f575081810a611f21565b6121398383612053565b807fffffffffffffffffffffffffffffffffffffffffffffffffffffffffffffffff0482111561216b5761216b611edb565b029392505050565b6000610c5383836120b4565b80820180821115611f2157611f21611edb56fea2646970667358221220638456a852ba9408b213b26d7c9262bcb30a3ae6dbff3afde07145c5dbebd3bf64736f6c63430008150033"
}