{
  "address": "0x9c9cad6Dd23fbDCdA3348726c306bAF20c428c4C",
  "abi": [
    {
      "inputs": [
        {
          "components": [
            {
              "internalType": "string",
              "name": "infoName",
              "type": "string"
            },
            {
              "internalType": "address",
              "name": "dexPool",
              "type": "address"
            },
            {
              "internalType": "bool",
              "name": "quoteInToken0",
              "type": "bool"
            },
            {
              "components": [
                {
                  "internalType": "uint8",
                  "name": "hops",
                  "type": "uint8"
                },
                {
                  "components": [
                    {
                      "internalType": "contract IChainlinkAggregatorV3",
                      "name": "feed",
                      "type": "address"
                    },
                    {
                      "internalType": "bool",
                      "name": "invertRate",
                      "type": "bool"
                    },
                    {
                      "internalType": "uint256",
                      "name": "token0Decimals",
                      "type": "uint256"
                    }
                  ],
                  "internalType": "struct ChainlinkStructs.ChainlinkFeedData",
                  "name": "feed1",
                  "type": "tuple"
                },
                {
                  "components": [
                    {
                      "internalType": "contract IChainlinkAggregatorV3",
                      "name": "feed",
                      "type": "address"
                    },
                    {
                      "internalType": "bool",
                      "name": "invertRate",
                      "type": "bool"
                    },
                    {
                      "internalType": "uint256",
                      "name": "token0Decimals",
                      "type": "uint256"
                    }
                  ],
                  "internalType": "struct ChainlinkStructs.ChainlinkFeedData",
                  "name": "feed2",
                  "type": "tuple"
                },
                {
                  "components": [
                    {
                      "internalType": "contract IChainlinkAggregatorV3",
                      "name": "feed",
                      "type": "address"
                    },
                    {
                      "internalType": "bool",
                      "name": "invertRate",
                      "type": "bool"
                    },
                    {
                      "internalType": "uint256",
                      "name": "token0Decimals",
                      "type": "uint256"
                    }
                  ],
                  "internalType": "struct ChainlinkStructs.ChainlinkFeedData",
                  "name": "feed3",
                  "type": "tuple"
                }
              ],
              "internalType": "struct ChainlinkStructs.ChainlinkConstructorParams",
              "name": "reservesConversion",
              "type": "tuple"
            },
            {
              "internalType": "uint256",
              "name": "reservesConversionPriceMultiplier",
              "type": "uint256"
            },
            {
              "internalType": "uint256",
              "name": "reservesConversionPriceDivisor",
              "type": "uint256"
            },
            {
              "internalType": "uint256",
              "name": "resultMultiplier",
              "type": "uint256"
            },
            {
              "internalType": "uint256",
              "name": "resultDivisor",
              "type": "uint256"
            }
          ],
          "internalType": "struct DexSmartT4CLOracle.DexSmartT4CLOracleParams",
          "name": "params_",
          "type": "tuple"
        }
      ],
      "stateMutability": "nonpayable",
      "type": "constructor"
    },
    {
      "inputs": [
        {
          "internalType": "uint256",
          "name": "errorId_",
          "type": "uint256"
        }
      ],
      "name": "FluidLiquidityCalcsError",
      "type": "error"
    },
    {
      "inputs": [
        {
          "internalType": "uint256",
          "name": "errorId_",
          "type": "uint256"
        }
      ],
      "name": "FluidOracleError",
      "type": "error"
    },
    {
      "inputs": [],
      "name": "chainlinkOracleData",
      "outputs": [
        {
          "internalType": "uint256",
          "name": "chainlinkExchangeRate_",
          "type": "uint256"
        },
        {
          "internalType": "contract IChainlinkAggregatorV3",
          "name": "chainlinkFeed1_",
          "type": "address"
        },
        {
          "internalType": "bool",
          "name": "chainlinkInvertRate1_",
          "type": "bool"
        },
        {
          "internalType": "uint256",
          "name": "chainlinkExchangeRate1_",
          "type": "uint256"
        },
        {
          "internalType": "contract IChainlinkAggregatorV3",
          "name": "chainlinkFeed2_",
          "type": "address"
        },
        {
          "internalType": "bool",
          "name": "chainlinkInvertRate2_",
          "type": "bool"
        },
        {
          "internalType": "uint256",
          "name": "chainlinkExchangeRate2_",
          "type": "uint256"
        },
        {
          "internalType": "contract IChainlinkAggregatorV3",
          "name": "chainlinkFeed3_",
          "type": "address"
        },
        {
          "internalType": "bool",
          "name": "chainlinkInvertRate3_",
          "type": "bool"
        },
        {
          "internalType": "uint256",
          "name": "chainlinkExchangeRate3_",
          "type": "uint256"
        }
      ],
      "stateMutability": "view",
      "type": "function"
    },
    {
      "inputs": [],
      "name": "dexOracleData",
      "outputs": [
        {
          "internalType": "address",
          "name": "dexPool_",
          "type": "address"
        },
        {
          "internalType": "bool",
          "name": "quoteInToken0_",
          "type": "bool"
        },
        {
          "internalType": "address",
          "name": "liquidity_",
          "type": "address"
        },
        {
          "internalType": "uint256",
          "name": "resultMultiplier_",
          "type": "uint256"
        },
        {
          "internalType": "uint256",
          "name": "resultDivisor_",
          "type": "uint256"
        }
      ],
      "stateMutability": "view",
      "type": "function"
    },
    {
      "inputs": [],
      "name": "dexSmartColSharesRates",
      "outputs": [
        {
          "internalType": "uint256",
          "name": "operate_",
          "type": "uint256"
        },
        {
          "internalType": "uint256",
          "name": "liquidate_",
          "type": "uint256"
        }
      ],
      "stateMutability": "view",
      "type": "function"
    },
    {
      "inputs": [],
      "name": "dexSmartDebtSharesRates",
      "outputs": [
        {
          "internalType": "uint256",
          "name": "operate_",
          "type": "uint256"
        },
        {
          "internalType": "uint256",
          "name": "liquidate_",
          "type": "uint256"
        }
      ],
      "stateMutability": "view",
      "type": "function"
    },
    {
      "inputs": [],
      "name": "getDexConversionPriceFluidOracleData",
      "outputs": [
        {
          "internalType": "uint256",
          "name": "reservesConversionPriceMultiplier_",
          "type": "uint256"
        },
        {
          "internalType": "uint256",
          "name": "reservesConversionPriceDivisor_",
          "type": "uint256"
        }
      ],
      "stateMutability": "view",
      "type": "function"
    },
    {
      "inputs": [],
      "name": "getExchangeRate",
      "outputs": [
        {
          "internalType": "uint256",
          "name": "exchangeRate_",
          "type": "uint256"
        }
      ],
      "stateMutability": "view",
      "type": "function"
    },
    {
      "inputs": [],
      "name": "getExchangeRateLiquidate",
      "outputs": [
        {
          "internalType": "uint256",
          "name": "exchangeRate_",
          "type": "uint256"
        }
      ],
      "stateMutability": "view",
      "type": "function"
    },
    {
      "inputs": [],
      "name": "getExchangeRateOperate",
      "outputs": [
        {
          "internalType": "uint256",
          "name": "exchangeRate_",
          "type": "uint256"
        }
      ],
      "stateMutability": "view",
      "type": "function"
    },
    {
      "inputs": [],
      "name": "infoName",
      "outputs": [
        {
          "internalType": "string",
          "name": "",
          "type": "string"
        }
      ],
      "stateMutability": "view",
      "type": "function"
    }
  ],
  "transactionHash": "0x9cea1679f949eea57d845df69f798c6ac9fef8606c2c2bfd522cf8ccee56d3ac",
  "args": [
    [
      {
        "dexPool": "0x836951EB21F3Df98273517B7249dCEFF270d34bf",
        "quoteInToken0": false,
        "infoName": "USDC/ETH dbtSh. per 1 colSh.",
        "reservesConversion": {
          "hops": 1,
          "feed1": {
            "feed": "0x986b5e1e1755e3c2440e960477f25201b0a8bbd4",
            "invertRate": false,
            "token0Decimals": 6
          },
          "feed2": {
            "feed": "0x0000000000000000000000000000000000000000",
            "invertRate": false,
            "token0Decimals": 0
          },
          "feed3": {
            "feed": "0x0000000000000000000000000000000000000000",
            "invertRate": false,
            "token0Decimals": 0
          }
        },
        "reservesConversionPriceMultiplier": 1,
        "reservesConversionPriceDivisor": 1000000000000,
        "resultMultiplier": 1,
        "resultDivisor": 1
      }
    ]
  ],
  "numDeployments": 1,
  "linkedData": {
    "nonce": "60"
  },
  "bytecode": "0x6104406040523480156200001257600080fd5b5060405162003b4338038062003b438339810160408190526200003591620007fa565b80602001518160400151826060015183608001518460a0015182858588600001518960c001518a60e001518160001462000070578162000073565b60015b608052801562000084578062000087565b60015b60a05250508051602010806200009c57508051155b15620000c45760405163c82fc46560e01b815261ea6a60048201526024015b60405180910390fd5b6020015160c0526001600160a01b038216620000f85760405163c82fc46560e01b815261ebdd6004820152602401620000bb565b6001600160a01b03821660e08190528115156101005260408051635bbc8df960e11b815290516000929163b7791bf2916004808301926102409291908290030181865afa1580156200014e573d6000803e3d6000fd5b505050506040513d601f19601f8201168201806040525081019062000174919062000980565b610160808201516101a052610180808301516101c05260e0808401516101209081528401516101409081526101008501519093529183015190525160408051631595cbd360e01b815290519293506000926001600160a01b0390921691631595cbd3916004808201926080929091908290030181865afa158015620001fd573d6000803e3d6000fd5b505050506040513d601f19601f8201168201806040525081019062000223919062000a76565b80516101e052602081015161020052604081015161022052606001516102405250506101005191506200029190505761022051610240516200026b9064e8d4a5100062000ad5565b62000277919062000af5565b6200028b90670de0b6b3a764000062000af5565b620002ca565b6101e05161020051620002aa9064e8d4a5100062000ad5565b620002b6919062000af5565b620002ca90670de0b6b3a764000062000af5565b610260528051600160ff9091161080620002eb57506003816000015160ff16115b806200031457506020810151516001600160a01b03161580620003145750602081015160400151155b806200034f57506001816000015160ff161180156200034f57506040810151516001600160a01b031615806200034f57506040808201510151155b806200038b57506002816000015160ff161180156200038b57506060810151516001600160a01b031615806200038b5750606081015160400151155b15620003af5760405163c82fc46560e01b815261ee496004820152602401620000bb565b60208082018051516001600160a01b0390811661028052604080850180515183166102a052606086018051519093166102c052835185015115156102e052518401511515610300529051909201511515610320525101516200041390601b62000b18565b6200042090600a62000c2b565b610340526020810151604001516200043a90601b62000c40565b6200044790600a62000c2b565b610360528051600160ff909116116200046257600162000484565b60408082015101516200047790601b62000b18565b6200048490600a62000c2b565b610380528051600160ff909116116200049f576001620004c1565b6040808201510151620004b490601b62000c40565b620004c190600a62000c2b565b6103a0528051600260ff90911611620004dc576001620004ff565b606081015160400151620004f290601b62000b18565b620004ff90600a62000c2b565b6103c0528051600260ff909116116200051a5760016200053d565b6060810151604001516200053090601b62000c40565b6200053d90600a62000c2b565b6103e052508115806200054e575080155b15620005725760405163c82fc46560e01b815261ebdd6004820152602401620000bb565b61040091909152610420525062000c5692505050565b634e487b7160e01b600052604160045260246000fd5b604051608081016001600160401b0381118282101715620005c357620005c362000588565b60405290565b60405161010081016001600160401b0381118282101715620005c357620005c362000588565b6040516101c081016001600160401b0381118282101715620005c357620005c362000588565b604051601f8201601f191681016001600160401b038111828210171562000640576200064062000588565b604052919050565b600082601f8301126200065a57600080fd5b81516001600160401b0381111562000676576200067662000588565b60206200068c601f8301601f1916820162000615565b8281528582848701011115620006a157600080fd5b60005b83811015620006c1578581018301518282018401528201620006a4565b506000928101909101919091529392505050565b6001600160a01b0381168114620006eb57600080fd5b50565b8051620006fb81620006d5565b919050565b80518015158114620006fb57600080fd5b6000606082840312156200072457600080fd5b604051606081016001600160401b038111828210171562000749576200074962000588565b806040525080915082516200075e81620006d5565b81526200076e6020840162000700565b6020820152604083015160408201525092915050565b600061014082840312156200079857600080fd5b620007a26200059e565b9050815160ff81168114620007b657600080fd5b8152620007c7836020840162000711565b6020820152620007db836080840162000711565b6040820152620007ef8360e0840162000711565b606082015292915050565b6000602082840312156200080d57600080fd5b81516001600160401b03808211156200082557600080fd5b9083019061022082860312156200083b57600080fd5b62000845620005c9565b8251828111156200085557600080fd5b620008638782860162000648565b8252506200087460208401620006ee565b6020820152620008876040840162000700565b60408201526200089b866060850162000784565b60608201526101a083015160808201526101c083015160a08201526101e083015160c08201526102009092015160e0830152509392505050565b600060a08284031215620008e857600080fd5b60405160a081016001600160401b03811182821017156200090d576200090d62000588565b806040525080915082516200092281620006d5565b815260208301516200093481620006d5565b602082015260408301516200094981620006d5565b604082015260608301516200095e81620006d5565b606082015260808301516200097381620006d5565b6080919091015292915050565b600061024082840312156200099457600080fd5b6200099e620005ef565b82518152620009b060208401620006ee565b6020820152620009c360408401620006ee565b6040820152620009d78460608501620008d5565b6060820152610100620009ec818501620006ee565b608083015261012062000a01818601620006ee565b60a084015261014062000a16818701620006ee565b60c08501526101608087015160e086015261018080880151858701526101a0945084880151848701526101c0880151838701526101e088015182870152610200880151818701525050505061022084015181830152508091505092915050565b60006080828403121562000a8957600080fd5b62000a936200059e565b825181526020830151602082015260408301516040820152606083015160608201528091505092915050565b634e487b7160e01b600052601160045260246000fd5b808202811582820484141762000aef5762000aef62000abf565b92915050565b60008262000b1357634e487b7160e01b600052601260045260246000fd5b500490565b8181038181111562000aef5762000aef62000abf565b600181815b8085111562000b6f57816000190482111562000b535762000b5362000abf565b8085161562000b6157918102915b93841c939080029062000b33565b509250929050565b60008262000b885750600162000aef565b8162000b975750600062000aef565b816001811462000bb0576002811462000bbb5762000bdb565b600191505062000aef565b60ff84111562000bcf5762000bcf62000abf565b50506001821b62000aef565b5060208310610133831016604e8410600b841016171562000c00575081810a62000aef565b62000c0c838362000b2e565b806000190482111562000c235762000c2362000abf565b029392505050565b600062000c39838362000b77565b9392505050565b8082018082111562000aef5762000aef62000abf565b60805160a05160c05160e05161010051610120516101405161016051610180516101a0516101c0516101e05161020051610220516102405161026051610280516102a0516102c0516102e05161030051610320516103405161036051610380516103a0516103c0516103e0516104005161042051612c9b62000ea86000396000818160cb015261089301526000818160aa01526108b4015260008181610597015261138a01526000818161057601526113690152600081816104a5015261129301526000818161048401526112720152600081816103bb01526111b001526000818161039a015261118f0152600081816104f401528181610555015261134801526000818161040201528181610463015261125101526000818161033401528181610379015261116e0152600081816104d301528181610534015281816112d701526113270152600081816103e101528181610442015281816111e0015261123001526000818161031301528181610358015261114d015260006115d3015260008181611f600152612407015260008181611f3c0152612428015260008181611ed7015261245e015260008181611eb3015261247f01526000610f5501526000610e9501526000611fff01526000611fcf01526000611be101526000611bb101526000818161014c0152611e3d015260008181610128015281816109b801528181610a6d01528181611049015281816114fe0152818161166d015261178301526000818161072d01526107f20152600081816101b6015261063f01526000818161019001526106720152612c9b6000f3fe608060405234801561001057600080fd5b50600436106100a35760003560e01c80638e7bfbc011610076578063abd5f95d1161005b578063abd5f95d14610273578063e6aa216c14610288578063f3190c891461025557600080fd5b80638e7bfbc01461025557806396aa229c1461026b57600080fd5b806304741a5a146100a85780632879605814610105578063585eebbf1461010d5780637557ca41146101e2575b600080fd5b7f00000000000000000000000000000000000000000000000000000000000000007f00000000000000000000000000000000000000000000000000000000000000005b604080519283526020830191909152015b60405180910390f35b6100eb610290565b6040805173ffffffffffffffffffffffffffffffffffffffff7f00000000000000000000000000000000000000000000000000000000000000001681527f0000000000000000000000000000000000000000000000000000000000000000151560208201527352aa899454998be5b000ad077a46bbe360f4e497918101919091527f000000000000000000000000000000000000000000000000000000000000000060608201527f0000000000000000000000000000000000000000000000000000000000000000608082015260a0016100fc565b6101ea6102fa565b604080519a8b5273ffffffffffffffffffffffffffffffffffffffff998a1660208c0152971515978a01979097526060890195909552928616608088015290151560a087015260c086015290921660e0840152901515610100830152610120820152610140016100fc565b61025d6105e3565b6040519081526020016100fc565b6100eb6106ba565b61027b61071b565b6040516100fc91906127fe565b61025d610880565b600080600061029d61088f565b90506000806102b3836102ae610937565b610fb9565b915091506102c2838383611003565b945050505060006102d161088f565b90506000806102e2836102ae610937565b915091506102f1838383611003565b93505050509091565b600080600080600080600080600080610311611146565b7f00000000000000000000000000000000000000000000000000000000000000007f00000000000000000000000000000000000000000000000000000000000000006103df7f00000000000000000000000000000000000000000000000000000000000000007f00000000000000000000000000000000000000000000000000000000000000007f00000000000000000000000000000000000000000000000000000000000000007f00000000000000000000000000000000000000000000000000000000000000006113c2565b7f00000000000000000000000000000000000000000000000000000000000000007f000000000000000000000000000000000000000000000000000000000000000073ffffffffffffffffffffffffffffffffffffffff8216156104ce576104c97f00000000000000000000000000000000000000000000000000000000000000007f00000000000000000000000000000000000000000000000000000000000000007f00000000000000000000000000000000000000000000000000000000000000007f00000000000000000000000000000000000000000000000000000000000000006113c2565b6104d1565b60005b7f00000000000000000000000000000000000000000000000000000000000000007f000000000000000000000000000000000000000000000000000000000000000073ffffffffffffffffffffffffffffffffffffffff8216156105c0576105bb7f00000000000000000000000000000000000000000000000000000000000000007f00000000000000000000000000000000000000000000000000000000000000007f00000000000000000000000000000000000000000000000000000000000000007f00000000000000000000000000000000000000000000000000000000000000006113c2565b6105c3565b60005b995099509950995099509950995099509950995090919293949596979899565b6000806105ee61088f565b905060006105fa610937565b90506000806106098484610fb9565b91509150600061061a858484611003565b90506106268585611483565b909350915060006106388685856114b9565b90506106707f00000000000000000000000000000000000000000000000000000000000000006b033b2e3c9fd0803ce8000000612899565b7f000000000000000000000000000000000000000000000000000000000000000061069b8484612899565b6106a59190612899565b6106af91906128e5565b965050505050505090565b60008060006106c761088f565b90506000806106dd836106d8610937565b611483565b915091506106ec8383836114b9565b945050505060006106fb61088f565b905060008061070c836106d8610937565b915091506102f18383836114b9565b606060005b60208110801561078657507f0000000000000000000000000000000000000000000000000000000000000000816020811061075d5761075d6128f9565b1a60f81b7fff000000000000000000000000000000000000000000000000000000000000001615155b1561079d578061079581612928565b915050610720565b60008167ffffffffffffffff8111156107b8576107b8612960565b6040519080825280601f01601f1916602001820160405280156107e2576020820181803683370190505b50905060005b82811015610879577f00000000000000000000000000000000000000000000000000000000000000008160208110610822576108226128f9565b1a60f81b828281518110610838576108386128f9565b60200101907effffffffffffffffffffffffffffffffffffffffffffffffffffffffffffff1916908160001a9053508061087181612928565b9150506107e8565b5092915050565b600061088a6105e3565b905090565b60007f00000000000000000000000000000000000000000000000000000000000000007f00000000000000000000000000000000000000000000000000000000000000006108db611146565b6108e59190612899565b6108ef91906128e5565b905080600003610934576040517fc82fc46500000000000000000000000000000000000000000000000000000000815261ebde60048201526024015b60405180910390fd5b90565b6109866040518061012001604052806000815260200160008152602001600081526020016000815260200160008152602001600081526020016000815260200160008152602001600081525090565b6040517fb5c736e4000000000000000000000000000000000000000000000000000000008152600060048201819052907f000000000000000000000000000000000000000000000000000000000000000073ffffffffffffffffffffffffffffffffffffffff169063b5c736e490602401602060405180830381865afa158015610a14573d6000803e3d6000fd5b505050506040513d601f19601f82011682018060405250810190610a38919061298f565b6040517fb5c736e4000000000000000000000000000000000000000000000000000000008152600160048201529091506000907f000000000000000000000000000000000000000000000000000000000000000073ffffffffffffffffffffffffffffffffffffffff169063b5c736e490602401602060405180830381865afa158015610ac9573d6000803e3d6000fd5b505050506040513d601f19601f82011682018060405250810190610aed919061298f565b9050600060f882901c600116600003610b2f57633fffffff607083901c16905080600003610b2f575063ffffffff605983901c1660ff605184901c161b610bdd565b6040517f08c379a000000000000000000000000000000000000000000000000000000000815260206004820152604d60248201527f507269636573416e6445786368616e67655072696365733a2063656e7465722060448201527f70726963652073686f756c64206e6f742062652070656767656420746f20657860648201527f7465726e616c20736f7572636500000000000000000000000000000000000000608482015260a40161092b565b63ffffffff603184901c1660ff602985901c161b601b83901c620fffff90811690602f85901c166001601a86901c81169003610c2657610c1e82828761160e565b965090925090505b81620f424003620f4240850281610c3f57610c3f6128b6565b049150620f42409081038402046000620fffff604487901c1615610d4557604486901c6103ff90811690604e88901c16605888901c62ffffff16600160438a901c81169003610c9b57610c93838383611768565b919450925090505b6103e888870384820302048801871115610cf05760798a901c6401ffffffff16420381811015610ce25781818a89030281610cd857610cd86128b6565b0489019850610ce6565b8698505b6001945050610d41565b6103e885890383820302048803871015610d415760798a901c6401ffffffff16420381811015610d37578181878b030281610d2d57610d2d6128b6565b0489039850610d3b565b8598505b60019450505b5050505b620fffff60b487901c1660ff60ac88901c161b80861115610d6c5780955060019150610d90565b50620fffff60d087901c1660ff60c888901c161b80861015610d9057809550600191505b8115610df957620fffff601b88901c169350620fffff602f88901c169250601a87901c600116600103610dd057610dc884848961160e565b985090945092505b83620f424003620f4240870281610de957610de96128b6565b049350620f424083810387020492505b8489526020890186905260408901849052606089018390526f4b3b4ca85a86c47a098a224000000000841015610e3e57610e348385026118bf565b60808a0152610e6d565b610e5d670de0b6b3a76400008404670de0b6b3a76400008604026118bf565b670de0b6b3a76400000260808a01525b6040517fb5c736e40000000000000000000000000000000000000000000000000000000081527f00000000000000000000000000000000000000000000000000000000000000006004820152610f23907352aa899454998be5b000ad077a46bbe360f4e4979063b5c736e4906024015b602060405180830381865afa158015610efa573d6000803e3d6000fd5b505050506040513d601f19601f82011682018060405250810190610f1e919061298f565b611971565b60c08b015260a08a01526040517fb5c736e40000000000000000000000000000000000000000000000000000000081527f00000000000000000000000000000000000000000000000000000000000000006004820152610fa1907352aa899454998be5b000ad077a46bbe360f4e4979063b5c736e490602401610edd565b6101008b015260e08a01525096979650505050505050565b6000806000610fdf8460800151856040015186606001518760a001518860e00151611b7f565b90506000610fee858388611cba565b80516020909101519097909650945050505050565b6040517fb5c736e40000000000000000000000000000000000000000000000000000000081526002600482015260009081906fffffffffffffffffffffffffffffffff907f000000000000000000000000000000000000000000000000000000000000000073ffffffffffffffffffffffffffffffffffffffff169063b5c736e490602401602060405180830381865afa1580156110a5573d6000803e3d6000fd5b505050506040513d601f19601f820116820180604052508101906110c9919061298f565b1690508060000361110a576040517fc82fc46500000000000000000000000000000000000000000000000000000000815261ebac600482015260240161092b565b6000611117868686611e39565b905081611130826b033b2e3c9fd0803ce8000000612899565b61113a91906128e5565b925050505b9392505050565b60006111d47f00000000000000000000000000000000000000000000000000000000000000007f00000000000000000000000000000000000000000000000000000000000000007f00000000000000000000000000000000000000000000000000000000000000007f00000000000000000000000000000000000000000000000000000000000000006113c2565b905080158061121757507f000000000000000000000000000000000000000000000000000000000000000073ffffffffffffffffffffffffffffffffffffffff16155b1561121f5790565b61122b601b600a612ac8565b6112b77f00000000000000000000000000000000000000000000000000000000000000007f00000000000000000000000000000000000000000000000000000000000000007f00000000000000000000000000000000000000000000000000000000000000007f00000000000000000000000000000000000000000000000000000000000000006113c2565b6112c19083612899565b6112cb91906128e5565b905080158061130e57507f000000000000000000000000000000000000000000000000000000000000000073ffffffffffffffffffffffffffffffffffffffff16155b156113165790565b611322601b600a612ac8565b6113ae7f00000000000000000000000000000000000000000000000000000000000000007f00000000000000000000000000000000000000000000000000000000000000007f00000000000000000000000000000000000000000000000000000000000000007f00000000000000000000000000000000000000000000000000000000000000006113c2565b6113b89083612899565b61088a91906128e5565b60008473ffffffffffffffffffffffffffffffffffffffff1663feaf968c6040518163ffffffff1660e01b815260040160a060405180830381865afa925050508015611449575060408051601f3d9081017fffffffffffffffffffffffffffffffffffffffffffffffffffffffffffffffe016820190925261144691810190612af3565b60015b6114555750600061147b565b88156114715761146584886128e5565b9550505050505061147b565b6114658885612899565b949350505050565b60008060006114aa8460800151856040015186606001518760c00151886101000151611f8f565b90506000610fee8583886120d7565b6040517fb5c736e400000000000000000000000000000000000000000000000000000000815260048082015260009081906fffffffffffffffffffffffffffffffff907f000000000000000000000000000000000000000000000000000000000000000073ffffffffffffffffffffffffffffffffffffffff169063b5c736e490602401602060405180830381865afa15801561155a573d6000803e3d6000fd5b505050506040513d601f19601f8201168201806040525081019061157e919061298f565b169050806000036115bf576040517fc82fc46500000000000000000000000000000000000000000000000000000000815261ebb6600482015260240161092b565b60006115cc868686611e39565b90506115f87f000000000000000000000000000000000000000000000000000000000000000082612899565b611130836b033b2e3c9fd0803ce8000000612899565b6040517fb5c736e4000000000000000000000000000000000000000000000000000000008152600760048201526000908190819081906fffffffffffffffffffffffffffffffff9073ffffffffffffffffffffffffffffffffffffffff7f0000000000000000000000000000000000000000000000000000000000000000169063b5c736e490602401602060405180830381865afa1580156116b4573d6000803e3d6000fd5b505050506040513d601f19601f820116820180604052508101906116d8919061298f565b169050620fffff80821690601483901c811690602884901c16603c84901c6401ffffffff16426117088383612b43565b101561172b57630400000019891698508a8a8a975097509750505050505061175f565b60006117378242612b56565b90506117458c8683866122bd565b6117518c8684876122bd565b8b9850985098505050505050505b93509350939050565b6000806000806fffffffffffffffffffffffffffffffff60807f000000000000000000000000000000000000000000000000000000000000000073ffffffffffffffffffffffffffffffffffffffff1663b5c736e4600760001b6040518263ffffffff1660e01b81526004016117e091815260200190565b602060405180830381865afa1580156117fd573d6000803e3d6000fd5b505050506040513d601f19601f82011682018060405250810190611821919061298f565b901c169050620fffff80821690601483901c811690602884901c16603c84901c6401ffffffff16605d85901c62ffffff164261185d8484612b43565b1015611877578b8b8b98509850985050505050505061175f565b60006118838342612b56565b90506118918d8783876122bd565b61189d8d8784886122bd565b6118a98d8585896122bd565b9950995099505050505050505093509350939050565b60b5817101000000000000000000000000000000000081106118e65760409190911b9060801c5b690100000000000000000081106119025760209190911b9060401c5b65010000000000811061191a5760109190911b9060201c5b630100000081106119305760089190911b9060101c5b62010000010260121c80820401600190811c80830401811c80830401811c80830401811c80830401811c80830401811c80830401901c908190048111900390565b67ffffffffffffffff605b82901c811690609b83901c16811580611993575080155b156119cf576040517fd50d751200000000000000000000000000000000000000000000000000000000815262011171600482015260240161092b565b61ffff8316603a84901c6401ffffffff16428181039160ea87901c617fff169114806119f9575082155b80611a045750806001145b15611a1157505050915091565b64496cebb80084840283020484019350617fff60db87901c16925082600103611a3c57505050915091565b82600116600103611a915760019290921c91826c7e37be2022c0914b268000000081611a6a57611a6a6128b6565b049250612710601e87901c613fff166b033b2e3c9fd0803ce8000000850102049250611abe565b60019290921c916305f5e100601e87901c613fff166127108501026b033b2e3c9fd0803ce8000000020492505b80600116600103611af55760011c61271081016b033b2e3c9fd0803ce8000000820281611aed57611aed6128b6565b049050611b2b565b60011c61271081016b033b2e3c9fd0803ce8000000820281611b1957611b196128b6565b046b033b2e3c9fd0803ce80000000390505b760a70c3c40a64e6c51999090b65f67d92400000000000008382026127100261ffff881691900402601087901c613fff16612710030292506801b5a660ea44b8000085840283020485019450505050915091565b611baa6040518060800160405280600081526020016000815260200160008152602001600081525090565b6000611bd87f0000000000000000000000000000000000000000000000000000000000000000856001612336565b90506000611c087f0000000000000000000000000000000000000000000000000000000000000000856000612336565b90506b033b2e3c9fd0803ce8000000881015611c3957611c2a888884846124b8565b60608501526040840152611c90565b611c85611c5d89760a70c3c40a64e6c51999090b65f67d92400000000000006128e5565b611c7e88760a70c3c40a64e6c51999090b65f67d92400000000000006128e5565b83856124b8565b604085015260608401525b81835260208301819052604083018051909201909152606082018051909101905295945050505050565b611ce56040518060800160405280600081526020016000815260200160008152602001600081525090565b600083606001518460400151611cfb9190612899565b9050600084600001518560400151611d139190612b56565b9050600085602001518660600151611d2b9190612b56565b90506000808689604001511015611d5057839150611d4982866128e5565b9050611e06565b8689606001511115611d6f575081611d6881866128e5565b9150611e06565b74446c3b15f9926687d2c40534fdb564000000000000851015611dbc57611db587611da6876b033b2e3c9fd0803ce8000000612899565b611db091906128e5565b6118bf565b9150611de2565b611ddf611dc988876128e5565b611db0906b033b2e3c9fd0803ce8000000612899565b91505b6b033b2e3c9fd0803ce8000000611df98389612899565b611e0391906128e5565b90505b611e108483612b56565b8652611e1c8382612b56565b602087015260408601919091526060850152509195945050505050565b60007f000000000000000000000000000000000000000000000000000000000000000015611f0d57611e8284760a70c3c40a64e6c51999090b65f67d92400000000000006128e5565b93506b033b2e3c9fd0803ce8000000611e9b8584612899565b611ea591906128e5565b611eaf9084612b43565b90507f0000000000000000000000000000000000000000000000000000000000000000611efc7f000000000000000000000000000000000000000000000000000000000000000083612899565b611f0691906128e5565b905061113f565b6b033b2e3c9fd0803ce8000000611f248585612899565b611f2e91906128e5565b611f389083612b43565b90507f0000000000000000000000000000000000000000000000000000000000000000611f857f000000000000000000000000000000000000000000000000000000000000000083612899565b61147b91906128e5565b611fc86040518060c001604052806000815260200160008152602001600081526020016000815260200160008152602001600081525090565b6000611ff67f0000000000000000000000000000000000000000000000000000000000000000856001612336565b905060006120267f0000000000000000000000000000000000000000000000000000000000000000856000612336565b8284526020840181905290506b033b2e3c9fd0803ce800000088101561206b57612052888784846125cf565b60a08701526080860152606085015260408401526120cc565b6120b761208f89760a70c3c40a64e6c51999090b65f67d92400000000000006128e5565b6120b089760a70c3c40a64e6c51999090b65f67d92400000000000006128e5565b83856125cf565b608087015260a0860152604085015260608401525b505095945050505050565b6121106040518060c001604052806000815260200160008152602001600081526020016000815260200160008152602001600081525090565b60008360a0015184608001516121269190612899565b905060008460400151856080015161213e9190612b56565b9050600085606001518660a001516121569190612b56565b9050600080868960400151101561217b5783915061217482866128e5565b905061220c565b868960600151111561219a57508161219381866128e5565b915061220c565b74446c3b15f9926687d2c40534fdb5640000000000008510156121d8576121d187611da6876b033b2e3c9fd0803ce8000000612899565b91506121e8565b6121e5611dc988876128e5565b91505b6b033b2e3c9fd0803ce80000006121ff8389612899565b61220991906128e5565b90505b6122168483612b56565b60408701526122258382612b56565b60608701526080860182905260a0808701829052880151604087015160009161224d91612899565b9050600087604001518a608001516122659190612b56565b905061227181836128e5565b602089015260808a0151606089015161228a9190612899565b915087606001518a60a001516122a09190612b56565b90506122ac81836128e5565b885250959998505050505050505050565b6000838511156122fc5760006122d38587612b56565b9050826122e08583612899565b6122ea91906128e5565b6122f49086612b43565b95505061232d565b60006123088686612b56565b9050826123158583612899565b61231f91906128e5565b6123299086612b56565b9550505b50929392505050565b6040517fb5c736e40000000000000000000000000000000000000000000000000000000081526004810184905260009081907352aa899454998be5b000ad077a46bbe360f4e4979063b5c736e490602401602060405180830381865afa1580156123a4573d6000803e3d6000fd5b505050506040513d601f19601f820116820180604052508101906123c8919061298f565b905067ffffffffffffffff600182901c16915060ff8216600883901c901b9150806001166001036124005764e8d4a510008285020491505b8261245c577f00000000000000000000000000000000000000000000000000000000000000007f0000000000000000000000000000000000000000000000000000000000000000830281612456576124566128b6565b046124af565b7f00000000000000000000000000000000000000000000000000000000000000007f00000000000000000000000000000000000000000000000000000000000000008302816124ad576124ad6128b6565b045b95945050505050565b600080806124c68787612b56565b905060006124d5826002612899565b6124eb866b033b2e3c9fd0803ce8000000612899565b6124f5888b612899565b6124ff9190612b43565b61250991906128e5565b905060006125178688612899565b905074446c3b15f9926687d2c40534fdb564000000000000811061255a5761253f83826128e5565b612555906b033b2e3c9fd0803ce8000000612899565b61257b565b82612571826b033b2e3c9fd0803ce8000000612899565b61257b91906128e5565b905061259461258a8380612899565b611db09083612b43565b61259e9083612b43565b94506b033b2e3c9fd0803ce80000006125b78a87612899565b6125c191906128e5565b935050505094509492505050565b6000808080806b06765c793fa10079d00000006125f8876b033b2e3c9fd0803ce8000000612899565b6126028b8a612899565b61260c9190612b69565b6126169190612b89565b905060006126248789612899565b905074446c3b15f9926687d2c40534fdb564000000000000811061266857886126596b033b2e3c9fd0803ce8000000836128e5565b6126639190612899565b612689565b6b033b2e3c9fd0803ce800000061267f8a83612899565b61268991906128e5565b905061269861258a8380612bf1565b6126a29083612c3d565b94506126ae8989612899565b6126c4866b033b2e3c9fd0803ce8000000612899565b6126ce9190612b56565b9250620f424083101561273d576040517f08c379a000000000000000000000000000000000000000000000000000000000815260206004820152601560248201527f4465627420726573657276657320746f6f206c6f770000000000000000000000604482015260640161092b565b6a084595161401484a000000851015612782578261275b8680612899565b612771906b033b2e3c9fd0803ce8000000612899565b61277b91906128e5565b92506127af565b6127986b033b2e3c9fd0803ce8000000846128e5565b6127a28680612899565b6127ac91906128e5565b92505b87856127bb8286612899565b6127c591906128e5565b6127cf9190612b56565b93506127db8784612b43565b6127e58886612899565b6127ef91906128e5565b95505050945094509450949050565b600060208083528351808285015260005b8181101561282b5785810183015185820160400152820161280f565b5060006040828601015260407fffffffffffffffffffffffffffffffffffffffffffffffffffffffffffffffe0601f8301168501019250505092915050565b7f4e487b7100000000000000000000000000000000000000000000000000000000600052601160045260246000fd5b80820281158282048414176128b0576128b061286a565b92915050565b7f4e487b7100000000000000000000000000000000000000000000000000000000600052601260045260246000fd5b6000826128f4576128f46128b6565b500490565b7f4e487b7100000000000000000000000000000000000000000000000000000000600052603260045260246000fd5b60007fffffffffffffffffffffffffffffffffffffffffffffffffffffffffffffffff82036129595761295961286a565b5060010190565b7f4e487b7100000000000000000000000000000000000000000000000000000000600052604160045260246000fd5b6000602082840312156129a157600080fd5b5051919050565b600181815b80851115612a0157817fffffffffffffffffffffffffffffffffffffffffffffffffffffffffffffffff048211156129e7576129e761286a565b808516156129f457918102915b93841c93908002906129ad565b509250929050565b600082612a18575060016128b0565b81612a25575060006128b0565b8160018114612a3b5760028114612a4557612a61565b60019150506128b0565b60ff841115612a5657612a5661286a565b50506001821b6128b0565b5060208310610133831016604e8410600b8410161715612a84575081810a6128b0565b612a8e83836129a8565b807fffffffffffffffffffffffffffffffffffffffffffffffffffffffffffffffff04821115612ac057612ac061286a565b029392505050565b600061113f8383612a09565b805169ffffffffffffffffffff81168114612aee57600080fd5b919050565b600080600080600060a08688031215612b0b57600080fd5b612b1486612ad4565b9450602086015193506040860151925060608601519150612b3760808701612ad4565b90509295509295909350565b808201808211156128b0576128b061286a565b818103818111156128b0576128b061286a565b81810360008312801583831316838312821617156108795761087961286a565b600082612b9857612b986128b6565b7fffffffffffffffffffffffffffffffffffffffffffffffffffffffffffffffff83147f800000000000000000000000000000000000000000000000000000000000000083141615612bec57612bec61286a565b500590565b808202600082127f800000000000000000000000000000000000000000000000000000000000000084141615612c2957612c2961286a565b81810583148215176128b0576128b061286a565b8082018281126000831280158216821582161715612c5d57612c5d61286a565b50509291505056fea26469706673582212202cf693d0800fcd6ff682169ee49c04efb87fa35af3b95469aaec13590863e2e264736f6c63430008150033"
}