{
  "address": "0xeb48ce0A5De2Cd5eEE12A0fBb704d3D8CbCdc8fA",
  "abi": [
    {
      "inputs": [
        {
          "components": [
            {
              "internalType": "string",
              "name": "infoName",
              "type": "string"
            },
            {
              "internalType": "uint8",
              "name": "targetDecimals",
              "type": "uint8"
            },
            {
              "internalType": "address",
              "name": "dexPool",
              "type": "address"
            },
            {
              "internalType": "bool",
              "name": "quoteInToken0",
              "type": "bool"
            },
            {
              "internalType": "contract IFluidOracle",
              "name": "colDebtOracle",
              "type": "address"
            },
            {
              "internalType": "bool",
              "name": "colDebtInvert",
              "type": "bool"
            },
            {
              "internalType": "uint256",
              "name": "pegBufferPercent",
              "type": "uint256"
            },
            {
              "components": [
                {
                  "internalType": "address",
                  "name": "reservesConversionOracle",
                  "type": "address"
                },
                {
                  "internalType": "bool",
                  "name": "reservesConversionInvert",
                  "type": "bool"
                },
                {
                  "internalType": "uint256",
                  "name": "reservesConversionPriceMultiplier",
                  "type": "uint256"
                },
                {
                  "internalType": "uint256",
                  "name": "reservesConversionPriceDivisor",
                  "type": "uint256"
                }
              ],
              "internalType": "struct DexConversionPriceFluidOracle.DexConversionPriceFluidOracleParams",
              "name": "reservesConversionParams",
              "type": "tuple"
            },
            {
              "internalType": "uint256",
              "name": "resultMultiplier",
              "type": "uint256"
            },
            {
              "internalType": "uint256",
              "name": "resultDivisor",
              "type": "uint256"
            }
          ],
          "internalType": "struct DexSmartColPegOracle.DexSmartColPegOracleParams",
          "name": "params_",
          "type": "tuple"
        }
      ],
      "stateMutability": "nonpayable",
      "type": "constructor"
    },
    {
      "inputs": [
        {
          "internalType": "uint256",
          "name": "errorId_",
          "type": "uint256"
        }
      ],
      "name": "FluidLiquidityCalcsError",
      "type": "error"
    },
    {
      "inputs": [
        {
          "internalType": "uint256",
          "name": "errorId_",
          "type": "uint256"
        }
      ],
      "name": "FluidOracleError",
      "type": "error"
    },
    {
      "inputs": [],
      "name": "RESERVES_PEG_BUFFER_PERCENT",
      "outputs": [
        {
          "internalType": "uint256",
          "name": "",
          "type": "uint256"
        }
      ],
      "stateMutability": "view",
      "type": "function"
    },
    {
      "inputs": [],
      "name": "dexOracleData",
      "outputs": [
        {
          "internalType": "address",
          "name": "dexPool_",
          "type": "address"
        },
        {
          "internalType": "bool",
          "name": "quoteInToken0_",
          "type": "bool"
        },
        {
          "internalType": "address",
          "name": "liquidity_",
          "type": "address"
        },
        {
          "internalType": "uint256",
          "name": "resultMultiplier_",
          "type": "uint256"
        },
        {
          "internalType": "uint256",
          "name": "resultDivisor_",
          "type": "uint256"
        }
      ],
      "stateMutability": "view",
      "type": "function"
    },
    {
      "inputs": [],
      "name": "dexSmartColSharesRates",
      "outputs": [
        {
          "internalType": "uint256",
          "name": "operate_",
          "type": "uint256"
        },
        {
          "internalType": "uint256",
          "name": "liquidate_",
          "type": "uint256"
        }
      ],
      "stateMutability": "view",
      "type": "function"
    },
    {
      "inputs": [],
      "name": "getDexColDebtOracleData",
      "outputs": [
        {
          "internalType": "address",
          "name": "colDebtOracle_",
          "type": "address"
        },
        {
          "internalType": "bool",
          "name": "colDebtInvert_",
          "type": "bool"
        }
      ],
      "stateMutability": "view",
      "type": "function"
    },
    {
      "inputs": [],
      "name": "getDexConversionPriceFluidOracleData",
      "outputs": [
        {
          "internalType": "address",
          "name": "reservesConversionOracle_",
          "type": "address"
        },
        {
          "internalType": "bool",
          "name": "reservesConversionInvert_",
          "type": "bool"
        },
        {
          "internalType": "uint256",
          "name": "reservesConversionPriceMultiplier_",
          "type": "uint256"
        },
        {
          "internalType": "uint256",
          "name": "reservesConversionPriceDivisor_",
          "type": "uint256"
        }
      ],
      "stateMutability": "view",
      "type": "function"
    },
    {
      "inputs": [],
      "name": "getExchangeRate",
      "outputs": [
        {
          "internalType": "uint256",
          "name": "exchangeRate_",
          "type": "uint256"
        }
      ],
      "stateMutability": "view",
      "type": "function"
    },
    {
      "inputs": [],
      "name": "getExchangeRateLiquidate",
      "outputs": [
        {
          "internalType": "uint256",
          "name": "exchangeRate_",
          "type": "uint256"
        }
      ],
      "stateMutability": "view",
      "type": "function"
    },
    {
      "inputs": [],
      "name": "getExchangeRateOperate",
      "outputs": [
        {
          "internalType": "uint256",
          "name": "exchangeRate_",
          "type": "uint256"
        }
      ],
      "stateMutability": "view",
      "type": "function"
    },
    {
      "inputs": [],
      "name": "infoName",
      "outputs": [
        {
          "internalType": "string",
          "name": "",
          "type": "string"
        }
      ],
      "stateMutability": "view",
      "type": "function"
    },
    {
      "inputs": [],
      "name": "targetDecimals",
      "outputs": [
        {
          "internalType": "uint8",
          "name": "",
          "type": "uint8"
        }
      ],
      "stateMutability": "view",
      "type": "function"
    }
  ],
  "transactionHash": "0x8344f740d5c34fe7e67c7b40fdca0a55633e395b8a677bfa4261f330080b67bb",
  "args": [
    [
      {
        "dexPool": "0xB0960263E39C70C9B6e9EA2A382B18095264A364",
        "quoteInToken0": false,
        "infoName": "USDT per 1 USDTB/USDE colShare",
        "targetDecimals": 15,
        "pegBufferPercent": 1000,
        "reservesConversionParams": {
          "reservesConversionOracle": "0x0000000000000000000000000000000000000000",
          "reservesConversionInvert": false,
          "reservesConversionPriceMultiplier": 1,
          "reservesConversionPriceDivisor": 1
        },
        "resultMultiplier": 1,
        "resultDivisor": 1000000000000,
        "colDebtOracle": "0x0000000000000000000000000000000000000000",
        "colDebtInvert": false
      }
    ]
  ],
  "numDeployments": 1,
  "linkedData": {
    "nonce": "157"
  },
  "bytecode": "0x6103806040523480156200001257600080fd5b5060405162001fd438038062001fd48339810160408190526200003591620005c4565b806040015181606001518260c0015182828560e0015186608001518760a0015184848a600001518b602001518c61010001518d6101200151816000146200007d578162000080565b60015b608052801562000091578062000094565b60015b60a0525050815160201080620000a957508151155b15620000d15760405163c82fc46560e01b815261ea6a60048201526024015b60405180910390fd5b600f8160ff161080620000e7575060278160ff16115b156200010b5760405163c82fc46560e01b815261ebf16004820152602401620000c8565b60ff1660e0526020015160c0526001600160a01b038216620001455760405163c82fc46560e01b815261ebdd6004820152602401620000c8565b6001600160a01b0382166101008190528115156101205260408051635bbc8df960e11b815290516000929163b7791bf2916004808301926102409291908290030181865afa1580156200019c573d6000803e3d6000fd5b505050506040513d601f19601f82011682018060405250810190620001c2919062000779565b610160808201516101c052610180808301516101e05260e083015161014090815261012084015190925261010080840151909152908201516101a0525160408051631595cbd360e01b815290519293506000926001600160a01b0390921691631595cbd3916004808201926080929091908290030181865afa1580156200024d573d6000803e3d6000fd5b505050506040513d601f19601f820116820180604052508101906200027391906200086f565b80516102005260208101516102205260408101516102405260600151610260525050610120519150620002e19050576102405161026051620002bb9064e8d4a51000620008b8565b620002c79190620008e4565b620002db90670de0b6b3a7640000620008e4565b6200031a565b6102005161022051620002fa9064e8d4a51000620008b8565b620003069190620008e4565b6200031a90670de0b6b3a7640000620008e4565b610280526001600160a01b039091166102a05215156102c052604081015115806200034757506060810151155b156200036b5760405163c82fc46560e01b815261ebdd6004820152602401620000c8565b80516001600160a01b03166102e0526020810151151561030052604081015161032052606001516103405250506000819003620003c05760405163c82fc46560e01b815261ebdd6004820152602401620000c8565b610360525062000907915050565b634e487b7160e01b600052604160045260246000fd5b604051608081016001600160401b0381118282101715620004095762000409620003ce565b60405290565b60405161014081016001600160401b0381118282101715620004095762000409620003ce565b6040516101c081016001600160401b0381118282101715620004095762000409620003ce565b604051601f8201601f191681016001600160401b0381118282101715620004865762000486620003ce565b604052919050565b600082601f830112620004a057600080fd5b81516001600160401b03811115620004bc57620004bc620003ce565b6020620004d2601f8301601f191682016200045b565b8281528582848701011115620004e757600080fd5b60005b8381101562000507578581018301518282018401528201620004ea565b506000928101909101919091529392505050565b805160ff811681146200052d57600080fd5b919050565b6001600160a01b03811681146200054857600080fd5b50565b80516200052d8162000532565b805180151581146200052d57600080fd5b6000608082840312156200057c57600080fd5b62000586620003e4565b90508151620005958162000532565b8152620005a56020830162000558565b6020820152604082015160408201526060820151606082015292915050565b600060208284031215620005d757600080fd5b81516001600160401b0380821115620005ef57600080fd5b908301906101a082860312156200060557600080fd5b6200060f6200040f565b8251828111156200061f57600080fd5b6200062d878286016200048e565b8252506200063e602084016200051b565b602082015262000651604084016200054b565b6040820152620006646060840162000558565b606082015262000677608084016200054b565b60808201526200068a60a0840162000558565b60a082015260c083015160c0820152620006a88660e0850162000569565b60e082015261016083015161010082015261018090920151610120830152509392505050565b600060a08284031215620006e157600080fd5b60405160a081016001600160401b0381118282101715620007065762000706620003ce565b806040525080915082516200071b8162000532565b815260208301516200072d8162000532565b60208201526040830151620007428162000532565b60408201526060830151620007578162000532565b606082015260808301516200076c8162000532565b6080919091015292915050565b600061024082840312156200078d57600080fd5b6200079762000435565b82518152620007a9602084016200054b565b6020820152620007bc604084016200054b565b6040820152620007d08460608501620006ce565b6060820152610100620007e58185016200054b565b6080830152610120620007fa8186016200054b565b60a08401526101406200080f8187016200054b565b60c08501526101608087015160e086015261018080880151858701526101a0945084880151848701526101c0880151838701526101e088015182870152610200880151818701525050505061022084015181830152508091505092915050565b6000608082840312156200088257600080fd5b6200088c620003e4565b825181526020830151602082015260408301516040820152606083015160608201528091505092915050565b8082028115828204841417620008de57634e487b7160e01b600052601160045260246000fd5b92915050565b6000826200090257634e487b7160e01b600052601260045260246000fd5b500490565b60805160a05160c05160e05161010051610120516101405161016051610180516101a0516101c0516101e05161020051610220516102405161026051610280516102a0516102c0516102e0516103005161032051610340516103605161150262000ad2600039600081816102ab0152818161066401526106a8015260008181610128015281816107370152610a28015260008181610107015281816107580152610a4901526000818160e6015261081e01526000818160c5015281816106eb01528181610779015281816109dc0152610a6a0152600081816103470152610bb401526000818161032301528181610ad701528181610b2301528181610bfd0152610c4901526000610987015260008181610e760152611016015260008181610e520152611037015260008181610ded015261106d015260008181610dc9015261108e01526000610d2901526000610cdb015260005050600050506000610d0801526000610cba0152600081816102100152610d530152600081816101ec01526108ac015260006101a701526000818161046a015261052f01526000818161027a015281816103d801526105f10152600081816102540152818161040b015261062401526115026000f3fe608060405234801561001057600080fd5b50600436106100be5760003560e01c80638e7bfbc011610076578063e6aa216c1161005b578063e6aa216c146102f8578063f3190c8914610300578063fa9a98e61461030857600080fd5b80638e7bfbc0146102db578063abd5f95d146102e357600080fd5b806336c1387e116100a757806336c1387e146101a0578063585eebbf146101d157806364bba885146102a657600080fd5b806304741a5a146100c35780632879605814610183575b600080fd5b7f00000000000000000000000000000000000000000000000000000000000000007f00000000000000000000000000000000000000000000000000000000000000007f00000000000000000000000000000000000000000000000000000000000000007f00000000000000000000000000000000000000000000000000000000000000006040805173ffffffffffffffffffffffffffffffffffffffff909516855292151560208501529183015260608201526080015b60405180910390f35b61018b610373565b6040805192835260208301919091520161017a565b60405160ff7f000000000000000000000000000000000000000000000000000000000000000016815260200161017a565b6040805173ffffffffffffffffffffffffffffffffffffffff7f00000000000000000000000000000000000000000000000000000000000000001681527f0000000000000000000000000000000000000000000000000000000000000000151560208201527352aa899454998be5b000ad077a46bbe360f4e497918101919091527f000000000000000000000000000000000000000000000000000000000000000060608201527f0000000000000000000000000000000000000000000000000000000000000000608082015260a00161017a565b6102cd7f000000000000000000000000000000000000000000000000000000000000000081565b60405190815260200161017a565b6102cd6103b3565b6102eb610458565b60405161017a91906112d5565b6102cd6105bd565b6102cd6105cc565b6040805173ffffffffffffffffffffffffffffffffffffffff7f00000000000000000000000000000000000000000000000000000000000000001681527f0000000000000000000000000000000000000000000000000000000000000000151560208201520161017a565b60008060008061038161064b565b915091506103976103906106e7565b8383610866565b6103a96103a26109d8565b8484610866565b9350935050509091565b60008060006103c061064b565b9150915060006103d16103a26106e7565b90506104097f00000000000000000000000000000000000000000000000000000000000000006b033b2e3c9fd0803ce8000000611370565b7f0000000000000000000000000000000000000000000000000000000000000000610432610ad3565b61043c9084611370565b6104469190611370565b61045091906113bc565b935050505090565b606060005b6020811080156104c357507f0000000000000000000000000000000000000000000000000000000000000000816020811061049a5761049a6113f7565b1a60f81b7fff000000000000000000000000000000000000000000000000000000000000001615155b156104da57806104d281611426565b91505061045d565b60008167ffffffffffffffff8111156104f5576104f561145e565b6040519080825280601f01601f19166020018201604052801561051f576020820181803683370190505b50905060005b828110156105b6577f0000000000000000000000000000000000000000000000000000000000000000816020811061055f5761055f6113f7565b1a60f81b828281518110610575576105756113f7565b60200101907effffffffffffffffffffffffffffffffffffffffffffffffffffffffffffff1916908160001a905350806105ae81611426565b915050610525565b5092915050565b60006105c76103b3565b905090565b60008060006105d961064b565b9150915060006105ea6103a26109d8565b90506106227f00000000000000000000000000000000000000000000000000000000000000006b033b2e3c9fd0803ce8000000611370565b7f0000000000000000000000000000000000000000000000000000000000000000610432610bf9565b600080610656610cb2565b9092509050620f42406106897f00000000000000000000000000000000000000000000000000000000000000008261148d565b6106939084611370565b61069d91906113bc565b9150620f42406106cd7f00000000000000000000000000000000000000000000000000000000000000008261148d565b6106d79083611370565b6106e191906113bc565b90509091565b60007f000000000000000000000000000000000000000000000000000000000000000073ffffffffffffffffffffffffffffffffffffffff1661073557506b033b2e3c9fd0803ce800000090565b7f00000000000000000000000000000000000000000000000000000000000000007f00000000000000000000000000000000000000000000000000000000000000007f000000000000000000000000000000000000000000000000000000000000000073ffffffffffffffffffffffffffffffffffffffff16638e7bfbc06040518163ffffffff1660e01b8152600401602060405180830381865afa1580156107e2573d6000803e3d6000fd5b505050506040513d601f19601f8201168201806040525081019061080691906114a0565b6108109190611370565b61081a91906113bc565b90507f000000000000000000000000000000000000000000000000000000000000000015610863576105c781760a70c3c40a64e6c51999090b65f67d92400000000000006113bc565b90565b6040517fb5c736e40000000000000000000000000000000000000000000000000000000081526002600482015260009081906fffffffffffffffffffffffffffffffff907f000000000000000000000000000000000000000000000000000000000000000073ffffffffffffffffffffffffffffffffffffffff169063b5c736e490602401602060405180830381865afa158015610908573d6000803e3d6000fd5b505050506040513d601f19601f8201168201806040525081019061092c91906114a0565b16905080600003610972576040517fc82fc46500000000000000000000000000000000000000000000000000000000815261ebac60048201526024015b60405180910390fd5b600061097f868686610d4f565b9050816109ac7f000000000000000000000000000000000000000000000000000000000000000083611370565b6109c2906b033b2e3c9fd0803ce8000000611370565b6109cc91906113bc565b925050505b9392505050565b60007f000000000000000000000000000000000000000000000000000000000000000073ffffffffffffffffffffffffffffffffffffffff16610a2657506b033b2e3c9fd0803ce800000090565b7f00000000000000000000000000000000000000000000000000000000000000007f00000000000000000000000000000000000000000000000000000000000000007f000000000000000000000000000000000000000000000000000000000000000073ffffffffffffffffffffffffffffffffffffffff1663f3190c896040518163ffffffff1660e01b8152600401602060405180830381865afa1580156107e2573d6000803e3d6000fd5b60007f000000000000000000000000000000000000000000000000000000000000000073ffffffffffffffffffffffffffffffffffffffff16610b2157506b033b2e3c9fd0803ce800000090565b7f000000000000000000000000000000000000000000000000000000000000000073ffffffffffffffffffffffffffffffffffffffff16638e7bfbc06040518163ffffffff1660e01b8152600401602060405180830381865afa158015610b8c573d6000803e3d6000fd5b505050506040513d601f19601f82011682018060405250810190610bb091906114a0565b90507f000000000000000000000000000000000000000000000000000000000000000015610863576105c781760a70c3c40a64e6c51999090b65f67d92400000000000006113bc565b60007f000000000000000000000000000000000000000000000000000000000000000073ffffffffffffffffffffffffffffffffffffffff16610c4757506b033b2e3c9fd0803ce800000090565b7f000000000000000000000000000000000000000000000000000000000000000073ffffffffffffffffffffffffffffffffffffffff1663f3190c896040518163ffffffff1660e01b8152600401602060405180830381865afa158015610b8c573d6000803e3d6000fd5b600080610d017f00000000000000000000000000000000000000000000000000000000000000007f00000000000000000000000000000000000000000000000000000000000000006001610ead565b91506106e17f00000000000000000000000000000000000000000000000000000000000000007f00000000000000000000000000000000000000000000000000000000000000006000610ead565b60007f000000000000000000000000000000000000000000000000000000000000000015610e2357610d9884760a70c3c40a64e6c51999090b65f67d92400000000000006113bc565b93506b033b2e3c9fd0803ce8000000610db18584611370565b610dbb91906113bc565b610dc590846114b9565b90507f0000000000000000000000000000000000000000000000000000000000000000610e127f000000000000000000000000000000000000000000000000000000000000000083611370565b610e1c91906113bc565b90506109d1565b6b033b2e3c9fd0803ce8000000610e3a8585611370565b610e4491906113bc565b610e4e90836114b9565b90507f0000000000000000000000000000000000000000000000000000000000000000610e9b7f000000000000000000000000000000000000000000000000000000000000000083611370565b610ea591906113bc565b949350505050565b6040517fb5c736e40000000000000000000000000000000000000000000000000000000081526004810184905260009081907352aa899454998be5b000ad077a46bbe360f4e4979063b5c736e490602401602060405180830381865afa158015610f1b573d6000803e3d6000fd5b505050506040513d601f19601f82011682018060405250810190610f3f91906114a0565b6040517fb5c736e400000000000000000000000000000000000000000000000000000000815260048101869052600982901c66ffffffffffffff16600183901c60ff161b9350909150600090610ff4907352aa899454998be5b000ad077a46bbe360f4e4979063b5c736e490602401602060405180830381865afa158015610fcb573d6000803e3d6000fd5b505050506040513d601f19601f82011682018060405250810190610fef91906114a0565b6110c7565b5090508160011660010361100f5764e8d4a510008382020492505b8361106b577f00000000000000000000000000000000000000000000000000000000000000007f00000000000000000000000000000000000000000000000000000000000000008402816110655761106561138d565b046109cc565b7f00000000000000000000000000000000000000000000000000000000000000007f00000000000000000000000000000000000000000000000000000000000000008402816110bc576110bc61138d565b049695505050505050565b67ffffffffffffffff605b82901c811690609b83901c168115806110e9575080155b15611125576040517fd50d7512000000000000000000000000000000000000000000000000000000008152620111716004820152602401610969565b61ffff8316603a84901c6401ffffffff16428181039160ea87901c617fff1691148061114f575082155b8061115a5750806001145b1561116757505050915091565b64496cebb80084840283020484019350617fff60db87901c1692508260010361119257505050915091565b826001166001036111e75760019290921c91826c7e37be2022c0914b2680000000816111c0576111c061138d565b049250612710601e87901c613fff166b033b2e3c9fd0803ce8000000850102049250611214565b60019290921c916305f5e100601e87901c613fff166127108501026b033b2e3c9fd0803ce8000000020492505b8060011660010361124b5760011c61271081016b033b2e3c9fd0803ce80000008202816112435761124361138d565b049050611281565b60011c61271081016b033b2e3c9fd0803ce800000082028161126f5761126f61138d565b046b033b2e3c9fd0803ce80000000390505b760a70c3c40a64e6c51999090b65f67d92400000000000008382026127100261ffff881691900402601087901c613fff16612710030292506801b5a660ea44b8000085840283020485019450505050915091565b600060208083528351808285015260005b81811015611302578581018301518582016040015282016112e6565b5060006040828601015260407fffffffffffffffffffffffffffffffffffffffffffffffffffffffffffffffe0601f8301168501019250505092915050565b7f4e487b7100000000000000000000000000000000000000000000000000000000600052601160045260246000fd5b808202811582820484141761138757611387611341565b92915050565b7f4e487b7100000000000000000000000000000000000000000000000000000000600052601260045260246000fd5b6000826113f2577f4e487b7100000000000000000000000000000000000000000000000000000000600052601260045260246000fd5b500490565b7f4e487b7100000000000000000000000000000000000000000000000000000000600052603260045260246000fd5b60007fffffffffffffffffffffffffffffffffffffffffffffffffffffffffffffffff820361145757611457611341565b5060010190565b7f4e487b7100000000000000000000000000000000000000000000000000000000600052604160045260246000fd5b8181038181111561138757611387611341565b6000602082840312156114b257600080fd5b5051919050565b808201808211156113875761138761134156fea26469706673582212209d4b163dc0597f000aea7f72fb6578fdbc100e938ea8fc4cb378788d24c1dc5064736f6c63430008150033"
}