{
  "address": "0xE48E7F98911D0311A0FcCC5b0ff3f3f412BaD16C",
  "abi": [
    {
      "inputs": [
        {
          "internalType": "string",
          "name": "infoName_",
          "type": "string"
        },
        {
          "internalType": "address",
          "name": "rateSource_",
          "type": "address"
        },
        {
          "internalType": "uint256",
          "name": "minUpdateDiffPercent_",
          "type": "uint256"
        },
        {
          "internalType": "uint256",
          "name": "minHeartBeat_",
          "type": "uint256"
        }
      ],
      "stateMutability": "nonpayable",
      "type": "constructor"
    },
    {
      "inputs": [
        {
          "internalType": "uint256",
          "name": "errorId_",
          "type": "uint256"
        }
      ],
      "name": "FluidOracleError",
      "type": "error"
    },
    {
      "anonymous": false,
      "inputs": [
        {
          "indexed": false,
          "internalType": "uint256",
          "name": "oldRate",
          "type": "uint256"
        },
        {
          "indexed": false,
          "internalType": "uint256",
          "name": "newRate",
          "type": "uint256"
        }
      ],
      "name": "LogRebalanceRate",
      "type": "event"
    },
    {
      "inputs": [],
      "name": "centerPrice",
      "outputs": [
        {
          "internalType": "uint256",
          "name": "price_",
          "type": "uint256"
        }
      ],
      "stateMutability": "nonpayable",
      "type": "function"
    },
    {
      "inputs": [],
      "name": "configData",
      "outputs": [
        {
          "internalType": "uint256",
          "name": "minUpdateDiffPercent_",
          "type": "uint256"
        },
        {
          "internalType": "uint256",
          "name": "minHeartBeat_",
          "type": "uint256"
        },
        {
          "internalType": "uint40",
          "name": "lastUpdateTime_",
          "type": "uint40"
        },
        {
          "internalType": "address",
          "name": "rateSource_",
          "type": "address"
        }
      ],
      "stateMutability": "view",
      "type": "function"
    },
    {
      "inputs": [],
      "name": "configPercentDiff",
      "outputs": [
        {
          "internalType": "uint256",
          "name": "configPercentDiff_",
          "type": "uint256"
        }
      ],
      "stateMutability": "view",
      "type": "function"
    },
    {
      "inputs": [],
      "name": "getExchangeRate",
      "outputs": [
        {
          "internalType": "uint256",
          "name": "exchangeRate_",
          "type": "uint256"
        }
      ],
      "stateMutability": "view",
      "type": "function"
    },
    {
      "inputs": [],
      "name": "getExchangeRateLiquidate",
      "outputs": [
        {
          "internalType": "uint256",
          "name": "exchangeRate_",
          "type": "uint256"
        }
      ],
      "stateMutability": "view",
      "type": "function"
    },
    {
      "inputs": [],
      "name": "getExchangeRateOperate",
      "outputs": [
        {
          "internalType": "uint256",
          "name": "exchangeRate_",
          "type": "uint256"
        }
      ],
      "stateMutability": "view",
      "type": "function"
    },
    {
      "inputs": [],
      "name": "getRate",
      "outputs": [
        {
          "internalType": "uint256",
          "name": "",
          "type": "uint256"
        }
      ],
      "stateMutability": "view",
      "type": "function"
    },
    {
      "inputs": [],
      "name": "infoName",
      "outputs": [
        {
          "internalType": "string",
          "name": "",
          "type": "string"
        }
      ],
      "stateMutability": "view",
      "type": "function"
    },
    {
      "inputs": [],
      "name": "rebalance",
      "outputs": [],
      "stateMutability": "nonpayable",
      "type": "function"
    }
  ],
  "transactionHash": "0x4b50580a53278e65ce8ec93f30227f306b787c228540d29278c90792537ca9c4",
  "args": [
    [
      "EZETH <> ETH exchange rate",
      "0x387dBc0fB00b26fb085aa658527D5BE98302c84C",
      10,
      90000
    ]
  ],
  "numDeployments": 1,
  "linkedData": {
    "nonce": "106"
  },
  "bytecode": "0x6101006040523480156200001257600080fd5b5060405162000d7038038062000d708339810160408190526200003591620001e2565b83838383836020815111806200004a57508051155b15620000725760405163c82fc46560e01b815261ea6a60048201526024015b60405180910390fd5b60200151608052826001600160a01b038116620000a75760405163c82fc46560e01b815261ebbf600482015260240162000069565b821580620000b75750620186a083115b80620000c1575081155b15620000e55760405163c82fc46560e01b815261ebbf600482015260240162000069565b6001600160a01b03841660a05260c083905260e08290526200010662000131565b6001600160d81b0316600160d81b4264ffffffffff1602176000555062000320975050505050505050565b600060a0516001600160a01b031663679aefce6040518163ffffffff1660e01b8152600401602060405180830381865afa15801562000174573d6000803e3d6000fd5b505050506040513d601f19601f820116820180604052508101906200019a9190620002da565b620001aa90633b9aca00620002f4565b905090565b634e487b7160e01b600052604160045260246000fd5b80516001600160a01b0381168114620001dd57600080fd5b919050565b60008060008060808587031215620001f957600080fd5b84516001600160401b03808211156200021157600080fd5b818701915087601f8301126200022657600080fd5b8151818111156200023b576200023b620001af565b604051601f8201601f19908116603f01168101908382118183101715620002665762000266620001af565b81604052828152602093508a848487010111156200028357600080fd5b600091505b82821015620002a7578482018401518183018501529083019062000288565b6000848483010152809850505050620002c2818801620001c5565b60408801516060909801519699909850945050505050565b600060208284031215620002ed57600080fd5b5051919050565b80820281158282048414176200031a57634e487b7160e01b600052601160045260246000fd5b92915050565b60805160a05160c05160e0516109fc620003746000396000818160d4015261045501526000818160b101526102e301526000818161012501526105bc015260008181610669015261072e01526109fc6000f3fe608060405234801561001057600080fd5b50600436106100a35760003560e01c80639dc1056611610076578063e6aa216c1161005b578063e6aa216c1461018c578063f3190c891461018c578063f763f7a6146101ce57600080fd5b80639dc10566146101b1578063abd5f95d146101b957600080fd5b806320e44e43146100a8578063679aefce1461016c5780637d7c2a1c146101825780638e7bfbc01461018c575b600080fd5b600054604080517f000000000000000000000000000000000000000000000000000000000000000081527f000000000000000000000000000000000000000000000000000000000000000060208201527b0100000000000000000000000000000000000000000000000000000090920464ffffffffff16908201527f000000000000000000000000000000000000000000000000000000000000000073ffffffffffffffffffffffffffffffffffffffff1660608201526080015b60405180910390f35b6101746101d6565b604051908152602001610163565b61018a610228565b005b6000547affffffffffffffffffffffffffffffffffffffffffffffffffffff16610174565b6101746103c5565b6101c161043a565b60405161016391906107bc565b610174610449565b6000805461020690633b9aca00907affffffffffffffffffffffffffffffffffffffffffffffffffffff16610886565b7affffffffffffffffffffffffffffffffffffffffffffffffffffff16905090565b600080547affffffffffffffffffffffffffffffffffffffffffffffffffffff16906102526105b8565b905080600003610297576040517fc82fc46500000000000000000000000000000000000000000000000000000000815261ebc260048201526024015b60405180910390fd5b6000818311156102bf5782828403620f424002816102b7576102b7610828565b0490506102e1565b828211156102e15782838303620f424002816102dd576102dd610828565b0490505b7f000000000000000000000000000000000000000000000000000000000000000081101561033f576040517fc82fc46500000000000000000000000000000000000000000000000000000000815261ebc1600482015260240161028e565b7affffffffffffffffffffffffffffffffffffffffffffffffffffff82167b010000000000000000000000000000000000000000000000000000004264ffffffffff16021760005560408051848152602081018490527f95f03a932c8aced8238058ac39deeaf30f8ddcbf42ade5ad3ada32f0d1338a08910160405180910390a1505050565b600080547affffffffffffffffffffffffffffffffffffffffffffffffffffff16816103ef6105b8565b9050808211156104175781818303620f4240028161040f5761040f610828565b049250505090565b818111156104355781828203620f4240028161040f5761040f610828565b505090565b6060610444610657565b905090565b6000805442906104a0907f0000000000000000000000000000000000000000000000000000000000000000907b01000000000000000000000000000000000000000000000000000000900464ffffffffff166108e7565b101561059457600080547affffffffffffffffffffffffffffffffffffffffffffffffffffff16906104d06105b8565b905080600003610510576040517fc82fc46500000000000000000000000000000000000000000000000000000000815261ebc2600482015260240161028e565b7affffffffffffffffffffffffffffffffffffffffffffffffffffff81167b010000000000000000000000000000000000000000000000000000004264ffffffffff16021760005560408051838152602081018390527f95f03a932c8aced8238058ac39deeaf30f8ddcbf42ade5ad3ada32f0d1338a08910160405180910390a150505b506000547affffffffffffffffffffffffffffffffffffffffffffffffffffff1690565b60007f000000000000000000000000000000000000000000000000000000000000000073ffffffffffffffffffffffffffffffffffffffff1663679aefce6040518163ffffffff1660e01b8152600401602060405180830381865afa158015610625573d6000803e3d6000fd5b505050506040513d601f19601f820116820180604052508101906106499190610900565b61044490633b9aca00610919565b606060005b6020811080156106c257507f0000000000000000000000000000000000000000000000000000000000000000816020811061069957610699610930565b1a60f81b7fff000000000000000000000000000000000000000000000000000000000000001615155b156106d957806106d18161095f565b91505061065c565b60008167ffffffffffffffff8111156106f4576106f4610997565b6040519080825280601f01601f19166020018201604052801561071e576020820181803683370190505b50905060005b828110156107b5577f0000000000000000000000000000000000000000000000000000000000000000816020811061075e5761075e610930565b1a60f81b82828151811061077457610774610930565b60200101907effffffffffffffffffffffffffffffffffffffffffffffffffffffffffffff1916908160001a905350806107ad8161095f565b915050610724565b5092915050565b600060208083528351808285015260005b818110156107e9578581018301518582016040015282016107cd565b5060006040828601015260407fffffffffffffffffffffffffffffffffffffffffffffffffffffffffffffffe0601f8301168501019250505092915050565b7f4e487b7100000000000000000000000000000000000000000000000000000000600052601260045260246000fd5b7f4e487b7100000000000000000000000000000000000000000000000000000000600052601160045260246000fd5b60007affffffffffffffffffffffffffffffffffffffffffffffffffffff808416806108db577f4e487b7100000000000000000000000000000000000000000000000000000000600052601260045260246000fd5b92169190910492915050565b808201808211156108fa576108fa610857565b92915050565b60006020828403121561091257600080fd5b5051919050565b80820281158282048414176108fa576108fa610857565b7f4e487b7100000000000000000000000000000000000000000000000000000000600052603260045260246000fd5b60007fffffffffffffffffffffffffffffffffffffffffffffffffffffffffffffffff820361099057610990610857565b5060010190565b7f4e487b7100000000000000000000000000000000000000000000000000000000600052604160045260246000fdfea26469706673582212200da40a02233b5a766b8f81879edaae55cc358fea641b88a3638d1795aaf4704b64736f6c63430008150033"
}