{
  "address": "0x3493eA918f4Bf1e6da5456347B22A74E80312ff2",
  "abi": [
    {
      "inputs": [
        {
          "internalType": "address",
          "name": "vaultFactory_",
          "type": "address"
        },
        {
          "internalType": "address",
          "name": "fluidWalletFactory_",
          "type": "address"
        }
      ],
      "stateMutability": "nonpayable",
      "type": "constructor"
    },
    {
      "inputs": [
        {
          "internalType": "uint256",
          "name": "errorId_",
          "type": "uint256"
        }
      ],
      "name": "FluidSafeTransferError",
      "type": "error"
    },
    {
      "inputs": [],
      "name": "FluidWallet__NotAllowed",
      "type": "error"
    },
    {
      "inputs": [],
      "name": "FluidWallet__ToHexDigit",
      "type": "error"
    },
    {
      "inputs": [],
      "name": "FluidWallet__Unauthorized",
      "type": "error"
    },
    {
      "anonymous": false,
      "inputs": [
        {
          "indexed": true,
          "internalType": "address",
          "name": "owner",
          "type": "address"
        },
        {
          "indexed": true,
          "internalType": "uint256",
          "name": "tokenId",
          "type": "uint256"
        }
      ],
      "name": "Executed",
      "type": "event"
    },
    {
      "anonymous": false,
      "inputs": [
        {
          "indexed": true,
          "internalType": "address",
          "name": "owner",
          "type": "address"
        }
      ],
      "name": "ExecutedCast",
      "type": "event"
    },
    {
      "inputs": [],
      "name": "ETH_ADDRESS",
      "outputs": [
        {
          "internalType": "address",
          "name": "",
          "type": "address"
        }
      ],
      "stateMutability": "view",
      "type": "function"
    },
    {
      "inputs": [],
      "name": "FLUID_WALLET_FACTORY",
      "outputs": [
        {
          "internalType": "address",
          "name": "",
          "type": "address"
        }
      ],
      "stateMutability": "view",
      "type": "function"
    },
    {
      "inputs": [],
      "name": "VAULT_FACTORY",
      "outputs": [
        {
          "internalType": "address",
          "name": "",
          "type": "address"
        }
      ],
      "stateMutability": "view",
      "type": "function"
    },
    {
      "inputs": [],
      "name": "VERSION",
      "outputs": [
        {
          "internalType": "string",
          "name": "",
          "type": "string"
        }
      ],
      "stateMutability": "view",
      "type": "function"
    },
    {
      "inputs": [
        {
          "components": [
            {
              "internalType": "address",
              "name": "target",
              "type": "address"
            },
            {
              "internalType": "bytes",
              "name": "data",
              "type": "bytes"
            },
            {
              "internalType": "uint256",
              "name": "value",
              "type": "uint256"
            },
            {
              "internalType": "uint8",
              "name": "operation",
              "type": "uint8"
            }
          ],
          "internalType": "struct FluidWalletErrorsAndEvents.Action[]",
          "name": "actions_",
          "type": "tuple[]"
        }
      ],
      "name": "cast",
      "outputs": [],
      "stateMutability": "payable",
      "type": "function"
    },
    {
      "inputs": [
        {
          "internalType": "address[]",
          "name": "",
          "type": "address[]"
        },
        {
          "internalType": "uint256[]",
          "name": "",
          "type": "uint256[]"
        },
        {
          "internalType": "uint256[]",
          "name": "",
          "type": "uint256[]"
        },
        {
          "internalType": "address",
          "name": "initiator_",
          "type": "address"
        },
        {
          "internalType": "bytes",
          "name": "data_",
          "type": "bytes"
        }
      ],
      "name": "executeOperation",
      "outputs": [
        {
          "internalType": "bool",
          "name": "",
          "type": "bool"
        }
      ],
      "stateMutability": "nonpayable",
      "type": "function"
    },
    {
      "inputs": [
        {
          "internalType": "address",
          "name": "operator_",
          "type": "address"
        },
        {
          "internalType": "address",
          "name": "from_",
          "type": "address"
        },
        {
          "internalType": "uint256",
          "name": "tokenId_",
          "type": "uint256"
        },
        {
          "internalType": "bytes",
          "name": "data_",
          "type": "bytes"
        }
      ],
      "name": "onERC721Received",
      "outputs": [
        {
          "internalType": "bytes4",
          "name": "",
          "type": "bytes4"
        }
      ],
      "stateMutability": "nonpayable",
      "type": "function"
    },
    {
      "inputs": [],
      "name": "owner",
      "outputs": [
        {
          "internalType": "address",
          "name": "",
          "type": "address"
        }
      ],
      "stateMutability": "view",
      "type": "function"
    }
  ],
  "transactionHash": "0x0e80be1deed1018e91ae60fc5cb0a6bb08e10ff757304e439ec5f4ee32f314f8",
  "args": [
    "0x324c5Dc1fC42c7a4D43d92df1eBA58a54d13Bf2d",
    "0xd8Ae986159e350B6535539B8A1e488658452f25E"
  ],
  "numDeployments": 4,
  "solcInputHash": "6baf7df2fd001b3de5a881b969c363ac",
  "bytecode": "0x60c06040523480156200001157600080fd5b50604051620026cb380380620026cb833981016040819052620000349162000069565b6001600160a01b039182166080521660a052620000a1565b80516001600160a01b03811681146200006457600080fd5b919050565b600080604083850312156200007d57600080fd5b62000088836200004c565b915062000098602084016200004c565b90509250929050565b60805160a0516125cd620000fe600039600081816101560152818161032b015281816106cd015261079301526000818160920152818161026d01528181610422015281816104fa01528181610b750152610c6c01526125cd6000f3fe60806040526004361061007b5760003560e01c80638da5cb5b1161004e5780638da5cb5b14610178578063920f5c84146101a5578063a734f06e146101d5578063ffa1ad74146101fd57600080fd5b8063103f290714610080578063150b7a02146100de57806357b7bf201461012f5780636ff66e7914610144575b600080fd5b34801561008c57600080fd5b506100b47f000000000000000000000000000000000000000000000000000000000000000081565b60405173ffffffffffffffffffffffffffffffffffffffff90911681526020015b60405180910390f35b3480156100ea57600080fd5b506100fe6100f93660046118a8565b610253565b6040517fffffffff0000000000000000000000000000000000000000000000000000000090911681526020016100d5565b61014261013d366004611be5565b6105d1565b005b34801561015057600080fd5b506100b47f000000000000000000000000000000000000000000000000000000000000000081565b34801561018457600080fd5b506000546100b49073ffffffffffffffffffffffffffffffffffffffff1681565b3480156101b157600080fd5b506101c56101c0366004611c67565b61061a565b60405190151581526020016100d5565b3480156101e157600080fd5b506100b473eeeeeeeeeeeeeeeeeeeeeeeeeeeeeeeeeeeeeeee81565b34801561020957600080fd5b506102466040518060400160405280600581526020017f312e312e3100000000000000000000000000000000000000000000000000000081525081565b6040516100d59190611db0565b60003373ffffffffffffffffffffffffffffffffffffffff7f000000000000000000000000000000000000000000000000000000000000000016146102c4576040517f52df424e00000000000000000000000000000000000000000000000000000000815260040160405180910390fd5b8473ffffffffffffffffffffffffffffffffffffffff168673ffffffffffffffffffffffffffffffffffffffff1614610329576040517f52df424e00000000000000000000000000000000000000000000000000000000815260040160405180910390fd5b7f000000000000000000000000000000000000000000000000000000000000000073ffffffffffffffffffffffffffffffffffffffff168673ffffffffffffffffffffffffffffffffffffffff16146103ae576040517f52df424e00000000000000000000000000000000000000000000000000000000815260040160405180910390fd5b6000806103bd84860186611dca565b915091506103ca826106c6565b6103d381610863565b6103dc60018055565b6040517f6352211e00000000000000000000000000000000000000000000000000000000815260048101879052309073ffffffffffffffffffffffffffffffffffffffff7f00000000000000000000000000000000000000000000000000000000000000001690636352211e90602401602060405180830381865afa158015610469573d6000803e3d6000fd5b505050506040513d601f19601f8201168201806040525081019061048d9190611e25565b73ffffffffffffffffffffffffffffffffffffffff1603610557576040517f23b872dd00000000000000000000000000000000000000000000000000000000815230600482015273ffffffffffffffffffffffffffffffffffffffff8381166024830152604482018890527f000000000000000000000000000000000000000000000000000000000000000016906323b872dd90606401600060405180830381600087803b15801561053e57600080fd5b505af1158015610552573d6000803e3d6000fd5b505050505b6105618287610b71565b604051869073ffffffffffffffffffffffffffffffffffffffff8416907f6f6c6d78a4851d4c222c8404fc92372ee84b7b81054305ae8ea3c83c2dabd42e90600090a3507f150b7a0200000000000000000000000000000000000000000000000000000000979650505050505050565b6105da336106c6565b6105e381610863565b6105ec60018055565b60405133907fd2c4fe7e5a558f9b1b406ce6cd257540e044fe92fa299597ed9656533c6a8c8d90600090a250565b600082824260405160200161063193929190611e42565b6040516020818303038152906040528051906020012060015414801561066c575073ffffffffffffffffffffffffffffffffffffffff841630145b6106a2576040517f38b760c500000000000000000000000000000000000000000000000000000000815260040160405180910390fd5b6106b66106b183850185611be5565b610863565b5060019998505050505050505050565b600061080e7f000000000000000000000000000000000000000000000000000000000000000073ffffffffffffffffffffffffffffffffffffffff1663ba8df43c6040518163ffffffff1660e01b8152600401602060405180830381865afa158015610736573d6000803e3d6000fd5b505050506040513d601f19601f8201168201806040525081019061075a9190611e25565b6040805173ffffffffffffffffffffffffffffffffffffffff8616602082015201604051602081830303815290604052805190602001207f000000000000000000000000000000000000000000000000000000000000000060405160388101919091526f5af43d82803e903d91602b57fd5bf3ff60248201526014810192909252733d602d80600a3d3981f3363d3d373d3d3d363d73825260588201526037600c8201206078820152605560439091012090565b905073ffffffffffffffffffffffffffffffffffffffff8116301461085f576040517f52df424e00000000000000000000000000000000000000000000000000000000815260040160405180910390fd5b5050565b805160005b81811015610b6c57600083828151811061088457610884611e99565b6020026020010151905060006060826060015160ff1660000361092f57826000015173ffffffffffffffffffffffffffffffffffffffff16836040015184602001516040516108d39190611ec8565b60006040518083038185875af1925050503d8060008114610910576040519150601f19603f3d011682016040523d82523d6000602084013e610915565b606091505b5090925090508161092a5761092a8482610d25565b610b5e565b826060015160ff166001036109c957826000015173ffffffffffffffffffffffffffffffffffffffff16836020015160405161096b9190611ec8565b600060405180830381855af49150503d80600081146109a6576040519150601f19603f3d011682016040523d82523d6000602084013e6109ab565b606091505b5090925090506109ba60018055565b8161092a5761092a8482610d25565b826060015160ff16600203610ade57602083015160048101805190916109f791810160249081019101611f8f565b50604051909450610a1193508492504291506020016120a7565b604080517fffffffffffffffffffffffffffffffffffffffffffffffffffffffffffffffe081840301815282825280516020918201206001558651918701519087015173ffffffffffffffffffffffffffffffffffffffff909216929091610a7891611ec8565b60006040518083038185875af1925050503d8060008114610ab5576040519150601f19603f3d011682016040523d82523d6000602084013e610aba565b606091505b50909350915082610acf57610acf8583610d25565b610ad860018055565b50610b5e565b610ae784610d48565b604051602001610af791906120c9565b604080517fffffffffffffffffffffffffffffffffffffffffffffffffffffffffffffffe0818403018152908290527f08c379a0000000000000000000000000000000000000000000000000000000008252610b5591600401611db0565b60405180910390fd5b836001019350505050610868565b505050565b60007f000000000000000000000000000000000000000000000000000000000000000073ffffffffffffffffffffffffffffffffffffffff1663b5c736e4610bba600385610e06565b6040518263ffffffff1660e01b8152600401610bd891815260200190565b602060405180830381865afa158015610bf5573d6000803e3d6000fd5b505050506040513d601f19601f82011682018060405250810190610c19919061210a565b6040517fe6bd26a200000000000000000000000000000000000000000000000000000000815260c082901c63ffffffff16600482015290915060009073ffffffffffffffffffffffffffffffffffffffff7f0000000000000000000000000000000000000000000000000000000000000000169063e6bd26a290602401602060405180830381865afa158015610cb3573d6000803e3d6000fd5b505050506040513d601f19601f82011682018060405250810190610cd79190611e25565b90506000610ce482610e35565b9050610cf481600001518661107c565b610d0281602001518661107c565b610d1081604001518661107c565b610d1e81606001518661107c565b5050505050565b610d2e82610d48565b610d378261118d565b604051602001610af7929190612123565b60606000610d5583611602565b600101905060008167ffffffffffffffff811115610d7557610d7561191b565b6040519080825280601f01601f191660200182016040528015610d9f576020820181803683370190505b5090508181016020015b7fffffffffffffffffffffffffffffffffffffffffffffffffffffffffffffffff017f3031323334353637383961626364656600000000000000000000000000000000600a86061a8153600a8504945084610da957509392505050565b604080516020808201849052818301859052825180830384018152606090920190925280519101205b92915050565b6040805160808101825260008082526020820181905291810182905260608101919091528173ffffffffffffffffffffffffffffffffffffffff163b600003610e7d57919050565b8173ffffffffffffffffffffffffffffffffffffffff1663bb24fe8a6040518163ffffffff1660e01b8152600401602060405180830381865afa925050508015610f02575060408051601f3d9081017fffffffffffffffffffffffffffffffffffffffffffffffffffffffffffffffe0168201909252610eff9181019061210a565b60015b610fb75760008273ffffffffffffffffffffffffffffffffffffffff1663b7791bf26040518163ffffffff1660e01b81526004016101a060405180830381865afa158015610f54573d6000803e3d6000fd5b505050506040513d601f19601f82011682018060405250810190610f78919061218c565b608081015173ffffffffffffffffffffffffffffffffffffffff908116845260006020850181905260a090920151166040840152606083015250919050565b60008373ffffffffffffffffffffffffffffffffffffffff1663b7791bf26040518163ffffffff1660e01b815260040161024060405180830381865afa158015611005573d6000803e3d6000fd5b505050506040513d601f19601f8201168201806040525081019061102991906122ce565b610100810180515173ffffffffffffffffffffffffffffffffffffffff9081168652905160209081015182168187015261012090920180515182166040870152519091015116606084015250505b919050565b73ffffffffffffffffffffffffffffffffffffffff821661109b575050565b7fffffffffffffffffffffffff111111111111111111111111111111111111111273ffffffffffffffffffffffffffffffffffffffff8316016110e957478015610b6c57610b6c82826116e4565b6040517f70a0823100000000000000000000000000000000000000000000000000000000815230600482015260009073ffffffffffffffffffffffffffffffffffffffff8416906370a0823190602401602060405180830381865afa158015611156573d6000803e3d6000fd5b505050506040513d601f19601f8201168201806040525081019061117a919061210a565b90508015610b6c57610b6c838383611730565b60606004825110156111d257505060408051808201909152601381527f5f524541534f4e5f4e4f545f444546494e454400000000000000000000000000602082015290565b60208201517fb1b7848f000000000000000000000000000000000000000000000000000000007fffffffff0000000000000000000000000000000000000000000000000000000082160161135e5760408051600280825281830190925260009160208201818036833701905050905061127c601085600187516112559190612415565b8151811061126557611265611e99565b0160200151611277919060f81c612428565b6117da565b8160008151811061128f5761128f611e99565b60200101907effffffffffffffffffffffffffffffffffffffffffffffffffffffffffffff1916908160001a9053506112f4601085600187516112d29190612415565b815181106112e2576112e2611e99565b0160200151611277919060f81c61244a565b8160018151811061130757611307611e99565b60200101907effffffffffffffffffffffffffffffffffffffffffffffffffffffffffffff1916908160001a90535080604051602001611347919061246c565b604051602081830303815290604052925050611522565b7ff73c8660000000000000000000000000000000000000000000000000000000007fffffffff000000000000000000000000000000000000000000000000000000008216016113e757600483019250828060200190518101906113c191906124b1565b6040516020016113d191906124fa565b6040516020818303038152906040529150611522565b60408051600880825281830190925260009160208201818036833701905050905060005b60048110156114fd5761143f601084836004811061142b5761142b611e99565b1a8161143957611439612152565b046117da565b82826002028151811061145457611454611e99565b60200101907effffffffffffffffffffffffffffffffffffffffffffffffffffffffffffff1916908160001a9053506114ae601084836004811061149a5761149a611e99565b1a816114a8576114a8612152565b066117da565b8282600202600101815181106114c6576114c6611e99565b60200101907effffffffffffffffffffffffffffffffffffffffffffffffffffffffffffff1916908160001a90535060010161140b565b508060405160200161150f919061253f565b6040516020818303038152906040529250505b60fa825111156115fc5781600061153b60fa6001612584565b905060008167ffffffffffffffff8111156115585761155861191b565b6040519080825280601f01601f191660200182016040528015611582576020820181803683370190505b50905060005b828110156115f6578381815181106115a2576115a2611e99565b602001015160f81c60f81b8282815181106115bf576115bf611e99565b60200101907effffffffffffffffffffffffffffffffffffffffffffffffffffffffffffff1916908160001a905350600101611588565b50935050505b50919050565b6000807a184f03e93ff9f4daa797ed6e38ed64bf6a1f010000000000000000831061164b577a184f03e93ff9f4daa797ed6e38ed64bf6a1f010000000000000000830492506040015b6d04ee2d6d415b85acef81000000008310611677576d04ee2d6d415b85acef8100000000830492506020015b662386f26fc10000831061169557662386f26fc10000830492506010015b6305f5e10083106116ad576305f5e100830492506008015b61271083106116c157612710830492506004015b606483106116d3576064830492506002015b600a8310610e2f5760010192915050565b60008060008060008587614e20f1905080610b6c576040517fdee51a8a0000000000000000000000000000000000000000000000000000000081526201155a6004820152602401610b55565b60006040517fa9059cbb00000000000000000000000000000000000000000000000000000000815273ffffffffffffffffffffffffffffffffffffffff84166004820152826024820152602060006044836000895af13d15601f3d11600160005114161716915050806117d4576040517fdee51a8a0000000000000000000000000000000000000000000000000000000081526201155a6004820152602401610b55565b50505050565b6000600a8260ff1610156117f2575060300160f81b90565b60108260ff161015611808575060570160f81b90565b6040517fb0b8d61a00000000000000000000000000000000000000000000000000000000815260040160405180910390fd5b73ffffffffffffffffffffffffffffffffffffffff8116811461185c57600080fd5b50565b60008083601f84011261187157600080fd5b50813567ffffffffffffffff81111561188957600080fd5b6020830191508360208285010111156118a157600080fd5b9250929050565b6000806000806000608086880312156118c057600080fd5b85356118cb8161183a565b945060208601356118db8161183a565b935060408601359250606086013567ffffffffffffffff8111156118fe57600080fd5b61190a8882890161185f565b969995985093965092949392505050565b7f4e487b7100000000000000000000000000000000000000000000000000000000600052604160045260246000fd5b6040516080810167ffffffffffffffff8111828210171561196d5761196d61191b565b60405290565b6040516101a0810167ffffffffffffffff8111828210171561196d5761196d61191b565b604051610200810167ffffffffffffffff8111828210171561196d5761196d61191b565b604051601f82017fffffffffffffffffffffffffffffffffffffffffffffffffffffffffffffffe016810167ffffffffffffffff81118282101715611a0257611a0261191b565b604052919050565b600067ffffffffffffffff821115611a2457611a2461191b565b5060051b60200190565b600067ffffffffffffffff821115611a4857611a4861191b565b50601f017fffffffffffffffffffffffffffffffffffffffffffffffffffffffffffffffe01660200190565b60ff8116811461185c57600080fd5b803561107781611a74565b600082601f830112611a9f57600080fd5b81356020611ab4611aaf83611a0a565b6119bb565b82815260059290921b84018101918181019086841115611ad357600080fd5b8286015b84811015611bda57803567ffffffffffffffff80821115611af85760008081fd5b81890191506080807fffffffffffffffffffffffffffffffffffffffffffffffffffffffffffffffe0848d03011215611b315760008081fd5b611b3961194a565b87840135611b468161183a565b815260408481013584811115611b5c5760008081fd5b85019350603f84018d13611b705760008081fd5b88840135611b80611aaf82611a2e565b8181528e83838801011115611b955760008081fd5b818387018c83013760008b8383010152808b850152505060609350838501358183015250611bc4828501611a83565b9281019290925250845250918301918301611ad7565b509695505050505050565b600060208284031215611bf757600080fd5b813567ffffffffffffffff811115611c0e57600080fd5b611c1a84828501611a8e565b949350505050565b60008083601f840112611c3457600080fd5b50813567ffffffffffffffff811115611c4c57600080fd5b6020830191508360208260051b85010111156118a157600080fd5b600080600080600080600080600060a08a8c031215611c8557600080fd5b893567ffffffffffffffff80821115611c9d57600080fd5b611ca98d838e01611c22565b909b50995060208c0135915080821115611cc257600080fd5b611cce8d838e01611c22565b909950975060408c0135915080821115611ce757600080fd5b611cf38d838e01611c22565b909750955060608c01359150611d088261183a565b90935060808b01359080821115611d1e57600080fd5b50611d2b8c828d0161185f565b915080935050809150509295985092959850929598565b60005b83811015611d5d578181015183820152602001611d45565b50506000910152565b60008151808452611d7e816020860160208601611d42565b601f017fffffffffffffffffffffffffffffffffffffffffffffffffffffffffffffffe0169290920160200192915050565b602081526000611dc36020830184611d66565b9392505050565b60008060408385031215611ddd57600080fd5b8235611de88161183a565b9150602083013567ffffffffffffffff811115611e0457600080fd5b611e1085828601611a8e565b9150509250929050565b80516110778161183a565b600060208284031215611e3757600080fd5b8151611dc38161183a565b6040815282604082015282846060830137600060608483010152600060607fffffffffffffffffffffffffffffffffffffffffffffffffffffffffffffffe0601f8601168301019050826020830152949350505050565b7f4e487b7100000000000000000000000000000000000000000000000000000000600052603260045260246000fd5b60008251611eda818460208701611d42565b9190910192915050565b600082601f830112611ef557600080fd5b81516020611f05611aaf83611a0a565b82815260059290921b84018101918181019086841115611f2457600080fd5b8286015b84811015611bda5780518352918301918301611f28565b6000611f4d611aaf84611a2e565b9050828152838383011115611f6157600080fd5b611dc3836020830184611d42565b600082601f830112611f8057600080fd5b611dc383835160208501611f3f565b600080600080600060a08688031215611fa757600080fd5b855167ffffffffffffffff80821115611fbf57600080fd5b818801915088601f830112611fd357600080fd5b81516020611fe3611aaf83611a0a565b82815260059290921b8401810191818101908c84111561200257600080fd5b948201945b8386101561202957855161201a8161183a565b82529482019490820190612007565b918b015191995090935050508082111561204257600080fd5b61204e89838a01611ee4565b955060408801519450606088015191508082111561206b57600080fd5b61207789838a01611f6f565b9350608088015191508082111561208d57600080fd5b5061209a88828901611f6f565b9150509295509295909350565b6040815260006120ba6040830185611d66565b90508260208301529392505050565b600082516120db818460208701611d42565b7f5f464c5549445f5f494e56414c49445f49445f4f525f4f5045524154494f4e00920191825250601f01919050565b60006020828403121561211c57600080fd5b5051919050565b60008351612135818460208801611d42565b835190830190612149818360208801611d42565b01949350505050565b7f4e487b7100000000000000000000000000000000000000000000000000000000600052601260045260246000fd5b805161107781611a74565b60006101a0828403121561219f57600080fd5b6121a7611973565b6121b083611e1a565b81526121be60208401611e1a565b60208201526121cf60408401611e1a565b60408201526121e060608401611e1a565b60608201526121f160808401611e1a565b608082015261220260a08401611e1a565b60a082015261221360c08401612181565b60c082015261222460e08401612181565b60e08201526101008381015190820152610120808401519082015261014080840151908201526101608084015190820152610180928301519281019290925250919050565b60006040828403121561227b57600080fd5b6040516040810181811067ffffffffffffffff8211171561229e5761229e61191b565b806040525080915082516122b18161183a565b815260208301516122c18161183a565b6020919091015292915050565b600061024082840312156122e157600080fd5b6122e9611997565b6122f283611e1a565b815261230060208401611e1a565b602082015261231160408401611e1a565b604082015261232260608401611e1a565b606082015261233360808401611e1a565b608082015261234460a08401611e1a565b60a082015261235560c08401611e1a565b60c082015261236660e08401611e1a565b60e082015261010061237a85828601612269565b9082015261014061238d85858301612269565b61012083015261018080850151828401526101a09150818501516101608401526101c080860151828501526101e09150818601518385015261020086015181850152506102208501518184015250508091505092915050565b7f4e487b7100000000000000000000000000000000000000000000000000000000600052601160045260246000fd5b81810381811115610e2f57610e2f6123e6565b600060ff83168061243b5761243b612152565b8060ff84160491505092915050565b600060ff83168061245d5761245d612152565b8060ff84160691505092915050565b7f5f5441524745545f50414e49434b45443a2030780000000000000000000000008152600082516124a4816014850160208701611d42565b9190910160140192915050565b6000602082840312156124c357600080fd5b815167ffffffffffffffff8111156124da57600080fd5b8201601f810184136124eb57600080fd5b611c1a84825160208401611f3f565b7f5f00000000000000000000000000000000000000000000000000000000000000815260008251612532816001850160208701611d42565b9190910160010192915050565b7f5f435553544f4d5f4552524f523a203078000000000000000000000000000000815260008251612577816011850160208701611d42565b9190910160110192915050565b80820180821115610e2f57610e2f6123e656fea26469706673582212205b0a0f38f42c7526691833329cef49620ddf056bd8e0039f72a78265b3bef2fc64736f6c63430008150033",
  "devdoc": {
    "kind": "dev",
    "methods": {
      "executeOperation(address[],uint256[],uint256[],address,bytes)": {
        "params": {
          "data_": "data bytes containing the `abi.encoded()` actions that are executed like in `CastParams.actions`",
          "initiator_": "flashloan initiator -> must be this contract"
        }
      },
      "onERC721Received(address,address,uint256,bytes)": {
        "details": "ERC721 callback used Fluid Vault Factory and executes actions encoded in `data_`                         Caller should be Fluid Wallet Factory.",
        "params": {
          "data_": "data bytes containing the `abi.encoded()` actions that are executed like in `Action[]` & `owner`",
          "from_": "from_ previous owner of the given token ID",
          "operator_": "operator_ caller to transfer the the given token ID",
          "tokenId_": "tokenId_ id of the ERC721"
        }
      }
    },
    "version": 1
  },
  "userdoc": {
    "kind": "user",
    "methods": {},
    "version": 1
  },
  "storageLayout": {
    "storage": [
      {
        "astId": 4375,
        "contract": "contracts/periphery/wallet/wallet/main.sol:FluidWalletImplementation",
        "label": "owner",
        "offset": 0,
        "slot": "0",
        "type": "t_address"
      },
      {
        "astId": 4378,
        "contract": "contracts/periphery/wallet/wallet/main.sol:FluidWalletImplementation",
        "label": "_transientAllowHash",
        "offset": 0,
        "slot": "1",
        "type": "t_bytes32"
      }
    ],
    "types": {
      "t_address": {
        "encoding": "inplace",
        "label": "address",
        "numberOfBytes": "20"
      },
      "t_bytes32": {
        "encoding": "inplace",
        "label": "bytes32",
        "numberOfBytes": "32"
      }
    }
  }
}