{
  "address": "0x99b19A93Ba0F516b173eeF53d07b3253FbCfD564",
  "abi": [
    {
      "inputs": [
        {
          "internalType": "address",
          "name": "dexLite_",
          "type": "address"
        },
        {
          "internalType": "address",
          "name": "liquidity_",
          "type": "address"
        },
        {
          "internalType": "address",
          "name": "deployerContract_",
          "type": "address"
        }
      ],
      "stateMutability": "nonpayable",
      "type": "constructor"
    },
    {
      "inputs": [
        {
          "internalType": "address[]",
          "name": "path_",
          "type": "address[]"
        },
        {
          "components": [
            {
              "internalType": "address",
              "name": "token0",
              "type": "address"
            },
            {
              "internalType": "address",
              "name": "token1",
              "type": "address"
            },
            {
              "internalType": "bytes32",
              "name": "salt",
              "type": "bytes32"
            }
          ],
          "internalType": "struct DexKey[]",
          "name": "dexKeys_",
          "type": "tuple[]"
        },
        {
          "internalType": "int256",
          "name": "amountSpecified_",
          "type": "int256"
        }
      ],
      "name": "estimateSwapHop",
      "outputs": [
        {
          "internalType": "uint256",
          "name": "amountUnspecified_",
          "type": "uint256"
        }
      ],
      "stateMutability": "nonpayable",
      "type": "function"
    },
    {
      "inputs": [
        {
          "components": [
            {
              "internalType": "address",
              "name": "token0",
              "type": "address"
            },
            {
              "internalType": "address",
              "name": "token1",
              "type": "address"
            },
            {
              "internalType": "bytes32",
              "name": "salt",
              "type": "bytes32"
            }
          ],
          "internalType": "struct DexKey",
          "name": "dexKey_",
          "type": "tuple"
        },
        {
          "internalType": "bool",
          "name": "swap0To1_",
          "type": "bool"
        },
        {
          "internalType": "int256",
          "name": "amountSpecified_",
          "type": "int256"
        }
      ],
      "name": "estimateSwapSingle",
      "outputs": [
        {
          "internalType": "uint256",
          "name": "amountUnspecified_",
          "type": "uint256"
        }
      ],
      "stateMutability": "nonpayable",
      "type": "function"
    },
    {
      "inputs": [],
      "name": "getAllDexes",
      "outputs": [
        {
          "components": [
            {
              "internalType": "address",
              "name": "token0",
              "type": "address"
            },
            {
              "internalType": "address",
              "name": "token1",
              "type": "address"
            },
            {
              "internalType": "bytes32",
              "name": "salt",
              "type": "bytes32"
            }
          ],
          "internalType": "struct DexKey[]",
          "name": "",
          "type": "tuple[]"
        }
      ],
      "stateMutability": "view",
      "type": "function"
    },
    {
      "inputs": [],
      "name": "getAllDexesEntireData",
      "outputs": [
        {
          "components": [
            {
              "internalType": "bytes8",
              "name": "dexId",
              "type": "bytes8"
            },
            {
              "components": [
                {
                  "internalType": "address",
                  "name": "token0",
                  "type": "address"
                },
                {
                  "internalType": "address",
                  "name": "token1",
                  "type": "address"
                },
                {
                  "internalType": "bytes32",
                  "name": "salt",
                  "type": "bytes32"
                }
              ],
              "internalType": "struct DexKey",
              "name": "dexKey",
              "type": "tuple"
            },
            {
              "components": [
                {
                  "internalType": "address",
                  "name": "liquidity",
                  "type": "address"
                },
                {
                  "internalType": "address",
                  "name": "deployer",
                  "type": "address"
                }
              ],
              "internalType": "struct ConstantViews",
              "name": "constantViews",
              "type": "tuple"
            },
            {
              "components": [
                {
                  "internalType": "uint256",
                  "name": "poolPrice",
                  "type": "uint256"
                },
                {
                  "internalType": "uint256",
                  "name": "centerPrice",
                  "type": "uint256"
                },
                {
                  "internalType": "uint256",
                  "name": "upperRangePrice",
                  "type": "uint256"
                },
                {
                  "internalType": "uint256",
                  "name": "lowerRangePrice",
                  "type": "uint256"
                },
                {
                  "internalType": "uint256",
                  "name": "upperThresholdPrice",
                  "type": "uint256"
                },
                {
                  "internalType": "uint256",
                  "name": "lowerThresholdPrice",
                  "type": "uint256"
                }
              ],
              "internalType": "struct Prices",
              "name": "prices",
              "type": "tuple"
            },
            {
              "components": [
                {
                  "internalType": "uint256",
                  "name": "token0RealReserves",
                  "type": "uint256"
                },
                {
                  "internalType": "uint256",
                  "name": "token1RealReserves",
                  "type": "uint256"
                },
                {
                  "internalType": "uint256",
                  "name": "token0ImaginaryReserves",
                  "type": "uint256"
                },
                {
                  "internalType": "uint256",
                  "name": "token1ImaginaryReserves",
                  "type": "uint256"
                }
              ],
              "internalType": "struct Reserves",
              "name": "reserves",
              "type": "tuple"
            },
            {
              "components": [
                {
                  "components": [
                    {
                      "internalType": "uint256",
                      "name": "fee",
                      "type": "uint256"
                    },
                    {
                      "internalType": "uint256",
                      "name": "revenueCut",
                      "type": "uint256"
                    },
                    {
                      "internalType": "uint256",
                      "name": "rebalancingStatus",
                      "type": "uint256"
                    },
                    {
                      "internalType": "bool",
                      "name": "isCenterPriceShiftActive",
                      "type": "bool"
                    },
                    {
                      "internalType": "uint256",
                      "name": "centerPrice",
                      "type": "uint256"
                    },
                    {
                      "internalType": "address",
                      "name": "centerPriceAddress",
                      "type": "address"
                    },
                    {
                      "internalType": "bool",
                      "name": "isRangePercentShiftActive",
                      "type": "bool"
                    },
                    {
                      "internalType": "uint256",
                      "name": "upperRangePercent",
                      "type": "uint256"
                    },
                    {
                      "internalType": "uint256",
                      "name": "lowerRangePercent",
                      "type": "uint256"
                    },
                    {
                      "internalType": "bool",
                      "name": "isThresholdPercentShiftActive",
                      "type": "bool"
                    },
                    {
                      "internalType": "uint256",
                      "name": "upperShiftThresholdPercent",
                      "type": "uint256"
                    },
                    {
                      "internalType": "uint256",
                      "name": "lowerShiftThresholdPercent",
                      "type": "uint256"
                    },
                    {
                      "internalType": "uint256",
                      "name": "token0Decimals",
                      "type": "uint256"
                    },
                    {
                      "internalType": "uint256",
                      "name": "token1Decimals",
                      "type": "uint256"
                    },
                    {
                      "internalType": "uint256",
                      "name": "totalToken0AdjustedAmount",
                      "type": "uint256"
                    },
                    {
                      "internalType": "uint256",
                      "name": "totalToken1AdjustedAmount",
                      "type": "uint256"
                    }
                  ],
                  "internalType": "struct DexVariables",
                  "name": "dexVariables",
                  "type": "tuple"
                },
                {
                  "components": [
                    {
                      "internalType": "uint256",
                      "name": "lastInteractionTimestamp",
                      "type": "uint256"
                    },
                    {
                      "internalType": "uint256",
                      "name": "rebalancingShiftingTime",
                      "type": "uint256"
                    },
                    {
                      "internalType": "uint256",
                      "name": "maxCenterPrice",
                      "type": "uint256"
                    },
                    {
                      "internalType": "uint256",
                      "name": "minCenterPrice",
                      "type": "uint256"
                    },
                    {
                      "internalType": "uint256",
                      "name": "shiftPercentage",
                      "type": "uint256"
                    },
                    {
                      "internalType": "uint256",
                      "name": "centerPriceShiftingTime",
                      "type": "uint256"
                    },
                    {
                      "internalType": "uint256",
                      "name": "startTimestamp",
                      "type": "uint256"
                    }
                  ],
                  "internalType": "struct CenterPriceShift",
                  "name": "centerPriceShift",
                  "type": "tuple"
                },
                {
                  "components": [
                    {
                      "internalType": "uint256",
                      "name": "oldUpperRangePercent",
                      "type": "uint256"
                    },
                    {
                      "internalType": "uint256",
                      "name": "oldLowerRangePercent",
                      "type": "uint256"
                    },
                    {
                      "internalType": "uint256",
                      "name": "shiftingTime",
                      "type": "uint256"
                    },
                    {
                      "internalType": "uint256",
                      "name": "startTimestamp",
                      "type": "uint256"
                    }
                  ],
                  "internalType": "struct RangeShift",
                  "name": "rangeShift",
                  "type": "tuple"
                },
                {
                  "components": [
                    {
                      "internalType": "uint256",
                      "name": "oldUpperThresholdPercent",
                      "type": "uint256"
                    },
                    {
                      "internalType": "uint256",
                      "name": "oldLowerThresholdPercent",
                      "type": "uint256"
                    },
                    {
                      "internalType": "uint256",
                      "name": "shiftingTime",
                      "type": "uint256"
                    },
                    {
                      "internalType": "uint256",
                      "name": "startTimestamp",
                      "type": "uint256"
                    }
                  ],
                  "internalType": "struct ThresholdShift",
                  "name": "thresholdShift",
                  "type": "tuple"
                }
              ],
              "internalType": "struct DexState",
              "name": "dexState",
              "type": "tuple"
            }
          ],
          "internalType": "struct DexEntireData[]",
          "name": "allDexesEntireData_",
          "type": "tuple[]"
        }
      ],
      "stateMutability": "nonpayable",
      "type": "function"
    },
    {
      "inputs": [
        {
          "components": [
            {
              "internalType": "address",
              "name": "token0",
              "type": "address"
            },
            {
              "internalType": "address",
              "name": "token1",
              "type": "address"
            },
            {
              "internalType": "bytes32",
              "name": "salt",
              "type": "bytes32"
            }
          ],
          "internalType": "struct DexKey",
          "name": "dexKey_",
          "type": "tuple"
        }
      ],
      "name": "getDexEntireData",
      "outputs": [
        {
          "components": [
            {
              "internalType": "bytes8",
              "name": "dexId",
              "type": "bytes8"
            },
            {
              "components": [
                {
                  "internalType": "address",
                  "name": "token0",
                  "type": "address"
                },
                {
                  "internalType": "address",
                  "name": "token1",
                  "type": "address"
                },
                {
                  "internalType": "bytes32",
                  "name": "salt",
                  "type": "bytes32"
                }
              ],
              "internalType": "struct DexKey",
              "name": "dexKey",
              "type": "tuple"
            },
            {
              "components": [
                {
                  "internalType": "address",
                  "name": "liquidity",
                  "type": "address"
                },
                {
                  "internalType": "address",
                  "name": "deployer",
                  "type": "address"
                }
              ],
              "internalType": "struct ConstantViews",
              "name": "constantViews",
              "type": "tuple"
            },
            {
              "components": [
                {
                  "internalType": "uint256",
                  "name": "poolPrice",
                  "type": "uint256"
                },
                {
                  "internalType": "uint256",
                  "name": "centerPrice",
                  "type": "uint256"
                },
                {
                  "internalType": "uint256",
                  "name": "upperRangePrice",
                  "type": "uint256"
                },
                {
                  "internalType": "uint256",
                  "name": "lowerRangePrice",
                  "type": "uint256"
                },
                {
                  "internalType": "uint256",
                  "name": "upperThresholdPrice",
                  "type": "uint256"
                },
                {
                  "internalType": "uint256",
                  "name": "lowerThresholdPrice",
                  "type": "uint256"
                }
              ],
              "internalType": "struct Prices",
              "name": "prices",
              "type": "tuple"
            },
            {
              "components": [
                {
                  "internalType": "uint256",
                  "name": "token0RealReserves",
                  "type": "uint256"
                },
                {
                  "internalType": "uint256",
                  "name": "token1RealReserves",
                  "type": "uint256"
                },
                {
                  "internalType": "uint256",
                  "name": "token0ImaginaryReserves",
                  "type": "uint256"
                },
                {
                  "internalType": "uint256",
                  "name": "token1ImaginaryReserves",
                  "type": "uint256"
                }
              ],
              "internalType": "struct Reserves",
              "name": "reserves",
              "type": "tuple"
            },
            {
              "components": [
                {
                  "components": [
                    {
                      "internalType": "uint256",
                      "name": "fee",
                      "type": "uint256"
                    },
                    {
                      "internalType": "uint256",
                      "name": "revenueCut",
                      "type": "uint256"
                    },
                    {
                      "internalType": "uint256",
                      "name": "rebalancingStatus",
                      "type": "uint256"
                    },
                    {
                      "internalType": "bool",
                      "name": "isCenterPriceShiftActive",
                      "type": "bool"
                    },
                    {
                      "internalType": "uint256",
                      "name": "centerPrice",
                      "type": "uint256"
                    },
                    {
                      "internalType": "address",
                      "name": "centerPriceAddress",
                      "type": "address"
                    },
                    {
                      "internalType": "bool",
                      "name": "isRangePercentShiftActive",
                      "type": "bool"
                    },
                    {
                      "internalType": "uint256",
                      "name": "upperRangePercent",
                      "type": "uint256"
                    },
                    {
                      "internalType": "uint256",
                      "name": "lowerRangePercent",
                      "type": "uint256"
                    },
                    {
                      "internalType": "bool",
                      "name": "isThresholdPercentShiftActive",
                      "type": "bool"
                    },
                    {
                      "internalType": "uint256",
                      "name": "upperShiftThresholdPercent",
                      "type": "uint256"
                    },
                    {
                      "internalType": "uint256",
                      "name": "lowerShiftThresholdPercent",
                      "type": "uint256"
                    },
                    {
                      "internalType": "uint256",
                      "name": "token0Decimals",
                      "type": "uint256"
                    },
                    {
                      "internalType": "uint256",
                      "name": "token1Decimals",
                      "type": "uint256"
                    },
                    {
                      "internalType": "uint256",
                      "name": "totalToken0AdjustedAmount",
                      "type": "uint256"
                    },
                    {
                      "internalType": "uint256",
                      "name": "totalToken1AdjustedAmount",
                      "type": "uint256"
                    }
                  ],
                  "internalType": "struct DexVariables",
                  "name": "dexVariables",
                  "type": "tuple"
                },
                {
                  "components": [
                    {
                      "internalType": "uint256",
                      "name": "lastInteractionTimestamp",
                      "type": "uint256"
                    },
                    {
                      "internalType": "uint256",
                      "name": "rebalancingShiftingTime",
                      "type": "uint256"
                    },
                    {
                      "internalType": "uint256",
                      "name": "maxCenterPrice",
                      "type": "uint256"
                    },
                    {
                      "internalType": "uint256",
                      "name": "minCenterPrice",
                      "type": "uint256"
                    },
                    {
                      "internalType": "uint256",
                      "name": "shiftPercentage",
                      "type": "uint256"
                    },
                    {
                      "internalType": "uint256",
                      "name": "centerPriceShiftingTime",
                      "type": "uint256"
                    },
                    {
                      "internalType": "uint256",
                      "name": "startTimestamp",
                      "type": "uint256"
                    }
                  ],
                  "internalType": "struct CenterPriceShift",
                  "name": "centerPriceShift",
                  "type": "tuple"
                },
                {
                  "components": [
                    {
                      "internalType": "uint256",
                      "name": "oldUpperRangePercent",
                      "type": "uint256"
                    },
                    {
                      "internalType": "uint256",
                      "name": "oldLowerRangePercent",
                      "type": "uint256"
                    },
                    {
                      "internalType": "uint256",
                      "name": "shiftingTime",
                      "type": "uint256"
                    },
                    {
                      "internalType": "uint256",
                      "name": "startTimestamp",
                      "type": "uint256"
                    }
                  ],
                  "internalType": "struct RangeShift",
                  "name": "rangeShift",
                  "type": "tuple"
                },
                {
                  "components": [
                    {
                      "internalType": "uint256",
                      "name": "oldUpperThresholdPercent",
                      "type": "uint256"
                    },
                    {
                      "internalType": "uint256",
                      "name": "oldLowerThresholdPercent",
                      "type": "uint256"
                    },
                    {
                      "internalType": "uint256",
                      "name": "shiftingTime",
                      "type": "uint256"
                    },
                    {
                      "internalType": "uint256",
                      "name": "startTimestamp",
                      "type": "uint256"
                    }
                  ],
                  "internalType": "struct ThresholdShift",
                  "name": "thresholdShift",
                  "type": "tuple"
                }
              ],
              "internalType": "struct DexState",
              "name": "dexState",
              "type": "tuple"
            }
          ],
          "internalType": "struct DexEntireData",
          "name": "entireData_",
          "type": "tuple"
        }
      ],
      "stateMutability": "nonpayable",
      "type": "function"
    },
    {
      "inputs": [
        {
          "components": [
            {
              "internalType": "address",
              "name": "token0",
              "type": "address"
            },
            {
              "internalType": "address",
              "name": "token1",
              "type": "address"
            },
            {
              "internalType": "bytes32",
              "name": "salt",
              "type": "bytes32"
            }
          ],
          "internalType": "struct DexKey",
          "name": "dexKey",
          "type": "tuple"
        }
      ],
      "name": "getDexState",
      "outputs": [
        {
          "components": [
            {
              "components": [
                {
                  "internalType": "uint256",
                  "name": "fee",
                  "type": "uint256"
                },
                {
                  "internalType": "uint256",
                  "name": "revenueCut",
                  "type": "uint256"
                },
                {
                  "internalType": "uint256",
                  "name": "rebalancingStatus",
                  "type": "uint256"
                },
                {
                  "internalType": "bool",
                  "name": "isCenterPriceShiftActive",
                  "type": "bool"
                },
                {
                  "internalType": "uint256",
                  "name": "centerPrice",
                  "type": "uint256"
                },
                {
                  "internalType": "address",
                  "name": "centerPriceAddress",
                  "type": "address"
                },
                {
                  "internalType": "bool",
                  "name": "isRangePercentShiftActive",
                  "type": "bool"
                },
                {
                  "internalType": "uint256",
                  "name": "upperRangePercent",
                  "type": "uint256"
                },
                {
                  "internalType": "uint256",
                  "name": "lowerRangePercent",
                  "type": "uint256"
                },
                {
                  "internalType": "bool",
                  "name": "isThresholdPercentShiftActive",
                  "type": "bool"
                },
                {
                  "internalType": "uint256",
                  "name": "upperShiftThresholdPercent",
                  "type": "uint256"
                },
                {
                  "internalType": "uint256",
                  "name": "lowerShiftThresholdPercent",
                  "type": "uint256"
                },
                {
                  "internalType": "uint256",
                  "name": "token0Decimals",
                  "type": "uint256"
                },
                {
                  "internalType": "uint256",
                  "name": "token1Decimals",
                  "type": "uint256"
                },
                {
                  "internalType": "uint256",
                  "name": "totalToken0AdjustedAmount",
                  "type": "uint256"
                },
                {
                  "internalType": "uint256",
                  "name": "totalToken1AdjustedAmount",
                  "type": "uint256"
                }
              ],
              "internalType": "struct DexVariables",
              "name": "dexVariables",
              "type": "tuple"
            },
            {
              "components": [
                {
                  "internalType": "uint256",
                  "name": "lastInteractionTimestamp",
                  "type": "uint256"
                },
                {
                  "internalType": "uint256",
                  "name": "rebalancingShiftingTime",
                  "type": "uint256"
                },
                {
                  "internalType": "uint256",
                  "name": "maxCenterPrice",
                  "type": "uint256"
                },
                {
                  "internalType": "uint256",
                  "name": "minCenterPrice",
                  "type": "uint256"
                },
                {
                  "internalType": "uint256",
                  "name": "shiftPercentage",
                  "type": "uint256"
                },
                {
                  "internalType": "uint256",
                  "name": "centerPriceShiftingTime",
                  "type": "uint256"
                },
                {
                  "internalType": "uint256",
                  "name": "startTimestamp",
                  "type": "uint256"
                }
              ],
              "internalType": "struct CenterPriceShift",
              "name": "centerPriceShift",
              "type": "tuple"
            },
            {
              "components": [
                {
                  "internalType": "uint256",
                  "name": "oldUpperRangePercent",
                  "type": "uint256"
                },
                {
                  "internalType": "uint256",
                  "name": "oldLowerRangePercent",
                  "type": "uint256"
                },
                {
                  "internalType": "uint256",
                  "name": "shiftingTime",
                  "type": "uint256"
                },
                {
                  "internalType": "uint256",
                  "name": "startTimestamp",
                  "type": "uint256"
                }
              ],
              "internalType": "struct RangeShift",
              "name": "rangeShift",
              "type": "tuple"
            },
            {
              "components": [
                {
                  "internalType": "uint256",
                  "name": "oldUpperThresholdPercent",
                  "type": "uint256"
                },
                {
                  "internalType": "uint256",
                  "name": "oldLowerThresholdPercent",
                  "type": "uint256"
                },
                {
                  "internalType": "uint256",
                  "name": "shiftingTime",
                  "type": "uint256"
                },
                {
                  "internalType": "uint256",
                  "name": "startTimestamp",
                  "type": "uint256"
                }
              ],
              "internalType": "struct ThresholdShift",
              "name": "thresholdShift",
              "type": "tuple"
            }
          ],
          "internalType": "struct DexState",
          "name": "",
          "type": "tuple"
        }
      ],
      "stateMutability": "view",
      "type": "function"
    },
    {
      "inputs": [
        {
          "components": [
            {
              "internalType": "address",
              "name": "token0",
              "type": "address"
            },
            {
              "internalType": "address",
              "name": "token1",
              "type": "address"
            },
            {
              "internalType": "bytes32",
              "name": "salt",
              "type": "bytes32"
            }
          ],
          "internalType": "struct DexKey",
          "name": "dexKey",
          "type": "tuple"
        }
      ],
      "name": "getPricesAndReserves",
      "outputs": [
        {
          "components": [
            {
              "internalType": "uint256",
              "name": "poolPrice",
              "type": "uint256"
            },
            {
              "internalType": "uint256",
              "name": "centerPrice",
              "type": "uint256"
            },
            {
              "internalType": "uint256",
              "name": "upperRangePrice",
              "type": "uint256"
            },
            {
              "internalType": "uint256",
              "name": "lowerRangePrice",
              "type": "uint256"
            },
            {
              "internalType": "uint256",
              "name": "upperThresholdPrice",
              "type": "uint256"
            },
            {
              "internalType": "uint256",
              "name": "lowerThresholdPrice",
              "type": "uint256"
            }
          ],
          "internalType": "struct Prices",
          "name": "prices_",
          "type": "tuple"
        },
        {
          "components": [
            {
              "internalType": "uint256",
              "name": "token0RealReserves",
              "type": "uint256"
            },
            {
              "internalType": "uint256",
              "name": "token1RealReserves",
              "type": "uint256"
            },
            {
              "internalType": "uint256",
              "name": "token0ImaginaryReserves",
              "type": "uint256"
            },
            {
              "internalType": "uint256",
              "name": "token1ImaginaryReserves",
              "type": "uint256"
            }
          ],
          "internalType": "struct Reserves",
          "name": "reserves_",
          "type": "tuple"
        }
      ],
      "stateMutability": "nonpayable",
      "type": "function"
    }
  ],
  "args": [
    "0xBbcb91440523216e2b87052A99F69c604A7b6e00",
    "0x52Aa899454998Be5b000Ad077a46Bbe360F4e497",
    "0x4EC7b668BAF70d4A4b0FC7941a7708A07b6d45Be"
  ],
  "numDeployments": 3,
  "solcInputHash": "e89c53d7e8500239048a5be2c7f0ea7e",
  "bytecode": "0x60e060405234801561000f575f5ffd5b5060405161302738038061302783398101604081905261002e91610066565b6001600160a01b0392831660805290821660a0521660c0526100a6565b80516001600160a01b0381168114610061575f5ffd5b919050565b5f5f5f60608486031215610078575f5ffd5b6100818461004b565b925061008f6020850161004b565b915061009d6040850161004b565b90509250925092565b60805160a05160c051612f036101245f395f81816102bf01528181610ef90152818161144b0152611eda01525f61029a01525f81816103f90152818161080c01528181610a3f01528181610bb801528181610c7301528181610d1901528181610dbf0152818161174c0152818161181601526118eb0152612f035ff3fe608060405234801561000f575f5ffd5b506004361061007a575f3560e01c8063b20b0dbc11610058578063b20b0dbc146100e8578063b7ce6036146100fd578063cfd5fd3b1461011e578063f315742b14610131575f5ffd5b806369c815541461007e57806386606501146100a85780639f78a96a146100c8575b5f5ffd5b61009161008c366004612493565b610146565b60405161009f92919061251f565b60405180910390f35b6100bb6100b6366004612493565b6101f6565b60405161009f919061272e565b6100db6100d6366004612493565b61026a565b60405161009f9190612884565b6100f061033c565b60405161009f9190612893565b61011061010b3660046128e1565b6103f6565b60405190815260200161009f565b61011061012c366004612970565b610769565b610139610a0b565b60405161009f9190612a12565b6101796040518060c001604052805f81526020015f81526020015f81526020015f81526020015f81526020015f81525090565b6101a060405180608001604052805f81526020015f81526020015f81526020015f81525090565b5f6101aa84610b83565b90505f5f5f5f6101b985610bb2565b92965090945092509050608884901c670fffffffffffffff1660c485901c6101e68a878787878787610e57565b9850985050505050505050915091565b6101fe612257565b5f61020883610b83565b90505f5f5f5f61021785610bb2565b935093509350935060405180608001604052806102338661139b565b815260200161024185611566565b815260200161024f84611623565b815260200161025d8361168e565b9052979650505050505050565b610272612389565b602080820183905260408051808201825273ffffffffffffffffffffffffffffffffffffffff7f0000000000000000000000000000000000000000000000000000000000000000811682527f000000000000000000000000000000000000000000000000000000000000000016928101929092528201526102f282610b83565b7fffffffffffffffff00000000000000000000000000000000000000000000000016815261031f826101f6565b60a082015261032d82610146565b60808301526060820152919050565b60605f610347610a0b565b9050805167ffffffffffffffff8111156103635761036361243e565b60405190808252806020026020018201604052801561039c57816020015b610389612389565b8152602001906001900390816103815790505b5091505f5b81518110156103f1576103cc8282815181106103bf576103bf612a97565b602002602001015161026a565b8382815181106103de576103de612a97565b60209081029190910101526001016103a1565b505090565b5f7f000000000000000000000000000000000000000000000000000000000000000073ffffffffffffffffffffffffffffffffffffffff16637fc9d4ad8585855f8713610463577fffffffffffffffffffffffffffffffffffffffffffffffffffffffffffffffff610465565b5f5b604080518082018252600d81527f455354494d4154455f535741500000000000000000000000000000000000000060209182015281517f9fbe8fb0ae8f68c4e90aaac8dee895c5ba9596470c68a601101c9d65a103a9438183015282518082039092018252808301928390527fffffffff0000000000000000000000000000000000000000000000000000000060e089901b1690925261050f95949392915f918291604401612b63565b6020604051808303815f875af1925050508015610567575060408051601f3d9081017fffffffffffffffffffffffffffffffffffffffffffffffffffffffffffffffe016820190925261056491810190612bda565b60015b6106ff573d808015610594576040519150601f19603f3d011682016040523d82523d5f602084013e610599565b606091505b506024815110610671575f6105ad82612bf1565b90507fa015fc37000000000000000000000000000000000000000000000000000000007fffffffff00000000000000000000000000000000000000000000000000000000821601610604576024820151925061066b565b6040517f08c379a000000000000000000000000000000000000000000000000000000000815260206004820152601f60248201527f457374696d6174696f6e204661696c6564202d2057726f6e67204572726f720060448201526064015b60405180910390fd5b506106f9565b6040517f08c379a000000000000000000000000000000000000000000000000000000000815260206004820152602260248201527f457374696d6174696f6e204661696c6564202d20496e76616c6964205265617360448201527f6f6e0000000000000000000000000000000000000000000000000000000000006064820152608401610662565b50610762565b506040517f08c379a000000000000000000000000000000000000000000000000000000000815260206004820152601160248201527f457374696d6174696f6e204661696c65640000000000000000000000000000006044820152606401610662565b9392505050565b5f808367ffffffffffffffff8111156107845761078461243e565b6040519080825280602002602001820160405280156107ad578160200160208202803683370190505b5090505f83121561080a575f5b84811015610808577fffffffffffffffffffffffffffffffffffffffffffffffffffffffffffffffff8282815181106107f5576107f5612a97565b60209081029190910101526001016107ba565b505b7f000000000000000000000000000000000000000000000000000000000000000073ffffffffffffffffffffffffffffffffffffffff1663a3c779fd88888888888760405180608001604052805f73ffffffffffffffffffffffffffffffffffffffff1681526020015f1515815260200160405180602001604052805f81525081526020016040518060400160405280600d81526020017f455354494d4154455f5357415000000000000000000000000000000000000000815250805190602001206040516020016108de91815260200190565b6040516020818303038152906040528152506040518863ffffffff1660e01b81526004016109129796959493929190612cf9565b6020604051808303815f875af192505050801561096a575060408051601f3d9081017fffffffffffffffffffffffffffffffffffffffffffffffffffffffffffffffe016820190925261096791810190612bda565b60015b6106ff573d808015610997576040519150601f19603f3d011682016040523d82523d5f602084013e61099c565b606091505b506024815110610671575f6109b082612bf1565b90507fa015fc37000000000000000000000000000000000000000000000000000000007fffffffff00000000000000000000000000000000000000000000000000000000821601610604575060240151979650505050505050565b6040517fb5c736e4000000000000000000000000000000000000000000000000000000008152600160048201526060905f907f000000000000000000000000000000000000000000000000000000000000000073ffffffffffffffffffffffffffffffffffffffff169063b5c736e490602401602060405180830381865afa158015610a99573d5f5f3e3d5ffd5b505050506040513d601f19601f82011682018060405250810190610abd9190612bda565b90505f8167ffffffffffffffff811115610ad957610ad961243e565b604051908082528060200260200182016040528015610b4157816020015b604080516060810182525f80825260208083018290529282015282527fffffffffffffffffffffffffffffffffffffffffffffffffffffffffffffffff909201910181610af75790505b5090505f5b82811015610b7c57610b57816116f8565b828281518110610b6957610b69612a97565b6020908102919091010152600101610b46565b5092915050565b5f81604051602001610b959190612dc0565b604051602081830303815290604052805190602001209050919050565b5f5f5f5f7f000000000000000000000000000000000000000000000000000000000000000073ffffffffffffffffffffffffffffffffffffffff1663b5c736e4610bfd8760026119e2565b6040518263ffffffff1660e01b8152600401610c1b91815260200190565b602060405180830381865afa158015610c36573d5f5f3e3d5ffd5b505050506040513d601f19601f82011682018060405250810190610c5a9190612bda565b935073ffffffffffffffffffffffffffffffffffffffff7f00000000000000000000000000000000000000000000000000000000000000001663b5c736e4610ca38760036119e2565b6040518263ffffffff1660e01b8152600401610cc191815260200190565b602060405180830381865afa158015610cdc573d5f5f3e3d5ffd5b505050506040513d601f19601f82011682018060405250810190610d009190612bda565b925073ffffffffffffffffffffffffffffffffffffffff7f00000000000000000000000000000000000000000000000000000000000000001663b5c736e4610d498760046119e2565b6040518263ffffffff1660e01b8152600401610d6791815260200190565b602060405180830381865afa158015610d82573d5f5f3e3d5ffd5b505050506040513d601f19601f82011682018060405250810190610da69190612bda565b915073ffffffffffffffffffffffffffffffffffffffff7f00000000000000000000000000000000000000000000000000000000000000001663b5c736e4610def8760056119e2565b6040518263ffffffff1660e01b8152600401610e0d91815260200190565b602060405180830381865afa158015610e28573d5f5f3e3d5ffd5b505050506040513d601f19601f82011682018060405250810190610e4c9190612bda565b5f1c90509193509193565b610e8a6040518060c001604052805f81526020015f81526020015f81526020015f81526020015f81526020015f81525090565b610eb160405180608001604052805f81526020015f81526020015f81526020015f81525090565b6001601689901c165f03610fca57603f88901c6207ffff16602083018190525f03610ef45763ffffffff601f89901c1660ff60178a901c161b6020830152610fdb565b610f227f00000000000000000000000000000000000000000000000000000000000000008360200151611a38565b895160208b01516040517f02c59a6800000000000000000000000000000000000000000000000000000000815273ffffffffffffffffffffffffffffffffffffffff928316600482015290821660248201529116906302c59a68906044016020604051808303815f875af1158015610f9c573d5f5f3e3d5ffd5b505050506040513d601f19601f82011682018060405250810190610fc09190612bda565b6020830152610fdb565b610fd5898989611e9f565b60208301525b613fff605389901c81169060618a901c16600160528b901c8116900361100c5761100682828a612023565b90925090505b81612710036127108560200151028161102757611027612e11565b0460408501526020840151612710908282030204606085015260148a901c6003165f60018211156111af57816002036110ba575089602181901c62ffffff166401ffffffff82164203818110156110a857818189602001518a6040015103028161109357611093612e11565b048860200151018860200181815250506110b3565b604088015160208901525b505061111e565b8160030361111e575089602181901c62ffffff166401ffffffff821642038181101561111057818189606001518a602001510302816110fb576110fb612e11565b0488602001510388602001818152505061111b565b606088015160208901525b50505b80156111af576020860151620fffff604183901c1660ff603984901c161b9250821015611151576020860182905261117a565b6020860151620fffff605d83901c1660ff605584901c161b925082111561117a57602086018290525b83612710036127108760200151028161119557611195612e11565b046040870152602086015161271090848203020460608701525b607f60708d901c81169060778e901c166001606f8f901c811690036111df576111d982828d61208d565b90925090505b60648260640389602001518a604001510302816111fe576111fe612e11565b60208a0151919004810160808a0152606089015160649082038382030204900360a089015260408801516f4b3b4ca85a86c47a098a22400000000011156112595761125288606001518960400151026120e5565b93506112a7565b61129a670de0b6b3a764000089606001518161127757611277612e11565b04670de0b6b3a76400008a604001518161129357611293612e11565b04026120e5565b670de0b6b3a76400000293505b6b033b2e3c9fd0803ce80000008410156112da576112cb8489604001518c8c612197565b60608901526040880152611341565b61133684760a70c3c40a64e6c51999090b65f67d92400000000000008161130357611303612e11565b048960600151760a70c3c40a64e6c51999090b65f67d92400000000000008161132e5761132e612e11565b048b8d612197565b604089015260608801525b6040870180518b01908190526060880180518b01908190528b8952602089018b905261137a906b033b2e3c9fd0803ce800000090612e6b565b6113849190612e82565b885250959d949c50939a5050505050505050505050565b6114276040518061020001604052805f81526020015f81526020015f81526020015f151581526020015f81526020015f73ffffffffffffffffffffffffffffffffffffffff1681526020015f151581526020015f81526020015f81526020015f151581526020015f81526020015f81526020015f81526020015f81526020015f81526020015f81525090565b6001601683901c811614601f83901c63ffffffff16601784901c60ff161b5f6114797f00000000000000000000000000000000000000000000000000000000000000006207ffff603f88901c16611a38565b6040805161020081018252611fff88168152607f600d89901c81166020830152600360148a901c16928201929092529415156060860152608085019390935273ffffffffffffffffffffffffffffffffffffffff1660a0840152506001605285901c8116811460c0840152613fff605386901c811660e0850152606186901c16610100840152606f85901c811614610120830152607084901c8116610140830152607784901c16610160820152601f607e84901c8116610180830152608384901c166101a0820152670fffffffffffffff608884901c166101c082015260c49290921c6101e08301525090565b61159f6040518060e001604052805f81526020015f81526020015f81526020015f81526020015f81526020015f81526020015f81525090565b506040805160e0810182526401ffffffff8084168252602184901c62ffffff166020830152620fffff604185901c811660ff603987901c81169190911b94840194909452605d85901c8116605586901c9094169390931b6060830152607184901c83166080830152608584901c90921660a082015260999290921c1660c082015290565b61164a60405180608001604052805f81526020015f81526020015f81526020015f81525090565b5060408051608081018252613fff8381168252600e84901c166020820152601c83901c620fffff169181019190915260309190911c6401ffffffff16606082015290565b6116b560405180608001604052805f81526020015f81526020015f81526020015f81525090565b5060408051608081018252607f8381168252600784901c166020820152600e83901c620fffff169181019190915260229190911c6401ffffffff16606082015290565b604080516060810182525f808252602080830182905282840182905283516001818301528451808203830181529085019094528351930192909220909173ffffffffffffffffffffffffffffffffffffffff7f00000000000000000000000000000000000000000000000000000000000000001663b5c736e461177c866003612e6b565b6117869085612eba565b60405160e083901b7fffffffff000000000000000000000000000000000000000000000000000000001681526004810191909152602401602060405180830381865afa1580156117d8573d5f5f3e3d5ffd5b505050506040513d601f19601f820116820180604052508101906117fc9190612bda565b90505f73ffffffffffffffffffffffffffffffffffffffff7f00000000000000000000000000000000000000000000000000000000000000001663b5c736e4611846876003612e6b565b6118509086612eba565b61185b906001612eba565b60405160e083901b7fffffffff000000000000000000000000000000000000000000000000000000001681526004810191909152602401602060405180830381865afa1580156118ad573d5f5f3e3d5ffd5b505050506040513d601f19601f820116820180604052508101906118d19190612bda565b90505f73ffffffffffffffffffffffffffffffffffffffff7f00000000000000000000000000000000000000000000000000000000000000001663b5c736e461191b886003612e6b565b6119259087612eba565b611930906002612eba565b60405160e083901b7fffffffff000000000000000000000000000000000000000000000000000000001681526004810191909152602401602060405180830381865afa158015611982573d5f5f3e3d5ffd5b505050506040513d601f19601f820116820180604052508101906119a69190612bda565b6040805160608101825273ffffffffffffffffffffffffffffffffffffffff958616815293909416602084015292820192909252949350505050565b604080517fffffffffffffffff000000000000000000000000000000000000000000000000841660208201529081018290525f906060016040516020818303038152906040528051906020012090505b92915050565b5f6060825f03611a4b575f915050611a32565b607f8311611b14576040517fd60000000000000000000000000000000000000000000000000000000000000060208201527f940000000000000000000000000000000000000000000000000000000000000060218201527fffffffffffffffffffffffffffffffffffffffff000000000000000000000000606086901b16602282015260f884901b7fff000000000000000000000000000000000000000000000000000000000000001660368201526037015b6040516020818303038152906040529050611e90565b60ff8311611bf1576040517fd70000000000000000000000000000000000000000000000000000000000000060208201527f940000000000000000000000000000000000000000000000000000000000000060218201527fffffffffffffffffffffffffffffffffffffffff000000000000000000000000606086901b1660228201527f8100000000000000000000000000000000000000000000000000000000000000603682015260f884901b7fff00000000000000000000000000000000000000000000000000000000000000166037820152603801611afe565b61ffff8311611ccf576040517fd80000000000000000000000000000000000000000000000000000000000000060208201527f940000000000000000000000000000000000000000000000000000000000000060218201527fffffffffffffffffffffffffffffffffffffffff000000000000000000000000606086901b1660228201527f820000000000000000000000000000000000000000000000000000000000000060368201527fffff00000000000000000000000000000000000000000000000000000000000060f085901b166037820152603901611afe565b62ffffff8311611dae576040517fd90000000000000000000000000000000000000000000000000000000000000060208201527f940000000000000000000000000000000000000000000000000000000000000060218201527fffffffffffffffffffffffffffffffffffffffff000000000000000000000000606086901b1660228201527f830000000000000000000000000000000000000000000000000000000000000060368201527fffffff000000000000000000000000000000000000000000000000000000000060e885901b166037820152603a01611afe565b6040517fda0000000000000000000000000000000000000000000000000000000000000060208201527f940000000000000000000000000000000000000000000000000000000000000060218201527fffffffffffffffffffffffffffffffffffffffff000000000000000000000000606086901b1660228201527f840000000000000000000000000000000000000000000000000000000000000060368201527fffffffff0000000000000000000000000000000000000000000000000000000060e085901b166037820152603b0160405160208183030381529060405290505b80516020909101209392505050565b5f601f83901c63ffffffff16601784901c60ff161b6401ffffffff609984901c8116908416818111611ed15781611ed3565b805b9050611f087f00000000000000000000000000000000000000000000000000000000000000006207ffff603f89901c16611a38565b875160208901516040517f02c59a6800000000000000000000000000000000000000000000000000000000815273ffffffffffffffffffffffffffffffffffffffff928316600482015290821660248201529116906302c59a68906044016020604051808303815f875af1158015611f82573d5f5f3e3d5ffd5b505050506040513d601f19601f82011682018060405250810190611fa69190612bda565b93505f620f4240620fffff608588901c1602824203620fffff607189901c1686020281611fd557611fd5612e11565b04905083851115611ff9579283019283851115611ff457839450612018565b612018565b808411612006575f61200a565b8084035b935083851015612018578394505b505050509392505050565b5f80601c83901c620fffff16603084901c6401ffffffff168242828401101561205457878794509450505050612085565b504281900361206988613fff88168386612210565b61207d88613fff600e8a901c168487612210565b945094505050505b935093915050565b5f80600e83901c620fffff16602284901c6401ffffffff16824282840110156120be57878794509450505050612085565b50428190036120d288607f88168386612210565b61207d88607f60078a901c168487612210565b60b58171010000000000000000000000000000000000811061210c5760409190911b9060801c5b690100000000000000000081106121285760209190911b9060401c5b6501000000000081106121405760109190911b9060201c5b630100000081106121565760089190911b9060101c5b62010000010260121c80820401600190811c80830401811c80830401811c80830401811c80830401811c80830401811c80830401901c908190048111900390565b5f8085850381600282028689026b033b2e3c9fd0803ce8000000870201816121c1576121c1612e11565b0490506121f0818202836b033b2e3c9fd0803ce8000000888a0202816121e9576121e9612e11565b04016120e5565b01976b033b2e3c9fd0803ce8000000978902979097049695505050505050565b5f83851115612236578183858703028161222c5761222c612e11565b048401905061224f565b8183868603028161224957612249612e11565b04840390505b949350505050565b60405180608001604052806122ee6040518061020001604052805f81526020015f81526020015f81526020015f151581526020015f81526020015f73ffffffffffffffffffffffffffffffffffffffff1681526020015f151581526020015f81526020015f81526020015f151581526020015f81526020015f81526020015f81526020015f81526020015f81526020015f81525090565b815260200161232c6040518060e001604052805f81526020015f81526020015f81526020015f81526020015f81526020015f81526020015f81525090565b815260200161235860405180608001604052805f81526020015f81526020015f81526020015f81525090565b815260200161238460405180608001604052805f81526020015f81526020015f81526020015f81525090565b905290565b6040805160c0810182525f80825282516060810184528181526020808201839052818501839052808401919091528351808501855282815290810191909152909182019081526020016124056040518060c001604052805f81526020015f81526020015f81526020015f81526020015f81526020015f81525090565b815260200161243160405180608001604052805f81526020015f81526020015f81526020015f81525090565b8152602001612384612257565b7f4e487b71000000000000000000000000000000000000000000000000000000005f52604160045260245ffd5b803573ffffffffffffffffffffffffffffffffffffffff8116811461248e575f5ffd5b919050565b5f60608284031280156124a4575f5ffd5b506040516060810167ffffffffffffffff811182821017156124ed577f4e487b71000000000000000000000000000000000000000000000000000000005f52604160045260245ffd5b6040526124f98361246b565b81526125076020840161246b565b60208201526040928301359281019290925250919050565b61014081016125638285805182526020810151602083015260408101516040830152606081015160608301526080810151608083015260a081015160a08301525050565b825160c0830152602083015160e083015260408301516101008301526060830151610120830152610762565b805180518352602081015160208401526040810151604084015260608101516125bc606085018215159052565b506080810151608084015260a08101516125ee60a085018273ffffffffffffffffffffffffffffffffffffffff169052565b5060c081015161260260c085018215159052565b5060e081015160e084015261010081015161010084015261012081015161262e61012085018215159052565b506101408101516101408401526101608101516101608401526101808101516101808401526101a08101516101a08401526101c08101516101c08401526101e08101516101e08401525060208101516126ca610200840182805182526020810151602083015260408101516040830152606081015160608301526080810151608083015260a081015160a083015260c081015160c08301525050565b5060408181015180516102e08501526020810151610300850152908101516103208401526060810151610340840152506060908101518051610360840152602081015161038084015260408101516103a084015201516103c090910152565b505050565b6103e08101611a32828461258f565b7fffffffffffffffff000000000000000000000000000000000000000000000000815116825260208101516127b8602084018273ffffffffffffffffffffffffffffffffffffffff815116825273ffffffffffffffffffffffffffffffffffffffff6020820151166020830152604081015160408301525050565b50604081015173ffffffffffffffffffffffffffffffffffffffff815116608084015273ffffffffffffffffffffffffffffffffffffffff60208201511660a084015250606081015161284360c0840182805182526020810151602083015260408101516040830152606081015160608301526080810151608083015260a081015160a08301525050565b506080810151805161018084015260208101516101a084015260408101516101c0840152606001516101e083015260a081015161272961020084018261258f565b6105e08101611a32828461273d565b602080825282518282018190525f918401906040840190835b818110156128d6576128bf83855161273d565b602093909301926105e092909201916001016128ac565b509095945050505050565b5f5f5f83850360a08112156128f4575f5ffd5b6060811215612901575f5ffd5b5083925060608401358015158114612917575f5ffd5b929592945050506080919091013590565b5f5f83601f840112612938575f5ffd5b50813567ffffffffffffffff81111561294f575f5ffd5b602083019150836020606083028501011115612969575f5ffd5b9250929050565b5f5f5f5f5f60608688031215612984575f5ffd5b853567ffffffffffffffff81111561299a575f5ffd5b8601601f810188136129aa575f5ffd5b803567ffffffffffffffff8111156129c0575f5ffd5b8860208260051b84010111156129d4575f5ffd5b60209182019650945086013567ffffffffffffffff8111156129f4575f5ffd5b612a0088828901612928565b96999598509660400135949350505050565b602080825282518282018190525f918401906040840190835b818110156128d657612a8183855173ffffffffffffffffffffffffffffffffffffffff815116825273ffffffffffffffffffffffffffffffffffffffff6020820151166020830152604081015160408301525050565b6020939093019260609290920191600101612a2b565b7f4e487b71000000000000000000000000000000000000000000000000000000005f52603260045260245ffd5b73ffffffffffffffffffffffffffffffffffffffff612ae28261246b565b16825273ffffffffffffffffffffffffffffffffffffffff612b066020830161246b565b166020830152604090810135910152565b5f81518084528060208401602086015e5f6020828601015260207fffffffffffffffffffffffffffffffffffffffffffffffffffffffffffffffe0601f83011685010191505092915050565b612b6d8189612ac4565b86151560608201528560808201528460a082015273ffffffffffffffffffffffffffffffffffffffff841660c082015282151560e08201526101406101008201525f6101408201526101606101208201525f612bcd610160830184612b17565b9998505050505050505050565b5f60208284031215612bea575f5ffd5b5051919050565b805160208201517fffffffff00000000000000000000000000000000000000000000000000000000811691906004821015612c56577fffffffff00000000000000000000000000000000000000000000000000000000808360040360031b1b82161692505b5050919050565b5f8151808452602084019350602083015f5b82811015612c8d578151865260209586019590910190600101612c6f565b5093949350505050565b73ffffffffffffffffffffffffffffffffffffffff81511682526020810151151560208301525f604082015160806040850152612cd76080850182612b17565b905060608301518482036060860152612cf08282612b17565b95945050505050565b60a080825281018790525f8860c08301825b8a811015612d465773ffffffffffffffffffffffffffffffffffffffff612d318461246b565b16825260209283019290910190600101612d0b565b50838103602080860191909152888252019050875f805b89811015612d8257612d6f8484612ac4565b6060938401939290920191600101612d5d565b505050604083018690528281036060840152612d9e8186612c5d565b90508281036080840152612db28185612c97565b9a9950505050505050505050565b60608101611a32828473ffffffffffffffffffffffffffffffffffffffff815116825273ffffffffffffffffffffffffffffffffffffffff6020820151166020830152604081015160408301525050565b7f4e487b71000000000000000000000000000000000000000000000000000000005f52601260045260245ffd5b7f4e487b71000000000000000000000000000000000000000000000000000000005f52601160045260245ffd5b8082028115828204841417611a3257611a32612e3e565b5f82612eb5577f4e487b71000000000000000000000000000000000000000000000000000000005f52601260045260245ffd5b500490565b80820180821115611a3257611a32612e3e56fea264697066735822122035cff8e86a69875132bb2d5eabda93339906e8d69b36dff7efbf2bf601dfe02964736f6c634300081d0033",
  "devdoc": {
    "kind": "dev",
    "methods": {},
    "version": 1
  },
  "userdoc": {
    "kind": "user",
    "methods": {},
    "version": 1
  },
  "storageLayout": {
    "storage": [],
    "types": null
  }
}