{
  "address": "0xC27293043EF9B6c911AEf47e4A563baE8a91654f",
  "abi": [
    {
      "inputs": [],
      "stateMutability": "nonpayable",
      "type": "constructor"
    },
    {
      "inputs": [],
      "name": "BuybackContract__AddressZero",
      "type": "error"
    },
    {
      "inputs": [],
      "name": "BuybackContract__AlreadyInitialized",
      "type": "error"
    },
    {
      "inputs": [],
      "name": "BuybackContract__ETHTransferFailed",
      "type": "error"
    },
    {
      "inputs": [],
      "name": "BuybackContract__LessAmountReceived",
      "type": "error"
    },
    {
      "inputs": [],
      "name": "BuybackContract__NotOwner",
      "type": "error"
    },
    {
      "inputs": [],
      "name": "BuybackContract__NotRebalancer",
      "type": "error"
    },
    {
      "inputs": [],
      "name": "BuybackContract__Reentrancy",
      "type": "error"
    },
    {
      "inputs": [],
      "name": "BuybackContract__RenounceOwnershipUnsupported",
      "type": "error"
    },
    {
      "inputs": [
        {
          "internalType": "uint256",
          "name": "errorId_",
          "type": "uint256"
        }
      ],
      "name": "FluidSafeTransferError",
      "type": "error"
    },
    {
      "anonymous": false,
      "inputs": [
        {
          "indexed": false,
          "internalType": "address",
          "name": "previousAdmin",
          "type": "address"
        },
        {
          "indexed": false,
          "internalType": "address",
          "name": "newAdmin",
          "type": "address"
        }
      ],
      "name": "AdminChanged",
      "type": "event"
    },
    {
      "anonymous": false,
      "inputs": [
        {
          "indexed": true,
          "internalType": "address",
          "name": "beacon",
          "type": "address"
        }
      ],
      "name": "BeaconUpgraded",
      "type": "event"
    },
    {
      "anonymous": false,
      "inputs": [
        {
          "indexed": false,
          "internalType": "uint8",
          "name": "version",
          "type": "uint8"
        }
      ],
      "name": "Initialized",
      "type": "event"
    },
    {
      "anonymous": false,
      "inputs": [
        {
          "indexed": true,
          "internalType": "address",
          "name": "tokenIn",
          "type": "address"
        },
        {
          "indexed": true,
          "internalType": "address",
          "name": "tokenOut",
          "type": "address"
        },
        {
          "indexed": false,
          "internalType": "uint256",
          "name": "sellAmount",
          "type": "uint256"
        },
        {
          "indexed": false,
          "internalType": "uint256",
          "name": "buyAmount",
          "type": "uint256"
        }
      ],
      "name": "LogBuyback",
      "type": "event"
    },
    {
      "anonymous": false,
      "inputs": [
        {
          "indexed": true,
          "internalType": "uint256",
          "name": "amount",
          "type": "uint256"
        }
      ],
      "name": "LogCollectFluidTokensToTreasury",
      "type": "event"
    },
    {
      "anonymous": false,
      "inputs": [
        {
          "indexed": true,
          "internalType": "address",
          "name": "token",
          "type": "address"
        },
        {
          "indexed": true,
          "internalType": "uint256",
          "name": "amount",
          "type": "uint256"
        }
      ],
      "name": "LogCollectTokensToTreasury",
      "type": "event"
    },
    {
      "anonymous": false,
      "inputs": [
        {
          "indexed": true,
          "internalType": "address",
          "name": "tokenIn",
          "type": "address"
        },
        {
          "indexed": true,
          "internalType": "address",
          "name": "tokenOut",
          "type": "address"
        },
        {
          "indexed": false,
          "internalType": "uint256",
          "name": "sellAmount",
          "type": "uint256"
        },
        {
          "indexed": false,
          "internalType": "uint256",
          "name": "buyAmount",
          "type": "uint256"
        }
      ],
      "name": "LogTokenSwap",
      "type": "event"
    },
    {
      "anonymous": false,
      "inputs": [
        {
          "indexed": true,
          "internalType": "address",
          "name": "rebalancer",
          "type": "address"
        },
        {
          "indexed": true,
          "internalType": "bool",
          "name": "isActive",
          "type": "bool"
        }
      ],
      "name": "LogUpdateRebalancer",
      "type": "event"
    },
    {
      "anonymous": false,
      "inputs": [
        {
          "indexed": true,
          "internalType": "address",
          "name": "previousOwner",
          "type": "address"
        },
        {
          "indexed": true,
          "internalType": "address",
          "name": "newOwner",
          "type": "address"
        }
      ],
      "name": "OwnershipTransferred",
      "type": "event"
    },
    {
      "anonymous": false,
      "inputs": [
        {
          "indexed": true,
          "internalType": "address",
          "name": "implementation",
          "type": "address"
        }
      ],
      "name": "Upgraded",
      "type": "event"
    },
    {
      "inputs": [],
      "name": "buybackDSA",
      "outputs": [
        {
          "internalType": "contract IDSA",
          "name": "",
          "type": "address"
        }
      ],
      "stateMutability": "view",
      "type": "function"
    },
    {
      "inputs": [
        {
          "internalType": "uint256",
          "name": "amount_",
          "type": "uint256"
        }
      ],
      "name": "collectFluidTokensToTreasury",
      "outputs": [],
      "stateMutability": "nonpayable",
      "type": "function"
    },
    {
      "inputs": [
        {
          "internalType": "address",
          "name": "token_",
          "type": "address"
        },
        {
          "internalType": "uint256",
          "name": "amount_",
          "type": "uint256"
        }
      ],
      "name": "collectTokensToTreasury",
      "outputs": [],
      "stateMutability": "nonpayable",
      "type": "function"
    },
    {
      "inputs": [
        {
          "internalType": "address",
          "name": "owner_",
          "type": "address"
        },
        {
          "internalType": "address[]",
          "name": "rebalancers_",
          "type": "address[]"
        }
      ],
      "name": "initialize",
      "outputs": [],
      "stateMutability": "nonpayable",
      "type": "function"
    },
    {
      "inputs": [],
      "name": "owner",
      "outputs": [
        {
          "internalType": "address",
          "name": "",
          "type": "address"
        }
      ],
      "stateMutability": "view",
      "type": "function"
    },
    {
      "inputs": [],
      "name": "proxiableUUID",
      "outputs": [
        {
          "internalType": "bytes32",
          "name": "",
          "type": "bytes32"
        }
      ],
      "stateMutability": "view",
      "type": "function"
    },
    {
      "inputs": [
        {
          "internalType": "address",
          "name": "",
          "type": "address"
        }
      ],
      "name": "rebalancers",
      "outputs": [
        {
          "internalType": "bool",
          "name": "",
          "type": "bool"
        }
      ],
      "stateMutability": "view",
      "type": "function"
    },
    {
      "inputs": [],
      "name": "renounceOwnership",
      "outputs": [],
      "stateMutability": "view",
      "type": "function"
    },
    {
      "inputs": [
        {
          "internalType": "address",
          "name": "tokenIn_",
          "type": "address"
        },
        {
          "internalType": "address",
          "name": "tokenOut_",
          "type": "address"
        },
        {
          "internalType": "uint256",
          "name": "sellAmount_",
          "type": "uint256"
        },
        {
          "internalType": "uint256",
          "name": "minBuyAmount_",
          "type": "uint256"
        },
        {
          "internalType": "string[]",
          "name": "swapConnectors_",
          "type": "string[]"
        },
        {
          "internalType": "bytes[]",
          "name": "swapCalldatas_",
          "type": "bytes[]"
        }
      ],
      "name": "swap",
      "outputs": [
        {
          "internalType": "uint256",
          "name": "buyAmount_",
          "type": "uint256"
        }
      ],
      "stateMutability": "nonpayable",
      "type": "function"
    },
    {
      "inputs": [
        {
          "internalType": "address",
          "name": "newOwner",
          "type": "address"
        }
      ],
      "name": "transferOwnership",
      "outputs": [],
      "stateMutability": "nonpayable",
      "type": "function"
    },
    {
      "inputs": [
        {
          "internalType": "address",
          "name": "rebalancer_",
          "type": "address"
        },
        {
          "internalType": "bool",
          "name": "isActive_",
          "type": "bool"
        }
      ],
      "name": "updateRebalancer",
      "outputs": [],
      "stateMutability": "nonpayable",
      "type": "function"
    },
    {
      "inputs": [
        {
          "internalType": "address",
          "name": "newImplementation",
          "type": "address"
        }
      ],
      "name": "upgradeTo",
      "outputs": [],
      "stateMutability": "nonpayable",
      "type": "function"
    },
    {
      "inputs": [
        {
          "internalType": "address",
          "name": "newImplementation",
          "type": "address"
        },
        {
          "internalType": "bytes",
          "name": "data",
          "type": "bytes"
        }
      ],
      "name": "upgradeToAndCall",
      "outputs": [],
      "stateMutability": "payable",
      "type": "function"
    },
    {
      "stateMutability": "payable",
      "type": "receive"
    }
  ],
  "transactionHash": "0x60b5dd15435abbac1a03ae32bd8d03be5a765eca7ecbc4547a2f59ec9a889775",
  "args": [],
  "numDeployments": 1,
  "solcInputHash": "49994b136f412ae85dfa814f049665b4",
  "bytecode": "0x60a060405230608052348015610013575f5ffd5b506065805460ff1916600217905561002961002e565b6100eb565b5f54610100900460ff16156100995760405162461bcd60e51b815260206004820152602760248201527f496e697469616c697a61626c653a20636f6e747261637420697320696e697469604482015266616c697a696e6760c81b606482015260840160405180910390fd5b5f5460ff90811610156100e9575f805460ff191660ff9081179091556040519081527f7f26b83ff96e1f2b6a682f133852f6798a09c465da95921460cefb38474024989060200160405180910390a15b565b60805161258761011f5f395f818161050b015281816105c001528181610714015281816107c4015261090c01526125875ff3fe6080604052600436106100d1575f3560e01c80637356c1771161007c578063946d920411610057578063946d920414610223578063a44d57a014610242578063bd79886c14610280578063f2fde38b1461029f575f5ffd5b80637356c177146101895780637512d34e146101da5780638da5cb5b146101f9575f5ffd5b80634f1ef286116100ac5780634f1ef2861461013b57806352d1902d1461014e578063715018a614610175575f5ffd5b80630de30836146100dc578063220f590d146100fd5780633659cfe61461011c575f5ffd5b366100d857005b5f5ffd5b3480156100e7575f5ffd5b506100fb6100f6366004611eaf565b6102be565b005b348015610108575f5ffd5b506100fb610117366004611eea565b6103b7565b348015610127575f5ffd5b506100fb610136366004611f01565b6104f4565b6100fb610149366004612034565b6106fd565b348015610159575f5ffd5b506101626108f3565b6040519081526020015b60405180910390f35b348015610180575f5ffd5b506100fb6109de565b348015610194575f5ffd5b506067546101b59073ffffffffffffffffffffffffffffffffffffffff1681565b60405173ffffffffffffffffffffffffffffffffffffffff909116815260200161016c565b3480156101e5575f5ffd5b506100fb6101f4366004612081565b610a18565b348015610204575f5ffd5b5060335473ffffffffffffffffffffffffffffffffffffffff166101b5565b34801561022e575f5ffd5b506100fb61023d3660046120ce565b610b6e565b34801561024d575f5ffd5b5061027061025c366004611f01565b60666020525f908152604090205460ff1681565b604051901515815260200161016c565b34801561028b575f5ffd5b5061016261029a36600461220b565b610f3a565b3480156102aa575f5ffd5b506100fb6102b9366004611f01565b6116d7565b6102c661178b565b60655460ff16600114610305576040517f8533e2dc00000000000000000000000000000000000000000000000000000000815260040160405180910390fd5b606580547fffffffffffffffffffffffffffffffffffffffffffffffffffffffffffffff0090811660021790915573ffffffffffffffffffffffffffffffffffffffff83165f818152606660205260408082208054861515951685179055517fad476fc62f6b1b5d25b35bd756cfbfcd299b581b8dfb25d5492c4305a0969bd29190a35050606580547fffffffffffffffffffffffffffffffffffffffffffffffffffffffffffffff00166001179055565b335f9081526066602052604090205460ff166103ff576040517f0c89490500000000000000000000000000000000000000000000000000000000815260040160405180910390fd5b60655460ff1660011461043e576040517f8533e2dc00000000000000000000000000000000000000000000000000000000815260040160405180910390fd5b606580547fffffffffffffffffffffffffffffffffffffffffffffffffffffffffffffff0016600217905561049c736f40d4a6237c257fff2db00fa0510deeecd303eb7328849d2b63fa8d361e5fc15cb8abb13019884d098361180e565b60405181907fd34456509a4baeb7e7ebc75f67ed5bc4d8793b2e4e7d101bc5822f7ddac54e97905f90a250606580547fffffffffffffffffffffffffffffffffffffffffffffffffffffffffffffff00166001179055565b73ffffffffffffffffffffffffffffffffffffffff7f00000000000000000000000000000000000000000000000000000000000000001630036105be576040517f08c379a000000000000000000000000000000000000000000000000000000000815260206004820152602c60248201527f46756e6374696f6e206d7573742062652063616c6c6564207468726f7567682060448201527f64656c656761746563616c6c000000000000000000000000000000000000000060648201526084015b60405180910390fd5b7f000000000000000000000000000000000000000000000000000000000000000073ffffffffffffffffffffffffffffffffffffffff166106337f360894a13ba1a3210667c828492db98dca3e2076cc3735a920a3ca505d382bbc5473ffffffffffffffffffffffffffffffffffffffff1690565b73ffffffffffffffffffffffffffffffffffffffff16146106d6576040517f08c379a000000000000000000000000000000000000000000000000000000000815260206004820152602c60248201527f46756e6374696f6e206d7573742062652063616c6c6564207468726f7567682060448201527f6163746976652070726f7879000000000000000000000000000000000000000060648201526084016105b5565b6106df816118b4565b604080515f808252602082019092526106fa918391906118bc565b50565b73ffffffffffffffffffffffffffffffffffffffff7f00000000000000000000000000000000000000000000000000000000000000001630036107c2576040517f08c379a000000000000000000000000000000000000000000000000000000000815260206004820152602c60248201527f46756e6374696f6e206d7573742062652063616c6c6564207468726f7567682060448201527f64656c656761746563616c6c000000000000000000000000000000000000000060648201526084016105b5565b7f000000000000000000000000000000000000000000000000000000000000000073ffffffffffffffffffffffffffffffffffffffff166108377f360894a13ba1a3210667c828492db98dca3e2076cc3735a920a3ca505d382bbc5473ffffffffffffffffffffffffffffffffffffffff1690565b73ffffffffffffffffffffffffffffffffffffffff16146108da576040517f08c379a000000000000000000000000000000000000000000000000000000000815260206004820152602c60248201527f46756e6374696f6e206d7573742062652063616c6c6564207468726f7567682060448201527f6163746976652070726f7879000000000000000000000000000000000000000060648201526084016105b5565b6108e3826118b4565b6108ef828260016118bc565b5050565b5f3073ffffffffffffffffffffffffffffffffffffffff7f000000000000000000000000000000000000000000000000000000000000000016146109b9576040517f08c379a000000000000000000000000000000000000000000000000000000000815260206004820152603860248201527f555550535570677261646561626c653a206d757374206e6f742062652063616c60448201527f6c6564207468726f7567682064656c656761746563616c6c000000000000000060648201526084016105b5565b507f360894a13ba1a3210667c828492db98dca3e2076cc3735a920a3ca505d382bbc90565b6109e661178b565b6040517fee4c9fde00000000000000000000000000000000000000000000000000000000815260040160405180910390fd5b610a2061178b565b60655460ff16600114610a5f576040517f8533e2dc00000000000000000000000000000000000000000000000000000000815260040160405180910390fd5b606580547fffffffffffffffffffffffffffffffffffffffffffffffffffffffffffffff0016600217905573ffffffffffffffffffffffffffffffffffffffff821673eeeeeeeeeeeeeeeeeeeeeeeeeeeeeeeeeeeeeeee14610adf57610ada827328849d2b63fa8d361e5fc15cb8abb13019884d098361180e565b610afd565b610afd7328849d2b63fa8d361e5fc15cb8abb13019884d0982611abb565b604051819073ffffffffffffffffffffffffffffffffffffffff8416907f3984eeef7808131e32bf9c48562da4dfa48c4fb5f35f4fb8d93e580dd51c080f905f90a35050606580547fffffffffffffffffffffffffffffffffffffffffffffffffffffffffffffff00166001179055565b5f54610100900460ff1615808015610b8c57505f54600160ff909116105b80610ba55750303b158015610ba557505f5460ff166001145b610c31576040517f08c379a000000000000000000000000000000000000000000000000000000000815260206004820152602e60248201527f496e697469616c697a61626c653a20636f6e747261637420697320616c72656160448201527f647920696e697469616c697a656400000000000000000000000000000000000060648201526084016105b5565b5f80547fffffffffffffffffffffffffffffffffffffffffffffffffffffffffffffff001660011790558015610c8d575f80547fffffffffffffffffffffffffffffffffffffffffffffffffffffffffffff00ff166101001790555b8273ffffffffffffffffffffffffffffffffffffffff8116610cdb576040517f45d986d500000000000000000000000000000000000000000000000000000000815260040160405180910390fd5b610ce484611b04565b5f5b8351811015610dc557600160665f868481518110610d0657610d0661232f565b602002602001015173ffffffffffffffffffffffffffffffffffffffff1673ffffffffffffffffffffffffffffffffffffffff1681526020019081526020015f205f6101000a81548160ff02191690831515021790555060011515848281518110610d7357610d7361232f565b602002602001015173ffffffffffffffffffffffffffffffffffffffff167fad476fc62f6b1b5d25b35bd756cfbfcd299b581b8dfb25d5492c4305a0969bd260405160405180910390a3600101610ce6565b506040517fbb7e70ef00000000000000000000000000000000000000000000000000000000815230600482018190526002602483015260448201525f90732971adfa57b20e5a416ae5a708a8655a9c74f7239063bb7e70ef906064016020604051808303815f875af1158015610e3d573d5f5f3e3d5ffd5b505050506040513d601f19601f82011682018060405250810190610e61919061235c565b606780547fffffffffffffffffffffffff00000000000000000000000000000000000000001673ffffffffffffffffffffffffffffffffffffffff929092169190911790555050606580547fffffffffffffffffffffffffffffffffffffffffffffffffffffffffffffff001660011790558015610f35575f80547fffffffffffffffffffffffffffffffffffffffffffffffffffffffffffff00ff169055604051600181527f7f26b83ff96e1f2b6a682f133852f6798a09c465da95921460cefb38474024989060200160405180910390a15b505050565b335f9081526066602052604081205460ff16610f82576040517f0c89490500000000000000000000000000000000000000000000000000000000815260040160405180910390fd5b60655460ff16600114610fc1576040517f8533e2dc00000000000000000000000000000000000000000000000000000000815260040160405180910390fd5b606580547fffffffffffffffffffffffffffffffffffffffffffffffffffffffffffffff0016600290811790915560408051828152606081019091525f91602082015b6060815260200190600190039081611004575050604080516002808252606082019092529192505f9190602082015b60608152602001906001900390816110335790505090505f73ffffffffffffffffffffffffffffffffffffffff891673eeeeeeeeeeeeeeeeeeeeeeeeeeeeeeeeeeeeeeee1461110d576040517f70a0823100000000000000000000000000000000000000000000000000000000815230600482015273ffffffffffffffffffffffffffffffffffffffff8a16906370a0823190602401602060405180830381865afa1580156110e4573d5f5f3e3d5ffd5b505050506040513d601f19601f820116820180604052508101906111089190612377565b61110f565b475b905073ffffffffffffffffffffffffffffffffffffffff8a1673eeeeeeeeeeeeeeeeeeeeeeeeeeeeeeeeeeeeeeee1461116c57606754611167908b9073ffffffffffffffffffffffffffffffffffffffff168a61180e565b61118f565b60675461118f9073ffffffffffffffffffffffffffffffffffffffff1689611abb565b6040518060400160405280601181526020017f535741502d41474752454741544f522d41000000000000000000000000000000815250835f815181106111d7576111d761232f565b602002602001018190525085856040516024016111f5929190612452565b604080517fffffffffffffffffffffffffffffffffffffffffffffffffffffffffffffffe08184030181529190526020810180517bffffffffffffffffffffffffffffffffffffffffffffffffffffffff167ffd05818300000000000000000000000000000000000000000000000000000000179052825183905f9061127d5761127d61232f565b60200260200101819052506040518060400160405280600781526020017f42415349432d4100000000000000000000000000000000000000000000000000815250836001815181106112d1576112d161232f565b602090810291909101015260405173ffffffffffffffffffffffffffffffffffffffff8a1660248201527fffffffffffffffffffffffffffffffffffffffffffffffffffffffffffffffff60448201523060648201525f6084820181905260a482015260c401604080517fffffffffffffffffffffffffffffffffffffffffffffffffffffffffffffffe08184030181529190526020810180517bffffffffffffffffffffffffffffffffffffffffffffffffffffffff167f4bd3ab82000000000000000000000000000000000000000000000000000000001790528251839060019081106113c2576113c261232f565b60209081029190910101526067546040517f9304c93400000000000000000000000000000000000000000000000000000000815273ffffffffffffffffffffffffffffffffffffffff90911690639304c934906114279086908690309060040161247f565b6020604051808303815f875af1158015611443573d5f5f3e3d5ffd5b505050506040513d601f19601f820116820180604052508101906114679190612377565b5073ffffffffffffffffffffffffffffffffffffffff891673eeeeeeeeeeeeeeeeeeeeeeeeeeeeeeeeeeeeeeee14611536576040517f70a08231000000000000000000000000000000000000000000000000000000008152306004820152819073ffffffffffffffffffffffffffffffffffffffff8b16906370a0823190602401602060405180830381865afa158015611503573d5f5f3e3d5ffd5b505050506040513d601f19601f820116820180604052508101906115279190612377565b61153191906124ca565b611540565b61154081476124ca565b93508684101561157c576040517fc8a0254a00000000000000000000000000000000000000000000000000000000815260040160405180910390fd5b7fffffffffffffffffffffffff90bf2b59dc83da8000d24ff05faef211132cfc1573ffffffffffffffffffffffffffffffffffffffff8a160161162e578873ffffffffffffffffffffffffffffffffffffffff168a73ffffffffffffffffffffffffffffffffffffffff167f8f05f94eed0b7316abb05990df81da789c0a1f51415a0ff7e8b03f58826018cb8a87604051611621929190918252602082015260400190565b60405180910390a361169f565b8873ffffffffffffffffffffffffffffffffffffffff168a73ffffffffffffffffffffffffffffffffffffffff167ffa2db04e390f7e79a96c51d4a145b9489194b6ed4ab81524af149409c4af69118a87604051611696929190918252602082015260400190565b60405180910390a35b5050606580547fffffffffffffffffffffffffffffffffffffffffffffffffffffffffffffff00166001179055509695505050505050565b6116df61178b565b73ffffffffffffffffffffffffffffffffffffffff8116611782576040517f08c379a000000000000000000000000000000000000000000000000000000000815260206004820152602660248201527f4f776e61626c653a206e6577206f776e657220697320746865207a65726f206160448201527f646472657373000000000000000000000000000000000000000000000000000060648201526084016105b5565b6106fa81611b04565b60335473ffffffffffffffffffffffffffffffffffffffff16331461180c576040517f08c379a000000000000000000000000000000000000000000000000000000000815260206004820181905260248201527f4f776e61626c653a2063616c6c6572206973206e6f7420746865206f776e657260448201526064016105b5565b565b5f6040517fa9059cbb00000000000000000000000000000000000000000000000000000000815273ffffffffffffffffffffffffffffffffffffffff8416600482015282602482015260205f6044835f895af13d15601f3d1160015f5114161716915050806118ae576040517fdee51a8a0000000000000000000000000000000000000000000000000000000081526201155a60048201526024016105b5565b50505050565b6106fa61178b565b7f4910fdfa16fed3260ed0e7147f7cc6da11a60208b5b9406d12a635614ffd91435460ff16156118ef57610f3583611b7a565b8273ffffffffffffffffffffffffffffffffffffffff166352d1902d6040518163ffffffff1660e01b8152600401602060405180830381865afa925050508015611974575060408051601f3d9081017fffffffffffffffffffffffffffffffffffffffffffffffffffffffffffffffe016820190925261197191810190612377565b60015b611a00576040517f08c379a000000000000000000000000000000000000000000000000000000000815260206004820152602e60248201527f45524331393637557067726164653a206e657720696d706c656d656e7461746960448201527f6f6e206973206e6f74205555505300000000000000000000000000000000000060648201526084016105b5565b7f360894a13ba1a3210667c828492db98dca3e2076cc3735a920a3ca505d382bbc8114611aaf576040517f08c379a000000000000000000000000000000000000000000000000000000000815260206004820152602960248201527f45524331393637557067726164653a20756e737570706f727465642070726f7860448201527f6961626c6555554944000000000000000000000000000000000000000000000060648201526084016105b5565b50610f35838383611c84565b5f5f5f5f5f8587614e20f1905080610f35576040517fdee51a8a0000000000000000000000000000000000000000000000000000000081526201155a60048201526024016105b5565b6033805473ffffffffffffffffffffffffffffffffffffffff8381167fffffffffffffffffffffffff0000000000000000000000000000000000000000831681179093556040519116919082907f8be0079c531659141344cd1fd0a4f28419497f9722a3daafe3b4186f6b6457e0905f90a35050565b73ffffffffffffffffffffffffffffffffffffffff81163b611c1e576040517f08c379a000000000000000000000000000000000000000000000000000000000815260206004820152602d60248201527f455243313936373a206e657720696d706c656d656e746174696f6e206973206e60448201527f6f74206120636f6e74726163740000000000000000000000000000000000000060648201526084016105b5565b7f360894a13ba1a3210667c828492db98dca3e2076cc3735a920a3ca505d382bbc80547fffffffffffffffffffffffff00000000000000000000000000000000000000001673ffffffffffffffffffffffffffffffffffffffff92909216919091179055565b611c8d83611ca8565b5f82511180611c995750805b15610f35576118ae8383611cf4565b611cb181611b7a565b60405173ffffffffffffffffffffffffffffffffffffffff8216907fbc7cd75a20ee27fd9adebab32041f755214dbc6bffa90cc0225b39da2e5c2d3b905f90a250565b6060611d19838360405180606001604052806027815260200161252b60279139611d22565b90505b92915050565b60605f5f8573ffffffffffffffffffffffffffffffffffffffff1685604051611d4b9190612502565b5f60405180830381855af49150503d805f8114611d83576040519150601f19603f3d011682016040523d82523d5f602084013e611d88565b606091505b5091509150611d9986838387611da3565b9695505050505050565b60608315611e385782515f03611e315773ffffffffffffffffffffffffffffffffffffffff85163b611e31576040517f08c379a000000000000000000000000000000000000000000000000000000000815260206004820152601d60248201527f416464726573733a2063616c6c20746f206e6f6e2d636f6e747261637400000060448201526064016105b5565b5081611e42565b611e428383611e4a565b949350505050565b815115611e5a5781518083602001fd5b806040517f08c379a00000000000000000000000000000000000000000000000000000000081526004016105b59190612518565b73ffffffffffffffffffffffffffffffffffffffff811681146106fa575f5ffd5b5f5f60408385031215611ec0575f5ffd5b8235611ecb81611e8e565b915060208301358015158114611edf575f5ffd5b809150509250929050565b5f60208284031215611efa575f5ffd5b5035919050565b5f60208284031215611f11575f5ffd5b8135611f1c81611e8e565b9392505050565b7f4e487b71000000000000000000000000000000000000000000000000000000005f52604160045260245ffd5b604051601f82017fffffffffffffffffffffffffffffffffffffffffffffffffffffffffffffffe016810167ffffffffffffffff81118282101715611f9757611f97611f23565b604052919050565b5f5f67ffffffffffffffff841115611fb957611fb9611f23565b50601f83017fffffffffffffffffffffffffffffffffffffffffffffffffffffffffffffffe016602001611fec81611f50565b915050828152838383011115612000575f5ffd5b828260208301375f602084830101529392505050565b5f82601f830112612025575f5ffd5b611d1983833560208501611f9f565b5f5f60408385031215612045575f5ffd5b823561205081611e8e565b9150602083013567ffffffffffffffff81111561206b575f5ffd5b61207785828601612016565b9150509250929050565b5f5f60408385031215612092575f5ffd5b823561209d81611e8e565b946020939093013593505050565b5f67ffffffffffffffff8211156120c4576120c4611f23565b5060051b60200190565b5f5f604083850312156120df575f5ffd5b82356120ea81611e8e565b9150602083013567ffffffffffffffff811115612105575f5ffd5b8301601f81018513612115575f5ffd5b8035612128612123826120ab565b611f50565b8082825260208201915060208360051b850101925087831115612149575f5ffd5b6020840193505b8284101561217457833561216381611e8e565b825260209384019390910190612150565b809450505050509250929050565b5f82601f830112612191575f5ffd5b813561219f612123826120ab565b8082825260208201915060208360051b8601019250858311156121c0575f5ffd5b602085015b8381101561220157803567ffffffffffffffff8111156121e3575f5ffd5b6121f2886020838a0101612016565b845250602092830192016121c5565b5095945050505050565b5f5f5f5f5f5f60c08789031215612220575f5ffd5b863561222b81611e8e565b9550602087013561223b81611e8e565b94506040870135935060608701359250608087013567ffffffffffffffff811115612264575f5ffd5b8701601f81018913612274575f5ffd5b8035612282612123826120ab565b8082825260208201915060208360051b85010192508b8311156122a3575f5ffd5b602084015b838110156122f757803567ffffffffffffffff8111156122c6575f5ffd5b8501603f81018e136122d6575f5ffd5b6122e88e602083013560408401611f9f565b845250602092830192016122a8565b50945050505060a087013567ffffffffffffffff811115612316575f5ffd5b61232289828a01612182565b9150509295509295509295565b7f4e487b71000000000000000000000000000000000000000000000000000000005f52603260045260245ffd5b5f6020828403121561236c575f5ffd5b8151611f1c81611e8e565b5f60208284031215612387575f5ffd5b5051919050565b5f81518084528060208401602086015e5f6020828601015260207fffffffffffffffffffffffffffffffffffffffffffffffffffffffffffffffe0601f83011685010191505092915050565b5f82825180855260208501945060208160051b830101602085015f5b83811015612446577fffffffffffffffffffffffffffffffffffffffffffffffffffffffffffffffe085840301885261243083835161238e565b60209889019890935091909101906001016123f6565b50909695505050505050565b604081525f61246460408301856123da565b828103602084015261247681856123da565b95945050505050565b606081525f61249160608301866123da565b82810360208401526124a381866123da565b91505073ffffffffffffffffffffffffffffffffffffffff83166040830152949350505050565b81810381811115611d1c577f4e487b71000000000000000000000000000000000000000000000000000000005f52601160045260245ffd5b5f82518060208501845e5f920191825250919050565b602081525f611d19602083018461238e56fe416464726573733a206c6f772d6c6576656c2064656c65676174652063616c6c206661696c6564a2646970667358221220e617aa9041c9c3b904bc70f632c204c2413aa78416612688606d7534320fc02564736f6c634300081d0033",
  "devdoc": {
    "events": {
      "AdminChanged(address,address)": {
        "details": "Emitted when the admin account has changed."
      },
      "BeaconUpgraded(address)": {
        "details": "Emitted when the beacon is upgraded."
      },
      "Initialized(uint8)": {
        "details": "Triggered when the contract has been initialized or reinitialized."
      },
      "Upgraded(address)": {
        "details": "Emitted when the implementation is upgraded."
      }
    },
    "kind": "dev",
    "methods": {
      "collectFluidTokensToTreasury(uint256)": {
        "params": {
          "amount_": "the amount of Fluid tokens to collect"
        }
      },
      "collectTokensToTreasury(address,uint256)": {
        "params": {
          "amount_": "the amount of `token_` to collect",
          "token_": "the token to collect"
        }
      },
      "initialize(address,address[])": {
        "params": {
          "owner_": "the owner of the contract",
          "rebalancers_": "the rebalancers of the contract"
        }
      },
      "owner()": {
        "details": "Returns the address of the current owner."
      },
      "proxiableUUID()": {
        "details": "Implementation of the ERC1822 {proxiableUUID} function. This returns the storage slot used by the implementation. It is used to validate the implementation's compatibility when performing an upgrade. IMPORTANT: A proxy pointing at a proxiable contract should not be considered proxiable itself, because this risks bricking a proxy that upgrades to it, by delegating to itself until out of gas. Thus it is critical that this function revert if invoked through a proxy. This is guaranteed by the `notDelegated` modifier."
      },
      "swap(address,address,uint256,uint256,string[],bytes[])": {
        "params": {
          "minBuyAmount_": "the minimum amount of `tokenOut_` to buy",
          "sellAmount_": "the amount of `tokenIn_` to sell",
          "swapCalldatas_": "the calldatas to use for the swap",
          "swapConnectors_": "the connectors to use for the swap",
          "tokenIn_": "the token to sell",
          "tokenOut_": "the token to buy"
        },
        "returns": {
          "buyAmount_": "the amount of `tokenOut_` bought"
        }
      },
      "transferOwnership(address)": {
        "details": "Transfers ownership of the contract to a new account (`newOwner`). Can only be called by the current owner."
      },
      "updateRebalancer(address,bool)": {
        "params": {
          "isActive_": "the status of the rebalancer",
          "rebalancer_": "the rebalancer to update"
        }
      },
      "upgradeTo(address)": {
        "details": "Upgrade the implementation of the proxy to `newImplementation`. Calls {_authorizeUpgrade}. Emits an {Upgraded} event."
      },
      "upgradeToAndCall(address,bytes)": {
        "details": "Upgrade the implementation of the proxy to `newImplementation`, and subsequently execute the function call encoded in `data`. Calls {_authorizeUpgrade}. Emits an {Upgraded} event."
      }
    },
    "version": 1
  },
  "userdoc": {
    "kind": "user",
    "methods": {
      "collectFluidTokensToTreasury(uint256)": {
        "notice": "collects `amount_` of Fluid tokens to the treasury - only rebalancers can collect Fluid tokens"
      },
      "collectTokensToTreasury(address,uint256)": {
        "notice": "collects `amount_` of `token_` to the treasury - only owner can collect tokens"
      },
      "initialize(address,address[])": {
        "notice": "initializes the contract with `owner_` as owner and `rebalancers_` as rebalancers and build the buyback DSA"
      },
      "renounceOwnership()": {
        "notice": "override renounce ownership as it could leave the contract in an unwanted state if called by mistake."
      },
      "swap(address,address,uint256,uint256,string[],bytes[])": {
        "notice": "swaps `sellAmount_` of `tokenIn_` for `tokenOut_`"
      },
      "updateRebalancer(address,bool)": {
        "notice": "updates the rebalancer status - only owner can update the rebalancer status"
      }
    },
    "version": 1
  },
  "storageLayout": {
    "storage": [
      {
        "astId": 138,
        "contract": "contracts/periphery/buyback/main.sol:FluidBuyback",
        "label": "_initialized",
        "offset": 0,
        "slot": "0",
        "type": "t_uint8"
      },
      {
        "astId": 141,
        "contract": "contracts/periphery/buyback/main.sol:FluidBuyback",
        "label": "_initializing",
        "offset": 1,
        "slot": "0",
        "type": "t_bool"
      },
      {
        "astId": 625,
        "contract": "contracts/periphery/buyback/main.sol:FluidBuyback",
        "label": "__gap",
        "offset": 0,
        "slot": "1",
        "type": "t_array(t_uint256)50_storage"
      },
      {
        "astId": 10,
        "contract": "contracts/periphery/buyback/main.sol:FluidBuyback",
        "label": "_owner",
        "offset": 0,
        "slot": "51",
        "type": "t_address"
      },
      {
        "astId": 130,
        "contract": "contracts/periphery/buyback/main.sol:FluidBuyback",
        "label": "__gap",
        "offset": 0,
        "slot": "52",
        "type": "t_array(t_uint256)49_storage"
      },
      {
        "astId": 2371,
        "contract": "contracts/periphery/buyback/main.sol:FluidBuyback",
        "label": "_status",
        "offset": 0,
        "slot": "101",
        "type": "t_uint8"
      },
      {
        "astId": 2375,
        "contract": "contracts/periphery/buyback/main.sol:FluidBuyback",
        "label": "rebalancers",
        "offset": 0,
        "slot": "102",
        "type": "t_mapping(t_address,t_bool)"
      },
      {
        "astId": 2378,
        "contract": "contracts/periphery/buyback/main.sol:FluidBuyback",
        "label": "buybackDSA",
        "offset": 0,
        "slot": "103",
        "type": "t_contract(IDSA)1804"
      }
    ],
    "types": {
      "t_address": {
        "encoding": "inplace",
        "label": "address",
        "numberOfBytes": "20"
      },
      "t_array(t_uint256)49_storage": {
        "base": "t_uint256",
        "encoding": "inplace",
        "label": "uint256[49]",
        "numberOfBytes": "1568"
      },
      "t_array(t_uint256)50_storage": {
        "base": "t_uint256",
        "encoding": "inplace",
        "label": "uint256[50]",
        "numberOfBytes": "1600"
      },
      "t_bool": {
        "encoding": "inplace",
        "label": "bool",
        "numberOfBytes": "1"
      },
      "t_contract(IDSA)1804": {
        "encoding": "inplace",
        "label": "contract IDSA",
        "numberOfBytes": "20"
      },
      "t_mapping(t_address,t_bool)": {
        "encoding": "mapping",
        "key": "t_address",
        "label": "mapping(address => bool)",
        "numberOfBytes": "32",
        "value": "t_bool"
      },
      "t_uint256": {
        "encoding": "inplace",
        "label": "uint256",
        "numberOfBytes": "32"
      },
      "t_uint8": {
        "encoding": "inplace",
        "label": "uint8",
        "numberOfBytes": "1"
      }
    }
  }
}