{
  "address": "0xa2c39D2a6B51e572B9611A061dA69090Ea53b2C6",
  "abi": [
    {
      "inputs": [
        {
          "internalType": "address",
          "name": "vaultT1Factory_",
          "type": "address"
        },
        {
          "internalType": "address",
          "name": "fluidWalletFactoryProxy_",
          "type": "address"
        }
      ],
      "stateMutability": "nonpayable",
      "type": "constructor"
    },
    {
      "inputs": [],
      "name": "FluidWalletFactory__InvalidOperation",
      "type": "error"
    },
    {
      "inputs": [],
      "name": "FluidWalletFactory__NotAllowed",
      "type": "error"
    },
    {
      "anonymous": false,
      "inputs": [
        {
          "indexed": false,
          "internalType": "address",
          "name": "previousAdmin",
          "type": "address"
        },
        {
          "indexed": false,
          "internalType": "address",
          "name": "newAdmin",
          "type": "address"
        }
      ],
      "name": "AdminChanged",
      "type": "event"
    },
    {
      "anonymous": false,
      "inputs": [
        {
          "indexed": true,
          "internalType": "address",
          "name": "beacon",
          "type": "address"
        }
      ],
      "name": "BeaconUpgraded",
      "type": "event"
    },
    {
      "anonymous": false,
      "inputs": [
        {
          "indexed": true,
          "internalType": "address",
          "name": "owner",
          "type": "address"
        },
        {
          "indexed": true,
          "internalType": "uint256",
          "name": "nft",
          "type": "uint256"
        }
      ],
      "name": "Executed",
      "type": "event"
    },
    {
      "anonymous": false,
      "inputs": [
        {
          "indexed": true,
          "internalType": "address",
          "name": "oldImplementation_",
          "type": "address"
        },
        {
          "indexed": true,
          "internalType": "address",
          "name": "newImplementation_",
          "type": "address"
        }
      ],
      "name": "FluidImplementationUpdate",
      "type": "event"
    },
    {
      "anonymous": false,
      "inputs": [
        {
          "indexed": false,
          "internalType": "uint8",
          "name": "version",
          "type": "uint8"
        }
      ],
      "name": "Initialized",
      "type": "event"
    },
    {
      "anonymous": false,
      "inputs": [
        {
          "indexed": true,
          "internalType": "address",
          "name": "previousOwner",
          "type": "address"
        },
        {
          "indexed": true,
          "internalType": "address",
          "name": "newOwner",
          "type": "address"
        }
      ],
      "name": "OwnershipTransferred",
      "type": "event"
    },
    {
      "anonymous": false,
      "inputs": [
        {
          "indexed": true,
          "internalType": "address",
          "name": "implementation",
          "type": "address"
        }
      ],
      "name": "Upgraded",
      "type": "event"
    },
    {
      "inputs": [],
      "name": "VAULT_T1_FACTORY",
      "outputs": [
        {
          "internalType": "contract IFluidVaultFactory",
          "name": "",
          "type": "address"
        }
      ],
      "stateMutability": "view",
      "type": "function"
    },
    {
      "inputs": [],
      "name": "WALLET_PROXY",
      "outputs": [
        {
          "internalType": "address",
          "name": "",
          "type": "address"
        }
      ],
      "stateMutability": "view",
      "type": "function"
    },
    {
      "inputs": [
        {
          "internalType": "address",
          "name": "implementation_",
          "type": "address"
        }
      ],
      "name": "changeImplementation",
      "outputs": [],
      "stateMutability": "nonpayable",
      "type": "function"
    },
    {
      "inputs": [
        {
          "internalType": "address",
          "name": "owner_",
          "type": "address"
        }
      ],
      "name": "computeWallet",
      "outputs": [
        {
          "internalType": "address",
          "name": "wallet_",
          "type": "address"
        }
      ],
      "stateMutability": "view",
      "type": "function"
    },
    {
      "inputs": [
        {
          "internalType": "address",
          "name": "owner_",
          "type": "address"
        }
      ],
      "name": "deploy",
      "outputs": [
        {
          "internalType": "address",
          "name": "wallet_",
          "type": "address"
        }
      ],
      "stateMutability": "nonpayable",
      "type": "function"
    },
    {
      "inputs": [
        {
          "internalType": "address",
          "name": "owner_",
          "type": "address"
        }
      ],
      "name": "initialize",
      "outputs": [],
      "stateMutability": "nonpayable",
      "type": "function"
    },
    {
      "inputs": [
        {
          "internalType": "address",
          "name": "operator_",
          "type": "address"
        },
        {
          "internalType": "address",
          "name": "from_",
          "type": "address"
        },
        {
          "internalType": "uint256",
          "name": "tokenId_",
          "type": "uint256"
        },
        {
          "internalType": "bytes",
          "name": "data_",
          "type": "bytes"
        }
      ],
      "name": "onERC721Received",
      "outputs": [
        {
          "internalType": "bytes4",
          "name": "",
          "type": "bytes4"
        }
      ],
      "stateMutability": "nonpayable",
      "type": "function"
    },
    {
      "inputs": [],
      "name": "owner",
      "outputs": [
        {
          "internalType": "address",
          "name": "",
          "type": "address"
        }
      ],
      "stateMutability": "view",
      "type": "function"
    },
    {
      "inputs": [],
      "name": "proxiableUUID",
      "outputs": [
        {
          "internalType": "bytes32",
          "name": "",
          "type": "bytes32"
        }
      ],
      "stateMutability": "view",
      "type": "function"
    },
    {
      "inputs": [],
      "name": "renounceOwnership",
      "outputs": [],
      "stateMutability": "view",
      "type": "function"
    },
    {
      "inputs": [
        {
          "internalType": "address[]",
          "name": "targets_",
          "type": "address[]"
        },
        {
          "internalType": "bytes[]",
          "name": "calldatas_",
          "type": "bytes[]"
        }
      ],
      "name": "spell",
      "outputs": [],
      "stateMutability": "nonpayable",
      "type": "function"
    },
    {
      "inputs": [
        {
          "internalType": "address",
          "name": "newOwner",
          "type": "address"
        }
      ],
      "name": "transferOwnership",
      "outputs": [],
      "stateMutability": "nonpayable",
      "type": "function"
    },
    {
      "inputs": [
        {
          "internalType": "address",
          "name": "newImplementation",
          "type": "address"
        }
      ],
      "name": "upgradeTo",
      "outputs": [],
      "stateMutability": "nonpayable",
      "type": "function"
    },
    {
      "inputs": [
        {
          "internalType": "address",
          "name": "newImplementation",
          "type": "address"
        },
        {
          "internalType": "bytes",
          "name": "data",
          "type": "bytes"
        }
      ],
      "name": "upgradeToAndCall",
      "outputs": [],
      "stateMutability": "payable",
      "type": "function"
    },
    {
      "inputs": [],
      "name": "walletImplementation",
      "outputs": [
        {
          "internalType": "address",
          "name": "",
          "type": "address"
        }
      ],
      "stateMutability": "nonpayable",
      "type": "function"
    },
    {
      "stateMutability": "payable",
      "type": "receive"
    }
  ],
  "transactionHash": "0x5e1b00d316410db97cb1dd9d50c385967aa1fd2254c84d614ce36d412f6ed765",
  "args": [
    "0x324c5Dc1fC42c7a4D43d92df1eBA58a54d13Bf2d",
    "0xd8Ae986159e350B6535539B8A1e488658452f25E"
  ],
  "numDeployments": 2,
  "solcInputHash": "a6845ded92237df3261b081a5fff9779",
  "bytecode": "0x60e06040523060c0523480156200001557600080fd5b50604051620026c0380380620026c0833981016040819052620000389162000195565b6001600160a01b03821660805260405182908290819062000059906200016a565b6001600160a01b039091168152602001604051809103906000f08015801562000086573d6000803e3d6000fd5b506001600160a01b031660a05250620000a09050620000a8565b5050620001cd565b600054610100900460ff1615620001155760405162461bcd60e51b815260206004820152602760248201527f496e697469616c697a61626c653a20636f6e747261637420697320696e697469604482015266616c697a696e6760c81b606482015260840160405180910390fd5b60005460ff908116101562000168576000805460ff191660ff9081179091556040519081527f7f26b83ff96e1f2b6a682f133852f6798a09c465da95921460cefb38474024989060200160405180910390a15b565b610333806200238d83390190565b80516001600160a01b03811681146200019057600080fd5b919050565b60008060408385031215620001a957600080fd5b620001b48362000178565b9150620001c46020840162000178565b90509250929050565b60805160a05160c0516121436200024a6000396000818161095801528181610a0d01528181610cd301528181610d830152610ecc0152600081816102fc015281816103b501528181610ba30152610c0e01526000818161029d01528181610431015281816105b001528181610666015261077e01526121436000f3fe6080604052600436106100ec5760003560e01c8063715018a61161008a5780638da5cb5b116100595780638da5cb5b146102bf578063ba8df43c146102ea578063c4d66de81461031e578063f2fde38b1461033e57600080fd5b8063715018a61461022b5780638117abc11461024057806382bc4aaf1461026b5780638a1c73641461028b57600080fd5b80633659cfe6116100c65780633659cfe6146101b55780634c96a389146101d55780634f1ef286146101f557806352d1902d1461020857600080fd5b806301477764146100f8578063150b7a021461014257806317a68dd81461019357600080fd5b366100f357005b600080fd5b34801561010457600080fd5b5061011861011336600461198d565b61035e565b60405173ffffffffffffffffffffffffffffffffffffffff90911681526020015b60405180910390f35b34801561014e57600080fd5b5061016261015d3660046119aa565b610417565b6040517fffffffff000000000000000000000000000000000000000000000000000000009091168152602001610139565b34801561019f57600080fd5b506101b36101ae36600461198d565b6108ab565b005b3480156101c157600080fd5b506101b36101d036600461198d565b610941565b3480156101e157600080fd5b506101186101f036600461198d565b610b4b565b6101b3610203366004611b7e565b610cbc565b34801561021457600080fd5b5061021d610eb2565b604051908152602001610139565b34801561023757600080fd5b506101b3610f9e565b34801561024c57600080fd5b5060655473ffffffffffffffffffffffffffffffffffffffff16610118565b34801561027757600080fd5b506101b3610286366004611c82565b610fd8565b34801561029757600080fd5b506101187f000000000000000000000000000000000000000000000000000000000000000081565b3480156102cb57600080fd5b5060335473ffffffffffffffffffffffffffffffffffffffff16610118565b3480156102f657600080fd5b506101187f000000000000000000000000000000000000000000000000000000000000000081565b34801561032a57600080fd5b506101b361033936600461198d565b611040565b34801561034a57600080fd5b506101b361035936600461198d565b6111d3565b6040805173ffffffffffffffffffffffffffffffffffffffff83166020808301919091528251808303820181528284019384905280519101203060788301526f5af43d82803e903d91602b57fd5bf3ff60648301527f00000000000000000000000000000000000000000000000000000000000000006054830152733d602d80600a3d3981f3363d3d373d3d3d363d7390925260988101919091526037604c82012060b882015260556083909101206000905b92915050565b60003373ffffffffffffffffffffffffffffffffffffffff7f00000000000000000000000000000000000000000000000000000000000000001614610488576040517fe258880c00000000000000000000000000000000000000000000000000000000815260040160405180910390fd5b8473ffffffffffffffffffffffffffffffffffffffff168673ffffffffffffffffffffffffffffffffffffffff16146104ed576040517fe258880c00000000000000000000000000000000000000000000000000000000815260040160405180910390fd5b6000829003610528576040517fe258880c00000000000000000000000000000000000000000000000000000000815260040160405180910390fd5b6040805160808101825260009181019190915260608082015284815273ffffffffffffffffffffffffffffffffffffffff8616602082015261056c84840185611d3a565b6060820152602081015161057f90610b4b565b73ffffffffffffffffffffffffffffffffffffffff90811660408084018290528351602080860151606087015193517f00000000000000000000000000000000000000000000000000000000000000009096169563b88d4fde9530959094936105e9939201611ee7565b6040516020818303038152906040526040518563ffffffff1660e01b81526004016106179493929190611fb4565b600060405180830381600087803b15801561063157600080fd5b505af1158015610645573d6000803e3d6000fd5b50505050806020015173ffffffffffffffffffffffffffffffffffffffff167f000000000000000000000000000000000000000000000000000000000000000073ffffffffffffffffffffffffffffffffffffffff16636352211e876040518263ffffffff1660e01b81526004016106bf91815260200190565b602060405180830381865afa1580156106dc573d6000803e3d6000fd5b505050506040513d601f19601f820116820180604052508101906107009190611ff3565b73ffffffffffffffffffffffffffffffffffffffff161461074d576040517f13f6790d00000000000000000000000000000000000000000000000000000000815260040160405180910390fd5b6040517f70a082310000000000000000000000000000000000000000000000000000000081523060048201526000907f000000000000000000000000000000000000000000000000000000000000000073ffffffffffffffffffffffffffffffffffffffff16906370a0823190602401602060405180830381865afa1580156107da573d6000803e3d6000fd5b505050506040513d601f19601f820116820180604052508101906107fe9190612010565b1115610836576040517f13f6790d00000000000000000000000000000000000000000000000000000000815260040160405180910390fd5b8051602082015160405173ffffffffffffffffffffffffffffffffffffffff909116907f6f6c6d78a4851d4c222c8404fc92372ee84b7b81054305ae8ea3c83c2dabd42e90600090a3507f150b7a02000000000000000000000000000000000000000000000000000000009695505050505050565b6108b3611287565b60655460405173ffffffffffffffffffffffffffffffffffffffff8084169216907f60585cce21631476e6ccfecad74a50f016d3eaf02143e1a88f06eb3adc3e6b8090600090a3606580547fffffffffffffffffffffffff00000000000000000000000000000000000000001673ffffffffffffffffffffffffffffffffffffffff92909216919091179055565b73ffffffffffffffffffffffffffffffffffffffff7f0000000000000000000000000000000000000000000000000000000000000000163003610a0b576040517f08c379a000000000000000000000000000000000000000000000000000000000815260206004820152602c60248201527f46756e6374696f6e206d7573742062652063616c6c6564207468726f7567682060448201527f64656c656761746563616c6c000000000000000000000000000000000000000060648201526084015b60405180910390fd5b7f000000000000000000000000000000000000000000000000000000000000000073ffffffffffffffffffffffffffffffffffffffff16610a807f360894a13ba1a3210667c828492db98dca3e2076cc3735a920a3ca505d382bbc5473ffffffffffffffffffffffffffffffffffffffff1690565b73ffffffffffffffffffffffffffffffffffffffff1614610b23576040517f08c379a000000000000000000000000000000000000000000000000000000000815260206004820152602c60248201527f46756e6374696f6e206d7573742062652063616c6c6564207468726f7567682060448201527f6163746976652070726f787900000000000000000000000000000000000000006064820152608401610a02565b610b2c8161130a565b60408051600080825260208201909252610b4891839190611312565b50565b6040805173ffffffffffffffffffffffffffffffffffffffff8381166020808401919091528351808403820181528385019485905280519101203060788401526f5af43d82803e903d91602b57fd5bf3ff60648401527f00000000000000000000000000000000000000000000000000000000000000006054840152733d602d80600a3d3981f3363d3d373d3d3d363d73909352609882018390526037604c83012060b88301526055608390920191909120919082163b600003610cb657610c337f000000000000000000000000000000000000000000000000000000000000000082611511565b506040517fc4d66de800000000000000000000000000000000000000000000000000000000815273ffffffffffffffffffffffffffffffffffffffff848116600483015283169063c4d66de890602401600060405180830381600087803b158015610c9d57600080fd5b505af1158015610cb1573d6000803e3d6000fd5b505050505b50919050565b73ffffffffffffffffffffffffffffffffffffffff7f0000000000000000000000000000000000000000000000000000000000000000163003610d81576040517f08c379a000000000000000000000000000000000000000000000000000000000815260206004820152602c60248201527f46756e6374696f6e206d7573742062652063616c6c6564207468726f7567682060448201527f64656c656761746563616c6c00000000000000000000000000000000000000006064820152608401610a02565b7f000000000000000000000000000000000000000000000000000000000000000073ffffffffffffffffffffffffffffffffffffffff16610df67f360894a13ba1a3210667c828492db98dca3e2076cc3735a920a3ca505d382bbc5473ffffffffffffffffffffffffffffffffffffffff1690565b73ffffffffffffffffffffffffffffffffffffffff1614610e99576040517f08c379a000000000000000000000000000000000000000000000000000000000815260206004820152602c60248201527f46756e6374696f6e206d7573742062652063616c6c6564207468726f7567682060448201527f6163746976652070726f787900000000000000000000000000000000000000006064820152608401610a02565b610ea28261130a565b610eae82826001611312565b5050565b60003073ffffffffffffffffffffffffffffffffffffffff7f00000000000000000000000000000000000000000000000000000000000000001614610f79576040517f08c379a000000000000000000000000000000000000000000000000000000000815260206004820152603860248201527f555550535570677261646561626c653a206d757374206e6f742062652063616c60448201527f6c6564207468726f7567682064656c656761746563616c6c00000000000000006064820152608401610a02565b507f360894a13ba1a3210667c828492db98dca3e2076cc3735a920a3ca505d382bbc90565b610fa6611287565b6040517f13f6790d00000000000000000000000000000000000000000000000000000000815260040160405180910390fd5b610fe0611287565b60005b825181101561103b5761102883828151811061100157611001612029565b602002602001015183838151811061101b5761101b612029565b60200260200101516115d5565b508061103381612058565b915050610fe3565b505050565b600054610100900460ff16158080156110605750600054600160ff909116105b8061107a5750303b15801561107a575060005460ff166001145b611106576040517f08c379a000000000000000000000000000000000000000000000000000000000815260206004820152602e60248201527f496e697469616c697a61626c653a20636f6e747261637420697320616c72656160448201527f647920696e697469616c697a65640000000000000000000000000000000000006064820152608401610a02565b600080547fffffffffffffffffffffffffffffffffffffffffffffffffffffffffffffff00166001179055801561116457600080547fffffffffffffffffffffffffffffffffffffffffffffffffffffffffffff00ff166101001790555b61116d82611601565b8015610eae57600080547fffffffffffffffffffffffffffffffffffffffffffffffffffffffffffff00ff169055604051600181527f7f26b83ff96e1f2b6a682f133852f6798a09c465da95921460cefb38474024989060200160405180910390a15050565b6111db611287565b73ffffffffffffffffffffffffffffffffffffffff811661127e576040517f08c379a000000000000000000000000000000000000000000000000000000000815260206004820152602660248201527f4f776e61626c653a206e6577206f776e657220697320746865207a65726f206160448201527f64647265737300000000000000000000000000000000000000000000000000006064820152608401610a02565b610b4881611601565b60335473ffffffffffffffffffffffffffffffffffffffff163314611308576040517f08c379a000000000000000000000000000000000000000000000000000000000815260206004820181905260248201527f4f776e61626c653a2063616c6c6572206973206e6f7420746865206f776e65726044820152606401610a02565b565b610b48611287565b7f4910fdfa16fed3260ed0e7147f7cc6da11a60208b5b9406d12a635614ffd91435460ff16156113455761103b83611678565b8273ffffffffffffffffffffffffffffffffffffffff166352d1902d6040518163ffffffff1660e01b8152600401602060405180830381865afa9250505080156113ca575060408051601f3d9081017fffffffffffffffffffffffffffffffffffffffffffffffffffffffffffffffe01682019092526113c791810190612010565b60015b611456576040517f08c379a000000000000000000000000000000000000000000000000000000000815260206004820152602e60248201527f45524331393637557067726164653a206e657720696d706c656d656e7461746960448201527f6f6e206973206e6f7420555550530000000000000000000000000000000000006064820152608401610a02565b7f360894a13ba1a3210667c828492db98dca3e2076cc3735a920a3ca505d382bbc8114611505576040517f08c379a000000000000000000000000000000000000000000000000000000000815260206004820152602960248201527f45524331393637557067726164653a20756e737570706f727465642070726f7860448201527f6961626c655555494400000000000000000000000000000000000000000000006064820152608401610a02565b5061103b838383611782565b6000763d602d80600a3d3981f3363d3d373d3d3d363d730000008360601b60e81c176000526e5af43d82803e903d91602b57fd5bf38360781b1760205281603760096000f5905073ffffffffffffffffffffffffffffffffffffffff8116610411576040517f08c379a000000000000000000000000000000000000000000000000000000000815260206004820152601760248201527f455243313136373a2063726561746532206661696c65640000000000000000006044820152606401610a02565b60606115fa83836040518060600160405280602781526020016120e7602791396117ad565b9392505050565b6033805473ffffffffffffffffffffffffffffffffffffffff8381167fffffffffffffffffffffffff0000000000000000000000000000000000000000831681179093556040519116919082907f8be0079c531659141344cd1fd0a4f28419497f9722a3daafe3b4186f6b6457e090600090a35050565b73ffffffffffffffffffffffffffffffffffffffff81163b61171c576040517f08c379a000000000000000000000000000000000000000000000000000000000815260206004820152602d60248201527f455243313936373a206e657720696d706c656d656e746174696f6e206973206e60448201527f6f74206120636f6e7472616374000000000000000000000000000000000000006064820152608401610a02565b7f360894a13ba1a3210667c828492db98dca3e2076cc3735a920a3ca505d382bbc80547fffffffffffffffffffffffff00000000000000000000000000000000000000001673ffffffffffffffffffffffffffffffffffffffff92909216919091179055565b61178b83611832565b6000825111806117985750805b1561103b576117a783836115d5565b50505050565b60606000808573ffffffffffffffffffffffffffffffffffffffff16856040516117d791906120b7565b600060405180830381855af49150503d8060008114611812576040519150601f19603f3d011682016040523d82523d6000602084013e611817565b606091505b50915091506118288683838761187f565b9695505050505050565b61183b81611678565b60405173ffffffffffffffffffffffffffffffffffffffff8216907fbc7cd75a20ee27fd9adebab32041f755214dbc6bffa90cc0225b39da2e5c2d3b90600090a250565b6060831561191557825160000361190e5773ffffffffffffffffffffffffffffffffffffffff85163b61190e576040517f08c379a000000000000000000000000000000000000000000000000000000000815260206004820152601d60248201527f416464726573733a2063616c6c20746f206e6f6e2d636f6e74726163740000006044820152606401610a02565b508161191f565b61191f8383611927565b949350505050565b8151156119375781518083602001fd5b806040517f08c379a0000000000000000000000000000000000000000000000000000000008152600401610a0291906120d3565b73ffffffffffffffffffffffffffffffffffffffff81168114610b4857600080fd5b60006020828403121561199f57600080fd5b81356115fa8161196b565b6000806000806000608086880312156119c257600080fd5b85356119cd8161196b565b945060208601356119dd8161196b565b935060408601359250606086013567ffffffffffffffff80821115611a0157600080fd5b818801915088601f830112611a1557600080fd5b813581811115611a2457600080fd5b896020828501011115611a3657600080fd5b9699959850939650602001949392505050565b7f4e487b7100000000000000000000000000000000000000000000000000000000600052604160045260246000fd5b6040516080810167ffffffffffffffff81118282101715611a9b57611a9b611a49565b60405290565b604051601f82017fffffffffffffffffffffffffffffffffffffffffffffffffffffffffffffffe016810167ffffffffffffffff81118282101715611ae857611ae8611a49565b604052919050565b600082601f830112611b0157600080fd5b813567ffffffffffffffff811115611b1b57611b1b611a49565b611b4c60207fffffffffffffffffffffffffffffffffffffffffffffffffffffffffffffffe0601f84011601611aa1565b818152846020838601011115611b6157600080fd5b816020850160208301376000918101602001919091529392505050565b60008060408385031215611b9157600080fd5b8235611b9c8161196b565b9150602083013567ffffffffffffffff811115611bb857600080fd5b611bc485828601611af0565b9150509250929050565b600067ffffffffffffffff821115611be857611be8611a49565b5060051b60200190565b600082601f830112611c0357600080fd5b81356020611c18611c1383611bce565b611aa1565b82815260059290921b84018101918181019086841115611c3757600080fd5b8286015b84811015611c7757803567ffffffffffffffff811115611c5b5760008081fd5b611c698986838b0101611af0565b845250918301918301611c3b565b509695505050505050565b60008060408385031215611c9557600080fd5b823567ffffffffffffffff80821115611cad57600080fd5b818501915085601f830112611cc157600080fd5b81356020611cd1611c1383611bce565b82815260059290921b84018101918181019089841115611cf057600080fd5b948201945b83861015611d17578535611d088161196b565b82529482019490820190611cf5565b96505086013592505080821115611d2d57600080fd5b50611bc485828601611bf2565b60006020808385031215611d4d57600080fd5b823567ffffffffffffffff80821115611d6557600080fd5b818501915085601f830112611d7957600080fd5b8135611d87611c1382611bce565b81815260059190911b83018401908481019088831115611da657600080fd5b8585015b83811015611e6c57803585811115611dc25760008081fd5b86016080818c037fffffffffffffffffffffffffffffffffffffffffffffffffffffffffffffffe001811315611df85760008081fd5b611e00611a78565b89830135611e0d8161196b565b815260408381013589811115611e235760008081fd5b611e318f8d83880101611af0565b838d01525060608481013582840152938301359360ff85168514611e5757600093508384fd5b82019390935285525050918601918601611daa565b5098975050505050505050565b60005b83811015611e94578181015183820152602001611e7c565b50506000910152565b60008151808452611eb5816020860160208601611e79565b601f017fffffffffffffffffffffffffffffffffffffffffffffffffffffffffffffffe0169290920160200192915050565b6000604080830173ffffffffffffffffffffffffffffffffffffffff808716855260208381870152828751808552606094508488019150848160051b890101838a0160005b83811015611fa3577fffffffffffffffffffffffffffffffffffffffffffffffffffffffffffffffa08b840301855281516080888251168552878201518189870152611f7a82870182611e9d565b838d0151878e0152928b015160ff16958b01959095525094860194925090850190600101611f2c565b50909b9a5050505050505050505050565b600073ffffffffffffffffffffffffffffffffffffffff8087168352808616602084015250836040830152608060608301526118286080830184611e9d565b60006020828403121561200557600080fd5b81516115fa8161196b565b60006020828403121561202257600080fd5b5051919050565b7f4e487b7100000000000000000000000000000000000000000000000000000000600052603260045260246000fd5b60007fffffffffffffffffffffffffffffffffffffffffffffffffffffffffffffffff82036120b0577f4e487b7100000000000000000000000000000000000000000000000000000000600052601160045260246000fd5b5060010190565b600082516120c9818460208701611e79565b9190910192915050565b6020815260006115fa6020830184611e9d56fe416464726573733a206c6f772d6c6576656c2064656c65676174652063616c6c206661696c6564a26469706673582212207d80288c434cedfe74a5ad27c9f280eb30fea97be9ebeca23f4937696a52626a64736f6c6343000815003360a060405234801561001057600080fd5b5060405161033338038061033383398101604081905261002f91610040565b6001600160a01b0316608052610070565b60006020828403121561005257600080fd5b81516001600160a01b038116811461006957600080fd5b9392505050565b6080516102a2610091600039600081816043015261010c01526102a26000f3fe6080604052600436106100385760003560e01c80632dd31000146100fa5780638da5cb5b14610157578063c4d66de8146101845761003f565b3661003f57005b60007f000000000000000000000000000000000000000000000000000000000000000073ffffffffffffffffffffffffffffffffffffffff16638117abc16040518163ffffffff1660e01b81526004016020604051808303816000875af11580156100ae573d6000803e3d6000fd5b505050506040513d601f19601f820116820180604052508101906100d2919061022b565b90503660008037600080366000845af43d6000803e8080156100f3573d6000f35b3d6000fd5b005b34801561010657600080fd5b5061012e7f000000000000000000000000000000000000000000000000000000000000000081565b60405173ffffffffffffffffffffffffffffffffffffffff909116815260200160405180910390f35b34801561016357600080fd5b5060005461012e9073ffffffffffffffffffffffffffffffffffffffff1681565b34801561019057600080fd5b506100f861019f36600461024f565b60005473ffffffffffffffffffffffffffffffffffffffff16610201576000805473ffffffffffffffffffffffffffffffffffffffff83167fffffffffffffffffffffffff000000000000000000000000000000000000000090911617905550565b600080fd5b50565b73ffffffffffffffffffffffffffffffffffffffff8116811461020657600080fd5b60006020828403121561023d57600080fd5b815161024881610209565b9392505050565b60006020828403121561026157600080fd5b81356102488161020956fea26469706673582212204d2f9bdc9554e6a8c6815dfd65d8e843dfc01adbf7015f7300aeaa149cdd197964736f6c63430008150033",
  "devdoc": {
    "events": {
      "AdminChanged(address,address)": {
        "details": "Emitted when the admin account has changed."
      },
      "BeaconUpgraded(address)": {
        "details": "Emitted when the beacon is upgraded."
      },
      "Initialized(uint8)": {
        "details": "Triggered when the contract has been initialized or reinitialized."
      },
      "Upgraded(address)": {
        "details": "Emitted when the implementation is upgraded."
      }
    },
    "kind": "dev",
    "methods": {
      "onERC721Received(address,address,uint256,bytes)": {
        "details": "ERC721 callback used Fluid Vault Factory and executes actions encoded in `data_`                         Caller should be Vault T1 Factory.",
        "params": {
          "data_": "data bytes containing the `abi.encoded()` actions that are executed like in `Action[]`",
          "from_": "from_ previous owner of the given token ID",
          "operator_": "operator_ caller to transfer the the given token ID",
          "tokenId_": "tokenId_ id of the ERC721"
        }
      },
      "owner()": {
        "details": "Returns the address of the current owner."
      },
      "proxiableUUID()": {
        "details": "Implementation of the ERC1822 {proxiableUUID} function. This returns the storage slot used by the implementation. It is used to validate the implementation's compatibility when performing an upgrade. IMPORTANT: A proxy pointing at a proxiable contract should not be considered proxiable itself, because this risks bricking a proxy that upgrades to it, by delegating to itself until out of gas. Thus it is critical that this function revert if invoked through a proxy. This is guaranteed by the `notDelegated` modifier."
      },
      "transferOwnership(address)": {
        "details": "Transfers ownership of the contract to a new account (`newOwner`). Can only be called by the current owner."
      },
      "upgradeTo(address)": {
        "details": "Upgrade the implementation of the proxy to `newImplementation`. Calls {_authorizeUpgrade}. Emits an {Upgraded} event."
      },
      "upgradeToAndCall(address,bytes)": {
        "details": "Upgrade the implementation of the proxy to `newImplementation`, and subsequently execute the function call encoded in `data`. Calls {_authorizeUpgrade}. Emits an {Upgraded} event."
      }
    },
    "version": 1
  },
  "userdoc": {
    "kind": "user",
    "methods": {
      "initialize(address)": {
        "notice": "initializes the contract with `owner_` as owner"
      },
      "renounceOwnership()": {
        "notice": "override renounce ownership as it could leave the contract in an unwanted state if called by mistake."
      }
    },
    "version": 1
  },
  "storageLayout": {
    "storage": [
      {
        "astId": 138,
        "contract": "contracts/periphery/wallet/factory/main.sol:FluidWalletFactory",
        "label": "_initialized",
        "offset": 0,
        "slot": "0",
        "type": "t_uint8"
      },
      {
        "astId": 141,
        "contract": "contracts/periphery/wallet/factory/main.sol:FluidWalletFactory",
        "label": "_initializing",
        "offset": 1,
        "slot": "0",
        "type": "t_bool"
      },
      {
        "astId": 625,
        "contract": "contracts/periphery/wallet/factory/main.sol:FluidWalletFactory",
        "label": "__gap",
        "offset": 0,
        "slot": "1",
        "type": "t_array(t_uint256)50_storage"
      },
      {
        "astId": 10,
        "contract": "contracts/periphery/wallet/factory/main.sol:FluidWalletFactory",
        "label": "_owner",
        "offset": 0,
        "slot": "51",
        "type": "t_address"
      },
      {
        "astId": 130,
        "contract": "contracts/periphery/wallet/factory/main.sol:FluidWalletFactory",
        "label": "__gap",
        "offset": 0,
        "slot": "52",
        "type": "t_array(t_uint256)49_storage"
      },
      {
        "astId": 3215,
        "contract": "contracts/periphery/wallet/factory/main.sol:FluidWalletFactory",
        "label": "_implementation",
        "offset": 0,
        "slot": "101",
        "type": "t_address"
      }
    ],
    "types": {
      "t_address": {
        "encoding": "inplace",
        "label": "address",
        "numberOfBytes": "20"
      },
      "t_array(t_uint256)49_storage": {
        "base": "t_uint256",
        "encoding": "inplace",
        "label": "uint256[49]",
        "numberOfBytes": "1568"
      },
      "t_array(t_uint256)50_storage": {
        "base": "t_uint256",
        "encoding": "inplace",
        "label": "uint256[50]",
        "numberOfBytes": "1600"
      },
      "t_bool": {
        "encoding": "inplace",
        "label": "bool",
        "numberOfBytes": "1"
      },
      "t_uint256": {
        "encoding": "inplace",
        "label": "uint256",
        "numberOfBytes": "32"
      },
      "t_uint8": {
        "encoding": "inplace",
        "label": "uint8",
        "numberOfBytes": "1"
      }
    }
  }
}