{
  "address": "0xC05E6f692E1fdCCc19B5E3253dc9cEf2563906d6",
  "abi": [
    {
      "inputs": [
        {
          "internalType": "string",
          "name": "infoName_",
          "type": "string"
        },
        {
          "components": [
            {
              "internalType": "address",
              "name": "source",
              "type": "address"
            },
            {
              "internalType": "bool",
              "name": "invertRate",
              "type": "bool"
            },
            {
              "internalType": "uint256",
              "name": "multiplier",
              "type": "uint256"
            },
            {
              "internalType": "uint256",
              "name": "divisor",
              "type": "uint256"
            },
            {
              "internalType": "enum GenericOracleStructs.SourceType",
              "name": "sourceType",
              "type": "uint8"
            }
          ],
          "internalType": "struct GenericOracleStructs.OracleHopSource[]",
          "name": "sources_",
          "type": "tuple[]"
        },
        {
          "components": [
            {
              "components": [
                {
                  "internalType": "contract IUniswapV3Pool",
                  "name": "pool",
                  "type": "address"
                },
                {
                  "internalType": "bool",
                  "name": "invertRate",
                  "type": "bool"
                },
                {
                  "internalType": "uint256[3]",
                  "name": "tWAPMaxDeltaPercents",
                  "type": "uint256[3]"
                },
                {
                  "internalType": "uint32[5]",
                  "name": "secondsAgos",
                  "type": "uint32[5]"
                }
              ],
              "internalType": "struct UniV3OracleImpl.UniV3ConstructorParams",
              "name": "uniV3Params",
              "type": "tuple"
            },
            {
              "components": [
                {
                  "internalType": "uint8",
                  "name": "hops",
                  "type": "uint8"
                },
                {
                  "components": [
                    {
                      "internalType": "contract IChainlinkAggregatorV3",
                      "name": "feed",
                      "type": "address"
                    },
                    {
                      "internalType": "bool",
                      "name": "invertRate",
                      "type": "bool"
                    },
                    {
                      "internalType": "uint256",
                      "name": "token0Decimals",
                      "type": "uint256"
                    }
                  ],
                  "internalType": "struct ChainlinkStructs.ChainlinkFeedData",
                  "name": "feed1",
                  "type": "tuple"
                },
                {
                  "components": [
                    {
                      "internalType": "contract IChainlinkAggregatorV3",
                      "name": "feed",
                      "type": "address"
                    },
                    {
                      "internalType": "bool",
                      "name": "invertRate",
                      "type": "bool"
                    },
                    {
                      "internalType": "uint256",
                      "name": "token0Decimals",
                      "type": "uint256"
                    }
                  ],
                  "internalType": "struct ChainlinkStructs.ChainlinkFeedData",
                  "name": "feed2",
                  "type": "tuple"
                },
                {
                  "components": [
                    {
                      "internalType": "contract IChainlinkAggregatorV3",
                      "name": "feed",
                      "type": "address"
                    },
                    {
                      "internalType": "bool",
                      "name": "invertRate",
                      "type": "bool"
                    },
                    {
                      "internalType": "uint256",
                      "name": "token0Decimals",
                      "type": "uint256"
                    }
                  ],
                  "internalType": "struct ChainlinkStructs.ChainlinkFeedData",
                  "name": "feed3",
                  "type": "tuple"
                }
              ],
              "internalType": "struct ChainlinkStructs.ChainlinkConstructorParams",
              "name": "chainlinkParams",
              "type": "tuple"
            },
            {
              "components": [
                {
                  "internalType": "contract IRedstoneOracle",
                  "name": "oracle",
                  "type": "address"
                },
                {
                  "internalType": "bool",
                  "name": "invertRate",
                  "type": "bool"
                },
                {
                  "internalType": "uint256",
                  "name": "token0Decimals",
                  "type": "uint256"
                }
              ],
              "internalType": "struct RedstoneStructs.RedstoneOracleData",
              "name": "redstoneOracle",
              "type": "tuple"
            },
            {
              "internalType": "uint8",
              "name": "rateSource",
              "type": "uint8"
            },
            {
              "internalType": "uint8",
              "name": "fallbackMainSource",
              "type": "uint8"
            },
            {
              "internalType": "uint256",
              "name": "rateCheckMaxDeltaPercent",
              "type": "uint256"
            }
          ],
          "internalType": "struct UniV3CheckCLRSOracle.UniV3CheckCLRSConstructorParams",
          "name": "uniV3Params_",
          "type": "tuple"
        }
      ],
      "stateMutability": "nonpayable",
      "type": "constructor"
    },
    {
      "inputs": [
        {
          "internalType": "uint256",
          "name": "errorId_",
          "type": "uint256"
        }
      ],
      "name": "FluidOracleError",
      "type": "error"
    },
    {
      "inputs": [],
      "name": "chainlinkOracleData",
      "outputs": [
        {
          "internalType": "uint256",
          "name": "chainlinkExchangeRate_",
          "type": "uint256"
        },
        {
          "internalType": "contract IChainlinkAggregatorV3",
          "name": "chainlinkFeed1_",
          "type": "address"
        },
        {
          "internalType": "bool",
          "name": "chainlinkInvertRate1_",
          "type": "bool"
        },
        {
          "internalType": "uint256",
          "name": "chainlinkExchangeRate1_",
          "type": "uint256"
        },
        {
          "internalType": "contract IChainlinkAggregatorV3",
          "name": "chainlinkFeed2_",
          "type": "address"
        },
        {
          "internalType": "bool",
          "name": "chainlinkInvertRate2_",
          "type": "bool"
        },
        {
          "internalType": "uint256",
          "name": "chainlinkExchangeRate2_",
          "type": "uint256"
        },
        {
          "internalType": "contract IChainlinkAggregatorV3",
          "name": "chainlinkFeed3_",
          "type": "address"
        },
        {
          "internalType": "bool",
          "name": "chainlinkInvertRate3_",
          "type": "bool"
        },
        {
          "internalType": "uint256",
          "name": "chainlinkExchangeRate3_",
          "type": "uint256"
        }
      ],
      "stateMutability": "view",
      "type": "function"
    },
    {
      "inputs": [],
      "name": "getExchangeRate",
      "outputs": [
        {
          "internalType": "uint256",
          "name": "exchangeRate_",
          "type": "uint256"
        }
      ],
      "stateMutability": "view",
      "type": "function"
    },
    {
      "inputs": [],
      "name": "getExchangeRateLiquidate",
      "outputs": [
        {
          "internalType": "uint256",
          "name": "exchangeRate_",
          "type": "uint256"
        }
      ],
      "stateMutability": "view",
      "type": "function"
    },
    {
      "inputs": [],
      "name": "getExchangeRateOperate",
      "outputs": [
        {
          "internalType": "uint256",
          "name": "exchangeRate_",
          "type": "uint256"
        }
      ],
      "stateMutability": "view",
      "type": "function"
    },
    {
      "inputs": [],
      "name": "getHopExchangeRates",
      "outputs": [
        {
          "internalType": "uint256",
          "name": "rateSource1Operate_",
          "type": "uint256"
        },
        {
          "internalType": "uint256",
          "name": "rateSource1Liquidate_",
          "type": "uint256"
        },
        {
          "internalType": "uint256",
          "name": "rateSource2Operate_",
          "type": "uint256"
        },
        {
          "internalType": "uint256",
          "name": "rateSource2Liquidate_",
          "type": "uint256"
        },
        {
          "internalType": "uint256",
          "name": "rateSource3Operate_",
          "type": "uint256"
        },
        {
          "internalType": "uint256",
          "name": "rateSource3Liquidate_",
          "type": "uint256"
        },
        {
          "internalType": "uint256",
          "name": "rateSource4Operate_",
          "type": "uint256"
        },
        {
          "internalType": "uint256",
          "name": "rateSource4Liquidate_",
          "type": "uint256"
        },
        {
          "internalType": "uint256",
          "name": "rateSource5Operate_",
          "type": "uint256"
        },
        {
          "internalType": "uint256",
          "name": "rateSource5Liquidate_",
          "type": "uint256"
        }
      ],
      "stateMutability": "view",
      "type": "function"
    },
    {
      "inputs": [],
      "name": "getOracleHopSources",
      "outputs": [
        {
          "components": [
            {
              "internalType": "address",
              "name": "source",
              "type": "address"
            },
            {
              "internalType": "bool",
              "name": "invertRate",
              "type": "bool"
            },
            {
              "internalType": "uint256",
              "name": "multiplier",
              "type": "uint256"
            },
            {
              "internalType": "uint256",
              "name": "divisor",
              "type": "uint256"
            },
            {
              "internalType": "enum GenericOracleStructs.SourceType",
              "name": "sourceType",
              "type": "uint8"
            }
          ],
          "internalType": "struct GenericOracleStructs.OracleHopSource[]",
          "name": "sources_",
          "type": "tuple[]"
        }
      ],
      "stateMutability": "view",
      "type": "function"
    },
    {
      "inputs": [],
      "name": "infoName",
      "outputs": [
        {
          "internalType": "string",
          "name": "",
          "type": "string"
        }
      ],
      "stateMutability": "view",
      "type": "function"
    },
    {
      "inputs": [],
      "name": "redstoneOracleData",
      "outputs": [
        {
          "internalType": "uint256",
          "name": "redstoneExchangeRate_",
          "type": "uint256"
        },
        {
          "internalType": "contract IRedstoneOracle",
          "name": "redstoneOracle_",
          "type": "address"
        },
        {
          "internalType": "bool",
          "name": "redstoneInvertRate_",
          "type": "bool"
        }
      ],
      "stateMutability": "view",
      "type": "function"
    },
    {
      "inputs": [],
      "name": "uniV3CheckOracleData",
      "outputs": [
        {
          "internalType": "uint256",
          "name": "rateCheckMaxDelta_",
          "type": "uint256"
        },
        {
          "internalType": "uint256",
          "name": "rateSource_",
          "type": "uint256"
        },
        {
          "internalType": "uint256",
          "name": "fallbackMainSource_",
          "type": "uint256"
        }
      ],
      "stateMutability": "view",
      "type": "function"
    },
    {
      "inputs": [],
      "name": "uniV3OracleData",
      "outputs": [
        {
          "internalType": "contract IUniswapV3Pool",
          "name": "uniV3Pool_",
          "type": "address"
        },
        {
          "internalType": "bool",
          "name": "uniV3InvertRate_",
          "type": "bool"
        },
        {
          "internalType": "uint32[]",
          "name": "uniV3secondsAgos_",
          "type": "uint32[]"
        },
        {
          "internalType": "uint256[]",
          "name": "uniV3TwapDeltas_",
          "type": "uint256[]"
        },
        {
          "internalType": "uint256",
          "name": "uniV3exchangeRateUnsafe_",
          "type": "uint256"
        },
        {
          "internalType": "uint256",
          "name": "uniV3exchangeRate_",
          "type": "uint256"
        }
      ],
      "stateMutability": "view",
      "type": "function"
    }
  ],
  "transactionHash": "0xa916e29dce42ca76db98fe8d3602c51ac93161a0948b4ffbd6ec9160ec554427",
  "args": [
    [
      "SUSDS per 1 WEETH",
      [
        {
          "sourceType": 2,
          "source": "0x5c9C449BbC9a6075A2c061dF312a35fd1E05fF22",
          "invertRate": false,
          "multiplier": "1000000000",
          "divisor": 1
        },
        {
          "sourceType": 3,
          "source": "0x0000000000000000000000000000000000000000",
          "invertRate": false,
          "multiplier": 1,
          "divisor": 1
        },
        {
          "sourceType": 2,
          "source": "0x8fFfFfd4AfB6115b954Bd326cbe7B4BA576818f6",
          "invertRate": false,
          "multiplier": "10000000000000000000000000000000",
          "divisor": 1
        },
        {
          "sourceType": 0,
          "source": "0x23F966DE6C008601972A8057B5767F70E91Cf66F",
          "invertRate": true,
          "multiplier": 1,
          "divisor": 1
        }
      ],
      {
        "chainlinkParams": {
          "hops": 1,
          "feed1": {
            "feed": "0x986b5e1e1755e3c2440e960477f25201b0a8bbd4",
            "invertRate": true,
            "token0Decimals": 6
          },
          "feed2": {
            "feed": "0x0000000000000000000000000000000000000000",
            "invertRate": false,
            "token0Decimals": 0
          },
          "feed3": {
            "feed": "0x0000000000000000000000000000000000000000",
            "invertRate": false,
            "token0Decimals": 0
          }
        },
        "uniV3Params": {
          "pool": "0x88e6a0c2ddd26feeb64f039a2c41296fcb3f5640",
          "secondsAgos": [
            240,
            60,
            15,
            1,
            0
          ],
          "tWAPMaxDeltaPercents": [
            200,
            50,
            20
          ],
          "invertRate": true
        },
        "redstoneOracle": {
          "oracle": "0x0000000000000000000000000000000000000000",
          "invertRate": false,
          "token0Decimals": 0
        },
        "rateSource": 2,
        "fallbackMainSource": 1,
        "rateCheckMaxDeltaPercent": 300
      }
    ]
  ],
  "numDeployments": 1,
  "linkedData": {
    "nonce": "90"
  },
  "bytecode": "0x61084060405261dead610640523480156200001957600080fd5b5060405162006495380380620064958339810160408190526200003c91620014a5565b828181818060800151816020015182604001518160006001600160a01b031682600001516001600160a01b031614620000765781620000a2565b6040518060600160405280610640516001600160a01b0316815260200160001515815260200160018152505b85518b5188908d901580620000b8575060058151115b15620000e05760405163c82fc46560e01b815261ebf160048201526024015b60405180910390fd5b6200010e81600081518110620000fa57620000fa62001595565b602002602001015162000f8960201b60201c565b8060008151811062000124576200012462001595565b6020908102919091010151516001600160a01b03166080528051819060009062000152576200015262001595565b602002602001015160200151151560a081151581525050806000815181106200017f576200017f62001595565b60200260200101516040015160c0818152505080600081518110620001a857620001a862001595565b60200260200101516060015160e0818152505080600081518110620001d157620001d162001595565b6020026020010151608001516003811115620001f157620001f1620015ab565b610100816003811115620002095762000209620015ab565b8152505060018151111562000337576200023281600181518110620000fa57620000fa62001595565b8060018151811062000248576200024862001595565b6020908102919091010151516001600160a01b03166101205280518190600190811062000279576200027962001595565b60200260200101516020015115156101408115158152505080600181518110620002a757620002a762001595565b602002602001015160400151610160818152505080600181518110620002d157620002d162001595565b602002602001015160600151610180818152505080600181518110620002fb57620002fb62001595565b60200260200101516080015160038111156200031b576200031b620015ab565b6101a0816003811115620003335762000333620015ab565b9052505b60028151111562000461576200035c81600281518110620000fa57620000fa62001595565b8060028151811062000372576200037262001595565b6020908102919091010151516001600160a01b03166101c052805181906002908110620003a357620003a362001595565b60200260200101516020015115156101e08115158152505080600281518110620003d157620003d162001595565b602002602001015160400151610200818152505080600281518110620003fb57620003fb62001595565b60200260200101516060015161022081815250508060028151811062000425576200042562001595565b6020026020010151608001516003811115620004455762000445620015ab565b6102408160038111156200045d576200045d620015ab565b9052505b6003815111156200058b576200048681600381518110620000fa57620000fa62001595565b806003815181106200049c576200049c62001595565b6020908102919091010151516001600160a01b031661026052805181906003908110620004cd57620004cd62001595565b60200260200101516020015115156102808115158152505080600381518110620004fb57620004fb62001595565b6020026020010151604001516102a081815250508060038151811062000525576200052562001595565b6020026020010151606001516102c08181525050806003815181106200054f576200054f62001595565b60200260200101516080015160038111156200056f576200056f620015ab565b6102e0816003811115620005875762000587620015ab565b9052505b600481511115620006b557620005b081600481518110620000fa57620000fa62001595565b80600481518110620005c657620005c662001595565b6020908102919091010151516001600160a01b031661030052805181906004908110620005f757620005f762001595565b6020026020010151602001511515610320811515815250508060048151811062000625576200062562001595565b6020026020010151604001516103408181525050806004815181106200064f576200064f62001595565b60200260200101516060015161036081815250508060048151811062000679576200067962001595565b6020026020010151608001516003811115620006995762000699620015ab565b610380816003811115620006b157620006b1620015ab565b9052505b50602081511180620006c657508051155b15620006ea5760405163c82fc46560e01b815261ea6a6004820152602401620000d7565b602001516103a05280516001600160a01b0316620007205760405163c82fc46560e01b815261f2316004820152602401620000d7565b60608101516020810151905163ffffffff91821691161115806200076057506060810151604081015163ffffffff16906001602002015163ffffffff1611155b806200078857506060818101519081015163ffffffff16906002602002015163ffffffff1611155b80620007b057506060810151608081015163ffffffff16906003602002015163ffffffff1611155b15620007d45760405163c82fc46560e01b815261f2326004820152602401620000d7565b604081015151612710111580620007f5575060408101518051602090910151115b806200080c57506040818101516020810151910151115b15620008305760405163c82fc46560e01b815261f2336004820152602401620000d7565b606081810180515163ffffffff90811661046052815160209081015182166104805282516040015182166104a05282519093015181166104c052815160800151166104e05251908101519051620008889190620015d7565b63ffffffff166105005260608101516040810151602090910151620008ae9190620015d7565b63ffffffff166105205260608181015190810151604090910151620008d49190620015d7565b63ffffffff16610540526060818101516080810151910151620008f89190620015d7565b63ffffffff16610560526040818101805151610400528051602090810151610420529051909101516104405281516001600160a01b03166103c05281015115156103e0526200094a601b600a620016fd565b610580526200095c601b600262001712565b6200096990600a620016fd565b6105a0525080516001600160a01b031615806200098857506040810151155b15620009ac5760405163c82fc46560e01b815261fa016004820152602401620000d7565b80516001600160a01b039081166105c052602082015115156105e0526106405182518216911614620009fd576040810151620009ea90601b6200172c565b620009f790600a620016fd565b62000a00565b60015b610600526106405181516001600160a01b0390811691161462000a4257604081015162000a2f90601b62001742565b62000a3c90600a620016fd565b62000a45565b60015b61062052508051600160ff909116108062000a6757506003816000015160ff16115b8062000a9057506020810151516001600160a01b0316158062000a905750602081015160400151155b8062000acb57506001816000015160ff1611801562000acb57506040810151516001600160a01b0316158062000acb57506040808201510151155b8062000b0757506002816000015160ff1611801562000b0757506060810151516001600160a01b0316158062000b075750606081015160400151155b1562000b2b5760405163c82fc46560e01b815261ee496004820152602401620000d7565b60208082018051516001600160a01b03908116610660526040808501805151831661068052606086018051519093166106a052835185015115156106c0525184015115156106e05290519092015115156107005251015162000b8f90601b6200172c565b62000b9c90600a620016fd565b6107205260208101516040015162000bb690601b62001742565b62000bc390600a620016fd565b610740528051600160ff9091161162000bde57600162000c00565b604080820151015162000bf390601b6200172c565b62000c0090600a620016fd565b610760528051600160ff9091161162000c1b57600162000c3d565b604080820151015162000c3090601b62001742565b62000c3d90600a620016fd565b610780528051600260ff9091161162000c5857600162000c7b565b60608101516040015162000c6e90601b6200172c565b62000c7b90600a620016fd565b6107a0528051600260ff9091161162000c9657600162000cb9565b60608101516040015162000cac90601b62001742565b62000cb990600a620016fd565b6107c05250600160ff8416108062000cd4575060038360ff16115b1562000cf85760405163c82fc46560e01b815261fde96004820152602401620000d7565b505060ff9081166107e052606082015160019116108062000d2057506003816060015160ff16115b8062000d3157506127108160a00151115b8062000d575750806080015160ff16600114801562000d575750806060015160ff166003145b1562000d7b5760405163c82fc46560e01b815261ea626004820152602401620000d7565b60a0810151610800526060015160ff16610820525060009150600390508360008151811062000dae5762000dae62001595565b602002602001015160800151600381111562000dce5762000dce620015ab565b0362000de4578062000de08162001758565b9150505b6001835111801562000e2b575060038360018151811062000e095762000e0962001595565b602002602001015160800151600381111562000e295762000e29620015ab565b145b1562000e41578062000e3d8162001758565b9150505b6002835111801562000e88575060038360028151811062000e665762000e6662001595565b602002602001015160800151600381111562000e865762000e86620015ab565b145b1562000e9e578062000e9a8162001758565b9150505b6003835111801562000ee5575060038360038151811062000ec35762000ec362001595565b602002602001015160800151600381111562000ee35762000ee3620015ab565b145b1562000efb578062000ef78162001758565b9150505b6004835111801562000f42575060038360048151811062000f205762000f2062001595565b602002602001015160800151600381111562000f405762000f40620015ab565b145b1562000f58578062000f548162001758565b9150505b8060011462000f7f5760405163c82fc46560e01b815261ebf16004820152602401620000d7565b5050505062001774565b60038160800151600381111562000fa45762000fa4620015ab565b1415801562000fbb575080516001600160a01b0316155b8062000fc957506060810151155b8062000fd757506040810151155b8062000ff75750701d6329f1c35ca4bfabb9f56100000000008160600151115b80620010175750701d6329f1c35ca4bfabb9f56100000000008160400151115b156200103b5760405163c82fc46560e01b815261ebf16004820152602401620000d7565b50565b634e487b7160e01b600052604160045260246000fd5b60405160a081016001600160401b03811182821017156200107957620010796200103e565b60405290565b604051606081016001600160401b03811182821017156200107957620010796200103e565b604051608081016001600160401b03811182821017156200107957620010796200103e565b60405160c081016001600160401b03811182821017156200107957620010796200103e565b604051601f8201601f191681016001600160401b03811182821017156200111957620011196200103e565b604052919050565b6001600160a01b03811681146200103b57600080fd5b805180151581146200114857600080fd5b919050565b600082601f8301126200115f57600080fd5b815160206001600160401b038211156200117d576200117d6200103e565b6200118d818360051b01620010ee565b82815260a09283028501820192828201919087851115620011ad57600080fd5b8387015b85811015620012305781818a031215620011cb5760008081fd5b620011d562001054565b8151620011e28162001121565b8152620011f182870162001137565b818701526040828101519082015260608083015190820152608080830151600481106200121e5760008081fd5b908201528452928401928101620011b1565b5090979650505050505050565b600082601f8301126200124f57600080fd5b6200125962001054565b8060a08401858111156200126c57600080fd5b845b818110156200129c57805163ffffffff811681146200128d5760008081fd5b8452602093840193016200126e565b509095945050505050565b805160ff811681146200114857600080fd5b600060608284031215620012cc57600080fd5b620012d66200107f565b90508151620012e58162001121565b8152620012f56020830162001137565b60208201526040820151604082015292915050565b600061014082840312156200131e57600080fd5b62001328620010a4565b90506200133582620012a7565b8152620013468360208401620012b9565b60208201526200135a8360808401620012b9565b60408201526200136e8360e08401620012b9565b606082015292915050565b60008183036103408112156200138e57600080fd5b62001398620010c9565b915061014080821215620013ab57600080fd5b620013b5620010a4565b91508351620013c48162001121565b82526020620013d585820162001137565b8184015285605f860112620013e957600080fd5b620013f36200107f565b8060a08701888111156200140657600080fd5b604088015b818110156200142457805184529284019284016200140b565b508160408701526200143789826200123d565b606087015250505082845262001450868387016200130a565b8185015250505062001467836102808401620012b9565b60408201526200147b6102e08301620012a7565b60608201526200148f6103008301620012a7565b608082015261032082015160a082015292915050565b60008060006103808486031215620014bc57600080fd5b83516001600160401b0380821115620014d457600080fd5b818601915086601f830112620014e957600080fd5b815181811115620014fe57620014fe6200103e565b602062001514601f8301601f19168201620010ee565b82815289828487010111156200152957600080fd5b60005b83811015620015495785810183015182820184015282016200152c565b5060009281018201929092528701519095509150808211156200156b57600080fd5b506200157a868287016200114d565b9250506200158c856040860162001379565b90509250925092565b634e487b7160e01b600052603260045260246000fd5b634e487b7160e01b600052602160045260246000fd5b634e487b7160e01b600052601160045260246000fd5b63ffffffff828116828216039080821115620015f757620015f7620015c1565b5092915050565b600181815b808511156200163f578160001904821115620016235762001623620015c1565b808516156200163157918102915b93841c939080029062001603565b509250929050565b6000826200165857506001620016f7565b816200166757506000620016f7565b81600181146200168057600281146200168b57620016ab565b6001915050620016f7565b60ff8411156200169f576200169f620015c1565b50506001821b620016f7565b5060208310610133831016604e8410600b8410161715620016d0575081810a620016f7565b620016dc8383620015fe565b8060001904821115620016f357620016f3620015c1565b0290505b92915050565b60006200170b838362001647565b9392505050565b8082028115828204841417620016f757620016f7620015c1565b81810381811115620016f757620016f7620015c1565b80820180821115620016f757620016f7620015c1565b6000600182016200176d576200176d620015c1565b5060010190565b60805160a05160c05160e05161010051610120516101405161016051610180516101a0516101c0516101e05161020051610220516102405161026051610280516102a0516102c0516102e05161030051610320516103405161036051610380516103a0516103c0516103e05161040051610420516104405161046051610480516104a0516104c0516104e05161050051610520516105405161056051610580516105a0516105c0516105e05161060051610620516106405161066051610680516106a0516106c0516106e05161070051610720516107405161076051610780516107a0516107c0516107e051610800516108205161468062001e156000396000818161016601528181613955015281816139cb01528181613b4601528181613bd701528181613c410152613d1301526000818161014101528181613aea01528181613c8f0152613d4d01526000818161018e01528181613b1b01528181613bac01528181613c0801528181613d9b01528181613dd40152613e0d0152600081816105480152611ed90152600081816105270152611eb80152600081816104560152611de20152600081816104350152611dc101526000818161036c0152611cff01526000818161034b0152611cde0152600081816104a5015281816105060152611e970152600081816103b3015281816104140152611da00152600081816102e50152818161032a0152611cbd015260008181610484015281816104e501528181611e260152611e76015260008181610392015281816103f301528181611d2f0152611d7f0152600081816102c4015281816103090152611c9c0152600061059c015260006120af015260006120de01526000818161064301526120850152600081816105d3015281816106200152611fd601526000612fbc01526000612f70015260008181612bfb0152612c3e01526000612e1301526000612d7a01526000612ce1015260008181610d8e0152612ac8015260008181610d400152612aa2015260008181610cf20152612a7c015260008181610ca40152612a56015260008181610c560152612a30015260008181610e760152612e34015260008181610e360152612d9b015260008181610df60152612d02015260008181610ed7015281816129b30152612e7e015260008181610eb60152818161291c0152612b0b015260008181610f2d0152610ff2015260008181610bca01528181611a4601528181611b4b01528181611c4b015281816127a301526128a2015260008181610ba401528181611b2501528181611c25015261287c015260008181610b7e01528181611aff01528181611bff0152612856015260008181610b5601528181611ad701528181611bd7015261282e015260008181610b1a01528181611a0501528181611a9b01528181611b9b0152818161276201526127f2015260008181610abc015281816117cb015281816118d0015281816119d0015281816125f101526126f0015260008181610a96015281816118aa015281816119aa01526126ca015260008181610a70015281816118840152818161198401526126a4015260008181610a480152818161185c0152818161195c015261267c015260008181610a0c0152818161178a0152818161182001528181611920015281816125b001526126400152600081816109ae0152818161155001528181611655015281816117550152818161243f015261253e0152600081816109880152818161162f0152818161172f0152612518015260008181610962015281816116090152818161170901526124f201526000818161093a015281816115e1015281816116e101526124ca0152600081816108fe0152818161150f015281816115a5015281816116a5015281816123fe015261248e0152600081816108a0015281816112d5015281816113da015281816114da0152818161228d015261238c01526000818161087a015281816113b4015281816114b401526123660152600081816108540152818161138e0152818161148e015261234001526000818161082c015281816113660152818161146601526123180152600081816107f0015281816112940152818161132a0152818161142a0152818161224c01526122dc015260008181610792015281816111590152818161126001526121d501526000818161076c015281816111330152818161123a01526121af0152600081816107460152818161110d01528181611214015261218901526000818161071e015281816110e5015281816111ec01526121610152600081816106e2015281816110a9015281816111b0015261212501526146806000f3fe608060405234801561001057600080fd5b50600436106100be5760003560e01c8063a6ac913411610076578063d643a8cf1161005b578063d643a8cf14610251578063e6aa216c146102a3578063f3190c89146102a357600080fd5b8063a6ac913414610222578063abd5f95d1461023c57600080fd5b806388c35209116100a757806388c35209146101bd5780638e7bfbc0146101f757806394f253ef1461020d57600080fd5b80637557ca41146100c35780637cebd7c51461013b575b600080fd5b6100cb6102ab565b604080519a8b5273ffffffffffffffffffffffffffffffffffffffff998a1660208c0152971515978a01979097526060890195909552928616608088015290151560a087015260c086015290921660e0840152901515610100830152610120820152610140015b60405180910390f35b604080517f0000000000000000000000000000000000000000000000000000000000000000815260ff7f0000000000000000000000000000000000000000000000000000000000000000811660208301527f00000000000000000000000000000000000000000000000000000000000000001691810191909152606001610132565b6101c5610595565b6040805193845273ffffffffffffffffffffffffffffffffffffffff9092166020840152151590820152606001610132565b6101ff610668565b604051908152602001610132565b610215610679565b6040516101329190613ee7565b61022a610c1e565b60405161013296959493929190613fe0565b610244610f1b565b6040516101329190614095565b610259611080565b604080519a8b5260208b0199909952978901969096526060880194909452608087019290925260a086015260c085015260e084015261010083015261012082015261014001610132565b6101ff611c89565b6000806000806000806000806000806102c2611c95565b7f00000000000000000000000000000000000000000000000000000000000000007f00000000000000000000000000000000000000000000000000000000000000006103907f00000000000000000000000000000000000000000000000000000000000000007f00000000000000000000000000000000000000000000000000000000000000007f00000000000000000000000000000000000000000000000000000000000000007f0000000000000000000000000000000000000000000000000000000000000000611f11565b7f00000000000000000000000000000000000000000000000000000000000000007f000000000000000000000000000000000000000000000000000000000000000073ffffffffffffffffffffffffffffffffffffffff82161561047f5761047a7f00000000000000000000000000000000000000000000000000000000000000007f00000000000000000000000000000000000000000000000000000000000000007f00000000000000000000000000000000000000000000000000000000000000007f0000000000000000000000000000000000000000000000000000000000000000611f11565b610482565b60005b7f00000000000000000000000000000000000000000000000000000000000000007f000000000000000000000000000000000000000000000000000000000000000073ffffffffffffffffffffffffffffffffffffffff8216156105715761056c7f00000000000000000000000000000000000000000000000000000000000000007f00000000000000000000000000000000000000000000000000000000000000007f00000000000000000000000000000000000000000000000000000000000000007f0000000000000000000000000000000000000000000000000000000000000000611f11565b610574565b60005b99509950995099509950995099509950995099505b90919293949596979899565b60008060007f000000000000000000000000000000000000000000000000000000000000000073ffffffffffffffffffffffffffffffffffffffff167f000000000000000000000000000000000000000000000000000000000000000073ffffffffffffffffffffffffffffffffffffffff161461061a57610615611fd2565b61061d565b60005b937f000000000000000000000000000000000000000000000000000000000000000093507f000000000000000000000000000000000000000000000000000000000000000092509050565b60006106746001612106565b905090565b60408051600580825260c08201909252606091816020015b6106c06040805160a0810182526000808252602082018190529181018290526060810182905290608082015290565b8152602001906001900390816106915790505090506040518060a001604052807f000000000000000000000000000000000000000000000000000000000000000073ffffffffffffffffffffffffffffffffffffffff1681526020017f0000000000000000000000000000000000000000000000000000000000000000151581526020017f000000000000000000000000000000000000000000000000000000000000000081526020017f000000000000000000000000000000000000000000000000000000000000000081526020017f000000000000000000000000000000000000000000000000000000000000000060038111156107c2576107c2613eb8565b815250816000815181106107d8576107d8614115565b60200260200101819052506040518060a001604052807f000000000000000000000000000000000000000000000000000000000000000073ffffffffffffffffffffffffffffffffffffffff1681526020017f0000000000000000000000000000000000000000000000000000000000000000151581526020017f000000000000000000000000000000000000000000000000000000000000000081526020017f000000000000000000000000000000000000000000000000000000000000000081526020017f000000000000000000000000000000000000000000000000000000000000000060038111156108d0576108d0613eb8565b815250816001815181106108e6576108e6614115565b60200260200101819052506040518060a001604052807f000000000000000000000000000000000000000000000000000000000000000073ffffffffffffffffffffffffffffffffffffffff1681526020017f0000000000000000000000000000000000000000000000000000000000000000151581526020017f000000000000000000000000000000000000000000000000000000000000000081526020017f000000000000000000000000000000000000000000000000000000000000000081526020017f000000000000000000000000000000000000000000000000000000000000000060038111156109de576109de613eb8565b815250816002815181106109f4576109f4614115565b60200260200101819052506040518060a001604052807f000000000000000000000000000000000000000000000000000000000000000073ffffffffffffffffffffffffffffffffffffffff1681526020017f0000000000000000000000000000000000000000000000000000000000000000151581526020017f000000000000000000000000000000000000000000000000000000000000000081526020017f000000000000000000000000000000000000000000000000000000000000000081526020017f00000000000000000000000000000000000000000000000000000000000000006003811115610aec57610aec613eb8565b81525081600381518110610b0257610b02614115565b60200260200101819052506040518060a001604052807f000000000000000000000000000000000000000000000000000000000000000073ffffffffffffffffffffffffffffffffffffffff1681526020017f0000000000000000000000000000000000000000000000000000000000000000151581526020017f000000000000000000000000000000000000000000000000000000000000000081526020017f000000000000000000000000000000000000000000000000000000000000000081526020017f00000000000000000000000000000000000000000000000000000000000000006003811115610bfa57610bfa613eb8565b81525081600481518110610c1057610c10614115565b602002602001018190525090565b60008060608082806005604051908082528060200260200182016040528015610c51578160200160208202803683370190505b5093507f000000000000000000000000000000000000000000000000000000000000000084600081518110610c8857610c88614115565b602002602001019063ffffffff16908163ffffffff16815250507f000000000000000000000000000000000000000000000000000000000000000084600181518110610cd657610cd6614115565b602002602001019063ffffffff16908163ffffffff16815250507f000000000000000000000000000000000000000000000000000000000000000084600281518110610d2457610d24614115565b602002602001019063ffffffff16908163ffffffff16815250507f000000000000000000000000000000000000000000000000000000000000000084600381518110610d7257610d72614115565b602002602001019063ffffffff16908163ffffffff16815250507f000000000000000000000000000000000000000000000000000000000000000084600481518110610dc057610dc0614115565b63ffffffff92909216602092830291909101820152604080516003808252608082019092529182016060803683370190505092507f000000000000000000000000000000000000000000000000000000000000000083600081518110610e2857610e28614115565b6020026020010181815250507f000000000000000000000000000000000000000000000000000000000000000083600181518110610e6857610e68614115565b6020026020010181815250507f000000000000000000000000000000000000000000000000000000000000000083600281518110610ea857610ea8614115565b6020026020010181815250507f00000000000000000000000000000000000000000000000000000000000000007f00000000000000000000000000000000000000000000000000000000000000008585610f00612917565b610f086129f5565b949b939a50919850965094509092509050565b606060005b602081108015610f8657507f00000000000000000000000000000000000000000000000000000000000000008160208110610f5d57610f5d614115565b1a60f81b7fff000000000000000000000000000000000000000000000000000000000000001615155b15610f9d5780610f9581614173565b915050610f20565b60008167ffffffffffffffff811115610fb857610fb86140e6565b6040519080825280601f01601f191660200182016040528015610fe2576020820181803683370190505b50905060005b82811015611079577f0000000000000000000000000000000000000000000000000000000000000000816020811061102257611022614115565b1a60f81b82828151811061103857611038614115565b60200101907effffffffffffffffffffffffffffffffffffffffffffffffffffffffffffff1916908160001a9053508061107181614173565b915050610fe8565b5092915050565b600080808080808080808061119061109a601b600a6142cb565b60016040518060a001604052807f000000000000000000000000000000000000000000000000000000000000000073ffffffffffffffffffffffffffffffffffffffff1681526020017f0000000000000000000000000000000000000000000000000000000000000000151581526020017f000000000000000000000000000000000000000000000000000000000000000081526020017f000000000000000000000000000000000000000000000000000000000000000081526020017f0000000000000000000000000000000000000000000000000000000000000000600381111561118957611189613eb8565b9052612eb6565b99506112906111a1601b600a6142cb565b60006040518060a001604052807f000000000000000000000000000000000000000000000000000000000000000073ffffffffffffffffffffffffffffffffffffffff1681526020017f0000000000000000000000000000000000000000000000000000000000000000151581526020017f000000000000000000000000000000000000000000000000000000000000000081526020017f000000000000000000000000000000000000000000000000000000000000000081526020017f0000000000000000000000000000000000000000000000000000000000000000600381111561118957611189613eb8565b98507f000000000000000000000000000000000000000000000000000000000000000073ffffffffffffffffffffffffffffffffffffffff16151580611307575060037f0000000000000000000000000000000000000000000000000000000000000000600381111561130557611305613eb8565b145b1561150d5761140a61131b601b600a6142cb565b60016040518060a001604052807f000000000000000000000000000000000000000000000000000000000000000073ffffffffffffffffffffffffffffffffffffffff1681526020017f0000000000000000000000000000000000000000000000000000000000000000151581526020017f000000000000000000000000000000000000000000000000000000000000000081526020017f000000000000000000000000000000000000000000000000000000000000000081526020017f0000000000000000000000000000000000000000000000000000000000000000600381111561118957611189613eb8565b975061150a61141b601b600a6142cb565b60006040518060a001604052807f000000000000000000000000000000000000000000000000000000000000000073ffffffffffffffffffffffffffffffffffffffff1681526020017f0000000000000000000000000000000000000000000000000000000000000000151581526020017f000000000000000000000000000000000000000000000000000000000000000081526020017f000000000000000000000000000000000000000000000000000000000000000081526020017f0000000000000000000000000000000000000000000000000000000000000000600381111561118957611189613eb8565b96505b7f000000000000000000000000000000000000000000000000000000000000000073ffffffffffffffffffffffffffffffffffffffff16151580611582575060037f0000000000000000000000000000000000000000000000000000000000000000600381111561158057611580613eb8565b145b1561178857611685611596601b600a6142cb565b60016040518060a001604052807f000000000000000000000000000000000000000000000000000000000000000073ffffffffffffffffffffffffffffffffffffffff1681526020017f0000000000000000000000000000000000000000000000000000000000000000151581526020017f000000000000000000000000000000000000000000000000000000000000000081526020017f000000000000000000000000000000000000000000000000000000000000000081526020017f0000000000000000000000000000000000000000000000000000000000000000600381111561118957611189613eb8565b9550611785611696601b600a6142cb565b60006040518060a001604052807f000000000000000000000000000000000000000000000000000000000000000073ffffffffffffffffffffffffffffffffffffffff1681526020017f0000000000000000000000000000000000000000000000000000000000000000151581526020017f000000000000000000000000000000000000000000000000000000000000000081526020017f000000000000000000000000000000000000000000000000000000000000000081526020017f0000000000000000000000000000000000000000000000000000000000000000600381111561118957611189613eb8565b94505b7f000000000000000000000000000000000000000000000000000000000000000073ffffffffffffffffffffffffffffffffffffffff161515806117fd575060037f000000000000000000000000000000000000000000000000000000000000000060038111156117fb576117fb613eb8565b145b15611a0357611900611811601b600a6142cb565b60016040518060a001604052807f000000000000000000000000000000000000000000000000000000000000000073ffffffffffffffffffffffffffffffffffffffff1681526020017f0000000000000000000000000000000000000000000000000000000000000000151581526020017f000000000000000000000000000000000000000000000000000000000000000081526020017f000000000000000000000000000000000000000000000000000000000000000081526020017f0000000000000000000000000000000000000000000000000000000000000000600381111561118957611189613eb8565b9350611a00611911601b600a6142cb565b60006040518060a001604052807f000000000000000000000000000000000000000000000000000000000000000073ffffffffffffffffffffffffffffffffffffffff1681526020017f0000000000000000000000000000000000000000000000000000000000000000151581526020017f000000000000000000000000000000000000000000000000000000000000000081526020017f000000000000000000000000000000000000000000000000000000000000000081526020017f0000000000000000000000000000000000000000000000000000000000000000600381111561118957611189613eb8565b92505b7f000000000000000000000000000000000000000000000000000000000000000073ffffffffffffffffffffffffffffffffffffffff16151580611a78575060037f00000000000000000000000000000000000000000000000000000000000000006003811115611a7657611a76613eb8565b145b1561058957611b7b611a8c601b600a6142cb565b60016040518060a001604052807f000000000000000000000000000000000000000000000000000000000000000073ffffffffffffffffffffffffffffffffffffffff1681526020017f0000000000000000000000000000000000000000000000000000000000000000151581526020017f000000000000000000000000000000000000000000000000000000000000000081526020017f000000000000000000000000000000000000000000000000000000000000000081526020017f0000000000000000000000000000000000000000000000000000000000000000600381111561118957611189613eb8565b9150611c7b611b8c601b600a6142cb565b60006040518060a001604052807f000000000000000000000000000000000000000000000000000000000000000073ffffffffffffffffffffffffffffffffffffffff1681526020017f0000000000000000000000000000000000000000000000000000000000000000151581526020017f000000000000000000000000000000000000000000000000000000000000000081526020017f000000000000000000000000000000000000000000000000000000000000000081526020017f0000000000000000000000000000000000000000000000000000000000000000600381111561118957611189613eb8565b905090919293949596979899565b60006106746000612106565b6000611d237f00000000000000000000000000000000000000000000000000000000000000007f00000000000000000000000000000000000000000000000000000000000000007f00000000000000000000000000000000000000000000000000000000000000007f0000000000000000000000000000000000000000000000000000000000000000611f11565b9050801580611d6657507f000000000000000000000000000000000000000000000000000000000000000073ffffffffffffffffffffffffffffffffffffffff16155b15611d6e5790565b611d7a601b600a6142cb565b611e067f00000000000000000000000000000000000000000000000000000000000000007f00000000000000000000000000000000000000000000000000000000000000007f00000000000000000000000000000000000000000000000000000000000000007f0000000000000000000000000000000000000000000000000000000000000000611f11565b611e1090836142d7565b611e1a919061431d565b9050801580611e5d57507f000000000000000000000000000000000000000000000000000000000000000073ffffffffffffffffffffffffffffffffffffffff16155b15611e655790565b611e71601b600a6142cb565b611efd7f00000000000000000000000000000000000000000000000000000000000000007f00000000000000000000000000000000000000000000000000000000000000007f00000000000000000000000000000000000000000000000000000000000000007f0000000000000000000000000000000000000000000000000000000000000000611f11565b611f0790836142d7565b610674919061431d565b60008473ffffffffffffffffffffffffffffffffffffffff1663feaf968c6040518163ffffffff1660e01b815260040160a060405180830381865afa925050508015611f98575060408051601f3d9081017fffffffffffffffffffffffffffffffffffffffffffffffffffffffffffffffe0168201909252611f959181019061434b565b60015b611fa457506000611fca565b8815611fc057611fb4848861431d565b95505050505050611fca565b611fb488856142d7565b949350505050565b60007f000000000000000000000000000000000000000000000000000000000000000073ffffffffffffffffffffffffffffffffffffffff1663e6aa216c6040518163ffffffff1660e01b8152600401602060405180830381865afa925050508015612079575060408051601f3d9081017fffffffffffffffffffffffffffffffffffffffffffffffffffffffffffffffe01682019092526120769181019061439b565b60015b6120835750600090565b7f0000000000000000000000000000000000000000000000000000000000000000156120d9576120d3817f000000000000000000000000000000000000000000000000000000000000000061431d565b91505090565b6120d37f0000000000000000000000000000000000000000000000000000000000000000826142d7565b90565b6000612205612117601b600a6142cb565b836040518060a001604052807f000000000000000000000000000000000000000000000000000000000000000073ffffffffffffffffffffffffffffffffffffffff1681526020017f0000000000000000000000000000000000000000000000000000000000000000151581526020017f000000000000000000000000000000000000000000000000000000000000000081526020017f000000000000000000000000000000000000000000000000000000000000000081526020017f0000000000000000000000000000000000000000000000000000000000000000600381111561118957611189613eb8565b90508060000361224a576040517fc82fc46500000000000000000000000000000000000000000000000000000000815261ebf360048201526024015b60405180910390fd5b7f000000000000000000000000000000000000000000000000000000000000000073ffffffffffffffffffffffffffffffffffffffff161580156122c0575060037f000000000000000000000000000000000000000000000000000000000000000060038111156122bd576122bd613eb8565b14155b156122ca57919050565b6123bc81836040518060a001604052807f000000000000000000000000000000000000000000000000000000000000000073ffffffffffffffffffffffffffffffffffffffff1681526020017f0000000000000000000000000000000000000000000000000000000000000000151581526020017f000000000000000000000000000000000000000000000000000000000000000081526020017f000000000000000000000000000000000000000000000000000000000000000081526020017f0000000000000000000000000000000000000000000000000000000000000000600381111561118957611189613eb8565b9050806000036123fc576040517fc82fc46500000000000000000000000000000000000000000000000000000000815261ebf36004820152602401612241565b7f000000000000000000000000000000000000000000000000000000000000000073ffffffffffffffffffffffffffffffffffffffff16158015612472575060037f0000000000000000000000000000000000000000000000000000000000000000600381111561246f5761246f613eb8565b14155b1561247c57919050565b61256e81836040518060a001604052807f000000000000000000000000000000000000000000000000000000000000000073ffffffffffffffffffffffffffffffffffffffff1681526020017f0000000000000000000000000000000000000000000000000000000000000000151581526020017f000000000000000000000000000000000000000000000000000000000000000081526020017f000000000000000000000000000000000000000000000000000000000000000081526020017f0000000000000000000000000000000000000000000000000000000000000000600381111561118957611189613eb8565b9050806000036125ae576040517fc82fc46500000000000000000000000000000000000000000000000000000000815261ebf36004820152602401612241565b7f000000000000000000000000000000000000000000000000000000000000000073ffffffffffffffffffffffffffffffffffffffff16158015612624575060037f0000000000000000000000000000000000000000000000000000000000000000600381111561262157612621613eb8565b14155b1561262e57919050565b61272081836040518060a001604052807f000000000000000000000000000000000000000000000000000000000000000073ffffffffffffffffffffffffffffffffffffffff1681526020017f0000000000000000000000000000000000000000000000000000000000000000151581526020017f000000000000000000000000000000000000000000000000000000000000000081526020017f000000000000000000000000000000000000000000000000000000000000000081526020017f0000000000000000000000000000000000000000000000000000000000000000600381111561118957611189613eb8565b905080600003612760576040517fc82fc46500000000000000000000000000000000000000000000000000000000815261ebf36004820152602401612241565b7f000000000000000000000000000000000000000000000000000000000000000073ffffffffffffffffffffffffffffffffffffffff161580156127d6575060037f000000000000000000000000000000000000000000000000000000000000000060038111156127d3576127d3613eb8565b14155b156127e057919050565b6128d281836040518060a001604052807f000000000000000000000000000000000000000000000000000000000000000073ffffffffffffffffffffffffffffffffffffffff1681526020017f0000000000000000000000000000000000000000000000000000000000000000151581526020017f000000000000000000000000000000000000000000000000000000000000000081526020017f000000000000000000000000000000000000000000000000000000000000000081526020017f0000000000000000000000000000000000000000000000000000000000000000600381111561118957611189613eb8565b905080600003612912576040517fc82fc46500000000000000000000000000000000000000000000000000000000815261ebf36004820152602401612241565b919050565b6000807f000000000000000000000000000000000000000000000000000000000000000073ffffffffffffffffffffffffffffffffffffffff16633850c7bd6040518163ffffffff1660e01b815260040160e060405180830381865afa158015612985573d6000803e3d6000fd5b505050506040513d601f19601f820116820180604052508101906129a991906143d6565b50505050505090507f00000000000000000000000000000000000000000000000000000000000000006129e4576129df81612f49565b6120d3565b6120d36129f082612f49565b612fb4565b6040517f883bdbfd000000000000000000000000000000000000000000000000000000006020808301919091526024820152600560448201527f000000000000000000000000000000000000000000000000000000000000000060648201527f000000000000000000000000000000000000000000000000000000000000000060848201527f000000000000000000000000000000000000000000000000000000000000000060a48201527f000000000000000000000000000000000000000000000000000000000000000060c48201527f000000000000000000000000000000000000000000000000000000000000000060e482015260009081906101040160405160208183030381529060405290506000807f000000000000000000000000000000000000000000000000000000000000000073ffffffffffffffffffffffffffffffffffffffff1683604051612b4e9190614489565b600060405180830381855afa9150503d8060008114612b89576040519150601f19603f3d011682016040523d82523d6000602084013e612b8e565b606091505b509150915081612ba2576000935050505090565b600081806020019051810190612bb891906144b7565b905060008082600381518110612bd057612bd0614115565b602002602001015183600360010181518110612bee57612bee614115565b60200260200101510390507f00000000000000000000000000000000000000000000000000000000000000008160060b81612c2b57612c2b6142ee565b05915060008160060b128015612c7257507f00000000000000000000000000000000000000000000000000000000000000008160060b81612c6e57612c6e6142ee565b0715155b15612c9d577fffffffffffffffffffffffffffffffffffffffffffffffffffffffffffffffff909101905b50612d268160020b83600081518110612cb857612cb8614115565b602002602001015184600181518110612cd357612cd3614115565b60200260200101510360060b7f00000000000000000000000000000000000000000000000000000000000000007f0000000000000000000000000000000000000000000000000000000000000000612fe0565b15612d375760009550505050505090565b612dbf8160020b83600181518110612d5157612d51614115565b602002602001015184600281518110612d6c57612d6c614115565b60200260200101510360060b7f00000000000000000000000000000000000000000000000000000000000000007f0000000000000000000000000000000000000000000000000000000000000000612fe0565b15612dd05760009550505050505090565b612e588160020b83600281518110612dea57612dea614115565b602002602001015184600381518110612e0557612e05614115565b60200260200101510360060b7f00000000000000000000000000000000000000000000000000000000000000007f0000000000000000000000000000000000000000000000000000000000000000612fe0565b15612e695760009550505050505090565b612e7a612e7582613067565b612f49565b95507f000000000000000000000000000000000000000000000000000000000000000015612eae57612eab86612fb4565b95505b505050505090565b6000612ecb82600001518360800151856134fc565b90508160600151826040015182612ee291906142d7565b612eec919061431d565b905081602001518015612eff5750600081115b15612f295780612f11601b60026142d7565b612f1c90600a6142cb565b612f26919061431d565b90505b612f35601b600a6142cb565b612f3f82866142d7565b611fca919061431d565b6000612fae612f6e73ffffffffffffffffffffffffffffffffffffffff8416806142d7565b7f000000000000000000000000000000000000000000000000000000000000000078010000000000000000000000000000000000000000000000006135c6565b92915050565b6000612fae827f000000000000000000000000000000000000000000000000000000000000000061431d565b600080838581612ff257612ff26142ee565b059050600085128015613013575083858161300f5761300f6142ee565b0715155b1561303b577fffffffffffffffffffffffffffffffffffffffffffffffffffffffffffffffff015b82810186138061304c575082810386125b1561305b576001915050611fca565b50600095945050505050565b60008060008360020b1261307e578260020b61308b565b8260020b61308b9061459a565b90506130b67ffffffffffffffffffffffffffffffffffffffffffffffffffffffffffff276186145d2565b60020b811115613122576040517f08c379a000000000000000000000000000000000000000000000000000000000815260206004820152600160248201527f54000000000000000000000000000000000000000000000000000000000000006044820152606401612241565b60008160011660000361314657700100000000000000000000000000000000613158565b6ffffcb933bd6fad37aa2d162d1a5940015b70ffffffffffffffffffffffffffffffffff1690506002821615613197576080613192826ffff97272373d413259a46990580e213a6142d7565b901c90505b60048216156131c15760806131bc826ffff2e50f5f656932ef12357cf3c7fdcc6142d7565b901c90505b60088216156131eb5760806131e6826fffe5caca7e10e4e61c3624eaa0941cd06142d7565b901c90505b6010821615613215576080613210826fffcb9843d60f6159c9db58835c9266446142d7565b901c90505b602082161561323f57608061323a826fff973b41fa98c081472e6896dfb254c06142d7565b901c90505b6040821615613269576080613264826fff2ea16466c96a3843ec78b326b528616142d7565b901c90505b608082161561329357608061328e826ffe5dee046a99a2a811c461f1969c30536142d7565b901c90505b6101008216156132be5760806132b9826ffcbe86c7900a88aedcffc83b479aa3a46142d7565b901c90505b6102008216156132e95760806132e4826ff987a7253ac413176f2b074cf7815e546142d7565b901c90505b61040082161561331457608061330f826ff3392b0822b70005940c7a398e4b70f36142d7565b901c90505b61080082161561333f57608061333a826fe7159475a2c29b7443b29c7fa6e889d96142d7565b901c90505b61100082161561336a576080613365826fd097f3bdfd2022b8845ad8f792aa58256142d7565b901c90505b612000821615613395576080613390826fa9f746462d870fdf8a65dc1f90e061e56142d7565b901c90505b6140008216156133c05760806133bb826f70d869a156d2a1b890bb3df62baf32f76142d7565b901c90505b6180008216156133eb5760806133e6826f31be135f97d08fd981231505542fcfa66142d7565b901c90505b62010000821615613417576080613412826f09aa508b5b7a84e1c677de54f3e99bc96142d7565b901c90505b6202000082161561344257608061343d826e5d6af8dedb81196699c329225ee6046142d7565b901c90505b6204000082161561346c576080613467826d2216e584f5fa1ea926041bedfe986142d7565b901c90505b6208000082161561349457608061348f826b048a170391f7dc42444e8fa26142d7565b901c90505b60008460020b13156134cd576134ca817fffffffffffffffffffffffffffffffffffffffffffffffffffffffffffffffff61431d565b90505b6134dc64010000000082614610565b156134e85760016134eb565b60005b611fca9060ff16602083901c614624565b6000600183600381111561351257613512613eb8565b148061352f5750600283600381111561352d5761352d613eb8565b145b156135445761353d84613786565b90506135bf565b600083600381111561355857613558613eb8565b036135675761353d848361381d565b600383600381111561357b5761357b613eb8565b036135895761353d82613938565b6040517fc82fc46500000000000000000000000000000000000000000000000000000000815261ebf26004820152602401612241565b9392505050565b600080807fffffffffffffffffffffffffffffffffffffffffffffffffffffffffffffffff8587098587029250828110838203039150508060000361361d576000841161361257600080fd5b5082900490506135bf565b80841161362957600080fd5b600084868809808403938111909203919050600085613668817fffffffffffffffffffffffffffffffffffffffffffffffffffffffffffffffff614637565b613673906001614624565b1695869004959384900493600081900304600101905061369381846142d7565b9093179260006136a48760036142d7565b60021890506136b381886142d7565b6136be906002614637565b6136c890826142d7565b90506136d481886142d7565b6136df906002614637565b6136e990826142d7565b90506136f581886142d7565b613700906002614637565b61370a90826142d7565b905061371681886142d7565b613721906002614637565b61372b90826142d7565b905061373781886142d7565b613742906002614637565b61374c90826142d7565b905061375881886142d7565b613763906002614637565b61376d90826142d7565b905061377981866142d7565b9998505050505050505050565b60008173ffffffffffffffffffffffffffffffffffffffff1663feaf968c6040518163ffffffff1660e01b815260040160a060405180830381865afa92505050801561380d575060408051601f3d9081017fffffffffffffffffffffffffffffffffffffffffffffffffffffffffffffffe016820190925261380a9181019061434b565b60015b1561291257509195945050505050565b600081156138b6578273ffffffffffffffffffffffffffffffffffffffff16638e7bfbc06040518163ffffffff1660e01b8152600401602060405180830381865afa9250505080156138aa575060408051601f3d9081017fffffffffffffffffffffffffffffffffffffffffffffffffffffffffffffffe01682019092526138a79181019061439b565b60015b15612fae579050612fae565b8273ffffffffffffffffffffffffffffffffffffffff1663f3190c896040518163ffffffff1660e01b8152600401602060405180830381865afa9250505080156138aa575060408051601f3d9081017fffffffffffffffffffffffffffffffffffffffffffffffffffffffffffffffe01682019092526138a79181019061439b565b6000811561394857612fae61394c565b612fae5b600061067460007f000000000000000000000000000000000000000000000000000000000000000060ff166001036139c6576139866129f5565b905080600003612103576040517fc82fc46500000000000000000000000000000000000000000000000000000000815261ea636004820152602401612241565b6000807f000000000000000000000000000000000000000000000000000000000000000060ff16600203613a73576139fc6129f5565b925082600003613a5357613a0e613d84565b925082600003613a4e576040517fc82fc46500000000000000000000000000000000000000000000000000000000815261ea636004820152602401612241565b505090565b613a5b613dcf565b90925090506000829003613a6e57505090565b613ae3565b613a7b613dcf565b9093509050613a886129f5565b915082600003613ad65781600003613ad0576040517fc82fc46500000000000000000000000000000000000000000000000000000000815261ea636004820152602401612241565b50919050565b81600003613ae357505090565b613b0e83837f0000000000000000000000000000000000000000000000000000000000000000613e74565b15613a4e578015613baa577f000000000000000000000000000000000000000000000000000000000000000060ff16600303613b74577f000000000000000000000000000000000000000000000000000000000000000060ff16600214613ad057505090565b6040517fc82fc46500000000000000000000000000000000000000000000000000000000815261ea616004820152602401612241565b7f000000000000000000000000000000000000000000000000000000000000000060ff16600103613c06577f000000000000000000000000000000000000000000000000000000000000000060ff16600203613a4e5750919050565b7f000000000000000000000000000000000000000000000000000000000000000060ff16600203613cc7576000613c3b611fd2565b905060007f000000000000000000000000000000000000000000000000000000000000000060ff16600203613c735750918290613c78565b509283905b81600003613c8857949350505050565b613cb385857f0000000000000000000000000000000000000000000000000000000000000000613e74565b15613cc057949350505050565b5050505090565b6000613cd1611c95565b905080600003613d11576040517fc82fc46500000000000000000000000000000000000000000000000000000000815261ea616004820152602401612241565b7f000000000000000000000000000000000000000000000000000000000000000060ff16600303613d43579392505050565b809250613d7184847f0000000000000000000000000000000000000000000000000000000000000000613e74565b15613d7e57509092915050565b50505090565b6000613d8e611c95565b905080158015613dc257507f000000000000000000000000000000000000000000000000000000000000000060ff16600114155b1561210357610674611fd2565b6000807f000000000000000000000000000000000000000000000000000000000000000060ff16600103613e0b57613e05611c95565b91509091565b7f000000000000000000000000000000000000000000000000000000000000000060ff16600203613e5757613e3e611c95565b915081600003613e5357506001613e05611fd2565b9091565b613e5f611fd2565b915081600003613e5357506001613e05611c95565b600080612710613e8484866142d7565b613e8e919061431d565b9050613e9a8185614624565b851180613eaf5750613eac8185614637565b85105b95945050505050565b7f4e487b7100000000000000000000000000000000000000000000000000000000600052602160045260246000fd5b60208082528251828201819052600091906040908185019086840185805b83811015613f97578251805173ffffffffffffffffffffffffffffffffffffffff16865287810151151588870152868101518787015260608082015190870152608090810151906004808310613f81577f4e487b7100000000000000000000000000000000000000000000000000000000855260218152602485fd5b5086015260a09094019391860191600101613f05565b509298975050505050505050565b600081518084526020808501945080840160005b83811015613fd557815187529582019590820190600101613fb9565b509495945050505050565b600060c0820173ffffffffffffffffffffffffffffffffffffffff8916835260208815158185015260c0604085015281885180845260e086019150828a01935060005b8181101561404557845163ffffffff1683529383019391830191600101614023565b505084810360608601526140598189613fa5565b60808601979097525050505060a00152949350505050565b60005b8381101561408c578181015183820152602001614074565b50506000910152565b60208152600082518060208401526140b4816040850160208701614071565b601f017fffffffffffffffffffffffffffffffffffffffffffffffffffffffffffffffe0169190910160400192915050565b7f4e487b7100000000000000000000000000000000000000000000000000000000600052604160045260246000fd5b7f4e487b7100000000000000000000000000000000000000000000000000000000600052603260045260246000fd5b7f4e487b7100000000000000000000000000000000000000000000000000000000600052601160045260246000fd5b60007fffffffffffffffffffffffffffffffffffffffffffffffffffffffffffffffff82036141a4576141a4614144565b5060010190565b600181815b8085111561420457817fffffffffffffffffffffffffffffffffffffffffffffffffffffffffffffffff048211156141ea576141ea614144565b808516156141f757918102915b93841c93908002906141b0565b509250929050565b60008261421b57506001612fae565b8161422857506000612fae565b816001811461423e576002811461424857614264565b6001915050612fae565b60ff84111561425957614259614144565b50506001821b612fae565b5060208310610133831016604e8410600b8410161715614287575081810a612fae565b61429183836141ab565b807fffffffffffffffffffffffffffffffffffffffffffffffffffffffffffffffff048211156142c3576142c3614144565b029392505050565b60006135bf838361420c565b8082028115828204841417612fae57612fae614144565b7f4e487b7100000000000000000000000000000000000000000000000000000000600052601260045260246000fd5b60008261432c5761432c6142ee565b500490565b805169ffffffffffffffffffff8116811461291257600080fd5b600080600080600060a0868803121561436357600080fd5b61436c86614331565b945060208601519350604086015192506060860151915061438f60808701614331565b90509295509295909350565b6000602082840312156143ad57600080fd5b5051919050565b805161ffff8116811461291257600080fd5b8051801515811461291257600080fd5b600080600080600080600060e0888a0312156143f157600080fd5b875173ffffffffffffffffffffffffffffffffffffffff8116811461441557600080fd5b8097505060208801518060020b811461442d57600080fd5b955061443b604089016143b4565b9450614449606089016143b4565b9350614457608089016143b4565b925060a088015160ff8116811461446d57600080fd5b915061447b60c089016143c6565b905092959891949750929550565b6000825161449b818460208701614071565b9190910192915050565b8051600681900b811461291257600080fd5b600060208083850312156144ca57600080fd5b825167ffffffffffffffff808211156144e257600080fd5b818501915085601f8301126144f657600080fd5b815181811115614508576145086140e6565b8060051b6040517fffffffffffffffffffffffffffffffffffffffffffffffffffffffffffffffe0603f8301168101818110858211171561454b5761454b6140e6565b60405291825284820192508381018501918883111561456957600080fd5b938501935b8285101561458e5761457f856144a5565b8452938501939285019261456e565b98975050505050505050565b60007f800000000000000000000000000000000000000000000000000000000000000082036145cb576145cb614144565b5060000390565b60008160020b7fffffffffffffffffffffffffffffffffffffffffffffffffffffffffff800000810361460757614607614144565b60000392915050565b60008261461f5761461f6142ee565b500690565b80820180821115612fae57612fae614144565b81810381811115612fae57612fae61414456fea2646970667358221220ff8cd6c27bd002de3373a547c7aa6c66fba65d72f9789e6e712d514347df7c7064736f6c63430008150033"
}