{
  "address": "0x4BD81CE5dEF773ee766C7D931b7477093f6C9677",
  "abi": [
    {
      "inputs": [
        {
          "internalType": "string",
          "name": "infoName_",
          "type": "string"
        }
      ],
      "stateMutability": "nonpayable",
      "type": "constructor"
    },
    {
      "inputs": [
        {
          "internalType": "uint256",
          "name": "errorId_",
          "type": "uint256"
        }
      ],
      "name": "FluidOracleError",
      "type": "error"
    },
    {
      "inputs": [],
      "name": "getExchangeRate",
      "outputs": [
        {
          "internalType": "uint256",
          "name": "exchangeRate_",
          "type": "uint256"
        }
      ],
      "stateMutability": "pure",
      "type": "function"
    },
    {
      "inputs": [],
      "name": "getExchangeRateLiquidate",
      "outputs": [
        {
          "internalType": "uint256",
          "name": "exchangeRate_",
          "type": "uint256"
        }
      ],
      "stateMutability": "pure",
      "type": "function"
    },
    {
      "inputs": [],
      "name": "getExchangeRateOperate",
      "outputs": [
        {
          "internalType": "uint256",
          "name": "exchangeRate_",
          "type": "uint256"
        }
      ],
      "stateMutability": "pure",
      "type": "function"
    },
    {
      "inputs": [],
      "name": "infoName",
      "outputs": [
        {
          "internalType": "string",
          "name": "",
          "type": "string"
        }
      ],
      "stateMutability": "view",
      "type": "function"
    }
  ],
  "transactionHash": "0xd188521765e97a79c8c4b38608c138f5d59d7eb67e2a358971f513084b774dce",
  "args": [
    [
      "Mock 1 = 1"
    ]
  ],
  "numDeployments": 1,
  "linkedData": {
    "nonce": "3"
  },
  "bytecode": "0x60a060405234801561001057600080fd5b506040516104bb3803806104bb83398101604081905261002f91610088565b8060208151118061003f57508051155b156100655760405163c82fc46560e01b815261ea6a600482015260240160405180910390fd5b6020015160805250610151565b634e487b7160e01b600052604160045260246000fd5b6000602080838503121561009b57600080fd5b82516001600160401b03808211156100b257600080fd5b818501915085601f8301126100c657600080fd5b8151818111156100d8576100d8610072565b604051601f8201601f19908116603f0116810190838211818310171561010057610100610072565b81604052828152888684870101111561011857600080fd5b600093505b8284101561013a578484018601518185018701529285019261011d565b600086848301015280965050505050505092915050565b608051610349610172600039600081816097015261015c01526103496000f3fe608060405234801561001057600080fd5b506004361061004c5760003560e01c80638e7bfbc014610051578063abd5f95d14610070578063e6aa216c14610051578063f3190c8914610051575b600080fd5b6040516b033b2e3c9fd0803ce800000081526020015b60405180910390f35b610078610085565b60405161006791906101ea565b606060005b6020811080156100f057507f000000000000000000000000000000000000000000000000000000000000000081602081106100c7576100c7610256565b1a60f81b7fff000000000000000000000000000000000000000000000000000000000000001615155b1561010757806100ff81610285565b91505061008a565b60008167ffffffffffffffff811115610122576101226102e4565b6040519080825280601f01601f19166020018201604052801561014c576020820181803683370190505b50905060005b828110156101e3577f0000000000000000000000000000000000000000000000000000000000000000816020811061018c5761018c610256565b1a60f81b8282815181106101a2576101a2610256565b60200101907effffffffffffffffffffffffffffffffffffffffffffffffffffffffffffff1916908160001a905350806101db81610285565b915050610152565b5092915050565b600060208083528351808285015260005b81811015610217578581018301518582016040015282016101fb565b5060006040828601015260407fffffffffffffffffffffffffffffffffffffffffffffffffffffffffffffffe0601f8301168501019250505092915050565b7f4e487b7100000000000000000000000000000000000000000000000000000000600052603260045260246000fd5b60007fffffffffffffffffffffffffffffffffffffffffffffffffffffffffffffffff82036102dd577f4e487b7100000000000000000000000000000000000000000000000000000000600052601160045260246000fd5b5060010190565b7f4e487b7100000000000000000000000000000000000000000000000000000000600052604160045260246000fdfea2646970667358221220136236037fe414b8f29dc07c8a537922305cf062e79e08de53710e96ce7c77d764736f6c63430008150033"
}