{
  "address": "0xE2283Cdec12c6AF6C51557BB4640c640800d7060",
  "abi": [
    {
      "inputs": [],
      "stateMutability": "nonpayable",
      "type": "constructor"
    },
    {
      "inputs": [
        {
          "internalType": "uint256",
          "name": "errorId_",
          "type": "uint256"
        }
      ],
      "name": "FluidReserveContractError",
      "type": "error"
    },
    {
      "inputs": [
        {
          "internalType": "uint256",
          "name": "errorId_",
          "type": "uint256"
        }
      ],
      "name": "FluidSafeTransferError",
      "type": "error"
    },
    {
      "anonymous": false,
      "inputs": [
        {
          "indexed": false,
          "internalType": "address",
          "name": "previousAdmin",
          "type": "address"
        },
        {
          "indexed": false,
          "internalType": "address",
          "name": "newAdmin",
          "type": "address"
        }
      ],
      "name": "AdminChanged",
      "type": "event"
    },
    {
      "anonymous": false,
      "inputs": [
        {
          "indexed": true,
          "internalType": "address",
          "name": "beacon",
          "type": "address"
        }
      ],
      "name": "BeaconUpgraded",
      "type": "event"
    },
    {
      "anonymous": false,
      "inputs": [
        {
          "indexed": false,
          "internalType": "uint8",
          "name": "version",
          "type": "uint8"
        }
      ],
      "name": "Initialized",
      "type": "event"
    },
    {
      "anonymous": false,
      "inputs": [
        {
          "indexed": true,
          "internalType": "address",
          "name": "protocol",
          "type": "address"
        },
        {
          "indexed": true,
          "internalType": "address",
          "name": "token",
          "type": "address"
        },
        {
          "indexed": false,
          "internalType": "uint256",
          "name": "newAllowance",
          "type": "uint256"
        },
        {
          "indexed": false,
          "internalType": "uint256",
          "name": "existingAllowance",
          "type": "uint256"
        }
      ],
      "name": "LogAllow",
      "type": "event"
    },
    {
      "anonymous": false,
      "inputs": [
        {
          "indexed": true,
          "internalType": "address",
          "name": "protocol",
          "type": "address"
        },
        {
          "indexed": false,
          "internalType": "uint256",
          "name": "amount",
          "type": "uint256"
        }
      ],
      "name": "LogRebalanceFToken",
      "type": "event"
    },
    {
      "anonymous": false,
      "inputs": [
        {
          "indexed": true,
          "internalType": "address",
          "name": "protocol",
          "type": "address"
        },
        {
          "indexed": false,
          "internalType": "int256",
          "name": "colAmount",
          "type": "int256"
        },
        {
          "indexed": false,
          "internalType": "int256",
          "name": "debtAmount",
          "type": "int256"
        }
      ],
      "name": "LogRebalanceVault",
      "type": "event"
    },
    {
      "anonymous": false,
      "inputs": [
        {
          "indexed": true,
          "internalType": "address",
          "name": "protocol",
          "type": "address"
        },
        {
          "indexed": true,
          "internalType": "address",
          "name": "token",
          "type": "address"
        }
      ],
      "name": "LogRevoke",
      "type": "event"
    },
    {
      "anonymous": false,
      "inputs": [
        {
          "indexed": true,
          "internalType": "address",
          "name": "token",
          "type": "address"
        }
      ],
      "name": "LogTransferFunds",
      "type": "event"
    },
    {
      "anonymous": false,
      "inputs": [
        {
          "indexed": true,
          "internalType": "address",
          "name": "auth",
          "type": "address"
        },
        {
          "indexed": false,
          "internalType": "bool",
          "name": "isAuth",
          "type": "bool"
        }
      ],
      "name": "LogUpdateAuth",
      "type": "event"
    },
    {
      "anonymous": false,
      "inputs": [
        {
          "indexed": true,
          "internalType": "address",
          "name": "rebalancer",
          "type": "address"
        },
        {
          "indexed": false,
          "internalType": "bool",
          "name": "isRebalancer",
          "type": "bool"
        }
      ],
      "name": "LogUpdateRebalancer",
      "type": "event"
    },
    {
      "anonymous": false,
      "inputs": [
        {
          "indexed": true,
          "internalType": "address",
          "name": "token",
          "type": "address"
        },
        {
          "indexed": true,
          "internalType": "uint256",
          "name": "amount",
          "type": "uint256"
        },
        {
          "indexed": false,
          "internalType": "address",
          "name": "receiver",
          "type": "address"
        }
      ],
      "name": "LogWithdrawFunds",
      "type": "event"
    },
    {
      "anonymous": false,
      "inputs": [
        {
          "indexed": true,
          "internalType": "address",
          "name": "previousOwner",
          "type": "address"
        },
        {
          "indexed": true,
          "internalType": "address",
          "name": "newOwner",
          "type": "address"
        }
      ],
      "name": "OwnershipTransferred",
      "type": "event"
    },
    {
      "anonymous": false,
      "inputs": [
        {
          "indexed": true,
          "internalType": "address",
          "name": "implementation",
          "type": "address"
        }
      ],
      "name": "Upgraded",
      "type": "event"
    },
    {
      "inputs": [
        {
          "internalType": "address[]",
          "name": "protocols_",
          "type": "address[]"
        },
        {
          "internalType": "address[]",
          "name": "tokens_",
          "type": "address[]"
        },
        {
          "internalType": "uint256[]",
          "name": "amounts_",
          "type": "uint256[]"
        }
      ],
      "name": "approve",
      "outputs": [],
      "stateMutability": "nonpayable",
      "type": "function"
    },
    {
      "inputs": [],
      "name": "getAllProtocolAllowances",
      "outputs": [
        {
          "components": [
            {
              "internalType": "address",
              "name": "protocol",
              "type": "address"
            },
            {
              "components": [
                {
                  "internalType": "address",
                  "name": "token",
                  "type": "address"
                },
                {
                  "internalType": "uint256",
                  "name": "allowance",
                  "type": "uint256"
                }
              ],
              "internalType": "struct Structs.TokenAllowance[]",
              "name": "tokenAllowances",
              "type": "tuple[]"
            }
          ],
          "internalType": "struct Structs.ProtocolTokenAllowance[]",
          "name": "allowances_",
          "type": "tuple[]"
        }
      ],
      "stateMutability": "view",
      "type": "function"
    },
    {
      "inputs": [
        {
          "internalType": "address",
          "name": "protocol_",
          "type": "address"
        }
      ],
      "name": "getProtocolAllowances",
      "outputs": [
        {
          "components": [
            {
              "internalType": "address",
              "name": "token",
              "type": "address"
            },
            {
              "internalType": "uint256",
              "name": "allowance",
              "type": "uint256"
            }
          ],
          "internalType": "struct Structs.TokenAllowance[]",
          "name": "allowances_",
          "type": "tuple[]"
        }
      ],
      "stateMutability": "view",
      "type": "function"
    },
    {
      "inputs": [
        {
          "internalType": "address",
          "name": "protocol_",
          "type": "address"
        }
      ],
      "name": "getProtocolTokens",
      "outputs": [
        {
          "internalType": "address[]",
          "name": "result_",
          "type": "address[]"
        }
      ],
      "stateMutability": "view",
      "type": "function"
    },
    {
      "inputs": [
        {
          "internalType": "address[]",
          "name": "_auths",
          "type": "address[]"
        },
        {
          "internalType": "address[]",
          "name": "_rebalancers",
          "type": "address[]"
        },
        {
          "internalType": "address",
          "name": "owner_",
          "type": "address"
        }
      ],
      "name": "initialize",
      "outputs": [],
      "stateMutability": "nonpayable",
      "type": "function"
    },
    {
      "inputs": [
        {
          "internalType": "address",
          "name": "",
          "type": "address"
        }
      ],
      "name": "isAuth",
      "outputs": [
        {
          "internalType": "bool",
          "name": "",
          "type": "bool"
        }
      ],
      "stateMutability": "view",
      "type": "function"
    },
    {
      "inputs": [
        {
          "internalType": "address",
          "name": "",
          "type": "address"
        }
      ],
      "name": "isRebalancer",
      "outputs": [
        {
          "internalType": "bool",
          "name": "",
          "type": "bool"
        }
      ],
      "stateMutability": "view",
      "type": "function"
    },
    {
      "inputs": [
        {
          "internalType": "address",
          "name": "",
          "type": "address"
        }
      ],
      "name": "nativeTokenAllowances",
      "outputs": [
        {
          "internalType": "uint256",
          "name": "",
          "type": "uint256"
        }
      ],
      "stateMutability": "view",
      "type": "function"
    },
    {
      "inputs": [],
      "name": "owner",
      "outputs": [
        {
          "internalType": "address",
          "name": "",
          "type": "address"
        }
      ],
      "stateMutability": "view",
      "type": "function"
    },
    {
      "inputs": [],
      "name": "proxiableUUID",
      "outputs": [
        {
          "internalType": "bytes32",
          "name": "",
          "type": "bytes32"
        }
      ],
      "stateMutability": "view",
      "type": "function"
    },
    {
      "inputs": [
        {
          "internalType": "address",
          "name": "protocol_",
          "type": "address"
        },
        {
          "internalType": "uint256",
          "name": "value_",
          "type": "uint256"
        },
        {
          "internalType": "int256",
          "name": "colToken0MinMax_",
          "type": "int256"
        },
        {
          "internalType": "int256",
          "name": "colToken1MinMax_",
          "type": "int256"
        },
        {
          "internalType": "int256",
          "name": "debtToken0MinMax_",
          "type": "int256"
        },
        {
          "internalType": "int256",
          "name": "debtToken1MinMax_",
          "type": "int256"
        }
      ],
      "name": "rebalanceDexVault",
      "outputs": [],
      "stateMutability": "payable",
      "type": "function"
    },
    {
      "inputs": [
        {
          "internalType": "address[]",
          "name": "protocols_",
          "type": "address[]"
        },
        {
          "internalType": "uint256[]",
          "name": "values_",
          "type": "uint256[]"
        },
        {
          "internalType": "int256[]",
          "name": "colToken0MinMaxs_",
          "type": "int256[]"
        },
        {
          "internalType": "int256[]",
          "name": "colToken1MinMaxs_",
          "type": "int256[]"
        },
        {
          "internalType": "int256[]",
          "name": "debtToken0MinMaxs_",
          "type": "int256[]"
        },
        {
          "internalType": "int256[]",
          "name": "debtToken1MinMaxs_",
          "type": "int256[]"
        }
      ],
      "name": "rebalanceDexVaults",
      "outputs": [],
      "stateMutability": "payable",
      "type": "function"
    },
    {
      "inputs": [
        {
          "internalType": "address",
          "name": "protocol_",
          "type": "address"
        },
        {
          "internalType": "uint256",
          "name": "value_",
          "type": "uint256"
        }
      ],
      "name": "rebalanceFToken",
      "outputs": [],
      "stateMutability": "payable",
      "type": "function"
    },
    {
      "inputs": [
        {
          "internalType": "address[]",
          "name": "protocols_",
          "type": "address[]"
        },
        {
          "internalType": "uint256[]",
          "name": "values_",
          "type": "uint256[]"
        }
      ],
      "name": "rebalanceFTokens",
      "outputs": [],
      "stateMutability": "payable",
      "type": "function"
    },
    {
      "inputs": [
        {
          "internalType": "address",
          "name": "protocol_",
          "type": "address"
        },
        {
          "internalType": "uint256",
          "name": "value_",
          "type": "uint256"
        }
      ],
      "name": "rebalanceVault",
      "outputs": [],
      "stateMutability": "payable",
      "type": "function"
    },
    {
      "inputs": [
        {
          "internalType": "address[]",
          "name": "protocols_",
          "type": "address[]"
        },
        {
          "internalType": "uint256[]",
          "name": "values_",
          "type": "uint256[]"
        }
      ],
      "name": "rebalanceVaults",
      "outputs": [],
      "stateMutability": "payable",
      "type": "function"
    },
    {
      "inputs": [],
      "name": "renounceOwnership",
      "outputs": [],
      "stateMutability": "view",
      "type": "function"
    },
    {
      "inputs": [
        {
          "internalType": "address[]",
          "name": "protocols_",
          "type": "address[]"
        },
        {
          "internalType": "address[]",
          "name": "tokens_",
          "type": "address[]"
        }
      ],
      "name": "revoke",
      "outputs": [],
      "stateMutability": "nonpayable",
      "type": "function"
    },
    {
      "inputs": [
        {
          "internalType": "address",
          "name": "newOwner",
          "type": "address"
        }
      ],
      "name": "transferOwnership",
      "outputs": [],
      "stateMutability": "nonpayable",
      "type": "function"
    },
    {
      "inputs": [
        {
          "internalType": "address",
          "name": "auth_",
          "type": "address"
        },
        {
          "internalType": "bool",
          "name": "isAuth_",
          "type": "bool"
        }
      ],
      "name": "updateAuth",
      "outputs": [],
      "stateMutability": "nonpayable",
      "type": "function"
    },
    {
      "inputs": [
        {
          "internalType": "address",
          "name": "rebalancer_",
          "type": "address"
        },
        {
          "internalType": "bool",
          "name": "isRebalancer_",
          "type": "bool"
        }
      ],
      "name": "updateRebalancer",
      "outputs": [],
      "stateMutability": "nonpayable",
      "type": "function"
    },
    {
      "inputs": [
        {
          "internalType": "address",
          "name": "newImplementation",
          "type": "address"
        }
      ],
      "name": "upgradeTo",
      "outputs": [],
      "stateMutability": "nonpayable",
      "type": "function"
    },
    {
      "inputs": [
        {
          "internalType": "address",
          "name": "newImplementation",
          "type": "address"
        },
        {
          "internalType": "bytes",
          "name": "data",
          "type": "bytes"
        }
      ],
      "name": "upgradeToAndCall",
      "outputs": [],
      "stateMutability": "payable",
      "type": "function"
    },
    {
      "inputs": [
        {
          "internalType": "address[]",
          "name": "tokens_",
          "type": "address[]"
        },
        {
          "internalType": "uint256[]",
          "name": "amounts_",
          "type": "uint256[]"
        },
        {
          "internalType": "address",
          "name": "receiver_",
          "type": "address"
        }
      ],
      "name": "withdrawFunds",
      "outputs": [],
      "stateMutability": "nonpayable",
      "type": "function"
    },
    {
      "stateMutability": "payable",
      "type": "receive"
    }
  ],
  "transactionHash": "0x03fd4c06f15c4e8e0e3ef80fe7621dbe9fa784377863670e150ca6c82f5356ec",
  "args": [],
  "numDeployments": 1,
  "solcInputHash": "6226a1a3cb4d1d47dbd4f520aebf9612",
  "bytecode": "0x60a0604052306080523480156200001557600080fd5b506200002062000026565b620000e8565b600054610100900460ff1615620000935760405162461bcd60e51b815260206004820152602760248201527f496e697469616c697a61626c653a20636f6e747261637420697320696e697469604482015266616c697a696e6760c81b606482015260840160405180910390fd5b60005460ff9081161015620000e6576000805460ff191660ff9081179091556040519081527f7f26b83ff96e1f2b6a682f133852f6798a09c465da95921460cefb38474024989060200160405180910390a15b565b608051613f396200012060003960008181610fa001528181611050015281816117bd0152818161186d0152611d970152613f396000f3fe60806040526004361061018f5760003560e01c80634f1ef286116100d65780638da5cb5b1161007f578063ec1a9dd411610059578063ec1a9dd41461043e578063ef33e9db1461046b578063f2fde38b1461048d57600080fd5b80638da5cb5b146103bc578063c11b353c146103f1578063e9c771b21461041e57600080fd5b8063702b5175116100b0578063702b51751461035a578063715018a61461037a578063801ca1441461038f57600080fd5b80634f1ef286146103045780635274ac3f1461031757806352d1902d1461033757600080fd5b80633659cfe611610138578063432abd5611610112578063432abd56146102a1578063467c9eff146102b45780634c13c1be146102e457600080fd5b80633659cfe61461025b578063386b8e6f1461027b578063392094fc1461028e57600080fd5b806313b14ebb1161016957806313b14ebb146101f05780632520e7ff146102035780632bb393991461024857600080fd5b806303e804611461019b5780630de30836146101bd578063111a399b146101dd57600080fd5b3661019657005b600080fd5b3480156101a757600080fd5b506101bb6101b6366004613546565b6104ad565b005b3480156101c957600080fd5b506101bb6101d83660046135dc565b6107e9565b6101bb6101eb366004613615565b610958565b6101bb6101fe366004613615565b610d2e565b34801561020f57600080fd5b5061023361021e366004613641565b60656020526000908152604090205460ff1681565b60405190151581526020015b60405180910390f35b6101bb6102563660046136b1565b610edf565b34801561026757600080fd5b506101bb610276366004613641565b610f89565b6101bb61028936600461371d565b61118e565b6101bb61029c3660046136b1565b6113f7565b6101bb6102af366004613769565b61149a565b3480156102c057600080fd5b506102336102cf366004613641565b60666020526000908152604090205460ff1681565b3480156102f057600080fd5b506101bb6102ff3660046138ac565b6115de565b6101bb610312366004613924565b6117a6565b34801561032357600080fd5b506101bb6103323660046139ea565b61199c565b34801561034357600080fd5b5061034c611d7d565b60405190815260200161023f565b34801561036657600080fd5b506101bb610375366004613a46565b611e69565b34801561038657600080fd5b506101bb6120e5565b34801561039b57600080fd5b506103af6103aa366004613641565b612124565b60405161023f9190613aaa565b3480156103c857600080fd5b5060335460405173ffffffffffffffffffffffffffffffffffffffff909116815260200161023f565b3480156103fd57600080fd5b5061034c61040c366004613641565b60686020526000908152604090205481565b34801561042a57600080fd5b506101bb6104393660046135dc565b612206565b34801561044a57600080fd5b5061045e610459366004613641565b6122e4565b60405161023f9190613b60565b34801561047757600080fd5b50610480612511565b60405161023f9190613b73565b34801561049957600080fd5b506101bb6104a8366004613641565b61261b565b3360009081526065602052604090205460ff161580156105015750336104e860335473ffffffffffffffffffffffffffffffffffffffff1690565b73ffffffffffffffffffffffffffffffffffffffff1614155b15610542576040517fc25348e000000000000000000000000000000000000000000000000000000000815262015f9160048201526024015b60405180910390fd5b8151835114158061055557508051825114155b15610591576040517fc25348e000000000000000000000000000000000000000000000000000000000815262015f936004820152602401610539565b60005b83518110156107e35760008482815181106105b1576105b1613c1b565b6020026020010151905060008483815181106105cf576105cf613c1b565b6020026020010151905060008484815181106105ed576105ed613c1b565b60200260200101519050600073eeeeeeeeeeeeeeeeeeeeeeeeeeeeeeeeeeeeeeee73ffffffffffffffffffffffffffffffffffffffff168373ffffffffffffffffffffffffffffffffffffffff1603610671575073ffffffffffffffffffffffffffffffffffffffff83166000908152606860205260409020805490829055610720565b6040517fdd62ed3e00000000000000000000000000000000000000000000000000000000815230600482015273ffffffffffffffffffffffffffffffffffffffff858116602483015284169063dd62ed3e90604401602060405180830381865afa1580156106e3573d6000803e3d6000fd5b505050506040513d601f19601f820116820180604052508101906107079190613c4a565b9050610715838560006126cf565b6107208385846126cf565b73ffffffffffffffffffffffffffffffffffffffff8416600090815260676020526040902061074f9084612888565b5061075b606985612888565b508273ffffffffffffffffffffffffffffffffffffffff168473ffffffffffffffffffffffffffffffffffffffff167ff07829fca7213317a8d0869b30e579887a8d2a7bfd3a28f25075bd01b370d75684846040516107c4929190918252602082015260400190565b60405180910390a35050505080806107db90613c92565b915050610594565b50505050565b3360009081526065602052604090205460ff1615801561083d57503361082460335473ffffffffffffffffffffffffffffffffffffffff1690565b73ffffffffffffffffffffffffffffffffffffffff1614155b15610879576040517fc25348e000000000000000000000000000000000000000000000000000000000815262015f916004820152602401610539565b8173ffffffffffffffffffffffffffffffffffffffff81166108cc576040517fc25348e000000000000000000000000000000000000000000000000000000000815262015f926004820152602401610539565b73ffffffffffffffffffffffffffffffffffffffff831660008181526066602090815260409182902080547fffffffffffffffffffffffffffffffffffffffffffffffffffffffffffffff001686151590811790915591519182527fad476fc62f6b1b5d25b35bd756cfbfcd299b581b8dfb25d5492c4305a0969bd291015b60405180910390a2505050565b3360009081526066602052604090205460ff166109a6576040517fc25348e000000000000000000000000000000000000000000000000000000000815262015f916004820152602401610539565b8015610a4b5773ffffffffffffffffffffffffffffffffffffffff8216600090815260686020526040902054811115610a10576040517fc25348e000000000000000000000000000000000000000000000000000000000815262015f966004820152602401610539565b73ffffffffffffffffffffffffffffffffffffffff821660009081526068602052604081208054839290610a45908490613cca565b90915550505b6000808373ffffffffffffffffffffffffffffffffffffffff16637d7c2a1c846040518263ffffffff1660e01b8152600401604080518083038185885af1158015610a9a573d6000803e3d6000fd5b50505050506040513d601f19601f82011682018060405250810190610abf9190613cdd565b90925090508215610cd75760008473ffffffffffffffffffffffffffffffffffffffff1663b7791bf26040518163ffffffff1660e01b81526004016101a060405180830381865afa158015610b18573d6000803e3d6000fd5b505050506040513d601f19601f82011682018060405250810190610b3c9190613d22565b608081015190915073ffffffffffffffffffffffffffffffffffffffff1673eeeeeeeeeeeeeeeeeeeeeeeeeeeeeeeeeeeeeeee148015610b7c5750600083125b15610bb8576040517fc25348e000000000000000000000000000000000000000000000000000000000815262015f956004820152602401610539565b60a081015173ffffffffffffffffffffffffffffffffffffffff1673eeeeeeeeeeeeeeeeeeeeeeeeeeeeeeeeeeeeeeee148015610bf55750600082135b15610c31576040517fc25348e000000000000000000000000000000000000000000000000000000000815262015f956004820152602401610539565b608081015173ffffffffffffffffffffffffffffffffffffffff1673eeeeeeeeeeeeeeeeeeeeeeeeeeeeeeeeeeeeeeee1480610c9a575060a081015173ffffffffffffffffffffffffffffffffffffffff1673eeeeeeeeeeeeeeeeeeeeeeeeeeeeeeeeeeeeeeee145b610cd5576040517fc25348e000000000000000000000000000000000000000000000000000000000815262015f956004820152602401610539565b505b604080518381526020810183905273ffffffffffffffffffffffffffffffffffffffff8616917f1b5a6c038413ee85baaa108b9e0f353fc1fb6dba5c500211baef62b0761e4d88910160405180910390a250505050565b3360009081526066602052604090205460ff16610d7c576040517fc25348e000000000000000000000000000000000000000000000000000000000815262015f916004820152602401610539565b8015610e215773ffffffffffffffffffffffffffffffffffffffff8216600090815260686020526040902054811115610de6576040517fc25348e000000000000000000000000000000000000000000000000000000000815262015f966004820152602401610539565b73ffffffffffffffffffffffffffffffffffffffff821660009081526068602052604081208054839290610e1b908490613cca565b90915550505b60008273ffffffffffffffffffffffffffffffffffffffff16637d7c2a1c836040518263ffffffff1660e01b815260040160206040518083038185885af1158015610e70573d6000803e3d6000fd5b50505050506040513d601f19601f82011682018060405250810190610e959190613c4a565b90508273ffffffffffffffffffffffffffffffffffffffff167f2ce777e59f0be485fcc70a4790aa17e9aca8e9e6704e6ab690fc2018c92cca3f8260405161094b91815260200190565b828114610f1d576040517fc25348e000000000000000000000000000000000000000000000000000000000815262015f936004820152602401610539565b60005b83811015610f8257610f70858583818110610f3d57610f3d613c1b565b9050602002016020810190610f529190613641565b848484818110610f6457610f64613c1b565b90506020020135610958565b80610f7a81613c92565b915050610f20565b5050505050565b73ffffffffffffffffffffffffffffffffffffffff7f000000000000000000000000000000000000000000000000000000000000000016300361104e576040517f08c379a000000000000000000000000000000000000000000000000000000000815260206004820152602c60248201527f46756e6374696f6e206d7573742062652063616c6c6564207468726f7567682060448201527f64656c656761746563616c6c00000000000000000000000000000000000000006064820152608401610539565b7f000000000000000000000000000000000000000000000000000000000000000073ffffffffffffffffffffffffffffffffffffffff166110c37f360894a13ba1a3210667c828492db98dca3e2076cc3735a920a3ca505d382bbc5473ffffffffffffffffffffffffffffffffffffffff1690565b73ffffffffffffffffffffffffffffffffffffffff1614611166576040517f08c379a000000000000000000000000000000000000000000000000000000000815260206004820152602c60248201527f46756e6374696f6e206d7573742062652063616c6c6564207468726f7567682060448201527f6163746976652070726f787900000000000000000000000000000000000000006064820152608401610539565b61116f816128b3565b6040805160008082526020820190925261118b918391906128bb565b50565b3360009081526066602052604090205460ff166111dc576040517fc25348e000000000000000000000000000000000000000000000000000000000815262015f916004820152602401610539565b478515801590611210575073ffffffffffffffffffffffffffffffffffffffff871660009081526068602052604090205486115b1561124c576040517fc25348e000000000000000000000000000000000000000000000000000000000815262015f966004820152602401610539565b6040517f1593a34b00000000000000000000000000000000000000000000000000000000815260048101869052602481018590526044810184905260648101839052600090819073ffffffffffffffffffffffffffffffffffffffff8a1690631593a34b908a90608401604080518083038185885af11580156112d3573d6000803e3d6000fd5b50505050506040513d601f19601f820116820180604052508101906112f89190613cdd565b91509150600088118015611316575060008213806113165750600081125b1561139b57600047841161132b576000611335565b6113354785613cca565b905034156113585734811161134b576000611355565b6113553482613cca565b90505b80156113995773ffffffffffffffffffffffffffffffffffffffff8a1660009081526068602052604081208054839290611393908490613cca565b90915550505b505b604080518381526020810183905273ffffffffffffffffffffffffffffffffffffffff8b16917f1b5a6c038413ee85baaa108b9e0f353fc1fb6dba5c500211baef62b0761e4d88910160405180910390a2505050505050505050565b828114611435576040517fc25348e000000000000000000000000000000000000000000000000000000000815262015f936004820152602401610539565b60005b83811015610f825761148885858381811061145557611455613c1b565b905060200201602081019061146a9190613641565b84848481811061147c5761147c613c1b565b90506020020135610d2e565b8061149281613c92565b915050611438565b8a891415806114a957508a8714155b806114b457508a8514155b806114bf57508a8314155b806114ca57508a8114155b15611506576040517fc25348e000000000000000000000000000000000000000000000000000000000815262015f936004820152602401610539565b60005b8b8110156115cf576115bd8d8d8381811061152657611526613c1b565b905060200201602081019061153b9190613641565b8c8c8481811061154d5761154d613c1b565b905060200201358b8b8581811061156657611566613c1b565b905060200201358a8a8681811061157f5761157f613c1b565b9050602002013589898781811061159857611598613c1b565b905060200201358888888181106115b1576115b1613c1b565b9050602002013561118e565b806115c781613c92565b915050611509565b50505050505050505050505050565b6115e6612aba565b8151835114611626576040517fc25348e000000000000000000000000000000000000000000000000000000000815262015f936004820152602401610539565b60005b83518110156107e35773eeeeeeeeeeeeeeeeeeeeeeeeeeeeeeeeeeeeeeee73ffffffffffffffffffffffffffffffffffffffff1684828151811061166f5761166f613c1b565b602002602001015173ffffffffffffffffffffffffffffffffffffffff16036116ba576116b5828483815181106116a8576116a8613c1b565b6020026020010151612b3d565b6116f7565b6116f78482815181106116cf576116cf613c1b565b6020026020010151838584815181106116ea576116ea613c1b565b6020026020010151612b89565b82818151811061170957611709613c1b565b602002602001015184828151811061172357611723613c1b565b602002602001015173ffffffffffffffffffffffffffffffffffffffff167fed037dbd552690e525e4da3c8b4ea3e5f707bfccda2ea6bb6647480383b52cdd8460405161178c919073ffffffffffffffffffffffffffffffffffffffff91909116815260200190565b60405180910390a38061179e81613c92565b915050611629565b73ffffffffffffffffffffffffffffffffffffffff7f000000000000000000000000000000000000000000000000000000000000000016300361186b576040517f08c379a000000000000000000000000000000000000000000000000000000000815260206004820152602c60248201527f46756e6374696f6e206d7573742062652063616c6c6564207468726f7567682060448201527f64656c656761746563616c6c00000000000000000000000000000000000000006064820152608401610539565b7f000000000000000000000000000000000000000000000000000000000000000073ffffffffffffffffffffffffffffffffffffffff166118e07f360894a13ba1a3210667c828492db98dca3e2076cc3735a920a3ca505d382bbc5473ffffffffffffffffffffffffffffffffffffffff1690565b73ffffffffffffffffffffffffffffffffffffffff1614611983576040517f08c379a000000000000000000000000000000000000000000000000000000000815260206004820152602c60248201527f46756e6374696f6e206d7573742062652063616c6c6564207468726f7567682060448201527f6163746976652070726f787900000000000000000000000000000000000000006064820152608401610539565b61198c826128b3565b611998828260016128bb565b5050565b600054610100900460ff16158080156119bc5750600054600160ff909116105b806119d65750303b1580156119d6575060005460ff166001145b611a62576040517f08c379a000000000000000000000000000000000000000000000000000000000815260206004820152602e60248201527f496e697469616c697a61626c653a20636f6e747261637420697320616c72656160448201527f647920696e697469616c697a65640000000000000000000000000000000000006064820152608401610539565b600080547fffffffffffffffffffffffffffffffffffffffffffffffffffffffffffffff001660011790558015611ac057600080547fffffffffffffffffffffffffffffffffffffffffffffffffffffffffffff00ff166101001790555b8173ffffffffffffffffffffffffffffffffffffffff8116611b13576040517fc25348e000000000000000000000000000000000000000000000000000000000815262015f926004820152602401610539565b60005b8551811015611c0e57600160656000888481518110611b3757611b37613c1b565b602002602001015173ffffffffffffffffffffffffffffffffffffffff1673ffffffffffffffffffffffffffffffffffffffff16815260200190815260200160002060006101000a81548160ff021916908315150217905550858181518110611ba257611ba2613c1b565b602002602001015173ffffffffffffffffffffffffffffffffffffffff167fb873643b3104ddd26927dec7f9a08aa22d03ac20ada0295a2de7e1a6c60f2a516001604051611bf4911515815260200190565b60405180910390a280611c0681613c92565b915050611b16565b5060005b8451811015611d0a57600160666000878481518110611c3357611c33613c1b565b602002602001015173ffffffffffffffffffffffffffffffffffffffff1673ffffffffffffffffffffffffffffffffffffffff16815260200190815260200160002060006101000a81548160ff021916908315150217905550848181518110611c9e57611c9e613c1b565b602002602001015173ffffffffffffffffffffffffffffffffffffffff167fad476fc62f6b1b5d25b35bd756cfbfcd299b581b8dfb25d5492c4305a0969bd26001604051611cf0911515815260200190565b60405180910390a280611d0281613c92565b915050611c12565b50611d1483612c2d565b5080156107e357600080547fffffffffffffffffffffffffffffffffffffffffffffffffffffffffffff00ff169055604051600181527f7f26b83ff96e1f2b6a682f133852f6798a09c465da95921460cefb38474024989060200160405180910390a150505050565b60003073ffffffffffffffffffffffffffffffffffffffff7f00000000000000000000000000000000000000000000000000000000000000001614611e44576040517f08c379a000000000000000000000000000000000000000000000000000000000815260206004820152603860248201527f555550535570677261646561626c653a206d757374206e6f742062652063616c60448201527f6c6564207468726f7567682064656c656761746563616c6c00000000000000006064820152608401610539565b507f360894a13ba1a3210667c828492db98dca3e2076cc3735a920a3ca505d382bbc90565b3360009081526065602052604090205460ff16158015611ebd575033611ea460335473ffffffffffffffffffffffffffffffffffffffff1690565b73ffffffffffffffffffffffffffffffffffffffff1614155b15611ef9576040517fc25348e000000000000000000000000000000000000000000000000000000000815262015f916004820152602401610539565b8051825114611f39576040517fc25348e000000000000000000000000000000000000000000000000000000000815262015f936004820152602401610539565b60005b82518110156120e0576000838281518110611f5957611f59613c1b565b602002602001015190506000838381518110611f7757611f77613c1b565b6020026020010151905073eeeeeeeeeeeeeeeeeeeeeeeeeeeeeeeeeeeeeeee73ffffffffffffffffffffffffffffffffffffffff168173ffffffffffffffffffffffffffffffffffffffff1603611ff35773ffffffffffffffffffffffffffffffffffffffff8216600090815260686020526040812055611fff565b611fff818360006126cf565b73ffffffffffffffffffffffffffffffffffffffff8216600090815260676020526040902061202e9082612ca4565b5073ffffffffffffffffffffffffffffffffffffffff8216600090815260676020526040902061205d90612cc6565b6000036120715761206f606983612ca4565b505b8073ffffffffffffffffffffffffffffffffffffffff168273ffffffffffffffffffffffffffffffffffffffff167fd54cf739d89b84837b7ca6e1402410c3497b29b0a5fbe452e57008b3abd8874d60405160405180910390a3505080806120d890613c92565b915050611f3c565b505050565b6120ed612aba565b6040517fc25348e000000000000000000000000000000000000000000000000000000000815262015f946004820152602401610539565b73ffffffffffffffffffffffffffffffffffffffff8116600090815260676020526040902060609061215581612cc6565b67ffffffffffffffff81111561216d5761216d613389565b604051908082528060200260200182016040528015612196578160200160208202803683370190505b50915060005b6121a582612cc6565b8110156121ff576121b68282612cd0565b8382815181106121c8576121c8613c1b565b73ffffffffffffffffffffffffffffffffffffffff90921660209283029190910190910152806121f781613c92565b91505061219c565b5050919050565b61220e612aba565b8173ffffffffffffffffffffffffffffffffffffffff8116612261576040517fc25348e000000000000000000000000000000000000000000000000000000000815262015f926004820152602401610539565b73ffffffffffffffffffffffffffffffffffffffff831660008181526065602090815260409182902080547fffffffffffffffffffffffffffffffffffffffffffffffffffffffffffffff001686151590811790915591519182527fb873643b3104ddd26927dec7f9a08aa22d03ac20ada0295a2de7e1a6c60f2a51910161094b565b73ffffffffffffffffffffffffffffffffffffffff8116600090815260676020526040902060609061231581612cc6565b67ffffffffffffffff81111561232d5761232d613389565b60405190808252806020026020018201604052801561237257816020015b604080518082019091526000808252602082015281526020019060019003908161234b5790505b50915060005b61238182612cc6565b8110156121ff5760006123948383612cd0565b9050808483815181106123a9576123a9613c1b565b602090810291909101015173ffffffffffffffffffffffffffffffffffffffff918216905281167fffffffffffffffffffffffff1111111111111111111111111111111111111112016124455773ffffffffffffffffffffffffffffffffffffffff8516600090815260686020526040902054845185908490811061243057612430613c1b565b602002602001015160200181815250506124fe565b6040517fdd62ed3e00000000000000000000000000000000000000000000000000000000815230600482015273ffffffffffffffffffffffffffffffffffffffff868116602483015282169063dd62ed3e90604401602060405180830381865afa1580156124b7573d6000803e3d6000fd5b505050506040513d601f19601f820116820180604052508101906124db9190613c4a565b8483815181106124ed576124ed613c1b565b602002602001015160200181815250505b508061250981613c92565b915050612378565b606061251d6069612cc6565b67ffffffffffffffff81111561253557612535613389565b60405190808252806020026020018201604052801561257b57816020015b6040805180820190915260008152606060208201528152602001906001900390816125535790505b50905060005b61258b6069612cc6565b81101561261757600061259f606983612cd0565b9050808383815181106125b4576125b4613c1b565b602090810291909101015173ffffffffffffffffffffffffffffffffffffffff90911690526125e2816122e4565b8383815181106125f4576125f4613c1b565b60200260200101516020018190525050808061260f90613c92565b915050612581565b5090565b612623612aba565b73ffffffffffffffffffffffffffffffffffffffff81166126c6576040517f08c379a000000000000000000000000000000000000000000000000000000000815260206004820152602660248201527f4f776e61626c653a206e6577206f776e657220697320746865207a65726f206160448201527f64647265737300000000000000000000000000000000000000000000000000006064820152608401610539565b61118b81612c2d565b80158061276f57506040517fdd62ed3e00000000000000000000000000000000000000000000000000000000815230600482015273ffffffffffffffffffffffffffffffffffffffff838116602483015284169063dd62ed3e90604401602060405180830381865afa158015612749573d6000803e3d6000fd5b505050506040513d601f19601f8201168201806040525081019061276d9190613c4a565b155b6127fb576040517f08c379a000000000000000000000000000000000000000000000000000000000815260206004820152603660248201527f5361666545524332303a20617070726f76652066726f6d206e6f6e2d7a65726f60448201527f20746f206e6f6e2d7a65726f20616c6c6f77616e6365000000000000000000006064820152608401610539565b6040805173ffffffffffffffffffffffffffffffffffffffff8416602482015260448082018490528251808303909101815260649091019091526020810180517bffffffffffffffffffffffffffffffffffffffffffffffffffffffff167f095ea7b3000000000000000000000000000000000000000000000000000000001790526120e0908490612cdc565b60006128aa8373ffffffffffffffffffffffffffffffffffffffff8416612de8565b90505b92915050565b61118b612aba565b7f4910fdfa16fed3260ed0e7147f7cc6da11a60208b5b9406d12a635614ffd91435460ff16156128ee576120e083612e37565b8273ffffffffffffffffffffffffffffffffffffffff166352d1902d6040518163ffffffff1660e01b8152600401602060405180830381865afa925050508015612973575060408051601f3d9081017fffffffffffffffffffffffffffffffffffffffffffffffffffffffffffffffe016820190925261297091810190613c4a565b60015b6129ff576040517f08c379a000000000000000000000000000000000000000000000000000000000815260206004820152602e60248201527f45524331393637557067726164653a206e657720696d706c656d656e7461746960448201527f6f6e206973206e6f7420555550530000000000000000000000000000000000006064820152608401610539565b7f360894a13ba1a3210667c828492db98dca3e2076cc3735a920a3ca505d382bbc8114612aae576040517f08c379a000000000000000000000000000000000000000000000000000000000815260206004820152602960248201527f45524331393637557067726164653a20756e737570706f727465642070726f7860448201527f6961626c655555494400000000000000000000000000000000000000000000006064820152608401610539565b506120e0838383612f41565b60335473ffffffffffffffffffffffffffffffffffffffff163314612b3b576040517f08c379a000000000000000000000000000000000000000000000000000000000815260206004820181905260248201527f4f776e61626c653a2063616c6c6572206973206e6f7420746865206f776e65726044820152606401610539565b565b60008060008060008587614e20f19050806120e0576040517fdee51a8a0000000000000000000000000000000000000000000000000000000081526201155a6004820152602401610539565b60006040517fa9059cbb00000000000000000000000000000000000000000000000000000000815273ffffffffffffffffffffffffffffffffffffffff84166004820152826024820152602060006044836000895af13d15601f3d11600160005114161716915050806107e3576040517fdee51a8a0000000000000000000000000000000000000000000000000000000081526201155a6004820152602401610539565b6033805473ffffffffffffffffffffffffffffffffffffffff8381167fffffffffffffffffffffffff0000000000000000000000000000000000000000831681179093556040519116919082907f8be0079c531659141344cd1fd0a4f28419497f9722a3daafe3b4186f6b6457e090600090a35050565b60006128aa8373ffffffffffffffffffffffffffffffffffffffff8416612f66565b60006128ad825490565b60006128aa8383613059565b6000612d3e826040518060400160405280602081526020017f5361666545524332303a206c6f772d6c6576656c2063616c6c206661696c65648152508573ffffffffffffffffffffffffffffffffffffffff166130839092919063ffffffff16565b8051909150156120e05780806020019051810190612d5c9190613dff565b6120e0576040517f08c379a000000000000000000000000000000000000000000000000000000000815260206004820152602a60248201527f5361666545524332303a204552433230206f7065726174696f6e20646964206e60448201527f6f742073756363656564000000000000000000000000000000000000000000006064820152608401610539565b6000818152600183016020526040812054612e2f575081546001818101845560008481526020808220909301849055845484825282860190935260409020919091556128ad565b5060006128ad565b73ffffffffffffffffffffffffffffffffffffffff81163b612edb576040517f08c379a000000000000000000000000000000000000000000000000000000000815260206004820152602d60248201527f455243313936373a206e657720696d706c656d656e746174696f6e206973206e60448201527f6f74206120636f6e7472616374000000000000000000000000000000000000006064820152608401610539565b7f360894a13ba1a3210667c828492db98dca3e2076cc3735a920a3ca505d382bbc80547fffffffffffffffffffffffff00000000000000000000000000000000000000001673ffffffffffffffffffffffffffffffffffffffff92909216919091179055565b612f4a8361309a565b600082511180612f575750805b156120e0576107e383836130e7565b6000818152600183016020526040812054801561304f576000612f8a600183613cca565b8554909150600090612f9e90600190613cca565b9050818114613003576000866000018281548110612fbe57612fbe613c1b565b9060005260206000200154905080876000018481548110612fe157612fe1613c1b565b6000918252602080832090910192909255918252600188019052604090208390555b855486908061301457613014613e1c565b6001900381819060005260206000200160009055905585600101600086815260200190815260200160002060009055600193505050506128ad565b60009150506128ad565b600082600001828154811061307057613070613c1b565b9060005260206000200154905092915050565b6060613092848460008561310c565b949350505050565b6130a381612e37565b60405173ffffffffffffffffffffffffffffffffffffffff8216907fbc7cd75a20ee27fd9adebab32041f755214dbc6bffa90cc0225b39da2e5c2d3b90600090a250565b60606128aa8383604051806060016040528060278152602001613edd60279139613225565b60608247101561319e576040517f08c379a000000000000000000000000000000000000000000000000000000000815260206004820152602660248201527f416464726573733a20696e73756666696369656e742062616c616e636520666f60448201527f722063616c6c00000000000000000000000000000000000000000000000000006064820152608401610539565b6000808673ffffffffffffffffffffffffffffffffffffffff1685876040516131c79190613e6f565b60006040518083038185875af1925050503d8060008114613204576040519150601f19603f3d011682016040523d82523d6000602084013e613209565b606091505b509150915061321a878383876132aa565b979650505050505050565b60606000808573ffffffffffffffffffffffffffffffffffffffff168560405161324f9190613e6f565b600060405180830381855af49150503d806000811461328a576040519150601f19603f3d011682016040523d82523d6000602084013e61328f565b606091505b50915091506132a0868383876132aa565b9695505050505050565b606083156133405782516000036133395773ffffffffffffffffffffffffffffffffffffffff85163b613339576040517f08c379a000000000000000000000000000000000000000000000000000000000815260206004820152601d60248201527f416464726573733a2063616c6c20746f206e6f6e2d636f6e74726163740000006044820152606401610539565b5081613092565b61309283838151156133555781518083602001fd5b806040517f08c379a00000000000000000000000000000000000000000000000000000000081526004016105399190613e8b565b7f4e487b7100000000000000000000000000000000000000000000000000000000600052604160045260246000fd5b6040516101a0810167ffffffffffffffff811182821017156133dc576133dc613389565b60405290565b604051601f82017fffffffffffffffffffffffffffffffffffffffffffffffffffffffffffffffe016810167ffffffffffffffff8111828210171561342957613429613389565b604052919050565b600067ffffffffffffffff82111561344b5761344b613389565b5060051b60200190565b73ffffffffffffffffffffffffffffffffffffffff8116811461118b57600080fd5b600082601f83011261348857600080fd5b8135602061349d61349883613431565b6133e2565b82815260059290921b840181019181810190868411156134bc57600080fd5b8286015b848110156134e05780356134d381613455565b83529183019183016134c0565b509695505050505050565b600082601f8301126134fc57600080fd5b8135602061350c61349883613431565b82815260059290921b8401810191818101908684111561352b57600080fd5b8286015b848110156134e0578035835291830191830161352f565b60008060006060848603121561355b57600080fd5b833567ffffffffffffffff8082111561357357600080fd5b61357f87838801613477565b9450602086013591508082111561359557600080fd5b6135a187838801613477565b935060408601359150808211156135b757600080fd5b506135c4868287016134eb565b9150509250925092565b801515811461118b57600080fd5b600080604083850312156135ef57600080fd5b82356135fa81613455565b9150602083013561360a816135ce565b809150509250929050565b6000806040838503121561362857600080fd5b823561363381613455565b946020939093013593505050565b60006020828403121561365357600080fd5b813561365e81613455565b9392505050565b60008083601f84011261367757600080fd5b50813567ffffffffffffffff81111561368f57600080fd5b6020830191508360208260051b85010111156136aa57600080fd5b9250929050565b600080600080604085870312156136c757600080fd5b843567ffffffffffffffff808211156136df57600080fd5b6136eb88838901613665565b9096509450602087013591508082111561370457600080fd5b5061371187828801613665565b95989497509550505050565b60008060008060008060c0878903121561373657600080fd5b863561374181613455565b9860208801359850604088013597606081013597506080810135965060a00135945092505050565b60008060008060008060008060008060008060c08d8f03121561378b57600080fd5b67ffffffffffffffff8d3511156137a157600080fd5b6137ae8e8e358f01613665565b909c509a5067ffffffffffffffff60208e013511156137cc57600080fd5b6137dc8e60208f01358f01613665565b909a50985067ffffffffffffffff60408e013511156137fa57600080fd5b61380a8e60408f01358f01613665565b909850965067ffffffffffffffff60608e0135111561382857600080fd5b6138388e60608f01358f01613665565b909650945067ffffffffffffffff60808e0135111561385657600080fd5b6138668e60808f01358f01613665565b909450925067ffffffffffffffff60a08e0135111561388457600080fd5b6138948e60a08f01358f01613665565b81935080925050509295989b509295989b509295989b565b6000806000606084860312156138c157600080fd5b833567ffffffffffffffff808211156138d957600080fd5b6138e587838801613477565b945060208601359150808211156138fb57600080fd5b50613908868287016134eb565b925050604084013561391981613455565b809150509250925092565b6000806040838503121561393757600080fd5b823561394281613455565b915060208381013567ffffffffffffffff8082111561396057600080fd5b818601915086601f83011261397457600080fd5b81358181111561398657613986613389565b6139b6847fffffffffffffffffffffffffffffffffffffffffffffffffffffffffffffffe0601f840116016133e2565b915080825287848285010111156139cc57600080fd5b80848401858401376000848284010152508093505050509250929050565b6000806000606084860312156139ff57600080fd5b833567ffffffffffffffff80821115613a1757600080fd5b613a2387838801613477565b94506020860135915080821115613a3957600080fd5b5061390886828701613477565b60008060408385031215613a5957600080fd5b823567ffffffffffffffff80821115613a7157600080fd5b613a7d86838701613477565b93506020850135915080821115613a9357600080fd5b50613aa085828601613477565b9150509250929050565b6020808252825182820181905260009190848201906040850190845b81811015613af857835173ffffffffffffffffffffffffffffffffffffffff1683529284019291840191600101613ac6565b50909695505050505050565b600081518084526020808501945080840160005b83811015613b55578151805173ffffffffffffffffffffffffffffffffffffffff1688528301518388015260409096019590820190600101613b18565b509495945050505050565b6020815260006128aa6020830184613b04565b60006020808301818452808551808352604092508286019150828160051b87010184880160005b83811015613c0d578883037fffffffffffffffffffffffffffffffffffffffffffffffffffffffffffffffc00185528151805173ffffffffffffffffffffffffffffffffffffffff168452870151878401879052613bfa87850182613b04565b9588019593505090860190600101613b9a565b509098975050505050505050565b7f4e487b7100000000000000000000000000000000000000000000000000000000600052603260045260246000fd5b600060208284031215613c5c57600080fd5b5051919050565b7f4e487b7100000000000000000000000000000000000000000000000000000000600052601160045260246000fd5b60007fffffffffffffffffffffffffffffffffffffffffffffffffffffffffffffffff8203613cc357613cc3613c63565b5060010190565b818103818111156128ad576128ad613c63565b60008060408385031215613cf057600080fd5b505080516020909101519092909150565b8051613d0c81613455565b919050565b805160ff81168114613d0c57600080fd5b60006101a08284031215613d3557600080fd5b613d3d6133b8565b613d4683613d01565b8152613d5460208401613d01565b6020820152613d6560408401613d01565b6040820152613d7660608401613d01565b6060820152613d8760808401613d01565b6080820152613d9860a08401613d01565b60a0820152613da960c08401613d11565b60c0820152613dba60e08401613d11565b60e08201526101008381015190820152610120808401519082015261014080840151908201526101608084015190820152610180928301519281019290925250919050565b600060208284031215613e1157600080fd5b815161365e816135ce565b7f4e487b7100000000000000000000000000000000000000000000000000000000600052603160045260246000fd5b60005b83811015613e66578181015183820152602001613e4e565b50506000910152565b60008251613e81818460208701613e4b565b9190910192915050565b6020815260008251806020840152613eaa816040850160208701613e4b565b601f017fffffffffffffffffffffffffffffffffffffffffffffffffffffffffffffffe016919091016040019291505056fe416464726573733a206c6f772d6c6576656c2064656c65676174652063616c6c206661696c6564a2646970667358221220768f22f3221a2242c49e40de2033c8bd529b9261cf312e5e1d5c18f65da5656d64736f6c63430008150033",
  "devdoc": {
    "events": {
      "AdminChanged(address,address)": {
        "details": "Emitted when the admin account has changed."
      },
      "BeaconUpgraded(address)": {
        "details": "Emitted when the beacon is upgraded."
      },
      "Initialized(uint8)": {
        "details": "Triggered when the contract has been initialized or reinitialized."
      },
      "Upgraded(address)": {
        "details": "Emitted when the implementation is upgraded."
      }
    },
    "kind": "dev",
    "methods": {
      "approve(address[],address[],uint256[])": {
        "details": "The parameters are parallel arrays",
        "params": {
          "amounts_": "The amounts to approve",
          "protocols_": "The protocols that will be spending reserve tokens",
          "tokens_": "The tokens to approve"
        }
      },
      "getAllProtocolAllowances()": {
        "returns": {
          "allowances_": " The tokens that are approved for use by all the protocols"
        }
      },
      "getProtocolAllowances(address)": {
        "params": {
          "protocol_": "The protocol to get the tokens for"
        },
        "returns": {
          "allowances_": " The tokens that are approved for use by the protocol"
        }
      },
      "getProtocolTokens(address)": {
        "params": {
          "protocol_": "The protocol to get the tokens for"
        },
        "returns": {
          "result_": "     The tokens that are approved for use by the protocol"
        }
      },
      "initialize(address[],address[],address)": {
        "params": {
          "_auths": "The addresses that have the auth to approve and revoke protocol token allowances",
          "_rebalancers": "The addresses that can execute a rebalance on a protocol",
          "owner_": "owner address is able to upgrade contract and update auth users"
        }
      },
      "owner()": {
        "details": "Returns the address of the current owner."
      },
      "proxiableUUID()": {
        "details": "Implementation of the ERC1822 {proxiableUUID} function. This returns the storage slot used by the implementation. It is used to validate the implementation's compatibility when performing an upgrade. IMPORTANT: A proxy pointing at a proxiable contract should not be considered proxiable itself, because this risks bricking a proxy that upgrades to it, by delegating to itself until out of gas. Thus it is critical that this function revert if invoked through a proxy. This is guaranteed by the `notDelegated` modifier."
      },
      "rebalanceDexVault(address,uint256,int256,int256,int256,int256)": {
        "params": {
          "colToken0MinMax_": "if vault supply is more than Liquidity Layer then deposit difference through reserve/rebalance contract",
          "colToken1MinMax_": "if vault supply is less than Liquidity Layer then withdraw difference to reserve/rebalance contract",
          "debtToken0MinMax_": "if vault borrow is more than Liquidity Layer then borrow difference to reserve/rebalance contract",
          "debtToken1MinMax_": "if vault borrow is less than Liquidity Layer then payback difference through reserve/rebalance contract",
          "protocol_": "The protocol to rebalance",
          "value_": "any msg.value to send along (as fetched from resolver!)"
        }
      },
      "rebalanceDexVaults(address[],uint256[],int256[],int256[],int256[],int256[])": {
        "details": "don't need onlyRebalancer modifier as it is already checked in `rebalanceDexVault` function"
      },
      "rebalanceFToken(address,uint256)": {
        "params": {
          "protocol_": "The protocol to rebalance",
          "value_": "any msg.value to send along (as fetched from resolver!)"
        }
      },
      "rebalanceFTokens(address[],uint256[])": {
        "details": "don't need onlyRebalancer modifier as it is already checked in `rebalanceFToken` function"
      },
      "rebalanceVault(address,uint256)": {
        "params": {
          "protocol_": "The protocol to rebalance",
          "value_": "any msg.value to send along (as fetched from resolver!)"
        }
      },
      "rebalanceVaults(address[],uint256[])": {
        "details": "don't need onlyRebalancer modifier as it is already checked in `rebalanceVault` function"
      },
      "revoke(address[],address[])": {
        "details": "The parameters are parallel arrays",
        "params": {
          "protocols_": "The protocols that will no longer be spending reserve tokens",
          "tokens_": "The tokens to revoke"
        }
      },
      "transferOwnership(address)": {
        "details": "Transfers ownership of the contract to a new account (`newOwner`). Can only be called by the current owner."
      },
      "updateAuth(address,bool)": {
        "params": {
          "auth_": "The address to update",
          "isAuth_": "Whether or not the address should be an auth"
        }
      },
      "updateRebalancer(address,bool)": {
        "params": {
          "isRebalancer_": "Whether or not the address should be a rebalancer",
          "rebalancer_": "The address to update"
        }
      },
      "upgradeTo(address)": {
        "details": "Upgrade the implementation of the proxy to `newImplementation`. Calls {_authorizeUpgrade}. Emits an {Upgraded} event."
      },
      "upgradeToAndCall(address,bytes)": {
        "details": "Upgrade the implementation of the proxy to `newImplementation`, and subsequently execute the function call encoded in `data`. Calls {_authorizeUpgrade}. Emits an {Upgraded} event."
      },
      "withdrawFunds(address[],uint256[],address)": {
        "details": "This function can only be called by the owner, which is always the Governance address",
        "params": {
          "amounts_": "The amounts of each token to withdraw",
          "receiver_": "The address to receive the withdrawn funds",
          "tokens_": "The tokens to withdraw"
        }
      }
    },
    "title": "Reserve Contract",
    "version": 1
  },
  "userdoc": {
    "events": {
      "LogAllow(address,address,uint256,uint256)": {
        "notice": "Emitted when a token is approved for use by a protocol"
      },
      "LogRebalanceFToken(address,uint256)": {
        "notice": "Emitted when fToken is rebalanced"
      },
      "LogRebalanceVault(address,int256,int256)": {
        "notice": "Emitted when vault is rebalanced"
      },
      "LogRevoke(address,address)": {
        "notice": "Emitted when a token is revoked for use by a protocol"
      },
      "LogTransferFunds(address)": {
        "notice": "Emitted whenever funds for a certain `token` are transfered to Liquidity"
      },
      "LogUpdateAuth(address,bool)": {
        "notice": "Emitted when an address is added or removed from the auths"
      },
      "LogUpdateRebalancer(address,bool)": {
        "notice": "Emitted when an address is added or removed from the rebalancers"
      },
      "LogWithdrawFunds(address,uint256,address)": {
        "notice": "Emitted whenever funds for a certain `token` are withdrawn to receiver"
      }
    },
    "kind": "user",
    "methods": {
      "approve(address[],address[],uint256[])": {
        "notice": "Approves protocols to spend the reserves tokens"
      },
      "getAllProtocolAllowances()": {
        "notice": "Gets the allowances that are approved to a protocol"
      },
      "getProtocolAllowances(address)": {
        "notice": "Gets the allowances that are approved to a protocol"
      },
      "getProtocolTokens(address)": {
        "notice": "Gets the tokens that are approved for use by a protocol"
      },
      "initialize(address[],address[],address)": {
        "notice": "initializes the contract"
      },
      "isAuth(address)": {
        "notice": "Maps address to there status as an Auth"
      },
      "isRebalancer(address)": {
        "notice": "Maps address to there status as a Rebalancer"
      },
      "nativeTokenAllowances(address)": {
        "notice": "Mapping of protocol addresses to the amount of tokens that are allowed to be used by that protocol"
      },
      "rebalanceDexVault(address,uint256,int256,int256,int256,int256)": {
        "notice": "Executes a rebalance on a DEX vault protocol by calling that protocol's `rebalance` function"
      },
      "rebalanceDexVaults(address[],uint256[],int256[],int256[],int256[],int256[])": {
        "notice": "calls `rebalanceDexVault` multiple times"
      },
      "rebalanceFToken(address,uint256)": {
        "notice": "Executes a rebalance on a fToken protocol by calling that protocol's `rebalance` function"
      },
      "rebalanceFTokens(address[],uint256[])": {
        "notice": "calls `rebalanceFToken` multiple times"
      },
      "rebalanceVault(address,uint256)": {
        "notice": "Executes a rebalance on a vaultT1 protocol by calling that protocol's `rebalance` function"
      },
      "rebalanceVaults(address[],uint256[])": {
        "notice": "calls `rebalanceVault` multiple times"
      },
      "renounceOwnership()": {
        "notice": "override renounce ownership as it could leave the contract in an unwanted state if called by mistake."
      },
      "revoke(address[],address[])": {
        "notice": "Revokes protocols' ability to spend the reserves tokens"
      },
      "updateAuth(address,bool)": {
        "notice": "Updates an auth's status as an auth"
      },
      "updateRebalancer(address,bool)": {
        "notice": "Updates a rebalancer's status as a rebalancer"
      },
      "withdrawFunds(address[],uint256[],address)": {
        "notice": "Withdraws funds from the contract to a specified receiver"
      }
    },
    "notice": "This contract manages the approval of tokens for use by protocols and           the execution of rebalances on protocols",
    "version": 1
  },
  "storageLayout": {
    "storage": [
      {
        "astId": 138,
        "contract": "contracts/reserve/main.sol:FluidReserveContract",
        "label": "_initialized",
        "offset": 0,
        "slot": "0",
        "type": "t_uint8"
      },
      {
        "astId": 141,
        "contract": "contracts/reserve/main.sol:FluidReserveContract",
        "label": "_initializing",
        "offset": 1,
        "slot": "0",
        "type": "t_bool"
      },
      {
        "astId": 625,
        "contract": "contracts/reserve/main.sol:FluidReserveContract",
        "label": "__gap",
        "offset": 0,
        "slot": "1",
        "type": "t_array(t_uint256)50_storage"
      },
      {
        "astId": 10,
        "contract": "contracts/reserve/main.sol:FluidReserveContract",
        "label": "_owner",
        "offset": 0,
        "slot": "51",
        "type": "t_address"
      },
      {
        "astId": 130,
        "contract": "contracts/reserve/main.sol:FluidReserveContract",
        "label": "__gap",
        "offset": 0,
        "slot": "52",
        "type": "t_array(t_uint256)49_storage"
      },
      {
        "astId": 103863,
        "contract": "contracts/reserve/main.sol:FluidReserveContract",
        "label": "isAuth",
        "offset": 0,
        "slot": "101",
        "type": "t_mapping(t_address,t_bool)"
      },
      {
        "astId": 103868,
        "contract": "contracts/reserve/main.sol:FluidReserveContract",
        "label": "isRebalancer",
        "offset": 0,
        "slot": "102",
        "type": "t_mapping(t_address,t_bool)"
      },
      {
        "astId": 103874,
        "contract": "contracts/reserve/main.sol:FluidReserveContract",
        "label": "_protocolTokens",
        "offset": 0,
        "slot": "103",
        "type": "t_mapping(t_address,t_struct(AddressSet)6580_storage)"
      },
      {
        "astId": 103879,
        "contract": "contracts/reserve/main.sol:FluidReserveContract",
        "label": "nativeTokenAllowances",
        "offset": 0,
        "slot": "104",
        "type": "t_mapping(t_address,t_uint256)"
      },
      {
        "astId": 103883,
        "contract": "contracts/reserve/main.sol:FluidReserveContract",
        "label": "_protocols",
        "offset": 0,
        "slot": "105",
        "type": "t_struct(AddressSet)6580_storage"
      }
    ],
    "types": {
      "t_address": {
        "encoding": "inplace",
        "label": "address",
        "numberOfBytes": "20"
      },
      "t_array(t_bytes32)dyn_storage": {
        "base": "t_bytes32",
        "encoding": "dynamic_array",
        "label": "bytes32[]",
        "numberOfBytes": "32"
      },
      "t_array(t_uint256)49_storage": {
        "base": "t_uint256",
        "encoding": "inplace",
        "label": "uint256[49]",
        "numberOfBytes": "1568"
      },
      "t_array(t_uint256)50_storage": {
        "base": "t_uint256",
        "encoding": "inplace",
        "label": "uint256[50]",
        "numberOfBytes": "1600"
      },
      "t_bool": {
        "encoding": "inplace",
        "label": "bool",
        "numberOfBytes": "1"
      },
      "t_bytes32": {
        "encoding": "inplace",
        "label": "bytes32",
        "numberOfBytes": "32"
      },
      "t_mapping(t_address,t_bool)": {
        "encoding": "mapping",
        "key": "t_address",
        "label": "mapping(address => bool)",
        "numberOfBytes": "32",
        "value": "t_bool"
      },
      "t_mapping(t_address,t_struct(AddressSet)6580_storage)": {
        "encoding": "mapping",
        "key": "t_address",
        "label": "mapping(address => struct EnumerableSet.AddressSet)",
        "numberOfBytes": "32",
        "value": "t_struct(AddressSet)6580_storage"
      },
      "t_mapping(t_address,t_uint256)": {
        "encoding": "mapping",
        "key": "t_address",
        "label": "mapping(address => uint256)",
        "numberOfBytes": "32",
        "value": "t_uint256"
      },
      "t_mapping(t_bytes32,t_uint256)": {
        "encoding": "mapping",
        "key": "t_bytes32",
        "label": "mapping(bytes32 => uint256)",
        "numberOfBytes": "32",
        "value": "t_uint256"
      },
      "t_struct(AddressSet)6580_storage": {
        "encoding": "inplace",
        "label": "struct EnumerableSet.AddressSet",
        "members": [
          {
            "astId": 6579,
            "contract": "contracts/reserve/main.sol:FluidReserveContract",
            "label": "_inner",
            "offset": 0,
            "slot": "0",
            "type": "t_struct(Set)6265_storage"
          }
        ],
        "numberOfBytes": "64"
      },
      "t_struct(Set)6265_storage": {
        "encoding": "inplace",
        "label": "struct EnumerableSet.Set",
        "members": [
          {
            "astId": 6260,
            "contract": "contracts/reserve/main.sol:FluidReserveContract",
            "label": "_values",
            "offset": 0,
            "slot": "0",
            "type": "t_array(t_bytes32)dyn_storage"
          },
          {
            "astId": 6264,
            "contract": "contracts/reserve/main.sol:FluidReserveContract",
            "label": "_indexes",
            "offset": 0,
            "slot": "1",
            "type": "t_mapping(t_bytes32,t_uint256)"
          }
        ],
        "numberOfBytes": "64"
      },
      "t_uint256": {
        "encoding": "inplace",
        "label": "uint256",
        "numberOfBytes": "32"
      },
      "t_uint8": {
        "encoding": "inplace",
        "label": "uint8",
        "numberOfBytes": "1"
      }
    }
  }
}