{
  "address": "0xFb3102759F2d57F547b9C519db49Ce1fFDE15dB2",
  "abi": [
    {
      "inputs": [
        {
          "internalType": "address",
          "name": "treasuryAddress_",
          "type": "address"
        },
        {
          "internalType": "address",
          "name": "buybackContractAddress_",
          "type": "address"
        }
      ],
      "stateMutability": "nonpayable",
      "type": "constructor"
    },
    {
      "inputs": [
        {
          "internalType": "uint256",
          "name": "errorId_",
          "type": "uint256"
        }
      ],
      "name": "FluidReserveContractError",
      "type": "error"
    },
    {
      "inputs": [
        {
          "internalType": "uint256",
          "name": "errorId_",
          "type": "uint256"
        }
      ],
      "name": "FluidSafeTransferError",
      "type": "error"
    },
    {
      "anonymous": false,
      "inputs": [
        {
          "indexed": false,
          "internalType": "address",
          "name": "previousAdmin",
          "type": "address"
        },
        {
          "indexed": false,
          "internalType": "address",
          "name": "newAdmin",
          "type": "address"
        }
      ],
      "name": "AdminChanged",
      "type": "event"
    },
    {
      "anonymous": false,
      "inputs": [
        {
          "indexed": true,
          "internalType": "address",
          "name": "beacon",
          "type": "address"
        }
      ],
      "name": "BeaconUpgraded",
      "type": "event"
    },
    {
      "anonymous": false,
      "inputs": [
        {
          "indexed": false,
          "internalType": "uint8",
          "name": "version",
          "type": "uint8"
        }
      ],
      "name": "Initialized",
      "type": "event"
    },
    {
      "anonymous": false,
      "inputs": [
        {
          "indexed": true,
          "internalType": "address",
          "name": "protocol",
          "type": "address"
        },
        {
          "indexed": true,
          "internalType": "address",
          "name": "token",
          "type": "address"
        },
        {
          "indexed": false,
          "internalType": "uint256",
          "name": "newAllowance",
          "type": "uint256"
        },
        {
          "indexed": false,
          "internalType": "uint256",
          "name": "existingAllowance",
          "type": "uint256"
        }
      ],
      "name": "LogAllow",
      "type": "event"
    },
    {
      "anonymous": false,
      "inputs": [
        {
          "indexed": true,
          "internalType": "address",
          "name": "protocol",
          "type": "address"
        },
        {
          "indexed": false,
          "internalType": "uint256",
          "name": "amount",
          "type": "uint256"
        }
      ],
      "name": "LogRebalanceFToken",
      "type": "event"
    },
    {
      "anonymous": false,
      "inputs": [
        {
          "indexed": true,
          "internalType": "address",
          "name": "protocol",
          "type": "address"
        },
        {
          "indexed": false,
          "internalType": "int256",
          "name": "colAmount",
          "type": "int256"
        },
        {
          "indexed": false,
          "internalType": "int256",
          "name": "debtAmount",
          "type": "int256"
        }
      ],
      "name": "LogRebalanceVault",
      "type": "event"
    },
    {
      "anonymous": false,
      "inputs": [
        {
          "indexed": true,
          "internalType": "address",
          "name": "protocol",
          "type": "address"
        },
        {
          "indexed": true,
          "internalType": "address",
          "name": "token",
          "type": "address"
        }
      ],
      "name": "LogRevoke",
      "type": "event"
    },
    {
      "anonymous": false,
      "inputs": [
        {
          "indexed": true,
          "internalType": "address",
          "name": "token",
          "type": "address"
        }
      ],
      "name": "LogTransferFunds",
      "type": "event"
    },
    {
      "anonymous": false,
      "inputs": [
        {
          "indexed": true,
          "internalType": "address",
          "name": "auth",
          "type": "address"
        },
        {
          "indexed": false,
          "internalType": "bool",
          "name": "isAuth",
          "type": "bool"
        }
      ],
      "name": "LogUpdateAuth",
      "type": "event"
    },
    {
      "anonymous": false,
      "inputs": [
        {
          "indexed": true,
          "internalType": "address",
          "name": "rebalancer",
          "type": "address"
        },
        {
          "indexed": false,
          "internalType": "bool",
          "name": "isRebalancer",
          "type": "bool"
        }
      ],
      "name": "LogUpdateRebalancer",
      "type": "event"
    },
    {
      "anonymous": false,
      "inputs": [
        {
          "indexed": true,
          "internalType": "address",
          "name": "token",
          "type": "address"
        },
        {
          "indexed": true,
          "internalType": "uint256",
          "name": "amount",
          "type": "uint256"
        },
        {
          "indexed": false,
          "internalType": "address",
          "name": "receiver",
          "type": "address"
        },
        {
          "indexed": false,
          "internalType": "string",
          "name": "reason",
          "type": "string"
        }
      ],
      "name": "LogWithdrawFunds",
      "type": "event"
    },
    {
      "anonymous": false,
      "inputs": [
        {
          "indexed": true,
          "internalType": "address",
          "name": "previousOwner",
          "type": "address"
        },
        {
          "indexed": true,
          "internalType": "address",
          "name": "newOwner",
          "type": "address"
        }
      ],
      "name": "OwnershipTransferred",
      "type": "event"
    },
    {
      "anonymous": false,
      "inputs": [
        {
          "indexed": true,
          "internalType": "address",
          "name": "implementation",
          "type": "address"
        }
      ],
      "name": "Upgraded",
      "type": "event"
    },
    {
      "inputs": [],
      "name": "BUYBACK_CONTRACT_ADDRESS",
      "outputs": [
        {
          "internalType": "address",
          "name": "",
          "type": "address"
        }
      ],
      "stateMutability": "view",
      "type": "function"
    },
    {
      "inputs": [],
      "name": "TREASURY_ADDRESS",
      "outputs": [
        {
          "internalType": "address",
          "name": "",
          "type": "address"
        }
      ],
      "stateMutability": "view",
      "type": "function"
    },
    {
      "inputs": [
        {
          "internalType": "address[]",
          "name": "protocols_",
          "type": "address[]"
        },
        {
          "internalType": "address[]",
          "name": "tokens_",
          "type": "address[]"
        },
        {
          "internalType": "uint256[]",
          "name": "amounts_",
          "type": "uint256[]"
        }
      ],
      "name": "approve",
      "outputs": [],
      "stateMutability": "nonpayable",
      "type": "function"
    },
    {
      "inputs": [],
      "name": "getAllProtocolAllowances",
      "outputs": [
        {
          "components": [
            {
              "internalType": "address",
              "name": "protocol",
              "type": "address"
            },
            {
              "components": [
                {
                  "internalType": "address",
                  "name": "token",
                  "type": "address"
                },
                {
                  "internalType": "uint256",
                  "name": "allowance",
                  "type": "uint256"
                }
              ],
              "internalType": "struct Structs.TokenAllowance[]",
              "name": "tokenAllowances",
              "type": "tuple[]"
            }
          ],
          "internalType": "struct Structs.ProtocolTokenAllowance[]",
          "name": "allowances_",
          "type": "tuple[]"
        }
      ],
      "stateMutability": "view",
      "type": "function"
    },
    {
      "inputs": [
        {
          "internalType": "address",
          "name": "protocol_",
          "type": "address"
        }
      ],
      "name": "getProtocolAllowances",
      "outputs": [
        {
          "components": [
            {
              "internalType": "address",
              "name": "token",
              "type": "address"
            },
            {
              "internalType": "uint256",
              "name": "allowance",
              "type": "uint256"
            }
          ],
          "internalType": "struct Structs.TokenAllowance[]",
          "name": "allowances_",
          "type": "tuple[]"
        }
      ],
      "stateMutability": "view",
      "type": "function"
    },
    {
      "inputs": [
        {
          "internalType": "address",
          "name": "protocol_",
          "type": "address"
        }
      ],
      "name": "getProtocolTokens",
      "outputs": [
        {
          "internalType": "address[]",
          "name": "result_",
          "type": "address[]"
        }
      ],
      "stateMutability": "view",
      "type": "function"
    },
    {
      "inputs": [
        {
          "internalType": "address[]",
          "name": "_auths",
          "type": "address[]"
        },
        {
          "internalType": "address[]",
          "name": "_rebalancers",
          "type": "address[]"
        },
        {
          "internalType": "address",
          "name": "owner_",
          "type": "address"
        }
      ],
      "name": "initialize",
      "outputs": [],
      "stateMutability": "nonpayable",
      "type": "function"
    },
    {
      "inputs": [
        {
          "internalType": "address",
          "name": "",
          "type": "address"
        }
      ],
      "name": "isAuth",
      "outputs": [
        {
          "internalType": "bool",
          "name": "",
          "type": "bool"
        }
      ],
      "stateMutability": "view",
      "type": "function"
    },
    {
      "inputs": [
        {
          "internalType": "address",
          "name": "",
          "type": "address"
        }
      ],
      "name": "isRebalancer",
      "outputs": [
        {
          "internalType": "bool",
          "name": "",
          "type": "bool"
        }
      ],
      "stateMutability": "view",
      "type": "function"
    },
    {
      "inputs": [
        {
          "internalType": "address",
          "name": "",
          "type": "address"
        }
      ],
      "name": "nativeTokenAllowances",
      "outputs": [
        {
          "internalType": "uint256",
          "name": "",
          "type": "uint256"
        }
      ],
      "stateMutability": "view",
      "type": "function"
    },
    {
      "inputs": [],
      "name": "owner",
      "outputs": [
        {
          "internalType": "address",
          "name": "",
          "type": "address"
        }
      ],
      "stateMutability": "view",
      "type": "function"
    },
    {
      "inputs": [],
      "name": "proxiableUUID",
      "outputs": [
        {
          "internalType": "bytes32",
          "name": "",
          "type": "bytes32"
        }
      ],
      "stateMutability": "view",
      "type": "function"
    },
    {
      "inputs": [
        {
          "internalType": "address",
          "name": "protocol_",
          "type": "address"
        },
        {
          "internalType": "uint256",
          "name": "value_",
          "type": "uint256"
        },
        {
          "internalType": "int256",
          "name": "colToken0MinMax_",
          "type": "int256"
        },
        {
          "internalType": "int256",
          "name": "colToken1MinMax_",
          "type": "int256"
        },
        {
          "internalType": "int256",
          "name": "debtToken0MinMax_",
          "type": "int256"
        },
        {
          "internalType": "int256",
          "name": "debtToken1MinMax_",
          "type": "int256"
        }
      ],
      "name": "rebalanceDexVault",
      "outputs": [],
      "stateMutability": "payable",
      "type": "function"
    },
    {
      "inputs": [
        {
          "internalType": "address[]",
          "name": "protocols_",
          "type": "address[]"
        },
        {
          "internalType": "uint256[]",
          "name": "values_",
          "type": "uint256[]"
        },
        {
          "internalType": "int256[]",
          "name": "colToken0MinMaxs_",
          "type": "int256[]"
        },
        {
          "internalType": "int256[]",
          "name": "colToken1MinMaxs_",
          "type": "int256[]"
        },
        {
          "internalType": "int256[]",
          "name": "debtToken0MinMaxs_",
          "type": "int256[]"
        },
        {
          "internalType": "int256[]",
          "name": "debtToken1MinMaxs_",
          "type": "int256[]"
        }
      ],
      "name": "rebalanceDexVaults",
      "outputs": [],
      "stateMutability": "payable",
      "type": "function"
    },
    {
      "inputs": [
        {
          "internalType": "address",
          "name": "protocol_",
          "type": "address"
        },
        {
          "internalType": "uint256",
          "name": "value_",
          "type": "uint256"
        }
      ],
      "name": "rebalanceFToken",
      "outputs": [],
      "stateMutability": "payable",
      "type": "function"
    },
    {
      "inputs": [
        {
          "internalType": "address[]",
          "name": "protocols_",
          "type": "address[]"
        },
        {
          "internalType": "uint256[]",
          "name": "values_",
          "type": "uint256[]"
        }
      ],
      "name": "rebalanceFTokens",
      "outputs": [],
      "stateMutability": "payable",
      "type": "function"
    },
    {
      "inputs": [
        {
          "internalType": "address",
          "name": "protocol_",
          "type": "address"
        },
        {
          "internalType": "uint256",
          "name": "value_",
          "type": "uint256"
        }
      ],
      "name": "rebalanceVault",
      "outputs": [],
      "stateMutability": "payable",
      "type": "function"
    },
    {
      "inputs": [
        {
          "internalType": "address[]",
          "name": "protocols_",
          "type": "address[]"
        },
        {
          "internalType": "uint256[]",
          "name": "values_",
          "type": "uint256[]"
        }
      ],
      "name": "rebalanceVaults",
      "outputs": [],
      "stateMutability": "payable",
      "type": "function"
    },
    {
      "inputs": [],
      "name": "renounceOwnership",
      "outputs": [],
      "stateMutability": "view",
      "type": "function"
    },
    {
      "inputs": [
        {
          "internalType": "address[]",
          "name": "protocols_",
          "type": "address[]"
        },
        {
          "internalType": "address[]",
          "name": "tokens_",
          "type": "address[]"
        }
      ],
      "name": "revoke",
      "outputs": [],
      "stateMutability": "nonpayable",
      "type": "function"
    },
    {
      "inputs": [
        {
          "internalType": "address",
          "name": "newOwner",
          "type": "address"
        }
      ],
      "name": "transferOwnership",
      "outputs": [],
      "stateMutability": "nonpayable",
      "type": "function"
    },
    {
      "inputs": [
        {
          "internalType": "address",
          "name": "auth_",
          "type": "address"
        },
        {
          "internalType": "bool",
          "name": "isAuth_",
          "type": "bool"
        }
      ],
      "name": "updateAuth",
      "outputs": [],
      "stateMutability": "nonpayable",
      "type": "function"
    },
    {
      "inputs": [
        {
          "internalType": "address",
          "name": "rebalancer_",
          "type": "address"
        },
        {
          "internalType": "bool",
          "name": "isRebalancer_",
          "type": "bool"
        }
      ],
      "name": "updateRebalancer",
      "outputs": [],
      "stateMutability": "nonpayable",
      "type": "function"
    },
    {
      "inputs": [
        {
          "internalType": "address",
          "name": "newImplementation",
          "type": "address"
        }
      ],
      "name": "upgradeTo",
      "outputs": [],
      "stateMutability": "nonpayable",
      "type": "function"
    },
    {
      "inputs": [
        {
          "internalType": "address",
          "name": "newImplementation",
          "type": "address"
        },
        {
          "internalType": "bytes",
          "name": "data",
          "type": "bytes"
        }
      ],
      "name": "upgradeToAndCall",
      "outputs": [],
      "stateMutability": "payable",
      "type": "function"
    },
    {
      "inputs": [
        {
          "internalType": "address[]",
          "name": "tokens_",
          "type": "address[]"
        },
        {
          "internalType": "uint256[]",
          "name": "amounts_",
          "type": "uint256[]"
        },
        {
          "internalType": "address",
          "name": "receiver_",
          "type": "address"
        },
        {
          "internalType": "string",
          "name": "reason_",
          "type": "string"
        }
      ],
      "name": "withdrawFunds",
      "outputs": [],
      "stateMutability": "nonpayable",
      "type": "function"
    },
    {
      "stateMutability": "payable",
      "type": "receive"
    }
  ],
  "transactionHash": "0xa6d26ab739dc0acae91c3e2108a5665102a39c8731a001efe0dc2b292de31e36",
  "args": [
    "0x28849D2b63fA8D361e5fc15cB8aBB13019884d09",
    "0x9Afb8C1798B93a8E04a18553eE65bAFa41a012F1"
  ],
  "numDeployments": 1,
  "solcInputHash": "121f3549604023718e3867643f8374a3",
  "bytecode": "0x60e06040523060c0523480156200001557600080fd5b50604051620043ac380380620043ac833981016040819052620000389162000139565b620000426200005a565b6001600160a01b039182166080521660a05262000171565b600054610100900460ff1615620000c75760405162461bcd60e51b815260206004820152602760248201527f496e697469616c697a61626c653a20636f6e747261637420697320696e697469604482015266616c697a696e6760c81b606482015260840160405180910390fd5b60005460ff90811610156200011a576000805460ff191660ff9081179091556040519081527f7f26b83ff96e1f2b6a682f133852f6798a09c465da95921460cefb38474024989060200160405180910390a15b565b80516001600160a01b03811681146200013457600080fd5b919050565b600080604083850312156200014d57600080fd5b62000158836200011c565b915062000168602084016200011c565b90509250929050565b60805160a05160c0516141e1620001cb60003960008181611039015281816110e9015281816119cb01528181611a7b0152611fa5015260008181610495015261163f0152600081816101e501526115e701526141e16000f3fe6080604052600436106101a55760003560e01c80634f1ef286116100e15780638da5cb5b1161008a578063e9c771b211610064578063e9c771b2146104b7578063ec1a9dd4146104d7578063ef33e9db14610504578063f2fde38b1461052657600080fd5b80638da5cb5b1461042b578063c11b353c14610456578063c83548981461048357600080fd5b8063702b5175116100bb578063702b5175146103c9578063715018a6146103e9578063801ca144146103fe57600080fd5b80634f1ef286146103735780635274ac3f1461038657806352d1902d146103a657600080fd5b80632bb393991161014e578063392094fc11610128578063392094fc146102fd5780633ee1f1ea14610310578063432abd5614610330578063467c9eff1461034357600080fd5b80632bb39399146102b75780633659cfe6146102ca578063386b8e6f146102ea57600080fd5b8063111a399b1161017f578063111a399b1461025157806313b14ebb146102645780632520e7ff1461027757600080fd5b806303e80461146101b157806307604b1a146101d35780630de308361461023157600080fd5b366101ac57005b600080fd5b3480156101bd57600080fd5b506101d16101cc366004613754565b610546565b005b3480156101df57600080fd5b506102077f000000000000000000000000000000000000000000000000000000000000000081565b60405173ffffffffffffffffffffffffffffffffffffffff90911681526020015b60405180910390f35b34801561023d57600080fd5b506101d161024c3660046137ea565b610882565b6101d161025f366004613823565b6109f1565b6101d1610272366004613823565b610dc7565b34801561028357600080fd5b506102a761029236600461384f565b60656020526000908152604090205460ff1681565b6040519015158152602001610228565b6101d16102c53660046138bf565b610f78565b3480156102d657600080fd5b506101d16102e536600461384f565b611022565b6101d16102f836600461392b565b611227565b6101d161030b3660046138bf565b611490565b34801561031c57600080fd5b506101d161032b3660046139ed565b611533565b6101d161033e366004613a9e565b611870565b34801561034f57600080fd5b506102a761035e36600461384f565b60666020526000908152604090205460ff1681565b6101d1610381366004613be1565b6119b4565b34801561039257600080fd5b506101d16103a1366004613c45565b611baa565b3480156103b257600080fd5b506103bb611f8b565b604051908152602001610228565b3480156103d557600080fd5b506101d16103e4366004613cbd565b612077565b3480156103f557600080fd5b506101d16122f3565b34801561040a57600080fd5b5061041e61041936600461384f565b612332565b6040516102289190613d17565b34801561043757600080fd5b5060335473ffffffffffffffffffffffffffffffffffffffff16610207565b34801561046257600080fd5b506103bb61047136600461384f565b60686020526000908152604090205481565b34801561048f57600080fd5b506102077f000000000000000000000000000000000000000000000000000000000000000081565b3480156104c357600080fd5b506101d16104d23660046137ea565b612414565b3480156104e357600080fd5b506104f76104f236600461384f565b6124f2565b6040516102289190613dcd565b34801561051057600080fd5b5061051961271f565b6040516102289190613de0565b34801561053257600080fd5b506101d161054136600461384f565b612829565b3360009081526065602052604090205460ff1615801561059a57503361058160335473ffffffffffffffffffffffffffffffffffffffff1690565b73ffffffffffffffffffffffffffffffffffffffff1614155b156105db576040517fc25348e000000000000000000000000000000000000000000000000000000000815262015f9160048201526024015b60405180910390fd5b815183511415806105ee57508051825114155b1561062a576040517fc25348e000000000000000000000000000000000000000000000000000000000815262015f9360048201526024016105d2565b60005b835181101561087c57600084828151811061064a5761064a613e88565b60200260200101519050600084838151811061066857610668613e88565b60200260200101519050600084848151811061068657610686613e88565b60200260200101519050600073eeeeeeeeeeeeeeeeeeeeeeeeeeeeeeeeeeeeeeee73ffffffffffffffffffffffffffffffffffffffff168373ffffffffffffffffffffffffffffffffffffffff160361070a575073ffffffffffffffffffffffffffffffffffffffff831660009081526068602052604090208054908290556107b9565b6040517fdd62ed3e00000000000000000000000000000000000000000000000000000000815230600482015273ffffffffffffffffffffffffffffffffffffffff858116602483015284169063dd62ed3e90604401602060405180830381865afa15801561077c573d6000803e3d6000fd5b505050506040513d601f19601f820116820180604052508101906107a09190613eb7565b90506107ae838560006128dd565b6107b98385846128dd565b73ffffffffffffffffffffffffffffffffffffffff841660009081526067602052604090206107e89084612a96565b506107f4606985612a96565b508273ffffffffffffffffffffffffffffffffffffffff168473ffffffffffffffffffffffffffffffffffffffff167ff07829fca7213317a8d0869b30e579887a8d2a7bfd3a28f25075bd01b370d756848460405161085d929190918252602082015260400190565b60405180910390a350505050808061087490613eff565b91505061062d565b50505050565b3360009081526065602052604090205460ff161580156108d65750336108bd60335473ffffffffffffffffffffffffffffffffffffffff1690565b73ffffffffffffffffffffffffffffffffffffffff1614155b15610912576040517fc25348e000000000000000000000000000000000000000000000000000000000815262015f9160048201526024016105d2565b8173ffffffffffffffffffffffffffffffffffffffff8116610965576040517fc25348e000000000000000000000000000000000000000000000000000000000815262015f9260048201526024016105d2565b73ffffffffffffffffffffffffffffffffffffffff831660008181526066602090815260409182902080547fffffffffffffffffffffffffffffffffffffffffffffffffffffffffffffff001686151590811790915591519182527fad476fc62f6b1b5d25b35bd756cfbfcd299b581b8dfb25d5492c4305a0969bd291015b60405180910390a2505050565b3360009081526066602052604090205460ff16610a3f576040517fc25348e000000000000000000000000000000000000000000000000000000000815262015f9160048201526024016105d2565b8015610ae45773ffffffffffffffffffffffffffffffffffffffff8216600090815260686020526040902054811115610aa9576040517fc25348e000000000000000000000000000000000000000000000000000000000815262015f9660048201526024016105d2565b73ffffffffffffffffffffffffffffffffffffffff821660009081526068602052604081208054839290610ade908490613f37565b90915550505b6000808373ffffffffffffffffffffffffffffffffffffffff16637d7c2a1c846040518263ffffffff1660e01b8152600401604080518083038185885af1158015610b33573d6000803e3d6000fd5b50505050506040513d601f19601f82011682018060405250810190610b589190613f4a565b90925090508215610d705760008473ffffffffffffffffffffffffffffffffffffffff1663b7791bf26040518163ffffffff1660e01b81526004016101a060405180830381865afa158015610bb1573d6000803e3d6000fd5b505050506040513d601f19601f82011682018060405250810190610bd59190613f8f565b608081015190915073ffffffffffffffffffffffffffffffffffffffff1673eeeeeeeeeeeeeeeeeeeeeeeeeeeeeeeeeeeeeeee148015610c155750600083125b15610c51576040517fc25348e000000000000000000000000000000000000000000000000000000000815262015f9560048201526024016105d2565b60a081015173ffffffffffffffffffffffffffffffffffffffff1673eeeeeeeeeeeeeeeeeeeeeeeeeeeeeeeeeeeeeeee148015610c8e5750600082135b15610cca576040517fc25348e000000000000000000000000000000000000000000000000000000000815262015f9560048201526024016105d2565b608081015173ffffffffffffffffffffffffffffffffffffffff1673eeeeeeeeeeeeeeeeeeeeeeeeeeeeeeeeeeeeeeee1480610d33575060a081015173ffffffffffffffffffffffffffffffffffffffff1673eeeeeeeeeeeeeeeeeeeeeeeeeeeeeeeeeeeeeeee145b610d6e576040517fc25348e000000000000000000000000000000000000000000000000000000000815262015f9560048201526024016105d2565b505b604080518381526020810183905273ffffffffffffffffffffffffffffffffffffffff8616917f1b5a6c038413ee85baaa108b9e0f353fc1fb6dba5c500211baef62b0761e4d88910160405180910390a250505050565b3360009081526066602052604090205460ff16610e15576040517fc25348e000000000000000000000000000000000000000000000000000000000815262015f9160048201526024016105d2565b8015610eba5773ffffffffffffffffffffffffffffffffffffffff8216600090815260686020526040902054811115610e7f576040517fc25348e000000000000000000000000000000000000000000000000000000000815262015f9660048201526024016105d2565b73ffffffffffffffffffffffffffffffffffffffff821660009081526068602052604081208054839290610eb4908490613f37565b90915550505b60008273ffffffffffffffffffffffffffffffffffffffff16637d7c2a1c836040518263ffffffff1660e01b815260040160206040518083038185885af1158015610f09573d6000803e3d6000fd5b50505050506040513d601f19601f82011682018060405250810190610f2e9190613eb7565b90508273ffffffffffffffffffffffffffffffffffffffff167f2ce777e59f0be485fcc70a4790aa17e9aca8e9e6704e6ab690fc2018c92cca3f826040516109e491815260200190565b828114610fb6576040517fc25348e000000000000000000000000000000000000000000000000000000000815262015f9360048201526024016105d2565b60005b8381101561101b57611009858583818110610fd657610fd6613e88565b9050602002016020810190610feb919061384f565b848484818110610ffd57610ffd613e88565b905060200201356109f1565b8061101381613eff565b915050610fb9565b5050505050565b73ffffffffffffffffffffffffffffffffffffffff7f00000000000000000000000000000000000000000000000000000000000000001630036110e7576040517f08c379a000000000000000000000000000000000000000000000000000000000815260206004820152602c60248201527f46756e6374696f6e206d7573742062652063616c6c6564207468726f7567682060448201527f64656c656761746563616c6c000000000000000000000000000000000000000060648201526084016105d2565b7f000000000000000000000000000000000000000000000000000000000000000073ffffffffffffffffffffffffffffffffffffffff1661115c7f360894a13ba1a3210667c828492db98dca3e2076cc3735a920a3ca505d382bbc5473ffffffffffffffffffffffffffffffffffffffff1690565b73ffffffffffffffffffffffffffffffffffffffff16146111ff576040517f08c379a000000000000000000000000000000000000000000000000000000000815260206004820152602c60248201527f46756e6374696f6e206d7573742062652063616c6c6564207468726f7567682060448201527f6163746976652070726f7879000000000000000000000000000000000000000060648201526084016105d2565b61120881612ac1565b6040805160008082526020820190925261122491839190612ac9565b50565b3360009081526066602052604090205460ff16611275576040517fc25348e000000000000000000000000000000000000000000000000000000000815262015f9160048201526024016105d2565b4785158015906112a9575073ffffffffffffffffffffffffffffffffffffffff871660009081526068602052604090205486115b156112e5576040517fc25348e000000000000000000000000000000000000000000000000000000000815262015f9660048201526024016105d2565b6040517f1593a34b00000000000000000000000000000000000000000000000000000000815260048101869052602481018590526044810184905260648101839052600090819073ffffffffffffffffffffffffffffffffffffffff8a1690631593a34b908a90608401604080518083038185885af115801561136c573d6000803e3d6000fd5b50505050506040513d601f19601f820116820180604052508101906113919190613f4a565b915091506000881180156113af575060008213806113af5750600081125b156114345760004784116113c45760006113ce565b6113ce4785613f37565b905034156113f1573481116113e45760006113ee565b6113ee3482613f37565b90505b80156114325773ffffffffffffffffffffffffffffffffffffffff8a166000908152606860205260408120805483929061142c908490613f37565b90915550505b505b604080518381526020810183905273ffffffffffffffffffffffffffffffffffffffff8b16917f1b5a6c038413ee85baaa108b9e0f353fc1fb6dba5c500211baef62b0761e4d88910160405180910390a2505050505050505050565b8281146114ce576040517fc25348e000000000000000000000000000000000000000000000000000000000815262015f9360048201526024016105d2565b60005b8381101561101b576115218585838181106114ee576114ee613e88565b9050602002016020810190611503919061384f565b84848481811061151557611515613e88565b90506020020135610dc7565b8061152b81613eff565b9150506114d1565b33734f6f977acdd1177dcd81ab83074855ecb9c2d49e1480159061158b57503361157260335473ffffffffffffffffffffffffffffffffffffffff1690565b73ffffffffffffffffffffffffffffffffffffffff1614155b156115c7576040517fc25348e000000000000000000000000000000000000000000000000000000000815262015f9160048201526024016105d2565b33734f6f977acdd1177dcd81ab83074855ecb9c2d49e14801561163657507f000000000000000000000000000000000000000000000000000000000000000073ffffffffffffffffffffffffffffffffffffffff168273ffffffffffffffffffffffffffffffffffffffff1614155b801561168e57507f000000000000000000000000000000000000000000000000000000000000000073ffffffffffffffffffffffffffffffffffffffff168273ffffffffffffffffffffffffffffffffffffffff1614155b156116ca576040517fc25348e000000000000000000000000000000000000000000000000000000000815262015f9160048201526024016105d2565b825184511461170a576040517fc25348e000000000000000000000000000000000000000000000000000000000815262015f9360048201526024016105d2565b60005b845181101561101b5773eeeeeeeeeeeeeeeeeeeeeeeeeeeeeeeeeeeeeeee73ffffffffffffffffffffffffffffffffffffffff1685828151811061175357611753613e88565b602002602001015173ffffffffffffffffffffffffffffffffffffffff160361179e576117998385838151811061178c5761178c613e88565b6020026020010151612cc8565b6117db565b6117db8582815181106117b3576117b3613e88565b6020026020010151848684815181106117ce576117ce613e88565b6020026020010151612d14565b8381815181106117ed576117ed613e88565b602002602001015185828151811061180757611807613e88565b602002602001015173ffffffffffffffffffffffffffffffffffffffff167f1004e9c55ebcf7a4988e9e157a510c1a2e7fb431eeda4802633c0904dca6a4e485856040516118569291906140da565b60405180910390a38061186881613eff565b91505061170d565b8a8914158061187f57508a8714155b8061188a57508a8514155b8061189557508a8314155b806118a057508a8114155b156118dc576040517fc25348e000000000000000000000000000000000000000000000000000000000815262015f9360048201526024016105d2565b60005b8b8110156119a5576119938d8d838181106118fc576118fc613e88565b9050602002016020810190611911919061384f565b8c8c8481811061192357611923613e88565b905060200201358b8b8581811061193c5761193c613e88565b905060200201358a8a8681811061195557611955613e88565b9050602002013589898781811061196e5761196e613e88565b9050602002013588888881811061198757611987613e88565b90506020020135611227565b8061199d81613eff565b9150506118df565b50505050505050505050505050565b73ffffffffffffffffffffffffffffffffffffffff7f0000000000000000000000000000000000000000000000000000000000000000163003611a79576040517f08c379a000000000000000000000000000000000000000000000000000000000815260206004820152602c60248201527f46756e6374696f6e206d7573742062652063616c6c6564207468726f7567682060448201527f64656c656761746563616c6c000000000000000000000000000000000000000060648201526084016105d2565b7f000000000000000000000000000000000000000000000000000000000000000073ffffffffffffffffffffffffffffffffffffffff16611aee7f360894a13ba1a3210667c828492db98dca3e2076cc3735a920a3ca505d382bbc5473ffffffffffffffffffffffffffffffffffffffff1690565b73ffffffffffffffffffffffffffffffffffffffff1614611b91576040517f08c379a000000000000000000000000000000000000000000000000000000000815260206004820152602c60248201527f46756e6374696f6e206d7573742062652063616c6c6564207468726f7567682060448201527f6163746976652070726f7879000000000000000000000000000000000000000060648201526084016105d2565b611b9a82612ac1565b611ba682826001612ac9565b5050565b600054610100900460ff1615808015611bca5750600054600160ff909116105b80611be45750303b158015611be4575060005460ff166001145b611c70576040517f08c379a000000000000000000000000000000000000000000000000000000000815260206004820152602e60248201527f496e697469616c697a61626c653a20636f6e747261637420697320616c72656160448201527f647920696e697469616c697a656400000000000000000000000000000000000060648201526084016105d2565b600080547fffffffffffffffffffffffffffffffffffffffffffffffffffffffffffffff001660011790558015611cce57600080547fffffffffffffffffffffffffffffffffffffffffffffffffffffffffffff00ff166101001790555b8173ffffffffffffffffffffffffffffffffffffffff8116611d21576040517fc25348e000000000000000000000000000000000000000000000000000000000815262015f9260048201526024016105d2565b60005b8551811015611e1c57600160656000888481518110611d4557611d45613e88565b602002602001015173ffffffffffffffffffffffffffffffffffffffff1673ffffffffffffffffffffffffffffffffffffffff16815260200190815260200160002060006101000a81548160ff021916908315150217905550858181518110611db057611db0613e88565b602002602001015173ffffffffffffffffffffffffffffffffffffffff167fb873643b3104ddd26927dec7f9a08aa22d03ac20ada0295a2de7e1a6c60f2a516001604051611e02911515815260200190565b60405180910390a280611e1481613eff565b915050611d24565b5060005b8451811015611f1857600160666000878481518110611e4157611e41613e88565b602002602001015173ffffffffffffffffffffffffffffffffffffffff1673ffffffffffffffffffffffffffffffffffffffff16815260200190815260200160002060006101000a81548160ff021916908315150217905550848181518110611eac57611eac613e88565b602002602001015173ffffffffffffffffffffffffffffffffffffffff167fad476fc62f6b1b5d25b35bd756cfbfcd299b581b8dfb25d5492c4305a0969bd26001604051611efe911515815260200190565b60405180910390a280611f1081613eff565b915050611e20565b50611f2283612db8565b50801561087c57600080547fffffffffffffffffffffffffffffffffffffffffffffffffffffffffffff00ff169055604051600181527f7f26b83ff96e1f2b6a682f133852f6798a09c465da95921460cefb38474024989060200160405180910390a150505050565b60003073ffffffffffffffffffffffffffffffffffffffff7f00000000000000000000000000000000000000000000000000000000000000001614612052576040517f08c379a000000000000000000000000000000000000000000000000000000000815260206004820152603860248201527f555550535570677261646561626c653a206d757374206e6f742062652063616c60448201527f6c6564207468726f7567682064656c656761746563616c6c000000000000000060648201526084016105d2565b507f360894a13ba1a3210667c828492db98dca3e2076cc3735a920a3ca505d382bbc90565b3360009081526065602052604090205460ff161580156120cb5750336120b260335473ffffffffffffffffffffffffffffffffffffffff1690565b73ffffffffffffffffffffffffffffffffffffffff1614155b15612107576040517fc25348e000000000000000000000000000000000000000000000000000000000815262015f9160048201526024016105d2565b8051825114612147576040517fc25348e000000000000000000000000000000000000000000000000000000000815262015f9360048201526024016105d2565b60005b82518110156122ee57600083828151811061216757612167613e88565b60200260200101519050600083838151811061218557612185613e88565b6020026020010151905073eeeeeeeeeeeeeeeeeeeeeeeeeeeeeeeeeeeeeeee73ffffffffffffffffffffffffffffffffffffffff168173ffffffffffffffffffffffffffffffffffffffff16036122015773ffffffffffffffffffffffffffffffffffffffff821660009081526068602052604081205561220d565b61220d818360006128dd565b73ffffffffffffffffffffffffffffffffffffffff8216600090815260676020526040902061223c9082612e2f565b5073ffffffffffffffffffffffffffffffffffffffff8216600090815260676020526040902061226b90612e51565b60000361227f5761227d606983612e2f565b505b8073ffffffffffffffffffffffffffffffffffffffff168273ffffffffffffffffffffffffffffffffffffffff167fd54cf739d89b84837b7ca6e1402410c3497b29b0a5fbe452e57008b3abd8874d60405160405180910390a3505080806122e690613eff565b91505061214a565b505050565b6122fb612e5b565b6040517fc25348e000000000000000000000000000000000000000000000000000000000815262015f9460048201526024016105d2565b73ffffffffffffffffffffffffffffffffffffffff8116600090815260676020526040902060609061236381612e51565b67ffffffffffffffff81111561237b5761237b613597565b6040519080825280602002602001820160405280156123a4578160200160208202803683370190505b50915060005b6123b382612e51565b81101561240d576123c48282612ede565b8382815181106123d6576123d6613e88565b73ffffffffffffffffffffffffffffffffffffffff909216602092830291909101909101528061240581613eff565b9150506123aa565b5050919050565b61241c612e5b565b8173ffffffffffffffffffffffffffffffffffffffff811661246f576040517fc25348e000000000000000000000000000000000000000000000000000000000815262015f9260048201526024016105d2565b73ffffffffffffffffffffffffffffffffffffffff831660008181526065602090815260409182902080547fffffffffffffffffffffffffffffffffffffffffffffffffffffffffffffff001686151590811790915591519182527fb873643b3104ddd26927dec7f9a08aa22d03ac20ada0295a2de7e1a6c60f2a5191016109e4565b73ffffffffffffffffffffffffffffffffffffffff8116600090815260676020526040902060609061252381612e51565b67ffffffffffffffff81111561253b5761253b613597565b60405190808252806020026020018201604052801561258057816020015b60408051808201909152600080825260208201528152602001906001900390816125595790505b50915060005b61258f82612e51565b81101561240d5760006125a28383612ede565b9050808483815181106125b7576125b7613e88565b602090810291909101015173ffffffffffffffffffffffffffffffffffffffff918216905281167fffffffffffffffffffffffff1111111111111111111111111111111111111112016126535773ffffffffffffffffffffffffffffffffffffffff8516600090815260686020526040902054845185908490811061263e5761263e613e88565b6020026020010151602001818152505061270c565b6040517fdd62ed3e00000000000000000000000000000000000000000000000000000000815230600482015273ffffffffffffffffffffffffffffffffffffffff868116602483015282169063dd62ed3e90604401602060405180830381865afa1580156126c5573d6000803e3d6000fd5b505050506040513d601f19601f820116820180604052508101906126e99190613eb7565b8483815181106126fb576126fb613e88565b602002602001015160200181815250505b508061271781613eff565b915050612586565b606061272b6069612e51565b67ffffffffffffffff81111561274357612743613597565b60405190808252806020026020018201604052801561278957816020015b6040805180820190915260008152606060208201528152602001906001900390816127615790505b50905060005b6127996069612e51565b8110156128255760006127ad606983612ede565b9050808383815181106127c2576127c2613e88565b602090810291909101015173ffffffffffffffffffffffffffffffffffffffff90911690526127f0816124f2565b83838151811061280257612802613e88565b60200260200101516020018190525050808061281d90613eff565b91505061278f565b5090565b612831612e5b565b73ffffffffffffffffffffffffffffffffffffffff81166128d4576040517f08c379a000000000000000000000000000000000000000000000000000000000815260206004820152602660248201527f4f776e61626c653a206e6577206f776e657220697320746865207a65726f206160448201527f646472657373000000000000000000000000000000000000000000000000000060648201526084016105d2565b61122481612db8565b80158061297d57506040517fdd62ed3e00000000000000000000000000000000000000000000000000000000815230600482015273ffffffffffffffffffffffffffffffffffffffff838116602483015284169063dd62ed3e90604401602060405180830381865afa158015612957573d6000803e3d6000fd5b505050506040513d601f19601f8201168201806040525081019061297b9190613eb7565b155b612a09576040517f08c379a000000000000000000000000000000000000000000000000000000000815260206004820152603660248201527f5361666545524332303a20617070726f76652066726f6d206e6f6e2d7a65726f60448201527f20746f206e6f6e2d7a65726f20616c6c6f77616e63650000000000000000000060648201526084016105d2565b6040805173ffffffffffffffffffffffffffffffffffffffff8416602482015260448082018490528251808303909101815260649091019091526020810180517bffffffffffffffffffffffffffffffffffffffffffffffffffffffff167f095ea7b3000000000000000000000000000000000000000000000000000000001790526122ee908490612eea565b6000612ab88373ffffffffffffffffffffffffffffffffffffffff8416612ff6565b90505b92915050565b611224612e5b565b7f4910fdfa16fed3260ed0e7147f7cc6da11a60208b5b9406d12a635614ffd91435460ff1615612afc576122ee83613045565b8273ffffffffffffffffffffffffffffffffffffffff166352d1902d6040518163ffffffff1660e01b8152600401602060405180830381865afa925050508015612b81575060408051601f3d9081017fffffffffffffffffffffffffffffffffffffffffffffffffffffffffffffffe0168201909252612b7e91810190613eb7565b60015b612c0d576040517f08c379a000000000000000000000000000000000000000000000000000000000815260206004820152602e60248201527f45524331393637557067726164653a206e657720696d706c656d656e7461746960448201527f6f6e206973206e6f74205555505300000000000000000000000000000000000060648201526084016105d2565b7f360894a13ba1a3210667c828492db98dca3e2076cc3735a920a3ca505d382bbc8114612cbc576040517f08c379a000000000000000000000000000000000000000000000000000000000815260206004820152602960248201527f45524331393637557067726164653a20756e737570706f727465642070726f7860448201527f6961626c6555554944000000000000000000000000000000000000000000000060648201526084016105d2565b506122ee83838361314f565b60008060008060008587614e20f19050806122ee576040517fdee51a8a0000000000000000000000000000000000000000000000000000000081526201155a60048201526024016105d2565b60006040517fa9059cbb00000000000000000000000000000000000000000000000000000000815273ffffffffffffffffffffffffffffffffffffffff84166004820152826024820152602060006044836000895af13d15601f3d116001600051141617169150508061087c576040517fdee51a8a0000000000000000000000000000000000000000000000000000000081526201155a60048201526024016105d2565b6033805473ffffffffffffffffffffffffffffffffffffffff8381167fffffffffffffffffffffffff0000000000000000000000000000000000000000831681179093556040519116919082907f8be0079c531659141344cd1fd0a4f28419497f9722a3daafe3b4186f6b6457e090600090a35050565b6000612ab88373ffffffffffffffffffffffffffffffffffffffff8416613174565b6000612abb825490565b60335473ffffffffffffffffffffffffffffffffffffffff163314612edc576040517f08c379a000000000000000000000000000000000000000000000000000000000815260206004820181905260248201527f4f776e61626c653a2063616c6c6572206973206e6f7420746865206f776e657260448201526064016105d2565b565b6000612ab88383613267565b6000612f4c826040518060400160405280602081526020017f5361666545524332303a206c6f772d6c6576656c2063616c6c206661696c65648152508573ffffffffffffffffffffffffffffffffffffffff166132919092919063ffffffff16565b8051909150156122ee5780806020019051810190612f6a9190614109565b6122ee576040517f08c379a000000000000000000000000000000000000000000000000000000000815260206004820152602a60248201527f5361666545524332303a204552433230206f7065726174696f6e20646964206e60448201527f6f7420737563636565640000000000000000000000000000000000000000000060648201526084016105d2565b600081815260018301602052604081205461303d57508154600181810184556000848152602080822090930184905584548482528286019093526040902091909155612abb565b506000612abb565b73ffffffffffffffffffffffffffffffffffffffff81163b6130e9576040517f08c379a000000000000000000000000000000000000000000000000000000000815260206004820152602d60248201527f455243313936373a206e657720696d706c656d656e746174696f6e206973206e60448201527f6f74206120636f6e74726163740000000000000000000000000000000000000060648201526084016105d2565b7f360894a13ba1a3210667c828492db98dca3e2076cc3735a920a3ca505d382bbc80547fffffffffffffffffffffffff00000000000000000000000000000000000000001673ffffffffffffffffffffffffffffffffffffffff92909216919091179055565b613158836132a8565b6000825111806131655750805b156122ee5761087c83836132f5565b6000818152600183016020526040812054801561325d576000613198600183613f37565b85549091506000906131ac90600190613f37565b90508181146132115760008660000182815481106131cc576131cc613e88565b90600052602060002001549050808760000184815481106131ef576131ef613e88565b6000918252602080832090910192909255918252600188019052604090208390555b855486908061322257613222614126565b600190038181906000526020600020016000905590558560010160008681526020019081526020016000206000905560019350505050612abb565b6000915050612abb565b600082600001828154811061327e5761327e613e88565b9060005260206000200154905092915050565b60606132a0848460008561331a565b949350505050565b6132b181613045565b60405173ffffffffffffffffffffffffffffffffffffffff8216907fbc7cd75a20ee27fd9adebab32041f755214dbc6bffa90cc0225b39da2e5c2d3b90600090a250565b6060612ab8838360405180606001604052806027815260200161418560279139613433565b6060824710156133ac576040517f08c379a000000000000000000000000000000000000000000000000000000000815260206004820152602660248201527f416464726573733a20696e73756666696369656e742062616c616e636520666f60448201527f722063616c6c000000000000000000000000000000000000000000000000000060648201526084016105d2565b6000808673ffffffffffffffffffffffffffffffffffffffff1685876040516133d59190614155565b60006040518083038185875af1925050503d8060008114613412576040519150601f19603f3d011682016040523d82523d6000602084013e613417565b606091505b5091509150613428878383876134b8565b979650505050505050565b60606000808573ffffffffffffffffffffffffffffffffffffffff168560405161345d9190614155565b600060405180830381855af49150503d8060008114613498576040519150601f19603f3d011682016040523d82523d6000602084013e61349d565b606091505b50915091506134ae868383876134b8565b9695505050505050565b6060831561354e5782516000036135475773ffffffffffffffffffffffffffffffffffffffff85163b613547576040517f08c379a000000000000000000000000000000000000000000000000000000000815260206004820152601d60248201527f416464726573733a2063616c6c20746f206e6f6e2d636f6e747261637400000060448201526064016105d2565b50816132a0565b6132a083838151156135635781518083602001fd5b806040517f08c379a00000000000000000000000000000000000000000000000000000000081526004016105d29190614171565b7f4e487b7100000000000000000000000000000000000000000000000000000000600052604160045260246000fd5b6040516101a0810167ffffffffffffffff811182821017156135ea576135ea613597565b60405290565b604051601f82017fffffffffffffffffffffffffffffffffffffffffffffffffffffffffffffffe016810167ffffffffffffffff8111828210171561363757613637613597565b604052919050565b600067ffffffffffffffff82111561365957613659613597565b5060051b60200190565b73ffffffffffffffffffffffffffffffffffffffff8116811461122457600080fd5b600082601f83011261369657600080fd5b813560206136ab6136a68361363f565b6135f0565b82815260059290921b840181019181810190868411156136ca57600080fd5b8286015b848110156136ee5780356136e181613663565b83529183019183016136ce565b509695505050505050565b600082601f83011261370a57600080fd5b8135602061371a6136a68361363f565b82815260059290921b8401810191818101908684111561373957600080fd5b8286015b848110156136ee578035835291830191830161373d565b60008060006060848603121561376957600080fd5b833567ffffffffffffffff8082111561378157600080fd5b61378d87838801613685565b945060208601359150808211156137a357600080fd5b6137af87838801613685565b935060408601359150808211156137c557600080fd5b506137d2868287016136f9565b9150509250925092565b801515811461122457600080fd5b600080604083850312156137fd57600080fd5b823561380881613663565b91506020830135613818816137dc565b809150509250929050565b6000806040838503121561383657600080fd5b823561384181613663565b946020939093013593505050565b60006020828403121561386157600080fd5b813561386c81613663565b9392505050565b60008083601f84011261388557600080fd5b50813567ffffffffffffffff81111561389d57600080fd5b6020830191508360208260051b85010111156138b857600080fd5b9250929050565b600080600080604085870312156138d557600080fd5b843567ffffffffffffffff808211156138ed57600080fd5b6138f988838901613873565b9096509450602087013591508082111561391257600080fd5b5061391f87828801613873565b95989497509550505050565b60008060008060008060c0878903121561394457600080fd5b863561394f81613663565b9860208801359850604088013597606081013597506080810135965060a00135945092505050565b600067ffffffffffffffff83111561399157613991613597565b6139c260207fffffffffffffffffffffffffffffffffffffffffffffffffffffffffffffffe0601f860116016135f0565b90508281528383830111156139d657600080fd5b828260208301376000602084830101529392505050565b60008060008060808587031215613a0357600080fd5b843567ffffffffffffffff80821115613a1b57600080fd5b613a2788838901613685565b95506020870135915080821115613a3d57600080fd5b613a49888389016136f9565b945060408701359150613a5b82613663565b90925060608601359080821115613a7157600080fd5b508501601f81018713613a8357600080fd5b613a9287823560208401613977565b91505092959194509250565b60008060008060008060008060008060008060c08d8f031215613ac057600080fd5b67ffffffffffffffff8d351115613ad657600080fd5b613ae38e8e358f01613873565b909c509a5067ffffffffffffffff60208e01351115613b0157600080fd5b613b118e60208f01358f01613873565b909a50985067ffffffffffffffff60408e01351115613b2f57600080fd5b613b3f8e60408f01358f01613873565b909850965067ffffffffffffffff60608e01351115613b5d57600080fd5b613b6d8e60608f01358f01613873565b909650945067ffffffffffffffff60808e01351115613b8b57600080fd5b613b9b8e60808f01358f01613873565b909450925067ffffffffffffffff60a08e01351115613bb957600080fd5b613bc98e60a08f01358f01613873565b81935080925050509295989b509295989b509295989b565b60008060408385031215613bf457600080fd5b8235613bff81613663565b9150602083013567ffffffffffffffff811115613c1b57600080fd5b8301601f81018513613c2c57600080fd5b613c3b85823560208401613977565b9150509250929050565b600080600060608486031215613c5a57600080fd5b833567ffffffffffffffff80821115613c7257600080fd5b613c7e87838801613685565b94506020860135915080821115613c9457600080fd5b50613ca186828701613685565b9250506040840135613cb281613663565b809150509250925092565b60008060408385031215613cd057600080fd5b823567ffffffffffffffff80821115613ce857600080fd5b613cf486838701613685565b93506020850135915080821115613d0a57600080fd5b50613c3b85828601613685565b6020808252825182820181905260009190848201906040850190845b81811015613d6557835173ffffffffffffffffffffffffffffffffffffffff1683529284019291840191600101613d33565b50909695505050505050565b600081518084526020808501945080840160005b83811015613dc2578151805173ffffffffffffffffffffffffffffffffffffffff1688528301518388015260409096019590820190600101613d85565b509495945050505050565b602081526000612ab86020830184613d71565b60006020808301818452808551808352604092508286019150828160051b87010184880160005b83811015613e7a578883037fffffffffffffffffffffffffffffffffffffffffffffffffffffffffffffffc00185528151805173ffffffffffffffffffffffffffffffffffffffff168452870151878401879052613e6787850182613d71565b9588019593505090860190600101613e07565b509098975050505050505050565b7f4e487b7100000000000000000000000000000000000000000000000000000000600052603260045260246000fd5b600060208284031215613ec957600080fd5b5051919050565b7f4e487b7100000000000000000000000000000000000000000000000000000000600052601160045260246000fd5b60007fffffffffffffffffffffffffffffffffffffffffffffffffffffffffffffffff8203613f3057613f30613ed0565b5060010190565b81810381811115612abb57612abb613ed0565b60008060408385031215613f5d57600080fd5b505080516020909101519092909150565b8051613f7981613663565b919050565b805160ff81168114613f7957600080fd5b60006101a08284031215613fa257600080fd5b613faa6135c6565b613fb383613f6e565b8152613fc160208401613f6e565b6020820152613fd260408401613f6e565b6040820152613fe360608401613f6e565b6060820152613ff460808401613f6e565b608082015261400560a08401613f6e565b60a082015261401660c08401613f7e565b60c082015261402760e08401613f7e565b60e08201526101008381015190820152610120808401519082015261014080840151908201526101608084015190820152610180928301519281019290925250919050565b60005b8381101561408757818101518382015260200161406f565b50506000910152565b600081518084526140a881602086016020860161406c565b601f017fffffffffffffffffffffffffffffffffffffffffffffffffffffffffffffffe0169290920160200192915050565b73ffffffffffffffffffffffffffffffffffffffff831681526040602082015260006132a06040830184614090565b60006020828403121561411b57600080fd5b815161386c816137dc565b7f4e487b7100000000000000000000000000000000000000000000000000000000600052603160045260246000fd5b6000825161416781846020870161406c565b9190910192915050565b602081526000612ab8602083018461409056fe416464726573733a206c6f772d6c6576656c2064656c65676174652063616c6c206661696c6564a2646970667358221220423e833cda7e978d94ecbbbfed2b01087c1e0e354c7d1d019e54a1cdee12c89f64736f6c63430008150033",
  "devdoc": {
    "events": {
      "AdminChanged(address,address)": {
        "details": "Emitted when the admin account has changed."
      },
      "BeaconUpgraded(address)": {
        "details": "Emitted when the beacon is upgraded."
      },
      "Initialized(uint8)": {
        "details": "Triggered when the contract has been initialized or reinitialized."
      },
      "Upgraded(address)": {
        "details": "Emitted when the implementation is upgraded."
      }
    },
    "kind": "dev",
    "methods": {
      "approve(address[],address[],uint256[])": {
        "details": "The parameters are parallel arrays",
        "params": {
          "amounts_": "The amounts to approve",
          "protocols_": "The protocols that will be spending reserve tokens",
          "tokens_": "The tokens to approve"
        }
      },
      "getAllProtocolAllowances()": {
        "returns": {
          "allowances_": " The tokens that are approved for use by all the protocols"
        }
      },
      "getProtocolAllowances(address)": {
        "params": {
          "protocol_": "The protocol to get the tokens for"
        },
        "returns": {
          "allowances_": " The tokens that are approved for use by the protocol"
        }
      },
      "getProtocolTokens(address)": {
        "params": {
          "protocol_": "The protocol to get the tokens for"
        },
        "returns": {
          "result_": "     The tokens that are approved for use by the protocol"
        }
      },
      "initialize(address[],address[],address)": {
        "params": {
          "_auths": "The addresses that have the auth to approve and revoke protocol token allowances",
          "_rebalancers": "The addresses that can execute a rebalance on a protocol",
          "owner_": "owner address is able to upgrade contract and update auth users"
        }
      },
      "owner()": {
        "details": "Returns the address of the current owner."
      },
      "proxiableUUID()": {
        "details": "Implementation of the ERC1822 {proxiableUUID} function. This returns the storage slot used by the implementation. It is used to validate the implementation's compatibility when performing an upgrade. IMPORTANT: A proxy pointing at a proxiable contract should not be considered proxiable itself, because this risks bricking a proxy that upgrades to it, by delegating to itself until out of gas. Thus it is critical that this function revert if invoked through a proxy. This is guaranteed by the `notDelegated` modifier."
      },
      "rebalanceDexVault(address,uint256,int256,int256,int256,int256)": {
        "params": {
          "colToken0MinMax_": "if vault supply is more than Liquidity Layer then deposit difference through reserve/rebalance contract",
          "colToken1MinMax_": "if vault supply is less than Liquidity Layer then withdraw difference to reserve/rebalance contract",
          "debtToken0MinMax_": "if vault borrow is more than Liquidity Layer then borrow difference to reserve/rebalance contract",
          "debtToken1MinMax_": "if vault borrow is less than Liquidity Layer then payback difference through reserve/rebalance contract",
          "protocol_": "The protocol to rebalance",
          "value_": "any msg.value to send along (as fetched from resolver!)"
        }
      },
      "rebalanceDexVaults(address[],uint256[],int256[],int256[],int256[],int256[])": {
        "details": "don't need onlyRebalancer modifier as it is already checked in `rebalanceDexVault` function"
      },
      "rebalanceFToken(address,uint256)": {
        "params": {
          "protocol_": "The protocol to rebalance",
          "value_": "any msg.value to send along (as fetched from resolver!)"
        }
      },
      "rebalanceFTokens(address[],uint256[])": {
        "details": "don't need onlyRebalancer modifier as it is already checked in `rebalanceFToken` function"
      },
      "rebalanceVault(address,uint256)": {
        "params": {
          "protocol_": "The protocol to rebalance",
          "value_": "any msg.value to send along (as fetched from resolver!)"
        }
      },
      "rebalanceVaults(address[],uint256[])": {
        "details": "don't need onlyRebalancer modifier as it is already checked in `rebalanceVault` function"
      },
      "revoke(address[],address[])": {
        "details": "The parameters are parallel arrays",
        "params": {
          "protocols_": "The protocols that will no longer be spending reserve tokens",
          "tokens_": "The tokens to revoke"
        }
      },
      "transferOwnership(address)": {
        "details": "Transfers ownership of the contract to a new account (`newOwner`). Can only be called by the current owner."
      },
      "updateAuth(address,bool)": {
        "params": {
          "auth_": "The address to update",
          "isAuth_": "Whether or not the address should be an auth"
        }
      },
      "updateRebalancer(address,bool)": {
        "params": {
          "isRebalancer_": "Whether or not the address should be a rebalancer",
          "rebalancer_": "The address to update"
        }
      },
      "upgradeTo(address)": {
        "details": "Upgrade the implementation of the proxy to `newImplementation`. Calls {_authorizeUpgrade}. Emits an {Upgraded} event."
      },
      "upgradeToAndCall(address,bytes)": {
        "details": "Upgrade the implementation of the proxy to `newImplementation`, and subsequently execute the function call encoded in `data`. Calls {_authorizeUpgrade}. Emits an {Upgraded} event."
      },
      "withdrawFunds(address[],uint256[],address,string)": {
        "details": "This function can only be called by the owner, which is always the Governance address",
        "params": {
          "amounts_": "The amounts of each token to withdraw",
          "receiver_": "The address to receive the withdrawn funds",
          "tokens_": "The tokens to withdraw"
        }
      }
    },
    "title": "Reserve Contract",
    "version": 1
  },
  "userdoc": {
    "events": {
      "LogAllow(address,address,uint256,uint256)": {
        "notice": "Emitted when a token is approved for use by a protocol"
      },
      "LogRebalanceFToken(address,uint256)": {
        "notice": "Emitted when fToken is rebalanced"
      },
      "LogRebalanceVault(address,int256,int256)": {
        "notice": "Emitted when vault is rebalanced"
      },
      "LogRevoke(address,address)": {
        "notice": "Emitted when a token is revoked for use by a protocol"
      },
      "LogTransferFunds(address)": {
        "notice": "Emitted whenever funds for a certain `token` are transfered to Liquidity"
      },
      "LogUpdateAuth(address,bool)": {
        "notice": "Emitted when an address is added or removed from the auths"
      },
      "LogUpdateRebalancer(address,bool)": {
        "notice": "Emitted when an address is added or removed from the rebalancers"
      },
      "LogWithdrawFunds(address,uint256,address,string)": {
        "notice": "Emitted whenever funds for a certain `token` are withdrawn to receiver"
      }
    },
    "kind": "user",
    "methods": {
      "approve(address[],address[],uint256[])": {
        "notice": "Approves protocols to spend the reserves tokens"
      },
      "getAllProtocolAllowances()": {
        "notice": "Gets the allowances that are approved to a protocol"
      },
      "getProtocolAllowances(address)": {
        "notice": "Gets the allowances that are approved to a protocol"
      },
      "getProtocolTokens(address)": {
        "notice": "Gets the tokens that are approved for use by a protocol"
      },
      "initialize(address[],address[],address)": {
        "notice": "initializes the contract"
      },
      "isAuth(address)": {
        "notice": "Maps address to there status as an Auth"
      },
      "isRebalancer(address)": {
        "notice": "Maps address to there status as a Rebalancer"
      },
      "nativeTokenAllowances(address)": {
        "notice": "Mapping of protocol addresses to the amount of tokens that are allowed to be used by that protocol"
      },
      "rebalanceDexVault(address,uint256,int256,int256,int256,int256)": {
        "notice": "Executes a rebalance on a DEX vault protocol by calling that protocol's `rebalance` function"
      },
      "rebalanceDexVaults(address[],uint256[],int256[],int256[],int256[],int256[])": {
        "notice": "calls `rebalanceDexVault` multiple times"
      },
      "rebalanceFToken(address,uint256)": {
        "notice": "Executes a rebalance on a fToken protocol by calling that protocol's `rebalance` function"
      },
      "rebalanceFTokens(address[],uint256[])": {
        "notice": "calls `rebalanceFToken` multiple times"
      },
      "rebalanceVault(address,uint256)": {
        "notice": "Executes a rebalance on a vaultT1 protocol by calling that protocol's `rebalance` function"
      },
      "rebalanceVaults(address[],uint256[])": {
        "notice": "calls `rebalanceVault` multiple times"
      },
      "renounceOwnership()": {
        "notice": "override renounce ownership as it could leave the contract in an unwanted state if called by mistake."
      },
      "revoke(address[],address[])": {
        "notice": "Revokes protocols' ability to spend the reserves tokens"
      },
      "updateAuth(address,bool)": {
        "notice": "Updates an auth's status as an auth"
      },
      "updateRebalancer(address,bool)": {
        "notice": "Updates a rebalancer's status as a rebalancer"
      },
      "withdrawFunds(address[],uint256[],address,string)": {
        "notice": "Withdraws funds from the contract to a specified receiver"
      }
    },
    "notice": "This contract manages the approval of tokens for use by protocols and           the execution of rebalances on protocols",
    "version": 1
  },
  "storageLayout": {
    "storage": [
      {
        "astId": 138,
        "contract": "contracts/reserve/main.sol:FluidReserveContract",
        "label": "_initialized",
        "offset": 0,
        "slot": "0",
        "type": "t_uint8"
      },
      {
        "astId": 141,
        "contract": "contracts/reserve/main.sol:FluidReserveContract",
        "label": "_initializing",
        "offset": 1,
        "slot": "0",
        "type": "t_bool"
      },
      {
        "astId": 625,
        "contract": "contracts/reserve/main.sol:FluidReserveContract",
        "label": "__gap",
        "offset": 0,
        "slot": "1",
        "type": "t_array(t_uint256)50_storage"
      },
      {
        "astId": 10,
        "contract": "contracts/reserve/main.sol:FluidReserveContract",
        "label": "_owner",
        "offset": 0,
        "slot": "51",
        "type": "t_address"
      },
      {
        "astId": 130,
        "contract": "contracts/reserve/main.sol:FluidReserveContract",
        "label": "__gap",
        "offset": 0,
        "slot": "52",
        "type": "t_array(t_uint256)49_storage"
      },
      {
        "astId": 5549,
        "contract": "contracts/reserve/main.sol:FluidReserveContract",
        "label": "isAuth",
        "offset": 0,
        "slot": "101",
        "type": "t_mapping(t_address,t_bool)"
      },
      {
        "astId": 5554,
        "contract": "contracts/reserve/main.sol:FluidReserveContract",
        "label": "isRebalancer",
        "offset": 0,
        "slot": "102",
        "type": "t_mapping(t_address,t_bool)"
      },
      {
        "astId": 5560,
        "contract": "contracts/reserve/main.sol:FluidReserveContract",
        "label": "_protocolTokens",
        "offset": 0,
        "slot": "103",
        "type": "t_mapping(t_address,t_struct(AddressSet)2384_storage)"
      },
      {
        "astId": 5565,
        "contract": "contracts/reserve/main.sol:FluidReserveContract",
        "label": "nativeTokenAllowances",
        "offset": 0,
        "slot": "104",
        "type": "t_mapping(t_address,t_uint256)"
      },
      {
        "astId": 5569,
        "contract": "contracts/reserve/main.sol:FluidReserveContract",
        "label": "_protocols",
        "offset": 0,
        "slot": "105",
        "type": "t_struct(AddressSet)2384_storage"
      }
    ],
    "types": {
      "t_address": {
        "encoding": "inplace",
        "label": "address",
        "numberOfBytes": "20"
      },
      "t_array(t_bytes32)dyn_storage": {
        "base": "t_bytes32",
        "encoding": "dynamic_array",
        "label": "bytes32[]",
        "numberOfBytes": "32"
      },
      "t_array(t_uint256)49_storage": {
        "base": "t_uint256",
        "encoding": "inplace",
        "label": "uint256[49]",
        "numberOfBytes": "1568"
      },
      "t_array(t_uint256)50_storage": {
        "base": "t_uint256",
        "encoding": "inplace",
        "label": "uint256[50]",
        "numberOfBytes": "1600"
      },
      "t_bool": {
        "encoding": "inplace",
        "label": "bool",
        "numberOfBytes": "1"
      },
      "t_bytes32": {
        "encoding": "inplace",
        "label": "bytes32",
        "numberOfBytes": "32"
      },
      "t_mapping(t_address,t_bool)": {
        "encoding": "mapping",
        "key": "t_address",
        "label": "mapping(address => bool)",
        "numberOfBytes": "32",
        "value": "t_bool"
      },
      "t_mapping(t_address,t_struct(AddressSet)2384_storage)": {
        "encoding": "mapping",
        "key": "t_address",
        "label": "mapping(address => struct EnumerableSet.AddressSet)",
        "numberOfBytes": "32",
        "value": "t_struct(AddressSet)2384_storage"
      },
      "t_mapping(t_address,t_uint256)": {
        "encoding": "mapping",
        "key": "t_address",
        "label": "mapping(address => uint256)",
        "numberOfBytes": "32",
        "value": "t_uint256"
      },
      "t_mapping(t_bytes32,t_uint256)": {
        "encoding": "mapping",
        "key": "t_bytes32",
        "label": "mapping(bytes32 => uint256)",
        "numberOfBytes": "32",
        "value": "t_uint256"
      },
      "t_struct(AddressSet)2384_storage": {
        "encoding": "inplace",
        "label": "struct EnumerableSet.AddressSet",
        "members": [
          {
            "astId": 2383,
            "contract": "contracts/reserve/main.sol:FluidReserveContract",
            "label": "_inner",
            "offset": 0,
            "slot": "0",
            "type": "t_struct(Set)2069_storage"
          }
        ],
        "numberOfBytes": "64"
      },
      "t_struct(Set)2069_storage": {
        "encoding": "inplace",
        "label": "struct EnumerableSet.Set",
        "members": [
          {
            "astId": 2064,
            "contract": "contracts/reserve/main.sol:FluidReserveContract",
            "label": "_values",
            "offset": 0,
            "slot": "0",
            "type": "t_array(t_bytes32)dyn_storage"
          },
          {
            "astId": 2068,
            "contract": "contracts/reserve/main.sol:FluidReserveContract",
            "label": "_indexes",
            "offset": 0,
            "slot": "1",
            "type": "t_mapping(t_bytes32,t_uint256)"
          }
        ],
        "numberOfBytes": "64"
      },
      "t_uint256": {
        "encoding": "inplace",
        "label": "uint256",
        "numberOfBytes": "32"
      },
      "t_uint8": {
        "encoding": "inplace",
        "label": "uint8",
        "numberOfBytes": "1"
      }
    }
  }
}