{
  "address": "0xBeaEEa6ec8eE5bDfdaA4b4337bb9e120CE6a0330",
  "abi": [
    {
      "inputs": [
        {
          "internalType": "string",
          "name": "infoName_",
          "type": "string"
        },
        {
          "internalType": "contract IRsETHLRTOracle",
          "name": "rstETHLRTOracle_",
          "type": "address"
        },
        {
          "internalType": "uint256",
          "name": "minUpdateDiffPercent_",
          "type": "uint256"
        },
        {
          "internalType": "uint256",
          "name": "minHeartBeat_",
          "type": "uint256"
        }
      ],
      "stateMutability": "nonpayable",
      "type": "constructor"
    },
    {
      "inputs": [
        {
          "internalType": "uint256",
          "name": "errorId_",
          "type": "uint256"
        }
      ],
      "name": "FluidOracleError",
      "type": "error"
    },
    {
      "anonymous": false,
      "inputs": [
        {
          "indexed": false,
          "internalType": "uint256",
          "name": "oldRate",
          "type": "uint256"
        },
        {
          "indexed": false,
          "internalType": "uint256",
          "name": "newRate",
          "type": "uint256"
        }
      ],
      "name": "LogRebalanceRate",
      "type": "event"
    },
    {
      "inputs": [],
      "name": "centerPrice",
      "outputs": [
        {
          "internalType": "uint256",
          "name": "price_",
          "type": "uint256"
        }
      ],
      "stateMutability": "nonpayable",
      "type": "function"
    },
    {
      "inputs": [],
      "name": "configData",
      "outputs": [
        {
          "internalType": "uint256",
          "name": "minUpdateDiffPercent_",
          "type": "uint256"
        },
        {
          "internalType": "uint256",
          "name": "minHeartBeat_",
          "type": "uint256"
        },
        {
          "internalType": "uint40",
          "name": "lastUpdateTime_",
          "type": "uint40"
        },
        {
          "internalType": "address",
          "name": "rsETHLRTOracle_",
          "type": "address"
        }
      ],
      "stateMutability": "view",
      "type": "function"
    },
    {
      "inputs": [],
      "name": "configPercentDiff",
      "outputs": [
        {
          "internalType": "uint256",
          "name": "configPercentDiff_",
          "type": "uint256"
        }
      ],
      "stateMutability": "view",
      "type": "function"
    },
    {
      "inputs": [],
      "name": "getExchangeRate",
      "outputs": [
        {
          "internalType": "uint256",
          "name": "exchangeRate_",
          "type": "uint256"
        }
      ],
      "stateMutability": "view",
      "type": "function"
    },
    {
      "inputs": [],
      "name": "getExchangeRateLiquidate",
      "outputs": [
        {
          "internalType": "uint256",
          "name": "exchangeRate_",
          "type": "uint256"
        }
      ],
      "stateMutability": "view",
      "type": "function"
    },
    {
      "inputs": [],
      "name": "getExchangeRateOperate",
      "outputs": [
        {
          "internalType": "uint256",
          "name": "exchangeRate_",
          "type": "uint256"
        }
      ],
      "stateMutability": "view",
      "type": "function"
    },
    {
      "inputs": [],
      "name": "infoName",
      "outputs": [
        {
          "internalType": "string",
          "name": "",
          "type": "string"
        }
      ],
      "stateMutability": "view",
      "type": "function"
    },
    {
      "inputs": [],
      "name": "rebalance",
      "outputs": [],
      "stateMutability": "nonpayable",
      "type": "function"
    },
    {
      "inputs": [],
      "name": "rsETHPrice",
      "outputs": [
        {
          "internalType": "uint256",
          "name": "",
          "type": "uint256"
        }
      ],
      "stateMutability": "view",
      "type": "function"
    }
  ],
  "transactionHash": "0x979f6c7e75c060c3c6bf353aabaf4812ff15289735b08d5a5bd02e9e17d38744",
  "args": [
    [
      "rsETH <> ETH exchange rate",
      "0x349A73444b1a310BAe67ef67973022020d70020d",
      10,
      90000
    ]
  ],
  "numDeployments": 1,
  "linkedData": {
    "nonce": "62"
  },
  "bytecode": "0x6101006040523480156200001257600080fd5b5060405162000e7238038062000e728339810160408190526200003591620001c6565b836020815111806200004657508051155b156200006e5760405163c82fc46560e01b815261ea6a60048201526024015b60405180910390fd5b60200151608052826001600160a01b038116620000a35760405163c82fc46560e01b815261ebbf600482015260240162000065565b821580620000b35750620186a083115b80620000bd575081155b15620000e15760405163c82fc46560e01b815261ebbf600482015260240162000065565b6001600160a01b03841660a081905260c084905260e083905260408051632d2d190d60e21b8152905163b4b46434916004808201926020929091908290030181865afa15801562000136573d6000803e3d6000fd5b505050506040513d601f19601f820116820180604052508101906200015c9190620002be565b6200016c90633b9aca00620002d8565b6001600160d81b0316600160d81b4264ffffffffff16021760005550620003049350505050565b634e487b7160e01b600052604160045260246000fd5b80516001600160a01b0381168114620001c157600080fd5b919050565b60008060008060808587031215620001dd57600080fd5b84516001600160401b0380821115620001f557600080fd5b818701915087601f8301126200020a57600080fd5b8151818111156200021f576200021f62000193565b604051601f8201601f19908116603f011681019083821181831017156200024a576200024a62000193565b81604052828152602093508a848487010111156200026757600080fd5b600091505b828210156200028b57848201840151818301850152908301906200026c565b6000848483010152809850505050620002a6818801620001a9565b60408801516060909801519699909850945050505050565b600060208284031215620002d157600080fd5b5051919050565b8082028115828204841417620002fe57634e487b7160e01b600052601160045260246000fd5b92915050565b60805160a05160c05160e051610b0c620003666000396000818160d4015261058901526000818160b101526103020152600081816101250152818161023701528181610436015261063f015260008181610779015261083e0152610b0c6000f3fe608060405234801561001057600080fd5b50600436106100a35760003560e01c8063abd5f95d11610076578063e6aa216c1161005b578063e6aa216c14610176578063f3190c8914610176578063f763f7a6146101ca57600080fd5b8063abd5f95d146101ad578063b4b46434146101c257600080fd5b806320e44e43146100a85780637d7c2a1c1461016c5780638e7bfbc0146101765780639dc10566146101a5575b600080fd5b600054604080517f000000000000000000000000000000000000000000000000000000000000000081527f000000000000000000000000000000000000000000000000000000000000000060208201527b0100000000000000000000000000000000000000000000000000000090920464ffffffffff16908201527f000000000000000000000000000000000000000000000000000000000000000073ffffffffffffffffffffffffffffffffffffffff1660608201526080015b60405180910390f35b6101746101d2565b005b6000547affffffffffffffffffffffffffffffffffffffffffffffffffffff165b604051908152602001610163565b6101976103e8565b6101b561051c565b60405161016391906108cc565b61019761052b565b61019761057d565b60008054604080517fb4b4643400000000000000000000000000000000000000000000000000000000815290517affffffffffffffffffffffffffffffffffffffffffffffffffffff909216929173ffffffffffffffffffffffffffffffffffffffff7f0000000000000000000000000000000000000000000000000000000000000000169163b4b464349160048083019260209291908290030181865afa158015610282573d6000803e3d6000fd5b505050506040513d601f19601f820116820180604052508101906102a69190610938565b6102b490633b9aca00610980565b90506000818311156102de5782828403620f424002816102d6576102d661099d565b049050610300565b828211156103005782838303620f424002816102fc576102fc61099d565b0490505b7f0000000000000000000000000000000000000000000000000000000000000000811015610362576040517fc82fc46500000000000000000000000000000000000000000000000000000000815261ebc1600482015260240160405180910390fd5b7affffffffffffffffffffffffffffffffffffffffffffffffffffff82167b010000000000000000000000000000000000000000000000000000004264ffffffffff16021760005560408051848152602081018490527f95f03a932c8aced8238058ac39deeaf30f8ddcbf42ade5ad3ada32f0d1338a08910160405180910390a1505050565b60008060008054906101000a90047affffffffffffffffffffffffffffffffffffffffffffffffffffff167affffffffffffffffffffffffffffffffffffffffffffffffffffff16905060007f000000000000000000000000000000000000000000000000000000000000000073ffffffffffffffffffffffffffffffffffffffff1663b4b464346040518163ffffffff1660e01b8152600401602060405180830381865afa15801561049f573d6000803e3d6000fd5b505050506040513d601f19601f820116820180604052508101906104c39190610938565b6104d190633b9aca00610980565b9050808211156104f95781818303620f424002816104f1576104f161099d565b049250505090565b818111156105175781828203620f424002816104f1576104f161099d565b505090565b6060610526610767565b905090565b6000805461055b90633b9aca00907affffffffffffffffffffffffffffffffffffffffffffffffffffff166109cc565b7affffffffffffffffffffffffffffffffffffffffffffffffffffff16905090565b6000805442906105d4907f0000000000000000000000000000000000000000000000000000000000000000907b01000000000000000000000000000000000000000000000000000000900464ffffffffff16610a2d565b10156107435760008054604080517fb4b4643400000000000000000000000000000000000000000000000000000000815290517affffffffffffffffffffffffffffffffffffffffffffffffffffff909216929173ffffffffffffffffffffffffffffffffffffffff7f0000000000000000000000000000000000000000000000000000000000000000169163b4b464349160048083019260209291908290030181865afa15801561068a573d6000803e3d6000fd5b505050506040513d601f19601f820116820180604052508101906106ae9190610938565b6106bc90633b9aca00610980565b7affffffffffffffffffffffffffffffffffffffffffffffffffffff81167b010000000000000000000000000000000000000000000000000000004264ffffffffff16021760005560408051848152602081018390529192507f95f03a932c8aced8238058ac39deeaf30f8ddcbf42ade5ad3ada32f0d1338a08910160405180910390a150505b506000547affffffffffffffffffffffffffffffffffffffffffffffffffffff1690565b606060005b6020811080156107d257507f000000000000000000000000000000000000000000000000000000000000000081602081106107a9576107a9610a40565b1a60f81b7fff000000000000000000000000000000000000000000000000000000000000001615155b156107e957806107e181610a6f565b91505061076c565b60008167ffffffffffffffff81111561080457610804610aa7565b6040519080825280601f01601f19166020018201604052801561082e576020820181803683370190505b50905060005b828110156108c5577f0000000000000000000000000000000000000000000000000000000000000000816020811061086e5761086e610a40565b1a60f81b82828151811061088457610884610a40565b60200101907effffffffffffffffffffffffffffffffffffffffffffffffffffffffffffff1916908160001a905350806108bd81610a6f565b915050610834565b5092915050565b600060208083528351808285015260005b818110156108f9578581018301518582016040015282016108dd565b5060006040828601015260407fffffffffffffffffffffffffffffffffffffffffffffffffffffffffffffffe0601f8301168501019250505092915050565b60006020828403121561094a57600080fd5b5051919050565b7f4e487b7100000000000000000000000000000000000000000000000000000000600052601160045260246000fd5b808202811582820484141761099757610997610951565b92915050565b7f4e487b7100000000000000000000000000000000000000000000000000000000600052601260045260246000fd5b60007affffffffffffffffffffffffffffffffffffffffffffffffffffff80841680610a21577f4e487b7100000000000000000000000000000000000000000000000000000000600052601260045260246000fd5b92169190910492915050565b8082018082111561099757610997610951565b7f4e487b7100000000000000000000000000000000000000000000000000000000600052603260045260246000fd5b60007fffffffffffffffffffffffffffffffffffffffffffffffffffffffffffffffff8203610aa057610aa0610951565b5060010190565b7f4e487b7100000000000000000000000000000000000000000000000000000000600052604160045260246000fdfea26469706673582212203a06a7810ab8bdc6283e4ee577adbf5c66bbb629a56bf40a0899262a2e625baa64736f6c63430008150033"
}