{
  "address": "0xf0b280cCa857E0580a0aE13fbd8e7c7Ec71bfc38",
  "abi": [
    {
      "inputs": [
        {
          "internalType": "contract IFluidStETHQueue",
          "name": "stEthQueue_",
          "type": "address"
        },
        {
          "internalType": "contract IFluidLiquidityResolver",
          "name": "liquidityResolver_",
          "type": "address"
        },
        {
          "internalType": "contract ILidoWithdrawalQueue",
          "name": "lidoWithdrawalQueue_",
          "type": "address"
        }
      ],
      "stateMutability": "nonpayable",
      "type": "constructor"
    },
    {
      "inputs": [],
      "name": "FluidStETHResolver__AddressZero",
      "type": "error"
    },
    {
      "inputs": [],
      "name": "FluidStETHResolver__NoClaimQueued",
      "type": "error"
    },
    {
      "inputs": [],
      "name": "LIDO_WITHDRAWAL_QUEUE",
      "outputs": [
        {
          "internalType": "contract ILidoWithdrawalQueue",
          "name": "",
          "type": "address"
        }
      ],
      "stateMutability": "view",
      "type": "function"
    },
    {
      "inputs": [],
      "name": "LIQUIDITY_RESOLVER",
      "outputs": [
        {
          "internalType": "contract IFluidLiquidityResolver",
          "name": "",
          "type": "address"
        }
      ],
      "stateMutability": "view",
      "type": "function"
    },
    {
      "inputs": [],
      "name": "STETH_QUEUE",
      "outputs": [
        {
          "internalType": "contract IFluidStETHQueue",
          "name": "",
          "type": "address"
        }
      ],
      "stateMutability": "view",
      "type": "function"
    },
    {
      "inputs": [
        {
          "internalType": "address",
          "name": "claimTo_",
          "type": "address"
        },
        {
          "internalType": "uint256",
          "name": "requestIdFrom_",
          "type": "uint256"
        }
      ],
      "name": "claim",
      "outputs": [
        {
          "components": [
            {
              "internalType": "uint128",
              "name": "borrowAmountRaw",
              "type": "uint128"
            },
            {
              "internalType": "uint48",
              "name": "checkpoint",
              "type": "uint48"
            },
            {
              "internalType": "uint40",
              "name": "requestIdTo",
              "type": "uint40"
            }
          ],
          "internalType": "struct Structs.Claim",
          "name": "claim_",
          "type": "tuple"
        },
        {
          "internalType": "bool",
          "name": "isClaimable_",
          "type": "bool"
        }
      ],
      "stateMutability": "view",
      "type": "function"
    },
    {
      "inputs": [],
      "name": "config",
      "outputs": [
        {
          "internalType": "contract IFluidLiquidity",
          "name": "liquidity_",
          "type": "address"
        },
        {
          "internalType": "contract ILidoWithdrawalQueue",
          "name": "lidoWithdrawalQueue_",
          "type": "address"
        },
        {
          "internalType": "contract IERC20",
          "name": "stETH_",
          "type": "address"
        },
        {
          "internalType": "address",
          "name": "owner_",
          "type": "address"
        },
        {
          "internalType": "uint16",
          "name": "maxLTV_",
          "type": "uint16"
        },
        {
          "internalType": "bool",
          "name": "allowListActive_",
          "type": "bool"
        },
        {
          "internalType": "bool",
          "name": "isPaused_",
          "type": "bool"
        },
        {
          "components": [
            {
              "internalType": "bool",
              "name": "modeWithInterest",
              "type": "bool"
            },
            {
              "internalType": "uint256",
              "name": "borrow",
              "type": "uint256"
            },
            {
              "internalType": "uint256",
              "name": "borrowLimit",
              "type": "uint256"
            },
            {
              "internalType": "uint256",
              "name": "lastUpdateTimestamp",
              "type": "uint256"
            },
            {
              "internalType": "uint256",
              "name": "expandPercent",
              "type": "uint256"
            },
            {
              "internalType": "uint256",
              "name": "expandDuration",
              "type": "uint256"
            },
            {
              "internalType": "uint256",
              "name": "baseBorrowLimit",
              "type": "uint256"
            },
            {
              "internalType": "uint256",
              "name": "maxBorrowLimit",
              "type": "uint256"
            },
            {
              "internalType": "uint256",
              "name": "borrowableUntilLimit",
              "type": "uint256"
            },
            {
              "internalType": "uint256",
              "name": "borrowable",
              "type": "uint256"
            }
          ],
          "internalType": "struct Structs.UserBorrowData",
          "name": "userBorrowData_",
          "type": "tuple"
        },
        {
          "components": [
            {
              "internalType": "uint256",
              "name": "borrowRate",
              "type": "uint256"
            },
            {
              "internalType": "uint256",
              "name": "supplyRate",
              "type": "uint256"
            },
            {
              "internalType": "uint256",
              "name": "fee",
              "type": "uint256"
            },
            {
              "internalType": "uint256",
              "name": "lastStoredUtilization",
              "type": "uint256"
            },
            {
              "internalType": "uint256",
              "name": "storageUpdateThreshold",
              "type": "uint256"
            },
            {
              "internalType": "uint256",
              "name": "lastUpdateTimestamp",
              "type": "uint256"
            },
            {
              "internalType": "uint256",
              "name": "supplyExchangePrice",
              "type": "uint256"
            },
            {
              "internalType": "uint256",
              "name": "borrowExchangePrice",
              "type": "uint256"
            },
            {
              "internalType": "uint256",
              "name": "supplyRawInterest",
              "type": "uint256"
            },
            {
              "internalType": "uint256",
              "name": "supplyInterestFree",
              "type": "uint256"
            },
            {
              "internalType": "uint256",
              "name": "borrowRawInterest",
              "type": "uint256"
            },
            {
              "internalType": "uint256",
              "name": "borrowInterestFree",
              "type": "uint256"
            },
            {
              "internalType": "uint256",
              "name": "totalSupply",
              "type": "uint256"
            },
            {
              "internalType": "uint256",
              "name": "totalBorrow",
              "type": "uint256"
            },
            {
              "internalType": "uint256",
              "name": "revenue",
              "type": "uint256"
            },
            {
              "components": [
                {
                  "internalType": "uint256",
                  "name": "version",
                  "type": "uint256"
                },
                {
                  "components": [
                    {
                      "internalType": "address",
                      "name": "token",
                      "type": "address"
                    },
                    {
                      "internalType": "uint256",
                      "name": "kink",
                      "type": "uint256"
                    },
                    {
                      "internalType": "uint256",
                      "name": "rateAtUtilizationZero",
                      "type": "uint256"
                    },
                    {
                      "internalType": "uint256",
                      "name": "rateAtUtilizationKink",
                      "type": "uint256"
                    },
                    {
                      "internalType": "uint256",
                      "name": "rateAtUtilizationMax",
                      "type": "uint256"
                    }
                  ],
                  "internalType": "struct Structs.RateDataV1Params",
                  "name": "rateDataV1",
                  "type": "tuple"
                },
                {
                  "components": [
                    {
                      "internalType": "address",
                      "name": "token",
                      "type": "address"
                    },
                    {
                      "internalType": "uint256",
                      "name": "kink1",
                      "type": "uint256"
                    },
                    {
                      "internalType": "uint256",
                      "name": "kink2",
                      "type": "uint256"
                    },
                    {
                      "internalType": "uint256",
                      "name": "rateAtUtilizationZero",
                      "type": "uint256"
                    },
                    {
                      "internalType": "uint256",
                      "name": "rateAtUtilizationKink1",
                      "type": "uint256"
                    },
                    {
                      "internalType": "uint256",
                      "name": "rateAtUtilizationKink2",
                      "type": "uint256"
                    },
                    {
                      "internalType": "uint256",
                      "name": "rateAtUtilizationMax",
                      "type": "uint256"
                    }
                  ],
                  "internalType": "struct Structs.RateDataV2Params",
                  "name": "rateDataV2",
                  "type": "tuple"
                }
              ],
              "internalType": "struct Structs.RateData",
              "name": "rateData",
              "type": "tuple"
            }
          ],
          "internalType": "struct Structs.OverallTokenData",
          "name": "overallTokenData_",
          "type": "tuple"
        }
      ],
      "stateMutability": "view",
      "type": "function"
    },
    {
      "inputs": [],
      "name": "getUserBorrowData",
      "outputs": [
        {
          "components": [
            {
              "internalType": "bool",
              "name": "modeWithInterest",
              "type": "bool"
            },
            {
              "internalType": "uint256",
              "name": "borrow",
              "type": "uint256"
            },
            {
              "internalType": "uint256",
              "name": "borrowLimit",
              "type": "uint256"
            },
            {
              "internalType": "uint256",
              "name": "lastUpdateTimestamp",
              "type": "uint256"
            },
            {
              "internalType": "uint256",
              "name": "expandPercent",
              "type": "uint256"
            },
            {
              "internalType": "uint256",
              "name": "expandDuration",
              "type": "uint256"
            },
            {
              "internalType": "uint256",
              "name": "baseBorrowLimit",
              "type": "uint256"
            },
            {
              "internalType": "uint256",
              "name": "maxBorrowLimit",
              "type": "uint256"
            },
            {
              "internalType": "uint256",
              "name": "borrowableUntilLimit",
              "type": "uint256"
            },
            {
              "internalType": "uint256",
              "name": "borrowable",
              "type": "uint256"
            }
          ],
          "internalType": "struct Structs.UserBorrowData",
          "name": "userBorrowData_",
          "type": "tuple"
        },
        {
          "components": [
            {
              "internalType": "uint256",
              "name": "borrowRate",
              "type": "uint256"
            },
            {
              "internalType": "uint256",
              "name": "supplyRate",
              "type": "uint256"
            },
            {
              "internalType": "uint256",
              "name": "fee",
              "type": "uint256"
            },
            {
              "internalType": "uint256",
              "name": "lastStoredUtilization",
              "type": "uint256"
            },
            {
              "internalType": "uint256",
              "name": "storageUpdateThreshold",
              "type": "uint256"
            },
            {
              "internalType": "uint256",
              "name": "lastUpdateTimestamp",
              "type": "uint256"
            },
            {
              "internalType": "uint256",
              "name": "supplyExchangePrice",
              "type": "uint256"
            },
            {
              "internalType": "uint256",
              "name": "borrowExchangePrice",
              "type": "uint256"
            },
            {
              "internalType": "uint256",
              "name": "supplyRawInterest",
              "type": "uint256"
            },
            {
              "internalType": "uint256",
              "name": "supplyInterestFree",
              "type": "uint256"
            },
            {
              "internalType": "uint256",
              "name": "borrowRawInterest",
              "type": "uint256"
            },
            {
              "internalType": "uint256",
              "name": "borrowInterestFree",
              "type": "uint256"
            },
            {
              "internalType": "uint256",
              "name": "totalSupply",
              "type": "uint256"
            },
            {
              "internalType": "uint256",
              "name": "totalBorrow",
              "type": "uint256"
            },
            {
              "internalType": "uint256",
              "name": "revenue",
              "type": "uint256"
            },
            {
              "components": [
                {
                  "internalType": "uint256",
                  "name": "version",
                  "type": "uint256"
                },
                {
                  "components": [
                    {
                      "internalType": "address",
                      "name": "token",
                      "type": "address"
                    },
                    {
                      "internalType": "uint256",
                      "name": "kink",
                      "type": "uint256"
                    },
                    {
                      "internalType": "uint256",
                      "name": "rateAtUtilizationZero",
                      "type": "uint256"
                    },
                    {
                      "internalType": "uint256",
                      "name": "rateAtUtilizationKink",
                      "type": "uint256"
                    },
                    {
                      "internalType": "uint256",
                      "name": "rateAtUtilizationMax",
                      "type": "uint256"
                    }
                  ],
                  "internalType": "struct Structs.RateDataV1Params",
                  "name": "rateDataV1",
                  "type": "tuple"
                },
                {
                  "components": [
                    {
                      "internalType": "address",
                      "name": "token",
                      "type": "address"
                    },
                    {
                      "internalType": "uint256",
                      "name": "kink1",
                      "type": "uint256"
                    },
                    {
                      "internalType": "uint256",
                      "name": "kink2",
                      "type": "uint256"
                    },
                    {
                      "internalType": "uint256",
                      "name": "rateAtUtilizationZero",
                      "type": "uint256"
                    },
                    {
                      "internalType": "uint256",
                      "name": "rateAtUtilizationKink1",
                      "type": "uint256"
                    },
                    {
                      "internalType": "uint256",
                      "name": "rateAtUtilizationKink2",
                      "type": "uint256"
                    },
                    {
                      "internalType": "uint256",
                      "name": "rateAtUtilizationMax",
                      "type": "uint256"
                    }
                  ],
                  "internalType": "struct Structs.RateDataV2Params",
                  "name": "rateDataV2",
                  "type": "tuple"
                }
              ],
              "internalType": "struct Structs.RateData",
              "name": "rateData",
              "type": "tuple"
            }
          ],
          "internalType": "struct Structs.OverallTokenData",
          "name": "overallTokenData_",
          "type": "tuple"
        }
      ],
      "stateMutability": "view",
      "type": "function"
    },
    {
      "inputs": [
        {
          "internalType": "address",
          "name": "auth_",
          "type": "address"
        }
      ],
      "name": "isAuth",
      "outputs": [
        {
          "internalType": "bool",
          "name": "",
          "type": "bool"
        }
      ],
      "stateMutability": "view",
      "type": "function"
    },
    {
      "inputs": [
        {
          "internalType": "address",
          "name": "claimTo_",
          "type": "address"
        },
        {
          "internalType": "uint256",
          "name": "requestIdFrom_",
          "type": "uint256"
        }
      ],
      "name": "isClaimable",
      "outputs": [
        {
          "internalType": "bool",
          "name": "",
          "type": "bool"
        }
      ],
      "stateMutability": "view",
      "type": "function"
    },
    {
      "inputs": [
        {
          "internalType": "address",
          "name": "guardian_",
          "type": "address"
        }
      ],
      "name": "isGuardian",
      "outputs": [
        {
          "internalType": "bool",
          "name": "",
          "type": "bool"
        }
      ],
      "stateMutability": "view",
      "type": "function"
    },
    {
      "inputs": [],
      "name": "isPaused",
      "outputs": [
        {
          "internalType": "bool",
          "name": "",
          "type": "bool"
        }
      ],
      "stateMutability": "view",
      "type": "function"
    },
    {
      "inputs": [
        {
          "internalType": "address",
          "name": "user_",
          "type": "address"
        }
      ],
      "name": "isUserAllowed",
      "outputs": [
        {
          "internalType": "bool",
          "name": "",
          "type": "bool"
        }
      ],
      "stateMutability": "view",
      "type": "function"
    }
  ],
  "transactionHash": "0x083febd7b61c2e9a10d570dda7b47d51ccedf3ec2cf610f75dffb25353b5ed67",
  "args": [
    "0x1F6B2bFDd5D1e6AdE7B17027ff5300419a56Ad6b",
    "0x741c2Cd25f053a55fd94afF1afAEf146523E1249",
    "0x889edC2eDab5f40e902b864aD4d7AdE8E412F9B1"
  ],
  "numDeployments": 1,
  "solcInputHash": "087d48b3af206e71af8d7e1bd3c0e081",
  "bytecode": "0x60e06040523480156200001157600080fd5b5060405162001c8738038062001c878339810160408190526200003491620000bb565b6001600160a01b03831615806200005257506001600160a01b038216155b806200006557506001600160a01b038116155b15620000845760405163431ad5b760e11b815260040160405180910390fd5b6001600160a01b0392831660805290821660c0521660a0526200010f565b6001600160a01b0381168114620000b857600080fd5b50565b600080600060608486031215620000d157600080fd5b8351620000de81620000a2565b6020850151909350620000f181620000a2565b60408501519092506200010481620000a2565b809150509250925092565b60805160a05160c051611adf620001a86000396000818161016d0152610da701526000818161022901528181610546015261067d015260008181610121015281816102a901528181610365015281816103e7015281816107d701528181610872015281816109030152818161099401528181610a2501528181610b1701528181610bb201528181610c360152610d650152611adf6000f3fe608060405234801561001057600080fd5b50600436106100c95760003560e01c806379502c5511610081578063b187bd261161005b578063b187bd261461021c578063b8c7777414610224578063de4f12271461024b57600080fd5b806379502c551461018f578063a52ba4e8146101ac578063aad3ec96146101bf57600080fd5b8063408e5df6116100b2578063408e5df614610109578063532139a31461011c5780636902f79f1461016857600080fd5b80630c68ba21146100ce5780632520e7ff146100f6575b600080fd5b6100e16100dc366004610f78565b610261565b60405190151581526020015b60405180910390f35b6100e1610104366004610f78565b61031d565b6100e1610117366004610f9c565b610396565b6101437f000000000000000000000000000000000000000000000000000000000000000081565b60405173ffffffffffffffffffffffffffffffffffffffff90911681526020016100ed565b6101437f000000000000000000000000000000000000000000000000000000000000000081565b61019761076a565b6040516100ed99989796959493929190610fc8565b6100e16101ba366004610f78565b610acf565b6101d26101cd366004610f9c565b610b48565b6040805183516fffffffffffffffffffffffffffffffff16815260208085015165ffffffffffff16908201529281015164ffffffffff1690830152151560608201526080016100ed565b6100e1610c32565b6101437f000000000000000000000000000000000000000000000000000000000000000081565b610253610cc8565b6040516100ed9291906111e6565b6040517f0c68ba2100000000000000000000000000000000000000000000000000000000815273ffffffffffffffffffffffffffffffffffffffff82811660048301526000917f000000000000000000000000000000000000000000000000000000000000000090911690630c68ba21906024015b602060405180830381865afa1580156102f3573d6000803e3d6000fd5b505050506040513d601f19601f8201168201806040525081019061031791906113b3565b92915050565b6040517f2520e7ff00000000000000000000000000000000000000000000000000000000815273ffffffffffffffffffffffffffffffffffffffff82811660048301526000917f000000000000000000000000000000000000000000000000000000000000000090911690632520e7ff906024016102d6565b6040517fab541a8500000000000000000000000000000000000000000000000000000000815273ffffffffffffffffffffffffffffffffffffffff83811660048301526024820183905260009182917f0000000000000000000000000000000000000000000000000000000000000000169063ab541a8590604401606060405180830381865afa15801561042e573d6000803e3d6000fd5b505050506040513d601f19601f820116820180604052508101906104529190611503565b9050806020015165ffffffffffff1660000361049a576040517f953186f600000000000000000000000000000000000000000000000000000000815260040160405180910390fd5b600083826040015164ffffffffff166104b391906115b0565b6104be9060016115c3565b905060608160010361060657604080516001808252818301909252906020808301908036833701905050905084816000815181106104fe576104fe6115d6565b60209081029190910101526040517fb8c4b85a00000000000000000000000000000000000000000000000000000000815273ffffffffffffffffffffffffffffffffffffffff7f0000000000000000000000000000000000000000000000000000000000000000169063b8c4b85a9061057b908490600401611605565b600060405180830381865afa158015610598573d6000803e3d6000fd5b505050506040513d6000823e601f3d9081017fffffffffffffffffffffffffffffffffffffffffffffffffffffffffffffffe01682016040526105de9190810190611649565b6000815181106105f0576105f06115d6565b6020026020010151608001519350505050610317565b8460005b8381101561063c5781838281518110610625576106256115d6565b60209081029190910101526001918201910161060a565b506040517fb8c4b85a00000000000000000000000000000000000000000000000000000000815260009073ffffffffffffffffffffffffffffffffffffffff7f0000000000000000000000000000000000000000000000000000000000000000169063b8c4b85a906106b2908690600401611605565b600060405180830381865afa1580156106cf573d6000803e3d6000fd5b505050506040513d6000823e601f3d9081017fffffffffffffffffffffffffffffffffffffffffffffffffffffffffffffffe01682016040526107159190810190611649565b905060005b8481101561075b57818181518110610734576107346115d6565b6020026020010151608001516107535760009650505050505050610317565b60010161071a565b50600198975050505050505050565b60008060008060008060006107cd6040518061014001604052806000151581526020016000815260200160008152602001600081526020016000815260200160008152602001600081526020016000815260200160008152602001600081525090565b6107d5610e1c565b7f000000000000000000000000000000000000000000000000000000000000000073ffffffffffffffffffffffffffffffffffffffff1663b7791bf26040518163ffffffff1660e01b8152600401606060405180830381865afa158015610840573d6000803e3d6000fd5b505050506040513d601f19601f820116820180604052508101906108649190611752565b809950819a50829b505050507f000000000000000000000000000000000000000000000000000000000000000073ffffffffffffffffffffffffffffffffffffffff1663f384bd056040518163ffffffff1660e01b8152600401602060405180830381865afa1580156108db573d6000803e3d6000fd5b505050506040513d601f19601f820116820180604052508101906108ff919061179f565b94507f000000000000000000000000000000000000000000000000000000000000000073ffffffffffffffffffffffffffffffffffffffff1663457dbf216040518163ffffffff1660e01b8152600401602060405180830381865afa15801561096c573d6000803e3d6000fd5b505050506040513d601f19601f8201168201806040525081019061099091906113b3565b93507f000000000000000000000000000000000000000000000000000000000000000073ffffffffffffffffffffffffffffffffffffffff16638da5cb5b6040518163ffffffff1660e01b8152600401602060405180830381865afa1580156109fd573d6000803e3d6000fd5b505050506040513d601f19601f82011682018060405250810190610a2191906117c3565b95507f000000000000000000000000000000000000000000000000000000000000000073ffffffffffffffffffffffffffffffffffffffff1663b187bd266040518163ffffffff1660e01b8152600401602060405180830381865afa158015610a8e573d6000803e3d6000fd5b505050506040513d601f19601f82011682018060405250810190610ab291906113b3565b9250610abc610cc8565b8092508193505050909192939495969798565b6040517fa52ba4e800000000000000000000000000000000000000000000000000000000815273ffffffffffffffffffffffffffffffffffffffff82811660048301526000917f00000000000000000000000000000000000000000000000000000000000000009091169063a52ba4e8906024016102d6565b6040805160608101825260008082526020820181905281830181905291517fab541a8500000000000000000000000000000000000000000000000000000000815273ffffffffffffffffffffffffffffffffffffffff8581166004830152602482018590529192917f0000000000000000000000000000000000000000000000000000000000000000169063ab541a8590604401606060405180830381865afa158015610bf9573d6000803e3d6000fd5b505050506040513d601f19601f82011682018060405250810190610c1d9190611503565b9150610c298484610396565b90509250929050565b60007f000000000000000000000000000000000000000000000000000000000000000073ffffffffffffffffffffffffffffffffffffffff1663b187bd266040518163ffffffff1660e01b8152600401602060405180830381865afa158015610c9f573d6000803e3d6000fd5b505050506040513d601f19601f82011682018060405250810190610cc391906113b3565b905090565b610d206040518061014001604052806000151581526020016000815260200160008152602001600081526020016000815260200160008152602001600081526020016000815260200160008152602001600081525090565b610d28610e1c565b6040517f967915d600000000000000000000000000000000000000000000000000000000815273ffffffffffffffffffffffffffffffffffffffff7f00000000000000000000000000000000000000000000000000000000000000008116600483015273eeeeeeeeeeeeeeeeeeeeeeeeeeeeeeeeeeeeeeee60248301527f0000000000000000000000000000000000000000000000000000000000000000169063967915d6906044016104c060405180830381865afa158015610def573d6000803e3d6000fd5b505050506040513d601f19601f82011682018060405250810190610e1391906119f7565b90939092509050565b604051806102000160405280600081526020016000815260200160008152602001600081526020016000815260200160008152602001600081526020016000815260200160008152602001600081526020016000815260200160008152602001600081526020016000815260200160008152602001610e99610e9e565b905290565b604051806060016040528060008152602001610ef86040518060a00160405280600073ffffffffffffffffffffffffffffffffffffffff168152602001600081526020016000815260200160008152602001600081525090565b8152602001610e996040518060e00160405280600073ffffffffffffffffffffffffffffffffffffffff1681526020016000815260200160008152602001600081526020016000815260200160008152602001600081525090565b73ffffffffffffffffffffffffffffffffffffffff81168114610f7557600080fd5b50565b600060208284031215610f8a57600080fd5b8135610f9581610f53565b9392505050565b60008060408385031215610faf57600080fd5b8235610fba81610f53565b946020939093013593505050565b73ffffffffffffffffffffffffffffffffffffffff8a81168252898116602083015288811660408301528716606082015261ffff8616608082015284151560a082015283151560c08201526105a0810161108860e08301858051151582526020810151602083015260408101516040830152606081015160608301526080810151608083015260a081015160a083015260c081015160c083015260e081015160e08301526101008082015181840152506101208082015181840152505050565b82516102208301526020808401516102408401526040808501516102608501526060808601516102808601526080808701516102a087015260a0808801516102c088015260c0808901516102e089015260e08901516103008901526101008901516103208901526101208901516103408901526101408901516103608901526101608901516103808901526101808901516103a08901526101a08901516103c08901526101c08901516103e08901526101e089015180516104008a015280870151805173ffffffffffffffffffffffffffffffffffffffff9081166104208c0152818901516104408c0152818801516104608c0152818701516104808c0152908501516104a08b01529086015180519091166104c08a0152958601516104e0890152938501516105008801529184015161052087015283015161054086015282015161056085015201516105808301529a9950505050505050505050565b6104c0810161125882858051151582526020810151602083015260408101516040830152606081015160608301526080810151608083015260a081015160a083015260c081015160c083015260e081015160e08301526101008082015181840152506101208082015181840152505050565b610f95610140830184805182526020808201518184015260408083015181850152606080840151818601526080808501518187015260a0808601518188015260c0808701518189015260e08088015190890152610100808801519089015261012080880151908901526101408088015190890152610160808801519089015261018080880151908901526101a080880151908901526101c080880151908901526101e09687015180519789019790975286860151805173ffffffffffffffffffffffffffffffffffffffff9081166102008b0152818801516102208b0152818701516102408b0152818601516102608b0152908401516102808a01529685015180519097166102a0890152948601516102c0880152928501516102e087015290840151610300860152830151610320850152820151610340840152015161036090910152565b805180151581146113ae57600080fd5b919050565b6000602082840312156113c557600080fd5b610f958261139e565b7f4e487b7100000000000000000000000000000000000000000000000000000000600052604160045260246000fd5b6040516060810167ffffffffffffffff81118282101715611420576114206113ce565b60405290565b60405160c0810167ffffffffffffffff81118282101715611420576114206113ce565b60405160a0810167ffffffffffffffff81118282101715611420576114206113ce565b604051610200810167ffffffffffffffff81118282101715611420576114206113ce565b604051610140810167ffffffffffffffff81118282101715611420576114206113ce565b604051601f82017fffffffffffffffffffffffffffffffffffffffffffffffffffffffffffffffe016810167ffffffffffffffff811182821017156114fb576114fb6113ce565b604052919050565b60006060828403121561151557600080fd5b61151d6113fd565b82516fffffffffffffffffffffffffffffffff8116811461153d57600080fd5b8152602083015165ffffffffffff8116811461155857600080fd5b6020820152604083015164ffffffffff8116811461157557600080fd5b60408201529392505050565b7f4e487b7100000000000000000000000000000000000000000000000000000000600052601160045260246000fd5b8181038181111561031757610317611581565b8082018082111561031757610317611581565b7f4e487b7100000000000000000000000000000000000000000000000000000000600052603260045260246000fd5b6020808252825182820181905260009190848201906040850190845b8181101561163d57835183529284019291840191600101611621565b50909695505050505050565b6000602080838503121561165c57600080fd5b825167ffffffffffffffff8082111561167457600080fd5b818501915085601f83011261168857600080fd5b81518181111561169a5761169a6113ce565b6116a8848260051b016114b4565b818152848101925060c09182028401850191888311156116c757600080fd5b938501935b828510156117465780858a0312156116e45760008081fd5b6116ec611426565b85518152868601518782015260408087015161170781610f53565b9082015260608681015190820152608061172281880161139e565b9082015260a061173387820161139e565b90820152845293840193928501926116cc565b50979650505050505050565b60008060006060848603121561176757600080fd5b835161177281610f53565b602085015190935061178381610f53565b604085015190925061179481610f53565b809150509250925092565b6000602082840312156117b157600080fd5b815161ffff81168114610f9557600080fd5b6000602082840312156117d557600080fd5b8151610f9581610f53565b600060e082840312156117f257600080fd5b60405160e0810181811067ffffffffffffffff82111715611815576118156113ce565b8060405250809150825161182881610f53565b808252506020830151602082015260408301516040820152606083015160608201526080830151608082015260a083015160a082015260c083015160c08201525092915050565b60008183036101a081121561188357600080fd5b61188b6113fd565b91508251825260a07fffffffffffffffffffffffffffffffffffffffffffffffffffffffffffffffe0820112156118c157600080fd5b506118ca611449565b60208301516118d881610f53565b8082525060408301516020820152606083015160408201526080830151606082015260a08301516080820152806020830152506119188360c084016117e0565b604082015292915050565b6000610380828403121561193657600080fd5b61193e61146c565b9050815181526020820151602082015260408201516040820152606082015160608201526080820151608082015260a082015160a082015260c082015160c082015260e082015160e08201526101008083015181830152506101208083015181830152506101408083015181830152506101608083015181830152506101808083015181830152506101a08083015181830152506101c08083015181830152506101e06119ed8482850161186f565b9082015292915050565b6000808284036104c0811215611a0c57600080fd5b61014080821215611a1c57600080fd5b611a24611490565b9150611a2f8561139e565b82526020850151602083015260408501516040830152606085015160608301526080850151608083015260a085015160a083015260c085015160c083015260e085015160e0830152610100808601518184015250610120808601518184015250819350611a9e86828701611923565b92505050925092905056fea26469706673582212200662d73bfd6f47cb4cc4226b072c185daa5db6a2abf68117c5c32125fbc095d164736f6c63430008150033",
  "devdoc": {
    "kind": "dev",
    "methods": {
      "isClaimable(address,uint256)": {
        "params": {
          "claimTo_": "claimTo receiver to process the claim for",
          "requestIdFrom_": "Lido requestId from (start), as emitted at time of queuing via `LogQueue`"
        }
      }
    },
    "stateVariables": {
      "NATIVE_TOKEN_ADDRESS": {
        "details": "address that is mapped to the chain native token at Liquidity"
      }
    },
    "version": 1
  },
  "userdoc": {
    "errors": {
      "FluidStETHResolver__AddressZero()": [
        {
          "notice": "thrown if an input param address is zero"
        }
      ],
      "FluidStETHResolver__NoClaimQueued()": [
        {
          "notice": "thrown if there is no Claim queued for the given input data"
        }
      ]
    },
    "kind": "user",
    "methods": {
      "LIDO_WITHDRAWAL_QUEUE()": {
        "notice": "address of the Lido Withdrawal Queue contract (0x889edC2eDab5f40e902b864aD4d7AdE8E412F9B1)"
      },
      "LIQUIDITY_RESOLVER()": {
        "notice": "address of the LiquidityResolver"
      },
      "STETH_QUEUE()": {
        "notice": "address of the stETHQueue contract"
      },
      "claim(address,uint256)": {
        "notice": "reads a Claim struct containing necessary information for executing the claim process from the mapping claimTo and requestIdFrom -> claims and the claimable status."
      },
      "config()": {
        "notice": "returns all constants and config values"
      },
      "getUserBorrowData()": {
        "notice": "returns borrow data and general data (such as rates, exchange prices, utilization, fee, total amounts etc.) for native token"
      },
      "isAuth(address)": {
        "notice": "reads if a certain `auth_` address is an allowed auth or not"
      },
      "isClaimable(address,uint256)": {
        "notice": "checks if a linked claim for `claimTo_` and `claimTo_` is ready to be processed at Lido Withdrawal Queue"
      },
      "isGuardian(address)": {
        "notice": "reads if a certain `guardian_` address is an allowed guardian or not"
      },
      "isPaused()": {
        "notice": "reads if the protocol is paused or not"
      },
      "isUserAllowed(address)": {
        "notice": "reads if a certain `user_` address is an allowed user or not"
      }
    },
    "notice": "Fluid StETH protocol resolver Implements various view-only methods to give easy access to StETH protocol data.",
    "version": 1
  },
  "storageLayout": {
    "storage": [],
    "types": null
  }
}