{
  "address": "0x887d0aFb83949dd2d379e55E122c3c234D68F8BF",
  "abi": [
    {
      "inputs": [
        {
          "internalType": "string",
          "name": "infoName_",
          "type": "string"
        },
        {
          "internalType": "contract IERC4626",
          "name": "sUSDe_",
          "type": "address"
        },
        {
          "internalType": "uint8",
          "name": "debtTokenDecimals_",
          "type": "uint8"
        }
      ],
      "stateMutability": "nonpayable",
      "type": "constructor"
    },
    {
      "inputs": [
        {
          "internalType": "uint256",
          "name": "errorId_",
          "type": "uint256"
        }
      ],
      "name": "FluidOracleError",
      "type": "error"
    },
    {
      "inputs": [],
      "name": "getExchangeRate",
      "outputs": [
        {
          "internalType": "uint256",
          "name": "exchangeRate_",
          "type": "uint256"
        }
      ],
      "stateMutability": "view",
      "type": "function"
    },
    {
      "inputs": [],
      "name": "getExchangeRateLiquidate",
      "outputs": [
        {
          "internalType": "uint256",
          "name": "exchangeRate_",
          "type": "uint256"
        }
      ],
      "stateMutability": "view",
      "type": "function"
    },
    {
      "inputs": [],
      "name": "getExchangeRateOperate",
      "outputs": [
        {
          "internalType": "uint256",
          "name": "exchangeRate_",
          "type": "uint256"
        }
      ],
      "stateMutability": "view",
      "type": "function"
    },
    {
      "inputs": [],
      "name": "infoName",
      "outputs": [
        {
          "internalType": "string",
          "name": "",
          "type": "string"
        }
      ],
      "stateMutability": "view",
      "type": "function"
    },
    {
      "inputs": [],
      "name": "sUSDeOracleData",
      "outputs": [
        {
          "internalType": "uint256",
          "name": "sUSDeExchangeRate_",
          "type": "uint256"
        },
        {
          "internalType": "contract IERC4626",
          "name": "sUSDe_",
          "type": "address"
        },
        {
          "internalType": "uint256",
          "name": "debtTokenDecimals_",
          "type": "uint256"
        }
      ],
      "stateMutability": "view",
      "type": "function"
    }
  ],
  "transactionHash": "0x7c92470d434a948056a4ffea2be2bce521a4c980ca124ec72360aac486f672eb",
  "args": [
    "USD18 (GHO) per 1 sUSDe",
    "0x9D39A5DE30e57443BfF2A8307A4256c8797A3497",
    18
  ],
  "numDeployments": 1,
  "solcInputHash": "5ca2ad91017a828e368ec3008a413fcd",
  "bytecode": "0x6101006040523480156200001257600080fd5b50604051620008e9380380620008e9833981016040819052620000359162000137565b8181846020815111806200004857508051155b15620000705760405163c82fc46560e01b815261ea6a60048201526024015b60405180910390fd5b602001516080526001600160a01b038216158062000091575060068160ff16105b15620000b55760405163c82fc46560e01b815261eac6600482015260240162000067565b6001600160a01b03821660c05260ff811660e052620000d660068262000247565b620000e390600a62000366565b60a052506200037e9350505050565b634e487b7160e01b600052604160045260246000fd5b80516001600160a01b03811681146200012057600080fd5b919050565b805160ff811681146200012057600080fd5b6000806000606084860312156200014d57600080fd5b83516001600160401b03808211156200016557600080fd5b818601915086601f8301126200017a57600080fd5b8151818111156200018f576200018f620000f2565b604051601f8201601f19908116603f01168101908382118183101715620001ba57620001ba620000f2565b81604052828152602093508984848701011115620001d757600080fd5b600091505b82821015620001fb5784820184015181830185015290830190620001dc565b60008484830101528097505050506200021681870162000108565b93505050620002286040850162000125565b90509250925092565b634e487b7160e01b600052601160045260246000fd5b60ff828116828216039081111562000263576200026362000231565b92915050565b600181815b80851115620002aa5781600019048211156200028e576200028e62000231565b808516156200029c57918102915b93841c93908002906200026e565b509250929050565b600082620002c35750600162000263565b81620002d25750600062000263565b8160018114620002eb5760028114620002f65762000316565b600191505062000263565b60ff8411156200030a576200030a62000231565b50506001821b62000263565b5060208310610133831016604e8410600b84101617156200033b575081810a62000263565b62000347838362000269565b80600019048211156200035e576200035e62000231565b029392505050565b60006200037760ff841683620002b2565b9392505050565b60805160a05160c05160e051610524620003c5600039600061010901526000818160e40152610312015260006102db015260008181610150015261021501526105246000f3fe608060405234801561001057600080fd5b50600436106100675760003560e01c8063abd5f95d11610050578063abd5f95d146100bf578063e6aa216c146100a9578063f3190c89146100a957600080fd5b806330f42b661461006c5780638e7bfbc0146100a9575b600080fd5b6100746100d4565b6040805193845273ffffffffffffffffffffffffffffffffffffffff9092166020840152908201526060015b60405180910390f35b6100b161012f565b6040519081526020016100a0565b6100c761013e565b6040516100a09190610387565b60008060006100e16102a3565b937f0000000000000000000000000000000000000000000000000000000000000000935060ff7f00000000000000000000000000000000000000000000000000000000000000001692509050565b60006101396102a3565b905090565b606060005b6020811080156101a957507f00000000000000000000000000000000000000000000000000000000000000008160208110610180576101806103f3565b1a60f81b7fff000000000000000000000000000000000000000000000000000000000000001615155b156101c057806101b881610451565b915050610143565b60008167ffffffffffffffff8111156101db576101db610489565b6040519080825280601f01601f191660200182016040528015610205576020820181803683370190505b50905060005b8281101561029c577f00000000000000000000000000000000000000000000000000000000000000008160208110610245576102456103f3565b1a60f81b82828151811061025b5761025b6103f3565b60200101907effffffffffffffffffffffffffffffffffffffffffffffffffffffffffffff1916908160001a9053508061029481610451565b91505061020b565b5092915050565b6040517f07a2d13a00000000000000000000000000000000000000000000000000000000815266038d7ea4c6800060048201526000907f00000000000000000000000000000000000000000000000000000000000000009073ffffffffffffffffffffffffffffffffffffffff7f000000000000000000000000000000000000000000000000000000000000000016906307a2d13a90602401602060405180830381865afa158015610359573d6000803e3d6000fd5b505050506040513d601f19601f8201168201806040525081019061037d91906104b8565b61013991906104d1565b600060208083528351808285015260005b818110156103b457858101830151858201604001528201610398565b5060006040828601015260407fffffffffffffffffffffffffffffffffffffffffffffffffffffffffffffffe0601f8301168501019250505092915050565b7f4e487b7100000000000000000000000000000000000000000000000000000000600052603260045260246000fd5b7f4e487b7100000000000000000000000000000000000000000000000000000000600052601160045260246000fd5b60007fffffffffffffffffffffffffffffffffffffffffffffffffffffffffffffffff820361048257610482610422565b5060010190565b7f4e487b7100000000000000000000000000000000000000000000000000000000600052604160045260246000fd5b6000602082840312156104ca57600080fd5b5051919050565b80820281158282048414176104e8576104e8610422565b9291505056fea2646970667358221220f003c842dd1997e0807a561f4bac8baee89ed879d2fdf5ad2d9c16b4457c825364736f6c63430008150033",
  "devdoc": {
    "kind": "dev",
    "methods": {
      "getExchangeRate()": {
        "details": "Deprecated. Use `getExchangeRateOperate()` and `getExchangeRateLiquidate()` instead. Only implemented for      backwards compatibility."
      }
    },
    "title": "SUSDeOracle",
    "version": 1
  },
  "userdoc": {
    "kind": "user",
    "methods": {
      "constructor": {
        "notice": "constructor sets the sUSDe `sUSDe_` token address and calculates scaling for exchange rate based on `debtTokenDecimals_` (token decimals of debt token, e.g. of USDC / USDT = 6)"
      },
      "getExchangeRateLiquidate()": {
        "notice": "Get the `exchangeRate_` between the underlying asset and the peg asset in 1e27 for liquidations"
      },
      "getExchangeRateOperate()": {
        "notice": "Get the `exchangeRate_` between the underlying asset and the peg asset in 1e27 for operates"
      },
      "infoName()": {
        "notice": "helper string to easily identify the oracle. E.g. token symbols"
      },
      "sUSDeOracleData()": {
        "notice": "returns all sUSDe oracle related data as utility for easy off-chain use / block explorer in a single view method"
      }
    },
    "notice": "Gets the exchange rate between sUSDe and USDe directly from the sUSDe contract, adjusted for decimals          of a debt token (get amount of debt token for 1 sUSDe).",
    "version": 1
  },
  "storageLayout": {
    "storage": [],
    "types": null
  }
}