{
  "address": "0x122Bd7fBacef5d42CB178CbA71DF03D03d3E8821",
  "abi": [
    {
      "inputs": [
        {
          "internalType": "string",
          "name": "infoName_",
          "type": "string"
        },
        {
          "components": [
            {
              "components": [
                {
                  "internalType": "contract IUniswapV3Pool",
                  "name": "pool",
                  "type": "address"
                },
                {
                  "internalType": "bool",
                  "name": "invertRate",
                  "type": "bool"
                },
                {
                  "internalType": "uint256[3]",
                  "name": "tWAPMaxDeltaPercents",
                  "type": "uint256[3]"
                },
                {
                  "internalType": "uint32[5]",
                  "name": "secondsAgos",
                  "type": "uint32[5]"
                }
              ],
              "internalType": "struct UniV3OracleImpl.UniV3ConstructorParams",
              "name": "uniV3Params",
              "type": "tuple"
            },
            {
              "components": [
                {
                  "internalType": "uint8",
                  "name": "hops",
                  "type": "uint8"
                },
                {
                  "components": [
                    {
                      "internalType": "contract IChainlinkAggregatorV3",
                      "name": "feed",
                      "type": "address"
                    },
                    {
                      "internalType": "bool",
                      "name": "invertRate",
                      "type": "bool"
                    },
                    {
                      "internalType": "uint256",
                      "name": "token0Decimals",
                      "type": "uint256"
                    }
                  ],
                  "internalType": "struct ChainlinkStructs.ChainlinkFeedData",
                  "name": "feed1",
                  "type": "tuple"
                },
                {
                  "components": [
                    {
                      "internalType": "contract IChainlinkAggregatorV3",
                      "name": "feed",
                      "type": "address"
                    },
                    {
                      "internalType": "bool",
                      "name": "invertRate",
                      "type": "bool"
                    },
                    {
                      "internalType": "uint256",
                      "name": "token0Decimals",
                      "type": "uint256"
                    }
                  ],
                  "internalType": "struct ChainlinkStructs.ChainlinkFeedData",
                  "name": "feed2",
                  "type": "tuple"
                },
                {
                  "components": [
                    {
                      "internalType": "contract IChainlinkAggregatorV3",
                      "name": "feed",
                      "type": "address"
                    },
                    {
                      "internalType": "bool",
                      "name": "invertRate",
                      "type": "bool"
                    },
                    {
                      "internalType": "uint256",
                      "name": "token0Decimals",
                      "type": "uint256"
                    }
                  ],
                  "internalType": "struct ChainlinkStructs.ChainlinkFeedData",
                  "name": "feed3",
                  "type": "tuple"
                }
              ],
              "internalType": "struct ChainlinkStructs.ChainlinkConstructorParams",
              "name": "chainlinkParams",
              "type": "tuple"
            },
            {
              "components": [
                {
                  "internalType": "contract IRedstoneOracle",
                  "name": "oracle",
                  "type": "address"
                },
                {
                  "internalType": "bool",
                  "name": "invertRate",
                  "type": "bool"
                },
                {
                  "internalType": "uint256",
                  "name": "token0Decimals",
                  "type": "uint256"
                }
              ],
              "internalType": "struct RedstoneStructs.RedstoneOracleData",
              "name": "redstoneOracle",
              "type": "tuple"
            },
            {
              "internalType": "uint8",
              "name": "rateSource",
              "type": "uint8"
            },
            {
              "internalType": "uint8",
              "name": "fallbackMainSource",
              "type": "uint8"
            },
            {
              "internalType": "uint256",
              "name": "rateCheckMaxDeltaPercent",
              "type": "uint256"
            }
          ],
          "internalType": "struct UniV3CheckCLRSOracle.UniV3CheckCLRSConstructorParams",
          "name": "params_",
          "type": "tuple"
        }
      ],
      "stateMutability": "nonpayable",
      "type": "constructor"
    },
    {
      "inputs": [
        {
          "internalType": "uint256",
          "name": "errorId_",
          "type": "uint256"
        }
      ],
      "name": "FluidOracleError",
      "type": "error"
    },
    {
      "inputs": [],
      "name": "chainlinkOracleData",
      "outputs": [
        {
          "internalType": "uint256",
          "name": "chainlinkExchangeRate_",
          "type": "uint256"
        },
        {
          "internalType": "contract IChainlinkAggregatorV3",
          "name": "chainlinkFeed1_",
          "type": "address"
        },
        {
          "internalType": "bool",
          "name": "chainlinkInvertRate1_",
          "type": "bool"
        },
        {
          "internalType": "uint256",
          "name": "chainlinkExchangeRate1_",
          "type": "uint256"
        },
        {
          "internalType": "contract IChainlinkAggregatorV3",
          "name": "chainlinkFeed2_",
          "type": "address"
        },
        {
          "internalType": "bool",
          "name": "chainlinkInvertRate2_",
          "type": "bool"
        },
        {
          "internalType": "uint256",
          "name": "chainlinkExchangeRate2_",
          "type": "uint256"
        },
        {
          "internalType": "contract IChainlinkAggregatorV3",
          "name": "chainlinkFeed3_",
          "type": "address"
        },
        {
          "internalType": "bool",
          "name": "chainlinkInvertRate3_",
          "type": "bool"
        },
        {
          "internalType": "uint256",
          "name": "chainlinkExchangeRate3_",
          "type": "uint256"
        }
      ],
      "stateMutability": "view",
      "type": "function"
    },
    {
      "inputs": [],
      "name": "getExchangeRate",
      "outputs": [
        {
          "internalType": "uint256",
          "name": "exchangeRate_",
          "type": "uint256"
        }
      ],
      "stateMutability": "view",
      "type": "function"
    },
    {
      "inputs": [],
      "name": "getExchangeRateLiquidate",
      "outputs": [
        {
          "internalType": "uint256",
          "name": "exchangeRate_",
          "type": "uint256"
        }
      ],
      "stateMutability": "view",
      "type": "function"
    },
    {
      "inputs": [],
      "name": "getExchangeRateOperate",
      "outputs": [
        {
          "internalType": "uint256",
          "name": "exchangeRate_",
          "type": "uint256"
        }
      ],
      "stateMutability": "view",
      "type": "function"
    },
    {
      "inputs": [],
      "name": "infoName",
      "outputs": [
        {
          "internalType": "string",
          "name": "",
          "type": "string"
        }
      ],
      "stateMutability": "view",
      "type": "function"
    },
    {
      "inputs": [],
      "name": "redstoneOracleData",
      "outputs": [
        {
          "internalType": "uint256",
          "name": "redstoneExchangeRate_",
          "type": "uint256"
        },
        {
          "internalType": "contract IRedstoneOracle",
          "name": "redstoneOracle_",
          "type": "address"
        },
        {
          "internalType": "bool",
          "name": "redstoneInvertRate_",
          "type": "bool"
        }
      ],
      "stateMutability": "view",
      "type": "function"
    },
    {
      "inputs": [],
      "name": "uniV3CheckOracleData",
      "outputs": [
        {
          "internalType": "uint256",
          "name": "rateCheckMaxDelta_",
          "type": "uint256"
        },
        {
          "internalType": "uint256",
          "name": "rateSource_",
          "type": "uint256"
        },
        {
          "internalType": "uint256",
          "name": "fallbackMainSource_",
          "type": "uint256"
        }
      ],
      "stateMutability": "view",
      "type": "function"
    },
    {
      "inputs": [],
      "name": "uniV3OracleData",
      "outputs": [
        {
          "internalType": "contract IUniswapV3Pool",
          "name": "uniV3Pool_",
          "type": "address"
        },
        {
          "internalType": "bool",
          "name": "uniV3InvertRate_",
          "type": "bool"
        },
        {
          "internalType": "uint32[]",
          "name": "uniV3secondsAgos_",
          "type": "uint32[]"
        },
        {
          "internalType": "uint256[]",
          "name": "uniV3TwapDeltas_",
          "type": "uint256[]"
        },
        {
          "internalType": "uint256",
          "name": "uniV3exchangeRateUnsafe_",
          "type": "uint256"
        },
        {
          "internalType": "uint256",
          "name": "uniV3exchangeRate_",
          "type": "uint256"
        }
      ],
      "stateMutability": "view",
      "type": "function"
    }
  ],
  "transactionHash": "0x957720bda65a6986ca19ccea14584d6debb02d6b74eac26676c0d414294f31e4",
  "args": [
    "ETH for 1 USDC",
    {
      "chainlinkParams": {
        "hops": 1,
        "feed1": {
          "feed": "0x986b5e1e1755e3c2440e960477f25201b0a8bbd4",
          "invertRate": false,
          "token0Decimals": 6
        },
        "feed2": {
          "feed": "0x0000000000000000000000000000000000000000",
          "invertRate": false,
          "token0Decimals": 0
        },
        "feed3": {
          "feed": "0x0000000000000000000000000000000000000000",
          "invertRate": false,
          "token0Decimals": 0
        }
      },
      "uniV3Params": {
        "pool": "0x88e6a0c2ddd26feeb64f039a2c41296fcb3f5640",
        "secondsAgos": [
          240,
          60,
          15,
          1,
          0
        ],
        "tWAPMaxDeltaPercents": [
          200,
          50,
          20
        ],
        "invertRate": false
      },
      "redstoneOracle": {
        "oracle": "0x0000000000000000000000000000000000000000",
        "invertRate": false,
        "token0Decimals": 0
      },
      "rateSource": 2,
      "fallbackMainSource": 1,
      "rateCheckMaxDeltaPercent": 300
    }
  ],
  "numDeployments": 1,
  "solcInputHash": "615cdf5f4b42e16593da2ccb697e2c30",
  "bytecode": "0x61052060405261dead610320523480156200001957600080fd5b5060405162003861380380620038618339810160408190526200003c9162000aea565b608081015160208201516040830151805182906001600160a01b03161562000065578162000091565b6040518060600160405280610320516001600160a01b0316815260200160001515815260200160018152505b856000015187602081511180620000a757508051155b15620000cf5760405163c82fc46560e01b815261ea6a60048201526024015b60405180910390fd5b6020015160805280516001600160a01b0316620001045760405163c82fc46560e01b815261f2316004820152602401620000c6565b60608101516020810151905163ffffffff91821691161115806200014457506060810151604081015163ffffffff16906001602002015163ffffffff1611155b806200016c57506060818101519081015163ffffffff16906002602002015163ffffffff1611155b806200019457506060810151608081015163ffffffff16906003602002015163ffffffff1611155b15620001b85760405163c82fc46560e01b815261f2326004820152602401620000c6565b604081015151612710111580620001d9575060408101518051602090910151115b80620001f057506040818101516020810151910151115b15620002145760405163c82fc46560e01b815261f2336004820152602401620000c6565b606081810180515163ffffffff90811661014052815160209081015182166101605282516040015182166101805282519093015181166101a052815160800151166101c052519081015190516200026c919062000bcb565b63ffffffff166101e0526060810151604081015160209091015162000292919062000bcb565b63ffffffff166102005260608181015190810151604090910151620002b8919062000bcb565b63ffffffff16610220526060818101516080810151910151620002dc919062000bcb565b63ffffffff1661024052604081810180515160e0528051602090810151610100529051909101516101205281516001600160a01b031660a052810151151560c0526200032b601b600a62000cf1565b610260526200033d601b600262000d06565b6200034a90600a62000cf1565b610280525080516001600160a01b031615806200036957506040810151155b156200038d5760405163c82fc46560e01b815261fa016004820152602401620000c6565b80516001600160a01b039081166102a052602082015115156102c0526103205182518216911614620003de576040810151620003cb90601b62000d20565b620003d890600a62000cf1565b620003e1565b60015b6102e0526103205181516001600160a01b03908116911614620004235760408101516200041090601b62000d36565b6200041d90600a62000cf1565b62000426565b60015b61030052508051600160ff90911610806200044857506003816000015160ff16115b806200047157506020810151516001600160a01b03161580620004715750602081015160400151155b80620004ac57506001816000015160ff16118015620004ac57506040810151516001600160a01b03161580620004ac57506040808201510151155b80620004e857506002816000015160ff16118015620004e857506060810151516001600160a01b03161580620004e85750606081015160400151155b156200050c5760405163c82fc46560e01b815261ee496004820152602401620000c6565b60208082018051516001600160a01b039081166103405260408085018051518316610360526060860180515190931661038052835185015115156103a0525184015115156103c05290519092015115156103e0525101516200057090601b62000d20565b6200057d90600a62000cf1565b610400526020810151604001516200059790601b62000d36565b620005a490600a62000cf1565b610420528051600160ff90911611620005bf576001620005e1565b6040808201510151620005d490601b62000d20565b620005e190600a62000cf1565b610440528051600160ff90911611620005fc5760016200061e565b60408082015101516200061190601b62000d36565b6200061e90600a62000cf1565b610460528051600260ff90911611620006395760016200065c565b6060810151604001516200064f90601b62000d20565b6200065c90600a62000cf1565b610480528051600260ff90911611620006775760016200069a565b6060810151604001516200068d90601b62000d36565b6200069a90600a62000cf1565b6104a05250600160ff84161080620006b5575060038360ff16115b15620006d95760405163c82fc46560e01b815261fde96004820152602401620000c6565b505060ff9081166104c05260608201516001911610806200070157506003816060015160ff16115b806200071257506127108160a00151115b80620007385750806080015160ff166001148015620007385750806060015160ff166003145b156200075c5760405163c82fc46560e01b815261ea626004820152602401620000c6565b60a08101516104e0526060015160ff16610500525062000d4c565b634e487b7160e01b600052604160045260246000fd5b604051606081016001600160401b0381118282101715620007b257620007b262000777565b60405290565b604051608081016001600160401b0381118282101715620007b257620007b262000777565b60405160c081016001600160401b0381118282101715620007b257620007b262000777565b604051601f8201601f191681016001600160401b03811182821017156200082d576200082d62000777565b604052919050565b6001600160a01b03811681146200084b57600080fd5b50565b805180151581146200085f57600080fd5b919050565b600082601f8301126200087657600080fd5b60405160a081016001600160401b03811182821017156200089b576200089b62000777565b6040528060a0840185811115620008b157600080fd5b845b81811015620008e157805163ffffffff81168114620008d25760008081fd5b835260209283019201620008b3565b509195945050505050565b805160ff811681146200085f57600080fd5b6000606082840312156200091157600080fd5b6200091b6200078d565b905081516200092a8162000835565b81526200093a602083016200084e565b60208201526040820151604082015292915050565b600061014082840312156200096357600080fd5b6200096d620007b8565b90506200097a82620008ec565b81526200098b8360208401620008fe565b60208201526200099f8360808401620008fe565b6040820152620009b38360e08401620008fe565b606082015292915050565b6000818303610340811215620009d357600080fd5b620009dd620007dd565b915061014080821215620009f057600080fd5b620009fa620007b8565b9150835162000a098162000835565b8252602062000a1a8582016200084e565b8184015285605f86011262000a2e57600080fd5b62000a386200078d565b8060a087018881111562000a4b57600080fd5b604088015b8181101562000a69578051845292840192840162000a50565b5081604087015262000a7c898262000864565b606087015250505082845262000a95868387016200094f565b8185015250505062000aac836102808401620008fe565b604082015262000ac06102e08301620008ec565b606082015262000ad46103008301620008ec565b608082015261032082015160a082015292915050565b600080610360838503121562000aff57600080fd5b82516001600160401b038082111562000b1757600080fd5b818501915085601f83011262000b2c57600080fd5b81518181111562000b415762000b4162000777565b6020915062000b59601f8201601f1916830162000802565b818152878383860101111562000b6e57600080fd5b60005b8281101562000b8e57848101840151828201850152830162000b71565b506000838383010152809550505062000baa86828701620009be565b925050509250929050565b634e487b7160e01b600052601160045260246000fd5b63ffffffff82811682821603908082111562000beb5762000beb62000bb5565b5092915050565b600181815b8085111562000c3357816000190482111562000c175762000c1762000bb5565b8085161562000c2557918102915b93841c939080029062000bf7565b509250929050565b60008262000c4c5750600162000ceb565b8162000c5b5750600062000ceb565b816001811462000c74576002811462000c7f5762000c9f565b600191505062000ceb565b60ff84111562000c935762000c9362000bb5565b50506001821b62000ceb565b5060208310610133831016604e8410600b841016171562000cc4575081810a62000ceb565b62000cd0838362000bf2565b806000190482111562000ce75762000ce762000bb5565b0290505b92915050565b600062000cff838362000c3b565b9392505050565b808202811582820484141762000ceb5762000ceb62000bb5565b8181038181111562000ceb5762000ceb62000bb5565b8082018082111562000ceb5762000ceb62000bb5565b60805160a05160c05160e05161010051610120516101405161016051610180516101a0516101c0516101e05161020051610220516102405161026051610280516102a0516102c0516102e05161030051610320516103405161036051610380516103a0516103c0516103e05161040051610420516104405161046051610480516104a0516104c0516104e051610500516128046200105d6000396000818161013001528181610ea801528181610f230152818161109e0152818161112f01528181611199015261126b01526000818161010b01528181611042015281816111e701526112a501526000818161015801528181611073015281816111040152818161116001528181611892015281816118cb01526119040152600081816104a30152610c770152600081816104820152610c560152600081816103b10152610b800152600081816103900152610b5f0152600081816102c70152610a9d0152600081816102a60152610a7c015260008181610400015281816104610152610c3501526000818161030e0152818161036f0152610b3e015260008181610240015281816102850152610a5b0152600081816103df0152818161044001528181610bc40152610c140152600081816102ed0152818161034e01528181610acd0152610b1d01526000818161021f015281816102640152610a3a015260006104f601526000610e4d01526000610e7c01526000818161059d0152610e2301526000818161052d0152818161057a0152610d7401526000611a24015260006119d80152600081816115c00152611603015260006117d80152600061173f015260006116a6015260008181610741015261148d0152600081816106f301526114670152600081816106a50152611441015260008181610657015261141b01526000818161060901526113f501526000818161082901526117f90152600081816107e901526117600152600081816107a901526116c701526000818161088a015281816113780152611843015260008181610869015281816112e101526114d00152600081816108e001526109a501526128046000f3fe608060405234801561001057600080fd5b50600436106100885760003560e01c8063a6ac91341161005b578063a6ac9134146101d7578063abd5f95d146101f1578063e6aa216c146101c1578063f3190c89146101c157600080fd5b80637557ca411461008d5780637cebd7c51461010557806388c35209146101875780638e7bfbc0146101c1575b600080fd5b610095610206565b604080519a8b5273ffffffffffffffffffffffffffffffffffffffff998a1660208c0152971515978a01979097526060890195909552928616608088015290151560a087015260c086015290921660e0840152901515610100830152610120820152610140015b60405180910390f35b604080517f0000000000000000000000000000000000000000000000000000000000000000815260ff7f0000000000000000000000000000000000000000000000000000000000000000811660208301527f000000000000000000000000000000000000000000000000000000000000000016918101919091526060016100fc565b61018f6104ef565b6040805193845273ffffffffffffffffffffffffffffffffffffffff90921660208401521515908201526060016100fc565b6101c96105c2565b6040519081526020016100fc565b6101df6105d1565b6040516100fc9695949392919061215f565b6101f96108ce565b6040516100fc9190612214565b60008060008060008060008060008061021d610a33565b7f00000000000000000000000000000000000000000000000000000000000000007f00000000000000000000000000000000000000000000000000000000000000006102eb7f00000000000000000000000000000000000000000000000000000000000000007f00000000000000000000000000000000000000000000000000000000000000007f00000000000000000000000000000000000000000000000000000000000000007f0000000000000000000000000000000000000000000000000000000000000000610caf565b7f00000000000000000000000000000000000000000000000000000000000000007f000000000000000000000000000000000000000000000000000000000000000073ffffffffffffffffffffffffffffffffffffffff8216156103da576103d57f00000000000000000000000000000000000000000000000000000000000000007f00000000000000000000000000000000000000000000000000000000000000007f00000000000000000000000000000000000000000000000000000000000000007f0000000000000000000000000000000000000000000000000000000000000000610caf565b6103dd565b60005b7f00000000000000000000000000000000000000000000000000000000000000007f000000000000000000000000000000000000000000000000000000000000000073ffffffffffffffffffffffffffffffffffffffff8216156104cc576104c77f00000000000000000000000000000000000000000000000000000000000000007f00000000000000000000000000000000000000000000000000000000000000007f00000000000000000000000000000000000000000000000000000000000000007f0000000000000000000000000000000000000000000000000000000000000000610caf565b6104cf565b60005b995099509950995099509950995099509950995090919293949596979899565b60008060007f000000000000000000000000000000000000000000000000000000000000000073ffffffffffffffffffffffffffffffffffffffff167f000000000000000000000000000000000000000000000000000000000000000073ffffffffffffffffffffffffffffffffffffffff16146105745761056f610d70565b610577565b60005b937f000000000000000000000000000000000000000000000000000000000000000093507f000000000000000000000000000000000000000000000000000000000000000092509050565b60006105cc610ea4565b905090565b60008060608082806005604051908082528060200260200182016040528015610604578160200160208202803683370190505b5093507f00000000000000000000000000000000000000000000000000000000000000008460008151811061063b5761063b612294565b602002602001019063ffffffff16908163ffffffff16815250507f00000000000000000000000000000000000000000000000000000000000000008460018151811061068957610689612294565b602002602001019063ffffffff16908163ffffffff16815250507f0000000000000000000000000000000000000000000000000000000000000000846002815181106106d7576106d7612294565b602002602001019063ffffffff16908163ffffffff16815250507f00000000000000000000000000000000000000000000000000000000000000008460038151811061072557610725612294565b602002602001019063ffffffff16908163ffffffff16815250507f00000000000000000000000000000000000000000000000000000000000000008460048151811061077357610773612294565b63ffffffff92909216602092830291909101820152604080516003808252608082019092529182016060803683370190505092507f0000000000000000000000000000000000000000000000000000000000000000836000815181106107db576107db612294565b6020026020010181815250507f00000000000000000000000000000000000000000000000000000000000000008360018151811061081b5761081b612294565b6020026020010181815250507f00000000000000000000000000000000000000000000000000000000000000008360028151811061085b5761085b612294565b6020026020010181815250507f00000000000000000000000000000000000000000000000000000000000000007f000000000000000000000000000000000000000000000000000000000000000085856108b36112dc565b6108bb6113ba565b949b939a50919850965094509092509050565b606060005b60208110801561093957507f0000000000000000000000000000000000000000000000000000000000000000816020811061091057610910612294565b1a60f81b7fff000000000000000000000000000000000000000000000000000000000000001615155b156109505780610948816122f2565b9150506108d3565b60008167ffffffffffffffff81111561096b5761096b612265565b6040519080825280601f01601f191660200182016040528015610995576020820181803683370190505b50905060005b82811015610a2c577f000000000000000000000000000000000000000000000000000000000000000081602081106109d5576109d5612294565b1a60f81b8282815181106109eb576109eb612294565b60200101907effffffffffffffffffffffffffffffffffffffffffffffffffffffffffffff1916908160001a90535080610a24816122f2565b91505061099b565b5092915050565b6000610ac17f00000000000000000000000000000000000000000000000000000000000000007f00000000000000000000000000000000000000000000000000000000000000007f00000000000000000000000000000000000000000000000000000000000000007f0000000000000000000000000000000000000000000000000000000000000000610caf565b9050801580610b0457507f000000000000000000000000000000000000000000000000000000000000000073ffffffffffffffffffffffffffffffffffffffff16155b15610b0c5790565b610b18601b600a61244a565b610ba47f00000000000000000000000000000000000000000000000000000000000000007f00000000000000000000000000000000000000000000000000000000000000007f00000000000000000000000000000000000000000000000000000000000000007f0000000000000000000000000000000000000000000000000000000000000000610caf565b610bae9083612456565b610bb8919061249c565b9050801580610bfb57507f000000000000000000000000000000000000000000000000000000000000000073ffffffffffffffffffffffffffffffffffffffff16155b15610c035790565b610c0f601b600a61244a565b610c9b7f00000000000000000000000000000000000000000000000000000000000000007f00000000000000000000000000000000000000000000000000000000000000007f00000000000000000000000000000000000000000000000000000000000000007f0000000000000000000000000000000000000000000000000000000000000000610caf565b610ca59083612456565b6105cc919061249c565b60008473ffffffffffffffffffffffffffffffffffffffff1663feaf968c6040518163ffffffff1660e01b815260040160a060405180830381865afa925050508015610d36575060408051601f3d9081017fffffffffffffffffffffffffffffffffffffffffffffffffffffffffffffffe0168201909252610d33918101906124cf565b60015b610d4257506000610d68565b8815610d5e57610d52848861249c565b95505050505050610d68565b610d528885612456565b949350505050565b60007f000000000000000000000000000000000000000000000000000000000000000073ffffffffffffffffffffffffffffffffffffffff1663e6aa216c6040518163ffffffff1660e01b8152600401602060405180830381865afa925050508015610e17575060408051601f3d9081017fffffffffffffffffffffffffffffffffffffffffffffffffffffffffffffffe0168201909252610e149181019061251f565b60015b610e215750600090565b7f000000000000000000000000000000000000000000000000000000000000000015610e7757610e71817f000000000000000000000000000000000000000000000000000000000000000061249c565b91505090565b610e717f000000000000000000000000000000000000000000000000000000000000000082612456565b90565b60007f000000000000000000000000000000000000000000000000000000000000000060ff16600103610f1e57610ed96113ba565b905080600003610ea1576040517fc82fc46500000000000000000000000000000000000000000000000000000000815261ea6360048201526024015b60405180910390fd5b6000807f000000000000000000000000000000000000000000000000000000000000000060ff16600203610fcb57610f546113ba565b925082600003610fab57610f6661187b565b925082600003610fa6576040517fc82fc46500000000000000000000000000000000000000000000000000000000815261ea636004820152602401610f15565b505090565b610fb36118c6565b90925090506000829003610fc657505090565b61103b565b610fd36118c6565b9093509050610fe06113ba565b91508260000361102e5781600003611028576040517fc82fc46500000000000000000000000000000000000000000000000000000000815261ea636004820152602401610f15565b50919050565b8160000361103b57505090565b61106683837f000000000000000000000000000000000000000000000000000000000000000061196b565b15610fa6578015611102577f000000000000000000000000000000000000000000000000000000000000000060ff166003036110cc577f000000000000000000000000000000000000000000000000000000000000000060ff1660021461102857505090565b6040517fc82fc46500000000000000000000000000000000000000000000000000000000815261ea616004820152602401610f15565b7f000000000000000000000000000000000000000000000000000000000000000060ff1660010361115e577f000000000000000000000000000000000000000000000000000000000000000060ff16600203610fa65750919050565b7f000000000000000000000000000000000000000000000000000000000000000060ff1660020361121f576000611193610d70565b905060007f000000000000000000000000000000000000000000000000000000000000000060ff166002036111cb57509182906111d0565b509283905b816000036111e057949350505050565b61120b85857f000000000000000000000000000000000000000000000000000000000000000061196b565b1561121857949350505050565b5050505090565b6000611229610a33565b905080600003611269576040517fc82fc46500000000000000000000000000000000000000000000000000000000815261ea616004820152602401610f15565b7f000000000000000000000000000000000000000000000000000000000000000060ff1660030361129b579392505050565b8092506112c984847f000000000000000000000000000000000000000000000000000000000000000061196b565b156112d657509092915050565b50505090565b6000807f000000000000000000000000000000000000000000000000000000000000000073ffffffffffffffffffffffffffffffffffffffff16633850c7bd6040518163ffffffff1660e01b815260040160e060405180830381865afa15801561134a573d6000803e3d6000fd5b505050506040513d601f19601f8201168201806040525081019061136e919061255a565b50505050505090507f00000000000000000000000000000000000000000000000000000000000000006113a9576113a4816119b1565b610e71565b610e716113b5826119b1565b611a1c565b6040517f883bdbfd000000000000000000000000000000000000000000000000000000006020808301919091526024820152600560448201527f000000000000000000000000000000000000000000000000000000000000000060648201527f000000000000000000000000000000000000000000000000000000000000000060848201527f000000000000000000000000000000000000000000000000000000000000000060a48201527f000000000000000000000000000000000000000000000000000000000000000060c48201527f000000000000000000000000000000000000000000000000000000000000000060e482015260009081906101040160405160208183030381529060405290506000807f000000000000000000000000000000000000000000000000000000000000000073ffffffffffffffffffffffffffffffffffffffff1683604051611513919061260d565b600060405180830381855afa9150503d806000811461154e576040519150601f19603f3d011682016040523d82523d6000602084013e611553565b606091505b509150915081611567576000935050505090565b60008180602001905181019061157d919061263b565b90506000808260038151811061159557611595612294565b6020026020010151836003600101815181106115b3576115b3612294565b60200260200101510390507f00000000000000000000000000000000000000000000000000000000000000008160060b816115f0576115f061246d565b05915060008160060b12801561163757507f00000000000000000000000000000000000000000000000000000000000000008160060b816116335761163361246d565b0715155b15611662577fffffffffffffffffffffffffffffffffffffffffffffffffffffffffffffffff909101905b506116eb8160020b8360008151811061167d5761167d612294565b60200260200101518460018151811061169857611698612294565b60200260200101510360060b7f00000000000000000000000000000000000000000000000000000000000000007f0000000000000000000000000000000000000000000000000000000000000000611a48565b156116fc5760009550505050505090565b6117848160020b8360018151811061171657611716612294565b60200260200101518460028151811061173157611731612294565b60200260200101510360060b7f00000000000000000000000000000000000000000000000000000000000000007f0000000000000000000000000000000000000000000000000000000000000000611a48565b156117955760009550505050505090565b61181d8160020b836002815181106117af576117af612294565b6020026020010151846003815181106117ca576117ca612294565b60200260200101510360060b7f00000000000000000000000000000000000000000000000000000000000000007f0000000000000000000000000000000000000000000000000000000000000000611a48565b1561182e5760009550505050505090565b61183f61183a82611acf565b6119b1565b95507f0000000000000000000000000000000000000000000000000000000000000000156118735761187086611a1c565b95505b505050505090565b6000611885610a33565b9050801580156118b957507f000000000000000000000000000000000000000000000000000000000000000060ff16600114155b15610ea1576105cc610d70565b6000807f000000000000000000000000000000000000000000000000000000000000000060ff16600103611902576118fc610a33565b91509091565b7f000000000000000000000000000000000000000000000000000000000000000060ff1660020361194e57611935610a33565b91508160000361194a575060016118fc610d70565b9091565b611956610d70565b91508160000361194a575060016118fc610a33565b60008061271061197b8486612456565b611985919061249c565b9050611991818561271e565b8511806119a657506119a38185612731565b85105b9150505b9392505050565b6000611a166119d673ffffffffffffffffffffffffffffffffffffffff841680612456565b7f00000000000000000000000000000000000000000000000000000000000000007801000000000000000000000000000000000000000000000000611f64565b92915050565b6000611a16827f000000000000000000000000000000000000000000000000000000000000000061249c565b600080838581611a5a57611a5a61246d565b059050600085128015611a7b5750838581611a7757611a7761246d565b0715155b15611aa3577fffffffffffffffffffffffffffffffffffffffffffffffffffffffffffffffff015b828101861380611ab4575082810386125b15611ac3576001915050610d68565b50600095945050505050565b60008060008360020b12611ae6578260020b611af3565b8260020b611af390612744565b9050611b1e7ffffffffffffffffffffffffffffffffffffffffffffffffffffffffffff2761861277c565b60020b811115611b8a576040517f08c379a000000000000000000000000000000000000000000000000000000000815260206004820152600160248201527f54000000000000000000000000000000000000000000000000000000000000006044820152606401610f15565b600081600116600003611bae57700100000000000000000000000000000000611bc0565b6ffffcb933bd6fad37aa2d162d1a5940015b70ffffffffffffffffffffffffffffffffff1690506002821615611bff576080611bfa826ffff97272373d413259a46990580e213a612456565b901c90505b6004821615611c29576080611c24826ffff2e50f5f656932ef12357cf3c7fdcc612456565b901c90505b6008821615611c53576080611c4e826fffe5caca7e10e4e61c3624eaa0941cd0612456565b901c90505b6010821615611c7d576080611c78826fffcb9843d60f6159c9db58835c926644612456565b901c90505b6020821615611ca7576080611ca2826fff973b41fa98c081472e6896dfb254c0612456565b901c90505b6040821615611cd1576080611ccc826fff2ea16466c96a3843ec78b326b52861612456565b901c90505b6080821615611cfb576080611cf6826ffe5dee046a99a2a811c461f1969c3053612456565b901c90505b610100821615611d26576080611d21826ffcbe86c7900a88aedcffc83b479aa3a4612456565b901c90505b610200821615611d51576080611d4c826ff987a7253ac413176f2b074cf7815e54612456565b901c90505b610400821615611d7c576080611d77826ff3392b0822b70005940c7a398e4b70f3612456565b901c90505b610800821615611da7576080611da2826fe7159475a2c29b7443b29c7fa6e889d9612456565b901c90505b611000821615611dd2576080611dcd826fd097f3bdfd2022b8845ad8f792aa5825612456565b901c90505b612000821615611dfd576080611df8826fa9f746462d870fdf8a65dc1f90e061e5612456565b901c90505b614000821615611e28576080611e23826f70d869a156d2a1b890bb3df62baf32f7612456565b901c90505b618000821615611e53576080611e4e826f31be135f97d08fd981231505542fcfa6612456565b901c90505b62010000821615611e7f576080611e7a826f09aa508b5b7a84e1c677de54f3e99bc9612456565b901c90505b62020000821615611eaa576080611ea5826e5d6af8dedb81196699c329225ee604612456565b901c90505b62040000821615611ed4576080611ecf826d2216e584f5fa1ea926041bedfe98612456565b901c90505b62080000821615611efc576080611ef7826b048a170391f7dc42444e8fa2612456565b901c90505b60008460020b1315611f3557611f32817fffffffffffffffffffffffffffffffffffffffffffffffffffffffffffffffff61249c565b90505b611f44640100000000826127ba565b15611f50576001611f53565b60005b610d689060ff16602083901c61271e565b600080807fffffffffffffffffffffffffffffffffffffffffffffffffffffffffffffffff85870985870292508281108382030391505080600003611fbb5760008411611fb057600080fd5b5082900490506119aa565b808411611fc757600080fd5b600084868809808403938111909203919050600085612006817fffffffffffffffffffffffffffffffffffffffffffffffffffffffffffffffff612731565b61201190600161271e565b169586900495938490049360008190030460010190506120318184612456565b909317926000612042876003612456565b60021890506120518188612456565b61205c906002612731565b6120669082612456565b90506120728188612456565b61207d906002612731565b6120879082612456565b90506120938188612456565b61209e906002612731565b6120a89082612456565b90506120b48188612456565b6120bf906002612731565b6120c99082612456565b90506120d58188612456565b6120e0906002612731565b6120ea9082612456565b90506120f68188612456565b612101906002612731565b61210b9082612456565b90506121178186612456565b9998505050505050505050565b600081518084526020808501945080840160005b8381101561215457815187529582019590820190600101612138565b509495945050505050565b600060c0820173ffffffffffffffffffffffffffffffffffffffff8916835260208815158185015260c0604085015281885180845260e086019150828a01935060005b818110156121c457845163ffffffff16835293830193918301916001016121a2565b505084810360608601526121d88189612124565b60808601979097525050505060a00152949350505050565b60005b8381101561220b5781810151838201526020016121f3565b50506000910152565b60208152600082518060208401526122338160408501602087016121f0565b601f017fffffffffffffffffffffffffffffffffffffffffffffffffffffffffffffffe0169190910160400192915050565b7f4e487b7100000000000000000000000000000000000000000000000000000000600052604160045260246000fd5b7f4e487b7100000000000000000000000000000000000000000000000000000000600052603260045260246000fd5b7f4e487b7100000000000000000000000000000000000000000000000000000000600052601160045260246000fd5b60007fffffffffffffffffffffffffffffffffffffffffffffffffffffffffffffffff8203612323576123236122c3565b5060010190565b600181815b8085111561238357817fffffffffffffffffffffffffffffffffffffffffffffffffffffffffffffffff04821115612369576123696122c3565b8085161561237657918102915b93841c939080029061232f565b509250929050565b60008261239a57506001611a16565b816123a757506000611a16565b81600181146123bd57600281146123c7576123e3565b6001915050611a16565b60ff8411156123d8576123d86122c3565b50506001821b611a16565b5060208310610133831016604e8410600b8410161715612406575081810a611a16565b612410838361232a565b807fffffffffffffffffffffffffffffffffffffffffffffffffffffffffffffffff04821115612442576124426122c3565b029392505050565b60006119aa838361238b565b8082028115828204841417611a1657611a166122c3565b7f4e487b7100000000000000000000000000000000000000000000000000000000600052601260045260246000fd5b6000826124ab576124ab61246d565b500490565b805169ffffffffffffffffffff811681146124ca57600080fd5b919050565b600080600080600060a086880312156124e757600080fd5b6124f0866124b0565b9450602086015193506040860151925060608601519150612513608087016124b0565b90509295509295909350565b60006020828403121561253157600080fd5b5051919050565b805161ffff811681146124ca57600080fd5b805180151581146124ca57600080fd5b600080600080600080600060e0888a03121561257557600080fd5b875173ffffffffffffffffffffffffffffffffffffffff8116811461259957600080fd5b8097505060208801518060020b81146125b157600080fd5b95506125bf60408901612538565b94506125cd60608901612538565b93506125db60808901612538565b925060a088015160ff811681146125f157600080fd5b91506125ff60c0890161254a565b905092959891949750929550565b6000825161261f8184602087016121f0565b9190910192915050565b8051600681900b81146124ca57600080fd5b6000602080838503121561264e57600080fd5b825167ffffffffffffffff8082111561266657600080fd5b818501915085601f83011261267a57600080fd5b81518181111561268c5761268c612265565b8060051b6040517fffffffffffffffffffffffffffffffffffffffffffffffffffffffffffffffe0603f830116810181811085821117156126cf576126cf612265565b6040529182528482019250838101850191888311156126ed57600080fd5b938501935b828510156127125761270385612629565b845293850193928501926126f2565b98975050505050505050565b80820180821115611a1657611a166122c3565b81810381811115611a1657611a166122c3565b60007f80000000000000000000000000000000000000000000000000000000000000008203612775576127756122c3565b5060000390565b60008160020b7fffffffffffffffffffffffffffffffffffffffffffffffffffffffffff80000081036127b1576127b16122c3565b60000392915050565b6000826127c9576127c961246d565b50069056fea2646970667358221220d87da497db18063e78b5d87ac60103cbd04a225cc7b115b06f5d7d75f891a9ad64736f6c63430008150033",
  "devdoc": {
    "details": "The process for getting the aggregate oracle price is:           1. Fetch the UniV3 TWAPS, the latest interval is used as the current price           2. Verify this price is within an acceptable DELTA from the Uniswap TWAPS e.g.:              a. 240 to 60s              b. 60 to 15s              c. 15 to 1s (last block)              d. 1 to 0s (current)           3. (unless UniV3 only mode): Verify this price is within an acceptable DELTA from the Chainlink / Redstone Oracle           4. If it passes all checks, return the price. Otherwise use fallbacks, usually to Chainlink. In extreme edge-cases revert.For UniV3 with check mode, if fetching the check price fails, the UniV3 rate is used directly.",
    "kind": "dev",
    "methods": {
      "getExchangeRate()": {
        "details": "Deprecated. Use `getExchangeRateOperate()` and `getExchangeRateLiquidate()` instead. Only implemented for      backwards compatibility."
      }
    },
    "stateVariables": {
      "_RATE_CHECK_MAX_DELTA_PERCENT": {
        "details": "Rate check oracle delta percent in 1e2 percent. If current uniswap price is out of this delta, current price fetching reverts."
      },
      "_RATE_SOURCE": {
        "details": "which oracle to use as final rate source:      - 1 = UniV3 ONLY (no check),      - 2 = UniV3 with Chainlink / Redstone check      - 3 = Chainlink / Redstone with UniV3 used as check."
      }
    },
    "title": "UniswapV3 checked against Chainlink / Redstone Oracle. Either one reported as exchange rate.",
    "version": 1
  },
  "userdoc": {
    "kind": "user",
    "methods": {
      "chainlinkOracleData()": {
        "notice": "returns all Chainlink oracle related data as utility for easy off-chain use / block explorer in a single view method"
      },
      "getExchangeRateLiquidate()": {
        "notice": "Get the `exchangeRate_` between the underlying asset and the peg asset in 1e27 for liquidations"
      },
      "getExchangeRateOperate()": {
        "notice": "Get the `exchangeRate_` between the underlying asset and the peg asset in 1e27 for operates"
      },
      "infoName()": {
        "notice": "helper string to easily identify the oracle. E.g. token symbols"
      },
      "redstoneOracleData()": {
        "notice": "returns all Redstone oracle related data as utility for easy off-chain use / block explorer in a single view method"
      },
      "uniV3CheckOracleData()": {
        "notice": "returns all oracle related data as utility for easy off-chain / block explorer use in a single view method"
      },
      "uniV3OracleData()": {
        "notice": "returns all UniV3 oracle related data as utility for easy off-chain use / block explorer in a single view method"
      }
    },
    "notice": "Gets the exchange rate between the underlying asset and the peg asset by using:          the price from a UniV3 pool (compared against 3 TWAPs) and (optionally) comparing it against a Chainlink          or Redstone price (one of Chainlink or Redstone being the main source and the other one the fallback source).          Alternatively it can also use Chainlink / Redstone as main price and use UniV3 as check price.",
    "version": 1
  },
  "storageLayout": {
    "storage": [],
    "types": null
  }
}