{
  "address": "0x8F31451Afa539cAfB92CBd5cdA41DC026f9CDc62",
  "abi": [
    {
      "inputs": [
        {
          "internalType": "contract IFluidVaultResolver",
          "name": "vaultResolver_",
          "type": "address"
        }
      ],
      "stateMutability": "nonpayable",
      "type": "constructor"
    },
    {
      "inputs": [],
      "name": "FluidVaultTicksBranchesResolver__AddressZero",
      "type": "error"
    },
    {
      "inputs": [],
      "name": "VAULT_RESOLVER",
      "outputs": [
        {
          "internalType": "contract IFluidVaultResolver",
          "name": "",
          "type": "address"
        }
      ],
      "stateMutability": "view",
      "type": "function"
    },
    {
      "inputs": [],
      "name": "getAllVaultsBranchesDebt",
      "outputs": [
        {
          "components": [
            {
              "components": [
                {
                  "internalType": "uint256",
                  "name": "debtRaw",
                  "type": "uint256"
                },
                {
                  "internalType": "uint256",
                  "name": "collateralRaw",
                  "type": "uint256"
                },
                {
                  "internalType": "uint256",
                  "name": "debtNormal",
                  "type": "uint256"
                },
                {
                  "internalType": "uint256",
                  "name": "collateralNormal",
                  "type": "uint256"
                },
                {
                  "internalType": "uint256",
                  "name": "branchId",
                  "type": "uint256"
                },
                {
                  "internalType": "uint256",
                  "name": "status",
                  "type": "uint256"
                },
                {
                  "internalType": "int256",
                  "name": "tick",
                  "type": "int256"
                },
                {
                  "internalType": "uint256",
                  "name": "partials",
                  "type": "uint256"
                },
                {
                  "internalType": "uint256",
                  "name": "ratio",
                  "type": "uint256"
                },
                {
                  "internalType": "uint256",
                  "name": "debtFactor",
                  "type": "uint256"
                },
                {
                  "internalType": "uint256",
                  "name": "baseBranchId",
                  "type": "uint256"
                },
                {
                  "internalType": "int256",
                  "name": "baseBranchTick",
                  "type": "int256"
                }
              ],
              "internalType": "struct Structs.BranchDebt[]",
              "name": "branchDebt",
              "type": "tuple[]"
            },
            {
              "internalType": "address",
              "name": "vaultAddress",
              "type": "address"
            },
            {
              "internalType": "uint256",
              "name": "vaultId",
              "type": "uint256"
            }
          ],
          "internalType": "struct Structs.BranchesDebt[]",
          "name": "",
          "type": "tuple[]"
        }
      ],
      "stateMutability": "view",
      "type": "function"
    },
    {
      "inputs": [
        {
          "internalType": "uint256",
          "name": "totalTicks_",
          "type": "uint256"
        }
      ],
      "name": "getAllVaultsTicksDebt",
      "outputs": [
        {
          "components": [
            {
              "components": [
                {
                  "internalType": "uint256",
                  "name": "debtRaw",
                  "type": "uint256"
                },
                {
                  "internalType": "uint256",
                  "name": "collateralRaw",
                  "type": "uint256"
                },
                {
                  "internalType": "uint256",
                  "name": "debtNormal",
                  "type": "uint256"
                },
                {
                  "internalType": "uint256",
                  "name": "collateralNormal",
                  "type": "uint256"
                },
                {
                  "internalType": "uint256",
                  "name": "ratio",
                  "type": "uint256"
                },
                {
                  "internalType": "int256",
                  "name": "tick",
                  "type": "int256"
                }
              ],
              "internalType": "struct Structs.TickDebt[]",
              "name": "tickDebt",
              "type": "tuple[]"
            },
            {
              "internalType": "int256",
              "name": "toTick",
              "type": "int256"
            },
            {
              "internalType": "address",
              "name": "vaultAddress",
              "type": "address"
            },
            {
              "internalType": "uint256",
              "name": "vaultId",
              "type": "uint256"
            }
          ],
          "internalType": "struct Structs.VaultsTickDebt[]",
          "name": "vaultsTickDebt_",
          "type": "tuple[]"
        }
      ],
      "stateMutability": "view",
      "type": "function"
    },
    {
      "inputs": [
        {
          "internalType": "address",
          "name": "vault_",
          "type": "address"
        },
        {
          "internalType": "uint256",
          "name": "fromBranchId_",
          "type": "uint256"
        },
        {
          "internalType": "uint256",
          "name": "toBranchId_",
          "type": "uint256"
        }
      ],
      "name": "getBranchesDebt",
      "outputs": [
        {
          "components": [
            {
              "internalType": "uint256",
              "name": "debtRaw",
              "type": "uint256"
            },
            {
              "internalType": "uint256",
              "name": "collateralRaw",
              "type": "uint256"
            },
            {
              "internalType": "uint256",
              "name": "debtNormal",
              "type": "uint256"
            },
            {
              "internalType": "uint256",
              "name": "collateralNormal",
              "type": "uint256"
            },
            {
              "internalType": "uint256",
              "name": "branchId",
              "type": "uint256"
            },
            {
              "internalType": "uint256",
              "name": "status",
              "type": "uint256"
            },
            {
              "internalType": "int256",
              "name": "tick",
              "type": "int256"
            },
            {
              "internalType": "uint256",
              "name": "partials",
              "type": "uint256"
            },
            {
              "internalType": "uint256",
              "name": "ratio",
              "type": "uint256"
            },
            {
              "internalType": "uint256",
              "name": "debtFactor",
              "type": "uint256"
            },
            {
              "internalType": "uint256",
              "name": "baseBranchId",
              "type": "uint256"
            },
            {
              "internalType": "int256",
              "name": "baseBranchTick",
              "type": "int256"
            }
          ],
          "internalType": "struct Structs.BranchDebt[]",
          "name": "branchesDebt_",
          "type": "tuple[]"
        }
      ],
      "stateMutability": "view",
      "type": "function"
    },
    {
      "inputs": [
        {
          "internalType": "address[]",
          "name": "vaults_",
          "type": "address[]"
        },
        {
          "internalType": "uint256[]",
          "name": "fromBranchIds_",
          "type": "uint256[]"
        },
        {
          "internalType": "uint256[]",
          "name": "toBranchIds_",
          "type": "uint256[]"
        }
      ],
      "name": "getMultipleVaultsBranchesDebt",
      "outputs": [
        {
          "components": [
            {
              "components": [
                {
                  "internalType": "uint256",
                  "name": "debtRaw",
                  "type": "uint256"
                },
                {
                  "internalType": "uint256",
                  "name": "collateralRaw",
                  "type": "uint256"
                },
                {
                  "internalType": "uint256",
                  "name": "debtNormal",
                  "type": "uint256"
                },
                {
                  "internalType": "uint256",
                  "name": "collateralNormal",
                  "type": "uint256"
                },
                {
                  "internalType": "uint256",
                  "name": "branchId",
                  "type": "uint256"
                },
                {
                  "internalType": "uint256",
                  "name": "status",
                  "type": "uint256"
                },
                {
                  "internalType": "int256",
                  "name": "tick",
                  "type": "int256"
                },
                {
                  "internalType": "uint256",
                  "name": "partials",
                  "type": "uint256"
                },
                {
                  "internalType": "uint256",
                  "name": "ratio",
                  "type": "uint256"
                },
                {
                  "internalType": "uint256",
                  "name": "debtFactor",
                  "type": "uint256"
                },
                {
                  "internalType": "uint256",
                  "name": "baseBranchId",
                  "type": "uint256"
                },
                {
                  "internalType": "int256",
                  "name": "baseBranchTick",
                  "type": "int256"
                }
              ],
              "internalType": "struct Structs.BranchDebt[]",
              "name": "branchDebt",
              "type": "tuple[]"
            },
            {
              "internalType": "address",
              "name": "vaultAddress",
              "type": "address"
            },
            {
              "internalType": "uint256",
              "name": "vaultId",
              "type": "uint256"
            }
          ],
          "internalType": "struct Structs.BranchesDebt[]",
          "name": "branchesDebt_",
          "type": "tuple[]"
        }
      ],
      "stateMutability": "view",
      "type": "function"
    },
    {
      "inputs": [
        {
          "internalType": "address[]",
          "name": "vaults_",
          "type": "address[]"
        },
        {
          "internalType": "int256[]",
          "name": "fromTicks_",
          "type": "int256[]"
        },
        {
          "internalType": "uint256[]",
          "name": "totalTicks_",
          "type": "uint256[]"
        }
      ],
      "name": "getMultipleVaultsTicksDebt",
      "outputs": [
        {
          "components": [
            {
              "components": [
                {
                  "internalType": "uint256",
                  "name": "debtRaw",
                  "type": "uint256"
                },
                {
                  "internalType": "uint256",
                  "name": "collateralRaw",
                  "type": "uint256"
                },
                {
                  "internalType": "uint256",
                  "name": "debtNormal",
                  "type": "uint256"
                },
                {
                  "internalType": "uint256",
                  "name": "collateralNormal",
                  "type": "uint256"
                },
                {
                  "internalType": "uint256",
                  "name": "ratio",
                  "type": "uint256"
                },
                {
                  "internalType": "int256",
                  "name": "tick",
                  "type": "int256"
                }
              ],
              "internalType": "struct Structs.TickDebt[]",
              "name": "tickDebt",
              "type": "tuple[]"
            },
            {
              "internalType": "int256",
              "name": "toTick",
              "type": "int256"
            },
            {
              "internalType": "address",
              "name": "vaultAddress",
              "type": "address"
            },
            {
              "internalType": "uint256",
              "name": "vaultId",
              "type": "uint256"
            }
          ],
          "internalType": "struct Structs.VaultsTickDebt[]",
          "name": "vaultsTickDebt_",
          "type": "tuple[]"
        }
      ],
      "stateMutability": "view",
      "type": "function"
    },
    {
      "inputs": [
        {
          "internalType": "address",
          "name": "vault_",
          "type": "address"
        },
        {
          "internalType": "int256",
          "name": "fromTick_",
          "type": "int256"
        },
        {
          "internalType": "uint256",
          "name": "totalTicks_",
          "type": "uint256"
        }
      ],
      "name": "getTicksDebt",
      "outputs": [
        {
          "components": [
            {
              "internalType": "uint256",
              "name": "debtRaw",
              "type": "uint256"
            },
            {
              "internalType": "uint256",
              "name": "collateralRaw",
              "type": "uint256"
            },
            {
              "internalType": "uint256",
              "name": "debtNormal",
              "type": "uint256"
            },
            {
              "internalType": "uint256",
              "name": "collateralNormal",
              "type": "uint256"
            },
            {
              "internalType": "uint256",
              "name": "ratio",
              "type": "uint256"
            },
            {
              "internalType": "int256",
              "name": "tick",
              "type": "int256"
            }
          ],
          "internalType": "struct Structs.TickDebt[]",
          "name": "ticksDebt_",
          "type": "tuple[]"
        },
        {
          "internalType": "int256",
          "name": "toTick_",
          "type": "int256"
        }
      ],
      "stateMutability": "view",
      "type": "function"
    },
    {
      "inputs": [
        {
          "internalType": "address[]",
          "name": "vaults_",
          "type": "address[]"
        }
      ],
      "name": "getVaultsBranchesDebt",
      "outputs": [
        {
          "components": [
            {
              "components": [
                {
                  "internalType": "uint256",
                  "name": "debtRaw",
                  "type": "uint256"
                },
                {
                  "internalType": "uint256",
                  "name": "collateralRaw",
                  "type": "uint256"
                },
                {
                  "internalType": "uint256",
                  "name": "debtNormal",
                  "type": "uint256"
                },
                {
                  "internalType": "uint256",
                  "name": "collateralNormal",
                  "type": "uint256"
                },
                {
                  "internalType": "uint256",
                  "name": "branchId",
                  "type": "uint256"
                },
                {
                  "internalType": "uint256",
                  "name": "status",
                  "type": "uint256"
                },
                {
                  "internalType": "int256",
                  "name": "tick",
                  "type": "int256"
                },
                {
                  "internalType": "uint256",
                  "name": "partials",
                  "type": "uint256"
                },
                {
                  "internalType": "uint256",
                  "name": "ratio",
                  "type": "uint256"
                },
                {
                  "internalType": "uint256",
                  "name": "debtFactor",
                  "type": "uint256"
                },
                {
                  "internalType": "uint256",
                  "name": "baseBranchId",
                  "type": "uint256"
                },
                {
                  "internalType": "int256",
                  "name": "baseBranchTick",
                  "type": "int256"
                }
              ],
              "internalType": "struct Structs.BranchDebt[]",
              "name": "branchDebt",
              "type": "tuple[]"
            },
            {
              "internalType": "address",
              "name": "vaultAddress",
              "type": "address"
            },
            {
              "internalType": "uint256",
              "name": "vaultId",
              "type": "uint256"
            }
          ],
          "internalType": "struct Structs.BranchesDebt[]",
          "name": "branchesDebt_",
          "type": "tuple[]"
        }
      ],
      "stateMutability": "view",
      "type": "function"
    },
    {
      "inputs": [
        {
          "internalType": "address[]",
          "name": "vaults_",
          "type": "address[]"
        },
        {
          "internalType": "uint256[]",
          "name": "totalTicks_",
          "type": "uint256[]"
        }
      ],
      "name": "getVaultsTicksDebt",
      "outputs": [
        {
          "components": [
            {
              "components": [
                {
                  "internalType": "uint256",
                  "name": "debtRaw",
                  "type": "uint256"
                },
                {
                  "internalType": "uint256",
                  "name": "collateralRaw",
                  "type": "uint256"
                },
                {
                  "internalType": "uint256",
                  "name": "debtNormal",
                  "type": "uint256"
                },
                {
                  "internalType": "uint256",
                  "name": "collateralNormal",
                  "type": "uint256"
                },
                {
                  "internalType": "uint256",
                  "name": "ratio",
                  "type": "uint256"
                },
                {
                  "internalType": "int256",
                  "name": "tick",
                  "type": "int256"
                }
              ],
              "internalType": "struct Structs.TickDebt[]",
              "name": "tickDebt",
              "type": "tuple[]"
            },
            {
              "internalType": "int256",
              "name": "toTick",
              "type": "int256"
            },
            {
              "internalType": "address",
              "name": "vaultAddress",
              "type": "address"
            },
            {
              "internalType": "uint256",
              "name": "vaultId",
              "type": "uint256"
            }
          ],
          "internalType": "struct Structs.VaultsTickDebt[]",
          "name": "vaultsTickDebt_",
          "type": "tuple[]"
        }
      ],
      "stateMutability": "view",
      "type": "function"
    }
  ],
  "args": [
    "0x610a54a5D707e2c61B5Cc58090EC6Ae198E54468"
  ],
  "numDeployments": 3,
  "solcInputHash": "3c9967f0260ebc772ad8a9c6a5ebe376",
  "bytecode": "0x60a06040523480156200001157600080fd5b5060405162002f0138038062002f01833981016040819052620000349162000068565b6001600160a01b038116608081905262000061576040516365b1d2ef60e11b815260040160405180910390fd5b506200009a565b6000602082840312156200007b57600080fd5b81516001600160a01b03811681146200009357600080fd5b9392505050565b608051612dfe620001036000396000818161012a01528181610653015281816107f60152818161093501528181610a56015281816110240152818161127b015281816114f6015281816116c70152818161187d015281816119b20152611fba0152612dfe6000f3fe608060405234801561001057600080fd5b50600436106100a35760003560e01c80637f3e2b4811610076578063a12a377a1161005b578063a12a377a14610184578063d17ac4a814610197578063f2c8e542146101b757600080fd5b80637f3e2b481461012557806385094bb11461017157600080fd5b806306077b2d146100a85780633009c6ba146100d15780636791522f146100f15780637cec086614610104575b600080fd5b6100bb6100b636600461244c565b6101bf565b6040516100c89190612481565b60405180910390f35b6100e46100df366004612631565b6103e8565b6040516100c8919061277c565b6100e46100ff36600461283b565b61064d565b610117610112366004612854565b61079d565b6040516100c8929190612889565b61014c7f000000000000000000000000000000000000000000000000000000000000000081565b60405173ffffffffffffffffffffffffffffffffffffffff90911681526020016100c8565b6100e461017f3660046128ab565b610b48565b6100bb61019236600461290f565b610da6565b6101aa6101a5366004612854565b610fd9565b6040516100c89190612980565b6100bb611274565b80516060908067ffffffffffffffff8111156101dd576101dd612311565b60405190808252806020026020018201604052801561024857816020015b610235604051806060016040528060608152602001600073ffffffffffffffffffffffffffffffffffffffff168152602001600081525090565b8152602001906001900390816101fb5790505b50915060005b818110156103e15761029b84828151811061026b5761026b612a3b565b60200260200101517fffffffffffffffffffffffffffffffffffffffffffffffffffffffffffffffff6000610fd9565b8382815181106102ad576102ad612a3b565b6020026020010151600001819052508381815181106102ce576102ce612a3b565b60200260200101518382815181106102e8576102e8612a3b565b60200260200101516020019073ffffffffffffffffffffffffffffffffffffffff16908173ffffffffffffffffffffffffffffffffffffffff168152505083818151811061033857610338612a3b565b602002602001015173ffffffffffffffffffffffffffffffffffffffff1663540acabc6040518163ffffffff1660e01b8152600401602060405180830381865afa15801561038a573d6000803e3d6000fd5b505050506040513d601f19601f820116820180604052508101906103ae9190612a6a565b8382815181106103c0576103c0612a3b565b602090810291909101015160400152806103d981612ab2565b91505061024e565b5050919050565b82516060908067ffffffffffffffff81111561040657610406612311565b60405190808252806020026020018201604052801561047857816020015b61046560405180608001604052806060815260200160008152602001600073ffffffffffffffffffffffffffffffffffffffff168152602001600081525090565b8152602001906001900390816104245790505b50915060005b81811015610644576104dc86828151811061049b5761049b612a3b565b60200260200101518683815181106104b5576104b5612a3b565b60200260200101518684815181106104cf576104cf612a3b565b602002602001015161079d565b8483815181106104ee576104ee612a3b565b602002602001015160000185848151811061050b5761050b612a3b565b602002602001015160200182815250829052505085818151811061053157610531612a3b565b602002602001015183828151811061054b5761054b612a3b565b60200260200101516040019073ffffffffffffffffffffffffffffffffffffffff16908173ffffffffffffffffffffffffffffffffffffffff168152505085818151811061059b5761059b612a3b565b602002602001015173ffffffffffffffffffffffffffffffffffffffff1663540acabc6040518163ffffffff1660e01b8152600401602060405180830381865afa1580156105ed573d6000803e3d6000fd5b505050506040513d601f19601f820116820180604052508101906106119190612a6a565b83828151811061062357610623612a3b565b6020908102919091010151606001528061063c81612ab2565b91505061047e565b50509392505050565b606060007f000000000000000000000000000000000000000000000000000000000000000073ffffffffffffffffffffffffffffffffffffffff1663a8d9f4936040518163ffffffff1660e01b8152600401600060405180830381865afa1580156106bc573d6000803e3d6000fd5b505050506040513d6000823e601f3d9081017fffffffffffffffffffffffffffffffffffffffffffffffffffffffffffffffe01682016040526107029190810190612aea565b805190915060008167ffffffffffffffff81111561072257610722612311565b60405190808252806020026020018201604052801561074b578160200160208202803683370190505b50905060005b82811015610789578582828151811061076c5761076c612a3b565b60209081029190910101528061078181612ab2565b915050610751565b506107948382610b48565b95945050505050565b6040517f03e883e000000000000000000000000000000000000000000000000000000000815273ffffffffffffffffffffffffffffffffffffffff8481166004830152606091600091829161086991620fffff916002917f000000000000000000000000000000000000000000000000000000000000000016906303e883e090602401602060405180830381865afa15801561083d573d6000803e3d6000fd5b505050506040513d601f19601f820116820180604052508101906108619190612a6a565b901c1661132f565b9050848112610878578461087a565b805b94507f8000000000000000000000000000000000000000000000000000000000000000851315610b3f5760008086126108be576108b961010087612ba8565b6108e1565b60016101006108cd8883612c10565b6108d79190612ba8565b6108e19190612c30565b6040517fa8bc069300000000000000000000000000000000000000000000000000000000815273ffffffffffffffffffffffffffffffffffffffff89811660048301526024820183905291925060009182917f00000000000000000000000000000000000000000000000000000000000000009091169063a8bc069390604401602060405180830381865afa15801561097e573d6000803e3d6000fd5b505050506040513d601f19601f820116820180604052508101906109a29190612a6a565b905060006109b284610100612c57565b6109bd9060ff612c10565b6109c68a612ca3565b6109d09190612c10565b91821b90911c91506109e490508688612c30565b6109ef906001612c10565b935060006109ff898685856113fd565b6040517feb1db01800000000000000000000000000000000000000000000000000000000815273ffffffffffffffffffffffffffffffffffffffff808c1660048301819052929350600092839290916309f0d8cb917f00000000000000000000000000000000000000000000000000000000000000009091169063eb1db01890602401602060405180830381865afa158015610a9f573d6000803e3d6000fd5b505050506040513d601f19601f82011682018060405250810190610ac39190612a6a565b6040518263ffffffff1660e01b8152600401610ae191815260200190565b608060405180830381865afa158015610afe573d6000803e3d6000fd5b505050506040513d601f19601f82011682018060405250810190610b229190612cdb565b935093505050610b378b888787878787611573565b975050505050505b50935093915050565b81516060908067ffffffffffffffff811115610b6657610b66612311565b604051908082528060200260200182016040528015610bd857816020015b610bc560405180608001604052806060815260200160008152602001600073ffffffffffffffffffffffffffffffffffffffff168152602001600081525090565b815260200190600190039081610b845790505b50915060005b81811015610d9e57610c36858281518110610bfb57610bfb612a3b565b60200260200101517f7fffffffffffffffffffffffffffffffffffffffffffffffffffffffffffffff8684815181106104cf576104cf612a3b565b848381518110610c4857610c48612a3b565b6020026020010151600001858481518110610c6557610c65612a3b565b6020026020010151602001828152508290525050848181518110610c8b57610c8b612a3b565b6020026020010151838281518110610ca557610ca5612a3b565b60200260200101516040019073ffffffffffffffffffffffffffffffffffffffff16908173ffffffffffffffffffffffffffffffffffffffff1681525050848181518110610cf557610cf5612a3b565b602002602001015173ffffffffffffffffffffffffffffffffffffffff1663540acabc6040518163ffffffff1660e01b8152600401602060405180830381865afa158015610d47573d6000803e3d6000fd5b505050506040513d601f19601f82011682018060405250810190610d6b9190612a6a565b838281518110610d7d57610d7d612a3b565b60209081029190910101516060015280610d9681612ab2565b915050610bde565b505092915050565b82516060908067ffffffffffffffff811115610dc457610dc4612311565b604051908082528060200260200182016040528015610e2f57816020015b610e1c604051806060016040528060608152602001600073ffffffffffffffffffffffffffffffffffffffff168152602001600081525090565b815260200190600190039081610de25790505b50915060005b8181101561064457610e93868281518110610e5257610e52612a3b565b6020026020010151868381518110610e6c57610e6c612a3b565b6020026020010151868481518110610e8657610e86612a3b565b6020026020010151610fd9565b838281518110610ea557610ea5612a3b565b602002602001015160000181905250858181518110610ec657610ec6612a3b565b6020026020010151838281518110610ee057610ee0612a3b565b60200260200101516020019073ffffffffffffffffffffffffffffffffffffffff16908173ffffffffffffffffffffffffffffffffffffffff1681525050858181518110610f3057610f30612a3b565b602002602001015173ffffffffffffffffffffffffffffffffffffffff1663540acabc6040518163ffffffff1660e01b8152600401602060405180830381865afa158015610f82573d6000803e3d6000fd5b505050506040513d601f19601f82011682018060405250810190610fa69190612a6a565b838281518110610fb857610fb8612a3b565b60209081029190910101516040015280610fd181612ab2565b915050610e35565b6040517f03e883e000000000000000000000000000000000000000000000000000000000815273ffffffffffffffffffffffffffffffffffffffff84811660048301526060916000917f000000000000000000000000000000000000000000000000000000000000000016906303e883e090602401602060405180830381865afa15801561106b573d6000803e3d6000fd5b505050506040513d601f19601f8201168201806040525081019061108f9190612a6a565b9050603481901c633fffffff1683156110a857836110ab565b60015b93508481106110ba57846110bc565b805b945083851015611153576040517f08c379a000000000000000000000000000000000000000000000000000000000815260206004820152603a60248201527f66726f6d4272616e636849645f206d757374206265206772656174657220746860448201527f616e206f7220657175616c20746f20746f4272616e636849645f00000000000060648201526084015b60405180910390fd5b61115d8486612d11565b611168906001612d24565b67ffffffffffffffff81111561118057611180612311565b60405190808252806020026020018201604052801561121557816020015b6112026040518061018001604052806000815260200160008152602001600081526020016000815260200160008152602001600081526020016000815260200160008152602001600081526020016000815260200160008152602001600081525090565b81526020019060019003908161119e5790505b5092506000855b8581106112695761122e8885836118ff565b858361123981612ab2565b94508151811061124b5761124b612a3b565b6020026020010181905250808061126190612d37565b91505061121c565b505050509392505050565b606061132a7f000000000000000000000000000000000000000000000000000000000000000073ffffffffffffffffffffffffffffffffffffffff1663a8d9f4936040518163ffffffff1660e01b8152600401600060405180830381865afa1580156112e4573d6000803e3d6000fd5b505050506040513d6000823e601f3d9081017fffffffffffffffffffffffffffffffffffffffffffffffffffffffffffffffe01682016040526100b69190810190612aea565b905090565b6000620fffff821061139d576040517f08c379a000000000000000000000000000000000000000000000000000000000815260206004820152600e60248201527f696e76616c69642d6e756d626572000000000000000000000000000000000000604482015260640161114a565b81156113d657816001166001146113c5576113c0600183901c6207ffff16612ca3565b6113d0565b6207ffff600183901c165b92915050565b507f8000000000000000000000000000000000000000000000000000000000000000919050565b60008060005b83156114785761141284611a81565b915061142082610101612d11565b61142c83610101612d11565b9490941b90931c9261143f600183612d11565b61144b86610100612c57565b6114559190612c10565b90508581121561146657505061156b565b8261147081612ab2565b935050611403565b61148185612d6c565b94507fffffffffffffffffffffffffffffffffffffffffffffffffffffffffffffff7f8514611568576040517fa8bc069300000000000000000000000000000000000000000000000000000000815273ffffffffffffffffffffffffffffffffffffffff8881166004830152602482018790527f0000000000000000000000000000000000000000000000000000000000000000169063a8bc069390604401602060405180830381865afa15801561153d573d6000803e3d6000fd5b505050506040513d601f19601f820116820180604052508101906115619190612a6a565b9350611403565b50505b949350505050565b60608367ffffffffffffffff81111561158e5761158e612311565b6040519080825280602002602001820160405280156115f857816020015b6115e56040518060c001604052806000815260200160008152602001600081526020016000815260200160008152602001600081525090565b8152602001906001900390816115ac5790505b509050600093506000806000805b88156117ff5760006116178a611a81565b905061162581610101612d11565b61163182610101612d11565b9a909a1b90991c98611644600182612d11565b6116508c610100612c57565b61165a9190612c10565b9450508a84121561166e57505050506118f4565b6040517f168a11c200000000000000000000000000000000000000000000000000000000815273ffffffffffffffffffffffffffffffffffffffff8d811660048301526024820186905267ffffffffffffffff916019917f0000000000000000000000000000000000000000000000000000000000000000169063168a11c290604401602060405180830381865afa15801561170e573d6000803e3d6000fd5b505050506040513d601f19601f820116820180604052508101906117329190612a6a565b901c16600881901c60ff9091161b925061174b84611b37565b915081611765846c01000000000000000000000000612d9d565b61176f9190612db4565b90506040518060c0016040528084815260200182815260200164e8d4a51000888661179a9190612d9d565b6117a49190612db4565b815260200164e8d4a510006117b98a85612d9d565b6117c39190612db4565b81526020810184905260400185905285896117dd81612ab2565b9a50815181106117ef576117ef612a3b565b6020026020010181905250611606565b6118088a612d6c565b99507fffffffffffffffffffffffffffffffffffffffffffffffffffffffffffffff7f8a146118ef576040517fa8bc069300000000000000000000000000000000000000000000000000000000815273ffffffffffffffffffffffffffffffffffffffff8d81166004830152602482018c90527f0000000000000000000000000000000000000000000000000000000000000000169063a8bc069390604401602060405180830381865afa1580156118c4573d6000803e3d6000fd5b505050506040513d601f19601f820116820180604052508101906118e89190612a6a565b9850611606565b505050505b979650505050505050565b6119636040518061018001604052806000815260200160008152602001600081526020016000815260200160008152602001600081526020016000815260200160008152602001600081526020016000815260200160008152602001600081525090565b6040517fbf518f5f00000000000000000000000000000000000000000000000000000000815273ffffffffffffffffffffffffffffffffffffffff8581166004830152602482018490526000917f00000000000000000000000000000000000000000000000000000000000000009091169063bf518f5f90604401602060405180830381865afa1580156119fb573d6000803e3d6000fd5b505050506040513d601f19601f82011682018060405250810190611a1f9190612a6a565b90506000611a35620fffff600284901c1661132f565b9050600382166000819003611a5a57611a5086848784611d99565b9350505050611a7a565b80600103611a6f57611a508784878486611ed7565b611a50838683612147565b9392505050565b6000816fffffffffffffffffffffffffffffffff831115611aa35760809150811c5b67ffffffffffffffff811115611abb576040918201911c5b63ffffffff811115611acf576020918201911c5b61ffff811115611ae1576010918201911c5b60ff811115611af2576008918201911c5b600f811115611b03576004918201911c5b6003811115611b14576002918201911c5b6001811115611b24576001820191505b8015611b31576001820191505b50919050565b600060ff82901d80831803617fff811115611b5157600080fd5b7001000000000000000000000000000000006001821615611b7f57506fff9dd7de423466c20352b1246ce4856f5b6002821615611b9e576fff3bd55f4488ad277531fa1c725a66d00260801c5b6004821615611bbd576ffe78410fd6498b73cb96a6917f8532590260801c5b6008821615611bdc576ffcf2d9987c9be178ad5bfeffaa1232730260801c5b6010821615611bfb576ff9ef02c4529258b057769680fc6601b30260801c5b6020821615611c1a576ff402d288133a85a17784a411f7aba0820260801c5b6040821615611c39576fe895615b5beb6386553757b0352bda900260801c5b6080821615611c58576fd34f17a00ffa00a8309940a15930391a0260801c5b610100821615611c78576fae6b7961714e20548d88ea5123f9a0ff0260801c5b610200821615611c98576f76d6461f27082d74e0feed3b388c0ca10260801c5b610400821615611cb8576f372a3bfe0745d8b6b19d985d9a8b85bb0260801c5b610800821615611cd8576f0be32cbee48979763cf7247dd7bb539d0260801c5b611000821615611cf7576e8d4f70c9ff4924dac37612d1e2921e0260801c5b612000821615611d15576d4e009ae5519380809a02ca7aec770260801c5b614000821615611d31576b17c45e641b6e95dee056ff100260801c5b600091507f80000000000000000000000000000000000000000000000000000000000000008416611d8f577fffffffffffffffffffffffffffffffffffffffffffffffffffffffffffffffff0463ffffffff811615611d8f57600191505b60201c0192915050565b611dfd6040518061018001604052806000815260200160008152602001600081526020016000815260200160008152602001600081526020016000815260200160008152602001600081526020016000815260200160008152602001600081525090565b6000611e11620fffff600288901c1661132f565b905060007f80000000000000000000000000000000000000000000000000000000000000008213611e43576000611e4c565b611e4c82611b37565b905060405180610180016040528060008152602001600081526020016000815260200160008152602001868152602001858152602001838152602001600081526020018281526020016603ffffffffffff607489901c168152602001633fffffff60a689901c168152602001611eca620fffff60c48a901c1661132f565b9052979650505050505050565b611f3b6040518061018001604052806000815260200160008152602001600081526020016000815260200160008152602001600081526020016000815260200160008152602001600081526020016000815260200160008152602001600081525090565b603c85901c66ffffffffffffff16603486901c60ff161b600080611f60888487612275565b6040517feb1db01800000000000000000000000000000000000000000000000000000000815273ffffffffffffffffffffffffffffffffffffffff808d1660048301819052939550919350600092839290916309f0d8cb917f0000000000000000000000000000000000000000000000000000000000000000169063eb1db01890602401602060405180830381865afa158015612001573d6000803e3d6000fd5b505050506040513d601f19601f820116820180604052508101906120259190612a6a565b6040518263ffffffff1660e01b815260040161204391815260200190565b608060405180830381865afa158015612060573d6000803e3d6000fd5b505050506040513d601f19601f820116820180604052508101906120849190612cdb565b93509350505060405180610180016040528086815260200185815260200164e8d4a5100083886120b49190612d9d565b6120be9190612db4565b815260200164e8d4a510006120d38588612d9d565b6120dd9190612db4565b81526020018a8152602001898152602001888152602001600081526020018481526020016603ffffffffffff60748d901c168152602001633fffffff60a68d901c168152602001612136620fffff60c48e901c1661132f565b90529b9a5050505050505050505050565b6121ab6040518061018001604052806000815260200160008152602001600081526020016000815260200160008152602001600081526020016000815260200160008152602001600081526020016000815260200160008152602001600081525090565b60006121bf620fffff60c487901c1661132f565b905060007f800000000000000000000000000000000000000000000000000000000000000082136121f15760006121fa565b6121fa82611b37565b905060405180610180016040528060008152602001600081526020016000815260200160008152602001868152602001858152602001838152602001600081526020018281526020016603ffffffffffff607489901c168152602001633fffffff60a689901c16815260200183815250925050509392505050565b6000806122848360020b611b37565b9050600061271f61229783612710612d9d565b6122a19190612db4565b905060006122af8284612d11565b9050633fffffff601688901c8116906000906122cb8385612d9d565b6122d59190612db4565b6122df9085612d24565b9050806122f96c010000000000000000000000008a612d9d565b6123039190612db4565b955050505050935093915050565b7f4e487b7100000000000000000000000000000000000000000000000000000000600052604160045260246000fd5b604051601f82017fffffffffffffffffffffffffffffffffffffffffffffffffffffffffffffffe016810167ffffffffffffffff8111828210171561238757612387612311565b604052919050565b600067ffffffffffffffff8211156123a9576123a9612311565b5060051b60200190565b73ffffffffffffffffffffffffffffffffffffffff811681146123d557600080fd5b50565b600082601f8301126123e957600080fd5b813560206123fe6123f98361238f565b612340565b82815260059290921b8401810191818101908684111561241d57600080fd5b8286015b84811015612441578035612434816123b3565b8352918301918301612421565b509695505050505050565b60006020828403121561245e57600080fd5b813567ffffffffffffffff81111561247557600080fd5b61156b848285016123d8565b60006020808301818452808551808352604092508286019150828160051b8701018488016000805b848110156125c7578984037fffffffffffffffffffffffffffffffffffffffffffffffffffffffffffffffc0018652825180516060808752815190870181905260808701918b019085905b8082101561258b578251805185526020808201519086015260408082015190860152606080820151908601526080808201519086015260a0808201519086015260c0808201519086015260e080820151908601526101008082015190860152610120808201519086015261014080820151908601526101609081015190850152610180840193508c830192506001820191506124f4565b505050818a015173ffffffffffffffffffffffffffffffffffffffff16868b0152908801519488019490945294870194918701916001016124a9565b50919998505050505050505050565b600082601f8301126125e757600080fd5b813560206125f76123f98361238f565b82815260059290921b8401810191818101908684111561261657600080fd5b8286015b84811015612441578035835291830191830161261a565b60008060006060848603121561264657600080fd5b833567ffffffffffffffff8082111561265e57600080fd5b61266a878388016123d8565b945060209150818601358181111561268157600080fd5b8601601f8101881361269257600080fd5b80356126a06123f98261238f565b81815260059190911b8201840190848101908a8311156126bf57600080fd5b928501925b828410156126dd578335825292850192908501906126c4565b965050505060408601359150808211156126f657600080fd5b50612703868287016125d6565b9150509250925092565b600081518084526020808501945080840160005b8381101561277157815180518852838101518489015260408082015190890152606080820151908901526080808201519089015260a0908101519088015260c09096019590820190600101612721565b509495945050505050565b60006020808301818452808551808352604092508286019150828160051b87010184880160005b8381101561282d577fffffffffffffffffffffffffffffffffffffffffffffffffffffffffffffffc08984030185528151608081518186526127e78287018261270d565b838b0151878c01528984015173ffffffffffffffffffffffffffffffffffffffff168a8801526060938401519390960192909252505093860193908601906001016127a3565b509098975050505050505050565b60006020828403121561284d57600080fd5b5035919050565b60008060006060848603121561286957600080fd5b8335612874816123b3565b95602085013595506040909401359392505050565b60408152600061289c604083018561270d565b90508260208301529392505050565b600080604083850312156128be57600080fd5b823567ffffffffffffffff808211156128d657600080fd5b6128e2868387016123d8565b935060208501359150808211156128f857600080fd5b50612905858286016125d6565b9150509250929050565b60008060006060848603121561292457600080fd5b833567ffffffffffffffff8082111561293c57600080fd5b612948878388016123d8565b9450602086013591508082111561295e57600080fd5b61296a878388016125d6565b935060408601359150808211156126f657600080fd5b6020808252825182820181905260009190848201906040850190845b81811015612a2f578351805184526020808201519085015260408082015190850152606080820151908501526080808201519085015260a0808201519085015260c0808201519085015260e080820151908501526101008082015190850152610120808201519085015261014080820151908501526101609081015190840152610180830193850193925060010161299c565b50909695505050505050565b7f4e487b7100000000000000000000000000000000000000000000000000000000600052603260045260246000fd5b600060208284031215612a7c57600080fd5b5051919050565b7f4e487b7100000000000000000000000000000000000000000000000000000000600052601160045260246000fd5b60007fffffffffffffffffffffffffffffffffffffffffffffffffffffffffffffffff8203612ae357612ae3612a83565b5060010190565b60006020808385031215612afd57600080fd5b825167ffffffffffffffff811115612b1457600080fd5b8301601f81018513612b2557600080fd5b8051612b336123f98261238f565b81815260059190911b82018301908381019087831115612b5257600080fd5b928401925b828410156118f4578351612b6a816123b3565b82529284019290840190612b57565b7f4e487b7100000000000000000000000000000000000000000000000000000000600052601260045260246000fd5b600082612bb757612bb7612b79565b7fffffffffffffffffffffffffffffffffffffffffffffffffffffffffffffffff83147f800000000000000000000000000000000000000000000000000000000000000083141615612c0b57612c0b612a83565b500590565b8082018281126000831280158216821582161715610d9e57610d9e612a83565b8181036000831280158383131683831282161715612c5057612c50612a83565b5092915050565b808202600082127f800000000000000000000000000000000000000000000000000000000000000084141615612c8f57612c8f612a83565b81810583148215176113d0576113d0612a83565b60007f80000000000000000000000000000000000000000000000000000000000000008203612cd457612cd4612a83565b5060000390565b60008060008060808587031215612cf157600080fd5b505082516020840151604085015160609095015191969095509092509050565b818103818111156113d0576113d0612a83565b808201808211156113d0576113d0612a83565b600081612d4657612d46612a83565b507fffffffffffffffffffffffffffffffffffffffffffffffffffffffffffffffff0190565b60007f80000000000000000000000000000000000000000000000000000000000000008203612d4657612d46612a83565b80820281158282048414176113d0576113d0612a83565b600082612dc357612dc3612b79565b50049056fea264697066735822122086c34290494d122bdcc4958ade73f20a0fc4dd19f1c0709b679dbdcae5e0eeb864736f6c63430008150033",
  "devdoc": {
    "kind": "dev",
    "methods": {},
    "version": 1
  },
  "userdoc": {
    "errors": {
      "FluidVaultTicksBranchesResolver__AddressZero()": [
        {
          "notice": "thrown if an input param address is zero"
        }
      ]
    },
    "kind": "user",
    "methods": {
      "constructor": {
        "notice": "constructor sets the immutable vault resolver address"
      }
    },
    "notice": "Fluid Vault protocol ticks & branches resolver for all vault types.",
    "version": 1
  },
  "storageLayout": {
    "storage": [],
    "types": null
  }
}