{
  "address": "0xacdf9C61720A4D97Afa7f215ddDD56C2d1019FC9",
  "abi": [
    {
      "inputs": [
        {
          "internalType": "contract IFluidReserveContract",
          "name": "reserveContract_",
          "type": "address"
        },
        {
          "internalType": "contract IFluidLiquidity",
          "name": "liquidity_",
          "type": "address"
        },
        {
          "internalType": "address",
          "name": "protocol_",
          "type": "address"
        },
        {
          "internalType": "address",
          "name": "withdrawToken_",
          "type": "address"
        },
        {
          "internalType": "address",
          "name": "borrowToken_",
          "type": "address"
        },
        {
          "components": [
            {
              "internalType": "uint256",
              "name": "tvlCheckPoint1",
              "type": "uint256"
            },
            {
              "internalType": "uint256",
              "name": "expandPercentUntilCheckPoint1",
              "type": "uint256"
            },
            {
              "internalType": "uint256",
              "name": "tvlCheckPoint2",
              "type": "uint256"
            },
            {
              "internalType": "uint256",
              "name": "expandPercentUntilCheckPoint2",
              "type": "uint256"
            },
            {
              "internalType": "uint256",
              "name": "tvlCheckPoint3",
              "type": "uint256"
            },
            {
              "internalType": "uint256",
              "name": "expandPercentUntilCheckPoint3",
              "type": "uint256"
            },
            {
              "internalType": "uint256",
              "name": "expandPercentAboveCheckPoint3",
              "type": "uint256"
            }
          ],
          "internalType": "struct Structs.LimitCheckPoints",
          "name": "withdrawCheckPoints_",
          "type": "tuple"
        },
        {
          "components": [
            {
              "internalType": "uint256",
              "name": "tvlCheckPoint1",
              "type": "uint256"
            },
            {
              "internalType": "uint256",
              "name": "expandPercentUntilCheckPoint1",
              "type": "uint256"
            },
            {
              "internalType": "uint256",
              "name": "tvlCheckPoint2",
              "type": "uint256"
            },
            {
              "internalType": "uint256",
              "name": "expandPercentUntilCheckPoint2",
              "type": "uint256"
            },
            {
              "internalType": "uint256",
              "name": "tvlCheckPoint3",
              "type": "uint256"
            },
            {
              "internalType": "uint256",
              "name": "expandPercentUntilCheckPoint3",
              "type": "uint256"
            },
            {
              "internalType": "uint256",
              "name": "expandPercentAboveCheckPoint3",
              "type": "uint256"
            }
          ],
          "internalType": "struct Structs.LimitCheckPoints",
          "name": "borrowCheckPoints_",
          "type": "tuple"
        }
      ],
      "stateMutability": "nonpayable",
      "type": "constructor"
    },
    {
      "inputs": [
        {
          "internalType": "uint256",
          "name": "errorId_",
          "type": "uint256"
        }
      ],
      "name": "FluidConfigError",
      "type": "error"
    },
    {
      "anonymous": false,
      "inputs": [
        {
          "indexed": false,
          "internalType": "uint256",
          "name": "borrow",
          "type": "uint256"
        },
        {
          "indexed": false,
          "internalType": "uint256",
          "name": "oldExpandPercent",
          "type": "uint256"
        },
        {
          "indexed": false,
          "internalType": "uint256",
          "name": "newExpandPercent",
          "type": "uint256"
        }
      ],
      "name": "LogUpdateBorrowLimitExpansion",
      "type": "event"
    },
    {
      "anonymous": false,
      "inputs": [
        {
          "indexed": false,
          "internalType": "uint256",
          "name": "supply",
          "type": "uint256"
        },
        {
          "indexed": false,
          "internalType": "uint256",
          "name": "oldExpandPercent",
          "type": "uint256"
        },
        {
          "indexed": false,
          "internalType": "uint256",
          "name": "newExpandPercent",
          "type": "uint256"
        }
      ],
      "name": "LogUpdateWithdrawLimitExpansion",
      "type": "event"
    },
    {
      "inputs": [],
      "name": "BORROW_CHECKPOINT1",
      "outputs": [
        {
          "internalType": "uint256",
          "name": "",
          "type": "uint256"
        }
      ],
      "stateMutability": "view",
      "type": "function"
    },
    {
      "inputs": [],
      "name": "BORROW_CHECKPOINT2",
      "outputs": [
        {
          "internalType": "uint256",
          "name": "",
          "type": "uint256"
        }
      ],
      "stateMutability": "view",
      "type": "function"
    },
    {
      "inputs": [],
      "name": "BORROW_CHECKPOINT3",
      "outputs": [
        {
          "internalType": "uint256",
          "name": "",
          "type": "uint256"
        }
      ],
      "stateMutability": "view",
      "type": "function"
    },
    {
      "inputs": [],
      "name": "BORROW_EXPAND_ABOVE_CHECKPOINT3",
      "outputs": [
        {
          "internalType": "uint256",
          "name": "",
          "type": "uint256"
        }
      ],
      "stateMutability": "view",
      "type": "function"
    },
    {
      "inputs": [],
      "name": "BORROW_EXPAND_UNTIL_CHECKPOINT1",
      "outputs": [
        {
          "internalType": "uint256",
          "name": "",
          "type": "uint256"
        }
      ],
      "stateMutability": "view",
      "type": "function"
    },
    {
      "inputs": [],
      "name": "BORROW_EXPAND_UNTIL_CHECKPOINT2",
      "outputs": [
        {
          "internalType": "uint256",
          "name": "",
          "type": "uint256"
        }
      ],
      "stateMutability": "view",
      "type": "function"
    },
    {
      "inputs": [],
      "name": "BORROW_EXPAND_UNTIL_CHECKPOINT3",
      "outputs": [
        {
          "internalType": "uint256",
          "name": "",
          "type": "uint256"
        }
      ],
      "stateMutability": "view",
      "type": "function"
    },
    {
      "inputs": [],
      "name": "BORROW_TOKEN",
      "outputs": [
        {
          "internalType": "address",
          "name": "",
          "type": "address"
        }
      ],
      "stateMutability": "view",
      "type": "function"
    },
    {
      "inputs": [],
      "name": "LIQUIDITY",
      "outputs": [
        {
          "internalType": "contract IFluidLiquidity",
          "name": "",
          "type": "address"
        }
      ],
      "stateMutability": "view",
      "type": "function"
    },
    {
      "inputs": [],
      "name": "PROTOCOL",
      "outputs": [
        {
          "internalType": "address",
          "name": "",
          "type": "address"
        }
      ],
      "stateMutability": "view",
      "type": "function"
    },
    {
      "inputs": [],
      "name": "RESERVE_CONTRACT",
      "outputs": [
        {
          "internalType": "contract IFluidReserveContract",
          "name": "",
          "type": "address"
        }
      ],
      "stateMutability": "view",
      "type": "function"
    },
    {
      "inputs": [],
      "name": "WITHDRAW_CHECKPOINT1",
      "outputs": [
        {
          "internalType": "uint256",
          "name": "",
          "type": "uint256"
        }
      ],
      "stateMutability": "view",
      "type": "function"
    },
    {
      "inputs": [],
      "name": "WITHDRAW_CHECKPOINT2",
      "outputs": [
        {
          "internalType": "uint256",
          "name": "",
          "type": "uint256"
        }
      ],
      "stateMutability": "view",
      "type": "function"
    },
    {
      "inputs": [],
      "name": "WITHDRAW_CHECKPOINT3",
      "outputs": [
        {
          "internalType": "uint256",
          "name": "",
          "type": "uint256"
        }
      ],
      "stateMutability": "view",
      "type": "function"
    },
    {
      "inputs": [],
      "name": "WITHDRAW_EXPAND_ABOVE_CHECKPOINT3",
      "outputs": [
        {
          "internalType": "uint256",
          "name": "",
          "type": "uint256"
        }
      ],
      "stateMutability": "view",
      "type": "function"
    },
    {
      "inputs": [],
      "name": "WITHDRAW_EXPAND_UNTIL_CHECKPOINT1",
      "outputs": [
        {
          "internalType": "uint256",
          "name": "",
          "type": "uint256"
        }
      ],
      "stateMutability": "view",
      "type": "function"
    },
    {
      "inputs": [],
      "name": "WITHDRAW_EXPAND_UNTIL_CHECKPOINT2",
      "outputs": [
        {
          "internalType": "uint256",
          "name": "",
          "type": "uint256"
        }
      ],
      "stateMutability": "view",
      "type": "function"
    },
    {
      "inputs": [],
      "name": "WITHDRAW_EXPAND_UNTIL_CHECKPOINT3",
      "outputs": [
        {
          "internalType": "uint256",
          "name": "",
          "type": "uint256"
        }
      ],
      "stateMutability": "view",
      "type": "function"
    },
    {
      "inputs": [],
      "name": "WITHDRAW_TOKEN",
      "outputs": [
        {
          "internalType": "address",
          "name": "",
          "type": "address"
        }
      ],
      "stateMutability": "view",
      "type": "function"
    },
    {
      "inputs": [],
      "name": "getProtocolBorrowData",
      "outputs": [
        {
          "internalType": "uint256",
          "name": "borrow_",
          "type": "uint256"
        },
        {
          "internalType": "uint256",
          "name": "oldExpandPercent_",
          "type": "uint256"
        },
        {
          "internalType": "uint256",
          "name": "userBorrowData_",
          "type": "uint256"
        }
      ],
      "stateMutability": "view",
      "type": "function"
    },
    {
      "inputs": [],
      "name": "getProtocolSupplyData",
      "outputs": [
        {
          "internalType": "uint256",
          "name": "supply_",
          "type": "uint256"
        },
        {
          "internalType": "uint256",
          "name": "oldExpandPercent_",
          "type": "uint256"
        },
        {
          "internalType": "uint256",
          "name": "userSupplyData_",
          "type": "uint256"
        }
      ],
      "stateMutability": "view",
      "type": "function"
    },
    {
      "inputs": [],
      "name": "rebalance",
      "outputs": [],
      "stateMutability": "nonpayable",
      "type": "function"
    }
  ],
  "transactionHash": "0xe48af5bdc7072a072bef087c6e72849ee1078f4cda0401985ad07fde1a501afa",
  "args": [
    "0x264786EF916af64a1DB19F513F24a3681734ce92",
    "0x52Aa899454998Be5b000Ad077a46Bbe360F4e497",
    "0xeAbBfca72F8a8bf14C4ac59e69ECB2eB69F0811C",
    "0xEeeeeEeeeEeEeeEeEeEeeEEEeeeeEeeeeeeeEEeE",
    "0xA0b86991c6218b36c1d19D4a2e9Eb0cE3606eB48",
    {
      "tvlCheckPoint1": "7060000000000000000000",
      "expandPercentUntilCheckPoint1": 2500,
      "tvlCheckPoint2": "10600000000000000000000",
      "expandPercentUntilCheckPoint2": 2000,
      "tvlCheckPoint3": "14120000000000000000000",
      "expandPercentUntilCheckPoint3": 1500,
      "expandPercentAboveCheckPoint3": 1000
    },
    {
      "tvlCheckPoint1": "20000000000000",
      "expandPercentUntilCheckPoint1": 2500,
      "tvlCheckPoint2": "30000000000000",
      "expandPercentUntilCheckPoint2": 2000,
      "tvlCheckPoint3": "40000000000000",
      "expandPercentUntilCheckPoint3": 1500,
      "expandPercentAboveCheckPoint3": 1000
    }
  ],
  "numDeployments": 1,
  "solcInputHash": "089f7bc7df4297f7bd474ebd543bc481",
  "bytecode": "0x6103606040523480156200001257600080fd5b5060405162001b3d38038062001b3d83398101604081905262000035916200043d565b866001600160a01b0381166200006857604051636801712d60e11b8152620186a160048201526024015b60405180910390fd5b866001600160a01b0381166200009757604051636801712d60e11b8152620186a160048201526024016200005f565b866001600160a01b038116620000c657604051636801712d60e11b8152620186a160048201526024016200005f565b6001600160a01b03808b1660805289811660a05288811660c05287811660e0819052908716610100526200012e576001600160a01b0386166200012257604051636801712d60e11b8152620186a360048201526024016200005f565b6000610320526200020c565b604080516001600160a01b03808b16602080840191909152600883850152835180840385018152606084018552805190820120918b16608084015260a0808401929092528351808403909201825260c0909201909252815191012061032052604080516001600160a01b038916602080830191909152600582840152825180830384018152606090920190925280519101206102e052620001cf8562000315565b84516102005260408501516102205260808501516102405260208501516102605260608501516102805260a08501516102a05260c08501516102c0525b6001600160a01b038616620002275760006103405262000305565b620002328462000315565b604080516001600160a01b03808b16602080840191909152600983850152835180840385018152606084018552805190820120918a16608084015260a0808401929092528351808403909201825260c0909201909252815191012061034052604080516001600160a01b038816602080830191909152600582840152825180830384018152606090920190925280519101206103005283516101205260408401516101405260808401516101605260208401516101805260608401516101a05260a08401516101c05260c08401516101e0525b50505050505050505050620004e4565b805115806200032657506020810151155b806200033457506040810151155b806200034257506060810151155b806200035057506080810151155b806200035e575060a0810151155b806200036c575060c0810151155b156200039157604051636801712d60e11b8152620186a360048201526024016200005f565b50565b6001600160a01b03811681146200039157600080fd5b600060e08284031215620003bd57600080fd5b60405160e081016001600160401b0381118282101715620003ee57634e487b7160e01b600052604160045260246000fd5b8060405250809150825181526020830151602082015260408301516040820152606083015160608201526080830151608082015260a083015160a082015260c083015160c08201525092915050565b6000806000806000806000610260888a0312156200045a57600080fd5b8751620004678162000394565b60208901519097506200047a8162000394565b60408901519096506200048d8162000394565b6060890151909550620004a08162000394565b6080890151909450620004b38162000394565b9250620004c48960a08a01620003aa565b9150620004d6896101808a01620003aa565b905092959891949750929550565b60805160a05160c05160e05161010051610120516101405161016051610180516101a0516101c0516101e05161020051610220516102405161026051610280516102a0516102c0516102e051610300516103205161034051611483620006ba600039600081816104df015261056601526000818161090c015261098e0152600061066501526000610a8d0152600081816104b70152610c0d0152600081816104690152610be60152600081816103ec0152610b970152600081816102d10152610b480152600081816103500152610bbd0152600081816104900152610b6e0152600081816101b40152610b1f0152600081816104130152610f9101526000818161031f0152610f6a01526000818161043a0152610f1b0152600081816103c50152610ecc01526000818161039e0152610f410152600081816102830152610ef20152600081816102f80152610ea301526000818161025c0152818161087a01526110a7015260008181610235015281816108330152610d0101526000818161037701528181610cc5015261106b0152600081816101e90152818161058c015281816106b0015281816109b401528181610ad801528181610dd501526111920152600081816102aa015261077201526114836000f3fe608060405234801561001057600080fd5b50600436106101825760003560e01c80638b36bf56116100d8578063dbf7471a1161008c578063e2d3899c11610066578063e2d3899c14610464578063ec305baf1461048b578063f856a532146104b257600080fd5b8063dbf7471a1461040e578063dd3fd0ed14610435578063dfa142051461045c57600080fd5b8063a9a706ab116100bd578063a9a706ab14610399578063c1fb4a79146103c0578063da7d934b146103e757600080fd5b80638b36bf561461034b57806391b9b8271461037257600080fd5b80635123ae461161013a5780636f55c652116101145780636f55c652146102f357806374f025041461031a5780637d7c2a1c1461034157600080fd5b80635123ae461461027e5780636449b8d7146102a55780636c6857b2146102cc57600080fd5b80632861c7d11161016b5780632861c7d1146101e45780633ed3a054146102305780634c90f25c1461025757600080fd5b806301ae0f2c14610187578063036a2644146101af575b600080fd5b61018f6104d9565b604080519384526020840192909252908201526060015b60405180910390f35b6101d67f000000000000000000000000000000000000000000000000000000000000000081565b6040519081526020016101a6565b61020b7f000000000000000000000000000000000000000000000000000000000000000081565b60405173ffffffffffffffffffffffffffffffffffffffff90911681526020016101a6565b61020b7f000000000000000000000000000000000000000000000000000000000000000081565b61020b7f000000000000000000000000000000000000000000000000000000000000000081565b6101d67f000000000000000000000000000000000000000000000000000000000000000081565b61020b7f000000000000000000000000000000000000000000000000000000000000000081565b6101d67f000000000000000000000000000000000000000000000000000000000000000081565b6101d67f000000000000000000000000000000000000000000000000000000000000000081565b6101d67f000000000000000000000000000000000000000000000000000000000000000081565b610349610744565b005b6101d67f000000000000000000000000000000000000000000000000000000000000000081565b61020b7f000000000000000000000000000000000000000000000000000000000000000081565b6101d67f000000000000000000000000000000000000000000000000000000000000000081565b6101d67f000000000000000000000000000000000000000000000000000000000000000081565b6101d67f000000000000000000000000000000000000000000000000000000000000000081565b6101d67f000000000000000000000000000000000000000000000000000000000000000081565b6101d67f000000000000000000000000000000000000000000000000000000000000000081565b61018f610906565b6101d67f000000000000000000000000000000000000000000000000000000000000000081565b6101d67f000000000000000000000000000000000000000000000000000000000000000081565b6101d67f000000000000000000000000000000000000000000000000000000000000000081565b600080807f000000000000000000000000000000000000000000000000000000000000000061053e576040517fd002e25a000000000000000000000000000000000000000000000000000000008152620186a560048201526024015b60405180910390fd5b6040517fb5c736e40000000000000000000000000000000000000000000000000000000081527f000000000000000000000000000000000000000000000000000000000000000060048201527f000000000000000000000000000000000000000000000000000000000000000073ffffffffffffffffffffffffffffffffffffffff169063b5c736e490602401602060405180830381865afa1580156105e8573d6000803e3d6000fd5b505050506040513d601f19601f8201168201806040525081019061060c9190611238565b60a281901c613fff169250905066ffffffffffffff600982901c1660ff600183901c161b92508060011660010361073f576040517fb5c736e40000000000000000000000000000000000000000000000000000000081527f0000000000000000000000000000000000000000000000000000000000000000600482015260009067ffffffffffffffff90609b9073ffffffffffffffffffffffffffffffffffffffff7f0000000000000000000000000000000000000000000000000000000000000000169063b5c736e4906024015b602060405180830381865afa1580156106f8573d6000803e3d6000fd5b505050506040513d601f19601f8201168201806040525081019061071c9190611238565b901c16905064e8d4a510006107318286611251565b61073b9190611295565b9350505b909192565b6040517f467c9eff0000000000000000000000000000000000000000000000000000000081523360048201527f000000000000000000000000000000000000000000000000000000000000000073ffffffffffffffffffffffffffffffffffffffff169063467c9eff906024016020604051808303816000875af11580156107d0573d6000803e3d6000fd5b505050506040513d601f19601f820116820180604052508101906107f491906112d0565b61082f576040517fd002e25a000000000000000000000000000000000000000000000000000000008152620186a26004820152602401610535565b60007f000000000000000000000000000000000000000000000000000000000000000073ffffffffffffffffffffffffffffffffffffffff161561087857610875610b07565b90505b7f000000000000000000000000000000000000000000000000000000000000000073ffffffffffffffffffffffffffffffffffffffff16156108c7576108bc610e8b565b806108c45750805b90505b80610903576040517fd002e25a000000000000000000000000000000000000000000000000000000008152620186a46004820152602401610535565b50565b600080807f0000000000000000000000000000000000000000000000000000000000000000610966576040517fd002e25a000000000000000000000000000000000000000000000000000000008152620186a56004820152602401610535565b6040517fb5c736e40000000000000000000000000000000000000000000000000000000081527f000000000000000000000000000000000000000000000000000000000000000060048201527f000000000000000000000000000000000000000000000000000000000000000073ffffffffffffffffffffffffffffffffffffffff169063b5c736e490602401602060405180830381865afa158015610a10573d6000803e3d6000fd5b505050506040513d601f19601f82011682018060405250810190610a349190611238565b60a281901c613fff169250905066ffffffffffffff600982901c1660ff600183901c161b92508060011660010361073f576040517fb5c736e40000000000000000000000000000000000000000000000000000000081527f0000000000000000000000000000000000000000000000000000000000000000600482015260009067ffffffffffffffff90605b9073ffffffffffffffffffffffffffffffffffffffff7f0000000000000000000000000000000000000000000000000000000000000000169063b5c736e4906024016106db565b600080600080610b15610906565b92509250925060007f0000000000000000000000000000000000000000000000000000000000000000841015610b6c57507f0000000000000000000000000000000000000000000000000000000000000000610c2d565b7f0000000000000000000000000000000000000000000000000000000000000000841015610bbb57507f0000000000000000000000000000000000000000000000000000000000000000610c2d565b7f0000000000000000000000000000000000000000000000000000000000000000841015610c0a57507f0000000000000000000000000000000000000000000000000000000000000000610c2d565b507f00000000000000000000000000000000000000000000000000000000000000005b808303610c3f57600094505050505090565b604080516001808252818301909252600091816020015b6040805160c08101825260008082526020808301829052928201819052606082018190526080820181905260a082015282527fffffffffffffffffffffffffffffffffffffffffffffffffffffffffffffffff909201910181610c565790505090506040518060c001604052807f000000000000000000000000000000000000000000000000000000000000000073ffffffffffffffffffffffffffffffffffffffff1681526020017f000000000000000000000000000000000000000000000000000000000000000073ffffffffffffffffffffffffffffffffffffffff1681526020018460011660ff16815260200183815260200162ffffff60b086901c168152602001610d776203ffff60c887901c16600860ff9082901c91161b90565b81525081600081518110610d8d57610d8d6112f9565b60209081029190910101526040517f02c6bb6a00000000000000000000000000000000000000000000000000000000815273ffffffffffffffffffffffffffffffffffffffff7f000000000000000000000000000000000000000000000000000000000000000016906302c6bb6a90610e0a908490600401611328565b600060405180830381600087803b158015610e2457600080fd5b505af1158015610e38573d6000803e3d6000fd5b505060408051888152602081018890529081018590527fc0b8e8433e971a549225cd47b518073824bb96f24b812ba5a9f13b20b1ec6937925060600190505b60405180910390a160019550505050505090565b600080600080610e996104d9565b92509250925060007f0000000000000000000000000000000000000000000000000000000000000000841015610ef057507f0000000000000000000000000000000000000000000000000000000000000000610fb1565b7f0000000000000000000000000000000000000000000000000000000000000000841015610f3f57507f0000000000000000000000000000000000000000000000000000000000000000610fb1565b7f0000000000000000000000000000000000000000000000000000000000000000841015610f8e57507f0000000000000000000000000000000000000000000000000000000000000000610fb1565b507f00000000000000000000000000000000000000000000000000000000000000005b808303610fc357600094505050505090565b604080516001808252818301909252600091816020015b6110496040518060e00160405280600073ffffffffffffffffffffffffffffffffffffffff168152602001600073ffffffffffffffffffffffffffffffffffffffff168152602001600060ff168152602001600081526020016000815260200160008152602001600081525090565b815260200190600190039081610fda5790505090506040518060e001604052807f000000000000000000000000000000000000000000000000000000000000000073ffffffffffffffffffffffffffffffffffffffff1681526020017f000000000000000000000000000000000000000000000000000000000000000073ffffffffffffffffffffffffffffffffffffffff1681526020018460011660ff16815260200183815260200162ffffff60b086901c16815260200161111d6203ffff60c887901c16600860ff9082901c91161b90565b81526020016103ff60e286901c1660ff60da87901c161b8152508160008151811061114a5761114a6112f9565b60209081029190910101526040517f01b88f8600000000000000000000000000000000000000000000000000000000815273ffffffffffffffffffffffffffffffffffffffff7f000000000000000000000000000000000000000000000000000000000000000016906301b88f86906111c79084906004016113bc565b600060405180830381600087803b1580156111e157600080fd5b505af11580156111f5573d6000803e3d6000fd5b505060408051888152602081018890529081018590527fc47531f8374baebc33db3bbf5f0269f934ff67c0c4bf54122b404c2b265898d592506060019050610e77565b60006020828403121561124a57600080fd5b5051919050565b808202811582820484141761128f577f4e487b7100000000000000000000000000000000000000000000000000000000600052601160045260246000fd5b92915050565b6000826112cb577f4e487b7100000000000000000000000000000000000000000000000000000000600052601260045260246000fd5b500490565b6000602082840312156112e257600080fd5b815180151581146112f257600080fd5b9392505050565b7f4e487b7100000000000000000000000000000000000000000000000000000000600052603260045260246000fd5b602080825282518282018190526000919060409081850190868401855b828110156113af578151805173ffffffffffffffffffffffffffffffffffffffff90811686528782015116878601528581015160ff1686860152606080820151908601526080808201519086015260a0908101519085015260c09093019290850190600101611345565b5091979650505050505050565b602080825282518282018190526000919060409081850190868401855b828110156113af578151805173ffffffffffffffffffffffffffffffffffffffff90811686528782015116878601528581015160ff1686860152606080820151908601526080808201519086015260a0808201519086015260c0908101519085015260e090930192908501906001016113d956fea2646970667358221220e52962c7557be2adaac1d9cf17fa75b1eb2e3365b18ab7ffe62aa4d5eb90df6864736f6c63430008150033",
  "devdoc": {
    "kind": "dev",
    "methods": {},
    "version": 1
  },
  "userdoc": {
    "events": {
      "LogUpdateBorrowLimitExpansion(uint256,uint256,uint256)": {
        "notice": "emitted when borrow limit expand percent is updated"
      },
      "LogUpdateWithdrawLimitExpansion(uint256,uint256,uint256)": {
        "notice": "emitted when withdraw limit expand percent is updated"
      }
    },
    "kind": "user",
    "methods": {
      "getProtocolBorrowData()": {
        "notice": "returns `PROTOCOL` total borrow at Liquidity"
      },
      "getProtocolSupplyData()": {
        "notice": "returns `PROTOCOL` total supply at Liquidity"
      },
      "rebalance()": {
        "notice": "Rebalances the configs for `PROTOCOL` at Fluid Liquidity based on protocol total supply & total borrow. Emits `LogUpdateWithdrawLimitExpansion` or `LogUpdateBorrowLimitExpansion` if any update is executed. Reverts if no update is needed. Can only be called by an authorized rebalancer."
      }
    },
    "notice": "Sets limits on Liquidity for a protocol based on TVL checkpoints.",
    "version": 1
  },
  "storageLayout": {
    "storage": [],
    "types": null
  }
}