{
  "address": "0xaD99E8416f505aCE0A087C5dAB7214F15aE3D1d1",
  "abi": [
    {
      "inputs": [],
      "name": "depositZircuit",
      "outputs": [],
      "stateMutability": "nonpayable",
      "type": "function"
    },
    {
      "inputs": [],
      "name": "withdrawZircuit",
      "outputs": [],
      "stateMutability": "nonpayable",
      "type": "function"
    }
  ],
  "transactionHash": "0x97225ad5a1a297766f11a2b84e72f25e1dfb737767e843a1c74d809ce2aeb1bb",
  "args": [],
  "numDeployments": 1,
  "solcInputHash": "fc38e10a004dade94c5f89d8d7201b02",
  "bytecode": "0x608060405234801561001057600080fd5b50610a1e806100206000396000f3fe608060405234801561001057600080fd5b50600436106100365760003560e01c806335dc9aa51461003b578063b3742de114610045575b600080fd5b61004361004d565b005b610043610240565b336000908152600360205260409020546001908116148015906100ad5750336100947fb53127684a568b3173ae13b9f8a6016e243e63b6e8ee1178d6a717850b5d61035490565b73ffffffffffffffffffffffffffffffffffffffff1614155b806100cc5750307352aa899454998be5b000ad077a46bbe360f4e49714155b156100d657600080fd5b6040517fb203bb9900000000000000000000000000000000000000000000000000000000815273cd5fe23c85820f7b72d0926fc9b05b43e359b7ee6004820181905230602483015273f047ab4c75cebf0eb9ed34ae2c186f3611aeafa69163f3fef3a39190839063b203bb9990604401602060405180830381865afa158015610163573d6000803e3d6000fd5b505050506040513d601f19601f820116820180604052508101906101879190610915565b6040517fffffffff0000000000000000000000000000000000000000000000000000000060e085901b16815273ffffffffffffffffffffffffffffffffffffffff90921660048301526024820152604401600060405180830381600087803b1580156101f257600080fd5b505af1158015610206573d6000803e3d6000fd5b5050505061023e73cd5fe23c85820f7b72d0926fc9b05b43e359b7ee73f047ab4c75cebf0eb9ed34ae2c186f3611aeafa66000610437565b565b336102697fb53127684a568b3173ae13b9f8a6016e243e63b6e8ee1178d6a717850b5d61035490565b73ffffffffffffffffffffffffffffffffffffffff161415806102a05750307352aa899454998be5b000ad077a46bbe360f4e49714155b156102aa57600080fd5b6102fd73cd5fe23c85820f7b72d0926fc9b05b43e359b7ee73f047ab4c75cebf0eb9ed34ae2c186f3611aeafa67fffffffffffffffffffffffffffffffffffffffffffffffffffffffffffffffff610437565b6040517f70a08231000000000000000000000000000000000000000000000000000000008152306004820181905273f047ab4c75cebf0eb9ed34ae2c186f3611aeafa69163b3db428b9173cd5fe23c85820f7b72d0926fc9b05b43e359b7ee9182906370a0823190602401602060405180830381865afa158015610385573d6000803e3d6000fd5b505050506040513d601f19601f820116820180604052508101906103a99190610915565b6040517fffffffff0000000000000000000000000000000000000000000000000000000060e086901b16815273ffffffffffffffffffffffffffffffffffffffff93841660048201529290911660248301526044820152606401600060405180830381600087803b15801561041d57600080fd5b505af1158015610431573d6000803e3d6000fd5b50505050565b8015806104d757506040517fdd62ed3e00000000000000000000000000000000000000000000000000000000815230600482015273ffffffffffffffffffffffffffffffffffffffff838116602483015284169063dd62ed3e90604401602060405180830381865afa1580156104b1573d6000803e3d6000fd5b505050506040513d601f19601f820116820180604052508101906104d59190610915565b155b610568576040517f08c379a000000000000000000000000000000000000000000000000000000000815260206004820152603660248201527f5361666545524332303a20617070726f76652066726f6d206e6f6e2d7a65726f60448201527f20746f206e6f6e2d7a65726f20616c6c6f77616e63650000000000000000000060648201526084015b60405180910390fd5b6040805173ffffffffffffffffffffffffffffffffffffffff8416602482015260448082018490528251808303909101815260649091019091526020810180517bffffffffffffffffffffffffffffffffffffffffffffffffffffffff167f095ea7b3000000000000000000000000000000000000000000000000000000001790526105f59084906105fa565b505050565b600061065c826040518060400160405280602081526020017f5361666545524332303a206c6f772d6c6576656c2063616c6c206661696c65648152508573ffffffffffffffffffffffffffffffffffffffff166107069092919063ffffffff16565b8051909150156105f5578080602001905181019061067a919061092e565b6105f5576040517f08c379a000000000000000000000000000000000000000000000000000000000815260206004820152602a60248201527f5361666545524332303a204552433230206f7065726174696f6e20646964206e60448201527f6f74207375636365656400000000000000000000000000000000000000000000606482015260840161055f565b6060610715848460008561071d565b949350505050565b6060824710156107af576040517f08c379a000000000000000000000000000000000000000000000000000000000815260206004820152602660248201527f416464726573733a20696e73756666696369656e742062616c616e636520666f60448201527f722063616c6c0000000000000000000000000000000000000000000000000000606482015260840161055f565b6000808673ffffffffffffffffffffffffffffffffffffffff1685876040516107d8919061097b565b60006040518083038185875af1925050503d8060008114610815576040519150601f19603f3d011682016040523d82523d6000602084013e61081a565b606091505b509150915061082b87838387610836565b979650505050505050565b606083156108cc5782516000036108c55773ffffffffffffffffffffffffffffffffffffffff85163b6108c5576040517f08c379a000000000000000000000000000000000000000000000000000000000815260206004820152601d60248201527f416464726573733a2063616c6c20746f206e6f6e2d636f6e7472616374000000604482015260640161055f565b5081610715565b61071583838151156108e15781518083602001fd5b806040517f08c379a000000000000000000000000000000000000000000000000000000000815260040161055f9190610997565b60006020828403121561092757600080fd5b5051919050565b60006020828403121561094057600080fd5b8151801515811461095057600080fd5b9392505050565b60005b8381101561097257818101518382015260200161095a565b50506000910152565b6000825161098d818460208701610957565b9190910192915050565b60208152600082518060208401526109b6816040850160208701610957565b601f017fffffffffffffffffffffffffffffffffffffffffffffffffffffffffffffffe016919091016040019291505056fea26469706673582212200daa7d65d2fdd31670e10fc886f5f939fdcb431c1cac4b31552055f08503c40264736f6c63430008150033",
  "devdoc": {
    "kind": "dev",
    "methods": {
      "depositZircuit()": {
        "details": "Only delegate callable on Liquidity, by Governance"
      },
      "withdrawZircuit()": {
        "details": "Only delegate callable on Liquidity, Governance and Guardians (for emergency)"
      }
    },
    "version": 1
  },
  "userdoc": {
    "kind": "user",
    "methods": {
      "depositZircuit()": {
        "notice": "deposit all WEETH funds to Zircuit and sets approved allowance to max uint256."
      },
      "withdrawZircuit()": {
        "notice": "withdraw all WEETH funds from Zircuit and sets approved allowance to 0."
      }
    },
    "version": 1
  },
  "storageLayout": {
    "storage": [
      {
        "astId": 813,
        "contract": "contracts/liquidity/weETHTransferModule/main.sol:FluidLiquidityWeETHZircuitTransferModule",
        "label": "_revenueCollector",
        "offset": 0,
        "slot": "0",
        "type": "t_address"
      },
      {
        "astId": 816,
        "contract": "contracts/liquidity/weETHTransferModule/main.sol:FluidLiquidityWeETHZircuitTransferModule",
        "label": "_status",
        "offset": 0,
        "slot": "1",
        "type": "t_uint256"
      },
      {
        "astId": 821,
        "contract": "contracts/liquidity/weETHTransferModule/main.sol:FluidLiquidityWeETHZircuitTransferModule",
        "label": "_isAuth",
        "offset": 0,
        "slot": "2",
        "type": "t_mapping(t_address,t_uint256)"
      },
      {
        "astId": 826,
        "contract": "contracts/liquidity/weETHTransferModule/main.sol:FluidLiquidityWeETHZircuitTransferModule",
        "label": "_isGuardian",
        "offset": 0,
        "slot": "3",
        "type": "t_mapping(t_address,t_uint256)"
      },
      {
        "astId": 831,
        "contract": "contracts/liquidity/weETHTransferModule/main.sol:FluidLiquidityWeETHZircuitTransferModule",
        "label": "_userClass",
        "offset": 0,
        "slot": "4",
        "type": "t_mapping(t_address,t_uint256)"
      },
      {
        "astId": 836,
        "contract": "contracts/liquidity/weETHTransferModule/main.sol:FluidLiquidityWeETHZircuitTransferModule",
        "label": "_exchangePricesAndConfig",
        "offset": 0,
        "slot": "5",
        "type": "t_mapping(t_address,t_uint256)"
      },
      {
        "astId": 841,
        "contract": "contracts/liquidity/weETHTransferModule/main.sol:FluidLiquidityWeETHZircuitTransferModule",
        "label": "_rateData",
        "offset": 0,
        "slot": "6",
        "type": "t_mapping(t_address,t_uint256)"
      },
      {
        "astId": 846,
        "contract": "contracts/liquidity/weETHTransferModule/main.sol:FluidLiquidityWeETHZircuitTransferModule",
        "label": "_totalAmounts",
        "offset": 0,
        "slot": "7",
        "type": "t_mapping(t_address,t_uint256)"
      },
      {
        "astId": 853,
        "contract": "contracts/liquidity/weETHTransferModule/main.sol:FluidLiquidityWeETHZircuitTransferModule",
        "label": "_userSupplyData",
        "offset": 0,
        "slot": "8",
        "type": "t_mapping(t_address,t_mapping(t_address,t_uint256))"
      },
      {
        "astId": 860,
        "contract": "contracts/liquidity/weETHTransferModule/main.sol:FluidLiquidityWeETHZircuitTransferModule",
        "label": "_userBorrowData",
        "offset": 0,
        "slot": "9",
        "type": "t_mapping(t_address,t_mapping(t_address,t_uint256))"
      },
      {
        "astId": 864,
        "contract": "contracts/liquidity/weETHTransferModule/main.sol:FluidLiquidityWeETHZircuitTransferModule",
        "label": "_listedTokens",
        "offset": 0,
        "slot": "10",
        "type": "t_array(t_address)dyn_storage"
      }
    ],
    "types": {
      "t_address": {
        "encoding": "inplace",
        "label": "address",
        "numberOfBytes": "20"
      },
      "t_array(t_address)dyn_storage": {
        "base": "t_address",
        "encoding": "dynamic_array",
        "label": "address[]",
        "numberOfBytes": "32"
      },
      "t_mapping(t_address,t_mapping(t_address,t_uint256))": {
        "encoding": "mapping",
        "key": "t_address",
        "label": "mapping(address => mapping(address => uint256))",
        "numberOfBytes": "32",
        "value": "t_mapping(t_address,t_uint256)"
      },
      "t_mapping(t_address,t_uint256)": {
        "encoding": "mapping",
        "key": "t_address",
        "label": "mapping(address => uint256)",
        "numberOfBytes": "32",
        "value": "t_uint256"
      },
      "t_uint256": {
        "encoding": "inplace",
        "label": "uint256",
        "numberOfBytes": "32"
      }
    }
  }
}