{
  "address": "0x2F95631D59F564D5e2dD0c028d4DAF3B876D84Fd",
  "abi": [
    {
      "inputs": [
        {
          "internalType": "string",
          "name": "infoName_",
          "type": "string"
        },
        {
          "internalType": "contract IWstETH",
          "name": "wstETH_",
          "type": "address"
        },
        {
          "internalType": "uint256",
          "name": "minUpdateDiffPercent_",
          "type": "uint256"
        },
        {
          "internalType": "uint256",
          "name": "minHeartBeat_",
          "type": "uint256"
        }
      ],
      "stateMutability": "nonpayable",
      "type": "constructor"
    },
    {
      "inputs": [
        {
          "internalType": "uint256",
          "name": "errorId_",
          "type": "uint256"
        }
      ],
      "name": "FluidOracleError",
      "type": "error"
    },
    {
      "anonymous": false,
      "inputs": [
        {
          "indexed": false,
          "internalType": "uint256",
          "name": "oldRate",
          "type": "uint256"
        },
        {
          "indexed": false,
          "internalType": "uint256",
          "name": "newRate",
          "type": "uint256"
        }
      ],
      "name": "LogRebalanceRate",
      "type": "event"
    },
    {
      "inputs": [],
      "name": "centerPrice",
      "outputs": [
        {
          "internalType": "uint256",
          "name": "price_",
          "type": "uint256"
        }
      ],
      "stateMutability": "nonpayable",
      "type": "function"
    },
    {
      "inputs": [],
      "name": "configData",
      "outputs": [
        {
          "internalType": "uint256",
          "name": "minUpdateDiffPercent_",
          "type": "uint256"
        },
        {
          "internalType": "uint256",
          "name": "minHeartBeat_",
          "type": "uint256"
        },
        {
          "internalType": "uint40",
          "name": "lastUpdateTime_",
          "type": "uint40"
        },
        {
          "internalType": "address",
          "name": "wsteth_",
          "type": "address"
        }
      ],
      "stateMutability": "view",
      "type": "function"
    },
    {
      "inputs": [],
      "name": "configPercentDiff",
      "outputs": [
        {
          "internalType": "uint256",
          "name": "configPercentDiff_",
          "type": "uint256"
        }
      ],
      "stateMutability": "view",
      "type": "function"
    },
    {
      "inputs": [],
      "name": "getExchangeRate",
      "outputs": [
        {
          "internalType": "uint256",
          "name": "exchangeRate_",
          "type": "uint256"
        }
      ],
      "stateMutability": "view",
      "type": "function"
    },
    {
      "inputs": [],
      "name": "getExchangeRateLiquidate",
      "outputs": [
        {
          "internalType": "uint256",
          "name": "exchangeRate_",
          "type": "uint256"
        }
      ],
      "stateMutability": "view",
      "type": "function"
    },
    {
      "inputs": [],
      "name": "getExchangeRateOperate",
      "outputs": [
        {
          "internalType": "uint256",
          "name": "exchangeRate_",
          "type": "uint256"
        }
      ],
      "stateMutability": "view",
      "type": "function"
    },
    {
      "inputs": [],
      "name": "infoName",
      "outputs": [
        {
          "internalType": "string",
          "name": "",
          "type": "string"
        }
      ],
      "stateMutability": "view",
      "type": "function"
    },
    {
      "inputs": [],
      "name": "rebalance",
      "outputs": [],
      "stateMutability": "nonpayable",
      "type": "function"
    },
    {
      "inputs": [],
      "name": "stEthPerToken",
      "outputs": [
        {
          "internalType": "uint256",
          "name": "",
          "type": "uint256"
        }
      ],
      "stateMutability": "view",
      "type": "function"
    },
    {
      "inputs": [],
      "name": "tokensPerStEth",
      "outputs": [
        {
          "internalType": "uint256",
          "name": "",
          "type": "uint256"
        }
      ],
      "stateMutability": "view",
      "type": "function"
    }
  ],
  "transactionHash": "0xc5461505f56a48255ca9fdf1bb749874d16910d7805d735228f847b89af2d3ea",
  "args": [
    [
      "wstETH <> stETH exchange rate",
      "0x7f39C581F595B53c5cb19bD0b3f8dA6c935E2Ca0",
      10,
      90000
    ]
  ],
  "numDeployments": 1,
  "linkedData": {
    "nonce": "48"
  },
  "bytecode": "0x6101006040523480156200001257600080fd5b5060405162000ed838038062000ed88339810160408190526200003591620001c6565b836020815111806200004657508051155b156200006e5760405163c82fc46560e01b815261ea6a60048201526024015b60405180910390fd5b60200151608052826001600160a01b038116620000a35760405163c82fc46560e01b815261ebbf600482015260240162000065565b821580620000b35750620186a083115b80620000bd575081155b15620000e15760405163c82fc46560e01b815261ebbf600482015260240162000065565b6001600160a01b03841660a081905260c084905260e0839052604080516301afd7c160e11b8152905163035faf82916004808201926020929091908290030181865afa15801562000136573d6000803e3d6000fd5b505050506040513d601f19601f820116820180604052508101906200015c9190620002be565b6200016c90633b9aca00620002d8565b6001600160d81b0316600160d81b4264ffffffffff16021760005550620003049350505050565b634e487b7160e01b600052604160045260246000fd5b80516001600160a01b0381168114620001c157600080fd5b919050565b60008060008060808587031215620001dd57600080fd5b84516001600160401b0380821115620001f557600080fd5b818701915087601f8301126200020a57600080fd5b8151818111156200021f576200021f62000193565b604051601f8201601f19908116603f011681019083821181831017156200024a576200024a62000193565b81604052828152602093508a848487010111156200026757600080fd5b600091505b828210156200028b57848201840151818301850152908301906200026c565b6000848483010152809850505050620002a6818801620001a9565b60408801516060909801519699909850945050505050565b600060208284031215620002d157600080fd5b5051919050565b8082028115828204841417620002fe57634e487b7160e01b600052601160045260246000fd5b92915050565b60805160a05160c05160e051610b71620003676000396000818161010a01526105ee01526000818160e7015261037b01526000818161015b015281816102b0015281816104ed01526106a40152600081816107de01526108a30152610b716000f3fe608060405234801561001057600080fd5b50600436106100be5760003560e01c80639dc1056611610076578063e6aa216c1161005b578063e6aa216c146101a7578063f3190c89146101a7578063f763f7a6146101f157600080fd5b80639dc10566146101d4578063abd5f95d146101dc57600080fd5b80637d7c2a1c116100a75780637d7c2a1c1461019d5780638e7bfbc0146101a75780639576a0c8146101cc57600080fd5b8063035faf82146100c357806320e44e43146100de575b600080fd5b6100cb6101f9565b6040519081526020015b60405180910390f35b600054604080517f000000000000000000000000000000000000000000000000000000000000000081527f000000000000000000000000000000000000000000000000000000000000000060208201527b0100000000000000000000000000000000000000000000000000000090920464ffffffffff16908201527f000000000000000000000000000000000000000000000000000000000000000073ffffffffffffffffffffffffffffffffffffffff1660608201526080016100d5565b6101a561024b565b005b6000547affffffffffffffffffffffffffffffffffffffffffffffffffffff166100cb565b6100cb610461565b6100cb61049f565b6101e46105d3565b6040516100d59190610931565b6100cb6105e2565b6000805461022990633b9aca00907affffffffffffffffffffffffffffffffffffffffffffffffffffff166109fb565b7affffffffffffffffffffffffffffffffffffffffffffffffffffff16905090565b60008054604080517f035faf8200000000000000000000000000000000000000000000000000000000815290517affffffffffffffffffffffffffffffffffffffffffffffffffffff909216929173ffffffffffffffffffffffffffffffffffffffff7f0000000000000000000000000000000000000000000000000000000000000000169163035faf829160048083019260209291908290030181865afa1580156102fb573d6000803e3d6000fd5b505050506040513d601f19601f8201168201806040525081019061031f9190610a5c565b61032d90633b9aca00610a75565b90506000818311156103575782828403620f4240028161034f5761034f61099d565b049050610379565b828211156103795782838303620f424002816103755761037561099d565b0490505b7f00000000000000000000000000000000000000000000000000000000000000008110156103db576040517fc82fc46500000000000000000000000000000000000000000000000000000000815261ebc1600482015260240160405180910390fd5b7affffffffffffffffffffffffffffffffffffffffffffffffffffff82167b010000000000000000000000000000000000000000000000000000004264ffffffffff16021760005560408051848152602081018490527f95f03a932c8aced8238058ac39deeaf30f8ddcbf42ade5ad3ada32f0d1338a08910160405180910390a1505050565b60008054610229907affffffffffffffffffffffffffffffffffffffffffffffffffffff16722cd76fe086b93ce2f768a00b22a000000000006109fb565b60008060008054906101000a90047affffffffffffffffffffffffffffffffffffffffffffffffffffff167affffffffffffffffffffffffffffffffffffffffffffffffffffff16905060007f000000000000000000000000000000000000000000000000000000000000000073ffffffffffffffffffffffffffffffffffffffff1663035faf826040518163ffffffff1660e01b8152600401602060405180830381865afa158015610556573d6000803e3d6000fd5b505050506040513d601f19601f8201168201806040525081019061057a9190610a5c565b61058890633b9aca00610a75565b9050808211156105b05781818303620f424002816105a8576105a861099d565b049250505090565b818111156105ce5781828203620f424002816105a8576105a861099d565b505090565b60606105dd6107cc565b905090565b600080544290610639907f0000000000000000000000000000000000000000000000000000000000000000907b01000000000000000000000000000000000000000000000000000000900464ffffffffff16610a92565b10156107a85760008054604080517f035faf8200000000000000000000000000000000000000000000000000000000815290517affffffffffffffffffffffffffffffffffffffffffffffffffffff909216929173ffffffffffffffffffffffffffffffffffffffff7f0000000000000000000000000000000000000000000000000000000000000000169163035faf829160048083019260209291908290030181865afa1580156106ef573d6000803e3d6000fd5b505050506040513d601f19601f820116820180604052508101906107139190610a5c565b61072190633b9aca00610a75565b7affffffffffffffffffffffffffffffffffffffffffffffffffffff81167b010000000000000000000000000000000000000000000000000000004264ffffffffff16021760005560408051848152602081018390529192507f95f03a932c8aced8238058ac39deeaf30f8ddcbf42ade5ad3ada32f0d1338a08910160405180910390a150505b506000547affffffffffffffffffffffffffffffffffffffffffffffffffffff1690565b606060005b60208110801561083757507f0000000000000000000000000000000000000000000000000000000000000000816020811061080e5761080e610aa5565b1a60f81b7fff000000000000000000000000000000000000000000000000000000000000001615155b1561084e578061084681610ad4565b9150506107d1565b60008167ffffffffffffffff81111561086957610869610b0c565b6040519080825280601f01601f191660200182016040528015610893576020820181803683370190505b50905060005b8281101561092a577f000000000000000000000000000000000000000000000000000000000000000081602081106108d3576108d3610aa5565b1a60f81b8282815181106108e9576108e9610aa5565b60200101907effffffffffffffffffffffffffffffffffffffffffffffffffffffffffffff1916908160001a9053508061092281610ad4565b915050610899565b5092915050565b600060208083528351808285015260005b8181101561095e57858101830151858201604001528201610942565b5060006040828601015260407fffffffffffffffffffffffffffffffffffffffffffffffffffffffffffffffe0601f8301168501019250505092915050565b7f4e487b7100000000000000000000000000000000000000000000000000000000600052601260045260246000fd5b7f4e487b7100000000000000000000000000000000000000000000000000000000600052601160045260246000fd5b60007affffffffffffffffffffffffffffffffffffffffffffffffffffff80841680610a50577f4e487b7100000000000000000000000000000000000000000000000000000000600052601260045260246000fd5b92169190910492915050565b600060208284031215610a6e57600080fd5b5051919050565b8082028115828204841417610a8c57610a8c6109cc565b92915050565b80820180821115610a8c57610a8c6109cc565b7f4e487b7100000000000000000000000000000000000000000000000000000000600052603260045260246000fd5b60007fffffffffffffffffffffffffffffffffffffffffffffffffffffffffffffffff8203610b0557610b056109cc565b5060010190565b7f4e487b7100000000000000000000000000000000000000000000000000000000600052604160045260246000fdfea2646970667358221220d0fc19098b3f7e15baffd659ad16214b847daeace8f705a31421ff889cfd18cb64736f6c63430008150033"
}