{
  "address": "0x38aE6fa3d6376D86D1EE591364CD4b45C99adE22",
  "abi": [
    {
      "inputs": [
        {
          "components": [
            {
              "internalType": "contract IWstETH",
              "name": "wstETH",
              "type": "address"
            },
            {
              "internalType": "uint8",
              "name": "fallbackMainSource",
              "type": "uint8"
            },
            {
              "components": [
                {
                  "internalType": "uint8",
                  "name": "hops",
                  "type": "uint8"
                },
                {
                  "components": [
                    {
                      "internalType": "contract IChainlinkAggregatorV3",
                      "name": "feed",
                      "type": "address"
                    },
                    {
                      "internalType": "bool",
                      "name": "invertRate",
                      "type": "bool"
                    },
                    {
                      "internalType": "uint256",
                      "name": "token0Decimals",
                      "type": "uint256"
                    }
                  ],
                  "internalType": "struct ChainlinkStructs.ChainlinkFeedData",
                  "name": "feed1",
                  "type": "tuple"
                },
                {
                  "components": [
                    {
                      "internalType": "contract IChainlinkAggregatorV3",
                      "name": "feed",
                      "type": "address"
                    },
                    {
                      "internalType": "bool",
                      "name": "invertRate",
                      "type": "bool"
                    },
                    {
                      "internalType": "uint256",
                      "name": "token0Decimals",
                      "type": "uint256"
                    }
                  ],
                  "internalType": "struct ChainlinkStructs.ChainlinkFeedData",
                  "name": "feed2",
                  "type": "tuple"
                },
                {
                  "components": [
                    {
                      "internalType": "contract IChainlinkAggregatorV3",
                      "name": "feed",
                      "type": "address"
                    },
                    {
                      "internalType": "bool",
                      "name": "invertRate",
                      "type": "bool"
                    },
                    {
                      "internalType": "uint256",
                      "name": "token0Decimals",
                      "type": "uint256"
                    }
                  ],
                  "internalType": "struct ChainlinkStructs.ChainlinkFeedData",
                  "name": "feed3",
                  "type": "tuple"
                }
              ],
              "internalType": "struct ChainlinkStructs.ChainlinkConstructorParams",
              "name": "chainlinkParams",
              "type": "tuple"
            },
            {
              "components": [
                {
                  "internalType": "contract IRedstoneOracle",
                  "name": "oracle",
                  "type": "address"
                },
                {
                  "internalType": "bool",
                  "name": "invertRate",
                  "type": "bool"
                },
                {
                  "internalType": "uint256",
                  "name": "token0Decimals",
                  "type": "uint256"
                }
              ],
              "internalType": "struct RedstoneStructs.RedstoneOracleData",
              "name": "redstoneOracle",
              "type": "tuple"
            }
          ],
          "internalType": "struct WstETHCLRS2UniV3CheckCLRSOracle.WstETHCLRS2ConstructorParams",
          "name": "wstETHCLRS2Params_",
          "type": "tuple"
        },
        {
          "components": [
            {
              "components": [
                {
                  "internalType": "contract IUniswapV3Pool",
                  "name": "pool",
                  "type": "address"
                },
                {
                  "internalType": "bool",
                  "name": "invertRate",
                  "type": "bool"
                },
                {
                  "internalType": "uint256[3]",
                  "name": "tWAPMaxDeltaPercents",
                  "type": "uint256[3]"
                },
                {
                  "internalType": "uint32[5]",
                  "name": "secondsAgos",
                  "type": "uint32[5]"
                }
              ],
              "internalType": "struct UniV3OracleImpl.UniV3ConstructorParams",
              "name": "uniV3Params",
              "type": "tuple"
            },
            {
              "components": [
                {
                  "internalType": "uint8",
                  "name": "hops",
                  "type": "uint8"
                },
                {
                  "components": [
                    {
                      "internalType": "contract IChainlinkAggregatorV3",
                      "name": "feed",
                      "type": "address"
                    },
                    {
                      "internalType": "bool",
                      "name": "invertRate",
                      "type": "bool"
                    },
                    {
                      "internalType": "uint256",
                      "name": "token0Decimals",
                      "type": "uint256"
                    }
                  ],
                  "internalType": "struct ChainlinkStructs.ChainlinkFeedData",
                  "name": "feed1",
                  "type": "tuple"
                },
                {
                  "components": [
                    {
                      "internalType": "contract IChainlinkAggregatorV3",
                      "name": "feed",
                      "type": "address"
                    },
                    {
                      "internalType": "bool",
                      "name": "invertRate",
                      "type": "bool"
                    },
                    {
                      "internalType": "uint256",
                      "name": "token0Decimals",
                      "type": "uint256"
                    }
                  ],
                  "internalType": "struct ChainlinkStructs.ChainlinkFeedData",
                  "name": "feed2",
                  "type": "tuple"
                },
                {
                  "components": [
                    {
                      "internalType": "contract IChainlinkAggregatorV3",
                      "name": "feed",
                      "type": "address"
                    },
                    {
                      "internalType": "bool",
                      "name": "invertRate",
                      "type": "bool"
                    },
                    {
                      "internalType": "uint256",
                      "name": "token0Decimals",
                      "type": "uint256"
                    }
                  ],
                  "internalType": "struct ChainlinkStructs.ChainlinkFeedData",
                  "name": "feed3",
                  "type": "tuple"
                }
              ],
              "internalType": "struct ChainlinkStructs.ChainlinkConstructorParams",
              "name": "chainlinkParams",
              "type": "tuple"
            },
            {
              "components": [
                {
                  "internalType": "contract IRedstoneOracle",
                  "name": "oracle",
                  "type": "address"
                },
                {
                  "internalType": "bool",
                  "name": "invertRate",
                  "type": "bool"
                },
                {
                  "internalType": "uint256",
                  "name": "token0Decimals",
                  "type": "uint256"
                }
              ],
              "internalType": "struct RedstoneStructs.RedstoneOracleData",
              "name": "redstoneOracle",
              "type": "tuple"
            },
            {
              "internalType": "uint8",
              "name": "rateSource",
              "type": "uint8"
            },
            {
              "internalType": "uint8",
              "name": "fallbackMainSource",
              "type": "uint8"
            },
            {
              "internalType": "uint256",
              "name": "rateCheckMaxDeltaPercent",
              "type": "uint256"
            }
          ],
          "internalType": "struct UniV3CheckCLRSOracle.UniV3CheckCLRSConstructorParams",
          "name": "uniV3CheckCLRSParams_",
          "type": "tuple"
        }
      ],
      "stateMutability": "nonpayable",
      "type": "constructor"
    },
    {
      "inputs": [
        {
          "internalType": "uint256",
          "name": "errorId_",
          "type": "uint256"
        }
      ],
      "name": "FluidOracleError",
      "type": "error"
    },
    {
      "inputs": [],
      "name": "FALLBACK_ORACLE2_MAIN_SOURCE",
      "outputs": [
        {
          "internalType": "uint8",
          "name": "",
          "type": "uint8"
        }
      ],
      "stateMutability": "view",
      "type": "function"
    },
    {
      "inputs": [],
      "name": "chainlinkOracleData",
      "outputs": [
        {
          "internalType": "uint256",
          "name": "chainlinkExchangeRate_",
          "type": "uint256"
        },
        {
          "internalType": "contract IChainlinkAggregatorV3",
          "name": "chainlinkFeed1_",
          "type": "address"
        },
        {
          "internalType": "bool",
          "name": "chainlinkInvertRate1_",
          "type": "bool"
        },
        {
          "internalType": "uint256",
          "name": "chainlinkExchangeRate1_",
          "type": "uint256"
        },
        {
          "internalType": "contract IChainlinkAggregatorV3",
          "name": "chainlinkFeed2_",
          "type": "address"
        },
        {
          "internalType": "bool",
          "name": "chainlinkInvertRate2_",
          "type": "bool"
        },
        {
          "internalType": "uint256",
          "name": "chainlinkExchangeRate2_",
          "type": "uint256"
        },
        {
          "internalType": "contract IChainlinkAggregatorV3",
          "name": "chainlinkFeed3_",
          "type": "address"
        },
        {
          "internalType": "bool",
          "name": "chainlinkInvertRate3_",
          "type": "bool"
        },
        {
          "internalType": "uint256",
          "name": "chainlinkExchangeRate3_",
          "type": "uint256"
        }
      ],
      "stateMutability": "view",
      "type": "function"
    },
    {
      "inputs": [],
      "name": "chainlinkOracleData2",
      "outputs": [
        {
          "internalType": "uint256",
          "name": "chainlinkExchangeRate_",
          "type": "uint256"
        },
        {
          "internalType": "contract IChainlinkAggregatorV3",
          "name": "chainlinkFeed1_",
          "type": "address"
        },
        {
          "internalType": "bool",
          "name": "chainlinkInvertRate1_",
          "type": "bool"
        },
        {
          "internalType": "uint256",
          "name": "chainlinkExchangeRate1_",
          "type": "uint256"
        },
        {
          "internalType": "contract IChainlinkAggregatorV3",
          "name": "chainlinkFeed2_",
          "type": "address"
        },
        {
          "internalType": "bool",
          "name": "chainlinkInvertRate2_",
          "type": "bool"
        },
        {
          "internalType": "uint256",
          "name": "chainlinkExchangeRate2_",
          "type": "uint256"
        },
        {
          "internalType": "contract IChainlinkAggregatorV3",
          "name": "chainlinkFeed3_",
          "type": "address"
        },
        {
          "internalType": "bool",
          "name": "chainlinkInvertRate3_",
          "type": "bool"
        },
        {
          "internalType": "uint256",
          "name": "chainlinkExchangeRate3_",
          "type": "uint256"
        }
      ],
      "stateMutability": "view",
      "type": "function"
    },
    {
      "inputs": [],
      "name": "getExchangeRate",
      "outputs": [
        {
          "internalType": "uint256",
          "name": "exchangeRate_",
          "type": "uint256"
        }
      ],
      "stateMutability": "view",
      "type": "function"
    },
    {
      "inputs": [],
      "name": "getExchangeRateLiquidate",
      "outputs": [
        {
          "internalType": "uint256",
          "name": "exchangeRate_",
          "type": "uint256"
        }
      ],
      "stateMutability": "view",
      "type": "function"
    },
    {
      "inputs": [],
      "name": "getExchangeRateOperate",
      "outputs": [
        {
          "internalType": "uint256",
          "name": "exchangeRate_",
          "type": "uint256"
        }
      ],
      "stateMutability": "view",
      "type": "function"
    },
    {
      "inputs": [],
      "name": "redstoneOracleData",
      "outputs": [
        {
          "internalType": "uint256",
          "name": "redstoneExchangeRate_",
          "type": "uint256"
        },
        {
          "internalType": "contract IRedstoneOracle",
          "name": "redstoneOracle_",
          "type": "address"
        },
        {
          "internalType": "bool",
          "name": "redstoneInvertRate_",
          "type": "bool"
        }
      ],
      "stateMutability": "view",
      "type": "function"
    },
    {
      "inputs": [],
      "name": "redstoneOracleData2",
      "outputs": [
        {
          "internalType": "uint256",
          "name": "redstoneExchangeRate_",
          "type": "uint256"
        },
        {
          "internalType": "contract IRedstoneOracle",
          "name": "redstoneOracle_",
          "type": "address"
        },
        {
          "internalType": "bool",
          "name": "redstoneInvertRate_",
          "type": "bool"
        }
      ],
      "stateMutability": "view",
      "type": "function"
    },
    {
      "inputs": [],
      "name": "uniV3CheckOracleData",
      "outputs": [
        {
          "internalType": "uint256",
          "name": "rateCheckMaxDelta_",
          "type": "uint256"
        },
        {
          "internalType": "uint256",
          "name": "rateSource_",
          "type": "uint256"
        },
        {
          "internalType": "uint256",
          "name": "fallbackMainSource_",
          "type": "uint256"
        }
      ],
      "stateMutability": "view",
      "type": "function"
    },
    {
      "inputs": [],
      "name": "uniV3OracleData",
      "outputs": [
        {
          "internalType": "contract IUniswapV3Pool",
          "name": "uniV3Pool_",
          "type": "address"
        },
        {
          "internalType": "bool",
          "name": "uniV3InvertRate_",
          "type": "bool"
        },
        {
          "internalType": "uint32[]",
          "name": "uniV3secondsAgos_",
          "type": "uint32[]"
        },
        {
          "internalType": "uint256[]",
          "name": "uniV3TwapDeltas_",
          "type": "uint256[]"
        },
        {
          "internalType": "uint256",
          "name": "uniV3exchangeRateUnsafe_",
          "type": "uint256"
        },
        {
          "internalType": "uint256",
          "name": "uniV3exchangeRate_",
          "type": "uint256"
        }
      ],
      "stateMutability": "view",
      "type": "function"
    },
    {
      "inputs": [],
      "name": "wstETHOracleData",
      "outputs": [
        {
          "internalType": "uint256",
          "name": "wstETHExchangeRate_",
          "type": "uint256"
        },
        {
          "internalType": "contract IWstETH",
          "name": "wstETH_",
          "type": "address"
        }
      ],
      "stateMutability": "view",
      "type": "function"
    }
  ],
  "transactionHash": "0x0bc1048a7b53f7ca112e0098380811918a96f1771522c68397dc1aada7abbc83",
  "args": [
    {
      "wstETH": "0x7f39C581F595B53c5cb19bD0b3f8dA6c935E2Ca0",
      "chainlinkParams": {
        "hops": 1,
        "feed1": {
          "feed": "0x86392dC19c0b719886221c78AB11eb8Cf5c52812",
          "invertRate": false,
          "token0Decimals": 18
        },
        "feed2": {
          "feed": "0x0000000000000000000000000000000000000000",
          "invertRate": false,
          "token0Decimals": 0
        },
        "feed3": {
          "feed": "0x0000000000000000000000000000000000000000",
          "invertRate": false,
          "token0Decimals": 0
        }
      },
      "redstoneOracle": {
        "oracle": "0x0000000000000000000000000000000000000000",
        "invertRate": false,
        "token0Decimals": 0
      },
      "fallbackMainSource": 1
    },
    {
      "chainlinkParams": {
        "hops": 1,
        "feed1": {
          "feed": "0xEe9F2375b4bdF6387aa8265dD4FB8F16512A1d46",
          "invertRate": true,
          "token0Decimals": 6
        },
        "feed2": {
          "feed": "0x0000000000000000000000000000000000000000",
          "invertRate": false,
          "token0Decimals": 0
        },
        "feed3": {
          "feed": "0x0000000000000000000000000000000000000000",
          "invertRate": false,
          "token0Decimals": 0
        }
      },
      "uniV3Params": {
        "pool": "0x88e6a0c2ddd26feeb64f039a2c41296fcb3f5640",
        "secondsAgos": [
          240,
          60,
          15,
          1,
          0
        ],
        "tWAPMaxDeltaPercents": [
          200,
          50,
          20
        ],
        "invertRate": true
      },
      "redstoneOracle": {
        "oracle": "0x0000000000000000000000000000000000000000",
        "invertRate": false,
        "token0Decimals": 0
      },
      "rateSource": 2,
      "fallbackMainSource": 1,
      "rateCheckMaxDeltaPercent": 300
    }
  ],
  "numDeployments": 1,
  "solcInputHash": "1989963ad64c4704dbe1170530c79d20",
  "bytecode": "0x61078060405261dead6103408190526103e0523480156200001f57600080fd5b506040516200458738038062004587833981016040819052620000429162000da4565b80806080015181602001518260400151818660200151876040015188606001518160006001600160a01b031686600001516001600160a01b031614620000895785620000b5565b60405180606001604052806103e0516001600160a01b0316815260200160001515815260200160018152505b82516001600160a01b031615620000cd5782620000f9565b6040518060600160405280610340516001600160a01b0316815260200160001515815260200160018152505b8a518d516001600160a01b0381166200012e5760405163c82fc46560e01b815261f61960048201526024015b60405180910390fd5b6001600160a01b03811660a052620001496012601b62000f74565b6200015690600a6200108d565b6080525080516001600160a01b0316620001885760405163c82fc46560e01b815261f231600482015260240162000125565b60608101516020810151905163ffffffff9182169116111580620001c857506060810151604081015163ffffffff16906001602002015163ffffffff1611155b80620001f057506060818101519081015163ffffffff16906002602002015163ffffffff1611155b806200021857506060810151608081015163ffffffff16906003602002015163ffffffff1611155b156200023c5760405163c82fc46560e01b815261f232600482015260240162000125565b6040810151516127101115806200025d575060408101518051602090910151115b806200027457506040818101516020810151910151115b15620002985760405163c82fc46560e01b815261f233600482015260240162000125565b606081810180515163ffffffff90811661016052815160209081015182166101805282516040015182166101a05282519093015181166101c052815160800151166101e05251908101519051620002f09190620010a2565b63ffffffff166102005260608101516040810151602090910151620003169190620010a2565b63ffffffff1661022052606081810151908101516040909101516200033c9190620010a2565b63ffffffff16610240526060818101516080810151910151620003609190620010a2565b63ffffffff16610260526040818101805151610100528051602090810151610120529051909101516101405281516001600160a01b031660c052810151151560e052620003b0601b600a6200108d565b61028052620003c2601b6002620010c9565b620003cf90600a6200108d565b6102a0525080516001600160a01b03161580620003ee57506040810151155b15620004125760405163c82fc46560e01b815261fa01600482015260240162000125565b80516001600160a01b039081166102c052602082015115156102e0526103405182518216911614620004635760408101516200045090601b62000f74565b6200045d90600a6200108d565b62000466565b60015b610300526103405181516001600160a01b03908116911614620004a85760408101516200049590601b620010e3565b620004a290600a6200108d565b620004ab565b60015b610320525080516001600160a01b03161580620004ca57506040810151155b15620004ee5760405163c82fc46560e01b815261fa01600482015260240162000125565b80516001600160a01b039081166103605260208201511515610380526103e051825182169116146200053f5760408101516200052c90601b62000f74565b6200053990600a6200108d565b62000542565b60015b6103a0526103e05181516001600160a01b03908116911614620005845760408101516200057190601b620010e3565b6200057e90600a6200108d565b62000587565b60015b6103c052508051600160ff9091161080620005a957506003816000015160ff16115b80620005d257506020810151516001600160a01b03161580620005d25750602081015160400151155b806200060d57506001816000015160ff161180156200060d57506040810151516001600160a01b031615806200060d57506040808201510151155b806200064957506002816000015160ff161180156200064957506060810151516001600160a01b03161580620006495750606081015160400151155b156200066d5760405163c82fc46560e01b815261ee49600482015260240162000125565b60208082018051516001600160a01b03908116610400526040808501805151831661042052606086018051519093166104405283518501511515610460525184015115156104805290519092015115156104a052510151620006d190601b62000f74565b620006de90600a6200108d565b6104c052602081015160400151620006f890601b620010e3565b6200070590600a6200108d565b6104e0528051600160ff909116116200072057600162000742565b60408082015101516200073590601b62000f74565b6200074290600a6200108d565b610500528051600160ff909116116200075d5760016200077f565b60408082015101516200077290601b620010e3565b6200077f90600a6200108d565b610520528051600260ff909116116200079a576001620007bd565b606081015160400151620007b090601b62000f74565b620007bd90600a6200108d565b610540528051600260ff90911611620007d8576001620007fb565b606081015160400151620007ee90601b620010e3565b620007fb90600a6200108d565b6105605250600160ff8416108062000816575060038360ff16115b156200083a5760405163c82fc46560e01b815261fde9600482015260240162000125565b505060ff9081166105805281516001911610806200085f57506003816000015160ff16115b806200088857506020810151516001600160a01b03161580620008885750602081015160400151155b80620008c357506001816000015160ff16118015620008c357506040810151516001600160a01b03161580620008c357506040808201510151155b80620008ff57506002816000015160ff16118015620008ff57506060810151516001600160a01b03161580620008ff5750606081015160400151155b15620009235760405163c82fc46560e01b815261ee49600482015260240162000125565b60208082018051516001600160a01b039081166105a052604080850180515183166105c052606086018051519093166105e0528351850151151561060052518401511515610620529051909201511515610640525101516200098790601b62000f74565b6200099490600a6200108d565b61066052602081015160400151620009ae90601b620010e3565b620009bb90600a6200108d565b610680528051600160ff90911611620009d6576001620009f8565b6040808201510151620009eb90601b62000f74565b620009f890600a6200108d565b6106a0528051600160ff9091161162000a1357600162000a35565b604080820151015162000a2890601b620010e3565b62000a3590600a6200108d565b6106c0528051600260ff9091161162000a5057600162000a73565b60608101516040015162000a6690601b62000f74565b62000a7390600a6200108d565b6106e0528051600260ff9091161162000a8e57600162000ab1565b60608101516040015162000aa490601b620010e3565b62000ab190600a6200108d565b6107005250600160ff8416108062000acc575060038360ff16115b1562000af05760405163c82fc46560e01b815261fde9600482015260240162000125565b505060ff90811661072052606082015160019116108062000b1857506003816060015160ff16115b8062000b2957506127108160a00151115b8062000b4f5750806080015160ff16600114801562000b4f5750806060015160ff166003145b1562000b735760405163c82fc46560e01b815261ea62600482015260240162000125565b60a0810151610740526060015160ff166107605250620010f99050565b634e487b7160e01b600052604160045260246000fd5b604051606081016001600160401b038111828210171562000bcb5762000bcb62000b90565b60405290565b604051608081016001600160401b038111828210171562000bcb5762000bcb62000b90565b60405160c081016001600160401b038111828210171562000bcb5762000bcb62000b90565b6001600160a01b038116811462000c3157600080fd5b50565b805160ff8116811462000c4657600080fd5b919050565b8051801515811462000c4657600080fd5b60006060828403121562000c6f57600080fd5b62000c7962000ba6565b9050815162000c888162000c1b565b815262000c986020830162000c4b565b60208201526040820151604082015292915050565b6000610140828403121562000cc157600080fd5b62000ccb62000bd1565b905062000cd88262000c34565b815262000ce9836020840162000c5c565b602082015262000cfd836080840162000c5c565b604082015262000d118360e0840162000c5c565b606082015292915050565b600082601f83011262000d2e57600080fd5b60405160a081016001600160401b038111828210171562000d535762000d5362000b90565b6040528060a084018581111562000d6957600080fd5b845b8181101562000d9957805163ffffffff8116811462000d8a5760008081fd5b83526020928301920162000d6b565b509195945050505050565b60008082840361052081121562000dba57600080fd5b6101e08082121562000dcb57600080fd5b62000dd562000bd1565b855162000de28162000c1b565b8152602062000df387820162000c34565b8183015262000e06886040890162000cad565b604083015262000e1b88610180890162000c5c565b60608301528195506101df198401935061034084121562000e3b57600080fd5b62000e4562000bf6565b915061014084121562000e5757600080fd5b62000e6162000bd1565b9287015192935062000e738362000c1b565b82845262000e85610200880162000c4b565b818501528761023f88011262000e9a57600080fd5b62000ea462000ba6565b92508261028088018981111562000eba57600080fd5b61022089015b8181101562000ed9578051865294830194830162000ec0565b5081604087015262000eec8a8262000d1c565b6060870152505083825262000f0688610320890162000cad565b9082015262000f1a87610460880162000c5c565b604082015262000f2e6104c0870162000c34565b606082015262000f426104e0870162000c34565b6080820152610500959095015160a08601525091949293505050565b634e487b7160e01b600052601160045260246000fd5b8181038181111562000f8a5762000f8a62000f5e565b92915050565b600181815b8085111562000fd157816000190482111562000fb55762000fb562000f5e565b8085161562000fc357918102915b93841c939080029062000f95565b509250929050565b60008262000fea5750600162000f8a565b8162000ff95750600062000f8a565b81600181146200101257600281146200101d576200103d565b600191505062000f8a565b60ff84111562001031576200103162000f5e565b50506001821b62000f8a565b5060208310610133831016604e8410600b841016171562001062575081810a62000f8a565b6200106e838362000f90565b806000190482111562001085576200108562000f5e565b029392505050565b60006200109b838362000fd9565b9392505050565b63ffffffff828116828216039080821115620010c257620010c262000f5e565b5092915050565b808202811582820484141762000f8a5762000f8a62000f5e565b8082018082111562000f8a5762000f8a62000f5e565b60805160a05160c05160e05161010051610120516101405161016051610180516101a0516101c0516101e05161020051610220516102405161026051610280516102a0516102c0516102e05161030051610320516103405161036051610380516103a0516103c0516103e05161040051610420516104405161046051610480516104a0516104c0516104e05161050051610520516105405161056051610580516105a0516105c0516105e05161060051610620516106405161066051610680516106a0516106c0516106e05161070051610720516107405161076051612ffe62001589600039600081816101dc01528181611cea01528181611d6001528181611edb01528181611f6c01528181611fd601526120a80152600081816101b701528181611e7f0152818161202401526120e201526000818161020401528181611eb001528181611f4101528181611f9d015281816126e30152818161271c015261274f01526000818161061d015261115a0152600081816105fc015261113901526000818161052b015261106301526000818161050a01526110420152600081816104410152610f800152600081816104200152610f5f01526000818161057a015281816105db0152611118015260008181610488015281816104e901526110210152600081816103ba015281816103ff0152610f3e015260008181610559015281816105ba015281816110a701526110f7015260008181610467015281816104c801528181610fb00152611000015260008181610399015281816103de0152610f1d01526000818160d50152818161137901526113b2015260008181610dbe0152611cc2015260008181610d9d0152611ca1015260008181610ccc0152611bcb015260008181610cab0152611baa015260008181610be20152611ae8015260008181610bc10152611ac7015260008181610d1b01528181610d7c0152611c80015260008181610c2901528181610c8a0152611b89015260008181610b5b01528181610ba00152611aa6015260008181610cfa01528181610d5b01528181611c0f0152611c5f015260008181610c0801528181610c6901528181611b180152611b68015260008181610b3a01528181610b7f0152611a8501526000610670015260006113260152600061134f01526000818161071701526112fc0152600081816106a7015281816106f4015261124d015260006102b401526000610ebf01526000610eee01526000818161035b0152610e950152600081816102eb015281816103380152610de60152600061218c015260006121400152600081816117c30152611806015260006119db01526000611942015260006118a90152600081816109570152611690015260008181610909015261166a0152600081816108bb015261164401526000818161086d015261161e01526000818161081f01526115f8015260008181610a3f01526119fc0152600081816109ff01526119630152600081816109bf01526118ca015260008181610aa00152818161157b0152611a46015260008181610a7f015281816114e401526116d3015260008181610af2015261143e0152600061141d0152612ffe6000f3fe608060405234801561001057600080fd5b50600436106100c95760003560e01c80638e7bfbc011610081578063e6aa216c1161005b578063e6aa216c1461029d578063f3190c891461023b578063f5be67a5146102a557600080fd5b80638e7bfbc01461023b578063a6ac913414610251578063dfaba9b51461026b57600080fd5b80637557ca41116100b25780637557ca411461013e5780637cebd7c5146101b157806388c352091461023357600080fd5b80632faeaacb146100ce57806331b037a214610104575b600080fd5b60405160ff7f00000000000000000000000000000000000000000000000000000000000000001681526020015b60405180910390f35b61010c6102ad565b6040805193845273ffffffffffffffffffffffffffffffffffffffff90921660208401521515908201526060016100fb565b610146610380565b604080519a8b5273ffffffffffffffffffffffffffffffffffffffff998a1660208c0152971515978a01979097526060890195909552928616608088015290151560a087015260c086015290921660e0840152901515610100830152610120820152610140016100fb565b604080517f0000000000000000000000000000000000000000000000000000000000000000815260ff7f0000000000000000000000000000000000000000000000000000000000000000811660208301527f000000000000000000000000000000000000000000000000000000000000000016918101919091526060016100fb565b61010c610669565b61024361073c565b6040519081526020016100fb565b6102596107e7565b6040516100fb969594939291906129f3565b610273610ae4565b6040805192835273ffffffffffffffffffffffffffffffffffffffff9091166020830152016100fb565b610243610b17565b610146610b21565b60008060007f000000000000000000000000000000000000000000000000000000000000000073ffffffffffffffffffffffffffffffffffffffff167f000000000000000000000000000000000000000000000000000000000000000073ffffffffffffffffffffffffffffffffffffffff16146103325761032d610de2565b610335565b60005b937f000000000000000000000000000000000000000000000000000000000000000093507f000000000000000000000000000000000000000000000000000000000000000092509050565b600080600080600080600080600080610397610f16565b7f00000000000000000000000000000000000000000000000000000000000000007f00000000000000000000000000000000000000000000000000000000000000006104657f00000000000000000000000000000000000000000000000000000000000000007f00000000000000000000000000000000000000000000000000000000000000007f00000000000000000000000000000000000000000000000000000000000000007f0000000000000000000000000000000000000000000000000000000000000000611188565b7f00000000000000000000000000000000000000000000000000000000000000007f000000000000000000000000000000000000000000000000000000000000000073ffffffffffffffffffffffffffffffffffffffff8216156105545761054f7f00000000000000000000000000000000000000000000000000000000000000007f00000000000000000000000000000000000000000000000000000000000000007f00000000000000000000000000000000000000000000000000000000000000007f0000000000000000000000000000000000000000000000000000000000000000611188565b610557565b60005b7f00000000000000000000000000000000000000000000000000000000000000007f000000000000000000000000000000000000000000000000000000000000000073ffffffffffffffffffffffffffffffffffffffff821615610646576106417f00000000000000000000000000000000000000000000000000000000000000007f00000000000000000000000000000000000000000000000000000000000000007f00000000000000000000000000000000000000000000000000000000000000007f0000000000000000000000000000000000000000000000000000000000000000611188565b610649565b60005b995099509950995099509950995099509950995090919293949596979899565b60008060007f000000000000000000000000000000000000000000000000000000000000000073ffffffffffffffffffffffffffffffffffffffff167f000000000000000000000000000000000000000000000000000000000000000073ffffffffffffffffffffffffffffffffffffffff16146106ee576106e9611249565b6106f1565b60005b937f000000000000000000000000000000000000000000000000000000000000000093507f000000000000000000000000000000000000000000000000000000000000000092509050565b6000610746611374565b509050600081900361078e576040517fc82fc46500000000000000000000000000000000000000000000000000000000815262010d8960048201526024015b60405180910390fd5b61079a601b600a612bd3565b816107a3611419565b6107ad9190612bdf565b6107b79190612c25565b90506107c5601b600a612bd3565b816107ce6114d5565b6107d89190612bdf565b6107e29190612c25565b905090565b6000806060808280600560405190808252806020026020018201604052801561081a578160200160208202803683370190505b5093507f00000000000000000000000000000000000000000000000000000000000000008460008151811061085157610851612c68565b602002602001019063ffffffff16908163ffffffff16815250507f00000000000000000000000000000000000000000000000000000000000000008460018151811061089f5761089f612c68565b602002602001019063ffffffff16908163ffffffff16815250507f0000000000000000000000000000000000000000000000000000000000000000846002815181106108ed576108ed612c68565b602002602001019063ffffffff16908163ffffffff16815250507f00000000000000000000000000000000000000000000000000000000000000008460038151811061093b5761093b612c68565b602002602001019063ffffffff16908163ffffffff16815250507f00000000000000000000000000000000000000000000000000000000000000008460048151811061098957610989612c68565b63ffffffff92909216602092830291909101820152604080516003808252608082019092529182016060803683370190505092507f0000000000000000000000000000000000000000000000000000000000000000836000815181106109f1576109f1612c68565b6020026020010181815250507f000000000000000000000000000000000000000000000000000000000000000083600181518110610a3157610a31612c68565b6020026020010181815250507f000000000000000000000000000000000000000000000000000000000000000083600281518110610a7157610a71612c68565b6020026020010181815250507f00000000000000000000000000000000000000000000000000000000000000007f00000000000000000000000000000000000000000000000000000000000000008585610ac96114df565b610ad16115bd565b949b939a50919850965094509092509050565b600080610aef611419565b927f000000000000000000000000000000000000000000000000000000000000000092509050565b60006107e261073c565b600080600080600080600080600080610b38611a7e565b7f00000000000000000000000000000000000000000000000000000000000000007f0000000000000000000000000000000000000000000000000000000000000000610c067f00000000000000000000000000000000000000000000000000000000000000007f00000000000000000000000000000000000000000000000000000000000000007f00000000000000000000000000000000000000000000000000000000000000007f0000000000000000000000000000000000000000000000000000000000000000611188565b7f00000000000000000000000000000000000000000000000000000000000000007f000000000000000000000000000000000000000000000000000000000000000073ffffffffffffffffffffffffffffffffffffffff821615610cf557610cf07f00000000000000000000000000000000000000000000000000000000000000007f00000000000000000000000000000000000000000000000000000000000000007f00000000000000000000000000000000000000000000000000000000000000007f0000000000000000000000000000000000000000000000000000000000000000611188565b610cf8565b60005b7f00000000000000000000000000000000000000000000000000000000000000007f000000000000000000000000000000000000000000000000000000000000000073ffffffffffffffffffffffffffffffffffffffff821615610646576106417f00000000000000000000000000000000000000000000000000000000000000007f00000000000000000000000000000000000000000000000000000000000000007f00000000000000000000000000000000000000000000000000000000000000007f0000000000000000000000000000000000000000000000000000000000000000611188565b60007f000000000000000000000000000000000000000000000000000000000000000073ffffffffffffffffffffffffffffffffffffffff1663e6aa216c6040518163ffffffff1660e01b8152600401602060405180830381865afa925050508015610e89575060408051601f3d9081017fffffffffffffffffffffffffffffffffffffffffffffffffffffffffffffffe0168201909252610e8691810190612c97565b60015b610e935750600090565b7f000000000000000000000000000000000000000000000000000000000000000015610ee957610ee3817f0000000000000000000000000000000000000000000000000000000000000000612c25565b91505090565b610ee37f000000000000000000000000000000000000000000000000000000000000000082612bdf565b90565b6000610fa47f00000000000000000000000000000000000000000000000000000000000000007f00000000000000000000000000000000000000000000000000000000000000007f00000000000000000000000000000000000000000000000000000000000000007f0000000000000000000000000000000000000000000000000000000000000000611188565b9050801580610fe757507f000000000000000000000000000000000000000000000000000000000000000073ffffffffffffffffffffffffffffffffffffffff16155b15610fef5790565b610ffb601b600a612bd3565b6110877f00000000000000000000000000000000000000000000000000000000000000007f00000000000000000000000000000000000000000000000000000000000000007f00000000000000000000000000000000000000000000000000000000000000007f0000000000000000000000000000000000000000000000000000000000000000611188565b6110919083612bdf565b61109b9190612c25565b90508015806110de57507f000000000000000000000000000000000000000000000000000000000000000073ffffffffffffffffffffffffffffffffffffffff16155b156110e65790565b6110f2601b600a612bd3565b61117e7f00000000000000000000000000000000000000000000000000000000000000007f00000000000000000000000000000000000000000000000000000000000000007f00000000000000000000000000000000000000000000000000000000000000007f0000000000000000000000000000000000000000000000000000000000000000611188565b6107d89083612bdf565b60008473ffffffffffffffffffffffffffffffffffffffff1663feaf968c6040518163ffffffff1660e01b815260040160a060405180830381865afa92505050801561120f575060408051601f3d9081017fffffffffffffffffffffffffffffffffffffffffffffffffffffffffffffffe016820190925261120c91810190612ccf565b60015b61121b57506000611241565b88156112375761122b8488612c25565b95505050505050611241565b61122b8885612bdf565b949350505050565b60007f000000000000000000000000000000000000000000000000000000000000000073ffffffffffffffffffffffffffffffffffffffff1663e6aa216c6040518163ffffffff1660e01b8152600401602060405180830381865afa9250505080156112f0575060408051601f3d9081017fffffffffffffffffffffffffffffffffffffffffffffffffffffffffffffffe01682019092526112ed91810190612c97565b60015b6112fa5750600090565b7f00000000000000000000000000000000000000000000000000000000000000001561134a57610ee3817f0000000000000000000000000000000000000000000000000000000000000000612c25565b610ee37f000000000000000000000000000000000000000000000000000000000000000082612bdf565b6000807f000000000000000000000000000000000000000000000000000000000000000060ff166001036113b0576113aa611a7e565b91509091565b7f000000000000000000000000000000000000000000000000000000000000000060ff166002036113fc576113e3611a7e565b9150816000036113f8575060016113aa610de2565b9091565b611404610de2565b9150816000036113f8575060016113aa611a7e565b60007f00000000000000000000000000000000000000000000000000000000000000007f000000000000000000000000000000000000000000000000000000000000000073ffffffffffffffffffffffffffffffffffffffff1663035faf826040518163ffffffff1660e01b8152600401602060405180830381865afa1580156114a7573d6000803e3d6000fd5b505050506040513d601f19601f820116820180604052508101906114cb9190612c97565b6107e29190612bdf565b60006107e2611ce6565b6000807f000000000000000000000000000000000000000000000000000000000000000073ffffffffffffffffffffffffffffffffffffffff16633850c7bd6040518163ffffffff1660e01b815260040160e060405180830381865afa15801561154d573d6000803e3d6000fd5b505050506040513d601f19601f820116820180604052508101906115719190612d41565b50505050505090507f00000000000000000000000000000000000000000000000000000000000000006115ac576115a781612119565b610ee3565b610ee36115b882612119565b612184565b6040517f883bdbfd000000000000000000000000000000000000000000000000000000006020808301919091526024820152600560448201527f000000000000000000000000000000000000000000000000000000000000000060648201527f000000000000000000000000000000000000000000000000000000000000000060848201527f000000000000000000000000000000000000000000000000000000000000000060a48201527f000000000000000000000000000000000000000000000000000000000000000060c48201527f000000000000000000000000000000000000000000000000000000000000000060e482015260009081906101040160405160208183030381529060405290506000807f000000000000000000000000000000000000000000000000000000000000000073ffffffffffffffffffffffffffffffffffffffff16836040516117169190612df4565b600060405180830381855afa9150503d8060008114611751576040519150601f19603f3d011682016040523d82523d6000602084013e611756565b606091505b50915091508161176a576000935050505090565b6000818060200190518101906117809190612e35565b90506000808260038151811061179857611798612c68565b6020026020010151836003600101815181106117b6576117b6612c68565b60200260200101510390507f00000000000000000000000000000000000000000000000000000000000000008160060b816117f3576117f3612bf6565b05915060008160060b12801561183a57507f00000000000000000000000000000000000000000000000000000000000000008160060b8161183657611836612bf6565b0715155b15611865577fffffffffffffffffffffffffffffffffffffffffffffffffffffffffffffffff909101905b506118ee8160020b8360008151811061188057611880612c68565b60200260200101518460018151811061189b5761189b612c68565b60200260200101510360060b7f00000000000000000000000000000000000000000000000000000000000000007f00000000000000000000000000000000000000000000000000000000000000006121b0565b156118ff5760009550505050505090565b6119878160020b8360018151811061191957611919612c68565b60200260200101518460028151811061193457611934612c68565b60200260200101510360060b7f00000000000000000000000000000000000000000000000000000000000000007f00000000000000000000000000000000000000000000000000000000000000006121b0565b156119985760009550505050505090565b611a208160020b836002815181106119b2576119b2612c68565b6020026020010151846003815181106119cd576119cd612c68565b60200260200101510360060b7f00000000000000000000000000000000000000000000000000000000000000007f00000000000000000000000000000000000000000000000000000000000000006121b0565b15611a315760009550505050505090565b611a42611a3d82612237565b612119565b95507f000000000000000000000000000000000000000000000000000000000000000015611a7657611a7386612184565b95505b505050505090565b6000611b0c7f00000000000000000000000000000000000000000000000000000000000000007f00000000000000000000000000000000000000000000000000000000000000007f00000000000000000000000000000000000000000000000000000000000000007f0000000000000000000000000000000000000000000000000000000000000000611188565b9050801580611b4f57507f000000000000000000000000000000000000000000000000000000000000000073ffffffffffffffffffffffffffffffffffffffff16155b15611b575790565b611b63601b600a612bd3565b611bef7f00000000000000000000000000000000000000000000000000000000000000007f00000000000000000000000000000000000000000000000000000000000000007f00000000000000000000000000000000000000000000000000000000000000007f0000000000000000000000000000000000000000000000000000000000000000611188565b611bf99083612bdf565b611c039190612c25565b9050801580611c4657507f000000000000000000000000000000000000000000000000000000000000000073ffffffffffffffffffffffffffffffffffffffff16155b15611c4e5790565b611c5a601b600a612bd3565b61117e7f00000000000000000000000000000000000000000000000000000000000000007f00000000000000000000000000000000000000000000000000000000000000007f00000000000000000000000000000000000000000000000000000000000000007f0000000000000000000000000000000000000000000000000000000000000000611188565b60007f000000000000000000000000000000000000000000000000000000000000000060ff16600103611d5b57611d1b6115bd565b905080600003610f13576040517fc82fc46500000000000000000000000000000000000000000000000000000000815261ea636004820152602401610785565b6000807f000000000000000000000000000000000000000000000000000000000000000060ff16600203611e0857611d916115bd565b925082600003611de857611da36126cc565b925082600003611de3576040517fc82fc46500000000000000000000000000000000000000000000000000000000815261ea636004820152602401610785565b505090565b611df0612717565b90925090506000829003611e0357505090565b611e78565b611e10612717565b9093509050611e1d6115bd565b915082600003611e6b5781600003611e65576040517fc82fc46500000000000000000000000000000000000000000000000000000000815261ea636004820152602401610785565b50919050565b81600003611e7857505090565b611ea383837f00000000000000000000000000000000000000000000000000000000000000006127b2565b15611de3578015611f3f577f000000000000000000000000000000000000000000000000000000000000000060ff16600303611f09577f000000000000000000000000000000000000000000000000000000000000000060ff16600214611e6557505090565b6040517fc82fc46500000000000000000000000000000000000000000000000000000000815261ea616004820152602401610785565b7f000000000000000000000000000000000000000000000000000000000000000060ff16600103611f9b577f000000000000000000000000000000000000000000000000000000000000000060ff16600203611de35750919050565b7f000000000000000000000000000000000000000000000000000000000000000060ff1660020361205c576000611fd0611249565b905060007f000000000000000000000000000000000000000000000000000000000000000060ff16600203612008575091829061200d565b509283905b8160000361201d57949350505050565b61204885857f00000000000000000000000000000000000000000000000000000000000000006127b2565b1561205557949350505050565b5050505090565b6000612066610f16565b9050806000036120a6576040517fc82fc46500000000000000000000000000000000000000000000000000000000815261ea616004820152602401610785565b7f000000000000000000000000000000000000000000000000000000000000000060ff166003036120d8579392505050565b80925061210684847f00000000000000000000000000000000000000000000000000000000000000006127b2565b1561211357509092915050565b50505090565b600061217e61213e73ffffffffffffffffffffffffffffffffffffffff841680612bdf565b7f000000000000000000000000000000000000000000000000000000000000000078010000000000000000000000000000000000000000000000006127f8565b92915050565b600061217e827f0000000000000000000000000000000000000000000000000000000000000000612c25565b6000808385816121c2576121c2612bf6565b0590506000851280156121e357508385816121df576121df612bf6565b0715155b1561220b577fffffffffffffffffffffffffffffffffffffffffffffffffffffffffffffffff015b82810186138061221c575082810386125b1561222b576001915050611241565b50600095945050505050565b60008060008360020b1261224e578260020b61225b565b8260020b61225b90612f18565b90506122867ffffffffffffffffffffffffffffffffffffffffffffffffffffffffffff27618612f50565b60020b8111156122f2576040517f08c379a000000000000000000000000000000000000000000000000000000000815260206004820152600160248201527f54000000000000000000000000000000000000000000000000000000000000006044820152606401610785565b60008160011660000361231657700100000000000000000000000000000000612328565b6ffffcb933bd6fad37aa2d162d1a5940015b70ffffffffffffffffffffffffffffffffff1690506002821615612367576080612362826ffff97272373d413259a46990580e213a612bdf565b901c90505b600482161561239157608061238c826ffff2e50f5f656932ef12357cf3c7fdcc612bdf565b901c90505b60088216156123bb5760806123b6826fffe5caca7e10e4e61c3624eaa0941cd0612bdf565b901c90505b60108216156123e55760806123e0826fffcb9843d60f6159c9db58835c926644612bdf565b901c90505b602082161561240f57608061240a826fff973b41fa98c081472e6896dfb254c0612bdf565b901c90505b6040821615612439576080612434826fff2ea16466c96a3843ec78b326b52861612bdf565b901c90505b608082161561246357608061245e826ffe5dee046a99a2a811c461f1969c3053612bdf565b901c90505b61010082161561248e576080612489826ffcbe86c7900a88aedcffc83b479aa3a4612bdf565b901c90505b6102008216156124b95760806124b4826ff987a7253ac413176f2b074cf7815e54612bdf565b901c90505b6104008216156124e45760806124df826ff3392b0822b70005940c7a398e4b70f3612bdf565b901c90505b61080082161561250f57608061250a826fe7159475a2c29b7443b29c7fa6e889d9612bdf565b901c90505b61100082161561253a576080612535826fd097f3bdfd2022b8845ad8f792aa5825612bdf565b901c90505b612000821615612565576080612560826fa9f746462d870fdf8a65dc1f90e061e5612bdf565b901c90505b61400082161561259057608061258b826f70d869a156d2a1b890bb3df62baf32f7612bdf565b901c90505b6180008216156125bb5760806125b6826f31be135f97d08fd981231505542fcfa6612bdf565b901c90505b620100008216156125e75760806125e2826f09aa508b5b7a84e1c677de54f3e99bc9612bdf565b901c90505b6202000082161561261257608061260d826e5d6af8dedb81196699c329225ee604612bdf565b901c90505b6204000082161561263c576080612637826d2216e584f5fa1ea926041bedfe98612bdf565b901c90505b6208000082161561266457608061265f826b048a170391f7dc42444e8fa2612bdf565b901c90505b60008460020b131561269d5761269a817fffffffffffffffffffffffffffffffffffffffffffffffffffffffffffffffff612c25565b90505b6126ac64010000000082612f8e565b156126b85760016126bb565b60005b6112419060ff16602083901c612fa2565b60006126d6610f16565b90508015801561270a57507f000000000000000000000000000000000000000000000000000000000000000060ff16600114155b15610f13576107e2611249565b6000807f000000000000000000000000000000000000000000000000000000000000000060ff1660010361274d576113aa610f16565b7f000000000000000000000000000000000000000000000000000000000000000060ff1660020361279557612780610f16565b9150816000036113f8575060016113aa611249565b61279d611249565b9150816000036113f8575060016113aa610f16565b6000806127106127c28486612bdf565b6127cc9190612c25565b90506127d88185612fa2565b8511806127ed57506127ea8185612fb5565b85105b9150505b9392505050565b600080807fffffffffffffffffffffffffffffffffffffffffffffffffffffffffffffffff8587098587029250828110838203039150508060000361284f576000841161284457600080fd5b5082900490506127f1565b80841161285b57600080fd5b60008486880980840393811190920391905060008561289a817fffffffffffffffffffffffffffffffffffffffffffffffffffffffffffffffff612fb5565b6128a5906001612fa2565b169586900495938490049360008190030460010190506128c58184612bdf565b9093179260006128d6876003612bdf565b60021890506128e58188612bdf565b6128f0906002612fb5565b6128fa9082612bdf565b90506129068188612bdf565b612911906002612fb5565b61291b9082612bdf565b90506129278188612bdf565b612932906002612fb5565b61293c9082612bdf565b90506129488188612bdf565b612953906002612fb5565b61295d9082612bdf565b90506129698188612bdf565b612974906002612fb5565b61297e9082612bdf565b905061298a8188612bdf565b612995906002612fb5565b61299f9082612bdf565b90506129ab8186612bdf565b9998505050505050505050565b600081518084526020808501945080840160005b838110156129e8578151875295820195908201906001016129cc565b509495945050505050565b600060c0820173ffffffffffffffffffffffffffffffffffffffff8916835260208815158185015260c0604085015281885180845260e086019150828a01935060005b81811015612a5857845163ffffffff1683529383019391830191600101612a36565b50508481036060860152612a6c81896129b8565b60808601979097525050505060a00152949350505050565b7f4e487b7100000000000000000000000000000000000000000000000000000000600052601160045260246000fd5b600181815b80851115612b0c57817fffffffffffffffffffffffffffffffffffffffffffffffffffffffffffffffff04821115612af257612af2612a84565b80851615612aff57918102915b93841c9390800290612ab8565b509250929050565b600082612b235750600161217e565b81612b305750600061217e565b8160018114612b465760028114612b5057612b6c565b600191505061217e565b60ff841115612b6157612b61612a84565b50506001821b61217e565b5060208310610133831016604e8410600b8410161715612b8f575081810a61217e565b612b998383612ab3565b807fffffffffffffffffffffffffffffffffffffffffffffffffffffffffffffffff04821115612bcb57612bcb612a84565b029392505050565b60006127f18383612b14565b808202811582820484141761217e5761217e612a84565b7f4e487b7100000000000000000000000000000000000000000000000000000000600052601260045260246000fd5b600082612c3457612c34612bf6565b500490565b7f4e487b7100000000000000000000000000000000000000000000000000000000600052604160045260246000fd5b7f4e487b7100000000000000000000000000000000000000000000000000000000600052603260045260246000fd5b600060208284031215612ca957600080fd5b5051919050565b805169ffffffffffffffffffff81168114612cca57600080fd5b919050565b600080600080600060a08688031215612ce757600080fd5b612cf086612cb0565b9450602086015193506040860151925060608601519150612d1360808701612cb0565b90509295509295909350565b805161ffff81168114612cca57600080fd5b80518015158114612cca57600080fd5b600080600080600080600060e0888a031215612d5c57600080fd5b875173ffffffffffffffffffffffffffffffffffffffff81168114612d8057600080fd5b8097505060208801518060020b8114612d9857600080fd5b9550612da660408901612d1f565b9450612db460608901612d1f565b9350612dc260808901612d1f565b925060a088015160ff81168114612dd857600080fd5b9150612de660c08901612d31565b905092959891949750929550565b6000825160005b81811015612e155760208186018101518583015201612dfb565b506000920191825250919050565b8051600681900b8114612cca57600080fd5b60006020808385031215612e4857600080fd5b825167ffffffffffffffff80821115612e6057600080fd5b818501915085601f830112612e7457600080fd5b815181811115612e8657612e86612c39565b8060051b6040517fffffffffffffffffffffffffffffffffffffffffffffffffffffffffffffffe0603f83011681018181108582111715612ec957612ec9612c39565b604052918252848201925083810185019188831115612ee757600080fd5b938501935b82851015612f0c57612efd85612e23565b84529385019392850192612eec565b98975050505050505050565b60007f80000000000000000000000000000000000000000000000000000000000000008203612f4957612f49612a84565b5060000390565b60008160020b7fffffffffffffffffffffffffffffffffffffffffffffffffffffffffff8000008103612f8557612f85612a84565b60000392915050565b600082612f9d57612f9d612bf6565b500690565b8082018082111561217e5761217e612a84565b8181038181111561217e5761217e612a8456fea2646970667358221220cb84e440406bc0e87fee6e2378eff78e92b18ceb7d555aa3909c1ae0fc6cfbd964736f6c63430008150033",
  "devdoc": {
    "kind": "dev",
    "methods": {
      "constructor": {
        "params": {
          "uniV3CheckCLRSParams_": "UniV3CheckCLRSOracle constructor params",
          "wstETHCLRS2Params_": "WstETHCLRS2ConstructorParams for wstETH <> CLRS Token2 conversion"
        }
      },
      "getExchangeRate()": {
        "details": "Deprecated. Use `getExchangeRateOperate()` and `getExchangeRateLiquidate()` instead. Only implemented for      backwards compatibility."
      }
    },
    "title": "wstETHCLRSOracle combined with a uniV3CheckCLRSOracle.",
    "version": 1
  },
  "userdoc": {
    "kind": "user",
    "methods": {
      "FALLBACK_ORACLE2_MAIN_SOURCE()": {
        "notice": "which oracle to use as main source:          - 1 = Chainlink ONLY (no fallback)          - 2 = Chainlink with Redstone Fallback          - 3 = Redstone with Chainlink Fallback"
      },
      "chainlinkOracleData()": {
        "notice": "returns all Chainlink oracle related data as utility for easy off-chain use / block explorer in a single view method"
      },
      "chainlinkOracleData2()": {
        "notice": "returns all Chainlink oracle related data as utility for easy off-chain use / block explorer in a single view method"
      },
      "constructor": {
        "notice": "constructs a WstETHCLRS2UniV3CheckCLRSOracle with all inherited contracts"
      },
      "getExchangeRateLiquidate()": {
        "notice": "Get the `exchangeRate_` between the underlying asset and the peg asset in 1e27 for liquidations"
      },
      "getExchangeRateOperate()": {
        "notice": "Get the `exchangeRate_` between the underlying asset and the peg asset in 1e27 for operates"
      },
      "redstoneOracleData()": {
        "notice": "returns all Redstone oracle related data as utility for easy off-chain use / block explorer in a single view method"
      },
      "redstoneOracleData2()": {
        "notice": "returns all Redstone oracle related data as utility for easy off-chain use / block explorer in a single view method"
      },
      "uniV3CheckOracleData()": {
        "notice": "returns all oracle related data as utility for easy off-chain / block explorer use in a single view method"
      },
      "uniV3OracleData()": {
        "notice": "returns all UniV3 oracle related data as utility for easy off-chain use / block explorer in a single view method"
      },
      "wstETHOracleData()": {
        "notice": "returns all wWtETH oracle related data as utility for easy off-chain use / block explorer in a single view method"
      }
    },
    "notice": "Gets the exchange rate between the underlying asset and the peg asset by using:          1. wstETH Oracle price in combination with rate from Chainlink price feeds (or Redstone as fallback).             combining those two into one rate resulting in wstETH <> someToken          2. result from 1. combined with a uniV3CheckCLRSOracle to get from someToken <> someToken2          e.g. when going from wstETH to USDC:          1. wstETH -> stETH wstETH Oracle, stETH -> ETH Chainlink feed.          2. ETH -> USDC via UniV3 ETH <> USDC pool checked against ETH -> USDC Chainlink feed.",
    "version": 1
  },
  "storageLayout": {
    "storage": [],
    "types": null
  }
}