{
  "address": "0x7C884e49Ba7fd37CeBB2fE8ee9546922B1f37D04",
  "abi": [
    {
      "inputs": [
        {
          "internalType": "address",
          "name": "liquidity_",
          "type": "address"
        }
      ],
      "stateMutability": "nonpayable",
      "type": "constructor"
    },
    {
      "inputs": [
        {
          "internalType": "uint256",
          "name": "errorId_",
          "type": "uint256"
        }
      ],
      "name": "FluidConfigError",
      "type": "error"
    },
    {
      "anonymous": false,
      "inputs": [
        {
          "indexed": false,
          "internalType": "address",
          "name": "user",
          "type": "address"
        },
        {
          "indexed": false,
          "internalType": "address",
          "name": "token",
          "type": "address"
        },
        {
          "indexed": false,
          "internalType": "uint256",
          "name": "baseLimit",
          "type": "uint256"
        },
        {
          "indexed": false,
          "internalType": "uint256",
          "name": "maxLimit",
          "type": "uint256"
        }
      ],
      "name": "LogSetUserBorrowLimits",
      "type": "event"
    },
    {
      "anonymous": false,
      "inputs": [
        {
          "indexed": false,
          "internalType": "address",
          "name": "user",
          "type": "address"
        },
        {
          "indexed": false,
          "internalType": "address",
          "name": "token",
          "type": "address"
        },
        {
          "indexed": false,
          "internalType": "uint256",
          "name": "baseLimit",
          "type": "uint256"
        }
      ],
      "name": "LogSetUserWithdrawLimit",
      "type": "event"
    },
    {
      "anonymous": false,
      "inputs": [
        {
          "indexed": false,
          "internalType": "address",
          "name": "user",
          "type": "address"
        },
        {
          "indexed": false,
          "internalType": "address",
          "name": "token",
          "type": "address"
        },
        {
          "indexed": false,
          "internalType": "uint256",
          "name": "newLimit",
          "type": "uint256"
        }
      ],
      "name": "LogSetWithdrawalLimit",
      "type": "event"
    },
    {
      "inputs": [],
      "name": "LIQUIDITY",
      "outputs": [
        {
          "internalType": "contract IFluidLiquidity",
          "name": "",
          "type": "address"
        }
      ],
      "stateMutability": "view",
      "type": "function"
    },
    {
      "inputs": [],
      "name": "TEAM_MULTISIG",
      "outputs": [
        {
          "internalType": "address",
          "name": "",
          "type": "address"
        }
      ],
      "stateMutability": "view",
      "type": "function"
    },
    {
      "inputs": [],
      "name": "TEAM_MULTISIG2",
      "outputs": [
        {
          "internalType": "address",
          "name": "",
          "type": "address"
        }
      ],
      "stateMutability": "view",
      "type": "function"
    },
    {
      "inputs": [
        {
          "internalType": "address",
          "name": "user_",
          "type": "address"
        },
        {
          "internalType": "address",
          "name": "token_",
          "type": "address"
        }
      ],
      "name": "getUserBorrowConfig",
      "outputs": [
        {
          "components": [
            {
              "internalType": "address",
              "name": "user",
              "type": "address"
            },
            {
              "internalType": "address",
              "name": "token",
              "type": "address"
            },
            {
              "internalType": "uint8",
              "name": "mode",
              "type": "uint8"
            },
            {
              "internalType": "uint256",
              "name": "expandPercent",
              "type": "uint256"
            },
            {
              "internalType": "uint256",
              "name": "expandDuration",
              "type": "uint256"
            },
            {
              "internalType": "uint256",
              "name": "baseDebtCeiling",
              "type": "uint256"
            },
            {
              "internalType": "uint256",
              "name": "maxDebtCeiling",
              "type": "uint256"
            }
          ],
          "internalType": "struct Structs.UserBorrowConfig",
          "name": "userBorrowConfigs_",
          "type": "tuple"
        }
      ],
      "stateMutability": "view",
      "type": "function"
    },
    {
      "inputs": [
        {
          "internalType": "address",
          "name": "user_",
          "type": "address"
        },
        {
          "internalType": "address",
          "name": "token_",
          "type": "address"
        }
      ],
      "name": "getUserSupplyConfig",
      "outputs": [
        {
          "components": [
            {
              "internalType": "address",
              "name": "user",
              "type": "address"
            },
            {
              "internalType": "address",
              "name": "token",
              "type": "address"
            },
            {
              "internalType": "uint8",
              "name": "mode",
              "type": "uint8"
            },
            {
              "internalType": "uint256",
              "name": "expandPercent",
              "type": "uint256"
            },
            {
              "internalType": "uint256",
              "name": "expandDuration",
              "type": "uint256"
            },
            {
              "internalType": "uint256",
              "name": "baseWithdrawalLimit",
              "type": "uint256"
            }
          ],
          "internalType": "struct Structs.UserSupplyConfig",
          "name": "userSupplyConfigs_",
          "type": "tuple"
        }
      ],
      "stateMutability": "view",
      "type": "function"
    },
    {
      "inputs": [
        {
          "internalType": "address",
          "name": "",
          "type": "address"
        },
        {
          "internalType": "address",
          "name": "",
          "type": "address"
        }
      ],
      "name": "lastUpdateTime",
      "outputs": [
        {
          "internalType": "uint256",
          "name": "",
          "type": "uint256"
        }
      ],
      "stateMutability": "view",
      "type": "function"
    },
    {
      "inputs": [
        {
          "internalType": "address",
          "name": "user_",
          "type": "address"
        },
        {
          "internalType": "address",
          "name": "token_",
          "type": "address"
        },
        {
          "internalType": "uint256",
          "name": "baseLimit_",
          "type": "uint256"
        },
        {
          "internalType": "uint256",
          "name": "maxLimit_",
          "type": "uint256"
        }
      ],
      "name": "setUserBorrowLimits",
      "outputs": [],
      "stateMutability": "nonpayable",
      "type": "function"
    },
    {
      "inputs": [
        {
          "internalType": "address",
          "name": "user_",
          "type": "address"
        },
        {
          "internalType": "address",
          "name": "token_",
          "type": "address"
        },
        {
          "internalType": "uint256",
          "name": "baseLimit_",
          "type": "uint256"
        },
        {
          "internalType": "bool",
          "name": "skipMaxPercentChangeCheck_",
          "type": "bool"
        }
      ],
      "name": "setUserWithdrawLimit",
      "outputs": [],
      "stateMutability": "nonpayable",
      "type": "function"
    },
    {
      "inputs": [
        {
          "internalType": "address",
          "name": "user_",
          "type": "address"
        },
        {
          "internalType": "address",
          "name": "token_",
          "type": "address"
        },
        {
          "internalType": "uint256",
          "name": "newLimit_",
          "type": "uint256"
        }
      ],
      "name": "setWithdrawalLimit",
      "outputs": [],
      "stateMutability": "nonpayable",
      "type": "function"
    }
  ],
  "transactionHash": "0x9e15e2f4206ea36e3ffcba3542efb25b4e7654ac15bc117744defe652fbdf2e6",
  "args": [
    "0x52Aa899454998Be5b000Ad077a46Bbe360F4e497"
  ],
  "numDeployments": 1,
  "solcInputHash": "5228629dba1e4b693c7dacd40c0694f4",
  "bytecode": "0x60a060405234801561001057600080fd5b5060405161150538038061150583398101604081905261002f91610072565b806001600160a01b03811661006057604051636801712d60e11b815262018705600482015260240160405180910390fd5b506001600160a01b03166080526100a2565b60006020828403121561008457600080fd5b81516001600160a01b038116811461009b57600080fd5b9392505050565b6080516114266100df6000396000818160d60152818161022d015281816104700152818161063201528181610a6e0152610de001526114266000f3fe608060405234801561001057600080fd5b50600436106100a35760003560e01c8063360bec8f1161007657806395ae47e11161005b57806395ae47e11461019b578063b788f3a1146101b6578063e09a9637146101d157600080fd5b8063360bec8f146101685780637aa4e2551461018857600080fd5b806325fca0ad146100a85780632861c7d1146100d15780632f88b48d1461011d57806335b0b50214610153575b600080fd5b6100bb6100b6366004611001565b6101e4565b6040516100c89190611034565b60405180910390f35b6100f87f000000000000000000000000000000000000000000000000000000000000000081565b60405173ffffffffffffffffffffffffffffffffffffffff90911681526020016100c8565b61014561012b366004611001565b600060208181529281526040808220909352908152205481565b6040519081526020016100c8565b61016661016136600461109a565b6103a3565b005b61017b610176366004611001565b61052a565b6040516100c891906110d6565b610166610196366004611140565b61072a565b6100f8731e2e1aed876f67fe4fd54090fd7b8f57ce23421981565b6100f8734f6f977acdd1177dcd81ab83074855ecb9c2d49e81565b6101666101df366004611182565b610b88565b6040805160c081018252600080825260208201819052918101829052606081018290526080810182905260a081018290529073ffffffffffffffffffffffffffffffffffffffff7f00000000000000000000000000000000000000000000000000000000000000001663b5c736e46102c6600887876040805173ffffffffffffffffffffffffffffffffffffffff9384166020808301919091528183019590955281518082038301815260608201835280519086012092909316608084015260a0808401929092528051808403909201825260c0909201909152805191012090565b6040518263ffffffff1660e01b81526004016102e491815260200190565b602060405180830381865afa158015610301573d6000803e3d6000fd5b505050506040513d601f19601f8201168201806040525081019061032591906111d6565b9050801561039c576040805160c08101825273ffffffffffffffffffffffffffffffffffffffff808716825285166020820152600183169181019190915260a282901c613fff16606082015260b082901c62ffffff16608082015260a081016103ff60d084901c1660c884901c60ff161b5b905291505b5092915050565b734f6f977acdd1177dcd81ab83074855ecb9c2d49e33148015906103db5750731e2e1aed876f67fe4fd54090fd7b8f57ce2342193314155b1561041c576040517fd002e25a0000000000000000000000000000000000000000000000000000000081526201870660048201526024015b60405180910390fd5b6040517f8f0c291600000000000000000000000000000000000000000000000000000000815273ffffffffffffffffffffffffffffffffffffffff84811660048301528381166024830152604482018390527f00000000000000000000000000000000000000000000000000000000000000001690638f0c291690606401600060405180830381600087803b1580156104b457600080fd5b505af11580156104c8573d6000803e3d6000fd5b50506040805173ffffffffffffffffffffffffffffffffffffffff8088168252861660208201529081018490527f627d8790671c69ca7f016ebefbb435d3078c4b06334dc1869b1f9747cc1966689250606001905060405180910390a1505050565b6105996040518060e00160405280600073ffffffffffffffffffffffffffffffffffffffff168152602001600073ffffffffffffffffffffffffffffffffffffffff168152602001600060ff168152602001600081526020016000815260200160008152602001600081525090565b6040805173ffffffffffffffffffffffffffffffffffffffff858116602080840191909152600983850152835180840385018152606084018552805190820120868316608085015260a0808501919091528451808503909101815260c084019485905280519101207fb5c736e40000000000000000000000000000000000000000000000000000000090935260c48201929092526000917f0000000000000000000000000000000000000000000000000000000000000000169063b5c736e49060e401602060405180830381865afa158015610679573d6000803e3d6000fd5b505050506040513d601f19601f8201168201806040525081019061069d91906111d6565b9050801561039c576040805160e08101825273ffffffffffffffffffffffffffffffffffffffff808716825285166020820152600183169181019190915260a282901c613fff16606082015260b082901c62ffffff16608082015260a081016103ff60d084901c1660c884901c60ff161b81526020016103ff60e284901c1660ff60da85901c161b610397565b734f6f977acdd1177dcd81ab83074855ecb9c2d49e33148015906107625750731e2e1aed876f67fe4fd54090fd7b8f57ce2342193314155b1561079e576040517fd002e25a000000000000000000000000000000000000000000000000000000008152620187066004820152602401610413565b811580156107aa575080155b156107e6576040517fd002e25a000000000000000000000000000000000000000000000000000000008152620187056004820152602401610413565b604080516001808252818301909252600091816020015b61086c6040518060e00160405280600073ffffffffffffffffffffffffffffffffffffffff168152602001600073ffffffffffffffffffffffffffffffffffffffff168152602001600060ff168152602001600081526020016000815260200160008152602001600081525090565b8152602001906001900390816107fd57905050905061088b858561052a565b8160008151811061089e5761089e6111ef565b6020026020010181905250600073ffffffffffffffffffffffffffffffffffffffff16816000815181106108d4576108d46111ef565b60200260200101516000015173ffffffffffffffffffffffffffffffffffffffff1603610932576040517fd002e25a000000000000000000000000000000000000000000000000000000008152620187076004820152602401610413565b73ffffffffffffffffffffffffffffffffffffffff8086166000908152602081815260408083209388168352929052205461096c90610ec4565b82156109bf5761099a81600081518110610988576109886111ef565b602002602001015160a0015184610f12565b82816000815181106109ae576109ae6111ef565b602002602001015160a00181815250505b8115610a12576109ed816000815181106109db576109db6111ef565b602002602001015160c0015183610f12565b8181600081518110610a0157610a016111ef565b602002602001015160c00181815250505b73ffffffffffffffffffffffffffffffffffffffff808616600090815260208181526040808320888516845290915290819020429055517f01b88f860000000000000000000000000000000000000000000000000000000081527f0000000000000000000000000000000000000000000000000000000000000000909116906301b88f8690610aa590849060040161121e565b600060405180830381600087803b158015610abf57600080fd5b505af1158015610ad3573d6000803e3d6000fd5b505050507f9993e5e4e33e5e81424d8d78e624c9af32a38af8b3b3ad22481dd34bdff97ba3858583600081518110610b0d57610b0d6111ef565b602002602001015160a0015184600081518110610b2c57610b2c6111ef565b602002602001015160c00151604051610b79949392919073ffffffffffffffffffffffffffffffffffffffff94851681529290931660208301526040820152606081019190915260800190565b60405180910390a15050505050565b734f6f977acdd1177dcd81ab83074855ecb9c2d49e3314801590610bc05750731e2e1aed876f67fe4fd54090fd7b8f57ce2342193314155b15610bfc576040517fd002e25a000000000000000000000000000000000000000000000000000000008152620187066004820152602401610413565b81600003610c3b576040517fd002e25a000000000000000000000000000000000000000000000000000000008152620187056004820152602401610413565b604080516001808252818301909252600091816020015b6040805160c08101825260008082526020808301829052928201819052606082018190526080820181905260a082015282527fffffffffffffffffffffffffffffffffffffffffffffffffffffffffffffffff909201910181610c52579050509050610cbe85856101e4565b81600081518110610cd157610cd16111ef565b6020026020010181905250600073ffffffffffffffffffffffffffffffffffffffff1681600081518110610d0757610d076111ef565b60200260200101516000015173ffffffffffffffffffffffffffffffffffffffff1603610d65576040517fd002e25a000000000000000000000000000000000000000000000000000000008152620187076004820152602401610413565b81610d8057610d8081600081518110610988576109886111ef565b8281600081518110610d9457610d946111ef565b602090810291909101015160a001526040517f02c6bb6a00000000000000000000000000000000000000000000000000000000815273ffffffffffffffffffffffffffffffffffffffff7f000000000000000000000000000000000000000000000000000000000000000016906302c6bb6a90610e159084906004016112c8565b600060405180830381600087803b158015610e2f57600080fd5b505af1158015610e43573d6000803e3d6000fd5b505050507ffd796b6ed10015d0712f76347f9fe70b0e270efa667a977a24e096530291b416858583600081518110610e7d57610e7d6111ef565b602002602001015160a00151604051610b799392919073ffffffffffffffffffffffffffffffffffffffff9384168152919092166020820152604081019190915260600190565b62054600610ed2824261138b565b1015610f0f576040517fd002e25a000000000000000000000000000000000000000000000000000000008152620187096004820152602401610413565b50565b60006064610f2160148561139e565b610f2b91906113b5565b90508282118015610f44575080610f42848461138b565b115b15610f80576040517fd002e25a000000000000000000000000000000000000000000000000000000008152620187086004820152602401610413565b8282108015610f97575080610f95838561138b565b115b15610fd3576040517fd002e25a000000000000000000000000000000000000000000000000000000008152620187086004820152602401610413565b505050565b803573ffffffffffffffffffffffffffffffffffffffff81168114610ffc57600080fd5b919050565b6000806040838503121561101457600080fd5b61101d83610fd8565b915061102b60208401610fd8565b90509250929050565b60c08101611094828473ffffffffffffffffffffffffffffffffffffffff8082511683528060208301511660208401525060ff6040820151166040830152606081015160608301526080810151608083015260a081015160a08301525050565b92915050565b6000806000606084860312156110af57600080fd5b6110b884610fd8565b92506110c660208501610fd8565b9150604084013590509250925092565b60e08101611094828473ffffffffffffffffffffffffffffffffffffffff8082511683528060208301511660208401525060ff6040820151166040830152606081015160608301526080810151608083015260a081015160a083015260c081015160c08301525050565b6000806000806080858703121561115657600080fd5b61115f85610fd8565b935061116d60208601610fd8565b93969395505050506040820135916060013590565b6000806000806080858703121561119857600080fd5b6111a185610fd8565b93506111af60208601610fd8565b925060408501359150606085013580151581146111cb57600080fd5b939692955090935050565b6000602082840312156111e857600080fd5b5051919050565b7f4e487b7100000000000000000000000000000000000000000000000000000000600052603260045260246000fd5b6020808252825182820181905260009190848201906040850190845b818110156112bc576112a983855173ffffffffffffffffffffffffffffffffffffffff8082511683528060208301511660208401525060ff6040820151166040830152606081015160608301526080810151608083015260a081015160a083015260c081015160c08301525050565b9284019260e0929092019160010161123a565b50909695505050505050565b6020808252825182820181905260009190848201906040850190845b818110156112bc5761134983855173ffffffffffffffffffffffffffffffffffffffff8082511683528060208301511660208401525060ff6040820151166040830152606081015160608301526080810151608083015260a081015160a08301525050565b9284019260c092909201916001016112e4565b7f4e487b7100000000000000000000000000000000000000000000000000000000600052601160045260246000fd5b818103818111156110945761109461135c565b80820281158282048414176110945761109461135c565b6000826113eb577f4e487b7100000000000000000000000000000000000000000000000000000000600052601260045260246000fd5b50049056fea26469706673582212204885830a030c7c3f845307b3f38393dd1894573ea3de4becef2beedb96e2801364736f6c63430008150033",
  "devdoc": {
    "kind": "dev",
    "methods": {
      "setUserBorrowLimits(address,address,uint256,uint256)": {
        "details": "This function can only be called by team multisig",
        "params": {
          "baseLimit_": "The base limit for the user borrow. Set to 0 to keep current value.",
          "maxLimit_": "The max limit for the user borrow. Set to 0 to keep current value.",
          "token_": "The address of the token for which to set the user borrow limit",
          "user_": "The address of the user for which to set the user borrow limit"
        }
      },
      "setUserWithdrawLimit(address,address,uint256,bool)": {
        "params": {
          "baseLimit_": "The base limit for the user supply. Set to 0 to keep current value.",
          "skipMaxPercentChangeCheck_": "allow full range of limit check. Keep to false by default to have additional human error check.",
          "token_": "The address of the token for which to set the user withdraw limit",
          "user_": "The address of the user for which to set the user withdraw limit"
        }
      },
      "setWithdrawalLimit(address,address,uint256)": {
        "details": "This function can only be called by team multisig",
        "params": {
          "newLimit_": "The new withdrawal limit to be set",
          "token_": "The address of the token for which to set the withdrawal limit",
          "user_": "The address of the user for which to set the withdrawal limit"
        }
      }
    },
    "version": 1
  },
  "userdoc": {
    "events": {
      "LogSetUserBorrowLimits(address,address,uint256,uint256)": {
        "notice": "emitted when multisig changes the borrow limit config"
      },
      "LogSetUserWithdrawLimit(address,address,uint256)": {
        "notice": "emitted when multisig changes the withdrawal limit config"
      },
      "LogSetWithdrawalLimit(address,address,uint256)": {
        "notice": "emitted when multisig successfully changes the withdrawal limit"
      }
    },
    "kind": "user",
    "methods": {
      "TEAM_MULTISIG()": {
        "notice": "Team multisigs allowed to trigger methods"
      },
      "getUserBorrowConfig(address,address)": {
        "notice": "Returns the user borrow config for a given user and token."
      },
      "getUserSupplyConfig(address,address)": {
        "notice": "Returns the user supply config for a given user and token."
      },
      "setUserBorrowLimits(address,address,uint256,uint256)": {
        "notice": "Sets the user borrow limits for a specific token of a user, with time and max percent change restrictions.         Can only be called by team multisig."
      },
      "setUserWithdrawLimit(address,address,uint256,bool)": {
        "notice": "sets withdraw base limit without restrictions. Can only be called by team multisig."
      },
      "setWithdrawalLimit(address,address,uint256)": {
        "notice": "Sets the withdrawal limit for a specific token of a user in the liquidity"
      }
    },
    "version": 1
  },
  "storageLayout": {
    "storage": [
      {
        "astId": 4567,
        "contract": "contracts/config/limitsAuth/main.sol:FluidLimitsAuth",
        "label": "lastUpdateTime",
        "offset": 0,
        "slot": "0",
        "type": "t_mapping(t_address,t_mapping(t_address,t_uint256))"
      }
    ],
    "types": {
      "t_address": {
        "encoding": "inplace",
        "label": "address",
        "numberOfBytes": "20"
      },
      "t_mapping(t_address,t_mapping(t_address,t_uint256))": {
        "encoding": "mapping",
        "key": "t_address",
        "label": "mapping(address => mapping(address => uint256))",
        "numberOfBytes": "32",
        "value": "t_mapping(t_address,t_uint256)"
      },
      "t_mapping(t_address,t_uint256)": {
        "encoding": "mapping",
        "key": "t_address",
        "label": "mapping(address => uint256)",
        "numberOfBytes": "32",
        "value": "t_uint256"
      },
      "t_uint256": {
        "encoding": "inplace",
        "label": "uint256",
        "numberOfBytes": "32"
      }
    }
  }
}