{
  "address": "0x3C27B24E9d7f3F5B9B4914A430C34ac8f8B27006",
  "abi": [
    {
      "inputs": [
        {
          "internalType": "address",
          "name": "liquidity_",
          "type": "address"
        },
        {
          "internalType": "contract IFluidReserveContract",
          "name": "reserveContract_",
          "type": "address"
        }
      ],
      "stateMutability": "nonpayable",
      "type": "constructor"
    },
    {
      "inputs": [
        {
          "internalType": "uint256",
          "name": "errorId_",
          "type": "uint256"
        }
      ],
      "name": "FluidConfigError",
      "type": "error"
    },
    {
      "anonymous": false,
      "inputs": [
        {
          "indexed": false,
          "internalType": "address",
          "name": "token",
          "type": "address"
        }
      ],
      "name": "LogInitiateRateDateV2Params",
      "type": "event"
    },
    {
      "anonymous": false,
      "inputs": [
        {
          "indexed": false,
          "internalType": "address",
          "name": "token",
          "type": "address"
        }
      ],
      "name": "LogInitiateTokenConfig",
      "type": "event"
    },
    {
      "anonymous": false,
      "inputs": [
        {
          "indexed": false,
          "internalType": "address",
          "name": "token",
          "type": "address"
        },
        {
          "indexed": false,
          "internalType": "uint256",
          "name": "oldReserveFactor",
          "type": "uint256"
        },
        {
          "indexed": false,
          "internalType": "uint256",
          "name": "newReserveFactor",
          "type": "uint256"
        }
      ],
      "name": "LogUpdateReserveFactor",
      "type": "event"
    },
    {
      "inputs": [],
      "name": "LIQUIDITY",
      "outputs": [
        {
          "internalType": "contract IFluidLiquidity",
          "name": "",
          "type": "address"
        }
      ],
      "stateMutability": "view",
      "type": "function"
    },
    {
      "inputs": [],
      "name": "RESERVE_CONTRACT",
      "outputs": [
        {
          "internalType": "contract IFluidReserveContract",
          "name": "",
          "type": "address"
        }
      ],
      "stateMutability": "view",
      "type": "function"
    },
    {
      "inputs": [],
      "name": "TEAM_MULTISIG",
      "outputs": [
        {
          "internalType": "address",
          "name": "",
          "type": "address"
        }
      ],
      "stateMutability": "view",
      "type": "function"
    },
    {
      "inputs": [],
      "name": "TEAM_MULTISIG2",
      "outputs": [
        {
          "internalType": "address",
          "name": "",
          "type": "address"
        }
      ],
      "stateMutability": "view",
      "type": "function"
    },
    {
      "inputs": [
        {
          "internalType": "address",
          "name": "token_",
          "type": "address"
        }
      ],
      "name": "listToken",
      "outputs": [],
      "stateMutability": "nonpayable",
      "type": "function"
    },
    {
      "inputs": [
        {
          "internalType": "address",
          "name": "token_",
          "type": "address"
        },
        {
          "internalType": "uint256",
          "name": "newReserveFactor_",
          "type": "uint256"
        }
      ],
      "name": "updateReserveFactor",
      "outputs": [],
      "stateMutability": "nonpayable",
      "type": "function"
    }
  ],
  "transactionHash": "0x7f33e9c25d4ecb03a59bcf7fc4bbd57858a8b0e906f7bd638ccc10687e28d2e0",
  "args": [
    "0x52Aa899454998Be5b000Ad077a46Bbe360F4e497",
    "0x264786EF916af64a1DB19F513F24a3681734ce92"
  ],
  "numDeployments": 1,
  "solcInputHash": "5228629dba1e4b693c7dacd40c0694f4",
  "bytecode": "0x60c060405234801561001057600080fd5b5060405161103c38038061103c83398101604081905261002f916100a2565b6001600160a01b038216158061004c57506001600160a01b038116155b1561007357604051636801712d60e11b8152620186d5600482015260240160405180910390fd5b6001600160a01b039182166080521660a0526100dc565b6001600160a01b038116811461009f57600080fd5b50565b600080604083850312156100b557600080fd5b82516100c08161008a565b60208401519092506100d18161008a565b809150509250929050565b60805160a051610f056101376000396000818160f4015261017a015260008181609101528181610379015281816104bc0152818161062e015281816107830152818161095e01528181610a870152610c350152610f056000f3fe608060405234801561001057600080fd5b50600436106100725760003560e01c80636449b8d7116100505780636449b8d7146100ef57806395ae47e114610116578063b788f3a11461013157600080fd5b80631fc1e25f146100775780632861c7d11461008c578063530b9a0f146100dc575b600080fd5b61008a610085366004610d14565b61014c565b005b6100b37f000000000000000000000000000000000000000000000000000000000000000081565b60405173ffffffffffffffffffffffffffffffffffffffff909116815260200160405180910390f35b61008a6100ea366004610d36565b610293565b6100b37f000000000000000000000000000000000000000000000000000000000000000081565b6100b3731e2e1aed876f67fe4fd54090fd7b8f57ce23421981565b6100b3734f6f977acdd1177dcd81ab83074855ecb9c2d49e81565b6040517f467c9eff0000000000000000000000000000000000000000000000000000000081523360048201527f000000000000000000000000000000000000000000000000000000000000000073ffffffffffffffffffffffffffffffffffffffff169063467c9eff906024016020604051808303816000875af11580156101d8573d6000803e3d6000fd5b505050506040513d601f19601f820116820180604052508101906101fc9190610d60565b15801561021d575033734f6f977acdd1177dcd81ab83074855ecb9c2d49e14155b801561023d5750731e2e1aed876f67fe4fd54090fd7b8f57ce2342193314155b1561027e576040517fd002e25a000000000000000000000000000000000000000000000000000000008152620186d360048201526024015b60405180910390fd5b610287816106f6565b61029081610a15565b50565b33734f6f977acdd1177dcd81ab83074855ecb9c2d49e148015906102cb5750731e2e1aed876f67fe4fd54090fd7b8f57ce2342193314155b15610307576040517fd002e25a000000000000000000000000000000000000000000000000000000008152620186d36004820152602401610275565b6040805173ffffffffffffffffffffffffffffffffffffffff848116602080840191909152600583850152835180840385018152606084019485905280519101207fb5c736e40000000000000000000000000000000000000000000000000000000090935260648201929092526000917f0000000000000000000000000000000000000000000000000000000000000000169063b5c736e490608401602060405180830381865afa1580156103c0573d6000803e3d6000fd5b505050506040513d601f19601f820116820180604052508101906103e49190610d82565b905080600003610425576040517fd002e25a000000000000000000000000000000000000000000000000000000008152620186d56004820152602401610275565b602c81901c613fff9081169061271090601084901c16600160f985901c8116900361052f576040805173ffffffffffffffffffffffffffffffffffffffff888116602080840191909152600b83850152835180840385018152606084019485905280519101207fb5c736e40000000000000000000000000000000000000000000000000000000090935260648201929092526000917f0000000000000000000000000000000000000000000000000000000000000000169063b5c736e490608401602060405180830381865afa158015610503573d6000803e3d6000fd5b505050506040513d601f19601f820116820180604052508101906105279190610d82565b613fff169250505b604080516001808252818301909252600091816020015b6105876040518060800160405280600073ffffffffffffffffffffffffffffffffffffffff1681526020016000815260200160008152602001600081525090565b81526020019060019003908161054657905050905060405180608001604052808873ffffffffffffffffffffffffffffffffffffffff16815260200187815260200185815260200184815250816000815181106105e6576105e6610d9b565b60209081029190910101526040517f7f7b600200000000000000000000000000000000000000000000000000000000815273ffffffffffffffffffffffffffffffffffffffff7f00000000000000000000000000000000000000000000000000000000000000001690637f7b600290610663908490600401610dca565b600060405180830381600087803b15801561067d57600080fd5b505af1158015610691573d6000803e3d6000fd5b50506040805173ffffffffffffffffffffffffffffffffffffffff8b168152602081018690529081018990527f050f085bc40ab6c2795af9dfed0aff13c635d04e8b0ceb03179bae22262260669250606001905060405180910390a150505050505050565b6040805173ffffffffffffffffffffffffffffffffffffffff8316602080830191909152600682840152825180830384018152606090920190925280519101206000906040517fb5c736e40000000000000000000000000000000000000000000000000000000081526004810182905290915060009073ffffffffffffffffffffffffffffffffffffffff7f0000000000000000000000000000000000000000000000000000000000000000169063b5c736e490602401602060405180830381865afa1580156107ca573d6000803e3d6000fd5b505050506040513d601f19601f820116820180604052508101906107ee9190610d82565b9050801561082d576040517fd002e25a000000000000000000000000000000000000000000000000000000008152620186d46004820152602401610275565b604080516001808252818301909252600091816020015b61089a6040518060e00160405280600073ffffffffffffffffffffffffffffffffffffffff1681526020016000815260200160008152602001600081526020016000815260200160008152602001600081525090565b8152602001906001900390816108445790505090506040518060e001604052808573ffffffffffffffffffffffffffffffffffffffff1681526020016113888152602001611f408152602001600081526020016107d08152602001610fa081526020016127108152508160008151811061091657610916610d9b565b60209081029190910101526040517f9dde597700000000000000000000000000000000000000000000000000000000815273ffffffffffffffffffffffffffffffffffffffff7f00000000000000000000000000000000000000000000000000000000000000001690639dde597790610993908490600401610e44565b600060405180830381600087803b1580156109ad57600080fd5b505af11580156109c1573d6000803e3d6000fd5b505060405173ffffffffffffffffffffffffffffffffffffffff871681527fcc912061fd8601fef3f0f9e7e79106805f3a6df185a4c6e59b05592a5f3edfcd9250602001905060405180910390a150505050565b6040805173ffffffffffffffffffffffffffffffffffffffff838116602080840191909152600583850152835180840385018152606084019485905280519101207fb5c736e40000000000000000000000000000000000000000000000000000000090935260648201929092526000917f0000000000000000000000000000000000000000000000000000000000000000169063b5c736e490608401602060405180830381865afa158015610ace573d6000803e3d6000fd5b505050506040513d601f19601f82011682018060405250810190610af29190610d82565b90508015610b31576040517fd002e25a000000000000000000000000000000000000000000000000000000008152620186d46004820152602401610275565b604080516001808252818301909252600091816020015b610b896040518060800160405280600073ffffffffffffffffffffffffffffffffffffffff1681526020016000815260200160008152602001600081525090565b815260200190600190039081610b4857905050905060405180608001604052808473ffffffffffffffffffffffffffffffffffffffff1681526020016103e88152602001601e815260200161271081525081600081518110610bed57610bed610d9b565b60209081029190910101526040517f7f7b600200000000000000000000000000000000000000000000000000000000815273ffffffffffffffffffffffffffffffffffffffff7f00000000000000000000000000000000000000000000000000000000000000001690637f7b600290610c6a908490600401610dca565b600060405180830381600087803b158015610c8457600080fd5b505af1158015610c98573d6000803e3d6000fd5b505060405173ffffffffffffffffffffffffffffffffffffffff861681527febdacfb161ed8f3c947a8e385ec7dd9d3beda0362b20feffac74c715fff78bc59250602001905060405180910390a1505050565b803573ffffffffffffffffffffffffffffffffffffffff81168114610d0f57600080fd5b919050565b600060208284031215610d2657600080fd5b610d2f82610ceb565b9392505050565b60008060408385031215610d4957600080fd5b610d5283610ceb565b946020939093013593505050565b600060208284031215610d7257600080fd5b81518015158114610d2f57600080fd5b600060208284031215610d9457600080fd5b5051919050565b7f4e487b7100000000000000000000000000000000000000000000000000000000600052603260045260246000fd5b602080825282518282018190526000919060409081850190868401855b82811015610e37578151805173ffffffffffffffffffffffffffffffffffffffff168552868101518786015285810151868601526060908101519085015260809093019290850190600101610de7565b5091979650505050505050565b602080825282518282018190526000919060409081850190868401855b82811015610e37578151805173ffffffffffffffffffffffffffffffffffffffff16855286810151878601528581015186860152606080820151908601526080808201519086015260a0808201519086015260c0908101519085015260e09093019290850190600101610e6156fea264697066735822122027bf13af312b4cc7d79de733364fc97ff9e6c932bc61eca30e678412df3fad9764736f6c63430008150033",
  "devdoc": {
    "kind": "dev",
    "methods": {
      "updateReserveFactor(address,uint256)": {
        "params": {
          "newReserveFactor_": "The new reserve factor to set (in 1e2: 100% = 10_000; 1% = 100)",
          "token_": "The address of the token to update"
        }
      }
    },
    "version": 1
  },
  "userdoc": {
    "events": {
      "LogInitiateRateDateV2Params(address)": {
        "notice": "emitted when RateDataV2Params is initiated"
      },
      "LogInitiateTokenConfig(address)": {
        "notice": "emitted when TokenConfig is initiated"
      },
      "LogUpdateReserveFactor(address,uint256,uint256)": {
        "notice": "emitted when the reserve factor for a token is updated"
      }
    },
    "kind": "user",
    "methods": {
      "LIQUIDITY()": {
        "notice": "Fluid liquidity address"
      },
      "RESERVE_CONTRACT()": {
        "notice": "reserve contract for fetching allowed rebalancers"
      },
      "TEAM_MULTISIG()": {
        "notice": "Team multisig allowed to trigger collecting revenue"
      },
      "listToken(address)": {
        "notice": "Initializes rateDataV2 for a token at Liquidity Layer if token is not initialized and sets default token config"
      },
      "updateReserveFactor(address,uint256)": {
        "notice": "Updates the reserve factor for a token at Liquidity Layer"
      }
    },
    "notice": "Initializes a token at Liquidity Layer if token is not already initialized and update token reserve factor",
    "version": 1
  },
  "storageLayout": {
    "storage": [],
    "types": null
  }
}