{
  "address": "0x033A63a5b32Fdb20bfF8a77F9A9987597599959A",
  "abi": [
    {
      "inputs": [
        {
          "internalType": "string",
          "name": "infoName_",
          "type": "string"
        },
        {
          "components": [
            {
              "components": [
                {
                  "internalType": "contract IUniswapV3Pool",
                  "name": "pool",
                  "type": "address"
                },
                {
                  "internalType": "bool",
                  "name": "invertRate",
                  "type": "bool"
                },
                {
                  "internalType": "uint256[3]",
                  "name": "tWAPMaxDeltaPercents",
                  "type": "uint256[3]"
                },
                {
                  "internalType": "uint32[5]",
                  "name": "secondsAgos",
                  "type": "uint32[5]"
                }
              ],
              "internalType": "struct UniV3OracleImpl.UniV3ConstructorParams",
              "name": "uniV3Params",
              "type": "tuple"
            },
            {
              "components": [
                {
                  "internalType": "uint8",
                  "name": "hops",
                  "type": "uint8"
                },
                {
                  "components": [
                    {
                      "internalType": "contract IChainlinkAggregatorV3",
                      "name": "feed",
                      "type": "address"
                    },
                    {
                      "internalType": "bool",
                      "name": "invertRate",
                      "type": "bool"
                    },
                    {
                      "internalType": "uint256",
                      "name": "token0Decimals",
                      "type": "uint256"
                    }
                  ],
                  "internalType": "struct ChainlinkStructs.ChainlinkFeedData",
                  "name": "feed1",
                  "type": "tuple"
                },
                {
                  "components": [
                    {
                      "internalType": "contract IChainlinkAggregatorV3",
                      "name": "feed",
                      "type": "address"
                    },
                    {
                      "internalType": "bool",
                      "name": "invertRate",
                      "type": "bool"
                    },
                    {
                      "internalType": "uint256",
                      "name": "token0Decimals",
                      "type": "uint256"
                    }
                  ],
                  "internalType": "struct ChainlinkStructs.ChainlinkFeedData",
                  "name": "feed2",
                  "type": "tuple"
                },
                {
                  "components": [
                    {
                      "internalType": "contract IChainlinkAggregatorV3",
                      "name": "feed",
                      "type": "address"
                    },
                    {
                      "internalType": "bool",
                      "name": "invertRate",
                      "type": "bool"
                    },
                    {
                      "internalType": "uint256",
                      "name": "token0Decimals",
                      "type": "uint256"
                    }
                  ],
                  "internalType": "struct ChainlinkStructs.ChainlinkFeedData",
                  "name": "feed3",
                  "type": "tuple"
                }
              ],
              "internalType": "struct ChainlinkStructs.ChainlinkConstructorParams",
              "name": "chainlinkParams",
              "type": "tuple"
            },
            {
              "components": [
                {
                  "internalType": "contract IRedstoneOracle",
                  "name": "oracle",
                  "type": "address"
                },
                {
                  "internalType": "bool",
                  "name": "invertRate",
                  "type": "bool"
                },
                {
                  "internalType": "uint256",
                  "name": "token0Decimals",
                  "type": "uint256"
                }
              ],
              "internalType": "struct RedstoneStructs.RedstoneOracleData",
              "name": "redstoneOracle",
              "type": "tuple"
            },
            {
              "internalType": "uint8",
              "name": "rateSource",
              "type": "uint8"
            },
            {
              "internalType": "uint8",
              "name": "fallbackMainSource",
              "type": "uint8"
            },
            {
              "internalType": "uint256",
              "name": "rateCheckMaxDeltaPercent",
              "type": "uint256"
            }
          ],
          "internalType": "struct UniV3CheckCLRSOracle.UniV3CheckCLRSConstructorParams",
          "name": "params_",
          "type": "tuple"
        },
        {
          "internalType": "address",
          "name": "sequencerUptimeFeed_",
          "type": "address"
        }
      ],
      "stateMutability": "nonpayable",
      "type": "constructor"
    },
    {
      "inputs": [
        {
          "internalType": "uint256",
          "name": "errorId_",
          "type": "uint256"
        }
      ],
      "name": "FluidOracleError",
      "type": "error"
    },
    {
      "inputs": [],
      "name": "chainlinkOracleData",
      "outputs": [
        {
          "internalType": "uint256",
          "name": "chainlinkExchangeRate_",
          "type": "uint256"
        },
        {
          "internalType": "contract IChainlinkAggregatorV3",
          "name": "chainlinkFeed1_",
          "type": "address"
        },
        {
          "internalType": "bool",
          "name": "chainlinkInvertRate1_",
          "type": "bool"
        },
        {
          "internalType": "uint256",
          "name": "chainlinkExchangeRate1_",
          "type": "uint256"
        },
        {
          "internalType": "contract IChainlinkAggregatorV3",
          "name": "chainlinkFeed2_",
          "type": "address"
        },
        {
          "internalType": "bool",
          "name": "chainlinkInvertRate2_",
          "type": "bool"
        },
        {
          "internalType": "uint256",
          "name": "chainlinkExchangeRate2_",
          "type": "uint256"
        },
        {
          "internalType": "contract IChainlinkAggregatorV3",
          "name": "chainlinkFeed3_",
          "type": "address"
        },
        {
          "internalType": "bool",
          "name": "chainlinkInvertRate3_",
          "type": "bool"
        },
        {
          "internalType": "uint256",
          "name": "chainlinkExchangeRate3_",
          "type": "uint256"
        }
      ],
      "stateMutability": "view",
      "type": "function"
    },
    {
      "inputs": [],
      "name": "getExchangeRate",
      "outputs": [
        {
          "internalType": "uint256",
          "name": "exchangeRate_",
          "type": "uint256"
        }
      ],
      "stateMutability": "view",
      "type": "function"
    },
    {
      "inputs": [],
      "name": "getExchangeRateLiquidate",
      "outputs": [
        {
          "internalType": "uint256",
          "name": "exchangeRate_",
          "type": "uint256"
        }
      ],
      "stateMutability": "view",
      "type": "function"
    },
    {
      "inputs": [],
      "name": "getExchangeRateOperate",
      "outputs": [
        {
          "internalType": "uint256",
          "name": "exchangeRate_",
          "type": "uint256"
        }
      ],
      "stateMutability": "view",
      "type": "function"
    },
    {
      "inputs": [],
      "name": "infoName",
      "outputs": [
        {
          "internalType": "string",
          "name": "",
          "type": "string"
        }
      ],
      "stateMutability": "view",
      "type": "function"
    },
    {
      "inputs": [],
      "name": "redstoneOracleData",
      "outputs": [
        {
          "internalType": "uint256",
          "name": "redstoneExchangeRate_",
          "type": "uint256"
        },
        {
          "internalType": "contract IRedstoneOracle",
          "name": "redstoneOracle_",
          "type": "address"
        },
        {
          "internalType": "bool",
          "name": "redstoneInvertRate_",
          "type": "bool"
        }
      ],
      "stateMutability": "view",
      "type": "function"
    },
    {
      "inputs": [],
      "name": "sequencerL2Data",
      "outputs": [
        {
          "internalType": "address",
          "name": "sequencerUptimeFeed_",
          "type": "address"
        },
        {
          "internalType": "uint256",
          "name": "maxGracePeriod_",
          "type": "uint256"
        },
        {
          "internalType": "bool",
          "name": "isSequencerUp_",
          "type": "bool"
        },
        {
          "internalType": "uint256",
          "name": "lastUptimeStartedAt_",
          "type": "uint256"
        },
        {
          "internalType": "uint256",
          "name": "gracePeriod_",
          "type": "uint256"
        },
        {
          "internalType": "bool",
          "name": "gracePeriodPassed_",
          "type": "bool"
        },
        {
          "internalType": "uint256",
          "name": "lastOutageStartedAt_",
          "type": "uint256"
        },
        {
          "internalType": "bool",
          "name": "isSequencerUpAndValid_",
          "type": "bool"
        }
      ],
      "stateMutability": "view",
      "type": "function"
    },
    {
      "inputs": [],
      "name": "uniV3CheckOracleData",
      "outputs": [
        {
          "internalType": "uint256",
          "name": "rateCheckMaxDelta_",
          "type": "uint256"
        },
        {
          "internalType": "uint256",
          "name": "rateSource_",
          "type": "uint256"
        },
        {
          "internalType": "uint256",
          "name": "fallbackMainSource_",
          "type": "uint256"
        }
      ],
      "stateMutability": "view",
      "type": "function"
    },
    {
      "inputs": [],
      "name": "uniV3OracleData",
      "outputs": [
        {
          "internalType": "contract IUniswapV3Pool",
          "name": "uniV3Pool_",
          "type": "address"
        },
        {
          "internalType": "bool",
          "name": "uniV3InvertRate_",
          "type": "bool"
        },
        {
          "internalType": "uint32[]",
          "name": "uniV3secondsAgos_",
          "type": "uint32[]"
        },
        {
          "internalType": "uint256[]",
          "name": "uniV3TwapDeltas_",
          "type": "uint256[]"
        },
        {
          "internalType": "uint256",
          "name": "uniV3exchangeRateUnsafe_",
          "type": "uint256"
        },
        {
          "internalType": "uint256",
          "name": "uniV3exchangeRate_",
          "type": "uint256"
        }
      ],
      "stateMutability": "view",
      "type": "function"
    }
  ],
  "transactionHash": "0xbbb9d8c293a0efc5209d0736889f9283810186ae8911d018db8bff4c5df66fc2",
  "args": [
    "WBTC for 1 ETH",
    {
      "chainlinkParams": {
        "hops": 2,
        "feed1": {
          "feed": "0x639Fe6ab55C921f74e7fac1ee960C0B6293ba612",
          "invertRate": false,
          "token0Decimals": 18
        },
        "feed2": {
          "feed": "0xd0C7101eACbB49F3deCcCc166d238410D6D46d57",
          "invertRate": true,
          "token0Decimals": 8
        },
        "feed3": {
          "feed": "0x0000000000000000000000000000000000000000",
          "invertRate": false,
          "token0Decimals": 0
        }
      },
      "uniV3Params": {
        "pool": "0x2f5e87C9312fa29aed5c179E456625D79015299c",
        "secondsAgos": [
          240,
          60,
          15,
          1,
          0
        ],
        "tWAPMaxDeltaPercents": [
          200,
          50,
          20
        ],
        "invertRate": true
      },
      "redstoneOracle": {
        "oracle": "0x0000000000000000000000000000000000000000",
        "invertRate": false,
        "token0Decimals": 0
      },
      "rateSource": 2,
      "fallbackMainSource": 1,
      "rateCheckMaxDeltaPercent": 300
    },
    "0xFdB631F5EE196F0ed6FAa767959853A9F217697D"
  ],
  "numDeployments": 1,
  "solcInputHash": "5d78d155513f9ca86c9089c3455a1caa",
  "bytecode": "0x61052060405261dead610320523480156200001957600080fd5b5060405162003e6338038062003e638339810160408190526200003c9162000b23565b82828060800151816020015182604001518160006001600160a01b031682600001516001600160a01b031614620000745781620000a0565b6040518060600160405280610320516001600160a01b0316815260200160001515815260200160018152505b8551600080546001600160a01b0319166001600160a01b038b161790558751889060201080620000cf57508051155b15620000f75760405163c82fc46560e01b815261ea6a60048201526024015b60405180910390fd5b6020015160805280516001600160a01b03166200012c5760405163c82fc46560e01b815261f2316004820152602401620000ee565b60608101516020810151905163ffffffff91821691161115806200016c57506060810151604081015163ffffffff16906001602002015163ffffffff1611155b806200019457506060818101519081015163ffffffff16906002602002015163ffffffff1611155b80620001bc57506060810151608081015163ffffffff16906003602002015163ffffffff1611155b15620001e05760405163c82fc46560e01b815261f2326004820152602401620000ee565b60408101515161271011158062000201575060408101518051602090910151115b806200021857506040818101516020810151910151115b156200023c5760405163c82fc46560e01b815261f2336004820152602401620000ee565b606081810180515163ffffffff90811661014052815160209081015182166101605282516040015182166101805282519093015181166101a052815160800151166101c0525190810151905162000294919062000c17565b63ffffffff166101e05260608101516040810151602090910151620002ba919062000c17565b63ffffffff166102005260608181015190810151604090910151620002e0919062000c17565b63ffffffff1661022052606081810151608081015191015162000304919062000c17565b63ffffffff1661024052604081810180515160e0528051602090810151610100529051909101516101205281516001600160a01b031660a052810151151560c05262000353601b600a62000d3d565b6102605262000365601b600262000d52565b6200037290600a62000d3d565b610280525080516001600160a01b031615806200039157506040810151155b15620003b55760405163c82fc46560e01b815261fa016004820152602401620000ee565b80516001600160a01b039081166102a052602082015115156102c052610320518251821691161462000406576040810151620003f390601b62000d6c565b6200040090600a62000d3d565b62000409565b60015b6102e0526103205181516001600160a01b039081169116146200044b5760408101516200043890601b62000d82565b6200044590600a62000d3d565b6200044e565b60015b61030052508051600160ff90911610806200047057506003816000015160ff16115b806200049957506020810151516001600160a01b03161580620004995750602081015160400151155b80620004d457506001816000015160ff16118015620004d457506040810151516001600160a01b03161580620004d457506040808201510151155b806200051057506002816000015160ff161180156200051057506060810151516001600160a01b03161580620005105750606081015160400151155b15620005345760405163c82fc46560e01b815261ee496004820152602401620000ee565b60208082018051516001600160a01b039081166103405260408085018051518316610360526060860180515190931661038052835185015115156103a0525184015115156103c05290519092015115156103e0525101516200059890601b62000d6c565b620005a590600a62000d3d565b61040052602081015160400151620005bf90601b62000d82565b620005cc90600a62000d3d565b610420528051600160ff90911611620005e757600162000609565b6040808201510151620005fc90601b62000d6c565b6200060990600a62000d3d565b610440528051600160ff909116116200062457600162000646565b60408082015101516200063990601b62000d82565b6200064690600a62000d3d565b610460528051600260ff909116116200066157600162000684565b6060810151604001516200067790601b62000d6c565b6200068490600a62000d3d565b610480528051600260ff909116116200069f576001620006c2565b606081015160400151620006b590601b62000d82565b620006c290600a62000d3d565b6104a05250600160ff84161080620006dd575060038360ff16115b15620007015760405163c82fc46560e01b815261fde96004820152602401620000ee565b505060ff9081166104c05260608201516001911610806200072957506003816060015160ff16115b806200073a57506127108160a00151115b80620007605750806080015160ff166001148015620007605750806060015160ff166003145b15620007845760405163c82fc46560e01b815261ea626004820152602401620000ee565b60a08101516104e0526060015160ff16610500525062000d9892505050565b634e487b7160e01b600052604160045260246000fd5b604051606081016001600160401b0381118282101715620007de57620007de620007a3565b60405290565b604051608081016001600160401b0381118282101715620007de57620007de620007a3565b60405160c081016001600160401b0381118282101715620007de57620007de620007a3565b604051601f8201601f191681016001600160401b0381118282101715620008595762000859620007a3565b604052919050565b6001600160a01b03811681146200087757600080fd5b50565b805180151581146200088b57600080fd5b919050565b600082601f830112620008a257600080fd5b60405160a081016001600160401b0381118282101715620008c757620008c7620007a3565b6040528060a0840185811115620008dd57600080fd5b845b818110156200090d57805163ffffffff81168114620008fe5760008081fd5b835260209283019201620008df565b509195945050505050565b805160ff811681146200088b57600080fd5b6000606082840312156200093d57600080fd5b62000947620007b9565b90508151620009568162000861565b815262000966602083016200087a565b60208201526040820151604082015292915050565b600061014082840312156200098f57600080fd5b62000999620007e4565b9050620009a68262000918565b8152620009b783602084016200092a565b6020820152620009cb83608084016200092a565b6040820152620009df8360e084016200092a565b606082015292915050565b6000818303610340811215620009ff57600080fd5b62000a0962000809565b91506101408082121562000a1c57600080fd5b62000a26620007e4565b9150835162000a358162000861565b8252602062000a468582016200087a565b8184015285605f86011262000a5a57600080fd5b62000a64620007b9565b8060a087018881111562000a7757600080fd5b604088015b8181101562000a95578051845292840192840162000a7c565b5081604087015262000aa8898262000890565b606087015250505082845262000ac1868387016200097b565b8185015250505062000ad88361028084016200092a565b604082015262000aec6102e0830162000918565b606082015262000b00610300830162000918565b608082015261032082015160a082015292915050565b80516200088b8162000861565b6000806000610380848603121562000b3a57600080fd5b83516001600160401b038082111562000b5257600080fd5b818601915086601f83011262000b6757600080fd5b81518181111562000b7c5762000b7c620007a3565b6020915062000b94601f8201601f191683016200082e565b818152888383860101111562000ba957600080fd5b60005b8281101562000bc957848101840151828201850152830162000bac565b506000838383010152809650505062000be587828801620009ea565b9350505062000bf8610360850162000b16565b90509250925092565b634e487b7160e01b600052601160045260246000fd5b63ffffffff82811682821603908082111562000c375762000c3762000c01565b5092915050565b600181815b8085111562000c7f57816000190482111562000c635762000c6362000c01565b8085161562000c7157918102915b93841c939080029062000c43565b509250929050565b60008262000c985750600162000d37565b8162000ca75750600062000d37565b816001811462000cc0576002811462000ccb5762000ceb565b600191505062000d37565b60ff84111562000cdf5762000cdf62000c01565b50506001821b62000d37565b5060208310610133831016604e8410600b841016171562000d10575081810a62000d37565b62000d1c838362000c3e565b806000190482111562000d335762000d3362000c01565b0290505b92915050565b600062000d4b838362000c87565b9392505050565b808202811582820484141762000d375762000d3762000c01565b8181038181111562000d375762000d3762000c01565b8082018082111562000d375762000d3762000c01565b60805160a05160c05160e05161010051610120516101405161016051610180516101a0516101c0516101e05161020051610220516102405161026051610280516102a0516102c0516102e05161030051610320516103405161036051610380516103a0516103c0516103e05161040051610420516104405161046051610480516104a0516104c0516104e05161050051612dba620010a96000396000818161014b015281816119bc01528181611a3201528181611bad01528181611c3e01528181611ca80152611d7a01526000818161012601528181611b5101528181611cf60152611db401526000818161017301528181611b8201528181611c1301528181611c6f015281816123b5015281816123ee015261242701526000818161052a0152610e460152600081816105090152610e250152600081816104380152610d4f0152600081816104170152610d2e01526000818161034e0152610c6c01526000818161032d0152610c4b015260008181610487015281816104e80152610e04015260008181610395015281816103f60152610d0d0152600081816102c70152818161030c0152610c2a015260008181610466015281816104c701528181610d930152610de3015260008181610374015281816103d501528181610c9c0152610cec0152600081816102a6015281816102eb0152610c090152600061057d0152600061101c0152600061104b0152600081816106240152610ff20152600081816105b4015281816106010152610f4301526000611e5e01526000611e1201526000818161140501526114480152600061161d01526000611584015260006114eb0152600081816107d001526112d201526000818161078201526112ac01526000818161073401526112860152600081816106e60152611260015260008181610698015261123a0152600081816108b8015261163e01526000818161087801526115a5015260008181610838015261150c015260008181610919015281816111bd01526116880152600081816108f801528181611126015261131501526000818161096f0152610a340152612dba6000f3fe608060405234801561001057600080fd5b50600436106100a35760003560e01c8063a6ac913411610076578063dc4595121161005b578063dc45951214610221578063e6aa216c14610285578063f3190c89146101dc57600080fd5b8063a6ac9134146101f2578063abd5f95d1461020c57600080fd5b80637557ca41146100a85780637cebd7c51461012057806388c35209146101a25780638e7bfbc0146101dc575b600080fd5b6100b061028d565b604080519a8b5273ffffffffffffffffffffffffffffffffffffffff998a1660208c0152971515978a01979097526060890195909552928616608088015290151560a087015260c086015290921660e0840152901515610100830152610120820152610140015b60405180910390f35b604080517f0000000000000000000000000000000000000000000000000000000000000000815260ff7f0000000000000000000000000000000000000000000000000000000000000000811660208301527f00000000000000000000000000000000000000000000000000000000000000001691810191909152606001610117565b6101aa610576565b6040805193845273ffffffffffffffffffffffffffffffffffffffff9092166020840152151590820152606001610117565b6101e4610649565b604051908152602001610117565b6101fa610660565b604051610117969594939291906126cf565b61021461095d565b6040516101179190612784565b610229610ac2565b6040805173ffffffffffffffffffffffffffffffffffffffff909916895260208901979097529415159587019590955260608601929092526080850152151560a084015260c0830191909152151560e082015261010001610117565b6101e4610bf8565b6000806000806000806000806000806102a4610c02565b7f00000000000000000000000000000000000000000000000000000000000000007f00000000000000000000000000000000000000000000000000000000000000006103727f00000000000000000000000000000000000000000000000000000000000000007f00000000000000000000000000000000000000000000000000000000000000007f00000000000000000000000000000000000000000000000000000000000000007f0000000000000000000000000000000000000000000000000000000000000000610e7e565b7f00000000000000000000000000000000000000000000000000000000000000007f000000000000000000000000000000000000000000000000000000000000000073ffffffffffffffffffffffffffffffffffffffff8216156104615761045c7f00000000000000000000000000000000000000000000000000000000000000007f00000000000000000000000000000000000000000000000000000000000000007f00000000000000000000000000000000000000000000000000000000000000007f0000000000000000000000000000000000000000000000000000000000000000610e7e565b610464565b60005b7f00000000000000000000000000000000000000000000000000000000000000007f000000000000000000000000000000000000000000000000000000000000000073ffffffffffffffffffffffffffffffffffffffff8216156105535761054e7f00000000000000000000000000000000000000000000000000000000000000007f00000000000000000000000000000000000000000000000000000000000000007f00000000000000000000000000000000000000000000000000000000000000007f0000000000000000000000000000000000000000000000000000000000000000610e7e565b610556565b60005b995099509950995099509950995099509950995090919293949596979899565b60008060007f000000000000000000000000000000000000000000000000000000000000000073ffffffffffffffffffffffffffffffffffffffff167f000000000000000000000000000000000000000000000000000000000000000073ffffffffffffffffffffffffffffffffffffffff16146105fb576105f6610f3f565b6105fe565b60005b937f000000000000000000000000000000000000000000000000000000000000000093507f000000000000000000000000000000000000000000000000000000000000000092509050565b6000610653611073565b61065b611117565b905090565b60008060608082806005604051908082528060200260200182016040528015610693578160200160208202803683370190505b5093507f0000000000000000000000000000000000000000000000000000000000000000846000815181106106ca576106ca612804565b602002602001019063ffffffff16908163ffffffff16815250507f00000000000000000000000000000000000000000000000000000000000000008460018151811061071857610718612804565b602002602001019063ffffffff16908163ffffffff16815250507f00000000000000000000000000000000000000000000000000000000000000008460028151811061076657610766612804565b602002602001019063ffffffff16908163ffffffff16815250507f0000000000000000000000000000000000000000000000000000000000000000846003815181106107b4576107b4612804565b602002602001019063ffffffff16908163ffffffff16815250507f00000000000000000000000000000000000000000000000000000000000000008460048151811061080257610802612804565b63ffffffff92909216602092830291909101820152604080516003808252608082019092529182016060803683370190505092507f00000000000000000000000000000000000000000000000000000000000000008360008151811061086a5761086a612804565b6020026020010181815250507f0000000000000000000000000000000000000000000000000000000000000000836001815181106108aa576108aa612804565b6020026020010181815250507f0000000000000000000000000000000000000000000000000000000000000000836002815181106108ea576108ea612804565b6020026020010181815250507f00000000000000000000000000000000000000000000000000000000000000007f00000000000000000000000000000000000000000000000000000000000000008585610942611121565b61094a6111ff565b949b939a50919850965094509092509050565b606060005b6020811080156109c857507f0000000000000000000000000000000000000000000000000000000000000000816020811061099f5761099f612804565b1a60f81b7fff000000000000000000000000000000000000000000000000000000000000001615155b156109df57806109d781612862565b915050610962565b60008167ffffffffffffffff8111156109fa576109fa6127d5565b6040519080825280601f01601f191660200182016040528015610a24576020820181803683370190505b50905060005b82811015610abb577f00000000000000000000000000000000000000000000000000000000000000008160208110610a6457610a64612804565b1a60f81b828281518110610a7a57610a7a612804565b60200101907effffffffffffffffffffffffffffffffffffffffffffffffffffffffffffff1916908160001a90535080610ab381612862565b915050610a2a565b5092915050565b6000806000806000806000806000610ad86116c0565b91985090965090508615610afc57610af0818761186d565b91965094509250610bb2565b610a8c945060008060009054906101000a900473ffffffffffffffffffffffffffffffffffffffff1673ffffffffffffffffffffffffffffffffffffffff1663feaf968c6040518163ffffffff1660e01b815260040160a060405180830381865afa158015610b6f573d6000803e3d6000fd5b505050506040513d601f19601f82011682018060405250810190610b9391906128b9565b505050509050610bae816001610ba99190612909565b6118d7565b9350505b60005473ffffffffffffffffffffffffffffffffffffffff16610a8c8888888888848015610bdd57508a5b98509850985098509850985098509850509091929394959697565b600061065b610649565b6000610c907f00000000000000000000000000000000000000000000000000000000000000007f00000000000000000000000000000000000000000000000000000000000000007f00000000000000000000000000000000000000000000000000000000000000007f0000000000000000000000000000000000000000000000000000000000000000610e7e565b9050801580610cd357507f000000000000000000000000000000000000000000000000000000000000000073ffffffffffffffffffffffffffffffffffffffff16155b15610cdb5790565b610ce7601b600a612a4c565b610d737f00000000000000000000000000000000000000000000000000000000000000007f00000000000000000000000000000000000000000000000000000000000000007f00000000000000000000000000000000000000000000000000000000000000007f0000000000000000000000000000000000000000000000000000000000000000610e7e565b610d7d9083612a58565b610d879190612a9e565b9050801580610dca57507f000000000000000000000000000000000000000000000000000000000000000073ffffffffffffffffffffffffffffffffffffffff16155b15610dd25790565b610dde601b600a612a4c565b610e6a7f00000000000000000000000000000000000000000000000000000000000000007f00000000000000000000000000000000000000000000000000000000000000007f00000000000000000000000000000000000000000000000000000000000000007f0000000000000000000000000000000000000000000000000000000000000000610e7e565b610e749083612a58565b61065b9190612a9e565b60008473ffffffffffffffffffffffffffffffffffffffff1663feaf968c6040518163ffffffff1660e01b815260040160a060405180830381865afa925050508015610f05575060408051601f3d9081017fffffffffffffffffffffffffffffffffffffffffffffffffffffffffffffffe0168201909252610f02918101906128b9565b60015b610f1157506000610f37565b8815610f2d57610f218488612a9e565b95505050505050610f37565b610f218885612a58565b949350505050565b60007f000000000000000000000000000000000000000000000000000000000000000073ffffffffffffffffffffffffffffffffffffffff1663e6aa216c6040518163ffffffff1660e01b8152600401602060405180830381865afa925050508015610fe6575060408051601f3d9081017fffffffffffffffffffffffffffffffffffffffffffffffffffffffffffffffe0168201909252610fe391810190612ab2565b60015b610ff05750600090565b7f00000000000000000000000000000000000000000000000000000000000000001561104657611040817f0000000000000000000000000000000000000000000000000000000000000000612a9e565b91505090565b6110407f000000000000000000000000000000000000000000000000000000000000000082612a58565b90565b60008060006110806116c0565b925092509250826110c6576040517fc82fc46500000000000000000000000000000000000000000000000000000000815261ea6060048201526024015b60405180910390fd5b60006110d2838361186d565b5091505080611111576040517fc82fc46500000000000000000000000000000000000000000000000000000000815261ea6060048201526024016110bd565b50505050565b600061065b6119b8565b6000807f000000000000000000000000000000000000000000000000000000000000000073ffffffffffffffffffffffffffffffffffffffff16633850c7bd6040518163ffffffff1660e01b815260040160e060405180830381865afa15801561118f573d6000803e3d6000fd5b505050506040513d601f19601f820116820180604052508101906111b39190612aed565b50505050505090507f00000000000000000000000000000000000000000000000000000000000000006111ee576111e981611deb565b611040565b6110406111fa82611deb565b611e56565b6040517f883bdbfd000000000000000000000000000000000000000000000000000000006020808301919091526024820152600560448201527f000000000000000000000000000000000000000000000000000000000000000060648201527f000000000000000000000000000000000000000000000000000000000000000060848201527f000000000000000000000000000000000000000000000000000000000000000060a48201527f000000000000000000000000000000000000000000000000000000000000000060c48201527f000000000000000000000000000000000000000000000000000000000000000060e482015260009081906101040160405160208183030381529060405290506000807f000000000000000000000000000000000000000000000000000000000000000073ffffffffffffffffffffffffffffffffffffffff16836040516113589190612ba0565b600060405180830381855afa9150503d8060008114611393576040519150601f19603f3d011682016040523d82523d6000602084013e611398565b606091505b5091509150816113ac576000935050505090565b6000818060200190518101906113c29190612bce565b9050600080826003815181106113da576113da612804565b6020026020010151836003600101815181106113f8576113f8612804565b60200260200101510390507f00000000000000000000000000000000000000000000000000000000000000008160060b8161143557611435612a6f565b05915060008160060b12801561147c57507f00000000000000000000000000000000000000000000000000000000000000008160060b8161147857611478612a6f565b0715155b156114a7577fffffffffffffffffffffffffffffffffffffffffffffffffffffffffffffffff909101905b506115308160020b836000815181106114c2576114c2612804565b6020026020010151846001815181106114dd576114dd612804565b60200260200101510360060b7f00000000000000000000000000000000000000000000000000000000000000007f0000000000000000000000000000000000000000000000000000000000000000611e82565b156115415760009550505050505090565b6115c98160020b8360018151811061155b5761155b612804565b60200260200101518460028151811061157657611576612804565b60200260200101510360060b7f00000000000000000000000000000000000000000000000000000000000000007f0000000000000000000000000000000000000000000000000000000000000000611e82565b156115da5760009550505050505090565b6116628160020b836002815181106115f4576115f4612804565b60200260200101518460038151811061160f5761160f612804565b60200260200101510360060b7f00000000000000000000000000000000000000000000000000000000000000007f0000000000000000000000000000000000000000000000000000000000000000611e82565b156116735760009550505050505090565b61168461167f82611f09565b611deb565b95507f0000000000000000000000000000000000000000000000000000000000000000156116b8576116b586611e56565b95505b505050505090565b60008060008060008060008054906101000a900473ffffffffffffffffffffffffffffffffffffffff1673ffffffffffffffffffffffffffffffffffffffff1663feaf968c6040518163ffffffff1660e01b815260040160a060405180830381865afa158015611734573d6000803e3d6000fd5b505050506040513d601f19601f8201168201806040525081019061175891906128b9565b505092509250925081600014611778575060009586955085945092505050565b600195508294508093506000841115611865575b60005473ffffffffffffffffffffffffffffffffffffffff16639a6fc8f56117b5600186612cb1565b6040517fffffffff0000000000000000000000000000000000000000000000000000000060e084901b16815269ffffffffffffffffffff909116600482015260240160a060405180830381865afa158015611814573d6000803e3d6000fd5b505050506040513d601f19601f8201168201806040525081019061183891906128b9565b509295509093509150506000829003611852578294508093505b811580156118605750600081115b61178c575b505050909192565b600080808061187c8542612cd4565b905084158061188c5750610a8c81115b156118a457610a8c60016000935093509350506118d0565b6118ad866118d7565b91506118b98286612cd4565b9350610a8c8411156118cb57610a8c93505b831091505b9250925092565b60008181805b60005473ffffffffffffffffffffffffffffffffffffffff16639a6fc8f5611906600186612cb1565b6040517fffffffff0000000000000000000000000000000000000000000000000000000060e084901b16815269ffffffffffffffffffff909116600482015260240160a060405180830381865afa158015611965573d6000803e3d6000fd5b505050506040513d601f19601f8201168201806040525081019061198991906128b9565b50929550909350915050811561199d578093505b81158015906119ac5750600081115b6118dd57505050919050565b60007f000000000000000000000000000000000000000000000000000000000000000060ff16600103611a2d576119ed6111ff565b905080600003611070576040517fc82fc46500000000000000000000000000000000000000000000000000000000815261ea6360048201526024016110bd565b6000807f000000000000000000000000000000000000000000000000000000000000000060ff16600203611ada57611a636111ff565b925082600003611aba57611a7561239e565b925082600003611ab5576040517fc82fc46500000000000000000000000000000000000000000000000000000000815261ea6360048201526024016110bd565b505090565b611ac26123e9565b90925090506000829003611ad557505090565b611b4a565b611ae26123e9565b9093509050611aef6111ff565b915082600003611b3d5781600003611b37576040517fc82fc46500000000000000000000000000000000000000000000000000000000815261ea6360048201526024016110bd565b50919050565b81600003611b4a57505090565b611b7583837f000000000000000000000000000000000000000000000000000000000000000061248e565b15611ab5578015611c11577f000000000000000000000000000000000000000000000000000000000000000060ff16600303611bdb577f000000000000000000000000000000000000000000000000000000000000000060ff16600214611b3757505090565b6040517fc82fc46500000000000000000000000000000000000000000000000000000000815261ea6160048201526024016110bd565b7f000000000000000000000000000000000000000000000000000000000000000060ff16600103611c6d577f000000000000000000000000000000000000000000000000000000000000000060ff16600203611ab55750919050565b7f000000000000000000000000000000000000000000000000000000000000000060ff16600203611d2e576000611ca2610f3f565b905060007f000000000000000000000000000000000000000000000000000000000000000060ff16600203611cda5750918290611cdf565b509283905b81600003611cef57949350505050565b611d1a85857f000000000000000000000000000000000000000000000000000000000000000061248e565b15611d2757949350505050565b5050505090565b6000611d38610c02565b905080600003611d78576040517fc82fc46500000000000000000000000000000000000000000000000000000000815261ea6160048201526024016110bd565b7f000000000000000000000000000000000000000000000000000000000000000060ff16600303611daa579392505050565b809250611dd884847f000000000000000000000000000000000000000000000000000000000000000061248e565b15611de557509092915050565b50505090565b6000611e50611e1073ffffffffffffffffffffffffffffffffffffffff841680612a58565b7f000000000000000000000000000000000000000000000000000000000000000078010000000000000000000000000000000000000000000000006124d4565b92915050565b6000611e50827f0000000000000000000000000000000000000000000000000000000000000000612a9e565b600080838581611e9457611e94612a6f565b059050600085128015611eb55750838581611eb157611eb1612a6f565b0715155b15611edd577fffffffffffffffffffffffffffffffffffffffffffffffffffffffffffffffff015b828101861380611eee575082810386125b15611efd576001915050610f37565b50600095945050505050565b60008060008360020b12611f20578260020b611f2d565b8260020b611f2d90612ce7565b9050611f587ffffffffffffffffffffffffffffffffffffffffffffffffffffffffffff27618612d1f565b60020b811115611fc4576040517f08c379a000000000000000000000000000000000000000000000000000000000815260206004820152600160248201527f540000000000000000000000000000000000000000000000000000000000000060448201526064016110bd565b600081600116600003611fe857700100000000000000000000000000000000611ffa565b6ffffcb933bd6fad37aa2d162d1a5940015b70ffffffffffffffffffffffffffffffffff1690506002821615612039576080612034826ffff97272373d413259a46990580e213a612a58565b901c90505b600482161561206357608061205e826ffff2e50f5f656932ef12357cf3c7fdcc612a58565b901c90505b600882161561208d576080612088826fffe5caca7e10e4e61c3624eaa0941cd0612a58565b901c90505b60108216156120b75760806120b2826fffcb9843d60f6159c9db58835c926644612a58565b901c90505b60208216156120e15760806120dc826fff973b41fa98c081472e6896dfb254c0612a58565b901c90505b604082161561210b576080612106826fff2ea16466c96a3843ec78b326b52861612a58565b901c90505b6080821615612135576080612130826ffe5dee046a99a2a811c461f1969c3053612a58565b901c90505b61010082161561216057608061215b826ffcbe86c7900a88aedcffc83b479aa3a4612a58565b901c90505b61020082161561218b576080612186826ff987a7253ac413176f2b074cf7815e54612a58565b901c90505b6104008216156121b65760806121b1826ff3392b0822b70005940c7a398e4b70f3612a58565b901c90505b6108008216156121e15760806121dc826fe7159475a2c29b7443b29c7fa6e889d9612a58565b901c90505b61100082161561220c576080612207826fd097f3bdfd2022b8845ad8f792aa5825612a58565b901c90505b612000821615612237576080612232826fa9f746462d870fdf8a65dc1f90e061e5612a58565b901c90505b61400082161561226257608061225d826f70d869a156d2a1b890bb3df62baf32f7612a58565b901c90505b61800082161561228d576080612288826f31be135f97d08fd981231505542fcfa6612a58565b901c90505b620100008216156122b95760806122b4826f09aa508b5b7a84e1c677de54f3e99bc9612a58565b901c90505b620200008216156122e45760806122df826e5d6af8dedb81196699c329225ee604612a58565b901c90505b6204000082161561230e576080612309826d2216e584f5fa1ea926041bedfe98612a58565b901c90505b62080000821615612336576080612331826b048a170391f7dc42444e8fa2612a58565b901c90505b60008460020b131561236f5761236c817fffffffffffffffffffffffffffffffffffffffffffffffffffffffffffffffff612a9e565b90505b61237e64010000000082612d5d565b1561238a57600161238d565b60005b610f379060ff16602083901c612d71565b60006123a8610c02565b9050801580156123dc57507f000000000000000000000000000000000000000000000000000000000000000060ff16600114155b156110705761065b610f3f565b6000807f000000000000000000000000000000000000000000000000000000000000000060ff166001036124255761241f610c02565b91509091565b7f000000000000000000000000000000000000000000000000000000000000000060ff1660020361247157612458610c02565b91508160000361246d5750600161241f610f3f565b9091565b612479610f3f565b91508160000361246d5750600161241f610c02565b60008061271061249e8486612a58565b6124a89190612a9e565b90506124b48185612d71565b8511806124c957506124c68185612cd4565b85105b9150505b9392505050565b600080807fffffffffffffffffffffffffffffffffffffffffffffffffffffffffffffffff8587098587029250828110838203039150508060000361252b576000841161252057600080fd5b5082900490506124cd565b80841161253757600080fd5b600084868809808403938111909203919050600085612576817fffffffffffffffffffffffffffffffffffffffffffffffffffffffffffffffff612cd4565b612581906001612d71565b169586900495938490049360008190030460010190506125a18184612a58565b9093179260006125b2876003612a58565b60021890506125c18188612a58565b6125cc906002612cd4565b6125d69082612a58565b90506125e28188612a58565b6125ed906002612cd4565b6125f79082612a58565b90506126038188612a58565b61260e906002612cd4565b6126189082612a58565b90506126248188612a58565b61262f906002612cd4565b6126399082612a58565b90506126458188612a58565b612650906002612cd4565b61265a9082612a58565b90506126668188612a58565b612671906002612cd4565b61267b9082612a58565b90506126878186612a58565b9998505050505050505050565b600081518084526020808501945080840160005b838110156126c4578151875295820195908201906001016126a8565b509495945050505050565b600060c0820173ffffffffffffffffffffffffffffffffffffffff8916835260208815158185015260c0604085015281885180845260e086019150828a01935060005b8181101561273457845163ffffffff1683529383019391830191600101612712565b505084810360608601526127488189612694565b60808601979097525050505060a00152949350505050565b60005b8381101561277b578181015183820152602001612763565b50506000910152565b60208152600082518060208401526127a3816040850160208701612760565b601f017fffffffffffffffffffffffffffffffffffffffffffffffffffffffffffffffe0169190910160400192915050565b7f4e487b7100000000000000000000000000000000000000000000000000000000600052604160045260246000fd5b7f4e487b7100000000000000000000000000000000000000000000000000000000600052603260045260246000fd5b7f4e487b7100000000000000000000000000000000000000000000000000000000600052601160045260246000fd5b60007fffffffffffffffffffffffffffffffffffffffffffffffffffffffffffffffff820361289357612893612833565b5060010190565b805169ffffffffffffffffffff811681146128b457600080fd5b919050565b600080600080600060a086880312156128d157600080fd5b6128da8661289a565b94506020860151935060408601519250606086015191506128fd6080870161289a565b90509295509295909350565b69ffffffffffffffffffff818116838216019080821115610abb57610abb612833565b600181815b8085111561298557817fffffffffffffffffffffffffffffffffffffffffffffffffffffffffffffffff0482111561296b5761296b612833565b8085161561297857918102915b93841c9390800290612931565b509250929050565b60008261299c57506001611e50565b816129a957506000611e50565b81600181146129bf57600281146129c9576129e5565b6001915050611e50565b60ff8411156129da576129da612833565b50506001821b611e50565b5060208310610133831016604e8410600b8410161715612a08575081810a611e50565b612a12838361292c565b807fffffffffffffffffffffffffffffffffffffffffffffffffffffffffffffffff04821115612a4457612a44612833565b029392505050565b60006124cd838361298d565b8082028115828204841417611e5057611e50612833565b7f4e487b7100000000000000000000000000000000000000000000000000000000600052601260045260246000fd5b600082612aad57612aad612a6f565b500490565b600060208284031215612ac457600080fd5b5051919050565b805161ffff811681146128b457600080fd5b805180151581146128b457600080fd5b600080600080600080600060e0888a031215612b0857600080fd5b875173ffffffffffffffffffffffffffffffffffffffff81168114612b2c57600080fd5b8097505060208801518060020b8114612b4457600080fd5b9550612b5260408901612acb565b9450612b6060608901612acb565b9350612b6e60808901612acb565b925060a088015160ff81168114612b8457600080fd5b9150612b9260c08901612add565b905092959891949750929550565b60008251612bb2818460208701612760565b9190910192915050565b8051600681900b81146128b457600080fd5b60006020808385031215612be157600080fd5b825167ffffffffffffffff80821115612bf957600080fd5b818501915085601f830112612c0d57600080fd5b815181811115612c1f57612c1f6127d5565b8060051b6040517fffffffffffffffffffffffffffffffffffffffffffffffffffffffffffffffe0603f83011681018181108582111715612c6257612c626127d5565b604052918252848201925083810185019188831115612c8057600080fd5b938501935b82851015612ca557612c9685612bbc565b84529385019392850192612c85565b98975050505050505050565b69ffffffffffffffffffff828116828216039080821115610abb57610abb612833565b81810381811115611e5057611e50612833565b60007f80000000000000000000000000000000000000000000000000000000000000008203612d1857612d18612833565b5060000390565b60008160020b7fffffffffffffffffffffffffffffffffffffffffffffffffffffffffff8000008103612d5457612d54612833565b60000392915050565b600082612d6c57612d6c612a6f565b500690565b80820180821115611e5057611e5061283356fea2646970667358221220469065b6966b82ce45b181ce855822a9dfdb3da0b95482aa8f11e54c9d935f1a64736f6c63430008150033",
  "devdoc": {
    "details": "The process for getting the aggregate oracle price is:           1. Fetch the UniV3 TWAPS, the latest interval is used as the current price           2. Verify this price is within an acceptable DELTA from the Uniswap TWAPS e.g.:              a. 240 to 60s              b. 60 to 15s              c. 15 to 1s (last block)              d. 1 to 0s (current)           3. (unless UniV3 only mode): Verify this price is within an acceptable DELTA from the Chainlink / Redstone Oracle           4. If it passes all checks, return the price. Otherwise use fallbacks, usually to Chainlink. In extreme edge-cases revert.For UniV3 with check mode, if fetching the check price fails, the UniV3 rate is used directly.",
    "kind": "dev",
    "methods": {
      "getExchangeRate()": {
        "details": "Deprecated. Use `getExchangeRateOperate()` and `getExchangeRateLiquidate()` instead. Only implemented for      backwards compatibility."
      }
    },
    "title": "UniswapV3 checked against Chainlink / Redstone Oracle for Layer 2 (with sequencer outage detection). Either one reported as exchange rate.",
    "version": 1
  },
  "userdoc": {
    "kind": "user",
    "methods": {
      "chainlinkOracleData()": {
        "notice": "returns all Chainlink oracle related data as utility for easy off-chain use / block explorer in a single view method"
      },
      "getExchangeRateLiquidate()": {
        "notice": "Get the `exchangeRate_` between the underlying asset and the peg asset in 1e27 for liquidations"
      },
      "getExchangeRateOperate()": {
        "notice": "Get the `exchangeRate_` between the underlying asset and the peg asset in 1e27 for operates"
      },
      "infoName()": {
        "notice": "helper string to easily identify the oracle. E.g. token symbols"
      },
      "redstoneOracleData()": {
        "notice": "returns all Redstone oracle related data as utility for easy off-chain use / block explorer in a single view method"
      },
      "sequencerL2Data()": {
        "notice": "returns all sequencer uptime feed related data"
      },
      "uniV3CheckOracleData()": {
        "notice": "returns all oracle related data as utility for easy off-chain / block explorer use in a single view method"
      },
      "uniV3OracleData()": {
        "notice": "returns all UniV3 oracle related data as utility for easy off-chain use / block explorer in a single view method"
      }
    },
    "notice": "Gets the exchange rate between the underlying asset and the peg asset by using:          the price from a UniV3 pool (compared against 3 TWAPs) and (optionally) comparing it against a Chainlink          or Redstone price (one of Chainlink or Redstone being the main source and the other one the fallback source).          Alternatively it can also use Chainlink / Redstone as main price and use UniV3 as check price.",
    "version": 1
  },
  "storageLayout": {
    "storage": [
      {
        "astId": 8839,
        "contract": "contracts/oracle/oraclesL2/uniV3CheckCLRSOracleL2.sol:UniV3CheckCLRSOracleL2",
        "label": "_SEQUENCER_ORACLE",
        "offset": 0,
        "slot": "0",
        "type": "t_contract(IChainlinkAggregatorV3)16470"
      }
    ],
    "types": {
      "t_contract(IChainlinkAggregatorV3)16470": {
        "encoding": "inplace",
        "label": "contract IChainlinkAggregatorV3",
        "numberOfBytes": "20"
      }
    }
  }
}