{
  "address": "0xaA21a86030EAa16546A759d2d10fd3bF9D053Bc7",
  "abi": [
    {
      "inputs": [
        {
          "internalType": "contract IFluidVaultFactory",
          "name": "vaultFactory_",
          "type": "address"
        }
      ],
      "stateMutability": "nonpayable",
      "type": "constructor"
    },
    {
      "inputs": [],
      "name": "FluidVaultPositionsResolver__AddressZero",
      "type": "error"
    },
    {
      "inputs": [],
      "name": "FluidVaultPositionsResolver__InvalidParams",
      "type": "error"
    },
    {
      "inputs": [],
      "name": "FACTORY",
      "outputs": [
        {
          "internalType": "contract IFluidVaultFactory",
          "name": "",
          "type": "address"
        }
      ],
      "stateMutability": "view",
      "type": "function"
    },
    {
      "inputs": [
        {
          "internalType": "uint256",
          "name": "slot_",
          "type": "uint256"
        },
        {
          "internalType": "int256",
          "name": "key_",
          "type": "int256"
        }
      ],
      "name": "_calculateStorageSlotIntMapping",
      "outputs": [
        {
          "internalType": "bytes32",
          "name": "",
          "type": "bytes32"
        }
      ],
      "stateMutability": "pure",
      "type": "function"
    },
    {
      "inputs": [
        {
          "internalType": "address",
          "name": "vault_",
          "type": "address"
        }
      ],
      "name": "getAllVaultNftIds",
      "outputs": [
        {
          "internalType": "uint256[]",
          "name": "nftIds_",
          "type": "uint256[]"
        }
      ],
      "stateMutability": "view",
      "type": "function"
    },
    {
      "inputs": [
        {
          "internalType": "address",
          "name": "vault_",
          "type": "address"
        },
        {
          "internalType": "uint256",
          "name": "page_",
          "type": "uint256"
        }
      ],
      "name": "getAllVaultNftIdsPaged",
      "outputs": [
        {
          "internalType": "uint256[]",
          "name": "nftIds_",
          "type": "uint256[]"
        },
        {
          "internalType": "bool",
          "name": "hasNextPage_",
          "type": "bool"
        }
      ],
      "stateMutability": "view",
      "type": "function"
    },
    {
      "inputs": [
        {
          "internalType": "address",
          "name": "vault_",
          "type": "address"
        }
      ],
      "name": "getAllVaultPositions",
      "outputs": [
        {
          "components": [
            {
              "internalType": "uint256",
              "name": "nftId",
              "type": "uint256"
            },
            {
              "internalType": "address",
              "name": "owner",
              "type": "address"
            },
            {
              "internalType": "uint256",
              "name": "supply",
              "type": "uint256"
            },
            {
              "internalType": "uint256",
              "name": "borrow",
              "type": "uint256"
            }
          ],
          "internalType": "struct Structs.UserPosition[]",
          "name": "positions_",
          "type": "tuple[]"
        }
      ],
      "stateMutability": "view",
      "type": "function"
    },
    {
      "inputs": [
        {
          "internalType": "uint256[]",
          "name": "nftIds_",
          "type": "uint256[]"
        }
      ],
      "name": "getPositionsForNftIds",
      "outputs": [
        {
          "components": [
            {
              "internalType": "uint256",
              "name": "nftId",
              "type": "uint256"
            },
            {
              "internalType": "address",
              "name": "owner",
              "type": "address"
            },
            {
              "internalType": "uint256",
              "name": "supply",
              "type": "uint256"
            },
            {
              "internalType": "uint256",
              "name": "borrow",
              "type": "uint256"
            }
          ],
          "internalType": "struct Structs.UserPosition[]",
          "name": "positions_",
          "type": "tuple[]"
        }
      ],
      "stateMutability": "view",
      "type": "function"
    },
    {
      "inputs": [
        {
          "internalType": "uint256[]",
          "name": "nftIds_",
          "type": "uint256[]"
        },
        {
          "internalType": "address",
          "name": "vault_",
          "type": "address"
        }
      ],
      "name": "getVaultPositionsForNftIds",
      "outputs": [
        {
          "components": [
            {
              "internalType": "uint256",
              "name": "nftId",
              "type": "uint256"
            },
            {
              "internalType": "address",
              "name": "owner",
              "type": "address"
            },
            {
              "internalType": "uint256",
              "name": "supply",
              "type": "uint256"
            },
            {
              "internalType": "uint256",
              "name": "borrow",
              "type": "uint256"
            }
          ],
          "internalType": "struct Structs.UserPosition[]",
          "name": "positions_",
          "type": "tuple[]"
        }
      ],
      "stateMutability": "view",
      "type": "function"
    }
  ],
  "transactionHash": "0xc0a23fb3792c02e0b1afe1bc24eb0a96fd869b1bab1b1e810427615045ac0e6e",
  "args": [
    "0x324c5Dc1fC42c7a4D43d92df1eBA58a54d13Bf2d"
  ],
  "numDeployments": 5,
  "solcInputHash": "b70748f66f921f0f7998bc99a17c07b8",
  "bytecode": "0x60a060405234801561001057600080fd5b5060405162001fe338038062001fe383398101604081905261003191610063565b6001600160a01b038116608081905261005d576040516302fdcc4f60e31b815260040160405180910390fd5b50610093565b60006020828403121561007557600080fd5b81516001600160a01b038116811461008c57600080fd5b9392505050565b608051611eef620000f4600039600081816087015281816106090152818161087c01528181610ad301528181610c9f0152818161109e0152818161126e01528181611356015281816114530152818161155101526116450152611eef6000f3fe608060405234801561001057600080fd5b506004361061007d5760003560e01c8063978f281f1161005b578063978f281f14610106578063b7bb891d14610127578063bd7b630d14610148578063f752d7571461016857600080fd5b80632dd31000146100825780635bbf0e14146100d35780636970693c146100f3575b600080fd5b6100a97f000000000000000000000000000000000000000000000000000000000000000081565b60405173ffffffffffffffffffffffffffffffffffffffff90911681526020015b60405180910390f35b6100e66100e1366004611add565b61017b565b6040516100ca9190611b1a565b6100e6610101366004611bbd565b6103bd565b610119610114366004611c0b565b610602565b6040516100ca929190611c70565b61013a610135366004611c94565b610847565b6040519081526020016100ca565b61015b610156366004611cb6565b610876565b6040516100ca9190611cd1565b6100e6610176366004611cb6565b6109f3565b6060815167ffffffffffffffff811115610197576101976119f5565b60405190808252806020026020018201604052801561020957816020015b6101f6604051806080016040528060008152602001600073ffffffffffffffffffffffffffffffffffffffff16815260200160008152602001600081525090565b8152602001906001900390816101b55790505b50905060008060005b84518110156103b55761023d85828151811061023057610230611ce4565b6020026020010151610c98565b909350915073ffffffffffffffffffffffffffffffffffffffff83166102d257604051806080016040528086838151811061027a5761027a611ce4565b60200260200101518152602001600073ffffffffffffffffffffffffffffffffffffffff1681526020016000815260200160008152508482815181106102c2576102c2611ce4565b60200260200101819052506103a5565b6000808473ffffffffffffffffffffffffffffffffffffffff166309f0d8cb6102fa87610d8c565b6040518263ffffffff1660e01b815260040161031891815260200190565b608060405180830381865afa158015610335573d6000803e3d6000fd5b505050506040513d601f19601f820116820180604052508101906103599190611d13565b9350935050506103858588858151811061037557610375611ce4565b6020026020010151848488610e1f565b86848151811061039757610397611ce4565b602002602001018190525050505b6103ae81611d78565b9050610212565b505050919050565b606073ffffffffffffffffffffffffffffffffffffffff821661040c576040517f7da745a000000000000000000000000000000000000000000000000000000000815260040160405180910390fd5b825167ffffffffffffffff811115610426576104266119f5565b60405190808252806020026020018201604052801561049857816020015b610485604051806080016040528060008152602001600073ffffffffffffffffffffffffffffffffffffffff16815260200160008152602001600081525090565b8152602001906001900390816104445790505b5090506000808373ffffffffffffffffffffffffffffffffffffffff166309f0d8cb6104c386610d8c565b6040518263ffffffff1660e01b81526004016104e191815260200190565b608060405180830381865afa1580156104fe573d6000803e3d6000fd5b505050506040513d601f19601f820116820180604052508101906105229190611d13565b93509350505060008060005b87518110156105f75761054c88828151811061023057610230611ce4565b909350915073ffffffffffffffffffffffffffffffffffffffff878116908416146105a3576040517f7da745a000000000000000000000000000000000000000000000000000000000815260040160405180910390fd5b6105c9878983815181106105b9576105b9611ce4565b6020026020010151878786610e1f565b8682815181106105db576105db611ce4565b6020026020010181905250806105f090611d78565b905061052e565b505050505092915050565b60606000807f000000000000000000000000000000000000000000000000000000000000000073ffffffffffffffffffffffffffffffffffffffff166318160ddd6040518163ffffffff1660e01b8152600401602060405180830381865afa158015610672573d6000803e3d6000fd5b505050506040513d601f19601f820116820180604052508101906106969190611db0565b905060006106a6610bb886611dc9565b905060006106b6610bb883611de0565b9050828111156106cb575060009250816106d0565b600193505b60006106dc8383611df3565b67ffffffffffffffff8111156106f4576106f46119f5565b60405190808252806020026020018201604052801561071d578160200160208202803683370190505b509050600080845b848110156107a1576107368161108c565b925060010173ffffffffffffffffffffffffffffffffffffffff8b1661075b84611099565b73ffffffffffffffffffffffffffffffffffffffff160361079c578284838151811061078957610789611ce4565b6020026020010181815250508160010191505b610725565b508067ffffffffffffffff8111156107bb576107bb6119f5565b6040519080825280602002602001820160405280156107e4578160200160208202803683370190505b50975060005b818110156108395783818151811061080457610804611ce4565b602002602001015189828151811061081e5761081e611ce4565b602090810291909101015261083281611d78565b90506107ea565b505050505050509250929050565b604080516020808201849052818301859052825180830384018152606090920190925280519101205b92915050565b606060007f000000000000000000000000000000000000000000000000000000000000000073ffffffffffffffffffffffffffffffffffffffff166318160ddd6040518163ffffffff1660e01b8152600401602060405180830381865afa1580156108e5573d6000803e3d6000fd5b505050506040513d601f19601f820116820180604052508101906109099190611db0565b9050600060d261091885611189565b901c63ffffffff1690508067ffffffffffffffff81111561093b5761093b6119f5565b604051908082528060200260200182016040528015610964578160200160208202803683370190505b50925060008060005b848110156109e95761097e8161108c565b925060010173ffffffffffffffffffffffffffffffffffffffff87166109a384611099565b73ffffffffffffffffffffffffffffffffffffffff16036109e457828683815181106109d1576109d1611ce4565b6020026020010181815250508160010191505b61096d565b5050505050919050565b606073ffffffffffffffffffffffffffffffffffffffff8216610a42576040517f7da745a000000000000000000000000000000000000000000000000000000000815260040160405180910390fd5b6000808373ffffffffffffffffffffffffffffffffffffffff166309f0d8cb610a6a86610d8c565b6040518263ffffffff1660e01b8152600401610a8891815260200190565b608060405180830381865afa158015610aa5573d6000803e3d6000fd5b505050506040513d601f19601f82011682018060405250810190610ac99190611d13565b93509350505060007f000000000000000000000000000000000000000000000000000000000000000073ffffffffffffffffffffffffffffffffffffffff166318160ddd6040518163ffffffff1660e01b8152600401602060405180830381865afa158015610b3c573d6000803e3d6000fd5b505050506040513d601f19601f82011682018060405250810190610b609190611db0565b9050600060d2610b6f87611189565b901c63ffffffff1690508067ffffffffffffffff811115610b9257610b926119f5565b604051908082528060200260200182016040528015610c0457816020015b610bf1604051806080016040528060008152602001600073ffffffffffffffffffffffffffffffffffffffff16815260200160008152602001600081525090565b815260200190600190039081610bb05790505b50945060008060008060005b86811015610c8a57610c218161108c565b9450600101610c2f85610c98565b909350915073ffffffffffffffffffffffffffffffffffffffff808c1690841603610c8557610c618b868b8b86610e1f565b8a8581518110610c7357610c73611ce4565b60200260200101819052508360010193505b610c10565b505050505050505050919050565b60008060007f000000000000000000000000000000000000000000000000000000000000000073ffffffffffffffffffffffffffffffffffffffff1663b5c736e4856003604051602001610cf992919091825260ff16602082015260400190565b604051602081830303815290604052805190602001206040518263ffffffff1660e01b8152600401610d2d91815260200190565b602060405180830381865afa158015610d4a573d6000803e3d6000fd5b505050506040513d601f19601f82011682018060405250810190610d6e9190611db0565b9050610d8363ffffffff60c083901c166111df565b94909350915050565b6040517fb5c736e40000000000000000000000000000000000000000000000000000000081526001600482015260009073ffffffffffffffffffffffffffffffffffffffff83169063b5c736e4906024015b602060405180830381865afa158015610dfb573d6000803e3d6000fd5b505050506040513d601f19601f820116820180604052508101906108709190611db0565b610e60604051806080016040528060008152602001600073ffffffffffffffffffffffffffffffffffffffff16815260200160008152602001600081525090565b84815273ffffffffffffffffffffffffffffffffffffffff821660208201526000610e8b87876116e2565b66ffffffffffffff603582901c1660ff602d83901c161b6040840152905060018082161461105d57600081600216600214610ed757610ed2600283901c6207ffff16611e06565b610ee2565b6207ffff600283901c165b905060608360400151610ef78360020b61176a565b610f019190611dc9565b901c60608401526000610f1489836119cc565b9050601583901c62ffffff1660018083161480610f3957508062ffffff600184901c16115b15610ff75760608501516040517f22348cc7000000000000000000000000000000000000000000000000000000008152600481018590526024810183905260448101919091526064810183905273ffffffffffffffffffffffffffffffffffffffff8b16906322348cc79060840160a060405180830381865afa158015610fc4573d6000803e3d6000fd5b505050506040513d601f19601f82011682018060405250810190610fe89190611e3e565b50506040880152606087015292505b606085015166ffffffffffffff607586901c1660ff606d87901c161b9081101561102b576060860180518290039052611033565b600060608701525b64e8d4a510008887606001516110499190611dc9565b6110539190611e7e565b6060870152505050505b64e8d4a510008583604001516110739190611dc9565b61107d9190611e7e565b60408301525095945050505050565b6000610870826001611de0565b6000807f000000000000000000000000000000000000000000000000000000000000000073ffffffffffffffffffffffffffffffffffffffff1663b5c736e48460036040516020016110f892919091825260ff16602082015260400190565b604051602081830303815290604052805190602001206040518263ffffffff1660e01b815260040161112c91815260200190565b602060405180830381865afa158015611149573d6000803e3d6000fd5b505050506040513d601f19601f8201168201806040525081019061116d9190611db0565b905061118263ffffffff60c083901c166111df565b9392505050565b6040517fb5c736e40000000000000000000000000000000000000000000000000000000081526000600482018190529073ffffffffffffffffffffffffffffffffffffffff83169063b5c736e490602401610dde565b60006060826000036111f45750600092915050565b607f83116112dc576040517fd60000000000000000000000000000000000000000000000000000000000000060208201527f940000000000000000000000000000000000000000000000000000000000000060218201527fffffffffffffffffffffffffffffffffffffffff0000000000000000000000007f000000000000000000000000000000000000000000000000000000000000000060601b16602282015260f884901b7fff000000000000000000000000000000000000000000000000000000000000001660368201526037015b60405160208183030381529060405290506116d4565b60ff83116113d8576040517fd70000000000000000000000000000000000000000000000000000000000000060208201527f940000000000000000000000000000000000000000000000000000000000000060218201527fffffffffffffffffffffffffffffffffffffffff0000000000000000000000007f000000000000000000000000000000000000000000000000000000000000000060601b1660228201527f8100000000000000000000000000000000000000000000000000000000000000603682015260f884901b7fff000000000000000000000000000000000000000000000000000000000000001660378201526038016112c6565b61ffff83116114d5576040517fd80000000000000000000000000000000000000000000000000000000000000060208201527f940000000000000000000000000000000000000000000000000000000000000060218201527fffffffffffffffffffffffffffffffffffffffff0000000000000000000000007f000000000000000000000000000000000000000000000000000000000000000060601b1660228201527f820000000000000000000000000000000000000000000000000000000000000060368201527fffff00000000000000000000000000000000000000000000000000000000000060f085901b1660378201526039016112c6565b62ffffff83116115d3576040517fd90000000000000000000000000000000000000000000000000000000000000060208201527f940000000000000000000000000000000000000000000000000000000000000060218201527fffffffffffffffffffffffffffffffffffffffff0000000000000000000000007f000000000000000000000000000000000000000000000000000000000000000060601b1660228201527f830000000000000000000000000000000000000000000000000000000000000060368201527fffffff000000000000000000000000000000000000000000000000000000000060e885901b166037820152603a016112c6565b6040517fda0000000000000000000000000000000000000000000000000000000000000060208201527f940000000000000000000000000000000000000000000000000000000000000060218201527fffffffffffffffffffffffffffffffffffffffff0000000000000000000000007f000000000000000000000000000000000000000000000000000000000000000060601b1660228201527f840000000000000000000000000000000000000000000000000000000000000060368201527fffffffff0000000000000000000000000000000000000000000000000000000060e085901b166037820152603b0160405160208183030381529060405290505b805160209091012092915050565b60008273ffffffffffffffffffffffffffffffffffffffff1663b5c736e461170b600385610847565b6040518263ffffffff1660e01b815260040161172991815260200190565b602060405180830381865afa158015611746573d6000803e3d6000fd5b505050506040513d601f19601f820116820180604052508101906111829190611db0565b600060ff82901d80831803617fff81111561178457600080fd5b70010000000000000000000000000000000060018216156117b257506fff9dd7de423466c20352b1246ce4856f5b60028216156117d1576fff3bd55f4488ad277531fa1c725a66d00260801c5b60048216156117f0576ffe78410fd6498b73cb96a6917f8532590260801c5b600882161561180f576ffcf2d9987c9be178ad5bfeffaa1232730260801c5b601082161561182e576ff9ef02c4529258b057769680fc6601b30260801c5b602082161561184d576ff402d288133a85a17784a411f7aba0820260801c5b604082161561186c576fe895615b5beb6386553757b0352bda900260801c5b608082161561188b576fd34f17a00ffa00a8309940a15930391a0260801c5b6101008216156118ab576fae6b7961714e20548d88ea5123f9a0ff0260801c5b6102008216156118cb576f76d6461f27082d74e0feed3b388c0ca10260801c5b6104008216156118eb576f372a3bfe0745d8b6b19d985d9a8b85bb0260801c5b61080082161561190b576f0be32cbee48979763cf7247dd7bb539d0260801c5b61100082161561192a576e8d4f70c9ff4924dac37612d1e2921e0260801c5b612000821615611948576d4e009ae5519380809a02ca7aec770260801c5b614000821615611964576b17c45e641b6e95dee056ff100260801c5b600091507f800000000000000000000000000000000000000000000000000000000000000084166119c2577fffffffffffffffffffffffffffffffffffffffffffffffffffffffffffffffff0463ffffffff8116156119c257600191505b60201c0192915050565b60008273ffffffffffffffffffffffffffffffffffffffff1663b5c736e461170b600585610847565b7f4e487b7100000000000000000000000000000000000000000000000000000000600052604160045260246000fd5b600082601f830112611a3557600080fd5b8135602067ffffffffffffffff80831115611a5257611a526119f5565b8260051b6040517fffffffffffffffffffffffffffffffffffffffffffffffffffffffffffffffe0603f83011681018181108482111715611a9557611a956119f5565b604052938452858101830193838101925087851115611ab357600080fd5b83870191505b84821015611ad257813583529183019190830190611ab9565b979650505050505050565b600060208284031215611aef57600080fd5b813567ffffffffffffffff811115611b0657600080fd5b611b1284828501611a24565b949350505050565b602080825282518282018190526000919060409081850190868401855b82811015611b87578151805185528681015173ffffffffffffffffffffffffffffffffffffffff168786015285810151868601526060908101519085015260809093019290850190600101611b37565b5091979650505050505050565b803573ffffffffffffffffffffffffffffffffffffffff81168114611bb857600080fd5b919050565b60008060408385031215611bd057600080fd5b823567ffffffffffffffff811115611be757600080fd5b611bf385828601611a24565b925050611c0260208401611b94565b90509250929050565b60008060408385031215611c1e57600080fd5b611c2783611b94565b946020939093013593505050565b600081518084526020808501945080840160005b83811015611c6557815187529582019590820190600101611c49565b509495945050505050565b604081526000611c836040830185611c35565b905082151560208301529392505050565b60008060408385031215611ca757600080fd5b50508035926020909101359150565b600060208284031215611cc857600080fd5b61118282611b94565b6020815260006111826020830184611c35565b7f4e487b7100000000000000000000000000000000000000000000000000000000600052603260045260246000fd5b60008060008060808587031215611d2957600080fd5b505082516020840151604085015160609095015191969095509092509050565b7f4e487b7100000000000000000000000000000000000000000000000000000000600052601160045260246000fd5b60007fffffffffffffffffffffffffffffffffffffffffffffffffffffffffffffffff8203611da957611da9611d49565b5060010190565b600060208284031215611dc257600080fd5b5051919050565b808202811582820484141761087057610870611d49565b8082018082111561087057610870611d49565b8181038181111561087057610870611d49565b60007f80000000000000000000000000000000000000000000000000000000000000008203611e3757611e37611d49565b5060000390565b600080600080600060a08688031215611e5657600080fd5b5050835160208501516040860151606087015160809097015192989197509594509092509050565b600082611eb4577f4e487b7100000000000000000000000000000000000000000000000000000000600052601260045260246000fd5b50049056fea2646970667358221220c87b63d0cf5e3c82ec81d39c2f427d6ad2226f843a8eaddb105ae3a87983b92464736f6c63430008150033",
  "devdoc": {
    "kind": "dev",
    "methods": {
      "constructor": {
        "params": {
          "vaultFactory_": "The FluidVaultFactory contract address"
        }
      },
      "getAllVaultNftIds(address)": {
        "params": {
          "vault_": "The address of the vault."
        },
        "returns": {
          "nftIds_": "Array of NFT token IDs belonging to the vault."
        }
      },
      "getAllVaultNftIdsPaged(address,uint256)": {
        "details": "Use this method on chains where retrieving all token IDs at once may run out of gas.      Call this repeatedly with increasing page numbers until hasNextPage is false, then use `getVaultPositionsForNftIds`.",
        "params": {
          "page_": "The current page to fetch (pagination index). start with page 0.",
          "vault_": "The address of the vault."
        },
        "returns": {
          "hasNextPage_": "True if there are more pages to fetch, false if this is the last page.",
          "nftIds_": "Array of NFT token IDs for the specified page."
        }
      },
      "getAllVaultPositions(address)": {
        "params": {
          "vault_": "The address of the vault."
        },
        "returns": {
          "positions_": "Array of UserPosition for each position in the vault."
        }
      },
      "getPositionsForNftIds(uint256[])": {
        "params": {
          "nftIds_": "Array of NFT IDs. Split reading into chunks if this runs out of gas!"
        },
        "returns": {
          "positions_": "Array of UserPosition for each NFT ID."
        }
      },
      "getVaultPositionsForNftIds(uint256[],address)": {
        "params": {
          "nftIds_": "Array of NFT IDs. Split reading into chunks if this runs out of gas!",
          "vault_": "The address of the vault."
        },
        "returns": {
          "positions_": "Array of UserPosition for the NFT IDs."
        }
      }
    },
    "title": "Fluid Vault protocol Positions Resolver for all vault types.",
    "version": 1
  },
  "userdoc": {
    "errors": {
      "FluidVaultPositionsResolver__AddressZero()": [
        {
          "notice": "thrown if an input param address is zero"
        }
      ]
    },
    "kind": "user",
    "methods": {
      "_calculateStorageSlotIntMapping(uint256,int256)": {
        "notice": "Calculating the slot ID for Liquidity contract for single mapping"
      },
      "constructor": {
        "notice": "constructor sets the immutable vault factory address"
      },
      "getAllVaultNftIds(address)": {
        "notice": "Returns all NFT token IDs for the specified vault. Use `getAllVaultNftIdsPaged` if this runs out of gas!"
      },
      "getAllVaultNftIdsPaged(address,uint256)": {
        "notice": "Returns the NFT token IDs for a given vault using a paged approach, reading 3000 nfts per page."
      },
      "getAllVaultPositions(address)": {
        "notice": "Gets all positions for the given vault. Use `getAllVaultNftIds` first if this runs out of gas!"
      },
      "getPositionsForNftIds(uint256[])": {
        "notice": "Gets user positions for a set of NFT IDs."
      },
      "getVaultPositionsForNftIds(uint256[],address)": {
        "notice": "Gets user positions for NFT IDs assumed to belong to a specific vault."
      }
    },
    "notice": "This contract resolves positions for Fluid Vaults, providing functionality to retrieve NFT IDs and positions for a given vault.",
    "version": 1
  },
  "storageLayout": {
    "storage": [],
    "types": null
  }
}