{
  "address": "0x199D66BCdf93746b257f5C06cfA8ab848FaeD108",
  "abi": [
    {
      "inputs": [
        {
          "internalType": "address",
          "name": "liquidity_",
          "type": "address"
        },
        {
          "internalType": "address",
          "name": "vaultFactory_",
          "type": "address"
        },
        {
          "internalType": "address",
          "name": "deployer_",
          "type": "address"
        },
        {
          "internalType": "address",
          "name": "vaultAdminImplementation_",
          "type": "address"
        },
        {
          "internalType": "address",
          "name": "vaultSecondaryImplementation_",
          "type": "address"
        },
        {
          "internalType": "address",
          "name": "vaultOperateImplementation_",
          "type": "address"
        },
        {
          "internalType": "address",
          "name": "vaultMainImplementation1_",
          "type": "address"
        },
        {
          "internalType": "address",
          "name": "vaultMainImplementation2_",
          "type": "address"
        }
      ],
      "stateMutability": "nonpayable",
      "type": "constructor"
    },
    {
      "inputs": [
        {
          "internalType": "uint256",
          "name": "colLiquidated",
          "type": "uint256"
        },
        {
          "internalType": "uint256",
          "name": "debtLiquidated",
          "type": "uint256"
        }
      ],
      "name": "FluidLiquidateResult",
      "type": "error"
    },
    {
      "inputs": [
        {
          "internalType": "uint256",
          "name": "errorId_",
          "type": "uint256"
        }
      ],
      "name": "FluidVaultError",
      "type": "error"
    },
    {
      "anonymous": false,
      "inputs": [
        {
          "indexed": true,
          "internalType": "address",
          "name": "vault",
          "type": "address"
        },
        {
          "indexed": false,
          "internalType": "uint256",
          "name": "vaultId",
          "type": "uint256"
        },
        {
          "indexed": true,
          "internalType": "address",
          "name": "smartCol",
          "type": "address"
        },
        {
          "indexed": true,
          "internalType": "address",
          "name": "smartDebt",
          "type": "address"
        }
      ],
      "name": "VaultT4Deployed",
      "type": "event"
    },
    {
      "inputs": [],
      "name": "ADDRESS_THIS",
      "outputs": [
        {
          "internalType": "address",
          "name": "",
          "type": "address"
        }
      ],
      "stateMutability": "view",
      "type": "function"
    },
    {
      "inputs": [],
      "name": "ADMIN_IMPLEMENTATION",
      "outputs": [
        {
          "internalType": "address",
          "name": "",
          "type": "address"
        }
      ],
      "stateMutability": "view",
      "type": "function"
    },
    {
      "inputs": [],
      "name": "DEPLOYER",
      "outputs": [
        {
          "internalType": "address",
          "name": "",
          "type": "address"
        }
      ],
      "stateMutability": "view",
      "type": "function"
    },
    {
      "inputs": [],
      "name": "LIQUIDITY",
      "outputs": [
        {
          "internalType": "address",
          "name": "",
          "type": "address"
        }
      ],
      "stateMutability": "view",
      "type": "function"
    },
    {
      "inputs": [],
      "name": "MINI_DEPLOYER",
      "outputs": [
        {
          "internalType": "contract MiniDeployer",
          "name": "",
          "type": "address"
        }
      ],
      "stateMutability": "view",
      "type": "function"
    },
    {
      "inputs": [],
      "name": "SECONDARY_IMPLEMENTATION",
      "outputs": [
        {
          "internalType": "address",
          "name": "",
          "type": "address"
        }
      ],
      "stateMutability": "view",
      "type": "function"
    },
    {
      "inputs": [],
      "name": "VAULT_T4_CREATIONCODE_MAIN_OPERATE",
      "outputs": [
        {
          "internalType": "address",
          "name": "",
          "type": "address"
        }
      ],
      "stateMutability": "view",
      "type": "function"
    },
    {
      "inputs": [],
      "name": "mainCreationCode",
      "outputs": [
        {
          "internalType": "bytes",
          "name": "",
          "type": "bytes"
        }
      ],
      "stateMutability": "view",
      "type": "function"
    },
    {
      "inputs": [],
      "name": "operateCreationCode",
      "outputs": [
        {
          "internalType": "bytes",
          "name": "",
          "type": "bytes"
        }
      ],
      "stateMutability": "view",
      "type": "function"
    },
    {
      "inputs": [
        {
          "internalType": "address",
          "name": "smartCol_",
          "type": "address"
        },
        {
          "internalType": "address",
          "name": "smartDebt_",
          "type": "address"
        }
      ],
      "name": "vaultT4",
      "outputs": [
        {
          "internalType": "bytes",
          "name": "vaultCreationBytecode_",
          "type": "bytes"
        }
      ],
      "stateMutability": "nonpayable",
      "type": "function"
    }
  ],
  "transactionHash": "0x784c0e2c3dc947bda7f2d16c625dd351d3baf707081a34cffa2321493a0689f2",
  "args": [
    "0x52Aa899454998Be5b000Ad077a46Bbe360F4e497",
    "0x324c5Dc1fC42c7a4D43d92df1eBA58a54d13Bf2d",
    "0x4EC7b668BAF70d4A4b0FC7941a7708A07b6d45Be",
    "0x827B69A0fE822b44286C83D671EDa78Ee40F138D",
    "0xB6FF36e7d04e6017E0323F1f92A8184370d48907",
    "0xe9A79785BBEe698464D18B3f0D1EF84e00695438",
    "0x20ac1A454dBfe3cD580f4A3a4A5b285D32840759",
    "0xF413651fa6D122bf89Ca9b327D5Ac5691a9F51B8"
  ],
  "numDeployments": 1,
  "solcInputHash": "8a3cda4ea3f0d484999d51974df7e213",
  "bytecode": "0x6101a06040523480156200001257600080fd5b5060405162001846380380620018468339810160408190526200003591620000f0565b6001600160a01b0380891660805286811660a05285811660e05284166101005260405187906200006590620000c5565b6001600160a01b039091168152602001604051809103906000f08015801562000092573d6000803e3d6000fd5b506001600160a01b0390811660c05292831661012052908216610140521661016052505030610180525062000198915050565b6104f4806200135283390190565b80516001600160a01b0381168114620000eb57600080fd5b919050565b600080600080600080600080610100898b0312156200010e57600080fd5b6200011989620000d3565b97506200012960208a01620000d3565b96506200013960408a01620000d3565b95506200014960608a01620000d3565b94506200015960808a01620000d3565b93506200016960a08a01620000d3565b92506200017960c08a01620000d3565b91506200018960e08a01620000d3565b90509295985092959890939650565b60805160a05160c05160e051610100516101205161014051610160516101805161111262000240600039600081816101e901526102d7015260006102950152600061026c01526000818161019b0152818161023901526106e90152600081816101740152610557015260008181610210015261052f01526000818161013a01526107c80152600081816101c2015261050301526000818160e601526104d501526111126000f3fe608060405234801561001057600080fd5b50600436106100be5760003560e01c8063a07ddc1711610076578063c1b8411a1161005b578063c1b8411a146101bd578063cc025f7c146101e4578063cc2fe94b1461020b57600080fd5b8063a07ddc171461016f578063ba21b9c51461019657600080fd5b80636b171774116100a75780636b1717741461012d5780638cb1b071146101355780639f690ff11461015c57600080fd5b80630e09956a146100c35780632861c7d1146100e1575b600080fd5b6100cb610232565b6040516100d89190610b82565b60405180910390f35b6101087f000000000000000000000000000000000000000000000000000000000000000081565b60405173ffffffffffffffffffffffffffffffffffffffff90911681526020016100d8565b6100cb610262565b6101087f000000000000000000000000000000000000000000000000000000000000000081565b6100cb61016a366004610bf8565b6102be565b6101087f000000000000000000000000000000000000000000000000000000000000000081565b6101087f000000000000000000000000000000000000000000000000000000000000000081565b6101087f000000000000000000000000000000000000000000000000000000000000000081565b6101087f000000000000000000000000000000000000000000000000000000000000000081565b6101087f000000000000000000000000000000000000000000000000000000000000000081565b606061025d7f0000000000000000000000000000000000000000000000000000000000000000610953565b905090565b606061025d6102907f0000000000000000000000000000000000000000000000000000000000000000610953565b6102b97f0000000000000000000000000000000000000000000000000000000000000000610953565b610981565b606073ffffffffffffffffffffffffffffffffffffffff7f0000000000000000000000000000000000000000000000000000000000000000163003610337576040517f60121cca000000000000000000000000000000000000000000000000000000008152617537600482015260240160405180910390fd5b60008373ffffffffffffffffffffffffffffffffffffffff1663b7791bf26040518163ffffffff1660e01b815260040161024060405180830381865afa158015610385573d6000803e3d6000fd5b505050506040513d601f19601f820116820180604052508101906103a99190610d57565b905060008373ffffffffffffffffffffffffffffffffffffffff1663b7791bf26040518163ffffffff1660e01b815260040161024060405180830381865afa1580156103f9573d6000803e3d6000fd5b505050506040513d601f19601f8201168201806040525081019061041d9190610d57565b90506104be604080516102008101825260008082526020808301829052828401829052606083018290526080830182905260a0830182905260c0830182905260e0830182905283518085018552828152808201839052610100840152835180850190945281845283015290610120820190815260006020820181905260408201819052606082018190526080820181905260a0820181905260c09091015290565b73ffffffffffffffffffffffffffffffffffffffff7f0000000000000000000000000000000000000000000000000000000000000000811682523060208084018290527f0000000000000000000000000000000000000000000000000000000000000000831660a0808601919091527f0000000000000000000000000000000000000000000000000000000000000000841660608601527f00000000000000000000000000000000000000000000000000000000000000008416608086015289841660c08087019190915287820151610100870180519187169091528882015190519086169084015289851660e08701529086015161012086018051918616909152908601519051931692810192909252604080517f8d65402300000000000000000000000000000000000000000000000000000000815290519192638d654023926004808401938290030181865afa15801561061f573d6000803e3d6000fd5b505050506040513d601f19601f820116820180604052508101906106439190610e3e565b6101408201819052619c406101608301526040517fe6bd26a2000000000000000000000000000000000000000000000000000000008152600091309163e6bd26a2916106959160040190815260200190565b602060405180830381865afa1580156106b2573d6000803e3d6000fd5b505050506040513d601f19601f820116820180604052508101906106d69190610e57565b90506106e282826109f9565b915061070d7f0000000000000000000000000000000000000000000000000000000000000000610953565b8260405160200161071e9190610e7b565b604080517fffffffffffffffffffffffffffffffffffffffffffffffffffffffffffffffe08184030181529082905261075a9291602001611073565b604080517fffffffffffffffffffffffffffffffffffffffffffffffffffffffffffffffe0818403018152908290527f798133dd000000000000000000000000000000000000000000000000000000008252955060009073ffffffffffffffffffffffffffffffffffffffff7f0000000000000000000000000000000000000000000000000000000000000000169063798133dd906107fd908990600401610b82565b6020604051808303816000875af115801561081c573d6000803e3d6000fd5b505050506040513d601f19601f820116820180604052508101906108409190610e57565b73ffffffffffffffffffffffffffffffffffffffff811660408501529050610866610262565b836040516020016108779190610e7b565b604080517fffffffffffffffffffffffffffffffffffffffffffffffffffffffffffffffe0818403018152908290526108b39291602001611073565b60405160208183030381529060405295508673ffffffffffffffffffffffffffffffffffffffff168873ffffffffffffffffffffffffffffffffffffffff168373ffffffffffffffffffffffffffffffffffffffff167f4b2bfb33ad24dcef9319f290b974e50081def081b7a43561ade90d78d068514e86610140015160405161093f91815260200190565b60405180910390a450505050505b92915050565b606061094d82600161097c8173ffffffffffffffffffffffffffffffffffffffff84163b6110a2565b610b1d565b60606040519050825180825260208201818101602086015b818310156109b1578051835260209283019201610999565b50845184518101855292509050808201602085015b818310156109de5780518352602092830192016109c6565b50601f19601f87518501158301011660405250505092915050565b610a98604080516102008101825260008082526020808301829052828401829052606083018290526080830182905260a0830182905260c0830182905260e0830182905283518085018552828152808201839052610100840152835180850190945281845283015290610120820190815260006020820181905260408201819052606082018190526080820181905260a0820181905260c09091015290565b50600061018083018190526101a08301526040805173ffffffffffffffffffffffffffffffffffffffff929092166020808401829052600384840152825180850384018152606094850184528051908201206101c08601528251808201929092526005828401528251808303840181529190930190915280519101206101e082015290565b60408051603f83017fffffffffffffffffffffffffffffffffffffffffffffffffffffffffffffffe0168101909152818152818360208301863c9392505050565b60005b83811015610b79578181015183820152602001610b61565b50506000910152565b6020815260008251806020840152610ba1816040850160208701610b5e565b601f017fffffffffffffffffffffffffffffffffffffffffffffffffffffffffffffffe0169190910160400192915050565b73ffffffffffffffffffffffffffffffffffffffff81168114610bf557600080fd5b50565b60008060408385031215610c0b57600080fd5b8235610c1681610bd3565b91506020830135610c2681610bd3565b809150509250929050565b6040516101c0810167ffffffffffffffff81118282101715610c7c577f4e487b7100000000000000000000000000000000000000000000000000000000600052604160045260246000fd5b60405290565b8051610c8d81610bd3565b919050565b600060a08284031215610ca457600080fd5b60405160a0810181811067ffffffffffffffff82111715610cee577f4e487b7100000000000000000000000000000000000000000000000000000000600052604160045260246000fd5b80604052508091508251610d0181610bd3565b81526020830151610d1181610bd3565b60208201526040830151610d2481610bd3565b60408201526060830151610d3781610bd3565b60608201526080830151610d4a81610bd3565b6080919091015292915050565b60006102408284031215610d6a57600080fd5b610d72610c31565b82518152610d8260208401610c82565b6020820152610d9360408401610c82565b6040820152610da58460608501610c92565b6060820152610100610db8818501610c82565b6080830152610120610dcb818601610c82565b60a0840152610140610dde818701610c82565b60c08501526101608087015160e086015261018080880151858701526101a0945084880151848701526101c0880151838701526101e088015182870152610200880151818701525050505061022084015181830152508091505092915050565b600060208284031215610e5057600080fd5b5051919050565b600060208284031215610e6957600080fd5b8151610e7481610bd3565b9392505050565b815173ffffffffffffffffffffffffffffffffffffffff16815261024081016020830151610ec1602084018273ffffffffffffffffffffffffffffffffffffffff169052565b506040830151610ee9604084018273ffffffffffffffffffffffffffffffffffffffff169052565b506060830151610f11606084018273ffffffffffffffffffffffffffffffffffffffff169052565b506080830151610f39608084018273ffffffffffffffffffffffffffffffffffffffff169052565b5060a0830151610f6160a084018273ffffffffffffffffffffffffffffffffffffffff169052565b5060c0830151610f8960c084018273ffffffffffffffffffffffffffffffffffffffff169052565b5060e0830151610fb160e084018273ffffffffffffffffffffffffffffffffffffffff169052565b5061010083810151805173ffffffffffffffffffffffffffffffffffffffff90811685840152602082015116610120850152505061012083015161014061101d81850183805173ffffffffffffffffffffffffffffffffffffffff908116835260209182015116910152565b840151610180848101919091526101608501516101a080860191909152908501516101c080860191909152908501516101e080860191909152908501516102008501529093015161022090920191909152919050565b60008351611085818460208801610b5e565b835190830190611099818360208801610b5e565b01949350505050565b8181038181111561094d577f4e487b7100000000000000000000000000000000000000000000000000000000600052601160045260246000fdfea2646970667358221220a283398d61ea77a4aefe810694bb294b8ca7a4a7f125b8424b136b6566ba416a64736f6c63430008150033608060405234801561001057600080fd5b506040516104f43803806104f483398101604081905261002f9161007e565b600080546001600160a01b0319166001600160a01b03831690811782556040518392907f8be0079c531659141344cd1fd0a4f28419497f9722a3daafe3b4186f6b6457e0908290a350506100ae565b60006020828403121561009057600080fd5b81516001600160a01b03811681146100a757600080fd5b9392505050565b610437806100bd6000396000f3fe608060405234801561001057600080fd5b50600436106100415760003560e01c8063798133dd146100465780638da5cb5b14610082578063f2fde38b146100a2575b600080fd5b610059610054366004610352565b6100b7565b60405173ffffffffffffffffffffffffffffffffffffffff909116815260200160405180910390f35b6000546100599073ffffffffffffffffffffffffffffffffffffffff1681565b6100b56100b03660046103c4565b6101c7565b005b6000805473ffffffffffffffffffffffffffffffffffffffff16331461013e576040517f08c379a000000000000000000000000000000000000000000000000000000000815260206004820152600c60248201527f554e415554484f52495a4544000000000000000000000000000000000000000060448201526064015b60405180910390fd5b61017d83838080601f0160208091040260200160405190810160405280939291908181526020018383808284376000920191909152506102b892505050565b60405190915073ffffffffffffffffffffffffffffffffffffffff8216907ff40020e78c6e173ba88aa2c344ed520fab87fe67b9e5aa34626af9d86a3cd47b90600090a292915050565b60005473ffffffffffffffffffffffffffffffffffffffff163314610248576040517f08c379a000000000000000000000000000000000000000000000000000000000815260206004820152600c60248201527f554e415554484f52495a454400000000000000000000000000000000000000006044820152606401610135565b600080547fffffffffffffffffffffffff00000000000000000000000000000000000000001673ffffffffffffffffffffffffffffffffffffffff83169081178255604051909133917f8be0079c531659141344cd1fd0a4f28419497f9722a3daafe3b4186f6b6457e09190a350565b600081516000036102f5576040517f830297c900000000000000000000000000000000000000000000000000000000815260040160405180910390fd5b8151602083016000f0905073ffffffffffffffffffffffffffffffffffffffff811661034d576040517f830297c900000000000000000000000000000000000000000000000000000000815260040160405180910390fd5b919050565b6000806020838503121561036557600080fd5b823567ffffffffffffffff8082111561037d57600080fd5b818501915085601f83011261039157600080fd5b8135818111156103a057600080fd5b8660208285010111156103b257600080fd5b60209290920196919550909350505050565b6000602082840312156103d657600080fd5b813573ffffffffffffffffffffffffffffffffffffffff811681146103fa57600080fd5b939250505056fea26469706673582212201bc75243187841bf004ccfd8c2e19e986902002ceb1c8c6119f0fb68cfeed79364736f6c63430008150033",
  "devdoc": {
    "events": {
      "VaultT4Deployed(address,uint256,address,address)": {
        "params": {
          "smartCol": "The address of the dex for which the smart collateral is used.",
          "smartDebt": "The address of the dex for which the smart debt is used.",
          "vault": "The address of the newly deployed vault.",
          "vaultId": "The id of the newly deployed vault."
        }
      }
    },
    "kind": "dev",
    "methods": {
      "constructor": {
        "details": "each vault type has different vaultAdminImplementation but same vaultSecondaryImplementatio"
      },
      "operateCreationCode()": {
        "details": "Retrieves the creation code for the Operate contract"
      }
    },
    "stateVariables": {
      "VAULT_T4_CREATIONCODE_MAIN_ADDRESS_1": {
        "details": "SSTORE2 pointer for the VaultT4 creation code. Stored externally to reduce factory bytecode (in 2 parts)"
      }
    },
    "version": 1
  },
  "userdoc": {
    "errors": {
      "FluidLiquidateResult(uint256,uint256)": [
        {
          "notice": "used to simulate liquidation to find the maximum liquidatable amounts"
        }
      ]
    },
    "events": {
      "VaultT4Deployed(address,uint256,address,address)": {
        "notice": "Emitted when a new vaultT4 is deployed."
      }
    },
    "kind": "user",
    "methods": {
      "ADDRESS_THIS()": {
        "notice": "address of this contract"
      },
      "ADMIN_IMPLEMENTATION()": {
        "notice": "address of Admin implementation"
      },
      "LIQUIDITY()": {
        "notice": "address of liquidity contract"
      },
      "MINI_DEPLOYER()": {
        "notice": "address of MiniDeployer Contract"
      },
      "SECONDARY_IMPLEMENTATION()": {
        "notice": "address of Secondary implementation"
      },
      "mainCreationCode()": {
        "notice": "returns the stored DexT1 creation bytecode"
      }
    },
    "version": 1
  },
  "storageLayout": {
    "storage": [],
    "types": null
  }
}