{
  "address": "0xAf572EfC84d905926F7b05C1B7bE04e4E89542B0",
  "abi": [
    {
      "inputs": [
        {
          "internalType": "address",
          "name": "factory_",
          "type": "address"
        },
        {
          "internalType": "address",
          "name": "liquidity_",
          "type": "address"
        },
        {
          "internalType": "address",
          "name": "liquidityResolver_",
          "type": "address"
        },
        {
          "internalType": "address",
          "name": "deployer_",
          "type": "address"
        }
      ],
      "stateMutability": "nonpayable",
      "type": "constructor"
    },
    {
      "inputs": [],
      "name": "DEPLOYER_CONTRACT",
      "outputs": [
        {
          "internalType": "address",
          "name": "",
          "type": "address"
        }
      ],
      "stateMutability": "view",
      "type": "function"
    },
    {
      "inputs": [],
      "name": "FACTORY",
      "outputs": [
        {
          "internalType": "contract IFluidDexFactory",
          "name": "",
          "type": "address"
        }
      ],
      "stateMutability": "view",
      "type": "function"
    },
    {
      "inputs": [],
      "name": "LIQUIDITY",
      "outputs": [
        {
          "internalType": "contract IFluidLiquidity",
          "name": "",
          "type": "address"
        }
      ],
      "stateMutability": "view",
      "type": "function"
    },
    {
      "inputs": [],
      "name": "LIQUIDITY_RESOLVER",
      "outputs": [
        {
          "internalType": "contract IFluidLiquidityResolver",
          "name": "",
          "type": "address"
        }
      ],
      "stateMutability": "view",
      "type": "function"
    },
    {
      "inputs": [
        {
          "internalType": "address",
          "name": "dex_",
          "type": "address"
        },
        {
          "internalType": "uint256",
          "name": "token0Amt_",
          "type": "uint256"
        },
        {
          "internalType": "uint256",
          "name": "token1Amt_",
          "type": "uint256"
        },
        {
          "internalType": "uint256",
          "name": "maxSharesAmt_",
          "type": "uint256"
        }
      ],
      "name": "estimateBorrow",
      "outputs": [
        {
          "internalType": "uint256",
          "name": "shares_",
          "type": "uint256"
        }
      ],
      "stateMutability": "nonpayable",
      "type": "function"
    },
    {
      "inputs": [
        {
          "internalType": "address",
          "name": "dex_",
          "type": "address"
        },
        {
          "internalType": "uint256",
          "name": "shares_",
          "type": "uint256"
        },
        {
          "internalType": "uint256",
          "name": "minToken0Borrow_",
          "type": "uint256"
        },
        {
          "internalType": "uint256",
          "name": "minToken1Borrow_",
          "type": "uint256"
        }
      ],
      "name": "estimateBorrowPerfect",
      "outputs": [
        {
          "internalType": "uint256",
          "name": "token0Amt_",
          "type": "uint256"
        },
        {
          "internalType": "uint256",
          "name": "token1Amt_",
          "type": "uint256"
        }
      ],
      "stateMutability": "nonpayable",
      "type": "function"
    },
    {
      "inputs": [
        {
          "internalType": "address",
          "name": "dex_",
          "type": "address"
        },
        {
          "internalType": "uint256",
          "name": "token0Amt_",
          "type": "uint256"
        },
        {
          "internalType": "uint256",
          "name": "token1Amt_",
          "type": "uint256"
        },
        {
          "internalType": "uint256",
          "name": "minSharesAmt_",
          "type": "uint256"
        }
      ],
      "name": "estimateDeposit",
      "outputs": [
        {
          "internalType": "uint256",
          "name": "shares_",
          "type": "uint256"
        }
      ],
      "stateMutability": "payable",
      "type": "function"
    },
    {
      "inputs": [
        {
          "internalType": "address",
          "name": "dex_",
          "type": "address"
        },
        {
          "internalType": "uint256",
          "name": "shares_",
          "type": "uint256"
        },
        {
          "internalType": "uint256",
          "name": "maxToken0Deposit_",
          "type": "uint256"
        },
        {
          "internalType": "uint256",
          "name": "maxToken1Deposit_",
          "type": "uint256"
        }
      ],
      "name": "estimateDepositPerfect",
      "outputs": [
        {
          "internalType": "uint256",
          "name": "token0Amt_",
          "type": "uint256"
        },
        {
          "internalType": "uint256",
          "name": "token1Amt_",
          "type": "uint256"
        }
      ],
      "stateMutability": "payable",
      "type": "function"
    },
    {
      "inputs": [
        {
          "internalType": "address",
          "name": "dex_",
          "type": "address"
        },
        {
          "internalType": "uint256",
          "name": "token0Amt_",
          "type": "uint256"
        },
        {
          "internalType": "uint256",
          "name": "token1Amt_",
          "type": "uint256"
        },
        {
          "internalType": "uint256",
          "name": "minSharesAmt_",
          "type": "uint256"
        }
      ],
      "name": "estimatePayback",
      "outputs": [
        {
          "internalType": "uint256",
          "name": "shares_",
          "type": "uint256"
        }
      ],
      "stateMutability": "payable",
      "type": "function"
    },
    {
      "inputs": [
        {
          "internalType": "address",
          "name": "dex_",
          "type": "address"
        },
        {
          "internalType": "uint256",
          "name": "shares_",
          "type": "uint256"
        },
        {
          "internalType": "uint256",
          "name": "maxToken0Payback_",
          "type": "uint256"
        },
        {
          "internalType": "uint256",
          "name": "maxToken1Payback_",
          "type": "uint256"
        }
      ],
      "name": "estimatePaybackPerfect",
      "outputs": [
        {
          "internalType": "uint256",
          "name": "token0Amt_",
          "type": "uint256"
        },
        {
          "internalType": "uint256",
          "name": "token1Amt_",
          "type": "uint256"
        }
      ],
      "stateMutability": "payable",
      "type": "function"
    },
    {
      "inputs": [
        {
          "internalType": "address",
          "name": "dex_",
          "type": "address"
        },
        {
          "internalType": "uint256",
          "name": "shares_",
          "type": "uint256"
        },
        {
          "internalType": "uint256",
          "name": "maxToken0_",
          "type": "uint256"
        },
        {
          "internalType": "uint256",
          "name": "maxToken1_",
          "type": "uint256"
        }
      ],
      "name": "estimatePaybackPerfectInOneToken",
      "outputs": [
        {
          "internalType": "uint256",
          "name": "paybackAmt_",
          "type": "uint256"
        }
      ],
      "stateMutability": "payable",
      "type": "function"
    },
    {
      "inputs": [
        {
          "internalType": "address",
          "name": "dex_",
          "type": "address"
        },
        {
          "internalType": "bool",
          "name": "swap0to1_",
          "type": "bool"
        },
        {
          "internalType": "uint256",
          "name": "amountIn_",
          "type": "uint256"
        },
        {
          "internalType": "uint256",
          "name": "amountOutMin_",
          "type": "uint256"
        }
      ],
      "name": "estimateSwapIn",
      "outputs": [
        {
          "internalType": "uint256",
          "name": "amountOut_",
          "type": "uint256"
        }
      ],
      "stateMutability": "payable",
      "type": "function"
    },
    {
      "inputs": [
        {
          "internalType": "address",
          "name": "dex_",
          "type": "address"
        },
        {
          "internalType": "bool",
          "name": "swap0to1_",
          "type": "bool"
        },
        {
          "internalType": "uint256",
          "name": "amountOut_",
          "type": "uint256"
        },
        {
          "internalType": "uint256",
          "name": "amountInMax_",
          "type": "uint256"
        }
      ],
      "name": "estimateSwapOut",
      "outputs": [
        {
          "internalType": "uint256",
          "name": "amountIn_",
          "type": "uint256"
        }
      ],
      "stateMutability": "payable",
      "type": "function"
    },
    {
      "inputs": [
        {
          "internalType": "address",
          "name": "dex_",
          "type": "address"
        },
        {
          "internalType": "uint256",
          "name": "token0Amt_",
          "type": "uint256"
        },
        {
          "internalType": "uint256",
          "name": "token1Amt_",
          "type": "uint256"
        },
        {
          "internalType": "uint256",
          "name": "maxSharesAmt_",
          "type": "uint256"
        }
      ],
      "name": "estimateWithdraw",
      "outputs": [
        {
          "internalType": "uint256",
          "name": "shares_",
          "type": "uint256"
        }
      ],
      "stateMutability": "nonpayable",
      "type": "function"
    },
    {
      "inputs": [
        {
          "internalType": "address",
          "name": "dex_",
          "type": "address"
        },
        {
          "internalType": "uint256",
          "name": "shares_",
          "type": "uint256"
        },
        {
          "internalType": "uint256",
          "name": "minToken0Withdraw_",
          "type": "uint256"
        },
        {
          "internalType": "uint256",
          "name": "minToken1Withdraw_",
          "type": "uint256"
        }
      ],
      "name": "estimateWithdrawPerfect",
      "outputs": [
        {
          "internalType": "uint256",
          "name": "token0Amt_",
          "type": "uint256"
        },
        {
          "internalType": "uint256",
          "name": "token1Amt_",
          "type": "uint256"
        }
      ],
      "stateMutability": "nonpayable",
      "type": "function"
    },
    {
      "inputs": [
        {
          "internalType": "address",
          "name": "dex_",
          "type": "address"
        },
        {
          "internalType": "uint256",
          "name": "shares_",
          "type": "uint256"
        },
        {
          "internalType": "uint256",
          "name": "minToken0_",
          "type": "uint256"
        },
        {
          "internalType": "uint256",
          "name": "minToken1_",
          "type": "uint256"
        }
      ],
      "name": "estimateWithdrawPerfectInOneToken",
      "outputs": [
        {
          "internalType": "uint256",
          "name": "withdrawAmt_",
          "type": "uint256"
        }
      ],
      "stateMutability": "nonpayable",
      "type": "function"
    },
    {
      "inputs": [],
      "name": "getAllDexAddresses",
      "outputs": [
        {
          "internalType": "address[]",
          "name": "dexes_",
          "type": "address[]"
        }
      ],
      "stateMutability": "view",
      "type": "function"
    },
    {
      "inputs": [],
      "name": "getAllDexEntireDatas",
      "outputs": [
        {
          "components": [
            {
              "internalType": "address",
              "name": "dex",
              "type": "address"
            },
            {
              "components": [
                {
                  "internalType": "uint256",
                  "name": "dexId",
                  "type": "uint256"
                },
                {
                  "internalType": "address",
                  "name": "liquidity",
                  "type": "address"
                },
                {
                  "internalType": "address",
                  "name": "factory",
                  "type": "address"
                },
                {
                  "components": [
                    {
                      "internalType": "address",
                      "name": "shift",
                      "type": "address"
                    },
                    {
                      "internalType": "address",
                      "name": "admin",
                      "type": "address"
                    },
                    {
                      "internalType": "address",
                      "name": "colOperations",
                      "type": "address"
                    },
                    {
                      "internalType": "address",
                      "name": "debtOperations",
                      "type": "address"
                    },
                    {
                      "internalType": "address",
                      "name": "perfectOperationsAndOracle",
                      "type": "address"
                    }
                  ],
                  "internalType": "struct IFluidDexT1.Implementations",
                  "name": "implementations",
                  "type": "tuple"
                },
                {
                  "internalType": "address",
                  "name": "deployerContract",
                  "type": "address"
                },
                {
                  "internalType": "address",
                  "name": "token0",
                  "type": "address"
                },
                {
                  "internalType": "address",
                  "name": "token1",
                  "type": "address"
                },
                {
                  "internalType": "bytes32",
                  "name": "supplyToken0Slot",
                  "type": "bytes32"
                },
                {
                  "internalType": "bytes32",
                  "name": "borrowToken0Slot",
                  "type": "bytes32"
                },
                {
                  "internalType": "bytes32",
                  "name": "supplyToken1Slot",
                  "type": "bytes32"
                },
                {
                  "internalType": "bytes32",
                  "name": "borrowToken1Slot",
                  "type": "bytes32"
                },
                {
                  "internalType": "bytes32",
                  "name": "exchangePriceToken0Slot",
                  "type": "bytes32"
                },
                {
                  "internalType": "bytes32",
                  "name": "exchangePriceToken1Slot",
                  "type": "bytes32"
                },
                {
                  "internalType": "uint256",
                  "name": "oracleMapping",
                  "type": "uint256"
                }
              ],
              "internalType": "struct IFluidDexT1.ConstantViews",
              "name": "constantViews",
              "type": "tuple"
            },
            {
              "components": [
                {
                  "internalType": "uint256",
                  "name": "token0NumeratorPrecision",
                  "type": "uint256"
                },
                {
                  "internalType": "uint256",
                  "name": "token0DenominatorPrecision",
                  "type": "uint256"
                },
                {
                  "internalType": "uint256",
                  "name": "token1NumeratorPrecision",
                  "type": "uint256"
                },
                {
                  "internalType": "uint256",
                  "name": "token1DenominatorPrecision",
                  "type": "uint256"
                }
              ],
              "internalType": "struct IFluidDexT1.ConstantViews2",
              "name": "constantViews2",
              "type": "tuple"
            },
            {
              "components": [
                {
                  "internalType": "bool",
                  "name": "isSmartCollateralEnabled",
                  "type": "bool"
                },
                {
                  "internalType": "bool",
                  "name": "isSmartDebtEnabled",
                  "type": "bool"
                },
                {
                  "internalType": "uint256",
                  "name": "fee",
                  "type": "uint256"
                },
                {
                  "internalType": "uint256",
                  "name": "revenueCut",
                  "type": "uint256"
                },
                {
                  "internalType": "uint256",
                  "name": "upperRange",
                  "type": "uint256"
                },
                {
                  "internalType": "uint256",
                  "name": "lowerRange",
                  "type": "uint256"
                },
                {
                  "internalType": "uint256",
                  "name": "upperShiftThreshold",
                  "type": "uint256"
                },
                {
                  "internalType": "uint256",
                  "name": "lowerShiftThreshold",
                  "type": "uint256"
                },
                {
                  "internalType": "uint256",
                  "name": "shiftingTime",
                  "type": "uint256"
                },
                {
                  "internalType": "address",
                  "name": "centerPriceAddress",
                  "type": "address"
                },
                {
                  "internalType": "address",
                  "name": "hookAddress",
                  "type": "address"
                },
                {
                  "internalType": "uint256",
                  "name": "maxCenterPrice",
                  "type": "uint256"
                },
                {
                  "internalType": "uint256",
                  "name": "minCenterPrice",
                  "type": "uint256"
                },
                {
                  "internalType": "uint256",
                  "name": "utilizationLimitToken0",
                  "type": "uint256"
                },
                {
                  "internalType": "uint256",
                  "name": "utilizationLimitToken1",
                  "type": "uint256"
                },
                {
                  "internalType": "uint256",
                  "name": "maxSupplyShares",
                  "type": "uint256"
                },
                {
                  "internalType": "uint256",
                  "name": "maxBorrowShares",
                  "type": "uint256"
                }
              ],
              "internalType": "struct Structs.Configs",
              "name": "configs",
              "type": "tuple"
            },
            {
              "components": [
                {
                  "internalType": "uint256",
                  "name": "lastStoredPrice",
                  "type": "uint256"
                },
                {
                  "internalType": "uint256",
                  "name": "centerPrice",
                  "type": "uint256"
                },
                {
                  "internalType": "uint256",
                  "name": "upperRange",
                  "type": "uint256"
                },
                {
                  "internalType": "uint256",
                  "name": "lowerRange",
                  "type": "uint256"
                },
                {
                  "internalType": "uint256",
                  "name": "geometricMean",
                  "type": "uint256"
                },
                {
                  "internalType": "uint256",
                  "name": "supplyToken0ExchangePrice",
                  "type": "uint256"
                },
                {
                  "internalType": "uint256",
                  "name": "borrowToken0ExchangePrice",
                  "type": "uint256"
                },
                {
                  "internalType": "uint256",
                  "name": "supplyToken1ExchangePrice",
                  "type": "uint256"
                },
                {
                  "internalType": "uint256",
                  "name": "borrowToken1ExchangePrice",
                  "type": "uint256"
                }
              ],
              "internalType": "struct IFluidDexT1.PricesAndExchangePrice",
              "name": "pex",
              "type": "tuple"
            },
            {
              "components": [
                {
                  "internalType": "uint256",
                  "name": "token0RealReserves",
                  "type": "uint256"
                },
                {
                  "internalType": "uint256",
                  "name": "token1RealReserves",
                  "type": "uint256"
                },
                {
                  "internalType": "uint256",
                  "name": "token0ImaginaryReserves",
                  "type": "uint256"
                },
                {
                  "internalType": "uint256",
                  "name": "token1ImaginaryReserves",
                  "type": "uint256"
                }
              ],
              "internalType": "struct IFluidDexT1.CollateralReserves",
              "name": "colReserves",
              "type": "tuple"
            },
            {
              "components": [
                {
                  "internalType": "uint256",
                  "name": "token0Debt",
                  "type": "uint256"
                },
                {
                  "internalType": "uint256",
                  "name": "token1Debt",
                  "type": "uint256"
                },
                {
                  "internalType": "uint256",
                  "name": "token0RealReserves",
                  "type": "uint256"
                },
                {
                  "internalType": "uint256",
                  "name": "token1RealReserves",
                  "type": "uint256"
                },
                {
                  "internalType": "uint256",
                  "name": "token0ImaginaryReserves",
                  "type": "uint256"
                },
                {
                  "internalType": "uint256",
                  "name": "token1ImaginaryReserves",
                  "type": "uint256"
                }
              ],
              "internalType": "struct IFluidDexT1.DebtReserves",
              "name": "debtReserves",
              "type": "tuple"
            },
            {
              "components": [
                {
                  "internalType": "uint256",
                  "name": "lastToLastStoredPrice",
                  "type": "uint256"
                },
                {
                  "internalType": "uint256",
                  "name": "lastStoredPrice",
                  "type": "uint256"
                },
                {
                  "internalType": "uint256",
                  "name": "centerPrice",
                  "type": "uint256"
                },
                {
                  "internalType": "uint256",
                  "name": "lastUpdateTimestamp",
                  "type": "uint256"
                },
                {
                  "internalType": "uint256",
                  "name": "lastPricesTimeDiff",
                  "type": "uint256"
                },
                {
                  "internalType": "uint256",
                  "name": "oracleCheckPoint",
                  "type": "uint256"
                },
                {
                  "internalType": "uint256",
                  "name": "oracleMapping",
                  "type": "uint256"
                },
                {
                  "internalType": "uint256",
                  "name": "totalSupplyShares",
                  "type": "uint256"
                },
                {
                  "internalType": "uint256",
                  "name": "totalBorrowShares",
                  "type": "uint256"
                },
                {
                  "internalType": "bool",
                  "name": "isSwapAndArbitragePaused",
                  "type": "bool"
                },
                {
                  "components": [
                    {
                      "internalType": "bool",
                      "name": "isRangeChangeActive",
                      "type": "bool"
                    },
                    {
                      "internalType": "bool",
                      "name": "isThresholdChangeActive",
                      "type": "bool"
                    },
                    {
                      "internalType": "bool",
                      "name": "isCenterPriceShiftActive",
                      "type": "bool"
                    },
                    {
                      "components": [
                        {
                          "internalType": "uint256",
                          "name": "oldUpper",
                          "type": "uint256"
                        },
                        {
                          "internalType": "uint256",
                          "name": "oldLower",
                          "type": "uint256"
                        },
                        {
                          "internalType": "uint256",
                          "name": "duration",
                          "type": "uint256"
                        },
                        {
                          "internalType": "uint256",
                          "name": "startTimestamp",
                          "type": "uint256"
                        },
                        {
                          "internalType": "uint256",
                          "name": "oldTime",
                          "type": "uint256"
                        }
                      ],
                      "internalType": "struct Structs.ShiftData",
                      "name": "rangeShift",
                      "type": "tuple"
                    },
                    {
                      "components": [
                        {
                          "internalType": "uint256",
                          "name": "oldUpper",
                          "type": "uint256"
                        },
                        {
                          "internalType": "uint256",
                          "name": "oldLower",
                          "type": "uint256"
                        },
                        {
                          "internalType": "uint256",
                          "name": "duration",
                          "type": "uint256"
                        },
                        {
                          "internalType": "uint256",
                          "name": "startTimestamp",
                          "type": "uint256"
                        },
                        {
                          "internalType": "uint256",
                          "name": "oldTime",
                          "type": "uint256"
                        }
                      ],
                      "internalType": "struct Structs.ShiftData",
                      "name": "thresholdShift",
                      "type": "tuple"
                    },
                    {
                      "components": [
                        {
                          "internalType": "uint256",
                          "name": "shiftPercentage",
                          "type": "uint256"
                        },
                        {
                          "internalType": "uint256",
                          "name": "duration",
                          "type": "uint256"
                        },
                        {
                          "internalType": "uint256",
                          "name": "startTimestamp",
                          "type": "uint256"
                        }
                      ],
                      "internalType": "struct Structs.CenterPriceShift",
                      "name": "centerPriceShift",
                      "type": "tuple"
                    }
                  ],
                  "internalType": "struct Structs.ShiftChanges",
                  "name": "shifts",
                  "type": "tuple"
                },
                {
                  "internalType": "uint256",
                  "name": "token0PerSupplyShare",
                  "type": "uint256"
                },
                {
                  "internalType": "uint256",
                  "name": "token1PerSupplyShare",
                  "type": "uint256"
                },
                {
                  "internalType": "uint256",
                  "name": "token0PerBorrowShare",
                  "type": "uint256"
                },
                {
                  "internalType": "uint256",
                  "name": "token1PerBorrowShare",
                  "type": "uint256"
                }
              ],
              "internalType": "struct Structs.DexState",
              "name": "dexState",
              "type": "tuple"
            },
            {
              "components": [
                {
                  "internalType": "uint256",
                  "name": "liquiditySupplyToken0",
                  "type": "uint256"
                },
                {
                  "internalType": "uint256",
                  "name": "liquiditySupplyToken1",
                  "type": "uint256"
                },
                {
                  "internalType": "uint256",
                  "name": "liquidityBorrowToken0",
                  "type": "uint256"
                },
                {
                  "internalType": "uint256",
                  "name": "liquidityBorrowToken1",
                  "type": "uint256"
                },
                {
                  "internalType": "uint256",
                  "name": "liquidityWithdrawableToken0",
                  "type": "uint256"
                },
                {
                  "internalType": "uint256",
                  "name": "liquidityWithdrawableToken1",
                  "type": "uint256"
                },
                {
                  "internalType": "uint256",
                  "name": "liquidityBorrowableToken0",
                  "type": "uint256"
                },
                {
                  "internalType": "uint256",
                  "name": "liquidityBorrowableToken1",
                  "type": "uint256"
                },
                {
                  "internalType": "uint256",
                  "name": "utilizationLimitToken0",
                  "type": "uint256"
                },
                {
                  "internalType": "uint256",
                  "name": "utilizationLimitToken1",
                  "type": "uint256"
                },
                {
                  "internalType": "uint256",
                  "name": "withdrawableUntilUtilizationLimitToken0",
                  "type": "uint256"
                },
                {
                  "internalType": "uint256",
                  "name": "withdrawableUntilUtilizationLimitToken1",
                  "type": "uint256"
                },
                {
                  "internalType": "uint256",
                  "name": "borrowableUntilUtilizationLimitToken0",
                  "type": "uint256"
                },
                {
                  "internalType": "uint256",
                  "name": "borrowableUntilUtilizationLimitToken1",
                  "type": "uint256"
                },
                {
                  "components": [
                    {
                      "internalType": "bool",
                      "name": "modeWithInterest",
                      "type": "bool"
                    },
                    {
                      "internalType": "uint256",
                      "name": "supply",
                      "type": "uint256"
                    },
                    {
                      "internalType": "uint256",
                      "name": "withdrawalLimit",
                      "type": "uint256"
                    },
                    {
                      "internalType": "uint256",
                      "name": "lastUpdateTimestamp",
                      "type": "uint256"
                    },
                    {
                      "internalType": "uint256",
                      "name": "expandPercent",
                      "type": "uint256"
                    },
                    {
                      "internalType": "uint256",
                      "name": "expandDuration",
                      "type": "uint256"
                    },
                    {
                      "internalType": "uint256",
                      "name": "baseWithdrawalLimit",
                      "type": "uint256"
                    },
                    {
                      "internalType": "uint256",
                      "name": "withdrawableUntilLimit",
                      "type": "uint256"
                    },
                    {
                      "internalType": "uint256",
                      "name": "withdrawable",
                      "type": "uint256"
                    },
                    {
                      "internalType": "uint256",
                      "name": "decayEndTimestamp",
                      "type": "uint256"
                    },
                    {
                      "internalType": "uint256",
                      "name": "decayAmount",
                      "type": "uint256"
                    }
                  ],
                  "internalType": "struct Structs.UserSupplyData",
                  "name": "liquidityUserSupplyDataToken0",
                  "type": "tuple"
                },
                {
                  "components": [
                    {
                      "internalType": "bool",
                      "name": "modeWithInterest",
                      "type": "bool"
                    },
                    {
                      "internalType": "uint256",
                      "name": "supply",
                      "type": "uint256"
                    },
                    {
                      "internalType": "uint256",
                      "name": "withdrawalLimit",
                      "type": "uint256"
                    },
                    {
                      "internalType": "uint256",
                      "name": "lastUpdateTimestamp",
                      "type": "uint256"
                    },
                    {
                      "internalType": "uint256",
                      "name": "expandPercent",
                      "type": "uint256"
                    },
                    {
                      "internalType": "uint256",
                      "name": "expandDuration",
                      "type": "uint256"
                    },
                    {
                      "internalType": "uint256",
                      "name": "baseWithdrawalLimit",
                      "type": "uint256"
                    },
                    {
                      "internalType": "uint256",
                      "name": "withdrawableUntilLimit",
                      "type": "uint256"
                    },
                    {
                      "internalType": "uint256",
                      "name": "withdrawable",
                      "type": "uint256"
                    },
                    {
                      "internalType": "uint256",
                      "name": "decayEndTimestamp",
                      "type": "uint256"
                    },
                    {
                      "internalType": "uint256",
                      "name": "decayAmount",
                      "type": "uint256"
                    }
                  ],
                  "internalType": "struct Structs.UserSupplyData",
                  "name": "liquidityUserSupplyDataToken1",
                  "type": "tuple"
                },
                {
                  "components": [
                    {
                      "internalType": "bool",
                      "name": "modeWithInterest",
                      "type": "bool"
                    },
                    {
                      "internalType": "uint256",
                      "name": "borrow",
                      "type": "uint256"
                    },
                    {
                      "internalType": "uint256",
                      "name": "borrowLimit",
                      "type": "uint256"
                    },
                    {
                      "internalType": "uint256",
                      "name": "lastUpdateTimestamp",
                      "type": "uint256"
                    },
                    {
                      "internalType": "uint256",
                      "name": "expandPercent",
                      "type": "uint256"
                    },
                    {
                      "internalType": "uint256",
                      "name": "expandDuration",
                      "type": "uint256"
                    },
                    {
                      "internalType": "uint256",
                      "name": "baseBorrowLimit",
                      "type": "uint256"
                    },
                    {
                      "internalType": "uint256",
                      "name": "maxBorrowLimit",
                      "type": "uint256"
                    },
                    {
                      "internalType": "uint256",
                      "name": "borrowableUntilLimit",
                      "type": "uint256"
                    },
                    {
                      "internalType": "uint256",
                      "name": "borrowable",
                      "type": "uint256"
                    },
                    {
                      "internalType": "uint256",
                      "name": "borrowLimitUtilization",
                      "type": "uint256"
                    }
                  ],
                  "internalType": "struct Structs.UserBorrowData",
                  "name": "liquidityUserBorrowDataToken0",
                  "type": "tuple"
                },
                {
                  "components": [
                    {
                      "internalType": "bool",
                      "name": "modeWithInterest",
                      "type": "bool"
                    },
                    {
                      "internalType": "uint256",
                      "name": "borrow",
                      "type": "uint256"
                    },
                    {
                      "internalType": "uint256",
                      "name": "borrowLimit",
                      "type": "uint256"
                    },
                    {
                      "internalType": "uint256",
                      "name": "lastUpdateTimestamp",
                      "type": "uint256"
                    },
                    {
                      "internalType": "uint256",
                      "name": "expandPercent",
                      "type": "uint256"
                    },
                    {
                      "internalType": "uint256",
                      "name": "expandDuration",
                      "type": "uint256"
                    },
                    {
                      "internalType": "uint256",
                      "name": "baseBorrowLimit",
                      "type": "uint256"
                    },
                    {
                      "internalType": "uint256",
                      "name": "maxBorrowLimit",
                      "type": "uint256"
                    },
                    {
                      "internalType": "uint256",
                      "name": "borrowableUntilLimit",
                      "type": "uint256"
                    },
                    {
                      "internalType": "uint256",
                      "name": "borrowable",
                      "type": "uint256"
                    },
                    {
                      "internalType": "uint256",
                      "name": "borrowLimitUtilization",
                      "type": "uint256"
                    }
                  ],
                  "internalType": "struct Structs.UserBorrowData",
                  "name": "liquidityUserBorrowDataToken1",
                  "type": "tuple"
                },
                {
                  "components": [
                    {
                      "internalType": "uint256",
                      "name": "borrowRate",
                      "type": "uint256"
                    },
                    {
                      "internalType": "uint256",
                      "name": "supplyRate",
                      "type": "uint256"
                    },
                    {
                      "internalType": "uint256",
                      "name": "fee",
                      "type": "uint256"
                    },
                    {
                      "internalType": "uint256",
                      "name": "lastStoredUtilization",
                      "type": "uint256"
                    },
                    {
                      "internalType": "uint256",
                      "name": "storageUpdateThreshold",
                      "type": "uint256"
                    },
                    {
                      "internalType": "uint256",
                      "name": "lastUpdateTimestamp",
                      "type": "uint256"
                    },
                    {
                      "internalType": "uint256",
                      "name": "supplyExchangePrice",
                      "type": "uint256"
                    },
                    {
                      "internalType": "uint256",
                      "name": "borrowExchangePrice",
                      "type": "uint256"
                    },
                    {
                      "internalType": "uint256",
                      "name": "supplyRawInterest",
                      "type": "uint256"
                    },
                    {
                      "internalType": "uint256",
                      "name": "supplyInterestFree",
                      "type": "uint256"
                    },
                    {
                      "internalType": "uint256",
                      "name": "borrowRawInterest",
                      "type": "uint256"
                    },
                    {
                      "internalType": "uint256",
                      "name": "borrowInterestFree",
                      "type": "uint256"
                    },
                    {
                      "internalType": "uint256",
                      "name": "totalSupply",
                      "type": "uint256"
                    },
                    {
                      "internalType": "uint256",
                      "name": "totalBorrow",
                      "type": "uint256"
                    },
                    {
                      "internalType": "uint256",
                      "name": "revenue",
                      "type": "uint256"
                    },
                    {
                      "internalType": "uint256",
                      "name": "maxUtilization",
                      "type": "uint256"
                    },
                    {
                      "components": [
                        {
                          "internalType": "uint256",
                          "name": "version",
                          "type": "uint256"
                        },
                        {
                          "components": [
                            {
                              "internalType": "address",
                              "name": "token",
                              "type": "address"
                            },
                            {
                              "internalType": "uint256",
                              "name": "kink",
                              "type": "uint256"
                            },
                            {
                              "internalType": "uint256",
                              "name": "rateAtUtilizationZero",
                              "type": "uint256"
                            },
                            {
                              "internalType": "uint256",
                              "name": "rateAtUtilizationKink",
                              "type": "uint256"
                            },
                            {
                              "internalType": "uint256",
                              "name": "rateAtUtilizationMax",
                              "type": "uint256"
                            }
                          ],
                          "internalType": "struct Structs.RateDataV1Params",
                          "name": "rateDataV1",
                          "type": "tuple"
                        },
                        {
                          "components": [
                            {
                              "internalType": "address",
                              "name": "token",
                              "type": "address"
                            },
                            {
                              "internalType": "uint256",
                              "name": "kink1",
                              "type": "uint256"
                            },
                            {
                              "internalType": "uint256",
                              "name": "kink2",
                              "type": "uint256"
                            },
                            {
                              "internalType": "uint256",
                              "name": "rateAtUtilizationZero",
                              "type": "uint256"
                            },
                            {
                              "internalType": "uint256",
                              "name": "rateAtUtilizationKink1",
                              "type": "uint256"
                            },
                            {
                              "internalType": "uint256",
                              "name": "rateAtUtilizationKink2",
                              "type": "uint256"
                            },
                            {
                              "internalType": "uint256",
                              "name": "rateAtUtilizationMax",
                              "type": "uint256"
                            }
                          ],
                          "internalType": "struct Structs.RateDataV2Params",
                          "name": "rateDataV2",
                          "type": "tuple"
                        }
                      ],
                      "internalType": "struct Structs.RateData",
                      "name": "rateData",
                      "type": "tuple"
                    }
                  ],
                  "internalType": "struct Structs.OverallTokenData",
                  "name": "liquidityTokenData0",
                  "type": "tuple"
                },
                {
                  "components": [
                    {
                      "internalType": "uint256",
                      "name": "borrowRate",
                      "type": "uint256"
                    },
                    {
                      "internalType": "uint256",
                      "name": "supplyRate",
                      "type": "uint256"
                    },
                    {
                      "internalType": "uint256",
                      "name": "fee",
                      "type": "uint256"
                    },
                    {
                      "internalType": "uint256",
                      "name": "lastStoredUtilization",
                      "type": "uint256"
                    },
                    {
                      "internalType": "uint256",
                      "name": "storageUpdateThreshold",
                      "type": "uint256"
                    },
                    {
                      "internalType": "uint256",
                      "name": "lastUpdateTimestamp",
                      "type": "uint256"
                    },
                    {
                      "internalType": "uint256",
                      "name": "supplyExchangePrice",
                      "type": "uint256"
                    },
                    {
                      "internalType": "uint256",
                      "name": "borrowExchangePrice",
                      "type": "uint256"
                    },
                    {
                      "internalType": "uint256",
                      "name": "supplyRawInterest",
                      "type": "uint256"
                    },
                    {
                      "internalType": "uint256",
                      "name": "supplyInterestFree",
                      "type": "uint256"
                    },
                    {
                      "internalType": "uint256",
                      "name": "borrowRawInterest",
                      "type": "uint256"
                    },
                    {
                      "internalType": "uint256",
                      "name": "borrowInterestFree",
                      "type": "uint256"
                    },
                    {
                      "internalType": "uint256",
                      "name": "totalSupply",
                      "type": "uint256"
                    },
                    {
                      "internalType": "uint256",
                      "name": "totalBorrow",
                      "type": "uint256"
                    },
                    {
                      "internalType": "uint256",
                      "name": "revenue",
                      "type": "uint256"
                    },
                    {
                      "internalType": "uint256",
                      "name": "maxUtilization",
                      "type": "uint256"
                    },
                    {
                      "components": [
                        {
                          "internalType": "uint256",
                          "name": "version",
                          "type": "uint256"
                        },
                        {
                          "components": [
                            {
                              "internalType": "address",
                              "name": "token",
                              "type": "address"
                            },
                            {
                              "internalType": "uint256",
                              "name": "kink",
                              "type": "uint256"
                            },
                            {
                              "internalType": "uint256",
                              "name": "rateAtUtilizationZero",
                              "type": "uint256"
                            },
                            {
                              "internalType": "uint256",
                              "name": "rateAtUtilizationKink",
                              "type": "uint256"
                            },
                            {
                              "internalType": "uint256",
                              "name": "rateAtUtilizationMax",
                              "type": "uint256"
                            }
                          ],
                          "internalType": "struct Structs.RateDataV1Params",
                          "name": "rateDataV1",
                          "type": "tuple"
                        },
                        {
                          "components": [
                            {
                              "internalType": "address",
                              "name": "token",
                              "type": "address"
                            },
                            {
                              "internalType": "uint256",
                              "name": "kink1",
                              "type": "uint256"
                            },
                            {
                              "internalType": "uint256",
                              "name": "kink2",
                              "type": "uint256"
                            },
                            {
                              "internalType": "uint256",
                              "name": "rateAtUtilizationZero",
                              "type": "uint256"
                            },
                            {
                              "internalType": "uint256",
                              "name": "rateAtUtilizationKink1",
                              "type": "uint256"
                            },
                            {
                              "internalType": "uint256",
                              "name": "rateAtUtilizationKink2",
                              "type": "uint256"
                            },
                            {
                              "internalType": "uint256",
                              "name": "rateAtUtilizationMax",
                              "type": "uint256"
                            }
                          ],
                          "internalType": "struct Structs.RateDataV2Params",
                          "name": "rateDataV2",
                          "type": "tuple"
                        }
                      ],
                      "internalType": "struct Structs.RateData",
                      "name": "rateData",
                      "type": "tuple"
                    }
                  ],
                  "internalType": "struct Structs.OverallTokenData",
                  "name": "liquidityTokenData1",
                  "type": "tuple"
                }
              ],
              "internalType": "struct Structs.SwapLimitsAndAvailability",
              "name": "limitsAndAvailability",
              "type": "tuple"
            }
          ],
          "internalType": "struct Structs.DexEntireData[]",
          "name": "datas_",
          "type": "tuple[]"
        }
      ],
      "stateMutability": "nonpayable",
      "type": "function"
    },
    {
      "inputs": [
        {
          "internalType": "address",
          "name": "dex_",
          "type": "address"
        }
      ],
      "name": "getCenterPriceShiftRaw",
      "outputs": [
        {
          "internalType": "uint256",
          "name": "",
          "type": "uint256"
        }
      ],
      "stateMutability": "view",
      "type": "function"
    },
    {
      "inputs": [
        {
          "internalType": "uint256",
          "name": "dexId_",
          "type": "uint256"
        }
      ],
      "name": "getDexAddress",
      "outputs": [
        {
          "internalType": "address",
          "name": "dex_",
          "type": "address"
        }
      ],
      "stateMutability": "view",
      "type": "function"
    },
    {
      "inputs": [
        {
          "internalType": "address",
          "name": "dex_",
          "type": "address"
        }
      ],
      "name": "getDexCollateralReserves",
      "outputs": [
        {
          "components": [
            {
              "internalType": "uint256",
              "name": "token0RealReserves",
              "type": "uint256"
            },
            {
              "internalType": "uint256",
              "name": "token1RealReserves",
              "type": "uint256"
            },
            {
              "internalType": "uint256",
              "name": "token0ImaginaryReserves",
              "type": "uint256"
            },
            {
              "internalType": "uint256",
              "name": "token1ImaginaryReserves",
              "type": "uint256"
            }
          ],
          "internalType": "struct IFluidDexT1.CollateralReserves",
          "name": "reserves_",
          "type": "tuple"
        }
      ],
      "stateMutability": "nonpayable",
      "type": "function"
    },
    {
      "inputs": [
        {
          "internalType": "address",
          "name": "dex_",
          "type": "address"
        }
      ],
      "name": "getDexConfigs",
      "outputs": [
        {
          "components": [
            {
              "internalType": "bool",
              "name": "isSmartCollateralEnabled",
              "type": "bool"
            },
            {
              "internalType": "bool",
              "name": "isSmartDebtEnabled",
              "type": "bool"
            },
            {
              "internalType": "uint256",
              "name": "fee",
              "type": "uint256"
            },
            {
              "internalType": "uint256",
              "name": "revenueCut",
              "type": "uint256"
            },
            {
              "internalType": "uint256",
              "name": "upperRange",
              "type": "uint256"
            },
            {
              "internalType": "uint256",
              "name": "lowerRange",
              "type": "uint256"
            },
            {
              "internalType": "uint256",
              "name": "upperShiftThreshold",
              "type": "uint256"
            },
            {
              "internalType": "uint256",
              "name": "lowerShiftThreshold",
              "type": "uint256"
            },
            {
              "internalType": "uint256",
              "name": "shiftingTime",
              "type": "uint256"
            },
            {
              "internalType": "address",
              "name": "centerPriceAddress",
              "type": "address"
            },
            {
              "internalType": "address",
              "name": "hookAddress",
              "type": "address"
            },
            {
              "internalType": "uint256",
              "name": "maxCenterPrice",
              "type": "uint256"
            },
            {
              "internalType": "uint256",
              "name": "minCenterPrice",
              "type": "uint256"
            },
            {
              "internalType": "uint256",
              "name": "utilizationLimitToken0",
              "type": "uint256"
            },
            {
              "internalType": "uint256",
              "name": "utilizationLimitToken1",
              "type": "uint256"
            },
            {
              "internalType": "uint256",
              "name": "maxSupplyShares",
              "type": "uint256"
            },
            {
              "internalType": "uint256",
              "name": "maxBorrowShares",
              "type": "uint256"
            }
          ],
          "internalType": "struct Structs.Configs",
          "name": "configs_",
          "type": "tuple"
        }
      ],
      "stateMutability": "view",
      "type": "function"
    },
    {
      "inputs": [
        {
          "internalType": "address",
          "name": "dex_",
          "type": "address"
        }
      ],
      "name": "getDexConstantsView",
      "outputs": [
        {
          "components": [
            {
              "internalType": "uint256",
              "name": "dexId",
              "type": "uint256"
            },
            {
              "internalType": "address",
              "name": "liquidity",
              "type": "address"
            },
            {
              "internalType": "address",
              "name": "factory",
              "type": "address"
            },
            {
              "components": [
                {
                  "internalType": "address",
                  "name": "shift",
                  "type": "address"
                },
                {
                  "internalType": "address",
                  "name": "admin",
                  "type": "address"
                },
                {
                  "internalType": "address",
                  "name": "colOperations",
                  "type": "address"
                },
                {
                  "internalType": "address",
                  "name": "debtOperations",
                  "type": "address"
                },
                {
                  "internalType": "address",
                  "name": "perfectOperationsAndOracle",
                  "type": "address"
                }
              ],
              "internalType": "struct IFluidDexT1.Implementations",
              "name": "implementations",
              "type": "tuple"
            },
            {
              "internalType": "address",
              "name": "deployerContract",
              "type": "address"
            },
            {
              "internalType": "address",
              "name": "token0",
              "type": "address"
            },
            {
              "internalType": "address",
              "name": "token1",
              "type": "address"
            },
            {
              "internalType": "bytes32",
              "name": "supplyToken0Slot",
              "type": "bytes32"
            },
            {
              "internalType": "bytes32",
              "name": "borrowToken0Slot",
              "type": "bytes32"
            },
            {
              "internalType": "bytes32",
              "name": "supplyToken1Slot",
              "type": "bytes32"
            },
            {
              "internalType": "bytes32",
              "name": "borrowToken1Slot",
              "type": "bytes32"
            },
            {
              "internalType": "bytes32",
              "name": "exchangePriceToken0Slot",
              "type": "bytes32"
            },
            {
              "internalType": "bytes32",
              "name": "exchangePriceToken1Slot",
              "type": "bytes32"
            },
            {
              "internalType": "uint256",
              "name": "oracleMapping",
              "type": "uint256"
            }
          ],
          "internalType": "struct IFluidDexT1.ConstantViews",
          "name": "constantsView_",
          "type": "tuple"
        }
      ],
      "stateMutability": "view",
      "type": "function"
    },
    {
      "inputs": [
        {
          "internalType": "address",
          "name": "dex_",
          "type": "address"
        }
      ],
      "name": "getDexConstantsView2",
      "outputs": [
        {
          "components": [
            {
              "internalType": "uint256",
              "name": "token0NumeratorPrecision",
              "type": "uint256"
            },
            {
              "internalType": "uint256",
              "name": "token0DenominatorPrecision",
              "type": "uint256"
            },
            {
              "internalType": "uint256",
              "name": "token1NumeratorPrecision",
              "type": "uint256"
            },
            {
              "internalType": "uint256",
              "name": "token1DenominatorPrecision",
              "type": "uint256"
            }
          ],
          "internalType": "struct IFluidDexT1.ConstantViews2",
          "name": "constantsView2_",
          "type": "tuple"
        }
      ],
      "stateMutability": "view",
      "type": "function"
    },
    {
      "inputs": [
        {
          "internalType": "address",
          "name": "dex_",
          "type": "address"
        }
      ],
      "name": "getDexDebtReserves",
      "outputs": [
        {
          "components": [
            {
              "internalType": "uint256",
              "name": "token0Debt",
              "type": "uint256"
            },
            {
              "internalType": "uint256",
              "name": "token1Debt",
              "type": "uint256"
            },
            {
              "internalType": "uint256",
              "name": "token0RealReserves",
              "type": "uint256"
            },
            {
              "internalType": "uint256",
              "name": "token1RealReserves",
              "type": "uint256"
            },
            {
              "internalType": "uint256",
              "name": "token0ImaginaryReserves",
              "type": "uint256"
            },
            {
              "internalType": "uint256",
              "name": "token1ImaginaryReserves",
              "type": "uint256"
            }
          ],
          "internalType": "struct IFluidDexT1.DebtReserves",
          "name": "reserves_",
          "type": "tuple"
        }
      ],
      "stateMutability": "nonpayable",
      "type": "function"
    },
    {
      "inputs": [
        {
          "internalType": "address",
          "name": "dex_",
          "type": "address"
        }
      ],
      "name": "getDexEntireData",
      "outputs": [
        {
          "components": [
            {
              "internalType": "address",
              "name": "dex",
              "type": "address"
            },
            {
              "components": [
                {
                  "internalType": "uint256",
                  "name": "dexId",
                  "type": "uint256"
                },
                {
                  "internalType": "address",
                  "name": "liquidity",
                  "type": "address"
                },
                {
                  "internalType": "address",
                  "name": "factory",
                  "type": "address"
                },
                {
                  "components": [
                    {
                      "internalType": "address",
                      "name": "shift",
                      "type": "address"
                    },
                    {
                      "internalType": "address",
                      "name": "admin",
                      "type": "address"
                    },
                    {
                      "internalType": "address",
                      "name": "colOperations",
                      "type": "address"
                    },
                    {
                      "internalType": "address",
                      "name": "debtOperations",
                      "type": "address"
                    },
                    {
                      "internalType": "address",
                      "name": "perfectOperationsAndOracle",
                      "type": "address"
                    }
                  ],
                  "internalType": "struct IFluidDexT1.Implementations",
                  "name": "implementations",
                  "type": "tuple"
                },
                {
                  "internalType": "address",
                  "name": "deployerContract",
                  "type": "address"
                },
                {
                  "internalType": "address",
                  "name": "token0",
                  "type": "address"
                },
                {
                  "internalType": "address",
                  "name": "token1",
                  "type": "address"
                },
                {
                  "internalType": "bytes32",
                  "name": "supplyToken0Slot",
                  "type": "bytes32"
                },
                {
                  "internalType": "bytes32",
                  "name": "borrowToken0Slot",
                  "type": "bytes32"
                },
                {
                  "internalType": "bytes32",
                  "name": "supplyToken1Slot",
                  "type": "bytes32"
                },
                {
                  "internalType": "bytes32",
                  "name": "borrowToken1Slot",
                  "type": "bytes32"
                },
                {
                  "internalType": "bytes32",
                  "name": "exchangePriceToken0Slot",
                  "type": "bytes32"
                },
                {
                  "internalType": "bytes32",
                  "name": "exchangePriceToken1Slot",
                  "type": "bytes32"
                },
                {
                  "internalType": "uint256",
                  "name": "oracleMapping",
                  "type": "uint256"
                }
              ],
              "internalType": "struct IFluidDexT1.ConstantViews",
              "name": "constantViews",
              "type": "tuple"
            },
            {
              "components": [
                {
                  "internalType": "uint256",
                  "name": "token0NumeratorPrecision",
                  "type": "uint256"
                },
                {
                  "internalType": "uint256",
                  "name": "token0DenominatorPrecision",
                  "type": "uint256"
                },
                {
                  "internalType": "uint256",
                  "name": "token1NumeratorPrecision",
                  "type": "uint256"
                },
                {
                  "internalType": "uint256",
                  "name": "token1DenominatorPrecision",
                  "type": "uint256"
                }
              ],
              "internalType": "struct IFluidDexT1.ConstantViews2",
              "name": "constantViews2",
              "type": "tuple"
            },
            {
              "components": [
                {
                  "internalType": "bool",
                  "name": "isSmartCollateralEnabled",
                  "type": "bool"
                },
                {
                  "internalType": "bool",
                  "name": "isSmartDebtEnabled",
                  "type": "bool"
                },
                {
                  "internalType": "uint256",
                  "name": "fee",
                  "type": "uint256"
                },
                {
                  "internalType": "uint256",
                  "name": "revenueCut",
                  "type": "uint256"
                },
                {
                  "internalType": "uint256",
                  "name": "upperRange",
                  "type": "uint256"
                },
                {
                  "internalType": "uint256",
                  "name": "lowerRange",
                  "type": "uint256"
                },
                {
                  "internalType": "uint256",
                  "name": "upperShiftThreshold",
                  "type": "uint256"
                },
                {
                  "internalType": "uint256",
                  "name": "lowerShiftThreshold",
                  "type": "uint256"
                },
                {
                  "internalType": "uint256",
                  "name": "shiftingTime",
                  "type": "uint256"
                },
                {
                  "internalType": "address",
                  "name": "centerPriceAddress",
                  "type": "address"
                },
                {
                  "internalType": "address",
                  "name": "hookAddress",
                  "type": "address"
                },
                {
                  "internalType": "uint256",
                  "name": "maxCenterPrice",
                  "type": "uint256"
                },
                {
                  "internalType": "uint256",
                  "name": "minCenterPrice",
                  "type": "uint256"
                },
                {
                  "internalType": "uint256",
                  "name": "utilizationLimitToken0",
                  "type": "uint256"
                },
                {
                  "internalType": "uint256",
                  "name": "utilizationLimitToken1",
                  "type": "uint256"
                },
                {
                  "internalType": "uint256",
                  "name": "maxSupplyShares",
                  "type": "uint256"
                },
                {
                  "internalType": "uint256",
                  "name": "maxBorrowShares",
                  "type": "uint256"
                }
              ],
              "internalType": "struct Structs.Configs",
              "name": "configs",
              "type": "tuple"
            },
            {
              "components": [
                {
                  "internalType": "uint256",
                  "name": "lastStoredPrice",
                  "type": "uint256"
                },
                {
                  "internalType": "uint256",
                  "name": "centerPrice",
                  "type": "uint256"
                },
                {
                  "internalType": "uint256",
                  "name": "upperRange",
                  "type": "uint256"
                },
                {
                  "internalType": "uint256",
                  "name": "lowerRange",
                  "type": "uint256"
                },
                {
                  "internalType": "uint256",
                  "name": "geometricMean",
                  "type": "uint256"
                },
                {
                  "internalType": "uint256",
                  "name": "supplyToken0ExchangePrice",
                  "type": "uint256"
                },
                {
                  "internalType": "uint256",
                  "name": "borrowToken0ExchangePrice",
                  "type": "uint256"
                },
                {
                  "internalType": "uint256",
                  "name": "supplyToken1ExchangePrice",
                  "type": "uint256"
                },
                {
                  "internalType": "uint256",
                  "name": "borrowToken1ExchangePrice",
                  "type": "uint256"
                }
              ],
              "internalType": "struct IFluidDexT1.PricesAndExchangePrice",
              "name": "pex",
              "type": "tuple"
            },
            {
              "components": [
                {
                  "internalType": "uint256",
                  "name": "token0RealReserves",
                  "type": "uint256"
                },
                {
                  "internalType": "uint256",
                  "name": "token1RealReserves",
                  "type": "uint256"
                },
                {
                  "internalType": "uint256",
                  "name": "token0ImaginaryReserves",
                  "type": "uint256"
                },
                {
                  "internalType": "uint256",
                  "name": "token1ImaginaryReserves",
                  "type": "uint256"
                }
              ],
              "internalType": "struct IFluidDexT1.CollateralReserves",
              "name": "colReserves",
              "type": "tuple"
            },
            {
              "components": [
                {
                  "internalType": "uint256",
                  "name": "token0Debt",
                  "type": "uint256"
                },
                {
                  "internalType": "uint256",
                  "name": "token1Debt",
                  "type": "uint256"
                },
                {
                  "internalType": "uint256",
                  "name": "token0RealReserves",
                  "type": "uint256"
                },
                {
                  "internalType": "uint256",
                  "name": "token1RealReserves",
                  "type": "uint256"
                },
                {
                  "internalType": "uint256",
                  "name": "token0ImaginaryReserves",
                  "type": "uint256"
                },
                {
                  "internalType": "uint256",
                  "name": "token1ImaginaryReserves",
                  "type": "uint256"
                }
              ],
              "internalType": "struct IFluidDexT1.DebtReserves",
              "name": "debtReserves",
              "type": "tuple"
            },
            {
              "components": [
                {
                  "internalType": "uint256",
                  "name": "lastToLastStoredPrice",
                  "type": "uint256"
                },
                {
                  "internalType": "uint256",
                  "name": "lastStoredPrice",
                  "type": "uint256"
                },
                {
                  "internalType": "uint256",
                  "name": "centerPrice",
                  "type": "uint256"
                },
                {
                  "internalType": "uint256",
                  "name": "lastUpdateTimestamp",
                  "type": "uint256"
                },
                {
                  "internalType": "uint256",
                  "name": "lastPricesTimeDiff",
                  "type": "uint256"
                },
                {
                  "internalType": "uint256",
                  "name": "oracleCheckPoint",
                  "type": "uint256"
                },
                {
                  "internalType": "uint256",
                  "name": "oracleMapping",
                  "type": "uint256"
                },
                {
                  "internalType": "uint256",
                  "name": "totalSupplyShares",
                  "type": "uint256"
                },
                {
                  "internalType": "uint256",
                  "name": "totalBorrowShares",
                  "type": "uint256"
                },
                {
                  "internalType": "bool",
                  "name": "isSwapAndArbitragePaused",
                  "type": "bool"
                },
                {
                  "components": [
                    {
                      "internalType": "bool",
                      "name": "isRangeChangeActive",
                      "type": "bool"
                    },
                    {
                      "internalType": "bool",
                      "name": "isThresholdChangeActive",
                      "type": "bool"
                    },
                    {
                      "internalType": "bool",
                      "name": "isCenterPriceShiftActive",
                      "type": "bool"
                    },
                    {
                      "components": [
                        {
                          "internalType": "uint256",
                          "name": "oldUpper",
                          "type": "uint256"
                        },
                        {
                          "internalType": "uint256",
                          "name": "oldLower",
                          "type": "uint256"
                        },
                        {
                          "internalType": "uint256",
                          "name": "duration",
                          "type": "uint256"
                        },
                        {
                          "internalType": "uint256",
                          "name": "startTimestamp",
                          "type": "uint256"
                        },
                        {
                          "internalType": "uint256",
                          "name": "oldTime",
                          "type": "uint256"
                        }
                      ],
                      "internalType": "struct Structs.ShiftData",
                      "name": "rangeShift",
                      "type": "tuple"
                    },
                    {
                      "components": [
                        {
                          "internalType": "uint256",
                          "name": "oldUpper",
                          "type": "uint256"
                        },
                        {
                          "internalType": "uint256",
                          "name": "oldLower",
                          "type": "uint256"
                        },
                        {
                          "internalType": "uint256",
                          "name": "duration",
                          "type": "uint256"
                        },
                        {
                          "internalType": "uint256",
                          "name": "startTimestamp",
                          "type": "uint256"
                        },
                        {
                          "internalType": "uint256",
                          "name": "oldTime",
                          "type": "uint256"
                        }
                      ],
                      "internalType": "struct Structs.ShiftData",
                      "name": "thresholdShift",
                      "type": "tuple"
                    },
                    {
                      "components": [
                        {
                          "internalType": "uint256",
                          "name": "shiftPercentage",
                          "type": "uint256"
                        },
                        {
                          "internalType": "uint256",
                          "name": "duration",
                          "type": "uint256"
                        },
                        {
                          "internalType": "uint256",
                          "name": "startTimestamp",
                          "type": "uint256"
                        }
                      ],
                      "internalType": "struct Structs.CenterPriceShift",
                      "name": "centerPriceShift",
                      "type": "tuple"
                    }
                  ],
                  "internalType": "struct Structs.ShiftChanges",
                  "name": "shifts",
                  "type": "tuple"
                },
                {
                  "internalType": "uint256",
                  "name": "token0PerSupplyShare",
                  "type": "uint256"
                },
                {
                  "internalType": "uint256",
                  "name": "token1PerSupplyShare",
                  "type": "uint256"
                },
                {
                  "internalType": "uint256",
                  "name": "token0PerBorrowShare",
                  "type": "uint256"
                },
                {
                  "internalType": "uint256",
                  "name": "token1PerBorrowShare",
                  "type": "uint256"
                }
              ],
              "internalType": "struct Structs.DexState",
              "name": "dexState",
              "type": "tuple"
            },
            {
              "components": [
                {
                  "internalType": "uint256",
                  "name": "liquiditySupplyToken0",
                  "type": "uint256"
                },
                {
                  "internalType": "uint256",
                  "name": "liquiditySupplyToken1",
                  "type": "uint256"
                },
                {
                  "internalType": "uint256",
                  "name": "liquidityBorrowToken0",
                  "type": "uint256"
                },
                {
                  "internalType": "uint256",
                  "name": "liquidityBorrowToken1",
                  "type": "uint256"
                },
                {
                  "internalType": "uint256",
                  "name": "liquidityWithdrawableToken0",
                  "type": "uint256"
                },
                {
                  "internalType": "uint256",
                  "name": "liquidityWithdrawableToken1",
                  "type": "uint256"
                },
                {
                  "internalType": "uint256",
                  "name": "liquidityBorrowableToken0",
                  "type": "uint256"
                },
                {
                  "internalType": "uint256",
                  "name": "liquidityBorrowableToken1",
                  "type": "uint256"
                },
                {
                  "internalType": "uint256",
                  "name": "utilizationLimitToken0",
                  "type": "uint256"
                },
                {
                  "internalType": "uint256",
                  "name": "utilizationLimitToken1",
                  "type": "uint256"
                },
                {
                  "internalType": "uint256",
                  "name": "withdrawableUntilUtilizationLimitToken0",
                  "type": "uint256"
                },
                {
                  "internalType": "uint256",
                  "name": "withdrawableUntilUtilizationLimitToken1",
                  "type": "uint256"
                },
                {
                  "internalType": "uint256",
                  "name": "borrowableUntilUtilizationLimitToken0",
                  "type": "uint256"
                },
                {
                  "internalType": "uint256",
                  "name": "borrowableUntilUtilizationLimitToken1",
                  "type": "uint256"
                },
                {
                  "components": [
                    {
                      "internalType": "bool",
                      "name": "modeWithInterest",
                      "type": "bool"
                    },
                    {
                      "internalType": "uint256",
                      "name": "supply",
                      "type": "uint256"
                    },
                    {
                      "internalType": "uint256",
                      "name": "withdrawalLimit",
                      "type": "uint256"
                    },
                    {
                      "internalType": "uint256",
                      "name": "lastUpdateTimestamp",
                      "type": "uint256"
                    },
                    {
                      "internalType": "uint256",
                      "name": "expandPercent",
                      "type": "uint256"
                    },
                    {
                      "internalType": "uint256",
                      "name": "expandDuration",
                      "type": "uint256"
                    },
                    {
                      "internalType": "uint256",
                      "name": "baseWithdrawalLimit",
                      "type": "uint256"
                    },
                    {
                      "internalType": "uint256",
                      "name": "withdrawableUntilLimit",
                      "type": "uint256"
                    },
                    {
                      "internalType": "uint256",
                      "name": "withdrawable",
                      "type": "uint256"
                    },
                    {
                      "internalType": "uint256",
                      "name": "decayEndTimestamp",
                      "type": "uint256"
                    },
                    {
                      "internalType": "uint256",
                      "name": "decayAmount",
                      "type": "uint256"
                    }
                  ],
                  "internalType": "struct Structs.UserSupplyData",
                  "name": "liquidityUserSupplyDataToken0",
                  "type": "tuple"
                },
                {
                  "components": [
                    {
                      "internalType": "bool",
                      "name": "modeWithInterest",
                      "type": "bool"
                    },
                    {
                      "internalType": "uint256",
                      "name": "supply",
                      "type": "uint256"
                    },
                    {
                      "internalType": "uint256",
                      "name": "withdrawalLimit",
                      "type": "uint256"
                    },
                    {
                      "internalType": "uint256",
                      "name": "lastUpdateTimestamp",
                      "type": "uint256"
                    },
                    {
                      "internalType": "uint256",
                      "name": "expandPercent",
                      "type": "uint256"
                    },
                    {
                      "internalType": "uint256",
                      "name": "expandDuration",
                      "type": "uint256"
                    },
                    {
                      "internalType": "uint256",
                      "name": "baseWithdrawalLimit",
                      "type": "uint256"
                    },
                    {
                      "internalType": "uint256",
                      "name": "withdrawableUntilLimit",
                      "type": "uint256"
                    },
                    {
                      "internalType": "uint256",
                      "name": "withdrawable",
                      "type": "uint256"
                    },
                    {
                      "internalType": "uint256",
                      "name": "decayEndTimestamp",
                      "type": "uint256"
                    },
                    {
                      "internalType": "uint256",
                      "name": "decayAmount",
                      "type": "uint256"
                    }
                  ],
                  "internalType": "struct Structs.UserSupplyData",
                  "name": "liquidityUserSupplyDataToken1",
                  "type": "tuple"
                },
                {
                  "components": [
                    {
                      "internalType": "bool",
                      "name": "modeWithInterest",
                      "type": "bool"
                    },
                    {
                      "internalType": "uint256",
                      "name": "borrow",
                      "type": "uint256"
                    },
                    {
                      "internalType": "uint256",
                      "name": "borrowLimit",
                      "type": "uint256"
                    },
                    {
                      "internalType": "uint256",
                      "name": "lastUpdateTimestamp",
                      "type": "uint256"
                    },
                    {
                      "internalType": "uint256",
                      "name": "expandPercent",
                      "type": "uint256"
                    },
                    {
                      "internalType": "uint256",
                      "name": "expandDuration",
                      "type": "uint256"
                    },
                    {
                      "internalType": "uint256",
                      "name": "baseBorrowLimit",
                      "type": "uint256"
                    },
                    {
                      "internalType": "uint256",
                      "name": "maxBorrowLimit",
                      "type": "uint256"
                    },
                    {
                      "internalType": "uint256",
                      "name": "borrowableUntilLimit",
                      "type": "uint256"
                    },
                    {
                      "internalType": "uint256",
                      "name": "borrowable",
                      "type": "uint256"
                    },
                    {
                      "internalType": "uint256",
                      "name": "borrowLimitUtilization",
                      "type": "uint256"
                    }
                  ],
                  "internalType": "struct Structs.UserBorrowData",
                  "name": "liquidityUserBorrowDataToken0",
                  "type": "tuple"
                },
                {
                  "components": [
                    {
                      "internalType": "bool",
                      "name": "modeWithInterest",
                      "type": "bool"
                    },
                    {
                      "internalType": "uint256",
                      "name": "borrow",
                      "type": "uint256"
                    },
                    {
                      "internalType": "uint256",
                      "name": "borrowLimit",
                      "type": "uint256"
                    },
                    {
                      "internalType": "uint256",
                      "name": "lastUpdateTimestamp",
                      "type": "uint256"
                    },
                    {
                      "internalType": "uint256",
                      "name": "expandPercent",
                      "type": "uint256"
                    },
                    {
                      "internalType": "uint256",
                      "name": "expandDuration",
                      "type": "uint256"
                    },
                    {
                      "internalType": "uint256",
                      "name": "baseBorrowLimit",
                      "type": "uint256"
                    },
                    {
                      "internalType": "uint256",
                      "name": "maxBorrowLimit",
                      "type": "uint256"
                    },
                    {
                      "internalType": "uint256",
                      "name": "borrowableUntilLimit",
                      "type": "uint256"
                    },
                    {
                      "internalType": "uint256",
                      "name": "borrowable",
                      "type": "uint256"
                    },
                    {
                      "internalType": "uint256",
                      "name": "borrowLimitUtilization",
                      "type": "uint256"
                    }
                  ],
                  "internalType": "struct Structs.UserBorrowData",
                  "name": "liquidityUserBorrowDataToken1",
                  "type": "tuple"
                },
                {
                  "components": [
                    {
                      "internalType": "uint256",
                      "name": "borrowRate",
                      "type": "uint256"
                    },
                    {
                      "internalType": "uint256",
                      "name": "supplyRate",
                      "type": "uint256"
                    },
                    {
                      "internalType": "uint256",
                      "name": "fee",
                      "type": "uint256"
                    },
                    {
                      "internalType": "uint256",
                      "name": "lastStoredUtilization",
                      "type": "uint256"
                    },
                    {
                      "internalType": "uint256",
                      "name": "storageUpdateThreshold",
                      "type": "uint256"
                    },
                    {
                      "internalType": "uint256",
                      "name": "lastUpdateTimestamp",
                      "type": "uint256"
                    },
                    {
                      "internalType": "uint256",
                      "name": "supplyExchangePrice",
                      "type": "uint256"
                    },
                    {
                      "internalType": "uint256",
                      "name": "borrowExchangePrice",
                      "type": "uint256"
                    },
                    {
                      "internalType": "uint256",
                      "name": "supplyRawInterest",
                      "type": "uint256"
                    },
                    {
                      "internalType": "uint256",
                      "name": "supplyInterestFree",
                      "type": "uint256"
                    },
                    {
                      "internalType": "uint256",
                      "name": "borrowRawInterest",
                      "type": "uint256"
                    },
                    {
                      "internalType": "uint256",
                      "name": "borrowInterestFree",
                      "type": "uint256"
                    },
                    {
                      "internalType": "uint256",
                      "name": "totalSupply",
                      "type": "uint256"
                    },
                    {
                      "internalType": "uint256",
                      "name": "totalBorrow",
                      "type": "uint256"
                    },
                    {
                      "internalType": "uint256",
                      "name": "revenue",
                      "type": "uint256"
                    },
                    {
                      "internalType": "uint256",
                      "name": "maxUtilization",
                      "type": "uint256"
                    },
                    {
                      "components": [
                        {
                          "internalType": "uint256",
                          "name": "version",
                          "type": "uint256"
                        },
                        {
                          "components": [
                            {
                              "internalType": "address",
                              "name": "token",
                              "type": "address"
                            },
                            {
                              "internalType": "uint256",
                              "name": "kink",
                              "type": "uint256"
                            },
                            {
                              "internalType": "uint256",
                              "name": "rateAtUtilizationZero",
                              "type": "uint256"
                            },
                            {
                              "internalType": "uint256",
                              "name": "rateAtUtilizationKink",
                              "type": "uint256"
                            },
                            {
                              "internalType": "uint256",
                              "name": "rateAtUtilizationMax",
                              "type": "uint256"
                            }
                          ],
                          "internalType": "struct Structs.RateDataV1Params",
                          "name": "rateDataV1",
                          "type": "tuple"
                        },
                        {
                          "components": [
                            {
                              "internalType": "address",
                              "name": "token",
                              "type": "address"
                            },
                            {
                              "internalType": "uint256",
                              "name": "kink1",
                              "type": "uint256"
                            },
                            {
                              "internalType": "uint256",
                              "name": "kink2",
                              "type": "uint256"
                            },
                            {
                              "internalType": "uint256",
                              "name": "rateAtUtilizationZero",
                              "type": "uint256"
                            },
                            {
                              "internalType": "uint256",
                              "name": "rateAtUtilizationKink1",
                              "type": "uint256"
                            },
                            {
                              "internalType": "uint256",
                              "name": "rateAtUtilizationKink2",
                              "type": "uint256"
                            },
                            {
                              "internalType": "uint256",
                              "name": "rateAtUtilizationMax",
                              "type": "uint256"
                            }
                          ],
                          "internalType": "struct Structs.RateDataV2Params",
                          "name": "rateDataV2",
                          "type": "tuple"
                        }
                      ],
                      "internalType": "struct Structs.RateData",
                      "name": "rateData",
                      "type": "tuple"
                    }
                  ],
                  "internalType": "struct Structs.OverallTokenData",
                  "name": "liquidityTokenData0",
                  "type": "tuple"
                },
                {
                  "components": [
                    {
                      "internalType": "uint256",
                      "name": "borrowRate",
                      "type": "uint256"
                    },
                    {
                      "internalType": "uint256",
                      "name": "supplyRate",
                      "type": "uint256"
                    },
                    {
                      "internalType": "uint256",
                      "name": "fee",
                      "type": "uint256"
                    },
                    {
                      "internalType": "uint256",
                      "name": "lastStoredUtilization",
                      "type": "uint256"
                    },
                    {
                      "internalType": "uint256",
                      "name": "storageUpdateThreshold",
                      "type": "uint256"
                    },
                    {
                      "internalType": "uint256",
                      "name": "lastUpdateTimestamp",
                      "type": "uint256"
                    },
                    {
                      "internalType": "uint256",
                      "name": "supplyExchangePrice",
                      "type": "uint256"
                    },
                    {
                      "internalType": "uint256",
                      "name": "borrowExchangePrice",
                      "type": "uint256"
                    },
                    {
                      "internalType": "uint256",
                      "name": "supplyRawInterest",
                      "type": "uint256"
                    },
                    {
                      "internalType": "uint256",
                      "name": "supplyInterestFree",
                      "type": "uint256"
                    },
                    {
                      "internalType": "uint256",
                      "name": "borrowRawInterest",
                      "type": "uint256"
                    },
                    {
                      "internalType": "uint256",
                      "name": "borrowInterestFree",
                      "type": "uint256"
                    },
                    {
                      "internalType": "uint256",
                      "name": "totalSupply",
                      "type": "uint256"
                    },
                    {
                      "internalType": "uint256",
                      "name": "totalBorrow",
                      "type": "uint256"
                    },
                    {
                      "internalType": "uint256",
                      "name": "revenue",
                      "type": "uint256"
                    },
                    {
                      "internalType": "uint256",
                      "name": "maxUtilization",
                      "type": "uint256"
                    },
                    {
                      "components": [
                        {
                          "internalType": "uint256",
                          "name": "version",
                          "type": "uint256"
                        },
                        {
                          "components": [
                            {
                              "internalType": "address",
                              "name": "token",
                              "type": "address"
                            },
                            {
                              "internalType": "uint256",
                              "name": "kink",
                              "type": "uint256"
                            },
                            {
                              "internalType": "uint256",
                              "name": "rateAtUtilizationZero",
                              "type": "uint256"
                            },
                            {
                              "internalType": "uint256",
                              "name": "rateAtUtilizationKink",
                              "type": "uint256"
                            },
                            {
                              "internalType": "uint256",
                              "name": "rateAtUtilizationMax",
                              "type": "uint256"
                            }
                          ],
                          "internalType": "struct Structs.RateDataV1Params",
                          "name": "rateDataV1",
                          "type": "tuple"
                        },
                        {
                          "components": [
                            {
                              "internalType": "address",
                              "name": "token",
                              "type": "address"
                            },
                            {
                              "internalType": "uint256",
                              "name": "kink1",
                              "type": "uint256"
                            },
                            {
                              "internalType": "uint256",
                              "name": "kink2",
                              "type": "uint256"
                            },
                            {
                              "internalType": "uint256",
                              "name": "rateAtUtilizationZero",
                              "type": "uint256"
                            },
                            {
                              "internalType": "uint256",
                              "name": "rateAtUtilizationKink1",
                              "type": "uint256"
                            },
                            {
                              "internalType": "uint256",
                              "name": "rateAtUtilizationKink2",
                              "type": "uint256"
                            },
                            {
                              "internalType": "uint256",
                              "name": "rateAtUtilizationMax",
                              "type": "uint256"
                            }
                          ],
                          "internalType": "struct Structs.RateDataV2Params",
                          "name": "rateDataV2",
                          "type": "tuple"
                        }
                      ],
                      "internalType": "struct Structs.RateData",
                      "name": "rateData",
                      "type": "tuple"
                    }
                  ],
                  "internalType": "struct Structs.OverallTokenData",
                  "name": "liquidityTokenData1",
                  "type": "tuple"
                }
              ],
              "internalType": "struct Structs.SwapLimitsAndAvailability",
              "name": "limitsAndAvailability",
              "type": "tuple"
            }
          ],
          "internalType": "struct Structs.DexEntireData",
          "name": "data_",
          "type": "tuple"
        }
      ],
      "stateMutability": "nonpayable",
      "type": "function"
    },
    {
      "inputs": [
        {
          "internalType": "address[]",
          "name": "dexes_",
          "type": "address[]"
        }
      ],
      "name": "getDexEntireDatas",
      "outputs": [
        {
          "components": [
            {
              "internalType": "address",
              "name": "dex",
              "type": "address"
            },
            {
              "components": [
                {
                  "internalType": "uint256",
                  "name": "dexId",
                  "type": "uint256"
                },
                {
                  "internalType": "address",
                  "name": "liquidity",
                  "type": "address"
                },
                {
                  "internalType": "address",
                  "name": "factory",
                  "type": "address"
                },
                {
                  "components": [
                    {
                      "internalType": "address",
                      "name": "shift",
                      "type": "address"
                    },
                    {
                      "internalType": "address",
                      "name": "admin",
                      "type": "address"
                    },
                    {
                      "internalType": "address",
                      "name": "colOperations",
                      "type": "address"
                    },
                    {
                      "internalType": "address",
                      "name": "debtOperations",
                      "type": "address"
                    },
                    {
                      "internalType": "address",
                      "name": "perfectOperationsAndOracle",
                      "type": "address"
                    }
                  ],
                  "internalType": "struct IFluidDexT1.Implementations",
                  "name": "implementations",
                  "type": "tuple"
                },
                {
                  "internalType": "address",
                  "name": "deployerContract",
                  "type": "address"
                },
                {
                  "internalType": "address",
                  "name": "token0",
                  "type": "address"
                },
                {
                  "internalType": "address",
                  "name": "token1",
                  "type": "address"
                },
                {
                  "internalType": "bytes32",
                  "name": "supplyToken0Slot",
                  "type": "bytes32"
                },
                {
                  "internalType": "bytes32",
                  "name": "borrowToken0Slot",
                  "type": "bytes32"
                },
                {
                  "internalType": "bytes32",
                  "name": "supplyToken1Slot",
                  "type": "bytes32"
                },
                {
                  "internalType": "bytes32",
                  "name": "borrowToken1Slot",
                  "type": "bytes32"
                },
                {
                  "internalType": "bytes32",
                  "name": "exchangePriceToken0Slot",
                  "type": "bytes32"
                },
                {
                  "internalType": "bytes32",
                  "name": "exchangePriceToken1Slot",
                  "type": "bytes32"
                },
                {
                  "internalType": "uint256",
                  "name": "oracleMapping",
                  "type": "uint256"
                }
              ],
              "internalType": "struct IFluidDexT1.ConstantViews",
              "name": "constantViews",
              "type": "tuple"
            },
            {
              "components": [
                {
                  "internalType": "uint256",
                  "name": "token0NumeratorPrecision",
                  "type": "uint256"
                },
                {
                  "internalType": "uint256",
                  "name": "token0DenominatorPrecision",
                  "type": "uint256"
                },
                {
                  "internalType": "uint256",
                  "name": "token1NumeratorPrecision",
                  "type": "uint256"
                },
                {
                  "internalType": "uint256",
                  "name": "token1DenominatorPrecision",
                  "type": "uint256"
                }
              ],
              "internalType": "struct IFluidDexT1.ConstantViews2",
              "name": "constantViews2",
              "type": "tuple"
            },
            {
              "components": [
                {
                  "internalType": "bool",
                  "name": "isSmartCollateralEnabled",
                  "type": "bool"
                },
                {
                  "internalType": "bool",
                  "name": "isSmartDebtEnabled",
                  "type": "bool"
                },
                {
                  "internalType": "uint256",
                  "name": "fee",
                  "type": "uint256"
                },
                {
                  "internalType": "uint256",
                  "name": "revenueCut",
                  "type": "uint256"
                },
                {
                  "internalType": "uint256",
                  "name": "upperRange",
                  "type": "uint256"
                },
                {
                  "internalType": "uint256",
                  "name": "lowerRange",
                  "type": "uint256"
                },
                {
                  "internalType": "uint256",
                  "name": "upperShiftThreshold",
                  "type": "uint256"
                },
                {
                  "internalType": "uint256",
                  "name": "lowerShiftThreshold",
                  "type": "uint256"
                },
                {
                  "internalType": "uint256",
                  "name": "shiftingTime",
                  "type": "uint256"
                },
                {
                  "internalType": "address",
                  "name": "centerPriceAddress",
                  "type": "address"
                },
                {
                  "internalType": "address",
                  "name": "hookAddress",
                  "type": "address"
                },
                {
                  "internalType": "uint256",
                  "name": "maxCenterPrice",
                  "type": "uint256"
                },
                {
                  "internalType": "uint256",
                  "name": "minCenterPrice",
                  "type": "uint256"
                },
                {
                  "internalType": "uint256",
                  "name": "utilizationLimitToken0",
                  "type": "uint256"
                },
                {
                  "internalType": "uint256",
                  "name": "utilizationLimitToken1",
                  "type": "uint256"
                },
                {
                  "internalType": "uint256",
                  "name": "maxSupplyShares",
                  "type": "uint256"
                },
                {
                  "internalType": "uint256",
                  "name": "maxBorrowShares",
                  "type": "uint256"
                }
              ],
              "internalType": "struct Structs.Configs",
              "name": "configs",
              "type": "tuple"
            },
            {
              "components": [
                {
                  "internalType": "uint256",
                  "name": "lastStoredPrice",
                  "type": "uint256"
                },
                {
                  "internalType": "uint256",
                  "name": "centerPrice",
                  "type": "uint256"
                },
                {
                  "internalType": "uint256",
                  "name": "upperRange",
                  "type": "uint256"
                },
                {
                  "internalType": "uint256",
                  "name": "lowerRange",
                  "type": "uint256"
                },
                {
                  "internalType": "uint256",
                  "name": "geometricMean",
                  "type": "uint256"
                },
                {
                  "internalType": "uint256",
                  "name": "supplyToken0ExchangePrice",
                  "type": "uint256"
                },
                {
                  "internalType": "uint256",
                  "name": "borrowToken0ExchangePrice",
                  "type": "uint256"
                },
                {
                  "internalType": "uint256",
                  "name": "supplyToken1ExchangePrice",
                  "type": "uint256"
                },
                {
                  "internalType": "uint256",
                  "name": "borrowToken1ExchangePrice",
                  "type": "uint256"
                }
              ],
              "internalType": "struct IFluidDexT1.PricesAndExchangePrice",
              "name": "pex",
              "type": "tuple"
            },
            {
              "components": [
                {
                  "internalType": "uint256",
                  "name": "token0RealReserves",
                  "type": "uint256"
                },
                {
                  "internalType": "uint256",
                  "name": "token1RealReserves",
                  "type": "uint256"
                },
                {
                  "internalType": "uint256",
                  "name": "token0ImaginaryReserves",
                  "type": "uint256"
                },
                {
                  "internalType": "uint256",
                  "name": "token1ImaginaryReserves",
                  "type": "uint256"
                }
              ],
              "internalType": "struct IFluidDexT1.CollateralReserves",
              "name": "colReserves",
              "type": "tuple"
            },
            {
              "components": [
                {
                  "internalType": "uint256",
                  "name": "token0Debt",
                  "type": "uint256"
                },
                {
                  "internalType": "uint256",
                  "name": "token1Debt",
                  "type": "uint256"
                },
                {
                  "internalType": "uint256",
                  "name": "token0RealReserves",
                  "type": "uint256"
                },
                {
                  "internalType": "uint256",
                  "name": "token1RealReserves",
                  "type": "uint256"
                },
                {
                  "internalType": "uint256",
                  "name": "token0ImaginaryReserves",
                  "type": "uint256"
                },
                {
                  "internalType": "uint256",
                  "name": "token1ImaginaryReserves",
                  "type": "uint256"
                }
              ],
              "internalType": "struct IFluidDexT1.DebtReserves",
              "name": "debtReserves",
              "type": "tuple"
            },
            {
              "components": [
                {
                  "internalType": "uint256",
                  "name": "lastToLastStoredPrice",
                  "type": "uint256"
                },
                {
                  "internalType": "uint256",
                  "name": "lastStoredPrice",
                  "type": "uint256"
                },
                {
                  "internalType": "uint256",
                  "name": "centerPrice",
                  "type": "uint256"
                },
                {
                  "internalType": "uint256",
                  "name": "lastUpdateTimestamp",
                  "type": "uint256"
                },
                {
                  "internalType": "uint256",
                  "name": "lastPricesTimeDiff",
                  "type": "uint256"
                },
                {
                  "internalType": "uint256",
                  "name": "oracleCheckPoint",
                  "type": "uint256"
                },
                {
                  "internalType": "uint256",
                  "name": "oracleMapping",
                  "type": "uint256"
                },
                {
                  "internalType": "uint256",
                  "name": "totalSupplyShares",
                  "type": "uint256"
                },
                {
                  "internalType": "uint256",
                  "name": "totalBorrowShares",
                  "type": "uint256"
                },
                {
                  "internalType": "bool",
                  "name": "isSwapAndArbitragePaused",
                  "type": "bool"
                },
                {
                  "components": [
                    {
                      "internalType": "bool",
                      "name": "isRangeChangeActive",
                      "type": "bool"
                    },
                    {
                      "internalType": "bool",
                      "name": "isThresholdChangeActive",
                      "type": "bool"
                    },
                    {
                      "internalType": "bool",
                      "name": "isCenterPriceShiftActive",
                      "type": "bool"
                    },
                    {
                      "components": [
                        {
                          "internalType": "uint256",
                          "name": "oldUpper",
                          "type": "uint256"
                        },
                        {
                          "internalType": "uint256",
                          "name": "oldLower",
                          "type": "uint256"
                        },
                        {
                          "internalType": "uint256",
                          "name": "duration",
                          "type": "uint256"
                        },
                        {
                          "internalType": "uint256",
                          "name": "startTimestamp",
                          "type": "uint256"
                        },
                        {
                          "internalType": "uint256",
                          "name": "oldTime",
                          "type": "uint256"
                        }
                      ],
                      "internalType": "struct Structs.ShiftData",
                      "name": "rangeShift",
                      "type": "tuple"
                    },
                    {
                      "components": [
                        {
                          "internalType": "uint256",
                          "name": "oldUpper",
                          "type": "uint256"
                        },
                        {
                          "internalType": "uint256",
                          "name": "oldLower",
                          "type": "uint256"
                        },
                        {
                          "internalType": "uint256",
                          "name": "duration",
                          "type": "uint256"
                        },
                        {
                          "internalType": "uint256",
                          "name": "startTimestamp",
                          "type": "uint256"
                        },
                        {
                          "internalType": "uint256",
                          "name": "oldTime",
                          "type": "uint256"
                        }
                      ],
                      "internalType": "struct Structs.ShiftData",
                      "name": "thresholdShift",
                      "type": "tuple"
                    },
                    {
                      "components": [
                        {
                          "internalType": "uint256",
                          "name": "shiftPercentage",
                          "type": "uint256"
                        },
                        {
                          "internalType": "uint256",
                          "name": "duration",
                          "type": "uint256"
                        },
                        {
                          "internalType": "uint256",
                          "name": "startTimestamp",
                          "type": "uint256"
                        }
                      ],
                      "internalType": "struct Structs.CenterPriceShift",
                      "name": "centerPriceShift",
                      "type": "tuple"
                    }
                  ],
                  "internalType": "struct Structs.ShiftChanges",
                  "name": "shifts",
                  "type": "tuple"
                },
                {
                  "internalType": "uint256",
                  "name": "token0PerSupplyShare",
                  "type": "uint256"
                },
                {
                  "internalType": "uint256",
                  "name": "token1PerSupplyShare",
                  "type": "uint256"
                },
                {
                  "internalType": "uint256",
                  "name": "token0PerBorrowShare",
                  "type": "uint256"
                },
                {
                  "internalType": "uint256",
                  "name": "token1PerBorrowShare",
                  "type": "uint256"
                }
              ],
              "internalType": "struct Structs.DexState",
              "name": "dexState",
              "type": "tuple"
            },
            {
              "components": [
                {
                  "internalType": "uint256",
                  "name": "liquiditySupplyToken0",
                  "type": "uint256"
                },
                {
                  "internalType": "uint256",
                  "name": "liquiditySupplyToken1",
                  "type": "uint256"
                },
                {
                  "internalType": "uint256",
                  "name": "liquidityBorrowToken0",
                  "type": "uint256"
                },
                {
                  "internalType": "uint256",
                  "name": "liquidityBorrowToken1",
                  "type": "uint256"
                },
                {
                  "internalType": "uint256",
                  "name": "liquidityWithdrawableToken0",
                  "type": "uint256"
                },
                {
                  "internalType": "uint256",
                  "name": "liquidityWithdrawableToken1",
                  "type": "uint256"
                },
                {
                  "internalType": "uint256",
                  "name": "liquidityBorrowableToken0",
                  "type": "uint256"
                },
                {
                  "internalType": "uint256",
                  "name": "liquidityBorrowableToken1",
                  "type": "uint256"
                },
                {
                  "internalType": "uint256",
                  "name": "utilizationLimitToken0",
                  "type": "uint256"
                },
                {
                  "internalType": "uint256",
                  "name": "utilizationLimitToken1",
                  "type": "uint256"
                },
                {
                  "internalType": "uint256",
                  "name": "withdrawableUntilUtilizationLimitToken0",
                  "type": "uint256"
                },
                {
                  "internalType": "uint256",
                  "name": "withdrawableUntilUtilizationLimitToken1",
                  "type": "uint256"
                },
                {
                  "internalType": "uint256",
                  "name": "borrowableUntilUtilizationLimitToken0",
                  "type": "uint256"
                },
                {
                  "internalType": "uint256",
                  "name": "borrowableUntilUtilizationLimitToken1",
                  "type": "uint256"
                },
                {
                  "components": [
                    {
                      "internalType": "bool",
                      "name": "modeWithInterest",
                      "type": "bool"
                    },
                    {
                      "internalType": "uint256",
                      "name": "supply",
                      "type": "uint256"
                    },
                    {
                      "internalType": "uint256",
                      "name": "withdrawalLimit",
                      "type": "uint256"
                    },
                    {
                      "internalType": "uint256",
                      "name": "lastUpdateTimestamp",
                      "type": "uint256"
                    },
                    {
                      "internalType": "uint256",
                      "name": "expandPercent",
                      "type": "uint256"
                    },
                    {
                      "internalType": "uint256",
                      "name": "expandDuration",
                      "type": "uint256"
                    },
                    {
                      "internalType": "uint256",
                      "name": "baseWithdrawalLimit",
                      "type": "uint256"
                    },
                    {
                      "internalType": "uint256",
                      "name": "withdrawableUntilLimit",
                      "type": "uint256"
                    },
                    {
                      "internalType": "uint256",
                      "name": "withdrawable",
                      "type": "uint256"
                    },
                    {
                      "internalType": "uint256",
                      "name": "decayEndTimestamp",
                      "type": "uint256"
                    },
                    {
                      "internalType": "uint256",
                      "name": "decayAmount",
                      "type": "uint256"
                    }
                  ],
                  "internalType": "struct Structs.UserSupplyData",
                  "name": "liquidityUserSupplyDataToken0",
                  "type": "tuple"
                },
                {
                  "components": [
                    {
                      "internalType": "bool",
                      "name": "modeWithInterest",
                      "type": "bool"
                    },
                    {
                      "internalType": "uint256",
                      "name": "supply",
                      "type": "uint256"
                    },
                    {
                      "internalType": "uint256",
                      "name": "withdrawalLimit",
                      "type": "uint256"
                    },
                    {
                      "internalType": "uint256",
                      "name": "lastUpdateTimestamp",
                      "type": "uint256"
                    },
                    {
                      "internalType": "uint256",
                      "name": "expandPercent",
                      "type": "uint256"
                    },
                    {
                      "internalType": "uint256",
                      "name": "expandDuration",
                      "type": "uint256"
                    },
                    {
                      "internalType": "uint256",
                      "name": "baseWithdrawalLimit",
                      "type": "uint256"
                    },
                    {
                      "internalType": "uint256",
                      "name": "withdrawableUntilLimit",
                      "type": "uint256"
                    },
                    {
                      "internalType": "uint256",
                      "name": "withdrawable",
                      "type": "uint256"
                    },
                    {
                      "internalType": "uint256",
                      "name": "decayEndTimestamp",
                      "type": "uint256"
                    },
                    {
                      "internalType": "uint256",
                      "name": "decayAmount",
                      "type": "uint256"
                    }
                  ],
                  "internalType": "struct Structs.UserSupplyData",
                  "name": "liquidityUserSupplyDataToken1",
                  "type": "tuple"
                },
                {
                  "components": [
                    {
                      "internalType": "bool",
                      "name": "modeWithInterest",
                      "type": "bool"
                    },
                    {
                      "internalType": "uint256",
                      "name": "borrow",
                      "type": "uint256"
                    },
                    {
                      "internalType": "uint256",
                      "name": "borrowLimit",
                      "type": "uint256"
                    },
                    {
                      "internalType": "uint256",
                      "name": "lastUpdateTimestamp",
                      "type": "uint256"
                    },
                    {
                      "internalType": "uint256",
                      "name": "expandPercent",
                      "type": "uint256"
                    },
                    {
                      "internalType": "uint256",
                      "name": "expandDuration",
                      "type": "uint256"
                    },
                    {
                      "internalType": "uint256",
                      "name": "baseBorrowLimit",
                      "type": "uint256"
                    },
                    {
                      "internalType": "uint256",
                      "name": "maxBorrowLimit",
                      "type": "uint256"
                    },
                    {
                      "internalType": "uint256",
                      "name": "borrowableUntilLimit",
                      "type": "uint256"
                    },
                    {
                      "internalType": "uint256",
                      "name": "borrowable",
                      "type": "uint256"
                    },
                    {
                      "internalType": "uint256",
                      "name": "borrowLimitUtilization",
                      "type": "uint256"
                    }
                  ],
                  "internalType": "struct Structs.UserBorrowData",
                  "name": "liquidityUserBorrowDataToken0",
                  "type": "tuple"
                },
                {
                  "components": [
                    {
                      "internalType": "bool",
                      "name": "modeWithInterest",
                      "type": "bool"
                    },
                    {
                      "internalType": "uint256",
                      "name": "borrow",
                      "type": "uint256"
                    },
                    {
                      "internalType": "uint256",
                      "name": "borrowLimit",
                      "type": "uint256"
                    },
                    {
                      "internalType": "uint256",
                      "name": "lastUpdateTimestamp",
                      "type": "uint256"
                    },
                    {
                      "internalType": "uint256",
                      "name": "expandPercent",
                      "type": "uint256"
                    },
                    {
                      "internalType": "uint256",
                      "name": "expandDuration",
                      "type": "uint256"
                    },
                    {
                      "internalType": "uint256",
                      "name": "baseBorrowLimit",
                      "type": "uint256"
                    },
                    {
                      "internalType": "uint256",
                      "name": "maxBorrowLimit",
                      "type": "uint256"
                    },
                    {
                      "internalType": "uint256",
                      "name": "borrowableUntilLimit",
                      "type": "uint256"
                    },
                    {
                      "internalType": "uint256",
                      "name": "borrowable",
                      "type": "uint256"
                    },
                    {
                      "internalType": "uint256",
                      "name": "borrowLimitUtilization",
                      "type": "uint256"
                    }
                  ],
                  "internalType": "struct Structs.UserBorrowData",
                  "name": "liquidityUserBorrowDataToken1",
                  "type": "tuple"
                },
                {
                  "components": [
                    {
                      "internalType": "uint256",
                      "name": "borrowRate",
                      "type": "uint256"
                    },
                    {
                      "internalType": "uint256",
                      "name": "supplyRate",
                      "type": "uint256"
                    },
                    {
                      "internalType": "uint256",
                      "name": "fee",
                      "type": "uint256"
                    },
                    {
                      "internalType": "uint256",
                      "name": "lastStoredUtilization",
                      "type": "uint256"
                    },
                    {
                      "internalType": "uint256",
                      "name": "storageUpdateThreshold",
                      "type": "uint256"
                    },
                    {
                      "internalType": "uint256",
                      "name": "lastUpdateTimestamp",
                      "type": "uint256"
                    },
                    {
                      "internalType": "uint256",
                      "name": "supplyExchangePrice",
                      "type": "uint256"
                    },
                    {
                      "internalType": "uint256",
                      "name": "borrowExchangePrice",
                      "type": "uint256"
                    },
                    {
                      "internalType": "uint256",
                      "name": "supplyRawInterest",
                      "type": "uint256"
                    },
                    {
                      "internalType": "uint256",
                      "name": "supplyInterestFree",
                      "type": "uint256"
                    },
                    {
                      "internalType": "uint256",
                      "name": "borrowRawInterest",
                      "type": "uint256"
                    },
                    {
                      "internalType": "uint256",
                      "name": "borrowInterestFree",
                      "type": "uint256"
                    },
                    {
                      "internalType": "uint256",
                      "name": "totalSupply",
                      "type": "uint256"
                    },
                    {
                      "internalType": "uint256",
                      "name": "totalBorrow",
                      "type": "uint256"
                    },
                    {
                      "internalType": "uint256",
                      "name": "revenue",
                      "type": "uint256"
                    },
                    {
                      "internalType": "uint256",
                      "name": "maxUtilization",
                      "type": "uint256"
                    },
                    {
                      "components": [
                        {
                          "internalType": "uint256",
                          "name": "version",
                          "type": "uint256"
                        },
                        {
                          "components": [
                            {
                              "internalType": "address",
                              "name": "token",
                              "type": "address"
                            },
                            {
                              "internalType": "uint256",
                              "name": "kink",
                              "type": "uint256"
                            },
                            {
                              "internalType": "uint256",
                              "name": "rateAtUtilizationZero",
                              "type": "uint256"
                            },
                            {
                              "internalType": "uint256",
                              "name": "rateAtUtilizationKink",
                              "type": "uint256"
                            },
                            {
                              "internalType": "uint256",
                              "name": "rateAtUtilizationMax",
                              "type": "uint256"
                            }
                          ],
                          "internalType": "struct Structs.RateDataV1Params",
                          "name": "rateDataV1",
                          "type": "tuple"
                        },
                        {
                          "components": [
                            {
                              "internalType": "address",
                              "name": "token",
                              "type": "address"
                            },
                            {
                              "internalType": "uint256",
                              "name": "kink1",
                              "type": "uint256"
                            },
                            {
                              "internalType": "uint256",
                              "name": "kink2",
                              "type": "uint256"
                            },
                            {
                              "internalType": "uint256",
                              "name": "rateAtUtilizationZero",
                              "type": "uint256"
                            },
                            {
                              "internalType": "uint256",
                              "name": "rateAtUtilizationKink1",
                              "type": "uint256"
                            },
                            {
                              "internalType": "uint256",
                              "name": "rateAtUtilizationKink2",
                              "type": "uint256"
                            },
                            {
                              "internalType": "uint256",
                              "name": "rateAtUtilizationMax",
                              "type": "uint256"
                            }
                          ],
                          "internalType": "struct Structs.RateDataV2Params",
                          "name": "rateDataV2",
                          "type": "tuple"
                        }
                      ],
                      "internalType": "struct Structs.RateData",
                      "name": "rateData",
                      "type": "tuple"
                    }
                  ],
                  "internalType": "struct Structs.OverallTokenData",
                  "name": "liquidityTokenData0",
                  "type": "tuple"
                },
                {
                  "components": [
                    {
                      "internalType": "uint256",
                      "name": "borrowRate",
                      "type": "uint256"
                    },
                    {
                      "internalType": "uint256",
                      "name": "supplyRate",
                      "type": "uint256"
                    },
                    {
                      "internalType": "uint256",
                      "name": "fee",
                      "type": "uint256"
                    },
                    {
                      "internalType": "uint256",
                      "name": "lastStoredUtilization",
                      "type": "uint256"
                    },
                    {
                      "internalType": "uint256",
                      "name": "storageUpdateThreshold",
                      "type": "uint256"
                    },
                    {
                      "internalType": "uint256",
                      "name": "lastUpdateTimestamp",
                      "type": "uint256"
                    },
                    {
                      "internalType": "uint256",
                      "name": "supplyExchangePrice",
                      "type": "uint256"
                    },
                    {
                      "internalType": "uint256",
                      "name": "borrowExchangePrice",
                      "type": "uint256"
                    },
                    {
                      "internalType": "uint256",
                      "name": "supplyRawInterest",
                      "type": "uint256"
                    },
                    {
                      "internalType": "uint256",
                      "name": "supplyInterestFree",
                      "type": "uint256"
                    },
                    {
                      "internalType": "uint256",
                      "name": "borrowRawInterest",
                      "type": "uint256"
                    },
                    {
                      "internalType": "uint256",
                      "name": "borrowInterestFree",
                      "type": "uint256"
                    },
                    {
                      "internalType": "uint256",
                      "name": "totalSupply",
                      "type": "uint256"
                    },
                    {
                      "internalType": "uint256",
                      "name": "totalBorrow",
                      "type": "uint256"
                    },
                    {
                      "internalType": "uint256",
                      "name": "revenue",
                      "type": "uint256"
                    },
                    {
                      "internalType": "uint256",
                      "name": "maxUtilization",
                      "type": "uint256"
                    },
                    {
                      "components": [
                        {
                          "internalType": "uint256",
                          "name": "version",
                          "type": "uint256"
                        },
                        {
                          "components": [
                            {
                              "internalType": "address",
                              "name": "token",
                              "type": "address"
                            },
                            {
                              "internalType": "uint256",
                              "name": "kink",
                              "type": "uint256"
                            },
                            {
                              "internalType": "uint256",
                              "name": "rateAtUtilizationZero",
                              "type": "uint256"
                            },
                            {
                              "internalType": "uint256",
                              "name": "rateAtUtilizationKink",
                              "type": "uint256"
                            },
                            {
                              "internalType": "uint256",
                              "name": "rateAtUtilizationMax",
                              "type": "uint256"
                            }
                          ],
                          "internalType": "struct Structs.RateDataV1Params",
                          "name": "rateDataV1",
                          "type": "tuple"
                        },
                        {
                          "components": [
                            {
                              "internalType": "address",
                              "name": "token",
                              "type": "address"
                            },
                            {
                              "internalType": "uint256",
                              "name": "kink1",
                              "type": "uint256"
                            },
                            {
                              "internalType": "uint256",
                              "name": "kink2",
                              "type": "uint256"
                            },
                            {
                              "internalType": "uint256",
                              "name": "rateAtUtilizationZero",
                              "type": "uint256"
                            },
                            {
                              "internalType": "uint256",
                              "name": "rateAtUtilizationKink1",
                              "type": "uint256"
                            },
                            {
                              "internalType": "uint256",
                              "name": "rateAtUtilizationKink2",
                              "type": "uint256"
                            },
                            {
                              "internalType": "uint256",
                              "name": "rateAtUtilizationMax",
                              "type": "uint256"
                            }
                          ],
                          "internalType": "struct Structs.RateDataV2Params",
                          "name": "rateDataV2",
                          "type": "tuple"
                        }
                      ],
                      "internalType": "struct Structs.RateData",
                      "name": "rateData",
                      "type": "tuple"
                    }
                  ],
                  "internalType": "struct Structs.OverallTokenData",
                  "name": "liquidityTokenData1",
                  "type": "tuple"
                }
              ],
              "internalType": "struct Structs.SwapLimitsAndAvailability",
              "name": "limitsAndAvailability",
              "type": "tuple"
            }
          ],
          "internalType": "struct Structs.DexEntireData[]",
          "name": "datas_",
          "type": "tuple[]"
        }
      ],
      "stateMutability": "nonpayable",
      "type": "function"
    },
    {
      "inputs": [
        {
          "internalType": "address",
          "name": "dex_",
          "type": "address"
        }
      ],
      "name": "getDexId",
      "outputs": [
        {
          "internalType": "uint256",
          "name": "id_",
          "type": "uint256"
        }
      ],
      "stateMutability": "view",
      "type": "function"
    },
    {
      "inputs": [
        {
          "internalType": "address",
          "name": "dex_",
          "type": "address"
        },
        {
          "internalType": "uint256[]",
          "name": "secondsAgos_",
          "type": "uint256[]"
        }
      ],
      "name": "getDexOraclePrice",
      "outputs": [
        {
          "components": [
            {
              "internalType": "uint256",
              "name": "twap1by0",
              "type": "uint256"
            },
            {
              "internalType": "uint256",
              "name": "lowestPrice1by0",
              "type": "uint256"
            },
            {
              "internalType": "uint256",
              "name": "highestPrice1by0",
              "type": "uint256"
            },
            {
              "internalType": "uint256",
              "name": "twap0by1",
              "type": "uint256"
            },
            {
              "internalType": "uint256",
              "name": "lowestPrice0by1",
              "type": "uint256"
            },
            {
              "internalType": "uint256",
              "name": "highestPrice0by1",
              "type": "uint256"
            }
          ],
          "internalType": "struct IFluidDexT1.Oracle[]",
          "name": "twaps_",
          "type": "tuple[]"
        },
        {
          "internalType": "uint256",
          "name": "currentPrice_",
          "type": "uint256"
        }
      ],
      "stateMutability": "view",
      "type": "function"
    },
    {
      "inputs": [
        {
          "internalType": "address",
          "name": "dex_",
          "type": "address"
        }
      ],
      "name": "getDexPricesAndExchangePrices",
      "outputs": [
        {
          "components": [
            {
              "internalType": "uint256",
              "name": "lastStoredPrice",
              "type": "uint256"
            },
            {
              "internalType": "uint256",
              "name": "centerPrice",
              "type": "uint256"
            },
            {
              "internalType": "uint256",
              "name": "upperRange",
              "type": "uint256"
            },
            {
              "internalType": "uint256",
              "name": "lowerRange",
              "type": "uint256"
            },
            {
              "internalType": "uint256",
              "name": "geometricMean",
              "type": "uint256"
            },
            {
              "internalType": "uint256",
              "name": "supplyToken0ExchangePrice",
              "type": "uint256"
            },
            {
              "internalType": "uint256",
              "name": "borrowToken0ExchangePrice",
              "type": "uint256"
            },
            {
              "internalType": "uint256",
              "name": "supplyToken1ExchangePrice",
              "type": "uint256"
            },
            {
              "internalType": "uint256",
              "name": "borrowToken1ExchangePrice",
              "type": "uint256"
            }
          ],
          "internalType": "struct IFluidDexT1.PricesAndExchangePrice",
          "name": "pex_",
          "type": "tuple"
        }
      ],
      "stateMutability": "nonpayable",
      "type": "function"
    },
    {
      "inputs": [
        {
          "internalType": "address",
          "name": "dex_",
          "type": "address"
        }
      ],
      "name": "getDexState",
      "outputs": [
        {
          "components": [
            {
              "internalType": "uint256",
              "name": "lastToLastStoredPrice",
              "type": "uint256"
            },
            {
              "internalType": "uint256",
              "name": "lastStoredPrice",
              "type": "uint256"
            },
            {
              "internalType": "uint256",
              "name": "centerPrice",
              "type": "uint256"
            },
            {
              "internalType": "uint256",
              "name": "lastUpdateTimestamp",
              "type": "uint256"
            },
            {
              "internalType": "uint256",
              "name": "lastPricesTimeDiff",
              "type": "uint256"
            },
            {
              "internalType": "uint256",
              "name": "oracleCheckPoint",
              "type": "uint256"
            },
            {
              "internalType": "uint256",
              "name": "oracleMapping",
              "type": "uint256"
            },
            {
              "internalType": "uint256",
              "name": "totalSupplyShares",
              "type": "uint256"
            },
            {
              "internalType": "uint256",
              "name": "totalBorrowShares",
              "type": "uint256"
            },
            {
              "internalType": "bool",
              "name": "isSwapAndArbitragePaused",
              "type": "bool"
            },
            {
              "components": [
                {
                  "internalType": "bool",
                  "name": "isRangeChangeActive",
                  "type": "bool"
                },
                {
                  "internalType": "bool",
                  "name": "isThresholdChangeActive",
                  "type": "bool"
                },
                {
                  "internalType": "bool",
                  "name": "isCenterPriceShiftActive",
                  "type": "bool"
                },
                {
                  "components": [
                    {
                      "internalType": "uint256",
                      "name": "oldUpper",
                      "type": "uint256"
                    },
                    {
                      "internalType": "uint256",
                      "name": "oldLower",
                      "type": "uint256"
                    },
                    {
                      "internalType": "uint256",
                      "name": "duration",
                      "type": "uint256"
                    },
                    {
                      "internalType": "uint256",
                      "name": "startTimestamp",
                      "type": "uint256"
                    },
                    {
                      "internalType": "uint256",
                      "name": "oldTime",
                      "type": "uint256"
                    }
                  ],
                  "internalType": "struct Structs.ShiftData",
                  "name": "rangeShift",
                  "type": "tuple"
                },
                {
                  "components": [
                    {
                      "internalType": "uint256",
                      "name": "oldUpper",
                      "type": "uint256"
                    },
                    {
                      "internalType": "uint256",
                      "name": "oldLower",
                      "type": "uint256"
                    },
                    {
                      "internalType": "uint256",
                      "name": "duration",
                      "type": "uint256"
                    },
                    {
                      "internalType": "uint256",
                      "name": "startTimestamp",
                      "type": "uint256"
                    },
                    {
                      "internalType": "uint256",
                      "name": "oldTime",
                      "type": "uint256"
                    }
                  ],
                  "internalType": "struct Structs.ShiftData",
                  "name": "thresholdShift",
                  "type": "tuple"
                },
                {
                  "components": [
                    {
                      "internalType": "uint256",
                      "name": "shiftPercentage",
                      "type": "uint256"
                    },
                    {
                      "internalType": "uint256",
                      "name": "duration",
                      "type": "uint256"
                    },
                    {
                      "internalType": "uint256",
                      "name": "startTimestamp",
                      "type": "uint256"
                    }
                  ],
                  "internalType": "struct Structs.CenterPriceShift",
                  "name": "centerPriceShift",
                  "type": "tuple"
                }
              ],
              "internalType": "struct Structs.ShiftChanges",
              "name": "shifts",
              "type": "tuple"
            },
            {
              "internalType": "uint256",
              "name": "token0PerSupplyShare",
              "type": "uint256"
            },
            {
              "internalType": "uint256",
              "name": "token1PerSupplyShare",
              "type": "uint256"
            },
            {
              "internalType": "uint256",
              "name": "token0PerBorrowShare",
              "type": "uint256"
            },
            {
              "internalType": "uint256",
              "name": "token1PerBorrowShare",
              "type": "uint256"
            }
          ],
          "internalType": "struct Structs.DexState",
          "name": "state_",
          "type": "tuple"
        }
      ],
      "stateMutability": "nonpayable",
      "type": "function"
    },
    {
      "inputs": [
        {
          "internalType": "address",
          "name": "dex_",
          "type": "address"
        }
      ],
      "name": "getDexSwapLimitsAndAvailability",
      "outputs": [
        {
          "components": [
            {
              "internalType": "uint256",
              "name": "liquiditySupplyToken0",
              "type": "uint256"
            },
            {
              "internalType": "uint256",
              "name": "liquiditySupplyToken1",
              "type": "uint256"
            },
            {
              "internalType": "uint256",
              "name": "liquidityBorrowToken0",
              "type": "uint256"
            },
            {
              "internalType": "uint256",
              "name": "liquidityBorrowToken1",
              "type": "uint256"
            },
            {
              "internalType": "uint256",
              "name": "liquidityWithdrawableToken0",
              "type": "uint256"
            },
            {
              "internalType": "uint256",
              "name": "liquidityWithdrawableToken1",
              "type": "uint256"
            },
            {
              "internalType": "uint256",
              "name": "liquidityBorrowableToken0",
              "type": "uint256"
            },
            {
              "internalType": "uint256",
              "name": "liquidityBorrowableToken1",
              "type": "uint256"
            },
            {
              "internalType": "uint256",
              "name": "utilizationLimitToken0",
              "type": "uint256"
            },
            {
              "internalType": "uint256",
              "name": "utilizationLimitToken1",
              "type": "uint256"
            },
            {
              "internalType": "uint256",
              "name": "withdrawableUntilUtilizationLimitToken0",
              "type": "uint256"
            },
            {
              "internalType": "uint256",
              "name": "withdrawableUntilUtilizationLimitToken1",
              "type": "uint256"
            },
            {
              "internalType": "uint256",
              "name": "borrowableUntilUtilizationLimitToken0",
              "type": "uint256"
            },
            {
              "internalType": "uint256",
              "name": "borrowableUntilUtilizationLimitToken1",
              "type": "uint256"
            },
            {
              "components": [
                {
                  "internalType": "bool",
                  "name": "modeWithInterest",
                  "type": "bool"
                },
                {
                  "internalType": "uint256",
                  "name": "supply",
                  "type": "uint256"
                },
                {
                  "internalType": "uint256",
                  "name": "withdrawalLimit",
                  "type": "uint256"
                },
                {
                  "internalType": "uint256",
                  "name": "lastUpdateTimestamp",
                  "type": "uint256"
                },
                {
                  "internalType": "uint256",
                  "name": "expandPercent",
                  "type": "uint256"
                },
                {
                  "internalType": "uint256",
                  "name": "expandDuration",
                  "type": "uint256"
                },
                {
                  "internalType": "uint256",
                  "name": "baseWithdrawalLimit",
                  "type": "uint256"
                },
                {
                  "internalType": "uint256",
                  "name": "withdrawableUntilLimit",
                  "type": "uint256"
                },
                {
                  "internalType": "uint256",
                  "name": "withdrawable",
                  "type": "uint256"
                },
                {
                  "internalType": "uint256",
                  "name": "decayEndTimestamp",
                  "type": "uint256"
                },
                {
                  "internalType": "uint256",
                  "name": "decayAmount",
                  "type": "uint256"
                }
              ],
              "internalType": "struct Structs.UserSupplyData",
              "name": "liquidityUserSupplyDataToken0",
              "type": "tuple"
            },
            {
              "components": [
                {
                  "internalType": "bool",
                  "name": "modeWithInterest",
                  "type": "bool"
                },
                {
                  "internalType": "uint256",
                  "name": "supply",
                  "type": "uint256"
                },
                {
                  "internalType": "uint256",
                  "name": "withdrawalLimit",
                  "type": "uint256"
                },
                {
                  "internalType": "uint256",
                  "name": "lastUpdateTimestamp",
                  "type": "uint256"
                },
                {
                  "internalType": "uint256",
                  "name": "expandPercent",
                  "type": "uint256"
                },
                {
                  "internalType": "uint256",
                  "name": "expandDuration",
                  "type": "uint256"
                },
                {
                  "internalType": "uint256",
                  "name": "baseWithdrawalLimit",
                  "type": "uint256"
                },
                {
                  "internalType": "uint256",
                  "name": "withdrawableUntilLimit",
                  "type": "uint256"
                },
                {
                  "internalType": "uint256",
                  "name": "withdrawable",
                  "type": "uint256"
                },
                {
                  "internalType": "uint256",
                  "name": "decayEndTimestamp",
                  "type": "uint256"
                },
                {
                  "internalType": "uint256",
                  "name": "decayAmount",
                  "type": "uint256"
                }
              ],
              "internalType": "struct Structs.UserSupplyData",
              "name": "liquidityUserSupplyDataToken1",
              "type": "tuple"
            },
            {
              "components": [
                {
                  "internalType": "bool",
                  "name": "modeWithInterest",
                  "type": "bool"
                },
                {
                  "internalType": "uint256",
                  "name": "borrow",
                  "type": "uint256"
                },
                {
                  "internalType": "uint256",
                  "name": "borrowLimit",
                  "type": "uint256"
                },
                {
                  "internalType": "uint256",
                  "name": "lastUpdateTimestamp",
                  "type": "uint256"
                },
                {
                  "internalType": "uint256",
                  "name": "expandPercent",
                  "type": "uint256"
                },
                {
                  "internalType": "uint256",
                  "name": "expandDuration",
                  "type": "uint256"
                },
                {
                  "internalType": "uint256",
                  "name": "baseBorrowLimit",
                  "type": "uint256"
                },
                {
                  "internalType": "uint256",
                  "name": "maxBorrowLimit",
                  "type": "uint256"
                },
                {
                  "internalType": "uint256",
                  "name": "borrowableUntilLimit",
                  "type": "uint256"
                },
                {
                  "internalType": "uint256",
                  "name": "borrowable",
                  "type": "uint256"
                },
                {
                  "internalType": "uint256",
                  "name": "borrowLimitUtilization",
                  "type": "uint256"
                }
              ],
              "internalType": "struct Structs.UserBorrowData",
              "name": "liquidityUserBorrowDataToken0",
              "type": "tuple"
            },
            {
              "components": [
                {
                  "internalType": "bool",
                  "name": "modeWithInterest",
                  "type": "bool"
                },
                {
                  "internalType": "uint256",
                  "name": "borrow",
                  "type": "uint256"
                },
                {
                  "internalType": "uint256",
                  "name": "borrowLimit",
                  "type": "uint256"
                },
                {
                  "internalType": "uint256",
                  "name": "lastUpdateTimestamp",
                  "type": "uint256"
                },
                {
                  "internalType": "uint256",
                  "name": "expandPercent",
                  "type": "uint256"
                },
                {
                  "internalType": "uint256",
                  "name": "expandDuration",
                  "type": "uint256"
                },
                {
                  "internalType": "uint256",
                  "name": "baseBorrowLimit",
                  "type": "uint256"
                },
                {
                  "internalType": "uint256",
                  "name": "maxBorrowLimit",
                  "type": "uint256"
                },
                {
                  "internalType": "uint256",
                  "name": "borrowableUntilLimit",
                  "type": "uint256"
                },
                {
                  "internalType": "uint256",
                  "name": "borrowable",
                  "type": "uint256"
                },
                {
                  "internalType": "uint256",
                  "name": "borrowLimitUtilization",
                  "type": "uint256"
                }
              ],
              "internalType": "struct Structs.UserBorrowData",
              "name": "liquidityUserBorrowDataToken1",
              "type": "tuple"
            },
            {
              "components": [
                {
                  "internalType": "uint256",
                  "name": "borrowRate",
                  "type": "uint256"
                },
                {
                  "internalType": "uint256",
                  "name": "supplyRate",
                  "type": "uint256"
                },
                {
                  "internalType": "uint256",
                  "name": "fee",
                  "type": "uint256"
                },
                {
                  "internalType": "uint256",
                  "name": "lastStoredUtilization",
                  "type": "uint256"
                },
                {
                  "internalType": "uint256",
                  "name": "storageUpdateThreshold",
                  "type": "uint256"
                },
                {
                  "internalType": "uint256",
                  "name": "lastUpdateTimestamp",
                  "type": "uint256"
                },
                {
                  "internalType": "uint256",
                  "name": "supplyExchangePrice",
                  "type": "uint256"
                },
                {
                  "internalType": "uint256",
                  "name": "borrowExchangePrice",
                  "type": "uint256"
                },
                {
                  "internalType": "uint256",
                  "name": "supplyRawInterest",
                  "type": "uint256"
                },
                {
                  "internalType": "uint256",
                  "name": "supplyInterestFree",
                  "type": "uint256"
                },
                {
                  "internalType": "uint256",
                  "name": "borrowRawInterest",
                  "type": "uint256"
                },
                {
                  "internalType": "uint256",
                  "name": "borrowInterestFree",
                  "type": "uint256"
                },
                {
                  "internalType": "uint256",
                  "name": "totalSupply",
                  "type": "uint256"
                },
                {
                  "internalType": "uint256",
                  "name": "totalBorrow",
                  "type": "uint256"
                },
                {
                  "internalType": "uint256",
                  "name": "revenue",
                  "type": "uint256"
                },
                {
                  "internalType": "uint256",
                  "name": "maxUtilization",
                  "type": "uint256"
                },
                {
                  "components": [
                    {
                      "internalType": "uint256",
                      "name": "version",
                      "type": "uint256"
                    },
                    {
                      "components": [
                        {
                          "internalType": "address",
                          "name": "token",
                          "type": "address"
                        },
                        {
                          "internalType": "uint256",
                          "name": "kink",
                          "type": "uint256"
                        },
                        {
                          "internalType": "uint256",
                          "name": "rateAtUtilizationZero",
                          "type": "uint256"
                        },
                        {
                          "internalType": "uint256",
                          "name": "rateAtUtilizationKink",
                          "type": "uint256"
                        },
                        {
                          "internalType": "uint256",
                          "name": "rateAtUtilizationMax",
                          "type": "uint256"
                        }
                      ],
                      "internalType": "struct Structs.RateDataV1Params",
                      "name": "rateDataV1",
                      "type": "tuple"
                    },
                    {
                      "components": [
                        {
                          "internalType": "address",
                          "name": "token",
                          "type": "address"
                        },
                        {
                          "internalType": "uint256",
                          "name": "kink1",
                          "type": "uint256"
                        },
                        {
                          "internalType": "uint256",
                          "name": "kink2",
                          "type": "uint256"
                        },
                        {
                          "internalType": "uint256",
                          "name": "rateAtUtilizationZero",
                          "type": "uint256"
                        },
                        {
                          "internalType": "uint256",
                          "name": "rateAtUtilizationKink1",
                          "type": "uint256"
                        },
                        {
                          "internalType": "uint256",
                          "name": "rateAtUtilizationKink2",
                          "type": "uint256"
                        },
                        {
                          "internalType": "uint256",
                          "name": "rateAtUtilizationMax",
                          "type": "uint256"
                        }
                      ],
                      "internalType": "struct Structs.RateDataV2Params",
                      "name": "rateDataV2",
                      "type": "tuple"
                    }
                  ],
                  "internalType": "struct Structs.RateData",
                  "name": "rateData",
                  "type": "tuple"
                }
              ],
              "internalType": "struct Structs.OverallTokenData",
              "name": "liquidityTokenData0",
              "type": "tuple"
            },
            {
              "components": [
                {
                  "internalType": "uint256",
                  "name": "borrowRate",
                  "type": "uint256"
                },
                {
                  "internalType": "uint256",
                  "name": "supplyRate",
                  "type": "uint256"
                },
                {
                  "internalType": "uint256",
                  "name": "fee",
                  "type": "uint256"
                },
                {
                  "internalType": "uint256",
                  "name": "lastStoredUtilization",
                  "type": "uint256"
                },
                {
                  "internalType": "uint256",
                  "name": "storageUpdateThreshold",
                  "type": "uint256"
                },
                {
                  "internalType": "uint256",
                  "name": "lastUpdateTimestamp",
                  "type": "uint256"
                },
                {
                  "internalType": "uint256",
                  "name": "supplyExchangePrice",
                  "type": "uint256"
                },
                {
                  "internalType": "uint256",
                  "name": "borrowExchangePrice",
                  "type": "uint256"
                },
                {
                  "internalType": "uint256",
                  "name": "supplyRawInterest",
                  "type": "uint256"
                },
                {
                  "internalType": "uint256",
                  "name": "supplyInterestFree",
                  "type": "uint256"
                },
                {
                  "internalType": "uint256",
                  "name": "borrowRawInterest",
                  "type": "uint256"
                },
                {
                  "internalType": "uint256",
                  "name": "borrowInterestFree",
                  "type": "uint256"
                },
                {
                  "internalType": "uint256",
                  "name": "totalSupply",
                  "type": "uint256"
                },
                {
                  "internalType": "uint256",
                  "name": "totalBorrow",
                  "type": "uint256"
                },
                {
                  "internalType": "uint256",
                  "name": "revenue",
                  "type": "uint256"
                },
                {
                  "internalType": "uint256",
                  "name": "maxUtilization",
                  "type": "uint256"
                },
                {
                  "components": [
                    {
                      "internalType": "uint256",
                      "name": "version",
                      "type": "uint256"
                    },
                    {
                      "components": [
                        {
                          "internalType": "address",
                          "name": "token",
                          "type": "address"
                        },
                        {
                          "internalType": "uint256",
                          "name": "kink",
                          "type": "uint256"
                        },
                        {
                          "internalType": "uint256",
                          "name": "rateAtUtilizationZero",
                          "type": "uint256"
                        },
                        {
                          "internalType": "uint256",
                          "name": "rateAtUtilizationKink",
                          "type": "uint256"
                        },
                        {
                          "internalType": "uint256",
                          "name": "rateAtUtilizationMax",
                          "type": "uint256"
                        }
                      ],
                      "internalType": "struct Structs.RateDataV1Params",
                      "name": "rateDataV1",
                      "type": "tuple"
                    },
                    {
                      "components": [
                        {
                          "internalType": "address",
                          "name": "token",
                          "type": "address"
                        },
                        {
                          "internalType": "uint256",
                          "name": "kink1",
                          "type": "uint256"
                        },
                        {
                          "internalType": "uint256",
                          "name": "kink2",
                          "type": "uint256"
                        },
                        {
                          "internalType": "uint256",
                          "name": "rateAtUtilizationZero",
                          "type": "uint256"
                        },
                        {
                          "internalType": "uint256",
                          "name": "rateAtUtilizationKink1",
                          "type": "uint256"
                        },
                        {
                          "internalType": "uint256",
                          "name": "rateAtUtilizationKink2",
                          "type": "uint256"
                        },
                        {
                          "internalType": "uint256",
                          "name": "rateAtUtilizationMax",
                          "type": "uint256"
                        }
                      ],
                      "internalType": "struct Structs.RateDataV2Params",
                      "name": "rateDataV2",
                      "type": "tuple"
                    }
                  ],
                  "internalType": "struct Structs.RateData",
                  "name": "rateData",
                  "type": "tuple"
                }
              ],
              "internalType": "struct Structs.OverallTokenData",
              "name": "liquidityTokenData1",
              "type": "tuple"
            }
          ],
          "internalType": "struct Structs.SwapLimitsAndAvailability",
          "name": "limitsAndAvailability_",
          "type": "tuple"
        }
      ],
      "stateMutability": "view",
      "type": "function"
    },
    {
      "inputs": [
        {
          "internalType": "address",
          "name": "dex_",
          "type": "address"
        }
      ],
      "name": "getDexTokens",
      "outputs": [
        {
          "internalType": "address",
          "name": "token0_",
          "type": "address"
        },
        {
          "internalType": "address",
          "name": "token1_",
          "type": "address"
        }
      ],
      "stateMutability": "view",
      "type": "function"
    },
    {
      "inputs": [
        {
          "internalType": "address",
          "name": "dex_",
          "type": "address"
        }
      ],
      "name": "getDexVariables2Raw",
      "outputs": [
        {
          "internalType": "uint256",
          "name": "",
          "type": "uint256"
        }
      ],
      "stateMutability": "view",
      "type": "function"
    },
    {
      "inputs": [
        {
          "internalType": "address",
          "name": "dex_",
          "type": "address"
        }
      ],
      "name": "getDexVariablesRaw",
      "outputs": [
        {
          "internalType": "uint256",
          "name": "",
          "type": "uint256"
        }
      ],
      "stateMutability": "view",
      "type": "function"
    },
    {
      "inputs": [
        {
          "internalType": "address",
          "name": "dex_",
          "type": "address"
        },
        {
          "internalType": "uint256",
          "name": "index_",
          "type": "uint256"
        }
      ],
      "name": "getOracleRaw",
      "outputs": [
        {
          "internalType": "uint256",
          "name": "",
          "type": "uint256"
        }
      ],
      "stateMutability": "view",
      "type": "function"
    },
    {
      "inputs": [
        {
          "internalType": "address",
          "name": "dex_",
          "type": "address"
        }
      ],
      "name": "getRangeShiftRaw",
      "outputs": [
        {
          "internalType": "uint256",
          "name": "",
          "type": "uint256"
        }
      ],
      "stateMutability": "view",
      "type": "function"
    },
    {
      "inputs": [
        {
          "internalType": "address",
          "name": "dex_",
          "type": "address"
        }
      ],
      "name": "getThresholdShiftRaw",
      "outputs": [
        {
          "internalType": "uint256",
          "name": "",
          "type": "uint256"
        }
      ],
      "stateMutability": "view",
      "type": "function"
    },
    {
      "inputs": [
        {
          "internalType": "address",
          "name": "dex_",
          "type": "address"
        }
      ],
      "name": "getTotalBorrowSharesRaw",
      "outputs": [
        {
          "internalType": "uint256",
          "name": "",
          "type": "uint256"
        }
      ],
      "stateMutability": "view",
      "type": "function"
    },
    {
      "inputs": [],
      "name": "getTotalDexes",
      "outputs": [
        {
          "internalType": "uint256",
          "name": "",
          "type": "uint256"
        }
      ],
      "stateMutability": "view",
      "type": "function"
    },
    {
      "inputs": [
        {
          "internalType": "address",
          "name": "dex_",
          "type": "address"
        }
      ],
      "name": "getTotalSupplySharesRaw",
      "outputs": [
        {
          "internalType": "uint256",
          "name": "",
          "type": "uint256"
        }
      ],
      "stateMutability": "view",
      "type": "function"
    },
    {
      "inputs": [
        {
          "internalType": "address",
          "name": "dex_",
          "type": "address"
        },
        {
          "internalType": "address",
          "name": "user_",
          "type": "address"
        }
      ],
      "name": "getUserBorrowData",
      "outputs": [
        {
          "components": [
            {
              "internalType": "bool",
              "name": "isAllowed",
              "type": "bool"
            },
            {
              "internalType": "uint256",
              "name": "borrow",
              "type": "uint256"
            },
            {
              "internalType": "uint256",
              "name": "borrowLimit",
              "type": "uint256"
            },
            {
              "internalType": "uint256",
              "name": "lastUpdateTimestamp",
              "type": "uint256"
            },
            {
              "internalType": "uint256",
              "name": "expandPercent",
              "type": "uint256"
            },
            {
              "internalType": "uint256",
              "name": "expandDuration",
              "type": "uint256"
            },
            {
              "internalType": "uint256",
              "name": "baseBorrowLimit",
              "type": "uint256"
            },
            {
              "internalType": "uint256",
              "name": "maxBorrowLimit",
              "type": "uint256"
            },
            {
              "internalType": "uint256",
              "name": "borrowableUntilLimit",
              "type": "uint256"
            },
            {
              "internalType": "uint256",
              "name": "borrowable",
              "type": "uint256"
            },
            {
              "components": [
                {
                  "internalType": "bool",
                  "name": "modeWithInterest",
                  "type": "bool"
                },
                {
                  "internalType": "uint256",
                  "name": "borrow",
                  "type": "uint256"
                },
                {
                  "internalType": "uint256",
                  "name": "borrowLimit",
                  "type": "uint256"
                },
                {
                  "internalType": "uint256",
                  "name": "lastUpdateTimestamp",
                  "type": "uint256"
                },
                {
                  "internalType": "uint256",
                  "name": "expandPercent",
                  "type": "uint256"
                },
                {
                  "internalType": "uint256",
                  "name": "expandDuration",
                  "type": "uint256"
                },
                {
                  "internalType": "uint256",
                  "name": "baseBorrowLimit",
                  "type": "uint256"
                },
                {
                  "internalType": "uint256",
                  "name": "maxBorrowLimit",
                  "type": "uint256"
                },
                {
                  "internalType": "uint256",
                  "name": "borrowableUntilLimit",
                  "type": "uint256"
                },
                {
                  "internalType": "uint256",
                  "name": "borrowable",
                  "type": "uint256"
                },
                {
                  "internalType": "uint256",
                  "name": "borrowLimitUtilization",
                  "type": "uint256"
                }
              ],
              "internalType": "struct Structs.UserBorrowData",
              "name": "liquidityUserBorrowDataToken0",
              "type": "tuple"
            },
            {
              "components": [
                {
                  "internalType": "bool",
                  "name": "modeWithInterest",
                  "type": "bool"
                },
                {
                  "internalType": "uint256",
                  "name": "borrow",
                  "type": "uint256"
                },
                {
                  "internalType": "uint256",
                  "name": "borrowLimit",
                  "type": "uint256"
                },
                {
                  "internalType": "uint256",
                  "name": "lastUpdateTimestamp",
                  "type": "uint256"
                },
                {
                  "internalType": "uint256",
                  "name": "expandPercent",
                  "type": "uint256"
                },
                {
                  "internalType": "uint256",
                  "name": "expandDuration",
                  "type": "uint256"
                },
                {
                  "internalType": "uint256",
                  "name": "baseBorrowLimit",
                  "type": "uint256"
                },
                {
                  "internalType": "uint256",
                  "name": "maxBorrowLimit",
                  "type": "uint256"
                },
                {
                  "internalType": "uint256",
                  "name": "borrowableUntilLimit",
                  "type": "uint256"
                },
                {
                  "internalType": "uint256",
                  "name": "borrowable",
                  "type": "uint256"
                },
                {
                  "internalType": "uint256",
                  "name": "borrowLimitUtilization",
                  "type": "uint256"
                }
              ],
              "internalType": "struct Structs.UserBorrowData",
              "name": "liquidityUserBorrowDataToken1",
              "type": "tuple"
            },
            {
              "components": [
                {
                  "internalType": "uint256",
                  "name": "borrowRate",
                  "type": "uint256"
                },
                {
                  "internalType": "uint256",
                  "name": "supplyRate",
                  "type": "uint256"
                },
                {
                  "internalType": "uint256",
                  "name": "fee",
                  "type": "uint256"
                },
                {
                  "internalType": "uint256",
                  "name": "lastStoredUtilization",
                  "type": "uint256"
                },
                {
                  "internalType": "uint256",
                  "name": "storageUpdateThreshold",
                  "type": "uint256"
                },
                {
                  "internalType": "uint256",
                  "name": "lastUpdateTimestamp",
                  "type": "uint256"
                },
                {
                  "internalType": "uint256",
                  "name": "supplyExchangePrice",
                  "type": "uint256"
                },
                {
                  "internalType": "uint256",
                  "name": "borrowExchangePrice",
                  "type": "uint256"
                },
                {
                  "internalType": "uint256",
                  "name": "supplyRawInterest",
                  "type": "uint256"
                },
                {
                  "internalType": "uint256",
                  "name": "supplyInterestFree",
                  "type": "uint256"
                },
                {
                  "internalType": "uint256",
                  "name": "borrowRawInterest",
                  "type": "uint256"
                },
                {
                  "internalType": "uint256",
                  "name": "borrowInterestFree",
                  "type": "uint256"
                },
                {
                  "internalType": "uint256",
                  "name": "totalSupply",
                  "type": "uint256"
                },
                {
                  "internalType": "uint256",
                  "name": "totalBorrow",
                  "type": "uint256"
                },
                {
                  "internalType": "uint256",
                  "name": "revenue",
                  "type": "uint256"
                },
                {
                  "internalType": "uint256",
                  "name": "maxUtilization",
                  "type": "uint256"
                },
                {
                  "components": [
                    {
                      "internalType": "uint256",
                      "name": "version",
                      "type": "uint256"
                    },
                    {
                      "components": [
                        {
                          "internalType": "address",
                          "name": "token",
                          "type": "address"
                        },
                        {
                          "internalType": "uint256",
                          "name": "kink",
                          "type": "uint256"
                        },
                        {
                          "internalType": "uint256",
                          "name": "rateAtUtilizationZero",
                          "type": "uint256"
                        },
                        {
                          "internalType": "uint256",
                          "name": "rateAtUtilizationKink",
                          "type": "uint256"
                        },
                        {
                          "internalType": "uint256",
                          "name": "rateAtUtilizationMax",
                          "type": "uint256"
                        }
                      ],
                      "internalType": "struct Structs.RateDataV1Params",
                      "name": "rateDataV1",
                      "type": "tuple"
                    },
                    {
                      "components": [
                        {
                          "internalType": "address",
                          "name": "token",
                          "type": "address"
                        },
                        {
                          "internalType": "uint256",
                          "name": "kink1",
                          "type": "uint256"
                        },
                        {
                          "internalType": "uint256",
                          "name": "kink2",
                          "type": "uint256"
                        },
                        {
                          "internalType": "uint256",
                          "name": "rateAtUtilizationZero",
                          "type": "uint256"
                        },
                        {
                          "internalType": "uint256",
                          "name": "rateAtUtilizationKink1",
                          "type": "uint256"
                        },
                        {
                          "internalType": "uint256",
                          "name": "rateAtUtilizationKink2",
                          "type": "uint256"
                        },
                        {
                          "internalType": "uint256",
                          "name": "rateAtUtilizationMax",
                          "type": "uint256"
                        }
                      ],
                      "internalType": "struct Structs.RateDataV2Params",
                      "name": "rateDataV2",
                      "type": "tuple"
                    }
                  ],
                  "internalType": "struct Structs.RateData",
                  "name": "rateData",
                  "type": "tuple"
                }
              ],
              "internalType": "struct Structs.OverallTokenData",
              "name": "liquidityTokenData0",
              "type": "tuple"
            },
            {
              "components": [
                {
                  "internalType": "uint256",
                  "name": "borrowRate",
                  "type": "uint256"
                },
                {
                  "internalType": "uint256",
                  "name": "supplyRate",
                  "type": "uint256"
                },
                {
                  "internalType": "uint256",
                  "name": "fee",
                  "type": "uint256"
                },
                {
                  "internalType": "uint256",
                  "name": "lastStoredUtilization",
                  "type": "uint256"
                },
                {
                  "internalType": "uint256",
                  "name": "storageUpdateThreshold",
                  "type": "uint256"
                },
                {
                  "internalType": "uint256",
                  "name": "lastUpdateTimestamp",
                  "type": "uint256"
                },
                {
                  "internalType": "uint256",
                  "name": "supplyExchangePrice",
                  "type": "uint256"
                },
                {
                  "internalType": "uint256",
                  "name": "borrowExchangePrice",
                  "type": "uint256"
                },
                {
                  "internalType": "uint256",
                  "name": "supplyRawInterest",
                  "type": "uint256"
                },
                {
                  "internalType": "uint256",
                  "name": "supplyInterestFree",
                  "type": "uint256"
                },
                {
                  "internalType": "uint256",
                  "name": "borrowRawInterest",
                  "type": "uint256"
                },
                {
                  "internalType": "uint256",
                  "name": "borrowInterestFree",
                  "type": "uint256"
                },
                {
                  "internalType": "uint256",
                  "name": "totalSupply",
                  "type": "uint256"
                },
                {
                  "internalType": "uint256",
                  "name": "totalBorrow",
                  "type": "uint256"
                },
                {
                  "internalType": "uint256",
                  "name": "revenue",
                  "type": "uint256"
                },
                {
                  "internalType": "uint256",
                  "name": "maxUtilization",
                  "type": "uint256"
                },
                {
                  "components": [
                    {
                      "internalType": "uint256",
                      "name": "version",
                      "type": "uint256"
                    },
                    {
                      "components": [
                        {
                          "internalType": "address",
                          "name": "token",
                          "type": "address"
                        },
                        {
                          "internalType": "uint256",
                          "name": "kink",
                          "type": "uint256"
                        },
                        {
                          "internalType": "uint256",
                          "name": "rateAtUtilizationZero",
                          "type": "uint256"
                        },
                        {
                          "internalType": "uint256",
                          "name": "rateAtUtilizationKink",
                          "type": "uint256"
                        },
                        {
                          "internalType": "uint256",
                          "name": "rateAtUtilizationMax",
                          "type": "uint256"
                        }
                      ],
                      "internalType": "struct Structs.RateDataV1Params",
                      "name": "rateDataV1",
                      "type": "tuple"
                    },
                    {
                      "components": [
                        {
                          "internalType": "address",
                          "name": "token",
                          "type": "address"
                        },
                        {
                          "internalType": "uint256",
                          "name": "kink1",
                          "type": "uint256"
                        },
                        {
                          "internalType": "uint256",
                          "name": "kink2",
                          "type": "uint256"
                        },
                        {
                          "internalType": "uint256",
                          "name": "rateAtUtilizationZero",
                          "type": "uint256"
                        },
                        {
                          "internalType": "uint256",
                          "name": "rateAtUtilizationKink1",
                          "type": "uint256"
                        },
                        {
                          "internalType": "uint256",
                          "name": "rateAtUtilizationKink2",
                          "type": "uint256"
                        },
                        {
                          "internalType": "uint256",
                          "name": "rateAtUtilizationMax",
                          "type": "uint256"
                        }
                      ],
                      "internalType": "struct Structs.RateDataV2Params",
                      "name": "rateDataV2",
                      "type": "tuple"
                    }
                  ],
                  "internalType": "struct Structs.RateData",
                  "name": "rateData",
                  "type": "tuple"
                }
              ],
              "internalType": "struct Structs.OverallTokenData",
              "name": "liquidityTokenData1",
              "type": "tuple"
            }
          ],
          "internalType": "struct Structs.UserBorrowData",
          "name": "userBorrowData_",
          "type": "tuple"
        }
      ],
      "stateMutability": "view",
      "type": "function"
    },
    {
      "inputs": [
        {
          "internalType": "address",
          "name": "dex_",
          "type": "address"
        },
        {
          "internalType": "address",
          "name": "user_",
          "type": "address"
        }
      ],
      "name": "getUserBorrowDataRaw",
      "outputs": [
        {
          "internalType": "uint256",
          "name": "",
          "type": "uint256"
        }
      ],
      "stateMutability": "view",
      "type": "function"
    },
    {
      "inputs": [
        {
          "internalType": "address",
          "name": "dex_",
          "type": "address"
        },
        {
          "internalType": "address[]",
          "name": "users_",
          "type": "address[]"
        }
      ],
      "name": "getUserBorrowDatas",
      "outputs": [
        {
          "components": [
            {
              "internalType": "bool",
              "name": "isAllowed",
              "type": "bool"
            },
            {
              "internalType": "uint256",
              "name": "borrow",
              "type": "uint256"
            },
            {
              "internalType": "uint256",
              "name": "borrowLimit",
              "type": "uint256"
            },
            {
              "internalType": "uint256",
              "name": "lastUpdateTimestamp",
              "type": "uint256"
            },
            {
              "internalType": "uint256",
              "name": "expandPercent",
              "type": "uint256"
            },
            {
              "internalType": "uint256",
              "name": "expandDuration",
              "type": "uint256"
            },
            {
              "internalType": "uint256",
              "name": "baseBorrowLimit",
              "type": "uint256"
            },
            {
              "internalType": "uint256",
              "name": "maxBorrowLimit",
              "type": "uint256"
            },
            {
              "internalType": "uint256",
              "name": "borrowableUntilLimit",
              "type": "uint256"
            },
            {
              "internalType": "uint256",
              "name": "borrowable",
              "type": "uint256"
            },
            {
              "components": [
                {
                  "internalType": "bool",
                  "name": "modeWithInterest",
                  "type": "bool"
                },
                {
                  "internalType": "uint256",
                  "name": "borrow",
                  "type": "uint256"
                },
                {
                  "internalType": "uint256",
                  "name": "borrowLimit",
                  "type": "uint256"
                },
                {
                  "internalType": "uint256",
                  "name": "lastUpdateTimestamp",
                  "type": "uint256"
                },
                {
                  "internalType": "uint256",
                  "name": "expandPercent",
                  "type": "uint256"
                },
                {
                  "internalType": "uint256",
                  "name": "expandDuration",
                  "type": "uint256"
                },
                {
                  "internalType": "uint256",
                  "name": "baseBorrowLimit",
                  "type": "uint256"
                },
                {
                  "internalType": "uint256",
                  "name": "maxBorrowLimit",
                  "type": "uint256"
                },
                {
                  "internalType": "uint256",
                  "name": "borrowableUntilLimit",
                  "type": "uint256"
                },
                {
                  "internalType": "uint256",
                  "name": "borrowable",
                  "type": "uint256"
                },
                {
                  "internalType": "uint256",
                  "name": "borrowLimitUtilization",
                  "type": "uint256"
                }
              ],
              "internalType": "struct Structs.UserBorrowData",
              "name": "liquidityUserBorrowDataToken0",
              "type": "tuple"
            },
            {
              "components": [
                {
                  "internalType": "bool",
                  "name": "modeWithInterest",
                  "type": "bool"
                },
                {
                  "internalType": "uint256",
                  "name": "borrow",
                  "type": "uint256"
                },
                {
                  "internalType": "uint256",
                  "name": "borrowLimit",
                  "type": "uint256"
                },
                {
                  "internalType": "uint256",
                  "name": "lastUpdateTimestamp",
                  "type": "uint256"
                },
                {
                  "internalType": "uint256",
                  "name": "expandPercent",
                  "type": "uint256"
                },
                {
                  "internalType": "uint256",
                  "name": "expandDuration",
                  "type": "uint256"
                },
                {
                  "internalType": "uint256",
                  "name": "baseBorrowLimit",
                  "type": "uint256"
                },
                {
                  "internalType": "uint256",
                  "name": "maxBorrowLimit",
                  "type": "uint256"
                },
                {
                  "internalType": "uint256",
                  "name": "borrowableUntilLimit",
                  "type": "uint256"
                },
                {
                  "internalType": "uint256",
                  "name": "borrowable",
                  "type": "uint256"
                },
                {
                  "internalType": "uint256",
                  "name": "borrowLimitUtilization",
                  "type": "uint256"
                }
              ],
              "internalType": "struct Structs.UserBorrowData",
              "name": "liquidityUserBorrowDataToken1",
              "type": "tuple"
            },
            {
              "components": [
                {
                  "internalType": "uint256",
                  "name": "borrowRate",
                  "type": "uint256"
                },
                {
                  "internalType": "uint256",
                  "name": "supplyRate",
                  "type": "uint256"
                },
                {
                  "internalType": "uint256",
                  "name": "fee",
                  "type": "uint256"
                },
                {
                  "internalType": "uint256",
                  "name": "lastStoredUtilization",
                  "type": "uint256"
                },
                {
                  "internalType": "uint256",
                  "name": "storageUpdateThreshold",
                  "type": "uint256"
                },
                {
                  "internalType": "uint256",
                  "name": "lastUpdateTimestamp",
                  "type": "uint256"
                },
                {
                  "internalType": "uint256",
                  "name": "supplyExchangePrice",
                  "type": "uint256"
                },
                {
                  "internalType": "uint256",
                  "name": "borrowExchangePrice",
                  "type": "uint256"
                },
                {
                  "internalType": "uint256",
                  "name": "supplyRawInterest",
                  "type": "uint256"
                },
                {
                  "internalType": "uint256",
                  "name": "supplyInterestFree",
                  "type": "uint256"
                },
                {
                  "internalType": "uint256",
                  "name": "borrowRawInterest",
                  "type": "uint256"
                },
                {
                  "internalType": "uint256",
                  "name": "borrowInterestFree",
                  "type": "uint256"
                },
                {
                  "internalType": "uint256",
                  "name": "totalSupply",
                  "type": "uint256"
                },
                {
                  "internalType": "uint256",
                  "name": "totalBorrow",
                  "type": "uint256"
                },
                {
                  "internalType": "uint256",
                  "name": "revenue",
                  "type": "uint256"
                },
                {
                  "internalType": "uint256",
                  "name": "maxUtilization",
                  "type": "uint256"
                },
                {
                  "components": [
                    {
                      "internalType": "uint256",
                      "name": "version",
                      "type": "uint256"
                    },
                    {
                      "components": [
                        {
                          "internalType": "address",
                          "name": "token",
                          "type": "address"
                        },
                        {
                          "internalType": "uint256",
                          "name": "kink",
                          "type": "uint256"
                        },
                        {
                          "internalType": "uint256",
                          "name": "rateAtUtilizationZero",
                          "type": "uint256"
                        },
                        {
                          "internalType": "uint256",
                          "name": "rateAtUtilizationKink",
                          "type": "uint256"
                        },
                        {
                          "internalType": "uint256",
                          "name": "rateAtUtilizationMax",
                          "type": "uint256"
                        }
                      ],
                      "internalType": "struct Structs.RateDataV1Params",
                      "name": "rateDataV1",
                      "type": "tuple"
                    },
                    {
                      "components": [
                        {
                          "internalType": "address",
                          "name": "token",
                          "type": "address"
                        },
                        {
                          "internalType": "uint256",
                          "name": "kink1",
                          "type": "uint256"
                        },
                        {
                          "internalType": "uint256",
                          "name": "kink2",
                          "type": "uint256"
                        },
                        {
                          "internalType": "uint256",
                          "name": "rateAtUtilizationZero",
                          "type": "uint256"
                        },
                        {
                          "internalType": "uint256",
                          "name": "rateAtUtilizationKink1",
                          "type": "uint256"
                        },
                        {
                          "internalType": "uint256",
                          "name": "rateAtUtilizationKink2",
                          "type": "uint256"
                        },
                        {
                          "internalType": "uint256",
                          "name": "rateAtUtilizationMax",
                          "type": "uint256"
                        }
                      ],
                      "internalType": "struct Structs.RateDataV2Params",
                      "name": "rateDataV2",
                      "type": "tuple"
                    }
                  ],
                  "internalType": "struct Structs.RateData",
                  "name": "rateData",
                  "type": "tuple"
                }
              ],
              "internalType": "struct Structs.OverallTokenData",
              "name": "liquidityTokenData0",
              "type": "tuple"
            },
            {
              "components": [
                {
                  "internalType": "uint256",
                  "name": "borrowRate",
                  "type": "uint256"
                },
                {
                  "internalType": "uint256",
                  "name": "supplyRate",
                  "type": "uint256"
                },
                {
                  "internalType": "uint256",
                  "name": "fee",
                  "type": "uint256"
                },
                {
                  "internalType": "uint256",
                  "name": "lastStoredUtilization",
                  "type": "uint256"
                },
                {
                  "internalType": "uint256",
                  "name": "storageUpdateThreshold",
                  "type": "uint256"
                },
                {
                  "internalType": "uint256",
                  "name": "lastUpdateTimestamp",
                  "type": "uint256"
                },
                {
                  "internalType": "uint256",
                  "name": "supplyExchangePrice",
                  "type": "uint256"
                },
                {
                  "internalType": "uint256",
                  "name": "borrowExchangePrice",
                  "type": "uint256"
                },
                {
                  "internalType": "uint256",
                  "name": "supplyRawInterest",
                  "type": "uint256"
                },
                {
                  "internalType": "uint256",
                  "name": "supplyInterestFree",
                  "type": "uint256"
                },
                {
                  "internalType": "uint256",
                  "name": "borrowRawInterest",
                  "type": "uint256"
                },
                {
                  "internalType": "uint256",
                  "name": "borrowInterestFree",
                  "type": "uint256"
                },
                {
                  "internalType": "uint256",
                  "name": "totalSupply",
                  "type": "uint256"
                },
                {
                  "internalType": "uint256",
                  "name": "totalBorrow",
                  "type": "uint256"
                },
                {
                  "internalType": "uint256",
                  "name": "revenue",
                  "type": "uint256"
                },
                {
                  "internalType": "uint256",
                  "name": "maxUtilization",
                  "type": "uint256"
                },
                {
                  "components": [
                    {
                      "internalType": "uint256",
                      "name": "version",
                      "type": "uint256"
                    },
                    {
                      "components": [
                        {
                          "internalType": "address",
                          "name": "token",
                          "type": "address"
                        },
                        {
                          "internalType": "uint256",
                          "name": "kink",
                          "type": "uint256"
                        },
                        {
                          "internalType": "uint256",
                          "name": "rateAtUtilizationZero",
                          "type": "uint256"
                        },
                        {
                          "internalType": "uint256",
                          "name": "rateAtUtilizationKink",
                          "type": "uint256"
                        },
                        {
                          "internalType": "uint256",
                          "name": "rateAtUtilizationMax",
                          "type": "uint256"
                        }
                      ],
                      "internalType": "struct Structs.RateDataV1Params",
                      "name": "rateDataV1",
                      "type": "tuple"
                    },
                    {
                      "components": [
                        {
                          "internalType": "address",
                          "name": "token",
                          "type": "address"
                        },
                        {
                          "internalType": "uint256",
                          "name": "kink1",
                          "type": "uint256"
                        },
                        {
                          "internalType": "uint256",
                          "name": "kink2",
                          "type": "uint256"
                        },
                        {
                          "internalType": "uint256",
                          "name": "rateAtUtilizationZero",
                          "type": "uint256"
                        },
                        {
                          "internalType": "uint256",
                          "name": "rateAtUtilizationKink1",
                          "type": "uint256"
                        },
                        {
                          "internalType": "uint256",
                          "name": "rateAtUtilizationKink2",
                          "type": "uint256"
                        },
                        {
                          "internalType": "uint256",
                          "name": "rateAtUtilizationMax",
                          "type": "uint256"
                        }
                      ],
                      "internalType": "struct Structs.RateDataV2Params",
                      "name": "rateDataV2",
                      "type": "tuple"
                    }
                  ],
                  "internalType": "struct Structs.RateData",
                  "name": "rateData",
                  "type": "tuple"
                }
              ],
              "internalType": "struct Structs.OverallTokenData",
              "name": "liquidityTokenData1",
              "type": "tuple"
            }
          ],
          "internalType": "struct Structs.UserBorrowData[]",
          "name": "userBorrowingsData_",
          "type": "tuple[]"
        }
      ],
      "stateMutability": "view",
      "type": "function"
    },
    {
      "inputs": [
        {
          "internalType": "address",
          "name": "dex_",
          "type": "address"
        },
        {
          "internalType": "address[]",
          "name": "users_",
          "type": "address[]"
        }
      ],
      "name": "getUserBorrowSupplyDatas",
      "outputs": [
        {
          "components": [
            {
              "internalType": "bool",
              "name": "isAllowed",
              "type": "bool"
            },
            {
              "internalType": "uint256",
              "name": "supply",
              "type": "uint256"
            },
            {
              "internalType": "uint256",
              "name": "withdrawalLimit",
              "type": "uint256"
            },
            {
              "internalType": "uint256",
              "name": "lastUpdateTimestamp",
              "type": "uint256"
            },
            {
              "internalType": "uint256",
              "name": "expandPercent",
              "type": "uint256"
            },
            {
              "internalType": "uint256",
              "name": "expandDuration",
              "type": "uint256"
            },
            {
              "internalType": "uint256",
              "name": "baseWithdrawalLimit",
              "type": "uint256"
            },
            {
              "internalType": "uint256",
              "name": "withdrawableUntilLimit",
              "type": "uint256"
            },
            {
              "internalType": "uint256",
              "name": "withdrawable",
              "type": "uint256"
            },
            {
              "components": [
                {
                  "internalType": "bool",
                  "name": "modeWithInterest",
                  "type": "bool"
                },
                {
                  "internalType": "uint256",
                  "name": "supply",
                  "type": "uint256"
                },
                {
                  "internalType": "uint256",
                  "name": "withdrawalLimit",
                  "type": "uint256"
                },
                {
                  "internalType": "uint256",
                  "name": "lastUpdateTimestamp",
                  "type": "uint256"
                },
                {
                  "internalType": "uint256",
                  "name": "expandPercent",
                  "type": "uint256"
                },
                {
                  "internalType": "uint256",
                  "name": "expandDuration",
                  "type": "uint256"
                },
                {
                  "internalType": "uint256",
                  "name": "baseWithdrawalLimit",
                  "type": "uint256"
                },
                {
                  "internalType": "uint256",
                  "name": "withdrawableUntilLimit",
                  "type": "uint256"
                },
                {
                  "internalType": "uint256",
                  "name": "withdrawable",
                  "type": "uint256"
                },
                {
                  "internalType": "uint256",
                  "name": "decayEndTimestamp",
                  "type": "uint256"
                },
                {
                  "internalType": "uint256",
                  "name": "decayAmount",
                  "type": "uint256"
                }
              ],
              "internalType": "struct Structs.UserSupplyData",
              "name": "liquidityUserSupplyDataToken0",
              "type": "tuple"
            },
            {
              "components": [
                {
                  "internalType": "bool",
                  "name": "modeWithInterest",
                  "type": "bool"
                },
                {
                  "internalType": "uint256",
                  "name": "supply",
                  "type": "uint256"
                },
                {
                  "internalType": "uint256",
                  "name": "withdrawalLimit",
                  "type": "uint256"
                },
                {
                  "internalType": "uint256",
                  "name": "lastUpdateTimestamp",
                  "type": "uint256"
                },
                {
                  "internalType": "uint256",
                  "name": "expandPercent",
                  "type": "uint256"
                },
                {
                  "internalType": "uint256",
                  "name": "expandDuration",
                  "type": "uint256"
                },
                {
                  "internalType": "uint256",
                  "name": "baseWithdrawalLimit",
                  "type": "uint256"
                },
                {
                  "internalType": "uint256",
                  "name": "withdrawableUntilLimit",
                  "type": "uint256"
                },
                {
                  "internalType": "uint256",
                  "name": "withdrawable",
                  "type": "uint256"
                },
                {
                  "internalType": "uint256",
                  "name": "decayEndTimestamp",
                  "type": "uint256"
                },
                {
                  "internalType": "uint256",
                  "name": "decayAmount",
                  "type": "uint256"
                }
              ],
              "internalType": "struct Structs.UserSupplyData",
              "name": "liquidityUserSupplyDataToken1",
              "type": "tuple"
            },
            {
              "components": [
                {
                  "internalType": "uint256",
                  "name": "borrowRate",
                  "type": "uint256"
                },
                {
                  "internalType": "uint256",
                  "name": "supplyRate",
                  "type": "uint256"
                },
                {
                  "internalType": "uint256",
                  "name": "fee",
                  "type": "uint256"
                },
                {
                  "internalType": "uint256",
                  "name": "lastStoredUtilization",
                  "type": "uint256"
                },
                {
                  "internalType": "uint256",
                  "name": "storageUpdateThreshold",
                  "type": "uint256"
                },
                {
                  "internalType": "uint256",
                  "name": "lastUpdateTimestamp",
                  "type": "uint256"
                },
                {
                  "internalType": "uint256",
                  "name": "supplyExchangePrice",
                  "type": "uint256"
                },
                {
                  "internalType": "uint256",
                  "name": "borrowExchangePrice",
                  "type": "uint256"
                },
                {
                  "internalType": "uint256",
                  "name": "supplyRawInterest",
                  "type": "uint256"
                },
                {
                  "internalType": "uint256",
                  "name": "supplyInterestFree",
                  "type": "uint256"
                },
                {
                  "internalType": "uint256",
                  "name": "borrowRawInterest",
                  "type": "uint256"
                },
                {
                  "internalType": "uint256",
                  "name": "borrowInterestFree",
                  "type": "uint256"
                },
                {
                  "internalType": "uint256",
                  "name": "totalSupply",
                  "type": "uint256"
                },
                {
                  "internalType": "uint256",
                  "name": "totalBorrow",
                  "type": "uint256"
                },
                {
                  "internalType": "uint256",
                  "name": "revenue",
                  "type": "uint256"
                },
                {
                  "internalType": "uint256",
                  "name": "maxUtilization",
                  "type": "uint256"
                },
                {
                  "components": [
                    {
                      "internalType": "uint256",
                      "name": "version",
                      "type": "uint256"
                    },
                    {
                      "components": [
                        {
                          "internalType": "address",
                          "name": "token",
                          "type": "address"
                        },
                        {
                          "internalType": "uint256",
                          "name": "kink",
                          "type": "uint256"
                        },
                        {
                          "internalType": "uint256",
                          "name": "rateAtUtilizationZero",
                          "type": "uint256"
                        },
                        {
                          "internalType": "uint256",
                          "name": "rateAtUtilizationKink",
                          "type": "uint256"
                        },
                        {
                          "internalType": "uint256",
                          "name": "rateAtUtilizationMax",
                          "type": "uint256"
                        }
                      ],
                      "internalType": "struct Structs.RateDataV1Params",
                      "name": "rateDataV1",
                      "type": "tuple"
                    },
                    {
                      "components": [
                        {
                          "internalType": "address",
                          "name": "token",
                          "type": "address"
                        },
                        {
                          "internalType": "uint256",
                          "name": "kink1",
                          "type": "uint256"
                        },
                        {
                          "internalType": "uint256",
                          "name": "kink2",
                          "type": "uint256"
                        },
                        {
                          "internalType": "uint256",
                          "name": "rateAtUtilizationZero",
                          "type": "uint256"
                        },
                        {
                          "internalType": "uint256",
                          "name": "rateAtUtilizationKink1",
                          "type": "uint256"
                        },
                        {
                          "internalType": "uint256",
                          "name": "rateAtUtilizationKink2",
                          "type": "uint256"
                        },
                        {
                          "internalType": "uint256",
                          "name": "rateAtUtilizationMax",
                          "type": "uint256"
                        }
                      ],
                      "internalType": "struct Structs.RateDataV2Params",
                      "name": "rateDataV2",
                      "type": "tuple"
                    }
                  ],
                  "internalType": "struct Structs.RateData",
                  "name": "rateData",
                  "type": "tuple"
                }
              ],
              "internalType": "struct Structs.OverallTokenData",
              "name": "liquidityTokenData0",
              "type": "tuple"
            },
            {
              "components": [
                {
                  "internalType": "uint256",
                  "name": "borrowRate",
                  "type": "uint256"
                },
                {
                  "internalType": "uint256",
                  "name": "supplyRate",
                  "type": "uint256"
                },
                {
                  "internalType": "uint256",
                  "name": "fee",
                  "type": "uint256"
                },
                {
                  "internalType": "uint256",
                  "name": "lastStoredUtilization",
                  "type": "uint256"
                },
                {
                  "internalType": "uint256",
                  "name": "storageUpdateThreshold",
                  "type": "uint256"
                },
                {
                  "internalType": "uint256",
                  "name": "lastUpdateTimestamp",
                  "type": "uint256"
                },
                {
                  "internalType": "uint256",
                  "name": "supplyExchangePrice",
                  "type": "uint256"
                },
                {
                  "internalType": "uint256",
                  "name": "borrowExchangePrice",
                  "type": "uint256"
                },
                {
                  "internalType": "uint256",
                  "name": "supplyRawInterest",
                  "type": "uint256"
                },
                {
                  "internalType": "uint256",
                  "name": "supplyInterestFree",
                  "type": "uint256"
                },
                {
                  "internalType": "uint256",
                  "name": "borrowRawInterest",
                  "type": "uint256"
                },
                {
                  "internalType": "uint256",
                  "name": "borrowInterestFree",
                  "type": "uint256"
                },
                {
                  "internalType": "uint256",
                  "name": "totalSupply",
                  "type": "uint256"
                },
                {
                  "internalType": "uint256",
                  "name": "totalBorrow",
                  "type": "uint256"
                },
                {
                  "internalType": "uint256",
                  "name": "revenue",
                  "type": "uint256"
                },
                {
                  "internalType": "uint256",
                  "name": "maxUtilization",
                  "type": "uint256"
                },
                {
                  "components": [
                    {
                      "internalType": "uint256",
                      "name": "version",
                      "type": "uint256"
                    },
                    {
                      "components": [
                        {
                          "internalType": "address",
                          "name": "token",
                          "type": "address"
                        },
                        {
                          "internalType": "uint256",
                          "name": "kink",
                          "type": "uint256"
                        },
                        {
                          "internalType": "uint256",
                          "name": "rateAtUtilizationZero",
                          "type": "uint256"
                        },
                        {
                          "internalType": "uint256",
                          "name": "rateAtUtilizationKink",
                          "type": "uint256"
                        },
                        {
                          "internalType": "uint256",
                          "name": "rateAtUtilizationMax",
                          "type": "uint256"
                        }
                      ],
                      "internalType": "struct Structs.RateDataV1Params",
                      "name": "rateDataV1",
                      "type": "tuple"
                    },
                    {
                      "components": [
                        {
                          "internalType": "address",
                          "name": "token",
                          "type": "address"
                        },
                        {
                          "internalType": "uint256",
                          "name": "kink1",
                          "type": "uint256"
                        },
                        {
                          "internalType": "uint256",
                          "name": "kink2",
                          "type": "uint256"
                        },
                        {
                          "internalType": "uint256",
                          "name": "rateAtUtilizationZero",
                          "type": "uint256"
                        },
                        {
                          "internalType": "uint256",
                          "name": "rateAtUtilizationKink1",
                          "type": "uint256"
                        },
                        {
                          "internalType": "uint256",
                          "name": "rateAtUtilizationKink2",
                          "type": "uint256"
                        },
                        {
                          "internalType": "uint256",
                          "name": "rateAtUtilizationMax",
                          "type": "uint256"
                        }
                      ],
                      "internalType": "struct Structs.RateDataV2Params",
                      "name": "rateDataV2",
                      "type": "tuple"
                    }
                  ],
                  "internalType": "struct Structs.RateData",
                  "name": "rateData",
                  "type": "tuple"
                }
              ],
              "internalType": "struct Structs.OverallTokenData",
              "name": "liquidityTokenData1",
              "type": "tuple"
            }
          ],
          "internalType": "struct Structs.UserSupplyData[]",
          "name": "userSuppliesData_",
          "type": "tuple[]"
        },
        {
          "components": [
            {
              "internalType": "bool",
              "name": "isAllowed",
              "type": "bool"
            },
            {
              "internalType": "uint256",
              "name": "borrow",
              "type": "uint256"
            },
            {
              "internalType": "uint256",
              "name": "borrowLimit",
              "type": "uint256"
            },
            {
              "internalType": "uint256",
              "name": "lastUpdateTimestamp",
              "type": "uint256"
            },
            {
              "internalType": "uint256",
              "name": "expandPercent",
              "type": "uint256"
            },
            {
              "internalType": "uint256",
              "name": "expandDuration",
              "type": "uint256"
            },
            {
              "internalType": "uint256",
              "name": "baseBorrowLimit",
              "type": "uint256"
            },
            {
              "internalType": "uint256",
              "name": "maxBorrowLimit",
              "type": "uint256"
            },
            {
              "internalType": "uint256",
              "name": "borrowableUntilLimit",
              "type": "uint256"
            },
            {
              "internalType": "uint256",
              "name": "borrowable",
              "type": "uint256"
            },
            {
              "components": [
                {
                  "internalType": "bool",
                  "name": "modeWithInterest",
                  "type": "bool"
                },
                {
                  "internalType": "uint256",
                  "name": "borrow",
                  "type": "uint256"
                },
                {
                  "internalType": "uint256",
                  "name": "borrowLimit",
                  "type": "uint256"
                },
                {
                  "internalType": "uint256",
                  "name": "lastUpdateTimestamp",
                  "type": "uint256"
                },
                {
                  "internalType": "uint256",
                  "name": "expandPercent",
                  "type": "uint256"
                },
                {
                  "internalType": "uint256",
                  "name": "expandDuration",
                  "type": "uint256"
                },
                {
                  "internalType": "uint256",
                  "name": "baseBorrowLimit",
                  "type": "uint256"
                },
                {
                  "internalType": "uint256",
                  "name": "maxBorrowLimit",
                  "type": "uint256"
                },
                {
                  "internalType": "uint256",
                  "name": "borrowableUntilLimit",
                  "type": "uint256"
                },
                {
                  "internalType": "uint256",
                  "name": "borrowable",
                  "type": "uint256"
                },
                {
                  "internalType": "uint256",
                  "name": "borrowLimitUtilization",
                  "type": "uint256"
                }
              ],
              "internalType": "struct Structs.UserBorrowData",
              "name": "liquidityUserBorrowDataToken0",
              "type": "tuple"
            },
            {
              "components": [
                {
                  "internalType": "bool",
                  "name": "modeWithInterest",
                  "type": "bool"
                },
                {
                  "internalType": "uint256",
                  "name": "borrow",
                  "type": "uint256"
                },
                {
                  "internalType": "uint256",
                  "name": "borrowLimit",
                  "type": "uint256"
                },
                {
                  "internalType": "uint256",
                  "name": "lastUpdateTimestamp",
                  "type": "uint256"
                },
                {
                  "internalType": "uint256",
                  "name": "expandPercent",
                  "type": "uint256"
                },
                {
                  "internalType": "uint256",
                  "name": "expandDuration",
                  "type": "uint256"
                },
                {
                  "internalType": "uint256",
                  "name": "baseBorrowLimit",
                  "type": "uint256"
                },
                {
                  "internalType": "uint256",
                  "name": "maxBorrowLimit",
                  "type": "uint256"
                },
                {
                  "internalType": "uint256",
                  "name": "borrowableUntilLimit",
                  "type": "uint256"
                },
                {
                  "internalType": "uint256",
                  "name": "borrowable",
                  "type": "uint256"
                },
                {
                  "internalType": "uint256",
                  "name": "borrowLimitUtilization",
                  "type": "uint256"
                }
              ],
              "internalType": "struct Structs.UserBorrowData",
              "name": "liquidityUserBorrowDataToken1",
              "type": "tuple"
            },
            {
              "components": [
                {
                  "internalType": "uint256",
                  "name": "borrowRate",
                  "type": "uint256"
                },
                {
                  "internalType": "uint256",
                  "name": "supplyRate",
                  "type": "uint256"
                },
                {
                  "internalType": "uint256",
                  "name": "fee",
                  "type": "uint256"
                },
                {
                  "internalType": "uint256",
                  "name": "lastStoredUtilization",
                  "type": "uint256"
                },
                {
                  "internalType": "uint256",
                  "name": "storageUpdateThreshold",
                  "type": "uint256"
                },
                {
                  "internalType": "uint256",
                  "name": "lastUpdateTimestamp",
                  "type": "uint256"
                },
                {
                  "internalType": "uint256",
                  "name": "supplyExchangePrice",
                  "type": "uint256"
                },
                {
                  "internalType": "uint256",
                  "name": "borrowExchangePrice",
                  "type": "uint256"
                },
                {
                  "internalType": "uint256",
                  "name": "supplyRawInterest",
                  "type": "uint256"
                },
                {
                  "internalType": "uint256",
                  "name": "supplyInterestFree",
                  "type": "uint256"
                },
                {
                  "internalType": "uint256",
                  "name": "borrowRawInterest",
                  "type": "uint256"
                },
                {
                  "internalType": "uint256",
                  "name": "borrowInterestFree",
                  "type": "uint256"
                },
                {
                  "internalType": "uint256",
                  "name": "totalSupply",
                  "type": "uint256"
                },
                {
                  "internalType": "uint256",
                  "name": "totalBorrow",
                  "type": "uint256"
                },
                {
                  "internalType": "uint256",
                  "name": "revenue",
                  "type": "uint256"
                },
                {
                  "internalType": "uint256",
                  "name": "maxUtilization",
                  "type": "uint256"
                },
                {
                  "components": [
                    {
                      "internalType": "uint256",
                      "name": "version",
                      "type": "uint256"
                    },
                    {
                      "components": [
                        {
                          "internalType": "address",
                          "name": "token",
                          "type": "address"
                        },
                        {
                          "internalType": "uint256",
                          "name": "kink",
                          "type": "uint256"
                        },
                        {
                          "internalType": "uint256",
                          "name": "rateAtUtilizationZero",
                          "type": "uint256"
                        },
                        {
                          "internalType": "uint256",
                          "name": "rateAtUtilizationKink",
                          "type": "uint256"
                        },
                        {
                          "internalType": "uint256",
                          "name": "rateAtUtilizationMax",
                          "type": "uint256"
                        }
                      ],
                      "internalType": "struct Structs.RateDataV1Params",
                      "name": "rateDataV1",
                      "type": "tuple"
                    },
                    {
                      "components": [
                        {
                          "internalType": "address",
                          "name": "token",
                          "type": "address"
                        },
                        {
                          "internalType": "uint256",
                          "name": "kink1",
                          "type": "uint256"
                        },
                        {
                          "internalType": "uint256",
                          "name": "kink2",
                          "type": "uint256"
                        },
                        {
                          "internalType": "uint256",
                          "name": "rateAtUtilizationZero",
                          "type": "uint256"
                        },
                        {
                          "internalType": "uint256",
                          "name": "rateAtUtilizationKink1",
                          "type": "uint256"
                        },
                        {
                          "internalType": "uint256",
                          "name": "rateAtUtilizationKink2",
                          "type": "uint256"
                        },
                        {
                          "internalType": "uint256",
                          "name": "rateAtUtilizationMax",
                          "type": "uint256"
                        }
                      ],
                      "internalType": "struct Structs.RateDataV2Params",
                      "name": "rateDataV2",
                      "type": "tuple"
                    }
                  ],
                  "internalType": "struct Structs.RateData",
                  "name": "rateData",
                  "type": "tuple"
                }
              ],
              "internalType": "struct Structs.OverallTokenData",
              "name": "liquidityTokenData0",
              "type": "tuple"
            },
            {
              "components": [
                {
                  "internalType": "uint256",
                  "name": "borrowRate",
                  "type": "uint256"
                },
                {
                  "internalType": "uint256",
                  "name": "supplyRate",
                  "type": "uint256"
                },
                {
                  "internalType": "uint256",
                  "name": "fee",
                  "type": "uint256"
                },
                {
                  "internalType": "uint256",
                  "name": "lastStoredUtilization",
                  "type": "uint256"
                },
                {
                  "internalType": "uint256",
                  "name": "storageUpdateThreshold",
                  "type": "uint256"
                },
                {
                  "internalType": "uint256",
                  "name": "lastUpdateTimestamp",
                  "type": "uint256"
                },
                {
                  "internalType": "uint256",
                  "name": "supplyExchangePrice",
                  "type": "uint256"
                },
                {
                  "internalType": "uint256",
                  "name": "borrowExchangePrice",
                  "type": "uint256"
                },
                {
                  "internalType": "uint256",
                  "name": "supplyRawInterest",
                  "type": "uint256"
                },
                {
                  "internalType": "uint256",
                  "name": "supplyInterestFree",
                  "type": "uint256"
                },
                {
                  "internalType": "uint256",
                  "name": "borrowRawInterest",
                  "type": "uint256"
                },
                {
                  "internalType": "uint256",
                  "name": "borrowInterestFree",
                  "type": "uint256"
                },
                {
                  "internalType": "uint256",
                  "name": "totalSupply",
                  "type": "uint256"
                },
                {
                  "internalType": "uint256",
                  "name": "totalBorrow",
                  "type": "uint256"
                },
                {
                  "internalType": "uint256",
                  "name": "revenue",
                  "type": "uint256"
                },
                {
                  "internalType": "uint256",
                  "name": "maxUtilization",
                  "type": "uint256"
                },
                {
                  "components": [
                    {
                      "internalType": "uint256",
                      "name": "version",
                      "type": "uint256"
                    },
                    {
                      "components": [
                        {
                          "internalType": "address",
                          "name": "token",
                          "type": "address"
                        },
                        {
                          "internalType": "uint256",
                          "name": "kink",
                          "type": "uint256"
                        },
                        {
                          "internalType": "uint256",
                          "name": "rateAtUtilizationZero",
                          "type": "uint256"
                        },
                        {
                          "internalType": "uint256",
                          "name": "rateAtUtilizationKink",
                          "type": "uint256"
                        },
                        {
                          "internalType": "uint256",
                          "name": "rateAtUtilizationMax",
                          "type": "uint256"
                        }
                      ],
                      "internalType": "struct Structs.RateDataV1Params",
                      "name": "rateDataV1",
                      "type": "tuple"
                    },
                    {
                      "components": [
                        {
                          "internalType": "address",
                          "name": "token",
                          "type": "address"
                        },
                        {
                          "internalType": "uint256",
                          "name": "kink1",
                          "type": "uint256"
                        },
                        {
                          "internalType": "uint256",
                          "name": "kink2",
                          "type": "uint256"
                        },
                        {
                          "internalType": "uint256",
                          "name": "rateAtUtilizationZero",
                          "type": "uint256"
                        },
                        {
                          "internalType": "uint256",
                          "name": "rateAtUtilizationKink1",
                          "type": "uint256"
                        },
                        {
                          "internalType": "uint256",
                          "name": "rateAtUtilizationKink2",
                          "type": "uint256"
                        },
                        {
                          "internalType": "uint256",
                          "name": "rateAtUtilizationMax",
                          "type": "uint256"
                        }
                      ],
                      "internalType": "struct Structs.RateDataV2Params",
                      "name": "rateDataV2",
                      "type": "tuple"
                    }
                  ],
                  "internalType": "struct Structs.RateData",
                  "name": "rateData",
                  "type": "tuple"
                }
              ],
              "internalType": "struct Structs.OverallTokenData",
              "name": "liquidityTokenData1",
              "type": "tuple"
            }
          ],
          "internalType": "struct Structs.UserBorrowData[]",
          "name": "userBorrowingsData_",
          "type": "tuple[]"
        }
      ],
      "stateMutability": "view",
      "type": "function"
    },
    {
      "inputs": [
        {
          "internalType": "address",
          "name": "dex_",
          "type": "address"
        },
        {
          "internalType": "address",
          "name": "user_",
          "type": "address"
        }
      ],
      "name": "getUserSupplyData",
      "outputs": [
        {
          "components": [
            {
              "internalType": "bool",
              "name": "isAllowed",
              "type": "bool"
            },
            {
              "internalType": "uint256",
              "name": "supply",
              "type": "uint256"
            },
            {
              "internalType": "uint256",
              "name": "withdrawalLimit",
              "type": "uint256"
            },
            {
              "internalType": "uint256",
              "name": "lastUpdateTimestamp",
              "type": "uint256"
            },
            {
              "internalType": "uint256",
              "name": "expandPercent",
              "type": "uint256"
            },
            {
              "internalType": "uint256",
              "name": "expandDuration",
              "type": "uint256"
            },
            {
              "internalType": "uint256",
              "name": "baseWithdrawalLimit",
              "type": "uint256"
            },
            {
              "internalType": "uint256",
              "name": "withdrawableUntilLimit",
              "type": "uint256"
            },
            {
              "internalType": "uint256",
              "name": "withdrawable",
              "type": "uint256"
            },
            {
              "components": [
                {
                  "internalType": "bool",
                  "name": "modeWithInterest",
                  "type": "bool"
                },
                {
                  "internalType": "uint256",
                  "name": "supply",
                  "type": "uint256"
                },
                {
                  "internalType": "uint256",
                  "name": "withdrawalLimit",
                  "type": "uint256"
                },
                {
                  "internalType": "uint256",
                  "name": "lastUpdateTimestamp",
                  "type": "uint256"
                },
                {
                  "internalType": "uint256",
                  "name": "expandPercent",
                  "type": "uint256"
                },
                {
                  "internalType": "uint256",
                  "name": "expandDuration",
                  "type": "uint256"
                },
                {
                  "internalType": "uint256",
                  "name": "baseWithdrawalLimit",
                  "type": "uint256"
                },
                {
                  "internalType": "uint256",
                  "name": "withdrawableUntilLimit",
                  "type": "uint256"
                },
                {
                  "internalType": "uint256",
                  "name": "withdrawable",
                  "type": "uint256"
                },
                {
                  "internalType": "uint256",
                  "name": "decayEndTimestamp",
                  "type": "uint256"
                },
                {
                  "internalType": "uint256",
                  "name": "decayAmount",
                  "type": "uint256"
                }
              ],
              "internalType": "struct Structs.UserSupplyData",
              "name": "liquidityUserSupplyDataToken0",
              "type": "tuple"
            },
            {
              "components": [
                {
                  "internalType": "bool",
                  "name": "modeWithInterest",
                  "type": "bool"
                },
                {
                  "internalType": "uint256",
                  "name": "supply",
                  "type": "uint256"
                },
                {
                  "internalType": "uint256",
                  "name": "withdrawalLimit",
                  "type": "uint256"
                },
                {
                  "internalType": "uint256",
                  "name": "lastUpdateTimestamp",
                  "type": "uint256"
                },
                {
                  "internalType": "uint256",
                  "name": "expandPercent",
                  "type": "uint256"
                },
                {
                  "internalType": "uint256",
                  "name": "expandDuration",
                  "type": "uint256"
                },
                {
                  "internalType": "uint256",
                  "name": "baseWithdrawalLimit",
                  "type": "uint256"
                },
                {
                  "internalType": "uint256",
                  "name": "withdrawableUntilLimit",
                  "type": "uint256"
                },
                {
                  "internalType": "uint256",
                  "name": "withdrawable",
                  "type": "uint256"
                },
                {
                  "internalType": "uint256",
                  "name": "decayEndTimestamp",
                  "type": "uint256"
                },
                {
                  "internalType": "uint256",
                  "name": "decayAmount",
                  "type": "uint256"
                }
              ],
              "internalType": "struct Structs.UserSupplyData",
              "name": "liquidityUserSupplyDataToken1",
              "type": "tuple"
            },
            {
              "components": [
                {
                  "internalType": "uint256",
                  "name": "borrowRate",
                  "type": "uint256"
                },
                {
                  "internalType": "uint256",
                  "name": "supplyRate",
                  "type": "uint256"
                },
                {
                  "internalType": "uint256",
                  "name": "fee",
                  "type": "uint256"
                },
                {
                  "internalType": "uint256",
                  "name": "lastStoredUtilization",
                  "type": "uint256"
                },
                {
                  "internalType": "uint256",
                  "name": "storageUpdateThreshold",
                  "type": "uint256"
                },
                {
                  "internalType": "uint256",
                  "name": "lastUpdateTimestamp",
                  "type": "uint256"
                },
                {
                  "internalType": "uint256",
                  "name": "supplyExchangePrice",
                  "type": "uint256"
                },
                {
                  "internalType": "uint256",
                  "name": "borrowExchangePrice",
                  "type": "uint256"
                },
                {
                  "internalType": "uint256",
                  "name": "supplyRawInterest",
                  "type": "uint256"
                },
                {
                  "internalType": "uint256",
                  "name": "supplyInterestFree",
                  "type": "uint256"
                },
                {
                  "internalType": "uint256",
                  "name": "borrowRawInterest",
                  "type": "uint256"
                },
                {
                  "internalType": "uint256",
                  "name": "borrowInterestFree",
                  "type": "uint256"
                },
                {
                  "internalType": "uint256",
                  "name": "totalSupply",
                  "type": "uint256"
                },
                {
                  "internalType": "uint256",
                  "name": "totalBorrow",
                  "type": "uint256"
                },
                {
                  "internalType": "uint256",
                  "name": "revenue",
                  "type": "uint256"
                },
                {
                  "internalType": "uint256",
                  "name": "maxUtilization",
                  "type": "uint256"
                },
                {
                  "components": [
                    {
                      "internalType": "uint256",
                      "name": "version",
                      "type": "uint256"
                    },
                    {
                      "components": [
                        {
                          "internalType": "address",
                          "name": "token",
                          "type": "address"
                        },
                        {
                          "internalType": "uint256",
                          "name": "kink",
                          "type": "uint256"
                        },
                        {
                          "internalType": "uint256",
                          "name": "rateAtUtilizationZero",
                          "type": "uint256"
                        },
                        {
                          "internalType": "uint256",
                          "name": "rateAtUtilizationKink",
                          "type": "uint256"
                        },
                        {
                          "internalType": "uint256",
                          "name": "rateAtUtilizationMax",
                          "type": "uint256"
                        }
                      ],
                      "internalType": "struct Structs.RateDataV1Params",
                      "name": "rateDataV1",
                      "type": "tuple"
                    },
                    {
                      "components": [
                        {
                          "internalType": "address",
                          "name": "token",
                          "type": "address"
                        },
                        {
                          "internalType": "uint256",
                          "name": "kink1",
                          "type": "uint256"
                        },
                        {
                          "internalType": "uint256",
                          "name": "kink2",
                          "type": "uint256"
                        },
                        {
                          "internalType": "uint256",
                          "name": "rateAtUtilizationZero",
                          "type": "uint256"
                        },
                        {
                          "internalType": "uint256",
                          "name": "rateAtUtilizationKink1",
                          "type": "uint256"
                        },
                        {
                          "internalType": "uint256",
                          "name": "rateAtUtilizationKink2",
                          "type": "uint256"
                        },
                        {
                          "internalType": "uint256",
                          "name": "rateAtUtilizationMax",
                          "type": "uint256"
                        }
                      ],
                      "internalType": "struct Structs.RateDataV2Params",
                      "name": "rateDataV2",
                      "type": "tuple"
                    }
                  ],
                  "internalType": "struct Structs.RateData",
                  "name": "rateData",
                  "type": "tuple"
                }
              ],
              "internalType": "struct Structs.OverallTokenData",
              "name": "liquidityTokenData0",
              "type": "tuple"
            },
            {
              "components": [
                {
                  "internalType": "uint256",
                  "name": "borrowRate",
                  "type": "uint256"
                },
                {
                  "internalType": "uint256",
                  "name": "supplyRate",
                  "type": "uint256"
                },
                {
                  "internalType": "uint256",
                  "name": "fee",
                  "type": "uint256"
                },
                {
                  "internalType": "uint256",
                  "name": "lastStoredUtilization",
                  "type": "uint256"
                },
                {
                  "internalType": "uint256",
                  "name": "storageUpdateThreshold",
                  "type": "uint256"
                },
                {
                  "internalType": "uint256",
                  "name": "lastUpdateTimestamp",
                  "type": "uint256"
                },
                {
                  "internalType": "uint256",
                  "name": "supplyExchangePrice",
                  "type": "uint256"
                },
                {
                  "internalType": "uint256",
                  "name": "borrowExchangePrice",
                  "type": "uint256"
                },
                {
                  "internalType": "uint256",
                  "name": "supplyRawInterest",
                  "type": "uint256"
                },
                {
                  "internalType": "uint256",
                  "name": "supplyInterestFree",
                  "type": "uint256"
                },
                {
                  "internalType": "uint256",
                  "name": "borrowRawInterest",
                  "type": "uint256"
                },
                {
                  "internalType": "uint256",
                  "name": "borrowInterestFree",
                  "type": "uint256"
                },
                {
                  "internalType": "uint256",
                  "name": "totalSupply",
                  "type": "uint256"
                },
                {
                  "internalType": "uint256",
                  "name": "totalBorrow",
                  "type": "uint256"
                },
                {
                  "internalType": "uint256",
                  "name": "revenue",
                  "type": "uint256"
                },
                {
                  "internalType": "uint256",
                  "name": "maxUtilization",
                  "type": "uint256"
                },
                {
                  "components": [
                    {
                      "internalType": "uint256",
                      "name": "version",
                      "type": "uint256"
                    },
                    {
                      "components": [
                        {
                          "internalType": "address",
                          "name": "token",
                          "type": "address"
                        },
                        {
                          "internalType": "uint256",
                          "name": "kink",
                          "type": "uint256"
                        },
                        {
                          "internalType": "uint256",
                          "name": "rateAtUtilizationZero",
                          "type": "uint256"
                        },
                        {
                          "internalType": "uint256",
                          "name": "rateAtUtilizationKink",
                          "type": "uint256"
                        },
                        {
                          "internalType": "uint256",
                          "name": "rateAtUtilizationMax",
                          "type": "uint256"
                        }
                      ],
                      "internalType": "struct Structs.RateDataV1Params",
                      "name": "rateDataV1",
                      "type": "tuple"
                    },
                    {
                      "components": [
                        {
                          "internalType": "address",
                          "name": "token",
                          "type": "address"
                        },
                        {
                          "internalType": "uint256",
                          "name": "kink1",
                          "type": "uint256"
                        },
                        {
                          "internalType": "uint256",
                          "name": "kink2",
                          "type": "uint256"
                        },
                        {
                          "internalType": "uint256",
                          "name": "rateAtUtilizationZero",
                          "type": "uint256"
                        },
                        {
                          "internalType": "uint256",
                          "name": "rateAtUtilizationKink1",
                          "type": "uint256"
                        },
                        {
                          "internalType": "uint256",
                          "name": "rateAtUtilizationKink2",
                          "type": "uint256"
                        },
                        {
                          "internalType": "uint256",
                          "name": "rateAtUtilizationMax",
                          "type": "uint256"
                        }
                      ],
                      "internalType": "struct Structs.RateDataV2Params",
                      "name": "rateDataV2",
                      "type": "tuple"
                    }
                  ],
                  "internalType": "struct Structs.RateData",
                  "name": "rateData",
                  "type": "tuple"
                }
              ],
              "internalType": "struct Structs.OverallTokenData",
              "name": "liquidityTokenData1",
              "type": "tuple"
            }
          ],
          "internalType": "struct Structs.UserSupplyData",
          "name": "userSupplyData_",
          "type": "tuple"
        }
      ],
      "stateMutability": "view",
      "type": "function"
    },
    {
      "inputs": [
        {
          "internalType": "address",
          "name": "dex_",
          "type": "address"
        },
        {
          "internalType": "address",
          "name": "user_",
          "type": "address"
        }
      ],
      "name": "getUserSupplyDataRaw",
      "outputs": [
        {
          "internalType": "uint256",
          "name": "",
          "type": "uint256"
        }
      ],
      "stateMutability": "view",
      "type": "function"
    },
    {
      "inputs": [
        {
          "internalType": "address",
          "name": "dex_",
          "type": "address"
        },
        {
          "internalType": "address[]",
          "name": "users_",
          "type": "address[]"
        }
      ],
      "name": "getUserSupplyDatas",
      "outputs": [
        {
          "components": [
            {
              "internalType": "bool",
              "name": "isAllowed",
              "type": "bool"
            },
            {
              "internalType": "uint256",
              "name": "supply",
              "type": "uint256"
            },
            {
              "internalType": "uint256",
              "name": "withdrawalLimit",
              "type": "uint256"
            },
            {
              "internalType": "uint256",
              "name": "lastUpdateTimestamp",
              "type": "uint256"
            },
            {
              "internalType": "uint256",
              "name": "expandPercent",
              "type": "uint256"
            },
            {
              "internalType": "uint256",
              "name": "expandDuration",
              "type": "uint256"
            },
            {
              "internalType": "uint256",
              "name": "baseWithdrawalLimit",
              "type": "uint256"
            },
            {
              "internalType": "uint256",
              "name": "withdrawableUntilLimit",
              "type": "uint256"
            },
            {
              "internalType": "uint256",
              "name": "withdrawable",
              "type": "uint256"
            },
            {
              "components": [
                {
                  "internalType": "bool",
                  "name": "modeWithInterest",
                  "type": "bool"
                },
                {
                  "internalType": "uint256",
                  "name": "supply",
                  "type": "uint256"
                },
                {
                  "internalType": "uint256",
                  "name": "withdrawalLimit",
                  "type": "uint256"
                },
                {
                  "internalType": "uint256",
                  "name": "lastUpdateTimestamp",
                  "type": "uint256"
                },
                {
                  "internalType": "uint256",
                  "name": "expandPercent",
                  "type": "uint256"
                },
                {
                  "internalType": "uint256",
                  "name": "expandDuration",
                  "type": "uint256"
                },
                {
                  "internalType": "uint256",
                  "name": "baseWithdrawalLimit",
                  "type": "uint256"
                },
                {
                  "internalType": "uint256",
                  "name": "withdrawableUntilLimit",
                  "type": "uint256"
                },
                {
                  "internalType": "uint256",
                  "name": "withdrawable",
                  "type": "uint256"
                },
                {
                  "internalType": "uint256",
                  "name": "decayEndTimestamp",
                  "type": "uint256"
                },
                {
                  "internalType": "uint256",
                  "name": "decayAmount",
                  "type": "uint256"
                }
              ],
              "internalType": "struct Structs.UserSupplyData",
              "name": "liquidityUserSupplyDataToken0",
              "type": "tuple"
            },
            {
              "components": [
                {
                  "internalType": "bool",
                  "name": "modeWithInterest",
                  "type": "bool"
                },
                {
                  "internalType": "uint256",
                  "name": "supply",
                  "type": "uint256"
                },
                {
                  "internalType": "uint256",
                  "name": "withdrawalLimit",
                  "type": "uint256"
                },
                {
                  "internalType": "uint256",
                  "name": "lastUpdateTimestamp",
                  "type": "uint256"
                },
                {
                  "internalType": "uint256",
                  "name": "expandPercent",
                  "type": "uint256"
                },
                {
                  "internalType": "uint256",
                  "name": "expandDuration",
                  "type": "uint256"
                },
                {
                  "internalType": "uint256",
                  "name": "baseWithdrawalLimit",
                  "type": "uint256"
                },
                {
                  "internalType": "uint256",
                  "name": "withdrawableUntilLimit",
                  "type": "uint256"
                },
                {
                  "internalType": "uint256",
                  "name": "withdrawable",
                  "type": "uint256"
                },
                {
                  "internalType": "uint256",
                  "name": "decayEndTimestamp",
                  "type": "uint256"
                },
                {
                  "internalType": "uint256",
                  "name": "decayAmount",
                  "type": "uint256"
                }
              ],
              "internalType": "struct Structs.UserSupplyData",
              "name": "liquidityUserSupplyDataToken1",
              "type": "tuple"
            },
            {
              "components": [
                {
                  "internalType": "uint256",
                  "name": "borrowRate",
                  "type": "uint256"
                },
                {
                  "internalType": "uint256",
                  "name": "supplyRate",
                  "type": "uint256"
                },
                {
                  "internalType": "uint256",
                  "name": "fee",
                  "type": "uint256"
                },
                {
                  "internalType": "uint256",
                  "name": "lastStoredUtilization",
                  "type": "uint256"
                },
                {
                  "internalType": "uint256",
                  "name": "storageUpdateThreshold",
                  "type": "uint256"
                },
                {
                  "internalType": "uint256",
                  "name": "lastUpdateTimestamp",
                  "type": "uint256"
                },
                {
                  "internalType": "uint256",
                  "name": "supplyExchangePrice",
                  "type": "uint256"
                },
                {
                  "internalType": "uint256",
                  "name": "borrowExchangePrice",
                  "type": "uint256"
                },
                {
                  "internalType": "uint256",
                  "name": "supplyRawInterest",
                  "type": "uint256"
                },
                {
                  "internalType": "uint256",
                  "name": "supplyInterestFree",
                  "type": "uint256"
                },
                {
                  "internalType": "uint256",
                  "name": "borrowRawInterest",
                  "type": "uint256"
                },
                {
                  "internalType": "uint256",
                  "name": "borrowInterestFree",
                  "type": "uint256"
                },
                {
                  "internalType": "uint256",
                  "name": "totalSupply",
                  "type": "uint256"
                },
                {
                  "internalType": "uint256",
                  "name": "totalBorrow",
                  "type": "uint256"
                },
                {
                  "internalType": "uint256",
                  "name": "revenue",
                  "type": "uint256"
                },
                {
                  "internalType": "uint256",
                  "name": "maxUtilization",
                  "type": "uint256"
                },
                {
                  "components": [
                    {
                      "internalType": "uint256",
                      "name": "version",
                      "type": "uint256"
                    },
                    {
                      "components": [
                        {
                          "internalType": "address",
                          "name": "token",
                          "type": "address"
                        },
                        {
                          "internalType": "uint256",
                          "name": "kink",
                          "type": "uint256"
                        },
                        {
                          "internalType": "uint256",
                          "name": "rateAtUtilizationZero",
                          "type": "uint256"
                        },
                        {
                          "internalType": "uint256",
                          "name": "rateAtUtilizationKink",
                          "type": "uint256"
                        },
                        {
                          "internalType": "uint256",
                          "name": "rateAtUtilizationMax",
                          "type": "uint256"
                        }
                      ],
                      "internalType": "struct Structs.RateDataV1Params",
                      "name": "rateDataV1",
                      "type": "tuple"
                    },
                    {
                      "components": [
                        {
                          "internalType": "address",
                          "name": "token",
                          "type": "address"
                        },
                        {
                          "internalType": "uint256",
                          "name": "kink1",
                          "type": "uint256"
                        },
                        {
                          "internalType": "uint256",
                          "name": "kink2",
                          "type": "uint256"
                        },
                        {
                          "internalType": "uint256",
                          "name": "rateAtUtilizationZero",
                          "type": "uint256"
                        },
                        {
                          "internalType": "uint256",
                          "name": "rateAtUtilizationKink1",
                          "type": "uint256"
                        },
                        {
                          "internalType": "uint256",
                          "name": "rateAtUtilizationKink2",
                          "type": "uint256"
                        },
                        {
                          "internalType": "uint256",
                          "name": "rateAtUtilizationMax",
                          "type": "uint256"
                        }
                      ],
                      "internalType": "struct Structs.RateDataV2Params",
                      "name": "rateDataV2",
                      "type": "tuple"
                    }
                  ],
                  "internalType": "struct Structs.RateData",
                  "name": "rateData",
                  "type": "tuple"
                }
              ],
              "internalType": "struct Structs.OverallTokenData",
              "name": "liquidityTokenData0",
              "type": "tuple"
            },
            {
              "components": [
                {
                  "internalType": "uint256",
                  "name": "borrowRate",
                  "type": "uint256"
                },
                {
                  "internalType": "uint256",
                  "name": "supplyRate",
                  "type": "uint256"
                },
                {
                  "internalType": "uint256",
                  "name": "fee",
                  "type": "uint256"
                },
                {
                  "internalType": "uint256",
                  "name": "lastStoredUtilization",
                  "type": "uint256"
                },
                {
                  "internalType": "uint256",
                  "name": "storageUpdateThreshold",
                  "type": "uint256"
                },
                {
                  "internalType": "uint256",
                  "name": "lastUpdateTimestamp",
                  "type": "uint256"
                },
                {
                  "internalType": "uint256",
                  "name": "supplyExchangePrice",
                  "type": "uint256"
                },
                {
                  "internalType": "uint256",
                  "name": "borrowExchangePrice",
                  "type": "uint256"
                },
                {
                  "internalType": "uint256",
                  "name": "supplyRawInterest",
                  "type": "uint256"
                },
                {
                  "internalType": "uint256",
                  "name": "supplyInterestFree",
                  "type": "uint256"
                },
                {
                  "internalType": "uint256",
                  "name": "borrowRawInterest",
                  "type": "uint256"
                },
                {
                  "internalType": "uint256",
                  "name": "borrowInterestFree",
                  "type": "uint256"
                },
                {
                  "internalType": "uint256",
                  "name": "totalSupply",
                  "type": "uint256"
                },
                {
                  "internalType": "uint256",
                  "name": "totalBorrow",
                  "type": "uint256"
                },
                {
                  "internalType": "uint256",
                  "name": "revenue",
                  "type": "uint256"
                },
                {
                  "internalType": "uint256",
                  "name": "maxUtilization",
                  "type": "uint256"
                },
                {
                  "components": [
                    {
                      "internalType": "uint256",
                      "name": "version",
                      "type": "uint256"
                    },
                    {
                      "components": [
                        {
                          "internalType": "address",
                          "name": "token",
                          "type": "address"
                        },
                        {
                          "internalType": "uint256",
                          "name": "kink",
                          "type": "uint256"
                        },
                        {
                          "internalType": "uint256",
                          "name": "rateAtUtilizationZero",
                          "type": "uint256"
                        },
                        {
                          "internalType": "uint256",
                          "name": "rateAtUtilizationKink",
                          "type": "uint256"
                        },
                        {
                          "internalType": "uint256",
                          "name": "rateAtUtilizationMax",
                          "type": "uint256"
                        }
                      ],
                      "internalType": "struct Structs.RateDataV1Params",
                      "name": "rateDataV1",
                      "type": "tuple"
                    },
                    {
                      "components": [
                        {
                          "internalType": "address",
                          "name": "token",
                          "type": "address"
                        },
                        {
                          "internalType": "uint256",
                          "name": "kink1",
                          "type": "uint256"
                        },
                        {
                          "internalType": "uint256",
                          "name": "kink2",
                          "type": "uint256"
                        },
                        {
                          "internalType": "uint256",
                          "name": "rateAtUtilizationZero",
                          "type": "uint256"
                        },
                        {
                          "internalType": "uint256",
                          "name": "rateAtUtilizationKink1",
                          "type": "uint256"
                        },
                        {
                          "internalType": "uint256",
                          "name": "rateAtUtilizationKink2",
                          "type": "uint256"
                        },
                        {
                          "internalType": "uint256",
                          "name": "rateAtUtilizationMax",
                          "type": "uint256"
                        }
                      ],
                      "internalType": "struct Structs.RateDataV2Params",
                      "name": "rateDataV2",
                      "type": "tuple"
                    }
                  ],
                  "internalType": "struct Structs.RateData",
                  "name": "rateData",
                  "type": "tuple"
                }
              ],
              "internalType": "struct Structs.OverallTokenData",
              "name": "liquidityTokenData1",
              "type": "tuple"
            }
          ],
          "internalType": "struct Structs.UserSupplyData[]",
          "name": "userSuppliesData_",
          "type": "tuple[]"
        }
      ],
      "stateMutability": "view",
      "type": "function"
    }
  ],
  "transactionHash": "0xbb682b98f660e92463ddb83d87d85c7e6bf7f82e368299d7f2c2295fe0567552",
  "args": [
    "0x91716C4EDA1Fb55e84Bf8b4c7085f84285c19085",
    "0x52Aa899454998Be5b000Ad077a46Bbe360F4e497",
    "0xca13A15de31235A37134B4717021C35A3CF25C60",
    "0x43acE867287db88bA0c84fF775345577c62a92c5"
  ],
  "numDeployments": 2,
  "solcInputHash": "86e04554f1b897f7e1a149c5c771a6f8",
  "bytecode": "0x6101006040523480156200001257600080fd5b5060405162005da938038062005da9833981016040819052620000359162000075565b6001600160a01b0393841660805291831660a052821660c0521660e052620000d2565b80516001600160a01b03811681146200007057600080fd5b919050565b600080600080608085870312156200008c57600080fd5b620000978562000058565b9350620000a76020860162000058565b9250620000b76040860162000058565b9150620000c76060860162000058565b905092959194509250565b60805160a05160c05160e051615c4962000160600039600081816108be0152818161212f015261217b01526000818161068d01528181611ad701528181611b7801528181612312015281816123b301528181612fb801528181613057015281816130f60152613190015260006104c20152600081816104f601528181610db401526124380152615c496000f3fe6080604052600436106103135760003560e01c80637b05c2001161019a578063cdaf7f22116100e1578063e72ef91b1161008a578063eeb9baeb11610064578063eeb9baeb146109cf578063eee99670146109ef578063f44dfe5014610a0f57600080fd5b8063e72ef91b1461096d578063ebf11ce41461099a578063ee221c08146109af57600080fd5b8063d91a0633116100bb578063d91a0633146108f3578063e1a25ab914610913578063e5c458431461094057600080fd5b8063cdaf7f221461088c578063d1d32444146108ac578063d82ae0fa146108e057600080fd5b8063957755e6116101435780639bb65fc71161011d5780639bb65fc7146108465780639c1b042314610866578063bb39e3a11461087957600080fd5b8063957755e6146107d9578063967915d6146107f957806396cc6dbf1461082657600080fd5b80638ad1fe82116101745780638ad1fe82146107695780638bfe3db21461079757806395430c41146107ac57600080fd5b80637b05c200146106ef5780637f51d07f1461070f57806384502d951461073c57600080fd5b80633a490e6f1161025e5780634f8666a0116102075780636902f79f116101e15780636902f79f1461067b5780636dd5fd85146106af578063741c0b5c146106cf57600080fd5b80634f8666a01461060e578063546b08cd1461062e57806355181f111461064e57600080fd5b8063425711371161023857806342571137146105bb578063472f2d09146105ce5780634dd3a4e0146105ee57600080fd5b80633a490e6f146105455780633cb84b11146105655780633f7256611461059357600080fd5b80631cba0023116102c05780632861c7d11161029a5780632861c7d1146104b05780632dd31000146104e4578063345df8df1461051857600080fd5b80631cba0023146104345780632516d94014610461578063266398ef1461048e57600080fd5b80631272e9ac116102f15780631272e9ac146103bb57806312e366aa146103dc57806318e172d91461041457600080fd5b8063015f6cfa146103185780630208dbb01461034e578063030a68101461037b575b600080fd5b34801561032457600080fd5b5061033861033336600461417b565b610a22565b6040516103459190614198565b60405180910390f35b34801561035a57600080fd5b5061036e61036936600461417b565b610b5d565b6040516103459190614acc565b34801561038757600080fd5b5061039b61039636600461417b565b610c28565b604080516001600160a01b03938416815292909116602083015201610345565b6103ce6103c9366004614adb565b610ca6565b604051908152602001610345565b3480156103e857600080fd5b506103fc6103f7366004614b16565b610dad565b6040516001600160a01b039091168152602001610345565b34801561042057600080fd5b506103ce61042f36600461417b565b610ddf565b34801561044057600080fd5b5061045461044f36600461417b565b610e4c565b6040516103459190614b2f565b34801561046d57600080fd5b5061048161047c36600461417b565b610e6f565b6040516103459190614b3e565b34801561049a57600080fd5b506104a3610ebd565b6040516103459190614b4d565b3480156104bc57600080fd5b506103fc7f000000000000000000000000000000000000000000000000000000000000000081565b3480156104f057600080fd5b506103fc7f000000000000000000000000000000000000000000000000000000000000000081565b34801561052457600080fd5b50610538610533366004614ce1565b610f6a565b6040516103459190614d75565b34801561055157600080fd5b506103ce61056036600461417b565b611021565b34801561057157600080fd5b50610585610580366004614db8565b611050565b6040516103459291906151a6565b6105a66105a1366004614adb565b6111b6565b60408051928352602083019190915201610345565b6103ce6105c93660046151d9565b6112c4565b3480156105da57600080fd5b506103ce6105e936600461521f565b6113bb565b3480156105fa57600080fd5b506103ce61060936600461524b565b61143d565b34801561061a57600080fd5b506103ce61062936600461417b565b611459565b34801561063a57600080fd5b506103ce61064936600461417b565b6114d0565b34801561065a57600080fd5b5061066e61066936600461417b565b611555565b6040516103459190615284565b34801561068757600080fd5b506103fc7f000000000000000000000000000000000000000000000000000000000000000081565b3480156106bb57600080fd5b506103ce6106ca36600461417b565b6115a0565b3480156106db57600080fd5b506103ce6106ea366004614adb565b6115d0565b3480156106fb57600080fd5b506105a661070a366004614adb565b611663565b34801561071b57600080fd5b5061072f61072a36600461417b565b6116f7565b60405161034591906152c7565b34801561074857600080fd5b5061075c610757366004614db8565b611784565b60405161034591906152f2565b34801561077557600080fd5b50610789610784366004615305565b611836565b6040516103459291906153ab565b3480156107a357600080fd5b506105386118b7565b3480156107b857600080fd5b506107cc6107c7366004614db8565b6118c9565b6040516103459190615432565b3480156107e557600080fd5b5061072f6107f436600461417b565b611972565b34801561080557600080fd5b5061081961081436600461524b565b6119af565b6040516103459190615445565b34801561083257600080fd5b506105a6610841366004614adb565b611bfa565b34801561085257600080fd5b506103ce610861366004614adb565b611c5b565b6103ce610874366004614adb565b611cba565b6103ce6108873660046151d9565b611dae565b34801561089857600080fd5b506103ce6108a736600461417b565b611e10565b3480156108b857600080fd5b506103fc7f000000000000000000000000000000000000000000000000000000000000000081565b6103ce6108ee366004614adb565b611e40565b3480156108ff57600080fd5b506103ce61090e36600461417b565b611ea0565b34801561091f57600080fd5b5061093361092e36600461417b565b611ed0565b6040516103459190615454565b34801561094c57600080fd5b5061096061095b36600461417b565b611fd0565b6040516103459190615463565b34801561097957600080fd5b5061098d61098836600461524b565b612205565b6040516103459190615472565b3480156109a657600080fd5b506103ce612434565b3480156109bb57600080fd5b506103ce6109ca36600461524b565b6124b8565b3480156109db57600080fd5b506103ce6109ea36600461417b565b6124d4565b3480156109fb57600080fd5b506103ce610a0a366004614adb565b612514565b6105a6610a1d366004614adb565b612573565b610a716040518061012001604052806000815260200160008152602001600081526020016000815260200160008152602001600081526020016000815260200160008152602001600081525090565b816001600160a01b031663916cef4e6040518163ffffffff1660e01b8152600401600060405180830381600087803b158015610aac57600080fd5b505af1925050508015610abd575060015b610b58573d808015610aeb576040519150601f19603f3d011682016040523d82523d6000602084013e610af0565b606091505b5060208101517fdc4022c5000000000000000000000000000000000000000000000000000000006001600160e01b0319821601610b5557610b3f826004808551610b3a9190615497565b6125d5565b806020019051810190610b5291906154aa565b92505b50505b919050565b610b6561394a565b6001600160a01b0382168152610b7a82611ed0565b6020820152610b88826116f7565b6040820152610b9682611fd0565b6060820152610ba482610a22565b60808201526040810151610bb99083906126ff565b60a08201526040810151610bce90839061297c565b60c0820181905260a0820151610be691849190612c80565b8160e00181905250610c1d82826020015160a00151836020015160c0015184606001516101a0015185606001516101c00151612f89565b610100820152919050565b6000806000836001600160a01b031663b7791bf26040518163ffffffff1660e01b815260040161024060405180830381865afa158015610c6c573d6000803e3d6000fd5b505050506040513d601f19601f82011682018060405250810190610c9091906155ab565b90508060a001518160c001519250925050915091565b6040517fe980e1eb000000000000000000000000000000000000000000000000000000008152600481018490526024810183905260448101829052600160648201526000906001600160a01b0386169063e980e1eb9034906084015b60206040518083038185885af193505050508015610d3d575060408051601f3d908101601f19168201909252610d3a91810190615692565b60015b610da3573d808015610d6b576040519150601f19603f3d011682016040523d82523d6000602084013e610d70565b606091505b50610d9b817fe8d35d06000000000000000000000000000000000000000000000000000000006133b4565b915050610da5565b505b949350505050565b6000610dd97f0000000000000000000000000000000000000000000000000000000000000000836133eb565b92915050565b604051632d71cdb960e21b8152600260048201526000906001600160a01b0383169063b5c736e4906024015b602060405180830381865afa158015610e28573d6000803e3d6000fd5b505050506040513d601f19601f82011682018060405250810190610dd99190615692565b610e54613ba1565b610dd982610e6184611972565b610e6a85611555565b612c80565b610e77613c1f565b600080610e8384610c28565b915091506000610e92856115a0565b90506103ff60e482901c81169060ee83901c16610eb28786868585612f89565b979650505050505050565b60606000610ec9612434565b90508067ffffffffffffffff811115610ee457610ee4614b9a565b604051908082528060200260200182016040528015610f0d578160200160208202803683370190505b50915060005b81811015610f6557610f296103f78260016156ab565b838281518110610f3b57610f3b6156be565b6001600160a01b039092166020928302919091019091015280610f5d816156d4565b915050610f13565b505090565b80516060908067ffffffffffffffff811115610f8857610f88614b9a565b604051908082528060200260200182016040528015610fc157816020015b610fae61394a565b815260200190600190039081610fa65790505b50915060005b81811015610b5557610ff1848281518110610fe457610fe46156be565b6020026020010151610b5d565b838281518110611003576110036156be565b60200260200101819052508080611019906156d4565b915050610fc7565b604051632d71cdb960e21b81526004808201526000906001600160a01b0383169063b5c736e490602401610e0b565b606080828067ffffffffffffffff81111561106d5761106d614b9a565b6040519080825280602002602001820160405280156110a657816020015b611093613e32565b81526020019060019003908161108b5790505b5092508067ffffffffffffffff8111156110c2576110c2614b9a565b6040519080825280602002602001820160405280156110fb57816020015b6110e8613ede565b8152602001906001900390816110e05790505b50915060005b818110156111ac576111348787878481811061111f5761111f6156be565b9050602002016020810190610988919061417b565b848281518110611146576111466156be565b602002602001018190525061117c87878784818110611167576111676156be565b9050602002016020810190610814919061417b565b83828151811061118e5761118e6156be565b602002602001018190525080806111a4906156d4565b915050611101565b5050935093915050565b6040517f4d9036de0000000000000000000000000000000000000000000000000000000081526004810184905260248101839052604481018290526001606482015260009081906001600160a01b03871690634d9036de9034906084015b604080518083038185885af19350505050801561124e575060408051601f3d908101601f1916820190925261124b918101906156ed565b60015b6112b8573d80801561127c576040519150601f19603f3d011682016040523d82523d6000602084013e611281565b606091505b506112ac817f1458577f00000000000000000000000000000000000000000000000000000000613752565b90935091506112bb9050565b50505b94509492505050565b6040517f286f0e610000000000000000000000000000000000000000000000000000000081528315156004820152602481018390526044810182905261dead60648201526000906001600160a01b0386169063286f0e619034906084015b60206040518083038185885af19350505050801561135d575060408051601f3d908101601f1916820190925261135a91810190615692565b60015b610da3573d80801561138b576040519150601f19603f3d011682016040523d82523d6000602084013e611390565b606091505b50610d9b817fb3bfda99000000000000000000000000000000000000000000000000000000006133b4565b6000826001600160a01b031663b5c736e46113d760068561379a565b6040518263ffffffff1660e01b81526004016113f591815260200190565b602060405180830381865afa158015611412573d6000803e3d6000fd5b505050506040513d601f19601f820116820180604052508101906114369190615692565b9392505050565b6000826001600160a01b031663b5c736e46113d76005856137d0565b604051632d71cdb960e21b8152600760048201526000906080906001600160a01b0384169063b5c736e490602401602060405180830381865afa1580156114a4573d6000803e3d6000fd5b505050506040513d601f19601f820116820180604052508101906114c89190615692565b901c92915050565b604051632d71cdb960e21b8152600760048201526000906fffffffffffffffffffffffffffffffff906001600160a01b0384169063b5c736e490602401602060405180830381865afa15801561152a573d6000803e3d6000fd5b505050506040513d601f19601f8201168201806040525081019061154e9190615692565b1692915050565b61158e6040518060c001604052806000815260200160008152602001600081526020016000815260200160008152602001600081525090565b610dd98261159b846116f7565b61297c565b604051632d71cdb960e21b8152600160048201526000906001600160a01b0383169063b5c736e490602401610e0b565b6040517fd331bef700000000000000000000000000000000000000000000000000000000815260048101849052602481018390526044810182905261dead60648201526000906001600160a01b0386169063d331bef7906084015b6020604051808303816000875af1925050508015610d3d575060408051601f3d908101601f19168201909252610d3a91810190615692565b6040517fe27203cd00000000000000000000000000000000000000000000000000000000815260048101849052602481018390526044810182905261dead606482015260009081906001600160a01b0387169063e27203cd906084015b60408051808303816000875af192505050801561124e575060408051601f3d908101601f1916820190925261124b918101906156ed565b6117226040518060800160405280600081526020016000815260200160008152602001600081525090565b816001600160a01b0316631595cbd36040518163ffffffff1660e01b8152600401608060405180830381865afa158015611760573d6000803e3d6000fd5b505050506040513d601f19601f82011682018060405250810190610dd99190615777565b6060818067ffffffffffffffff8111156117a0576117a0614b9a565b6040519080825280602002602001820160405280156117d957816020015b6117c6613e32565b8152602001906001900390816117be5790505b50915060005b8181101561182d576117fd8686868481811061111f5761111f6156be565b83828151811061180f5761180f6156be565b60200260200101819052508080611825906156d4565b9150506117df565b50509392505050565b60606000836001600160a01b031663d811b2ce846040518263ffffffff1660e01b81526004016118669190615793565b600060405180830381865afa158015611883573d6000803e3d6000fd5b505050506040513d6000823e601f3d908101601f191682016040526118ab9190810190615845565b915091505b9250929050565b60606118c4610533610ebd565b905090565b6060818067ffffffffffffffff8111156118e5576118e5614b9a565b60405190808252806020026020018201604052801561191e57816020015b61190b613ede565b8152602001906001900390816119035790505b50915060005b8181101561182d5761194286868684818110611167576111676156be565b838281518110611954576119546156be565b6020026020010181905250808061196a906156d4565b915050611924565b61199d6040518060800160405280600081526020016000815260200160008152602001600081525090565b610dd9826119aa846116f7565b6126ff565b6119b7613ede565b60006119c3848461143d565b90508015611bf3576001808216811483526119f39082901c67ffffffffffffffff16600860ff9082901c91161b90565b60208301819052611a059082906137f4565b60408301526401ffffffff608182901c166060830152613fff60a282901c16608083015262ffffff60b082901c1660a08301526103ff60d082901c1660ff60c883901c161b60c08301526103ff60e282901c1660ff60da83901c161b60e08301526020820151604083015111611a7c576000611a90565b81602001518260400151611a909190615497565b6101008301819052610120830152600080611aaa86610c28565b604051634b3c8aeb60e11b81526001600160a01b03898116600483015280841660248301529294509092507f00000000000000000000000000000000000000000000000000000000000000009091169063967915d69060440161050060405180830381865afa158015611b21573d6000803e3d6000fd5b505050506040513d601f19601f82011682018060405250810190611b459190615b87565b610180860152610140850152604051634b3c8aeb60e11b81526001600160a01b03878116600483015282811660248301527f0000000000000000000000000000000000000000000000000000000000000000169063967915d69060440161050060405180830381865afa158015611bc0573d6000803e3d6000fd5b505050506040513d601f19601f82011682018060405250810190611be49190615b87565b6101a086015261016085015250505b5092915050565b6040517f35f0df9800000000000000000000000000000000000000000000000000000000815260048101849052602481018390526044810182905261dead606482015260009081906001600160a01b038716906335f0df98906084016116c0565b6040517f4c89bfd400000000000000000000000000000000000000000000000000000000815260048101849052602481018390526044810182905261dead60648201526000906001600160a01b03861690634c89bfd49060840161162b565b6040517f30acd6fd000000000000000000000000000000000000000000000000000000008152600481018490526024810183905260448101829052600160648201526000906001600160a01b038616906330acd6fd90349060840160206040518083038185885af193505050508015611d50575060408051601f3d908101601f19168201909252611d4d91810190615692565b60015b610da3573d808015611d7e576040519150601f19603f3d011682016040523d82523d6000602084013e611d83565b606091505b50610d9b817f73999506000000000000000000000000000000000000000000000000000000006133b4565b6040517f2668dfaa0000000000000000000000000000000000000000000000000000000081528315156004820152602481018390526044810182905261dead60648201526000906001600160a01b03861690632668dfaa903490608401611322565b604051632d71cdb960e21b8152600060048201819052906001600160a01b0383169063b5c736e490602401610e0b565b6040517f68766981000000000000000000000000000000000000000000000000000000008152600481018490526024810183905260448101829052600160648201526000906001600160a01b038616906368766981903490608401610d02565b604051632d71cdb960e21b8152600860048201526000906001600160a01b0383169063b5c736e490602401610e0b565b611f6d604080516101c08101825260008082526020808301829052828401829052835160a08101855282815290810182905292830181905260608381018290526080840191909152909190820190815260006020820181905260408201819052606082018190526080820181905260a0820181905260c0820181905260e08201819052610100820181905261012082018190526101409091015290565b816001600160a01b031663b7791bf26040518163ffffffff1660e01b815260040161024060405180830381865afa158015611fac573d6000803e3d6000fd5b505050506040513d601f19601f82011682018060405250810190610dd991906155ab565b61206d6040518061022001604052806000151581526020016000151581526020016000815260200160008152602001600081526020016000815260200160008152602001600081526020016000815260200160006001600160a01b0316815260200160006001600160a01b031681526020016000815260200160008152602001600081526020016000815260200160008152602001600081525090565b6000612078836115a0565b60018181161483526002808216811460208501526201ffff9082901c166040840152607f601382901c166060840152620fffff601b82901c8116608080860191909152602f83901c90911660a08501526103ff604483901c811660c0860152604e83901c1660e085015262ffffff605883901c166101008501529091506120fe84610ddf565b901c6101e0830152608061211184611021565b901c610200830152607081901c633fffffff168015612164576121547f0000000000000000000000000000000000000000000000000000000000000000826133eb565b6001600160a01b03166101208401525b50608e81901c633fffffff1680156121b0576121a07f0000000000000000000000000000000000000000000000000000000000000000826133eb565b6001600160a01b03166101408401525b620fffff60b483901c1660ff60ac84901c161b610160840152620fffff60d083901c1660ff60c884901c161b610180840152506103ff60e482901c81166101a084015260ee9190911c166101c0820152919050565b61220d613e32565b600061221984846124b8565b90508015611bf3576001808216811483526122499082901c67ffffffffffffffff16600860ff9082901c91161b90565b6020830181905261225b9082906138ba565b60408301819052608182901c6401ffffffff16606084015260a282901c613fff16608084015260b082901c62ffffff1660a084015260d082901c6103ff1660c883901c60ff161b60c08401526020830151116122b85760006122cc565b816040015182602001516122cc9190615497565b60e083018190526101008301526000806122e586610c28565b60405163e72ef91b60e01b81526001600160a01b03898116600483015280841660248301529294509092507f00000000000000000000000000000000000000000000000000000000000000009091169063e72ef91b9060440161050060405180830381865afa15801561235c573d6000803e3d6000fd5b505050506040513d601f19601f820116820180604052508101906123809190615b87565b61016086015261012085015260405163e72ef91b60e01b81526001600160a01b03878116600483015282811660248301527f0000000000000000000000000000000000000000000000000000000000000000169063e72ef91b9060440161050060405180830381865afa1580156123fb573d6000803e3d6000fd5b505050506040513d601f19601f8201168201806040525081019061241f9190615b87565b61018086015261014085015250505092915050565b60007f00000000000000000000000000000000000000000000000000000000000000006001600160a01b03166393656c176040518163ffffffff1660e01b8152600401602060405180830381865afa158015612494573d6000803e3d6000fd5b505050506040513d601f19601f820116820180604052508101906118c49190615692565b6000826001600160a01b031663b5c736e46113d76003856137d0565b6000816001600160a01b031663f4b9a3fb6040518163ffffffff1660e01b8152600401602060405180830381865afa158015610e28573d6000803e3d6000fd5b6040517f242011d500000000000000000000000000000000000000000000000000000000815260048101849052602481018390526044810182905261dead60648201526000906001600160a01b0386169063242011d59060840161162b565b6040517f5b3d38d70000000000000000000000000000000000000000000000000000000081526004810184905260248101839052604481018290526001606482015260009081906001600160a01b03871690635b3d38d7903490608401611214565b6060816125e381601f6156ab565b10156126365760405162461bcd60e51b815260206004820152600e60248201527f736c6963655f6f766572666c6f7700000000000000000000000000000000000060448201526064015b60405180910390fd5b61264082846156ab565b845110156126905760405162461bcd60e51b815260206004820152601160248201527f736c6963655f6f75744f66426f756e6473000000000000000000000000000000604482015260640161262d565b811580156126ad57604051915060008252602082016040526126f7565b6040519150601f8316801560200281840101848101868315602002848a0101015b818310156126e65780518352602092830192016126ce565b5050848452601f01601f1916604052505b509392505050565b61272a6040518060800160405280600081526020016000815260200160008152602001600081525090565b6000612735846115a0565b90508060011660011461276f5760405180608001604052806000815260200160008152602001600081526020016000815250915050610dd9565b60405162afb67d60e11b81526001600160a01b0385166004820152309063015f6cfa90602401610120604051808303816000875af19250505080156127d1575060408051601f3d908101601f191682019092526127ce918101906154aa565b60015b61280157604051806080016040528060008152602001600081526020016000815260200160008152509150611bf3565b6080810151604080830151606084015160a085015160e086015193517f6560abaa000000000000000000000000000000000000000000000000000000008152600481019590955260248501929092526044840152606483015260848201526001600160a01b03861690636560abaa9060a401608060405180830381865afa9250505080156128ac575060408051601f3d908101601f191682019092526128a991810190615777565b60015b6128dc57604051806080016040528060008152602001600081526020016000815260200160008152509250612974565b8451602086015182516128ef9190615bbe565b6128f99190615bd5565b84528451602086015160408301516129119190615bbe565b61291b9190615bd5565b6040808601919091528501516060860151602083015161293b9190615bbe565b6129459190615bd5565b60208501526040850151606080870151908301516129639190615bbe565b61296d9190615bd5565b6060850152505b505092915050565b6129b56040518060c001604052806000815260200160008152602001600081526020016000815260200160008152602001600081525090565b60006129c0846115a0565b905080600216600214612a08576040518060c0016040528060008152602001600081526020016000815260200160008152602001600081526020016000815250915050610dd9565b60405162afb67d60e11b81526001600160a01b0385166004820152309063015f6cfa90602401610120604051808303816000875af1925050508015612a6a575060408051601f3d908101601f19168201909252612a67918101906154aa565b60015b612aa8576040518060c00160405280600081526020016000815260200160008152602001600081526020016000815260200160008152509150611bf3565b6080810151604080830151606084015160c085015161010086015193517f05d455a9000000000000000000000000000000000000000000000000000000008152600481019590955260248501929092526044840152606483015260848201526001600160a01b038616906305d455a99060a40160c060405180830381865afa925050508015612b54575060408051601f3d908101601f19168201909252612b5191810190615bf7565b60015b612b92576040518060c00160405280600081526020016000815260200160008152602001600081526020016000815260200160008152509250612974565b845160208601518251612ba59190615bbe565b612baf9190615bd5565b8452845160208601516040830151612bc79190615bbe565b612bd19190615bd5565b6040850152845160208601516080830151612bec9190615bbe565b612bf69190615bd5565b6080850152604085015160608601516020830151612c149190615bbe565b612c1e9190615bd5565b6020850152604085015160608087015190830151612c3c9190615bbe565b612c469190615bd5565b846060018181525050846040015185606001518260a00151612c689190615bbe565b612c729190615bd5565b60a085015250505092915050565b612c88613ba1565b6000612c9385611e10565b63ffffffff600982901c811660ff600184901c81169190911b8552603183901c8216602984901c82161b6020860152605983901c909116605183901c9091161b6040840152607981901c6401ffffffff166060840152609a81901c623fffff16608084015260b081901c60071660a084015260b381901c61ffff1660c084015290506fffffffffffffffffffffffffffffffff612d2f86610ddf565b1660e08301526fffffffffffffffffffffffffffffffff612d4f86611021565b16610100830152612d5f856115a0565b600160ff82901c811461012085015261014084018051601a84901c8316831490528051604384901c831683146020909101525160f883901c82169091146040909101529050612dad856114d0565b61014083018051606090810151620fffff8085169091528251820151601485901c82166020909101528251820151602885901c909116604091909101529051810151603c83901c6401ffffffff169101529050612e0985611459565b610140830180516080908101516103ff8085169091528251820151601485901c9091166020909101528151810151602884901c620fffff166040909101528151810151603c84901c6401ffffffff16606091909101529051810151605d83901c62ffffff169101529050612e7c85611ea0565b6101408301805160a0908101516401ffffffff84166040909101528151810151620fffff602185901c811690915291510151603583901c90911660209091015260e083015190915015612f1f5760e08201518451612ee290670de0b6b3a7640000615bbe565b612eec9190615bd5565b61016083015260e08201516020850151612f0e90670de0b6b3a7640000615bbe565b612f189190615bd5565b6101808301525b610100820151156126f7576101008201518351612f4490670de0b6b3a7640000615bbe565b612f4e9190615bd5565b6101a08301526101008201516020840151612f7190670de0b6b3a7640000615bbe565b612f7b9190615bd5565b6101c0830152509392505050565b612f91613c1f565b60405163e72ef91b60e01b81526001600160a01b03878116600483015286811660248301527f0000000000000000000000000000000000000000000000000000000000000000169063e72ef91b9060440161050060405180830381865afa158015613000573d6000803e3d6000fd5b505050506040513d601f19601f820116820180604052508101906130249190615b87565b6102408301526101c082015260405163e72ef91b60e01b81526001600160a01b03878116600483015285811660248301527f0000000000000000000000000000000000000000000000000000000000000000169063e72ef91b9060440161050060405180830381865afa15801561309f573d6000803e3d6000fd5b505050506040513d601f19601f820116820180604052508101906130c39190615b87565b6102608301526101e0820152604051634b3c8aeb60e11b81526001600160a01b03878116600483015286811660248301527f0000000000000000000000000000000000000000000000000000000000000000169063967915d69060440161050060405180830381865afa15801561313e573d6000803e3d6000fd5b505050506040513d601f19601f820116820180604052508101906131629190615b87565b50610200820152604051634b3c8aeb60e11b81526001600160a01b03878116600483015285811660248301527f0000000000000000000000000000000000000000000000000000000000000000169063967915d69060440161050060405180830381865afa1580156131d8573d6000803e3d6000fd5b505050506040513d601f19601f820116820180604052508101906131fc9190615b87565b506102208201819052610240820151610180808201518085526102608501519182015160208601526101a092830151604086015291015160608401526101c08301516101009081015160808501526101e0840151015160a08401526102008301516101209081015160c08501529091015160e08301526103e890613281908590615bbe565b61328b9190615bd5565b61010082015260208101516103e8906132a5908490615bbe565b6132af9190615bd5565b6101208201526101008101516040820151101561332d578281604001516103e86132d99190615bbe565b6132e39190615bd5565b61014082018190528151116132f957600061330b565b610140810151815161330b9190615497565b61014082015260408101516101008201516133269190615497565b6101808201525b806101200151816060015110156133ab578181606001516103e86133519190615bbe565b61335b9190615bd5565b6101608201819052602082015111613374576000613389565b80610160015181602001516133899190615497565b61016082015260608101516101208201516133a49190615497565b6101a08201525b95945050505050565b60006024835110156133c857506000610dd9565b60208301516001600160e01b031980841690821603611bf3575050506024015190565b6000606082600003613401576000915050610dd9565b607f831161349b576040517fd6000000000000000000000000000000000000000000000000000000000000006020820152602560fa1b60218201526bffffffffffffffffffffffff19606086901b16602282015260f884901b7fff000000000000000000000000000000000000000000000000000000000000001660368201526037015b6040516020818303038152906040529050613743565b60ff8311613549576040517fd7000000000000000000000000000000000000000000000000000000000000006020820152602560fa1b60218201526bffffffffffffffffffffffff19606086901b1660228201527f8100000000000000000000000000000000000000000000000000000000000000603682015260f884901b7fff00000000000000000000000000000000000000000000000000000000000000166037820152603801613485565b61ffff83116135f8576040517fd8000000000000000000000000000000000000000000000000000000000000006020820152602560fa1b60218201526bffffffffffffffffffffffff19606086901b1660228201527f820000000000000000000000000000000000000000000000000000000000000060368201527fffff00000000000000000000000000000000000000000000000000000000000060f085901b166037820152603901613485565b62ffffff83116136a8576040517fd9000000000000000000000000000000000000000000000000000000000000006020820152602560fa1b60218201526bffffffffffffffffffffffff19606086901b1660228201527f830000000000000000000000000000000000000000000000000000000000000060368201527fffffff000000000000000000000000000000000000000000000000000000000060e885901b166037820152603a01613485565b6040517fda000000000000000000000000000000000000000000000000000000000000006020820152602560fa1b60218201526bffffffffffffffffffffffff19606086901b1660228201527f840000000000000000000000000000000000000000000000000000000000000060368201526001600160e01b031960e085901b166037820152603b0160405160208183030381529060405290505b80516020909101209392505050565b60008060448451101561376a575060009050806118b0565b60208401516001600160e01b0319808516908216036137925760248501519250604485015191505b509250929050565b60408051602081018390529081018390526000906060015b60405160208183030381529060405280519060200120905092915050565b604080516001600160a01b03831660208201529081018390526000906060016137b2565b6000608183901c6401ffffffff164203612710613fff60a286901c16840204808401604986901c66ffffffffffffff16604187901c60ff161b60b087901c62ffffff166138418585615bbe565b61384b9190615bd5565b61385591906156ab565b935080841115613863578093505b6103ff60d087901c1660ff60c888901c161b92508284101561388a57829350505050610dd9565b6103ff60e287901c1660ff60da88901c161b9250828411156138b157829350505050610dd9565b50505092915050565b600066ffffffffffffff604984901c1660ff604185901c161b8082036138e4576000915050610dd9565b612710613fff60a286901c168402046401ffffffff608186901c16420362ffffff60b087901c166139158284615bbe565b61391f9190615bd5565b905080831161392f576000613933565b8083035b935050808403838111156138b15795945050505050565b604080516101208082018352600080835283516101c0810185528181526020818101839052818601839052855160a080820188528482528183018590529681018490526060808201859052608080830186905290840191909152820183905294810182905260c0810182905260e0810182905261010081018290529182018190526101408201819052610160820181905261018082018190526101a082015290918201908152602001613a1e6040518060800160405280600081526020016000815260200160008152602001600081525090565b8152602001613ac06040518061022001604052806000151581526020016000151581526020016000815260200160008152602001600081526020016000815260200160008152602001600081526020016000815260200160006001600160a01b0316815260200160006001600160a01b031681526020016000815260200160008152602001600081526020016000815260200160008152602001600081525090565b8152602001613b146040518061012001604052806000815260200160008152602001600081526020016000815260200160008152602001600081526020016000815260200160008152602001600081525090565b8152602001613b446040518060800160405280600081526020016000815260200160008152602001600081525090565b8152602001613b826040518060c001604052806000815260200160008152602001600081526020016000815260200160008152602001600081525090565b8152602001613b8f613ba1565b8152602001613b9c613c1f565b905290565b604051806101e00160405280600081526020016000815260200160008152602001600081526020016000815260200160008152602001600081526020016000815260200160008152602001600015158152602001613bfd613f91565b8152602001600081526020016000815260200160008152602001600081525090565b6040518061028001604052806000815260200160008152602001600081526020016000815260200160008152602001600081526020016000815260200160008152602001600081526020016000815260200160008152602001600081526020016000815260200160008152602001613cec604051806101600160405280600015158152602001600081526020016000815260200160008152602001600081526020016000815260200160008152602001600081526020016000815260200160008152602001600081525090565b8152602001613d50604051806101600160405280600015158152602001600081526020016000815260200160008152602001600081526020016000815260200160008152602001600081526020016000815260200160008152602001600081525090565b8152602001613db4604051806101600160405280600015158152602001600081526020016000815260200160008152602001600081526020016000815260200160008152602001600081526020016000815260200160008152602001600081525090565b8152602001613e18604051806101600160405280600015158152602001600081526020016000815260200160008152602001600081526020016000815260200160008152602001600081526020016000815260200160008152602001600081525090565b8152602001613e25614049565b8152602001613b9c614049565b604051806101a001604052806000151581526020016000815260200160008152602001600081526020016000815260200160008152602001600081526020016000815260200160008152602001613db4604051806101600160405280600015158152602001600081526020016000815260200160008152602001600081526020016000815260200160008152602001600081526020016000815260200160008152602001600081525090565b604051806101c00160405280600015158152602001600081526020016000815260200160008152602001600081526020016000815260200160008152602001600081526020016000815260200160008152602001613db4604051806101600160405280600015158152602001600081526020016000815260200160008152602001600081526020016000815260200160008152602001600081526020016000815260200160008152602001600081525090565b6040518060c00160405280600015158152602001600015158152602001600015158152602001613fe96040518060a0016040528060008152602001600081526020016000815260200160008152602001600081525090565b81526020016140206040518060a0016040528060008152602001600081526020016000815260200160008152602001600081525090565b8152602001613b9c60405180606001604052806000815260200160008152602001600081525090565b60405180610220016040528060008152602001600081526020016000815260200160008152602001600081526020016000815260200160008152602001600081526020016000815260200160008152602001600081526020016000815260200160008152602001600081526020016000815260200160008152602001613b9c6040518060600160405280600081526020016141156040518060a0016040528060006001600160a01b03168152602001600081526020016000815260200160008152602001600081525090565b8152602001613b9c6040518060e0016040528060006001600160a01b031681526020016000815260200160008152602001600081526020016000815260200160008152602001600081525090565b6001600160a01b038116811461417857600080fd5b50565b60006020828403121561418d57600080fd5b813561143681614163565b6101208101610dd98284805182526020810151602083015260408101516040830152606081015160608301526080810151608083015260a081015160a083015260c081015160c083015260e081015160e08301526101008082015181840152505050565b80518252602081015161421a60208401826001600160a01b03169052565b50604081015161423560408401826001600160a01b03169052565b50606081015161428660608401826001600160a01b03808251168352806020830151166020840152806040830151166040840152806060830151166060840152806080830151166080840152505050565b5060808101516101006142a3818501836001600160a01b03169052565b60a083015191506101206142c1818601846001600160a01b03169052565b60c084015192506101406142df818701856001600160a01b03169052565b60e0850151610160878101919091529285015161018080880191909152918501516101a080880191909152908501516101c0870152918401516101e0860152830151610200850152909101516102209092019190915250565b8051151582526020810151614351602084018215159052565b5060408101516040830152606081015160608301526080810151608083015260a081015160a083015260c081015160c083015260e081015160e0830152610100808201518184015250610120808201516143b5828501826001600160a01b03169052565b5050610140818101516001600160a01b031690830152610160808201519083015261018080820151908301526101a080820151908301526101c080820151908301526101e0808201519083015261020090810151910152565b8051151582526020810151151560208301526040810151151560408301526060810151614469606084018280518252602081015160208301526040810151604083015260608101516060830152608081015160808301525050565b506080818101518051610100850152602081015161012085015260408101516101408501526060810151610160850152908101516101808401525060a0015180516101a083015260208101516101c0830152604001516101e090910152565b805182526020810151602083015260408101516040830152606081015160608301526080810151608083015260a081015160a083015260c081015160c083015260e081015160e0830152610100808201518184015250610120808201516145328285018215159052565b5050610140808201516145478285018261440e565b50506101608101516103408301526101808101516103608301526101a08101516103808301526101c001516103a090910152565b805182526020808201518184015260408083015181850152606080840151818601526080808501518187015260a0808601518188015260c0808701518189015260e08088015190890152610100808801519089015261012080880151908901526101408088015190890152610160808801519089015261018080880151908901526101a080880151908901526101c080880151908901526101e08088015190890152610200968701518051978901979097528686015180516001600160a01b039081166102208b0152818801516102408b0152818701516102608b0152818601516102808b0152908401516102a08a01529685015180519097166102c0890152948601516102e08801529285015161030087015290840151610320860152830151610340850152820151610360840152015161038090910152565b805182526020808201518184015260408083015181850152606080840151818601526080808501518187015260a0808601518188015260c0808701518189015260e080880151818a015261010080890151818b0152610120808a0151818c0152610140808b0151818d0152610160808c0151908d0152610180808c0151908d01526101a0808c0151908d01526101c0808c015180511515828f01529a8b01516101e08e0152988a01516102008d0152968901516102208c0152948801516102408b0152928701516102608a0152908601516102808901528501516102a08801528401516102c08701528301516102e08601528201516103008501529050506101e08101518051151561032084015260208101516103408401526040810151610360840152606081015161038084015260808101516103a084015260a08101516103c084015260c08101516103e084015260e0810151610400840152610100810151610420840152610120810151610440840152610140810151610460840152506102008101518051151561048084015260208101516104a084015260408101516104c084015260608101516104e0840152608081015161050084015260a081015161052084015260c081015161054084015260e08101516105608401526101008101516105808401526101208101516105a08401526101408101516105c084015250610220810151805115156105e0840152602081015161060084015260408101516106208401526060810151610640840152608081015161066084015260a081015161068084015260c08101516106a084015260e08101516106c08401526101008101516106e08401526101208101516107008401526101408101516107208401525061024081015161494e61074084018261457b565b50610260810151614963610ae084018261457b565b505050565b80516001600160a01b03168252602081015161498760208401826141fc565b5060408181015180516102608501526020810151610280850152908101516102a08401526060908101516102c08401528101516149c86102e0840182614338565b5060808181015180516105008501526020810151610520850152604081015161054085015260608101516105608501529081015161058084015260a08101516105a084015260c08101516105c084015260e08101516105e08401526101008101516106008401525060a081015180516106208401526020810151610640840152604081015161066084015260608101516106808401525060c081015180516106a084015260208101516106c084015260408101516106e08401526060810151610700840152608081015161072084015260a08101516107408401525060e0810151614ab76107608401826144c8565b50610100810151614963610b208401826146b6565b6119a08101610dd98284614968565b60008060008060808587031215614af157600080fd5b8435614afc81614163565b966020860135965060408601359560600135945092505050565b600060208284031215614b2857600080fd5b5035919050565b6103c08101610dd982846144c8565b610e808101610dd982846146b6565b6020808252825182820181905260009190848201906040850190845b81811015614b8e5783516001600160a01b031683529284019291840191600101614b69565b50909695505050505050565b634e487b7160e01b600052604160045260246000fd5b604051610120810167ffffffffffffffff81118282101715614bd457614bd4614b9a565b60405290565b60405160a0810167ffffffffffffffff81118282101715614bd457614bd4614b9a565b6040516101c0810167ffffffffffffffff81118282101715614bd457614bd4614b9a565b604051610160810167ffffffffffffffff81118282101715614bd457614bd4614b9a565b6040516060810167ffffffffffffffff81118282101715614bd457614bd4614b9a565b604051610220810167ffffffffffffffff81118282101715614bd457614bd4614b9a565b604051601f8201601f1916810167ffffffffffffffff81118282101715614cb557614cb5614b9a565b604052919050565b600067ffffffffffffffff821115614cd757614cd7614b9a565b5060051b60200190565b60006020808385031215614cf457600080fd5b823567ffffffffffffffff811115614d0b57600080fd5b8301601f81018513614d1c57600080fd5b8035614d2f614d2a82614cbd565b614c8c565b81815260059190911b82018301908381019087831115614d4e57600080fd5b928401925b82841015610eb2578335614d6681614163565b82529284019290840190614d53565b6020808252825182820181905260009190848201906040850190845b81811015614b8e57614da4838551614968565b928401926119a09290920191600101614d91565b600080600060408486031215614dcd57600080fd5b8335614dd881614163565b9250602084013567ffffffffffffffff80821115614df557600080fd5b818601915086601f830112614e0957600080fd5b813581811115614e1857600080fd5b8760208260051b8501011115614e2d57600080fd5b6020830194508093505050509250925092565b8051151582526020808201518184015260408083015181850152606080840151818601526080808501518187015260a0808601518188015260c0808701518189015260e080880151818a015261010080890151818b0152610120808a015180511515828d0152808a0151610140808e0191909152818a0151610160808f0191909152828a01516101808f0152828901516101a08f0152828801516101c08f0152828701516101e08f0152828601516102008f0152828501516102208f0152828401516102408f0152918101516102608e0152808c0151805115156102808f01529a8b01516102a08e0152988a01516102c08d0152968901516102e08c0152948801516103008b0152928701516103208a0152908601516103408901528501516103608801528401516103808701528301516103a08601529101516103c0840152810151614f916103e084018261457b565b5061018081015161496361078084018261457b565b600081518084526020808501945080840160005b83811015614fe157614fcd878351614e40565b610b20969096019590820190600101614fba565b509495945050505050565b8051151582526020808201518184015260408083015181850152606080840151818601526080808501518187015260a0808601518188015260c0808701518189015260e080880151818a015261010080890151818b0152610120808a0151818c0152610140808b015180511515828e0152998a01516101608d0152978901516101808c0152958801516101a08b0152938701516101c08a0152918601516101e089015285015161020088015284015161022087015283015161024086015282015161026085015281810151610280850152905050610160810151805115156102a084015260208101516102c084015260408101516102e08401526060810151610300840152608081015161032084015260a081015161034084015260c081015161036084015260e08101516103808401526101008101516103a08401526101208101516103c08401526101408101516103e08401525061018081015161515661040084018261457b565b506101a08101516149636107a084018261457b565b600081518084526020808501945080840160005b83811015614fe157615192878351614fec565b610b4096909601959082019060010161517f565b6040815260006151b96040830185614fa6565b82810360208401526133ab818561516b565b801515811461417857600080fd5b600080600080608085870312156151ef57600080fd5b84356151fa81614163565b9350602085013561520a816151cb565b93969395505050506040820135916060013590565b6000806040838503121561523257600080fd5b823561523d81614163565b946020939093013593505050565b6000806040838503121561525e57600080fd5b823561526981614163565b9150602083013561527981614163565b809150509250929050565b60c08101610dd98284805182526020810151602083015260408101516040830152606081015160608301526080810151608083015260a081015160a08301525050565b8151815260208083015190820152604080830151908201526060808301519082015260808101610dd9565b6020815260006114366020830184614fa6565b6000806040838503121561531857600080fd5b823561532381614163565b915060208381013567ffffffffffffffff81111561534057600080fd5b8401601f8101861361535157600080fd5b803561535f614d2a82614cbd565b81815260059190911b8201830190838101908883111561537e57600080fd5b928401925b8284101561539c57833582529284019290840190615383565b80955050505050509250929050565b604080825283519082018190526000906020906060840190828701845b8281101561542357615410848351805182526020810151602083015260408101516040830152606081015160608301526080810151608083015260a081015160a08301525050565b60c09390930192908401906001016153c8565b50505092019290925292915050565b602081526000611436602083018461516b565b610b408101610dd98284614fec565b6102408101610dd982846141fc565b6102208101610dd98284614338565b610b208101610dd98284614e40565b634e487b7160e01b600052601160045260246000fd5b81810381811115610dd957610dd9615481565b600061012082840312156154bd57600080fd5b6154c5614bb0565b825181526020830151602082015260408301516040820152606083015160608201526080830151608082015260a083015160a082015260c083015160c082015260e083015160e08201526101008084015181830152508091505092915050565b8051610b5881614163565b600060a0828403121561554257600080fd5b61554a614bda565b9050815161555781614163565b8152602082015161556781614163565b6020820152604082015161557a81614163565b6040820152606082015161558d81614163565b606082015260808201516155a081614163565b608082015292915050565b600061024082840312156155be57600080fd5b6155c6614bfd565b825181526155d660208401615525565b60208201526155e760408401615525565b60408201526155f98460608501615530565b606082015261010061560c818501615525565b608083015261012061561f818601615525565b60a0840152610140615632818701615525565b60c08501526101608087015160e086015261018080880151858701526101a0945084880151848701526101c0880151838701526101e088015182870152610200880151818701525050505061022084015181830152508091505092915050565b6000602082840312156156a457600080fd5b5051919050565b80820180821115610dd957610dd9615481565b634e487b7160e01b600052603260045260246000fd5b6000600182016156e6576156e6615481565b5060010190565b6000806040838503121561570057600080fd5b505080516020909101519092909150565b60006080828403121561572357600080fd5b6040516080810181811067ffffffffffffffff8211171561574657615746614b9a565b8060405250809150825181526020830151602082015260408301516040820152606083015160608201525092915050565b60006080828403121561578957600080fd5b6114368383615711565b6020808252825182820181905260009190848201906040850190845b81811015614b8e578351835292840192918401916001016157af565b600060c082840312156157dd57600080fd5b60405160c0810181811067ffffffffffffffff8211171561580057615800614b9a565b8060405250809150825181526020830151602082015260408301516040820152606083015160608201526080830151608082015260a083015160a08201525092915050565b6000806040838503121561585857600080fd5b825167ffffffffffffffff81111561586f57600080fd5b8301601f8101851361588057600080fd5b80516020615890614d2a83614cbd565b82815260c092830284018201928282019190898511156158af57600080fd5b948301945b848610156158d5576158c68a876157cb565b835294850194918301916158b4565b50969091015195979596505050505050565b8051610b58816151cb565b6000610160828403121561590557600080fd5b61590d614c21565b9050615918826158e7565b81526020820151602082015260408201516040820152606082015160608201526080820151608082015260a082015160a082015260c082015160c082015260e082015160e082015261010080830151818301525061012080830151818301525061014080830151818301525092915050565b600060e0828403121561599c57600080fd5b60405160e0810181811067ffffffffffffffff821117156159bf576159bf614b9a565b806040525080915082516159d281614163565b808252506020830151602082015260408301516040820152606083015160608201526080830151608082015260a083015160a082015260c083015160c08201525092915050565b60008183036101a0811215615a2d57600080fd5b615a35614c45565b83518152915060a0601f1982011215615a4d57600080fd5b50615a56614bda565b6020830151615a6481614163565b8082525060408301516020820152606083015160408201526080830151606082015260a0830151608082015280602083015250615aa48360c0840161598a565b604082015292915050565b60006103a08284031215615ac257600080fd5b615aca614c68565b825181526020808401519082015260408084015190820152606080840151908201526080808401519082015260a0808401519082015260c0808401519082015260e08084015190820152610100808401519082015261012080840151908201526101408084015190820152610160808401519082015261018080840151908201526101a080840151908201526101c080840151908201526101e080840151908201529050610200615b7d84828501615a19565b9082015292915050565b6000806105008385031215615b9b57600080fd5b615ba584846158f2565b9150615bb5846101608501615aaf565b90509250929050565b8082028115828204841417610dd957610dd9615481565b600082615bf257634e487b7160e01b600052601260045260246000fd5b500490565b600060c08284031215615c0957600080fd5b61143683836157cb56fea264697066735822122073b13beef705aff3ba17b965a0b8a0e8eb641c19d0dbe5088aff302096f50f3c64736f6c63430008150033"
}