{
  "address": "0xFF5121B9689B16e9558bEC16bca590f5d70E3ad4",
  "abi": [
    {
      "inputs": [
        {
          "internalType": "uint256",
          "name": "errorId_",
          "type": "uint256"
        }
      ],
      "name": "FluidConfigError",
      "type": "error"
    },
    {
      "anonymous": false,
      "inputs": [
        {
          "indexed": false,
          "internalType": "address",
          "name": "vault",
          "type": "address"
        },
        {
          "indexed": false,
          "internalType": "int256",
          "name": "oldBorrowRate",
          "type": "int256"
        },
        {
          "indexed": false,
          "internalType": "int256",
          "name": "newBorrowRate",
          "type": "int256"
        }
      ],
      "name": "LogUpdateBorrowRate",
      "type": "event"
    },
    {
      "anonymous": false,
      "inputs": [
        {
          "indexed": false,
          "internalType": "address",
          "name": "vault",
          "type": "address"
        },
        {
          "indexed": false,
          "internalType": "uint256",
          "name": "oldBorrowRateMagnifier",
          "type": "uint256"
        },
        {
          "indexed": false,
          "internalType": "uint256",
          "name": "newBorrowRateMagnifier",
          "type": "uint256"
        }
      ],
      "name": "LogUpdateBorrowRateMagnifier",
      "type": "event"
    },
    {
      "anonymous": false,
      "inputs": [
        {
          "indexed": false,
          "internalType": "address",
          "name": "vault",
          "type": "address"
        },
        {
          "indexed": false,
          "internalType": "int256",
          "name": "oldSupplyRate",
          "type": "int256"
        },
        {
          "indexed": false,
          "internalType": "int256",
          "name": "newSupplyRate",
          "type": "int256"
        }
      ],
      "name": "LogUpdateSupplyRate",
      "type": "event"
    },
    {
      "anonymous": false,
      "inputs": [
        {
          "indexed": false,
          "internalType": "address",
          "name": "vault",
          "type": "address"
        },
        {
          "indexed": false,
          "internalType": "uint256",
          "name": "oldSupplyRateMagnifier",
          "type": "uint256"
        },
        {
          "indexed": false,
          "internalType": "uint256",
          "name": "newSupplyRateMagnifier",
          "type": "uint256"
        }
      ],
      "name": "LogUpdateSupplyRateMagnifier",
      "type": "event"
    },
    {
      "inputs": [],
      "name": "TEAM_MULTISIG",
      "outputs": [
        {
          "internalType": "address",
          "name": "",
          "type": "address"
        }
      ],
      "stateMutability": "view",
      "type": "function"
    },
    {
      "inputs": [],
      "name": "TEAM_MULTISIG2",
      "outputs": [
        {
          "internalType": "address",
          "name": "",
          "type": "address"
        }
      ],
      "stateMutability": "view",
      "type": "function"
    },
    {
      "inputs": [
        {
          "internalType": "address",
          "name": "smartDebtVault_",
          "type": "address"
        }
      ],
      "name": "currentBorrowRate",
      "outputs": [
        {
          "internalType": "int256",
          "name": "borrowRate_",
          "type": "int256"
        }
      ],
      "stateMutability": "view",
      "type": "function"
    },
    {
      "inputs": [
        {
          "internalType": "address",
          "name": "normalDebtVault_",
          "type": "address"
        }
      ],
      "name": "currentBorrowRateMagnifier",
      "outputs": [
        {
          "internalType": "uint256",
          "name": "",
          "type": "uint256"
        }
      ],
      "stateMutability": "view",
      "type": "function"
    },
    {
      "inputs": [
        {
          "internalType": "address",
          "name": "smartColVault_",
          "type": "address"
        }
      ],
      "name": "currentSupplyRate",
      "outputs": [
        {
          "internalType": "int256",
          "name": "supplyRate_",
          "type": "int256"
        }
      ],
      "stateMutability": "view",
      "type": "function"
    },
    {
      "inputs": [
        {
          "internalType": "address",
          "name": "normalColVault_",
          "type": "address"
        }
      ],
      "name": "currentSupplyRateMagnifier",
      "outputs": [
        {
          "internalType": "uint256",
          "name": "",
          "type": "uint256"
        }
      ],
      "stateMutability": "view",
      "type": "function"
    },
    {
      "inputs": [
        {
          "internalType": "address",
          "name": "vault_",
          "type": "address"
        }
      ],
      "name": "getVaultType",
      "outputs": [
        {
          "internalType": "bool",
          "name": "isSmartCol_",
          "type": "bool"
        },
        {
          "internalType": "bool",
          "name": "isSmartDebt_",
          "type": "bool"
        }
      ],
      "stateMutability": "view",
      "type": "function"
    },
    {
      "inputs": [
        {
          "internalType": "address",
          "name": "smartDebtVault_",
          "type": "address"
        },
        {
          "internalType": "int256",
          "name": "newBorrowRate_",
          "type": "int256"
        }
      ],
      "name": "updateBorrowRate",
      "outputs": [],
      "stateMutability": "nonpayable",
      "type": "function"
    },
    {
      "inputs": [
        {
          "internalType": "address",
          "name": "normalDebtVault_",
          "type": "address"
        },
        {
          "internalType": "uint256",
          "name": "newMagnifier_",
          "type": "uint256"
        }
      ],
      "name": "updateBorrowRateMagnifier",
      "outputs": [],
      "stateMutability": "nonpayable",
      "type": "function"
    },
    {
      "inputs": [
        {
          "internalType": "address",
          "name": "smartColVault_",
          "type": "address"
        },
        {
          "internalType": "int256",
          "name": "newSupplyRate_",
          "type": "int256"
        }
      ],
      "name": "updateSupplyRate",
      "outputs": [],
      "stateMutability": "nonpayable",
      "type": "function"
    },
    {
      "inputs": [
        {
          "internalType": "address",
          "name": "normalColVault_",
          "type": "address"
        },
        {
          "internalType": "uint256",
          "name": "newMagnifier_",
          "type": "uint256"
        }
      ],
      "name": "updateSupplyRateMagnifier",
      "outputs": [],
      "stateMutability": "nonpayable",
      "type": "function"
    }
  ],
  "transactionHash": "0xd1038dbd38a3da4271979f230322990ae75dd8022d52cbcd55ece382d534e6e9",
  "args": [],
  "numDeployments": 1,
  "solcInputHash": "98b16aabfb0901b7e1bdfdd419cfac66",
  "bytecode": "0x608060405234801561001057600080fd5b50610d68806100206000396000f3fe608060405234801561001057600080fd5b50600436106100c95760003560e01c806373d6c15a11610081578063b788f3a11161005b578063b788f3a1146101bf578063c419112d146101da578063ff29c37c146101ed57600080fd5b806373d6c15a146101595780638e2d939e1461016c57806395ae47e11461017f57600080fd5b80634cb1327d116100b25780634cb1327d1461011e5780636418fc6514610131578063695ac04a1461014657600080fd5b80631f51fd93146100ce5780633a216003146100fd575b600080fd5b6100e16100dc366004610c6e565b610200565b6040805192151583529015156020830152015b60405180910390f35b61011061010b366004610c6e565b6102f3565b6040519081526020016100f4565b61011061012c366004610c6e565b610405565b61014461013f366004610c90565b61050d565b005b610110610154366004610c6e565b61066d565b610144610167366004610c90565b610754565b61011061017a366004610c6e565b6108ab565b61019a731e2e1aed876f67fe4fd54090fd7b8f57ce23421981565b60405173ffffffffffffffffffffffffffffffffffffffff90911681526020016100f4565b61019a734f6f977acdd1177dcd81ab83074855ecb9c2d49e81565b6101446101e8366004610c90565b610997565b6101446101fb366004610c90565b610aee565b6000808273ffffffffffffffffffffffffffffffffffffffff1663bb24fe8a6040518163ffffffff1660e01b8152600401602060405180830381865afa925050508015610288575060408051601f3d9081017fffffffffffffffffffffffffffffffffffffffffffffffffffffffffffffffe016820190925261028591810190610cba565b60015b61029757506000928392509050565b61271081036102ac5750600093849350915050565b614e2081036102c2575060019360009350915050565b61753081036102d8575060009360019350915050565b619c4081036102ed5750600193849350915050565b50915091565b6000806102ff83610200565b50905080610343576040517fd002e25a0000000000000000000000000000000000000000000000000000000081526201871a60048201526024015b60405180910390fd5b6040517fb5c736e40000000000000000000000000000000000000000000000000000000081526001600482015260009061ffff9073ffffffffffffffffffffffffffffffffffffffff86169063b5c736e490602401602060405180830381865afa1580156103b5573d6000803e3d6000fd5b505050506040513d601f19601f820116820180604052508101906103d99190610cba565b169050617fff600182901c169250806001166000036103fe576103fb83610cd3565b92505b5050919050565b60008061041183610200565b91505080610450576040517fd002e25a0000000000000000000000000000000000000000000000000000000081526201871a600482015260240161033a565b6040517fb5c736e40000000000000000000000000000000000000000000000000000000081526001600482015260009061ffff9060109073ffffffffffffffffffffffffffffffffffffffff87169063b5c736e490602401602060405180830381865afa1580156104c5573d6000803e3d6000fd5b505050506040513d601f19601f820116820180604052508101906104e99190610cba565b901c169050617fff600182901c169250806001166000036103fe576103fb83610cd3565b33734f6f977acdd1177dcd81ab83074855ecb9c2d49e148015906105455750731e2e1aed876f67fe4fd54090fd7b8f57ce2342193314155b15610581576040517fd002e25a00000000000000000000000000000000000000000000000000000000815262018719600482015260240161033a565b600061058c836108ab565b6040517ff7a0a7e00000000000000000000000000000000000000000000000000000000081526004810184905290915073ffffffffffffffffffffffffffffffffffffffff84169063f7a0a7e090602401600060405180830381600087803b1580156105f757600080fd5b505af115801561060b573d6000803e3d6000fd5b50506040805173ffffffffffffffffffffffffffffffffffffffff87168152602081018590529081018590527fbbf9128b9ed96934bebc07311a806952804d4093b46bdb8e303206a8f12d9691925060600190505b60405180910390a1505050565b60008061067983610200565b50905080156106b9576040517fd002e25a0000000000000000000000000000000000000000000000000000000081526201871a600482015260240161033a565b6040517fb5c736e40000000000000000000000000000000000000000000000000000000081526001600482015261ffff9073ffffffffffffffffffffffffffffffffffffffff85169063b5c736e490602401602060405180830381865afa158015610728573d6000803e3d6000fd5b505050506040513d601f19601f8201168201806040525081019061074c9190610cba565b169392505050565b33734f6f977acdd1177dcd81ab83074855ecb9c2d49e1480159061078c5750731e2e1aed876f67fe4fd54090fd7b8f57ce2342193314155b156107c8576040517fd002e25a00000000000000000000000000000000000000000000000000000000815262018719600482015260240161033a565b60006107d38361066d565b6040517f4a138a710000000000000000000000000000000000000000000000000000000081526004810184905290915073ffffffffffffffffffffffffffffffffffffffff841690634a138a7190602401600060405180830381600087803b15801561083e57600080fd5b505af1158015610852573d6000803e3d6000fd5b50506040805173ffffffffffffffffffffffffffffffffffffffff87168152602081018590529081018590527f4c9e86e08ce9d8f60b216cf0ed98f7b86ee64a87bcc36bf1c1c2b9a51928708992506060019050610660565b6000806108b783610200565b91505080156108f7576040517fd002e25a0000000000000000000000000000000000000000000000000000000081526201871a600482015260240161033a565b6040517fb5c736e40000000000000000000000000000000000000000000000000000000081526001600482015261ffff9060109073ffffffffffffffffffffffffffffffffffffffff86169063b5c736e490602401602060405180830381865afa158015610969573d6000803e3d6000fd5b505050506040513d601f19601f8201168201806040525081019061098d9190610cba565b901c169392505050565b33734f6f977acdd1177dcd81ab83074855ecb9c2d49e148015906109cf5750731e2e1aed876f67fe4fd54090fd7b8f57ce2342193314155b15610a0b576040517fd002e25a00000000000000000000000000000000000000000000000000000000815262018719600482015260240161033a565b6000610a1683610405565b6040517fa269e7840000000000000000000000000000000000000000000000000000000081526004810184905290915073ffffffffffffffffffffffffffffffffffffffff84169063a269e78490602401600060405180830381600087803b158015610a8157600080fd5b505af1158015610a95573d6000803e3d6000fd5b50506040805173ffffffffffffffffffffffffffffffffffffffff87168152602081018590529081018590527f56b582f7f6ada35b9644bbf7e6e7842b7706db0a24fd2e3ebb023d9c9a22ae7f92506060019050610660565b33734f6f977acdd1177dcd81ab83074855ecb9c2d49e14801590610b265750731e2e1aed876f67fe4fd54090fd7b8f57ce2342193314155b15610b62576040517fd002e25a00000000000000000000000000000000000000000000000000000000815262018719600482015260240161033a565b6000610b6d836102f3565b6040517fd90ed3550000000000000000000000000000000000000000000000000000000081526004810184905290915073ffffffffffffffffffffffffffffffffffffffff84169063d90ed35590602401600060405180830381600087803b158015610bd857600080fd5b505af1158015610bec573d6000803e3d6000fd5b50506040805173ffffffffffffffffffffffffffffffffffffffff87168152602081018590529081018590527ff3a7a0e51e8107785482b598d1b3ec873e3134970a24a859f4ada9738e25908492506060019050610660565b803573ffffffffffffffffffffffffffffffffffffffff81168114610c6957600080fd5b919050565b600060208284031215610c8057600080fd5b610c8982610c45565b9392505050565b60008060408385031215610ca357600080fd5b610cac83610c45565b946020939093013593505050565b600060208284031215610ccc57600080fd5b5051919050565b60007f80000000000000000000000000000000000000000000000000000000000000008203610d2b577f4e487b7100000000000000000000000000000000000000000000000000000000600052601160045260246000fd5b506000039056fea2646970667358221220b605199658f503db16318dc6818f27d223de81468cfd487ee7d22eeb24f673d764736f6c63430008150033",
  "devdoc": {
    "events": {
      "LogUpdateBorrowRate(address,int256,int256)": {
        "params": {
          "newBorrowRate": "The new borrow rate value",
          "oldBorrowRate": "The previous borrow rate value",
          "vault": "The address of the vault"
        }
      },
      "LogUpdateBorrowRateMagnifier(address,uint256,uint256)": {
        "params": {
          "newBorrowRateMagnifier": "The new borrow rate magnifier value",
          "oldBorrowRateMagnifier": "The previous borrow rate magnifier value",
          "vault": "The address of the vault"
        }
      },
      "LogUpdateSupplyRate(address,int256,int256)": {
        "params": {
          "newSupplyRate": "The new supply rate value",
          "oldSupplyRate": "The previous supply rate value",
          "vault": "The address of the vault"
        }
      },
      "LogUpdateSupplyRateMagnifier(address,uint256,uint256)": {
        "params": {
          "newSupplyRateMagnifier": "The new supply rate magnifier value",
          "oldSupplyRateMagnifier": "The previous supply rate magnifier value",
          "vault": "The address of the vault"
        }
      }
    },
    "kind": "dev",
    "methods": {
      "currentBorrowRate(address)": {
        "params": {
          "smartDebtVault_": "The address of the SMART DEBT vault to query."
        },
        "returns": {
          "borrowRate_": "The current borrow rate value."
        }
      },
      "currentBorrowRateMagnifier(address)": {
        "params": {
          "normalDebtVault_": "The address of the NORMAL DEBT vault to query."
        },
        "returns": {
          "_0": "The current borrow rate magnifier value."
        }
      },
      "currentSupplyRate(address)": {
        "params": {
          "smartColVault_": "The address of the SMART COL vault to query."
        },
        "returns": {
          "supplyRate_": "The current supply rate value."
        }
      },
      "currentSupplyRateMagnifier(address)": {
        "params": {
          "normalColVault_": "The address of the NORMAL COL vault to query."
        },
        "returns": {
          "_0": "The current supply rate magnifier value."
        }
      },
      "getVaultType(address)": {
        "params": {
          "vault_": "The address of the vault."
        },
        "returns": {
          "isSmartCol_": "True if the vault is a SMART COL vault, false otherwise.",
          "isSmartDebt_": "True if the vault is a SMART DEBT vault, false otherwise."
        }
      },
      "updateBorrowRate(address,int256)": {
        "params": {
          "newBorrowRate_": "The new borrow rate to set. Input in 1e2 (1% = 100, 100% = 10_000). If positive then charging else incentives",
          "smartDebtVault_": "The address of the SMART DEBT vault to update"
        }
      },
      "updateBorrowRateMagnifier(address,uint256)": {
        "params": {
          "newMagnifier_": "The new borrow rate magnifier value to set.",
          "normalDebtVault_": "The address of the NORMAL DEBT vault to update."
        }
      },
      "updateSupplyRate(address,int256)": {
        "params": {
          "newSupplyRate_": "The new supply rate to set. Input in 1e2 (1% = 100, 100% = 10_000). If positive then incentives else charging",
          "smartColVault_": "The address of the SMART COL vault to update"
        }
      },
      "updateSupplyRateMagnifier(address,uint256)": {
        "params": {
          "newMagnifier_": "The new supply rate magnifier value to set.",
          "normalColVault_": "The address of the NORMAL COL vault to update."
        }
      }
    },
    "version": 1
  },
  "userdoc": {
    "events": {
      "LogUpdateBorrowRate(address,int256,int256)": {
        "notice": "emitted when borrow rate is updated at a vault"
      },
      "LogUpdateBorrowRateMagnifier(address,uint256,uint256)": {
        "notice": "emitted when borrow rate magnifier is updated at a vault"
      },
      "LogUpdateSupplyRate(address,int256,int256)": {
        "notice": "emitted when supply rate is updated at a vault"
      },
      "LogUpdateSupplyRateMagnifier(address,uint256,uint256)": {
        "notice": "emitted when supply rate magnifier is updated at a vault"
      }
    },
    "kind": "user",
    "methods": {
      "TEAM_MULTISIG()": {
        "notice": "Team multisig allowed to trigger collecting revenue"
      },
      "currentBorrowRate(address)": {
        "notice": "returns the currently configured borrow rate at the `vault_`"
      },
      "currentBorrowRateMagnifier(address)": {
        "notice": "returns the currently configured borrow rate magnifier at the `vault_`"
      },
      "currentSupplyRate(address)": {
        "notice": "returns the currently configured supply rate at the `vault_`"
      },
      "currentSupplyRateMagnifier(address)": {
        "notice": "returns the currently configured supply rate magnifier at the `vault_`"
      },
      "getVaultType(address)": {
        "notice": "Get the type of a vault (assumes valid Fluid vault address is passed in)"
      },
      "updateBorrowRate(address,int256)": {
        "notice": "updates the borrow rate for a given SMART DEBT vault."
      },
      "updateBorrowRateMagnifier(address,uint256)": {
        "notice": "Sets the borrow rate magnifier for a given NORMAL DEBT vault."
      },
      "updateSupplyRate(address,int256)": {
        "notice": "updates the supply rate for a given SMART COL vault."
      },
      "updateSupplyRateMagnifier(address,uint256)": {
        "notice": "Sets the supply rate magnifier for a given NORMAL COL vault."
      }
    },
    "version": 1
  },
  "storageLayout": {
    "storage": [],
    "types": null
  }
}