{
  "address": "0x9857a5Cf5FD041aa2Dd56F8BB1baD9C5375bFE49",
  "abi": [
    {
      "inputs": [
        {
          "internalType": "address",
          "name": "fla_",
          "type": "address"
        },
        {
          "internalType": "address",
          "name": "weth_",
          "type": "address"
        }
      ],
      "stateMutability": "nonpayable",
      "type": "constructor"
    },
    {
      "inputs": [
        {
          "internalType": "uint256",
          "name": "errorId_",
          "type": "uint256"
        }
      ],
      "name": "FluidSafeApproveError",
      "type": "error"
    },
    {
      "inputs": [
        {
          "internalType": "uint256",
          "name": "errorId_",
          "type": "uint256"
        }
      ],
      "name": "FluidSafeTransferError",
      "type": "error"
    },
    {
      "inputs": [],
      "name": "FluidVaultLiquidator__InvalidOperation",
      "type": "error"
    },
    {
      "inputs": [],
      "name": "FluidVaultLiquidator__InvalidTimestamp",
      "type": "error"
    },
    {
      "inputs": [],
      "name": "FluidVaultLiquidator__InvalidTopTick",
      "type": "error"
    },
    {
      "anonymous": false,
      "inputs": [
        {
          "indexed": true,
          "internalType": "address",
          "name": "vault",
          "type": "address"
        },
        {
          "indexed": false,
          "internalType": "uint256",
          "name": "collateral",
          "type": "uint256"
        },
        {
          "indexed": false,
          "internalType": "uint256",
          "name": "debt",
          "type": "uint256"
        }
      ],
      "name": "Liquidated",
      "type": "event"
    },
    {
      "inputs": [],
      "name": "ETH_ADDRESS",
      "outputs": [
        {
          "internalType": "address",
          "name": "",
          "type": "address"
        }
      ],
      "stateMutability": "view",
      "type": "function"
    },
    {
      "inputs": [],
      "name": "FLA",
      "outputs": [
        {
          "internalType": "contract InstaFlashInterface",
          "name": "",
          "type": "address"
        }
      ],
      "stateMutability": "view",
      "type": "function"
    },
    {
      "inputs": [],
      "name": "WETH",
      "outputs": [
        {
          "internalType": "contract IWETH9",
          "name": "",
          "type": "address"
        }
      ],
      "stateMutability": "view",
      "type": "function"
    },
    {
      "inputs": [
        {
          "internalType": "address[]",
          "name": "assets",
          "type": "address[]"
        },
        {
          "internalType": "uint256[]",
          "name": "amounts",
          "type": "uint256[]"
        },
        {
          "internalType": "uint256[]",
          "name": "premiums",
          "type": "uint256[]"
        },
        {
          "internalType": "address",
          "name": "initiator",
          "type": "address"
        },
        {
          "internalType": "bytes",
          "name": "_data",
          "type": "bytes"
        }
      ],
      "name": "executeOperation",
      "outputs": [
        {
          "internalType": "bool",
          "name": "",
          "type": "bool"
        }
      ],
      "stateMutability": "nonpayable",
      "type": "function"
    },
    {
      "inputs": [
        {
          "components": [
            {
              "internalType": "address",
              "name": "vault",
              "type": "address"
            },
            {
              "internalType": "uint256",
              "name": "vaultType",
              "type": "uint256"
            },
            {
              "internalType": "uint256",
              "name": "expiration",
              "type": "uint256"
            },
            {
              "internalType": "int256",
              "name": "topTick",
              "type": "int256"
            },
            {
              "internalType": "address",
              "name": "debtToken",
              "type": "address"
            },
            {
              "internalType": "uint256",
              "name": "debtAmount",
              "type": "uint256"
            },
            {
              "internalType": "uint256",
              "name": "token0DebtAmt",
              "type": "uint256"
            },
            {
              "internalType": "uint256",
              "name": "token1DebtAmt",
              "type": "uint256"
            },
            {
              "internalType": "uint256",
              "name": "debtSharesMin",
              "type": "uint256"
            },
            {
              "internalType": "uint256",
              "name": "colPerUnitDebt",
              "type": "uint256"
            },
            {
              "internalType": "uint256",
              "name": "token0ColAmtPerUnitShares",
              "type": "uint256"
            },
            {
              "internalType": "uint256",
              "name": "token1ColAmtPerUnitShares",
              "type": "uint256"
            },
            {
              "internalType": "bool",
              "name": "absorb",
              "type": "bool"
            }
          ],
          "internalType": "struct VaultLiquidatorImplementationV1.LiquidationDustParams",
          "name": "params_",
          "type": "tuple"
        }
      ],
      "name": "liquidateDust",
      "outputs": [],
      "stateMutability": "nonpayable",
      "type": "function"
    },
    {
      "inputs": [
        {
          "components": [
            {
              "internalType": "address",
              "name": "vault",
              "type": "address"
            },
            {
              "internalType": "uint256",
              "name": "vaultType",
              "type": "uint256"
            },
            {
              "internalType": "uint256",
              "name": "expiration",
              "type": "uint256"
            },
            {
              "internalType": "int256",
              "name": "topTick",
              "type": "int256"
            },
            {
              "internalType": "uint256",
              "name": "route",
              "type": "uint256"
            },
            {
              "internalType": "address",
              "name": "flashloanToken",
              "type": "address"
            },
            {
              "internalType": "uint256",
              "name": "flashloanAmount",
              "type": "uint256"
            },
            {
              "internalType": "uint256",
              "name": "token0DebtAmt",
              "type": "uint256"
            },
            {
              "internalType": "uint256",
              "name": "token1DebtAmt",
              "type": "uint256"
            },
            {
              "internalType": "uint256",
              "name": "debtSharesMin",
              "type": "uint256"
            },
            {
              "internalType": "uint256",
              "name": "colPerUnitDebt",
              "type": "uint256"
            },
            {
              "internalType": "uint256",
              "name": "token0ColAmtPerUnitShares",
              "type": "uint256"
            },
            {
              "internalType": "uint256",
              "name": "token1ColAmtPerUnitShares",
              "type": "uint256"
            },
            {
              "internalType": "bool",
              "name": "absorb",
              "type": "bool"
            },
            {
              "internalType": "address",
              "name": "swapToken",
              "type": "address"
            },
            {
              "internalType": "uint256",
              "name": "swapAmount",
              "type": "uint256"
            },
            {
              "internalType": "address",
              "name": "swapRouter",
              "type": "address"
            },
            {
              "internalType": "address",
              "name": "swapApproval",
              "type": "address"
            },
            {
              "internalType": "bytes",
              "name": "swapData",
              "type": "bytes"
            }
          ],
          "internalType": "struct VaultLiquidatorImplementationV1.LiquidationParams",
          "name": "params_",
          "type": "tuple"
        }
      ],
      "name": "liquidation",
      "outputs": [],
      "stateMutability": "nonpayable",
      "type": "function"
    },
    {
      "stateMutability": "payable",
      "type": "receive"
    }
  ],
  "transactionHash": "0xfefb4777f167988075c2767ab86bd6cc05e148713d068518286ce51cc343fcff",
  "args": [
    "0x352423e2fA5D5c99343d371C9e3bC56C87723Cc7",
    "0x6100E367285b01F48D07953803A2d8dCA5D19873"
  ],
  "numDeployments": 1,
  "solcInputHash": "6c025873a9fc3a094245e39f39a9a187",
  "bytecode": "0x60e06040523060c0523480156200001557600080fd5b50604051620022773803806200227783398101604081905262000038916200006d565b6001600160a01b039182166080521660a052620000a5565b80516001600160a01b03811681146200006857600080fd5b919050565b600080604083850312156200008157600080fd5b6200008c8362000050565b91506200009c6020840162000050565b90509250929050565b60805160a05160c05161217262000105600039600081816101b8015261103801526000818161015f015281816108bf01528181610ec601528181610f67015261112001526000818160a901528181610754015261124001526121726000f3fe6080604052600436106100695760003560e01c8063a734f06e11610043578063a734f06e14610125578063ad5c46481461014d578063cf50d4501461018157600080fd5b80630a7196941461007557806376ca658a14610097578063920f5c84146100f557600080fd5b3661007057005b600080fd5b34801561008157600080fd5b506100956100903660046118f7565b6101a1565b005b3480156100a357600080fd5b506100cb7f000000000000000000000000000000000000000000000000000000000000000081565b60405173ffffffffffffffffffffffffffffffffffffffff90911681526020015b60405180910390f35b34801561010157600080fd5b506101156101103660046119fb565b61073a565b60405190151581526020016100ec565b34801561013157600080fd5b506100cb73eeeeeeeeeeeeeeeeeeeeeeeeeeeeeeeeeeeeeeee81565b34801561015957600080fd5b506100cb7f000000000000000000000000000000000000000000000000000000000000000081565b34801561018d57600080fd5b5061009561019c366004611baa565b611021565b73ffffffffffffffffffffffffffffffffffffffff7f0000000000000000000000000000000000000000000000000000000000000000163003610210576040517f97f5318b00000000000000000000000000000000000000000000000000000000815260040160405180910390fd5b610315604051806102600160405280600073ffffffffffffffffffffffffffffffffffffffff16815260200160008152602001600081526020016000815260200160008152602001600073ffffffffffffffffffffffffffffffffffffffff16815260200160008152602001600081526020016000815260200160008152602001600081526020016000815260200160008152602001600015158152602001600073ffffffffffffffffffffffffffffffffffffffff16815260200160008152602001600073ffffffffffffffffffffffffffffffffffffffff168152602001600073ffffffffffffffffffffffffffffffffffffffff168152602001606081525090565b6040808301519082015260608083015190820152815173ffffffffffffffffffffffffffffffffffffffff16815260208083015190820152610356816112b2565b608082015160009073ffffffffffffffffffffffffffffffffffffffff1673eeeeeeeeeeeeeeeeeeeeeeeeeeeeeeeeeeeeeeee146103c1576103a283608001518460000151600061141e565b6103b9836080015184600001518560a0015161141e565b5060006103c8565b5060a08201515b600080846020015160010361049e57845160c08601516101208701516101808801516040517f8433ea22000000000000000000000000000000000000000000000000000000008152600481019390935260248301919091523060448301521515606482015273ffffffffffffffffffffffffffffffffffffffff90911690638433ea229085906084015b604080518083038185885af115801561046f573d6000803e3d6000fd5b50505050506040513d601f19601f820116820180604052508101906104949190611d04565b9092509050610733565b846020015160020361058d57845160c08601516101208701516101408801516101608901516101808a01516040517f7bae33610000000000000000000000000000000000000000000000000000000081526004810195909552602485019390935260448401919091526064830152306084830152151560a482015273ffffffffffffffffffffffffffffffffffffffff90911690637bae336190859060c40160806040518083038185885af115801561055b573d6000803e3d6000fd5b50505050506040513d601f19601f820116820180604052508101906105809190611d28565b5091935091506107339050565b846020015160030361063057845160c086015160e08701516101008801516101208901516101808a01516040517f7bae33610000000000000000000000000000000000000000000000000000000081526004810195909552602485019390935260448401919091526064830152306084830152151560a482015273ffffffffffffffffffffffffffffffffffffffff90911690637bae336190859060c401610452565b846020015160040361073357845160c086015160e08701516101008801516101208901516101408a01516101608b01516101808c01516040517f27fa2b530000000000000000000000000000000000000000000000000000000081526004810197909752602487019590955260448601939093526064850191909152608484015260a48301523060c4830152151560e482015273ffffffffffffffffffffffffffffffffffffffff909116906327fa2b539085906101040160806040518083038185885af1158015610706573d6000803e3d6000fd5b50505050506040513d601f19601f8201168201806040525081019061072b9190611d28565b509193509150505b5050505050565b60003373ffffffffffffffffffffffffffffffffffffffff7f000000000000000000000000000000000000000000000000000000000000000016146107ab576040517f97f5318b00000000000000000000000000000000000000000000000000000000815260040160405180910390fd5b73ffffffffffffffffffffffffffffffffffffffff841630146107fa576040517f97f5318b00000000000000000000000000000000000000000000000000000000815260040160405180910390fd5b600061080883850185611baa565b9050600073eeeeeeeeeeeeeeeeeeeeeeeeeeeeeeeeeeeeeeee73ffffffffffffffffffffffffffffffffffffffff168260a0015173ffffffffffffffffffffffffffffffffffffffff161461088a5761086b8260a001518360000151600061141e565b6108828260a0015183600001518460c0015161141e565b506000610938565b60c08201516040517f2e1a7d4d00000000000000000000000000000000000000000000000000000000815260048101919091527f000000000000000000000000000000000000000000000000000000000000000073ffffffffffffffffffffffffffffffffffffffff1690632e1a7d4d90602401600060405180830381600087803b15801561091857600080fd5b505af115801561092c573d6000803e3d6000fd5b505050508160c0015190505b6000808360200151600103610a0e57835160e08501516101408601516101a08701516040517f8433ea22000000000000000000000000000000000000000000000000000000008152600481019390935260248301919091523060448301521515606482015273ffffffffffffffffffffffffffffffffffffffff90911690638433ea229085906084015b604080518083038185885af11580156109df573d6000803e3d6000fd5b50505050506040513d601f19601f82011682018060405250810190610a049190611d04565b9092509050610ca5565b8360200151600203610afd57835160e08501516101408601516101608701516101808801516101a08901516040517f7bae33610000000000000000000000000000000000000000000000000000000081526004810195909552602485019390935260448401919091526064830152306084830152151560a482015273ffffffffffffffffffffffffffffffffffffffff90911690637bae336190859060c40160806040518083038185885af1158015610acb573d6000803e3d6000fd5b50505050506040513d601f19601f82011682018060405250810190610af09190611d28565b509193509150610ca59050565b8360200151600303610ba157835160e08501516101008601516101208701516101408801516101a08901516040517f7bae33610000000000000000000000000000000000000000000000000000000081526004810195909552602485019390935260448401919091526064830152306084830152151560a482015273ffffffffffffffffffffffffffffffffffffffff90911690637bae336190859060c4016109c2565b8360200151600403610ca557835160e08501516101008601516101208701516101408801516101608901516101808a01516101a08b01516040517f27fa2b530000000000000000000000000000000000000000000000000000000081526004810197909752602487019590955260448601939093526064850191909152608484015260a48301523060c4830152151560e482015273ffffffffffffffffffffffffffffffffffffffff909116906327fa2b539085906101040160806040518083038185885af1158015610c78573d6000803e3d6000fd5b50505050506040513d601f19601f82011682018060405250810190610c9d9190611d28565b509193509150505b836101c0015173ffffffffffffffffffffffffffffffffffffffff168460a0015173ffffffffffffffffffffffffffffffffffffffff1614610da6576101c084015173ffffffffffffffffffffffffffffffffffffffff1673eeeeeeeeeeeeeeeeeeeeeeeeeeeeeeeeeeeeeeee14610d5057610d2d846101c00151856102200151600061141e565b610d47846101c00151856102200151866101e0015161141e565b60009250610d59565b836101e0015192505b610da4846102000151856102400151856040518060400160405280600c81526020017f537761703a206661696c656400000000000000000000000000000000000000008152506114d9565b505b8351604080518381526020810185905273ffffffffffffffffffffffffffffffffffffffff909216917f09c223cfcd8c93e245f558f5f8de755fc0930fd9bc257441155ef5d54a170e0f910160405180910390a2505050600087876000818110610e1257610e12611d5e565b905060200201358a8a6000818110610e2c57610e2c611d5e565b90506020020135610e3d9190611dbc565b610e4890600a611dbc565b905073eeeeeeeeeeeeeeeeeeeeeeeeeeeeeeeeeeeeeeee73ffffffffffffffffffffffffffffffffffffffff168260a0015173ffffffffffffffffffffffffffffffffffffffff1603610fdd576040517f70a082310000000000000000000000000000000000000000000000000000000081523060048201526000907f000000000000000000000000000000000000000000000000000000000000000073ffffffffffffffffffffffffffffffffffffffff16906370a0823190602401602060405180830381865afa158015610f22573d6000803e3d6000fd5b505050506040513d601f19601f82011682018060405250810190610f469190611dcf565b905081811015610fdb5773ffffffffffffffffffffffffffffffffffffffff7f00000000000000000000000000000000000000000000000000000000000000001663d0e30db0610f968385611de8565b6040518263ffffffff1660e01b81526004016000604051808303818588803b158015610fc157600080fd5b505af1158015610fd5573d6000803e3d6000fd5b50505050505b505b61100f8c8c6000818110610ff357610ff3611d5e565b90506020020160208101906110089190611dfb565b33836115f4565b5060019b9a5050505050505050505050565b73ffffffffffffffffffffffffffffffffffffffff7f0000000000000000000000000000000000000000000000000000000000000000163003611090576040517f97f5318b00000000000000000000000000000000000000000000000000000000815260040160405180910390fd5b611099816112b2565b6040805160018082528183019092526000916020808301908036833750506040805160018082528183019092529293506000929150602080830190803683370190505060a084015190915073ffffffffffffffffffffffffffffffffffffffff1673eeeeeeeeeeeeeeeeeeeeeeeeeeeeeeeeeeeeeeee1461111e578260a00151611140565b7f00000000000000000000000000000000000000000000000000000000000000005b8260008151811061115357611153611d5e565b602002602001019073ffffffffffffffffffffffffffffffffffffffff16908173ffffffffffffffffffffffffffffffffffffffff16815250508260c00151816000815181106111a5576111a5611d5e565b6020026020010181815250506000836040516020016111c49190611e8b565b604080517fffffffffffffffffffffffffffffffffffffffffffffffffffffffffffffffe081840301815282825260808701516000845260208401928390527f095627e900000000000000000000000000000000000000000000000000000000909252925073ffffffffffffffffffffffffffffffffffffffff7f0000000000000000000000000000000000000000000000000000000000000000169163095627e99161127a9187918791879060248101612015565b600060405180830381600087803b15801561129457600080fd5b505af11580156112a8573d6000803e3d6000fd5b5050505050505050565b600081604001511180156112c95750428160400151105b15611300576040517f2fad55ba00000000000000000000000000000000000000000000000000000000815260040160405180910390fd5b80516040517fb5c736e40000000000000000000000000000000000000000000000000000000081526000600482018190529173ffffffffffffffffffffffffffffffffffffffff169063b5c736e490602401602060405180830381865afa15801561136f573d6000803e3d6000fd5b505050506040513d601f19601f820116820180604052508101906113939190611dcf565b905060006113a9620fffff600284901c16611698565b90508083606001511380156113e257507f8000000000000000000000000000000000000000000000000000000000000000836060015114155b15611419576040517ff64eca4900000000000000000000000000000000000000000000000000000000815260040160405180910390fd5b505050565b60006040517f095ea7b300000000000000000000000000000000000000000000000000000000815273ffffffffffffffffffffffffffffffffffffffff84166004820152826024820152602060006044836000895af191505080601f3d11600160005114161516156114925750823b153d17155b806114d3576040517fffd1fc0700000000000000000000000000000000000000000000000000000000815262013c6960048201526024015b60405180910390fd5b50505050565b60608247101561156b576040517f08c379a000000000000000000000000000000000000000000000000000000000815260206004820152602660248201527f416464726573733a20696e73756666696369656e742062616c616e636520666f60448201527f722063616c6c000000000000000000000000000000000000000000000000000060648201526084016114ca565b6000808673ffffffffffffffffffffffffffffffffffffffff16858760405161159491906120d5565b60006040518083038185875af1925050503d80600081146115d1576040519150601f19603f3d011682016040523d82523d6000602084013e6115d6565b606091505b50915091506115e787838387611767565b925050505b949350505050565b60006040517fa9059cbb00000000000000000000000000000000000000000000000000000000815273ffffffffffffffffffffffffffffffffffffffff84166004820152826024820152602060006044836000895af13d15601f3d11600160005114161716915050806114d3576040517fdee51a8a0000000000000000000000000000000000000000000000000000000081526201155a60048201526024016114ca565b6000620fffff8210611706576040517f08c379a000000000000000000000000000000000000000000000000000000000815260206004820152600e60248201527f696e76616c69642d6e756d62657200000000000000000000000000000000000060448201526064016114ca565b811561173f578160011660011461172e57611729600183901c6207ffff166120f1565b611739565b6207ffff600183901c165b92915050565b507f80000000000000000000000000000000000000000000000000000000000000005b919050565b606083156117fd5782516000036117f65773ffffffffffffffffffffffffffffffffffffffff85163b6117f6576040517f08c379a000000000000000000000000000000000000000000000000000000000815260206004820152601d60248201527f416464726573733a2063616c6c20746f206e6f6e2d636f6e747261637400000060448201526064016114ca565b50816115ec565b6115ec83838151156118125781518083602001fd5b806040517f08c379a00000000000000000000000000000000000000000000000000000000081526004016114ca9190612129565b7f4e487b7100000000000000000000000000000000000000000000000000000000600052604160045260246000fd5b6040516101a0810167ffffffffffffffff8111828210171561189957611899611846565b60405290565b604051610260810167ffffffffffffffff8111828210171561189957611899611846565b803573ffffffffffffffffffffffffffffffffffffffff8116811461176257600080fd5b8035801515811461176257600080fd5b60006101a0828403121561190a57600080fd5b611912611875565b61191b836118c3565b8152602083013560208201526040830135604082015260608301356060820152611947608084016118c3565b608082015260a0838101359082015260c0808401359082015260e0808401359082015261010080840135908201526101208084013590820152610140808401359082015261016080840135908201526101806119a48185016118e7565b908201529392505050565b60008083601f8401126119c157600080fd5b50813567ffffffffffffffff8111156119d957600080fd5b6020830191508360208260051b85010111156119f457600080fd5b9250929050565b600080600080600080600080600060a08a8c031215611a1957600080fd5b893567ffffffffffffffff80821115611a3157600080fd5b611a3d8d838e016119af565b909b50995060208c0135915080821115611a5657600080fd5b611a628d838e016119af565b909950975060408c0135915080821115611a7b57600080fd5b611a878d838e016119af565b9097509550859150611a9b60608d016118c3565b945060808c0135915080821115611ab157600080fd5b818c0191508c601f830112611ac557600080fd5b813581811115611ad457600080fd5b8d6020828501011115611ae657600080fd5b6020830194508093505050509295985092959850929598565b600082601f830112611b1057600080fd5b813567ffffffffffffffff80821115611b2b57611b2b611846565b604051601f83017fffffffffffffffffffffffffffffffffffffffffffffffffffffffffffffffe0908116603f01168101908282118183101715611b7157611b71611846565b81604052838152866020858801011115611b8a57600080fd5b836020870160208301376000602085830101528094505050505092915050565b600060208284031215611bbc57600080fd5b813567ffffffffffffffff80821115611bd457600080fd5b908301906102608286031215611be957600080fd5b611bf161189f565b611bfa836118c3565b815260208301356020820152604083013560408201526060830135606082015260808301356080820152611c3060a084016118c3565b60a082015260c0838101359082015260e08084013590820152610100808401359082015261012080840135908201526101408084013590820152610160808401359082015261018080840135908201526101a0611c8e8185016118e7565b908201526101c0611ca08482016118c3565b908201526101e08381013590820152610200611cbd8185016118c3565b90820152610220611ccf8482016118c3565b908201526102408381013583811115611ce757600080fd5b611cf388828701611aff565b918301919091525095945050505050565b60008060408385031215611d1757600080fd5b505080516020909101519092909150565b60008060008060808587031215611d3e57600080fd5b505082516020840151604085015160609095015191969095509092509050565b7f4e487b7100000000000000000000000000000000000000000000000000000000600052603260045260246000fd5b7f4e487b7100000000000000000000000000000000000000000000000000000000600052601160045260246000fd5b8082018082111561173957611739611d8d565b600060208284031215611de157600080fd5b5051919050565b8181038181111561173957611739611d8d565b600060208284031215611e0d57600080fd5b611e16826118c3565b9392505050565b60005b83811015611e38578181015183820152602001611e20565b50506000910152565b60008151808452611e59816020860160208601611e1d565b601f017fffffffffffffffffffffffffffffffffffffffffffffffffffffffffffffffe0169290920160200192915050565b60208152611eb260208201835173ffffffffffffffffffffffffffffffffffffffff169052565b602082015160408201526040820151606082015260608201516080820152608082015160a0820152600060a0830151611f0360c084018273ffffffffffffffffffffffffffffffffffffffff169052565b5060c083015160e08381019190915283015161010080840191909152830151610120808401919091528301516101408084019190915283015161016080840191909152830151610180808401919091528301516101a0808401919091528301516101c0611f738185018315159052565b84015190506101e0611f9c8482018373ffffffffffffffffffffffffffffffffffffffff169052565b840151610200848101919091528401519050610220611fd28185018373ffffffffffffffffffffffffffffffffffffffff169052565b8401519050610240611ffb8482018373ffffffffffffffffffffffffffffffffffffffff169052565b8401516102608481015290506115ec610280840182611e41565b60a0808252865190820181905260009060209060c0840190828a01845b8281101561206457815173ffffffffffffffffffffffffffffffffffffffff1684529284019290840190600101612032565b5050508381038285015287518082528883019183019060005b818110156120995783518352928401929184019160010161207d565b505087604086015284810360608601526120b38188611e41565b9250505082810360808401526120c98185611e41565b98975050505050505050565b600082516120e7818460208701611e1d565b9190910192915050565b60007f8000000000000000000000000000000000000000000000000000000000000000820361212257612122611d8d565b5060000390565b602081526000611e166020830184611e4156fea26469706673582212207d93b068da8f40b31be828a6bc5fc54d283c385156000159d2789d1d9c7ed4d864736f6c63430008150033",
  "devdoc": {
    "kind": "dev",
    "methods": {},
    "version": 1
  },
  "userdoc": {
    "kind": "user",
    "methods": {},
    "version": 1
  },
  "storageLayout": {
    "storage": [],
    "types": null
  }
}